{
	"contracts/CarreraCoches/cocheToken.sol": {
		"CocheToken": {
			"abi": [
				{
					"anonymous": false,
					"inputs": [
						{
							"indexed": true,
							"internalType": "address",
							"name": "_owner",
							"type": "address"
						},
						{
							"indexed": true,
							"internalType": "address",
							"name": "_approved",
							"type": "address"
						},
						{
							"indexed": true,
							"internalType": "uint256",
							"name": "_tokenId",
							"type": "uint256"
						}
					],
					"name": "Approval",
					"type": "event"
				},
				{
					"anonymous": false,
					"inputs": [
						{
							"indexed": true,
							"internalType": "address",
							"name": "previousOwner",
							"type": "address"
						},
						{
							"indexed": true,
							"internalType": "address",
							"name": "newOwner",
							"type": "address"
						}
					],
					"name": "OwnershipTransferred",
					"type": "event"
				},
				{
					"anonymous": false,
					"inputs": [
						{
							"indexed": true,
							"internalType": "address",
							"name": "_from",
							"type": "address"
						},
						{
							"indexed": true,
							"internalType": "address",
							"name": "_to",
							"type": "address"
						},
						{
							"indexed": true,
							"internalType": "uint256",
							"name": "_tokenId",
							"type": "uint256"
						}
					],
					"name": "Transfer",
					"type": "event"
				},
				{
					"anonymous": false,
					"inputs": [
						{
							"indexed": false,
							"internalType": "string",
							"name": "mo",
							"type": "string"
						},
						{
							"indexed": false,
							"internalType": "string",
							"name": "ma",
							"type": "string"
						},
						{
							"indexed": false,
							"internalType": "uint32",
							"name": "niv",
							"type": "uint32"
						},
						{
							"indexed": false,
							"internalType": "uint256",
							"name": "carrGan",
							"type": "uint256"
						},
						{
							"indexed": false,
							"internalType": "uint256",
							"name": "carrTot",
							"type": "uint256"
						}
					],
					"name": "cochePropietario",
					"type": "event"
				},
				{
					"anonymous": false,
					"inputs": [
						{
							"indexed": false,
							"internalType": "uint256",
							"name": "compr",
							"type": "uint256"
						}
					],
					"name": "comprobar",
					"type": "event"
				},
				{
					"anonymous": false,
					"inputs": [
						{
							"indexed": false,
							"internalType": "string",
							"name": "ms",
							"type": "string"
						}
					],
					"name": "confirmacionDepositoLleno",
					"type": "event"
				},
				{
					"anonymous": false,
					"inputs": [
						{
							"indexed": false,
							"internalType": "string",
							"name": "ms",
							"type": "string"
						},
						{
							"indexed": false,
							"internalType": "uint256",
							"name": "res",
							"type": "uint256"
						}
					],
					"name": "mostrarResultado",
					"type": "event"
				},
				{
					"inputs": [
						{
							"internalType": "uint256",
							"name": "dineroApostar",
							"type": "uint256"
						}
					],
					"name": "Apostar",
					"outputs": [
						{
							"internalType": "string",
							"name": "",
							"type": "string"
						}
					],
					"stateMutability": "payable",
					"type": "function"
				},
				{
					"inputs": [],
					"name": "_owner",
					"outputs": [
						{
							"internalType": "address",
							"name": "",
							"type": "address"
						}
					],
					"stateMutability": "view",
					"type": "function"
				},
				{
					"inputs": [
						{
							"internalType": "string",
							"name": "_modelo",
							"type": "string"
						},
						{
							"internalType": "string",
							"name": "_marca",
							"type": "string"
						},
						{
							"internalType": "string",
							"name": "_nombrePiloto",
							"type": "string"
						}
					],
					"name": "anadirCoche",
					"outputs": [
						{
							"internalType": "uint256",
							"name": "",
							"type": "uint256"
						}
					],
					"stateMutability": "nonpayable",
					"type": "function"
				},
				{
					"inputs": [
						{
							"internalType": "address",
							"name": "_approved",
							"type": "address"
						},
						{
							"internalType": "uint256",
							"name": "_tokenId",
							"type": "uint256"
						}
					],
					"name": "approve",
					"outputs": [],
					"stateMutability": "payable",
					"type": "function"
				},
				{
					"inputs": [
						{
							"internalType": "address",
							"name": "_owner",
							"type": "address"
						}
					],
					"name": "balanceOf",
					"outputs": [
						{
							"internalType": "uint256",
							"name": "",
							"type": "uint256"
						}
					],
					"stateMutability": "view",
					"type": "function"
				},
				{
					"inputs": [
						{
							"internalType": "uint256",
							"name": "",
							"type": "uint256"
						}
					],
					"name": "cocheDePropietario",
					"outputs": [
						{
							"internalType": "address",
							"name": "",
							"type": "address"
						}
					],
					"stateMutability": "view",
					"type": "function"
				},
				{
					"inputs": [
						{
							"internalType": "address",
							"name": "_address",
							"type": "address"
						},
						{
							"internalType": "string",
							"name": "_newModelo",
							"type": "string"
						},
						{
							"internalType": "string",
							"name": "_newMarca",
							"type": "string"
						}
					],
					"name": "comprarCoche",
					"outputs": [
						{
							"internalType": "string",
							"name": "",
							"type": "string"
						}
					],
					"stateMutability": "payable",
					"type": "function"
				},
				{
					"inputs": [
						{
							"internalType": "uint256",
							"name": "",
							"type": "uint256"
						}
					],
					"name": "listaCoches",
					"outputs": [
						{
							"internalType": "address",
							"name": "idPiloto",
							"type": "address"
						},
						{
							"internalType": "string",
							"name": "modelo",
							"type": "string"
						},
						{
							"internalType": "string",
							"name": "marca",
							"type": "string"
						},
						{
							"internalType": "string",
							"name": "nombrePiloto",
							"type": "string"
						},
						{
							"internalType": "uint256",
							"name": "carrerasGanadas",
							"type": "uint256"
						},
						{
							"internalType": "uint256",
							"name": "carrerasTotales",
							"type": "uint256"
						},
						{
							"internalType": "uint256",
							"name": "tiempoEspera",
							"type": "uint256"
						},
						{
							"internalType": "uint32",
							"name": "nivel",
							"type": "uint32"
						}
					],
					"stateMutability": "view",
					"type": "function"
				},
				{
					"inputs": [
						{
							"internalType": "address",
							"name": "",
							"type": "address"
						}
					],
					"name": "numeroCochesPersona",
					"outputs": [
						{
							"internalType": "uint256",
							"name": "",
							"type": "uint256"
						}
					],
					"stateMutability": "view",
					"type": "function"
				},
				{
					"inputs": [],
					"name": "owner",
					"outputs": [
						{
							"internalType": "address",
							"name": "",
							"type": "address"
						}
					],
					"stateMutability": "view",
					"type": "function"
				},
				{
					"inputs": [
						{
							"internalType": "uint256",
							"name": "_tokenId",
							"type": "uint256"
						}
					],
					"name": "ownerOf",
					"outputs": [
						{
							"internalType": "address",
							"name": "",
							"type": "address"
						}
					],
					"stateMutability": "view",
					"type": "function"
				},
				{
					"inputs": [],
					"name": "renounceOwnership",
					"outputs": [],
					"stateMutability": "nonpayable",
					"type": "function"
				},
				{
					"inputs": [
						{
							"internalType": "address",
							"name": "_propietario",
							"type": "address"
						}
					],
					"name": "subirDeNivel",
					"outputs": [
						{
							"internalType": "string",
							"name": "",
							"type": "string"
						}
					],
					"stateMutability": "payable",
					"type": "function"
				},
				{
					"inputs": [
						{
							"internalType": "address",
							"name": "_from",
							"type": "address"
						},
						{
							"internalType": "address",
							"name": "_to",
							"type": "address"
						},
						{
							"internalType": "uint256",
							"name": "_tokenId",
							"type": "uint256"
						}
					],
					"name": "transferFrom",
					"outputs": [],
					"stateMutability": "payable",
					"type": "function"
				},
				{
					"inputs": [
						{
							"internalType": "address",
							"name": "newOwner",
							"type": "address"
						}
					],
					"name": "transferOwnership",
					"outputs": [],
					"stateMutability": "nonpayable",
					"type": "function"
				},
				{
					"inputs": [
						{
							"internalType": "address",
							"name": "_propietario",
							"type": "address"
						}
					],
					"name": "verCochePropietario",
					"outputs": [],
					"stateMutability": "nonpayable",
					"type": "function"
				}
			],
			"devdoc": {
				"kind": "dev",
				"methods": {
					"owner()": {
						"details": "Returns the address of the current owner."
					},
					"renounceOwnership()": {
						"details": "Leaves the contract without owner. It will not be possible to call `onlyOwner` functions anymore. Can only be called by the current owner. NOTE: Renouncing ownership will leave the contract without an owner, thereby removing any functionality that is only available to the owner."
					},
					"transferOwnership(address)": {
						"details": "Transfers ownership of the contract to a new account (`newOwner`). Can only be called by the current owner."
					}
				},
				"version": 1
			},
			"evm": {
				"assembly": "    /* \"contracts/CarreraCoches/cocheToken.sol\":80:3149  contract CocheToken is CarreraCoches, ERC721 {\r... */\n  mstore(0x40, 0x80)\n    /* \"contracts/CarreraCoches/principal.sol\":518:519  0 */\n  0x00\n    /* \"contracts/CarreraCoches/principal.sol\":501:519  uint randNonce = 0 */\n  0x01\n  sstore\n    /* \"contracts/CarreraCoches/principal.sol\":642:643  0 */\n  0x00\n    /* \"contracts/CarreraCoches/principal.sol\":626:643  uint contador = 0 */\n  0x02\n  sstore\n    /* \"contracts/CarreraCoches/principal.sol\":666:676  60 seconds */\n  0x3c\n    /* \"contracts/CarreraCoches/principal.sol\":650:676  uint cooldown = 60 seconds */\n  0x03\n  sstore\n    /* \"contracts/CarreraCoches/principal.sol\":701:708  1 ether */\n  0x0de0b6b3a7640000\n    /* \"contracts/CarreraCoches/principal.sol\":683:708  uint subirNivel = 1 ether */\n  0x04\n  sstore\n    /* \"contracts/CarreraCoches/principal.sol\":736:743  2 ether */\n  0x1bc16d674ec80000\n    /* \"contracts/CarreraCoches/principal.sol\":715:743  uint cambiarCocheV = 2 ether */\n  0x05\n  sstore\n    /* \"contracts/CarreraCoches/cocheToken.sol\":80:3149  contract CocheToken is CarreraCoches, ERC721 {\r... */\n  callvalue\n  dup1\n  iszero\n  tag_1\n  jumpi\n  0x00\n  dup1\n  revert\ntag_1:\n  pop\n    /* \"contracts/CarreraCoches/ownable.sol\":947:979  _transferOwnership(_msgSender()) */\n  tag_4\n    /* \"contracts/CarreraCoches/ownable.sol\":966:978  _msgSender() */\n  tag_5\n    /* \"contracts/CarreraCoches/ownable.sol\":966:976  _msgSender */\n  shl(0x20, tag_6)\n    /* \"contracts/CarreraCoches/ownable.sol\":966:978  _msgSender() */\n  0x20\n  shr\n  jump\t// in\ntag_5:\n    /* \"contracts/CarreraCoches/ownable.sol\":947:965  _transferOwnership */\n  shl(0x20, tag_7)\n    /* \"contracts/CarreraCoches/ownable.sol\":947:979  _transferOwnership(_msgSender()) */\n  0x20\n  shr\n  jump\t// in\ntag_4:\n    /* \"contracts/CarreraCoches/cocheToken.sol\":80:3149  contract CocheToken is CarreraCoches, ERC721 {\r... */\n  jump(tag_8)\n    /* \"contracts/CarreraCoches/utils/Context.sol\":656:754  function _msgSender() internal view virtual returns (address) {\r... */\ntag_6:\n    /* \"contracts/CarreraCoches/utils/Context.sol\":709:716  address */\n  0x00\n    /* \"contracts/CarreraCoches/utils/Context.sol\":736:746  msg.sender */\n  caller\n    /* \"contracts/CarreraCoches/utils/Context.sol\":729:746  return msg.sender */\n  swap1\n  pop\n    /* \"contracts/CarreraCoches/utils/Context.sol\":656:754  function _msgSender() internal view virtual returns (address) {\r... */\n  swap1\n  jump\t// out\n    /* \"contracts/CarreraCoches/ownable.sol\":2338:2529  function _transferOwnership(address newOwner) internal virtual {\r... */\ntag_7:\n    /* \"contracts/CarreraCoches/ownable.sol\":2412:2428  address oldOwner */\n  0x00\n    /* \"contracts/CarreraCoches/ownable.sol\":2431:2437  _owner */\n  dup1\n  0x00\n  swap1\n  sload\n  swap1\n  0x0100\n  exp\n  swap1\n  div\n  0xffffffffffffffffffffffffffffffffffffffff\n  and\n    /* \"contracts/CarreraCoches/ownable.sol\":2412:2437  address oldOwner = _owner */\n  swap1\n  pop\n    /* \"contracts/CarreraCoches/ownable.sol\":2457:2465  newOwner */\n  dup2\n    /* \"contracts/CarreraCoches/ownable.sol\":2448:2454  _owner */\n  0x00\n  dup1\n    /* \"contracts/CarreraCoches/ownable.sol\":2448:2465  _owner = newOwner */\n  0x0100\n  exp\n  dup2\n  sload\n  dup2\n  0xffffffffffffffffffffffffffffffffffffffff\n  mul\n  not\n  and\n  swap1\n  dup4\n  0xffffffffffffffffffffffffffffffffffffffff\n  and\n  mul\n  or\n  swap1\n  sstore\n  pop\n    /* \"contracts/CarreraCoches/ownable.sol\":2512:2520  newOwner */\n  dup2\n    /* \"contracts/CarreraCoches/ownable.sol\":2481:2521  OwnershipTransferred(oldOwner, newOwner) */\n  0xffffffffffffffffffffffffffffffffffffffff\n  and\n    /* \"contracts/CarreraCoches/ownable.sol\":2502:2510  oldOwner */\n  dup2\n    /* \"contracts/CarreraCoches/ownable.sol\":2481:2521  OwnershipTransferred(oldOwner, newOwner) */\n  0xffffffffffffffffffffffffffffffffffffffff\n  and\n  0x8be0079c531659141344cd1fd0a4f28419497f9722a3daafe3b4186f6b6457e0\n  mload(0x40)\n  mload(0x40)\n  dup1\n  swap2\n  sub\n  swap1\n  log3\n    /* \"contracts/CarreraCoches/ownable.sol\":2401:2529  {\r... */\n  pop\n    /* \"contracts/CarreraCoches/ownable.sol\":2338:2529  function _transferOwnership(address newOwner) internal virtual {\r... */\n  pop\n  jump\t// out\n    /* \"contracts/CarreraCoches/cocheToken.sol\":80:3149  contract CocheToken is CarreraCoches, ERC721 {\r... */\ntag_8:\n  dataSize(sub_0)\n  dup1\n  dataOffset(sub_0)\n  0x00\n  codecopy\n  0x00\n  return\nstop\n\nsub_0: assembly {\n        /* \"contracts/CarreraCoches/cocheToken.sol\":80:3149  contract CocheToken is CarreraCoches, ERC721 {\r... */\n      mstore(0x40, 0x80)\n      jumpi(tag_1, lt(calldatasize, 0x04))\n      shr(0xe0, calldataload(0x00))\n      dup1\n      0x70a08231\n      gt\n      tag_18\n      jumpi\n      dup1\n      0xb2bdfa7b\n      gt\n      tag_19\n      jumpi\n      dup1\n      0xb2bdfa7b\n      eq\n      tag_14\n      jumpi\n      dup1\n      0xd735573d\n      eq\n      tag_15\n      jumpi\n      dup1\n      0xe172fca8\n      eq\n      tag_16\n      jumpi\n      dup1\n      0xf2fde38b\n      eq\n      tag_17\n      jumpi\n      jump(tag_1)\n    tag_19:\n      dup1\n      0x70a08231\n      eq\n      tag_10\n      jumpi\n      dup1\n      0x715018a6\n      eq\n      tag_11\n      jumpi\n      dup1\n      0x858b0554\n      eq\n      tag_12\n      jumpi\n      dup1\n      0x8da5cb5b\n      eq\n      tag_13\n      jumpi\n      jump(tag_1)\n    tag_18:\n      dup1\n      0x2458c544\n      gt\n      tag_20\n      jumpi\n      dup1\n      0x2458c544\n      eq\n      tag_6\n      jumpi\n      dup1\n      0x6352211e\n      eq\n      tag_7\n      jumpi\n      dup1\n      0x6a7d1816\n      eq\n      tag_8\n      jumpi\n      dup1\n      0x6b6f0494\n      eq\n      tag_9\n      jumpi\n      jump(tag_1)\n    tag_20:\n      dup1\n      0x049a5f65\n      eq\n      tag_2\n      jumpi\n      dup1\n      0x095ea7b3\n      eq\n      tag_3\n      jumpi\n      dup1\n      0x1c6743e4\n      eq\n      tag_4\n      jumpi\n      dup1\n      0x23b872dd\n      eq\n      tag_5\n      jumpi\n    tag_1:\n      0x00\n      dup1\n      revert\n        /* \"contracts/CarreraCoches/principal.sol\":3372:3834  function comprarCoche(address _address, string memory _newModelo, string memory _newMarca) external payable returns(string memory) {\r... */\n    tag_2:\n      tag_21\n      0x04\n      dup1\n      calldatasize\n      sub\n      dup2\n      add\n      swap1\n      tag_22\n      swap2\n      swap1\n      tag_23\n      jump\t// in\n    tag_22:\n      tag_24\n      jump\t// in\n    tag_21:\n      mload(0x40)\n      tag_25\n      swap2\n      swap1\n      tag_26\n      jump\t// in\n    tag_25:\n      mload(0x40)\n      dup1\n      swap2\n      sub\n      swap1\n      return\n        /* \"contracts/CarreraCoches/cocheToken.sol\":937:1149  function approve(address _approved, uint256 _tokenId) external override payable onlyOwnerOf(_tokenId) {\r... */\n    tag_3:\n      tag_27\n      0x04\n      dup1\n      calldatasize\n      sub\n      dup2\n      add\n      swap1\n      tag_28\n      swap2\n      swap1\n      tag_29\n      jump\t// in\n    tag_28:\n      tag_30\n      jump\t// in\n    tag_27:\n      stop\n        /* \"contracts/CarreraCoches/principal.sol\":1077:1129  mapping (address => uint) public numeroCochesPersona */\n    tag_4:\n      callvalue\n      dup1\n      iszero\n      tag_31\n      jumpi\n      0x00\n      dup1\n      revert\n    tag_31:\n      pop\n      tag_32\n      0x04\n      dup1\n      calldatasize\n      sub\n      dup2\n      add\n      swap1\n      tag_33\n      swap2\n      swap1\n      tag_34\n      jump\t// in\n    tag_33:\n      tag_35\n      jump\t// in\n    tag_32:\n      mload(0x40)\n      tag_36\n      swap2\n      swap1\n      tag_37\n      jump\t// in\n    tag_36:\n      mload(0x40)\n      dup1\n      swap2\n      sub\n      swap1\n      return\n        /* \"contracts/CarreraCoches/cocheToken.sol\":684:931  function transferFrom(address _from, address _to, uint256 _tokenId) external override payable {\r... */\n    tag_5:\n      tag_38\n      0x04\n      dup1\n      calldatasize\n      sub\n      dup2\n      add\n      swap1\n      tag_39\n      swap2\n      swap1\n      tag_40\n      jump\t// in\n    tag_39:\n      tag_41\n      jump\t// in\n    tag_38:\n      stop\n        /* \"contracts/CarreraCoches/principal.sol\":1701:2141  function anadirCoche(string memory _modelo, string memory _marca, string memory _nombrePiloto) public restriccion returns (uint) {\r... */\n    tag_6:\n      callvalue\n      dup1\n      iszero\n      tag_42\n      jumpi\n      0x00\n      dup1\n      revert\n    tag_42:\n      pop\n      tag_43\n      0x04\n      dup1\n      calldatasize\n      sub\n      dup2\n      add\n      swap1\n      tag_44\n      swap2\n      swap1\n      tag_45\n      jump\t// in\n    tag_44:\n      tag_46\n      jump\t// in\n    tag_43:\n      mload(0x40)\n      tag_47\n      swap2\n      swap1\n      tag_37\n      jump\t// in\n    tag_47:\n      mload(0x40)\n      dup1\n      swap2\n      sub\n      swap1\n      return\n        /* \"contracts/CarreraCoches/cocheToken.sol\":318:442  function ownerOf(uint256 _tokenId) external override view returns (address) {\r... */\n    tag_7:\n      callvalue\n      dup1\n      iszero\n      tag_48\n      jumpi\n      0x00\n      dup1\n      revert\n    tag_48:\n      pop\n      tag_49\n      0x04\n      dup1\n      calldatasize\n      sub\n      dup2\n      add\n      swap1\n      tag_50\n      swap2\n      swap1\n      tag_51\n      jump\t// in\n    tag_50:\n      tag_52\n      jump\t// in\n    tag_49:\n      mload(0x40)\n      tag_53\n      swap2\n      swap1\n      tag_54\n      jump\t// in\n    tag_53:\n      mload(0x40)\n      dup1\n      swap2\n      sub\n      swap1\n      return\n        /* \"contracts/CarreraCoches/principal.sol\":2510:2869  function subirDeNivel(address _propietario) external payable returns(string memory) {\r... */\n    tag_8:\n      tag_55\n      0x04\n      dup1\n      calldatasize\n      sub\n      dup2\n      add\n      swap1\n      tag_56\n      swap2\n      swap1\n      tag_34\n      jump\t// in\n    tag_56:\n      tag_57\n      jump\t// in\n    tag_55:\n      mload(0x40)\n      tag_58\n      swap2\n      swap1\n      tag_26\n      jump\t// in\n    tag_58:\n      mload(0x40)\n      dup1\n      swap2\n      sub\n      swap1\n      return\n        /* \"contracts/CarreraCoches/principal.sol\":3892:7238  function Apostar(uint dineroApostar) public payable returns(string memory) {\r... */\n    tag_9:\n      tag_59\n      0x04\n      dup1\n      calldatasize\n      sub\n      dup2\n      add\n      swap1\n      tag_60\n      swap2\n      swap1\n      tag_51\n      jump\t// in\n    tag_60:\n      tag_61\n      jump\t// in\n    tag_59:\n      mload(0x40)\n      tag_62\n      swap2\n      swap1\n      tag_26\n      jump\t// in\n    tag_62:\n      mload(0x40)\n      dup1\n      swap2\n      sub\n      swap1\n      return\n        /* \"contracts/CarreraCoches/cocheToken.sol\":189:312  function balanceOf(address _owner) external override view returns (uint256) {\r... */\n    tag_10:\n      callvalue\n      dup1\n      iszero\n      tag_63\n      jumpi\n      0x00\n      dup1\n      revert\n    tag_63:\n      pop\n      tag_64\n      0x04\n      dup1\n      calldatasize\n      sub\n      dup2\n      add\n      swap1\n      tag_65\n      swap2\n      swap1\n      tag_34\n      jump\t// in\n    tag_65:\n      tag_66\n      jump\t// in\n    tag_64:\n      mload(0x40)\n      tag_67\n      swap2\n      swap1\n      tag_37\n      jump\t// in\n    tag_67:\n      mload(0x40)\n      dup1\n      swap2\n      sub\n      swap1\n      return\n        /* \"contracts/CarreraCoches/ownable.sol\":1719:1822  function renounceOwnership() public virtual onlyOwner {\r... */\n    tag_11:\n      callvalue\n      dup1\n      iszero\n      tag_68\n      jumpi\n      0x00\n      dup1\n      revert\n    tag_68:\n      pop\n      tag_69\n      tag_70\n      jump\t// in\n    tag_69:\n      stop\n        /* \"contracts/CarreraCoches/principal.sol\":1019:1070  mapping (uint => address) public cocheDePropietario */\n    tag_12:\n      callvalue\n      dup1\n      iszero\n      tag_71\n      jumpi\n      0x00\n      dup1\n      revert\n    tag_71:\n      pop\n      tag_72\n      0x04\n      dup1\n      calldatasize\n      sub\n      dup2\n      add\n      swap1\n      tag_73\n      swap2\n      swap1\n      tag_51\n      jump\t// in\n    tag_73:\n      tag_74\n      jump\t// in\n    tag_72:\n      mload(0x40)\n      tag_75\n      swap2\n      swap1\n      tag_54\n      jump\t// in\n    tag_75:\n      mload(0x40)\n      dup1\n      swap2\n      sub\n      swap1\n      return\n        /* \"contracts/CarreraCoches/ownable.sol\":1068:1155  function owner() public view virtual returns (address) {\r... */\n    tag_13:\n      callvalue\n      dup1\n      iszero\n      tag_76\n      jumpi\n      0x00\n      dup1\n      revert\n    tag_76:\n      pop\n      tag_77\n      tag_78\n      jump\t// in\n    tag_77:\n      mload(0x40)\n      tag_79\n      swap2\n      swap1\n      tag_54\n      jump\t// in\n    tag_79:\n      mload(0x40)\n      dup1\n      swap2\n      sub\n      swap1\n      return\n        /* \"contracts/CarreraCoches/ownable.sol\":701:722  address public _owner */\n    tag_14:\n      callvalue\n      dup1\n      iszero\n      tag_80\n      jumpi\n      0x00\n      dup1\n      revert\n    tag_80:\n      pop\n      tag_81\n      tag_82\n      jump\t// in\n    tag_81:\n      mload(0x40)\n      tag_83\n      swap2\n      swap1\n      tag_54\n      jump\t// in\n    tag_83:\n      mload(0x40)\n      dup1\n      swap2\n      sub\n      swap1\n      return\n        /* \"contracts/CarreraCoches/principal.sol\":752:778  Coche[] public listaCoches */\n    tag_15:\n      callvalue\n      dup1\n      iszero\n      tag_84\n      jumpi\n      0x00\n      dup1\n      revert\n    tag_84:\n      pop\n      tag_85\n      0x04\n      dup1\n      calldatasize\n      sub\n      dup2\n      add\n      swap1\n      tag_86\n      swap2\n      swap1\n      tag_51\n      jump\t// in\n    tag_86:\n      tag_87\n      jump\t// in\n    tag_85:\n      mload(0x40)\n      tag_88\n      swap9\n      swap8\n      swap7\n      swap6\n      swap5\n      swap4\n      swap3\n      swap2\n      swap1\n      tag_89\n      jump\t// in\n    tag_88:\n      mload(0x40)\n      dup1\n      swap2\n      sub\n      swap1\n      return\n        /* \"contracts/CarreraCoches/principal.sol\":2913:3289  function verCochePropietario(address _propietario) external {\r... */\n    tag_16:\n      callvalue\n      dup1\n      iszero\n      tag_90\n      jumpi\n      0x00\n      dup1\n      revert\n    tag_90:\n      pop\n      tag_91\n      0x04\n      dup1\n      calldatasize\n      sub\n      dup2\n      add\n      swap1\n      tag_92\n      swap2\n      swap1\n      tag_34\n      jump\t// in\n    tag_92:\n      tag_93\n      jump\t// in\n    tag_91:\n      stop\n        /* \"contracts/CarreraCoches/ownable.sol\":1977:2178  function transferOwnership(address newOwner) public virtual onlyOwner {\r... */\n    tag_17:\n      callvalue\n      dup1\n      iszero\n      tag_94\n      jumpi\n      0x00\n      dup1\n      revert\n    tag_94:\n      pop\n      tag_95\n      0x04\n      dup1\n      calldatasize\n      sub\n      dup2\n      add\n      swap1\n      tag_96\n      swap2\n      swap1\n      tag_34\n      jump\t// in\n    tag_96:\n      tag_97\n      jump\t// in\n    tag_95:\n      stop\n        /* \"contracts/CarreraCoches/principal.sol\":3372:3834  function comprarCoche(address _address, string memory _newModelo, string memory _newMarca) external payable returns(string memory) {\r... */\n    tag_24:\n        /* \"contracts/CarreraCoches/principal.sol\":3488:3501  string memory */\n      0x60\n        /* \"contracts/CarreraCoches/principal.sol\":3534:3542  _address */\n      dup4\n        /* \"contracts/CarreraCoches/principal.sol\":3522:3542  msg.sender==_address */\n      0xffffffffffffffffffffffffffffffffffffffff\n      and\n        /* \"contracts/CarreraCoches/principal.sol\":3522:3532  msg.sender */\n      caller\n        /* \"contracts/CarreraCoches/principal.sol\":3522:3542  msg.sender==_address */\n      0xffffffffffffffffffffffffffffffffffffffff\n      and\n      eq\n        /* \"contracts/CarreraCoches/principal.sol\":3514:3543  require(msg.sender==_address) */\n      tag_99\n      jumpi\n      0x00\n      dup1\n      revert\n    tag_99:\n        /* \"contracts/CarreraCoches/principal.sol\":3573:3586  cambiarCocheV */\n      sload(0x05)\n        /* \"contracts/CarreraCoches/principal.sol\":3562:3571  msg.value */\n      callvalue\n        /* \"contracts/CarreraCoches/principal.sol\":3562:3586  msg.value==cambiarCocheV */\n      eq\n        /* \"contracts/CarreraCoches/principal.sol\":3554:3587  require(msg.value==cambiarCocheV) */\n      tag_100\n      jumpi\n      0x00\n      dup1\n      revert\n    tag_100:\n        /* \"contracts/CarreraCoches/principal.sol\":3602:3608  uint i */\n      0x00\n        /* \"contracts/CarreraCoches/principal.sol\":3598:3827  for(uint i = 0; i < listaCoches.length; i++){\r... */\n    tag_101:\n        /* \"contracts/CarreraCoches/principal.sol\":3618:3629  listaCoches */\n      0x06\n        /* \"contracts/CarreraCoches/principal.sol\":3618:3636  listaCoches.length */\n      dup1\n      sload\n      swap1\n      pop\n        /* \"contracts/CarreraCoches/principal.sol\":3614:3615  i */\n      dup2\n        /* \"contracts/CarreraCoches/principal.sol\":3614:3636  i < listaCoches.length */\n      lt\n        /* \"contracts/CarreraCoches/principal.sol\":3598:3827  for(uint i = 0; i < listaCoches.length; i++){\r... */\n      iszero\n      tag_102\n      jumpi\n        /* \"contracts/CarreraCoches/principal.sol\":3685:3695  msg.sender */\n      caller\n        /* \"contracts/CarreraCoches/principal.sol\":3660:3695  listaCoches[i].idPiloto==msg.sender */\n      0xffffffffffffffffffffffffffffffffffffffff\n      and\n        /* \"contracts/CarreraCoches/principal.sol\":3660:3671  listaCoches */\n      0x06\n        /* \"contracts/CarreraCoches/principal.sol\":3672:3673  i */\n      dup3\n        /* \"contracts/CarreraCoches/principal.sol\":3660:3674  listaCoches[i] */\n      dup2\n      sload\n      dup2\n      lt\n      tag_104\n      jumpi\n      tag_105\n      tag_106\n      jump\t// in\n    tag_105:\n    tag_104:\n      swap1\n      0x00\n      mstore\n      keccak256(0x00, 0x20)\n      swap1\n      0x08\n      mul\n      add\n        /* \"contracts/CarreraCoches/principal.sol\":3660:3683  listaCoches[i].idPiloto */\n      0x00\n      add\n      0x00\n      swap1\n      sload\n      swap1\n      0x0100\n      exp\n      swap1\n      div\n      0xffffffffffffffffffffffffffffffffffffffff\n      and\n        /* \"contracts/CarreraCoches/principal.sol\":3660:3695  listaCoches[i].idPiloto==msg.sender */\n      0xffffffffffffffffffffffffffffffffffffffff\n      and\n      eq\n        /* \"contracts/CarreraCoches/principal.sol\":3657:3816  if(listaCoches[i].idPiloto==msg.sender){\r... */\n      iszero\n      tag_108\n      jumpi\n        /* \"contracts/CarreraCoches/principal.sol\":3739:3749  _newModelo */\n      dup4\n        /* \"contracts/CarreraCoches/principal.sol\":3715:3726  listaCoches */\n      0x06\n        /* \"contracts/CarreraCoches/principal.sol\":3727:3728  i */\n      dup3\n        /* \"contracts/CarreraCoches/principal.sol\":3715:3729  listaCoches[i] */\n      dup2\n      sload\n      dup2\n      lt\n      tag_109\n      jumpi\n      tag_110\n      tag_106\n      jump\t// in\n    tag_110:\n    tag_109:\n      swap1\n      0x00\n      mstore\n      keccak256(0x00, 0x20)\n      swap1\n      0x08\n      mul\n      add\n        /* \"contracts/CarreraCoches/principal.sol\":3715:3736  listaCoches[i].modelo */\n      0x01\n      add\n        /* \"contracts/CarreraCoches/principal.sol\":3715:3749  listaCoches[i].modelo = _newModelo */\n      swap1\n      dup1\n      mload\n      swap1\n      0x20\n      add\n      swap1\n      tag_112\n      swap3\n      swap2\n      swap1\n      tag_113\n      jump\t// in\n    tag_112:\n      pop\n        /* \"contracts/CarreraCoches/principal.sol\":3791:3800  _newMarca */\n      dup3\n        /* \"contracts/CarreraCoches/principal.sol\":3768:3779  listaCoches */\n      0x06\n        /* \"contracts/CarreraCoches/principal.sol\":3780:3781  i */\n      dup3\n        /* \"contracts/CarreraCoches/principal.sol\":3768:3782  listaCoches[i] */\n      dup2\n      sload\n      dup2\n      lt\n      tag_114\n      jumpi\n      tag_115\n      tag_106\n      jump\t// in\n    tag_115:\n    tag_114:\n      swap1\n      0x00\n      mstore\n      keccak256(0x00, 0x20)\n      swap1\n      0x08\n      mul\n      add\n        /* \"contracts/CarreraCoches/principal.sol\":3768:3788  listaCoches[i].marca */\n      0x02\n      add\n        /* \"contracts/CarreraCoches/principal.sol\":3768:3800  listaCoches[i].marca = _newMarca */\n      swap1\n      dup1\n      mload\n      swap1\n      0x20\n      add\n      swap1\n      tag_117\n      swap3\n      swap2\n      swap1\n      tag_113\n      jump\t// in\n    tag_117:\n      pop\n        /* \"contracts/CarreraCoches/principal.sol\":3657:3816  if(listaCoches[i].idPiloto==msg.sender){\r... */\n    tag_108:\n        /* \"contracts/CarreraCoches/principal.sol\":3638:3641  i++ */\n      dup1\n      dup1\n      tag_118\n      swap1\n      tag_119\n      jump\t// in\n    tag_118:\n      swap2\n      pop\n      pop\n        /* \"contracts/CarreraCoches/principal.sol\":3598:3827  for(uint i = 0; i < listaCoches.length; i++){\r... */\n      jump(tag_101)\n    tag_102:\n      pop\n        /* \"contracts/CarreraCoches/principal.sol\":3372:3834  function comprarCoche(address _address, string memory _newModelo, string memory _newMarca) external payable returns(string memory) {\r... */\n      swap4\n      swap3\n      pop\n      pop\n      pop\n      jump\t// out\n        /* \"contracts/CarreraCoches/cocheToken.sol\":937:1149  function approve(address _approved, uint256 _tokenId) external override payable onlyOwnerOf(_tokenId) {\r... */\n    tag_30:\n        /* \"contracts/CarreraCoches/cocheToken.sol\":1029:1037  _tokenId */\n      dup1\n        /* \"contracts/CarreraCoches/principal.sol\":1401:1419  cocheDePropietario */\n      0x07\n        /* \"contracts/CarreraCoches/principal.sol\":1401:1427  cocheDePropietario[_coche] */\n      0x00\n        /* \"contracts/CarreraCoches/principal.sol\":1420:1426  _coche */\n      dup3\n        /* \"contracts/CarreraCoches/principal.sol\":1401:1427  cocheDePropietario[_coche] */\n      dup2\n      mstore\n      0x20\n      add\n      swap1\n      dup2\n      mstore\n      0x20\n      add\n      0x00\n      keccak256\n      0x00\n      swap1\n      sload\n      swap1\n      0x0100\n      exp\n      swap1\n      div\n      0xffffffffffffffffffffffffffffffffffffffff\n      and\n        /* \"contracts/CarreraCoches/principal.sol\":1387:1427  msg.sender == cocheDePropietario[_coche] */\n      0xffffffffffffffffffffffffffffffffffffffff\n      and\n        /* \"contracts/CarreraCoches/principal.sol\":1387:1397  msg.sender */\n      caller\n        /* \"contracts/CarreraCoches/principal.sol\":1387:1427  msg.sender == cocheDePropietario[_coche] */\n      0xffffffffffffffffffffffffffffffffffffffff\n      and\n      eq\n        /* \"contracts/CarreraCoches/principal.sol\":1379:1428  require(msg.sender == cocheDePropietario[_coche]) */\n      tag_121\n      jumpi\n      0x00\n      dup1\n      revert\n    tag_121:\n        /* \"contracts/CarreraCoches/cocheToken.sol\":1081:1090  _approved */\n      dup3\n        /* \"contracts/CarreraCoches/cocheToken.sol\":1046:1068  confirmarTransferencia */\n      0x09\n        /* \"contracts/CarreraCoches/cocheToken.sol\":1046:1078  confirmarTransferencia[_tokenId] */\n      0x00\n        /* \"contracts/CarreraCoches/cocheToken.sol\":1069:1077  _tokenId */\n      dup5\n        /* \"contracts/CarreraCoches/cocheToken.sol\":1046:1078  confirmarTransferencia[_tokenId] */\n      dup2\n      mstore\n      0x20\n      add\n      swap1\n      dup2\n      mstore\n      0x20\n      add\n      0x00\n      keccak256\n      0x00\n        /* \"contracts/CarreraCoches/cocheToken.sol\":1046:1090  confirmarTransferencia[_tokenId] = _approved */\n      0x0100\n      exp\n      dup2\n      sload\n      dup2\n      0xffffffffffffffffffffffffffffffffffffffff\n      mul\n      not\n      and\n      swap1\n      dup4\n      0xffffffffffffffffffffffffffffffffffffffff\n      and\n      mul\n      or\n      swap1\n      sstore\n      pop\n        /* \"contracts/CarreraCoches/cocheToken.sol\":1134:1142  _tokenId */\n      dup2\n        /* \"contracts/CarreraCoches/cocheToken.sol\":1123:1132  _approved */\n      dup4\n        /* \"contracts/CarreraCoches/cocheToken.sol\":1102:1143  Approval(msg.sender, _approved, _tokenId) */\n      0xffffffffffffffffffffffffffffffffffffffff\n      and\n        /* \"contracts/CarreraCoches/cocheToken.sol\":1111:1121  msg.sender */\n      caller\n        /* \"contracts/CarreraCoches/cocheToken.sol\":1102:1143  Approval(msg.sender, _approved, _tokenId) */\n      0xffffffffffffffffffffffffffffffffffffffff\n      and\n      0x8c5be1e5ebec7d5bd14f71427d1e84f3dd0314c0f7b2291e5b200ac8c7c3b925\n      mload(0x40)\n      mload(0x40)\n      dup1\n      swap2\n      sub\n      swap1\n      log4\n        /* \"contracts/CarreraCoches/cocheToken.sol\":937:1149  function approve(address _approved, uint256 _tokenId) external override payable onlyOwnerOf(_tokenId) {\r... */\n      pop\n      pop\n      pop\n      jump\t// out\n        /* \"contracts/CarreraCoches/principal.sol\":1077:1129  mapping (address => uint) public numeroCochesPersona */\n    tag_35:\n      mstore(0x20, 0x08)\n      dup1\n      0x00\n      mstore\n      keccak256(0x00, 0x40)\n      0x00\n      swap2\n      pop\n      swap1\n      pop\n      sload\n      dup2\n      jump\t// out\n        /* \"contracts/CarreraCoches/cocheToken.sol\":684:931  function transferFrom(address _from, address _to, uint256 _tokenId) external override payable {\r... */\n    tag_41:\n        /* \"contracts/CarreraCoches/cocheToken.sol\":826:836  msg.sender */\n      caller\n        /* \"contracts/CarreraCoches/cocheToken.sol\":794:836  cocheDePropietario[_tokenId] == msg.sender */\n      0xffffffffffffffffffffffffffffffffffffffff\n      and\n        /* \"contracts/CarreraCoches/cocheToken.sol\":794:812  cocheDePropietario */\n      0x07\n        /* \"contracts/CarreraCoches/cocheToken.sol\":794:822  cocheDePropietario[_tokenId] */\n      0x00\n        /* \"contracts/CarreraCoches/cocheToken.sol\":813:821  _tokenId */\n      dup4\n        /* \"contracts/CarreraCoches/cocheToken.sol\":794:822  cocheDePropietario[_tokenId] */\n      dup2\n      mstore\n      0x20\n      add\n      swap1\n      dup2\n      mstore\n      0x20\n      add\n      0x00\n      keccak256\n      0x00\n      swap1\n      sload\n      swap1\n      0x0100\n      exp\n      swap1\n      div\n      0xffffffffffffffffffffffffffffffffffffffff\n      and\n        /* \"contracts/CarreraCoches/cocheToken.sol\":794:836  cocheDePropietario[_tokenId] == msg.sender */\n      0xffffffffffffffffffffffffffffffffffffffff\n      and\n      eq\n        /* \"contracts/CarreraCoches/cocheToken.sol\":794:886  cocheDePropietario[_tokenId] == msg.sender || confirmarTransferencia[_tokenId] == msg.sender */\n      dup1\n      tag_124\n      jumpi\n      pop\n        /* \"contracts/CarreraCoches/cocheToken.sol\":876:886  msg.sender */\n      caller\n        /* \"contracts/CarreraCoches/cocheToken.sol\":840:886  confirmarTransferencia[_tokenId] == msg.sender */\n      0xffffffffffffffffffffffffffffffffffffffff\n      and\n        /* \"contracts/CarreraCoches/cocheToken.sol\":840:862  confirmarTransferencia */\n      0x09\n        /* \"contracts/CarreraCoches/cocheToken.sol\":840:872  confirmarTransferencia[_tokenId] */\n      0x00\n        /* \"contracts/CarreraCoches/cocheToken.sol\":863:871  _tokenId */\n      dup4\n        /* \"contracts/CarreraCoches/cocheToken.sol\":840:872  confirmarTransferencia[_tokenId] */\n      dup2\n      mstore\n      0x20\n      add\n      swap1\n      dup2\n      mstore\n      0x20\n      add\n      0x00\n      keccak256\n      0x00\n      swap1\n      sload\n      swap1\n      0x0100\n      exp\n      swap1\n      div\n      0xffffffffffffffffffffffffffffffffffffffff\n      and\n        /* \"contracts/CarreraCoches/cocheToken.sol\":840:886  confirmarTransferencia[_tokenId] == msg.sender */\n      0xffffffffffffffffffffffffffffffffffffffff\n      and\n      eq\n        /* \"contracts/CarreraCoches/cocheToken.sol\":794:886  cocheDePropietario[_tokenId] == msg.sender || confirmarTransferencia[_tokenId] == msg.sender */\n    tag_124:\n        /* \"contracts/CarreraCoches/cocheToken.sol\":785:887  require (cocheDePropietario[_tokenId] == msg.sender || confirmarTransferencia[_tokenId] == msg.sender) */\n      tag_125\n      jumpi\n      0x00\n      dup1\n      revert\n    tag_125:\n        /* \"contracts/CarreraCoches/cocheToken.sol\":894:925  _transfer(_from, _to, _tokenId) */\n      tag_126\n        /* \"contracts/CarreraCoches/cocheToken.sol\":904:909  _from */\n      dup4\n        /* \"contracts/CarreraCoches/cocheToken.sol\":911:914  _to */\n      dup4\n        /* \"contracts/CarreraCoches/cocheToken.sol\":916:924  _tokenId */\n      dup4\n        /* \"contracts/CarreraCoches/cocheToken.sol\":894:903  _transfer */\n      tag_127\n        /* \"contracts/CarreraCoches/cocheToken.sol\":894:925  _transfer(_from, _to, _tokenId) */\n      jump\t// in\n    tag_126:\n        /* \"contracts/CarreraCoches/cocheToken.sol\":684:931  function transferFrom(address _from, address _to, uint256 _tokenId) external override payable {\r... */\n      pop\n      pop\n      pop\n      jump\t// out\n        /* \"contracts/CarreraCoches/principal.sol\":1701:2141  function anadirCoche(string memory _modelo, string memory _marca, string memory _nombrePiloto) public restriccion returns (uint) {\r... */\n    tag_46:\n        /* \"contracts/CarreraCoches/principal.sol\":1824:1828  uint */\n      0x00\n        /* \"contracts/CarreraCoches/principal.sol\":1261:1262  1 */\n      0x01\n        /* \"contracts/CarreraCoches/principal.sol\":1227:1246  numeroCochesPersona */\n      0x08\n        /* \"contracts/CarreraCoches/principal.sol\":1227:1258  numeroCochesPersona[msg.sender] */\n      0x00\n        /* \"contracts/CarreraCoches/principal.sol\":1247:1257  msg.sender */\n      caller\n        /* \"contracts/CarreraCoches/principal.sol\":1227:1258  numeroCochesPersona[msg.sender] */\n      0xffffffffffffffffffffffffffffffffffffffff\n      and\n      0xffffffffffffffffffffffffffffffffffffffff\n      and\n      dup2\n      mstore\n      0x20\n      add\n      swap1\n      dup2\n      mstore\n      0x20\n      add\n      0x00\n      keccak256\n      sload\n        /* \"contracts/CarreraCoches/principal.sol\":1227:1262  numeroCochesPersona[msg.sender] < 1 */\n      lt\n        /* \"contracts/CarreraCoches/principal.sol\":1219:1307  require(numeroCochesPersona[msg.sender] < 1, \"Solo se puede tener un coche por persona\") */\n      tag_129\n      jumpi\n      mload(0x40)\n      0x08c379a000000000000000000000000000000000000000000000000000000000\n      dup2\n      mstore\n      0x04\n      add\n      tag_130\n      swap1\n      tag_131\n      jump\t// in\n    tag_130:\n      mload(0x40)\n      dup1\n      swap2\n      sub\n      swap1\n      revert\n    tag_129:\n        /* \"contracts/CarreraCoches/principal.sol\":1841:1852  listaCoches */\n      0x06\n        /* \"contracts/CarreraCoches/principal.sol\":1858:1952  Coche(msg.sender, _modelo, _marca, _nombrePiloto, 0, 0, uint32(block.timestamp + cooldown), 1) */\n      mload(0x40)\n      dup1\n      0x0100\n      add\n      0x40\n      mstore\n      dup1\n        /* \"contracts/CarreraCoches/principal.sol\":1864:1874  msg.sender */\n      caller\n        /* \"contracts/CarreraCoches/principal.sol\":1858:1952  Coche(msg.sender, _modelo, _marca, _nombrePiloto, 0, 0, uint32(block.timestamp + cooldown), 1) */\n      0xffffffffffffffffffffffffffffffffffffffff\n      and\n      dup2\n      mstore\n      0x20\n      add\n        /* \"contracts/CarreraCoches/principal.sol\":1876:1883  _modelo */\n      dup7\n        /* \"contracts/CarreraCoches/principal.sol\":1858:1952  Coche(msg.sender, _modelo, _marca, _nombrePiloto, 0, 0, uint32(block.timestamp + cooldown), 1) */\n      dup2\n      mstore\n      0x20\n      add\n        /* \"contracts/CarreraCoches/principal.sol\":1885:1891  _marca */\n      dup6\n        /* \"contracts/CarreraCoches/principal.sol\":1858:1952  Coche(msg.sender, _modelo, _marca, _nombrePiloto, 0, 0, uint32(block.timestamp + cooldown), 1) */\n      dup2\n      mstore\n      0x20\n      add\n        /* \"contracts/CarreraCoches/principal.sol\":1893:1906  _nombrePiloto */\n      dup5\n        /* \"contracts/CarreraCoches/principal.sol\":1858:1952  Coche(msg.sender, _modelo, _marca, _nombrePiloto, 0, 0, uint32(block.timestamp + cooldown), 1) */\n      dup2\n      mstore\n      0x20\n      add\n        /* \"contracts/CarreraCoches/principal.sol\":1908:1909  0 */\n      0x00\n        /* \"contracts/CarreraCoches/principal.sol\":1858:1952  Coche(msg.sender, _modelo, _marca, _nombrePiloto, 0, 0, uint32(block.timestamp + cooldown), 1) */\n      dup2\n      mstore\n      0x20\n      add\n        /* \"contracts/CarreraCoches/principal.sol\":1911:1912  0 */\n      0x00\n        /* \"contracts/CarreraCoches/principal.sol\":1858:1952  Coche(msg.sender, _modelo, _marca, _nombrePiloto, 0, 0, uint32(block.timestamp + cooldown), 1) */\n      dup2\n      mstore\n      0x20\n      add\n        /* \"contracts/CarreraCoches/principal.sol\":1939:1947  cooldown */\n      sload(0x03)\n        /* \"contracts/CarreraCoches/principal.sol\":1921:1936  block.timestamp */\n      timestamp\n        /* \"contracts/CarreraCoches/principal.sol\":1921:1947  block.timestamp + cooldown */\n      tag_133\n      swap2\n      swap1\n      tag_134\n      jump\t// in\n    tag_133:\n        /* \"contracts/CarreraCoches/principal.sol\":1858:1952  Coche(msg.sender, _modelo, _marca, _nombrePiloto, 0, 0, uint32(block.timestamp + cooldown), 1) */\n      0xffffffff\n      and\n      dup2\n      mstore\n      0x20\n      add\n        /* \"contracts/CarreraCoches/principal.sol\":1950:1951  1 */\n      0x01\n        /* \"contracts/CarreraCoches/principal.sol\":1858:1952  Coche(msg.sender, _modelo, _marca, _nombrePiloto, 0, 0, uint32(block.timestamp + cooldown), 1) */\n      0xffffffff\n      and\n      dup2\n      mstore\n      pop\n        /* \"contracts/CarreraCoches/principal.sol\":1841:1953  listaCoches.push(Coche(msg.sender, _modelo, _marca, _nombrePiloto, 0, 0, uint32(block.timestamp + cooldown), 1)) */\n      swap1\n      dup1\n      0x01\n      dup2\n      sload\n      add\n      dup1\n      dup3\n      sstore\n      dup1\n      swap2\n      pop\n      pop\n      0x01\n      swap1\n      sub\n      swap1\n      0x00\n      mstore\n      keccak256(0x00, 0x20)\n      swap1\n      0x08\n      mul\n      add\n      0x00\n      swap1\n      swap2\n      swap1\n      swap2\n      swap1\n      swap2\n      pop\n      0x00\n      dup3\n      add\n      mload\n      dup2\n      0x00\n      add\n      exp(0x0100, 0x00)\n      dup2\n      sload\n      dup2\n      0xffffffffffffffffffffffffffffffffffffffff\n      mul\n      not\n      and\n      swap1\n      dup4\n      0xffffffffffffffffffffffffffffffffffffffff\n      and\n      mul\n      or\n      swap1\n      sstore\n      pop\n      0x20\n      dup3\n      add\n      mload\n      dup2\n      0x01\n      add\n      swap1\n      dup1\n      mload\n      swap1\n      0x20\n      add\n      swap1\n      tag_136\n      swap3\n      swap2\n      swap1\n      tag_113\n      jump\t// in\n    tag_136:\n      pop\n      0x40\n      dup3\n      add\n      mload\n      dup2\n      0x02\n      add\n      swap1\n      dup1\n      mload\n      swap1\n      0x20\n      add\n      swap1\n      tag_137\n      swap3\n      swap2\n      swap1\n      tag_113\n      jump\t// in\n    tag_137:\n      pop\n      0x60\n      dup3\n      add\n      mload\n      dup2\n      0x03\n      add\n      swap1\n      dup1\n      mload\n      swap1\n      0x20\n      add\n      swap1\n      tag_138\n      swap3\n      swap2\n      swap1\n      tag_113\n      jump\t// in\n    tag_138:\n      pop\n      0x80\n      dup3\n      add\n      mload\n      dup2\n      0x04\n      add\n      sstore\n      0xa0\n      dup3\n      add\n      mload\n      dup2\n      0x05\n      add\n      sstore\n      0xc0\n      dup3\n      add\n      mload\n      dup2\n      0x06\n      add\n      sstore\n      0xe0\n      dup3\n      add\n      mload\n      dup2\n      0x07\n      add\n      exp(0x0100, 0x00)\n      dup2\n      sload\n      dup2\n      0xffffffff\n      mul\n      not\n      and\n      swap1\n      dup4\n      0xffffffff\n      and\n      mul\n      or\n      swap1\n      sstore\n      pop\n      pop\n      pop\n        /* \"contracts/CarreraCoches/principal.sol\":1964:1971  uint id */\n      0x00\n        /* \"contracts/CarreraCoches/principal.sol\":1974:1985  listaCoches */\n      0x06\n        /* \"contracts/CarreraCoches/principal.sol\":1974:1992  listaCoches.length */\n      dup1\n      sload\n      swap1\n      pop\n        /* \"contracts/CarreraCoches/principal.sol\":1964:1992  uint id = listaCoches.length */\n      swap1\n      pop\n        /* \"contracts/CarreraCoches/principal.sol\":2028:2038  msg.sender */\n      caller\n        /* \"contracts/CarreraCoches/principal.sol\":2003:2021  cocheDePropietario */\n      0x07\n        /* \"contracts/CarreraCoches/principal.sol\":2003:2025  cocheDePropietario[id] */\n      0x00\n        /* \"contracts/CarreraCoches/principal.sol\":2022:2024  id */\n      dup4\n        /* \"contracts/CarreraCoches/principal.sol\":2003:2025  cocheDePropietario[id] */\n      dup2\n      mstore\n      0x20\n      add\n      swap1\n      dup2\n      mstore\n      0x20\n      add\n      0x00\n      keccak256\n      0x00\n        /* \"contracts/CarreraCoches/principal.sol\":2003:2038  cocheDePropietario[id] = msg.sender */\n      0x0100\n      exp\n      dup2\n      sload\n      dup2\n      0xffffffffffffffffffffffffffffffffffffffff\n      mul\n      not\n      and\n      swap1\n      dup4\n      0xffffffffffffffffffffffffffffffffffffffff\n      and\n      mul\n      or\n      swap1\n      sstore\n      pop\n        /* \"contracts/CarreraCoches/principal.sol\":2049:2068  numeroCochesPersona */\n      0x08\n        /* \"contracts/CarreraCoches/principal.sol\":2049:2080  numeroCochesPersona[msg.sender] */\n      0x00\n        /* \"contracts/CarreraCoches/principal.sol\":2069:2079  msg.sender */\n      caller\n        /* \"contracts/CarreraCoches/principal.sol\":2049:2080  numeroCochesPersona[msg.sender] */\n      0xffffffffffffffffffffffffffffffffffffffff\n      and\n      0xffffffffffffffffffffffffffffffffffffffff\n      and\n      dup2\n      mstore\n      0x20\n      add\n      swap1\n      dup2\n      mstore\n      0x20\n      add\n      0x00\n      keccak256\n      0x00\n        /* \"contracts/CarreraCoches/principal.sol\":2049:2082  numeroCochesPersona[msg.sender]++ */\n      dup2\n      sload\n      dup1\n      swap3\n      swap2\n      swap1\n      tag_139\n      swap1\n      tag_119\n      jump\t// in\n    tag_139:\n      swap2\n      swap1\n      pop\n      sstore\n      pop\n        /* \"contracts/CarreraCoches/principal.sol\":2093:2101  contador */\n      0x02\n      0x00\n        /* \"contracts/CarreraCoches/principal.sol\":2093:2103  contador++ */\n      dup2\n      sload\n      dup1\n      swap3\n      swap2\n      swap1\n      tag_140\n      swap1\n      tag_119\n      jump\t// in\n    tag_140:\n      swap2\n      swap1\n      pop\n      sstore\n      pop\n        /* \"contracts/CarreraCoches/principal.sol\":2132:2133  1 */\n      0x01\n        /* \"contracts/CarreraCoches/principal.sol\":2121:2129  contador */\n      sload(0x02)\n        /* \"contracts/CarreraCoches/principal.sol\":2121:2133  contador - 1 */\n      tag_141\n      swap2\n      swap1\n      tag_142\n      jump\t// in\n    tag_141:\n        /* \"contracts/CarreraCoches/principal.sol\":2114:2133  return contador - 1 */\n      swap2\n      pop\n      pop\n        /* \"contracts/CarreraCoches/principal.sol\":1701:2141  function anadirCoche(string memory _modelo, string memory _marca, string memory _nombrePiloto) public restriccion returns (uint) {\r... */\n      swap4\n      swap3\n      pop\n      pop\n      pop\n      jump\t// out\n        /* \"contracts/CarreraCoches/cocheToken.sol\":318:442  function ownerOf(uint256 _tokenId) external override view returns (address) {\r... */\n    tag_52:\n        /* \"contracts/CarreraCoches/cocheToken.sol\":385:392  address */\n      0x00\n        /* \"contracts/CarreraCoches/cocheToken.sol\":408:426  cocheDePropietario */\n      0x07\n        /* \"contracts/CarreraCoches/cocheToken.sol\":408:436  cocheDePropietario[_tokenId] */\n      0x00\n        /* \"contracts/CarreraCoches/cocheToken.sol\":427:435  _tokenId */\n      dup4\n        /* \"contracts/CarreraCoches/cocheToken.sol\":408:436  cocheDePropietario[_tokenId] */\n      dup2\n      mstore\n      0x20\n      add\n      swap1\n      dup2\n      mstore\n      0x20\n      add\n      0x00\n      keccak256\n      0x00\n      swap1\n      sload\n      swap1\n      0x0100\n      exp\n      swap1\n      div\n      0xffffffffffffffffffffffffffffffffffffffff\n      and\n        /* \"contracts/CarreraCoches/cocheToken.sol\":401:436  return cocheDePropietario[_tokenId] */\n      swap1\n      pop\n        /* \"contracts/CarreraCoches/cocheToken.sol\":318:442  function ownerOf(uint256 _tokenId) external override view returns (address) {\r... */\n      swap2\n      swap1\n      pop\n      jump\t// out\n        /* \"contracts/CarreraCoches/principal.sol\":2510:2869  function subirDeNivel(address _propietario) external payable returns(string memory) {\r... */\n    tag_57:\n        /* \"contracts/CarreraCoches/principal.sol\":2579:2592  string memory */\n      0x60\n        /* \"contracts/CarreraCoches/principal.sol\":2624:2634  subirNivel */\n      sload(0x04)\n        /* \"contracts/CarreraCoches/principal.sol\":2613:2622  msg.value */\n      callvalue\n        /* \"contracts/CarreraCoches/principal.sol\":2613:2634  msg.value==subirNivel */\n      eq\n        /* \"contracts/CarreraCoches/principal.sol\":2605:2635  require(msg.value==subirNivel) */\n      tag_145\n      jumpi\n      0x00\n      dup1\n      revert\n    tag_145:\n        /* \"contracts/CarreraCoches/principal.sol\":2650:2656  uint i */\n      0x00\n        /* \"contracts/CarreraCoches/principal.sol\":2646:2862  for(uint i = 0; i < listaCoches.length; i++){\r... */\n    tag_146:\n        /* \"contracts/CarreraCoches/principal.sol\":2666:2677  listaCoches */\n      0x06\n        /* \"contracts/CarreraCoches/principal.sol\":2666:2684  listaCoches.length */\n      dup1\n      sload\n      swap1\n      pop\n        /* \"contracts/CarreraCoches/principal.sol\":2662:2663  i */\n      dup2\n        /* \"contracts/CarreraCoches/principal.sol\":2662:2684  i < listaCoches.length */\n      lt\n        /* \"contracts/CarreraCoches/principal.sol\":2646:2862  for(uint i = 0; i < listaCoches.length; i++){\r... */\n      iszero\n      tag_147\n      jumpi\n        /* \"contracts/CarreraCoches/principal.sol\":2735:2747  _propietario */\n      dup3\n        /* \"contracts/CarreraCoches/principal.sol\":2708:2747  listaCoches[i].idPiloto == _propietario */\n      0xffffffffffffffffffffffffffffffffffffffff\n      and\n        /* \"contracts/CarreraCoches/principal.sol\":2708:2719  listaCoches */\n      0x06\n        /* \"contracts/CarreraCoches/principal.sol\":2720:2721  i */\n      dup3\n        /* \"contracts/CarreraCoches/principal.sol\":2708:2722  listaCoches[i] */\n      dup2\n      sload\n      dup2\n      lt\n      tag_149\n      jumpi\n      tag_150\n      tag_106\n      jump\t// in\n    tag_150:\n    tag_149:\n      swap1\n      0x00\n      mstore\n      keccak256(0x00, 0x20)\n      swap1\n      0x08\n      mul\n      add\n        /* \"contracts/CarreraCoches/principal.sol\":2708:2731  listaCoches[i].idPiloto */\n      0x00\n      add\n      0x00\n      swap1\n      sload\n      swap1\n      0x0100\n      exp\n      swap1\n      div\n      0xffffffffffffffffffffffffffffffffffffffff\n      and\n        /* \"contracts/CarreraCoches/principal.sol\":2708:2747  listaCoches[i].idPiloto == _propietario */\n      0xffffffffffffffffffffffffffffffffffffffff\n      and\n      eq\n        /* \"contracts/CarreraCoches/principal.sol\":2705:2851  if(listaCoches[i].idPiloto == _propietario){\r... */\n      iszero\n      tag_152\n      jumpi\n        /* \"contracts/CarreraCoches/principal.sol\":2767:2778  listaCoches */\n      0x06\n        /* \"contracts/CarreraCoches/principal.sol\":2779:2780  i */\n      dup2\n        /* \"contracts/CarreraCoches/principal.sol\":2767:2781  listaCoches[i] */\n      dup2\n      sload\n      dup2\n      lt\n      tag_153\n      jumpi\n      tag_154\n      tag_106\n      jump\t// in\n    tag_154:\n    tag_153:\n      swap1\n      0x00\n      mstore\n      keccak256(0x00, 0x20)\n      swap1\n      0x08\n      mul\n      add\n        /* \"contracts/CarreraCoches/principal.sol\":2767:2787  listaCoches[i].nivel */\n      0x07\n      add\n      0x00\n        /* \"contracts/CarreraCoches/principal.sol\":2767:2789  listaCoches[i].nivel++ */\n      dup2\n      dup2\n      swap1\n      sload\n      swap1\n      0x0100\n      exp\n      swap1\n      div\n      0xffffffff\n      and\n      dup1\n      swap3\n      swap2\n      swap1\n      tag_156\n      swap1\n      tag_157\n      jump\t// in\n    tag_156:\n      swap2\n      swap1\n      0x0100\n      exp\n      dup2\n      sload\n      dup2\n      0xffffffff\n      mul\n      not\n      and\n      swap1\n      dup4\n      0xffffffff\n      and\n      mul\n      or\n      swap1\n      sstore\n      pop\n      pop\n        /* \"contracts/CarreraCoches/principal.sol\":2808:2835  return \"Ha subido de nivel\" */\n      mload(0x40)\n      dup1\n      0x40\n      add\n      0x40\n      mstore\n      dup1\n      0x12\n      dup2\n      mstore\n      0x20\n      add\n      0x48612073756269646f206465206e6976656c0000000000000000000000000000\n      dup2\n      mstore\n      pop\n      swap2\n      pop\n      pop\n      jump(tag_144)\n        /* \"contracts/CarreraCoches/principal.sol\":2705:2851  if(listaCoches[i].idPiloto == _propietario){\r... */\n    tag_152:\n        /* \"contracts/CarreraCoches/principal.sol\":2686:2689  i++ */\n      dup1\n      dup1\n      tag_158\n      swap1\n      tag_119\n      jump\t// in\n    tag_158:\n      swap2\n      pop\n      pop\n        /* \"contracts/CarreraCoches/principal.sol\":2646:2862  for(uint i = 0; i < listaCoches.length; i++){\r... */\n      jump(tag_146)\n    tag_147:\n      pop\n        /* \"contracts/CarreraCoches/principal.sol\":2510:2869  function subirDeNivel(address _propietario) external payable returns(string memory) {\r... */\n    tag_144:\n      swap2\n      swap1\n      pop\n      jump\t// out\n        /* \"contracts/CarreraCoches/principal.sol\":3892:7238  function Apostar(uint dineroApostar) public payable returns(string memory) {\r... */\n    tag_61:\n        /* \"contracts/CarreraCoches/principal.sol\":3952:3965  string memory */\n      0x60\n        /* \"contracts/CarreraCoches/principal.sol\":4011:4012  1 */\n      0x01\n        /* \"contracts/CarreraCoches/principal.sol\":3989:4000  listaCoches */\n      0x06\n        /* \"contracts/CarreraCoches/principal.sol\":3989:4007  listaCoches.length */\n      dup1\n      sload\n      swap1\n      pop\n        /* \"contracts/CarreraCoches/principal.sol\":3989:4012  listaCoches.length <= 1 */\n      gt\n        /* \"contracts/CarreraCoches/principal.sol\":3986:7232  if(listaCoches.length <= 1){\r... */\n      tag_160\n      jumpi\n        /* \"contracts/CarreraCoches/principal.sol\":4032:4111  confirmacionDepositoLleno(\"No hay coches suficientes para iniciar una carrera\") */\n      0x6158fc8f21c8cc73ddf920956cc75d0e8a48b4fc85817a0ba89eb3b6d2a75441\n      mload(0x40)\n      tag_161\n      swap1\n      tag_162\n      jump\t// in\n    tag_161:\n      mload(0x40)\n      dup1\n      swap2\n      sub\n      swap1\n      log1\n        /* \"contracts/CarreraCoches/principal.sol\":3986:7232  if(listaCoches.length <= 1){\r... */\n      jump(tag_163)\n    tag_160:\n        /* \"contracts/CarreraCoches/principal.sol\":4162:4175  dineroApostar */\n      dup2\n        /* \"contracts/CarreraCoches/principal.sol\":4149:4158  msg.value */\n      callvalue\n        /* \"contracts/CarreraCoches/principal.sol\":4149:4175  msg.value == dineroApostar */\n      eq\n        /* \"contracts/CarreraCoches/principal.sol\":4141:4176  require(msg.value == dineroApostar) */\n      tag_164\n      jumpi\n      0x00\n      dup1\n      revert\n    tag_164:\n        /* \"contracts/CarreraCoches/principal.sol\":4191:4200  randNonce */\n      0x01\n      0x00\n        /* \"contracts/CarreraCoches/principal.sol\":4191:4202  randNonce++ */\n      dup2\n      sload\n      dup1\n      swap3\n      swap2\n      swap1\n      tag_165\n      swap1\n      tag_119\n      jump\t// in\n    tag_165:\n      swap2\n      swap1\n      pop\n      sstore\n      pop\n        /* \"contracts/CarreraCoches/principal.sol\":4257:4270  uint256 rival */\n      0x00\n        /* \"contracts/CarreraCoches/principal.sol\":4360:4371  listaCoches */\n      0x06\n        /* \"contracts/CarreraCoches/principal.sol\":4360:4378  listaCoches.length */\n      dup1\n      sload\n      swap1\n      pop\n        /* \"contracts/CarreraCoches/principal.sol\":4308:4323  block.timestamp */\n      timestamp\n        /* \"contracts/CarreraCoches/principal.sol\":4325:4336  listaCoches */\n      0x06\n        /* \"contracts/CarreraCoches/principal.sol\":4325:4343  listaCoches.length */\n      dup1\n      sload\n      swap1\n      pop\n        /* \"contracts/CarreraCoches/principal.sol\":4345:4354  randNonce */\n      sload(0x01)\n        /* \"contracts/CarreraCoches/principal.sol\":4291:4355  abi.encodePacked(block.timestamp, listaCoches.length, randNonce) */\n      add(0x20, mload(0x40))\n      tag_166\n      swap4\n      swap3\n      swap2\n      swap1\n      tag_167\n      jump\t// in\n    tag_166:\n      mload(0x40)\n      0x20\n      dup2\n      dup4\n      sub\n      sub\n      dup2\n      mstore\n      swap1\n      0x40\n      mstore\n        /* \"contracts/CarreraCoches/principal.sol\":4281:4356  keccak256(abi.encodePacked(block.timestamp, listaCoches.length, randNonce)) */\n      dup1\n      mload\n      swap1\n      0x20\n      add\n      keccak256\n        /* \"contracts/CarreraCoches/principal.sol\":4273:4357  uint256(keccak256(abi.encodePacked(block.timestamp, listaCoches.length, randNonce))) */\n      0x00\n      shr\n        /* \"contracts/CarreraCoches/principal.sol\":4273:4378  uint256(keccak256(abi.encodePacked(block.timestamp, listaCoches.length, randNonce))) % listaCoches.length */\n      tag_168\n      swap2\n      swap1\n      tag_169\n      jump\t// in\n    tag_168:\n        /* \"contracts/CarreraCoches/principal.sol\":4257:4378  uint256 rival = uint256(keccak256(abi.encodePacked(block.timestamp, listaCoches.length, randNonce))) % listaCoches.length */\n      swap1\n      pop\n        /* \"contracts/CarreraCoches/principal.sol\":4393:4413  address addressRival */\n      0x00\n        /* \"contracts/CarreraCoches/principal.sol\":4416:4434  cocheDePropietario */\n      0x07\n        /* \"contracts/CarreraCoches/principal.sol\":4416:4441  cocheDePropietario[rival] */\n      0x00\n        /* \"contracts/CarreraCoches/principal.sol\":4435:4440  rival */\n      dup4\n        /* \"contracts/CarreraCoches/principal.sol\":4416:4441  cocheDePropietario[rival] */\n      dup2\n      mstore\n      0x20\n      add\n      swap1\n      dup2\n      mstore\n      0x20\n      add\n      0x00\n      keccak256\n      0x00\n      swap1\n      sload\n      swap1\n      0x0100\n      exp\n      swap1\n      div\n      0xffffffffffffffffffffffffffffffffffffffff\n      and\n        /* \"contracts/CarreraCoches/principal.sol\":4393:4441  address addressRival = cocheDePropietario[rival] */\n      swap1\n      pop\n        /* \"contracts/CarreraCoches/principal.sol\":4492:4501  randNonce */\n      0x01\n      0x00\n        /* \"contracts/CarreraCoches/principal.sol\":4492:4503  randNonce++ */\n      dup2\n      sload\n      dup1\n      swap3\n      swap2\n      swap1\n      tag_170\n      swap1\n      tag_119\n      jump\t// in\n    tag_170:\n      swap2\n      swap1\n      pop\n      sstore\n      pop\n        /* \"contracts/CarreraCoches/principal.sol\":4518:4529  uint numero */\n      0x00\n        /* \"contracts/CarreraCoches/principal.sol\":4532:4535  100 */\n      0x64\n        /* \"contracts/CarreraCoches/principal.sol\":4518:4535  uint numero = 100 */\n      swap1\n      pop\n        /* \"contracts/CarreraCoches/principal.sol\":4550:4565  uint256 ganador */\n      0x00\n        /* \"contracts/CarreraCoches/principal.sol\":4643:4649  numero */\n      dup2\n        /* \"contracts/CarreraCoches/principal.sol\":4603:4618  block.timestamp */\n      timestamp\n        /* \"contracts/CarreraCoches/principal.sol\":4620:4626  numero */\n      dup4\n        /* \"contracts/CarreraCoches/principal.sol\":4628:4637  randNonce */\n      sload(0x01)\n        /* \"contracts/CarreraCoches/principal.sol\":4586:4638  abi.encodePacked(block.timestamp, numero, randNonce) */\n      add(0x20, mload(0x40))\n      tag_171\n      swap4\n      swap3\n      swap2\n      swap1\n      tag_167\n      jump\t// in\n    tag_171:\n      mload(0x40)\n      0x20\n      dup2\n      dup4\n      sub\n      sub\n      dup2\n      mstore\n      swap1\n      0x40\n      mstore\n        /* \"contracts/CarreraCoches/principal.sol\":4576:4639  keccak256(abi.encodePacked(block.timestamp, numero, randNonce)) */\n      dup1\n      mload\n      swap1\n      0x20\n      add\n      keccak256\n        /* \"contracts/CarreraCoches/principal.sol\":4568:4640  uint256(keccak256(abi.encodePacked(block.timestamp, numero, randNonce))) */\n      0x00\n      shr\n        /* \"contracts/CarreraCoches/principal.sol\":4568:4649  uint256(keccak256(abi.encodePacked(block.timestamp, numero, randNonce))) % numero */\n      tag_172\n      swap2\n      swap1\n      tag_169\n      jump\t// in\n    tag_172:\n        /* \"contracts/CarreraCoches/principal.sol\":4550:4649  uint256 ganador = uint256(keccak256(abi.encodePacked(block.timestamp, numero, randNonce))) % numero */\n      swap1\n      pop\n        /* \"contracts/CarreraCoches/principal.sol\":4670:4676  uint i */\n      0x00\n        /* \"contracts/CarreraCoches/principal.sol\":4666:7221  for(uint i = 0; i < listaCoches.length; i++){\r... */\n    tag_173:\n        /* \"contracts/CarreraCoches/principal.sol\":4686:4697  listaCoches */\n      0x06\n        /* \"contracts/CarreraCoches/principal.sol\":4686:4704  listaCoches.length */\n      dup1\n      sload\n      swap1\n      pop\n        /* \"contracts/CarreraCoches/principal.sol\":4682:4683  i */\n      dup2\n        /* \"contracts/CarreraCoches/principal.sol\":4682:4704  i < listaCoches.length */\n      lt\n        /* \"contracts/CarreraCoches/principal.sol\":4666:7221  for(uint i = 0; i < listaCoches.length; i++){\r... */\n      iszero\n      tag_174\n      jumpi\n        /* \"contracts/CarreraCoches/principal.sol\":4783:4794  listaCoches */\n      0x06\n        /* \"contracts/CarreraCoches/principal.sol\":4795:4796  i */\n      dup2\n        /* \"contracts/CarreraCoches/principal.sol\":4783:4797  listaCoches[i] */\n      dup2\n      sload\n      dup2\n      lt\n      tag_176\n      jumpi\n      tag_177\n      tag_106\n      jump\t// in\n    tag_177:\n    tag_176:\n      swap1\n      0x00\n      mstore\n      keccak256(0x00, 0x20)\n      swap1\n      0x08\n      mul\n      add\n        /* \"contracts/CarreraCoches/principal.sol\":4783:4806  listaCoches[i].idPiloto */\n      0x00\n      add\n      0x00\n      swap1\n      sload\n      swap1\n      0x0100\n      exp\n      swap1\n      div\n      0xffffffffffffffffffffffffffffffffffffffff\n      and\n        /* \"contracts/CarreraCoches/principal.sol\":4769:4806  msg.sender == listaCoches[i].idPiloto */\n      0xffffffffffffffffffffffffffffffffffffffff\n      and\n        /* \"contracts/CarreraCoches/principal.sol\":4769:4779  msg.sender */\n      caller\n        /* \"contracts/CarreraCoches/principal.sol\":4769:4806  msg.sender == listaCoches[i].idPiloto */\n      0xffffffffffffffffffffffffffffffffffffffff\n      and\n      eq\n        /* \"contracts/CarreraCoches/principal.sol\":4765:7188  if (msg.sender == listaCoches[i].idPiloto) {\r... */\n      iszero\n      tag_179\n      jumpi\n        /* \"contracts/CarreraCoches/principal.sol\":4839:4869  _depositoLleno(listaCoches[i]) */\n      tag_180\n        /* \"contracts/CarreraCoches/principal.sol\":4854:4865  listaCoches */\n      0x06\n        /* \"contracts/CarreraCoches/principal.sol\":4866:4867  i */\n      dup3\n        /* \"contracts/CarreraCoches/principal.sol\":4854:4868  listaCoches[i] */\n      dup2\n      sload\n      dup2\n      lt\n      tag_181\n      jumpi\n      tag_182\n      tag_106\n      jump\t// in\n    tag_182:\n    tag_181:\n      swap1\n      0x00\n      mstore\n      keccak256(0x00, 0x20)\n      swap1\n      0x08\n      mul\n      add\n        /* \"contracts/CarreraCoches/principal.sol\":4839:4853  _depositoLleno */\n      tag_184\n        /* \"contracts/CarreraCoches/principal.sol\":4839:4869  _depositoLleno(listaCoches[i]) */\n      jump\t// in\n    tag_180:\n        /* \"contracts/CarreraCoches/principal.sol\":4831:4870  require(_depositoLleno(listaCoches[i])) */\n      tag_185\n      jumpi\n      0x00\n      dup1\n      revert\n    tag_185:\n        /* \"contracts/CarreraCoches/principal.sol\":4893:4904  listaCoches */\n      0x06\n        /* \"contracts/CarreraCoches/principal.sol\":4905:4906  i */\n      dup2\n        /* \"contracts/CarreraCoches/principal.sol\":4893:4907  listaCoches[i] */\n      dup2\n      sload\n      dup2\n      lt\n      tag_186\n      jumpi\n      tag_187\n      tag_106\n      jump\t// in\n    tag_187:\n    tag_186:\n      swap1\n      0x00\n      mstore\n      keccak256(0x00, 0x20)\n      swap1\n      0x08\n      mul\n      add\n        /* \"contracts/CarreraCoches/principal.sol\":4893:4923  listaCoches[i].carrerasTotales */\n      0x05\n      add\n      0x00\n        /* \"contracts/CarreraCoches/principal.sol\":4893:4925  listaCoches[i].carrerasTotales++ */\n      dup2\n      sload\n      dup1\n      swap3\n      swap2\n      swap1\n      tag_189\n      swap1\n      tag_119\n      jump\t// in\n    tag_189:\n      swap2\n      swap1\n      pop\n      sstore\n      pop\n        /* \"contracts/CarreraCoches/principal.sol\":4948:4959  listaCoches */\n      0x06\n        /* \"contracts/CarreraCoches/principal.sol\":4960:4965  rival */\n      dup6\n        /* \"contracts/CarreraCoches/principal.sol\":4948:4966  listaCoches[rival] */\n      dup2\n      sload\n      dup2\n      lt\n      tag_190\n      jumpi\n      tag_191\n      tag_106\n      jump\t// in\n    tag_191:\n    tag_190:\n      swap1\n      0x00\n      mstore\n      keccak256(0x00, 0x20)\n      swap1\n      0x08\n      mul\n      add\n        /* \"contracts/CarreraCoches/principal.sol\":4948:4982  listaCoches[rival].carrerasTotales */\n      0x05\n      add\n      0x00\n        /* \"contracts/CarreraCoches/principal.sol\":4948:4984  listaCoches[rival].carrerasTotales++ */\n      dup2\n      sload\n      dup1\n      swap3\n      swap2\n      swap1\n      tag_193\n      swap1\n      tag_119\n      jump\t// in\n    tag_193:\n      swap2\n      swap1\n      pop\n      sstore\n      pop\n        /* \"contracts/CarreraCoches/principal.sol\":5007:5034  _repostando(listaCoches[i]) */\n      tag_194\n        /* \"contracts/CarreraCoches/principal.sol\":5019:5030  listaCoches */\n      0x06\n        /* \"contracts/CarreraCoches/principal.sol\":5031:5032  i */\n      dup3\n        /* \"contracts/CarreraCoches/principal.sol\":5019:5033  listaCoches[i] */\n      dup2\n      sload\n      dup2\n      lt\n      tag_195\n      jumpi\n      tag_196\n      tag_106\n      jump\t// in\n    tag_196:\n    tag_195:\n      swap1\n      0x00\n      mstore\n      keccak256(0x00, 0x20)\n      swap1\n      0x08\n      mul\n      add\n        /* \"contracts/CarreraCoches/principal.sol\":5007:5018  _repostando */\n      tag_198\n        /* \"contracts/CarreraCoches/principal.sol\":5007:5034  _repostando(listaCoches[i]) */\n      jump\t// in\n    tag_194:\n        /* \"contracts/CarreraCoches/principal.sol\":5087:5098  listaCoches */\n      0x06\n        /* \"contracts/CarreraCoches/principal.sol\":5099:5100  i */\n      dup2\n        /* \"contracts/CarreraCoches/principal.sol\":5087:5101  listaCoches[i] */\n      dup2\n      sload\n      dup2\n      lt\n      tag_199\n      jumpi\n      tag_200\n      tag_106\n      jump\t// in\n    tag_200:\n    tag_199:\n      swap1\n      0x00\n      mstore\n      keccak256(0x00, 0x20)\n      swap1\n      0x08\n      mul\n      add\n        /* \"contracts/CarreraCoches/principal.sol\":5087:5107  listaCoches[i].nivel */\n      0x07\n      add\n      0x00\n      swap1\n      sload\n      swap1\n      0x0100\n      exp\n      swap1\n      div\n      0xffffffff\n      and\n        /* \"contracts/CarreraCoches/principal.sol\":5060:5107  listaCoches[rival].nivel < listaCoches[i].nivel */\n      0xffffffff\n      and\n        /* \"contracts/CarreraCoches/principal.sol\":5060:5071  listaCoches */\n      0x06\n        /* \"contracts/CarreraCoches/principal.sol\":5072:5077  rival */\n      dup7\n        /* \"contracts/CarreraCoches/principal.sol\":5060:5078  listaCoches[rival] */\n      dup2\n      sload\n      dup2\n      lt\n      tag_202\n      jumpi\n      tag_203\n      tag_106\n      jump\t// in\n    tag_203:\n    tag_202:\n      swap1\n      0x00\n      mstore\n      keccak256(0x00, 0x20)\n      swap1\n      0x08\n      mul\n      add\n        /* \"contracts/CarreraCoches/principal.sol\":5060:5084  listaCoches[rival].nivel */\n      0x07\n      add\n      0x00\n      swap1\n      sload\n      swap1\n      0x0100\n      exp\n      swap1\n      div\n      0xffffffff\n      and\n        /* \"contracts/CarreraCoches/principal.sol\":5060:5107  listaCoches[rival].nivel < listaCoches[i].nivel */\n      0xffffffff\n      and\n      lt\n        /* \"contracts/CarreraCoches/principal.sol\":5057:7165  if(listaCoches[rival].nivel < listaCoches[i].nivel){\r... */\n      iszero\n      tag_205\n      jumpi\n        /* \"contracts/CarreraCoches/principal.sol\":5147:5149  60 */\n      0x3c\n        /* \"contracts/CarreraCoches/principal.sol\":5138:5145  ganador */\n      dup3\n        /* \"contracts/CarreraCoches/principal.sol\":5138:5149  ganador<=60 */\n      gt\n        /* \"contracts/CarreraCoches/principal.sol\":5135:5708  if(ganador<=60){\r... */\n      tag_206\n      jumpi\n        /* \"contracts/CarreraCoches/principal.sol\":5181:5190  balance() */\n      tag_207\n        /* \"contracts/CarreraCoches/principal.sol\":5181:5188  balance */\n      tag_208\n        /* \"contracts/CarreraCoches/principal.sol\":5181:5190  balance() */\n      jump\t// in\n    tag_207:\n        /* \"contracts/CarreraCoches/principal.sol\":5221:5232  listaCoches */\n      0x06\n        /* \"contracts/CarreraCoches/principal.sol\":5233:5234  i */\n      dup2\n        /* \"contracts/CarreraCoches/principal.sol\":5221:5235  listaCoches[i] */\n      dup2\n      sload\n      dup2\n      lt\n      tag_209\n      jumpi\n      tag_210\n      tag_106\n      jump\t// in\n    tag_210:\n    tag_209:\n      swap1\n      0x00\n      mstore\n      keccak256(0x00, 0x20)\n      swap1\n      0x08\n      mul\n      add\n        /* \"contracts/CarreraCoches/principal.sol\":5221:5251  listaCoches[i].carrerasGanadas */\n      0x04\n      add\n      0x00\n        /* \"contracts/CarreraCoches/principal.sol\":5221:5253  listaCoches[i].carrerasGanadas++ */\n      dup2\n      sload\n      dup1\n      swap3\n      swap2\n      swap1\n      tag_212\n      swap1\n      tag_119\n      jump\t// in\n    tag_212:\n      swap2\n      swap1\n      pop\n      sstore\n      pop\n        /* \"contracts/CarreraCoches/principal.sol\":5284:5295  listaCoches */\n      0x06\n        /* \"contracts/CarreraCoches/principal.sol\":5296:5297  i */\n      dup2\n        /* \"contracts/CarreraCoches/principal.sol\":5284:5298  listaCoches[i] */\n      dup2\n      sload\n      dup2\n      lt\n      tag_213\n      jumpi\n      tag_214\n      tag_106\n      jump\t// in\n    tag_214:\n    tag_213:\n      swap1\n      0x00\n      mstore\n      keccak256(0x00, 0x20)\n      swap1\n      0x08\n      mul\n      add\n        /* \"contracts/CarreraCoches/principal.sol\":5284:5304  listaCoches[i].nivel */\n      0x07\n      add\n      0x00\n        /* \"contracts/CarreraCoches/principal.sol\":5284:5306  listaCoches[i].nivel++ */\n      dup2\n      dup2\n      swap1\n      sload\n      swap1\n      0x0100\n      exp\n      swap1\n      div\n      0xffffffff\n      and\n      dup1\n      swap3\n      swap2\n      swap1\n      tag_216\n      swap1\n      tag_157\n      jump\t// in\n    tag_216:\n      swap2\n      swap1\n      0x0100\n      exp\n      dup2\n      sload\n      dup2\n      0xffffffff\n      mul\n      not\n      and\n      swap1\n      dup4\n      0xffffffff\n      and\n      mul\n      or\n      swap1\n      sstore\n      pop\n      pop\n        /* \"contracts/CarreraCoches/principal.sol\":5337:5356  return \"Has ganado\" */\n      mload(0x40)\n      dup1\n      0x40\n      add\n      0x40\n      mstore\n      dup1\n      0x0a\n      dup2\n      mstore\n      0x20\n      add\n      0x4861732067616e61646f00000000000000000000000000000000000000000000\n      dup2\n      mstore\n      pop\n      swap6\n      pop\n      pop\n      pop\n      pop\n      pop\n      pop\n      jump(tag_159)\n        /* \"contracts/CarreraCoches/principal.sol\":5135:5708  if(ganador<=60){\r... */\n    tag_206:\n        /* \"contracts/CarreraCoches/principal.sol\":5510:5560  confirmacionDepositoLleno(\"El coche ganador es: \") */\n      0x6158fc8f21c8cc73ddf920956cc75d0e8a48b4fc85817a0ba89eb3b6d2a75441\n      mload(0x40)\n      tag_218\n      swap1\n      tag_219\n      jump\t// in\n    tag_218:\n      mload(0x40)\n      dup1\n      swap2\n      sub\n      swap1\n      log1\n        /* \"contracts/CarreraCoches/principal.sol\":5591:5595  this */\n      address\n        /* \"contracts/CarreraCoches/principal.sol\":5591:5615  this.verCochePropietario */\n      0xffffffffffffffffffffffffffffffffffffffff\n      and\n      0xe172fca8\n        /* \"contracts/CarreraCoches/principal.sol\":5616:5628  addressRival */\n      dup6\n        /* \"contracts/CarreraCoches/principal.sol\":5591:5629  this.verCochePropietario(addressRival) */\n      mload(0x40)\n      dup3\n      0xffffffff\n      and\n      0xe0\n      shl\n      dup2\n      mstore\n      0x04\n      add\n      tag_220\n      swap2\n      swap1\n      tag_54\n      jump\t// in\n    tag_220:\n      0x00\n      mload(0x40)\n      dup1\n      dup4\n      sub\n      dup2\n      0x00\n      dup8\n      dup1\n      extcodesize\n      iszero\n      dup1\n      iszero\n      tag_221\n      jumpi\n      0x00\n      dup1\n      revert\n    tag_221:\n      pop\n      gas\n      call\n      iszero\n      dup1\n      iszero\n      tag_223\n      jumpi\n      returndatasize\n      0x00\n      dup1\n      returndatacopy\n      revert(0x00, returndatasize)\n    tag_223:\n      pop\n      pop\n      pop\n      pop\n        /* \"contracts/CarreraCoches/principal.sol\":5660:5680  return \"Has perdido\" */\n      mload(0x40)\n      dup1\n      0x40\n      add\n      0x40\n      mstore\n      dup1\n      0x0b\n      dup2\n      mstore\n      0x20\n      add\n      0x486173207065726469646f000000000000000000000000000000000000000000\n      dup2\n      mstore\n      pop\n      swap6\n      pop\n      pop\n      pop\n      pop\n      pop\n      pop\n      jump(tag_159)\n        /* \"contracts/CarreraCoches/principal.sol\":5057:7165  if(listaCoches[rival].nivel < listaCoches[i].nivel){\r... */\n    tag_205:\n        /* \"contracts/CarreraCoches/principal.sol\":5771:5782  listaCoches */\n      0x06\n        /* \"contracts/CarreraCoches/principal.sol\":5783:5784  i */\n      dup2\n        /* \"contracts/CarreraCoches/principal.sol\":5771:5785  listaCoches[i] */\n      dup2\n      sload\n      dup2\n      lt\n      tag_225\n      jumpi\n      tag_226\n      tag_106\n      jump\t// in\n    tag_226:\n    tag_225:\n      swap1\n      0x00\n      mstore\n      keccak256(0x00, 0x20)\n      swap1\n      0x08\n      mul\n      add\n        /* \"contracts/CarreraCoches/principal.sol\":5771:5791  listaCoches[i].nivel */\n      0x07\n      add\n      0x00\n      swap1\n      sload\n      swap1\n      0x0100\n      exp\n      swap1\n      div\n      0xffffffff\n      and\n        /* \"contracts/CarreraCoches/principal.sol\":5743:5791  listaCoches[rival].nivel == listaCoches[i].nivel */\n      0xffffffff\n      and\n        /* \"contracts/CarreraCoches/principal.sol\":5743:5754  listaCoches */\n      0x06\n        /* \"contracts/CarreraCoches/principal.sol\":5755:5760  rival */\n      dup7\n        /* \"contracts/CarreraCoches/principal.sol\":5743:5761  listaCoches[rival] */\n      dup2\n      sload\n      dup2\n      lt\n      tag_228\n      jumpi\n      tag_229\n      tag_106\n      jump\t// in\n    tag_229:\n    tag_228:\n      swap1\n      0x00\n      mstore\n      keccak256(0x00, 0x20)\n      swap1\n      0x08\n      mul\n      add\n        /* \"contracts/CarreraCoches/principal.sol\":5743:5767  listaCoches[rival].nivel */\n      0x07\n      add\n      0x00\n      swap1\n      sload\n      swap1\n      0x0100\n      exp\n      swap1\n      div\n      0xffffffff\n      and\n        /* \"contracts/CarreraCoches/principal.sol\":5743:5791  listaCoches[rival].nivel == listaCoches[i].nivel */\n      0xffffffff\n      and\n      eq\n        /* \"contracts/CarreraCoches/principal.sol\":5740:7165  if(listaCoches[rival].nivel == listaCoches[i].nivel){\r... */\n      iszero\n      tag_231\n      jumpi\n        /* \"contracts/CarreraCoches/principal.sol\":5831:5833  50 */\n      0x32\n        /* \"contracts/CarreraCoches/principal.sol\":5822:5829  ganador */\n      dup3\n        /* \"contracts/CarreraCoches/principal.sol\":5822:5833  ganador<=50 */\n      gt\n        /* \"contracts/CarreraCoches/principal.sol\":5819:6394  if(ganador<=50){\r... */\n      tag_232\n      jumpi\n        /* \"contracts/CarreraCoches/principal.sol\":5865:5874  balance() */\n      tag_233\n        /* \"contracts/CarreraCoches/principal.sol\":5865:5872  balance */\n      tag_208\n        /* \"contracts/CarreraCoches/principal.sol\":5865:5874  balance() */\n      jump\t// in\n    tag_233:\n        /* \"contracts/CarreraCoches/principal.sol\":5905:5916  listaCoches */\n      0x06\n        /* \"contracts/CarreraCoches/principal.sol\":5917:5918  i */\n      dup2\n        /* \"contracts/CarreraCoches/principal.sol\":5905:5919  listaCoches[i] */\n      dup2\n      sload\n      dup2\n      lt\n      tag_234\n      jumpi\n      tag_235\n      tag_106\n      jump\t// in\n    tag_235:\n    tag_234:\n      swap1\n      0x00\n      mstore\n      keccak256(0x00, 0x20)\n      swap1\n      0x08\n      mul\n      add\n        /* \"contracts/CarreraCoches/principal.sol\":5905:5935  listaCoches[i].carrerasGanadas */\n      0x04\n      add\n      0x00\n        /* \"contracts/CarreraCoches/principal.sol\":5905:5937  listaCoches[i].carrerasGanadas++ */\n      dup2\n      sload\n      dup1\n      swap3\n      swap2\n      swap1\n      tag_237\n      swap1\n      tag_119\n      jump\t// in\n    tag_237:\n      swap2\n      swap1\n      pop\n      sstore\n      pop\n        /* \"contracts/CarreraCoches/principal.sol\":5968:5979  listaCoches */\n      0x06\n        /* \"contracts/CarreraCoches/principal.sol\":5980:5981  i */\n      dup2\n        /* \"contracts/CarreraCoches/principal.sol\":5968:5982  listaCoches[i] */\n      dup2\n      sload\n      dup2\n      lt\n      tag_238\n      jumpi\n      tag_239\n      tag_106\n      jump\t// in\n    tag_239:\n    tag_238:\n      swap1\n      0x00\n      mstore\n      keccak256(0x00, 0x20)\n      swap1\n      0x08\n      mul\n      add\n        /* \"contracts/CarreraCoches/principal.sol\":5968:5988  listaCoches[i].nivel */\n      0x07\n      add\n      0x00\n        /* \"contracts/CarreraCoches/principal.sol\":5968:5990  listaCoches[i].nivel++ */\n      dup2\n      dup2\n      swap1\n      sload\n      swap1\n      0x0100\n      exp\n      swap1\n      div\n      0xffffffff\n      and\n      dup1\n      swap3\n      swap2\n      swap1\n      tag_241\n      swap1\n      tag_157\n      jump\t// in\n    tag_241:\n      swap2\n      swap1\n      0x0100\n      exp\n      dup2\n      sload\n      dup2\n      0xffffffff\n      mul\n      not\n      and\n      swap1\n      dup4\n      0xffffffff\n      and\n      mul\n      or\n      swap1\n      sstore\n      pop\n      pop\n        /* \"contracts/CarreraCoches/principal.sol\":6021:6040  return \"Has ganado\" */\n      mload(0x40)\n      dup1\n      0x40\n      add\n      0x40\n      mstore\n      dup1\n      0x0a\n      dup2\n      mstore\n      0x20\n      add\n      0x4861732067616e61646f00000000000000000000000000000000000000000000\n      dup2\n      mstore\n      pop\n      swap6\n      pop\n      pop\n      pop\n      pop\n      pop\n      pop\n      jump(tag_159)\n        /* \"contracts/CarreraCoches/principal.sol\":5819:6394  if(ganador<=50){\r... */\n    tag_232:\n        /* \"contracts/CarreraCoches/principal.sol\":6196:6246  confirmacionDepositoLleno(\"El coche ganador es: \") */\n      0x6158fc8f21c8cc73ddf920956cc75d0e8a48b4fc85817a0ba89eb3b6d2a75441\n      mload(0x40)\n      tag_243\n      swap1\n      tag_219\n      jump\t// in\n    tag_243:\n      mload(0x40)\n      dup1\n      swap2\n      sub\n      swap1\n      log1\n        /* \"contracts/CarreraCoches/principal.sol\":6277:6281  this */\n      address\n        /* \"contracts/CarreraCoches/principal.sol\":6277:6301  this.verCochePropietario */\n      0xffffffffffffffffffffffffffffffffffffffff\n      and\n      0xe172fca8\n        /* \"contracts/CarreraCoches/principal.sol\":6302:6314  addressRival */\n      dup6\n        /* \"contracts/CarreraCoches/principal.sol\":6277:6315  this.verCochePropietario(addressRival) */\n      mload(0x40)\n      dup3\n      0xffffffff\n      and\n      0xe0\n      shl\n      dup2\n      mstore\n      0x04\n      add\n      tag_244\n      swap2\n      swap1\n      tag_54\n      jump\t// in\n    tag_244:\n      0x00\n      mload(0x40)\n      dup1\n      dup4\n      sub\n      dup2\n      0x00\n      dup8\n      dup1\n      extcodesize\n      iszero\n      dup1\n      iszero\n      tag_245\n      jumpi\n      0x00\n      dup1\n      revert\n    tag_245:\n      pop\n      gas\n      call\n      iszero\n      dup1\n      iszero\n      tag_247\n      jumpi\n      returndatasize\n      0x00\n      dup1\n      returndatacopy\n      revert(0x00, returndatasize)\n    tag_247:\n      pop\n      pop\n      pop\n      pop\n        /* \"contracts/CarreraCoches/principal.sol\":6346:6366  return \"Has perdido\" */\n      mload(0x40)\n      dup1\n      0x40\n      add\n      0x40\n      mstore\n      dup1\n      0x0b\n      dup2\n      mstore\n      0x20\n      add\n      0x486173207065726469646f000000000000000000000000000000000000000000\n      dup2\n      mstore\n      pop\n      swap6\n      pop\n      pop\n      pop\n      pop\n      pop\n      pop\n      jump(tag_159)\n        /* \"contracts/CarreraCoches/principal.sol\":5740:7165  if(listaCoches[rival].nivel == listaCoches[i].nivel){\r... */\n    tag_231:\n        /* \"contracts/CarreraCoches/principal.sol\":6461:6463  40 */\n      0x28\n        /* \"contracts/CarreraCoches/principal.sol\":6452:6459  ganador */\n      dup3\n        /* \"contracts/CarreraCoches/principal.sol\":6452:6463  ganador<=40 */\n      gt\n        /* \"contracts/CarreraCoches/principal.sol\":6449:7141  if(ganador<=40){\r... */\n      tag_249\n      jumpi\n        /* \"contracts/CarreraCoches/principal.sol\":6495:6504  balance() */\n      tag_250\n        /* \"contracts/CarreraCoches/principal.sol\":6495:6502  balance */\n      tag_208\n        /* \"contracts/CarreraCoches/principal.sol\":6495:6504  balance() */\n      jump\t// in\n    tag_250:\n        /* \"contracts/CarreraCoches/principal.sol\":6535:6546  listaCoches */\n      0x06\n        /* \"contracts/CarreraCoches/principal.sol\":6547:6548  i */\n      dup2\n        /* \"contracts/CarreraCoches/principal.sol\":6535:6549  listaCoches[i] */\n      dup2\n      sload\n      dup2\n      lt\n      tag_251\n      jumpi\n      tag_252\n      tag_106\n      jump\t// in\n    tag_252:\n    tag_251:\n      swap1\n      0x00\n      mstore\n      keccak256(0x00, 0x20)\n      swap1\n      0x08\n      mul\n      add\n        /* \"contracts/CarreraCoches/principal.sol\":6535:6565  listaCoches[i].carrerasGanadas */\n      0x04\n      add\n      0x00\n        /* \"contracts/CarreraCoches/principal.sol\":6535:6567  listaCoches[i].carrerasGanadas++ */\n      dup2\n      sload\n      dup1\n      swap3\n      swap2\n      swap1\n      tag_254\n      swap1\n      tag_119\n      jump\t// in\n    tag_254:\n      swap2\n      swap1\n      pop\n      sstore\n      pop\n        /* \"contracts/CarreraCoches/principal.sol\":6598:6609  listaCoches */\n      0x06\n        /* \"contracts/CarreraCoches/principal.sol\":6610:6611  i */\n      dup2\n        /* \"contracts/CarreraCoches/principal.sol\":6598:6612  listaCoches[i] */\n      dup2\n      sload\n      dup2\n      lt\n      tag_255\n      jumpi\n      tag_256\n      tag_106\n      jump\t// in\n    tag_256:\n    tag_255:\n      swap1\n      0x00\n      mstore\n      keccak256(0x00, 0x20)\n      swap1\n      0x08\n      mul\n      add\n        /* \"contracts/CarreraCoches/principal.sol\":6598:6618  listaCoches[i].nivel */\n      0x07\n      add\n      0x00\n        /* \"contracts/CarreraCoches/principal.sol\":6598:6620  listaCoches[i].nivel++ */\n      dup2\n      dup2\n      swap1\n      sload\n      swap1\n      0x0100\n      exp\n      swap1\n      div\n      0xffffffff\n      and\n      dup1\n      swap3\n      swap2\n      swap1\n      tag_258\n      swap1\n      tag_157\n      jump\t// in\n    tag_258:\n      swap2\n      swap1\n      0x0100\n      exp\n      dup2\n      sload\n      dup2\n      0xffffffff\n      mul\n      not\n      and\n      swap1\n      dup4\n      0xffffffff\n      and\n      mul\n      or\n      swap1\n      sstore\n      pop\n      pop\n        /* \"contracts/CarreraCoches/principal.sol\":6651:6670  return \"Has ganado\" */\n      mload(0x40)\n      dup1\n      0x40\n      add\n      0x40\n      mstore\n      dup1\n      0x0a\n      dup2\n      mstore\n      0x20\n      add\n      0x4861732067616e61646f00000000000000000000000000000000000000000000\n      dup2\n      mstore\n      pop\n      swap6\n      pop\n      pop\n      pop\n      pop\n      pop\n      pop\n      jump(tag_159)\n        /* \"contracts/CarreraCoches/principal.sol\":6449:7141  if(ganador<=40){\r... */\n    tag_249:\n        /* \"contracts/CarreraCoches/principal.sol\":6738:6788  confirmacionDepositoLleno(\"El coche ganador es: \") */\n      0x6158fc8f21c8cc73ddf920956cc75d0e8a48b4fc85817a0ba89eb3b6d2a75441\n      mload(0x40)\n      tag_260\n      swap1\n      tag_219\n      jump\t// in\n    tag_260:\n      mload(0x40)\n      dup1\n      swap2\n      sub\n      swap1\n      log1\n        /* \"contracts/CarreraCoches/principal.sol\":6819:6823  this */\n      address\n        /* \"contracts/CarreraCoches/principal.sol\":6819:6843  this.verCochePropietario */\n      0xffffffffffffffffffffffffffffffffffffffff\n      and\n      0xe172fca8\n        /* \"contracts/CarreraCoches/principal.sol\":6844:6856  addressRival */\n      dup6\n        /* \"contracts/CarreraCoches/principal.sol\":6819:6857  this.verCochePropietario(addressRival) */\n      mload(0x40)\n      dup3\n      0xffffffff\n      and\n      0xe0\n      shl\n      dup2\n      mstore\n      0x04\n      add\n      tag_261\n      swap2\n      swap1\n      tag_54\n      jump\t// in\n    tag_261:\n      0x00\n      mload(0x40)\n      dup1\n      dup4\n      sub\n      dup2\n      0x00\n      dup8\n      dup1\n      extcodesize\n      iszero\n      dup1\n      iszero\n      tag_262\n      jumpi\n      0x00\n      dup1\n      revert\n    tag_262:\n      pop\n      gas\n      call\n      iszero\n      dup1\n      iszero\n      tag_264\n      jumpi\n      returndatasize\n      0x00\n      dup1\n      returndatacopy\n      revert(0x00, returndatasize)\n    tag_264:\n      pop\n      pop\n      pop\n      pop\n        /* \"contracts/CarreraCoches/principal.sol\":7093:7113  return \"Has perdido\" */\n      mload(0x40)\n      dup1\n      0x40\n      add\n      0x40\n      mstore\n      dup1\n      0x0b\n      dup2\n      mstore\n      0x20\n      add\n      0x486173207065726469646f000000000000000000000000000000000000000000\n      dup2\n      mstore\n      pop\n      swap6\n      pop\n      pop\n      pop\n      pop\n      pop\n      pop\n      jump(tag_159)\n        /* \"contracts/CarreraCoches/principal.sol\":4765:7188  if (msg.sender == listaCoches[i].idPiloto) {\r... */\n    tag_179:\n        /* \"contracts/CarreraCoches/principal.sol\":4706:4709  i++ */\n      dup1\n      dup1\n      tag_265\n      swap1\n      tag_119\n      jump\t// in\n    tag_265:\n      swap2\n      pop\n      pop\n        /* \"contracts/CarreraCoches/principal.sol\":4666:7221  for(uint i = 0; i < listaCoches.length; i++){\r... */\n      jump(tag_173)\n    tag_174:\n      pop\n        /* \"contracts/CarreraCoches/principal.sol\":4126:7232  {\r... */\n      pop\n      pop\n      pop\n      pop\n        /* \"contracts/CarreraCoches/principal.sol\":3986:7232  if(listaCoches.length <= 1){\r... */\n    tag_163:\n        /* \"contracts/CarreraCoches/principal.sol\":3892:7238  function Apostar(uint dineroApostar) public payable returns(string memory) {\r... */\n    tag_159:\n      swap2\n      swap1\n      pop\n      jump\t// out\n        /* \"contracts/CarreraCoches/cocheToken.sol\":189:312  function balanceOf(address _owner) external override view returns (uint256) {\r... */\n    tag_66:\n        /* \"contracts/CarreraCoches/cocheToken.sol\":256:263  uint256 */\n      0x00\n        /* \"contracts/CarreraCoches/cocheToken.sol\":279:298  numeroCochesPersona */\n      0x08\n        /* \"contracts/CarreraCoches/cocheToken.sol\":279:306  numeroCochesPersona[_owner] */\n      0x00\n        /* \"contracts/CarreraCoches/cocheToken.sol\":299:305  _owner */\n      dup4\n        /* \"contracts/CarreraCoches/cocheToken.sol\":279:306  numeroCochesPersona[_owner] */\n      0xffffffffffffffffffffffffffffffffffffffff\n      and\n      0xffffffffffffffffffffffffffffffffffffffff\n      and\n      dup2\n      mstore\n      0x20\n      add\n      swap1\n      dup2\n      mstore\n      0x20\n      add\n      0x00\n      keccak256\n      sload\n        /* \"contracts/CarreraCoches/cocheToken.sol\":272:306  return numeroCochesPersona[_owner] */\n      swap1\n      pop\n        /* \"contracts/CarreraCoches/cocheToken.sol\":189:312  function balanceOf(address _owner) external override view returns (uint256) {\r... */\n      swap2\n      swap1\n      pop\n      jump\t// out\n        /* \"contracts/CarreraCoches/ownable.sol\":1719:1822  function renounceOwnership() public virtual onlyOwner {\r... */\n    tag_70:\n        /* \"contracts/CarreraCoches/ownable.sol\":1299:1311  _msgSender() */\n      tag_268\n        /* \"contracts/CarreraCoches/ownable.sol\":1299:1309  _msgSender */\n      tag_269\n        /* \"contracts/CarreraCoches/ownable.sol\":1299:1311  _msgSender() */\n      jump\t// in\n    tag_268:\n        /* \"contracts/CarreraCoches/ownable.sol\":1288:1311  owner() == _msgSender() */\n      0xffffffffffffffffffffffffffffffffffffffff\n      and\n        /* \"contracts/CarreraCoches/ownable.sol\":1288:1295  owner() */\n      tag_270\n        /* \"contracts/CarreraCoches/ownable.sol\":1288:1293  owner */\n      tag_78\n        /* \"contracts/CarreraCoches/ownable.sol\":1288:1295  owner() */\n      jump\t// in\n    tag_270:\n        /* \"contracts/CarreraCoches/ownable.sol\":1288:1311  owner() == _msgSender() */\n      0xffffffffffffffffffffffffffffffffffffffff\n      and\n      eq\n        /* \"contracts/CarreraCoches/ownable.sol\":1280:1348  require(owner() == _msgSender(), \"Ownable: caller is not the owner\") */\n      tag_271\n      jumpi\n      mload(0x40)\n      0x08c379a000000000000000000000000000000000000000000000000000000000\n      dup2\n      mstore\n      0x04\n      add\n      tag_272\n      swap1\n      tag_273\n      jump\t// in\n    tag_272:\n      mload(0x40)\n      dup1\n      swap2\n      sub\n      swap1\n      revert\n    tag_271:\n        /* \"contracts/CarreraCoches/ownable.sol\":1784:1814  _transferOwnership(address(0)) */\n      tag_275\n        /* \"contracts/CarreraCoches/ownable.sol\":1811:1812  0 */\n      0x00\n        /* \"contracts/CarreraCoches/ownable.sol\":1784:1802  _transferOwnership */\n      tag_276\n        /* \"contracts/CarreraCoches/ownable.sol\":1784:1814  _transferOwnership(address(0)) */\n      jump\t// in\n    tag_275:\n        /* \"contracts/CarreraCoches/ownable.sol\":1719:1822  function renounceOwnership() public virtual onlyOwner {\r... */\n      jump\t// out\n        /* \"contracts/CarreraCoches/principal.sol\":1019:1070  mapping (uint => address) public cocheDePropietario */\n    tag_74:\n      mstore(0x20, 0x07)\n      dup1\n      0x00\n      mstore\n      keccak256(0x00, 0x40)\n      0x00\n      swap2\n      pop\n      sload\n      swap1\n      0x0100\n      exp\n      swap1\n      div\n      0xffffffffffffffffffffffffffffffffffffffff\n      and\n      dup2\n      jump\t// out\n        /* \"contracts/CarreraCoches/ownable.sol\":1068:1155  function owner() public view virtual returns (address) {\r... */\n    tag_78:\n        /* \"contracts/CarreraCoches/ownable.sol\":1114:1121  address */\n      0x00\n        /* \"contracts/CarreraCoches/ownable.sol\":1141:1147  _owner */\n      dup1\n      0x00\n      swap1\n      sload\n      swap1\n      0x0100\n      exp\n      swap1\n      div\n      0xffffffffffffffffffffffffffffffffffffffff\n      and\n        /* \"contracts/CarreraCoches/ownable.sol\":1134:1147  return _owner */\n      swap1\n      pop\n        /* \"contracts/CarreraCoches/ownable.sol\":1068:1155  function owner() public view virtual returns (address) {\r... */\n      swap1\n      jump\t// out\n        /* \"contracts/CarreraCoches/ownable.sol\":701:722  address public _owner */\n    tag_82:\n      0x00\n      dup1\n      sload\n      swap1\n      0x0100\n      exp\n      swap1\n      div\n      0xffffffffffffffffffffffffffffffffffffffff\n      and\n      dup2\n      jump\t// out\n        /* \"contracts/CarreraCoches/principal.sol\":752:778  Coche[] public listaCoches */\n    tag_87:\n      0x06\n      dup2\n      dup2\n      sload\n      dup2\n      lt\n      tag_278\n      jumpi\n      0x00\n      dup1\n      revert\n    tag_278:\n      swap1\n      0x00\n      mstore\n      keccak256(0x00, 0x20)\n      swap1\n      0x08\n      mul\n      add\n      0x00\n      swap2\n      pop\n      swap1\n      pop\n      dup1\n      0x00\n      add\n      0x00\n      swap1\n      sload\n      swap1\n      0x0100\n      exp\n      swap1\n      div\n      0xffffffffffffffffffffffffffffffffffffffff\n      and\n      swap1\n      dup1\n      0x01\n      add\n      dup1\n      sload\n      tag_280\n      swap1\n      tag_281\n      jump\t// in\n    tag_280:\n      dup1\n      0x1f\n      add\n      0x20\n      dup1\n      swap2\n      div\n      mul\n      0x20\n      add\n      mload(0x40)\n      swap1\n      dup2\n      add\n      0x40\n      mstore\n      dup1\n      swap3\n      swap2\n      swap1\n      dup2\n      dup2\n      mstore\n      0x20\n      add\n      dup3\n      dup1\n      sload\n      tag_282\n      swap1\n      tag_281\n      jump\t// in\n    tag_282:\n      dup1\n      iszero\n      tag_283\n      jumpi\n      dup1\n      0x1f\n      lt\n      tag_284\n      jumpi\n      0x0100\n      dup1\n      dup4\n      sload\n      div\n      mul\n      dup4\n      mstore\n      swap2\n      0x20\n      add\n      swap2\n      jump(tag_283)\n    tag_284:\n      dup3\n      add\n      swap2\n      swap1\n      0x00\n      mstore\n      keccak256(0x00, 0x20)\n      swap1\n    tag_285:\n      dup2\n      sload\n      dup2\n      mstore\n      swap1\n      0x01\n      add\n      swap1\n      0x20\n      add\n      dup1\n      dup4\n      gt\n      tag_285\n      jumpi\n      dup3\n      swap1\n      sub\n      0x1f\n      and\n      dup3\n      add\n      swap2\n    tag_283:\n      pop\n      pop\n      pop\n      pop\n      pop\n      swap1\n      dup1\n      0x02\n      add\n      dup1\n      sload\n      tag_286\n      swap1\n      tag_281\n      jump\t// in\n    tag_286:\n      dup1\n      0x1f\n      add\n      0x20\n      dup1\n      swap2\n      div\n      mul\n      0x20\n      add\n      mload(0x40)\n      swap1\n      dup2\n      add\n      0x40\n      mstore\n      dup1\n      swap3\n      swap2\n      swap1\n      dup2\n      dup2\n      mstore\n      0x20\n      add\n      dup3\n      dup1\n      sload\n      tag_287\n      swap1\n      tag_281\n      jump\t// in\n    tag_287:\n      dup1\n      iszero\n      tag_288\n      jumpi\n      dup1\n      0x1f\n      lt\n      tag_289\n      jumpi\n      0x0100\n      dup1\n      dup4\n      sload\n      div\n      mul\n      dup4\n      mstore\n      swap2\n      0x20\n      add\n      swap2\n      jump(tag_288)\n    tag_289:\n      dup3\n      add\n      swap2\n      swap1\n      0x00\n      mstore\n      keccak256(0x00, 0x20)\n      swap1\n    tag_290:\n      dup2\n      sload\n      dup2\n      mstore\n      swap1\n      0x01\n      add\n      swap1\n      0x20\n      add\n      dup1\n      dup4\n      gt\n      tag_290\n      jumpi\n      dup3\n      swap1\n      sub\n      0x1f\n      and\n      dup3\n      add\n      swap2\n    tag_288:\n      pop\n      pop\n      pop\n      pop\n      pop\n      swap1\n      dup1\n      0x03\n      add\n      dup1\n      sload\n      tag_291\n      swap1\n      tag_281\n      jump\t// in\n    tag_291:\n      dup1\n      0x1f\n      add\n      0x20\n      dup1\n      swap2\n      div\n      mul\n      0x20\n      add\n      mload(0x40)\n      swap1\n      dup2\n      add\n      0x40\n      mstore\n      dup1\n      swap3\n      swap2\n      swap1\n      dup2\n      dup2\n      mstore\n      0x20\n      add\n      dup3\n      dup1\n      sload\n      tag_292\n      swap1\n      tag_281\n      jump\t// in\n    tag_292:\n      dup1\n      iszero\n      tag_293\n      jumpi\n      dup1\n      0x1f\n      lt\n      tag_294\n      jumpi\n      0x0100\n      dup1\n      dup4\n      sload\n      div\n      mul\n      dup4\n      mstore\n      swap2\n      0x20\n      add\n      swap2\n      jump(tag_293)\n    tag_294:\n      dup3\n      add\n      swap2\n      swap1\n      0x00\n      mstore\n      keccak256(0x00, 0x20)\n      swap1\n    tag_295:\n      dup2\n      sload\n      dup2\n      mstore\n      swap1\n      0x01\n      add\n      swap1\n      0x20\n      add\n      dup1\n      dup4\n      gt\n      tag_295\n      jumpi\n      dup3\n      swap1\n      sub\n      0x1f\n      and\n      dup3\n      add\n      swap2\n    tag_293:\n      pop\n      pop\n      pop\n      pop\n      pop\n      swap1\n      dup1\n      0x04\n      add\n      sload\n      swap1\n      dup1\n      0x05\n      add\n      sload\n      swap1\n      dup1\n      0x06\n      add\n      sload\n      swap1\n      dup1\n      0x07\n      add\n      0x00\n      swap1\n      sload\n      swap1\n      0x0100\n      exp\n      swap1\n      div\n      0xffffffff\n      and\n      swap1\n      pop\n      dup9\n      jump\t// out\n        /* \"contracts/CarreraCoches/principal.sol\":2913:3289  function verCochePropietario(address _propietario) external {\r... */\n    tag_93:\n        /* \"contracts/CarreraCoches/principal.sol\":2988:2994  uint i */\n      0x00\n        /* \"contracts/CarreraCoches/principal.sol\":2984:3282  for(uint i = 0; i < listaCoches.length; i++){\r... */\n    tag_297:\n        /* \"contracts/CarreraCoches/principal.sol\":3004:3015  listaCoches */\n      0x06\n        /* \"contracts/CarreraCoches/principal.sol\":3004:3022  listaCoches.length */\n      dup1\n      sload\n      swap1\n      pop\n        /* \"contracts/CarreraCoches/principal.sol\":3000:3001  i */\n      dup2\n        /* \"contracts/CarreraCoches/principal.sol\":3000:3022  i < listaCoches.length */\n      lt\n        /* \"contracts/CarreraCoches/principal.sol\":2984:3282  for(uint i = 0; i < listaCoches.length; i++){\r... */\n      iszero\n      tag_298\n      jumpi\n        /* \"contracts/CarreraCoches/principal.sol\":3071:3083  _propietario */\n      dup2\n        /* \"contracts/CarreraCoches/principal.sol\":3046:3083  listaCoches[i].idPiloto==_propietario */\n      0xffffffffffffffffffffffffffffffffffffffff\n      and\n        /* \"contracts/CarreraCoches/principal.sol\":3046:3057  listaCoches */\n      0x06\n        /* \"contracts/CarreraCoches/principal.sol\":3058:3059  i */\n      dup3\n        /* \"contracts/CarreraCoches/principal.sol\":3046:3060  listaCoches[i] */\n      dup2\n      sload\n      dup2\n      lt\n      tag_300\n      jumpi\n      tag_301\n      tag_106\n      jump\t// in\n    tag_301:\n    tag_300:\n      swap1\n      0x00\n      mstore\n      keccak256(0x00, 0x20)\n      swap1\n      0x08\n      mul\n      add\n        /* \"contracts/CarreraCoches/principal.sol\":3046:3069  listaCoches[i].idPiloto */\n      0x00\n      add\n      0x00\n      swap1\n      sload\n      swap1\n      0x0100\n      exp\n      swap1\n      div\n      0xffffffffffffffffffffffffffffffffffffffff\n      and\n        /* \"contracts/CarreraCoches/principal.sol\":3046:3083  listaCoches[i].idPiloto==_propietario */\n      0xffffffffffffffffffffffffffffffffffffffff\n      and\n      eq\n        /* \"contracts/CarreraCoches/principal.sol\":3043:3271  if(listaCoches[i].idPiloto==_propietario){\r... */\n      iszero\n      tag_303\n      jumpi\n        /* \"contracts/CarreraCoches/principal.sol\":3108:3255  cochePropietario(listaCoches[i].marca, listaCoches[i].modelo, listaCoches[i].nivel, listaCoches[i].carrerasGanadas, listaCoches[i].carrerasTotales) */\n      0x20fdb8ab571bfbab79104bea84f9c31cb79c5ae45b5f515c1d6c8393e0028350\n        /* \"contracts/CarreraCoches/principal.sol\":3125:3136  listaCoches */\n      0x06\n        /* \"contracts/CarreraCoches/principal.sol\":3137:3138  i */\n      dup3\n        /* \"contracts/CarreraCoches/principal.sol\":3125:3139  listaCoches[i] */\n      dup2\n      sload\n      dup2\n      lt\n      tag_304\n      jumpi\n      tag_305\n      tag_106\n      jump\t// in\n    tag_305:\n    tag_304:\n      swap1\n      0x00\n      mstore\n      keccak256(0x00, 0x20)\n      swap1\n      0x08\n      mul\n      add\n        /* \"contracts/CarreraCoches/principal.sol\":3125:3145  listaCoches[i].marca */\n      0x02\n      add\n        /* \"contracts/CarreraCoches/principal.sol\":3147:3158  listaCoches */\n      0x06\n        /* \"contracts/CarreraCoches/principal.sol\":3159:3160  i */\n      dup4\n        /* \"contracts/CarreraCoches/principal.sol\":3147:3161  listaCoches[i] */\n      dup2\n      sload\n      dup2\n      lt\n      tag_307\n      jumpi\n      tag_308\n      tag_106\n      jump\t// in\n    tag_308:\n    tag_307:\n      swap1\n      0x00\n      mstore\n      keccak256(0x00, 0x20)\n      swap1\n      0x08\n      mul\n      add\n        /* \"contracts/CarreraCoches/principal.sol\":3147:3168  listaCoches[i].modelo */\n      0x01\n      add\n        /* \"contracts/CarreraCoches/principal.sol\":3170:3181  listaCoches */\n      0x06\n        /* \"contracts/CarreraCoches/principal.sol\":3182:3183  i */\n      dup5\n        /* \"contracts/CarreraCoches/principal.sol\":3170:3184  listaCoches[i] */\n      dup2\n      sload\n      dup2\n      lt\n      tag_310\n      jumpi\n      tag_311\n      tag_106\n      jump\t// in\n    tag_311:\n    tag_310:\n      swap1\n      0x00\n      mstore\n      keccak256(0x00, 0x20)\n      swap1\n      0x08\n      mul\n      add\n        /* \"contracts/CarreraCoches/principal.sol\":3170:3190  listaCoches[i].nivel */\n      0x07\n      add\n      0x00\n      swap1\n      sload\n      swap1\n      0x0100\n      exp\n      swap1\n      div\n      0xffffffff\n      and\n        /* \"contracts/CarreraCoches/principal.sol\":3192:3203  listaCoches */\n      0x06\n        /* \"contracts/CarreraCoches/principal.sol\":3204:3205  i */\n      dup6\n        /* \"contracts/CarreraCoches/principal.sol\":3192:3206  listaCoches[i] */\n      dup2\n      sload\n      dup2\n      lt\n      tag_313\n      jumpi\n      tag_314\n      tag_106\n      jump\t// in\n    tag_314:\n    tag_313:\n      swap1\n      0x00\n      mstore\n      keccak256(0x00, 0x20)\n      swap1\n      0x08\n      mul\n      add\n        /* \"contracts/CarreraCoches/principal.sol\":3192:3222  listaCoches[i].carrerasGanadas */\n      0x04\n      add\n      sload\n        /* \"contracts/CarreraCoches/principal.sol\":3224:3235  listaCoches */\n      0x06\n        /* \"contracts/CarreraCoches/principal.sol\":3236:3237  i */\n      dup7\n        /* \"contracts/CarreraCoches/principal.sol\":3224:3238  listaCoches[i] */\n      dup2\n      sload\n      dup2\n      lt\n      tag_316\n      jumpi\n      tag_317\n      tag_106\n      jump\t// in\n    tag_317:\n    tag_316:\n      swap1\n      0x00\n      mstore\n      keccak256(0x00, 0x20)\n      swap1\n      0x08\n      mul\n      add\n        /* \"contracts/CarreraCoches/principal.sol\":3224:3254  listaCoches[i].carrerasTotales */\n      0x05\n      add\n      sload\n        /* \"contracts/CarreraCoches/principal.sol\":3108:3255  cochePropietario(listaCoches[i].marca, listaCoches[i].modelo, listaCoches[i].nivel, listaCoches[i].carrerasGanadas, listaCoches[i].carrerasTotales) */\n      mload(0x40)\n      tag_319\n      swap6\n      swap5\n      swap4\n      swap3\n      swap2\n      swap1\n      tag_320\n      jump\t// in\n    tag_319:\n      mload(0x40)\n      dup1\n      swap2\n      sub\n      swap1\n      log1\n        /* \"contracts/CarreraCoches/principal.sol\":3043:3271  if(listaCoches[i].idPiloto==_propietario){\r... */\n    tag_303:\n        /* \"contracts/CarreraCoches/principal.sol\":3024:3027  i++ */\n      dup1\n      dup1\n      tag_321\n      swap1\n      tag_119\n      jump\t// in\n    tag_321:\n      swap2\n      pop\n      pop\n        /* \"contracts/CarreraCoches/principal.sol\":2984:3282  for(uint i = 0; i < listaCoches.length; i++){\r... */\n      jump(tag_297)\n    tag_298:\n      pop\n        /* \"contracts/CarreraCoches/principal.sol\":2913:3289  function verCochePropietario(address _propietario) external {\r... */\n      pop\n      jump\t// out\n        /* \"contracts/CarreraCoches/ownable.sol\":1977:2178  function transferOwnership(address newOwner) public virtual onlyOwner {\r... */\n    tag_97:\n        /* \"contracts/CarreraCoches/ownable.sol\":1299:1311  _msgSender() */\n      tag_323\n        /* \"contracts/CarreraCoches/ownable.sol\":1299:1309  _msgSender */\n      tag_269\n        /* \"contracts/CarreraCoches/ownable.sol\":1299:1311  _msgSender() */\n      jump\t// in\n    tag_323:\n        /* \"contracts/CarreraCoches/ownable.sol\":1288:1311  owner() == _msgSender() */\n      0xffffffffffffffffffffffffffffffffffffffff\n      and\n        /* \"contracts/CarreraCoches/ownable.sol\":1288:1295  owner() */\n      tag_324\n        /* \"contracts/CarreraCoches/ownable.sol\":1288:1293  owner */\n      tag_78\n        /* \"contracts/CarreraCoches/ownable.sol\":1288:1295  owner() */\n      jump\t// in\n    tag_324:\n        /* \"contracts/CarreraCoches/ownable.sol\":1288:1311  owner() == _msgSender() */\n      0xffffffffffffffffffffffffffffffffffffffff\n      and\n      eq\n        /* \"contracts/CarreraCoches/ownable.sol\":1280:1348  require(owner() == _msgSender(), \"Ownable: caller is not the owner\") */\n      tag_325\n      jumpi\n      mload(0x40)\n      0x08c379a000000000000000000000000000000000000000000000000000000000\n      dup2\n      mstore\n      0x04\n      add\n      tag_326\n      swap1\n      tag_273\n      jump\t// in\n    tag_326:\n      mload(0x40)\n      dup1\n      swap2\n      sub\n      swap1\n      revert\n    tag_325:\n        /* \"contracts/CarreraCoches/ownable.sol\":2086:2087  0 */\n      0x00\n        /* \"contracts/CarreraCoches/ownable.sol\":2066:2088  newOwner != address(0) */\n      0xffffffffffffffffffffffffffffffffffffffff\n      and\n        /* \"contracts/CarreraCoches/ownable.sol\":2066:2074  newOwner */\n      dup2\n        /* \"contracts/CarreraCoches/ownable.sol\":2066:2088  newOwner != address(0) */\n      0xffffffffffffffffffffffffffffffffffffffff\n      and\n      eq\n      iszero\n        /* \"contracts/CarreraCoches/ownable.sol\":2058:2131  require(newOwner != address(0), \"Ownable: new owner is the zero address\") */\n      tag_328\n      jumpi\n      mload(0x40)\n      0x08c379a000000000000000000000000000000000000000000000000000000000\n      dup2\n      mstore\n      0x04\n      add\n      tag_329\n      swap1\n      tag_330\n      jump\t// in\n    tag_329:\n      mload(0x40)\n      dup1\n      swap2\n      sub\n      swap1\n      revert\n    tag_328:\n        /* \"contracts/CarreraCoches/ownable.sol\":2142:2170  _transferOwnership(newOwner) */\n      tag_331\n        /* \"contracts/CarreraCoches/ownable.sol\":2161:2169  newOwner */\n      dup2\n        /* \"contracts/CarreraCoches/ownable.sol\":2142:2160  _transferOwnership */\n      tag_276\n        /* \"contracts/CarreraCoches/ownable.sol\":2142:2170  _transferOwnership(newOwner) */\n      jump\t// in\n    tag_331:\n        /* \"contracts/CarreraCoches/ownable.sol\":1977:2178  function transferOwnership(address newOwner) public virtual onlyOwner {\r... */\n      pop\n      jump\t// out\n        /* \"contracts/CarreraCoches/cocheToken.sol\":448:678  function _transfer(address _from, address _to, uint256 _tokenId) private {\r... */\n    tag_127:\n        /* \"contracts/CarreraCoches/cocheToken.sol\":528:547  numeroCochesPersona */\n      0x08\n        /* \"contracts/CarreraCoches/cocheToken.sol\":528:552  numeroCochesPersona[_to] */\n      0x00\n        /* \"contracts/CarreraCoches/cocheToken.sol\":548:551  _to */\n      dup4\n        /* \"contracts/CarreraCoches/cocheToken.sol\":528:552  numeroCochesPersona[_to] */\n      0xffffffffffffffffffffffffffffffffffffffff\n      and\n      0xffffffffffffffffffffffffffffffffffffffff\n      and\n      dup2\n      mstore\n      0x20\n      add\n      swap1\n      dup2\n      mstore\n      0x20\n      add\n      0x00\n      keccak256\n      0x00\n        /* \"contracts/CarreraCoches/cocheToken.sol\":528:554  numeroCochesPersona[_to]++ */\n      dup2\n      sload\n      dup1\n      swap3\n      swap2\n      swap1\n      tag_333\n      swap1\n      tag_119\n      jump\t// in\n    tag_333:\n      swap2\n      swap1\n      pop\n      sstore\n      pop\n        /* \"contracts/CarreraCoches/cocheToken.sol\":561:580  numeroCochesPersona */\n      0x08\n        /* \"contracts/CarreraCoches/cocheToken.sol\":561:587  numeroCochesPersona[_from] */\n      0x00\n        /* \"contracts/CarreraCoches/cocheToken.sol\":581:586  _from */\n      dup5\n        /* \"contracts/CarreraCoches/cocheToken.sol\":561:587  numeroCochesPersona[_from] */\n      0xffffffffffffffffffffffffffffffffffffffff\n      and\n      0xffffffffffffffffffffffffffffffffffffffff\n      and\n      dup2\n      mstore\n      0x20\n      add\n      swap1\n      dup2\n      mstore\n      0x20\n      add\n      0x00\n      keccak256\n      0x00\n        /* \"contracts/CarreraCoches/cocheToken.sol\":561:589  numeroCochesPersona[_from]-- */\n      dup2\n      sload\n      dup1\n      swap3\n      swap2\n      swap1\n      tag_334\n      swap1\n      tag_335\n      jump\t// in\n    tag_334:\n      swap2\n      swap1\n      pop\n      sstore\n      pop\n        /* \"contracts/CarreraCoches/cocheToken.sol\":627:630  _to */\n      dup2\n        /* \"contracts/CarreraCoches/cocheToken.sol\":596:614  cocheDePropietario */\n      0x07\n        /* \"contracts/CarreraCoches/cocheToken.sol\":596:624  cocheDePropietario[_tokenId] */\n      0x00\n        /* \"contracts/CarreraCoches/cocheToken.sol\":615:623  _tokenId */\n      dup4\n        /* \"contracts/CarreraCoches/cocheToken.sol\":596:624  cocheDePropietario[_tokenId] */\n      dup2\n      mstore\n      0x20\n      add\n      swap1\n      dup2\n      mstore\n      0x20\n      add\n      0x00\n      keccak256\n      0x00\n        /* \"contracts/CarreraCoches/cocheToken.sol\":596:630  cocheDePropietario[_tokenId] = _to */\n      0x0100\n      exp\n      dup2\n      sload\n      dup2\n      0xffffffffffffffffffffffffffffffffffffffff\n      mul\n      not\n      and\n      swap1\n      dup4\n      0xffffffffffffffffffffffffffffffffffffffff\n      and\n      mul\n      or\n      swap1\n      sstore\n      pop\n        /* \"contracts/CarreraCoches/cocheToken.sol\":663:671  _tokenId */\n      dup1\n        /* \"contracts/CarreraCoches/cocheToken.sol\":658:661  _to */\n      dup3\n        /* \"contracts/CarreraCoches/cocheToken.sol\":642:672  Transfer(_from, _to, _tokenId) */\n      0xffffffffffffffffffffffffffffffffffffffff\n      and\n        /* \"contracts/CarreraCoches/cocheToken.sol\":651:656  _from */\n      dup5\n        /* \"contracts/CarreraCoches/cocheToken.sol\":642:672  Transfer(_from, _to, _tokenId) */\n      0xffffffffffffffffffffffffffffffffffffffff\n      and\n      0xddf252ad1be2c89b69c2b068fc378daa952ba7f163c4a11628f55a4df523b3ef\n      mload(0x40)\n      mload(0x40)\n      dup1\n      swap2\n      sub\n      swap1\n      log4\n        /* \"contracts/CarreraCoches/cocheToken.sol\":448:678  function _transfer(address _from, address _to, uint256 _tokenId) private {\r... */\n      pop\n      pop\n      pop\n      jump\t// out\n        /* \"contracts/CarreraCoches/principal.sol\":2322:2461  function _depositoLleno(Coche storage _coche) internal view returns (bool) {\r... */\n    tag_184:\n        /* \"contracts/CarreraCoches/principal.sol\":2391:2395  bool */\n      0x00\n        /* \"contracts/CarreraCoches/principal.sol\":2438:2453  block.timestamp */\n      timestamp\n        /* \"contracts/CarreraCoches/principal.sol\":2415:2421  _coche */\n      dup3\n        /* \"contracts/CarreraCoches/principal.sol\":2415:2434  _coche.tiempoEspera */\n      0x06\n      add\n      sload\n        /* \"contracts/CarreraCoches/principal.sol\":2415:2453  _coche.tiempoEspera <= block.timestamp */\n      gt\n      iszero\n        /* \"contracts/CarreraCoches/principal.sol\":2408:2453  return _coche.tiempoEspera <= block.timestamp */\n      swap1\n      pop\n        /* \"contracts/CarreraCoches/principal.sol\":2322:2461  function _depositoLleno(Coche storage _coche) internal view returns (bool) {\r... */\n      swap2\n      swap1\n      pop\n      jump\t// out\n        /* \"contracts/CarreraCoches/principal.sol\":2169:2296  function _repostando(Coche storage _coche) internal {\r... */\n    tag_198:\n        /* \"contracts/CarreraCoches/principal.sol\":2279:2287  cooldown */\n      sload(0x03)\n        /* \"contracts/CarreraCoches/principal.sol\":2261:2276  block.timestamp */\n      timestamp\n        /* \"contracts/CarreraCoches/principal.sol\":2261:2287  block.timestamp + cooldown */\n      tag_338\n      swap2\n      swap1\n      tag_134\n      jump\t// in\n    tag_338:\n        /* \"contracts/CarreraCoches/principal.sol\":2232:2288  _coche.tiempoEspera = uint32(block.timestamp + cooldown) */\n      0xffffffff\n      and\n        /* \"contracts/CarreraCoches/principal.sol\":2232:2238  _coche */\n      dup2\n        /* \"contracts/CarreraCoches/principal.sol\":2232:2251  _coche.tiempoEspera */\n      0x06\n      add\n        /* \"contracts/CarreraCoches/principal.sol\":2232:2288  _coche.tiempoEspera = uint32(block.timestamp + cooldown) */\n      dup2\n      swap1\n      sstore\n      pop\n        /* \"contracts/CarreraCoches/principal.sol\":2169:2296  function _repostando(Coche storage _coche) internal {\r... */\n      pop\n      jump\t// out\n        /* \"contracts/CarreraCoches/principal.sol\":7295:7393  function balance() private {\r... */\n    tag_208:\n        /* \"contracts/CarreraCoches/principal.sol\":7342:7352  msg.sender */\n      caller\n        /* \"contracts/CarreraCoches/principal.sol\":7333:7362  payable (msg.sender).transfer */\n      0xffffffffffffffffffffffffffffffffffffffff\n      and\n        /* \"contracts/CarreraCoches/principal.sol\":7333:7385  payable (msg.sender).transfer(address(this).balance) */\n      0x08fc\n        /* \"contracts/CarreraCoches/principal.sol\":7363:7384  address(this).balance */\n      selfbalance\n        /* \"contracts/CarreraCoches/principal.sol\":7333:7385  payable (msg.sender).transfer(address(this).balance) */\n      swap1\n      dup2\n      iszero\n      mul\n      swap1\n      mload(0x40)\n      0x00\n      mload(0x40)\n      dup1\n      dup4\n      sub\n      dup2\n      dup6\n      dup9\n      dup9\n      call\n      swap4\n      pop\n      pop\n      pop\n      pop\n      iszero\n      dup1\n      iszero\n      tag_341\n      jumpi\n      returndatasize\n      0x00\n      dup1\n      returndatacopy\n      revert(0x00, returndatasize)\n    tag_341:\n      pop\n        /* \"contracts/CarreraCoches/principal.sol\":7295:7393  function balance() private {\r... */\n      jump\t// out\n        /* \"contracts/CarreraCoches/utils/Context.sol\":656:754  function _msgSender() internal view virtual returns (address) {\r... */\n    tag_269:\n        /* \"contracts/CarreraCoches/utils/Context.sol\":709:716  address */\n      0x00\n        /* \"contracts/CarreraCoches/utils/Context.sol\":736:746  msg.sender */\n      caller\n        /* \"contracts/CarreraCoches/utils/Context.sol\":729:746  return msg.sender */\n      swap1\n      pop\n        /* \"contracts/CarreraCoches/utils/Context.sol\":656:754  function _msgSender() internal view virtual returns (address) {\r... */\n      swap1\n      jump\t// out\n        /* \"contracts/CarreraCoches/ownable.sol\":2338:2529  function _transferOwnership(address newOwner) internal virtual {\r... */\n    tag_276:\n        /* \"contracts/CarreraCoches/ownable.sol\":2412:2428  address oldOwner */\n      0x00\n        /* \"contracts/CarreraCoches/ownable.sol\":2431:2437  _owner */\n      dup1\n      0x00\n      swap1\n      sload\n      swap1\n      0x0100\n      exp\n      swap1\n      div\n      0xffffffffffffffffffffffffffffffffffffffff\n      and\n        /* \"contracts/CarreraCoches/ownable.sol\":2412:2437  address oldOwner = _owner */\n      swap1\n      pop\n        /* \"contracts/CarreraCoches/ownable.sol\":2457:2465  newOwner */\n      dup2\n        /* \"contracts/CarreraCoches/ownable.sol\":2448:2454  _owner */\n      0x00\n      dup1\n        /* \"contracts/CarreraCoches/ownable.sol\":2448:2465  _owner = newOwner */\n      0x0100\n      exp\n      dup2\n      sload\n      dup2\n      0xffffffffffffffffffffffffffffffffffffffff\n      mul\n      not\n      and\n      swap1\n      dup4\n      0xffffffffffffffffffffffffffffffffffffffff\n      and\n      mul\n      or\n      swap1\n      sstore\n      pop\n        /* \"contracts/CarreraCoches/ownable.sol\":2512:2520  newOwner */\n      dup2\n        /* \"contracts/CarreraCoches/ownable.sol\":2481:2521  OwnershipTransferred(oldOwner, newOwner) */\n      0xffffffffffffffffffffffffffffffffffffffff\n      and\n        /* \"contracts/CarreraCoches/ownable.sol\":2502:2510  oldOwner */\n      dup2\n        /* \"contracts/CarreraCoches/ownable.sol\":2481:2521  OwnershipTransferred(oldOwner, newOwner) */\n      0xffffffffffffffffffffffffffffffffffffffff\n      and\n      0x8be0079c531659141344cd1fd0a4f28419497f9722a3daafe3b4186f6b6457e0\n      mload(0x40)\n      mload(0x40)\n      dup1\n      swap2\n      sub\n      swap1\n      log3\n        /* \"contracts/CarreraCoches/ownable.sol\":2401:2529  {\r... */\n      pop\n        /* \"contracts/CarreraCoches/ownable.sol\":2338:2529  function _transferOwnership(address newOwner) internal virtual {\r... */\n      pop\n      jump\t// out\n    tag_113:\n      dup3\n      dup1\n      sload\n      tag_344\n      swap1\n      tag_281\n      jump\t// in\n    tag_344:\n      swap1\n      0x00\n      mstore\n      keccak256(0x00, 0x20)\n      swap1\n      0x1f\n      add\n      0x20\n      swap1\n      div\n      dup2\n      add\n      swap3\n      dup3\n      tag_346\n      jumpi\n      0x00\n      dup6\n      sstore\n      jump(tag_345)\n    tag_346:\n      dup3\n      0x1f\n      lt\n      tag_347\n      jumpi\n      dup1\n      mload\n      not(0xff)\n      and\n      dup4\n      dup1\n      add\n      or\n      dup6\n      sstore\n      jump(tag_345)\n    tag_347:\n      dup3\n      dup1\n      add\n      0x01\n      add\n      dup6\n      sstore\n      dup3\n      iszero\n      tag_345\n      jumpi\n      swap2\n      dup3\n      add\n    tag_348:\n      dup3\n      dup2\n      gt\n      iszero\n      tag_349\n      jumpi\n      dup3\n      mload\n      dup3\n      sstore\n      swap2\n      0x20\n      add\n      swap2\n      swap1\n      0x01\n      add\n      swap1\n      jump(tag_348)\n    tag_349:\n    tag_345:\n      pop\n      swap1\n      pop\n      tag_350\n      swap2\n      swap1\n      tag_351\n      jump\t// in\n    tag_350:\n      pop\n      swap1\n      jump\t// out\n    tag_351:\n    tag_352:\n      dup1\n      dup3\n      gt\n      iszero\n      tag_353\n      jumpi\n      0x00\n      dup2\n      0x00\n      swap1\n      sstore\n      pop\n      0x01\n      add\n      jump(tag_352)\n    tag_353:\n      pop\n      swap1\n      jump\t// out\n        /* \"#utility.yul\":7:419   */\n    tag_355:\n        /* \"#utility.yul\":85:90   */\n      0x00\n        /* \"#utility.yul\":110:176   */\n      tag_357\n        /* \"#utility.yul\":126:175   */\n      tag_358\n        /* \"#utility.yul\":168:174   */\n      dup5\n        /* \"#utility.yul\":126:175   */\n      tag_359\n      jump\t// in\n    tag_358:\n        /* \"#utility.yul\":110:176   */\n      tag_360\n      jump\t// in\n    tag_357:\n        /* \"#utility.yul\":101:176   */\n      swap1\n      pop\n        /* \"#utility.yul\":199:205   */\n      dup3\n        /* \"#utility.yul\":192:197   */\n      dup2\n        /* \"#utility.yul\":185:206   */\n      mstore\n        /* \"#utility.yul\":237:241   */\n      0x20\n        /* \"#utility.yul\":230:235   */\n      dup2\n        /* \"#utility.yul\":226:242   */\n      add\n        /* \"#utility.yul\":275:278   */\n      dup5\n        /* \"#utility.yul\":266:272   */\n      dup5\n        /* \"#utility.yul\":261:264   */\n      dup5\n        /* \"#utility.yul\":257:273   */\n      add\n        /* \"#utility.yul\":254:279   */\n      gt\n        /* \"#utility.yul\":251:363   */\n      iszero\n      tag_361\n      jumpi\n        /* \"#utility.yul\":282:361   */\n      tag_362\n      tag_363\n      jump\t// in\n    tag_362:\n        /* \"#utility.yul\":251:363   */\n    tag_361:\n        /* \"#utility.yul\":372:413   */\n      tag_364\n        /* \"#utility.yul\":406:412   */\n      dup5\n        /* \"#utility.yul\":401:404   */\n      dup3\n        /* \"#utility.yul\":396:399   */\n      dup6\n        /* \"#utility.yul\":372:413   */\n      tag_365\n      jump\t// in\n    tag_364:\n        /* \"#utility.yul\":91:419   */\n      pop\n        /* \"#utility.yul\":7:419   */\n      swap4\n      swap3\n      pop\n      pop\n      pop\n      jump\t// out\n        /* \"#utility.yul\":425:564   */\n    tag_366:\n        /* \"#utility.yul\":471:476   */\n      0x00\n        /* \"#utility.yul\":509:515   */\n      dup2\n        /* \"#utility.yul\":496:516   */\n      calldataload\n        /* \"#utility.yul\":487:516   */\n      swap1\n      pop\n        /* \"#utility.yul\":525:558   */\n      tag_368\n        /* \"#utility.yul\":552:557   */\n      dup2\n        /* \"#utility.yul\":525:558   */\n      tag_369\n      jump\t// in\n    tag_368:\n        /* \"#utility.yul\":425:564   */\n      swap3\n      swap2\n      pop\n      pop\n      jump\t// out\n        /* \"#utility.yul\":584:924   */\n    tag_370:\n        /* \"#utility.yul\":640:645   */\n      0x00\n        /* \"#utility.yul\":689:692   */\n      dup3\n        /* \"#utility.yul\":682:686   */\n      0x1f\n        /* \"#utility.yul\":674:680   */\n      dup4\n        /* \"#utility.yul\":670:687   */\n      add\n        /* \"#utility.yul\":666:693   */\n      slt\n        /* \"#utility.yul\":656:778   */\n      tag_372\n      jumpi\n        /* \"#utility.yul\":697:776   */\n      tag_373\n      tag_374\n      jump\t// in\n    tag_373:\n        /* \"#utility.yul\":656:778   */\n    tag_372:\n        /* \"#utility.yul\":814:820   */\n      dup2\n        /* \"#utility.yul\":801:821   */\n      calldataload\n        /* \"#utility.yul\":839:918   */\n      tag_375\n        /* \"#utility.yul\":914:917   */\n      dup5\n        /* \"#utility.yul\":906:912   */\n      dup3\n        /* \"#utility.yul\":899:903   */\n      0x20\n        /* \"#utility.yul\":891:897   */\n      dup7\n        /* \"#utility.yul\":887:904   */\n      add\n        /* \"#utility.yul\":839:918   */\n      tag_355\n      jump\t// in\n    tag_375:\n        /* \"#utility.yul\":830:918   */\n      swap2\n      pop\n        /* \"#utility.yul\":646:924   */\n      pop\n        /* \"#utility.yul\":584:924   */\n      swap3\n      swap2\n      pop\n      pop\n      jump\t// out\n        /* \"#utility.yul\":930:1069   */\n    tag_376:\n        /* \"#utility.yul\":976:981   */\n      0x00\n        /* \"#utility.yul\":1014:1020   */\n      dup2\n        /* \"#utility.yul\":1001:1021   */\n      calldataload\n        /* \"#utility.yul\":992:1021   */\n      swap1\n      pop\n        /* \"#utility.yul\":1030:1063   */\n      tag_378\n        /* \"#utility.yul\":1057:1062   */\n      dup2\n        /* \"#utility.yul\":1030:1063   */\n      tag_379\n      jump\t// in\n    tag_378:\n        /* \"#utility.yul\":930:1069   */\n      swap3\n      swap2\n      pop\n      pop\n      jump\t// out\n        /* \"#utility.yul\":1075:1404   */\n    tag_34:\n        /* \"#utility.yul\":1134:1140   */\n      0x00\n        /* \"#utility.yul\":1183:1185   */\n      0x20\n        /* \"#utility.yul\":1171:1180   */\n      dup3\n        /* \"#utility.yul\":1162:1169   */\n      dup5\n        /* \"#utility.yul\":1158:1181   */\n      sub\n        /* \"#utility.yul\":1154:1186   */\n      slt\n        /* \"#utility.yul\":1151:1270   */\n      iszero\n      tag_381\n      jumpi\n        /* \"#utility.yul\":1189:1268   */\n      tag_382\n      tag_383\n      jump\t// in\n    tag_382:\n        /* \"#utility.yul\":1151:1270   */\n    tag_381:\n        /* \"#utility.yul\":1309:1310   */\n      0x00\n        /* \"#utility.yul\":1334:1387   */\n      tag_384\n        /* \"#utility.yul\":1379:1386   */\n      dup5\n        /* \"#utility.yul\":1370:1376   */\n      dup3\n        /* \"#utility.yul\":1359:1368   */\n      dup6\n        /* \"#utility.yul\":1355:1377   */\n      add\n        /* \"#utility.yul\":1334:1387   */\n      tag_366\n      jump\t// in\n    tag_384:\n        /* \"#utility.yul\":1324:1387   */\n      swap2\n      pop\n        /* \"#utility.yul\":1280:1397   */\n      pop\n        /* \"#utility.yul\":1075:1404   */\n      swap3\n      swap2\n      pop\n      pop\n      jump\t// out\n        /* \"#utility.yul\":1410:2029   */\n    tag_40:\n        /* \"#utility.yul\":1487:1493   */\n      0x00\n        /* \"#utility.yul\":1495:1501   */\n      dup1\n        /* \"#utility.yul\":1503:1509   */\n      0x00\n        /* \"#utility.yul\":1552:1554   */\n      0x60\n        /* \"#utility.yul\":1540:1549   */\n      dup5\n        /* \"#utility.yul\":1531:1538   */\n      dup7\n        /* \"#utility.yul\":1527:1550   */\n      sub\n        /* \"#utility.yul\":1523:1555   */\n      slt\n        /* \"#utility.yul\":1520:1639   */\n      iszero\n      tag_386\n      jumpi\n        /* \"#utility.yul\":1558:1637   */\n      tag_387\n      tag_383\n      jump\t// in\n    tag_387:\n        /* \"#utility.yul\":1520:1639   */\n    tag_386:\n        /* \"#utility.yul\":1678:1679   */\n      0x00\n        /* \"#utility.yul\":1703:1756   */\n      tag_388\n        /* \"#utility.yul\":1748:1755   */\n      dup7\n        /* \"#utility.yul\":1739:1745   */\n      dup3\n        /* \"#utility.yul\":1728:1737   */\n      dup8\n        /* \"#utility.yul\":1724:1746   */\n      add\n        /* \"#utility.yul\":1703:1756   */\n      tag_366\n      jump\t// in\n    tag_388:\n        /* \"#utility.yul\":1693:1756   */\n      swap4\n      pop\n        /* \"#utility.yul\":1649:1766   */\n      pop\n        /* \"#utility.yul\":1805:1807   */\n      0x20\n        /* \"#utility.yul\":1831:1884   */\n      tag_389\n        /* \"#utility.yul\":1876:1883   */\n      dup7\n        /* \"#utility.yul\":1867:1873   */\n      dup3\n        /* \"#utility.yul\":1856:1865   */\n      dup8\n        /* \"#utility.yul\":1852:1874   */\n      add\n        /* \"#utility.yul\":1831:1884   */\n      tag_366\n      jump\t// in\n    tag_389:\n        /* \"#utility.yul\":1821:1884   */\n      swap3\n      pop\n        /* \"#utility.yul\":1776:1894   */\n      pop\n        /* \"#utility.yul\":1933:1935   */\n      0x40\n        /* \"#utility.yul\":1959:2012   */\n      tag_390\n        /* \"#utility.yul\":2004:2011   */\n      dup7\n        /* \"#utility.yul\":1995:2001   */\n      dup3\n        /* \"#utility.yul\":1984:1993   */\n      dup8\n        /* \"#utility.yul\":1980:2002   */\n      add\n        /* \"#utility.yul\":1959:2012   */\n      tag_376\n      jump\t// in\n    tag_390:\n        /* \"#utility.yul\":1949:2012   */\n      swap2\n      pop\n        /* \"#utility.yul\":1904:2022   */\n      pop\n        /* \"#utility.yul\":1410:2029   */\n      swap3\n      pop\n      swap3\n      pop\n      swap3\n      jump\t// out\n        /* \"#utility.yul\":2035:3014   */\n    tag_23:\n        /* \"#utility.yul\":2132:2138   */\n      0x00\n        /* \"#utility.yul\":2140:2146   */\n      dup1\n        /* \"#utility.yul\":2148:2154   */\n      0x00\n        /* \"#utility.yul\":2197:2199   */\n      0x60\n        /* \"#utility.yul\":2185:2194   */\n      dup5\n        /* \"#utility.yul\":2176:2183   */\n      dup7\n        /* \"#utility.yul\":2172:2195   */\n      sub\n        /* \"#utility.yul\":2168:2200   */\n      slt\n        /* \"#utility.yul\":2165:2284   */\n      iszero\n      tag_392\n      jumpi\n        /* \"#utility.yul\":2203:2282   */\n      tag_393\n      tag_383\n      jump\t// in\n    tag_393:\n        /* \"#utility.yul\":2165:2284   */\n    tag_392:\n        /* \"#utility.yul\":2323:2324   */\n      0x00\n        /* \"#utility.yul\":2348:2401   */\n      tag_394\n        /* \"#utility.yul\":2393:2400   */\n      dup7\n        /* \"#utility.yul\":2384:2390   */\n      dup3\n        /* \"#utility.yul\":2373:2382   */\n      dup8\n        /* \"#utility.yul\":2369:2391   */\n      add\n        /* \"#utility.yul\":2348:2401   */\n      tag_366\n      jump\t// in\n    tag_394:\n        /* \"#utility.yul\":2338:2401   */\n      swap4\n      pop\n        /* \"#utility.yul\":2294:2411   */\n      pop\n        /* \"#utility.yul\":2478:2480   */\n      0x20\n        /* \"#utility.yul\":2467:2476   */\n      dup5\n        /* \"#utility.yul\":2463:2481   */\n      add\n        /* \"#utility.yul\":2450:2482   */\n      calldataload\n        /* \"#utility.yul\":2509:2527   */\n      0xffffffffffffffff\n        /* \"#utility.yul\":2501:2507   */\n      dup2\n        /* \"#utility.yul\":2498:2528   */\n      gt\n        /* \"#utility.yul\":2495:2612   */\n      iszero\n      tag_395\n      jumpi\n        /* \"#utility.yul\":2531:2610   */\n      tag_396\n      tag_397\n      jump\t// in\n    tag_396:\n        /* \"#utility.yul\":2495:2612   */\n    tag_395:\n        /* \"#utility.yul\":2636:2699   */\n      tag_398\n        /* \"#utility.yul\":2691:2698   */\n      dup7\n        /* \"#utility.yul\":2682:2688   */\n      dup3\n        /* \"#utility.yul\":2671:2680   */\n      dup8\n        /* \"#utility.yul\":2667:2689   */\n      add\n        /* \"#utility.yul\":2636:2699   */\n      tag_370\n      jump\t// in\n    tag_398:\n        /* \"#utility.yul\":2626:2699   */\n      swap3\n      pop\n        /* \"#utility.yul\":2421:2709   */\n      pop\n        /* \"#utility.yul\":2776:2778   */\n      0x40\n        /* \"#utility.yul\":2765:2774   */\n      dup5\n        /* \"#utility.yul\":2761:2779   */\n      add\n        /* \"#utility.yul\":2748:2780   */\n      calldataload\n        /* \"#utility.yul\":2807:2825   */\n      0xffffffffffffffff\n        /* \"#utility.yul\":2799:2805   */\n      dup2\n        /* \"#utility.yul\":2796:2826   */\n      gt\n        /* \"#utility.yul\":2793:2910   */\n      iszero\n      tag_399\n      jumpi\n        /* \"#utility.yul\":2829:2908   */\n      tag_400\n      tag_397\n      jump\t// in\n    tag_400:\n        /* \"#utility.yul\":2793:2910   */\n    tag_399:\n        /* \"#utility.yul\":2934:2997   */\n      tag_401\n        /* \"#utility.yul\":2989:2996   */\n      dup7\n        /* \"#utility.yul\":2980:2986   */\n      dup3\n        /* \"#utility.yul\":2969:2978   */\n      dup8\n        /* \"#utility.yul\":2965:2987   */\n      add\n        /* \"#utility.yul\":2934:2997   */\n      tag_370\n      jump\t// in\n    tag_401:\n        /* \"#utility.yul\":2924:2997   */\n      swap2\n      pop\n        /* \"#utility.yul\":2719:3007   */\n      pop\n        /* \"#utility.yul\":2035:3014   */\n      swap3\n      pop\n      swap3\n      pop\n      swap3\n      jump\t// out\n        /* \"#utility.yul\":3020:3494   */\n    tag_29:\n        /* \"#utility.yul\":3088:3094   */\n      0x00\n        /* \"#utility.yul\":3096:3102   */\n      dup1\n        /* \"#utility.yul\":3145:3147   */\n      0x40\n        /* \"#utility.yul\":3133:3142   */\n      dup4\n        /* \"#utility.yul\":3124:3131   */\n      dup6\n        /* \"#utility.yul\":3120:3143   */\n      sub\n        /* \"#utility.yul\":3116:3148   */\n      slt\n        /* \"#utility.yul\":3113:3232   */\n      iszero\n      tag_403\n      jumpi\n        /* \"#utility.yul\":3151:3230   */\n      tag_404\n      tag_383\n      jump\t// in\n    tag_404:\n        /* \"#utility.yul\":3113:3232   */\n    tag_403:\n        /* \"#utility.yul\":3271:3272   */\n      0x00\n        /* \"#utility.yul\":3296:3349   */\n      tag_405\n        /* \"#utility.yul\":3341:3348   */\n      dup6\n        /* \"#utility.yul\":3332:3338   */\n      dup3\n        /* \"#utility.yul\":3321:3330   */\n      dup7\n        /* \"#utility.yul\":3317:3339   */\n      add\n        /* \"#utility.yul\":3296:3349   */\n      tag_366\n      jump\t// in\n    tag_405:\n        /* \"#utility.yul\":3286:3349   */\n      swap3\n      pop\n        /* \"#utility.yul\":3242:3359   */\n      pop\n        /* \"#utility.yul\":3398:3400   */\n      0x20\n        /* \"#utility.yul\":3424:3477   */\n      tag_406\n        /* \"#utility.yul\":3469:3476   */\n      dup6\n        /* \"#utility.yul\":3460:3466   */\n      dup3\n        /* \"#utility.yul\":3449:3458   */\n      dup7\n        /* \"#utility.yul\":3445:3467   */\n      add\n        /* \"#utility.yul\":3424:3477   */\n      tag_376\n      jump\t// in\n    tag_406:\n        /* \"#utility.yul\":3414:3477   */\n      swap2\n      pop\n        /* \"#utility.yul\":3369:3487   */\n      pop\n        /* \"#utility.yul\":3020:3494   */\n      swap3\n      pop\n      swap3\n      swap1\n      pop\n      jump\t// out\n        /* \"#utility.yul\":3500:4659   */\n    tag_45:\n        /* \"#utility.yul\":3607:3613   */\n      0x00\n        /* \"#utility.yul\":3615:3621   */\n      dup1\n        /* \"#utility.yul\":3623:3629   */\n      0x00\n        /* \"#utility.yul\":3672:3674   */\n      0x60\n        /* \"#utility.yul\":3660:3669   */\n      dup5\n        /* \"#utility.yul\":3651:3658   */\n      dup7\n        /* \"#utility.yul\":3647:3670   */\n      sub\n        /* \"#utility.yul\":3643:3675   */\n      slt\n        /* \"#utility.yul\":3640:3759   */\n      iszero\n      tag_408\n      jumpi\n        /* \"#utility.yul\":3678:3757   */\n      tag_409\n      tag_383\n      jump\t// in\n    tag_409:\n        /* \"#utility.yul\":3640:3759   */\n    tag_408:\n        /* \"#utility.yul\":3826:3827   */\n      0x00\n        /* \"#utility.yul\":3815:3824   */\n      dup5\n        /* \"#utility.yul\":3811:3828   */\n      add\n        /* \"#utility.yul\":3798:3829   */\n      calldataload\n        /* \"#utility.yul\":3856:3874   */\n      0xffffffffffffffff\n        /* \"#utility.yul\":3848:3854   */\n      dup2\n        /* \"#utility.yul\":3845:3875   */\n      gt\n        /* \"#utility.yul\":3842:3959   */\n      iszero\n      tag_410\n      jumpi\n        /* \"#utility.yul\":3878:3957   */\n      tag_411\n      tag_397\n      jump\t// in\n    tag_411:\n        /* \"#utility.yul\":3842:3959   */\n    tag_410:\n        /* \"#utility.yul\":3983:4046   */\n      tag_412\n        /* \"#utility.yul\":4038:4045   */\n      dup7\n        /* \"#utility.yul\":4029:4035   */\n      dup3\n        /* \"#utility.yul\":4018:4027   */\n      dup8\n        /* \"#utility.yul\":4014:4036   */\n      add\n        /* \"#utility.yul\":3983:4046   */\n      tag_370\n      jump\t// in\n    tag_412:\n        /* \"#utility.yul\":3973:4046   */\n      swap4\n      pop\n        /* \"#utility.yul\":3769:4056   */\n      pop\n        /* \"#utility.yul\":4123:4125   */\n      0x20\n        /* \"#utility.yul\":4112:4121   */\n      dup5\n        /* \"#utility.yul\":4108:4126   */\n      add\n        /* \"#utility.yul\":4095:4127   */\n      calldataload\n        /* \"#utility.yul\":4154:4172   */\n      0xffffffffffffffff\n        /* \"#utility.yul\":4146:4152   */\n      dup2\n        /* \"#utility.yul\":4143:4173   */\n      gt\n        /* \"#utility.yul\":4140:4257   */\n      iszero\n      tag_413\n      jumpi\n        /* \"#utility.yul\":4176:4255   */\n      tag_414\n      tag_397\n      jump\t// in\n    tag_414:\n        /* \"#utility.yul\":4140:4257   */\n    tag_413:\n        /* \"#utility.yul\":4281:4344   */\n      tag_415\n        /* \"#utility.yul\":4336:4343   */\n      dup7\n        /* \"#utility.yul\":4327:4333   */\n      dup3\n        /* \"#utility.yul\":4316:4325   */\n      dup8\n        /* \"#utility.yul\":4312:4334   */\n      add\n        /* \"#utility.yul\":4281:4344   */\n      tag_370\n      jump\t// in\n    tag_415:\n        /* \"#utility.yul\":4271:4344   */\n      swap3\n      pop\n        /* \"#utility.yul\":4066:4354   */\n      pop\n        /* \"#utility.yul\":4421:4423   */\n      0x40\n        /* \"#utility.yul\":4410:4419   */\n      dup5\n        /* \"#utility.yul\":4406:4424   */\n      add\n        /* \"#utility.yul\":4393:4425   */\n      calldataload\n        /* \"#utility.yul\":4452:4470   */\n      0xffffffffffffffff\n        /* \"#utility.yul\":4444:4450   */\n      dup2\n        /* \"#utility.yul\":4441:4471   */\n      gt\n        /* \"#utility.yul\":4438:4555   */\n      iszero\n      tag_416\n      jumpi\n        /* \"#utility.yul\":4474:4553   */\n      tag_417\n      tag_397\n      jump\t// in\n    tag_417:\n        /* \"#utility.yul\":4438:4555   */\n    tag_416:\n        /* \"#utility.yul\":4579:4642   */\n      tag_418\n        /* \"#utility.yul\":4634:4641   */\n      dup7\n        /* \"#utility.yul\":4625:4631   */\n      dup3\n        /* \"#utility.yul\":4614:4623   */\n      dup8\n        /* \"#utility.yul\":4610:4632   */\n      add\n        /* \"#utility.yul\":4579:4642   */\n      tag_370\n      jump\t// in\n    tag_418:\n        /* \"#utility.yul\":4569:4642   */\n      swap2\n      pop\n        /* \"#utility.yul\":4364:4652   */\n      pop\n        /* \"#utility.yul\":3500:4659   */\n      swap3\n      pop\n      swap3\n      pop\n      swap3\n      jump\t// out\n        /* \"#utility.yul\":4665:4994   */\n    tag_51:\n        /* \"#utility.yul\":4724:4730   */\n      0x00\n        /* \"#utility.yul\":4773:4775   */\n      0x20\n        /* \"#utility.yul\":4761:4770   */\n      dup3\n        /* \"#utility.yul\":4752:4759   */\n      dup5\n        /* \"#utility.yul\":4748:4771   */\n      sub\n        /* \"#utility.yul\":4744:4776   */\n      slt\n        /* \"#utility.yul\":4741:4860   */\n      iszero\n      tag_420\n      jumpi\n        /* \"#utility.yul\":4779:4858   */\n      tag_421\n      tag_383\n      jump\t// in\n    tag_421:\n        /* \"#utility.yul\":4741:4860   */\n    tag_420:\n        /* \"#utility.yul\":4899:4900   */\n      0x00\n        /* \"#utility.yul\":4924:4977   */\n      tag_422\n        /* \"#utility.yul\":4969:4976   */\n      dup5\n        /* \"#utility.yul\":4960:4966   */\n      dup3\n        /* \"#utility.yul\":4949:4958   */\n      dup6\n        /* \"#utility.yul\":4945:4967   */\n      add\n        /* \"#utility.yul\":4924:4977   */\n      tag_376\n      jump\t// in\n    tag_422:\n        /* \"#utility.yul\":4914:4977   */\n      swap2\n      pop\n        /* \"#utility.yul\":4870:4987   */\n      pop\n        /* \"#utility.yul\":4665:4994   */\n      swap3\n      swap2\n      pop\n      pop\n      jump\t// out\n        /* \"#utility.yul\":5000:5118   */\n    tag_423:\n        /* \"#utility.yul\":5087:5111   */\n      tag_425\n        /* \"#utility.yul\":5105:5110   */\n      dup2\n        /* \"#utility.yul\":5087:5111   */\n      tag_426\n      jump\t// in\n    tag_425:\n        /* \"#utility.yul\":5082:5085   */\n      dup3\n        /* \"#utility.yul\":5075:5112   */\n      mstore\n        /* \"#utility.yul\":5000:5118   */\n      pop\n      pop\n      jump\t// out\n        /* \"#utility.yul\":5124:5488   */\n    tag_427:\n        /* \"#utility.yul\":5212:5215   */\n      0x00\n        /* \"#utility.yul\":5240:5279   */\n      tag_429\n        /* \"#utility.yul\":5273:5278   */\n      dup3\n        /* \"#utility.yul\":5240:5279   */\n      tag_430\n      jump\t// in\n    tag_429:\n        /* \"#utility.yul\":5295:5366   */\n      tag_431\n        /* \"#utility.yul\":5359:5365   */\n      dup2\n        /* \"#utility.yul\":5354:5357   */\n      dup6\n        /* \"#utility.yul\":5295:5366   */\n      tag_432\n      jump\t// in\n    tag_431:\n        /* \"#utility.yul\":5288:5366   */\n      swap4\n      pop\n        /* \"#utility.yul\":5375:5427   */\n      tag_433\n        /* \"#utility.yul\":5420:5426   */\n      dup2\n        /* \"#utility.yul\":5415:5418   */\n      dup6\n        /* \"#utility.yul\":5408:5412   */\n      0x20\n        /* \"#utility.yul\":5401:5406   */\n      dup7\n        /* \"#utility.yul\":5397:5413   */\n      add\n        /* \"#utility.yul\":5375:5427   */\n      tag_434\n      jump\t// in\n    tag_433:\n        /* \"#utility.yul\":5452:5481   */\n      tag_435\n        /* \"#utility.yul\":5474:5480   */\n      dup2\n        /* \"#utility.yul\":5452:5481   */\n      tag_436\n      jump\t// in\n    tag_435:\n        /* \"#utility.yul\":5447:5450   */\n      dup5\n        /* \"#utility.yul\":5443:5482   */\n      add\n        /* \"#utility.yul\":5436:5482   */\n      swap2\n      pop\n        /* \"#utility.yul\":5216:5488   */\n      pop\n        /* \"#utility.yul\":5124:5488   */\n      swap3\n      swap2\n      pop\n      pop\n      jump\t// out\n        /* \"#utility.yul\":5518:6320   */\n    tag_437:\n        /* \"#utility.yul\":5603:5606   */\n      0x00\n        /* \"#utility.yul\":5640:5645   */\n      dup2\n        /* \"#utility.yul\":5634:5646   */\n      sload\n        /* \"#utility.yul\":5669:5705   */\n      tag_439\n        /* \"#utility.yul\":5695:5704   */\n      dup2\n        /* \"#utility.yul\":5669:5705   */\n      tag_281\n      jump\t// in\n    tag_439:\n        /* \"#utility.yul\":5721:5792   */\n      tag_440\n        /* \"#utility.yul\":5785:5791   */\n      dup2\n        /* \"#utility.yul\":5780:5783   */\n      dup7\n        /* \"#utility.yul\":5721:5792   */\n      tag_432\n      jump\t// in\n    tag_440:\n        /* \"#utility.yul\":5714:5792   */\n      swap5\n      pop\n        /* \"#utility.yul\":5823:5824   */\n      0x01\n        /* \"#utility.yul\":5812:5821   */\n      dup3\n        /* \"#utility.yul\":5808:5825   */\n      and\n        /* \"#utility.yul\":5839:5840   */\n      0x00\n        /* \"#utility.yul\":5834:5969   */\n      dup2\n      eq\n      tag_442\n      jumpi\n        /* \"#utility.yul\":5983:5984   */\n      0x01\n        /* \"#utility.yul\":5978:6314   */\n      dup2\n      eq\n      tag_443\n      jumpi\n        /* \"#utility.yul\":5801:6314   */\n      jump(tag_441)\n        /* \"#utility.yul\":5834:5969   */\n    tag_442:\n        /* \"#utility.yul\":5918:5922   */\n      0xff\n        /* \"#utility.yul\":5914:5923   */\n      not\n        /* \"#utility.yul\":5903:5912   */\n      dup4\n        /* \"#utility.yul\":5899:5924   */\n      and\n        /* \"#utility.yul\":5894:5897   */\n      dup7\n        /* \"#utility.yul\":5887:5925   */\n      mstore\n        /* \"#utility.yul\":5954:5958   */\n      0x20\n        /* \"#utility.yul\":5949:5952   */\n      dup7\n        /* \"#utility.yul\":5945:5959   */\n      add\n        /* \"#utility.yul\":5938:5959   */\n      swap4\n      pop\n        /* \"#utility.yul\":5834:5969   */\n      jump(tag_441)\n        /* \"#utility.yul\":5978:6314   */\n    tag_443:\n        /* \"#utility.yul\":6045:6083   */\n      tag_444\n        /* \"#utility.yul\":6077:6082   */\n      dup6\n        /* \"#utility.yul\":6045:6083   */\n      tag_445\n      jump\t// in\n    tag_444:\n        /* \"#utility.yul\":6105:6106   */\n      0x00\n        /* \"#utility.yul\":6119:6273   */\n    tag_446:\n        /* \"#utility.yul\":6133:6139   */\n      dup4\n        /* \"#utility.yul\":6130:6131   */\n      dup2\n        /* \"#utility.yul\":6127:6140   */\n      lt\n        /* \"#utility.yul\":6119:6273   */\n      iszero\n      tag_448\n      jumpi\n        /* \"#utility.yul\":6207:6214   */\n      dup2\n        /* \"#utility.yul\":6201:6215   */\n      sload\n        /* \"#utility.yul\":6197:6198   */\n      dup2\n        /* \"#utility.yul\":6192:6195   */\n      dup10\n        /* \"#utility.yul\":6188:6199   */\n      add\n        /* \"#utility.yul\":6181:6216   */\n      mstore\n        /* \"#utility.yul\":6257:6258   */\n      0x01\n        /* \"#utility.yul\":6248:6255   */\n      dup3\n        /* \"#utility.yul\":6244:6259   */\n      add\n        /* \"#utility.yul\":6233:6259   */\n      swap2\n      pop\n        /* \"#utility.yul\":6155:6159   */\n      0x20\n        /* \"#utility.yul\":6152:6153   */\n      dup2\n        /* \"#utility.yul\":6148:6160   */\n      add\n        /* \"#utility.yul\":6143:6160   */\n      swap1\n      pop\n        /* \"#utility.yul\":6119:6273   */\n      jump(tag_446)\n    tag_448:\n        /* \"#utility.yul\":6302:6303   */\n      dup1\n        /* \"#utility.yul\":6297:6300   */\n      dup9\n        /* \"#utility.yul\":6293:6304   */\n      add\n        /* \"#utility.yul\":6286:6304   */\n      swap6\n      pop\n        /* \"#utility.yul\":5985:6314   */\n      pop\n      pop\n        /* \"#utility.yul\":5801:6314   */\n    tag_441:\n      pop\n        /* \"#utility.yul\":5607:6320   */\n      pop\n      pop\n        /* \"#utility.yul\":5518:6320   */\n      swap3\n      swap2\n      pop\n      pop\n      jump\t// out\n        /* \"#utility.yul\":6326:6692   */\n    tag_449:\n        /* \"#utility.yul\":6468:6471   */\n      0x00\n        /* \"#utility.yul\":6489:6556   */\n      tag_451\n        /* \"#utility.yul\":6553:6555   */\n      0x28\n        /* \"#utility.yul\":6548:6551   */\n      dup4\n        /* \"#utility.yul\":6489:6556   */\n      tag_432\n      jump\t// in\n    tag_451:\n        /* \"#utility.yul\":6482:6556   */\n      swap2\n      pop\n        /* \"#utility.yul\":6565:6658   */\n      tag_452\n        /* \"#utility.yul\":6654:6657   */\n      dup3\n        /* \"#utility.yul\":6565:6658   */\n      tag_453\n      jump\t// in\n    tag_452:\n        /* \"#utility.yul\":6683:6685   */\n      0x40\n        /* \"#utility.yul\":6678:6681   */\n      dup3\n        /* \"#utility.yul\":6674:6686   */\n      add\n        /* \"#utility.yul\":6667:6686   */\n      swap1\n      pop\n        /* \"#utility.yul\":6326:6692   */\n      swap2\n      swap1\n      pop\n      jump\t// out\n        /* \"#utility.yul\":6698:7064   */\n    tag_454:\n        /* \"#utility.yul\":6840:6843   */\n      0x00\n        /* \"#utility.yul\":6861:6928   */\n      tag_456\n        /* \"#utility.yul\":6925:6927   */\n      0x26\n        /* \"#utility.yul\":6920:6923   */\n      dup4\n        /* \"#utility.yul\":6861:6928   */\n      tag_432\n      jump\t// in\n    tag_456:\n        /* \"#utility.yul\":6854:6928   */\n      swap2\n      pop\n        /* \"#utility.yul\":6937:7030   */\n      tag_457\n        /* \"#utility.yul\":7026:7029   */\n      dup3\n        /* \"#utility.yul\":6937:7030   */\n      tag_458\n      jump\t// in\n    tag_457:\n        /* \"#utility.yul\":7055:7057   */\n      0x40\n        /* \"#utility.yul\":7050:7053   */\n      dup3\n        /* \"#utility.yul\":7046:7058   */\n      add\n        /* \"#utility.yul\":7039:7058   */\n      swap1\n      pop\n        /* \"#utility.yul\":6698:7064   */\n      swap2\n      swap1\n      pop\n      jump\t// out\n        /* \"#utility.yul\":7070:7436   */\n    tag_459:\n        /* \"#utility.yul\":7212:7215   */\n      0x00\n        /* \"#utility.yul\":7233:7300   */\n      tag_461\n        /* \"#utility.yul\":7297:7299   */\n      0x32\n        /* \"#utility.yul\":7292:7295   */\n      dup4\n        /* \"#utility.yul\":7233:7300   */\n      tag_432\n      jump\t// in\n    tag_461:\n        /* \"#utility.yul\":7226:7300   */\n      swap2\n      pop\n        /* \"#utility.yul\":7309:7402   */\n      tag_462\n        /* \"#utility.yul\":7398:7401   */\n      dup3\n        /* \"#utility.yul\":7309:7402   */\n      tag_463\n      jump\t// in\n    tag_462:\n        /* \"#utility.yul\":7427:7429   */\n      0x40\n        /* \"#utility.yul\":7422:7425   */\n      dup3\n        /* \"#utility.yul\":7418:7430   */\n      add\n        /* \"#utility.yul\":7411:7430   */\n      swap1\n      pop\n        /* \"#utility.yul\":7070:7436   */\n      swap2\n      swap1\n      pop\n      jump\t// out\n        /* \"#utility.yul\":7442:7808   */\n    tag_464:\n        /* \"#utility.yul\":7584:7587   */\n      0x00\n        /* \"#utility.yul\":7605:7672   */\n      tag_466\n        /* \"#utility.yul\":7669:7671   */\n      0x20\n        /* \"#utility.yul\":7664:7667   */\n      dup4\n        /* \"#utility.yul\":7605:7672   */\n      tag_432\n      jump\t// in\n    tag_466:\n        /* \"#utility.yul\":7598:7672   */\n      swap2\n      pop\n        /* \"#utility.yul\":7681:7774   */\n      tag_467\n        /* \"#utility.yul\":7770:7773   */\n      dup3\n        /* \"#utility.yul\":7681:7774   */\n      tag_468\n      jump\t// in\n    tag_467:\n        /* \"#utility.yul\":7799:7801   */\n      0x20\n        /* \"#utility.yul\":7794:7797   */\n      dup3\n        /* \"#utility.yul\":7790:7802   */\n      add\n        /* \"#utility.yul\":7783:7802   */\n      swap1\n      pop\n        /* \"#utility.yul\":7442:7808   */\n      swap2\n      swap1\n      pop\n      jump\t// out\n        /* \"#utility.yul\":7814:8180   */\n    tag_469:\n        /* \"#utility.yul\":7956:7959   */\n      0x00\n        /* \"#utility.yul\":7977:8044   */\n      tag_471\n        /* \"#utility.yul\":8041:8043   */\n      0x15\n        /* \"#utility.yul\":8036:8039   */\n      dup4\n        /* \"#utility.yul\":7977:8044   */\n      tag_432\n      jump\t// in\n    tag_471:\n        /* \"#utility.yul\":7970:8044   */\n      swap2\n      pop\n        /* \"#utility.yul\":8053:8146   */\n      tag_472\n        /* \"#utility.yul\":8142:8145   */\n      dup3\n        /* \"#utility.yul\":8053:8146   */\n      tag_473\n      jump\t// in\n    tag_472:\n        /* \"#utility.yul\":8171:8173   */\n      0x20\n        /* \"#utility.yul\":8166:8169   */\n      dup3\n        /* \"#utility.yul\":8162:8174   */\n      add\n        /* \"#utility.yul\":8155:8174   */\n      swap1\n      pop\n        /* \"#utility.yul\":7814:8180   */\n      swap2\n      swap1\n      pop\n      jump\t// out\n        /* \"#utility.yul\":8186:8304   */\n    tag_474:\n        /* \"#utility.yul\":8273:8297   */\n      tag_476\n        /* \"#utility.yul\":8291:8296   */\n      dup2\n        /* \"#utility.yul\":8273:8297   */\n      tag_477\n      jump\t// in\n    tag_476:\n        /* \"#utility.yul\":8268:8271   */\n      dup3\n        /* \"#utility.yul\":8261:8298   */\n      mstore\n        /* \"#utility.yul\":8186:8304   */\n      pop\n      pop\n      jump\t// out\n        /* \"#utility.yul\":8310:8467   */\n    tag_478:\n        /* \"#utility.yul\":8415:8460   */\n      tag_480\n        /* \"#utility.yul\":8435:8459   */\n      tag_481\n        /* \"#utility.yul\":8453:8458   */\n      dup3\n        /* \"#utility.yul\":8435:8459   */\n      tag_477\n      jump\t// in\n    tag_481:\n        /* \"#utility.yul\":8415:8460   */\n      tag_482\n      jump\t// in\n    tag_480:\n        /* \"#utility.yul\":8410:8413   */\n      dup3\n        /* \"#utility.yul\":8403:8461   */\n      mstore\n        /* \"#utility.yul\":8310:8467   */\n      pop\n      pop\n      jump\t// out\n        /* \"#utility.yul\":8473:8588   */\n    tag_483:\n        /* \"#utility.yul\":8558:8581   */\n      tag_485\n        /* \"#utility.yul\":8575:8580   */\n      dup2\n        /* \"#utility.yul\":8558:8581   */\n      tag_486\n      jump\t// in\n    tag_485:\n        /* \"#utility.yul\":8553:8556   */\n      dup3\n        /* \"#utility.yul\":8546:8582   */\n      mstore\n        /* \"#utility.yul\":8473:8588   */\n      pop\n      pop\n      jump\t// out\n        /* \"#utility.yul\":8594:9132   */\n    tag_167:\n        /* \"#utility.yul\":8762:8765   */\n      0x00\n        /* \"#utility.yul\":8777:8852   */\n      tag_488\n        /* \"#utility.yul\":8848:8851   */\n      dup3\n        /* \"#utility.yul\":8839:8845   */\n      dup7\n        /* \"#utility.yul\":8777:8852   */\n      tag_478\n      jump\t// in\n    tag_488:\n        /* \"#utility.yul\":8877:8879   */\n      0x20\n        /* \"#utility.yul\":8872:8875   */\n      dup3\n        /* \"#utility.yul\":8868:8880   */\n      add\n        /* \"#utility.yul\":8861:8880   */\n      swap2\n      pop\n        /* \"#utility.yul\":8890:8965   */\n      tag_489\n        /* \"#utility.yul\":8961:8964   */\n      dup3\n        /* \"#utility.yul\":8952:8958   */\n      dup6\n        /* \"#utility.yul\":8890:8965   */\n      tag_478\n      jump\t// in\n    tag_489:\n        /* \"#utility.yul\":8990:8992   */\n      0x20\n        /* \"#utility.yul\":8985:8988   */\n      dup3\n        /* \"#utility.yul\":8981:8993   */\n      add\n        /* \"#utility.yul\":8974:8993   */\n      swap2\n      pop\n        /* \"#utility.yul\":9003:9078   */\n      tag_490\n        /* \"#utility.yul\":9074:9077   */\n      dup3\n        /* \"#utility.yul\":9065:9071   */\n      dup5\n        /* \"#utility.yul\":9003:9078   */\n      tag_478\n      jump\t// in\n    tag_490:\n        /* \"#utility.yul\":9103:9105   */\n      0x20\n        /* \"#utility.yul\":9098:9101   */\n      dup3\n        /* \"#utility.yul\":9094:9106   */\n      add\n        /* \"#utility.yul\":9087:9106   */\n      swap2\n      pop\n        /* \"#utility.yul\":9123:9126   */\n      dup2\n        /* \"#utility.yul\":9116:9126   */\n      swap1\n      pop\n        /* \"#utility.yul\":8594:9132   */\n      swap5\n      swap4\n      pop\n      pop\n      pop\n      pop\n      jump\t// out\n        /* \"#utility.yul\":9138:9360   */\n    tag_54:\n        /* \"#utility.yul\":9231:9235   */\n      0x00\n        /* \"#utility.yul\":9269:9271   */\n      0x20\n        /* \"#utility.yul\":9258:9267   */\n      dup3\n        /* \"#utility.yul\":9254:9272   */\n      add\n        /* \"#utility.yul\":9246:9272   */\n      swap1\n      pop\n        /* \"#utility.yul\":9282:9353   */\n      tag_492\n        /* \"#utility.yul\":9350:9351   */\n      0x00\n        /* \"#utility.yul\":9339:9348   */\n      dup4\n        /* \"#utility.yul\":9335:9352   */\n      add\n        /* \"#utility.yul\":9326:9332   */\n      dup5\n        /* \"#utility.yul\":9282:9353   */\n      tag_423\n      jump\t// in\n    tag_492:\n        /* \"#utility.yul\":9138:9360   */\n      swap3\n      swap2\n      pop\n      pop\n      jump\t// out\n        /* \"#utility.yul\":9366:10632   */\n    tag_89:\n        /* \"#utility.yul\":9713:9717   */\n      0x00\n        /* \"#utility.yul\":9751:9754   */\n      0x0100\n        /* \"#utility.yul\":9740:9749   */\n      dup3\n        /* \"#utility.yul\":9736:9755   */\n      add\n        /* \"#utility.yul\":9728:9755   */\n      swap1\n      pop\n        /* \"#utility.yul\":9765:9836   */\n      tag_494\n        /* \"#utility.yul\":9833:9834   */\n      0x00\n        /* \"#utility.yul\":9822:9831   */\n      dup4\n        /* \"#utility.yul\":9818:9835   */\n      add\n        /* \"#utility.yul\":9809:9815   */\n      dup12\n        /* \"#utility.yul\":9765:9836   */\n      tag_423\n      jump\t// in\n    tag_494:\n        /* \"#utility.yul\":9883:9892   */\n      dup2\n        /* \"#utility.yul\":9877:9881   */\n      dup2\n        /* \"#utility.yul\":9873:9893   */\n      sub\n        /* \"#utility.yul\":9868:9870   */\n      0x20\n        /* \"#utility.yul\":9857:9866   */\n      dup4\n        /* \"#utility.yul\":9853:9871   */\n      add\n        /* \"#utility.yul\":9846:9894   */\n      mstore\n        /* \"#utility.yul\":9911:9989   */\n      tag_495\n        /* \"#utility.yul\":9984:9988   */\n      dup2\n        /* \"#utility.yul\":9975:9981   */\n      dup11\n        /* \"#utility.yul\":9911:9989   */\n      tag_427\n      jump\t// in\n    tag_495:\n        /* \"#utility.yul\":9903:9989   */\n      swap1\n      pop\n        /* \"#utility.yul\":10036:10045   */\n      dup2\n        /* \"#utility.yul\":10030:10034   */\n      dup2\n        /* \"#utility.yul\":10026:10046   */\n      sub\n        /* \"#utility.yul\":10021:10023   */\n      0x40\n        /* \"#utility.yul\":10010:10019   */\n      dup4\n        /* \"#utility.yul\":10006:10024   */\n      add\n        /* \"#utility.yul\":9999:10047   */\n      mstore\n        /* \"#utility.yul\":10064:10142   */\n      tag_496\n        /* \"#utility.yul\":10137:10141   */\n      dup2\n        /* \"#utility.yul\":10128:10134   */\n      dup10\n        /* \"#utility.yul\":10064:10142   */\n      tag_427\n      jump\t// in\n    tag_496:\n        /* \"#utility.yul\":10056:10142   */\n      swap1\n      pop\n        /* \"#utility.yul\":10189:10198   */\n      dup2\n        /* \"#utility.yul\":10183:10187   */\n      dup2\n        /* \"#utility.yul\":10179:10199   */\n      sub\n        /* \"#utility.yul\":10174:10176   */\n      0x60\n        /* \"#utility.yul\":10163:10172   */\n      dup4\n        /* \"#utility.yul\":10159:10177   */\n      add\n        /* \"#utility.yul\":10152:10200   */\n      mstore\n        /* \"#utility.yul\":10217:10295   */\n      tag_497\n        /* \"#utility.yul\":10290:10294   */\n      dup2\n        /* \"#utility.yul\":10281:10287   */\n      dup9\n        /* \"#utility.yul\":10217:10295   */\n      tag_427\n      jump\t// in\n    tag_497:\n        /* \"#utility.yul\":10209:10295   */\n      swap1\n      pop\n        /* \"#utility.yul\":10305:10378   */\n      tag_498\n        /* \"#utility.yul\":10373:10376   */\n      0x80\n        /* \"#utility.yul\":10362:10371   */\n      dup4\n        /* \"#utility.yul\":10358:10377   */\n      add\n        /* \"#utility.yul\":10349:10355   */\n      dup8\n        /* \"#utility.yul\":10305:10378   */\n      tag_474\n      jump\t// in\n    tag_498:\n        /* \"#utility.yul\":10388:10461   */\n      tag_499\n        /* \"#utility.yul\":10456:10459   */\n      0xa0\n        /* \"#utility.yul\":10445:10454   */\n      dup4\n        /* \"#utility.yul\":10441:10460   */\n      add\n        /* \"#utility.yul\":10432:10438   */\n      dup7\n        /* \"#utility.yul\":10388:10461   */\n      tag_474\n      jump\t// in\n    tag_499:\n        /* \"#utility.yul\":10471:10544   */\n      tag_500\n        /* \"#utility.yul\":10539:10542   */\n      0xc0\n        /* \"#utility.yul\":10528:10537   */\n      dup4\n        /* \"#utility.yul\":10524:10543   */\n      add\n        /* \"#utility.yul\":10515:10521   */\n      dup6\n        /* \"#utility.yul\":10471:10544   */\n      tag_474\n      jump\t// in\n    tag_500:\n        /* \"#utility.yul\":10554:10625   */\n      tag_501\n        /* \"#utility.yul\":10620:10623   */\n      0xe0\n        /* \"#utility.yul\":10609:10618   */\n      dup4\n        /* \"#utility.yul\":10605:10624   */\n      add\n        /* \"#utility.yul\":10596:10602   */\n      dup5\n        /* \"#utility.yul\":10554:10625   */\n      tag_483\n      jump\t// in\n    tag_501:\n        /* \"#utility.yul\":9366:10632   */\n      swap10\n      swap9\n      pop\n      pop\n      pop\n      pop\n      pop\n      pop\n      pop\n      pop\n      pop\n      jump\t// out\n        /* \"#utility.yul\":10638:10951   */\n    tag_26:\n        /* \"#utility.yul\":10751:10755   */\n      0x00\n        /* \"#utility.yul\":10789:10791   */\n      0x20\n        /* \"#utility.yul\":10778:10787   */\n      dup3\n        /* \"#utility.yul\":10774:10792   */\n      add\n        /* \"#utility.yul\":10766:10792   */\n      swap1\n      pop\n        /* \"#utility.yul\":10838:10847   */\n      dup2\n        /* \"#utility.yul\":10832:10836   */\n      dup2\n        /* \"#utility.yul\":10828:10848   */\n      sub\n        /* \"#utility.yul\":10824:10825   */\n      0x00\n        /* \"#utility.yul\":10813:10822   */\n      dup4\n        /* \"#utility.yul\":10809:10826   */\n      add\n        /* \"#utility.yul\":10802:10849   */\n      mstore\n        /* \"#utility.yul\":10866:10944   */\n      tag_503\n        /* \"#utility.yul\":10939:10943   */\n      dup2\n        /* \"#utility.yul\":10930:10936   */\n      dup5\n        /* \"#utility.yul\":10866:10944   */\n      tag_427\n      jump\t// in\n    tag_503:\n        /* \"#utility.yul\":10858:10944   */\n      swap1\n      pop\n        /* \"#utility.yul\":10638:10951   */\n      swap3\n      swap2\n      pop\n      pop\n      jump\t// out\n        /* \"#utility.yul\":10957:11787   */\n    tag_320:\n        /* \"#utility.yul\":11194:11198   */\n      0x00\n        /* \"#utility.yul\":11232:11235   */\n      0xa0\n        /* \"#utility.yul\":11221:11230   */\n      dup3\n        /* \"#utility.yul\":11217:11236   */\n      add\n        /* \"#utility.yul\":11209:11236   */\n      swap1\n      pop\n        /* \"#utility.yul\":11282:11291   */\n      dup2\n        /* \"#utility.yul\":11276:11280   */\n      dup2\n        /* \"#utility.yul\":11272:11292   */\n      sub\n        /* \"#utility.yul\":11268:11269   */\n      0x00\n        /* \"#utility.yul\":11257:11266   */\n      dup4\n        /* \"#utility.yul\":11253:11270   */\n      add\n        /* \"#utility.yul\":11246:11293   */\n      mstore\n        /* \"#utility.yul\":11310:11385   */\n      tag_505\n        /* \"#utility.yul\":11380:11384   */\n      dup2\n        /* \"#utility.yul\":11371:11377   */\n      dup9\n        /* \"#utility.yul\":11310:11385   */\n      tag_437\n      jump\t// in\n    tag_505:\n        /* \"#utility.yul\":11302:11385   */\n      swap1\n      pop\n        /* \"#utility.yul\":11432:11441   */\n      dup2\n        /* \"#utility.yul\":11426:11430   */\n      dup2\n        /* \"#utility.yul\":11422:11442   */\n      sub\n        /* \"#utility.yul\":11417:11419   */\n      0x20\n        /* \"#utility.yul\":11406:11415   */\n      dup4\n        /* \"#utility.yul\":11402:11420   */\n      add\n        /* \"#utility.yul\":11395:11443   */\n      mstore\n        /* \"#utility.yul\":11460:11535   */\n      tag_506\n        /* \"#utility.yul\":11530:11534   */\n      dup2\n        /* \"#utility.yul\":11521:11527   */\n      dup8\n        /* \"#utility.yul\":11460:11535   */\n      tag_437\n      jump\t// in\n    tag_506:\n        /* \"#utility.yul\":11452:11535   */\n      swap1\n      pop\n        /* \"#utility.yul\":11545:11615   */\n      tag_507\n        /* \"#utility.yul\":11611:11613   */\n      0x40\n        /* \"#utility.yul\":11600:11609   */\n      dup4\n        /* \"#utility.yul\":11596:11614   */\n      add\n        /* \"#utility.yul\":11587:11593   */\n      dup7\n        /* \"#utility.yul\":11545:11615   */\n      tag_483\n      jump\t// in\n    tag_507:\n        /* \"#utility.yul\":11625:11697   */\n      tag_508\n        /* \"#utility.yul\":11693:11695   */\n      0x60\n        /* \"#utility.yul\":11682:11691   */\n      dup4\n        /* \"#utility.yul\":11678:11696   */\n      add\n        /* \"#utility.yul\":11669:11675   */\n      dup6\n        /* \"#utility.yul\":11625:11697   */\n      tag_474\n      jump\t// in\n    tag_508:\n        /* \"#utility.yul\":11707:11780   */\n      tag_509\n        /* \"#utility.yul\":11775:11778   */\n      0x80\n        /* \"#utility.yul\":11764:11773   */\n      dup4\n        /* \"#utility.yul\":11760:11779   */\n      add\n        /* \"#utility.yul\":11751:11757   */\n      dup5\n        /* \"#utility.yul\":11707:11780   */\n      tag_474\n      jump\t// in\n    tag_509:\n        /* \"#utility.yul\":10957:11787   */\n      swap7\n      swap6\n      pop\n      pop\n      pop\n      pop\n      pop\n      pop\n      jump\t// out\n        /* \"#utility.yul\":11793:12212   */\n    tag_131:\n        /* \"#utility.yul\":11959:11963   */\n      0x00\n        /* \"#utility.yul\":11997:11999   */\n      0x20\n        /* \"#utility.yul\":11986:11995   */\n      dup3\n        /* \"#utility.yul\":11982:12000   */\n      add\n        /* \"#utility.yul\":11974:12000   */\n      swap1\n      pop\n        /* \"#utility.yul\":12046:12055   */\n      dup2\n        /* \"#utility.yul\":12040:12044   */\n      dup2\n        /* \"#utility.yul\":12036:12056   */\n      sub\n        /* \"#utility.yul\":12032:12033   */\n      0x00\n        /* \"#utility.yul\":12021:12030   */\n      dup4\n        /* \"#utility.yul\":12017:12034   */\n      add\n        /* \"#utility.yul\":12010:12057   */\n      mstore\n        /* \"#utility.yul\":12074:12205   */\n      tag_511\n        /* \"#utility.yul\":12200:12204   */\n      dup2\n        /* \"#utility.yul\":12074:12205   */\n      tag_449\n      jump\t// in\n    tag_511:\n        /* \"#utility.yul\":12066:12205   */\n      swap1\n      pop\n        /* \"#utility.yul\":11793:12212   */\n      swap2\n      swap1\n      pop\n      jump\t// out\n        /* \"#utility.yul\":12218:12637   */\n    tag_330:\n        /* \"#utility.yul\":12384:12388   */\n      0x00\n        /* \"#utility.yul\":12422:12424   */\n      0x20\n        /* \"#utility.yul\":12411:12420   */\n      dup3\n        /* \"#utility.yul\":12407:12425   */\n      add\n        /* \"#utility.yul\":12399:12425   */\n      swap1\n      pop\n        /* \"#utility.yul\":12471:12480   */\n      dup2\n        /* \"#utility.yul\":12465:12469   */\n      dup2\n        /* \"#utility.yul\":12461:12481   */\n      sub\n        /* \"#utility.yul\":12457:12458   */\n      0x00\n        /* \"#utility.yul\":12446:12455   */\n      dup4\n        /* \"#utility.yul\":12442:12459   */\n      add\n        /* \"#utility.yul\":12435:12482   */\n      mstore\n        /* \"#utility.yul\":12499:12630   */\n      tag_513\n        /* \"#utility.yul\":12625:12629   */\n      dup2\n        /* \"#utility.yul\":12499:12630   */\n      tag_454\n      jump\t// in\n    tag_513:\n        /* \"#utility.yul\":12491:12630   */\n      swap1\n      pop\n        /* \"#utility.yul\":12218:12637   */\n      swap2\n      swap1\n      pop\n      jump\t// out\n        /* \"#utility.yul\":12643:13062   */\n    tag_162:\n        /* \"#utility.yul\":12809:12813   */\n      0x00\n        /* \"#utility.yul\":12847:12849   */\n      0x20\n        /* \"#utility.yul\":12836:12845   */\n      dup3\n        /* \"#utility.yul\":12832:12850   */\n      add\n        /* \"#utility.yul\":12824:12850   */\n      swap1\n      pop\n        /* \"#utility.yul\":12896:12905   */\n      dup2\n        /* \"#utility.yul\":12890:12894   */\n      dup2\n        /* \"#utility.yul\":12886:12906   */\n      sub\n        /* \"#utility.yul\":12882:12883   */\n      0x00\n        /* \"#utility.yul\":12871:12880   */\n      dup4\n        /* \"#utility.yul\":12867:12884   */\n      add\n        /* \"#utility.yul\":12860:12907   */\n      mstore\n        /* \"#utility.yul\":12924:13055   */\n      tag_515\n        /* \"#utility.yul\":13050:13054   */\n      dup2\n        /* \"#utility.yul\":12924:13055   */\n      tag_459\n      jump\t// in\n    tag_515:\n        /* \"#utility.yul\":12916:13055   */\n      swap1\n      pop\n        /* \"#utility.yul\":12643:13062   */\n      swap2\n      swap1\n      pop\n      jump\t// out\n        /* \"#utility.yul\":13068:13487   */\n    tag_273:\n        /* \"#utility.yul\":13234:13238   */\n      0x00\n        /* \"#utility.yul\":13272:13274   */\n      0x20\n        /* \"#utility.yul\":13261:13270   */\n      dup3\n        /* \"#utility.yul\":13257:13275   */\n      add\n        /* \"#utility.yul\":13249:13275   */\n      swap1\n      pop\n        /* \"#utility.yul\":13321:13330   */\n      dup2\n        /* \"#utility.yul\":13315:13319   */\n      dup2\n        /* \"#utility.yul\":13311:13331   */\n      sub\n        /* \"#utility.yul\":13307:13308   */\n      0x00\n        /* \"#utility.yul\":13296:13305   */\n      dup4\n        /* \"#utility.yul\":13292:13309   */\n      add\n        /* \"#utility.yul\":13285:13332   */\n      mstore\n        /* \"#utility.yul\":13349:13480   */\n      tag_517\n        /* \"#utility.yul\":13475:13479   */\n      dup2\n        /* \"#utility.yul\":13349:13480   */\n      tag_464\n      jump\t// in\n    tag_517:\n        /* \"#utility.yul\":13341:13480   */\n      swap1\n      pop\n        /* \"#utility.yul\":13068:13487   */\n      swap2\n      swap1\n      pop\n      jump\t// out\n        /* \"#utility.yul\":13493:13912   */\n    tag_219:\n        /* \"#utility.yul\":13659:13663   */\n      0x00\n        /* \"#utility.yul\":13697:13699   */\n      0x20\n        /* \"#utility.yul\":13686:13695   */\n      dup3\n        /* \"#utility.yul\":13682:13700   */\n      add\n        /* \"#utility.yul\":13674:13700   */\n      swap1\n      pop\n        /* \"#utility.yul\":13746:13755   */\n      dup2\n        /* \"#utility.yul\":13740:13744   */\n      dup2\n        /* \"#utility.yul\":13736:13756   */\n      sub\n        /* \"#utility.yul\":13732:13733   */\n      0x00\n        /* \"#utility.yul\":13721:13730   */\n      dup4\n        /* \"#utility.yul\":13717:13734   */\n      add\n        /* \"#utility.yul\":13710:13757   */\n      mstore\n        /* \"#utility.yul\":13774:13905   */\n      tag_519\n        /* \"#utility.yul\":13900:13904   */\n      dup2\n        /* \"#utility.yul\":13774:13905   */\n      tag_469\n      jump\t// in\n    tag_519:\n        /* \"#utility.yul\":13766:13905   */\n      swap1\n      pop\n        /* \"#utility.yul\":13493:13912   */\n      swap2\n      swap1\n      pop\n      jump\t// out\n        /* \"#utility.yul\":13918:14140   */\n    tag_37:\n        /* \"#utility.yul\":14011:14015   */\n      0x00\n        /* \"#utility.yul\":14049:14051   */\n      0x20\n        /* \"#utility.yul\":14038:14047   */\n      dup3\n        /* \"#utility.yul\":14034:14052   */\n      add\n        /* \"#utility.yul\":14026:14052   */\n      swap1\n      pop\n        /* \"#utility.yul\":14062:14133   */\n      tag_521\n        /* \"#utility.yul\":14130:14131   */\n      0x00\n        /* \"#utility.yul\":14119:14128   */\n      dup4\n        /* \"#utility.yul\":14115:14132   */\n      add\n        /* \"#utility.yul\":14106:14112   */\n      dup5\n        /* \"#utility.yul\":14062:14133   */\n      tag_474\n      jump\t// in\n    tag_521:\n        /* \"#utility.yul\":13918:14140   */\n      swap3\n      swap2\n      pop\n      pop\n      jump\t// out\n        /* \"#utility.yul\":14146:14275   */\n    tag_360:\n        /* \"#utility.yul\":14180:14186   */\n      0x00\n        /* \"#utility.yul\":14207:14227   */\n      tag_523\n      tag_524\n      jump\t// in\n    tag_523:\n        /* \"#utility.yul\":14197:14227   */\n      swap1\n      pop\n        /* \"#utility.yul\":14236:14269   */\n      tag_525\n        /* \"#utility.yul\":14264:14268   */\n      dup3\n        /* \"#utility.yul\":14256:14262   */\n      dup3\n        /* \"#utility.yul\":14236:14269   */\n      tag_526\n      jump\t// in\n    tag_525:\n        /* \"#utility.yul\":14146:14275   */\n      swap2\n      swap1\n      pop\n      jump\t// out\n        /* \"#utility.yul\":14281:14356   */\n    tag_524:\n        /* \"#utility.yul\":14314:14320   */\n      0x00\n        /* \"#utility.yul\":14347:14349   */\n      0x40\n        /* \"#utility.yul\":14341:14350   */\n      mload\n        /* \"#utility.yul\":14331:14350   */\n      swap1\n      pop\n        /* \"#utility.yul\":14281:14356   */\n      swap1\n      jump\t// out\n        /* \"#utility.yul\":14362:14670   */\n    tag_359:\n        /* \"#utility.yul\":14424:14428   */\n      0x00\n        /* \"#utility.yul\":14514:14532   */\n      0xffffffffffffffff\n        /* \"#utility.yul\":14506:14512   */\n      dup3\n        /* \"#utility.yul\":14503:14533   */\n      gt\n        /* \"#utility.yul\":14500:14556   */\n      iszero\n      tag_529\n      jumpi\n        /* \"#utility.yul\":14536:14554   */\n      tag_530\n      tag_531\n      jump\t// in\n    tag_530:\n        /* \"#utility.yul\":14500:14556   */\n    tag_529:\n        /* \"#utility.yul\":14574:14603   */\n      tag_532\n        /* \"#utility.yul\":14596:14602   */\n      dup3\n        /* \"#utility.yul\":14574:14603   */\n      tag_436\n      jump\t// in\n    tag_532:\n        /* \"#utility.yul\":14566:14603   */\n      swap1\n      pop\n        /* \"#utility.yul\":14658:14662   */\n      0x20\n        /* \"#utility.yul\":14652:14656   */\n      dup2\n        /* \"#utility.yul\":14648:14663   */\n      add\n        /* \"#utility.yul\":14640:14663   */\n      swap1\n      pop\n        /* \"#utility.yul\":14362:14670   */\n      swap2\n      swap1\n      pop\n      jump\t// out\n        /* \"#utility.yul\":14676:14817   */\n    tag_445:\n        /* \"#utility.yul\":14725:14729   */\n      0x00\n        /* \"#utility.yul\":14748:14751   */\n      dup2\n        /* \"#utility.yul\":14740:14751   */\n      swap1\n      pop\n        /* \"#utility.yul\":14771:14774   */\n      dup2\n        /* \"#utility.yul\":14768:14769   */\n      0x00\n        /* \"#utility.yul\":14761:14775   */\n      mstore\n        /* \"#utility.yul\":14805:14809   */\n      0x20\n        /* \"#utility.yul\":14802:14803   */\n      0x00\n        /* \"#utility.yul\":14792:14810   */\n      keccak256\n        /* \"#utility.yul\":14784:14810   */\n      swap1\n      pop\n        /* \"#utility.yul\":14676:14817   */\n      swap2\n      swap1\n      pop\n      jump\t// out\n        /* \"#utility.yul\":14823:14922   */\n    tag_430:\n        /* \"#utility.yul\":14875:14881   */\n      0x00\n        /* \"#utility.yul\":14909:14914   */\n      dup2\n        /* \"#utility.yul\":14903:14915   */\n      mload\n        /* \"#utility.yul\":14893:14915   */\n      swap1\n      pop\n        /* \"#utility.yul\":14823:14922   */\n      swap2\n      swap1\n      pop\n      jump\t// out\n        /* \"#utility.yul\":14928:15097   */\n    tag_432:\n        /* \"#utility.yul\":15012:15023   */\n      0x00\n        /* \"#utility.yul\":15046:15052   */\n      dup3\n        /* \"#utility.yul\":15041:15044   */\n      dup3\n        /* \"#utility.yul\":15034:15053   */\n      mstore\n        /* \"#utility.yul\":15086:15090   */\n      0x20\n        /* \"#utility.yul\":15081:15084   */\n      dup3\n        /* \"#utility.yul\":15077:15091   */\n      add\n        /* \"#utility.yul\":15062:15091   */\n      swap1\n      pop\n        /* \"#utility.yul\":14928:15097   */\n      swap3\n      swap2\n      pop\n      pop\n      jump\t// out\n        /* \"#utility.yul\":15103:15408   */\n    tag_134:\n        /* \"#utility.yul\":15143:15146   */\n      0x00\n        /* \"#utility.yul\":15162:15182   */\n      tag_537\n        /* \"#utility.yul\":15180:15181   */\n      dup3\n        /* \"#utility.yul\":15162:15182   */\n      tag_477\n      jump\t// in\n    tag_537:\n        /* \"#utility.yul\":15157:15182   */\n      swap2\n      pop\n        /* \"#utility.yul\":15196:15216   */\n      tag_538\n        /* \"#utility.yul\":15214:15215   */\n      dup4\n        /* \"#utility.yul\":15196:15216   */\n      tag_477\n      jump\t// in\n    tag_538:\n        /* \"#utility.yul\":15191:15216   */\n      swap3\n      pop\n        /* \"#utility.yul\":15350:15351   */\n      dup3\n        /* \"#utility.yul\":15282:15348   */\n      0xffffffffffffffffffffffffffffffffffffffffffffffffffffffffffffffff\n        /* \"#utility.yul\":15278:15352   */\n      sub\n        /* \"#utility.yul\":15275:15276   */\n      dup3\n        /* \"#utility.yul\":15272:15353   */\n      gt\n        /* \"#utility.yul\":15269:15376   */\n      iszero\n      tag_539\n      jumpi\n        /* \"#utility.yul\":15356:15374   */\n      tag_540\n      tag_541\n      jump\t// in\n    tag_540:\n        /* \"#utility.yul\":15269:15376   */\n    tag_539:\n        /* \"#utility.yul\":15400:15401   */\n      dup3\n        /* \"#utility.yul\":15397:15398   */\n      dup3\n        /* \"#utility.yul\":15393:15402   */\n      add\n        /* \"#utility.yul\":15386:15402   */\n      swap1\n      pop\n        /* \"#utility.yul\":15103:15408   */\n      swap3\n      swap2\n      pop\n      pop\n      jump\t// out\n        /* \"#utility.yul\":15414:15605   */\n    tag_142:\n        /* \"#utility.yul\":15454:15458   */\n      0x00\n        /* \"#utility.yul\":15474:15494   */\n      tag_543\n        /* \"#utility.yul\":15492:15493   */\n      dup3\n        /* \"#utility.yul\":15474:15494   */\n      tag_477\n      jump\t// in\n    tag_543:\n        /* \"#utility.yul\":15469:15494   */\n      swap2\n      pop\n        /* \"#utility.yul\":15508:15528   */\n      tag_544\n        /* \"#utility.yul\":15526:15527   */\n      dup4\n        /* \"#utility.yul\":15508:15528   */\n      tag_477\n      jump\t// in\n    tag_544:\n        /* \"#utility.yul\":15503:15528   */\n      swap3\n      pop\n        /* \"#utility.yul\":15547:15548   */\n      dup3\n        /* \"#utility.yul\":15544:15545   */\n      dup3\n        /* \"#utility.yul\":15541:15549   */\n      lt\n        /* \"#utility.yul\":15538:15572   */\n      iszero\n      tag_545\n      jumpi\n        /* \"#utility.yul\":15552:15570   */\n      tag_546\n      tag_541\n      jump\t// in\n    tag_546:\n        /* \"#utility.yul\":15538:15572   */\n    tag_545:\n        /* \"#utility.yul\":15597:15598   */\n      dup3\n        /* \"#utility.yul\":15594:15595   */\n      dup3\n        /* \"#utility.yul\":15590:15599   */\n      sub\n        /* \"#utility.yul\":15582:15599   */\n      swap1\n      pop\n        /* \"#utility.yul\":15414:15605   */\n      swap3\n      swap2\n      pop\n      pop\n      jump\t// out\n        /* \"#utility.yul\":15611:15707   */\n    tag_426:\n        /* \"#utility.yul\":15648:15655   */\n      0x00\n        /* \"#utility.yul\":15677:15701   */\n      tag_548\n        /* \"#utility.yul\":15695:15700   */\n      dup3\n        /* \"#utility.yul\":15677:15701   */\n      tag_549\n      jump\t// in\n    tag_548:\n        /* \"#utility.yul\":15666:15701   */\n      swap1\n      pop\n        /* \"#utility.yul\":15611:15707   */\n      swap2\n      swap1\n      pop\n      jump\t// out\n        /* \"#utility.yul\":15713:15839   */\n    tag_549:\n        /* \"#utility.yul\":15750:15757   */\n      0x00\n        /* \"#utility.yul\":15790:15832   */\n      0xffffffffffffffffffffffffffffffffffffffff\n        /* \"#utility.yul\":15783:15788   */\n      dup3\n        /* \"#utility.yul\":15779:15833   */\n      and\n        /* \"#utility.yul\":15768:15833   */\n      swap1\n      pop\n        /* \"#utility.yul\":15713:15839   */\n      swap2\n      swap1\n      pop\n      jump\t// out\n        /* \"#utility.yul\":15845:15922   */\n    tag_477:\n        /* \"#utility.yul\":15882:15889   */\n      0x00\n        /* \"#utility.yul\":15911:15916   */\n      dup2\n        /* \"#utility.yul\":15900:15916   */\n      swap1\n      pop\n        /* \"#utility.yul\":15845:15922   */\n      swap2\n      swap1\n      pop\n      jump\t// out\n        /* \"#utility.yul\":15928:16021   */\n    tag_486:\n        /* \"#utility.yul\":15964:15971   */\n      0x00\n        /* \"#utility.yul\":16004:16014   */\n      0xffffffff\n        /* \"#utility.yul\":15997:16002   */\n      dup3\n        /* \"#utility.yul\":15993:16015   */\n      and\n        /* \"#utility.yul\":15982:16015   */\n      swap1\n      pop\n        /* \"#utility.yul\":15928:16021   */\n      swap2\n      swap1\n      pop\n      jump\t// out\n        /* \"#utility.yul\":16027:16181   */\n    tag_365:\n        /* \"#utility.yul\":16111:16117   */\n      dup3\n        /* \"#utility.yul\":16106:16109   */\n      dup2\n        /* \"#utility.yul\":16101:16104   */\n      dup4\n        /* \"#utility.yul\":16088:16118   */\n      calldatacopy\n        /* \"#utility.yul\":16173:16174   */\n      0x00\n        /* \"#utility.yul\":16164:16170   */\n      dup4\n        /* \"#utility.yul\":16159:16162   */\n      dup4\n        /* \"#utility.yul\":16155:16171   */\n      add\n        /* \"#utility.yul\":16148:16175   */\n      mstore\n        /* \"#utility.yul\":16027:16181   */\n      pop\n      pop\n      pop\n      jump\t// out\n        /* \"#utility.yul\":16187:16494   */\n    tag_434:\n        /* \"#utility.yul\":16255:16256   */\n      0x00\n        /* \"#utility.yul\":16265:16378   */\n    tag_555:\n        /* \"#utility.yul\":16279:16285   */\n      dup4\n        /* \"#utility.yul\":16276:16277   */\n      dup2\n        /* \"#utility.yul\":16273:16286   */\n      lt\n        /* \"#utility.yul\":16265:16378   */\n      iszero\n      tag_557\n      jumpi\n        /* \"#utility.yul\":16364:16365   */\n      dup1\n        /* \"#utility.yul\":16359:16362   */\n      dup3\n        /* \"#utility.yul\":16355:16366   */\n      add\n        /* \"#utility.yul\":16349:16367   */\n      mload\n        /* \"#utility.yul\":16345:16346   */\n      dup2\n        /* \"#utility.yul\":16340:16343   */\n      dup5\n        /* \"#utility.yul\":16336:16347   */\n      add\n        /* \"#utility.yul\":16329:16368   */\n      mstore\n        /* \"#utility.yul\":16301:16303   */\n      0x20\n        /* \"#utility.yul\":16298:16299   */\n      dup2\n        /* \"#utility.yul\":16294:16304   */\n      add\n        /* \"#utility.yul\":16289:16304   */\n      swap1\n      pop\n        /* \"#utility.yul\":16265:16378   */\n      jump(tag_555)\n    tag_557:\n        /* \"#utility.yul\":16396:16402   */\n      dup4\n        /* \"#utility.yul\":16393:16394   */\n      dup2\n        /* \"#utility.yul\":16390:16403   */\n      gt\n        /* \"#utility.yul\":16387:16488   */\n      iszero\n      tag_558\n      jumpi\n        /* \"#utility.yul\":16476:16477   */\n      0x00\n        /* \"#utility.yul\":16467:16473   */\n      dup5\n        /* \"#utility.yul\":16462:16465   */\n      dup5\n        /* \"#utility.yul\":16458:16474   */\n      add\n        /* \"#utility.yul\":16451:16478   */\n      mstore\n        /* \"#utility.yul\":16387:16488   */\n    tag_558:\n        /* \"#utility.yul\":16236:16494   */\n      pop\n        /* \"#utility.yul\":16187:16494   */\n      pop\n      pop\n      pop\n      jump\t// out\n        /* \"#utility.yul\":16500:16671   */\n    tag_335:\n        /* \"#utility.yul\":16539:16542   */\n      0x00\n        /* \"#utility.yul\":16562:16586   */\n      tag_560\n        /* \"#utility.yul\":16580:16585   */\n      dup3\n        /* \"#utility.yul\":16562:16586   */\n      tag_477\n      jump\t// in\n    tag_560:\n        /* \"#utility.yul\":16553:16586   */\n      swap2\n      pop\n        /* \"#utility.yul\":16608:16612   */\n      0x00\n        /* \"#utility.yul\":16601:16606   */\n      dup3\n        /* \"#utility.yul\":16598:16613   */\n      eq\n        /* \"#utility.yul\":16595:16636   */\n      iszero\n      tag_561\n      jumpi\n        /* \"#utility.yul\":16616:16634   */\n      tag_562\n      tag_541\n      jump\t// in\n    tag_562:\n        /* \"#utility.yul\":16595:16636   */\n    tag_561:\n        /* \"#utility.yul\":16663:16664   */\n      0x01\n        /* \"#utility.yul\":16656:16661   */\n      dup3\n        /* \"#utility.yul\":16652:16665   */\n      sub\n        /* \"#utility.yul\":16645:16665   */\n      swap1\n      pop\n        /* \"#utility.yul\":16500:16671   */\n      swap2\n      swap1\n      pop\n      jump\t// out\n        /* \"#utility.yul\":16677:16997   */\n    tag_281:\n        /* \"#utility.yul\":16721:16727   */\n      0x00\n        /* \"#utility.yul\":16758:16759   */\n      0x02\n        /* \"#utility.yul\":16752:16756   */\n      dup3\n        /* \"#utility.yul\":16748:16760   */\n      div\n        /* \"#utility.yul\":16738:16760   */\n      swap1\n      pop\n        /* \"#utility.yul\":16805:16806   */\n      0x01\n        /* \"#utility.yul\":16799:16803   */\n      dup3\n        /* \"#utility.yul\":16795:16807   */\n      and\n        /* \"#utility.yul\":16826:16844   */\n      dup1\n        /* \"#utility.yul\":16816:16897   */\n      tag_564\n      jumpi\n        /* \"#utility.yul\":16882:16886   */\n      0x7f\n        /* \"#utility.yul\":16874:16880   */\n      dup3\n        /* \"#utility.yul\":16870:16887   */\n      and\n        /* \"#utility.yul\":16860:16887   */\n      swap2\n      pop\n        /* \"#utility.yul\":16816:16897   */\n    tag_564:\n        /* \"#utility.yul\":16944:16946   */\n      0x20\n        /* \"#utility.yul\":16936:16942   */\n      dup3\n        /* \"#utility.yul\":16933:16947   */\n      lt\n        /* \"#utility.yul\":16913:16931   */\n      dup2\n        /* \"#utility.yul\":16910:16948   */\n      eq\n        /* \"#utility.yul\":16907:16991   */\n      iszero\n      tag_565\n      jumpi\n        /* \"#utility.yul\":16963:16981   */\n      tag_566\n      tag_567\n      jump\t// in\n    tag_566:\n        /* \"#utility.yul\":16907:16991   */\n    tag_565:\n        /* \"#utility.yul\":16728:16997   */\n      pop\n        /* \"#utility.yul\":16677:16997   */\n      swap2\n      swap1\n      pop\n      jump\t// out\n        /* \"#utility.yul\":17003:17284   */\n    tag_526:\n        /* \"#utility.yul\":17086:17113   */\n      tag_569\n        /* \"#utility.yul\":17108:17112   */\n      dup3\n        /* \"#utility.yul\":17086:17113   */\n      tag_436\n      jump\t// in\n    tag_569:\n        /* \"#utility.yul\":17078:17084   */\n      dup2\n        /* \"#utility.yul\":17074:17114   */\n      add\n        /* \"#utility.yul\":17216:17222   */\n      dup2\n        /* \"#utility.yul\":17204:17214   */\n      dup2\n        /* \"#utility.yul\":17201:17223   */\n      lt\n        /* \"#utility.yul\":17180:17198   */\n      0xffffffffffffffff\n        /* \"#utility.yul\":17168:17178   */\n      dup3\n        /* \"#utility.yul\":17165:17199   */\n      gt\n        /* \"#utility.yul\":17162:17224   */\n      or\n        /* \"#utility.yul\":17159:17247   */\n      iszero\n      tag_570\n      jumpi\n        /* \"#utility.yul\":17227:17245   */\n      tag_571\n      tag_531\n      jump\t// in\n    tag_571:\n        /* \"#utility.yul\":17159:17247   */\n    tag_570:\n        /* \"#utility.yul\":17267:17277   */\n      dup1\n        /* \"#utility.yul\":17263:17265   */\n      0x40\n        /* \"#utility.yul\":17256:17278   */\n      mstore\n        /* \"#utility.yul\":17046:17284   */\n      pop\n        /* \"#utility.yul\":17003:17284   */\n      pop\n      pop\n      jump\t// out\n        /* \"#utility.yul\":17290:17523   */\n    tag_119:\n        /* \"#utility.yul\":17329:17332   */\n      0x00\n        /* \"#utility.yul\":17352:17376   */\n      tag_573\n        /* \"#utility.yul\":17370:17375   */\n      dup3\n        /* \"#utility.yul\":17352:17376   */\n      tag_477\n      jump\t// in\n    tag_573:\n        /* \"#utility.yul\":17343:17376   */\n      swap2\n      pop\n        /* \"#utility.yul\":17398:17464   */\n      0xffffffffffffffffffffffffffffffffffffffffffffffffffffffffffffffff\n        /* \"#utility.yul\":17391:17396   */\n      dup3\n        /* \"#utility.yul\":17388:17465   */\n      eq\n        /* \"#utility.yul\":17385:17488   */\n      iszero\n      tag_574\n      jumpi\n        /* \"#utility.yul\":17468:17486   */\n      tag_575\n      tag_541\n      jump\t// in\n    tag_575:\n        /* \"#utility.yul\":17385:17488   */\n    tag_574:\n        /* \"#utility.yul\":17515:17516   */\n      0x01\n        /* \"#utility.yul\":17508:17513   */\n      dup3\n        /* \"#utility.yul\":17504:17517   */\n      add\n        /* \"#utility.yul\":17497:17517   */\n      swap1\n      pop\n        /* \"#utility.yul\":17290:17523   */\n      swap2\n      swap1\n      pop\n      jump\t// out\n        /* \"#utility.yul\":17529:17704   */\n    tag_157:\n        /* \"#utility.yul\":17567:17570   */\n      0x00\n        /* \"#utility.yul\":17590:17613   */\n      tag_577\n        /* \"#utility.yul\":17607:17612   */\n      dup3\n        /* \"#utility.yul\":17590:17613   */\n      tag_486\n      jump\t// in\n    tag_577:\n        /* \"#utility.yul\":17581:17613   */\n      swap2\n      pop\n        /* \"#utility.yul\":17635:17645   */\n      0xffffffff\n        /* \"#utility.yul\":17628:17633   */\n      dup3\n        /* \"#utility.yul\":17625:17646   */\n      eq\n        /* \"#utility.yul\":17622:17669   */\n      iszero\n      tag_578\n      jumpi\n        /* \"#utility.yul\":17649:17667   */\n      tag_579\n      tag_541\n      jump\t// in\n    tag_579:\n        /* \"#utility.yul\":17622:17669   */\n    tag_578:\n        /* \"#utility.yul\":17696:17697   */\n      0x01\n        /* \"#utility.yul\":17689:17694   */\n      dup3\n        /* \"#utility.yul\":17685:17698   */\n      add\n        /* \"#utility.yul\":17678:17698   */\n      swap1\n      pop\n        /* \"#utility.yul\":17529:17704   */\n      swap2\n      swap1\n      pop\n      jump\t// out\n        /* \"#utility.yul\":17710:17789   */\n    tag_482:\n        /* \"#utility.yul\":17749:17756   */\n      0x00\n        /* \"#utility.yul\":17778:17783   */\n      dup2\n        /* \"#utility.yul\":17767:17783   */\n      swap1\n      pop\n        /* \"#utility.yul\":17710:17789   */\n      swap2\n      swap1\n      pop\n      jump\t// out\n        /* \"#utility.yul\":17795:17971   */\n    tag_169:\n        /* \"#utility.yul\":17827:17828   */\n      0x00\n        /* \"#utility.yul\":17844:17864   */\n      tag_582\n        /* \"#utility.yul\":17862:17863   */\n      dup3\n        /* \"#utility.yul\":17844:17864   */\n      tag_477\n      jump\t// in\n    tag_582:\n        /* \"#utility.yul\":17839:17864   */\n      swap2\n      pop\n        /* \"#utility.yul\":17878:17898   */\n      tag_583\n        /* \"#utility.yul\":17896:17897   */\n      dup4\n        /* \"#utility.yul\":17878:17898   */\n      tag_477\n      jump\t// in\n    tag_583:\n        /* \"#utility.yul\":17873:17898   */\n      swap3\n      pop\n        /* \"#utility.yul\":17917:17918   */\n      dup3\n        /* \"#utility.yul\":17907:17942   */\n      tag_584\n      jumpi\n        /* \"#utility.yul\":17922:17940   */\n      tag_585\n      tag_586\n      jump\t// in\n    tag_585:\n        /* \"#utility.yul\":17907:17942   */\n    tag_584:\n        /* \"#utility.yul\":17963:17964   */\n      dup3\n        /* \"#utility.yul\":17960:17961   */\n      dup3\n        /* \"#utility.yul\":17956:17965   */\n      mod\n        /* \"#utility.yul\":17951:17965   */\n      swap1\n      pop\n        /* \"#utility.yul\":17795:17971   */\n      swap3\n      swap2\n      pop\n      pop\n      jump\t// out\n        /* \"#utility.yul\":17977:18157   */\n    tag_541:\n        /* \"#utility.yul\":18025:18102   */\n      0x4e487b7100000000000000000000000000000000000000000000000000000000\n        /* \"#utility.yul\":18022:18023   */\n      0x00\n        /* \"#utility.yul\":18015:18103   */\n      mstore\n        /* \"#utility.yul\":18122:18126   */\n      0x11\n        /* \"#utility.yul\":18119:18120   */\n      0x04\n        /* \"#utility.yul\":18112:18127   */\n      mstore\n        /* \"#utility.yul\":18146:18150   */\n      0x24\n        /* \"#utility.yul\":18143:18144   */\n      0x00\n        /* \"#utility.yul\":18136:18151   */\n      revert\n        /* \"#utility.yul\":18163:18343   */\n    tag_586:\n        /* \"#utility.yul\":18211:18288   */\n      0x4e487b7100000000000000000000000000000000000000000000000000000000\n        /* \"#utility.yul\":18208:18209   */\n      0x00\n        /* \"#utility.yul\":18201:18289   */\n      mstore\n        /* \"#utility.yul\":18308:18312   */\n      0x12\n        /* \"#utility.yul\":18305:18306   */\n      0x04\n        /* \"#utility.yul\":18298:18313   */\n      mstore\n        /* \"#utility.yul\":18332:18336   */\n      0x24\n        /* \"#utility.yul\":18329:18330   */\n      0x00\n        /* \"#utility.yul\":18322:18337   */\n      revert\n        /* \"#utility.yul\":18349:18529   */\n    tag_567:\n        /* \"#utility.yul\":18397:18474   */\n      0x4e487b7100000000000000000000000000000000000000000000000000000000\n        /* \"#utility.yul\":18394:18395   */\n      0x00\n        /* \"#utility.yul\":18387:18475   */\n      mstore\n        /* \"#utility.yul\":18494:18498   */\n      0x22\n        /* \"#utility.yul\":18491:18492   */\n      0x04\n        /* \"#utility.yul\":18484:18499   */\n      mstore\n        /* \"#utility.yul\":18518:18522   */\n      0x24\n        /* \"#utility.yul\":18515:18516   */\n      0x00\n        /* \"#utility.yul\":18508:18523   */\n      revert\n        /* \"#utility.yul\":18535:18715   */\n    tag_106:\n        /* \"#utility.yul\":18583:18660   */\n      0x4e487b7100000000000000000000000000000000000000000000000000000000\n        /* \"#utility.yul\":18580:18581   */\n      0x00\n        /* \"#utility.yul\":18573:18661   */\n      mstore\n        /* \"#utility.yul\":18680:18684   */\n      0x32\n        /* \"#utility.yul\":18677:18678   */\n      0x04\n        /* \"#utility.yul\":18670:18685   */\n      mstore\n        /* \"#utility.yul\":18704:18708   */\n      0x24\n        /* \"#utility.yul\":18701:18702   */\n      0x00\n        /* \"#utility.yul\":18694:18709   */\n      revert\n        /* \"#utility.yul\":18721:18901   */\n    tag_531:\n        /* \"#utility.yul\":18769:18846   */\n      0x4e487b7100000000000000000000000000000000000000000000000000000000\n        /* \"#utility.yul\":18766:18767   */\n      0x00\n        /* \"#utility.yul\":18759:18847   */\n      mstore\n        /* \"#utility.yul\":18866:18870   */\n      0x41\n        /* \"#utility.yul\":18863:18864   */\n      0x04\n        /* \"#utility.yul\":18856:18871   */\n      mstore\n        /* \"#utility.yul\":18890:18894   */\n      0x24\n        /* \"#utility.yul\":18887:18888   */\n      0x00\n        /* \"#utility.yul\":18880:18895   */\n      revert\n        /* \"#utility.yul\":18907:19024   */\n    tag_374:\n        /* \"#utility.yul\":19016:19017   */\n      0x00\n        /* \"#utility.yul\":19013:19014   */\n      dup1\n        /* \"#utility.yul\":19006:19018   */\n      revert\n        /* \"#utility.yul\":19030:19147   */\n    tag_363:\n        /* \"#utility.yul\":19139:19140   */\n      0x00\n        /* \"#utility.yul\":19136:19137   */\n      dup1\n        /* \"#utility.yul\":19129:19141   */\n      revert\n        /* \"#utility.yul\":19153:19270   */\n    tag_397:\n        /* \"#utility.yul\":19262:19263   */\n      0x00\n        /* \"#utility.yul\":19259:19260   */\n      dup1\n        /* \"#utility.yul\":19252:19264   */\n      revert\n        /* \"#utility.yul\":19276:19393   */\n    tag_383:\n        /* \"#utility.yul\":19385:19386   */\n      0x00\n        /* \"#utility.yul\":19382:19383   */\n      dup1\n        /* \"#utility.yul\":19375:19387   */\n      revert\n        /* \"#utility.yul\":19399:19501   */\n    tag_436:\n        /* \"#utility.yul\":19440:19446   */\n      0x00\n        /* \"#utility.yul\":19491:19493   */\n      0x1f\n        /* \"#utility.yul\":19487:19494   */\n      not\n        /* \"#utility.yul\":19482:19484   */\n      0x1f\n        /* \"#utility.yul\":19475:19480   */\n      dup4\n        /* \"#utility.yul\":19471:19485   */\n      add\n        /* \"#utility.yul\":19467:19495   */\n      and\n        /* \"#utility.yul\":19457:19495   */\n      swap1\n      pop\n        /* \"#utility.yul\":19399:19501   */\n      swap2\n      swap1\n      pop\n      jump\t// out\n        /* \"#utility.yul\":19507:19734   */\n    tag_453:\n        /* \"#utility.yul\":19647:19681   */\n      0x536f6c6f2073652070756564652074656e657220756e20636f63686520706f72\n        /* \"#utility.yul\":19643:19644   */\n      0x00\n        /* \"#utility.yul\":19635:19641   */\n      dup3\n        /* \"#utility.yul\":19631:19645   */\n      add\n        /* \"#utility.yul\":19624:19682   */\n      mstore\n        /* \"#utility.yul\":19716:19726   */\n      0x20706572736f6e61000000000000000000000000000000000000000000000000\n        /* \"#utility.yul\":19711:19713   */\n      0x20\n        /* \"#utility.yul\":19703:19709   */\n      dup3\n        /* \"#utility.yul\":19699:19714   */\n      add\n        /* \"#utility.yul\":19692:19727   */\n      mstore\n        /* \"#utility.yul\":19507:19734   */\n      pop\n      jump\t// out\n        /* \"#utility.yul\":19740:19965   */\n    tag_458:\n        /* \"#utility.yul\":19880:19914   */\n      0x4f776e61626c653a206e6577206f776e657220697320746865207a65726f2061\n        /* \"#utility.yul\":19876:19877   */\n      0x00\n        /* \"#utility.yul\":19868:19874   */\n      dup3\n        /* \"#utility.yul\":19864:19878   */\n      add\n        /* \"#utility.yul\":19857:19915   */\n      mstore\n        /* \"#utility.yul\":19949:19957   */\n      0x6464726573730000000000000000000000000000000000000000000000000000\n        /* \"#utility.yul\":19944:19946   */\n      0x20\n        /* \"#utility.yul\":19936:19942   */\n      dup3\n        /* \"#utility.yul\":19932:19947   */\n      add\n        /* \"#utility.yul\":19925:19958   */\n      mstore\n        /* \"#utility.yul\":19740:19965   */\n      pop\n      jump\t// out\n        /* \"#utility.yul\":19971:20208   */\n    tag_463:\n        /* \"#utility.yul\":20111:20145   */\n      0x4e6f2068617920636f6368657320737566696369656e74657320706172612069\n        /* \"#utility.yul\":20107:20108   */\n      0x00\n        /* \"#utility.yul\":20099:20105   */\n      dup3\n        /* \"#utility.yul\":20095:20109   */\n      add\n        /* \"#utility.yul\":20088:20146   */\n      mstore\n        /* \"#utility.yul\":20180:20200   */\n      0x6e696369617220756e6120636172726572610000000000000000000000000000\n        /* \"#utility.yul\":20175:20177   */\n      0x20\n        /* \"#utility.yul\":20167:20173   */\n      dup3\n        /* \"#utility.yul\":20163:20178   */\n      add\n        /* \"#utility.yul\":20156:20201   */\n      mstore\n        /* \"#utility.yul\":19971:20208   */\n      pop\n      jump\t// out\n        /* \"#utility.yul\":20214:20396   */\n    tag_468:\n        /* \"#utility.yul\":20354:20388   */\n      0x4f776e61626c653a2063616c6c6572206973206e6f7420746865206f776e6572\n        /* \"#utility.yul\":20350:20351   */\n      0x00\n        /* \"#utility.yul\":20342:20348   */\n      dup3\n        /* \"#utility.yul\":20338:20352   */\n      add\n        /* \"#utility.yul\":20331:20389   */\n      mstore\n        /* \"#utility.yul\":20214:20396   */\n      pop\n      jump\t// out\n        /* \"#utility.yul\":20402:20573   */\n    tag_473:\n        /* \"#utility.yul\":20542:20565   */\n      0x456c20636f6368652067616e61646f722065733a200000000000000000000000\n        /* \"#utility.yul\":20538:20539   */\n      0x00\n        /* \"#utility.yul\":20530:20536   */\n      dup3\n        /* \"#utility.yul\":20526:20540   */\n      add\n        /* \"#utility.yul\":20519:20566   */\n      mstore\n        /* \"#utility.yul\":20402:20573   */\n      pop\n      jump\t// out\n        /* \"#utility.yul\":20579:20701   */\n    tag_369:\n        /* \"#utility.yul\":20652:20676   */\n      tag_603\n        /* \"#utility.yul\":20670:20675   */\n      dup2\n        /* \"#utility.yul\":20652:20676   */\n      tag_426\n      jump\t// in\n    tag_603:\n        /* \"#utility.yul\":20645:20650   */\n      dup2\n        /* \"#utility.yul\":20642:20677   */\n      eq\n        /* \"#utility.yul\":20632:20695   */\n      tag_604\n      jumpi\n        /* \"#utility.yul\":20691:20692   */\n      0x00\n        /* \"#utility.yul\":20688:20689   */\n      dup1\n        /* \"#utility.yul\":20681:20693   */\n      revert\n        /* \"#utility.yul\":20632:20695   */\n    tag_604:\n        /* \"#utility.yul\":20579:20701   */\n      pop\n      jump\t// out\n        /* \"#utility.yul\":20707:20829   */\n    tag_379:\n        /* \"#utility.yul\":20780:20804   */\n      tag_606\n        /* \"#utility.yul\":20798:20803   */\n      dup2\n        /* \"#utility.yul\":20780:20804   */\n      tag_477\n      jump\t// in\n    tag_606:\n        /* \"#utility.yul\":20773:20778   */\n      dup2\n        /* \"#utility.yul\":20770:20805   */\n      eq\n        /* \"#utility.yul\":20760:20823   */\n      tag_607\n      jumpi\n        /* \"#utility.yul\":20819:20820   */\n      0x00\n        /* \"#utility.yul\":20816:20817   */\n      dup1\n        /* \"#utility.yul\":20809:20821   */\n      revert\n        /* \"#utility.yul\":20760:20823   */\n    tag_607:\n        /* \"#utility.yul\":20707:20829   */\n      pop\n      jump\t// out\n\n    auxdata: 0xa26469706673582212201d3edb237a2c081bbdf7a72e6714070e73b09e45a4277005fe7d66ad367f308f64736f6c63430008070033\n}\n",
				"bytecode": {
					"linkReferences": {},
					"object": "608060405260006001556000600255603c600355670de0b6b3a7640000600455671bc16d674ec800006005553480156200003857600080fd5b50620000596200004d6200005f60201b60201c565b6200006760201b60201c565b6200012b565b600033905090565b60008060009054906101000a900473ffffffffffffffffffffffffffffffffffffffff169050816000806101000a81548173ffffffffffffffffffffffffffffffffffffffff021916908373ffffffffffffffffffffffffffffffffffffffff1602179055508173ffffffffffffffffffffffffffffffffffffffff168173ffffffffffffffffffffffffffffffffffffffff167f8be0079c531659141344cd1fd0a4f28419497f9722a3daafe3b4186f6b6457e060405160405180910390a35050565b612a90806200013b6000396000f3fe6080604052600436106100f35760003560e01c806370a082311161008a578063b2bdfa7b11610059578063b2bdfa7b14610333578063d735573d1461035e578063e172fca8146103a2578063f2fde38b146103cb576100f3565b806370a0823114610277578063715018a6146102b4578063858b0554146102cb5780638da5cb5b14610308576100f3565b80632458c544116100c65780632458c5441461019d5780636352211e146101da5780636a7d1816146102175780636b6f049414610247576100f3565b8063049a5f65146100f8578063095ea7b3146101285780631c6743e41461014457806323b872dd14610181575b600080fd5b610112600480360381019061010d9190611f8c565b6103f4565b60405161011f91906123c2565b60405180910390f35b610142600480360381019061013d9190612017565b610555565b005b34801561015057600080fd5b5061016b60048036038101906101669190611f0c565b610673565b60405161017891906124e5565b60405180910390f35b61019b60048036038101906101969190611f39565b61068b565b005b3480156101a957600080fd5b506101c460048036038101906101bf9190612057565b61076f565b6040516101d191906124e5565b60405180910390f35b3480156101e657600080fd5b5061020160048036038101906101fc91906120fe565b610a51565b60405161020e9190612314565b60405180910390f35b610231600480360381019061022c9190611f0c565b610a8e565b60405161023e91906123c2565b60405180910390f35b610261600480360381019061025c91906120fe565b610be3565b60405161026e91906123c2565b60405180910390f35b34801561028357600080fd5b5061029e60048036038101906102999190611f0c565b61151e565b6040516102ab91906124e5565b60405180910390f35b3480156102c057600080fd5b506102c9611567565b005b3480156102d757600080fd5b506102f260048036038101906102ed91906120fe565b6115ef565b6040516102ff9190612314565b60405180910390f35b34801561031457600080fd5b5061031d611622565b60405161032a9190612314565b60405180910390f35b34801561033f57600080fd5b5061034861164b565b6040516103559190612314565b60405180910390f35b34801561036a57600080fd5b50610385600480360381019061038091906120fe565b61166f565b60405161039998979695949392919061232f565b60405180910390f35b3480156103ae57600080fd5b506103c960048036038101906103c49190611f0c565b61188f565b005b3480156103d757600080fd5b506103f260048036038101906103ed9190611f0c565b611a36565b005b60608373ffffffffffffffffffffffffffffffffffffffff163373ffffffffffffffffffffffffffffffffffffffff161461042e57600080fd5b600554341461043c57600080fd5b60005b60068054905081101561054d573373ffffffffffffffffffffffffffffffffffffffff16600682815481106104775761047661286a565b5b906000526020600020906008020160000160009054906101000a900473ffffffffffffffffffffffffffffffffffffffff1673ffffffffffffffffffffffffffffffffffffffff16141561053a5783600682815481106104da576104d961286a565b5b906000526020600020906008020160010190805190602001906104fe929190611dcf565b5082600682815481106105145761051361286a565b5b90600052602060002090600802016002019080519060200190610538929190611dcf565b505b80806105459061272c565b91505061043f565b509392505050565b806007600082815260200190815260200160002060009054906101000a900473ffffffffffffffffffffffffffffffffffffffff1673ffffffffffffffffffffffffffffffffffffffff163373ffffffffffffffffffffffffffffffffffffffff16146105c157600080fd5b826009600084815260200190815260200160002060006101000a81548173ffffffffffffffffffffffffffffffffffffffff021916908373ffffffffffffffffffffffffffffffffffffffff160217905550818373ffffffffffffffffffffffffffffffffffffffff163373ffffffffffffffffffffffffffffffffffffffff167f8c5be1e5ebec7d5bd14f71427d1e84f3dd0314c0f7b2291e5b200ac8c7c3b92560405160405180910390a4505050565b60086020528060005260406000206000915090505481565b3373ffffffffffffffffffffffffffffffffffffffff166007600083815260200190815260200160002060009054906101000a900473ffffffffffffffffffffffffffffffffffffffff1673ffffffffffffffffffffffffffffffffffffffff16148061075657503373ffffffffffffffffffffffffffffffffffffffff166009600083815260200190815260200160002060009054906101000a900473ffffffffffffffffffffffffffffffffffffffff1673ffffffffffffffffffffffffffffffffffffffff16145b61075f57600080fd5b61076a838383611b2e565b505050565b60006001600860003373ffffffffffffffffffffffffffffffffffffffff1673ffffffffffffffffffffffffffffffffffffffff16815260200190815260200160002054106107f3576040517f08c379a00000000000000000000000000000000000000000000000000000000081526004016107ea90612445565b60405180910390fd5b60066040518061010001604052803373ffffffffffffffffffffffffffffffffffffffff16815260200186815260200185815260200184815260200160008152602001600081526020016003544261084b9190612587565b63ffffffff168152602001600163ffffffff16815250908060018154018082558091505060019003906000526020600020906008020160009091909190915060008201518160000160006101000a81548173ffffffffffffffffffffffffffffffffffffffff021916908373ffffffffffffffffffffffffffffffffffffffff16021790555060208201518160010190805190602001906108ed929190611dcf565b50604082015181600201908051906020019061090a929190611dcf565b506060820151816003019080519060200190610927929190611dcf565b506080820151816004015560a0820151816005015560c0820151816006015560e08201518160070160006101000a81548163ffffffff021916908363ffffffff160217905550505060006006805490509050336007600083815260200190815260200160002060006101000a81548173ffffffffffffffffffffffffffffffffffffffff021916908373ffffffffffffffffffffffffffffffffffffffff160217905550600860003373ffffffffffffffffffffffffffffffffffffffff1673ffffffffffffffffffffffffffffffffffffffff1681526020019081526020016000206000815480929190610a1b9061272c565b919050555060026000815480929190610a339061272c565b91905055506001600254610a4791906125dd565b9150509392505050565b60006007600083815260200190815260200160002060009054906101000a900473ffffffffffffffffffffffffffffffffffffffff169050919050565b60606004543414610a9e57600080fd5b60005b600680549050811015610bdc578273ffffffffffffffffffffffffffffffffffffffff1660068281548110610ad957610ad861286a565b5b906000526020600020906008020160000160009054906101000a900473ffffffffffffffffffffffffffffffffffffffff1673ffffffffffffffffffffffffffffffffffffffff161415610bc95760068181548110610b3b57610b3a61286a565b5b9060005260206000209060080201600701600081819054906101000a900463ffffffff1680929190610b6c90612775565b91906101000a81548163ffffffff021916908363ffffffff160217905550506040518060400160405280601281526020017f48612073756269646f206465206e6976656c0000000000000000000000000000815250915050610bde565b8080610bd49061272c565b915050610aa1565b505b919050565b6060600160068054905011610c2c577f6158fc8f21c8cc73ddf920956cc75d0e8a48b4fc85817a0ba89eb3b6d2a75441604051610c1f90612485565b60405180910390a1611518565b813414610c3857600080fd5b60016000815480929190610c4b9061272c565b9190505550600060068054905042600680549050600154604051602001610c74939291906122d7565b6040516020818303038152906040528051906020012060001c610c9791906127ac565b905060006007600083815260200190815260200160002060009054906101000a900473ffffffffffffffffffffffffffffffffffffffff16905060016000815480929190610ce49061272c565b91905055506000606490506000814283600154604051602001610d09939291906122d7565b6040516020818303038152906040528051906020012060001c610d2c91906127ac565b905060005b6006805490508110156115125760068181548110610d5257610d5161286a565b5b906000526020600020906008020160000160009054906101000a900473ffffffffffffffffffffffffffffffffffffffff1673ffffffffffffffffffffffffffffffffffffffff163373ffffffffffffffffffffffffffffffffffffffff1614156114ff57610de160068281548110610dce57610dcd61286a565b5b9060005260206000209060080201611c8a565b610dea57600080fd5b60068181548110610dfe57610dfd61286a565b5b90600052602060002090600802016005016000815480929190610e209061272c565b919050555060068581548110610e3957610e3861286a565b5b90600052602060002090600802016005016000815480929190610e5b9061272c565b9190505550610e8a60068281548110610e7757610e7661286a565b5b9060005260206000209060080201611c9b565b60068181548110610e9e57610e9d61286a565b5b906000526020600020906008020160070160009054906101000a900463ffffffff1663ffffffff1660068681548110610eda57610ed961286a565b5b906000526020600020906008020160070160009054906101000a900463ffffffff1663ffffffff1610156110db57603c8211610ff957610f18611cba565b60068181548110610f2c57610f2b61286a565b5b90600052602060002090600802016004016000815480929190610f4e9061272c565b919050555060068181548110610f6757610f6661286a565b5b9060005260206000209060080201600701600081819054906101000a900463ffffffff1680929190610f9890612775565b91906101000a81548163ffffffff021916908363ffffffff160217905550506040518060400160405280600a81526020017f4861732067616e61646f0000000000000000000000000000000000000000000081525095505050505050611519565b7f6158fc8f21c8cc73ddf920956cc75d0e8a48b4fc85817a0ba89eb3b6d2a75441604051611026906124c5565b60405180910390a13073ffffffffffffffffffffffffffffffffffffffff1663e172fca8856040518263ffffffff1660e01b81526004016110679190612314565b600060405180830381600087803b15801561108157600080fd5b505af1158015611095573d6000803e3d6000fd5b505050506040518060400160405280600b81526020017f486173207065726469646f00000000000000000000000000000000000000000081525095505050505050611519565b600681815481106110ef576110ee61286a565b5b906000526020600020906008020160070160009054906101000a900463ffffffff1663ffffffff166006868154811061112b5761112a61286a565b5b906000526020600020906008020160070160009054906101000a900463ffffffff1663ffffffff16141561132c576032821161124a57611169611cba565b6006818154811061117d5761117c61286a565b5b9060005260206000209060080201600401600081548092919061119f9061272c565b9190505550600681815481106111b8576111b761286a565b5b9060005260206000209060080201600701600081819054906101000a900463ffffffff16809291906111e990612775565b91906101000a81548163ffffffff021916908363ffffffff160217905550506040518060400160405280600a81526020017f4861732067616e61646f0000000000000000000000000000000000000000000081525095505050505050611519565b7f6158fc8f21c8cc73ddf920956cc75d0e8a48b4fc85817a0ba89eb3b6d2a75441604051611277906124c5565b60405180910390a13073ffffffffffffffffffffffffffffffffffffffff1663e172fca8856040518263ffffffff1660e01b81526004016112b89190612314565b600060405180830381600087803b1580156112d257600080fd5b505af11580156112e6573d6000803e3d6000fd5b505050506040518060400160405280600b81526020017f486173207065726469646f00000000000000000000000000000000000000000081525095505050505050611519565b6028821161141d5761133c611cba565b600681815481106113505761134f61286a565b5b906000526020600020906008020160040160008154809291906113729061272c565b91905055506006818154811061138b5761138a61286a565b5b9060005260206000209060080201600701600081819054906101000a900463ffffffff16809291906113bc90612775565b91906101000a81548163ffffffff021916908363ffffffff160217905550506040518060400160405280600a81526020017f4861732067616e61646f0000000000000000000000000000000000000000000081525095505050505050611519565b7f6158fc8f21c8cc73ddf920956cc75d0e8a48b4fc85817a0ba89eb3b6d2a7544160405161144a906124c5565b60405180910390a13073ffffffffffffffffffffffffffffffffffffffff1663e172fca8856040518263ffffffff1660e01b815260040161148b9190612314565b600060405180830381600087803b1580156114a557600080fd5b505af11580156114b9573d6000803e3d6000fd5b505050506040518060400160405280600b81526020017f486173207065726469646f00000000000000000000000000000000000000000081525095505050505050611519565b808061150a9061272c565b915050610d31565b50505050505b5b919050565b6000600860008373ffffffffffffffffffffffffffffffffffffffff1673ffffffffffffffffffffffffffffffffffffffff168152602001908152602001600020549050919050565b61156f611d03565b73ffffffffffffffffffffffffffffffffffffffff1661158d611622565b73ffffffffffffffffffffffffffffffffffffffff16146115e3576040517f08c379a00000000000000000000000000000000000000000000000000000000081526004016115da906124a5565b60405180910390fd5b6115ed6000611d0b565b565b60076020528060005260406000206000915054906101000a900473ffffffffffffffffffffffffffffffffffffffff1681565b60008060009054906101000a900473ffffffffffffffffffffffffffffffffffffffff16905090565b60008054906101000a900473ffffffffffffffffffffffffffffffffffffffff1681565b6006818154811061167f57600080fd5b90600052602060002090600802016000915090508060000160009054906101000a900473ffffffffffffffffffffffffffffffffffffffff16908060010180546116c8906126c9565b80601f01602080910402602001604051908101604052809291908181526020018280546116f4906126c9565b80156117415780601f1061171657610100808354040283529160200191611741565b820191906000526020600020905b81548152906001019060200180831161172457829003601f168201915b505050505090806002018054611756906126c9565b80601f0160208091040260200160405190810160405280929190818152602001828054611782906126c9565b80156117cf5780601f106117a4576101008083540402835291602001916117cf565b820191906000526020600020905b8154815290600101906020018083116117b257829003601f168201915b5050505050908060030180546117e4906126c9565b80601f0160208091040260200160405190810160405280929190818152602001828054611810906126c9565b801561185d5780601f106118325761010080835404028352916020019161185d565b820191906000526020600020905b81548152906001019060200180831161184057829003601f168201915b5050505050908060040154908060050154908060060154908060070160009054906101000a900463ffffffff16905088565b60005b600680549050811015611a32578173ffffffffffffffffffffffffffffffffffffffff16600682815481106118ca576118c961286a565b5b906000526020600020906008020160000160009054906101000a900473ffffffffffffffffffffffffffffffffffffffff1673ffffffffffffffffffffffffffffffffffffffff161415611a1f577f20fdb8ab571bfbab79104bea84f9c31cb79c5ae45b5f515c1d6c8393e00283506006828154811061194d5761194c61286a565b5b9060005260206000209060080201600201600683815481106119725761197161286a565b5b9060005260206000209060080201600101600684815481106119975761199661286a565b5b906000526020600020906008020160070160009054906101000a900463ffffffff16600685815481106119cd576119cc61286a565b5b906000526020600020906008020160040154600686815481106119f3576119f261286a565b5b906000526020600020906008020160050154604051611a169594939291906123e4565b60405180910390a15b8080611a2a9061272c565b915050611892565b5050565b611a3e611d03565b73ffffffffffffffffffffffffffffffffffffffff16611a5c611622565b73ffffffffffffffffffffffffffffffffffffffff1614611ab2576040517f08c379a0000000000000000000000000000000000000000000000000000000008152600401611aa9906124a5565b60405180910390fd5b600073ffffffffffffffffffffffffffffffffffffffff168173ffffffffffffffffffffffffffffffffffffffff161415611b22576040517f08c379a0000000000000000000000000000000000000000000000000000000008152600401611b1990612465565b60405180910390fd5b611b2b81611d0b565b50565b600860008373ffffffffffffffffffffffffffffffffffffffff1673ffffffffffffffffffffffffffffffffffffffff1681526020019081526020016000206000815480929190611b7e9061272c565b9190505550600860008473ffffffffffffffffffffffffffffffffffffffff1673ffffffffffffffffffffffffffffffffffffffff1681526020019081526020016000206000815480929190611bd39061269f565b9190505550816007600083815260200190815260200160002060006101000a81548173ffffffffffffffffffffffffffffffffffffffff021916908373ffffffffffffffffffffffffffffffffffffffff160217905550808273ffffffffffffffffffffffffffffffffffffffff168473ffffffffffffffffffffffffffffffffffffffff167fddf252ad1be2c89b69c2b068fc378daa952ba7f163c4a11628f55a4df523b3ef60405160405180910390a4505050565b600042826006015411159050919050565b60035442611ca99190612587565b63ffffffff16816006018190555050565b3373ffffffffffffffffffffffffffffffffffffffff166108fc479081150290604051600060405180830381858888f19350505050158015611d00573d6000803e3d6000fd5b50565b600033905090565b60008060009054906101000a900473ffffffffffffffffffffffffffffffffffffffff169050816000806101000a81548173ffffffffffffffffffffffffffffffffffffffff021916908373ffffffffffffffffffffffffffffffffffffffff1602179055508173ffffffffffffffffffffffffffffffffffffffff168173ffffffffffffffffffffffffffffffffffffffff167f8be0079c531659141344cd1fd0a4f28419497f9722a3daafe3b4186f6b6457e060405160405180910390a35050565b828054611ddb906126c9565b90600052602060002090601f016020900481019282611dfd5760008555611e44565b82601f10611e1657805160ff1916838001178555611e44565b82800160010185558215611e44579182015b82811115611e43578251825591602001919060010190611e28565b5b509050611e519190611e55565b5090565b5b80821115611e6e576000816000905550600101611e56565b5090565b6000611e85611e8084612525565b612500565b905082815260208101848484011115611ea157611ea06128cd565b5b611eac84828561265d565b509392505050565b600081359050611ec381612a2c565b92915050565b600082601f830112611ede57611edd6128c8565b5b8135611eee848260208601611e72565b91505092915050565b600081359050611f0681612a43565b92915050565b600060208284031215611f2257611f216128d7565b5b6000611f3084828501611eb4565b91505092915050565b600080600060608486031215611f5257611f516128d7565b5b6000611f6086828701611eb4565b9350506020611f7186828701611eb4565b9250506040611f8286828701611ef7565b9150509250925092565b600080600060608486031215611fa557611fa46128d7565b5b6000611fb386828701611eb4565b935050602084013567ffffffffffffffff811115611fd457611fd36128d2565b5b611fe086828701611ec9565b925050604084013567ffffffffffffffff811115612001576120006128d2565b5b61200d86828701611ec9565b9150509250925092565b6000806040838503121561202e5761202d6128d7565b5b600061203c85828601611eb4565b925050602061204d85828601611ef7565b9150509250929050565b6000806000606084860312156120705761206f6128d7565b5b600084013567ffffffffffffffff81111561208e5761208d6128d2565b5b61209a86828701611ec9565b935050602084013567ffffffffffffffff8111156120bb576120ba6128d2565b5b6120c786828701611ec9565b925050604084013567ffffffffffffffff8111156120e8576120e76128d2565b5b6120f486828701611ec9565b9150509250925092565b600060208284031215612114576121136128d7565b5b600061212284828501611ef7565b91505092915050565b61213481612611565b82525050565b60006121458261256b565b61214f8185612576565b935061215f81856020860161266c565b612168816128dc565b840191505092915050565b60008154612180816126c9565b61218a8186612576565b945060018216600081146121a557600181146121b7576121ea565b60ff19831686526020860193506121ea565b6121c085612556565b60005b838110156121e2578154818901526001820191506020810190506121c3565b808801955050505b50505092915050565b6000612200602883612576565b915061220b826128ed565b604082019050919050565b6000612223602683612576565b915061222e8261293c565b604082019050919050565b6000612246603283612576565b91506122518261298b565b604082019050919050565b6000612269602083612576565b9150612274826129da565b602082019050919050565b600061228c601583612576565b915061229782612a03565b602082019050919050565b6122ab81612643565b82525050565b6122c26122bd82612643565b6127a2565b82525050565b6122d18161264d565b82525050565b60006122e382866122b1565b6020820191506122f382856122b1565b60208201915061230382846122b1565b602082019150819050949350505050565b6000602082019050612329600083018461212b565b92915050565b600061010082019050612345600083018b61212b565b8181036020830152612357818a61213a565b9050818103604083015261236b818961213a565b9050818103606083015261237f818861213a565b905061238e60808301876122a2565b61239b60a08301866122a2565b6123a860c08301856122a2565b6123b560e08301846122c8565b9998505050505050505050565b600060208201905081810360008301526123dc818461213a565b905092915050565b600060a08201905081810360008301526123fe8188612173565b905081810360208301526124128187612173565b905061242160408301866122c8565b61242e60608301856122a2565b61243b60808301846122a2565b9695505050505050565b6000602082019050818103600083015261245e816121f3565b9050919050565b6000602082019050818103600083015261247e81612216565b9050919050565b6000602082019050818103600083015261249e81612239565b9050919050565b600060208201905081810360008301526124be8161225c565b9050919050565b600060208201905081810360008301526124de8161227f565b9050919050565b60006020820190506124fa60008301846122a2565b92915050565b600061250a61251b565b905061251682826126fb565b919050565b6000604051905090565b600067ffffffffffffffff8211156125405761253f612899565b5b612549826128dc565b9050602081019050919050565b60008190508160005260206000209050919050565b600081519050919050565b600082825260208201905092915050565b600061259282612643565b915061259d83612643565b9250827fffffffffffffffffffffffffffffffffffffffffffffffffffffffffffffffff038211156125d2576125d16127dd565b5b828201905092915050565b60006125e882612643565b91506125f383612643565b925082821015612606576126056127dd565b5b828203905092915050565b600061261c82612623565b9050919050565b600073ffffffffffffffffffffffffffffffffffffffff82169050919050565b6000819050919050565b600063ffffffff82169050919050565b82818337600083830152505050565b60005b8381101561268a57808201518184015260208101905061266f565b83811115612699576000848401525b50505050565b60006126aa82612643565b915060008214156126be576126bd6127dd565b5b600182039050919050565b600060028204905060018216806126e157607f821691505b602082108114156126f5576126f461283b565b5b50919050565b612704826128dc565b810181811067ffffffffffffffff8211171561272357612722612899565b5b80604052505050565b600061273782612643565b91507fffffffffffffffffffffffffffffffffffffffffffffffffffffffffffffffff82141561276a576127696127dd565b5b600182019050919050565b60006127808261264d565b915063ffffffff821415612797576127966127dd565b5b600182019050919050565b6000819050919050565b60006127b782612643565b91506127c283612643565b9250826127d2576127d161280c565b5b828206905092915050565b7f4e487b7100000000000000000000000000000000000000000000000000000000600052601160045260246000fd5b7f4e487b7100000000000000000000000000000000000000000000000000000000600052601260045260246000fd5b7f4e487b7100000000000000000000000000000000000000000000000000000000600052602260045260246000fd5b7f4e487b7100000000000000000000000000000000000000000000000000000000600052603260045260246000fd5b7f4e487b7100000000000000000000000000000000000000000000000000000000600052604160045260246000fd5b600080fd5b600080fd5b600080fd5b600080fd5b6000601f19601f8301169050919050565b7f536f6c6f2073652070756564652074656e657220756e20636f63686520706f7260008201527f20706572736f6e61000000000000000000000000000000000000000000000000602082015250565b7f4f776e61626c653a206e6577206f776e657220697320746865207a65726f206160008201527f6464726573730000000000000000000000000000000000000000000000000000602082015250565b7f4e6f2068617920636f6368657320737566696369656e7465732070617261206960008201527f6e696369617220756e6120636172726572610000000000000000000000000000602082015250565b7f4f776e61626c653a2063616c6c6572206973206e6f7420746865206f776e6572600082015250565b7f456c20636f6368652067616e61646f722065733a200000000000000000000000600082015250565b612a3581612611565b8114612a4057600080fd5b50565b612a4c81612643565b8114612a5757600080fd5b5056fea26469706673582212201d3edb237a2c081bbdf7a72e6714070e73b09e45a4277005fe7d66ad367f308f64736f6c63430008070033",
					"opcodes": "PUSH1 0x80 PUSH1 0x40 MSTORE PUSH1 0x0 PUSH1 0x1 SSTORE PUSH1 0x0 PUSH1 0x2 SSTORE PUSH1 0x3C PUSH1 0x3 SSTORE PUSH8 0xDE0B6B3A7640000 PUSH1 0x4 SSTORE PUSH8 0x1BC16D674EC80000 PUSH1 0x5 SSTORE CALLVALUE DUP1 ISZERO PUSH3 0x38 JUMPI PUSH1 0x0 DUP1 REVERT JUMPDEST POP PUSH3 0x59 PUSH3 0x4D PUSH3 0x5F PUSH1 0x20 SHL PUSH1 0x20 SHR JUMP JUMPDEST PUSH3 0x67 PUSH1 0x20 SHL PUSH1 0x20 SHR JUMP JUMPDEST PUSH3 0x12B JUMP JUMPDEST PUSH1 0x0 CALLER SWAP1 POP SWAP1 JUMP JUMPDEST PUSH1 0x0 DUP1 PUSH1 0x0 SWAP1 SLOAD SWAP1 PUSH2 0x100 EXP SWAP1 DIV PUSH20 0xFFFFFFFFFFFFFFFFFFFFFFFFFFFFFFFFFFFFFFFF AND SWAP1 POP DUP2 PUSH1 0x0 DUP1 PUSH2 0x100 EXP DUP2 SLOAD DUP2 PUSH20 0xFFFFFFFFFFFFFFFFFFFFFFFFFFFFFFFFFFFFFFFF MUL NOT AND SWAP1 DUP4 PUSH20 0xFFFFFFFFFFFFFFFFFFFFFFFFFFFFFFFFFFFFFFFF AND MUL OR SWAP1 SSTORE POP DUP2 PUSH20 0xFFFFFFFFFFFFFFFFFFFFFFFFFFFFFFFFFFFFFFFF AND DUP2 PUSH20 0xFFFFFFFFFFFFFFFFFFFFFFFFFFFFFFFFFFFFFFFF AND PUSH32 0x8BE0079C531659141344CD1FD0A4F28419497F9722A3DAAFE3B4186F6B6457E0 PUSH1 0x40 MLOAD PUSH1 0x40 MLOAD DUP1 SWAP2 SUB SWAP1 LOG3 POP POP JUMP JUMPDEST PUSH2 0x2A90 DUP1 PUSH3 0x13B PUSH1 0x0 CODECOPY PUSH1 0x0 RETURN INVALID PUSH1 0x80 PUSH1 0x40 MSTORE PUSH1 0x4 CALLDATASIZE LT PUSH2 0xF3 JUMPI PUSH1 0x0 CALLDATALOAD PUSH1 0xE0 SHR DUP1 PUSH4 0x70A08231 GT PUSH2 0x8A JUMPI DUP1 PUSH4 0xB2BDFA7B GT PUSH2 0x59 JUMPI DUP1 PUSH4 0xB2BDFA7B EQ PUSH2 0x333 JUMPI DUP1 PUSH4 0xD735573D EQ PUSH2 0x35E JUMPI DUP1 PUSH4 0xE172FCA8 EQ PUSH2 0x3A2 JUMPI DUP1 PUSH4 0xF2FDE38B EQ PUSH2 0x3CB JUMPI PUSH2 0xF3 JUMP JUMPDEST DUP1 PUSH4 0x70A08231 EQ PUSH2 0x277 JUMPI DUP1 PUSH4 0x715018A6 EQ PUSH2 0x2B4 JUMPI DUP1 PUSH4 0x858B0554 EQ PUSH2 0x2CB JUMPI DUP1 PUSH4 0x8DA5CB5B EQ PUSH2 0x308 JUMPI PUSH2 0xF3 JUMP JUMPDEST DUP1 PUSH4 0x2458C544 GT PUSH2 0xC6 JUMPI DUP1 PUSH4 0x2458C544 EQ PUSH2 0x19D JUMPI DUP1 PUSH4 0x6352211E EQ PUSH2 0x1DA JUMPI DUP1 PUSH4 0x6A7D1816 EQ PUSH2 0x217 JUMPI DUP1 PUSH4 0x6B6F0494 EQ PUSH2 0x247 JUMPI PUSH2 0xF3 JUMP JUMPDEST DUP1 PUSH4 0x49A5F65 EQ PUSH2 0xF8 JUMPI DUP1 PUSH4 0x95EA7B3 EQ PUSH2 0x128 JUMPI DUP1 PUSH4 0x1C6743E4 EQ PUSH2 0x144 JUMPI DUP1 PUSH4 0x23B872DD EQ PUSH2 0x181 JUMPI JUMPDEST PUSH1 0x0 DUP1 REVERT JUMPDEST PUSH2 0x112 PUSH1 0x4 DUP1 CALLDATASIZE SUB DUP2 ADD SWAP1 PUSH2 0x10D SWAP2 SWAP1 PUSH2 0x1F8C JUMP JUMPDEST PUSH2 0x3F4 JUMP JUMPDEST PUSH1 0x40 MLOAD PUSH2 0x11F SWAP2 SWAP1 PUSH2 0x23C2 JUMP JUMPDEST PUSH1 0x40 MLOAD DUP1 SWAP2 SUB SWAP1 RETURN JUMPDEST PUSH2 0x142 PUSH1 0x4 DUP1 CALLDATASIZE SUB DUP2 ADD SWAP1 PUSH2 0x13D SWAP2 SWAP1 PUSH2 0x2017 JUMP JUMPDEST PUSH2 0x555 JUMP JUMPDEST STOP JUMPDEST CALLVALUE DUP1 ISZERO PUSH2 0x150 JUMPI PUSH1 0x0 DUP1 REVERT JUMPDEST POP PUSH2 0x16B PUSH1 0x4 DUP1 CALLDATASIZE SUB DUP2 ADD SWAP1 PUSH2 0x166 SWAP2 SWAP1 PUSH2 0x1F0C JUMP JUMPDEST PUSH2 0x673 JUMP JUMPDEST PUSH1 0x40 MLOAD PUSH2 0x178 SWAP2 SWAP1 PUSH2 0x24E5 JUMP JUMPDEST PUSH1 0x40 MLOAD DUP1 SWAP2 SUB SWAP1 RETURN JUMPDEST PUSH2 0x19B PUSH1 0x4 DUP1 CALLDATASIZE SUB DUP2 ADD SWAP1 PUSH2 0x196 SWAP2 SWAP1 PUSH2 0x1F39 JUMP JUMPDEST PUSH2 0x68B JUMP JUMPDEST STOP JUMPDEST CALLVALUE DUP1 ISZERO PUSH2 0x1A9 JUMPI PUSH1 0x0 DUP1 REVERT JUMPDEST POP PUSH2 0x1C4 PUSH1 0x4 DUP1 CALLDATASIZE SUB DUP2 ADD SWAP1 PUSH2 0x1BF SWAP2 SWAP1 PUSH2 0x2057 JUMP JUMPDEST PUSH2 0x76F JUMP JUMPDEST PUSH1 0x40 MLOAD PUSH2 0x1D1 SWAP2 SWAP1 PUSH2 0x24E5 JUMP JUMPDEST PUSH1 0x40 MLOAD DUP1 SWAP2 SUB SWAP1 RETURN JUMPDEST CALLVALUE DUP1 ISZERO PUSH2 0x1E6 JUMPI PUSH1 0x0 DUP1 REVERT JUMPDEST POP PUSH2 0x201 PUSH1 0x4 DUP1 CALLDATASIZE SUB DUP2 ADD SWAP1 PUSH2 0x1FC SWAP2 SWAP1 PUSH2 0x20FE JUMP JUMPDEST PUSH2 0xA51 JUMP JUMPDEST PUSH1 0x40 MLOAD PUSH2 0x20E SWAP2 SWAP1 PUSH2 0x2314 JUMP JUMPDEST PUSH1 0x40 MLOAD DUP1 SWAP2 SUB SWAP1 RETURN JUMPDEST PUSH2 0x231 PUSH1 0x4 DUP1 CALLDATASIZE SUB DUP2 ADD SWAP1 PUSH2 0x22C SWAP2 SWAP1 PUSH2 0x1F0C JUMP JUMPDEST PUSH2 0xA8E JUMP JUMPDEST PUSH1 0x40 MLOAD PUSH2 0x23E SWAP2 SWAP1 PUSH2 0x23C2 JUMP JUMPDEST PUSH1 0x40 MLOAD DUP1 SWAP2 SUB SWAP1 RETURN JUMPDEST PUSH2 0x261 PUSH1 0x4 DUP1 CALLDATASIZE SUB DUP2 ADD SWAP1 PUSH2 0x25C SWAP2 SWAP1 PUSH2 0x20FE JUMP JUMPDEST PUSH2 0xBE3 JUMP JUMPDEST PUSH1 0x40 MLOAD PUSH2 0x26E SWAP2 SWAP1 PUSH2 0x23C2 JUMP JUMPDEST PUSH1 0x40 MLOAD DUP1 SWAP2 SUB SWAP1 RETURN JUMPDEST CALLVALUE DUP1 ISZERO PUSH2 0x283 JUMPI PUSH1 0x0 DUP1 REVERT JUMPDEST POP PUSH2 0x29E PUSH1 0x4 DUP1 CALLDATASIZE SUB DUP2 ADD SWAP1 PUSH2 0x299 SWAP2 SWAP1 PUSH2 0x1F0C JUMP JUMPDEST PUSH2 0x151E JUMP JUMPDEST PUSH1 0x40 MLOAD PUSH2 0x2AB SWAP2 SWAP1 PUSH2 0x24E5 JUMP JUMPDEST PUSH1 0x40 MLOAD DUP1 SWAP2 SUB SWAP1 RETURN JUMPDEST CALLVALUE DUP1 ISZERO PUSH2 0x2C0 JUMPI PUSH1 0x0 DUP1 REVERT JUMPDEST POP PUSH2 0x2C9 PUSH2 0x1567 JUMP JUMPDEST STOP JUMPDEST CALLVALUE DUP1 ISZERO PUSH2 0x2D7 JUMPI PUSH1 0x0 DUP1 REVERT JUMPDEST POP PUSH2 0x2F2 PUSH1 0x4 DUP1 CALLDATASIZE SUB DUP2 ADD SWAP1 PUSH2 0x2ED SWAP2 SWAP1 PUSH2 0x20FE JUMP JUMPDEST PUSH2 0x15EF JUMP JUMPDEST PUSH1 0x40 MLOAD PUSH2 0x2FF SWAP2 SWAP1 PUSH2 0x2314 JUMP JUMPDEST PUSH1 0x40 MLOAD DUP1 SWAP2 SUB SWAP1 RETURN JUMPDEST CALLVALUE DUP1 ISZERO PUSH2 0x314 JUMPI PUSH1 0x0 DUP1 REVERT JUMPDEST POP PUSH2 0x31D PUSH2 0x1622 JUMP JUMPDEST PUSH1 0x40 MLOAD PUSH2 0x32A SWAP2 SWAP1 PUSH2 0x2314 JUMP JUMPDEST PUSH1 0x40 MLOAD DUP1 SWAP2 SUB SWAP1 RETURN JUMPDEST CALLVALUE DUP1 ISZERO PUSH2 0x33F JUMPI PUSH1 0x0 DUP1 REVERT JUMPDEST POP PUSH2 0x348 PUSH2 0x164B JUMP JUMPDEST PUSH1 0x40 MLOAD PUSH2 0x355 SWAP2 SWAP1 PUSH2 0x2314 JUMP JUMPDEST PUSH1 0x40 MLOAD DUP1 SWAP2 SUB SWAP1 RETURN JUMPDEST CALLVALUE DUP1 ISZERO PUSH2 0x36A JUMPI PUSH1 0x0 DUP1 REVERT JUMPDEST POP PUSH2 0x385 PUSH1 0x4 DUP1 CALLDATASIZE SUB DUP2 ADD SWAP1 PUSH2 0x380 SWAP2 SWAP1 PUSH2 0x20FE JUMP JUMPDEST PUSH2 0x166F JUMP JUMPDEST PUSH1 0x40 MLOAD PUSH2 0x399 SWAP9 SWAP8 SWAP7 SWAP6 SWAP5 SWAP4 SWAP3 SWAP2 SWAP1 PUSH2 0x232F JUMP JUMPDEST PUSH1 0x40 MLOAD DUP1 SWAP2 SUB SWAP1 RETURN JUMPDEST CALLVALUE DUP1 ISZERO PUSH2 0x3AE JUMPI PUSH1 0x0 DUP1 REVERT JUMPDEST POP PUSH2 0x3C9 PUSH1 0x4 DUP1 CALLDATASIZE SUB DUP2 ADD SWAP1 PUSH2 0x3C4 SWAP2 SWAP1 PUSH2 0x1F0C JUMP JUMPDEST PUSH2 0x188F JUMP JUMPDEST STOP JUMPDEST CALLVALUE DUP1 ISZERO PUSH2 0x3D7 JUMPI PUSH1 0x0 DUP1 REVERT JUMPDEST POP PUSH2 0x3F2 PUSH1 0x4 DUP1 CALLDATASIZE SUB DUP2 ADD SWAP1 PUSH2 0x3ED SWAP2 SWAP1 PUSH2 0x1F0C JUMP JUMPDEST PUSH2 0x1A36 JUMP JUMPDEST STOP JUMPDEST PUSH1 0x60 DUP4 PUSH20 0xFFFFFFFFFFFFFFFFFFFFFFFFFFFFFFFFFFFFFFFF AND CALLER PUSH20 0xFFFFFFFFFFFFFFFFFFFFFFFFFFFFFFFFFFFFFFFF AND EQ PUSH2 0x42E JUMPI PUSH1 0x0 DUP1 REVERT JUMPDEST PUSH1 0x5 SLOAD CALLVALUE EQ PUSH2 0x43C JUMPI PUSH1 0x0 DUP1 REVERT JUMPDEST PUSH1 0x0 JUMPDEST PUSH1 0x6 DUP1 SLOAD SWAP1 POP DUP2 LT ISZERO PUSH2 0x54D JUMPI CALLER PUSH20 0xFFFFFFFFFFFFFFFFFFFFFFFFFFFFFFFFFFFFFFFF AND PUSH1 0x6 DUP3 DUP2 SLOAD DUP2 LT PUSH2 0x477 JUMPI PUSH2 0x476 PUSH2 0x286A JUMP JUMPDEST JUMPDEST SWAP1 PUSH1 0x0 MSTORE PUSH1 0x20 PUSH1 0x0 KECCAK256 SWAP1 PUSH1 0x8 MUL ADD PUSH1 0x0 ADD PUSH1 0x0 SWAP1 SLOAD SWAP1 PUSH2 0x100 EXP SWAP1 DIV PUSH20 0xFFFFFFFFFFFFFFFFFFFFFFFFFFFFFFFFFFFFFFFF AND PUSH20 0xFFFFFFFFFFFFFFFFFFFFFFFFFFFFFFFFFFFFFFFF AND EQ ISZERO PUSH2 0x53A JUMPI DUP4 PUSH1 0x6 DUP3 DUP2 SLOAD DUP2 LT PUSH2 0x4DA JUMPI PUSH2 0x4D9 PUSH2 0x286A JUMP JUMPDEST JUMPDEST SWAP1 PUSH1 0x0 MSTORE PUSH1 0x20 PUSH1 0x0 KECCAK256 SWAP1 PUSH1 0x8 MUL ADD PUSH1 0x1 ADD SWAP1 DUP1 MLOAD SWAP1 PUSH1 0x20 ADD SWAP1 PUSH2 0x4FE SWAP3 SWAP2 SWAP1 PUSH2 0x1DCF JUMP JUMPDEST POP DUP3 PUSH1 0x6 DUP3 DUP2 SLOAD DUP2 LT PUSH2 0x514 JUMPI PUSH2 0x513 PUSH2 0x286A JUMP JUMPDEST JUMPDEST SWAP1 PUSH1 0x0 MSTORE PUSH1 0x20 PUSH1 0x0 KECCAK256 SWAP1 PUSH1 0x8 MUL ADD PUSH1 0x2 ADD SWAP1 DUP1 MLOAD SWAP1 PUSH1 0x20 ADD SWAP1 PUSH2 0x538 SWAP3 SWAP2 SWAP1 PUSH2 0x1DCF JUMP JUMPDEST POP JUMPDEST DUP1 DUP1 PUSH2 0x545 SWAP1 PUSH2 0x272C JUMP JUMPDEST SWAP2 POP POP PUSH2 0x43F JUMP JUMPDEST POP SWAP4 SWAP3 POP POP POP JUMP JUMPDEST DUP1 PUSH1 0x7 PUSH1 0x0 DUP3 DUP2 MSTORE PUSH1 0x20 ADD SWAP1 DUP2 MSTORE PUSH1 0x20 ADD PUSH1 0x0 KECCAK256 PUSH1 0x0 SWAP1 SLOAD SWAP1 PUSH2 0x100 EXP SWAP1 DIV PUSH20 0xFFFFFFFFFFFFFFFFFFFFFFFFFFFFFFFFFFFFFFFF AND PUSH20 0xFFFFFFFFFFFFFFFFFFFFFFFFFFFFFFFFFFFFFFFF AND CALLER PUSH20 0xFFFFFFFFFFFFFFFFFFFFFFFFFFFFFFFFFFFFFFFF AND EQ PUSH2 0x5C1 JUMPI PUSH1 0x0 DUP1 REVERT JUMPDEST DUP3 PUSH1 0x9 PUSH1 0x0 DUP5 DUP2 MSTORE PUSH1 0x20 ADD SWAP1 DUP2 MSTORE PUSH1 0x20 ADD PUSH1 0x0 KECCAK256 PUSH1 0x0 PUSH2 0x100 EXP DUP2 SLOAD DUP2 PUSH20 0xFFFFFFFFFFFFFFFFFFFFFFFFFFFFFFFFFFFFFFFF MUL NOT AND SWAP1 DUP4 PUSH20 0xFFFFFFFFFFFFFFFFFFFFFFFFFFFFFFFFFFFFFFFF AND MUL OR SWAP1 SSTORE POP DUP2 DUP4 PUSH20 0xFFFFFFFFFFFFFFFFFFFFFFFFFFFFFFFFFFFFFFFF AND CALLER PUSH20 0xFFFFFFFFFFFFFFFFFFFFFFFFFFFFFFFFFFFFFFFF AND PUSH32 0x8C5BE1E5EBEC7D5BD14F71427D1E84F3DD0314C0F7B2291E5B200AC8C7C3B925 PUSH1 0x40 MLOAD PUSH1 0x40 MLOAD DUP1 SWAP2 SUB SWAP1 LOG4 POP POP POP JUMP JUMPDEST PUSH1 0x8 PUSH1 0x20 MSTORE DUP1 PUSH1 0x0 MSTORE PUSH1 0x40 PUSH1 0x0 KECCAK256 PUSH1 0x0 SWAP2 POP SWAP1 POP SLOAD DUP2 JUMP JUMPDEST CALLER PUSH20 0xFFFFFFFFFFFFFFFFFFFFFFFFFFFFFFFFFFFFFFFF AND PUSH1 0x7 PUSH1 0x0 DUP4 DUP2 MSTORE PUSH1 0x20 ADD SWAP1 DUP2 MSTORE PUSH1 0x20 ADD PUSH1 0x0 KECCAK256 PUSH1 0x0 SWAP1 SLOAD SWAP1 PUSH2 0x100 EXP SWAP1 DIV PUSH20 0xFFFFFFFFFFFFFFFFFFFFFFFFFFFFFFFFFFFFFFFF AND PUSH20 0xFFFFFFFFFFFFFFFFFFFFFFFFFFFFFFFFFFFFFFFF AND EQ DUP1 PUSH2 0x756 JUMPI POP CALLER PUSH20 0xFFFFFFFFFFFFFFFFFFFFFFFFFFFFFFFFFFFFFFFF AND PUSH1 0x9 PUSH1 0x0 DUP4 DUP2 MSTORE PUSH1 0x20 ADD SWAP1 DUP2 MSTORE PUSH1 0x20 ADD PUSH1 0x0 KECCAK256 PUSH1 0x0 SWAP1 SLOAD SWAP1 PUSH2 0x100 EXP SWAP1 DIV PUSH20 0xFFFFFFFFFFFFFFFFFFFFFFFFFFFFFFFFFFFFFFFF AND PUSH20 0xFFFFFFFFFFFFFFFFFFFFFFFFFFFFFFFFFFFFFFFF AND EQ JUMPDEST PUSH2 0x75F JUMPI PUSH1 0x0 DUP1 REVERT JUMPDEST PUSH2 0x76A DUP4 DUP4 DUP4 PUSH2 0x1B2E JUMP JUMPDEST POP POP POP JUMP JUMPDEST PUSH1 0x0 PUSH1 0x1 PUSH1 0x8 PUSH1 0x0 CALLER PUSH20 0xFFFFFFFFFFFFFFFFFFFFFFFFFFFFFFFFFFFFFFFF AND PUSH20 0xFFFFFFFFFFFFFFFFFFFFFFFFFFFFFFFFFFFFFFFF AND DUP2 MSTORE PUSH1 0x20 ADD SWAP1 DUP2 MSTORE PUSH1 0x20 ADD PUSH1 0x0 KECCAK256 SLOAD LT PUSH2 0x7F3 JUMPI PUSH1 0x40 MLOAD PUSH32 0x8C379A000000000000000000000000000000000000000000000000000000000 DUP2 MSTORE PUSH1 0x4 ADD PUSH2 0x7EA SWAP1 PUSH2 0x2445 JUMP JUMPDEST PUSH1 0x40 MLOAD DUP1 SWAP2 SUB SWAP1 REVERT JUMPDEST PUSH1 0x6 PUSH1 0x40 MLOAD DUP1 PUSH2 0x100 ADD PUSH1 0x40 MSTORE DUP1 CALLER PUSH20 0xFFFFFFFFFFFFFFFFFFFFFFFFFFFFFFFFFFFFFFFF AND DUP2 MSTORE PUSH1 0x20 ADD DUP7 DUP2 MSTORE PUSH1 0x20 ADD DUP6 DUP2 MSTORE PUSH1 0x20 ADD DUP5 DUP2 MSTORE PUSH1 0x20 ADD PUSH1 0x0 DUP2 MSTORE PUSH1 0x20 ADD PUSH1 0x0 DUP2 MSTORE PUSH1 0x20 ADD PUSH1 0x3 SLOAD TIMESTAMP PUSH2 0x84B SWAP2 SWAP1 PUSH2 0x2587 JUMP JUMPDEST PUSH4 0xFFFFFFFF AND DUP2 MSTORE PUSH1 0x20 ADD PUSH1 0x1 PUSH4 0xFFFFFFFF AND DUP2 MSTORE POP SWAP1 DUP1 PUSH1 0x1 DUP2 SLOAD ADD DUP1 DUP3 SSTORE DUP1 SWAP2 POP POP PUSH1 0x1 SWAP1 SUB SWAP1 PUSH1 0x0 MSTORE PUSH1 0x20 PUSH1 0x0 KECCAK256 SWAP1 PUSH1 0x8 MUL ADD PUSH1 0x0 SWAP1 SWAP2 SWAP1 SWAP2 SWAP1 SWAP2 POP PUSH1 0x0 DUP3 ADD MLOAD DUP2 PUSH1 0x0 ADD PUSH1 0x0 PUSH2 0x100 EXP DUP2 SLOAD DUP2 PUSH20 0xFFFFFFFFFFFFFFFFFFFFFFFFFFFFFFFFFFFFFFFF MUL NOT AND SWAP1 DUP4 PUSH20 0xFFFFFFFFFFFFFFFFFFFFFFFFFFFFFFFFFFFFFFFF AND MUL OR SWAP1 SSTORE POP PUSH1 0x20 DUP3 ADD MLOAD DUP2 PUSH1 0x1 ADD SWAP1 DUP1 MLOAD SWAP1 PUSH1 0x20 ADD SWAP1 PUSH2 0x8ED SWAP3 SWAP2 SWAP1 PUSH2 0x1DCF JUMP JUMPDEST POP PUSH1 0x40 DUP3 ADD MLOAD DUP2 PUSH1 0x2 ADD SWAP1 DUP1 MLOAD SWAP1 PUSH1 0x20 ADD SWAP1 PUSH2 0x90A SWAP3 SWAP2 SWAP1 PUSH2 0x1DCF JUMP JUMPDEST POP PUSH1 0x60 DUP3 ADD MLOAD DUP2 PUSH1 0x3 ADD SWAP1 DUP1 MLOAD SWAP1 PUSH1 0x20 ADD SWAP1 PUSH2 0x927 SWAP3 SWAP2 SWAP1 PUSH2 0x1DCF JUMP JUMPDEST POP PUSH1 0x80 DUP3 ADD MLOAD DUP2 PUSH1 0x4 ADD SSTORE PUSH1 0xA0 DUP3 ADD MLOAD DUP2 PUSH1 0x5 ADD SSTORE PUSH1 0xC0 DUP3 ADD MLOAD DUP2 PUSH1 0x6 ADD SSTORE PUSH1 0xE0 DUP3 ADD MLOAD DUP2 PUSH1 0x7 ADD PUSH1 0x0 PUSH2 0x100 EXP DUP2 SLOAD DUP2 PUSH4 0xFFFFFFFF MUL NOT AND SWAP1 DUP4 PUSH4 0xFFFFFFFF AND MUL OR SWAP1 SSTORE POP POP POP PUSH1 0x0 PUSH1 0x6 DUP1 SLOAD SWAP1 POP SWAP1 POP CALLER PUSH1 0x7 PUSH1 0x0 DUP4 DUP2 MSTORE PUSH1 0x20 ADD SWAP1 DUP2 MSTORE PUSH1 0x20 ADD PUSH1 0x0 KECCAK256 PUSH1 0x0 PUSH2 0x100 EXP DUP2 SLOAD DUP2 PUSH20 0xFFFFFFFFFFFFFFFFFFFFFFFFFFFFFFFFFFFFFFFF MUL NOT AND SWAP1 DUP4 PUSH20 0xFFFFFFFFFFFFFFFFFFFFFFFFFFFFFFFFFFFFFFFF AND MUL OR SWAP1 SSTORE POP PUSH1 0x8 PUSH1 0x0 CALLER PUSH20 0xFFFFFFFFFFFFFFFFFFFFFFFFFFFFFFFFFFFFFFFF AND PUSH20 0xFFFFFFFFFFFFFFFFFFFFFFFFFFFFFFFFFFFFFFFF AND DUP2 MSTORE PUSH1 0x20 ADD SWAP1 DUP2 MSTORE PUSH1 0x20 ADD PUSH1 0x0 KECCAK256 PUSH1 0x0 DUP2 SLOAD DUP1 SWAP3 SWAP2 SWAP1 PUSH2 0xA1B SWAP1 PUSH2 0x272C JUMP JUMPDEST SWAP2 SWAP1 POP SSTORE POP PUSH1 0x2 PUSH1 0x0 DUP2 SLOAD DUP1 SWAP3 SWAP2 SWAP1 PUSH2 0xA33 SWAP1 PUSH2 0x272C JUMP JUMPDEST SWAP2 SWAP1 POP SSTORE POP PUSH1 0x1 PUSH1 0x2 SLOAD PUSH2 0xA47 SWAP2 SWAP1 PUSH2 0x25DD JUMP JUMPDEST SWAP2 POP POP SWAP4 SWAP3 POP POP POP JUMP JUMPDEST PUSH1 0x0 PUSH1 0x7 PUSH1 0x0 DUP4 DUP2 MSTORE PUSH1 0x20 ADD SWAP1 DUP2 MSTORE PUSH1 0x20 ADD PUSH1 0x0 KECCAK256 PUSH1 0x0 SWAP1 SLOAD SWAP1 PUSH2 0x100 EXP SWAP1 DIV PUSH20 0xFFFFFFFFFFFFFFFFFFFFFFFFFFFFFFFFFFFFFFFF AND SWAP1 POP SWAP2 SWAP1 POP JUMP JUMPDEST PUSH1 0x60 PUSH1 0x4 SLOAD CALLVALUE EQ PUSH2 0xA9E JUMPI PUSH1 0x0 DUP1 REVERT JUMPDEST PUSH1 0x0 JUMPDEST PUSH1 0x6 DUP1 SLOAD SWAP1 POP DUP2 LT ISZERO PUSH2 0xBDC JUMPI DUP3 PUSH20 0xFFFFFFFFFFFFFFFFFFFFFFFFFFFFFFFFFFFFFFFF AND PUSH1 0x6 DUP3 DUP2 SLOAD DUP2 LT PUSH2 0xAD9 JUMPI PUSH2 0xAD8 PUSH2 0x286A JUMP JUMPDEST JUMPDEST SWAP1 PUSH1 0x0 MSTORE PUSH1 0x20 PUSH1 0x0 KECCAK256 SWAP1 PUSH1 0x8 MUL ADD PUSH1 0x0 ADD PUSH1 0x0 SWAP1 SLOAD SWAP1 PUSH2 0x100 EXP SWAP1 DIV PUSH20 0xFFFFFFFFFFFFFFFFFFFFFFFFFFFFFFFFFFFFFFFF AND PUSH20 0xFFFFFFFFFFFFFFFFFFFFFFFFFFFFFFFFFFFFFFFF AND EQ ISZERO PUSH2 0xBC9 JUMPI PUSH1 0x6 DUP2 DUP2 SLOAD DUP2 LT PUSH2 0xB3B JUMPI PUSH2 0xB3A PUSH2 0x286A JUMP JUMPDEST JUMPDEST SWAP1 PUSH1 0x0 MSTORE PUSH1 0x20 PUSH1 0x0 KECCAK256 SWAP1 PUSH1 0x8 MUL ADD PUSH1 0x7 ADD PUSH1 0x0 DUP2 DUP2 SWAP1 SLOAD SWAP1 PUSH2 0x100 EXP SWAP1 DIV PUSH4 0xFFFFFFFF AND DUP1 SWAP3 SWAP2 SWAP1 PUSH2 0xB6C SWAP1 PUSH2 0x2775 JUMP JUMPDEST SWAP2 SWAP1 PUSH2 0x100 EXP DUP2 SLOAD DUP2 PUSH4 0xFFFFFFFF MUL NOT AND SWAP1 DUP4 PUSH4 0xFFFFFFFF AND MUL OR SWAP1 SSTORE POP POP PUSH1 0x40 MLOAD DUP1 PUSH1 0x40 ADD PUSH1 0x40 MSTORE DUP1 PUSH1 0x12 DUP2 MSTORE PUSH1 0x20 ADD PUSH32 0x48612073756269646F206465206E6976656C0000000000000000000000000000 DUP2 MSTORE POP SWAP2 POP POP PUSH2 0xBDE JUMP JUMPDEST DUP1 DUP1 PUSH2 0xBD4 SWAP1 PUSH2 0x272C JUMP JUMPDEST SWAP2 POP POP PUSH2 0xAA1 JUMP JUMPDEST POP JUMPDEST SWAP2 SWAP1 POP JUMP JUMPDEST PUSH1 0x60 PUSH1 0x1 PUSH1 0x6 DUP1 SLOAD SWAP1 POP GT PUSH2 0xC2C JUMPI PUSH32 0x6158FC8F21C8CC73DDF920956CC75D0E8A48B4FC85817A0BA89EB3B6D2A75441 PUSH1 0x40 MLOAD PUSH2 0xC1F SWAP1 PUSH2 0x2485 JUMP JUMPDEST PUSH1 0x40 MLOAD DUP1 SWAP2 SUB SWAP1 LOG1 PUSH2 0x1518 JUMP JUMPDEST DUP2 CALLVALUE EQ PUSH2 0xC38 JUMPI PUSH1 0x0 DUP1 REVERT JUMPDEST PUSH1 0x1 PUSH1 0x0 DUP2 SLOAD DUP1 SWAP3 SWAP2 SWAP1 PUSH2 0xC4B SWAP1 PUSH2 0x272C JUMP JUMPDEST SWAP2 SWAP1 POP SSTORE POP PUSH1 0x0 PUSH1 0x6 DUP1 SLOAD SWAP1 POP TIMESTAMP PUSH1 0x6 DUP1 SLOAD SWAP1 POP PUSH1 0x1 SLOAD PUSH1 0x40 MLOAD PUSH1 0x20 ADD PUSH2 0xC74 SWAP4 SWAP3 SWAP2 SWAP1 PUSH2 0x22D7 JUMP JUMPDEST PUSH1 0x40 MLOAD PUSH1 0x20 DUP2 DUP4 SUB SUB DUP2 MSTORE SWAP1 PUSH1 0x40 MSTORE DUP1 MLOAD SWAP1 PUSH1 0x20 ADD KECCAK256 PUSH1 0x0 SHR PUSH2 0xC97 SWAP2 SWAP1 PUSH2 0x27AC JUMP JUMPDEST SWAP1 POP PUSH1 0x0 PUSH1 0x7 PUSH1 0x0 DUP4 DUP2 MSTORE PUSH1 0x20 ADD SWAP1 DUP2 MSTORE PUSH1 0x20 ADD PUSH1 0x0 KECCAK256 PUSH1 0x0 SWAP1 SLOAD SWAP1 PUSH2 0x100 EXP SWAP1 DIV PUSH20 0xFFFFFFFFFFFFFFFFFFFFFFFFFFFFFFFFFFFFFFFF AND SWAP1 POP PUSH1 0x1 PUSH1 0x0 DUP2 SLOAD DUP1 SWAP3 SWAP2 SWAP1 PUSH2 0xCE4 SWAP1 PUSH2 0x272C JUMP JUMPDEST SWAP2 SWAP1 POP SSTORE POP PUSH1 0x0 PUSH1 0x64 SWAP1 POP PUSH1 0x0 DUP2 TIMESTAMP DUP4 PUSH1 0x1 SLOAD PUSH1 0x40 MLOAD PUSH1 0x20 ADD PUSH2 0xD09 SWAP4 SWAP3 SWAP2 SWAP1 PUSH2 0x22D7 JUMP JUMPDEST PUSH1 0x40 MLOAD PUSH1 0x20 DUP2 DUP4 SUB SUB DUP2 MSTORE SWAP1 PUSH1 0x40 MSTORE DUP1 MLOAD SWAP1 PUSH1 0x20 ADD KECCAK256 PUSH1 0x0 SHR PUSH2 0xD2C SWAP2 SWAP1 PUSH2 0x27AC JUMP JUMPDEST SWAP1 POP PUSH1 0x0 JUMPDEST PUSH1 0x6 DUP1 SLOAD SWAP1 POP DUP2 LT ISZERO PUSH2 0x1512 JUMPI PUSH1 0x6 DUP2 DUP2 SLOAD DUP2 LT PUSH2 0xD52 JUMPI PUSH2 0xD51 PUSH2 0x286A JUMP JUMPDEST JUMPDEST SWAP1 PUSH1 0x0 MSTORE PUSH1 0x20 PUSH1 0x0 KECCAK256 SWAP1 PUSH1 0x8 MUL ADD PUSH1 0x0 ADD PUSH1 0x0 SWAP1 SLOAD SWAP1 PUSH2 0x100 EXP SWAP1 DIV PUSH20 0xFFFFFFFFFFFFFFFFFFFFFFFFFFFFFFFFFFFFFFFF AND PUSH20 0xFFFFFFFFFFFFFFFFFFFFFFFFFFFFFFFFFFFFFFFF AND CALLER PUSH20 0xFFFFFFFFFFFFFFFFFFFFFFFFFFFFFFFFFFFFFFFF AND EQ ISZERO PUSH2 0x14FF JUMPI PUSH2 0xDE1 PUSH1 0x6 DUP3 DUP2 SLOAD DUP2 LT PUSH2 0xDCE JUMPI PUSH2 0xDCD PUSH2 0x286A JUMP JUMPDEST JUMPDEST SWAP1 PUSH1 0x0 MSTORE PUSH1 0x20 PUSH1 0x0 KECCAK256 SWAP1 PUSH1 0x8 MUL ADD PUSH2 0x1C8A JUMP JUMPDEST PUSH2 0xDEA JUMPI PUSH1 0x0 DUP1 REVERT JUMPDEST PUSH1 0x6 DUP2 DUP2 SLOAD DUP2 LT PUSH2 0xDFE JUMPI PUSH2 0xDFD PUSH2 0x286A JUMP JUMPDEST JUMPDEST SWAP1 PUSH1 0x0 MSTORE PUSH1 0x20 PUSH1 0x0 KECCAK256 SWAP1 PUSH1 0x8 MUL ADD PUSH1 0x5 ADD PUSH1 0x0 DUP2 SLOAD DUP1 SWAP3 SWAP2 SWAP1 PUSH2 0xE20 SWAP1 PUSH2 0x272C JUMP JUMPDEST SWAP2 SWAP1 POP SSTORE POP PUSH1 0x6 DUP6 DUP2 SLOAD DUP2 LT PUSH2 0xE39 JUMPI PUSH2 0xE38 PUSH2 0x286A JUMP JUMPDEST JUMPDEST SWAP1 PUSH1 0x0 MSTORE PUSH1 0x20 PUSH1 0x0 KECCAK256 SWAP1 PUSH1 0x8 MUL ADD PUSH1 0x5 ADD PUSH1 0x0 DUP2 SLOAD DUP1 SWAP3 SWAP2 SWAP1 PUSH2 0xE5B SWAP1 PUSH2 0x272C JUMP JUMPDEST SWAP2 SWAP1 POP SSTORE POP PUSH2 0xE8A PUSH1 0x6 DUP3 DUP2 SLOAD DUP2 LT PUSH2 0xE77 JUMPI PUSH2 0xE76 PUSH2 0x286A JUMP JUMPDEST JUMPDEST SWAP1 PUSH1 0x0 MSTORE PUSH1 0x20 PUSH1 0x0 KECCAK256 SWAP1 PUSH1 0x8 MUL ADD PUSH2 0x1C9B JUMP JUMPDEST PUSH1 0x6 DUP2 DUP2 SLOAD DUP2 LT PUSH2 0xE9E JUMPI PUSH2 0xE9D PUSH2 0x286A JUMP JUMPDEST JUMPDEST SWAP1 PUSH1 0x0 MSTORE PUSH1 0x20 PUSH1 0x0 KECCAK256 SWAP1 PUSH1 0x8 MUL ADD PUSH1 0x7 ADD PUSH1 0x0 SWAP1 SLOAD SWAP1 PUSH2 0x100 EXP SWAP1 DIV PUSH4 0xFFFFFFFF AND PUSH4 0xFFFFFFFF AND PUSH1 0x6 DUP7 DUP2 SLOAD DUP2 LT PUSH2 0xEDA JUMPI PUSH2 0xED9 PUSH2 0x286A JUMP JUMPDEST JUMPDEST SWAP1 PUSH1 0x0 MSTORE PUSH1 0x20 PUSH1 0x0 KECCAK256 SWAP1 PUSH1 0x8 MUL ADD PUSH1 0x7 ADD PUSH1 0x0 SWAP1 SLOAD SWAP1 PUSH2 0x100 EXP SWAP1 DIV PUSH4 0xFFFFFFFF AND PUSH4 0xFFFFFFFF AND LT ISZERO PUSH2 0x10DB JUMPI PUSH1 0x3C DUP3 GT PUSH2 0xFF9 JUMPI PUSH2 0xF18 PUSH2 0x1CBA JUMP JUMPDEST PUSH1 0x6 DUP2 DUP2 SLOAD DUP2 LT PUSH2 0xF2C JUMPI PUSH2 0xF2B PUSH2 0x286A JUMP JUMPDEST JUMPDEST SWAP1 PUSH1 0x0 MSTORE PUSH1 0x20 PUSH1 0x0 KECCAK256 SWAP1 PUSH1 0x8 MUL ADD PUSH1 0x4 ADD PUSH1 0x0 DUP2 SLOAD DUP1 SWAP3 SWAP2 SWAP1 PUSH2 0xF4E SWAP1 PUSH2 0x272C JUMP JUMPDEST SWAP2 SWAP1 POP SSTORE POP PUSH1 0x6 DUP2 DUP2 SLOAD DUP2 LT PUSH2 0xF67 JUMPI PUSH2 0xF66 PUSH2 0x286A JUMP JUMPDEST JUMPDEST SWAP1 PUSH1 0x0 MSTORE PUSH1 0x20 PUSH1 0x0 KECCAK256 SWAP1 PUSH1 0x8 MUL ADD PUSH1 0x7 ADD PUSH1 0x0 DUP2 DUP2 SWAP1 SLOAD SWAP1 PUSH2 0x100 EXP SWAP1 DIV PUSH4 0xFFFFFFFF AND DUP1 SWAP3 SWAP2 SWAP1 PUSH2 0xF98 SWAP1 PUSH2 0x2775 JUMP JUMPDEST SWAP2 SWAP1 PUSH2 0x100 EXP DUP2 SLOAD DUP2 PUSH4 0xFFFFFFFF MUL NOT AND SWAP1 DUP4 PUSH4 0xFFFFFFFF AND MUL OR SWAP1 SSTORE POP POP PUSH1 0x40 MLOAD DUP1 PUSH1 0x40 ADD PUSH1 0x40 MSTORE DUP1 PUSH1 0xA DUP2 MSTORE PUSH1 0x20 ADD PUSH32 0x4861732067616E61646F00000000000000000000000000000000000000000000 DUP2 MSTORE POP SWAP6 POP POP POP POP POP POP PUSH2 0x1519 JUMP JUMPDEST PUSH32 0x6158FC8F21C8CC73DDF920956CC75D0E8A48B4FC85817A0BA89EB3B6D2A75441 PUSH1 0x40 MLOAD PUSH2 0x1026 SWAP1 PUSH2 0x24C5 JUMP JUMPDEST PUSH1 0x40 MLOAD DUP1 SWAP2 SUB SWAP1 LOG1 ADDRESS PUSH20 0xFFFFFFFFFFFFFFFFFFFFFFFFFFFFFFFFFFFFFFFF AND PUSH4 0xE172FCA8 DUP6 PUSH1 0x40 MLOAD DUP3 PUSH4 0xFFFFFFFF AND PUSH1 0xE0 SHL DUP2 MSTORE PUSH1 0x4 ADD PUSH2 0x1067 SWAP2 SWAP1 PUSH2 0x2314 JUMP JUMPDEST PUSH1 0x0 PUSH1 0x40 MLOAD DUP1 DUP4 SUB DUP2 PUSH1 0x0 DUP8 DUP1 EXTCODESIZE ISZERO DUP1 ISZERO PUSH2 0x1081 JUMPI PUSH1 0x0 DUP1 REVERT JUMPDEST POP GAS CALL ISZERO DUP1 ISZERO PUSH2 0x1095 JUMPI RETURNDATASIZE PUSH1 0x0 DUP1 RETURNDATACOPY RETURNDATASIZE PUSH1 0x0 REVERT JUMPDEST POP POP POP POP PUSH1 0x40 MLOAD DUP1 PUSH1 0x40 ADD PUSH1 0x40 MSTORE DUP1 PUSH1 0xB DUP2 MSTORE PUSH1 0x20 ADD PUSH32 0x486173207065726469646F000000000000000000000000000000000000000000 DUP2 MSTORE POP SWAP6 POP POP POP POP POP POP PUSH2 0x1519 JUMP JUMPDEST PUSH1 0x6 DUP2 DUP2 SLOAD DUP2 LT PUSH2 0x10EF JUMPI PUSH2 0x10EE PUSH2 0x286A JUMP JUMPDEST JUMPDEST SWAP1 PUSH1 0x0 MSTORE PUSH1 0x20 PUSH1 0x0 KECCAK256 SWAP1 PUSH1 0x8 MUL ADD PUSH1 0x7 ADD PUSH1 0x0 SWAP1 SLOAD SWAP1 PUSH2 0x100 EXP SWAP1 DIV PUSH4 0xFFFFFFFF AND PUSH4 0xFFFFFFFF AND PUSH1 0x6 DUP7 DUP2 SLOAD DUP2 LT PUSH2 0x112B JUMPI PUSH2 0x112A PUSH2 0x286A JUMP JUMPDEST JUMPDEST SWAP1 PUSH1 0x0 MSTORE PUSH1 0x20 PUSH1 0x0 KECCAK256 SWAP1 PUSH1 0x8 MUL ADD PUSH1 0x7 ADD PUSH1 0x0 SWAP1 SLOAD SWAP1 PUSH2 0x100 EXP SWAP1 DIV PUSH4 0xFFFFFFFF AND PUSH4 0xFFFFFFFF AND EQ ISZERO PUSH2 0x132C JUMPI PUSH1 0x32 DUP3 GT PUSH2 0x124A JUMPI PUSH2 0x1169 PUSH2 0x1CBA JUMP JUMPDEST PUSH1 0x6 DUP2 DUP2 SLOAD DUP2 LT PUSH2 0x117D JUMPI PUSH2 0x117C PUSH2 0x286A JUMP JUMPDEST JUMPDEST SWAP1 PUSH1 0x0 MSTORE PUSH1 0x20 PUSH1 0x0 KECCAK256 SWAP1 PUSH1 0x8 MUL ADD PUSH1 0x4 ADD PUSH1 0x0 DUP2 SLOAD DUP1 SWAP3 SWAP2 SWAP1 PUSH2 0x119F SWAP1 PUSH2 0x272C JUMP JUMPDEST SWAP2 SWAP1 POP SSTORE POP PUSH1 0x6 DUP2 DUP2 SLOAD DUP2 LT PUSH2 0x11B8 JUMPI PUSH2 0x11B7 PUSH2 0x286A JUMP JUMPDEST JUMPDEST SWAP1 PUSH1 0x0 MSTORE PUSH1 0x20 PUSH1 0x0 KECCAK256 SWAP1 PUSH1 0x8 MUL ADD PUSH1 0x7 ADD PUSH1 0x0 DUP2 DUP2 SWAP1 SLOAD SWAP1 PUSH2 0x100 EXP SWAP1 DIV PUSH4 0xFFFFFFFF AND DUP1 SWAP3 SWAP2 SWAP1 PUSH2 0x11E9 SWAP1 PUSH2 0x2775 JUMP JUMPDEST SWAP2 SWAP1 PUSH2 0x100 EXP DUP2 SLOAD DUP2 PUSH4 0xFFFFFFFF MUL NOT AND SWAP1 DUP4 PUSH4 0xFFFFFFFF AND MUL OR SWAP1 SSTORE POP POP PUSH1 0x40 MLOAD DUP1 PUSH1 0x40 ADD PUSH1 0x40 MSTORE DUP1 PUSH1 0xA DUP2 MSTORE PUSH1 0x20 ADD PUSH32 0x4861732067616E61646F00000000000000000000000000000000000000000000 DUP2 MSTORE POP SWAP6 POP POP POP POP POP POP PUSH2 0x1519 JUMP JUMPDEST PUSH32 0x6158FC8F21C8CC73DDF920956CC75D0E8A48B4FC85817A0BA89EB3B6D2A75441 PUSH1 0x40 MLOAD PUSH2 0x1277 SWAP1 PUSH2 0x24C5 JUMP JUMPDEST PUSH1 0x40 MLOAD DUP1 SWAP2 SUB SWAP1 LOG1 ADDRESS PUSH20 0xFFFFFFFFFFFFFFFFFFFFFFFFFFFFFFFFFFFFFFFF AND PUSH4 0xE172FCA8 DUP6 PUSH1 0x40 MLOAD DUP3 PUSH4 0xFFFFFFFF AND PUSH1 0xE0 SHL DUP2 MSTORE PUSH1 0x4 ADD PUSH2 0x12B8 SWAP2 SWAP1 PUSH2 0x2314 JUMP JUMPDEST PUSH1 0x0 PUSH1 0x40 MLOAD DUP1 DUP4 SUB DUP2 PUSH1 0x0 DUP8 DUP1 EXTCODESIZE ISZERO DUP1 ISZERO PUSH2 0x12D2 JUMPI PUSH1 0x0 DUP1 REVERT JUMPDEST POP GAS CALL ISZERO DUP1 ISZERO PUSH2 0x12E6 JUMPI RETURNDATASIZE PUSH1 0x0 DUP1 RETURNDATACOPY RETURNDATASIZE PUSH1 0x0 REVERT JUMPDEST POP POP POP POP PUSH1 0x40 MLOAD DUP1 PUSH1 0x40 ADD PUSH1 0x40 MSTORE DUP1 PUSH1 0xB DUP2 MSTORE PUSH1 0x20 ADD PUSH32 0x486173207065726469646F000000000000000000000000000000000000000000 DUP2 MSTORE POP SWAP6 POP POP POP POP POP POP PUSH2 0x1519 JUMP JUMPDEST PUSH1 0x28 DUP3 GT PUSH2 0x141D JUMPI PUSH2 0x133C PUSH2 0x1CBA JUMP JUMPDEST PUSH1 0x6 DUP2 DUP2 SLOAD DUP2 LT PUSH2 0x1350 JUMPI PUSH2 0x134F PUSH2 0x286A JUMP JUMPDEST JUMPDEST SWAP1 PUSH1 0x0 MSTORE PUSH1 0x20 PUSH1 0x0 KECCAK256 SWAP1 PUSH1 0x8 MUL ADD PUSH1 0x4 ADD PUSH1 0x0 DUP2 SLOAD DUP1 SWAP3 SWAP2 SWAP1 PUSH2 0x1372 SWAP1 PUSH2 0x272C JUMP JUMPDEST SWAP2 SWAP1 POP SSTORE POP PUSH1 0x6 DUP2 DUP2 SLOAD DUP2 LT PUSH2 0x138B JUMPI PUSH2 0x138A PUSH2 0x286A JUMP JUMPDEST JUMPDEST SWAP1 PUSH1 0x0 MSTORE PUSH1 0x20 PUSH1 0x0 KECCAK256 SWAP1 PUSH1 0x8 MUL ADD PUSH1 0x7 ADD PUSH1 0x0 DUP2 DUP2 SWAP1 SLOAD SWAP1 PUSH2 0x100 EXP SWAP1 DIV PUSH4 0xFFFFFFFF AND DUP1 SWAP3 SWAP2 SWAP1 PUSH2 0x13BC SWAP1 PUSH2 0x2775 JUMP JUMPDEST SWAP2 SWAP1 PUSH2 0x100 EXP DUP2 SLOAD DUP2 PUSH4 0xFFFFFFFF MUL NOT AND SWAP1 DUP4 PUSH4 0xFFFFFFFF AND MUL OR SWAP1 SSTORE POP POP PUSH1 0x40 MLOAD DUP1 PUSH1 0x40 ADD PUSH1 0x40 MSTORE DUP1 PUSH1 0xA DUP2 MSTORE PUSH1 0x20 ADD PUSH32 0x4861732067616E61646F00000000000000000000000000000000000000000000 DUP2 MSTORE POP SWAP6 POP POP POP POP POP POP PUSH2 0x1519 JUMP JUMPDEST PUSH32 0x6158FC8F21C8CC73DDF920956CC75D0E8A48B4FC85817A0BA89EB3B6D2A75441 PUSH1 0x40 MLOAD PUSH2 0x144A SWAP1 PUSH2 0x24C5 JUMP JUMPDEST PUSH1 0x40 MLOAD DUP1 SWAP2 SUB SWAP1 LOG1 ADDRESS PUSH20 0xFFFFFFFFFFFFFFFFFFFFFFFFFFFFFFFFFFFFFFFF AND PUSH4 0xE172FCA8 DUP6 PUSH1 0x40 MLOAD DUP3 PUSH4 0xFFFFFFFF AND PUSH1 0xE0 SHL DUP2 MSTORE PUSH1 0x4 ADD PUSH2 0x148B SWAP2 SWAP1 PUSH2 0x2314 JUMP JUMPDEST PUSH1 0x0 PUSH1 0x40 MLOAD DUP1 DUP4 SUB DUP2 PUSH1 0x0 DUP8 DUP1 EXTCODESIZE ISZERO DUP1 ISZERO PUSH2 0x14A5 JUMPI PUSH1 0x0 DUP1 REVERT JUMPDEST POP GAS CALL ISZERO DUP1 ISZERO PUSH2 0x14B9 JUMPI RETURNDATASIZE PUSH1 0x0 DUP1 RETURNDATACOPY RETURNDATASIZE PUSH1 0x0 REVERT JUMPDEST POP POP POP POP PUSH1 0x40 MLOAD DUP1 PUSH1 0x40 ADD PUSH1 0x40 MSTORE DUP1 PUSH1 0xB DUP2 MSTORE PUSH1 0x20 ADD PUSH32 0x486173207065726469646F000000000000000000000000000000000000000000 DUP2 MSTORE POP SWAP6 POP POP POP POP POP POP PUSH2 0x1519 JUMP JUMPDEST DUP1 DUP1 PUSH2 0x150A SWAP1 PUSH2 0x272C JUMP JUMPDEST SWAP2 POP POP PUSH2 0xD31 JUMP JUMPDEST POP POP POP POP POP JUMPDEST JUMPDEST SWAP2 SWAP1 POP JUMP JUMPDEST PUSH1 0x0 PUSH1 0x8 PUSH1 0x0 DUP4 PUSH20 0xFFFFFFFFFFFFFFFFFFFFFFFFFFFFFFFFFFFFFFFF AND PUSH20 0xFFFFFFFFFFFFFFFFFFFFFFFFFFFFFFFFFFFFFFFF AND DUP2 MSTORE PUSH1 0x20 ADD SWAP1 DUP2 MSTORE PUSH1 0x20 ADD PUSH1 0x0 KECCAK256 SLOAD SWAP1 POP SWAP2 SWAP1 POP JUMP JUMPDEST PUSH2 0x156F PUSH2 0x1D03 JUMP JUMPDEST PUSH20 0xFFFFFFFFFFFFFFFFFFFFFFFFFFFFFFFFFFFFFFFF AND PUSH2 0x158D PUSH2 0x1622 JUMP JUMPDEST PUSH20 0xFFFFFFFFFFFFFFFFFFFFFFFFFFFFFFFFFFFFFFFF AND EQ PUSH2 0x15E3 JUMPI PUSH1 0x40 MLOAD PUSH32 0x8C379A000000000000000000000000000000000000000000000000000000000 DUP2 MSTORE PUSH1 0x4 ADD PUSH2 0x15DA SWAP1 PUSH2 0x24A5 JUMP JUMPDEST PUSH1 0x40 MLOAD DUP1 SWAP2 SUB SWAP1 REVERT JUMPDEST PUSH2 0x15ED PUSH1 0x0 PUSH2 0x1D0B JUMP JUMPDEST JUMP JUMPDEST PUSH1 0x7 PUSH1 0x20 MSTORE DUP1 PUSH1 0x0 MSTORE PUSH1 0x40 PUSH1 0x0 KECCAK256 PUSH1 0x0 SWAP2 POP SLOAD SWAP1 PUSH2 0x100 EXP SWAP1 DIV PUSH20 0xFFFFFFFFFFFFFFFFFFFFFFFFFFFFFFFFFFFFFFFF AND DUP2 JUMP JUMPDEST PUSH1 0x0 DUP1 PUSH1 0x0 SWAP1 SLOAD SWAP1 PUSH2 0x100 EXP SWAP1 DIV PUSH20 0xFFFFFFFFFFFFFFFFFFFFFFFFFFFFFFFFFFFFFFFF AND SWAP1 POP SWAP1 JUMP JUMPDEST PUSH1 0x0 DUP1 SLOAD SWAP1 PUSH2 0x100 EXP SWAP1 DIV PUSH20 0xFFFFFFFFFFFFFFFFFFFFFFFFFFFFFFFFFFFFFFFF AND DUP2 JUMP JUMPDEST PUSH1 0x6 DUP2 DUP2 SLOAD DUP2 LT PUSH2 0x167F JUMPI PUSH1 0x0 DUP1 REVERT JUMPDEST SWAP1 PUSH1 0x0 MSTORE PUSH1 0x20 PUSH1 0x0 KECCAK256 SWAP1 PUSH1 0x8 MUL ADD PUSH1 0x0 SWAP2 POP SWAP1 POP DUP1 PUSH1 0x0 ADD PUSH1 0x0 SWAP1 SLOAD SWAP1 PUSH2 0x100 EXP SWAP1 DIV PUSH20 0xFFFFFFFFFFFFFFFFFFFFFFFFFFFFFFFFFFFFFFFF AND SWAP1 DUP1 PUSH1 0x1 ADD DUP1 SLOAD PUSH2 0x16C8 SWAP1 PUSH2 0x26C9 JUMP JUMPDEST DUP1 PUSH1 0x1F ADD PUSH1 0x20 DUP1 SWAP2 DIV MUL PUSH1 0x20 ADD PUSH1 0x40 MLOAD SWAP1 DUP2 ADD PUSH1 0x40 MSTORE DUP1 SWAP3 SWAP2 SWAP1 DUP2 DUP2 MSTORE PUSH1 0x20 ADD DUP3 DUP1 SLOAD PUSH2 0x16F4 SWAP1 PUSH2 0x26C9 JUMP JUMPDEST DUP1 ISZERO PUSH2 0x1741 JUMPI DUP1 PUSH1 0x1F LT PUSH2 0x1716 JUMPI PUSH2 0x100 DUP1 DUP4 SLOAD DIV MUL DUP4 MSTORE SWAP2 PUSH1 0x20 ADD SWAP2 PUSH2 0x1741 JUMP JUMPDEST DUP3 ADD SWAP2 SWAP1 PUSH1 0x0 MSTORE PUSH1 0x20 PUSH1 0x0 KECCAK256 SWAP1 JUMPDEST DUP2 SLOAD DUP2 MSTORE SWAP1 PUSH1 0x1 ADD SWAP1 PUSH1 0x20 ADD DUP1 DUP4 GT PUSH2 0x1724 JUMPI DUP3 SWAP1 SUB PUSH1 0x1F AND DUP3 ADD SWAP2 JUMPDEST POP POP POP POP POP SWAP1 DUP1 PUSH1 0x2 ADD DUP1 SLOAD PUSH2 0x1756 SWAP1 PUSH2 0x26C9 JUMP JUMPDEST DUP1 PUSH1 0x1F ADD PUSH1 0x20 DUP1 SWAP2 DIV MUL PUSH1 0x20 ADD PUSH1 0x40 MLOAD SWAP1 DUP2 ADD PUSH1 0x40 MSTORE DUP1 SWAP3 SWAP2 SWAP1 DUP2 DUP2 MSTORE PUSH1 0x20 ADD DUP3 DUP1 SLOAD PUSH2 0x1782 SWAP1 PUSH2 0x26C9 JUMP JUMPDEST DUP1 ISZERO PUSH2 0x17CF JUMPI DUP1 PUSH1 0x1F LT PUSH2 0x17A4 JUMPI PUSH2 0x100 DUP1 DUP4 SLOAD DIV MUL DUP4 MSTORE SWAP2 PUSH1 0x20 ADD SWAP2 PUSH2 0x17CF JUMP JUMPDEST DUP3 ADD SWAP2 SWAP1 PUSH1 0x0 MSTORE PUSH1 0x20 PUSH1 0x0 KECCAK256 SWAP1 JUMPDEST DUP2 SLOAD DUP2 MSTORE SWAP1 PUSH1 0x1 ADD SWAP1 PUSH1 0x20 ADD DUP1 DUP4 GT PUSH2 0x17B2 JUMPI DUP3 SWAP1 SUB PUSH1 0x1F AND DUP3 ADD SWAP2 JUMPDEST POP POP POP POP POP SWAP1 DUP1 PUSH1 0x3 ADD DUP1 SLOAD PUSH2 0x17E4 SWAP1 PUSH2 0x26C9 JUMP JUMPDEST DUP1 PUSH1 0x1F ADD PUSH1 0x20 DUP1 SWAP2 DIV MUL PUSH1 0x20 ADD PUSH1 0x40 MLOAD SWAP1 DUP2 ADD PUSH1 0x40 MSTORE DUP1 SWAP3 SWAP2 SWAP1 DUP2 DUP2 MSTORE PUSH1 0x20 ADD DUP3 DUP1 SLOAD PUSH2 0x1810 SWAP1 PUSH2 0x26C9 JUMP JUMPDEST DUP1 ISZERO PUSH2 0x185D JUMPI DUP1 PUSH1 0x1F LT PUSH2 0x1832 JUMPI PUSH2 0x100 DUP1 DUP4 SLOAD DIV MUL DUP4 MSTORE SWAP2 PUSH1 0x20 ADD SWAP2 PUSH2 0x185D JUMP JUMPDEST DUP3 ADD SWAP2 SWAP1 PUSH1 0x0 MSTORE PUSH1 0x20 PUSH1 0x0 KECCAK256 SWAP1 JUMPDEST DUP2 SLOAD DUP2 MSTORE SWAP1 PUSH1 0x1 ADD SWAP1 PUSH1 0x20 ADD DUP1 DUP4 GT PUSH2 0x1840 JUMPI DUP3 SWAP1 SUB PUSH1 0x1F AND DUP3 ADD SWAP2 JUMPDEST POP POP POP POP POP SWAP1 DUP1 PUSH1 0x4 ADD SLOAD SWAP1 DUP1 PUSH1 0x5 ADD SLOAD SWAP1 DUP1 PUSH1 0x6 ADD SLOAD SWAP1 DUP1 PUSH1 0x7 ADD PUSH1 0x0 SWAP1 SLOAD SWAP1 PUSH2 0x100 EXP SWAP1 DIV PUSH4 0xFFFFFFFF AND SWAP1 POP DUP9 JUMP JUMPDEST PUSH1 0x0 JUMPDEST PUSH1 0x6 DUP1 SLOAD SWAP1 POP DUP2 LT ISZERO PUSH2 0x1A32 JUMPI DUP2 PUSH20 0xFFFFFFFFFFFFFFFFFFFFFFFFFFFFFFFFFFFFFFFF AND PUSH1 0x6 DUP3 DUP2 SLOAD DUP2 LT PUSH2 0x18CA JUMPI PUSH2 0x18C9 PUSH2 0x286A JUMP JUMPDEST JUMPDEST SWAP1 PUSH1 0x0 MSTORE PUSH1 0x20 PUSH1 0x0 KECCAK256 SWAP1 PUSH1 0x8 MUL ADD PUSH1 0x0 ADD PUSH1 0x0 SWAP1 SLOAD SWAP1 PUSH2 0x100 EXP SWAP1 DIV PUSH20 0xFFFFFFFFFFFFFFFFFFFFFFFFFFFFFFFFFFFFFFFF AND PUSH20 0xFFFFFFFFFFFFFFFFFFFFFFFFFFFFFFFFFFFFFFFF AND EQ ISZERO PUSH2 0x1A1F JUMPI PUSH32 0x20FDB8AB571BFBAB79104BEA84F9C31CB79C5AE45B5F515C1D6C8393E0028350 PUSH1 0x6 DUP3 DUP2 SLOAD DUP2 LT PUSH2 0x194D JUMPI PUSH2 0x194C PUSH2 0x286A JUMP JUMPDEST JUMPDEST SWAP1 PUSH1 0x0 MSTORE PUSH1 0x20 PUSH1 0x0 KECCAK256 SWAP1 PUSH1 0x8 MUL ADD PUSH1 0x2 ADD PUSH1 0x6 DUP4 DUP2 SLOAD DUP2 LT PUSH2 0x1972 JUMPI PUSH2 0x1971 PUSH2 0x286A JUMP JUMPDEST JUMPDEST SWAP1 PUSH1 0x0 MSTORE PUSH1 0x20 PUSH1 0x0 KECCAK256 SWAP1 PUSH1 0x8 MUL ADD PUSH1 0x1 ADD PUSH1 0x6 DUP5 DUP2 SLOAD DUP2 LT PUSH2 0x1997 JUMPI PUSH2 0x1996 PUSH2 0x286A JUMP JUMPDEST JUMPDEST SWAP1 PUSH1 0x0 MSTORE PUSH1 0x20 PUSH1 0x0 KECCAK256 SWAP1 PUSH1 0x8 MUL ADD PUSH1 0x7 ADD PUSH1 0x0 SWAP1 SLOAD SWAP1 PUSH2 0x100 EXP SWAP1 DIV PUSH4 0xFFFFFFFF AND PUSH1 0x6 DUP6 DUP2 SLOAD DUP2 LT PUSH2 0x19CD JUMPI PUSH2 0x19CC PUSH2 0x286A JUMP JUMPDEST JUMPDEST SWAP1 PUSH1 0x0 MSTORE PUSH1 0x20 PUSH1 0x0 KECCAK256 SWAP1 PUSH1 0x8 MUL ADD PUSH1 0x4 ADD SLOAD PUSH1 0x6 DUP7 DUP2 SLOAD DUP2 LT PUSH2 0x19F3 JUMPI PUSH2 0x19F2 PUSH2 0x286A JUMP JUMPDEST JUMPDEST SWAP1 PUSH1 0x0 MSTORE PUSH1 0x20 PUSH1 0x0 KECCAK256 SWAP1 PUSH1 0x8 MUL ADD PUSH1 0x5 ADD SLOAD PUSH1 0x40 MLOAD PUSH2 0x1A16 SWAP6 SWAP5 SWAP4 SWAP3 SWAP2 SWAP1 PUSH2 0x23E4 JUMP JUMPDEST PUSH1 0x40 MLOAD DUP1 SWAP2 SUB SWAP1 LOG1 JUMPDEST DUP1 DUP1 PUSH2 0x1A2A SWAP1 PUSH2 0x272C JUMP JUMPDEST SWAP2 POP POP PUSH2 0x1892 JUMP JUMPDEST POP POP JUMP JUMPDEST PUSH2 0x1A3E PUSH2 0x1D03 JUMP JUMPDEST PUSH20 0xFFFFFFFFFFFFFFFFFFFFFFFFFFFFFFFFFFFFFFFF AND PUSH2 0x1A5C PUSH2 0x1622 JUMP JUMPDEST PUSH20 0xFFFFFFFFFFFFFFFFFFFFFFFFFFFFFFFFFFFFFFFF AND EQ PUSH2 0x1AB2 JUMPI PUSH1 0x40 MLOAD PUSH32 0x8C379A000000000000000000000000000000000000000000000000000000000 DUP2 MSTORE PUSH1 0x4 ADD PUSH2 0x1AA9 SWAP1 PUSH2 0x24A5 JUMP JUMPDEST PUSH1 0x40 MLOAD DUP1 SWAP2 SUB SWAP1 REVERT JUMPDEST PUSH1 0x0 PUSH20 0xFFFFFFFFFFFFFFFFFFFFFFFFFFFFFFFFFFFFFFFF AND DUP2 PUSH20 0xFFFFFFFFFFFFFFFFFFFFFFFFFFFFFFFFFFFFFFFF AND EQ ISZERO PUSH2 0x1B22 JUMPI PUSH1 0x40 MLOAD PUSH32 0x8C379A000000000000000000000000000000000000000000000000000000000 DUP2 MSTORE PUSH1 0x4 ADD PUSH2 0x1B19 SWAP1 PUSH2 0x2465 JUMP JUMPDEST PUSH1 0x40 MLOAD DUP1 SWAP2 SUB SWAP1 REVERT JUMPDEST PUSH2 0x1B2B DUP2 PUSH2 0x1D0B JUMP JUMPDEST POP JUMP JUMPDEST PUSH1 0x8 PUSH1 0x0 DUP4 PUSH20 0xFFFFFFFFFFFFFFFFFFFFFFFFFFFFFFFFFFFFFFFF AND PUSH20 0xFFFFFFFFFFFFFFFFFFFFFFFFFFFFFFFFFFFFFFFF AND DUP2 MSTORE PUSH1 0x20 ADD SWAP1 DUP2 MSTORE PUSH1 0x20 ADD PUSH1 0x0 KECCAK256 PUSH1 0x0 DUP2 SLOAD DUP1 SWAP3 SWAP2 SWAP1 PUSH2 0x1B7E SWAP1 PUSH2 0x272C JUMP JUMPDEST SWAP2 SWAP1 POP SSTORE POP PUSH1 0x8 PUSH1 0x0 DUP5 PUSH20 0xFFFFFFFFFFFFFFFFFFFFFFFFFFFFFFFFFFFFFFFF AND PUSH20 0xFFFFFFFFFFFFFFFFFFFFFFFFFFFFFFFFFFFFFFFF AND DUP2 MSTORE PUSH1 0x20 ADD SWAP1 DUP2 MSTORE PUSH1 0x20 ADD PUSH1 0x0 KECCAK256 PUSH1 0x0 DUP2 SLOAD DUP1 SWAP3 SWAP2 SWAP1 PUSH2 0x1BD3 SWAP1 PUSH2 0x269F JUMP JUMPDEST SWAP2 SWAP1 POP SSTORE POP DUP2 PUSH1 0x7 PUSH1 0x0 DUP4 DUP2 MSTORE PUSH1 0x20 ADD SWAP1 DUP2 MSTORE PUSH1 0x20 ADD PUSH1 0x0 KECCAK256 PUSH1 0x0 PUSH2 0x100 EXP DUP2 SLOAD DUP2 PUSH20 0xFFFFFFFFFFFFFFFFFFFFFFFFFFFFFFFFFFFFFFFF MUL NOT AND SWAP1 DUP4 PUSH20 0xFFFFFFFFFFFFFFFFFFFFFFFFFFFFFFFFFFFFFFFF AND MUL OR SWAP1 SSTORE POP DUP1 DUP3 PUSH20 0xFFFFFFFFFFFFFFFFFFFFFFFFFFFFFFFFFFFFFFFF AND DUP5 PUSH20 0xFFFFFFFFFFFFFFFFFFFFFFFFFFFFFFFFFFFFFFFF AND PUSH32 0xDDF252AD1BE2C89B69C2B068FC378DAA952BA7F163C4A11628F55A4DF523B3EF PUSH1 0x40 MLOAD PUSH1 0x40 MLOAD DUP1 SWAP2 SUB SWAP1 LOG4 POP POP POP JUMP JUMPDEST PUSH1 0x0 TIMESTAMP DUP3 PUSH1 0x6 ADD SLOAD GT ISZERO SWAP1 POP SWAP2 SWAP1 POP JUMP JUMPDEST PUSH1 0x3 SLOAD TIMESTAMP PUSH2 0x1CA9 SWAP2 SWAP1 PUSH2 0x2587 JUMP JUMPDEST PUSH4 0xFFFFFFFF AND DUP2 PUSH1 0x6 ADD DUP2 SWAP1 SSTORE POP POP JUMP JUMPDEST CALLER PUSH20 0xFFFFFFFFFFFFFFFFFFFFFFFFFFFFFFFFFFFFFFFF AND PUSH2 0x8FC SELFBALANCE SWAP1 DUP2 ISZERO MUL SWAP1 PUSH1 0x40 MLOAD PUSH1 0x0 PUSH1 0x40 MLOAD DUP1 DUP4 SUB DUP2 DUP6 DUP9 DUP9 CALL SWAP4 POP POP POP POP ISZERO DUP1 ISZERO PUSH2 0x1D00 JUMPI RETURNDATASIZE PUSH1 0x0 DUP1 RETURNDATACOPY RETURNDATASIZE PUSH1 0x0 REVERT JUMPDEST POP JUMP JUMPDEST PUSH1 0x0 CALLER SWAP1 POP SWAP1 JUMP JUMPDEST PUSH1 0x0 DUP1 PUSH1 0x0 SWAP1 SLOAD SWAP1 PUSH2 0x100 EXP SWAP1 DIV PUSH20 0xFFFFFFFFFFFFFFFFFFFFFFFFFFFFFFFFFFFFFFFF AND SWAP1 POP DUP2 PUSH1 0x0 DUP1 PUSH2 0x100 EXP DUP2 SLOAD DUP2 PUSH20 0xFFFFFFFFFFFFFFFFFFFFFFFFFFFFFFFFFFFFFFFF MUL NOT AND SWAP1 DUP4 PUSH20 0xFFFFFFFFFFFFFFFFFFFFFFFFFFFFFFFFFFFFFFFF AND MUL OR SWAP1 SSTORE POP DUP2 PUSH20 0xFFFFFFFFFFFFFFFFFFFFFFFFFFFFFFFFFFFFFFFF AND DUP2 PUSH20 0xFFFFFFFFFFFFFFFFFFFFFFFFFFFFFFFFFFFFFFFF AND PUSH32 0x8BE0079C531659141344CD1FD0A4F28419497F9722A3DAAFE3B4186F6B6457E0 PUSH1 0x40 MLOAD PUSH1 0x40 MLOAD DUP1 SWAP2 SUB SWAP1 LOG3 POP POP JUMP JUMPDEST DUP3 DUP1 SLOAD PUSH2 0x1DDB SWAP1 PUSH2 0x26C9 JUMP JUMPDEST SWAP1 PUSH1 0x0 MSTORE PUSH1 0x20 PUSH1 0x0 KECCAK256 SWAP1 PUSH1 0x1F ADD PUSH1 0x20 SWAP1 DIV DUP2 ADD SWAP3 DUP3 PUSH2 0x1DFD JUMPI PUSH1 0x0 DUP6 SSTORE PUSH2 0x1E44 JUMP JUMPDEST DUP3 PUSH1 0x1F LT PUSH2 0x1E16 JUMPI DUP1 MLOAD PUSH1 0xFF NOT AND DUP4 DUP1 ADD OR DUP6 SSTORE PUSH2 0x1E44 JUMP JUMPDEST DUP3 DUP1 ADD PUSH1 0x1 ADD DUP6 SSTORE DUP3 ISZERO PUSH2 0x1E44 JUMPI SWAP2 DUP3 ADD JUMPDEST DUP3 DUP2 GT ISZERO PUSH2 0x1E43 JUMPI DUP3 MLOAD DUP3 SSTORE SWAP2 PUSH1 0x20 ADD SWAP2 SWAP1 PUSH1 0x1 ADD SWAP1 PUSH2 0x1E28 JUMP JUMPDEST JUMPDEST POP SWAP1 POP PUSH2 0x1E51 SWAP2 SWAP1 PUSH2 0x1E55 JUMP JUMPDEST POP SWAP1 JUMP JUMPDEST JUMPDEST DUP1 DUP3 GT ISZERO PUSH2 0x1E6E JUMPI PUSH1 0x0 DUP2 PUSH1 0x0 SWAP1 SSTORE POP PUSH1 0x1 ADD PUSH2 0x1E56 JUMP JUMPDEST POP SWAP1 JUMP JUMPDEST PUSH1 0x0 PUSH2 0x1E85 PUSH2 0x1E80 DUP5 PUSH2 0x2525 JUMP JUMPDEST PUSH2 0x2500 JUMP JUMPDEST SWAP1 POP DUP3 DUP2 MSTORE PUSH1 0x20 DUP2 ADD DUP5 DUP5 DUP5 ADD GT ISZERO PUSH2 0x1EA1 JUMPI PUSH2 0x1EA0 PUSH2 0x28CD JUMP JUMPDEST JUMPDEST PUSH2 0x1EAC DUP5 DUP3 DUP6 PUSH2 0x265D JUMP JUMPDEST POP SWAP4 SWAP3 POP POP POP JUMP JUMPDEST PUSH1 0x0 DUP2 CALLDATALOAD SWAP1 POP PUSH2 0x1EC3 DUP2 PUSH2 0x2A2C JUMP JUMPDEST SWAP3 SWAP2 POP POP JUMP JUMPDEST PUSH1 0x0 DUP3 PUSH1 0x1F DUP4 ADD SLT PUSH2 0x1EDE JUMPI PUSH2 0x1EDD PUSH2 0x28C8 JUMP JUMPDEST JUMPDEST DUP2 CALLDATALOAD PUSH2 0x1EEE DUP5 DUP3 PUSH1 0x20 DUP7 ADD PUSH2 0x1E72 JUMP JUMPDEST SWAP2 POP POP SWAP3 SWAP2 POP POP JUMP JUMPDEST PUSH1 0x0 DUP2 CALLDATALOAD SWAP1 POP PUSH2 0x1F06 DUP2 PUSH2 0x2A43 JUMP JUMPDEST SWAP3 SWAP2 POP POP JUMP JUMPDEST PUSH1 0x0 PUSH1 0x20 DUP3 DUP5 SUB SLT ISZERO PUSH2 0x1F22 JUMPI PUSH2 0x1F21 PUSH2 0x28D7 JUMP JUMPDEST JUMPDEST PUSH1 0x0 PUSH2 0x1F30 DUP5 DUP3 DUP6 ADD PUSH2 0x1EB4 JUMP JUMPDEST SWAP2 POP POP SWAP3 SWAP2 POP POP JUMP JUMPDEST PUSH1 0x0 DUP1 PUSH1 0x0 PUSH1 0x60 DUP5 DUP7 SUB SLT ISZERO PUSH2 0x1F52 JUMPI PUSH2 0x1F51 PUSH2 0x28D7 JUMP JUMPDEST JUMPDEST PUSH1 0x0 PUSH2 0x1F60 DUP7 DUP3 DUP8 ADD PUSH2 0x1EB4 JUMP JUMPDEST SWAP4 POP POP PUSH1 0x20 PUSH2 0x1F71 DUP7 DUP3 DUP8 ADD PUSH2 0x1EB4 JUMP JUMPDEST SWAP3 POP POP PUSH1 0x40 PUSH2 0x1F82 DUP7 DUP3 DUP8 ADD PUSH2 0x1EF7 JUMP JUMPDEST SWAP2 POP POP SWAP3 POP SWAP3 POP SWAP3 JUMP JUMPDEST PUSH1 0x0 DUP1 PUSH1 0x0 PUSH1 0x60 DUP5 DUP7 SUB SLT ISZERO PUSH2 0x1FA5 JUMPI PUSH2 0x1FA4 PUSH2 0x28D7 JUMP JUMPDEST JUMPDEST PUSH1 0x0 PUSH2 0x1FB3 DUP7 DUP3 DUP8 ADD PUSH2 0x1EB4 JUMP JUMPDEST SWAP4 POP POP PUSH1 0x20 DUP5 ADD CALLDATALOAD PUSH8 0xFFFFFFFFFFFFFFFF DUP2 GT ISZERO PUSH2 0x1FD4 JUMPI PUSH2 0x1FD3 PUSH2 0x28D2 JUMP JUMPDEST JUMPDEST PUSH2 0x1FE0 DUP7 DUP3 DUP8 ADD PUSH2 0x1EC9 JUMP JUMPDEST SWAP3 POP POP PUSH1 0x40 DUP5 ADD CALLDATALOAD PUSH8 0xFFFFFFFFFFFFFFFF DUP2 GT ISZERO PUSH2 0x2001 JUMPI PUSH2 0x2000 PUSH2 0x28D2 JUMP JUMPDEST JUMPDEST PUSH2 0x200D DUP7 DUP3 DUP8 ADD PUSH2 0x1EC9 JUMP JUMPDEST SWAP2 POP POP SWAP3 POP SWAP3 POP SWAP3 JUMP JUMPDEST PUSH1 0x0 DUP1 PUSH1 0x40 DUP4 DUP6 SUB SLT ISZERO PUSH2 0x202E JUMPI PUSH2 0x202D PUSH2 0x28D7 JUMP JUMPDEST JUMPDEST PUSH1 0x0 PUSH2 0x203C DUP6 DUP3 DUP7 ADD PUSH2 0x1EB4 JUMP JUMPDEST SWAP3 POP POP PUSH1 0x20 PUSH2 0x204D DUP6 DUP3 DUP7 ADD PUSH2 0x1EF7 JUMP JUMPDEST SWAP2 POP POP SWAP3 POP SWAP3 SWAP1 POP JUMP JUMPDEST PUSH1 0x0 DUP1 PUSH1 0x0 PUSH1 0x60 DUP5 DUP7 SUB SLT ISZERO PUSH2 0x2070 JUMPI PUSH2 0x206F PUSH2 0x28D7 JUMP JUMPDEST JUMPDEST PUSH1 0x0 DUP5 ADD CALLDATALOAD PUSH8 0xFFFFFFFFFFFFFFFF DUP2 GT ISZERO PUSH2 0x208E JUMPI PUSH2 0x208D PUSH2 0x28D2 JUMP JUMPDEST JUMPDEST PUSH2 0x209A DUP7 DUP3 DUP8 ADD PUSH2 0x1EC9 JUMP JUMPDEST SWAP4 POP POP PUSH1 0x20 DUP5 ADD CALLDATALOAD PUSH8 0xFFFFFFFFFFFFFFFF DUP2 GT ISZERO PUSH2 0x20BB JUMPI PUSH2 0x20BA PUSH2 0x28D2 JUMP JUMPDEST JUMPDEST PUSH2 0x20C7 DUP7 DUP3 DUP8 ADD PUSH2 0x1EC9 JUMP JUMPDEST SWAP3 POP POP PUSH1 0x40 DUP5 ADD CALLDATALOAD PUSH8 0xFFFFFFFFFFFFFFFF DUP2 GT ISZERO PUSH2 0x20E8 JUMPI PUSH2 0x20E7 PUSH2 0x28D2 JUMP JUMPDEST JUMPDEST PUSH2 0x20F4 DUP7 DUP3 DUP8 ADD PUSH2 0x1EC9 JUMP JUMPDEST SWAP2 POP POP SWAP3 POP SWAP3 POP SWAP3 JUMP JUMPDEST PUSH1 0x0 PUSH1 0x20 DUP3 DUP5 SUB SLT ISZERO PUSH2 0x2114 JUMPI PUSH2 0x2113 PUSH2 0x28D7 JUMP JUMPDEST JUMPDEST PUSH1 0x0 PUSH2 0x2122 DUP5 DUP3 DUP6 ADD PUSH2 0x1EF7 JUMP JUMPDEST SWAP2 POP POP SWAP3 SWAP2 POP POP JUMP JUMPDEST PUSH2 0x2134 DUP2 PUSH2 0x2611 JUMP JUMPDEST DUP3 MSTORE POP POP JUMP JUMPDEST PUSH1 0x0 PUSH2 0x2145 DUP3 PUSH2 0x256B JUMP JUMPDEST PUSH2 0x214F DUP2 DUP6 PUSH2 0x2576 JUMP JUMPDEST SWAP4 POP PUSH2 0x215F DUP2 DUP6 PUSH1 0x20 DUP7 ADD PUSH2 0x266C JUMP JUMPDEST PUSH2 0x2168 DUP2 PUSH2 0x28DC JUMP JUMPDEST DUP5 ADD SWAP2 POP POP SWAP3 SWAP2 POP POP JUMP JUMPDEST PUSH1 0x0 DUP2 SLOAD PUSH2 0x2180 DUP2 PUSH2 0x26C9 JUMP JUMPDEST PUSH2 0x218A DUP2 DUP7 PUSH2 0x2576 JUMP JUMPDEST SWAP5 POP PUSH1 0x1 DUP3 AND PUSH1 0x0 DUP2 EQ PUSH2 0x21A5 JUMPI PUSH1 0x1 DUP2 EQ PUSH2 0x21B7 JUMPI PUSH2 0x21EA JUMP JUMPDEST PUSH1 0xFF NOT DUP4 AND DUP7 MSTORE PUSH1 0x20 DUP7 ADD SWAP4 POP PUSH2 0x21EA JUMP JUMPDEST PUSH2 0x21C0 DUP6 PUSH2 0x2556 JUMP JUMPDEST PUSH1 0x0 JUMPDEST DUP4 DUP2 LT ISZERO PUSH2 0x21E2 JUMPI DUP2 SLOAD DUP2 DUP10 ADD MSTORE PUSH1 0x1 DUP3 ADD SWAP2 POP PUSH1 0x20 DUP2 ADD SWAP1 POP PUSH2 0x21C3 JUMP JUMPDEST DUP1 DUP9 ADD SWAP6 POP POP POP JUMPDEST POP POP POP SWAP3 SWAP2 POP POP JUMP JUMPDEST PUSH1 0x0 PUSH2 0x2200 PUSH1 0x28 DUP4 PUSH2 0x2576 JUMP JUMPDEST SWAP2 POP PUSH2 0x220B DUP3 PUSH2 0x28ED JUMP JUMPDEST PUSH1 0x40 DUP3 ADD SWAP1 POP SWAP2 SWAP1 POP JUMP JUMPDEST PUSH1 0x0 PUSH2 0x2223 PUSH1 0x26 DUP4 PUSH2 0x2576 JUMP JUMPDEST SWAP2 POP PUSH2 0x222E DUP3 PUSH2 0x293C JUMP JUMPDEST PUSH1 0x40 DUP3 ADD SWAP1 POP SWAP2 SWAP1 POP JUMP JUMPDEST PUSH1 0x0 PUSH2 0x2246 PUSH1 0x32 DUP4 PUSH2 0x2576 JUMP JUMPDEST SWAP2 POP PUSH2 0x2251 DUP3 PUSH2 0x298B JUMP JUMPDEST PUSH1 0x40 DUP3 ADD SWAP1 POP SWAP2 SWAP1 POP JUMP JUMPDEST PUSH1 0x0 PUSH2 0x2269 PUSH1 0x20 DUP4 PUSH2 0x2576 JUMP JUMPDEST SWAP2 POP PUSH2 0x2274 DUP3 PUSH2 0x29DA JUMP JUMPDEST PUSH1 0x20 DUP3 ADD SWAP1 POP SWAP2 SWAP1 POP JUMP JUMPDEST PUSH1 0x0 PUSH2 0x228C PUSH1 0x15 DUP4 PUSH2 0x2576 JUMP JUMPDEST SWAP2 POP PUSH2 0x2297 DUP3 PUSH2 0x2A03 JUMP JUMPDEST PUSH1 0x20 DUP3 ADD SWAP1 POP SWAP2 SWAP1 POP JUMP JUMPDEST PUSH2 0x22AB DUP2 PUSH2 0x2643 JUMP JUMPDEST DUP3 MSTORE POP POP JUMP JUMPDEST PUSH2 0x22C2 PUSH2 0x22BD DUP3 PUSH2 0x2643 JUMP JUMPDEST PUSH2 0x27A2 JUMP JUMPDEST DUP3 MSTORE POP POP JUMP JUMPDEST PUSH2 0x22D1 DUP2 PUSH2 0x264D JUMP JUMPDEST DUP3 MSTORE POP POP JUMP JUMPDEST PUSH1 0x0 PUSH2 0x22E3 DUP3 DUP7 PUSH2 0x22B1 JUMP JUMPDEST PUSH1 0x20 DUP3 ADD SWAP2 POP PUSH2 0x22F3 DUP3 DUP6 PUSH2 0x22B1 JUMP JUMPDEST PUSH1 0x20 DUP3 ADD SWAP2 POP PUSH2 0x2303 DUP3 DUP5 PUSH2 0x22B1 JUMP JUMPDEST PUSH1 0x20 DUP3 ADD SWAP2 POP DUP2 SWAP1 POP SWAP5 SWAP4 POP POP POP POP JUMP JUMPDEST PUSH1 0x0 PUSH1 0x20 DUP3 ADD SWAP1 POP PUSH2 0x2329 PUSH1 0x0 DUP4 ADD DUP5 PUSH2 0x212B JUMP JUMPDEST SWAP3 SWAP2 POP POP JUMP JUMPDEST PUSH1 0x0 PUSH2 0x100 DUP3 ADD SWAP1 POP PUSH2 0x2345 PUSH1 0x0 DUP4 ADD DUP12 PUSH2 0x212B JUMP JUMPDEST DUP2 DUP2 SUB PUSH1 0x20 DUP4 ADD MSTORE PUSH2 0x2357 DUP2 DUP11 PUSH2 0x213A JUMP JUMPDEST SWAP1 POP DUP2 DUP2 SUB PUSH1 0x40 DUP4 ADD MSTORE PUSH2 0x236B DUP2 DUP10 PUSH2 0x213A JUMP JUMPDEST SWAP1 POP DUP2 DUP2 SUB PUSH1 0x60 DUP4 ADD MSTORE PUSH2 0x237F DUP2 DUP9 PUSH2 0x213A JUMP JUMPDEST SWAP1 POP PUSH2 0x238E PUSH1 0x80 DUP4 ADD DUP8 PUSH2 0x22A2 JUMP JUMPDEST PUSH2 0x239B PUSH1 0xA0 DUP4 ADD DUP7 PUSH2 0x22A2 JUMP JUMPDEST PUSH2 0x23A8 PUSH1 0xC0 DUP4 ADD DUP6 PUSH2 0x22A2 JUMP JUMPDEST PUSH2 0x23B5 PUSH1 0xE0 DUP4 ADD DUP5 PUSH2 0x22C8 JUMP JUMPDEST SWAP10 SWAP9 POP POP POP POP POP POP POP POP POP JUMP JUMPDEST PUSH1 0x0 PUSH1 0x20 DUP3 ADD SWAP1 POP DUP2 DUP2 SUB PUSH1 0x0 DUP4 ADD MSTORE PUSH2 0x23DC DUP2 DUP5 PUSH2 0x213A JUMP JUMPDEST SWAP1 POP SWAP3 SWAP2 POP POP JUMP JUMPDEST PUSH1 0x0 PUSH1 0xA0 DUP3 ADD SWAP1 POP DUP2 DUP2 SUB PUSH1 0x0 DUP4 ADD MSTORE PUSH2 0x23FE DUP2 DUP9 PUSH2 0x2173 JUMP JUMPDEST SWAP1 POP DUP2 DUP2 SUB PUSH1 0x20 DUP4 ADD MSTORE PUSH2 0x2412 DUP2 DUP8 PUSH2 0x2173 JUMP JUMPDEST SWAP1 POP PUSH2 0x2421 PUSH1 0x40 DUP4 ADD DUP7 PUSH2 0x22C8 JUMP JUMPDEST PUSH2 0x242E PUSH1 0x60 DUP4 ADD DUP6 PUSH2 0x22A2 JUMP JUMPDEST PUSH2 0x243B PUSH1 0x80 DUP4 ADD DUP5 PUSH2 0x22A2 JUMP JUMPDEST SWAP7 SWAP6 POP POP POP POP POP POP JUMP JUMPDEST PUSH1 0x0 PUSH1 0x20 DUP3 ADD SWAP1 POP DUP2 DUP2 SUB PUSH1 0x0 DUP4 ADD MSTORE PUSH2 0x245E DUP2 PUSH2 0x21F3 JUMP JUMPDEST SWAP1 POP SWAP2 SWAP1 POP JUMP JUMPDEST PUSH1 0x0 PUSH1 0x20 DUP3 ADD SWAP1 POP DUP2 DUP2 SUB PUSH1 0x0 DUP4 ADD MSTORE PUSH2 0x247E DUP2 PUSH2 0x2216 JUMP JUMPDEST SWAP1 POP SWAP2 SWAP1 POP JUMP JUMPDEST PUSH1 0x0 PUSH1 0x20 DUP3 ADD SWAP1 POP DUP2 DUP2 SUB PUSH1 0x0 DUP4 ADD MSTORE PUSH2 0x249E DUP2 PUSH2 0x2239 JUMP JUMPDEST SWAP1 POP SWAP2 SWAP1 POP JUMP JUMPDEST PUSH1 0x0 PUSH1 0x20 DUP3 ADD SWAP1 POP DUP2 DUP2 SUB PUSH1 0x0 DUP4 ADD MSTORE PUSH2 0x24BE DUP2 PUSH2 0x225C JUMP JUMPDEST SWAP1 POP SWAP2 SWAP1 POP JUMP JUMPDEST PUSH1 0x0 PUSH1 0x20 DUP3 ADD SWAP1 POP DUP2 DUP2 SUB PUSH1 0x0 DUP4 ADD MSTORE PUSH2 0x24DE DUP2 PUSH2 0x227F JUMP JUMPDEST SWAP1 POP SWAP2 SWAP1 POP JUMP JUMPDEST PUSH1 0x0 PUSH1 0x20 DUP3 ADD SWAP1 POP PUSH2 0x24FA PUSH1 0x0 DUP4 ADD DUP5 PUSH2 0x22A2 JUMP JUMPDEST SWAP3 SWAP2 POP POP JUMP JUMPDEST PUSH1 0x0 PUSH2 0x250A PUSH2 0x251B JUMP JUMPDEST SWAP1 POP PUSH2 0x2516 DUP3 DUP3 PUSH2 0x26FB JUMP JUMPDEST SWAP2 SWAP1 POP JUMP JUMPDEST PUSH1 0x0 PUSH1 0x40 MLOAD SWAP1 POP SWAP1 JUMP JUMPDEST PUSH1 0x0 PUSH8 0xFFFFFFFFFFFFFFFF DUP3 GT ISZERO PUSH2 0x2540 JUMPI PUSH2 0x253F PUSH2 0x2899 JUMP JUMPDEST JUMPDEST PUSH2 0x2549 DUP3 PUSH2 0x28DC JUMP JUMPDEST SWAP1 POP PUSH1 0x20 DUP2 ADD SWAP1 POP SWAP2 SWAP1 POP JUMP JUMPDEST PUSH1 0x0 DUP2 SWAP1 POP DUP2 PUSH1 0x0 MSTORE PUSH1 0x20 PUSH1 0x0 KECCAK256 SWAP1 POP SWAP2 SWAP1 POP JUMP JUMPDEST PUSH1 0x0 DUP2 MLOAD SWAP1 POP SWAP2 SWAP1 POP JUMP JUMPDEST PUSH1 0x0 DUP3 DUP3 MSTORE PUSH1 0x20 DUP3 ADD SWAP1 POP SWAP3 SWAP2 POP POP JUMP JUMPDEST PUSH1 0x0 PUSH2 0x2592 DUP3 PUSH2 0x2643 JUMP JUMPDEST SWAP2 POP PUSH2 0x259D DUP4 PUSH2 0x2643 JUMP JUMPDEST SWAP3 POP DUP3 PUSH32 0xFFFFFFFFFFFFFFFFFFFFFFFFFFFFFFFFFFFFFFFFFFFFFFFFFFFFFFFFFFFFFFFF SUB DUP3 GT ISZERO PUSH2 0x25D2 JUMPI PUSH2 0x25D1 PUSH2 0x27DD JUMP JUMPDEST JUMPDEST DUP3 DUP3 ADD SWAP1 POP SWAP3 SWAP2 POP POP JUMP JUMPDEST PUSH1 0x0 PUSH2 0x25E8 DUP3 PUSH2 0x2643 JUMP JUMPDEST SWAP2 POP PUSH2 0x25F3 DUP4 PUSH2 0x2643 JUMP JUMPDEST SWAP3 POP DUP3 DUP3 LT ISZERO PUSH2 0x2606 JUMPI PUSH2 0x2605 PUSH2 0x27DD JUMP JUMPDEST JUMPDEST DUP3 DUP3 SUB SWAP1 POP SWAP3 SWAP2 POP POP JUMP JUMPDEST PUSH1 0x0 PUSH2 0x261C DUP3 PUSH2 0x2623 JUMP JUMPDEST SWAP1 POP SWAP2 SWAP1 POP JUMP JUMPDEST PUSH1 0x0 PUSH20 0xFFFFFFFFFFFFFFFFFFFFFFFFFFFFFFFFFFFFFFFF DUP3 AND SWAP1 POP SWAP2 SWAP1 POP JUMP JUMPDEST PUSH1 0x0 DUP2 SWAP1 POP SWAP2 SWAP1 POP JUMP JUMPDEST PUSH1 0x0 PUSH4 0xFFFFFFFF DUP3 AND SWAP1 POP SWAP2 SWAP1 POP JUMP JUMPDEST DUP3 DUP2 DUP4 CALLDATACOPY PUSH1 0x0 DUP4 DUP4 ADD MSTORE POP POP POP JUMP JUMPDEST PUSH1 0x0 JUMPDEST DUP4 DUP2 LT ISZERO PUSH2 0x268A JUMPI DUP1 DUP3 ADD MLOAD DUP2 DUP5 ADD MSTORE PUSH1 0x20 DUP2 ADD SWAP1 POP PUSH2 0x266F JUMP JUMPDEST DUP4 DUP2 GT ISZERO PUSH2 0x2699 JUMPI PUSH1 0x0 DUP5 DUP5 ADD MSTORE JUMPDEST POP POP POP POP JUMP JUMPDEST PUSH1 0x0 PUSH2 0x26AA DUP3 PUSH2 0x2643 JUMP JUMPDEST SWAP2 POP PUSH1 0x0 DUP3 EQ ISZERO PUSH2 0x26BE JUMPI PUSH2 0x26BD PUSH2 0x27DD JUMP JUMPDEST JUMPDEST PUSH1 0x1 DUP3 SUB SWAP1 POP SWAP2 SWAP1 POP JUMP JUMPDEST PUSH1 0x0 PUSH1 0x2 DUP3 DIV SWAP1 POP PUSH1 0x1 DUP3 AND DUP1 PUSH2 0x26E1 JUMPI PUSH1 0x7F DUP3 AND SWAP2 POP JUMPDEST PUSH1 0x20 DUP3 LT DUP2 EQ ISZERO PUSH2 0x26F5 JUMPI PUSH2 0x26F4 PUSH2 0x283B JUMP JUMPDEST JUMPDEST POP SWAP2 SWAP1 POP JUMP JUMPDEST PUSH2 0x2704 DUP3 PUSH2 0x28DC JUMP JUMPDEST DUP2 ADD DUP2 DUP2 LT PUSH8 0xFFFFFFFFFFFFFFFF DUP3 GT OR ISZERO PUSH2 0x2723 JUMPI PUSH2 0x2722 PUSH2 0x2899 JUMP JUMPDEST JUMPDEST DUP1 PUSH1 0x40 MSTORE POP POP POP JUMP JUMPDEST PUSH1 0x0 PUSH2 0x2737 DUP3 PUSH2 0x2643 JUMP JUMPDEST SWAP2 POP PUSH32 0xFFFFFFFFFFFFFFFFFFFFFFFFFFFFFFFFFFFFFFFFFFFFFFFFFFFFFFFFFFFFFFFF DUP3 EQ ISZERO PUSH2 0x276A JUMPI PUSH2 0x2769 PUSH2 0x27DD JUMP JUMPDEST JUMPDEST PUSH1 0x1 DUP3 ADD SWAP1 POP SWAP2 SWAP1 POP JUMP JUMPDEST PUSH1 0x0 PUSH2 0x2780 DUP3 PUSH2 0x264D JUMP JUMPDEST SWAP2 POP PUSH4 0xFFFFFFFF DUP3 EQ ISZERO PUSH2 0x2797 JUMPI PUSH2 0x2796 PUSH2 0x27DD JUMP JUMPDEST JUMPDEST PUSH1 0x1 DUP3 ADD SWAP1 POP SWAP2 SWAP1 POP JUMP JUMPDEST PUSH1 0x0 DUP2 SWAP1 POP SWAP2 SWAP1 POP JUMP JUMPDEST PUSH1 0x0 PUSH2 0x27B7 DUP3 PUSH2 0x2643 JUMP JUMPDEST SWAP2 POP PUSH2 0x27C2 DUP4 PUSH2 0x2643 JUMP JUMPDEST SWAP3 POP DUP3 PUSH2 0x27D2 JUMPI PUSH2 0x27D1 PUSH2 0x280C JUMP JUMPDEST JUMPDEST DUP3 DUP3 MOD SWAP1 POP SWAP3 SWAP2 POP POP JUMP JUMPDEST PUSH32 0x4E487B7100000000000000000000000000000000000000000000000000000000 PUSH1 0x0 MSTORE PUSH1 0x11 PUSH1 0x4 MSTORE PUSH1 0x24 PUSH1 0x0 REVERT JUMPDEST PUSH32 0x4E487B7100000000000000000000000000000000000000000000000000000000 PUSH1 0x0 MSTORE PUSH1 0x12 PUSH1 0x4 MSTORE PUSH1 0x24 PUSH1 0x0 REVERT JUMPDEST PUSH32 0x4E487B7100000000000000000000000000000000000000000000000000000000 PUSH1 0x0 MSTORE PUSH1 0x22 PUSH1 0x4 MSTORE PUSH1 0x24 PUSH1 0x0 REVERT JUMPDEST PUSH32 0x4E487B7100000000000000000000000000000000000000000000000000000000 PUSH1 0x0 MSTORE PUSH1 0x32 PUSH1 0x4 MSTORE PUSH1 0x24 PUSH1 0x0 REVERT JUMPDEST PUSH32 0x4E487B7100000000000000000000000000000000000000000000000000000000 PUSH1 0x0 MSTORE PUSH1 0x41 PUSH1 0x4 MSTORE PUSH1 0x24 PUSH1 0x0 REVERT JUMPDEST PUSH1 0x0 DUP1 REVERT JUMPDEST PUSH1 0x0 DUP1 REVERT JUMPDEST PUSH1 0x0 DUP1 REVERT JUMPDEST PUSH1 0x0 DUP1 REVERT JUMPDEST PUSH1 0x0 PUSH1 0x1F NOT PUSH1 0x1F DUP4 ADD AND SWAP1 POP SWAP2 SWAP1 POP JUMP JUMPDEST PUSH32 0x536F6C6F2073652070756564652074656E657220756E20636F63686520706F72 PUSH1 0x0 DUP3 ADD MSTORE PUSH32 0x20706572736F6E61000000000000000000000000000000000000000000000000 PUSH1 0x20 DUP3 ADD MSTORE POP JUMP JUMPDEST PUSH32 0x4F776E61626C653A206E6577206F776E657220697320746865207A65726F2061 PUSH1 0x0 DUP3 ADD MSTORE PUSH32 0x6464726573730000000000000000000000000000000000000000000000000000 PUSH1 0x20 DUP3 ADD MSTORE POP JUMP JUMPDEST PUSH32 0x4E6F2068617920636F6368657320737566696369656E74657320706172612069 PUSH1 0x0 DUP3 ADD MSTORE PUSH32 0x6E696369617220756E6120636172726572610000000000000000000000000000 PUSH1 0x20 DUP3 ADD MSTORE POP JUMP JUMPDEST PUSH32 0x4F776E61626C653A2063616C6C6572206973206E6F7420746865206F776E6572 PUSH1 0x0 DUP3 ADD MSTORE POP JUMP JUMPDEST PUSH32 0x456C20636F6368652067616E61646F722065733A200000000000000000000000 PUSH1 0x0 DUP3 ADD MSTORE POP JUMP JUMPDEST PUSH2 0x2A35 DUP2 PUSH2 0x2611 JUMP JUMPDEST DUP2 EQ PUSH2 0x2A40 JUMPI PUSH1 0x0 DUP1 REVERT JUMPDEST POP JUMP JUMPDEST PUSH2 0x2A4C DUP2 PUSH2 0x2643 JUMP JUMPDEST DUP2 EQ PUSH2 0x2A57 JUMPI PUSH1 0x0 DUP1 REVERT JUMPDEST POP JUMP INVALID LOG2 PUSH5 0x6970667358 0x22 SLT KECCAK256 SAR RETURNDATACOPY 0xDB 0x23 PUSH27 0x2C081BBDF7A72E6714070E73B09E45A4277005FE7D66AD367F308F PUSH5 0x736F6C6343 STOP ADDMOD SMOD STOP CALLER "
				},
				"gasEstimates": {
					"creation": {
						"codeDepositCost": "2179200",
						"executionCost": "infinite",
						"totalCost": "infinite"
					},
					"external": {
						"Apostar(uint256)": "infinite",
						"_owner()": "2533",
						"anadirCoche(string,string,string)": "infinite",
						"approve(address,uint256)": "29170",
						"balanceOf(address)": "2864",
						"cocheDePropietario(uint256)": "2906",
						"comprarCoche(address,string,string)": "infinite",
						"listaCoches(uint256)": "infinite",
						"numeroCochesPersona(address)": "2882",
						"owner()": "2611",
						"ownerOf(uint256)": "2910",
						"renounceOwnership()": "30419",
						"subirDeNivel(address)": "infinite",
						"transferFrom(address,address,uint256)": "infinite",
						"transferOwnership(address)": "30811",
						"verCochePropietario(address)": "infinite"
					},
					"internal": {
						"_transfer(address,address,uint256)": "infinite"
					}
				},
				"methodIdentifiers": {
					"Apostar(uint256)": "6b6f0494",
					"_owner()": "b2bdfa7b",
					"anadirCoche(string,string,string)": "2458c544",
					"approve(address,uint256)": "095ea7b3",
					"balanceOf(address)": "70a08231",
					"cocheDePropietario(uint256)": "858b0554",
					"comprarCoche(address,string,string)": "049a5f65",
					"listaCoches(uint256)": "d735573d",
					"numeroCochesPersona(address)": "1c6743e4",
					"owner()": "8da5cb5b",
					"ownerOf(uint256)": "6352211e",
					"renounceOwnership()": "715018a6",
					"subirDeNivel(address)": "6a7d1816",
					"transferFrom(address,address,uint256)": "23b872dd",
					"transferOwnership(address)": "f2fde38b",
					"verCochePropietario(address)": "e172fca8"
				}
			},
			"storageLayout": {
				"storage": [
					{
						"astId": 185,
						"contract": "contracts/CarreraCoches/cocheToken.sol:CocheToken",
						"label": "_owner",
						"offset": 0,
						"slot": "0",
						"type": "t_address"
					},
					{
						"astId": 307,
						"contract": "contracts/CarreraCoches/cocheToken.sol:CocheToken",
						"label": "randNonce",
						"offset": 0,
						"slot": "1",
						"type": "t_uint256"
					},
					{
						"astId": 310,
						"contract": "contracts/CarreraCoches/cocheToken.sol:CocheToken",
						"label": "contador",
						"offset": 0,
						"slot": "2",
						"type": "t_uint256"
					},
					{
						"astId": 313,
						"contract": "contracts/CarreraCoches/cocheToken.sol:CocheToken",
						"label": "cooldown",
						"offset": 0,
						"slot": "3",
						"type": "t_uint256"
					},
					{
						"astId": 316,
						"contract": "contracts/CarreraCoches/cocheToken.sol:CocheToken",
						"label": "subirNivel",
						"offset": 0,
						"slot": "4",
						"type": "t_uint256"
					},
					{
						"astId": 319,
						"contract": "contracts/CarreraCoches/cocheToken.sol:CocheToken",
						"label": "cambiarCocheV",
						"offset": 0,
						"slot": "5",
						"type": "t_uint256"
					},
					{
						"astId": 323,
						"contract": "contracts/CarreraCoches/cocheToken.sol:CocheToken",
						"label": "listaCoches",
						"offset": 0,
						"slot": "6",
						"type": "t_array(t_struct(Coche)304_storage)dyn_storage"
					},
					{
						"astId": 353,
						"contract": "contracts/CarreraCoches/cocheToken.sol:CocheToken",
						"label": "cocheDePropietario",
						"offset": 0,
						"slot": "7",
						"type": "t_mapping(t_uint256,t_address)"
					},
					{
						"astId": 357,
						"contract": "contracts/CarreraCoches/cocheToken.sol:CocheToken",
						"label": "numeroCochesPersona",
						"offset": 0,
						"slot": "8",
						"type": "t_mapping(t_address,t_uint256)"
					},
					{
						"astId": 11,
						"contract": "contracts/CarreraCoches/cocheToken.sol:CocheToken",
						"label": "confirmarTransferencia",
						"offset": 0,
						"slot": "9",
						"type": "t_mapping(t_uint256,t_address)"
					}
				],
				"types": {
					"t_address": {
						"encoding": "inplace",
						"label": "address",
						"numberOfBytes": "20"
					},
					"t_array(t_struct(Coche)304_storage)dyn_storage": {
						"base": "t_struct(Coche)304_storage",
						"encoding": "dynamic_array",
						"label": "struct CarreraCoches.Coche[]",
						"numberOfBytes": "32"
					},
					"t_mapping(t_address,t_uint256)": {
						"encoding": "mapping",
						"key": "t_address",
						"label": "mapping(address => uint256)",
						"numberOfBytes": "32",
						"value": "t_uint256"
					},
					"t_mapping(t_uint256,t_address)": {
						"encoding": "mapping",
						"key": "t_uint256",
						"label": "mapping(uint256 => address)",
						"numberOfBytes": "32",
						"value": "t_address"
					},
					"t_string_storage": {
						"encoding": "bytes",
						"label": "string",
						"numberOfBytes": "32"
					},
					"t_struct(Coche)304_storage": {
						"encoding": "inplace",
						"label": "struct CarreraCoches.Coche",
						"members": [
							{
								"astId": 289,
								"contract": "contracts/CarreraCoches/cocheToken.sol:CocheToken",
								"label": "idPiloto",
								"offset": 0,
								"slot": "0",
								"type": "t_address"
							},
							{
								"astId": 291,
								"contract": "contracts/CarreraCoches/cocheToken.sol:CocheToken",
								"label": "modelo",
								"offset": 0,
								"slot": "1",
								"type": "t_string_storage"
							},
							{
								"astId": 293,
								"contract": "contracts/CarreraCoches/cocheToken.sol:CocheToken",
								"label": "marca",
								"offset": 0,
								"slot": "2",
								"type": "t_string_storage"
							},
							{
								"astId": 295,
								"contract": "contracts/CarreraCoches/cocheToken.sol:CocheToken",
								"label": "nombrePiloto",
								"offset": 0,
								"slot": "3",
								"type": "t_string_storage"
							},
							{
								"astId": 297,
								"contract": "contracts/CarreraCoches/cocheToken.sol:CocheToken",
								"label": "carrerasGanadas",
								"offset": 0,
								"slot": "4",
								"type": "t_uint256"
							},
							{
								"astId": 299,
								"contract": "contracts/CarreraCoches/cocheToken.sol:CocheToken",
								"label": "carrerasTotales",
								"offset": 0,
								"slot": "5",
								"type": "t_uint256"
							},
							{
								"astId": 301,
								"contract": "contracts/CarreraCoches/cocheToken.sol:CocheToken",
								"label": "tiempoEspera",
								"offset": 0,
								"slot": "6",
								"type": "t_uint256"
							},
							{
								"astId": 303,
								"contract": "contracts/CarreraCoches/cocheToken.sol:CocheToken",
								"label": "nivel",
								"offset": 0,
								"slot": "7",
								"type": "t_uint32"
							}
						],
						"numberOfBytes": "256"
					},
					"t_uint256": {
						"encoding": "inplace",
						"label": "uint256",
						"numberOfBytes": "32"
					},
					"t_uint32": {
						"encoding": "inplace",
						"label": "uint32",
						"numberOfBytes": "4"
					}
				}
			},
			"userdoc": {
				"kind": "user",
				"methods": {},
				"version": 1
			}
		}
	}
}