{
	"contracts/CarreraCoches/level.sol": {
		"LevelCoches": {
			"abi": [
				{
					"anonymous": false,
					"inputs": [
						{
							"indexed": true,
							"internalType": "address",
							"name": "previousOwner",
							"type": "address"
						},
						{
							"indexed": true,
							"internalType": "address",
							"name": "newOwner",
							"type": "address"
						}
					],
					"name": "OwnershipTransferred",
					"type": "event"
				},
				{
					"anonymous": false,
					"inputs": [
						{
							"indexed": false,
							"internalType": "uint256",
							"name": "compr",
							"type": "uint256"
						}
					],
					"name": "comprobar",
					"type": "event"
				},
				{
					"anonymous": false,
					"inputs": [
						{
							"indexed": false,
							"internalType": "string",
							"name": "ms",
							"type": "string"
						}
					],
					"name": "confirmacionDepositoLleno",
					"type": "event"
				},
				{
					"anonymous": false,
					"inputs": [
						{
							"indexed": false,
							"internalType": "string",
							"name": "ms",
							"type": "string"
						},
						{
							"indexed": false,
							"internalType": "uint256",
							"name": "res",
							"type": "uint256"
						}
					],
					"name": "mostrarResultado",
					"type": "event"
				},
				{
					"anonymous": false,
					"inputs": [
						{
							"indexed": false,
							"internalType": "string",
							"name": "ms1",
							"type": "string"
						},
						{
							"indexed": false,
							"internalType": "string",
							"name": "nPiloto",
							"type": "string"
						},
						{
							"indexed": false,
							"internalType": "string",
							"name": "mar",
							"type": "string"
						}
					],
					"name": "rival",
					"type": "event"
				},
				{
					"inputs": [
						{
							"internalType": "uint256",
							"name": "dineroApostar",
							"type": "uint256"
						}
					],
					"name": "Apostar",
					"outputs": [
						{
							"internalType": "string",
							"name": "",
							"type": "string"
						}
					],
					"stateMutability": "payable",
					"type": "function"
				},
				{
					"inputs": [
						{
							"internalType": "string",
							"name": "_modelo",
							"type": "string"
						},
						{
							"internalType": "string",
							"name": "_marca",
							"type": "string"
						},
						{
							"internalType": "string",
							"name": "_nombrePiloto",
							"type": "string"
						}
					],
					"name": "anadirCoche",
					"outputs": [
						{
							"internalType": "uint256",
							"name": "",
							"type": "uint256"
						}
					],
					"stateMutability": "nonpayable",
					"type": "function"
				},
				{
					"inputs": [
						{
							"internalType": "uint256",
							"name": "_coche",
							"type": "uint256"
						},
						{
							"internalType": "string",
							"name": "_newModelo",
							"type": "string"
						},
						{
							"internalType": "string",
							"name": "_newMarca",
							"type": "string"
						}
					],
					"name": "cambiarCoche",
					"outputs": [],
					"stateMutability": "nonpayable",
					"type": "function"
				},
				{
					"inputs": [
						{
							"internalType": "uint256",
							"name": "",
							"type": "uint256"
						}
					],
					"name": "cocheDePropietario",
					"outputs": [
						{
							"internalType": "address",
							"name": "",
							"type": "address"
						}
					],
					"stateMutability": "view",
					"type": "function"
				},
				{
					"inputs": [
						{
							"internalType": "uint256",
							"name": "",
							"type": "uint256"
						}
					],
					"name": "listaCoches",
					"outputs": [
						{
							"internalType": "address",
							"name": "idPiloto",
							"type": "address"
						},
						{
							"internalType": "string",
							"name": "modelo",
							"type": "string"
						},
						{
							"internalType": "string",
							"name": "marca",
							"type": "string"
						},
						{
							"internalType": "string",
							"name": "nombrePiloto",
							"type": "string"
						},
						{
							"internalType": "uint256",
							"name": "carrerasGanadas",
							"type": "uint256"
						},
						{
							"internalType": "uint256",
							"name": "carrerasTotales",
							"type": "uint256"
						},
						{
							"internalType": "uint256",
							"name": "tiempoEspera",
							"type": "uint256"
						},
						{
							"internalType": "uint32",
							"name": "nivel",
							"type": "uint32"
						}
					],
					"stateMutability": "view",
					"type": "function"
				},
				{
					"inputs": [],
					"name": "numeroAleatorio",
					"outputs": [
						{
							"internalType": "uint256",
							"name": "",
							"type": "uint256"
						}
					],
					"stateMutability": "nonpayable",
					"type": "function"
				},
				{
					"inputs": [
						{
							"internalType": "address",
							"name": "",
							"type": "address"
						}
					],
					"name": "numeroCochesPersona",
					"outputs": [
						{
							"internalType": "uint256",
							"name": "",
							"type": "uint256"
						}
					],
					"stateMutability": "view",
					"type": "function"
				},
				{
					"inputs": [],
					"name": "owner",
					"outputs": [
						{
							"internalType": "address",
							"name": "",
							"type": "address"
						}
					],
					"stateMutability": "view",
					"type": "function"
				},
				{
					"inputs": [],
					"name": "renounceOwnership",
					"outputs": [],
					"stateMutability": "nonpayable",
					"type": "function"
				},
				{
					"inputs": [
						{
							"internalType": "address",
							"name": "newOwner",
							"type": "address"
						}
					],
					"name": "transferOwnership",
					"outputs": [],
					"stateMutability": "nonpayable",
					"type": "function"
				}
			],
			"devdoc": {
				"kind": "dev",
				"methods": {
					"owner()": {
						"details": "Returns the address of the current owner."
					},
					"renounceOwnership()": {
						"details": "Leaves the contract without owner. It will not be possible to call `onlyOwner` functions anymore. Can only be called by the current owner. NOTE: Renouncing ownership will leave the contract without an owner, thereby removing any functionality that is only available to the owner."
					},
					"transferOwnership(address)": {
						"details": "Transfers ownership of the contract to a new account (`newOwner`). Can only be called by the current owner."
					}
				},
				"version": 1
			},
			"evm": {
				"assembly": "    /* \"contracts/CarreraCoches/level.sol\":56:479  contract LevelCoches is CarreraCoches {\r... */\n  mstore(0x40, 0x80)\n    /* \"contracts/CarreraCoches/principal.sol\":370:371  0 */\n  0x00\n    /* \"contracts/CarreraCoches/principal.sol\":353:371  uint randNonce = 0 */\n  0x01\n  sstore\n    /* \"contracts/CarreraCoches/principal.sol\":494:495  0 */\n  0x00\n    /* \"contracts/CarreraCoches/principal.sol\":478:495  uint contador = 0 */\n  0x02\n  sstore\n    /* \"contracts/CarreraCoches/principal.sol\":518:528  60 seconds */\n  0x3c\n    /* \"contracts/CarreraCoches/principal.sol\":502:528  uint cooldown = 60 seconds */\n  0x03\n  sstore\n    /* \"contracts/CarreraCoches/level.sol\":56:479  contract LevelCoches is CarreraCoches {\r... */\n  callvalue\n  dup1\n  iszero\n  tag_1\n  jumpi\n  0x00\n  dup1\n  revert\ntag_1:\n  pop\n    /* \"contracts/CarreraCoches/ownable.sol\":948:980  _transferOwnership(_msgSender()) */\n  tag_4\n    /* \"contracts/CarreraCoches/ownable.sol\":967:979  _msgSender() */\n  tag_5\n    /* \"contracts/CarreraCoches/ownable.sol\":967:977  _msgSender */\n  shl(0x20, tag_6)\n    /* \"contracts/CarreraCoches/ownable.sol\":967:979  _msgSender() */\n  0x20\n  shr\n  jump\t// in\ntag_5:\n    /* \"contracts/CarreraCoches/ownable.sol\":948:966  _transferOwnership */\n  shl(0x20, tag_7)\n    /* \"contracts/CarreraCoches/ownable.sol\":948:980  _transferOwnership(_msgSender()) */\n  0x20\n  shr\n  jump\t// in\ntag_4:\n    /* \"contracts/CarreraCoches/level.sol\":56:479  contract LevelCoches is CarreraCoches {\r... */\n  jump(tag_8)\n    /* \"contracts/CarreraCoches/utils/Context.sol\":656:754  function _msgSender() internal view virtual returns (address) {\r... */\ntag_6:\n    /* \"contracts/CarreraCoches/utils/Context.sol\":709:716  address */\n  0x00\n    /* \"contracts/CarreraCoches/utils/Context.sol\":736:746  msg.sender */\n  caller\n    /* \"contracts/CarreraCoches/utils/Context.sol\":729:746  return msg.sender */\n  swap1\n  pop\n    /* \"contracts/CarreraCoches/utils/Context.sol\":656:754  function _msgSender() internal view virtual returns (address) {\r... */\n  swap1\n  jump\t// out\n    /* \"contracts/CarreraCoches/ownable.sol\":2339:2530  function _transferOwnership(address newOwner) internal virtual {\r... */\ntag_7:\n    /* \"contracts/CarreraCoches/ownable.sol\":2413:2429  address oldOwner */\n  0x00\n    /* \"contracts/CarreraCoches/ownable.sol\":2432:2438  _owner */\n  dup1\n  0x00\n  swap1\n  sload\n  swap1\n  0x0100\n  exp\n  swap1\n  div\n  0xffffffffffffffffffffffffffffffffffffffff\n  and\n    /* \"contracts/CarreraCoches/ownable.sol\":2413:2438  address oldOwner = _owner */\n  swap1\n  pop\n    /* \"contracts/CarreraCoches/ownable.sol\":2458:2466  newOwner */\n  dup2\n    /* \"contracts/CarreraCoches/ownable.sol\":2449:2455  _owner */\n  0x00\n  dup1\n    /* \"contracts/CarreraCoches/ownable.sol\":2449:2466  _owner = newOwner */\n  0x0100\n  exp\n  dup2\n  sload\n  dup2\n  0xffffffffffffffffffffffffffffffffffffffff\n  mul\n  not\n  and\n  swap1\n  dup4\n  0xffffffffffffffffffffffffffffffffffffffff\n  and\n  mul\n  or\n  swap1\n  sstore\n  pop\n    /* \"contracts/CarreraCoches/ownable.sol\":2513:2521  newOwner */\n  dup2\n    /* \"contracts/CarreraCoches/ownable.sol\":2482:2522  OwnershipTransferred(oldOwner, newOwner) */\n  0xffffffffffffffffffffffffffffffffffffffff\n  and\n    /* \"contracts/CarreraCoches/ownable.sol\":2503:2511  oldOwner */\n  dup2\n    /* \"contracts/CarreraCoches/ownable.sol\":2482:2522  OwnershipTransferred(oldOwner, newOwner) */\n  0xffffffffffffffffffffffffffffffffffffffff\n  and\n  0x8be0079c531659141344cd1fd0a4f28419497f9722a3daafe3b4186f6b6457e0\n  mload(0x40)\n  mload(0x40)\n  dup1\n  swap2\n  sub\n  swap1\n  log3\n    /* \"contracts/CarreraCoches/ownable.sol\":2402:2530  {\r... */\n  pop\n    /* \"contracts/CarreraCoches/ownable.sol\":2339:2530  function _transferOwnership(address newOwner) internal virtual {\r... */\n  pop\n  jump\t// out\n    /* \"contracts/CarreraCoches/level.sol\":56:479  contract LevelCoches is CarreraCoches {\r... */\ntag_8:\n  dataSize(sub_0)\n  dup1\n  dataOffset(sub_0)\n  0x00\n  codecopy\n  0x00\n  return\nstop\n\nsub_0: assembly {\n        /* \"contracts/CarreraCoches/level.sol\":56:479  contract LevelCoches is CarreraCoches {\r... */\n      mstore(0x40, 0x80)\n      jumpi(tag_1, lt(calldatasize, 0x04))\n      shr(0xe0, calldataload(0x00))\n      dup1\n      0x858b0554\n      gt\n      tag_12\n      jumpi\n      dup1\n      0x858b0554\n      eq\n      tag_7\n      jumpi\n      dup1\n      0x8da5cb5b\n      eq\n      tag_8\n      jumpi\n      dup1\n      0xd735573d\n      eq\n      tag_9\n      jumpi\n      dup1\n      0xf1413763\n      eq\n      tag_10\n      jumpi\n      dup1\n      0xf2fde38b\n      eq\n      tag_11\n      jumpi\n      jump(tag_1)\n    tag_12:\n      dup1\n      0x1c6743e4\n      eq\n      tag_2\n      jumpi\n      dup1\n      0x2458c544\n      eq\n      tag_3\n      jumpi\n      dup1\n      0x6b6f0494\n      eq\n      tag_4\n      jumpi\n      dup1\n      0x6ba2cdf4\n      eq\n      tag_5\n      jumpi\n      dup1\n      0x715018a6\n      eq\n      tag_6\n      jumpi\n    tag_1:\n      0x00\n      dup1\n      revert\n        /* \"contracts/CarreraCoches/principal.sol\":823:875  mapping (address => uint) public numeroCochesPersona */\n    tag_2:\n      callvalue\n      dup1\n      iszero\n      tag_13\n      jumpi\n      0x00\n      dup1\n      revert\n    tag_13:\n      pop\n      tag_14\n      0x04\n      dup1\n      calldatasize\n      sub\n      dup2\n      add\n      swap1\n      tag_15\n      swap2\n      swap1\n      tag_16\n      jump\t// in\n    tag_15:\n      tag_17\n      jump\t// in\n    tag_14:\n      mload(0x40)\n      tag_18\n      swap2\n      swap1\n      tag_19\n      jump\t// in\n    tag_18:\n      mload(0x40)\n      dup1\n      swap2\n      sub\n      swap1\n      return\n        /* \"contracts/CarreraCoches/principal.sol\":1118:1558  function anadirCoche(string memory _modelo, string memory _marca, string memory _nombrePiloto) public restriccion returns (uint) {\r... */\n    tag_3:\n      callvalue\n      dup1\n      iszero\n      tag_20\n      jumpi\n      0x00\n      dup1\n      revert\n    tag_20:\n      pop\n      tag_21\n      0x04\n      dup1\n      calldatasize\n      sub\n      dup2\n      add\n      swap1\n      tag_22\n      swap2\n      swap1\n      tag_23\n      jump\t// in\n    tag_22:\n      tag_24\n      jump\t// in\n    tag_21:\n      mload(0x40)\n      tag_25\n      swap2\n      swap1\n      tag_19\n      jump\t// in\n    tag_25:\n      mload(0x40)\n      dup1\n      swap2\n      sub\n      swap1\n      return\n        /* \"contracts/CarreraCoches/principal.sol\":2444:3620  function Apostar(uint dineroApostar) public payable returns(string memory) {\r... */\n    tag_4:\n      tag_26\n      0x04\n      dup1\n      calldatasize\n      sub\n      dup2\n      add\n      swap1\n      tag_27\n      swap2\n      swap1\n      tag_28\n      jump\t// in\n    tag_27:\n      tag_29\n      jump\t// in\n    tag_26:\n      mload(0x40)\n      tag_30\n      swap2\n      swap1\n      tag_31\n      jump\t// in\n    tag_30:\n      mload(0x40)\n      dup1\n      swap2\n      sub\n      swap1\n      return\n        /* \"contracts/CarreraCoches/level.sol\":236:476  function cambiarCoche(uint _coche, string memory _newModelo, string memory _newMarca) external nivelAlcanzado(10, _coche) {\r... */\n    tag_5:\n      callvalue\n      dup1\n      iszero\n      tag_32\n      jumpi\n      0x00\n      dup1\n      revert\n    tag_32:\n      pop\n      tag_33\n      0x04\n      dup1\n      calldatasize\n      sub\n      dup2\n      add\n      swap1\n      tag_34\n      swap2\n      swap1\n      tag_35\n      jump\t// in\n    tag_34:\n      tag_36\n      jump\t// in\n    tag_33:\n      stop\n        /* \"contracts/CarreraCoches/ownable.sol\":1720:1823  function renounceOwnership() public virtual onlyOwner {\r... */\n    tag_6:\n      callvalue\n      dup1\n      iszero\n      tag_37\n      jumpi\n      0x00\n      dup1\n      revert\n    tag_37:\n      pop\n      tag_38\n      tag_39\n      jump\t// in\n    tag_38:\n      stop\n        /* \"contracts/CarreraCoches/principal.sol\":765:816  mapping (uint => address) public cocheDePropietario */\n    tag_7:\n      callvalue\n      dup1\n      iszero\n      tag_40\n      jumpi\n      0x00\n      dup1\n      revert\n    tag_40:\n      pop\n      tag_41\n      0x04\n      dup1\n      calldatasize\n      sub\n      dup2\n      add\n      swap1\n      tag_42\n      swap2\n      swap1\n      tag_28\n      jump\t// in\n    tag_42:\n      tag_43\n      jump\t// in\n    tag_41:\n      mload(0x40)\n      tag_44\n      swap2\n      swap1\n      tag_45\n      jump\t// in\n    tag_44:\n      mload(0x40)\n      dup1\n      swap2\n      sub\n      swap1\n      return\n        /* \"contracts/CarreraCoches/ownable.sol\":1069:1156  function owner() public view virtual returns (address) {\r... */\n    tag_8:\n      callvalue\n      dup1\n      iszero\n      tag_46\n      jumpi\n      0x00\n      dup1\n      revert\n    tag_46:\n      pop\n      tag_47\n      tag_48\n      jump\t// in\n    tag_47:\n      mload(0x40)\n      tag_49\n      swap2\n      swap1\n      tag_45\n      jump\t// in\n    tag_49:\n      mload(0x40)\n      dup1\n      swap2\n      sub\n      swap1\n      return\n        /* \"contracts/CarreraCoches/principal.sol\":537:563  Coche[] public listaCoches */\n    tag_9:\n      callvalue\n      dup1\n      iszero\n      tag_50\n      jumpi\n      0x00\n      dup1\n      revert\n    tag_50:\n      pop\n      tag_51\n      0x04\n      dup1\n      calldatasize\n      sub\n      dup2\n      add\n      swap1\n      tag_52\n      swap2\n      swap1\n      tag_28\n      jump\t// in\n    tag_52:\n      tag_53\n      jump\t// in\n    tag_51:\n      mload(0x40)\n      tag_54\n      swap9\n      swap8\n      swap7\n      swap6\n      swap5\n      swap4\n      swap3\n      swap2\n      swap1\n      tag_55\n      jump\t// in\n    tag_54:\n      mload(0x40)\n      dup1\n      swap2\n      sub\n      swap1\n      return\n        /* \"contracts/CarreraCoches/principal.sol\":1888:2107  function numeroAleatorio() public returns (uint256) {\r... */\n    tag_10:\n      callvalue\n      dup1\n      iszero\n      tag_56\n      jumpi\n      0x00\n      dup1\n      revert\n    tag_56:\n      pop\n      tag_57\n      tag_58\n      jump\t// in\n    tag_57:\n      mload(0x40)\n      tag_59\n      swap2\n      swap1\n      tag_19\n      jump\t// in\n    tag_59:\n      mload(0x40)\n      dup1\n      swap2\n      sub\n      swap1\n      return\n        /* \"contracts/CarreraCoches/ownable.sol\":1978:2179  function transferOwnership(address newOwner) public virtual onlyOwner {\r... */\n    tag_11:\n      callvalue\n      dup1\n      iszero\n      tag_60\n      jumpi\n      0x00\n      dup1\n      revert\n    tag_60:\n      pop\n      tag_61\n      0x04\n      dup1\n      calldatasize\n      sub\n      dup2\n      add\n      swap1\n      tag_62\n      swap2\n      swap1\n      tag_16\n      jump\t// in\n    tag_62:\n      tag_63\n      jump\t// in\n    tag_61:\n      stop\n        /* \"contracts/CarreraCoches/principal.sol\":823:875  mapping (address => uint) public numeroCochesPersona */\n    tag_17:\n      mstore(0x20, 0x06)\n      dup1\n      0x00\n      mstore\n      keccak256(0x00, 0x40)\n      0x00\n      swap2\n      pop\n      swap1\n      pop\n      sload\n      dup2\n      jump\t// out\n        /* \"contracts/CarreraCoches/principal.sol\":1118:1558  function anadirCoche(string memory _modelo, string memory _marca, string memory _nombrePiloto) public restriccion returns (uint) {\r... */\n    tag_24:\n        /* \"contracts/CarreraCoches/principal.sol\":1241:1245  uint */\n      0x00\n        /* \"contracts/CarreraCoches/principal.sol\":1007:1008  1 */\n      0x01\n        /* \"contracts/CarreraCoches/principal.sol\":973:992  numeroCochesPersona */\n      0x06\n        /* \"contracts/CarreraCoches/principal.sol\":973:1004  numeroCochesPersona[msg.sender] */\n      0x00\n        /* \"contracts/CarreraCoches/principal.sol\":993:1003  msg.sender */\n      caller\n        /* \"contracts/CarreraCoches/principal.sol\":973:1004  numeroCochesPersona[msg.sender] */\n      0xffffffffffffffffffffffffffffffffffffffff\n      and\n      0xffffffffffffffffffffffffffffffffffffffff\n      and\n      dup2\n      mstore\n      0x20\n      add\n      swap1\n      dup2\n      mstore\n      0x20\n      add\n      0x00\n      keccak256\n      sload\n        /* \"contracts/CarreraCoches/principal.sol\":973:1008  numeroCochesPersona[msg.sender] < 1 */\n      lt\n        /* \"contracts/CarreraCoches/principal.sol\":965:1053  require(numeroCochesPersona[msg.sender] < 1, \"Solo se puede tener un coche por persona\") */\n      tag_65\n      jumpi\n      mload(0x40)\n      0x08c379a000000000000000000000000000000000000000000000000000000000\n      dup2\n      mstore\n      0x04\n      add\n      tag_66\n      swap1\n      tag_67\n      jump\t// in\n    tag_66:\n      mload(0x40)\n      dup1\n      swap2\n      sub\n      swap1\n      revert\n    tag_65:\n        /* \"contracts/CarreraCoches/principal.sol\":1258:1269  listaCoches */\n      0x04\n        /* \"contracts/CarreraCoches/principal.sol\":1275:1369  Coche(msg.sender, _modelo, _marca, _nombrePiloto, 0, 0, uint32(block.timestamp + cooldown), 0) */\n      mload(0x40)\n      dup1\n      0x0100\n      add\n      0x40\n      mstore\n      dup1\n        /* \"contracts/CarreraCoches/principal.sol\":1281:1291  msg.sender */\n      caller\n        /* \"contracts/CarreraCoches/principal.sol\":1275:1369  Coche(msg.sender, _modelo, _marca, _nombrePiloto, 0, 0, uint32(block.timestamp + cooldown), 0) */\n      0xffffffffffffffffffffffffffffffffffffffff\n      and\n      dup2\n      mstore\n      0x20\n      add\n        /* \"contracts/CarreraCoches/principal.sol\":1293:1300  _modelo */\n      dup7\n        /* \"contracts/CarreraCoches/principal.sol\":1275:1369  Coche(msg.sender, _modelo, _marca, _nombrePiloto, 0, 0, uint32(block.timestamp + cooldown), 0) */\n      dup2\n      mstore\n      0x20\n      add\n        /* \"contracts/CarreraCoches/principal.sol\":1302:1308  _marca */\n      dup6\n        /* \"contracts/CarreraCoches/principal.sol\":1275:1369  Coche(msg.sender, _modelo, _marca, _nombrePiloto, 0, 0, uint32(block.timestamp + cooldown), 0) */\n      dup2\n      mstore\n      0x20\n      add\n        /* \"contracts/CarreraCoches/principal.sol\":1310:1323  _nombrePiloto */\n      dup5\n        /* \"contracts/CarreraCoches/principal.sol\":1275:1369  Coche(msg.sender, _modelo, _marca, _nombrePiloto, 0, 0, uint32(block.timestamp + cooldown), 0) */\n      dup2\n      mstore\n      0x20\n      add\n        /* \"contracts/CarreraCoches/principal.sol\":1325:1326  0 */\n      0x00\n        /* \"contracts/CarreraCoches/principal.sol\":1275:1369  Coche(msg.sender, _modelo, _marca, _nombrePiloto, 0, 0, uint32(block.timestamp + cooldown), 0) */\n      dup2\n      mstore\n      0x20\n      add\n        /* \"contracts/CarreraCoches/principal.sol\":1328:1329  0 */\n      0x00\n        /* \"contracts/CarreraCoches/principal.sol\":1275:1369  Coche(msg.sender, _modelo, _marca, _nombrePiloto, 0, 0, uint32(block.timestamp + cooldown), 0) */\n      dup2\n      mstore\n      0x20\n      add\n        /* \"contracts/CarreraCoches/principal.sol\":1356:1364  cooldown */\n      sload(0x03)\n        /* \"contracts/CarreraCoches/principal.sol\":1338:1353  block.timestamp */\n      timestamp\n        /* \"contracts/CarreraCoches/principal.sol\":1338:1364  block.timestamp + cooldown */\n      tag_69\n      swap2\n      swap1\n      tag_70\n      jump\t// in\n    tag_69:\n        /* \"contracts/CarreraCoches/principal.sol\":1275:1369  Coche(msg.sender, _modelo, _marca, _nombrePiloto, 0, 0, uint32(block.timestamp + cooldown), 0) */\n      0xffffffff\n      and\n      dup2\n      mstore\n      0x20\n      add\n        /* \"contracts/CarreraCoches/principal.sol\":1367:1368  0 */\n      0x00\n        /* \"contracts/CarreraCoches/principal.sol\":1275:1369  Coche(msg.sender, _modelo, _marca, _nombrePiloto, 0, 0, uint32(block.timestamp + cooldown), 0) */\n      0xffffffff\n      and\n      dup2\n      mstore\n      pop\n        /* \"contracts/CarreraCoches/principal.sol\":1258:1370  listaCoches.push(Coche(msg.sender, _modelo, _marca, _nombrePiloto, 0, 0, uint32(block.timestamp + cooldown), 0)) */\n      swap1\n      dup1\n      0x01\n      dup2\n      sload\n      add\n      dup1\n      dup3\n      sstore\n      dup1\n      swap2\n      pop\n      pop\n      0x01\n      swap1\n      sub\n      swap1\n      0x00\n      mstore\n      keccak256(0x00, 0x20)\n      swap1\n      0x08\n      mul\n      add\n      0x00\n      swap1\n      swap2\n      swap1\n      swap2\n      swap1\n      swap2\n      pop\n      0x00\n      dup3\n      add\n      mload\n      dup2\n      0x00\n      add\n      exp(0x0100, 0x00)\n      dup2\n      sload\n      dup2\n      0xffffffffffffffffffffffffffffffffffffffff\n      mul\n      not\n      and\n      swap1\n      dup4\n      0xffffffffffffffffffffffffffffffffffffffff\n      and\n      mul\n      or\n      swap1\n      sstore\n      pop\n      0x20\n      dup3\n      add\n      mload\n      dup2\n      0x01\n      add\n      swap1\n      dup1\n      mload\n      swap1\n      0x20\n      add\n      swap1\n      tag_72\n      swap3\n      swap2\n      swap1\n      tag_73\n      jump\t// in\n    tag_72:\n      pop\n      0x40\n      dup3\n      add\n      mload\n      dup2\n      0x02\n      add\n      swap1\n      dup1\n      mload\n      swap1\n      0x20\n      add\n      swap1\n      tag_74\n      swap3\n      swap2\n      swap1\n      tag_73\n      jump\t// in\n    tag_74:\n      pop\n      0x60\n      dup3\n      add\n      mload\n      dup2\n      0x03\n      add\n      swap1\n      dup1\n      mload\n      swap1\n      0x20\n      add\n      swap1\n      tag_75\n      swap3\n      swap2\n      swap1\n      tag_73\n      jump\t// in\n    tag_75:\n      pop\n      0x80\n      dup3\n      add\n      mload\n      dup2\n      0x04\n      add\n      sstore\n      0xa0\n      dup3\n      add\n      mload\n      dup2\n      0x05\n      add\n      sstore\n      0xc0\n      dup3\n      add\n      mload\n      dup2\n      0x06\n      add\n      sstore\n      0xe0\n      dup3\n      add\n      mload\n      dup2\n      0x07\n      add\n      exp(0x0100, 0x00)\n      dup2\n      sload\n      dup2\n      0xffffffff\n      mul\n      not\n      and\n      swap1\n      dup4\n      0xffffffff\n      and\n      mul\n      or\n      swap1\n      sstore\n      pop\n      pop\n      pop\n        /* \"contracts/CarreraCoches/principal.sol\":1381:1388  uint id */\n      0x00\n        /* \"contracts/CarreraCoches/principal.sol\":1391:1402  listaCoches */\n      0x04\n        /* \"contracts/CarreraCoches/principal.sol\":1391:1409  listaCoches.length */\n      dup1\n      sload\n      swap1\n      pop\n        /* \"contracts/CarreraCoches/principal.sol\":1381:1409  uint id = listaCoches.length */\n      swap1\n      pop\n        /* \"contracts/CarreraCoches/principal.sol\":1445:1455  msg.sender */\n      caller\n        /* \"contracts/CarreraCoches/principal.sol\":1420:1438  cocheDePropietario */\n      0x05\n        /* \"contracts/CarreraCoches/principal.sol\":1420:1442  cocheDePropietario[id] */\n      0x00\n        /* \"contracts/CarreraCoches/principal.sol\":1439:1441  id */\n      dup4\n        /* \"contracts/CarreraCoches/principal.sol\":1420:1442  cocheDePropietario[id] */\n      dup2\n      mstore\n      0x20\n      add\n      swap1\n      dup2\n      mstore\n      0x20\n      add\n      0x00\n      keccak256\n      0x00\n        /* \"contracts/CarreraCoches/principal.sol\":1420:1455  cocheDePropietario[id] = msg.sender */\n      0x0100\n      exp\n      dup2\n      sload\n      dup2\n      0xffffffffffffffffffffffffffffffffffffffff\n      mul\n      not\n      and\n      swap1\n      dup4\n      0xffffffffffffffffffffffffffffffffffffffff\n      and\n      mul\n      or\n      swap1\n      sstore\n      pop\n        /* \"contracts/CarreraCoches/principal.sol\":1466:1485  numeroCochesPersona */\n      0x06\n        /* \"contracts/CarreraCoches/principal.sol\":1466:1497  numeroCochesPersona[msg.sender] */\n      0x00\n        /* \"contracts/CarreraCoches/principal.sol\":1486:1496  msg.sender */\n      caller\n        /* \"contracts/CarreraCoches/principal.sol\":1466:1497  numeroCochesPersona[msg.sender] */\n      0xffffffffffffffffffffffffffffffffffffffff\n      and\n      0xffffffffffffffffffffffffffffffffffffffff\n      and\n      dup2\n      mstore\n      0x20\n      add\n      swap1\n      dup2\n      mstore\n      0x20\n      add\n      0x00\n      keccak256\n      0x00\n        /* \"contracts/CarreraCoches/principal.sol\":1466:1499  numeroCochesPersona[msg.sender]++ */\n      dup2\n      sload\n      dup1\n      swap3\n      swap2\n      swap1\n      tag_76\n      swap1\n      tag_77\n      jump\t// in\n    tag_76:\n      swap2\n      swap1\n      pop\n      sstore\n      pop\n        /* \"contracts/CarreraCoches/principal.sol\":1510:1518  contador */\n      0x02\n      0x00\n        /* \"contracts/CarreraCoches/principal.sol\":1510:1520  contador++ */\n      dup2\n      sload\n      dup1\n      swap3\n      swap2\n      swap1\n      tag_78\n      swap1\n      tag_77\n      jump\t// in\n    tag_78:\n      swap2\n      swap1\n      pop\n      sstore\n      pop\n        /* \"contracts/CarreraCoches/principal.sol\":1549:1550  1 */\n      0x01\n        /* \"contracts/CarreraCoches/principal.sol\":1538:1546  contador */\n      sload(0x02)\n        /* \"contracts/CarreraCoches/principal.sol\":1538:1550  contador - 1 */\n      tag_79\n      swap2\n      swap1\n      tag_80\n      jump\t// in\n    tag_79:\n        /* \"contracts/CarreraCoches/principal.sol\":1531:1550  return contador - 1 */\n      swap2\n      pop\n      pop\n        /* \"contracts/CarreraCoches/principal.sol\":1118:1558  function anadirCoche(string memory _modelo, string memory _marca, string memory _nombrePiloto) public restriccion returns (uint) {\r... */\n      swap4\n      swap3\n      pop\n      pop\n      pop\n      jump\t// out\n        /* \"contracts/CarreraCoches/principal.sol\":2444:3620  function Apostar(uint dineroApostar) public payable returns(string memory) {\r... */\n    tag_29:\n        /* \"contracts/CarreraCoches/principal.sol\":2504:2517  string memory */\n      0x60\n        /* \"contracts/CarreraCoches/principal.sol\":2550:2563  dineroApostar */\n      dup2\n        /* \"contracts/CarreraCoches/principal.sol\":2537:2546  msg.value */\n      callvalue\n        /* \"contracts/CarreraCoches/principal.sol\":2537:2563  msg.value == dineroApostar */\n      eq\n        /* \"contracts/CarreraCoches/principal.sol\":2529:2564  require(msg.value == dineroApostar) */\n      tag_82\n      jumpi\n      0x00\n      dup1\n      revert\n    tag_82:\n        /* \"contracts/CarreraCoches/principal.sol\":2585:2594  randNonce */\n      0x01\n      0x00\n        /* \"contracts/CarreraCoches/principal.sol\":2585:2596  randNonce++ */\n      dup2\n      sload\n      dup1\n      swap3\n      swap2\n      swap1\n      tag_83\n      swap1\n      tag_77\n      jump\t// in\n    tag_83:\n      swap2\n      swap1\n      pop\n      sstore\n      pop\n        /* \"contracts/CarreraCoches/principal.sol\":2643:2656  uint256 rival */\n      0x00\n        /* \"contracts/CarreraCoches/principal.sol\":2746:2757  listaCoches */\n      0x04\n        /* \"contracts/CarreraCoches/principal.sol\":2746:2764  listaCoches.length */\n      dup1\n      sload\n      swap1\n      pop\n        /* \"contracts/CarreraCoches/principal.sol\":2694:2709  block.timestamp */\n      timestamp\n        /* \"contracts/CarreraCoches/principal.sol\":2711:2722  listaCoches */\n      0x04\n        /* \"contracts/CarreraCoches/principal.sol\":2711:2729  listaCoches.length */\n      dup1\n      sload\n      swap1\n      pop\n        /* \"contracts/CarreraCoches/principal.sol\":2731:2740  randNonce */\n      sload(0x01)\n        /* \"contracts/CarreraCoches/principal.sol\":2677:2741  abi.encodePacked(block.timestamp, listaCoches.length, randNonce) */\n      add(0x20, mload(0x40))\n      tag_84\n      swap4\n      swap3\n      swap2\n      swap1\n      tag_85\n      jump\t// in\n    tag_84:\n      mload(0x40)\n      0x20\n      dup2\n      dup4\n      sub\n      sub\n      dup2\n      mstore\n      swap1\n      0x40\n      mstore\n        /* \"contracts/CarreraCoches/principal.sol\":2667:2742  keccak256(abi.encodePacked(block.timestamp, listaCoches.length, randNonce)) */\n      dup1\n      mload\n      swap1\n      0x20\n      add\n      keccak256\n        /* \"contracts/CarreraCoches/principal.sol\":2659:2743  uint256(keccak256(abi.encodePacked(block.timestamp, listaCoches.length, randNonce))) */\n      0x00\n      shr\n        /* \"contracts/CarreraCoches/principal.sol\":2659:2764  uint256(keccak256(abi.encodePacked(block.timestamp, listaCoches.length, randNonce))) % listaCoches.length */\n      tag_86\n      swap2\n      swap1\n      tag_87\n      jump\t// in\n    tag_86:\n        /* \"contracts/CarreraCoches/principal.sol\":2643:2764  uint256 rival = uint256(keccak256(abi.encodePacked(block.timestamp, listaCoches.length, randNonce))) % listaCoches.length */\n      swap1\n      pop\n        /* \"contracts/CarreraCoches/principal.sol\":2807:2816  randNonce */\n      0x01\n      0x00\n        /* \"contracts/CarreraCoches/principal.sol\":2807:2818  randNonce++ */\n      dup2\n      sload\n      dup1\n      swap3\n      swap2\n      swap1\n      tag_88\n      swap1\n      tag_77\n      jump\t// in\n    tag_88:\n      swap2\n      swap1\n      pop\n      sstore\n      pop\n        /* \"contracts/CarreraCoches/principal.sol\":2829:2840  uint numero */\n      0x00\n        /* \"contracts/CarreraCoches/principal.sol\":2843:2844  2 */\n      0x02\n        /* \"contracts/CarreraCoches/principal.sol\":2829:2844  uint numero = 2 */\n      swap1\n      pop\n        /* \"contracts/CarreraCoches/principal.sol\":2855:2870  uint256 ganador */\n      0x00\n        /* \"contracts/CarreraCoches/principal.sol\":2948:2954  numero */\n      dup2\n        /* \"contracts/CarreraCoches/principal.sol\":2908:2923  block.timestamp */\n      timestamp\n        /* \"contracts/CarreraCoches/principal.sol\":2925:2931  numero */\n      dup4\n        /* \"contracts/CarreraCoches/principal.sol\":2933:2942  randNonce */\n      sload(0x01)\n        /* \"contracts/CarreraCoches/principal.sol\":2891:2943  abi.encodePacked(block.timestamp, numero, randNonce) */\n      add(0x20, mload(0x40))\n      tag_89\n      swap4\n      swap3\n      swap2\n      swap1\n      tag_85\n      jump\t// in\n    tag_89:\n      mload(0x40)\n      0x20\n      dup2\n      dup4\n      sub\n      sub\n      dup2\n      mstore\n      swap1\n      0x40\n      mstore\n        /* \"contracts/CarreraCoches/principal.sol\":2881:2944  keccak256(abi.encodePacked(block.timestamp, numero, randNonce)) */\n      dup1\n      mload\n      swap1\n      0x20\n      add\n      keccak256\n        /* \"contracts/CarreraCoches/principal.sol\":2873:2945  uint256(keccak256(abi.encodePacked(block.timestamp, numero, randNonce))) */\n      0x00\n      shr\n        /* \"contracts/CarreraCoches/principal.sol\":2873:2954  uint256(keccak256(abi.encodePacked(block.timestamp, numero, randNonce))) % numero */\n      tag_90\n      swap2\n      swap1\n      tag_87\n      jump\t// in\n    tag_90:\n        /* \"contracts/CarreraCoches/principal.sol\":2855:2954  uint256 ganador = uint256(keccak256(abi.encodePacked(block.timestamp, numero, randNonce))) % numero */\n      swap1\n      pop\n        /* \"contracts/CarreraCoches/principal.sol\":2971:2977  uint i */\n      0x00\n        /* \"contracts/CarreraCoches/principal.sol\":2967:3614  for(uint i = 0; i < listaCoches.length; i++){\r... */\n    tag_91:\n        /* \"contracts/CarreraCoches/principal.sol\":2987:2998  listaCoches */\n      0x04\n        /* \"contracts/CarreraCoches/principal.sol\":2987:3005  listaCoches.length */\n      dup1\n      sload\n      swap1\n      pop\n        /* \"contracts/CarreraCoches/principal.sol\":2983:2984  i */\n      dup2\n        /* \"contracts/CarreraCoches/principal.sol\":2983:3005  i < listaCoches.length */\n      lt\n        /* \"contracts/CarreraCoches/principal.sol\":2967:3614  for(uint i = 0; i < listaCoches.length; i++){\r... */\n      iszero\n      tag_92\n      jumpi\n        /* \"contracts/CarreraCoches/principal.sol\":3147:3158  listaCoches */\n      0x04\n        /* \"contracts/CarreraCoches/principal.sol\":3159:3160  i */\n      dup2\n        /* \"contracts/CarreraCoches/principal.sol\":3147:3161  listaCoches[i] */\n      dup2\n      sload\n      dup2\n      lt\n      tag_94\n      jumpi\n      tag_95\n      tag_96\n      jump\t// in\n    tag_95:\n    tag_94:\n      swap1\n      0x00\n      mstore\n      keccak256(0x00, 0x20)\n      swap1\n      0x08\n      mul\n      add\n        /* \"contracts/CarreraCoches/principal.sol\":3147:3170  listaCoches[i].idPiloto */\n      0x00\n      add\n      0x00\n      swap1\n      sload\n      swap1\n      0x0100\n      exp\n      swap1\n      div\n      0xffffffffffffffffffffffffffffffffffffffff\n      and\n        /* \"contracts/CarreraCoches/principal.sol\":3133:3170  msg.sender == listaCoches[i].idPiloto */\n      0xffffffffffffffffffffffffffffffffffffffff\n      and\n        /* \"contracts/CarreraCoches/principal.sol\":3133:3143  msg.sender */\n      caller\n        /* \"contracts/CarreraCoches/principal.sol\":3133:3170  msg.sender == listaCoches[i].idPiloto */\n      0xffffffffffffffffffffffffffffffffffffffff\n      and\n      eq\n        /* \"contracts/CarreraCoches/principal.sol\":3129:3603  if (msg.sender == listaCoches[i].idPiloto) {\r... */\n      iszero\n      tag_98\n      jumpi\n        /* \"contracts/CarreraCoches/principal.sol\":3205:3206  0 */\n      0x00\n        /* \"contracts/CarreraCoches/principal.sol\":3194:3201  ganador */\n      dup3\n        /* \"contracts/CarreraCoches/principal.sol\":3194:3206  ganador == 0 */\n      eq\n        /* \"contracts/CarreraCoches/principal.sol\":3191:3499  if(ganador == 0){\r... */\n      iszero\n      tag_99\n      jumpi\n        /* \"contracts/CarreraCoches/principal.sol\":3230:3239  balance() */\n      tag_100\n        /* \"contracts/CarreraCoches/principal.sol\":3230:3237  balance */\n      tag_101\n        /* \"contracts/CarreraCoches/principal.sol\":3230:3239  balance() */\n      jump\t// in\n    tag_100:\n        /* \"contracts/CarreraCoches/principal.sol\":3262:3281  return \"Has ganado\" */\n      mload(0x40)\n      dup1\n      0x40\n      add\n      0x40\n      mstore\n      dup1\n      0x0a\n      dup2\n      mstore\n      0x20\n      add\n      0x4861732067616e61646f00000000000000000000000000000000000000000000\n      dup2\n      mstore\n      pop\n      swap5\n      pop\n      pop\n      pop\n      pop\n      pop\n      jump(tag_81)\n        /* \"contracts/CarreraCoches/principal.sol\":3191:3499  if(ganador == 0){\r... */\n    tag_99:\n        /* \"contracts/CarreraCoches/principal.sol\":3388:3436  mostrarResultado(\"El coche ganador es: \", rival) */\n      0xa28482eec3136a2461c6c30c08f71ba279c6c51a2d9c7bea4e50d6d2632f3896\n        /* \"contracts/CarreraCoches/principal.sol\":3430:3435  rival */\n      dup5\n        /* \"contracts/CarreraCoches/principal.sol\":3388:3436  mostrarResultado(\"El coche ganador es: \", rival) */\n      mload(0x40)\n      tag_107\n      swap2\n      swap1\n      tag_108\n      jump\t// in\n    tag_107:\n      mload(0x40)\n      dup1\n      swap2\n      sub\n      swap1\n      log1\n        /* \"contracts/CarreraCoches/principal.sol\":3459:3479  return \"Has perdido\" */\n      mload(0x40)\n      dup1\n      0x40\n      add\n      0x40\n      mstore\n      dup1\n      0x0b\n      dup2\n      mstore\n      0x20\n      add\n      0x486173207065726469646f000000000000000000000000000000000000000000\n      dup2\n      mstore\n      pop\n      swap5\n      pop\n      pop\n      pop\n      pop\n      pop\n      jump(tag_81)\n        /* \"contracts/CarreraCoches/principal.sol\":3129:3603  if (msg.sender == listaCoches[i].idPiloto) {\r... */\n    tag_98:\n        /* \"contracts/CarreraCoches/principal.sol\":3007:3010  i++ */\n      dup1\n      dup1\n      tag_118\n      swap1\n      tag_77\n      jump\t// in\n    tag_118:\n      swap2\n      pop\n      pop\n        /* \"contracts/CarreraCoches/principal.sol\":2967:3614  for(uint i = 0; i < listaCoches.length; i++){\r... */\n      jump(tag_91)\n    tag_92:\n      pop\n        /* \"contracts/CarreraCoches/principal.sol\":2519:3620  {\r... */\n      pop\n      pop\n      pop\n        /* \"contracts/CarreraCoches/principal.sol\":2444:3620  function Apostar(uint dineroApostar) public payable returns(string memory) {\r... */\n    tag_81:\n      swap2\n      swap1\n      pop\n      jump\t// out\n        /* \"contracts/CarreraCoches/level.sol\":236:476  function cambiarCoche(uint _coche, string memory _newModelo, string memory _newMarca) external nivelAlcanzado(10, _coche) {\r... */\n    tag_36:\n        /* \"contracts/CarreraCoches/level.sol\":346:348  10 */\n      0x0a\n        /* \"contracts/CarreraCoches/level.sol\":350:356  _coche */\n      dup4\n        /* \"contracts/CarreraCoches/level.sol\":201:207  _nivel */\n      dup2\n        /* \"contracts/CarreraCoches/level.sol\":172:183  listaCoches */\n      0x04\n        /* \"contracts/CarreraCoches/level.sol\":184:190  _coche */\n      dup3\n        /* \"contracts/CarreraCoches/level.sol\":172:191  listaCoches[_coche] */\n      dup2\n      sload\n      dup2\n      lt\n      tag_120\n      jumpi\n      tag_121\n      tag_96\n      jump\t// in\n    tag_121:\n    tag_120:\n      swap1\n      0x00\n      mstore\n      keccak256(0x00, 0x20)\n      swap1\n      0x08\n      mul\n      add\n        /* \"contracts/CarreraCoches/level.sol\":172:197  listaCoches[_coche].nivel */\n      0x07\n      add\n      0x00\n      swap1\n      sload\n      swap1\n      0x0100\n      exp\n      swap1\n      div\n      0xffffffff\n      and\n        /* \"contracts/CarreraCoches/level.sol\":172:207  listaCoches[_coche].nivel >= _nivel */\n      0xffffffff\n      and\n      lt\n      iszero\n        /* \"contracts/CarreraCoches/level.sol\":164:208  require(listaCoches[_coche].nivel >= _nivel) */\n      tag_123\n      jumpi\n      0x00\n      dup1\n      revert\n    tag_123:\n        /* \"contracts/CarreraCoches/level.sol\":389:407  cocheDePropietario */\n      0x05\n        /* \"contracts/CarreraCoches/level.sol\":389:415  cocheDePropietario[_coche] */\n      0x00\n        /* \"contracts/CarreraCoches/level.sol\":408:414  _coche */\n      dup7\n        /* \"contracts/CarreraCoches/level.sol\":389:415  cocheDePropietario[_coche] */\n      dup2\n      mstore\n      0x20\n      add\n      swap1\n      dup2\n      mstore\n      0x20\n      add\n      0x00\n      keccak256\n      0x00\n      swap1\n      sload\n      swap1\n      0x0100\n      exp\n      swap1\n      div\n      0xffffffffffffffffffffffffffffffffffffffff\n      and\n        /* \"contracts/CarreraCoches/level.sol\":377:415  msg.sender==cocheDePropietario[_coche] */\n      0xffffffffffffffffffffffffffffffffffffffff\n      and\n        /* \"contracts/CarreraCoches/level.sol\":377:387  msg.sender */\n      caller\n        /* \"contracts/CarreraCoches/level.sol\":377:415  msg.sender==cocheDePropietario[_coche] */\n      0xffffffffffffffffffffffffffffffffffffffff\n      and\n      eq\n        /* \"contracts/CarreraCoches/level.sol\":369:416  require(msg.sender==cocheDePropietario[_coche]) */\n      tag_125\n      jumpi\n      0x00\n      dup1\n      revert\n    tag_125:\n        /* \"contracts/CarreraCoches/level.sol\":456:466  _newModelo */\n      dup4\n        /* \"contracts/CarreraCoches/level.sol\":427:438  listaCoches */\n      0x04\n        /* \"contracts/CarreraCoches/level.sol\":439:445  _coche */\n      dup7\n        /* \"contracts/CarreraCoches/level.sol\":427:446  listaCoches[_coche] */\n      dup2\n      sload\n      dup2\n      lt\n      tag_126\n      jumpi\n      tag_127\n      tag_96\n      jump\t// in\n    tag_127:\n    tag_126:\n      swap1\n      0x00\n      mstore\n      keccak256(0x00, 0x20)\n      swap1\n      0x08\n      mul\n      add\n        /* \"contracts/CarreraCoches/level.sol\":427:453  listaCoches[_coche].modelo */\n      0x01\n      add\n        /* \"contracts/CarreraCoches/level.sol\":427:466  listaCoches[_coche].modelo = _newModelo */\n      swap1\n      dup1\n      mload\n      swap1\n      0x20\n      add\n      swap1\n      tag_129\n      swap3\n      swap2\n      swap1\n      tag_73\n      jump\t// in\n    tag_129:\n      pop\n        /* \"contracts/CarreraCoches/level.sol\":236:476  function cambiarCoche(uint _coche, string memory _newModelo, string memory _newMarca) external nivelAlcanzado(10, _coche) {\r... */\n      pop\n      pop\n      pop\n      pop\n      pop\n      jump\t// out\n        /* \"contracts/CarreraCoches/ownable.sol\":1720:1823  function renounceOwnership() public virtual onlyOwner {\r... */\n    tag_39:\n        /* \"contracts/CarreraCoches/ownable.sol\":1300:1312  _msgSender() */\n      tag_131\n        /* \"contracts/CarreraCoches/ownable.sol\":1300:1310  _msgSender */\n      tag_132\n        /* \"contracts/CarreraCoches/ownable.sol\":1300:1312  _msgSender() */\n      jump\t// in\n    tag_131:\n        /* \"contracts/CarreraCoches/ownable.sol\":1289:1312  owner() == _msgSender() */\n      0xffffffffffffffffffffffffffffffffffffffff\n      and\n        /* \"contracts/CarreraCoches/ownable.sol\":1289:1296  owner() */\n      tag_133\n        /* \"contracts/CarreraCoches/ownable.sol\":1289:1294  owner */\n      tag_48\n        /* \"contracts/CarreraCoches/ownable.sol\":1289:1296  owner() */\n      jump\t// in\n    tag_133:\n        /* \"contracts/CarreraCoches/ownable.sol\":1289:1312  owner() == _msgSender() */\n      0xffffffffffffffffffffffffffffffffffffffff\n      and\n      eq\n        /* \"contracts/CarreraCoches/ownable.sol\":1281:1349  require(owner() == _msgSender(), \"Ownable: caller is not the owner\") */\n      tag_134\n      jumpi\n      mload(0x40)\n      0x08c379a000000000000000000000000000000000000000000000000000000000\n      dup2\n      mstore\n      0x04\n      add\n      tag_135\n      swap1\n      tag_136\n      jump\t// in\n    tag_135:\n      mload(0x40)\n      dup1\n      swap2\n      sub\n      swap1\n      revert\n    tag_134:\n        /* \"contracts/CarreraCoches/ownable.sol\":1785:1815  _transferOwnership(address(0)) */\n      tag_138\n        /* \"contracts/CarreraCoches/ownable.sol\":1812:1813  0 */\n      0x00\n        /* \"contracts/CarreraCoches/ownable.sol\":1785:1803  _transferOwnership */\n      tag_139\n        /* \"contracts/CarreraCoches/ownable.sol\":1785:1815  _transferOwnership(address(0)) */\n      jump\t// in\n    tag_138:\n        /* \"contracts/CarreraCoches/ownable.sol\":1720:1823  function renounceOwnership() public virtual onlyOwner {\r... */\n      jump\t// out\n        /* \"contracts/CarreraCoches/principal.sol\":765:816  mapping (uint => address) public cocheDePropietario */\n    tag_43:\n      mstore(0x20, 0x05)\n      dup1\n      0x00\n      mstore\n      keccak256(0x00, 0x40)\n      0x00\n      swap2\n      pop\n      sload\n      swap1\n      0x0100\n      exp\n      swap1\n      div\n      0xffffffffffffffffffffffffffffffffffffffff\n      and\n      dup2\n      jump\t// out\n        /* \"contracts/CarreraCoches/ownable.sol\":1069:1156  function owner() public view virtual returns (address) {\r... */\n    tag_48:\n        /* \"contracts/CarreraCoches/ownable.sol\":1115:1122  address */\n      0x00\n        /* \"contracts/CarreraCoches/ownable.sol\":1142:1148  _owner */\n      dup1\n      0x00\n      swap1\n      sload\n      swap1\n      0x0100\n      exp\n      swap1\n      div\n      0xffffffffffffffffffffffffffffffffffffffff\n      and\n        /* \"contracts/CarreraCoches/ownable.sol\":1135:1148  return _owner */\n      swap1\n      pop\n        /* \"contracts/CarreraCoches/ownable.sol\":1069:1156  function owner() public view virtual returns (address) {\r... */\n      swap1\n      jump\t// out\n        /* \"contracts/CarreraCoches/principal.sol\":537:563  Coche[] public listaCoches */\n    tag_53:\n      0x04\n      dup2\n      dup2\n      sload\n      dup2\n      lt\n      tag_141\n      jumpi\n      0x00\n      dup1\n      revert\n    tag_141:\n      swap1\n      0x00\n      mstore\n      keccak256(0x00, 0x20)\n      swap1\n      0x08\n      mul\n      add\n      0x00\n      swap2\n      pop\n      swap1\n      pop\n      dup1\n      0x00\n      add\n      0x00\n      swap1\n      sload\n      swap1\n      0x0100\n      exp\n      swap1\n      div\n      0xffffffffffffffffffffffffffffffffffffffff\n      and\n      swap1\n      dup1\n      0x01\n      add\n      dup1\n      sload\n      tag_143\n      swap1\n      tag_144\n      jump\t// in\n    tag_143:\n      dup1\n      0x1f\n      add\n      0x20\n      dup1\n      swap2\n      div\n      mul\n      0x20\n      add\n      mload(0x40)\n      swap1\n      dup2\n      add\n      0x40\n      mstore\n      dup1\n      swap3\n      swap2\n      swap1\n      dup2\n      dup2\n      mstore\n      0x20\n      add\n      dup3\n      dup1\n      sload\n      tag_145\n      swap1\n      tag_144\n      jump\t// in\n    tag_145:\n      dup1\n      iszero\n      tag_146\n      jumpi\n      dup1\n      0x1f\n      lt\n      tag_147\n      jumpi\n      0x0100\n      dup1\n      dup4\n      sload\n      div\n      mul\n      dup4\n      mstore\n      swap2\n      0x20\n      add\n      swap2\n      jump(tag_146)\n    tag_147:\n      dup3\n      add\n      swap2\n      swap1\n      0x00\n      mstore\n      keccak256(0x00, 0x20)\n      swap1\n    tag_148:\n      dup2\n      sload\n      dup2\n      mstore\n      swap1\n      0x01\n      add\n      swap1\n      0x20\n      add\n      dup1\n      dup4\n      gt\n      tag_148\n      jumpi\n      dup3\n      swap1\n      sub\n      0x1f\n      and\n      dup3\n      add\n      swap2\n    tag_146:\n      pop\n      pop\n      pop\n      pop\n      pop\n      swap1\n      dup1\n      0x02\n      add\n      dup1\n      sload\n      tag_149\n      swap1\n      tag_144\n      jump\t// in\n    tag_149:\n      dup1\n      0x1f\n      add\n      0x20\n      dup1\n      swap2\n      div\n      mul\n      0x20\n      add\n      mload(0x40)\n      swap1\n      dup2\n      add\n      0x40\n      mstore\n      dup1\n      swap3\n      swap2\n      swap1\n      dup2\n      dup2\n      mstore\n      0x20\n      add\n      dup3\n      dup1\n      sload\n      tag_150\n      swap1\n      tag_144\n      jump\t// in\n    tag_150:\n      dup1\n      iszero\n      tag_151\n      jumpi\n      dup1\n      0x1f\n      lt\n      tag_152\n      jumpi\n      0x0100\n      dup1\n      dup4\n      sload\n      div\n      mul\n      dup4\n      mstore\n      swap2\n      0x20\n      add\n      swap2\n      jump(tag_151)\n    tag_152:\n      dup3\n      add\n      swap2\n      swap1\n      0x00\n      mstore\n      keccak256(0x00, 0x20)\n      swap1\n    tag_153:\n      dup2\n      sload\n      dup2\n      mstore\n      swap1\n      0x01\n      add\n      swap1\n      0x20\n      add\n      dup1\n      dup4\n      gt\n      tag_153\n      jumpi\n      dup3\n      swap1\n      sub\n      0x1f\n      and\n      dup3\n      add\n      swap2\n    tag_151:\n      pop\n      pop\n      pop\n      pop\n      pop\n      swap1\n      dup1\n      0x03\n      add\n      dup1\n      sload\n      tag_154\n      swap1\n      tag_144\n      jump\t// in\n    tag_154:\n      dup1\n      0x1f\n      add\n      0x20\n      dup1\n      swap2\n      div\n      mul\n      0x20\n      add\n      mload(0x40)\n      swap1\n      dup2\n      add\n      0x40\n      mstore\n      dup1\n      swap3\n      swap2\n      swap1\n      dup2\n      dup2\n      mstore\n      0x20\n      add\n      dup3\n      dup1\n      sload\n      tag_155\n      swap1\n      tag_144\n      jump\t// in\n    tag_155:\n      dup1\n      iszero\n      tag_156\n      jumpi\n      dup1\n      0x1f\n      lt\n      tag_157\n      jumpi\n      0x0100\n      dup1\n      dup4\n      sload\n      div\n      mul\n      dup4\n      mstore\n      swap2\n      0x20\n      add\n      swap2\n      jump(tag_156)\n    tag_157:\n      dup3\n      add\n      swap2\n      swap1\n      0x00\n      mstore\n      keccak256(0x00, 0x20)\n      swap1\n    tag_158:\n      dup2\n      sload\n      dup2\n      mstore\n      swap1\n      0x01\n      add\n      swap1\n      0x20\n      add\n      dup1\n      dup4\n      gt\n      tag_158\n      jumpi\n      dup3\n      swap1\n      sub\n      0x1f\n      and\n      dup3\n      add\n      swap2\n    tag_156:\n      pop\n      pop\n      pop\n      pop\n      pop\n      swap1\n      dup1\n      0x04\n      add\n      sload\n      swap1\n      dup1\n      0x05\n      add\n      sload\n      swap1\n      dup1\n      0x06\n      add\n      sload\n      swap1\n      dup1\n      0x07\n      add\n      0x00\n      swap1\n      sload\n      swap1\n      0x0100\n      exp\n      swap1\n      div\n      0xffffffff\n      and\n      swap1\n      pop\n      dup9\n      jump\t// out\n        /* \"contracts/CarreraCoches/principal.sol\":1888:2107  function numeroAleatorio() public returns (uint256) {\r... */\n    tag_58:\n        /* \"contracts/CarreraCoches/principal.sol\":1931:1938  uint256 */\n      0x00\n        /* \"contracts/CarreraCoches/principal.sol\":1951:1962  uint numero */\n      dup1\n        /* \"contracts/CarreraCoches/principal.sol\":1965:1966  2 */\n      0x02\n        /* \"contracts/CarreraCoches/principal.sol\":1951:1966  uint numero = 2 */\n      swap1\n      pop\n        /* \"contracts/CarreraCoches/principal.sol\":1977:1991  uint256 result */\n      0x00\n        /* \"contracts/CarreraCoches/principal.sol\":2069:2075  numero */\n      dup2\n        /* \"contracts/CarreraCoches/principal.sol\":2029:2044  block.timestamp */\n      timestamp\n        /* \"contracts/CarreraCoches/principal.sol\":2046:2052  numero */\n      dup4\n        /* \"contracts/CarreraCoches/principal.sol\":2054:2063  randNonce */\n      sload(0x01)\n        /* \"contracts/CarreraCoches/principal.sol\":2012:2064  abi.encodePacked(block.timestamp, numero, randNonce) */\n      add(0x20, mload(0x40))\n      tag_160\n      swap4\n      swap3\n      swap2\n      swap1\n      tag_85\n      jump\t// in\n    tag_160:\n      mload(0x40)\n      0x20\n      dup2\n      dup4\n      sub\n      sub\n      dup2\n      mstore\n      swap1\n      0x40\n      mstore\n        /* \"contracts/CarreraCoches/principal.sol\":2002:2065  keccak256(abi.encodePacked(block.timestamp, numero, randNonce)) */\n      dup1\n      mload\n      swap1\n      0x20\n      add\n      keccak256\n        /* \"contracts/CarreraCoches/principal.sol\":1994:2066  uint256(keccak256(abi.encodePacked(block.timestamp, numero, randNonce))) */\n      0x00\n      shr\n        /* \"contracts/CarreraCoches/principal.sol\":1994:2075  uint256(keccak256(abi.encodePacked(block.timestamp, numero, randNonce))) % numero */\n      tag_161\n      swap2\n      swap1\n      tag_87\n      jump\t// in\n    tag_161:\n        /* \"contracts/CarreraCoches/principal.sol\":1977:2075  uint256 result = uint256(keccak256(abi.encodePacked(block.timestamp, numero, randNonce))) % numero */\n      swap1\n      pop\n        /* \"contracts/CarreraCoches/principal.sol\":2093:2099  result */\n      dup1\n        /* \"contracts/CarreraCoches/principal.sol\":2086:2099  return result */\n      swap3\n      pop\n      pop\n      pop\n        /* \"contracts/CarreraCoches/principal.sol\":1888:2107  function numeroAleatorio() public returns (uint256) {\r... */\n      swap1\n      jump\t// out\n        /* \"contracts/CarreraCoches/ownable.sol\":1978:2179  function transferOwnership(address newOwner) public virtual onlyOwner {\r... */\n    tag_63:\n        /* \"contracts/CarreraCoches/ownable.sol\":1300:1312  _msgSender() */\n      tag_163\n        /* \"contracts/CarreraCoches/ownable.sol\":1300:1310  _msgSender */\n      tag_132\n        /* \"contracts/CarreraCoches/ownable.sol\":1300:1312  _msgSender() */\n      jump\t// in\n    tag_163:\n        /* \"contracts/CarreraCoches/ownable.sol\":1289:1312  owner() == _msgSender() */\n      0xffffffffffffffffffffffffffffffffffffffff\n      and\n        /* \"contracts/CarreraCoches/ownable.sol\":1289:1296  owner() */\n      tag_164\n        /* \"contracts/CarreraCoches/ownable.sol\":1289:1294  owner */\n      tag_48\n        /* \"contracts/CarreraCoches/ownable.sol\":1289:1296  owner() */\n      jump\t// in\n    tag_164:\n        /* \"contracts/CarreraCoches/ownable.sol\":1289:1312  owner() == _msgSender() */\n      0xffffffffffffffffffffffffffffffffffffffff\n      and\n      eq\n        /* \"contracts/CarreraCoches/ownable.sol\":1281:1349  require(owner() == _msgSender(), \"Ownable: caller is not the owner\") */\n      tag_165\n      jumpi\n      mload(0x40)\n      0x08c379a000000000000000000000000000000000000000000000000000000000\n      dup2\n      mstore\n      0x04\n      add\n      tag_166\n      swap1\n      tag_136\n      jump\t// in\n    tag_166:\n      mload(0x40)\n      dup1\n      swap2\n      sub\n      swap1\n      revert\n    tag_165:\n        /* \"contracts/CarreraCoches/ownable.sol\":2087:2088  0 */\n      0x00\n        /* \"contracts/CarreraCoches/ownable.sol\":2067:2089  newOwner != address(0) */\n      0xffffffffffffffffffffffffffffffffffffffff\n      and\n        /* \"contracts/CarreraCoches/ownable.sol\":2067:2075  newOwner */\n      dup2\n        /* \"contracts/CarreraCoches/ownable.sol\":2067:2089  newOwner != address(0) */\n      0xffffffffffffffffffffffffffffffffffffffff\n      and\n      eq\n      iszero\n        /* \"contracts/CarreraCoches/ownable.sol\":2059:2132  require(newOwner != address(0), \"Ownable: new owner is the zero address\") */\n      tag_168\n      jumpi\n      mload(0x40)\n      0x08c379a000000000000000000000000000000000000000000000000000000000\n      dup2\n      mstore\n      0x04\n      add\n      tag_169\n      swap1\n      tag_170\n      jump\t// in\n    tag_169:\n      mload(0x40)\n      dup1\n      swap2\n      sub\n      swap1\n      revert\n    tag_168:\n        /* \"contracts/CarreraCoches/ownable.sol\":2143:2171  _transferOwnership(newOwner) */\n      tag_171\n        /* \"contracts/CarreraCoches/ownable.sol\":2162:2170  newOwner */\n      dup2\n        /* \"contracts/CarreraCoches/ownable.sol\":2143:2161  _transferOwnership */\n      tag_139\n        /* \"contracts/CarreraCoches/ownable.sol\":2143:2171  _transferOwnership(newOwner) */\n      jump\t// in\n    tag_171:\n        /* \"contracts/CarreraCoches/ownable.sol\":1978:2179  function transferOwnership(address newOwner) public virtual onlyOwner {\r... */\n      pop\n      jump\t// out\n        /* \"contracts/CarreraCoches/principal.sol\":3677:3856  function balance() private {\r... */\n    tag_101:\n        /* \"contracts/CarreraCoches/principal.sol\":3724:3734  msg.sender */\n      caller\n        /* \"contracts/CarreraCoches/principal.sol\":3715:3744  payable (msg.sender).transfer */\n      0xffffffffffffffffffffffffffffffffffffffff\n      and\n        /* \"contracts/CarreraCoches/principal.sol\":3715:3771  payable (msg.sender).transfer((address(this).balance)*2) */\n      0x08fc\n        /* \"contracts/CarreraCoches/principal.sol\":3769:3770  2 */\n      0x02\n        /* \"contracts/CarreraCoches/principal.sol\":3746:3767  address(this).balance */\n      selfbalance\n        /* \"contracts/CarreraCoches/principal.sol\":3745:3770  (address(this).balance)*2 */\n      tag_173\n      swap2\n      swap1\n      tag_174\n      jump\t// in\n    tag_173:\n        /* \"contracts/CarreraCoches/principal.sol\":3715:3771  payable (msg.sender).transfer((address(this).balance)*2) */\n      swap1\n      dup2\n      iszero\n      mul\n      swap1\n      mload(0x40)\n      0x00\n      mload(0x40)\n      dup1\n      dup4\n      sub\n      dup2\n      dup6\n      dup9\n      dup9\n      call\n      swap4\n      pop\n      pop\n      pop\n      pop\n      iszero\n      dup1\n      iszero\n      tag_176\n      jumpi\n      returndatasize\n      0x00\n      dup1\n      returndatacopy\n      revert(0x00, returndatasize)\n    tag_176:\n      pop\n        /* \"contracts/CarreraCoches/principal.sol\":3787:3848  mostrarResultado(\"Has ganado: \", ((address(this).balance)*2)) */\n      0xa28482eec3136a2461c6c30c08f71ba279c6c51a2d9c7bea4e50d6d2632f3896\n        /* \"contracts/CarreraCoches/principal.sol\":3845:3846  2 */\n      0x02\n        /* \"contracts/CarreraCoches/principal.sol\":3822:3843  address(this).balance */\n      selfbalance\n        /* \"contracts/CarreraCoches/principal.sol\":3821:3846  (address(this).balance)*2 */\n      tag_177\n      swap2\n      swap1\n      tag_174\n      jump\t// in\n    tag_177:\n        /* \"contracts/CarreraCoches/principal.sol\":3787:3848  mostrarResultado(\"Has ganado: \", ((address(this).balance)*2)) */\n      mload(0x40)\n      tag_178\n      swap2\n      swap1\n      tag_179\n      jump\t// in\n    tag_178:\n      mload(0x40)\n      dup1\n      swap2\n      sub\n      swap1\n      log1\n        /* \"contracts/CarreraCoches/principal.sol\":3677:3856  function balance() private {\r... */\n      jump\t// out\n        /* \"contracts/CarreraCoches/utils/Context.sol\":656:754  function _msgSender() internal view virtual returns (address) {\r... */\n    tag_132:\n        /* \"contracts/CarreraCoches/utils/Context.sol\":709:716  address */\n      0x00\n        /* \"contracts/CarreraCoches/utils/Context.sol\":736:746  msg.sender */\n      caller\n        /* \"contracts/CarreraCoches/utils/Context.sol\":729:746  return msg.sender */\n      swap1\n      pop\n        /* \"contracts/CarreraCoches/utils/Context.sol\":656:754  function _msgSender() internal view virtual returns (address) {\r... */\n      swap1\n      jump\t// out\n        /* \"contracts/CarreraCoches/ownable.sol\":2339:2530  function _transferOwnership(address newOwner) internal virtual {\r... */\n    tag_139:\n        /* \"contracts/CarreraCoches/ownable.sol\":2413:2429  address oldOwner */\n      0x00\n        /* \"contracts/CarreraCoches/ownable.sol\":2432:2438  _owner */\n      dup1\n      0x00\n      swap1\n      sload\n      swap1\n      0x0100\n      exp\n      swap1\n      div\n      0xffffffffffffffffffffffffffffffffffffffff\n      and\n        /* \"contracts/CarreraCoches/ownable.sol\":2413:2438  address oldOwner = _owner */\n      swap1\n      pop\n        /* \"contracts/CarreraCoches/ownable.sol\":2458:2466  newOwner */\n      dup2\n        /* \"contracts/CarreraCoches/ownable.sol\":2449:2455  _owner */\n      0x00\n      dup1\n        /* \"contracts/CarreraCoches/ownable.sol\":2449:2466  _owner = newOwner */\n      0x0100\n      exp\n      dup2\n      sload\n      dup2\n      0xffffffffffffffffffffffffffffffffffffffff\n      mul\n      not\n      and\n      swap1\n      dup4\n      0xffffffffffffffffffffffffffffffffffffffff\n      and\n      mul\n      or\n      swap1\n      sstore\n      pop\n        /* \"contracts/CarreraCoches/ownable.sol\":2513:2521  newOwner */\n      dup2\n        /* \"contracts/CarreraCoches/ownable.sol\":2482:2522  OwnershipTransferred(oldOwner, newOwner) */\n      0xffffffffffffffffffffffffffffffffffffffff\n      and\n        /* \"contracts/CarreraCoches/ownable.sol\":2503:2511  oldOwner */\n      dup2\n        /* \"contracts/CarreraCoches/ownable.sol\":2482:2522  OwnershipTransferred(oldOwner, newOwner) */\n      0xffffffffffffffffffffffffffffffffffffffff\n      and\n      0x8be0079c531659141344cd1fd0a4f28419497f9722a3daafe3b4186f6b6457e0\n      mload(0x40)\n      mload(0x40)\n      dup1\n      swap2\n      sub\n      swap1\n      log3\n        /* \"contracts/CarreraCoches/ownable.sol\":2402:2530  {\r... */\n      pop\n        /* \"contracts/CarreraCoches/ownable.sol\":2339:2530  function _transferOwnership(address newOwner) internal virtual {\r... */\n      pop\n      jump\t// out\n    tag_73:\n      dup3\n      dup1\n      sload\n      tag_184\n      swap1\n      tag_144\n      jump\t// in\n    tag_184:\n      swap1\n      0x00\n      mstore\n      keccak256(0x00, 0x20)\n      swap1\n      0x1f\n      add\n      0x20\n      swap1\n      div\n      dup2\n      add\n      swap3\n      dup3\n      tag_186\n      jumpi\n      0x00\n      dup6\n      sstore\n      jump(tag_185)\n    tag_186:\n      dup3\n      0x1f\n      lt\n      tag_187\n      jumpi\n      dup1\n      mload\n      not(0xff)\n      and\n      dup4\n      dup1\n      add\n      or\n      dup6\n      sstore\n      jump(tag_185)\n    tag_187:\n      dup3\n      dup1\n      add\n      0x01\n      add\n      dup6\n      sstore\n      dup3\n      iszero\n      tag_185\n      jumpi\n      swap2\n      dup3\n      add\n    tag_188:\n      dup3\n      dup2\n      gt\n      iszero\n      tag_189\n      jumpi\n      dup3\n      mload\n      dup3\n      sstore\n      swap2\n      0x20\n      add\n      swap2\n      swap1\n      0x01\n      add\n      swap1\n      jump(tag_188)\n    tag_189:\n    tag_185:\n      pop\n      swap1\n      pop\n      tag_190\n      swap2\n      swap1\n      tag_191\n      jump\t// in\n    tag_190:\n      pop\n      swap1\n      jump\t// out\n    tag_191:\n    tag_192:\n      dup1\n      dup3\n      gt\n      iszero\n      tag_193\n      jumpi\n      0x00\n      dup2\n      0x00\n      swap1\n      sstore\n      pop\n      0x01\n      add\n      jump(tag_192)\n    tag_193:\n      pop\n      swap1\n      jump\t// out\n        /* \"#utility.yul\":7:419   */\n    tag_195:\n        /* \"#utility.yul\":85:90   */\n      0x00\n        /* \"#utility.yul\":110:176   */\n      tag_197\n        /* \"#utility.yul\":126:175   */\n      tag_198\n        /* \"#utility.yul\":168:174   */\n      dup5\n        /* \"#utility.yul\":126:175   */\n      tag_199\n      jump\t// in\n    tag_198:\n        /* \"#utility.yul\":110:176   */\n      tag_200\n      jump\t// in\n    tag_197:\n        /* \"#utility.yul\":101:176   */\n      swap1\n      pop\n        /* \"#utility.yul\":199:205   */\n      dup3\n        /* \"#utility.yul\":192:197   */\n      dup2\n        /* \"#utility.yul\":185:206   */\n      mstore\n        /* \"#utility.yul\":237:241   */\n      0x20\n        /* \"#utility.yul\":230:235   */\n      dup2\n        /* \"#utility.yul\":226:242   */\n      add\n        /* \"#utility.yul\":275:278   */\n      dup5\n        /* \"#utility.yul\":266:272   */\n      dup5\n        /* \"#utility.yul\":261:264   */\n      dup5\n        /* \"#utility.yul\":257:273   */\n      add\n        /* \"#utility.yul\":254:279   */\n      gt\n        /* \"#utility.yul\":251:363   */\n      iszero\n      tag_201\n      jumpi\n        /* \"#utility.yul\":282:361   */\n      tag_202\n      tag_203\n      jump\t// in\n    tag_202:\n        /* \"#utility.yul\":251:363   */\n    tag_201:\n        /* \"#utility.yul\":372:413   */\n      tag_204\n        /* \"#utility.yul\":406:412   */\n      dup5\n        /* \"#utility.yul\":401:404   */\n      dup3\n        /* \"#utility.yul\":396:399   */\n      dup6\n        /* \"#utility.yul\":372:413   */\n      tag_205\n      jump\t// in\n    tag_204:\n        /* \"#utility.yul\":91:419   */\n      pop\n        /* \"#utility.yul\":7:419   */\n      swap4\n      swap3\n      pop\n      pop\n      pop\n      jump\t// out\n        /* \"#utility.yul\":425:564   */\n    tag_206:\n        /* \"#utility.yul\":471:476   */\n      0x00\n        /* \"#utility.yul\":509:515   */\n      dup2\n        /* \"#utility.yul\":496:516   */\n      calldataload\n        /* \"#utility.yul\":487:516   */\n      swap1\n      pop\n        /* \"#utility.yul\":525:558   */\n      tag_208\n        /* \"#utility.yul\":552:557   */\n      dup2\n        /* \"#utility.yul\":525:558   */\n      tag_209\n      jump\t// in\n    tag_208:\n        /* \"#utility.yul\":425:564   */\n      swap3\n      swap2\n      pop\n      pop\n      jump\t// out\n        /* \"#utility.yul\":584:924   */\n    tag_210:\n        /* \"#utility.yul\":640:645   */\n      0x00\n        /* \"#utility.yul\":689:692   */\n      dup3\n        /* \"#utility.yul\":682:686   */\n      0x1f\n        /* \"#utility.yul\":674:680   */\n      dup4\n        /* \"#utility.yul\":670:687   */\n      add\n        /* \"#utility.yul\":666:693   */\n      slt\n        /* \"#utility.yul\":656:778   */\n      tag_212\n      jumpi\n        /* \"#utility.yul\":697:776   */\n      tag_213\n      tag_214\n      jump\t// in\n    tag_213:\n        /* \"#utility.yul\":656:778   */\n    tag_212:\n        /* \"#utility.yul\":814:820   */\n      dup2\n        /* \"#utility.yul\":801:821   */\n      calldataload\n        /* \"#utility.yul\":839:918   */\n      tag_215\n        /* \"#utility.yul\":914:917   */\n      dup5\n        /* \"#utility.yul\":906:912   */\n      dup3\n        /* \"#utility.yul\":899:903   */\n      0x20\n        /* \"#utility.yul\":891:897   */\n      dup7\n        /* \"#utility.yul\":887:904   */\n      add\n        /* \"#utility.yul\":839:918   */\n      tag_195\n      jump\t// in\n    tag_215:\n        /* \"#utility.yul\":830:918   */\n      swap2\n      pop\n        /* \"#utility.yul\":646:924   */\n      pop\n        /* \"#utility.yul\":584:924   */\n      swap3\n      swap2\n      pop\n      pop\n      jump\t// out\n        /* \"#utility.yul\":930:1069   */\n    tag_216:\n        /* \"#utility.yul\":976:981   */\n      0x00\n        /* \"#utility.yul\":1014:1020   */\n      dup2\n        /* \"#utility.yul\":1001:1021   */\n      calldataload\n        /* \"#utility.yul\":992:1021   */\n      swap1\n      pop\n        /* \"#utility.yul\":1030:1063   */\n      tag_218\n        /* \"#utility.yul\":1057:1062   */\n      dup2\n        /* \"#utility.yul\":1030:1063   */\n      tag_219\n      jump\t// in\n    tag_218:\n        /* \"#utility.yul\":930:1069   */\n      swap3\n      swap2\n      pop\n      pop\n      jump\t// out\n        /* \"#utility.yul\":1075:1404   */\n    tag_16:\n        /* \"#utility.yul\":1134:1140   */\n      0x00\n        /* \"#utility.yul\":1183:1185   */\n      0x20\n        /* \"#utility.yul\":1171:1180   */\n      dup3\n        /* \"#utility.yul\":1162:1169   */\n      dup5\n        /* \"#utility.yul\":1158:1181   */\n      sub\n        /* \"#utility.yul\":1154:1186   */\n      slt\n        /* \"#utility.yul\":1151:1270   */\n      iszero\n      tag_221\n      jumpi\n        /* \"#utility.yul\":1189:1268   */\n      tag_222\n      tag_223\n      jump\t// in\n    tag_222:\n        /* \"#utility.yul\":1151:1270   */\n    tag_221:\n        /* \"#utility.yul\":1309:1310   */\n      0x00\n        /* \"#utility.yul\":1334:1387   */\n      tag_224\n        /* \"#utility.yul\":1379:1386   */\n      dup5\n        /* \"#utility.yul\":1370:1376   */\n      dup3\n        /* \"#utility.yul\":1359:1368   */\n      dup6\n        /* \"#utility.yul\":1355:1377   */\n      add\n        /* \"#utility.yul\":1334:1387   */\n      tag_206\n      jump\t// in\n    tag_224:\n        /* \"#utility.yul\":1324:1387   */\n      swap2\n      pop\n        /* \"#utility.yul\":1280:1397   */\n      pop\n        /* \"#utility.yul\":1075:1404   */\n      swap3\n      swap2\n      pop\n      pop\n      jump\t// out\n        /* \"#utility.yul\":1410:2569   */\n    tag_23:\n        /* \"#utility.yul\":1517:1523   */\n      0x00\n        /* \"#utility.yul\":1525:1531   */\n      dup1\n        /* \"#utility.yul\":1533:1539   */\n      0x00\n        /* \"#utility.yul\":1582:1584   */\n      0x60\n        /* \"#utility.yul\":1570:1579   */\n      dup5\n        /* \"#utility.yul\":1561:1568   */\n      dup7\n        /* \"#utility.yul\":1557:1580   */\n      sub\n        /* \"#utility.yul\":1553:1585   */\n      slt\n        /* \"#utility.yul\":1550:1669   */\n      iszero\n      tag_226\n      jumpi\n        /* \"#utility.yul\":1588:1667   */\n      tag_227\n      tag_223\n      jump\t// in\n    tag_227:\n        /* \"#utility.yul\":1550:1669   */\n    tag_226:\n        /* \"#utility.yul\":1736:1737   */\n      0x00\n        /* \"#utility.yul\":1725:1734   */\n      dup5\n        /* \"#utility.yul\":1721:1738   */\n      add\n        /* \"#utility.yul\":1708:1739   */\n      calldataload\n        /* \"#utility.yul\":1766:1784   */\n      0xffffffffffffffff\n        /* \"#utility.yul\":1758:1764   */\n      dup2\n        /* \"#utility.yul\":1755:1785   */\n      gt\n        /* \"#utility.yul\":1752:1869   */\n      iszero\n      tag_228\n      jumpi\n        /* \"#utility.yul\":1788:1867   */\n      tag_229\n      tag_230\n      jump\t// in\n    tag_229:\n        /* \"#utility.yul\":1752:1869   */\n    tag_228:\n        /* \"#utility.yul\":1893:1956   */\n      tag_231\n        /* \"#utility.yul\":1948:1955   */\n      dup7\n        /* \"#utility.yul\":1939:1945   */\n      dup3\n        /* \"#utility.yul\":1928:1937   */\n      dup8\n        /* \"#utility.yul\":1924:1946   */\n      add\n        /* \"#utility.yul\":1893:1956   */\n      tag_210\n      jump\t// in\n    tag_231:\n        /* \"#utility.yul\":1883:1956   */\n      swap4\n      pop\n        /* \"#utility.yul\":1679:1966   */\n      pop\n        /* \"#utility.yul\":2033:2035   */\n      0x20\n        /* \"#utility.yul\":2022:2031   */\n      dup5\n        /* \"#utility.yul\":2018:2036   */\n      add\n        /* \"#utility.yul\":2005:2037   */\n      calldataload\n        /* \"#utility.yul\":2064:2082   */\n      0xffffffffffffffff\n        /* \"#utility.yul\":2056:2062   */\n      dup2\n        /* \"#utility.yul\":2053:2083   */\n      gt\n        /* \"#utility.yul\":2050:2167   */\n      iszero\n      tag_232\n      jumpi\n        /* \"#utility.yul\":2086:2165   */\n      tag_233\n      tag_230\n      jump\t// in\n    tag_233:\n        /* \"#utility.yul\":2050:2167   */\n    tag_232:\n        /* \"#utility.yul\":2191:2254   */\n      tag_234\n        /* \"#utility.yul\":2246:2253   */\n      dup7\n        /* \"#utility.yul\":2237:2243   */\n      dup3\n        /* \"#utility.yul\":2226:2235   */\n      dup8\n        /* \"#utility.yul\":2222:2244   */\n      add\n        /* \"#utility.yul\":2191:2254   */\n      tag_210\n      jump\t// in\n    tag_234:\n        /* \"#utility.yul\":2181:2254   */\n      swap3\n      pop\n        /* \"#utility.yul\":1976:2264   */\n      pop\n        /* \"#utility.yul\":2331:2333   */\n      0x40\n        /* \"#utility.yul\":2320:2329   */\n      dup5\n        /* \"#utility.yul\":2316:2334   */\n      add\n        /* \"#utility.yul\":2303:2335   */\n      calldataload\n        /* \"#utility.yul\":2362:2380   */\n      0xffffffffffffffff\n        /* \"#utility.yul\":2354:2360   */\n      dup2\n        /* \"#utility.yul\":2351:2381   */\n      gt\n        /* \"#utility.yul\":2348:2465   */\n      iszero\n      tag_235\n      jumpi\n        /* \"#utility.yul\":2384:2463   */\n      tag_236\n      tag_230\n      jump\t// in\n    tag_236:\n        /* \"#utility.yul\":2348:2465   */\n    tag_235:\n        /* \"#utility.yul\":2489:2552   */\n      tag_237\n        /* \"#utility.yul\":2544:2551   */\n      dup7\n        /* \"#utility.yul\":2535:2541   */\n      dup3\n        /* \"#utility.yul\":2524:2533   */\n      dup8\n        /* \"#utility.yul\":2520:2542   */\n      add\n        /* \"#utility.yul\":2489:2552   */\n      tag_210\n      jump\t// in\n    tag_237:\n        /* \"#utility.yul\":2479:2552   */\n      swap2\n      pop\n        /* \"#utility.yul\":2274:2562   */\n      pop\n        /* \"#utility.yul\":1410:2569   */\n      swap3\n      pop\n      swap3\n      pop\n      swap3\n      jump\t// out\n        /* \"#utility.yul\":2575:2904   */\n    tag_28:\n        /* \"#utility.yul\":2634:2640   */\n      0x00\n        /* \"#utility.yul\":2683:2685   */\n      0x20\n        /* \"#utility.yul\":2671:2680   */\n      dup3\n        /* \"#utility.yul\":2662:2669   */\n      dup5\n        /* \"#utility.yul\":2658:2681   */\n      sub\n        /* \"#utility.yul\":2654:2686   */\n      slt\n        /* \"#utility.yul\":2651:2770   */\n      iszero\n      tag_239\n      jumpi\n        /* \"#utility.yul\":2689:2768   */\n      tag_240\n      tag_223\n      jump\t// in\n    tag_240:\n        /* \"#utility.yul\":2651:2770   */\n    tag_239:\n        /* \"#utility.yul\":2809:2810   */\n      0x00\n        /* \"#utility.yul\":2834:2887   */\n      tag_241\n        /* \"#utility.yul\":2879:2886   */\n      dup5\n        /* \"#utility.yul\":2870:2876   */\n      dup3\n        /* \"#utility.yul\":2859:2868   */\n      dup6\n        /* \"#utility.yul\":2855:2877   */\n      add\n        /* \"#utility.yul\":2834:2887   */\n      tag_216\n      jump\t// in\n    tag_241:\n        /* \"#utility.yul\":2824:2887   */\n      swap2\n      pop\n        /* \"#utility.yul\":2780:2897   */\n      pop\n        /* \"#utility.yul\":2575:2904   */\n      swap3\n      swap2\n      pop\n      pop\n      jump\t// out\n        /* \"#utility.yul\":2910:3889   */\n    tag_35:\n        /* \"#utility.yul\":3007:3013   */\n      0x00\n        /* \"#utility.yul\":3015:3021   */\n      dup1\n        /* \"#utility.yul\":3023:3029   */\n      0x00\n        /* \"#utility.yul\":3072:3074   */\n      0x60\n        /* \"#utility.yul\":3060:3069   */\n      dup5\n        /* \"#utility.yul\":3051:3058   */\n      dup7\n        /* \"#utility.yul\":3047:3070   */\n      sub\n        /* \"#utility.yul\":3043:3075   */\n      slt\n        /* \"#utility.yul\":3040:3159   */\n      iszero\n      tag_243\n      jumpi\n        /* \"#utility.yul\":3078:3157   */\n      tag_244\n      tag_223\n      jump\t// in\n    tag_244:\n        /* \"#utility.yul\":3040:3159   */\n    tag_243:\n        /* \"#utility.yul\":3198:3199   */\n      0x00\n        /* \"#utility.yul\":3223:3276   */\n      tag_245\n        /* \"#utility.yul\":3268:3275   */\n      dup7\n        /* \"#utility.yul\":3259:3265   */\n      dup3\n        /* \"#utility.yul\":3248:3257   */\n      dup8\n        /* \"#utility.yul\":3244:3266   */\n      add\n        /* \"#utility.yul\":3223:3276   */\n      tag_216\n      jump\t// in\n    tag_245:\n        /* \"#utility.yul\":3213:3276   */\n      swap4\n      pop\n        /* \"#utility.yul\":3169:3286   */\n      pop\n        /* \"#utility.yul\":3353:3355   */\n      0x20\n        /* \"#utility.yul\":3342:3351   */\n      dup5\n        /* \"#utility.yul\":3338:3356   */\n      add\n        /* \"#utility.yul\":3325:3357   */\n      calldataload\n        /* \"#utility.yul\":3384:3402   */\n      0xffffffffffffffff\n        /* \"#utility.yul\":3376:3382   */\n      dup2\n        /* \"#utility.yul\":3373:3403   */\n      gt\n        /* \"#utility.yul\":3370:3487   */\n      iszero\n      tag_246\n      jumpi\n        /* \"#utility.yul\":3406:3485   */\n      tag_247\n      tag_230\n      jump\t// in\n    tag_247:\n        /* \"#utility.yul\":3370:3487   */\n    tag_246:\n        /* \"#utility.yul\":3511:3574   */\n      tag_248\n        /* \"#utility.yul\":3566:3573   */\n      dup7\n        /* \"#utility.yul\":3557:3563   */\n      dup3\n        /* \"#utility.yul\":3546:3555   */\n      dup8\n        /* \"#utility.yul\":3542:3564   */\n      add\n        /* \"#utility.yul\":3511:3574   */\n      tag_210\n      jump\t// in\n    tag_248:\n        /* \"#utility.yul\":3501:3574   */\n      swap3\n      pop\n        /* \"#utility.yul\":3296:3584   */\n      pop\n        /* \"#utility.yul\":3651:3653   */\n      0x40\n        /* \"#utility.yul\":3640:3649   */\n      dup5\n        /* \"#utility.yul\":3636:3654   */\n      add\n        /* \"#utility.yul\":3623:3655   */\n      calldataload\n        /* \"#utility.yul\":3682:3700   */\n      0xffffffffffffffff\n        /* \"#utility.yul\":3674:3680   */\n      dup2\n        /* \"#utility.yul\":3671:3701   */\n      gt\n        /* \"#utility.yul\":3668:3785   */\n      iszero\n      tag_249\n      jumpi\n        /* \"#utility.yul\":3704:3783   */\n      tag_250\n      tag_230\n      jump\t// in\n    tag_250:\n        /* \"#utility.yul\":3668:3785   */\n    tag_249:\n        /* \"#utility.yul\":3809:3872   */\n      tag_251\n        /* \"#utility.yul\":3864:3871   */\n      dup7\n        /* \"#utility.yul\":3855:3861   */\n      dup3\n        /* \"#utility.yul\":3844:3853   */\n      dup8\n        /* \"#utility.yul\":3840:3862   */\n      add\n        /* \"#utility.yul\":3809:3872   */\n      tag_210\n      jump\t// in\n    tag_251:\n        /* \"#utility.yul\":3799:3872   */\n      swap2\n      pop\n        /* \"#utility.yul\":3594:3882   */\n      pop\n        /* \"#utility.yul\":2910:3889   */\n      swap3\n      pop\n      swap3\n      pop\n      swap3\n      jump\t// out\n        /* \"#utility.yul\":3895:4013   */\n    tag_252:\n        /* \"#utility.yul\":3982:4006   */\n      tag_254\n        /* \"#utility.yul\":4000:4005   */\n      dup2\n        /* \"#utility.yul\":3982:4006   */\n      tag_255\n      jump\t// in\n    tag_254:\n        /* \"#utility.yul\":3977:3980   */\n      dup3\n        /* \"#utility.yul\":3970:4007   */\n      mstore\n        /* \"#utility.yul\":3895:4013   */\n      pop\n      pop\n      jump\t// out\n        /* \"#utility.yul\":4019:4383   */\n    tag_256:\n        /* \"#utility.yul\":4107:4110   */\n      0x00\n        /* \"#utility.yul\":4135:4174   */\n      tag_258\n        /* \"#utility.yul\":4168:4173   */\n      dup3\n        /* \"#utility.yul\":4135:4174   */\n      tag_259\n      jump\t// in\n    tag_258:\n        /* \"#utility.yul\":4190:4261   */\n      tag_260\n        /* \"#utility.yul\":4254:4260   */\n      dup2\n        /* \"#utility.yul\":4249:4252   */\n      dup6\n        /* \"#utility.yul\":4190:4261   */\n      tag_261\n      jump\t// in\n    tag_260:\n        /* \"#utility.yul\":4183:4261   */\n      swap4\n      pop\n        /* \"#utility.yul\":4270:4322   */\n      tag_262\n        /* \"#utility.yul\":4315:4321   */\n      dup2\n        /* \"#utility.yul\":4310:4313   */\n      dup6\n        /* \"#utility.yul\":4303:4307   */\n      0x20\n        /* \"#utility.yul\":4296:4301   */\n      dup7\n        /* \"#utility.yul\":4292:4308   */\n      add\n        /* \"#utility.yul\":4270:4322   */\n      tag_263\n      jump\t// in\n    tag_262:\n        /* \"#utility.yul\":4347:4376   */\n      tag_264\n        /* \"#utility.yul\":4369:4375   */\n      dup2\n        /* \"#utility.yul\":4347:4376   */\n      tag_265\n      jump\t// in\n    tag_264:\n        /* \"#utility.yul\":4342:4345   */\n      dup5\n        /* \"#utility.yul\":4338:4377   */\n      add\n        /* \"#utility.yul\":4331:4377   */\n      swap2\n      pop\n        /* \"#utility.yul\":4111:4383   */\n      pop\n        /* \"#utility.yul\":4019:4383   */\n      swap3\n      swap2\n      pop\n      pop\n      jump\t// out\n        /* \"#utility.yul\":4389:4755   */\n    tag_266:\n        /* \"#utility.yul\":4531:4534   */\n      0x00\n        /* \"#utility.yul\":4552:4619   */\n      tag_268\n        /* \"#utility.yul\":4616:4618   */\n      0x28\n        /* \"#utility.yul\":4611:4614   */\n      dup4\n        /* \"#utility.yul\":4552:4619   */\n      tag_261\n      jump\t// in\n    tag_268:\n        /* \"#utility.yul\":4545:4619   */\n      swap2\n      pop\n        /* \"#utility.yul\":4628:4721   */\n      tag_269\n        /* \"#utility.yul\":4717:4720   */\n      dup3\n        /* \"#utility.yul\":4628:4721   */\n      tag_270\n      jump\t// in\n    tag_269:\n        /* \"#utility.yul\":4746:4748   */\n      0x40\n        /* \"#utility.yul\":4741:4744   */\n      dup3\n        /* \"#utility.yul\":4737:4749   */\n      add\n        /* \"#utility.yul\":4730:4749   */\n      swap1\n      pop\n        /* \"#utility.yul\":4389:4755   */\n      swap2\n      swap1\n      pop\n      jump\t// out\n        /* \"#utility.yul\":4761:5127   */\n    tag_271:\n        /* \"#utility.yul\":4903:4906   */\n      0x00\n        /* \"#utility.yul\":4924:4991   */\n      tag_273\n        /* \"#utility.yul\":4988:4990   */\n      0x26\n        /* \"#utility.yul\":4983:4986   */\n      dup4\n        /* \"#utility.yul\":4924:4991   */\n      tag_261\n      jump\t// in\n    tag_273:\n        /* \"#utility.yul\":4917:4991   */\n      swap2\n      pop\n        /* \"#utility.yul\":5000:5093   */\n      tag_274\n        /* \"#utility.yul\":5089:5092   */\n      dup3\n        /* \"#utility.yul\":5000:5093   */\n      tag_275\n      jump\t// in\n    tag_274:\n        /* \"#utility.yul\":5118:5120   */\n      0x40\n        /* \"#utility.yul\":5113:5116   */\n      dup3\n        /* \"#utility.yul\":5109:5121   */\n      add\n        /* \"#utility.yul\":5102:5121   */\n      swap1\n      pop\n        /* \"#utility.yul\":4761:5127   */\n      swap2\n      swap1\n      pop\n      jump\t// out\n        /* \"#utility.yul\":5133:5499   */\n    tag_276:\n        /* \"#utility.yul\":5275:5278   */\n      0x00\n        /* \"#utility.yul\":5296:5363   */\n      tag_278\n        /* \"#utility.yul\":5360:5362   */\n      0x0c\n        /* \"#utility.yul\":5355:5358   */\n      dup4\n        /* \"#utility.yul\":5296:5363   */\n      tag_261\n      jump\t// in\n    tag_278:\n        /* \"#utility.yul\":5289:5363   */\n      swap2\n      pop\n        /* \"#utility.yul\":5372:5465   */\n      tag_279\n        /* \"#utility.yul\":5461:5464   */\n      dup3\n        /* \"#utility.yul\":5372:5465   */\n      tag_280\n      jump\t// in\n    tag_279:\n        /* \"#utility.yul\":5490:5492   */\n      0x20\n        /* \"#utility.yul\":5485:5488   */\n      dup3\n        /* \"#utility.yul\":5481:5493   */\n      add\n        /* \"#utility.yul\":5474:5493   */\n      swap1\n      pop\n        /* \"#utility.yul\":5133:5499   */\n      swap2\n      swap1\n      pop\n      jump\t// out\n        /* \"#utility.yul\":5505:5871   */\n    tag_281:\n        /* \"#utility.yul\":5647:5650   */\n      0x00\n        /* \"#utility.yul\":5668:5735   */\n      tag_283\n        /* \"#utility.yul\":5732:5734   */\n      0x20\n        /* \"#utility.yul\":5727:5730   */\n      dup4\n        /* \"#utility.yul\":5668:5735   */\n      tag_261\n      jump\t// in\n    tag_283:\n        /* \"#utility.yul\":5661:5735   */\n      swap2\n      pop\n        /* \"#utility.yul\":5744:5837   */\n      tag_284\n        /* \"#utility.yul\":5833:5836   */\n      dup3\n        /* \"#utility.yul\":5744:5837   */\n      tag_285\n      jump\t// in\n    tag_284:\n        /* \"#utility.yul\":5862:5864   */\n      0x20\n        /* \"#utility.yul\":5857:5860   */\n      dup3\n        /* \"#utility.yul\":5853:5865   */\n      add\n        /* \"#utility.yul\":5846:5865   */\n      swap1\n      pop\n        /* \"#utility.yul\":5505:5871   */\n      swap2\n      swap1\n      pop\n      jump\t// out\n        /* \"#utility.yul\":5877:6243   */\n    tag_286:\n        /* \"#utility.yul\":6019:6022   */\n      0x00\n        /* \"#utility.yul\":6040:6107   */\n      tag_288\n        /* \"#utility.yul\":6104:6106   */\n      0x15\n        /* \"#utility.yul\":6099:6102   */\n      dup4\n        /* \"#utility.yul\":6040:6107   */\n      tag_261\n      jump\t// in\n    tag_288:\n        /* \"#utility.yul\":6033:6107   */\n      swap2\n      pop\n        /* \"#utility.yul\":6116:6209   */\n      tag_289\n        /* \"#utility.yul\":6205:6208   */\n      dup3\n        /* \"#utility.yul\":6116:6209   */\n      tag_290\n      jump\t// in\n    tag_289:\n        /* \"#utility.yul\":6234:6236   */\n      0x20\n        /* \"#utility.yul\":6229:6232   */\n      dup3\n        /* \"#utility.yul\":6225:6237   */\n      add\n        /* \"#utility.yul\":6218:6237   */\n      swap1\n      pop\n        /* \"#utility.yul\":5877:6243   */\n      swap2\n      swap1\n      pop\n      jump\t// out\n        /* \"#utility.yul\":6249:6367   */\n    tag_291:\n        /* \"#utility.yul\":6336:6360   */\n      tag_293\n        /* \"#utility.yul\":6354:6359   */\n      dup2\n        /* \"#utility.yul\":6336:6360   */\n      tag_294\n      jump\t// in\n    tag_293:\n        /* \"#utility.yul\":6331:6334   */\n      dup3\n        /* \"#utility.yul\":6324:6361   */\n      mstore\n        /* \"#utility.yul\":6249:6367   */\n      pop\n      pop\n      jump\t// out\n        /* \"#utility.yul\":6373:6530   */\n    tag_295:\n        /* \"#utility.yul\":6478:6523   */\n      tag_297\n        /* \"#utility.yul\":6498:6522   */\n      tag_298\n        /* \"#utility.yul\":6516:6521   */\n      dup3\n        /* \"#utility.yul\":6498:6522   */\n      tag_294\n      jump\t// in\n    tag_298:\n        /* \"#utility.yul\":6478:6523   */\n      tag_299\n      jump\t// in\n    tag_297:\n        /* \"#utility.yul\":6473:6476   */\n      dup3\n        /* \"#utility.yul\":6466:6524   */\n      mstore\n        /* \"#utility.yul\":6373:6530   */\n      pop\n      pop\n      jump\t// out\n        /* \"#utility.yul\":6536:6651   */\n    tag_300:\n        /* \"#utility.yul\":6621:6644   */\n      tag_302\n        /* \"#utility.yul\":6638:6643   */\n      dup2\n        /* \"#utility.yul\":6621:6644   */\n      tag_303\n      jump\t// in\n    tag_302:\n        /* \"#utility.yul\":6616:6619   */\n      dup3\n        /* \"#utility.yul\":6609:6645   */\n      mstore\n        /* \"#utility.yul\":6536:6651   */\n      pop\n      pop\n      jump\t// out\n        /* \"#utility.yul\":6657:7195   */\n    tag_85:\n        /* \"#utility.yul\":6825:6828   */\n      0x00\n        /* \"#utility.yul\":6840:6915   */\n      tag_305\n        /* \"#utility.yul\":6911:6914   */\n      dup3\n        /* \"#utility.yul\":6902:6908   */\n      dup7\n        /* \"#utility.yul\":6840:6915   */\n      tag_295\n      jump\t// in\n    tag_305:\n        /* \"#utility.yul\":6940:6942   */\n      0x20\n        /* \"#utility.yul\":6935:6938   */\n      dup3\n        /* \"#utility.yul\":6931:6943   */\n      add\n        /* \"#utility.yul\":6924:6943   */\n      swap2\n      pop\n        /* \"#utility.yul\":6953:7028   */\n      tag_306\n        /* \"#utility.yul\":7024:7027   */\n      dup3\n        /* \"#utility.yul\":7015:7021   */\n      dup6\n        /* \"#utility.yul\":6953:7028   */\n      tag_295\n      jump\t// in\n    tag_306:\n        /* \"#utility.yul\":7053:7055   */\n      0x20\n        /* \"#utility.yul\":7048:7051   */\n      dup3\n        /* \"#utility.yul\":7044:7056   */\n      add\n        /* \"#utility.yul\":7037:7056   */\n      swap2\n      pop\n        /* \"#utility.yul\":7066:7141   */\n      tag_307\n        /* \"#utility.yul\":7137:7140   */\n      dup3\n        /* \"#utility.yul\":7128:7134   */\n      dup5\n        /* \"#utility.yul\":7066:7141   */\n      tag_295\n      jump\t// in\n    tag_307:\n        /* \"#utility.yul\":7166:7168   */\n      0x20\n        /* \"#utility.yul\":7161:7164   */\n      dup3\n        /* \"#utility.yul\":7157:7169   */\n      add\n        /* \"#utility.yul\":7150:7169   */\n      swap2\n      pop\n        /* \"#utility.yul\":7186:7189   */\n      dup2\n        /* \"#utility.yul\":7179:7189   */\n      swap1\n      pop\n        /* \"#utility.yul\":6657:7195   */\n      swap5\n      swap4\n      pop\n      pop\n      pop\n      pop\n      jump\t// out\n        /* \"#utility.yul\":7201:7423   */\n    tag_45:\n        /* \"#utility.yul\":7294:7298   */\n      0x00\n        /* \"#utility.yul\":7332:7334   */\n      0x20\n        /* \"#utility.yul\":7321:7330   */\n      dup3\n        /* \"#utility.yul\":7317:7335   */\n      add\n        /* \"#utility.yul\":7309:7335   */\n      swap1\n      pop\n        /* \"#utility.yul\":7345:7416   */\n      tag_309\n        /* \"#utility.yul\":7413:7414   */\n      0x00\n        /* \"#utility.yul\":7402:7411   */\n      dup4\n        /* \"#utility.yul\":7398:7415   */\n      add\n        /* \"#utility.yul\":7389:7395   */\n      dup5\n        /* \"#utility.yul\":7345:7416   */\n      tag_252\n      jump\t// in\n    tag_309:\n        /* \"#utility.yul\":7201:7423   */\n      swap3\n      swap2\n      pop\n      pop\n      jump\t// out\n        /* \"#utility.yul\":7429:8695   */\n    tag_55:\n        /* \"#utility.yul\":7776:7780   */\n      0x00\n        /* \"#utility.yul\":7814:7817   */\n      0x0100\n        /* \"#utility.yul\":7803:7812   */\n      dup3\n        /* \"#utility.yul\":7799:7818   */\n      add\n        /* \"#utility.yul\":7791:7818   */\n      swap1\n      pop\n        /* \"#utility.yul\":7828:7899   */\n      tag_311\n        /* \"#utility.yul\":7896:7897   */\n      0x00\n        /* \"#utility.yul\":7885:7894   */\n      dup4\n        /* \"#utility.yul\":7881:7898   */\n      add\n        /* \"#utility.yul\":7872:7878   */\n      dup12\n        /* \"#utility.yul\":7828:7899   */\n      tag_252\n      jump\t// in\n    tag_311:\n        /* \"#utility.yul\":7946:7955   */\n      dup2\n        /* \"#utility.yul\":7940:7944   */\n      dup2\n        /* \"#utility.yul\":7936:7956   */\n      sub\n        /* \"#utility.yul\":7931:7933   */\n      0x20\n        /* \"#utility.yul\":7920:7929   */\n      dup4\n        /* \"#utility.yul\":7916:7934   */\n      add\n        /* \"#utility.yul\":7909:7957   */\n      mstore\n        /* \"#utility.yul\":7974:8052   */\n      tag_312\n        /* \"#utility.yul\":8047:8051   */\n      dup2\n        /* \"#utility.yul\":8038:8044   */\n      dup11\n        /* \"#utility.yul\":7974:8052   */\n      tag_256\n      jump\t// in\n    tag_312:\n        /* \"#utility.yul\":7966:8052   */\n      swap1\n      pop\n        /* \"#utility.yul\":8099:8108   */\n      dup2\n        /* \"#utility.yul\":8093:8097   */\n      dup2\n        /* \"#utility.yul\":8089:8109   */\n      sub\n        /* \"#utility.yul\":8084:8086   */\n      0x40\n        /* \"#utility.yul\":8073:8082   */\n      dup4\n        /* \"#utility.yul\":8069:8087   */\n      add\n        /* \"#utility.yul\":8062:8110   */\n      mstore\n        /* \"#utility.yul\":8127:8205   */\n      tag_313\n        /* \"#utility.yul\":8200:8204   */\n      dup2\n        /* \"#utility.yul\":8191:8197   */\n      dup10\n        /* \"#utility.yul\":8127:8205   */\n      tag_256\n      jump\t// in\n    tag_313:\n        /* \"#utility.yul\":8119:8205   */\n      swap1\n      pop\n        /* \"#utility.yul\":8252:8261   */\n      dup2\n        /* \"#utility.yul\":8246:8250   */\n      dup2\n        /* \"#utility.yul\":8242:8262   */\n      sub\n        /* \"#utility.yul\":8237:8239   */\n      0x60\n        /* \"#utility.yul\":8226:8235   */\n      dup4\n        /* \"#utility.yul\":8222:8240   */\n      add\n        /* \"#utility.yul\":8215:8263   */\n      mstore\n        /* \"#utility.yul\":8280:8358   */\n      tag_314\n        /* \"#utility.yul\":8353:8357   */\n      dup2\n        /* \"#utility.yul\":8344:8350   */\n      dup9\n        /* \"#utility.yul\":8280:8358   */\n      tag_256\n      jump\t// in\n    tag_314:\n        /* \"#utility.yul\":8272:8358   */\n      swap1\n      pop\n        /* \"#utility.yul\":8368:8441   */\n      tag_315\n        /* \"#utility.yul\":8436:8439   */\n      0x80\n        /* \"#utility.yul\":8425:8434   */\n      dup4\n        /* \"#utility.yul\":8421:8440   */\n      add\n        /* \"#utility.yul\":8412:8418   */\n      dup8\n        /* \"#utility.yul\":8368:8441   */\n      tag_291\n      jump\t// in\n    tag_315:\n        /* \"#utility.yul\":8451:8524   */\n      tag_316\n        /* \"#utility.yul\":8519:8522   */\n      0xa0\n        /* \"#utility.yul\":8508:8517   */\n      dup4\n        /* \"#utility.yul\":8504:8523   */\n      add\n        /* \"#utility.yul\":8495:8501   */\n      dup7\n        /* \"#utility.yul\":8451:8524   */\n      tag_291\n      jump\t// in\n    tag_316:\n        /* \"#utility.yul\":8534:8607   */\n      tag_317\n        /* \"#utility.yul\":8602:8605   */\n      0xc0\n        /* \"#utility.yul\":8591:8600   */\n      dup4\n        /* \"#utility.yul\":8587:8606   */\n      add\n        /* \"#utility.yul\":8578:8584   */\n      dup6\n        /* \"#utility.yul\":8534:8607   */\n      tag_291\n      jump\t// in\n    tag_317:\n        /* \"#utility.yul\":8617:8688   */\n      tag_318\n        /* \"#utility.yul\":8683:8686   */\n      0xe0\n        /* \"#utility.yul\":8672:8681   */\n      dup4\n        /* \"#utility.yul\":8668:8687   */\n      add\n        /* \"#utility.yul\":8659:8665   */\n      dup5\n        /* \"#utility.yul\":8617:8688   */\n      tag_300\n      jump\t// in\n    tag_318:\n        /* \"#utility.yul\":7429:8695   */\n      swap10\n      swap9\n      pop\n      pop\n      pop\n      pop\n      pop\n      pop\n      pop\n      pop\n      pop\n      jump\t// out\n        /* \"#utility.yul\":8701:9014   */\n    tag_31:\n        /* \"#utility.yul\":8814:8818   */\n      0x00\n        /* \"#utility.yul\":8852:8854   */\n      0x20\n        /* \"#utility.yul\":8841:8850   */\n      dup3\n        /* \"#utility.yul\":8837:8855   */\n      add\n        /* \"#utility.yul\":8829:8855   */\n      swap1\n      pop\n        /* \"#utility.yul\":8901:8910   */\n      dup2\n        /* \"#utility.yul\":8895:8899   */\n      dup2\n        /* \"#utility.yul\":8891:8911   */\n      sub\n        /* \"#utility.yul\":8887:8888   */\n      0x00\n        /* \"#utility.yul\":8876:8885   */\n      dup4\n        /* \"#utility.yul\":8872:8889   */\n      add\n        /* \"#utility.yul\":8865:8912   */\n      mstore\n        /* \"#utility.yul\":8929:9007   */\n      tag_320\n        /* \"#utility.yul\":9002:9006   */\n      dup2\n        /* \"#utility.yul\":8993:8999   */\n      dup5\n        /* \"#utility.yul\":8929:9007   */\n      tag_256\n      jump\t// in\n    tag_320:\n        /* \"#utility.yul\":8921:9007   */\n      swap1\n      pop\n        /* \"#utility.yul\":8701:9014   */\n      swap3\n      swap2\n      pop\n      pop\n      jump\t// out\n        /* \"#utility.yul\":9020:9439   */\n    tag_67:\n        /* \"#utility.yul\":9186:9190   */\n      0x00\n        /* \"#utility.yul\":9224:9226   */\n      0x20\n        /* \"#utility.yul\":9213:9222   */\n      dup3\n        /* \"#utility.yul\":9209:9227   */\n      add\n        /* \"#utility.yul\":9201:9227   */\n      swap1\n      pop\n        /* \"#utility.yul\":9273:9282   */\n      dup2\n        /* \"#utility.yul\":9267:9271   */\n      dup2\n        /* \"#utility.yul\":9263:9283   */\n      sub\n        /* \"#utility.yul\":9259:9260   */\n      0x00\n        /* \"#utility.yul\":9248:9257   */\n      dup4\n        /* \"#utility.yul\":9244:9261   */\n      add\n        /* \"#utility.yul\":9237:9284   */\n      mstore\n        /* \"#utility.yul\":9301:9432   */\n      tag_322\n        /* \"#utility.yul\":9427:9431   */\n      dup2\n        /* \"#utility.yul\":9301:9432   */\n      tag_266\n      jump\t// in\n    tag_322:\n        /* \"#utility.yul\":9293:9432   */\n      swap1\n      pop\n        /* \"#utility.yul\":9020:9439   */\n      swap2\n      swap1\n      pop\n      jump\t// out\n        /* \"#utility.yul\":9445:9864   */\n    tag_170:\n        /* \"#utility.yul\":9611:9615   */\n      0x00\n        /* \"#utility.yul\":9649:9651   */\n      0x20\n        /* \"#utility.yul\":9638:9647   */\n      dup3\n        /* \"#utility.yul\":9634:9652   */\n      add\n        /* \"#utility.yul\":9626:9652   */\n      swap1\n      pop\n        /* \"#utility.yul\":9698:9707   */\n      dup2\n        /* \"#utility.yul\":9692:9696   */\n      dup2\n        /* \"#utility.yul\":9688:9708   */\n      sub\n        /* \"#utility.yul\":9684:9685   */\n      0x00\n        /* \"#utility.yul\":9673:9682   */\n      dup4\n        /* \"#utility.yul\":9669:9686   */\n      add\n        /* \"#utility.yul\":9662:9709   */\n      mstore\n        /* \"#utility.yul\":9726:9857   */\n      tag_324\n        /* \"#utility.yul\":9852:9856   */\n      dup2\n        /* \"#utility.yul\":9726:9857   */\n      tag_271\n      jump\t// in\n    tag_324:\n        /* \"#utility.yul\":9718:9857   */\n      swap1\n      pop\n        /* \"#utility.yul\":9445:9864   */\n      swap2\n      swap1\n      pop\n      jump\t// out\n        /* \"#utility.yul\":9870:10399   */\n    tag_179:\n        /* \"#utility.yul\":10064:10068   */\n      0x00\n        /* \"#utility.yul\":10102:10104   */\n      0x40\n        /* \"#utility.yul\":10091:10100   */\n      dup3\n        /* \"#utility.yul\":10087:10105   */\n      add\n        /* \"#utility.yul\":10079:10105   */\n      swap1\n      pop\n        /* \"#utility.yul\":10151:10160   */\n      dup2\n        /* \"#utility.yul\":10145:10149   */\n      dup2\n        /* \"#utility.yul\":10141:10161   */\n      sub\n        /* \"#utility.yul\":10137:10138   */\n      0x00\n        /* \"#utility.yul\":10126:10135   */\n      dup4\n        /* \"#utility.yul\":10122:10139   */\n      add\n        /* \"#utility.yul\":10115:10162   */\n      mstore\n        /* \"#utility.yul\":10179:10310   */\n      tag_326\n        /* \"#utility.yul\":10305:10309   */\n      dup2\n        /* \"#utility.yul\":10179:10310   */\n      tag_276\n      jump\t// in\n    tag_326:\n        /* \"#utility.yul\":10171:10310   */\n      swap1\n      pop\n        /* \"#utility.yul\":10320:10392   */\n      tag_327\n        /* \"#utility.yul\":10388:10390   */\n      0x20\n        /* \"#utility.yul\":10377:10386   */\n      dup4\n        /* \"#utility.yul\":10373:10391   */\n      add\n        /* \"#utility.yul\":10364:10370   */\n      dup5\n        /* \"#utility.yul\":10320:10392   */\n      tag_291\n      jump\t// in\n    tag_327:\n        /* \"#utility.yul\":9870:10399   */\n      swap3\n      swap2\n      pop\n      pop\n      jump\t// out\n        /* \"#utility.yul\":10405:10824   */\n    tag_136:\n        /* \"#utility.yul\":10571:10575   */\n      0x00\n        /* \"#utility.yul\":10609:10611   */\n      0x20\n        /* \"#utility.yul\":10598:10607   */\n      dup3\n        /* \"#utility.yul\":10594:10612   */\n      add\n        /* \"#utility.yul\":10586:10612   */\n      swap1\n      pop\n        /* \"#utility.yul\":10658:10667   */\n      dup2\n        /* \"#utility.yul\":10652:10656   */\n      dup2\n        /* \"#utility.yul\":10648:10668   */\n      sub\n        /* \"#utility.yul\":10644:10645   */\n      0x00\n        /* \"#utility.yul\":10633:10642   */\n      dup4\n        /* \"#utility.yul\":10629:10646   */\n      add\n        /* \"#utility.yul\":10622:10669   */\n      mstore\n        /* \"#utility.yul\":10686:10817   */\n      tag_329\n        /* \"#utility.yul\":10812:10816   */\n      dup2\n        /* \"#utility.yul\":10686:10817   */\n      tag_281\n      jump\t// in\n    tag_329:\n        /* \"#utility.yul\":10678:10817   */\n      swap1\n      pop\n        /* \"#utility.yul\":10405:10824   */\n      swap2\n      swap1\n      pop\n      jump\t// out\n        /* \"#utility.yul\":10830:11359   */\n    tag_108:\n        /* \"#utility.yul\":11024:11028   */\n      0x00\n        /* \"#utility.yul\":11062:11064   */\n      0x40\n        /* \"#utility.yul\":11051:11060   */\n      dup3\n        /* \"#utility.yul\":11047:11065   */\n      add\n        /* \"#utility.yul\":11039:11065   */\n      swap1\n      pop\n        /* \"#utility.yul\":11111:11120   */\n      dup2\n        /* \"#utility.yul\":11105:11109   */\n      dup2\n        /* \"#utility.yul\":11101:11121   */\n      sub\n        /* \"#utility.yul\":11097:11098   */\n      0x00\n        /* \"#utility.yul\":11086:11095   */\n      dup4\n        /* \"#utility.yul\":11082:11099   */\n      add\n        /* \"#utility.yul\":11075:11122   */\n      mstore\n        /* \"#utility.yul\":11139:11270   */\n      tag_331\n        /* \"#utility.yul\":11265:11269   */\n      dup2\n        /* \"#utility.yul\":11139:11270   */\n      tag_286\n      jump\t// in\n    tag_331:\n        /* \"#utility.yul\":11131:11270   */\n      swap1\n      pop\n        /* \"#utility.yul\":11280:11352   */\n      tag_332\n        /* \"#utility.yul\":11348:11350   */\n      0x20\n        /* \"#utility.yul\":11337:11346   */\n      dup4\n        /* \"#utility.yul\":11333:11351   */\n      add\n        /* \"#utility.yul\":11324:11330   */\n      dup5\n        /* \"#utility.yul\":11280:11352   */\n      tag_291\n      jump\t// in\n    tag_332:\n        /* \"#utility.yul\":10830:11359   */\n      swap3\n      swap2\n      pop\n      pop\n      jump\t// out\n        /* \"#utility.yul\":11365:11587   */\n    tag_19:\n        /* \"#utility.yul\":11458:11462   */\n      0x00\n        /* \"#utility.yul\":11496:11498   */\n      0x20\n        /* \"#utility.yul\":11485:11494   */\n      dup3\n        /* \"#utility.yul\":11481:11499   */\n      add\n        /* \"#utility.yul\":11473:11499   */\n      swap1\n      pop\n        /* \"#utility.yul\":11509:11580   */\n      tag_334\n        /* \"#utility.yul\":11577:11578   */\n      0x00\n        /* \"#utility.yul\":11566:11575   */\n      dup4\n        /* \"#utility.yul\":11562:11579   */\n      add\n        /* \"#utility.yul\":11553:11559   */\n      dup5\n        /* \"#utility.yul\":11509:11580   */\n      tag_291\n      jump\t// in\n    tag_334:\n        /* \"#utility.yul\":11365:11587   */\n      swap3\n      swap2\n      pop\n      pop\n      jump\t// out\n        /* \"#utility.yul\":11593:11722   */\n    tag_200:\n        /* \"#utility.yul\":11627:11633   */\n      0x00\n        /* \"#utility.yul\":11654:11674   */\n      tag_336\n      tag_337\n      jump\t// in\n    tag_336:\n        /* \"#utility.yul\":11644:11674   */\n      swap1\n      pop\n        /* \"#utility.yul\":11683:11716   */\n      tag_338\n        /* \"#utility.yul\":11711:11715   */\n      dup3\n        /* \"#utility.yul\":11703:11709   */\n      dup3\n        /* \"#utility.yul\":11683:11716   */\n      tag_339\n      jump\t// in\n    tag_338:\n        /* \"#utility.yul\":11593:11722   */\n      swap2\n      swap1\n      pop\n      jump\t// out\n        /* \"#utility.yul\":11728:11803   */\n    tag_337:\n        /* \"#utility.yul\":11761:11767   */\n      0x00\n        /* \"#utility.yul\":11794:11796   */\n      0x40\n        /* \"#utility.yul\":11788:11797   */\n      mload\n        /* \"#utility.yul\":11778:11797   */\n      swap1\n      pop\n        /* \"#utility.yul\":11728:11803   */\n      swap1\n      jump\t// out\n        /* \"#utility.yul\":11809:12117   */\n    tag_199:\n        /* \"#utility.yul\":11871:11875   */\n      0x00\n        /* \"#utility.yul\":11961:11979   */\n      0xffffffffffffffff\n        /* \"#utility.yul\":11953:11959   */\n      dup3\n        /* \"#utility.yul\":11950:11980   */\n      gt\n        /* \"#utility.yul\":11947:12003   */\n      iszero\n      tag_342\n      jumpi\n        /* \"#utility.yul\":11983:12001   */\n      tag_343\n      tag_344\n      jump\t// in\n    tag_343:\n        /* \"#utility.yul\":11947:12003   */\n    tag_342:\n        /* \"#utility.yul\":12021:12050   */\n      tag_345\n        /* \"#utility.yul\":12043:12049   */\n      dup3\n        /* \"#utility.yul\":12021:12050   */\n      tag_265\n      jump\t// in\n    tag_345:\n        /* \"#utility.yul\":12013:12050   */\n      swap1\n      pop\n        /* \"#utility.yul\":12105:12109   */\n      0x20\n        /* \"#utility.yul\":12099:12103   */\n      dup2\n        /* \"#utility.yul\":12095:12110   */\n      add\n        /* \"#utility.yul\":12087:12110   */\n      swap1\n      pop\n        /* \"#utility.yul\":11809:12117   */\n      swap2\n      swap1\n      pop\n      jump\t// out\n        /* \"#utility.yul\":12123:12222   */\n    tag_259:\n        /* \"#utility.yul\":12175:12181   */\n      0x00\n        /* \"#utility.yul\":12209:12214   */\n      dup2\n        /* \"#utility.yul\":12203:12215   */\n      mload\n        /* \"#utility.yul\":12193:12215   */\n      swap1\n      pop\n        /* \"#utility.yul\":12123:12222   */\n      swap2\n      swap1\n      pop\n      jump\t// out\n        /* \"#utility.yul\":12228:12397   */\n    tag_261:\n        /* \"#utility.yul\":12312:12323   */\n      0x00\n        /* \"#utility.yul\":12346:12352   */\n      dup3\n        /* \"#utility.yul\":12341:12344   */\n      dup3\n        /* \"#utility.yul\":12334:12353   */\n      mstore\n        /* \"#utility.yul\":12386:12390   */\n      0x20\n        /* \"#utility.yul\":12381:12384   */\n      dup3\n        /* \"#utility.yul\":12377:12391   */\n      add\n        /* \"#utility.yul\":12362:12391   */\n      swap1\n      pop\n        /* \"#utility.yul\":12228:12397   */\n      swap3\n      swap2\n      pop\n      pop\n      jump\t// out\n        /* \"#utility.yul\":12403:12708   */\n    tag_70:\n        /* \"#utility.yul\":12443:12446   */\n      0x00\n        /* \"#utility.yul\":12462:12482   */\n      tag_349\n        /* \"#utility.yul\":12480:12481   */\n      dup3\n        /* \"#utility.yul\":12462:12482   */\n      tag_294\n      jump\t// in\n    tag_349:\n        /* \"#utility.yul\":12457:12482   */\n      swap2\n      pop\n        /* \"#utility.yul\":12496:12516   */\n      tag_350\n        /* \"#utility.yul\":12514:12515   */\n      dup4\n        /* \"#utility.yul\":12496:12516   */\n      tag_294\n      jump\t// in\n    tag_350:\n        /* \"#utility.yul\":12491:12516   */\n      swap3\n      pop\n        /* \"#utility.yul\":12650:12651   */\n      dup3\n        /* \"#utility.yul\":12582:12648   */\n      0xffffffffffffffffffffffffffffffffffffffffffffffffffffffffffffffff\n        /* \"#utility.yul\":12578:12652   */\n      sub\n        /* \"#utility.yul\":12575:12576   */\n      dup3\n        /* \"#utility.yul\":12572:12653   */\n      gt\n        /* \"#utility.yul\":12569:12676   */\n      iszero\n      tag_351\n      jumpi\n        /* \"#utility.yul\":12656:12674   */\n      tag_352\n      tag_353\n      jump\t// in\n    tag_352:\n        /* \"#utility.yul\":12569:12676   */\n    tag_351:\n        /* \"#utility.yul\":12700:12701   */\n      dup3\n        /* \"#utility.yul\":12697:12698   */\n      dup3\n        /* \"#utility.yul\":12693:12702   */\n      add\n        /* \"#utility.yul\":12686:12702   */\n      swap1\n      pop\n        /* \"#utility.yul\":12403:12708   */\n      swap3\n      swap2\n      pop\n      pop\n      jump\t// out\n        /* \"#utility.yul\":12714:13062   */\n    tag_174:\n        /* \"#utility.yul\":12754:12761   */\n      0x00\n        /* \"#utility.yul\":12777:12797   */\n      tag_355\n        /* \"#utility.yul\":12795:12796   */\n      dup3\n        /* \"#utility.yul\":12777:12797   */\n      tag_294\n      jump\t// in\n    tag_355:\n        /* \"#utility.yul\":12772:12797   */\n      swap2\n      pop\n        /* \"#utility.yul\":12811:12831   */\n      tag_356\n        /* \"#utility.yul\":12829:12830   */\n      dup4\n        /* \"#utility.yul\":12811:12831   */\n      tag_294\n      jump\t// in\n    tag_356:\n        /* \"#utility.yul\":12806:12831   */\n      swap3\n      pop\n        /* \"#utility.yul\":12999:13000   */\n      dup2\n        /* \"#utility.yul\":12931:12997   */\n      0xffffffffffffffffffffffffffffffffffffffffffffffffffffffffffffffff\n        /* \"#utility.yul\":12927:13001   */\n      div\n        /* \"#utility.yul\":12924:12925   */\n      dup4\n        /* \"#utility.yul\":12921:13002   */\n      gt\n        /* \"#utility.yul\":12916:12917   */\n      dup3\n        /* \"#utility.yul\":12909:12918   */\n      iszero\n        /* \"#utility.yul\":12902:12919   */\n      iszero\n        /* \"#utility.yul\":12898:13003   */\n      and\n        /* \"#utility.yul\":12895:13026   */\n      iszero\n      tag_357\n      jumpi\n        /* \"#utility.yul\":13006:13024   */\n      tag_358\n      tag_353\n      jump\t// in\n    tag_358:\n        /* \"#utility.yul\":12895:13026   */\n    tag_357:\n        /* \"#utility.yul\":13054:13055   */\n      dup3\n        /* \"#utility.yul\":13051:13052   */\n      dup3\n        /* \"#utility.yul\":13047:13056   */\n      mul\n        /* \"#utility.yul\":13036:13056   */\n      swap1\n      pop\n        /* \"#utility.yul\":12714:13062   */\n      swap3\n      swap2\n      pop\n      pop\n      jump\t// out\n        /* \"#utility.yul\":13068:13259   */\n    tag_80:\n        /* \"#utility.yul\":13108:13112   */\n      0x00\n        /* \"#utility.yul\":13128:13148   */\n      tag_360\n        /* \"#utility.yul\":13146:13147   */\n      dup3\n        /* \"#utility.yul\":13128:13148   */\n      tag_294\n      jump\t// in\n    tag_360:\n        /* \"#utility.yul\":13123:13148   */\n      swap2\n      pop\n        /* \"#utility.yul\":13162:13182   */\n      tag_361\n        /* \"#utility.yul\":13180:13181   */\n      dup4\n        /* \"#utility.yul\":13162:13182   */\n      tag_294\n      jump\t// in\n    tag_361:\n        /* \"#utility.yul\":13157:13182   */\n      swap3\n      pop\n        /* \"#utility.yul\":13201:13202   */\n      dup3\n        /* \"#utility.yul\":13198:13199   */\n      dup3\n        /* \"#utility.yul\":13195:13203   */\n      lt\n        /* \"#utility.yul\":13192:13226   */\n      iszero\n      tag_362\n      jumpi\n        /* \"#utility.yul\":13206:13224   */\n      tag_363\n      tag_353\n      jump\t// in\n    tag_363:\n        /* \"#utility.yul\":13192:13226   */\n    tag_362:\n        /* \"#utility.yul\":13251:13252   */\n      dup3\n        /* \"#utility.yul\":13248:13249   */\n      dup3\n        /* \"#utility.yul\":13244:13253   */\n      sub\n        /* \"#utility.yul\":13236:13253   */\n      swap1\n      pop\n        /* \"#utility.yul\":13068:13259   */\n      swap3\n      swap2\n      pop\n      pop\n      jump\t// out\n        /* \"#utility.yul\":13265:13361   */\n    tag_255:\n        /* \"#utility.yul\":13302:13309   */\n      0x00\n        /* \"#utility.yul\":13331:13355   */\n      tag_365\n        /* \"#utility.yul\":13349:13354   */\n      dup3\n        /* \"#utility.yul\":13331:13355   */\n      tag_366\n      jump\t// in\n    tag_365:\n        /* \"#utility.yul\":13320:13355   */\n      swap1\n      pop\n        /* \"#utility.yul\":13265:13361   */\n      swap2\n      swap1\n      pop\n      jump\t// out\n        /* \"#utility.yul\":13367:13493   */\n    tag_366:\n        /* \"#utility.yul\":13404:13411   */\n      0x00\n        /* \"#utility.yul\":13444:13486   */\n      0xffffffffffffffffffffffffffffffffffffffff\n        /* \"#utility.yul\":13437:13442   */\n      dup3\n        /* \"#utility.yul\":13433:13487   */\n      and\n        /* \"#utility.yul\":13422:13487   */\n      swap1\n      pop\n        /* \"#utility.yul\":13367:13493   */\n      swap2\n      swap1\n      pop\n      jump\t// out\n        /* \"#utility.yul\":13499:13576   */\n    tag_294:\n        /* \"#utility.yul\":13536:13543   */\n      0x00\n        /* \"#utility.yul\":13565:13570   */\n      dup2\n        /* \"#utility.yul\":13554:13570   */\n      swap1\n      pop\n        /* \"#utility.yul\":13499:13576   */\n      swap2\n      swap1\n      pop\n      jump\t// out\n        /* \"#utility.yul\":13582:13675   */\n    tag_303:\n        /* \"#utility.yul\":13618:13625   */\n      0x00\n        /* \"#utility.yul\":13658:13668   */\n      0xffffffff\n        /* \"#utility.yul\":13651:13656   */\n      dup3\n        /* \"#utility.yul\":13647:13669   */\n      and\n        /* \"#utility.yul\":13636:13669   */\n      swap1\n      pop\n        /* \"#utility.yul\":13582:13675   */\n      swap2\n      swap1\n      pop\n      jump\t// out\n        /* \"#utility.yul\":13681:13835   */\n    tag_205:\n        /* \"#utility.yul\":13765:13771   */\n      dup3\n        /* \"#utility.yul\":13760:13763   */\n      dup2\n        /* \"#utility.yul\":13755:13758   */\n      dup4\n        /* \"#utility.yul\":13742:13772   */\n      calldatacopy\n        /* \"#utility.yul\":13827:13828   */\n      0x00\n        /* \"#utility.yul\":13818:13824   */\n      dup4\n        /* \"#utility.yul\":13813:13816   */\n      dup4\n        /* \"#utility.yul\":13809:13825   */\n      add\n        /* \"#utility.yul\":13802:13829   */\n      mstore\n        /* \"#utility.yul\":13681:13835   */\n      pop\n      pop\n      pop\n      jump\t// out\n        /* \"#utility.yul\":13841:14148   */\n    tag_263:\n        /* \"#utility.yul\":13909:13910   */\n      0x00\n        /* \"#utility.yul\":13919:14032   */\n    tag_372:\n        /* \"#utility.yul\":13933:13939   */\n      dup4\n        /* \"#utility.yul\":13930:13931   */\n      dup2\n        /* \"#utility.yul\":13927:13940   */\n      lt\n        /* \"#utility.yul\":13919:14032   */\n      iszero\n      tag_374\n      jumpi\n        /* \"#utility.yul\":14018:14019   */\n      dup1\n        /* \"#utility.yul\":14013:14016   */\n      dup3\n        /* \"#utility.yul\":14009:14020   */\n      add\n        /* \"#utility.yul\":14003:14021   */\n      mload\n        /* \"#utility.yul\":13999:14000   */\n      dup2\n        /* \"#utility.yul\":13994:13997   */\n      dup5\n        /* \"#utility.yul\":13990:14001   */\n      add\n        /* \"#utility.yul\":13983:14022   */\n      mstore\n        /* \"#utility.yul\":13955:13957   */\n      0x20\n        /* \"#utility.yul\":13952:13953   */\n      dup2\n        /* \"#utility.yul\":13948:13958   */\n      add\n        /* \"#utility.yul\":13943:13958   */\n      swap1\n      pop\n        /* \"#utility.yul\":13919:14032   */\n      jump(tag_372)\n    tag_374:\n        /* \"#utility.yul\":14050:14056   */\n      dup4\n        /* \"#utility.yul\":14047:14048   */\n      dup2\n        /* \"#utility.yul\":14044:14057   */\n      gt\n        /* \"#utility.yul\":14041:14142   */\n      iszero\n      tag_375\n      jumpi\n        /* \"#utility.yul\":14130:14131   */\n      0x00\n        /* \"#utility.yul\":14121:14127   */\n      dup5\n        /* \"#utility.yul\":14116:14119   */\n      dup5\n        /* \"#utility.yul\":14112:14128   */\n      add\n        /* \"#utility.yul\":14105:14132   */\n      mstore\n        /* \"#utility.yul\":14041:14142   */\n    tag_375:\n        /* \"#utility.yul\":13890:14148   */\n      pop\n        /* \"#utility.yul\":13841:14148   */\n      pop\n      pop\n      pop\n      jump\t// out\n        /* \"#utility.yul\":14154:14474   */\n    tag_144:\n        /* \"#utility.yul\":14198:14204   */\n      0x00\n        /* \"#utility.yul\":14235:14236   */\n      0x02\n        /* \"#utility.yul\":14229:14233   */\n      dup3\n        /* \"#utility.yul\":14225:14237   */\n      div\n        /* \"#utility.yul\":14215:14237   */\n      swap1\n      pop\n        /* \"#utility.yul\":14282:14283   */\n      0x01\n        /* \"#utility.yul\":14276:14280   */\n      dup3\n        /* \"#utility.yul\":14272:14284   */\n      and\n        /* \"#utility.yul\":14303:14321   */\n      dup1\n        /* \"#utility.yul\":14293:14374   */\n      tag_377\n      jumpi\n        /* \"#utility.yul\":14359:14363   */\n      0x7f\n        /* \"#utility.yul\":14351:14357   */\n      dup3\n        /* \"#utility.yul\":14347:14364   */\n      and\n        /* \"#utility.yul\":14337:14364   */\n      swap2\n      pop\n        /* \"#utility.yul\":14293:14374   */\n    tag_377:\n        /* \"#utility.yul\":14421:14423   */\n      0x20\n        /* \"#utility.yul\":14413:14419   */\n      dup3\n        /* \"#utility.yul\":14410:14424   */\n      lt\n        /* \"#utility.yul\":14390:14408   */\n      dup2\n        /* \"#utility.yul\":14387:14425   */\n      eq\n        /* \"#utility.yul\":14384:14468   */\n      iszero\n      tag_378\n      jumpi\n        /* \"#utility.yul\":14440:14458   */\n      tag_379\n      tag_380\n      jump\t// in\n    tag_379:\n        /* \"#utility.yul\":14384:14468   */\n    tag_378:\n        /* \"#utility.yul\":14205:14474   */\n      pop\n        /* \"#utility.yul\":14154:14474   */\n      swap2\n      swap1\n      pop\n      jump\t// out\n        /* \"#utility.yul\":14480:14761   */\n    tag_339:\n        /* \"#utility.yul\":14563:14590   */\n      tag_382\n        /* \"#utility.yul\":14585:14589   */\n      dup3\n        /* \"#utility.yul\":14563:14590   */\n      tag_265\n      jump\t// in\n    tag_382:\n        /* \"#utility.yul\":14555:14561   */\n      dup2\n        /* \"#utility.yul\":14551:14591   */\n      add\n        /* \"#utility.yul\":14693:14699   */\n      dup2\n        /* \"#utility.yul\":14681:14691   */\n      dup2\n        /* \"#utility.yul\":14678:14700   */\n      lt\n        /* \"#utility.yul\":14657:14675   */\n      0xffffffffffffffff\n        /* \"#utility.yul\":14645:14655   */\n      dup3\n        /* \"#utility.yul\":14642:14676   */\n      gt\n        /* \"#utility.yul\":14639:14701   */\n      or\n        /* \"#utility.yul\":14636:14724   */\n      iszero\n      tag_383\n      jumpi\n        /* \"#utility.yul\":14704:14722   */\n      tag_384\n      tag_344\n      jump\t// in\n    tag_384:\n        /* \"#utility.yul\":14636:14724   */\n    tag_383:\n        /* \"#utility.yul\":14744:14754   */\n      dup1\n        /* \"#utility.yul\":14740:14742   */\n      0x40\n        /* \"#utility.yul\":14733:14755   */\n      mstore\n        /* \"#utility.yul\":14523:14761   */\n      pop\n        /* \"#utility.yul\":14480:14761   */\n      pop\n      pop\n      jump\t// out\n        /* \"#utility.yul\":14767:15000   */\n    tag_77:\n        /* \"#utility.yul\":14806:14809   */\n      0x00\n        /* \"#utility.yul\":14829:14853   */\n      tag_386\n        /* \"#utility.yul\":14847:14852   */\n      dup3\n        /* \"#utility.yul\":14829:14853   */\n      tag_294\n      jump\t// in\n    tag_386:\n        /* \"#utility.yul\":14820:14853   */\n      swap2\n      pop\n        /* \"#utility.yul\":14875:14941   */\n      0xffffffffffffffffffffffffffffffffffffffffffffffffffffffffffffffff\n        /* \"#utility.yul\":14868:14873   */\n      dup3\n        /* \"#utility.yul\":14865:14942   */\n      eq\n        /* \"#utility.yul\":14862:14965   */\n      iszero\n      tag_387\n      jumpi\n        /* \"#utility.yul\":14945:14963   */\n      tag_388\n      tag_353\n      jump\t// in\n    tag_388:\n        /* \"#utility.yul\":14862:14965   */\n    tag_387:\n        /* \"#utility.yul\":14992:14993   */\n      0x01\n        /* \"#utility.yul\":14985:14990   */\n      dup3\n        /* \"#utility.yul\":14981:14994   */\n      add\n        /* \"#utility.yul\":14974:14994   */\n      swap1\n      pop\n        /* \"#utility.yul\":14767:15000   */\n      swap2\n      swap1\n      pop\n      jump\t// out\n        /* \"#utility.yul\":15006:15085   */\n    tag_299:\n        /* \"#utility.yul\":15045:15052   */\n      0x00\n        /* \"#utility.yul\":15074:15079   */\n      dup2\n        /* \"#utility.yul\":15063:15079   */\n      swap1\n      pop\n        /* \"#utility.yul\":15006:15085   */\n      swap2\n      swap1\n      pop\n      jump\t// out\n        /* \"#utility.yul\":15091:15267   */\n    tag_87:\n        /* \"#utility.yul\":15123:15124   */\n      0x00\n        /* \"#utility.yul\":15140:15160   */\n      tag_391\n        /* \"#utility.yul\":15158:15159   */\n      dup3\n        /* \"#utility.yul\":15140:15160   */\n      tag_294\n      jump\t// in\n    tag_391:\n        /* \"#utility.yul\":15135:15160   */\n      swap2\n      pop\n        /* \"#utility.yul\":15174:15194   */\n      tag_392\n        /* \"#utility.yul\":15192:15193   */\n      dup4\n        /* \"#utility.yul\":15174:15194   */\n      tag_294\n      jump\t// in\n    tag_392:\n        /* \"#utility.yul\":15169:15194   */\n      swap3\n      pop\n        /* \"#utility.yul\":15213:15214   */\n      dup3\n        /* \"#utility.yul\":15203:15238   */\n      tag_393\n      jumpi\n        /* \"#utility.yul\":15218:15236   */\n      tag_394\n      tag_395\n      jump\t// in\n    tag_394:\n        /* \"#utility.yul\":15203:15238   */\n    tag_393:\n        /* \"#utility.yul\":15259:15260   */\n      dup3\n        /* \"#utility.yul\":15256:15257   */\n      dup3\n        /* \"#utility.yul\":15252:15261   */\n      mod\n        /* \"#utility.yul\":15247:15261   */\n      swap1\n      pop\n        /* \"#utility.yul\":15091:15267   */\n      swap3\n      swap2\n      pop\n      pop\n      jump\t// out\n        /* \"#utility.yul\":15273:15453   */\n    tag_353:\n        /* \"#utility.yul\":15321:15398   */\n      0x4e487b7100000000000000000000000000000000000000000000000000000000\n        /* \"#utility.yul\":15318:15319   */\n      0x00\n        /* \"#utility.yul\":15311:15399   */\n      mstore\n        /* \"#utility.yul\":15418:15422   */\n      0x11\n        /* \"#utility.yul\":15415:15416   */\n      0x04\n        /* \"#utility.yul\":15408:15423   */\n      mstore\n        /* \"#utility.yul\":15442:15446   */\n      0x24\n        /* \"#utility.yul\":15439:15440   */\n      0x00\n        /* \"#utility.yul\":15432:15447   */\n      revert\n        /* \"#utility.yul\":15459:15639   */\n    tag_395:\n        /* \"#utility.yul\":15507:15584   */\n      0x4e487b7100000000000000000000000000000000000000000000000000000000\n        /* \"#utility.yul\":15504:15505   */\n      0x00\n        /* \"#utility.yul\":15497:15585   */\n      mstore\n        /* \"#utility.yul\":15604:15608   */\n      0x12\n        /* \"#utility.yul\":15601:15602   */\n      0x04\n        /* \"#utility.yul\":15594:15609   */\n      mstore\n        /* \"#utility.yul\":15628:15632   */\n      0x24\n        /* \"#utility.yul\":15625:15626   */\n      0x00\n        /* \"#utility.yul\":15618:15633   */\n      revert\n        /* \"#utility.yul\":15645:15825   */\n    tag_380:\n        /* \"#utility.yul\":15693:15770   */\n      0x4e487b7100000000000000000000000000000000000000000000000000000000\n        /* \"#utility.yul\":15690:15691   */\n      0x00\n        /* \"#utility.yul\":15683:15771   */\n      mstore\n        /* \"#utility.yul\":15790:15794   */\n      0x22\n        /* \"#utility.yul\":15787:15788   */\n      0x04\n        /* \"#utility.yul\":15780:15795   */\n      mstore\n        /* \"#utility.yul\":15814:15818   */\n      0x24\n        /* \"#utility.yul\":15811:15812   */\n      0x00\n        /* \"#utility.yul\":15804:15819   */\n      revert\n        /* \"#utility.yul\":15831:16011   */\n    tag_96:\n        /* \"#utility.yul\":15879:15956   */\n      0x4e487b7100000000000000000000000000000000000000000000000000000000\n        /* \"#utility.yul\":15876:15877   */\n      0x00\n        /* \"#utility.yul\":15869:15957   */\n      mstore\n        /* \"#utility.yul\":15976:15980   */\n      0x32\n        /* \"#utility.yul\":15973:15974   */\n      0x04\n        /* \"#utility.yul\":15966:15981   */\n      mstore\n        /* \"#utility.yul\":16000:16004   */\n      0x24\n        /* \"#utility.yul\":15997:15998   */\n      0x00\n        /* \"#utility.yul\":15990:16005   */\n      revert\n        /* \"#utility.yul\":16017:16197   */\n    tag_344:\n        /* \"#utility.yul\":16065:16142   */\n      0x4e487b7100000000000000000000000000000000000000000000000000000000\n        /* \"#utility.yul\":16062:16063   */\n      0x00\n        /* \"#utility.yul\":16055:16143   */\n      mstore\n        /* \"#utility.yul\":16162:16166   */\n      0x41\n        /* \"#utility.yul\":16159:16160   */\n      0x04\n        /* \"#utility.yul\":16152:16167   */\n      mstore\n        /* \"#utility.yul\":16186:16190   */\n      0x24\n        /* \"#utility.yul\":16183:16184   */\n      0x00\n        /* \"#utility.yul\":16176:16191   */\n      revert\n        /* \"#utility.yul\":16203:16320   */\n    tag_214:\n        /* \"#utility.yul\":16312:16313   */\n      0x00\n        /* \"#utility.yul\":16309:16310   */\n      dup1\n        /* \"#utility.yul\":16302:16314   */\n      revert\n        /* \"#utility.yul\":16326:16443   */\n    tag_203:\n        /* \"#utility.yul\":16435:16436   */\n      0x00\n        /* \"#utility.yul\":16432:16433   */\n      dup1\n        /* \"#utility.yul\":16425:16437   */\n      revert\n        /* \"#utility.yul\":16449:16566   */\n    tag_230:\n        /* \"#utility.yul\":16558:16559   */\n      0x00\n        /* \"#utility.yul\":16555:16556   */\n      dup1\n        /* \"#utility.yul\":16548:16560   */\n      revert\n        /* \"#utility.yul\":16572:16689   */\n    tag_223:\n        /* \"#utility.yul\":16681:16682   */\n      0x00\n        /* \"#utility.yul\":16678:16679   */\n      dup1\n        /* \"#utility.yul\":16671:16683   */\n      revert\n        /* \"#utility.yul\":16695:16797   */\n    tag_265:\n        /* \"#utility.yul\":16736:16742   */\n      0x00\n        /* \"#utility.yul\":16787:16789   */\n      0x1f\n        /* \"#utility.yul\":16783:16790   */\n      not\n        /* \"#utility.yul\":16778:16780   */\n      0x1f\n        /* \"#utility.yul\":16771:16776   */\n      dup4\n        /* \"#utility.yul\":16767:16781   */\n      add\n        /* \"#utility.yul\":16763:16791   */\n      and\n        /* \"#utility.yul\":16753:16791   */\n      swap1\n      pop\n        /* \"#utility.yul\":16695:16797   */\n      swap2\n      swap1\n      pop\n      jump\t// out\n        /* \"#utility.yul\":16803:17030   */\n    tag_270:\n        /* \"#utility.yul\":16943:16977   */\n      0x536f6c6f2073652070756564652074656e657220756e20636f63686520706f72\n        /* \"#utility.yul\":16939:16940   */\n      0x00\n        /* \"#utility.yul\":16931:16937   */\n      dup3\n        /* \"#utility.yul\":16927:16941   */\n      add\n        /* \"#utility.yul\":16920:16978   */\n      mstore\n        /* \"#utility.yul\":17012:17022   */\n      0x20706572736f6e61000000000000000000000000000000000000000000000000\n        /* \"#utility.yul\":17007:17009   */\n      0x20\n        /* \"#utility.yul\":16999:17005   */\n      dup3\n        /* \"#utility.yul\":16995:17010   */\n      add\n        /* \"#utility.yul\":16988:17023   */\n      mstore\n        /* \"#utility.yul\":16803:17030   */\n      pop\n      jump\t// out\n        /* \"#utility.yul\":17036:17261   */\n    tag_275:\n        /* \"#utility.yul\":17176:17210   */\n      0x4f776e61626c653a206e6577206f776e657220697320746865207a65726f2061\n        /* \"#utility.yul\":17172:17173   */\n      0x00\n        /* \"#utility.yul\":17164:17170   */\n      dup3\n        /* \"#utility.yul\":17160:17174   */\n      add\n        /* \"#utility.yul\":17153:17211   */\n      mstore\n        /* \"#utility.yul\":17245:17253   */\n      0x6464726573730000000000000000000000000000000000000000000000000000\n        /* \"#utility.yul\":17240:17242   */\n      0x20\n        /* \"#utility.yul\":17232:17238   */\n      dup3\n        /* \"#utility.yul\":17228:17243   */\n      add\n        /* \"#utility.yul\":17221:17254   */\n      mstore\n        /* \"#utility.yul\":17036:17261   */\n      pop\n      jump\t// out\n        /* \"#utility.yul\":17267:17429   */\n    tag_280:\n        /* \"#utility.yul\":17407:17421   */\n      0x4861732067616e61646f3a200000000000000000000000000000000000000000\n        /* \"#utility.yul\":17403:17404   */\n      0x00\n        /* \"#utility.yul\":17395:17401   */\n      dup3\n        /* \"#utility.yul\":17391:17405   */\n      add\n        /* \"#utility.yul\":17384:17422   */\n      mstore\n        /* \"#utility.yul\":17267:17429   */\n      pop\n      jump\t// out\n        /* \"#utility.yul\":17435:17617   */\n    tag_285:\n        /* \"#utility.yul\":17575:17609   */\n      0x4f776e61626c653a2063616c6c6572206973206e6f7420746865206f776e6572\n        /* \"#utility.yul\":17571:17572   */\n      0x00\n        /* \"#utility.yul\":17563:17569   */\n      dup3\n        /* \"#utility.yul\":17559:17573   */\n      add\n        /* \"#utility.yul\":17552:17610   */\n      mstore\n        /* \"#utility.yul\":17435:17617   */\n      pop\n      jump\t// out\n        /* \"#utility.yul\":17623:17794   */\n    tag_290:\n        /* \"#utility.yul\":17763:17786   */\n      0x456c20636f6368652067616e61646f722065733a200000000000000000000000\n        /* \"#utility.yul\":17759:17760   */\n      0x00\n        /* \"#utility.yul\":17751:17757   */\n      dup3\n        /* \"#utility.yul\":17747:17761   */\n      add\n        /* \"#utility.yul\":17740:17787   */\n      mstore\n        /* \"#utility.yul\":17623:17794   */\n      pop\n      jump\t// out\n        /* \"#utility.yul\":17800:17922   */\n    tag_209:\n        /* \"#utility.yul\":17873:17897   */\n      tag_412\n        /* \"#utility.yul\":17891:17896   */\n      dup2\n        /* \"#utility.yul\":17873:17897   */\n      tag_255\n      jump\t// in\n    tag_412:\n        /* \"#utility.yul\":17866:17871   */\n      dup2\n        /* \"#utility.yul\":17863:17898   */\n      eq\n        /* \"#utility.yul\":17853:17916   */\n      tag_413\n      jumpi\n        /* \"#utility.yul\":17912:17913   */\n      0x00\n        /* \"#utility.yul\":17909:17910   */\n      dup1\n        /* \"#utility.yul\":17902:17914   */\n      revert\n        /* \"#utility.yul\":17853:17916   */\n    tag_413:\n        /* \"#utility.yul\":17800:17922   */\n      pop\n      jump\t// out\n        /* \"#utility.yul\":17928:18050   */\n    tag_219:\n        /* \"#utility.yul\":18001:18025   */\n      tag_415\n        /* \"#utility.yul\":18019:18024   */\n      dup2\n        /* \"#utility.yul\":18001:18025   */\n      tag_294\n      jump\t// in\n    tag_415:\n        /* \"#utility.yul\":17994:17999   */\n      dup2\n        /* \"#utility.yul\":17991:18026   */\n      eq\n        /* \"#utility.yul\":17981:18044   */\n      tag_416\n      jumpi\n        /* \"#utility.yul\":18040:18041   */\n      0x00\n        /* \"#utility.yul\":18037:18038   */\n      dup1\n        /* \"#utility.yul\":18030:18042   */\n      revert\n        /* \"#utility.yul\":17981:18044   */\n    tag_416:\n        /* \"#utility.yul\":17928:18050   */\n      pop\n      jump\t// out\n\n    auxdata: 0xa2646970667358221220cc8420e0ff91537d67e5a1a22b3f244a9b496e31aecacf8f775f5d7c33e3376764736f6c63430008070033\n}\n",
				"bytecode": {
					"linkReferences": {},
					"object": "608060405260006001556000600255603c60035534801561001f57600080fd5b5061003c61003161004160201b60201c565b61004960201b60201c565b61010d565b600033905090565b60008060009054906101000a900473ffffffffffffffffffffffffffffffffffffffff169050816000806101000a81548173ffffffffffffffffffffffffffffffffffffffff021916908373ffffffffffffffffffffffffffffffffffffffff1602179055508173ffffffffffffffffffffffffffffffffffffffff168173ffffffffffffffffffffffffffffffffffffffff167f8be0079c531659141344cd1fd0a4f28419497f9722a3daafe3b4186f6b6457e060405160405180910390a35050565b61198c8061011c6000396000f3fe6080604052600436106100915760003560e01c8063858b055411610059578063858b0554146101805780638da5cb5b146101bd578063d735573d146101e8578063f14137631461022c578063f2fde38b1461025757610091565b80631c6743e4146100965780632458c544146100d35780636b6f0494146101105780636ba2cdf414610140578063715018a614610169575b600080fd5b3480156100a257600080fd5b506100bd60048036038101906100b89190610f98565b610280565b6040516100ca9190611419565b60405180910390f35b3480156100df57600080fd5b506100fa60048036038101906100f59190610fc5565b610298565b6040516101079190611419565b60405180910390f35b61012a6004803603810190610125919061106c565b61057a565b604051610137919061133b565b60405180910390f35b34801561014c57600080fd5b5061016760048036038101906101629190611099565b6107b6565b005b34801561017557600080fd5b5061017e6108ad565b005b34801561018c57600080fd5b506101a760048036038101906101a2919061106c565b610935565b6040516101b4919061128d565b60405180910390f35b3480156101c957600080fd5b506101d2610968565b6040516101df919061128d565b60405180910390f35b3480156101f457600080fd5b5061020f600480360381019061020a919061106c565b610991565b6040516102239897969594939291906112a8565b60405180910390f35b34801561023857600080fd5b50610241610bb1565b60405161024e9190611419565b60405180910390f35b34801561026357600080fd5b5061027e60048036038101906102799190610f98565b610bff565b005b60066020528060005260406000206000915090505481565b60006001600660003373ffffffffffffffffffffffffffffffffffffffff1673ffffffffffffffffffffffffffffffffffffffff168152602001908152602001600020541061031c576040517f08c379a00000000000000000000000000000000000000000000000000000000081526004016103139061135d565b60405180910390fd5b60046040518061010001604052803373ffffffffffffffffffffffffffffffffffffffff16815260200186815260200185815260200184815260200160008152602001600081526020016003544261037491906114a6565b63ffffffff168152602001600063ffffffff16815250908060018154018082558091505060019003906000526020600020906008020160009091909190915060008201518160000160006101000a81548173ffffffffffffffffffffffffffffffffffffffff021916908373ffffffffffffffffffffffffffffffffffffffff1602179055506020820151816001019080519060200190610416929190610e5b565b506040820151816002019080519060200190610433929190610e5b565b506060820151816003019080519060200190610450929190610e5b565b506080820151816004015560a0820151816005015560c0820151816006015560e08201518160070160006101000a81548163ffffffff021916908363ffffffff160217905550505060006004805490509050336005600083815260200190815260200160002060006101000a81548173ffffffffffffffffffffffffffffffffffffffff021916908373ffffffffffffffffffffffffffffffffffffffff160217905550600660003373ffffffffffffffffffffffffffffffffffffffff1673ffffffffffffffffffffffffffffffffffffffff16815260200190815260200160002060008154809291906105449061167b565b91905055506002600081548092919061055c9061167b565b919050555060016002546105709190611556565b9150509392505050565b606081341461058857600080fd5b6001600081548092919061059b9061167b565b91905055506000600480549050426004805490506001546040516020016105c493929190611250565b6040516020818303038152906040528051906020012060001c6105e791906116ce565b9050600160008154809291906105fc9061167b565b9190505550600060029050600081428360015460405160200161062193929190611250565b6040516020818303038152906040528051906020012060001c61064491906116ce565b905060005b6004805490508110156107ac576004818154811061066a5761066961178c565b5b906000526020600020906008020160000160009054906101000a900473ffffffffffffffffffffffffffffffffffffffff1673ffffffffffffffffffffffffffffffffffffffff163373ffffffffffffffffffffffffffffffffffffffff161415610799576000821415610721576106e0610cf7565b6040518060400160405280600a81526020017f4861732067616e61646f000000000000000000000000000000000000000000008152509450505050506107b1565b7fa28482eec3136a2461c6c30c08f71ba279c6c51a2d9c7bea4e50d6d2632f38968460405161075091906113eb565b60405180910390a16040518060400160405280600b81526020017f486173207065726469646f0000000000000000000000000000000000000000008152509450505050506107b1565b80806107a49061167b565b915050610649565b505050505b919050565b600a8381600482815481106107ce576107cd61178c565b5b906000526020600020906008020160070160009054906101000a900463ffffffff1663ffffffff16101561080157600080fd5b6005600086815260200190815260200160002060009054906101000a900473ffffffffffffffffffffffffffffffffffffffff1673ffffffffffffffffffffffffffffffffffffffff163373ffffffffffffffffffffffffffffffffffffffff161461086c57600080fd5b83600486815481106108815761088061178c565b5b906000526020600020906008020160010190805190602001906108a5929190610e5b565b505050505050565b6108b5610d8f565b73ffffffffffffffffffffffffffffffffffffffff166108d3610968565b73ffffffffffffffffffffffffffffffffffffffff1614610929576040517f08c379a0000000000000000000000000000000000000000000000000000000008152600401610920906113cb565b60405180910390fd5b6109336000610d97565b565b60056020528060005260406000206000915054906101000a900473ffffffffffffffffffffffffffffffffffffffff1681565b60008060009054906101000a900473ffffffffffffffffffffffffffffffffffffffff16905090565b600481815481106109a157600080fd5b90600052602060002090600802016000915090508060000160009054906101000a900473ffffffffffffffffffffffffffffffffffffffff16908060010180546109ea90611618565b80601f0160208091040260200160405190810160405280929190818152602001828054610a1690611618565b8015610a635780601f10610a3857610100808354040283529160200191610a63565b820191906000526020600020905b815481529060010190602001808311610a4657829003601f168201915b505050505090806002018054610a7890611618565b80601f0160208091040260200160405190810160405280929190818152602001828054610aa490611618565b8015610af15780601f10610ac657610100808354040283529160200191610af1565b820191906000526020600020905b815481529060010190602001808311610ad457829003601f168201915b505050505090806003018054610b0690611618565b80601f0160208091040260200160405190810160405280929190818152602001828054610b3290611618565b8015610b7f5780601f10610b5457610100808354040283529160200191610b7f565b820191906000526020600020905b815481529060010190602001808311610b6257829003601f168201915b5050505050908060040154908060050154908060060154908060070160009054906101000a900463ffffffff16905088565b600080600290506000814283600154604051602001610bd293929190611250565b6040516020818303038152906040528051906020012060001c610bf591906116ce565b9050809250505090565b610c07610d8f565b73ffffffffffffffffffffffffffffffffffffffff16610c25610968565b73ffffffffffffffffffffffffffffffffffffffff1614610c7b576040517f08c379a0000000000000000000000000000000000000000000000000000000008152600401610c72906113cb565b60405180910390fd5b600073ffffffffffffffffffffffffffffffffffffffff168173ffffffffffffffffffffffffffffffffffffffff161415610ceb576040517f08c379a0000000000000000000000000000000000000000000000000000000008152600401610ce29061137d565b60405180910390fd5b610cf481610d97565b50565b3373ffffffffffffffffffffffffffffffffffffffff166108fc600247610d1e91906114fc565b9081150290604051600060405180830381858888f19350505050158015610d49573d6000803e3d6000fd5b507fa28482eec3136a2461c6c30c08f71ba279c6c51a2d9c7bea4e50d6d2632f3896600247610d7891906114fc565b604051610d85919061139d565b60405180910390a1565b600033905090565b60008060009054906101000a900473ffffffffffffffffffffffffffffffffffffffff169050816000806101000a81548173ffffffffffffffffffffffffffffffffffffffff021916908373ffffffffffffffffffffffffffffffffffffffff1602179055508173ffffffffffffffffffffffffffffffffffffffff168173ffffffffffffffffffffffffffffffffffffffff167f8be0079c531659141344cd1fd0a4f28419497f9722a3daafe3b4186f6b6457e060405160405180910390a35050565b828054610e6790611618565b90600052602060002090601f016020900481019282610e895760008555610ed0565b82601f10610ea257805160ff1916838001178555610ed0565b82800160010185558215610ed0579182015b82811115610ecf578251825591602001919060010190610eb4565b5b509050610edd9190610ee1565b5090565b5b80821115610efa576000816000905550600101610ee2565b5090565b6000610f11610f0c84611459565b611434565b905082815260208101848484011115610f2d57610f2c6117ef565b5b610f388482856115d6565b509392505050565b600081359050610f4f81611928565b92915050565b600082601f830112610f6a57610f696117ea565b5b8135610f7a848260208601610efe565b91505092915050565b600081359050610f928161193f565b92915050565b600060208284031215610fae57610fad6117f9565b5b6000610fbc84828501610f40565b91505092915050565b600080600060608486031215610fde57610fdd6117f9565b5b600084013567ffffffffffffffff811115610ffc57610ffb6117f4565b5b61100886828701610f55565b935050602084013567ffffffffffffffff811115611029576110286117f4565b5b61103586828701610f55565b925050604084013567ffffffffffffffff811115611056576110556117f4565b5b61106286828701610f55565b9150509250925092565b600060208284031215611082576110816117f9565b5b600061109084828501610f83565b91505092915050565b6000806000606084860312156110b2576110b16117f9565b5b60006110c086828701610f83565b935050602084013567ffffffffffffffff8111156110e1576110e06117f4565b5b6110ed86828701610f55565b925050604084013567ffffffffffffffff81111561110e5761110d6117f4565b5b61111a86828701610f55565b9150509250925092565b61112d8161158a565b82525050565b600061113e8261148a565b6111488185611495565b93506111588185602086016115e5565b611161816117fe565b840191505092915050565b6000611179602883611495565b91506111848261180f565b604082019050919050565b600061119c602683611495565b91506111a78261185e565b604082019050919050565b60006111bf600c83611495565b91506111ca826118ad565b602082019050919050565b60006111e2602083611495565b91506111ed826118d6565b602082019050919050565b6000611205601583611495565b9150611210826118ff565b602082019050919050565b611224816115bc565b82525050565b61123b611236826115bc565b6116c4565b82525050565b61124a816115c6565b82525050565b600061125c828661122a565b60208201915061126c828561122a565b60208201915061127c828461122a565b602082019150819050949350505050565b60006020820190506112a26000830184611124565b92915050565b6000610100820190506112be600083018b611124565b81810360208301526112d0818a611133565b905081810360408301526112e48189611133565b905081810360608301526112f88188611133565b9050611307608083018761121b565b61131460a083018661121b565b61132160c083018561121b565b61132e60e0830184611241565b9998505050505050505050565b600060208201905081810360008301526113558184611133565b905092915050565b600060208201905081810360008301526113768161116c565b9050919050565b600060208201905081810360008301526113968161118f565b9050919050565b600060408201905081810360008301526113b6816111b2565b90506113c5602083018461121b565b92915050565b600060208201905081810360008301526113e4816111d5565b9050919050565b60006040820190508181036000830152611404816111f8565b9050611413602083018461121b565b92915050565b600060208201905061142e600083018461121b565b92915050565b600061143e61144f565b905061144a828261164a565b919050565b6000604051905090565b600067ffffffffffffffff821115611474576114736117bb565b5b61147d826117fe565b9050602081019050919050565b600081519050919050565b600082825260208201905092915050565b60006114b1826115bc565b91506114bc836115bc565b9250827fffffffffffffffffffffffffffffffffffffffffffffffffffffffffffffffff038211156114f1576114f06116ff565b5b828201905092915050565b6000611507826115bc565b9150611512836115bc565b9250817fffffffffffffffffffffffffffffffffffffffffffffffffffffffffffffffff048311821515161561154b5761154a6116ff565b5b828202905092915050565b6000611561826115bc565b915061156c836115bc565b92508282101561157f5761157e6116ff565b5b828203905092915050565b60006115958261159c565b9050919050565b600073ffffffffffffffffffffffffffffffffffffffff82169050919050565b6000819050919050565b600063ffffffff82169050919050565b82818337600083830152505050565b60005b838110156116035780820151818401526020810190506115e8565b83811115611612576000848401525b50505050565b6000600282049050600182168061163057607f821691505b602082108114156116445761164361175d565b5b50919050565b611653826117fe565b810181811067ffffffffffffffff82111715611672576116716117bb565b5b80604052505050565b6000611686826115bc565b91507fffffffffffffffffffffffffffffffffffffffffffffffffffffffffffffffff8214156116b9576116b86116ff565b5b600182019050919050565b6000819050919050565b60006116d9826115bc565b91506116e4836115bc565b9250826116f4576116f361172e565b5b828206905092915050565b7f4e487b7100000000000000000000000000000000000000000000000000000000600052601160045260246000fd5b7f4e487b7100000000000000000000000000000000000000000000000000000000600052601260045260246000fd5b7f4e487b7100000000000000000000000000000000000000000000000000000000600052602260045260246000fd5b7f4e487b7100000000000000000000000000000000000000000000000000000000600052603260045260246000fd5b7f4e487b7100000000000000000000000000000000000000000000000000000000600052604160045260246000fd5b600080fd5b600080fd5b600080fd5b600080fd5b6000601f19601f8301169050919050565b7f536f6c6f2073652070756564652074656e657220756e20636f63686520706f7260008201527f20706572736f6e61000000000000000000000000000000000000000000000000602082015250565b7f4f776e61626c653a206e6577206f776e657220697320746865207a65726f206160008201527f6464726573730000000000000000000000000000000000000000000000000000602082015250565b7f4861732067616e61646f3a200000000000000000000000000000000000000000600082015250565b7f4f776e61626c653a2063616c6c6572206973206e6f7420746865206f776e6572600082015250565b7f456c20636f6368652067616e61646f722065733a200000000000000000000000600082015250565b6119318161158a565b811461193c57600080fd5b50565b611948816115bc565b811461195357600080fd5b5056fea2646970667358221220cc8420e0ff91537d67e5a1a22b3f244a9b496e31aecacf8f775f5d7c33e3376764736f6c63430008070033",
					"opcodes": "PUSH1 0x80 PUSH1 0x40 MSTORE PUSH1 0x0 PUSH1 0x1 SSTORE PUSH1 0x0 PUSH1 0x2 SSTORE PUSH1 0x3C PUSH1 0x3 SSTORE CALLVALUE DUP1 ISZERO PUSH2 0x1F JUMPI PUSH1 0x0 DUP1 REVERT JUMPDEST POP PUSH2 0x3C PUSH2 0x31 PUSH2 0x41 PUSH1 0x20 SHL PUSH1 0x20 SHR JUMP JUMPDEST PUSH2 0x49 PUSH1 0x20 SHL PUSH1 0x20 SHR JUMP JUMPDEST PUSH2 0x10D JUMP JUMPDEST PUSH1 0x0 CALLER SWAP1 POP SWAP1 JUMP JUMPDEST PUSH1 0x0 DUP1 PUSH1 0x0 SWAP1 SLOAD SWAP1 PUSH2 0x100 EXP SWAP1 DIV PUSH20 0xFFFFFFFFFFFFFFFFFFFFFFFFFFFFFFFFFFFFFFFF AND SWAP1 POP DUP2 PUSH1 0x0 DUP1 PUSH2 0x100 EXP DUP2 SLOAD DUP2 PUSH20 0xFFFFFFFFFFFFFFFFFFFFFFFFFFFFFFFFFFFFFFFF MUL NOT AND SWAP1 DUP4 PUSH20 0xFFFFFFFFFFFFFFFFFFFFFFFFFFFFFFFFFFFFFFFF AND MUL OR SWAP1 SSTORE POP DUP2 PUSH20 0xFFFFFFFFFFFFFFFFFFFFFFFFFFFFFFFFFFFFFFFF AND DUP2 PUSH20 0xFFFFFFFFFFFFFFFFFFFFFFFFFFFFFFFFFFFFFFFF AND PUSH32 0x8BE0079C531659141344CD1FD0A4F28419497F9722A3DAAFE3B4186F6B6457E0 PUSH1 0x40 MLOAD PUSH1 0x40 MLOAD DUP1 SWAP2 SUB SWAP1 LOG3 POP POP JUMP JUMPDEST PUSH2 0x198C DUP1 PUSH2 0x11C PUSH1 0x0 CODECOPY PUSH1 0x0 RETURN INVALID PUSH1 0x80 PUSH1 0x40 MSTORE PUSH1 0x4 CALLDATASIZE LT PUSH2 0x91 JUMPI PUSH1 0x0 CALLDATALOAD PUSH1 0xE0 SHR DUP1 PUSH4 0x858B0554 GT PUSH2 0x59 JUMPI DUP1 PUSH4 0x858B0554 EQ PUSH2 0x180 JUMPI DUP1 PUSH4 0x8DA5CB5B EQ PUSH2 0x1BD JUMPI DUP1 PUSH4 0xD735573D EQ PUSH2 0x1E8 JUMPI DUP1 PUSH4 0xF1413763 EQ PUSH2 0x22C JUMPI DUP1 PUSH4 0xF2FDE38B EQ PUSH2 0x257 JUMPI PUSH2 0x91 JUMP JUMPDEST DUP1 PUSH4 0x1C6743E4 EQ PUSH2 0x96 JUMPI DUP1 PUSH4 0x2458C544 EQ PUSH2 0xD3 JUMPI DUP1 PUSH4 0x6B6F0494 EQ PUSH2 0x110 JUMPI DUP1 PUSH4 0x6BA2CDF4 EQ PUSH2 0x140 JUMPI DUP1 PUSH4 0x715018A6 EQ PUSH2 0x169 JUMPI JUMPDEST PUSH1 0x0 DUP1 REVERT JUMPDEST CALLVALUE DUP1 ISZERO PUSH2 0xA2 JUMPI PUSH1 0x0 DUP1 REVERT JUMPDEST POP PUSH2 0xBD PUSH1 0x4 DUP1 CALLDATASIZE SUB DUP2 ADD SWAP1 PUSH2 0xB8 SWAP2 SWAP1 PUSH2 0xF98 JUMP JUMPDEST PUSH2 0x280 JUMP JUMPDEST PUSH1 0x40 MLOAD PUSH2 0xCA SWAP2 SWAP1 PUSH2 0x1419 JUMP JUMPDEST PUSH1 0x40 MLOAD DUP1 SWAP2 SUB SWAP1 RETURN JUMPDEST CALLVALUE DUP1 ISZERO PUSH2 0xDF JUMPI PUSH1 0x0 DUP1 REVERT JUMPDEST POP PUSH2 0xFA PUSH1 0x4 DUP1 CALLDATASIZE SUB DUP2 ADD SWAP1 PUSH2 0xF5 SWAP2 SWAP1 PUSH2 0xFC5 JUMP JUMPDEST PUSH2 0x298 JUMP JUMPDEST PUSH1 0x40 MLOAD PUSH2 0x107 SWAP2 SWAP1 PUSH2 0x1419 JUMP JUMPDEST PUSH1 0x40 MLOAD DUP1 SWAP2 SUB SWAP1 RETURN JUMPDEST PUSH2 0x12A PUSH1 0x4 DUP1 CALLDATASIZE SUB DUP2 ADD SWAP1 PUSH2 0x125 SWAP2 SWAP1 PUSH2 0x106C JUMP JUMPDEST PUSH2 0x57A JUMP JUMPDEST PUSH1 0x40 MLOAD PUSH2 0x137 SWAP2 SWAP1 PUSH2 0x133B JUMP JUMPDEST PUSH1 0x40 MLOAD DUP1 SWAP2 SUB SWAP1 RETURN JUMPDEST CALLVALUE DUP1 ISZERO PUSH2 0x14C JUMPI PUSH1 0x0 DUP1 REVERT JUMPDEST POP PUSH2 0x167 PUSH1 0x4 DUP1 CALLDATASIZE SUB DUP2 ADD SWAP1 PUSH2 0x162 SWAP2 SWAP1 PUSH2 0x1099 JUMP JUMPDEST PUSH2 0x7B6 JUMP JUMPDEST STOP JUMPDEST CALLVALUE DUP1 ISZERO PUSH2 0x175 JUMPI PUSH1 0x0 DUP1 REVERT JUMPDEST POP PUSH2 0x17E PUSH2 0x8AD JUMP JUMPDEST STOP JUMPDEST CALLVALUE DUP1 ISZERO PUSH2 0x18C JUMPI PUSH1 0x0 DUP1 REVERT JUMPDEST POP PUSH2 0x1A7 PUSH1 0x4 DUP1 CALLDATASIZE SUB DUP2 ADD SWAP1 PUSH2 0x1A2 SWAP2 SWAP1 PUSH2 0x106C JUMP JUMPDEST PUSH2 0x935 JUMP JUMPDEST PUSH1 0x40 MLOAD PUSH2 0x1B4 SWAP2 SWAP1 PUSH2 0x128D JUMP JUMPDEST PUSH1 0x40 MLOAD DUP1 SWAP2 SUB SWAP1 RETURN JUMPDEST CALLVALUE DUP1 ISZERO PUSH2 0x1C9 JUMPI PUSH1 0x0 DUP1 REVERT JUMPDEST POP PUSH2 0x1D2 PUSH2 0x968 JUMP JUMPDEST PUSH1 0x40 MLOAD PUSH2 0x1DF SWAP2 SWAP1 PUSH2 0x128D JUMP JUMPDEST PUSH1 0x40 MLOAD DUP1 SWAP2 SUB SWAP1 RETURN JUMPDEST CALLVALUE DUP1 ISZERO PUSH2 0x1F4 JUMPI PUSH1 0x0 DUP1 REVERT JUMPDEST POP PUSH2 0x20F PUSH1 0x4 DUP1 CALLDATASIZE SUB DUP2 ADD SWAP1 PUSH2 0x20A SWAP2 SWAP1 PUSH2 0x106C JUMP JUMPDEST PUSH2 0x991 JUMP JUMPDEST PUSH1 0x40 MLOAD PUSH2 0x223 SWAP9 SWAP8 SWAP7 SWAP6 SWAP5 SWAP4 SWAP3 SWAP2 SWAP1 PUSH2 0x12A8 JUMP JUMPDEST PUSH1 0x40 MLOAD DUP1 SWAP2 SUB SWAP1 RETURN JUMPDEST CALLVALUE DUP1 ISZERO PUSH2 0x238 JUMPI PUSH1 0x0 DUP1 REVERT JUMPDEST POP PUSH2 0x241 PUSH2 0xBB1 JUMP JUMPDEST PUSH1 0x40 MLOAD PUSH2 0x24E SWAP2 SWAP1 PUSH2 0x1419 JUMP JUMPDEST PUSH1 0x40 MLOAD DUP1 SWAP2 SUB SWAP1 RETURN JUMPDEST CALLVALUE DUP1 ISZERO PUSH2 0x263 JUMPI PUSH1 0x0 DUP1 REVERT JUMPDEST POP PUSH2 0x27E PUSH1 0x4 DUP1 CALLDATASIZE SUB DUP2 ADD SWAP1 PUSH2 0x279 SWAP2 SWAP1 PUSH2 0xF98 JUMP JUMPDEST PUSH2 0xBFF JUMP JUMPDEST STOP JUMPDEST PUSH1 0x6 PUSH1 0x20 MSTORE DUP1 PUSH1 0x0 MSTORE PUSH1 0x40 PUSH1 0x0 KECCAK256 PUSH1 0x0 SWAP2 POP SWAP1 POP SLOAD DUP2 JUMP JUMPDEST PUSH1 0x0 PUSH1 0x1 PUSH1 0x6 PUSH1 0x0 CALLER PUSH20 0xFFFFFFFFFFFFFFFFFFFFFFFFFFFFFFFFFFFFFFFF AND PUSH20 0xFFFFFFFFFFFFFFFFFFFFFFFFFFFFFFFFFFFFFFFF AND DUP2 MSTORE PUSH1 0x20 ADD SWAP1 DUP2 MSTORE PUSH1 0x20 ADD PUSH1 0x0 KECCAK256 SLOAD LT PUSH2 0x31C JUMPI PUSH1 0x40 MLOAD PUSH32 0x8C379A000000000000000000000000000000000000000000000000000000000 DUP2 MSTORE PUSH1 0x4 ADD PUSH2 0x313 SWAP1 PUSH2 0x135D JUMP JUMPDEST PUSH1 0x40 MLOAD DUP1 SWAP2 SUB SWAP1 REVERT JUMPDEST PUSH1 0x4 PUSH1 0x40 MLOAD DUP1 PUSH2 0x100 ADD PUSH1 0x40 MSTORE DUP1 CALLER PUSH20 0xFFFFFFFFFFFFFFFFFFFFFFFFFFFFFFFFFFFFFFFF AND DUP2 MSTORE PUSH1 0x20 ADD DUP7 DUP2 MSTORE PUSH1 0x20 ADD DUP6 DUP2 MSTORE PUSH1 0x20 ADD DUP5 DUP2 MSTORE PUSH1 0x20 ADD PUSH1 0x0 DUP2 MSTORE PUSH1 0x20 ADD PUSH1 0x0 DUP2 MSTORE PUSH1 0x20 ADD PUSH1 0x3 SLOAD TIMESTAMP PUSH2 0x374 SWAP2 SWAP1 PUSH2 0x14A6 JUMP JUMPDEST PUSH4 0xFFFFFFFF AND DUP2 MSTORE PUSH1 0x20 ADD PUSH1 0x0 PUSH4 0xFFFFFFFF AND DUP2 MSTORE POP SWAP1 DUP1 PUSH1 0x1 DUP2 SLOAD ADD DUP1 DUP3 SSTORE DUP1 SWAP2 POP POP PUSH1 0x1 SWAP1 SUB SWAP1 PUSH1 0x0 MSTORE PUSH1 0x20 PUSH1 0x0 KECCAK256 SWAP1 PUSH1 0x8 MUL ADD PUSH1 0x0 SWAP1 SWAP2 SWAP1 SWAP2 SWAP1 SWAP2 POP PUSH1 0x0 DUP3 ADD MLOAD DUP2 PUSH1 0x0 ADD PUSH1 0x0 PUSH2 0x100 EXP DUP2 SLOAD DUP2 PUSH20 0xFFFFFFFFFFFFFFFFFFFFFFFFFFFFFFFFFFFFFFFF MUL NOT AND SWAP1 DUP4 PUSH20 0xFFFFFFFFFFFFFFFFFFFFFFFFFFFFFFFFFFFFFFFF AND MUL OR SWAP1 SSTORE POP PUSH1 0x20 DUP3 ADD MLOAD DUP2 PUSH1 0x1 ADD SWAP1 DUP1 MLOAD SWAP1 PUSH1 0x20 ADD SWAP1 PUSH2 0x416 SWAP3 SWAP2 SWAP1 PUSH2 0xE5B JUMP JUMPDEST POP PUSH1 0x40 DUP3 ADD MLOAD DUP2 PUSH1 0x2 ADD SWAP1 DUP1 MLOAD SWAP1 PUSH1 0x20 ADD SWAP1 PUSH2 0x433 SWAP3 SWAP2 SWAP1 PUSH2 0xE5B JUMP JUMPDEST POP PUSH1 0x60 DUP3 ADD MLOAD DUP2 PUSH1 0x3 ADD SWAP1 DUP1 MLOAD SWAP1 PUSH1 0x20 ADD SWAP1 PUSH2 0x450 SWAP3 SWAP2 SWAP1 PUSH2 0xE5B JUMP JUMPDEST POP PUSH1 0x80 DUP3 ADD MLOAD DUP2 PUSH1 0x4 ADD SSTORE PUSH1 0xA0 DUP3 ADD MLOAD DUP2 PUSH1 0x5 ADD SSTORE PUSH1 0xC0 DUP3 ADD MLOAD DUP2 PUSH1 0x6 ADD SSTORE PUSH1 0xE0 DUP3 ADD MLOAD DUP2 PUSH1 0x7 ADD PUSH1 0x0 PUSH2 0x100 EXP DUP2 SLOAD DUP2 PUSH4 0xFFFFFFFF MUL NOT AND SWAP1 DUP4 PUSH4 0xFFFFFFFF AND MUL OR SWAP1 SSTORE POP POP POP PUSH1 0x0 PUSH1 0x4 DUP1 SLOAD SWAP1 POP SWAP1 POP CALLER PUSH1 0x5 PUSH1 0x0 DUP4 DUP2 MSTORE PUSH1 0x20 ADD SWAP1 DUP2 MSTORE PUSH1 0x20 ADD PUSH1 0x0 KECCAK256 PUSH1 0x0 PUSH2 0x100 EXP DUP2 SLOAD DUP2 PUSH20 0xFFFFFFFFFFFFFFFFFFFFFFFFFFFFFFFFFFFFFFFF MUL NOT AND SWAP1 DUP4 PUSH20 0xFFFFFFFFFFFFFFFFFFFFFFFFFFFFFFFFFFFFFFFF AND MUL OR SWAP1 SSTORE POP PUSH1 0x6 PUSH1 0x0 CALLER PUSH20 0xFFFFFFFFFFFFFFFFFFFFFFFFFFFFFFFFFFFFFFFF AND PUSH20 0xFFFFFFFFFFFFFFFFFFFFFFFFFFFFFFFFFFFFFFFF AND DUP2 MSTORE PUSH1 0x20 ADD SWAP1 DUP2 MSTORE PUSH1 0x20 ADD PUSH1 0x0 KECCAK256 PUSH1 0x0 DUP2 SLOAD DUP1 SWAP3 SWAP2 SWAP1 PUSH2 0x544 SWAP1 PUSH2 0x167B JUMP JUMPDEST SWAP2 SWAP1 POP SSTORE POP PUSH1 0x2 PUSH1 0x0 DUP2 SLOAD DUP1 SWAP3 SWAP2 SWAP1 PUSH2 0x55C SWAP1 PUSH2 0x167B JUMP JUMPDEST SWAP2 SWAP1 POP SSTORE POP PUSH1 0x1 PUSH1 0x2 SLOAD PUSH2 0x570 SWAP2 SWAP1 PUSH2 0x1556 JUMP JUMPDEST SWAP2 POP POP SWAP4 SWAP3 POP POP POP JUMP JUMPDEST PUSH1 0x60 DUP2 CALLVALUE EQ PUSH2 0x588 JUMPI PUSH1 0x0 DUP1 REVERT JUMPDEST PUSH1 0x1 PUSH1 0x0 DUP2 SLOAD DUP1 SWAP3 SWAP2 SWAP1 PUSH2 0x59B SWAP1 PUSH2 0x167B JUMP JUMPDEST SWAP2 SWAP1 POP SSTORE POP PUSH1 0x0 PUSH1 0x4 DUP1 SLOAD SWAP1 POP TIMESTAMP PUSH1 0x4 DUP1 SLOAD SWAP1 POP PUSH1 0x1 SLOAD PUSH1 0x40 MLOAD PUSH1 0x20 ADD PUSH2 0x5C4 SWAP4 SWAP3 SWAP2 SWAP1 PUSH2 0x1250 JUMP JUMPDEST PUSH1 0x40 MLOAD PUSH1 0x20 DUP2 DUP4 SUB SUB DUP2 MSTORE SWAP1 PUSH1 0x40 MSTORE DUP1 MLOAD SWAP1 PUSH1 0x20 ADD KECCAK256 PUSH1 0x0 SHR PUSH2 0x5E7 SWAP2 SWAP1 PUSH2 0x16CE JUMP JUMPDEST SWAP1 POP PUSH1 0x1 PUSH1 0x0 DUP2 SLOAD DUP1 SWAP3 SWAP2 SWAP1 PUSH2 0x5FC SWAP1 PUSH2 0x167B JUMP JUMPDEST SWAP2 SWAP1 POP SSTORE POP PUSH1 0x0 PUSH1 0x2 SWAP1 POP PUSH1 0x0 DUP2 TIMESTAMP DUP4 PUSH1 0x1 SLOAD PUSH1 0x40 MLOAD PUSH1 0x20 ADD PUSH2 0x621 SWAP4 SWAP3 SWAP2 SWAP1 PUSH2 0x1250 JUMP JUMPDEST PUSH1 0x40 MLOAD PUSH1 0x20 DUP2 DUP4 SUB SUB DUP2 MSTORE SWAP1 PUSH1 0x40 MSTORE DUP1 MLOAD SWAP1 PUSH1 0x20 ADD KECCAK256 PUSH1 0x0 SHR PUSH2 0x644 SWAP2 SWAP1 PUSH2 0x16CE JUMP JUMPDEST SWAP1 POP PUSH1 0x0 JUMPDEST PUSH1 0x4 DUP1 SLOAD SWAP1 POP DUP2 LT ISZERO PUSH2 0x7AC JUMPI PUSH1 0x4 DUP2 DUP2 SLOAD DUP2 LT PUSH2 0x66A JUMPI PUSH2 0x669 PUSH2 0x178C JUMP JUMPDEST JUMPDEST SWAP1 PUSH1 0x0 MSTORE PUSH1 0x20 PUSH1 0x0 KECCAK256 SWAP1 PUSH1 0x8 MUL ADD PUSH1 0x0 ADD PUSH1 0x0 SWAP1 SLOAD SWAP1 PUSH2 0x100 EXP SWAP1 DIV PUSH20 0xFFFFFFFFFFFFFFFFFFFFFFFFFFFFFFFFFFFFFFFF AND PUSH20 0xFFFFFFFFFFFFFFFFFFFFFFFFFFFFFFFFFFFFFFFF AND CALLER PUSH20 0xFFFFFFFFFFFFFFFFFFFFFFFFFFFFFFFFFFFFFFFF AND EQ ISZERO PUSH2 0x799 JUMPI PUSH1 0x0 DUP3 EQ ISZERO PUSH2 0x721 JUMPI PUSH2 0x6E0 PUSH2 0xCF7 JUMP JUMPDEST PUSH1 0x40 MLOAD DUP1 PUSH1 0x40 ADD PUSH1 0x40 MSTORE DUP1 PUSH1 0xA DUP2 MSTORE PUSH1 0x20 ADD PUSH32 0x4861732067616E61646F00000000000000000000000000000000000000000000 DUP2 MSTORE POP SWAP5 POP POP POP POP POP PUSH2 0x7B1 JUMP JUMPDEST PUSH32 0xA28482EEC3136A2461C6C30C08F71BA279C6C51A2D9C7BEA4E50D6D2632F3896 DUP5 PUSH1 0x40 MLOAD PUSH2 0x750 SWAP2 SWAP1 PUSH2 0x13EB JUMP JUMPDEST PUSH1 0x40 MLOAD DUP1 SWAP2 SUB SWAP1 LOG1 PUSH1 0x40 MLOAD DUP1 PUSH1 0x40 ADD PUSH1 0x40 MSTORE DUP1 PUSH1 0xB DUP2 MSTORE PUSH1 0x20 ADD PUSH32 0x486173207065726469646F000000000000000000000000000000000000000000 DUP2 MSTORE POP SWAP5 POP POP POP POP POP PUSH2 0x7B1 JUMP JUMPDEST DUP1 DUP1 PUSH2 0x7A4 SWAP1 PUSH2 0x167B JUMP JUMPDEST SWAP2 POP POP PUSH2 0x649 JUMP JUMPDEST POP POP POP POP JUMPDEST SWAP2 SWAP1 POP JUMP JUMPDEST PUSH1 0xA DUP4 DUP2 PUSH1 0x4 DUP3 DUP2 SLOAD DUP2 LT PUSH2 0x7CE JUMPI PUSH2 0x7CD PUSH2 0x178C JUMP JUMPDEST JUMPDEST SWAP1 PUSH1 0x0 MSTORE PUSH1 0x20 PUSH1 0x0 KECCAK256 SWAP1 PUSH1 0x8 MUL ADD PUSH1 0x7 ADD PUSH1 0x0 SWAP1 SLOAD SWAP1 PUSH2 0x100 EXP SWAP1 DIV PUSH4 0xFFFFFFFF AND PUSH4 0xFFFFFFFF AND LT ISZERO PUSH2 0x801 JUMPI PUSH1 0x0 DUP1 REVERT JUMPDEST PUSH1 0x5 PUSH1 0x0 DUP7 DUP2 MSTORE PUSH1 0x20 ADD SWAP1 DUP2 MSTORE PUSH1 0x20 ADD PUSH1 0x0 KECCAK256 PUSH1 0x0 SWAP1 SLOAD SWAP1 PUSH2 0x100 EXP SWAP1 DIV PUSH20 0xFFFFFFFFFFFFFFFFFFFFFFFFFFFFFFFFFFFFFFFF AND PUSH20 0xFFFFFFFFFFFFFFFFFFFFFFFFFFFFFFFFFFFFFFFF AND CALLER PUSH20 0xFFFFFFFFFFFFFFFFFFFFFFFFFFFFFFFFFFFFFFFF AND EQ PUSH2 0x86C JUMPI PUSH1 0x0 DUP1 REVERT JUMPDEST DUP4 PUSH1 0x4 DUP7 DUP2 SLOAD DUP2 LT PUSH2 0x881 JUMPI PUSH2 0x880 PUSH2 0x178C JUMP JUMPDEST JUMPDEST SWAP1 PUSH1 0x0 MSTORE PUSH1 0x20 PUSH1 0x0 KECCAK256 SWAP1 PUSH1 0x8 MUL ADD PUSH1 0x1 ADD SWAP1 DUP1 MLOAD SWAP1 PUSH1 0x20 ADD SWAP1 PUSH2 0x8A5 SWAP3 SWAP2 SWAP1 PUSH2 0xE5B JUMP JUMPDEST POP POP POP POP POP POP JUMP JUMPDEST PUSH2 0x8B5 PUSH2 0xD8F JUMP JUMPDEST PUSH20 0xFFFFFFFFFFFFFFFFFFFFFFFFFFFFFFFFFFFFFFFF AND PUSH2 0x8D3 PUSH2 0x968 JUMP JUMPDEST PUSH20 0xFFFFFFFFFFFFFFFFFFFFFFFFFFFFFFFFFFFFFFFF AND EQ PUSH2 0x929 JUMPI PUSH1 0x40 MLOAD PUSH32 0x8C379A000000000000000000000000000000000000000000000000000000000 DUP2 MSTORE PUSH1 0x4 ADD PUSH2 0x920 SWAP1 PUSH2 0x13CB JUMP JUMPDEST PUSH1 0x40 MLOAD DUP1 SWAP2 SUB SWAP1 REVERT JUMPDEST PUSH2 0x933 PUSH1 0x0 PUSH2 0xD97 JUMP JUMPDEST JUMP JUMPDEST PUSH1 0x5 PUSH1 0x20 MSTORE DUP1 PUSH1 0x0 MSTORE PUSH1 0x40 PUSH1 0x0 KECCAK256 PUSH1 0x0 SWAP2 POP SLOAD SWAP1 PUSH2 0x100 EXP SWAP1 DIV PUSH20 0xFFFFFFFFFFFFFFFFFFFFFFFFFFFFFFFFFFFFFFFF AND DUP2 JUMP JUMPDEST PUSH1 0x0 DUP1 PUSH1 0x0 SWAP1 SLOAD SWAP1 PUSH2 0x100 EXP SWAP1 DIV PUSH20 0xFFFFFFFFFFFFFFFFFFFFFFFFFFFFFFFFFFFFFFFF AND SWAP1 POP SWAP1 JUMP JUMPDEST PUSH1 0x4 DUP2 DUP2 SLOAD DUP2 LT PUSH2 0x9A1 JUMPI PUSH1 0x0 DUP1 REVERT JUMPDEST SWAP1 PUSH1 0x0 MSTORE PUSH1 0x20 PUSH1 0x0 KECCAK256 SWAP1 PUSH1 0x8 MUL ADD PUSH1 0x0 SWAP2 POP SWAP1 POP DUP1 PUSH1 0x0 ADD PUSH1 0x0 SWAP1 SLOAD SWAP1 PUSH2 0x100 EXP SWAP1 DIV PUSH20 0xFFFFFFFFFFFFFFFFFFFFFFFFFFFFFFFFFFFFFFFF AND SWAP1 DUP1 PUSH1 0x1 ADD DUP1 SLOAD PUSH2 0x9EA SWAP1 PUSH2 0x1618 JUMP JUMPDEST DUP1 PUSH1 0x1F ADD PUSH1 0x20 DUP1 SWAP2 DIV MUL PUSH1 0x20 ADD PUSH1 0x40 MLOAD SWAP1 DUP2 ADD PUSH1 0x40 MSTORE DUP1 SWAP3 SWAP2 SWAP1 DUP2 DUP2 MSTORE PUSH1 0x20 ADD DUP3 DUP1 SLOAD PUSH2 0xA16 SWAP1 PUSH2 0x1618 JUMP JUMPDEST DUP1 ISZERO PUSH2 0xA63 JUMPI DUP1 PUSH1 0x1F LT PUSH2 0xA38 JUMPI PUSH2 0x100 DUP1 DUP4 SLOAD DIV MUL DUP4 MSTORE SWAP2 PUSH1 0x20 ADD SWAP2 PUSH2 0xA63 JUMP JUMPDEST DUP3 ADD SWAP2 SWAP1 PUSH1 0x0 MSTORE PUSH1 0x20 PUSH1 0x0 KECCAK256 SWAP1 JUMPDEST DUP2 SLOAD DUP2 MSTORE SWAP1 PUSH1 0x1 ADD SWAP1 PUSH1 0x20 ADD DUP1 DUP4 GT PUSH2 0xA46 JUMPI DUP3 SWAP1 SUB PUSH1 0x1F AND DUP3 ADD SWAP2 JUMPDEST POP POP POP POP POP SWAP1 DUP1 PUSH1 0x2 ADD DUP1 SLOAD PUSH2 0xA78 SWAP1 PUSH2 0x1618 JUMP JUMPDEST DUP1 PUSH1 0x1F ADD PUSH1 0x20 DUP1 SWAP2 DIV MUL PUSH1 0x20 ADD PUSH1 0x40 MLOAD SWAP1 DUP2 ADD PUSH1 0x40 MSTORE DUP1 SWAP3 SWAP2 SWAP1 DUP2 DUP2 MSTORE PUSH1 0x20 ADD DUP3 DUP1 SLOAD PUSH2 0xAA4 SWAP1 PUSH2 0x1618 JUMP JUMPDEST DUP1 ISZERO PUSH2 0xAF1 JUMPI DUP1 PUSH1 0x1F LT PUSH2 0xAC6 JUMPI PUSH2 0x100 DUP1 DUP4 SLOAD DIV MUL DUP4 MSTORE SWAP2 PUSH1 0x20 ADD SWAP2 PUSH2 0xAF1 JUMP JUMPDEST DUP3 ADD SWAP2 SWAP1 PUSH1 0x0 MSTORE PUSH1 0x20 PUSH1 0x0 KECCAK256 SWAP1 JUMPDEST DUP2 SLOAD DUP2 MSTORE SWAP1 PUSH1 0x1 ADD SWAP1 PUSH1 0x20 ADD DUP1 DUP4 GT PUSH2 0xAD4 JUMPI DUP3 SWAP1 SUB PUSH1 0x1F AND DUP3 ADD SWAP2 JUMPDEST POP POP POP POP POP SWAP1 DUP1 PUSH1 0x3 ADD DUP1 SLOAD PUSH2 0xB06 SWAP1 PUSH2 0x1618 JUMP JUMPDEST DUP1 PUSH1 0x1F ADD PUSH1 0x20 DUP1 SWAP2 DIV MUL PUSH1 0x20 ADD PUSH1 0x40 MLOAD SWAP1 DUP2 ADD PUSH1 0x40 MSTORE DUP1 SWAP3 SWAP2 SWAP1 DUP2 DUP2 MSTORE PUSH1 0x20 ADD DUP3 DUP1 SLOAD PUSH2 0xB32 SWAP1 PUSH2 0x1618 JUMP JUMPDEST DUP1 ISZERO PUSH2 0xB7F JUMPI DUP1 PUSH1 0x1F LT PUSH2 0xB54 JUMPI PUSH2 0x100 DUP1 DUP4 SLOAD DIV MUL DUP4 MSTORE SWAP2 PUSH1 0x20 ADD SWAP2 PUSH2 0xB7F JUMP JUMPDEST DUP3 ADD SWAP2 SWAP1 PUSH1 0x0 MSTORE PUSH1 0x20 PUSH1 0x0 KECCAK256 SWAP1 JUMPDEST DUP2 SLOAD DUP2 MSTORE SWAP1 PUSH1 0x1 ADD SWAP1 PUSH1 0x20 ADD DUP1 DUP4 GT PUSH2 0xB62 JUMPI DUP3 SWAP1 SUB PUSH1 0x1F AND DUP3 ADD SWAP2 JUMPDEST POP POP POP POP POP SWAP1 DUP1 PUSH1 0x4 ADD SLOAD SWAP1 DUP1 PUSH1 0x5 ADD SLOAD SWAP1 DUP1 PUSH1 0x6 ADD SLOAD SWAP1 DUP1 PUSH1 0x7 ADD PUSH1 0x0 SWAP1 SLOAD SWAP1 PUSH2 0x100 EXP SWAP1 DIV PUSH4 0xFFFFFFFF AND SWAP1 POP DUP9 JUMP JUMPDEST PUSH1 0x0 DUP1 PUSH1 0x2 SWAP1 POP PUSH1 0x0 DUP2 TIMESTAMP DUP4 PUSH1 0x1 SLOAD PUSH1 0x40 MLOAD PUSH1 0x20 ADD PUSH2 0xBD2 SWAP4 SWAP3 SWAP2 SWAP1 PUSH2 0x1250 JUMP JUMPDEST PUSH1 0x40 MLOAD PUSH1 0x20 DUP2 DUP4 SUB SUB DUP2 MSTORE SWAP1 PUSH1 0x40 MSTORE DUP1 MLOAD SWAP1 PUSH1 0x20 ADD KECCAK256 PUSH1 0x0 SHR PUSH2 0xBF5 SWAP2 SWAP1 PUSH2 0x16CE JUMP JUMPDEST SWAP1 POP DUP1 SWAP3 POP POP POP SWAP1 JUMP JUMPDEST PUSH2 0xC07 PUSH2 0xD8F JUMP JUMPDEST PUSH20 0xFFFFFFFFFFFFFFFFFFFFFFFFFFFFFFFFFFFFFFFF AND PUSH2 0xC25 PUSH2 0x968 JUMP JUMPDEST PUSH20 0xFFFFFFFFFFFFFFFFFFFFFFFFFFFFFFFFFFFFFFFF AND EQ PUSH2 0xC7B JUMPI PUSH1 0x40 MLOAD PUSH32 0x8C379A000000000000000000000000000000000000000000000000000000000 DUP2 MSTORE PUSH1 0x4 ADD PUSH2 0xC72 SWAP1 PUSH2 0x13CB JUMP JUMPDEST PUSH1 0x40 MLOAD DUP1 SWAP2 SUB SWAP1 REVERT JUMPDEST PUSH1 0x0 PUSH20 0xFFFFFFFFFFFFFFFFFFFFFFFFFFFFFFFFFFFFFFFF AND DUP2 PUSH20 0xFFFFFFFFFFFFFFFFFFFFFFFFFFFFFFFFFFFFFFFF AND EQ ISZERO PUSH2 0xCEB JUMPI PUSH1 0x40 MLOAD PUSH32 0x8C379A000000000000000000000000000000000000000000000000000000000 DUP2 MSTORE PUSH1 0x4 ADD PUSH2 0xCE2 SWAP1 PUSH2 0x137D JUMP JUMPDEST PUSH1 0x40 MLOAD DUP1 SWAP2 SUB SWAP1 REVERT JUMPDEST PUSH2 0xCF4 DUP2 PUSH2 0xD97 JUMP JUMPDEST POP JUMP JUMPDEST CALLER PUSH20 0xFFFFFFFFFFFFFFFFFFFFFFFFFFFFFFFFFFFFFFFF AND PUSH2 0x8FC PUSH1 0x2 SELFBALANCE PUSH2 0xD1E SWAP2 SWAP1 PUSH2 0x14FC JUMP JUMPDEST SWAP1 DUP2 ISZERO MUL SWAP1 PUSH1 0x40 MLOAD PUSH1 0x0 PUSH1 0x40 MLOAD DUP1 DUP4 SUB DUP2 DUP6 DUP9 DUP9 CALL SWAP4 POP POP POP POP ISZERO DUP1 ISZERO PUSH2 0xD49 JUMPI RETURNDATASIZE PUSH1 0x0 DUP1 RETURNDATACOPY RETURNDATASIZE PUSH1 0x0 REVERT JUMPDEST POP PUSH32 0xA28482EEC3136A2461C6C30C08F71BA279C6C51A2D9C7BEA4E50D6D2632F3896 PUSH1 0x2 SELFBALANCE PUSH2 0xD78 SWAP2 SWAP1 PUSH2 0x14FC JUMP JUMPDEST PUSH1 0x40 MLOAD PUSH2 0xD85 SWAP2 SWAP1 PUSH2 0x139D JUMP JUMPDEST PUSH1 0x40 MLOAD DUP1 SWAP2 SUB SWAP1 LOG1 JUMP JUMPDEST PUSH1 0x0 CALLER SWAP1 POP SWAP1 JUMP JUMPDEST PUSH1 0x0 DUP1 PUSH1 0x0 SWAP1 SLOAD SWAP1 PUSH2 0x100 EXP SWAP1 DIV PUSH20 0xFFFFFFFFFFFFFFFFFFFFFFFFFFFFFFFFFFFFFFFF AND SWAP1 POP DUP2 PUSH1 0x0 DUP1 PUSH2 0x100 EXP DUP2 SLOAD DUP2 PUSH20 0xFFFFFFFFFFFFFFFFFFFFFFFFFFFFFFFFFFFFFFFF MUL NOT AND SWAP1 DUP4 PUSH20 0xFFFFFFFFFFFFFFFFFFFFFFFFFFFFFFFFFFFFFFFF AND MUL OR SWAP1 SSTORE POP DUP2 PUSH20 0xFFFFFFFFFFFFFFFFFFFFFFFFFFFFFFFFFFFFFFFF AND DUP2 PUSH20 0xFFFFFFFFFFFFFFFFFFFFFFFFFFFFFFFFFFFFFFFF AND PUSH32 0x8BE0079C531659141344CD1FD0A4F28419497F9722A3DAAFE3B4186F6B6457E0 PUSH1 0x40 MLOAD PUSH1 0x40 MLOAD DUP1 SWAP2 SUB SWAP1 LOG3 POP POP JUMP JUMPDEST DUP3 DUP1 SLOAD PUSH2 0xE67 SWAP1 PUSH2 0x1618 JUMP JUMPDEST SWAP1 PUSH1 0x0 MSTORE PUSH1 0x20 PUSH1 0x0 KECCAK256 SWAP1 PUSH1 0x1F ADD PUSH1 0x20 SWAP1 DIV DUP2 ADD SWAP3 DUP3 PUSH2 0xE89 JUMPI PUSH1 0x0 DUP6 SSTORE PUSH2 0xED0 JUMP JUMPDEST DUP3 PUSH1 0x1F LT PUSH2 0xEA2 JUMPI DUP1 MLOAD PUSH1 0xFF NOT AND DUP4 DUP1 ADD OR DUP6 SSTORE PUSH2 0xED0 JUMP JUMPDEST DUP3 DUP1 ADD PUSH1 0x1 ADD DUP6 SSTORE DUP3 ISZERO PUSH2 0xED0 JUMPI SWAP2 DUP3 ADD JUMPDEST DUP3 DUP2 GT ISZERO PUSH2 0xECF JUMPI DUP3 MLOAD DUP3 SSTORE SWAP2 PUSH1 0x20 ADD SWAP2 SWAP1 PUSH1 0x1 ADD SWAP1 PUSH2 0xEB4 JUMP JUMPDEST JUMPDEST POP SWAP1 POP PUSH2 0xEDD SWAP2 SWAP1 PUSH2 0xEE1 JUMP JUMPDEST POP SWAP1 JUMP JUMPDEST JUMPDEST DUP1 DUP3 GT ISZERO PUSH2 0xEFA JUMPI PUSH1 0x0 DUP2 PUSH1 0x0 SWAP1 SSTORE POP PUSH1 0x1 ADD PUSH2 0xEE2 JUMP JUMPDEST POP SWAP1 JUMP JUMPDEST PUSH1 0x0 PUSH2 0xF11 PUSH2 0xF0C DUP5 PUSH2 0x1459 JUMP JUMPDEST PUSH2 0x1434 JUMP JUMPDEST SWAP1 POP DUP3 DUP2 MSTORE PUSH1 0x20 DUP2 ADD DUP5 DUP5 DUP5 ADD GT ISZERO PUSH2 0xF2D JUMPI PUSH2 0xF2C PUSH2 0x17EF JUMP JUMPDEST JUMPDEST PUSH2 0xF38 DUP5 DUP3 DUP6 PUSH2 0x15D6 JUMP JUMPDEST POP SWAP4 SWAP3 POP POP POP JUMP JUMPDEST PUSH1 0x0 DUP2 CALLDATALOAD SWAP1 POP PUSH2 0xF4F DUP2 PUSH2 0x1928 JUMP JUMPDEST SWAP3 SWAP2 POP POP JUMP JUMPDEST PUSH1 0x0 DUP3 PUSH1 0x1F DUP4 ADD SLT PUSH2 0xF6A JUMPI PUSH2 0xF69 PUSH2 0x17EA JUMP JUMPDEST JUMPDEST DUP2 CALLDATALOAD PUSH2 0xF7A DUP5 DUP3 PUSH1 0x20 DUP7 ADD PUSH2 0xEFE JUMP JUMPDEST SWAP2 POP POP SWAP3 SWAP2 POP POP JUMP JUMPDEST PUSH1 0x0 DUP2 CALLDATALOAD SWAP1 POP PUSH2 0xF92 DUP2 PUSH2 0x193F JUMP JUMPDEST SWAP3 SWAP2 POP POP JUMP JUMPDEST PUSH1 0x0 PUSH1 0x20 DUP3 DUP5 SUB SLT ISZERO PUSH2 0xFAE JUMPI PUSH2 0xFAD PUSH2 0x17F9 JUMP JUMPDEST JUMPDEST PUSH1 0x0 PUSH2 0xFBC DUP5 DUP3 DUP6 ADD PUSH2 0xF40 JUMP JUMPDEST SWAP2 POP POP SWAP3 SWAP2 POP POP JUMP JUMPDEST PUSH1 0x0 DUP1 PUSH1 0x0 PUSH1 0x60 DUP5 DUP7 SUB SLT ISZERO PUSH2 0xFDE JUMPI PUSH2 0xFDD PUSH2 0x17F9 JUMP JUMPDEST JUMPDEST PUSH1 0x0 DUP5 ADD CALLDATALOAD PUSH8 0xFFFFFFFFFFFFFFFF DUP2 GT ISZERO PUSH2 0xFFC JUMPI PUSH2 0xFFB PUSH2 0x17F4 JUMP JUMPDEST JUMPDEST PUSH2 0x1008 DUP7 DUP3 DUP8 ADD PUSH2 0xF55 JUMP JUMPDEST SWAP4 POP POP PUSH1 0x20 DUP5 ADD CALLDATALOAD PUSH8 0xFFFFFFFFFFFFFFFF DUP2 GT ISZERO PUSH2 0x1029 JUMPI PUSH2 0x1028 PUSH2 0x17F4 JUMP JUMPDEST JUMPDEST PUSH2 0x1035 DUP7 DUP3 DUP8 ADD PUSH2 0xF55 JUMP JUMPDEST SWAP3 POP POP PUSH1 0x40 DUP5 ADD CALLDATALOAD PUSH8 0xFFFFFFFFFFFFFFFF DUP2 GT ISZERO PUSH2 0x1056 JUMPI PUSH2 0x1055 PUSH2 0x17F4 JUMP JUMPDEST JUMPDEST PUSH2 0x1062 DUP7 DUP3 DUP8 ADD PUSH2 0xF55 JUMP JUMPDEST SWAP2 POP POP SWAP3 POP SWAP3 POP SWAP3 JUMP JUMPDEST PUSH1 0x0 PUSH1 0x20 DUP3 DUP5 SUB SLT ISZERO PUSH2 0x1082 JUMPI PUSH2 0x1081 PUSH2 0x17F9 JUMP JUMPDEST JUMPDEST PUSH1 0x0 PUSH2 0x1090 DUP5 DUP3 DUP6 ADD PUSH2 0xF83 JUMP JUMPDEST SWAP2 POP POP SWAP3 SWAP2 POP POP JUMP JUMPDEST PUSH1 0x0 DUP1 PUSH1 0x0 PUSH1 0x60 DUP5 DUP7 SUB SLT ISZERO PUSH2 0x10B2 JUMPI PUSH2 0x10B1 PUSH2 0x17F9 JUMP JUMPDEST JUMPDEST PUSH1 0x0 PUSH2 0x10C0 DUP7 DUP3 DUP8 ADD PUSH2 0xF83 JUMP JUMPDEST SWAP4 POP POP PUSH1 0x20 DUP5 ADD CALLDATALOAD PUSH8 0xFFFFFFFFFFFFFFFF DUP2 GT ISZERO PUSH2 0x10E1 JUMPI PUSH2 0x10E0 PUSH2 0x17F4 JUMP JUMPDEST JUMPDEST PUSH2 0x10ED DUP7 DUP3 DUP8 ADD PUSH2 0xF55 JUMP JUMPDEST SWAP3 POP POP PUSH1 0x40 DUP5 ADD CALLDATALOAD PUSH8 0xFFFFFFFFFFFFFFFF DUP2 GT ISZERO PUSH2 0x110E JUMPI PUSH2 0x110D PUSH2 0x17F4 JUMP JUMPDEST JUMPDEST PUSH2 0x111A DUP7 DUP3 DUP8 ADD PUSH2 0xF55 JUMP JUMPDEST SWAP2 POP POP SWAP3 POP SWAP3 POP SWAP3 JUMP JUMPDEST PUSH2 0x112D DUP2 PUSH2 0x158A JUMP JUMPDEST DUP3 MSTORE POP POP JUMP JUMPDEST PUSH1 0x0 PUSH2 0x113E DUP3 PUSH2 0x148A JUMP JUMPDEST PUSH2 0x1148 DUP2 DUP6 PUSH2 0x1495 JUMP JUMPDEST SWAP4 POP PUSH2 0x1158 DUP2 DUP6 PUSH1 0x20 DUP7 ADD PUSH2 0x15E5 JUMP JUMPDEST PUSH2 0x1161 DUP2 PUSH2 0x17FE JUMP JUMPDEST DUP5 ADD SWAP2 POP POP SWAP3 SWAP2 POP POP JUMP JUMPDEST PUSH1 0x0 PUSH2 0x1179 PUSH1 0x28 DUP4 PUSH2 0x1495 JUMP JUMPDEST SWAP2 POP PUSH2 0x1184 DUP3 PUSH2 0x180F JUMP JUMPDEST PUSH1 0x40 DUP3 ADD SWAP1 POP SWAP2 SWAP1 POP JUMP JUMPDEST PUSH1 0x0 PUSH2 0x119C PUSH1 0x26 DUP4 PUSH2 0x1495 JUMP JUMPDEST SWAP2 POP PUSH2 0x11A7 DUP3 PUSH2 0x185E JUMP JUMPDEST PUSH1 0x40 DUP3 ADD SWAP1 POP SWAP2 SWAP1 POP JUMP JUMPDEST PUSH1 0x0 PUSH2 0x11BF PUSH1 0xC DUP4 PUSH2 0x1495 JUMP JUMPDEST SWAP2 POP PUSH2 0x11CA DUP3 PUSH2 0x18AD JUMP JUMPDEST PUSH1 0x20 DUP3 ADD SWAP1 POP SWAP2 SWAP1 POP JUMP JUMPDEST PUSH1 0x0 PUSH2 0x11E2 PUSH1 0x20 DUP4 PUSH2 0x1495 JUMP JUMPDEST SWAP2 POP PUSH2 0x11ED DUP3 PUSH2 0x18D6 JUMP JUMPDEST PUSH1 0x20 DUP3 ADD SWAP1 POP SWAP2 SWAP1 POP JUMP JUMPDEST PUSH1 0x0 PUSH2 0x1205 PUSH1 0x15 DUP4 PUSH2 0x1495 JUMP JUMPDEST SWAP2 POP PUSH2 0x1210 DUP3 PUSH2 0x18FF JUMP JUMPDEST PUSH1 0x20 DUP3 ADD SWAP1 POP SWAP2 SWAP1 POP JUMP JUMPDEST PUSH2 0x1224 DUP2 PUSH2 0x15BC JUMP JUMPDEST DUP3 MSTORE POP POP JUMP JUMPDEST PUSH2 0x123B PUSH2 0x1236 DUP3 PUSH2 0x15BC JUMP JUMPDEST PUSH2 0x16C4 JUMP JUMPDEST DUP3 MSTORE POP POP JUMP JUMPDEST PUSH2 0x124A DUP2 PUSH2 0x15C6 JUMP JUMPDEST DUP3 MSTORE POP POP JUMP JUMPDEST PUSH1 0x0 PUSH2 0x125C DUP3 DUP7 PUSH2 0x122A JUMP JUMPDEST PUSH1 0x20 DUP3 ADD SWAP2 POP PUSH2 0x126C DUP3 DUP6 PUSH2 0x122A JUMP JUMPDEST PUSH1 0x20 DUP3 ADD SWAP2 POP PUSH2 0x127C DUP3 DUP5 PUSH2 0x122A JUMP JUMPDEST PUSH1 0x20 DUP3 ADD SWAP2 POP DUP2 SWAP1 POP SWAP5 SWAP4 POP POP POP POP JUMP JUMPDEST PUSH1 0x0 PUSH1 0x20 DUP3 ADD SWAP1 POP PUSH2 0x12A2 PUSH1 0x0 DUP4 ADD DUP5 PUSH2 0x1124 JUMP JUMPDEST SWAP3 SWAP2 POP POP JUMP JUMPDEST PUSH1 0x0 PUSH2 0x100 DUP3 ADD SWAP1 POP PUSH2 0x12BE PUSH1 0x0 DUP4 ADD DUP12 PUSH2 0x1124 JUMP JUMPDEST DUP2 DUP2 SUB PUSH1 0x20 DUP4 ADD MSTORE PUSH2 0x12D0 DUP2 DUP11 PUSH2 0x1133 JUMP JUMPDEST SWAP1 POP DUP2 DUP2 SUB PUSH1 0x40 DUP4 ADD MSTORE PUSH2 0x12E4 DUP2 DUP10 PUSH2 0x1133 JUMP JUMPDEST SWAP1 POP DUP2 DUP2 SUB PUSH1 0x60 DUP4 ADD MSTORE PUSH2 0x12F8 DUP2 DUP9 PUSH2 0x1133 JUMP JUMPDEST SWAP1 POP PUSH2 0x1307 PUSH1 0x80 DUP4 ADD DUP8 PUSH2 0x121B JUMP JUMPDEST PUSH2 0x1314 PUSH1 0xA0 DUP4 ADD DUP7 PUSH2 0x121B JUMP JUMPDEST PUSH2 0x1321 PUSH1 0xC0 DUP4 ADD DUP6 PUSH2 0x121B JUMP JUMPDEST PUSH2 0x132E PUSH1 0xE0 DUP4 ADD DUP5 PUSH2 0x1241 JUMP JUMPDEST SWAP10 SWAP9 POP POP POP POP POP POP POP POP POP JUMP JUMPDEST PUSH1 0x0 PUSH1 0x20 DUP3 ADD SWAP1 POP DUP2 DUP2 SUB PUSH1 0x0 DUP4 ADD MSTORE PUSH2 0x1355 DUP2 DUP5 PUSH2 0x1133 JUMP JUMPDEST SWAP1 POP SWAP3 SWAP2 POP POP JUMP JUMPDEST PUSH1 0x0 PUSH1 0x20 DUP3 ADD SWAP1 POP DUP2 DUP2 SUB PUSH1 0x0 DUP4 ADD MSTORE PUSH2 0x1376 DUP2 PUSH2 0x116C JUMP JUMPDEST SWAP1 POP SWAP2 SWAP1 POP JUMP JUMPDEST PUSH1 0x0 PUSH1 0x20 DUP3 ADD SWAP1 POP DUP2 DUP2 SUB PUSH1 0x0 DUP4 ADD MSTORE PUSH2 0x1396 DUP2 PUSH2 0x118F JUMP JUMPDEST SWAP1 POP SWAP2 SWAP1 POP JUMP JUMPDEST PUSH1 0x0 PUSH1 0x40 DUP3 ADD SWAP1 POP DUP2 DUP2 SUB PUSH1 0x0 DUP4 ADD MSTORE PUSH2 0x13B6 DUP2 PUSH2 0x11B2 JUMP JUMPDEST SWAP1 POP PUSH2 0x13C5 PUSH1 0x20 DUP4 ADD DUP5 PUSH2 0x121B JUMP JUMPDEST SWAP3 SWAP2 POP POP JUMP JUMPDEST PUSH1 0x0 PUSH1 0x20 DUP3 ADD SWAP1 POP DUP2 DUP2 SUB PUSH1 0x0 DUP4 ADD MSTORE PUSH2 0x13E4 DUP2 PUSH2 0x11D5 JUMP JUMPDEST SWAP1 POP SWAP2 SWAP1 POP JUMP JUMPDEST PUSH1 0x0 PUSH1 0x40 DUP3 ADD SWAP1 POP DUP2 DUP2 SUB PUSH1 0x0 DUP4 ADD MSTORE PUSH2 0x1404 DUP2 PUSH2 0x11F8 JUMP JUMPDEST SWAP1 POP PUSH2 0x1413 PUSH1 0x20 DUP4 ADD DUP5 PUSH2 0x121B JUMP JUMPDEST SWAP3 SWAP2 POP POP JUMP JUMPDEST PUSH1 0x0 PUSH1 0x20 DUP3 ADD SWAP1 POP PUSH2 0x142E PUSH1 0x0 DUP4 ADD DUP5 PUSH2 0x121B JUMP JUMPDEST SWAP3 SWAP2 POP POP JUMP JUMPDEST PUSH1 0x0 PUSH2 0x143E PUSH2 0x144F JUMP JUMPDEST SWAP1 POP PUSH2 0x144A DUP3 DUP3 PUSH2 0x164A JUMP JUMPDEST SWAP2 SWAP1 POP JUMP JUMPDEST PUSH1 0x0 PUSH1 0x40 MLOAD SWAP1 POP SWAP1 JUMP JUMPDEST PUSH1 0x0 PUSH8 0xFFFFFFFFFFFFFFFF DUP3 GT ISZERO PUSH2 0x1474 JUMPI PUSH2 0x1473 PUSH2 0x17BB JUMP JUMPDEST JUMPDEST PUSH2 0x147D DUP3 PUSH2 0x17FE JUMP JUMPDEST SWAP1 POP PUSH1 0x20 DUP2 ADD SWAP1 POP SWAP2 SWAP1 POP JUMP JUMPDEST PUSH1 0x0 DUP2 MLOAD SWAP1 POP SWAP2 SWAP1 POP JUMP JUMPDEST PUSH1 0x0 DUP3 DUP3 MSTORE PUSH1 0x20 DUP3 ADD SWAP1 POP SWAP3 SWAP2 POP POP JUMP JUMPDEST PUSH1 0x0 PUSH2 0x14B1 DUP3 PUSH2 0x15BC JUMP JUMPDEST SWAP2 POP PUSH2 0x14BC DUP4 PUSH2 0x15BC JUMP JUMPDEST SWAP3 POP DUP3 PUSH32 0xFFFFFFFFFFFFFFFFFFFFFFFFFFFFFFFFFFFFFFFFFFFFFFFFFFFFFFFFFFFFFFFF SUB DUP3 GT ISZERO PUSH2 0x14F1 JUMPI PUSH2 0x14F0 PUSH2 0x16FF JUMP JUMPDEST JUMPDEST DUP3 DUP3 ADD SWAP1 POP SWAP3 SWAP2 POP POP JUMP JUMPDEST PUSH1 0x0 PUSH2 0x1507 DUP3 PUSH2 0x15BC JUMP JUMPDEST SWAP2 POP PUSH2 0x1512 DUP4 PUSH2 0x15BC JUMP JUMPDEST SWAP3 POP DUP2 PUSH32 0xFFFFFFFFFFFFFFFFFFFFFFFFFFFFFFFFFFFFFFFFFFFFFFFFFFFFFFFFFFFFFFFF DIV DUP4 GT DUP3 ISZERO ISZERO AND ISZERO PUSH2 0x154B JUMPI PUSH2 0x154A PUSH2 0x16FF JUMP JUMPDEST JUMPDEST DUP3 DUP3 MUL SWAP1 POP SWAP3 SWAP2 POP POP JUMP JUMPDEST PUSH1 0x0 PUSH2 0x1561 DUP3 PUSH2 0x15BC JUMP JUMPDEST SWAP2 POP PUSH2 0x156C DUP4 PUSH2 0x15BC JUMP JUMPDEST SWAP3 POP DUP3 DUP3 LT ISZERO PUSH2 0x157F JUMPI PUSH2 0x157E PUSH2 0x16FF JUMP JUMPDEST JUMPDEST DUP3 DUP3 SUB SWAP1 POP SWAP3 SWAP2 POP POP JUMP JUMPDEST PUSH1 0x0 PUSH2 0x1595 DUP3 PUSH2 0x159C JUMP JUMPDEST SWAP1 POP SWAP2 SWAP1 POP JUMP JUMPDEST PUSH1 0x0 PUSH20 0xFFFFFFFFFFFFFFFFFFFFFFFFFFFFFFFFFFFFFFFF DUP3 AND SWAP1 POP SWAP2 SWAP1 POP JUMP JUMPDEST PUSH1 0x0 DUP2 SWAP1 POP SWAP2 SWAP1 POP JUMP JUMPDEST PUSH1 0x0 PUSH4 0xFFFFFFFF DUP3 AND SWAP1 POP SWAP2 SWAP1 POP JUMP JUMPDEST DUP3 DUP2 DUP4 CALLDATACOPY PUSH1 0x0 DUP4 DUP4 ADD MSTORE POP POP POP JUMP JUMPDEST PUSH1 0x0 JUMPDEST DUP4 DUP2 LT ISZERO PUSH2 0x1603 JUMPI DUP1 DUP3 ADD MLOAD DUP2 DUP5 ADD MSTORE PUSH1 0x20 DUP2 ADD SWAP1 POP PUSH2 0x15E8 JUMP JUMPDEST DUP4 DUP2 GT ISZERO PUSH2 0x1612 JUMPI PUSH1 0x0 DUP5 DUP5 ADD MSTORE JUMPDEST POP POP POP POP JUMP JUMPDEST PUSH1 0x0 PUSH1 0x2 DUP3 DIV SWAP1 POP PUSH1 0x1 DUP3 AND DUP1 PUSH2 0x1630 JUMPI PUSH1 0x7F DUP3 AND SWAP2 POP JUMPDEST PUSH1 0x20 DUP3 LT DUP2 EQ ISZERO PUSH2 0x1644 JUMPI PUSH2 0x1643 PUSH2 0x175D JUMP JUMPDEST JUMPDEST POP SWAP2 SWAP1 POP JUMP JUMPDEST PUSH2 0x1653 DUP3 PUSH2 0x17FE JUMP JUMPDEST DUP2 ADD DUP2 DUP2 LT PUSH8 0xFFFFFFFFFFFFFFFF DUP3 GT OR ISZERO PUSH2 0x1672 JUMPI PUSH2 0x1671 PUSH2 0x17BB JUMP JUMPDEST JUMPDEST DUP1 PUSH1 0x40 MSTORE POP POP POP JUMP JUMPDEST PUSH1 0x0 PUSH2 0x1686 DUP3 PUSH2 0x15BC JUMP JUMPDEST SWAP2 POP PUSH32 0xFFFFFFFFFFFFFFFFFFFFFFFFFFFFFFFFFFFFFFFFFFFFFFFFFFFFFFFFFFFFFFFF DUP3 EQ ISZERO PUSH2 0x16B9 JUMPI PUSH2 0x16B8 PUSH2 0x16FF JUMP JUMPDEST JUMPDEST PUSH1 0x1 DUP3 ADD SWAP1 POP SWAP2 SWAP1 POP JUMP JUMPDEST PUSH1 0x0 DUP2 SWAP1 POP SWAP2 SWAP1 POP JUMP JUMPDEST PUSH1 0x0 PUSH2 0x16D9 DUP3 PUSH2 0x15BC JUMP JUMPDEST SWAP2 POP PUSH2 0x16E4 DUP4 PUSH2 0x15BC JUMP JUMPDEST SWAP3 POP DUP3 PUSH2 0x16F4 JUMPI PUSH2 0x16F3 PUSH2 0x172E JUMP JUMPDEST JUMPDEST DUP3 DUP3 MOD SWAP1 POP SWAP3 SWAP2 POP POP JUMP JUMPDEST PUSH32 0x4E487B7100000000000000000000000000000000000000000000000000000000 PUSH1 0x0 MSTORE PUSH1 0x11 PUSH1 0x4 MSTORE PUSH1 0x24 PUSH1 0x0 REVERT JUMPDEST PUSH32 0x4E487B7100000000000000000000000000000000000000000000000000000000 PUSH1 0x0 MSTORE PUSH1 0x12 PUSH1 0x4 MSTORE PUSH1 0x24 PUSH1 0x0 REVERT JUMPDEST PUSH32 0x4E487B7100000000000000000000000000000000000000000000000000000000 PUSH1 0x0 MSTORE PUSH1 0x22 PUSH1 0x4 MSTORE PUSH1 0x24 PUSH1 0x0 REVERT JUMPDEST PUSH32 0x4E487B7100000000000000000000000000000000000000000000000000000000 PUSH1 0x0 MSTORE PUSH1 0x32 PUSH1 0x4 MSTORE PUSH1 0x24 PUSH1 0x0 REVERT JUMPDEST PUSH32 0x4E487B7100000000000000000000000000000000000000000000000000000000 PUSH1 0x0 MSTORE PUSH1 0x41 PUSH1 0x4 MSTORE PUSH1 0x24 PUSH1 0x0 REVERT JUMPDEST PUSH1 0x0 DUP1 REVERT JUMPDEST PUSH1 0x0 DUP1 REVERT JUMPDEST PUSH1 0x0 DUP1 REVERT JUMPDEST PUSH1 0x0 DUP1 REVERT JUMPDEST PUSH1 0x0 PUSH1 0x1F NOT PUSH1 0x1F DUP4 ADD AND SWAP1 POP SWAP2 SWAP1 POP JUMP JUMPDEST PUSH32 0x536F6C6F2073652070756564652074656E657220756E20636F63686520706F72 PUSH1 0x0 DUP3 ADD MSTORE PUSH32 0x20706572736F6E61000000000000000000000000000000000000000000000000 PUSH1 0x20 DUP3 ADD MSTORE POP JUMP JUMPDEST PUSH32 0x4F776E61626C653A206E6577206F776E657220697320746865207A65726F2061 PUSH1 0x0 DUP3 ADD MSTORE PUSH32 0x6464726573730000000000000000000000000000000000000000000000000000 PUSH1 0x20 DUP3 ADD MSTORE POP JUMP JUMPDEST PUSH32 0x4861732067616E61646F3A200000000000000000000000000000000000000000 PUSH1 0x0 DUP3 ADD MSTORE POP JUMP JUMPDEST PUSH32 0x4F776E61626C653A2063616C6C6572206973206E6F7420746865206F776E6572 PUSH1 0x0 DUP3 ADD MSTORE POP JUMP JUMPDEST PUSH32 0x456C20636F6368652067616E61646F722065733A200000000000000000000000 PUSH1 0x0 DUP3 ADD MSTORE POP JUMP JUMPDEST PUSH2 0x1931 DUP2 PUSH2 0x158A JUMP JUMPDEST DUP2 EQ PUSH2 0x193C JUMPI PUSH1 0x0 DUP1 REVERT JUMPDEST POP JUMP JUMPDEST PUSH2 0x1948 DUP2 PUSH2 0x15BC JUMP JUMPDEST DUP2 EQ PUSH2 0x1953 JUMPI PUSH1 0x0 DUP1 REVERT JUMPDEST POP JUMP INVALID LOG2 PUSH5 0x6970667358 0x22 SLT KECCAK256 0xCC DUP5 KECCAK256 0xE0 SELFDESTRUCT SWAP2 MSTORE8 PUSH30 0x67E5A1A22B3F244A9B496E31AECACF8F775F5D7C33E3376764736F6C6343 STOP ADDMOD SMOD STOP CALLER "
				},
				"gasEstimates": {
					"creation": {
						"codeDepositCost": "1308000",
						"executionCost": "infinite",
						"totalCost": "infinite"
					},
					"external": {
						"Apostar(uint256)": "infinite",
						"anadirCoche(string,string,string)": "infinite",
						"cambiarCoche(uint256,string,string)": "infinite",
						"cocheDePropietario(uint256)": "2839",
						"listaCoches(uint256)": "infinite",
						"numeroAleatorio()": "infinite",
						"numeroCochesPersona(address)": "2815",
						"owner()": "2544",
						"renounceOwnership()": "30463",
						"transferOwnership(address)": "30811"
					}
				},
				"methodIdentifiers": {
					"Apostar(uint256)": "6b6f0494",
					"anadirCoche(string,string,string)": "2458c544",
					"cambiarCoche(uint256,string,string)": "6ba2cdf4",
					"cocheDePropietario(uint256)": "858b0554",
					"listaCoches(uint256)": "d735573d",
					"numeroAleatorio()": "f1413763",
					"numeroCochesPersona(address)": "1c6743e4",
					"owner()": "8da5cb5b",
					"renounceOwnership()": "715018a6",
					"transferOwnership(address)": "f2fde38b"
				}
			},
			"storageLayout": {
				"storage": [
					{
						"astId": 60,
						"contract": "contracts/CarreraCoches/level.sol:LevelCoches",
						"label": "_owner",
						"offset": 0,
						"slot": "0",
						"type": "t_address"
					},
					{
						"astId": 182,
						"contract": "contracts/CarreraCoches/level.sol:LevelCoches",
						"label": "randNonce",
						"offset": 0,
						"slot": "1",
						"type": "t_uint256"
					},
					{
						"astId": 185,
						"contract": "contracts/CarreraCoches/level.sol:LevelCoches",
						"label": "contador",
						"offset": 0,
						"slot": "2",
						"type": "t_uint256"
					},
					{
						"astId": 188,
						"contract": "contracts/CarreraCoches/level.sol:LevelCoches",
						"label": "cooldown",
						"offset": 0,
						"slot": "3",
						"type": "t_uint256"
					},
					{
						"astId": 192,
						"contract": "contracts/CarreraCoches/level.sol:LevelCoches",
						"label": "listaCoches",
						"offset": 0,
						"slot": "4",
						"type": "t_array(t_struct(Coche)179_storage)dyn_storage"
					},
					{
						"astId": 218,
						"contract": "contracts/CarreraCoches/level.sol:LevelCoches",
						"label": "cocheDePropietario",
						"offset": 0,
						"slot": "5",
						"type": "t_mapping(t_uint256,t_address)"
					},
					{
						"astId": 222,
						"contract": "contracts/CarreraCoches/level.sol:LevelCoches",
						"label": "numeroCochesPersona",
						"offset": 0,
						"slot": "6",
						"type": "t_mapping(t_address,t_uint256)"
					}
				],
				"types": {
					"t_address": {
						"encoding": "inplace",
						"label": "address",
						"numberOfBytes": "20"
					},
					"t_array(t_struct(Coche)179_storage)dyn_storage": {
						"base": "t_struct(Coche)179_storage",
						"encoding": "dynamic_array",
						"label": "struct CarreraCoches.Coche[]",
						"numberOfBytes": "32"
					},
					"t_mapping(t_address,t_uint256)": {
						"encoding": "mapping",
						"key": "t_address",
						"label": "mapping(address => uint256)",
						"numberOfBytes": "32",
						"value": "t_uint256"
					},
					"t_mapping(t_uint256,t_address)": {
						"encoding": "mapping",
						"key": "t_uint256",
						"label": "mapping(uint256 => address)",
						"numberOfBytes": "32",
						"value": "t_address"
					},
					"t_string_storage": {
						"encoding": "bytes",
						"label": "string",
						"numberOfBytes": "32"
					},
					"t_struct(Coche)179_storage": {
						"encoding": "inplace",
						"label": "struct CarreraCoches.Coche",
						"members": [
							{
								"astId": 164,
								"contract": "contracts/CarreraCoches/level.sol:LevelCoches",
								"label": "idPiloto",
								"offset": 0,
								"slot": "0",
								"type": "t_address"
							},
							{
								"astId": 166,
								"contract": "contracts/CarreraCoches/level.sol:LevelCoches",
								"label": "modelo",
								"offset": 0,
								"slot": "1",
								"type": "t_string_storage"
							},
							{
								"astId": 168,
								"contract": "contracts/CarreraCoches/level.sol:LevelCoches",
								"label": "marca",
								"offset": 0,
								"slot": "2",
								"type": "t_string_storage"
							},
							{
								"astId": 170,
								"contract": "contracts/CarreraCoches/level.sol:LevelCoches",
								"label": "nombrePiloto",
								"offset": 0,
								"slot": "3",
								"type": "t_string_storage"
							},
							{
								"astId": 172,
								"contract": "contracts/CarreraCoches/level.sol:LevelCoches",
								"label": "carrerasGanadas",
								"offset": 0,
								"slot": "4",
								"type": "t_uint256"
							},
							{
								"astId": 174,
								"contract": "contracts/CarreraCoches/level.sol:LevelCoches",
								"label": "carrerasTotales",
								"offset": 0,
								"slot": "5",
								"type": "t_uint256"
							},
							{
								"astId": 176,
								"contract": "contracts/CarreraCoches/level.sol:LevelCoches",
								"label": "tiempoEspera",
								"offset": 0,
								"slot": "6",
								"type": "t_uint256"
							},
							{
								"astId": 178,
								"contract": "contracts/CarreraCoches/level.sol:LevelCoches",
								"label": "nivel",
								"offset": 0,
								"slot": "7",
								"type": "t_uint32"
							}
						],
						"numberOfBytes": "256"
					},
					"t_uint256": {
						"encoding": "inplace",
						"label": "uint256",
						"numberOfBytes": "32"
					},
					"t_uint32": {
						"encoding": "inplace",
						"label": "uint32",
						"numberOfBytes": "4"
					}
				}
			},
			"userdoc": {
				"kind": "user",
				"methods": {},
				"version": 1
			}
		}
	}
}