{
	"contracts/CarreraCoches/main.sol": {
		"CarreraCoches": {
			"abi": [
				{
					"anonymous": false,
					"inputs": [
						{
							"indexed": true,
							"internalType": "address",
							"name": "previousOwner",
							"type": "address"
						},
						{
							"indexed": true,
							"internalType": "address",
							"name": "newOwner",
							"type": "address"
						}
					],
					"name": "OwnershipTransferred",
					"type": "event"
				},
				{
					"anonymous": false,
					"inputs": [
						{
							"indexed": false,
							"internalType": "string",
							"name": "ms",
							"type": "string"
						},
						{
							"indexed": false,
							"internalType": "uint256",
							"name": "res",
							"type": "uint256"
						}
					],
					"name": "mostrarResultado",
					"type": "event"
				},
				{
					"inputs": [
						{
							"internalType": "string",
							"name": "_modelo",
							"type": "string"
						},
						{
							"internalType": "string",
							"name": "_marca",
							"type": "string"
						},
						{
							"internalType": "string",
							"name": "_nombrePiloto",
							"type": "string"
						}
					],
					"name": "anadirCoche",
					"outputs": [
						{
							"internalType": "uint256",
							"name": "",
							"type": "uint256"
						}
					],
					"stateMutability": "nonpayable",
					"type": "function"
				},
				{
					"inputs": [
						{
							"internalType": "uint256",
							"name": "dineroApostar",
							"type": "uint256"
						}
					],
					"name": "carrera",
					"outputs": [
						{
							"internalType": "string",
							"name": "",
							"type": "string"
						}
					],
					"stateMutability": "payable",
					"type": "function"
				},
				{
					"inputs": [
						{
							"internalType": "uint256",
							"name": "",
							"type": "uint256"
						}
					],
					"name": "listaCoches",
					"outputs": [
						{
							"internalType": "address",
							"name": "idPiloto",
							"type": "address"
						},
						{
							"internalType": "string",
							"name": "modelo",
							"type": "string"
						},
						{
							"internalType": "string",
							"name": "marca",
							"type": "string"
						},
						{
							"internalType": "string",
							"name": "nombrePiloto",
							"type": "string"
						},
						{
							"internalType": "uint256",
							"name": "carrerasGanadas",
							"type": "uint256"
						},
						{
							"internalType": "uint256",
							"name": "carrerasTotales",
							"type": "uint256"
						},
						{
							"internalType": "uint256",
							"name": "tiempoEspera",
							"type": "uint256"
						}
					],
					"stateMutability": "view",
					"type": "function"
				},
				{
					"inputs": [],
					"name": "numeroAleatorio",
					"outputs": [
						{
							"internalType": "uint256",
							"name": "",
							"type": "uint256"
						}
					],
					"stateMutability": "nonpayable",
					"type": "function"
				},
				{
					"inputs": [
						{
							"internalType": "address",
							"name": "",
							"type": "address"
						}
					],
					"name": "numeroCochesPersona",
					"outputs": [
						{
							"internalType": "uint256",
							"name": "",
							"type": "uint256"
						}
					],
					"stateMutability": "view",
					"type": "function"
				},
				{
					"inputs": [],
					"name": "owner",
					"outputs": [
						{
							"internalType": "address",
							"name": "",
							"type": "address"
						}
					],
					"stateMutability": "view",
					"type": "function"
				},
				{
					"inputs": [],
					"name": "renounceOwnership",
					"outputs": [],
					"stateMutability": "nonpayable",
					"type": "function"
				},
				{
					"inputs": [
						{
							"internalType": "address",
							"name": "newOwner",
							"type": "address"
						}
					],
					"name": "transferOwnership",
					"outputs": [],
					"stateMutability": "nonpayable",
					"type": "function"
				}
			],
			"devdoc": {
				"kind": "dev",
				"methods": {
					"owner()": {
						"details": "Returns the address of the current owner."
					},
					"renounceOwnership()": {
						"details": "Leaves the contract without owner. It will not be possible to call `onlyOwner` functions anymore. Can only be called by the current owner. NOTE: Renouncing ownership will leave the contract without an owner, thereby removing any functionality that is only available to the owner."
					},
					"transferOwnership(address)": {
						"details": "Transfers ownership of the contract to a new account (`newOwner`). Can only be called by the current owner."
					}
				},
				"version": 1
			},
			"evm": {
				"assembly": "    /* \"contracts/CarreraCoches/main.sol\":54:3962  contract CarreraCoches is Ownable {\r... */\n  mstore(0x40, 0x80)\n    /* \"contracts/CarreraCoches/main.sol\":347:348  0 */\n  0x00\n    /* \"contracts/CarreraCoches/main.sol\":330:348  uint randNonce = 0 */\n  0x01\n  sstore\n    /* \"contracts/CarreraCoches/main.sol\":471:472  0 */\n  0x00\n    /* \"contracts/CarreraCoches/main.sol\":455:472  uint contador = 0 */\n  0x02\n  sstore\n    /* \"contracts/CarreraCoches/main.sol\":495:505  60 seconds */\n  0x3c\n    /* \"contracts/CarreraCoches/main.sol\":479:505  uint cooldown = 60 seconds */\n  0x03\n  sstore\n    /* \"contracts/CarreraCoches/main.sol\":54:3962  contract CarreraCoches is Ownable {\r... */\n  callvalue\n  dup1\n  iszero\n  tag_1\n  jumpi\n  0x00\n  dup1\n  revert\ntag_1:\n  pop\n    /* \"contracts/CarreraCoches/ownable.sol\":948:980  _transferOwnership(_msgSender()) */\n  tag_4\n    /* \"contracts/CarreraCoches/ownable.sol\":967:979  _msgSender() */\n  tag_5\n    /* \"contracts/CarreraCoches/ownable.sol\":967:977  _msgSender */\n  shl(0x20, tag_6)\n    /* \"contracts/CarreraCoches/ownable.sol\":967:979  _msgSender() */\n  0x20\n  shr\n  jump\t// in\ntag_5:\n    /* \"contracts/CarreraCoches/ownable.sol\":948:966  _transferOwnership */\n  shl(0x20, tag_7)\n    /* \"contracts/CarreraCoches/ownable.sol\":948:980  _transferOwnership(_msgSender()) */\n  0x20\n  shr\n  jump\t// in\ntag_4:\n    /* \"contracts/CarreraCoches/main.sol\":54:3962  contract CarreraCoches is Ownable {\r... */\n  jump(tag_8)\n    /* \"contracts/CarreraCoches/utils/Context.sol\":656:754  function _msgSender() internal view virtual returns (address) {\r... */\ntag_6:\n    /* \"contracts/CarreraCoches/utils/Context.sol\":709:716  address */\n  0x00\n    /* \"contracts/CarreraCoches/utils/Context.sol\":736:746  msg.sender */\n  caller\n    /* \"contracts/CarreraCoches/utils/Context.sol\":729:746  return msg.sender */\n  swap1\n  pop\n    /* \"contracts/CarreraCoches/utils/Context.sol\":656:754  function _msgSender() internal view virtual returns (address) {\r... */\n  swap1\n  jump\t// out\n    /* \"contracts/CarreraCoches/ownable.sol\":2339:2530  function _transferOwnership(address newOwner) internal virtual {\r... */\ntag_7:\n    /* \"contracts/CarreraCoches/ownable.sol\":2413:2429  address oldOwner */\n  0x00\n    /* \"contracts/CarreraCoches/ownable.sol\":2432:2438  _owner */\n  dup1\n  0x00\n  swap1\n  sload\n  swap1\n  0x0100\n  exp\n  swap1\n  div\n  0xffffffffffffffffffffffffffffffffffffffff\n  and\n    /* \"contracts/CarreraCoches/ownable.sol\":2413:2438  address oldOwner = _owner */\n  swap1\n  pop\n    /* \"contracts/CarreraCoches/ownable.sol\":2458:2466  newOwner */\n  dup2\n    /* \"contracts/CarreraCoches/ownable.sol\":2449:2455  _owner */\n  0x00\n  dup1\n    /* \"contracts/CarreraCoches/ownable.sol\":2449:2466  _owner = newOwner */\n  0x0100\n  exp\n  dup2\n  sload\n  dup2\n  0xffffffffffffffffffffffffffffffffffffffff\n  mul\n  not\n  and\n  swap1\n  dup4\n  0xffffffffffffffffffffffffffffffffffffffff\n  and\n  mul\n  or\n  swap1\n  sstore\n  pop\n    /* \"contracts/CarreraCoches/ownable.sol\":2513:2521  newOwner */\n  dup2\n    /* \"contracts/CarreraCoches/ownable.sol\":2482:2522  OwnershipTransferred(oldOwner, newOwner) */\n  0xffffffffffffffffffffffffffffffffffffffff\n  and\n    /* \"contracts/CarreraCoches/ownable.sol\":2503:2511  oldOwner */\n  dup2\n    /* \"contracts/CarreraCoches/ownable.sol\":2482:2522  OwnershipTransferred(oldOwner, newOwner) */\n  0xffffffffffffffffffffffffffffffffffffffff\n  and\n  0x8be0079c531659141344cd1fd0a4f28419497f9722a3daafe3b4186f6b6457e0\n  mload(0x40)\n  mload(0x40)\n  dup1\n  swap2\n  sub\n  swap1\n  log3\n    /* \"contracts/CarreraCoches/ownable.sol\":2402:2530  {\r... */\n  pop\n    /* \"contracts/CarreraCoches/ownable.sol\":2339:2530  function _transferOwnership(address newOwner) internal virtual {\r... */\n  pop\n  jump\t// out\n    /* \"contracts/CarreraCoches/main.sol\":54:3962  contract CarreraCoches is Ownable {\r... */\ntag_8:\n  dataSize(sub_0)\n  dup1\n  dataOffset(sub_0)\n  0x00\n  codecopy\n  0x00\n  return\nstop\n\nsub_0: assembly {\n        /* \"contracts/CarreraCoches/main.sol\":54:3962  contract CarreraCoches is Ownable {\r... */\n      mstore(0x40, 0x80)\n      jumpi(tag_1, lt(calldatasize, 0x04))\n      shr(0xe0, calldataload(0x00))\n      dup1\n      0x8da5cb5b\n      gt\n      tag_10\n      jumpi\n      dup1\n      0x8da5cb5b\n      eq\n      tag_6\n      jumpi\n      dup1\n      0xd735573d\n      eq\n      tag_7\n      jumpi\n      dup1\n      0xf1413763\n      eq\n      tag_8\n      jumpi\n      dup1\n      0xf2fde38b\n      eq\n      tag_9\n      jumpi\n      jump(tag_1)\n    tag_10:\n      dup1\n      0x12a1c2ca\n      eq\n      tag_2\n      jumpi\n      dup1\n      0x1c6743e4\n      eq\n      tag_3\n      jumpi\n      dup1\n      0x2458c544\n      eq\n      tag_4\n      jumpi\n      dup1\n      0x715018a6\n      eq\n      tag_5\n      jumpi\n    tag_1:\n      0x00\n      dup1\n      revert\n        /* \"contracts/CarreraCoches/main.sol\":1807:2848  function carrera(uint dineroApostar) payable public returns(string memory) {\r... */\n    tag_2:\n      tag_11\n      0x04\n      dup1\n      calldatasize\n      sub\n      dup2\n      add\n      swap1\n      tag_12\n      swap2\n      swap1\n      tag_13\n      jump\t// in\n    tag_12:\n      tag_14\n      jump\t// in\n    tag_11:\n      mload(0x40)\n      tag_15\n      swap2\n      swap1\n      tag_16\n      jump\t// in\n    tag_15:\n      mload(0x40)\n      dup1\n      swap2\n      sub\n      swap1\n      return\n        /* \"contracts/CarreraCoches/main.sol\":601:653  mapping (address => uint) public numeroCochesPersona */\n    tag_3:\n      callvalue\n      dup1\n      iszero\n      tag_17\n      jumpi\n      0x00\n      dup1\n      revert\n    tag_17:\n      pop\n      tag_18\n      0x04\n      dup1\n      calldatasize\n      sub\n      dup2\n      add\n      swap1\n      tag_19\n      swap2\n      swap1\n      tag_20\n      jump\t// in\n    tag_19:\n      tag_21\n      jump\t// in\n    tag_18:\n      mload(0x40)\n      tag_22\n      swap2\n      swap1\n      tag_23\n      jump\t// in\n    tag_22:\n      mload(0x40)\n      dup1\n      swap2\n      sub\n      swap1\n      return\n        /* \"contracts/CarreraCoches/main.sol\":896:1248  function anadirCoche(string memory _modelo, string memory _marca, string memory _nombrePiloto) public restriccion returns (uint) {\r... */\n    tag_4:\n      callvalue\n      dup1\n      iszero\n      tag_24\n      jumpi\n      0x00\n      dup1\n      revert\n    tag_24:\n      pop\n      tag_25\n      0x04\n      dup1\n      calldatasize\n      sub\n      dup2\n      add\n      swap1\n      tag_26\n      swap2\n      swap1\n      tag_27\n      jump\t// in\n    tag_26:\n      tag_28\n      jump\t// in\n    tag_25:\n      mload(0x40)\n      tag_29\n      swap2\n      swap1\n      tag_23\n      jump\t// in\n    tag_29:\n      mload(0x40)\n      dup1\n      swap2\n      sub\n      swap1\n      return\n        /* \"contracts/CarreraCoches/ownable.sol\":1720:1823  function renounceOwnership() public virtual onlyOwner {\r... */\n    tag_5:\n      callvalue\n      dup1\n      iszero\n      tag_30\n      jumpi\n      0x00\n      dup1\n      revert\n    tag_30:\n      pop\n      tag_31\n      tag_32\n      jump\t// in\n    tag_31:\n      stop\n        /* \"contracts/CarreraCoches/ownable.sol\":1069:1156  function owner() public view virtual returns (address) {\r... */\n    tag_6:\n      callvalue\n      dup1\n      iszero\n      tag_33\n      jumpi\n      0x00\n      dup1\n      revert\n    tag_33:\n      pop\n      tag_34\n      tag_35\n      jump\t// in\n    tag_34:\n      mload(0x40)\n      tag_36\n      swap2\n      swap1\n      tag_37\n      jump\t// in\n    tag_36:\n      mload(0x40)\n      dup1\n      swap2\n      sub\n      swap1\n      return\n        /* \"contracts/CarreraCoches/main.sol\":514:540  Coche[] public listaCoches */\n    tag_7:\n      callvalue\n      dup1\n      iszero\n      tag_38\n      jumpi\n      0x00\n      dup1\n      revert\n    tag_38:\n      pop\n      tag_39\n      0x04\n      dup1\n      calldatasize\n      sub\n      dup2\n      add\n      swap1\n      tag_40\n      swap2\n      swap1\n      tag_13\n      jump\t// in\n    tag_40:\n      tag_41\n      jump\t// in\n    tag_39:\n      mload(0x40)\n      tag_42\n      swap8\n      swap7\n      swap6\n      swap5\n      swap4\n      swap3\n      swap2\n      swap1\n      tag_43\n      jump\t// in\n    tag_42:\n      mload(0x40)\n      dup1\n      swap2\n      sub\n      swap1\n      return\n        /* \"contracts/CarreraCoches/main.sol\":1578:1797  function numeroAleatorio() public returns (uint256) {\r... */\n    tag_8:\n      callvalue\n      dup1\n      iszero\n      tag_44\n      jumpi\n      0x00\n      dup1\n      revert\n    tag_44:\n      pop\n      tag_45\n      tag_46\n      jump\t// in\n    tag_45:\n      mload(0x40)\n      tag_47\n      swap2\n      swap1\n      tag_23\n      jump\t// in\n    tag_47:\n      mload(0x40)\n      dup1\n      swap2\n      sub\n      swap1\n      return\n        /* \"contracts/CarreraCoches/ownable.sol\":1978:2179  function transferOwnership(address newOwner) public virtual onlyOwner {\r... */\n    tag_9:\n      callvalue\n      dup1\n      iszero\n      tag_48\n      jumpi\n      0x00\n      dup1\n      revert\n    tag_48:\n      pop\n      tag_49\n      0x04\n      dup1\n      calldatasize\n      sub\n      dup2\n      add\n      swap1\n      tag_50\n      swap2\n      swap1\n      tag_20\n      jump\t// in\n    tag_50:\n      tag_51\n      jump\t// in\n    tag_49:\n      stop\n        /* \"contracts/CarreraCoches/main.sol\":1807:2848  function carrera(uint dineroApostar) payable public returns(string memory) {\r... */\n    tag_14:\n        /* \"contracts/CarreraCoches/main.sol\":1867:1880  string memory */\n      0x60\n        /* \"contracts/CarreraCoches/main.sol\":1914:1927  dineroApostar */\n      dup2\n        /* \"contracts/CarreraCoches/main.sol\":1901:1910  msg.value */\n      callvalue\n        /* \"contracts/CarreraCoches/main.sol\":1901:1927  msg.value == dineroApostar */\n      eq\n        /* \"contracts/CarreraCoches/main.sol\":1893:1928  require(msg.value == dineroApostar) */\n      tag_53\n      jumpi\n      0x00\n      dup1\n      revert\n    tag_53:\n        /* \"contracts/CarreraCoches/main.sol\":1949:1958  randNonce */\n      0x01\n      0x00\n        /* \"contracts/CarreraCoches/main.sol\":1949:1960  randNonce++ */\n      dup2\n      sload\n      dup1\n      swap3\n      swap2\n      swap1\n      tag_54\n      swap1\n      tag_55\n      jump\t// in\n    tag_54:\n      swap2\n      swap1\n      pop\n      sstore\n      pop\n        /* \"contracts/CarreraCoches/main.sol\":2007:2020  uint256 rival */\n      0x00\n        /* \"contracts/CarreraCoches/main.sol\":2110:2121  listaCoches */\n      0x04\n        /* \"contracts/CarreraCoches/main.sol\":2110:2128  listaCoches.length */\n      dup1\n      sload\n      swap1\n      pop\n        /* \"contracts/CarreraCoches/main.sol\":2058:2073  block.timestamp */\n      timestamp\n        /* \"contracts/CarreraCoches/main.sol\":2075:2086  listaCoches */\n      0x04\n        /* \"contracts/CarreraCoches/main.sol\":2075:2093  listaCoches.length */\n      dup1\n      sload\n      swap1\n      pop\n        /* \"contracts/CarreraCoches/main.sol\":2095:2104  randNonce */\n      sload(0x01)\n        /* \"contracts/CarreraCoches/main.sol\":2041:2105  abi.encodePacked(block.timestamp, listaCoches.length, randNonce) */\n      add(0x20, mload(0x40))\n      tag_56\n      swap4\n      swap3\n      swap2\n      swap1\n      tag_57\n      jump\t// in\n    tag_56:\n      mload(0x40)\n      0x20\n      dup2\n      dup4\n      sub\n      sub\n      dup2\n      mstore\n      swap1\n      0x40\n      mstore\n        /* \"contracts/CarreraCoches/main.sol\":2031:2106  keccak256(abi.encodePacked(block.timestamp, listaCoches.length, randNonce)) */\n      dup1\n      mload\n      swap1\n      0x20\n      add\n      keccak256\n        /* \"contracts/CarreraCoches/main.sol\":2023:2107  uint256(keccak256(abi.encodePacked(block.timestamp, listaCoches.length, randNonce))) */\n      0x00\n      shr\n        /* \"contracts/CarreraCoches/main.sol\":2023:2128  uint256(keccak256(abi.encodePacked(block.timestamp, listaCoches.length, randNonce))) % listaCoches.length */\n      tag_58\n      swap2\n      swap1\n      tag_59\n      jump\t// in\n    tag_58:\n        /* \"contracts/CarreraCoches/main.sol\":2007:2128  uint256 rival = uint256(keccak256(abi.encodePacked(block.timestamp, listaCoches.length, randNonce))) % listaCoches.length */\n      swap1\n      pop\n        /* \"contracts/CarreraCoches/main.sol\":2171:2182  uint numero */\n      0x00\n        /* \"contracts/CarreraCoches/main.sol\":2185:2186  2 */\n      0x02\n        /* \"contracts/CarreraCoches/main.sol\":2171:2186  uint numero = 2 */\n      swap1\n      pop\n        /* \"contracts/CarreraCoches/main.sol\":2197:2212  uint256 ganador */\n      0x00\n        /* \"contracts/CarreraCoches/main.sol\":2290:2296  numero */\n      dup2\n        /* \"contracts/CarreraCoches/main.sol\":2250:2265  block.timestamp */\n      timestamp\n        /* \"contracts/CarreraCoches/main.sol\":2267:2273  numero */\n      dup4\n        /* \"contracts/CarreraCoches/main.sol\":2275:2284  randNonce */\n      sload(0x01)\n        /* \"contracts/CarreraCoches/main.sol\":2233:2285  abi.encodePacked(block.timestamp, numero, randNonce) */\n      add(0x20, mload(0x40))\n      tag_60\n      swap4\n      swap3\n      swap2\n      swap1\n      tag_57\n      jump\t// in\n    tag_60:\n      mload(0x40)\n      0x20\n      dup2\n      dup4\n      sub\n      sub\n      dup2\n      mstore\n      swap1\n      0x40\n      mstore\n        /* \"contracts/CarreraCoches/main.sol\":2223:2286  keccak256(abi.encodePacked(block.timestamp, numero, randNonce)) */\n      dup1\n      mload\n      swap1\n      0x20\n      add\n      keccak256\n        /* \"contracts/CarreraCoches/main.sol\":2215:2287  uint256(keccak256(abi.encodePacked(block.timestamp, numero, randNonce))) */\n      0x00\n      shr\n        /* \"contracts/CarreraCoches/main.sol\":2215:2296  uint256(keccak256(abi.encodePacked(block.timestamp, numero, randNonce))) % numero */\n      tag_61\n      swap2\n      swap1\n      tag_59\n      jump\t// in\n    tag_61:\n        /* \"contracts/CarreraCoches/main.sol\":2197:2296  uint256 ganador = uint256(keccak256(abi.encodePacked(block.timestamp, numero, randNonce))) % numero */\n      swap1\n      pop\n        /* \"contracts/CarreraCoches/main.sol\":2313:2319  uint i */\n      0x00\n        /* \"contracts/CarreraCoches/main.sol\":2309:2831  for(uint i = 0; i < listaCoches.length; i++){\r... */\n    tag_62:\n        /* \"contracts/CarreraCoches/main.sol\":2329:2340  listaCoches */\n      0x04\n        /* \"contracts/CarreraCoches/main.sol\":2329:2347  listaCoches.length */\n      dup1\n      sload\n      swap1\n      pop\n        /* \"contracts/CarreraCoches/main.sol\":2325:2326  i */\n      dup2\n        /* \"contracts/CarreraCoches/main.sol\":2325:2347  i < listaCoches.length */\n      lt\n        /* \"contracts/CarreraCoches/main.sol\":2309:2831  for(uint i = 0; i < listaCoches.length; i++){\r... */\n      iszero\n      tag_63\n      jumpi\n        /* \"contracts/CarreraCoches/main.sol\":2376:2406  _depositoLleno(listaCoches[i]) */\n      tag_65\n        /* \"contracts/CarreraCoches/main.sol\":2391:2402  listaCoches */\n      0x04\n        /* \"contracts/CarreraCoches/main.sol\":2403:2404  i */\n      dup3\n        /* \"contracts/CarreraCoches/main.sol\":2391:2405  listaCoches[i] */\n      dup2\n      sload\n      dup2\n      lt\n      tag_66\n      jumpi\n      tag_67\n      tag_68\n      jump\t// in\n    tag_67:\n    tag_66:\n      swap1\n      0x00\n      mstore\n      keccak256(0x00, 0x20)\n      swap1\n      0x07\n      mul\n      add\n        /* \"contracts/CarreraCoches/main.sol\":2376:2390  _depositoLleno */\n      tag_70\n        /* \"contracts/CarreraCoches/main.sol\":2376:2406  _depositoLleno(listaCoches[i]) */\n      jump\t// in\n    tag_65:\n        /* \"contracts/CarreraCoches/main.sol\":2368:2407  require(_depositoLleno(listaCoches[i])) */\n      tag_71\n      jumpi\n      0x00\n      dup1\n      revert\n    tag_71:\n        /* \"contracts/CarreraCoches/main.sol\":2440:2451  listaCoches */\n      0x04\n        /* \"contracts/CarreraCoches/main.sol\":2452:2453  i */\n      dup2\n        /* \"contracts/CarreraCoches/main.sol\":2440:2454  listaCoches[i] */\n      dup2\n      sload\n      dup2\n      lt\n      tag_72\n      jumpi\n      tag_73\n      tag_68\n      jump\t// in\n    tag_73:\n    tag_72:\n      swap1\n      0x00\n      mstore\n      keccak256(0x00, 0x20)\n      swap1\n      0x07\n      mul\n      add\n        /* \"contracts/CarreraCoches/main.sol\":2440:2463  listaCoches[i].idPiloto */\n      0x00\n      add\n      0x00\n      swap1\n      sload\n      swap1\n      0x0100\n      exp\n      swap1\n      div\n      0xffffffffffffffffffffffffffffffffffffffff\n      and\n        /* \"contracts/CarreraCoches/main.sol\":2426:2463  msg.sender == listaCoches[i].idPiloto */\n      0xffffffffffffffffffffffffffffffffffffffff\n      and\n        /* \"contracts/CarreraCoches/main.sol\":2426:2436  msg.sender */\n      caller\n        /* \"contracts/CarreraCoches/main.sol\":2426:2463  msg.sender == listaCoches[i].idPiloto */\n      0xffffffffffffffffffffffffffffffffffffffff\n      and\n      eq\n        /* \"contracts/CarreraCoches/main.sol\":2422:2820  if (msg.sender == listaCoches[i].idPiloto) {\r... */\n      iszero\n      tag_75\n      jumpi\n        /* \"contracts/CarreraCoches/main.sol\":2498:2499  0 */\n      0x00\n        /* \"contracts/CarreraCoches/main.sol\":2487:2494  ganador */\n      dup3\n        /* \"contracts/CarreraCoches/main.sol\":2487:2499  ganador == 0 */\n      eq\n        /* \"contracts/CarreraCoches/main.sol\":2484:2716  if(ganador == 0){\r... */\n      iszero\n      tag_76\n      jumpi\n        /* \"contracts/CarreraCoches/main.sol\":2523:2532  balance() */\n      tag_77\n        /* \"contracts/CarreraCoches/main.sol\":2523:2530  balance */\n      tag_78\n        /* \"contracts/CarreraCoches/main.sol\":2523:2532  balance() */\n      jump\t// in\n    tag_77:\n        /* \"contracts/CarreraCoches/main.sol\":2555:2574  return \"Has ganado\" */\n      mload(0x40)\n      dup1\n      0x40\n      add\n      0x40\n      mstore\n      dup1\n      0x0a\n      dup2\n      mstore\n      0x20\n      add\n      0x4861732067616e61646f00000000000000000000000000000000000000000000\n      dup2\n      mstore\n      pop\n      swap5\n      pop\n      pop\n      pop\n      pop\n      pop\n      jump(tag_52)\n        /* \"contracts/CarreraCoches/main.sol\":2484:2716  if(ganador == 0){\r... */\n    tag_76:\n        /* \"contracts/CarreraCoches/main.sol\":2676:2696  return \"Has perdido\" */\n      mload(0x40)\n      dup1\n      0x40\n      add\n      0x40\n      mstore\n      dup1\n      0x0b\n      dup2\n      mstore\n      0x20\n      add\n      0x486173207065726469646f000000000000000000000000000000000000000000\n      dup2\n      mstore\n      pop\n      swap5\n      pop\n      pop\n      pop\n      pop\n      pop\n      jump(tag_52)\n        /* \"contracts/CarreraCoches/main.sol\":2422:2820  if (msg.sender == listaCoches[i].idPiloto) {\r... */\n    tag_75:\n        /* \"contracts/CarreraCoches/main.sol\":2349:2352  i++ */\n      dup1\n      dup1\n      tag_93\n      swap1\n      tag_55\n      jump\t// in\n    tag_93:\n      swap2\n      pop\n      pop\n        /* \"contracts/CarreraCoches/main.sol\":2309:2831  for(uint i = 0; i < listaCoches.length; i++){\r... */\n      jump(tag_62)\n    tag_63:\n      pop\n        /* \"contracts/CarreraCoches/main.sol\":1882:2848  {\r... */\n      pop\n      pop\n      pop\n        /* \"contracts/CarreraCoches/main.sol\":1807:2848  function carrera(uint dineroApostar) payable public returns(string memory) {\r... */\n    tag_52:\n      swap2\n      swap1\n      pop\n      jump\t// out\n        /* \"contracts/CarreraCoches/main.sol\":601:653  mapping (address => uint) public numeroCochesPersona */\n    tag_21:\n      mstore(0x20, 0x05)\n      dup1\n      0x00\n      mstore\n      keccak256(0x00, 0x40)\n      0x00\n      swap2\n      pop\n      swap1\n      pop\n      sload\n      dup2\n      jump\t// out\n        /* \"contracts/CarreraCoches/main.sol\":896:1248  function anadirCoche(string memory _modelo, string memory _marca, string memory _nombrePiloto) public restriccion returns (uint) {\r... */\n    tag_28:\n        /* \"contracts/CarreraCoches/main.sol\":1019:1023  uint */\n      0x00\n        /* \"contracts/CarreraCoches/main.sol\":785:786  1 */\n      0x01\n        /* \"contracts/CarreraCoches/main.sol\":751:770  numeroCochesPersona */\n      0x05\n        /* \"contracts/CarreraCoches/main.sol\":751:782  numeroCochesPersona[msg.sender] */\n      0x00\n        /* \"contracts/CarreraCoches/main.sol\":771:781  msg.sender */\n      caller\n        /* \"contracts/CarreraCoches/main.sol\":751:782  numeroCochesPersona[msg.sender] */\n      0xffffffffffffffffffffffffffffffffffffffff\n      and\n      0xffffffffffffffffffffffffffffffffffffffff\n      and\n      dup2\n      mstore\n      0x20\n      add\n      swap1\n      dup2\n      mstore\n      0x20\n      add\n      0x00\n      keccak256\n      sload\n        /* \"contracts/CarreraCoches/main.sol\":751:786  numeroCochesPersona[msg.sender] < 1 */\n      lt\n        /* \"contracts/CarreraCoches/main.sol\":743:831  require(numeroCochesPersona[msg.sender] < 1, \"Solo se puede tener un coche por persona\") */\n      tag_95\n      jumpi\n      mload(0x40)\n      0x08c379a000000000000000000000000000000000000000000000000000000000\n      dup2\n      mstore\n      0x04\n      add\n      tag_96\n      swap1\n      tag_97\n      jump\t// in\n    tag_96:\n      mload(0x40)\n      dup1\n      swap2\n      sub\n      swap1\n      revert\n    tag_95:\n        /* \"contracts/CarreraCoches/main.sol\":1036:1047  listaCoches */\n      0x04\n        /* \"contracts/CarreraCoches/main.sol\":1053:1144  Coche(msg.sender, _modelo, _marca, _nombrePiloto, 0, 0, uint32(block.timestamp + cooldown)) */\n      mload(0x40)\n      dup1\n      0xe0\n      add\n      0x40\n      mstore\n      dup1\n        /* \"contracts/CarreraCoches/main.sol\":1059:1069  msg.sender */\n      caller\n        /* \"contracts/CarreraCoches/main.sol\":1053:1144  Coche(msg.sender, _modelo, _marca, _nombrePiloto, 0, 0, uint32(block.timestamp + cooldown)) */\n      0xffffffffffffffffffffffffffffffffffffffff\n      and\n      dup2\n      mstore\n      0x20\n      add\n        /* \"contracts/CarreraCoches/main.sol\":1071:1078  _modelo */\n      dup7\n        /* \"contracts/CarreraCoches/main.sol\":1053:1144  Coche(msg.sender, _modelo, _marca, _nombrePiloto, 0, 0, uint32(block.timestamp + cooldown)) */\n      dup2\n      mstore\n      0x20\n      add\n        /* \"contracts/CarreraCoches/main.sol\":1080:1086  _marca */\n      dup6\n        /* \"contracts/CarreraCoches/main.sol\":1053:1144  Coche(msg.sender, _modelo, _marca, _nombrePiloto, 0, 0, uint32(block.timestamp + cooldown)) */\n      dup2\n      mstore\n      0x20\n      add\n        /* \"contracts/CarreraCoches/main.sol\":1088:1101  _nombrePiloto */\n      dup5\n        /* \"contracts/CarreraCoches/main.sol\":1053:1144  Coche(msg.sender, _modelo, _marca, _nombrePiloto, 0, 0, uint32(block.timestamp + cooldown)) */\n      dup2\n      mstore\n      0x20\n      add\n        /* \"contracts/CarreraCoches/main.sol\":1103:1104  0 */\n      0x00\n        /* \"contracts/CarreraCoches/main.sol\":1053:1144  Coche(msg.sender, _modelo, _marca, _nombrePiloto, 0, 0, uint32(block.timestamp + cooldown)) */\n      dup2\n      mstore\n      0x20\n      add\n        /* \"contracts/CarreraCoches/main.sol\":1106:1107  0 */\n      0x00\n        /* \"contracts/CarreraCoches/main.sol\":1053:1144  Coche(msg.sender, _modelo, _marca, _nombrePiloto, 0, 0, uint32(block.timestamp + cooldown)) */\n      dup2\n      mstore\n      0x20\n      add\n        /* \"contracts/CarreraCoches/main.sol\":1134:1142  cooldown */\n      sload(0x03)\n        /* \"contracts/CarreraCoches/main.sol\":1116:1131  block.timestamp */\n      timestamp\n        /* \"contracts/CarreraCoches/main.sol\":1116:1142  block.timestamp + cooldown */\n      tag_99\n      swap2\n      swap1\n      tag_100\n      jump\t// in\n    tag_99:\n        /* \"contracts/CarreraCoches/main.sol\":1053:1144  Coche(msg.sender, _modelo, _marca, _nombrePiloto, 0, 0, uint32(block.timestamp + cooldown)) */\n      0xffffffff\n      and\n      dup2\n      mstore\n      pop\n        /* \"contracts/CarreraCoches/main.sol\":1036:1145  listaCoches.push(Coche(msg.sender, _modelo, _marca, _nombrePiloto, 0, 0, uint32(block.timestamp + cooldown))) */\n      swap1\n      dup1\n      0x01\n      dup2\n      sload\n      add\n      dup1\n      dup3\n      sstore\n      dup1\n      swap2\n      pop\n      pop\n      0x01\n      swap1\n      sub\n      swap1\n      0x00\n      mstore\n      keccak256(0x00, 0x20)\n      swap1\n      0x07\n      mul\n      add\n      0x00\n      swap1\n      swap2\n      swap1\n      swap2\n      swap1\n      swap2\n      pop\n      0x00\n      dup3\n      add\n      mload\n      dup2\n      0x00\n      add\n      exp(0x0100, 0x00)\n      dup2\n      sload\n      dup2\n      0xffffffffffffffffffffffffffffffffffffffff\n      mul\n      not\n      and\n      swap1\n      dup4\n      0xffffffffffffffffffffffffffffffffffffffff\n      and\n      mul\n      or\n      swap1\n      sstore\n      pop\n      0x20\n      dup3\n      add\n      mload\n      dup2\n      0x01\n      add\n      swap1\n      dup1\n      mload\n      swap1\n      0x20\n      add\n      swap1\n      tag_102\n      swap3\n      swap2\n      swap1\n      tag_103\n      jump\t// in\n    tag_102:\n      pop\n      0x40\n      dup3\n      add\n      mload\n      dup2\n      0x02\n      add\n      swap1\n      dup1\n      mload\n      swap1\n      0x20\n      add\n      swap1\n      tag_104\n      swap3\n      swap2\n      swap1\n      tag_103\n      jump\t// in\n    tag_104:\n      pop\n      0x60\n      dup3\n      add\n      mload\n      dup2\n      0x03\n      add\n      swap1\n      dup1\n      mload\n      swap1\n      0x20\n      add\n      swap1\n      tag_105\n      swap3\n      swap2\n      swap1\n      tag_103\n      jump\t// in\n    tag_105:\n      pop\n      0x80\n      dup3\n      add\n      mload\n      dup2\n      0x04\n      add\n      sstore\n      0xa0\n      dup3\n      add\n      mload\n      dup2\n      0x05\n      add\n      sstore\n      0xc0\n      dup3\n      add\n      mload\n      dup2\n      0x06\n      add\n      sstore\n      pop\n      pop\n        /* \"contracts/CarreraCoches/main.sol\":1156:1175  numeroCochesPersona */\n      0x05\n        /* \"contracts/CarreraCoches/main.sol\":1156:1187  numeroCochesPersona[msg.sender] */\n      0x00\n        /* \"contracts/CarreraCoches/main.sol\":1176:1186  msg.sender */\n      caller\n        /* \"contracts/CarreraCoches/main.sol\":1156:1187  numeroCochesPersona[msg.sender] */\n      0xffffffffffffffffffffffffffffffffffffffff\n      and\n      0xffffffffffffffffffffffffffffffffffffffff\n      and\n      dup2\n      mstore\n      0x20\n      add\n      swap1\n      dup2\n      mstore\n      0x20\n      add\n      0x00\n      keccak256\n      0x00\n        /* \"contracts/CarreraCoches/main.sol\":1156:1189  numeroCochesPersona[msg.sender]++ */\n      dup2\n      sload\n      dup1\n      swap3\n      swap2\n      swap1\n      tag_106\n      swap1\n      tag_55\n      jump\t// in\n    tag_106:\n      swap2\n      swap1\n      pop\n      sstore\n      pop\n        /* \"contracts/CarreraCoches/main.sol\":1200:1208  contador */\n      0x02\n      0x00\n        /* \"contracts/CarreraCoches/main.sol\":1200:1210  contador++ */\n      dup2\n      sload\n      dup1\n      swap3\n      swap2\n      swap1\n      tag_107\n      swap1\n      tag_55\n      jump\t// in\n    tag_107:\n      swap2\n      swap1\n      pop\n      sstore\n      pop\n        /* \"contracts/CarreraCoches/main.sol\":1239:1240  1 */\n      0x01\n        /* \"contracts/CarreraCoches/main.sol\":1228:1236  contador */\n      sload(0x02)\n        /* \"contracts/CarreraCoches/main.sol\":1228:1240  contador - 1 */\n      tag_108\n      swap2\n      swap1\n      tag_109\n      jump\t// in\n    tag_108:\n        /* \"contracts/CarreraCoches/main.sol\":1221:1240  return contador - 1 */\n      swap1\n      pop\n        /* \"contracts/CarreraCoches/main.sol\":896:1248  function anadirCoche(string memory _modelo, string memory _marca, string memory _nombrePiloto) public restriccion returns (uint) {\r... */\n      swap4\n      swap3\n      pop\n      pop\n      pop\n      jump\t// out\n        /* \"contracts/CarreraCoches/ownable.sol\":1720:1823  function renounceOwnership() public virtual onlyOwner {\r... */\n    tag_32:\n        /* \"contracts/CarreraCoches/ownable.sol\":1300:1312  _msgSender() */\n      tag_111\n        /* \"contracts/CarreraCoches/ownable.sol\":1300:1310  _msgSender */\n      tag_112\n        /* \"contracts/CarreraCoches/ownable.sol\":1300:1312  _msgSender() */\n      jump\t// in\n    tag_111:\n        /* \"contracts/CarreraCoches/ownable.sol\":1289:1312  owner() == _msgSender() */\n      0xffffffffffffffffffffffffffffffffffffffff\n      and\n        /* \"contracts/CarreraCoches/ownable.sol\":1289:1296  owner() */\n      tag_113\n        /* \"contracts/CarreraCoches/ownable.sol\":1289:1294  owner */\n      tag_35\n        /* \"contracts/CarreraCoches/ownable.sol\":1289:1296  owner() */\n      jump\t// in\n    tag_113:\n        /* \"contracts/CarreraCoches/ownable.sol\":1289:1312  owner() == _msgSender() */\n      0xffffffffffffffffffffffffffffffffffffffff\n      and\n      eq\n        /* \"contracts/CarreraCoches/ownable.sol\":1281:1349  require(owner() == _msgSender(), \"Ownable: caller is not the owner\") */\n      tag_114\n      jumpi\n      mload(0x40)\n      0x08c379a000000000000000000000000000000000000000000000000000000000\n      dup2\n      mstore\n      0x04\n      add\n      tag_115\n      swap1\n      tag_116\n      jump\t// in\n    tag_115:\n      mload(0x40)\n      dup1\n      swap2\n      sub\n      swap1\n      revert\n    tag_114:\n        /* \"contracts/CarreraCoches/ownable.sol\":1785:1815  _transferOwnership(address(0)) */\n      tag_118\n        /* \"contracts/CarreraCoches/ownable.sol\":1812:1813  0 */\n      0x00\n        /* \"contracts/CarreraCoches/ownable.sol\":1785:1803  _transferOwnership */\n      tag_119\n        /* \"contracts/CarreraCoches/ownable.sol\":1785:1815  _transferOwnership(address(0)) */\n      jump\t// in\n    tag_118:\n        /* \"contracts/CarreraCoches/ownable.sol\":1720:1823  function renounceOwnership() public virtual onlyOwner {\r... */\n      jump\t// out\n        /* \"contracts/CarreraCoches/ownable.sol\":1069:1156  function owner() public view virtual returns (address) {\r... */\n    tag_35:\n        /* \"contracts/CarreraCoches/ownable.sol\":1115:1122  address */\n      0x00\n        /* \"contracts/CarreraCoches/ownable.sol\":1142:1148  _owner */\n      dup1\n      0x00\n      swap1\n      sload\n      swap1\n      0x0100\n      exp\n      swap1\n      div\n      0xffffffffffffffffffffffffffffffffffffffff\n      and\n        /* \"contracts/CarreraCoches/ownable.sol\":1135:1148  return _owner */\n      swap1\n      pop\n        /* \"contracts/CarreraCoches/ownable.sol\":1069:1156  function owner() public view virtual returns (address) {\r... */\n      swap1\n      jump\t// out\n        /* \"contracts/CarreraCoches/main.sol\":514:540  Coche[] public listaCoches */\n    tag_41:\n      0x04\n      dup2\n      dup2\n      sload\n      dup2\n      lt\n      tag_121\n      jumpi\n      0x00\n      dup1\n      revert\n    tag_121:\n      swap1\n      0x00\n      mstore\n      keccak256(0x00, 0x20)\n      swap1\n      0x07\n      mul\n      add\n      0x00\n      swap2\n      pop\n      swap1\n      pop\n      dup1\n      0x00\n      add\n      0x00\n      swap1\n      sload\n      swap1\n      0x0100\n      exp\n      swap1\n      div\n      0xffffffffffffffffffffffffffffffffffffffff\n      and\n      swap1\n      dup1\n      0x01\n      add\n      dup1\n      sload\n      tag_123\n      swap1\n      tag_124\n      jump\t// in\n    tag_123:\n      dup1\n      0x1f\n      add\n      0x20\n      dup1\n      swap2\n      div\n      mul\n      0x20\n      add\n      mload(0x40)\n      swap1\n      dup2\n      add\n      0x40\n      mstore\n      dup1\n      swap3\n      swap2\n      swap1\n      dup2\n      dup2\n      mstore\n      0x20\n      add\n      dup3\n      dup1\n      sload\n      tag_125\n      swap1\n      tag_124\n      jump\t// in\n    tag_125:\n      dup1\n      iszero\n      tag_126\n      jumpi\n      dup1\n      0x1f\n      lt\n      tag_127\n      jumpi\n      0x0100\n      dup1\n      dup4\n      sload\n      div\n      mul\n      dup4\n      mstore\n      swap2\n      0x20\n      add\n      swap2\n      jump(tag_126)\n    tag_127:\n      dup3\n      add\n      swap2\n      swap1\n      0x00\n      mstore\n      keccak256(0x00, 0x20)\n      swap1\n    tag_128:\n      dup2\n      sload\n      dup2\n      mstore\n      swap1\n      0x01\n      add\n      swap1\n      0x20\n      add\n      dup1\n      dup4\n      gt\n      tag_128\n      jumpi\n      dup3\n      swap1\n      sub\n      0x1f\n      and\n      dup3\n      add\n      swap2\n    tag_126:\n      pop\n      pop\n      pop\n      pop\n      pop\n      swap1\n      dup1\n      0x02\n      add\n      dup1\n      sload\n      tag_129\n      swap1\n      tag_124\n      jump\t// in\n    tag_129:\n      dup1\n      0x1f\n      add\n      0x20\n      dup1\n      swap2\n      div\n      mul\n      0x20\n      add\n      mload(0x40)\n      swap1\n      dup2\n      add\n      0x40\n      mstore\n      dup1\n      swap3\n      swap2\n      swap1\n      dup2\n      dup2\n      mstore\n      0x20\n      add\n      dup3\n      dup1\n      sload\n      tag_130\n      swap1\n      tag_124\n      jump\t// in\n    tag_130:\n      dup1\n      iszero\n      tag_131\n      jumpi\n      dup1\n      0x1f\n      lt\n      tag_132\n      jumpi\n      0x0100\n      dup1\n      dup4\n      sload\n      div\n      mul\n      dup4\n      mstore\n      swap2\n      0x20\n      add\n      swap2\n      jump(tag_131)\n    tag_132:\n      dup3\n      add\n      swap2\n      swap1\n      0x00\n      mstore\n      keccak256(0x00, 0x20)\n      swap1\n    tag_133:\n      dup2\n      sload\n      dup2\n      mstore\n      swap1\n      0x01\n      add\n      swap1\n      0x20\n      add\n      dup1\n      dup4\n      gt\n      tag_133\n      jumpi\n      dup3\n      swap1\n      sub\n      0x1f\n      and\n      dup3\n      add\n      swap2\n    tag_131:\n      pop\n      pop\n      pop\n      pop\n      pop\n      swap1\n      dup1\n      0x03\n      add\n      dup1\n      sload\n      tag_134\n      swap1\n      tag_124\n      jump\t// in\n    tag_134:\n      dup1\n      0x1f\n      add\n      0x20\n      dup1\n      swap2\n      div\n      mul\n      0x20\n      add\n      mload(0x40)\n      swap1\n      dup2\n      add\n      0x40\n      mstore\n      dup1\n      swap3\n      swap2\n      swap1\n      dup2\n      dup2\n      mstore\n      0x20\n      add\n      dup3\n      dup1\n      sload\n      tag_135\n      swap1\n      tag_124\n      jump\t// in\n    tag_135:\n      dup1\n      iszero\n      tag_136\n      jumpi\n      dup1\n      0x1f\n      lt\n      tag_137\n      jumpi\n      0x0100\n      dup1\n      dup4\n      sload\n      div\n      mul\n      dup4\n      mstore\n      swap2\n      0x20\n      add\n      swap2\n      jump(tag_136)\n    tag_137:\n      dup3\n      add\n      swap2\n      swap1\n      0x00\n      mstore\n      keccak256(0x00, 0x20)\n      swap1\n    tag_138:\n      dup2\n      sload\n      dup2\n      mstore\n      swap1\n      0x01\n      add\n      swap1\n      0x20\n      add\n      dup1\n      dup4\n      gt\n      tag_138\n      jumpi\n      dup3\n      swap1\n      sub\n      0x1f\n      and\n      dup3\n      add\n      swap2\n    tag_136:\n      pop\n      pop\n      pop\n      pop\n      pop\n      swap1\n      dup1\n      0x04\n      add\n      sload\n      swap1\n      dup1\n      0x05\n      add\n      sload\n      swap1\n      dup1\n      0x06\n      add\n      sload\n      swap1\n      pop\n      dup8\n      jump\t// out\n        /* \"contracts/CarreraCoches/main.sol\":1578:1797  function numeroAleatorio() public returns (uint256) {\r... */\n    tag_46:\n        /* \"contracts/CarreraCoches/main.sol\":1621:1628  uint256 */\n      0x00\n        /* \"contracts/CarreraCoches/main.sol\":1641:1652  uint numero */\n      dup1\n        /* \"contracts/CarreraCoches/main.sol\":1655:1656  2 */\n      0x02\n        /* \"contracts/CarreraCoches/main.sol\":1641:1656  uint numero = 2 */\n      swap1\n      pop\n        /* \"contracts/CarreraCoches/main.sol\":1667:1681  uint256 result */\n      0x00\n        /* \"contracts/CarreraCoches/main.sol\":1759:1765  numero */\n      dup2\n        /* \"contracts/CarreraCoches/main.sol\":1719:1734  block.timestamp */\n      timestamp\n        /* \"contracts/CarreraCoches/main.sol\":1736:1742  numero */\n      dup4\n        /* \"contracts/CarreraCoches/main.sol\":1744:1753  randNonce */\n      sload(0x01)\n        /* \"contracts/CarreraCoches/main.sol\":1702:1754  abi.encodePacked(block.timestamp, numero, randNonce) */\n      add(0x20, mload(0x40))\n      tag_140\n      swap4\n      swap3\n      swap2\n      swap1\n      tag_57\n      jump\t// in\n    tag_140:\n      mload(0x40)\n      0x20\n      dup2\n      dup4\n      sub\n      sub\n      dup2\n      mstore\n      swap1\n      0x40\n      mstore\n        /* \"contracts/CarreraCoches/main.sol\":1692:1755  keccak256(abi.encodePacked(block.timestamp, numero, randNonce)) */\n      dup1\n      mload\n      swap1\n      0x20\n      add\n      keccak256\n        /* \"contracts/CarreraCoches/main.sol\":1684:1756  uint256(keccak256(abi.encodePacked(block.timestamp, numero, randNonce))) */\n      0x00\n      shr\n        /* \"contracts/CarreraCoches/main.sol\":1684:1765  uint256(keccak256(abi.encodePacked(block.timestamp, numero, randNonce))) % numero */\n      tag_141\n      swap2\n      swap1\n      tag_59\n      jump\t// in\n    tag_141:\n        /* \"contracts/CarreraCoches/main.sol\":1667:1765  uint256 result = uint256(keccak256(abi.encodePacked(block.timestamp, numero, randNonce))) % numero */\n      swap1\n      pop\n        /* \"contracts/CarreraCoches/main.sol\":1783:1789  result */\n      dup1\n        /* \"contracts/CarreraCoches/main.sol\":1776:1789  return result */\n      swap3\n      pop\n      pop\n      pop\n        /* \"contracts/CarreraCoches/main.sol\":1578:1797  function numeroAleatorio() public returns (uint256) {\r... */\n      swap1\n      jump\t// out\n        /* \"contracts/CarreraCoches/ownable.sol\":1978:2179  function transferOwnership(address newOwner) public virtual onlyOwner {\r... */\n    tag_51:\n        /* \"contracts/CarreraCoches/ownable.sol\":1300:1312  _msgSender() */\n      tag_143\n        /* \"contracts/CarreraCoches/ownable.sol\":1300:1310  _msgSender */\n      tag_112\n        /* \"contracts/CarreraCoches/ownable.sol\":1300:1312  _msgSender() */\n      jump\t// in\n    tag_143:\n        /* \"contracts/CarreraCoches/ownable.sol\":1289:1312  owner() == _msgSender() */\n      0xffffffffffffffffffffffffffffffffffffffff\n      and\n        /* \"contracts/CarreraCoches/ownable.sol\":1289:1296  owner() */\n      tag_144\n        /* \"contracts/CarreraCoches/ownable.sol\":1289:1294  owner */\n      tag_35\n        /* \"contracts/CarreraCoches/ownable.sol\":1289:1296  owner() */\n      jump\t// in\n    tag_144:\n        /* \"contracts/CarreraCoches/ownable.sol\":1289:1312  owner() == _msgSender() */\n      0xffffffffffffffffffffffffffffffffffffffff\n      and\n      eq\n        /* \"contracts/CarreraCoches/ownable.sol\":1281:1349  require(owner() == _msgSender(), \"Ownable: caller is not the owner\") */\n      tag_145\n      jumpi\n      mload(0x40)\n      0x08c379a000000000000000000000000000000000000000000000000000000000\n      dup2\n      mstore\n      0x04\n      add\n      tag_146\n      swap1\n      tag_116\n      jump\t// in\n    tag_146:\n      mload(0x40)\n      dup1\n      swap2\n      sub\n      swap1\n      revert\n    tag_145:\n        /* \"contracts/CarreraCoches/ownable.sol\":2087:2088  0 */\n      0x00\n        /* \"contracts/CarreraCoches/ownable.sol\":2067:2089  newOwner != address(0) */\n      0xffffffffffffffffffffffffffffffffffffffff\n      and\n        /* \"contracts/CarreraCoches/ownable.sol\":2067:2075  newOwner */\n      dup2\n        /* \"contracts/CarreraCoches/ownable.sol\":2067:2089  newOwner != address(0) */\n      0xffffffffffffffffffffffffffffffffffffffff\n      and\n      eq\n      iszero\n        /* \"contracts/CarreraCoches/ownable.sol\":2059:2132  require(newOwner != address(0), \"Ownable: new owner is the zero address\") */\n      tag_148\n      jumpi\n      mload(0x40)\n      0x08c379a000000000000000000000000000000000000000000000000000000000\n      dup2\n      mstore\n      0x04\n      add\n      tag_149\n      swap1\n      tag_150\n      jump\t// in\n    tag_149:\n      mload(0x40)\n      dup1\n      swap2\n      sub\n      swap1\n      revert\n    tag_148:\n        /* \"contracts/CarreraCoches/ownable.sol\":2143:2171  _transferOwnership(newOwner) */\n      tag_151\n        /* \"contracts/CarreraCoches/ownable.sol\":2162:2170  newOwner */\n      dup2\n        /* \"contracts/CarreraCoches/ownable.sol\":2143:2161  _transferOwnership */\n      tag_119\n        /* \"contracts/CarreraCoches/ownable.sol\":2143:2171  _transferOwnership(newOwner) */\n      jump\t// in\n    tag_151:\n        /* \"contracts/CarreraCoches/ownable.sol\":1978:2179  function transferOwnership(address newOwner) public virtual onlyOwner {\r... */\n      pop\n      jump\t// out\n        /* \"contracts/CarreraCoches/main.sol\":1429:1568  function _depositoLleno(Coche storage _coche) internal view returns (bool) {\r... */\n    tag_70:\n        /* \"contracts/CarreraCoches/main.sol\":1498:1502  bool */\n      0x00\n        /* \"contracts/CarreraCoches/main.sol\":1545:1560  block.timestamp */\n      timestamp\n        /* \"contracts/CarreraCoches/main.sol\":1522:1528  _coche */\n      dup3\n        /* \"contracts/CarreraCoches/main.sol\":1522:1541  _coche.tiempoEspera */\n      0x06\n      add\n      sload\n        /* \"contracts/CarreraCoches/main.sol\":1522:1560  _coche.tiempoEspera <= block.timestamp */\n      gt\n      iszero\n        /* \"contracts/CarreraCoches/main.sol\":1515:1560  return _coche.tiempoEspera <= block.timestamp */\n      swap1\n      pop\n        /* \"contracts/CarreraCoches/main.sol\":1429:1568  function _depositoLleno(Coche storage _coche) internal view returns (bool) {\r... */\n      swap2\n      swap1\n      pop\n      jump\t// out\n        /* \"contracts/CarreraCoches/main.sol\":3861:3959  function balance() private {\r... */\n    tag_78:\n        /* \"contracts/CarreraCoches/main.sol\":3908:3918  msg.sender */\n      caller\n        /* \"contracts/CarreraCoches/main.sol\":3899:3928  payable (msg.sender).transfer */\n      0xffffffffffffffffffffffffffffffffffffffff\n      and\n        /* \"contracts/CarreraCoches/main.sol\":3899:3951  payable (msg.sender).transfer(address(this).balance) */\n      0x08fc\n        /* \"contracts/CarreraCoches/main.sol\":3929:3950  address(this).balance */\n      selfbalance\n        /* \"contracts/CarreraCoches/main.sol\":3899:3951  payable (msg.sender).transfer(address(this).balance) */\n      swap1\n      dup2\n      iszero\n      mul\n      swap1\n      mload(0x40)\n      0x00\n      mload(0x40)\n      dup1\n      dup4\n      sub\n      dup2\n      dup6\n      dup9\n      dup9\n      call\n      swap4\n      pop\n      pop\n      pop\n      pop\n      iszero\n      dup1\n      iszero\n      tag_155\n      jumpi\n      returndatasize\n      0x00\n      dup1\n      returndatacopy\n      revert(0x00, returndatasize)\n    tag_155:\n      pop\n        /* \"contracts/CarreraCoches/main.sol\":3861:3959  function balance() private {\r... */\n      jump\t// out\n        /* \"contracts/CarreraCoches/utils/Context.sol\":656:754  function _msgSender() internal view virtual returns (address) {\r... */\n    tag_112:\n        /* \"contracts/CarreraCoches/utils/Context.sol\":709:716  address */\n      0x00\n        /* \"contracts/CarreraCoches/utils/Context.sol\":736:746  msg.sender */\n      caller\n        /* \"contracts/CarreraCoches/utils/Context.sol\":729:746  return msg.sender */\n      swap1\n      pop\n        /* \"contracts/CarreraCoches/utils/Context.sol\":656:754  function _msgSender() internal view virtual returns (address) {\r... */\n      swap1\n      jump\t// out\n        /* \"contracts/CarreraCoches/ownable.sol\":2339:2530  function _transferOwnership(address newOwner) internal virtual {\r... */\n    tag_119:\n        /* \"contracts/CarreraCoches/ownable.sol\":2413:2429  address oldOwner */\n      0x00\n        /* \"contracts/CarreraCoches/ownable.sol\":2432:2438  _owner */\n      dup1\n      0x00\n      swap1\n      sload\n      swap1\n      0x0100\n      exp\n      swap1\n      div\n      0xffffffffffffffffffffffffffffffffffffffff\n      and\n        /* \"contracts/CarreraCoches/ownable.sol\":2413:2438  address oldOwner = _owner */\n      swap1\n      pop\n        /* \"contracts/CarreraCoches/ownable.sol\":2458:2466  newOwner */\n      dup2\n        /* \"contracts/CarreraCoches/ownable.sol\":2449:2455  _owner */\n      0x00\n      dup1\n        /* \"contracts/CarreraCoches/ownable.sol\":2449:2466  _owner = newOwner */\n      0x0100\n      exp\n      dup2\n      sload\n      dup2\n      0xffffffffffffffffffffffffffffffffffffffff\n      mul\n      not\n      and\n      swap1\n      dup4\n      0xffffffffffffffffffffffffffffffffffffffff\n      and\n      mul\n      or\n      swap1\n      sstore\n      pop\n        /* \"contracts/CarreraCoches/ownable.sol\":2513:2521  newOwner */\n      dup2\n        /* \"contracts/CarreraCoches/ownable.sol\":2482:2522  OwnershipTransferred(oldOwner, newOwner) */\n      0xffffffffffffffffffffffffffffffffffffffff\n      and\n        /* \"contracts/CarreraCoches/ownable.sol\":2503:2511  oldOwner */\n      dup2\n        /* \"contracts/CarreraCoches/ownable.sol\":2482:2522  OwnershipTransferred(oldOwner, newOwner) */\n      0xffffffffffffffffffffffffffffffffffffffff\n      and\n      0x8be0079c531659141344cd1fd0a4f28419497f9722a3daafe3b4186f6b6457e0\n      mload(0x40)\n      mload(0x40)\n      dup1\n      swap2\n      sub\n      swap1\n      log3\n        /* \"contracts/CarreraCoches/ownable.sol\":2402:2530  {\r... */\n      pop\n        /* \"contracts/CarreraCoches/ownable.sol\":2339:2530  function _transferOwnership(address newOwner) internal virtual {\r... */\n      pop\n      jump\t// out\n    tag_103:\n      dup3\n      dup1\n      sload\n      tag_160\n      swap1\n      tag_124\n      jump\t// in\n    tag_160:\n      swap1\n      0x00\n      mstore\n      keccak256(0x00, 0x20)\n      swap1\n      0x1f\n      add\n      0x20\n      swap1\n      div\n      dup2\n      add\n      swap3\n      dup3\n      tag_162\n      jumpi\n      0x00\n      dup6\n      sstore\n      jump(tag_161)\n    tag_162:\n      dup3\n      0x1f\n      lt\n      tag_163\n      jumpi\n      dup1\n      mload\n      not(0xff)\n      and\n      dup4\n      dup1\n      add\n      or\n      dup6\n      sstore\n      jump(tag_161)\n    tag_163:\n      dup3\n      dup1\n      add\n      0x01\n      add\n      dup6\n      sstore\n      dup3\n      iszero\n      tag_161\n      jumpi\n      swap2\n      dup3\n      add\n    tag_164:\n      dup3\n      dup2\n      gt\n      iszero\n      tag_165\n      jumpi\n      dup3\n      mload\n      dup3\n      sstore\n      swap2\n      0x20\n      add\n      swap2\n      swap1\n      0x01\n      add\n      swap1\n      jump(tag_164)\n    tag_165:\n    tag_161:\n      pop\n      swap1\n      pop\n      tag_166\n      swap2\n      swap1\n      tag_167\n      jump\t// in\n    tag_166:\n      pop\n      swap1\n      jump\t// out\n    tag_167:\n    tag_168:\n      dup1\n      dup3\n      gt\n      iszero\n      tag_169\n      jumpi\n      0x00\n      dup2\n      0x00\n      swap1\n      sstore\n      pop\n      0x01\n      add\n      jump(tag_168)\n    tag_169:\n      pop\n      swap1\n      jump\t// out\n        /* \"#utility.yul\":7:419   */\n    tag_171:\n        /* \"#utility.yul\":85:90   */\n      0x00\n        /* \"#utility.yul\":110:176   */\n      tag_173\n        /* \"#utility.yul\":126:175   */\n      tag_174\n        /* \"#utility.yul\":168:174   */\n      dup5\n        /* \"#utility.yul\":126:175   */\n      tag_175\n      jump\t// in\n    tag_174:\n        /* \"#utility.yul\":110:176   */\n      tag_176\n      jump\t// in\n    tag_173:\n        /* \"#utility.yul\":101:176   */\n      swap1\n      pop\n        /* \"#utility.yul\":199:205   */\n      dup3\n        /* \"#utility.yul\":192:197   */\n      dup2\n        /* \"#utility.yul\":185:206   */\n      mstore\n        /* \"#utility.yul\":237:241   */\n      0x20\n        /* \"#utility.yul\":230:235   */\n      dup2\n        /* \"#utility.yul\":226:242   */\n      add\n        /* \"#utility.yul\":275:278   */\n      dup5\n        /* \"#utility.yul\":266:272   */\n      dup5\n        /* \"#utility.yul\":261:264   */\n      dup5\n        /* \"#utility.yul\":257:273   */\n      add\n        /* \"#utility.yul\":254:279   */\n      gt\n        /* \"#utility.yul\":251:363   */\n      iszero\n      tag_177\n      jumpi\n        /* \"#utility.yul\":282:361   */\n      tag_178\n      tag_179\n      jump\t// in\n    tag_178:\n        /* \"#utility.yul\":251:363   */\n    tag_177:\n        /* \"#utility.yul\":372:413   */\n      tag_180\n        /* \"#utility.yul\":406:412   */\n      dup5\n        /* \"#utility.yul\":401:404   */\n      dup3\n        /* \"#utility.yul\":396:399   */\n      dup6\n        /* \"#utility.yul\":372:413   */\n      tag_181\n      jump\t// in\n    tag_180:\n        /* \"#utility.yul\":91:419   */\n      pop\n        /* \"#utility.yul\":7:419   */\n      swap4\n      swap3\n      pop\n      pop\n      pop\n      jump\t// out\n        /* \"#utility.yul\":425:564   */\n    tag_182:\n        /* \"#utility.yul\":471:476   */\n      0x00\n        /* \"#utility.yul\":509:515   */\n      dup2\n        /* \"#utility.yul\":496:516   */\n      calldataload\n        /* \"#utility.yul\":487:516   */\n      swap1\n      pop\n        /* \"#utility.yul\":525:558   */\n      tag_184\n        /* \"#utility.yul\":552:557   */\n      dup2\n        /* \"#utility.yul\":525:558   */\n      tag_185\n      jump\t// in\n    tag_184:\n        /* \"#utility.yul\":425:564   */\n      swap3\n      swap2\n      pop\n      pop\n      jump\t// out\n        /* \"#utility.yul\":584:924   */\n    tag_186:\n        /* \"#utility.yul\":640:645   */\n      0x00\n        /* \"#utility.yul\":689:692   */\n      dup3\n        /* \"#utility.yul\":682:686   */\n      0x1f\n        /* \"#utility.yul\":674:680   */\n      dup4\n        /* \"#utility.yul\":670:687   */\n      add\n        /* \"#utility.yul\":666:693   */\n      slt\n        /* \"#utility.yul\":656:778   */\n      tag_188\n      jumpi\n        /* \"#utility.yul\":697:776   */\n      tag_189\n      tag_190\n      jump\t// in\n    tag_189:\n        /* \"#utility.yul\":656:778   */\n    tag_188:\n        /* \"#utility.yul\":814:820   */\n      dup2\n        /* \"#utility.yul\":801:821   */\n      calldataload\n        /* \"#utility.yul\":839:918   */\n      tag_191\n        /* \"#utility.yul\":914:917   */\n      dup5\n        /* \"#utility.yul\":906:912   */\n      dup3\n        /* \"#utility.yul\":899:903   */\n      0x20\n        /* \"#utility.yul\":891:897   */\n      dup7\n        /* \"#utility.yul\":887:904   */\n      add\n        /* \"#utility.yul\":839:918   */\n      tag_171\n      jump\t// in\n    tag_191:\n        /* \"#utility.yul\":830:918   */\n      swap2\n      pop\n        /* \"#utility.yul\":646:924   */\n      pop\n        /* \"#utility.yul\":584:924   */\n      swap3\n      swap2\n      pop\n      pop\n      jump\t// out\n        /* \"#utility.yul\":930:1069   */\n    tag_192:\n        /* \"#utility.yul\":976:981   */\n      0x00\n        /* \"#utility.yul\":1014:1020   */\n      dup2\n        /* \"#utility.yul\":1001:1021   */\n      calldataload\n        /* \"#utility.yul\":992:1021   */\n      swap1\n      pop\n        /* \"#utility.yul\":1030:1063   */\n      tag_194\n        /* \"#utility.yul\":1057:1062   */\n      dup2\n        /* \"#utility.yul\":1030:1063   */\n      tag_195\n      jump\t// in\n    tag_194:\n        /* \"#utility.yul\":930:1069   */\n      swap3\n      swap2\n      pop\n      pop\n      jump\t// out\n        /* \"#utility.yul\":1075:1404   */\n    tag_20:\n        /* \"#utility.yul\":1134:1140   */\n      0x00\n        /* \"#utility.yul\":1183:1185   */\n      0x20\n        /* \"#utility.yul\":1171:1180   */\n      dup3\n        /* \"#utility.yul\":1162:1169   */\n      dup5\n        /* \"#utility.yul\":1158:1181   */\n      sub\n        /* \"#utility.yul\":1154:1186   */\n      slt\n        /* \"#utility.yul\":1151:1270   */\n      iszero\n      tag_197\n      jumpi\n        /* \"#utility.yul\":1189:1268   */\n      tag_198\n      tag_199\n      jump\t// in\n    tag_198:\n        /* \"#utility.yul\":1151:1270   */\n    tag_197:\n        /* \"#utility.yul\":1309:1310   */\n      0x00\n        /* \"#utility.yul\":1334:1387   */\n      tag_200\n        /* \"#utility.yul\":1379:1386   */\n      dup5\n        /* \"#utility.yul\":1370:1376   */\n      dup3\n        /* \"#utility.yul\":1359:1368   */\n      dup6\n        /* \"#utility.yul\":1355:1377   */\n      add\n        /* \"#utility.yul\":1334:1387   */\n      tag_182\n      jump\t// in\n    tag_200:\n        /* \"#utility.yul\":1324:1387   */\n      swap2\n      pop\n        /* \"#utility.yul\":1280:1397   */\n      pop\n        /* \"#utility.yul\":1075:1404   */\n      swap3\n      swap2\n      pop\n      pop\n      jump\t// out\n        /* \"#utility.yul\":1410:2569   */\n    tag_27:\n        /* \"#utility.yul\":1517:1523   */\n      0x00\n        /* \"#utility.yul\":1525:1531   */\n      dup1\n        /* \"#utility.yul\":1533:1539   */\n      0x00\n        /* \"#utility.yul\":1582:1584   */\n      0x60\n        /* \"#utility.yul\":1570:1579   */\n      dup5\n        /* \"#utility.yul\":1561:1568   */\n      dup7\n        /* \"#utility.yul\":1557:1580   */\n      sub\n        /* \"#utility.yul\":1553:1585   */\n      slt\n        /* \"#utility.yul\":1550:1669   */\n      iszero\n      tag_202\n      jumpi\n        /* \"#utility.yul\":1588:1667   */\n      tag_203\n      tag_199\n      jump\t// in\n    tag_203:\n        /* \"#utility.yul\":1550:1669   */\n    tag_202:\n        /* \"#utility.yul\":1736:1737   */\n      0x00\n        /* \"#utility.yul\":1725:1734   */\n      dup5\n        /* \"#utility.yul\":1721:1738   */\n      add\n        /* \"#utility.yul\":1708:1739   */\n      calldataload\n        /* \"#utility.yul\":1766:1784   */\n      0xffffffffffffffff\n        /* \"#utility.yul\":1758:1764   */\n      dup2\n        /* \"#utility.yul\":1755:1785   */\n      gt\n        /* \"#utility.yul\":1752:1869   */\n      iszero\n      tag_204\n      jumpi\n        /* \"#utility.yul\":1788:1867   */\n      tag_205\n      tag_206\n      jump\t// in\n    tag_205:\n        /* \"#utility.yul\":1752:1869   */\n    tag_204:\n        /* \"#utility.yul\":1893:1956   */\n      tag_207\n        /* \"#utility.yul\":1948:1955   */\n      dup7\n        /* \"#utility.yul\":1939:1945   */\n      dup3\n        /* \"#utility.yul\":1928:1937   */\n      dup8\n        /* \"#utility.yul\":1924:1946   */\n      add\n        /* \"#utility.yul\":1893:1956   */\n      tag_186\n      jump\t// in\n    tag_207:\n        /* \"#utility.yul\":1883:1956   */\n      swap4\n      pop\n        /* \"#utility.yul\":1679:1966   */\n      pop\n        /* \"#utility.yul\":2033:2035   */\n      0x20\n        /* \"#utility.yul\":2022:2031   */\n      dup5\n        /* \"#utility.yul\":2018:2036   */\n      add\n        /* \"#utility.yul\":2005:2037   */\n      calldataload\n        /* \"#utility.yul\":2064:2082   */\n      0xffffffffffffffff\n        /* \"#utility.yul\":2056:2062   */\n      dup2\n        /* \"#utility.yul\":2053:2083   */\n      gt\n        /* \"#utility.yul\":2050:2167   */\n      iszero\n      tag_208\n      jumpi\n        /* \"#utility.yul\":2086:2165   */\n      tag_209\n      tag_206\n      jump\t// in\n    tag_209:\n        /* \"#utility.yul\":2050:2167   */\n    tag_208:\n        /* \"#utility.yul\":2191:2254   */\n      tag_210\n        /* \"#utility.yul\":2246:2253   */\n      dup7\n        /* \"#utility.yul\":2237:2243   */\n      dup3\n        /* \"#utility.yul\":2226:2235   */\n      dup8\n        /* \"#utility.yul\":2222:2244   */\n      add\n        /* \"#utility.yul\":2191:2254   */\n      tag_186\n      jump\t// in\n    tag_210:\n        /* \"#utility.yul\":2181:2254   */\n      swap3\n      pop\n        /* \"#utility.yul\":1976:2264   */\n      pop\n        /* \"#utility.yul\":2331:2333   */\n      0x40\n        /* \"#utility.yul\":2320:2329   */\n      dup5\n        /* \"#utility.yul\":2316:2334   */\n      add\n        /* \"#utility.yul\":2303:2335   */\n      calldataload\n        /* \"#utility.yul\":2362:2380   */\n      0xffffffffffffffff\n        /* \"#utility.yul\":2354:2360   */\n      dup2\n        /* \"#utility.yul\":2351:2381   */\n      gt\n        /* \"#utility.yul\":2348:2465   */\n      iszero\n      tag_211\n      jumpi\n        /* \"#utility.yul\":2384:2463   */\n      tag_212\n      tag_206\n      jump\t// in\n    tag_212:\n        /* \"#utility.yul\":2348:2465   */\n    tag_211:\n        /* \"#utility.yul\":2489:2552   */\n      tag_213\n        /* \"#utility.yul\":2544:2551   */\n      dup7\n        /* \"#utility.yul\":2535:2541   */\n      dup3\n        /* \"#utility.yul\":2524:2533   */\n      dup8\n        /* \"#utility.yul\":2520:2542   */\n      add\n        /* \"#utility.yul\":2489:2552   */\n      tag_186\n      jump\t// in\n    tag_213:\n        /* \"#utility.yul\":2479:2552   */\n      swap2\n      pop\n        /* \"#utility.yul\":2274:2562   */\n      pop\n        /* \"#utility.yul\":1410:2569   */\n      swap3\n      pop\n      swap3\n      pop\n      swap3\n      jump\t// out\n        /* \"#utility.yul\":2575:2904   */\n    tag_13:\n        /* \"#utility.yul\":2634:2640   */\n      0x00\n        /* \"#utility.yul\":2683:2685   */\n      0x20\n        /* \"#utility.yul\":2671:2680   */\n      dup3\n        /* \"#utility.yul\":2662:2669   */\n      dup5\n        /* \"#utility.yul\":2658:2681   */\n      sub\n        /* \"#utility.yul\":2654:2686   */\n      slt\n        /* \"#utility.yul\":2651:2770   */\n      iszero\n      tag_215\n      jumpi\n        /* \"#utility.yul\":2689:2768   */\n      tag_216\n      tag_199\n      jump\t// in\n    tag_216:\n        /* \"#utility.yul\":2651:2770   */\n    tag_215:\n        /* \"#utility.yul\":2809:2810   */\n      0x00\n        /* \"#utility.yul\":2834:2887   */\n      tag_217\n        /* \"#utility.yul\":2879:2886   */\n      dup5\n        /* \"#utility.yul\":2870:2876   */\n      dup3\n        /* \"#utility.yul\":2859:2868   */\n      dup6\n        /* \"#utility.yul\":2855:2877   */\n      add\n        /* \"#utility.yul\":2834:2887   */\n      tag_192\n      jump\t// in\n    tag_217:\n        /* \"#utility.yul\":2824:2887   */\n      swap2\n      pop\n        /* \"#utility.yul\":2780:2897   */\n      pop\n        /* \"#utility.yul\":2575:2904   */\n      swap3\n      swap2\n      pop\n      pop\n      jump\t// out\n        /* \"#utility.yul\":2910:3028   */\n    tag_218:\n        /* \"#utility.yul\":2997:3021   */\n      tag_220\n        /* \"#utility.yul\":3015:3020   */\n      dup2\n        /* \"#utility.yul\":2997:3021   */\n      tag_221\n      jump\t// in\n    tag_220:\n        /* \"#utility.yul\":2992:2995   */\n      dup3\n        /* \"#utility.yul\":2985:3022   */\n      mstore\n        /* \"#utility.yul\":2910:3028   */\n      pop\n      pop\n      jump\t// out\n        /* \"#utility.yul\":3034:3398   */\n    tag_222:\n        /* \"#utility.yul\":3122:3125   */\n      0x00\n        /* \"#utility.yul\":3150:3189   */\n      tag_224\n        /* \"#utility.yul\":3183:3188   */\n      dup3\n        /* \"#utility.yul\":3150:3189   */\n      tag_225\n      jump\t// in\n    tag_224:\n        /* \"#utility.yul\":3205:3276   */\n      tag_226\n        /* \"#utility.yul\":3269:3275   */\n      dup2\n        /* \"#utility.yul\":3264:3267   */\n      dup6\n        /* \"#utility.yul\":3205:3276   */\n      tag_227\n      jump\t// in\n    tag_226:\n        /* \"#utility.yul\":3198:3276   */\n      swap4\n      pop\n        /* \"#utility.yul\":3285:3337   */\n      tag_228\n        /* \"#utility.yul\":3330:3336   */\n      dup2\n        /* \"#utility.yul\":3325:3328   */\n      dup6\n        /* \"#utility.yul\":3318:3322   */\n      0x20\n        /* \"#utility.yul\":3311:3316   */\n      dup7\n        /* \"#utility.yul\":3307:3323   */\n      add\n        /* \"#utility.yul\":3285:3337   */\n      tag_229\n      jump\t// in\n    tag_228:\n        /* \"#utility.yul\":3362:3391   */\n      tag_230\n        /* \"#utility.yul\":3384:3390   */\n      dup2\n        /* \"#utility.yul\":3362:3391   */\n      tag_231\n      jump\t// in\n    tag_230:\n        /* \"#utility.yul\":3357:3360   */\n      dup5\n        /* \"#utility.yul\":3353:3392   */\n      add\n        /* \"#utility.yul\":3346:3392   */\n      swap2\n      pop\n        /* \"#utility.yul\":3126:3398   */\n      pop\n        /* \"#utility.yul\":3034:3398   */\n      swap3\n      swap2\n      pop\n      pop\n      jump\t// out\n        /* \"#utility.yul\":3404:3770   */\n    tag_232:\n        /* \"#utility.yul\":3546:3549   */\n      0x00\n        /* \"#utility.yul\":3567:3634   */\n      tag_234\n        /* \"#utility.yul\":3631:3633   */\n      0x28\n        /* \"#utility.yul\":3626:3629   */\n      dup4\n        /* \"#utility.yul\":3567:3634   */\n      tag_227\n      jump\t// in\n    tag_234:\n        /* \"#utility.yul\":3560:3634   */\n      swap2\n      pop\n        /* \"#utility.yul\":3643:3736   */\n      tag_235\n        /* \"#utility.yul\":3732:3735   */\n      dup3\n        /* \"#utility.yul\":3643:3736   */\n      tag_236\n      jump\t// in\n    tag_235:\n        /* \"#utility.yul\":3761:3763   */\n      0x40\n        /* \"#utility.yul\":3756:3759   */\n      dup3\n        /* \"#utility.yul\":3752:3764   */\n      add\n        /* \"#utility.yul\":3745:3764   */\n      swap1\n      pop\n        /* \"#utility.yul\":3404:3770   */\n      swap2\n      swap1\n      pop\n      jump\t// out\n        /* \"#utility.yul\":3776:4142   */\n    tag_237:\n        /* \"#utility.yul\":3918:3921   */\n      0x00\n        /* \"#utility.yul\":3939:4006   */\n      tag_239\n        /* \"#utility.yul\":4003:4005   */\n      0x26\n        /* \"#utility.yul\":3998:4001   */\n      dup4\n        /* \"#utility.yul\":3939:4006   */\n      tag_227\n      jump\t// in\n    tag_239:\n        /* \"#utility.yul\":3932:4006   */\n      swap2\n      pop\n        /* \"#utility.yul\":4015:4108   */\n      tag_240\n        /* \"#utility.yul\":4104:4107   */\n      dup3\n        /* \"#utility.yul\":4015:4108   */\n      tag_241\n      jump\t// in\n    tag_240:\n        /* \"#utility.yul\":4133:4135   */\n      0x40\n        /* \"#utility.yul\":4128:4131   */\n      dup3\n        /* \"#utility.yul\":4124:4136   */\n      add\n        /* \"#utility.yul\":4117:4136   */\n      swap1\n      pop\n        /* \"#utility.yul\":3776:4142   */\n      swap2\n      swap1\n      pop\n      jump\t// out\n        /* \"#utility.yul\":4148:4514   */\n    tag_242:\n        /* \"#utility.yul\":4290:4293   */\n      0x00\n        /* \"#utility.yul\":4311:4378   */\n      tag_244\n        /* \"#utility.yul\":4375:4377   */\n      0x20\n        /* \"#utility.yul\":4370:4373   */\n      dup4\n        /* \"#utility.yul\":4311:4378   */\n      tag_227\n      jump\t// in\n    tag_244:\n        /* \"#utility.yul\":4304:4378   */\n      swap2\n      pop\n        /* \"#utility.yul\":4387:4480   */\n      tag_245\n        /* \"#utility.yul\":4476:4479   */\n      dup3\n        /* \"#utility.yul\":4387:4480   */\n      tag_246\n      jump\t// in\n    tag_245:\n        /* \"#utility.yul\":4505:4507   */\n      0x20\n        /* \"#utility.yul\":4500:4503   */\n      dup3\n        /* \"#utility.yul\":4496:4508   */\n      add\n        /* \"#utility.yul\":4489:4508   */\n      swap1\n      pop\n        /* \"#utility.yul\":4148:4514   */\n      swap2\n      swap1\n      pop\n      jump\t// out\n        /* \"#utility.yul\":4520:4638   */\n    tag_247:\n        /* \"#utility.yul\":4607:4631   */\n      tag_249\n        /* \"#utility.yul\":4625:4630   */\n      dup2\n        /* \"#utility.yul\":4607:4631   */\n      tag_250\n      jump\t// in\n    tag_249:\n        /* \"#utility.yul\":4602:4605   */\n      dup3\n        /* \"#utility.yul\":4595:4632   */\n      mstore\n        /* \"#utility.yul\":4520:4638   */\n      pop\n      pop\n      jump\t// out\n        /* \"#utility.yul\":4644:4801   */\n    tag_251:\n        /* \"#utility.yul\":4749:4794   */\n      tag_253\n        /* \"#utility.yul\":4769:4793   */\n      tag_254\n        /* \"#utility.yul\":4787:4792   */\n      dup3\n        /* \"#utility.yul\":4769:4793   */\n      tag_250\n      jump\t// in\n    tag_254:\n        /* \"#utility.yul\":4749:4794   */\n      tag_255\n      jump\t// in\n    tag_253:\n        /* \"#utility.yul\":4744:4747   */\n      dup3\n        /* \"#utility.yul\":4737:4795   */\n      mstore\n        /* \"#utility.yul\":4644:4801   */\n      pop\n      pop\n      jump\t// out\n        /* \"#utility.yul\":4807:5345   */\n    tag_57:\n        /* \"#utility.yul\":4975:4978   */\n      0x00\n        /* \"#utility.yul\":4990:5065   */\n      tag_257\n        /* \"#utility.yul\":5061:5064   */\n      dup3\n        /* \"#utility.yul\":5052:5058   */\n      dup7\n        /* \"#utility.yul\":4990:5065   */\n      tag_251\n      jump\t// in\n    tag_257:\n        /* \"#utility.yul\":5090:5092   */\n      0x20\n        /* \"#utility.yul\":5085:5088   */\n      dup3\n        /* \"#utility.yul\":5081:5093   */\n      add\n        /* \"#utility.yul\":5074:5093   */\n      swap2\n      pop\n        /* \"#utility.yul\":5103:5178   */\n      tag_258\n        /* \"#utility.yul\":5174:5177   */\n      dup3\n        /* \"#utility.yul\":5165:5171   */\n      dup6\n        /* \"#utility.yul\":5103:5178   */\n      tag_251\n      jump\t// in\n    tag_258:\n        /* \"#utility.yul\":5203:5205   */\n      0x20\n        /* \"#utility.yul\":5198:5201   */\n      dup3\n        /* \"#utility.yul\":5194:5206   */\n      add\n        /* \"#utility.yul\":5187:5206   */\n      swap2\n      pop\n        /* \"#utility.yul\":5216:5291   */\n      tag_259\n        /* \"#utility.yul\":5287:5290   */\n      dup3\n        /* \"#utility.yul\":5278:5284   */\n      dup5\n        /* \"#utility.yul\":5216:5291   */\n      tag_251\n      jump\t// in\n    tag_259:\n        /* \"#utility.yul\":5316:5318   */\n      0x20\n        /* \"#utility.yul\":5311:5314   */\n      dup3\n        /* \"#utility.yul\":5307:5319   */\n      add\n        /* \"#utility.yul\":5300:5319   */\n      swap2\n      pop\n        /* \"#utility.yul\":5336:5339   */\n      dup2\n        /* \"#utility.yul\":5329:5339   */\n      swap1\n      pop\n        /* \"#utility.yul\":4807:5345   */\n      swap5\n      swap4\n      pop\n      pop\n      pop\n      pop\n      jump\t// out\n        /* \"#utility.yul\":5351:5573   */\n    tag_37:\n        /* \"#utility.yul\":5444:5448   */\n      0x00\n        /* \"#utility.yul\":5482:5484   */\n      0x20\n        /* \"#utility.yul\":5471:5480   */\n      dup3\n        /* \"#utility.yul\":5467:5485   */\n      add\n        /* \"#utility.yul\":5459:5485   */\n      swap1\n      pop\n        /* \"#utility.yul\":5495:5566   */\n      tag_261\n        /* \"#utility.yul\":5563:5564   */\n      0x00\n        /* \"#utility.yul\":5552:5561   */\n      dup4\n        /* \"#utility.yul\":5548:5565   */\n      add\n        /* \"#utility.yul\":5539:5545   */\n      dup5\n        /* \"#utility.yul\":5495:5566   */\n      tag_218\n      jump\t// in\n    tag_261:\n        /* \"#utility.yul\":5351:5573   */\n      swap3\n      swap2\n      pop\n      pop\n      jump\t// out\n        /* \"#utility.yul\":5579:6738   */\n    tag_43:\n        /* \"#utility.yul\":5900:5904   */\n      0x00\n        /* \"#utility.yul\":5938:5941   */\n      0xe0\n        /* \"#utility.yul\":5927:5936   */\n      dup3\n        /* \"#utility.yul\":5923:5942   */\n      add\n        /* \"#utility.yul\":5915:5942   */\n      swap1\n      pop\n        /* \"#utility.yul\":5952:6023   */\n      tag_263\n        /* \"#utility.yul\":6020:6021   */\n      0x00\n        /* \"#utility.yul\":6009:6018   */\n      dup4\n        /* \"#utility.yul\":6005:6022   */\n      add\n        /* \"#utility.yul\":5996:6002   */\n      dup11\n        /* \"#utility.yul\":5952:6023   */\n      tag_218\n      jump\t// in\n    tag_263:\n        /* \"#utility.yul\":6070:6079   */\n      dup2\n        /* \"#utility.yul\":6064:6068   */\n      dup2\n        /* \"#utility.yul\":6060:6080   */\n      sub\n        /* \"#utility.yul\":6055:6057   */\n      0x20\n        /* \"#utility.yul\":6044:6053   */\n      dup4\n        /* \"#utility.yul\":6040:6058   */\n      add\n        /* \"#utility.yul\":6033:6081   */\n      mstore\n        /* \"#utility.yul\":6098:6176   */\n      tag_264\n        /* \"#utility.yul\":6171:6175   */\n      dup2\n        /* \"#utility.yul\":6162:6168   */\n      dup10\n        /* \"#utility.yul\":6098:6176   */\n      tag_222\n      jump\t// in\n    tag_264:\n        /* \"#utility.yul\":6090:6176   */\n      swap1\n      pop\n        /* \"#utility.yul\":6223:6232   */\n      dup2\n        /* \"#utility.yul\":6217:6221   */\n      dup2\n        /* \"#utility.yul\":6213:6233   */\n      sub\n        /* \"#utility.yul\":6208:6210   */\n      0x40\n        /* \"#utility.yul\":6197:6206   */\n      dup4\n        /* \"#utility.yul\":6193:6211   */\n      add\n        /* \"#utility.yul\":6186:6234   */\n      mstore\n        /* \"#utility.yul\":6251:6329   */\n      tag_265\n        /* \"#utility.yul\":6324:6328   */\n      dup2\n        /* \"#utility.yul\":6315:6321   */\n      dup9\n        /* \"#utility.yul\":6251:6329   */\n      tag_222\n      jump\t// in\n    tag_265:\n        /* \"#utility.yul\":6243:6329   */\n      swap1\n      pop\n        /* \"#utility.yul\":6376:6385   */\n      dup2\n        /* \"#utility.yul\":6370:6374   */\n      dup2\n        /* \"#utility.yul\":6366:6386   */\n      sub\n        /* \"#utility.yul\":6361:6363   */\n      0x60\n        /* \"#utility.yul\":6350:6359   */\n      dup4\n        /* \"#utility.yul\":6346:6364   */\n      add\n        /* \"#utility.yul\":6339:6387   */\n      mstore\n        /* \"#utility.yul\":6404:6482   */\n      tag_266\n        /* \"#utility.yul\":6477:6481   */\n      dup2\n        /* \"#utility.yul\":6468:6474   */\n      dup8\n        /* \"#utility.yul\":6404:6482   */\n      tag_222\n      jump\t// in\n    tag_266:\n        /* \"#utility.yul\":6396:6482   */\n      swap1\n      pop\n        /* \"#utility.yul\":6492:6565   */\n      tag_267\n        /* \"#utility.yul\":6560:6563   */\n      0x80\n        /* \"#utility.yul\":6549:6558   */\n      dup4\n        /* \"#utility.yul\":6545:6564   */\n      add\n        /* \"#utility.yul\":6536:6542   */\n      dup7\n        /* \"#utility.yul\":6492:6565   */\n      tag_247\n      jump\t// in\n    tag_267:\n        /* \"#utility.yul\":6575:6648   */\n      tag_268\n        /* \"#utility.yul\":6643:6646   */\n      0xa0\n        /* \"#utility.yul\":6632:6641   */\n      dup4\n        /* \"#utility.yul\":6628:6647   */\n      add\n        /* \"#utility.yul\":6619:6625   */\n      dup6\n        /* \"#utility.yul\":6575:6648   */\n      tag_247\n      jump\t// in\n    tag_268:\n        /* \"#utility.yul\":6658:6731   */\n      tag_269\n        /* \"#utility.yul\":6726:6729   */\n      0xc0\n        /* \"#utility.yul\":6715:6724   */\n      dup4\n        /* \"#utility.yul\":6711:6730   */\n      add\n        /* \"#utility.yul\":6702:6708   */\n      dup5\n        /* \"#utility.yul\":6658:6731   */\n      tag_247\n      jump\t// in\n    tag_269:\n        /* \"#utility.yul\":5579:6738   */\n      swap9\n      swap8\n      pop\n      pop\n      pop\n      pop\n      pop\n      pop\n      pop\n      pop\n      jump\t// out\n        /* \"#utility.yul\":6744:7057   */\n    tag_16:\n        /* \"#utility.yul\":6857:6861   */\n      0x00\n        /* \"#utility.yul\":6895:6897   */\n      0x20\n        /* \"#utility.yul\":6884:6893   */\n      dup3\n        /* \"#utility.yul\":6880:6898   */\n      add\n        /* \"#utility.yul\":6872:6898   */\n      swap1\n      pop\n        /* \"#utility.yul\":6944:6953   */\n      dup2\n        /* \"#utility.yul\":6938:6942   */\n      dup2\n        /* \"#utility.yul\":6934:6954   */\n      sub\n        /* \"#utility.yul\":6930:6931   */\n      0x00\n        /* \"#utility.yul\":6919:6928   */\n      dup4\n        /* \"#utility.yul\":6915:6932   */\n      add\n        /* \"#utility.yul\":6908:6955   */\n      mstore\n        /* \"#utility.yul\":6972:7050   */\n      tag_271\n        /* \"#utility.yul\":7045:7049   */\n      dup2\n        /* \"#utility.yul\":7036:7042   */\n      dup5\n        /* \"#utility.yul\":6972:7050   */\n      tag_222\n      jump\t// in\n    tag_271:\n        /* \"#utility.yul\":6964:7050   */\n      swap1\n      pop\n        /* \"#utility.yul\":6744:7057   */\n      swap3\n      swap2\n      pop\n      pop\n      jump\t// out\n        /* \"#utility.yul\":7063:7482   */\n    tag_97:\n        /* \"#utility.yul\":7229:7233   */\n      0x00\n        /* \"#utility.yul\":7267:7269   */\n      0x20\n        /* \"#utility.yul\":7256:7265   */\n      dup3\n        /* \"#utility.yul\":7252:7270   */\n      add\n        /* \"#utility.yul\":7244:7270   */\n      swap1\n      pop\n        /* \"#utility.yul\":7316:7325   */\n      dup2\n        /* \"#utility.yul\":7310:7314   */\n      dup2\n        /* \"#utility.yul\":7306:7326   */\n      sub\n        /* \"#utility.yul\":7302:7303   */\n      0x00\n        /* \"#utility.yul\":7291:7300   */\n      dup4\n        /* \"#utility.yul\":7287:7304   */\n      add\n        /* \"#utility.yul\":7280:7327   */\n      mstore\n        /* \"#utility.yul\":7344:7475   */\n      tag_273\n        /* \"#utility.yul\":7470:7474   */\n      dup2\n        /* \"#utility.yul\":7344:7475   */\n      tag_232\n      jump\t// in\n    tag_273:\n        /* \"#utility.yul\":7336:7475   */\n      swap1\n      pop\n        /* \"#utility.yul\":7063:7482   */\n      swap2\n      swap1\n      pop\n      jump\t// out\n        /* \"#utility.yul\":7488:7907   */\n    tag_150:\n        /* \"#utility.yul\":7654:7658   */\n      0x00\n        /* \"#utility.yul\":7692:7694   */\n      0x20\n        /* \"#utility.yul\":7681:7690   */\n      dup3\n        /* \"#utility.yul\":7677:7695   */\n      add\n        /* \"#utility.yul\":7669:7695   */\n      swap1\n      pop\n        /* \"#utility.yul\":7741:7750   */\n      dup2\n        /* \"#utility.yul\":7735:7739   */\n      dup2\n        /* \"#utility.yul\":7731:7751   */\n      sub\n        /* \"#utility.yul\":7727:7728   */\n      0x00\n        /* \"#utility.yul\":7716:7725   */\n      dup4\n        /* \"#utility.yul\":7712:7729   */\n      add\n        /* \"#utility.yul\":7705:7752   */\n      mstore\n        /* \"#utility.yul\":7769:7900   */\n      tag_275\n        /* \"#utility.yul\":7895:7899   */\n      dup2\n        /* \"#utility.yul\":7769:7900   */\n      tag_237\n      jump\t// in\n    tag_275:\n        /* \"#utility.yul\":7761:7900   */\n      swap1\n      pop\n        /* \"#utility.yul\":7488:7907   */\n      swap2\n      swap1\n      pop\n      jump\t// out\n        /* \"#utility.yul\":7913:8332   */\n    tag_116:\n        /* \"#utility.yul\":8079:8083   */\n      0x00\n        /* \"#utility.yul\":8117:8119   */\n      0x20\n        /* \"#utility.yul\":8106:8115   */\n      dup3\n        /* \"#utility.yul\":8102:8120   */\n      add\n        /* \"#utility.yul\":8094:8120   */\n      swap1\n      pop\n        /* \"#utility.yul\":8166:8175   */\n      dup2\n        /* \"#utility.yul\":8160:8164   */\n      dup2\n        /* \"#utility.yul\":8156:8176   */\n      sub\n        /* \"#utility.yul\":8152:8153   */\n      0x00\n        /* \"#utility.yul\":8141:8150   */\n      dup4\n        /* \"#utility.yul\":8137:8154   */\n      add\n        /* \"#utility.yul\":8130:8177   */\n      mstore\n        /* \"#utility.yul\":8194:8325   */\n      tag_277\n        /* \"#utility.yul\":8320:8324   */\n      dup2\n        /* \"#utility.yul\":8194:8325   */\n      tag_242\n      jump\t// in\n    tag_277:\n        /* \"#utility.yul\":8186:8325   */\n      swap1\n      pop\n        /* \"#utility.yul\":7913:8332   */\n      swap2\n      swap1\n      pop\n      jump\t// out\n        /* \"#utility.yul\":8338:8560   */\n    tag_23:\n        /* \"#utility.yul\":8431:8435   */\n      0x00\n        /* \"#utility.yul\":8469:8471   */\n      0x20\n        /* \"#utility.yul\":8458:8467   */\n      dup3\n        /* \"#utility.yul\":8454:8472   */\n      add\n        /* \"#utility.yul\":8446:8472   */\n      swap1\n      pop\n        /* \"#utility.yul\":8482:8553   */\n      tag_279\n        /* \"#utility.yul\":8550:8551   */\n      0x00\n        /* \"#utility.yul\":8539:8548   */\n      dup4\n        /* \"#utility.yul\":8535:8552   */\n      add\n        /* \"#utility.yul\":8526:8532   */\n      dup5\n        /* \"#utility.yul\":8482:8553   */\n      tag_247\n      jump\t// in\n    tag_279:\n        /* \"#utility.yul\":8338:8560   */\n      swap3\n      swap2\n      pop\n      pop\n      jump\t// out\n        /* \"#utility.yul\":8566:8695   */\n    tag_176:\n        /* \"#utility.yul\":8600:8606   */\n      0x00\n        /* \"#utility.yul\":8627:8647   */\n      tag_281\n      tag_282\n      jump\t// in\n    tag_281:\n        /* \"#utility.yul\":8617:8647   */\n      swap1\n      pop\n        /* \"#utility.yul\":8656:8689   */\n      tag_283\n        /* \"#utility.yul\":8684:8688   */\n      dup3\n        /* \"#utility.yul\":8676:8682   */\n      dup3\n        /* \"#utility.yul\":8656:8689   */\n      tag_284\n      jump\t// in\n    tag_283:\n        /* \"#utility.yul\":8566:8695   */\n      swap2\n      swap1\n      pop\n      jump\t// out\n        /* \"#utility.yul\":8701:8776   */\n    tag_282:\n        /* \"#utility.yul\":8734:8740   */\n      0x00\n        /* \"#utility.yul\":8767:8769   */\n      0x40\n        /* \"#utility.yul\":8761:8770   */\n      mload\n        /* \"#utility.yul\":8751:8770   */\n      swap1\n      pop\n        /* \"#utility.yul\":8701:8776   */\n      swap1\n      jump\t// out\n        /* \"#utility.yul\":8782:9090   */\n    tag_175:\n        /* \"#utility.yul\":8844:8848   */\n      0x00\n        /* \"#utility.yul\":8934:8952   */\n      0xffffffffffffffff\n        /* \"#utility.yul\":8926:8932   */\n      dup3\n        /* \"#utility.yul\":8923:8953   */\n      gt\n        /* \"#utility.yul\":8920:8976   */\n      iszero\n      tag_287\n      jumpi\n        /* \"#utility.yul\":8956:8974   */\n      tag_288\n      tag_289\n      jump\t// in\n    tag_288:\n        /* \"#utility.yul\":8920:8976   */\n    tag_287:\n        /* \"#utility.yul\":8994:9023   */\n      tag_290\n        /* \"#utility.yul\":9016:9022   */\n      dup3\n        /* \"#utility.yul\":8994:9023   */\n      tag_231\n      jump\t// in\n    tag_290:\n        /* \"#utility.yul\":8986:9023   */\n      swap1\n      pop\n        /* \"#utility.yul\":9078:9082   */\n      0x20\n        /* \"#utility.yul\":9072:9076   */\n      dup2\n        /* \"#utility.yul\":9068:9083   */\n      add\n        /* \"#utility.yul\":9060:9083   */\n      swap1\n      pop\n        /* \"#utility.yul\":8782:9090   */\n      swap2\n      swap1\n      pop\n      jump\t// out\n        /* \"#utility.yul\":9096:9195   */\n    tag_225:\n        /* \"#utility.yul\":9148:9154   */\n      0x00\n        /* \"#utility.yul\":9182:9187   */\n      dup2\n        /* \"#utility.yul\":9176:9188   */\n      mload\n        /* \"#utility.yul\":9166:9188   */\n      swap1\n      pop\n        /* \"#utility.yul\":9096:9195   */\n      swap2\n      swap1\n      pop\n      jump\t// out\n        /* \"#utility.yul\":9201:9370   */\n    tag_227:\n        /* \"#utility.yul\":9285:9296   */\n      0x00\n        /* \"#utility.yul\":9319:9325   */\n      dup3\n        /* \"#utility.yul\":9314:9317   */\n      dup3\n        /* \"#utility.yul\":9307:9326   */\n      mstore\n        /* \"#utility.yul\":9359:9363   */\n      0x20\n        /* \"#utility.yul\":9354:9357   */\n      dup3\n        /* \"#utility.yul\":9350:9364   */\n      add\n        /* \"#utility.yul\":9335:9364   */\n      swap1\n      pop\n        /* \"#utility.yul\":9201:9370   */\n      swap3\n      swap2\n      pop\n      pop\n      jump\t// out\n        /* \"#utility.yul\":9376:9681   */\n    tag_100:\n        /* \"#utility.yul\":9416:9419   */\n      0x00\n        /* \"#utility.yul\":9435:9455   */\n      tag_294\n        /* \"#utility.yul\":9453:9454   */\n      dup3\n        /* \"#utility.yul\":9435:9455   */\n      tag_250\n      jump\t// in\n    tag_294:\n        /* \"#utility.yul\":9430:9455   */\n      swap2\n      pop\n        /* \"#utility.yul\":9469:9489   */\n      tag_295\n        /* \"#utility.yul\":9487:9488   */\n      dup4\n        /* \"#utility.yul\":9469:9489   */\n      tag_250\n      jump\t// in\n    tag_295:\n        /* \"#utility.yul\":9464:9489   */\n      swap3\n      pop\n        /* \"#utility.yul\":9623:9624   */\n      dup3\n        /* \"#utility.yul\":9555:9621   */\n      0xffffffffffffffffffffffffffffffffffffffffffffffffffffffffffffffff\n        /* \"#utility.yul\":9551:9625   */\n      sub\n        /* \"#utility.yul\":9548:9549   */\n      dup3\n        /* \"#utility.yul\":9545:9626   */\n      gt\n        /* \"#utility.yul\":9542:9649   */\n      iszero\n      tag_296\n      jumpi\n        /* \"#utility.yul\":9629:9647   */\n      tag_297\n      tag_298\n      jump\t// in\n    tag_297:\n        /* \"#utility.yul\":9542:9649   */\n    tag_296:\n        /* \"#utility.yul\":9673:9674   */\n      dup3\n        /* \"#utility.yul\":9670:9671   */\n      dup3\n        /* \"#utility.yul\":9666:9675   */\n      add\n        /* \"#utility.yul\":9659:9675   */\n      swap1\n      pop\n        /* \"#utility.yul\":9376:9681   */\n      swap3\n      swap2\n      pop\n      pop\n      jump\t// out\n        /* \"#utility.yul\":9687:9878   */\n    tag_109:\n        /* \"#utility.yul\":9727:9731   */\n      0x00\n        /* \"#utility.yul\":9747:9767   */\n      tag_300\n        /* \"#utility.yul\":9765:9766   */\n      dup3\n        /* \"#utility.yul\":9747:9767   */\n      tag_250\n      jump\t// in\n    tag_300:\n        /* \"#utility.yul\":9742:9767   */\n      swap2\n      pop\n        /* \"#utility.yul\":9781:9801   */\n      tag_301\n        /* \"#utility.yul\":9799:9800   */\n      dup4\n        /* \"#utility.yul\":9781:9801   */\n      tag_250\n      jump\t// in\n    tag_301:\n        /* \"#utility.yul\":9776:9801   */\n      swap3\n      pop\n        /* \"#utility.yul\":9820:9821   */\n      dup3\n        /* \"#utility.yul\":9817:9818   */\n      dup3\n        /* \"#utility.yul\":9814:9822   */\n      lt\n        /* \"#utility.yul\":9811:9845   */\n      iszero\n      tag_302\n      jumpi\n        /* \"#utility.yul\":9825:9843   */\n      tag_303\n      tag_298\n      jump\t// in\n    tag_303:\n        /* \"#utility.yul\":9811:9845   */\n    tag_302:\n        /* \"#utility.yul\":9870:9871   */\n      dup3\n        /* \"#utility.yul\":9867:9868   */\n      dup3\n        /* \"#utility.yul\":9863:9872   */\n      sub\n        /* \"#utility.yul\":9855:9872   */\n      swap1\n      pop\n        /* \"#utility.yul\":9687:9878   */\n      swap3\n      swap2\n      pop\n      pop\n      jump\t// out\n        /* \"#utility.yul\":9884:9980   */\n    tag_221:\n        /* \"#utility.yul\":9921:9928   */\n      0x00\n        /* \"#utility.yul\":9950:9974   */\n      tag_305\n        /* \"#utility.yul\":9968:9973   */\n      dup3\n        /* \"#utility.yul\":9950:9974   */\n      tag_306\n      jump\t// in\n    tag_305:\n        /* \"#utility.yul\":9939:9974   */\n      swap1\n      pop\n        /* \"#utility.yul\":9884:9980   */\n      swap2\n      swap1\n      pop\n      jump\t// out\n        /* \"#utility.yul\":9986:10112   */\n    tag_306:\n        /* \"#utility.yul\":10023:10030   */\n      0x00\n        /* \"#utility.yul\":10063:10105   */\n      0xffffffffffffffffffffffffffffffffffffffff\n        /* \"#utility.yul\":10056:10061   */\n      dup3\n        /* \"#utility.yul\":10052:10106   */\n      and\n        /* \"#utility.yul\":10041:10106   */\n      swap1\n      pop\n        /* \"#utility.yul\":9986:10112   */\n      swap2\n      swap1\n      pop\n      jump\t// out\n        /* \"#utility.yul\":10118:10195   */\n    tag_250:\n        /* \"#utility.yul\":10155:10162   */\n      0x00\n        /* \"#utility.yul\":10184:10189   */\n      dup2\n        /* \"#utility.yul\":10173:10189   */\n      swap1\n      pop\n        /* \"#utility.yul\":10118:10195   */\n      swap2\n      swap1\n      pop\n      jump\t// out\n        /* \"#utility.yul\":10201:10355   */\n    tag_181:\n        /* \"#utility.yul\":10285:10291   */\n      dup3\n        /* \"#utility.yul\":10280:10283   */\n      dup2\n        /* \"#utility.yul\":10275:10278   */\n      dup4\n        /* \"#utility.yul\":10262:10292   */\n      calldatacopy\n        /* \"#utility.yul\":10347:10348   */\n      0x00\n        /* \"#utility.yul\":10338:10344   */\n      dup4\n        /* \"#utility.yul\":10333:10336   */\n      dup4\n        /* \"#utility.yul\":10329:10345   */\n      add\n        /* \"#utility.yul\":10322:10349   */\n      mstore\n        /* \"#utility.yul\":10201:10355   */\n      pop\n      pop\n      pop\n      jump\t// out\n        /* \"#utility.yul\":10361:10668   */\n    tag_229:\n        /* \"#utility.yul\":10429:10430   */\n      0x00\n        /* \"#utility.yul\":10439:10552   */\n    tag_311:\n        /* \"#utility.yul\":10453:10459   */\n      dup4\n        /* \"#utility.yul\":10450:10451   */\n      dup2\n        /* \"#utility.yul\":10447:10460   */\n      lt\n        /* \"#utility.yul\":10439:10552   */\n      iszero\n      tag_313\n      jumpi\n        /* \"#utility.yul\":10538:10539   */\n      dup1\n        /* \"#utility.yul\":10533:10536   */\n      dup3\n        /* \"#utility.yul\":10529:10540   */\n      add\n        /* \"#utility.yul\":10523:10541   */\n      mload\n        /* \"#utility.yul\":10519:10520   */\n      dup2\n        /* \"#utility.yul\":10514:10517   */\n      dup5\n        /* \"#utility.yul\":10510:10521   */\n      add\n        /* \"#utility.yul\":10503:10542   */\n      mstore\n        /* \"#utility.yul\":10475:10477   */\n      0x20\n        /* \"#utility.yul\":10472:10473   */\n      dup2\n        /* \"#utility.yul\":10468:10478   */\n      add\n        /* \"#utility.yul\":10463:10478   */\n      swap1\n      pop\n        /* \"#utility.yul\":10439:10552   */\n      jump(tag_311)\n    tag_313:\n        /* \"#utility.yul\":10570:10576   */\n      dup4\n        /* \"#utility.yul\":10567:10568   */\n      dup2\n        /* \"#utility.yul\":10564:10577   */\n      gt\n        /* \"#utility.yul\":10561:10662   */\n      iszero\n      tag_314\n      jumpi\n        /* \"#utility.yul\":10650:10651   */\n      0x00\n        /* \"#utility.yul\":10641:10647   */\n      dup5\n        /* \"#utility.yul\":10636:10639   */\n      dup5\n        /* \"#utility.yul\":10632:10648   */\n      add\n        /* \"#utility.yul\":10625:10652   */\n      mstore\n        /* \"#utility.yul\":10561:10662   */\n    tag_314:\n        /* \"#utility.yul\":10410:10668   */\n      pop\n        /* \"#utility.yul\":10361:10668   */\n      pop\n      pop\n      pop\n      jump\t// out\n        /* \"#utility.yul\":10674:10994   */\n    tag_124:\n        /* \"#utility.yul\":10718:10724   */\n      0x00\n        /* \"#utility.yul\":10755:10756   */\n      0x02\n        /* \"#utility.yul\":10749:10753   */\n      dup3\n        /* \"#utility.yul\":10745:10757   */\n      div\n        /* \"#utility.yul\":10735:10757   */\n      swap1\n      pop\n        /* \"#utility.yul\":10802:10803   */\n      0x01\n        /* \"#utility.yul\":10796:10800   */\n      dup3\n        /* \"#utility.yul\":10792:10804   */\n      and\n        /* \"#utility.yul\":10823:10841   */\n      dup1\n        /* \"#utility.yul\":10813:10894   */\n      tag_316\n      jumpi\n        /* \"#utility.yul\":10879:10883   */\n      0x7f\n        /* \"#utility.yul\":10871:10877   */\n      dup3\n        /* \"#utility.yul\":10867:10884   */\n      and\n        /* \"#utility.yul\":10857:10884   */\n      swap2\n      pop\n        /* \"#utility.yul\":10813:10894   */\n    tag_316:\n        /* \"#utility.yul\":10941:10943   */\n      0x20\n        /* \"#utility.yul\":10933:10939   */\n      dup3\n        /* \"#utility.yul\":10930:10944   */\n      lt\n        /* \"#utility.yul\":10910:10928   */\n      dup2\n        /* \"#utility.yul\":10907:10945   */\n      eq\n        /* \"#utility.yul\":10904:10988   */\n      iszero\n      tag_317\n      jumpi\n        /* \"#utility.yul\":10960:10978   */\n      tag_318\n      tag_319\n      jump\t// in\n    tag_318:\n        /* \"#utility.yul\":10904:10988   */\n    tag_317:\n        /* \"#utility.yul\":10725:10994   */\n      pop\n        /* \"#utility.yul\":10674:10994   */\n      swap2\n      swap1\n      pop\n      jump\t// out\n        /* \"#utility.yul\":11000:11281   */\n    tag_284:\n        /* \"#utility.yul\":11083:11110   */\n      tag_321\n        /* \"#utility.yul\":11105:11109   */\n      dup3\n        /* \"#utility.yul\":11083:11110   */\n      tag_231\n      jump\t// in\n    tag_321:\n        /* \"#utility.yul\":11075:11081   */\n      dup2\n        /* \"#utility.yul\":11071:11111   */\n      add\n        /* \"#utility.yul\":11213:11219   */\n      dup2\n        /* \"#utility.yul\":11201:11211   */\n      dup2\n        /* \"#utility.yul\":11198:11220   */\n      lt\n        /* \"#utility.yul\":11177:11195   */\n      0xffffffffffffffff\n        /* \"#utility.yul\":11165:11175   */\n      dup3\n        /* \"#utility.yul\":11162:11196   */\n      gt\n        /* \"#utility.yul\":11159:11221   */\n      or\n        /* \"#utility.yul\":11156:11244   */\n      iszero\n      tag_322\n      jumpi\n        /* \"#utility.yul\":11224:11242   */\n      tag_323\n      tag_289\n      jump\t// in\n    tag_323:\n        /* \"#utility.yul\":11156:11244   */\n    tag_322:\n        /* \"#utility.yul\":11264:11274   */\n      dup1\n        /* \"#utility.yul\":11260:11262   */\n      0x40\n        /* \"#utility.yul\":11253:11275   */\n      mstore\n        /* \"#utility.yul\":11043:11281   */\n      pop\n        /* \"#utility.yul\":11000:11281   */\n      pop\n      pop\n      jump\t// out\n        /* \"#utility.yul\":11287:11520   */\n    tag_55:\n        /* \"#utility.yul\":11326:11329   */\n      0x00\n        /* \"#utility.yul\":11349:11373   */\n      tag_325\n        /* \"#utility.yul\":11367:11372   */\n      dup3\n        /* \"#utility.yul\":11349:11373   */\n      tag_250\n      jump\t// in\n    tag_325:\n        /* \"#utility.yul\":11340:11373   */\n      swap2\n      pop\n        /* \"#utility.yul\":11395:11461   */\n      0xffffffffffffffffffffffffffffffffffffffffffffffffffffffffffffffff\n        /* \"#utility.yul\":11388:11393   */\n      dup3\n        /* \"#utility.yul\":11385:11462   */\n      eq\n        /* \"#utility.yul\":11382:11485   */\n      iszero\n      tag_326\n      jumpi\n        /* \"#utility.yul\":11465:11483   */\n      tag_327\n      tag_298\n      jump\t// in\n    tag_327:\n        /* \"#utility.yul\":11382:11485   */\n    tag_326:\n        /* \"#utility.yul\":11512:11513   */\n      0x01\n        /* \"#utility.yul\":11505:11510   */\n      dup3\n        /* \"#utility.yul\":11501:11514   */\n      add\n        /* \"#utility.yul\":11494:11514   */\n      swap1\n      pop\n        /* \"#utility.yul\":11287:11520   */\n      swap2\n      swap1\n      pop\n      jump\t// out\n        /* \"#utility.yul\":11526:11605   */\n    tag_255:\n        /* \"#utility.yul\":11565:11572   */\n      0x00\n        /* \"#utility.yul\":11594:11599   */\n      dup2\n        /* \"#utility.yul\":11583:11599   */\n      swap1\n      pop\n        /* \"#utility.yul\":11526:11605   */\n      swap2\n      swap1\n      pop\n      jump\t// out\n        /* \"#utility.yul\":11611:11787   */\n    tag_59:\n        /* \"#utility.yul\":11643:11644   */\n      0x00\n        /* \"#utility.yul\":11660:11680   */\n      tag_330\n        /* \"#utility.yul\":11678:11679   */\n      dup3\n        /* \"#utility.yul\":11660:11680   */\n      tag_250\n      jump\t// in\n    tag_330:\n        /* \"#utility.yul\":11655:11680   */\n      swap2\n      pop\n        /* \"#utility.yul\":11694:11714   */\n      tag_331\n        /* \"#utility.yul\":11712:11713   */\n      dup4\n        /* \"#utility.yul\":11694:11714   */\n      tag_250\n      jump\t// in\n    tag_331:\n        /* \"#utility.yul\":11689:11714   */\n      swap3\n      pop\n        /* \"#utility.yul\":11733:11734   */\n      dup3\n        /* \"#utility.yul\":11723:11758   */\n      tag_332\n      jumpi\n        /* \"#utility.yul\":11738:11756   */\n      tag_333\n      tag_334\n      jump\t// in\n    tag_333:\n        /* \"#utility.yul\":11723:11758   */\n    tag_332:\n        /* \"#utility.yul\":11779:11780   */\n      dup3\n        /* \"#utility.yul\":11776:11777   */\n      dup3\n        /* \"#utility.yul\":11772:11781   */\n      mod\n        /* \"#utility.yul\":11767:11781   */\n      swap1\n      pop\n        /* \"#utility.yul\":11611:11787   */\n      swap3\n      swap2\n      pop\n      pop\n      jump\t// out\n        /* \"#utility.yul\":11793:11973   */\n    tag_298:\n        /* \"#utility.yul\":11841:11918   */\n      0x4e487b7100000000000000000000000000000000000000000000000000000000\n        /* \"#utility.yul\":11838:11839   */\n      0x00\n        /* \"#utility.yul\":11831:11919   */\n      mstore\n        /* \"#utility.yul\":11938:11942   */\n      0x11\n        /* \"#utility.yul\":11935:11936   */\n      0x04\n        /* \"#utility.yul\":11928:11943   */\n      mstore\n        /* \"#utility.yul\":11962:11966   */\n      0x24\n        /* \"#utility.yul\":11959:11960   */\n      0x00\n        /* \"#utility.yul\":11952:11967   */\n      revert\n        /* \"#utility.yul\":11979:12159   */\n    tag_334:\n        /* \"#utility.yul\":12027:12104   */\n      0x4e487b7100000000000000000000000000000000000000000000000000000000\n        /* \"#utility.yul\":12024:12025   */\n      0x00\n        /* \"#utility.yul\":12017:12105   */\n      mstore\n        /* \"#utility.yul\":12124:12128   */\n      0x12\n        /* \"#utility.yul\":12121:12122   */\n      0x04\n        /* \"#utility.yul\":12114:12129   */\n      mstore\n        /* \"#utility.yul\":12148:12152   */\n      0x24\n        /* \"#utility.yul\":12145:12146   */\n      0x00\n        /* \"#utility.yul\":12138:12153   */\n      revert\n        /* \"#utility.yul\":12165:12345   */\n    tag_319:\n        /* \"#utility.yul\":12213:12290   */\n      0x4e487b7100000000000000000000000000000000000000000000000000000000\n        /* \"#utility.yul\":12210:12211   */\n      0x00\n        /* \"#utility.yul\":12203:12291   */\n      mstore\n        /* \"#utility.yul\":12310:12314   */\n      0x22\n        /* \"#utility.yul\":12307:12308   */\n      0x04\n        /* \"#utility.yul\":12300:12315   */\n      mstore\n        /* \"#utility.yul\":12334:12338   */\n      0x24\n        /* \"#utility.yul\":12331:12332   */\n      0x00\n        /* \"#utility.yul\":12324:12339   */\n      revert\n        /* \"#utility.yul\":12351:12531   */\n    tag_68:\n        /* \"#utility.yul\":12399:12476   */\n      0x4e487b7100000000000000000000000000000000000000000000000000000000\n        /* \"#utility.yul\":12396:12397   */\n      0x00\n        /* \"#utility.yul\":12389:12477   */\n      mstore\n        /* \"#utility.yul\":12496:12500   */\n      0x32\n        /* \"#utility.yul\":12493:12494   */\n      0x04\n        /* \"#utility.yul\":12486:12501   */\n      mstore\n        /* \"#utility.yul\":12520:12524   */\n      0x24\n        /* \"#utility.yul\":12517:12518   */\n      0x00\n        /* \"#utility.yul\":12510:12525   */\n      revert\n        /* \"#utility.yul\":12537:12717   */\n    tag_289:\n        /* \"#utility.yul\":12585:12662   */\n      0x4e487b7100000000000000000000000000000000000000000000000000000000\n        /* \"#utility.yul\":12582:12583   */\n      0x00\n        /* \"#utility.yul\":12575:12663   */\n      mstore\n        /* \"#utility.yul\":12682:12686   */\n      0x41\n        /* \"#utility.yul\":12679:12680   */\n      0x04\n        /* \"#utility.yul\":12672:12687   */\n      mstore\n        /* \"#utility.yul\":12706:12710   */\n      0x24\n        /* \"#utility.yul\":12703:12704   */\n      0x00\n        /* \"#utility.yul\":12696:12711   */\n      revert\n        /* \"#utility.yul\":12723:12840   */\n    tag_190:\n        /* \"#utility.yul\":12832:12833   */\n      0x00\n        /* \"#utility.yul\":12829:12830   */\n      dup1\n        /* \"#utility.yul\":12822:12834   */\n      revert\n        /* \"#utility.yul\":12846:12963   */\n    tag_179:\n        /* \"#utility.yul\":12955:12956   */\n      0x00\n        /* \"#utility.yul\":12952:12953   */\n      dup1\n        /* \"#utility.yul\":12945:12957   */\n      revert\n        /* \"#utility.yul\":12969:13086   */\n    tag_206:\n        /* \"#utility.yul\":13078:13079   */\n      0x00\n        /* \"#utility.yul\":13075:13076   */\n      dup1\n        /* \"#utility.yul\":13068:13080   */\n      revert\n        /* \"#utility.yul\":13092:13209   */\n    tag_199:\n        /* \"#utility.yul\":13201:13202   */\n      0x00\n        /* \"#utility.yul\":13198:13199   */\n      dup1\n        /* \"#utility.yul\":13191:13203   */\n      revert\n        /* \"#utility.yul\":13215:13317   */\n    tag_231:\n        /* \"#utility.yul\":13256:13262   */\n      0x00\n        /* \"#utility.yul\":13307:13309   */\n      0x1f\n        /* \"#utility.yul\":13303:13310   */\n      not\n        /* \"#utility.yul\":13298:13300   */\n      0x1f\n        /* \"#utility.yul\":13291:13296   */\n      dup4\n        /* \"#utility.yul\":13287:13301   */\n      add\n        /* \"#utility.yul\":13283:13311   */\n      and\n        /* \"#utility.yul\":13273:13311   */\n      swap1\n      pop\n        /* \"#utility.yul\":13215:13317   */\n      swap2\n      swap1\n      pop\n      jump\t// out\n        /* \"#utility.yul\":13323:13550   */\n    tag_236:\n        /* \"#utility.yul\":13463:13497   */\n      0x536f6c6f2073652070756564652074656e657220756e20636f63686520706f72\n        /* \"#utility.yul\":13459:13460   */\n      0x00\n        /* \"#utility.yul\":13451:13457   */\n      dup3\n        /* \"#utility.yul\":13447:13461   */\n      add\n        /* \"#utility.yul\":13440:13498   */\n      mstore\n        /* \"#utility.yul\":13532:13542   */\n      0x20706572736f6e61000000000000000000000000000000000000000000000000\n        /* \"#utility.yul\":13527:13529   */\n      0x20\n        /* \"#utility.yul\":13519:13525   */\n      dup3\n        /* \"#utility.yul\":13515:13530   */\n      add\n        /* \"#utility.yul\":13508:13543   */\n      mstore\n        /* \"#utility.yul\":13323:13550   */\n      pop\n      jump\t// out\n        /* \"#utility.yul\":13556:13781   */\n    tag_241:\n        /* \"#utility.yul\":13696:13730   */\n      0x4f776e61626c653a206e6577206f776e657220697320746865207a65726f2061\n        /* \"#utility.yul\":13692:13693   */\n      0x00\n        /* \"#utility.yul\":13684:13690   */\n      dup3\n        /* \"#utility.yul\":13680:13694   */\n      add\n        /* \"#utility.yul\":13673:13731   */\n      mstore\n        /* \"#utility.yul\":13765:13773   */\n      0x6464726573730000000000000000000000000000000000000000000000000000\n        /* \"#utility.yul\":13760:13762   */\n      0x20\n        /* \"#utility.yul\":13752:13758   */\n      dup3\n        /* \"#utility.yul\":13748:13763   */\n      add\n        /* \"#utility.yul\":13741:13774   */\n      mstore\n        /* \"#utility.yul\":13556:13781   */\n      pop\n      jump\t// out\n        /* \"#utility.yul\":13787:13969   */\n    tag_246:\n        /* \"#utility.yul\":13927:13961   */\n      0x4f776e61626c653a2063616c6c6572206973206e6f7420746865206f776e6572\n        /* \"#utility.yul\":13923:13924   */\n      0x00\n        /* \"#utility.yul\":13915:13921   */\n      dup3\n        /* \"#utility.yul\":13911:13925   */\n      add\n        /* \"#utility.yul\":13904:13962   */\n      mstore\n        /* \"#utility.yul\":13787:13969   */\n      pop\n      jump\t// out\n        /* \"#utility.yul\":13975:14097   */\n    tag_185:\n        /* \"#utility.yul\":14048:14072   */\n      tag_349\n        /* \"#utility.yul\":14066:14071   */\n      dup2\n        /* \"#utility.yul\":14048:14072   */\n      tag_221\n      jump\t// in\n    tag_349:\n        /* \"#utility.yul\":14041:14046   */\n      dup2\n        /* \"#utility.yul\":14038:14073   */\n      eq\n        /* \"#utility.yul\":14028:14091   */\n      tag_350\n      jumpi\n        /* \"#utility.yul\":14087:14088   */\n      0x00\n        /* \"#utility.yul\":14084:14085   */\n      dup1\n        /* \"#utility.yul\":14077:14089   */\n      revert\n        /* \"#utility.yul\":14028:14091   */\n    tag_350:\n        /* \"#utility.yul\":13975:14097   */\n      pop\n      jump\t// out\n        /* \"#utility.yul\":14103:14225   */\n    tag_195:\n        /* \"#utility.yul\":14176:14200   */\n      tag_352\n        /* \"#utility.yul\":14194:14199   */\n      dup2\n        /* \"#utility.yul\":14176:14200   */\n      tag_250\n      jump\t// in\n    tag_352:\n        /* \"#utility.yul\":14169:14174   */\n      dup2\n        /* \"#utility.yul\":14166:14201   */\n      eq\n        /* \"#utility.yul\":14156:14219   */\n      tag_353\n      jumpi\n        /* \"#utility.yul\":14215:14216   */\n      0x00\n        /* \"#utility.yul\":14212:14213   */\n      dup1\n        /* \"#utility.yul\":14205:14217   */\n      revert\n        /* \"#utility.yul\":14156:14219   */\n    tag_353:\n        /* \"#utility.yul\":14103:14225   */\n      pop\n      jump\t// out\n\n    auxdata: 0xa26469706673582212203ae74f51f3b0dea991ff5b6eafb1f45ed0630648e172803919066b3c7e5638cf64736f6c63430008070033\n}\n",
				"bytecode": {
					"linkReferences": {},
					"object": "608060405260006001556000600255603c60035534801561001f57600080fd5b5061003c61003161004160201b60201c565b61004960201b60201c565b61010d565b600033905090565b60008060009054906101000a900473ffffffffffffffffffffffffffffffffffffffff169050816000806101000a81548173ffffffffffffffffffffffffffffffffffffffff021916908373ffffffffffffffffffffffffffffffffffffffff1602179055508173ffffffffffffffffffffffffffffffffffffffff168173ffffffffffffffffffffffffffffffffffffffff167f8be0079c531659141344cd1fd0a4f28419497f9722a3daafe3b4186f6b6457e060405160405180910390a35050565b6114dc8061011c6000396000f3fe60806040526004361061007b5760003560e01c80638da5cb5b1161004e5780638da5cb5b14610141578063d735573d1461016c578063f1413763146101af578063f2fde38b146101da5761007b565b806312a1c2ca146100805780631c6743e4146100b05780632458c544146100ed578063715018a61461012a575b600080fd5b61009a60048036038101906100959190610dc3565b610203565b6040516100a79190610fa3565b60405180910390f35b3480156100bc57600080fd5b506100d760048036038101906100d29190610cef565b610423565b6040516100e49190611025565b60405180910390f35b3480156100f957600080fd5b50610114600480360381019061010f9190610d1c565b61043b565b6040516101219190611025565b60405180910390f35b34801561013657600080fd5b5061013f61068b565b005b34801561014d57600080fd5b50610156610713565b6040516101639190610f04565b60405180910390f35b34801561017857600080fd5b50610193600480360381019061018e9190610dc3565b61073c565b6040516101a69796959493929190610f1f565b60405180910390f35b3480156101bb57600080fd5b506101c4610946565b6040516101d19190611025565b60405180910390f35b3480156101e657600080fd5b5061020160048036038101906101fc9190610cef565b610994565b005b606081341461021157600080fd5b600160008154809291906102249061121d565b919050555060006004805490504260048054905060015460405160200161024d93929190610ec7565b6040516020818303038152906040528051906020012060001c6102709190611270565b9050600060029050600081428360015460405160200161029293929190610ec7565b6040516020818303038152906040528051906020012060001c6102b59190611270565b905060005b600480549050811015610419576102f1600482815481106102de576102dd61132e565b5b9060005260206000209060070201610a8c565b6102fa57600080fd5b6004818154811061030e5761030d61132e565b5b906000526020600020906007020160000160009054906101000a900473ffffffffffffffffffffffffffffffffffffffff1673ffffffffffffffffffffffffffffffffffffffff163373ffffffffffffffffffffffffffffffffffffffff1614156104065760008214156103c557610384610a9d565b6040518060400160405280600a81526020017f4861732067616e61646f0000000000000000000000000000000000000000000081525094505050505061041e565b6040518060400160405280600b81526020017f486173207065726469646f00000000000000000000000000000000000000000081525094505050505061041e565b80806104119061121d565b9150506102ba565b505050505b919050565b60056020528060005260406000206000915090505481565b60006001600560003373ffffffffffffffffffffffffffffffffffffffff1673ffffffffffffffffffffffffffffffffffffffff16815260200190815260200160002054106104bf576040517f08c379a00000000000000000000000000000000000000000000000000000000081526004016104b690610fc5565b60405180910390fd5b60046040518060e001604052803373ffffffffffffffffffffffffffffffffffffffff16815260200186815260200185815260200184815260200160008152602001600081526020016003544261051691906110b2565b63ffffffff16815250908060018154018082558091505060019003906000526020600020906007020160009091909190915060008201518160000160006101000a81548173ffffffffffffffffffffffffffffffffffffffff021916908373ffffffffffffffffffffffffffffffffffffffff16021790555060208201518160010190805190602001906105ab929190610bb2565b5060408201518160020190805190602001906105c8929190610bb2565b5060608201518160030190805190602001906105e5929190610bb2565b506080820151816004015560a0820151816005015560c082015181600601555050600560003373ffffffffffffffffffffffffffffffffffffffff1673ffffffffffffffffffffffffffffffffffffffff16815260200190815260200160002060008154809291906106569061121d565b91905055506002600081548092919061066e9061121d565b919050555060016002546106829190611108565b90509392505050565b610693610ae6565b73ffffffffffffffffffffffffffffffffffffffff166106b1610713565b73ffffffffffffffffffffffffffffffffffffffff1614610707576040517f08c379a00000000000000000000000000000000000000000000000000000000081526004016106fe90611005565b60405180910390fd5b6107116000610aee565b565b60008060009054906101000a900473ffffffffffffffffffffffffffffffffffffffff16905090565b6004818154811061074c57600080fd5b90600052602060002090600702016000915090508060000160009054906101000a900473ffffffffffffffffffffffffffffffffffffffff1690806001018054610795906111ba565b80601f01602080910402602001604051908101604052809291908181526020018280546107c1906111ba565b801561080e5780601f106107e35761010080835404028352916020019161080e565b820191906000526020600020905b8154815290600101906020018083116107f157829003601f168201915b505050505090806002018054610823906111ba565b80601f016020809104026020016040519081016040528092919081815260200182805461084f906111ba565b801561089c5780601f106108715761010080835404028352916020019161089c565b820191906000526020600020905b81548152906001019060200180831161087f57829003601f168201915b5050505050908060030180546108b1906111ba565b80601f01602080910402602001604051908101604052809291908181526020018280546108dd906111ba565b801561092a5780601f106108ff5761010080835404028352916020019161092a565b820191906000526020600020905b81548152906001019060200180831161090d57829003601f168201915b5050505050908060040154908060050154908060060154905087565b60008060029050600081428360015460405160200161096793929190610ec7565b6040516020818303038152906040528051906020012060001c61098a9190611270565b9050809250505090565b61099c610ae6565b73ffffffffffffffffffffffffffffffffffffffff166109ba610713565b73ffffffffffffffffffffffffffffffffffffffff1614610a10576040517f08c379a0000000000000000000000000000000000000000000000000000000008152600401610a0790611005565b60405180910390fd5b600073ffffffffffffffffffffffffffffffffffffffff168173ffffffffffffffffffffffffffffffffffffffff161415610a80576040517f08c379a0000000000000000000000000000000000000000000000000000000008152600401610a7790610fe5565b60405180910390fd5b610a8981610aee565b50565b600042826006015411159050919050565b3373ffffffffffffffffffffffffffffffffffffffff166108fc479081150290604051600060405180830381858888f19350505050158015610ae3573d6000803e3d6000fd5b50565b600033905090565b60008060009054906101000a900473ffffffffffffffffffffffffffffffffffffffff169050816000806101000a81548173ffffffffffffffffffffffffffffffffffffffff021916908373ffffffffffffffffffffffffffffffffffffffff1602179055508173ffffffffffffffffffffffffffffffffffffffff168173ffffffffffffffffffffffffffffffffffffffff167f8be0079c531659141344cd1fd0a4f28419497f9722a3daafe3b4186f6b6457e060405160405180910390a35050565b828054610bbe906111ba565b90600052602060002090601f016020900481019282610be05760008555610c27565b82601f10610bf957805160ff1916838001178555610c27565b82800160010185558215610c27579182015b82811115610c26578251825591602001919060010190610c0b565b5b509050610c349190610c38565b5090565b5b80821115610c51576000816000905550600101610c39565b5090565b6000610c68610c6384611065565b611040565b905082815260208101848484011115610c8457610c83611391565b5b610c8f848285611178565b509392505050565b600081359050610ca681611478565b92915050565b600082601f830112610cc157610cc061138c565b5b8135610cd1848260208601610c55565b91505092915050565b600081359050610ce98161148f565b92915050565b600060208284031215610d0557610d0461139b565b5b6000610d1384828501610c97565b91505092915050565b600080600060608486031215610d3557610d3461139b565b5b600084013567ffffffffffffffff811115610d5357610d52611396565b5b610d5f86828701610cac565b935050602084013567ffffffffffffffff811115610d8057610d7f611396565b5b610d8c86828701610cac565b925050604084013567ffffffffffffffff811115610dad57610dac611396565b5b610db986828701610cac565b9150509250925092565b600060208284031215610dd957610dd861139b565b5b6000610de784828501610cda565b91505092915050565b610df98161113c565b82525050565b6000610e0a82611096565b610e1481856110a1565b9350610e24818560208601611187565b610e2d816113a0565b840191505092915050565b6000610e456028836110a1565b9150610e50826113b1565b604082019050919050565b6000610e686026836110a1565b9150610e7382611400565b604082019050919050565b6000610e8b6020836110a1565b9150610e968261144f565b602082019050919050565b610eaa8161116e565b82525050565b610ec1610ebc8261116e565b611266565b82525050565b6000610ed38286610eb0565b602082019150610ee38285610eb0565b602082019150610ef38284610eb0565b602082019150819050949350505050565b6000602082019050610f196000830184610df0565b92915050565b600060e082019050610f34600083018a610df0565b8181036020830152610f468189610dff565b90508181036040830152610f5a8188610dff565b90508181036060830152610f6e8187610dff565b9050610f7d6080830186610ea1565b610f8a60a0830185610ea1565b610f9760c0830184610ea1565b98975050505050505050565b60006020820190508181036000830152610fbd8184610dff565b905092915050565b60006020820190508181036000830152610fde81610e38565b9050919050565b60006020820190508181036000830152610ffe81610e5b565b9050919050565b6000602082019050818103600083015261101e81610e7e565b9050919050565b600060208201905061103a6000830184610ea1565b92915050565b600061104a61105b565b905061105682826111ec565b919050565b6000604051905090565b600067ffffffffffffffff8211156110805761107f61135d565b5b611089826113a0565b9050602081019050919050565b600081519050919050565b600082825260208201905092915050565b60006110bd8261116e565b91506110c88361116e565b9250827fffffffffffffffffffffffffffffffffffffffffffffffffffffffffffffffff038211156110fd576110fc6112a1565b5b828201905092915050565b60006111138261116e565b915061111e8361116e565b925082821015611131576111306112a1565b5b828203905092915050565b60006111478261114e565b9050919050565b600073ffffffffffffffffffffffffffffffffffffffff82169050919050565b6000819050919050565b82818337600083830152505050565b60005b838110156111a557808201518184015260208101905061118a565b838111156111b4576000848401525b50505050565b600060028204905060018216806111d257607f821691505b602082108114156111e6576111e56112ff565b5b50919050565b6111f5826113a0565b810181811067ffffffffffffffff821117156112145761121361135d565b5b80604052505050565b60006112288261116e565b91507fffffffffffffffffffffffffffffffffffffffffffffffffffffffffffffffff82141561125b5761125a6112a1565b5b600182019050919050565b6000819050919050565b600061127b8261116e565b91506112868361116e565b925082611296576112956112d0565b5b828206905092915050565b7f4e487b7100000000000000000000000000000000000000000000000000000000600052601160045260246000fd5b7f4e487b7100000000000000000000000000000000000000000000000000000000600052601260045260246000fd5b7f4e487b7100000000000000000000000000000000000000000000000000000000600052602260045260246000fd5b7f4e487b7100000000000000000000000000000000000000000000000000000000600052603260045260246000fd5b7f4e487b7100000000000000000000000000000000000000000000000000000000600052604160045260246000fd5b600080fd5b600080fd5b600080fd5b600080fd5b6000601f19601f8301169050919050565b7f536f6c6f2073652070756564652074656e657220756e20636f63686520706f7260008201527f20706572736f6e61000000000000000000000000000000000000000000000000602082015250565b7f4f776e61626c653a206e6577206f776e657220697320746865207a65726f206160008201527f6464726573730000000000000000000000000000000000000000000000000000602082015250565b7f4f776e61626c653a2063616c6c6572206973206e6f7420746865206f776e6572600082015250565b6114818161113c565b811461148c57600080fd5b50565b6114988161116e565b81146114a357600080fd5b5056fea26469706673582212203ae74f51f3b0dea991ff5b6eafb1f45ed0630648e172803919066b3c7e5638cf64736f6c63430008070033",
					"opcodes": "PUSH1 0x80 PUSH1 0x40 MSTORE PUSH1 0x0 PUSH1 0x1 SSTORE PUSH1 0x0 PUSH1 0x2 SSTORE PUSH1 0x3C PUSH1 0x3 SSTORE CALLVALUE DUP1 ISZERO PUSH2 0x1F JUMPI PUSH1 0x0 DUP1 REVERT JUMPDEST POP PUSH2 0x3C PUSH2 0x31 PUSH2 0x41 PUSH1 0x20 SHL PUSH1 0x20 SHR JUMP JUMPDEST PUSH2 0x49 PUSH1 0x20 SHL PUSH1 0x20 SHR JUMP JUMPDEST PUSH2 0x10D JUMP JUMPDEST PUSH1 0x0 CALLER SWAP1 POP SWAP1 JUMP JUMPDEST PUSH1 0x0 DUP1 PUSH1 0x0 SWAP1 SLOAD SWAP1 PUSH2 0x100 EXP SWAP1 DIV PUSH20 0xFFFFFFFFFFFFFFFFFFFFFFFFFFFFFFFFFFFFFFFF AND SWAP1 POP DUP2 PUSH1 0x0 DUP1 PUSH2 0x100 EXP DUP2 SLOAD DUP2 PUSH20 0xFFFFFFFFFFFFFFFFFFFFFFFFFFFFFFFFFFFFFFFF MUL NOT AND SWAP1 DUP4 PUSH20 0xFFFFFFFFFFFFFFFFFFFFFFFFFFFFFFFFFFFFFFFF AND MUL OR SWAP1 SSTORE POP DUP2 PUSH20 0xFFFFFFFFFFFFFFFFFFFFFFFFFFFFFFFFFFFFFFFF AND DUP2 PUSH20 0xFFFFFFFFFFFFFFFFFFFFFFFFFFFFFFFFFFFFFFFF AND PUSH32 0x8BE0079C531659141344CD1FD0A4F28419497F9722A3DAAFE3B4186F6B6457E0 PUSH1 0x40 MLOAD PUSH1 0x40 MLOAD DUP1 SWAP2 SUB SWAP1 LOG3 POP POP JUMP JUMPDEST PUSH2 0x14DC DUP1 PUSH2 0x11C PUSH1 0x0 CODECOPY PUSH1 0x0 RETURN INVALID PUSH1 0x80 PUSH1 0x40 MSTORE PUSH1 0x4 CALLDATASIZE LT PUSH2 0x7B JUMPI PUSH1 0x0 CALLDATALOAD PUSH1 0xE0 SHR DUP1 PUSH4 0x8DA5CB5B GT PUSH2 0x4E JUMPI DUP1 PUSH4 0x8DA5CB5B EQ PUSH2 0x141 JUMPI DUP1 PUSH4 0xD735573D EQ PUSH2 0x16C JUMPI DUP1 PUSH4 0xF1413763 EQ PUSH2 0x1AF JUMPI DUP1 PUSH4 0xF2FDE38B EQ PUSH2 0x1DA JUMPI PUSH2 0x7B JUMP JUMPDEST DUP1 PUSH4 0x12A1C2CA EQ PUSH2 0x80 JUMPI DUP1 PUSH4 0x1C6743E4 EQ PUSH2 0xB0 JUMPI DUP1 PUSH4 0x2458C544 EQ PUSH2 0xED JUMPI DUP1 PUSH4 0x715018A6 EQ PUSH2 0x12A JUMPI JUMPDEST PUSH1 0x0 DUP1 REVERT JUMPDEST PUSH2 0x9A PUSH1 0x4 DUP1 CALLDATASIZE SUB DUP2 ADD SWAP1 PUSH2 0x95 SWAP2 SWAP1 PUSH2 0xDC3 JUMP JUMPDEST PUSH2 0x203 JUMP JUMPDEST PUSH1 0x40 MLOAD PUSH2 0xA7 SWAP2 SWAP1 PUSH2 0xFA3 JUMP JUMPDEST PUSH1 0x40 MLOAD DUP1 SWAP2 SUB SWAP1 RETURN JUMPDEST CALLVALUE DUP1 ISZERO PUSH2 0xBC JUMPI PUSH1 0x0 DUP1 REVERT JUMPDEST POP PUSH2 0xD7 PUSH1 0x4 DUP1 CALLDATASIZE SUB DUP2 ADD SWAP1 PUSH2 0xD2 SWAP2 SWAP1 PUSH2 0xCEF JUMP JUMPDEST PUSH2 0x423 JUMP JUMPDEST PUSH1 0x40 MLOAD PUSH2 0xE4 SWAP2 SWAP1 PUSH2 0x1025 JUMP JUMPDEST PUSH1 0x40 MLOAD DUP1 SWAP2 SUB SWAP1 RETURN JUMPDEST CALLVALUE DUP1 ISZERO PUSH2 0xF9 JUMPI PUSH1 0x0 DUP1 REVERT JUMPDEST POP PUSH2 0x114 PUSH1 0x4 DUP1 CALLDATASIZE SUB DUP2 ADD SWAP1 PUSH2 0x10F SWAP2 SWAP1 PUSH2 0xD1C JUMP JUMPDEST PUSH2 0x43B JUMP JUMPDEST PUSH1 0x40 MLOAD PUSH2 0x121 SWAP2 SWAP1 PUSH2 0x1025 JUMP JUMPDEST PUSH1 0x40 MLOAD DUP1 SWAP2 SUB SWAP1 RETURN JUMPDEST CALLVALUE DUP1 ISZERO PUSH2 0x136 JUMPI PUSH1 0x0 DUP1 REVERT JUMPDEST POP PUSH2 0x13F PUSH2 0x68B JUMP JUMPDEST STOP JUMPDEST CALLVALUE DUP1 ISZERO PUSH2 0x14D JUMPI PUSH1 0x0 DUP1 REVERT JUMPDEST POP PUSH2 0x156 PUSH2 0x713 JUMP JUMPDEST PUSH1 0x40 MLOAD PUSH2 0x163 SWAP2 SWAP1 PUSH2 0xF04 JUMP JUMPDEST PUSH1 0x40 MLOAD DUP1 SWAP2 SUB SWAP1 RETURN JUMPDEST CALLVALUE DUP1 ISZERO PUSH2 0x178 JUMPI PUSH1 0x0 DUP1 REVERT JUMPDEST POP PUSH2 0x193 PUSH1 0x4 DUP1 CALLDATASIZE SUB DUP2 ADD SWAP1 PUSH2 0x18E SWAP2 SWAP1 PUSH2 0xDC3 JUMP JUMPDEST PUSH2 0x73C JUMP JUMPDEST PUSH1 0x40 MLOAD PUSH2 0x1A6 SWAP8 SWAP7 SWAP6 SWAP5 SWAP4 SWAP3 SWAP2 SWAP1 PUSH2 0xF1F JUMP JUMPDEST PUSH1 0x40 MLOAD DUP1 SWAP2 SUB SWAP1 RETURN JUMPDEST CALLVALUE DUP1 ISZERO PUSH2 0x1BB JUMPI PUSH1 0x0 DUP1 REVERT JUMPDEST POP PUSH2 0x1C4 PUSH2 0x946 JUMP JUMPDEST PUSH1 0x40 MLOAD PUSH2 0x1D1 SWAP2 SWAP1 PUSH2 0x1025 JUMP JUMPDEST PUSH1 0x40 MLOAD DUP1 SWAP2 SUB SWAP1 RETURN JUMPDEST CALLVALUE DUP1 ISZERO PUSH2 0x1E6 JUMPI PUSH1 0x0 DUP1 REVERT JUMPDEST POP PUSH2 0x201 PUSH1 0x4 DUP1 CALLDATASIZE SUB DUP2 ADD SWAP1 PUSH2 0x1FC SWAP2 SWAP1 PUSH2 0xCEF JUMP JUMPDEST PUSH2 0x994 JUMP JUMPDEST STOP JUMPDEST PUSH1 0x60 DUP2 CALLVALUE EQ PUSH2 0x211 JUMPI PUSH1 0x0 DUP1 REVERT JUMPDEST PUSH1 0x1 PUSH1 0x0 DUP2 SLOAD DUP1 SWAP3 SWAP2 SWAP1 PUSH2 0x224 SWAP1 PUSH2 0x121D JUMP JUMPDEST SWAP2 SWAP1 POP SSTORE POP PUSH1 0x0 PUSH1 0x4 DUP1 SLOAD SWAP1 POP TIMESTAMP PUSH1 0x4 DUP1 SLOAD SWAP1 POP PUSH1 0x1 SLOAD PUSH1 0x40 MLOAD PUSH1 0x20 ADD PUSH2 0x24D SWAP4 SWAP3 SWAP2 SWAP1 PUSH2 0xEC7 JUMP JUMPDEST PUSH1 0x40 MLOAD PUSH1 0x20 DUP2 DUP4 SUB SUB DUP2 MSTORE SWAP1 PUSH1 0x40 MSTORE DUP1 MLOAD SWAP1 PUSH1 0x20 ADD KECCAK256 PUSH1 0x0 SHR PUSH2 0x270 SWAP2 SWAP1 PUSH2 0x1270 JUMP JUMPDEST SWAP1 POP PUSH1 0x0 PUSH1 0x2 SWAP1 POP PUSH1 0x0 DUP2 TIMESTAMP DUP4 PUSH1 0x1 SLOAD PUSH1 0x40 MLOAD PUSH1 0x20 ADD PUSH2 0x292 SWAP4 SWAP3 SWAP2 SWAP1 PUSH2 0xEC7 JUMP JUMPDEST PUSH1 0x40 MLOAD PUSH1 0x20 DUP2 DUP4 SUB SUB DUP2 MSTORE SWAP1 PUSH1 0x40 MSTORE DUP1 MLOAD SWAP1 PUSH1 0x20 ADD KECCAK256 PUSH1 0x0 SHR PUSH2 0x2B5 SWAP2 SWAP1 PUSH2 0x1270 JUMP JUMPDEST SWAP1 POP PUSH1 0x0 JUMPDEST PUSH1 0x4 DUP1 SLOAD SWAP1 POP DUP2 LT ISZERO PUSH2 0x419 JUMPI PUSH2 0x2F1 PUSH1 0x4 DUP3 DUP2 SLOAD DUP2 LT PUSH2 0x2DE JUMPI PUSH2 0x2DD PUSH2 0x132E JUMP JUMPDEST JUMPDEST SWAP1 PUSH1 0x0 MSTORE PUSH1 0x20 PUSH1 0x0 KECCAK256 SWAP1 PUSH1 0x7 MUL ADD PUSH2 0xA8C JUMP JUMPDEST PUSH2 0x2FA JUMPI PUSH1 0x0 DUP1 REVERT JUMPDEST PUSH1 0x4 DUP2 DUP2 SLOAD DUP2 LT PUSH2 0x30E JUMPI PUSH2 0x30D PUSH2 0x132E JUMP JUMPDEST JUMPDEST SWAP1 PUSH1 0x0 MSTORE PUSH1 0x20 PUSH1 0x0 KECCAK256 SWAP1 PUSH1 0x7 MUL ADD PUSH1 0x0 ADD PUSH1 0x0 SWAP1 SLOAD SWAP1 PUSH2 0x100 EXP SWAP1 DIV PUSH20 0xFFFFFFFFFFFFFFFFFFFFFFFFFFFFFFFFFFFFFFFF AND PUSH20 0xFFFFFFFFFFFFFFFFFFFFFFFFFFFFFFFFFFFFFFFF AND CALLER PUSH20 0xFFFFFFFFFFFFFFFFFFFFFFFFFFFFFFFFFFFFFFFF AND EQ ISZERO PUSH2 0x406 JUMPI PUSH1 0x0 DUP3 EQ ISZERO PUSH2 0x3C5 JUMPI PUSH2 0x384 PUSH2 0xA9D JUMP JUMPDEST PUSH1 0x40 MLOAD DUP1 PUSH1 0x40 ADD PUSH1 0x40 MSTORE DUP1 PUSH1 0xA DUP2 MSTORE PUSH1 0x20 ADD PUSH32 0x4861732067616E61646F00000000000000000000000000000000000000000000 DUP2 MSTORE POP SWAP5 POP POP POP POP POP PUSH2 0x41E JUMP JUMPDEST PUSH1 0x40 MLOAD DUP1 PUSH1 0x40 ADD PUSH1 0x40 MSTORE DUP1 PUSH1 0xB DUP2 MSTORE PUSH1 0x20 ADD PUSH32 0x486173207065726469646F000000000000000000000000000000000000000000 DUP2 MSTORE POP SWAP5 POP POP POP POP POP PUSH2 0x41E JUMP JUMPDEST DUP1 DUP1 PUSH2 0x411 SWAP1 PUSH2 0x121D JUMP JUMPDEST SWAP2 POP POP PUSH2 0x2BA JUMP JUMPDEST POP POP POP POP JUMPDEST SWAP2 SWAP1 POP JUMP JUMPDEST PUSH1 0x5 PUSH1 0x20 MSTORE DUP1 PUSH1 0x0 MSTORE PUSH1 0x40 PUSH1 0x0 KECCAK256 PUSH1 0x0 SWAP2 POP SWAP1 POP SLOAD DUP2 JUMP JUMPDEST PUSH1 0x0 PUSH1 0x1 PUSH1 0x5 PUSH1 0x0 CALLER PUSH20 0xFFFFFFFFFFFFFFFFFFFFFFFFFFFFFFFFFFFFFFFF AND PUSH20 0xFFFFFFFFFFFFFFFFFFFFFFFFFFFFFFFFFFFFFFFF AND DUP2 MSTORE PUSH1 0x20 ADD SWAP1 DUP2 MSTORE PUSH1 0x20 ADD PUSH1 0x0 KECCAK256 SLOAD LT PUSH2 0x4BF JUMPI PUSH1 0x40 MLOAD PUSH32 0x8C379A000000000000000000000000000000000000000000000000000000000 DUP2 MSTORE PUSH1 0x4 ADD PUSH2 0x4B6 SWAP1 PUSH2 0xFC5 JUMP JUMPDEST PUSH1 0x40 MLOAD DUP1 SWAP2 SUB SWAP1 REVERT JUMPDEST PUSH1 0x4 PUSH1 0x40 MLOAD DUP1 PUSH1 0xE0 ADD PUSH1 0x40 MSTORE DUP1 CALLER PUSH20 0xFFFFFFFFFFFFFFFFFFFFFFFFFFFFFFFFFFFFFFFF AND DUP2 MSTORE PUSH1 0x20 ADD DUP7 DUP2 MSTORE PUSH1 0x20 ADD DUP6 DUP2 MSTORE PUSH1 0x20 ADD DUP5 DUP2 MSTORE PUSH1 0x20 ADD PUSH1 0x0 DUP2 MSTORE PUSH1 0x20 ADD PUSH1 0x0 DUP2 MSTORE PUSH1 0x20 ADD PUSH1 0x3 SLOAD TIMESTAMP PUSH2 0x516 SWAP2 SWAP1 PUSH2 0x10B2 JUMP JUMPDEST PUSH4 0xFFFFFFFF AND DUP2 MSTORE POP SWAP1 DUP1 PUSH1 0x1 DUP2 SLOAD ADD DUP1 DUP3 SSTORE DUP1 SWAP2 POP POP PUSH1 0x1 SWAP1 SUB SWAP1 PUSH1 0x0 MSTORE PUSH1 0x20 PUSH1 0x0 KECCAK256 SWAP1 PUSH1 0x7 MUL ADD PUSH1 0x0 SWAP1 SWAP2 SWAP1 SWAP2 SWAP1 SWAP2 POP PUSH1 0x0 DUP3 ADD MLOAD DUP2 PUSH1 0x0 ADD PUSH1 0x0 PUSH2 0x100 EXP DUP2 SLOAD DUP2 PUSH20 0xFFFFFFFFFFFFFFFFFFFFFFFFFFFFFFFFFFFFFFFF MUL NOT AND SWAP1 DUP4 PUSH20 0xFFFFFFFFFFFFFFFFFFFFFFFFFFFFFFFFFFFFFFFF AND MUL OR SWAP1 SSTORE POP PUSH1 0x20 DUP3 ADD MLOAD DUP2 PUSH1 0x1 ADD SWAP1 DUP1 MLOAD SWAP1 PUSH1 0x20 ADD SWAP1 PUSH2 0x5AB SWAP3 SWAP2 SWAP1 PUSH2 0xBB2 JUMP JUMPDEST POP PUSH1 0x40 DUP3 ADD MLOAD DUP2 PUSH1 0x2 ADD SWAP1 DUP1 MLOAD SWAP1 PUSH1 0x20 ADD SWAP1 PUSH2 0x5C8 SWAP3 SWAP2 SWAP1 PUSH2 0xBB2 JUMP JUMPDEST POP PUSH1 0x60 DUP3 ADD MLOAD DUP2 PUSH1 0x3 ADD SWAP1 DUP1 MLOAD SWAP1 PUSH1 0x20 ADD SWAP1 PUSH2 0x5E5 SWAP3 SWAP2 SWAP1 PUSH2 0xBB2 JUMP JUMPDEST POP PUSH1 0x80 DUP3 ADD MLOAD DUP2 PUSH1 0x4 ADD SSTORE PUSH1 0xA0 DUP3 ADD MLOAD DUP2 PUSH1 0x5 ADD SSTORE PUSH1 0xC0 DUP3 ADD MLOAD DUP2 PUSH1 0x6 ADD SSTORE POP POP PUSH1 0x5 PUSH1 0x0 CALLER PUSH20 0xFFFFFFFFFFFFFFFFFFFFFFFFFFFFFFFFFFFFFFFF AND PUSH20 0xFFFFFFFFFFFFFFFFFFFFFFFFFFFFFFFFFFFFFFFF AND DUP2 MSTORE PUSH1 0x20 ADD SWAP1 DUP2 MSTORE PUSH1 0x20 ADD PUSH1 0x0 KECCAK256 PUSH1 0x0 DUP2 SLOAD DUP1 SWAP3 SWAP2 SWAP1 PUSH2 0x656 SWAP1 PUSH2 0x121D JUMP JUMPDEST SWAP2 SWAP1 POP SSTORE POP PUSH1 0x2 PUSH1 0x0 DUP2 SLOAD DUP1 SWAP3 SWAP2 SWAP1 PUSH2 0x66E SWAP1 PUSH2 0x121D JUMP JUMPDEST SWAP2 SWAP1 POP SSTORE POP PUSH1 0x1 PUSH1 0x2 SLOAD PUSH2 0x682 SWAP2 SWAP1 PUSH2 0x1108 JUMP JUMPDEST SWAP1 POP SWAP4 SWAP3 POP POP POP JUMP JUMPDEST PUSH2 0x693 PUSH2 0xAE6 JUMP JUMPDEST PUSH20 0xFFFFFFFFFFFFFFFFFFFFFFFFFFFFFFFFFFFFFFFF AND PUSH2 0x6B1 PUSH2 0x713 JUMP JUMPDEST PUSH20 0xFFFFFFFFFFFFFFFFFFFFFFFFFFFFFFFFFFFFFFFF AND EQ PUSH2 0x707 JUMPI PUSH1 0x40 MLOAD PUSH32 0x8C379A000000000000000000000000000000000000000000000000000000000 DUP2 MSTORE PUSH1 0x4 ADD PUSH2 0x6FE SWAP1 PUSH2 0x1005 JUMP JUMPDEST PUSH1 0x40 MLOAD DUP1 SWAP2 SUB SWAP1 REVERT JUMPDEST PUSH2 0x711 PUSH1 0x0 PUSH2 0xAEE JUMP JUMPDEST JUMP JUMPDEST PUSH1 0x0 DUP1 PUSH1 0x0 SWAP1 SLOAD SWAP1 PUSH2 0x100 EXP SWAP1 DIV PUSH20 0xFFFFFFFFFFFFFFFFFFFFFFFFFFFFFFFFFFFFFFFF AND SWAP1 POP SWAP1 JUMP JUMPDEST PUSH1 0x4 DUP2 DUP2 SLOAD DUP2 LT PUSH2 0x74C JUMPI PUSH1 0x0 DUP1 REVERT JUMPDEST SWAP1 PUSH1 0x0 MSTORE PUSH1 0x20 PUSH1 0x0 KECCAK256 SWAP1 PUSH1 0x7 MUL ADD PUSH1 0x0 SWAP2 POP SWAP1 POP DUP1 PUSH1 0x0 ADD PUSH1 0x0 SWAP1 SLOAD SWAP1 PUSH2 0x100 EXP SWAP1 DIV PUSH20 0xFFFFFFFFFFFFFFFFFFFFFFFFFFFFFFFFFFFFFFFF AND SWAP1 DUP1 PUSH1 0x1 ADD DUP1 SLOAD PUSH2 0x795 SWAP1 PUSH2 0x11BA JUMP JUMPDEST DUP1 PUSH1 0x1F ADD PUSH1 0x20 DUP1 SWAP2 DIV MUL PUSH1 0x20 ADD PUSH1 0x40 MLOAD SWAP1 DUP2 ADD PUSH1 0x40 MSTORE DUP1 SWAP3 SWAP2 SWAP1 DUP2 DUP2 MSTORE PUSH1 0x20 ADD DUP3 DUP1 SLOAD PUSH2 0x7C1 SWAP1 PUSH2 0x11BA JUMP JUMPDEST DUP1 ISZERO PUSH2 0x80E JUMPI DUP1 PUSH1 0x1F LT PUSH2 0x7E3 JUMPI PUSH2 0x100 DUP1 DUP4 SLOAD DIV MUL DUP4 MSTORE SWAP2 PUSH1 0x20 ADD SWAP2 PUSH2 0x80E JUMP JUMPDEST DUP3 ADD SWAP2 SWAP1 PUSH1 0x0 MSTORE PUSH1 0x20 PUSH1 0x0 KECCAK256 SWAP1 JUMPDEST DUP2 SLOAD DUP2 MSTORE SWAP1 PUSH1 0x1 ADD SWAP1 PUSH1 0x20 ADD DUP1 DUP4 GT PUSH2 0x7F1 JUMPI DUP3 SWAP1 SUB PUSH1 0x1F AND DUP3 ADD SWAP2 JUMPDEST POP POP POP POP POP SWAP1 DUP1 PUSH1 0x2 ADD DUP1 SLOAD PUSH2 0x823 SWAP1 PUSH2 0x11BA JUMP JUMPDEST DUP1 PUSH1 0x1F ADD PUSH1 0x20 DUP1 SWAP2 DIV MUL PUSH1 0x20 ADD PUSH1 0x40 MLOAD SWAP1 DUP2 ADD PUSH1 0x40 MSTORE DUP1 SWAP3 SWAP2 SWAP1 DUP2 DUP2 MSTORE PUSH1 0x20 ADD DUP3 DUP1 SLOAD PUSH2 0x84F SWAP1 PUSH2 0x11BA JUMP JUMPDEST DUP1 ISZERO PUSH2 0x89C JUMPI DUP1 PUSH1 0x1F LT PUSH2 0x871 JUMPI PUSH2 0x100 DUP1 DUP4 SLOAD DIV MUL DUP4 MSTORE SWAP2 PUSH1 0x20 ADD SWAP2 PUSH2 0x89C JUMP JUMPDEST DUP3 ADD SWAP2 SWAP1 PUSH1 0x0 MSTORE PUSH1 0x20 PUSH1 0x0 KECCAK256 SWAP1 JUMPDEST DUP2 SLOAD DUP2 MSTORE SWAP1 PUSH1 0x1 ADD SWAP1 PUSH1 0x20 ADD DUP1 DUP4 GT PUSH2 0x87F JUMPI DUP3 SWAP1 SUB PUSH1 0x1F AND DUP3 ADD SWAP2 JUMPDEST POP POP POP POP POP SWAP1 DUP1 PUSH1 0x3 ADD DUP1 SLOAD PUSH2 0x8B1 SWAP1 PUSH2 0x11BA JUMP JUMPDEST DUP1 PUSH1 0x1F ADD PUSH1 0x20 DUP1 SWAP2 DIV MUL PUSH1 0x20 ADD PUSH1 0x40 MLOAD SWAP1 DUP2 ADD PUSH1 0x40 MSTORE DUP1 SWAP3 SWAP2 SWAP1 DUP2 DUP2 MSTORE PUSH1 0x20 ADD DUP3 DUP1 SLOAD PUSH2 0x8DD SWAP1 PUSH2 0x11BA JUMP JUMPDEST DUP1 ISZERO PUSH2 0x92A JUMPI DUP1 PUSH1 0x1F LT PUSH2 0x8FF JUMPI PUSH2 0x100 DUP1 DUP4 SLOAD DIV MUL DUP4 MSTORE SWAP2 PUSH1 0x20 ADD SWAP2 PUSH2 0x92A JUMP JUMPDEST DUP3 ADD SWAP2 SWAP1 PUSH1 0x0 MSTORE PUSH1 0x20 PUSH1 0x0 KECCAK256 SWAP1 JUMPDEST DUP2 SLOAD DUP2 MSTORE SWAP1 PUSH1 0x1 ADD SWAP1 PUSH1 0x20 ADD DUP1 DUP4 GT PUSH2 0x90D JUMPI DUP3 SWAP1 SUB PUSH1 0x1F AND DUP3 ADD SWAP2 JUMPDEST POP POP POP POP POP SWAP1 DUP1 PUSH1 0x4 ADD SLOAD SWAP1 DUP1 PUSH1 0x5 ADD SLOAD SWAP1 DUP1 PUSH1 0x6 ADD SLOAD SWAP1 POP DUP8 JUMP JUMPDEST PUSH1 0x0 DUP1 PUSH1 0x2 SWAP1 POP PUSH1 0x0 DUP2 TIMESTAMP DUP4 PUSH1 0x1 SLOAD PUSH1 0x40 MLOAD PUSH1 0x20 ADD PUSH2 0x967 SWAP4 SWAP3 SWAP2 SWAP1 PUSH2 0xEC7 JUMP JUMPDEST PUSH1 0x40 MLOAD PUSH1 0x20 DUP2 DUP4 SUB SUB DUP2 MSTORE SWAP1 PUSH1 0x40 MSTORE DUP1 MLOAD SWAP1 PUSH1 0x20 ADD KECCAK256 PUSH1 0x0 SHR PUSH2 0x98A SWAP2 SWAP1 PUSH2 0x1270 JUMP JUMPDEST SWAP1 POP DUP1 SWAP3 POP POP POP SWAP1 JUMP JUMPDEST PUSH2 0x99C PUSH2 0xAE6 JUMP JUMPDEST PUSH20 0xFFFFFFFFFFFFFFFFFFFFFFFFFFFFFFFFFFFFFFFF AND PUSH2 0x9BA PUSH2 0x713 JUMP JUMPDEST PUSH20 0xFFFFFFFFFFFFFFFFFFFFFFFFFFFFFFFFFFFFFFFF AND EQ PUSH2 0xA10 JUMPI PUSH1 0x40 MLOAD PUSH32 0x8C379A000000000000000000000000000000000000000000000000000000000 DUP2 MSTORE PUSH1 0x4 ADD PUSH2 0xA07 SWAP1 PUSH2 0x1005 JUMP JUMPDEST PUSH1 0x40 MLOAD DUP1 SWAP2 SUB SWAP1 REVERT JUMPDEST PUSH1 0x0 PUSH20 0xFFFFFFFFFFFFFFFFFFFFFFFFFFFFFFFFFFFFFFFF AND DUP2 PUSH20 0xFFFFFFFFFFFFFFFFFFFFFFFFFFFFFFFFFFFFFFFF AND EQ ISZERO PUSH2 0xA80 JUMPI PUSH1 0x40 MLOAD PUSH32 0x8C379A000000000000000000000000000000000000000000000000000000000 DUP2 MSTORE PUSH1 0x4 ADD PUSH2 0xA77 SWAP1 PUSH2 0xFE5 JUMP JUMPDEST PUSH1 0x40 MLOAD DUP1 SWAP2 SUB SWAP1 REVERT JUMPDEST PUSH2 0xA89 DUP2 PUSH2 0xAEE JUMP JUMPDEST POP JUMP JUMPDEST PUSH1 0x0 TIMESTAMP DUP3 PUSH1 0x6 ADD SLOAD GT ISZERO SWAP1 POP SWAP2 SWAP1 POP JUMP JUMPDEST CALLER PUSH20 0xFFFFFFFFFFFFFFFFFFFFFFFFFFFFFFFFFFFFFFFF AND PUSH2 0x8FC SELFBALANCE SWAP1 DUP2 ISZERO MUL SWAP1 PUSH1 0x40 MLOAD PUSH1 0x0 PUSH1 0x40 MLOAD DUP1 DUP4 SUB DUP2 DUP6 DUP9 DUP9 CALL SWAP4 POP POP POP POP ISZERO DUP1 ISZERO PUSH2 0xAE3 JUMPI RETURNDATASIZE PUSH1 0x0 DUP1 RETURNDATACOPY RETURNDATASIZE PUSH1 0x0 REVERT JUMPDEST POP JUMP JUMPDEST PUSH1 0x0 CALLER SWAP1 POP SWAP1 JUMP JUMPDEST PUSH1 0x0 DUP1 PUSH1 0x0 SWAP1 SLOAD SWAP1 PUSH2 0x100 EXP SWAP1 DIV PUSH20 0xFFFFFFFFFFFFFFFFFFFFFFFFFFFFFFFFFFFFFFFF AND SWAP1 POP DUP2 PUSH1 0x0 DUP1 PUSH2 0x100 EXP DUP2 SLOAD DUP2 PUSH20 0xFFFFFFFFFFFFFFFFFFFFFFFFFFFFFFFFFFFFFFFF MUL NOT AND SWAP1 DUP4 PUSH20 0xFFFFFFFFFFFFFFFFFFFFFFFFFFFFFFFFFFFFFFFF AND MUL OR SWAP1 SSTORE POP DUP2 PUSH20 0xFFFFFFFFFFFFFFFFFFFFFFFFFFFFFFFFFFFFFFFF AND DUP2 PUSH20 0xFFFFFFFFFFFFFFFFFFFFFFFFFFFFFFFFFFFFFFFF AND PUSH32 0x8BE0079C531659141344CD1FD0A4F28419497F9722A3DAAFE3B4186F6B6457E0 PUSH1 0x40 MLOAD PUSH1 0x40 MLOAD DUP1 SWAP2 SUB SWAP1 LOG3 POP POP JUMP JUMPDEST DUP3 DUP1 SLOAD PUSH2 0xBBE SWAP1 PUSH2 0x11BA JUMP JUMPDEST SWAP1 PUSH1 0x0 MSTORE PUSH1 0x20 PUSH1 0x0 KECCAK256 SWAP1 PUSH1 0x1F ADD PUSH1 0x20 SWAP1 DIV DUP2 ADD SWAP3 DUP3 PUSH2 0xBE0 JUMPI PUSH1 0x0 DUP6 SSTORE PUSH2 0xC27 JUMP JUMPDEST DUP3 PUSH1 0x1F LT PUSH2 0xBF9 JUMPI DUP1 MLOAD PUSH1 0xFF NOT AND DUP4 DUP1 ADD OR DUP6 SSTORE PUSH2 0xC27 JUMP JUMPDEST DUP3 DUP1 ADD PUSH1 0x1 ADD DUP6 SSTORE DUP3 ISZERO PUSH2 0xC27 JUMPI SWAP2 DUP3 ADD JUMPDEST DUP3 DUP2 GT ISZERO PUSH2 0xC26 JUMPI DUP3 MLOAD DUP3 SSTORE SWAP2 PUSH1 0x20 ADD SWAP2 SWAP1 PUSH1 0x1 ADD SWAP1 PUSH2 0xC0B JUMP JUMPDEST JUMPDEST POP SWAP1 POP PUSH2 0xC34 SWAP2 SWAP1 PUSH2 0xC38 JUMP JUMPDEST POP SWAP1 JUMP JUMPDEST JUMPDEST DUP1 DUP3 GT ISZERO PUSH2 0xC51 JUMPI PUSH1 0x0 DUP2 PUSH1 0x0 SWAP1 SSTORE POP PUSH1 0x1 ADD PUSH2 0xC39 JUMP JUMPDEST POP SWAP1 JUMP JUMPDEST PUSH1 0x0 PUSH2 0xC68 PUSH2 0xC63 DUP5 PUSH2 0x1065 JUMP JUMPDEST PUSH2 0x1040 JUMP JUMPDEST SWAP1 POP DUP3 DUP2 MSTORE PUSH1 0x20 DUP2 ADD DUP5 DUP5 DUP5 ADD GT ISZERO PUSH2 0xC84 JUMPI PUSH2 0xC83 PUSH2 0x1391 JUMP JUMPDEST JUMPDEST PUSH2 0xC8F DUP5 DUP3 DUP6 PUSH2 0x1178 JUMP JUMPDEST POP SWAP4 SWAP3 POP POP POP JUMP JUMPDEST PUSH1 0x0 DUP2 CALLDATALOAD SWAP1 POP PUSH2 0xCA6 DUP2 PUSH2 0x1478 JUMP JUMPDEST SWAP3 SWAP2 POP POP JUMP JUMPDEST PUSH1 0x0 DUP3 PUSH1 0x1F DUP4 ADD SLT PUSH2 0xCC1 JUMPI PUSH2 0xCC0 PUSH2 0x138C JUMP JUMPDEST JUMPDEST DUP2 CALLDATALOAD PUSH2 0xCD1 DUP5 DUP3 PUSH1 0x20 DUP7 ADD PUSH2 0xC55 JUMP JUMPDEST SWAP2 POP POP SWAP3 SWAP2 POP POP JUMP JUMPDEST PUSH1 0x0 DUP2 CALLDATALOAD SWAP1 POP PUSH2 0xCE9 DUP2 PUSH2 0x148F JUMP JUMPDEST SWAP3 SWAP2 POP POP JUMP JUMPDEST PUSH1 0x0 PUSH1 0x20 DUP3 DUP5 SUB SLT ISZERO PUSH2 0xD05 JUMPI PUSH2 0xD04 PUSH2 0x139B JUMP JUMPDEST JUMPDEST PUSH1 0x0 PUSH2 0xD13 DUP5 DUP3 DUP6 ADD PUSH2 0xC97 JUMP JUMPDEST SWAP2 POP POP SWAP3 SWAP2 POP POP JUMP JUMPDEST PUSH1 0x0 DUP1 PUSH1 0x0 PUSH1 0x60 DUP5 DUP7 SUB SLT ISZERO PUSH2 0xD35 JUMPI PUSH2 0xD34 PUSH2 0x139B JUMP JUMPDEST JUMPDEST PUSH1 0x0 DUP5 ADD CALLDATALOAD PUSH8 0xFFFFFFFFFFFFFFFF DUP2 GT ISZERO PUSH2 0xD53 JUMPI PUSH2 0xD52 PUSH2 0x1396 JUMP JUMPDEST JUMPDEST PUSH2 0xD5F DUP7 DUP3 DUP8 ADD PUSH2 0xCAC JUMP JUMPDEST SWAP4 POP POP PUSH1 0x20 DUP5 ADD CALLDATALOAD PUSH8 0xFFFFFFFFFFFFFFFF DUP2 GT ISZERO PUSH2 0xD80 JUMPI PUSH2 0xD7F PUSH2 0x1396 JUMP JUMPDEST JUMPDEST PUSH2 0xD8C DUP7 DUP3 DUP8 ADD PUSH2 0xCAC JUMP JUMPDEST SWAP3 POP POP PUSH1 0x40 DUP5 ADD CALLDATALOAD PUSH8 0xFFFFFFFFFFFFFFFF DUP2 GT ISZERO PUSH2 0xDAD JUMPI PUSH2 0xDAC PUSH2 0x1396 JUMP JUMPDEST JUMPDEST PUSH2 0xDB9 DUP7 DUP3 DUP8 ADD PUSH2 0xCAC JUMP JUMPDEST SWAP2 POP POP SWAP3 POP SWAP3 POP SWAP3 JUMP JUMPDEST PUSH1 0x0 PUSH1 0x20 DUP3 DUP5 SUB SLT ISZERO PUSH2 0xDD9 JUMPI PUSH2 0xDD8 PUSH2 0x139B JUMP JUMPDEST JUMPDEST PUSH1 0x0 PUSH2 0xDE7 DUP5 DUP3 DUP6 ADD PUSH2 0xCDA JUMP JUMPDEST SWAP2 POP POP SWAP3 SWAP2 POP POP JUMP JUMPDEST PUSH2 0xDF9 DUP2 PUSH2 0x113C JUMP JUMPDEST DUP3 MSTORE POP POP JUMP JUMPDEST PUSH1 0x0 PUSH2 0xE0A DUP3 PUSH2 0x1096 JUMP JUMPDEST PUSH2 0xE14 DUP2 DUP6 PUSH2 0x10A1 JUMP JUMPDEST SWAP4 POP PUSH2 0xE24 DUP2 DUP6 PUSH1 0x20 DUP7 ADD PUSH2 0x1187 JUMP JUMPDEST PUSH2 0xE2D DUP2 PUSH2 0x13A0 JUMP JUMPDEST DUP5 ADD SWAP2 POP POP SWAP3 SWAP2 POP POP JUMP JUMPDEST PUSH1 0x0 PUSH2 0xE45 PUSH1 0x28 DUP4 PUSH2 0x10A1 JUMP JUMPDEST SWAP2 POP PUSH2 0xE50 DUP3 PUSH2 0x13B1 JUMP JUMPDEST PUSH1 0x40 DUP3 ADD SWAP1 POP SWAP2 SWAP1 POP JUMP JUMPDEST PUSH1 0x0 PUSH2 0xE68 PUSH1 0x26 DUP4 PUSH2 0x10A1 JUMP JUMPDEST SWAP2 POP PUSH2 0xE73 DUP3 PUSH2 0x1400 JUMP JUMPDEST PUSH1 0x40 DUP3 ADD SWAP1 POP SWAP2 SWAP1 POP JUMP JUMPDEST PUSH1 0x0 PUSH2 0xE8B PUSH1 0x20 DUP4 PUSH2 0x10A1 JUMP JUMPDEST SWAP2 POP PUSH2 0xE96 DUP3 PUSH2 0x144F JUMP JUMPDEST PUSH1 0x20 DUP3 ADD SWAP1 POP SWAP2 SWAP1 POP JUMP JUMPDEST PUSH2 0xEAA DUP2 PUSH2 0x116E JUMP JUMPDEST DUP3 MSTORE POP POP JUMP JUMPDEST PUSH2 0xEC1 PUSH2 0xEBC DUP3 PUSH2 0x116E JUMP JUMPDEST PUSH2 0x1266 JUMP JUMPDEST DUP3 MSTORE POP POP JUMP JUMPDEST PUSH1 0x0 PUSH2 0xED3 DUP3 DUP7 PUSH2 0xEB0 JUMP JUMPDEST PUSH1 0x20 DUP3 ADD SWAP2 POP PUSH2 0xEE3 DUP3 DUP6 PUSH2 0xEB0 JUMP JUMPDEST PUSH1 0x20 DUP3 ADD SWAP2 POP PUSH2 0xEF3 DUP3 DUP5 PUSH2 0xEB0 JUMP JUMPDEST PUSH1 0x20 DUP3 ADD SWAP2 POP DUP2 SWAP1 POP SWAP5 SWAP4 POP POP POP POP JUMP JUMPDEST PUSH1 0x0 PUSH1 0x20 DUP3 ADD SWAP1 POP PUSH2 0xF19 PUSH1 0x0 DUP4 ADD DUP5 PUSH2 0xDF0 JUMP JUMPDEST SWAP3 SWAP2 POP POP JUMP JUMPDEST PUSH1 0x0 PUSH1 0xE0 DUP3 ADD SWAP1 POP PUSH2 0xF34 PUSH1 0x0 DUP4 ADD DUP11 PUSH2 0xDF0 JUMP JUMPDEST DUP2 DUP2 SUB PUSH1 0x20 DUP4 ADD MSTORE PUSH2 0xF46 DUP2 DUP10 PUSH2 0xDFF JUMP JUMPDEST SWAP1 POP DUP2 DUP2 SUB PUSH1 0x40 DUP4 ADD MSTORE PUSH2 0xF5A DUP2 DUP9 PUSH2 0xDFF JUMP JUMPDEST SWAP1 POP DUP2 DUP2 SUB PUSH1 0x60 DUP4 ADD MSTORE PUSH2 0xF6E DUP2 DUP8 PUSH2 0xDFF JUMP JUMPDEST SWAP1 POP PUSH2 0xF7D PUSH1 0x80 DUP4 ADD DUP7 PUSH2 0xEA1 JUMP JUMPDEST PUSH2 0xF8A PUSH1 0xA0 DUP4 ADD DUP6 PUSH2 0xEA1 JUMP JUMPDEST PUSH2 0xF97 PUSH1 0xC0 DUP4 ADD DUP5 PUSH2 0xEA1 JUMP JUMPDEST SWAP9 SWAP8 POP POP POP POP POP POP POP POP JUMP JUMPDEST PUSH1 0x0 PUSH1 0x20 DUP3 ADD SWAP1 POP DUP2 DUP2 SUB PUSH1 0x0 DUP4 ADD MSTORE PUSH2 0xFBD DUP2 DUP5 PUSH2 0xDFF JUMP JUMPDEST SWAP1 POP SWAP3 SWAP2 POP POP JUMP JUMPDEST PUSH1 0x0 PUSH1 0x20 DUP3 ADD SWAP1 POP DUP2 DUP2 SUB PUSH1 0x0 DUP4 ADD MSTORE PUSH2 0xFDE DUP2 PUSH2 0xE38 JUMP JUMPDEST SWAP1 POP SWAP2 SWAP1 POP JUMP JUMPDEST PUSH1 0x0 PUSH1 0x20 DUP3 ADD SWAP1 POP DUP2 DUP2 SUB PUSH1 0x0 DUP4 ADD MSTORE PUSH2 0xFFE DUP2 PUSH2 0xE5B JUMP JUMPDEST SWAP1 POP SWAP2 SWAP1 POP JUMP JUMPDEST PUSH1 0x0 PUSH1 0x20 DUP3 ADD SWAP1 POP DUP2 DUP2 SUB PUSH1 0x0 DUP4 ADD MSTORE PUSH2 0x101E DUP2 PUSH2 0xE7E JUMP JUMPDEST SWAP1 POP SWAP2 SWAP1 POP JUMP JUMPDEST PUSH1 0x0 PUSH1 0x20 DUP3 ADD SWAP1 POP PUSH2 0x103A PUSH1 0x0 DUP4 ADD DUP5 PUSH2 0xEA1 JUMP JUMPDEST SWAP3 SWAP2 POP POP JUMP JUMPDEST PUSH1 0x0 PUSH2 0x104A PUSH2 0x105B JUMP JUMPDEST SWAP1 POP PUSH2 0x1056 DUP3 DUP3 PUSH2 0x11EC JUMP JUMPDEST SWAP2 SWAP1 POP JUMP JUMPDEST PUSH1 0x0 PUSH1 0x40 MLOAD SWAP1 POP SWAP1 JUMP JUMPDEST PUSH1 0x0 PUSH8 0xFFFFFFFFFFFFFFFF DUP3 GT ISZERO PUSH2 0x1080 JUMPI PUSH2 0x107F PUSH2 0x135D JUMP JUMPDEST JUMPDEST PUSH2 0x1089 DUP3 PUSH2 0x13A0 JUMP JUMPDEST SWAP1 POP PUSH1 0x20 DUP2 ADD SWAP1 POP SWAP2 SWAP1 POP JUMP JUMPDEST PUSH1 0x0 DUP2 MLOAD SWAP1 POP SWAP2 SWAP1 POP JUMP JUMPDEST PUSH1 0x0 DUP3 DUP3 MSTORE PUSH1 0x20 DUP3 ADD SWAP1 POP SWAP3 SWAP2 POP POP JUMP JUMPDEST PUSH1 0x0 PUSH2 0x10BD DUP3 PUSH2 0x116E JUMP JUMPDEST SWAP2 POP PUSH2 0x10C8 DUP4 PUSH2 0x116E JUMP JUMPDEST SWAP3 POP DUP3 PUSH32 0xFFFFFFFFFFFFFFFFFFFFFFFFFFFFFFFFFFFFFFFFFFFFFFFFFFFFFFFFFFFFFFFF SUB DUP3 GT ISZERO PUSH2 0x10FD JUMPI PUSH2 0x10FC PUSH2 0x12A1 JUMP JUMPDEST JUMPDEST DUP3 DUP3 ADD SWAP1 POP SWAP3 SWAP2 POP POP JUMP JUMPDEST PUSH1 0x0 PUSH2 0x1113 DUP3 PUSH2 0x116E JUMP JUMPDEST SWAP2 POP PUSH2 0x111E DUP4 PUSH2 0x116E JUMP JUMPDEST SWAP3 POP DUP3 DUP3 LT ISZERO PUSH2 0x1131 JUMPI PUSH2 0x1130 PUSH2 0x12A1 JUMP JUMPDEST JUMPDEST DUP3 DUP3 SUB SWAP1 POP SWAP3 SWAP2 POP POP JUMP JUMPDEST PUSH1 0x0 PUSH2 0x1147 DUP3 PUSH2 0x114E JUMP JUMPDEST SWAP1 POP SWAP2 SWAP1 POP JUMP JUMPDEST PUSH1 0x0 PUSH20 0xFFFFFFFFFFFFFFFFFFFFFFFFFFFFFFFFFFFFFFFF DUP3 AND SWAP1 POP SWAP2 SWAP1 POP JUMP JUMPDEST PUSH1 0x0 DUP2 SWAP1 POP SWAP2 SWAP1 POP JUMP JUMPDEST DUP3 DUP2 DUP4 CALLDATACOPY PUSH1 0x0 DUP4 DUP4 ADD MSTORE POP POP POP JUMP JUMPDEST PUSH1 0x0 JUMPDEST DUP4 DUP2 LT ISZERO PUSH2 0x11A5 JUMPI DUP1 DUP3 ADD MLOAD DUP2 DUP5 ADD MSTORE PUSH1 0x20 DUP2 ADD SWAP1 POP PUSH2 0x118A JUMP JUMPDEST DUP4 DUP2 GT ISZERO PUSH2 0x11B4 JUMPI PUSH1 0x0 DUP5 DUP5 ADD MSTORE JUMPDEST POP POP POP POP JUMP JUMPDEST PUSH1 0x0 PUSH1 0x2 DUP3 DIV SWAP1 POP PUSH1 0x1 DUP3 AND DUP1 PUSH2 0x11D2 JUMPI PUSH1 0x7F DUP3 AND SWAP2 POP JUMPDEST PUSH1 0x20 DUP3 LT DUP2 EQ ISZERO PUSH2 0x11E6 JUMPI PUSH2 0x11E5 PUSH2 0x12FF JUMP JUMPDEST JUMPDEST POP SWAP2 SWAP1 POP JUMP JUMPDEST PUSH2 0x11F5 DUP3 PUSH2 0x13A0 JUMP JUMPDEST DUP2 ADD DUP2 DUP2 LT PUSH8 0xFFFFFFFFFFFFFFFF DUP3 GT OR ISZERO PUSH2 0x1214 JUMPI PUSH2 0x1213 PUSH2 0x135D JUMP JUMPDEST JUMPDEST DUP1 PUSH1 0x40 MSTORE POP POP POP JUMP JUMPDEST PUSH1 0x0 PUSH2 0x1228 DUP3 PUSH2 0x116E JUMP JUMPDEST SWAP2 POP PUSH32 0xFFFFFFFFFFFFFFFFFFFFFFFFFFFFFFFFFFFFFFFFFFFFFFFFFFFFFFFFFFFFFFFF DUP3 EQ ISZERO PUSH2 0x125B JUMPI PUSH2 0x125A PUSH2 0x12A1 JUMP JUMPDEST JUMPDEST PUSH1 0x1 DUP3 ADD SWAP1 POP SWAP2 SWAP1 POP JUMP JUMPDEST PUSH1 0x0 DUP2 SWAP1 POP SWAP2 SWAP1 POP JUMP JUMPDEST PUSH1 0x0 PUSH2 0x127B DUP3 PUSH2 0x116E JUMP JUMPDEST SWAP2 POP PUSH2 0x1286 DUP4 PUSH2 0x116E JUMP JUMPDEST SWAP3 POP DUP3 PUSH2 0x1296 JUMPI PUSH2 0x1295 PUSH2 0x12D0 JUMP JUMPDEST JUMPDEST DUP3 DUP3 MOD SWAP1 POP SWAP3 SWAP2 POP POP JUMP JUMPDEST PUSH32 0x4E487B7100000000000000000000000000000000000000000000000000000000 PUSH1 0x0 MSTORE PUSH1 0x11 PUSH1 0x4 MSTORE PUSH1 0x24 PUSH1 0x0 REVERT JUMPDEST PUSH32 0x4E487B7100000000000000000000000000000000000000000000000000000000 PUSH1 0x0 MSTORE PUSH1 0x12 PUSH1 0x4 MSTORE PUSH1 0x24 PUSH1 0x0 REVERT JUMPDEST PUSH32 0x4E487B7100000000000000000000000000000000000000000000000000000000 PUSH1 0x0 MSTORE PUSH1 0x22 PUSH1 0x4 MSTORE PUSH1 0x24 PUSH1 0x0 REVERT JUMPDEST PUSH32 0x4E487B7100000000000000000000000000000000000000000000000000000000 PUSH1 0x0 MSTORE PUSH1 0x32 PUSH1 0x4 MSTORE PUSH1 0x24 PUSH1 0x0 REVERT JUMPDEST PUSH32 0x4E487B7100000000000000000000000000000000000000000000000000000000 PUSH1 0x0 MSTORE PUSH1 0x41 PUSH1 0x4 MSTORE PUSH1 0x24 PUSH1 0x0 REVERT JUMPDEST PUSH1 0x0 DUP1 REVERT JUMPDEST PUSH1 0x0 DUP1 REVERT JUMPDEST PUSH1 0x0 DUP1 REVERT JUMPDEST PUSH1 0x0 DUP1 REVERT JUMPDEST PUSH1 0x0 PUSH1 0x1F NOT PUSH1 0x1F DUP4 ADD AND SWAP1 POP SWAP2 SWAP1 POP JUMP JUMPDEST PUSH32 0x536F6C6F2073652070756564652074656E657220756E20636F63686520706F72 PUSH1 0x0 DUP3 ADD MSTORE PUSH32 0x20706572736F6E61000000000000000000000000000000000000000000000000 PUSH1 0x20 DUP3 ADD MSTORE POP JUMP JUMPDEST PUSH32 0x4F776E61626C653A206E6577206F776E657220697320746865207A65726F2061 PUSH1 0x0 DUP3 ADD MSTORE PUSH32 0x6464726573730000000000000000000000000000000000000000000000000000 PUSH1 0x20 DUP3 ADD MSTORE POP JUMP JUMPDEST PUSH32 0x4F776E61626C653A2063616C6C6572206973206E6F7420746865206F776E6572 PUSH1 0x0 DUP3 ADD MSTORE POP JUMP JUMPDEST PUSH2 0x1481 DUP2 PUSH2 0x113C JUMP JUMPDEST DUP2 EQ PUSH2 0x148C JUMPI PUSH1 0x0 DUP1 REVERT JUMPDEST POP JUMP JUMPDEST PUSH2 0x1498 DUP2 PUSH2 0x116E JUMP JUMPDEST DUP2 EQ PUSH2 0x14A3 JUMPI PUSH1 0x0 DUP1 REVERT JUMPDEST POP JUMP INVALID LOG2 PUSH5 0x6970667358 0x22 SLT KECCAK256 GASPRICE 0xE7 0x4F MLOAD RETURN 0xB0 0xDE 0xA9 SWAP2 SELFDESTRUCT JUMPDEST PUSH15 0xAFB1F45ED0630648E172803919066B EXTCODECOPY PUSH31 0x5638CF64736F6C634300080700330000000000000000000000000000000000 "
				},
				"gasEstimates": {
					"creation": {
						"codeDepositCost": "1068000",
						"executionCost": "infinite",
						"totalCost": "infinite"
					},
					"external": {
						"anadirCoche(string,string,string)": "infinite",
						"carrera(uint256)": "infinite",
						"listaCoches(uint256)": "infinite",
						"numeroAleatorio()": "infinite",
						"numeroCochesPersona(address)": "2837",
						"owner()": "2522",
						"renounceOwnership()": "30441",
						"transferOwnership(address)": "30789"
					},
					"internal": {
						"_depositoLleno(struct CarreraCoches.Coche storage pointer)": "2142",
						"_repostando(struct CarreraCoches.Coche storage pointer)": "infinite",
						"balance()": "infinite"
					}
				},
				"methodIdentifiers": {
					"anadirCoche(string,string,string)": "2458c544",
					"carrera(uint256)": "12a1c2ca",
					"listaCoches(uint256)": "d735573d",
					"numeroAleatorio()": "f1413763",
					"numeroCochesPersona(address)": "1c6743e4",
					"owner()": "8da5cb5b",
					"renounceOwnership()": "715018a6",
					"transferOwnership(address)": "f2fde38b"
				}
			},
			"storageLayout": {
				"storage": [
					{
						"astId": 312,
						"contract": "contracts/CarreraCoches/main.sol:CarreraCoches",
						"label": "_owner",
						"offset": 0,
						"slot": "0",
						"type": "t_address"
					},
					{
						"astId": 22,
						"contract": "contracts/CarreraCoches/main.sol:CarreraCoches",
						"label": "randNonce",
						"offset": 0,
						"slot": "1",
						"type": "t_uint256"
					},
					{
						"astId": 25,
						"contract": "contracts/CarreraCoches/main.sol:CarreraCoches",
						"label": "contador",
						"offset": 0,
						"slot": "2",
						"type": "t_uint256"
					},
					{
						"astId": 28,
						"contract": "contracts/CarreraCoches/main.sol:CarreraCoches",
						"label": "cooldown",
						"offset": 0,
						"slot": "3",
						"type": "t_uint256"
					},
					{
						"astId": 32,
						"contract": "contracts/CarreraCoches/main.sol:CarreraCoches",
						"label": "listaCoches",
						"offset": 0,
						"slot": "4",
						"type": "t_array(t_struct(Coche)19_storage)dyn_storage"
					},
					{
						"astId": 42,
						"contract": "contracts/CarreraCoches/main.sol:CarreraCoches",
						"label": "numeroCochesPersona",
						"offset": 0,
						"slot": "5",
						"type": "t_mapping(t_address,t_uint256)"
					}
				],
				"types": {
					"t_address": {
						"encoding": "inplace",
						"label": "address",
						"numberOfBytes": "20"
					},
					"t_array(t_struct(Coche)19_storage)dyn_storage": {
						"base": "t_struct(Coche)19_storage",
						"encoding": "dynamic_array",
						"label": "struct CarreraCoches.Coche[]",
						"numberOfBytes": "32"
					},
					"t_mapping(t_address,t_uint256)": {
						"encoding": "mapping",
						"key": "t_address",
						"label": "mapping(address => uint256)",
						"numberOfBytes": "32",
						"value": "t_uint256"
					},
					"t_string_storage": {
						"encoding": "bytes",
						"label": "string",
						"numberOfBytes": "32"
					},
					"t_struct(Coche)19_storage": {
						"encoding": "inplace",
						"label": "struct CarreraCoches.Coche",
						"members": [
							{
								"astId": 6,
								"contract": "contracts/CarreraCoches/main.sol:CarreraCoches",
								"label": "idPiloto",
								"offset": 0,
								"slot": "0",
								"type": "t_address"
							},
							{
								"astId": 8,
								"contract": "contracts/CarreraCoches/main.sol:CarreraCoches",
								"label": "modelo",
								"offset": 0,
								"slot": "1",
								"type": "t_string_storage"
							},
							{
								"astId": 10,
								"contract": "contracts/CarreraCoches/main.sol:CarreraCoches",
								"label": "marca",
								"offset": 0,
								"slot": "2",
								"type": "t_string_storage"
							},
							{
								"astId": 12,
								"contract": "contracts/CarreraCoches/main.sol:CarreraCoches",
								"label": "nombrePiloto",
								"offset": 0,
								"slot": "3",
								"type": "t_string_storage"
							},
							{
								"astId": 14,
								"contract": "contracts/CarreraCoches/main.sol:CarreraCoches",
								"label": "carrerasGanadas",
								"offset": 0,
								"slot": "4",
								"type": "t_uint256"
							},
							{
								"astId": 16,
								"contract": "contracts/CarreraCoches/main.sol:CarreraCoches",
								"label": "carrerasTotales",
								"offset": 0,
								"slot": "5",
								"type": "t_uint256"
							},
							{
								"astId": 18,
								"contract": "contracts/CarreraCoches/main.sol:CarreraCoches",
								"label": "tiempoEspera",
								"offset": 0,
								"slot": "6",
								"type": "t_uint256"
							}
						],
						"numberOfBytes": "224"
					},
					"t_uint256": {
						"encoding": "inplace",
						"label": "uint256",
						"numberOfBytes": "32"
					}
				}
			},
			"userdoc": {
				"kind": "user",
				"methods": {},
				"version": 1
			}
		}
	}
}