{
	"contracts/CarreraCoches/cocheToken.sol": {
		"CocheToken": {
			"abi": [
				{
					"anonymous": false,
					"inputs": [
						{
							"indexed": true,
							"internalType": "address",
							"name": "_owner",
							"type": "address"
						},
						{
							"indexed": true,
							"internalType": "address",
							"name": "_approved",
							"type": "address"
						},
						{
							"indexed": true,
							"internalType": "uint256",
							"name": "_tokenId",
							"type": "uint256"
						}
					],
					"name": "Approval",
					"type": "event"
				},
				{
					"anonymous": false,
					"inputs": [
						{
							"indexed": true,
							"internalType": "address",
							"name": "previousOwner",
							"type": "address"
						},
						{
							"indexed": true,
							"internalType": "address",
							"name": "newOwner",
							"type": "address"
						}
					],
					"name": "OwnershipTransferred",
					"type": "event"
				},
				{
					"anonymous": false,
					"inputs": [
						{
							"indexed": true,
							"internalType": "address",
							"name": "_from",
							"type": "address"
						},
						{
							"indexed": true,
							"internalType": "address",
							"name": "_to",
							"type": "address"
						},
						{
							"indexed": true,
							"internalType": "uint256",
							"name": "_tokenId",
							"type": "uint256"
						}
					],
					"name": "Transfer",
					"type": "event"
				},
				{
					"anonymous": false,
					"inputs": [
						{
							"indexed": false,
							"internalType": "string",
							"name": "mo",
							"type": "string"
						},
						{
							"indexed": false,
							"internalType": "string",
							"name": "ma",
							"type": "string"
						},
						{
							"indexed": false,
							"internalType": "uint32",
							"name": "niv",
							"type": "uint32"
						},
						{
							"indexed": false,
							"internalType": "uint256",
							"name": "carrGan",
							"type": "uint256"
						},
						{
							"indexed": false,
							"internalType": "uint256",
							"name": "carrTot",
							"type": "uint256"
						}
					],
					"name": "cochePropietario",
					"type": "event"
				},
				{
					"anonymous": false,
					"inputs": [
						{
							"indexed": false,
							"internalType": "uint256",
							"name": "compr",
							"type": "uint256"
						}
					],
					"name": "comprobar",
					"type": "event"
				},
				{
					"anonymous": false,
					"inputs": [
						{
							"indexed": false,
							"internalType": "string",
							"name": "ms",
							"type": "string"
						}
					],
					"name": "confirmacionDepositoLleno",
					"type": "event"
				},
				{
					"anonymous": false,
					"inputs": [
						{
							"indexed": false,
							"internalType": "string",
							"name": "ms",
							"type": "string"
						},
						{
							"indexed": false,
							"internalType": "uint256",
							"name": "res",
							"type": "uint256"
						}
					],
					"name": "mostrarResultado",
					"type": "event"
				},
				{
					"inputs": [
						{
							"internalType": "uint256",
							"name": "dineroApostar",
							"type": "uint256"
						}
					],
					"name": "Apostar",
					"outputs": [
						{
							"internalType": "string",
							"name": "",
							"type": "string"
						}
					],
					"stateMutability": "payable",
					"type": "function"
				},
				{
					"inputs": [],
					"name": "_owner",
					"outputs": [
						{
							"internalType": "address",
							"name": "",
							"type": "address"
						}
					],
					"stateMutability": "view",
					"type": "function"
				},
				{
					"inputs": [
						{
							"internalType": "string",
							"name": "_modelo",
							"type": "string"
						},
						{
							"internalType": "string",
							"name": "_marca",
							"type": "string"
						},
						{
							"internalType": "string",
							"name": "_nombrePiloto",
							"type": "string"
						}
					],
					"name": "anadirCoche",
					"outputs": [
						{
							"internalType": "uint256",
							"name": "",
							"type": "uint256"
						}
					],
					"stateMutability": "nonpayable",
					"type": "function"
				},
				{
					"inputs": [
						{
							"internalType": "address",
							"name": "_approved",
							"type": "address"
						},
						{
							"internalType": "uint256",
							"name": "_tokenId",
							"type": "uint256"
						}
					],
					"name": "approve",
					"outputs": [],
					"stateMutability": "payable",
					"type": "function"
				},
				{
					"inputs": [
						{
							"internalType": "address",
							"name": "_owner",
							"type": "address"
						}
					],
					"name": "balanceOf",
					"outputs": [
						{
							"internalType": "uint256",
							"name": "",
							"type": "uint256"
						}
					],
					"stateMutability": "view",
					"type": "function"
				},
				{
					"inputs": [
						{
							"internalType": "address",
							"name": "_from",
							"type": "address"
						}
					],
					"name": "borrarCoche",
					"outputs": [],
					"stateMutability": "nonpayable",
					"type": "function"
				},
				{
					"inputs": [
						{
							"internalType": "uint256",
							"name": "",
							"type": "uint256"
						}
					],
					"name": "cocheDePropietario",
					"outputs": [
						{
							"internalType": "address",
							"name": "",
							"type": "address"
						}
					],
					"stateMutability": "view",
					"type": "function"
				},
				{
					"inputs": [
						{
							"internalType": "address",
							"name": "_address",
							"type": "address"
						},
						{
							"internalType": "string",
							"name": "_newModelo",
							"type": "string"
						},
						{
							"internalType": "string",
							"name": "_newMarca",
							"type": "string"
						}
					],
					"name": "comprarCoche",
					"outputs": [
						{
							"internalType": "string",
							"name": "",
							"type": "string"
						}
					],
					"stateMutability": "payable",
					"type": "function"
				},
				{
					"inputs": [
						{
							"internalType": "address",
							"name": "_from",
							"type": "address"
						},
						{
							"internalType": "address",
							"name": "_to",
							"type": "address"
						}
					],
					"name": "crearCoche",
					"outputs": [],
					"stateMutability": "nonpayable",
					"type": "function"
				},
				{
					"inputs": [
						{
							"internalType": "uint256",
							"name": "",
							"type": "uint256"
						}
					],
					"name": "listaCoches",
					"outputs": [
						{
							"internalType": "address",
							"name": "idPiloto",
							"type": "address"
						},
						{
							"internalType": "string",
							"name": "modelo",
							"type": "string"
						},
						{
							"internalType": "string",
							"name": "marca",
							"type": "string"
						},
						{
							"internalType": "string",
							"name": "nombrePiloto",
							"type": "string"
						},
						{
							"internalType": "uint256",
							"name": "carrerasGanadas",
							"type": "uint256"
						},
						{
							"internalType": "uint256",
							"name": "carrerasTotales",
							"type": "uint256"
						},
						{
							"internalType": "uint256",
							"name": "tiempoEspera",
							"type": "uint256"
						},
						{
							"internalType": "uint32",
							"name": "nivel",
							"type": "uint32"
						}
					],
					"stateMutability": "view",
					"type": "function"
				},
				{
					"inputs": [
						{
							"internalType": "address",
							"name": "",
							"type": "address"
						}
					],
					"name": "numeroCochesPersona",
					"outputs": [
						{
							"internalType": "uint256",
							"name": "",
							"type": "uint256"
						}
					],
					"stateMutability": "view",
					"type": "function"
				},
				{
					"inputs": [],
					"name": "owner",
					"outputs": [
						{
							"internalType": "address",
							"name": "",
							"type": "address"
						}
					],
					"stateMutability": "view",
					"type": "function"
				},
				{
					"inputs": [
						{
							"internalType": "uint256",
							"name": "_tokenId",
							"type": "uint256"
						}
					],
					"name": "ownerOf",
					"outputs": [
						{
							"internalType": "address",
							"name": "",
							"type": "address"
						}
					],
					"stateMutability": "view",
					"type": "function"
				},
				{
					"inputs": [],
					"name": "renounceOwnership",
					"outputs": [],
					"stateMutability": "nonpayable",
					"type": "function"
				},
				{
					"inputs": [
						{
							"internalType": "address",
							"name": "_propietario",
							"type": "address"
						}
					],
					"name": "subirDeNivel",
					"outputs": [
						{
							"internalType": "string",
							"name": "",
							"type": "string"
						}
					],
					"stateMutability": "payable",
					"type": "function"
				},
				{
					"inputs": [
						{
							"internalType": "address",
							"name": "_from",
							"type": "address"
						},
						{
							"internalType": "address",
							"name": "_to",
							"type": "address"
						},
						{
							"internalType": "uint256",
							"name": "_tokenId",
							"type": "uint256"
						}
					],
					"name": "transferFrom",
					"outputs": [],
					"stateMutability": "payable",
					"type": "function"
				},
				{
					"inputs": [
						{
							"internalType": "address",
							"name": "newOwner",
							"type": "address"
						}
					],
					"name": "transferOwnership",
					"outputs": [],
					"stateMutability": "nonpayable",
					"type": "function"
				},
				{
					"inputs": [
						{
							"internalType": "address",
							"name": "_propietario",
							"type": "address"
						}
					],
					"name": "verCochePropietario",
					"outputs": [],
					"stateMutability": "nonpayable",
					"type": "function"
				}
			],
			"devdoc": {
				"kind": "dev",
				"methods": {
					"owner()": {
						"details": "Returns the address of the current owner."
					},
					"renounceOwnership()": {
						"details": "Leaves the contract without owner. It will not be possible to call `onlyOwner` functions anymore. Can only be called by the current owner. NOTE: Renouncing ownership will leave the contract without an owner, thereby removing any functionality that is only available to the owner."
					},
					"transferOwnership(address)": {
						"details": "Transfers ownership of the contract to a new account (`newOwner`). Can only be called by the current owner."
					}
				},
				"version": 1
			},
			"evm": {
				"assembly": "    /* \"contracts/CarreraCoches/cocheToken.sol\":80:3478  contract CocheToken is CarreraCoches, ERC721 {\r... */\n  mstore(0x40, 0x80)\n    /* \"contracts/CarreraCoches/principal.sol\":518:519  0 */\n  0x00\n    /* \"contracts/CarreraCoches/principal.sol\":501:519  uint randNonce = 0 */\n  0x01\n  sstore\n    /* \"contracts/CarreraCoches/principal.sol\":642:643  0 */\n  0x00\n    /* \"contracts/CarreraCoches/principal.sol\":626:643  uint contador = 0 */\n  0x02\n  sstore\n    /* \"contracts/CarreraCoches/principal.sol\":666:676  60 seconds */\n  0x3c\n    /* \"contracts/CarreraCoches/principal.sol\":650:676  uint cooldown = 60 seconds */\n  0x03\n  sstore\n    /* \"contracts/CarreraCoches/principal.sol\":701:708  1 ether */\n  0x0de0b6b3a7640000\n    /* \"contracts/CarreraCoches/principal.sol\":683:708  uint subirNivel = 1 ether */\n  0x04\n  sstore\n    /* \"contracts/CarreraCoches/principal.sol\":736:743  2 ether */\n  0x1bc16d674ec80000\n    /* \"contracts/CarreraCoches/principal.sol\":715:743  uint cambiarCocheV = 2 ether */\n  0x05\n  sstore\n    /* \"contracts/CarreraCoches/cocheToken.sol\":80:3478  contract CocheToken is CarreraCoches, ERC721 {\r... */\n  callvalue\n  dup1\n  iszero\n  tag_1\n  jumpi\n  0x00\n  dup1\n  revert\ntag_1:\n  pop\n    /* \"contracts/CarreraCoches/ownable.sol\":947:979  _transferOwnership(_msgSender()) */\n  tag_4\n    /* \"contracts/CarreraCoches/ownable.sol\":966:978  _msgSender() */\n  tag_5\n    /* \"contracts/CarreraCoches/ownable.sol\":966:976  _msgSender */\n  shl(0x20, tag_6)\n    /* \"contracts/CarreraCoches/ownable.sol\":966:978  _msgSender() */\n  0x20\n  shr\n  jump\t// in\ntag_5:\n    /* \"contracts/CarreraCoches/ownable.sol\":947:965  _transferOwnership */\n  shl(0x20, tag_7)\n    /* \"contracts/CarreraCoches/ownable.sol\":947:979  _transferOwnership(_msgSender()) */\n  0x20\n  shr\n  jump\t// in\ntag_4:\n    /* \"contracts/CarreraCoches/cocheToken.sol\":80:3478  contract CocheToken is CarreraCoches, ERC721 {\r... */\n  jump(tag_8)\n    /* \"contracts/CarreraCoches/utils/Context.sol\":656:754  function _msgSender() internal view virtual returns (address) {\r... */\ntag_6:\n    /* \"contracts/CarreraCoches/utils/Context.sol\":709:716  address */\n  0x00\n    /* \"contracts/CarreraCoches/utils/Context.sol\":736:746  msg.sender */\n  caller\n    /* \"contracts/CarreraCoches/utils/Context.sol\":729:746  return msg.sender */\n  swap1\n  pop\n    /* \"contracts/CarreraCoches/utils/Context.sol\":656:754  function _msgSender() internal view virtual returns (address) {\r... */\n  swap1\n  jump\t// out\n    /* \"contracts/CarreraCoches/ownable.sol\":2338:2529  function _transferOwnership(address newOwner) internal virtual {\r... */\ntag_7:\n    /* \"contracts/CarreraCoches/ownable.sol\":2412:2428  address oldOwner */\n  0x00\n    /* \"contracts/CarreraCoches/ownable.sol\":2431:2437  _owner */\n  dup1\n  0x00\n  swap1\n  sload\n  swap1\n  0x0100\n  exp\n  swap1\n  div\n  0xffffffffffffffffffffffffffffffffffffffff\n  and\n    /* \"contracts/CarreraCoches/ownable.sol\":2412:2437  address oldOwner = _owner */\n  swap1\n  pop\n    /* \"contracts/CarreraCoches/ownable.sol\":2457:2465  newOwner */\n  dup2\n    /* \"contracts/CarreraCoches/ownable.sol\":2448:2454  _owner */\n  0x00\n  dup1\n    /* \"contracts/CarreraCoches/ownable.sol\":2448:2465  _owner = newOwner */\n  0x0100\n  exp\n  dup2\n  sload\n  dup2\n  0xffffffffffffffffffffffffffffffffffffffff\n  mul\n  not\n  and\n  swap1\n  dup4\n  0xffffffffffffffffffffffffffffffffffffffff\n  and\n  mul\n  or\n  swap1\n  sstore\n  pop\n    /* \"contracts/CarreraCoches/ownable.sol\":2512:2520  newOwner */\n  dup2\n    /* \"contracts/CarreraCoches/ownable.sol\":2481:2521  OwnershipTransferred(oldOwner, newOwner) */\n  0xffffffffffffffffffffffffffffffffffffffff\n  and\n    /* \"contracts/CarreraCoches/ownable.sol\":2502:2510  oldOwner */\n  dup2\n    /* \"contracts/CarreraCoches/ownable.sol\":2481:2521  OwnershipTransferred(oldOwner, newOwner) */\n  0xffffffffffffffffffffffffffffffffffffffff\n  and\n  0x8be0079c531659141344cd1fd0a4f28419497f9722a3daafe3b4186f6b6457e0\n  mload(0x40)\n  mload(0x40)\n  dup1\n  swap2\n  sub\n  swap1\n  log3\n    /* \"contracts/CarreraCoches/ownable.sol\":2401:2529  {\r... */\n  pop\n    /* \"contracts/CarreraCoches/ownable.sol\":2338:2529  function _transferOwnership(address newOwner) internal virtual {\r... */\n  pop\n  jump\t// out\n    /* \"contracts/CarreraCoches/cocheToken.sol\":80:3478  contract CocheToken is CarreraCoches, ERC721 {\r... */\ntag_8:\n  dataSize(sub_0)\n  dup1\n  dataOffset(sub_0)\n  0x00\n  codecopy\n  0x00\n  return\nstop\n\nsub_0: assembly {\n        /* \"contracts/CarreraCoches/cocheToken.sol\":80:3478  contract CocheToken is CarreraCoches, ERC721 {\r... */\n      mstore(0x40, 0x80)\n      jumpi(tag_1, lt(calldatasize, 0x04))\n      shr(0xe0, calldataload(0x00))\n      dup1\n      0x70a08231\n      gt\n      tag_20\n      jumpi\n      dup1\n      0xb2bdfa7b\n      gt\n      tag_21\n      jumpi\n      dup1\n      0xb2bdfa7b\n      eq\n      tag_15\n      jumpi\n      dup1\n      0xd735573d\n      eq\n      tag_16\n      jumpi\n      dup1\n      0xe172fca8\n      eq\n      tag_17\n      jumpi\n      dup1\n      0xf2fde38b\n      eq\n      tag_18\n      jumpi\n      dup1\n      0xffe20b64\n      eq\n      tag_19\n      jumpi\n      jump(tag_1)\n    tag_21:\n      dup1\n      0x70a08231\n      eq\n      tag_11\n      jumpi\n      dup1\n      0x715018a6\n      eq\n      tag_12\n      jumpi\n      dup1\n      0x858b0554\n      eq\n      tag_13\n      jumpi\n      dup1\n      0x8da5cb5b\n      eq\n      tag_14\n      jumpi\n      jump(tag_1)\n    tag_20:\n      dup1\n      0x23b872dd\n      gt\n      tag_22\n      jumpi\n      dup1\n      0x23b872dd\n      eq\n      tag_6\n      jumpi\n      dup1\n      0x2458c544\n      eq\n      tag_7\n      jumpi\n      dup1\n      0x6352211e\n      eq\n      tag_8\n      jumpi\n      dup1\n      0x6a7d1816\n      eq\n      tag_9\n      jumpi\n      dup1\n      0x6b6f0494\n      eq\n      tag_10\n      jumpi\n      jump(tag_1)\n    tag_22:\n      dup1\n      0x049a5f65\n      eq\n      tag_2\n      jumpi\n      dup1\n      0x095ea7b3\n      eq\n      tag_3\n      jumpi\n      dup1\n      0x17bde7a9\n      eq\n      tag_4\n      jumpi\n      dup1\n      0x1c6743e4\n      eq\n      tag_5\n      jumpi\n    tag_1:\n      0x00\n      dup1\n      revert\n        /* \"contracts/CarreraCoches/principal.sol\":3372:3834  function comprarCoche(address _address, string memory _newModelo, string memory _newMarca) external payable returns(string memory) {\r... */\n    tag_2:\n      tag_23\n      0x04\n      dup1\n      calldatasize\n      sub\n      dup2\n      add\n      swap1\n      tag_24\n      swap2\n      swap1\n      tag_25\n      jump\t// in\n    tag_24:\n      tag_26\n      jump\t// in\n    tag_23:\n      mload(0x40)\n      tag_27\n      swap2\n      swap1\n      tag_28\n      jump\t// in\n    tag_27:\n      mload(0x40)\n      dup1\n      swap2\n      sub\n      swap1\n      return\n        /* \"contracts/CarreraCoches/cocheToken.sol\":937:1149  function approve(address _approved, uint256 _tokenId) external override payable onlyOwnerOf(_tokenId) {\r... */\n    tag_3:\n      tag_29\n      0x04\n      dup1\n      calldatasize\n      sub\n      dup2\n      add\n      swap1\n      tag_30\n      swap2\n      swap1\n      tag_31\n      jump\t// in\n    tag_30:\n      tag_32\n      jump\t// in\n    tag_29:\n      stop\n        /* \"contracts/CarreraCoches/cocheToken.sol\":1157:1376  function borrarCoche(address _from) public {\r... */\n    tag_4:\n      callvalue\n      dup1\n      iszero\n      tag_33\n      jumpi\n      0x00\n      dup1\n      revert\n    tag_33:\n      pop\n      tag_34\n      0x04\n      dup1\n      calldatasize\n      sub\n      dup2\n      add\n      swap1\n      tag_35\n      swap2\n      swap1\n      tag_36\n      jump\t// in\n    tag_35:\n      tag_37\n      jump\t// in\n    tag_34:\n      stop\n        /* \"contracts/CarreraCoches/principal.sol\":1077:1129  mapping (address => uint) public numeroCochesPersona */\n    tag_5:\n      callvalue\n      dup1\n      iszero\n      tag_38\n      jumpi\n      0x00\n      dup1\n      revert\n    tag_38:\n      pop\n      tag_39\n      0x04\n      dup1\n      calldatasize\n      sub\n      dup2\n      add\n      swap1\n      tag_40\n      swap2\n      swap1\n      tag_36\n      jump\t// in\n    tag_40:\n      tag_41\n      jump\t// in\n    tag_39:\n      mload(0x40)\n      tag_42\n      swap2\n      swap1\n      tag_43\n      jump\t// in\n    tag_42:\n      mload(0x40)\n      dup1\n      swap2\n      sub\n      swap1\n      return\n        /* \"contracts/CarreraCoches/cocheToken.sol\":684:931  function transferFrom(address _from, address _to, uint256 _tokenId) external override payable {\r... */\n    tag_6:\n      tag_44\n      0x04\n      dup1\n      calldatasize\n      sub\n      dup2\n      add\n      swap1\n      tag_45\n      swap2\n      swap1\n      tag_46\n      jump\t// in\n    tag_45:\n      tag_47\n      jump\t// in\n    tag_44:\n      stop\n        /* \"contracts/CarreraCoches/principal.sol\":1701:2141  function anadirCoche(string memory _modelo, string memory _marca, string memory _nombrePiloto) public restriccion returns (uint) {\r... */\n    tag_7:\n      callvalue\n      dup1\n      iszero\n      tag_48\n      jumpi\n      0x00\n      dup1\n      revert\n    tag_48:\n      pop\n      tag_49\n      0x04\n      dup1\n      calldatasize\n      sub\n      dup2\n      add\n      swap1\n      tag_50\n      swap2\n      swap1\n      tag_51\n      jump\t// in\n    tag_50:\n      tag_52\n      jump\t// in\n    tag_49:\n      mload(0x40)\n      tag_53\n      swap2\n      swap1\n      tag_43\n      jump\t// in\n    tag_53:\n      mload(0x40)\n      dup1\n      swap2\n      sub\n      swap1\n      return\n        /* \"contracts/CarreraCoches/cocheToken.sol\":318:442  function ownerOf(uint256 _tokenId) external override view returns (address) {\r... */\n    tag_8:\n      callvalue\n      dup1\n      iszero\n      tag_54\n      jumpi\n      0x00\n      dup1\n      revert\n    tag_54:\n      pop\n      tag_55\n      0x04\n      dup1\n      calldatasize\n      sub\n      dup2\n      add\n      swap1\n      tag_56\n      swap2\n      swap1\n      tag_57\n      jump\t// in\n    tag_56:\n      tag_58\n      jump\t// in\n    tag_55:\n      mload(0x40)\n      tag_59\n      swap2\n      swap1\n      tag_60\n      jump\t// in\n    tag_59:\n      mload(0x40)\n      dup1\n      swap2\n      sub\n      swap1\n      return\n        /* \"contracts/CarreraCoches/principal.sol\":2510:2869  function subirDeNivel(address _propietario) external payable returns(string memory) {\r... */\n    tag_9:\n      tag_61\n      0x04\n      dup1\n      calldatasize\n      sub\n      dup2\n      add\n      swap1\n      tag_62\n      swap2\n      swap1\n      tag_36\n      jump\t// in\n    tag_62:\n      tag_63\n      jump\t// in\n    tag_61:\n      mload(0x40)\n      tag_64\n      swap2\n      swap1\n      tag_28\n      jump\t// in\n    tag_64:\n      mload(0x40)\n      dup1\n      swap2\n      sub\n      swap1\n      return\n        /* \"contracts/CarreraCoches/principal.sol\":3892:7238  function Apostar(uint dineroApostar) public payable returns(string memory) {\r... */\n    tag_10:\n      tag_65\n      0x04\n      dup1\n      calldatasize\n      sub\n      dup2\n      add\n      swap1\n      tag_66\n      swap2\n      swap1\n      tag_57\n      jump\t// in\n    tag_66:\n      tag_67\n      jump\t// in\n    tag_65:\n      mload(0x40)\n      tag_68\n      swap2\n      swap1\n      tag_28\n      jump\t// in\n    tag_68:\n      mload(0x40)\n      dup1\n      swap2\n      sub\n      swap1\n      return\n        /* \"contracts/CarreraCoches/cocheToken.sol\":189:312  function balanceOf(address _owner) external override view returns (uint256) {\r... */\n    tag_11:\n      callvalue\n      dup1\n      iszero\n      tag_69\n      jumpi\n      0x00\n      dup1\n      revert\n    tag_69:\n      pop\n      tag_70\n      0x04\n      dup1\n      calldatasize\n      sub\n      dup2\n      add\n      swap1\n      tag_71\n      swap2\n      swap1\n      tag_36\n      jump\t// in\n    tag_71:\n      tag_72\n      jump\t// in\n    tag_70:\n      mload(0x40)\n      tag_73\n      swap2\n      swap1\n      tag_43\n      jump\t// in\n    tag_73:\n      mload(0x40)\n      dup1\n      swap2\n      sub\n      swap1\n      return\n        /* \"contracts/CarreraCoches/ownable.sol\":1719:1822  function renounceOwnership() public virtual onlyOwner {\r... */\n    tag_12:\n      callvalue\n      dup1\n      iszero\n      tag_74\n      jumpi\n      0x00\n      dup1\n      revert\n    tag_74:\n      pop\n      tag_75\n      tag_76\n      jump\t// in\n    tag_75:\n      stop\n        /* \"contracts/CarreraCoches/principal.sol\":1019:1070  mapping (uint => address) public cocheDePropietario */\n    tag_13:\n      callvalue\n      dup1\n      iszero\n      tag_77\n      jumpi\n      0x00\n      dup1\n      revert\n    tag_77:\n      pop\n      tag_78\n      0x04\n      dup1\n      calldatasize\n      sub\n      dup2\n      add\n      swap1\n      tag_79\n      swap2\n      swap1\n      tag_57\n      jump\t// in\n    tag_79:\n      tag_80\n      jump\t// in\n    tag_78:\n      mload(0x40)\n      tag_81\n      swap2\n      swap1\n      tag_60\n      jump\t// in\n    tag_81:\n      mload(0x40)\n      dup1\n      swap2\n      sub\n      swap1\n      return\n        /* \"contracts/CarreraCoches/ownable.sol\":1068:1155  function owner() public view virtual returns (address) {\r... */\n    tag_14:\n      callvalue\n      dup1\n      iszero\n      tag_82\n      jumpi\n      0x00\n      dup1\n      revert\n    tag_82:\n      pop\n      tag_83\n      tag_84\n      jump\t// in\n    tag_83:\n      mload(0x40)\n      tag_85\n      swap2\n      swap1\n      tag_60\n      jump\t// in\n    tag_85:\n      mload(0x40)\n      dup1\n      swap2\n      sub\n      swap1\n      return\n        /* \"contracts/CarreraCoches/ownable.sol\":701:722  address public _owner */\n    tag_15:\n      callvalue\n      dup1\n      iszero\n      tag_86\n      jumpi\n      0x00\n      dup1\n      revert\n    tag_86:\n      pop\n      tag_87\n      tag_88\n      jump\t// in\n    tag_87:\n      mload(0x40)\n      tag_89\n      swap2\n      swap1\n      tag_60\n      jump\t// in\n    tag_89:\n      mload(0x40)\n      dup1\n      swap2\n      sub\n      swap1\n      return\n        /* \"contracts/CarreraCoches/principal.sol\":752:778  Coche[] public listaCoches */\n    tag_16:\n      callvalue\n      dup1\n      iszero\n      tag_90\n      jumpi\n      0x00\n      dup1\n      revert\n    tag_90:\n      pop\n      tag_91\n      0x04\n      dup1\n      calldatasize\n      sub\n      dup2\n      add\n      swap1\n      tag_92\n      swap2\n      swap1\n      tag_57\n      jump\t// in\n    tag_92:\n      tag_93\n      jump\t// in\n    tag_91:\n      mload(0x40)\n      tag_94\n      swap9\n      swap8\n      swap7\n      swap6\n      swap5\n      swap4\n      swap3\n      swap2\n      swap1\n      tag_95\n      jump\t// in\n    tag_94:\n      mload(0x40)\n      dup1\n      swap2\n      sub\n      swap1\n      return\n        /* \"contracts/CarreraCoches/principal.sol\":2913:3289  function verCochePropietario(address _propietario) external {\r... */\n    tag_17:\n      callvalue\n      dup1\n      iszero\n      tag_96\n      jumpi\n      0x00\n      dup1\n      revert\n    tag_96:\n      pop\n      tag_97\n      0x04\n      dup1\n      calldatasize\n      sub\n      dup2\n      add\n      swap1\n      tag_98\n      swap2\n      swap1\n      tag_36\n      jump\t// in\n    tag_98:\n      tag_99\n      jump\t// in\n    tag_97:\n      stop\n        /* \"contracts/CarreraCoches/ownable.sol\":1977:2178  function transferOwnership(address newOwner) public virtual onlyOwner {\r... */\n    tag_18:\n      callvalue\n      dup1\n      iszero\n      tag_100\n      jumpi\n      0x00\n      dup1\n      revert\n    tag_100:\n      pop\n      tag_101\n      0x04\n      dup1\n      calldatasize\n      sub\n      dup2\n      add\n      swap1\n      tag_102\n      swap2\n      swap1\n      tag_36\n      jump\t// in\n    tag_102:\n      tag_103\n      jump\t// in\n    tag_101:\n      stop\n        /* \"contracts/CarreraCoches/cocheToken.sol\":1384:1709  function crearCoche(address _from, address _to) public {\r... */\n    tag_19:\n      callvalue\n      dup1\n      iszero\n      tag_104\n      jumpi\n      0x00\n      dup1\n      revert\n    tag_104:\n      pop\n      tag_105\n      0x04\n      dup1\n      calldatasize\n      sub\n      dup2\n      add\n      swap1\n      tag_106\n      swap2\n      swap1\n      tag_107\n      jump\t// in\n    tag_106:\n      tag_108\n      jump\t// in\n    tag_105:\n      stop\n        /* \"contracts/CarreraCoches/principal.sol\":3372:3834  function comprarCoche(address _address, string memory _newModelo, string memory _newMarca) external payable returns(string memory) {\r... */\n    tag_26:\n        /* \"contracts/CarreraCoches/principal.sol\":3488:3501  string memory */\n      0x60\n        /* \"contracts/CarreraCoches/principal.sol\":3534:3542  _address */\n      dup4\n        /* \"contracts/CarreraCoches/principal.sol\":3522:3542  msg.sender==_address */\n      0xffffffffffffffffffffffffffffffffffffffff\n      and\n        /* \"contracts/CarreraCoches/principal.sol\":3522:3532  msg.sender */\n      caller\n        /* \"contracts/CarreraCoches/principal.sol\":3522:3542  msg.sender==_address */\n      0xffffffffffffffffffffffffffffffffffffffff\n      and\n      eq\n        /* \"contracts/CarreraCoches/principal.sol\":3514:3543  require(msg.sender==_address) */\n      tag_110\n      jumpi\n      0x00\n      dup1\n      revert\n    tag_110:\n        /* \"contracts/CarreraCoches/principal.sol\":3573:3586  cambiarCocheV */\n      sload(0x05)\n        /* \"contracts/CarreraCoches/principal.sol\":3562:3571  msg.value */\n      callvalue\n        /* \"contracts/CarreraCoches/principal.sol\":3562:3586  msg.value==cambiarCocheV */\n      eq\n        /* \"contracts/CarreraCoches/principal.sol\":3554:3587  require(msg.value==cambiarCocheV) */\n      tag_111\n      jumpi\n      0x00\n      dup1\n      revert\n    tag_111:\n        /* \"contracts/CarreraCoches/principal.sol\":3602:3608  uint i */\n      0x00\n        /* \"contracts/CarreraCoches/principal.sol\":3598:3827  for(uint i = 0; i < listaCoches.length; i++){\r... */\n    tag_112:\n        /* \"contracts/CarreraCoches/principal.sol\":3618:3629  listaCoches */\n      0x06\n        /* \"contracts/CarreraCoches/principal.sol\":3618:3636  listaCoches.length */\n      dup1\n      sload\n      swap1\n      pop\n        /* \"contracts/CarreraCoches/principal.sol\":3614:3615  i */\n      dup2\n        /* \"contracts/CarreraCoches/principal.sol\":3614:3636  i < listaCoches.length */\n      lt\n        /* \"contracts/CarreraCoches/principal.sol\":3598:3827  for(uint i = 0; i < listaCoches.length; i++){\r... */\n      iszero\n      tag_113\n      jumpi\n        /* \"contracts/CarreraCoches/principal.sol\":3685:3695  msg.sender */\n      caller\n        /* \"contracts/CarreraCoches/principal.sol\":3660:3695  listaCoches[i].idPiloto==msg.sender */\n      0xffffffffffffffffffffffffffffffffffffffff\n      and\n        /* \"contracts/CarreraCoches/principal.sol\":3660:3671  listaCoches */\n      0x06\n        /* \"contracts/CarreraCoches/principal.sol\":3672:3673  i */\n      dup3\n        /* \"contracts/CarreraCoches/principal.sol\":3660:3674  listaCoches[i] */\n      dup2\n      sload\n      dup2\n      lt\n      tag_115\n      jumpi\n      tag_116\n      tag_117\n      jump\t// in\n    tag_116:\n    tag_115:\n      swap1\n      0x00\n      mstore\n      keccak256(0x00, 0x20)\n      swap1\n      0x08\n      mul\n      add\n        /* \"contracts/CarreraCoches/principal.sol\":3660:3683  listaCoches[i].idPiloto */\n      0x00\n      add\n      0x00\n      swap1\n      sload\n      swap1\n      0x0100\n      exp\n      swap1\n      div\n      0xffffffffffffffffffffffffffffffffffffffff\n      and\n        /* \"contracts/CarreraCoches/principal.sol\":3660:3695  listaCoches[i].idPiloto==msg.sender */\n      0xffffffffffffffffffffffffffffffffffffffff\n      and\n      eq\n        /* \"contracts/CarreraCoches/principal.sol\":3657:3816  if(listaCoches[i].idPiloto==msg.sender){\r... */\n      iszero\n      tag_119\n      jumpi\n        /* \"contracts/CarreraCoches/principal.sol\":3739:3749  _newModelo */\n      dup4\n        /* \"contracts/CarreraCoches/principal.sol\":3715:3726  listaCoches */\n      0x06\n        /* \"contracts/CarreraCoches/principal.sol\":3727:3728  i */\n      dup3\n        /* \"contracts/CarreraCoches/principal.sol\":3715:3729  listaCoches[i] */\n      dup2\n      sload\n      dup2\n      lt\n      tag_120\n      jumpi\n      tag_121\n      tag_117\n      jump\t// in\n    tag_121:\n    tag_120:\n      swap1\n      0x00\n      mstore\n      keccak256(0x00, 0x20)\n      swap1\n      0x08\n      mul\n      add\n        /* \"contracts/CarreraCoches/principal.sol\":3715:3736  listaCoches[i].modelo */\n      0x01\n      add\n        /* \"contracts/CarreraCoches/principal.sol\":3715:3749  listaCoches[i].modelo = _newModelo */\n      swap1\n      dup1\n      mload\n      swap1\n      0x20\n      add\n      swap1\n      tag_123\n      swap3\n      swap2\n      swap1\n      tag_124\n      jump\t// in\n    tag_123:\n      pop\n        /* \"contracts/CarreraCoches/principal.sol\":3791:3800  _newMarca */\n      dup3\n        /* \"contracts/CarreraCoches/principal.sol\":3768:3779  listaCoches */\n      0x06\n        /* \"contracts/CarreraCoches/principal.sol\":3780:3781  i */\n      dup3\n        /* \"contracts/CarreraCoches/principal.sol\":3768:3782  listaCoches[i] */\n      dup2\n      sload\n      dup2\n      lt\n      tag_125\n      jumpi\n      tag_126\n      tag_117\n      jump\t// in\n    tag_126:\n    tag_125:\n      swap1\n      0x00\n      mstore\n      keccak256(0x00, 0x20)\n      swap1\n      0x08\n      mul\n      add\n        /* \"contracts/CarreraCoches/principal.sol\":3768:3788  listaCoches[i].marca */\n      0x02\n      add\n        /* \"contracts/CarreraCoches/principal.sol\":3768:3800  listaCoches[i].marca = _newMarca */\n      swap1\n      dup1\n      mload\n      swap1\n      0x20\n      add\n      swap1\n      tag_128\n      swap3\n      swap2\n      swap1\n      tag_124\n      jump\t// in\n    tag_128:\n      pop\n        /* \"contracts/CarreraCoches/principal.sol\":3657:3816  if(listaCoches[i].idPiloto==msg.sender){\r... */\n    tag_119:\n        /* \"contracts/CarreraCoches/principal.sol\":3638:3641  i++ */\n      dup1\n      dup1\n      tag_129\n      swap1\n      tag_130\n      jump\t// in\n    tag_129:\n      swap2\n      pop\n      pop\n        /* \"contracts/CarreraCoches/principal.sol\":3598:3827  for(uint i = 0; i < listaCoches.length; i++){\r... */\n      jump(tag_112)\n    tag_113:\n      pop\n        /* \"contracts/CarreraCoches/principal.sol\":3372:3834  function comprarCoche(address _address, string memory _newModelo, string memory _newMarca) external payable returns(string memory) {\r... */\n      swap4\n      swap3\n      pop\n      pop\n      pop\n      jump\t// out\n        /* \"contracts/CarreraCoches/cocheToken.sol\":937:1149  function approve(address _approved, uint256 _tokenId) external override payable onlyOwnerOf(_tokenId) {\r... */\n    tag_32:\n        /* \"contracts/CarreraCoches/cocheToken.sol\":1029:1037  _tokenId */\n      dup1\n        /* \"contracts/CarreraCoches/principal.sol\":1401:1419  cocheDePropietario */\n      0x07\n        /* \"contracts/CarreraCoches/principal.sol\":1401:1427  cocheDePropietario[_coche] */\n      0x00\n        /* \"contracts/CarreraCoches/principal.sol\":1420:1426  _coche */\n      dup3\n        /* \"contracts/CarreraCoches/principal.sol\":1401:1427  cocheDePropietario[_coche] */\n      dup2\n      mstore\n      0x20\n      add\n      swap1\n      dup2\n      mstore\n      0x20\n      add\n      0x00\n      keccak256\n      0x00\n      swap1\n      sload\n      swap1\n      0x0100\n      exp\n      swap1\n      div\n      0xffffffffffffffffffffffffffffffffffffffff\n      and\n        /* \"contracts/CarreraCoches/principal.sol\":1387:1427  msg.sender == cocheDePropietario[_coche] */\n      0xffffffffffffffffffffffffffffffffffffffff\n      and\n        /* \"contracts/CarreraCoches/principal.sol\":1387:1397  msg.sender */\n      caller\n        /* \"contracts/CarreraCoches/principal.sol\":1387:1427  msg.sender == cocheDePropietario[_coche] */\n      0xffffffffffffffffffffffffffffffffffffffff\n      and\n      eq\n        /* \"contracts/CarreraCoches/principal.sol\":1379:1428  require(msg.sender == cocheDePropietario[_coche]) */\n      tag_132\n      jumpi\n      0x00\n      dup1\n      revert\n    tag_132:\n        /* \"contracts/CarreraCoches/cocheToken.sol\":1081:1090  _approved */\n      dup3\n        /* \"contracts/CarreraCoches/cocheToken.sol\":1046:1068  confirmarTransferencia */\n      0x09\n        /* \"contracts/CarreraCoches/cocheToken.sol\":1046:1078  confirmarTransferencia[_tokenId] */\n      0x00\n        /* \"contracts/CarreraCoches/cocheToken.sol\":1069:1077  _tokenId */\n      dup5\n        /* \"contracts/CarreraCoches/cocheToken.sol\":1046:1078  confirmarTransferencia[_tokenId] */\n      dup2\n      mstore\n      0x20\n      add\n      swap1\n      dup2\n      mstore\n      0x20\n      add\n      0x00\n      keccak256\n      0x00\n        /* \"contracts/CarreraCoches/cocheToken.sol\":1046:1090  confirmarTransferencia[_tokenId] = _approved */\n      0x0100\n      exp\n      dup2\n      sload\n      dup2\n      0xffffffffffffffffffffffffffffffffffffffff\n      mul\n      not\n      and\n      swap1\n      dup4\n      0xffffffffffffffffffffffffffffffffffffffff\n      and\n      mul\n      or\n      swap1\n      sstore\n      pop\n        /* \"contracts/CarreraCoches/cocheToken.sol\":1134:1142  _tokenId */\n      dup2\n        /* \"contracts/CarreraCoches/cocheToken.sol\":1123:1132  _approved */\n      dup4\n        /* \"contracts/CarreraCoches/cocheToken.sol\":1102:1143  Approval(msg.sender, _approved, _tokenId) */\n      0xffffffffffffffffffffffffffffffffffffffff\n      and\n        /* \"contracts/CarreraCoches/cocheToken.sol\":1111:1121  msg.sender */\n      caller\n        /* \"contracts/CarreraCoches/cocheToken.sol\":1102:1143  Approval(msg.sender, _approved, _tokenId) */\n      0xffffffffffffffffffffffffffffffffffffffff\n      and\n      0x8c5be1e5ebec7d5bd14f71427d1e84f3dd0314c0f7b2291e5b200ac8c7c3b925\n      mload(0x40)\n      mload(0x40)\n      dup1\n      swap2\n      sub\n      swap1\n      log4\n        /* \"contracts/CarreraCoches/cocheToken.sol\":937:1149  function approve(address _approved, uint256 _tokenId) external override payable onlyOwnerOf(_tokenId) {\r... */\n      pop\n      pop\n      pop\n      jump\t// out\n        /* \"contracts/CarreraCoches/cocheToken.sol\":1157:1376  function borrarCoche(address _from) public {\r... */\n    tag_37:\n        /* \"contracts/CarreraCoches/cocheToken.sol\":1215:1221  uint i */\n      0x00\n        /* \"contracts/CarreraCoches/cocheToken.sol\":1211:1369  for(uint i = 0; i < listaCoches.length; i++){\r... */\n    tag_135:\n        /* \"contracts/CarreraCoches/cocheToken.sol\":1231:1242  listaCoches */\n      0x06\n        /* \"contracts/CarreraCoches/cocheToken.sol\":1231:1249  listaCoches.length */\n      dup1\n      sload\n      swap1\n      pop\n        /* \"contracts/CarreraCoches/cocheToken.sol\":1227:1228  i */\n      dup2\n        /* \"contracts/CarreraCoches/cocheToken.sol\":1227:1249  i < listaCoches.length */\n      lt\n        /* \"contracts/CarreraCoches/cocheToken.sol\":1211:1369  for(uint i = 0; i < listaCoches.length; i++){\r... */\n      iszero\n      tag_136\n      jumpi\n        /* \"contracts/CarreraCoches/cocheToken.sol\":1300:1305  _from */\n      dup2\n        /* \"contracts/CarreraCoches/cocheToken.sol\":1273:1305  listaCoches[i].idPiloto == _from */\n      0xffffffffffffffffffffffffffffffffffffffff\n      and\n        /* \"contracts/CarreraCoches/cocheToken.sol\":1273:1284  listaCoches */\n      0x06\n        /* \"contracts/CarreraCoches/cocheToken.sol\":1285:1286  i */\n      dup3\n        /* \"contracts/CarreraCoches/cocheToken.sol\":1273:1287  listaCoches[i] */\n      dup2\n      sload\n      dup2\n      lt\n      tag_138\n      jumpi\n      tag_139\n      tag_117\n      jump\t// in\n    tag_139:\n    tag_138:\n      swap1\n      0x00\n      mstore\n      keccak256(0x00, 0x20)\n      swap1\n      0x08\n      mul\n      add\n        /* \"contracts/CarreraCoches/cocheToken.sol\":1273:1296  listaCoches[i].idPiloto */\n      0x00\n      add\n      0x00\n      swap1\n      sload\n      swap1\n      0x0100\n      exp\n      swap1\n      div\n      0xffffffffffffffffffffffffffffffffffffffff\n      and\n        /* \"contracts/CarreraCoches/cocheToken.sol\":1273:1305  listaCoches[i].idPiloto == _from */\n      0xffffffffffffffffffffffffffffffffffffffff\n      and\n      eq\n        /* \"contracts/CarreraCoches/cocheToken.sol\":1270:1358  if(listaCoches[i].idPiloto == _from){\r... */\n      iszero\n      tag_141\n      jumpi\n        /* \"contracts/CarreraCoches/cocheToken.sol\":1325:1336  listaCoches */\n      0x06\n        /* \"contracts/CarreraCoches/cocheToken.sol\":1325:1342  listaCoches.pop() */\n      dup1\n      sload\n      dup1\n      tag_142\n      jumpi\n      tag_143\n      tag_144\n      jump\t// in\n    tag_143:\n    tag_142:\n      0x01\n      swap1\n      sub\n      dup2\n      dup2\n      swap1\n      0x00\n      mstore\n      keccak256(0x00, 0x20)\n      swap1\n      0x08\n      mul\n      add\n      0x00\n      dup1\n      dup3\n      add\n      exp(0x0100, 0x00)\n      dup2\n      sload\n      swap1\n      0xffffffffffffffffffffffffffffffffffffffff\n      mul\n      not\n      and\n      swap1\n      sstore\n      0x01\n      dup3\n      add\n      0x00\n      tag_146\n      swap2\n      swap1\n      tag_147\n      jump\t// in\n    tag_146:\n      0x02\n      dup3\n      add\n      0x00\n      tag_148\n      swap2\n      swap1\n      tag_147\n      jump\t// in\n    tag_148:\n      0x03\n      dup3\n      add\n      0x00\n      tag_149\n      swap2\n      swap1\n      tag_147\n      jump\t// in\n    tag_149:\n      0x04\n      dup3\n      add\n      0x00\n      swap1\n      sstore\n      0x05\n      dup3\n      add\n      0x00\n      swap1\n      sstore\n      0x06\n      dup3\n      add\n      0x00\n      swap1\n      sstore\n      0x07\n      dup3\n      add\n      exp(0x0100, 0x00)\n      dup2\n      sload\n      swap1\n      0xffffffff\n      mul\n      not\n      and\n      swap1\n      sstore\n      pop\n      pop\n      swap1\n      sstore\n        /* \"contracts/CarreraCoches/cocheToken.sol\":1270:1358  if(listaCoches[i].idPiloto == _from){\r... */\n    tag_141:\n        /* \"contracts/CarreraCoches/cocheToken.sol\":1251:1254  i++ */\n      dup1\n      dup1\n      tag_150\n      swap1\n      tag_130\n      jump\t// in\n    tag_150:\n      swap2\n      pop\n      pop\n        /* \"contracts/CarreraCoches/cocheToken.sol\":1211:1369  for(uint i = 0; i < listaCoches.length; i++){\r... */\n      jump(tag_135)\n    tag_136:\n      pop\n        /* \"contracts/CarreraCoches/cocheToken.sol\":1157:1376  function borrarCoche(address _from) public {\r... */\n      pop\n      jump\t// out\n        /* \"contracts/CarreraCoches/principal.sol\":1077:1129  mapping (address => uint) public numeroCochesPersona */\n    tag_41:\n      mstore(0x20, 0x08)\n      dup1\n      0x00\n      mstore\n      keccak256(0x00, 0x40)\n      0x00\n      swap2\n      pop\n      swap1\n      pop\n      sload\n      dup2\n      jump\t// out\n        /* \"contracts/CarreraCoches/cocheToken.sol\":684:931  function transferFrom(address _from, address _to, uint256 _tokenId) external override payable {\r... */\n    tag_47:\n        /* \"contracts/CarreraCoches/cocheToken.sol\":826:836  msg.sender */\n      caller\n        /* \"contracts/CarreraCoches/cocheToken.sol\":794:836  cocheDePropietario[_tokenId] == msg.sender */\n      0xffffffffffffffffffffffffffffffffffffffff\n      and\n        /* \"contracts/CarreraCoches/cocheToken.sol\":794:812  cocheDePropietario */\n      0x07\n        /* \"contracts/CarreraCoches/cocheToken.sol\":794:822  cocheDePropietario[_tokenId] */\n      0x00\n        /* \"contracts/CarreraCoches/cocheToken.sol\":813:821  _tokenId */\n      dup4\n        /* \"contracts/CarreraCoches/cocheToken.sol\":794:822  cocheDePropietario[_tokenId] */\n      dup2\n      mstore\n      0x20\n      add\n      swap1\n      dup2\n      mstore\n      0x20\n      add\n      0x00\n      keccak256\n      0x00\n      swap1\n      sload\n      swap1\n      0x0100\n      exp\n      swap1\n      div\n      0xffffffffffffffffffffffffffffffffffffffff\n      and\n        /* \"contracts/CarreraCoches/cocheToken.sol\":794:836  cocheDePropietario[_tokenId] == msg.sender */\n      0xffffffffffffffffffffffffffffffffffffffff\n      and\n      eq\n        /* \"contracts/CarreraCoches/cocheToken.sol\":794:886  cocheDePropietario[_tokenId] == msg.sender || confirmarTransferencia[_tokenId] == msg.sender */\n      dup1\n      tag_152\n      jumpi\n      pop\n        /* \"contracts/CarreraCoches/cocheToken.sol\":876:886  msg.sender */\n      caller\n        /* \"contracts/CarreraCoches/cocheToken.sol\":840:886  confirmarTransferencia[_tokenId] == msg.sender */\n      0xffffffffffffffffffffffffffffffffffffffff\n      and\n        /* \"contracts/CarreraCoches/cocheToken.sol\":840:862  confirmarTransferencia */\n      0x09\n        /* \"contracts/CarreraCoches/cocheToken.sol\":840:872  confirmarTransferencia[_tokenId] */\n      0x00\n        /* \"contracts/CarreraCoches/cocheToken.sol\":863:871  _tokenId */\n      dup4\n        /* \"contracts/CarreraCoches/cocheToken.sol\":840:872  confirmarTransferencia[_tokenId] */\n      dup2\n      mstore\n      0x20\n      add\n      swap1\n      dup2\n      mstore\n      0x20\n      add\n      0x00\n      keccak256\n      0x00\n      swap1\n      sload\n      swap1\n      0x0100\n      exp\n      swap1\n      div\n      0xffffffffffffffffffffffffffffffffffffffff\n      and\n        /* \"contracts/CarreraCoches/cocheToken.sol\":840:886  confirmarTransferencia[_tokenId] == msg.sender */\n      0xffffffffffffffffffffffffffffffffffffffff\n      and\n      eq\n        /* \"contracts/CarreraCoches/cocheToken.sol\":794:886  cocheDePropietario[_tokenId] == msg.sender || confirmarTransferencia[_tokenId] == msg.sender */\n    tag_152:\n        /* \"contracts/CarreraCoches/cocheToken.sol\":785:887  require (cocheDePropietario[_tokenId] == msg.sender || confirmarTransferencia[_tokenId] == msg.sender) */\n      tag_153\n      jumpi\n      0x00\n      dup1\n      revert\n    tag_153:\n        /* \"contracts/CarreraCoches/cocheToken.sol\":894:925  _transfer(_from, _to, _tokenId) */\n      tag_154\n        /* \"contracts/CarreraCoches/cocheToken.sol\":904:909  _from */\n      dup4\n        /* \"contracts/CarreraCoches/cocheToken.sol\":911:914  _to */\n      dup4\n        /* \"contracts/CarreraCoches/cocheToken.sol\":916:924  _tokenId */\n      dup4\n        /* \"contracts/CarreraCoches/cocheToken.sol\":894:903  _transfer */\n      tag_155\n        /* \"contracts/CarreraCoches/cocheToken.sol\":894:925  _transfer(_from, _to, _tokenId) */\n      jump\t// in\n    tag_154:\n        /* \"contracts/CarreraCoches/cocheToken.sol\":684:931  function transferFrom(address _from, address _to, uint256 _tokenId) external override payable {\r... */\n      pop\n      pop\n      pop\n      jump\t// out\n        /* \"contracts/CarreraCoches/principal.sol\":1701:2141  function anadirCoche(string memory _modelo, string memory _marca, string memory _nombrePiloto) public restriccion returns (uint) {\r... */\n    tag_52:\n        /* \"contracts/CarreraCoches/principal.sol\":1824:1828  uint */\n      0x00\n        /* \"contracts/CarreraCoches/principal.sol\":1261:1262  1 */\n      0x01\n        /* \"contracts/CarreraCoches/principal.sol\":1227:1246  numeroCochesPersona */\n      0x08\n        /* \"contracts/CarreraCoches/principal.sol\":1227:1258  numeroCochesPersona[msg.sender] */\n      0x00\n        /* \"contracts/CarreraCoches/principal.sol\":1247:1257  msg.sender */\n      caller\n        /* \"contracts/CarreraCoches/principal.sol\":1227:1258  numeroCochesPersona[msg.sender] */\n      0xffffffffffffffffffffffffffffffffffffffff\n      and\n      0xffffffffffffffffffffffffffffffffffffffff\n      and\n      dup2\n      mstore\n      0x20\n      add\n      swap1\n      dup2\n      mstore\n      0x20\n      add\n      0x00\n      keccak256\n      sload\n        /* \"contracts/CarreraCoches/principal.sol\":1227:1262  numeroCochesPersona[msg.sender] < 1 */\n      lt\n        /* \"contracts/CarreraCoches/principal.sol\":1219:1307  require(numeroCochesPersona[msg.sender] < 1, \"Solo se puede tener un coche por persona\") */\n      tag_157\n      jumpi\n      mload(0x40)\n      0x08c379a000000000000000000000000000000000000000000000000000000000\n      dup2\n      mstore\n      0x04\n      add\n      tag_158\n      swap1\n      tag_159\n      jump\t// in\n    tag_158:\n      mload(0x40)\n      dup1\n      swap2\n      sub\n      swap1\n      revert\n    tag_157:\n        /* \"contracts/CarreraCoches/principal.sol\":1841:1852  listaCoches */\n      0x06\n        /* \"contracts/CarreraCoches/principal.sol\":1858:1952  Coche(msg.sender, _modelo, _marca, _nombrePiloto, 0, 0, uint32(block.timestamp + cooldown), 1) */\n      mload(0x40)\n      dup1\n      0x0100\n      add\n      0x40\n      mstore\n      dup1\n        /* \"contracts/CarreraCoches/principal.sol\":1864:1874  msg.sender */\n      caller\n        /* \"contracts/CarreraCoches/principal.sol\":1858:1952  Coche(msg.sender, _modelo, _marca, _nombrePiloto, 0, 0, uint32(block.timestamp + cooldown), 1) */\n      0xffffffffffffffffffffffffffffffffffffffff\n      and\n      dup2\n      mstore\n      0x20\n      add\n        /* \"contracts/CarreraCoches/principal.sol\":1876:1883  _modelo */\n      dup7\n        /* \"contracts/CarreraCoches/principal.sol\":1858:1952  Coche(msg.sender, _modelo, _marca, _nombrePiloto, 0, 0, uint32(block.timestamp + cooldown), 1) */\n      dup2\n      mstore\n      0x20\n      add\n        /* \"contracts/CarreraCoches/principal.sol\":1885:1891  _marca */\n      dup6\n        /* \"contracts/CarreraCoches/principal.sol\":1858:1952  Coche(msg.sender, _modelo, _marca, _nombrePiloto, 0, 0, uint32(block.timestamp + cooldown), 1) */\n      dup2\n      mstore\n      0x20\n      add\n        /* \"contracts/CarreraCoches/principal.sol\":1893:1906  _nombrePiloto */\n      dup5\n        /* \"contracts/CarreraCoches/principal.sol\":1858:1952  Coche(msg.sender, _modelo, _marca, _nombrePiloto, 0, 0, uint32(block.timestamp + cooldown), 1) */\n      dup2\n      mstore\n      0x20\n      add\n        /* \"contracts/CarreraCoches/principal.sol\":1908:1909  0 */\n      0x00\n        /* \"contracts/CarreraCoches/principal.sol\":1858:1952  Coche(msg.sender, _modelo, _marca, _nombrePiloto, 0, 0, uint32(block.timestamp + cooldown), 1) */\n      dup2\n      mstore\n      0x20\n      add\n        /* \"contracts/CarreraCoches/principal.sol\":1911:1912  0 */\n      0x00\n        /* \"contracts/CarreraCoches/principal.sol\":1858:1952  Coche(msg.sender, _modelo, _marca, _nombrePiloto, 0, 0, uint32(block.timestamp + cooldown), 1) */\n      dup2\n      mstore\n      0x20\n      add\n        /* \"contracts/CarreraCoches/principal.sol\":1939:1947  cooldown */\n      sload(0x03)\n        /* \"contracts/CarreraCoches/principal.sol\":1921:1936  block.timestamp */\n      timestamp\n        /* \"contracts/CarreraCoches/principal.sol\":1921:1947  block.timestamp + cooldown */\n      tag_161\n      swap2\n      swap1\n      tag_162\n      jump\t// in\n    tag_161:\n        /* \"contracts/CarreraCoches/principal.sol\":1858:1952  Coche(msg.sender, _modelo, _marca, _nombrePiloto, 0, 0, uint32(block.timestamp + cooldown), 1) */\n      0xffffffff\n      and\n      dup2\n      mstore\n      0x20\n      add\n        /* \"contracts/CarreraCoches/principal.sol\":1950:1951  1 */\n      0x01\n        /* \"contracts/CarreraCoches/principal.sol\":1858:1952  Coche(msg.sender, _modelo, _marca, _nombrePiloto, 0, 0, uint32(block.timestamp + cooldown), 1) */\n      0xffffffff\n      and\n      dup2\n      mstore\n      pop\n        /* \"contracts/CarreraCoches/principal.sol\":1841:1953  listaCoches.push(Coche(msg.sender, _modelo, _marca, _nombrePiloto, 0, 0, uint32(block.timestamp + cooldown), 1)) */\n      swap1\n      dup1\n      0x01\n      dup2\n      sload\n      add\n      dup1\n      dup3\n      sstore\n      dup1\n      swap2\n      pop\n      pop\n      0x01\n      swap1\n      sub\n      swap1\n      0x00\n      mstore\n      keccak256(0x00, 0x20)\n      swap1\n      0x08\n      mul\n      add\n      0x00\n      swap1\n      swap2\n      swap1\n      swap2\n      swap1\n      swap2\n      pop\n      0x00\n      dup3\n      add\n      mload\n      dup2\n      0x00\n      add\n      exp(0x0100, 0x00)\n      dup2\n      sload\n      dup2\n      0xffffffffffffffffffffffffffffffffffffffff\n      mul\n      not\n      and\n      swap1\n      dup4\n      0xffffffffffffffffffffffffffffffffffffffff\n      and\n      mul\n      or\n      swap1\n      sstore\n      pop\n      0x20\n      dup3\n      add\n      mload\n      dup2\n      0x01\n      add\n      swap1\n      dup1\n      mload\n      swap1\n      0x20\n      add\n      swap1\n      tag_164\n      swap3\n      swap2\n      swap1\n      tag_124\n      jump\t// in\n    tag_164:\n      pop\n      0x40\n      dup3\n      add\n      mload\n      dup2\n      0x02\n      add\n      swap1\n      dup1\n      mload\n      swap1\n      0x20\n      add\n      swap1\n      tag_165\n      swap3\n      swap2\n      swap1\n      tag_124\n      jump\t// in\n    tag_165:\n      pop\n      0x60\n      dup3\n      add\n      mload\n      dup2\n      0x03\n      add\n      swap1\n      dup1\n      mload\n      swap1\n      0x20\n      add\n      swap1\n      tag_166\n      swap3\n      swap2\n      swap1\n      tag_124\n      jump\t// in\n    tag_166:\n      pop\n      0x80\n      dup3\n      add\n      mload\n      dup2\n      0x04\n      add\n      sstore\n      0xa0\n      dup3\n      add\n      mload\n      dup2\n      0x05\n      add\n      sstore\n      0xc0\n      dup3\n      add\n      mload\n      dup2\n      0x06\n      add\n      sstore\n      0xe0\n      dup3\n      add\n      mload\n      dup2\n      0x07\n      add\n      exp(0x0100, 0x00)\n      dup2\n      sload\n      dup2\n      0xffffffff\n      mul\n      not\n      and\n      swap1\n      dup4\n      0xffffffff\n      and\n      mul\n      or\n      swap1\n      sstore\n      pop\n      pop\n      pop\n        /* \"contracts/CarreraCoches/principal.sol\":1964:1971  uint id */\n      0x00\n        /* \"contracts/CarreraCoches/principal.sol\":1974:1985  listaCoches */\n      0x06\n        /* \"contracts/CarreraCoches/principal.sol\":1974:1992  listaCoches.length */\n      dup1\n      sload\n      swap1\n      pop\n        /* \"contracts/CarreraCoches/principal.sol\":1964:1992  uint id = listaCoches.length */\n      swap1\n      pop\n        /* \"contracts/CarreraCoches/principal.sol\":2028:2038  msg.sender */\n      caller\n        /* \"contracts/CarreraCoches/principal.sol\":2003:2021  cocheDePropietario */\n      0x07\n        /* \"contracts/CarreraCoches/principal.sol\":2003:2025  cocheDePropietario[id] */\n      0x00\n        /* \"contracts/CarreraCoches/principal.sol\":2022:2024  id */\n      dup4\n        /* \"contracts/CarreraCoches/principal.sol\":2003:2025  cocheDePropietario[id] */\n      dup2\n      mstore\n      0x20\n      add\n      swap1\n      dup2\n      mstore\n      0x20\n      add\n      0x00\n      keccak256\n      0x00\n        /* \"contracts/CarreraCoches/principal.sol\":2003:2038  cocheDePropietario[id] = msg.sender */\n      0x0100\n      exp\n      dup2\n      sload\n      dup2\n      0xffffffffffffffffffffffffffffffffffffffff\n      mul\n      not\n      and\n      swap1\n      dup4\n      0xffffffffffffffffffffffffffffffffffffffff\n      and\n      mul\n      or\n      swap1\n      sstore\n      pop\n        /* \"contracts/CarreraCoches/principal.sol\":2049:2068  numeroCochesPersona */\n      0x08\n        /* \"contracts/CarreraCoches/principal.sol\":2049:2080  numeroCochesPersona[msg.sender] */\n      0x00\n        /* \"contracts/CarreraCoches/principal.sol\":2069:2079  msg.sender */\n      caller\n        /* \"contracts/CarreraCoches/principal.sol\":2049:2080  numeroCochesPersona[msg.sender] */\n      0xffffffffffffffffffffffffffffffffffffffff\n      and\n      0xffffffffffffffffffffffffffffffffffffffff\n      and\n      dup2\n      mstore\n      0x20\n      add\n      swap1\n      dup2\n      mstore\n      0x20\n      add\n      0x00\n      keccak256\n      0x00\n        /* \"contracts/CarreraCoches/principal.sol\":2049:2082  numeroCochesPersona[msg.sender]++ */\n      dup2\n      sload\n      dup1\n      swap3\n      swap2\n      swap1\n      tag_167\n      swap1\n      tag_130\n      jump\t// in\n    tag_167:\n      swap2\n      swap1\n      pop\n      sstore\n      pop\n        /* \"contracts/CarreraCoches/principal.sol\":2093:2101  contador */\n      0x02\n      0x00\n        /* \"contracts/CarreraCoches/principal.sol\":2093:2103  contador++ */\n      dup2\n      sload\n      dup1\n      swap3\n      swap2\n      swap1\n      tag_168\n      swap1\n      tag_130\n      jump\t// in\n    tag_168:\n      swap2\n      swap1\n      pop\n      sstore\n      pop\n        /* \"contracts/CarreraCoches/principal.sol\":2132:2133  1 */\n      0x01\n        /* \"contracts/CarreraCoches/principal.sol\":2121:2129  contador */\n      sload(0x02)\n        /* \"contracts/CarreraCoches/principal.sol\":2121:2133  contador - 1 */\n      tag_169\n      swap2\n      swap1\n      tag_170\n      jump\t// in\n    tag_169:\n        /* \"contracts/CarreraCoches/principal.sol\":2114:2133  return contador - 1 */\n      swap2\n      pop\n      pop\n        /* \"contracts/CarreraCoches/principal.sol\":1701:2141  function anadirCoche(string memory _modelo, string memory _marca, string memory _nombrePiloto) public restriccion returns (uint) {\r... */\n      swap4\n      swap3\n      pop\n      pop\n      pop\n      jump\t// out\n        /* \"contracts/CarreraCoches/cocheToken.sol\":318:442  function ownerOf(uint256 _tokenId) external override view returns (address) {\r... */\n    tag_58:\n        /* \"contracts/CarreraCoches/cocheToken.sol\":385:392  address */\n      0x00\n        /* \"contracts/CarreraCoches/cocheToken.sol\":408:426  cocheDePropietario */\n      0x07\n        /* \"contracts/CarreraCoches/cocheToken.sol\":408:436  cocheDePropietario[_tokenId] */\n      0x00\n        /* \"contracts/CarreraCoches/cocheToken.sol\":427:435  _tokenId */\n      dup4\n        /* \"contracts/CarreraCoches/cocheToken.sol\":408:436  cocheDePropietario[_tokenId] */\n      dup2\n      mstore\n      0x20\n      add\n      swap1\n      dup2\n      mstore\n      0x20\n      add\n      0x00\n      keccak256\n      0x00\n      swap1\n      sload\n      swap1\n      0x0100\n      exp\n      swap1\n      div\n      0xffffffffffffffffffffffffffffffffffffffff\n      and\n        /* \"contracts/CarreraCoches/cocheToken.sol\":401:436  return cocheDePropietario[_tokenId] */\n      swap1\n      pop\n        /* \"contracts/CarreraCoches/cocheToken.sol\":318:442  function ownerOf(uint256 _tokenId) external override view returns (address) {\r... */\n      swap2\n      swap1\n      pop\n      jump\t// out\n        /* \"contracts/CarreraCoches/principal.sol\":2510:2869  function subirDeNivel(address _propietario) external payable returns(string memory) {\r... */\n    tag_63:\n        /* \"contracts/CarreraCoches/principal.sol\":2579:2592  string memory */\n      0x60\n        /* \"contracts/CarreraCoches/principal.sol\":2624:2634  subirNivel */\n      sload(0x04)\n        /* \"contracts/CarreraCoches/principal.sol\":2613:2622  msg.value */\n      callvalue\n        /* \"contracts/CarreraCoches/principal.sol\":2613:2634  msg.value==subirNivel */\n      eq\n        /* \"contracts/CarreraCoches/principal.sol\":2605:2635  require(msg.value==subirNivel) */\n      tag_173\n      jumpi\n      0x00\n      dup1\n      revert\n    tag_173:\n        /* \"contracts/CarreraCoches/principal.sol\":2650:2656  uint i */\n      0x00\n        /* \"contracts/CarreraCoches/principal.sol\":2646:2862  for(uint i = 0; i < listaCoches.length; i++){\r... */\n    tag_174:\n        /* \"contracts/CarreraCoches/principal.sol\":2666:2677  listaCoches */\n      0x06\n        /* \"contracts/CarreraCoches/principal.sol\":2666:2684  listaCoches.length */\n      dup1\n      sload\n      swap1\n      pop\n        /* \"contracts/CarreraCoches/principal.sol\":2662:2663  i */\n      dup2\n        /* \"contracts/CarreraCoches/principal.sol\":2662:2684  i < listaCoches.length */\n      lt\n        /* \"contracts/CarreraCoches/principal.sol\":2646:2862  for(uint i = 0; i < listaCoches.length; i++){\r... */\n      iszero\n      tag_175\n      jumpi\n        /* \"contracts/CarreraCoches/principal.sol\":2735:2747  _propietario */\n      dup3\n        /* \"contracts/CarreraCoches/principal.sol\":2708:2747  listaCoches[i].idPiloto == _propietario */\n      0xffffffffffffffffffffffffffffffffffffffff\n      and\n        /* \"contracts/CarreraCoches/principal.sol\":2708:2719  listaCoches */\n      0x06\n        /* \"contracts/CarreraCoches/principal.sol\":2720:2721  i */\n      dup3\n        /* \"contracts/CarreraCoches/principal.sol\":2708:2722  listaCoches[i] */\n      dup2\n      sload\n      dup2\n      lt\n      tag_177\n      jumpi\n      tag_178\n      tag_117\n      jump\t// in\n    tag_178:\n    tag_177:\n      swap1\n      0x00\n      mstore\n      keccak256(0x00, 0x20)\n      swap1\n      0x08\n      mul\n      add\n        /* \"contracts/CarreraCoches/principal.sol\":2708:2731  listaCoches[i].idPiloto */\n      0x00\n      add\n      0x00\n      swap1\n      sload\n      swap1\n      0x0100\n      exp\n      swap1\n      div\n      0xffffffffffffffffffffffffffffffffffffffff\n      and\n        /* \"contracts/CarreraCoches/principal.sol\":2708:2747  listaCoches[i].idPiloto == _propietario */\n      0xffffffffffffffffffffffffffffffffffffffff\n      and\n      eq\n        /* \"contracts/CarreraCoches/principal.sol\":2705:2851  if(listaCoches[i].idPiloto == _propietario){\r... */\n      iszero\n      tag_180\n      jumpi\n        /* \"contracts/CarreraCoches/principal.sol\":2767:2778  listaCoches */\n      0x06\n        /* \"contracts/CarreraCoches/principal.sol\":2779:2780  i */\n      dup2\n        /* \"contracts/CarreraCoches/principal.sol\":2767:2781  listaCoches[i] */\n      dup2\n      sload\n      dup2\n      lt\n      tag_181\n      jumpi\n      tag_182\n      tag_117\n      jump\t// in\n    tag_182:\n    tag_181:\n      swap1\n      0x00\n      mstore\n      keccak256(0x00, 0x20)\n      swap1\n      0x08\n      mul\n      add\n        /* \"contracts/CarreraCoches/principal.sol\":2767:2787  listaCoches[i].nivel */\n      0x07\n      add\n      0x00\n        /* \"contracts/CarreraCoches/principal.sol\":2767:2789  listaCoches[i].nivel++ */\n      dup2\n      dup2\n      swap1\n      sload\n      swap1\n      0x0100\n      exp\n      swap1\n      div\n      0xffffffff\n      and\n      dup1\n      swap3\n      swap2\n      swap1\n      tag_184\n      swap1\n      tag_185\n      jump\t// in\n    tag_184:\n      swap2\n      swap1\n      0x0100\n      exp\n      dup2\n      sload\n      dup2\n      0xffffffff\n      mul\n      not\n      and\n      swap1\n      dup4\n      0xffffffff\n      and\n      mul\n      or\n      swap1\n      sstore\n      pop\n      pop\n        /* \"contracts/CarreraCoches/principal.sol\":2808:2835  return \"Ha subido de nivel\" */\n      mload(0x40)\n      dup1\n      0x40\n      add\n      0x40\n      mstore\n      dup1\n      0x12\n      dup2\n      mstore\n      0x20\n      add\n      0x48612073756269646f206465206e6976656c0000000000000000000000000000\n      dup2\n      mstore\n      pop\n      swap2\n      pop\n      pop\n      jump(tag_172)\n        /* \"contracts/CarreraCoches/principal.sol\":2705:2851  if(listaCoches[i].idPiloto == _propietario){\r... */\n    tag_180:\n        /* \"contracts/CarreraCoches/principal.sol\":2686:2689  i++ */\n      dup1\n      dup1\n      tag_186\n      swap1\n      tag_130\n      jump\t// in\n    tag_186:\n      swap2\n      pop\n      pop\n        /* \"contracts/CarreraCoches/principal.sol\":2646:2862  for(uint i = 0; i < listaCoches.length; i++){\r... */\n      jump(tag_174)\n    tag_175:\n      pop\n        /* \"contracts/CarreraCoches/principal.sol\":2510:2869  function subirDeNivel(address _propietario) external payable returns(string memory) {\r... */\n    tag_172:\n      swap2\n      swap1\n      pop\n      jump\t// out\n        /* \"contracts/CarreraCoches/principal.sol\":3892:7238  function Apostar(uint dineroApostar) public payable returns(string memory) {\r... */\n    tag_67:\n        /* \"contracts/CarreraCoches/principal.sol\":3952:3965  string memory */\n      0x60\n        /* \"contracts/CarreraCoches/principal.sol\":4011:4012  1 */\n      0x01\n        /* \"contracts/CarreraCoches/principal.sol\":3989:4000  listaCoches */\n      0x06\n        /* \"contracts/CarreraCoches/principal.sol\":3989:4007  listaCoches.length */\n      dup1\n      sload\n      swap1\n      pop\n        /* \"contracts/CarreraCoches/principal.sol\":3989:4012  listaCoches.length <= 1 */\n      gt\n        /* \"contracts/CarreraCoches/principal.sol\":3986:7232  if(listaCoches.length <= 1){\r... */\n      tag_188\n      jumpi\n        /* \"contracts/CarreraCoches/principal.sol\":4032:4111  confirmacionDepositoLleno(\"No hay coches suficientes para iniciar una carrera\") */\n      0x6158fc8f21c8cc73ddf920956cc75d0e8a48b4fc85817a0ba89eb3b6d2a75441\n      mload(0x40)\n      tag_189\n      swap1\n      tag_190\n      jump\t// in\n    tag_189:\n      mload(0x40)\n      dup1\n      swap2\n      sub\n      swap1\n      log1\n        /* \"contracts/CarreraCoches/principal.sol\":3986:7232  if(listaCoches.length <= 1){\r... */\n      jump(tag_191)\n    tag_188:\n        /* \"contracts/CarreraCoches/principal.sol\":4162:4175  dineroApostar */\n      dup2\n        /* \"contracts/CarreraCoches/principal.sol\":4149:4158  msg.value */\n      callvalue\n        /* \"contracts/CarreraCoches/principal.sol\":4149:4175  msg.value == dineroApostar */\n      eq\n        /* \"contracts/CarreraCoches/principal.sol\":4141:4176  require(msg.value == dineroApostar) */\n      tag_192\n      jumpi\n      0x00\n      dup1\n      revert\n    tag_192:\n        /* \"contracts/CarreraCoches/principal.sol\":4191:4200  randNonce */\n      0x01\n      0x00\n        /* \"contracts/CarreraCoches/principal.sol\":4191:4202  randNonce++ */\n      dup2\n      sload\n      dup1\n      swap3\n      swap2\n      swap1\n      tag_193\n      swap1\n      tag_130\n      jump\t// in\n    tag_193:\n      swap2\n      swap1\n      pop\n      sstore\n      pop\n        /* \"contracts/CarreraCoches/principal.sol\":4257:4270  uint256 rival */\n      0x00\n        /* \"contracts/CarreraCoches/principal.sol\":4360:4371  listaCoches */\n      0x06\n        /* \"contracts/CarreraCoches/principal.sol\":4360:4378  listaCoches.length */\n      dup1\n      sload\n      swap1\n      pop\n        /* \"contracts/CarreraCoches/principal.sol\":4308:4323  block.timestamp */\n      timestamp\n        /* \"contracts/CarreraCoches/principal.sol\":4325:4336  listaCoches */\n      0x06\n        /* \"contracts/CarreraCoches/principal.sol\":4325:4343  listaCoches.length */\n      dup1\n      sload\n      swap1\n      pop\n        /* \"contracts/CarreraCoches/principal.sol\":4345:4354  randNonce */\n      sload(0x01)\n        /* \"contracts/CarreraCoches/principal.sol\":4291:4355  abi.encodePacked(block.timestamp, listaCoches.length, randNonce) */\n      add(0x20, mload(0x40))\n      tag_194\n      swap4\n      swap3\n      swap2\n      swap1\n      tag_195\n      jump\t// in\n    tag_194:\n      mload(0x40)\n      0x20\n      dup2\n      dup4\n      sub\n      sub\n      dup2\n      mstore\n      swap1\n      0x40\n      mstore\n        /* \"contracts/CarreraCoches/principal.sol\":4281:4356  keccak256(abi.encodePacked(block.timestamp, listaCoches.length, randNonce)) */\n      dup1\n      mload\n      swap1\n      0x20\n      add\n      keccak256\n        /* \"contracts/CarreraCoches/principal.sol\":4273:4357  uint256(keccak256(abi.encodePacked(block.timestamp, listaCoches.length, randNonce))) */\n      0x00\n      shr\n        /* \"contracts/CarreraCoches/principal.sol\":4273:4378  uint256(keccak256(abi.encodePacked(block.timestamp, listaCoches.length, randNonce))) % listaCoches.length */\n      tag_196\n      swap2\n      swap1\n      tag_197\n      jump\t// in\n    tag_196:\n        /* \"contracts/CarreraCoches/principal.sol\":4257:4378  uint256 rival = uint256(keccak256(abi.encodePacked(block.timestamp, listaCoches.length, randNonce))) % listaCoches.length */\n      swap1\n      pop\n        /* \"contracts/CarreraCoches/principal.sol\":4393:4413  address addressRival */\n      0x00\n        /* \"contracts/CarreraCoches/principal.sol\":4416:4434  cocheDePropietario */\n      0x07\n        /* \"contracts/CarreraCoches/principal.sol\":4416:4441  cocheDePropietario[rival] */\n      0x00\n        /* \"contracts/CarreraCoches/principal.sol\":4435:4440  rival */\n      dup4\n        /* \"contracts/CarreraCoches/principal.sol\":4416:4441  cocheDePropietario[rival] */\n      dup2\n      mstore\n      0x20\n      add\n      swap1\n      dup2\n      mstore\n      0x20\n      add\n      0x00\n      keccak256\n      0x00\n      swap1\n      sload\n      swap1\n      0x0100\n      exp\n      swap1\n      div\n      0xffffffffffffffffffffffffffffffffffffffff\n      and\n        /* \"contracts/CarreraCoches/principal.sol\":4393:4441  address addressRival = cocheDePropietario[rival] */\n      swap1\n      pop\n        /* \"contracts/CarreraCoches/principal.sol\":4492:4501  randNonce */\n      0x01\n      0x00\n        /* \"contracts/CarreraCoches/principal.sol\":4492:4503  randNonce++ */\n      dup2\n      sload\n      dup1\n      swap3\n      swap2\n      swap1\n      tag_198\n      swap1\n      tag_130\n      jump\t// in\n    tag_198:\n      swap2\n      swap1\n      pop\n      sstore\n      pop\n        /* \"contracts/CarreraCoches/principal.sol\":4518:4529  uint numero */\n      0x00\n        /* \"contracts/CarreraCoches/principal.sol\":4532:4535  100 */\n      0x64\n        /* \"contracts/CarreraCoches/principal.sol\":4518:4535  uint numero = 100 */\n      swap1\n      pop\n        /* \"contracts/CarreraCoches/principal.sol\":4550:4565  uint256 ganador */\n      0x00\n        /* \"contracts/CarreraCoches/principal.sol\":4643:4649  numero */\n      dup2\n        /* \"contracts/CarreraCoches/principal.sol\":4603:4618  block.timestamp */\n      timestamp\n        /* \"contracts/CarreraCoches/principal.sol\":4620:4626  numero */\n      dup4\n        /* \"contracts/CarreraCoches/principal.sol\":4628:4637  randNonce */\n      sload(0x01)\n        /* \"contracts/CarreraCoches/principal.sol\":4586:4638  abi.encodePacked(block.timestamp, numero, randNonce) */\n      add(0x20, mload(0x40))\n      tag_199\n      swap4\n      swap3\n      swap2\n      swap1\n      tag_195\n      jump\t// in\n    tag_199:\n      mload(0x40)\n      0x20\n      dup2\n      dup4\n      sub\n      sub\n      dup2\n      mstore\n      swap1\n      0x40\n      mstore\n        /* \"contracts/CarreraCoches/principal.sol\":4576:4639  keccak256(abi.encodePacked(block.timestamp, numero, randNonce)) */\n      dup1\n      mload\n      swap1\n      0x20\n      add\n      keccak256\n        /* \"contracts/CarreraCoches/principal.sol\":4568:4640  uint256(keccak256(abi.encodePacked(block.timestamp, numero, randNonce))) */\n      0x00\n      shr\n        /* \"contracts/CarreraCoches/principal.sol\":4568:4649  uint256(keccak256(abi.encodePacked(block.timestamp, numero, randNonce))) % numero */\n      tag_200\n      swap2\n      swap1\n      tag_197\n      jump\t// in\n    tag_200:\n        /* \"contracts/CarreraCoches/principal.sol\":4550:4649  uint256 ganador = uint256(keccak256(abi.encodePacked(block.timestamp, numero, randNonce))) % numero */\n      swap1\n      pop\n        /* \"contracts/CarreraCoches/principal.sol\":4670:4676  uint i */\n      0x00\n        /* \"contracts/CarreraCoches/principal.sol\":4666:7221  for(uint i = 0; i < listaCoches.length; i++){\r... */\n    tag_201:\n        /* \"contracts/CarreraCoches/principal.sol\":4686:4697  listaCoches */\n      0x06\n        /* \"contracts/CarreraCoches/principal.sol\":4686:4704  listaCoches.length */\n      dup1\n      sload\n      swap1\n      pop\n        /* \"contracts/CarreraCoches/principal.sol\":4682:4683  i */\n      dup2\n        /* \"contracts/CarreraCoches/principal.sol\":4682:4704  i < listaCoches.length */\n      lt\n        /* \"contracts/CarreraCoches/principal.sol\":4666:7221  for(uint i = 0; i < listaCoches.length; i++){\r... */\n      iszero\n      tag_202\n      jumpi\n        /* \"contracts/CarreraCoches/principal.sol\":4783:4794  listaCoches */\n      0x06\n        /* \"contracts/CarreraCoches/principal.sol\":4795:4796  i */\n      dup2\n        /* \"contracts/CarreraCoches/principal.sol\":4783:4797  listaCoches[i] */\n      dup2\n      sload\n      dup2\n      lt\n      tag_204\n      jumpi\n      tag_205\n      tag_117\n      jump\t// in\n    tag_205:\n    tag_204:\n      swap1\n      0x00\n      mstore\n      keccak256(0x00, 0x20)\n      swap1\n      0x08\n      mul\n      add\n        /* \"contracts/CarreraCoches/principal.sol\":4783:4806  listaCoches[i].idPiloto */\n      0x00\n      add\n      0x00\n      swap1\n      sload\n      swap1\n      0x0100\n      exp\n      swap1\n      div\n      0xffffffffffffffffffffffffffffffffffffffff\n      and\n        /* \"contracts/CarreraCoches/principal.sol\":4769:4806  msg.sender == listaCoches[i].idPiloto */\n      0xffffffffffffffffffffffffffffffffffffffff\n      and\n        /* \"contracts/CarreraCoches/principal.sol\":4769:4779  msg.sender */\n      caller\n        /* \"contracts/CarreraCoches/principal.sol\":4769:4806  msg.sender == listaCoches[i].idPiloto */\n      0xffffffffffffffffffffffffffffffffffffffff\n      and\n      eq\n        /* \"contracts/CarreraCoches/principal.sol\":4765:7188  if (msg.sender == listaCoches[i].idPiloto) {\r... */\n      iszero\n      tag_207\n      jumpi\n        /* \"contracts/CarreraCoches/principal.sol\":4839:4869  _depositoLleno(listaCoches[i]) */\n      tag_208\n        /* \"contracts/CarreraCoches/principal.sol\":4854:4865  listaCoches */\n      0x06\n        /* \"contracts/CarreraCoches/principal.sol\":4866:4867  i */\n      dup3\n        /* \"contracts/CarreraCoches/principal.sol\":4854:4868  listaCoches[i] */\n      dup2\n      sload\n      dup2\n      lt\n      tag_209\n      jumpi\n      tag_210\n      tag_117\n      jump\t// in\n    tag_210:\n    tag_209:\n      swap1\n      0x00\n      mstore\n      keccak256(0x00, 0x20)\n      swap1\n      0x08\n      mul\n      add\n        /* \"contracts/CarreraCoches/principal.sol\":4839:4853  _depositoLleno */\n      tag_212\n        /* \"contracts/CarreraCoches/principal.sol\":4839:4869  _depositoLleno(listaCoches[i]) */\n      jump\t// in\n    tag_208:\n        /* \"contracts/CarreraCoches/principal.sol\":4831:4870  require(_depositoLleno(listaCoches[i])) */\n      tag_213\n      jumpi\n      0x00\n      dup1\n      revert\n    tag_213:\n        /* \"contracts/CarreraCoches/principal.sol\":4893:4904  listaCoches */\n      0x06\n        /* \"contracts/CarreraCoches/principal.sol\":4905:4906  i */\n      dup2\n        /* \"contracts/CarreraCoches/principal.sol\":4893:4907  listaCoches[i] */\n      dup2\n      sload\n      dup2\n      lt\n      tag_214\n      jumpi\n      tag_215\n      tag_117\n      jump\t// in\n    tag_215:\n    tag_214:\n      swap1\n      0x00\n      mstore\n      keccak256(0x00, 0x20)\n      swap1\n      0x08\n      mul\n      add\n        /* \"contracts/CarreraCoches/principal.sol\":4893:4923  listaCoches[i].carrerasTotales */\n      0x05\n      add\n      0x00\n        /* \"contracts/CarreraCoches/principal.sol\":4893:4925  listaCoches[i].carrerasTotales++ */\n      dup2\n      sload\n      dup1\n      swap3\n      swap2\n      swap1\n      tag_217\n      swap1\n      tag_130\n      jump\t// in\n    tag_217:\n      swap2\n      swap1\n      pop\n      sstore\n      pop\n        /* \"contracts/CarreraCoches/principal.sol\":4948:4959  listaCoches */\n      0x06\n        /* \"contracts/CarreraCoches/principal.sol\":4960:4965  rival */\n      dup6\n        /* \"contracts/CarreraCoches/principal.sol\":4948:4966  listaCoches[rival] */\n      dup2\n      sload\n      dup2\n      lt\n      tag_218\n      jumpi\n      tag_219\n      tag_117\n      jump\t// in\n    tag_219:\n    tag_218:\n      swap1\n      0x00\n      mstore\n      keccak256(0x00, 0x20)\n      swap1\n      0x08\n      mul\n      add\n        /* \"contracts/CarreraCoches/principal.sol\":4948:4982  listaCoches[rival].carrerasTotales */\n      0x05\n      add\n      0x00\n        /* \"contracts/CarreraCoches/principal.sol\":4948:4984  listaCoches[rival].carrerasTotales++ */\n      dup2\n      sload\n      dup1\n      swap3\n      swap2\n      swap1\n      tag_221\n      swap1\n      tag_130\n      jump\t// in\n    tag_221:\n      swap2\n      swap1\n      pop\n      sstore\n      pop\n        /* \"contracts/CarreraCoches/principal.sol\":5007:5034  _repostando(listaCoches[i]) */\n      tag_222\n        /* \"contracts/CarreraCoches/principal.sol\":5019:5030  listaCoches */\n      0x06\n        /* \"contracts/CarreraCoches/principal.sol\":5031:5032  i */\n      dup3\n        /* \"contracts/CarreraCoches/principal.sol\":5019:5033  listaCoches[i] */\n      dup2\n      sload\n      dup2\n      lt\n      tag_223\n      jumpi\n      tag_224\n      tag_117\n      jump\t// in\n    tag_224:\n    tag_223:\n      swap1\n      0x00\n      mstore\n      keccak256(0x00, 0x20)\n      swap1\n      0x08\n      mul\n      add\n        /* \"contracts/CarreraCoches/principal.sol\":5007:5018  _repostando */\n      tag_226\n        /* \"contracts/CarreraCoches/principal.sol\":5007:5034  _repostando(listaCoches[i]) */\n      jump\t// in\n    tag_222:\n        /* \"contracts/CarreraCoches/principal.sol\":5087:5098  listaCoches */\n      0x06\n        /* \"contracts/CarreraCoches/principal.sol\":5099:5100  i */\n      dup2\n        /* \"contracts/CarreraCoches/principal.sol\":5087:5101  listaCoches[i] */\n      dup2\n      sload\n      dup2\n      lt\n      tag_227\n      jumpi\n      tag_228\n      tag_117\n      jump\t// in\n    tag_228:\n    tag_227:\n      swap1\n      0x00\n      mstore\n      keccak256(0x00, 0x20)\n      swap1\n      0x08\n      mul\n      add\n        /* \"contracts/CarreraCoches/principal.sol\":5087:5107  listaCoches[i].nivel */\n      0x07\n      add\n      0x00\n      swap1\n      sload\n      swap1\n      0x0100\n      exp\n      swap1\n      div\n      0xffffffff\n      and\n        /* \"contracts/CarreraCoches/principal.sol\":5060:5107  listaCoches[rival].nivel < listaCoches[i].nivel */\n      0xffffffff\n      and\n        /* \"contracts/CarreraCoches/principal.sol\":5060:5071  listaCoches */\n      0x06\n        /* \"contracts/CarreraCoches/principal.sol\":5072:5077  rival */\n      dup7\n        /* \"contracts/CarreraCoches/principal.sol\":5060:5078  listaCoches[rival] */\n      dup2\n      sload\n      dup2\n      lt\n      tag_230\n      jumpi\n      tag_231\n      tag_117\n      jump\t// in\n    tag_231:\n    tag_230:\n      swap1\n      0x00\n      mstore\n      keccak256(0x00, 0x20)\n      swap1\n      0x08\n      mul\n      add\n        /* \"contracts/CarreraCoches/principal.sol\":5060:5084  listaCoches[rival].nivel */\n      0x07\n      add\n      0x00\n      swap1\n      sload\n      swap1\n      0x0100\n      exp\n      swap1\n      div\n      0xffffffff\n      and\n        /* \"contracts/CarreraCoches/principal.sol\":5060:5107  listaCoches[rival].nivel < listaCoches[i].nivel */\n      0xffffffff\n      and\n      lt\n        /* \"contracts/CarreraCoches/principal.sol\":5057:7165  if(listaCoches[rival].nivel < listaCoches[i].nivel){\r... */\n      iszero\n      tag_233\n      jumpi\n        /* \"contracts/CarreraCoches/principal.sol\":5147:5149  60 */\n      0x3c\n        /* \"contracts/CarreraCoches/principal.sol\":5138:5145  ganador */\n      dup3\n        /* \"contracts/CarreraCoches/principal.sol\":5138:5149  ganador<=60 */\n      gt\n        /* \"contracts/CarreraCoches/principal.sol\":5135:5708  if(ganador<=60){\r... */\n      tag_234\n      jumpi\n        /* \"contracts/CarreraCoches/principal.sol\":5181:5190  balance() */\n      tag_235\n        /* \"contracts/CarreraCoches/principal.sol\":5181:5188  balance */\n      tag_236\n        /* \"contracts/CarreraCoches/principal.sol\":5181:5190  balance() */\n      jump\t// in\n    tag_235:\n        /* \"contracts/CarreraCoches/principal.sol\":5221:5232  listaCoches */\n      0x06\n        /* \"contracts/CarreraCoches/principal.sol\":5233:5234  i */\n      dup2\n        /* \"contracts/CarreraCoches/principal.sol\":5221:5235  listaCoches[i] */\n      dup2\n      sload\n      dup2\n      lt\n      tag_237\n      jumpi\n      tag_238\n      tag_117\n      jump\t// in\n    tag_238:\n    tag_237:\n      swap1\n      0x00\n      mstore\n      keccak256(0x00, 0x20)\n      swap1\n      0x08\n      mul\n      add\n        /* \"contracts/CarreraCoches/principal.sol\":5221:5251  listaCoches[i].carrerasGanadas */\n      0x04\n      add\n      0x00\n        /* \"contracts/CarreraCoches/principal.sol\":5221:5253  listaCoches[i].carrerasGanadas++ */\n      dup2\n      sload\n      dup1\n      swap3\n      swap2\n      swap1\n      tag_240\n      swap1\n      tag_130\n      jump\t// in\n    tag_240:\n      swap2\n      swap1\n      pop\n      sstore\n      pop\n        /* \"contracts/CarreraCoches/principal.sol\":5284:5295  listaCoches */\n      0x06\n        /* \"contracts/CarreraCoches/principal.sol\":5296:5297  i */\n      dup2\n        /* \"contracts/CarreraCoches/principal.sol\":5284:5298  listaCoches[i] */\n      dup2\n      sload\n      dup2\n      lt\n      tag_241\n      jumpi\n      tag_242\n      tag_117\n      jump\t// in\n    tag_242:\n    tag_241:\n      swap1\n      0x00\n      mstore\n      keccak256(0x00, 0x20)\n      swap1\n      0x08\n      mul\n      add\n        /* \"contracts/CarreraCoches/principal.sol\":5284:5304  listaCoches[i].nivel */\n      0x07\n      add\n      0x00\n        /* \"contracts/CarreraCoches/principal.sol\":5284:5306  listaCoches[i].nivel++ */\n      dup2\n      dup2\n      swap1\n      sload\n      swap1\n      0x0100\n      exp\n      swap1\n      div\n      0xffffffff\n      and\n      dup1\n      swap3\n      swap2\n      swap1\n      tag_244\n      swap1\n      tag_185\n      jump\t// in\n    tag_244:\n      swap2\n      swap1\n      0x0100\n      exp\n      dup2\n      sload\n      dup2\n      0xffffffff\n      mul\n      not\n      and\n      swap1\n      dup4\n      0xffffffff\n      and\n      mul\n      or\n      swap1\n      sstore\n      pop\n      pop\n        /* \"contracts/CarreraCoches/principal.sol\":5337:5356  return \"Has ganado\" */\n      mload(0x40)\n      dup1\n      0x40\n      add\n      0x40\n      mstore\n      dup1\n      0x0a\n      dup2\n      mstore\n      0x20\n      add\n      0x4861732067616e61646f00000000000000000000000000000000000000000000\n      dup2\n      mstore\n      pop\n      swap6\n      pop\n      pop\n      pop\n      pop\n      pop\n      pop\n      jump(tag_187)\n        /* \"contracts/CarreraCoches/principal.sol\":5135:5708  if(ganador<=60){\r... */\n    tag_234:\n        /* \"contracts/CarreraCoches/principal.sol\":5510:5560  confirmacionDepositoLleno(\"El coche ganador es: \") */\n      0x6158fc8f21c8cc73ddf920956cc75d0e8a48b4fc85817a0ba89eb3b6d2a75441\n      mload(0x40)\n      tag_246\n      swap1\n      tag_247\n      jump\t// in\n    tag_246:\n      mload(0x40)\n      dup1\n      swap2\n      sub\n      swap1\n      log1\n        /* \"contracts/CarreraCoches/principal.sol\":5591:5595  this */\n      address\n        /* \"contracts/CarreraCoches/principal.sol\":5591:5615  this.verCochePropietario */\n      0xffffffffffffffffffffffffffffffffffffffff\n      and\n      0xe172fca8\n        /* \"contracts/CarreraCoches/principal.sol\":5616:5628  addressRival */\n      dup6\n        /* \"contracts/CarreraCoches/principal.sol\":5591:5629  this.verCochePropietario(addressRival) */\n      mload(0x40)\n      dup3\n      0xffffffff\n      and\n      0xe0\n      shl\n      dup2\n      mstore\n      0x04\n      add\n      tag_248\n      swap2\n      swap1\n      tag_60\n      jump\t// in\n    tag_248:\n      0x00\n      mload(0x40)\n      dup1\n      dup4\n      sub\n      dup2\n      0x00\n      dup8\n      dup1\n      extcodesize\n      iszero\n      dup1\n      iszero\n      tag_249\n      jumpi\n      0x00\n      dup1\n      revert\n    tag_249:\n      pop\n      gas\n      call\n      iszero\n      dup1\n      iszero\n      tag_251\n      jumpi\n      returndatasize\n      0x00\n      dup1\n      returndatacopy\n      revert(0x00, returndatasize)\n    tag_251:\n      pop\n      pop\n      pop\n      pop\n        /* \"contracts/CarreraCoches/principal.sol\":5660:5680  return \"Has perdido\" */\n      mload(0x40)\n      dup1\n      0x40\n      add\n      0x40\n      mstore\n      dup1\n      0x0b\n      dup2\n      mstore\n      0x20\n      add\n      0x486173207065726469646f000000000000000000000000000000000000000000\n      dup2\n      mstore\n      pop\n      swap6\n      pop\n      pop\n      pop\n      pop\n      pop\n      pop\n      jump(tag_187)\n        /* \"contracts/CarreraCoches/principal.sol\":5057:7165  if(listaCoches[rival].nivel < listaCoches[i].nivel){\r... */\n    tag_233:\n        /* \"contracts/CarreraCoches/principal.sol\":5771:5782  listaCoches */\n      0x06\n        /* \"contracts/CarreraCoches/principal.sol\":5783:5784  i */\n      dup2\n        /* \"contracts/CarreraCoches/principal.sol\":5771:5785  listaCoches[i] */\n      dup2\n      sload\n      dup2\n      lt\n      tag_253\n      jumpi\n      tag_254\n      tag_117\n      jump\t// in\n    tag_254:\n    tag_253:\n      swap1\n      0x00\n      mstore\n      keccak256(0x00, 0x20)\n      swap1\n      0x08\n      mul\n      add\n        /* \"contracts/CarreraCoches/principal.sol\":5771:5791  listaCoches[i].nivel */\n      0x07\n      add\n      0x00\n      swap1\n      sload\n      swap1\n      0x0100\n      exp\n      swap1\n      div\n      0xffffffff\n      and\n        /* \"contracts/CarreraCoches/principal.sol\":5743:5791  listaCoches[rival].nivel == listaCoches[i].nivel */\n      0xffffffff\n      and\n        /* \"contracts/CarreraCoches/principal.sol\":5743:5754  listaCoches */\n      0x06\n        /* \"contracts/CarreraCoches/principal.sol\":5755:5760  rival */\n      dup7\n        /* \"contracts/CarreraCoches/principal.sol\":5743:5761  listaCoches[rival] */\n      dup2\n      sload\n      dup2\n      lt\n      tag_256\n      jumpi\n      tag_257\n      tag_117\n      jump\t// in\n    tag_257:\n    tag_256:\n      swap1\n      0x00\n      mstore\n      keccak256(0x00, 0x20)\n      swap1\n      0x08\n      mul\n      add\n        /* \"contracts/CarreraCoches/principal.sol\":5743:5767  listaCoches[rival].nivel */\n      0x07\n      add\n      0x00\n      swap1\n      sload\n      swap1\n      0x0100\n      exp\n      swap1\n      div\n      0xffffffff\n      and\n        /* \"contracts/CarreraCoches/principal.sol\":5743:5791  listaCoches[rival].nivel == listaCoches[i].nivel */\n      0xffffffff\n      and\n      eq\n        /* \"contracts/CarreraCoches/principal.sol\":5740:7165  if(listaCoches[rival].nivel == listaCoches[i].nivel){\r... */\n      iszero\n      tag_259\n      jumpi\n        /* \"contracts/CarreraCoches/principal.sol\":5831:5833  50 */\n      0x32\n        /* \"contracts/CarreraCoches/principal.sol\":5822:5829  ganador */\n      dup3\n        /* \"contracts/CarreraCoches/principal.sol\":5822:5833  ganador<=50 */\n      gt\n        /* \"contracts/CarreraCoches/principal.sol\":5819:6394  if(ganador<=50){\r... */\n      tag_260\n      jumpi\n        /* \"contracts/CarreraCoches/principal.sol\":5865:5874  balance() */\n      tag_261\n        /* \"contracts/CarreraCoches/principal.sol\":5865:5872  balance */\n      tag_236\n        /* \"contracts/CarreraCoches/principal.sol\":5865:5874  balance() */\n      jump\t// in\n    tag_261:\n        /* \"contracts/CarreraCoches/principal.sol\":5905:5916  listaCoches */\n      0x06\n        /* \"contracts/CarreraCoches/principal.sol\":5917:5918  i */\n      dup2\n        /* \"contracts/CarreraCoches/principal.sol\":5905:5919  listaCoches[i] */\n      dup2\n      sload\n      dup2\n      lt\n      tag_262\n      jumpi\n      tag_263\n      tag_117\n      jump\t// in\n    tag_263:\n    tag_262:\n      swap1\n      0x00\n      mstore\n      keccak256(0x00, 0x20)\n      swap1\n      0x08\n      mul\n      add\n        /* \"contracts/CarreraCoches/principal.sol\":5905:5935  listaCoches[i].carrerasGanadas */\n      0x04\n      add\n      0x00\n        /* \"contracts/CarreraCoches/principal.sol\":5905:5937  listaCoches[i].carrerasGanadas++ */\n      dup2\n      sload\n      dup1\n      swap3\n      swap2\n      swap1\n      tag_265\n      swap1\n      tag_130\n      jump\t// in\n    tag_265:\n      swap2\n      swap1\n      pop\n      sstore\n      pop\n        /* \"contracts/CarreraCoches/principal.sol\":5968:5979  listaCoches */\n      0x06\n        /* \"contracts/CarreraCoches/principal.sol\":5980:5981  i */\n      dup2\n        /* \"contracts/CarreraCoches/principal.sol\":5968:5982  listaCoches[i] */\n      dup2\n      sload\n      dup2\n      lt\n      tag_266\n      jumpi\n      tag_267\n      tag_117\n      jump\t// in\n    tag_267:\n    tag_266:\n      swap1\n      0x00\n      mstore\n      keccak256(0x00, 0x20)\n      swap1\n      0x08\n      mul\n      add\n        /* \"contracts/CarreraCoches/principal.sol\":5968:5988  listaCoches[i].nivel */\n      0x07\n      add\n      0x00\n        /* \"contracts/CarreraCoches/principal.sol\":5968:5990  listaCoches[i].nivel++ */\n      dup2\n      dup2\n      swap1\n      sload\n      swap1\n      0x0100\n      exp\n      swap1\n      div\n      0xffffffff\n      and\n      dup1\n      swap3\n      swap2\n      swap1\n      tag_269\n      swap1\n      tag_185\n      jump\t// in\n    tag_269:\n      swap2\n      swap1\n      0x0100\n      exp\n      dup2\n      sload\n      dup2\n      0xffffffff\n      mul\n      not\n      and\n      swap1\n      dup4\n      0xffffffff\n      and\n      mul\n      or\n      swap1\n      sstore\n      pop\n      pop\n        /* \"contracts/CarreraCoches/principal.sol\":6021:6040  return \"Has ganado\" */\n      mload(0x40)\n      dup1\n      0x40\n      add\n      0x40\n      mstore\n      dup1\n      0x0a\n      dup2\n      mstore\n      0x20\n      add\n      0x4861732067616e61646f00000000000000000000000000000000000000000000\n      dup2\n      mstore\n      pop\n      swap6\n      pop\n      pop\n      pop\n      pop\n      pop\n      pop\n      jump(tag_187)\n        /* \"contracts/CarreraCoches/principal.sol\":5819:6394  if(ganador<=50){\r... */\n    tag_260:\n        /* \"contracts/CarreraCoches/principal.sol\":6196:6246  confirmacionDepositoLleno(\"El coche ganador es: \") */\n      0x6158fc8f21c8cc73ddf920956cc75d0e8a48b4fc85817a0ba89eb3b6d2a75441\n      mload(0x40)\n      tag_271\n      swap1\n      tag_247\n      jump\t// in\n    tag_271:\n      mload(0x40)\n      dup1\n      swap2\n      sub\n      swap1\n      log1\n        /* \"contracts/CarreraCoches/principal.sol\":6277:6281  this */\n      address\n        /* \"contracts/CarreraCoches/principal.sol\":6277:6301  this.verCochePropietario */\n      0xffffffffffffffffffffffffffffffffffffffff\n      and\n      0xe172fca8\n        /* \"contracts/CarreraCoches/principal.sol\":6302:6314  addressRival */\n      dup6\n        /* \"contracts/CarreraCoches/principal.sol\":6277:6315  this.verCochePropietario(addressRival) */\n      mload(0x40)\n      dup3\n      0xffffffff\n      and\n      0xe0\n      shl\n      dup2\n      mstore\n      0x04\n      add\n      tag_272\n      swap2\n      swap1\n      tag_60\n      jump\t// in\n    tag_272:\n      0x00\n      mload(0x40)\n      dup1\n      dup4\n      sub\n      dup2\n      0x00\n      dup8\n      dup1\n      extcodesize\n      iszero\n      dup1\n      iszero\n      tag_273\n      jumpi\n      0x00\n      dup1\n      revert\n    tag_273:\n      pop\n      gas\n      call\n      iszero\n      dup1\n      iszero\n      tag_275\n      jumpi\n      returndatasize\n      0x00\n      dup1\n      returndatacopy\n      revert(0x00, returndatasize)\n    tag_275:\n      pop\n      pop\n      pop\n      pop\n        /* \"contracts/CarreraCoches/principal.sol\":6346:6366  return \"Has perdido\" */\n      mload(0x40)\n      dup1\n      0x40\n      add\n      0x40\n      mstore\n      dup1\n      0x0b\n      dup2\n      mstore\n      0x20\n      add\n      0x486173207065726469646f000000000000000000000000000000000000000000\n      dup2\n      mstore\n      pop\n      swap6\n      pop\n      pop\n      pop\n      pop\n      pop\n      pop\n      jump(tag_187)\n        /* \"contracts/CarreraCoches/principal.sol\":5740:7165  if(listaCoches[rival].nivel == listaCoches[i].nivel){\r... */\n    tag_259:\n        /* \"contracts/CarreraCoches/principal.sol\":6461:6463  40 */\n      0x28\n        /* \"contracts/CarreraCoches/principal.sol\":6452:6459  ganador */\n      dup3\n        /* \"contracts/CarreraCoches/principal.sol\":6452:6463  ganador<=40 */\n      gt\n        /* \"contracts/CarreraCoches/principal.sol\":6449:7141  if(ganador<=40){\r... */\n      tag_277\n      jumpi\n        /* \"contracts/CarreraCoches/principal.sol\":6495:6504  balance() */\n      tag_278\n        /* \"contracts/CarreraCoches/principal.sol\":6495:6502  balance */\n      tag_236\n        /* \"contracts/CarreraCoches/principal.sol\":6495:6504  balance() */\n      jump\t// in\n    tag_278:\n        /* \"contracts/CarreraCoches/principal.sol\":6535:6546  listaCoches */\n      0x06\n        /* \"contracts/CarreraCoches/principal.sol\":6547:6548  i */\n      dup2\n        /* \"contracts/CarreraCoches/principal.sol\":6535:6549  listaCoches[i] */\n      dup2\n      sload\n      dup2\n      lt\n      tag_279\n      jumpi\n      tag_280\n      tag_117\n      jump\t// in\n    tag_280:\n    tag_279:\n      swap1\n      0x00\n      mstore\n      keccak256(0x00, 0x20)\n      swap1\n      0x08\n      mul\n      add\n        /* \"contracts/CarreraCoches/principal.sol\":6535:6565  listaCoches[i].carrerasGanadas */\n      0x04\n      add\n      0x00\n        /* \"contracts/CarreraCoches/principal.sol\":6535:6567  listaCoches[i].carrerasGanadas++ */\n      dup2\n      sload\n      dup1\n      swap3\n      swap2\n      swap1\n      tag_282\n      swap1\n      tag_130\n      jump\t// in\n    tag_282:\n      swap2\n      swap1\n      pop\n      sstore\n      pop\n        /* \"contracts/CarreraCoches/principal.sol\":6598:6609  listaCoches */\n      0x06\n        /* \"contracts/CarreraCoches/principal.sol\":6610:6611  i */\n      dup2\n        /* \"contracts/CarreraCoches/principal.sol\":6598:6612  listaCoches[i] */\n      dup2\n      sload\n      dup2\n      lt\n      tag_283\n      jumpi\n      tag_284\n      tag_117\n      jump\t// in\n    tag_284:\n    tag_283:\n      swap1\n      0x00\n      mstore\n      keccak256(0x00, 0x20)\n      swap1\n      0x08\n      mul\n      add\n        /* \"contracts/CarreraCoches/principal.sol\":6598:6618  listaCoches[i].nivel */\n      0x07\n      add\n      0x00\n        /* \"contracts/CarreraCoches/principal.sol\":6598:6620  listaCoches[i].nivel++ */\n      dup2\n      dup2\n      swap1\n      sload\n      swap1\n      0x0100\n      exp\n      swap1\n      div\n      0xffffffff\n      and\n      dup1\n      swap3\n      swap2\n      swap1\n      tag_286\n      swap1\n      tag_185\n      jump\t// in\n    tag_286:\n      swap2\n      swap1\n      0x0100\n      exp\n      dup2\n      sload\n      dup2\n      0xffffffff\n      mul\n      not\n      and\n      swap1\n      dup4\n      0xffffffff\n      and\n      mul\n      or\n      swap1\n      sstore\n      pop\n      pop\n        /* \"contracts/CarreraCoches/principal.sol\":6651:6670  return \"Has ganado\" */\n      mload(0x40)\n      dup1\n      0x40\n      add\n      0x40\n      mstore\n      dup1\n      0x0a\n      dup2\n      mstore\n      0x20\n      add\n      0x4861732067616e61646f00000000000000000000000000000000000000000000\n      dup2\n      mstore\n      pop\n      swap6\n      pop\n      pop\n      pop\n      pop\n      pop\n      pop\n      jump(tag_187)\n        /* \"contracts/CarreraCoches/principal.sol\":6449:7141  if(ganador<=40){\r... */\n    tag_277:\n        /* \"contracts/CarreraCoches/principal.sol\":6738:6788  confirmacionDepositoLleno(\"El coche ganador es: \") */\n      0x6158fc8f21c8cc73ddf920956cc75d0e8a48b4fc85817a0ba89eb3b6d2a75441\n      mload(0x40)\n      tag_288\n      swap1\n      tag_247\n      jump\t// in\n    tag_288:\n      mload(0x40)\n      dup1\n      swap2\n      sub\n      swap1\n      log1\n        /* \"contracts/CarreraCoches/principal.sol\":6819:6823  this */\n      address\n        /* \"contracts/CarreraCoches/principal.sol\":6819:6843  this.verCochePropietario */\n      0xffffffffffffffffffffffffffffffffffffffff\n      and\n      0xe172fca8\n        /* \"contracts/CarreraCoches/principal.sol\":6844:6856  addressRival */\n      dup6\n        /* \"contracts/CarreraCoches/principal.sol\":6819:6857  this.verCochePropietario(addressRival) */\n      mload(0x40)\n      dup3\n      0xffffffff\n      and\n      0xe0\n      shl\n      dup2\n      mstore\n      0x04\n      add\n      tag_289\n      swap2\n      swap1\n      tag_60\n      jump\t// in\n    tag_289:\n      0x00\n      mload(0x40)\n      dup1\n      dup4\n      sub\n      dup2\n      0x00\n      dup8\n      dup1\n      extcodesize\n      iszero\n      dup1\n      iszero\n      tag_290\n      jumpi\n      0x00\n      dup1\n      revert\n    tag_290:\n      pop\n      gas\n      call\n      iszero\n      dup1\n      iszero\n      tag_292\n      jumpi\n      returndatasize\n      0x00\n      dup1\n      returndatacopy\n      revert(0x00, returndatasize)\n    tag_292:\n      pop\n      pop\n      pop\n      pop\n        /* \"contracts/CarreraCoches/principal.sol\":7093:7113  return \"Has perdido\" */\n      mload(0x40)\n      dup1\n      0x40\n      add\n      0x40\n      mstore\n      dup1\n      0x0b\n      dup2\n      mstore\n      0x20\n      add\n      0x486173207065726469646f000000000000000000000000000000000000000000\n      dup2\n      mstore\n      pop\n      swap6\n      pop\n      pop\n      pop\n      pop\n      pop\n      pop\n      jump(tag_187)\n        /* \"contracts/CarreraCoches/principal.sol\":4765:7188  if (msg.sender == listaCoches[i].idPiloto) {\r... */\n    tag_207:\n        /* \"contracts/CarreraCoches/principal.sol\":4706:4709  i++ */\n      dup1\n      dup1\n      tag_293\n      swap1\n      tag_130\n      jump\t// in\n    tag_293:\n      swap2\n      pop\n      pop\n        /* \"contracts/CarreraCoches/principal.sol\":4666:7221  for(uint i = 0; i < listaCoches.length; i++){\r... */\n      jump(tag_201)\n    tag_202:\n      pop\n        /* \"contracts/CarreraCoches/principal.sol\":4126:7232  {\r... */\n      pop\n      pop\n      pop\n      pop\n        /* \"contracts/CarreraCoches/principal.sol\":3986:7232  if(listaCoches.length <= 1){\r... */\n    tag_191:\n        /* \"contracts/CarreraCoches/principal.sol\":3892:7238  function Apostar(uint dineroApostar) public payable returns(string memory) {\r... */\n    tag_187:\n      swap2\n      swap1\n      pop\n      jump\t// out\n        /* \"contracts/CarreraCoches/cocheToken.sol\":189:312  function balanceOf(address _owner) external override view returns (uint256) {\r... */\n    tag_72:\n        /* \"contracts/CarreraCoches/cocheToken.sol\":256:263  uint256 */\n      0x00\n        /* \"contracts/CarreraCoches/cocheToken.sol\":279:298  numeroCochesPersona */\n      0x08\n        /* \"contracts/CarreraCoches/cocheToken.sol\":279:306  numeroCochesPersona[_owner] */\n      0x00\n        /* \"contracts/CarreraCoches/cocheToken.sol\":299:305  _owner */\n      dup4\n        /* \"contracts/CarreraCoches/cocheToken.sol\":279:306  numeroCochesPersona[_owner] */\n      0xffffffffffffffffffffffffffffffffffffffff\n      and\n      0xffffffffffffffffffffffffffffffffffffffff\n      and\n      dup2\n      mstore\n      0x20\n      add\n      swap1\n      dup2\n      mstore\n      0x20\n      add\n      0x00\n      keccak256\n      sload\n        /* \"contracts/CarreraCoches/cocheToken.sol\":272:306  return numeroCochesPersona[_owner] */\n      swap1\n      pop\n        /* \"contracts/CarreraCoches/cocheToken.sol\":189:312  function balanceOf(address _owner) external override view returns (uint256) {\r... */\n      swap2\n      swap1\n      pop\n      jump\t// out\n        /* \"contracts/CarreraCoches/ownable.sol\":1719:1822  function renounceOwnership() public virtual onlyOwner {\r... */\n    tag_76:\n        /* \"contracts/CarreraCoches/ownable.sol\":1299:1311  _msgSender() */\n      tag_296\n        /* \"contracts/CarreraCoches/ownable.sol\":1299:1309  _msgSender */\n      tag_297\n        /* \"contracts/CarreraCoches/ownable.sol\":1299:1311  _msgSender() */\n      jump\t// in\n    tag_296:\n        /* \"contracts/CarreraCoches/ownable.sol\":1288:1311  owner() == _msgSender() */\n      0xffffffffffffffffffffffffffffffffffffffff\n      and\n        /* \"contracts/CarreraCoches/ownable.sol\":1288:1295  owner() */\n      tag_298\n        /* \"contracts/CarreraCoches/ownable.sol\":1288:1293  owner */\n      tag_84\n        /* \"contracts/CarreraCoches/ownable.sol\":1288:1295  owner() */\n      jump\t// in\n    tag_298:\n        /* \"contracts/CarreraCoches/ownable.sol\":1288:1311  owner() == _msgSender() */\n      0xffffffffffffffffffffffffffffffffffffffff\n      and\n      eq\n        /* \"contracts/CarreraCoches/ownable.sol\":1280:1348  require(owner() == _msgSender(), \"Ownable: caller is not the owner\") */\n      tag_299\n      jumpi\n      mload(0x40)\n      0x08c379a000000000000000000000000000000000000000000000000000000000\n      dup2\n      mstore\n      0x04\n      add\n      tag_300\n      swap1\n      tag_301\n      jump\t// in\n    tag_300:\n      mload(0x40)\n      dup1\n      swap2\n      sub\n      swap1\n      revert\n    tag_299:\n        /* \"contracts/CarreraCoches/ownable.sol\":1784:1814  _transferOwnership(address(0)) */\n      tag_303\n        /* \"contracts/CarreraCoches/ownable.sol\":1811:1812  0 */\n      0x00\n        /* \"contracts/CarreraCoches/ownable.sol\":1784:1802  _transferOwnership */\n      tag_304\n        /* \"contracts/CarreraCoches/ownable.sol\":1784:1814  _transferOwnership(address(0)) */\n      jump\t// in\n    tag_303:\n        /* \"contracts/CarreraCoches/ownable.sol\":1719:1822  function renounceOwnership() public virtual onlyOwner {\r... */\n      jump\t// out\n        /* \"contracts/CarreraCoches/principal.sol\":1019:1070  mapping (uint => address) public cocheDePropietario */\n    tag_80:\n      mstore(0x20, 0x07)\n      dup1\n      0x00\n      mstore\n      keccak256(0x00, 0x40)\n      0x00\n      swap2\n      pop\n      sload\n      swap1\n      0x0100\n      exp\n      swap1\n      div\n      0xffffffffffffffffffffffffffffffffffffffff\n      and\n      dup2\n      jump\t// out\n        /* \"contracts/CarreraCoches/ownable.sol\":1068:1155  function owner() public view virtual returns (address) {\r... */\n    tag_84:\n        /* \"contracts/CarreraCoches/ownable.sol\":1114:1121  address */\n      0x00\n        /* \"contracts/CarreraCoches/ownable.sol\":1141:1147  _owner */\n      dup1\n      0x00\n      swap1\n      sload\n      swap1\n      0x0100\n      exp\n      swap1\n      div\n      0xffffffffffffffffffffffffffffffffffffffff\n      and\n        /* \"contracts/CarreraCoches/ownable.sol\":1134:1147  return _owner */\n      swap1\n      pop\n        /* \"contracts/CarreraCoches/ownable.sol\":1068:1155  function owner() public view virtual returns (address) {\r... */\n      swap1\n      jump\t// out\n        /* \"contracts/CarreraCoches/ownable.sol\":701:722  address public _owner */\n    tag_88:\n      0x00\n      dup1\n      sload\n      swap1\n      0x0100\n      exp\n      swap1\n      div\n      0xffffffffffffffffffffffffffffffffffffffff\n      and\n      dup2\n      jump\t// out\n        /* \"contracts/CarreraCoches/principal.sol\":752:778  Coche[] public listaCoches */\n    tag_93:\n      0x06\n      dup2\n      dup2\n      sload\n      dup2\n      lt\n      tag_306\n      jumpi\n      0x00\n      dup1\n      revert\n    tag_306:\n      swap1\n      0x00\n      mstore\n      keccak256(0x00, 0x20)\n      swap1\n      0x08\n      mul\n      add\n      0x00\n      swap2\n      pop\n      swap1\n      pop\n      dup1\n      0x00\n      add\n      0x00\n      swap1\n      sload\n      swap1\n      0x0100\n      exp\n      swap1\n      div\n      0xffffffffffffffffffffffffffffffffffffffff\n      and\n      swap1\n      dup1\n      0x01\n      add\n      dup1\n      sload\n      tag_308\n      swap1\n      tag_309\n      jump\t// in\n    tag_308:\n      dup1\n      0x1f\n      add\n      0x20\n      dup1\n      swap2\n      div\n      mul\n      0x20\n      add\n      mload(0x40)\n      swap1\n      dup2\n      add\n      0x40\n      mstore\n      dup1\n      swap3\n      swap2\n      swap1\n      dup2\n      dup2\n      mstore\n      0x20\n      add\n      dup3\n      dup1\n      sload\n      tag_310\n      swap1\n      tag_309\n      jump\t// in\n    tag_310:\n      dup1\n      iszero\n      tag_311\n      jumpi\n      dup1\n      0x1f\n      lt\n      tag_312\n      jumpi\n      0x0100\n      dup1\n      dup4\n      sload\n      div\n      mul\n      dup4\n      mstore\n      swap2\n      0x20\n      add\n      swap2\n      jump(tag_311)\n    tag_312:\n      dup3\n      add\n      swap2\n      swap1\n      0x00\n      mstore\n      keccak256(0x00, 0x20)\n      swap1\n    tag_313:\n      dup2\n      sload\n      dup2\n      mstore\n      swap1\n      0x01\n      add\n      swap1\n      0x20\n      add\n      dup1\n      dup4\n      gt\n      tag_313\n      jumpi\n      dup3\n      swap1\n      sub\n      0x1f\n      and\n      dup3\n      add\n      swap2\n    tag_311:\n      pop\n      pop\n      pop\n      pop\n      pop\n      swap1\n      dup1\n      0x02\n      add\n      dup1\n      sload\n      tag_314\n      swap1\n      tag_309\n      jump\t// in\n    tag_314:\n      dup1\n      0x1f\n      add\n      0x20\n      dup1\n      swap2\n      div\n      mul\n      0x20\n      add\n      mload(0x40)\n      swap1\n      dup2\n      add\n      0x40\n      mstore\n      dup1\n      swap3\n      swap2\n      swap1\n      dup2\n      dup2\n      mstore\n      0x20\n      add\n      dup3\n      dup1\n      sload\n      tag_315\n      swap1\n      tag_309\n      jump\t// in\n    tag_315:\n      dup1\n      iszero\n      tag_316\n      jumpi\n      dup1\n      0x1f\n      lt\n      tag_317\n      jumpi\n      0x0100\n      dup1\n      dup4\n      sload\n      div\n      mul\n      dup4\n      mstore\n      swap2\n      0x20\n      add\n      swap2\n      jump(tag_316)\n    tag_317:\n      dup3\n      add\n      swap2\n      swap1\n      0x00\n      mstore\n      keccak256(0x00, 0x20)\n      swap1\n    tag_318:\n      dup2\n      sload\n      dup2\n      mstore\n      swap1\n      0x01\n      add\n      swap1\n      0x20\n      add\n      dup1\n      dup4\n      gt\n      tag_318\n      jumpi\n      dup3\n      swap1\n      sub\n      0x1f\n      and\n      dup3\n      add\n      swap2\n    tag_316:\n      pop\n      pop\n      pop\n      pop\n      pop\n      swap1\n      dup1\n      0x03\n      add\n      dup1\n      sload\n      tag_319\n      swap1\n      tag_309\n      jump\t// in\n    tag_319:\n      dup1\n      0x1f\n      add\n      0x20\n      dup1\n      swap2\n      div\n      mul\n      0x20\n      add\n      mload(0x40)\n      swap1\n      dup2\n      add\n      0x40\n      mstore\n      dup1\n      swap3\n      swap2\n      swap1\n      dup2\n      dup2\n      mstore\n      0x20\n      add\n      dup3\n      dup1\n      sload\n      tag_320\n      swap1\n      tag_309\n      jump\t// in\n    tag_320:\n      dup1\n      iszero\n      tag_321\n      jumpi\n      dup1\n      0x1f\n      lt\n      tag_322\n      jumpi\n      0x0100\n      dup1\n      dup4\n      sload\n      div\n      mul\n      dup4\n      mstore\n      swap2\n      0x20\n      add\n      swap2\n      jump(tag_321)\n    tag_322:\n      dup3\n      add\n      swap2\n      swap1\n      0x00\n      mstore\n      keccak256(0x00, 0x20)\n      swap1\n    tag_323:\n      dup2\n      sload\n      dup2\n      mstore\n      swap1\n      0x01\n      add\n      swap1\n      0x20\n      add\n      dup1\n      dup4\n      gt\n      tag_323\n      jumpi\n      dup3\n      swap1\n      sub\n      0x1f\n      and\n      dup3\n      add\n      swap2\n    tag_321:\n      pop\n      pop\n      pop\n      pop\n      pop\n      swap1\n      dup1\n      0x04\n      add\n      sload\n      swap1\n      dup1\n      0x05\n      add\n      sload\n      swap1\n      dup1\n      0x06\n      add\n      sload\n      swap1\n      dup1\n      0x07\n      add\n      0x00\n      swap1\n      sload\n      swap1\n      0x0100\n      exp\n      swap1\n      div\n      0xffffffff\n      and\n      swap1\n      pop\n      dup9\n      jump\t// out\n        /* \"contracts/CarreraCoches/principal.sol\":2913:3289  function verCochePropietario(address _propietario) external {\r... */\n    tag_99:\n        /* \"contracts/CarreraCoches/principal.sol\":2988:2994  uint i */\n      0x00\n        /* \"contracts/CarreraCoches/principal.sol\":2984:3282  for(uint i = 0; i < listaCoches.length; i++){\r... */\n    tag_325:\n        /* \"contracts/CarreraCoches/principal.sol\":3004:3015  listaCoches */\n      0x06\n        /* \"contracts/CarreraCoches/principal.sol\":3004:3022  listaCoches.length */\n      dup1\n      sload\n      swap1\n      pop\n        /* \"contracts/CarreraCoches/principal.sol\":3000:3001  i */\n      dup2\n        /* \"contracts/CarreraCoches/principal.sol\":3000:3022  i < listaCoches.length */\n      lt\n        /* \"contracts/CarreraCoches/principal.sol\":2984:3282  for(uint i = 0; i < listaCoches.length; i++){\r... */\n      iszero\n      tag_326\n      jumpi\n        /* \"contracts/CarreraCoches/principal.sol\":3071:3083  _propietario */\n      dup2\n        /* \"contracts/CarreraCoches/principal.sol\":3046:3083  listaCoches[i].idPiloto==_propietario */\n      0xffffffffffffffffffffffffffffffffffffffff\n      and\n        /* \"contracts/CarreraCoches/principal.sol\":3046:3057  listaCoches */\n      0x06\n        /* \"contracts/CarreraCoches/principal.sol\":3058:3059  i */\n      dup3\n        /* \"contracts/CarreraCoches/principal.sol\":3046:3060  listaCoches[i] */\n      dup2\n      sload\n      dup2\n      lt\n      tag_328\n      jumpi\n      tag_329\n      tag_117\n      jump\t// in\n    tag_329:\n    tag_328:\n      swap1\n      0x00\n      mstore\n      keccak256(0x00, 0x20)\n      swap1\n      0x08\n      mul\n      add\n        /* \"contracts/CarreraCoches/principal.sol\":3046:3069  listaCoches[i].idPiloto */\n      0x00\n      add\n      0x00\n      swap1\n      sload\n      swap1\n      0x0100\n      exp\n      swap1\n      div\n      0xffffffffffffffffffffffffffffffffffffffff\n      and\n        /* \"contracts/CarreraCoches/principal.sol\":3046:3083  listaCoches[i].idPiloto==_propietario */\n      0xffffffffffffffffffffffffffffffffffffffff\n      and\n      eq\n        /* \"contracts/CarreraCoches/principal.sol\":3043:3271  if(listaCoches[i].idPiloto==_propietario){\r... */\n      iszero\n      tag_331\n      jumpi\n        /* \"contracts/CarreraCoches/principal.sol\":3108:3255  cochePropietario(listaCoches[i].marca, listaCoches[i].modelo, listaCoches[i].nivel, listaCoches[i].carrerasGanadas, listaCoches[i].carrerasTotales) */\n      0x20fdb8ab571bfbab79104bea84f9c31cb79c5ae45b5f515c1d6c8393e0028350\n        /* \"contracts/CarreraCoches/principal.sol\":3125:3136  listaCoches */\n      0x06\n        /* \"contracts/CarreraCoches/principal.sol\":3137:3138  i */\n      dup3\n        /* \"contracts/CarreraCoches/principal.sol\":3125:3139  listaCoches[i] */\n      dup2\n      sload\n      dup2\n      lt\n      tag_332\n      jumpi\n      tag_333\n      tag_117\n      jump\t// in\n    tag_333:\n    tag_332:\n      swap1\n      0x00\n      mstore\n      keccak256(0x00, 0x20)\n      swap1\n      0x08\n      mul\n      add\n        /* \"contracts/CarreraCoches/principal.sol\":3125:3145  listaCoches[i].marca */\n      0x02\n      add\n        /* \"contracts/CarreraCoches/principal.sol\":3147:3158  listaCoches */\n      0x06\n        /* \"contracts/CarreraCoches/principal.sol\":3159:3160  i */\n      dup4\n        /* \"contracts/CarreraCoches/principal.sol\":3147:3161  listaCoches[i] */\n      dup2\n      sload\n      dup2\n      lt\n      tag_335\n      jumpi\n      tag_336\n      tag_117\n      jump\t// in\n    tag_336:\n    tag_335:\n      swap1\n      0x00\n      mstore\n      keccak256(0x00, 0x20)\n      swap1\n      0x08\n      mul\n      add\n        /* \"contracts/CarreraCoches/principal.sol\":3147:3168  listaCoches[i].modelo */\n      0x01\n      add\n        /* \"contracts/CarreraCoches/principal.sol\":3170:3181  listaCoches */\n      0x06\n        /* \"contracts/CarreraCoches/principal.sol\":3182:3183  i */\n      dup5\n        /* \"contracts/CarreraCoches/principal.sol\":3170:3184  listaCoches[i] */\n      dup2\n      sload\n      dup2\n      lt\n      tag_338\n      jumpi\n      tag_339\n      tag_117\n      jump\t// in\n    tag_339:\n    tag_338:\n      swap1\n      0x00\n      mstore\n      keccak256(0x00, 0x20)\n      swap1\n      0x08\n      mul\n      add\n        /* \"contracts/CarreraCoches/principal.sol\":3170:3190  listaCoches[i].nivel */\n      0x07\n      add\n      0x00\n      swap1\n      sload\n      swap1\n      0x0100\n      exp\n      swap1\n      div\n      0xffffffff\n      and\n        /* \"contracts/CarreraCoches/principal.sol\":3192:3203  listaCoches */\n      0x06\n        /* \"contracts/CarreraCoches/principal.sol\":3204:3205  i */\n      dup6\n        /* \"contracts/CarreraCoches/principal.sol\":3192:3206  listaCoches[i] */\n      dup2\n      sload\n      dup2\n      lt\n      tag_341\n      jumpi\n      tag_342\n      tag_117\n      jump\t// in\n    tag_342:\n    tag_341:\n      swap1\n      0x00\n      mstore\n      keccak256(0x00, 0x20)\n      swap1\n      0x08\n      mul\n      add\n        /* \"contracts/CarreraCoches/principal.sol\":3192:3222  listaCoches[i].carrerasGanadas */\n      0x04\n      add\n      sload\n        /* \"contracts/CarreraCoches/principal.sol\":3224:3235  listaCoches */\n      0x06\n        /* \"contracts/CarreraCoches/principal.sol\":3236:3237  i */\n      dup7\n        /* \"contracts/CarreraCoches/principal.sol\":3224:3238  listaCoches[i] */\n      dup2\n      sload\n      dup2\n      lt\n      tag_344\n      jumpi\n      tag_345\n      tag_117\n      jump\t// in\n    tag_345:\n    tag_344:\n      swap1\n      0x00\n      mstore\n      keccak256(0x00, 0x20)\n      swap1\n      0x08\n      mul\n      add\n        /* \"contracts/CarreraCoches/principal.sol\":3224:3254  listaCoches[i].carrerasTotales */\n      0x05\n      add\n      sload\n        /* \"contracts/CarreraCoches/principal.sol\":3108:3255  cochePropietario(listaCoches[i].marca, listaCoches[i].modelo, listaCoches[i].nivel, listaCoches[i].carrerasGanadas, listaCoches[i].carrerasTotales) */\n      mload(0x40)\n      tag_347\n      swap6\n      swap5\n      swap4\n      swap3\n      swap2\n      swap1\n      tag_348\n      jump\t// in\n    tag_347:\n      mload(0x40)\n      dup1\n      swap2\n      sub\n      swap1\n      log1\n        /* \"contracts/CarreraCoches/principal.sol\":3043:3271  if(listaCoches[i].idPiloto==_propietario){\r... */\n    tag_331:\n        /* \"contracts/CarreraCoches/principal.sol\":3024:3027  i++ */\n      dup1\n      dup1\n      tag_349\n      swap1\n      tag_130\n      jump\t// in\n    tag_349:\n      swap2\n      pop\n      pop\n        /* \"contracts/CarreraCoches/principal.sol\":2984:3282  for(uint i = 0; i < listaCoches.length; i++){\r... */\n      jump(tag_325)\n    tag_326:\n      pop\n        /* \"contracts/CarreraCoches/principal.sol\":2913:3289  function verCochePropietario(address _propietario) external {\r... */\n      pop\n      jump\t// out\n        /* \"contracts/CarreraCoches/ownable.sol\":1977:2178  function transferOwnership(address newOwner) public virtual onlyOwner {\r... */\n    tag_103:\n        /* \"contracts/CarreraCoches/ownable.sol\":1299:1311  _msgSender() */\n      tag_351\n        /* \"contracts/CarreraCoches/ownable.sol\":1299:1309  _msgSender */\n      tag_297\n        /* \"contracts/CarreraCoches/ownable.sol\":1299:1311  _msgSender() */\n      jump\t// in\n    tag_351:\n        /* \"contracts/CarreraCoches/ownable.sol\":1288:1311  owner() == _msgSender() */\n      0xffffffffffffffffffffffffffffffffffffffff\n      and\n        /* \"contracts/CarreraCoches/ownable.sol\":1288:1295  owner() */\n      tag_352\n        /* \"contracts/CarreraCoches/ownable.sol\":1288:1293  owner */\n      tag_84\n        /* \"contracts/CarreraCoches/ownable.sol\":1288:1295  owner() */\n      jump\t// in\n    tag_352:\n        /* \"contracts/CarreraCoches/ownable.sol\":1288:1311  owner() == _msgSender() */\n      0xffffffffffffffffffffffffffffffffffffffff\n      and\n      eq\n        /* \"contracts/CarreraCoches/ownable.sol\":1280:1348  require(owner() == _msgSender(), \"Ownable: caller is not the owner\") */\n      tag_353\n      jumpi\n      mload(0x40)\n      0x08c379a000000000000000000000000000000000000000000000000000000000\n      dup2\n      mstore\n      0x04\n      add\n      tag_354\n      swap1\n      tag_301\n      jump\t// in\n    tag_354:\n      mload(0x40)\n      dup1\n      swap2\n      sub\n      swap1\n      revert\n    tag_353:\n        /* \"contracts/CarreraCoches/ownable.sol\":2086:2087  0 */\n      0x00\n        /* \"contracts/CarreraCoches/ownable.sol\":2066:2088  newOwner != address(0) */\n      0xffffffffffffffffffffffffffffffffffffffff\n      and\n        /* \"contracts/CarreraCoches/ownable.sol\":2066:2074  newOwner */\n      dup2\n        /* \"contracts/CarreraCoches/ownable.sol\":2066:2088  newOwner != address(0) */\n      0xffffffffffffffffffffffffffffffffffffffff\n      and\n      eq\n      iszero\n        /* \"contracts/CarreraCoches/ownable.sol\":2058:2131  require(newOwner != address(0), \"Ownable: new owner is the zero address\") */\n      tag_356\n      jumpi\n      mload(0x40)\n      0x08c379a000000000000000000000000000000000000000000000000000000000\n      dup2\n      mstore\n      0x04\n      add\n      tag_357\n      swap1\n      tag_358\n      jump\t// in\n    tag_357:\n      mload(0x40)\n      dup1\n      swap2\n      sub\n      swap1\n      revert\n    tag_356:\n        /* \"contracts/CarreraCoches/ownable.sol\":2142:2170  _transferOwnership(newOwner) */\n      tag_359\n        /* \"contracts/CarreraCoches/ownable.sol\":2161:2169  newOwner */\n      dup2\n        /* \"contracts/CarreraCoches/ownable.sol\":2142:2160  _transferOwnership */\n      tag_304\n        /* \"contracts/CarreraCoches/ownable.sol\":2142:2170  _transferOwnership(newOwner) */\n      jump\t// in\n    tag_359:\n        /* \"contracts/CarreraCoches/ownable.sol\":1977:2178  function transferOwnership(address newOwner) public virtual onlyOwner {\r... */\n      pop\n      jump\t// out\n        /* \"contracts/CarreraCoches/cocheToken.sol\":1384:1709  function crearCoche(address _from, address _to) public {\r... */\n    tag_108:\n        /* \"contracts/CarreraCoches/cocheToken.sol\":1452:1458  uint i */\n      0x00\n        /* \"contracts/CarreraCoches/cocheToken.sol\":1448:1702  for(uint i = 0; i < listaCoches.length; i++){\r... */\n    tag_361:\n        /* \"contracts/CarreraCoches/cocheToken.sol\":1468:1479  listaCoches */\n      0x06\n        /* \"contracts/CarreraCoches/cocheToken.sol\":1468:1486  listaCoches.length */\n      dup1\n      sload\n      swap1\n      pop\n        /* \"contracts/CarreraCoches/cocheToken.sol\":1464:1465  i */\n      dup2\n        /* \"contracts/CarreraCoches/cocheToken.sol\":1464:1486  i < listaCoches.length */\n      lt\n        /* \"contracts/CarreraCoches/cocheToken.sol\":1448:1702  for(uint i = 0; i < listaCoches.length; i++){\r... */\n      iszero\n      tag_362\n      jumpi\n        /* \"contracts/CarreraCoches/cocheToken.sol\":1537:1542  _from */\n      dup3\n        /* \"contracts/CarreraCoches/cocheToken.sol\":1510:1542  listaCoches[i].idPiloto == _from */\n      0xffffffffffffffffffffffffffffffffffffffff\n      and\n        /* \"contracts/CarreraCoches/cocheToken.sol\":1510:1521  listaCoches */\n      0x06\n        /* \"contracts/CarreraCoches/cocheToken.sol\":1522:1523  i */\n      dup3\n        /* \"contracts/CarreraCoches/cocheToken.sol\":1510:1524  listaCoches[i] */\n      dup2\n      sload\n      dup2\n      lt\n      tag_364\n      jumpi\n      tag_365\n      tag_117\n      jump\t// in\n    tag_365:\n    tag_364:\n      swap1\n      0x00\n      mstore\n      keccak256(0x00, 0x20)\n      swap1\n      0x08\n      mul\n      add\n        /* \"contracts/CarreraCoches/cocheToken.sol\":1510:1533  listaCoches[i].idPiloto */\n      0x00\n      add\n      0x00\n      swap1\n      sload\n      swap1\n      0x0100\n      exp\n      swap1\n      div\n      0xffffffffffffffffffffffffffffffffffffffff\n      and\n        /* \"contracts/CarreraCoches/cocheToken.sol\":1510:1542  listaCoches[i].idPiloto == _from */\n      0xffffffffffffffffffffffffffffffffffffffff\n      and\n      eq\n        /* \"contracts/CarreraCoches/cocheToken.sol\":1507:1691  if(listaCoches[i].idPiloto == _from){\r... */\n      iszero\n      tag_367\n      jumpi\n        /* \"contracts/CarreraCoches/cocheToken.sol\":1562:1586  string memory _newModelo */\n      0x00\n        /* \"contracts/CarreraCoches/cocheToken.sol\":1589:1600  listaCoches */\n      0x06\n        /* \"contracts/CarreraCoches/cocheToken.sol\":1601:1602  i */\n      dup3\n        /* \"contracts/CarreraCoches/cocheToken.sol\":1589:1603  listaCoches[i] */\n      dup2\n      sload\n      dup2\n      lt\n      tag_368\n      jumpi\n      tag_369\n      tag_117\n      jump\t// in\n    tag_369:\n    tag_368:\n      swap1\n      0x00\n      mstore\n      keccak256(0x00, 0x20)\n      swap1\n      0x08\n      mul\n      add\n        /* \"contracts/CarreraCoches/cocheToken.sol\":1589:1610  listaCoches[i].modelo */\n      0x01\n      add\n        /* \"contracts/CarreraCoches/cocheToken.sol\":1562:1610  string memory _newModelo = listaCoches[i].modelo */\n      dup1\n      sload\n      tag_371\n      swap1\n      tag_309\n      jump\t// in\n    tag_371:\n      dup1\n      0x1f\n      add\n      0x20\n      dup1\n      swap2\n      div\n      mul\n      0x20\n      add\n      mload(0x40)\n      swap1\n      dup2\n      add\n      0x40\n      mstore\n      dup1\n      swap3\n      swap2\n      swap1\n      dup2\n      dup2\n      mstore\n      0x20\n      add\n      dup3\n      dup1\n      sload\n      tag_372\n      swap1\n      tag_309\n      jump\t// in\n    tag_372:\n      dup1\n      iszero\n      tag_373\n      jumpi\n      dup1\n      0x1f\n      lt\n      tag_374\n      jumpi\n      0x0100\n      dup1\n      dup4\n      sload\n      div\n      mul\n      dup4\n      mstore\n      swap2\n      0x20\n      add\n      swap2\n      jump(tag_373)\n    tag_374:\n      dup3\n      add\n      swap2\n      swap1\n      0x00\n      mstore\n      keccak256(0x00, 0x20)\n      swap1\n    tag_375:\n      dup2\n      sload\n      dup2\n      mstore\n      swap1\n      0x01\n      add\n      swap1\n      0x20\n      add\n      dup1\n      dup4\n      gt\n      tag_375\n      jumpi\n      dup3\n      swap1\n      sub\n      0x1f\n      and\n      dup3\n      add\n      swap2\n    tag_373:\n      pop\n      pop\n      pop\n      pop\n      pop\n      swap1\n      pop\n        /* \"contracts/CarreraCoches/cocheToken.sol\":1629:1652  string memory _newMarca */\n      0x00\n        /* \"contracts/CarreraCoches/cocheToken.sol\":1655:1666  listaCoches */\n      0x06\n        /* \"contracts/CarreraCoches/cocheToken.sol\":1667:1668  i */\n      dup4\n        /* \"contracts/CarreraCoches/cocheToken.sol\":1655:1669  listaCoches[i] */\n      dup2\n      sload\n      dup2\n      lt\n      tag_376\n      jumpi\n      tag_377\n      tag_117\n      jump\t// in\n    tag_377:\n    tag_376:\n      swap1\n      0x00\n      mstore\n      keccak256(0x00, 0x20)\n      swap1\n      0x08\n      mul\n      add\n        /* \"contracts/CarreraCoches/cocheToken.sol\":1655:1675  listaCoches[i].marca */\n      0x02\n      add\n        /* \"contracts/CarreraCoches/cocheToken.sol\":1629:1675  string memory _newMarca = listaCoches[i].marca */\n      dup1\n      sload\n      tag_379\n      swap1\n      tag_309\n      jump\t// in\n    tag_379:\n      dup1\n      0x1f\n      add\n      0x20\n      dup1\n      swap2\n      div\n      mul\n      0x20\n      add\n      mload(0x40)\n      swap1\n      dup2\n      add\n      0x40\n      mstore\n      dup1\n      swap3\n      swap2\n      swap1\n      dup2\n      dup2\n      mstore\n      0x20\n      add\n      dup3\n      dup1\n      sload\n      tag_380\n      swap1\n      tag_309\n      jump\t// in\n    tag_380:\n      dup1\n      iszero\n      tag_381\n      jumpi\n      dup1\n      0x1f\n      lt\n      tag_382\n      jumpi\n      0x0100\n      dup1\n      dup4\n      sload\n      div\n      mul\n      dup4\n      mstore\n      swap2\n      0x20\n      add\n      swap2\n      jump(tag_381)\n    tag_382:\n      dup3\n      add\n      swap2\n      swap1\n      0x00\n      mstore\n      keccak256(0x00, 0x20)\n      swap1\n    tag_383:\n      dup2\n      sload\n      dup2\n      mstore\n      swap1\n      0x01\n      add\n      swap1\n      0x20\n      add\n      dup1\n      dup4\n      gt\n      tag_383\n      jumpi\n      dup3\n      swap1\n      sub\n      0x1f\n      and\n      dup3\n      add\n      swap2\n    tag_381:\n      pop\n      pop\n      pop\n      pop\n      pop\n      swap1\n      pop\n        /* \"contracts/CarreraCoches/cocheToken.sol\":1543:1691  {\r... */\n      pop\n      pop\n        /* \"contracts/CarreraCoches/cocheToken.sol\":1507:1691  if(listaCoches[i].idPiloto == _from){\r... */\n    tag_367:\n        /* \"contracts/CarreraCoches/cocheToken.sol\":1488:1491  i++ */\n      dup1\n      dup1\n      tag_384\n      swap1\n      tag_130\n      jump\t// in\n    tag_384:\n      swap2\n      pop\n      pop\n        /* \"contracts/CarreraCoches/cocheToken.sol\":1448:1702  for(uint i = 0; i < listaCoches.length; i++){\r... */\n      jump(tag_361)\n    tag_362:\n      pop\n        /* \"contracts/CarreraCoches/cocheToken.sol\":1384:1709  function crearCoche(address _from, address _to) public {\r... */\n      pop\n      pop\n      jump\t// out\n        /* \"contracts/CarreraCoches/cocheToken.sol\":448:678  function _transfer(address _from, address _to, uint256 _tokenId) private {\r... */\n    tag_155:\n        /* \"contracts/CarreraCoches/cocheToken.sol\":528:547  numeroCochesPersona */\n      0x08\n        /* \"contracts/CarreraCoches/cocheToken.sol\":528:552  numeroCochesPersona[_to] */\n      0x00\n        /* \"contracts/CarreraCoches/cocheToken.sol\":548:551  _to */\n      dup4\n        /* \"contracts/CarreraCoches/cocheToken.sol\":528:552  numeroCochesPersona[_to] */\n      0xffffffffffffffffffffffffffffffffffffffff\n      and\n      0xffffffffffffffffffffffffffffffffffffffff\n      and\n      dup2\n      mstore\n      0x20\n      add\n      swap1\n      dup2\n      mstore\n      0x20\n      add\n      0x00\n      keccak256\n      0x00\n        /* \"contracts/CarreraCoches/cocheToken.sol\":528:554  numeroCochesPersona[_to]++ */\n      dup2\n      sload\n      dup1\n      swap3\n      swap2\n      swap1\n      tag_386\n      swap1\n      tag_130\n      jump\t// in\n    tag_386:\n      swap2\n      swap1\n      pop\n      sstore\n      pop\n        /* \"contracts/CarreraCoches/cocheToken.sol\":561:580  numeroCochesPersona */\n      0x08\n        /* \"contracts/CarreraCoches/cocheToken.sol\":561:587  numeroCochesPersona[_from] */\n      0x00\n        /* \"contracts/CarreraCoches/cocheToken.sol\":581:586  _from */\n      dup5\n        /* \"contracts/CarreraCoches/cocheToken.sol\":561:587  numeroCochesPersona[_from] */\n      0xffffffffffffffffffffffffffffffffffffffff\n      and\n      0xffffffffffffffffffffffffffffffffffffffff\n      and\n      dup2\n      mstore\n      0x20\n      add\n      swap1\n      dup2\n      mstore\n      0x20\n      add\n      0x00\n      keccak256\n      0x00\n        /* \"contracts/CarreraCoches/cocheToken.sol\":561:589  numeroCochesPersona[_from]-- */\n      dup2\n      sload\n      dup1\n      swap3\n      swap2\n      swap1\n      tag_387\n      swap1\n      tag_388\n      jump\t// in\n    tag_387:\n      swap2\n      swap1\n      pop\n      sstore\n      pop\n        /* \"contracts/CarreraCoches/cocheToken.sol\":627:630  _to */\n      dup2\n        /* \"contracts/CarreraCoches/cocheToken.sol\":596:614  cocheDePropietario */\n      0x07\n        /* \"contracts/CarreraCoches/cocheToken.sol\":596:624  cocheDePropietario[_tokenId] */\n      0x00\n        /* \"contracts/CarreraCoches/cocheToken.sol\":615:623  _tokenId */\n      dup4\n        /* \"contracts/CarreraCoches/cocheToken.sol\":596:624  cocheDePropietario[_tokenId] */\n      dup2\n      mstore\n      0x20\n      add\n      swap1\n      dup2\n      mstore\n      0x20\n      add\n      0x00\n      keccak256\n      0x00\n        /* \"contracts/CarreraCoches/cocheToken.sol\":596:630  cocheDePropietario[_tokenId] = _to */\n      0x0100\n      exp\n      dup2\n      sload\n      dup2\n      0xffffffffffffffffffffffffffffffffffffffff\n      mul\n      not\n      and\n      swap1\n      dup4\n      0xffffffffffffffffffffffffffffffffffffffff\n      and\n      mul\n      or\n      swap1\n      sstore\n      pop\n        /* \"contracts/CarreraCoches/cocheToken.sol\":663:671  _tokenId */\n      dup1\n        /* \"contracts/CarreraCoches/cocheToken.sol\":658:661  _to */\n      dup3\n        /* \"contracts/CarreraCoches/cocheToken.sol\":642:672  Transfer(_from, _to, _tokenId) */\n      0xffffffffffffffffffffffffffffffffffffffff\n      and\n        /* \"contracts/CarreraCoches/cocheToken.sol\":651:656  _from */\n      dup5\n        /* \"contracts/CarreraCoches/cocheToken.sol\":642:672  Transfer(_from, _to, _tokenId) */\n      0xffffffffffffffffffffffffffffffffffffffff\n      and\n      0xddf252ad1be2c89b69c2b068fc378daa952ba7f163c4a11628f55a4df523b3ef\n      mload(0x40)\n      mload(0x40)\n      dup1\n      swap2\n      sub\n      swap1\n      log4\n        /* \"contracts/CarreraCoches/cocheToken.sol\":448:678  function _transfer(address _from, address _to, uint256 _tokenId) private {\r... */\n      pop\n      pop\n      pop\n      jump\t// out\n        /* \"contracts/CarreraCoches/principal.sol\":2322:2461  function _depositoLleno(Coche storage _coche) internal view returns (bool) {\r... */\n    tag_212:\n        /* \"contracts/CarreraCoches/principal.sol\":2391:2395  bool */\n      0x00\n        /* \"contracts/CarreraCoches/principal.sol\":2438:2453  block.timestamp */\n      timestamp\n        /* \"contracts/CarreraCoches/principal.sol\":2415:2421  _coche */\n      dup3\n        /* \"contracts/CarreraCoches/principal.sol\":2415:2434  _coche.tiempoEspera */\n      0x06\n      add\n      sload\n        /* \"contracts/CarreraCoches/principal.sol\":2415:2453  _coche.tiempoEspera <= block.timestamp */\n      gt\n      iszero\n        /* \"contracts/CarreraCoches/principal.sol\":2408:2453  return _coche.tiempoEspera <= block.timestamp */\n      swap1\n      pop\n        /* \"contracts/CarreraCoches/principal.sol\":2322:2461  function _depositoLleno(Coche storage _coche) internal view returns (bool) {\r... */\n      swap2\n      swap1\n      pop\n      jump\t// out\n        /* \"contracts/CarreraCoches/principal.sol\":2169:2296  function _repostando(Coche storage _coche) internal {\r... */\n    tag_226:\n        /* \"contracts/CarreraCoches/principal.sol\":2279:2287  cooldown */\n      sload(0x03)\n        /* \"contracts/CarreraCoches/principal.sol\":2261:2276  block.timestamp */\n      timestamp\n        /* \"contracts/CarreraCoches/principal.sol\":2261:2287  block.timestamp + cooldown */\n      tag_391\n      swap2\n      swap1\n      tag_162\n      jump\t// in\n    tag_391:\n        /* \"contracts/CarreraCoches/principal.sol\":2232:2288  _coche.tiempoEspera = uint32(block.timestamp + cooldown) */\n      0xffffffff\n      and\n        /* \"contracts/CarreraCoches/principal.sol\":2232:2238  _coche */\n      dup2\n        /* \"contracts/CarreraCoches/principal.sol\":2232:2251  _coche.tiempoEspera */\n      0x06\n      add\n        /* \"contracts/CarreraCoches/principal.sol\":2232:2288  _coche.tiempoEspera = uint32(block.timestamp + cooldown) */\n      dup2\n      swap1\n      sstore\n      pop\n        /* \"contracts/CarreraCoches/principal.sol\":2169:2296  function _repostando(Coche storage _coche) internal {\r... */\n      pop\n      jump\t// out\n        /* \"contracts/CarreraCoches/principal.sol\":7295:7393  function balance() private {\r... */\n    tag_236:\n        /* \"contracts/CarreraCoches/principal.sol\":7342:7352  msg.sender */\n      caller\n        /* \"contracts/CarreraCoches/principal.sol\":7333:7362  payable (msg.sender).transfer */\n      0xffffffffffffffffffffffffffffffffffffffff\n      and\n        /* \"contracts/CarreraCoches/principal.sol\":7333:7385  payable (msg.sender).transfer(address(this).balance) */\n      0x08fc\n        /* \"contracts/CarreraCoches/principal.sol\":7363:7384  address(this).balance */\n      selfbalance\n        /* \"contracts/CarreraCoches/principal.sol\":7333:7385  payable (msg.sender).transfer(address(this).balance) */\n      swap1\n      dup2\n      iszero\n      mul\n      swap1\n      mload(0x40)\n      0x00\n      mload(0x40)\n      dup1\n      dup4\n      sub\n      dup2\n      dup6\n      dup9\n      dup9\n      call\n      swap4\n      pop\n      pop\n      pop\n      pop\n      iszero\n      dup1\n      iszero\n      tag_394\n      jumpi\n      returndatasize\n      0x00\n      dup1\n      returndatacopy\n      revert(0x00, returndatasize)\n    tag_394:\n      pop\n        /* \"contracts/CarreraCoches/principal.sol\":7295:7393  function balance() private {\r... */\n      jump\t// out\n        /* \"contracts/CarreraCoches/utils/Context.sol\":656:754  function _msgSender() internal view virtual returns (address) {\r... */\n    tag_297:\n        /* \"contracts/CarreraCoches/utils/Context.sol\":709:716  address */\n      0x00\n        /* \"contracts/CarreraCoches/utils/Context.sol\":736:746  msg.sender */\n      caller\n        /* \"contracts/CarreraCoches/utils/Context.sol\":729:746  return msg.sender */\n      swap1\n      pop\n        /* \"contracts/CarreraCoches/utils/Context.sol\":656:754  function _msgSender() internal view virtual returns (address) {\r... */\n      swap1\n      jump\t// out\n        /* \"contracts/CarreraCoches/ownable.sol\":2338:2529  function _transferOwnership(address newOwner) internal virtual {\r... */\n    tag_304:\n        /* \"contracts/CarreraCoches/ownable.sol\":2412:2428  address oldOwner */\n      0x00\n        /* \"contracts/CarreraCoches/ownable.sol\":2431:2437  _owner */\n      dup1\n      0x00\n      swap1\n      sload\n      swap1\n      0x0100\n      exp\n      swap1\n      div\n      0xffffffffffffffffffffffffffffffffffffffff\n      and\n        /* \"contracts/CarreraCoches/ownable.sol\":2412:2437  address oldOwner = _owner */\n      swap1\n      pop\n        /* \"contracts/CarreraCoches/ownable.sol\":2457:2465  newOwner */\n      dup2\n        /* \"contracts/CarreraCoches/ownable.sol\":2448:2454  _owner */\n      0x00\n      dup1\n        /* \"contracts/CarreraCoches/ownable.sol\":2448:2465  _owner = newOwner */\n      0x0100\n      exp\n      dup2\n      sload\n      dup2\n      0xffffffffffffffffffffffffffffffffffffffff\n      mul\n      not\n      and\n      swap1\n      dup4\n      0xffffffffffffffffffffffffffffffffffffffff\n      and\n      mul\n      or\n      swap1\n      sstore\n      pop\n        /* \"contracts/CarreraCoches/ownable.sol\":2512:2520  newOwner */\n      dup2\n        /* \"contracts/CarreraCoches/ownable.sol\":2481:2521  OwnershipTransferred(oldOwner, newOwner) */\n      0xffffffffffffffffffffffffffffffffffffffff\n      and\n        /* \"contracts/CarreraCoches/ownable.sol\":2502:2510  oldOwner */\n      dup2\n        /* \"contracts/CarreraCoches/ownable.sol\":2481:2521  OwnershipTransferred(oldOwner, newOwner) */\n      0xffffffffffffffffffffffffffffffffffffffff\n      and\n      0x8be0079c531659141344cd1fd0a4f28419497f9722a3daafe3b4186f6b6457e0\n      mload(0x40)\n      mload(0x40)\n      dup1\n      swap2\n      sub\n      swap1\n      log3\n        /* \"contracts/CarreraCoches/ownable.sol\":2401:2529  {\r... */\n      pop\n        /* \"contracts/CarreraCoches/ownable.sol\":2338:2529  function _transferOwnership(address newOwner) internal virtual {\r... */\n      pop\n      jump\t// out\n    tag_124:\n      dup3\n      dup1\n      sload\n      tag_397\n      swap1\n      tag_309\n      jump\t// in\n    tag_397:\n      swap1\n      0x00\n      mstore\n      keccak256(0x00, 0x20)\n      swap1\n      0x1f\n      add\n      0x20\n      swap1\n      div\n      dup2\n      add\n      swap3\n      dup3\n      tag_399\n      jumpi\n      0x00\n      dup6\n      sstore\n      jump(tag_398)\n    tag_399:\n      dup3\n      0x1f\n      lt\n      tag_400\n      jumpi\n      dup1\n      mload\n      not(0xff)\n      and\n      dup4\n      dup1\n      add\n      or\n      dup6\n      sstore\n      jump(tag_398)\n    tag_400:\n      dup3\n      dup1\n      add\n      0x01\n      add\n      dup6\n      sstore\n      dup3\n      iszero\n      tag_398\n      jumpi\n      swap2\n      dup3\n      add\n    tag_401:\n      dup3\n      dup2\n      gt\n      iszero\n      tag_402\n      jumpi\n      dup3\n      mload\n      dup3\n      sstore\n      swap2\n      0x20\n      add\n      swap2\n      swap1\n      0x01\n      add\n      swap1\n      jump(tag_401)\n    tag_402:\n    tag_398:\n      pop\n      swap1\n      pop\n      tag_403\n      swap2\n      swap1\n      tag_404\n      jump\t// in\n    tag_403:\n      pop\n      swap1\n      jump\t// out\n    tag_147:\n      pop\n      dup1\n      sload\n      tag_405\n      swap1\n      tag_309\n      jump\t// in\n    tag_405:\n      0x00\n      dup3\n      sstore\n      dup1\n      0x1f\n      lt\n      tag_407\n      jumpi\n      pop\n      jump(tag_406)\n    tag_407:\n      0x1f\n      add\n      0x20\n      swap1\n      div\n      swap1\n      0x00\n      mstore\n      keccak256(0x00, 0x20)\n      swap1\n      dup2\n      add\n      swap1\n      tag_408\n      swap2\n      swap1\n      tag_404\n      jump\t// in\n    tag_408:\n    tag_406:\n      pop\n      jump\t// out\n    tag_404:\n    tag_409:\n      dup1\n      dup3\n      gt\n      iszero\n      tag_410\n      jumpi\n      0x00\n      dup2\n      0x00\n      swap1\n      sstore\n      pop\n      0x01\n      add\n      jump(tag_409)\n    tag_410:\n      pop\n      swap1\n      jump\t// out\n        /* \"#utility.yul\":7:419   */\n    tag_412:\n        /* \"#utility.yul\":85:90   */\n      0x00\n        /* \"#utility.yul\":110:176   */\n      tag_414\n        /* \"#utility.yul\":126:175   */\n      tag_415\n        /* \"#utility.yul\":168:174   */\n      dup5\n        /* \"#utility.yul\":126:175   */\n      tag_416\n      jump\t// in\n    tag_415:\n        /* \"#utility.yul\":110:176   */\n      tag_417\n      jump\t// in\n    tag_414:\n        /* \"#utility.yul\":101:176   */\n      swap1\n      pop\n        /* \"#utility.yul\":199:205   */\n      dup3\n        /* \"#utility.yul\":192:197   */\n      dup2\n        /* \"#utility.yul\":185:206   */\n      mstore\n        /* \"#utility.yul\":237:241   */\n      0x20\n        /* \"#utility.yul\":230:235   */\n      dup2\n        /* \"#utility.yul\":226:242   */\n      add\n        /* \"#utility.yul\":275:278   */\n      dup5\n        /* \"#utility.yul\":266:272   */\n      dup5\n        /* \"#utility.yul\":261:264   */\n      dup5\n        /* \"#utility.yul\":257:273   */\n      add\n        /* \"#utility.yul\":254:279   */\n      gt\n        /* \"#utility.yul\":251:363   */\n      iszero\n      tag_418\n      jumpi\n        /* \"#utility.yul\":282:361   */\n      tag_419\n      tag_420\n      jump\t// in\n    tag_419:\n        /* \"#utility.yul\":251:363   */\n    tag_418:\n        /* \"#utility.yul\":372:413   */\n      tag_421\n        /* \"#utility.yul\":406:412   */\n      dup5\n        /* \"#utility.yul\":401:404   */\n      dup3\n        /* \"#utility.yul\":396:399   */\n      dup6\n        /* \"#utility.yul\":372:413   */\n      tag_422\n      jump\t// in\n    tag_421:\n        /* \"#utility.yul\":91:419   */\n      pop\n        /* \"#utility.yul\":7:419   */\n      swap4\n      swap3\n      pop\n      pop\n      pop\n      jump\t// out\n        /* \"#utility.yul\":425:564   */\n    tag_423:\n        /* \"#utility.yul\":471:476   */\n      0x00\n        /* \"#utility.yul\":509:515   */\n      dup2\n        /* \"#utility.yul\":496:516   */\n      calldataload\n        /* \"#utility.yul\":487:516   */\n      swap1\n      pop\n        /* \"#utility.yul\":525:558   */\n      tag_425\n        /* \"#utility.yul\":552:557   */\n      dup2\n        /* \"#utility.yul\":525:558   */\n      tag_426\n      jump\t// in\n    tag_425:\n        /* \"#utility.yul\":425:564   */\n      swap3\n      swap2\n      pop\n      pop\n      jump\t// out\n        /* \"#utility.yul\":584:924   */\n    tag_427:\n        /* \"#utility.yul\":640:645   */\n      0x00\n        /* \"#utility.yul\":689:692   */\n      dup3\n        /* \"#utility.yul\":682:686   */\n      0x1f\n        /* \"#utility.yul\":674:680   */\n      dup4\n        /* \"#utility.yul\":670:687   */\n      add\n        /* \"#utility.yul\":666:693   */\n      slt\n        /* \"#utility.yul\":656:778   */\n      tag_429\n      jumpi\n        /* \"#utility.yul\":697:776   */\n      tag_430\n      tag_431\n      jump\t// in\n    tag_430:\n        /* \"#utility.yul\":656:778   */\n    tag_429:\n        /* \"#utility.yul\":814:820   */\n      dup2\n        /* \"#utility.yul\":801:821   */\n      calldataload\n        /* \"#utility.yul\":839:918   */\n      tag_432\n        /* \"#utility.yul\":914:917   */\n      dup5\n        /* \"#utility.yul\":906:912   */\n      dup3\n        /* \"#utility.yul\":899:903   */\n      0x20\n        /* \"#utility.yul\":891:897   */\n      dup7\n        /* \"#utility.yul\":887:904   */\n      add\n        /* \"#utility.yul\":839:918   */\n      tag_412\n      jump\t// in\n    tag_432:\n        /* \"#utility.yul\":830:918   */\n      swap2\n      pop\n        /* \"#utility.yul\":646:924   */\n      pop\n        /* \"#utility.yul\":584:924   */\n      swap3\n      swap2\n      pop\n      pop\n      jump\t// out\n        /* \"#utility.yul\":930:1069   */\n    tag_433:\n        /* \"#utility.yul\":976:981   */\n      0x00\n        /* \"#utility.yul\":1014:1020   */\n      dup2\n        /* \"#utility.yul\":1001:1021   */\n      calldataload\n        /* \"#utility.yul\":992:1021   */\n      swap1\n      pop\n        /* \"#utility.yul\":1030:1063   */\n      tag_435\n        /* \"#utility.yul\":1057:1062   */\n      dup2\n        /* \"#utility.yul\":1030:1063   */\n      tag_436\n      jump\t// in\n    tag_435:\n        /* \"#utility.yul\":930:1069   */\n      swap3\n      swap2\n      pop\n      pop\n      jump\t// out\n        /* \"#utility.yul\":1075:1404   */\n    tag_36:\n        /* \"#utility.yul\":1134:1140   */\n      0x00\n        /* \"#utility.yul\":1183:1185   */\n      0x20\n        /* \"#utility.yul\":1171:1180   */\n      dup3\n        /* \"#utility.yul\":1162:1169   */\n      dup5\n        /* \"#utility.yul\":1158:1181   */\n      sub\n        /* \"#utility.yul\":1154:1186   */\n      slt\n        /* \"#utility.yul\":1151:1270   */\n      iszero\n      tag_438\n      jumpi\n        /* \"#utility.yul\":1189:1268   */\n      tag_439\n      tag_440\n      jump\t// in\n    tag_439:\n        /* \"#utility.yul\":1151:1270   */\n    tag_438:\n        /* \"#utility.yul\":1309:1310   */\n      0x00\n        /* \"#utility.yul\":1334:1387   */\n      tag_441\n        /* \"#utility.yul\":1379:1386   */\n      dup5\n        /* \"#utility.yul\":1370:1376   */\n      dup3\n        /* \"#utility.yul\":1359:1368   */\n      dup6\n        /* \"#utility.yul\":1355:1377   */\n      add\n        /* \"#utility.yul\":1334:1387   */\n      tag_423\n      jump\t// in\n    tag_441:\n        /* \"#utility.yul\":1324:1387   */\n      swap2\n      pop\n        /* \"#utility.yul\":1280:1397   */\n      pop\n        /* \"#utility.yul\":1075:1404   */\n      swap3\n      swap2\n      pop\n      pop\n      jump\t// out\n        /* \"#utility.yul\":1410:1884   */\n    tag_107:\n        /* \"#utility.yul\":1478:1484   */\n      0x00\n        /* \"#utility.yul\":1486:1492   */\n      dup1\n        /* \"#utility.yul\":1535:1537   */\n      0x40\n        /* \"#utility.yul\":1523:1532   */\n      dup4\n        /* \"#utility.yul\":1514:1521   */\n      dup6\n        /* \"#utility.yul\":1510:1533   */\n      sub\n        /* \"#utility.yul\":1506:1538   */\n      slt\n        /* \"#utility.yul\":1503:1622   */\n      iszero\n      tag_443\n      jumpi\n        /* \"#utility.yul\":1541:1620   */\n      tag_444\n      tag_440\n      jump\t// in\n    tag_444:\n        /* \"#utility.yul\":1503:1622   */\n    tag_443:\n        /* \"#utility.yul\":1661:1662   */\n      0x00\n        /* \"#utility.yul\":1686:1739   */\n      tag_445\n        /* \"#utility.yul\":1731:1738   */\n      dup6\n        /* \"#utility.yul\":1722:1728   */\n      dup3\n        /* \"#utility.yul\":1711:1720   */\n      dup7\n        /* \"#utility.yul\":1707:1729   */\n      add\n        /* \"#utility.yul\":1686:1739   */\n      tag_423\n      jump\t// in\n    tag_445:\n        /* \"#utility.yul\":1676:1739   */\n      swap3\n      pop\n        /* \"#utility.yul\":1632:1749   */\n      pop\n        /* \"#utility.yul\":1788:1790   */\n      0x20\n        /* \"#utility.yul\":1814:1867   */\n      tag_446\n        /* \"#utility.yul\":1859:1866   */\n      dup6\n        /* \"#utility.yul\":1850:1856   */\n      dup3\n        /* \"#utility.yul\":1839:1848   */\n      dup7\n        /* \"#utility.yul\":1835:1857   */\n      add\n        /* \"#utility.yul\":1814:1867   */\n      tag_423\n      jump\t// in\n    tag_446:\n        /* \"#utility.yul\":1804:1867   */\n      swap2\n      pop\n        /* \"#utility.yul\":1759:1877   */\n      pop\n        /* \"#utility.yul\":1410:1884   */\n      swap3\n      pop\n      swap3\n      swap1\n      pop\n      jump\t// out\n        /* \"#utility.yul\":1890:2509   */\n    tag_46:\n        /* \"#utility.yul\":1967:1973   */\n      0x00\n        /* \"#utility.yul\":1975:1981   */\n      dup1\n        /* \"#utility.yul\":1983:1989   */\n      0x00\n        /* \"#utility.yul\":2032:2034   */\n      0x60\n        /* \"#utility.yul\":2020:2029   */\n      dup5\n        /* \"#utility.yul\":2011:2018   */\n      dup7\n        /* \"#utility.yul\":2007:2030   */\n      sub\n        /* \"#utility.yul\":2003:2035   */\n      slt\n        /* \"#utility.yul\":2000:2119   */\n      iszero\n      tag_448\n      jumpi\n        /* \"#utility.yul\":2038:2117   */\n      tag_449\n      tag_440\n      jump\t// in\n    tag_449:\n        /* \"#utility.yul\":2000:2119   */\n    tag_448:\n        /* \"#utility.yul\":2158:2159   */\n      0x00\n        /* \"#utility.yul\":2183:2236   */\n      tag_450\n        /* \"#utility.yul\":2228:2235   */\n      dup7\n        /* \"#utility.yul\":2219:2225   */\n      dup3\n        /* \"#utility.yul\":2208:2217   */\n      dup8\n        /* \"#utility.yul\":2204:2226   */\n      add\n        /* \"#utility.yul\":2183:2236   */\n      tag_423\n      jump\t// in\n    tag_450:\n        /* \"#utility.yul\":2173:2236   */\n      swap4\n      pop\n        /* \"#utility.yul\":2129:2246   */\n      pop\n        /* \"#utility.yul\":2285:2287   */\n      0x20\n        /* \"#utility.yul\":2311:2364   */\n      tag_451\n        /* \"#utility.yul\":2356:2363   */\n      dup7\n        /* \"#utility.yul\":2347:2353   */\n      dup3\n        /* \"#utility.yul\":2336:2345   */\n      dup8\n        /* \"#utility.yul\":2332:2354   */\n      add\n        /* \"#utility.yul\":2311:2364   */\n      tag_423\n      jump\t// in\n    tag_451:\n        /* \"#utility.yul\":2301:2364   */\n      swap3\n      pop\n        /* \"#utility.yul\":2256:2374   */\n      pop\n        /* \"#utility.yul\":2413:2415   */\n      0x40\n        /* \"#utility.yul\":2439:2492   */\n      tag_452\n        /* \"#utility.yul\":2484:2491   */\n      dup7\n        /* \"#utility.yul\":2475:2481   */\n      dup3\n        /* \"#utility.yul\":2464:2473   */\n      dup8\n        /* \"#utility.yul\":2460:2482   */\n      add\n        /* \"#utility.yul\":2439:2492   */\n      tag_433\n      jump\t// in\n    tag_452:\n        /* \"#utility.yul\":2429:2492   */\n      swap2\n      pop\n        /* \"#utility.yul\":2384:2502   */\n      pop\n        /* \"#utility.yul\":1890:2509   */\n      swap3\n      pop\n      swap3\n      pop\n      swap3\n      jump\t// out\n        /* \"#utility.yul\":2515:3494   */\n    tag_25:\n        /* \"#utility.yul\":2612:2618   */\n      0x00\n        /* \"#utility.yul\":2620:2626   */\n      dup1\n        /* \"#utility.yul\":2628:2634   */\n      0x00\n        /* \"#utility.yul\":2677:2679   */\n      0x60\n        /* \"#utility.yul\":2665:2674   */\n      dup5\n        /* \"#utility.yul\":2656:2663   */\n      dup7\n        /* \"#utility.yul\":2652:2675   */\n      sub\n        /* \"#utility.yul\":2648:2680   */\n      slt\n        /* \"#utility.yul\":2645:2764   */\n      iszero\n      tag_454\n      jumpi\n        /* \"#utility.yul\":2683:2762   */\n      tag_455\n      tag_440\n      jump\t// in\n    tag_455:\n        /* \"#utility.yul\":2645:2764   */\n    tag_454:\n        /* \"#utility.yul\":2803:2804   */\n      0x00\n        /* \"#utility.yul\":2828:2881   */\n      tag_456\n        /* \"#utility.yul\":2873:2880   */\n      dup7\n        /* \"#utility.yul\":2864:2870   */\n      dup3\n        /* \"#utility.yul\":2853:2862   */\n      dup8\n        /* \"#utility.yul\":2849:2871   */\n      add\n        /* \"#utility.yul\":2828:2881   */\n      tag_423\n      jump\t// in\n    tag_456:\n        /* \"#utility.yul\":2818:2881   */\n      swap4\n      pop\n        /* \"#utility.yul\":2774:2891   */\n      pop\n        /* \"#utility.yul\":2958:2960   */\n      0x20\n        /* \"#utility.yul\":2947:2956   */\n      dup5\n        /* \"#utility.yul\":2943:2961   */\n      add\n        /* \"#utility.yul\":2930:2962   */\n      calldataload\n        /* \"#utility.yul\":2989:3007   */\n      0xffffffffffffffff\n        /* \"#utility.yul\":2981:2987   */\n      dup2\n        /* \"#utility.yul\":2978:3008   */\n      gt\n        /* \"#utility.yul\":2975:3092   */\n      iszero\n      tag_457\n      jumpi\n        /* \"#utility.yul\":3011:3090   */\n      tag_458\n      tag_459\n      jump\t// in\n    tag_458:\n        /* \"#utility.yul\":2975:3092   */\n    tag_457:\n        /* \"#utility.yul\":3116:3179   */\n      tag_460\n        /* \"#utility.yul\":3171:3178   */\n      dup7\n        /* \"#utility.yul\":3162:3168   */\n      dup3\n        /* \"#utility.yul\":3151:3160   */\n      dup8\n        /* \"#utility.yul\":3147:3169   */\n      add\n        /* \"#utility.yul\":3116:3179   */\n      tag_427\n      jump\t// in\n    tag_460:\n        /* \"#utility.yul\":3106:3179   */\n      swap3\n      pop\n        /* \"#utility.yul\":2901:3189   */\n      pop\n        /* \"#utility.yul\":3256:3258   */\n      0x40\n        /* \"#utility.yul\":3245:3254   */\n      dup5\n        /* \"#utility.yul\":3241:3259   */\n      add\n        /* \"#utility.yul\":3228:3260   */\n      calldataload\n        /* \"#utility.yul\":3287:3305   */\n      0xffffffffffffffff\n        /* \"#utility.yul\":3279:3285   */\n      dup2\n        /* \"#utility.yul\":3276:3306   */\n      gt\n        /* \"#utility.yul\":3273:3390   */\n      iszero\n      tag_461\n      jumpi\n        /* \"#utility.yul\":3309:3388   */\n      tag_462\n      tag_459\n      jump\t// in\n    tag_462:\n        /* \"#utility.yul\":3273:3390   */\n    tag_461:\n        /* \"#utility.yul\":3414:3477   */\n      tag_463\n        /* \"#utility.yul\":3469:3476   */\n      dup7\n        /* \"#utility.yul\":3460:3466   */\n      dup3\n        /* \"#utility.yul\":3449:3458   */\n      dup8\n        /* \"#utility.yul\":3445:3467   */\n      add\n        /* \"#utility.yul\":3414:3477   */\n      tag_427\n      jump\t// in\n    tag_463:\n        /* \"#utility.yul\":3404:3477   */\n      swap2\n      pop\n        /* \"#utility.yul\":3199:3487   */\n      pop\n        /* \"#utility.yul\":2515:3494   */\n      swap3\n      pop\n      swap3\n      pop\n      swap3\n      jump\t// out\n        /* \"#utility.yul\":3500:3974   */\n    tag_31:\n        /* \"#utility.yul\":3568:3574   */\n      0x00\n        /* \"#utility.yul\":3576:3582   */\n      dup1\n        /* \"#utility.yul\":3625:3627   */\n      0x40\n        /* \"#utility.yul\":3613:3622   */\n      dup4\n        /* \"#utility.yul\":3604:3611   */\n      dup6\n        /* \"#utility.yul\":3600:3623   */\n      sub\n        /* \"#utility.yul\":3596:3628   */\n      slt\n        /* \"#utility.yul\":3593:3712   */\n      iszero\n      tag_465\n      jumpi\n        /* \"#utility.yul\":3631:3710   */\n      tag_466\n      tag_440\n      jump\t// in\n    tag_466:\n        /* \"#utility.yul\":3593:3712   */\n    tag_465:\n        /* \"#utility.yul\":3751:3752   */\n      0x00\n        /* \"#utility.yul\":3776:3829   */\n      tag_467\n        /* \"#utility.yul\":3821:3828   */\n      dup6\n        /* \"#utility.yul\":3812:3818   */\n      dup3\n        /* \"#utility.yul\":3801:3810   */\n      dup7\n        /* \"#utility.yul\":3797:3819   */\n      add\n        /* \"#utility.yul\":3776:3829   */\n      tag_423\n      jump\t// in\n    tag_467:\n        /* \"#utility.yul\":3766:3829   */\n      swap3\n      pop\n        /* \"#utility.yul\":3722:3839   */\n      pop\n        /* \"#utility.yul\":3878:3880   */\n      0x20\n        /* \"#utility.yul\":3904:3957   */\n      tag_468\n        /* \"#utility.yul\":3949:3956   */\n      dup6\n        /* \"#utility.yul\":3940:3946   */\n      dup3\n        /* \"#utility.yul\":3929:3938   */\n      dup7\n        /* \"#utility.yul\":3925:3947   */\n      add\n        /* \"#utility.yul\":3904:3957   */\n      tag_433\n      jump\t// in\n    tag_468:\n        /* \"#utility.yul\":3894:3957   */\n      swap2\n      pop\n        /* \"#utility.yul\":3849:3967   */\n      pop\n        /* \"#utility.yul\":3500:3974   */\n      swap3\n      pop\n      swap3\n      swap1\n      pop\n      jump\t// out\n        /* \"#utility.yul\":3980:5139   */\n    tag_51:\n        /* \"#utility.yul\":4087:4093   */\n      0x00\n        /* \"#utility.yul\":4095:4101   */\n      dup1\n        /* \"#utility.yul\":4103:4109   */\n      0x00\n        /* \"#utility.yul\":4152:4154   */\n      0x60\n        /* \"#utility.yul\":4140:4149   */\n      dup5\n        /* \"#utility.yul\":4131:4138   */\n      dup7\n        /* \"#utility.yul\":4127:4150   */\n      sub\n        /* \"#utility.yul\":4123:4155   */\n      slt\n        /* \"#utility.yul\":4120:4239   */\n      iszero\n      tag_470\n      jumpi\n        /* \"#utility.yul\":4158:4237   */\n      tag_471\n      tag_440\n      jump\t// in\n    tag_471:\n        /* \"#utility.yul\":4120:4239   */\n    tag_470:\n        /* \"#utility.yul\":4306:4307   */\n      0x00\n        /* \"#utility.yul\":4295:4304   */\n      dup5\n        /* \"#utility.yul\":4291:4308   */\n      add\n        /* \"#utility.yul\":4278:4309   */\n      calldataload\n        /* \"#utility.yul\":4336:4354   */\n      0xffffffffffffffff\n        /* \"#utility.yul\":4328:4334   */\n      dup2\n        /* \"#utility.yul\":4325:4355   */\n      gt\n        /* \"#utility.yul\":4322:4439   */\n      iszero\n      tag_472\n      jumpi\n        /* \"#utility.yul\":4358:4437   */\n      tag_473\n      tag_459\n      jump\t// in\n    tag_473:\n        /* \"#utility.yul\":4322:4439   */\n    tag_472:\n        /* \"#utility.yul\":4463:4526   */\n      tag_474\n        /* \"#utility.yul\":4518:4525   */\n      dup7\n        /* \"#utility.yul\":4509:4515   */\n      dup3\n        /* \"#utility.yul\":4498:4507   */\n      dup8\n        /* \"#utility.yul\":4494:4516   */\n      add\n        /* \"#utility.yul\":4463:4526   */\n      tag_427\n      jump\t// in\n    tag_474:\n        /* \"#utility.yul\":4453:4526   */\n      swap4\n      pop\n        /* \"#utility.yul\":4249:4536   */\n      pop\n        /* \"#utility.yul\":4603:4605   */\n      0x20\n        /* \"#utility.yul\":4592:4601   */\n      dup5\n        /* \"#utility.yul\":4588:4606   */\n      add\n        /* \"#utility.yul\":4575:4607   */\n      calldataload\n        /* \"#utility.yul\":4634:4652   */\n      0xffffffffffffffff\n        /* \"#utility.yul\":4626:4632   */\n      dup2\n        /* \"#utility.yul\":4623:4653   */\n      gt\n        /* \"#utility.yul\":4620:4737   */\n      iszero\n      tag_475\n      jumpi\n        /* \"#utility.yul\":4656:4735   */\n      tag_476\n      tag_459\n      jump\t// in\n    tag_476:\n        /* \"#utility.yul\":4620:4737   */\n    tag_475:\n        /* \"#utility.yul\":4761:4824   */\n      tag_477\n        /* \"#utility.yul\":4816:4823   */\n      dup7\n        /* \"#utility.yul\":4807:4813   */\n      dup3\n        /* \"#utility.yul\":4796:4805   */\n      dup8\n        /* \"#utility.yul\":4792:4814   */\n      add\n        /* \"#utility.yul\":4761:4824   */\n      tag_427\n      jump\t// in\n    tag_477:\n        /* \"#utility.yul\":4751:4824   */\n      swap3\n      pop\n        /* \"#utility.yul\":4546:4834   */\n      pop\n        /* \"#utility.yul\":4901:4903   */\n      0x40\n        /* \"#utility.yul\":4890:4899   */\n      dup5\n        /* \"#utility.yul\":4886:4904   */\n      add\n        /* \"#utility.yul\":4873:4905   */\n      calldataload\n        /* \"#utility.yul\":4932:4950   */\n      0xffffffffffffffff\n        /* \"#utility.yul\":4924:4930   */\n      dup2\n        /* \"#utility.yul\":4921:4951   */\n      gt\n        /* \"#utility.yul\":4918:5035   */\n      iszero\n      tag_478\n      jumpi\n        /* \"#utility.yul\":4954:5033   */\n      tag_479\n      tag_459\n      jump\t// in\n    tag_479:\n        /* \"#utility.yul\":4918:5035   */\n    tag_478:\n        /* \"#utility.yul\":5059:5122   */\n      tag_480\n        /* \"#utility.yul\":5114:5121   */\n      dup7\n        /* \"#utility.yul\":5105:5111   */\n      dup3\n        /* \"#utility.yul\":5094:5103   */\n      dup8\n        /* \"#utility.yul\":5090:5112   */\n      add\n        /* \"#utility.yul\":5059:5122   */\n      tag_427\n      jump\t// in\n    tag_480:\n        /* \"#utility.yul\":5049:5122   */\n      swap2\n      pop\n        /* \"#utility.yul\":4844:5132   */\n      pop\n        /* \"#utility.yul\":3980:5139   */\n      swap3\n      pop\n      swap3\n      pop\n      swap3\n      jump\t// out\n        /* \"#utility.yul\":5145:5474   */\n    tag_57:\n        /* \"#utility.yul\":5204:5210   */\n      0x00\n        /* \"#utility.yul\":5253:5255   */\n      0x20\n        /* \"#utility.yul\":5241:5250   */\n      dup3\n        /* \"#utility.yul\":5232:5239   */\n      dup5\n        /* \"#utility.yul\":5228:5251   */\n      sub\n        /* \"#utility.yul\":5224:5256   */\n      slt\n        /* \"#utility.yul\":5221:5340   */\n      iszero\n      tag_482\n      jumpi\n        /* \"#utility.yul\":5259:5338   */\n      tag_483\n      tag_440\n      jump\t// in\n    tag_483:\n        /* \"#utility.yul\":5221:5340   */\n    tag_482:\n        /* \"#utility.yul\":5379:5380   */\n      0x00\n        /* \"#utility.yul\":5404:5457   */\n      tag_484\n        /* \"#utility.yul\":5449:5456   */\n      dup5\n        /* \"#utility.yul\":5440:5446   */\n      dup3\n        /* \"#utility.yul\":5429:5438   */\n      dup6\n        /* \"#utility.yul\":5425:5447   */\n      add\n        /* \"#utility.yul\":5404:5457   */\n      tag_433\n      jump\t// in\n    tag_484:\n        /* \"#utility.yul\":5394:5457   */\n      swap2\n      pop\n        /* \"#utility.yul\":5350:5467   */\n      pop\n        /* \"#utility.yul\":5145:5474   */\n      swap3\n      swap2\n      pop\n      pop\n      jump\t// out\n        /* \"#utility.yul\":5480:5598   */\n    tag_485:\n        /* \"#utility.yul\":5567:5591   */\n      tag_487\n        /* \"#utility.yul\":5585:5590   */\n      dup2\n        /* \"#utility.yul\":5567:5591   */\n      tag_488\n      jump\t// in\n    tag_487:\n        /* \"#utility.yul\":5562:5565   */\n      dup3\n        /* \"#utility.yul\":5555:5592   */\n      mstore\n        /* \"#utility.yul\":5480:5598   */\n      pop\n      pop\n      jump\t// out\n        /* \"#utility.yul\":5604:5968   */\n    tag_489:\n        /* \"#utility.yul\":5692:5695   */\n      0x00\n        /* \"#utility.yul\":5720:5759   */\n      tag_491\n        /* \"#utility.yul\":5753:5758   */\n      dup3\n        /* \"#utility.yul\":5720:5759   */\n      tag_492\n      jump\t// in\n    tag_491:\n        /* \"#utility.yul\":5775:5846   */\n      tag_493\n        /* \"#utility.yul\":5839:5845   */\n      dup2\n        /* \"#utility.yul\":5834:5837   */\n      dup6\n        /* \"#utility.yul\":5775:5846   */\n      tag_494\n      jump\t// in\n    tag_493:\n        /* \"#utility.yul\":5768:5846   */\n      swap4\n      pop\n        /* \"#utility.yul\":5855:5907   */\n      tag_495\n        /* \"#utility.yul\":5900:5906   */\n      dup2\n        /* \"#utility.yul\":5895:5898   */\n      dup6\n        /* \"#utility.yul\":5888:5892   */\n      0x20\n        /* \"#utility.yul\":5881:5886   */\n      dup7\n        /* \"#utility.yul\":5877:5893   */\n      add\n        /* \"#utility.yul\":5855:5907   */\n      tag_496\n      jump\t// in\n    tag_495:\n        /* \"#utility.yul\":5932:5961   */\n      tag_497\n        /* \"#utility.yul\":5954:5960   */\n      dup2\n        /* \"#utility.yul\":5932:5961   */\n      tag_498\n      jump\t// in\n    tag_497:\n        /* \"#utility.yul\":5927:5930   */\n      dup5\n        /* \"#utility.yul\":5923:5962   */\n      add\n        /* \"#utility.yul\":5916:5962   */\n      swap2\n      pop\n        /* \"#utility.yul\":5696:5968   */\n      pop\n        /* \"#utility.yul\":5604:5968   */\n      swap3\n      swap2\n      pop\n      pop\n      jump\t// out\n        /* \"#utility.yul\":5998:6800   */\n    tag_499:\n        /* \"#utility.yul\":6083:6086   */\n      0x00\n        /* \"#utility.yul\":6120:6125   */\n      dup2\n        /* \"#utility.yul\":6114:6126   */\n      sload\n        /* \"#utility.yul\":6149:6185   */\n      tag_501\n        /* \"#utility.yul\":6175:6184   */\n      dup2\n        /* \"#utility.yul\":6149:6185   */\n      tag_309\n      jump\t// in\n    tag_501:\n        /* \"#utility.yul\":6201:6272   */\n      tag_502\n        /* \"#utility.yul\":6265:6271   */\n      dup2\n        /* \"#utility.yul\":6260:6263   */\n      dup7\n        /* \"#utility.yul\":6201:6272   */\n      tag_494\n      jump\t// in\n    tag_502:\n        /* \"#utility.yul\":6194:6272   */\n      swap5\n      pop\n        /* \"#utility.yul\":6303:6304   */\n      0x01\n        /* \"#utility.yul\":6292:6301   */\n      dup3\n        /* \"#utility.yul\":6288:6305   */\n      and\n        /* \"#utility.yul\":6319:6320   */\n      0x00\n        /* \"#utility.yul\":6314:6449   */\n      dup2\n      eq\n      tag_504\n      jumpi\n        /* \"#utility.yul\":6463:6464   */\n      0x01\n        /* \"#utility.yul\":6458:6794   */\n      dup2\n      eq\n      tag_505\n      jumpi\n        /* \"#utility.yul\":6281:6794   */\n      jump(tag_503)\n        /* \"#utility.yul\":6314:6449   */\n    tag_504:\n        /* \"#utility.yul\":6398:6402   */\n      0xff\n        /* \"#utility.yul\":6394:6403   */\n      not\n        /* \"#utility.yul\":6383:6392   */\n      dup4\n        /* \"#utility.yul\":6379:6404   */\n      and\n        /* \"#utility.yul\":6374:6377   */\n      dup7\n        /* \"#utility.yul\":6367:6405   */\n      mstore\n        /* \"#utility.yul\":6434:6438   */\n      0x20\n        /* \"#utility.yul\":6429:6432   */\n      dup7\n        /* \"#utility.yul\":6425:6439   */\n      add\n        /* \"#utility.yul\":6418:6439   */\n      swap4\n      pop\n        /* \"#utility.yul\":6314:6449   */\n      jump(tag_503)\n        /* \"#utility.yul\":6458:6794   */\n    tag_505:\n        /* \"#utility.yul\":6525:6563   */\n      tag_506\n        /* \"#utility.yul\":6557:6562   */\n      dup6\n        /* \"#utility.yul\":6525:6563   */\n      tag_507\n      jump\t// in\n    tag_506:\n        /* \"#utility.yul\":6585:6586   */\n      0x00\n        /* \"#utility.yul\":6599:6753   */\n    tag_508:\n        /* \"#utility.yul\":6613:6619   */\n      dup4\n        /* \"#utility.yul\":6610:6611   */\n      dup2\n        /* \"#utility.yul\":6607:6620   */\n      lt\n        /* \"#utility.yul\":6599:6753   */\n      iszero\n      tag_510\n      jumpi\n        /* \"#utility.yul\":6687:6694   */\n      dup2\n        /* \"#utility.yul\":6681:6695   */\n      sload\n        /* \"#utility.yul\":6677:6678   */\n      dup2\n        /* \"#utility.yul\":6672:6675   */\n      dup10\n        /* \"#utility.yul\":6668:6679   */\n      add\n        /* \"#utility.yul\":6661:6696   */\n      mstore\n        /* \"#utility.yul\":6737:6738   */\n      0x01\n        /* \"#utility.yul\":6728:6735   */\n      dup3\n        /* \"#utility.yul\":6724:6739   */\n      add\n        /* \"#utility.yul\":6713:6739   */\n      swap2\n      pop\n        /* \"#utility.yul\":6635:6639   */\n      0x20\n        /* \"#utility.yul\":6632:6633   */\n      dup2\n        /* \"#utility.yul\":6628:6640   */\n      add\n        /* \"#utility.yul\":6623:6640   */\n      swap1\n      pop\n        /* \"#utility.yul\":6599:6753   */\n      jump(tag_508)\n    tag_510:\n        /* \"#utility.yul\":6782:6783   */\n      dup1\n        /* \"#utility.yul\":6777:6780   */\n      dup9\n        /* \"#utility.yul\":6773:6784   */\n      add\n        /* \"#utility.yul\":6766:6784   */\n      swap6\n      pop\n        /* \"#utility.yul\":6465:6794   */\n      pop\n      pop\n        /* \"#utility.yul\":6281:6794   */\n    tag_503:\n      pop\n        /* \"#utility.yul\":6087:6800   */\n      pop\n      pop\n        /* \"#utility.yul\":5998:6800   */\n      swap3\n      swap2\n      pop\n      pop\n      jump\t// out\n        /* \"#utility.yul\":6806:7172   */\n    tag_511:\n        /* \"#utility.yul\":6948:6951   */\n      0x00\n        /* \"#utility.yul\":6969:7036   */\n      tag_513\n        /* \"#utility.yul\":7033:7035   */\n      0x28\n        /* \"#utility.yul\":7028:7031   */\n      dup4\n        /* \"#utility.yul\":6969:7036   */\n      tag_494\n      jump\t// in\n    tag_513:\n        /* \"#utility.yul\":6962:7036   */\n      swap2\n      pop\n        /* \"#utility.yul\":7045:7138   */\n      tag_514\n        /* \"#utility.yul\":7134:7137   */\n      dup3\n        /* \"#utility.yul\":7045:7138   */\n      tag_515\n      jump\t// in\n    tag_514:\n        /* \"#utility.yul\":7163:7165   */\n      0x40\n        /* \"#utility.yul\":7158:7161   */\n      dup3\n        /* \"#utility.yul\":7154:7166   */\n      add\n        /* \"#utility.yul\":7147:7166   */\n      swap1\n      pop\n        /* \"#utility.yul\":6806:7172   */\n      swap2\n      swap1\n      pop\n      jump\t// out\n        /* \"#utility.yul\":7178:7544   */\n    tag_516:\n        /* \"#utility.yul\":7320:7323   */\n      0x00\n        /* \"#utility.yul\":7341:7408   */\n      tag_518\n        /* \"#utility.yul\":7405:7407   */\n      0x26\n        /* \"#utility.yul\":7400:7403   */\n      dup4\n        /* \"#utility.yul\":7341:7408   */\n      tag_494\n      jump\t// in\n    tag_518:\n        /* \"#utility.yul\":7334:7408   */\n      swap2\n      pop\n        /* \"#utility.yul\":7417:7510   */\n      tag_519\n        /* \"#utility.yul\":7506:7509   */\n      dup3\n        /* \"#utility.yul\":7417:7510   */\n      tag_520\n      jump\t// in\n    tag_519:\n        /* \"#utility.yul\":7535:7537   */\n      0x40\n        /* \"#utility.yul\":7530:7533   */\n      dup3\n        /* \"#utility.yul\":7526:7538   */\n      add\n        /* \"#utility.yul\":7519:7538   */\n      swap1\n      pop\n        /* \"#utility.yul\":7178:7544   */\n      swap2\n      swap1\n      pop\n      jump\t// out\n        /* \"#utility.yul\":7550:7916   */\n    tag_521:\n        /* \"#utility.yul\":7692:7695   */\n      0x00\n        /* \"#utility.yul\":7713:7780   */\n      tag_523\n        /* \"#utility.yul\":7777:7779   */\n      0x32\n        /* \"#utility.yul\":7772:7775   */\n      dup4\n        /* \"#utility.yul\":7713:7780   */\n      tag_494\n      jump\t// in\n    tag_523:\n        /* \"#utility.yul\":7706:7780   */\n      swap2\n      pop\n        /* \"#utility.yul\":7789:7882   */\n      tag_524\n        /* \"#utility.yul\":7878:7881   */\n      dup3\n        /* \"#utility.yul\":7789:7882   */\n      tag_525\n      jump\t// in\n    tag_524:\n        /* \"#utility.yul\":7907:7909   */\n      0x40\n        /* \"#utility.yul\":7902:7905   */\n      dup3\n        /* \"#utility.yul\":7898:7910   */\n      add\n        /* \"#utility.yul\":7891:7910   */\n      swap1\n      pop\n        /* \"#utility.yul\":7550:7916   */\n      swap2\n      swap1\n      pop\n      jump\t// out\n        /* \"#utility.yul\":7922:8288   */\n    tag_526:\n        /* \"#utility.yul\":8064:8067   */\n      0x00\n        /* \"#utility.yul\":8085:8152   */\n      tag_528\n        /* \"#utility.yul\":8149:8151   */\n      0x20\n        /* \"#utility.yul\":8144:8147   */\n      dup4\n        /* \"#utility.yul\":8085:8152   */\n      tag_494\n      jump\t// in\n    tag_528:\n        /* \"#utility.yul\":8078:8152   */\n      swap2\n      pop\n        /* \"#utility.yul\":8161:8254   */\n      tag_529\n        /* \"#utility.yul\":8250:8253   */\n      dup3\n        /* \"#utility.yul\":8161:8254   */\n      tag_530\n      jump\t// in\n    tag_529:\n        /* \"#utility.yul\":8279:8281   */\n      0x20\n        /* \"#utility.yul\":8274:8277   */\n      dup3\n        /* \"#utility.yul\":8270:8282   */\n      add\n        /* \"#utility.yul\":8263:8282   */\n      swap1\n      pop\n        /* \"#utility.yul\":7922:8288   */\n      swap2\n      swap1\n      pop\n      jump\t// out\n        /* \"#utility.yul\":8294:8660   */\n    tag_531:\n        /* \"#utility.yul\":8436:8439   */\n      0x00\n        /* \"#utility.yul\":8457:8524   */\n      tag_533\n        /* \"#utility.yul\":8521:8523   */\n      0x15\n        /* \"#utility.yul\":8516:8519   */\n      dup4\n        /* \"#utility.yul\":8457:8524   */\n      tag_494\n      jump\t// in\n    tag_533:\n        /* \"#utility.yul\":8450:8524   */\n      swap2\n      pop\n        /* \"#utility.yul\":8533:8626   */\n      tag_534\n        /* \"#utility.yul\":8622:8625   */\n      dup3\n        /* \"#utility.yul\":8533:8626   */\n      tag_535\n      jump\t// in\n    tag_534:\n        /* \"#utility.yul\":8651:8653   */\n      0x20\n        /* \"#utility.yul\":8646:8649   */\n      dup3\n        /* \"#utility.yul\":8642:8654   */\n      add\n        /* \"#utility.yul\":8635:8654   */\n      swap1\n      pop\n        /* \"#utility.yul\":8294:8660   */\n      swap2\n      swap1\n      pop\n      jump\t// out\n        /* \"#utility.yul\":8666:8784   */\n    tag_536:\n        /* \"#utility.yul\":8753:8777   */\n      tag_538\n        /* \"#utility.yul\":8771:8776   */\n      dup2\n        /* \"#utility.yul\":8753:8777   */\n      tag_539\n      jump\t// in\n    tag_538:\n        /* \"#utility.yul\":8748:8751   */\n      dup3\n        /* \"#utility.yul\":8741:8778   */\n      mstore\n        /* \"#utility.yul\":8666:8784   */\n      pop\n      pop\n      jump\t// out\n        /* \"#utility.yul\":8790:8947   */\n    tag_540:\n        /* \"#utility.yul\":8895:8940   */\n      tag_542\n        /* \"#utility.yul\":8915:8939   */\n      tag_543\n        /* \"#utility.yul\":8933:8938   */\n      dup3\n        /* \"#utility.yul\":8915:8939   */\n      tag_539\n      jump\t// in\n    tag_543:\n        /* \"#utility.yul\":8895:8940   */\n      tag_544\n      jump\t// in\n    tag_542:\n        /* \"#utility.yul\":8890:8893   */\n      dup3\n        /* \"#utility.yul\":8883:8941   */\n      mstore\n        /* \"#utility.yul\":8790:8947   */\n      pop\n      pop\n      jump\t// out\n        /* \"#utility.yul\":8953:9068   */\n    tag_545:\n        /* \"#utility.yul\":9038:9061   */\n      tag_547\n        /* \"#utility.yul\":9055:9060   */\n      dup2\n        /* \"#utility.yul\":9038:9061   */\n      tag_548\n      jump\t// in\n    tag_547:\n        /* \"#utility.yul\":9033:9036   */\n      dup3\n        /* \"#utility.yul\":9026:9062   */\n      mstore\n        /* \"#utility.yul\":8953:9068   */\n      pop\n      pop\n      jump\t// out\n        /* \"#utility.yul\":9074:9612   */\n    tag_195:\n        /* \"#utility.yul\":9242:9245   */\n      0x00\n        /* \"#utility.yul\":9257:9332   */\n      tag_550\n        /* \"#utility.yul\":9328:9331   */\n      dup3\n        /* \"#utility.yul\":9319:9325   */\n      dup7\n        /* \"#utility.yul\":9257:9332   */\n      tag_540\n      jump\t// in\n    tag_550:\n        /* \"#utility.yul\":9357:9359   */\n      0x20\n        /* \"#utility.yul\":9352:9355   */\n      dup3\n        /* \"#utility.yul\":9348:9360   */\n      add\n        /* \"#utility.yul\":9341:9360   */\n      swap2\n      pop\n        /* \"#utility.yul\":9370:9445   */\n      tag_551\n        /* \"#utility.yul\":9441:9444   */\n      dup3\n        /* \"#utility.yul\":9432:9438   */\n      dup6\n        /* \"#utility.yul\":9370:9445   */\n      tag_540\n      jump\t// in\n    tag_551:\n        /* \"#utility.yul\":9470:9472   */\n      0x20\n        /* \"#utility.yul\":9465:9468   */\n      dup3\n        /* \"#utility.yul\":9461:9473   */\n      add\n        /* \"#utility.yul\":9454:9473   */\n      swap2\n      pop\n        /* \"#utility.yul\":9483:9558   */\n      tag_552\n        /* \"#utility.yul\":9554:9557   */\n      dup3\n        /* \"#utility.yul\":9545:9551   */\n      dup5\n        /* \"#utility.yul\":9483:9558   */\n      tag_540\n      jump\t// in\n    tag_552:\n        /* \"#utility.yul\":9583:9585   */\n      0x20\n        /* \"#utility.yul\":9578:9581   */\n      dup3\n        /* \"#utility.yul\":9574:9586   */\n      add\n        /* \"#utility.yul\":9567:9586   */\n      swap2\n      pop\n        /* \"#utility.yul\":9603:9606   */\n      dup2\n        /* \"#utility.yul\":9596:9606   */\n      swap1\n      pop\n        /* \"#utility.yul\":9074:9612   */\n      swap5\n      swap4\n      pop\n      pop\n      pop\n      pop\n      jump\t// out\n        /* \"#utility.yul\":9618:9840   */\n    tag_60:\n        /* \"#utility.yul\":9711:9715   */\n      0x00\n        /* \"#utility.yul\":9749:9751   */\n      0x20\n        /* \"#utility.yul\":9738:9747   */\n      dup3\n        /* \"#utility.yul\":9734:9752   */\n      add\n        /* \"#utility.yul\":9726:9752   */\n      swap1\n      pop\n        /* \"#utility.yul\":9762:9833   */\n      tag_554\n        /* \"#utility.yul\":9830:9831   */\n      0x00\n        /* \"#utility.yul\":9819:9828   */\n      dup4\n        /* \"#utility.yul\":9815:9832   */\n      add\n        /* \"#utility.yul\":9806:9812   */\n      dup5\n        /* \"#utility.yul\":9762:9833   */\n      tag_485\n      jump\t// in\n    tag_554:\n        /* \"#utility.yul\":9618:9840   */\n      swap3\n      swap2\n      pop\n      pop\n      jump\t// out\n        /* \"#utility.yul\":9846:11112   */\n    tag_95:\n        /* \"#utility.yul\":10193:10197   */\n      0x00\n        /* \"#utility.yul\":10231:10234   */\n      0x0100\n        /* \"#utility.yul\":10220:10229   */\n      dup3\n        /* \"#utility.yul\":10216:10235   */\n      add\n        /* \"#utility.yul\":10208:10235   */\n      swap1\n      pop\n        /* \"#utility.yul\":10245:10316   */\n      tag_556\n        /* \"#utility.yul\":10313:10314   */\n      0x00\n        /* \"#utility.yul\":10302:10311   */\n      dup4\n        /* \"#utility.yul\":10298:10315   */\n      add\n        /* \"#utility.yul\":10289:10295   */\n      dup12\n        /* \"#utility.yul\":10245:10316   */\n      tag_485\n      jump\t// in\n    tag_556:\n        /* \"#utility.yul\":10363:10372   */\n      dup2\n        /* \"#utility.yul\":10357:10361   */\n      dup2\n        /* \"#utility.yul\":10353:10373   */\n      sub\n        /* \"#utility.yul\":10348:10350   */\n      0x20\n        /* \"#utility.yul\":10337:10346   */\n      dup4\n        /* \"#utility.yul\":10333:10351   */\n      add\n        /* \"#utility.yul\":10326:10374   */\n      mstore\n        /* \"#utility.yul\":10391:10469   */\n      tag_557\n        /* \"#utility.yul\":10464:10468   */\n      dup2\n        /* \"#utility.yul\":10455:10461   */\n      dup11\n        /* \"#utility.yul\":10391:10469   */\n      tag_489\n      jump\t// in\n    tag_557:\n        /* \"#utility.yul\":10383:10469   */\n      swap1\n      pop\n        /* \"#utility.yul\":10516:10525   */\n      dup2\n        /* \"#utility.yul\":10510:10514   */\n      dup2\n        /* \"#utility.yul\":10506:10526   */\n      sub\n        /* \"#utility.yul\":10501:10503   */\n      0x40\n        /* \"#utility.yul\":10490:10499   */\n      dup4\n        /* \"#utility.yul\":10486:10504   */\n      add\n        /* \"#utility.yul\":10479:10527   */\n      mstore\n        /* \"#utility.yul\":10544:10622   */\n      tag_558\n        /* \"#utility.yul\":10617:10621   */\n      dup2\n        /* \"#utility.yul\":10608:10614   */\n      dup10\n        /* \"#utility.yul\":10544:10622   */\n      tag_489\n      jump\t// in\n    tag_558:\n        /* \"#utility.yul\":10536:10622   */\n      swap1\n      pop\n        /* \"#utility.yul\":10669:10678   */\n      dup2\n        /* \"#utility.yul\":10663:10667   */\n      dup2\n        /* \"#utility.yul\":10659:10679   */\n      sub\n        /* \"#utility.yul\":10654:10656   */\n      0x60\n        /* \"#utility.yul\":10643:10652   */\n      dup4\n        /* \"#utility.yul\":10639:10657   */\n      add\n        /* \"#utility.yul\":10632:10680   */\n      mstore\n        /* \"#utility.yul\":10697:10775   */\n      tag_559\n        /* \"#utility.yul\":10770:10774   */\n      dup2\n        /* \"#utility.yul\":10761:10767   */\n      dup9\n        /* \"#utility.yul\":10697:10775   */\n      tag_489\n      jump\t// in\n    tag_559:\n        /* \"#utility.yul\":10689:10775   */\n      swap1\n      pop\n        /* \"#utility.yul\":10785:10858   */\n      tag_560\n        /* \"#utility.yul\":10853:10856   */\n      0x80\n        /* \"#utility.yul\":10842:10851   */\n      dup4\n        /* \"#utility.yul\":10838:10857   */\n      add\n        /* \"#utility.yul\":10829:10835   */\n      dup8\n        /* \"#utility.yul\":10785:10858   */\n      tag_536\n      jump\t// in\n    tag_560:\n        /* \"#utility.yul\":10868:10941   */\n      tag_561\n        /* \"#utility.yul\":10936:10939   */\n      0xa0\n        /* \"#utility.yul\":10925:10934   */\n      dup4\n        /* \"#utility.yul\":10921:10940   */\n      add\n        /* \"#utility.yul\":10912:10918   */\n      dup7\n        /* \"#utility.yul\":10868:10941   */\n      tag_536\n      jump\t// in\n    tag_561:\n        /* \"#utility.yul\":10951:11024   */\n      tag_562\n        /* \"#utility.yul\":11019:11022   */\n      0xc0\n        /* \"#utility.yul\":11008:11017   */\n      dup4\n        /* \"#utility.yul\":11004:11023   */\n      add\n        /* \"#utility.yul\":10995:11001   */\n      dup6\n        /* \"#utility.yul\":10951:11024   */\n      tag_536\n      jump\t// in\n    tag_562:\n        /* \"#utility.yul\":11034:11105   */\n      tag_563\n        /* \"#utility.yul\":11100:11103   */\n      0xe0\n        /* \"#utility.yul\":11089:11098   */\n      dup4\n        /* \"#utility.yul\":11085:11104   */\n      add\n        /* \"#utility.yul\":11076:11082   */\n      dup5\n        /* \"#utility.yul\":11034:11105   */\n      tag_545\n      jump\t// in\n    tag_563:\n        /* \"#utility.yul\":9846:11112   */\n      swap10\n      swap9\n      pop\n      pop\n      pop\n      pop\n      pop\n      pop\n      pop\n      pop\n      pop\n      jump\t// out\n        /* \"#utility.yul\":11118:11431   */\n    tag_28:\n        /* \"#utility.yul\":11231:11235   */\n      0x00\n        /* \"#utility.yul\":11269:11271   */\n      0x20\n        /* \"#utility.yul\":11258:11267   */\n      dup3\n        /* \"#utility.yul\":11254:11272   */\n      add\n        /* \"#utility.yul\":11246:11272   */\n      swap1\n      pop\n        /* \"#utility.yul\":11318:11327   */\n      dup2\n        /* \"#utility.yul\":11312:11316   */\n      dup2\n        /* \"#utility.yul\":11308:11328   */\n      sub\n        /* \"#utility.yul\":11304:11305   */\n      0x00\n        /* \"#utility.yul\":11293:11302   */\n      dup4\n        /* \"#utility.yul\":11289:11306   */\n      add\n        /* \"#utility.yul\":11282:11329   */\n      mstore\n        /* \"#utility.yul\":11346:11424   */\n      tag_565\n        /* \"#utility.yul\":11419:11423   */\n      dup2\n        /* \"#utility.yul\":11410:11416   */\n      dup5\n        /* \"#utility.yul\":11346:11424   */\n      tag_489\n      jump\t// in\n    tag_565:\n        /* \"#utility.yul\":11338:11424   */\n      swap1\n      pop\n        /* \"#utility.yul\":11118:11431   */\n      swap3\n      swap2\n      pop\n      pop\n      jump\t// out\n        /* \"#utility.yul\":11437:12267   */\n    tag_348:\n        /* \"#utility.yul\":11674:11678   */\n      0x00\n        /* \"#utility.yul\":11712:11715   */\n      0xa0\n        /* \"#utility.yul\":11701:11710   */\n      dup3\n        /* \"#utility.yul\":11697:11716   */\n      add\n        /* \"#utility.yul\":11689:11716   */\n      swap1\n      pop\n        /* \"#utility.yul\":11762:11771   */\n      dup2\n        /* \"#utility.yul\":11756:11760   */\n      dup2\n        /* \"#utility.yul\":11752:11772   */\n      sub\n        /* \"#utility.yul\":11748:11749   */\n      0x00\n        /* \"#utility.yul\":11737:11746   */\n      dup4\n        /* \"#utility.yul\":11733:11750   */\n      add\n        /* \"#utility.yul\":11726:11773   */\n      mstore\n        /* \"#utility.yul\":11790:11865   */\n      tag_567\n        /* \"#utility.yul\":11860:11864   */\n      dup2\n        /* \"#utility.yul\":11851:11857   */\n      dup9\n        /* \"#utility.yul\":11790:11865   */\n      tag_499\n      jump\t// in\n    tag_567:\n        /* \"#utility.yul\":11782:11865   */\n      swap1\n      pop\n        /* \"#utility.yul\":11912:11921   */\n      dup2\n        /* \"#utility.yul\":11906:11910   */\n      dup2\n        /* \"#utility.yul\":11902:11922   */\n      sub\n        /* \"#utility.yul\":11897:11899   */\n      0x20\n        /* \"#utility.yul\":11886:11895   */\n      dup4\n        /* \"#utility.yul\":11882:11900   */\n      add\n        /* \"#utility.yul\":11875:11923   */\n      mstore\n        /* \"#utility.yul\":11940:12015   */\n      tag_568\n        /* \"#utility.yul\":12010:12014   */\n      dup2\n        /* \"#utility.yul\":12001:12007   */\n      dup8\n        /* \"#utility.yul\":11940:12015   */\n      tag_499\n      jump\t// in\n    tag_568:\n        /* \"#utility.yul\":11932:12015   */\n      swap1\n      pop\n        /* \"#utility.yul\":12025:12095   */\n      tag_569\n        /* \"#utility.yul\":12091:12093   */\n      0x40\n        /* \"#utility.yul\":12080:12089   */\n      dup4\n        /* \"#utility.yul\":12076:12094   */\n      add\n        /* \"#utility.yul\":12067:12073   */\n      dup7\n        /* \"#utility.yul\":12025:12095   */\n      tag_545\n      jump\t// in\n    tag_569:\n        /* \"#utility.yul\":12105:12177   */\n      tag_570\n        /* \"#utility.yul\":12173:12175   */\n      0x60\n        /* \"#utility.yul\":12162:12171   */\n      dup4\n        /* \"#utility.yul\":12158:12176   */\n      add\n        /* \"#utility.yul\":12149:12155   */\n      dup6\n        /* \"#utility.yul\":12105:12177   */\n      tag_536\n      jump\t// in\n    tag_570:\n        /* \"#utility.yul\":12187:12260   */\n      tag_571\n        /* \"#utility.yul\":12255:12258   */\n      0x80\n        /* \"#utility.yul\":12244:12253   */\n      dup4\n        /* \"#utility.yul\":12240:12259   */\n      add\n        /* \"#utility.yul\":12231:12237   */\n      dup5\n        /* \"#utility.yul\":12187:12260   */\n      tag_536\n      jump\t// in\n    tag_571:\n        /* \"#utility.yul\":11437:12267   */\n      swap7\n      swap6\n      pop\n      pop\n      pop\n      pop\n      pop\n      pop\n      jump\t// out\n        /* \"#utility.yul\":12273:12692   */\n    tag_159:\n        /* \"#utility.yul\":12439:12443   */\n      0x00\n        /* \"#utility.yul\":12477:12479   */\n      0x20\n        /* \"#utility.yul\":12466:12475   */\n      dup3\n        /* \"#utility.yul\":12462:12480   */\n      add\n        /* \"#utility.yul\":12454:12480   */\n      swap1\n      pop\n        /* \"#utility.yul\":12526:12535   */\n      dup2\n        /* \"#utility.yul\":12520:12524   */\n      dup2\n        /* \"#utility.yul\":12516:12536   */\n      sub\n        /* \"#utility.yul\":12512:12513   */\n      0x00\n        /* \"#utility.yul\":12501:12510   */\n      dup4\n        /* \"#utility.yul\":12497:12514   */\n      add\n        /* \"#utility.yul\":12490:12537   */\n      mstore\n        /* \"#utility.yul\":12554:12685   */\n      tag_573\n        /* \"#utility.yul\":12680:12684   */\n      dup2\n        /* \"#utility.yul\":12554:12685   */\n      tag_511\n      jump\t// in\n    tag_573:\n        /* \"#utility.yul\":12546:12685   */\n      swap1\n      pop\n        /* \"#utility.yul\":12273:12692   */\n      swap2\n      swap1\n      pop\n      jump\t// out\n        /* \"#utility.yul\":12698:13117   */\n    tag_358:\n        /* \"#utility.yul\":12864:12868   */\n      0x00\n        /* \"#utility.yul\":12902:12904   */\n      0x20\n        /* \"#utility.yul\":12891:12900   */\n      dup3\n        /* \"#utility.yul\":12887:12905   */\n      add\n        /* \"#utility.yul\":12879:12905   */\n      swap1\n      pop\n        /* \"#utility.yul\":12951:12960   */\n      dup2\n        /* \"#utility.yul\":12945:12949   */\n      dup2\n        /* \"#utility.yul\":12941:12961   */\n      sub\n        /* \"#utility.yul\":12937:12938   */\n      0x00\n        /* \"#utility.yul\":12926:12935   */\n      dup4\n        /* \"#utility.yul\":12922:12939   */\n      add\n        /* \"#utility.yul\":12915:12962   */\n      mstore\n        /* \"#utility.yul\":12979:13110   */\n      tag_575\n        /* \"#utility.yul\":13105:13109   */\n      dup2\n        /* \"#utility.yul\":12979:13110   */\n      tag_516\n      jump\t// in\n    tag_575:\n        /* \"#utility.yul\":12971:13110   */\n      swap1\n      pop\n        /* \"#utility.yul\":12698:13117   */\n      swap2\n      swap1\n      pop\n      jump\t// out\n        /* \"#utility.yul\":13123:13542   */\n    tag_190:\n        /* \"#utility.yul\":13289:13293   */\n      0x00\n        /* \"#utility.yul\":13327:13329   */\n      0x20\n        /* \"#utility.yul\":13316:13325   */\n      dup3\n        /* \"#utility.yul\":13312:13330   */\n      add\n        /* \"#utility.yul\":13304:13330   */\n      swap1\n      pop\n        /* \"#utility.yul\":13376:13385   */\n      dup2\n        /* \"#utility.yul\":13370:13374   */\n      dup2\n        /* \"#utility.yul\":13366:13386   */\n      sub\n        /* \"#utility.yul\":13362:13363   */\n      0x00\n        /* \"#utility.yul\":13351:13360   */\n      dup4\n        /* \"#utility.yul\":13347:13364   */\n      add\n        /* \"#utility.yul\":13340:13387   */\n      mstore\n        /* \"#utility.yul\":13404:13535   */\n      tag_577\n        /* \"#utility.yul\":13530:13534   */\n      dup2\n        /* \"#utility.yul\":13404:13535   */\n      tag_521\n      jump\t// in\n    tag_577:\n        /* \"#utility.yul\":13396:13535   */\n      swap1\n      pop\n        /* \"#utility.yul\":13123:13542   */\n      swap2\n      swap1\n      pop\n      jump\t// out\n        /* \"#utility.yul\":13548:13967   */\n    tag_301:\n        /* \"#utility.yul\":13714:13718   */\n      0x00\n        /* \"#utility.yul\":13752:13754   */\n      0x20\n        /* \"#utility.yul\":13741:13750   */\n      dup3\n        /* \"#utility.yul\":13737:13755   */\n      add\n        /* \"#utility.yul\":13729:13755   */\n      swap1\n      pop\n        /* \"#utility.yul\":13801:13810   */\n      dup2\n        /* \"#utility.yul\":13795:13799   */\n      dup2\n        /* \"#utility.yul\":13791:13811   */\n      sub\n        /* \"#utility.yul\":13787:13788   */\n      0x00\n        /* \"#utility.yul\":13776:13785   */\n      dup4\n        /* \"#utility.yul\":13772:13789   */\n      add\n        /* \"#utility.yul\":13765:13812   */\n      mstore\n        /* \"#utility.yul\":13829:13960   */\n      tag_579\n        /* \"#utility.yul\":13955:13959   */\n      dup2\n        /* \"#utility.yul\":13829:13960   */\n      tag_526\n      jump\t// in\n    tag_579:\n        /* \"#utility.yul\":13821:13960   */\n      swap1\n      pop\n        /* \"#utility.yul\":13548:13967   */\n      swap2\n      swap1\n      pop\n      jump\t// out\n        /* \"#utility.yul\":13973:14392   */\n    tag_247:\n        /* \"#utility.yul\":14139:14143   */\n      0x00\n        /* \"#utility.yul\":14177:14179   */\n      0x20\n        /* \"#utility.yul\":14166:14175   */\n      dup3\n        /* \"#utility.yul\":14162:14180   */\n      add\n        /* \"#utility.yul\":14154:14180   */\n      swap1\n      pop\n        /* \"#utility.yul\":14226:14235   */\n      dup2\n        /* \"#utility.yul\":14220:14224   */\n      dup2\n        /* \"#utility.yul\":14216:14236   */\n      sub\n        /* \"#utility.yul\":14212:14213   */\n      0x00\n        /* \"#utility.yul\":14201:14210   */\n      dup4\n        /* \"#utility.yul\":14197:14214   */\n      add\n        /* \"#utility.yul\":14190:14237   */\n      mstore\n        /* \"#utility.yul\":14254:14385   */\n      tag_581\n        /* \"#utility.yul\":14380:14384   */\n      dup2\n        /* \"#utility.yul\":14254:14385   */\n      tag_531\n      jump\t// in\n    tag_581:\n        /* \"#utility.yul\":14246:14385   */\n      swap1\n      pop\n        /* \"#utility.yul\":13973:14392   */\n      swap2\n      swap1\n      pop\n      jump\t// out\n        /* \"#utility.yul\":14398:14620   */\n    tag_43:\n        /* \"#utility.yul\":14491:14495   */\n      0x00\n        /* \"#utility.yul\":14529:14531   */\n      0x20\n        /* \"#utility.yul\":14518:14527   */\n      dup3\n        /* \"#utility.yul\":14514:14532   */\n      add\n        /* \"#utility.yul\":14506:14532   */\n      swap1\n      pop\n        /* \"#utility.yul\":14542:14613   */\n      tag_583\n        /* \"#utility.yul\":14610:14611   */\n      0x00\n        /* \"#utility.yul\":14599:14608   */\n      dup4\n        /* \"#utility.yul\":14595:14612   */\n      add\n        /* \"#utility.yul\":14586:14592   */\n      dup5\n        /* \"#utility.yul\":14542:14613   */\n      tag_536\n      jump\t// in\n    tag_583:\n        /* \"#utility.yul\":14398:14620   */\n      swap3\n      swap2\n      pop\n      pop\n      jump\t// out\n        /* \"#utility.yul\":14626:14755   */\n    tag_417:\n        /* \"#utility.yul\":14660:14666   */\n      0x00\n        /* \"#utility.yul\":14687:14707   */\n      tag_585\n      tag_586\n      jump\t// in\n    tag_585:\n        /* \"#utility.yul\":14677:14707   */\n      swap1\n      pop\n        /* \"#utility.yul\":14716:14749   */\n      tag_587\n        /* \"#utility.yul\":14744:14748   */\n      dup3\n        /* \"#utility.yul\":14736:14742   */\n      dup3\n        /* \"#utility.yul\":14716:14749   */\n      tag_588\n      jump\t// in\n    tag_587:\n        /* \"#utility.yul\":14626:14755   */\n      swap2\n      swap1\n      pop\n      jump\t// out\n        /* \"#utility.yul\":14761:14836   */\n    tag_586:\n        /* \"#utility.yul\":14794:14800   */\n      0x00\n        /* \"#utility.yul\":14827:14829   */\n      0x40\n        /* \"#utility.yul\":14821:14830   */\n      mload\n        /* \"#utility.yul\":14811:14830   */\n      swap1\n      pop\n        /* \"#utility.yul\":14761:14836   */\n      swap1\n      jump\t// out\n        /* \"#utility.yul\":14842:15150   */\n    tag_416:\n        /* \"#utility.yul\":14904:14908   */\n      0x00\n        /* \"#utility.yul\":14994:15012   */\n      0xffffffffffffffff\n        /* \"#utility.yul\":14986:14992   */\n      dup3\n        /* \"#utility.yul\":14983:15013   */\n      gt\n        /* \"#utility.yul\":14980:15036   */\n      iszero\n      tag_591\n      jumpi\n        /* \"#utility.yul\":15016:15034   */\n      tag_592\n      tag_593\n      jump\t// in\n    tag_592:\n        /* \"#utility.yul\":14980:15036   */\n    tag_591:\n        /* \"#utility.yul\":15054:15083   */\n      tag_594\n        /* \"#utility.yul\":15076:15082   */\n      dup3\n        /* \"#utility.yul\":15054:15083   */\n      tag_498\n      jump\t// in\n    tag_594:\n        /* \"#utility.yul\":15046:15083   */\n      swap1\n      pop\n        /* \"#utility.yul\":15138:15142   */\n      0x20\n        /* \"#utility.yul\":15132:15136   */\n      dup2\n        /* \"#utility.yul\":15128:15143   */\n      add\n        /* \"#utility.yul\":15120:15143   */\n      swap1\n      pop\n        /* \"#utility.yul\":14842:15150   */\n      swap2\n      swap1\n      pop\n      jump\t// out\n        /* \"#utility.yul\":15156:15297   */\n    tag_507:\n        /* \"#utility.yul\":15205:15209   */\n      0x00\n        /* \"#utility.yul\":15228:15231   */\n      dup2\n        /* \"#utility.yul\":15220:15231   */\n      swap1\n      pop\n        /* \"#utility.yul\":15251:15254   */\n      dup2\n        /* \"#utility.yul\":15248:15249   */\n      0x00\n        /* \"#utility.yul\":15241:15255   */\n      mstore\n        /* \"#utility.yul\":15285:15289   */\n      0x20\n        /* \"#utility.yul\":15282:15283   */\n      0x00\n        /* \"#utility.yul\":15272:15290   */\n      keccak256\n        /* \"#utility.yul\":15264:15290   */\n      swap1\n      pop\n        /* \"#utility.yul\":15156:15297   */\n      swap2\n      swap1\n      pop\n      jump\t// out\n        /* \"#utility.yul\":15303:15402   */\n    tag_492:\n        /* \"#utility.yul\":15355:15361   */\n      0x00\n        /* \"#utility.yul\":15389:15394   */\n      dup2\n        /* \"#utility.yul\":15383:15395   */\n      mload\n        /* \"#utility.yul\":15373:15395   */\n      swap1\n      pop\n        /* \"#utility.yul\":15303:15402   */\n      swap2\n      swap1\n      pop\n      jump\t// out\n        /* \"#utility.yul\":15408:15577   */\n    tag_494:\n        /* \"#utility.yul\":15492:15503   */\n      0x00\n        /* \"#utility.yul\":15526:15532   */\n      dup3\n        /* \"#utility.yul\":15521:15524   */\n      dup3\n        /* \"#utility.yul\":15514:15533   */\n      mstore\n        /* \"#utility.yul\":15566:15570   */\n      0x20\n        /* \"#utility.yul\":15561:15564   */\n      dup3\n        /* \"#utility.yul\":15557:15571   */\n      add\n        /* \"#utility.yul\":15542:15571   */\n      swap1\n      pop\n        /* \"#utility.yul\":15408:15577   */\n      swap3\n      swap2\n      pop\n      pop\n      jump\t// out\n        /* \"#utility.yul\":15583:15888   */\n    tag_162:\n        /* \"#utility.yul\":15623:15626   */\n      0x00\n        /* \"#utility.yul\":15642:15662   */\n      tag_599\n        /* \"#utility.yul\":15660:15661   */\n      dup3\n        /* \"#utility.yul\":15642:15662   */\n      tag_539\n      jump\t// in\n    tag_599:\n        /* \"#utility.yul\":15637:15662   */\n      swap2\n      pop\n        /* \"#utility.yul\":15676:15696   */\n      tag_600\n        /* \"#utility.yul\":15694:15695   */\n      dup4\n        /* \"#utility.yul\":15676:15696   */\n      tag_539\n      jump\t// in\n    tag_600:\n        /* \"#utility.yul\":15671:15696   */\n      swap3\n      pop\n        /* \"#utility.yul\":15830:15831   */\n      dup3\n        /* \"#utility.yul\":15762:15828   */\n      0xffffffffffffffffffffffffffffffffffffffffffffffffffffffffffffffff\n        /* \"#utility.yul\":15758:15832   */\n      sub\n        /* \"#utility.yul\":15755:15756   */\n      dup3\n        /* \"#utility.yul\":15752:15833   */\n      gt\n        /* \"#utility.yul\":15749:15856   */\n      iszero\n      tag_601\n      jumpi\n        /* \"#utility.yul\":15836:15854   */\n      tag_602\n      tag_603\n      jump\t// in\n    tag_602:\n        /* \"#utility.yul\":15749:15856   */\n    tag_601:\n        /* \"#utility.yul\":15880:15881   */\n      dup3\n        /* \"#utility.yul\":15877:15878   */\n      dup3\n        /* \"#utility.yul\":15873:15882   */\n      add\n        /* \"#utility.yul\":15866:15882   */\n      swap1\n      pop\n        /* \"#utility.yul\":15583:15888   */\n      swap3\n      swap2\n      pop\n      pop\n      jump\t// out\n        /* \"#utility.yul\":15894:16085   */\n    tag_170:\n        /* \"#utility.yul\":15934:15938   */\n      0x00\n        /* \"#utility.yul\":15954:15974   */\n      tag_605\n        /* \"#utility.yul\":15972:15973   */\n      dup3\n        /* \"#utility.yul\":15954:15974   */\n      tag_539\n      jump\t// in\n    tag_605:\n        /* \"#utility.yul\":15949:15974   */\n      swap2\n      pop\n        /* \"#utility.yul\":15988:16008   */\n      tag_606\n        /* \"#utility.yul\":16006:16007   */\n      dup4\n        /* \"#utility.yul\":15988:16008   */\n      tag_539\n      jump\t// in\n    tag_606:\n        /* \"#utility.yul\":15983:16008   */\n      swap3\n      pop\n        /* \"#utility.yul\":16027:16028   */\n      dup3\n        /* \"#utility.yul\":16024:16025   */\n      dup3\n        /* \"#utility.yul\":16021:16029   */\n      lt\n        /* \"#utility.yul\":16018:16052   */\n      iszero\n      tag_607\n      jumpi\n        /* \"#utility.yul\":16032:16050   */\n      tag_608\n      tag_603\n      jump\t// in\n    tag_608:\n        /* \"#utility.yul\":16018:16052   */\n    tag_607:\n        /* \"#utility.yul\":16077:16078   */\n      dup3\n        /* \"#utility.yul\":16074:16075   */\n      dup3\n        /* \"#utility.yul\":16070:16079   */\n      sub\n        /* \"#utility.yul\":16062:16079   */\n      swap1\n      pop\n        /* \"#utility.yul\":15894:16085   */\n      swap3\n      swap2\n      pop\n      pop\n      jump\t// out\n        /* \"#utility.yul\":16091:16187   */\n    tag_488:\n        /* \"#utility.yul\":16128:16135   */\n      0x00\n        /* \"#utility.yul\":16157:16181   */\n      tag_610\n        /* \"#utility.yul\":16175:16180   */\n      dup3\n        /* \"#utility.yul\":16157:16181   */\n      tag_611\n      jump\t// in\n    tag_610:\n        /* \"#utility.yul\":16146:16181   */\n      swap1\n      pop\n        /* \"#utility.yul\":16091:16187   */\n      swap2\n      swap1\n      pop\n      jump\t// out\n        /* \"#utility.yul\":16193:16319   */\n    tag_611:\n        /* \"#utility.yul\":16230:16237   */\n      0x00\n        /* \"#utility.yul\":16270:16312   */\n      0xffffffffffffffffffffffffffffffffffffffff\n        /* \"#utility.yul\":16263:16268   */\n      dup3\n        /* \"#utility.yul\":16259:16313   */\n      and\n        /* \"#utility.yul\":16248:16313   */\n      swap1\n      pop\n        /* \"#utility.yul\":16193:16319   */\n      swap2\n      swap1\n      pop\n      jump\t// out\n        /* \"#utility.yul\":16325:16402   */\n    tag_539:\n        /* \"#utility.yul\":16362:16369   */\n      0x00\n        /* \"#utility.yul\":16391:16396   */\n      dup2\n        /* \"#utility.yul\":16380:16396   */\n      swap1\n      pop\n        /* \"#utility.yul\":16325:16402   */\n      swap2\n      swap1\n      pop\n      jump\t// out\n        /* \"#utility.yul\":16408:16501   */\n    tag_548:\n        /* \"#utility.yul\":16444:16451   */\n      0x00\n        /* \"#utility.yul\":16484:16494   */\n      0xffffffff\n        /* \"#utility.yul\":16477:16482   */\n      dup3\n        /* \"#utility.yul\":16473:16495   */\n      and\n        /* \"#utility.yul\":16462:16495   */\n      swap1\n      pop\n        /* \"#utility.yul\":16408:16501   */\n      swap2\n      swap1\n      pop\n      jump\t// out\n        /* \"#utility.yul\":16507:16661   */\n    tag_422:\n        /* \"#utility.yul\":16591:16597   */\n      dup3\n        /* \"#utility.yul\":16586:16589   */\n      dup2\n        /* \"#utility.yul\":16581:16584   */\n      dup4\n        /* \"#utility.yul\":16568:16598   */\n      calldatacopy\n        /* \"#utility.yul\":16653:16654   */\n      0x00\n        /* \"#utility.yul\":16644:16650   */\n      dup4\n        /* \"#utility.yul\":16639:16642   */\n      dup4\n        /* \"#utility.yul\":16635:16651   */\n      add\n        /* \"#utility.yul\":16628:16655   */\n      mstore\n        /* \"#utility.yul\":16507:16661   */\n      pop\n      pop\n      pop\n      jump\t// out\n        /* \"#utility.yul\":16667:16974   */\n    tag_496:\n        /* \"#utility.yul\":16735:16736   */\n      0x00\n        /* \"#utility.yul\":16745:16858   */\n    tag_617:\n        /* \"#utility.yul\":16759:16765   */\n      dup4\n        /* \"#utility.yul\":16756:16757   */\n      dup2\n        /* \"#utility.yul\":16753:16766   */\n      lt\n        /* \"#utility.yul\":16745:16858   */\n      iszero\n      tag_619\n      jumpi\n        /* \"#utility.yul\":16844:16845   */\n      dup1\n        /* \"#utility.yul\":16839:16842   */\n      dup3\n        /* \"#utility.yul\":16835:16846   */\n      add\n        /* \"#utility.yul\":16829:16847   */\n      mload\n        /* \"#utility.yul\":16825:16826   */\n      dup2\n        /* \"#utility.yul\":16820:16823   */\n      dup5\n        /* \"#utility.yul\":16816:16827   */\n      add\n        /* \"#utility.yul\":16809:16848   */\n      mstore\n        /* \"#utility.yul\":16781:16783   */\n      0x20\n        /* \"#utility.yul\":16778:16779   */\n      dup2\n        /* \"#utility.yul\":16774:16784   */\n      add\n        /* \"#utility.yul\":16769:16784   */\n      swap1\n      pop\n        /* \"#utility.yul\":16745:16858   */\n      jump(tag_617)\n    tag_619:\n        /* \"#utility.yul\":16876:16882   */\n      dup4\n        /* \"#utility.yul\":16873:16874   */\n      dup2\n        /* \"#utility.yul\":16870:16883   */\n      gt\n        /* \"#utility.yul\":16867:16968   */\n      iszero\n      tag_620\n      jumpi\n        /* \"#utility.yul\":16956:16957   */\n      0x00\n        /* \"#utility.yul\":16947:16953   */\n      dup5\n        /* \"#utility.yul\":16942:16945   */\n      dup5\n        /* \"#utility.yul\":16938:16954   */\n      add\n        /* \"#utility.yul\":16931:16958   */\n      mstore\n        /* \"#utility.yul\":16867:16968   */\n    tag_620:\n        /* \"#utility.yul\":16716:16974   */\n      pop\n        /* \"#utility.yul\":16667:16974   */\n      pop\n      pop\n      pop\n      jump\t// out\n        /* \"#utility.yul\":16980:17151   */\n    tag_388:\n        /* \"#utility.yul\":17019:17022   */\n      0x00\n        /* \"#utility.yul\":17042:17066   */\n      tag_622\n        /* \"#utility.yul\":17060:17065   */\n      dup3\n        /* \"#utility.yul\":17042:17066   */\n      tag_539\n      jump\t// in\n    tag_622:\n        /* \"#utility.yul\":17033:17066   */\n      swap2\n      pop\n        /* \"#utility.yul\":17088:17092   */\n      0x00\n        /* \"#utility.yul\":17081:17086   */\n      dup3\n        /* \"#utility.yul\":17078:17093   */\n      eq\n        /* \"#utility.yul\":17075:17116   */\n      iszero\n      tag_623\n      jumpi\n        /* \"#utility.yul\":17096:17114   */\n      tag_624\n      tag_603\n      jump\t// in\n    tag_624:\n        /* \"#utility.yul\":17075:17116   */\n    tag_623:\n        /* \"#utility.yul\":17143:17144   */\n      0x01\n        /* \"#utility.yul\":17136:17141   */\n      dup3\n        /* \"#utility.yul\":17132:17145   */\n      sub\n        /* \"#utility.yul\":17125:17145   */\n      swap1\n      pop\n        /* \"#utility.yul\":16980:17151   */\n      swap2\n      swap1\n      pop\n      jump\t// out\n        /* \"#utility.yul\":17157:17477   */\n    tag_309:\n        /* \"#utility.yul\":17201:17207   */\n      0x00\n        /* \"#utility.yul\":17238:17239   */\n      0x02\n        /* \"#utility.yul\":17232:17236   */\n      dup3\n        /* \"#utility.yul\":17228:17240   */\n      div\n        /* \"#utility.yul\":17218:17240   */\n      swap1\n      pop\n        /* \"#utility.yul\":17285:17286   */\n      0x01\n        /* \"#utility.yul\":17279:17283   */\n      dup3\n        /* \"#utility.yul\":17275:17287   */\n      and\n        /* \"#utility.yul\":17306:17324   */\n      dup1\n        /* \"#utility.yul\":17296:17377   */\n      tag_626\n      jumpi\n        /* \"#utility.yul\":17362:17366   */\n      0x7f\n        /* \"#utility.yul\":17354:17360   */\n      dup3\n        /* \"#utility.yul\":17350:17367   */\n      and\n        /* \"#utility.yul\":17340:17367   */\n      swap2\n      pop\n        /* \"#utility.yul\":17296:17377   */\n    tag_626:\n        /* \"#utility.yul\":17424:17426   */\n      0x20\n        /* \"#utility.yul\":17416:17422   */\n      dup3\n        /* \"#utility.yul\":17413:17427   */\n      lt\n        /* \"#utility.yul\":17393:17411   */\n      dup2\n        /* \"#utility.yul\":17390:17428   */\n      eq\n        /* \"#utility.yul\":17387:17471   */\n      iszero\n      tag_627\n      jumpi\n        /* \"#utility.yul\":17443:17461   */\n      tag_628\n      tag_629\n      jump\t// in\n    tag_628:\n        /* \"#utility.yul\":17387:17471   */\n    tag_627:\n        /* \"#utility.yul\":17208:17477   */\n      pop\n        /* \"#utility.yul\":17157:17477   */\n      swap2\n      swap1\n      pop\n      jump\t// out\n        /* \"#utility.yul\":17483:17764   */\n    tag_588:\n        /* \"#utility.yul\":17566:17593   */\n      tag_631\n        /* \"#utility.yul\":17588:17592   */\n      dup3\n        /* \"#utility.yul\":17566:17593   */\n      tag_498\n      jump\t// in\n    tag_631:\n        /* \"#utility.yul\":17558:17564   */\n      dup2\n        /* \"#utility.yul\":17554:17594   */\n      add\n        /* \"#utility.yul\":17696:17702   */\n      dup2\n        /* \"#utility.yul\":17684:17694   */\n      dup2\n        /* \"#utility.yul\":17681:17703   */\n      lt\n        /* \"#utility.yul\":17660:17678   */\n      0xffffffffffffffff\n        /* \"#utility.yul\":17648:17658   */\n      dup3\n        /* \"#utility.yul\":17645:17679   */\n      gt\n        /* \"#utility.yul\":17642:17704   */\n      or\n        /* \"#utility.yul\":17639:17727   */\n      iszero\n      tag_632\n      jumpi\n        /* \"#utility.yul\":17707:17725   */\n      tag_633\n      tag_593\n      jump\t// in\n    tag_633:\n        /* \"#utility.yul\":17639:17727   */\n    tag_632:\n        /* \"#utility.yul\":17747:17757   */\n      dup1\n        /* \"#utility.yul\":17743:17745   */\n      0x40\n        /* \"#utility.yul\":17736:17758   */\n      mstore\n        /* \"#utility.yul\":17526:17764   */\n      pop\n        /* \"#utility.yul\":17483:17764   */\n      pop\n      pop\n      jump\t// out\n        /* \"#utility.yul\":17770:18003   */\n    tag_130:\n        /* \"#utility.yul\":17809:17812   */\n      0x00\n        /* \"#utility.yul\":17832:17856   */\n      tag_635\n        /* \"#utility.yul\":17850:17855   */\n      dup3\n        /* \"#utility.yul\":17832:17856   */\n      tag_539\n      jump\t// in\n    tag_635:\n        /* \"#utility.yul\":17823:17856   */\n      swap2\n      pop\n        /* \"#utility.yul\":17878:17944   */\n      0xffffffffffffffffffffffffffffffffffffffffffffffffffffffffffffffff\n        /* \"#utility.yul\":17871:17876   */\n      dup3\n        /* \"#utility.yul\":17868:17945   */\n      eq\n        /* \"#utility.yul\":17865:17968   */\n      iszero\n      tag_636\n      jumpi\n        /* \"#utility.yul\":17948:17966   */\n      tag_637\n      tag_603\n      jump\t// in\n    tag_637:\n        /* \"#utility.yul\":17865:17968   */\n    tag_636:\n        /* \"#utility.yul\":17995:17996   */\n      0x01\n        /* \"#utility.yul\":17988:17993   */\n      dup3\n        /* \"#utility.yul\":17984:17997   */\n      add\n        /* \"#utility.yul\":17977:17997   */\n      swap1\n      pop\n        /* \"#utility.yul\":17770:18003   */\n      swap2\n      swap1\n      pop\n      jump\t// out\n        /* \"#utility.yul\":18009:18184   */\n    tag_185:\n        /* \"#utility.yul\":18047:18050   */\n      0x00\n        /* \"#utility.yul\":18070:18093   */\n      tag_639\n        /* \"#utility.yul\":18087:18092   */\n      dup3\n        /* \"#utility.yul\":18070:18093   */\n      tag_548\n      jump\t// in\n    tag_639:\n        /* \"#utility.yul\":18061:18093   */\n      swap2\n      pop\n        /* \"#utility.yul\":18115:18125   */\n      0xffffffff\n        /* \"#utility.yul\":18108:18113   */\n      dup3\n        /* \"#utility.yul\":18105:18126   */\n      eq\n        /* \"#utility.yul\":18102:18149   */\n      iszero\n      tag_640\n      jumpi\n        /* \"#utility.yul\":18129:18147   */\n      tag_641\n      tag_603\n      jump\t// in\n    tag_641:\n        /* \"#utility.yul\":18102:18149   */\n    tag_640:\n        /* \"#utility.yul\":18176:18177   */\n      0x01\n        /* \"#utility.yul\":18169:18174   */\n      dup3\n        /* \"#utility.yul\":18165:18178   */\n      add\n        /* \"#utility.yul\":18158:18178   */\n      swap1\n      pop\n        /* \"#utility.yul\":18009:18184   */\n      swap2\n      swap1\n      pop\n      jump\t// out\n        /* \"#utility.yul\":18190:18269   */\n    tag_544:\n        /* \"#utility.yul\":18229:18236   */\n      0x00\n        /* \"#utility.yul\":18258:18263   */\n      dup2\n        /* \"#utility.yul\":18247:18263   */\n      swap1\n      pop\n        /* \"#utility.yul\":18190:18269   */\n      swap2\n      swap1\n      pop\n      jump\t// out\n        /* \"#utility.yul\":18275:18451   */\n    tag_197:\n        /* \"#utility.yul\":18307:18308   */\n      0x00\n        /* \"#utility.yul\":18324:18344   */\n      tag_644\n        /* \"#utility.yul\":18342:18343   */\n      dup3\n        /* \"#utility.yul\":18324:18344   */\n      tag_539\n      jump\t// in\n    tag_644:\n        /* \"#utility.yul\":18319:18344   */\n      swap2\n      pop\n        /* \"#utility.yul\":18358:18378   */\n      tag_645\n        /* \"#utility.yul\":18376:18377   */\n      dup4\n        /* \"#utility.yul\":18358:18378   */\n      tag_539\n      jump\t// in\n    tag_645:\n        /* \"#utility.yul\":18353:18378   */\n      swap3\n      pop\n        /* \"#utility.yul\":18397:18398   */\n      dup3\n        /* \"#utility.yul\":18387:18422   */\n      tag_646\n      jumpi\n        /* \"#utility.yul\":18402:18420   */\n      tag_647\n      tag_648\n      jump\t// in\n    tag_647:\n        /* \"#utility.yul\":18387:18422   */\n    tag_646:\n        /* \"#utility.yul\":18443:18444   */\n      dup3\n        /* \"#utility.yul\":18440:18441   */\n      dup3\n        /* \"#utility.yul\":18436:18445   */\n      mod\n        /* \"#utility.yul\":18431:18445   */\n      swap1\n      pop\n        /* \"#utility.yul\":18275:18451   */\n      swap3\n      swap2\n      pop\n      pop\n      jump\t// out\n        /* \"#utility.yul\":18457:18637   */\n    tag_603:\n        /* \"#utility.yul\":18505:18582   */\n      0x4e487b7100000000000000000000000000000000000000000000000000000000\n        /* \"#utility.yul\":18502:18503   */\n      0x00\n        /* \"#utility.yul\":18495:18583   */\n      mstore\n        /* \"#utility.yul\":18602:18606   */\n      0x11\n        /* \"#utility.yul\":18599:18600   */\n      0x04\n        /* \"#utility.yul\":18592:18607   */\n      mstore\n        /* \"#utility.yul\":18626:18630   */\n      0x24\n        /* \"#utility.yul\":18623:18624   */\n      0x00\n        /* \"#utility.yul\":18616:18631   */\n      revert\n        /* \"#utility.yul\":18643:18823   */\n    tag_648:\n        /* \"#utility.yul\":18691:18768   */\n      0x4e487b7100000000000000000000000000000000000000000000000000000000\n        /* \"#utility.yul\":18688:18689   */\n      0x00\n        /* \"#utility.yul\":18681:18769   */\n      mstore\n        /* \"#utility.yul\":18788:18792   */\n      0x12\n        /* \"#utility.yul\":18785:18786   */\n      0x04\n        /* \"#utility.yul\":18778:18793   */\n      mstore\n        /* \"#utility.yul\":18812:18816   */\n      0x24\n        /* \"#utility.yul\":18809:18810   */\n      0x00\n        /* \"#utility.yul\":18802:18817   */\n      revert\n        /* \"#utility.yul\":18829:19009   */\n    tag_629:\n        /* \"#utility.yul\":18877:18954   */\n      0x4e487b7100000000000000000000000000000000000000000000000000000000\n        /* \"#utility.yul\":18874:18875   */\n      0x00\n        /* \"#utility.yul\":18867:18955   */\n      mstore\n        /* \"#utility.yul\":18974:18978   */\n      0x22\n        /* \"#utility.yul\":18971:18972   */\n      0x04\n        /* \"#utility.yul\":18964:18979   */\n      mstore\n        /* \"#utility.yul\":18998:19002   */\n      0x24\n        /* \"#utility.yul\":18995:18996   */\n      0x00\n        /* \"#utility.yul\":18988:19003   */\n      revert\n        /* \"#utility.yul\":19015:19195   */\n    tag_144:\n        /* \"#utility.yul\":19063:19140   */\n      0x4e487b7100000000000000000000000000000000000000000000000000000000\n        /* \"#utility.yul\":19060:19061   */\n      0x00\n        /* \"#utility.yul\":19053:19141   */\n      mstore\n        /* \"#utility.yul\":19160:19164   */\n      0x31\n        /* \"#utility.yul\":19157:19158   */\n      0x04\n        /* \"#utility.yul\":19150:19165   */\n      mstore\n        /* \"#utility.yul\":19184:19188   */\n      0x24\n        /* \"#utility.yul\":19181:19182   */\n      0x00\n        /* \"#utility.yul\":19174:19189   */\n      revert\n        /* \"#utility.yul\":19201:19381   */\n    tag_117:\n        /* \"#utility.yul\":19249:19326   */\n      0x4e487b7100000000000000000000000000000000000000000000000000000000\n        /* \"#utility.yul\":19246:19247   */\n      0x00\n        /* \"#utility.yul\":19239:19327   */\n      mstore\n        /* \"#utility.yul\":19346:19350   */\n      0x32\n        /* \"#utility.yul\":19343:19344   */\n      0x04\n        /* \"#utility.yul\":19336:19351   */\n      mstore\n        /* \"#utility.yul\":19370:19374   */\n      0x24\n        /* \"#utility.yul\":19367:19368   */\n      0x00\n        /* \"#utility.yul\":19360:19375   */\n      revert\n        /* \"#utility.yul\":19387:19567   */\n    tag_593:\n        /* \"#utility.yul\":19435:19512   */\n      0x4e487b7100000000000000000000000000000000000000000000000000000000\n        /* \"#utility.yul\":19432:19433   */\n      0x00\n        /* \"#utility.yul\":19425:19513   */\n      mstore\n        /* \"#utility.yul\":19532:19536   */\n      0x41\n        /* \"#utility.yul\":19529:19530   */\n      0x04\n        /* \"#utility.yul\":19522:19537   */\n      mstore\n        /* \"#utility.yul\":19556:19560   */\n      0x24\n        /* \"#utility.yul\":19553:19554   */\n      0x00\n        /* \"#utility.yul\":19546:19561   */\n      revert\n        /* \"#utility.yul\":19573:19690   */\n    tag_431:\n        /* \"#utility.yul\":19682:19683   */\n      0x00\n        /* \"#utility.yul\":19679:19680   */\n      dup1\n        /* \"#utility.yul\":19672:19684   */\n      revert\n        /* \"#utility.yul\":19696:19813   */\n    tag_420:\n        /* \"#utility.yul\":19805:19806   */\n      0x00\n        /* \"#utility.yul\":19802:19803   */\n      dup1\n        /* \"#utility.yul\":19795:19807   */\n      revert\n        /* \"#utility.yul\":19819:19936   */\n    tag_459:\n        /* \"#utility.yul\":19928:19929   */\n      0x00\n        /* \"#utility.yul\":19925:19926   */\n      dup1\n        /* \"#utility.yul\":19918:19930   */\n      revert\n        /* \"#utility.yul\":19942:20059   */\n    tag_440:\n        /* \"#utility.yul\":20051:20052   */\n      0x00\n        /* \"#utility.yul\":20048:20049   */\n      dup1\n        /* \"#utility.yul\":20041:20053   */\n      revert\n        /* \"#utility.yul\":20065:20167   */\n    tag_498:\n        /* \"#utility.yul\":20106:20112   */\n      0x00\n        /* \"#utility.yul\":20157:20159   */\n      0x1f\n        /* \"#utility.yul\":20153:20160   */\n      not\n        /* \"#utility.yul\":20148:20150   */\n      0x1f\n        /* \"#utility.yul\":20141:20146   */\n      dup4\n        /* \"#utility.yul\":20137:20151   */\n      add\n        /* \"#utility.yul\":20133:20161   */\n      and\n        /* \"#utility.yul\":20123:20161   */\n      swap1\n      pop\n        /* \"#utility.yul\":20065:20167   */\n      swap2\n      swap1\n      pop\n      jump\t// out\n        /* \"#utility.yul\":20173:20400   */\n    tag_515:\n        /* \"#utility.yul\":20313:20347   */\n      0x536f6c6f2073652070756564652074656e657220756e20636f63686520706f72\n        /* \"#utility.yul\":20309:20310   */\n      0x00\n        /* \"#utility.yul\":20301:20307   */\n      dup3\n        /* \"#utility.yul\":20297:20311   */\n      add\n        /* \"#utility.yul\":20290:20348   */\n      mstore\n        /* \"#utility.yul\":20382:20392   */\n      0x20706572736f6e61000000000000000000000000000000000000000000000000\n        /* \"#utility.yul\":20377:20379   */\n      0x20\n        /* \"#utility.yul\":20369:20375   */\n      dup3\n        /* \"#utility.yul\":20365:20380   */\n      add\n        /* \"#utility.yul\":20358:20393   */\n      mstore\n        /* \"#utility.yul\":20173:20400   */\n      pop\n      jump\t// out\n        /* \"#utility.yul\":20406:20631   */\n    tag_520:\n        /* \"#utility.yul\":20546:20580   */\n      0x4f776e61626c653a206e6577206f776e657220697320746865207a65726f2061\n        /* \"#utility.yul\":20542:20543   */\n      0x00\n        /* \"#utility.yul\":20534:20540   */\n      dup3\n        /* \"#utility.yul\":20530:20544   */\n      add\n        /* \"#utility.yul\":20523:20581   */\n      mstore\n        /* \"#utility.yul\":20615:20623   */\n      0x6464726573730000000000000000000000000000000000000000000000000000\n        /* \"#utility.yul\":20610:20612   */\n      0x20\n        /* \"#utility.yul\":20602:20608   */\n      dup3\n        /* \"#utility.yul\":20598:20613   */\n      add\n        /* \"#utility.yul\":20591:20624   */\n      mstore\n        /* \"#utility.yul\":20406:20631   */\n      pop\n      jump\t// out\n        /* \"#utility.yul\":20637:20874   */\n    tag_525:\n        /* \"#utility.yul\":20777:20811   */\n      0x4e6f2068617920636f6368657320737566696369656e74657320706172612069\n        /* \"#utility.yul\":20773:20774   */\n      0x00\n        /* \"#utility.yul\":20765:20771   */\n      dup3\n        /* \"#utility.yul\":20761:20775   */\n      add\n        /* \"#utility.yul\":20754:20812   */\n      mstore\n        /* \"#utility.yul\":20846:20866   */\n      0x6e696369617220756e6120636172726572610000000000000000000000000000\n        /* \"#utility.yul\":20841:20843   */\n      0x20\n        /* \"#utility.yul\":20833:20839   */\n      dup3\n        /* \"#utility.yul\":20829:20844   */\n      add\n        /* \"#utility.yul\":20822:20867   */\n      mstore\n        /* \"#utility.yul\":20637:20874   */\n      pop\n      jump\t// out\n        /* \"#utility.yul\":20880:21062   */\n    tag_530:\n        /* \"#utility.yul\":21020:21054   */\n      0x4f776e61626c653a2063616c6c6572206973206e6f7420746865206f776e6572\n        /* \"#utility.yul\":21016:21017   */\n      0x00\n        /* \"#utility.yul\":21008:21014   */\n      dup3\n        /* \"#utility.yul\":21004:21018   */\n      add\n        /* \"#utility.yul\":20997:21055   */\n      mstore\n        /* \"#utility.yul\":20880:21062   */\n      pop\n      jump\t// out\n        /* \"#utility.yul\":21068:21239   */\n    tag_535:\n        /* \"#utility.yul\":21208:21231   */\n      0x456c20636f6368652067616e61646f722065733a200000000000000000000000\n        /* \"#utility.yul\":21204:21205   */\n      0x00\n        /* \"#utility.yul\":21196:21202   */\n      dup3\n        /* \"#utility.yul\":21192:21206   */\n      add\n        /* \"#utility.yul\":21185:21232   */\n      mstore\n        /* \"#utility.yul\":21068:21239   */\n      pop\n      jump\t// out\n        /* \"#utility.yul\":21245:21367   */\n    tag_426:\n        /* \"#utility.yul\":21318:21342   */\n      tag_666\n        /* \"#utility.yul\":21336:21341   */\n      dup2\n        /* \"#utility.yul\":21318:21342   */\n      tag_488\n      jump\t// in\n    tag_666:\n        /* \"#utility.yul\":21311:21316   */\n      dup2\n        /* \"#utility.yul\":21308:21343   */\n      eq\n        /* \"#utility.yul\":21298:21361   */\n      tag_667\n      jumpi\n        /* \"#utility.yul\":21357:21358   */\n      0x00\n        /* \"#utility.yul\":21354:21355   */\n      dup1\n        /* \"#utility.yul\":21347:21359   */\n      revert\n        /* \"#utility.yul\":21298:21361   */\n    tag_667:\n        /* \"#utility.yul\":21245:21367   */\n      pop\n      jump\t// out\n        /* \"#utility.yul\":21373:21495   */\n    tag_436:\n        /* \"#utility.yul\":21446:21470   */\n      tag_669\n        /* \"#utility.yul\":21464:21469   */\n      dup2\n        /* \"#utility.yul\":21446:21470   */\n      tag_539\n      jump\t// in\n    tag_669:\n        /* \"#utility.yul\":21439:21444   */\n      dup2\n        /* \"#utility.yul\":21436:21471   */\n      eq\n        /* \"#utility.yul\":21426:21489   */\n      tag_670\n      jumpi\n        /* \"#utility.yul\":21485:21486   */\n      0x00\n        /* \"#utility.yul\":21482:21483   */\n      dup1\n        /* \"#utility.yul\":21475:21487   */\n      revert\n        /* \"#utility.yul\":21426:21489   */\n    tag_670:\n        /* \"#utility.yul\":21373:21495   */\n      pop\n      jump\t// out\n\n    auxdata: 0xa264697066735822122081fc01801313f3da0c1fbbcb824d6da3b231a9bf4f18bcfa939d4a7ccb369d3d64736f6c63430008070033\n}\n",
				"bytecode": {
					"linkReferences": {},
					"object": "608060405260006001556000600255603c600355670de0b6b3a7640000600455671bc16d674ec800006005553480156200003857600080fd5b50620000596200004d6200005f60201b60201c565b6200006760201b60201c565b6200012b565b600033905090565b60008060009054906101000a900473ffffffffffffffffffffffffffffffffffffffff169050816000806101000a81548173ffffffffffffffffffffffffffffffffffffffff021916908373ffffffffffffffffffffffffffffffffffffffff1602179055508173ffffffffffffffffffffffffffffffffffffffff168173ffffffffffffffffffffffffffffffffffffffff167f8be0079c531659141344cd1fd0a4f28419497f9722a3daafe3b4186f6b6457e060405160405180910390a35050565b612f01806200013b6000396000f3fe6080604052600436106101095760003560e01c806370a0823111610095578063b2bdfa7b11610064578063b2bdfa7b14610372578063d735573d1461039d578063e172fca8146103e1578063f2fde38b1461040a578063ffe20b641461043357610109565b806370a08231146102b6578063715018a6146102f3578063858b05541461030a5780638da5cb5b1461034757610109565b806323b872dd116100dc57806323b872dd146101c05780632458c544146101dc5780636352211e146102195780636a7d1816146102565780636b6f04941461028657610109565b8063049a5f651461010e578063095ea7b31461013e57806317bde7a91461015a5780631c6743e414610183575b600080fd5b610128600480360381019061012391906123ce565b61045c565b6040516101359190612804565b60405180910390f35b61015860048036038101906101539190612459565b6105bd565b005b34801561016657600080fd5b50610181600480360381019061017c919061230e565b6106db565b005b34801561018f57600080fd5b506101aa60048036038101906101a5919061230e565b61082d565b6040516101b79190612927565b60405180910390f35b6101da60048036038101906101d5919061237b565b610845565b005b3480156101e857600080fd5b5061020360048036038101906101fe9190612499565b610929565b6040516102109190612927565b60405180910390f35b34801561022557600080fd5b50610240600480360381019061023b9190612540565b610c0b565b60405161024d9190612756565b60405180910390f35b610270600480360381019061026b919061230e565b610c48565b60405161027d9190612804565b60405180910390f35b6102a0600480360381019061029b9190612540565b610d9d565b6040516102ad9190612804565b60405180910390f35b3480156102c257600080fd5b506102dd60048036038101906102d8919061230e565b6116d8565b6040516102ea9190612927565b60405180910390f35b3480156102ff57600080fd5b50610308611721565b005b34801561031657600080fd5b50610331600480360381019061032c9190612540565b6117a9565b60405161033e9190612756565b60405180910390f35b34801561035357600080fd5b5061035c6117dc565b6040516103699190612756565b60405180910390f35b34801561037e57600080fd5b50610387611805565b6040516103949190612756565b60405180910390f35b3480156103a957600080fd5b506103c460048036038101906103bf9190612540565b611829565b6040516103d8989796959493929190612771565b60405180910390f35b3480156103ed57600080fd5b506104086004803603810190610403919061230e565b611a49565b005b34801561041657600080fd5b50610431600480360381019061042c919061230e565b611bf0565b005b34801561043f57600080fd5b5061045a6004803603810190610455919061233b565b611ce8565b005b60608373ffffffffffffffffffffffffffffffffffffffff163373ffffffffffffffffffffffffffffffffffffffff161461049657600080fd5b60055434146104a457600080fd5b60005b6006805490508110156105b5573373ffffffffffffffffffffffffffffffffffffffff16600682815481106104df576104de612cdb565b5b906000526020600020906008020160000160009054906101000a900473ffffffffffffffffffffffffffffffffffffffff1673ffffffffffffffffffffffffffffffffffffffff1614156105a257836006828154811061054257610541612cdb565b5b90600052602060002090600802016001019080519060200190610566929190612191565b50826006828154811061057c5761057b612cdb565b5b906000526020600020906008020160020190805190602001906105a0929190612191565b505b80806105ad90612b6e565b9150506104a7565b509392505050565b806007600082815260200190815260200160002060009054906101000a900473ffffffffffffffffffffffffffffffffffffffff1673ffffffffffffffffffffffffffffffffffffffff163373ffffffffffffffffffffffffffffffffffffffff161461062957600080fd5b826009600084815260200190815260200160002060006101000a81548173ffffffffffffffffffffffffffffffffffffffff021916908373ffffffffffffffffffffffffffffffffffffffff160217905550818373ffffffffffffffffffffffffffffffffffffffff163373ffffffffffffffffffffffffffffffffffffffff167f8c5be1e5ebec7d5bd14f71427d1e84f3dd0314c0f7b2291e5b200ac8c7c3b92560405160405180910390a4505050565b60005b600680549050811015610829578173ffffffffffffffffffffffffffffffffffffffff166006828154811061071657610715612cdb565b5b906000526020600020906008020160000160009054906101000a900473ffffffffffffffffffffffffffffffffffffffff1673ffffffffffffffffffffffffffffffffffffffff16141561081657600680548061077657610775612cac565b5b6001900381819060005260206000209060080201600080820160006101000a81549073ffffffffffffffffffffffffffffffffffffffff02191690556001820160006107c29190612217565b6002820160006107d29190612217565b6003820160006107e29190612217565b6004820160009055600582016000905560068201600090556007820160006101000a81549063ffffffff0219169055505090555b808061082190612b6e565b9150506106de565b5050565b60086020528060005260406000206000915090505481565b3373ffffffffffffffffffffffffffffffffffffffff166007600083815260200190815260200160002060009054906101000a900473ffffffffffffffffffffffffffffffffffffffff1673ffffffffffffffffffffffffffffffffffffffff16148061091057503373ffffffffffffffffffffffffffffffffffffffff166009600083815260200190815260200160002060009054906101000a900473ffffffffffffffffffffffffffffffffffffffff1673ffffffffffffffffffffffffffffffffffffffff16145b61091957600080fd5b610924838383611ef0565b505050565b60006001600860003373ffffffffffffffffffffffffffffffffffffffff1673ffffffffffffffffffffffffffffffffffffffff16815260200190815260200160002054106109ad576040517f08c379a00000000000000000000000000000000000000000000000000000000081526004016109a490612887565b60405180910390fd5b60066040518061010001604052803373ffffffffffffffffffffffffffffffffffffffff168152602001868152602001858152602001848152602001600081526020016000815260200160035442610a0591906129c9565b63ffffffff168152602001600163ffffffff16815250908060018154018082558091505060019003906000526020600020906008020160009091909190915060008201518160000160006101000a81548173ffffffffffffffffffffffffffffffffffffffff021916908373ffffffffffffffffffffffffffffffffffffffff1602179055506020820151816001019080519060200190610aa7929190612191565b506040820151816002019080519060200190610ac4929190612191565b506060820151816003019080519060200190610ae1929190612191565b506080820151816004015560a0820151816005015560c0820151816006015560e08201518160070160006101000a81548163ffffffff021916908363ffffffff160217905550505060006006805490509050336007600083815260200190815260200160002060006101000a81548173ffffffffffffffffffffffffffffffffffffffff021916908373ffffffffffffffffffffffffffffffffffffffff160217905550600860003373ffffffffffffffffffffffffffffffffffffffff1673ffffffffffffffffffffffffffffffffffffffff1681526020019081526020016000206000815480929190610bd590612b6e565b919050555060026000815480929190610bed90612b6e565b91905055506001600254610c019190612a1f565b9150509392505050565b60006007600083815260200190815260200160002060009054906101000a900473ffffffffffffffffffffffffffffffffffffffff169050919050565b60606004543414610c5857600080fd5b60005b600680549050811015610d96578273ffffffffffffffffffffffffffffffffffffffff1660068281548110610c9357610c92612cdb565b5b906000526020600020906008020160000160009054906101000a900473ffffffffffffffffffffffffffffffffffffffff1673ffffffffffffffffffffffffffffffffffffffff161415610d835760068181548110610cf557610cf4612cdb565b5b9060005260206000209060080201600701600081819054906101000a900463ffffffff1680929190610d2690612bb7565b91906101000a81548163ffffffff021916908363ffffffff160217905550506040518060400160405280601281526020017f48612073756269646f206465206e6976656c0000000000000000000000000000815250915050610d98565b8080610d8e90612b6e565b915050610c5b565b505b919050565b6060600160068054905011610de6577f6158fc8f21c8cc73ddf920956cc75d0e8a48b4fc85817a0ba89eb3b6d2a75441604051610dd9906128c7565b60405180910390a16116d2565b813414610df257600080fd5b60016000815480929190610e0590612b6e565b9190505550600060068054905042600680549050600154604051602001610e2e93929190612719565b6040516020818303038152906040528051906020012060001c610e519190612bee565b905060006007600083815260200190815260200160002060009054906101000a900473ffffffffffffffffffffffffffffffffffffffff16905060016000815480929190610e9e90612b6e565b91905055506000606490506000814283600154604051602001610ec393929190612719565b6040516020818303038152906040528051906020012060001c610ee69190612bee565b905060005b6006805490508110156116cc5760068181548110610f0c57610f0b612cdb565b5b906000526020600020906008020160000160009054906101000a900473ffffffffffffffffffffffffffffffffffffffff1673ffffffffffffffffffffffffffffffffffffffff163373ffffffffffffffffffffffffffffffffffffffff1614156116b957610f9b60068281548110610f8857610f87612cdb565b5b906000526020600020906008020161204c565b610fa457600080fd5b60068181548110610fb857610fb7612cdb565b5b90600052602060002090600802016005016000815480929190610fda90612b6e565b919050555060068581548110610ff357610ff2612cdb565b5b9060005260206000209060080201600501600081548092919061101590612b6e565b91905055506110446006828154811061103157611030612cdb565b5b906000526020600020906008020161205d565b6006818154811061105857611057612cdb565b5b906000526020600020906008020160070160009054906101000a900463ffffffff1663ffffffff166006868154811061109457611093612cdb565b5b906000526020600020906008020160070160009054906101000a900463ffffffff1663ffffffff16101561129557603c82116111b3576110d261207c565b600681815481106110e6576110e5612cdb565b5b9060005260206000209060080201600401600081548092919061110890612b6e565b91905055506006818154811061112157611120612cdb565b5b9060005260206000209060080201600701600081819054906101000a900463ffffffff168092919061115290612bb7565b91906101000a81548163ffffffff021916908363ffffffff160217905550506040518060400160405280600a81526020017f4861732067616e61646f00000000000000000000000000000000000000000000815250955050505050506116d3565b7f6158fc8f21c8cc73ddf920956cc75d0e8a48b4fc85817a0ba89eb3b6d2a754416040516111e090612907565b60405180910390a13073ffffffffffffffffffffffffffffffffffffffff1663e172fca8856040518263ffffffff1660e01b81526004016112219190612756565b600060405180830381600087803b15801561123b57600080fd5b505af115801561124f573d6000803e3d6000fd5b505050506040518060400160405280600b81526020017f486173207065726469646f000000000000000000000000000000000000000000815250955050505050506116d3565b600681815481106112a9576112a8612cdb565b5b906000526020600020906008020160070160009054906101000a900463ffffffff1663ffffffff16600686815481106112e5576112e4612cdb565b5b906000526020600020906008020160070160009054906101000a900463ffffffff1663ffffffff1614156114e657603282116114045761132361207c565b6006818154811061133757611336612cdb565b5b9060005260206000209060080201600401600081548092919061135990612b6e565b91905055506006818154811061137257611371612cdb565b5b9060005260206000209060080201600701600081819054906101000a900463ffffffff16809291906113a390612bb7565b91906101000a81548163ffffffff021916908363ffffffff160217905550506040518060400160405280600a81526020017f4861732067616e61646f00000000000000000000000000000000000000000000815250955050505050506116d3565b7f6158fc8f21c8cc73ddf920956cc75d0e8a48b4fc85817a0ba89eb3b6d2a7544160405161143190612907565b60405180910390a13073ffffffffffffffffffffffffffffffffffffffff1663e172fca8856040518263ffffffff1660e01b81526004016114729190612756565b600060405180830381600087803b15801561148c57600080fd5b505af11580156114a0573d6000803e3d6000fd5b505050506040518060400160405280600b81526020017f486173207065726469646f000000000000000000000000000000000000000000815250955050505050506116d3565b602882116115d7576114f661207c565b6006818154811061150a57611509612cdb565b5b9060005260206000209060080201600401600081548092919061152c90612b6e565b91905055506006818154811061154557611544612cdb565b5b9060005260206000209060080201600701600081819054906101000a900463ffffffff168092919061157690612bb7565b91906101000a81548163ffffffff021916908363ffffffff160217905550506040518060400160405280600a81526020017f4861732067616e61646f00000000000000000000000000000000000000000000815250955050505050506116d3565b7f6158fc8f21c8cc73ddf920956cc75d0e8a48b4fc85817a0ba89eb3b6d2a7544160405161160490612907565b60405180910390a13073ffffffffffffffffffffffffffffffffffffffff1663e172fca8856040518263ffffffff1660e01b81526004016116459190612756565b600060405180830381600087803b15801561165f57600080fd5b505af1158015611673573d6000803e3d6000fd5b505050506040518060400160405280600b81526020017f486173207065726469646f000000000000000000000000000000000000000000815250955050505050506116d3565b80806116c490612b6e565b915050610eeb565b50505050505b5b919050565b6000600860008373ffffffffffffffffffffffffffffffffffffffff1673ffffffffffffffffffffffffffffffffffffffff168152602001908152602001600020549050919050565b6117296120c5565b73ffffffffffffffffffffffffffffffffffffffff166117476117dc565b73ffffffffffffffffffffffffffffffffffffffff161461179d576040517f08c379a0000000000000000000000000000000000000000000000000000000008152600401611794906128e7565b60405180910390fd5b6117a760006120cd565b565b60076020528060005260406000206000915054906101000a900473ffffffffffffffffffffffffffffffffffffffff1681565b60008060009054906101000a900473ffffffffffffffffffffffffffffffffffffffff16905090565b60008054906101000a900473ffffffffffffffffffffffffffffffffffffffff1681565b6006818154811061183957600080fd5b90600052602060002090600802016000915090508060000160009054906101000a900473ffffffffffffffffffffffffffffffffffffffff169080600101805461188290612b0b565b80601f01602080910402602001604051908101604052809291908181526020018280546118ae90612b0b565b80156118fb5780601f106118d0576101008083540402835291602001916118fb565b820191906000526020600020905b8154815290600101906020018083116118de57829003601f168201915b50505050509080600201805461191090612b0b565b80601f016020809104026020016040519081016040528092919081815260200182805461193c90612b0b565b80156119895780601f1061195e57610100808354040283529160200191611989565b820191906000526020600020905b81548152906001019060200180831161196c57829003601f168201915b50505050509080600301805461199e90612b0b565b80601f01602080910402602001604051908101604052809291908181526020018280546119ca90612b0b565b8015611a175780601f106119ec57610100808354040283529160200191611a17565b820191906000526020600020905b8154815290600101906020018083116119fa57829003601f168201915b5050505050908060040154908060050154908060060154908060070160009054906101000a900463ffffffff16905088565b60005b600680549050811015611bec578173ffffffffffffffffffffffffffffffffffffffff1660068281548110611a8457611a83612cdb565b5b906000526020600020906008020160000160009054906101000a900473ffffffffffffffffffffffffffffffffffffffff1673ffffffffffffffffffffffffffffffffffffffff161415611bd9577f20fdb8ab571bfbab79104bea84f9c31cb79c5ae45b5f515c1d6c8393e002835060068281548110611b0757611b06612cdb565b5b906000526020600020906008020160020160068381548110611b2c57611b2b612cdb565b5b906000526020600020906008020160010160068481548110611b5157611b50612cdb565b5b906000526020600020906008020160070160009054906101000a900463ffffffff1660068581548110611b8757611b86612cdb565b5b90600052602060002090600802016004015460068681548110611bad57611bac612cdb565b5b906000526020600020906008020160050154604051611bd0959493929190612826565b60405180910390a15b8080611be490612b6e565b915050611a4c565b5050565b611bf86120c5565b73ffffffffffffffffffffffffffffffffffffffff16611c166117dc565b73ffffffffffffffffffffffffffffffffffffffff1614611c6c576040517f08c379a0000000000000000000000000000000000000000000000000000000008152600401611c63906128e7565b60405180910390fd5b600073ffffffffffffffffffffffffffffffffffffffff168173ffffffffffffffffffffffffffffffffffffffff161415611cdc576040517f08c379a0000000000000000000000000000000000000000000000000000000008152600401611cd3906128a7565b60405180910390fd5b611ce5816120cd565b50565b60005b600680549050811015611eeb578273ffffffffffffffffffffffffffffffffffffffff1660068281548110611d2357611d22612cdb565b5b906000526020600020906008020160000160009054906101000a900473ffffffffffffffffffffffffffffffffffffffff1673ffffffffffffffffffffffffffffffffffffffff161415611ed857600060068281548110611d8757611d86612cdb565b5b90600052602060002090600802016001018054611da390612b0b565b80601f0160208091040260200160405190810160405280929190818152602001828054611dcf90612b0b565b8015611e1c5780601f10611df157610100808354040283529160200191611e1c565b820191906000526020600020905b815481529060010190602001808311611dff57829003601f168201915b50505050509050600060068381548110611e3957611e38612cdb565b5b90600052602060002090600802016002018054611e5590612b0b565b80601f0160208091040260200160405190810160405280929190818152602001828054611e8190612b0b565b8015611ece5780601f10611ea357610100808354040283529160200191611ece565b820191906000526020600020905b815481529060010190602001808311611eb157829003601f168201915b5050505050905050505b8080611ee390612b6e565b915050611ceb565b505050565b600860008373ffffffffffffffffffffffffffffffffffffffff1673ffffffffffffffffffffffffffffffffffffffff1681526020019081526020016000206000815480929190611f4090612b6e565b9190505550600860008473ffffffffffffffffffffffffffffffffffffffff1673ffffffffffffffffffffffffffffffffffffffff1681526020019081526020016000206000815480929190611f9590612ae1565b9190505550816007600083815260200190815260200160002060006101000a81548173ffffffffffffffffffffffffffffffffffffffff021916908373ffffffffffffffffffffffffffffffffffffffff160217905550808273ffffffffffffffffffffffffffffffffffffffff168473ffffffffffffffffffffffffffffffffffffffff167fddf252ad1be2c89b69c2b068fc378daa952ba7f163c4a11628f55a4df523b3ef60405160405180910390a4505050565b600042826006015411159050919050565b6003544261206b91906129c9565b63ffffffff16816006018190555050565b3373ffffffffffffffffffffffffffffffffffffffff166108fc479081150290604051600060405180830381858888f193505050501580156120c2573d6000803e3d6000fd5b50565b600033905090565b60008060009054906101000a900473ffffffffffffffffffffffffffffffffffffffff169050816000806101000a81548173ffffffffffffffffffffffffffffffffffffffff021916908373ffffffffffffffffffffffffffffffffffffffff1602179055508173ffffffffffffffffffffffffffffffffffffffff168173ffffffffffffffffffffffffffffffffffffffff167f8be0079c531659141344cd1fd0a4f28419497f9722a3daafe3b4186f6b6457e060405160405180910390a35050565b82805461219d90612b0b565b90600052602060002090601f0160209004810192826121bf5760008555612206565b82601f106121d857805160ff1916838001178555612206565b82800160010185558215612206579182015b828111156122055782518255916020019190600101906121ea565b5b5090506122139190612257565b5090565b50805461222390612b0b565b6000825580601f106122355750612254565b601f0160209004906000526020600020908101906122539190612257565b5b50565b5b80821115612270576000816000905550600101612258565b5090565b600061228761228284612967565b612942565b9050828152602081018484840111156122a3576122a2612d3e565b5b6122ae848285612a9f565b509392505050565b6000813590506122c581612e9d565b92915050565b600082601f8301126122e0576122df612d39565b5b81356122f0848260208601612274565b91505092915050565b60008135905061230881612eb4565b92915050565b60006020828403121561232457612323612d48565b5b6000612332848285016122b6565b91505092915050565b6000806040838503121561235257612351612d48565b5b6000612360858286016122b6565b9250506020612371858286016122b6565b9150509250929050565b60008060006060848603121561239457612393612d48565b5b60006123a2868287016122b6565b93505060206123b3868287016122b6565b92505060406123c4868287016122f9565b9150509250925092565b6000806000606084860312156123e7576123e6612d48565b5b60006123f5868287016122b6565b935050602084013567ffffffffffffffff81111561241657612415612d43565b5b612422868287016122cb565b925050604084013567ffffffffffffffff81111561244357612442612d43565b5b61244f868287016122cb565b9150509250925092565b600080604083850312156124705761246f612d48565b5b600061247e858286016122b6565b925050602061248f858286016122f9565b9150509250929050565b6000806000606084860312156124b2576124b1612d48565b5b600084013567ffffffffffffffff8111156124d0576124cf612d43565b5b6124dc868287016122cb565b935050602084013567ffffffffffffffff8111156124fd576124fc612d43565b5b612509868287016122cb565b925050604084013567ffffffffffffffff81111561252a57612529612d43565b5b612536868287016122cb565b9150509250925092565b60006020828403121561255657612555612d48565b5b6000612564848285016122f9565b91505092915050565b61257681612a53565b82525050565b6000612587826129ad565b61259181856129b8565b93506125a1818560208601612aae565b6125aa81612d4d565b840191505092915050565b600081546125c281612b0b565b6125cc81866129b8565b945060018216600081146125e757600181146125f95761262c565b60ff198316865260208601935061262c565b61260285612998565b60005b8381101561262457815481890152600182019150602081019050612605565b808801955050505b50505092915050565b60006126426028836129b8565b915061264d82612d5e565b604082019050919050565b60006126656026836129b8565b915061267082612dad565b604082019050919050565b60006126886032836129b8565b915061269382612dfc565b604082019050919050565b60006126ab6020836129b8565b91506126b682612e4b565b602082019050919050565b60006126ce6015836129b8565b91506126d982612e74565b602082019050919050565b6126ed81612a85565b82525050565b6127046126ff82612a85565b612be4565b82525050565b61271381612a8f565b82525050565b600061272582866126f3565b60208201915061273582856126f3565b60208201915061274582846126f3565b602082019150819050949350505050565b600060208201905061276b600083018461256d565b92915050565b600061010082019050612787600083018b61256d565b8181036020830152612799818a61257c565b905081810360408301526127ad818961257c565b905081810360608301526127c1818861257c565b90506127d060808301876126e4565b6127dd60a08301866126e4565b6127ea60c08301856126e4565b6127f760e083018461270a565b9998505050505050505050565b6000602082019050818103600083015261281e818461257c565b905092915050565b600060a082019050818103600083015261284081886125b5565b9050818103602083015261285481876125b5565b9050612863604083018661270a565b61287060608301856126e4565b61287d60808301846126e4565b9695505050505050565b600060208201905081810360008301526128a081612635565b9050919050565b600060208201905081810360008301526128c081612658565b9050919050565b600060208201905081810360008301526128e08161267b565b9050919050565b600060208201905081810360008301526129008161269e565b9050919050565b60006020820190508181036000830152612920816126c1565b9050919050565b600060208201905061293c60008301846126e4565b92915050565b600061294c61295d565b90506129588282612b3d565b919050565b6000604051905090565b600067ffffffffffffffff82111561298257612981612d0a565b5b61298b82612d4d565b9050602081019050919050565b60008190508160005260206000209050919050565b600081519050919050565b600082825260208201905092915050565b60006129d482612a85565b91506129df83612a85565b9250827fffffffffffffffffffffffffffffffffffffffffffffffffffffffffffffffff03821115612a1457612a13612c1f565b5b828201905092915050565b6000612a2a82612a85565b9150612a3583612a85565b925082821015612a4857612a47612c1f565b5b828203905092915050565b6000612a5e82612a65565b9050919050565b600073ffffffffffffffffffffffffffffffffffffffff82169050919050565b6000819050919050565b600063ffffffff82169050919050565b82818337600083830152505050565b60005b83811015612acc578082015181840152602081019050612ab1565b83811115612adb576000848401525b50505050565b6000612aec82612a85565b91506000821415612b0057612aff612c1f565b5b600182039050919050565b60006002820490506001821680612b2357607f821691505b60208210811415612b3757612b36612c7d565b5b50919050565b612b4682612d4d565b810181811067ffffffffffffffff82111715612b6557612b64612d0a565b5b80604052505050565b6000612b7982612a85565b91507fffffffffffffffffffffffffffffffffffffffffffffffffffffffffffffffff821415612bac57612bab612c1f565b5b600182019050919050565b6000612bc282612a8f565b915063ffffffff821415612bd957612bd8612c1f565b5b600182019050919050565b6000819050919050565b6000612bf982612a85565b9150612c0483612a85565b925082612c1457612c13612c4e565b5b828206905092915050565b7f4e487b7100000000000000000000000000000000000000000000000000000000600052601160045260246000fd5b7f4e487b7100000000000000000000000000000000000000000000000000000000600052601260045260246000fd5b7f4e487b7100000000000000000000000000000000000000000000000000000000600052602260045260246000fd5b7f4e487b7100000000000000000000000000000000000000000000000000000000600052603160045260246000fd5b7f4e487b7100000000000000000000000000000000000000000000000000000000600052603260045260246000fd5b7f4e487b7100000000000000000000000000000000000000000000000000000000600052604160045260246000fd5b600080fd5b600080fd5b600080fd5b600080fd5b6000601f19601f8301169050919050565b7f536f6c6f2073652070756564652074656e657220756e20636f63686520706f7260008201527f20706572736f6e61000000000000000000000000000000000000000000000000602082015250565b7f4f776e61626c653a206e6577206f776e657220697320746865207a65726f206160008201527f6464726573730000000000000000000000000000000000000000000000000000602082015250565b7f4e6f2068617920636f6368657320737566696369656e7465732070617261206960008201527f6e696369617220756e6120636172726572610000000000000000000000000000602082015250565b7f4f776e61626c653a2063616c6c6572206973206e6f7420746865206f776e6572600082015250565b7f456c20636f6368652067616e61646f722065733a200000000000000000000000600082015250565b612ea681612a53565b8114612eb157600080fd5b50565b612ebd81612a85565b8114612ec857600080fd5b5056fea264697066735822122081fc01801313f3da0c1fbbcb824d6da3b231a9bf4f18bcfa939d4a7ccb369d3d64736f6c63430008070033",
					"opcodes": "PUSH1 0x80 PUSH1 0x40 MSTORE PUSH1 0x0 PUSH1 0x1 SSTORE PUSH1 0x0 PUSH1 0x2 SSTORE PUSH1 0x3C PUSH1 0x3 SSTORE PUSH8 0xDE0B6B3A7640000 PUSH1 0x4 SSTORE PUSH8 0x1BC16D674EC80000 PUSH1 0x5 SSTORE CALLVALUE DUP1 ISZERO PUSH3 0x38 JUMPI PUSH1 0x0 DUP1 REVERT JUMPDEST POP PUSH3 0x59 PUSH3 0x4D PUSH3 0x5F PUSH1 0x20 SHL PUSH1 0x20 SHR JUMP JUMPDEST PUSH3 0x67 PUSH1 0x20 SHL PUSH1 0x20 SHR JUMP JUMPDEST PUSH3 0x12B JUMP JUMPDEST PUSH1 0x0 CALLER SWAP1 POP SWAP1 JUMP JUMPDEST PUSH1 0x0 DUP1 PUSH1 0x0 SWAP1 SLOAD SWAP1 PUSH2 0x100 EXP SWAP1 DIV PUSH20 0xFFFFFFFFFFFFFFFFFFFFFFFFFFFFFFFFFFFFFFFF AND SWAP1 POP DUP2 PUSH1 0x0 DUP1 PUSH2 0x100 EXP DUP2 SLOAD DUP2 PUSH20 0xFFFFFFFFFFFFFFFFFFFFFFFFFFFFFFFFFFFFFFFF MUL NOT AND SWAP1 DUP4 PUSH20 0xFFFFFFFFFFFFFFFFFFFFFFFFFFFFFFFFFFFFFFFF AND MUL OR SWAP1 SSTORE POP DUP2 PUSH20 0xFFFFFFFFFFFFFFFFFFFFFFFFFFFFFFFFFFFFFFFF AND DUP2 PUSH20 0xFFFFFFFFFFFFFFFFFFFFFFFFFFFFFFFFFFFFFFFF AND PUSH32 0x8BE0079C531659141344CD1FD0A4F28419497F9722A3DAAFE3B4186F6B6457E0 PUSH1 0x40 MLOAD PUSH1 0x40 MLOAD DUP1 SWAP2 SUB SWAP1 LOG3 POP POP JUMP JUMPDEST PUSH2 0x2F01 DUP1 PUSH3 0x13B PUSH1 0x0 CODECOPY PUSH1 0x0 RETURN INVALID PUSH1 0x80 PUSH1 0x40 MSTORE PUSH1 0x4 CALLDATASIZE LT PUSH2 0x109 JUMPI PUSH1 0x0 CALLDATALOAD PUSH1 0xE0 SHR DUP1 PUSH4 0x70A08231 GT PUSH2 0x95 JUMPI DUP1 PUSH4 0xB2BDFA7B GT PUSH2 0x64 JUMPI DUP1 PUSH4 0xB2BDFA7B EQ PUSH2 0x372 JUMPI DUP1 PUSH4 0xD735573D EQ PUSH2 0x39D JUMPI DUP1 PUSH4 0xE172FCA8 EQ PUSH2 0x3E1 JUMPI DUP1 PUSH4 0xF2FDE38B EQ PUSH2 0x40A JUMPI DUP1 PUSH4 0xFFE20B64 EQ PUSH2 0x433 JUMPI PUSH2 0x109 JUMP JUMPDEST DUP1 PUSH4 0x70A08231 EQ PUSH2 0x2B6 JUMPI DUP1 PUSH4 0x715018A6 EQ PUSH2 0x2F3 JUMPI DUP1 PUSH4 0x858B0554 EQ PUSH2 0x30A JUMPI DUP1 PUSH4 0x8DA5CB5B EQ PUSH2 0x347 JUMPI PUSH2 0x109 JUMP JUMPDEST DUP1 PUSH4 0x23B872DD GT PUSH2 0xDC JUMPI DUP1 PUSH4 0x23B872DD EQ PUSH2 0x1C0 JUMPI DUP1 PUSH4 0x2458C544 EQ PUSH2 0x1DC JUMPI DUP1 PUSH4 0x6352211E EQ PUSH2 0x219 JUMPI DUP1 PUSH4 0x6A7D1816 EQ PUSH2 0x256 JUMPI DUP1 PUSH4 0x6B6F0494 EQ PUSH2 0x286 JUMPI PUSH2 0x109 JUMP JUMPDEST DUP1 PUSH4 0x49A5F65 EQ PUSH2 0x10E JUMPI DUP1 PUSH4 0x95EA7B3 EQ PUSH2 0x13E JUMPI DUP1 PUSH4 0x17BDE7A9 EQ PUSH2 0x15A JUMPI DUP1 PUSH4 0x1C6743E4 EQ PUSH2 0x183 JUMPI JUMPDEST PUSH1 0x0 DUP1 REVERT JUMPDEST PUSH2 0x128 PUSH1 0x4 DUP1 CALLDATASIZE SUB DUP2 ADD SWAP1 PUSH2 0x123 SWAP2 SWAP1 PUSH2 0x23CE JUMP JUMPDEST PUSH2 0x45C JUMP JUMPDEST PUSH1 0x40 MLOAD PUSH2 0x135 SWAP2 SWAP1 PUSH2 0x2804 JUMP JUMPDEST PUSH1 0x40 MLOAD DUP1 SWAP2 SUB SWAP1 RETURN JUMPDEST PUSH2 0x158 PUSH1 0x4 DUP1 CALLDATASIZE SUB DUP2 ADD SWAP1 PUSH2 0x153 SWAP2 SWAP1 PUSH2 0x2459 JUMP JUMPDEST PUSH2 0x5BD JUMP JUMPDEST STOP JUMPDEST CALLVALUE DUP1 ISZERO PUSH2 0x166 JUMPI PUSH1 0x0 DUP1 REVERT JUMPDEST POP PUSH2 0x181 PUSH1 0x4 DUP1 CALLDATASIZE SUB DUP2 ADD SWAP1 PUSH2 0x17C SWAP2 SWAP1 PUSH2 0x230E JUMP JUMPDEST PUSH2 0x6DB JUMP JUMPDEST STOP JUMPDEST CALLVALUE DUP1 ISZERO PUSH2 0x18F JUMPI PUSH1 0x0 DUP1 REVERT JUMPDEST POP PUSH2 0x1AA PUSH1 0x4 DUP1 CALLDATASIZE SUB DUP2 ADD SWAP1 PUSH2 0x1A5 SWAP2 SWAP1 PUSH2 0x230E JUMP JUMPDEST PUSH2 0x82D JUMP JUMPDEST PUSH1 0x40 MLOAD PUSH2 0x1B7 SWAP2 SWAP1 PUSH2 0x2927 JUMP JUMPDEST PUSH1 0x40 MLOAD DUP1 SWAP2 SUB SWAP1 RETURN JUMPDEST PUSH2 0x1DA PUSH1 0x4 DUP1 CALLDATASIZE SUB DUP2 ADD SWAP1 PUSH2 0x1D5 SWAP2 SWAP1 PUSH2 0x237B JUMP JUMPDEST PUSH2 0x845 JUMP JUMPDEST STOP JUMPDEST CALLVALUE DUP1 ISZERO PUSH2 0x1E8 JUMPI PUSH1 0x0 DUP1 REVERT JUMPDEST POP PUSH2 0x203 PUSH1 0x4 DUP1 CALLDATASIZE SUB DUP2 ADD SWAP1 PUSH2 0x1FE SWAP2 SWAP1 PUSH2 0x2499 JUMP JUMPDEST PUSH2 0x929 JUMP JUMPDEST PUSH1 0x40 MLOAD PUSH2 0x210 SWAP2 SWAP1 PUSH2 0x2927 JUMP JUMPDEST PUSH1 0x40 MLOAD DUP1 SWAP2 SUB SWAP1 RETURN JUMPDEST CALLVALUE DUP1 ISZERO PUSH2 0x225 JUMPI PUSH1 0x0 DUP1 REVERT JUMPDEST POP PUSH2 0x240 PUSH1 0x4 DUP1 CALLDATASIZE SUB DUP2 ADD SWAP1 PUSH2 0x23B SWAP2 SWAP1 PUSH2 0x2540 JUMP JUMPDEST PUSH2 0xC0B JUMP JUMPDEST PUSH1 0x40 MLOAD PUSH2 0x24D SWAP2 SWAP1 PUSH2 0x2756 JUMP JUMPDEST PUSH1 0x40 MLOAD DUP1 SWAP2 SUB SWAP1 RETURN JUMPDEST PUSH2 0x270 PUSH1 0x4 DUP1 CALLDATASIZE SUB DUP2 ADD SWAP1 PUSH2 0x26B SWAP2 SWAP1 PUSH2 0x230E JUMP JUMPDEST PUSH2 0xC48 JUMP JUMPDEST PUSH1 0x40 MLOAD PUSH2 0x27D SWAP2 SWAP1 PUSH2 0x2804 JUMP JUMPDEST PUSH1 0x40 MLOAD DUP1 SWAP2 SUB SWAP1 RETURN JUMPDEST PUSH2 0x2A0 PUSH1 0x4 DUP1 CALLDATASIZE SUB DUP2 ADD SWAP1 PUSH2 0x29B SWAP2 SWAP1 PUSH2 0x2540 JUMP JUMPDEST PUSH2 0xD9D JUMP JUMPDEST PUSH1 0x40 MLOAD PUSH2 0x2AD SWAP2 SWAP1 PUSH2 0x2804 JUMP JUMPDEST PUSH1 0x40 MLOAD DUP1 SWAP2 SUB SWAP1 RETURN JUMPDEST CALLVALUE DUP1 ISZERO PUSH2 0x2C2 JUMPI PUSH1 0x0 DUP1 REVERT JUMPDEST POP PUSH2 0x2DD PUSH1 0x4 DUP1 CALLDATASIZE SUB DUP2 ADD SWAP1 PUSH2 0x2D8 SWAP2 SWAP1 PUSH2 0x230E JUMP JUMPDEST PUSH2 0x16D8 JUMP JUMPDEST PUSH1 0x40 MLOAD PUSH2 0x2EA SWAP2 SWAP1 PUSH2 0x2927 JUMP JUMPDEST PUSH1 0x40 MLOAD DUP1 SWAP2 SUB SWAP1 RETURN JUMPDEST CALLVALUE DUP1 ISZERO PUSH2 0x2FF JUMPI PUSH1 0x0 DUP1 REVERT JUMPDEST POP PUSH2 0x308 PUSH2 0x1721 JUMP JUMPDEST STOP JUMPDEST CALLVALUE DUP1 ISZERO PUSH2 0x316 JUMPI PUSH1 0x0 DUP1 REVERT JUMPDEST POP PUSH2 0x331 PUSH1 0x4 DUP1 CALLDATASIZE SUB DUP2 ADD SWAP1 PUSH2 0x32C SWAP2 SWAP1 PUSH2 0x2540 JUMP JUMPDEST PUSH2 0x17A9 JUMP JUMPDEST PUSH1 0x40 MLOAD PUSH2 0x33E SWAP2 SWAP1 PUSH2 0x2756 JUMP JUMPDEST PUSH1 0x40 MLOAD DUP1 SWAP2 SUB SWAP1 RETURN JUMPDEST CALLVALUE DUP1 ISZERO PUSH2 0x353 JUMPI PUSH1 0x0 DUP1 REVERT JUMPDEST POP PUSH2 0x35C PUSH2 0x17DC JUMP JUMPDEST PUSH1 0x40 MLOAD PUSH2 0x369 SWAP2 SWAP1 PUSH2 0x2756 JUMP JUMPDEST PUSH1 0x40 MLOAD DUP1 SWAP2 SUB SWAP1 RETURN JUMPDEST CALLVALUE DUP1 ISZERO PUSH2 0x37E JUMPI PUSH1 0x0 DUP1 REVERT JUMPDEST POP PUSH2 0x387 PUSH2 0x1805 JUMP JUMPDEST PUSH1 0x40 MLOAD PUSH2 0x394 SWAP2 SWAP1 PUSH2 0x2756 JUMP JUMPDEST PUSH1 0x40 MLOAD DUP1 SWAP2 SUB SWAP1 RETURN JUMPDEST CALLVALUE DUP1 ISZERO PUSH2 0x3A9 JUMPI PUSH1 0x0 DUP1 REVERT JUMPDEST POP PUSH2 0x3C4 PUSH1 0x4 DUP1 CALLDATASIZE SUB DUP2 ADD SWAP1 PUSH2 0x3BF SWAP2 SWAP1 PUSH2 0x2540 JUMP JUMPDEST PUSH2 0x1829 JUMP JUMPDEST PUSH1 0x40 MLOAD PUSH2 0x3D8 SWAP9 SWAP8 SWAP7 SWAP6 SWAP5 SWAP4 SWAP3 SWAP2 SWAP1 PUSH2 0x2771 JUMP JUMPDEST PUSH1 0x40 MLOAD DUP1 SWAP2 SUB SWAP1 RETURN JUMPDEST CALLVALUE DUP1 ISZERO PUSH2 0x3ED JUMPI PUSH1 0x0 DUP1 REVERT JUMPDEST POP PUSH2 0x408 PUSH1 0x4 DUP1 CALLDATASIZE SUB DUP2 ADD SWAP1 PUSH2 0x403 SWAP2 SWAP1 PUSH2 0x230E JUMP JUMPDEST PUSH2 0x1A49 JUMP JUMPDEST STOP JUMPDEST CALLVALUE DUP1 ISZERO PUSH2 0x416 JUMPI PUSH1 0x0 DUP1 REVERT JUMPDEST POP PUSH2 0x431 PUSH1 0x4 DUP1 CALLDATASIZE SUB DUP2 ADD SWAP1 PUSH2 0x42C SWAP2 SWAP1 PUSH2 0x230E JUMP JUMPDEST PUSH2 0x1BF0 JUMP JUMPDEST STOP JUMPDEST CALLVALUE DUP1 ISZERO PUSH2 0x43F JUMPI PUSH1 0x0 DUP1 REVERT JUMPDEST POP PUSH2 0x45A PUSH1 0x4 DUP1 CALLDATASIZE SUB DUP2 ADD SWAP1 PUSH2 0x455 SWAP2 SWAP1 PUSH2 0x233B JUMP JUMPDEST PUSH2 0x1CE8 JUMP JUMPDEST STOP JUMPDEST PUSH1 0x60 DUP4 PUSH20 0xFFFFFFFFFFFFFFFFFFFFFFFFFFFFFFFFFFFFFFFF AND CALLER PUSH20 0xFFFFFFFFFFFFFFFFFFFFFFFFFFFFFFFFFFFFFFFF AND EQ PUSH2 0x496 JUMPI PUSH1 0x0 DUP1 REVERT JUMPDEST PUSH1 0x5 SLOAD CALLVALUE EQ PUSH2 0x4A4 JUMPI PUSH1 0x0 DUP1 REVERT JUMPDEST PUSH1 0x0 JUMPDEST PUSH1 0x6 DUP1 SLOAD SWAP1 POP DUP2 LT ISZERO PUSH2 0x5B5 JUMPI CALLER PUSH20 0xFFFFFFFFFFFFFFFFFFFFFFFFFFFFFFFFFFFFFFFF AND PUSH1 0x6 DUP3 DUP2 SLOAD DUP2 LT PUSH2 0x4DF JUMPI PUSH2 0x4DE PUSH2 0x2CDB JUMP JUMPDEST JUMPDEST SWAP1 PUSH1 0x0 MSTORE PUSH1 0x20 PUSH1 0x0 KECCAK256 SWAP1 PUSH1 0x8 MUL ADD PUSH1 0x0 ADD PUSH1 0x0 SWAP1 SLOAD SWAP1 PUSH2 0x100 EXP SWAP1 DIV PUSH20 0xFFFFFFFFFFFFFFFFFFFFFFFFFFFFFFFFFFFFFFFF AND PUSH20 0xFFFFFFFFFFFFFFFFFFFFFFFFFFFFFFFFFFFFFFFF AND EQ ISZERO PUSH2 0x5A2 JUMPI DUP4 PUSH1 0x6 DUP3 DUP2 SLOAD DUP2 LT PUSH2 0x542 JUMPI PUSH2 0x541 PUSH2 0x2CDB JUMP JUMPDEST JUMPDEST SWAP1 PUSH1 0x0 MSTORE PUSH1 0x20 PUSH1 0x0 KECCAK256 SWAP1 PUSH1 0x8 MUL ADD PUSH1 0x1 ADD SWAP1 DUP1 MLOAD SWAP1 PUSH1 0x20 ADD SWAP1 PUSH2 0x566 SWAP3 SWAP2 SWAP1 PUSH2 0x2191 JUMP JUMPDEST POP DUP3 PUSH1 0x6 DUP3 DUP2 SLOAD DUP2 LT PUSH2 0x57C JUMPI PUSH2 0x57B PUSH2 0x2CDB JUMP JUMPDEST JUMPDEST SWAP1 PUSH1 0x0 MSTORE PUSH1 0x20 PUSH1 0x0 KECCAK256 SWAP1 PUSH1 0x8 MUL ADD PUSH1 0x2 ADD SWAP1 DUP1 MLOAD SWAP1 PUSH1 0x20 ADD SWAP1 PUSH2 0x5A0 SWAP3 SWAP2 SWAP1 PUSH2 0x2191 JUMP JUMPDEST POP JUMPDEST DUP1 DUP1 PUSH2 0x5AD SWAP1 PUSH2 0x2B6E JUMP JUMPDEST SWAP2 POP POP PUSH2 0x4A7 JUMP JUMPDEST POP SWAP4 SWAP3 POP POP POP JUMP JUMPDEST DUP1 PUSH1 0x7 PUSH1 0x0 DUP3 DUP2 MSTORE PUSH1 0x20 ADD SWAP1 DUP2 MSTORE PUSH1 0x20 ADD PUSH1 0x0 KECCAK256 PUSH1 0x0 SWAP1 SLOAD SWAP1 PUSH2 0x100 EXP SWAP1 DIV PUSH20 0xFFFFFFFFFFFFFFFFFFFFFFFFFFFFFFFFFFFFFFFF AND PUSH20 0xFFFFFFFFFFFFFFFFFFFFFFFFFFFFFFFFFFFFFFFF AND CALLER PUSH20 0xFFFFFFFFFFFFFFFFFFFFFFFFFFFFFFFFFFFFFFFF AND EQ PUSH2 0x629 JUMPI PUSH1 0x0 DUP1 REVERT JUMPDEST DUP3 PUSH1 0x9 PUSH1 0x0 DUP5 DUP2 MSTORE PUSH1 0x20 ADD SWAP1 DUP2 MSTORE PUSH1 0x20 ADD PUSH1 0x0 KECCAK256 PUSH1 0x0 PUSH2 0x100 EXP DUP2 SLOAD DUP2 PUSH20 0xFFFFFFFFFFFFFFFFFFFFFFFFFFFFFFFFFFFFFFFF MUL NOT AND SWAP1 DUP4 PUSH20 0xFFFFFFFFFFFFFFFFFFFFFFFFFFFFFFFFFFFFFFFF AND MUL OR SWAP1 SSTORE POP DUP2 DUP4 PUSH20 0xFFFFFFFFFFFFFFFFFFFFFFFFFFFFFFFFFFFFFFFF AND CALLER PUSH20 0xFFFFFFFFFFFFFFFFFFFFFFFFFFFFFFFFFFFFFFFF AND PUSH32 0x8C5BE1E5EBEC7D5BD14F71427D1E84F3DD0314C0F7B2291E5B200AC8C7C3B925 PUSH1 0x40 MLOAD PUSH1 0x40 MLOAD DUP1 SWAP2 SUB SWAP1 LOG4 POP POP POP JUMP JUMPDEST PUSH1 0x0 JUMPDEST PUSH1 0x6 DUP1 SLOAD SWAP1 POP DUP2 LT ISZERO PUSH2 0x829 JUMPI DUP2 PUSH20 0xFFFFFFFFFFFFFFFFFFFFFFFFFFFFFFFFFFFFFFFF AND PUSH1 0x6 DUP3 DUP2 SLOAD DUP2 LT PUSH2 0x716 JUMPI PUSH2 0x715 PUSH2 0x2CDB JUMP JUMPDEST JUMPDEST SWAP1 PUSH1 0x0 MSTORE PUSH1 0x20 PUSH1 0x0 KECCAK256 SWAP1 PUSH1 0x8 MUL ADD PUSH1 0x0 ADD PUSH1 0x0 SWAP1 SLOAD SWAP1 PUSH2 0x100 EXP SWAP1 DIV PUSH20 0xFFFFFFFFFFFFFFFFFFFFFFFFFFFFFFFFFFFFFFFF AND PUSH20 0xFFFFFFFFFFFFFFFFFFFFFFFFFFFFFFFFFFFFFFFF AND EQ ISZERO PUSH2 0x816 JUMPI PUSH1 0x6 DUP1 SLOAD DUP1 PUSH2 0x776 JUMPI PUSH2 0x775 PUSH2 0x2CAC JUMP JUMPDEST JUMPDEST PUSH1 0x1 SWAP1 SUB DUP2 DUP2 SWAP1 PUSH1 0x0 MSTORE PUSH1 0x20 PUSH1 0x0 KECCAK256 SWAP1 PUSH1 0x8 MUL ADD PUSH1 0x0 DUP1 DUP3 ADD PUSH1 0x0 PUSH2 0x100 EXP DUP2 SLOAD SWAP1 PUSH20 0xFFFFFFFFFFFFFFFFFFFFFFFFFFFFFFFFFFFFFFFF MUL NOT AND SWAP1 SSTORE PUSH1 0x1 DUP3 ADD PUSH1 0x0 PUSH2 0x7C2 SWAP2 SWAP1 PUSH2 0x2217 JUMP JUMPDEST PUSH1 0x2 DUP3 ADD PUSH1 0x0 PUSH2 0x7D2 SWAP2 SWAP1 PUSH2 0x2217 JUMP JUMPDEST PUSH1 0x3 DUP3 ADD PUSH1 0x0 PUSH2 0x7E2 SWAP2 SWAP1 PUSH2 0x2217 JUMP JUMPDEST PUSH1 0x4 DUP3 ADD PUSH1 0x0 SWAP1 SSTORE PUSH1 0x5 DUP3 ADD PUSH1 0x0 SWAP1 SSTORE PUSH1 0x6 DUP3 ADD PUSH1 0x0 SWAP1 SSTORE PUSH1 0x7 DUP3 ADD PUSH1 0x0 PUSH2 0x100 EXP DUP2 SLOAD SWAP1 PUSH4 0xFFFFFFFF MUL NOT AND SWAP1 SSTORE POP POP SWAP1 SSTORE JUMPDEST DUP1 DUP1 PUSH2 0x821 SWAP1 PUSH2 0x2B6E JUMP JUMPDEST SWAP2 POP POP PUSH2 0x6DE JUMP JUMPDEST POP POP JUMP JUMPDEST PUSH1 0x8 PUSH1 0x20 MSTORE DUP1 PUSH1 0x0 MSTORE PUSH1 0x40 PUSH1 0x0 KECCAK256 PUSH1 0x0 SWAP2 POP SWAP1 POP SLOAD DUP2 JUMP JUMPDEST CALLER PUSH20 0xFFFFFFFFFFFFFFFFFFFFFFFFFFFFFFFFFFFFFFFF AND PUSH1 0x7 PUSH1 0x0 DUP4 DUP2 MSTORE PUSH1 0x20 ADD SWAP1 DUP2 MSTORE PUSH1 0x20 ADD PUSH1 0x0 KECCAK256 PUSH1 0x0 SWAP1 SLOAD SWAP1 PUSH2 0x100 EXP SWAP1 DIV PUSH20 0xFFFFFFFFFFFFFFFFFFFFFFFFFFFFFFFFFFFFFFFF AND PUSH20 0xFFFFFFFFFFFFFFFFFFFFFFFFFFFFFFFFFFFFFFFF AND EQ DUP1 PUSH2 0x910 JUMPI POP CALLER PUSH20 0xFFFFFFFFFFFFFFFFFFFFFFFFFFFFFFFFFFFFFFFF AND PUSH1 0x9 PUSH1 0x0 DUP4 DUP2 MSTORE PUSH1 0x20 ADD SWAP1 DUP2 MSTORE PUSH1 0x20 ADD PUSH1 0x0 KECCAK256 PUSH1 0x0 SWAP1 SLOAD SWAP1 PUSH2 0x100 EXP SWAP1 DIV PUSH20 0xFFFFFFFFFFFFFFFFFFFFFFFFFFFFFFFFFFFFFFFF AND PUSH20 0xFFFFFFFFFFFFFFFFFFFFFFFFFFFFFFFFFFFFFFFF AND EQ JUMPDEST PUSH2 0x919 JUMPI PUSH1 0x0 DUP1 REVERT JUMPDEST PUSH2 0x924 DUP4 DUP4 DUP4 PUSH2 0x1EF0 JUMP JUMPDEST POP POP POP JUMP JUMPDEST PUSH1 0x0 PUSH1 0x1 PUSH1 0x8 PUSH1 0x0 CALLER PUSH20 0xFFFFFFFFFFFFFFFFFFFFFFFFFFFFFFFFFFFFFFFF AND PUSH20 0xFFFFFFFFFFFFFFFFFFFFFFFFFFFFFFFFFFFFFFFF AND DUP2 MSTORE PUSH1 0x20 ADD SWAP1 DUP2 MSTORE PUSH1 0x20 ADD PUSH1 0x0 KECCAK256 SLOAD LT PUSH2 0x9AD JUMPI PUSH1 0x40 MLOAD PUSH32 0x8C379A000000000000000000000000000000000000000000000000000000000 DUP2 MSTORE PUSH1 0x4 ADD PUSH2 0x9A4 SWAP1 PUSH2 0x2887 JUMP JUMPDEST PUSH1 0x40 MLOAD DUP1 SWAP2 SUB SWAP1 REVERT JUMPDEST PUSH1 0x6 PUSH1 0x40 MLOAD DUP1 PUSH2 0x100 ADD PUSH1 0x40 MSTORE DUP1 CALLER PUSH20 0xFFFFFFFFFFFFFFFFFFFFFFFFFFFFFFFFFFFFFFFF AND DUP2 MSTORE PUSH1 0x20 ADD DUP7 DUP2 MSTORE PUSH1 0x20 ADD DUP6 DUP2 MSTORE PUSH1 0x20 ADD DUP5 DUP2 MSTORE PUSH1 0x20 ADD PUSH1 0x0 DUP2 MSTORE PUSH1 0x20 ADD PUSH1 0x0 DUP2 MSTORE PUSH1 0x20 ADD PUSH1 0x3 SLOAD TIMESTAMP PUSH2 0xA05 SWAP2 SWAP1 PUSH2 0x29C9 JUMP JUMPDEST PUSH4 0xFFFFFFFF AND DUP2 MSTORE PUSH1 0x20 ADD PUSH1 0x1 PUSH4 0xFFFFFFFF AND DUP2 MSTORE POP SWAP1 DUP1 PUSH1 0x1 DUP2 SLOAD ADD DUP1 DUP3 SSTORE DUP1 SWAP2 POP POP PUSH1 0x1 SWAP1 SUB SWAP1 PUSH1 0x0 MSTORE PUSH1 0x20 PUSH1 0x0 KECCAK256 SWAP1 PUSH1 0x8 MUL ADD PUSH1 0x0 SWAP1 SWAP2 SWAP1 SWAP2 SWAP1 SWAP2 POP PUSH1 0x0 DUP3 ADD MLOAD DUP2 PUSH1 0x0 ADD PUSH1 0x0 PUSH2 0x100 EXP DUP2 SLOAD DUP2 PUSH20 0xFFFFFFFFFFFFFFFFFFFFFFFFFFFFFFFFFFFFFFFF MUL NOT AND SWAP1 DUP4 PUSH20 0xFFFFFFFFFFFFFFFFFFFFFFFFFFFFFFFFFFFFFFFF AND MUL OR SWAP1 SSTORE POP PUSH1 0x20 DUP3 ADD MLOAD DUP2 PUSH1 0x1 ADD SWAP1 DUP1 MLOAD SWAP1 PUSH1 0x20 ADD SWAP1 PUSH2 0xAA7 SWAP3 SWAP2 SWAP1 PUSH2 0x2191 JUMP JUMPDEST POP PUSH1 0x40 DUP3 ADD MLOAD DUP2 PUSH1 0x2 ADD SWAP1 DUP1 MLOAD SWAP1 PUSH1 0x20 ADD SWAP1 PUSH2 0xAC4 SWAP3 SWAP2 SWAP1 PUSH2 0x2191 JUMP JUMPDEST POP PUSH1 0x60 DUP3 ADD MLOAD DUP2 PUSH1 0x3 ADD SWAP1 DUP1 MLOAD SWAP1 PUSH1 0x20 ADD SWAP1 PUSH2 0xAE1 SWAP3 SWAP2 SWAP1 PUSH2 0x2191 JUMP JUMPDEST POP PUSH1 0x80 DUP3 ADD MLOAD DUP2 PUSH1 0x4 ADD SSTORE PUSH1 0xA0 DUP3 ADD MLOAD DUP2 PUSH1 0x5 ADD SSTORE PUSH1 0xC0 DUP3 ADD MLOAD DUP2 PUSH1 0x6 ADD SSTORE PUSH1 0xE0 DUP3 ADD MLOAD DUP2 PUSH1 0x7 ADD PUSH1 0x0 PUSH2 0x100 EXP DUP2 SLOAD DUP2 PUSH4 0xFFFFFFFF MUL NOT AND SWAP1 DUP4 PUSH4 0xFFFFFFFF AND MUL OR SWAP1 SSTORE POP POP POP PUSH1 0x0 PUSH1 0x6 DUP1 SLOAD SWAP1 POP SWAP1 POP CALLER PUSH1 0x7 PUSH1 0x0 DUP4 DUP2 MSTORE PUSH1 0x20 ADD SWAP1 DUP2 MSTORE PUSH1 0x20 ADD PUSH1 0x0 KECCAK256 PUSH1 0x0 PUSH2 0x100 EXP DUP2 SLOAD DUP2 PUSH20 0xFFFFFFFFFFFFFFFFFFFFFFFFFFFFFFFFFFFFFFFF MUL NOT AND SWAP1 DUP4 PUSH20 0xFFFFFFFFFFFFFFFFFFFFFFFFFFFFFFFFFFFFFFFF AND MUL OR SWAP1 SSTORE POP PUSH1 0x8 PUSH1 0x0 CALLER PUSH20 0xFFFFFFFFFFFFFFFFFFFFFFFFFFFFFFFFFFFFFFFF AND PUSH20 0xFFFFFFFFFFFFFFFFFFFFFFFFFFFFFFFFFFFFFFFF AND DUP2 MSTORE PUSH1 0x20 ADD SWAP1 DUP2 MSTORE PUSH1 0x20 ADD PUSH1 0x0 KECCAK256 PUSH1 0x0 DUP2 SLOAD DUP1 SWAP3 SWAP2 SWAP1 PUSH2 0xBD5 SWAP1 PUSH2 0x2B6E JUMP JUMPDEST SWAP2 SWAP1 POP SSTORE POP PUSH1 0x2 PUSH1 0x0 DUP2 SLOAD DUP1 SWAP3 SWAP2 SWAP1 PUSH2 0xBED SWAP1 PUSH2 0x2B6E JUMP JUMPDEST SWAP2 SWAP1 POP SSTORE POP PUSH1 0x1 PUSH1 0x2 SLOAD PUSH2 0xC01 SWAP2 SWAP1 PUSH2 0x2A1F JUMP JUMPDEST SWAP2 POP POP SWAP4 SWAP3 POP POP POP JUMP JUMPDEST PUSH1 0x0 PUSH1 0x7 PUSH1 0x0 DUP4 DUP2 MSTORE PUSH1 0x20 ADD SWAP1 DUP2 MSTORE PUSH1 0x20 ADD PUSH1 0x0 KECCAK256 PUSH1 0x0 SWAP1 SLOAD SWAP1 PUSH2 0x100 EXP SWAP1 DIV PUSH20 0xFFFFFFFFFFFFFFFFFFFFFFFFFFFFFFFFFFFFFFFF AND SWAP1 POP SWAP2 SWAP1 POP JUMP JUMPDEST PUSH1 0x60 PUSH1 0x4 SLOAD CALLVALUE EQ PUSH2 0xC58 JUMPI PUSH1 0x0 DUP1 REVERT JUMPDEST PUSH1 0x0 JUMPDEST PUSH1 0x6 DUP1 SLOAD SWAP1 POP DUP2 LT ISZERO PUSH2 0xD96 JUMPI DUP3 PUSH20 0xFFFFFFFFFFFFFFFFFFFFFFFFFFFFFFFFFFFFFFFF AND PUSH1 0x6 DUP3 DUP2 SLOAD DUP2 LT PUSH2 0xC93 JUMPI PUSH2 0xC92 PUSH2 0x2CDB JUMP JUMPDEST JUMPDEST SWAP1 PUSH1 0x0 MSTORE PUSH1 0x20 PUSH1 0x0 KECCAK256 SWAP1 PUSH1 0x8 MUL ADD PUSH1 0x0 ADD PUSH1 0x0 SWAP1 SLOAD SWAP1 PUSH2 0x100 EXP SWAP1 DIV PUSH20 0xFFFFFFFFFFFFFFFFFFFFFFFFFFFFFFFFFFFFFFFF AND PUSH20 0xFFFFFFFFFFFFFFFFFFFFFFFFFFFFFFFFFFFFFFFF AND EQ ISZERO PUSH2 0xD83 JUMPI PUSH1 0x6 DUP2 DUP2 SLOAD DUP2 LT PUSH2 0xCF5 JUMPI PUSH2 0xCF4 PUSH2 0x2CDB JUMP JUMPDEST JUMPDEST SWAP1 PUSH1 0x0 MSTORE PUSH1 0x20 PUSH1 0x0 KECCAK256 SWAP1 PUSH1 0x8 MUL ADD PUSH1 0x7 ADD PUSH1 0x0 DUP2 DUP2 SWAP1 SLOAD SWAP1 PUSH2 0x100 EXP SWAP1 DIV PUSH4 0xFFFFFFFF AND DUP1 SWAP3 SWAP2 SWAP1 PUSH2 0xD26 SWAP1 PUSH2 0x2BB7 JUMP JUMPDEST SWAP2 SWAP1 PUSH2 0x100 EXP DUP2 SLOAD DUP2 PUSH4 0xFFFFFFFF MUL NOT AND SWAP1 DUP4 PUSH4 0xFFFFFFFF AND MUL OR SWAP1 SSTORE POP POP PUSH1 0x40 MLOAD DUP1 PUSH1 0x40 ADD PUSH1 0x40 MSTORE DUP1 PUSH1 0x12 DUP2 MSTORE PUSH1 0x20 ADD PUSH32 0x48612073756269646F206465206E6976656C0000000000000000000000000000 DUP2 MSTORE POP SWAP2 POP POP PUSH2 0xD98 JUMP JUMPDEST DUP1 DUP1 PUSH2 0xD8E SWAP1 PUSH2 0x2B6E JUMP JUMPDEST SWAP2 POP POP PUSH2 0xC5B JUMP JUMPDEST POP JUMPDEST SWAP2 SWAP1 POP JUMP JUMPDEST PUSH1 0x60 PUSH1 0x1 PUSH1 0x6 DUP1 SLOAD SWAP1 POP GT PUSH2 0xDE6 JUMPI PUSH32 0x6158FC8F21C8CC73DDF920956CC75D0E8A48B4FC85817A0BA89EB3B6D2A75441 PUSH1 0x40 MLOAD PUSH2 0xDD9 SWAP1 PUSH2 0x28C7 JUMP JUMPDEST PUSH1 0x40 MLOAD DUP1 SWAP2 SUB SWAP1 LOG1 PUSH2 0x16D2 JUMP JUMPDEST DUP2 CALLVALUE EQ PUSH2 0xDF2 JUMPI PUSH1 0x0 DUP1 REVERT JUMPDEST PUSH1 0x1 PUSH1 0x0 DUP2 SLOAD DUP1 SWAP3 SWAP2 SWAP1 PUSH2 0xE05 SWAP1 PUSH2 0x2B6E JUMP JUMPDEST SWAP2 SWAP1 POP SSTORE POP PUSH1 0x0 PUSH1 0x6 DUP1 SLOAD SWAP1 POP TIMESTAMP PUSH1 0x6 DUP1 SLOAD SWAP1 POP PUSH1 0x1 SLOAD PUSH1 0x40 MLOAD PUSH1 0x20 ADD PUSH2 0xE2E SWAP4 SWAP3 SWAP2 SWAP1 PUSH2 0x2719 JUMP JUMPDEST PUSH1 0x40 MLOAD PUSH1 0x20 DUP2 DUP4 SUB SUB DUP2 MSTORE SWAP1 PUSH1 0x40 MSTORE DUP1 MLOAD SWAP1 PUSH1 0x20 ADD KECCAK256 PUSH1 0x0 SHR PUSH2 0xE51 SWAP2 SWAP1 PUSH2 0x2BEE JUMP JUMPDEST SWAP1 POP PUSH1 0x0 PUSH1 0x7 PUSH1 0x0 DUP4 DUP2 MSTORE PUSH1 0x20 ADD SWAP1 DUP2 MSTORE PUSH1 0x20 ADD PUSH1 0x0 KECCAK256 PUSH1 0x0 SWAP1 SLOAD SWAP1 PUSH2 0x100 EXP SWAP1 DIV PUSH20 0xFFFFFFFFFFFFFFFFFFFFFFFFFFFFFFFFFFFFFFFF AND SWAP1 POP PUSH1 0x1 PUSH1 0x0 DUP2 SLOAD DUP1 SWAP3 SWAP2 SWAP1 PUSH2 0xE9E SWAP1 PUSH2 0x2B6E JUMP JUMPDEST SWAP2 SWAP1 POP SSTORE POP PUSH1 0x0 PUSH1 0x64 SWAP1 POP PUSH1 0x0 DUP2 TIMESTAMP DUP4 PUSH1 0x1 SLOAD PUSH1 0x40 MLOAD PUSH1 0x20 ADD PUSH2 0xEC3 SWAP4 SWAP3 SWAP2 SWAP1 PUSH2 0x2719 JUMP JUMPDEST PUSH1 0x40 MLOAD PUSH1 0x20 DUP2 DUP4 SUB SUB DUP2 MSTORE SWAP1 PUSH1 0x40 MSTORE DUP1 MLOAD SWAP1 PUSH1 0x20 ADD KECCAK256 PUSH1 0x0 SHR PUSH2 0xEE6 SWAP2 SWAP1 PUSH2 0x2BEE JUMP JUMPDEST SWAP1 POP PUSH1 0x0 JUMPDEST PUSH1 0x6 DUP1 SLOAD SWAP1 POP DUP2 LT ISZERO PUSH2 0x16CC JUMPI PUSH1 0x6 DUP2 DUP2 SLOAD DUP2 LT PUSH2 0xF0C JUMPI PUSH2 0xF0B PUSH2 0x2CDB JUMP JUMPDEST JUMPDEST SWAP1 PUSH1 0x0 MSTORE PUSH1 0x20 PUSH1 0x0 KECCAK256 SWAP1 PUSH1 0x8 MUL ADD PUSH1 0x0 ADD PUSH1 0x0 SWAP1 SLOAD SWAP1 PUSH2 0x100 EXP SWAP1 DIV PUSH20 0xFFFFFFFFFFFFFFFFFFFFFFFFFFFFFFFFFFFFFFFF AND PUSH20 0xFFFFFFFFFFFFFFFFFFFFFFFFFFFFFFFFFFFFFFFF AND CALLER PUSH20 0xFFFFFFFFFFFFFFFFFFFFFFFFFFFFFFFFFFFFFFFF AND EQ ISZERO PUSH2 0x16B9 JUMPI PUSH2 0xF9B PUSH1 0x6 DUP3 DUP2 SLOAD DUP2 LT PUSH2 0xF88 JUMPI PUSH2 0xF87 PUSH2 0x2CDB JUMP JUMPDEST JUMPDEST SWAP1 PUSH1 0x0 MSTORE PUSH1 0x20 PUSH1 0x0 KECCAK256 SWAP1 PUSH1 0x8 MUL ADD PUSH2 0x204C JUMP JUMPDEST PUSH2 0xFA4 JUMPI PUSH1 0x0 DUP1 REVERT JUMPDEST PUSH1 0x6 DUP2 DUP2 SLOAD DUP2 LT PUSH2 0xFB8 JUMPI PUSH2 0xFB7 PUSH2 0x2CDB JUMP JUMPDEST JUMPDEST SWAP1 PUSH1 0x0 MSTORE PUSH1 0x20 PUSH1 0x0 KECCAK256 SWAP1 PUSH1 0x8 MUL ADD PUSH1 0x5 ADD PUSH1 0x0 DUP2 SLOAD DUP1 SWAP3 SWAP2 SWAP1 PUSH2 0xFDA SWAP1 PUSH2 0x2B6E JUMP JUMPDEST SWAP2 SWAP1 POP SSTORE POP PUSH1 0x6 DUP6 DUP2 SLOAD DUP2 LT PUSH2 0xFF3 JUMPI PUSH2 0xFF2 PUSH2 0x2CDB JUMP JUMPDEST JUMPDEST SWAP1 PUSH1 0x0 MSTORE PUSH1 0x20 PUSH1 0x0 KECCAK256 SWAP1 PUSH1 0x8 MUL ADD PUSH1 0x5 ADD PUSH1 0x0 DUP2 SLOAD DUP1 SWAP3 SWAP2 SWAP1 PUSH2 0x1015 SWAP1 PUSH2 0x2B6E JUMP JUMPDEST SWAP2 SWAP1 POP SSTORE POP PUSH2 0x1044 PUSH1 0x6 DUP3 DUP2 SLOAD DUP2 LT PUSH2 0x1031 JUMPI PUSH2 0x1030 PUSH2 0x2CDB JUMP JUMPDEST JUMPDEST SWAP1 PUSH1 0x0 MSTORE PUSH1 0x20 PUSH1 0x0 KECCAK256 SWAP1 PUSH1 0x8 MUL ADD PUSH2 0x205D JUMP JUMPDEST PUSH1 0x6 DUP2 DUP2 SLOAD DUP2 LT PUSH2 0x1058 JUMPI PUSH2 0x1057 PUSH2 0x2CDB JUMP JUMPDEST JUMPDEST SWAP1 PUSH1 0x0 MSTORE PUSH1 0x20 PUSH1 0x0 KECCAK256 SWAP1 PUSH1 0x8 MUL ADD PUSH1 0x7 ADD PUSH1 0x0 SWAP1 SLOAD SWAP1 PUSH2 0x100 EXP SWAP1 DIV PUSH4 0xFFFFFFFF AND PUSH4 0xFFFFFFFF AND PUSH1 0x6 DUP7 DUP2 SLOAD DUP2 LT PUSH2 0x1094 JUMPI PUSH2 0x1093 PUSH2 0x2CDB JUMP JUMPDEST JUMPDEST SWAP1 PUSH1 0x0 MSTORE PUSH1 0x20 PUSH1 0x0 KECCAK256 SWAP1 PUSH1 0x8 MUL ADD PUSH1 0x7 ADD PUSH1 0x0 SWAP1 SLOAD SWAP1 PUSH2 0x100 EXP SWAP1 DIV PUSH4 0xFFFFFFFF AND PUSH4 0xFFFFFFFF AND LT ISZERO PUSH2 0x1295 JUMPI PUSH1 0x3C DUP3 GT PUSH2 0x11B3 JUMPI PUSH2 0x10D2 PUSH2 0x207C JUMP JUMPDEST PUSH1 0x6 DUP2 DUP2 SLOAD DUP2 LT PUSH2 0x10E6 JUMPI PUSH2 0x10E5 PUSH2 0x2CDB JUMP JUMPDEST JUMPDEST SWAP1 PUSH1 0x0 MSTORE PUSH1 0x20 PUSH1 0x0 KECCAK256 SWAP1 PUSH1 0x8 MUL ADD PUSH1 0x4 ADD PUSH1 0x0 DUP2 SLOAD DUP1 SWAP3 SWAP2 SWAP1 PUSH2 0x1108 SWAP1 PUSH2 0x2B6E JUMP JUMPDEST SWAP2 SWAP1 POP SSTORE POP PUSH1 0x6 DUP2 DUP2 SLOAD DUP2 LT PUSH2 0x1121 JUMPI PUSH2 0x1120 PUSH2 0x2CDB JUMP JUMPDEST JUMPDEST SWAP1 PUSH1 0x0 MSTORE PUSH1 0x20 PUSH1 0x0 KECCAK256 SWAP1 PUSH1 0x8 MUL ADD PUSH1 0x7 ADD PUSH1 0x0 DUP2 DUP2 SWAP1 SLOAD SWAP1 PUSH2 0x100 EXP SWAP1 DIV PUSH4 0xFFFFFFFF AND DUP1 SWAP3 SWAP2 SWAP1 PUSH2 0x1152 SWAP1 PUSH2 0x2BB7 JUMP JUMPDEST SWAP2 SWAP1 PUSH2 0x100 EXP DUP2 SLOAD DUP2 PUSH4 0xFFFFFFFF MUL NOT AND SWAP1 DUP4 PUSH4 0xFFFFFFFF AND MUL OR SWAP1 SSTORE POP POP PUSH1 0x40 MLOAD DUP1 PUSH1 0x40 ADD PUSH1 0x40 MSTORE DUP1 PUSH1 0xA DUP2 MSTORE PUSH1 0x20 ADD PUSH32 0x4861732067616E61646F00000000000000000000000000000000000000000000 DUP2 MSTORE POP SWAP6 POP POP POP POP POP POP PUSH2 0x16D3 JUMP JUMPDEST PUSH32 0x6158FC8F21C8CC73DDF920956CC75D0E8A48B4FC85817A0BA89EB3B6D2A75441 PUSH1 0x40 MLOAD PUSH2 0x11E0 SWAP1 PUSH2 0x2907 JUMP JUMPDEST PUSH1 0x40 MLOAD DUP1 SWAP2 SUB SWAP1 LOG1 ADDRESS PUSH20 0xFFFFFFFFFFFFFFFFFFFFFFFFFFFFFFFFFFFFFFFF AND PUSH4 0xE172FCA8 DUP6 PUSH1 0x40 MLOAD DUP3 PUSH4 0xFFFFFFFF AND PUSH1 0xE0 SHL DUP2 MSTORE PUSH1 0x4 ADD PUSH2 0x1221 SWAP2 SWAP1 PUSH2 0x2756 JUMP JUMPDEST PUSH1 0x0 PUSH1 0x40 MLOAD DUP1 DUP4 SUB DUP2 PUSH1 0x0 DUP8 DUP1 EXTCODESIZE ISZERO DUP1 ISZERO PUSH2 0x123B JUMPI PUSH1 0x0 DUP1 REVERT JUMPDEST POP GAS CALL ISZERO DUP1 ISZERO PUSH2 0x124F JUMPI RETURNDATASIZE PUSH1 0x0 DUP1 RETURNDATACOPY RETURNDATASIZE PUSH1 0x0 REVERT JUMPDEST POP POP POP POP PUSH1 0x40 MLOAD DUP1 PUSH1 0x40 ADD PUSH1 0x40 MSTORE DUP1 PUSH1 0xB DUP2 MSTORE PUSH1 0x20 ADD PUSH32 0x486173207065726469646F000000000000000000000000000000000000000000 DUP2 MSTORE POP SWAP6 POP POP POP POP POP POP PUSH2 0x16D3 JUMP JUMPDEST PUSH1 0x6 DUP2 DUP2 SLOAD DUP2 LT PUSH2 0x12A9 JUMPI PUSH2 0x12A8 PUSH2 0x2CDB JUMP JUMPDEST JUMPDEST SWAP1 PUSH1 0x0 MSTORE PUSH1 0x20 PUSH1 0x0 KECCAK256 SWAP1 PUSH1 0x8 MUL ADD PUSH1 0x7 ADD PUSH1 0x0 SWAP1 SLOAD SWAP1 PUSH2 0x100 EXP SWAP1 DIV PUSH4 0xFFFFFFFF AND PUSH4 0xFFFFFFFF AND PUSH1 0x6 DUP7 DUP2 SLOAD DUP2 LT PUSH2 0x12E5 JUMPI PUSH2 0x12E4 PUSH2 0x2CDB JUMP JUMPDEST JUMPDEST SWAP1 PUSH1 0x0 MSTORE PUSH1 0x20 PUSH1 0x0 KECCAK256 SWAP1 PUSH1 0x8 MUL ADD PUSH1 0x7 ADD PUSH1 0x0 SWAP1 SLOAD SWAP1 PUSH2 0x100 EXP SWAP1 DIV PUSH4 0xFFFFFFFF AND PUSH4 0xFFFFFFFF AND EQ ISZERO PUSH2 0x14E6 JUMPI PUSH1 0x32 DUP3 GT PUSH2 0x1404 JUMPI PUSH2 0x1323 PUSH2 0x207C JUMP JUMPDEST PUSH1 0x6 DUP2 DUP2 SLOAD DUP2 LT PUSH2 0x1337 JUMPI PUSH2 0x1336 PUSH2 0x2CDB JUMP JUMPDEST JUMPDEST SWAP1 PUSH1 0x0 MSTORE PUSH1 0x20 PUSH1 0x0 KECCAK256 SWAP1 PUSH1 0x8 MUL ADD PUSH1 0x4 ADD PUSH1 0x0 DUP2 SLOAD DUP1 SWAP3 SWAP2 SWAP1 PUSH2 0x1359 SWAP1 PUSH2 0x2B6E JUMP JUMPDEST SWAP2 SWAP1 POP SSTORE POP PUSH1 0x6 DUP2 DUP2 SLOAD DUP2 LT PUSH2 0x1372 JUMPI PUSH2 0x1371 PUSH2 0x2CDB JUMP JUMPDEST JUMPDEST SWAP1 PUSH1 0x0 MSTORE PUSH1 0x20 PUSH1 0x0 KECCAK256 SWAP1 PUSH1 0x8 MUL ADD PUSH1 0x7 ADD PUSH1 0x0 DUP2 DUP2 SWAP1 SLOAD SWAP1 PUSH2 0x100 EXP SWAP1 DIV PUSH4 0xFFFFFFFF AND DUP1 SWAP3 SWAP2 SWAP1 PUSH2 0x13A3 SWAP1 PUSH2 0x2BB7 JUMP JUMPDEST SWAP2 SWAP1 PUSH2 0x100 EXP DUP2 SLOAD DUP2 PUSH4 0xFFFFFFFF MUL NOT AND SWAP1 DUP4 PUSH4 0xFFFFFFFF AND MUL OR SWAP1 SSTORE POP POP PUSH1 0x40 MLOAD DUP1 PUSH1 0x40 ADD PUSH1 0x40 MSTORE DUP1 PUSH1 0xA DUP2 MSTORE PUSH1 0x20 ADD PUSH32 0x4861732067616E61646F00000000000000000000000000000000000000000000 DUP2 MSTORE POP SWAP6 POP POP POP POP POP POP PUSH2 0x16D3 JUMP JUMPDEST PUSH32 0x6158FC8F21C8CC73DDF920956CC75D0E8A48B4FC85817A0BA89EB3B6D2A75441 PUSH1 0x40 MLOAD PUSH2 0x1431 SWAP1 PUSH2 0x2907 JUMP JUMPDEST PUSH1 0x40 MLOAD DUP1 SWAP2 SUB SWAP1 LOG1 ADDRESS PUSH20 0xFFFFFFFFFFFFFFFFFFFFFFFFFFFFFFFFFFFFFFFF AND PUSH4 0xE172FCA8 DUP6 PUSH1 0x40 MLOAD DUP3 PUSH4 0xFFFFFFFF AND PUSH1 0xE0 SHL DUP2 MSTORE PUSH1 0x4 ADD PUSH2 0x1472 SWAP2 SWAP1 PUSH2 0x2756 JUMP JUMPDEST PUSH1 0x0 PUSH1 0x40 MLOAD DUP1 DUP4 SUB DUP2 PUSH1 0x0 DUP8 DUP1 EXTCODESIZE ISZERO DUP1 ISZERO PUSH2 0x148C JUMPI PUSH1 0x0 DUP1 REVERT JUMPDEST POP GAS CALL ISZERO DUP1 ISZERO PUSH2 0x14A0 JUMPI RETURNDATASIZE PUSH1 0x0 DUP1 RETURNDATACOPY RETURNDATASIZE PUSH1 0x0 REVERT JUMPDEST POP POP POP POP PUSH1 0x40 MLOAD DUP1 PUSH1 0x40 ADD PUSH1 0x40 MSTORE DUP1 PUSH1 0xB DUP2 MSTORE PUSH1 0x20 ADD PUSH32 0x486173207065726469646F000000000000000000000000000000000000000000 DUP2 MSTORE POP SWAP6 POP POP POP POP POP POP PUSH2 0x16D3 JUMP JUMPDEST PUSH1 0x28 DUP3 GT PUSH2 0x15D7 JUMPI PUSH2 0x14F6 PUSH2 0x207C JUMP JUMPDEST PUSH1 0x6 DUP2 DUP2 SLOAD DUP2 LT PUSH2 0x150A JUMPI PUSH2 0x1509 PUSH2 0x2CDB JUMP JUMPDEST JUMPDEST SWAP1 PUSH1 0x0 MSTORE PUSH1 0x20 PUSH1 0x0 KECCAK256 SWAP1 PUSH1 0x8 MUL ADD PUSH1 0x4 ADD PUSH1 0x0 DUP2 SLOAD DUP1 SWAP3 SWAP2 SWAP1 PUSH2 0x152C SWAP1 PUSH2 0x2B6E JUMP JUMPDEST SWAP2 SWAP1 POP SSTORE POP PUSH1 0x6 DUP2 DUP2 SLOAD DUP2 LT PUSH2 0x1545 JUMPI PUSH2 0x1544 PUSH2 0x2CDB JUMP JUMPDEST JUMPDEST SWAP1 PUSH1 0x0 MSTORE PUSH1 0x20 PUSH1 0x0 KECCAK256 SWAP1 PUSH1 0x8 MUL ADD PUSH1 0x7 ADD PUSH1 0x0 DUP2 DUP2 SWAP1 SLOAD SWAP1 PUSH2 0x100 EXP SWAP1 DIV PUSH4 0xFFFFFFFF AND DUP1 SWAP3 SWAP2 SWAP1 PUSH2 0x1576 SWAP1 PUSH2 0x2BB7 JUMP JUMPDEST SWAP2 SWAP1 PUSH2 0x100 EXP DUP2 SLOAD DUP2 PUSH4 0xFFFFFFFF MUL NOT AND SWAP1 DUP4 PUSH4 0xFFFFFFFF AND MUL OR SWAP1 SSTORE POP POP PUSH1 0x40 MLOAD DUP1 PUSH1 0x40 ADD PUSH1 0x40 MSTORE DUP1 PUSH1 0xA DUP2 MSTORE PUSH1 0x20 ADD PUSH32 0x4861732067616E61646F00000000000000000000000000000000000000000000 DUP2 MSTORE POP SWAP6 POP POP POP POP POP POP PUSH2 0x16D3 JUMP JUMPDEST PUSH32 0x6158FC8F21C8CC73DDF920956CC75D0E8A48B4FC85817A0BA89EB3B6D2A75441 PUSH1 0x40 MLOAD PUSH2 0x1604 SWAP1 PUSH2 0x2907 JUMP JUMPDEST PUSH1 0x40 MLOAD DUP1 SWAP2 SUB SWAP1 LOG1 ADDRESS PUSH20 0xFFFFFFFFFFFFFFFFFFFFFFFFFFFFFFFFFFFFFFFF AND PUSH4 0xE172FCA8 DUP6 PUSH1 0x40 MLOAD DUP3 PUSH4 0xFFFFFFFF AND PUSH1 0xE0 SHL DUP2 MSTORE PUSH1 0x4 ADD PUSH2 0x1645 SWAP2 SWAP1 PUSH2 0x2756 JUMP JUMPDEST PUSH1 0x0 PUSH1 0x40 MLOAD DUP1 DUP4 SUB DUP2 PUSH1 0x0 DUP8 DUP1 EXTCODESIZE ISZERO DUP1 ISZERO PUSH2 0x165F JUMPI PUSH1 0x0 DUP1 REVERT JUMPDEST POP GAS CALL ISZERO DUP1 ISZERO PUSH2 0x1673 JUMPI RETURNDATASIZE PUSH1 0x0 DUP1 RETURNDATACOPY RETURNDATASIZE PUSH1 0x0 REVERT JUMPDEST POP POP POP POP PUSH1 0x40 MLOAD DUP1 PUSH1 0x40 ADD PUSH1 0x40 MSTORE DUP1 PUSH1 0xB DUP2 MSTORE PUSH1 0x20 ADD PUSH32 0x486173207065726469646F000000000000000000000000000000000000000000 DUP2 MSTORE POP SWAP6 POP POP POP POP POP POP PUSH2 0x16D3 JUMP JUMPDEST DUP1 DUP1 PUSH2 0x16C4 SWAP1 PUSH2 0x2B6E JUMP JUMPDEST SWAP2 POP POP PUSH2 0xEEB JUMP JUMPDEST POP POP POP POP POP JUMPDEST JUMPDEST SWAP2 SWAP1 POP JUMP JUMPDEST PUSH1 0x0 PUSH1 0x8 PUSH1 0x0 DUP4 PUSH20 0xFFFFFFFFFFFFFFFFFFFFFFFFFFFFFFFFFFFFFFFF AND PUSH20 0xFFFFFFFFFFFFFFFFFFFFFFFFFFFFFFFFFFFFFFFF AND DUP2 MSTORE PUSH1 0x20 ADD SWAP1 DUP2 MSTORE PUSH1 0x20 ADD PUSH1 0x0 KECCAK256 SLOAD SWAP1 POP SWAP2 SWAP1 POP JUMP JUMPDEST PUSH2 0x1729 PUSH2 0x20C5 JUMP JUMPDEST PUSH20 0xFFFFFFFFFFFFFFFFFFFFFFFFFFFFFFFFFFFFFFFF AND PUSH2 0x1747 PUSH2 0x17DC JUMP JUMPDEST PUSH20 0xFFFFFFFFFFFFFFFFFFFFFFFFFFFFFFFFFFFFFFFF AND EQ PUSH2 0x179D JUMPI PUSH1 0x40 MLOAD PUSH32 0x8C379A000000000000000000000000000000000000000000000000000000000 DUP2 MSTORE PUSH1 0x4 ADD PUSH2 0x1794 SWAP1 PUSH2 0x28E7 JUMP JUMPDEST PUSH1 0x40 MLOAD DUP1 SWAP2 SUB SWAP1 REVERT JUMPDEST PUSH2 0x17A7 PUSH1 0x0 PUSH2 0x20CD JUMP JUMPDEST JUMP JUMPDEST PUSH1 0x7 PUSH1 0x20 MSTORE DUP1 PUSH1 0x0 MSTORE PUSH1 0x40 PUSH1 0x0 KECCAK256 PUSH1 0x0 SWAP2 POP SLOAD SWAP1 PUSH2 0x100 EXP SWAP1 DIV PUSH20 0xFFFFFFFFFFFFFFFFFFFFFFFFFFFFFFFFFFFFFFFF AND DUP2 JUMP JUMPDEST PUSH1 0x0 DUP1 PUSH1 0x0 SWAP1 SLOAD SWAP1 PUSH2 0x100 EXP SWAP1 DIV PUSH20 0xFFFFFFFFFFFFFFFFFFFFFFFFFFFFFFFFFFFFFFFF AND SWAP1 POP SWAP1 JUMP JUMPDEST PUSH1 0x0 DUP1 SLOAD SWAP1 PUSH2 0x100 EXP SWAP1 DIV PUSH20 0xFFFFFFFFFFFFFFFFFFFFFFFFFFFFFFFFFFFFFFFF AND DUP2 JUMP JUMPDEST PUSH1 0x6 DUP2 DUP2 SLOAD DUP2 LT PUSH2 0x1839 JUMPI PUSH1 0x0 DUP1 REVERT JUMPDEST SWAP1 PUSH1 0x0 MSTORE PUSH1 0x20 PUSH1 0x0 KECCAK256 SWAP1 PUSH1 0x8 MUL ADD PUSH1 0x0 SWAP2 POP SWAP1 POP DUP1 PUSH1 0x0 ADD PUSH1 0x0 SWAP1 SLOAD SWAP1 PUSH2 0x100 EXP SWAP1 DIV PUSH20 0xFFFFFFFFFFFFFFFFFFFFFFFFFFFFFFFFFFFFFFFF AND SWAP1 DUP1 PUSH1 0x1 ADD DUP1 SLOAD PUSH2 0x1882 SWAP1 PUSH2 0x2B0B JUMP JUMPDEST DUP1 PUSH1 0x1F ADD PUSH1 0x20 DUP1 SWAP2 DIV MUL PUSH1 0x20 ADD PUSH1 0x40 MLOAD SWAP1 DUP2 ADD PUSH1 0x40 MSTORE DUP1 SWAP3 SWAP2 SWAP1 DUP2 DUP2 MSTORE PUSH1 0x20 ADD DUP3 DUP1 SLOAD PUSH2 0x18AE SWAP1 PUSH2 0x2B0B JUMP JUMPDEST DUP1 ISZERO PUSH2 0x18FB JUMPI DUP1 PUSH1 0x1F LT PUSH2 0x18D0 JUMPI PUSH2 0x100 DUP1 DUP4 SLOAD DIV MUL DUP4 MSTORE SWAP2 PUSH1 0x20 ADD SWAP2 PUSH2 0x18FB JUMP JUMPDEST DUP3 ADD SWAP2 SWAP1 PUSH1 0x0 MSTORE PUSH1 0x20 PUSH1 0x0 KECCAK256 SWAP1 JUMPDEST DUP2 SLOAD DUP2 MSTORE SWAP1 PUSH1 0x1 ADD SWAP1 PUSH1 0x20 ADD DUP1 DUP4 GT PUSH2 0x18DE JUMPI DUP3 SWAP1 SUB PUSH1 0x1F AND DUP3 ADD SWAP2 JUMPDEST POP POP POP POP POP SWAP1 DUP1 PUSH1 0x2 ADD DUP1 SLOAD PUSH2 0x1910 SWAP1 PUSH2 0x2B0B JUMP JUMPDEST DUP1 PUSH1 0x1F ADD PUSH1 0x20 DUP1 SWAP2 DIV MUL PUSH1 0x20 ADD PUSH1 0x40 MLOAD SWAP1 DUP2 ADD PUSH1 0x40 MSTORE DUP1 SWAP3 SWAP2 SWAP1 DUP2 DUP2 MSTORE PUSH1 0x20 ADD DUP3 DUP1 SLOAD PUSH2 0x193C SWAP1 PUSH2 0x2B0B JUMP JUMPDEST DUP1 ISZERO PUSH2 0x1989 JUMPI DUP1 PUSH1 0x1F LT PUSH2 0x195E JUMPI PUSH2 0x100 DUP1 DUP4 SLOAD DIV MUL DUP4 MSTORE SWAP2 PUSH1 0x20 ADD SWAP2 PUSH2 0x1989 JUMP JUMPDEST DUP3 ADD SWAP2 SWAP1 PUSH1 0x0 MSTORE PUSH1 0x20 PUSH1 0x0 KECCAK256 SWAP1 JUMPDEST DUP2 SLOAD DUP2 MSTORE SWAP1 PUSH1 0x1 ADD SWAP1 PUSH1 0x20 ADD DUP1 DUP4 GT PUSH2 0x196C JUMPI DUP3 SWAP1 SUB PUSH1 0x1F AND DUP3 ADD SWAP2 JUMPDEST POP POP POP POP POP SWAP1 DUP1 PUSH1 0x3 ADD DUP1 SLOAD PUSH2 0x199E SWAP1 PUSH2 0x2B0B JUMP JUMPDEST DUP1 PUSH1 0x1F ADD PUSH1 0x20 DUP1 SWAP2 DIV MUL PUSH1 0x20 ADD PUSH1 0x40 MLOAD SWAP1 DUP2 ADD PUSH1 0x40 MSTORE DUP1 SWAP3 SWAP2 SWAP1 DUP2 DUP2 MSTORE PUSH1 0x20 ADD DUP3 DUP1 SLOAD PUSH2 0x19CA SWAP1 PUSH2 0x2B0B JUMP JUMPDEST DUP1 ISZERO PUSH2 0x1A17 JUMPI DUP1 PUSH1 0x1F LT PUSH2 0x19EC JUMPI PUSH2 0x100 DUP1 DUP4 SLOAD DIV MUL DUP4 MSTORE SWAP2 PUSH1 0x20 ADD SWAP2 PUSH2 0x1A17 JUMP JUMPDEST DUP3 ADD SWAP2 SWAP1 PUSH1 0x0 MSTORE PUSH1 0x20 PUSH1 0x0 KECCAK256 SWAP1 JUMPDEST DUP2 SLOAD DUP2 MSTORE SWAP1 PUSH1 0x1 ADD SWAP1 PUSH1 0x20 ADD DUP1 DUP4 GT PUSH2 0x19FA JUMPI DUP3 SWAP1 SUB PUSH1 0x1F AND DUP3 ADD SWAP2 JUMPDEST POP POP POP POP POP SWAP1 DUP1 PUSH1 0x4 ADD SLOAD SWAP1 DUP1 PUSH1 0x5 ADD SLOAD SWAP1 DUP1 PUSH1 0x6 ADD SLOAD SWAP1 DUP1 PUSH1 0x7 ADD PUSH1 0x0 SWAP1 SLOAD SWAP1 PUSH2 0x100 EXP SWAP1 DIV PUSH4 0xFFFFFFFF AND SWAP1 POP DUP9 JUMP JUMPDEST PUSH1 0x0 JUMPDEST PUSH1 0x6 DUP1 SLOAD SWAP1 POP DUP2 LT ISZERO PUSH2 0x1BEC JUMPI DUP2 PUSH20 0xFFFFFFFFFFFFFFFFFFFFFFFFFFFFFFFFFFFFFFFF AND PUSH1 0x6 DUP3 DUP2 SLOAD DUP2 LT PUSH2 0x1A84 JUMPI PUSH2 0x1A83 PUSH2 0x2CDB JUMP JUMPDEST JUMPDEST SWAP1 PUSH1 0x0 MSTORE PUSH1 0x20 PUSH1 0x0 KECCAK256 SWAP1 PUSH1 0x8 MUL ADD PUSH1 0x0 ADD PUSH1 0x0 SWAP1 SLOAD SWAP1 PUSH2 0x100 EXP SWAP1 DIV PUSH20 0xFFFFFFFFFFFFFFFFFFFFFFFFFFFFFFFFFFFFFFFF AND PUSH20 0xFFFFFFFFFFFFFFFFFFFFFFFFFFFFFFFFFFFFFFFF AND EQ ISZERO PUSH2 0x1BD9 JUMPI PUSH32 0x20FDB8AB571BFBAB79104BEA84F9C31CB79C5AE45B5F515C1D6C8393E0028350 PUSH1 0x6 DUP3 DUP2 SLOAD DUP2 LT PUSH2 0x1B07 JUMPI PUSH2 0x1B06 PUSH2 0x2CDB JUMP JUMPDEST JUMPDEST SWAP1 PUSH1 0x0 MSTORE PUSH1 0x20 PUSH1 0x0 KECCAK256 SWAP1 PUSH1 0x8 MUL ADD PUSH1 0x2 ADD PUSH1 0x6 DUP4 DUP2 SLOAD DUP2 LT PUSH2 0x1B2C JUMPI PUSH2 0x1B2B PUSH2 0x2CDB JUMP JUMPDEST JUMPDEST SWAP1 PUSH1 0x0 MSTORE PUSH1 0x20 PUSH1 0x0 KECCAK256 SWAP1 PUSH1 0x8 MUL ADD PUSH1 0x1 ADD PUSH1 0x6 DUP5 DUP2 SLOAD DUP2 LT PUSH2 0x1B51 JUMPI PUSH2 0x1B50 PUSH2 0x2CDB JUMP JUMPDEST JUMPDEST SWAP1 PUSH1 0x0 MSTORE PUSH1 0x20 PUSH1 0x0 KECCAK256 SWAP1 PUSH1 0x8 MUL ADD PUSH1 0x7 ADD PUSH1 0x0 SWAP1 SLOAD SWAP1 PUSH2 0x100 EXP SWAP1 DIV PUSH4 0xFFFFFFFF AND PUSH1 0x6 DUP6 DUP2 SLOAD DUP2 LT PUSH2 0x1B87 JUMPI PUSH2 0x1B86 PUSH2 0x2CDB JUMP JUMPDEST JUMPDEST SWAP1 PUSH1 0x0 MSTORE PUSH1 0x20 PUSH1 0x0 KECCAK256 SWAP1 PUSH1 0x8 MUL ADD PUSH1 0x4 ADD SLOAD PUSH1 0x6 DUP7 DUP2 SLOAD DUP2 LT PUSH2 0x1BAD JUMPI PUSH2 0x1BAC PUSH2 0x2CDB JUMP JUMPDEST JUMPDEST SWAP1 PUSH1 0x0 MSTORE PUSH1 0x20 PUSH1 0x0 KECCAK256 SWAP1 PUSH1 0x8 MUL ADD PUSH1 0x5 ADD SLOAD PUSH1 0x40 MLOAD PUSH2 0x1BD0 SWAP6 SWAP5 SWAP4 SWAP3 SWAP2 SWAP1 PUSH2 0x2826 JUMP JUMPDEST PUSH1 0x40 MLOAD DUP1 SWAP2 SUB SWAP1 LOG1 JUMPDEST DUP1 DUP1 PUSH2 0x1BE4 SWAP1 PUSH2 0x2B6E JUMP JUMPDEST SWAP2 POP POP PUSH2 0x1A4C JUMP JUMPDEST POP POP JUMP JUMPDEST PUSH2 0x1BF8 PUSH2 0x20C5 JUMP JUMPDEST PUSH20 0xFFFFFFFFFFFFFFFFFFFFFFFFFFFFFFFFFFFFFFFF AND PUSH2 0x1C16 PUSH2 0x17DC JUMP JUMPDEST PUSH20 0xFFFFFFFFFFFFFFFFFFFFFFFFFFFFFFFFFFFFFFFF AND EQ PUSH2 0x1C6C JUMPI PUSH1 0x40 MLOAD PUSH32 0x8C379A000000000000000000000000000000000000000000000000000000000 DUP2 MSTORE PUSH1 0x4 ADD PUSH2 0x1C63 SWAP1 PUSH2 0x28E7 JUMP JUMPDEST PUSH1 0x40 MLOAD DUP1 SWAP2 SUB SWAP1 REVERT JUMPDEST PUSH1 0x0 PUSH20 0xFFFFFFFFFFFFFFFFFFFFFFFFFFFFFFFFFFFFFFFF AND DUP2 PUSH20 0xFFFFFFFFFFFFFFFFFFFFFFFFFFFFFFFFFFFFFFFF AND EQ ISZERO PUSH2 0x1CDC JUMPI PUSH1 0x40 MLOAD PUSH32 0x8C379A000000000000000000000000000000000000000000000000000000000 DUP2 MSTORE PUSH1 0x4 ADD PUSH2 0x1CD3 SWAP1 PUSH2 0x28A7 JUMP JUMPDEST PUSH1 0x40 MLOAD DUP1 SWAP2 SUB SWAP1 REVERT JUMPDEST PUSH2 0x1CE5 DUP2 PUSH2 0x20CD JUMP JUMPDEST POP JUMP JUMPDEST PUSH1 0x0 JUMPDEST PUSH1 0x6 DUP1 SLOAD SWAP1 POP DUP2 LT ISZERO PUSH2 0x1EEB JUMPI DUP3 PUSH20 0xFFFFFFFFFFFFFFFFFFFFFFFFFFFFFFFFFFFFFFFF AND PUSH1 0x6 DUP3 DUP2 SLOAD DUP2 LT PUSH2 0x1D23 JUMPI PUSH2 0x1D22 PUSH2 0x2CDB JUMP JUMPDEST JUMPDEST SWAP1 PUSH1 0x0 MSTORE PUSH1 0x20 PUSH1 0x0 KECCAK256 SWAP1 PUSH1 0x8 MUL ADD PUSH1 0x0 ADD PUSH1 0x0 SWAP1 SLOAD SWAP1 PUSH2 0x100 EXP SWAP1 DIV PUSH20 0xFFFFFFFFFFFFFFFFFFFFFFFFFFFFFFFFFFFFFFFF AND PUSH20 0xFFFFFFFFFFFFFFFFFFFFFFFFFFFFFFFFFFFFFFFF AND EQ ISZERO PUSH2 0x1ED8 JUMPI PUSH1 0x0 PUSH1 0x6 DUP3 DUP2 SLOAD DUP2 LT PUSH2 0x1D87 JUMPI PUSH2 0x1D86 PUSH2 0x2CDB JUMP JUMPDEST JUMPDEST SWAP1 PUSH1 0x0 MSTORE PUSH1 0x20 PUSH1 0x0 KECCAK256 SWAP1 PUSH1 0x8 MUL ADD PUSH1 0x1 ADD DUP1 SLOAD PUSH2 0x1DA3 SWAP1 PUSH2 0x2B0B JUMP JUMPDEST DUP1 PUSH1 0x1F ADD PUSH1 0x20 DUP1 SWAP2 DIV MUL PUSH1 0x20 ADD PUSH1 0x40 MLOAD SWAP1 DUP2 ADD PUSH1 0x40 MSTORE DUP1 SWAP3 SWAP2 SWAP1 DUP2 DUP2 MSTORE PUSH1 0x20 ADD DUP3 DUP1 SLOAD PUSH2 0x1DCF SWAP1 PUSH2 0x2B0B JUMP JUMPDEST DUP1 ISZERO PUSH2 0x1E1C JUMPI DUP1 PUSH1 0x1F LT PUSH2 0x1DF1 JUMPI PUSH2 0x100 DUP1 DUP4 SLOAD DIV MUL DUP4 MSTORE SWAP2 PUSH1 0x20 ADD SWAP2 PUSH2 0x1E1C JUMP JUMPDEST DUP3 ADD SWAP2 SWAP1 PUSH1 0x0 MSTORE PUSH1 0x20 PUSH1 0x0 KECCAK256 SWAP1 JUMPDEST DUP2 SLOAD DUP2 MSTORE SWAP1 PUSH1 0x1 ADD SWAP1 PUSH1 0x20 ADD DUP1 DUP4 GT PUSH2 0x1DFF JUMPI DUP3 SWAP1 SUB PUSH1 0x1F AND DUP3 ADD SWAP2 JUMPDEST POP POP POP POP POP SWAP1 POP PUSH1 0x0 PUSH1 0x6 DUP4 DUP2 SLOAD DUP2 LT PUSH2 0x1E39 JUMPI PUSH2 0x1E38 PUSH2 0x2CDB JUMP JUMPDEST JUMPDEST SWAP1 PUSH1 0x0 MSTORE PUSH1 0x20 PUSH1 0x0 KECCAK256 SWAP1 PUSH1 0x8 MUL ADD PUSH1 0x2 ADD DUP1 SLOAD PUSH2 0x1E55 SWAP1 PUSH2 0x2B0B JUMP JUMPDEST DUP1 PUSH1 0x1F ADD PUSH1 0x20 DUP1 SWAP2 DIV MUL PUSH1 0x20 ADD PUSH1 0x40 MLOAD SWAP1 DUP2 ADD PUSH1 0x40 MSTORE DUP1 SWAP3 SWAP2 SWAP1 DUP2 DUP2 MSTORE PUSH1 0x20 ADD DUP3 DUP1 SLOAD PUSH2 0x1E81 SWAP1 PUSH2 0x2B0B JUMP JUMPDEST DUP1 ISZERO PUSH2 0x1ECE JUMPI DUP1 PUSH1 0x1F LT PUSH2 0x1EA3 JUMPI PUSH2 0x100 DUP1 DUP4 SLOAD DIV MUL DUP4 MSTORE SWAP2 PUSH1 0x20 ADD SWAP2 PUSH2 0x1ECE JUMP JUMPDEST DUP3 ADD SWAP2 SWAP1 PUSH1 0x0 MSTORE PUSH1 0x20 PUSH1 0x0 KECCAK256 SWAP1 JUMPDEST DUP2 SLOAD DUP2 MSTORE SWAP1 PUSH1 0x1 ADD SWAP1 PUSH1 0x20 ADD DUP1 DUP4 GT PUSH2 0x1EB1 JUMPI DUP3 SWAP1 SUB PUSH1 0x1F AND DUP3 ADD SWAP2 JUMPDEST POP POP POP POP POP SWAP1 POP POP POP JUMPDEST DUP1 DUP1 PUSH2 0x1EE3 SWAP1 PUSH2 0x2B6E JUMP JUMPDEST SWAP2 POP POP PUSH2 0x1CEB JUMP JUMPDEST POP POP POP JUMP JUMPDEST PUSH1 0x8 PUSH1 0x0 DUP4 PUSH20 0xFFFFFFFFFFFFFFFFFFFFFFFFFFFFFFFFFFFFFFFF AND PUSH20 0xFFFFFFFFFFFFFFFFFFFFFFFFFFFFFFFFFFFFFFFF AND DUP2 MSTORE PUSH1 0x20 ADD SWAP1 DUP2 MSTORE PUSH1 0x20 ADD PUSH1 0x0 KECCAK256 PUSH1 0x0 DUP2 SLOAD DUP1 SWAP3 SWAP2 SWAP1 PUSH2 0x1F40 SWAP1 PUSH2 0x2B6E JUMP JUMPDEST SWAP2 SWAP1 POP SSTORE POP PUSH1 0x8 PUSH1 0x0 DUP5 PUSH20 0xFFFFFFFFFFFFFFFFFFFFFFFFFFFFFFFFFFFFFFFF AND PUSH20 0xFFFFFFFFFFFFFFFFFFFFFFFFFFFFFFFFFFFFFFFF AND DUP2 MSTORE PUSH1 0x20 ADD SWAP1 DUP2 MSTORE PUSH1 0x20 ADD PUSH1 0x0 KECCAK256 PUSH1 0x0 DUP2 SLOAD DUP1 SWAP3 SWAP2 SWAP1 PUSH2 0x1F95 SWAP1 PUSH2 0x2AE1 JUMP JUMPDEST SWAP2 SWAP1 POP SSTORE POP DUP2 PUSH1 0x7 PUSH1 0x0 DUP4 DUP2 MSTORE PUSH1 0x20 ADD SWAP1 DUP2 MSTORE PUSH1 0x20 ADD PUSH1 0x0 KECCAK256 PUSH1 0x0 PUSH2 0x100 EXP DUP2 SLOAD DUP2 PUSH20 0xFFFFFFFFFFFFFFFFFFFFFFFFFFFFFFFFFFFFFFFF MUL NOT AND SWAP1 DUP4 PUSH20 0xFFFFFFFFFFFFFFFFFFFFFFFFFFFFFFFFFFFFFFFF AND MUL OR SWAP1 SSTORE POP DUP1 DUP3 PUSH20 0xFFFFFFFFFFFFFFFFFFFFFFFFFFFFFFFFFFFFFFFF AND DUP5 PUSH20 0xFFFFFFFFFFFFFFFFFFFFFFFFFFFFFFFFFFFFFFFF AND PUSH32 0xDDF252AD1BE2C89B69C2B068FC378DAA952BA7F163C4A11628F55A4DF523B3EF PUSH1 0x40 MLOAD PUSH1 0x40 MLOAD DUP1 SWAP2 SUB SWAP1 LOG4 POP POP POP JUMP JUMPDEST PUSH1 0x0 TIMESTAMP DUP3 PUSH1 0x6 ADD SLOAD GT ISZERO SWAP1 POP SWAP2 SWAP1 POP JUMP JUMPDEST PUSH1 0x3 SLOAD TIMESTAMP PUSH2 0x206B SWAP2 SWAP1 PUSH2 0x29C9 JUMP JUMPDEST PUSH4 0xFFFFFFFF AND DUP2 PUSH1 0x6 ADD DUP2 SWAP1 SSTORE POP POP JUMP JUMPDEST CALLER PUSH20 0xFFFFFFFFFFFFFFFFFFFFFFFFFFFFFFFFFFFFFFFF AND PUSH2 0x8FC SELFBALANCE SWAP1 DUP2 ISZERO MUL SWAP1 PUSH1 0x40 MLOAD PUSH1 0x0 PUSH1 0x40 MLOAD DUP1 DUP4 SUB DUP2 DUP6 DUP9 DUP9 CALL SWAP4 POP POP POP POP ISZERO DUP1 ISZERO PUSH2 0x20C2 JUMPI RETURNDATASIZE PUSH1 0x0 DUP1 RETURNDATACOPY RETURNDATASIZE PUSH1 0x0 REVERT JUMPDEST POP JUMP JUMPDEST PUSH1 0x0 CALLER SWAP1 POP SWAP1 JUMP JUMPDEST PUSH1 0x0 DUP1 PUSH1 0x0 SWAP1 SLOAD SWAP1 PUSH2 0x100 EXP SWAP1 DIV PUSH20 0xFFFFFFFFFFFFFFFFFFFFFFFFFFFFFFFFFFFFFFFF AND SWAP1 POP DUP2 PUSH1 0x0 DUP1 PUSH2 0x100 EXP DUP2 SLOAD DUP2 PUSH20 0xFFFFFFFFFFFFFFFFFFFFFFFFFFFFFFFFFFFFFFFF MUL NOT AND SWAP1 DUP4 PUSH20 0xFFFFFFFFFFFFFFFFFFFFFFFFFFFFFFFFFFFFFFFF AND MUL OR SWAP1 SSTORE POP DUP2 PUSH20 0xFFFFFFFFFFFFFFFFFFFFFFFFFFFFFFFFFFFFFFFF AND DUP2 PUSH20 0xFFFFFFFFFFFFFFFFFFFFFFFFFFFFFFFFFFFFFFFF AND PUSH32 0x8BE0079C531659141344CD1FD0A4F28419497F9722A3DAAFE3B4186F6B6457E0 PUSH1 0x40 MLOAD PUSH1 0x40 MLOAD DUP1 SWAP2 SUB SWAP1 LOG3 POP POP JUMP JUMPDEST DUP3 DUP1 SLOAD PUSH2 0x219D SWAP1 PUSH2 0x2B0B JUMP JUMPDEST SWAP1 PUSH1 0x0 MSTORE PUSH1 0x20 PUSH1 0x0 KECCAK256 SWAP1 PUSH1 0x1F ADD PUSH1 0x20 SWAP1 DIV DUP2 ADD SWAP3 DUP3 PUSH2 0x21BF JUMPI PUSH1 0x0 DUP6 SSTORE PUSH2 0x2206 JUMP JUMPDEST DUP3 PUSH1 0x1F LT PUSH2 0x21D8 JUMPI DUP1 MLOAD PUSH1 0xFF NOT AND DUP4 DUP1 ADD OR DUP6 SSTORE PUSH2 0x2206 JUMP JUMPDEST DUP3 DUP1 ADD PUSH1 0x1 ADD DUP6 SSTORE DUP3 ISZERO PUSH2 0x2206 JUMPI SWAP2 DUP3 ADD JUMPDEST DUP3 DUP2 GT ISZERO PUSH2 0x2205 JUMPI DUP3 MLOAD DUP3 SSTORE SWAP2 PUSH1 0x20 ADD SWAP2 SWAP1 PUSH1 0x1 ADD SWAP1 PUSH2 0x21EA JUMP JUMPDEST JUMPDEST POP SWAP1 POP PUSH2 0x2213 SWAP2 SWAP1 PUSH2 0x2257 JUMP JUMPDEST POP SWAP1 JUMP JUMPDEST POP DUP1 SLOAD PUSH2 0x2223 SWAP1 PUSH2 0x2B0B JUMP JUMPDEST PUSH1 0x0 DUP3 SSTORE DUP1 PUSH1 0x1F LT PUSH2 0x2235 JUMPI POP PUSH2 0x2254 JUMP JUMPDEST PUSH1 0x1F ADD PUSH1 0x20 SWAP1 DIV SWAP1 PUSH1 0x0 MSTORE PUSH1 0x20 PUSH1 0x0 KECCAK256 SWAP1 DUP2 ADD SWAP1 PUSH2 0x2253 SWAP2 SWAP1 PUSH2 0x2257 JUMP JUMPDEST JUMPDEST POP JUMP JUMPDEST JUMPDEST DUP1 DUP3 GT ISZERO PUSH2 0x2270 JUMPI PUSH1 0x0 DUP2 PUSH1 0x0 SWAP1 SSTORE POP PUSH1 0x1 ADD PUSH2 0x2258 JUMP JUMPDEST POP SWAP1 JUMP JUMPDEST PUSH1 0x0 PUSH2 0x2287 PUSH2 0x2282 DUP5 PUSH2 0x2967 JUMP JUMPDEST PUSH2 0x2942 JUMP JUMPDEST SWAP1 POP DUP3 DUP2 MSTORE PUSH1 0x20 DUP2 ADD DUP5 DUP5 DUP5 ADD GT ISZERO PUSH2 0x22A3 JUMPI PUSH2 0x22A2 PUSH2 0x2D3E JUMP JUMPDEST JUMPDEST PUSH2 0x22AE DUP5 DUP3 DUP6 PUSH2 0x2A9F JUMP JUMPDEST POP SWAP4 SWAP3 POP POP POP JUMP JUMPDEST PUSH1 0x0 DUP2 CALLDATALOAD SWAP1 POP PUSH2 0x22C5 DUP2 PUSH2 0x2E9D JUMP JUMPDEST SWAP3 SWAP2 POP POP JUMP JUMPDEST PUSH1 0x0 DUP3 PUSH1 0x1F DUP4 ADD SLT PUSH2 0x22E0 JUMPI PUSH2 0x22DF PUSH2 0x2D39 JUMP JUMPDEST JUMPDEST DUP2 CALLDATALOAD PUSH2 0x22F0 DUP5 DUP3 PUSH1 0x20 DUP7 ADD PUSH2 0x2274 JUMP JUMPDEST SWAP2 POP POP SWAP3 SWAP2 POP POP JUMP JUMPDEST PUSH1 0x0 DUP2 CALLDATALOAD SWAP1 POP PUSH2 0x2308 DUP2 PUSH2 0x2EB4 JUMP JUMPDEST SWAP3 SWAP2 POP POP JUMP JUMPDEST PUSH1 0x0 PUSH1 0x20 DUP3 DUP5 SUB SLT ISZERO PUSH2 0x2324 JUMPI PUSH2 0x2323 PUSH2 0x2D48 JUMP JUMPDEST JUMPDEST PUSH1 0x0 PUSH2 0x2332 DUP5 DUP3 DUP6 ADD PUSH2 0x22B6 JUMP JUMPDEST SWAP2 POP POP SWAP3 SWAP2 POP POP JUMP JUMPDEST PUSH1 0x0 DUP1 PUSH1 0x40 DUP4 DUP6 SUB SLT ISZERO PUSH2 0x2352 JUMPI PUSH2 0x2351 PUSH2 0x2D48 JUMP JUMPDEST JUMPDEST PUSH1 0x0 PUSH2 0x2360 DUP6 DUP3 DUP7 ADD PUSH2 0x22B6 JUMP JUMPDEST SWAP3 POP POP PUSH1 0x20 PUSH2 0x2371 DUP6 DUP3 DUP7 ADD PUSH2 0x22B6 JUMP JUMPDEST SWAP2 POP POP SWAP3 POP SWAP3 SWAP1 POP JUMP JUMPDEST PUSH1 0x0 DUP1 PUSH1 0x0 PUSH1 0x60 DUP5 DUP7 SUB SLT ISZERO PUSH2 0x2394 JUMPI PUSH2 0x2393 PUSH2 0x2D48 JUMP JUMPDEST JUMPDEST PUSH1 0x0 PUSH2 0x23A2 DUP7 DUP3 DUP8 ADD PUSH2 0x22B6 JUMP JUMPDEST SWAP4 POP POP PUSH1 0x20 PUSH2 0x23B3 DUP7 DUP3 DUP8 ADD PUSH2 0x22B6 JUMP JUMPDEST SWAP3 POP POP PUSH1 0x40 PUSH2 0x23C4 DUP7 DUP3 DUP8 ADD PUSH2 0x22F9 JUMP JUMPDEST SWAP2 POP POP SWAP3 POP SWAP3 POP SWAP3 JUMP JUMPDEST PUSH1 0x0 DUP1 PUSH1 0x0 PUSH1 0x60 DUP5 DUP7 SUB SLT ISZERO PUSH2 0x23E7 JUMPI PUSH2 0x23E6 PUSH2 0x2D48 JUMP JUMPDEST JUMPDEST PUSH1 0x0 PUSH2 0x23F5 DUP7 DUP3 DUP8 ADD PUSH2 0x22B6 JUMP JUMPDEST SWAP4 POP POP PUSH1 0x20 DUP5 ADD CALLDATALOAD PUSH8 0xFFFFFFFFFFFFFFFF DUP2 GT ISZERO PUSH2 0x2416 JUMPI PUSH2 0x2415 PUSH2 0x2D43 JUMP JUMPDEST JUMPDEST PUSH2 0x2422 DUP7 DUP3 DUP8 ADD PUSH2 0x22CB JUMP JUMPDEST SWAP3 POP POP PUSH1 0x40 DUP5 ADD CALLDATALOAD PUSH8 0xFFFFFFFFFFFFFFFF DUP2 GT ISZERO PUSH2 0x2443 JUMPI PUSH2 0x2442 PUSH2 0x2D43 JUMP JUMPDEST JUMPDEST PUSH2 0x244F DUP7 DUP3 DUP8 ADD PUSH2 0x22CB JUMP JUMPDEST SWAP2 POP POP SWAP3 POP SWAP3 POP SWAP3 JUMP JUMPDEST PUSH1 0x0 DUP1 PUSH1 0x40 DUP4 DUP6 SUB SLT ISZERO PUSH2 0x2470 JUMPI PUSH2 0x246F PUSH2 0x2D48 JUMP JUMPDEST JUMPDEST PUSH1 0x0 PUSH2 0x247E DUP6 DUP3 DUP7 ADD PUSH2 0x22B6 JUMP JUMPDEST SWAP3 POP POP PUSH1 0x20 PUSH2 0x248F DUP6 DUP3 DUP7 ADD PUSH2 0x22F9 JUMP JUMPDEST SWAP2 POP POP SWAP3 POP SWAP3 SWAP1 POP JUMP JUMPDEST PUSH1 0x0 DUP1 PUSH1 0x0 PUSH1 0x60 DUP5 DUP7 SUB SLT ISZERO PUSH2 0x24B2 JUMPI PUSH2 0x24B1 PUSH2 0x2D48 JUMP JUMPDEST JUMPDEST PUSH1 0x0 DUP5 ADD CALLDATALOAD PUSH8 0xFFFFFFFFFFFFFFFF DUP2 GT ISZERO PUSH2 0x24D0 JUMPI PUSH2 0x24CF PUSH2 0x2D43 JUMP JUMPDEST JUMPDEST PUSH2 0x24DC DUP7 DUP3 DUP8 ADD PUSH2 0x22CB JUMP JUMPDEST SWAP4 POP POP PUSH1 0x20 DUP5 ADD CALLDATALOAD PUSH8 0xFFFFFFFFFFFFFFFF DUP2 GT ISZERO PUSH2 0x24FD JUMPI PUSH2 0x24FC PUSH2 0x2D43 JUMP JUMPDEST JUMPDEST PUSH2 0x2509 DUP7 DUP3 DUP8 ADD PUSH2 0x22CB JUMP JUMPDEST SWAP3 POP POP PUSH1 0x40 DUP5 ADD CALLDATALOAD PUSH8 0xFFFFFFFFFFFFFFFF DUP2 GT ISZERO PUSH2 0x252A JUMPI PUSH2 0x2529 PUSH2 0x2D43 JUMP JUMPDEST JUMPDEST PUSH2 0x2536 DUP7 DUP3 DUP8 ADD PUSH2 0x22CB JUMP JUMPDEST SWAP2 POP POP SWAP3 POP SWAP3 POP SWAP3 JUMP JUMPDEST PUSH1 0x0 PUSH1 0x20 DUP3 DUP5 SUB SLT ISZERO PUSH2 0x2556 JUMPI PUSH2 0x2555 PUSH2 0x2D48 JUMP JUMPDEST JUMPDEST PUSH1 0x0 PUSH2 0x2564 DUP5 DUP3 DUP6 ADD PUSH2 0x22F9 JUMP JUMPDEST SWAP2 POP POP SWAP3 SWAP2 POP POP JUMP JUMPDEST PUSH2 0x2576 DUP2 PUSH2 0x2A53 JUMP JUMPDEST DUP3 MSTORE POP POP JUMP JUMPDEST PUSH1 0x0 PUSH2 0x2587 DUP3 PUSH2 0x29AD JUMP JUMPDEST PUSH2 0x2591 DUP2 DUP6 PUSH2 0x29B8 JUMP JUMPDEST SWAP4 POP PUSH2 0x25A1 DUP2 DUP6 PUSH1 0x20 DUP7 ADD PUSH2 0x2AAE JUMP JUMPDEST PUSH2 0x25AA DUP2 PUSH2 0x2D4D JUMP JUMPDEST DUP5 ADD SWAP2 POP POP SWAP3 SWAP2 POP POP JUMP JUMPDEST PUSH1 0x0 DUP2 SLOAD PUSH2 0x25C2 DUP2 PUSH2 0x2B0B JUMP JUMPDEST PUSH2 0x25CC DUP2 DUP7 PUSH2 0x29B8 JUMP JUMPDEST SWAP5 POP PUSH1 0x1 DUP3 AND PUSH1 0x0 DUP2 EQ PUSH2 0x25E7 JUMPI PUSH1 0x1 DUP2 EQ PUSH2 0x25F9 JUMPI PUSH2 0x262C JUMP JUMPDEST PUSH1 0xFF NOT DUP4 AND DUP7 MSTORE PUSH1 0x20 DUP7 ADD SWAP4 POP PUSH2 0x262C JUMP JUMPDEST PUSH2 0x2602 DUP6 PUSH2 0x2998 JUMP JUMPDEST PUSH1 0x0 JUMPDEST DUP4 DUP2 LT ISZERO PUSH2 0x2624 JUMPI DUP2 SLOAD DUP2 DUP10 ADD MSTORE PUSH1 0x1 DUP3 ADD SWAP2 POP PUSH1 0x20 DUP2 ADD SWAP1 POP PUSH2 0x2605 JUMP JUMPDEST DUP1 DUP9 ADD SWAP6 POP POP POP JUMPDEST POP POP POP SWAP3 SWAP2 POP POP JUMP JUMPDEST PUSH1 0x0 PUSH2 0x2642 PUSH1 0x28 DUP4 PUSH2 0x29B8 JUMP JUMPDEST SWAP2 POP PUSH2 0x264D DUP3 PUSH2 0x2D5E JUMP JUMPDEST PUSH1 0x40 DUP3 ADD SWAP1 POP SWAP2 SWAP1 POP JUMP JUMPDEST PUSH1 0x0 PUSH2 0x2665 PUSH1 0x26 DUP4 PUSH2 0x29B8 JUMP JUMPDEST SWAP2 POP PUSH2 0x2670 DUP3 PUSH2 0x2DAD JUMP JUMPDEST PUSH1 0x40 DUP3 ADD SWAP1 POP SWAP2 SWAP1 POP JUMP JUMPDEST PUSH1 0x0 PUSH2 0x2688 PUSH1 0x32 DUP4 PUSH2 0x29B8 JUMP JUMPDEST SWAP2 POP PUSH2 0x2693 DUP3 PUSH2 0x2DFC JUMP JUMPDEST PUSH1 0x40 DUP3 ADD SWAP1 POP SWAP2 SWAP1 POP JUMP JUMPDEST PUSH1 0x0 PUSH2 0x26AB PUSH1 0x20 DUP4 PUSH2 0x29B8 JUMP JUMPDEST SWAP2 POP PUSH2 0x26B6 DUP3 PUSH2 0x2E4B JUMP JUMPDEST PUSH1 0x20 DUP3 ADD SWAP1 POP SWAP2 SWAP1 POP JUMP JUMPDEST PUSH1 0x0 PUSH2 0x26CE PUSH1 0x15 DUP4 PUSH2 0x29B8 JUMP JUMPDEST SWAP2 POP PUSH2 0x26D9 DUP3 PUSH2 0x2E74 JUMP JUMPDEST PUSH1 0x20 DUP3 ADD SWAP1 POP SWAP2 SWAP1 POP JUMP JUMPDEST PUSH2 0x26ED DUP2 PUSH2 0x2A85 JUMP JUMPDEST DUP3 MSTORE POP POP JUMP JUMPDEST PUSH2 0x2704 PUSH2 0x26FF DUP3 PUSH2 0x2A85 JUMP JUMPDEST PUSH2 0x2BE4 JUMP JUMPDEST DUP3 MSTORE POP POP JUMP JUMPDEST PUSH2 0x2713 DUP2 PUSH2 0x2A8F JUMP JUMPDEST DUP3 MSTORE POP POP JUMP JUMPDEST PUSH1 0x0 PUSH2 0x2725 DUP3 DUP7 PUSH2 0x26F3 JUMP JUMPDEST PUSH1 0x20 DUP3 ADD SWAP2 POP PUSH2 0x2735 DUP3 DUP6 PUSH2 0x26F3 JUMP JUMPDEST PUSH1 0x20 DUP3 ADD SWAP2 POP PUSH2 0x2745 DUP3 DUP5 PUSH2 0x26F3 JUMP JUMPDEST PUSH1 0x20 DUP3 ADD SWAP2 POP DUP2 SWAP1 POP SWAP5 SWAP4 POP POP POP POP JUMP JUMPDEST PUSH1 0x0 PUSH1 0x20 DUP3 ADD SWAP1 POP PUSH2 0x276B PUSH1 0x0 DUP4 ADD DUP5 PUSH2 0x256D JUMP JUMPDEST SWAP3 SWAP2 POP POP JUMP JUMPDEST PUSH1 0x0 PUSH2 0x100 DUP3 ADD SWAP1 POP PUSH2 0x2787 PUSH1 0x0 DUP4 ADD DUP12 PUSH2 0x256D JUMP JUMPDEST DUP2 DUP2 SUB PUSH1 0x20 DUP4 ADD MSTORE PUSH2 0x2799 DUP2 DUP11 PUSH2 0x257C JUMP JUMPDEST SWAP1 POP DUP2 DUP2 SUB PUSH1 0x40 DUP4 ADD MSTORE PUSH2 0x27AD DUP2 DUP10 PUSH2 0x257C JUMP JUMPDEST SWAP1 POP DUP2 DUP2 SUB PUSH1 0x60 DUP4 ADD MSTORE PUSH2 0x27C1 DUP2 DUP9 PUSH2 0x257C JUMP JUMPDEST SWAP1 POP PUSH2 0x27D0 PUSH1 0x80 DUP4 ADD DUP8 PUSH2 0x26E4 JUMP JUMPDEST PUSH2 0x27DD PUSH1 0xA0 DUP4 ADD DUP7 PUSH2 0x26E4 JUMP JUMPDEST PUSH2 0x27EA PUSH1 0xC0 DUP4 ADD DUP6 PUSH2 0x26E4 JUMP JUMPDEST PUSH2 0x27F7 PUSH1 0xE0 DUP4 ADD DUP5 PUSH2 0x270A JUMP JUMPDEST SWAP10 SWAP9 POP POP POP POP POP POP POP POP POP JUMP JUMPDEST PUSH1 0x0 PUSH1 0x20 DUP3 ADD SWAP1 POP DUP2 DUP2 SUB PUSH1 0x0 DUP4 ADD MSTORE PUSH2 0x281E DUP2 DUP5 PUSH2 0x257C JUMP JUMPDEST SWAP1 POP SWAP3 SWAP2 POP POP JUMP JUMPDEST PUSH1 0x0 PUSH1 0xA0 DUP3 ADD SWAP1 POP DUP2 DUP2 SUB PUSH1 0x0 DUP4 ADD MSTORE PUSH2 0x2840 DUP2 DUP9 PUSH2 0x25B5 JUMP JUMPDEST SWAP1 POP DUP2 DUP2 SUB PUSH1 0x20 DUP4 ADD MSTORE PUSH2 0x2854 DUP2 DUP8 PUSH2 0x25B5 JUMP JUMPDEST SWAP1 POP PUSH2 0x2863 PUSH1 0x40 DUP4 ADD DUP7 PUSH2 0x270A JUMP JUMPDEST PUSH2 0x2870 PUSH1 0x60 DUP4 ADD DUP6 PUSH2 0x26E4 JUMP JUMPDEST PUSH2 0x287D PUSH1 0x80 DUP4 ADD DUP5 PUSH2 0x26E4 JUMP JUMPDEST SWAP7 SWAP6 POP POP POP POP POP POP JUMP JUMPDEST PUSH1 0x0 PUSH1 0x20 DUP3 ADD SWAP1 POP DUP2 DUP2 SUB PUSH1 0x0 DUP4 ADD MSTORE PUSH2 0x28A0 DUP2 PUSH2 0x2635 JUMP JUMPDEST SWAP1 POP SWAP2 SWAP1 POP JUMP JUMPDEST PUSH1 0x0 PUSH1 0x20 DUP3 ADD SWAP1 POP DUP2 DUP2 SUB PUSH1 0x0 DUP4 ADD MSTORE PUSH2 0x28C0 DUP2 PUSH2 0x2658 JUMP JUMPDEST SWAP1 POP SWAP2 SWAP1 POP JUMP JUMPDEST PUSH1 0x0 PUSH1 0x20 DUP3 ADD SWAP1 POP DUP2 DUP2 SUB PUSH1 0x0 DUP4 ADD MSTORE PUSH2 0x28E0 DUP2 PUSH2 0x267B JUMP JUMPDEST SWAP1 POP SWAP2 SWAP1 POP JUMP JUMPDEST PUSH1 0x0 PUSH1 0x20 DUP3 ADD SWAP1 POP DUP2 DUP2 SUB PUSH1 0x0 DUP4 ADD MSTORE PUSH2 0x2900 DUP2 PUSH2 0x269E JUMP JUMPDEST SWAP1 POP SWAP2 SWAP1 POP JUMP JUMPDEST PUSH1 0x0 PUSH1 0x20 DUP3 ADD SWAP1 POP DUP2 DUP2 SUB PUSH1 0x0 DUP4 ADD MSTORE PUSH2 0x2920 DUP2 PUSH2 0x26C1 JUMP JUMPDEST SWAP1 POP SWAP2 SWAP1 POP JUMP JUMPDEST PUSH1 0x0 PUSH1 0x20 DUP3 ADD SWAP1 POP PUSH2 0x293C PUSH1 0x0 DUP4 ADD DUP5 PUSH2 0x26E4 JUMP JUMPDEST SWAP3 SWAP2 POP POP JUMP JUMPDEST PUSH1 0x0 PUSH2 0x294C PUSH2 0x295D JUMP JUMPDEST SWAP1 POP PUSH2 0x2958 DUP3 DUP3 PUSH2 0x2B3D JUMP JUMPDEST SWAP2 SWAP1 POP JUMP JUMPDEST PUSH1 0x0 PUSH1 0x40 MLOAD SWAP1 POP SWAP1 JUMP JUMPDEST PUSH1 0x0 PUSH8 0xFFFFFFFFFFFFFFFF DUP3 GT ISZERO PUSH2 0x2982 JUMPI PUSH2 0x2981 PUSH2 0x2D0A JUMP JUMPDEST JUMPDEST PUSH2 0x298B DUP3 PUSH2 0x2D4D JUMP JUMPDEST SWAP1 POP PUSH1 0x20 DUP2 ADD SWAP1 POP SWAP2 SWAP1 POP JUMP JUMPDEST PUSH1 0x0 DUP2 SWAP1 POP DUP2 PUSH1 0x0 MSTORE PUSH1 0x20 PUSH1 0x0 KECCAK256 SWAP1 POP SWAP2 SWAP1 POP JUMP JUMPDEST PUSH1 0x0 DUP2 MLOAD SWAP1 POP SWAP2 SWAP1 POP JUMP JUMPDEST PUSH1 0x0 DUP3 DUP3 MSTORE PUSH1 0x20 DUP3 ADD SWAP1 POP SWAP3 SWAP2 POP POP JUMP JUMPDEST PUSH1 0x0 PUSH2 0x29D4 DUP3 PUSH2 0x2A85 JUMP JUMPDEST SWAP2 POP PUSH2 0x29DF DUP4 PUSH2 0x2A85 JUMP JUMPDEST SWAP3 POP DUP3 PUSH32 0xFFFFFFFFFFFFFFFFFFFFFFFFFFFFFFFFFFFFFFFFFFFFFFFFFFFFFFFFFFFFFFFF SUB DUP3 GT ISZERO PUSH2 0x2A14 JUMPI PUSH2 0x2A13 PUSH2 0x2C1F JUMP JUMPDEST JUMPDEST DUP3 DUP3 ADD SWAP1 POP SWAP3 SWAP2 POP POP JUMP JUMPDEST PUSH1 0x0 PUSH2 0x2A2A DUP3 PUSH2 0x2A85 JUMP JUMPDEST SWAP2 POP PUSH2 0x2A35 DUP4 PUSH2 0x2A85 JUMP JUMPDEST SWAP3 POP DUP3 DUP3 LT ISZERO PUSH2 0x2A48 JUMPI PUSH2 0x2A47 PUSH2 0x2C1F JUMP JUMPDEST JUMPDEST DUP3 DUP3 SUB SWAP1 POP SWAP3 SWAP2 POP POP JUMP JUMPDEST PUSH1 0x0 PUSH2 0x2A5E DUP3 PUSH2 0x2A65 JUMP JUMPDEST SWAP1 POP SWAP2 SWAP1 POP JUMP JUMPDEST PUSH1 0x0 PUSH20 0xFFFFFFFFFFFFFFFFFFFFFFFFFFFFFFFFFFFFFFFF DUP3 AND SWAP1 POP SWAP2 SWAP1 POP JUMP JUMPDEST PUSH1 0x0 DUP2 SWAP1 POP SWAP2 SWAP1 POP JUMP JUMPDEST PUSH1 0x0 PUSH4 0xFFFFFFFF DUP3 AND SWAP1 POP SWAP2 SWAP1 POP JUMP JUMPDEST DUP3 DUP2 DUP4 CALLDATACOPY PUSH1 0x0 DUP4 DUP4 ADD MSTORE POP POP POP JUMP JUMPDEST PUSH1 0x0 JUMPDEST DUP4 DUP2 LT ISZERO PUSH2 0x2ACC JUMPI DUP1 DUP3 ADD MLOAD DUP2 DUP5 ADD MSTORE PUSH1 0x20 DUP2 ADD SWAP1 POP PUSH2 0x2AB1 JUMP JUMPDEST DUP4 DUP2 GT ISZERO PUSH2 0x2ADB JUMPI PUSH1 0x0 DUP5 DUP5 ADD MSTORE JUMPDEST POP POP POP POP JUMP JUMPDEST PUSH1 0x0 PUSH2 0x2AEC DUP3 PUSH2 0x2A85 JUMP JUMPDEST SWAP2 POP PUSH1 0x0 DUP3 EQ ISZERO PUSH2 0x2B00 JUMPI PUSH2 0x2AFF PUSH2 0x2C1F JUMP JUMPDEST JUMPDEST PUSH1 0x1 DUP3 SUB SWAP1 POP SWAP2 SWAP1 POP JUMP JUMPDEST PUSH1 0x0 PUSH1 0x2 DUP3 DIV SWAP1 POP PUSH1 0x1 DUP3 AND DUP1 PUSH2 0x2B23 JUMPI PUSH1 0x7F DUP3 AND SWAP2 POP JUMPDEST PUSH1 0x20 DUP3 LT DUP2 EQ ISZERO PUSH2 0x2B37 JUMPI PUSH2 0x2B36 PUSH2 0x2C7D JUMP JUMPDEST JUMPDEST POP SWAP2 SWAP1 POP JUMP JUMPDEST PUSH2 0x2B46 DUP3 PUSH2 0x2D4D JUMP JUMPDEST DUP2 ADD DUP2 DUP2 LT PUSH8 0xFFFFFFFFFFFFFFFF DUP3 GT OR ISZERO PUSH2 0x2B65 JUMPI PUSH2 0x2B64 PUSH2 0x2D0A JUMP JUMPDEST JUMPDEST DUP1 PUSH1 0x40 MSTORE POP POP POP JUMP JUMPDEST PUSH1 0x0 PUSH2 0x2B79 DUP3 PUSH2 0x2A85 JUMP JUMPDEST SWAP2 POP PUSH32 0xFFFFFFFFFFFFFFFFFFFFFFFFFFFFFFFFFFFFFFFFFFFFFFFFFFFFFFFFFFFFFFFF DUP3 EQ ISZERO PUSH2 0x2BAC JUMPI PUSH2 0x2BAB PUSH2 0x2C1F JUMP JUMPDEST JUMPDEST PUSH1 0x1 DUP3 ADD SWAP1 POP SWAP2 SWAP1 POP JUMP JUMPDEST PUSH1 0x0 PUSH2 0x2BC2 DUP3 PUSH2 0x2A8F JUMP JUMPDEST SWAP2 POP PUSH4 0xFFFFFFFF DUP3 EQ ISZERO PUSH2 0x2BD9 JUMPI PUSH2 0x2BD8 PUSH2 0x2C1F JUMP JUMPDEST JUMPDEST PUSH1 0x1 DUP3 ADD SWAP1 POP SWAP2 SWAP1 POP JUMP JUMPDEST PUSH1 0x0 DUP2 SWAP1 POP SWAP2 SWAP1 POP JUMP JUMPDEST PUSH1 0x0 PUSH2 0x2BF9 DUP3 PUSH2 0x2A85 JUMP JUMPDEST SWAP2 POP PUSH2 0x2C04 DUP4 PUSH2 0x2A85 JUMP JUMPDEST SWAP3 POP DUP3 PUSH2 0x2C14 JUMPI PUSH2 0x2C13 PUSH2 0x2C4E JUMP JUMPDEST JUMPDEST DUP3 DUP3 MOD SWAP1 POP SWAP3 SWAP2 POP POP JUMP JUMPDEST PUSH32 0x4E487B7100000000000000000000000000000000000000000000000000000000 PUSH1 0x0 MSTORE PUSH1 0x11 PUSH1 0x4 MSTORE PUSH1 0x24 PUSH1 0x0 REVERT JUMPDEST PUSH32 0x4E487B7100000000000000000000000000000000000000000000000000000000 PUSH1 0x0 MSTORE PUSH1 0x12 PUSH1 0x4 MSTORE PUSH1 0x24 PUSH1 0x0 REVERT JUMPDEST PUSH32 0x4E487B7100000000000000000000000000000000000000000000000000000000 PUSH1 0x0 MSTORE PUSH1 0x22 PUSH1 0x4 MSTORE PUSH1 0x24 PUSH1 0x0 REVERT JUMPDEST PUSH32 0x4E487B7100000000000000000000000000000000000000000000000000000000 PUSH1 0x0 MSTORE PUSH1 0x31 PUSH1 0x4 MSTORE PUSH1 0x24 PUSH1 0x0 REVERT JUMPDEST PUSH32 0x4E487B7100000000000000000000000000000000000000000000000000000000 PUSH1 0x0 MSTORE PUSH1 0x32 PUSH1 0x4 MSTORE PUSH1 0x24 PUSH1 0x0 REVERT JUMPDEST PUSH32 0x4E487B7100000000000000000000000000000000000000000000000000000000 PUSH1 0x0 MSTORE PUSH1 0x41 PUSH1 0x4 MSTORE PUSH1 0x24 PUSH1 0x0 REVERT JUMPDEST PUSH1 0x0 DUP1 REVERT JUMPDEST PUSH1 0x0 DUP1 REVERT JUMPDEST PUSH1 0x0 DUP1 REVERT JUMPDEST PUSH1 0x0 DUP1 REVERT JUMPDEST PUSH1 0x0 PUSH1 0x1F NOT PUSH1 0x1F DUP4 ADD AND SWAP1 POP SWAP2 SWAP1 POP JUMP JUMPDEST PUSH32 0x536F6C6F2073652070756564652074656E657220756E20636F63686520706F72 PUSH1 0x0 DUP3 ADD MSTORE PUSH32 0x20706572736F6E61000000000000000000000000000000000000000000000000 PUSH1 0x20 DUP3 ADD MSTORE POP JUMP JUMPDEST PUSH32 0x4F776E61626C653A206E6577206F776E657220697320746865207A65726F2061 PUSH1 0x0 DUP3 ADD MSTORE PUSH32 0x6464726573730000000000000000000000000000000000000000000000000000 PUSH1 0x20 DUP3 ADD MSTORE POP JUMP JUMPDEST PUSH32 0x4E6F2068617920636F6368657320737566696369656E74657320706172612069 PUSH1 0x0 DUP3 ADD MSTORE PUSH32 0x6E696369617220756E6120636172726572610000000000000000000000000000 PUSH1 0x20 DUP3 ADD MSTORE POP JUMP JUMPDEST PUSH32 0x4F776E61626C653A2063616C6C6572206973206E6F7420746865206F776E6572 PUSH1 0x0 DUP3 ADD MSTORE POP JUMP JUMPDEST PUSH32 0x456C20636F6368652067616E61646F722065733A200000000000000000000000 PUSH1 0x0 DUP3 ADD MSTORE POP JUMP JUMPDEST PUSH2 0x2EA6 DUP2 PUSH2 0x2A53 JUMP JUMPDEST DUP2 EQ PUSH2 0x2EB1 JUMPI PUSH1 0x0 DUP1 REVERT JUMPDEST POP JUMP JUMPDEST PUSH2 0x2EBD DUP2 PUSH2 0x2A85 JUMP JUMPDEST DUP2 EQ PUSH2 0x2EC8 JUMPI PUSH1 0x0 DUP1 REVERT JUMPDEST POP JUMP INVALID LOG2 PUSH5 0x6970667358 0x22 SLT KECCAK256 DUP2 0xFC ADD DUP1 SGT SGT RETURN 0xDA 0xC 0x1F 0xBB 0xCB DUP3 0x4D PUSH14 0xA3B231A9BF4F18BCFA939D4A7CCB CALLDATASIZE SWAP14 RETURNDATASIZE PUSH5 0x736F6C6343 STOP ADDMOD SMOD STOP CALLER "
				},
				"gasEstimates": {
					"creation": {
						"codeDepositCost": "2406600",
						"executionCost": "infinite",
						"totalCost": "infinite"
					},
					"external": {
						"Apostar(uint256)": "infinite",
						"_owner()": "2533",
						"anadirCoche(string,string,string)": "infinite",
						"approve(address,uint256)": "29170",
						"balanceOf(address)": "2864",
						"borrarCoche(address)": "infinite",
						"cocheDePropietario(uint256)": "2906",
						"comprarCoche(address,string,string)": "infinite",
						"crearCoche(address,address)": "infinite",
						"listaCoches(uint256)": "infinite",
						"numeroCochesPersona(address)": "2904",
						"owner()": "2611",
						"ownerOf(uint256)": "2932",
						"renounceOwnership()": "30419",
						"subirDeNivel(address)": "infinite",
						"transferFrom(address,address,uint256)": "infinite",
						"transferOwnership(address)": "30811",
						"verCochePropietario(address)": "infinite"
					},
					"internal": {
						"_transfer(address,address,uint256)": "infinite"
					}
				},
				"methodIdentifiers": {
					"Apostar(uint256)": "6b6f0494",
					"_owner()": "b2bdfa7b",
					"anadirCoche(string,string,string)": "2458c544",
					"approve(address,uint256)": "095ea7b3",
					"balanceOf(address)": "70a08231",
					"borrarCoche(address)": "17bde7a9",
					"cocheDePropietario(uint256)": "858b0554",
					"comprarCoche(address,string,string)": "049a5f65",
					"crearCoche(address,address)": "ffe20b64",
					"listaCoches(uint256)": "d735573d",
					"numeroCochesPersona(address)": "1c6743e4",
					"owner()": "8da5cb5b",
					"ownerOf(uint256)": "6352211e",
					"renounceOwnership()": "715018a6",
					"subirDeNivel(address)": "6a7d1816",
					"transferFrom(address,address,uint256)": "23b872dd",
					"transferOwnership(address)": "f2fde38b",
					"verCochePropietario(address)": "e172fca8"
				}
			},
			"storageLayout": {
				"storage": [
					{
						"astId": 260,
						"contract": "contracts/CarreraCoches/cocheToken.sol:CocheToken",
						"label": "_owner",
						"offset": 0,
						"slot": "0",
						"type": "t_address"
					},
					{
						"astId": 382,
						"contract": "contracts/CarreraCoches/cocheToken.sol:CocheToken",
						"label": "randNonce",
						"offset": 0,
						"slot": "1",
						"type": "t_uint256"
					},
					{
						"astId": 385,
						"contract": "contracts/CarreraCoches/cocheToken.sol:CocheToken",
						"label": "contador",
						"offset": 0,
						"slot": "2",
						"type": "t_uint256"
					},
					{
						"astId": 388,
						"contract": "contracts/CarreraCoches/cocheToken.sol:CocheToken",
						"label": "cooldown",
						"offset": 0,
						"slot": "3",
						"type": "t_uint256"
					},
					{
						"astId": 391,
						"contract": "contracts/CarreraCoches/cocheToken.sol:CocheToken",
						"label": "subirNivel",
						"offset": 0,
						"slot": "4",
						"type": "t_uint256"
					},
					{
						"astId": 394,
						"contract": "contracts/CarreraCoches/cocheToken.sol:CocheToken",
						"label": "cambiarCocheV",
						"offset": 0,
						"slot": "5",
						"type": "t_uint256"
					},
					{
						"astId": 398,
						"contract": "contracts/CarreraCoches/cocheToken.sol:CocheToken",
						"label": "listaCoches",
						"offset": 0,
						"slot": "6",
						"type": "t_array(t_struct(Coche)379_storage)dyn_storage"
					},
					{
						"astId": 428,
						"contract": "contracts/CarreraCoches/cocheToken.sol:CocheToken",
						"label": "cocheDePropietario",
						"offset": 0,
						"slot": "7",
						"type": "t_mapping(t_uint256,t_address)"
					},
					{
						"astId": 432,
						"contract": "contracts/CarreraCoches/cocheToken.sol:CocheToken",
						"label": "numeroCochesPersona",
						"offset": 0,
						"slot": "8",
						"type": "t_mapping(t_address,t_uint256)"
					},
					{
						"astId": 11,
						"contract": "contracts/CarreraCoches/cocheToken.sol:CocheToken",
						"label": "confirmarTransferencia",
						"offset": 0,
						"slot": "9",
						"type": "t_mapping(t_uint256,t_address)"
					}
				],
				"types": {
					"t_address": {
						"encoding": "inplace",
						"label": "address",
						"numberOfBytes": "20"
					},
					"t_array(t_struct(Coche)379_storage)dyn_storage": {
						"base": "t_struct(Coche)379_storage",
						"encoding": "dynamic_array",
						"label": "struct CarreraCoches.Coche[]",
						"numberOfBytes": "32"
					},
					"t_mapping(t_address,t_uint256)": {
						"encoding": "mapping",
						"key": "t_address",
						"label": "mapping(address => uint256)",
						"numberOfBytes": "32",
						"value": "t_uint256"
					},
					"t_mapping(t_uint256,t_address)": {
						"encoding": "mapping",
						"key": "t_uint256",
						"label": "mapping(uint256 => address)",
						"numberOfBytes": "32",
						"value": "t_address"
					},
					"t_string_storage": {
						"encoding": "bytes",
						"label": "string",
						"numberOfBytes": "32"
					},
					"t_struct(Coche)379_storage": {
						"encoding": "inplace",
						"label": "struct CarreraCoches.Coche",
						"members": [
							{
								"astId": 364,
								"contract": "contracts/CarreraCoches/cocheToken.sol:CocheToken",
								"label": "idPiloto",
								"offset": 0,
								"slot": "0",
								"type": "t_address"
							},
							{
								"astId": 366,
								"contract": "contracts/CarreraCoches/cocheToken.sol:CocheToken",
								"label": "modelo",
								"offset": 0,
								"slot": "1",
								"type": "t_string_storage"
							},
							{
								"astId": 368,
								"contract": "contracts/CarreraCoches/cocheToken.sol:CocheToken",
								"label": "marca",
								"offset": 0,
								"slot": "2",
								"type": "t_string_storage"
							},
							{
								"astId": 370,
								"contract": "contracts/CarreraCoches/cocheToken.sol:CocheToken",
								"label": "nombrePiloto",
								"offset": 0,
								"slot": "3",
								"type": "t_string_storage"
							},
							{
								"astId": 372,
								"contract": "contracts/CarreraCoches/cocheToken.sol:CocheToken",
								"label": "carrerasGanadas",
								"offset": 0,
								"slot": "4",
								"type": "t_uint256"
							},
							{
								"astId": 374,
								"contract": "contracts/CarreraCoches/cocheToken.sol:CocheToken",
								"label": "carrerasTotales",
								"offset": 0,
								"slot": "5",
								"type": "t_uint256"
							},
							{
								"astId": 376,
								"contract": "contracts/CarreraCoches/cocheToken.sol:CocheToken",
								"label": "tiempoEspera",
								"offset": 0,
								"slot": "6",
								"type": "t_uint256"
							},
							{
								"astId": 378,
								"contract": "contracts/CarreraCoches/cocheToken.sol:CocheToken",
								"label": "nivel",
								"offset": 0,
								"slot": "7",
								"type": "t_uint32"
							}
						],
						"numberOfBytes": "256"
					},
					"t_uint256": {
						"encoding": "inplace",
						"label": "uint256",
						"numberOfBytes": "32"
					},
					"t_uint32": {
						"encoding": "inplace",
						"label": "uint32",
						"numberOfBytes": "4"
					}
				}
			},
			"userdoc": {
				"kind": "user",
				"methods": {},
				"version": 1
			}
		}
	}
}