{
	"contracts/CarreraCoches/principal.sol": {
		"CarreraCoches": {
			"abi": [
				{
					"anonymous": false,
					"inputs": [
						{
							"indexed": true,
							"internalType": "address",
							"name": "previousOwner",
							"type": "address"
						},
						{
							"indexed": true,
							"internalType": "address",
							"name": "newOwner",
							"type": "address"
						}
					],
					"name": "OwnershipTransferred",
					"type": "event"
				},
				{
					"anonymous": false,
					"inputs": [
						{
							"indexed": false,
							"internalType": "uint256",
							"name": "compr",
							"type": "uint256"
						}
					],
					"name": "comprobar",
					"type": "event"
				},
				{
					"anonymous": false,
					"inputs": [
						{
							"indexed": false,
							"internalType": "string",
							"name": "ms",
							"type": "string"
						}
					],
					"name": "confirmacionDepositoLleno",
					"type": "event"
				},
				{
					"anonymous": false,
					"inputs": [
						{
							"indexed": false,
							"internalType": "string",
							"name": "ms",
							"type": "string"
						},
						{
							"indexed": false,
							"internalType": "uint256",
							"name": "res",
							"type": "uint256"
						}
					],
					"name": "mostrarResultado",
					"type": "event"
				},
				{
					"anonymous": false,
					"inputs": [
						{
							"indexed": false,
							"internalType": "string",
							"name": "ms1",
							"type": "string"
						},
						{
							"indexed": false,
							"internalType": "string",
							"name": "nPiloto",
							"type": "string"
						},
						{
							"indexed": false,
							"internalType": "string",
							"name": "mar",
							"type": "string"
						}
					],
					"name": "rival",
					"type": "event"
				},
				{
					"inputs": [
						{
							"internalType": "uint256",
							"name": "dineroApostar",
							"type": "uint256"
						}
					],
					"name": "Apostar",
					"outputs": [
						{
							"internalType": "string",
							"name": "",
							"type": "string"
						}
					],
					"stateMutability": "payable",
					"type": "function"
				},
				{
					"inputs": [
						{
							"internalType": "string",
							"name": "_modelo",
							"type": "string"
						},
						{
							"internalType": "string",
							"name": "_marca",
							"type": "string"
						},
						{
							"internalType": "string",
							"name": "_nombrePiloto",
							"type": "string"
						}
					],
					"name": "anadirCoche",
					"outputs": [
						{
							"internalType": "uint256",
							"name": "",
							"type": "uint256"
						}
					],
					"stateMutability": "nonpayable",
					"type": "function"
				},
				{
					"inputs": [
						{
							"internalType": "uint256",
							"name": "",
							"type": "uint256"
						}
					],
					"name": "cocheDePropietario",
					"outputs": [
						{
							"internalType": "address",
							"name": "",
							"type": "address"
						}
					],
					"stateMutability": "view",
					"type": "function"
				},
				{
					"inputs": [
						{
							"internalType": "uint256",
							"name": "",
							"type": "uint256"
						}
					],
					"name": "listaCoches",
					"outputs": [
						{
							"internalType": "address",
							"name": "idPiloto",
							"type": "address"
						},
						{
							"internalType": "string",
							"name": "modelo",
							"type": "string"
						},
						{
							"internalType": "string",
							"name": "marca",
							"type": "string"
						},
						{
							"internalType": "string",
							"name": "nombrePiloto",
							"type": "string"
						},
						{
							"internalType": "uint256",
							"name": "carrerasGanadas",
							"type": "uint256"
						},
						{
							"internalType": "uint256",
							"name": "carrerasTotales",
							"type": "uint256"
						},
						{
							"internalType": "uint256",
							"name": "tiempoEspera",
							"type": "uint256"
						},
						{
							"internalType": "uint32",
							"name": "nivel",
							"type": "uint32"
						}
					],
					"stateMutability": "view",
					"type": "function"
				},
				{
					"inputs": [],
					"name": "numeroAleatorio",
					"outputs": [
						{
							"internalType": "uint256",
							"name": "",
							"type": "uint256"
						}
					],
					"stateMutability": "nonpayable",
					"type": "function"
				},
				{
					"inputs": [
						{
							"internalType": "address",
							"name": "",
							"type": "address"
						}
					],
					"name": "numeroCochesPersona",
					"outputs": [
						{
							"internalType": "uint256",
							"name": "",
							"type": "uint256"
						}
					],
					"stateMutability": "view",
					"type": "function"
				},
				{
					"inputs": [],
					"name": "owner",
					"outputs": [
						{
							"internalType": "address",
							"name": "",
							"type": "address"
						}
					],
					"stateMutability": "view",
					"type": "function"
				},
				{
					"inputs": [],
					"name": "renounceOwnership",
					"outputs": [],
					"stateMutability": "nonpayable",
					"type": "function"
				},
				{
					"inputs": [
						{
							"internalType": "address",
							"name": "newOwner",
							"type": "address"
						}
					],
					"name": "transferOwnership",
					"outputs": [],
					"stateMutability": "nonpayable",
					"type": "function"
				}
			],
			"devdoc": {
				"kind": "dev",
				"methods": {
					"owner()": {
						"details": "Returns the address of the current owner."
					},
					"renounceOwnership()": {
						"details": "Leaves the contract without owner. It will not be possible to call `onlyOwner` functions anymore. Can only be called by the current owner. NOTE: Renouncing ownership will leave the contract without an owner, thereby removing any functionality that is only available to the owner."
					},
					"transferOwnership(address)": {
						"details": "Transfers ownership of the contract to a new account (`newOwner`). Can only be called by the current owner."
					}
				},
				"version": 1
			},
			"evm": {
				"assembly": "    /* \"contracts/CarreraCoches/principal.sol\":54:3774  contract CarreraCoches is Ownable {\r... */\n  mstore(0x40, 0x80)\n    /* \"contracts/CarreraCoches/principal.sol\":370:371  0 */\n  0x00\n    /* \"contracts/CarreraCoches/principal.sol\":353:371  uint randNonce = 0 */\n  0x01\n  sstore\n    /* \"contracts/CarreraCoches/principal.sol\":494:495  0 */\n  0x00\n    /* \"contracts/CarreraCoches/principal.sol\":478:495  uint contador = 0 */\n  0x02\n  sstore\n    /* \"contracts/CarreraCoches/principal.sol\":518:528  60 seconds */\n  0x3c\n    /* \"contracts/CarreraCoches/principal.sol\":502:528  uint cooldown = 60 seconds */\n  0x03\n  sstore\n    /* \"contracts/CarreraCoches/principal.sol\":54:3774  contract CarreraCoches is Ownable {\r... */\n  callvalue\n  dup1\n  iszero\n  tag_1\n  jumpi\n  0x00\n  dup1\n  revert\ntag_1:\n  pop\n    /* \"contracts/CarreraCoches/ownable.sol\":948:980  _transferOwnership(_msgSender()) */\n  tag_4\n    /* \"contracts/CarreraCoches/ownable.sol\":967:979  _msgSender() */\n  tag_5\n    /* \"contracts/CarreraCoches/ownable.sol\":967:977  _msgSender */\n  shl(0x20, tag_6)\n    /* \"contracts/CarreraCoches/ownable.sol\":967:979  _msgSender() */\n  0x20\n  shr\n  jump\t// in\ntag_5:\n    /* \"contracts/CarreraCoches/ownable.sol\":948:966  _transferOwnership */\n  shl(0x20, tag_7)\n    /* \"contracts/CarreraCoches/ownable.sol\":948:980  _transferOwnership(_msgSender()) */\n  0x20\n  shr\n  jump\t// in\ntag_4:\n    /* \"contracts/CarreraCoches/principal.sol\":54:3774  contract CarreraCoches is Ownable {\r... */\n  jump(tag_8)\n    /* \"contracts/CarreraCoches/utils/Context.sol\":656:754  function _msgSender() internal view virtual returns (address) {\r... */\ntag_6:\n    /* \"contracts/CarreraCoches/utils/Context.sol\":709:716  address */\n  0x00\n    /* \"contracts/CarreraCoches/utils/Context.sol\":736:746  msg.sender */\n  caller\n    /* \"contracts/CarreraCoches/utils/Context.sol\":729:746  return msg.sender */\n  swap1\n  pop\n    /* \"contracts/CarreraCoches/utils/Context.sol\":656:754  function _msgSender() internal view virtual returns (address) {\r... */\n  swap1\n  jump\t// out\n    /* \"contracts/CarreraCoches/ownable.sol\":2339:2530  function _transferOwnership(address newOwner) internal virtual {\r... */\ntag_7:\n    /* \"contracts/CarreraCoches/ownable.sol\":2413:2429  address oldOwner */\n  0x00\n    /* \"contracts/CarreraCoches/ownable.sol\":2432:2438  _owner */\n  dup1\n  0x00\n  swap1\n  sload\n  swap1\n  0x0100\n  exp\n  swap1\n  div\n  0xffffffffffffffffffffffffffffffffffffffff\n  and\n    /* \"contracts/CarreraCoches/ownable.sol\":2413:2438  address oldOwner = _owner */\n  swap1\n  pop\n    /* \"contracts/CarreraCoches/ownable.sol\":2458:2466  newOwner */\n  dup2\n    /* \"contracts/CarreraCoches/ownable.sol\":2449:2455  _owner */\n  0x00\n  dup1\n    /* \"contracts/CarreraCoches/ownable.sol\":2449:2466  _owner = newOwner */\n  0x0100\n  exp\n  dup2\n  sload\n  dup2\n  0xffffffffffffffffffffffffffffffffffffffff\n  mul\n  not\n  and\n  swap1\n  dup4\n  0xffffffffffffffffffffffffffffffffffffffff\n  and\n  mul\n  or\n  swap1\n  sstore\n  pop\n    /* \"contracts/CarreraCoches/ownable.sol\":2513:2521  newOwner */\n  dup2\n    /* \"contracts/CarreraCoches/ownable.sol\":2482:2522  OwnershipTransferred(oldOwner, newOwner) */\n  0xffffffffffffffffffffffffffffffffffffffff\n  and\n    /* \"contracts/CarreraCoches/ownable.sol\":2503:2511  oldOwner */\n  dup2\n    /* \"contracts/CarreraCoches/ownable.sol\":2482:2522  OwnershipTransferred(oldOwner, newOwner) */\n  0xffffffffffffffffffffffffffffffffffffffff\n  and\n  0x8be0079c531659141344cd1fd0a4f28419497f9722a3daafe3b4186f6b6457e0\n  mload(0x40)\n  mload(0x40)\n  dup1\n  swap2\n  sub\n  swap1\n  log3\n    /* \"contracts/CarreraCoches/ownable.sol\":2402:2530  {\r... */\n  pop\n    /* \"contracts/CarreraCoches/ownable.sol\":2339:2530  function _transferOwnership(address newOwner) internal virtual {\r... */\n  pop\n  jump\t// out\n    /* \"contracts/CarreraCoches/principal.sol\":54:3774  contract CarreraCoches is Ownable {\r... */\ntag_8:\n  dataSize(sub_0)\n  dup1\n  dataOffset(sub_0)\n  0x00\n  codecopy\n  0x00\n  return\nstop\n\nsub_0: assembly {\n        /* \"contracts/CarreraCoches/principal.sol\":54:3774  contract CarreraCoches is Ownable {\r... */\n      mstore(0x40, 0x80)\n      jumpi(tag_1, lt(calldatasize, 0x04))\n      shr(0xe0, calldataload(0x00))\n      dup1\n      0x858b0554\n      gt\n      tag_11\n      jumpi\n      dup1\n      0x858b0554\n      eq\n      tag_6\n      jumpi\n      dup1\n      0x8da5cb5b\n      eq\n      tag_7\n      jumpi\n      dup1\n      0xd735573d\n      eq\n      tag_8\n      jumpi\n      dup1\n      0xf1413763\n      eq\n      tag_9\n      jumpi\n      dup1\n      0xf2fde38b\n      eq\n      tag_10\n      jumpi\n      jump(tag_1)\n    tag_11:\n      dup1\n      0x1c6743e4\n      eq\n      tag_2\n      jumpi\n      dup1\n      0x2458c544\n      eq\n      tag_3\n      jumpi\n      dup1\n      0x6b6f0494\n      eq\n      tag_4\n      jumpi\n      dup1\n      0x715018a6\n      eq\n      tag_5\n      jumpi\n    tag_1:\n      0x00\n      dup1\n      revert\n        /* \"contracts/CarreraCoches/principal.sol\":823:875  mapping (address => uint) public numeroCochesPersona */\n    tag_2:\n      callvalue\n      dup1\n      iszero\n      tag_12\n      jumpi\n      0x00\n      dup1\n      revert\n    tag_12:\n      pop\n      tag_13\n      0x04\n      dup1\n      calldatasize\n      sub\n      dup2\n      add\n      swap1\n      tag_14\n      swap2\n      swap1\n      tag_15\n      jump\t// in\n    tag_14:\n      tag_16\n      jump\t// in\n    tag_13:\n      mload(0x40)\n      tag_17\n      swap2\n      swap1\n      tag_18\n      jump\t// in\n    tag_17:\n      mload(0x40)\n      dup1\n      swap2\n      sub\n      swap1\n      return\n        /* \"contracts/CarreraCoches/principal.sol\":1118:1473  function anadirCoche(string memory _modelo, string memory _marca, string memory _nombrePiloto) public restriccion returns (uint) {\r... */\n    tag_3:\n      callvalue\n      dup1\n      iszero\n      tag_19\n      jumpi\n      0x00\n      dup1\n      revert\n    tag_19:\n      pop\n      tag_20\n      0x04\n      dup1\n      calldatasize\n      sub\n      dup2\n      add\n      swap1\n      tag_21\n      swap2\n      swap1\n      tag_22\n      jump\t// in\n    tag_21:\n      tag_23\n      jump\t// in\n    tag_20:\n      mload(0x40)\n      tag_24\n      swap2\n      swap1\n      tag_18\n      jump\t// in\n    tag_24:\n      mload(0x40)\n      dup1\n      swap2\n      sub\n      swap1\n      return\n        /* \"contracts/CarreraCoches/principal.sol\":2359:3535  function Apostar(uint dineroApostar) public payable returns(string memory) {\r... */\n    tag_4:\n      tag_25\n      0x04\n      dup1\n      calldatasize\n      sub\n      dup2\n      add\n      swap1\n      tag_26\n      swap2\n      swap1\n      tag_27\n      jump\t// in\n    tag_26:\n      tag_28\n      jump\t// in\n    tag_25:\n      mload(0x40)\n      tag_29\n      swap2\n      swap1\n      tag_30\n      jump\t// in\n    tag_29:\n      mload(0x40)\n      dup1\n      swap2\n      sub\n      swap1\n      return\n        /* \"contracts/CarreraCoches/ownable.sol\":1720:1823  function renounceOwnership() public virtual onlyOwner {\r... */\n    tag_5:\n      callvalue\n      dup1\n      iszero\n      tag_31\n      jumpi\n      0x00\n      dup1\n      revert\n    tag_31:\n      pop\n      tag_32\n      tag_33\n      jump\t// in\n    tag_32:\n      stop\n        /* \"contracts/CarreraCoches/principal.sol\":765:816  mapping (uint => address) public cocheDePropietario */\n    tag_6:\n      callvalue\n      dup1\n      iszero\n      tag_34\n      jumpi\n      0x00\n      dup1\n      revert\n    tag_34:\n      pop\n      tag_35\n      0x04\n      dup1\n      calldatasize\n      sub\n      dup2\n      add\n      swap1\n      tag_36\n      swap2\n      swap1\n      tag_27\n      jump\t// in\n    tag_36:\n      tag_37\n      jump\t// in\n    tag_35:\n      mload(0x40)\n      tag_38\n      swap2\n      swap1\n      tag_39\n      jump\t// in\n    tag_38:\n      mload(0x40)\n      dup1\n      swap2\n      sub\n      swap1\n      return\n        /* \"contracts/CarreraCoches/ownable.sol\":1069:1156  function owner() public view virtual returns (address) {\r... */\n    tag_7:\n      callvalue\n      dup1\n      iszero\n      tag_40\n      jumpi\n      0x00\n      dup1\n      revert\n    tag_40:\n      pop\n      tag_41\n      tag_42\n      jump\t// in\n    tag_41:\n      mload(0x40)\n      tag_43\n      swap2\n      swap1\n      tag_39\n      jump\t// in\n    tag_43:\n      mload(0x40)\n      dup1\n      swap2\n      sub\n      swap1\n      return\n        /* \"contracts/CarreraCoches/principal.sol\":537:563  Coche[] public listaCoches */\n    tag_8:\n      callvalue\n      dup1\n      iszero\n      tag_44\n      jumpi\n      0x00\n      dup1\n      revert\n    tag_44:\n      pop\n      tag_45\n      0x04\n      dup1\n      calldatasize\n      sub\n      dup2\n      add\n      swap1\n      tag_46\n      swap2\n      swap1\n      tag_27\n      jump\t// in\n    tag_46:\n      tag_47\n      jump\t// in\n    tag_45:\n      mload(0x40)\n      tag_48\n      swap9\n      swap8\n      swap7\n      swap6\n      swap5\n      swap4\n      swap3\n      swap2\n      swap1\n      tag_49\n      jump\t// in\n    tag_48:\n      mload(0x40)\n      dup1\n      swap2\n      sub\n      swap1\n      return\n        /* \"contracts/CarreraCoches/principal.sol\":1803:2022  function numeroAleatorio() public returns (uint256) {\r... */\n    tag_9:\n      callvalue\n      dup1\n      iszero\n      tag_50\n      jumpi\n      0x00\n      dup1\n      revert\n    tag_50:\n      pop\n      tag_51\n      tag_52\n      jump\t// in\n    tag_51:\n      mload(0x40)\n      tag_53\n      swap2\n      swap1\n      tag_18\n      jump\t// in\n    tag_53:\n      mload(0x40)\n      dup1\n      swap2\n      sub\n      swap1\n      return\n        /* \"contracts/CarreraCoches/ownable.sol\":1978:2179  function transferOwnership(address newOwner) public virtual onlyOwner {\r... */\n    tag_10:\n      callvalue\n      dup1\n      iszero\n      tag_54\n      jumpi\n      0x00\n      dup1\n      revert\n    tag_54:\n      pop\n      tag_55\n      0x04\n      dup1\n      calldatasize\n      sub\n      dup2\n      add\n      swap1\n      tag_56\n      swap2\n      swap1\n      tag_15\n      jump\t// in\n    tag_56:\n      tag_57\n      jump\t// in\n    tag_55:\n      stop\n        /* \"contracts/CarreraCoches/principal.sol\":823:875  mapping (address => uint) public numeroCochesPersona */\n    tag_16:\n      mstore(0x20, 0x06)\n      dup1\n      0x00\n      mstore\n      keccak256(0x00, 0x40)\n      0x00\n      swap2\n      pop\n      swap1\n      pop\n      sload\n      dup2\n      jump\t// out\n        /* \"contracts/CarreraCoches/principal.sol\":1118:1473  function anadirCoche(string memory _modelo, string memory _marca, string memory _nombrePiloto) public restriccion returns (uint) {\r... */\n    tag_23:\n        /* \"contracts/CarreraCoches/principal.sol\":1241:1245  uint */\n      0x00\n        /* \"contracts/CarreraCoches/principal.sol\":1007:1008  1 */\n      0x01\n        /* \"contracts/CarreraCoches/principal.sol\":973:992  numeroCochesPersona */\n      0x06\n        /* \"contracts/CarreraCoches/principal.sol\":973:1004  numeroCochesPersona[msg.sender] */\n      0x00\n        /* \"contracts/CarreraCoches/principal.sol\":993:1003  msg.sender */\n      caller\n        /* \"contracts/CarreraCoches/principal.sol\":973:1004  numeroCochesPersona[msg.sender] */\n      0xffffffffffffffffffffffffffffffffffffffff\n      and\n      0xffffffffffffffffffffffffffffffffffffffff\n      and\n      dup2\n      mstore\n      0x20\n      add\n      swap1\n      dup2\n      mstore\n      0x20\n      add\n      0x00\n      keccak256\n      sload\n        /* \"contracts/CarreraCoches/principal.sol\":973:1008  numeroCochesPersona[msg.sender] < 1 */\n      lt\n        /* \"contracts/CarreraCoches/principal.sol\":965:1053  require(numeroCochesPersona[msg.sender] < 1, \"Solo se puede tener un coche por persona\") */\n      tag_59\n      jumpi\n      mload(0x40)\n      0x08c379a000000000000000000000000000000000000000000000000000000000\n      dup2\n      mstore\n      0x04\n      add\n      tag_60\n      swap1\n      tag_61\n      jump\t// in\n    tag_60:\n      mload(0x40)\n      dup1\n      swap2\n      sub\n      swap1\n      revert\n    tag_59:\n        /* \"contracts/CarreraCoches/principal.sol\":1258:1269  listaCoches */\n      0x04\n        /* \"contracts/CarreraCoches/principal.sol\":1275:1369  Coche(msg.sender, _modelo, _marca, _nombrePiloto, 0, 0, uint32(block.timestamp + cooldown), 0) */\n      mload(0x40)\n      dup1\n      0x0100\n      add\n      0x40\n      mstore\n      dup1\n        /* \"contracts/CarreraCoches/principal.sol\":1281:1291  msg.sender */\n      caller\n        /* \"contracts/CarreraCoches/principal.sol\":1275:1369  Coche(msg.sender, _modelo, _marca, _nombrePiloto, 0, 0, uint32(block.timestamp + cooldown), 0) */\n      0xffffffffffffffffffffffffffffffffffffffff\n      and\n      dup2\n      mstore\n      0x20\n      add\n        /* \"contracts/CarreraCoches/principal.sol\":1293:1300  _modelo */\n      dup7\n        /* \"contracts/CarreraCoches/principal.sol\":1275:1369  Coche(msg.sender, _modelo, _marca, _nombrePiloto, 0, 0, uint32(block.timestamp + cooldown), 0) */\n      dup2\n      mstore\n      0x20\n      add\n        /* \"contracts/CarreraCoches/principal.sol\":1302:1308  _marca */\n      dup6\n        /* \"contracts/CarreraCoches/principal.sol\":1275:1369  Coche(msg.sender, _modelo, _marca, _nombrePiloto, 0, 0, uint32(block.timestamp + cooldown), 0) */\n      dup2\n      mstore\n      0x20\n      add\n        /* \"contracts/CarreraCoches/principal.sol\":1310:1323  _nombrePiloto */\n      dup5\n        /* \"contracts/CarreraCoches/principal.sol\":1275:1369  Coche(msg.sender, _modelo, _marca, _nombrePiloto, 0, 0, uint32(block.timestamp + cooldown), 0) */\n      dup2\n      mstore\n      0x20\n      add\n        /* \"contracts/CarreraCoches/principal.sol\":1325:1326  0 */\n      0x00\n        /* \"contracts/CarreraCoches/principal.sol\":1275:1369  Coche(msg.sender, _modelo, _marca, _nombrePiloto, 0, 0, uint32(block.timestamp + cooldown), 0) */\n      dup2\n      mstore\n      0x20\n      add\n        /* \"contracts/CarreraCoches/principal.sol\":1328:1329  0 */\n      0x00\n        /* \"contracts/CarreraCoches/principal.sol\":1275:1369  Coche(msg.sender, _modelo, _marca, _nombrePiloto, 0, 0, uint32(block.timestamp + cooldown), 0) */\n      dup2\n      mstore\n      0x20\n      add\n        /* \"contracts/CarreraCoches/principal.sol\":1356:1364  cooldown */\n      sload(0x03)\n        /* \"contracts/CarreraCoches/principal.sol\":1338:1353  block.timestamp */\n      timestamp\n        /* \"contracts/CarreraCoches/principal.sol\":1338:1364  block.timestamp + cooldown */\n      tag_63\n      swap2\n      swap1\n      tag_64\n      jump\t// in\n    tag_63:\n        /* \"contracts/CarreraCoches/principal.sol\":1275:1369  Coche(msg.sender, _modelo, _marca, _nombrePiloto, 0, 0, uint32(block.timestamp + cooldown), 0) */\n      0xffffffff\n      and\n      dup2\n      mstore\n      0x20\n      add\n        /* \"contracts/CarreraCoches/principal.sol\":1367:1368  0 */\n      0x00\n        /* \"contracts/CarreraCoches/principal.sol\":1275:1369  Coche(msg.sender, _modelo, _marca, _nombrePiloto, 0, 0, uint32(block.timestamp + cooldown), 0) */\n      0xffffffff\n      and\n      dup2\n      mstore\n      pop\n        /* \"contracts/CarreraCoches/principal.sol\":1258:1370  listaCoches.push(Coche(msg.sender, _modelo, _marca, _nombrePiloto, 0, 0, uint32(block.timestamp + cooldown), 0)) */\n      swap1\n      dup1\n      0x01\n      dup2\n      sload\n      add\n      dup1\n      dup3\n      sstore\n      dup1\n      swap2\n      pop\n      pop\n      0x01\n      swap1\n      sub\n      swap1\n      0x00\n      mstore\n      keccak256(0x00, 0x20)\n      swap1\n      0x08\n      mul\n      add\n      0x00\n      swap1\n      swap2\n      swap1\n      swap2\n      swap1\n      swap2\n      pop\n      0x00\n      dup3\n      add\n      mload\n      dup2\n      0x00\n      add\n      exp(0x0100, 0x00)\n      dup2\n      sload\n      dup2\n      0xffffffffffffffffffffffffffffffffffffffff\n      mul\n      not\n      and\n      swap1\n      dup4\n      0xffffffffffffffffffffffffffffffffffffffff\n      and\n      mul\n      or\n      swap1\n      sstore\n      pop\n      0x20\n      dup3\n      add\n      mload\n      dup2\n      0x01\n      add\n      swap1\n      dup1\n      mload\n      swap1\n      0x20\n      add\n      swap1\n      tag_66\n      swap3\n      swap2\n      swap1\n      tag_67\n      jump\t// in\n    tag_66:\n      pop\n      0x40\n      dup3\n      add\n      mload\n      dup2\n      0x02\n      add\n      swap1\n      dup1\n      mload\n      swap1\n      0x20\n      add\n      swap1\n      tag_68\n      swap3\n      swap2\n      swap1\n      tag_67\n      jump\t// in\n    tag_68:\n      pop\n      0x60\n      dup3\n      add\n      mload\n      dup2\n      0x03\n      add\n      swap1\n      dup1\n      mload\n      swap1\n      0x20\n      add\n      swap1\n      tag_69\n      swap3\n      swap2\n      swap1\n      tag_67\n      jump\t// in\n    tag_69:\n      pop\n      0x80\n      dup3\n      add\n      mload\n      dup2\n      0x04\n      add\n      sstore\n      0xa0\n      dup3\n      add\n      mload\n      dup2\n      0x05\n      add\n      sstore\n      0xc0\n      dup3\n      add\n      mload\n      dup2\n      0x06\n      add\n      sstore\n      0xe0\n      dup3\n      add\n      mload\n      dup2\n      0x07\n      add\n      exp(0x0100, 0x00)\n      dup2\n      sload\n      dup2\n      0xffffffff\n      mul\n      not\n      and\n      swap1\n      dup4\n      0xffffffff\n      and\n      mul\n      or\n      swap1\n      sstore\n      pop\n      pop\n      pop\n        /* \"contracts/CarreraCoches/principal.sol\":1381:1400  numeroCochesPersona */\n      0x06\n        /* \"contracts/CarreraCoches/principal.sol\":1381:1412  numeroCochesPersona[msg.sender] */\n      0x00\n        /* \"contracts/CarreraCoches/principal.sol\":1401:1411  msg.sender */\n      caller\n        /* \"contracts/CarreraCoches/principal.sol\":1381:1412  numeroCochesPersona[msg.sender] */\n      0xffffffffffffffffffffffffffffffffffffffff\n      and\n      0xffffffffffffffffffffffffffffffffffffffff\n      and\n      dup2\n      mstore\n      0x20\n      add\n      swap1\n      dup2\n      mstore\n      0x20\n      add\n      0x00\n      keccak256\n      0x00\n        /* \"contracts/CarreraCoches/principal.sol\":1381:1414  numeroCochesPersona[msg.sender]++ */\n      dup2\n      sload\n      dup1\n      swap3\n      swap2\n      swap1\n      tag_70\n      swap1\n      tag_71\n      jump\t// in\n    tag_70:\n      swap2\n      swap1\n      pop\n      sstore\n      pop\n        /* \"contracts/CarreraCoches/principal.sol\":1425:1433  contador */\n      0x02\n      0x00\n        /* \"contracts/CarreraCoches/principal.sol\":1425:1435  contador++ */\n      dup2\n      sload\n      dup1\n      swap3\n      swap2\n      swap1\n      tag_72\n      swap1\n      tag_71\n      jump\t// in\n    tag_72:\n      swap2\n      swap1\n      pop\n      sstore\n      pop\n        /* \"contracts/CarreraCoches/principal.sol\":1464:1465  1 */\n      0x01\n        /* \"contracts/CarreraCoches/principal.sol\":1453:1461  contador */\n      sload(0x02)\n        /* \"contracts/CarreraCoches/principal.sol\":1453:1465  contador - 1 */\n      tag_73\n      swap2\n      swap1\n      tag_74\n      jump\t// in\n    tag_73:\n        /* \"contracts/CarreraCoches/principal.sol\":1446:1465  return contador - 1 */\n      swap1\n      pop\n        /* \"contracts/CarreraCoches/principal.sol\":1118:1473  function anadirCoche(string memory _modelo, string memory _marca, string memory _nombrePiloto) public restriccion returns (uint) {\r... */\n      swap4\n      swap3\n      pop\n      pop\n      pop\n      jump\t// out\n        /* \"contracts/CarreraCoches/principal.sol\":2359:3535  function Apostar(uint dineroApostar) public payable returns(string memory) {\r... */\n    tag_28:\n        /* \"contracts/CarreraCoches/principal.sol\":2419:2432  string memory */\n      0x60\n        /* \"contracts/CarreraCoches/principal.sol\":2465:2478  dineroApostar */\n      dup2\n        /* \"contracts/CarreraCoches/principal.sol\":2452:2461  msg.value */\n      callvalue\n        /* \"contracts/CarreraCoches/principal.sol\":2452:2478  msg.value == dineroApostar */\n      eq\n        /* \"contracts/CarreraCoches/principal.sol\":2444:2479  require(msg.value == dineroApostar) */\n      tag_76\n      jumpi\n      0x00\n      dup1\n      revert\n    tag_76:\n        /* \"contracts/CarreraCoches/principal.sol\":2500:2509  randNonce */\n      0x01\n      0x00\n        /* \"contracts/CarreraCoches/principal.sol\":2500:2511  randNonce++ */\n      dup2\n      sload\n      dup1\n      swap3\n      swap2\n      swap1\n      tag_77\n      swap1\n      tag_71\n      jump\t// in\n    tag_77:\n      swap2\n      swap1\n      pop\n      sstore\n      pop\n        /* \"contracts/CarreraCoches/principal.sol\":2558:2571  uint256 rival */\n      0x00\n        /* \"contracts/CarreraCoches/principal.sol\":2661:2672  listaCoches */\n      0x04\n        /* \"contracts/CarreraCoches/principal.sol\":2661:2679  listaCoches.length */\n      dup1\n      sload\n      swap1\n      pop\n        /* \"contracts/CarreraCoches/principal.sol\":2609:2624  block.timestamp */\n      timestamp\n        /* \"contracts/CarreraCoches/principal.sol\":2626:2637  listaCoches */\n      0x04\n        /* \"contracts/CarreraCoches/principal.sol\":2626:2644  listaCoches.length */\n      dup1\n      sload\n      swap1\n      pop\n        /* \"contracts/CarreraCoches/principal.sol\":2646:2655  randNonce */\n      sload(0x01)\n        /* \"contracts/CarreraCoches/principal.sol\":2592:2656  abi.encodePacked(block.timestamp, listaCoches.length, randNonce) */\n      add(0x20, mload(0x40))\n      tag_78\n      swap4\n      swap3\n      swap2\n      swap1\n      tag_79\n      jump\t// in\n    tag_78:\n      mload(0x40)\n      0x20\n      dup2\n      dup4\n      sub\n      sub\n      dup2\n      mstore\n      swap1\n      0x40\n      mstore\n        /* \"contracts/CarreraCoches/principal.sol\":2582:2657  keccak256(abi.encodePacked(block.timestamp, listaCoches.length, randNonce)) */\n      dup1\n      mload\n      swap1\n      0x20\n      add\n      keccak256\n        /* \"contracts/CarreraCoches/principal.sol\":2574:2658  uint256(keccak256(abi.encodePacked(block.timestamp, listaCoches.length, randNonce))) */\n      0x00\n      shr\n        /* \"contracts/CarreraCoches/principal.sol\":2574:2679  uint256(keccak256(abi.encodePacked(block.timestamp, listaCoches.length, randNonce))) % listaCoches.length */\n      tag_80\n      swap2\n      swap1\n      tag_81\n      jump\t// in\n    tag_80:\n        /* \"contracts/CarreraCoches/principal.sol\":2558:2679  uint256 rival = uint256(keccak256(abi.encodePacked(block.timestamp, listaCoches.length, randNonce))) % listaCoches.length */\n      swap1\n      pop\n        /* \"contracts/CarreraCoches/principal.sol\":2722:2731  randNonce */\n      0x01\n      0x00\n        /* \"contracts/CarreraCoches/principal.sol\":2722:2733  randNonce++ */\n      dup2\n      sload\n      dup1\n      swap3\n      swap2\n      swap1\n      tag_82\n      swap1\n      tag_71\n      jump\t// in\n    tag_82:\n      swap2\n      swap1\n      pop\n      sstore\n      pop\n        /* \"contracts/CarreraCoches/principal.sol\":2744:2755  uint numero */\n      0x00\n        /* \"contracts/CarreraCoches/principal.sol\":2758:2759  2 */\n      0x02\n        /* \"contracts/CarreraCoches/principal.sol\":2744:2759  uint numero = 2 */\n      swap1\n      pop\n        /* \"contracts/CarreraCoches/principal.sol\":2770:2785  uint256 ganador */\n      0x00\n        /* \"contracts/CarreraCoches/principal.sol\":2863:2869  numero */\n      dup2\n        /* \"contracts/CarreraCoches/principal.sol\":2823:2838  block.timestamp */\n      timestamp\n        /* \"contracts/CarreraCoches/principal.sol\":2840:2846  numero */\n      dup4\n        /* \"contracts/CarreraCoches/principal.sol\":2848:2857  randNonce */\n      sload(0x01)\n        /* \"contracts/CarreraCoches/principal.sol\":2806:2858  abi.encodePacked(block.timestamp, numero, randNonce) */\n      add(0x20, mload(0x40))\n      tag_83\n      swap4\n      swap3\n      swap2\n      swap1\n      tag_79\n      jump\t// in\n    tag_83:\n      mload(0x40)\n      0x20\n      dup2\n      dup4\n      sub\n      sub\n      dup2\n      mstore\n      swap1\n      0x40\n      mstore\n        /* \"contracts/CarreraCoches/principal.sol\":2796:2859  keccak256(abi.encodePacked(block.timestamp, numero, randNonce)) */\n      dup1\n      mload\n      swap1\n      0x20\n      add\n      keccak256\n        /* \"contracts/CarreraCoches/principal.sol\":2788:2860  uint256(keccak256(abi.encodePacked(block.timestamp, numero, randNonce))) */\n      0x00\n      shr\n        /* \"contracts/CarreraCoches/principal.sol\":2788:2869  uint256(keccak256(abi.encodePacked(block.timestamp, numero, randNonce))) % numero */\n      tag_84\n      swap2\n      swap1\n      tag_81\n      jump\t// in\n    tag_84:\n        /* \"contracts/CarreraCoches/principal.sol\":2770:2869  uint256 ganador = uint256(keccak256(abi.encodePacked(block.timestamp, numero, randNonce))) % numero */\n      swap1\n      pop\n        /* \"contracts/CarreraCoches/principal.sol\":2886:2892  uint i */\n      0x00\n        /* \"contracts/CarreraCoches/principal.sol\":2882:3529  for(uint i = 0; i < listaCoches.length; i++){\r... */\n    tag_85:\n        /* \"contracts/CarreraCoches/principal.sol\":2902:2913  listaCoches */\n      0x04\n        /* \"contracts/CarreraCoches/principal.sol\":2902:2920  listaCoches.length */\n      dup1\n      sload\n      swap1\n      pop\n        /* \"contracts/CarreraCoches/principal.sol\":2898:2899  i */\n      dup2\n        /* \"contracts/CarreraCoches/principal.sol\":2898:2920  i < listaCoches.length */\n      lt\n        /* \"contracts/CarreraCoches/principal.sol\":2882:3529  for(uint i = 0; i < listaCoches.length; i++){\r... */\n      iszero\n      tag_86\n      jumpi\n        /* \"contracts/CarreraCoches/principal.sol\":3062:3073  listaCoches */\n      0x04\n        /* \"contracts/CarreraCoches/principal.sol\":3074:3075  i */\n      dup2\n        /* \"contracts/CarreraCoches/principal.sol\":3062:3076  listaCoches[i] */\n      dup2\n      sload\n      dup2\n      lt\n      tag_88\n      jumpi\n      tag_89\n      tag_90\n      jump\t// in\n    tag_89:\n    tag_88:\n      swap1\n      0x00\n      mstore\n      keccak256(0x00, 0x20)\n      swap1\n      0x08\n      mul\n      add\n        /* \"contracts/CarreraCoches/principal.sol\":3062:3085  listaCoches[i].idPiloto */\n      0x00\n      add\n      0x00\n      swap1\n      sload\n      swap1\n      0x0100\n      exp\n      swap1\n      div\n      0xffffffffffffffffffffffffffffffffffffffff\n      and\n        /* \"contracts/CarreraCoches/principal.sol\":3048:3085  msg.sender == listaCoches[i].idPiloto */\n      0xffffffffffffffffffffffffffffffffffffffff\n      and\n        /* \"contracts/CarreraCoches/principal.sol\":3048:3058  msg.sender */\n      caller\n        /* \"contracts/CarreraCoches/principal.sol\":3048:3085  msg.sender == listaCoches[i].idPiloto */\n      0xffffffffffffffffffffffffffffffffffffffff\n      and\n      eq\n        /* \"contracts/CarreraCoches/principal.sol\":3044:3518  if (msg.sender == listaCoches[i].idPiloto) {\r... */\n      iszero\n      tag_92\n      jumpi\n        /* \"contracts/CarreraCoches/principal.sol\":3120:3121  0 */\n      0x00\n        /* \"contracts/CarreraCoches/principal.sol\":3109:3116  ganador */\n      dup3\n        /* \"contracts/CarreraCoches/principal.sol\":3109:3121  ganador == 0 */\n      eq\n        /* \"contracts/CarreraCoches/principal.sol\":3106:3414  if(ganador == 0){\r... */\n      iszero\n      tag_93\n      jumpi\n        /* \"contracts/CarreraCoches/principal.sol\":3145:3154  balance() */\n      tag_94\n        /* \"contracts/CarreraCoches/principal.sol\":3145:3152  balance */\n      tag_95\n        /* \"contracts/CarreraCoches/principal.sol\":3145:3154  balance() */\n      jump\t// in\n    tag_94:\n        /* \"contracts/CarreraCoches/principal.sol\":3177:3196  return \"Has ganado\" */\n      mload(0x40)\n      dup1\n      0x40\n      add\n      0x40\n      mstore\n      dup1\n      0x0a\n      dup2\n      mstore\n      0x20\n      add\n      0x4861732067616e61646f00000000000000000000000000000000000000000000\n      dup2\n      mstore\n      pop\n      swap5\n      pop\n      pop\n      pop\n      pop\n      pop\n      jump(tag_75)\n        /* \"contracts/CarreraCoches/principal.sol\":3106:3414  if(ganador == 0){\r... */\n    tag_93:\n        /* \"contracts/CarreraCoches/principal.sol\":3303:3351  mostrarResultado(\"El coche ganador es: \", rival) */\n      0xa28482eec3136a2461c6c30c08f71ba279c6c51a2d9c7bea4e50d6d2632f3896\n        /* \"contracts/CarreraCoches/principal.sol\":3345:3350  rival */\n      dup5\n        /* \"contracts/CarreraCoches/principal.sol\":3303:3351  mostrarResultado(\"El coche ganador es: \", rival) */\n      mload(0x40)\n      tag_101\n      swap2\n      swap1\n      tag_102\n      jump\t// in\n    tag_101:\n      mload(0x40)\n      dup1\n      swap2\n      sub\n      swap1\n      log1\n        /* \"contracts/CarreraCoches/principal.sol\":3374:3394  return \"Has perdido\" */\n      mload(0x40)\n      dup1\n      0x40\n      add\n      0x40\n      mstore\n      dup1\n      0x0b\n      dup2\n      mstore\n      0x20\n      add\n      0x486173207065726469646f000000000000000000000000000000000000000000\n      dup2\n      mstore\n      pop\n      swap5\n      pop\n      pop\n      pop\n      pop\n      pop\n      jump(tag_75)\n        /* \"contracts/CarreraCoches/principal.sol\":3044:3518  if (msg.sender == listaCoches[i].idPiloto) {\r... */\n    tag_92:\n        /* \"contracts/CarreraCoches/principal.sol\":2922:2925  i++ */\n      dup1\n      dup1\n      tag_112\n      swap1\n      tag_71\n      jump\t// in\n    tag_112:\n      swap2\n      pop\n      pop\n        /* \"contracts/CarreraCoches/principal.sol\":2882:3529  for(uint i = 0; i < listaCoches.length; i++){\r... */\n      jump(tag_85)\n    tag_86:\n      pop\n        /* \"contracts/CarreraCoches/principal.sol\":2434:3535  {\r... */\n      pop\n      pop\n      pop\n        /* \"contracts/CarreraCoches/principal.sol\":2359:3535  function Apostar(uint dineroApostar) public payable returns(string memory) {\r... */\n    tag_75:\n      swap2\n      swap1\n      pop\n      jump\t// out\n        /* \"contracts/CarreraCoches/ownable.sol\":1720:1823  function renounceOwnership() public virtual onlyOwner {\r... */\n    tag_33:\n        /* \"contracts/CarreraCoches/ownable.sol\":1300:1312  _msgSender() */\n      tag_114\n        /* \"contracts/CarreraCoches/ownable.sol\":1300:1310  _msgSender */\n      tag_115\n        /* \"contracts/CarreraCoches/ownable.sol\":1300:1312  _msgSender() */\n      jump\t// in\n    tag_114:\n        /* \"contracts/CarreraCoches/ownable.sol\":1289:1312  owner() == _msgSender() */\n      0xffffffffffffffffffffffffffffffffffffffff\n      and\n        /* \"contracts/CarreraCoches/ownable.sol\":1289:1296  owner() */\n      tag_116\n        /* \"contracts/CarreraCoches/ownable.sol\":1289:1294  owner */\n      tag_42\n        /* \"contracts/CarreraCoches/ownable.sol\":1289:1296  owner() */\n      jump\t// in\n    tag_116:\n        /* \"contracts/CarreraCoches/ownable.sol\":1289:1312  owner() == _msgSender() */\n      0xffffffffffffffffffffffffffffffffffffffff\n      and\n      eq\n        /* \"contracts/CarreraCoches/ownable.sol\":1281:1349  require(owner() == _msgSender(), \"Ownable: caller is not the owner\") */\n      tag_117\n      jumpi\n      mload(0x40)\n      0x08c379a000000000000000000000000000000000000000000000000000000000\n      dup2\n      mstore\n      0x04\n      add\n      tag_118\n      swap1\n      tag_119\n      jump\t// in\n    tag_118:\n      mload(0x40)\n      dup1\n      swap2\n      sub\n      swap1\n      revert\n    tag_117:\n        /* \"contracts/CarreraCoches/ownable.sol\":1785:1815  _transferOwnership(address(0)) */\n      tag_121\n        /* \"contracts/CarreraCoches/ownable.sol\":1812:1813  0 */\n      0x00\n        /* \"contracts/CarreraCoches/ownable.sol\":1785:1803  _transferOwnership */\n      tag_122\n        /* \"contracts/CarreraCoches/ownable.sol\":1785:1815  _transferOwnership(address(0)) */\n      jump\t// in\n    tag_121:\n        /* \"contracts/CarreraCoches/ownable.sol\":1720:1823  function renounceOwnership() public virtual onlyOwner {\r... */\n      jump\t// out\n        /* \"contracts/CarreraCoches/principal.sol\":765:816  mapping (uint => address) public cocheDePropietario */\n    tag_37:\n      mstore(0x20, 0x05)\n      dup1\n      0x00\n      mstore\n      keccak256(0x00, 0x40)\n      0x00\n      swap2\n      pop\n      sload\n      swap1\n      0x0100\n      exp\n      swap1\n      div\n      0xffffffffffffffffffffffffffffffffffffffff\n      and\n      dup2\n      jump\t// out\n        /* \"contracts/CarreraCoches/ownable.sol\":1069:1156  function owner() public view virtual returns (address) {\r... */\n    tag_42:\n        /* \"contracts/CarreraCoches/ownable.sol\":1115:1122  address */\n      0x00\n        /* \"contracts/CarreraCoches/ownable.sol\":1142:1148  _owner */\n      dup1\n      0x00\n      swap1\n      sload\n      swap1\n      0x0100\n      exp\n      swap1\n      div\n      0xffffffffffffffffffffffffffffffffffffffff\n      and\n        /* \"contracts/CarreraCoches/ownable.sol\":1135:1148  return _owner */\n      swap1\n      pop\n        /* \"contracts/CarreraCoches/ownable.sol\":1069:1156  function owner() public view virtual returns (address) {\r... */\n      swap1\n      jump\t// out\n        /* \"contracts/CarreraCoches/principal.sol\":537:563  Coche[] public listaCoches */\n    tag_47:\n      0x04\n      dup2\n      dup2\n      sload\n      dup2\n      lt\n      tag_124\n      jumpi\n      0x00\n      dup1\n      revert\n    tag_124:\n      swap1\n      0x00\n      mstore\n      keccak256(0x00, 0x20)\n      swap1\n      0x08\n      mul\n      add\n      0x00\n      swap2\n      pop\n      swap1\n      pop\n      dup1\n      0x00\n      add\n      0x00\n      swap1\n      sload\n      swap1\n      0x0100\n      exp\n      swap1\n      div\n      0xffffffffffffffffffffffffffffffffffffffff\n      and\n      swap1\n      dup1\n      0x01\n      add\n      dup1\n      sload\n      tag_126\n      swap1\n      tag_127\n      jump\t// in\n    tag_126:\n      dup1\n      0x1f\n      add\n      0x20\n      dup1\n      swap2\n      div\n      mul\n      0x20\n      add\n      mload(0x40)\n      swap1\n      dup2\n      add\n      0x40\n      mstore\n      dup1\n      swap3\n      swap2\n      swap1\n      dup2\n      dup2\n      mstore\n      0x20\n      add\n      dup3\n      dup1\n      sload\n      tag_128\n      swap1\n      tag_127\n      jump\t// in\n    tag_128:\n      dup1\n      iszero\n      tag_129\n      jumpi\n      dup1\n      0x1f\n      lt\n      tag_130\n      jumpi\n      0x0100\n      dup1\n      dup4\n      sload\n      div\n      mul\n      dup4\n      mstore\n      swap2\n      0x20\n      add\n      swap2\n      jump(tag_129)\n    tag_130:\n      dup3\n      add\n      swap2\n      swap1\n      0x00\n      mstore\n      keccak256(0x00, 0x20)\n      swap1\n    tag_131:\n      dup2\n      sload\n      dup2\n      mstore\n      swap1\n      0x01\n      add\n      swap1\n      0x20\n      add\n      dup1\n      dup4\n      gt\n      tag_131\n      jumpi\n      dup3\n      swap1\n      sub\n      0x1f\n      and\n      dup3\n      add\n      swap2\n    tag_129:\n      pop\n      pop\n      pop\n      pop\n      pop\n      swap1\n      dup1\n      0x02\n      add\n      dup1\n      sload\n      tag_132\n      swap1\n      tag_127\n      jump\t// in\n    tag_132:\n      dup1\n      0x1f\n      add\n      0x20\n      dup1\n      swap2\n      div\n      mul\n      0x20\n      add\n      mload(0x40)\n      swap1\n      dup2\n      add\n      0x40\n      mstore\n      dup1\n      swap3\n      swap2\n      swap1\n      dup2\n      dup2\n      mstore\n      0x20\n      add\n      dup3\n      dup1\n      sload\n      tag_133\n      swap1\n      tag_127\n      jump\t// in\n    tag_133:\n      dup1\n      iszero\n      tag_134\n      jumpi\n      dup1\n      0x1f\n      lt\n      tag_135\n      jumpi\n      0x0100\n      dup1\n      dup4\n      sload\n      div\n      mul\n      dup4\n      mstore\n      swap2\n      0x20\n      add\n      swap2\n      jump(tag_134)\n    tag_135:\n      dup3\n      add\n      swap2\n      swap1\n      0x00\n      mstore\n      keccak256(0x00, 0x20)\n      swap1\n    tag_136:\n      dup2\n      sload\n      dup2\n      mstore\n      swap1\n      0x01\n      add\n      swap1\n      0x20\n      add\n      dup1\n      dup4\n      gt\n      tag_136\n      jumpi\n      dup3\n      swap1\n      sub\n      0x1f\n      and\n      dup3\n      add\n      swap2\n    tag_134:\n      pop\n      pop\n      pop\n      pop\n      pop\n      swap1\n      dup1\n      0x03\n      add\n      dup1\n      sload\n      tag_137\n      swap1\n      tag_127\n      jump\t// in\n    tag_137:\n      dup1\n      0x1f\n      add\n      0x20\n      dup1\n      swap2\n      div\n      mul\n      0x20\n      add\n      mload(0x40)\n      swap1\n      dup2\n      add\n      0x40\n      mstore\n      dup1\n      swap3\n      swap2\n      swap1\n      dup2\n      dup2\n      mstore\n      0x20\n      add\n      dup3\n      dup1\n      sload\n      tag_138\n      swap1\n      tag_127\n      jump\t// in\n    tag_138:\n      dup1\n      iszero\n      tag_139\n      jumpi\n      dup1\n      0x1f\n      lt\n      tag_140\n      jumpi\n      0x0100\n      dup1\n      dup4\n      sload\n      div\n      mul\n      dup4\n      mstore\n      swap2\n      0x20\n      add\n      swap2\n      jump(tag_139)\n    tag_140:\n      dup3\n      add\n      swap2\n      swap1\n      0x00\n      mstore\n      keccak256(0x00, 0x20)\n      swap1\n    tag_141:\n      dup2\n      sload\n      dup2\n      mstore\n      swap1\n      0x01\n      add\n      swap1\n      0x20\n      add\n      dup1\n      dup4\n      gt\n      tag_141\n      jumpi\n      dup3\n      swap1\n      sub\n      0x1f\n      and\n      dup3\n      add\n      swap2\n    tag_139:\n      pop\n      pop\n      pop\n      pop\n      pop\n      swap1\n      dup1\n      0x04\n      add\n      sload\n      swap1\n      dup1\n      0x05\n      add\n      sload\n      swap1\n      dup1\n      0x06\n      add\n      sload\n      swap1\n      dup1\n      0x07\n      add\n      0x00\n      swap1\n      sload\n      swap1\n      0x0100\n      exp\n      swap1\n      div\n      0xffffffff\n      and\n      swap1\n      pop\n      dup9\n      jump\t// out\n        /* \"contracts/CarreraCoches/principal.sol\":1803:2022  function numeroAleatorio() public returns (uint256) {\r... */\n    tag_52:\n        /* \"contracts/CarreraCoches/principal.sol\":1846:1853  uint256 */\n      0x00\n        /* \"contracts/CarreraCoches/principal.sol\":1866:1877  uint numero */\n      dup1\n        /* \"contracts/CarreraCoches/principal.sol\":1880:1881  2 */\n      0x02\n        /* \"contracts/CarreraCoches/principal.sol\":1866:1881  uint numero = 2 */\n      swap1\n      pop\n        /* \"contracts/CarreraCoches/principal.sol\":1892:1906  uint256 result */\n      0x00\n        /* \"contracts/CarreraCoches/principal.sol\":1984:1990  numero */\n      dup2\n        /* \"contracts/CarreraCoches/principal.sol\":1944:1959  block.timestamp */\n      timestamp\n        /* \"contracts/CarreraCoches/principal.sol\":1961:1967  numero */\n      dup4\n        /* \"contracts/CarreraCoches/principal.sol\":1969:1978  randNonce */\n      sload(0x01)\n        /* \"contracts/CarreraCoches/principal.sol\":1927:1979  abi.encodePacked(block.timestamp, numero, randNonce) */\n      add(0x20, mload(0x40))\n      tag_143\n      swap4\n      swap3\n      swap2\n      swap1\n      tag_79\n      jump\t// in\n    tag_143:\n      mload(0x40)\n      0x20\n      dup2\n      dup4\n      sub\n      sub\n      dup2\n      mstore\n      swap1\n      0x40\n      mstore\n        /* \"contracts/CarreraCoches/principal.sol\":1917:1980  keccak256(abi.encodePacked(block.timestamp, numero, randNonce)) */\n      dup1\n      mload\n      swap1\n      0x20\n      add\n      keccak256\n        /* \"contracts/CarreraCoches/principal.sol\":1909:1981  uint256(keccak256(abi.encodePacked(block.timestamp, numero, randNonce))) */\n      0x00\n      shr\n        /* \"contracts/CarreraCoches/principal.sol\":1909:1990  uint256(keccak256(abi.encodePacked(block.timestamp, numero, randNonce))) % numero */\n      tag_144\n      swap2\n      swap1\n      tag_81\n      jump\t// in\n    tag_144:\n        /* \"contracts/CarreraCoches/principal.sol\":1892:1990  uint256 result = uint256(keccak256(abi.encodePacked(block.timestamp, numero, randNonce))) % numero */\n      swap1\n      pop\n        /* \"contracts/CarreraCoches/principal.sol\":2008:2014  result */\n      dup1\n        /* \"contracts/CarreraCoches/principal.sol\":2001:2014  return result */\n      swap3\n      pop\n      pop\n      pop\n        /* \"contracts/CarreraCoches/principal.sol\":1803:2022  function numeroAleatorio() public returns (uint256) {\r... */\n      swap1\n      jump\t// out\n        /* \"contracts/CarreraCoches/ownable.sol\":1978:2179  function transferOwnership(address newOwner) public virtual onlyOwner {\r... */\n    tag_57:\n        /* \"contracts/CarreraCoches/ownable.sol\":1300:1312  _msgSender() */\n      tag_146\n        /* \"contracts/CarreraCoches/ownable.sol\":1300:1310  _msgSender */\n      tag_115\n        /* \"contracts/CarreraCoches/ownable.sol\":1300:1312  _msgSender() */\n      jump\t// in\n    tag_146:\n        /* \"contracts/CarreraCoches/ownable.sol\":1289:1312  owner() == _msgSender() */\n      0xffffffffffffffffffffffffffffffffffffffff\n      and\n        /* \"contracts/CarreraCoches/ownable.sol\":1289:1296  owner() */\n      tag_147\n        /* \"contracts/CarreraCoches/ownable.sol\":1289:1294  owner */\n      tag_42\n        /* \"contracts/CarreraCoches/ownable.sol\":1289:1296  owner() */\n      jump\t// in\n    tag_147:\n        /* \"contracts/CarreraCoches/ownable.sol\":1289:1312  owner() == _msgSender() */\n      0xffffffffffffffffffffffffffffffffffffffff\n      and\n      eq\n        /* \"contracts/CarreraCoches/ownable.sol\":1281:1349  require(owner() == _msgSender(), \"Ownable: caller is not the owner\") */\n      tag_148\n      jumpi\n      mload(0x40)\n      0x08c379a000000000000000000000000000000000000000000000000000000000\n      dup2\n      mstore\n      0x04\n      add\n      tag_149\n      swap1\n      tag_119\n      jump\t// in\n    tag_149:\n      mload(0x40)\n      dup1\n      swap2\n      sub\n      swap1\n      revert\n    tag_148:\n        /* \"contracts/CarreraCoches/ownable.sol\":2087:2088  0 */\n      0x00\n        /* \"contracts/CarreraCoches/ownable.sol\":2067:2089  newOwner != address(0) */\n      0xffffffffffffffffffffffffffffffffffffffff\n      and\n        /* \"contracts/CarreraCoches/ownable.sol\":2067:2075  newOwner */\n      dup2\n        /* \"contracts/CarreraCoches/ownable.sol\":2067:2089  newOwner != address(0) */\n      0xffffffffffffffffffffffffffffffffffffffff\n      and\n      eq\n      iszero\n        /* \"contracts/CarreraCoches/ownable.sol\":2059:2132  require(newOwner != address(0), \"Ownable: new owner is the zero address\") */\n      tag_151\n      jumpi\n      mload(0x40)\n      0x08c379a000000000000000000000000000000000000000000000000000000000\n      dup2\n      mstore\n      0x04\n      add\n      tag_152\n      swap1\n      tag_153\n      jump\t// in\n    tag_152:\n      mload(0x40)\n      dup1\n      swap2\n      sub\n      swap1\n      revert\n    tag_151:\n        /* \"contracts/CarreraCoches/ownable.sol\":2143:2171  _transferOwnership(newOwner) */\n      tag_154\n        /* \"contracts/CarreraCoches/ownable.sol\":2162:2170  newOwner */\n      dup2\n        /* \"contracts/CarreraCoches/ownable.sol\":2143:2161  _transferOwnership */\n      tag_122\n        /* \"contracts/CarreraCoches/ownable.sol\":2143:2171  _transferOwnership(newOwner) */\n      jump\t// in\n    tag_154:\n        /* \"contracts/CarreraCoches/ownable.sol\":1978:2179  function transferOwnership(address newOwner) public virtual onlyOwner {\r... */\n      pop\n      jump\t// out\n        /* \"contracts/CarreraCoches/principal.sol\":3592:3771  function balance() private {\r... */\n    tag_95:\n        /* \"contracts/CarreraCoches/principal.sol\":3639:3649  msg.sender */\n      caller\n        /* \"contracts/CarreraCoches/principal.sol\":3630:3659  payable (msg.sender).transfer */\n      0xffffffffffffffffffffffffffffffffffffffff\n      and\n        /* \"contracts/CarreraCoches/principal.sol\":3630:3686  payable (msg.sender).transfer((address(this).balance)*2) */\n      0x08fc\n        /* \"contracts/CarreraCoches/principal.sol\":3684:3685  2 */\n      0x02\n        /* \"contracts/CarreraCoches/principal.sol\":3661:3682  address(this).balance */\n      selfbalance\n        /* \"contracts/CarreraCoches/principal.sol\":3660:3685  (address(this).balance)*2 */\n      tag_156\n      swap2\n      swap1\n      tag_157\n      jump\t// in\n    tag_156:\n        /* \"contracts/CarreraCoches/principal.sol\":3630:3686  payable (msg.sender).transfer((address(this).balance)*2) */\n      swap1\n      dup2\n      iszero\n      mul\n      swap1\n      mload(0x40)\n      0x00\n      mload(0x40)\n      dup1\n      dup4\n      sub\n      dup2\n      dup6\n      dup9\n      dup9\n      call\n      swap4\n      pop\n      pop\n      pop\n      pop\n      iszero\n      dup1\n      iszero\n      tag_159\n      jumpi\n      returndatasize\n      0x00\n      dup1\n      returndatacopy\n      revert(0x00, returndatasize)\n    tag_159:\n      pop\n        /* \"contracts/CarreraCoches/principal.sol\":3702:3763  mostrarResultado(\"Has ganado: \", ((address(this).balance)*2)) */\n      0xa28482eec3136a2461c6c30c08f71ba279c6c51a2d9c7bea4e50d6d2632f3896\n        /* \"contracts/CarreraCoches/principal.sol\":3760:3761  2 */\n      0x02\n        /* \"contracts/CarreraCoches/principal.sol\":3737:3758  address(this).balance */\n      selfbalance\n        /* \"contracts/CarreraCoches/principal.sol\":3736:3761  (address(this).balance)*2 */\n      tag_160\n      swap2\n      swap1\n      tag_157\n      jump\t// in\n    tag_160:\n        /* \"contracts/CarreraCoches/principal.sol\":3702:3763  mostrarResultado(\"Has ganado: \", ((address(this).balance)*2)) */\n      mload(0x40)\n      tag_161\n      swap2\n      swap1\n      tag_162\n      jump\t// in\n    tag_161:\n      mload(0x40)\n      dup1\n      swap2\n      sub\n      swap1\n      log1\n        /* \"contracts/CarreraCoches/principal.sol\":3592:3771  function balance() private {\r... */\n      jump\t// out\n        /* \"contracts/CarreraCoches/utils/Context.sol\":656:754  function _msgSender() internal view virtual returns (address) {\r... */\n    tag_115:\n        /* \"contracts/CarreraCoches/utils/Context.sol\":709:716  address */\n      0x00\n        /* \"contracts/CarreraCoches/utils/Context.sol\":736:746  msg.sender */\n      caller\n        /* \"contracts/CarreraCoches/utils/Context.sol\":729:746  return msg.sender */\n      swap1\n      pop\n        /* \"contracts/CarreraCoches/utils/Context.sol\":656:754  function _msgSender() internal view virtual returns (address) {\r... */\n      swap1\n      jump\t// out\n        /* \"contracts/CarreraCoches/ownable.sol\":2339:2530  function _transferOwnership(address newOwner) internal virtual {\r... */\n    tag_122:\n        /* \"contracts/CarreraCoches/ownable.sol\":2413:2429  address oldOwner */\n      0x00\n        /* \"contracts/CarreraCoches/ownable.sol\":2432:2438  _owner */\n      dup1\n      0x00\n      swap1\n      sload\n      swap1\n      0x0100\n      exp\n      swap1\n      div\n      0xffffffffffffffffffffffffffffffffffffffff\n      and\n        /* \"contracts/CarreraCoches/ownable.sol\":2413:2438  address oldOwner = _owner */\n      swap1\n      pop\n        /* \"contracts/CarreraCoches/ownable.sol\":2458:2466  newOwner */\n      dup2\n        /* \"contracts/CarreraCoches/ownable.sol\":2449:2455  _owner */\n      0x00\n      dup1\n        /* \"contracts/CarreraCoches/ownable.sol\":2449:2466  _owner = newOwner */\n      0x0100\n      exp\n      dup2\n      sload\n      dup2\n      0xffffffffffffffffffffffffffffffffffffffff\n      mul\n      not\n      and\n      swap1\n      dup4\n      0xffffffffffffffffffffffffffffffffffffffff\n      and\n      mul\n      or\n      swap1\n      sstore\n      pop\n        /* \"contracts/CarreraCoches/ownable.sol\":2513:2521  newOwner */\n      dup2\n        /* \"contracts/CarreraCoches/ownable.sol\":2482:2522  OwnershipTransferred(oldOwner, newOwner) */\n      0xffffffffffffffffffffffffffffffffffffffff\n      and\n        /* \"contracts/CarreraCoches/ownable.sol\":2503:2511  oldOwner */\n      dup2\n        /* \"contracts/CarreraCoches/ownable.sol\":2482:2522  OwnershipTransferred(oldOwner, newOwner) */\n      0xffffffffffffffffffffffffffffffffffffffff\n      and\n      0x8be0079c531659141344cd1fd0a4f28419497f9722a3daafe3b4186f6b6457e0\n      mload(0x40)\n      mload(0x40)\n      dup1\n      swap2\n      sub\n      swap1\n      log3\n        /* \"contracts/CarreraCoches/ownable.sol\":2402:2530  {\r... */\n      pop\n        /* \"contracts/CarreraCoches/ownable.sol\":2339:2530  function _transferOwnership(address newOwner) internal virtual {\r... */\n      pop\n      jump\t// out\n    tag_67:\n      dup3\n      dup1\n      sload\n      tag_167\n      swap1\n      tag_127\n      jump\t// in\n    tag_167:\n      swap1\n      0x00\n      mstore\n      keccak256(0x00, 0x20)\n      swap1\n      0x1f\n      add\n      0x20\n      swap1\n      div\n      dup2\n      add\n      swap3\n      dup3\n      tag_169\n      jumpi\n      0x00\n      dup6\n      sstore\n      jump(tag_168)\n    tag_169:\n      dup3\n      0x1f\n      lt\n      tag_170\n      jumpi\n      dup1\n      mload\n      not(0xff)\n      and\n      dup4\n      dup1\n      add\n      or\n      dup6\n      sstore\n      jump(tag_168)\n    tag_170:\n      dup3\n      dup1\n      add\n      0x01\n      add\n      dup6\n      sstore\n      dup3\n      iszero\n      tag_168\n      jumpi\n      swap2\n      dup3\n      add\n    tag_171:\n      dup3\n      dup2\n      gt\n      iszero\n      tag_172\n      jumpi\n      dup3\n      mload\n      dup3\n      sstore\n      swap2\n      0x20\n      add\n      swap2\n      swap1\n      0x01\n      add\n      swap1\n      jump(tag_171)\n    tag_172:\n    tag_168:\n      pop\n      swap1\n      pop\n      tag_173\n      swap2\n      swap1\n      tag_174\n      jump\t// in\n    tag_173:\n      pop\n      swap1\n      jump\t// out\n    tag_174:\n    tag_175:\n      dup1\n      dup3\n      gt\n      iszero\n      tag_176\n      jumpi\n      0x00\n      dup2\n      0x00\n      swap1\n      sstore\n      pop\n      0x01\n      add\n      jump(tag_175)\n    tag_176:\n      pop\n      swap1\n      jump\t// out\n        /* \"#utility.yul\":7:419   */\n    tag_178:\n        /* \"#utility.yul\":85:90   */\n      0x00\n        /* \"#utility.yul\":110:176   */\n      tag_180\n        /* \"#utility.yul\":126:175   */\n      tag_181\n        /* \"#utility.yul\":168:174   */\n      dup5\n        /* \"#utility.yul\":126:175   */\n      tag_182\n      jump\t// in\n    tag_181:\n        /* \"#utility.yul\":110:176   */\n      tag_183\n      jump\t// in\n    tag_180:\n        /* \"#utility.yul\":101:176   */\n      swap1\n      pop\n        /* \"#utility.yul\":199:205   */\n      dup3\n        /* \"#utility.yul\":192:197   */\n      dup2\n        /* \"#utility.yul\":185:206   */\n      mstore\n        /* \"#utility.yul\":237:241   */\n      0x20\n        /* \"#utility.yul\":230:235   */\n      dup2\n        /* \"#utility.yul\":226:242   */\n      add\n        /* \"#utility.yul\":275:278   */\n      dup5\n        /* \"#utility.yul\":266:272   */\n      dup5\n        /* \"#utility.yul\":261:264   */\n      dup5\n        /* \"#utility.yul\":257:273   */\n      add\n        /* \"#utility.yul\":254:279   */\n      gt\n        /* \"#utility.yul\":251:363   */\n      iszero\n      tag_184\n      jumpi\n        /* \"#utility.yul\":282:361   */\n      tag_185\n      tag_186\n      jump\t// in\n    tag_185:\n        /* \"#utility.yul\":251:363   */\n    tag_184:\n        /* \"#utility.yul\":372:413   */\n      tag_187\n        /* \"#utility.yul\":406:412   */\n      dup5\n        /* \"#utility.yul\":401:404   */\n      dup3\n        /* \"#utility.yul\":396:399   */\n      dup6\n        /* \"#utility.yul\":372:413   */\n      tag_188\n      jump\t// in\n    tag_187:\n        /* \"#utility.yul\":91:419   */\n      pop\n        /* \"#utility.yul\":7:419   */\n      swap4\n      swap3\n      pop\n      pop\n      pop\n      jump\t// out\n        /* \"#utility.yul\":425:564   */\n    tag_189:\n        /* \"#utility.yul\":471:476   */\n      0x00\n        /* \"#utility.yul\":509:515   */\n      dup2\n        /* \"#utility.yul\":496:516   */\n      calldataload\n        /* \"#utility.yul\":487:516   */\n      swap1\n      pop\n        /* \"#utility.yul\":525:558   */\n      tag_191\n        /* \"#utility.yul\":552:557   */\n      dup2\n        /* \"#utility.yul\":525:558   */\n      tag_192\n      jump\t// in\n    tag_191:\n        /* \"#utility.yul\":425:564   */\n      swap3\n      swap2\n      pop\n      pop\n      jump\t// out\n        /* \"#utility.yul\":584:924   */\n    tag_193:\n        /* \"#utility.yul\":640:645   */\n      0x00\n        /* \"#utility.yul\":689:692   */\n      dup3\n        /* \"#utility.yul\":682:686   */\n      0x1f\n        /* \"#utility.yul\":674:680   */\n      dup4\n        /* \"#utility.yul\":670:687   */\n      add\n        /* \"#utility.yul\":666:693   */\n      slt\n        /* \"#utility.yul\":656:778   */\n      tag_195\n      jumpi\n        /* \"#utility.yul\":697:776   */\n      tag_196\n      tag_197\n      jump\t// in\n    tag_196:\n        /* \"#utility.yul\":656:778   */\n    tag_195:\n        /* \"#utility.yul\":814:820   */\n      dup2\n        /* \"#utility.yul\":801:821   */\n      calldataload\n        /* \"#utility.yul\":839:918   */\n      tag_198\n        /* \"#utility.yul\":914:917   */\n      dup5\n        /* \"#utility.yul\":906:912   */\n      dup3\n        /* \"#utility.yul\":899:903   */\n      0x20\n        /* \"#utility.yul\":891:897   */\n      dup7\n        /* \"#utility.yul\":887:904   */\n      add\n        /* \"#utility.yul\":839:918   */\n      tag_178\n      jump\t// in\n    tag_198:\n        /* \"#utility.yul\":830:918   */\n      swap2\n      pop\n        /* \"#utility.yul\":646:924   */\n      pop\n        /* \"#utility.yul\":584:924   */\n      swap3\n      swap2\n      pop\n      pop\n      jump\t// out\n        /* \"#utility.yul\":930:1069   */\n    tag_199:\n        /* \"#utility.yul\":976:981   */\n      0x00\n        /* \"#utility.yul\":1014:1020   */\n      dup2\n        /* \"#utility.yul\":1001:1021   */\n      calldataload\n        /* \"#utility.yul\":992:1021   */\n      swap1\n      pop\n        /* \"#utility.yul\":1030:1063   */\n      tag_201\n        /* \"#utility.yul\":1057:1062   */\n      dup2\n        /* \"#utility.yul\":1030:1063   */\n      tag_202\n      jump\t// in\n    tag_201:\n        /* \"#utility.yul\":930:1069   */\n      swap3\n      swap2\n      pop\n      pop\n      jump\t// out\n        /* \"#utility.yul\":1075:1404   */\n    tag_15:\n        /* \"#utility.yul\":1134:1140   */\n      0x00\n        /* \"#utility.yul\":1183:1185   */\n      0x20\n        /* \"#utility.yul\":1171:1180   */\n      dup3\n        /* \"#utility.yul\":1162:1169   */\n      dup5\n        /* \"#utility.yul\":1158:1181   */\n      sub\n        /* \"#utility.yul\":1154:1186   */\n      slt\n        /* \"#utility.yul\":1151:1270   */\n      iszero\n      tag_204\n      jumpi\n        /* \"#utility.yul\":1189:1268   */\n      tag_205\n      tag_206\n      jump\t// in\n    tag_205:\n        /* \"#utility.yul\":1151:1270   */\n    tag_204:\n        /* \"#utility.yul\":1309:1310   */\n      0x00\n        /* \"#utility.yul\":1334:1387   */\n      tag_207\n        /* \"#utility.yul\":1379:1386   */\n      dup5\n        /* \"#utility.yul\":1370:1376   */\n      dup3\n        /* \"#utility.yul\":1359:1368   */\n      dup6\n        /* \"#utility.yul\":1355:1377   */\n      add\n        /* \"#utility.yul\":1334:1387   */\n      tag_189\n      jump\t// in\n    tag_207:\n        /* \"#utility.yul\":1324:1387   */\n      swap2\n      pop\n        /* \"#utility.yul\":1280:1397   */\n      pop\n        /* \"#utility.yul\":1075:1404   */\n      swap3\n      swap2\n      pop\n      pop\n      jump\t// out\n        /* \"#utility.yul\":1410:2569   */\n    tag_22:\n        /* \"#utility.yul\":1517:1523   */\n      0x00\n        /* \"#utility.yul\":1525:1531   */\n      dup1\n        /* \"#utility.yul\":1533:1539   */\n      0x00\n        /* \"#utility.yul\":1582:1584   */\n      0x60\n        /* \"#utility.yul\":1570:1579   */\n      dup5\n        /* \"#utility.yul\":1561:1568   */\n      dup7\n        /* \"#utility.yul\":1557:1580   */\n      sub\n        /* \"#utility.yul\":1553:1585   */\n      slt\n        /* \"#utility.yul\":1550:1669   */\n      iszero\n      tag_209\n      jumpi\n        /* \"#utility.yul\":1588:1667   */\n      tag_210\n      tag_206\n      jump\t// in\n    tag_210:\n        /* \"#utility.yul\":1550:1669   */\n    tag_209:\n        /* \"#utility.yul\":1736:1737   */\n      0x00\n        /* \"#utility.yul\":1725:1734   */\n      dup5\n        /* \"#utility.yul\":1721:1738   */\n      add\n        /* \"#utility.yul\":1708:1739   */\n      calldataload\n        /* \"#utility.yul\":1766:1784   */\n      0xffffffffffffffff\n        /* \"#utility.yul\":1758:1764   */\n      dup2\n        /* \"#utility.yul\":1755:1785   */\n      gt\n        /* \"#utility.yul\":1752:1869   */\n      iszero\n      tag_211\n      jumpi\n        /* \"#utility.yul\":1788:1867   */\n      tag_212\n      tag_213\n      jump\t// in\n    tag_212:\n        /* \"#utility.yul\":1752:1869   */\n    tag_211:\n        /* \"#utility.yul\":1893:1956   */\n      tag_214\n        /* \"#utility.yul\":1948:1955   */\n      dup7\n        /* \"#utility.yul\":1939:1945   */\n      dup3\n        /* \"#utility.yul\":1928:1937   */\n      dup8\n        /* \"#utility.yul\":1924:1946   */\n      add\n        /* \"#utility.yul\":1893:1956   */\n      tag_193\n      jump\t// in\n    tag_214:\n        /* \"#utility.yul\":1883:1956   */\n      swap4\n      pop\n        /* \"#utility.yul\":1679:1966   */\n      pop\n        /* \"#utility.yul\":2033:2035   */\n      0x20\n        /* \"#utility.yul\":2022:2031   */\n      dup5\n        /* \"#utility.yul\":2018:2036   */\n      add\n        /* \"#utility.yul\":2005:2037   */\n      calldataload\n        /* \"#utility.yul\":2064:2082   */\n      0xffffffffffffffff\n        /* \"#utility.yul\":2056:2062   */\n      dup2\n        /* \"#utility.yul\":2053:2083   */\n      gt\n        /* \"#utility.yul\":2050:2167   */\n      iszero\n      tag_215\n      jumpi\n        /* \"#utility.yul\":2086:2165   */\n      tag_216\n      tag_213\n      jump\t// in\n    tag_216:\n        /* \"#utility.yul\":2050:2167   */\n    tag_215:\n        /* \"#utility.yul\":2191:2254   */\n      tag_217\n        /* \"#utility.yul\":2246:2253   */\n      dup7\n        /* \"#utility.yul\":2237:2243   */\n      dup3\n        /* \"#utility.yul\":2226:2235   */\n      dup8\n        /* \"#utility.yul\":2222:2244   */\n      add\n        /* \"#utility.yul\":2191:2254   */\n      tag_193\n      jump\t// in\n    tag_217:\n        /* \"#utility.yul\":2181:2254   */\n      swap3\n      pop\n        /* \"#utility.yul\":1976:2264   */\n      pop\n        /* \"#utility.yul\":2331:2333   */\n      0x40\n        /* \"#utility.yul\":2320:2329   */\n      dup5\n        /* \"#utility.yul\":2316:2334   */\n      add\n        /* \"#utility.yul\":2303:2335   */\n      calldataload\n        /* \"#utility.yul\":2362:2380   */\n      0xffffffffffffffff\n        /* \"#utility.yul\":2354:2360   */\n      dup2\n        /* \"#utility.yul\":2351:2381   */\n      gt\n        /* \"#utility.yul\":2348:2465   */\n      iszero\n      tag_218\n      jumpi\n        /* \"#utility.yul\":2384:2463   */\n      tag_219\n      tag_213\n      jump\t// in\n    tag_219:\n        /* \"#utility.yul\":2348:2465   */\n    tag_218:\n        /* \"#utility.yul\":2489:2552   */\n      tag_220\n        /* \"#utility.yul\":2544:2551   */\n      dup7\n        /* \"#utility.yul\":2535:2541   */\n      dup3\n        /* \"#utility.yul\":2524:2533   */\n      dup8\n        /* \"#utility.yul\":2520:2542   */\n      add\n        /* \"#utility.yul\":2489:2552   */\n      tag_193\n      jump\t// in\n    tag_220:\n        /* \"#utility.yul\":2479:2552   */\n      swap2\n      pop\n        /* \"#utility.yul\":2274:2562   */\n      pop\n        /* \"#utility.yul\":1410:2569   */\n      swap3\n      pop\n      swap3\n      pop\n      swap3\n      jump\t// out\n        /* \"#utility.yul\":2575:2904   */\n    tag_27:\n        /* \"#utility.yul\":2634:2640   */\n      0x00\n        /* \"#utility.yul\":2683:2685   */\n      0x20\n        /* \"#utility.yul\":2671:2680   */\n      dup3\n        /* \"#utility.yul\":2662:2669   */\n      dup5\n        /* \"#utility.yul\":2658:2681   */\n      sub\n        /* \"#utility.yul\":2654:2686   */\n      slt\n        /* \"#utility.yul\":2651:2770   */\n      iszero\n      tag_222\n      jumpi\n        /* \"#utility.yul\":2689:2768   */\n      tag_223\n      tag_206\n      jump\t// in\n    tag_223:\n        /* \"#utility.yul\":2651:2770   */\n    tag_222:\n        /* \"#utility.yul\":2809:2810   */\n      0x00\n        /* \"#utility.yul\":2834:2887   */\n      tag_224\n        /* \"#utility.yul\":2879:2886   */\n      dup5\n        /* \"#utility.yul\":2870:2876   */\n      dup3\n        /* \"#utility.yul\":2859:2868   */\n      dup6\n        /* \"#utility.yul\":2855:2877   */\n      add\n        /* \"#utility.yul\":2834:2887   */\n      tag_199\n      jump\t// in\n    tag_224:\n        /* \"#utility.yul\":2824:2887   */\n      swap2\n      pop\n        /* \"#utility.yul\":2780:2897   */\n      pop\n        /* \"#utility.yul\":2575:2904   */\n      swap3\n      swap2\n      pop\n      pop\n      jump\t// out\n        /* \"#utility.yul\":2910:3028   */\n    tag_225:\n        /* \"#utility.yul\":2997:3021   */\n      tag_227\n        /* \"#utility.yul\":3015:3020   */\n      dup2\n        /* \"#utility.yul\":2997:3021   */\n      tag_228\n      jump\t// in\n    tag_227:\n        /* \"#utility.yul\":2992:2995   */\n      dup3\n        /* \"#utility.yul\":2985:3022   */\n      mstore\n        /* \"#utility.yul\":2910:3028   */\n      pop\n      pop\n      jump\t// out\n        /* \"#utility.yul\":3034:3398   */\n    tag_229:\n        /* \"#utility.yul\":3122:3125   */\n      0x00\n        /* \"#utility.yul\":3150:3189   */\n      tag_231\n        /* \"#utility.yul\":3183:3188   */\n      dup3\n        /* \"#utility.yul\":3150:3189   */\n      tag_232\n      jump\t// in\n    tag_231:\n        /* \"#utility.yul\":3205:3276   */\n      tag_233\n        /* \"#utility.yul\":3269:3275   */\n      dup2\n        /* \"#utility.yul\":3264:3267   */\n      dup6\n        /* \"#utility.yul\":3205:3276   */\n      tag_234\n      jump\t// in\n    tag_233:\n        /* \"#utility.yul\":3198:3276   */\n      swap4\n      pop\n        /* \"#utility.yul\":3285:3337   */\n      tag_235\n        /* \"#utility.yul\":3330:3336   */\n      dup2\n        /* \"#utility.yul\":3325:3328   */\n      dup6\n        /* \"#utility.yul\":3318:3322   */\n      0x20\n        /* \"#utility.yul\":3311:3316   */\n      dup7\n        /* \"#utility.yul\":3307:3323   */\n      add\n        /* \"#utility.yul\":3285:3337   */\n      tag_236\n      jump\t// in\n    tag_235:\n        /* \"#utility.yul\":3362:3391   */\n      tag_237\n        /* \"#utility.yul\":3384:3390   */\n      dup2\n        /* \"#utility.yul\":3362:3391   */\n      tag_238\n      jump\t// in\n    tag_237:\n        /* \"#utility.yul\":3357:3360   */\n      dup5\n        /* \"#utility.yul\":3353:3392   */\n      add\n        /* \"#utility.yul\":3346:3392   */\n      swap2\n      pop\n        /* \"#utility.yul\":3126:3398   */\n      pop\n        /* \"#utility.yul\":3034:3398   */\n      swap3\n      swap2\n      pop\n      pop\n      jump\t// out\n        /* \"#utility.yul\":3404:3770   */\n    tag_239:\n        /* \"#utility.yul\":3546:3549   */\n      0x00\n        /* \"#utility.yul\":3567:3634   */\n      tag_241\n        /* \"#utility.yul\":3631:3633   */\n      0x28\n        /* \"#utility.yul\":3626:3629   */\n      dup4\n        /* \"#utility.yul\":3567:3634   */\n      tag_234\n      jump\t// in\n    tag_241:\n        /* \"#utility.yul\":3560:3634   */\n      swap2\n      pop\n        /* \"#utility.yul\":3643:3736   */\n      tag_242\n        /* \"#utility.yul\":3732:3735   */\n      dup3\n        /* \"#utility.yul\":3643:3736   */\n      tag_243\n      jump\t// in\n    tag_242:\n        /* \"#utility.yul\":3761:3763   */\n      0x40\n        /* \"#utility.yul\":3756:3759   */\n      dup3\n        /* \"#utility.yul\":3752:3764   */\n      add\n        /* \"#utility.yul\":3745:3764   */\n      swap1\n      pop\n        /* \"#utility.yul\":3404:3770   */\n      swap2\n      swap1\n      pop\n      jump\t// out\n        /* \"#utility.yul\":3776:4142   */\n    tag_244:\n        /* \"#utility.yul\":3918:3921   */\n      0x00\n        /* \"#utility.yul\":3939:4006   */\n      tag_246\n        /* \"#utility.yul\":4003:4005   */\n      0x26\n        /* \"#utility.yul\":3998:4001   */\n      dup4\n        /* \"#utility.yul\":3939:4006   */\n      tag_234\n      jump\t// in\n    tag_246:\n        /* \"#utility.yul\":3932:4006   */\n      swap2\n      pop\n        /* \"#utility.yul\":4015:4108   */\n      tag_247\n        /* \"#utility.yul\":4104:4107   */\n      dup3\n        /* \"#utility.yul\":4015:4108   */\n      tag_248\n      jump\t// in\n    tag_247:\n        /* \"#utility.yul\":4133:4135   */\n      0x40\n        /* \"#utility.yul\":4128:4131   */\n      dup3\n        /* \"#utility.yul\":4124:4136   */\n      add\n        /* \"#utility.yul\":4117:4136   */\n      swap1\n      pop\n        /* \"#utility.yul\":3776:4142   */\n      swap2\n      swap1\n      pop\n      jump\t// out\n        /* \"#utility.yul\":4148:4514   */\n    tag_249:\n        /* \"#utility.yul\":4290:4293   */\n      0x00\n        /* \"#utility.yul\":4311:4378   */\n      tag_251\n        /* \"#utility.yul\":4375:4377   */\n      0x0c\n        /* \"#utility.yul\":4370:4373   */\n      dup4\n        /* \"#utility.yul\":4311:4378   */\n      tag_234\n      jump\t// in\n    tag_251:\n        /* \"#utility.yul\":4304:4378   */\n      swap2\n      pop\n        /* \"#utility.yul\":4387:4480   */\n      tag_252\n        /* \"#utility.yul\":4476:4479   */\n      dup3\n        /* \"#utility.yul\":4387:4480   */\n      tag_253\n      jump\t// in\n    tag_252:\n        /* \"#utility.yul\":4505:4507   */\n      0x20\n        /* \"#utility.yul\":4500:4503   */\n      dup3\n        /* \"#utility.yul\":4496:4508   */\n      add\n        /* \"#utility.yul\":4489:4508   */\n      swap1\n      pop\n        /* \"#utility.yul\":4148:4514   */\n      swap2\n      swap1\n      pop\n      jump\t// out\n        /* \"#utility.yul\":4520:4886   */\n    tag_254:\n        /* \"#utility.yul\":4662:4665   */\n      0x00\n        /* \"#utility.yul\":4683:4750   */\n      tag_256\n        /* \"#utility.yul\":4747:4749   */\n      0x20\n        /* \"#utility.yul\":4742:4745   */\n      dup4\n        /* \"#utility.yul\":4683:4750   */\n      tag_234\n      jump\t// in\n    tag_256:\n        /* \"#utility.yul\":4676:4750   */\n      swap2\n      pop\n        /* \"#utility.yul\":4759:4852   */\n      tag_257\n        /* \"#utility.yul\":4848:4851   */\n      dup3\n        /* \"#utility.yul\":4759:4852   */\n      tag_258\n      jump\t// in\n    tag_257:\n        /* \"#utility.yul\":4877:4879   */\n      0x20\n        /* \"#utility.yul\":4872:4875   */\n      dup3\n        /* \"#utility.yul\":4868:4880   */\n      add\n        /* \"#utility.yul\":4861:4880   */\n      swap1\n      pop\n        /* \"#utility.yul\":4520:4886   */\n      swap2\n      swap1\n      pop\n      jump\t// out\n        /* \"#utility.yul\":4892:5258   */\n    tag_259:\n        /* \"#utility.yul\":5034:5037   */\n      0x00\n        /* \"#utility.yul\":5055:5122   */\n      tag_261\n        /* \"#utility.yul\":5119:5121   */\n      0x15\n        /* \"#utility.yul\":5114:5117   */\n      dup4\n        /* \"#utility.yul\":5055:5122   */\n      tag_234\n      jump\t// in\n    tag_261:\n        /* \"#utility.yul\":5048:5122   */\n      swap2\n      pop\n        /* \"#utility.yul\":5131:5224   */\n      tag_262\n        /* \"#utility.yul\":5220:5223   */\n      dup3\n        /* \"#utility.yul\":5131:5224   */\n      tag_263\n      jump\t// in\n    tag_262:\n        /* \"#utility.yul\":5249:5251   */\n      0x20\n        /* \"#utility.yul\":5244:5247   */\n      dup3\n        /* \"#utility.yul\":5240:5252   */\n      add\n        /* \"#utility.yul\":5233:5252   */\n      swap1\n      pop\n        /* \"#utility.yul\":4892:5258   */\n      swap2\n      swap1\n      pop\n      jump\t// out\n        /* \"#utility.yul\":5264:5382   */\n    tag_264:\n        /* \"#utility.yul\":5351:5375   */\n      tag_266\n        /* \"#utility.yul\":5369:5374   */\n      dup2\n        /* \"#utility.yul\":5351:5375   */\n      tag_267\n      jump\t// in\n    tag_266:\n        /* \"#utility.yul\":5346:5349   */\n      dup3\n        /* \"#utility.yul\":5339:5376   */\n      mstore\n        /* \"#utility.yul\":5264:5382   */\n      pop\n      pop\n      jump\t// out\n        /* \"#utility.yul\":5388:5545   */\n    tag_268:\n        /* \"#utility.yul\":5493:5538   */\n      tag_270\n        /* \"#utility.yul\":5513:5537   */\n      tag_271\n        /* \"#utility.yul\":5531:5536   */\n      dup3\n        /* \"#utility.yul\":5513:5537   */\n      tag_267\n      jump\t// in\n    tag_271:\n        /* \"#utility.yul\":5493:5538   */\n      tag_272\n      jump\t// in\n    tag_270:\n        /* \"#utility.yul\":5488:5491   */\n      dup3\n        /* \"#utility.yul\":5481:5539   */\n      mstore\n        /* \"#utility.yul\":5388:5545   */\n      pop\n      pop\n      jump\t// out\n        /* \"#utility.yul\":5551:5666   */\n    tag_273:\n        /* \"#utility.yul\":5636:5659   */\n      tag_275\n        /* \"#utility.yul\":5653:5658   */\n      dup2\n        /* \"#utility.yul\":5636:5659   */\n      tag_276\n      jump\t// in\n    tag_275:\n        /* \"#utility.yul\":5631:5634   */\n      dup3\n        /* \"#utility.yul\":5624:5660   */\n      mstore\n        /* \"#utility.yul\":5551:5666   */\n      pop\n      pop\n      jump\t// out\n        /* \"#utility.yul\":5672:6210   */\n    tag_79:\n        /* \"#utility.yul\":5840:5843   */\n      0x00\n        /* \"#utility.yul\":5855:5930   */\n      tag_278\n        /* \"#utility.yul\":5926:5929   */\n      dup3\n        /* \"#utility.yul\":5917:5923   */\n      dup7\n        /* \"#utility.yul\":5855:5930   */\n      tag_268\n      jump\t// in\n    tag_278:\n        /* \"#utility.yul\":5955:5957   */\n      0x20\n        /* \"#utility.yul\":5950:5953   */\n      dup3\n        /* \"#utility.yul\":5946:5958   */\n      add\n        /* \"#utility.yul\":5939:5958   */\n      swap2\n      pop\n        /* \"#utility.yul\":5968:6043   */\n      tag_279\n        /* \"#utility.yul\":6039:6042   */\n      dup3\n        /* \"#utility.yul\":6030:6036   */\n      dup6\n        /* \"#utility.yul\":5968:6043   */\n      tag_268\n      jump\t// in\n    tag_279:\n        /* \"#utility.yul\":6068:6070   */\n      0x20\n        /* \"#utility.yul\":6063:6066   */\n      dup3\n        /* \"#utility.yul\":6059:6071   */\n      add\n        /* \"#utility.yul\":6052:6071   */\n      swap2\n      pop\n        /* \"#utility.yul\":6081:6156   */\n      tag_280\n        /* \"#utility.yul\":6152:6155   */\n      dup3\n        /* \"#utility.yul\":6143:6149   */\n      dup5\n        /* \"#utility.yul\":6081:6156   */\n      tag_268\n      jump\t// in\n    tag_280:\n        /* \"#utility.yul\":6181:6183   */\n      0x20\n        /* \"#utility.yul\":6176:6179   */\n      dup3\n        /* \"#utility.yul\":6172:6184   */\n      add\n        /* \"#utility.yul\":6165:6184   */\n      swap2\n      pop\n        /* \"#utility.yul\":6201:6204   */\n      dup2\n        /* \"#utility.yul\":6194:6204   */\n      swap1\n      pop\n        /* \"#utility.yul\":5672:6210   */\n      swap5\n      swap4\n      pop\n      pop\n      pop\n      pop\n      jump\t// out\n        /* \"#utility.yul\":6216:6438   */\n    tag_39:\n        /* \"#utility.yul\":6309:6313   */\n      0x00\n        /* \"#utility.yul\":6347:6349   */\n      0x20\n        /* \"#utility.yul\":6336:6345   */\n      dup3\n        /* \"#utility.yul\":6332:6350   */\n      add\n        /* \"#utility.yul\":6324:6350   */\n      swap1\n      pop\n        /* \"#utility.yul\":6360:6431   */\n      tag_282\n        /* \"#utility.yul\":6428:6429   */\n      0x00\n        /* \"#utility.yul\":6417:6426   */\n      dup4\n        /* \"#utility.yul\":6413:6430   */\n      add\n        /* \"#utility.yul\":6404:6410   */\n      dup5\n        /* \"#utility.yul\":6360:6431   */\n      tag_225\n      jump\t// in\n    tag_282:\n        /* \"#utility.yul\":6216:6438   */\n      swap3\n      swap2\n      pop\n      pop\n      jump\t// out\n        /* \"#utility.yul\":6444:7710   */\n    tag_49:\n        /* \"#utility.yul\":6791:6795   */\n      0x00\n        /* \"#utility.yul\":6829:6832   */\n      0x0100\n        /* \"#utility.yul\":6818:6827   */\n      dup3\n        /* \"#utility.yul\":6814:6833   */\n      add\n        /* \"#utility.yul\":6806:6833   */\n      swap1\n      pop\n        /* \"#utility.yul\":6843:6914   */\n      tag_284\n        /* \"#utility.yul\":6911:6912   */\n      0x00\n        /* \"#utility.yul\":6900:6909   */\n      dup4\n        /* \"#utility.yul\":6896:6913   */\n      add\n        /* \"#utility.yul\":6887:6893   */\n      dup12\n        /* \"#utility.yul\":6843:6914   */\n      tag_225\n      jump\t// in\n    tag_284:\n        /* \"#utility.yul\":6961:6970   */\n      dup2\n        /* \"#utility.yul\":6955:6959   */\n      dup2\n        /* \"#utility.yul\":6951:6971   */\n      sub\n        /* \"#utility.yul\":6946:6948   */\n      0x20\n        /* \"#utility.yul\":6935:6944   */\n      dup4\n        /* \"#utility.yul\":6931:6949   */\n      add\n        /* \"#utility.yul\":6924:6972   */\n      mstore\n        /* \"#utility.yul\":6989:7067   */\n      tag_285\n        /* \"#utility.yul\":7062:7066   */\n      dup2\n        /* \"#utility.yul\":7053:7059   */\n      dup11\n        /* \"#utility.yul\":6989:7067   */\n      tag_229\n      jump\t// in\n    tag_285:\n        /* \"#utility.yul\":6981:7067   */\n      swap1\n      pop\n        /* \"#utility.yul\":7114:7123   */\n      dup2\n        /* \"#utility.yul\":7108:7112   */\n      dup2\n        /* \"#utility.yul\":7104:7124   */\n      sub\n        /* \"#utility.yul\":7099:7101   */\n      0x40\n        /* \"#utility.yul\":7088:7097   */\n      dup4\n        /* \"#utility.yul\":7084:7102   */\n      add\n        /* \"#utility.yul\":7077:7125   */\n      mstore\n        /* \"#utility.yul\":7142:7220   */\n      tag_286\n        /* \"#utility.yul\":7215:7219   */\n      dup2\n        /* \"#utility.yul\":7206:7212   */\n      dup10\n        /* \"#utility.yul\":7142:7220   */\n      tag_229\n      jump\t// in\n    tag_286:\n        /* \"#utility.yul\":7134:7220   */\n      swap1\n      pop\n        /* \"#utility.yul\":7267:7276   */\n      dup2\n        /* \"#utility.yul\":7261:7265   */\n      dup2\n        /* \"#utility.yul\":7257:7277   */\n      sub\n        /* \"#utility.yul\":7252:7254   */\n      0x60\n        /* \"#utility.yul\":7241:7250   */\n      dup4\n        /* \"#utility.yul\":7237:7255   */\n      add\n        /* \"#utility.yul\":7230:7278   */\n      mstore\n        /* \"#utility.yul\":7295:7373   */\n      tag_287\n        /* \"#utility.yul\":7368:7372   */\n      dup2\n        /* \"#utility.yul\":7359:7365   */\n      dup9\n        /* \"#utility.yul\":7295:7373   */\n      tag_229\n      jump\t// in\n    tag_287:\n        /* \"#utility.yul\":7287:7373   */\n      swap1\n      pop\n        /* \"#utility.yul\":7383:7456   */\n      tag_288\n        /* \"#utility.yul\":7451:7454   */\n      0x80\n        /* \"#utility.yul\":7440:7449   */\n      dup4\n        /* \"#utility.yul\":7436:7455   */\n      add\n        /* \"#utility.yul\":7427:7433   */\n      dup8\n        /* \"#utility.yul\":7383:7456   */\n      tag_264\n      jump\t// in\n    tag_288:\n        /* \"#utility.yul\":7466:7539   */\n      tag_289\n        /* \"#utility.yul\":7534:7537   */\n      0xa0\n        /* \"#utility.yul\":7523:7532   */\n      dup4\n        /* \"#utility.yul\":7519:7538   */\n      add\n        /* \"#utility.yul\":7510:7516   */\n      dup7\n        /* \"#utility.yul\":7466:7539   */\n      tag_264\n      jump\t// in\n    tag_289:\n        /* \"#utility.yul\":7549:7622   */\n      tag_290\n        /* \"#utility.yul\":7617:7620   */\n      0xc0\n        /* \"#utility.yul\":7606:7615   */\n      dup4\n        /* \"#utility.yul\":7602:7621   */\n      add\n        /* \"#utility.yul\":7593:7599   */\n      dup6\n        /* \"#utility.yul\":7549:7622   */\n      tag_264\n      jump\t// in\n    tag_290:\n        /* \"#utility.yul\":7632:7703   */\n      tag_291\n        /* \"#utility.yul\":7698:7701   */\n      0xe0\n        /* \"#utility.yul\":7687:7696   */\n      dup4\n        /* \"#utility.yul\":7683:7702   */\n      add\n        /* \"#utility.yul\":7674:7680   */\n      dup5\n        /* \"#utility.yul\":7632:7703   */\n      tag_273\n      jump\t// in\n    tag_291:\n        /* \"#utility.yul\":6444:7710   */\n      swap10\n      swap9\n      pop\n      pop\n      pop\n      pop\n      pop\n      pop\n      pop\n      pop\n      pop\n      jump\t// out\n        /* \"#utility.yul\":7716:8029   */\n    tag_30:\n        /* \"#utility.yul\":7829:7833   */\n      0x00\n        /* \"#utility.yul\":7867:7869   */\n      0x20\n        /* \"#utility.yul\":7856:7865   */\n      dup3\n        /* \"#utility.yul\":7852:7870   */\n      add\n        /* \"#utility.yul\":7844:7870   */\n      swap1\n      pop\n        /* \"#utility.yul\":7916:7925   */\n      dup2\n        /* \"#utility.yul\":7910:7914   */\n      dup2\n        /* \"#utility.yul\":7906:7926   */\n      sub\n        /* \"#utility.yul\":7902:7903   */\n      0x00\n        /* \"#utility.yul\":7891:7900   */\n      dup4\n        /* \"#utility.yul\":7887:7904   */\n      add\n        /* \"#utility.yul\":7880:7927   */\n      mstore\n        /* \"#utility.yul\":7944:8022   */\n      tag_293\n        /* \"#utility.yul\":8017:8021   */\n      dup2\n        /* \"#utility.yul\":8008:8014   */\n      dup5\n        /* \"#utility.yul\":7944:8022   */\n      tag_229\n      jump\t// in\n    tag_293:\n        /* \"#utility.yul\":7936:8022   */\n      swap1\n      pop\n        /* \"#utility.yul\":7716:8029   */\n      swap3\n      swap2\n      pop\n      pop\n      jump\t// out\n        /* \"#utility.yul\":8035:8454   */\n    tag_61:\n        /* \"#utility.yul\":8201:8205   */\n      0x00\n        /* \"#utility.yul\":8239:8241   */\n      0x20\n        /* \"#utility.yul\":8228:8237   */\n      dup3\n        /* \"#utility.yul\":8224:8242   */\n      add\n        /* \"#utility.yul\":8216:8242   */\n      swap1\n      pop\n        /* \"#utility.yul\":8288:8297   */\n      dup2\n        /* \"#utility.yul\":8282:8286   */\n      dup2\n        /* \"#utility.yul\":8278:8298   */\n      sub\n        /* \"#utility.yul\":8274:8275   */\n      0x00\n        /* \"#utility.yul\":8263:8272   */\n      dup4\n        /* \"#utility.yul\":8259:8276   */\n      add\n        /* \"#utility.yul\":8252:8299   */\n      mstore\n        /* \"#utility.yul\":8316:8447   */\n      tag_295\n        /* \"#utility.yul\":8442:8446   */\n      dup2\n        /* \"#utility.yul\":8316:8447   */\n      tag_239\n      jump\t// in\n    tag_295:\n        /* \"#utility.yul\":8308:8447   */\n      swap1\n      pop\n        /* \"#utility.yul\":8035:8454   */\n      swap2\n      swap1\n      pop\n      jump\t// out\n        /* \"#utility.yul\":8460:8879   */\n    tag_153:\n        /* \"#utility.yul\":8626:8630   */\n      0x00\n        /* \"#utility.yul\":8664:8666   */\n      0x20\n        /* \"#utility.yul\":8653:8662   */\n      dup3\n        /* \"#utility.yul\":8649:8667   */\n      add\n        /* \"#utility.yul\":8641:8667   */\n      swap1\n      pop\n        /* \"#utility.yul\":8713:8722   */\n      dup2\n        /* \"#utility.yul\":8707:8711   */\n      dup2\n        /* \"#utility.yul\":8703:8723   */\n      sub\n        /* \"#utility.yul\":8699:8700   */\n      0x00\n        /* \"#utility.yul\":8688:8697   */\n      dup4\n        /* \"#utility.yul\":8684:8701   */\n      add\n        /* \"#utility.yul\":8677:8724   */\n      mstore\n        /* \"#utility.yul\":8741:8872   */\n      tag_297\n        /* \"#utility.yul\":8867:8871   */\n      dup2\n        /* \"#utility.yul\":8741:8872   */\n      tag_244\n      jump\t// in\n    tag_297:\n        /* \"#utility.yul\":8733:8872   */\n      swap1\n      pop\n        /* \"#utility.yul\":8460:8879   */\n      swap2\n      swap1\n      pop\n      jump\t// out\n        /* \"#utility.yul\":8885:9414   */\n    tag_162:\n        /* \"#utility.yul\":9079:9083   */\n      0x00\n        /* \"#utility.yul\":9117:9119   */\n      0x40\n        /* \"#utility.yul\":9106:9115   */\n      dup3\n        /* \"#utility.yul\":9102:9120   */\n      add\n        /* \"#utility.yul\":9094:9120   */\n      swap1\n      pop\n        /* \"#utility.yul\":9166:9175   */\n      dup2\n        /* \"#utility.yul\":9160:9164   */\n      dup2\n        /* \"#utility.yul\":9156:9176   */\n      sub\n        /* \"#utility.yul\":9152:9153   */\n      0x00\n        /* \"#utility.yul\":9141:9150   */\n      dup4\n        /* \"#utility.yul\":9137:9154   */\n      add\n        /* \"#utility.yul\":9130:9177   */\n      mstore\n        /* \"#utility.yul\":9194:9325   */\n      tag_299\n        /* \"#utility.yul\":9320:9324   */\n      dup2\n        /* \"#utility.yul\":9194:9325   */\n      tag_249\n      jump\t// in\n    tag_299:\n        /* \"#utility.yul\":9186:9325   */\n      swap1\n      pop\n        /* \"#utility.yul\":9335:9407   */\n      tag_300\n        /* \"#utility.yul\":9403:9405   */\n      0x20\n        /* \"#utility.yul\":9392:9401   */\n      dup4\n        /* \"#utility.yul\":9388:9406   */\n      add\n        /* \"#utility.yul\":9379:9385   */\n      dup5\n        /* \"#utility.yul\":9335:9407   */\n      tag_264\n      jump\t// in\n    tag_300:\n        /* \"#utility.yul\":8885:9414   */\n      swap3\n      swap2\n      pop\n      pop\n      jump\t// out\n        /* \"#utility.yul\":9420:9839   */\n    tag_119:\n        /* \"#utility.yul\":9586:9590   */\n      0x00\n        /* \"#utility.yul\":9624:9626   */\n      0x20\n        /* \"#utility.yul\":9613:9622   */\n      dup3\n        /* \"#utility.yul\":9609:9627   */\n      add\n        /* \"#utility.yul\":9601:9627   */\n      swap1\n      pop\n        /* \"#utility.yul\":9673:9682   */\n      dup2\n        /* \"#utility.yul\":9667:9671   */\n      dup2\n        /* \"#utility.yul\":9663:9683   */\n      sub\n        /* \"#utility.yul\":9659:9660   */\n      0x00\n        /* \"#utility.yul\":9648:9657   */\n      dup4\n        /* \"#utility.yul\":9644:9661   */\n      add\n        /* \"#utility.yul\":9637:9684   */\n      mstore\n        /* \"#utility.yul\":9701:9832   */\n      tag_302\n        /* \"#utility.yul\":9827:9831   */\n      dup2\n        /* \"#utility.yul\":9701:9832   */\n      tag_254\n      jump\t// in\n    tag_302:\n        /* \"#utility.yul\":9693:9832   */\n      swap1\n      pop\n        /* \"#utility.yul\":9420:9839   */\n      swap2\n      swap1\n      pop\n      jump\t// out\n        /* \"#utility.yul\":9845:10374   */\n    tag_102:\n        /* \"#utility.yul\":10039:10043   */\n      0x00\n        /* \"#utility.yul\":10077:10079   */\n      0x40\n        /* \"#utility.yul\":10066:10075   */\n      dup3\n        /* \"#utility.yul\":10062:10080   */\n      add\n        /* \"#utility.yul\":10054:10080   */\n      swap1\n      pop\n        /* \"#utility.yul\":10126:10135   */\n      dup2\n        /* \"#utility.yul\":10120:10124   */\n      dup2\n        /* \"#utility.yul\":10116:10136   */\n      sub\n        /* \"#utility.yul\":10112:10113   */\n      0x00\n        /* \"#utility.yul\":10101:10110   */\n      dup4\n        /* \"#utility.yul\":10097:10114   */\n      add\n        /* \"#utility.yul\":10090:10137   */\n      mstore\n        /* \"#utility.yul\":10154:10285   */\n      tag_304\n        /* \"#utility.yul\":10280:10284   */\n      dup2\n        /* \"#utility.yul\":10154:10285   */\n      tag_259\n      jump\t// in\n    tag_304:\n        /* \"#utility.yul\":10146:10285   */\n      swap1\n      pop\n        /* \"#utility.yul\":10295:10367   */\n      tag_305\n        /* \"#utility.yul\":10363:10365   */\n      0x20\n        /* \"#utility.yul\":10352:10361   */\n      dup4\n        /* \"#utility.yul\":10348:10366   */\n      add\n        /* \"#utility.yul\":10339:10345   */\n      dup5\n        /* \"#utility.yul\":10295:10367   */\n      tag_264\n      jump\t// in\n    tag_305:\n        /* \"#utility.yul\":9845:10374   */\n      swap3\n      swap2\n      pop\n      pop\n      jump\t// out\n        /* \"#utility.yul\":10380:10602   */\n    tag_18:\n        /* \"#utility.yul\":10473:10477   */\n      0x00\n        /* \"#utility.yul\":10511:10513   */\n      0x20\n        /* \"#utility.yul\":10500:10509   */\n      dup3\n        /* \"#utility.yul\":10496:10514   */\n      add\n        /* \"#utility.yul\":10488:10514   */\n      swap1\n      pop\n        /* \"#utility.yul\":10524:10595   */\n      tag_307\n        /* \"#utility.yul\":10592:10593   */\n      0x00\n        /* \"#utility.yul\":10581:10590   */\n      dup4\n        /* \"#utility.yul\":10577:10594   */\n      add\n        /* \"#utility.yul\":10568:10574   */\n      dup5\n        /* \"#utility.yul\":10524:10595   */\n      tag_264\n      jump\t// in\n    tag_307:\n        /* \"#utility.yul\":10380:10602   */\n      swap3\n      swap2\n      pop\n      pop\n      jump\t// out\n        /* \"#utility.yul\":10608:10737   */\n    tag_183:\n        /* \"#utility.yul\":10642:10648   */\n      0x00\n        /* \"#utility.yul\":10669:10689   */\n      tag_309\n      tag_310\n      jump\t// in\n    tag_309:\n        /* \"#utility.yul\":10659:10689   */\n      swap1\n      pop\n        /* \"#utility.yul\":10698:10731   */\n      tag_311\n        /* \"#utility.yul\":10726:10730   */\n      dup3\n        /* \"#utility.yul\":10718:10724   */\n      dup3\n        /* \"#utility.yul\":10698:10731   */\n      tag_312\n      jump\t// in\n    tag_311:\n        /* \"#utility.yul\":10608:10737   */\n      swap2\n      swap1\n      pop\n      jump\t// out\n        /* \"#utility.yul\":10743:10818   */\n    tag_310:\n        /* \"#utility.yul\":10776:10782   */\n      0x00\n        /* \"#utility.yul\":10809:10811   */\n      0x40\n        /* \"#utility.yul\":10803:10812   */\n      mload\n        /* \"#utility.yul\":10793:10812   */\n      swap1\n      pop\n        /* \"#utility.yul\":10743:10818   */\n      swap1\n      jump\t// out\n        /* \"#utility.yul\":10824:11132   */\n    tag_182:\n        /* \"#utility.yul\":10886:10890   */\n      0x00\n        /* \"#utility.yul\":10976:10994   */\n      0xffffffffffffffff\n        /* \"#utility.yul\":10968:10974   */\n      dup3\n        /* \"#utility.yul\":10965:10995   */\n      gt\n        /* \"#utility.yul\":10962:11018   */\n      iszero\n      tag_315\n      jumpi\n        /* \"#utility.yul\":10998:11016   */\n      tag_316\n      tag_317\n      jump\t// in\n    tag_316:\n        /* \"#utility.yul\":10962:11018   */\n    tag_315:\n        /* \"#utility.yul\":11036:11065   */\n      tag_318\n        /* \"#utility.yul\":11058:11064   */\n      dup3\n        /* \"#utility.yul\":11036:11065   */\n      tag_238\n      jump\t// in\n    tag_318:\n        /* \"#utility.yul\":11028:11065   */\n      swap1\n      pop\n        /* \"#utility.yul\":11120:11124   */\n      0x20\n        /* \"#utility.yul\":11114:11118   */\n      dup2\n        /* \"#utility.yul\":11110:11125   */\n      add\n        /* \"#utility.yul\":11102:11125   */\n      swap1\n      pop\n        /* \"#utility.yul\":10824:11132   */\n      swap2\n      swap1\n      pop\n      jump\t// out\n        /* \"#utility.yul\":11138:11237   */\n    tag_232:\n        /* \"#utility.yul\":11190:11196   */\n      0x00\n        /* \"#utility.yul\":11224:11229   */\n      dup2\n        /* \"#utility.yul\":11218:11230   */\n      mload\n        /* \"#utility.yul\":11208:11230   */\n      swap1\n      pop\n        /* \"#utility.yul\":11138:11237   */\n      swap2\n      swap1\n      pop\n      jump\t// out\n        /* \"#utility.yul\":11243:11412   */\n    tag_234:\n        /* \"#utility.yul\":11327:11338   */\n      0x00\n        /* \"#utility.yul\":11361:11367   */\n      dup3\n        /* \"#utility.yul\":11356:11359   */\n      dup3\n        /* \"#utility.yul\":11349:11368   */\n      mstore\n        /* \"#utility.yul\":11401:11405   */\n      0x20\n        /* \"#utility.yul\":11396:11399   */\n      dup3\n        /* \"#utility.yul\":11392:11406   */\n      add\n        /* \"#utility.yul\":11377:11406   */\n      swap1\n      pop\n        /* \"#utility.yul\":11243:11412   */\n      swap3\n      swap2\n      pop\n      pop\n      jump\t// out\n        /* \"#utility.yul\":11418:11723   */\n    tag_64:\n        /* \"#utility.yul\":11458:11461   */\n      0x00\n        /* \"#utility.yul\":11477:11497   */\n      tag_322\n        /* \"#utility.yul\":11495:11496   */\n      dup3\n        /* \"#utility.yul\":11477:11497   */\n      tag_267\n      jump\t// in\n    tag_322:\n        /* \"#utility.yul\":11472:11497   */\n      swap2\n      pop\n        /* \"#utility.yul\":11511:11531   */\n      tag_323\n        /* \"#utility.yul\":11529:11530   */\n      dup4\n        /* \"#utility.yul\":11511:11531   */\n      tag_267\n      jump\t// in\n    tag_323:\n        /* \"#utility.yul\":11506:11531   */\n      swap3\n      pop\n        /* \"#utility.yul\":11665:11666   */\n      dup3\n        /* \"#utility.yul\":11597:11663   */\n      0xffffffffffffffffffffffffffffffffffffffffffffffffffffffffffffffff\n        /* \"#utility.yul\":11593:11667   */\n      sub\n        /* \"#utility.yul\":11590:11591   */\n      dup3\n        /* \"#utility.yul\":11587:11668   */\n      gt\n        /* \"#utility.yul\":11584:11691   */\n      iszero\n      tag_324\n      jumpi\n        /* \"#utility.yul\":11671:11689   */\n      tag_325\n      tag_326\n      jump\t// in\n    tag_325:\n        /* \"#utility.yul\":11584:11691   */\n    tag_324:\n        /* \"#utility.yul\":11715:11716   */\n      dup3\n        /* \"#utility.yul\":11712:11713   */\n      dup3\n        /* \"#utility.yul\":11708:11717   */\n      add\n        /* \"#utility.yul\":11701:11717   */\n      swap1\n      pop\n        /* \"#utility.yul\":11418:11723   */\n      swap3\n      swap2\n      pop\n      pop\n      jump\t// out\n        /* \"#utility.yul\":11729:12077   */\n    tag_157:\n        /* \"#utility.yul\":11769:11776   */\n      0x00\n        /* \"#utility.yul\":11792:11812   */\n      tag_328\n        /* \"#utility.yul\":11810:11811   */\n      dup3\n        /* \"#utility.yul\":11792:11812   */\n      tag_267\n      jump\t// in\n    tag_328:\n        /* \"#utility.yul\":11787:11812   */\n      swap2\n      pop\n        /* \"#utility.yul\":11826:11846   */\n      tag_329\n        /* \"#utility.yul\":11844:11845   */\n      dup4\n        /* \"#utility.yul\":11826:11846   */\n      tag_267\n      jump\t// in\n    tag_329:\n        /* \"#utility.yul\":11821:11846   */\n      swap3\n      pop\n        /* \"#utility.yul\":12014:12015   */\n      dup2\n        /* \"#utility.yul\":11946:12012   */\n      0xffffffffffffffffffffffffffffffffffffffffffffffffffffffffffffffff\n        /* \"#utility.yul\":11942:12016   */\n      div\n        /* \"#utility.yul\":11939:11940   */\n      dup4\n        /* \"#utility.yul\":11936:12017   */\n      gt\n        /* \"#utility.yul\":11931:11932   */\n      dup3\n        /* \"#utility.yul\":11924:11933   */\n      iszero\n        /* \"#utility.yul\":11917:11934   */\n      iszero\n        /* \"#utility.yul\":11913:12018   */\n      and\n        /* \"#utility.yul\":11910:12041   */\n      iszero\n      tag_330\n      jumpi\n        /* \"#utility.yul\":12021:12039   */\n      tag_331\n      tag_326\n      jump\t// in\n    tag_331:\n        /* \"#utility.yul\":11910:12041   */\n    tag_330:\n        /* \"#utility.yul\":12069:12070   */\n      dup3\n        /* \"#utility.yul\":12066:12067   */\n      dup3\n        /* \"#utility.yul\":12062:12071   */\n      mul\n        /* \"#utility.yul\":12051:12071   */\n      swap1\n      pop\n        /* \"#utility.yul\":11729:12077   */\n      swap3\n      swap2\n      pop\n      pop\n      jump\t// out\n        /* \"#utility.yul\":12083:12274   */\n    tag_74:\n        /* \"#utility.yul\":12123:12127   */\n      0x00\n        /* \"#utility.yul\":12143:12163   */\n      tag_333\n        /* \"#utility.yul\":12161:12162   */\n      dup3\n        /* \"#utility.yul\":12143:12163   */\n      tag_267\n      jump\t// in\n    tag_333:\n        /* \"#utility.yul\":12138:12163   */\n      swap2\n      pop\n        /* \"#utility.yul\":12177:12197   */\n      tag_334\n        /* \"#utility.yul\":12195:12196   */\n      dup4\n        /* \"#utility.yul\":12177:12197   */\n      tag_267\n      jump\t// in\n    tag_334:\n        /* \"#utility.yul\":12172:12197   */\n      swap3\n      pop\n        /* \"#utility.yul\":12216:12217   */\n      dup3\n        /* \"#utility.yul\":12213:12214   */\n      dup3\n        /* \"#utility.yul\":12210:12218   */\n      lt\n        /* \"#utility.yul\":12207:12241   */\n      iszero\n      tag_335\n      jumpi\n        /* \"#utility.yul\":12221:12239   */\n      tag_336\n      tag_326\n      jump\t// in\n    tag_336:\n        /* \"#utility.yul\":12207:12241   */\n    tag_335:\n        /* \"#utility.yul\":12266:12267   */\n      dup3\n        /* \"#utility.yul\":12263:12264   */\n      dup3\n        /* \"#utility.yul\":12259:12268   */\n      sub\n        /* \"#utility.yul\":12251:12268   */\n      swap1\n      pop\n        /* \"#utility.yul\":12083:12274   */\n      swap3\n      swap2\n      pop\n      pop\n      jump\t// out\n        /* \"#utility.yul\":12280:12376   */\n    tag_228:\n        /* \"#utility.yul\":12317:12324   */\n      0x00\n        /* \"#utility.yul\":12346:12370   */\n      tag_338\n        /* \"#utility.yul\":12364:12369   */\n      dup3\n        /* \"#utility.yul\":12346:12370   */\n      tag_339\n      jump\t// in\n    tag_338:\n        /* \"#utility.yul\":12335:12370   */\n      swap1\n      pop\n        /* \"#utility.yul\":12280:12376   */\n      swap2\n      swap1\n      pop\n      jump\t// out\n        /* \"#utility.yul\":12382:12508   */\n    tag_339:\n        /* \"#utility.yul\":12419:12426   */\n      0x00\n        /* \"#utility.yul\":12459:12501   */\n      0xffffffffffffffffffffffffffffffffffffffff\n        /* \"#utility.yul\":12452:12457   */\n      dup3\n        /* \"#utility.yul\":12448:12502   */\n      and\n        /* \"#utility.yul\":12437:12502   */\n      swap1\n      pop\n        /* \"#utility.yul\":12382:12508   */\n      swap2\n      swap1\n      pop\n      jump\t// out\n        /* \"#utility.yul\":12514:12591   */\n    tag_267:\n        /* \"#utility.yul\":12551:12558   */\n      0x00\n        /* \"#utility.yul\":12580:12585   */\n      dup2\n        /* \"#utility.yul\":12569:12585   */\n      swap1\n      pop\n        /* \"#utility.yul\":12514:12591   */\n      swap2\n      swap1\n      pop\n      jump\t// out\n        /* \"#utility.yul\":12597:12690   */\n    tag_276:\n        /* \"#utility.yul\":12633:12640   */\n      0x00\n        /* \"#utility.yul\":12673:12683   */\n      0xffffffff\n        /* \"#utility.yul\":12666:12671   */\n      dup3\n        /* \"#utility.yul\":12662:12684   */\n      and\n        /* \"#utility.yul\":12651:12684   */\n      swap1\n      pop\n        /* \"#utility.yul\":12597:12690   */\n      swap2\n      swap1\n      pop\n      jump\t// out\n        /* \"#utility.yul\":12696:12850   */\n    tag_188:\n        /* \"#utility.yul\":12780:12786   */\n      dup3\n        /* \"#utility.yul\":12775:12778   */\n      dup2\n        /* \"#utility.yul\":12770:12773   */\n      dup4\n        /* \"#utility.yul\":12757:12787   */\n      calldatacopy\n        /* \"#utility.yul\":12842:12843   */\n      0x00\n        /* \"#utility.yul\":12833:12839   */\n      dup4\n        /* \"#utility.yul\":12828:12831   */\n      dup4\n        /* \"#utility.yul\":12824:12840   */\n      add\n        /* \"#utility.yul\":12817:12844   */\n      mstore\n        /* \"#utility.yul\":12696:12850   */\n      pop\n      pop\n      pop\n      jump\t// out\n        /* \"#utility.yul\":12856:13163   */\n    tag_236:\n        /* \"#utility.yul\":12924:12925   */\n      0x00\n        /* \"#utility.yul\":12934:13047   */\n    tag_345:\n        /* \"#utility.yul\":12948:12954   */\n      dup4\n        /* \"#utility.yul\":12945:12946   */\n      dup2\n        /* \"#utility.yul\":12942:12955   */\n      lt\n        /* \"#utility.yul\":12934:13047   */\n      iszero\n      tag_347\n      jumpi\n        /* \"#utility.yul\":13033:13034   */\n      dup1\n        /* \"#utility.yul\":13028:13031   */\n      dup3\n        /* \"#utility.yul\":13024:13035   */\n      add\n        /* \"#utility.yul\":13018:13036   */\n      mload\n        /* \"#utility.yul\":13014:13015   */\n      dup2\n        /* \"#utility.yul\":13009:13012   */\n      dup5\n        /* \"#utility.yul\":13005:13016   */\n      add\n        /* \"#utility.yul\":12998:13037   */\n      mstore\n        /* \"#utility.yul\":12970:12972   */\n      0x20\n        /* \"#utility.yul\":12967:12968   */\n      dup2\n        /* \"#utility.yul\":12963:12973   */\n      add\n        /* \"#utility.yul\":12958:12973   */\n      swap1\n      pop\n        /* \"#utility.yul\":12934:13047   */\n      jump(tag_345)\n    tag_347:\n        /* \"#utility.yul\":13065:13071   */\n      dup4\n        /* \"#utility.yul\":13062:13063   */\n      dup2\n        /* \"#utility.yul\":13059:13072   */\n      gt\n        /* \"#utility.yul\":13056:13157   */\n      iszero\n      tag_348\n      jumpi\n        /* \"#utility.yul\":13145:13146   */\n      0x00\n        /* \"#utility.yul\":13136:13142   */\n      dup5\n        /* \"#utility.yul\":13131:13134   */\n      dup5\n        /* \"#utility.yul\":13127:13143   */\n      add\n        /* \"#utility.yul\":13120:13147   */\n      mstore\n        /* \"#utility.yul\":13056:13157   */\n    tag_348:\n        /* \"#utility.yul\":12905:13163   */\n      pop\n        /* \"#utility.yul\":12856:13163   */\n      pop\n      pop\n      pop\n      jump\t// out\n        /* \"#utility.yul\":13169:13489   */\n    tag_127:\n        /* \"#utility.yul\":13213:13219   */\n      0x00\n        /* \"#utility.yul\":13250:13251   */\n      0x02\n        /* \"#utility.yul\":13244:13248   */\n      dup3\n        /* \"#utility.yul\":13240:13252   */\n      div\n        /* \"#utility.yul\":13230:13252   */\n      swap1\n      pop\n        /* \"#utility.yul\":13297:13298   */\n      0x01\n        /* \"#utility.yul\":13291:13295   */\n      dup3\n        /* \"#utility.yul\":13287:13299   */\n      and\n        /* \"#utility.yul\":13318:13336   */\n      dup1\n        /* \"#utility.yul\":13308:13389   */\n      tag_350\n      jumpi\n        /* \"#utility.yul\":13374:13378   */\n      0x7f\n        /* \"#utility.yul\":13366:13372   */\n      dup3\n        /* \"#utility.yul\":13362:13379   */\n      and\n        /* \"#utility.yul\":13352:13379   */\n      swap2\n      pop\n        /* \"#utility.yul\":13308:13389   */\n    tag_350:\n        /* \"#utility.yul\":13436:13438   */\n      0x20\n        /* \"#utility.yul\":13428:13434   */\n      dup3\n        /* \"#utility.yul\":13425:13439   */\n      lt\n        /* \"#utility.yul\":13405:13423   */\n      dup2\n        /* \"#utility.yul\":13402:13440   */\n      eq\n        /* \"#utility.yul\":13399:13483   */\n      iszero\n      tag_351\n      jumpi\n        /* \"#utility.yul\":13455:13473   */\n      tag_352\n      tag_353\n      jump\t// in\n    tag_352:\n        /* \"#utility.yul\":13399:13483   */\n    tag_351:\n        /* \"#utility.yul\":13220:13489   */\n      pop\n        /* \"#utility.yul\":13169:13489   */\n      swap2\n      swap1\n      pop\n      jump\t// out\n        /* \"#utility.yul\":13495:13776   */\n    tag_312:\n        /* \"#utility.yul\":13578:13605   */\n      tag_355\n        /* \"#utility.yul\":13600:13604   */\n      dup3\n        /* \"#utility.yul\":13578:13605   */\n      tag_238\n      jump\t// in\n    tag_355:\n        /* \"#utility.yul\":13570:13576   */\n      dup2\n        /* \"#utility.yul\":13566:13606   */\n      add\n        /* \"#utility.yul\":13708:13714   */\n      dup2\n        /* \"#utility.yul\":13696:13706   */\n      dup2\n        /* \"#utility.yul\":13693:13715   */\n      lt\n        /* \"#utility.yul\":13672:13690   */\n      0xffffffffffffffff\n        /* \"#utility.yul\":13660:13670   */\n      dup3\n        /* \"#utility.yul\":13657:13691   */\n      gt\n        /* \"#utility.yul\":13654:13716   */\n      or\n        /* \"#utility.yul\":13651:13739   */\n      iszero\n      tag_356\n      jumpi\n        /* \"#utility.yul\":13719:13737   */\n      tag_357\n      tag_317\n      jump\t// in\n    tag_357:\n        /* \"#utility.yul\":13651:13739   */\n    tag_356:\n        /* \"#utility.yul\":13759:13769   */\n      dup1\n        /* \"#utility.yul\":13755:13757   */\n      0x40\n        /* \"#utility.yul\":13748:13770   */\n      mstore\n        /* \"#utility.yul\":13538:13776   */\n      pop\n        /* \"#utility.yul\":13495:13776   */\n      pop\n      pop\n      jump\t// out\n        /* \"#utility.yul\":13782:14015   */\n    tag_71:\n        /* \"#utility.yul\":13821:13824   */\n      0x00\n        /* \"#utility.yul\":13844:13868   */\n      tag_359\n        /* \"#utility.yul\":13862:13867   */\n      dup3\n        /* \"#utility.yul\":13844:13868   */\n      tag_267\n      jump\t// in\n    tag_359:\n        /* \"#utility.yul\":13835:13868   */\n      swap2\n      pop\n        /* \"#utility.yul\":13890:13956   */\n      0xffffffffffffffffffffffffffffffffffffffffffffffffffffffffffffffff\n        /* \"#utility.yul\":13883:13888   */\n      dup3\n        /* \"#utility.yul\":13880:13957   */\n      eq\n        /* \"#utility.yul\":13877:13980   */\n      iszero\n      tag_360\n      jumpi\n        /* \"#utility.yul\":13960:13978   */\n      tag_361\n      tag_326\n      jump\t// in\n    tag_361:\n        /* \"#utility.yul\":13877:13980   */\n    tag_360:\n        /* \"#utility.yul\":14007:14008   */\n      0x01\n        /* \"#utility.yul\":14000:14005   */\n      dup3\n        /* \"#utility.yul\":13996:14009   */\n      add\n        /* \"#utility.yul\":13989:14009   */\n      swap1\n      pop\n        /* \"#utility.yul\":13782:14015   */\n      swap2\n      swap1\n      pop\n      jump\t// out\n        /* \"#utility.yul\":14021:14100   */\n    tag_272:\n        /* \"#utility.yul\":14060:14067   */\n      0x00\n        /* \"#utility.yul\":14089:14094   */\n      dup2\n        /* \"#utility.yul\":14078:14094   */\n      swap1\n      pop\n        /* \"#utility.yul\":14021:14100   */\n      swap2\n      swap1\n      pop\n      jump\t// out\n        /* \"#utility.yul\":14106:14282   */\n    tag_81:\n        /* \"#utility.yul\":14138:14139   */\n      0x00\n        /* \"#utility.yul\":14155:14175   */\n      tag_364\n        /* \"#utility.yul\":14173:14174   */\n      dup3\n        /* \"#utility.yul\":14155:14175   */\n      tag_267\n      jump\t// in\n    tag_364:\n        /* \"#utility.yul\":14150:14175   */\n      swap2\n      pop\n        /* \"#utility.yul\":14189:14209   */\n      tag_365\n        /* \"#utility.yul\":14207:14208   */\n      dup4\n        /* \"#utility.yul\":14189:14209   */\n      tag_267\n      jump\t// in\n    tag_365:\n        /* \"#utility.yul\":14184:14209   */\n      swap3\n      pop\n        /* \"#utility.yul\":14228:14229   */\n      dup3\n        /* \"#utility.yul\":14218:14253   */\n      tag_366\n      jumpi\n        /* \"#utility.yul\":14233:14251   */\n      tag_367\n      tag_368\n      jump\t// in\n    tag_367:\n        /* \"#utility.yul\":14218:14253   */\n    tag_366:\n        /* \"#utility.yul\":14274:14275   */\n      dup3\n        /* \"#utility.yul\":14271:14272   */\n      dup3\n        /* \"#utility.yul\":14267:14276   */\n      mod\n        /* \"#utility.yul\":14262:14276   */\n      swap1\n      pop\n        /* \"#utility.yul\":14106:14282   */\n      swap3\n      swap2\n      pop\n      pop\n      jump\t// out\n        /* \"#utility.yul\":14288:14468   */\n    tag_326:\n        /* \"#utility.yul\":14336:14413   */\n      0x4e487b7100000000000000000000000000000000000000000000000000000000\n        /* \"#utility.yul\":14333:14334   */\n      0x00\n        /* \"#utility.yul\":14326:14414   */\n      mstore\n        /* \"#utility.yul\":14433:14437   */\n      0x11\n        /* \"#utility.yul\":14430:14431   */\n      0x04\n        /* \"#utility.yul\":14423:14438   */\n      mstore\n        /* \"#utility.yul\":14457:14461   */\n      0x24\n        /* \"#utility.yul\":14454:14455   */\n      0x00\n        /* \"#utility.yul\":14447:14462   */\n      revert\n        /* \"#utility.yul\":14474:14654   */\n    tag_368:\n        /* \"#utility.yul\":14522:14599   */\n      0x4e487b7100000000000000000000000000000000000000000000000000000000\n        /* \"#utility.yul\":14519:14520   */\n      0x00\n        /* \"#utility.yul\":14512:14600   */\n      mstore\n        /* \"#utility.yul\":14619:14623   */\n      0x12\n        /* \"#utility.yul\":14616:14617   */\n      0x04\n        /* \"#utility.yul\":14609:14624   */\n      mstore\n        /* \"#utility.yul\":14643:14647   */\n      0x24\n        /* \"#utility.yul\":14640:14641   */\n      0x00\n        /* \"#utility.yul\":14633:14648   */\n      revert\n        /* \"#utility.yul\":14660:14840   */\n    tag_353:\n        /* \"#utility.yul\":14708:14785   */\n      0x4e487b7100000000000000000000000000000000000000000000000000000000\n        /* \"#utility.yul\":14705:14706   */\n      0x00\n        /* \"#utility.yul\":14698:14786   */\n      mstore\n        /* \"#utility.yul\":14805:14809   */\n      0x22\n        /* \"#utility.yul\":14802:14803   */\n      0x04\n        /* \"#utility.yul\":14795:14810   */\n      mstore\n        /* \"#utility.yul\":14829:14833   */\n      0x24\n        /* \"#utility.yul\":14826:14827   */\n      0x00\n        /* \"#utility.yul\":14819:14834   */\n      revert\n        /* \"#utility.yul\":14846:15026   */\n    tag_90:\n        /* \"#utility.yul\":14894:14971   */\n      0x4e487b7100000000000000000000000000000000000000000000000000000000\n        /* \"#utility.yul\":14891:14892   */\n      0x00\n        /* \"#utility.yul\":14884:14972   */\n      mstore\n        /* \"#utility.yul\":14991:14995   */\n      0x32\n        /* \"#utility.yul\":14988:14989   */\n      0x04\n        /* \"#utility.yul\":14981:14996   */\n      mstore\n        /* \"#utility.yul\":15015:15019   */\n      0x24\n        /* \"#utility.yul\":15012:15013   */\n      0x00\n        /* \"#utility.yul\":15005:15020   */\n      revert\n        /* \"#utility.yul\":15032:15212   */\n    tag_317:\n        /* \"#utility.yul\":15080:15157   */\n      0x4e487b7100000000000000000000000000000000000000000000000000000000\n        /* \"#utility.yul\":15077:15078   */\n      0x00\n        /* \"#utility.yul\":15070:15158   */\n      mstore\n        /* \"#utility.yul\":15177:15181   */\n      0x41\n        /* \"#utility.yul\":15174:15175   */\n      0x04\n        /* \"#utility.yul\":15167:15182   */\n      mstore\n        /* \"#utility.yul\":15201:15205   */\n      0x24\n        /* \"#utility.yul\":15198:15199   */\n      0x00\n        /* \"#utility.yul\":15191:15206   */\n      revert\n        /* \"#utility.yul\":15218:15335   */\n    tag_197:\n        /* \"#utility.yul\":15327:15328   */\n      0x00\n        /* \"#utility.yul\":15324:15325   */\n      dup1\n        /* \"#utility.yul\":15317:15329   */\n      revert\n        /* \"#utility.yul\":15341:15458   */\n    tag_186:\n        /* \"#utility.yul\":15450:15451   */\n      0x00\n        /* \"#utility.yul\":15447:15448   */\n      dup1\n        /* \"#utility.yul\":15440:15452   */\n      revert\n        /* \"#utility.yul\":15464:15581   */\n    tag_213:\n        /* \"#utility.yul\":15573:15574   */\n      0x00\n        /* \"#utility.yul\":15570:15571   */\n      dup1\n        /* \"#utility.yul\":15563:15575   */\n      revert\n        /* \"#utility.yul\":15587:15704   */\n    tag_206:\n        /* \"#utility.yul\":15696:15697   */\n      0x00\n        /* \"#utility.yul\":15693:15694   */\n      dup1\n        /* \"#utility.yul\":15686:15698   */\n      revert\n        /* \"#utility.yul\":15710:15812   */\n    tag_238:\n        /* \"#utility.yul\":15751:15757   */\n      0x00\n        /* \"#utility.yul\":15802:15804   */\n      0x1f\n        /* \"#utility.yul\":15798:15805   */\n      not\n        /* \"#utility.yul\":15793:15795   */\n      0x1f\n        /* \"#utility.yul\":15786:15791   */\n      dup4\n        /* \"#utility.yul\":15782:15796   */\n      add\n        /* \"#utility.yul\":15778:15806   */\n      and\n        /* \"#utility.yul\":15768:15806   */\n      swap1\n      pop\n        /* \"#utility.yul\":15710:15812   */\n      swap2\n      swap1\n      pop\n      jump\t// out\n        /* \"#utility.yul\":15818:16045   */\n    tag_243:\n        /* \"#utility.yul\":15958:15992   */\n      0x536f6c6f2073652070756564652074656e657220756e20636f63686520706f72\n        /* \"#utility.yul\":15954:15955   */\n      0x00\n        /* \"#utility.yul\":15946:15952   */\n      dup3\n        /* \"#utility.yul\":15942:15956   */\n      add\n        /* \"#utility.yul\":15935:15993   */\n      mstore\n        /* \"#utility.yul\":16027:16037   */\n      0x20706572736f6e61000000000000000000000000000000000000000000000000\n        /* \"#utility.yul\":16022:16024   */\n      0x20\n        /* \"#utility.yul\":16014:16020   */\n      dup3\n        /* \"#utility.yul\":16010:16025   */\n      add\n        /* \"#utility.yul\":16003:16038   */\n      mstore\n        /* \"#utility.yul\":15818:16045   */\n      pop\n      jump\t// out\n        /* \"#utility.yul\":16051:16276   */\n    tag_248:\n        /* \"#utility.yul\":16191:16225   */\n      0x4f776e61626c653a206e6577206f776e657220697320746865207a65726f2061\n        /* \"#utility.yul\":16187:16188   */\n      0x00\n        /* \"#utility.yul\":16179:16185   */\n      dup3\n        /* \"#utility.yul\":16175:16189   */\n      add\n        /* \"#utility.yul\":16168:16226   */\n      mstore\n        /* \"#utility.yul\":16260:16268   */\n      0x6464726573730000000000000000000000000000000000000000000000000000\n        /* \"#utility.yul\":16255:16257   */\n      0x20\n        /* \"#utility.yul\":16247:16253   */\n      dup3\n        /* \"#utility.yul\":16243:16258   */\n      add\n        /* \"#utility.yul\":16236:16269   */\n      mstore\n        /* \"#utility.yul\":16051:16276   */\n      pop\n      jump\t// out\n        /* \"#utility.yul\":16282:16444   */\n    tag_253:\n        /* \"#utility.yul\":16422:16436   */\n      0x4861732067616e61646f3a200000000000000000000000000000000000000000\n        /* \"#utility.yul\":16418:16419   */\n      0x00\n        /* \"#utility.yul\":16410:16416   */\n      dup3\n        /* \"#utility.yul\":16406:16420   */\n      add\n        /* \"#utility.yul\":16399:16437   */\n      mstore\n        /* \"#utility.yul\":16282:16444   */\n      pop\n      jump\t// out\n        /* \"#utility.yul\":16450:16632   */\n    tag_258:\n        /* \"#utility.yul\":16590:16624   */\n      0x4f776e61626c653a2063616c6c6572206973206e6f7420746865206f776e6572\n        /* \"#utility.yul\":16586:16587   */\n      0x00\n        /* \"#utility.yul\":16578:16584   */\n      dup3\n        /* \"#utility.yul\":16574:16588   */\n      add\n        /* \"#utility.yul\":16567:16625   */\n      mstore\n        /* \"#utility.yul\":16450:16632   */\n      pop\n      jump\t// out\n        /* \"#utility.yul\":16638:16809   */\n    tag_263:\n        /* \"#utility.yul\":16778:16801   */\n      0x456c20636f6368652067616e61646f722065733a200000000000000000000000\n        /* \"#utility.yul\":16774:16775   */\n      0x00\n        /* \"#utility.yul\":16766:16772   */\n      dup3\n        /* \"#utility.yul\":16762:16776   */\n      add\n        /* \"#utility.yul\":16755:16802   */\n      mstore\n        /* \"#utility.yul\":16638:16809   */\n      pop\n      jump\t// out\n        /* \"#utility.yul\":16815:16937   */\n    tag_192:\n        /* \"#utility.yul\":16888:16912   */\n      tag_385\n        /* \"#utility.yul\":16906:16911   */\n      dup2\n        /* \"#utility.yul\":16888:16912   */\n      tag_228\n      jump\t// in\n    tag_385:\n        /* \"#utility.yul\":16881:16886   */\n      dup2\n        /* \"#utility.yul\":16878:16913   */\n      eq\n        /* \"#utility.yul\":16868:16931   */\n      tag_386\n      jumpi\n        /* \"#utility.yul\":16927:16928   */\n      0x00\n        /* \"#utility.yul\":16924:16925   */\n      dup1\n        /* \"#utility.yul\":16917:16929   */\n      revert\n        /* \"#utility.yul\":16868:16931   */\n    tag_386:\n        /* \"#utility.yul\":16815:16937   */\n      pop\n      jump\t// out\n        /* \"#utility.yul\":16943:17065   */\n    tag_202:\n        /* \"#utility.yul\":17016:17040   */\n      tag_388\n        /* \"#utility.yul\":17034:17039   */\n      dup2\n        /* \"#utility.yul\":17016:17040   */\n      tag_267\n      jump\t// in\n    tag_388:\n        /* \"#utility.yul\":17009:17014   */\n      dup2\n        /* \"#utility.yul\":17006:17041   */\n      eq\n        /* \"#utility.yul\":16996:17059   */\n      tag_389\n      jumpi\n        /* \"#utility.yul\":17055:17056   */\n      0x00\n        /* \"#utility.yul\":17052:17053   */\n      dup1\n        /* \"#utility.yul\":17045:17057   */\n      revert\n        /* \"#utility.yul\":16996:17059   */\n    tag_389:\n        /* \"#utility.yul\":16943:17065   */\n      pop\n      jump\t// out\n\n    auxdata: 0xa26469706673582212206a8aa8d6991411b0593f2b0bb17d501302a38212c53cbb29fa660e4063086ed764736f6c63430008070033\n}\n",
				"bytecode": {
					"linkReferences": {},
					"object": "608060405260006001556000600255603c60035534801561001f57600080fd5b5061003c61003161004160201b60201c565b61004960201b60201c565b61010d565b600033905090565b60008060009054906101000a900473ffffffffffffffffffffffffffffffffffffffff169050816000806101000a81548173ffffffffffffffffffffffffffffffffffffffff021916908373ffffffffffffffffffffffffffffffffffffffff1602179055508173ffffffffffffffffffffffffffffffffffffffff168173ffffffffffffffffffffffffffffffffffffffff167f8be0079c531659141344cd1fd0a4f28419497f9722a3daafe3b4186f6b6457e060405160405180910390a35050565b6117798061011c6000396000f3fe6080604052600436106100865760003560e01c8063858b055411610059578063858b05541461014c5780638da5cb5b14610189578063d735573d146101b4578063f1413763146101f8578063f2fde38b1461022357610086565b80631c6743e41461008b5780632458c544146100c85780636b6f049414610105578063715018a614610135575b600080fd5b34801561009757600080fd5b506100b260048036038101906100ad9190610e10565b61024c565b6040516100bf9190611206565b60405180910390f35b3480156100d457600080fd5b506100ef60048036038101906100ea9190610e3d565b610264565b6040516100fc9190611206565b60405180910390f35b61011f600480360381019061011a9190610ee4565b6104e9565b60405161012c9190611128565b60405180910390f35b34801561014157600080fd5b5061014a610725565b005b34801561015857600080fd5b50610173600480360381019061016e9190610ee4565b6107ad565b604051610180919061107a565b60405180910390f35b34801561019557600080fd5b5061019e6107e0565b6040516101ab919061107a565b60405180910390f35b3480156101c057600080fd5b506101db60048036038101906101d69190610ee4565b610809565b6040516101ef989796959493929190611095565b60405180910390f35b34801561020457600080fd5b5061020d610a29565b60405161021a9190611206565b60405180910390f35b34801561022f57600080fd5b5061024a60048036038101906102459190610e10565b610a77565b005b60066020528060005260406000206000915090505481565b60006001600660003373ffffffffffffffffffffffffffffffffffffffff1673ffffffffffffffffffffffffffffffffffffffff16815260200190815260200160002054106102e8576040517f08c379a00000000000000000000000000000000000000000000000000000000081526004016102df9061114a565b60405180910390fd5b60046040518061010001604052803373ffffffffffffffffffffffffffffffffffffffff1681526020018681526020018581526020018481526020016000815260200160008152602001600354426103409190611293565b63ffffffff168152602001600063ffffffff16815250908060018154018082558091505060019003906000526020600020906008020160009091909190915060008201518160000160006101000a81548173ffffffffffffffffffffffffffffffffffffffff021916908373ffffffffffffffffffffffffffffffffffffffff16021790555060208201518160010190805190602001906103e2929190610cd3565b5060408201518160020190805190602001906103ff929190610cd3565b50606082015181600301908051906020019061041c929190610cd3565b506080820151816004015560a0820151816005015560c0820151816006015560e08201518160070160006101000a81548163ffffffff021916908363ffffffff1602179055505050600660003373ffffffffffffffffffffffffffffffffffffffff1673ffffffffffffffffffffffffffffffffffffffff16815260200190815260200160002060008154809291906104b490611468565b9190505550600260008154809291906104cc90611468565b919050555060016002546104e09190611343565b90509392505050565b60608134146104f757600080fd5b6001600081548092919061050a90611468565b91905055506000600480549050426004805490506001546040516020016105339392919061103d565b6040516020818303038152906040528051906020012060001c61055691906114bb565b90506001600081548092919061056b90611468565b919050555060006002905060008142836001546040516020016105909392919061103d565b6040516020818303038152906040528051906020012060001c6105b391906114bb565b905060005b60048054905081101561071b57600481815481106105d9576105d8611579565b5b906000526020600020906008020160000160009054906101000a900473ffffffffffffffffffffffffffffffffffffffff1673ffffffffffffffffffffffffffffffffffffffff163373ffffffffffffffffffffffffffffffffffffffff1614156107085760008214156106905761064f610b6f565b6040518060400160405280600a81526020017f4861732067616e61646f00000000000000000000000000000000000000000000815250945050505050610720565b7fa28482eec3136a2461c6c30c08f71ba279c6c51a2d9c7bea4e50d6d2632f3896846040516106bf91906111d8565b60405180910390a16040518060400160405280600b81526020017f486173207065726469646f000000000000000000000000000000000000000000815250945050505050610720565b808061071390611468565b9150506105b8565b505050505b919050565b61072d610c07565b73ffffffffffffffffffffffffffffffffffffffff1661074b6107e0565b73ffffffffffffffffffffffffffffffffffffffff16146107a1576040517f08c379a0000000000000000000000000000000000000000000000000000000008152600401610798906111b8565b60405180910390fd5b6107ab6000610c0f565b565b60056020528060005260406000206000915054906101000a900473ffffffffffffffffffffffffffffffffffffffff1681565b60008060009054906101000a900473ffffffffffffffffffffffffffffffffffffffff16905090565b6004818154811061081957600080fd5b90600052602060002090600802016000915090508060000160009054906101000a900473ffffffffffffffffffffffffffffffffffffffff169080600101805461086290611405565b80601f016020809104026020016040519081016040528092919081815260200182805461088e90611405565b80156108db5780601f106108b0576101008083540402835291602001916108db565b820191906000526020600020905b8154815290600101906020018083116108be57829003601f168201915b5050505050908060020180546108f090611405565b80601f016020809104026020016040519081016040528092919081815260200182805461091c90611405565b80156109695780601f1061093e57610100808354040283529160200191610969565b820191906000526020600020905b81548152906001019060200180831161094c57829003601f168201915b50505050509080600301805461097e90611405565b80601f01602080910402602001604051908101604052809291908181526020018280546109aa90611405565b80156109f75780601f106109cc576101008083540402835291602001916109f7565b820191906000526020600020905b8154815290600101906020018083116109da57829003601f168201915b5050505050908060040154908060050154908060060154908060070160009054906101000a900463ffffffff16905088565b600080600290506000814283600154604051602001610a4a9392919061103d565b6040516020818303038152906040528051906020012060001c610a6d91906114bb565b9050809250505090565b610a7f610c07565b73ffffffffffffffffffffffffffffffffffffffff16610a9d6107e0565b73ffffffffffffffffffffffffffffffffffffffff1614610af3576040517f08c379a0000000000000000000000000000000000000000000000000000000008152600401610aea906111b8565b60405180910390fd5b600073ffffffffffffffffffffffffffffffffffffffff168173ffffffffffffffffffffffffffffffffffffffff161415610b63576040517f08c379a0000000000000000000000000000000000000000000000000000000008152600401610b5a9061116a565b60405180910390fd5b610b6c81610c0f565b50565b3373ffffffffffffffffffffffffffffffffffffffff166108fc600247610b9691906112e9565b9081150290604051600060405180830381858888f19350505050158015610bc1573d6000803e3d6000fd5b507fa28482eec3136a2461c6c30c08f71ba279c6c51a2d9c7bea4e50d6d2632f3896600247610bf091906112e9565b604051610bfd919061118a565b60405180910390a1565b600033905090565b60008060009054906101000a900473ffffffffffffffffffffffffffffffffffffffff169050816000806101000a81548173ffffffffffffffffffffffffffffffffffffffff021916908373ffffffffffffffffffffffffffffffffffffffff1602179055508173ffffffffffffffffffffffffffffffffffffffff168173ffffffffffffffffffffffffffffffffffffffff167f8be0079c531659141344cd1fd0a4f28419497f9722a3daafe3b4186f6b6457e060405160405180910390a35050565b828054610cdf90611405565b90600052602060002090601f016020900481019282610d015760008555610d48565b82601f10610d1a57805160ff1916838001178555610d48565b82800160010185558215610d48579182015b82811115610d47578251825591602001919060010190610d2c565b5b509050610d559190610d59565b5090565b5b80821115610d72576000816000905550600101610d5a565b5090565b6000610d89610d8484611246565b611221565b905082815260208101848484011115610da557610da46115dc565b5b610db08482856113c3565b509392505050565b600081359050610dc781611715565b92915050565b600082601f830112610de257610de16115d7565b5b8135610df2848260208601610d76565b91505092915050565b600081359050610e0a8161172c565b92915050565b600060208284031215610e2657610e256115e6565b5b6000610e3484828501610db8565b91505092915050565b600080600060608486031215610e5657610e556115e6565b5b600084013567ffffffffffffffff811115610e7457610e736115e1565b5b610e8086828701610dcd565b935050602084013567ffffffffffffffff811115610ea157610ea06115e1565b5b610ead86828701610dcd565b925050604084013567ffffffffffffffff811115610ece57610ecd6115e1565b5b610eda86828701610dcd565b9150509250925092565b600060208284031215610efa57610ef96115e6565b5b6000610f0884828501610dfb565b91505092915050565b610f1a81611377565b82525050565b6000610f2b82611277565b610f358185611282565b9350610f458185602086016113d2565b610f4e816115eb565b840191505092915050565b6000610f66602883611282565b9150610f71826115fc565b604082019050919050565b6000610f89602683611282565b9150610f948261164b565b604082019050919050565b6000610fac600c83611282565b9150610fb78261169a565b602082019050919050565b6000610fcf602083611282565b9150610fda826116c3565b602082019050919050565b6000610ff2601583611282565b9150610ffd826116ec565b602082019050919050565b611011816113a9565b82525050565b611028611023826113a9565b6114b1565b82525050565b611037816113b3565b82525050565b60006110498286611017565b6020820191506110598285611017565b6020820191506110698284611017565b602082019150819050949350505050565b600060208201905061108f6000830184610f11565b92915050565b6000610100820190506110ab600083018b610f11565b81810360208301526110bd818a610f20565b905081810360408301526110d18189610f20565b905081810360608301526110e58188610f20565b90506110f46080830187611008565b61110160a0830186611008565b61110e60c0830185611008565b61111b60e083018461102e565b9998505050505050505050565b600060208201905081810360008301526111428184610f20565b905092915050565b6000602082019050818103600083015261116381610f59565b9050919050565b6000602082019050818103600083015261118381610f7c565b9050919050565b600060408201905081810360008301526111a381610f9f565b90506111b26020830184611008565b92915050565b600060208201905081810360008301526111d181610fc2565b9050919050565b600060408201905081810360008301526111f181610fe5565b90506112006020830184611008565b92915050565b600060208201905061121b6000830184611008565b92915050565b600061122b61123c565b90506112378282611437565b919050565b6000604051905090565b600067ffffffffffffffff821115611261576112606115a8565b5b61126a826115eb565b9050602081019050919050565b600081519050919050565b600082825260208201905092915050565b600061129e826113a9565b91506112a9836113a9565b9250827fffffffffffffffffffffffffffffffffffffffffffffffffffffffffffffffff038211156112de576112dd6114ec565b5b828201905092915050565b60006112f4826113a9565b91506112ff836113a9565b9250817fffffffffffffffffffffffffffffffffffffffffffffffffffffffffffffffff0483118215151615611338576113376114ec565b5b828202905092915050565b600061134e826113a9565b9150611359836113a9565b92508282101561136c5761136b6114ec565b5b828203905092915050565b600061138282611389565b9050919050565b600073ffffffffffffffffffffffffffffffffffffffff82169050919050565b6000819050919050565b600063ffffffff82169050919050565b82818337600083830152505050565b60005b838110156113f05780820151818401526020810190506113d5565b838111156113ff576000848401525b50505050565b6000600282049050600182168061141d57607f821691505b602082108114156114315761143061154a565b5b50919050565b611440826115eb565b810181811067ffffffffffffffff8211171561145f5761145e6115a8565b5b80604052505050565b6000611473826113a9565b91507fffffffffffffffffffffffffffffffffffffffffffffffffffffffffffffffff8214156114a6576114a56114ec565b5b600182019050919050565b6000819050919050565b60006114c6826113a9565b91506114d1836113a9565b9250826114e1576114e061151b565b5b828206905092915050565b7f4e487b7100000000000000000000000000000000000000000000000000000000600052601160045260246000fd5b7f4e487b7100000000000000000000000000000000000000000000000000000000600052601260045260246000fd5b7f4e487b7100000000000000000000000000000000000000000000000000000000600052602260045260246000fd5b7f4e487b7100000000000000000000000000000000000000000000000000000000600052603260045260246000fd5b7f4e487b7100000000000000000000000000000000000000000000000000000000600052604160045260246000fd5b600080fd5b600080fd5b600080fd5b600080fd5b6000601f19601f8301169050919050565b7f536f6c6f2073652070756564652074656e657220756e20636f63686520706f7260008201527f20706572736f6e61000000000000000000000000000000000000000000000000602082015250565b7f4f776e61626c653a206e6577206f776e657220697320746865207a65726f206160008201527f6464726573730000000000000000000000000000000000000000000000000000602082015250565b7f4861732067616e61646f3a200000000000000000000000000000000000000000600082015250565b7f4f776e61626c653a2063616c6c6572206973206e6f7420746865206f776e6572600082015250565b7f456c20636f6368652067616e61646f722065733a200000000000000000000000600082015250565b61171e81611377565b811461172957600080fd5b50565b611735816113a9565b811461174057600080fd5b5056fea26469706673582212206a8aa8d6991411b0593f2b0bb17d501302a38212c53cbb29fa660e4063086ed764736f6c63430008070033",
					"opcodes": "PUSH1 0x80 PUSH1 0x40 MSTORE PUSH1 0x0 PUSH1 0x1 SSTORE PUSH1 0x0 PUSH1 0x2 SSTORE PUSH1 0x3C PUSH1 0x3 SSTORE CALLVALUE DUP1 ISZERO PUSH2 0x1F JUMPI PUSH1 0x0 DUP1 REVERT JUMPDEST POP PUSH2 0x3C PUSH2 0x31 PUSH2 0x41 PUSH1 0x20 SHL PUSH1 0x20 SHR JUMP JUMPDEST PUSH2 0x49 PUSH1 0x20 SHL PUSH1 0x20 SHR JUMP JUMPDEST PUSH2 0x10D JUMP JUMPDEST PUSH1 0x0 CALLER SWAP1 POP SWAP1 JUMP JUMPDEST PUSH1 0x0 DUP1 PUSH1 0x0 SWAP1 SLOAD SWAP1 PUSH2 0x100 EXP SWAP1 DIV PUSH20 0xFFFFFFFFFFFFFFFFFFFFFFFFFFFFFFFFFFFFFFFF AND SWAP1 POP DUP2 PUSH1 0x0 DUP1 PUSH2 0x100 EXP DUP2 SLOAD DUP2 PUSH20 0xFFFFFFFFFFFFFFFFFFFFFFFFFFFFFFFFFFFFFFFF MUL NOT AND SWAP1 DUP4 PUSH20 0xFFFFFFFFFFFFFFFFFFFFFFFFFFFFFFFFFFFFFFFF AND MUL OR SWAP1 SSTORE POP DUP2 PUSH20 0xFFFFFFFFFFFFFFFFFFFFFFFFFFFFFFFFFFFFFFFF AND DUP2 PUSH20 0xFFFFFFFFFFFFFFFFFFFFFFFFFFFFFFFFFFFFFFFF AND PUSH32 0x8BE0079C531659141344CD1FD0A4F28419497F9722A3DAAFE3B4186F6B6457E0 PUSH1 0x40 MLOAD PUSH1 0x40 MLOAD DUP1 SWAP2 SUB SWAP1 LOG3 POP POP JUMP JUMPDEST PUSH2 0x1779 DUP1 PUSH2 0x11C PUSH1 0x0 CODECOPY PUSH1 0x0 RETURN INVALID PUSH1 0x80 PUSH1 0x40 MSTORE PUSH1 0x4 CALLDATASIZE LT PUSH2 0x86 JUMPI PUSH1 0x0 CALLDATALOAD PUSH1 0xE0 SHR DUP1 PUSH4 0x858B0554 GT PUSH2 0x59 JUMPI DUP1 PUSH4 0x858B0554 EQ PUSH2 0x14C JUMPI DUP1 PUSH4 0x8DA5CB5B EQ PUSH2 0x189 JUMPI DUP1 PUSH4 0xD735573D EQ PUSH2 0x1B4 JUMPI DUP1 PUSH4 0xF1413763 EQ PUSH2 0x1F8 JUMPI DUP1 PUSH4 0xF2FDE38B EQ PUSH2 0x223 JUMPI PUSH2 0x86 JUMP JUMPDEST DUP1 PUSH4 0x1C6743E4 EQ PUSH2 0x8B JUMPI DUP1 PUSH4 0x2458C544 EQ PUSH2 0xC8 JUMPI DUP1 PUSH4 0x6B6F0494 EQ PUSH2 0x105 JUMPI DUP1 PUSH4 0x715018A6 EQ PUSH2 0x135 JUMPI JUMPDEST PUSH1 0x0 DUP1 REVERT JUMPDEST CALLVALUE DUP1 ISZERO PUSH2 0x97 JUMPI PUSH1 0x0 DUP1 REVERT JUMPDEST POP PUSH2 0xB2 PUSH1 0x4 DUP1 CALLDATASIZE SUB DUP2 ADD SWAP1 PUSH2 0xAD SWAP2 SWAP1 PUSH2 0xE10 JUMP JUMPDEST PUSH2 0x24C JUMP JUMPDEST PUSH1 0x40 MLOAD PUSH2 0xBF SWAP2 SWAP1 PUSH2 0x1206 JUMP JUMPDEST PUSH1 0x40 MLOAD DUP1 SWAP2 SUB SWAP1 RETURN JUMPDEST CALLVALUE DUP1 ISZERO PUSH2 0xD4 JUMPI PUSH1 0x0 DUP1 REVERT JUMPDEST POP PUSH2 0xEF PUSH1 0x4 DUP1 CALLDATASIZE SUB DUP2 ADD SWAP1 PUSH2 0xEA SWAP2 SWAP1 PUSH2 0xE3D JUMP JUMPDEST PUSH2 0x264 JUMP JUMPDEST PUSH1 0x40 MLOAD PUSH2 0xFC SWAP2 SWAP1 PUSH2 0x1206 JUMP JUMPDEST PUSH1 0x40 MLOAD DUP1 SWAP2 SUB SWAP1 RETURN JUMPDEST PUSH2 0x11F PUSH1 0x4 DUP1 CALLDATASIZE SUB DUP2 ADD SWAP1 PUSH2 0x11A SWAP2 SWAP1 PUSH2 0xEE4 JUMP JUMPDEST PUSH2 0x4E9 JUMP JUMPDEST PUSH1 0x40 MLOAD PUSH2 0x12C SWAP2 SWAP1 PUSH2 0x1128 JUMP JUMPDEST PUSH1 0x40 MLOAD DUP1 SWAP2 SUB SWAP1 RETURN JUMPDEST CALLVALUE DUP1 ISZERO PUSH2 0x141 JUMPI PUSH1 0x0 DUP1 REVERT JUMPDEST POP PUSH2 0x14A PUSH2 0x725 JUMP JUMPDEST STOP JUMPDEST CALLVALUE DUP1 ISZERO PUSH2 0x158 JUMPI PUSH1 0x0 DUP1 REVERT JUMPDEST POP PUSH2 0x173 PUSH1 0x4 DUP1 CALLDATASIZE SUB DUP2 ADD SWAP1 PUSH2 0x16E SWAP2 SWAP1 PUSH2 0xEE4 JUMP JUMPDEST PUSH2 0x7AD JUMP JUMPDEST PUSH1 0x40 MLOAD PUSH2 0x180 SWAP2 SWAP1 PUSH2 0x107A JUMP JUMPDEST PUSH1 0x40 MLOAD DUP1 SWAP2 SUB SWAP1 RETURN JUMPDEST CALLVALUE DUP1 ISZERO PUSH2 0x195 JUMPI PUSH1 0x0 DUP1 REVERT JUMPDEST POP PUSH2 0x19E PUSH2 0x7E0 JUMP JUMPDEST PUSH1 0x40 MLOAD PUSH2 0x1AB SWAP2 SWAP1 PUSH2 0x107A JUMP JUMPDEST PUSH1 0x40 MLOAD DUP1 SWAP2 SUB SWAP1 RETURN JUMPDEST CALLVALUE DUP1 ISZERO PUSH2 0x1C0 JUMPI PUSH1 0x0 DUP1 REVERT JUMPDEST POP PUSH2 0x1DB PUSH1 0x4 DUP1 CALLDATASIZE SUB DUP2 ADD SWAP1 PUSH2 0x1D6 SWAP2 SWAP1 PUSH2 0xEE4 JUMP JUMPDEST PUSH2 0x809 JUMP JUMPDEST PUSH1 0x40 MLOAD PUSH2 0x1EF SWAP9 SWAP8 SWAP7 SWAP6 SWAP5 SWAP4 SWAP3 SWAP2 SWAP1 PUSH2 0x1095 JUMP JUMPDEST PUSH1 0x40 MLOAD DUP1 SWAP2 SUB SWAP1 RETURN JUMPDEST CALLVALUE DUP1 ISZERO PUSH2 0x204 JUMPI PUSH1 0x0 DUP1 REVERT JUMPDEST POP PUSH2 0x20D PUSH2 0xA29 JUMP JUMPDEST PUSH1 0x40 MLOAD PUSH2 0x21A SWAP2 SWAP1 PUSH2 0x1206 JUMP JUMPDEST PUSH1 0x40 MLOAD DUP1 SWAP2 SUB SWAP1 RETURN JUMPDEST CALLVALUE DUP1 ISZERO PUSH2 0x22F JUMPI PUSH1 0x0 DUP1 REVERT JUMPDEST POP PUSH2 0x24A PUSH1 0x4 DUP1 CALLDATASIZE SUB DUP2 ADD SWAP1 PUSH2 0x245 SWAP2 SWAP1 PUSH2 0xE10 JUMP JUMPDEST PUSH2 0xA77 JUMP JUMPDEST STOP JUMPDEST PUSH1 0x6 PUSH1 0x20 MSTORE DUP1 PUSH1 0x0 MSTORE PUSH1 0x40 PUSH1 0x0 KECCAK256 PUSH1 0x0 SWAP2 POP SWAP1 POP SLOAD DUP2 JUMP JUMPDEST PUSH1 0x0 PUSH1 0x1 PUSH1 0x6 PUSH1 0x0 CALLER PUSH20 0xFFFFFFFFFFFFFFFFFFFFFFFFFFFFFFFFFFFFFFFF AND PUSH20 0xFFFFFFFFFFFFFFFFFFFFFFFFFFFFFFFFFFFFFFFF AND DUP2 MSTORE PUSH1 0x20 ADD SWAP1 DUP2 MSTORE PUSH1 0x20 ADD PUSH1 0x0 KECCAK256 SLOAD LT PUSH2 0x2E8 JUMPI PUSH1 0x40 MLOAD PUSH32 0x8C379A000000000000000000000000000000000000000000000000000000000 DUP2 MSTORE PUSH1 0x4 ADD PUSH2 0x2DF SWAP1 PUSH2 0x114A JUMP JUMPDEST PUSH1 0x40 MLOAD DUP1 SWAP2 SUB SWAP1 REVERT JUMPDEST PUSH1 0x4 PUSH1 0x40 MLOAD DUP1 PUSH2 0x100 ADD PUSH1 0x40 MSTORE DUP1 CALLER PUSH20 0xFFFFFFFFFFFFFFFFFFFFFFFFFFFFFFFFFFFFFFFF AND DUP2 MSTORE PUSH1 0x20 ADD DUP7 DUP2 MSTORE PUSH1 0x20 ADD DUP6 DUP2 MSTORE PUSH1 0x20 ADD DUP5 DUP2 MSTORE PUSH1 0x20 ADD PUSH1 0x0 DUP2 MSTORE PUSH1 0x20 ADD PUSH1 0x0 DUP2 MSTORE PUSH1 0x20 ADD PUSH1 0x3 SLOAD TIMESTAMP PUSH2 0x340 SWAP2 SWAP1 PUSH2 0x1293 JUMP JUMPDEST PUSH4 0xFFFFFFFF AND DUP2 MSTORE PUSH1 0x20 ADD PUSH1 0x0 PUSH4 0xFFFFFFFF AND DUP2 MSTORE POP SWAP1 DUP1 PUSH1 0x1 DUP2 SLOAD ADD DUP1 DUP3 SSTORE DUP1 SWAP2 POP POP PUSH1 0x1 SWAP1 SUB SWAP1 PUSH1 0x0 MSTORE PUSH1 0x20 PUSH1 0x0 KECCAK256 SWAP1 PUSH1 0x8 MUL ADD PUSH1 0x0 SWAP1 SWAP2 SWAP1 SWAP2 SWAP1 SWAP2 POP PUSH1 0x0 DUP3 ADD MLOAD DUP2 PUSH1 0x0 ADD PUSH1 0x0 PUSH2 0x100 EXP DUP2 SLOAD DUP2 PUSH20 0xFFFFFFFFFFFFFFFFFFFFFFFFFFFFFFFFFFFFFFFF MUL NOT AND SWAP1 DUP4 PUSH20 0xFFFFFFFFFFFFFFFFFFFFFFFFFFFFFFFFFFFFFFFF AND MUL OR SWAP1 SSTORE POP PUSH1 0x20 DUP3 ADD MLOAD DUP2 PUSH1 0x1 ADD SWAP1 DUP1 MLOAD SWAP1 PUSH1 0x20 ADD SWAP1 PUSH2 0x3E2 SWAP3 SWAP2 SWAP1 PUSH2 0xCD3 JUMP JUMPDEST POP PUSH1 0x40 DUP3 ADD MLOAD DUP2 PUSH1 0x2 ADD SWAP1 DUP1 MLOAD SWAP1 PUSH1 0x20 ADD SWAP1 PUSH2 0x3FF SWAP3 SWAP2 SWAP1 PUSH2 0xCD3 JUMP JUMPDEST POP PUSH1 0x60 DUP3 ADD MLOAD DUP2 PUSH1 0x3 ADD SWAP1 DUP1 MLOAD SWAP1 PUSH1 0x20 ADD SWAP1 PUSH2 0x41C SWAP3 SWAP2 SWAP1 PUSH2 0xCD3 JUMP JUMPDEST POP PUSH1 0x80 DUP3 ADD MLOAD DUP2 PUSH1 0x4 ADD SSTORE PUSH1 0xA0 DUP3 ADD MLOAD DUP2 PUSH1 0x5 ADD SSTORE PUSH1 0xC0 DUP3 ADD MLOAD DUP2 PUSH1 0x6 ADD SSTORE PUSH1 0xE0 DUP3 ADD MLOAD DUP2 PUSH1 0x7 ADD PUSH1 0x0 PUSH2 0x100 EXP DUP2 SLOAD DUP2 PUSH4 0xFFFFFFFF MUL NOT AND SWAP1 DUP4 PUSH4 0xFFFFFFFF AND MUL OR SWAP1 SSTORE POP POP POP PUSH1 0x6 PUSH1 0x0 CALLER PUSH20 0xFFFFFFFFFFFFFFFFFFFFFFFFFFFFFFFFFFFFFFFF AND PUSH20 0xFFFFFFFFFFFFFFFFFFFFFFFFFFFFFFFFFFFFFFFF AND DUP2 MSTORE PUSH1 0x20 ADD SWAP1 DUP2 MSTORE PUSH1 0x20 ADD PUSH1 0x0 KECCAK256 PUSH1 0x0 DUP2 SLOAD DUP1 SWAP3 SWAP2 SWAP1 PUSH2 0x4B4 SWAP1 PUSH2 0x1468 JUMP JUMPDEST SWAP2 SWAP1 POP SSTORE POP PUSH1 0x2 PUSH1 0x0 DUP2 SLOAD DUP1 SWAP3 SWAP2 SWAP1 PUSH2 0x4CC SWAP1 PUSH2 0x1468 JUMP JUMPDEST SWAP2 SWAP1 POP SSTORE POP PUSH1 0x1 PUSH1 0x2 SLOAD PUSH2 0x4E0 SWAP2 SWAP1 PUSH2 0x1343 JUMP JUMPDEST SWAP1 POP SWAP4 SWAP3 POP POP POP JUMP JUMPDEST PUSH1 0x60 DUP2 CALLVALUE EQ PUSH2 0x4F7 JUMPI PUSH1 0x0 DUP1 REVERT JUMPDEST PUSH1 0x1 PUSH1 0x0 DUP2 SLOAD DUP1 SWAP3 SWAP2 SWAP1 PUSH2 0x50A SWAP1 PUSH2 0x1468 JUMP JUMPDEST SWAP2 SWAP1 POP SSTORE POP PUSH1 0x0 PUSH1 0x4 DUP1 SLOAD SWAP1 POP TIMESTAMP PUSH1 0x4 DUP1 SLOAD SWAP1 POP PUSH1 0x1 SLOAD PUSH1 0x40 MLOAD PUSH1 0x20 ADD PUSH2 0x533 SWAP4 SWAP3 SWAP2 SWAP1 PUSH2 0x103D JUMP JUMPDEST PUSH1 0x40 MLOAD PUSH1 0x20 DUP2 DUP4 SUB SUB DUP2 MSTORE SWAP1 PUSH1 0x40 MSTORE DUP1 MLOAD SWAP1 PUSH1 0x20 ADD KECCAK256 PUSH1 0x0 SHR PUSH2 0x556 SWAP2 SWAP1 PUSH2 0x14BB JUMP JUMPDEST SWAP1 POP PUSH1 0x1 PUSH1 0x0 DUP2 SLOAD DUP1 SWAP3 SWAP2 SWAP1 PUSH2 0x56B SWAP1 PUSH2 0x1468 JUMP JUMPDEST SWAP2 SWAP1 POP SSTORE POP PUSH1 0x0 PUSH1 0x2 SWAP1 POP PUSH1 0x0 DUP2 TIMESTAMP DUP4 PUSH1 0x1 SLOAD PUSH1 0x40 MLOAD PUSH1 0x20 ADD PUSH2 0x590 SWAP4 SWAP3 SWAP2 SWAP1 PUSH2 0x103D JUMP JUMPDEST PUSH1 0x40 MLOAD PUSH1 0x20 DUP2 DUP4 SUB SUB DUP2 MSTORE SWAP1 PUSH1 0x40 MSTORE DUP1 MLOAD SWAP1 PUSH1 0x20 ADD KECCAK256 PUSH1 0x0 SHR PUSH2 0x5B3 SWAP2 SWAP1 PUSH2 0x14BB JUMP JUMPDEST SWAP1 POP PUSH1 0x0 JUMPDEST PUSH1 0x4 DUP1 SLOAD SWAP1 POP DUP2 LT ISZERO PUSH2 0x71B JUMPI PUSH1 0x4 DUP2 DUP2 SLOAD DUP2 LT PUSH2 0x5D9 JUMPI PUSH2 0x5D8 PUSH2 0x1579 JUMP JUMPDEST JUMPDEST SWAP1 PUSH1 0x0 MSTORE PUSH1 0x20 PUSH1 0x0 KECCAK256 SWAP1 PUSH1 0x8 MUL ADD PUSH1 0x0 ADD PUSH1 0x0 SWAP1 SLOAD SWAP1 PUSH2 0x100 EXP SWAP1 DIV PUSH20 0xFFFFFFFFFFFFFFFFFFFFFFFFFFFFFFFFFFFFFFFF AND PUSH20 0xFFFFFFFFFFFFFFFFFFFFFFFFFFFFFFFFFFFFFFFF AND CALLER PUSH20 0xFFFFFFFFFFFFFFFFFFFFFFFFFFFFFFFFFFFFFFFF AND EQ ISZERO PUSH2 0x708 JUMPI PUSH1 0x0 DUP3 EQ ISZERO PUSH2 0x690 JUMPI PUSH2 0x64F PUSH2 0xB6F JUMP JUMPDEST PUSH1 0x40 MLOAD DUP1 PUSH1 0x40 ADD PUSH1 0x40 MSTORE DUP1 PUSH1 0xA DUP2 MSTORE PUSH1 0x20 ADD PUSH32 0x4861732067616E61646F00000000000000000000000000000000000000000000 DUP2 MSTORE POP SWAP5 POP POP POP POP POP PUSH2 0x720 JUMP JUMPDEST PUSH32 0xA28482EEC3136A2461C6C30C08F71BA279C6C51A2D9C7BEA4E50D6D2632F3896 DUP5 PUSH1 0x40 MLOAD PUSH2 0x6BF SWAP2 SWAP1 PUSH2 0x11D8 JUMP JUMPDEST PUSH1 0x40 MLOAD DUP1 SWAP2 SUB SWAP1 LOG1 PUSH1 0x40 MLOAD DUP1 PUSH1 0x40 ADD PUSH1 0x40 MSTORE DUP1 PUSH1 0xB DUP2 MSTORE PUSH1 0x20 ADD PUSH32 0x486173207065726469646F000000000000000000000000000000000000000000 DUP2 MSTORE POP SWAP5 POP POP POP POP POP PUSH2 0x720 JUMP JUMPDEST DUP1 DUP1 PUSH2 0x713 SWAP1 PUSH2 0x1468 JUMP JUMPDEST SWAP2 POP POP PUSH2 0x5B8 JUMP JUMPDEST POP POP POP POP JUMPDEST SWAP2 SWAP1 POP JUMP JUMPDEST PUSH2 0x72D PUSH2 0xC07 JUMP JUMPDEST PUSH20 0xFFFFFFFFFFFFFFFFFFFFFFFFFFFFFFFFFFFFFFFF AND PUSH2 0x74B PUSH2 0x7E0 JUMP JUMPDEST PUSH20 0xFFFFFFFFFFFFFFFFFFFFFFFFFFFFFFFFFFFFFFFF AND EQ PUSH2 0x7A1 JUMPI PUSH1 0x40 MLOAD PUSH32 0x8C379A000000000000000000000000000000000000000000000000000000000 DUP2 MSTORE PUSH1 0x4 ADD PUSH2 0x798 SWAP1 PUSH2 0x11B8 JUMP JUMPDEST PUSH1 0x40 MLOAD DUP1 SWAP2 SUB SWAP1 REVERT JUMPDEST PUSH2 0x7AB PUSH1 0x0 PUSH2 0xC0F JUMP JUMPDEST JUMP JUMPDEST PUSH1 0x5 PUSH1 0x20 MSTORE DUP1 PUSH1 0x0 MSTORE PUSH1 0x40 PUSH1 0x0 KECCAK256 PUSH1 0x0 SWAP2 POP SLOAD SWAP1 PUSH2 0x100 EXP SWAP1 DIV PUSH20 0xFFFFFFFFFFFFFFFFFFFFFFFFFFFFFFFFFFFFFFFF AND DUP2 JUMP JUMPDEST PUSH1 0x0 DUP1 PUSH1 0x0 SWAP1 SLOAD SWAP1 PUSH2 0x100 EXP SWAP1 DIV PUSH20 0xFFFFFFFFFFFFFFFFFFFFFFFFFFFFFFFFFFFFFFFF AND SWAP1 POP SWAP1 JUMP JUMPDEST PUSH1 0x4 DUP2 DUP2 SLOAD DUP2 LT PUSH2 0x819 JUMPI PUSH1 0x0 DUP1 REVERT JUMPDEST SWAP1 PUSH1 0x0 MSTORE PUSH1 0x20 PUSH1 0x0 KECCAK256 SWAP1 PUSH1 0x8 MUL ADD PUSH1 0x0 SWAP2 POP SWAP1 POP DUP1 PUSH1 0x0 ADD PUSH1 0x0 SWAP1 SLOAD SWAP1 PUSH2 0x100 EXP SWAP1 DIV PUSH20 0xFFFFFFFFFFFFFFFFFFFFFFFFFFFFFFFFFFFFFFFF AND SWAP1 DUP1 PUSH1 0x1 ADD DUP1 SLOAD PUSH2 0x862 SWAP1 PUSH2 0x1405 JUMP JUMPDEST DUP1 PUSH1 0x1F ADD PUSH1 0x20 DUP1 SWAP2 DIV MUL PUSH1 0x20 ADD PUSH1 0x40 MLOAD SWAP1 DUP2 ADD PUSH1 0x40 MSTORE DUP1 SWAP3 SWAP2 SWAP1 DUP2 DUP2 MSTORE PUSH1 0x20 ADD DUP3 DUP1 SLOAD PUSH2 0x88E SWAP1 PUSH2 0x1405 JUMP JUMPDEST DUP1 ISZERO PUSH2 0x8DB JUMPI DUP1 PUSH1 0x1F LT PUSH2 0x8B0 JUMPI PUSH2 0x100 DUP1 DUP4 SLOAD DIV MUL DUP4 MSTORE SWAP2 PUSH1 0x20 ADD SWAP2 PUSH2 0x8DB JUMP JUMPDEST DUP3 ADD SWAP2 SWAP1 PUSH1 0x0 MSTORE PUSH1 0x20 PUSH1 0x0 KECCAK256 SWAP1 JUMPDEST DUP2 SLOAD DUP2 MSTORE SWAP1 PUSH1 0x1 ADD SWAP1 PUSH1 0x20 ADD DUP1 DUP4 GT PUSH2 0x8BE JUMPI DUP3 SWAP1 SUB PUSH1 0x1F AND DUP3 ADD SWAP2 JUMPDEST POP POP POP POP POP SWAP1 DUP1 PUSH1 0x2 ADD DUP1 SLOAD PUSH2 0x8F0 SWAP1 PUSH2 0x1405 JUMP JUMPDEST DUP1 PUSH1 0x1F ADD PUSH1 0x20 DUP1 SWAP2 DIV MUL PUSH1 0x20 ADD PUSH1 0x40 MLOAD SWAP1 DUP2 ADD PUSH1 0x40 MSTORE DUP1 SWAP3 SWAP2 SWAP1 DUP2 DUP2 MSTORE PUSH1 0x20 ADD DUP3 DUP1 SLOAD PUSH2 0x91C SWAP1 PUSH2 0x1405 JUMP JUMPDEST DUP1 ISZERO PUSH2 0x969 JUMPI DUP1 PUSH1 0x1F LT PUSH2 0x93E JUMPI PUSH2 0x100 DUP1 DUP4 SLOAD DIV MUL DUP4 MSTORE SWAP2 PUSH1 0x20 ADD SWAP2 PUSH2 0x969 JUMP JUMPDEST DUP3 ADD SWAP2 SWAP1 PUSH1 0x0 MSTORE PUSH1 0x20 PUSH1 0x0 KECCAK256 SWAP1 JUMPDEST DUP2 SLOAD DUP2 MSTORE SWAP1 PUSH1 0x1 ADD SWAP1 PUSH1 0x20 ADD DUP1 DUP4 GT PUSH2 0x94C JUMPI DUP3 SWAP1 SUB PUSH1 0x1F AND DUP3 ADD SWAP2 JUMPDEST POP POP POP POP POP SWAP1 DUP1 PUSH1 0x3 ADD DUP1 SLOAD PUSH2 0x97E SWAP1 PUSH2 0x1405 JUMP JUMPDEST DUP1 PUSH1 0x1F ADD PUSH1 0x20 DUP1 SWAP2 DIV MUL PUSH1 0x20 ADD PUSH1 0x40 MLOAD SWAP1 DUP2 ADD PUSH1 0x40 MSTORE DUP1 SWAP3 SWAP2 SWAP1 DUP2 DUP2 MSTORE PUSH1 0x20 ADD DUP3 DUP1 SLOAD PUSH2 0x9AA SWAP1 PUSH2 0x1405 JUMP JUMPDEST DUP1 ISZERO PUSH2 0x9F7 JUMPI DUP1 PUSH1 0x1F LT PUSH2 0x9CC JUMPI PUSH2 0x100 DUP1 DUP4 SLOAD DIV MUL DUP4 MSTORE SWAP2 PUSH1 0x20 ADD SWAP2 PUSH2 0x9F7 JUMP JUMPDEST DUP3 ADD SWAP2 SWAP1 PUSH1 0x0 MSTORE PUSH1 0x20 PUSH1 0x0 KECCAK256 SWAP1 JUMPDEST DUP2 SLOAD DUP2 MSTORE SWAP1 PUSH1 0x1 ADD SWAP1 PUSH1 0x20 ADD DUP1 DUP4 GT PUSH2 0x9DA JUMPI DUP3 SWAP1 SUB PUSH1 0x1F AND DUP3 ADD SWAP2 JUMPDEST POP POP POP POP POP SWAP1 DUP1 PUSH1 0x4 ADD SLOAD SWAP1 DUP1 PUSH1 0x5 ADD SLOAD SWAP1 DUP1 PUSH1 0x6 ADD SLOAD SWAP1 DUP1 PUSH1 0x7 ADD PUSH1 0x0 SWAP1 SLOAD SWAP1 PUSH2 0x100 EXP SWAP1 DIV PUSH4 0xFFFFFFFF AND SWAP1 POP DUP9 JUMP JUMPDEST PUSH1 0x0 DUP1 PUSH1 0x2 SWAP1 POP PUSH1 0x0 DUP2 TIMESTAMP DUP4 PUSH1 0x1 SLOAD PUSH1 0x40 MLOAD PUSH1 0x20 ADD PUSH2 0xA4A SWAP4 SWAP3 SWAP2 SWAP1 PUSH2 0x103D JUMP JUMPDEST PUSH1 0x40 MLOAD PUSH1 0x20 DUP2 DUP4 SUB SUB DUP2 MSTORE SWAP1 PUSH1 0x40 MSTORE DUP1 MLOAD SWAP1 PUSH1 0x20 ADD KECCAK256 PUSH1 0x0 SHR PUSH2 0xA6D SWAP2 SWAP1 PUSH2 0x14BB JUMP JUMPDEST SWAP1 POP DUP1 SWAP3 POP POP POP SWAP1 JUMP JUMPDEST PUSH2 0xA7F PUSH2 0xC07 JUMP JUMPDEST PUSH20 0xFFFFFFFFFFFFFFFFFFFFFFFFFFFFFFFFFFFFFFFF AND PUSH2 0xA9D PUSH2 0x7E0 JUMP JUMPDEST PUSH20 0xFFFFFFFFFFFFFFFFFFFFFFFFFFFFFFFFFFFFFFFF AND EQ PUSH2 0xAF3 JUMPI PUSH1 0x40 MLOAD PUSH32 0x8C379A000000000000000000000000000000000000000000000000000000000 DUP2 MSTORE PUSH1 0x4 ADD PUSH2 0xAEA SWAP1 PUSH2 0x11B8 JUMP JUMPDEST PUSH1 0x40 MLOAD DUP1 SWAP2 SUB SWAP1 REVERT JUMPDEST PUSH1 0x0 PUSH20 0xFFFFFFFFFFFFFFFFFFFFFFFFFFFFFFFFFFFFFFFF AND DUP2 PUSH20 0xFFFFFFFFFFFFFFFFFFFFFFFFFFFFFFFFFFFFFFFF AND EQ ISZERO PUSH2 0xB63 JUMPI PUSH1 0x40 MLOAD PUSH32 0x8C379A000000000000000000000000000000000000000000000000000000000 DUP2 MSTORE PUSH1 0x4 ADD PUSH2 0xB5A SWAP1 PUSH2 0x116A JUMP JUMPDEST PUSH1 0x40 MLOAD DUP1 SWAP2 SUB SWAP1 REVERT JUMPDEST PUSH2 0xB6C DUP2 PUSH2 0xC0F JUMP JUMPDEST POP JUMP JUMPDEST CALLER PUSH20 0xFFFFFFFFFFFFFFFFFFFFFFFFFFFFFFFFFFFFFFFF AND PUSH2 0x8FC PUSH1 0x2 SELFBALANCE PUSH2 0xB96 SWAP2 SWAP1 PUSH2 0x12E9 JUMP JUMPDEST SWAP1 DUP2 ISZERO MUL SWAP1 PUSH1 0x40 MLOAD PUSH1 0x0 PUSH1 0x40 MLOAD DUP1 DUP4 SUB DUP2 DUP6 DUP9 DUP9 CALL SWAP4 POP POP POP POP ISZERO DUP1 ISZERO PUSH2 0xBC1 JUMPI RETURNDATASIZE PUSH1 0x0 DUP1 RETURNDATACOPY RETURNDATASIZE PUSH1 0x0 REVERT JUMPDEST POP PUSH32 0xA28482EEC3136A2461C6C30C08F71BA279C6C51A2D9C7BEA4E50D6D2632F3896 PUSH1 0x2 SELFBALANCE PUSH2 0xBF0 SWAP2 SWAP1 PUSH2 0x12E9 JUMP JUMPDEST PUSH1 0x40 MLOAD PUSH2 0xBFD SWAP2 SWAP1 PUSH2 0x118A JUMP JUMPDEST PUSH1 0x40 MLOAD DUP1 SWAP2 SUB SWAP1 LOG1 JUMP JUMPDEST PUSH1 0x0 CALLER SWAP1 POP SWAP1 JUMP JUMPDEST PUSH1 0x0 DUP1 PUSH1 0x0 SWAP1 SLOAD SWAP1 PUSH2 0x100 EXP SWAP1 DIV PUSH20 0xFFFFFFFFFFFFFFFFFFFFFFFFFFFFFFFFFFFFFFFF AND SWAP1 POP DUP2 PUSH1 0x0 DUP1 PUSH2 0x100 EXP DUP2 SLOAD DUP2 PUSH20 0xFFFFFFFFFFFFFFFFFFFFFFFFFFFFFFFFFFFFFFFF MUL NOT AND SWAP1 DUP4 PUSH20 0xFFFFFFFFFFFFFFFFFFFFFFFFFFFFFFFFFFFFFFFF AND MUL OR SWAP1 SSTORE POP DUP2 PUSH20 0xFFFFFFFFFFFFFFFFFFFFFFFFFFFFFFFFFFFFFFFF AND DUP2 PUSH20 0xFFFFFFFFFFFFFFFFFFFFFFFFFFFFFFFFFFFFFFFF AND PUSH32 0x8BE0079C531659141344CD1FD0A4F28419497F9722A3DAAFE3B4186F6B6457E0 PUSH1 0x40 MLOAD PUSH1 0x40 MLOAD DUP1 SWAP2 SUB SWAP1 LOG3 POP POP JUMP JUMPDEST DUP3 DUP1 SLOAD PUSH2 0xCDF SWAP1 PUSH2 0x1405 JUMP JUMPDEST SWAP1 PUSH1 0x0 MSTORE PUSH1 0x20 PUSH1 0x0 KECCAK256 SWAP1 PUSH1 0x1F ADD PUSH1 0x20 SWAP1 DIV DUP2 ADD SWAP3 DUP3 PUSH2 0xD01 JUMPI PUSH1 0x0 DUP6 SSTORE PUSH2 0xD48 JUMP JUMPDEST DUP3 PUSH1 0x1F LT PUSH2 0xD1A JUMPI DUP1 MLOAD PUSH1 0xFF NOT AND DUP4 DUP1 ADD OR DUP6 SSTORE PUSH2 0xD48 JUMP JUMPDEST DUP3 DUP1 ADD PUSH1 0x1 ADD DUP6 SSTORE DUP3 ISZERO PUSH2 0xD48 JUMPI SWAP2 DUP3 ADD JUMPDEST DUP3 DUP2 GT ISZERO PUSH2 0xD47 JUMPI DUP3 MLOAD DUP3 SSTORE SWAP2 PUSH1 0x20 ADD SWAP2 SWAP1 PUSH1 0x1 ADD SWAP1 PUSH2 0xD2C JUMP JUMPDEST JUMPDEST POP SWAP1 POP PUSH2 0xD55 SWAP2 SWAP1 PUSH2 0xD59 JUMP JUMPDEST POP SWAP1 JUMP JUMPDEST JUMPDEST DUP1 DUP3 GT ISZERO PUSH2 0xD72 JUMPI PUSH1 0x0 DUP2 PUSH1 0x0 SWAP1 SSTORE POP PUSH1 0x1 ADD PUSH2 0xD5A JUMP JUMPDEST POP SWAP1 JUMP JUMPDEST PUSH1 0x0 PUSH2 0xD89 PUSH2 0xD84 DUP5 PUSH2 0x1246 JUMP JUMPDEST PUSH2 0x1221 JUMP JUMPDEST SWAP1 POP DUP3 DUP2 MSTORE PUSH1 0x20 DUP2 ADD DUP5 DUP5 DUP5 ADD GT ISZERO PUSH2 0xDA5 JUMPI PUSH2 0xDA4 PUSH2 0x15DC JUMP JUMPDEST JUMPDEST PUSH2 0xDB0 DUP5 DUP3 DUP6 PUSH2 0x13C3 JUMP JUMPDEST POP SWAP4 SWAP3 POP POP POP JUMP JUMPDEST PUSH1 0x0 DUP2 CALLDATALOAD SWAP1 POP PUSH2 0xDC7 DUP2 PUSH2 0x1715 JUMP JUMPDEST SWAP3 SWAP2 POP POP JUMP JUMPDEST PUSH1 0x0 DUP3 PUSH1 0x1F DUP4 ADD SLT PUSH2 0xDE2 JUMPI PUSH2 0xDE1 PUSH2 0x15D7 JUMP JUMPDEST JUMPDEST DUP2 CALLDATALOAD PUSH2 0xDF2 DUP5 DUP3 PUSH1 0x20 DUP7 ADD PUSH2 0xD76 JUMP JUMPDEST SWAP2 POP POP SWAP3 SWAP2 POP POP JUMP JUMPDEST PUSH1 0x0 DUP2 CALLDATALOAD SWAP1 POP PUSH2 0xE0A DUP2 PUSH2 0x172C JUMP JUMPDEST SWAP3 SWAP2 POP POP JUMP JUMPDEST PUSH1 0x0 PUSH1 0x20 DUP3 DUP5 SUB SLT ISZERO PUSH2 0xE26 JUMPI PUSH2 0xE25 PUSH2 0x15E6 JUMP JUMPDEST JUMPDEST PUSH1 0x0 PUSH2 0xE34 DUP5 DUP3 DUP6 ADD PUSH2 0xDB8 JUMP JUMPDEST SWAP2 POP POP SWAP3 SWAP2 POP POP JUMP JUMPDEST PUSH1 0x0 DUP1 PUSH1 0x0 PUSH1 0x60 DUP5 DUP7 SUB SLT ISZERO PUSH2 0xE56 JUMPI PUSH2 0xE55 PUSH2 0x15E6 JUMP JUMPDEST JUMPDEST PUSH1 0x0 DUP5 ADD CALLDATALOAD PUSH8 0xFFFFFFFFFFFFFFFF DUP2 GT ISZERO PUSH2 0xE74 JUMPI PUSH2 0xE73 PUSH2 0x15E1 JUMP JUMPDEST JUMPDEST PUSH2 0xE80 DUP7 DUP3 DUP8 ADD PUSH2 0xDCD JUMP JUMPDEST SWAP4 POP POP PUSH1 0x20 DUP5 ADD CALLDATALOAD PUSH8 0xFFFFFFFFFFFFFFFF DUP2 GT ISZERO PUSH2 0xEA1 JUMPI PUSH2 0xEA0 PUSH2 0x15E1 JUMP JUMPDEST JUMPDEST PUSH2 0xEAD DUP7 DUP3 DUP8 ADD PUSH2 0xDCD JUMP JUMPDEST SWAP3 POP POP PUSH1 0x40 DUP5 ADD CALLDATALOAD PUSH8 0xFFFFFFFFFFFFFFFF DUP2 GT ISZERO PUSH2 0xECE JUMPI PUSH2 0xECD PUSH2 0x15E1 JUMP JUMPDEST JUMPDEST PUSH2 0xEDA DUP7 DUP3 DUP8 ADD PUSH2 0xDCD JUMP JUMPDEST SWAP2 POP POP SWAP3 POP SWAP3 POP SWAP3 JUMP JUMPDEST PUSH1 0x0 PUSH1 0x20 DUP3 DUP5 SUB SLT ISZERO PUSH2 0xEFA JUMPI PUSH2 0xEF9 PUSH2 0x15E6 JUMP JUMPDEST JUMPDEST PUSH1 0x0 PUSH2 0xF08 DUP5 DUP3 DUP6 ADD PUSH2 0xDFB JUMP JUMPDEST SWAP2 POP POP SWAP3 SWAP2 POP POP JUMP JUMPDEST PUSH2 0xF1A DUP2 PUSH2 0x1377 JUMP JUMPDEST DUP3 MSTORE POP POP JUMP JUMPDEST PUSH1 0x0 PUSH2 0xF2B DUP3 PUSH2 0x1277 JUMP JUMPDEST PUSH2 0xF35 DUP2 DUP6 PUSH2 0x1282 JUMP JUMPDEST SWAP4 POP PUSH2 0xF45 DUP2 DUP6 PUSH1 0x20 DUP7 ADD PUSH2 0x13D2 JUMP JUMPDEST PUSH2 0xF4E DUP2 PUSH2 0x15EB JUMP JUMPDEST DUP5 ADD SWAP2 POP POP SWAP3 SWAP2 POP POP JUMP JUMPDEST PUSH1 0x0 PUSH2 0xF66 PUSH1 0x28 DUP4 PUSH2 0x1282 JUMP JUMPDEST SWAP2 POP PUSH2 0xF71 DUP3 PUSH2 0x15FC JUMP JUMPDEST PUSH1 0x40 DUP3 ADD SWAP1 POP SWAP2 SWAP1 POP JUMP JUMPDEST PUSH1 0x0 PUSH2 0xF89 PUSH1 0x26 DUP4 PUSH2 0x1282 JUMP JUMPDEST SWAP2 POP PUSH2 0xF94 DUP3 PUSH2 0x164B JUMP JUMPDEST PUSH1 0x40 DUP3 ADD SWAP1 POP SWAP2 SWAP1 POP JUMP JUMPDEST PUSH1 0x0 PUSH2 0xFAC PUSH1 0xC DUP4 PUSH2 0x1282 JUMP JUMPDEST SWAP2 POP PUSH2 0xFB7 DUP3 PUSH2 0x169A JUMP JUMPDEST PUSH1 0x20 DUP3 ADD SWAP1 POP SWAP2 SWAP1 POP JUMP JUMPDEST PUSH1 0x0 PUSH2 0xFCF PUSH1 0x20 DUP4 PUSH2 0x1282 JUMP JUMPDEST SWAP2 POP PUSH2 0xFDA DUP3 PUSH2 0x16C3 JUMP JUMPDEST PUSH1 0x20 DUP3 ADD SWAP1 POP SWAP2 SWAP1 POP JUMP JUMPDEST PUSH1 0x0 PUSH2 0xFF2 PUSH1 0x15 DUP4 PUSH2 0x1282 JUMP JUMPDEST SWAP2 POP PUSH2 0xFFD DUP3 PUSH2 0x16EC JUMP JUMPDEST PUSH1 0x20 DUP3 ADD SWAP1 POP SWAP2 SWAP1 POP JUMP JUMPDEST PUSH2 0x1011 DUP2 PUSH2 0x13A9 JUMP JUMPDEST DUP3 MSTORE POP POP JUMP JUMPDEST PUSH2 0x1028 PUSH2 0x1023 DUP3 PUSH2 0x13A9 JUMP JUMPDEST PUSH2 0x14B1 JUMP JUMPDEST DUP3 MSTORE POP POP JUMP JUMPDEST PUSH2 0x1037 DUP2 PUSH2 0x13B3 JUMP JUMPDEST DUP3 MSTORE POP POP JUMP JUMPDEST PUSH1 0x0 PUSH2 0x1049 DUP3 DUP7 PUSH2 0x1017 JUMP JUMPDEST PUSH1 0x20 DUP3 ADD SWAP2 POP PUSH2 0x1059 DUP3 DUP6 PUSH2 0x1017 JUMP JUMPDEST PUSH1 0x20 DUP3 ADD SWAP2 POP PUSH2 0x1069 DUP3 DUP5 PUSH2 0x1017 JUMP JUMPDEST PUSH1 0x20 DUP3 ADD SWAP2 POP DUP2 SWAP1 POP SWAP5 SWAP4 POP POP POP POP JUMP JUMPDEST PUSH1 0x0 PUSH1 0x20 DUP3 ADD SWAP1 POP PUSH2 0x108F PUSH1 0x0 DUP4 ADD DUP5 PUSH2 0xF11 JUMP JUMPDEST SWAP3 SWAP2 POP POP JUMP JUMPDEST PUSH1 0x0 PUSH2 0x100 DUP3 ADD SWAP1 POP PUSH2 0x10AB PUSH1 0x0 DUP4 ADD DUP12 PUSH2 0xF11 JUMP JUMPDEST DUP2 DUP2 SUB PUSH1 0x20 DUP4 ADD MSTORE PUSH2 0x10BD DUP2 DUP11 PUSH2 0xF20 JUMP JUMPDEST SWAP1 POP DUP2 DUP2 SUB PUSH1 0x40 DUP4 ADD MSTORE PUSH2 0x10D1 DUP2 DUP10 PUSH2 0xF20 JUMP JUMPDEST SWAP1 POP DUP2 DUP2 SUB PUSH1 0x60 DUP4 ADD MSTORE PUSH2 0x10E5 DUP2 DUP9 PUSH2 0xF20 JUMP JUMPDEST SWAP1 POP PUSH2 0x10F4 PUSH1 0x80 DUP4 ADD DUP8 PUSH2 0x1008 JUMP JUMPDEST PUSH2 0x1101 PUSH1 0xA0 DUP4 ADD DUP7 PUSH2 0x1008 JUMP JUMPDEST PUSH2 0x110E PUSH1 0xC0 DUP4 ADD DUP6 PUSH2 0x1008 JUMP JUMPDEST PUSH2 0x111B PUSH1 0xE0 DUP4 ADD DUP5 PUSH2 0x102E JUMP JUMPDEST SWAP10 SWAP9 POP POP POP POP POP POP POP POP POP JUMP JUMPDEST PUSH1 0x0 PUSH1 0x20 DUP3 ADD SWAP1 POP DUP2 DUP2 SUB PUSH1 0x0 DUP4 ADD MSTORE PUSH2 0x1142 DUP2 DUP5 PUSH2 0xF20 JUMP JUMPDEST SWAP1 POP SWAP3 SWAP2 POP POP JUMP JUMPDEST PUSH1 0x0 PUSH1 0x20 DUP3 ADD SWAP1 POP DUP2 DUP2 SUB PUSH1 0x0 DUP4 ADD MSTORE PUSH2 0x1163 DUP2 PUSH2 0xF59 JUMP JUMPDEST SWAP1 POP SWAP2 SWAP1 POP JUMP JUMPDEST PUSH1 0x0 PUSH1 0x20 DUP3 ADD SWAP1 POP DUP2 DUP2 SUB PUSH1 0x0 DUP4 ADD MSTORE PUSH2 0x1183 DUP2 PUSH2 0xF7C JUMP JUMPDEST SWAP1 POP SWAP2 SWAP1 POP JUMP JUMPDEST PUSH1 0x0 PUSH1 0x40 DUP3 ADD SWAP1 POP DUP2 DUP2 SUB PUSH1 0x0 DUP4 ADD MSTORE PUSH2 0x11A3 DUP2 PUSH2 0xF9F JUMP JUMPDEST SWAP1 POP PUSH2 0x11B2 PUSH1 0x20 DUP4 ADD DUP5 PUSH2 0x1008 JUMP JUMPDEST SWAP3 SWAP2 POP POP JUMP JUMPDEST PUSH1 0x0 PUSH1 0x20 DUP3 ADD SWAP1 POP DUP2 DUP2 SUB PUSH1 0x0 DUP4 ADD MSTORE PUSH2 0x11D1 DUP2 PUSH2 0xFC2 JUMP JUMPDEST SWAP1 POP SWAP2 SWAP1 POP JUMP JUMPDEST PUSH1 0x0 PUSH1 0x40 DUP3 ADD SWAP1 POP DUP2 DUP2 SUB PUSH1 0x0 DUP4 ADD MSTORE PUSH2 0x11F1 DUP2 PUSH2 0xFE5 JUMP JUMPDEST SWAP1 POP PUSH2 0x1200 PUSH1 0x20 DUP4 ADD DUP5 PUSH2 0x1008 JUMP JUMPDEST SWAP3 SWAP2 POP POP JUMP JUMPDEST PUSH1 0x0 PUSH1 0x20 DUP3 ADD SWAP1 POP PUSH2 0x121B PUSH1 0x0 DUP4 ADD DUP5 PUSH2 0x1008 JUMP JUMPDEST SWAP3 SWAP2 POP POP JUMP JUMPDEST PUSH1 0x0 PUSH2 0x122B PUSH2 0x123C JUMP JUMPDEST SWAP1 POP PUSH2 0x1237 DUP3 DUP3 PUSH2 0x1437 JUMP JUMPDEST SWAP2 SWAP1 POP JUMP JUMPDEST PUSH1 0x0 PUSH1 0x40 MLOAD SWAP1 POP SWAP1 JUMP JUMPDEST PUSH1 0x0 PUSH8 0xFFFFFFFFFFFFFFFF DUP3 GT ISZERO PUSH2 0x1261 JUMPI PUSH2 0x1260 PUSH2 0x15A8 JUMP JUMPDEST JUMPDEST PUSH2 0x126A DUP3 PUSH2 0x15EB JUMP JUMPDEST SWAP1 POP PUSH1 0x20 DUP2 ADD SWAP1 POP SWAP2 SWAP1 POP JUMP JUMPDEST PUSH1 0x0 DUP2 MLOAD SWAP1 POP SWAP2 SWAP1 POP JUMP JUMPDEST PUSH1 0x0 DUP3 DUP3 MSTORE PUSH1 0x20 DUP3 ADD SWAP1 POP SWAP3 SWAP2 POP POP JUMP JUMPDEST PUSH1 0x0 PUSH2 0x129E DUP3 PUSH2 0x13A9 JUMP JUMPDEST SWAP2 POP PUSH2 0x12A9 DUP4 PUSH2 0x13A9 JUMP JUMPDEST SWAP3 POP DUP3 PUSH32 0xFFFFFFFFFFFFFFFFFFFFFFFFFFFFFFFFFFFFFFFFFFFFFFFFFFFFFFFFFFFFFFFF SUB DUP3 GT ISZERO PUSH2 0x12DE JUMPI PUSH2 0x12DD PUSH2 0x14EC JUMP JUMPDEST JUMPDEST DUP3 DUP3 ADD SWAP1 POP SWAP3 SWAP2 POP POP JUMP JUMPDEST PUSH1 0x0 PUSH2 0x12F4 DUP3 PUSH2 0x13A9 JUMP JUMPDEST SWAP2 POP PUSH2 0x12FF DUP4 PUSH2 0x13A9 JUMP JUMPDEST SWAP3 POP DUP2 PUSH32 0xFFFFFFFFFFFFFFFFFFFFFFFFFFFFFFFFFFFFFFFFFFFFFFFFFFFFFFFFFFFFFFFF DIV DUP4 GT DUP3 ISZERO ISZERO AND ISZERO PUSH2 0x1338 JUMPI PUSH2 0x1337 PUSH2 0x14EC JUMP JUMPDEST JUMPDEST DUP3 DUP3 MUL SWAP1 POP SWAP3 SWAP2 POP POP JUMP JUMPDEST PUSH1 0x0 PUSH2 0x134E DUP3 PUSH2 0x13A9 JUMP JUMPDEST SWAP2 POP PUSH2 0x1359 DUP4 PUSH2 0x13A9 JUMP JUMPDEST SWAP3 POP DUP3 DUP3 LT ISZERO PUSH2 0x136C JUMPI PUSH2 0x136B PUSH2 0x14EC JUMP JUMPDEST JUMPDEST DUP3 DUP3 SUB SWAP1 POP SWAP3 SWAP2 POP POP JUMP JUMPDEST PUSH1 0x0 PUSH2 0x1382 DUP3 PUSH2 0x1389 JUMP JUMPDEST SWAP1 POP SWAP2 SWAP1 POP JUMP JUMPDEST PUSH1 0x0 PUSH20 0xFFFFFFFFFFFFFFFFFFFFFFFFFFFFFFFFFFFFFFFF DUP3 AND SWAP1 POP SWAP2 SWAP1 POP JUMP JUMPDEST PUSH1 0x0 DUP2 SWAP1 POP SWAP2 SWAP1 POP JUMP JUMPDEST PUSH1 0x0 PUSH4 0xFFFFFFFF DUP3 AND SWAP1 POP SWAP2 SWAP1 POP JUMP JUMPDEST DUP3 DUP2 DUP4 CALLDATACOPY PUSH1 0x0 DUP4 DUP4 ADD MSTORE POP POP POP JUMP JUMPDEST PUSH1 0x0 JUMPDEST DUP4 DUP2 LT ISZERO PUSH2 0x13F0 JUMPI DUP1 DUP3 ADD MLOAD DUP2 DUP5 ADD MSTORE PUSH1 0x20 DUP2 ADD SWAP1 POP PUSH2 0x13D5 JUMP JUMPDEST DUP4 DUP2 GT ISZERO PUSH2 0x13FF JUMPI PUSH1 0x0 DUP5 DUP5 ADD MSTORE JUMPDEST POP POP POP POP JUMP JUMPDEST PUSH1 0x0 PUSH1 0x2 DUP3 DIV SWAP1 POP PUSH1 0x1 DUP3 AND DUP1 PUSH2 0x141D JUMPI PUSH1 0x7F DUP3 AND SWAP2 POP JUMPDEST PUSH1 0x20 DUP3 LT DUP2 EQ ISZERO PUSH2 0x1431 JUMPI PUSH2 0x1430 PUSH2 0x154A JUMP JUMPDEST JUMPDEST POP SWAP2 SWAP1 POP JUMP JUMPDEST PUSH2 0x1440 DUP3 PUSH2 0x15EB JUMP JUMPDEST DUP2 ADD DUP2 DUP2 LT PUSH8 0xFFFFFFFFFFFFFFFF DUP3 GT OR ISZERO PUSH2 0x145F JUMPI PUSH2 0x145E PUSH2 0x15A8 JUMP JUMPDEST JUMPDEST DUP1 PUSH1 0x40 MSTORE POP POP POP JUMP JUMPDEST PUSH1 0x0 PUSH2 0x1473 DUP3 PUSH2 0x13A9 JUMP JUMPDEST SWAP2 POP PUSH32 0xFFFFFFFFFFFFFFFFFFFFFFFFFFFFFFFFFFFFFFFFFFFFFFFFFFFFFFFFFFFFFFFF DUP3 EQ ISZERO PUSH2 0x14A6 JUMPI PUSH2 0x14A5 PUSH2 0x14EC JUMP JUMPDEST JUMPDEST PUSH1 0x1 DUP3 ADD SWAP1 POP SWAP2 SWAP1 POP JUMP JUMPDEST PUSH1 0x0 DUP2 SWAP1 POP SWAP2 SWAP1 POP JUMP JUMPDEST PUSH1 0x0 PUSH2 0x14C6 DUP3 PUSH2 0x13A9 JUMP JUMPDEST SWAP2 POP PUSH2 0x14D1 DUP4 PUSH2 0x13A9 JUMP JUMPDEST SWAP3 POP DUP3 PUSH2 0x14E1 JUMPI PUSH2 0x14E0 PUSH2 0x151B JUMP JUMPDEST JUMPDEST DUP3 DUP3 MOD SWAP1 POP SWAP3 SWAP2 POP POP JUMP JUMPDEST PUSH32 0x4E487B7100000000000000000000000000000000000000000000000000000000 PUSH1 0x0 MSTORE PUSH1 0x11 PUSH1 0x4 MSTORE PUSH1 0x24 PUSH1 0x0 REVERT JUMPDEST PUSH32 0x4E487B7100000000000000000000000000000000000000000000000000000000 PUSH1 0x0 MSTORE PUSH1 0x12 PUSH1 0x4 MSTORE PUSH1 0x24 PUSH1 0x0 REVERT JUMPDEST PUSH32 0x4E487B7100000000000000000000000000000000000000000000000000000000 PUSH1 0x0 MSTORE PUSH1 0x22 PUSH1 0x4 MSTORE PUSH1 0x24 PUSH1 0x0 REVERT JUMPDEST PUSH32 0x4E487B7100000000000000000000000000000000000000000000000000000000 PUSH1 0x0 MSTORE PUSH1 0x32 PUSH1 0x4 MSTORE PUSH1 0x24 PUSH1 0x0 REVERT JUMPDEST PUSH32 0x4E487B7100000000000000000000000000000000000000000000000000000000 PUSH1 0x0 MSTORE PUSH1 0x41 PUSH1 0x4 MSTORE PUSH1 0x24 PUSH1 0x0 REVERT JUMPDEST PUSH1 0x0 DUP1 REVERT JUMPDEST PUSH1 0x0 DUP1 REVERT JUMPDEST PUSH1 0x0 DUP1 REVERT JUMPDEST PUSH1 0x0 DUP1 REVERT JUMPDEST PUSH1 0x0 PUSH1 0x1F NOT PUSH1 0x1F DUP4 ADD AND SWAP1 POP SWAP2 SWAP1 POP JUMP JUMPDEST PUSH32 0x536F6C6F2073652070756564652074656E657220756E20636F63686520706F72 PUSH1 0x0 DUP3 ADD MSTORE PUSH32 0x20706572736F6E61000000000000000000000000000000000000000000000000 PUSH1 0x20 DUP3 ADD MSTORE POP JUMP JUMPDEST PUSH32 0x4F776E61626C653A206E6577206F776E657220697320746865207A65726F2061 PUSH1 0x0 DUP3 ADD MSTORE PUSH32 0x6464726573730000000000000000000000000000000000000000000000000000 PUSH1 0x20 DUP3 ADD MSTORE POP JUMP JUMPDEST PUSH32 0x4861732067616E61646F3A200000000000000000000000000000000000000000 PUSH1 0x0 DUP3 ADD MSTORE POP JUMP JUMPDEST PUSH32 0x4F776E61626C653A2063616C6C6572206973206E6F7420746865206F776E6572 PUSH1 0x0 DUP3 ADD MSTORE POP JUMP JUMPDEST PUSH32 0x456C20636F6368652067616E61646F722065733A200000000000000000000000 PUSH1 0x0 DUP3 ADD MSTORE POP JUMP JUMPDEST PUSH2 0x171E DUP2 PUSH2 0x1377 JUMP JUMPDEST DUP2 EQ PUSH2 0x1729 JUMPI PUSH1 0x0 DUP1 REVERT JUMPDEST POP JUMP JUMPDEST PUSH2 0x1735 DUP2 PUSH2 0x13A9 JUMP JUMPDEST DUP2 EQ PUSH2 0x1740 JUMPI PUSH1 0x0 DUP1 REVERT JUMPDEST POP JUMP INVALID LOG2 PUSH5 0x6970667358 0x22 SLT KECCAK256 PUSH11 0x8AA8D6991411B0593F2B0B 0xB1 PUSH30 0x501302A38212C53CBB29FA660E4063086ED764736F6C6343000807003300 "
				},
				"gasEstimates": {
					"creation": {
						"codeDepositCost": "1201800",
						"executionCost": "infinite",
						"totalCost": "infinite"
					},
					"external": {
						"Apostar(uint256)": "infinite",
						"anadirCoche(string,string,string)": "infinite",
						"cocheDePropietario(uint256)": "2839",
						"listaCoches(uint256)": "infinite",
						"numeroAleatorio()": "infinite",
						"numeroCochesPersona(address)": "2815",
						"owner()": "2544",
						"renounceOwnership()": "30441",
						"transferOwnership(address)": "30811"
					},
					"internal": {
						"_depositoLleno(struct CarreraCoches.Coche storage pointer)": "infinite",
						"_repostando(struct CarreraCoches.Coche storage pointer)": "infinite",
						"balance()": "infinite"
					}
				},
				"methodIdentifiers": {
					"Apostar(uint256)": "6b6f0494",
					"anadirCoche(string,string,string)": "2458c544",
					"cocheDePropietario(uint256)": "858b0554",
					"listaCoches(uint256)": "d735573d",
					"numeroAleatorio()": "f1413763",
					"numeroCochesPersona(address)": "1c6743e4",
					"owner()": "8da5cb5b",
					"renounceOwnership()": "715018a6",
					"transferOwnership(address)": "f2fde38b"
				}
			},
			"storageLayout": {
				"storage": [
					{
						"astId": 7,
						"contract": "contracts/CarreraCoches/principal.sol:CarreraCoches",
						"label": "_owner",
						"offset": 0,
						"slot": "0",
						"type": "t_address"
					},
					{
						"astId": 129,
						"contract": "contracts/CarreraCoches/principal.sol:CarreraCoches",
						"label": "randNonce",
						"offset": 0,
						"slot": "1",
						"type": "t_uint256"
					},
					{
						"astId": 132,
						"contract": "contracts/CarreraCoches/principal.sol:CarreraCoches",
						"label": "contador",
						"offset": 0,
						"slot": "2",
						"type": "t_uint256"
					},
					{
						"astId": 135,
						"contract": "contracts/CarreraCoches/principal.sol:CarreraCoches",
						"label": "cooldown",
						"offset": 0,
						"slot": "3",
						"type": "t_uint256"
					},
					{
						"astId": 139,
						"contract": "contracts/CarreraCoches/principal.sol:CarreraCoches",
						"label": "listaCoches",
						"offset": 0,
						"slot": "4",
						"type": "t_array(t_struct(Coche)126_storage)dyn_storage"
					},
					{
						"astId": 165,
						"contract": "contracts/CarreraCoches/principal.sol:CarreraCoches",
						"label": "cocheDePropietario",
						"offset": 0,
						"slot": "5",
						"type": "t_mapping(t_uint256,t_address)"
					},
					{
						"astId": 169,
						"contract": "contracts/CarreraCoches/principal.sol:CarreraCoches",
						"label": "numeroCochesPersona",
						"offset": 0,
						"slot": "6",
						"type": "t_mapping(t_address,t_uint256)"
					}
				],
				"types": {
					"t_address": {
						"encoding": "inplace",
						"label": "address",
						"numberOfBytes": "20"
					},
					"t_array(t_struct(Coche)126_storage)dyn_storage": {
						"base": "t_struct(Coche)126_storage",
						"encoding": "dynamic_array",
						"label": "struct CarreraCoches.Coche[]",
						"numberOfBytes": "32"
					},
					"t_mapping(t_address,t_uint256)": {
						"encoding": "mapping",
						"key": "t_address",
						"label": "mapping(address => uint256)",
						"numberOfBytes": "32",
						"value": "t_uint256"
					},
					"t_mapping(t_uint256,t_address)": {
						"encoding": "mapping",
						"key": "t_uint256",
						"label": "mapping(uint256 => address)",
						"numberOfBytes": "32",
						"value": "t_address"
					},
					"t_string_storage": {
						"encoding": "bytes",
						"label": "string",
						"numberOfBytes": "32"
					},
					"t_struct(Coche)126_storage": {
						"encoding": "inplace",
						"label": "struct CarreraCoches.Coche",
						"members": [
							{
								"astId": 111,
								"contract": "contracts/CarreraCoches/principal.sol:CarreraCoches",
								"label": "idPiloto",
								"offset": 0,
								"slot": "0",
								"type": "t_address"
							},
							{
								"astId": 113,
								"contract": "contracts/CarreraCoches/principal.sol:CarreraCoches",
								"label": "modelo",
								"offset": 0,
								"slot": "1",
								"type": "t_string_storage"
							},
							{
								"astId": 115,
								"contract": "contracts/CarreraCoches/principal.sol:CarreraCoches",
								"label": "marca",
								"offset": 0,
								"slot": "2",
								"type": "t_string_storage"
							},
							{
								"astId": 117,
								"contract": "contracts/CarreraCoches/principal.sol:CarreraCoches",
								"label": "nombrePiloto",
								"offset": 0,
								"slot": "3",
								"type": "t_string_storage"
							},
							{
								"astId": 119,
								"contract": "contracts/CarreraCoches/principal.sol:CarreraCoches",
								"label": "carrerasGanadas",
								"offset": 0,
								"slot": "4",
								"type": "t_uint256"
							},
							{
								"astId": 121,
								"contract": "contracts/CarreraCoches/principal.sol:CarreraCoches",
								"label": "carrerasTotales",
								"offset": 0,
								"slot": "5",
								"type": "t_uint256"
							},
							{
								"astId": 123,
								"contract": "contracts/CarreraCoches/principal.sol:CarreraCoches",
								"label": "tiempoEspera",
								"offset": 0,
								"slot": "6",
								"type": "t_uint256"
							},
							{
								"astId": 125,
								"contract": "contracts/CarreraCoches/principal.sol:CarreraCoches",
								"label": "nivel",
								"offset": 0,
								"slot": "7",
								"type": "t_uint32"
							}
						],
						"numberOfBytes": "256"
					},
					"t_uint256": {
						"encoding": "inplace",
						"label": "uint256",
						"numberOfBytes": "32"
					},
					"t_uint32": {
						"encoding": "inplace",
						"label": "uint32",
						"numberOfBytes": "4"
					}
				}
			},
			"userdoc": {
				"kind": "user",
				"methods": {},
				"version": 1
			}
		}
	}
}