{
	"contracts/CarreraCoches/principal.sol": {
		"CarreraCoches": {
			"abi": [
				{
					"anonymous": false,
					"inputs": [
						{
							"indexed": true,
							"internalType": "address",
							"name": "previousOwner",
							"type": "address"
						},
						{
							"indexed": true,
							"internalType": "address",
							"name": "newOwner",
							"type": "address"
						}
					],
					"name": "OwnershipTransferred",
					"type": "event"
				},
				{
					"anonymous": false,
					"inputs": [
						{
							"indexed": false,
							"internalType": "string",
							"name": "mo",
							"type": "string"
						},
						{
							"indexed": false,
							"internalType": "string",
							"name": "ma",
							"type": "string"
						}
					],
					"name": "cochePropietario",
					"type": "event"
				},
				{
					"anonymous": false,
					"inputs": [
						{
							"indexed": false,
							"internalType": "uint256",
							"name": "compr",
							"type": "uint256"
						}
					],
					"name": "comprobar",
					"type": "event"
				},
				{
					"anonymous": false,
					"inputs": [
						{
							"indexed": false,
							"internalType": "string",
							"name": "ms",
							"type": "string"
						}
					],
					"name": "confirmacionDepositoLleno",
					"type": "event"
				},
				{
					"anonymous": false,
					"inputs": [
						{
							"indexed": false,
							"internalType": "string",
							"name": "ms",
							"type": "string"
						},
						{
							"indexed": false,
							"internalType": "uint256",
							"name": "res",
							"type": "uint256"
						}
					],
					"name": "mostrarResultado",
					"type": "event"
				},
				{
					"inputs": [
						{
							"internalType": "uint256",
							"name": "dineroApostar",
							"type": "uint256"
						}
					],
					"name": "Apostar",
					"outputs": [
						{
							"internalType": "string",
							"name": "",
							"type": "string"
						}
					],
					"stateMutability": "payable",
					"type": "function"
				},
				{
					"inputs": [
						{
							"internalType": "string",
							"name": "_modelo",
							"type": "string"
						},
						{
							"internalType": "string",
							"name": "_marca",
							"type": "string"
						},
						{
							"internalType": "string",
							"name": "_nombrePiloto",
							"type": "string"
						}
					],
					"name": "anadirCoche",
					"outputs": [
						{
							"internalType": "uint256",
							"name": "",
							"type": "uint256"
						}
					],
					"stateMutability": "nonpayable",
					"type": "function"
				},
				{
					"inputs": [
						{
							"internalType": "uint256",
							"name": "",
							"type": "uint256"
						}
					],
					"name": "cocheDePropietario",
					"outputs": [
						{
							"internalType": "address",
							"name": "",
							"type": "address"
						}
					],
					"stateMutability": "view",
					"type": "function"
				},
				{
					"inputs": [
						{
							"internalType": "uint256",
							"name": "",
							"type": "uint256"
						}
					],
					"name": "listaCoches",
					"outputs": [
						{
							"internalType": "address",
							"name": "idPiloto",
							"type": "address"
						},
						{
							"internalType": "string",
							"name": "modelo",
							"type": "string"
						},
						{
							"internalType": "string",
							"name": "marca",
							"type": "string"
						},
						{
							"internalType": "string",
							"name": "nombrePiloto",
							"type": "string"
						},
						{
							"internalType": "uint256",
							"name": "carrerasGanadas",
							"type": "uint256"
						},
						{
							"internalType": "uint256",
							"name": "carrerasTotales",
							"type": "uint256"
						},
						{
							"internalType": "uint256",
							"name": "tiempoEspera",
							"type": "uint256"
						},
						{
							"internalType": "uint32",
							"name": "nivel",
							"type": "uint32"
						}
					],
					"stateMutability": "view",
					"type": "function"
				},
				{
					"inputs": [],
					"name": "numeroAleatorio",
					"outputs": [
						{
							"internalType": "uint256",
							"name": "",
							"type": "uint256"
						}
					],
					"stateMutability": "nonpayable",
					"type": "function"
				},
				{
					"inputs": [
						{
							"internalType": "address",
							"name": "",
							"type": "address"
						}
					],
					"name": "numeroCochesPersona",
					"outputs": [
						{
							"internalType": "uint256",
							"name": "",
							"type": "uint256"
						}
					],
					"stateMutability": "view",
					"type": "function"
				},
				{
					"inputs": [],
					"name": "owner",
					"outputs": [
						{
							"internalType": "address",
							"name": "",
							"type": "address"
						}
					],
					"stateMutability": "view",
					"type": "function"
				},
				{
					"inputs": [],
					"name": "renounceOwnership",
					"outputs": [],
					"stateMutability": "nonpayable",
					"type": "function"
				},
				{
					"inputs": [
						{
							"internalType": "address",
							"name": "newOwner",
							"type": "address"
						}
					],
					"name": "transferOwnership",
					"outputs": [],
					"stateMutability": "nonpayable",
					"type": "function"
				},
				{
					"inputs": [
						{
							"internalType": "address",
							"name": "_propietario",
							"type": "address"
						}
					],
					"name": "verCochePropietario",
					"outputs": [
						{
							"internalType": "uint256[]",
							"name": "",
							"type": "uint256[]"
						}
					],
					"stateMutability": "nonpayable",
					"type": "function"
				}
			],
			"devdoc": {
				"kind": "dev",
				"methods": {
					"owner()": {
						"details": "Returns the address of the current owner."
					},
					"renounceOwnership()": {
						"details": "Leaves the contract without owner. It will not be possible to call `onlyOwner` functions anymore. Can only be called by the current owner. NOTE: Renouncing ownership will leave the contract without an owner, thereby removing any functionality that is only available to the owner."
					},
					"transferOwnership(address)": {
						"details": "Transfers ownership of the contract to a new account (`newOwner`). Can only be called by the current owner."
					}
				},
				"version": 1
			},
			"evm": {
				"assembly": "    /* \"contracts/CarreraCoches/principal.sol\":54:4291  contract CarreraCoches is Ownable {\r... */\n  mstore(0x40, 0x80)\n    /* \"contracts/CarreraCoches/principal.sol\":370:371  0 */\n  0x00\n    /* \"contracts/CarreraCoches/principal.sol\":353:371  uint randNonce = 0 */\n  0x01\n  sstore\n    /* \"contracts/CarreraCoches/principal.sol\":494:495  0 */\n  0x00\n    /* \"contracts/CarreraCoches/principal.sol\":478:495  uint contador = 0 */\n  0x02\n  sstore\n    /* \"contracts/CarreraCoches/principal.sol\":518:528  60 seconds */\n  0x3c\n    /* \"contracts/CarreraCoches/principal.sol\":502:528  uint cooldown = 60 seconds */\n  0x03\n  sstore\n    /* \"contracts/CarreraCoches/principal.sol\":54:4291  contract CarreraCoches is Ownable {\r... */\n  callvalue\n  dup1\n  iszero\n  tag_1\n  jumpi\n  0x00\n  dup1\n  revert\ntag_1:\n  pop\n    /* \"contracts/CarreraCoches/ownable.sol\":948:980  _transferOwnership(_msgSender()) */\n  tag_4\n    /* \"contracts/CarreraCoches/ownable.sol\":967:979  _msgSender() */\n  tag_5\n    /* \"contracts/CarreraCoches/ownable.sol\":967:977  _msgSender */\n  shl(0x20, tag_6)\n    /* \"contracts/CarreraCoches/ownable.sol\":967:979  _msgSender() */\n  0x20\n  shr\n  jump\t// in\ntag_5:\n    /* \"contracts/CarreraCoches/ownable.sol\":948:966  _transferOwnership */\n  shl(0x20, tag_7)\n    /* \"contracts/CarreraCoches/ownable.sol\":948:980  _transferOwnership(_msgSender()) */\n  0x20\n  shr\n  jump\t// in\ntag_4:\n    /* \"contracts/CarreraCoches/principal.sol\":54:4291  contract CarreraCoches is Ownable {\r... */\n  jump(tag_8)\n    /* \"contracts/CarreraCoches/utils/Context.sol\":656:754  function _msgSender() internal view virtual returns (address) {\r... */\ntag_6:\n    /* \"contracts/CarreraCoches/utils/Context.sol\":709:716  address */\n  0x00\n    /* \"contracts/CarreraCoches/utils/Context.sol\":736:746  msg.sender */\n  caller\n    /* \"contracts/CarreraCoches/utils/Context.sol\":729:746  return msg.sender */\n  swap1\n  pop\n    /* \"contracts/CarreraCoches/utils/Context.sol\":656:754  function _msgSender() internal view virtual returns (address) {\r... */\n  swap1\n  jump\t// out\n    /* \"contracts/CarreraCoches/ownable.sol\":2339:2530  function _transferOwnership(address newOwner) internal virtual {\r... */\ntag_7:\n    /* \"contracts/CarreraCoches/ownable.sol\":2413:2429  address oldOwner */\n  0x00\n    /* \"contracts/CarreraCoches/ownable.sol\":2432:2438  _owner */\n  dup1\n  0x00\n  swap1\n  sload\n  swap1\n  0x0100\n  exp\n  swap1\n  div\n  0xffffffffffffffffffffffffffffffffffffffff\n  and\n    /* \"contracts/CarreraCoches/ownable.sol\":2413:2438  address oldOwner = _owner */\n  swap1\n  pop\n    /* \"contracts/CarreraCoches/ownable.sol\":2458:2466  newOwner */\n  dup2\n    /* \"contracts/CarreraCoches/ownable.sol\":2449:2455  _owner */\n  0x00\n  dup1\n    /* \"contracts/CarreraCoches/ownable.sol\":2449:2466  _owner = newOwner */\n  0x0100\n  exp\n  dup2\n  sload\n  dup2\n  0xffffffffffffffffffffffffffffffffffffffff\n  mul\n  not\n  and\n  swap1\n  dup4\n  0xffffffffffffffffffffffffffffffffffffffff\n  and\n  mul\n  or\n  swap1\n  sstore\n  pop\n    /* \"contracts/CarreraCoches/ownable.sol\":2513:2521  newOwner */\n  dup2\n    /* \"contracts/CarreraCoches/ownable.sol\":2482:2522  OwnershipTransferred(oldOwner, newOwner) */\n  0xffffffffffffffffffffffffffffffffffffffff\n  and\n    /* \"contracts/CarreraCoches/ownable.sol\":2503:2511  oldOwner */\n  dup2\n    /* \"contracts/CarreraCoches/ownable.sol\":2482:2522  OwnershipTransferred(oldOwner, newOwner) */\n  0xffffffffffffffffffffffffffffffffffffffff\n  and\n  0x8be0079c531659141344cd1fd0a4f28419497f9722a3daafe3b4186f6b6457e0\n  mload(0x40)\n  mload(0x40)\n  dup1\n  swap2\n  sub\n  swap1\n  log3\n    /* \"contracts/CarreraCoches/ownable.sol\":2402:2530  {\r... */\n  pop\n    /* \"contracts/CarreraCoches/ownable.sol\":2339:2530  function _transferOwnership(address newOwner) internal virtual {\r... */\n  pop\n  jump\t// out\n    /* \"contracts/CarreraCoches/principal.sol\":54:4291  contract CarreraCoches is Ownable {\r... */\ntag_8:\n  dataSize(sub_0)\n  dup1\n  dataOffset(sub_0)\n  0x00\n  codecopy\n  0x00\n  return\nstop\n\nsub_0: assembly {\n        /* \"contracts/CarreraCoches/principal.sol\":54:4291  contract CarreraCoches is Ownable {\r... */\n      mstore(0x40, 0x80)\n      jumpi(tag_1, lt(calldatasize, 0x04))\n      shr(0xe0, calldataload(0x00))\n      dup1\n      0x8da5cb5b\n      gt\n      tag_12\n      jumpi\n      dup1\n      0x8da5cb5b\n      eq\n      tag_7\n      jumpi\n      dup1\n      0xd735573d\n      eq\n      tag_8\n      jumpi\n      dup1\n      0xe172fca8\n      eq\n      tag_9\n      jumpi\n      dup1\n      0xf1413763\n      eq\n      tag_10\n      jumpi\n      dup1\n      0xf2fde38b\n      eq\n      tag_11\n      jumpi\n      jump(tag_1)\n    tag_12:\n      dup1\n      0x1c6743e4\n      eq\n      tag_2\n      jumpi\n      dup1\n      0x2458c544\n      eq\n      tag_3\n      jumpi\n      dup1\n      0x6b6f0494\n      eq\n      tag_4\n      jumpi\n      dup1\n      0x715018a6\n      eq\n      tag_5\n      jumpi\n      dup1\n      0x858b0554\n      eq\n      tag_6\n      jumpi\n    tag_1:\n      0x00\n      dup1\n      revert\n        /* \"contracts/CarreraCoches/principal.sol\":816:868  mapping (address => uint) public numeroCochesPersona */\n    tag_2:\n      callvalue\n      dup1\n      iszero\n      tag_13\n      jumpi\n      0x00\n      dup1\n      revert\n    tag_13:\n      pop\n      tag_14\n      0x04\n      dup1\n      calldatasize\n      sub\n      dup2\n      add\n      swap1\n      tag_15\n      swap2\n      swap1\n      tag_16\n      jump\t// in\n    tag_15:\n      tag_17\n      jump\t// in\n    tag_14:\n      mload(0x40)\n      tag_18\n      swap2\n      swap1\n      tag_19\n      jump\t// in\n    tag_18:\n      mload(0x40)\n      dup1\n      swap2\n      sub\n      swap1\n      return\n        /* \"contracts/CarreraCoches/principal.sol\":1111:1551  function anadirCoche(string memory _modelo, string memory _marca, string memory _nombrePiloto) public restriccion returns (uint) {\r... */\n    tag_3:\n      callvalue\n      dup1\n      iszero\n      tag_20\n      jumpi\n      0x00\n      dup1\n      revert\n    tag_20:\n      pop\n      tag_21\n      0x04\n      dup1\n      calldatasize\n      sub\n      dup2\n      add\n      swap1\n      tag_22\n      swap2\n      swap1\n      tag_23\n      jump\t// in\n    tag_22:\n      tag_24\n      jump\t// in\n    tag_21:\n      mload(0x40)\n      tag_25\n      swap2\n      swap1\n      tag_19\n      jump\t// in\n    tag_25:\n      mload(0x40)\n      dup1\n      swap2\n      sub\n      swap1\n      return\n        /* \"contracts/CarreraCoches/principal.sol\":2876:4052  function Apostar(uint dineroApostar) public payable returns(string memory) {\r... */\n    tag_4:\n      tag_26\n      0x04\n      dup1\n      calldatasize\n      sub\n      dup2\n      add\n      swap1\n      tag_27\n      swap2\n      swap1\n      tag_28\n      jump\t// in\n    tag_27:\n      tag_29\n      jump\t// in\n    tag_26:\n      mload(0x40)\n      tag_30\n      swap2\n      swap1\n      tag_31\n      jump\t// in\n    tag_30:\n      mload(0x40)\n      dup1\n      swap2\n      sub\n      swap1\n      return\n        /* \"contracts/CarreraCoches/ownable.sol\":1720:1823  function renounceOwnership() public virtual onlyOwner {\r... */\n    tag_5:\n      callvalue\n      dup1\n      iszero\n      tag_32\n      jumpi\n      0x00\n      dup1\n      revert\n    tag_32:\n      pop\n      tag_33\n      tag_34\n      jump\t// in\n    tag_33:\n      stop\n        /* \"contracts/CarreraCoches/principal.sol\":758:809  mapping (uint => address) public cocheDePropietario */\n    tag_6:\n      callvalue\n      dup1\n      iszero\n      tag_35\n      jumpi\n      0x00\n      dup1\n      revert\n    tag_35:\n      pop\n      tag_36\n      0x04\n      dup1\n      calldatasize\n      sub\n      dup2\n      add\n      swap1\n      tag_37\n      swap2\n      swap1\n      tag_28\n      jump\t// in\n    tag_37:\n      tag_38\n      jump\t// in\n    tag_36:\n      mload(0x40)\n      tag_39\n      swap2\n      swap1\n      tag_40\n      jump\t// in\n    tag_39:\n      mload(0x40)\n      dup1\n      swap2\n      sub\n      swap1\n      return\n        /* \"contracts/CarreraCoches/ownable.sol\":1069:1156  function owner() public view virtual returns (address) {\r... */\n    tag_7:\n      callvalue\n      dup1\n      iszero\n      tag_41\n      jumpi\n      0x00\n      dup1\n      revert\n    tag_41:\n      pop\n      tag_42\n      tag_43\n      jump\t// in\n    tag_42:\n      mload(0x40)\n      tag_44\n      swap2\n      swap1\n      tag_40\n      jump\t// in\n    tag_44:\n      mload(0x40)\n      dup1\n      swap2\n      sub\n      swap1\n      return\n        /* \"contracts/CarreraCoches/principal.sol\":537:563  Coche[] public listaCoches */\n    tag_8:\n      callvalue\n      dup1\n      iszero\n      tag_45\n      jumpi\n      0x00\n      dup1\n      revert\n    tag_45:\n      pop\n      tag_46\n      0x04\n      dup1\n      calldatasize\n      sub\n      dup2\n      add\n      swap1\n      tag_47\n      swap2\n      swap1\n      tag_28\n      jump\t// in\n    tag_47:\n      tag_48\n      jump\t// in\n    tag_46:\n      mload(0x40)\n      tag_49\n      swap9\n      swap8\n      swap7\n      swap6\n      swap5\n      swap4\n      swap3\n      swap2\n      swap1\n      tag_50\n      jump\t// in\n    tag_49:\n      mload(0x40)\n      dup1\n      swap2\n      sub\n      swap1\n      return\n        /* \"contracts/CarreraCoches/principal.sol\":2108:2539  function verCochePropietario(address _propietario) external returns(uint[] memory){\r... */\n    tag_9:\n      callvalue\n      dup1\n      iszero\n      tag_51\n      jumpi\n      0x00\n      dup1\n      revert\n    tag_51:\n      pop\n      tag_52\n      0x04\n      dup1\n      calldatasize\n      sub\n      dup2\n      add\n      swap1\n      tag_53\n      swap2\n      swap1\n      tag_16\n      jump\t// in\n    tag_53:\n      tag_54\n      jump\t// in\n    tag_52:\n      mload(0x40)\n      tag_55\n      swap2\n      swap1\n      tag_56\n      jump\t// in\n    tag_55:\n      mload(0x40)\n      dup1\n      swap2\n      sub\n      swap1\n      return\n        /* \"contracts/CarreraCoches/principal.sol\":1881:2100  function numeroAleatorio() public returns (uint256) {\r... */\n    tag_10:\n      callvalue\n      dup1\n      iszero\n      tag_57\n      jumpi\n      0x00\n      dup1\n      revert\n    tag_57:\n      pop\n      tag_58\n      tag_59\n      jump\t// in\n    tag_58:\n      mload(0x40)\n      tag_60\n      swap2\n      swap1\n      tag_19\n      jump\t// in\n    tag_60:\n      mload(0x40)\n      dup1\n      swap2\n      sub\n      swap1\n      return\n        /* \"contracts/CarreraCoches/ownable.sol\":1978:2179  function transferOwnership(address newOwner) public virtual onlyOwner {\r... */\n    tag_11:\n      callvalue\n      dup1\n      iszero\n      tag_61\n      jumpi\n      0x00\n      dup1\n      revert\n    tag_61:\n      pop\n      tag_62\n      0x04\n      dup1\n      calldatasize\n      sub\n      dup2\n      add\n      swap1\n      tag_63\n      swap2\n      swap1\n      tag_16\n      jump\t// in\n    tag_63:\n      tag_64\n      jump\t// in\n    tag_62:\n      stop\n        /* \"contracts/CarreraCoches/principal.sol\":816:868  mapping (address => uint) public numeroCochesPersona */\n    tag_17:\n      mstore(0x20, 0x06)\n      dup1\n      0x00\n      mstore\n      keccak256(0x00, 0x40)\n      0x00\n      swap2\n      pop\n      swap1\n      pop\n      sload\n      dup2\n      jump\t// out\n        /* \"contracts/CarreraCoches/principal.sol\":1111:1551  function anadirCoche(string memory _modelo, string memory _marca, string memory _nombrePiloto) public restriccion returns (uint) {\r... */\n    tag_24:\n        /* \"contracts/CarreraCoches/principal.sol\":1234:1238  uint */\n      0x00\n        /* \"contracts/CarreraCoches/principal.sol\":1000:1001  1 */\n      0x01\n        /* \"contracts/CarreraCoches/principal.sol\":966:985  numeroCochesPersona */\n      0x06\n        /* \"contracts/CarreraCoches/principal.sol\":966:997  numeroCochesPersona[msg.sender] */\n      0x00\n        /* \"contracts/CarreraCoches/principal.sol\":986:996  msg.sender */\n      caller\n        /* \"contracts/CarreraCoches/principal.sol\":966:997  numeroCochesPersona[msg.sender] */\n      0xffffffffffffffffffffffffffffffffffffffff\n      and\n      0xffffffffffffffffffffffffffffffffffffffff\n      and\n      dup2\n      mstore\n      0x20\n      add\n      swap1\n      dup2\n      mstore\n      0x20\n      add\n      0x00\n      keccak256\n      sload\n        /* \"contracts/CarreraCoches/principal.sol\":966:1001  numeroCochesPersona[msg.sender] < 1 */\n      lt\n        /* \"contracts/CarreraCoches/principal.sol\":958:1046  require(numeroCochesPersona[msg.sender] < 1, \"Solo se puede tener un coche por persona\") */\n      tag_66\n      jumpi\n      mload(0x40)\n      0x08c379a000000000000000000000000000000000000000000000000000000000\n      dup2\n      mstore\n      0x04\n      add\n      tag_67\n      swap1\n      tag_68\n      jump\t// in\n    tag_67:\n      mload(0x40)\n      dup1\n      swap2\n      sub\n      swap1\n      revert\n    tag_66:\n        /* \"contracts/CarreraCoches/principal.sol\":1251:1262  listaCoches */\n      0x04\n        /* \"contracts/CarreraCoches/principal.sol\":1268:1362  Coche(msg.sender, _modelo, _marca, _nombrePiloto, 0, 0, uint32(block.timestamp + cooldown), 0) */\n      mload(0x40)\n      dup1\n      0x0100\n      add\n      0x40\n      mstore\n      dup1\n        /* \"contracts/CarreraCoches/principal.sol\":1274:1284  msg.sender */\n      caller\n        /* \"contracts/CarreraCoches/principal.sol\":1268:1362  Coche(msg.sender, _modelo, _marca, _nombrePiloto, 0, 0, uint32(block.timestamp + cooldown), 0) */\n      0xffffffffffffffffffffffffffffffffffffffff\n      and\n      dup2\n      mstore\n      0x20\n      add\n        /* \"contracts/CarreraCoches/principal.sol\":1286:1293  _modelo */\n      dup7\n        /* \"contracts/CarreraCoches/principal.sol\":1268:1362  Coche(msg.sender, _modelo, _marca, _nombrePiloto, 0, 0, uint32(block.timestamp + cooldown), 0) */\n      dup2\n      mstore\n      0x20\n      add\n        /* \"contracts/CarreraCoches/principal.sol\":1295:1301  _marca */\n      dup6\n        /* \"contracts/CarreraCoches/principal.sol\":1268:1362  Coche(msg.sender, _modelo, _marca, _nombrePiloto, 0, 0, uint32(block.timestamp + cooldown), 0) */\n      dup2\n      mstore\n      0x20\n      add\n        /* \"contracts/CarreraCoches/principal.sol\":1303:1316  _nombrePiloto */\n      dup5\n        /* \"contracts/CarreraCoches/principal.sol\":1268:1362  Coche(msg.sender, _modelo, _marca, _nombrePiloto, 0, 0, uint32(block.timestamp + cooldown), 0) */\n      dup2\n      mstore\n      0x20\n      add\n        /* \"contracts/CarreraCoches/principal.sol\":1318:1319  0 */\n      0x00\n        /* \"contracts/CarreraCoches/principal.sol\":1268:1362  Coche(msg.sender, _modelo, _marca, _nombrePiloto, 0, 0, uint32(block.timestamp + cooldown), 0) */\n      dup2\n      mstore\n      0x20\n      add\n        /* \"contracts/CarreraCoches/principal.sol\":1321:1322  0 */\n      0x00\n        /* \"contracts/CarreraCoches/principal.sol\":1268:1362  Coche(msg.sender, _modelo, _marca, _nombrePiloto, 0, 0, uint32(block.timestamp + cooldown), 0) */\n      dup2\n      mstore\n      0x20\n      add\n        /* \"contracts/CarreraCoches/principal.sol\":1349:1357  cooldown */\n      sload(0x03)\n        /* \"contracts/CarreraCoches/principal.sol\":1331:1346  block.timestamp */\n      timestamp\n        /* \"contracts/CarreraCoches/principal.sol\":1331:1357  block.timestamp + cooldown */\n      tag_70\n      swap2\n      swap1\n      tag_71\n      jump\t// in\n    tag_70:\n        /* \"contracts/CarreraCoches/principal.sol\":1268:1362  Coche(msg.sender, _modelo, _marca, _nombrePiloto, 0, 0, uint32(block.timestamp + cooldown), 0) */\n      0xffffffff\n      and\n      dup2\n      mstore\n      0x20\n      add\n        /* \"contracts/CarreraCoches/principal.sol\":1360:1361  0 */\n      0x00\n        /* \"contracts/CarreraCoches/principal.sol\":1268:1362  Coche(msg.sender, _modelo, _marca, _nombrePiloto, 0, 0, uint32(block.timestamp + cooldown), 0) */\n      0xffffffff\n      and\n      dup2\n      mstore\n      pop\n        /* \"contracts/CarreraCoches/principal.sol\":1251:1363  listaCoches.push(Coche(msg.sender, _modelo, _marca, _nombrePiloto, 0, 0, uint32(block.timestamp + cooldown), 0)) */\n      swap1\n      dup1\n      0x01\n      dup2\n      sload\n      add\n      dup1\n      dup3\n      sstore\n      dup1\n      swap2\n      pop\n      pop\n      0x01\n      swap1\n      sub\n      swap1\n      0x00\n      mstore\n      keccak256(0x00, 0x20)\n      swap1\n      0x08\n      mul\n      add\n      0x00\n      swap1\n      swap2\n      swap1\n      swap2\n      swap1\n      swap2\n      pop\n      0x00\n      dup3\n      add\n      mload\n      dup2\n      0x00\n      add\n      exp(0x0100, 0x00)\n      dup2\n      sload\n      dup2\n      0xffffffffffffffffffffffffffffffffffffffff\n      mul\n      not\n      and\n      swap1\n      dup4\n      0xffffffffffffffffffffffffffffffffffffffff\n      and\n      mul\n      or\n      swap1\n      sstore\n      pop\n      0x20\n      dup3\n      add\n      mload\n      dup2\n      0x01\n      add\n      swap1\n      dup1\n      mload\n      swap1\n      0x20\n      add\n      swap1\n      tag_73\n      swap3\n      swap2\n      swap1\n      tag_74\n      jump\t// in\n    tag_73:\n      pop\n      0x40\n      dup3\n      add\n      mload\n      dup2\n      0x02\n      add\n      swap1\n      dup1\n      mload\n      swap1\n      0x20\n      add\n      swap1\n      tag_75\n      swap3\n      swap2\n      swap1\n      tag_74\n      jump\t// in\n    tag_75:\n      pop\n      0x60\n      dup3\n      add\n      mload\n      dup2\n      0x03\n      add\n      swap1\n      dup1\n      mload\n      swap1\n      0x20\n      add\n      swap1\n      tag_76\n      swap3\n      swap2\n      swap1\n      tag_74\n      jump\t// in\n    tag_76:\n      pop\n      0x80\n      dup3\n      add\n      mload\n      dup2\n      0x04\n      add\n      sstore\n      0xa0\n      dup3\n      add\n      mload\n      dup2\n      0x05\n      add\n      sstore\n      0xc0\n      dup3\n      add\n      mload\n      dup2\n      0x06\n      add\n      sstore\n      0xe0\n      dup3\n      add\n      mload\n      dup2\n      0x07\n      add\n      exp(0x0100, 0x00)\n      dup2\n      sload\n      dup2\n      0xffffffff\n      mul\n      not\n      and\n      swap1\n      dup4\n      0xffffffff\n      and\n      mul\n      or\n      swap1\n      sstore\n      pop\n      pop\n      pop\n        /* \"contracts/CarreraCoches/principal.sol\":1374:1381  uint id */\n      0x00\n        /* \"contracts/CarreraCoches/principal.sol\":1384:1395  listaCoches */\n      0x04\n        /* \"contracts/CarreraCoches/principal.sol\":1384:1402  listaCoches.length */\n      dup1\n      sload\n      swap1\n      pop\n        /* \"contracts/CarreraCoches/principal.sol\":1374:1402  uint id = listaCoches.length */\n      swap1\n      pop\n        /* \"contracts/CarreraCoches/principal.sol\":1438:1448  msg.sender */\n      caller\n        /* \"contracts/CarreraCoches/principal.sol\":1413:1431  cocheDePropietario */\n      0x05\n        /* \"contracts/CarreraCoches/principal.sol\":1413:1435  cocheDePropietario[id] */\n      0x00\n        /* \"contracts/CarreraCoches/principal.sol\":1432:1434  id */\n      dup4\n        /* \"contracts/CarreraCoches/principal.sol\":1413:1435  cocheDePropietario[id] */\n      dup2\n      mstore\n      0x20\n      add\n      swap1\n      dup2\n      mstore\n      0x20\n      add\n      0x00\n      keccak256\n      0x00\n        /* \"contracts/CarreraCoches/principal.sol\":1413:1448  cocheDePropietario[id] = msg.sender */\n      0x0100\n      exp\n      dup2\n      sload\n      dup2\n      0xffffffffffffffffffffffffffffffffffffffff\n      mul\n      not\n      and\n      swap1\n      dup4\n      0xffffffffffffffffffffffffffffffffffffffff\n      and\n      mul\n      or\n      swap1\n      sstore\n      pop\n        /* \"contracts/CarreraCoches/principal.sol\":1459:1478  numeroCochesPersona */\n      0x06\n        /* \"contracts/CarreraCoches/principal.sol\":1459:1490  numeroCochesPersona[msg.sender] */\n      0x00\n        /* \"contracts/CarreraCoches/principal.sol\":1479:1489  msg.sender */\n      caller\n        /* \"contracts/CarreraCoches/principal.sol\":1459:1490  numeroCochesPersona[msg.sender] */\n      0xffffffffffffffffffffffffffffffffffffffff\n      and\n      0xffffffffffffffffffffffffffffffffffffffff\n      and\n      dup2\n      mstore\n      0x20\n      add\n      swap1\n      dup2\n      mstore\n      0x20\n      add\n      0x00\n      keccak256\n      0x00\n        /* \"contracts/CarreraCoches/principal.sol\":1459:1492  numeroCochesPersona[msg.sender]++ */\n      dup2\n      sload\n      dup1\n      swap3\n      swap2\n      swap1\n      tag_77\n      swap1\n      tag_78\n      jump\t// in\n    tag_77:\n      swap2\n      swap1\n      pop\n      sstore\n      pop\n        /* \"contracts/CarreraCoches/principal.sol\":1503:1511  contador */\n      0x02\n      0x00\n        /* \"contracts/CarreraCoches/principal.sol\":1503:1513  contador++ */\n      dup2\n      sload\n      dup1\n      swap3\n      swap2\n      swap1\n      tag_79\n      swap1\n      tag_78\n      jump\t// in\n    tag_79:\n      swap2\n      swap1\n      pop\n      sstore\n      pop\n        /* \"contracts/CarreraCoches/principal.sol\":1542:1543  1 */\n      0x01\n        /* \"contracts/CarreraCoches/principal.sol\":1531:1539  contador */\n      sload(0x02)\n        /* \"contracts/CarreraCoches/principal.sol\":1531:1543  contador - 1 */\n      tag_80\n      swap2\n      swap1\n      tag_81\n      jump\t// in\n    tag_80:\n        /* \"contracts/CarreraCoches/principal.sol\":1524:1543  return contador - 1 */\n      swap2\n      pop\n      pop\n        /* \"contracts/CarreraCoches/principal.sol\":1111:1551  function anadirCoche(string memory _modelo, string memory _marca, string memory _nombrePiloto) public restriccion returns (uint) {\r... */\n      swap4\n      swap3\n      pop\n      pop\n      pop\n      jump\t// out\n        /* \"contracts/CarreraCoches/principal.sol\":2876:4052  function Apostar(uint dineroApostar) public payable returns(string memory) {\r... */\n    tag_29:\n        /* \"contracts/CarreraCoches/principal.sol\":2936:2949  string memory */\n      0x60\n        /* \"contracts/CarreraCoches/principal.sol\":2982:2995  dineroApostar */\n      dup2\n        /* \"contracts/CarreraCoches/principal.sol\":2969:2978  msg.value */\n      callvalue\n        /* \"contracts/CarreraCoches/principal.sol\":2969:2995  msg.value == dineroApostar */\n      eq\n        /* \"contracts/CarreraCoches/principal.sol\":2961:2996  require(msg.value == dineroApostar) */\n      tag_83\n      jumpi\n      0x00\n      dup1\n      revert\n    tag_83:\n        /* \"contracts/CarreraCoches/principal.sol\":3017:3026  randNonce */\n      0x01\n      0x00\n        /* \"contracts/CarreraCoches/principal.sol\":3017:3028  randNonce++ */\n      dup2\n      sload\n      dup1\n      swap3\n      swap2\n      swap1\n      tag_84\n      swap1\n      tag_78\n      jump\t// in\n    tag_84:\n      swap2\n      swap1\n      pop\n      sstore\n      pop\n        /* \"contracts/CarreraCoches/principal.sol\":3075:3088  uint256 rival */\n      0x00\n        /* \"contracts/CarreraCoches/principal.sol\":3178:3189  listaCoches */\n      0x04\n        /* \"contracts/CarreraCoches/principal.sol\":3178:3196  listaCoches.length */\n      dup1\n      sload\n      swap1\n      pop\n        /* \"contracts/CarreraCoches/principal.sol\":3126:3141  block.timestamp */\n      timestamp\n        /* \"contracts/CarreraCoches/principal.sol\":3143:3154  listaCoches */\n      0x04\n        /* \"contracts/CarreraCoches/principal.sol\":3143:3161  listaCoches.length */\n      dup1\n      sload\n      swap1\n      pop\n        /* \"contracts/CarreraCoches/principal.sol\":3163:3172  randNonce */\n      sload(0x01)\n        /* \"contracts/CarreraCoches/principal.sol\":3109:3173  abi.encodePacked(block.timestamp, listaCoches.length, randNonce) */\n      add(0x20, mload(0x40))\n      tag_85\n      swap4\n      swap3\n      swap2\n      swap1\n      tag_86\n      jump\t// in\n    tag_85:\n      mload(0x40)\n      0x20\n      dup2\n      dup4\n      sub\n      sub\n      dup2\n      mstore\n      swap1\n      0x40\n      mstore\n        /* \"contracts/CarreraCoches/principal.sol\":3099:3174  keccak256(abi.encodePacked(block.timestamp, listaCoches.length, randNonce)) */\n      dup1\n      mload\n      swap1\n      0x20\n      add\n      keccak256\n        /* \"contracts/CarreraCoches/principal.sol\":3091:3175  uint256(keccak256(abi.encodePacked(block.timestamp, listaCoches.length, randNonce))) */\n      0x00\n      shr\n        /* \"contracts/CarreraCoches/principal.sol\":3091:3196  uint256(keccak256(abi.encodePacked(block.timestamp, listaCoches.length, randNonce))) % listaCoches.length */\n      tag_87\n      swap2\n      swap1\n      tag_88\n      jump\t// in\n    tag_87:\n        /* \"contracts/CarreraCoches/principal.sol\":3075:3196  uint256 rival = uint256(keccak256(abi.encodePacked(block.timestamp, listaCoches.length, randNonce))) % listaCoches.length */\n      swap1\n      pop\n        /* \"contracts/CarreraCoches/principal.sol\":3239:3248  randNonce */\n      0x01\n      0x00\n        /* \"contracts/CarreraCoches/principal.sol\":3239:3250  randNonce++ */\n      dup2\n      sload\n      dup1\n      swap3\n      swap2\n      swap1\n      tag_89\n      swap1\n      tag_78\n      jump\t// in\n    tag_89:\n      swap2\n      swap1\n      pop\n      sstore\n      pop\n        /* \"contracts/CarreraCoches/principal.sol\":3261:3272  uint numero */\n      0x00\n        /* \"contracts/CarreraCoches/principal.sol\":3275:3276  2 */\n      0x02\n        /* \"contracts/CarreraCoches/principal.sol\":3261:3276  uint numero = 2 */\n      swap1\n      pop\n        /* \"contracts/CarreraCoches/principal.sol\":3287:3302  uint256 ganador */\n      0x00\n        /* \"contracts/CarreraCoches/principal.sol\":3380:3386  numero */\n      dup2\n        /* \"contracts/CarreraCoches/principal.sol\":3340:3355  block.timestamp */\n      timestamp\n        /* \"contracts/CarreraCoches/principal.sol\":3357:3363  numero */\n      dup4\n        /* \"contracts/CarreraCoches/principal.sol\":3365:3374  randNonce */\n      sload(0x01)\n        /* \"contracts/CarreraCoches/principal.sol\":3323:3375  abi.encodePacked(block.timestamp, numero, randNonce) */\n      add(0x20, mload(0x40))\n      tag_90\n      swap4\n      swap3\n      swap2\n      swap1\n      tag_86\n      jump\t// in\n    tag_90:\n      mload(0x40)\n      0x20\n      dup2\n      dup4\n      sub\n      sub\n      dup2\n      mstore\n      swap1\n      0x40\n      mstore\n        /* \"contracts/CarreraCoches/principal.sol\":3313:3376  keccak256(abi.encodePacked(block.timestamp, numero, randNonce)) */\n      dup1\n      mload\n      swap1\n      0x20\n      add\n      keccak256\n        /* \"contracts/CarreraCoches/principal.sol\":3305:3377  uint256(keccak256(abi.encodePacked(block.timestamp, numero, randNonce))) */\n      0x00\n      shr\n        /* \"contracts/CarreraCoches/principal.sol\":3305:3386  uint256(keccak256(abi.encodePacked(block.timestamp, numero, randNonce))) % numero */\n      tag_91\n      swap2\n      swap1\n      tag_88\n      jump\t// in\n    tag_91:\n        /* \"contracts/CarreraCoches/principal.sol\":3287:3386  uint256 ganador = uint256(keccak256(abi.encodePacked(block.timestamp, numero, randNonce))) % numero */\n      swap1\n      pop\n        /* \"contracts/CarreraCoches/principal.sol\":3403:3409  uint i */\n      0x00\n        /* \"contracts/CarreraCoches/principal.sol\":3399:4046  for(uint i = 0; i < listaCoches.length; i++){\r... */\n    tag_92:\n        /* \"contracts/CarreraCoches/principal.sol\":3419:3430  listaCoches */\n      0x04\n        /* \"contracts/CarreraCoches/principal.sol\":3419:3437  listaCoches.length */\n      dup1\n      sload\n      swap1\n      pop\n        /* \"contracts/CarreraCoches/principal.sol\":3415:3416  i */\n      dup2\n        /* \"contracts/CarreraCoches/principal.sol\":3415:3437  i < listaCoches.length */\n      lt\n        /* \"contracts/CarreraCoches/principal.sol\":3399:4046  for(uint i = 0; i < listaCoches.length; i++){\r... */\n      iszero\n      tag_93\n      jumpi\n        /* \"contracts/CarreraCoches/principal.sol\":3579:3590  listaCoches */\n      0x04\n        /* \"contracts/CarreraCoches/principal.sol\":3591:3592  i */\n      dup2\n        /* \"contracts/CarreraCoches/principal.sol\":3579:3593  listaCoches[i] */\n      dup2\n      sload\n      dup2\n      lt\n      tag_95\n      jumpi\n      tag_96\n      tag_97\n      jump\t// in\n    tag_96:\n    tag_95:\n      swap1\n      0x00\n      mstore\n      keccak256(0x00, 0x20)\n      swap1\n      0x08\n      mul\n      add\n        /* \"contracts/CarreraCoches/principal.sol\":3579:3602  listaCoches[i].idPiloto */\n      0x00\n      add\n      0x00\n      swap1\n      sload\n      swap1\n      0x0100\n      exp\n      swap1\n      div\n      0xffffffffffffffffffffffffffffffffffffffff\n      and\n        /* \"contracts/CarreraCoches/principal.sol\":3565:3602  msg.sender == listaCoches[i].idPiloto */\n      0xffffffffffffffffffffffffffffffffffffffff\n      and\n        /* \"contracts/CarreraCoches/principal.sol\":3565:3575  msg.sender */\n      caller\n        /* \"contracts/CarreraCoches/principal.sol\":3565:3602  msg.sender == listaCoches[i].idPiloto */\n      0xffffffffffffffffffffffffffffffffffffffff\n      and\n      eq\n        /* \"contracts/CarreraCoches/principal.sol\":3561:4035  if (msg.sender == listaCoches[i].idPiloto) {\r... */\n      iszero\n      tag_99\n      jumpi\n        /* \"contracts/CarreraCoches/principal.sol\":3637:3638  0 */\n      0x00\n        /* \"contracts/CarreraCoches/principal.sol\":3626:3633  ganador */\n      dup3\n        /* \"contracts/CarreraCoches/principal.sol\":3626:3638  ganador == 0 */\n      eq\n        /* \"contracts/CarreraCoches/principal.sol\":3623:3931  if(ganador == 0){\r... */\n      iszero\n      tag_100\n      jumpi\n        /* \"contracts/CarreraCoches/principal.sol\":3662:3671  balance() */\n      tag_101\n        /* \"contracts/CarreraCoches/principal.sol\":3662:3669  balance */\n      tag_102\n        /* \"contracts/CarreraCoches/principal.sol\":3662:3671  balance() */\n      jump\t// in\n    tag_101:\n        /* \"contracts/CarreraCoches/principal.sol\":3694:3713  return \"Has ganado\" */\n      mload(0x40)\n      dup1\n      0x40\n      add\n      0x40\n      mstore\n      dup1\n      0x0a\n      dup2\n      mstore\n      0x20\n      add\n      0x4861732067616e61646f00000000000000000000000000000000000000000000\n      dup2\n      mstore\n      pop\n      swap5\n      pop\n      pop\n      pop\n      pop\n      pop\n      jump(tag_82)\n        /* \"contracts/CarreraCoches/principal.sol\":3623:3931  if(ganador == 0){\r... */\n    tag_100:\n        /* \"contracts/CarreraCoches/principal.sol\":3820:3868  mostrarResultado(\"El coche ganador es: \", rival) */\n      0xa28482eec3136a2461c6c30c08f71ba279c6c51a2d9c7bea4e50d6d2632f3896\n        /* \"contracts/CarreraCoches/principal.sol\":3862:3867  rival */\n      dup5\n        /* \"contracts/CarreraCoches/principal.sol\":3820:3868  mostrarResultado(\"El coche ganador es: \", rival) */\n      mload(0x40)\n      tag_108\n      swap2\n      swap1\n      tag_109\n      jump\t// in\n    tag_108:\n      mload(0x40)\n      dup1\n      swap2\n      sub\n      swap1\n      log1\n        /* \"contracts/CarreraCoches/principal.sol\":3891:3911  return \"Has perdido\" */\n      mload(0x40)\n      dup1\n      0x40\n      add\n      0x40\n      mstore\n      dup1\n      0x0b\n      dup2\n      mstore\n      0x20\n      add\n      0x486173207065726469646f000000000000000000000000000000000000000000\n      dup2\n      mstore\n      pop\n      swap5\n      pop\n      pop\n      pop\n      pop\n      pop\n      jump(tag_82)\n        /* \"contracts/CarreraCoches/principal.sol\":3561:4035  if (msg.sender == listaCoches[i].idPiloto) {\r... */\n    tag_99:\n        /* \"contracts/CarreraCoches/principal.sol\":3439:3442  i++ */\n      dup1\n      dup1\n      tag_119\n      swap1\n      tag_78\n      jump\t// in\n    tag_119:\n      swap2\n      pop\n      pop\n        /* \"contracts/CarreraCoches/principal.sol\":3399:4046  for(uint i = 0; i < listaCoches.length; i++){\r... */\n      jump(tag_92)\n    tag_93:\n      pop\n        /* \"contracts/CarreraCoches/principal.sol\":2951:4052  {\r... */\n      pop\n      pop\n      pop\n        /* \"contracts/CarreraCoches/principal.sol\":2876:4052  function Apostar(uint dineroApostar) public payable returns(string memory) {\r... */\n    tag_82:\n      swap2\n      swap1\n      pop\n      jump\t// out\n        /* \"contracts/CarreraCoches/ownable.sol\":1720:1823  function renounceOwnership() public virtual onlyOwner {\r... */\n    tag_34:\n        /* \"contracts/CarreraCoches/ownable.sol\":1300:1312  _msgSender() */\n      tag_121\n        /* \"contracts/CarreraCoches/ownable.sol\":1300:1310  _msgSender */\n      tag_122\n        /* \"contracts/CarreraCoches/ownable.sol\":1300:1312  _msgSender() */\n      jump\t// in\n    tag_121:\n        /* \"contracts/CarreraCoches/ownable.sol\":1289:1312  owner() == _msgSender() */\n      0xffffffffffffffffffffffffffffffffffffffff\n      and\n        /* \"contracts/CarreraCoches/ownable.sol\":1289:1296  owner() */\n      tag_123\n        /* \"contracts/CarreraCoches/ownable.sol\":1289:1294  owner */\n      tag_43\n        /* \"contracts/CarreraCoches/ownable.sol\":1289:1296  owner() */\n      jump\t// in\n    tag_123:\n        /* \"contracts/CarreraCoches/ownable.sol\":1289:1312  owner() == _msgSender() */\n      0xffffffffffffffffffffffffffffffffffffffff\n      and\n      eq\n        /* \"contracts/CarreraCoches/ownable.sol\":1281:1349  require(owner() == _msgSender(), \"Ownable: caller is not the owner\") */\n      tag_124\n      jumpi\n      mload(0x40)\n      0x08c379a000000000000000000000000000000000000000000000000000000000\n      dup2\n      mstore\n      0x04\n      add\n      tag_125\n      swap1\n      tag_126\n      jump\t// in\n    tag_125:\n      mload(0x40)\n      dup1\n      swap2\n      sub\n      swap1\n      revert\n    tag_124:\n        /* \"contracts/CarreraCoches/ownable.sol\":1785:1815  _transferOwnership(address(0)) */\n      tag_128\n        /* \"contracts/CarreraCoches/ownable.sol\":1812:1813  0 */\n      0x00\n        /* \"contracts/CarreraCoches/ownable.sol\":1785:1803  _transferOwnership */\n      tag_129\n        /* \"contracts/CarreraCoches/ownable.sol\":1785:1815  _transferOwnership(address(0)) */\n      jump\t// in\n    tag_128:\n        /* \"contracts/CarreraCoches/ownable.sol\":1720:1823  function renounceOwnership() public virtual onlyOwner {\r... */\n      jump\t// out\n        /* \"contracts/CarreraCoches/principal.sol\":758:809  mapping (uint => address) public cocheDePropietario */\n    tag_38:\n      mstore(0x20, 0x05)\n      dup1\n      0x00\n      mstore\n      keccak256(0x00, 0x40)\n      0x00\n      swap2\n      pop\n      sload\n      swap1\n      0x0100\n      exp\n      swap1\n      div\n      0xffffffffffffffffffffffffffffffffffffffff\n      and\n      dup2\n      jump\t// out\n        /* \"contracts/CarreraCoches/ownable.sol\":1069:1156  function owner() public view virtual returns (address) {\r... */\n    tag_43:\n        /* \"contracts/CarreraCoches/ownable.sol\":1115:1122  address */\n      0x00\n        /* \"contracts/CarreraCoches/ownable.sol\":1142:1148  _owner */\n      dup1\n      0x00\n      swap1\n      sload\n      swap1\n      0x0100\n      exp\n      swap1\n      div\n      0xffffffffffffffffffffffffffffffffffffffff\n      and\n        /* \"contracts/CarreraCoches/ownable.sol\":1135:1148  return _owner */\n      swap1\n      pop\n        /* \"contracts/CarreraCoches/ownable.sol\":1069:1156  function owner() public view virtual returns (address) {\r... */\n      swap1\n      jump\t// out\n        /* \"contracts/CarreraCoches/principal.sol\":537:563  Coche[] public listaCoches */\n    tag_48:\n      0x04\n      dup2\n      dup2\n      sload\n      dup2\n      lt\n      tag_131\n      jumpi\n      0x00\n      dup1\n      revert\n    tag_131:\n      swap1\n      0x00\n      mstore\n      keccak256(0x00, 0x20)\n      swap1\n      0x08\n      mul\n      add\n      0x00\n      swap2\n      pop\n      swap1\n      pop\n      dup1\n      0x00\n      add\n      0x00\n      swap1\n      sload\n      swap1\n      0x0100\n      exp\n      swap1\n      div\n      0xffffffffffffffffffffffffffffffffffffffff\n      and\n      swap1\n      dup1\n      0x01\n      add\n      dup1\n      sload\n      tag_133\n      swap1\n      tag_134\n      jump\t// in\n    tag_133:\n      dup1\n      0x1f\n      add\n      0x20\n      dup1\n      swap2\n      div\n      mul\n      0x20\n      add\n      mload(0x40)\n      swap1\n      dup2\n      add\n      0x40\n      mstore\n      dup1\n      swap3\n      swap2\n      swap1\n      dup2\n      dup2\n      mstore\n      0x20\n      add\n      dup3\n      dup1\n      sload\n      tag_135\n      swap1\n      tag_134\n      jump\t// in\n    tag_135:\n      dup1\n      iszero\n      tag_136\n      jumpi\n      dup1\n      0x1f\n      lt\n      tag_137\n      jumpi\n      0x0100\n      dup1\n      dup4\n      sload\n      div\n      mul\n      dup4\n      mstore\n      swap2\n      0x20\n      add\n      swap2\n      jump(tag_136)\n    tag_137:\n      dup3\n      add\n      swap2\n      swap1\n      0x00\n      mstore\n      keccak256(0x00, 0x20)\n      swap1\n    tag_138:\n      dup2\n      sload\n      dup2\n      mstore\n      swap1\n      0x01\n      add\n      swap1\n      0x20\n      add\n      dup1\n      dup4\n      gt\n      tag_138\n      jumpi\n      dup3\n      swap1\n      sub\n      0x1f\n      and\n      dup3\n      add\n      swap2\n    tag_136:\n      pop\n      pop\n      pop\n      pop\n      pop\n      swap1\n      dup1\n      0x02\n      add\n      dup1\n      sload\n      tag_139\n      swap1\n      tag_134\n      jump\t// in\n    tag_139:\n      dup1\n      0x1f\n      add\n      0x20\n      dup1\n      swap2\n      div\n      mul\n      0x20\n      add\n      mload(0x40)\n      swap1\n      dup2\n      add\n      0x40\n      mstore\n      dup1\n      swap3\n      swap2\n      swap1\n      dup2\n      dup2\n      mstore\n      0x20\n      add\n      dup3\n      dup1\n      sload\n      tag_140\n      swap1\n      tag_134\n      jump\t// in\n    tag_140:\n      dup1\n      iszero\n      tag_141\n      jumpi\n      dup1\n      0x1f\n      lt\n      tag_142\n      jumpi\n      0x0100\n      dup1\n      dup4\n      sload\n      div\n      mul\n      dup4\n      mstore\n      swap2\n      0x20\n      add\n      swap2\n      jump(tag_141)\n    tag_142:\n      dup3\n      add\n      swap2\n      swap1\n      0x00\n      mstore\n      keccak256(0x00, 0x20)\n      swap1\n    tag_143:\n      dup2\n      sload\n      dup2\n      mstore\n      swap1\n      0x01\n      add\n      swap1\n      0x20\n      add\n      dup1\n      dup4\n      gt\n      tag_143\n      jumpi\n      dup3\n      swap1\n      sub\n      0x1f\n      and\n      dup3\n      add\n      swap2\n    tag_141:\n      pop\n      pop\n      pop\n      pop\n      pop\n      swap1\n      dup1\n      0x03\n      add\n      dup1\n      sload\n      tag_144\n      swap1\n      tag_134\n      jump\t// in\n    tag_144:\n      dup1\n      0x1f\n      add\n      0x20\n      dup1\n      swap2\n      div\n      mul\n      0x20\n      add\n      mload(0x40)\n      swap1\n      dup2\n      add\n      0x40\n      mstore\n      dup1\n      swap3\n      swap2\n      swap1\n      dup2\n      dup2\n      mstore\n      0x20\n      add\n      dup3\n      dup1\n      sload\n      tag_145\n      swap1\n      tag_134\n      jump\t// in\n    tag_145:\n      dup1\n      iszero\n      tag_146\n      jumpi\n      dup1\n      0x1f\n      lt\n      tag_147\n      jumpi\n      0x0100\n      dup1\n      dup4\n      sload\n      div\n      mul\n      dup4\n      mstore\n      swap2\n      0x20\n      add\n      swap2\n      jump(tag_146)\n    tag_147:\n      dup3\n      add\n      swap2\n      swap1\n      0x00\n      mstore\n      keccak256(0x00, 0x20)\n      swap1\n    tag_148:\n      dup2\n      sload\n      dup2\n      mstore\n      swap1\n      0x01\n      add\n      swap1\n      0x20\n      add\n      dup1\n      dup4\n      gt\n      tag_148\n      jumpi\n      dup3\n      swap1\n      sub\n      0x1f\n      and\n      dup3\n      add\n      swap2\n    tag_146:\n      pop\n      pop\n      pop\n      pop\n      pop\n      swap1\n      dup1\n      0x04\n      add\n      sload\n      swap1\n      dup1\n      0x05\n      add\n      sload\n      swap1\n      dup1\n      0x06\n      add\n      sload\n      swap1\n      dup1\n      0x07\n      add\n      0x00\n      swap1\n      sload\n      swap1\n      0x0100\n      exp\n      swap1\n      div\n      0xffffffff\n      and\n      swap1\n      pop\n      dup9\n      jump\t// out\n        /* \"contracts/CarreraCoches/principal.sol\":2108:2539  function verCochePropietario(address _propietario) external returns(uint[] memory){\r... */\n    tag_54:\n        /* \"contracts/CarreraCoches/principal.sol\":2176:2189  uint[] memory */\n      0x60\n        /* \"contracts/CarreraCoches/principal.sol\":2201:2223  string[] memory result */\n      dup1\n        /* \"contracts/CarreraCoches/principal.sol\":2238:2244  uint i */\n      0x00\n        /* \"contracts/CarreraCoches/principal.sol\":2234:2532  for(uint i = 0; i < listaCoches.length; i++){\r... */\n    tag_150:\n        /* \"contracts/CarreraCoches/principal.sol\":2254:2265  listaCoches */\n      0x04\n        /* \"contracts/CarreraCoches/principal.sol\":2254:2272  listaCoches.length */\n      dup1\n      sload\n      swap1\n      pop\n        /* \"contracts/CarreraCoches/principal.sol\":2250:2251  i */\n      dup2\n        /* \"contracts/CarreraCoches/principal.sol\":2250:2272  i < listaCoches.length */\n      lt\n        /* \"contracts/CarreraCoches/principal.sol\":2234:2532  for(uint i = 0; i < listaCoches.length; i++){\r... */\n      iszero\n      tag_151\n      jumpi\n        /* \"contracts/CarreraCoches/principal.sol\":2319:2331  _propietario */\n      dup4\n        /* \"contracts/CarreraCoches/principal.sol\":2296:2331  cocheDePropietario[i]==_propietario */\n      0xffffffffffffffffffffffffffffffffffffffff\n      and\n        /* \"contracts/CarreraCoches/principal.sol\":2296:2314  cocheDePropietario */\n      0x05\n        /* \"contracts/CarreraCoches/principal.sol\":2296:2317  cocheDePropietario[i] */\n      0x00\n        /* \"contracts/CarreraCoches/principal.sol\":2315:2316  i */\n      dup4\n        /* \"contracts/CarreraCoches/principal.sol\":2296:2317  cocheDePropietario[i] */\n      dup2\n      mstore\n      0x20\n      add\n      swap1\n      dup2\n      mstore\n      0x20\n      add\n      0x00\n      keccak256\n      0x00\n      swap1\n      sload\n      swap1\n      0x0100\n      exp\n      swap1\n      div\n      0xffffffffffffffffffffffffffffffffffffffff\n      and\n        /* \"contracts/CarreraCoches/principal.sol\":2296:2331  cocheDePropietario[i]==_propietario */\n      0xffffffffffffffffffffffffffffffffffffffff\n      and\n      eq\n        /* \"contracts/CarreraCoches/principal.sol\":2293:2521  if(cocheDePropietario[i]==_propietario){\r... */\n      iszero\n      tag_153\n      jumpi\n        /* \"contracts/CarreraCoches/principal.sol\":2356:2417  cochePropietario(listaCoches[i].marca, listaCoches[i].modelo) */\n      0x96408510f58a52b0cfe536e046b25664fa36d8122620ec608c1767b45aa4f03c\n        /* \"contracts/CarreraCoches/principal.sol\":2373:2384  listaCoches */\n      0x04\n        /* \"contracts/CarreraCoches/principal.sol\":2385:2386  i */\n      dup3\n        /* \"contracts/CarreraCoches/principal.sol\":2373:2387  listaCoches[i] */\n      dup2\n      sload\n      dup2\n      lt\n      tag_154\n      jumpi\n      tag_155\n      tag_97\n      jump\t// in\n    tag_155:\n    tag_154:\n      swap1\n      0x00\n      mstore\n      keccak256(0x00, 0x20)\n      swap1\n      0x08\n      mul\n      add\n        /* \"contracts/CarreraCoches/principal.sol\":2373:2393  listaCoches[i].marca */\n      0x02\n      add\n        /* \"contracts/CarreraCoches/principal.sol\":2395:2406  listaCoches */\n      0x04\n        /* \"contracts/CarreraCoches/principal.sol\":2407:2408  i */\n      dup4\n        /* \"contracts/CarreraCoches/principal.sol\":2395:2409  listaCoches[i] */\n      dup2\n      sload\n      dup2\n      lt\n      tag_157\n      jumpi\n      tag_158\n      tag_97\n      jump\t// in\n    tag_158:\n    tag_157:\n      swap1\n      0x00\n      mstore\n      keccak256(0x00, 0x20)\n      swap1\n      0x08\n      mul\n      add\n        /* \"contracts/CarreraCoches/principal.sol\":2395:2416  listaCoches[i].modelo */\n      0x01\n      add\n        /* \"contracts/CarreraCoches/principal.sol\":2356:2417  cochePropietario(listaCoches[i].marca, listaCoches[i].modelo) */\n      mload(0x40)\n      tag_160\n      swap3\n      swap2\n      swap1\n      tag_161\n      jump\t// in\n    tag_160:\n      mload(0x40)\n      dup1\n      swap2\n      sub\n      swap1\n      log1\n        /* \"contracts/CarreraCoches/principal.sol\":2293:2521  if(cocheDePropietario[i]==_propietario){\r... */\n      jump(tag_162)\n    tag_153:\n        /* \"contracts/CarreraCoches/principal.sol\":2461:2505  confirmacionDepositoLleno(\"No tiene coches\") */\n      0x6158fc8f21c8cc73ddf920956cc75d0e8a48b4fc85817a0ba89eb3b6d2a75441\n      mload(0x40)\n      tag_163\n      swap1\n      tag_164\n      jump\t// in\n    tag_163:\n      mload(0x40)\n      dup1\n      swap2\n      sub\n      swap1\n      log1\n        /* \"contracts/CarreraCoches/principal.sol\":2293:2521  if(cocheDePropietario[i]==_propietario){\r... */\n    tag_162:\n        /* \"contracts/CarreraCoches/principal.sol\":2274:2277  i++ */\n      dup1\n      dup1\n      tag_165\n      swap1\n      tag_78\n      jump\t// in\n    tag_165:\n      swap2\n      pop\n      pop\n        /* \"contracts/CarreraCoches/principal.sol\":2234:2532  for(uint i = 0; i < listaCoches.length; i++){\r... */\n      jump(tag_150)\n    tag_151:\n      pop\n        /* \"contracts/CarreraCoches/principal.sol\":2190:2539  {\r... */\n      pop\n        /* \"contracts/CarreraCoches/principal.sol\":2108:2539  function verCochePropietario(address _propietario) external returns(uint[] memory){\r... */\n      swap2\n      swap1\n      pop\n      jump\t// out\n        /* \"contracts/CarreraCoches/principal.sol\":1881:2100  function numeroAleatorio() public returns (uint256) {\r... */\n    tag_59:\n        /* \"contracts/CarreraCoches/principal.sol\":1924:1931  uint256 */\n      0x00\n        /* \"contracts/CarreraCoches/principal.sol\":1944:1955  uint numero */\n      dup1\n        /* \"contracts/CarreraCoches/principal.sol\":1958:1959  2 */\n      0x02\n        /* \"contracts/CarreraCoches/principal.sol\":1944:1959  uint numero = 2 */\n      swap1\n      pop\n        /* \"contracts/CarreraCoches/principal.sol\":1970:1984  uint256 result */\n      0x00\n        /* \"contracts/CarreraCoches/principal.sol\":2062:2068  numero */\n      dup2\n        /* \"contracts/CarreraCoches/principal.sol\":2022:2037  block.timestamp */\n      timestamp\n        /* \"contracts/CarreraCoches/principal.sol\":2039:2045  numero */\n      dup4\n        /* \"contracts/CarreraCoches/principal.sol\":2047:2056  randNonce */\n      sload(0x01)\n        /* \"contracts/CarreraCoches/principal.sol\":2005:2057  abi.encodePacked(block.timestamp, numero, randNonce) */\n      add(0x20, mload(0x40))\n      tag_167\n      swap4\n      swap3\n      swap2\n      swap1\n      tag_86\n      jump\t// in\n    tag_167:\n      mload(0x40)\n      0x20\n      dup2\n      dup4\n      sub\n      sub\n      dup2\n      mstore\n      swap1\n      0x40\n      mstore\n        /* \"contracts/CarreraCoches/principal.sol\":1995:2058  keccak256(abi.encodePacked(block.timestamp, numero, randNonce)) */\n      dup1\n      mload\n      swap1\n      0x20\n      add\n      keccak256\n        /* \"contracts/CarreraCoches/principal.sol\":1987:2059  uint256(keccak256(abi.encodePacked(block.timestamp, numero, randNonce))) */\n      0x00\n      shr\n        /* \"contracts/CarreraCoches/principal.sol\":1987:2068  uint256(keccak256(abi.encodePacked(block.timestamp, numero, randNonce))) % numero */\n      tag_168\n      swap2\n      swap1\n      tag_88\n      jump\t// in\n    tag_168:\n        /* \"contracts/CarreraCoches/principal.sol\":1970:2068  uint256 result = uint256(keccak256(abi.encodePacked(block.timestamp, numero, randNonce))) % numero */\n      swap1\n      pop\n        /* \"contracts/CarreraCoches/principal.sol\":2086:2092  result */\n      dup1\n        /* \"contracts/CarreraCoches/principal.sol\":2079:2092  return result */\n      swap3\n      pop\n      pop\n      pop\n        /* \"contracts/CarreraCoches/principal.sol\":1881:2100  function numeroAleatorio() public returns (uint256) {\r... */\n      swap1\n      jump\t// out\n        /* \"contracts/CarreraCoches/ownable.sol\":1978:2179  function transferOwnership(address newOwner) public virtual onlyOwner {\r... */\n    tag_64:\n        /* \"contracts/CarreraCoches/ownable.sol\":1300:1312  _msgSender() */\n      tag_170\n        /* \"contracts/CarreraCoches/ownable.sol\":1300:1310  _msgSender */\n      tag_122\n        /* \"contracts/CarreraCoches/ownable.sol\":1300:1312  _msgSender() */\n      jump\t// in\n    tag_170:\n        /* \"contracts/CarreraCoches/ownable.sol\":1289:1312  owner() == _msgSender() */\n      0xffffffffffffffffffffffffffffffffffffffff\n      and\n        /* \"contracts/CarreraCoches/ownable.sol\":1289:1296  owner() */\n      tag_171\n        /* \"contracts/CarreraCoches/ownable.sol\":1289:1294  owner */\n      tag_43\n        /* \"contracts/CarreraCoches/ownable.sol\":1289:1296  owner() */\n      jump\t// in\n    tag_171:\n        /* \"contracts/CarreraCoches/ownable.sol\":1289:1312  owner() == _msgSender() */\n      0xffffffffffffffffffffffffffffffffffffffff\n      and\n      eq\n        /* \"contracts/CarreraCoches/ownable.sol\":1281:1349  require(owner() == _msgSender(), \"Ownable: caller is not the owner\") */\n      tag_172\n      jumpi\n      mload(0x40)\n      0x08c379a000000000000000000000000000000000000000000000000000000000\n      dup2\n      mstore\n      0x04\n      add\n      tag_173\n      swap1\n      tag_126\n      jump\t// in\n    tag_173:\n      mload(0x40)\n      dup1\n      swap2\n      sub\n      swap1\n      revert\n    tag_172:\n        /* \"contracts/CarreraCoches/ownable.sol\":2087:2088  0 */\n      0x00\n        /* \"contracts/CarreraCoches/ownable.sol\":2067:2089  newOwner != address(0) */\n      0xffffffffffffffffffffffffffffffffffffffff\n      and\n        /* \"contracts/CarreraCoches/ownable.sol\":2067:2075  newOwner */\n      dup2\n        /* \"contracts/CarreraCoches/ownable.sol\":2067:2089  newOwner != address(0) */\n      0xffffffffffffffffffffffffffffffffffffffff\n      and\n      eq\n      iszero\n        /* \"contracts/CarreraCoches/ownable.sol\":2059:2132  require(newOwner != address(0), \"Ownable: new owner is the zero address\") */\n      tag_175\n      jumpi\n      mload(0x40)\n      0x08c379a000000000000000000000000000000000000000000000000000000000\n      dup2\n      mstore\n      0x04\n      add\n      tag_176\n      swap1\n      tag_177\n      jump\t// in\n    tag_176:\n      mload(0x40)\n      dup1\n      swap2\n      sub\n      swap1\n      revert\n    tag_175:\n        /* \"contracts/CarreraCoches/ownable.sol\":2143:2171  _transferOwnership(newOwner) */\n      tag_178\n        /* \"contracts/CarreraCoches/ownable.sol\":2162:2170  newOwner */\n      dup2\n        /* \"contracts/CarreraCoches/ownable.sol\":2143:2161  _transferOwnership */\n      tag_129\n        /* \"contracts/CarreraCoches/ownable.sol\":2143:2171  _transferOwnership(newOwner) */\n      jump\t// in\n    tag_178:\n        /* \"contracts/CarreraCoches/ownable.sol\":1978:2179  function transferOwnership(address newOwner) public virtual onlyOwner {\r... */\n      pop\n      jump\t// out\n        /* \"contracts/CarreraCoches/principal.sol\":4109:4288  function balance() private {\r... */\n    tag_102:\n        /* \"contracts/CarreraCoches/principal.sol\":4156:4166  msg.sender */\n      caller\n        /* \"contracts/CarreraCoches/principal.sol\":4147:4176  payable (msg.sender).transfer */\n      0xffffffffffffffffffffffffffffffffffffffff\n      and\n        /* \"contracts/CarreraCoches/principal.sol\":4147:4203  payable (msg.sender).transfer((address(this).balance)*2) */\n      0x08fc\n        /* \"contracts/CarreraCoches/principal.sol\":4201:4202  2 */\n      0x02\n        /* \"contracts/CarreraCoches/principal.sol\":4178:4199  address(this).balance */\n      selfbalance\n        /* \"contracts/CarreraCoches/principal.sol\":4177:4202  (address(this).balance)*2 */\n      tag_180\n      swap2\n      swap1\n      tag_181\n      jump\t// in\n    tag_180:\n        /* \"contracts/CarreraCoches/principal.sol\":4147:4203  payable (msg.sender).transfer((address(this).balance)*2) */\n      swap1\n      dup2\n      iszero\n      mul\n      swap1\n      mload(0x40)\n      0x00\n      mload(0x40)\n      dup1\n      dup4\n      sub\n      dup2\n      dup6\n      dup9\n      dup9\n      call\n      swap4\n      pop\n      pop\n      pop\n      pop\n      iszero\n      dup1\n      iszero\n      tag_183\n      jumpi\n      returndatasize\n      0x00\n      dup1\n      returndatacopy\n      revert(0x00, returndatasize)\n    tag_183:\n      pop\n        /* \"contracts/CarreraCoches/principal.sol\":4219:4280  mostrarResultado(\"Has ganado: \", ((address(this).balance)*2)) */\n      0xa28482eec3136a2461c6c30c08f71ba279c6c51a2d9c7bea4e50d6d2632f3896\n        /* \"contracts/CarreraCoches/principal.sol\":4277:4278  2 */\n      0x02\n        /* \"contracts/CarreraCoches/principal.sol\":4254:4275  address(this).balance */\n      selfbalance\n        /* \"contracts/CarreraCoches/principal.sol\":4253:4278  (address(this).balance)*2 */\n      tag_184\n      swap2\n      swap1\n      tag_181\n      jump\t// in\n    tag_184:\n        /* \"contracts/CarreraCoches/principal.sol\":4219:4280  mostrarResultado(\"Has ganado: \", ((address(this).balance)*2)) */\n      mload(0x40)\n      tag_185\n      swap2\n      swap1\n      tag_186\n      jump\t// in\n    tag_185:\n      mload(0x40)\n      dup1\n      swap2\n      sub\n      swap1\n      log1\n        /* \"contracts/CarreraCoches/principal.sol\":4109:4288  function balance() private {\r... */\n      jump\t// out\n        /* \"contracts/CarreraCoches/utils/Context.sol\":656:754  function _msgSender() internal view virtual returns (address) {\r... */\n    tag_122:\n        /* \"contracts/CarreraCoches/utils/Context.sol\":709:716  address */\n      0x00\n        /* \"contracts/CarreraCoches/utils/Context.sol\":736:746  msg.sender */\n      caller\n        /* \"contracts/CarreraCoches/utils/Context.sol\":729:746  return msg.sender */\n      swap1\n      pop\n        /* \"contracts/CarreraCoches/utils/Context.sol\":656:754  function _msgSender() internal view virtual returns (address) {\r... */\n      swap1\n      jump\t// out\n        /* \"contracts/CarreraCoches/ownable.sol\":2339:2530  function _transferOwnership(address newOwner) internal virtual {\r... */\n    tag_129:\n        /* \"contracts/CarreraCoches/ownable.sol\":2413:2429  address oldOwner */\n      0x00\n        /* \"contracts/CarreraCoches/ownable.sol\":2432:2438  _owner */\n      dup1\n      0x00\n      swap1\n      sload\n      swap1\n      0x0100\n      exp\n      swap1\n      div\n      0xffffffffffffffffffffffffffffffffffffffff\n      and\n        /* \"contracts/CarreraCoches/ownable.sol\":2413:2438  address oldOwner = _owner */\n      swap1\n      pop\n        /* \"contracts/CarreraCoches/ownable.sol\":2458:2466  newOwner */\n      dup2\n        /* \"contracts/CarreraCoches/ownable.sol\":2449:2455  _owner */\n      0x00\n      dup1\n        /* \"contracts/CarreraCoches/ownable.sol\":2449:2466  _owner = newOwner */\n      0x0100\n      exp\n      dup2\n      sload\n      dup2\n      0xffffffffffffffffffffffffffffffffffffffff\n      mul\n      not\n      and\n      swap1\n      dup4\n      0xffffffffffffffffffffffffffffffffffffffff\n      and\n      mul\n      or\n      swap1\n      sstore\n      pop\n        /* \"contracts/CarreraCoches/ownable.sol\":2513:2521  newOwner */\n      dup2\n        /* \"contracts/CarreraCoches/ownable.sol\":2482:2522  OwnershipTransferred(oldOwner, newOwner) */\n      0xffffffffffffffffffffffffffffffffffffffff\n      and\n        /* \"contracts/CarreraCoches/ownable.sol\":2503:2511  oldOwner */\n      dup2\n        /* \"contracts/CarreraCoches/ownable.sol\":2482:2522  OwnershipTransferred(oldOwner, newOwner) */\n      0xffffffffffffffffffffffffffffffffffffffff\n      and\n      0x8be0079c531659141344cd1fd0a4f28419497f9722a3daafe3b4186f6b6457e0\n      mload(0x40)\n      mload(0x40)\n      dup1\n      swap2\n      sub\n      swap1\n      log3\n        /* \"contracts/CarreraCoches/ownable.sol\":2402:2530  {\r... */\n      pop\n        /* \"contracts/CarreraCoches/ownable.sol\":2339:2530  function _transferOwnership(address newOwner) internal virtual {\r... */\n      pop\n      jump\t// out\n    tag_74:\n      dup3\n      dup1\n      sload\n      tag_191\n      swap1\n      tag_134\n      jump\t// in\n    tag_191:\n      swap1\n      0x00\n      mstore\n      keccak256(0x00, 0x20)\n      swap1\n      0x1f\n      add\n      0x20\n      swap1\n      div\n      dup2\n      add\n      swap3\n      dup3\n      tag_193\n      jumpi\n      0x00\n      dup6\n      sstore\n      jump(tag_192)\n    tag_193:\n      dup3\n      0x1f\n      lt\n      tag_194\n      jumpi\n      dup1\n      mload\n      not(0xff)\n      and\n      dup4\n      dup1\n      add\n      or\n      dup6\n      sstore\n      jump(tag_192)\n    tag_194:\n      dup3\n      dup1\n      add\n      0x01\n      add\n      dup6\n      sstore\n      dup3\n      iszero\n      tag_192\n      jumpi\n      swap2\n      dup3\n      add\n    tag_195:\n      dup3\n      dup2\n      gt\n      iszero\n      tag_196\n      jumpi\n      dup3\n      mload\n      dup3\n      sstore\n      swap2\n      0x20\n      add\n      swap2\n      swap1\n      0x01\n      add\n      swap1\n      jump(tag_195)\n    tag_196:\n    tag_192:\n      pop\n      swap1\n      pop\n      tag_197\n      swap2\n      swap1\n      tag_198\n      jump\t// in\n    tag_197:\n      pop\n      swap1\n      jump\t// out\n    tag_198:\n    tag_199:\n      dup1\n      dup3\n      gt\n      iszero\n      tag_200\n      jumpi\n      0x00\n      dup2\n      0x00\n      swap1\n      sstore\n      pop\n      0x01\n      add\n      jump(tag_199)\n    tag_200:\n      pop\n      swap1\n      jump\t// out\n        /* \"#utility.yul\":7:419   */\n    tag_202:\n        /* \"#utility.yul\":85:90   */\n      0x00\n        /* \"#utility.yul\":110:176   */\n      tag_204\n        /* \"#utility.yul\":126:175   */\n      tag_205\n        /* \"#utility.yul\":168:174   */\n      dup5\n        /* \"#utility.yul\":126:175   */\n      tag_206\n      jump\t// in\n    tag_205:\n        /* \"#utility.yul\":110:176   */\n      tag_207\n      jump\t// in\n    tag_204:\n        /* \"#utility.yul\":101:176   */\n      swap1\n      pop\n        /* \"#utility.yul\":199:205   */\n      dup3\n        /* \"#utility.yul\":192:197   */\n      dup2\n        /* \"#utility.yul\":185:206   */\n      mstore\n        /* \"#utility.yul\":237:241   */\n      0x20\n        /* \"#utility.yul\":230:235   */\n      dup2\n        /* \"#utility.yul\":226:242   */\n      add\n        /* \"#utility.yul\":275:278   */\n      dup5\n        /* \"#utility.yul\":266:272   */\n      dup5\n        /* \"#utility.yul\":261:264   */\n      dup5\n        /* \"#utility.yul\":257:273   */\n      add\n        /* \"#utility.yul\":254:279   */\n      gt\n        /* \"#utility.yul\":251:363   */\n      iszero\n      tag_208\n      jumpi\n        /* \"#utility.yul\":282:361   */\n      tag_209\n      tag_210\n      jump\t// in\n    tag_209:\n        /* \"#utility.yul\":251:363   */\n    tag_208:\n        /* \"#utility.yul\":372:413   */\n      tag_211\n        /* \"#utility.yul\":406:412   */\n      dup5\n        /* \"#utility.yul\":401:404   */\n      dup3\n        /* \"#utility.yul\":396:399   */\n      dup6\n        /* \"#utility.yul\":372:413   */\n      tag_212\n      jump\t// in\n    tag_211:\n        /* \"#utility.yul\":91:419   */\n      pop\n        /* \"#utility.yul\":7:419   */\n      swap4\n      swap3\n      pop\n      pop\n      pop\n      jump\t// out\n        /* \"#utility.yul\":425:564   */\n    tag_213:\n        /* \"#utility.yul\":471:476   */\n      0x00\n        /* \"#utility.yul\":509:515   */\n      dup2\n        /* \"#utility.yul\":496:516   */\n      calldataload\n        /* \"#utility.yul\":487:516   */\n      swap1\n      pop\n        /* \"#utility.yul\":525:558   */\n      tag_215\n        /* \"#utility.yul\":552:557   */\n      dup2\n        /* \"#utility.yul\":525:558   */\n      tag_216\n      jump\t// in\n    tag_215:\n        /* \"#utility.yul\":425:564   */\n      swap3\n      swap2\n      pop\n      pop\n      jump\t// out\n        /* \"#utility.yul\":584:924   */\n    tag_217:\n        /* \"#utility.yul\":640:645   */\n      0x00\n        /* \"#utility.yul\":689:692   */\n      dup3\n        /* \"#utility.yul\":682:686   */\n      0x1f\n        /* \"#utility.yul\":674:680   */\n      dup4\n        /* \"#utility.yul\":670:687   */\n      add\n        /* \"#utility.yul\":666:693   */\n      slt\n        /* \"#utility.yul\":656:778   */\n      tag_219\n      jumpi\n        /* \"#utility.yul\":697:776   */\n      tag_220\n      tag_221\n      jump\t// in\n    tag_220:\n        /* \"#utility.yul\":656:778   */\n    tag_219:\n        /* \"#utility.yul\":814:820   */\n      dup2\n        /* \"#utility.yul\":801:821   */\n      calldataload\n        /* \"#utility.yul\":839:918   */\n      tag_222\n        /* \"#utility.yul\":914:917   */\n      dup5\n        /* \"#utility.yul\":906:912   */\n      dup3\n        /* \"#utility.yul\":899:903   */\n      0x20\n        /* \"#utility.yul\":891:897   */\n      dup7\n        /* \"#utility.yul\":887:904   */\n      add\n        /* \"#utility.yul\":839:918   */\n      tag_202\n      jump\t// in\n    tag_222:\n        /* \"#utility.yul\":830:918   */\n      swap2\n      pop\n        /* \"#utility.yul\":646:924   */\n      pop\n        /* \"#utility.yul\":584:924   */\n      swap3\n      swap2\n      pop\n      pop\n      jump\t// out\n        /* \"#utility.yul\":930:1069   */\n    tag_223:\n        /* \"#utility.yul\":976:981   */\n      0x00\n        /* \"#utility.yul\":1014:1020   */\n      dup2\n        /* \"#utility.yul\":1001:1021   */\n      calldataload\n        /* \"#utility.yul\":992:1021   */\n      swap1\n      pop\n        /* \"#utility.yul\":1030:1063   */\n      tag_225\n        /* \"#utility.yul\":1057:1062   */\n      dup2\n        /* \"#utility.yul\":1030:1063   */\n      tag_226\n      jump\t// in\n    tag_225:\n        /* \"#utility.yul\":930:1069   */\n      swap3\n      swap2\n      pop\n      pop\n      jump\t// out\n        /* \"#utility.yul\":1075:1404   */\n    tag_16:\n        /* \"#utility.yul\":1134:1140   */\n      0x00\n        /* \"#utility.yul\":1183:1185   */\n      0x20\n        /* \"#utility.yul\":1171:1180   */\n      dup3\n        /* \"#utility.yul\":1162:1169   */\n      dup5\n        /* \"#utility.yul\":1158:1181   */\n      sub\n        /* \"#utility.yul\":1154:1186   */\n      slt\n        /* \"#utility.yul\":1151:1270   */\n      iszero\n      tag_228\n      jumpi\n        /* \"#utility.yul\":1189:1268   */\n      tag_229\n      tag_230\n      jump\t// in\n    tag_229:\n        /* \"#utility.yul\":1151:1270   */\n    tag_228:\n        /* \"#utility.yul\":1309:1310   */\n      0x00\n        /* \"#utility.yul\":1334:1387   */\n      tag_231\n        /* \"#utility.yul\":1379:1386   */\n      dup5\n        /* \"#utility.yul\":1370:1376   */\n      dup3\n        /* \"#utility.yul\":1359:1368   */\n      dup6\n        /* \"#utility.yul\":1355:1377   */\n      add\n        /* \"#utility.yul\":1334:1387   */\n      tag_213\n      jump\t// in\n    tag_231:\n        /* \"#utility.yul\":1324:1387   */\n      swap2\n      pop\n        /* \"#utility.yul\":1280:1397   */\n      pop\n        /* \"#utility.yul\":1075:1404   */\n      swap3\n      swap2\n      pop\n      pop\n      jump\t// out\n        /* \"#utility.yul\":1410:2569   */\n    tag_23:\n        /* \"#utility.yul\":1517:1523   */\n      0x00\n        /* \"#utility.yul\":1525:1531   */\n      dup1\n        /* \"#utility.yul\":1533:1539   */\n      0x00\n        /* \"#utility.yul\":1582:1584   */\n      0x60\n        /* \"#utility.yul\":1570:1579   */\n      dup5\n        /* \"#utility.yul\":1561:1568   */\n      dup7\n        /* \"#utility.yul\":1557:1580   */\n      sub\n        /* \"#utility.yul\":1553:1585   */\n      slt\n        /* \"#utility.yul\":1550:1669   */\n      iszero\n      tag_233\n      jumpi\n        /* \"#utility.yul\":1588:1667   */\n      tag_234\n      tag_230\n      jump\t// in\n    tag_234:\n        /* \"#utility.yul\":1550:1669   */\n    tag_233:\n        /* \"#utility.yul\":1736:1737   */\n      0x00\n        /* \"#utility.yul\":1725:1734   */\n      dup5\n        /* \"#utility.yul\":1721:1738   */\n      add\n        /* \"#utility.yul\":1708:1739   */\n      calldataload\n        /* \"#utility.yul\":1766:1784   */\n      0xffffffffffffffff\n        /* \"#utility.yul\":1758:1764   */\n      dup2\n        /* \"#utility.yul\":1755:1785   */\n      gt\n        /* \"#utility.yul\":1752:1869   */\n      iszero\n      tag_235\n      jumpi\n        /* \"#utility.yul\":1788:1867   */\n      tag_236\n      tag_237\n      jump\t// in\n    tag_236:\n        /* \"#utility.yul\":1752:1869   */\n    tag_235:\n        /* \"#utility.yul\":1893:1956   */\n      tag_238\n        /* \"#utility.yul\":1948:1955   */\n      dup7\n        /* \"#utility.yul\":1939:1945   */\n      dup3\n        /* \"#utility.yul\":1928:1937   */\n      dup8\n        /* \"#utility.yul\":1924:1946   */\n      add\n        /* \"#utility.yul\":1893:1956   */\n      tag_217\n      jump\t// in\n    tag_238:\n        /* \"#utility.yul\":1883:1956   */\n      swap4\n      pop\n        /* \"#utility.yul\":1679:1966   */\n      pop\n        /* \"#utility.yul\":2033:2035   */\n      0x20\n        /* \"#utility.yul\":2022:2031   */\n      dup5\n        /* \"#utility.yul\":2018:2036   */\n      add\n        /* \"#utility.yul\":2005:2037   */\n      calldataload\n        /* \"#utility.yul\":2064:2082   */\n      0xffffffffffffffff\n        /* \"#utility.yul\":2056:2062   */\n      dup2\n        /* \"#utility.yul\":2053:2083   */\n      gt\n        /* \"#utility.yul\":2050:2167   */\n      iszero\n      tag_239\n      jumpi\n        /* \"#utility.yul\":2086:2165   */\n      tag_240\n      tag_237\n      jump\t// in\n    tag_240:\n        /* \"#utility.yul\":2050:2167   */\n    tag_239:\n        /* \"#utility.yul\":2191:2254   */\n      tag_241\n        /* \"#utility.yul\":2246:2253   */\n      dup7\n        /* \"#utility.yul\":2237:2243   */\n      dup3\n        /* \"#utility.yul\":2226:2235   */\n      dup8\n        /* \"#utility.yul\":2222:2244   */\n      add\n        /* \"#utility.yul\":2191:2254   */\n      tag_217\n      jump\t// in\n    tag_241:\n        /* \"#utility.yul\":2181:2254   */\n      swap3\n      pop\n        /* \"#utility.yul\":1976:2264   */\n      pop\n        /* \"#utility.yul\":2331:2333   */\n      0x40\n        /* \"#utility.yul\":2320:2329   */\n      dup5\n        /* \"#utility.yul\":2316:2334   */\n      add\n        /* \"#utility.yul\":2303:2335   */\n      calldataload\n        /* \"#utility.yul\":2362:2380   */\n      0xffffffffffffffff\n        /* \"#utility.yul\":2354:2360   */\n      dup2\n        /* \"#utility.yul\":2351:2381   */\n      gt\n        /* \"#utility.yul\":2348:2465   */\n      iszero\n      tag_242\n      jumpi\n        /* \"#utility.yul\":2384:2463   */\n      tag_243\n      tag_237\n      jump\t// in\n    tag_243:\n        /* \"#utility.yul\":2348:2465   */\n    tag_242:\n        /* \"#utility.yul\":2489:2552   */\n      tag_244\n        /* \"#utility.yul\":2544:2551   */\n      dup7\n        /* \"#utility.yul\":2535:2541   */\n      dup3\n        /* \"#utility.yul\":2524:2533   */\n      dup8\n        /* \"#utility.yul\":2520:2542   */\n      add\n        /* \"#utility.yul\":2489:2552   */\n      tag_217\n      jump\t// in\n    tag_244:\n        /* \"#utility.yul\":2479:2552   */\n      swap2\n      pop\n        /* \"#utility.yul\":2274:2562   */\n      pop\n        /* \"#utility.yul\":1410:2569   */\n      swap3\n      pop\n      swap3\n      pop\n      swap3\n      jump\t// out\n        /* \"#utility.yul\":2575:2904   */\n    tag_28:\n        /* \"#utility.yul\":2634:2640   */\n      0x00\n        /* \"#utility.yul\":2683:2685   */\n      0x20\n        /* \"#utility.yul\":2671:2680   */\n      dup3\n        /* \"#utility.yul\":2662:2669   */\n      dup5\n        /* \"#utility.yul\":2658:2681   */\n      sub\n        /* \"#utility.yul\":2654:2686   */\n      slt\n        /* \"#utility.yul\":2651:2770   */\n      iszero\n      tag_246\n      jumpi\n        /* \"#utility.yul\":2689:2768   */\n      tag_247\n      tag_230\n      jump\t// in\n    tag_247:\n        /* \"#utility.yul\":2651:2770   */\n    tag_246:\n        /* \"#utility.yul\":2809:2810   */\n      0x00\n        /* \"#utility.yul\":2834:2887   */\n      tag_248\n        /* \"#utility.yul\":2879:2886   */\n      dup5\n        /* \"#utility.yul\":2870:2876   */\n      dup3\n        /* \"#utility.yul\":2859:2868   */\n      dup6\n        /* \"#utility.yul\":2855:2877   */\n      add\n        /* \"#utility.yul\":2834:2887   */\n      tag_223\n      jump\t// in\n    tag_248:\n        /* \"#utility.yul\":2824:2887   */\n      swap2\n      pop\n        /* \"#utility.yul\":2780:2897   */\n      pop\n        /* \"#utility.yul\":2575:2904   */\n      swap3\n      swap2\n      pop\n      pop\n      jump\t// out\n        /* \"#utility.yul\":2910:3089   */\n    tag_249:\n        /* \"#utility.yul\":2979:2989   */\n      0x00\n        /* \"#utility.yul\":3000:3046   */\n      tag_251\n        /* \"#utility.yul\":3042:3045   */\n      dup4\n        /* \"#utility.yul\":3034:3040   */\n      dup4\n        /* \"#utility.yul\":3000:3046   */\n      tag_252\n      jump\t// in\n    tag_251:\n        /* \"#utility.yul\":3078:3082   */\n      0x20\n        /* \"#utility.yul\":3073:3076   */\n      dup4\n        /* \"#utility.yul\":3069:3083   */\n      add\n        /* \"#utility.yul\":3055:3083   */\n      swap1\n      pop\n        /* \"#utility.yul\":2910:3089   */\n      swap3\n      swap2\n      pop\n      pop\n      jump\t// out\n        /* \"#utility.yul\":3095:3213   */\n    tag_253:\n        /* \"#utility.yul\":3182:3206   */\n      tag_255\n        /* \"#utility.yul\":3200:3205   */\n      dup2\n        /* \"#utility.yul\":3182:3206   */\n      tag_256\n      jump\t// in\n    tag_255:\n        /* \"#utility.yul\":3177:3180   */\n      dup3\n        /* \"#utility.yul\":3170:3207   */\n      mstore\n        /* \"#utility.yul\":3095:3213   */\n      pop\n      pop\n      jump\t// out\n        /* \"#utility.yul\":3249:3981   */\n    tag_257:\n        /* \"#utility.yul\":3368:3371   */\n      0x00\n        /* \"#utility.yul\":3397:3451   */\n      tag_259\n        /* \"#utility.yul\":3445:3450   */\n      dup3\n        /* \"#utility.yul\":3397:3451   */\n      tag_260\n      jump\t// in\n    tag_259:\n        /* \"#utility.yul\":3467:3553   */\n      tag_261\n        /* \"#utility.yul\":3546:3552   */\n      dup2\n        /* \"#utility.yul\":3541:3544   */\n      dup6\n        /* \"#utility.yul\":3467:3553   */\n      tag_262\n      jump\t// in\n    tag_261:\n        /* \"#utility.yul\":3460:3553   */\n      swap4\n      pop\n        /* \"#utility.yul\":3577:3633   */\n      tag_263\n        /* \"#utility.yul\":3627:3632   */\n      dup4\n        /* \"#utility.yul\":3577:3633   */\n      tag_264\n      jump\t// in\n    tag_263:\n        /* \"#utility.yul\":3656:3663   */\n      dup1\n        /* \"#utility.yul\":3687:3688   */\n      0x00\n        /* \"#utility.yul\":3672:3956   */\n    tag_265:\n        /* \"#utility.yul\":3697:3703   */\n      dup4\n        /* \"#utility.yul\":3694:3695   */\n      dup2\n        /* \"#utility.yul\":3691:3704   */\n      lt\n        /* \"#utility.yul\":3672:3956   */\n      iszero\n      tag_267\n      jumpi\n        /* \"#utility.yul\":3773:3779   */\n      dup2\n        /* \"#utility.yul\":3767:3780   */\n      mload\n        /* \"#utility.yul\":3800:3863   */\n      tag_268\n        /* \"#utility.yul\":3859:3862   */\n      dup9\n        /* \"#utility.yul\":3844:3857   */\n      dup3\n        /* \"#utility.yul\":3800:3863   */\n      tag_249\n      jump\t// in\n    tag_268:\n        /* \"#utility.yul\":3793:3863   */\n      swap8\n      pop\n        /* \"#utility.yul\":3886:3946   */\n      tag_269\n        /* \"#utility.yul\":3939:3945   */\n      dup4\n        /* \"#utility.yul\":3886:3946   */\n      tag_270\n      jump\t// in\n    tag_269:\n        /* \"#utility.yul\":3876:3946   */\n      swap3\n      pop\n        /* \"#utility.yul\":3732:3956   */\n      pop\n        /* \"#utility.yul\":3719:3720   */\n      0x01\n        /* \"#utility.yul\":3716:3717   */\n      dup2\n        /* \"#utility.yul\":3712:3721   */\n      add\n        /* \"#utility.yul\":3707:3721   */\n      swap1\n      pop\n        /* \"#utility.yul\":3672:3956   */\n      jump(tag_265)\n    tag_267:\n        /* \"#utility.yul\":3676:3690   */\n      pop\n        /* \"#utility.yul\":3972:3975   */\n      dup6\n        /* \"#utility.yul\":3965:3975   */\n      swap4\n      pop\n        /* \"#utility.yul\":3373:3981   */\n      pop\n      pop\n      pop\n        /* \"#utility.yul\":3249:3981   */\n      swap3\n      swap2\n      pop\n      pop\n      jump\t// out\n        /* \"#utility.yul\":3987:4351   */\n    tag_271:\n        /* \"#utility.yul\":4075:4078   */\n      0x00\n        /* \"#utility.yul\":4103:4142   */\n      tag_273\n        /* \"#utility.yul\":4136:4141   */\n      dup3\n        /* \"#utility.yul\":4103:4142   */\n      tag_274\n      jump\t// in\n    tag_273:\n        /* \"#utility.yul\":4158:4229   */\n      tag_275\n        /* \"#utility.yul\":4222:4228   */\n      dup2\n        /* \"#utility.yul\":4217:4220   */\n      dup6\n        /* \"#utility.yul\":4158:4229   */\n      tag_276\n      jump\t// in\n    tag_275:\n        /* \"#utility.yul\":4151:4229   */\n      swap4\n      pop\n        /* \"#utility.yul\":4238:4290   */\n      tag_277\n        /* \"#utility.yul\":4283:4289   */\n      dup2\n        /* \"#utility.yul\":4278:4281   */\n      dup6\n        /* \"#utility.yul\":4271:4275   */\n      0x20\n        /* \"#utility.yul\":4264:4269   */\n      dup7\n        /* \"#utility.yul\":4260:4276   */\n      add\n        /* \"#utility.yul\":4238:4290   */\n      tag_278\n      jump\t// in\n    tag_277:\n        /* \"#utility.yul\":4315:4344   */\n      tag_279\n        /* \"#utility.yul\":4337:4343   */\n      dup2\n        /* \"#utility.yul\":4315:4344   */\n      tag_280\n      jump\t// in\n    tag_279:\n        /* \"#utility.yul\":4310:4313   */\n      dup5\n        /* \"#utility.yul\":4306:4345   */\n      add\n        /* \"#utility.yul\":4299:4345   */\n      swap2\n      pop\n        /* \"#utility.yul\":4079:4351   */\n      pop\n        /* \"#utility.yul\":3987:4351   */\n      swap3\n      swap2\n      pop\n      pop\n      jump\t// out\n        /* \"#utility.yul\":4381:5183   */\n    tag_281:\n        /* \"#utility.yul\":4466:4469   */\n      0x00\n        /* \"#utility.yul\":4503:4508   */\n      dup2\n        /* \"#utility.yul\":4497:4509   */\n      sload\n        /* \"#utility.yul\":4532:4568   */\n      tag_283\n        /* \"#utility.yul\":4558:4567   */\n      dup2\n        /* \"#utility.yul\":4532:4568   */\n      tag_134\n      jump\t// in\n    tag_283:\n        /* \"#utility.yul\":4584:4655   */\n      tag_284\n        /* \"#utility.yul\":4648:4654   */\n      dup2\n        /* \"#utility.yul\":4643:4646   */\n      dup7\n        /* \"#utility.yul\":4584:4655   */\n      tag_276\n      jump\t// in\n    tag_284:\n        /* \"#utility.yul\":4577:4655   */\n      swap5\n      pop\n        /* \"#utility.yul\":4686:4687   */\n      0x01\n        /* \"#utility.yul\":4675:4684   */\n      dup3\n        /* \"#utility.yul\":4671:4688   */\n      and\n        /* \"#utility.yul\":4702:4703   */\n      0x00\n        /* \"#utility.yul\":4697:4832   */\n      dup2\n      eq\n      tag_286\n      jumpi\n        /* \"#utility.yul\":4846:4847   */\n      0x01\n        /* \"#utility.yul\":4841:5177   */\n      dup2\n      eq\n      tag_287\n      jumpi\n        /* \"#utility.yul\":4664:5177   */\n      jump(tag_285)\n        /* \"#utility.yul\":4697:4832   */\n    tag_286:\n        /* \"#utility.yul\":4781:4785   */\n      0xff\n        /* \"#utility.yul\":4777:4786   */\n      not\n        /* \"#utility.yul\":4766:4775   */\n      dup4\n        /* \"#utility.yul\":4762:4787   */\n      and\n        /* \"#utility.yul\":4757:4760   */\n      dup7\n        /* \"#utility.yul\":4750:4788   */\n      mstore\n        /* \"#utility.yul\":4817:4821   */\n      0x20\n        /* \"#utility.yul\":4812:4815   */\n      dup7\n        /* \"#utility.yul\":4808:4822   */\n      add\n        /* \"#utility.yul\":4801:4822   */\n      swap4\n      pop\n        /* \"#utility.yul\":4697:4832   */\n      jump(tag_285)\n        /* \"#utility.yul\":4841:5177   */\n    tag_287:\n        /* \"#utility.yul\":4908:4946   */\n      tag_288\n        /* \"#utility.yul\":4940:4945   */\n      dup6\n        /* \"#utility.yul\":4908:4946   */\n      tag_289\n      jump\t// in\n    tag_288:\n        /* \"#utility.yul\":4968:4969   */\n      0x00\n        /* \"#utility.yul\":4982:5136   */\n    tag_290:\n        /* \"#utility.yul\":4996:5002   */\n      dup4\n        /* \"#utility.yul\":4993:4994   */\n      dup2\n        /* \"#utility.yul\":4990:5003   */\n      lt\n        /* \"#utility.yul\":4982:5136   */\n      iszero\n      tag_292\n      jumpi\n        /* \"#utility.yul\":5070:5077   */\n      dup2\n        /* \"#utility.yul\":5064:5078   */\n      sload\n        /* \"#utility.yul\":5060:5061   */\n      dup2\n        /* \"#utility.yul\":5055:5058   */\n      dup10\n        /* \"#utility.yul\":5051:5062   */\n      add\n        /* \"#utility.yul\":5044:5079   */\n      mstore\n        /* \"#utility.yul\":5120:5121   */\n      0x01\n        /* \"#utility.yul\":5111:5118   */\n      dup3\n        /* \"#utility.yul\":5107:5122   */\n      add\n        /* \"#utility.yul\":5096:5122   */\n      swap2\n      pop\n        /* \"#utility.yul\":5018:5022   */\n      0x20\n        /* \"#utility.yul\":5015:5016   */\n      dup2\n        /* \"#utility.yul\":5011:5023   */\n      add\n        /* \"#utility.yul\":5006:5023   */\n      swap1\n      pop\n        /* \"#utility.yul\":4982:5136   */\n      jump(tag_290)\n    tag_292:\n        /* \"#utility.yul\":5165:5166   */\n      dup1\n        /* \"#utility.yul\":5160:5163   */\n      dup9\n        /* \"#utility.yul\":5156:5167   */\n      add\n        /* \"#utility.yul\":5149:5167   */\n      swap6\n      pop\n        /* \"#utility.yul\":4848:5177   */\n      pop\n      pop\n        /* \"#utility.yul\":4664:5177   */\n    tag_285:\n      pop\n        /* \"#utility.yul\":4470:5183   */\n      pop\n      pop\n        /* \"#utility.yul\":4381:5183   */\n      swap3\n      swap2\n      pop\n      pop\n      jump\t// out\n        /* \"#utility.yul\":5189:5555   */\n    tag_293:\n        /* \"#utility.yul\":5331:5334   */\n      0x00\n        /* \"#utility.yul\":5352:5419   */\n      tag_295\n        /* \"#utility.yul\":5416:5418   */\n      0x0f\n        /* \"#utility.yul\":5411:5414   */\n      dup4\n        /* \"#utility.yul\":5352:5419   */\n      tag_276\n      jump\t// in\n    tag_295:\n        /* \"#utility.yul\":5345:5419   */\n      swap2\n      pop\n        /* \"#utility.yul\":5428:5521   */\n      tag_296\n        /* \"#utility.yul\":5517:5520   */\n      dup3\n        /* \"#utility.yul\":5428:5521   */\n      tag_297\n      jump\t// in\n    tag_296:\n        /* \"#utility.yul\":5546:5548   */\n      0x20\n        /* \"#utility.yul\":5541:5544   */\n      dup3\n        /* \"#utility.yul\":5537:5549   */\n      add\n        /* \"#utility.yul\":5530:5549   */\n      swap1\n      pop\n        /* \"#utility.yul\":5189:5555   */\n      swap2\n      swap1\n      pop\n      jump\t// out\n        /* \"#utility.yul\":5561:5927   */\n    tag_298:\n        /* \"#utility.yul\":5703:5706   */\n      0x00\n        /* \"#utility.yul\":5724:5791   */\n      tag_300\n        /* \"#utility.yul\":5788:5790   */\n      0x28\n        /* \"#utility.yul\":5783:5786   */\n      dup4\n        /* \"#utility.yul\":5724:5791   */\n      tag_276\n      jump\t// in\n    tag_300:\n        /* \"#utility.yul\":5717:5791   */\n      swap2\n      pop\n        /* \"#utility.yul\":5800:5893   */\n      tag_301\n        /* \"#utility.yul\":5889:5892   */\n      dup3\n        /* \"#utility.yul\":5800:5893   */\n      tag_302\n      jump\t// in\n    tag_301:\n        /* \"#utility.yul\":5918:5920   */\n      0x40\n        /* \"#utility.yul\":5913:5916   */\n      dup3\n        /* \"#utility.yul\":5909:5921   */\n      add\n        /* \"#utility.yul\":5902:5921   */\n      swap1\n      pop\n        /* \"#utility.yul\":5561:5927   */\n      swap2\n      swap1\n      pop\n      jump\t// out\n        /* \"#utility.yul\":5933:6299   */\n    tag_303:\n        /* \"#utility.yul\":6075:6078   */\n      0x00\n        /* \"#utility.yul\":6096:6163   */\n      tag_305\n        /* \"#utility.yul\":6160:6162   */\n      0x26\n        /* \"#utility.yul\":6155:6158   */\n      dup4\n        /* \"#utility.yul\":6096:6163   */\n      tag_276\n      jump\t// in\n    tag_305:\n        /* \"#utility.yul\":6089:6163   */\n      swap2\n      pop\n        /* \"#utility.yul\":6172:6265   */\n      tag_306\n        /* \"#utility.yul\":6261:6264   */\n      dup3\n        /* \"#utility.yul\":6172:6265   */\n      tag_307\n      jump\t// in\n    tag_306:\n        /* \"#utility.yul\":6290:6292   */\n      0x40\n        /* \"#utility.yul\":6285:6288   */\n      dup3\n        /* \"#utility.yul\":6281:6293   */\n      add\n        /* \"#utility.yul\":6274:6293   */\n      swap1\n      pop\n        /* \"#utility.yul\":5933:6299   */\n      swap2\n      swap1\n      pop\n      jump\t// out\n        /* \"#utility.yul\":6305:6671   */\n    tag_308:\n        /* \"#utility.yul\":6447:6450   */\n      0x00\n        /* \"#utility.yul\":6468:6535   */\n      tag_310\n        /* \"#utility.yul\":6532:6534   */\n      0x0c\n        /* \"#utility.yul\":6527:6530   */\n      dup4\n        /* \"#utility.yul\":6468:6535   */\n      tag_276\n      jump\t// in\n    tag_310:\n        /* \"#utility.yul\":6461:6535   */\n      swap2\n      pop\n        /* \"#utility.yul\":6544:6637   */\n      tag_311\n        /* \"#utility.yul\":6633:6636   */\n      dup3\n        /* \"#utility.yul\":6544:6637   */\n      tag_312\n      jump\t// in\n    tag_311:\n        /* \"#utility.yul\":6662:6664   */\n      0x20\n        /* \"#utility.yul\":6657:6660   */\n      dup3\n        /* \"#utility.yul\":6653:6665   */\n      add\n        /* \"#utility.yul\":6646:6665   */\n      swap1\n      pop\n        /* \"#utility.yul\":6305:6671   */\n      swap2\n      swap1\n      pop\n      jump\t// out\n        /* \"#utility.yul\":6677:7043   */\n    tag_313:\n        /* \"#utility.yul\":6819:6822   */\n      0x00\n        /* \"#utility.yul\":6840:6907   */\n      tag_315\n        /* \"#utility.yul\":6904:6906   */\n      0x20\n        /* \"#utility.yul\":6899:6902   */\n      dup4\n        /* \"#utility.yul\":6840:6907   */\n      tag_276\n      jump\t// in\n    tag_315:\n        /* \"#utility.yul\":6833:6907   */\n      swap2\n      pop\n        /* \"#utility.yul\":6916:7009   */\n      tag_316\n        /* \"#utility.yul\":7005:7008   */\n      dup3\n        /* \"#utility.yul\":6916:7009   */\n      tag_317\n      jump\t// in\n    tag_316:\n        /* \"#utility.yul\":7034:7036   */\n      0x20\n        /* \"#utility.yul\":7029:7032   */\n      dup3\n        /* \"#utility.yul\":7025:7037   */\n      add\n        /* \"#utility.yul\":7018:7037   */\n      swap1\n      pop\n        /* \"#utility.yul\":6677:7043   */\n      swap2\n      swap1\n      pop\n      jump\t// out\n        /* \"#utility.yul\":7049:7415   */\n    tag_318:\n        /* \"#utility.yul\":7191:7194   */\n      0x00\n        /* \"#utility.yul\":7212:7279   */\n      tag_320\n        /* \"#utility.yul\":7276:7278   */\n      0x15\n        /* \"#utility.yul\":7271:7274   */\n      dup4\n        /* \"#utility.yul\":7212:7279   */\n      tag_276\n      jump\t// in\n    tag_320:\n        /* \"#utility.yul\":7205:7279   */\n      swap2\n      pop\n        /* \"#utility.yul\":7288:7381   */\n      tag_321\n        /* \"#utility.yul\":7377:7380   */\n      dup3\n        /* \"#utility.yul\":7288:7381   */\n      tag_322\n      jump\t// in\n    tag_321:\n        /* \"#utility.yul\":7406:7408   */\n      0x20\n        /* \"#utility.yul\":7401:7404   */\n      dup3\n        /* \"#utility.yul\":7397:7409   */\n      add\n        /* \"#utility.yul\":7390:7409   */\n      swap1\n      pop\n        /* \"#utility.yul\":7049:7415   */\n      swap2\n      swap1\n      pop\n      jump\t// out\n        /* \"#utility.yul\":7421:7529   */\n    tag_252:\n        /* \"#utility.yul\":7498:7522   */\n      tag_324\n        /* \"#utility.yul\":7516:7521   */\n      dup2\n        /* \"#utility.yul\":7498:7522   */\n      tag_325\n      jump\t// in\n    tag_324:\n        /* \"#utility.yul\":7493:7496   */\n      dup3\n        /* \"#utility.yul\":7486:7523   */\n      mstore\n        /* \"#utility.yul\":7421:7529   */\n      pop\n      pop\n      jump\t// out\n        /* \"#utility.yul\":7535:7653   */\n    tag_326:\n        /* \"#utility.yul\":7622:7646   */\n      tag_328\n        /* \"#utility.yul\":7640:7645   */\n      dup2\n        /* \"#utility.yul\":7622:7646   */\n      tag_325\n      jump\t// in\n    tag_328:\n        /* \"#utility.yul\":7617:7620   */\n      dup3\n        /* \"#utility.yul\":7610:7647   */\n      mstore\n        /* \"#utility.yul\":7535:7653   */\n      pop\n      pop\n      jump\t// out\n        /* \"#utility.yul\":7659:7816   */\n    tag_329:\n        /* \"#utility.yul\":7764:7809   */\n      tag_331\n        /* \"#utility.yul\":7784:7808   */\n      tag_332\n        /* \"#utility.yul\":7802:7807   */\n      dup3\n        /* \"#utility.yul\":7784:7808   */\n      tag_325\n      jump\t// in\n    tag_332:\n        /* \"#utility.yul\":7764:7809   */\n      tag_333\n      jump\t// in\n    tag_331:\n        /* \"#utility.yul\":7759:7762   */\n      dup3\n        /* \"#utility.yul\":7752:7810   */\n      mstore\n        /* \"#utility.yul\":7659:7816   */\n      pop\n      pop\n      jump\t// out\n        /* \"#utility.yul\":7822:7937   */\n    tag_334:\n        /* \"#utility.yul\":7907:7930   */\n      tag_336\n        /* \"#utility.yul\":7924:7929   */\n      dup2\n        /* \"#utility.yul\":7907:7930   */\n      tag_337\n      jump\t// in\n    tag_336:\n        /* \"#utility.yul\":7902:7905   */\n      dup3\n        /* \"#utility.yul\":7895:7931   */\n      mstore\n        /* \"#utility.yul\":7822:7937   */\n      pop\n      pop\n      jump\t// out\n        /* \"#utility.yul\":7943:8481   */\n    tag_86:\n        /* \"#utility.yul\":8111:8114   */\n      0x00\n        /* \"#utility.yul\":8126:8201   */\n      tag_339\n        /* \"#utility.yul\":8197:8200   */\n      dup3\n        /* \"#utility.yul\":8188:8194   */\n      dup7\n        /* \"#utility.yul\":8126:8201   */\n      tag_329\n      jump\t// in\n    tag_339:\n        /* \"#utility.yul\":8226:8228   */\n      0x20\n        /* \"#utility.yul\":8221:8224   */\n      dup3\n        /* \"#utility.yul\":8217:8229   */\n      add\n        /* \"#utility.yul\":8210:8229   */\n      swap2\n      pop\n        /* \"#utility.yul\":8239:8314   */\n      tag_340\n        /* \"#utility.yul\":8310:8313   */\n      dup3\n        /* \"#utility.yul\":8301:8307   */\n      dup6\n        /* \"#utility.yul\":8239:8314   */\n      tag_329\n      jump\t// in\n    tag_340:\n        /* \"#utility.yul\":8339:8341   */\n      0x20\n        /* \"#utility.yul\":8334:8337   */\n      dup3\n        /* \"#utility.yul\":8330:8342   */\n      add\n        /* \"#utility.yul\":8323:8342   */\n      swap2\n      pop\n        /* \"#utility.yul\":8352:8427   */\n      tag_341\n        /* \"#utility.yul\":8423:8426   */\n      dup3\n        /* \"#utility.yul\":8414:8420   */\n      dup5\n        /* \"#utility.yul\":8352:8427   */\n      tag_329\n      jump\t// in\n    tag_341:\n        /* \"#utility.yul\":8452:8454   */\n      0x20\n        /* \"#utility.yul\":8447:8450   */\n      dup3\n        /* \"#utility.yul\":8443:8455   */\n      add\n        /* \"#utility.yul\":8436:8455   */\n      swap2\n      pop\n        /* \"#utility.yul\":8472:8475   */\n      dup2\n        /* \"#utility.yul\":8465:8475   */\n      swap1\n      pop\n        /* \"#utility.yul\":7943:8481   */\n      swap5\n      swap4\n      pop\n      pop\n      pop\n      pop\n      jump\t// out\n        /* \"#utility.yul\":8487:8709   */\n    tag_40:\n        /* \"#utility.yul\":8580:8584   */\n      0x00\n        /* \"#utility.yul\":8618:8620   */\n      0x20\n        /* \"#utility.yul\":8607:8616   */\n      dup3\n        /* \"#utility.yul\":8603:8621   */\n      add\n        /* \"#utility.yul\":8595:8621   */\n      swap1\n      pop\n        /* \"#utility.yul\":8631:8702   */\n      tag_343\n        /* \"#utility.yul\":8699:8700   */\n      0x00\n        /* \"#utility.yul\":8688:8697   */\n      dup4\n        /* \"#utility.yul\":8684:8701   */\n      add\n        /* \"#utility.yul\":8675:8681   */\n      dup5\n        /* \"#utility.yul\":8631:8702   */\n      tag_253\n      jump\t// in\n    tag_343:\n        /* \"#utility.yul\":8487:8709   */\n      swap3\n      swap2\n      pop\n      pop\n      jump\t// out\n        /* \"#utility.yul\":8715:9981   */\n    tag_50:\n        /* \"#utility.yul\":9062:9066   */\n      0x00\n        /* \"#utility.yul\":9100:9103   */\n      0x0100\n        /* \"#utility.yul\":9089:9098   */\n      dup3\n        /* \"#utility.yul\":9085:9104   */\n      add\n        /* \"#utility.yul\":9077:9104   */\n      swap1\n      pop\n        /* \"#utility.yul\":9114:9185   */\n      tag_345\n        /* \"#utility.yul\":9182:9183   */\n      0x00\n        /* \"#utility.yul\":9171:9180   */\n      dup4\n        /* \"#utility.yul\":9167:9184   */\n      add\n        /* \"#utility.yul\":9158:9164   */\n      dup12\n        /* \"#utility.yul\":9114:9185   */\n      tag_253\n      jump\t// in\n    tag_345:\n        /* \"#utility.yul\":9232:9241   */\n      dup2\n        /* \"#utility.yul\":9226:9230   */\n      dup2\n        /* \"#utility.yul\":9222:9242   */\n      sub\n        /* \"#utility.yul\":9217:9219   */\n      0x20\n        /* \"#utility.yul\":9206:9215   */\n      dup4\n        /* \"#utility.yul\":9202:9220   */\n      add\n        /* \"#utility.yul\":9195:9243   */\n      mstore\n        /* \"#utility.yul\":9260:9338   */\n      tag_346\n        /* \"#utility.yul\":9333:9337   */\n      dup2\n        /* \"#utility.yul\":9324:9330   */\n      dup11\n        /* \"#utility.yul\":9260:9338   */\n      tag_271\n      jump\t// in\n    tag_346:\n        /* \"#utility.yul\":9252:9338   */\n      swap1\n      pop\n        /* \"#utility.yul\":9385:9394   */\n      dup2\n        /* \"#utility.yul\":9379:9383   */\n      dup2\n        /* \"#utility.yul\":9375:9395   */\n      sub\n        /* \"#utility.yul\":9370:9372   */\n      0x40\n        /* \"#utility.yul\":9359:9368   */\n      dup4\n        /* \"#utility.yul\":9355:9373   */\n      add\n        /* \"#utility.yul\":9348:9396   */\n      mstore\n        /* \"#utility.yul\":9413:9491   */\n      tag_347\n        /* \"#utility.yul\":9486:9490   */\n      dup2\n        /* \"#utility.yul\":9477:9483   */\n      dup10\n        /* \"#utility.yul\":9413:9491   */\n      tag_271\n      jump\t// in\n    tag_347:\n        /* \"#utility.yul\":9405:9491   */\n      swap1\n      pop\n        /* \"#utility.yul\":9538:9547   */\n      dup2\n        /* \"#utility.yul\":9532:9536   */\n      dup2\n        /* \"#utility.yul\":9528:9548   */\n      sub\n        /* \"#utility.yul\":9523:9525   */\n      0x60\n        /* \"#utility.yul\":9512:9521   */\n      dup4\n        /* \"#utility.yul\":9508:9526   */\n      add\n        /* \"#utility.yul\":9501:9549   */\n      mstore\n        /* \"#utility.yul\":9566:9644   */\n      tag_348\n        /* \"#utility.yul\":9639:9643   */\n      dup2\n        /* \"#utility.yul\":9630:9636   */\n      dup9\n        /* \"#utility.yul\":9566:9644   */\n      tag_271\n      jump\t// in\n    tag_348:\n        /* \"#utility.yul\":9558:9644   */\n      swap1\n      pop\n        /* \"#utility.yul\":9654:9727   */\n      tag_349\n        /* \"#utility.yul\":9722:9725   */\n      0x80\n        /* \"#utility.yul\":9711:9720   */\n      dup4\n        /* \"#utility.yul\":9707:9726   */\n      add\n        /* \"#utility.yul\":9698:9704   */\n      dup8\n        /* \"#utility.yul\":9654:9727   */\n      tag_326\n      jump\t// in\n    tag_349:\n        /* \"#utility.yul\":9737:9810   */\n      tag_350\n        /* \"#utility.yul\":9805:9808   */\n      0xa0\n        /* \"#utility.yul\":9794:9803   */\n      dup4\n        /* \"#utility.yul\":9790:9809   */\n      add\n        /* \"#utility.yul\":9781:9787   */\n      dup7\n        /* \"#utility.yul\":9737:9810   */\n      tag_326\n      jump\t// in\n    tag_350:\n        /* \"#utility.yul\":9820:9893   */\n      tag_351\n        /* \"#utility.yul\":9888:9891   */\n      0xc0\n        /* \"#utility.yul\":9877:9886   */\n      dup4\n        /* \"#utility.yul\":9873:9892   */\n      add\n        /* \"#utility.yul\":9864:9870   */\n      dup6\n        /* \"#utility.yul\":9820:9893   */\n      tag_326\n      jump\t// in\n    tag_351:\n        /* \"#utility.yul\":9903:9974   */\n      tag_352\n        /* \"#utility.yul\":9969:9972   */\n      0xe0\n        /* \"#utility.yul\":9958:9967   */\n      dup4\n        /* \"#utility.yul\":9954:9973   */\n      add\n        /* \"#utility.yul\":9945:9951   */\n      dup5\n        /* \"#utility.yul\":9903:9974   */\n      tag_334\n      jump\t// in\n    tag_352:\n        /* \"#utility.yul\":8715:9981   */\n      swap10\n      swap9\n      pop\n      pop\n      pop\n      pop\n      pop\n      pop\n      pop\n      pop\n      pop\n      jump\t// out\n        /* \"#utility.yul\":9987:10360   */\n    tag_56:\n        /* \"#utility.yul\":10130:10134   */\n      0x00\n        /* \"#utility.yul\":10168:10170   */\n      0x20\n        /* \"#utility.yul\":10157:10166   */\n      dup3\n        /* \"#utility.yul\":10153:10171   */\n      add\n        /* \"#utility.yul\":10145:10171   */\n      swap1\n      pop\n        /* \"#utility.yul\":10217:10226   */\n      dup2\n        /* \"#utility.yul\":10211:10215   */\n      dup2\n        /* \"#utility.yul\":10207:10227   */\n      sub\n        /* \"#utility.yul\":10203:10204   */\n      0x00\n        /* \"#utility.yul\":10192:10201   */\n      dup4\n        /* \"#utility.yul\":10188:10205   */\n      add\n        /* \"#utility.yul\":10181:10228   */\n      mstore\n        /* \"#utility.yul\":10245:10353   */\n      tag_354\n        /* \"#utility.yul\":10348:10352   */\n      dup2\n        /* \"#utility.yul\":10339:10345   */\n      dup5\n        /* \"#utility.yul\":10245:10353   */\n      tag_257\n      jump\t// in\n    tag_354:\n        /* \"#utility.yul\":10237:10353   */\n      swap1\n      pop\n        /* \"#utility.yul\":9987:10360   */\n      swap3\n      swap2\n      pop\n      pop\n      jump\t// out\n        /* \"#utility.yul\":10366:10679   */\n    tag_31:\n        /* \"#utility.yul\":10479:10483   */\n      0x00\n        /* \"#utility.yul\":10517:10519   */\n      0x20\n        /* \"#utility.yul\":10506:10515   */\n      dup3\n        /* \"#utility.yul\":10502:10520   */\n      add\n        /* \"#utility.yul\":10494:10520   */\n      swap1\n      pop\n        /* \"#utility.yul\":10566:10575   */\n      dup2\n        /* \"#utility.yul\":10560:10564   */\n      dup2\n        /* \"#utility.yul\":10556:10576   */\n      sub\n        /* \"#utility.yul\":10552:10553   */\n      0x00\n        /* \"#utility.yul\":10541:10550   */\n      dup4\n        /* \"#utility.yul\":10537:10554   */\n      add\n        /* \"#utility.yul\":10530:10577   */\n      mstore\n        /* \"#utility.yul\":10594:10672   */\n      tag_356\n        /* \"#utility.yul\":10667:10671   */\n      dup2\n        /* \"#utility.yul\":10658:10664   */\n      dup5\n        /* \"#utility.yul\":10594:10672   */\n      tag_271\n      jump\t// in\n    tag_356:\n        /* \"#utility.yul\":10586:10672   */\n      swap1\n      pop\n        /* \"#utility.yul\":10366:10679   */\n      swap3\n      swap2\n      pop\n      pop\n      jump\t// out\n        /* \"#utility.yul\":10685:11187   */\n    tag_161:\n        /* \"#utility.yul\":10840:10844   */\n      0x00\n        /* \"#utility.yul\":10878:10880   */\n      0x40\n        /* \"#utility.yul\":10867:10876   */\n      dup3\n        /* \"#utility.yul\":10863:10881   */\n      add\n        /* \"#utility.yul\":10855:10881   */\n      swap1\n      pop\n        /* \"#utility.yul\":10927:10936   */\n      dup2\n        /* \"#utility.yul\":10921:10925   */\n      dup2\n        /* \"#utility.yul\":10917:10937   */\n      sub\n        /* \"#utility.yul\":10913:10914   */\n      0x00\n        /* \"#utility.yul\":10902:10911   */\n      dup4\n        /* \"#utility.yul\":10898:10915   */\n      add\n        /* \"#utility.yul\":10891:10938   */\n      mstore\n        /* \"#utility.yul\":10955:11030   */\n      tag_358\n        /* \"#utility.yul\":11025:11029   */\n      dup2\n        /* \"#utility.yul\":11016:11022   */\n      dup6\n        /* \"#utility.yul\":10955:11030   */\n      tag_281\n      jump\t// in\n    tag_358:\n        /* \"#utility.yul\":10947:11030   */\n      swap1\n      pop\n        /* \"#utility.yul\":11077:11086   */\n      dup2\n        /* \"#utility.yul\":11071:11075   */\n      dup2\n        /* \"#utility.yul\":11067:11087   */\n      sub\n        /* \"#utility.yul\":11062:11064   */\n      0x20\n        /* \"#utility.yul\":11051:11060   */\n      dup4\n        /* \"#utility.yul\":11047:11065   */\n      add\n        /* \"#utility.yul\":11040:11088   */\n      mstore\n        /* \"#utility.yul\":11105:11180   */\n      tag_359\n        /* \"#utility.yul\":11175:11179   */\n      dup2\n        /* \"#utility.yul\":11166:11172   */\n      dup5\n        /* \"#utility.yul\":11105:11180   */\n      tag_281\n      jump\t// in\n    tag_359:\n        /* \"#utility.yul\":11097:11180   */\n      swap1\n      pop\n        /* \"#utility.yul\":10685:11187   */\n      swap4\n      swap3\n      pop\n      pop\n      pop\n      jump\t// out\n        /* \"#utility.yul\":11193:11612   */\n    tag_164:\n        /* \"#utility.yul\":11359:11363   */\n      0x00\n        /* \"#utility.yul\":11397:11399   */\n      0x20\n        /* \"#utility.yul\":11386:11395   */\n      dup3\n        /* \"#utility.yul\":11382:11400   */\n      add\n        /* \"#utility.yul\":11374:11400   */\n      swap1\n      pop\n        /* \"#utility.yul\":11446:11455   */\n      dup2\n        /* \"#utility.yul\":11440:11444   */\n      dup2\n        /* \"#utility.yul\":11436:11456   */\n      sub\n        /* \"#utility.yul\":11432:11433   */\n      0x00\n        /* \"#utility.yul\":11421:11430   */\n      dup4\n        /* \"#utility.yul\":11417:11434   */\n      add\n        /* \"#utility.yul\":11410:11457   */\n      mstore\n        /* \"#utility.yul\":11474:11605   */\n      tag_361\n        /* \"#utility.yul\":11600:11604   */\n      dup2\n        /* \"#utility.yul\":11474:11605   */\n      tag_293\n      jump\t// in\n    tag_361:\n        /* \"#utility.yul\":11466:11605   */\n      swap1\n      pop\n        /* \"#utility.yul\":11193:11612   */\n      swap2\n      swap1\n      pop\n      jump\t// out\n        /* \"#utility.yul\":11618:12037   */\n    tag_68:\n        /* \"#utility.yul\":11784:11788   */\n      0x00\n        /* \"#utility.yul\":11822:11824   */\n      0x20\n        /* \"#utility.yul\":11811:11820   */\n      dup3\n        /* \"#utility.yul\":11807:11825   */\n      add\n        /* \"#utility.yul\":11799:11825   */\n      swap1\n      pop\n        /* \"#utility.yul\":11871:11880   */\n      dup2\n        /* \"#utility.yul\":11865:11869   */\n      dup2\n        /* \"#utility.yul\":11861:11881   */\n      sub\n        /* \"#utility.yul\":11857:11858   */\n      0x00\n        /* \"#utility.yul\":11846:11855   */\n      dup4\n        /* \"#utility.yul\":11842:11859   */\n      add\n        /* \"#utility.yul\":11835:11882   */\n      mstore\n        /* \"#utility.yul\":11899:12030   */\n      tag_363\n        /* \"#utility.yul\":12025:12029   */\n      dup2\n        /* \"#utility.yul\":11899:12030   */\n      tag_298\n      jump\t// in\n    tag_363:\n        /* \"#utility.yul\":11891:12030   */\n      swap1\n      pop\n        /* \"#utility.yul\":11618:12037   */\n      swap2\n      swap1\n      pop\n      jump\t// out\n        /* \"#utility.yul\":12043:12462   */\n    tag_177:\n        /* \"#utility.yul\":12209:12213   */\n      0x00\n        /* \"#utility.yul\":12247:12249   */\n      0x20\n        /* \"#utility.yul\":12236:12245   */\n      dup3\n        /* \"#utility.yul\":12232:12250   */\n      add\n        /* \"#utility.yul\":12224:12250   */\n      swap1\n      pop\n        /* \"#utility.yul\":12296:12305   */\n      dup2\n        /* \"#utility.yul\":12290:12294   */\n      dup2\n        /* \"#utility.yul\":12286:12306   */\n      sub\n        /* \"#utility.yul\":12282:12283   */\n      0x00\n        /* \"#utility.yul\":12271:12280   */\n      dup4\n        /* \"#utility.yul\":12267:12284   */\n      add\n        /* \"#utility.yul\":12260:12307   */\n      mstore\n        /* \"#utility.yul\":12324:12455   */\n      tag_365\n        /* \"#utility.yul\":12450:12454   */\n      dup2\n        /* \"#utility.yul\":12324:12455   */\n      tag_303\n      jump\t// in\n    tag_365:\n        /* \"#utility.yul\":12316:12455   */\n      swap1\n      pop\n        /* \"#utility.yul\":12043:12462   */\n      swap2\n      swap1\n      pop\n      jump\t// out\n        /* \"#utility.yul\":12468:12997   */\n    tag_186:\n        /* \"#utility.yul\":12662:12666   */\n      0x00\n        /* \"#utility.yul\":12700:12702   */\n      0x40\n        /* \"#utility.yul\":12689:12698   */\n      dup3\n        /* \"#utility.yul\":12685:12703   */\n      add\n        /* \"#utility.yul\":12677:12703   */\n      swap1\n      pop\n        /* \"#utility.yul\":12749:12758   */\n      dup2\n        /* \"#utility.yul\":12743:12747   */\n      dup2\n        /* \"#utility.yul\":12739:12759   */\n      sub\n        /* \"#utility.yul\":12735:12736   */\n      0x00\n        /* \"#utility.yul\":12724:12733   */\n      dup4\n        /* \"#utility.yul\":12720:12737   */\n      add\n        /* \"#utility.yul\":12713:12760   */\n      mstore\n        /* \"#utility.yul\":12777:12908   */\n      tag_367\n        /* \"#utility.yul\":12903:12907   */\n      dup2\n        /* \"#utility.yul\":12777:12908   */\n      tag_308\n      jump\t// in\n    tag_367:\n        /* \"#utility.yul\":12769:12908   */\n      swap1\n      pop\n        /* \"#utility.yul\":12918:12990   */\n      tag_368\n        /* \"#utility.yul\":12986:12988   */\n      0x20\n        /* \"#utility.yul\":12975:12984   */\n      dup4\n        /* \"#utility.yul\":12971:12989   */\n      add\n        /* \"#utility.yul\":12962:12968   */\n      dup5\n        /* \"#utility.yul\":12918:12990   */\n      tag_326\n      jump\t// in\n    tag_368:\n        /* \"#utility.yul\":12468:12997   */\n      swap3\n      swap2\n      pop\n      pop\n      jump\t// out\n        /* \"#utility.yul\":13003:13422   */\n    tag_126:\n        /* \"#utility.yul\":13169:13173   */\n      0x00\n        /* \"#utility.yul\":13207:13209   */\n      0x20\n        /* \"#utility.yul\":13196:13205   */\n      dup3\n        /* \"#utility.yul\":13192:13210   */\n      add\n        /* \"#utility.yul\":13184:13210   */\n      swap1\n      pop\n        /* \"#utility.yul\":13256:13265   */\n      dup2\n        /* \"#utility.yul\":13250:13254   */\n      dup2\n        /* \"#utility.yul\":13246:13266   */\n      sub\n        /* \"#utility.yul\":13242:13243   */\n      0x00\n        /* \"#utility.yul\":13231:13240   */\n      dup4\n        /* \"#utility.yul\":13227:13244   */\n      add\n        /* \"#utility.yul\":13220:13267   */\n      mstore\n        /* \"#utility.yul\":13284:13415   */\n      tag_370\n        /* \"#utility.yul\":13410:13414   */\n      dup2\n        /* \"#utility.yul\":13284:13415   */\n      tag_313\n      jump\t// in\n    tag_370:\n        /* \"#utility.yul\":13276:13415   */\n      swap1\n      pop\n        /* \"#utility.yul\":13003:13422   */\n      swap2\n      swap1\n      pop\n      jump\t// out\n        /* \"#utility.yul\":13428:13957   */\n    tag_109:\n        /* \"#utility.yul\":13622:13626   */\n      0x00\n        /* \"#utility.yul\":13660:13662   */\n      0x40\n        /* \"#utility.yul\":13649:13658   */\n      dup3\n        /* \"#utility.yul\":13645:13663   */\n      add\n        /* \"#utility.yul\":13637:13663   */\n      swap1\n      pop\n        /* \"#utility.yul\":13709:13718   */\n      dup2\n        /* \"#utility.yul\":13703:13707   */\n      dup2\n        /* \"#utility.yul\":13699:13719   */\n      sub\n        /* \"#utility.yul\":13695:13696   */\n      0x00\n        /* \"#utility.yul\":13684:13693   */\n      dup4\n        /* \"#utility.yul\":13680:13697   */\n      add\n        /* \"#utility.yul\":13673:13720   */\n      mstore\n        /* \"#utility.yul\":13737:13868   */\n      tag_372\n        /* \"#utility.yul\":13863:13867   */\n      dup2\n        /* \"#utility.yul\":13737:13868   */\n      tag_318\n      jump\t// in\n    tag_372:\n        /* \"#utility.yul\":13729:13868   */\n      swap1\n      pop\n        /* \"#utility.yul\":13878:13950   */\n      tag_373\n        /* \"#utility.yul\":13946:13948   */\n      0x20\n        /* \"#utility.yul\":13935:13944   */\n      dup4\n        /* \"#utility.yul\":13931:13949   */\n      add\n        /* \"#utility.yul\":13922:13928   */\n      dup5\n        /* \"#utility.yul\":13878:13950   */\n      tag_326\n      jump\t// in\n    tag_373:\n        /* \"#utility.yul\":13428:13957   */\n      swap3\n      swap2\n      pop\n      pop\n      jump\t// out\n        /* \"#utility.yul\":13963:14185   */\n    tag_19:\n        /* \"#utility.yul\":14056:14060   */\n      0x00\n        /* \"#utility.yul\":14094:14096   */\n      0x20\n        /* \"#utility.yul\":14083:14092   */\n      dup3\n        /* \"#utility.yul\":14079:14097   */\n      add\n        /* \"#utility.yul\":14071:14097   */\n      swap1\n      pop\n        /* \"#utility.yul\":14107:14178   */\n      tag_375\n        /* \"#utility.yul\":14175:14176   */\n      0x00\n        /* \"#utility.yul\":14164:14173   */\n      dup4\n        /* \"#utility.yul\":14160:14177   */\n      add\n        /* \"#utility.yul\":14151:14157   */\n      dup5\n        /* \"#utility.yul\":14107:14178   */\n      tag_326\n      jump\t// in\n    tag_375:\n        /* \"#utility.yul\":13963:14185   */\n      swap3\n      swap2\n      pop\n      pop\n      jump\t// out\n        /* \"#utility.yul\":14191:14320   */\n    tag_207:\n        /* \"#utility.yul\":14225:14231   */\n      0x00\n        /* \"#utility.yul\":14252:14272   */\n      tag_377\n      tag_378\n      jump\t// in\n    tag_377:\n        /* \"#utility.yul\":14242:14272   */\n      swap1\n      pop\n        /* \"#utility.yul\":14281:14314   */\n      tag_379\n        /* \"#utility.yul\":14309:14313   */\n      dup3\n        /* \"#utility.yul\":14301:14307   */\n      dup3\n        /* \"#utility.yul\":14281:14314   */\n      tag_380\n      jump\t// in\n    tag_379:\n        /* \"#utility.yul\":14191:14320   */\n      swap2\n      swap1\n      pop\n      jump\t// out\n        /* \"#utility.yul\":14326:14401   */\n    tag_378:\n        /* \"#utility.yul\":14359:14365   */\n      0x00\n        /* \"#utility.yul\":14392:14394   */\n      0x40\n        /* \"#utility.yul\":14386:14395   */\n      mload\n        /* \"#utility.yul\":14376:14395   */\n      swap1\n      pop\n        /* \"#utility.yul\":14326:14401   */\n      swap1\n      jump\t// out\n        /* \"#utility.yul\":14407:14715   */\n    tag_206:\n        /* \"#utility.yul\":14469:14473   */\n      0x00\n        /* \"#utility.yul\":14559:14577   */\n      0xffffffffffffffff\n        /* \"#utility.yul\":14551:14557   */\n      dup3\n        /* \"#utility.yul\":14548:14578   */\n      gt\n        /* \"#utility.yul\":14545:14601   */\n      iszero\n      tag_383\n      jumpi\n        /* \"#utility.yul\":14581:14599   */\n      tag_384\n      tag_385\n      jump\t// in\n    tag_384:\n        /* \"#utility.yul\":14545:14601   */\n    tag_383:\n        /* \"#utility.yul\":14619:14648   */\n      tag_386\n        /* \"#utility.yul\":14641:14647   */\n      dup3\n        /* \"#utility.yul\":14619:14648   */\n      tag_280\n      jump\t// in\n    tag_386:\n        /* \"#utility.yul\":14611:14648   */\n      swap1\n      pop\n        /* \"#utility.yul\":14703:14707   */\n      0x20\n        /* \"#utility.yul\":14697:14701   */\n      dup2\n        /* \"#utility.yul\":14693:14708   */\n      add\n        /* \"#utility.yul\":14685:14708   */\n      swap1\n      pop\n        /* \"#utility.yul\":14407:14715   */\n      swap2\n      swap1\n      pop\n      jump\t// out\n        /* \"#utility.yul\":14721:14853   */\n    tag_264:\n        /* \"#utility.yul\":14788:14792   */\n      0x00\n        /* \"#utility.yul\":14811:14814   */\n      dup2\n        /* \"#utility.yul\":14803:14814   */\n      swap1\n      pop\n        /* \"#utility.yul\":14841:14845   */\n      0x20\n        /* \"#utility.yul\":14836:14839   */\n      dup3\n        /* \"#utility.yul\":14832:14846   */\n      add\n        /* \"#utility.yul\":14824:14846   */\n      swap1\n      pop\n        /* \"#utility.yul\":14721:14853   */\n      swap2\n      swap1\n      pop\n      jump\t// out\n        /* \"#utility.yul\":14859:15000   */\n    tag_289:\n        /* \"#utility.yul\":14908:14912   */\n      0x00\n        /* \"#utility.yul\":14931:14934   */\n      dup2\n        /* \"#utility.yul\":14923:14934   */\n      swap1\n      pop\n        /* \"#utility.yul\":14954:14957   */\n      dup2\n        /* \"#utility.yul\":14951:14952   */\n      0x00\n        /* \"#utility.yul\":14944:14958   */\n      mstore\n        /* \"#utility.yul\":14988:14992   */\n      0x20\n        /* \"#utility.yul\":14985:14986   */\n      0x00\n        /* \"#utility.yul\":14975:14993   */\n      keccak256\n        /* \"#utility.yul\":14967:14993   */\n      swap1\n      pop\n        /* \"#utility.yul\":14859:15000   */\n      swap2\n      swap1\n      pop\n      jump\t// out\n        /* \"#utility.yul\":15006:15120   */\n    tag_260:\n        /* \"#utility.yul\":15073:15079   */\n      0x00\n        /* \"#utility.yul\":15107:15112   */\n      dup2\n        /* \"#utility.yul\":15101:15113   */\n      mload\n        /* \"#utility.yul\":15091:15113   */\n      swap1\n      pop\n        /* \"#utility.yul\":15006:15120   */\n      swap2\n      swap1\n      pop\n      jump\t// out\n        /* \"#utility.yul\":15126:15225   */\n    tag_274:\n        /* \"#utility.yul\":15178:15184   */\n      0x00\n        /* \"#utility.yul\":15212:15217   */\n      dup2\n        /* \"#utility.yul\":15206:15218   */\n      mload\n        /* \"#utility.yul\":15196:15218   */\n      swap1\n      pop\n        /* \"#utility.yul\":15126:15225   */\n      swap2\n      swap1\n      pop\n      jump\t// out\n        /* \"#utility.yul\":15231:15344   */\n    tag_270:\n        /* \"#utility.yul\":15301:15305   */\n      0x00\n        /* \"#utility.yul\":15333:15337   */\n      0x20\n        /* \"#utility.yul\":15328:15331   */\n      dup3\n        /* \"#utility.yul\":15324:15338   */\n      add\n        /* \"#utility.yul\":15316:15338   */\n      swap1\n      pop\n        /* \"#utility.yul\":15231:15344   */\n      swap2\n      swap1\n      pop\n      jump\t// out\n        /* \"#utility.yul\":15350:15534   */\n    tag_262:\n        /* \"#utility.yul\":15449:15460   */\n      0x00\n        /* \"#utility.yul\":15483:15489   */\n      dup3\n        /* \"#utility.yul\":15478:15481   */\n      dup3\n        /* \"#utility.yul\":15471:15490   */\n      mstore\n        /* \"#utility.yul\":15523:15527   */\n      0x20\n        /* \"#utility.yul\":15518:15521   */\n      dup3\n        /* \"#utility.yul\":15514:15528   */\n      add\n        /* \"#utility.yul\":15499:15528   */\n      swap1\n      pop\n        /* \"#utility.yul\":15350:15534   */\n      swap3\n      swap2\n      pop\n      pop\n      jump\t// out\n        /* \"#utility.yul\":15540:15709   */\n    tag_276:\n        /* \"#utility.yul\":15624:15635   */\n      0x00\n        /* \"#utility.yul\":15658:15664   */\n      dup3\n        /* \"#utility.yul\":15653:15656   */\n      dup3\n        /* \"#utility.yul\":15646:15665   */\n      mstore\n        /* \"#utility.yul\":15698:15702   */\n      0x20\n        /* \"#utility.yul\":15693:15696   */\n      dup3\n        /* \"#utility.yul\":15689:15703   */\n      add\n        /* \"#utility.yul\":15674:15703   */\n      swap1\n      pop\n        /* \"#utility.yul\":15540:15709   */\n      swap3\n      swap2\n      pop\n      pop\n      jump\t// out\n        /* \"#utility.yul\":15715:16020   */\n    tag_71:\n        /* \"#utility.yul\":15755:15758   */\n      0x00\n        /* \"#utility.yul\":15774:15794   */\n      tag_395\n        /* \"#utility.yul\":15792:15793   */\n      dup3\n        /* \"#utility.yul\":15774:15794   */\n      tag_325\n      jump\t// in\n    tag_395:\n        /* \"#utility.yul\":15769:15794   */\n      swap2\n      pop\n        /* \"#utility.yul\":15808:15828   */\n      tag_396\n        /* \"#utility.yul\":15826:15827   */\n      dup4\n        /* \"#utility.yul\":15808:15828   */\n      tag_325\n      jump\t// in\n    tag_396:\n        /* \"#utility.yul\":15803:15828   */\n      swap3\n      pop\n        /* \"#utility.yul\":15962:15963   */\n      dup3\n        /* \"#utility.yul\":15894:15960   */\n      0xffffffffffffffffffffffffffffffffffffffffffffffffffffffffffffffff\n        /* \"#utility.yul\":15890:15964   */\n      sub\n        /* \"#utility.yul\":15887:15888   */\n      dup3\n        /* \"#utility.yul\":15884:15965   */\n      gt\n        /* \"#utility.yul\":15881:15988   */\n      iszero\n      tag_397\n      jumpi\n        /* \"#utility.yul\":15968:15986   */\n      tag_398\n      tag_399\n      jump\t// in\n    tag_398:\n        /* \"#utility.yul\":15881:15988   */\n    tag_397:\n        /* \"#utility.yul\":16012:16013   */\n      dup3\n        /* \"#utility.yul\":16009:16010   */\n      dup3\n        /* \"#utility.yul\":16005:16014   */\n      add\n        /* \"#utility.yul\":15998:16014   */\n      swap1\n      pop\n        /* \"#utility.yul\":15715:16020   */\n      swap3\n      swap2\n      pop\n      pop\n      jump\t// out\n        /* \"#utility.yul\":16026:16374   */\n    tag_181:\n        /* \"#utility.yul\":16066:16073   */\n      0x00\n        /* \"#utility.yul\":16089:16109   */\n      tag_401\n        /* \"#utility.yul\":16107:16108   */\n      dup3\n        /* \"#utility.yul\":16089:16109   */\n      tag_325\n      jump\t// in\n    tag_401:\n        /* \"#utility.yul\":16084:16109   */\n      swap2\n      pop\n        /* \"#utility.yul\":16123:16143   */\n      tag_402\n        /* \"#utility.yul\":16141:16142   */\n      dup4\n        /* \"#utility.yul\":16123:16143   */\n      tag_325\n      jump\t// in\n    tag_402:\n        /* \"#utility.yul\":16118:16143   */\n      swap3\n      pop\n        /* \"#utility.yul\":16311:16312   */\n      dup2\n        /* \"#utility.yul\":16243:16309   */\n      0xffffffffffffffffffffffffffffffffffffffffffffffffffffffffffffffff\n        /* \"#utility.yul\":16239:16313   */\n      div\n        /* \"#utility.yul\":16236:16237   */\n      dup4\n        /* \"#utility.yul\":16233:16314   */\n      gt\n        /* \"#utility.yul\":16228:16229   */\n      dup3\n        /* \"#utility.yul\":16221:16230   */\n      iszero\n        /* \"#utility.yul\":16214:16231   */\n      iszero\n        /* \"#utility.yul\":16210:16315   */\n      and\n        /* \"#utility.yul\":16207:16338   */\n      iszero\n      tag_403\n      jumpi\n        /* \"#utility.yul\":16318:16336   */\n      tag_404\n      tag_399\n      jump\t// in\n    tag_404:\n        /* \"#utility.yul\":16207:16338   */\n    tag_403:\n        /* \"#utility.yul\":16366:16367   */\n      dup3\n        /* \"#utility.yul\":16363:16364   */\n      dup3\n        /* \"#utility.yul\":16359:16368   */\n      mul\n        /* \"#utility.yul\":16348:16368   */\n      swap1\n      pop\n        /* \"#utility.yul\":16026:16374   */\n      swap3\n      swap2\n      pop\n      pop\n      jump\t// out\n        /* \"#utility.yul\":16380:16571   */\n    tag_81:\n        /* \"#utility.yul\":16420:16424   */\n      0x00\n        /* \"#utility.yul\":16440:16460   */\n      tag_406\n        /* \"#utility.yul\":16458:16459   */\n      dup3\n        /* \"#utility.yul\":16440:16460   */\n      tag_325\n      jump\t// in\n    tag_406:\n        /* \"#utility.yul\":16435:16460   */\n      swap2\n      pop\n        /* \"#utility.yul\":16474:16494   */\n      tag_407\n        /* \"#utility.yul\":16492:16493   */\n      dup4\n        /* \"#utility.yul\":16474:16494   */\n      tag_325\n      jump\t// in\n    tag_407:\n        /* \"#utility.yul\":16469:16494   */\n      swap3\n      pop\n        /* \"#utility.yul\":16513:16514   */\n      dup3\n        /* \"#utility.yul\":16510:16511   */\n      dup3\n        /* \"#utility.yul\":16507:16515   */\n      lt\n        /* \"#utility.yul\":16504:16538   */\n      iszero\n      tag_408\n      jumpi\n        /* \"#utility.yul\":16518:16536   */\n      tag_409\n      tag_399\n      jump\t// in\n    tag_409:\n        /* \"#utility.yul\":16504:16538   */\n    tag_408:\n        /* \"#utility.yul\":16563:16564   */\n      dup3\n        /* \"#utility.yul\":16560:16561   */\n      dup3\n        /* \"#utility.yul\":16556:16565   */\n      sub\n        /* \"#utility.yul\":16548:16565   */\n      swap1\n      pop\n        /* \"#utility.yul\":16380:16571   */\n      swap3\n      swap2\n      pop\n      pop\n      jump\t// out\n        /* \"#utility.yul\":16577:16673   */\n    tag_256:\n        /* \"#utility.yul\":16614:16621   */\n      0x00\n        /* \"#utility.yul\":16643:16667   */\n      tag_411\n        /* \"#utility.yul\":16661:16666   */\n      dup3\n        /* \"#utility.yul\":16643:16667   */\n      tag_412\n      jump\t// in\n    tag_411:\n        /* \"#utility.yul\":16632:16667   */\n      swap1\n      pop\n        /* \"#utility.yul\":16577:16673   */\n      swap2\n      swap1\n      pop\n      jump\t// out\n        /* \"#utility.yul\":16679:16805   */\n    tag_412:\n        /* \"#utility.yul\":16716:16723   */\n      0x00\n        /* \"#utility.yul\":16756:16798   */\n      0xffffffffffffffffffffffffffffffffffffffff\n        /* \"#utility.yul\":16749:16754   */\n      dup3\n        /* \"#utility.yul\":16745:16799   */\n      and\n        /* \"#utility.yul\":16734:16799   */\n      swap1\n      pop\n        /* \"#utility.yul\":16679:16805   */\n      swap2\n      swap1\n      pop\n      jump\t// out\n        /* \"#utility.yul\":16811:16888   */\n    tag_325:\n        /* \"#utility.yul\":16848:16855   */\n      0x00\n        /* \"#utility.yul\":16877:16882   */\n      dup2\n        /* \"#utility.yul\":16866:16882   */\n      swap1\n      pop\n        /* \"#utility.yul\":16811:16888   */\n      swap2\n      swap1\n      pop\n      jump\t// out\n        /* \"#utility.yul\":16894:16987   */\n    tag_337:\n        /* \"#utility.yul\":16930:16937   */\n      0x00\n        /* \"#utility.yul\":16970:16980   */\n      0xffffffff\n        /* \"#utility.yul\":16963:16968   */\n      dup3\n        /* \"#utility.yul\":16959:16981   */\n      and\n        /* \"#utility.yul\":16948:16981   */\n      swap1\n      pop\n        /* \"#utility.yul\":16894:16987   */\n      swap2\n      swap1\n      pop\n      jump\t// out\n        /* \"#utility.yul\":16993:17147   */\n    tag_212:\n        /* \"#utility.yul\":17077:17083   */\n      dup3\n        /* \"#utility.yul\":17072:17075   */\n      dup2\n        /* \"#utility.yul\":17067:17070   */\n      dup4\n        /* \"#utility.yul\":17054:17084   */\n      calldatacopy\n        /* \"#utility.yul\":17139:17140   */\n      0x00\n        /* \"#utility.yul\":17130:17136   */\n      dup4\n        /* \"#utility.yul\":17125:17128   */\n      dup4\n        /* \"#utility.yul\":17121:17137   */\n      add\n        /* \"#utility.yul\":17114:17141   */\n      mstore\n        /* \"#utility.yul\":16993:17147   */\n      pop\n      pop\n      pop\n      jump\t// out\n        /* \"#utility.yul\":17153:17460   */\n    tag_278:\n        /* \"#utility.yul\":17221:17222   */\n      0x00\n        /* \"#utility.yul\":17231:17344   */\n    tag_418:\n        /* \"#utility.yul\":17245:17251   */\n      dup4\n        /* \"#utility.yul\":17242:17243   */\n      dup2\n        /* \"#utility.yul\":17239:17252   */\n      lt\n        /* \"#utility.yul\":17231:17344   */\n      iszero\n      tag_420\n      jumpi\n        /* \"#utility.yul\":17330:17331   */\n      dup1\n        /* \"#utility.yul\":17325:17328   */\n      dup3\n        /* \"#utility.yul\":17321:17332   */\n      add\n        /* \"#utility.yul\":17315:17333   */\n      mload\n        /* \"#utility.yul\":17311:17312   */\n      dup2\n        /* \"#utility.yul\":17306:17309   */\n      dup5\n        /* \"#utility.yul\":17302:17313   */\n      add\n        /* \"#utility.yul\":17295:17334   */\n      mstore\n        /* \"#utility.yul\":17267:17269   */\n      0x20\n        /* \"#utility.yul\":17264:17265   */\n      dup2\n        /* \"#utility.yul\":17260:17270   */\n      add\n        /* \"#utility.yul\":17255:17270   */\n      swap1\n      pop\n        /* \"#utility.yul\":17231:17344   */\n      jump(tag_418)\n    tag_420:\n        /* \"#utility.yul\":17362:17368   */\n      dup4\n        /* \"#utility.yul\":17359:17360   */\n      dup2\n        /* \"#utility.yul\":17356:17369   */\n      gt\n        /* \"#utility.yul\":17353:17454   */\n      iszero\n      tag_421\n      jumpi\n        /* \"#utility.yul\":17442:17443   */\n      0x00\n        /* \"#utility.yul\":17433:17439   */\n      dup5\n        /* \"#utility.yul\":17428:17431   */\n      dup5\n        /* \"#utility.yul\":17424:17440   */\n      add\n        /* \"#utility.yul\":17417:17444   */\n      mstore\n        /* \"#utility.yul\":17353:17454   */\n    tag_421:\n        /* \"#utility.yul\":17202:17460   */\n      pop\n        /* \"#utility.yul\":17153:17460   */\n      pop\n      pop\n      pop\n      jump\t// out\n        /* \"#utility.yul\":17466:17786   */\n    tag_134:\n        /* \"#utility.yul\":17510:17516   */\n      0x00\n        /* \"#utility.yul\":17547:17548   */\n      0x02\n        /* \"#utility.yul\":17541:17545   */\n      dup3\n        /* \"#utility.yul\":17537:17549   */\n      div\n        /* \"#utility.yul\":17527:17549   */\n      swap1\n      pop\n        /* \"#utility.yul\":17594:17595   */\n      0x01\n        /* \"#utility.yul\":17588:17592   */\n      dup3\n        /* \"#utility.yul\":17584:17596   */\n      and\n        /* \"#utility.yul\":17615:17633   */\n      dup1\n        /* \"#utility.yul\":17605:17686   */\n      tag_423\n      jumpi\n        /* \"#utility.yul\":17671:17675   */\n      0x7f\n        /* \"#utility.yul\":17663:17669   */\n      dup3\n        /* \"#utility.yul\":17659:17676   */\n      and\n        /* \"#utility.yul\":17649:17676   */\n      swap2\n      pop\n        /* \"#utility.yul\":17605:17686   */\n    tag_423:\n        /* \"#utility.yul\":17733:17735   */\n      0x20\n        /* \"#utility.yul\":17725:17731   */\n      dup3\n        /* \"#utility.yul\":17722:17736   */\n      lt\n        /* \"#utility.yul\":17702:17720   */\n      dup2\n        /* \"#utility.yul\":17699:17737   */\n      eq\n        /* \"#utility.yul\":17696:17780   */\n      iszero\n      tag_424\n      jumpi\n        /* \"#utility.yul\":17752:17770   */\n      tag_425\n      tag_426\n      jump\t// in\n    tag_425:\n        /* \"#utility.yul\":17696:17780   */\n    tag_424:\n        /* \"#utility.yul\":17517:17786   */\n      pop\n        /* \"#utility.yul\":17466:17786   */\n      swap2\n      swap1\n      pop\n      jump\t// out\n        /* \"#utility.yul\":17792:18073   */\n    tag_380:\n        /* \"#utility.yul\":17875:17902   */\n      tag_428\n        /* \"#utility.yul\":17897:17901   */\n      dup3\n        /* \"#utility.yul\":17875:17902   */\n      tag_280\n      jump\t// in\n    tag_428:\n        /* \"#utility.yul\":17867:17873   */\n      dup2\n        /* \"#utility.yul\":17863:17903   */\n      add\n        /* \"#utility.yul\":18005:18011   */\n      dup2\n        /* \"#utility.yul\":17993:18003   */\n      dup2\n        /* \"#utility.yul\":17990:18012   */\n      lt\n        /* \"#utility.yul\":17969:17987   */\n      0xffffffffffffffff\n        /* \"#utility.yul\":17957:17967   */\n      dup3\n        /* \"#utility.yul\":17954:17988   */\n      gt\n        /* \"#utility.yul\":17951:18013   */\n      or\n        /* \"#utility.yul\":17948:18036   */\n      iszero\n      tag_429\n      jumpi\n        /* \"#utility.yul\":18016:18034   */\n      tag_430\n      tag_385\n      jump\t// in\n    tag_430:\n        /* \"#utility.yul\":17948:18036   */\n    tag_429:\n        /* \"#utility.yul\":18056:18066   */\n      dup1\n        /* \"#utility.yul\":18052:18054   */\n      0x40\n        /* \"#utility.yul\":18045:18067   */\n      mstore\n        /* \"#utility.yul\":17835:18073   */\n      pop\n        /* \"#utility.yul\":17792:18073   */\n      pop\n      pop\n      jump\t// out\n        /* \"#utility.yul\":18079:18312   */\n    tag_78:\n        /* \"#utility.yul\":18118:18121   */\n      0x00\n        /* \"#utility.yul\":18141:18165   */\n      tag_432\n        /* \"#utility.yul\":18159:18164   */\n      dup3\n        /* \"#utility.yul\":18141:18165   */\n      tag_325\n      jump\t// in\n    tag_432:\n        /* \"#utility.yul\":18132:18165   */\n      swap2\n      pop\n        /* \"#utility.yul\":18187:18253   */\n      0xffffffffffffffffffffffffffffffffffffffffffffffffffffffffffffffff\n        /* \"#utility.yul\":18180:18185   */\n      dup3\n        /* \"#utility.yul\":18177:18254   */\n      eq\n        /* \"#utility.yul\":18174:18277   */\n      iszero\n      tag_433\n      jumpi\n        /* \"#utility.yul\":18257:18275   */\n      tag_434\n      tag_399\n      jump\t// in\n    tag_434:\n        /* \"#utility.yul\":18174:18277   */\n    tag_433:\n        /* \"#utility.yul\":18304:18305   */\n      0x01\n        /* \"#utility.yul\":18297:18302   */\n      dup3\n        /* \"#utility.yul\":18293:18306   */\n      add\n        /* \"#utility.yul\":18286:18306   */\n      swap1\n      pop\n        /* \"#utility.yul\":18079:18312   */\n      swap2\n      swap1\n      pop\n      jump\t// out\n        /* \"#utility.yul\":18318:18397   */\n    tag_333:\n        /* \"#utility.yul\":18357:18364   */\n      0x00\n        /* \"#utility.yul\":18386:18391   */\n      dup2\n        /* \"#utility.yul\":18375:18391   */\n      swap1\n      pop\n        /* \"#utility.yul\":18318:18397   */\n      swap2\n      swap1\n      pop\n      jump\t// out\n        /* \"#utility.yul\":18403:18579   */\n    tag_88:\n        /* \"#utility.yul\":18435:18436   */\n      0x00\n        /* \"#utility.yul\":18452:18472   */\n      tag_437\n        /* \"#utility.yul\":18470:18471   */\n      dup3\n        /* \"#utility.yul\":18452:18472   */\n      tag_325\n      jump\t// in\n    tag_437:\n        /* \"#utility.yul\":18447:18472   */\n      swap2\n      pop\n        /* \"#utility.yul\":18486:18506   */\n      tag_438\n        /* \"#utility.yul\":18504:18505   */\n      dup4\n        /* \"#utility.yul\":18486:18506   */\n      tag_325\n      jump\t// in\n    tag_438:\n        /* \"#utility.yul\":18481:18506   */\n      swap3\n      pop\n        /* \"#utility.yul\":18525:18526   */\n      dup3\n        /* \"#utility.yul\":18515:18550   */\n      tag_439\n      jumpi\n        /* \"#utility.yul\":18530:18548   */\n      tag_440\n      tag_441\n      jump\t// in\n    tag_440:\n        /* \"#utility.yul\":18515:18550   */\n    tag_439:\n        /* \"#utility.yul\":18571:18572   */\n      dup3\n        /* \"#utility.yul\":18568:18569   */\n      dup3\n        /* \"#utility.yul\":18564:18573   */\n      mod\n        /* \"#utility.yul\":18559:18573   */\n      swap1\n      pop\n        /* \"#utility.yul\":18403:18579   */\n      swap3\n      swap2\n      pop\n      pop\n      jump\t// out\n        /* \"#utility.yul\":18585:18765   */\n    tag_399:\n        /* \"#utility.yul\":18633:18710   */\n      0x4e487b7100000000000000000000000000000000000000000000000000000000\n        /* \"#utility.yul\":18630:18631   */\n      0x00\n        /* \"#utility.yul\":18623:18711   */\n      mstore\n        /* \"#utility.yul\":18730:18734   */\n      0x11\n        /* \"#utility.yul\":18727:18728   */\n      0x04\n        /* \"#utility.yul\":18720:18735   */\n      mstore\n        /* \"#utility.yul\":18754:18758   */\n      0x24\n        /* \"#utility.yul\":18751:18752   */\n      0x00\n        /* \"#utility.yul\":18744:18759   */\n      revert\n        /* \"#utility.yul\":18771:18951   */\n    tag_441:\n        /* \"#utility.yul\":18819:18896   */\n      0x4e487b7100000000000000000000000000000000000000000000000000000000\n        /* \"#utility.yul\":18816:18817   */\n      0x00\n        /* \"#utility.yul\":18809:18897   */\n      mstore\n        /* \"#utility.yul\":18916:18920   */\n      0x12\n        /* \"#utility.yul\":18913:18914   */\n      0x04\n        /* \"#utility.yul\":18906:18921   */\n      mstore\n        /* \"#utility.yul\":18940:18944   */\n      0x24\n        /* \"#utility.yul\":18937:18938   */\n      0x00\n        /* \"#utility.yul\":18930:18945   */\n      revert\n        /* \"#utility.yul\":18957:19137   */\n    tag_426:\n        /* \"#utility.yul\":19005:19082   */\n      0x4e487b7100000000000000000000000000000000000000000000000000000000\n        /* \"#utility.yul\":19002:19003   */\n      0x00\n        /* \"#utility.yul\":18995:19083   */\n      mstore\n        /* \"#utility.yul\":19102:19106   */\n      0x22\n        /* \"#utility.yul\":19099:19100   */\n      0x04\n        /* \"#utility.yul\":19092:19107   */\n      mstore\n        /* \"#utility.yul\":19126:19130   */\n      0x24\n        /* \"#utility.yul\":19123:19124   */\n      0x00\n        /* \"#utility.yul\":19116:19131   */\n      revert\n        /* \"#utility.yul\":19143:19323   */\n    tag_97:\n        /* \"#utility.yul\":19191:19268   */\n      0x4e487b7100000000000000000000000000000000000000000000000000000000\n        /* \"#utility.yul\":19188:19189   */\n      0x00\n        /* \"#utility.yul\":19181:19269   */\n      mstore\n        /* \"#utility.yul\":19288:19292   */\n      0x32\n        /* \"#utility.yul\":19285:19286   */\n      0x04\n        /* \"#utility.yul\":19278:19293   */\n      mstore\n        /* \"#utility.yul\":19312:19316   */\n      0x24\n        /* \"#utility.yul\":19309:19310   */\n      0x00\n        /* \"#utility.yul\":19302:19317   */\n      revert\n        /* \"#utility.yul\":19329:19509   */\n    tag_385:\n        /* \"#utility.yul\":19377:19454   */\n      0x4e487b7100000000000000000000000000000000000000000000000000000000\n        /* \"#utility.yul\":19374:19375   */\n      0x00\n        /* \"#utility.yul\":19367:19455   */\n      mstore\n        /* \"#utility.yul\":19474:19478   */\n      0x41\n        /* \"#utility.yul\":19471:19472   */\n      0x04\n        /* \"#utility.yul\":19464:19479   */\n      mstore\n        /* \"#utility.yul\":19498:19502   */\n      0x24\n        /* \"#utility.yul\":19495:19496   */\n      0x00\n        /* \"#utility.yul\":19488:19503   */\n      revert\n        /* \"#utility.yul\":19515:19632   */\n    tag_221:\n        /* \"#utility.yul\":19624:19625   */\n      0x00\n        /* \"#utility.yul\":19621:19622   */\n      dup1\n        /* \"#utility.yul\":19614:19626   */\n      revert\n        /* \"#utility.yul\":19638:19755   */\n    tag_210:\n        /* \"#utility.yul\":19747:19748   */\n      0x00\n        /* \"#utility.yul\":19744:19745   */\n      dup1\n        /* \"#utility.yul\":19737:19749   */\n      revert\n        /* \"#utility.yul\":19761:19878   */\n    tag_237:\n        /* \"#utility.yul\":19870:19871   */\n      0x00\n        /* \"#utility.yul\":19867:19868   */\n      dup1\n        /* \"#utility.yul\":19860:19872   */\n      revert\n        /* \"#utility.yul\":19884:20001   */\n    tag_230:\n        /* \"#utility.yul\":19993:19994   */\n      0x00\n        /* \"#utility.yul\":19990:19991   */\n      dup1\n        /* \"#utility.yul\":19983:19995   */\n      revert\n        /* \"#utility.yul\":20007:20109   */\n    tag_280:\n        /* \"#utility.yul\":20048:20054   */\n      0x00\n        /* \"#utility.yul\":20099:20101   */\n      0x1f\n        /* \"#utility.yul\":20095:20102   */\n      not\n        /* \"#utility.yul\":20090:20092   */\n      0x1f\n        /* \"#utility.yul\":20083:20088   */\n      dup4\n        /* \"#utility.yul\":20079:20093   */\n      add\n        /* \"#utility.yul\":20075:20103   */\n      and\n        /* \"#utility.yul\":20065:20103   */\n      swap1\n      pop\n        /* \"#utility.yul\":20007:20109   */\n      swap2\n      swap1\n      pop\n      jump\t// out\n        /* \"#utility.yul\":20115:20280   */\n    tag_297:\n        /* \"#utility.yul\":20255:20272   */\n      0x4e6f207469656e6520636f636865730000000000000000000000000000000000\n        /* \"#utility.yul\":20251:20252   */\n      0x00\n        /* \"#utility.yul\":20243:20249   */\n      dup3\n        /* \"#utility.yul\":20239:20253   */\n      add\n        /* \"#utility.yul\":20232:20273   */\n      mstore\n        /* \"#utility.yul\":20115:20280   */\n      pop\n      jump\t// out\n        /* \"#utility.yul\":20286:20513   */\n    tag_302:\n        /* \"#utility.yul\":20426:20460   */\n      0x536f6c6f2073652070756564652074656e657220756e20636f63686520706f72\n        /* \"#utility.yul\":20422:20423   */\n      0x00\n        /* \"#utility.yul\":20414:20420   */\n      dup3\n        /* \"#utility.yul\":20410:20424   */\n      add\n        /* \"#utility.yul\":20403:20461   */\n      mstore\n        /* \"#utility.yul\":20495:20505   */\n      0x20706572736f6e61000000000000000000000000000000000000000000000000\n        /* \"#utility.yul\":20490:20492   */\n      0x20\n        /* \"#utility.yul\":20482:20488   */\n      dup3\n        /* \"#utility.yul\":20478:20493   */\n      add\n        /* \"#utility.yul\":20471:20506   */\n      mstore\n        /* \"#utility.yul\":20286:20513   */\n      pop\n      jump\t// out\n        /* \"#utility.yul\":20519:20744   */\n    tag_307:\n        /* \"#utility.yul\":20659:20693   */\n      0x4f776e61626c653a206e6577206f776e657220697320746865207a65726f2061\n        /* \"#utility.yul\":20655:20656   */\n      0x00\n        /* \"#utility.yul\":20647:20653   */\n      dup3\n        /* \"#utility.yul\":20643:20657   */\n      add\n        /* \"#utility.yul\":20636:20694   */\n      mstore\n        /* \"#utility.yul\":20728:20736   */\n      0x6464726573730000000000000000000000000000000000000000000000000000\n        /* \"#utility.yul\":20723:20725   */\n      0x20\n        /* \"#utility.yul\":20715:20721   */\n      dup3\n        /* \"#utility.yul\":20711:20726   */\n      add\n        /* \"#utility.yul\":20704:20737   */\n      mstore\n        /* \"#utility.yul\":20519:20744   */\n      pop\n      jump\t// out\n        /* \"#utility.yul\":20750:20912   */\n    tag_312:\n        /* \"#utility.yul\":20890:20904   */\n      0x4861732067616e61646f3a200000000000000000000000000000000000000000\n        /* \"#utility.yul\":20886:20887   */\n      0x00\n        /* \"#utility.yul\":20878:20884   */\n      dup3\n        /* \"#utility.yul\":20874:20888   */\n      add\n        /* \"#utility.yul\":20867:20905   */\n      mstore\n        /* \"#utility.yul\":20750:20912   */\n      pop\n      jump\t// out\n        /* \"#utility.yul\":20918:21100   */\n    tag_317:\n        /* \"#utility.yul\":21058:21092   */\n      0x4f776e61626c653a2063616c6c6572206973206e6f7420746865206f776e6572\n        /* \"#utility.yul\":21054:21055   */\n      0x00\n        /* \"#utility.yul\":21046:21052   */\n      dup3\n        /* \"#utility.yul\":21042:21056   */\n      add\n        /* \"#utility.yul\":21035:21093   */\n      mstore\n        /* \"#utility.yul\":20918:21100   */\n      pop\n      jump\t// out\n        /* \"#utility.yul\":21106:21277   */\n    tag_322:\n        /* \"#utility.yul\":21246:21269   */\n      0x456c20636f6368652067616e61646f722065733a200000000000000000000000\n        /* \"#utility.yul\":21242:21243   */\n      0x00\n        /* \"#utility.yul\":21234:21240   */\n      dup3\n        /* \"#utility.yul\":21230:21244   */\n      add\n        /* \"#utility.yul\":21223:21270   */\n      mstore\n        /* \"#utility.yul\":21106:21277   */\n      pop\n      jump\t// out\n        /* \"#utility.yul\":21283:21405   */\n    tag_216:\n        /* \"#utility.yul\":21356:21380   */\n      tag_459\n        /* \"#utility.yul\":21374:21379   */\n      dup2\n        /* \"#utility.yul\":21356:21380   */\n      tag_256\n      jump\t// in\n    tag_459:\n        /* \"#utility.yul\":21349:21354   */\n      dup2\n        /* \"#utility.yul\":21346:21381   */\n      eq\n        /* \"#utility.yul\":21336:21399   */\n      tag_460\n      jumpi\n        /* \"#utility.yul\":21395:21396   */\n      0x00\n        /* \"#utility.yul\":21392:21393   */\n      dup1\n        /* \"#utility.yul\":21385:21397   */\n      revert\n        /* \"#utility.yul\":21336:21399   */\n    tag_460:\n        /* \"#utility.yul\":21283:21405   */\n      pop\n      jump\t// out\n        /* \"#utility.yul\":21411:21533   */\n    tag_226:\n        /* \"#utility.yul\":21484:21508   */\n      tag_462\n        /* \"#utility.yul\":21502:21507   */\n      dup2\n        /* \"#utility.yul\":21484:21508   */\n      tag_325\n      jump\t// in\n    tag_462:\n        /* \"#utility.yul\":21477:21482   */\n      dup2\n        /* \"#utility.yul\":21474:21509   */\n      eq\n        /* \"#utility.yul\":21464:21527   */\n      tag_463\n      jumpi\n        /* \"#utility.yul\":21523:21524   */\n      0x00\n        /* \"#utility.yul\":21520:21521   */\n      dup1\n        /* \"#utility.yul\":21513:21525   */\n      revert\n        /* \"#utility.yul\":21464:21527   */\n    tag_463:\n        /* \"#utility.yul\":21411:21533   */\n      pop\n      jump\t// out\n\n    auxdata: 0xa2646970667358221220e7de41489f261c09827d91e98c0557965ffb5894116615ea238ad939577a4b8f64736f6c63430008070033\n}\n",
				"bytecode": {
					"linkReferences": {},
					"object": "608060405260006001556000600255603c60035534801561001f57600080fd5b5061003c61003161004160201b60201c565b61004960201b60201c565b61010d565b600033905090565b60008060009054906101000a900473ffffffffffffffffffffffffffffffffffffffff169050816000806101000a81548173ffffffffffffffffffffffffffffffffffffffff021916908373ffffffffffffffffffffffffffffffffffffffff1602179055508173ffffffffffffffffffffffffffffffffffffffff168173ffffffffffffffffffffffffffffffffffffffff167f8be0079c531659141344cd1fd0a4f28419497f9722a3daafe3b4186f6b6457e060405160405180910390a35050565b611b868061011c6000396000f3fe6080604052600436106100915760003560e01c80638da5cb5b116100595780638da5cb5b14610194578063d735573d146101bf578063e172fca814610203578063f141376314610240578063f2fde38b1461026b57610091565b80631c6743e4146100965780632458c544146100d35780636b6f049414610110578063715018a614610140578063858b055414610157575b600080fd5b3480156100a257600080fd5b506100bd60048036038101906100b89190611005565b610294565b6040516100ca919061159c565b60405180910390f35b3480156100df57600080fd5b506100fa60048036038101906100f59190611032565b6102ac565b604051610107919061159c565b60405180910390f35b61012a600480360381019061012591906110d9565b61058e565b6040516101379190611467565b60405180910390f35b34801561014c57600080fd5b506101556107ca565b005b34801561016357600080fd5b5061017e600480360381019061017991906110d9565b610852565b60405161018b9190611397565b60405180910390f35b3480156101a057600080fd5b506101a9610885565b6040516101b69190611397565b60405180910390f35b3480156101cb57600080fd5b506101e660048036038101906101e191906110d9565b6108ae565b6040516101fa9897969594939291906113b2565b60405180910390f35b34801561020f57600080fd5b5061022a60048036038101906102259190611005565b610ace565b6040516102379190611445565b60405180910390f35b34801561024c57600080fd5b50610255610c1e565b604051610262919061159c565b60405180910390f35b34801561027757600080fd5b50610292600480360381019061028d9190611005565b610c6c565b005b60066020528060005260406000206000915090505481565b60006001600660003373ffffffffffffffffffffffffffffffffffffffff1673ffffffffffffffffffffffffffffffffffffffff1681526020019081526020016000205410610330576040517f08c379a0000000000000000000000000000000000000000000000000000000008152600401610327906114e0565b60405180910390fd5b60046040518061010001604052803373ffffffffffffffffffffffffffffffffffffffff1681526020018681526020018581526020018481526020016000815260200160008152602001600354426103889190611677565b63ffffffff168152602001600063ffffffff16815250908060018154018082558091505060019003906000526020600020906008020160009091909190915060008201518160000160006101000a81548173ffffffffffffffffffffffffffffffffffffffff021916908373ffffffffffffffffffffffffffffffffffffffff160217905550602082015181600101908051906020019061042a929190610ec8565b506040820151816002019080519060200190610447929190610ec8565b506060820151816003019080519060200190610464929190610ec8565b506080820151816004015560a0820151816005015560c0820151816006015560e08201518160070160006101000a81548163ffffffff021916908363ffffffff160217905550505060006004805490509050336005600083815260200190815260200160002060006101000a81548173ffffffffffffffffffffffffffffffffffffffff021916908373ffffffffffffffffffffffffffffffffffffffff160217905550600660003373ffffffffffffffffffffffffffffffffffffffff1673ffffffffffffffffffffffffffffffffffffffff16815260200190815260200160002060008154809291906105589061184c565b9190505550600260008154809291906105709061184c565b919050555060016002546105849190611727565b9150509392505050565b606081341461059c57600080fd5b600160008154809291906105af9061184c565b91905055506000600480549050426004805490506001546040516020016105d89392919061135a565b6040516020818303038152906040528051906020012060001c6105fb919061189f565b9050600160008154809291906106109061184c565b919050555060006002905060008142836001546040516020016106359392919061135a565b6040516020818303038152906040528051906020012060001c610658919061189f565b905060005b6004805490508110156107c0576004818154811061067e5761067d61195d565b5b906000526020600020906008020160000160009054906101000a900473ffffffffffffffffffffffffffffffffffffffff1673ffffffffffffffffffffffffffffffffffffffff163373ffffffffffffffffffffffffffffffffffffffff1614156107ad576000821415610735576106f4610d64565b6040518060400160405280600a81526020017f4861732067616e61646f000000000000000000000000000000000000000000008152509450505050506107c5565b7fa28482eec3136a2461c6c30c08f71ba279c6c51a2d9c7bea4e50d6d2632f389684604051610764919061156e565b60405180910390a16040518060400160405280600b81526020017f486173207065726469646f0000000000000000000000000000000000000000008152509450505050506107c5565b80806107b89061184c565b91505061065d565b505050505b919050565b6107d2610dfc565b73ffffffffffffffffffffffffffffffffffffffff166107f0610885565b73ffffffffffffffffffffffffffffffffffffffff1614610846576040517f08c379a000000000000000000000000000000000000000000000000000000000815260040161083d9061154e565b60405180910390fd5b6108506000610e04565b565b60056020528060005260406000206000915054906101000a900473ffffffffffffffffffffffffffffffffffffffff1681565b60008060009054906101000a900473ffffffffffffffffffffffffffffffffffffffff16905090565b600481815481106108be57600080fd5b90600052602060002090600802016000915090508060000160009054906101000a900473ffffffffffffffffffffffffffffffffffffffff1690806001018054610907906117e9565b80601f0160208091040260200160405190810160405280929190818152602001828054610933906117e9565b80156109805780601f1061095557610100808354040283529160200191610980565b820191906000526020600020905b81548152906001019060200180831161096357829003601f168201915b505050505090806002018054610995906117e9565b80601f01602080910402602001604051908101604052809291908181526020018280546109c1906117e9565b8015610a0e5780601f106109e357610100808354040283529160200191610a0e565b820191906000526020600020905b8154815290600101906020018083116109f157829003601f168201915b505050505090806003018054610a23906117e9565b80601f0160208091040260200160405190810160405280929190818152602001828054610a4f906117e9565b8015610a9c5780601f10610a7157610100808354040283529160200191610a9c565b820191906000526020600020905b815481529060010190602001808311610a7f57829003601f168201915b5050505050908060040154908060050154908060060154908060070160009054906101000a900463ffffffff16905088565b60608060005b600480549050811015610c17578373ffffffffffffffffffffffffffffffffffffffff166005600083815260200190815260200160002060009054906101000a900473ffffffffffffffffffffffffffffffffffffffff1673ffffffffffffffffffffffffffffffffffffffff161415610bce577f96408510f58a52b0cfe536e046b25664fa36d8122620ec608c1767b45aa4f03c60048281548110610b7d57610b7c61195d565b5b906000526020600020906008020160020160048381548110610ba257610ba161195d565b5b9060005260206000209060080201600101604051610bc1929190611489565b60405180910390a1610c04565b7f6158fc8f21c8cc73ddf920956cc75d0e8a48b4fc85817a0ba89eb3b6d2a75441604051610bfb906114c0565b60405180910390a15b8080610c0f9061184c565b915050610ad4565b5050919050565b600080600290506000814283600154604051602001610c3f9392919061135a565b6040516020818303038152906040528051906020012060001c610c62919061189f565b9050809250505090565b610c74610dfc565b73ffffffffffffffffffffffffffffffffffffffff16610c92610885565b73ffffffffffffffffffffffffffffffffffffffff1614610ce8576040517f08c379a0000000000000000000000000000000000000000000000000000000008152600401610cdf9061154e565b60405180910390fd5b600073ffffffffffffffffffffffffffffffffffffffff168173ffffffffffffffffffffffffffffffffffffffff161415610d58576040517f08c379a0000000000000000000000000000000000000000000000000000000008152600401610d4f90611500565b60405180910390fd5b610d6181610e04565b50565b3373ffffffffffffffffffffffffffffffffffffffff166108fc600247610d8b91906116cd565b9081150290604051600060405180830381858888f19350505050158015610db6573d6000803e3d6000fd5b507fa28482eec3136a2461c6c30c08f71ba279c6c51a2d9c7bea4e50d6d2632f3896600247610de591906116cd565b604051610df29190611520565b60405180910390a1565b600033905090565b60008060009054906101000a900473ffffffffffffffffffffffffffffffffffffffff169050816000806101000a81548173ffffffffffffffffffffffffffffffffffffffff021916908373ffffffffffffffffffffffffffffffffffffffff1602179055508173ffffffffffffffffffffffffffffffffffffffff168173ffffffffffffffffffffffffffffffffffffffff167f8be0079c531659141344cd1fd0a4f28419497f9722a3daafe3b4186f6b6457e060405160405180910390a35050565b828054610ed4906117e9565b90600052602060002090601f016020900481019282610ef65760008555610f3d565b82601f10610f0f57805160ff1916838001178555610f3d565b82800160010185558215610f3d579182015b82811115610f3c578251825591602001919060010190610f21565b5b509050610f4a9190610f4e565b5090565b5b80821115610f67576000816000905550600101610f4f565b5090565b6000610f7e610f79846115dc565b6115b7565b905082815260208101848484011115610f9a57610f996119c0565b5b610fa58482856117a7565b509392505050565b600081359050610fbc81611b22565b92915050565b600082601f830112610fd757610fd66119bb565b5b8135610fe7848260208601610f6b565b91505092915050565b600081359050610fff81611b39565b92915050565b60006020828403121561101b5761101a6119ca565b5b600061102984828501610fad565b91505092915050565b60008060006060848603121561104b5761104a6119ca565b5b600084013567ffffffffffffffff811115611069576110686119c5565b5b61107586828701610fc2565b935050602084013567ffffffffffffffff811115611096576110956119c5565b5b6110a286828701610fc2565b925050604084013567ffffffffffffffff8111156110c3576110c26119c5565b5b6110cf86828701610fc2565b9150509250925092565b6000602082840312156110ef576110ee6119ca565b5b60006110fd84828501610ff0565b91505092915050565b60006111128383611316565b60208301905092915050565b6111278161175b565b82525050565b600061113882611632565b6111428185611655565b935061114d8361160d565b8060005b8381101561117e5781516111658882611106565b975061117083611648565b925050600181019050611151565b5085935050505092915050565b60006111968261163d565b6111a08185611666565b93506111b08185602086016117b6565b6111b9816119cf565b840191505092915050565b600081546111d1816117e9565b6111db8186611666565b945060018216600081146111f657600181146112085761123b565b60ff198316865260208601935061123b565b6112118561161d565b60005b8381101561123357815481890152600182019150602081019050611214565b808801955050505b50505092915050565b6000611251600f83611666565b915061125c826119e0565b602082019050919050565b6000611274602883611666565b915061127f82611a09565b604082019050919050565b6000611297602683611666565b91506112a282611a58565b604082019050919050565b60006112ba600c83611666565b91506112c582611aa7565b602082019050919050565b60006112dd602083611666565b91506112e882611ad0565b602082019050919050565b6000611300601583611666565b915061130b82611af9565b602082019050919050565b61131f8161178d565b82525050565b61132e8161178d565b82525050565b6113456113408261178d565b611895565b82525050565b61135481611797565b82525050565b60006113668286611334565b6020820191506113768285611334565b6020820191506113868284611334565b602082019150819050949350505050565b60006020820190506113ac600083018461111e565b92915050565b6000610100820190506113c8600083018b61111e565b81810360208301526113da818a61118b565b905081810360408301526113ee818961118b565b90508181036060830152611402818861118b565b90506114116080830187611325565b61141e60a0830186611325565b61142b60c0830185611325565b61143860e083018461134b565b9998505050505050505050565b6000602082019050818103600083015261145f818461112d565b905092915050565b60006020820190508181036000830152611481818461118b565b905092915050565b600060408201905081810360008301526114a381856111c4565b905081810360208301526114b781846111c4565b90509392505050565b600060208201905081810360008301526114d981611244565b9050919050565b600060208201905081810360008301526114f981611267565b9050919050565b600060208201905081810360008301526115198161128a565b9050919050565b60006040820190508181036000830152611539816112ad565b90506115486020830184611325565b92915050565b60006020820190508181036000830152611567816112d0565b9050919050565b60006040820190508181036000830152611587816112f3565b90506115966020830184611325565b92915050565b60006020820190506115b16000830184611325565b92915050565b60006115c16115d2565b90506115cd828261181b565b919050565b6000604051905090565b600067ffffffffffffffff8211156115f7576115f661198c565b5b611600826119cf565b9050602081019050919050565b6000819050602082019050919050565b60008190508160005260206000209050919050565b600081519050919050565b600081519050919050565b6000602082019050919050565b600082825260208201905092915050565b600082825260208201905092915050565b60006116828261178d565b915061168d8361178d565b9250827fffffffffffffffffffffffffffffffffffffffffffffffffffffffffffffffff038211156116c2576116c16118d0565b5b828201905092915050565b60006116d88261178d565b91506116e38361178d565b9250817fffffffffffffffffffffffffffffffffffffffffffffffffffffffffffffffff048311821515161561171c5761171b6118d0565b5b828202905092915050565b60006117328261178d565b915061173d8361178d565b9250828210156117505761174f6118d0565b5b828203905092915050565b60006117668261176d565b9050919050565b600073ffffffffffffffffffffffffffffffffffffffff82169050919050565b6000819050919050565b600063ffffffff82169050919050565b82818337600083830152505050565b60005b838110156117d45780820151818401526020810190506117b9565b838111156117e3576000848401525b50505050565b6000600282049050600182168061180157607f821691505b602082108114156118155761181461192e565b5b50919050565b611824826119cf565b810181811067ffffffffffffffff821117156118435761184261198c565b5b80604052505050565b60006118578261178d565b91507fffffffffffffffffffffffffffffffffffffffffffffffffffffffffffffffff82141561188a576118896118d0565b5b600182019050919050565b6000819050919050565b60006118aa8261178d565b91506118b58361178d565b9250826118c5576118c46118ff565b5b828206905092915050565b7f4e487b7100000000000000000000000000000000000000000000000000000000600052601160045260246000fd5b7f4e487b7100000000000000000000000000000000000000000000000000000000600052601260045260246000fd5b7f4e487b7100000000000000000000000000000000000000000000000000000000600052602260045260246000fd5b7f4e487b7100000000000000000000000000000000000000000000000000000000600052603260045260246000fd5b7f4e487b7100000000000000000000000000000000000000000000000000000000600052604160045260246000fd5b600080fd5b600080fd5b600080fd5b600080fd5b6000601f19601f8301169050919050565b7f4e6f207469656e6520636f636865730000000000000000000000000000000000600082015250565b7f536f6c6f2073652070756564652074656e657220756e20636f63686520706f7260008201527f20706572736f6e61000000000000000000000000000000000000000000000000602082015250565b7f4f776e61626c653a206e6577206f776e657220697320746865207a65726f206160008201527f6464726573730000000000000000000000000000000000000000000000000000602082015250565b7f4861732067616e61646f3a200000000000000000000000000000000000000000600082015250565b7f4f776e61626c653a2063616c6c6572206973206e6f7420746865206f776e6572600082015250565b7f456c20636f6368652067616e61646f722065733a200000000000000000000000600082015250565b611b2b8161175b565b8114611b3657600080fd5b50565b611b428161178d565b8114611b4d57600080fd5b5056fea2646970667358221220e7de41489f261c09827d91e98c0557965ffb5894116615ea238ad939577a4b8f64736f6c63430008070033",
					"opcodes": "PUSH1 0x80 PUSH1 0x40 MSTORE PUSH1 0x0 PUSH1 0x1 SSTORE PUSH1 0x0 PUSH1 0x2 SSTORE PUSH1 0x3C PUSH1 0x3 SSTORE CALLVALUE DUP1 ISZERO PUSH2 0x1F JUMPI PUSH1 0x0 DUP1 REVERT JUMPDEST POP PUSH2 0x3C PUSH2 0x31 PUSH2 0x41 PUSH1 0x20 SHL PUSH1 0x20 SHR JUMP JUMPDEST PUSH2 0x49 PUSH1 0x20 SHL PUSH1 0x20 SHR JUMP JUMPDEST PUSH2 0x10D JUMP JUMPDEST PUSH1 0x0 CALLER SWAP1 POP SWAP1 JUMP JUMPDEST PUSH1 0x0 DUP1 PUSH1 0x0 SWAP1 SLOAD SWAP1 PUSH2 0x100 EXP SWAP1 DIV PUSH20 0xFFFFFFFFFFFFFFFFFFFFFFFFFFFFFFFFFFFFFFFF AND SWAP1 POP DUP2 PUSH1 0x0 DUP1 PUSH2 0x100 EXP DUP2 SLOAD DUP2 PUSH20 0xFFFFFFFFFFFFFFFFFFFFFFFFFFFFFFFFFFFFFFFF MUL NOT AND SWAP1 DUP4 PUSH20 0xFFFFFFFFFFFFFFFFFFFFFFFFFFFFFFFFFFFFFFFF AND MUL OR SWAP1 SSTORE POP DUP2 PUSH20 0xFFFFFFFFFFFFFFFFFFFFFFFFFFFFFFFFFFFFFFFF AND DUP2 PUSH20 0xFFFFFFFFFFFFFFFFFFFFFFFFFFFFFFFFFFFFFFFF AND PUSH32 0x8BE0079C531659141344CD1FD0A4F28419497F9722A3DAAFE3B4186F6B6457E0 PUSH1 0x40 MLOAD PUSH1 0x40 MLOAD DUP1 SWAP2 SUB SWAP1 LOG3 POP POP JUMP JUMPDEST PUSH2 0x1B86 DUP1 PUSH2 0x11C PUSH1 0x0 CODECOPY PUSH1 0x0 RETURN INVALID PUSH1 0x80 PUSH1 0x40 MSTORE PUSH1 0x4 CALLDATASIZE LT PUSH2 0x91 JUMPI PUSH1 0x0 CALLDATALOAD PUSH1 0xE0 SHR DUP1 PUSH4 0x8DA5CB5B GT PUSH2 0x59 JUMPI DUP1 PUSH4 0x8DA5CB5B EQ PUSH2 0x194 JUMPI DUP1 PUSH4 0xD735573D EQ PUSH2 0x1BF JUMPI DUP1 PUSH4 0xE172FCA8 EQ PUSH2 0x203 JUMPI DUP1 PUSH4 0xF1413763 EQ PUSH2 0x240 JUMPI DUP1 PUSH4 0xF2FDE38B EQ PUSH2 0x26B JUMPI PUSH2 0x91 JUMP JUMPDEST DUP1 PUSH4 0x1C6743E4 EQ PUSH2 0x96 JUMPI DUP1 PUSH4 0x2458C544 EQ PUSH2 0xD3 JUMPI DUP1 PUSH4 0x6B6F0494 EQ PUSH2 0x110 JUMPI DUP1 PUSH4 0x715018A6 EQ PUSH2 0x140 JUMPI DUP1 PUSH4 0x858B0554 EQ PUSH2 0x157 JUMPI JUMPDEST PUSH1 0x0 DUP1 REVERT JUMPDEST CALLVALUE DUP1 ISZERO PUSH2 0xA2 JUMPI PUSH1 0x0 DUP1 REVERT JUMPDEST POP PUSH2 0xBD PUSH1 0x4 DUP1 CALLDATASIZE SUB DUP2 ADD SWAP1 PUSH2 0xB8 SWAP2 SWAP1 PUSH2 0x1005 JUMP JUMPDEST PUSH2 0x294 JUMP JUMPDEST PUSH1 0x40 MLOAD PUSH2 0xCA SWAP2 SWAP1 PUSH2 0x159C JUMP JUMPDEST PUSH1 0x40 MLOAD DUP1 SWAP2 SUB SWAP1 RETURN JUMPDEST CALLVALUE DUP1 ISZERO PUSH2 0xDF JUMPI PUSH1 0x0 DUP1 REVERT JUMPDEST POP PUSH2 0xFA PUSH1 0x4 DUP1 CALLDATASIZE SUB DUP2 ADD SWAP1 PUSH2 0xF5 SWAP2 SWAP1 PUSH2 0x1032 JUMP JUMPDEST PUSH2 0x2AC JUMP JUMPDEST PUSH1 0x40 MLOAD PUSH2 0x107 SWAP2 SWAP1 PUSH2 0x159C JUMP JUMPDEST PUSH1 0x40 MLOAD DUP1 SWAP2 SUB SWAP1 RETURN JUMPDEST PUSH2 0x12A PUSH1 0x4 DUP1 CALLDATASIZE SUB DUP2 ADD SWAP1 PUSH2 0x125 SWAP2 SWAP1 PUSH2 0x10D9 JUMP JUMPDEST PUSH2 0x58E JUMP JUMPDEST PUSH1 0x40 MLOAD PUSH2 0x137 SWAP2 SWAP1 PUSH2 0x1467 JUMP JUMPDEST PUSH1 0x40 MLOAD DUP1 SWAP2 SUB SWAP1 RETURN JUMPDEST CALLVALUE DUP1 ISZERO PUSH2 0x14C JUMPI PUSH1 0x0 DUP1 REVERT JUMPDEST POP PUSH2 0x155 PUSH2 0x7CA JUMP JUMPDEST STOP JUMPDEST CALLVALUE DUP1 ISZERO PUSH2 0x163 JUMPI PUSH1 0x0 DUP1 REVERT JUMPDEST POP PUSH2 0x17E PUSH1 0x4 DUP1 CALLDATASIZE SUB DUP2 ADD SWAP1 PUSH2 0x179 SWAP2 SWAP1 PUSH2 0x10D9 JUMP JUMPDEST PUSH2 0x852 JUMP JUMPDEST PUSH1 0x40 MLOAD PUSH2 0x18B SWAP2 SWAP1 PUSH2 0x1397 JUMP JUMPDEST PUSH1 0x40 MLOAD DUP1 SWAP2 SUB SWAP1 RETURN JUMPDEST CALLVALUE DUP1 ISZERO PUSH2 0x1A0 JUMPI PUSH1 0x0 DUP1 REVERT JUMPDEST POP PUSH2 0x1A9 PUSH2 0x885 JUMP JUMPDEST PUSH1 0x40 MLOAD PUSH2 0x1B6 SWAP2 SWAP1 PUSH2 0x1397 JUMP JUMPDEST PUSH1 0x40 MLOAD DUP1 SWAP2 SUB SWAP1 RETURN JUMPDEST CALLVALUE DUP1 ISZERO PUSH2 0x1CB JUMPI PUSH1 0x0 DUP1 REVERT JUMPDEST POP PUSH2 0x1E6 PUSH1 0x4 DUP1 CALLDATASIZE SUB DUP2 ADD SWAP1 PUSH2 0x1E1 SWAP2 SWAP1 PUSH2 0x10D9 JUMP JUMPDEST PUSH2 0x8AE JUMP JUMPDEST PUSH1 0x40 MLOAD PUSH2 0x1FA SWAP9 SWAP8 SWAP7 SWAP6 SWAP5 SWAP4 SWAP3 SWAP2 SWAP1 PUSH2 0x13B2 JUMP JUMPDEST PUSH1 0x40 MLOAD DUP1 SWAP2 SUB SWAP1 RETURN JUMPDEST CALLVALUE DUP1 ISZERO PUSH2 0x20F JUMPI PUSH1 0x0 DUP1 REVERT JUMPDEST POP PUSH2 0x22A PUSH1 0x4 DUP1 CALLDATASIZE SUB DUP2 ADD SWAP1 PUSH2 0x225 SWAP2 SWAP1 PUSH2 0x1005 JUMP JUMPDEST PUSH2 0xACE JUMP JUMPDEST PUSH1 0x40 MLOAD PUSH2 0x237 SWAP2 SWAP1 PUSH2 0x1445 JUMP JUMPDEST PUSH1 0x40 MLOAD DUP1 SWAP2 SUB SWAP1 RETURN JUMPDEST CALLVALUE DUP1 ISZERO PUSH2 0x24C JUMPI PUSH1 0x0 DUP1 REVERT JUMPDEST POP PUSH2 0x255 PUSH2 0xC1E JUMP JUMPDEST PUSH1 0x40 MLOAD PUSH2 0x262 SWAP2 SWAP1 PUSH2 0x159C JUMP JUMPDEST PUSH1 0x40 MLOAD DUP1 SWAP2 SUB SWAP1 RETURN JUMPDEST CALLVALUE DUP1 ISZERO PUSH2 0x277 JUMPI PUSH1 0x0 DUP1 REVERT JUMPDEST POP PUSH2 0x292 PUSH1 0x4 DUP1 CALLDATASIZE SUB DUP2 ADD SWAP1 PUSH2 0x28D SWAP2 SWAP1 PUSH2 0x1005 JUMP JUMPDEST PUSH2 0xC6C JUMP JUMPDEST STOP JUMPDEST PUSH1 0x6 PUSH1 0x20 MSTORE DUP1 PUSH1 0x0 MSTORE PUSH1 0x40 PUSH1 0x0 KECCAK256 PUSH1 0x0 SWAP2 POP SWAP1 POP SLOAD DUP2 JUMP JUMPDEST PUSH1 0x0 PUSH1 0x1 PUSH1 0x6 PUSH1 0x0 CALLER PUSH20 0xFFFFFFFFFFFFFFFFFFFFFFFFFFFFFFFFFFFFFFFF AND PUSH20 0xFFFFFFFFFFFFFFFFFFFFFFFFFFFFFFFFFFFFFFFF AND DUP2 MSTORE PUSH1 0x20 ADD SWAP1 DUP2 MSTORE PUSH1 0x20 ADD PUSH1 0x0 KECCAK256 SLOAD LT PUSH2 0x330 JUMPI PUSH1 0x40 MLOAD PUSH32 0x8C379A000000000000000000000000000000000000000000000000000000000 DUP2 MSTORE PUSH1 0x4 ADD PUSH2 0x327 SWAP1 PUSH2 0x14E0 JUMP JUMPDEST PUSH1 0x40 MLOAD DUP1 SWAP2 SUB SWAP1 REVERT JUMPDEST PUSH1 0x4 PUSH1 0x40 MLOAD DUP1 PUSH2 0x100 ADD PUSH1 0x40 MSTORE DUP1 CALLER PUSH20 0xFFFFFFFFFFFFFFFFFFFFFFFFFFFFFFFFFFFFFFFF AND DUP2 MSTORE PUSH1 0x20 ADD DUP7 DUP2 MSTORE PUSH1 0x20 ADD DUP6 DUP2 MSTORE PUSH1 0x20 ADD DUP5 DUP2 MSTORE PUSH1 0x20 ADD PUSH1 0x0 DUP2 MSTORE PUSH1 0x20 ADD PUSH1 0x0 DUP2 MSTORE PUSH1 0x20 ADD PUSH1 0x3 SLOAD TIMESTAMP PUSH2 0x388 SWAP2 SWAP1 PUSH2 0x1677 JUMP JUMPDEST PUSH4 0xFFFFFFFF AND DUP2 MSTORE PUSH1 0x20 ADD PUSH1 0x0 PUSH4 0xFFFFFFFF AND DUP2 MSTORE POP SWAP1 DUP1 PUSH1 0x1 DUP2 SLOAD ADD DUP1 DUP3 SSTORE DUP1 SWAP2 POP POP PUSH1 0x1 SWAP1 SUB SWAP1 PUSH1 0x0 MSTORE PUSH1 0x20 PUSH1 0x0 KECCAK256 SWAP1 PUSH1 0x8 MUL ADD PUSH1 0x0 SWAP1 SWAP2 SWAP1 SWAP2 SWAP1 SWAP2 POP PUSH1 0x0 DUP3 ADD MLOAD DUP2 PUSH1 0x0 ADD PUSH1 0x0 PUSH2 0x100 EXP DUP2 SLOAD DUP2 PUSH20 0xFFFFFFFFFFFFFFFFFFFFFFFFFFFFFFFFFFFFFFFF MUL NOT AND SWAP1 DUP4 PUSH20 0xFFFFFFFFFFFFFFFFFFFFFFFFFFFFFFFFFFFFFFFF AND MUL OR SWAP1 SSTORE POP PUSH1 0x20 DUP3 ADD MLOAD DUP2 PUSH1 0x1 ADD SWAP1 DUP1 MLOAD SWAP1 PUSH1 0x20 ADD SWAP1 PUSH2 0x42A SWAP3 SWAP2 SWAP1 PUSH2 0xEC8 JUMP JUMPDEST POP PUSH1 0x40 DUP3 ADD MLOAD DUP2 PUSH1 0x2 ADD SWAP1 DUP1 MLOAD SWAP1 PUSH1 0x20 ADD SWAP1 PUSH2 0x447 SWAP3 SWAP2 SWAP1 PUSH2 0xEC8 JUMP JUMPDEST POP PUSH1 0x60 DUP3 ADD MLOAD DUP2 PUSH1 0x3 ADD SWAP1 DUP1 MLOAD SWAP1 PUSH1 0x20 ADD SWAP1 PUSH2 0x464 SWAP3 SWAP2 SWAP1 PUSH2 0xEC8 JUMP JUMPDEST POP PUSH1 0x80 DUP3 ADD MLOAD DUP2 PUSH1 0x4 ADD SSTORE PUSH1 0xA0 DUP3 ADD MLOAD DUP2 PUSH1 0x5 ADD SSTORE PUSH1 0xC0 DUP3 ADD MLOAD DUP2 PUSH1 0x6 ADD SSTORE PUSH1 0xE0 DUP3 ADD MLOAD DUP2 PUSH1 0x7 ADD PUSH1 0x0 PUSH2 0x100 EXP DUP2 SLOAD DUP2 PUSH4 0xFFFFFFFF MUL NOT AND SWAP1 DUP4 PUSH4 0xFFFFFFFF AND MUL OR SWAP1 SSTORE POP POP POP PUSH1 0x0 PUSH1 0x4 DUP1 SLOAD SWAP1 POP SWAP1 POP CALLER PUSH1 0x5 PUSH1 0x0 DUP4 DUP2 MSTORE PUSH1 0x20 ADD SWAP1 DUP2 MSTORE PUSH1 0x20 ADD PUSH1 0x0 KECCAK256 PUSH1 0x0 PUSH2 0x100 EXP DUP2 SLOAD DUP2 PUSH20 0xFFFFFFFFFFFFFFFFFFFFFFFFFFFFFFFFFFFFFFFF MUL NOT AND SWAP1 DUP4 PUSH20 0xFFFFFFFFFFFFFFFFFFFFFFFFFFFFFFFFFFFFFFFF AND MUL OR SWAP1 SSTORE POP PUSH1 0x6 PUSH1 0x0 CALLER PUSH20 0xFFFFFFFFFFFFFFFFFFFFFFFFFFFFFFFFFFFFFFFF AND PUSH20 0xFFFFFFFFFFFFFFFFFFFFFFFFFFFFFFFFFFFFFFFF AND DUP2 MSTORE PUSH1 0x20 ADD SWAP1 DUP2 MSTORE PUSH1 0x20 ADD PUSH1 0x0 KECCAK256 PUSH1 0x0 DUP2 SLOAD DUP1 SWAP3 SWAP2 SWAP1 PUSH2 0x558 SWAP1 PUSH2 0x184C JUMP JUMPDEST SWAP2 SWAP1 POP SSTORE POP PUSH1 0x2 PUSH1 0x0 DUP2 SLOAD DUP1 SWAP3 SWAP2 SWAP1 PUSH2 0x570 SWAP1 PUSH2 0x184C JUMP JUMPDEST SWAP2 SWAP1 POP SSTORE POP PUSH1 0x1 PUSH1 0x2 SLOAD PUSH2 0x584 SWAP2 SWAP1 PUSH2 0x1727 JUMP JUMPDEST SWAP2 POP POP SWAP4 SWAP3 POP POP POP JUMP JUMPDEST PUSH1 0x60 DUP2 CALLVALUE EQ PUSH2 0x59C JUMPI PUSH1 0x0 DUP1 REVERT JUMPDEST PUSH1 0x1 PUSH1 0x0 DUP2 SLOAD DUP1 SWAP3 SWAP2 SWAP1 PUSH2 0x5AF SWAP1 PUSH2 0x184C JUMP JUMPDEST SWAP2 SWAP1 POP SSTORE POP PUSH1 0x0 PUSH1 0x4 DUP1 SLOAD SWAP1 POP TIMESTAMP PUSH1 0x4 DUP1 SLOAD SWAP1 POP PUSH1 0x1 SLOAD PUSH1 0x40 MLOAD PUSH1 0x20 ADD PUSH2 0x5D8 SWAP4 SWAP3 SWAP2 SWAP1 PUSH2 0x135A JUMP JUMPDEST PUSH1 0x40 MLOAD PUSH1 0x20 DUP2 DUP4 SUB SUB DUP2 MSTORE SWAP1 PUSH1 0x40 MSTORE DUP1 MLOAD SWAP1 PUSH1 0x20 ADD KECCAK256 PUSH1 0x0 SHR PUSH2 0x5FB SWAP2 SWAP1 PUSH2 0x189F JUMP JUMPDEST SWAP1 POP PUSH1 0x1 PUSH1 0x0 DUP2 SLOAD DUP1 SWAP3 SWAP2 SWAP1 PUSH2 0x610 SWAP1 PUSH2 0x184C JUMP JUMPDEST SWAP2 SWAP1 POP SSTORE POP PUSH1 0x0 PUSH1 0x2 SWAP1 POP PUSH1 0x0 DUP2 TIMESTAMP DUP4 PUSH1 0x1 SLOAD PUSH1 0x40 MLOAD PUSH1 0x20 ADD PUSH2 0x635 SWAP4 SWAP3 SWAP2 SWAP1 PUSH2 0x135A JUMP JUMPDEST PUSH1 0x40 MLOAD PUSH1 0x20 DUP2 DUP4 SUB SUB DUP2 MSTORE SWAP1 PUSH1 0x40 MSTORE DUP1 MLOAD SWAP1 PUSH1 0x20 ADD KECCAK256 PUSH1 0x0 SHR PUSH2 0x658 SWAP2 SWAP1 PUSH2 0x189F JUMP JUMPDEST SWAP1 POP PUSH1 0x0 JUMPDEST PUSH1 0x4 DUP1 SLOAD SWAP1 POP DUP2 LT ISZERO PUSH2 0x7C0 JUMPI PUSH1 0x4 DUP2 DUP2 SLOAD DUP2 LT PUSH2 0x67E JUMPI PUSH2 0x67D PUSH2 0x195D JUMP JUMPDEST JUMPDEST SWAP1 PUSH1 0x0 MSTORE PUSH1 0x20 PUSH1 0x0 KECCAK256 SWAP1 PUSH1 0x8 MUL ADD PUSH1 0x0 ADD PUSH1 0x0 SWAP1 SLOAD SWAP1 PUSH2 0x100 EXP SWAP1 DIV PUSH20 0xFFFFFFFFFFFFFFFFFFFFFFFFFFFFFFFFFFFFFFFF AND PUSH20 0xFFFFFFFFFFFFFFFFFFFFFFFFFFFFFFFFFFFFFFFF AND CALLER PUSH20 0xFFFFFFFFFFFFFFFFFFFFFFFFFFFFFFFFFFFFFFFF AND EQ ISZERO PUSH2 0x7AD JUMPI PUSH1 0x0 DUP3 EQ ISZERO PUSH2 0x735 JUMPI PUSH2 0x6F4 PUSH2 0xD64 JUMP JUMPDEST PUSH1 0x40 MLOAD DUP1 PUSH1 0x40 ADD PUSH1 0x40 MSTORE DUP1 PUSH1 0xA DUP2 MSTORE PUSH1 0x20 ADD PUSH32 0x4861732067616E61646F00000000000000000000000000000000000000000000 DUP2 MSTORE POP SWAP5 POP POP POP POP POP PUSH2 0x7C5 JUMP JUMPDEST PUSH32 0xA28482EEC3136A2461C6C30C08F71BA279C6C51A2D9C7BEA4E50D6D2632F3896 DUP5 PUSH1 0x40 MLOAD PUSH2 0x764 SWAP2 SWAP1 PUSH2 0x156E JUMP JUMPDEST PUSH1 0x40 MLOAD DUP1 SWAP2 SUB SWAP1 LOG1 PUSH1 0x40 MLOAD DUP1 PUSH1 0x40 ADD PUSH1 0x40 MSTORE DUP1 PUSH1 0xB DUP2 MSTORE PUSH1 0x20 ADD PUSH32 0x486173207065726469646F000000000000000000000000000000000000000000 DUP2 MSTORE POP SWAP5 POP POP POP POP POP PUSH2 0x7C5 JUMP JUMPDEST DUP1 DUP1 PUSH2 0x7B8 SWAP1 PUSH2 0x184C JUMP JUMPDEST SWAP2 POP POP PUSH2 0x65D JUMP JUMPDEST POP POP POP POP JUMPDEST SWAP2 SWAP1 POP JUMP JUMPDEST PUSH2 0x7D2 PUSH2 0xDFC JUMP JUMPDEST PUSH20 0xFFFFFFFFFFFFFFFFFFFFFFFFFFFFFFFFFFFFFFFF AND PUSH2 0x7F0 PUSH2 0x885 JUMP JUMPDEST PUSH20 0xFFFFFFFFFFFFFFFFFFFFFFFFFFFFFFFFFFFFFFFF AND EQ PUSH2 0x846 JUMPI PUSH1 0x40 MLOAD PUSH32 0x8C379A000000000000000000000000000000000000000000000000000000000 DUP2 MSTORE PUSH1 0x4 ADD PUSH2 0x83D SWAP1 PUSH2 0x154E JUMP JUMPDEST PUSH1 0x40 MLOAD DUP1 SWAP2 SUB SWAP1 REVERT JUMPDEST PUSH2 0x850 PUSH1 0x0 PUSH2 0xE04 JUMP JUMPDEST JUMP JUMPDEST PUSH1 0x5 PUSH1 0x20 MSTORE DUP1 PUSH1 0x0 MSTORE PUSH1 0x40 PUSH1 0x0 KECCAK256 PUSH1 0x0 SWAP2 POP SLOAD SWAP1 PUSH2 0x100 EXP SWAP1 DIV PUSH20 0xFFFFFFFFFFFFFFFFFFFFFFFFFFFFFFFFFFFFFFFF AND DUP2 JUMP JUMPDEST PUSH1 0x0 DUP1 PUSH1 0x0 SWAP1 SLOAD SWAP1 PUSH2 0x100 EXP SWAP1 DIV PUSH20 0xFFFFFFFFFFFFFFFFFFFFFFFFFFFFFFFFFFFFFFFF AND SWAP1 POP SWAP1 JUMP JUMPDEST PUSH1 0x4 DUP2 DUP2 SLOAD DUP2 LT PUSH2 0x8BE JUMPI PUSH1 0x0 DUP1 REVERT JUMPDEST SWAP1 PUSH1 0x0 MSTORE PUSH1 0x20 PUSH1 0x0 KECCAK256 SWAP1 PUSH1 0x8 MUL ADD PUSH1 0x0 SWAP2 POP SWAP1 POP DUP1 PUSH1 0x0 ADD PUSH1 0x0 SWAP1 SLOAD SWAP1 PUSH2 0x100 EXP SWAP1 DIV PUSH20 0xFFFFFFFFFFFFFFFFFFFFFFFFFFFFFFFFFFFFFFFF AND SWAP1 DUP1 PUSH1 0x1 ADD DUP1 SLOAD PUSH2 0x907 SWAP1 PUSH2 0x17E9 JUMP JUMPDEST DUP1 PUSH1 0x1F ADD PUSH1 0x20 DUP1 SWAP2 DIV MUL PUSH1 0x20 ADD PUSH1 0x40 MLOAD SWAP1 DUP2 ADD PUSH1 0x40 MSTORE DUP1 SWAP3 SWAP2 SWAP1 DUP2 DUP2 MSTORE PUSH1 0x20 ADD DUP3 DUP1 SLOAD PUSH2 0x933 SWAP1 PUSH2 0x17E9 JUMP JUMPDEST DUP1 ISZERO PUSH2 0x980 JUMPI DUP1 PUSH1 0x1F LT PUSH2 0x955 JUMPI PUSH2 0x100 DUP1 DUP4 SLOAD DIV MUL DUP4 MSTORE SWAP2 PUSH1 0x20 ADD SWAP2 PUSH2 0x980 JUMP JUMPDEST DUP3 ADD SWAP2 SWAP1 PUSH1 0x0 MSTORE PUSH1 0x20 PUSH1 0x0 KECCAK256 SWAP1 JUMPDEST DUP2 SLOAD DUP2 MSTORE SWAP1 PUSH1 0x1 ADD SWAP1 PUSH1 0x20 ADD DUP1 DUP4 GT PUSH2 0x963 JUMPI DUP3 SWAP1 SUB PUSH1 0x1F AND DUP3 ADD SWAP2 JUMPDEST POP POP POP POP POP SWAP1 DUP1 PUSH1 0x2 ADD DUP1 SLOAD PUSH2 0x995 SWAP1 PUSH2 0x17E9 JUMP JUMPDEST DUP1 PUSH1 0x1F ADD PUSH1 0x20 DUP1 SWAP2 DIV MUL PUSH1 0x20 ADD PUSH1 0x40 MLOAD SWAP1 DUP2 ADD PUSH1 0x40 MSTORE DUP1 SWAP3 SWAP2 SWAP1 DUP2 DUP2 MSTORE PUSH1 0x20 ADD DUP3 DUP1 SLOAD PUSH2 0x9C1 SWAP1 PUSH2 0x17E9 JUMP JUMPDEST DUP1 ISZERO PUSH2 0xA0E JUMPI DUP1 PUSH1 0x1F LT PUSH2 0x9E3 JUMPI PUSH2 0x100 DUP1 DUP4 SLOAD DIV MUL DUP4 MSTORE SWAP2 PUSH1 0x20 ADD SWAP2 PUSH2 0xA0E JUMP JUMPDEST DUP3 ADD SWAP2 SWAP1 PUSH1 0x0 MSTORE PUSH1 0x20 PUSH1 0x0 KECCAK256 SWAP1 JUMPDEST DUP2 SLOAD DUP2 MSTORE SWAP1 PUSH1 0x1 ADD SWAP1 PUSH1 0x20 ADD DUP1 DUP4 GT PUSH2 0x9F1 JUMPI DUP3 SWAP1 SUB PUSH1 0x1F AND DUP3 ADD SWAP2 JUMPDEST POP POP POP POP POP SWAP1 DUP1 PUSH1 0x3 ADD DUP1 SLOAD PUSH2 0xA23 SWAP1 PUSH2 0x17E9 JUMP JUMPDEST DUP1 PUSH1 0x1F ADD PUSH1 0x20 DUP1 SWAP2 DIV MUL PUSH1 0x20 ADD PUSH1 0x40 MLOAD SWAP1 DUP2 ADD PUSH1 0x40 MSTORE DUP1 SWAP3 SWAP2 SWAP1 DUP2 DUP2 MSTORE PUSH1 0x20 ADD DUP3 DUP1 SLOAD PUSH2 0xA4F SWAP1 PUSH2 0x17E9 JUMP JUMPDEST DUP1 ISZERO PUSH2 0xA9C JUMPI DUP1 PUSH1 0x1F LT PUSH2 0xA71 JUMPI PUSH2 0x100 DUP1 DUP4 SLOAD DIV MUL DUP4 MSTORE SWAP2 PUSH1 0x20 ADD SWAP2 PUSH2 0xA9C JUMP JUMPDEST DUP3 ADD SWAP2 SWAP1 PUSH1 0x0 MSTORE PUSH1 0x20 PUSH1 0x0 KECCAK256 SWAP1 JUMPDEST DUP2 SLOAD DUP2 MSTORE SWAP1 PUSH1 0x1 ADD SWAP1 PUSH1 0x20 ADD DUP1 DUP4 GT PUSH2 0xA7F JUMPI DUP3 SWAP1 SUB PUSH1 0x1F AND DUP3 ADD SWAP2 JUMPDEST POP POP POP POP POP SWAP1 DUP1 PUSH1 0x4 ADD SLOAD SWAP1 DUP1 PUSH1 0x5 ADD SLOAD SWAP1 DUP1 PUSH1 0x6 ADD SLOAD SWAP1 DUP1 PUSH1 0x7 ADD PUSH1 0x0 SWAP1 SLOAD SWAP1 PUSH2 0x100 EXP SWAP1 DIV PUSH4 0xFFFFFFFF AND SWAP1 POP DUP9 JUMP JUMPDEST PUSH1 0x60 DUP1 PUSH1 0x0 JUMPDEST PUSH1 0x4 DUP1 SLOAD SWAP1 POP DUP2 LT ISZERO PUSH2 0xC17 JUMPI DUP4 PUSH20 0xFFFFFFFFFFFFFFFFFFFFFFFFFFFFFFFFFFFFFFFF AND PUSH1 0x5 PUSH1 0x0 DUP4 DUP2 MSTORE PUSH1 0x20 ADD SWAP1 DUP2 MSTORE PUSH1 0x20 ADD PUSH1 0x0 KECCAK256 PUSH1 0x0 SWAP1 SLOAD SWAP1 PUSH2 0x100 EXP SWAP1 DIV PUSH20 0xFFFFFFFFFFFFFFFFFFFFFFFFFFFFFFFFFFFFFFFF AND PUSH20 0xFFFFFFFFFFFFFFFFFFFFFFFFFFFFFFFFFFFFFFFF AND EQ ISZERO PUSH2 0xBCE JUMPI PUSH32 0x96408510F58A52B0CFE536E046B25664FA36D8122620EC608C1767B45AA4F03C PUSH1 0x4 DUP3 DUP2 SLOAD DUP2 LT PUSH2 0xB7D JUMPI PUSH2 0xB7C PUSH2 0x195D JUMP JUMPDEST JUMPDEST SWAP1 PUSH1 0x0 MSTORE PUSH1 0x20 PUSH1 0x0 KECCAK256 SWAP1 PUSH1 0x8 MUL ADD PUSH1 0x2 ADD PUSH1 0x4 DUP4 DUP2 SLOAD DUP2 LT PUSH2 0xBA2 JUMPI PUSH2 0xBA1 PUSH2 0x195D JUMP JUMPDEST JUMPDEST SWAP1 PUSH1 0x0 MSTORE PUSH1 0x20 PUSH1 0x0 KECCAK256 SWAP1 PUSH1 0x8 MUL ADD PUSH1 0x1 ADD PUSH1 0x40 MLOAD PUSH2 0xBC1 SWAP3 SWAP2 SWAP1 PUSH2 0x1489 JUMP JUMPDEST PUSH1 0x40 MLOAD DUP1 SWAP2 SUB SWAP1 LOG1 PUSH2 0xC04 JUMP JUMPDEST PUSH32 0x6158FC8F21C8CC73DDF920956CC75D0E8A48B4FC85817A0BA89EB3B6D2A75441 PUSH1 0x40 MLOAD PUSH2 0xBFB SWAP1 PUSH2 0x14C0 JUMP JUMPDEST PUSH1 0x40 MLOAD DUP1 SWAP2 SUB SWAP1 LOG1 JUMPDEST DUP1 DUP1 PUSH2 0xC0F SWAP1 PUSH2 0x184C JUMP JUMPDEST SWAP2 POP POP PUSH2 0xAD4 JUMP JUMPDEST POP POP SWAP2 SWAP1 POP JUMP JUMPDEST PUSH1 0x0 DUP1 PUSH1 0x2 SWAP1 POP PUSH1 0x0 DUP2 TIMESTAMP DUP4 PUSH1 0x1 SLOAD PUSH1 0x40 MLOAD PUSH1 0x20 ADD PUSH2 0xC3F SWAP4 SWAP3 SWAP2 SWAP1 PUSH2 0x135A JUMP JUMPDEST PUSH1 0x40 MLOAD PUSH1 0x20 DUP2 DUP4 SUB SUB DUP2 MSTORE SWAP1 PUSH1 0x40 MSTORE DUP1 MLOAD SWAP1 PUSH1 0x20 ADD KECCAK256 PUSH1 0x0 SHR PUSH2 0xC62 SWAP2 SWAP1 PUSH2 0x189F JUMP JUMPDEST SWAP1 POP DUP1 SWAP3 POP POP POP SWAP1 JUMP JUMPDEST PUSH2 0xC74 PUSH2 0xDFC JUMP JUMPDEST PUSH20 0xFFFFFFFFFFFFFFFFFFFFFFFFFFFFFFFFFFFFFFFF AND PUSH2 0xC92 PUSH2 0x885 JUMP JUMPDEST PUSH20 0xFFFFFFFFFFFFFFFFFFFFFFFFFFFFFFFFFFFFFFFF AND EQ PUSH2 0xCE8 JUMPI PUSH1 0x40 MLOAD PUSH32 0x8C379A000000000000000000000000000000000000000000000000000000000 DUP2 MSTORE PUSH1 0x4 ADD PUSH2 0xCDF SWAP1 PUSH2 0x154E JUMP JUMPDEST PUSH1 0x40 MLOAD DUP1 SWAP2 SUB SWAP1 REVERT JUMPDEST PUSH1 0x0 PUSH20 0xFFFFFFFFFFFFFFFFFFFFFFFFFFFFFFFFFFFFFFFF AND DUP2 PUSH20 0xFFFFFFFFFFFFFFFFFFFFFFFFFFFFFFFFFFFFFFFF AND EQ ISZERO PUSH2 0xD58 JUMPI PUSH1 0x40 MLOAD PUSH32 0x8C379A000000000000000000000000000000000000000000000000000000000 DUP2 MSTORE PUSH1 0x4 ADD PUSH2 0xD4F SWAP1 PUSH2 0x1500 JUMP JUMPDEST PUSH1 0x40 MLOAD DUP1 SWAP2 SUB SWAP1 REVERT JUMPDEST PUSH2 0xD61 DUP2 PUSH2 0xE04 JUMP JUMPDEST POP JUMP JUMPDEST CALLER PUSH20 0xFFFFFFFFFFFFFFFFFFFFFFFFFFFFFFFFFFFFFFFF AND PUSH2 0x8FC PUSH1 0x2 SELFBALANCE PUSH2 0xD8B SWAP2 SWAP1 PUSH2 0x16CD JUMP JUMPDEST SWAP1 DUP2 ISZERO MUL SWAP1 PUSH1 0x40 MLOAD PUSH1 0x0 PUSH1 0x40 MLOAD DUP1 DUP4 SUB DUP2 DUP6 DUP9 DUP9 CALL SWAP4 POP POP POP POP ISZERO DUP1 ISZERO PUSH2 0xDB6 JUMPI RETURNDATASIZE PUSH1 0x0 DUP1 RETURNDATACOPY RETURNDATASIZE PUSH1 0x0 REVERT JUMPDEST POP PUSH32 0xA28482EEC3136A2461C6C30C08F71BA279C6C51A2D9C7BEA4E50D6D2632F3896 PUSH1 0x2 SELFBALANCE PUSH2 0xDE5 SWAP2 SWAP1 PUSH2 0x16CD JUMP JUMPDEST PUSH1 0x40 MLOAD PUSH2 0xDF2 SWAP2 SWAP1 PUSH2 0x1520 JUMP JUMPDEST PUSH1 0x40 MLOAD DUP1 SWAP2 SUB SWAP1 LOG1 JUMP JUMPDEST PUSH1 0x0 CALLER SWAP1 POP SWAP1 JUMP JUMPDEST PUSH1 0x0 DUP1 PUSH1 0x0 SWAP1 SLOAD SWAP1 PUSH2 0x100 EXP SWAP1 DIV PUSH20 0xFFFFFFFFFFFFFFFFFFFFFFFFFFFFFFFFFFFFFFFF AND SWAP1 POP DUP2 PUSH1 0x0 DUP1 PUSH2 0x100 EXP DUP2 SLOAD DUP2 PUSH20 0xFFFFFFFFFFFFFFFFFFFFFFFFFFFFFFFFFFFFFFFF MUL NOT AND SWAP1 DUP4 PUSH20 0xFFFFFFFFFFFFFFFFFFFFFFFFFFFFFFFFFFFFFFFF AND MUL OR SWAP1 SSTORE POP DUP2 PUSH20 0xFFFFFFFFFFFFFFFFFFFFFFFFFFFFFFFFFFFFFFFF AND DUP2 PUSH20 0xFFFFFFFFFFFFFFFFFFFFFFFFFFFFFFFFFFFFFFFF AND PUSH32 0x8BE0079C531659141344CD1FD0A4F28419497F9722A3DAAFE3B4186F6B6457E0 PUSH1 0x40 MLOAD PUSH1 0x40 MLOAD DUP1 SWAP2 SUB SWAP1 LOG3 POP POP JUMP JUMPDEST DUP3 DUP1 SLOAD PUSH2 0xED4 SWAP1 PUSH2 0x17E9 JUMP JUMPDEST SWAP1 PUSH1 0x0 MSTORE PUSH1 0x20 PUSH1 0x0 KECCAK256 SWAP1 PUSH1 0x1F ADD PUSH1 0x20 SWAP1 DIV DUP2 ADD SWAP3 DUP3 PUSH2 0xEF6 JUMPI PUSH1 0x0 DUP6 SSTORE PUSH2 0xF3D JUMP JUMPDEST DUP3 PUSH1 0x1F LT PUSH2 0xF0F JUMPI DUP1 MLOAD PUSH1 0xFF NOT AND DUP4 DUP1 ADD OR DUP6 SSTORE PUSH2 0xF3D JUMP JUMPDEST DUP3 DUP1 ADD PUSH1 0x1 ADD DUP6 SSTORE DUP3 ISZERO PUSH2 0xF3D JUMPI SWAP2 DUP3 ADD JUMPDEST DUP3 DUP2 GT ISZERO PUSH2 0xF3C JUMPI DUP3 MLOAD DUP3 SSTORE SWAP2 PUSH1 0x20 ADD SWAP2 SWAP1 PUSH1 0x1 ADD SWAP1 PUSH2 0xF21 JUMP JUMPDEST JUMPDEST POP SWAP1 POP PUSH2 0xF4A SWAP2 SWAP1 PUSH2 0xF4E JUMP JUMPDEST POP SWAP1 JUMP JUMPDEST JUMPDEST DUP1 DUP3 GT ISZERO PUSH2 0xF67 JUMPI PUSH1 0x0 DUP2 PUSH1 0x0 SWAP1 SSTORE POP PUSH1 0x1 ADD PUSH2 0xF4F JUMP JUMPDEST POP SWAP1 JUMP JUMPDEST PUSH1 0x0 PUSH2 0xF7E PUSH2 0xF79 DUP5 PUSH2 0x15DC JUMP JUMPDEST PUSH2 0x15B7 JUMP JUMPDEST SWAP1 POP DUP3 DUP2 MSTORE PUSH1 0x20 DUP2 ADD DUP5 DUP5 DUP5 ADD GT ISZERO PUSH2 0xF9A JUMPI PUSH2 0xF99 PUSH2 0x19C0 JUMP JUMPDEST JUMPDEST PUSH2 0xFA5 DUP5 DUP3 DUP6 PUSH2 0x17A7 JUMP JUMPDEST POP SWAP4 SWAP3 POP POP POP JUMP JUMPDEST PUSH1 0x0 DUP2 CALLDATALOAD SWAP1 POP PUSH2 0xFBC DUP2 PUSH2 0x1B22 JUMP JUMPDEST SWAP3 SWAP2 POP POP JUMP JUMPDEST PUSH1 0x0 DUP3 PUSH1 0x1F DUP4 ADD SLT PUSH2 0xFD7 JUMPI PUSH2 0xFD6 PUSH2 0x19BB JUMP JUMPDEST JUMPDEST DUP2 CALLDATALOAD PUSH2 0xFE7 DUP5 DUP3 PUSH1 0x20 DUP7 ADD PUSH2 0xF6B JUMP JUMPDEST SWAP2 POP POP SWAP3 SWAP2 POP POP JUMP JUMPDEST PUSH1 0x0 DUP2 CALLDATALOAD SWAP1 POP PUSH2 0xFFF DUP2 PUSH2 0x1B39 JUMP JUMPDEST SWAP3 SWAP2 POP POP JUMP JUMPDEST PUSH1 0x0 PUSH1 0x20 DUP3 DUP5 SUB SLT ISZERO PUSH2 0x101B JUMPI PUSH2 0x101A PUSH2 0x19CA JUMP JUMPDEST JUMPDEST PUSH1 0x0 PUSH2 0x1029 DUP5 DUP3 DUP6 ADD PUSH2 0xFAD JUMP JUMPDEST SWAP2 POP POP SWAP3 SWAP2 POP POP JUMP JUMPDEST PUSH1 0x0 DUP1 PUSH1 0x0 PUSH1 0x60 DUP5 DUP7 SUB SLT ISZERO PUSH2 0x104B JUMPI PUSH2 0x104A PUSH2 0x19CA JUMP JUMPDEST JUMPDEST PUSH1 0x0 DUP5 ADD CALLDATALOAD PUSH8 0xFFFFFFFFFFFFFFFF DUP2 GT ISZERO PUSH2 0x1069 JUMPI PUSH2 0x1068 PUSH2 0x19C5 JUMP JUMPDEST JUMPDEST PUSH2 0x1075 DUP7 DUP3 DUP8 ADD PUSH2 0xFC2 JUMP JUMPDEST SWAP4 POP POP PUSH1 0x20 DUP5 ADD CALLDATALOAD PUSH8 0xFFFFFFFFFFFFFFFF DUP2 GT ISZERO PUSH2 0x1096 JUMPI PUSH2 0x1095 PUSH2 0x19C5 JUMP JUMPDEST JUMPDEST PUSH2 0x10A2 DUP7 DUP3 DUP8 ADD PUSH2 0xFC2 JUMP JUMPDEST SWAP3 POP POP PUSH1 0x40 DUP5 ADD CALLDATALOAD PUSH8 0xFFFFFFFFFFFFFFFF DUP2 GT ISZERO PUSH2 0x10C3 JUMPI PUSH2 0x10C2 PUSH2 0x19C5 JUMP JUMPDEST JUMPDEST PUSH2 0x10CF DUP7 DUP3 DUP8 ADD PUSH2 0xFC2 JUMP JUMPDEST SWAP2 POP POP SWAP3 POP SWAP3 POP SWAP3 JUMP JUMPDEST PUSH1 0x0 PUSH1 0x20 DUP3 DUP5 SUB SLT ISZERO PUSH2 0x10EF JUMPI PUSH2 0x10EE PUSH2 0x19CA JUMP JUMPDEST JUMPDEST PUSH1 0x0 PUSH2 0x10FD DUP5 DUP3 DUP6 ADD PUSH2 0xFF0 JUMP JUMPDEST SWAP2 POP POP SWAP3 SWAP2 POP POP JUMP JUMPDEST PUSH1 0x0 PUSH2 0x1112 DUP4 DUP4 PUSH2 0x1316 JUMP JUMPDEST PUSH1 0x20 DUP4 ADD SWAP1 POP SWAP3 SWAP2 POP POP JUMP JUMPDEST PUSH2 0x1127 DUP2 PUSH2 0x175B JUMP JUMPDEST DUP3 MSTORE POP POP JUMP JUMPDEST PUSH1 0x0 PUSH2 0x1138 DUP3 PUSH2 0x1632 JUMP JUMPDEST PUSH2 0x1142 DUP2 DUP6 PUSH2 0x1655 JUMP JUMPDEST SWAP4 POP PUSH2 0x114D DUP4 PUSH2 0x160D JUMP JUMPDEST DUP1 PUSH1 0x0 JUMPDEST DUP4 DUP2 LT ISZERO PUSH2 0x117E JUMPI DUP2 MLOAD PUSH2 0x1165 DUP9 DUP3 PUSH2 0x1106 JUMP JUMPDEST SWAP8 POP PUSH2 0x1170 DUP4 PUSH2 0x1648 JUMP JUMPDEST SWAP3 POP POP PUSH1 0x1 DUP2 ADD SWAP1 POP PUSH2 0x1151 JUMP JUMPDEST POP DUP6 SWAP4 POP POP POP POP SWAP3 SWAP2 POP POP JUMP JUMPDEST PUSH1 0x0 PUSH2 0x1196 DUP3 PUSH2 0x163D JUMP JUMPDEST PUSH2 0x11A0 DUP2 DUP6 PUSH2 0x1666 JUMP JUMPDEST SWAP4 POP PUSH2 0x11B0 DUP2 DUP6 PUSH1 0x20 DUP7 ADD PUSH2 0x17B6 JUMP JUMPDEST PUSH2 0x11B9 DUP2 PUSH2 0x19CF JUMP JUMPDEST DUP5 ADD SWAP2 POP POP SWAP3 SWAP2 POP POP JUMP JUMPDEST PUSH1 0x0 DUP2 SLOAD PUSH2 0x11D1 DUP2 PUSH2 0x17E9 JUMP JUMPDEST PUSH2 0x11DB DUP2 DUP7 PUSH2 0x1666 JUMP JUMPDEST SWAP5 POP PUSH1 0x1 DUP3 AND PUSH1 0x0 DUP2 EQ PUSH2 0x11F6 JUMPI PUSH1 0x1 DUP2 EQ PUSH2 0x1208 JUMPI PUSH2 0x123B JUMP JUMPDEST PUSH1 0xFF NOT DUP4 AND DUP7 MSTORE PUSH1 0x20 DUP7 ADD SWAP4 POP PUSH2 0x123B JUMP JUMPDEST PUSH2 0x1211 DUP6 PUSH2 0x161D JUMP JUMPDEST PUSH1 0x0 JUMPDEST DUP4 DUP2 LT ISZERO PUSH2 0x1233 JUMPI DUP2 SLOAD DUP2 DUP10 ADD MSTORE PUSH1 0x1 DUP3 ADD SWAP2 POP PUSH1 0x20 DUP2 ADD SWAP1 POP PUSH2 0x1214 JUMP JUMPDEST DUP1 DUP9 ADD SWAP6 POP POP POP JUMPDEST POP POP POP SWAP3 SWAP2 POP POP JUMP JUMPDEST PUSH1 0x0 PUSH2 0x1251 PUSH1 0xF DUP4 PUSH2 0x1666 JUMP JUMPDEST SWAP2 POP PUSH2 0x125C DUP3 PUSH2 0x19E0 JUMP JUMPDEST PUSH1 0x20 DUP3 ADD SWAP1 POP SWAP2 SWAP1 POP JUMP JUMPDEST PUSH1 0x0 PUSH2 0x1274 PUSH1 0x28 DUP4 PUSH2 0x1666 JUMP JUMPDEST SWAP2 POP PUSH2 0x127F DUP3 PUSH2 0x1A09 JUMP JUMPDEST PUSH1 0x40 DUP3 ADD SWAP1 POP SWAP2 SWAP1 POP JUMP JUMPDEST PUSH1 0x0 PUSH2 0x1297 PUSH1 0x26 DUP4 PUSH2 0x1666 JUMP JUMPDEST SWAP2 POP PUSH2 0x12A2 DUP3 PUSH2 0x1A58 JUMP JUMPDEST PUSH1 0x40 DUP3 ADD SWAP1 POP SWAP2 SWAP1 POP JUMP JUMPDEST PUSH1 0x0 PUSH2 0x12BA PUSH1 0xC DUP4 PUSH2 0x1666 JUMP JUMPDEST SWAP2 POP PUSH2 0x12C5 DUP3 PUSH2 0x1AA7 JUMP JUMPDEST PUSH1 0x20 DUP3 ADD SWAP1 POP SWAP2 SWAP1 POP JUMP JUMPDEST PUSH1 0x0 PUSH2 0x12DD PUSH1 0x20 DUP4 PUSH2 0x1666 JUMP JUMPDEST SWAP2 POP PUSH2 0x12E8 DUP3 PUSH2 0x1AD0 JUMP JUMPDEST PUSH1 0x20 DUP3 ADD SWAP1 POP SWAP2 SWAP1 POP JUMP JUMPDEST PUSH1 0x0 PUSH2 0x1300 PUSH1 0x15 DUP4 PUSH2 0x1666 JUMP JUMPDEST SWAP2 POP PUSH2 0x130B DUP3 PUSH2 0x1AF9 JUMP JUMPDEST PUSH1 0x20 DUP3 ADD SWAP1 POP SWAP2 SWAP1 POP JUMP JUMPDEST PUSH2 0x131F DUP2 PUSH2 0x178D JUMP JUMPDEST DUP3 MSTORE POP POP JUMP JUMPDEST PUSH2 0x132E DUP2 PUSH2 0x178D JUMP JUMPDEST DUP3 MSTORE POP POP JUMP JUMPDEST PUSH2 0x1345 PUSH2 0x1340 DUP3 PUSH2 0x178D JUMP JUMPDEST PUSH2 0x1895 JUMP JUMPDEST DUP3 MSTORE POP POP JUMP JUMPDEST PUSH2 0x1354 DUP2 PUSH2 0x1797 JUMP JUMPDEST DUP3 MSTORE POP POP JUMP JUMPDEST PUSH1 0x0 PUSH2 0x1366 DUP3 DUP7 PUSH2 0x1334 JUMP JUMPDEST PUSH1 0x20 DUP3 ADD SWAP2 POP PUSH2 0x1376 DUP3 DUP6 PUSH2 0x1334 JUMP JUMPDEST PUSH1 0x20 DUP3 ADD SWAP2 POP PUSH2 0x1386 DUP3 DUP5 PUSH2 0x1334 JUMP JUMPDEST PUSH1 0x20 DUP3 ADD SWAP2 POP DUP2 SWAP1 POP SWAP5 SWAP4 POP POP POP POP JUMP JUMPDEST PUSH1 0x0 PUSH1 0x20 DUP3 ADD SWAP1 POP PUSH2 0x13AC PUSH1 0x0 DUP4 ADD DUP5 PUSH2 0x111E JUMP JUMPDEST SWAP3 SWAP2 POP POP JUMP JUMPDEST PUSH1 0x0 PUSH2 0x100 DUP3 ADD SWAP1 POP PUSH2 0x13C8 PUSH1 0x0 DUP4 ADD DUP12 PUSH2 0x111E JUMP JUMPDEST DUP2 DUP2 SUB PUSH1 0x20 DUP4 ADD MSTORE PUSH2 0x13DA DUP2 DUP11 PUSH2 0x118B JUMP JUMPDEST SWAP1 POP DUP2 DUP2 SUB PUSH1 0x40 DUP4 ADD MSTORE PUSH2 0x13EE DUP2 DUP10 PUSH2 0x118B JUMP JUMPDEST SWAP1 POP DUP2 DUP2 SUB PUSH1 0x60 DUP4 ADD MSTORE PUSH2 0x1402 DUP2 DUP9 PUSH2 0x118B JUMP JUMPDEST SWAP1 POP PUSH2 0x1411 PUSH1 0x80 DUP4 ADD DUP8 PUSH2 0x1325 JUMP JUMPDEST PUSH2 0x141E PUSH1 0xA0 DUP4 ADD DUP7 PUSH2 0x1325 JUMP JUMPDEST PUSH2 0x142B PUSH1 0xC0 DUP4 ADD DUP6 PUSH2 0x1325 JUMP JUMPDEST PUSH2 0x1438 PUSH1 0xE0 DUP4 ADD DUP5 PUSH2 0x134B JUMP JUMPDEST SWAP10 SWAP9 POP POP POP POP POP POP POP POP POP JUMP JUMPDEST PUSH1 0x0 PUSH1 0x20 DUP3 ADD SWAP1 POP DUP2 DUP2 SUB PUSH1 0x0 DUP4 ADD MSTORE PUSH2 0x145F DUP2 DUP5 PUSH2 0x112D JUMP JUMPDEST SWAP1 POP SWAP3 SWAP2 POP POP JUMP JUMPDEST PUSH1 0x0 PUSH1 0x20 DUP3 ADD SWAP1 POP DUP2 DUP2 SUB PUSH1 0x0 DUP4 ADD MSTORE PUSH2 0x1481 DUP2 DUP5 PUSH2 0x118B JUMP JUMPDEST SWAP1 POP SWAP3 SWAP2 POP POP JUMP JUMPDEST PUSH1 0x0 PUSH1 0x40 DUP3 ADD SWAP1 POP DUP2 DUP2 SUB PUSH1 0x0 DUP4 ADD MSTORE PUSH2 0x14A3 DUP2 DUP6 PUSH2 0x11C4 JUMP JUMPDEST SWAP1 POP DUP2 DUP2 SUB PUSH1 0x20 DUP4 ADD MSTORE PUSH2 0x14B7 DUP2 DUP5 PUSH2 0x11C4 JUMP JUMPDEST SWAP1 POP SWAP4 SWAP3 POP POP POP JUMP JUMPDEST PUSH1 0x0 PUSH1 0x20 DUP3 ADD SWAP1 POP DUP2 DUP2 SUB PUSH1 0x0 DUP4 ADD MSTORE PUSH2 0x14D9 DUP2 PUSH2 0x1244 JUMP JUMPDEST SWAP1 POP SWAP2 SWAP1 POP JUMP JUMPDEST PUSH1 0x0 PUSH1 0x20 DUP3 ADD SWAP1 POP DUP2 DUP2 SUB PUSH1 0x0 DUP4 ADD MSTORE PUSH2 0x14F9 DUP2 PUSH2 0x1267 JUMP JUMPDEST SWAP1 POP SWAP2 SWAP1 POP JUMP JUMPDEST PUSH1 0x0 PUSH1 0x20 DUP3 ADD SWAP1 POP DUP2 DUP2 SUB PUSH1 0x0 DUP4 ADD MSTORE PUSH2 0x1519 DUP2 PUSH2 0x128A JUMP JUMPDEST SWAP1 POP SWAP2 SWAP1 POP JUMP JUMPDEST PUSH1 0x0 PUSH1 0x40 DUP3 ADD SWAP1 POP DUP2 DUP2 SUB PUSH1 0x0 DUP4 ADD MSTORE PUSH2 0x1539 DUP2 PUSH2 0x12AD JUMP JUMPDEST SWAP1 POP PUSH2 0x1548 PUSH1 0x20 DUP4 ADD DUP5 PUSH2 0x1325 JUMP JUMPDEST SWAP3 SWAP2 POP POP JUMP JUMPDEST PUSH1 0x0 PUSH1 0x20 DUP3 ADD SWAP1 POP DUP2 DUP2 SUB PUSH1 0x0 DUP4 ADD MSTORE PUSH2 0x1567 DUP2 PUSH2 0x12D0 JUMP JUMPDEST SWAP1 POP SWAP2 SWAP1 POP JUMP JUMPDEST PUSH1 0x0 PUSH1 0x40 DUP3 ADD SWAP1 POP DUP2 DUP2 SUB PUSH1 0x0 DUP4 ADD MSTORE PUSH2 0x1587 DUP2 PUSH2 0x12F3 JUMP JUMPDEST SWAP1 POP PUSH2 0x1596 PUSH1 0x20 DUP4 ADD DUP5 PUSH2 0x1325 JUMP JUMPDEST SWAP3 SWAP2 POP POP JUMP JUMPDEST PUSH1 0x0 PUSH1 0x20 DUP3 ADD SWAP1 POP PUSH2 0x15B1 PUSH1 0x0 DUP4 ADD DUP5 PUSH2 0x1325 JUMP JUMPDEST SWAP3 SWAP2 POP POP JUMP JUMPDEST PUSH1 0x0 PUSH2 0x15C1 PUSH2 0x15D2 JUMP JUMPDEST SWAP1 POP PUSH2 0x15CD DUP3 DUP3 PUSH2 0x181B JUMP JUMPDEST SWAP2 SWAP1 POP JUMP JUMPDEST PUSH1 0x0 PUSH1 0x40 MLOAD SWAP1 POP SWAP1 JUMP JUMPDEST PUSH1 0x0 PUSH8 0xFFFFFFFFFFFFFFFF DUP3 GT ISZERO PUSH2 0x15F7 JUMPI PUSH2 0x15F6 PUSH2 0x198C JUMP JUMPDEST JUMPDEST PUSH2 0x1600 DUP3 PUSH2 0x19CF JUMP JUMPDEST SWAP1 POP PUSH1 0x20 DUP2 ADD SWAP1 POP SWAP2 SWAP1 POP JUMP JUMPDEST PUSH1 0x0 DUP2 SWAP1 POP PUSH1 0x20 DUP3 ADD SWAP1 POP SWAP2 SWAP1 POP JUMP JUMPDEST PUSH1 0x0 DUP2 SWAP1 POP DUP2 PUSH1 0x0 MSTORE PUSH1 0x20 PUSH1 0x0 KECCAK256 SWAP1 POP SWAP2 SWAP1 POP JUMP JUMPDEST PUSH1 0x0 DUP2 MLOAD SWAP1 POP SWAP2 SWAP1 POP JUMP JUMPDEST PUSH1 0x0 DUP2 MLOAD SWAP1 POP SWAP2 SWAP1 POP JUMP JUMPDEST PUSH1 0x0 PUSH1 0x20 DUP3 ADD SWAP1 POP SWAP2 SWAP1 POP JUMP JUMPDEST PUSH1 0x0 DUP3 DUP3 MSTORE PUSH1 0x20 DUP3 ADD SWAP1 POP SWAP3 SWAP2 POP POP JUMP JUMPDEST PUSH1 0x0 DUP3 DUP3 MSTORE PUSH1 0x20 DUP3 ADD SWAP1 POP SWAP3 SWAP2 POP POP JUMP JUMPDEST PUSH1 0x0 PUSH2 0x1682 DUP3 PUSH2 0x178D JUMP JUMPDEST SWAP2 POP PUSH2 0x168D DUP4 PUSH2 0x178D JUMP JUMPDEST SWAP3 POP DUP3 PUSH32 0xFFFFFFFFFFFFFFFFFFFFFFFFFFFFFFFFFFFFFFFFFFFFFFFFFFFFFFFFFFFFFFFF SUB DUP3 GT ISZERO PUSH2 0x16C2 JUMPI PUSH2 0x16C1 PUSH2 0x18D0 JUMP JUMPDEST JUMPDEST DUP3 DUP3 ADD SWAP1 POP SWAP3 SWAP2 POP POP JUMP JUMPDEST PUSH1 0x0 PUSH2 0x16D8 DUP3 PUSH2 0x178D JUMP JUMPDEST SWAP2 POP PUSH2 0x16E3 DUP4 PUSH2 0x178D JUMP JUMPDEST SWAP3 POP DUP2 PUSH32 0xFFFFFFFFFFFFFFFFFFFFFFFFFFFFFFFFFFFFFFFFFFFFFFFFFFFFFFFFFFFFFFFF DIV DUP4 GT DUP3 ISZERO ISZERO AND ISZERO PUSH2 0x171C JUMPI PUSH2 0x171B PUSH2 0x18D0 JUMP JUMPDEST JUMPDEST DUP3 DUP3 MUL SWAP1 POP SWAP3 SWAP2 POP POP JUMP JUMPDEST PUSH1 0x0 PUSH2 0x1732 DUP3 PUSH2 0x178D JUMP JUMPDEST SWAP2 POP PUSH2 0x173D DUP4 PUSH2 0x178D JUMP JUMPDEST SWAP3 POP DUP3 DUP3 LT ISZERO PUSH2 0x1750 JUMPI PUSH2 0x174F PUSH2 0x18D0 JUMP JUMPDEST JUMPDEST DUP3 DUP3 SUB SWAP1 POP SWAP3 SWAP2 POP POP JUMP JUMPDEST PUSH1 0x0 PUSH2 0x1766 DUP3 PUSH2 0x176D JUMP JUMPDEST SWAP1 POP SWAP2 SWAP1 POP JUMP JUMPDEST PUSH1 0x0 PUSH20 0xFFFFFFFFFFFFFFFFFFFFFFFFFFFFFFFFFFFFFFFF DUP3 AND SWAP1 POP SWAP2 SWAP1 POP JUMP JUMPDEST PUSH1 0x0 DUP2 SWAP1 POP SWAP2 SWAP1 POP JUMP JUMPDEST PUSH1 0x0 PUSH4 0xFFFFFFFF DUP3 AND SWAP1 POP SWAP2 SWAP1 POP JUMP JUMPDEST DUP3 DUP2 DUP4 CALLDATACOPY PUSH1 0x0 DUP4 DUP4 ADD MSTORE POP POP POP JUMP JUMPDEST PUSH1 0x0 JUMPDEST DUP4 DUP2 LT ISZERO PUSH2 0x17D4 JUMPI DUP1 DUP3 ADD MLOAD DUP2 DUP5 ADD MSTORE PUSH1 0x20 DUP2 ADD SWAP1 POP PUSH2 0x17B9 JUMP JUMPDEST DUP4 DUP2 GT ISZERO PUSH2 0x17E3 JUMPI PUSH1 0x0 DUP5 DUP5 ADD MSTORE JUMPDEST POP POP POP POP JUMP JUMPDEST PUSH1 0x0 PUSH1 0x2 DUP3 DIV SWAP1 POP PUSH1 0x1 DUP3 AND DUP1 PUSH2 0x1801 JUMPI PUSH1 0x7F DUP3 AND SWAP2 POP JUMPDEST PUSH1 0x20 DUP3 LT DUP2 EQ ISZERO PUSH2 0x1815 JUMPI PUSH2 0x1814 PUSH2 0x192E JUMP JUMPDEST JUMPDEST POP SWAP2 SWAP1 POP JUMP JUMPDEST PUSH2 0x1824 DUP3 PUSH2 0x19CF JUMP JUMPDEST DUP2 ADD DUP2 DUP2 LT PUSH8 0xFFFFFFFFFFFFFFFF DUP3 GT OR ISZERO PUSH2 0x1843 JUMPI PUSH2 0x1842 PUSH2 0x198C JUMP JUMPDEST JUMPDEST DUP1 PUSH1 0x40 MSTORE POP POP POP JUMP JUMPDEST PUSH1 0x0 PUSH2 0x1857 DUP3 PUSH2 0x178D JUMP JUMPDEST SWAP2 POP PUSH32 0xFFFFFFFFFFFFFFFFFFFFFFFFFFFFFFFFFFFFFFFFFFFFFFFFFFFFFFFFFFFFFFFF DUP3 EQ ISZERO PUSH2 0x188A JUMPI PUSH2 0x1889 PUSH2 0x18D0 JUMP JUMPDEST JUMPDEST PUSH1 0x1 DUP3 ADD SWAP1 POP SWAP2 SWAP1 POP JUMP JUMPDEST PUSH1 0x0 DUP2 SWAP1 POP SWAP2 SWAP1 POP JUMP JUMPDEST PUSH1 0x0 PUSH2 0x18AA DUP3 PUSH2 0x178D JUMP JUMPDEST SWAP2 POP PUSH2 0x18B5 DUP4 PUSH2 0x178D JUMP JUMPDEST SWAP3 POP DUP3 PUSH2 0x18C5 JUMPI PUSH2 0x18C4 PUSH2 0x18FF JUMP JUMPDEST JUMPDEST DUP3 DUP3 MOD SWAP1 POP SWAP3 SWAP2 POP POP JUMP JUMPDEST PUSH32 0x4E487B7100000000000000000000000000000000000000000000000000000000 PUSH1 0x0 MSTORE PUSH1 0x11 PUSH1 0x4 MSTORE PUSH1 0x24 PUSH1 0x0 REVERT JUMPDEST PUSH32 0x4E487B7100000000000000000000000000000000000000000000000000000000 PUSH1 0x0 MSTORE PUSH1 0x12 PUSH1 0x4 MSTORE PUSH1 0x24 PUSH1 0x0 REVERT JUMPDEST PUSH32 0x4E487B7100000000000000000000000000000000000000000000000000000000 PUSH1 0x0 MSTORE PUSH1 0x22 PUSH1 0x4 MSTORE PUSH1 0x24 PUSH1 0x0 REVERT JUMPDEST PUSH32 0x4E487B7100000000000000000000000000000000000000000000000000000000 PUSH1 0x0 MSTORE PUSH1 0x32 PUSH1 0x4 MSTORE PUSH1 0x24 PUSH1 0x0 REVERT JUMPDEST PUSH32 0x4E487B7100000000000000000000000000000000000000000000000000000000 PUSH1 0x0 MSTORE PUSH1 0x41 PUSH1 0x4 MSTORE PUSH1 0x24 PUSH1 0x0 REVERT JUMPDEST PUSH1 0x0 DUP1 REVERT JUMPDEST PUSH1 0x0 DUP1 REVERT JUMPDEST PUSH1 0x0 DUP1 REVERT JUMPDEST PUSH1 0x0 DUP1 REVERT JUMPDEST PUSH1 0x0 PUSH1 0x1F NOT PUSH1 0x1F DUP4 ADD AND SWAP1 POP SWAP2 SWAP1 POP JUMP JUMPDEST PUSH32 0x4E6F207469656E6520636F636865730000000000000000000000000000000000 PUSH1 0x0 DUP3 ADD MSTORE POP JUMP JUMPDEST PUSH32 0x536F6C6F2073652070756564652074656E657220756E20636F63686520706F72 PUSH1 0x0 DUP3 ADD MSTORE PUSH32 0x20706572736F6E61000000000000000000000000000000000000000000000000 PUSH1 0x20 DUP3 ADD MSTORE POP JUMP JUMPDEST PUSH32 0x4F776E61626C653A206E6577206F776E657220697320746865207A65726F2061 PUSH1 0x0 DUP3 ADD MSTORE PUSH32 0x6464726573730000000000000000000000000000000000000000000000000000 PUSH1 0x20 DUP3 ADD MSTORE POP JUMP JUMPDEST PUSH32 0x4861732067616E61646F3A200000000000000000000000000000000000000000 PUSH1 0x0 DUP3 ADD MSTORE POP JUMP JUMPDEST PUSH32 0x4F776E61626C653A2063616C6C6572206973206E6F7420746865206F776E6572 PUSH1 0x0 DUP3 ADD MSTORE POP JUMP JUMPDEST PUSH32 0x456C20636F6368652067616E61646F722065733A200000000000000000000000 PUSH1 0x0 DUP3 ADD MSTORE POP JUMP JUMPDEST PUSH2 0x1B2B DUP2 PUSH2 0x175B JUMP JUMPDEST DUP2 EQ PUSH2 0x1B36 JUMPI PUSH1 0x0 DUP1 REVERT JUMPDEST POP JUMP JUMPDEST PUSH2 0x1B42 DUP2 PUSH2 0x178D JUMP JUMPDEST DUP2 EQ PUSH2 0x1B4D JUMPI PUSH1 0x0 DUP1 REVERT JUMPDEST POP JUMP INVALID LOG2 PUSH5 0x6970667358 0x22 SLT KECCAK256 0xE7 0xDE COINBASE BASEFEE SWAP16 0x26 SHR MULMOD DUP3 PUSH30 0x91E98C0557965FFB5894116615EA238AD939577A4B8F64736F6C63430008 SMOD STOP CALLER "
				},
				"gasEstimates": {
					"creation": {
						"codeDepositCost": "1409200",
						"executionCost": "infinite",
						"totalCost": "infinite"
					},
					"external": {
						"Apostar(uint256)": "infinite",
						"anadirCoche(string,string,string)": "infinite",
						"cocheDePropietario(uint256)": "2928",
						"listaCoches(uint256)": "infinite",
						"numeroAleatorio()": "infinite",
						"numeroCochesPersona(address)": "2815",
						"owner()": "2522",
						"renounceOwnership()": "30441",
						"transferOwnership(address)": "30811",
						"verCochePropietario(address)": "infinite"
					},
					"internal": {
						"_depositoLleno(struct CarreraCoches.Coche storage pointer)": "infinite",
						"_repostando(struct CarreraCoches.Coche storage pointer)": "infinite",
						"balance()": "infinite"
					}
				},
				"methodIdentifiers": {
					"Apostar(uint256)": "6b6f0494",
					"anadirCoche(string,string,string)": "2458c544",
					"cocheDePropietario(uint256)": "858b0554",
					"listaCoches(uint256)": "d735573d",
					"numeroAleatorio()": "f1413763",
					"numeroCochesPersona(address)": "1c6743e4",
					"owner()": "8da5cb5b",
					"renounceOwnership()": "715018a6",
					"transferOwnership(address)": "f2fde38b",
					"verCochePropietario(address)": "e172fca8"
				}
			},
			"storageLayout": {
				"storage": [
					{
						"astId": 7,
						"contract": "contracts/CarreraCoches/principal.sol:CarreraCoches",
						"label": "_owner",
						"offset": 0,
						"slot": "0",
						"type": "t_address"
					},
					{
						"astId": 129,
						"contract": "contracts/CarreraCoches/principal.sol:CarreraCoches",
						"label": "randNonce",
						"offset": 0,
						"slot": "1",
						"type": "t_uint256"
					},
					{
						"astId": 132,
						"contract": "contracts/CarreraCoches/principal.sol:CarreraCoches",
						"label": "contador",
						"offset": 0,
						"slot": "2",
						"type": "t_uint256"
					},
					{
						"astId": 135,
						"contract": "contracts/CarreraCoches/principal.sol:CarreraCoches",
						"label": "cooldown",
						"offset": 0,
						"slot": "3",
						"type": "t_uint256"
					},
					{
						"astId": 139,
						"contract": "contracts/CarreraCoches/principal.sol:CarreraCoches",
						"label": "listaCoches",
						"offset": 0,
						"slot": "4",
						"type": "t_array(t_struct(Coche)126_storage)dyn_storage"
					},
					{
						"astId": 163,
						"contract": "contracts/CarreraCoches/principal.sol:CarreraCoches",
						"label": "cocheDePropietario",
						"offset": 0,
						"slot": "5",
						"type": "t_mapping(t_uint256,t_address)"
					},
					{
						"astId": 167,
						"contract": "contracts/CarreraCoches/principal.sol:CarreraCoches",
						"label": "numeroCochesPersona",
						"offset": 0,
						"slot": "6",
						"type": "t_mapping(t_address,t_uint256)"
					}
				],
				"types": {
					"t_address": {
						"encoding": "inplace",
						"label": "address",
						"numberOfBytes": "20"
					},
					"t_array(t_struct(Coche)126_storage)dyn_storage": {
						"base": "t_struct(Coche)126_storage",
						"encoding": "dynamic_array",
						"label": "struct CarreraCoches.Coche[]",
						"numberOfBytes": "32"
					},
					"t_mapping(t_address,t_uint256)": {
						"encoding": "mapping",
						"key": "t_address",
						"label": "mapping(address => uint256)",
						"numberOfBytes": "32",
						"value": "t_uint256"
					},
					"t_mapping(t_uint256,t_address)": {
						"encoding": "mapping",
						"key": "t_uint256",
						"label": "mapping(uint256 => address)",
						"numberOfBytes": "32",
						"value": "t_address"
					},
					"t_string_storage": {
						"encoding": "bytes",
						"label": "string",
						"numberOfBytes": "32"
					},
					"t_struct(Coche)126_storage": {
						"encoding": "inplace",
						"label": "struct CarreraCoches.Coche",
						"members": [
							{
								"astId": 111,
								"contract": "contracts/CarreraCoches/principal.sol:CarreraCoches",
								"label": "idPiloto",
								"offset": 0,
								"slot": "0",
								"type": "t_address"
							},
							{
								"astId": 113,
								"contract": "contracts/CarreraCoches/principal.sol:CarreraCoches",
								"label": "modelo",
								"offset": 0,
								"slot": "1",
								"type": "t_string_storage"
							},
							{
								"astId": 115,
								"contract": "contracts/CarreraCoches/principal.sol:CarreraCoches",
								"label": "marca",
								"offset": 0,
								"slot": "2",
								"type": "t_string_storage"
							},
							{
								"astId": 117,
								"contract": "contracts/CarreraCoches/principal.sol:CarreraCoches",
								"label": "nombrePiloto",
								"offset": 0,
								"slot": "3",
								"type": "t_string_storage"
							},
							{
								"astId": 119,
								"contract": "contracts/CarreraCoches/principal.sol:CarreraCoches",
								"label": "carrerasGanadas",
								"offset": 0,
								"slot": "4",
								"type": "t_uint256"
							},
							{
								"astId": 121,
								"contract": "contracts/CarreraCoches/principal.sol:CarreraCoches",
								"label": "carrerasTotales",
								"offset": 0,
								"slot": "5",
								"type": "t_uint256"
							},
							{
								"astId": 123,
								"contract": "contracts/CarreraCoches/principal.sol:CarreraCoches",
								"label": "tiempoEspera",
								"offset": 0,
								"slot": "6",
								"type": "t_uint256"
							},
							{
								"astId": 125,
								"contract": "contracts/CarreraCoches/principal.sol:CarreraCoches",
								"label": "nivel",
								"offset": 0,
								"slot": "7",
								"type": "t_uint32"
							}
						],
						"numberOfBytes": "256"
					},
					"t_uint256": {
						"encoding": "inplace",
						"label": "uint256",
						"numberOfBytes": "32"
					},
					"t_uint32": {
						"encoding": "inplace",
						"label": "uint32",
						"numberOfBytes": "4"
					}
				}
			},
			"userdoc": {
				"kind": "user",
				"methods": {},
				"version": 1
			}
		}
	}
}