{
	"contracts/CarreraCoches/Coche.sol": {
		"Coche": {
			"abi": [
				{
					"inputs": [
						{
							"internalType": "uint256",
							"name": "",
							"type": "uint256"
						}
					],
					"name": "listaCoches",
					"outputs": [
						{
							"internalType": "address",
							"name": "idPiloto",
							"type": "address"
						},
						{
							"internalType": "string",
							"name": "modelo",
							"type": "string"
						},
						{
							"internalType": "string",
							"name": "marca",
							"type": "string"
						},
						{
							"internalType": "string",
							"name": "nombrePiloto",
							"type": "string"
						},
						{
							"internalType": "uint256",
							"name": "carrerasGanadas",
							"type": "uint256"
						},
						{
							"internalType": "uint256",
							"name": "carrerasTotales",
							"type": "uint256"
						}
					],
					"stateMutability": "view",
					"type": "function"
				},
				{
					"inputs": [
						{
							"internalType": "address",
							"name": "",
							"type": "address"
						}
					],
					"name": "numeroCochesPersona",
					"outputs": [
						{
							"internalType": "uint256",
							"name": "",
							"type": "uint256"
						}
					],
					"stateMutability": "view",
					"type": "function"
				}
			],
			"devdoc": {
				"kind": "dev",
				"methods": {},
				"version": 1
			},
			"evm": {
				"assembly": "    /* \"contracts/CarreraCoches/Coche.sol\":27:578  contract Coche {\r... */\n  mstore(0x40, 0x80)\n    /* \"contracts/CarreraCoches/Coche.sol\":272:273  0 */\n  0x00\n    /* \"contracts/CarreraCoches/Coche.sol\":256:273  uint contador = 0 */\n  dup1\n  sstore\n    /* \"contracts/CarreraCoches/Coche.sol\":27:578  contract Coche {\r... */\n  callvalue\n  dup1\n  iszero\n  tag_1\n  jumpi\n  0x00\n  dup1\n  revert\ntag_1:\n  pop\n  dataSize(sub_0)\n  dup1\n  dataOffset(sub_0)\n  0x00\n  codecopy\n  0x00\n  return\nstop\n\nsub_0: assembly {\n        /* \"contracts/CarreraCoches/Coche.sol\":27:578  contract Coche {\r... */\n      mstore(0x40, 0x80)\n      callvalue\n      dup1\n      iszero\n      tag_1\n      jumpi\n      0x00\n      dup1\n      revert\n    tag_1:\n      pop\n      jumpi(tag_2, lt(calldatasize, 0x04))\n      shr(0xe0, calldataload(0x00))\n      dup1\n      0x1c6743e4\n      eq\n      tag_3\n      jumpi\n      dup1\n      0xd735573d\n      eq\n      tag_4\n      jumpi\n    tag_2:\n      0x00\n      dup1\n      revert\n        /* \"contracts/CarreraCoches/Coche.sol\":325:377  mapping (address => uint) public numeroCochesPersona */\n    tag_3:\n      tag_5\n      0x04\n      dup1\n      calldatasize\n      sub\n      dup2\n      add\n      swap1\n      tag_6\n      swap2\n      swap1\n      tag_7\n      jump\t// in\n    tag_6:\n      tag_8\n      jump\t// in\n    tag_5:\n      mload(0x40)\n      tag_9\n      swap2\n      swap1\n      tag_10\n      jump\t// in\n    tag_9:\n      mload(0x40)\n      dup1\n      swap2\n      sub\n      swap1\n      return\n        /* \"contracts/CarreraCoches/Coche.sol\":290:316  Coche[] public listaCoches */\n    tag_4:\n      tag_11\n      0x04\n      dup1\n      calldatasize\n      sub\n      dup2\n      add\n      swap1\n      tag_12\n      swap2\n      swap1\n      tag_13\n      jump\t// in\n    tag_12:\n      tag_14\n      jump\t// in\n    tag_11:\n      mload(0x40)\n      tag_15\n      swap7\n      swap6\n      swap5\n      swap4\n      swap3\n      swap2\n      swap1\n      tag_16\n      jump\t// in\n    tag_15:\n      mload(0x40)\n      dup1\n      swap2\n      sub\n      swap1\n      return\n        /* \"contracts/CarreraCoches/Coche.sol\":325:377  mapping (address => uint) public numeroCochesPersona */\n    tag_8:\n      mstore(0x20, 0x02)\n      dup1\n      0x00\n      mstore\n      keccak256(0x00, 0x40)\n      0x00\n      swap2\n      pop\n      swap1\n      pop\n      sload\n      dup2\n      jump\t// out\n        /* \"contracts/CarreraCoches/Coche.sol\":290:316  Coche[] public listaCoches */\n    tag_14:\n      0x01\n      dup2\n      dup2\n      sload\n      dup2\n      lt\n      tag_17\n      jumpi\n      0x00\n      dup1\n      revert\n    tag_17:\n      swap1\n      0x00\n      mstore\n      keccak256(0x00, 0x20)\n      swap1\n      0x06\n      mul\n      add\n      0x00\n      swap2\n      pop\n      swap1\n      pop\n      dup1\n      0x00\n      add\n      0x00\n      swap1\n      sload\n      swap1\n      0x0100\n      exp\n      swap1\n      div\n      0xffffffffffffffffffffffffffffffffffffffff\n      and\n      swap1\n      dup1\n      0x01\n      add\n      dup1\n      sload\n      tag_19\n      swap1\n      tag_20\n      jump\t// in\n    tag_19:\n      dup1\n      0x1f\n      add\n      0x20\n      dup1\n      swap2\n      div\n      mul\n      0x20\n      add\n      mload(0x40)\n      swap1\n      dup2\n      add\n      0x40\n      mstore\n      dup1\n      swap3\n      swap2\n      swap1\n      dup2\n      dup2\n      mstore\n      0x20\n      add\n      dup3\n      dup1\n      sload\n      tag_21\n      swap1\n      tag_20\n      jump\t// in\n    tag_21:\n      dup1\n      iszero\n      tag_22\n      jumpi\n      dup1\n      0x1f\n      lt\n      tag_23\n      jumpi\n      0x0100\n      dup1\n      dup4\n      sload\n      div\n      mul\n      dup4\n      mstore\n      swap2\n      0x20\n      add\n      swap2\n      jump(tag_22)\n    tag_23:\n      dup3\n      add\n      swap2\n      swap1\n      0x00\n      mstore\n      keccak256(0x00, 0x20)\n      swap1\n    tag_24:\n      dup2\n      sload\n      dup2\n      mstore\n      swap1\n      0x01\n      add\n      swap1\n      0x20\n      add\n      dup1\n      dup4\n      gt\n      tag_24\n      jumpi\n      dup3\n      swap1\n      sub\n      0x1f\n      and\n      dup3\n      add\n      swap2\n    tag_22:\n      pop\n      pop\n      pop\n      pop\n      pop\n      swap1\n      dup1\n      0x02\n      add\n      dup1\n      sload\n      tag_25\n      swap1\n      tag_20\n      jump\t// in\n    tag_25:\n      dup1\n      0x1f\n      add\n      0x20\n      dup1\n      swap2\n      div\n      mul\n      0x20\n      add\n      mload(0x40)\n      swap1\n      dup2\n      add\n      0x40\n      mstore\n      dup1\n      swap3\n      swap2\n      swap1\n      dup2\n      dup2\n      mstore\n      0x20\n      add\n      dup3\n      dup1\n      sload\n      tag_26\n      swap1\n      tag_20\n      jump\t// in\n    tag_26:\n      dup1\n      iszero\n      tag_27\n      jumpi\n      dup1\n      0x1f\n      lt\n      tag_28\n      jumpi\n      0x0100\n      dup1\n      dup4\n      sload\n      div\n      mul\n      dup4\n      mstore\n      swap2\n      0x20\n      add\n      swap2\n      jump(tag_27)\n    tag_28:\n      dup3\n      add\n      swap2\n      swap1\n      0x00\n      mstore\n      keccak256(0x00, 0x20)\n      swap1\n    tag_29:\n      dup2\n      sload\n      dup2\n      mstore\n      swap1\n      0x01\n      add\n      swap1\n      0x20\n      add\n      dup1\n      dup4\n      gt\n      tag_29\n      jumpi\n      dup3\n      swap1\n      sub\n      0x1f\n      and\n      dup3\n      add\n      swap2\n    tag_27:\n      pop\n      pop\n      pop\n      pop\n      pop\n      swap1\n      dup1\n      0x03\n      add\n      dup1\n      sload\n      tag_30\n      swap1\n      tag_20\n      jump\t// in\n    tag_30:\n      dup1\n      0x1f\n      add\n      0x20\n      dup1\n      swap2\n      div\n      mul\n      0x20\n      add\n      mload(0x40)\n      swap1\n      dup2\n      add\n      0x40\n      mstore\n      dup1\n      swap3\n      swap2\n      swap1\n      dup2\n      dup2\n      mstore\n      0x20\n      add\n      dup3\n      dup1\n      sload\n      tag_31\n      swap1\n      tag_20\n      jump\t// in\n    tag_31:\n      dup1\n      iszero\n      tag_32\n      jumpi\n      dup1\n      0x1f\n      lt\n      tag_33\n      jumpi\n      0x0100\n      dup1\n      dup4\n      sload\n      div\n      mul\n      dup4\n      mstore\n      swap2\n      0x20\n      add\n      swap2\n      jump(tag_32)\n    tag_33:\n      dup3\n      add\n      swap2\n      swap1\n      0x00\n      mstore\n      keccak256(0x00, 0x20)\n      swap1\n    tag_34:\n      dup2\n      sload\n      dup2\n      mstore\n      swap1\n      0x01\n      add\n      swap1\n      0x20\n      add\n      dup1\n      dup4\n      gt\n      tag_34\n      jumpi\n      dup3\n      swap1\n      sub\n      0x1f\n      and\n      dup3\n      add\n      swap2\n    tag_32:\n      pop\n      pop\n      pop\n      pop\n      pop\n      swap1\n      dup1\n      0x04\n      add\n      sload\n      swap1\n      dup1\n      0x05\n      add\n      sload\n      swap1\n      pop\n      dup7\n      jump\t// out\n        /* \"#utility.yul\":7:146   */\n    tag_36:\n        /* \"#utility.yul\":53:58   */\n      0x00\n        /* \"#utility.yul\":91:97   */\n      dup2\n        /* \"#utility.yul\":78:98   */\n      calldataload\n        /* \"#utility.yul\":69:98   */\n      swap1\n      pop\n        /* \"#utility.yul\":107:140   */\n      tag_38\n        /* \"#utility.yul\":134:139   */\n      dup2\n        /* \"#utility.yul\":107:140   */\n      tag_39\n      jump\t// in\n    tag_38:\n        /* \"#utility.yul\":7:146   */\n      swap3\n      swap2\n      pop\n      pop\n      jump\t// out\n        /* \"#utility.yul\":152:291   */\n    tag_40:\n        /* \"#utility.yul\":198:203   */\n      0x00\n        /* \"#utility.yul\":236:242   */\n      dup2\n        /* \"#utility.yul\":223:243   */\n      calldataload\n        /* \"#utility.yul\":214:243   */\n      swap1\n      pop\n        /* \"#utility.yul\":252:285   */\n      tag_42\n        /* \"#utility.yul\":279:284   */\n      dup2\n        /* \"#utility.yul\":252:285   */\n      tag_43\n      jump\t// in\n    tag_42:\n        /* \"#utility.yul\":152:291   */\n      swap3\n      swap2\n      pop\n      pop\n      jump\t// out\n        /* \"#utility.yul\":297:626   */\n    tag_7:\n        /* \"#utility.yul\":356:362   */\n      0x00\n        /* \"#utility.yul\":405:407   */\n      0x20\n        /* \"#utility.yul\":393:402   */\n      dup3\n        /* \"#utility.yul\":384:391   */\n      dup5\n        /* \"#utility.yul\":380:403   */\n      sub\n        /* \"#utility.yul\":376:408   */\n      slt\n        /* \"#utility.yul\":373:492   */\n      iszero\n      tag_45\n      jumpi\n        /* \"#utility.yul\":411:490   */\n      tag_46\n      tag_47\n      jump\t// in\n    tag_46:\n        /* \"#utility.yul\":373:492   */\n    tag_45:\n        /* \"#utility.yul\":531:532   */\n      0x00\n        /* \"#utility.yul\":556:609   */\n      tag_48\n        /* \"#utility.yul\":601:608   */\n      dup5\n        /* \"#utility.yul\":592:598   */\n      dup3\n        /* \"#utility.yul\":581:590   */\n      dup6\n        /* \"#utility.yul\":577:599   */\n      add\n        /* \"#utility.yul\":556:609   */\n      tag_36\n      jump\t// in\n    tag_48:\n        /* \"#utility.yul\":546:609   */\n      swap2\n      pop\n        /* \"#utility.yul\":502:619   */\n      pop\n        /* \"#utility.yul\":297:626   */\n      swap3\n      swap2\n      pop\n      pop\n      jump\t// out\n        /* \"#utility.yul\":632:961   */\n    tag_13:\n        /* \"#utility.yul\":691:697   */\n      0x00\n        /* \"#utility.yul\":740:742   */\n      0x20\n        /* \"#utility.yul\":728:737   */\n      dup3\n        /* \"#utility.yul\":719:726   */\n      dup5\n        /* \"#utility.yul\":715:738   */\n      sub\n        /* \"#utility.yul\":711:743   */\n      slt\n        /* \"#utility.yul\":708:827   */\n      iszero\n      tag_50\n      jumpi\n        /* \"#utility.yul\":746:825   */\n      tag_51\n      tag_47\n      jump\t// in\n    tag_51:\n        /* \"#utility.yul\":708:827   */\n    tag_50:\n        /* \"#utility.yul\":866:867   */\n      0x00\n        /* \"#utility.yul\":891:944   */\n      tag_52\n        /* \"#utility.yul\":936:943   */\n      dup5\n        /* \"#utility.yul\":927:933   */\n      dup3\n        /* \"#utility.yul\":916:925   */\n      dup6\n        /* \"#utility.yul\":912:934   */\n      add\n        /* \"#utility.yul\":891:944   */\n      tag_40\n      jump\t// in\n    tag_52:\n        /* \"#utility.yul\":881:944   */\n      swap2\n      pop\n        /* \"#utility.yul\":837:954   */\n      pop\n        /* \"#utility.yul\":632:961   */\n      swap3\n      swap2\n      pop\n      pop\n      jump\t// out\n        /* \"#utility.yul\":967:1085   */\n    tag_53:\n        /* \"#utility.yul\":1054:1078   */\n      tag_55\n        /* \"#utility.yul\":1072:1077   */\n      dup2\n        /* \"#utility.yul\":1054:1078   */\n      tag_56\n      jump\t// in\n    tag_55:\n        /* \"#utility.yul\":1049:1052   */\n      dup3\n        /* \"#utility.yul\":1042:1079   */\n      mstore\n        /* \"#utility.yul\":967:1085   */\n      pop\n      pop\n      jump\t// out\n        /* \"#utility.yul\":1091:1455   */\n    tag_57:\n        /* \"#utility.yul\":1179:1182   */\n      0x00\n        /* \"#utility.yul\":1207:1246   */\n      tag_59\n        /* \"#utility.yul\":1240:1245   */\n      dup3\n        /* \"#utility.yul\":1207:1246   */\n      tag_60\n      jump\t// in\n    tag_59:\n        /* \"#utility.yul\":1262:1333   */\n      tag_61\n        /* \"#utility.yul\":1326:1332   */\n      dup2\n        /* \"#utility.yul\":1321:1324   */\n      dup6\n        /* \"#utility.yul\":1262:1333   */\n      tag_62\n      jump\t// in\n    tag_61:\n        /* \"#utility.yul\":1255:1333   */\n      swap4\n      pop\n        /* \"#utility.yul\":1342:1394   */\n      tag_63\n        /* \"#utility.yul\":1387:1393   */\n      dup2\n        /* \"#utility.yul\":1382:1385   */\n      dup6\n        /* \"#utility.yul\":1375:1379   */\n      0x20\n        /* \"#utility.yul\":1368:1373   */\n      dup7\n        /* \"#utility.yul\":1364:1380   */\n      add\n        /* \"#utility.yul\":1342:1394   */\n      tag_64\n      jump\t// in\n    tag_63:\n        /* \"#utility.yul\":1419:1448   */\n      tag_65\n        /* \"#utility.yul\":1441:1447   */\n      dup2\n        /* \"#utility.yul\":1419:1448   */\n      tag_66\n      jump\t// in\n    tag_65:\n        /* \"#utility.yul\":1414:1417   */\n      dup5\n        /* \"#utility.yul\":1410:1449   */\n      add\n        /* \"#utility.yul\":1403:1449   */\n      swap2\n      pop\n        /* \"#utility.yul\":1183:1455   */\n      pop\n        /* \"#utility.yul\":1091:1455   */\n      swap3\n      swap2\n      pop\n      pop\n      jump\t// out\n        /* \"#utility.yul\":1461:1579   */\n    tag_67:\n        /* \"#utility.yul\":1548:1572   */\n      tag_69\n        /* \"#utility.yul\":1566:1571   */\n      dup2\n        /* \"#utility.yul\":1548:1572   */\n      tag_70\n      jump\t// in\n    tag_69:\n        /* \"#utility.yul\":1543:1546   */\n      dup3\n        /* \"#utility.yul\":1536:1573   */\n      mstore\n        /* \"#utility.yul\":1461:1579   */\n      pop\n      pop\n      jump\t// out\n        /* \"#utility.yul\":1585:2633   */\n    tag_16:\n        /* \"#utility.yul\":1878:1882   */\n      0x00\n        /* \"#utility.yul\":1916:1919   */\n      0xc0\n        /* \"#utility.yul\":1905:1914   */\n      dup3\n        /* \"#utility.yul\":1901:1920   */\n      add\n        /* \"#utility.yul\":1893:1920   */\n      swap1\n      pop\n        /* \"#utility.yul\":1930:2001   */\n      tag_72\n        /* \"#utility.yul\":1998:1999   */\n      0x00\n        /* \"#utility.yul\":1987:1996   */\n      dup4\n        /* \"#utility.yul\":1983:2000   */\n      add\n        /* \"#utility.yul\":1974:1980   */\n      dup10\n        /* \"#utility.yul\":1930:2001   */\n      tag_53\n      jump\t// in\n    tag_72:\n        /* \"#utility.yul\":2048:2057   */\n      dup2\n        /* \"#utility.yul\":2042:2046   */\n      dup2\n        /* \"#utility.yul\":2038:2058   */\n      sub\n        /* \"#utility.yul\":2033:2035   */\n      0x20\n        /* \"#utility.yul\":2022:2031   */\n      dup4\n        /* \"#utility.yul\":2018:2036   */\n      add\n        /* \"#utility.yul\":2011:2059   */\n      mstore\n        /* \"#utility.yul\":2076:2154   */\n      tag_73\n        /* \"#utility.yul\":2149:2153   */\n      dup2\n        /* \"#utility.yul\":2140:2146   */\n      dup9\n        /* \"#utility.yul\":2076:2154   */\n      tag_57\n      jump\t// in\n    tag_73:\n        /* \"#utility.yul\":2068:2154   */\n      swap1\n      pop\n        /* \"#utility.yul\":2201:2210   */\n      dup2\n        /* \"#utility.yul\":2195:2199   */\n      dup2\n        /* \"#utility.yul\":2191:2211   */\n      sub\n        /* \"#utility.yul\":2186:2188   */\n      0x40\n        /* \"#utility.yul\":2175:2184   */\n      dup4\n        /* \"#utility.yul\":2171:2189   */\n      add\n        /* \"#utility.yul\":2164:2212   */\n      mstore\n        /* \"#utility.yul\":2229:2307   */\n      tag_74\n        /* \"#utility.yul\":2302:2306   */\n      dup2\n        /* \"#utility.yul\":2293:2299   */\n      dup8\n        /* \"#utility.yul\":2229:2307   */\n      tag_57\n      jump\t// in\n    tag_74:\n        /* \"#utility.yul\":2221:2307   */\n      swap1\n      pop\n        /* \"#utility.yul\":2354:2363   */\n      dup2\n        /* \"#utility.yul\":2348:2352   */\n      dup2\n        /* \"#utility.yul\":2344:2364   */\n      sub\n        /* \"#utility.yul\":2339:2341   */\n      0x60\n        /* \"#utility.yul\":2328:2337   */\n      dup4\n        /* \"#utility.yul\":2324:2342   */\n      add\n        /* \"#utility.yul\":2317:2365   */\n      mstore\n        /* \"#utility.yul\":2382:2460   */\n      tag_75\n        /* \"#utility.yul\":2455:2459   */\n      dup2\n        /* \"#utility.yul\":2446:2452   */\n      dup7\n        /* \"#utility.yul\":2382:2460   */\n      tag_57\n      jump\t// in\n    tag_75:\n        /* \"#utility.yul\":2374:2460   */\n      swap1\n      pop\n        /* \"#utility.yul\":2470:2543   */\n      tag_76\n        /* \"#utility.yul\":2538:2541   */\n      0x80\n        /* \"#utility.yul\":2527:2536   */\n      dup4\n        /* \"#utility.yul\":2523:2542   */\n      add\n        /* \"#utility.yul\":2514:2520   */\n      dup6\n        /* \"#utility.yul\":2470:2543   */\n      tag_67\n      jump\t// in\n    tag_76:\n        /* \"#utility.yul\":2553:2626   */\n      tag_77\n        /* \"#utility.yul\":2621:2624   */\n      0xa0\n        /* \"#utility.yul\":2610:2619   */\n      dup4\n        /* \"#utility.yul\":2606:2625   */\n      add\n        /* \"#utility.yul\":2597:2603   */\n      dup5\n        /* \"#utility.yul\":2553:2626   */\n      tag_67\n      jump\t// in\n    tag_77:\n        /* \"#utility.yul\":1585:2633   */\n      swap8\n      swap7\n      pop\n      pop\n      pop\n      pop\n      pop\n      pop\n      pop\n      jump\t// out\n        /* \"#utility.yul\":2639:2861   */\n    tag_10:\n        /* \"#utility.yul\":2732:2736   */\n      0x00\n        /* \"#utility.yul\":2770:2772   */\n      0x20\n        /* \"#utility.yul\":2759:2768   */\n      dup3\n        /* \"#utility.yul\":2755:2773   */\n      add\n        /* \"#utility.yul\":2747:2773   */\n      swap1\n      pop\n        /* \"#utility.yul\":2783:2854   */\n      tag_79\n        /* \"#utility.yul\":2851:2852   */\n      0x00\n        /* \"#utility.yul\":2840:2849   */\n      dup4\n        /* \"#utility.yul\":2836:2853   */\n      add\n        /* \"#utility.yul\":2827:2833   */\n      dup5\n        /* \"#utility.yul\":2783:2854   */\n      tag_67\n      jump\t// in\n    tag_79:\n        /* \"#utility.yul\":2639:2861   */\n      swap3\n      swap2\n      pop\n      pop\n      jump\t// out\n        /* \"#utility.yul\":2948:3047   */\n    tag_60:\n        /* \"#utility.yul\":3000:3006   */\n      0x00\n        /* \"#utility.yul\":3034:3039   */\n      dup2\n        /* \"#utility.yul\":3028:3040   */\n      mload\n        /* \"#utility.yul\":3018:3040   */\n      swap1\n      pop\n        /* \"#utility.yul\":2948:3047   */\n      swap2\n      swap1\n      pop\n      jump\t// out\n        /* \"#utility.yul\":3053:3222   */\n    tag_62:\n        /* \"#utility.yul\":3137:3148   */\n      0x00\n        /* \"#utility.yul\":3171:3177   */\n      dup3\n        /* \"#utility.yul\":3166:3169   */\n      dup3\n        /* \"#utility.yul\":3159:3178   */\n      mstore\n        /* \"#utility.yul\":3211:3215   */\n      0x20\n        /* \"#utility.yul\":3206:3209   */\n      dup3\n        /* \"#utility.yul\":3202:3216   */\n      add\n        /* \"#utility.yul\":3187:3216   */\n      swap1\n      pop\n        /* \"#utility.yul\":3053:3222   */\n      swap3\n      swap2\n      pop\n      pop\n      jump\t// out\n        /* \"#utility.yul\":3228:3324   */\n    tag_56:\n        /* \"#utility.yul\":3265:3272   */\n      0x00\n        /* \"#utility.yul\":3294:3318   */\n      tag_85\n        /* \"#utility.yul\":3312:3317   */\n      dup3\n        /* \"#utility.yul\":3294:3318   */\n      tag_86\n      jump\t// in\n    tag_85:\n        /* \"#utility.yul\":3283:3318   */\n      swap1\n      pop\n        /* \"#utility.yul\":3228:3324   */\n      swap2\n      swap1\n      pop\n      jump\t// out\n        /* \"#utility.yul\":3330:3456   */\n    tag_86:\n        /* \"#utility.yul\":3367:3374   */\n      0x00\n        /* \"#utility.yul\":3407:3449   */\n      0xffffffffffffffffffffffffffffffffffffffff\n        /* \"#utility.yul\":3400:3405   */\n      dup3\n        /* \"#utility.yul\":3396:3450   */\n      and\n        /* \"#utility.yul\":3385:3450   */\n      swap1\n      pop\n        /* \"#utility.yul\":3330:3456   */\n      swap2\n      swap1\n      pop\n      jump\t// out\n        /* \"#utility.yul\":3462:3539   */\n    tag_70:\n        /* \"#utility.yul\":3499:3506   */\n      0x00\n        /* \"#utility.yul\":3528:3533   */\n      dup2\n        /* \"#utility.yul\":3517:3533   */\n      swap1\n      pop\n        /* \"#utility.yul\":3462:3539   */\n      swap2\n      swap1\n      pop\n      jump\t// out\n        /* \"#utility.yul\":3545:3852   */\n    tag_64:\n        /* \"#utility.yul\":3613:3614   */\n      0x00\n        /* \"#utility.yul\":3623:3736   */\n    tag_90:\n        /* \"#utility.yul\":3637:3643   */\n      dup4\n        /* \"#utility.yul\":3634:3635   */\n      dup2\n        /* \"#utility.yul\":3631:3644   */\n      lt\n        /* \"#utility.yul\":3623:3736   */\n      iszero\n      tag_92\n      jumpi\n        /* \"#utility.yul\":3722:3723   */\n      dup1\n        /* \"#utility.yul\":3717:3720   */\n      dup3\n        /* \"#utility.yul\":3713:3724   */\n      add\n        /* \"#utility.yul\":3707:3725   */\n      mload\n        /* \"#utility.yul\":3703:3704   */\n      dup2\n        /* \"#utility.yul\":3698:3701   */\n      dup5\n        /* \"#utility.yul\":3694:3705   */\n      add\n        /* \"#utility.yul\":3687:3726   */\n      mstore\n        /* \"#utility.yul\":3659:3661   */\n      0x20\n        /* \"#utility.yul\":3656:3657   */\n      dup2\n        /* \"#utility.yul\":3652:3662   */\n      add\n        /* \"#utility.yul\":3647:3662   */\n      swap1\n      pop\n        /* \"#utility.yul\":3623:3736   */\n      jump(tag_90)\n    tag_92:\n        /* \"#utility.yul\":3754:3760   */\n      dup4\n        /* \"#utility.yul\":3751:3752   */\n      dup2\n        /* \"#utility.yul\":3748:3761   */\n      gt\n        /* \"#utility.yul\":3745:3846   */\n      iszero\n      tag_93\n      jumpi\n        /* \"#utility.yul\":3834:3835   */\n      0x00\n        /* \"#utility.yul\":3825:3831   */\n      dup5\n        /* \"#utility.yul\":3820:3823   */\n      dup5\n        /* \"#utility.yul\":3816:3832   */\n      add\n        /* \"#utility.yul\":3809:3836   */\n      mstore\n        /* \"#utility.yul\":3745:3846   */\n    tag_93:\n        /* \"#utility.yul\":3594:3852   */\n      pop\n        /* \"#utility.yul\":3545:3852   */\n      pop\n      pop\n      pop\n      jump\t// out\n        /* \"#utility.yul\":3858:4178   */\n    tag_20:\n        /* \"#utility.yul\":3902:3908   */\n      0x00\n        /* \"#utility.yul\":3939:3940   */\n      0x02\n        /* \"#utility.yul\":3933:3937   */\n      dup3\n        /* \"#utility.yul\":3929:3941   */\n      div\n        /* \"#utility.yul\":3919:3941   */\n      swap1\n      pop\n        /* \"#utility.yul\":3986:3987   */\n      0x01\n        /* \"#utility.yul\":3980:3984   */\n      dup3\n        /* \"#utility.yul\":3976:3988   */\n      and\n        /* \"#utility.yul\":4007:4025   */\n      dup1\n        /* \"#utility.yul\":3997:4078   */\n      tag_95\n      jumpi\n        /* \"#utility.yul\":4063:4067   */\n      0x7f\n        /* \"#utility.yul\":4055:4061   */\n      dup3\n        /* \"#utility.yul\":4051:4068   */\n      and\n        /* \"#utility.yul\":4041:4068   */\n      swap2\n      pop\n        /* \"#utility.yul\":3997:4078   */\n    tag_95:\n        /* \"#utility.yul\":4125:4127   */\n      0x20\n        /* \"#utility.yul\":4117:4123   */\n      dup3\n        /* \"#utility.yul\":4114:4128   */\n      lt\n        /* \"#utility.yul\":4094:4112   */\n      dup2\n        /* \"#utility.yul\":4091:4129   */\n      eq\n        /* \"#utility.yul\":4088:4172   */\n      iszero\n      tag_96\n      jumpi\n        /* \"#utility.yul\":4144:4162   */\n      tag_97\n      tag_98\n      jump\t// in\n    tag_97:\n        /* \"#utility.yul\":4088:4172   */\n    tag_96:\n        /* \"#utility.yul\":3909:4178   */\n      pop\n        /* \"#utility.yul\":3858:4178   */\n      swap2\n      swap1\n      pop\n      jump\t// out\n        /* \"#utility.yul\":4184:4364   */\n    tag_98:\n        /* \"#utility.yul\":4232:4309   */\n      0x4e487b7100000000000000000000000000000000000000000000000000000000\n        /* \"#utility.yul\":4229:4230   */\n      0x00\n        /* \"#utility.yul\":4222:4310   */\n      mstore\n        /* \"#utility.yul\":4329:4333   */\n      0x22\n        /* \"#utility.yul\":4326:4327   */\n      0x04\n        /* \"#utility.yul\":4319:4334   */\n      mstore\n        /* \"#utility.yul\":4353:4357   */\n      0x24\n        /* \"#utility.yul\":4350:4351   */\n      0x00\n        /* \"#utility.yul\":4343:4358   */\n      revert\n        /* \"#utility.yul\":4493:4610   */\n    tag_47:\n        /* \"#utility.yul\":4602:4603   */\n      0x00\n        /* \"#utility.yul\":4599:4600   */\n      dup1\n        /* \"#utility.yul\":4592:4604   */\n      revert\n        /* \"#utility.yul\":4616:4718   */\n    tag_66:\n        /* \"#utility.yul\":4657:4663   */\n      0x00\n        /* \"#utility.yul\":4708:4710   */\n      0x1f\n        /* \"#utility.yul\":4704:4711   */\n      not\n        /* \"#utility.yul\":4699:4701   */\n      0x1f\n        /* \"#utility.yul\":4692:4697   */\n      dup4\n        /* \"#utility.yul\":4688:4702   */\n      add\n        /* \"#utility.yul\":4684:4712   */\n      and\n        /* \"#utility.yul\":4674:4712   */\n      swap1\n      pop\n        /* \"#utility.yul\":4616:4718   */\n      swap2\n      swap1\n      pop\n      jump\t// out\n        /* \"#utility.yul\":4724:4846   */\n    tag_39:\n        /* \"#utility.yul\":4797:4821   */\n      tag_105\n        /* \"#utility.yul\":4815:4820   */\n      dup2\n        /* \"#utility.yul\":4797:4821   */\n      tag_56\n      jump\t// in\n    tag_105:\n        /* \"#utility.yul\":4790:4795   */\n      dup2\n        /* \"#utility.yul\":4787:4822   */\n      eq\n        /* \"#utility.yul\":4777:4840   */\n      tag_106\n      jumpi\n        /* \"#utility.yul\":4836:4837   */\n      0x00\n        /* \"#utility.yul\":4833:4834   */\n      dup1\n        /* \"#utility.yul\":4826:4838   */\n      revert\n        /* \"#utility.yul\":4777:4840   */\n    tag_106:\n        /* \"#utility.yul\":4724:4846   */\n      pop\n      jump\t// out\n        /* \"#utility.yul\":4852:4974   */\n    tag_43:\n        /* \"#utility.yul\":4925:4949   */\n      tag_108\n        /* \"#utility.yul\":4943:4948   */\n      dup2\n        /* \"#utility.yul\":4925:4949   */\n      tag_70\n      jump\t// in\n    tag_108:\n        /* \"#utility.yul\":4918:4923   */\n      dup2\n        /* \"#utility.yul\":4915:4950   */\n      eq\n        /* \"#utility.yul\":4905:4968   */\n      tag_109\n      jumpi\n        /* \"#utility.yul\":4964:4965   */\n      0x00\n        /* \"#utility.yul\":4961:4962   */\n      dup1\n        /* \"#utility.yul\":4954:4966   */\n      revert\n        /* \"#utility.yul\":4905:4968   */\n    tag_109:\n        /* \"#utility.yul\":4852:4974   */\n      pop\n      jump\t// out\n\n    auxdata: 0xa264697066735822122069d82dfe7d97d6bab00368444192d0ea1b79b49717499b6cc4b5fba6c550859764736f6c63430008070033\n}\n",
				"bytecode": {
					"linkReferences": {},
					"object": "60806040526000805534801561001457600080fd5b5061058e806100246000396000f3fe608060405234801561001057600080fd5b50600436106100365760003560e01c80631c6743e41461003b578063d735573d1461006b575b600080fd5b610055600480360381019061005091906102e6565b6100a0565b604051610062919061040d565b60405180910390f35b61008560048036038101906100809190610313565b6100b8565b60405161009796959493929190610397565b60405180910390f35b60026020528060005260406000206000915090505481565b600181815481106100c857600080fd5b90600052602060002090600602016000915090508060000160009054906101000a900473ffffffffffffffffffffffffffffffffffffffff1690806001018054610111906104b3565b80601f016020809104026020016040519081016040528092919081815260200182805461013d906104b3565b801561018a5780601f1061015f5761010080835404028352916020019161018a565b820191906000526020600020905b81548152906001019060200180831161016d57829003601f168201915b50505050509080600201805461019f906104b3565b80601f01602080910402602001604051908101604052809291908181526020018280546101cb906104b3565b80156102185780601f106101ed57610100808354040283529160200191610218565b820191906000526020600020905b8154815290600101906020018083116101fb57829003601f168201915b50505050509080600301805461022d906104b3565b80601f0160208091040260200160405190810160405280929190818152602001828054610259906104b3565b80156102a65780601f1061027b576101008083540402835291602001916102a6565b820191906000526020600020905b81548152906001019060200180831161028957829003601f168201915b5050505050908060040154908060050154905086565b6000813590506102cb8161052a565b92915050565b6000813590506102e081610541565b92915050565b6000602082840312156102fc576102fb610514565b5b600061030a848285016102bc565b91505092915050565b60006020828403121561032957610328610514565b5b6000610337848285016102d1565b91505092915050565b61034981610444565b82525050565b600061035a82610428565b6103648185610433565b9350610374818560208601610480565b61037d81610519565b840191505092915050565b61039181610476565b82525050565b600060c0820190506103ac6000830189610340565b81810360208301526103be818861034f565b905081810360408301526103d2818761034f565b905081810360608301526103e6818661034f565b90506103f56080830185610388565b61040260a0830184610388565b979650505050505050565b60006020820190506104226000830184610388565b92915050565b600081519050919050565b600082825260208201905092915050565b600061044f82610456565b9050919050565b600073ffffffffffffffffffffffffffffffffffffffff82169050919050565b6000819050919050565b60005b8381101561049e578082015181840152602081019050610483565b838111156104ad576000848401525b50505050565b600060028204905060018216806104cb57607f821691505b602082108114156104df576104de6104e5565b5b50919050565b7f4e487b7100000000000000000000000000000000000000000000000000000000600052602260045260246000fd5b600080fd5b6000601f19601f8301169050919050565b61053381610444565b811461053e57600080fd5b50565b61054a81610476565b811461055557600080fd5b5056fea264697066735822122069d82dfe7d97d6bab00368444192d0ea1b79b49717499b6cc4b5fba6c550859764736f6c63430008070033",
					"opcodes": "PUSH1 0x80 PUSH1 0x40 MSTORE PUSH1 0x0 DUP1 SSTORE CALLVALUE DUP1 ISZERO PUSH2 0x14 JUMPI PUSH1 0x0 DUP1 REVERT JUMPDEST POP PUSH2 0x58E DUP1 PUSH2 0x24 PUSH1 0x0 CODECOPY PUSH1 0x0 RETURN INVALID PUSH1 0x80 PUSH1 0x40 MSTORE CALLVALUE DUP1 ISZERO PUSH2 0x10 JUMPI PUSH1 0x0 DUP1 REVERT JUMPDEST POP PUSH1 0x4 CALLDATASIZE LT PUSH2 0x36 JUMPI PUSH1 0x0 CALLDATALOAD PUSH1 0xE0 SHR DUP1 PUSH4 0x1C6743E4 EQ PUSH2 0x3B JUMPI DUP1 PUSH4 0xD735573D EQ PUSH2 0x6B JUMPI JUMPDEST PUSH1 0x0 DUP1 REVERT JUMPDEST PUSH2 0x55 PUSH1 0x4 DUP1 CALLDATASIZE SUB DUP2 ADD SWAP1 PUSH2 0x50 SWAP2 SWAP1 PUSH2 0x2E6 JUMP JUMPDEST PUSH2 0xA0 JUMP JUMPDEST PUSH1 0x40 MLOAD PUSH2 0x62 SWAP2 SWAP1 PUSH2 0x40D JUMP JUMPDEST PUSH1 0x40 MLOAD DUP1 SWAP2 SUB SWAP1 RETURN JUMPDEST PUSH2 0x85 PUSH1 0x4 DUP1 CALLDATASIZE SUB DUP2 ADD SWAP1 PUSH2 0x80 SWAP2 SWAP1 PUSH2 0x313 JUMP JUMPDEST PUSH2 0xB8 JUMP JUMPDEST PUSH1 0x40 MLOAD PUSH2 0x97 SWAP7 SWAP6 SWAP5 SWAP4 SWAP3 SWAP2 SWAP1 PUSH2 0x397 JUMP JUMPDEST PUSH1 0x40 MLOAD DUP1 SWAP2 SUB SWAP1 RETURN JUMPDEST PUSH1 0x2 PUSH1 0x20 MSTORE DUP1 PUSH1 0x0 MSTORE PUSH1 0x40 PUSH1 0x0 KECCAK256 PUSH1 0x0 SWAP2 POP SWAP1 POP SLOAD DUP2 JUMP JUMPDEST PUSH1 0x1 DUP2 DUP2 SLOAD DUP2 LT PUSH2 0xC8 JUMPI PUSH1 0x0 DUP1 REVERT JUMPDEST SWAP1 PUSH1 0x0 MSTORE PUSH1 0x20 PUSH1 0x0 KECCAK256 SWAP1 PUSH1 0x6 MUL ADD PUSH1 0x0 SWAP2 POP SWAP1 POP DUP1 PUSH1 0x0 ADD PUSH1 0x0 SWAP1 SLOAD SWAP1 PUSH2 0x100 EXP SWAP1 DIV PUSH20 0xFFFFFFFFFFFFFFFFFFFFFFFFFFFFFFFFFFFFFFFF AND SWAP1 DUP1 PUSH1 0x1 ADD DUP1 SLOAD PUSH2 0x111 SWAP1 PUSH2 0x4B3 JUMP JUMPDEST DUP1 PUSH1 0x1F ADD PUSH1 0x20 DUP1 SWAP2 DIV MUL PUSH1 0x20 ADD PUSH1 0x40 MLOAD SWAP1 DUP2 ADD PUSH1 0x40 MSTORE DUP1 SWAP3 SWAP2 SWAP1 DUP2 DUP2 MSTORE PUSH1 0x20 ADD DUP3 DUP1 SLOAD PUSH2 0x13D SWAP1 PUSH2 0x4B3 JUMP JUMPDEST DUP1 ISZERO PUSH2 0x18A JUMPI DUP1 PUSH1 0x1F LT PUSH2 0x15F JUMPI PUSH2 0x100 DUP1 DUP4 SLOAD DIV MUL DUP4 MSTORE SWAP2 PUSH1 0x20 ADD SWAP2 PUSH2 0x18A JUMP JUMPDEST DUP3 ADD SWAP2 SWAP1 PUSH1 0x0 MSTORE PUSH1 0x20 PUSH1 0x0 KECCAK256 SWAP1 JUMPDEST DUP2 SLOAD DUP2 MSTORE SWAP1 PUSH1 0x1 ADD SWAP1 PUSH1 0x20 ADD DUP1 DUP4 GT PUSH2 0x16D JUMPI DUP3 SWAP1 SUB PUSH1 0x1F AND DUP3 ADD SWAP2 JUMPDEST POP POP POP POP POP SWAP1 DUP1 PUSH1 0x2 ADD DUP1 SLOAD PUSH2 0x19F SWAP1 PUSH2 0x4B3 JUMP JUMPDEST DUP1 PUSH1 0x1F ADD PUSH1 0x20 DUP1 SWAP2 DIV MUL PUSH1 0x20 ADD PUSH1 0x40 MLOAD SWAP1 DUP2 ADD PUSH1 0x40 MSTORE DUP1 SWAP3 SWAP2 SWAP1 DUP2 DUP2 MSTORE PUSH1 0x20 ADD DUP3 DUP1 SLOAD PUSH2 0x1CB SWAP1 PUSH2 0x4B3 JUMP JUMPDEST DUP1 ISZERO PUSH2 0x218 JUMPI DUP1 PUSH1 0x1F LT PUSH2 0x1ED JUMPI PUSH2 0x100 DUP1 DUP4 SLOAD DIV MUL DUP4 MSTORE SWAP2 PUSH1 0x20 ADD SWAP2 PUSH2 0x218 JUMP JUMPDEST DUP3 ADD SWAP2 SWAP1 PUSH1 0x0 MSTORE PUSH1 0x20 PUSH1 0x0 KECCAK256 SWAP1 JUMPDEST DUP2 SLOAD DUP2 MSTORE SWAP1 PUSH1 0x1 ADD SWAP1 PUSH1 0x20 ADD DUP1 DUP4 GT PUSH2 0x1FB JUMPI DUP3 SWAP1 SUB PUSH1 0x1F AND DUP3 ADD SWAP2 JUMPDEST POP POP POP POP POP SWAP1 DUP1 PUSH1 0x3 ADD DUP1 SLOAD PUSH2 0x22D SWAP1 PUSH2 0x4B3 JUMP JUMPDEST DUP1 PUSH1 0x1F ADD PUSH1 0x20 DUP1 SWAP2 DIV MUL PUSH1 0x20 ADD PUSH1 0x40 MLOAD SWAP1 DUP2 ADD PUSH1 0x40 MSTORE DUP1 SWAP3 SWAP2 SWAP1 DUP2 DUP2 MSTORE PUSH1 0x20 ADD DUP3 DUP1 SLOAD PUSH2 0x259 SWAP1 PUSH2 0x4B3 JUMP JUMPDEST DUP1 ISZERO PUSH2 0x2A6 JUMPI DUP1 PUSH1 0x1F LT PUSH2 0x27B JUMPI PUSH2 0x100 DUP1 DUP4 SLOAD DIV MUL DUP4 MSTORE SWAP2 PUSH1 0x20 ADD SWAP2 PUSH2 0x2A6 JUMP JUMPDEST DUP3 ADD SWAP2 SWAP1 PUSH1 0x0 MSTORE PUSH1 0x20 PUSH1 0x0 KECCAK256 SWAP1 JUMPDEST DUP2 SLOAD DUP2 MSTORE SWAP1 PUSH1 0x1 ADD SWAP1 PUSH1 0x20 ADD DUP1 DUP4 GT PUSH2 0x289 JUMPI DUP3 SWAP1 SUB PUSH1 0x1F AND DUP3 ADD SWAP2 JUMPDEST POP POP POP POP POP SWAP1 DUP1 PUSH1 0x4 ADD SLOAD SWAP1 DUP1 PUSH1 0x5 ADD SLOAD SWAP1 POP DUP7 JUMP JUMPDEST PUSH1 0x0 DUP2 CALLDATALOAD SWAP1 POP PUSH2 0x2CB DUP2 PUSH2 0x52A JUMP JUMPDEST SWAP3 SWAP2 POP POP JUMP JUMPDEST PUSH1 0x0 DUP2 CALLDATALOAD SWAP1 POP PUSH2 0x2E0 DUP2 PUSH2 0x541 JUMP JUMPDEST SWAP3 SWAP2 POP POP JUMP JUMPDEST PUSH1 0x0 PUSH1 0x20 DUP3 DUP5 SUB SLT ISZERO PUSH2 0x2FC JUMPI PUSH2 0x2FB PUSH2 0x514 JUMP JUMPDEST JUMPDEST PUSH1 0x0 PUSH2 0x30A DUP5 DUP3 DUP6 ADD PUSH2 0x2BC JUMP JUMPDEST SWAP2 POP POP SWAP3 SWAP2 POP POP JUMP JUMPDEST PUSH1 0x0 PUSH1 0x20 DUP3 DUP5 SUB SLT ISZERO PUSH2 0x329 JUMPI PUSH2 0x328 PUSH2 0x514 JUMP JUMPDEST JUMPDEST PUSH1 0x0 PUSH2 0x337 DUP5 DUP3 DUP6 ADD PUSH2 0x2D1 JUMP JUMPDEST SWAP2 POP POP SWAP3 SWAP2 POP POP JUMP JUMPDEST PUSH2 0x349 DUP2 PUSH2 0x444 JUMP JUMPDEST DUP3 MSTORE POP POP JUMP JUMPDEST PUSH1 0x0 PUSH2 0x35A DUP3 PUSH2 0x428 JUMP JUMPDEST PUSH2 0x364 DUP2 DUP6 PUSH2 0x433 JUMP JUMPDEST SWAP4 POP PUSH2 0x374 DUP2 DUP6 PUSH1 0x20 DUP7 ADD PUSH2 0x480 JUMP JUMPDEST PUSH2 0x37D DUP2 PUSH2 0x519 JUMP JUMPDEST DUP5 ADD SWAP2 POP POP SWAP3 SWAP2 POP POP JUMP JUMPDEST PUSH2 0x391 DUP2 PUSH2 0x476 JUMP JUMPDEST DUP3 MSTORE POP POP JUMP JUMPDEST PUSH1 0x0 PUSH1 0xC0 DUP3 ADD SWAP1 POP PUSH2 0x3AC PUSH1 0x0 DUP4 ADD DUP10 PUSH2 0x340 JUMP JUMPDEST DUP2 DUP2 SUB PUSH1 0x20 DUP4 ADD MSTORE PUSH2 0x3BE DUP2 DUP9 PUSH2 0x34F JUMP JUMPDEST SWAP1 POP DUP2 DUP2 SUB PUSH1 0x40 DUP4 ADD MSTORE PUSH2 0x3D2 DUP2 DUP8 PUSH2 0x34F JUMP JUMPDEST SWAP1 POP DUP2 DUP2 SUB PUSH1 0x60 DUP4 ADD MSTORE PUSH2 0x3E6 DUP2 DUP7 PUSH2 0x34F JUMP JUMPDEST SWAP1 POP PUSH2 0x3F5 PUSH1 0x80 DUP4 ADD DUP6 PUSH2 0x388 JUMP JUMPDEST PUSH2 0x402 PUSH1 0xA0 DUP4 ADD DUP5 PUSH2 0x388 JUMP JUMPDEST SWAP8 SWAP7 POP POP POP POP POP POP POP JUMP JUMPDEST PUSH1 0x0 PUSH1 0x20 DUP3 ADD SWAP1 POP PUSH2 0x422 PUSH1 0x0 DUP4 ADD DUP5 PUSH2 0x388 JUMP JUMPDEST SWAP3 SWAP2 POP POP JUMP JUMPDEST PUSH1 0x0 DUP2 MLOAD SWAP1 POP SWAP2 SWAP1 POP JUMP JUMPDEST PUSH1 0x0 DUP3 DUP3 MSTORE PUSH1 0x20 DUP3 ADD SWAP1 POP SWAP3 SWAP2 POP POP JUMP JUMPDEST PUSH1 0x0 PUSH2 0x44F DUP3 PUSH2 0x456 JUMP JUMPDEST SWAP1 POP SWAP2 SWAP1 POP JUMP JUMPDEST PUSH1 0x0 PUSH20 0xFFFFFFFFFFFFFFFFFFFFFFFFFFFFFFFFFFFFFFFF DUP3 AND SWAP1 POP SWAP2 SWAP1 POP JUMP JUMPDEST PUSH1 0x0 DUP2 SWAP1 POP SWAP2 SWAP1 POP JUMP JUMPDEST PUSH1 0x0 JUMPDEST DUP4 DUP2 LT ISZERO PUSH2 0x49E JUMPI DUP1 DUP3 ADD MLOAD DUP2 DUP5 ADD MSTORE PUSH1 0x20 DUP2 ADD SWAP1 POP PUSH2 0x483 JUMP JUMPDEST DUP4 DUP2 GT ISZERO PUSH2 0x4AD JUMPI PUSH1 0x0 DUP5 DUP5 ADD MSTORE JUMPDEST POP POP POP POP JUMP JUMPDEST PUSH1 0x0 PUSH1 0x2 DUP3 DIV SWAP1 POP PUSH1 0x1 DUP3 AND DUP1 PUSH2 0x4CB JUMPI PUSH1 0x7F DUP3 AND SWAP2 POP JUMPDEST PUSH1 0x20 DUP3 LT DUP2 EQ ISZERO PUSH2 0x4DF JUMPI PUSH2 0x4DE PUSH2 0x4E5 JUMP JUMPDEST JUMPDEST POP SWAP2 SWAP1 POP JUMP JUMPDEST PUSH32 0x4E487B7100000000000000000000000000000000000000000000000000000000 PUSH1 0x0 MSTORE PUSH1 0x22 PUSH1 0x4 MSTORE PUSH1 0x24 PUSH1 0x0 REVERT JUMPDEST PUSH1 0x0 DUP1 REVERT JUMPDEST PUSH1 0x0 PUSH1 0x1F NOT PUSH1 0x1F DUP4 ADD AND SWAP1 POP SWAP2 SWAP1 POP JUMP JUMPDEST PUSH2 0x533 DUP2 PUSH2 0x444 JUMP JUMPDEST DUP2 EQ PUSH2 0x53E JUMPI PUSH1 0x0 DUP1 REVERT JUMPDEST POP JUMP JUMPDEST PUSH2 0x54A DUP2 PUSH2 0x476 JUMP JUMPDEST DUP2 EQ PUSH2 0x555 JUMPI PUSH1 0x0 DUP1 REVERT JUMPDEST POP JUMP INVALID LOG2 PUSH5 0x6970667358 0x22 SLT KECCAK256 PUSH10 0xD82DFE7D97D6BAB00368 DIFFICULTY COINBASE SWAP3 0xD0 0xEA SHL PUSH26 0xB49717499B6CC4B5FBA6C550859764736F6C6343000807003300 "
				},
				"gasEstimates": {
					"creation": {
						"codeDepositCost": "284400",
						"executionCost": "5330",
						"totalCost": "289730"
					},
					"external": {
						"listaCoches(uint256)": "infinite",
						"numeroCochesPersona(address)": "2792"
					}
				},
				"methodIdentifiers": {
					"listaCoches(uint256)": "d735573d",
					"numeroCochesPersona(address)": "1c6743e4"
				}
			},
			"storageLayout": {
				"storage": [
					{
						"astId": 17,
						"contract": "contracts/CarreraCoches/Coche.sol:Coche",
						"label": "contador",
						"offset": 0,
						"slot": "0",
						"type": "t_uint256"
					},
					{
						"astId": 21,
						"contract": "contracts/CarreraCoches/Coche.sol:Coche",
						"label": "listaCoches",
						"offset": 0,
						"slot": "1",
						"type": "t_array(t_struct(Coche)14_storage)dyn_storage"
					},
					{
						"astId": 25,
						"contract": "contracts/CarreraCoches/Coche.sol:Coche",
						"label": "numeroCochesPersona",
						"offset": 0,
						"slot": "2",
						"type": "t_mapping(t_address,t_uint256)"
					}
				],
				"types": {
					"t_address": {
						"encoding": "inplace",
						"label": "address",
						"numberOfBytes": "20"
					},
					"t_array(t_struct(Coche)14_storage)dyn_storage": {
						"base": "t_struct(Coche)14_storage",
						"encoding": "dynamic_array",
						"label": "struct Coche.Coche[]",
						"numberOfBytes": "32"
					},
					"t_mapping(t_address,t_uint256)": {
						"encoding": "mapping",
						"key": "t_address",
						"label": "mapping(address => uint256)",
						"numberOfBytes": "32",
						"value": "t_uint256"
					},
					"t_string_storage": {
						"encoding": "bytes",
						"label": "string",
						"numberOfBytes": "32"
					},
					"t_struct(Coche)14_storage": {
						"encoding": "inplace",
						"label": "struct Coche.Coche",
						"members": [
							{
								"astId": 3,
								"contract": "contracts/CarreraCoches/Coche.sol:Coche",
								"label": "idPiloto",
								"offset": 0,
								"slot": "0",
								"type": "t_address"
							},
							{
								"astId": 5,
								"contract": "contracts/CarreraCoches/Coche.sol:Coche",
								"label": "modelo",
								"offset": 0,
								"slot": "1",
								"type": "t_string_storage"
							},
							{
								"astId": 7,
								"contract": "contracts/CarreraCoches/Coche.sol:Coche",
								"label": "marca",
								"offset": 0,
								"slot": "2",
								"type": "t_string_storage"
							},
							{
								"astId": 9,
								"contract": "contracts/CarreraCoches/Coche.sol:Coche",
								"label": "nombrePiloto",
								"offset": 0,
								"slot": "3",
								"type": "t_string_storage"
							},
							{
								"astId": 11,
								"contract": "contracts/CarreraCoches/Coche.sol:Coche",
								"label": "carrerasGanadas",
								"offset": 0,
								"slot": "4",
								"type": "t_uint256"
							},
							{
								"astId": 13,
								"contract": "contracts/CarreraCoches/Coche.sol:Coche",
								"label": "carrerasTotales",
								"offset": 0,
								"slot": "5",
								"type": "t_uint256"
							}
						],
						"numberOfBytes": "192"
					},
					"t_uint256": {
						"encoding": "inplace",
						"label": "uint256",
						"numberOfBytes": "32"
					}
				}
			},
			"userdoc": {
				"kind": "user",
				"methods": {},
				"version": 1
			}
		}
	}
}