{
	"contracts/CarreraCoches/principal.sol": {
		"CarreraCoches": {
			"abi": [
				{
					"anonymous": false,
					"inputs": [
						{
							"indexed": true,
							"internalType": "address",
							"name": "previousOwner",
							"type": "address"
						},
						{
							"indexed": true,
							"internalType": "address",
							"name": "newOwner",
							"type": "address"
						}
					],
					"name": "OwnershipTransferred",
					"type": "event"
				},
				{
					"anonymous": false,
					"inputs": [
						{
							"indexed": false,
							"internalType": "string",
							"name": "mo",
							"type": "string"
						},
						{
							"indexed": false,
							"internalType": "string",
							"name": "ma",
							"type": "string"
						},
						{
							"indexed": false,
							"internalType": "uint32",
							"name": "niv",
							"type": "uint32"
						},
						{
							"indexed": false,
							"internalType": "uint256",
							"name": "carrGan",
							"type": "uint256"
						},
						{
							"indexed": false,
							"internalType": "uint256",
							"name": "carrTot",
							"type": "uint256"
						}
					],
					"name": "cochePropietario",
					"type": "event"
				},
				{
					"anonymous": false,
					"inputs": [
						{
							"indexed": false,
							"internalType": "uint256",
							"name": "compr",
							"type": "uint256"
						}
					],
					"name": "comprobar",
					"type": "event"
				},
				{
					"anonymous": false,
					"inputs": [
						{
							"indexed": false,
							"internalType": "string",
							"name": "ms",
							"type": "string"
						}
					],
					"name": "confirmacionDepositoLleno",
					"type": "event"
				},
				{
					"anonymous": false,
					"inputs": [
						{
							"indexed": false,
							"internalType": "string",
							"name": "ms",
							"type": "string"
						},
						{
							"indexed": false,
							"internalType": "uint256",
							"name": "res",
							"type": "uint256"
						}
					],
					"name": "mostrarResultado",
					"type": "event"
				},
				{
					"inputs": [
						{
							"internalType": "uint256",
							"name": "dineroApostar",
							"type": "uint256"
						}
					],
					"name": "Apostar",
					"outputs": [
						{
							"internalType": "string",
							"name": "",
							"type": "string"
						}
					],
					"stateMutability": "payable",
					"type": "function"
				},
				{
					"inputs": [],
					"name": "_owner",
					"outputs": [
						{
							"internalType": "address",
							"name": "",
							"type": "address"
						}
					],
					"stateMutability": "view",
					"type": "function"
				},
				{
					"inputs": [
						{
							"internalType": "string",
							"name": "_modelo",
							"type": "string"
						},
						{
							"internalType": "string",
							"name": "_marca",
							"type": "string"
						},
						{
							"internalType": "string",
							"name": "_nombrePiloto",
							"type": "string"
						}
					],
					"name": "anadirCoche",
					"outputs": [
						{
							"internalType": "uint256",
							"name": "",
							"type": "uint256"
						}
					],
					"stateMutability": "nonpayable",
					"type": "function"
				},
				{
					"inputs": [
						{
							"internalType": "address",
							"name": "_from",
							"type": "address"
						}
					],
					"name": "borrarCoche",
					"outputs": [],
					"stateMutability": "nonpayable",
					"type": "function"
				},
				{
					"inputs": [
						{
							"internalType": "uint256",
							"name": "",
							"type": "uint256"
						}
					],
					"name": "cocheDePropietario",
					"outputs": [
						{
							"internalType": "address",
							"name": "",
							"type": "address"
						}
					],
					"stateMutability": "view",
					"type": "function"
				},
				{
					"inputs": [
						{
							"internalType": "address",
							"name": "_address",
							"type": "address"
						},
						{
							"internalType": "string",
							"name": "_newModelo",
							"type": "string"
						},
						{
							"internalType": "string",
							"name": "_newMarca",
							"type": "string"
						}
					],
					"name": "comprarCoche",
					"outputs": [
						{
							"internalType": "string",
							"name": "",
							"type": "string"
						}
					],
					"stateMutability": "payable",
					"type": "function"
				},
				{
					"inputs": [
						{
							"internalType": "uint256",
							"name": "",
							"type": "uint256"
						}
					],
					"name": "listaCoches",
					"outputs": [
						{
							"internalType": "address",
							"name": "idPiloto",
							"type": "address"
						},
						{
							"internalType": "string",
							"name": "modelo",
							"type": "string"
						},
						{
							"internalType": "string",
							"name": "marca",
							"type": "string"
						},
						{
							"internalType": "string",
							"name": "nombrePiloto",
							"type": "string"
						},
						{
							"internalType": "uint256",
							"name": "carrerasGanadas",
							"type": "uint256"
						},
						{
							"internalType": "uint256",
							"name": "carrerasTotales",
							"type": "uint256"
						},
						{
							"internalType": "uint256",
							"name": "tiempoEspera",
							"type": "uint256"
						},
						{
							"internalType": "uint32",
							"name": "nivel",
							"type": "uint32"
						}
					],
					"stateMutability": "view",
					"type": "function"
				},
				{
					"inputs": [
						{
							"internalType": "address",
							"name": "",
							"type": "address"
						}
					],
					"name": "numeroCochesPersona",
					"outputs": [
						{
							"internalType": "uint256",
							"name": "",
							"type": "uint256"
						}
					],
					"stateMutability": "view",
					"type": "function"
				},
				{
					"inputs": [],
					"name": "owner",
					"outputs": [
						{
							"internalType": "address",
							"name": "",
							"type": "address"
						}
					],
					"stateMutability": "view",
					"type": "function"
				},
				{
					"inputs": [],
					"name": "renounceOwnership",
					"outputs": [],
					"stateMutability": "nonpayable",
					"type": "function"
				},
				{
					"inputs": [
						{
							"internalType": "address",
							"name": "_propietario",
							"type": "address"
						}
					],
					"name": "subirDeNivel",
					"outputs": [
						{
							"internalType": "string",
							"name": "",
							"type": "string"
						}
					],
					"stateMutability": "payable",
					"type": "function"
				},
				{
					"inputs": [
						{
							"internalType": "address",
							"name": "newOwner",
							"type": "address"
						}
					],
					"name": "transferOwnership",
					"outputs": [],
					"stateMutability": "nonpayable",
					"type": "function"
				},
				{
					"inputs": [
						{
							"internalType": "address",
							"name": "_propietario",
							"type": "address"
						}
					],
					"name": "verCochePropietario",
					"outputs": [],
					"stateMutability": "nonpayable",
					"type": "function"
				}
			],
			"devdoc": {
				"kind": "dev",
				"methods": {
					"owner()": {
						"details": "Returns the address of the current owner."
					},
					"renounceOwnership()": {
						"details": "Leaves the contract without owner. It will not be possible to call `onlyOwner` functions anymore. Can only be called by the current owner. NOTE: Renouncing ownership will leave the contract without an owner, thereby removing any functionality that is only available to the owner."
					},
					"transferOwnership(address)": {
						"details": "Transfers ownership of the contract to a new account (`newOwner`). Can only be called by the current owner."
					}
				},
				"version": 1
			},
			"evm": {
				"assembly": "    /* \"contracts/CarreraCoches/principal.sol\":54:7739  contract CarreraCoches is Ownable {\r... */\n  mstore(0x40, 0x80)\n    /* \"contracts/CarreraCoches/principal.sol\":370:371  0 */\n  0x00\n    /* \"contracts/CarreraCoches/principal.sol\":353:371  uint randNonce = 0 */\n  0x01\n  sstore\n    /* \"contracts/CarreraCoches/principal.sol\":494:495  0 */\n  0x00\n    /* \"contracts/CarreraCoches/principal.sol\":478:495  uint contador = 0 */\n  0x02\n  sstore\n    /* \"contracts/CarreraCoches/principal.sol\":518:528  60 seconds */\n  0x3c\n    /* \"contracts/CarreraCoches/principal.sol\":502:528  uint cooldown = 60 seconds */\n  0x03\n  sstore\n    /* \"contracts/CarreraCoches/principal.sol\":553:560  1 ether */\n  0x0de0b6b3a7640000\n    /* \"contracts/CarreraCoches/principal.sol\":535:560  uint subirNivel = 1 ether */\n  0x04\n  sstore\n    /* \"contracts/CarreraCoches/principal.sol\":588:595  1 ether */\n  0x0de0b6b3a7640000\n    /* \"contracts/CarreraCoches/principal.sol\":567:595  uint cambiarCocheV = 1 ether */\n  0x05\n  sstore\n    /* \"contracts/CarreraCoches/principal.sol\":54:7739  contract CarreraCoches is Ownable {\r... */\n  callvalue\n  dup1\n  iszero\n  tag_1\n  jumpi\n  0x00\n  dup1\n  revert\ntag_1:\n  pop\n    /* \"contracts/CarreraCoches/ownable.sol\":947:979  _transferOwnership(_msgSender()) */\n  tag_4\n    /* \"contracts/CarreraCoches/ownable.sol\":966:978  _msgSender() */\n  tag_5\n    /* \"contracts/CarreraCoches/ownable.sol\":966:976  _msgSender */\n  shl(0x20, tag_6)\n    /* \"contracts/CarreraCoches/ownable.sol\":966:978  _msgSender() */\n  0x20\n  shr\n  jump\t// in\ntag_5:\n    /* \"contracts/CarreraCoches/ownable.sol\":947:965  _transferOwnership */\n  shl(0x20, tag_7)\n    /* \"contracts/CarreraCoches/ownable.sol\":947:979  _transferOwnership(_msgSender()) */\n  0x20\n  shr\n  jump\t// in\ntag_4:\n    /* \"contracts/CarreraCoches/principal.sol\":54:7739  contract CarreraCoches is Ownable {\r... */\n  jump(tag_8)\n    /* \"contracts/CarreraCoches/utils/Context.sol\":656:754  function _msgSender() internal view virtual returns (address) {\r... */\ntag_6:\n    /* \"contracts/CarreraCoches/utils/Context.sol\":709:716  address */\n  0x00\n    /* \"contracts/CarreraCoches/utils/Context.sol\":736:746  msg.sender */\n  caller\n    /* \"contracts/CarreraCoches/utils/Context.sol\":729:746  return msg.sender */\n  swap1\n  pop\n    /* \"contracts/CarreraCoches/utils/Context.sol\":656:754  function _msgSender() internal view virtual returns (address) {\r... */\n  swap1\n  jump\t// out\n    /* \"contracts/CarreraCoches/ownable.sol\":2338:2529  function _transferOwnership(address newOwner) internal virtual {\r... */\ntag_7:\n    /* \"contracts/CarreraCoches/ownable.sol\":2412:2428  address oldOwner */\n  0x00\n    /* \"contracts/CarreraCoches/ownable.sol\":2431:2437  _owner */\n  dup1\n  0x00\n  swap1\n  sload\n  swap1\n  0x0100\n  exp\n  swap1\n  div\n  0xffffffffffffffffffffffffffffffffffffffff\n  and\n    /* \"contracts/CarreraCoches/ownable.sol\":2412:2437  address oldOwner = _owner */\n  swap1\n  pop\n    /* \"contracts/CarreraCoches/ownable.sol\":2457:2465  newOwner */\n  dup2\n    /* \"contracts/CarreraCoches/ownable.sol\":2448:2454  _owner */\n  0x00\n  dup1\n    /* \"contracts/CarreraCoches/ownable.sol\":2448:2465  _owner = newOwner */\n  0x0100\n  exp\n  dup2\n  sload\n  dup2\n  0xffffffffffffffffffffffffffffffffffffffff\n  mul\n  not\n  and\n  swap1\n  dup4\n  0xffffffffffffffffffffffffffffffffffffffff\n  and\n  mul\n  or\n  swap1\n  sstore\n  pop\n    /* \"contracts/CarreraCoches/ownable.sol\":2512:2520  newOwner */\n  dup2\n    /* \"contracts/CarreraCoches/ownable.sol\":2481:2521  OwnershipTransferred(oldOwner, newOwner) */\n  0xffffffffffffffffffffffffffffffffffffffff\n  and\n    /* \"contracts/CarreraCoches/ownable.sol\":2502:2510  oldOwner */\n  dup2\n    /* \"contracts/CarreraCoches/ownable.sol\":2481:2521  OwnershipTransferred(oldOwner, newOwner) */\n  0xffffffffffffffffffffffffffffffffffffffff\n  and\n  0x8be0079c531659141344cd1fd0a4f28419497f9722a3daafe3b4186f6b6457e0\n  mload(0x40)\n  mload(0x40)\n  dup1\n  swap2\n  sub\n  swap1\n  log3\n    /* \"contracts/CarreraCoches/ownable.sol\":2401:2529  {\r... */\n  pop\n    /* \"contracts/CarreraCoches/ownable.sol\":2338:2529  function _transferOwnership(address newOwner) internal virtual {\r... */\n  pop\n  jump\t// out\n    /* \"contracts/CarreraCoches/principal.sol\":54:7739  contract CarreraCoches is Ownable {\r... */\ntag_8:\n  dataSize(sub_0)\n  dup1\n  dataOffset(sub_0)\n  0x00\n  codecopy\n  0x00\n  return\nstop\n\nsub_0: assembly {\n        /* \"contracts/CarreraCoches/principal.sol\":54:7739  contract CarreraCoches is Ownable {\r... */\n      mstore(0x40, 0x80)\n      jumpi(tag_1, lt(calldatasize, 0x04))\n      shr(0xe0, calldataload(0x00))\n      dup1\n      0x715018a6\n      gt\n      tag_15\n      jumpi\n      dup1\n      0xb2bdfa7b\n      gt\n      tag_16\n      jumpi\n      dup1\n      0xb2bdfa7b\n      eq\n      tag_11\n      jumpi\n      dup1\n      0xd735573d\n      eq\n      tag_12\n      jumpi\n      dup1\n      0xe172fca8\n      eq\n      tag_13\n      jumpi\n      dup1\n      0xf2fde38b\n      eq\n      tag_14\n      jumpi\n      jump(tag_1)\n    tag_16:\n      dup1\n      0x715018a6\n      eq\n      tag_8\n      jumpi\n      dup1\n      0x858b0554\n      eq\n      tag_9\n      jumpi\n      dup1\n      0x8da5cb5b\n      eq\n      tag_10\n      jumpi\n      jump(tag_1)\n    tag_15:\n      dup1\n      0x049a5f65\n      eq\n      tag_2\n      jumpi\n      dup1\n      0x17bde7a9\n      eq\n      tag_3\n      jumpi\n      dup1\n      0x1c6743e4\n      eq\n      tag_4\n      jumpi\n      dup1\n      0x2458c544\n      eq\n      tag_5\n      jumpi\n      dup1\n      0x6a7d1816\n      eq\n      tag_6\n      jumpi\n      dup1\n      0x6b6f0494\n      eq\n      tag_7\n      jumpi\n    tag_1:\n      0x00\n      dup1\n      revert\n        /* \"contracts/CarreraCoches/principal.sol\":3454:3916  function comprarCoche(address _address, string memory _newModelo, string memory _newMarca) external payable returns(string memory) {\r... */\n    tag_2:\n      tag_17\n      0x04\n      dup1\n      calldatasize\n      sub\n      dup2\n      add\n      swap1\n      tag_18\n      swap2\n      swap1\n      tag_19\n      jump\t// in\n    tag_18:\n      tag_20\n      jump\t// in\n    tag_17:\n      mload(0x40)\n      tag_21\n      swap2\n      swap1\n      tag_22\n      jump\t// in\n    tag_21:\n      mload(0x40)\n      dup1\n      swap2\n      sub\n      swap1\n      return\n        /* \"contracts/CarreraCoches/principal.sol\":1308:1616  function borrarCoche(address _from) public {\r... */\n    tag_3:\n      callvalue\n      dup1\n      iszero\n      tag_23\n      jumpi\n      0x00\n      dup1\n      revert\n    tag_23:\n      pop\n      tag_24\n      0x04\n      dup1\n      calldatasize\n      sub\n      dup2\n      add\n      swap1\n      tag_25\n      swap2\n      swap1\n      tag_26\n      jump\t// in\n    tag_25:\n      tag_27\n      jump\t// in\n    tag_24:\n      stop\n        /* \"contracts/CarreraCoches/principal.sol\":929:981  mapping (address => uint) public numeroCochesPersona */\n    tag_4:\n      callvalue\n      dup1\n      iszero\n      tag_28\n      jumpi\n      0x00\n      dup1\n      revert\n    tag_28:\n      pop\n      tag_29\n      0x04\n      dup1\n      calldatasize\n      sub\n      dup2\n      add\n      swap1\n      tag_30\n      swap2\n      swap1\n      tag_26\n      jump\t// in\n    tag_30:\n      tag_31\n      jump\t// in\n    tag_29:\n      mload(0x40)\n      tag_32\n      swap2\n      swap1\n      tag_33\n      jump\t// in\n    tag_32:\n      mload(0x40)\n      dup1\n      swap2\n      sub\n      swap1\n      return\n        /* \"contracts/CarreraCoches/principal.sol\":1862:2302  function anadirCoche(string memory _modelo, string memory _marca, string memory _nombrePiloto) public restriccion returns (uint) {\r... */\n    tag_5:\n      callvalue\n      dup1\n      iszero\n      tag_34\n      jumpi\n      0x00\n      dup1\n      revert\n    tag_34:\n      pop\n      tag_35\n      0x04\n      dup1\n      calldatasize\n      sub\n      dup2\n      add\n      swap1\n      tag_36\n      swap2\n      swap1\n      tag_37\n      jump\t// in\n    tag_36:\n      tag_38\n      jump\t// in\n    tag_35:\n      mload(0x40)\n      tag_39\n      swap2\n      swap1\n      tag_33\n      jump\t// in\n    tag_39:\n      mload(0x40)\n      dup1\n      swap2\n      sub\n      swap1\n      return\n        /* \"contracts/CarreraCoches/principal.sol\":2630:2989  function subirDeNivel(address _propietario) external payable returns(string memory) {\r... */\n    tag_6:\n      tag_40\n      0x04\n      dup1\n      calldatasize\n      sub\n      dup2\n      add\n      swap1\n      tag_41\n      swap2\n      swap1\n      tag_26\n      jump\t// in\n    tag_41:\n      tag_42\n      jump\t// in\n    tag_40:\n      mload(0x40)\n      tag_43\n      swap2\n      swap1\n      tag_22\n      jump\t// in\n    tag_43:\n      mload(0x40)\n      dup1\n      swap2\n      sub\n      swap1\n      return\n        /* \"contracts/CarreraCoches/principal.sol\":4253:7581  function Apostar(uint dineroApostar) public payable returns(string memory) {\r... */\n    tag_7:\n      tag_44\n      0x04\n      dup1\n      calldatasize\n      sub\n      dup2\n      add\n      swap1\n      tag_45\n      swap2\n      swap1\n      tag_46\n      jump\t// in\n    tag_45:\n      tag_47\n      jump\t// in\n    tag_44:\n      mload(0x40)\n      tag_48\n      swap2\n      swap1\n      tag_22\n      jump\t// in\n    tag_48:\n      mload(0x40)\n      dup1\n      swap2\n      sub\n      swap1\n      return\n        /* \"contracts/CarreraCoches/ownable.sol\":1719:1822  function renounceOwnership() public virtual onlyOwner {\r... */\n    tag_8:\n      callvalue\n      dup1\n      iszero\n      tag_49\n      jumpi\n      0x00\n      dup1\n      revert\n    tag_49:\n      pop\n      tag_50\n      tag_51\n      jump\t// in\n    tag_50:\n      stop\n        /* \"contracts/CarreraCoches/principal.sol\":871:922  mapping (uint => address) public cocheDePropietario */\n    tag_9:\n      callvalue\n      dup1\n      iszero\n      tag_52\n      jumpi\n      0x00\n      dup1\n      revert\n    tag_52:\n      pop\n      tag_53\n      0x04\n      dup1\n      calldatasize\n      sub\n      dup2\n      add\n      swap1\n      tag_54\n      swap2\n      swap1\n      tag_46\n      jump\t// in\n    tag_54:\n      tag_55\n      jump\t// in\n    tag_53:\n      mload(0x40)\n      tag_56\n      swap2\n      swap1\n      tag_57\n      jump\t// in\n    tag_56:\n      mload(0x40)\n      dup1\n      swap2\n      sub\n      swap1\n      return\n        /* \"contracts/CarreraCoches/ownable.sol\":1068:1155  function owner() public view virtual returns (address) {\r... */\n    tag_10:\n      callvalue\n      dup1\n      iszero\n      tag_58\n      jumpi\n      0x00\n      dup1\n      revert\n    tag_58:\n      pop\n      tag_59\n      tag_60\n      jump\t// in\n    tag_59:\n      mload(0x40)\n      tag_61\n      swap2\n      swap1\n      tag_57\n      jump\t// in\n    tag_61:\n      mload(0x40)\n      dup1\n      swap2\n      sub\n      swap1\n      return\n        /* \"contracts/CarreraCoches/ownable.sol\":701:722  address public _owner */\n    tag_11:\n      callvalue\n      dup1\n      iszero\n      tag_62\n      jumpi\n      0x00\n      dup1\n      revert\n    tag_62:\n      pop\n      tag_63\n      tag_64\n      jump\t// in\n    tag_63:\n      mload(0x40)\n      tag_65\n      swap2\n      swap1\n      tag_57\n      jump\t// in\n    tag_65:\n      mload(0x40)\n      dup1\n      swap2\n      sub\n      swap1\n      return\n        /* \"contracts/CarreraCoches/principal.sol\":604:630  Coche[] public listaCoches */\n    tag_12:\n      callvalue\n      dup1\n      iszero\n      tag_66\n      jumpi\n      0x00\n      dup1\n      revert\n    tag_66:\n      pop\n      tag_67\n      0x04\n      dup1\n      calldatasize\n      sub\n      dup2\n      add\n      swap1\n      tag_68\n      swap2\n      swap1\n      tag_46\n      jump\t// in\n    tag_68:\n      tag_69\n      jump\t// in\n    tag_67:\n      mload(0x40)\n      tag_70\n      swap9\n      swap8\n      swap7\n      swap6\n      swap5\n      swap4\n      swap3\n      swap2\n      swap1\n      tag_71\n      jump\t// in\n    tag_70:\n      mload(0x40)\n      dup1\n      swap2\n      sub\n      swap1\n      return\n        /* \"contracts/CarreraCoches/principal.sol\":2997:3373  function verCochePropietario(address _propietario) external {\r... */\n    tag_13:\n      callvalue\n      dup1\n      iszero\n      tag_72\n      jumpi\n      0x00\n      dup1\n      revert\n    tag_72:\n      pop\n      tag_73\n      0x04\n      dup1\n      calldatasize\n      sub\n      dup2\n      add\n      swap1\n      tag_74\n      swap2\n      swap1\n      tag_26\n      jump\t// in\n    tag_74:\n      tag_75\n      jump\t// in\n    tag_73:\n      stop\n        /* \"contracts/CarreraCoches/ownable.sol\":1977:2178  function transferOwnership(address newOwner) public virtual onlyOwner {\r... */\n    tag_14:\n      callvalue\n      dup1\n      iszero\n      tag_76\n      jumpi\n      0x00\n      dup1\n      revert\n    tag_76:\n      pop\n      tag_77\n      0x04\n      dup1\n      calldatasize\n      sub\n      dup2\n      add\n      swap1\n      tag_78\n      swap2\n      swap1\n      tag_26\n      jump\t// in\n    tag_78:\n      tag_79\n      jump\t// in\n    tag_77:\n      stop\n        /* \"contracts/CarreraCoches/principal.sol\":3454:3916  function comprarCoche(address _address, string memory _newModelo, string memory _newMarca) external payable returns(string memory) {\r... */\n    tag_20:\n        /* \"contracts/CarreraCoches/principal.sol\":3570:3583  string memory */\n      0x60\n        /* \"contracts/CarreraCoches/principal.sol\":3616:3624  _address */\n      dup4\n        /* \"contracts/CarreraCoches/principal.sol\":3604:3624  msg.sender==_address */\n      0xffffffffffffffffffffffffffffffffffffffff\n      and\n        /* \"contracts/CarreraCoches/principal.sol\":3604:3614  msg.sender */\n      caller\n        /* \"contracts/CarreraCoches/principal.sol\":3604:3624  msg.sender==_address */\n      0xffffffffffffffffffffffffffffffffffffffff\n      and\n      eq\n        /* \"contracts/CarreraCoches/principal.sol\":3596:3625  require(msg.sender==_address) */\n      tag_81\n      jumpi\n      0x00\n      dup1\n      revert\n    tag_81:\n        /* \"contracts/CarreraCoches/principal.sol\":3655:3668  cambiarCocheV */\n      sload(0x05)\n        /* \"contracts/CarreraCoches/principal.sol\":3644:3653  msg.value */\n      callvalue\n        /* \"contracts/CarreraCoches/principal.sol\":3644:3668  msg.value==cambiarCocheV */\n      eq\n        /* \"contracts/CarreraCoches/principal.sol\":3636:3669  require(msg.value==cambiarCocheV) */\n      tag_82\n      jumpi\n      0x00\n      dup1\n      revert\n    tag_82:\n        /* \"contracts/CarreraCoches/principal.sol\":3684:3690  uint i */\n      0x00\n        /* \"contracts/CarreraCoches/principal.sol\":3680:3909  for(uint i = 0; i < listaCoches.length; i++){\r... */\n    tag_83:\n        /* \"contracts/CarreraCoches/principal.sol\":3700:3711  listaCoches */\n      0x06\n        /* \"contracts/CarreraCoches/principal.sol\":3700:3718  listaCoches.length */\n      dup1\n      sload\n      swap1\n      pop\n        /* \"contracts/CarreraCoches/principal.sol\":3696:3697  i */\n      dup2\n        /* \"contracts/CarreraCoches/principal.sol\":3696:3718  i < listaCoches.length */\n      lt\n        /* \"contracts/CarreraCoches/principal.sol\":3680:3909  for(uint i = 0; i < listaCoches.length; i++){\r... */\n      iszero\n      tag_84\n      jumpi\n        /* \"contracts/CarreraCoches/principal.sol\":3767:3777  msg.sender */\n      caller\n        /* \"contracts/CarreraCoches/principal.sol\":3742:3777  listaCoches[i].idPiloto==msg.sender */\n      0xffffffffffffffffffffffffffffffffffffffff\n      and\n        /* \"contracts/CarreraCoches/principal.sol\":3742:3753  listaCoches */\n      0x06\n        /* \"contracts/CarreraCoches/principal.sol\":3754:3755  i */\n      dup3\n        /* \"contracts/CarreraCoches/principal.sol\":3742:3756  listaCoches[i] */\n      dup2\n      sload\n      dup2\n      lt\n      tag_86\n      jumpi\n      tag_87\n      tag_88\n      jump\t// in\n    tag_87:\n    tag_86:\n      swap1\n      0x00\n      mstore\n      keccak256(0x00, 0x20)\n      swap1\n      0x08\n      mul\n      add\n        /* \"contracts/CarreraCoches/principal.sol\":3742:3765  listaCoches[i].idPiloto */\n      0x00\n      add\n      0x00\n      swap1\n      sload\n      swap1\n      0x0100\n      exp\n      swap1\n      div\n      0xffffffffffffffffffffffffffffffffffffffff\n      and\n        /* \"contracts/CarreraCoches/principal.sol\":3742:3777  listaCoches[i].idPiloto==msg.sender */\n      0xffffffffffffffffffffffffffffffffffffffff\n      and\n      eq\n        /* \"contracts/CarreraCoches/principal.sol\":3739:3898  if(listaCoches[i].idPiloto==msg.sender){\r... */\n      iszero\n      tag_90\n      jumpi\n        /* \"contracts/CarreraCoches/principal.sol\":3821:3831  _newModelo */\n      dup4\n        /* \"contracts/CarreraCoches/principal.sol\":3797:3808  listaCoches */\n      0x06\n        /* \"contracts/CarreraCoches/principal.sol\":3809:3810  i */\n      dup3\n        /* \"contracts/CarreraCoches/principal.sol\":3797:3811  listaCoches[i] */\n      dup2\n      sload\n      dup2\n      lt\n      tag_91\n      jumpi\n      tag_92\n      tag_88\n      jump\t// in\n    tag_92:\n    tag_91:\n      swap1\n      0x00\n      mstore\n      keccak256(0x00, 0x20)\n      swap1\n      0x08\n      mul\n      add\n        /* \"contracts/CarreraCoches/principal.sol\":3797:3818  listaCoches[i].modelo */\n      0x01\n      add\n        /* \"contracts/CarreraCoches/principal.sol\":3797:3831  listaCoches[i].modelo = _newModelo */\n      swap1\n      dup1\n      mload\n      swap1\n      0x20\n      add\n      swap1\n      tag_94\n      swap3\n      swap2\n      swap1\n      tag_95\n      jump\t// in\n    tag_94:\n      pop\n        /* \"contracts/CarreraCoches/principal.sol\":3873:3882  _newMarca */\n      dup3\n        /* \"contracts/CarreraCoches/principal.sol\":3850:3861  listaCoches */\n      0x06\n        /* \"contracts/CarreraCoches/principal.sol\":3862:3863  i */\n      dup3\n        /* \"contracts/CarreraCoches/principal.sol\":3850:3864  listaCoches[i] */\n      dup2\n      sload\n      dup2\n      lt\n      tag_96\n      jumpi\n      tag_97\n      tag_88\n      jump\t// in\n    tag_97:\n    tag_96:\n      swap1\n      0x00\n      mstore\n      keccak256(0x00, 0x20)\n      swap1\n      0x08\n      mul\n      add\n        /* \"contracts/CarreraCoches/principal.sol\":3850:3870  listaCoches[i].marca */\n      0x02\n      add\n        /* \"contracts/CarreraCoches/principal.sol\":3850:3882  listaCoches[i].marca = _newMarca */\n      swap1\n      dup1\n      mload\n      swap1\n      0x20\n      add\n      swap1\n      tag_99\n      swap3\n      swap2\n      swap1\n      tag_95\n      jump\t// in\n    tag_99:\n      pop\n        /* \"contracts/CarreraCoches/principal.sol\":3739:3898  if(listaCoches[i].idPiloto==msg.sender){\r... */\n    tag_90:\n        /* \"contracts/CarreraCoches/principal.sol\":3720:3723  i++ */\n      dup1\n      dup1\n      tag_100\n      swap1\n      tag_101\n      jump\t// in\n    tag_100:\n      swap2\n      pop\n      pop\n        /* \"contracts/CarreraCoches/principal.sol\":3680:3909  for(uint i = 0; i < listaCoches.length; i++){\r... */\n      jump(tag_83)\n    tag_84:\n      pop\n        /* \"contracts/CarreraCoches/principal.sol\":3454:3916  function comprarCoche(address _address, string memory _newModelo, string memory _newMarca) external payable returns(string memory) {\r... */\n      swap4\n      swap3\n      pop\n      pop\n      pop\n      jump\t// out\n        /* \"contracts/CarreraCoches/principal.sol\":1308:1616  function borrarCoche(address _from) public {\r... */\n    tag_27:\n        /* \"contracts/CarreraCoches/principal.sol\":1366:1372  uint i */\n      0x00\n        /* \"contracts/CarreraCoches/principal.sol\":1362:1609  for(uint i = 0; i < listaCoches.length; i++){\r... */\n    tag_103:\n        /* \"contracts/CarreraCoches/principal.sol\":1382:1393  listaCoches */\n      0x06\n        /* \"contracts/CarreraCoches/principal.sol\":1382:1400  listaCoches.length */\n      dup1\n      sload\n      swap1\n      pop\n        /* \"contracts/CarreraCoches/principal.sol\":1378:1379  i */\n      dup2\n        /* \"contracts/CarreraCoches/principal.sol\":1378:1400  i < listaCoches.length */\n      lt\n        /* \"contracts/CarreraCoches/principal.sol\":1362:1609  for(uint i = 0; i < listaCoches.length; i++){\r... */\n      iszero\n      tag_104\n      jumpi\n        /* \"contracts/CarreraCoches/principal.sol\":1451:1456  _from */\n      dup2\n        /* \"contracts/CarreraCoches/principal.sol\":1424:1456  listaCoches[i].idPiloto == _from */\n      0xffffffffffffffffffffffffffffffffffffffff\n      and\n        /* \"contracts/CarreraCoches/principal.sol\":1424:1435  listaCoches */\n      0x06\n        /* \"contracts/CarreraCoches/principal.sol\":1436:1437  i */\n      dup3\n        /* \"contracts/CarreraCoches/principal.sol\":1424:1438  listaCoches[i] */\n      dup2\n      sload\n      dup2\n      lt\n      tag_106\n      jumpi\n      tag_107\n      tag_88\n      jump\t// in\n    tag_107:\n    tag_106:\n      swap1\n      0x00\n      mstore\n      keccak256(0x00, 0x20)\n      swap1\n      0x08\n      mul\n      add\n        /* \"contracts/CarreraCoches/principal.sol\":1424:1447  listaCoches[i].idPiloto */\n      0x00\n      add\n      0x00\n      swap1\n      sload\n      swap1\n      0x0100\n      exp\n      swap1\n      div\n      0xffffffffffffffffffffffffffffffffffffffff\n      and\n        /* \"contracts/CarreraCoches/principal.sol\":1424:1456  listaCoches[i].idPiloto == _from */\n      0xffffffffffffffffffffffffffffffffffffffff\n      and\n      eq\n        /* \"contracts/CarreraCoches/principal.sol\":1421:1598  if(listaCoches[i].idPiloto == _from){\r... */\n      iszero\n      tag_109\n      jumpi\n        /* \"contracts/CarreraCoches/principal.sol\":1476:1502  listaCoches[i].modelo = \"\" */\n      mload(0x40)\n      dup1\n      0x20\n      add\n      0x40\n      mstore\n      dup1\n      0x00\n      dup2\n      mstore\n      pop\n        /* \"contracts/CarreraCoches/principal.sol\":1476:1487  listaCoches */\n      0x06\n        /* \"contracts/CarreraCoches/principal.sol\":1488:1489  i */\n      dup3\n        /* \"contracts/CarreraCoches/principal.sol\":1476:1490  listaCoches[i] */\n      dup2\n      sload\n      dup2\n      lt\n      tag_110\n      jumpi\n      tag_111\n      tag_88\n      jump\t// in\n    tag_111:\n    tag_110:\n      swap1\n      0x00\n      mstore\n      keccak256(0x00, 0x20)\n      swap1\n      0x08\n      mul\n      add\n        /* \"contracts/CarreraCoches/principal.sol\":1476:1497  listaCoches[i].modelo */\n      0x01\n      add\n        /* \"contracts/CarreraCoches/principal.sol\":1476:1502  listaCoches[i].modelo = \"\" */\n      swap1\n      dup1\n      mload\n      swap1\n      0x20\n      add\n      swap1\n      tag_113\n      swap3\n      swap2\n      swap1\n      tag_95\n      jump\t// in\n    tag_113:\n      pop\n        /* \"contracts/CarreraCoches/principal.sol\":1521:1546  listaCoches[i].marca = \"\" */\n      mload(0x40)\n      dup1\n      0x20\n      add\n      0x40\n      mstore\n      dup1\n      0x00\n      dup2\n      mstore\n      pop\n        /* \"contracts/CarreraCoches/principal.sol\":1521:1532  listaCoches */\n      0x06\n        /* \"contracts/CarreraCoches/principal.sol\":1533:1534  i */\n      dup3\n        /* \"contracts/CarreraCoches/principal.sol\":1521:1535  listaCoches[i] */\n      dup2\n      sload\n      dup2\n      lt\n      tag_114\n      jumpi\n      tag_115\n      tag_88\n      jump\t// in\n    tag_115:\n    tag_114:\n      swap1\n      0x00\n      mstore\n      keccak256(0x00, 0x20)\n      swap1\n      0x08\n      mul\n      add\n        /* \"contracts/CarreraCoches/principal.sol\":1521:1541  listaCoches[i].marca */\n      0x02\n      add\n        /* \"contracts/CarreraCoches/principal.sol\":1521:1546  listaCoches[i].marca = \"\" */\n      swap1\n      dup1\n      mload\n      swap1\n      0x20\n      add\n      swap1\n      tag_117\n      swap3\n      swap2\n      swap1\n      tag_95\n      jump\t// in\n    tag_117:\n      pop\n        /* \"contracts/CarreraCoches/principal.sol\":1565:1576  listaCoches */\n      0x06\n        /* \"contracts/CarreraCoches/principal.sol\":1565:1582  listaCoches.pop() */\n      dup1\n      sload\n      dup1\n      tag_118\n      jumpi\n      tag_119\n      tag_120\n      jump\t// in\n    tag_119:\n    tag_118:\n      0x01\n      swap1\n      sub\n      dup2\n      dup2\n      swap1\n      0x00\n      mstore\n      keccak256(0x00, 0x20)\n      swap1\n      0x08\n      mul\n      add\n      0x00\n      dup1\n      dup3\n      add\n      exp(0x0100, 0x00)\n      dup2\n      sload\n      swap1\n      0xffffffffffffffffffffffffffffffffffffffff\n      mul\n      not\n      and\n      swap1\n      sstore\n      0x01\n      dup3\n      add\n      0x00\n      tag_122\n      swap2\n      swap1\n      tag_123\n      jump\t// in\n    tag_122:\n      0x02\n      dup3\n      add\n      0x00\n      tag_124\n      swap2\n      swap1\n      tag_123\n      jump\t// in\n    tag_124:\n      0x03\n      dup3\n      add\n      0x00\n      tag_125\n      swap2\n      swap1\n      tag_123\n      jump\t// in\n    tag_125:\n      0x04\n      dup3\n      add\n      0x00\n      swap1\n      sstore\n      0x05\n      dup3\n      add\n      0x00\n      swap1\n      sstore\n      0x06\n      dup3\n      add\n      0x00\n      swap1\n      sstore\n      0x07\n      dup3\n      add\n      exp(0x0100, 0x00)\n      dup2\n      sload\n      swap1\n      0xffffffff\n      mul\n      not\n      and\n      swap1\n      sstore\n      pop\n      pop\n      swap1\n      sstore\n        /* \"contracts/CarreraCoches/principal.sol\":1421:1598  if(listaCoches[i].idPiloto == _from){\r... */\n    tag_109:\n        /* \"contracts/CarreraCoches/principal.sol\":1402:1405  i++ */\n      dup1\n      dup1\n      tag_126\n      swap1\n      tag_101\n      jump\t// in\n    tag_126:\n      swap2\n      pop\n      pop\n        /* \"contracts/CarreraCoches/principal.sol\":1362:1609  for(uint i = 0; i < listaCoches.length; i++){\r... */\n      jump(tag_103)\n    tag_104:\n      pop\n        /* \"contracts/CarreraCoches/principal.sol\":1308:1616  function borrarCoche(address _from) public {\r... */\n      pop\n      jump\t// out\n        /* \"contracts/CarreraCoches/principal.sol\":929:981  mapping (address => uint) public numeroCochesPersona */\n    tag_31:\n      mstore(0x20, 0x08)\n      dup1\n      0x00\n      mstore\n      keccak256(0x00, 0x40)\n      0x00\n      swap2\n      pop\n      swap1\n      pop\n      sload\n      dup2\n      jump\t// out\n        /* \"contracts/CarreraCoches/principal.sol\":1862:2302  function anadirCoche(string memory _modelo, string memory _marca, string memory _nombrePiloto) public restriccion returns (uint) {\r... */\n    tag_38:\n        /* \"contracts/CarreraCoches/principal.sol\":1985:1989  uint */\n      0x00\n        /* \"contracts/CarreraCoches/principal.sol\":1113:1114  1 */\n      0x01\n        /* \"contracts/CarreraCoches/principal.sol\":1079:1098  numeroCochesPersona */\n      0x08\n        /* \"contracts/CarreraCoches/principal.sol\":1079:1110  numeroCochesPersona[msg.sender] */\n      0x00\n        /* \"contracts/CarreraCoches/principal.sol\":1099:1109  msg.sender */\n      caller\n        /* \"contracts/CarreraCoches/principal.sol\":1079:1110  numeroCochesPersona[msg.sender] */\n      0xffffffffffffffffffffffffffffffffffffffff\n      and\n      0xffffffffffffffffffffffffffffffffffffffff\n      and\n      dup2\n      mstore\n      0x20\n      add\n      swap1\n      dup2\n      mstore\n      0x20\n      add\n      0x00\n      keccak256\n      sload\n        /* \"contracts/CarreraCoches/principal.sol\":1079:1114  numeroCochesPersona[msg.sender] < 1 */\n      lt\n        /* \"contracts/CarreraCoches/principal.sol\":1071:1159  require(numeroCochesPersona[msg.sender] < 1, \"Solo se puede tener un coche por persona\") */\n      tag_128\n      jumpi\n      mload(0x40)\n      0x08c379a000000000000000000000000000000000000000000000000000000000\n      dup2\n      mstore\n      0x04\n      add\n      tag_129\n      swap1\n      tag_130\n      jump\t// in\n    tag_129:\n      mload(0x40)\n      dup1\n      swap2\n      sub\n      swap1\n      revert\n    tag_128:\n        /* \"contracts/CarreraCoches/principal.sol\":2002:2013  listaCoches */\n      0x06\n        /* \"contracts/CarreraCoches/principal.sol\":2019:2113  Coche(msg.sender, _modelo, _marca, _nombrePiloto, 0, 0, uint32(block.timestamp + cooldown), 1) */\n      mload(0x40)\n      dup1\n      0x0100\n      add\n      0x40\n      mstore\n      dup1\n        /* \"contracts/CarreraCoches/principal.sol\":2025:2035  msg.sender */\n      caller\n        /* \"contracts/CarreraCoches/principal.sol\":2019:2113  Coche(msg.sender, _modelo, _marca, _nombrePiloto, 0, 0, uint32(block.timestamp + cooldown), 1) */\n      0xffffffffffffffffffffffffffffffffffffffff\n      and\n      dup2\n      mstore\n      0x20\n      add\n        /* \"contracts/CarreraCoches/principal.sol\":2037:2044  _modelo */\n      dup7\n        /* \"contracts/CarreraCoches/principal.sol\":2019:2113  Coche(msg.sender, _modelo, _marca, _nombrePiloto, 0, 0, uint32(block.timestamp + cooldown), 1) */\n      dup2\n      mstore\n      0x20\n      add\n        /* \"contracts/CarreraCoches/principal.sol\":2046:2052  _marca */\n      dup6\n        /* \"contracts/CarreraCoches/principal.sol\":2019:2113  Coche(msg.sender, _modelo, _marca, _nombrePiloto, 0, 0, uint32(block.timestamp + cooldown), 1) */\n      dup2\n      mstore\n      0x20\n      add\n        /* \"contracts/CarreraCoches/principal.sol\":2054:2067  _nombrePiloto */\n      dup5\n        /* \"contracts/CarreraCoches/principal.sol\":2019:2113  Coche(msg.sender, _modelo, _marca, _nombrePiloto, 0, 0, uint32(block.timestamp + cooldown), 1) */\n      dup2\n      mstore\n      0x20\n      add\n        /* \"contracts/CarreraCoches/principal.sol\":2069:2070  0 */\n      0x00\n        /* \"contracts/CarreraCoches/principal.sol\":2019:2113  Coche(msg.sender, _modelo, _marca, _nombrePiloto, 0, 0, uint32(block.timestamp + cooldown), 1) */\n      dup2\n      mstore\n      0x20\n      add\n        /* \"contracts/CarreraCoches/principal.sol\":2072:2073  0 */\n      0x00\n        /* \"contracts/CarreraCoches/principal.sol\":2019:2113  Coche(msg.sender, _modelo, _marca, _nombrePiloto, 0, 0, uint32(block.timestamp + cooldown), 1) */\n      dup2\n      mstore\n      0x20\n      add\n        /* \"contracts/CarreraCoches/principal.sol\":2100:2108  cooldown */\n      sload(0x03)\n        /* \"contracts/CarreraCoches/principal.sol\":2082:2097  block.timestamp */\n      timestamp\n        /* \"contracts/CarreraCoches/principal.sol\":2082:2108  block.timestamp + cooldown */\n      tag_132\n      swap2\n      swap1\n      tag_133\n      jump\t// in\n    tag_132:\n        /* \"contracts/CarreraCoches/principal.sol\":2019:2113  Coche(msg.sender, _modelo, _marca, _nombrePiloto, 0, 0, uint32(block.timestamp + cooldown), 1) */\n      0xffffffff\n      and\n      dup2\n      mstore\n      0x20\n      add\n        /* \"contracts/CarreraCoches/principal.sol\":2111:2112  1 */\n      0x01\n        /* \"contracts/CarreraCoches/principal.sol\":2019:2113  Coche(msg.sender, _modelo, _marca, _nombrePiloto, 0, 0, uint32(block.timestamp + cooldown), 1) */\n      0xffffffff\n      and\n      dup2\n      mstore\n      pop\n        /* \"contracts/CarreraCoches/principal.sol\":2002:2114  listaCoches.push(Coche(msg.sender, _modelo, _marca, _nombrePiloto, 0, 0, uint32(block.timestamp + cooldown), 1)) */\n      swap1\n      dup1\n      0x01\n      dup2\n      sload\n      add\n      dup1\n      dup3\n      sstore\n      dup1\n      swap2\n      pop\n      pop\n      0x01\n      swap1\n      sub\n      swap1\n      0x00\n      mstore\n      keccak256(0x00, 0x20)\n      swap1\n      0x08\n      mul\n      add\n      0x00\n      swap1\n      swap2\n      swap1\n      swap2\n      swap1\n      swap2\n      pop\n      0x00\n      dup3\n      add\n      mload\n      dup2\n      0x00\n      add\n      exp(0x0100, 0x00)\n      dup2\n      sload\n      dup2\n      0xffffffffffffffffffffffffffffffffffffffff\n      mul\n      not\n      and\n      swap1\n      dup4\n      0xffffffffffffffffffffffffffffffffffffffff\n      and\n      mul\n      or\n      swap1\n      sstore\n      pop\n      0x20\n      dup3\n      add\n      mload\n      dup2\n      0x01\n      add\n      swap1\n      dup1\n      mload\n      swap1\n      0x20\n      add\n      swap1\n      tag_135\n      swap3\n      swap2\n      swap1\n      tag_95\n      jump\t// in\n    tag_135:\n      pop\n      0x40\n      dup3\n      add\n      mload\n      dup2\n      0x02\n      add\n      swap1\n      dup1\n      mload\n      swap1\n      0x20\n      add\n      swap1\n      tag_136\n      swap3\n      swap2\n      swap1\n      tag_95\n      jump\t// in\n    tag_136:\n      pop\n      0x60\n      dup3\n      add\n      mload\n      dup2\n      0x03\n      add\n      swap1\n      dup1\n      mload\n      swap1\n      0x20\n      add\n      swap1\n      tag_137\n      swap3\n      swap2\n      swap1\n      tag_95\n      jump\t// in\n    tag_137:\n      pop\n      0x80\n      dup3\n      add\n      mload\n      dup2\n      0x04\n      add\n      sstore\n      0xa0\n      dup3\n      add\n      mload\n      dup2\n      0x05\n      add\n      sstore\n      0xc0\n      dup3\n      add\n      mload\n      dup2\n      0x06\n      add\n      sstore\n      0xe0\n      dup3\n      add\n      mload\n      dup2\n      0x07\n      add\n      exp(0x0100, 0x00)\n      dup2\n      sload\n      dup2\n      0xffffffff\n      mul\n      not\n      and\n      swap1\n      dup4\n      0xffffffff\n      and\n      mul\n      or\n      swap1\n      sstore\n      pop\n      pop\n      pop\n        /* \"contracts/CarreraCoches/principal.sol\":2125:2132  uint id */\n      0x00\n        /* \"contracts/CarreraCoches/principal.sol\":2135:2146  listaCoches */\n      0x06\n        /* \"contracts/CarreraCoches/principal.sol\":2135:2153  listaCoches.length */\n      dup1\n      sload\n      swap1\n      pop\n        /* \"contracts/CarreraCoches/principal.sol\":2125:2153  uint id = listaCoches.length */\n      swap1\n      pop\n        /* \"contracts/CarreraCoches/principal.sol\":2189:2199  msg.sender */\n      caller\n        /* \"contracts/CarreraCoches/principal.sol\":2164:2182  cocheDePropietario */\n      0x07\n        /* \"contracts/CarreraCoches/principal.sol\":2164:2186  cocheDePropietario[id] */\n      0x00\n        /* \"contracts/CarreraCoches/principal.sol\":2183:2185  id */\n      dup4\n        /* \"contracts/CarreraCoches/principal.sol\":2164:2186  cocheDePropietario[id] */\n      dup2\n      mstore\n      0x20\n      add\n      swap1\n      dup2\n      mstore\n      0x20\n      add\n      0x00\n      keccak256\n      0x00\n        /* \"contracts/CarreraCoches/principal.sol\":2164:2199  cocheDePropietario[id] = msg.sender */\n      0x0100\n      exp\n      dup2\n      sload\n      dup2\n      0xffffffffffffffffffffffffffffffffffffffff\n      mul\n      not\n      and\n      swap1\n      dup4\n      0xffffffffffffffffffffffffffffffffffffffff\n      and\n      mul\n      or\n      swap1\n      sstore\n      pop\n        /* \"contracts/CarreraCoches/principal.sol\":2210:2229  numeroCochesPersona */\n      0x08\n        /* \"contracts/CarreraCoches/principal.sol\":2210:2241  numeroCochesPersona[msg.sender] */\n      0x00\n        /* \"contracts/CarreraCoches/principal.sol\":2230:2240  msg.sender */\n      caller\n        /* \"contracts/CarreraCoches/principal.sol\":2210:2241  numeroCochesPersona[msg.sender] */\n      0xffffffffffffffffffffffffffffffffffffffff\n      and\n      0xffffffffffffffffffffffffffffffffffffffff\n      and\n      dup2\n      mstore\n      0x20\n      add\n      swap1\n      dup2\n      mstore\n      0x20\n      add\n      0x00\n      keccak256\n      0x00\n        /* \"contracts/CarreraCoches/principal.sol\":2210:2243  numeroCochesPersona[msg.sender]++ */\n      dup2\n      sload\n      dup1\n      swap3\n      swap2\n      swap1\n      tag_138\n      swap1\n      tag_101\n      jump\t// in\n    tag_138:\n      swap2\n      swap1\n      pop\n      sstore\n      pop\n        /* \"contracts/CarreraCoches/principal.sol\":2254:2262  contador */\n      0x02\n      0x00\n        /* \"contracts/CarreraCoches/principal.sol\":2254:2264  contador++ */\n      dup2\n      sload\n      dup1\n      swap3\n      swap2\n      swap1\n      tag_139\n      swap1\n      tag_101\n      jump\t// in\n    tag_139:\n      swap2\n      swap1\n      pop\n      sstore\n      pop\n        /* \"contracts/CarreraCoches/principal.sol\":2293:2294  1 */\n      0x01\n        /* \"contracts/CarreraCoches/principal.sol\":2282:2290  contador */\n      sload(0x02)\n        /* \"contracts/CarreraCoches/principal.sol\":2282:2294  contador - 1 */\n      tag_140\n      swap2\n      swap1\n      tag_141\n      jump\t// in\n    tag_140:\n        /* \"contracts/CarreraCoches/principal.sol\":2275:2294  return contador - 1 */\n      swap2\n      pop\n      pop\n        /* \"contracts/CarreraCoches/principal.sol\":1862:2302  function anadirCoche(string memory _modelo, string memory _marca, string memory _nombrePiloto) public restriccion returns (uint) {\r... */\n      swap4\n      swap3\n      pop\n      pop\n      pop\n      jump\t// out\n        /* \"contracts/CarreraCoches/principal.sol\":2630:2989  function subirDeNivel(address _propietario) external payable returns(string memory) {\r... */\n    tag_42:\n        /* \"contracts/CarreraCoches/principal.sol\":2699:2712  string memory */\n      0x60\n        /* \"contracts/CarreraCoches/principal.sol\":2744:2754  subirNivel */\n      sload(0x04)\n        /* \"contracts/CarreraCoches/principal.sol\":2733:2742  msg.value */\n      callvalue\n        /* \"contracts/CarreraCoches/principal.sol\":2733:2754  msg.value==subirNivel */\n      eq\n        /* \"contracts/CarreraCoches/principal.sol\":2725:2755  require(msg.value==subirNivel) */\n      tag_143\n      jumpi\n      0x00\n      dup1\n      revert\n    tag_143:\n        /* \"contracts/CarreraCoches/principal.sol\":2770:2776  uint i */\n      0x00\n        /* \"contracts/CarreraCoches/principal.sol\":2766:2982  for(uint i = 0; i < listaCoches.length; i++){\r... */\n    tag_144:\n        /* \"contracts/CarreraCoches/principal.sol\":2786:2797  listaCoches */\n      0x06\n        /* \"contracts/CarreraCoches/principal.sol\":2786:2804  listaCoches.length */\n      dup1\n      sload\n      swap1\n      pop\n        /* \"contracts/CarreraCoches/principal.sol\":2782:2783  i */\n      dup2\n        /* \"contracts/CarreraCoches/principal.sol\":2782:2804  i < listaCoches.length */\n      lt\n        /* \"contracts/CarreraCoches/principal.sol\":2766:2982  for(uint i = 0; i < listaCoches.length; i++){\r... */\n      iszero\n      tag_145\n      jumpi\n        /* \"contracts/CarreraCoches/principal.sol\":2855:2867  _propietario */\n      dup3\n        /* \"contracts/CarreraCoches/principal.sol\":2828:2867  listaCoches[i].idPiloto == _propietario */\n      0xffffffffffffffffffffffffffffffffffffffff\n      and\n        /* \"contracts/CarreraCoches/principal.sol\":2828:2839  listaCoches */\n      0x06\n        /* \"contracts/CarreraCoches/principal.sol\":2840:2841  i */\n      dup3\n        /* \"contracts/CarreraCoches/principal.sol\":2828:2842  listaCoches[i] */\n      dup2\n      sload\n      dup2\n      lt\n      tag_147\n      jumpi\n      tag_148\n      tag_88\n      jump\t// in\n    tag_148:\n    tag_147:\n      swap1\n      0x00\n      mstore\n      keccak256(0x00, 0x20)\n      swap1\n      0x08\n      mul\n      add\n        /* \"contracts/CarreraCoches/principal.sol\":2828:2851  listaCoches[i].idPiloto */\n      0x00\n      add\n      0x00\n      swap1\n      sload\n      swap1\n      0x0100\n      exp\n      swap1\n      div\n      0xffffffffffffffffffffffffffffffffffffffff\n      and\n        /* \"contracts/CarreraCoches/principal.sol\":2828:2867  listaCoches[i].idPiloto == _propietario */\n      0xffffffffffffffffffffffffffffffffffffffff\n      and\n      eq\n        /* \"contracts/CarreraCoches/principal.sol\":2825:2971  if(listaCoches[i].idPiloto == _propietario){\r... */\n      iszero\n      tag_150\n      jumpi\n        /* \"contracts/CarreraCoches/principal.sol\":2887:2898  listaCoches */\n      0x06\n        /* \"contracts/CarreraCoches/principal.sol\":2899:2900  i */\n      dup2\n        /* \"contracts/CarreraCoches/principal.sol\":2887:2901  listaCoches[i] */\n      dup2\n      sload\n      dup2\n      lt\n      tag_151\n      jumpi\n      tag_152\n      tag_88\n      jump\t// in\n    tag_152:\n    tag_151:\n      swap1\n      0x00\n      mstore\n      keccak256(0x00, 0x20)\n      swap1\n      0x08\n      mul\n      add\n        /* \"contracts/CarreraCoches/principal.sol\":2887:2907  listaCoches[i].nivel */\n      0x07\n      add\n      0x00\n        /* \"contracts/CarreraCoches/principal.sol\":2887:2909  listaCoches[i].nivel++ */\n      dup2\n      dup2\n      swap1\n      sload\n      swap1\n      0x0100\n      exp\n      swap1\n      div\n      0xffffffff\n      and\n      dup1\n      swap3\n      swap2\n      swap1\n      tag_154\n      swap1\n      tag_155\n      jump\t// in\n    tag_154:\n      swap2\n      swap1\n      0x0100\n      exp\n      dup2\n      sload\n      dup2\n      0xffffffff\n      mul\n      not\n      and\n      swap1\n      dup4\n      0xffffffff\n      and\n      mul\n      or\n      swap1\n      sstore\n      pop\n      pop\n        /* \"contracts/CarreraCoches/principal.sol\":2928:2955  return \"Ha subido de nivel\" */\n      mload(0x40)\n      dup1\n      0x40\n      add\n      0x40\n      mstore\n      dup1\n      0x12\n      dup2\n      mstore\n      0x20\n      add\n      0x48612073756269646f206465206e6976656c0000000000000000000000000000\n      dup2\n      mstore\n      pop\n      swap2\n      pop\n      pop\n      jump(tag_142)\n        /* \"contracts/CarreraCoches/principal.sol\":2825:2971  if(listaCoches[i].idPiloto == _propietario){\r... */\n    tag_150:\n        /* \"contracts/CarreraCoches/principal.sol\":2806:2809  i++ */\n      dup1\n      dup1\n      tag_156\n      swap1\n      tag_101\n      jump\t// in\n    tag_156:\n      swap2\n      pop\n      pop\n        /* \"contracts/CarreraCoches/principal.sol\":2766:2982  for(uint i = 0; i < listaCoches.length; i++){\r... */\n      jump(tag_144)\n    tag_145:\n      pop\n        /* \"contracts/CarreraCoches/principal.sol\":2630:2989  function subirDeNivel(address _propietario) external payable returns(string memory) {\r... */\n    tag_142:\n      swap2\n      swap1\n      pop\n      jump\t// out\n        /* \"contracts/CarreraCoches/principal.sol\":4253:7581  function Apostar(uint dineroApostar) public payable returns(string memory) {\r... */\n    tag_47:\n        /* \"contracts/CarreraCoches/principal.sol\":4313:4326  string memory */\n      0x60\n        /* \"contracts/CarreraCoches/principal.sol\":4374:4375  1 */\n      0x01\n        /* \"contracts/CarreraCoches/principal.sol\":4352:4363  listaCoches */\n      0x06\n        /* \"contracts/CarreraCoches/principal.sol\":4352:4370  listaCoches.length */\n      dup1\n      sload\n      swap1\n      pop\n        /* \"contracts/CarreraCoches/principal.sol\":4352:4375  listaCoches.length <= 1 */\n      gt\n        /* \"contracts/CarreraCoches/principal.sol\":4349:7575  if(listaCoches.length <= 1){\r... */\n      tag_158\n      jumpi\n        /* \"contracts/CarreraCoches/principal.sol\":4395:4474  confirmacionDepositoLleno(\"No hay coches suficientes para iniciar una carrera\") */\n      0x6158fc8f21c8cc73ddf920956cc75d0e8a48b4fc85817a0ba89eb3b6d2a75441\n      mload(0x40)\n      tag_159\n      swap1\n      tag_160\n      jump\t// in\n    tag_159:\n      mload(0x40)\n      dup1\n      swap2\n      sub\n      swap1\n      log1\n        /* \"contracts/CarreraCoches/principal.sol\":4349:7575  if(listaCoches.length <= 1){\r... */\n      jump(tag_161)\n    tag_158:\n        /* \"contracts/CarreraCoches/principal.sol\":4525:4538  dineroApostar */\n      dup2\n        /* \"contracts/CarreraCoches/principal.sol\":4512:4521  msg.value */\n      callvalue\n        /* \"contracts/CarreraCoches/principal.sol\":4512:4538  msg.value == dineroApostar */\n      eq\n        /* \"contracts/CarreraCoches/principal.sol\":4504:4539  require(msg.value == dineroApostar) */\n      tag_162\n      jumpi\n      0x00\n      dup1\n      revert\n    tag_162:\n        /* \"contracts/CarreraCoches/principal.sol\":4554:4563  randNonce */\n      0x01\n      0x00\n        /* \"contracts/CarreraCoches/principal.sol\":4554:4565  randNonce++ */\n      dup2\n      sload\n      dup1\n      swap3\n      swap2\n      swap1\n      tag_163\n      swap1\n      tag_101\n      jump\t// in\n    tag_163:\n      swap2\n      swap1\n      pop\n      sstore\n      pop\n        /* \"contracts/CarreraCoches/principal.sol\":4620:4633  uint256 rival */\n      0x00\n        /* \"contracts/CarreraCoches/principal.sol\":4723:4734  listaCoches */\n      0x06\n        /* \"contracts/CarreraCoches/principal.sol\":4723:4741  listaCoches.length */\n      dup1\n      sload\n      swap1\n      pop\n        /* \"contracts/CarreraCoches/principal.sol\":4671:4686  block.timestamp */\n      timestamp\n        /* \"contracts/CarreraCoches/principal.sol\":4688:4699  listaCoches */\n      0x06\n        /* \"contracts/CarreraCoches/principal.sol\":4688:4706  listaCoches.length */\n      dup1\n      sload\n      swap1\n      pop\n        /* \"contracts/CarreraCoches/principal.sol\":4708:4717  randNonce */\n      sload(0x01)\n        /* \"contracts/CarreraCoches/principal.sol\":4654:4718  abi.encodePacked(block.timestamp, listaCoches.length, randNonce) */\n      add(0x20, mload(0x40))\n      tag_164\n      swap4\n      swap3\n      swap2\n      swap1\n      tag_165\n      jump\t// in\n    tag_164:\n      mload(0x40)\n      0x20\n      dup2\n      dup4\n      sub\n      sub\n      dup2\n      mstore\n      swap1\n      0x40\n      mstore\n        /* \"contracts/CarreraCoches/principal.sol\":4644:4719  keccak256(abi.encodePacked(block.timestamp, listaCoches.length, randNonce)) */\n      dup1\n      mload\n      swap1\n      0x20\n      add\n      keccak256\n        /* \"contracts/CarreraCoches/principal.sol\":4636:4720  uint256(keccak256(abi.encodePacked(block.timestamp, listaCoches.length, randNonce))) */\n      0x00\n      shr\n        /* \"contracts/CarreraCoches/principal.sol\":4636:4741  uint256(keccak256(abi.encodePacked(block.timestamp, listaCoches.length, randNonce))) % listaCoches.length */\n      tag_166\n      swap2\n      swap1\n      tag_167\n      jump\t// in\n    tag_166:\n        /* \"contracts/CarreraCoches/principal.sol\":4620:4741  uint256 rival = uint256(keccak256(abi.encodePacked(block.timestamp, listaCoches.length, randNonce))) % listaCoches.length */\n      swap1\n      pop\n        /* \"contracts/CarreraCoches/principal.sol\":4756:4776  address addressRival */\n      0x00\n        /* \"contracts/CarreraCoches/principal.sol\":4779:4797  cocheDePropietario */\n      0x07\n        /* \"contracts/CarreraCoches/principal.sol\":4779:4804  cocheDePropietario[rival] */\n      0x00\n        /* \"contracts/CarreraCoches/principal.sol\":4798:4803  rival */\n      dup4\n        /* \"contracts/CarreraCoches/principal.sol\":4779:4804  cocheDePropietario[rival] */\n      dup2\n      mstore\n      0x20\n      add\n      swap1\n      dup2\n      mstore\n      0x20\n      add\n      0x00\n      keccak256\n      0x00\n      swap1\n      sload\n      swap1\n      0x0100\n      exp\n      swap1\n      div\n      0xffffffffffffffffffffffffffffffffffffffff\n      and\n        /* \"contracts/CarreraCoches/principal.sol\":4756:4804  address addressRival = cocheDePropietario[rival] */\n      swap1\n      pop\n        /* \"contracts/CarreraCoches/principal.sol\":4855:4864  randNonce */\n      0x01\n      0x00\n        /* \"contracts/CarreraCoches/principal.sol\":4855:4866  randNonce++ */\n      dup2\n      sload\n      dup1\n      swap3\n      swap2\n      swap1\n      tag_168\n      swap1\n      tag_101\n      jump\t// in\n    tag_168:\n      swap2\n      swap1\n      pop\n      sstore\n      pop\n        /* \"contracts/CarreraCoches/principal.sol\":4881:4892  uint numero */\n      0x00\n        /* \"contracts/CarreraCoches/principal.sol\":4895:4898  100 */\n      0x64\n        /* \"contracts/CarreraCoches/principal.sol\":4881:4898  uint numero = 100 */\n      swap1\n      pop\n        /* \"contracts/CarreraCoches/principal.sol\":4913:4928  uint256 ganador */\n      0x00\n        /* \"contracts/CarreraCoches/principal.sol\":5006:5012  numero */\n      dup2\n        /* \"contracts/CarreraCoches/principal.sol\":4966:4981  block.timestamp */\n      timestamp\n        /* \"contracts/CarreraCoches/principal.sol\":4983:4989  numero */\n      dup4\n        /* \"contracts/CarreraCoches/principal.sol\":4991:5000  randNonce */\n      sload(0x01)\n        /* \"contracts/CarreraCoches/principal.sol\":4949:5001  abi.encodePacked(block.timestamp, numero, randNonce) */\n      add(0x20, mload(0x40))\n      tag_169\n      swap4\n      swap3\n      swap2\n      swap1\n      tag_165\n      jump\t// in\n    tag_169:\n      mload(0x40)\n      0x20\n      dup2\n      dup4\n      sub\n      sub\n      dup2\n      mstore\n      swap1\n      0x40\n      mstore\n        /* \"contracts/CarreraCoches/principal.sol\":4939:5002  keccak256(abi.encodePacked(block.timestamp, numero, randNonce)) */\n      dup1\n      mload\n      swap1\n      0x20\n      add\n      keccak256\n        /* \"contracts/CarreraCoches/principal.sol\":4931:5003  uint256(keccak256(abi.encodePacked(block.timestamp, numero, randNonce))) */\n      0x00\n      shr\n        /* \"contracts/CarreraCoches/principal.sol\":4931:5012  uint256(keccak256(abi.encodePacked(block.timestamp, numero, randNonce))) % numero */\n      tag_170\n      swap2\n      swap1\n      tag_167\n      jump\t// in\n    tag_170:\n        /* \"contracts/CarreraCoches/principal.sol\":4913:5012  uint256 ganador = uint256(keccak256(abi.encodePacked(block.timestamp, numero, randNonce))) % numero */\n      swap1\n      pop\n        /* \"contracts/CarreraCoches/principal.sol\":5033:5039  uint i */\n      0x00\n        /* \"contracts/CarreraCoches/principal.sol\":5029:7564  for(uint i = 0; i < listaCoches.length; i++){\r... */\n    tag_171:\n        /* \"contracts/CarreraCoches/principal.sol\":5049:5060  listaCoches */\n      0x06\n        /* \"contracts/CarreraCoches/principal.sol\":5049:5067  listaCoches.length */\n      dup1\n      sload\n      swap1\n      pop\n        /* \"contracts/CarreraCoches/principal.sol\":5045:5046  i */\n      dup2\n        /* \"contracts/CarreraCoches/principal.sol\":5045:5067  i < listaCoches.length */\n      lt\n        /* \"contracts/CarreraCoches/principal.sol\":5029:7564  for(uint i = 0; i < listaCoches.length; i++){\r... */\n      iszero\n      tag_172\n      jumpi\n        /* \"contracts/CarreraCoches/principal.sol\":5188:5199  listaCoches */\n      0x06\n        /* \"contracts/CarreraCoches/principal.sol\":5200:5201  i */\n      dup2\n        /* \"contracts/CarreraCoches/principal.sol\":5188:5202  listaCoches[i] */\n      dup2\n      sload\n      dup2\n      lt\n      tag_174\n      jumpi\n      tag_175\n      tag_88\n      jump\t// in\n    tag_175:\n    tag_174:\n      swap1\n      0x00\n      mstore\n      keccak256(0x00, 0x20)\n      swap1\n      0x08\n      mul\n      add\n        /* \"contracts/CarreraCoches/principal.sol\":5188:5211  listaCoches[i].idPiloto */\n      0x00\n      add\n      0x00\n      swap1\n      sload\n      swap1\n      0x0100\n      exp\n      swap1\n      div\n      0xffffffffffffffffffffffffffffffffffffffff\n      and\n        /* \"contracts/CarreraCoches/principal.sol\":5174:5211  msg.sender == listaCoches[i].idPiloto */\n      0xffffffffffffffffffffffffffffffffffffffff\n      and\n        /* \"contracts/CarreraCoches/principal.sol\":5174:5184  msg.sender */\n      caller\n        /* \"contracts/CarreraCoches/principal.sol\":5174:5211  msg.sender == listaCoches[i].idPiloto */\n      0xffffffffffffffffffffffffffffffffffffffff\n      and\n      eq\n        /* \"contracts/CarreraCoches/principal.sol\":5170:7531  if (msg.sender == listaCoches[i].idPiloto) {\r... */\n      iszero\n      tag_177\n      jumpi\n        /* \"contracts/CarreraCoches/principal.sol\":5236:5247  listaCoches */\n      0x06\n        /* \"contracts/CarreraCoches/principal.sol\":5248:5249  i */\n      dup2\n        /* \"contracts/CarreraCoches/principal.sol\":5236:5250  listaCoches[i] */\n      dup2\n      sload\n      dup2\n      lt\n      tag_178\n      jumpi\n      tag_179\n      tag_88\n      jump\t// in\n    tag_179:\n    tag_178:\n      swap1\n      0x00\n      mstore\n      keccak256(0x00, 0x20)\n      swap1\n      0x08\n      mul\n      add\n        /* \"contracts/CarreraCoches/principal.sol\":5236:5266  listaCoches[i].carrerasTotales */\n      0x05\n      add\n      0x00\n        /* \"contracts/CarreraCoches/principal.sol\":5236:5268  listaCoches[i].carrerasTotales++ */\n      dup2\n      sload\n      dup1\n      swap3\n      swap2\n      swap1\n      tag_181\n      swap1\n      tag_101\n      jump\t// in\n    tag_181:\n      swap2\n      swap1\n      pop\n      sstore\n      pop\n        /* \"contracts/CarreraCoches/principal.sol\":5291:5302  listaCoches */\n      0x06\n        /* \"contracts/CarreraCoches/principal.sol\":5303:5308  rival */\n      dup6\n        /* \"contracts/CarreraCoches/principal.sol\":5291:5309  listaCoches[rival] */\n      dup2\n      sload\n      dup2\n      lt\n      tag_182\n      jumpi\n      tag_183\n      tag_88\n      jump\t// in\n    tag_183:\n    tag_182:\n      swap1\n      0x00\n      mstore\n      keccak256(0x00, 0x20)\n      swap1\n      0x08\n      mul\n      add\n        /* \"contracts/CarreraCoches/principal.sol\":5291:5325  listaCoches[rival].carrerasTotales */\n      0x05\n      add\n      0x00\n        /* \"contracts/CarreraCoches/principal.sol\":5291:5327  listaCoches[rival].carrerasTotales++ */\n      dup2\n      sload\n      dup1\n      swap3\n      swap2\n      swap1\n      tag_185\n      swap1\n      tag_101\n      jump\t// in\n    tag_185:\n      swap2\n      swap1\n      pop\n      sstore\n      pop\n        /* \"contracts/CarreraCoches/principal.sol\":5350:5377  _repostando(listaCoches[i]) */\n      tag_186\n        /* \"contracts/CarreraCoches/principal.sol\":5362:5373  listaCoches */\n      0x06\n        /* \"contracts/CarreraCoches/principal.sol\":5374:5375  i */\n      dup3\n        /* \"contracts/CarreraCoches/principal.sol\":5362:5376  listaCoches[i] */\n      dup2\n      sload\n      dup2\n      lt\n      tag_187\n      jumpi\n      tag_188\n      tag_88\n      jump\t// in\n    tag_188:\n    tag_187:\n      swap1\n      0x00\n      mstore\n      keccak256(0x00, 0x20)\n      swap1\n      0x08\n      mul\n      add\n        /* \"contracts/CarreraCoches/principal.sol\":5350:5361  _repostando */\n      tag_190\n        /* \"contracts/CarreraCoches/principal.sol\":5350:5377  _repostando(listaCoches[i]) */\n      jump\t// in\n    tag_186:\n        /* \"contracts/CarreraCoches/principal.sol\":5430:5441  listaCoches */\n      0x06\n        /* \"contracts/CarreraCoches/principal.sol\":5442:5443  i */\n      dup2\n        /* \"contracts/CarreraCoches/principal.sol\":5430:5444  listaCoches[i] */\n      dup2\n      sload\n      dup2\n      lt\n      tag_191\n      jumpi\n      tag_192\n      tag_88\n      jump\t// in\n    tag_192:\n    tag_191:\n      swap1\n      0x00\n      mstore\n      keccak256(0x00, 0x20)\n      swap1\n      0x08\n      mul\n      add\n        /* \"contracts/CarreraCoches/principal.sol\":5430:5450  listaCoches[i].nivel */\n      0x07\n      add\n      0x00\n      swap1\n      sload\n      swap1\n      0x0100\n      exp\n      swap1\n      div\n      0xffffffff\n      and\n        /* \"contracts/CarreraCoches/principal.sol\":5403:5450  listaCoches[rival].nivel < listaCoches[i].nivel */\n      0xffffffff\n      and\n        /* \"contracts/CarreraCoches/principal.sol\":5403:5414  listaCoches */\n      0x06\n        /* \"contracts/CarreraCoches/principal.sol\":5415:5420  rival */\n      dup7\n        /* \"contracts/CarreraCoches/principal.sol\":5403:5421  listaCoches[rival] */\n      dup2\n      sload\n      dup2\n      lt\n      tag_194\n      jumpi\n      tag_195\n      tag_88\n      jump\t// in\n    tag_195:\n    tag_194:\n      swap1\n      0x00\n      mstore\n      keccak256(0x00, 0x20)\n      swap1\n      0x08\n      mul\n      add\n        /* \"contracts/CarreraCoches/principal.sol\":5403:5427  listaCoches[rival].nivel */\n      0x07\n      add\n      0x00\n      swap1\n      sload\n      swap1\n      0x0100\n      exp\n      swap1\n      div\n      0xffffffff\n      and\n        /* \"contracts/CarreraCoches/principal.sol\":5403:5450  listaCoches[rival].nivel < listaCoches[i].nivel */\n      0xffffffff\n      and\n      lt\n        /* \"contracts/CarreraCoches/principal.sol\":5400:7508  if(listaCoches[rival].nivel < listaCoches[i].nivel){\r... */\n      iszero\n      tag_197\n      jumpi\n        /* \"contracts/CarreraCoches/principal.sol\":5490:5492  60 */\n      0x3c\n        /* \"contracts/CarreraCoches/principal.sol\":5481:5488  ganador */\n      dup3\n        /* \"contracts/CarreraCoches/principal.sol\":5481:5492  ganador<=60 */\n      gt\n        /* \"contracts/CarreraCoches/principal.sol\":5478:6051  if(ganador<=60){\r... */\n      tag_198\n      jumpi\n        /* \"contracts/CarreraCoches/principal.sol\":5524:5533  balance() */\n      tag_199\n        /* \"contracts/CarreraCoches/principal.sol\":5524:5531  balance */\n      tag_200\n        /* \"contracts/CarreraCoches/principal.sol\":5524:5533  balance() */\n      jump\t// in\n    tag_199:\n        /* \"contracts/CarreraCoches/principal.sol\":5564:5575  listaCoches */\n      0x06\n        /* \"contracts/CarreraCoches/principal.sol\":5576:5577  i */\n      dup2\n        /* \"contracts/CarreraCoches/principal.sol\":5564:5578  listaCoches[i] */\n      dup2\n      sload\n      dup2\n      lt\n      tag_201\n      jumpi\n      tag_202\n      tag_88\n      jump\t// in\n    tag_202:\n    tag_201:\n      swap1\n      0x00\n      mstore\n      keccak256(0x00, 0x20)\n      swap1\n      0x08\n      mul\n      add\n        /* \"contracts/CarreraCoches/principal.sol\":5564:5594  listaCoches[i].carrerasGanadas */\n      0x04\n      add\n      0x00\n        /* \"contracts/CarreraCoches/principal.sol\":5564:5596  listaCoches[i].carrerasGanadas++ */\n      dup2\n      sload\n      dup1\n      swap3\n      swap2\n      swap1\n      tag_204\n      swap1\n      tag_101\n      jump\t// in\n    tag_204:\n      swap2\n      swap1\n      pop\n      sstore\n      pop\n        /* \"contracts/CarreraCoches/principal.sol\":5627:5638  listaCoches */\n      0x06\n        /* \"contracts/CarreraCoches/principal.sol\":5639:5640  i */\n      dup2\n        /* \"contracts/CarreraCoches/principal.sol\":5627:5641  listaCoches[i] */\n      dup2\n      sload\n      dup2\n      lt\n      tag_205\n      jumpi\n      tag_206\n      tag_88\n      jump\t// in\n    tag_206:\n    tag_205:\n      swap1\n      0x00\n      mstore\n      keccak256(0x00, 0x20)\n      swap1\n      0x08\n      mul\n      add\n        /* \"contracts/CarreraCoches/principal.sol\":5627:5647  listaCoches[i].nivel */\n      0x07\n      add\n      0x00\n        /* \"contracts/CarreraCoches/principal.sol\":5627:5649  listaCoches[i].nivel++ */\n      dup2\n      dup2\n      swap1\n      sload\n      swap1\n      0x0100\n      exp\n      swap1\n      div\n      0xffffffff\n      and\n      dup1\n      swap3\n      swap2\n      swap1\n      tag_208\n      swap1\n      tag_155\n      jump\t// in\n    tag_208:\n      swap2\n      swap1\n      0x0100\n      exp\n      dup2\n      sload\n      dup2\n      0xffffffff\n      mul\n      not\n      and\n      swap1\n      dup4\n      0xffffffff\n      and\n      mul\n      or\n      swap1\n      sstore\n      pop\n      pop\n        /* \"contracts/CarreraCoches/principal.sol\":5680:5699  return \"Has ganado\" */\n      mload(0x40)\n      dup1\n      0x40\n      add\n      0x40\n      mstore\n      dup1\n      0x0a\n      dup2\n      mstore\n      0x20\n      add\n      0x4861732067616e61646f00000000000000000000000000000000000000000000\n      dup2\n      mstore\n      pop\n      swap6\n      pop\n      pop\n      pop\n      pop\n      pop\n      pop\n      jump(tag_157)\n        /* \"contracts/CarreraCoches/principal.sol\":5478:6051  if(ganador<=60){\r... */\n    tag_198:\n        /* \"contracts/CarreraCoches/principal.sol\":5853:5903  confirmacionDepositoLleno(\"El coche ganador es: \") */\n      0x6158fc8f21c8cc73ddf920956cc75d0e8a48b4fc85817a0ba89eb3b6d2a75441\n      mload(0x40)\n      tag_210\n      swap1\n      tag_211\n      jump\t// in\n    tag_210:\n      mload(0x40)\n      dup1\n      swap2\n      sub\n      swap1\n      log1\n        /* \"contracts/CarreraCoches/principal.sol\":5934:5938  this */\n      address\n        /* \"contracts/CarreraCoches/principal.sol\":5934:5958  this.verCochePropietario */\n      0xffffffffffffffffffffffffffffffffffffffff\n      and\n      0xe172fca8\n        /* \"contracts/CarreraCoches/principal.sol\":5959:5971  addressRival */\n      dup6\n        /* \"contracts/CarreraCoches/principal.sol\":5934:5972  this.verCochePropietario(addressRival) */\n      mload(0x40)\n      dup3\n      0xffffffff\n      and\n      0xe0\n      shl\n      dup2\n      mstore\n      0x04\n      add\n      tag_212\n      swap2\n      swap1\n      tag_57\n      jump\t// in\n    tag_212:\n      0x00\n      mload(0x40)\n      dup1\n      dup4\n      sub\n      dup2\n      0x00\n      dup8\n      dup1\n      extcodesize\n      iszero\n      dup1\n      iszero\n      tag_213\n      jumpi\n      0x00\n      dup1\n      revert\n    tag_213:\n      pop\n      gas\n      call\n      iszero\n      dup1\n      iszero\n      tag_215\n      jumpi\n      returndatasize\n      0x00\n      dup1\n      returndatacopy\n      revert(0x00, returndatasize)\n    tag_215:\n      pop\n      pop\n      pop\n      pop\n        /* \"contracts/CarreraCoches/principal.sol\":6003:6023  return \"Has perdido\" */\n      mload(0x40)\n      dup1\n      0x40\n      add\n      0x40\n      mstore\n      dup1\n      0x0b\n      dup2\n      mstore\n      0x20\n      add\n      0x486173207065726469646f000000000000000000000000000000000000000000\n      dup2\n      mstore\n      pop\n      swap6\n      pop\n      pop\n      pop\n      pop\n      pop\n      pop\n      jump(tag_157)\n        /* \"contracts/CarreraCoches/principal.sol\":5400:7508  if(listaCoches[rival].nivel < listaCoches[i].nivel){\r... */\n    tag_197:\n        /* \"contracts/CarreraCoches/principal.sol\":6114:6125  listaCoches */\n      0x06\n        /* \"contracts/CarreraCoches/principal.sol\":6126:6127  i */\n      dup2\n        /* \"contracts/CarreraCoches/principal.sol\":6114:6128  listaCoches[i] */\n      dup2\n      sload\n      dup2\n      lt\n      tag_217\n      jumpi\n      tag_218\n      tag_88\n      jump\t// in\n    tag_218:\n    tag_217:\n      swap1\n      0x00\n      mstore\n      keccak256(0x00, 0x20)\n      swap1\n      0x08\n      mul\n      add\n        /* \"contracts/CarreraCoches/principal.sol\":6114:6134  listaCoches[i].nivel */\n      0x07\n      add\n      0x00\n      swap1\n      sload\n      swap1\n      0x0100\n      exp\n      swap1\n      div\n      0xffffffff\n      and\n        /* \"contracts/CarreraCoches/principal.sol\":6086:6134  listaCoches[rival].nivel == listaCoches[i].nivel */\n      0xffffffff\n      and\n        /* \"contracts/CarreraCoches/principal.sol\":6086:6097  listaCoches */\n      0x06\n        /* \"contracts/CarreraCoches/principal.sol\":6098:6103  rival */\n      dup7\n        /* \"contracts/CarreraCoches/principal.sol\":6086:6104  listaCoches[rival] */\n      dup2\n      sload\n      dup2\n      lt\n      tag_220\n      jumpi\n      tag_221\n      tag_88\n      jump\t// in\n    tag_221:\n    tag_220:\n      swap1\n      0x00\n      mstore\n      keccak256(0x00, 0x20)\n      swap1\n      0x08\n      mul\n      add\n        /* \"contracts/CarreraCoches/principal.sol\":6086:6110  listaCoches[rival].nivel */\n      0x07\n      add\n      0x00\n      swap1\n      sload\n      swap1\n      0x0100\n      exp\n      swap1\n      div\n      0xffffffff\n      and\n        /* \"contracts/CarreraCoches/principal.sol\":6086:6134  listaCoches[rival].nivel == listaCoches[i].nivel */\n      0xffffffff\n      and\n      eq\n        /* \"contracts/CarreraCoches/principal.sol\":6083:7508  if(listaCoches[rival].nivel == listaCoches[i].nivel){\r... */\n      iszero\n      tag_223\n      jumpi\n        /* \"contracts/CarreraCoches/principal.sol\":6174:6176  50 */\n      0x32\n        /* \"contracts/CarreraCoches/principal.sol\":6165:6172  ganador */\n      dup3\n        /* \"contracts/CarreraCoches/principal.sol\":6165:6176  ganador<=50 */\n      gt\n        /* \"contracts/CarreraCoches/principal.sol\":6162:6737  if(ganador<=50){\r... */\n      tag_224\n      jumpi\n        /* \"contracts/CarreraCoches/principal.sol\":6208:6217  balance() */\n      tag_225\n        /* \"contracts/CarreraCoches/principal.sol\":6208:6215  balance */\n      tag_200\n        /* \"contracts/CarreraCoches/principal.sol\":6208:6217  balance() */\n      jump\t// in\n    tag_225:\n        /* \"contracts/CarreraCoches/principal.sol\":6248:6259  listaCoches */\n      0x06\n        /* \"contracts/CarreraCoches/principal.sol\":6260:6261  i */\n      dup2\n        /* \"contracts/CarreraCoches/principal.sol\":6248:6262  listaCoches[i] */\n      dup2\n      sload\n      dup2\n      lt\n      tag_226\n      jumpi\n      tag_227\n      tag_88\n      jump\t// in\n    tag_227:\n    tag_226:\n      swap1\n      0x00\n      mstore\n      keccak256(0x00, 0x20)\n      swap1\n      0x08\n      mul\n      add\n        /* \"contracts/CarreraCoches/principal.sol\":6248:6278  listaCoches[i].carrerasGanadas */\n      0x04\n      add\n      0x00\n        /* \"contracts/CarreraCoches/principal.sol\":6248:6280  listaCoches[i].carrerasGanadas++ */\n      dup2\n      sload\n      dup1\n      swap3\n      swap2\n      swap1\n      tag_229\n      swap1\n      tag_101\n      jump\t// in\n    tag_229:\n      swap2\n      swap1\n      pop\n      sstore\n      pop\n        /* \"contracts/CarreraCoches/principal.sol\":6311:6322  listaCoches */\n      0x06\n        /* \"contracts/CarreraCoches/principal.sol\":6323:6324  i */\n      dup2\n        /* \"contracts/CarreraCoches/principal.sol\":6311:6325  listaCoches[i] */\n      dup2\n      sload\n      dup2\n      lt\n      tag_230\n      jumpi\n      tag_231\n      tag_88\n      jump\t// in\n    tag_231:\n    tag_230:\n      swap1\n      0x00\n      mstore\n      keccak256(0x00, 0x20)\n      swap1\n      0x08\n      mul\n      add\n        /* \"contracts/CarreraCoches/principal.sol\":6311:6331  listaCoches[i].nivel */\n      0x07\n      add\n      0x00\n        /* \"contracts/CarreraCoches/principal.sol\":6311:6333  listaCoches[i].nivel++ */\n      dup2\n      dup2\n      swap1\n      sload\n      swap1\n      0x0100\n      exp\n      swap1\n      div\n      0xffffffff\n      and\n      dup1\n      swap3\n      swap2\n      swap1\n      tag_233\n      swap1\n      tag_155\n      jump\t// in\n    tag_233:\n      swap2\n      swap1\n      0x0100\n      exp\n      dup2\n      sload\n      dup2\n      0xffffffff\n      mul\n      not\n      and\n      swap1\n      dup4\n      0xffffffff\n      and\n      mul\n      or\n      swap1\n      sstore\n      pop\n      pop\n        /* \"contracts/CarreraCoches/principal.sol\":6364:6383  return \"Has ganado\" */\n      mload(0x40)\n      dup1\n      0x40\n      add\n      0x40\n      mstore\n      dup1\n      0x0a\n      dup2\n      mstore\n      0x20\n      add\n      0x4861732067616e61646f00000000000000000000000000000000000000000000\n      dup2\n      mstore\n      pop\n      swap6\n      pop\n      pop\n      pop\n      pop\n      pop\n      pop\n      jump(tag_157)\n        /* \"contracts/CarreraCoches/principal.sol\":6162:6737  if(ganador<=50){\r... */\n    tag_224:\n        /* \"contracts/CarreraCoches/principal.sol\":6539:6589  confirmacionDepositoLleno(\"El coche ganador es: \") */\n      0x6158fc8f21c8cc73ddf920956cc75d0e8a48b4fc85817a0ba89eb3b6d2a75441\n      mload(0x40)\n      tag_235\n      swap1\n      tag_211\n      jump\t// in\n    tag_235:\n      mload(0x40)\n      dup1\n      swap2\n      sub\n      swap1\n      log1\n        /* \"contracts/CarreraCoches/principal.sol\":6620:6624  this */\n      address\n        /* \"contracts/CarreraCoches/principal.sol\":6620:6644  this.verCochePropietario */\n      0xffffffffffffffffffffffffffffffffffffffff\n      and\n      0xe172fca8\n        /* \"contracts/CarreraCoches/principal.sol\":6645:6657  addressRival */\n      dup6\n        /* \"contracts/CarreraCoches/principal.sol\":6620:6658  this.verCochePropietario(addressRival) */\n      mload(0x40)\n      dup3\n      0xffffffff\n      and\n      0xe0\n      shl\n      dup2\n      mstore\n      0x04\n      add\n      tag_236\n      swap2\n      swap1\n      tag_57\n      jump\t// in\n    tag_236:\n      0x00\n      mload(0x40)\n      dup1\n      dup4\n      sub\n      dup2\n      0x00\n      dup8\n      dup1\n      extcodesize\n      iszero\n      dup1\n      iszero\n      tag_237\n      jumpi\n      0x00\n      dup1\n      revert\n    tag_237:\n      pop\n      gas\n      call\n      iszero\n      dup1\n      iszero\n      tag_239\n      jumpi\n      returndatasize\n      0x00\n      dup1\n      returndatacopy\n      revert(0x00, returndatasize)\n    tag_239:\n      pop\n      pop\n      pop\n      pop\n        /* \"contracts/CarreraCoches/principal.sol\":6689:6709  return \"Has perdido\" */\n      mload(0x40)\n      dup1\n      0x40\n      add\n      0x40\n      mstore\n      dup1\n      0x0b\n      dup2\n      mstore\n      0x20\n      add\n      0x486173207065726469646f000000000000000000000000000000000000000000\n      dup2\n      mstore\n      pop\n      swap6\n      pop\n      pop\n      pop\n      pop\n      pop\n      pop\n      jump(tag_157)\n        /* \"contracts/CarreraCoches/principal.sol\":6083:7508  if(listaCoches[rival].nivel == listaCoches[i].nivel){\r... */\n    tag_223:\n        /* \"contracts/CarreraCoches/principal.sol\":6804:6806  40 */\n      0x28\n        /* \"contracts/CarreraCoches/principal.sol\":6795:6802  ganador */\n      dup3\n        /* \"contracts/CarreraCoches/principal.sol\":6795:6806  ganador<=40 */\n      gt\n        /* \"contracts/CarreraCoches/principal.sol\":6792:7484  if(ganador<=40){\r... */\n      tag_241\n      jumpi\n        /* \"contracts/CarreraCoches/principal.sol\":6838:6847  balance() */\n      tag_242\n        /* \"contracts/CarreraCoches/principal.sol\":6838:6845  balance */\n      tag_200\n        /* \"contracts/CarreraCoches/principal.sol\":6838:6847  balance() */\n      jump\t// in\n    tag_242:\n        /* \"contracts/CarreraCoches/principal.sol\":6878:6889  listaCoches */\n      0x06\n        /* \"contracts/CarreraCoches/principal.sol\":6890:6891  i */\n      dup2\n        /* \"contracts/CarreraCoches/principal.sol\":6878:6892  listaCoches[i] */\n      dup2\n      sload\n      dup2\n      lt\n      tag_243\n      jumpi\n      tag_244\n      tag_88\n      jump\t// in\n    tag_244:\n    tag_243:\n      swap1\n      0x00\n      mstore\n      keccak256(0x00, 0x20)\n      swap1\n      0x08\n      mul\n      add\n        /* \"contracts/CarreraCoches/principal.sol\":6878:6908  listaCoches[i].carrerasGanadas */\n      0x04\n      add\n      0x00\n        /* \"contracts/CarreraCoches/principal.sol\":6878:6910  listaCoches[i].carrerasGanadas++ */\n      dup2\n      sload\n      dup1\n      swap3\n      swap2\n      swap1\n      tag_246\n      swap1\n      tag_101\n      jump\t// in\n    tag_246:\n      swap2\n      swap1\n      pop\n      sstore\n      pop\n        /* \"contracts/CarreraCoches/principal.sol\":6941:6952  listaCoches */\n      0x06\n        /* \"contracts/CarreraCoches/principal.sol\":6953:6954  i */\n      dup2\n        /* \"contracts/CarreraCoches/principal.sol\":6941:6955  listaCoches[i] */\n      dup2\n      sload\n      dup2\n      lt\n      tag_247\n      jumpi\n      tag_248\n      tag_88\n      jump\t// in\n    tag_248:\n    tag_247:\n      swap1\n      0x00\n      mstore\n      keccak256(0x00, 0x20)\n      swap1\n      0x08\n      mul\n      add\n        /* \"contracts/CarreraCoches/principal.sol\":6941:6961  listaCoches[i].nivel */\n      0x07\n      add\n      0x00\n        /* \"contracts/CarreraCoches/principal.sol\":6941:6963  listaCoches[i].nivel++ */\n      dup2\n      dup2\n      swap1\n      sload\n      swap1\n      0x0100\n      exp\n      swap1\n      div\n      0xffffffff\n      and\n      dup1\n      swap3\n      swap2\n      swap1\n      tag_250\n      swap1\n      tag_155\n      jump\t// in\n    tag_250:\n      swap2\n      swap1\n      0x0100\n      exp\n      dup2\n      sload\n      dup2\n      0xffffffff\n      mul\n      not\n      and\n      swap1\n      dup4\n      0xffffffff\n      and\n      mul\n      or\n      swap1\n      sstore\n      pop\n      pop\n        /* \"contracts/CarreraCoches/principal.sol\":6994:7013  return \"Has ganado\" */\n      mload(0x40)\n      dup1\n      0x40\n      add\n      0x40\n      mstore\n      dup1\n      0x0a\n      dup2\n      mstore\n      0x20\n      add\n      0x4861732067616e61646f00000000000000000000000000000000000000000000\n      dup2\n      mstore\n      pop\n      swap6\n      pop\n      pop\n      pop\n      pop\n      pop\n      pop\n      jump(tag_157)\n        /* \"contracts/CarreraCoches/principal.sol\":6792:7484  if(ganador<=40){\r... */\n    tag_241:\n        /* \"contracts/CarreraCoches/principal.sol\":7081:7131  confirmacionDepositoLleno(\"El coche ganador es: \") */\n      0x6158fc8f21c8cc73ddf920956cc75d0e8a48b4fc85817a0ba89eb3b6d2a75441\n      mload(0x40)\n      tag_252\n      swap1\n      tag_211\n      jump\t// in\n    tag_252:\n      mload(0x40)\n      dup1\n      swap2\n      sub\n      swap1\n      log1\n        /* \"contracts/CarreraCoches/principal.sol\":7162:7166  this */\n      address\n        /* \"contracts/CarreraCoches/principal.sol\":7162:7186  this.verCochePropietario */\n      0xffffffffffffffffffffffffffffffffffffffff\n      and\n      0xe172fca8\n        /* \"contracts/CarreraCoches/principal.sol\":7187:7199  addressRival */\n      dup6\n        /* \"contracts/CarreraCoches/principal.sol\":7162:7200  this.verCochePropietario(addressRival) */\n      mload(0x40)\n      dup3\n      0xffffffff\n      and\n      0xe0\n      shl\n      dup2\n      mstore\n      0x04\n      add\n      tag_253\n      swap2\n      swap1\n      tag_57\n      jump\t// in\n    tag_253:\n      0x00\n      mload(0x40)\n      dup1\n      dup4\n      sub\n      dup2\n      0x00\n      dup8\n      dup1\n      extcodesize\n      iszero\n      dup1\n      iszero\n      tag_254\n      jumpi\n      0x00\n      dup1\n      revert\n    tag_254:\n      pop\n      gas\n      call\n      iszero\n      dup1\n      iszero\n      tag_256\n      jumpi\n      returndatasize\n      0x00\n      dup1\n      returndatacopy\n      revert(0x00, returndatasize)\n    tag_256:\n      pop\n      pop\n      pop\n      pop\n        /* \"contracts/CarreraCoches/principal.sol\":7436:7456  return \"Has perdido\" */\n      mload(0x40)\n      dup1\n      0x40\n      add\n      0x40\n      mstore\n      dup1\n      0x0b\n      dup2\n      mstore\n      0x20\n      add\n      0x486173207065726469646f000000000000000000000000000000000000000000\n      dup2\n      mstore\n      pop\n      swap6\n      pop\n      pop\n      pop\n      pop\n      pop\n      pop\n      jump(tag_157)\n        /* \"contracts/CarreraCoches/principal.sol\":5170:7531  if (msg.sender == listaCoches[i].idPiloto) {\r... */\n    tag_177:\n        /* \"contracts/CarreraCoches/principal.sol\":5069:5072  i++ */\n      dup1\n      dup1\n      tag_257\n      swap1\n      tag_101\n      jump\t// in\n    tag_257:\n      swap2\n      pop\n      pop\n        /* \"contracts/CarreraCoches/principal.sol\":5029:7564  for(uint i = 0; i < listaCoches.length; i++){\r... */\n      jump(tag_171)\n    tag_172:\n      pop\n        /* \"contracts/CarreraCoches/principal.sol\":4489:7575  {\r... */\n      pop\n      pop\n      pop\n      pop\n        /* \"contracts/CarreraCoches/principal.sol\":4349:7575  if(listaCoches.length <= 1){\r... */\n    tag_161:\n        /* \"contracts/CarreraCoches/principal.sol\":4253:7581  function Apostar(uint dineroApostar) public payable returns(string memory) {\r... */\n    tag_157:\n      swap2\n      swap1\n      pop\n      jump\t// out\n        /* \"contracts/CarreraCoches/ownable.sol\":1719:1822  function renounceOwnership() public virtual onlyOwner {\r... */\n    tag_51:\n        /* \"contracts/CarreraCoches/ownable.sol\":1299:1311  _msgSender() */\n      tag_259\n        /* \"contracts/CarreraCoches/ownable.sol\":1299:1309  _msgSender */\n      tag_260\n        /* \"contracts/CarreraCoches/ownable.sol\":1299:1311  _msgSender() */\n      jump\t// in\n    tag_259:\n        /* \"contracts/CarreraCoches/ownable.sol\":1288:1311  owner() == _msgSender() */\n      0xffffffffffffffffffffffffffffffffffffffff\n      and\n        /* \"contracts/CarreraCoches/ownable.sol\":1288:1295  owner() */\n      tag_261\n        /* \"contracts/CarreraCoches/ownable.sol\":1288:1293  owner */\n      tag_60\n        /* \"contracts/CarreraCoches/ownable.sol\":1288:1295  owner() */\n      jump\t// in\n    tag_261:\n        /* \"contracts/CarreraCoches/ownable.sol\":1288:1311  owner() == _msgSender() */\n      0xffffffffffffffffffffffffffffffffffffffff\n      and\n      eq\n        /* \"contracts/CarreraCoches/ownable.sol\":1280:1348  require(owner() == _msgSender(), \"Ownable: caller is not the owner\") */\n      tag_262\n      jumpi\n      mload(0x40)\n      0x08c379a000000000000000000000000000000000000000000000000000000000\n      dup2\n      mstore\n      0x04\n      add\n      tag_263\n      swap1\n      tag_264\n      jump\t// in\n    tag_263:\n      mload(0x40)\n      dup1\n      swap2\n      sub\n      swap1\n      revert\n    tag_262:\n        /* \"contracts/CarreraCoches/ownable.sol\":1784:1814  _transferOwnership(address(0)) */\n      tag_266\n        /* \"contracts/CarreraCoches/ownable.sol\":1811:1812  0 */\n      0x00\n        /* \"contracts/CarreraCoches/ownable.sol\":1784:1802  _transferOwnership */\n      tag_267\n        /* \"contracts/CarreraCoches/ownable.sol\":1784:1814  _transferOwnership(address(0)) */\n      jump\t// in\n    tag_266:\n        /* \"contracts/CarreraCoches/ownable.sol\":1719:1822  function renounceOwnership() public virtual onlyOwner {\r... */\n      jump\t// out\n        /* \"contracts/CarreraCoches/principal.sol\":871:922  mapping (uint => address) public cocheDePropietario */\n    tag_55:\n      mstore(0x20, 0x07)\n      dup1\n      0x00\n      mstore\n      keccak256(0x00, 0x40)\n      0x00\n      swap2\n      pop\n      sload\n      swap1\n      0x0100\n      exp\n      swap1\n      div\n      0xffffffffffffffffffffffffffffffffffffffff\n      and\n      dup2\n      jump\t// out\n        /* \"contracts/CarreraCoches/ownable.sol\":1068:1155  function owner() public view virtual returns (address) {\r... */\n    tag_60:\n        /* \"contracts/CarreraCoches/ownable.sol\":1114:1121  address */\n      0x00\n        /* \"contracts/CarreraCoches/ownable.sol\":1141:1147  _owner */\n      dup1\n      0x00\n      swap1\n      sload\n      swap1\n      0x0100\n      exp\n      swap1\n      div\n      0xffffffffffffffffffffffffffffffffffffffff\n      and\n        /* \"contracts/CarreraCoches/ownable.sol\":1134:1147  return _owner */\n      swap1\n      pop\n        /* \"contracts/CarreraCoches/ownable.sol\":1068:1155  function owner() public view virtual returns (address) {\r... */\n      swap1\n      jump\t// out\n        /* \"contracts/CarreraCoches/ownable.sol\":701:722  address public _owner */\n    tag_64:\n      0x00\n      dup1\n      sload\n      swap1\n      0x0100\n      exp\n      swap1\n      div\n      0xffffffffffffffffffffffffffffffffffffffff\n      and\n      dup2\n      jump\t// out\n        /* \"contracts/CarreraCoches/principal.sol\":604:630  Coche[] public listaCoches */\n    tag_69:\n      0x06\n      dup2\n      dup2\n      sload\n      dup2\n      lt\n      tag_269\n      jumpi\n      0x00\n      dup1\n      revert\n    tag_269:\n      swap1\n      0x00\n      mstore\n      keccak256(0x00, 0x20)\n      swap1\n      0x08\n      mul\n      add\n      0x00\n      swap2\n      pop\n      swap1\n      pop\n      dup1\n      0x00\n      add\n      0x00\n      swap1\n      sload\n      swap1\n      0x0100\n      exp\n      swap1\n      div\n      0xffffffffffffffffffffffffffffffffffffffff\n      and\n      swap1\n      dup1\n      0x01\n      add\n      dup1\n      sload\n      tag_271\n      swap1\n      tag_272\n      jump\t// in\n    tag_271:\n      dup1\n      0x1f\n      add\n      0x20\n      dup1\n      swap2\n      div\n      mul\n      0x20\n      add\n      mload(0x40)\n      swap1\n      dup2\n      add\n      0x40\n      mstore\n      dup1\n      swap3\n      swap2\n      swap1\n      dup2\n      dup2\n      mstore\n      0x20\n      add\n      dup3\n      dup1\n      sload\n      tag_273\n      swap1\n      tag_272\n      jump\t// in\n    tag_273:\n      dup1\n      iszero\n      tag_274\n      jumpi\n      dup1\n      0x1f\n      lt\n      tag_275\n      jumpi\n      0x0100\n      dup1\n      dup4\n      sload\n      div\n      mul\n      dup4\n      mstore\n      swap2\n      0x20\n      add\n      swap2\n      jump(tag_274)\n    tag_275:\n      dup3\n      add\n      swap2\n      swap1\n      0x00\n      mstore\n      keccak256(0x00, 0x20)\n      swap1\n    tag_276:\n      dup2\n      sload\n      dup2\n      mstore\n      swap1\n      0x01\n      add\n      swap1\n      0x20\n      add\n      dup1\n      dup4\n      gt\n      tag_276\n      jumpi\n      dup3\n      swap1\n      sub\n      0x1f\n      and\n      dup3\n      add\n      swap2\n    tag_274:\n      pop\n      pop\n      pop\n      pop\n      pop\n      swap1\n      dup1\n      0x02\n      add\n      dup1\n      sload\n      tag_277\n      swap1\n      tag_272\n      jump\t// in\n    tag_277:\n      dup1\n      0x1f\n      add\n      0x20\n      dup1\n      swap2\n      div\n      mul\n      0x20\n      add\n      mload(0x40)\n      swap1\n      dup2\n      add\n      0x40\n      mstore\n      dup1\n      swap3\n      swap2\n      swap1\n      dup2\n      dup2\n      mstore\n      0x20\n      add\n      dup3\n      dup1\n      sload\n      tag_278\n      swap1\n      tag_272\n      jump\t// in\n    tag_278:\n      dup1\n      iszero\n      tag_279\n      jumpi\n      dup1\n      0x1f\n      lt\n      tag_280\n      jumpi\n      0x0100\n      dup1\n      dup4\n      sload\n      div\n      mul\n      dup4\n      mstore\n      swap2\n      0x20\n      add\n      swap2\n      jump(tag_279)\n    tag_280:\n      dup3\n      add\n      swap2\n      swap1\n      0x00\n      mstore\n      keccak256(0x00, 0x20)\n      swap1\n    tag_281:\n      dup2\n      sload\n      dup2\n      mstore\n      swap1\n      0x01\n      add\n      swap1\n      0x20\n      add\n      dup1\n      dup4\n      gt\n      tag_281\n      jumpi\n      dup3\n      swap1\n      sub\n      0x1f\n      and\n      dup3\n      add\n      swap2\n    tag_279:\n      pop\n      pop\n      pop\n      pop\n      pop\n      swap1\n      dup1\n      0x03\n      add\n      dup1\n      sload\n      tag_282\n      swap1\n      tag_272\n      jump\t// in\n    tag_282:\n      dup1\n      0x1f\n      add\n      0x20\n      dup1\n      swap2\n      div\n      mul\n      0x20\n      add\n      mload(0x40)\n      swap1\n      dup2\n      add\n      0x40\n      mstore\n      dup1\n      swap3\n      swap2\n      swap1\n      dup2\n      dup2\n      mstore\n      0x20\n      add\n      dup3\n      dup1\n      sload\n      tag_283\n      swap1\n      tag_272\n      jump\t// in\n    tag_283:\n      dup1\n      iszero\n      tag_284\n      jumpi\n      dup1\n      0x1f\n      lt\n      tag_285\n      jumpi\n      0x0100\n      dup1\n      dup4\n      sload\n      div\n      mul\n      dup4\n      mstore\n      swap2\n      0x20\n      add\n      swap2\n      jump(tag_284)\n    tag_285:\n      dup3\n      add\n      swap2\n      swap1\n      0x00\n      mstore\n      keccak256(0x00, 0x20)\n      swap1\n    tag_286:\n      dup2\n      sload\n      dup2\n      mstore\n      swap1\n      0x01\n      add\n      swap1\n      0x20\n      add\n      dup1\n      dup4\n      gt\n      tag_286\n      jumpi\n      dup3\n      swap1\n      sub\n      0x1f\n      and\n      dup3\n      add\n      swap2\n    tag_284:\n      pop\n      pop\n      pop\n      pop\n      pop\n      swap1\n      dup1\n      0x04\n      add\n      sload\n      swap1\n      dup1\n      0x05\n      add\n      sload\n      swap1\n      dup1\n      0x06\n      add\n      sload\n      swap1\n      dup1\n      0x07\n      add\n      0x00\n      swap1\n      sload\n      swap1\n      0x0100\n      exp\n      swap1\n      div\n      0xffffffff\n      and\n      swap1\n      pop\n      dup9\n      jump\t// out\n        /* \"contracts/CarreraCoches/principal.sol\":2997:3373  function verCochePropietario(address _propietario) external {\r... */\n    tag_75:\n        /* \"contracts/CarreraCoches/principal.sol\":3072:3078  uint i */\n      0x00\n        /* \"contracts/CarreraCoches/principal.sol\":3068:3366  for(uint i = 0; i < listaCoches.length; i++){\r... */\n    tag_288:\n        /* \"contracts/CarreraCoches/principal.sol\":3088:3099  listaCoches */\n      0x06\n        /* \"contracts/CarreraCoches/principal.sol\":3088:3106  listaCoches.length */\n      dup1\n      sload\n      swap1\n      pop\n        /* \"contracts/CarreraCoches/principal.sol\":3084:3085  i */\n      dup2\n        /* \"contracts/CarreraCoches/principal.sol\":3084:3106  i < listaCoches.length */\n      lt\n        /* \"contracts/CarreraCoches/principal.sol\":3068:3366  for(uint i = 0; i < listaCoches.length; i++){\r... */\n      iszero\n      tag_289\n      jumpi\n        /* \"contracts/CarreraCoches/principal.sol\":3155:3167  _propietario */\n      dup2\n        /* \"contracts/CarreraCoches/principal.sol\":3130:3167  listaCoches[i].idPiloto==_propietario */\n      0xffffffffffffffffffffffffffffffffffffffff\n      and\n        /* \"contracts/CarreraCoches/principal.sol\":3130:3141  listaCoches */\n      0x06\n        /* \"contracts/CarreraCoches/principal.sol\":3142:3143  i */\n      dup3\n        /* \"contracts/CarreraCoches/principal.sol\":3130:3144  listaCoches[i] */\n      dup2\n      sload\n      dup2\n      lt\n      tag_291\n      jumpi\n      tag_292\n      tag_88\n      jump\t// in\n    tag_292:\n    tag_291:\n      swap1\n      0x00\n      mstore\n      keccak256(0x00, 0x20)\n      swap1\n      0x08\n      mul\n      add\n        /* \"contracts/CarreraCoches/principal.sol\":3130:3153  listaCoches[i].idPiloto */\n      0x00\n      add\n      0x00\n      swap1\n      sload\n      swap1\n      0x0100\n      exp\n      swap1\n      div\n      0xffffffffffffffffffffffffffffffffffffffff\n      and\n        /* \"contracts/CarreraCoches/principal.sol\":3130:3167  listaCoches[i].idPiloto==_propietario */\n      0xffffffffffffffffffffffffffffffffffffffff\n      and\n      eq\n        /* \"contracts/CarreraCoches/principal.sol\":3127:3355  if(listaCoches[i].idPiloto==_propietario){\r... */\n      iszero\n      tag_294\n      jumpi\n        /* \"contracts/CarreraCoches/principal.sol\":3192:3339  cochePropietario(listaCoches[i].marca, listaCoches[i].modelo, listaCoches[i].nivel, listaCoches[i].carrerasGanadas, listaCoches[i].carrerasTotales) */\n      0x20fdb8ab571bfbab79104bea84f9c31cb79c5ae45b5f515c1d6c8393e0028350\n        /* \"contracts/CarreraCoches/principal.sol\":3209:3220  listaCoches */\n      0x06\n        /* \"contracts/CarreraCoches/principal.sol\":3221:3222  i */\n      dup3\n        /* \"contracts/CarreraCoches/principal.sol\":3209:3223  listaCoches[i] */\n      dup2\n      sload\n      dup2\n      lt\n      tag_295\n      jumpi\n      tag_296\n      tag_88\n      jump\t// in\n    tag_296:\n    tag_295:\n      swap1\n      0x00\n      mstore\n      keccak256(0x00, 0x20)\n      swap1\n      0x08\n      mul\n      add\n        /* \"contracts/CarreraCoches/principal.sol\":3209:3229  listaCoches[i].marca */\n      0x02\n      add\n        /* \"contracts/CarreraCoches/principal.sol\":3231:3242  listaCoches */\n      0x06\n        /* \"contracts/CarreraCoches/principal.sol\":3243:3244  i */\n      dup4\n        /* \"contracts/CarreraCoches/principal.sol\":3231:3245  listaCoches[i] */\n      dup2\n      sload\n      dup2\n      lt\n      tag_298\n      jumpi\n      tag_299\n      tag_88\n      jump\t// in\n    tag_299:\n    tag_298:\n      swap1\n      0x00\n      mstore\n      keccak256(0x00, 0x20)\n      swap1\n      0x08\n      mul\n      add\n        /* \"contracts/CarreraCoches/principal.sol\":3231:3252  listaCoches[i].modelo */\n      0x01\n      add\n        /* \"contracts/CarreraCoches/principal.sol\":3254:3265  listaCoches */\n      0x06\n        /* \"contracts/CarreraCoches/principal.sol\":3266:3267  i */\n      dup5\n        /* \"contracts/CarreraCoches/principal.sol\":3254:3268  listaCoches[i] */\n      dup2\n      sload\n      dup2\n      lt\n      tag_301\n      jumpi\n      tag_302\n      tag_88\n      jump\t// in\n    tag_302:\n    tag_301:\n      swap1\n      0x00\n      mstore\n      keccak256(0x00, 0x20)\n      swap1\n      0x08\n      mul\n      add\n        /* \"contracts/CarreraCoches/principal.sol\":3254:3274  listaCoches[i].nivel */\n      0x07\n      add\n      0x00\n      swap1\n      sload\n      swap1\n      0x0100\n      exp\n      swap1\n      div\n      0xffffffff\n      and\n        /* \"contracts/CarreraCoches/principal.sol\":3276:3287  listaCoches */\n      0x06\n        /* \"contracts/CarreraCoches/principal.sol\":3288:3289  i */\n      dup6\n        /* \"contracts/CarreraCoches/principal.sol\":3276:3290  listaCoches[i] */\n      dup2\n      sload\n      dup2\n      lt\n      tag_304\n      jumpi\n      tag_305\n      tag_88\n      jump\t// in\n    tag_305:\n    tag_304:\n      swap1\n      0x00\n      mstore\n      keccak256(0x00, 0x20)\n      swap1\n      0x08\n      mul\n      add\n        /* \"contracts/CarreraCoches/principal.sol\":3276:3306  listaCoches[i].carrerasGanadas */\n      0x04\n      add\n      sload\n        /* \"contracts/CarreraCoches/principal.sol\":3308:3319  listaCoches */\n      0x06\n        /* \"contracts/CarreraCoches/principal.sol\":3320:3321  i */\n      dup7\n        /* \"contracts/CarreraCoches/principal.sol\":3308:3322  listaCoches[i] */\n      dup2\n      sload\n      dup2\n      lt\n      tag_307\n      jumpi\n      tag_308\n      tag_88\n      jump\t// in\n    tag_308:\n    tag_307:\n      swap1\n      0x00\n      mstore\n      keccak256(0x00, 0x20)\n      swap1\n      0x08\n      mul\n      add\n        /* \"contracts/CarreraCoches/principal.sol\":3308:3338  listaCoches[i].carrerasTotales */\n      0x05\n      add\n      sload\n        /* \"contracts/CarreraCoches/principal.sol\":3192:3339  cochePropietario(listaCoches[i].marca, listaCoches[i].modelo, listaCoches[i].nivel, listaCoches[i].carrerasGanadas, listaCoches[i].carrerasTotales) */\n      mload(0x40)\n      tag_310\n      swap6\n      swap5\n      swap4\n      swap3\n      swap2\n      swap1\n      tag_311\n      jump\t// in\n    tag_310:\n      mload(0x40)\n      dup1\n      swap2\n      sub\n      swap1\n      log1\n        /* \"contracts/CarreraCoches/principal.sol\":3127:3355  if(listaCoches[i].idPiloto==_propietario){\r... */\n    tag_294:\n        /* \"contracts/CarreraCoches/principal.sol\":3108:3111  i++ */\n      dup1\n      dup1\n      tag_312\n      swap1\n      tag_101\n      jump\t// in\n    tag_312:\n      swap2\n      pop\n      pop\n        /* \"contracts/CarreraCoches/principal.sol\":3068:3366  for(uint i = 0; i < listaCoches.length; i++){\r... */\n      jump(tag_288)\n    tag_289:\n      pop\n        /* \"contracts/CarreraCoches/principal.sol\":2997:3373  function verCochePropietario(address _propietario) external {\r... */\n      pop\n      jump\t// out\n        /* \"contracts/CarreraCoches/ownable.sol\":1977:2178  function transferOwnership(address newOwner) public virtual onlyOwner {\r... */\n    tag_79:\n        /* \"contracts/CarreraCoches/ownable.sol\":1299:1311  _msgSender() */\n      tag_314\n        /* \"contracts/CarreraCoches/ownable.sol\":1299:1309  _msgSender */\n      tag_260\n        /* \"contracts/CarreraCoches/ownable.sol\":1299:1311  _msgSender() */\n      jump\t// in\n    tag_314:\n        /* \"contracts/CarreraCoches/ownable.sol\":1288:1311  owner() == _msgSender() */\n      0xffffffffffffffffffffffffffffffffffffffff\n      and\n        /* \"contracts/CarreraCoches/ownable.sol\":1288:1295  owner() */\n      tag_315\n        /* \"contracts/CarreraCoches/ownable.sol\":1288:1293  owner */\n      tag_60\n        /* \"contracts/CarreraCoches/ownable.sol\":1288:1295  owner() */\n      jump\t// in\n    tag_315:\n        /* \"contracts/CarreraCoches/ownable.sol\":1288:1311  owner() == _msgSender() */\n      0xffffffffffffffffffffffffffffffffffffffff\n      and\n      eq\n        /* \"contracts/CarreraCoches/ownable.sol\":1280:1348  require(owner() == _msgSender(), \"Ownable: caller is not the owner\") */\n      tag_316\n      jumpi\n      mload(0x40)\n      0x08c379a000000000000000000000000000000000000000000000000000000000\n      dup2\n      mstore\n      0x04\n      add\n      tag_317\n      swap1\n      tag_264\n      jump\t// in\n    tag_317:\n      mload(0x40)\n      dup1\n      swap2\n      sub\n      swap1\n      revert\n    tag_316:\n        /* \"contracts/CarreraCoches/ownable.sol\":2086:2087  0 */\n      0x00\n        /* \"contracts/CarreraCoches/ownable.sol\":2066:2088  newOwner != address(0) */\n      0xffffffffffffffffffffffffffffffffffffffff\n      and\n        /* \"contracts/CarreraCoches/ownable.sol\":2066:2074  newOwner */\n      dup2\n        /* \"contracts/CarreraCoches/ownable.sol\":2066:2088  newOwner != address(0) */\n      0xffffffffffffffffffffffffffffffffffffffff\n      and\n      eq\n      iszero\n        /* \"contracts/CarreraCoches/ownable.sol\":2058:2131  require(newOwner != address(0), \"Ownable: new owner is the zero address\") */\n      tag_319\n      jumpi\n      mload(0x40)\n      0x08c379a000000000000000000000000000000000000000000000000000000000\n      dup2\n      mstore\n      0x04\n      add\n      tag_320\n      swap1\n      tag_321\n      jump\t// in\n    tag_320:\n      mload(0x40)\n      dup1\n      swap2\n      sub\n      swap1\n      revert\n    tag_319:\n        /* \"contracts/CarreraCoches/ownable.sol\":2142:2170  _transferOwnership(newOwner) */\n      tag_322\n        /* \"contracts/CarreraCoches/ownable.sol\":2161:2169  newOwner */\n      dup2\n        /* \"contracts/CarreraCoches/ownable.sol\":2142:2160  _transferOwnership */\n      tag_267\n        /* \"contracts/CarreraCoches/ownable.sol\":2142:2170  _transferOwnership(newOwner) */\n      jump\t// in\n    tag_322:\n        /* \"contracts/CarreraCoches/ownable.sol\":1977:2178  function transferOwnership(address newOwner) public virtual onlyOwner {\r... */\n      pop\n      jump\t// out\n        /* \"contracts/CarreraCoches/principal.sol\":2330:2457  function _repostando(Coche storage _coche) internal {\r... */\n    tag_190:\n        /* \"contracts/CarreraCoches/principal.sol\":2440:2448  cooldown */\n      sload(0x03)\n        /* \"contracts/CarreraCoches/principal.sol\":2422:2437  block.timestamp */\n      timestamp\n        /* \"contracts/CarreraCoches/principal.sol\":2422:2448  block.timestamp + cooldown */\n      tag_324\n      swap2\n      swap1\n      tag_133\n      jump\t// in\n    tag_324:\n        /* \"contracts/CarreraCoches/principal.sol\":2393:2449  _coche.tiempoEspera = uint32(block.timestamp + cooldown) */\n      0xffffffff\n      and\n        /* \"contracts/CarreraCoches/principal.sol\":2393:2399  _coche */\n      dup2\n        /* \"contracts/CarreraCoches/principal.sol\":2393:2412  _coche.tiempoEspera */\n      0x06\n      add\n        /* \"contracts/CarreraCoches/principal.sol\":2393:2449  _coche.tiempoEspera = uint32(block.timestamp + cooldown) */\n      dup2\n      swap1\n      sstore\n      pop\n        /* \"contracts/CarreraCoches/principal.sol\":2330:2457  function _repostando(Coche storage _coche) internal {\r... */\n      pop\n      jump\t// out\n        /* \"contracts/CarreraCoches/principal.sol\":7638:7736  function balance() private {\r... */\n    tag_200:\n        /* \"contracts/CarreraCoches/principal.sol\":7685:7695  msg.sender */\n      caller\n        /* \"contracts/CarreraCoches/principal.sol\":7676:7705  payable (msg.sender).transfer */\n      0xffffffffffffffffffffffffffffffffffffffff\n      and\n        /* \"contracts/CarreraCoches/principal.sol\":7676:7728  payable (msg.sender).transfer(address(this).balance) */\n      0x08fc\n        /* \"contracts/CarreraCoches/principal.sol\":7706:7727  address(this).balance */\n      selfbalance\n        /* \"contracts/CarreraCoches/principal.sol\":7676:7728  payable (msg.sender).transfer(address(this).balance) */\n      swap1\n      dup2\n      iszero\n      mul\n      swap1\n      mload(0x40)\n      0x00\n      mload(0x40)\n      dup1\n      dup4\n      sub\n      dup2\n      dup6\n      dup9\n      dup9\n      call\n      swap4\n      pop\n      pop\n      pop\n      pop\n      iszero\n      dup1\n      iszero\n      tag_327\n      jumpi\n      returndatasize\n      0x00\n      dup1\n      returndatacopy\n      revert(0x00, returndatasize)\n    tag_327:\n      pop\n        /* \"contracts/CarreraCoches/principal.sol\":7638:7736  function balance() private {\r... */\n      jump\t// out\n        /* \"contracts/CarreraCoches/utils/Context.sol\":656:754  function _msgSender() internal view virtual returns (address) {\r... */\n    tag_260:\n        /* \"contracts/CarreraCoches/utils/Context.sol\":709:716  address */\n      0x00\n        /* \"contracts/CarreraCoches/utils/Context.sol\":736:746  msg.sender */\n      caller\n        /* \"contracts/CarreraCoches/utils/Context.sol\":729:746  return msg.sender */\n      swap1\n      pop\n        /* \"contracts/CarreraCoches/utils/Context.sol\":656:754  function _msgSender() internal view virtual returns (address) {\r... */\n      swap1\n      jump\t// out\n        /* \"contracts/CarreraCoches/ownable.sol\":2338:2529  function _transferOwnership(address newOwner) internal virtual {\r... */\n    tag_267:\n        /* \"contracts/CarreraCoches/ownable.sol\":2412:2428  address oldOwner */\n      0x00\n        /* \"contracts/CarreraCoches/ownable.sol\":2431:2437  _owner */\n      dup1\n      0x00\n      swap1\n      sload\n      swap1\n      0x0100\n      exp\n      swap1\n      div\n      0xffffffffffffffffffffffffffffffffffffffff\n      and\n        /* \"contracts/CarreraCoches/ownable.sol\":2412:2437  address oldOwner = _owner */\n      swap1\n      pop\n        /* \"contracts/CarreraCoches/ownable.sol\":2457:2465  newOwner */\n      dup2\n        /* \"contracts/CarreraCoches/ownable.sol\":2448:2454  _owner */\n      0x00\n      dup1\n        /* \"contracts/CarreraCoches/ownable.sol\":2448:2465  _owner = newOwner */\n      0x0100\n      exp\n      dup2\n      sload\n      dup2\n      0xffffffffffffffffffffffffffffffffffffffff\n      mul\n      not\n      and\n      swap1\n      dup4\n      0xffffffffffffffffffffffffffffffffffffffff\n      and\n      mul\n      or\n      swap1\n      sstore\n      pop\n        /* \"contracts/CarreraCoches/ownable.sol\":2512:2520  newOwner */\n      dup2\n        /* \"contracts/CarreraCoches/ownable.sol\":2481:2521  OwnershipTransferred(oldOwner, newOwner) */\n      0xffffffffffffffffffffffffffffffffffffffff\n      and\n        /* \"contracts/CarreraCoches/ownable.sol\":2502:2510  oldOwner */\n      dup2\n        /* \"contracts/CarreraCoches/ownable.sol\":2481:2521  OwnershipTransferred(oldOwner, newOwner) */\n      0xffffffffffffffffffffffffffffffffffffffff\n      and\n      0x8be0079c531659141344cd1fd0a4f28419497f9722a3daafe3b4186f6b6457e0\n      mload(0x40)\n      mload(0x40)\n      dup1\n      swap2\n      sub\n      swap1\n      log3\n        /* \"contracts/CarreraCoches/ownable.sol\":2401:2529  {\r... */\n      pop\n        /* \"contracts/CarreraCoches/ownable.sol\":2338:2529  function _transferOwnership(address newOwner) internal virtual {\r... */\n      pop\n      jump\t// out\n    tag_95:\n      dup3\n      dup1\n      sload\n      tag_330\n      swap1\n      tag_272\n      jump\t// in\n    tag_330:\n      swap1\n      0x00\n      mstore\n      keccak256(0x00, 0x20)\n      swap1\n      0x1f\n      add\n      0x20\n      swap1\n      div\n      dup2\n      add\n      swap3\n      dup3\n      tag_332\n      jumpi\n      0x00\n      dup6\n      sstore\n      jump(tag_331)\n    tag_332:\n      dup3\n      0x1f\n      lt\n      tag_333\n      jumpi\n      dup1\n      mload\n      not(0xff)\n      and\n      dup4\n      dup1\n      add\n      or\n      dup6\n      sstore\n      jump(tag_331)\n    tag_333:\n      dup3\n      dup1\n      add\n      0x01\n      add\n      dup6\n      sstore\n      dup3\n      iszero\n      tag_331\n      jumpi\n      swap2\n      dup3\n      add\n    tag_334:\n      dup3\n      dup2\n      gt\n      iszero\n      tag_335\n      jumpi\n      dup3\n      mload\n      dup3\n      sstore\n      swap2\n      0x20\n      add\n      swap2\n      swap1\n      0x01\n      add\n      swap1\n      jump(tag_334)\n    tag_335:\n    tag_331:\n      pop\n      swap1\n      pop\n      tag_336\n      swap2\n      swap1\n      tag_337\n      jump\t// in\n    tag_336:\n      pop\n      swap1\n      jump\t// out\n    tag_123:\n      pop\n      dup1\n      sload\n      tag_338\n      swap1\n      tag_272\n      jump\t// in\n    tag_338:\n      0x00\n      dup3\n      sstore\n      dup1\n      0x1f\n      lt\n      tag_340\n      jumpi\n      pop\n      jump(tag_339)\n    tag_340:\n      0x1f\n      add\n      0x20\n      swap1\n      div\n      swap1\n      0x00\n      mstore\n      keccak256(0x00, 0x20)\n      swap1\n      dup2\n      add\n      swap1\n      tag_341\n      swap2\n      swap1\n      tag_337\n      jump\t// in\n    tag_341:\n    tag_339:\n      pop\n      jump\t// out\n    tag_337:\n    tag_342:\n      dup1\n      dup3\n      gt\n      iszero\n      tag_343\n      jumpi\n      0x00\n      dup2\n      0x00\n      swap1\n      sstore\n      pop\n      0x01\n      add\n      jump(tag_342)\n    tag_343:\n      pop\n      swap1\n      jump\t// out\n        /* \"#utility.yul\":7:419   */\n    tag_345:\n        /* \"#utility.yul\":85:90   */\n      0x00\n        /* \"#utility.yul\":110:176   */\n      tag_347\n        /* \"#utility.yul\":126:175   */\n      tag_348\n        /* \"#utility.yul\":168:174   */\n      dup5\n        /* \"#utility.yul\":126:175   */\n      tag_349\n      jump\t// in\n    tag_348:\n        /* \"#utility.yul\":110:176   */\n      tag_350\n      jump\t// in\n    tag_347:\n        /* \"#utility.yul\":101:176   */\n      swap1\n      pop\n        /* \"#utility.yul\":199:205   */\n      dup3\n        /* \"#utility.yul\":192:197   */\n      dup2\n        /* \"#utility.yul\":185:206   */\n      mstore\n        /* \"#utility.yul\":237:241   */\n      0x20\n        /* \"#utility.yul\":230:235   */\n      dup2\n        /* \"#utility.yul\":226:242   */\n      add\n        /* \"#utility.yul\":275:278   */\n      dup5\n        /* \"#utility.yul\":266:272   */\n      dup5\n        /* \"#utility.yul\":261:264   */\n      dup5\n        /* \"#utility.yul\":257:273   */\n      add\n        /* \"#utility.yul\":254:279   */\n      gt\n        /* \"#utility.yul\":251:363   */\n      iszero\n      tag_351\n      jumpi\n        /* \"#utility.yul\":282:361   */\n      tag_352\n      tag_353\n      jump\t// in\n    tag_352:\n        /* \"#utility.yul\":251:363   */\n    tag_351:\n        /* \"#utility.yul\":372:413   */\n      tag_354\n        /* \"#utility.yul\":406:412   */\n      dup5\n        /* \"#utility.yul\":401:404   */\n      dup3\n        /* \"#utility.yul\":396:399   */\n      dup6\n        /* \"#utility.yul\":372:413   */\n      tag_355\n      jump\t// in\n    tag_354:\n        /* \"#utility.yul\":91:419   */\n      pop\n        /* \"#utility.yul\":7:419   */\n      swap4\n      swap3\n      pop\n      pop\n      pop\n      jump\t// out\n        /* \"#utility.yul\":425:564   */\n    tag_356:\n        /* \"#utility.yul\":471:476   */\n      0x00\n        /* \"#utility.yul\":509:515   */\n      dup2\n        /* \"#utility.yul\":496:516   */\n      calldataload\n        /* \"#utility.yul\":487:516   */\n      swap1\n      pop\n        /* \"#utility.yul\":525:558   */\n      tag_358\n        /* \"#utility.yul\":552:557   */\n      dup2\n        /* \"#utility.yul\":525:558   */\n      tag_359\n      jump\t// in\n    tag_358:\n        /* \"#utility.yul\":425:564   */\n      swap3\n      swap2\n      pop\n      pop\n      jump\t// out\n        /* \"#utility.yul\":584:924   */\n    tag_360:\n        /* \"#utility.yul\":640:645   */\n      0x00\n        /* \"#utility.yul\":689:692   */\n      dup3\n        /* \"#utility.yul\":682:686   */\n      0x1f\n        /* \"#utility.yul\":674:680   */\n      dup4\n        /* \"#utility.yul\":670:687   */\n      add\n        /* \"#utility.yul\":666:693   */\n      slt\n        /* \"#utility.yul\":656:778   */\n      tag_362\n      jumpi\n        /* \"#utility.yul\":697:776   */\n      tag_363\n      tag_364\n      jump\t// in\n    tag_363:\n        /* \"#utility.yul\":656:778   */\n    tag_362:\n        /* \"#utility.yul\":814:820   */\n      dup2\n        /* \"#utility.yul\":801:821   */\n      calldataload\n        /* \"#utility.yul\":839:918   */\n      tag_365\n        /* \"#utility.yul\":914:917   */\n      dup5\n        /* \"#utility.yul\":906:912   */\n      dup3\n        /* \"#utility.yul\":899:903   */\n      0x20\n        /* \"#utility.yul\":891:897   */\n      dup7\n        /* \"#utility.yul\":887:904   */\n      add\n        /* \"#utility.yul\":839:918   */\n      tag_345\n      jump\t// in\n    tag_365:\n        /* \"#utility.yul\":830:918   */\n      swap2\n      pop\n        /* \"#utility.yul\":646:924   */\n      pop\n        /* \"#utility.yul\":584:924   */\n      swap3\n      swap2\n      pop\n      pop\n      jump\t// out\n        /* \"#utility.yul\":930:1069   */\n    tag_366:\n        /* \"#utility.yul\":976:981   */\n      0x00\n        /* \"#utility.yul\":1014:1020   */\n      dup2\n        /* \"#utility.yul\":1001:1021   */\n      calldataload\n        /* \"#utility.yul\":992:1021   */\n      swap1\n      pop\n        /* \"#utility.yul\":1030:1063   */\n      tag_368\n        /* \"#utility.yul\":1057:1062   */\n      dup2\n        /* \"#utility.yul\":1030:1063   */\n      tag_369\n      jump\t// in\n    tag_368:\n        /* \"#utility.yul\":930:1069   */\n      swap3\n      swap2\n      pop\n      pop\n      jump\t// out\n        /* \"#utility.yul\":1075:1404   */\n    tag_26:\n        /* \"#utility.yul\":1134:1140   */\n      0x00\n        /* \"#utility.yul\":1183:1185   */\n      0x20\n        /* \"#utility.yul\":1171:1180   */\n      dup3\n        /* \"#utility.yul\":1162:1169   */\n      dup5\n        /* \"#utility.yul\":1158:1181   */\n      sub\n        /* \"#utility.yul\":1154:1186   */\n      slt\n        /* \"#utility.yul\":1151:1270   */\n      iszero\n      tag_371\n      jumpi\n        /* \"#utility.yul\":1189:1268   */\n      tag_372\n      tag_373\n      jump\t// in\n    tag_372:\n        /* \"#utility.yul\":1151:1270   */\n    tag_371:\n        /* \"#utility.yul\":1309:1310   */\n      0x00\n        /* \"#utility.yul\":1334:1387   */\n      tag_374\n        /* \"#utility.yul\":1379:1386   */\n      dup5\n        /* \"#utility.yul\":1370:1376   */\n      dup3\n        /* \"#utility.yul\":1359:1368   */\n      dup6\n        /* \"#utility.yul\":1355:1377   */\n      add\n        /* \"#utility.yul\":1334:1387   */\n      tag_356\n      jump\t// in\n    tag_374:\n        /* \"#utility.yul\":1324:1387   */\n      swap2\n      pop\n        /* \"#utility.yul\":1280:1397   */\n      pop\n        /* \"#utility.yul\":1075:1404   */\n      swap3\n      swap2\n      pop\n      pop\n      jump\t// out\n        /* \"#utility.yul\":1410:2389   */\n    tag_19:\n        /* \"#utility.yul\":1507:1513   */\n      0x00\n        /* \"#utility.yul\":1515:1521   */\n      dup1\n        /* \"#utility.yul\":1523:1529   */\n      0x00\n        /* \"#utility.yul\":1572:1574   */\n      0x60\n        /* \"#utility.yul\":1560:1569   */\n      dup5\n        /* \"#utility.yul\":1551:1558   */\n      dup7\n        /* \"#utility.yul\":1547:1570   */\n      sub\n        /* \"#utility.yul\":1543:1575   */\n      slt\n        /* \"#utility.yul\":1540:1659   */\n      iszero\n      tag_376\n      jumpi\n        /* \"#utility.yul\":1578:1657   */\n      tag_377\n      tag_373\n      jump\t// in\n    tag_377:\n        /* \"#utility.yul\":1540:1659   */\n    tag_376:\n        /* \"#utility.yul\":1698:1699   */\n      0x00\n        /* \"#utility.yul\":1723:1776   */\n      tag_378\n        /* \"#utility.yul\":1768:1775   */\n      dup7\n        /* \"#utility.yul\":1759:1765   */\n      dup3\n        /* \"#utility.yul\":1748:1757   */\n      dup8\n        /* \"#utility.yul\":1744:1766   */\n      add\n        /* \"#utility.yul\":1723:1776   */\n      tag_356\n      jump\t// in\n    tag_378:\n        /* \"#utility.yul\":1713:1776   */\n      swap4\n      pop\n        /* \"#utility.yul\":1669:1786   */\n      pop\n        /* \"#utility.yul\":1853:1855   */\n      0x20\n        /* \"#utility.yul\":1842:1851   */\n      dup5\n        /* \"#utility.yul\":1838:1856   */\n      add\n        /* \"#utility.yul\":1825:1857   */\n      calldataload\n        /* \"#utility.yul\":1884:1902   */\n      0xffffffffffffffff\n        /* \"#utility.yul\":1876:1882   */\n      dup2\n        /* \"#utility.yul\":1873:1903   */\n      gt\n        /* \"#utility.yul\":1870:1987   */\n      iszero\n      tag_379\n      jumpi\n        /* \"#utility.yul\":1906:1985   */\n      tag_380\n      tag_381\n      jump\t// in\n    tag_380:\n        /* \"#utility.yul\":1870:1987   */\n    tag_379:\n        /* \"#utility.yul\":2011:2074   */\n      tag_382\n        /* \"#utility.yul\":2066:2073   */\n      dup7\n        /* \"#utility.yul\":2057:2063   */\n      dup3\n        /* \"#utility.yul\":2046:2055   */\n      dup8\n        /* \"#utility.yul\":2042:2064   */\n      add\n        /* \"#utility.yul\":2011:2074   */\n      tag_360\n      jump\t// in\n    tag_382:\n        /* \"#utility.yul\":2001:2074   */\n      swap3\n      pop\n        /* \"#utility.yul\":1796:2084   */\n      pop\n        /* \"#utility.yul\":2151:2153   */\n      0x40\n        /* \"#utility.yul\":2140:2149   */\n      dup5\n        /* \"#utility.yul\":2136:2154   */\n      add\n        /* \"#utility.yul\":2123:2155   */\n      calldataload\n        /* \"#utility.yul\":2182:2200   */\n      0xffffffffffffffff\n        /* \"#utility.yul\":2174:2180   */\n      dup2\n        /* \"#utility.yul\":2171:2201   */\n      gt\n        /* \"#utility.yul\":2168:2285   */\n      iszero\n      tag_383\n      jumpi\n        /* \"#utility.yul\":2204:2283   */\n      tag_384\n      tag_381\n      jump\t// in\n    tag_384:\n        /* \"#utility.yul\":2168:2285   */\n    tag_383:\n        /* \"#utility.yul\":2309:2372   */\n      tag_385\n        /* \"#utility.yul\":2364:2371   */\n      dup7\n        /* \"#utility.yul\":2355:2361   */\n      dup3\n        /* \"#utility.yul\":2344:2353   */\n      dup8\n        /* \"#utility.yul\":2340:2362   */\n      add\n        /* \"#utility.yul\":2309:2372   */\n      tag_360\n      jump\t// in\n    tag_385:\n        /* \"#utility.yul\":2299:2372   */\n      swap2\n      pop\n        /* \"#utility.yul\":2094:2382   */\n      pop\n        /* \"#utility.yul\":1410:2389   */\n      swap3\n      pop\n      swap3\n      pop\n      swap3\n      jump\t// out\n        /* \"#utility.yul\":2395:3554   */\n    tag_37:\n        /* \"#utility.yul\":2502:2508   */\n      0x00\n        /* \"#utility.yul\":2510:2516   */\n      dup1\n        /* \"#utility.yul\":2518:2524   */\n      0x00\n        /* \"#utility.yul\":2567:2569   */\n      0x60\n        /* \"#utility.yul\":2555:2564   */\n      dup5\n        /* \"#utility.yul\":2546:2553   */\n      dup7\n        /* \"#utility.yul\":2542:2565   */\n      sub\n        /* \"#utility.yul\":2538:2570   */\n      slt\n        /* \"#utility.yul\":2535:2654   */\n      iszero\n      tag_387\n      jumpi\n        /* \"#utility.yul\":2573:2652   */\n      tag_388\n      tag_373\n      jump\t// in\n    tag_388:\n        /* \"#utility.yul\":2535:2654   */\n    tag_387:\n        /* \"#utility.yul\":2721:2722   */\n      0x00\n        /* \"#utility.yul\":2710:2719   */\n      dup5\n        /* \"#utility.yul\":2706:2723   */\n      add\n        /* \"#utility.yul\":2693:2724   */\n      calldataload\n        /* \"#utility.yul\":2751:2769   */\n      0xffffffffffffffff\n        /* \"#utility.yul\":2743:2749   */\n      dup2\n        /* \"#utility.yul\":2740:2770   */\n      gt\n        /* \"#utility.yul\":2737:2854   */\n      iszero\n      tag_389\n      jumpi\n        /* \"#utility.yul\":2773:2852   */\n      tag_390\n      tag_381\n      jump\t// in\n    tag_390:\n        /* \"#utility.yul\":2737:2854   */\n    tag_389:\n        /* \"#utility.yul\":2878:2941   */\n      tag_391\n        /* \"#utility.yul\":2933:2940   */\n      dup7\n        /* \"#utility.yul\":2924:2930   */\n      dup3\n        /* \"#utility.yul\":2913:2922   */\n      dup8\n        /* \"#utility.yul\":2909:2931   */\n      add\n        /* \"#utility.yul\":2878:2941   */\n      tag_360\n      jump\t// in\n    tag_391:\n        /* \"#utility.yul\":2868:2941   */\n      swap4\n      pop\n        /* \"#utility.yul\":2664:2951   */\n      pop\n        /* \"#utility.yul\":3018:3020   */\n      0x20\n        /* \"#utility.yul\":3007:3016   */\n      dup5\n        /* \"#utility.yul\":3003:3021   */\n      add\n        /* \"#utility.yul\":2990:3022   */\n      calldataload\n        /* \"#utility.yul\":3049:3067   */\n      0xffffffffffffffff\n        /* \"#utility.yul\":3041:3047   */\n      dup2\n        /* \"#utility.yul\":3038:3068   */\n      gt\n        /* \"#utility.yul\":3035:3152   */\n      iszero\n      tag_392\n      jumpi\n        /* \"#utility.yul\":3071:3150   */\n      tag_393\n      tag_381\n      jump\t// in\n    tag_393:\n        /* \"#utility.yul\":3035:3152   */\n    tag_392:\n        /* \"#utility.yul\":3176:3239   */\n      tag_394\n        /* \"#utility.yul\":3231:3238   */\n      dup7\n        /* \"#utility.yul\":3222:3228   */\n      dup3\n        /* \"#utility.yul\":3211:3220   */\n      dup8\n        /* \"#utility.yul\":3207:3229   */\n      add\n        /* \"#utility.yul\":3176:3239   */\n      tag_360\n      jump\t// in\n    tag_394:\n        /* \"#utility.yul\":3166:3239   */\n      swap3\n      pop\n        /* \"#utility.yul\":2961:3249   */\n      pop\n        /* \"#utility.yul\":3316:3318   */\n      0x40\n        /* \"#utility.yul\":3305:3314   */\n      dup5\n        /* \"#utility.yul\":3301:3319   */\n      add\n        /* \"#utility.yul\":3288:3320   */\n      calldataload\n        /* \"#utility.yul\":3347:3365   */\n      0xffffffffffffffff\n        /* \"#utility.yul\":3339:3345   */\n      dup2\n        /* \"#utility.yul\":3336:3366   */\n      gt\n        /* \"#utility.yul\":3333:3450   */\n      iszero\n      tag_395\n      jumpi\n        /* \"#utility.yul\":3369:3448   */\n      tag_396\n      tag_381\n      jump\t// in\n    tag_396:\n        /* \"#utility.yul\":3333:3450   */\n    tag_395:\n        /* \"#utility.yul\":3474:3537   */\n      tag_397\n        /* \"#utility.yul\":3529:3536   */\n      dup7\n        /* \"#utility.yul\":3520:3526   */\n      dup3\n        /* \"#utility.yul\":3509:3518   */\n      dup8\n        /* \"#utility.yul\":3505:3527   */\n      add\n        /* \"#utility.yul\":3474:3537   */\n      tag_360\n      jump\t// in\n    tag_397:\n        /* \"#utility.yul\":3464:3537   */\n      swap2\n      pop\n        /* \"#utility.yul\":3259:3547   */\n      pop\n        /* \"#utility.yul\":2395:3554   */\n      swap3\n      pop\n      swap3\n      pop\n      swap3\n      jump\t// out\n        /* \"#utility.yul\":3560:3889   */\n    tag_46:\n        /* \"#utility.yul\":3619:3625   */\n      0x00\n        /* \"#utility.yul\":3668:3670   */\n      0x20\n        /* \"#utility.yul\":3656:3665   */\n      dup3\n        /* \"#utility.yul\":3647:3654   */\n      dup5\n        /* \"#utility.yul\":3643:3666   */\n      sub\n        /* \"#utility.yul\":3639:3671   */\n      slt\n        /* \"#utility.yul\":3636:3755   */\n      iszero\n      tag_399\n      jumpi\n        /* \"#utility.yul\":3674:3753   */\n      tag_400\n      tag_373\n      jump\t// in\n    tag_400:\n        /* \"#utility.yul\":3636:3755   */\n    tag_399:\n        /* \"#utility.yul\":3794:3795   */\n      0x00\n        /* \"#utility.yul\":3819:3872   */\n      tag_401\n        /* \"#utility.yul\":3864:3871   */\n      dup5\n        /* \"#utility.yul\":3855:3861   */\n      dup3\n        /* \"#utility.yul\":3844:3853   */\n      dup6\n        /* \"#utility.yul\":3840:3862   */\n      add\n        /* \"#utility.yul\":3819:3872   */\n      tag_366\n      jump\t// in\n    tag_401:\n        /* \"#utility.yul\":3809:3872   */\n      swap2\n      pop\n        /* \"#utility.yul\":3765:3882   */\n      pop\n        /* \"#utility.yul\":3560:3889   */\n      swap3\n      swap2\n      pop\n      pop\n      jump\t// out\n        /* \"#utility.yul\":3895:4013   */\n    tag_402:\n        /* \"#utility.yul\":3982:4006   */\n      tag_404\n        /* \"#utility.yul\":4000:4005   */\n      dup2\n        /* \"#utility.yul\":3982:4006   */\n      tag_405\n      jump\t// in\n    tag_404:\n        /* \"#utility.yul\":3977:3980   */\n      dup3\n        /* \"#utility.yul\":3970:4007   */\n      mstore\n        /* \"#utility.yul\":3895:4013   */\n      pop\n      pop\n      jump\t// out\n        /* \"#utility.yul\":4019:4383   */\n    tag_406:\n        /* \"#utility.yul\":4107:4110   */\n      0x00\n        /* \"#utility.yul\":4135:4174   */\n      tag_408\n        /* \"#utility.yul\":4168:4173   */\n      dup3\n        /* \"#utility.yul\":4135:4174   */\n      tag_409\n      jump\t// in\n    tag_408:\n        /* \"#utility.yul\":4190:4261   */\n      tag_410\n        /* \"#utility.yul\":4254:4260   */\n      dup2\n        /* \"#utility.yul\":4249:4252   */\n      dup6\n        /* \"#utility.yul\":4190:4261   */\n      tag_411\n      jump\t// in\n    tag_410:\n        /* \"#utility.yul\":4183:4261   */\n      swap4\n      pop\n        /* \"#utility.yul\":4270:4322   */\n      tag_412\n        /* \"#utility.yul\":4315:4321   */\n      dup2\n        /* \"#utility.yul\":4310:4313   */\n      dup6\n        /* \"#utility.yul\":4303:4307   */\n      0x20\n        /* \"#utility.yul\":4296:4301   */\n      dup7\n        /* \"#utility.yul\":4292:4308   */\n      add\n        /* \"#utility.yul\":4270:4322   */\n      tag_413\n      jump\t// in\n    tag_412:\n        /* \"#utility.yul\":4347:4376   */\n      tag_414\n        /* \"#utility.yul\":4369:4375   */\n      dup2\n        /* \"#utility.yul\":4347:4376   */\n      tag_415\n      jump\t// in\n    tag_414:\n        /* \"#utility.yul\":4342:4345   */\n      dup5\n        /* \"#utility.yul\":4338:4377   */\n      add\n        /* \"#utility.yul\":4331:4377   */\n      swap2\n      pop\n        /* \"#utility.yul\":4111:4383   */\n      pop\n        /* \"#utility.yul\":4019:4383   */\n      swap3\n      swap2\n      pop\n      pop\n      jump\t// out\n        /* \"#utility.yul\":4413:5215   */\n    tag_416:\n        /* \"#utility.yul\":4498:4501   */\n      0x00\n        /* \"#utility.yul\":4535:4540   */\n      dup2\n        /* \"#utility.yul\":4529:4541   */\n      sload\n        /* \"#utility.yul\":4564:4600   */\n      tag_418\n        /* \"#utility.yul\":4590:4599   */\n      dup2\n        /* \"#utility.yul\":4564:4600   */\n      tag_272\n      jump\t// in\n    tag_418:\n        /* \"#utility.yul\":4616:4687   */\n      tag_419\n        /* \"#utility.yul\":4680:4686   */\n      dup2\n        /* \"#utility.yul\":4675:4678   */\n      dup7\n        /* \"#utility.yul\":4616:4687   */\n      tag_411\n      jump\t// in\n    tag_419:\n        /* \"#utility.yul\":4609:4687   */\n      swap5\n      pop\n        /* \"#utility.yul\":4718:4719   */\n      0x01\n        /* \"#utility.yul\":4707:4716   */\n      dup3\n        /* \"#utility.yul\":4703:4720   */\n      and\n        /* \"#utility.yul\":4734:4735   */\n      0x00\n        /* \"#utility.yul\":4729:4864   */\n      dup2\n      eq\n      tag_421\n      jumpi\n        /* \"#utility.yul\":4878:4879   */\n      0x01\n        /* \"#utility.yul\":4873:5209   */\n      dup2\n      eq\n      tag_422\n      jumpi\n        /* \"#utility.yul\":4696:5209   */\n      jump(tag_420)\n        /* \"#utility.yul\":4729:4864   */\n    tag_421:\n        /* \"#utility.yul\":4813:4817   */\n      0xff\n        /* \"#utility.yul\":4809:4818   */\n      not\n        /* \"#utility.yul\":4798:4807   */\n      dup4\n        /* \"#utility.yul\":4794:4819   */\n      and\n        /* \"#utility.yul\":4789:4792   */\n      dup7\n        /* \"#utility.yul\":4782:4820   */\n      mstore\n        /* \"#utility.yul\":4849:4853   */\n      0x20\n        /* \"#utility.yul\":4844:4847   */\n      dup7\n        /* \"#utility.yul\":4840:4854   */\n      add\n        /* \"#utility.yul\":4833:4854   */\n      swap4\n      pop\n        /* \"#utility.yul\":4729:4864   */\n      jump(tag_420)\n        /* \"#utility.yul\":4873:5209   */\n    tag_422:\n        /* \"#utility.yul\":4940:4978   */\n      tag_423\n        /* \"#utility.yul\":4972:4977   */\n      dup6\n        /* \"#utility.yul\":4940:4978   */\n      tag_424\n      jump\t// in\n    tag_423:\n        /* \"#utility.yul\":5000:5001   */\n      0x00\n        /* \"#utility.yul\":5014:5168   */\n    tag_425:\n        /* \"#utility.yul\":5028:5034   */\n      dup4\n        /* \"#utility.yul\":5025:5026   */\n      dup2\n        /* \"#utility.yul\":5022:5035   */\n      lt\n        /* \"#utility.yul\":5014:5168   */\n      iszero\n      tag_427\n      jumpi\n        /* \"#utility.yul\":5102:5109   */\n      dup2\n        /* \"#utility.yul\":5096:5110   */\n      sload\n        /* \"#utility.yul\":5092:5093   */\n      dup2\n        /* \"#utility.yul\":5087:5090   */\n      dup10\n        /* \"#utility.yul\":5083:5094   */\n      add\n        /* \"#utility.yul\":5076:5111   */\n      mstore\n        /* \"#utility.yul\":5152:5153   */\n      0x01\n        /* \"#utility.yul\":5143:5150   */\n      dup3\n        /* \"#utility.yul\":5139:5154   */\n      add\n        /* \"#utility.yul\":5128:5154   */\n      swap2\n      pop\n        /* \"#utility.yul\":5050:5054   */\n      0x20\n        /* \"#utility.yul\":5047:5048   */\n      dup2\n        /* \"#utility.yul\":5043:5055   */\n      add\n        /* \"#utility.yul\":5038:5055   */\n      swap1\n      pop\n        /* \"#utility.yul\":5014:5168   */\n      jump(tag_425)\n    tag_427:\n        /* \"#utility.yul\":5197:5198   */\n      dup1\n        /* \"#utility.yul\":5192:5195   */\n      dup9\n        /* \"#utility.yul\":5188:5199   */\n      add\n        /* \"#utility.yul\":5181:5199   */\n      swap6\n      pop\n        /* \"#utility.yul\":4880:5209   */\n      pop\n      pop\n        /* \"#utility.yul\":4696:5209   */\n    tag_420:\n      pop\n        /* \"#utility.yul\":4502:5215   */\n      pop\n      pop\n        /* \"#utility.yul\":4413:5215   */\n      swap3\n      swap2\n      pop\n      pop\n      jump\t// out\n        /* \"#utility.yul\":5221:5587   */\n    tag_428:\n        /* \"#utility.yul\":5363:5366   */\n      0x00\n        /* \"#utility.yul\":5384:5451   */\n      tag_430\n        /* \"#utility.yul\":5448:5450   */\n      0x28\n        /* \"#utility.yul\":5443:5446   */\n      dup4\n        /* \"#utility.yul\":5384:5451   */\n      tag_411\n      jump\t// in\n    tag_430:\n        /* \"#utility.yul\":5377:5451   */\n      swap2\n      pop\n        /* \"#utility.yul\":5460:5553   */\n      tag_431\n        /* \"#utility.yul\":5549:5552   */\n      dup3\n        /* \"#utility.yul\":5460:5553   */\n      tag_432\n      jump\t// in\n    tag_431:\n        /* \"#utility.yul\":5578:5580   */\n      0x40\n        /* \"#utility.yul\":5573:5576   */\n      dup3\n        /* \"#utility.yul\":5569:5581   */\n      add\n        /* \"#utility.yul\":5562:5581   */\n      swap1\n      pop\n        /* \"#utility.yul\":5221:5587   */\n      swap2\n      swap1\n      pop\n      jump\t// out\n        /* \"#utility.yul\":5593:5959   */\n    tag_433:\n        /* \"#utility.yul\":5735:5738   */\n      0x00\n        /* \"#utility.yul\":5756:5823   */\n      tag_435\n        /* \"#utility.yul\":5820:5822   */\n      0x26\n        /* \"#utility.yul\":5815:5818   */\n      dup4\n        /* \"#utility.yul\":5756:5823   */\n      tag_411\n      jump\t// in\n    tag_435:\n        /* \"#utility.yul\":5749:5823   */\n      swap2\n      pop\n        /* \"#utility.yul\":5832:5925   */\n      tag_436\n        /* \"#utility.yul\":5921:5924   */\n      dup3\n        /* \"#utility.yul\":5832:5925   */\n      tag_437\n      jump\t// in\n    tag_436:\n        /* \"#utility.yul\":5950:5952   */\n      0x40\n        /* \"#utility.yul\":5945:5948   */\n      dup3\n        /* \"#utility.yul\":5941:5953   */\n      add\n        /* \"#utility.yul\":5934:5953   */\n      swap1\n      pop\n        /* \"#utility.yul\":5593:5959   */\n      swap2\n      swap1\n      pop\n      jump\t// out\n        /* \"#utility.yul\":5965:6331   */\n    tag_438:\n        /* \"#utility.yul\":6107:6110   */\n      0x00\n        /* \"#utility.yul\":6128:6195   */\n      tag_440\n        /* \"#utility.yul\":6192:6194   */\n      0x32\n        /* \"#utility.yul\":6187:6190   */\n      dup4\n        /* \"#utility.yul\":6128:6195   */\n      tag_411\n      jump\t// in\n    tag_440:\n        /* \"#utility.yul\":6121:6195   */\n      swap2\n      pop\n        /* \"#utility.yul\":6204:6297   */\n      tag_441\n        /* \"#utility.yul\":6293:6296   */\n      dup3\n        /* \"#utility.yul\":6204:6297   */\n      tag_442\n      jump\t// in\n    tag_441:\n        /* \"#utility.yul\":6322:6324   */\n      0x40\n        /* \"#utility.yul\":6317:6320   */\n      dup3\n        /* \"#utility.yul\":6313:6325   */\n      add\n        /* \"#utility.yul\":6306:6325   */\n      swap1\n      pop\n        /* \"#utility.yul\":5965:6331   */\n      swap2\n      swap1\n      pop\n      jump\t// out\n        /* \"#utility.yul\":6337:6703   */\n    tag_443:\n        /* \"#utility.yul\":6479:6482   */\n      0x00\n        /* \"#utility.yul\":6500:6567   */\n      tag_445\n        /* \"#utility.yul\":6564:6566   */\n      0x20\n        /* \"#utility.yul\":6559:6562   */\n      dup4\n        /* \"#utility.yul\":6500:6567   */\n      tag_411\n      jump\t// in\n    tag_445:\n        /* \"#utility.yul\":6493:6567   */\n      swap2\n      pop\n        /* \"#utility.yul\":6576:6669   */\n      tag_446\n        /* \"#utility.yul\":6665:6668   */\n      dup3\n        /* \"#utility.yul\":6576:6669   */\n      tag_447\n      jump\t// in\n    tag_446:\n        /* \"#utility.yul\":6694:6696   */\n      0x20\n        /* \"#utility.yul\":6689:6692   */\n      dup3\n        /* \"#utility.yul\":6685:6697   */\n      add\n        /* \"#utility.yul\":6678:6697   */\n      swap1\n      pop\n        /* \"#utility.yul\":6337:6703   */\n      swap2\n      swap1\n      pop\n      jump\t// out\n        /* \"#utility.yul\":6709:7075   */\n    tag_448:\n        /* \"#utility.yul\":6851:6854   */\n      0x00\n        /* \"#utility.yul\":6872:6939   */\n      tag_450\n        /* \"#utility.yul\":6936:6938   */\n      0x15\n        /* \"#utility.yul\":6931:6934   */\n      dup4\n        /* \"#utility.yul\":6872:6939   */\n      tag_411\n      jump\t// in\n    tag_450:\n        /* \"#utility.yul\":6865:6939   */\n      swap2\n      pop\n        /* \"#utility.yul\":6948:7041   */\n      tag_451\n        /* \"#utility.yul\":7037:7040   */\n      dup3\n        /* \"#utility.yul\":6948:7041   */\n      tag_452\n      jump\t// in\n    tag_451:\n        /* \"#utility.yul\":7066:7068   */\n      0x20\n        /* \"#utility.yul\":7061:7064   */\n      dup3\n        /* \"#utility.yul\":7057:7069   */\n      add\n        /* \"#utility.yul\":7050:7069   */\n      swap1\n      pop\n        /* \"#utility.yul\":6709:7075   */\n      swap2\n      swap1\n      pop\n      jump\t// out\n        /* \"#utility.yul\":7081:7199   */\n    tag_453:\n        /* \"#utility.yul\":7168:7192   */\n      tag_455\n        /* \"#utility.yul\":7186:7191   */\n      dup2\n        /* \"#utility.yul\":7168:7192   */\n      tag_456\n      jump\t// in\n    tag_455:\n        /* \"#utility.yul\":7163:7166   */\n      dup3\n        /* \"#utility.yul\":7156:7193   */\n      mstore\n        /* \"#utility.yul\":7081:7199   */\n      pop\n      pop\n      jump\t// out\n        /* \"#utility.yul\":7205:7362   */\n    tag_457:\n        /* \"#utility.yul\":7310:7355   */\n      tag_459\n        /* \"#utility.yul\":7330:7354   */\n      tag_460\n        /* \"#utility.yul\":7348:7353   */\n      dup3\n        /* \"#utility.yul\":7330:7354   */\n      tag_456\n      jump\t// in\n    tag_460:\n        /* \"#utility.yul\":7310:7355   */\n      tag_461\n      jump\t// in\n    tag_459:\n        /* \"#utility.yul\":7305:7308   */\n      dup3\n        /* \"#utility.yul\":7298:7356   */\n      mstore\n        /* \"#utility.yul\":7205:7362   */\n      pop\n      pop\n      jump\t// out\n        /* \"#utility.yul\":7368:7483   */\n    tag_462:\n        /* \"#utility.yul\":7453:7476   */\n      tag_464\n        /* \"#utility.yul\":7470:7475   */\n      dup2\n        /* \"#utility.yul\":7453:7476   */\n      tag_465\n      jump\t// in\n    tag_464:\n        /* \"#utility.yul\":7448:7451   */\n      dup3\n        /* \"#utility.yul\":7441:7477   */\n      mstore\n        /* \"#utility.yul\":7368:7483   */\n      pop\n      pop\n      jump\t// out\n        /* \"#utility.yul\":7489:8027   */\n    tag_165:\n        /* \"#utility.yul\":7657:7660   */\n      0x00\n        /* \"#utility.yul\":7672:7747   */\n      tag_467\n        /* \"#utility.yul\":7743:7746   */\n      dup3\n        /* \"#utility.yul\":7734:7740   */\n      dup7\n        /* \"#utility.yul\":7672:7747   */\n      tag_457\n      jump\t// in\n    tag_467:\n        /* \"#utility.yul\":7772:7774   */\n      0x20\n        /* \"#utility.yul\":7767:7770   */\n      dup3\n        /* \"#utility.yul\":7763:7775   */\n      add\n        /* \"#utility.yul\":7756:7775   */\n      swap2\n      pop\n        /* \"#utility.yul\":7785:7860   */\n      tag_468\n        /* \"#utility.yul\":7856:7859   */\n      dup3\n        /* \"#utility.yul\":7847:7853   */\n      dup6\n        /* \"#utility.yul\":7785:7860   */\n      tag_457\n      jump\t// in\n    tag_468:\n        /* \"#utility.yul\":7885:7887   */\n      0x20\n        /* \"#utility.yul\":7880:7883   */\n      dup3\n        /* \"#utility.yul\":7876:7888   */\n      add\n        /* \"#utility.yul\":7869:7888   */\n      swap2\n      pop\n        /* \"#utility.yul\":7898:7973   */\n      tag_469\n        /* \"#utility.yul\":7969:7972   */\n      dup3\n        /* \"#utility.yul\":7960:7966   */\n      dup5\n        /* \"#utility.yul\":7898:7973   */\n      tag_457\n      jump\t// in\n    tag_469:\n        /* \"#utility.yul\":7998:8000   */\n      0x20\n        /* \"#utility.yul\":7993:7996   */\n      dup3\n        /* \"#utility.yul\":7989:8001   */\n      add\n        /* \"#utility.yul\":7982:8001   */\n      swap2\n      pop\n        /* \"#utility.yul\":8018:8021   */\n      dup2\n        /* \"#utility.yul\":8011:8021   */\n      swap1\n      pop\n        /* \"#utility.yul\":7489:8027   */\n      swap5\n      swap4\n      pop\n      pop\n      pop\n      pop\n      jump\t// out\n        /* \"#utility.yul\":8033:8255   */\n    tag_57:\n        /* \"#utility.yul\":8126:8130   */\n      0x00\n        /* \"#utility.yul\":8164:8166   */\n      0x20\n        /* \"#utility.yul\":8153:8162   */\n      dup3\n        /* \"#utility.yul\":8149:8167   */\n      add\n        /* \"#utility.yul\":8141:8167   */\n      swap1\n      pop\n        /* \"#utility.yul\":8177:8248   */\n      tag_471\n        /* \"#utility.yul\":8245:8246   */\n      0x00\n        /* \"#utility.yul\":8234:8243   */\n      dup4\n        /* \"#utility.yul\":8230:8247   */\n      add\n        /* \"#utility.yul\":8221:8227   */\n      dup5\n        /* \"#utility.yul\":8177:8248   */\n      tag_402\n      jump\t// in\n    tag_471:\n        /* \"#utility.yul\":8033:8255   */\n      swap3\n      swap2\n      pop\n      pop\n      jump\t// out\n        /* \"#utility.yul\":8261:9527   */\n    tag_71:\n        /* \"#utility.yul\":8608:8612   */\n      0x00\n        /* \"#utility.yul\":8646:8649   */\n      0x0100\n        /* \"#utility.yul\":8635:8644   */\n      dup3\n        /* \"#utility.yul\":8631:8650   */\n      add\n        /* \"#utility.yul\":8623:8650   */\n      swap1\n      pop\n        /* \"#utility.yul\":8660:8731   */\n      tag_473\n        /* \"#utility.yul\":8728:8729   */\n      0x00\n        /* \"#utility.yul\":8717:8726   */\n      dup4\n        /* \"#utility.yul\":8713:8730   */\n      add\n        /* \"#utility.yul\":8704:8710   */\n      dup12\n        /* \"#utility.yul\":8660:8731   */\n      tag_402\n      jump\t// in\n    tag_473:\n        /* \"#utility.yul\":8778:8787   */\n      dup2\n        /* \"#utility.yul\":8772:8776   */\n      dup2\n        /* \"#utility.yul\":8768:8788   */\n      sub\n        /* \"#utility.yul\":8763:8765   */\n      0x20\n        /* \"#utility.yul\":8752:8761   */\n      dup4\n        /* \"#utility.yul\":8748:8766   */\n      add\n        /* \"#utility.yul\":8741:8789   */\n      mstore\n        /* \"#utility.yul\":8806:8884   */\n      tag_474\n        /* \"#utility.yul\":8879:8883   */\n      dup2\n        /* \"#utility.yul\":8870:8876   */\n      dup11\n        /* \"#utility.yul\":8806:8884   */\n      tag_406\n      jump\t// in\n    tag_474:\n        /* \"#utility.yul\":8798:8884   */\n      swap1\n      pop\n        /* \"#utility.yul\":8931:8940   */\n      dup2\n        /* \"#utility.yul\":8925:8929   */\n      dup2\n        /* \"#utility.yul\":8921:8941   */\n      sub\n        /* \"#utility.yul\":8916:8918   */\n      0x40\n        /* \"#utility.yul\":8905:8914   */\n      dup4\n        /* \"#utility.yul\":8901:8919   */\n      add\n        /* \"#utility.yul\":8894:8942   */\n      mstore\n        /* \"#utility.yul\":8959:9037   */\n      tag_475\n        /* \"#utility.yul\":9032:9036   */\n      dup2\n        /* \"#utility.yul\":9023:9029   */\n      dup10\n        /* \"#utility.yul\":8959:9037   */\n      tag_406\n      jump\t// in\n    tag_475:\n        /* \"#utility.yul\":8951:9037   */\n      swap1\n      pop\n        /* \"#utility.yul\":9084:9093   */\n      dup2\n        /* \"#utility.yul\":9078:9082   */\n      dup2\n        /* \"#utility.yul\":9074:9094   */\n      sub\n        /* \"#utility.yul\":9069:9071   */\n      0x60\n        /* \"#utility.yul\":9058:9067   */\n      dup4\n        /* \"#utility.yul\":9054:9072   */\n      add\n        /* \"#utility.yul\":9047:9095   */\n      mstore\n        /* \"#utility.yul\":9112:9190   */\n      tag_476\n        /* \"#utility.yul\":9185:9189   */\n      dup2\n        /* \"#utility.yul\":9176:9182   */\n      dup9\n        /* \"#utility.yul\":9112:9190   */\n      tag_406\n      jump\t// in\n    tag_476:\n        /* \"#utility.yul\":9104:9190   */\n      swap1\n      pop\n        /* \"#utility.yul\":9200:9273   */\n      tag_477\n        /* \"#utility.yul\":9268:9271   */\n      0x80\n        /* \"#utility.yul\":9257:9266   */\n      dup4\n        /* \"#utility.yul\":9253:9272   */\n      add\n        /* \"#utility.yul\":9244:9250   */\n      dup8\n        /* \"#utility.yul\":9200:9273   */\n      tag_453\n      jump\t// in\n    tag_477:\n        /* \"#utility.yul\":9283:9356   */\n      tag_478\n        /* \"#utility.yul\":9351:9354   */\n      0xa0\n        /* \"#utility.yul\":9340:9349   */\n      dup4\n        /* \"#utility.yul\":9336:9355   */\n      add\n        /* \"#utility.yul\":9327:9333   */\n      dup7\n        /* \"#utility.yul\":9283:9356   */\n      tag_453\n      jump\t// in\n    tag_478:\n        /* \"#utility.yul\":9366:9439   */\n      tag_479\n        /* \"#utility.yul\":9434:9437   */\n      0xc0\n        /* \"#utility.yul\":9423:9432   */\n      dup4\n        /* \"#utility.yul\":9419:9438   */\n      add\n        /* \"#utility.yul\":9410:9416   */\n      dup6\n        /* \"#utility.yul\":9366:9439   */\n      tag_453\n      jump\t// in\n    tag_479:\n        /* \"#utility.yul\":9449:9520   */\n      tag_480\n        /* \"#utility.yul\":9515:9518   */\n      0xe0\n        /* \"#utility.yul\":9504:9513   */\n      dup4\n        /* \"#utility.yul\":9500:9519   */\n      add\n        /* \"#utility.yul\":9491:9497   */\n      dup5\n        /* \"#utility.yul\":9449:9520   */\n      tag_462\n      jump\t// in\n    tag_480:\n        /* \"#utility.yul\":8261:9527   */\n      swap10\n      swap9\n      pop\n      pop\n      pop\n      pop\n      pop\n      pop\n      pop\n      pop\n      pop\n      jump\t// out\n        /* \"#utility.yul\":9533:9846   */\n    tag_22:\n        /* \"#utility.yul\":9646:9650   */\n      0x00\n        /* \"#utility.yul\":9684:9686   */\n      0x20\n        /* \"#utility.yul\":9673:9682   */\n      dup3\n        /* \"#utility.yul\":9669:9687   */\n      add\n        /* \"#utility.yul\":9661:9687   */\n      swap1\n      pop\n        /* \"#utility.yul\":9733:9742   */\n      dup2\n        /* \"#utility.yul\":9727:9731   */\n      dup2\n        /* \"#utility.yul\":9723:9743   */\n      sub\n        /* \"#utility.yul\":9719:9720   */\n      0x00\n        /* \"#utility.yul\":9708:9717   */\n      dup4\n        /* \"#utility.yul\":9704:9721   */\n      add\n        /* \"#utility.yul\":9697:9744   */\n      mstore\n        /* \"#utility.yul\":9761:9839   */\n      tag_482\n        /* \"#utility.yul\":9834:9838   */\n      dup2\n        /* \"#utility.yul\":9825:9831   */\n      dup5\n        /* \"#utility.yul\":9761:9839   */\n      tag_406\n      jump\t// in\n    tag_482:\n        /* \"#utility.yul\":9753:9839   */\n      swap1\n      pop\n        /* \"#utility.yul\":9533:9846   */\n      swap3\n      swap2\n      pop\n      pop\n      jump\t// out\n        /* \"#utility.yul\":9852:10682   */\n    tag_311:\n        /* \"#utility.yul\":10089:10093   */\n      0x00\n        /* \"#utility.yul\":10127:10130   */\n      0xa0\n        /* \"#utility.yul\":10116:10125   */\n      dup3\n        /* \"#utility.yul\":10112:10131   */\n      add\n        /* \"#utility.yul\":10104:10131   */\n      swap1\n      pop\n        /* \"#utility.yul\":10177:10186   */\n      dup2\n        /* \"#utility.yul\":10171:10175   */\n      dup2\n        /* \"#utility.yul\":10167:10187   */\n      sub\n        /* \"#utility.yul\":10163:10164   */\n      0x00\n        /* \"#utility.yul\":10152:10161   */\n      dup4\n        /* \"#utility.yul\":10148:10165   */\n      add\n        /* \"#utility.yul\":10141:10188   */\n      mstore\n        /* \"#utility.yul\":10205:10280   */\n      tag_484\n        /* \"#utility.yul\":10275:10279   */\n      dup2\n        /* \"#utility.yul\":10266:10272   */\n      dup9\n        /* \"#utility.yul\":10205:10280   */\n      tag_416\n      jump\t// in\n    tag_484:\n        /* \"#utility.yul\":10197:10280   */\n      swap1\n      pop\n        /* \"#utility.yul\":10327:10336   */\n      dup2\n        /* \"#utility.yul\":10321:10325   */\n      dup2\n        /* \"#utility.yul\":10317:10337   */\n      sub\n        /* \"#utility.yul\":10312:10314   */\n      0x20\n        /* \"#utility.yul\":10301:10310   */\n      dup4\n        /* \"#utility.yul\":10297:10315   */\n      add\n        /* \"#utility.yul\":10290:10338   */\n      mstore\n        /* \"#utility.yul\":10355:10430   */\n      tag_485\n        /* \"#utility.yul\":10425:10429   */\n      dup2\n        /* \"#utility.yul\":10416:10422   */\n      dup8\n        /* \"#utility.yul\":10355:10430   */\n      tag_416\n      jump\t// in\n    tag_485:\n        /* \"#utility.yul\":10347:10430   */\n      swap1\n      pop\n        /* \"#utility.yul\":10440:10510   */\n      tag_486\n        /* \"#utility.yul\":10506:10508   */\n      0x40\n        /* \"#utility.yul\":10495:10504   */\n      dup4\n        /* \"#utility.yul\":10491:10509   */\n      add\n        /* \"#utility.yul\":10482:10488   */\n      dup7\n        /* \"#utility.yul\":10440:10510   */\n      tag_462\n      jump\t// in\n    tag_486:\n        /* \"#utility.yul\":10520:10592   */\n      tag_487\n        /* \"#utility.yul\":10588:10590   */\n      0x60\n        /* \"#utility.yul\":10577:10586   */\n      dup4\n        /* \"#utility.yul\":10573:10591   */\n      add\n        /* \"#utility.yul\":10564:10570   */\n      dup6\n        /* \"#utility.yul\":10520:10592   */\n      tag_453\n      jump\t// in\n    tag_487:\n        /* \"#utility.yul\":10602:10675   */\n      tag_488\n        /* \"#utility.yul\":10670:10673   */\n      0x80\n        /* \"#utility.yul\":10659:10668   */\n      dup4\n        /* \"#utility.yul\":10655:10674   */\n      add\n        /* \"#utility.yul\":10646:10652   */\n      dup5\n        /* \"#utility.yul\":10602:10675   */\n      tag_453\n      jump\t// in\n    tag_488:\n        /* \"#utility.yul\":9852:10682   */\n      swap7\n      swap6\n      pop\n      pop\n      pop\n      pop\n      pop\n      pop\n      jump\t// out\n        /* \"#utility.yul\":10688:11107   */\n    tag_130:\n        /* \"#utility.yul\":10854:10858   */\n      0x00\n        /* \"#utility.yul\":10892:10894   */\n      0x20\n        /* \"#utility.yul\":10881:10890   */\n      dup3\n        /* \"#utility.yul\":10877:10895   */\n      add\n        /* \"#utility.yul\":10869:10895   */\n      swap1\n      pop\n        /* \"#utility.yul\":10941:10950   */\n      dup2\n        /* \"#utility.yul\":10935:10939   */\n      dup2\n        /* \"#utility.yul\":10931:10951   */\n      sub\n        /* \"#utility.yul\":10927:10928   */\n      0x00\n        /* \"#utility.yul\":10916:10925   */\n      dup4\n        /* \"#utility.yul\":10912:10929   */\n      add\n        /* \"#utility.yul\":10905:10952   */\n      mstore\n        /* \"#utility.yul\":10969:11100   */\n      tag_490\n        /* \"#utility.yul\":11095:11099   */\n      dup2\n        /* \"#utility.yul\":10969:11100   */\n      tag_428\n      jump\t// in\n    tag_490:\n        /* \"#utility.yul\":10961:11100   */\n      swap1\n      pop\n        /* \"#utility.yul\":10688:11107   */\n      swap2\n      swap1\n      pop\n      jump\t// out\n        /* \"#utility.yul\":11113:11532   */\n    tag_321:\n        /* \"#utility.yul\":11279:11283   */\n      0x00\n        /* \"#utility.yul\":11317:11319   */\n      0x20\n        /* \"#utility.yul\":11306:11315   */\n      dup3\n        /* \"#utility.yul\":11302:11320   */\n      add\n        /* \"#utility.yul\":11294:11320   */\n      swap1\n      pop\n        /* \"#utility.yul\":11366:11375   */\n      dup2\n        /* \"#utility.yul\":11360:11364   */\n      dup2\n        /* \"#utility.yul\":11356:11376   */\n      sub\n        /* \"#utility.yul\":11352:11353   */\n      0x00\n        /* \"#utility.yul\":11341:11350   */\n      dup4\n        /* \"#utility.yul\":11337:11354   */\n      add\n        /* \"#utility.yul\":11330:11377   */\n      mstore\n        /* \"#utility.yul\":11394:11525   */\n      tag_492\n        /* \"#utility.yul\":11520:11524   */\n      dup2\n        /* \"#utility.yul\":11394:11525   */\n      tag_433\n      jump\t// in\n    tag_492:\n        /* \"#utility.yul\":11386:11525   */\n      swap1\n      pop\n        /* \"#utility.yul\":11113:11532   */\n      swap2\n      swap1\n      pop\n      jump\t// out\n        /* \"#utility.yul\":11538:11957   */\n    tag_160:\n        /* \"#utility.yul\":11704:11708   */\n      0x00\n        /* \"#utility.yul\":11742:11744   */\n      0x20\n        /* \"#utility.yul\":11731:11740   */\n      dup3\n        /* \"#utility.yul\":11727:11745   */\n      add\n        /* \"#utility.yul\":11719:11745   */\n      swap1\n      pop\n        /* \"#utility.yul\":11791:11800   */\n      dup2\n        /* \"#utility.yul\":11785:11789   */\n      dup2\n        /* \"#utility.yul\":11781:11801   */\n      sub\n        /* \"#utility.yul\":11777:11778   */\n      0x00\n        /* \"#utility.yul\":11766:11775   */\n      dup4\n        /* \"#utility.yul\":11762:11779   */\n      add\n        /* \"#utility.yul\":11755:11802   */\n      mstore\n        /* \"#utility.yul\":11819:11950   */\n      tag_494\n        /* \"#utility.yul\":11945:11949   */\n      dup2\n        /* \"#utility.yul\":11819:11950   */\n      tag_438\n      jump\t// in\n    tag_494:\n        /* \"#utility.yul\":11811:11950   */\n      swap1\n      pop\n        /* \"#utility.yul\":11538:11957   */\n      swap2\n      swap1\n      pop\n      jump\t// out\n        /* \"#utility.yul\":11963:12382   */\n    tag_264:\n        /* \"#utility.yul\":12129:12133   */\n      0x00\n        /* \"#utility.yul\":12167:12169   */\n      0x20\n        /* \"#utility.yul\":12156:12165   */\n      dup3\n        /* \"#utility.yul\":12152:12170   */\n      add\n        /* \"#utility.yul\":12144:12170   */\n      swap1\n      pop\n        /* \"#utility.yul\":12216:12225   */\n      dup2\n        /* \"#utility.yul\":12210:12214   */\n      dup2\n        /* \"#utility.yul\":12206:12226   */\n      sub\n        /* \"#utility.yul\":12202:12203   */\n      0x00\n        /* \"#utility.yul\":12191:12200   */\n      dup4\n        /* \"#utility.yul\":12187:12204   */\n      add\n        /* \"#utility.yul\":12180:12227   */\n      mstore\n        /* \"#utility.yul\":12244:12375   */\n      tag_496\n        /* \"#utility.yul\":12370:12374   */\n      dup2\n        /* \"#utility.yul\":12244:12375   */\n      tag_443\n      jump\t// in\n    tag_496:\n        /* \"#utility.yul\":12236:12375   */\n      swap1\n      pop\n        /* \"#utility.yul\":11963:12382   */\n      swap2\n      swap1\n      pop\n      jump\t// out\n        /* \"#utility.yul\":12388:12807   */\n    tag_211:\n        /* \"#utility.yul\":12554:12558   */\n      0x00\n        /* \"#utility.yul\":12592:12594   */\n      0x20\n        /* \"#utility.yul\":12581:12590   */\n      dup3\n        /* \"#utility.yul\":12577:12595   */\n      add\n        /* \"#utility.yul\":12569:12595   */\n      swap1\n      pop\n        /* \"#utility.yul\":12641:12650   */\n      dup2\n        /* \"#utility.yul\":12635:12639   */\n      dup2\n        /* \"#utility.yul\":12631:12651   */\n      sub\n        /* \"#utility.yul\":12627:12628   */\n      0x00\n        /* \"#utility.yul\":12616:12625   */\n      dup4\n        /* \"#utility.yul\":12612:12629   */\n      add\n        /* \"#utility.yul\":12605:12652   */\n      mstore\n        /* \"#utility.yul\":12669:12800   */\n      tag_498\n        /* \"#utility.yul\":12795:12799   */\n      dup2\n        /* \"#utility.yul\":12669:12800   */\n      tag_448\n      jump\t// in\n    tag_498:\n        /* \"#utility.yul\":12661:12800   */\n      swap1\n      pop\n        /* \"#utility.yul\":12388:12807   */\n      swap2\n      swap1\n      pop\n      jump\t// out\n        /* \"#utility.yul\":12813:13035   */\n    tag_33:\n        /* \"#utility.yul\":12906:12910   */\n      0x00\n        /* \"#utility.yul\":12944:12946   */\n      0x20\n        /* \"#utility.yul\":12933:12942   */\n      dup3\n        /* \"#utility.yul\":12929:12947   */\n      add\n        /* \"#utility.yul\":12921:12947   */\n      swap1\n      pop\n        /* \"#utility.yul\":12957:13028   */\n      tag_500\n        /* \"#utility.yul\":13025:13026   */\n      0x00\n        /* \"#utility.yul\":13014:13023   */\n      dup4\n        /* \"#utility.yul\":13010:13027   */\n      add\n        /* \"#utility.yul\":13001:13007   */\n      dup5\n        /* \"#utility.yul\":12957:13028   */\n      tag_453\n      jump\t// in\n    tag_500:\n        /* \"#utility.yul\":12813:13035   */\n      swap3\n      swap2\n      pop\n      pop\n      jump\t// out\n        /* \"#utility.yul\":13041:13170   */\n    tag_350:\n        /* \"#utility.yul\":13075:13081   */\n      0x00\n        /* \"#utility.yul\":13102:13122   */\n      tag_502\n      tag_503\n      jump\t// in\n    tag_502:\n        /* \"#utility.yul\":13092:13122   */\n      swap1\n      pop\n        /* \"#utility.yul\":13131:13164   */\n      tag_504\n        /* \"#utility.yul\":13159:13163   */\n      dup3\n        /* \"#utility.yul\":13151:13157   */\n      dup3\n        /* \"#utility.yul\":13131:13164   */\n      tag_505\n      jump\t// in\n    tag_504:\n        /* \"#utility.yul\":13041:13170   */\n      swap2\n      swap1\n      pop\n      jump\t// out\n        /* \"#utility.yul\":13176:13251   */\n    tag_503:\n        /* \"#utility.yul\":13209:13215   */\n      0x00\n        /* \"#utility.yul\":13242:13244   */\n      0x40\n        /* \"#utility.yul\":13236:13245   */\n      mload\n        /* \"#utility.yul\":13226:13245   */\n      swap1\n      pop\n        /* \"#utility.yul\":13176:13251   */\n      swap1\n      jump\t// out\n        /* \"#utility.yul\":13257:13565   */\n    tag_349:\n        /* \"#utility.yul\":13319:13323   */\n      0x00\n        /* \"#utility.yul\":13409:13427   */\n      0xffffffffffffffff\n        /* \"#utility.yul\":13401:13407   */\n      dup3\n        /* \"#utility.yul\":13398:13428   */\n      gt\n        /* \"#utility.yul\":13395:13451   */\n      iszero\n      tag_508\n      jumpi\n        /* \"#utility.yul\":13431:13449   */\n      tag_509\n      tag_510\n      jump\t// in\n    tag_509:\n        /* \"#utility.yul\":13395:13451   */\n    tag_508:\n        /* \"#utility.yul\":13469:13498   */\n      tag_511\n        /* \"#utility.yul\":13491:13497   */\n      dup3\n        /* \"#utility.yul\":13469:13498   */\n      tag_415\n      jump\t// in\n    tag_511:\n        /* \"#utility.yul\":13461:13498   */\n      swap1\n      pop\n        /* \"#utility.yul\":13553:13557   */\n      0x20\n        /* \"#utility.yul\":13547:13551   */\n      dup2\n        /* \"#utility.yul\":13543:13558   */\n      add\n        /* \"#utility.yul\":13535:13558   */\n      swap1\n      pop\n        /* \"#utility.yul\":13257:13565   */\n      swap2\n      swap1\n      pop\n      jump\t// out\n        /* \"#utility.yul\":13571:13712   */\n    tag_424:\n        /* \"#utility.yul\":13620:13624   */\n      0x00\n        /* \"#utility.yul\":13643:13646   */\n      dup2\n        /* \"#utility.yul\":13635:13646   */\n      swap1\n      pop\n        /* \"#utility.yul\":13666:13669   */\n      dup2\n        /* \"#utility.yul\":13663:13664   */\n      0x00\n        /* \"#utility.yul\":13656:13670   */\n      mstore\n        /* \"#utility.yul\":13700:13704   */\n      0x20\n        /* \"#utility.yul\":13697:13698   */\n      0x00\n        /* \"#utility.yul\":13687:13705   */\n      keccak256\n        /* \"#utility.yul\":13679:13705   */\n      swap1\n      pop\n        /* \"#utility.yul\":13571:13712   */\n      swap2\n      swap1\n      pop\n      jump\t// out\n        /* \"#utility.yul\":13718:13817   */\n    tag_409:\n        /* \"#utility.yul\":13770:13776   */\n      0x00\n        /* \"#utility.yul\":13804:13809   */\n      dup2\n        /* \"#utility.yul\":13798:13810   */\n      mload\n        /* \"#utility.yul\":13788:13810   */\n      swap1\n      pop\n        /* \"#utility.yul\":13718:13817   */\n      swap2\n      swap1\n      pop\n      jump\t// out\n        /* \"#utility.yul\":13823:13992   */\n    tag_411:\n        /* \"#utility.yul\":13907:13918   */\n      0x00\n        /* \"#utility.yul\":13941:13947   */\n      dup3\n        /* \"#utility.yul\":13936:13939   */\n      dup3\n        /* \"#utility.yul\":13929:13948   */\n      mstore\n        /* \"#utility.yul\":13981:13985   */\n      0x20\n        /* \"#utility.yul\":13976:13979   */\n      dup3\n        /* \"#utility.yul\":13972:13986   */\n      add\n        /* \"#utility.yul\":13957:13986   */\n      swap1\n      pop\n        /* \"#utility.yul\":13823:13992   */\n      swap3\n      swap2\n      pop\n      pop\n      jump\t// out\n        /* \"#utility.yul\":13998:14303   */\n    tag_133:\n        /* \"#utility.yul\":14038:14041   */\n      0x00\n        /* \"#utility.yul\":14057:14077   */\n      tag_516\n        /* \"#utility.yul\":14075:14076   */\n      dup3\n        /* \"#utility.yul\":14057:14077   */\n      tag_456\n      jump\t// in\n    tag_516:\n        /* \"#utility.yul\":14052:14077   */\n      swap2\n      pop\n        /* \"#utility.yul\":14091:14111   */\n      tag_517\n        /* \"#utility.yul\":14109:14110   */\n      dup4\n        /* \"#utility.yul\":14091:14111   */\n      tag_456\n      jump\t// in\n    tag_517:\n        /* \"#utility.yul\":14086:14111   */\n      swap3\n      pop\n        /* \"#utility.yul\":14245:14246   */\n      dup3\n        /* \"#utility.yul\":14177:14243   */\n      0xffffffffffffffffffffffffffffffffffffffffffffffffffffffffffffffff\n        /* \"#utility.yul\":14173:14247   */\n      sub\n        /* \"#utility.yul\":14170:14171   */\n      dup3\n        /* \"#utility.yul\":14167:14248   */\n      gt\n        /* \"#utility.yul\":14164:14271   */\n      iszero\n      tag_518\n      jumpi\n        /* \"#utility.yul\":14251:14269   */\n      tag_519\n      tag_520\n      jump\t// in\n    tag_519:\n        /* \"#utility.yul\":14164:14271   */\n    tag_518:\n        /* \"#utility.yul\":14295:14296   */\n      dup3\n        /* \"#utility.yul\":14292:14293   */\n      dup3\n        /* \"#utility.yul\":14288:14297   */\n      add\n        /* \"#utility.yul\":14281:14297   */\n      swap1\n      pop\n        /* \"#utility.yul\":13998:14303   */\n      swap3\n      swap2\n      pop\n      pop\n      jump\t// out\n        /* \"#utility.yul\":14309:14500   */\n    tag_141:\n        /* \"#utility.yul\":14349:14353   */\n      0x00\n        /* \"#utility.yul\":14369:14389   */\n      tag_522\n        /* \"#utility.yul\":14387:14388   */\n      dup3\n        /* \"#utility.yul\":14369:14389   */\n      tag_456\n      jump\t// in\n    tag_522:\n        /* \"#utility.yul\":14364:14389   */\n      swap2\n      pop\n        /* \"#utility.yul\":14403:14423   */\n      tag_523\n        /* \"#utility.yul\":14421:14422   */\n      dup4\n        /* \"#utility.yul\":14403:14423   */\n      tag_456\n      jump\t// in\n    tag_523:\n        /* \"#utility.yul\":14398:14423   */\n      swap3\n      pop\n        /* \"#utility.yul\":14442:14443   */\n      dup3\n        /* \"#utility.yul\":14439:14440   */\n      dup3\n        /* \"#utility.yul\":14436:14444   */\n      lt\n        /* \"#utility.yul\":14433:14467   */\n      iszero\n      tag_524\n      jumpi\n        /* \"#utility.yul\":14447:14465   */\n      tag_525\n      tag_520\n      jump\t// in\n    tag_525:\n        /* \"#utility.yul\":14433:14467   */\n    tag_524:\n        /* \"#utility.yul\":14492:14493   */\n      dup3\n        /* \"#utility.yul\":14489:14490   */\n      dup3\n        /* \"#utility.yul\":14485:14494   */\n      sub\n        /* \"#utility.yul\":14477:14494   */\n      swap1\n      pop\n        /* \"#utility.yul\":14309:14500   */\n      swap3\n      swap2\n      pop\n      pop\n      jump\t// out\n        /* \"#utility.yul\":14506:14602   */\n    tag_405:\n        /* \"#utility.yul\":14543:14550   */\n      0x00\n        /* \"#utility.yul\":14572:14596   */\n      tag_527\n        /* \"#utility.yul\":14590:14595   */\n      dup3\n        /* \"#utility.yul\":14572:14596   */\n      tag_528\n      jump\t// in\n    tag_527:\n        /* \"#utility.yul\":14561:14596   */\n      swap1\n      pop\n        /* \"#utility.yul\":14506:14602   */\n      swap2\n      swap1\n      pop\n      jump\t// out\n        /* \"#utility.yul\":14608:14734   */\n    tag_528:\n        /* \"#utility.yul\":14645:14652   */\n      0x00\n        /* \"#utility.yul\":14685:14727   */\n      0xffffffffffffffffffffffffffffffffffffffff\n        /* \"#utility.yul\":14678:14683   */\n      dup3\n        /* \"#utility.yul\":14674:14728   */\n      and\n        /* \"#utility.yul\":14663:14728   */\n      swap1\n      pop\n        /* \"#utility.yul\":14608:14734   */\n      swap2\n      swap1\n      pop\n      jump\t// out\n        /* \"#utility.yul\":14740:14817   */\n    tag_456:\n        /* \"#utility.yul\":14777:14784   */\n      0x00\n        /* \"#utility.yul\":14806:14811   */\n      dup2\n        /* \"#utility.yul\":14795:14811   */\n      swap1\n      pop\n        /* \"#utility.yul\":14740:14817   */\n      swap2\n      swap1\n      pop\n      jump\t// out\n        /* \"#utility.yul\":14823:14916   */\n    tag_465:\n        /* \"#utility.yul\":14859:14866   */\n      0x00\n        /* \"#utility.yul\":14899:14909   */\n      0xffffffff\n        /* \"#utility.yul\":14892:14897   */\n      dup3\n        /* \"#utility.yul\":14888:14910   */\n      and\n        /* \"#utility.yul\":14877:14910   */\n      swap1\n      pop\n        /* \"#utility.yul\":14823:14916   */\n      swap2\n      swap1\n      pop\n      jump\t// out\n        /* \"#utility.yul\":14922:15076   */\n    tag_355:\n        /* \"#utility.yul\":15006:15012   */\n      dup3\n        /* \"#utility.yul\":15001:15004   */\n      dup2\n        /* \"#utility.yul\":14996:14999   */\n      dup4\n        /* \"#utility.yul\":14983:15013   */\n      calldatacopy\n        /* \"#utility.yul\":15068:15069   */\n      0x00\n        /* \"#utility.yul\":15059:15065   */\n      dup4\n        /* \"#utility.yul\":15054:15057   */\n      dup4\n        /* \"#utility.yul\":15050:15066   */\n      add\n        /* \"#utility.yul\":15043:15070   */\n      mstore\n        /* \"#utility.yul\":14922:15076   */\n      pop\n      pop\n      pop\n      jump\t// out\n        /* \"#utility.yul\":15082:15389   */\n    tag_413:\n        /* \"#utility.yul\":15150:15151   */\n      0x00\n        /* \"#utility.yul\":15160:15273   */\n    tag_534:\n        /* \"#utility.yul\":15174:15180   */\n      dup4\n        /* \"#utility.yul\":15171:15172   */\n      dup2\n        /* \"#utility.yul\":15168:15181   */\n      lt\n        /* \"#utility.yul\":15160:15273   */\n      iszero\n      tag_536\n      jumpi\n        /* \"#utility.yul\":15259:15260   */\n      dup1\n        /* \"#utility.yul\":15254:15257   */\n      dup3\n        /* \"#utility.yul\":15250:15261   */\n      add\n        /* \"#utility.yul\":15244:15262   */\n      mload\n        /* \"#utility.yul\":15240:15241   */\n      dup2\n        /* \"#utility.yul\":15235:15238   */\n      dup5\n        /* \"#utility.yul\":15231:15242   */\n      add\n        /* \"#utility.yul\":15224:15263   */\n      mstore\n        /* \"#utility.yul\":15196:15198   */\n      0x20\n        /* \"#utility.yul\":15193:15194   */\n      dup2\n        /* \"#utility.yul\":15189:15199   */\n      add\n        /* \"#utility.yul\":15184:15199   */\n      swap1\n      pop\n        /* \"#utility.yul\":15160:15273   */\n      jump(tag_534)\n    tag_536:\n        /* \"#utility.yul\":15291:15297   */\n      dup4\n        /* \"#utility.yul\":15288:15289   */\n      dup2\n        /* \"#utility.yul\":15285:15298   */\n      gt\n        /* \"#utility.yul\":15282:15383   */\n      iszero\n      tag_537\n      jumpi\n        /* \"#utility.yul\":15371:15372   */\n      0x00\n        /* \"#utility.yul\":15362:15368   */\n      dup5\n        /* \"#utility.yul\":15357:15360   */\n      dup5\n        /* \"#utility.yul\":15353:15369   */\n      add\n        /* \"#utility.yul\":15346:15373   */\n      mstore\n        /* \"#utility.yul\":15282:15383   */\n    tag_537:\n        /* \"#utility.yul\":15131:15389   */\n      pop\n        /* \"#utility.yul\":15082:15389   */\n      pop\n      pop\n      pop\n      jump\t// out\n        /* \"#utility.yul\":15395:15715   */\n    tag_272:\n        /* \"#utility.yul\":15439:15445   */\n      0x00\n        /* \"#utility.yul\":15476:15477   */\n      0x02\n        /* \"#utility.yul\":15470:15474   */\n      dup3\n        /* \"#utility.yul\":15466:15478   */\n      div\n        /* \"#utility.yul\":15456:15478   */\n      swap1\n      pop\n        /* \"#utility.yul\":15523:15524   */\n      0x01\n        /* \"#utility.yul\":15517:15521   */\n      dup3\n        /* \"#utility.yul\":15513:15525   */\n      and\n        /* \"#utility.yul\":15544:15562   */\n      dup1\n        /* \"#utility.yul\":15534:15615   */\n      tag_539\n      jumpi\n        /* \"#utility.yul\":15600:15604   */\n      0x7f\n        /* \"#utility.yul\":15592:15598   */\n      dup3\n        /* \"#utility.yul\":15588:15605   */\n      and\n        /* \"#utility.yul\":15578:15605   */\n      swap2\n      pop\n        /* \"#utility.yul\":15534:15615   */\n    tag_539:\n        /* \"#utility.yul\":15662:15664   */\n      0x20\n        /* \"#utility.yul\":15654:15660   */\n      dup3\n        /* \"#utility.yul\":15651:15665   */\n      lt\n        /* \"#utility.yul\":15631:15649   */\n      dup2\n        /* \"#utility.yul\":15628:15666   */\n      eq\n        /* \"#utility.yul\":15625:15709   */\n      iszero\n      tag_540\n      jumpi\n        /* \"#utility.yul\":15681:15699   */\n      tag_541\n      tag_542\n      jump\t// in\n    tag_541:\n        /* \"#utility.yul\":15625:15709   */\n    tag_540:\n        /* \"#utility.yul\":15446:15715   */\n      pop\n        /* \"#utility.yul\":15395:15715   */\n      swap2\n      swap1\n      pop\n      jump\t// out\n        /* \"#utility.yul\":15721:16002   */\n    tag_505:\n        /* \"#utility.yul\":15804:15831   */\n      tag_544\n        /* \"#utility.yul\":15826:15830   */\n      dup3\n        /* \"#utility.yul\":15804:15831   */\n      tag_415\n      jump\t// in\n    tag_544:\n        /* \"#utility.yul\":15796:15802   */\n      dup2\n        /* \"#utility.yul\":15792:15832   */\n      add\n        /* \"#utility.yul\":15934:15940   */\n      dup2\n        /* \"#utility.yul\":15922:15932   */\n      dup2\n        /* \"#utility.yul\":15919:15941   */\n      lt\n        /* \"#utility.yul\":15898:15916   */\n      0xffffffffffffffff\n        /* \"#utility.yul\":15886:15896   */\n      dup3\n        /* \"#utility.yul\":15883:15917   */\n      gt\n        /* \"#utility.yul\":15880:15942   */\n      or\n        /* \"#utility.yul\":15877:15965   */\n      iszero\n      tag_545\n      jumpi\n        /* \"#utility.yul\":15945:15963   */\n      tag_546\n      tag_510\n      jump\t// in\n    tag_546:\n        /* \"#utility.yul\":15877:15965   */\n    tag_545:\n        /* \"#utility.yul\":15985:15995   */\n      dup1\n        /* \"#utility.yul\":15981:15983   */\n      0x40\n        /* \"#utility.yul\":15974:15996   */\n      mstore\n        /* \"#utility.yul\":15764:16002   */\n      pop\n        /* \"#utility.yul\":15721:16002   */\n      pop\n      pop\n      jump\t// out\n        /* \"#utility.yul\":16008:16241   */\n    tag_101:\n        /* \"#utility.yul\":16047:16050   */\n      0x00\n        /* \"#utility.yul\":16070:16094   */\n      tag_548\n        /* \"#utility.yul\":16088:16093   */\n      dup3\n        /* \"#utility.yul\":16070:16094   */\n      tag_456\n      jump\t// in\n    tag_548:\n        /* \"#utility.yul\":16061:16094   */\n      swap2\n      pop\n        /* \"#utility.yul\":16116:16182   */\n      0xffffffffffffffffffffffffffffffffffffffffffffffffffffffffffffffff\n        /* \"#utility.yul\":16109:16114   */\n      dup3\n        /* \"#utility.yul\":16106:16183   */\n      eq\n        /* \"#utility.yul\":16103:16206   */\n      iszero\n      tag_549\n      jumpi\n        /* \"#utility.yul\":16186:16204   */\n      tag_550\n      tag_520\n      jump\t// in\n    tag_550:\n        /* \"#utility.yul\":16103:16206   */\n    tag_549:\n        /* \"#utility.yul\":16233:16234   */\n      0x01\n        /* \"#utility.yul\":16226:16231   */\n      dup3\n        /* \"#utility.yul\":16222:16235   */\n      add\n        /* \"#utility.yul\":16215:16235   */\n      swap1\n      pop\n        /* \"#utility.yul\":16008:16241   */\n      swap2\n      swap1\n      pop\n      jump\t// out\n        /* \"#utility.yul\":16247:16422   */\n    tag_155:\n        /* \"#utility.yul\":16285:16288   */\n      0x00\n        /* \"#utility.yul\":16308:16331   */\n      tag_552\n        /* \"#utility.yul\":16325:16330   */\n      dup3\n        /* \"#utility.yul\":16308:16331   */\n      tag_465\n      jump\t// in\n    tag_552:\n        /* \"#utility.yul\":16299:16331   */\n      swap2\n      pop\n        /* \"#utility.yul\":16353:16363   */\n      0xffffffff\n        /* \"#utility.yul\":16346:16351   */\n      dup3\n        /* \"#utility.yul\":16343:16364   */\n      eq\n        /* \"#utility.yul\":16340:16387   */\n      iszero\n      tag_553\n      jumpi\n        /* \"#utility.yul\":16367:16385   */\n      tag_554\n      tag_520\n      jump\t// in\n    tag_554:\n        /* \"#utility.yul\":16340:16387   */\n    tag_553:\n        /* \"#utility.yul\":16414:16415   */\n      0x01\n        /* \"#utility.yul\":16407:16412   */\n      dup3\n        /* \"#utility.yul\":16403:16416   */\n      add\n        /* \"#utility.yul\":16396:16416   */\n      swap1\n      pop\n        /* \"#utility.yul\":16247:16422   */\n      swap2\n      swap1\n      pop\n      jump\t// out\n        /* \"#utility.yul\":16428:16507   */\n    tag_461:\n        /* \"#utility.yul\":16467:16474   */\n      0x00\n        /* \"#utility.yul\":16496:16501   */\n      dup2\n        /* \"#utility.yul\":16485:16501   */\n      swap1\n      pop\n        /* \"#utility.yul\":16428:16507   */\n      swap2\n      swap1\n      pop\n      jump\t// out\n        /* \"#utility.yul\":16513:16689   */\n    tag_167:\n        /* \"#utility.yul\":16545:16546   */\n      0x00\n        /* \"#utility.yul\":16562:16582   */\n      tag_557\n        /* \"#utility.yul\":16580:16581   */\n      dup3\n        /* \"#utility.yul\":16562:16582   */\n      tag_456\n      jump\t// in\n    tag_557:\n        /* \"#utility.yul\":16557:16582   */\n      swap2\n      pop\n        /* \"#utility.yul\":16596:16616   */\n      tag_558\n        /* \"#utility.yul\":16614:16615   */\n      dup4\n        /* \"#utility.yul\":16596:16616   */\n      tag_456\n      jump\t// in\n    tag_558:\n        /* \"#utility.yul\":16591:16616   */\n      swap3\n      pop\n        /* \"#utility.yul\":16635:16636   */\n      dup3\n        /* \"#utility.yul\":16625:16660   */\n      tag_559\n      jumpi\n        /* \"#utility.yul\":16640:16658   */\n      tag_560\n      tag_561\n      jump\t// in\n    tag_560:\n        /* \"#utility.yul\":16625:16660   */\n    tag_559:\n        /* \"#utility.yul\":16681:16682   */\n      dup3\n        /* \"#utility.yul\":16678:16679   */\n      dup3\n        /* \"#utility.yul\":16674:16683   */\n      mod\n        /* \"#utility.yul\":16669:16683   */\n      swap1\n      pop\n        /* \"#utility.yul\":16513:16689   */\n      swap3\n      swap2\n      pop\n      pop\n      jump\t// out\n        /* \"#utility.yul\":16695:16875   */\n    tag_520:\n        /* \"#utility.yul\":16743:16820   */\n      0x4e487b7100000000000000000000000000000000000000000000000000000000\n        /* \"#utility.yul\":16740:16741   */\n      0x00\n        /* \"#utility.yul\":16733:16821   */\n      mstore\n        /* \"#utility.yul\":16840:16844   */\n      0x11\n        /* \"#utility.yul\":16837:16838   */\n      0x04\n        /* \"#utility.yul\":16830:16845   */\n      mstore\n        /* \"#utility.yul\":16864:16868   */\n      0x24\n        /* \"#utility.yul\":16861:16862   */\n      0x00\n        /* \"#utility.yul\":16854:16869   */\n      revert\n        /* \"#utility.yul\":16881:17061   */\n    tag_561:\n        /* \"#utility.yul\":16929:17006   */\n      0x4e487b7100000000000000000000000000000000000000000000000000000000\n        /* \"#utility.yul\":16926:16927   */\n      0x00\n        /* \"#utility.yul\":16919:17007   */\n      mstore\n        /* \"#utility.yul\":17026:17030   */\n      0x12\n        /* \"#utility.yul\":17023:17024   */\n      0x04\n        /* \"#utility.yul\":17016:17031   */\n      mstore\n        /* \"#utility.yul\":17050:17054   */\n      0x24\n        /* \"#utility.yul\":17047:17048   */\n      0x00\n        /* \"#utility.yul\":17040:17055   */\n      revert\n        /* \"#utility.yul\":17067:17247   */\n    tag_542:\n        /* \"#utility.yul\":17115:17192   */\n      0x4e487b7100000000000000000000000000000000000000000000000000000000\n        /* \"#utility.yul\":17112:17113   */\n      0x00\n        /* \"#utility.yul\":17105:17193   */\n      mstore\n        /* \"#utility.yul\":17212:17216   */\n      0x22\n        /* \"#utility.yul\":17209:17210   */\n      0x04\n        /* \"#utility.yul\":17202:17217   */\n      mstore\n        /* \"#utility.yul\":17236:17240   */\n      0x24\n        /* \"#utility.yul\":17233:17234   */\n      0x00\n        /* \"#utility.yul\":17226:17241   */\n      revert\n        /* \"#utility.yul\":17253:17433   */\n    tag_120:\n        /* \"#utility.yul\":17301:17378   */\n      0x4e487b7100000000000000000000000000000000000000000000000000000000\n        /* \"#utility.yul\":17298:17299   */\n      0x00\n        /* \"#utility.yul\":17291:17379   */\n      mstore\n        /* \"#utility.yul\":17398:17402   */\n      0x31\n        /* \"#utility.yul\":17395:17396   */\n      0x04\n        /* \"#utility.yul\":17388:17403   */\n      mstore\n        /* \"#utility.yul\":17422:17426   */\n      0x24\n        /* \"#utility.yul\":17419:17420   */\n      0x00\n        /* \"#utility.yul\":17412:17427   */\n      revert\n        /* \"#utility.yul\":17439:17619   */\n    tag_88:\n        /* \"#utility.yul\":17487:17564   */\n      0x4e487b7100000000000000000000000000000000000000000000000000000000\n        /* \"#utility.yul\":17484:17485   */\n      0x00\n        /* \"#utility.yul\":17477:17565   */\n      mstore\n        /* \"#utility.yul\":17584:17588   */\n      0x32\n        /* \"#utility.yul\":17581:17582   */\n      0x04\n        /* \"#utility.yul\":17574:17589   */\n      mstore\n        /* \"#utility.yul\":17608:17612   */\n      0x24\n        /* \"#utility.yul\":17605:17606   */\n      0x00\n        /* \"#utility.yul\":17598:17613   */\n      revert\n        /* \"#utility.yul\":17625:17805   */\n    tag_510:\n        /* \"#utility.yul\":17673:17750   */\n      0x4e487b7100000000000000000000000000000000000000000000000000000000\n        /* \"#utility.yul\":17670:17671   */\n      0x00\n        /* \"#utility.yul\":17663:17751   */\n      mstore\n        /* \"#utility.yul\":17770:17774   */\n      0x41\n        /* \"#utility.yul\":17767:17768   */\n      0x04\n        /* \"#utility.yul\":17760:17775   */\n      mstore\n        /* \"#utility.yul\":17794:17798   */\n      0x24\n        /* \"#utility.yul\":17791:17792   */\n      0x00\n        /* \"#utility.yul\":17784:17799   */\n      revert\n        /* \"#utility.yul\":17811:17928   */\n    tag_364:\n        /* \"#utility.yul\":17920:17921   */\n      0x00\n        /* \"#utility.yul\":17917:17918   */\n      dup1\n        /* \"#utility.yul\":17910:17922   */\n      revert\n        /* \"#utility.yul\":17934:18051   */\n    tag_353:\n        /* \"#utility.yul\":18043:18044   */\n      0x00\n        /* \"#utility.yul\":18040:18041   */\n      dup1\n        /* \"#utility.yul\":18033:18045   */\n      revert\n        /* \"#utility.yul\":18057:18174   */\n    tag_381:\n        /* \"#utility.yul\":18166:18167   */\n      0x00\n        /* \"#utility.yul\":18163:18164   */\n      dup1\n        /* \"#utility.yul\":18156:18168   */\n      revert\n        /* \"#utility.yul\":18180:18297   */\n    tag_373:\n        /* \"#utility.yul\":18289:18290   */\n      0x00\n        /* \"#utility.yul\":18286:18287   */\n      dup1\n        /* \"#utility.yul\":18279:18291   */\n      revert\n        /* \"#utility.yul\":18303:18405   */\n    tag_415:\n        /* \"#utility.yul\":18344:18350   */\n      0x00\n        /* \"#utility.yul\":18395:18397   */\n      0x1f\n        /* \"#utility.yul\":18391:18398   */\n      not\n        /* \"#utility.yul\":18386:18388   */\n      0x1f\n        /* \"#utility.yul\":18379:18384   */\n      dup4\n        /* \"#utility.yul\":18375:18389   */\n      add\n        /* \"#utility.yul\":18371:18399   */\n      and\n        /* \"#utility.yul\":18361:18399   */\n      swap1\n      pop\n        /* \"#utility.yul\":18303:18405   */\n      swap2\n      swap1\n      pop\n      jump\t// out\n        /* \"#utility.yul\":18411:18638   */\n    tag_432:\n        /* \"#utility.yul\":18551:18585   */\n      0x536f6c6f2073652070756564652074656e657220756e20636f63686520706f72\n        /* \"#utility.yul\":18547:18548   */\n      0x00\n        /* \"#utility.yul\":18539:18545   */\n      dup3\n        /* \"#utility.yul\":18535:18549   */\n      add\n        /* \"#utility.yul\":18528:18586   */\n      mstore\n        /* \"#utility.yul\":18620:18630   */\n      0x20706572736f6e61000000000000000000000000000000000000000000000000\n        /* \"#utility.yul\":18615:18617   */\n      0x20\n        /* \"#utility.yul\":18607:18613   */\n      dup3\n        /* \"#utility.yul\":18603:18618   */\n      add\n        /* \"#utility.yul\":18596:18631   */\n      mstore\n        /* \"#utility.yul\":18411:18638   */\n      pop\n      jump\t// out\n        /* \"#utility.yul\":18644:18869   */\n    tag_437:\n        /* \"#utility.yul\":18784:18818   */\n      0x4f776e61626c653a206e6577206f776e657220697320746865207a65726f2061\n        /* \"#utility.yul\":18780:18781   */\n      0x00\n        /* \"#utility.yul\":18772:18778   */\n      dup3\n        /* \"#utility.yul\":18768:18782   */\n      add\n        /* \"#utility.yul\":18761:18819   */\n      mstore\n        /* \"#utility.yul\":18853:18861   */\n      0x6464726573730000000000000000000000000000000000000000000000000000\n        /* \"#utility.yul\":18848:18850   */\n      0x20\n        /* \"#utility.yul\":18840:18846   */\n      dup3\n        /* \"#utility.yul\":18836:18851   */\n      add\n        /* \"#utility.yul\":18829:18862   */\n      mstore\n        /* \"#utility.yul\":18644:18869   */\n      pop\n      jump\t// out\n        /* \"#utility.yul\":18875:19112   */\n    tag_442:\n        /* \"#utility.yul\":19015:19049   */\n      0x4e6f2068617920636f6368657320737566696369656e74657320706172612069\n        /* \"#utility.yul\":19011:19012   */\n      0x00\n        /* \"#utility.yul\":19003:19009   */\n      dup3\n        /* \"#utility.yul\":18999:19013   */\n      add\n        /* \"#utility.yul\":18992:19050   */\n      mstore\n        /* \"#utility.yul\":19084:19104   */\n      0x6e696369617220756e6120636172726572610000000000000000000000000000\n        /* \"#utility.yul\":19079:19081   */\n      0x20\n        /* \"#utility.yul\":19071:19077   */\n      dup3\n        /* \"#utility.yul\":19067:19082   */\n      add\n        /* \"#utility.yul\":19060:19105   */\n      mstore\n        /* \"#utility.yul\":18875:19112   */\n      pop\n      jump\t// out\n        /* \"#utility.yul\":19118:19300   */\n    tag_447:\n        /* \"#utility.yul\":19258:19292   */\n      0x4f776e61626c653a2063616c6c6572206973206e6f7420746865206f776e6572\n        /* \"#utility.yul\":19254:19255   */\n      0x00\n        /* \"#utility.yul\":19246:19252   */\n      dup3\n        /* \"#utility.yul\":19242:19256   */\n      add\n        /* \"#utility.yul\":19235:19293   */\n      mstore\n        /* \"#utility.yul\":19118:19300   */\n      pop\n      jump\t// out\n        /* \"#utility.yul\":19306:19477   */\n    tag_452:\n        /* \"#utility.yul\":19446:19469   */\n      0x456c20636f6368652067616e61646f722065733a200000000000000000000000\n        /* \"#utility.yul\":19442:19443   */\n      0x00\n        /* \"#utility.yul\":19434:19440   */\n      dup3\n        /* \"#utility.yul\":19430:19444   */\n      add\n        /* \"#utility.yul\":19423:19470   */\n      mstore\n        /* \"#utility.yul\":19306:19477   */\n      pop\n      jump\t// out\n        /* \"#utility.yul\":19483:19605   */\n    tag_359:\n        /* \"#utility.yul\":19556:19580   */\n      tag_579\n        /* \"#utility.yul\":19574:19579   */\n      dup2\n        /* \"#utility.yul\":19556:19580   */\n      tag_405\n      jump\t// in\n    tag_579:\n        /* \"#utility.yul\":19549:19554   */\n      dup2\n        /* \"#utility.yul\":19546:19581   */\n      eq\n        /* \"#utility.yul\":19536:19599   */\n      tag_580\n      jumpi\n        /* \"#utility.yul\":19595:19596   */\n      0x00\n        /* \"#utility.yul\":19592:19593   */\n      dup1\n        /* \"#utility.yul\":19585:19597   */\n      revert\n        /* \"#utility.yul\":19536:19599   */\n    tag_580:\n        /* \"#utility.yul\":19483:19605   */\n      pop\n      jump\t// out\n        /* \"#utility.yul\":19611:19733   */\n    tag_369:\n        /* \"#utility.yul\":19684:19708   */\n      tag_582\n        /* \"#utility.yul\":19702:19707   */\n      dup2\n        /* \"#utility.yul\":19684:19708   */\n      tag_456\n      jump\t// in\n    tag_582:\n        /* \"#utility.yul\":19677:19682   */\n      dup2\n        /* \"#utility.yul\":19674:19709   */\n      eq\n        /* \"#utility.yul\":19664:19727   */\n      tag_583\n      jumpi\n        /* \"#utility.yul\":19723:19724   */\n      0x00\n        /* \"#utility.yul\":19720:19721   */\n      dup1\n        /* \"#utility.yul\":19713:19725   */\n      revert\n        /* \"#utility.yul\":19664:19727   */\n    tag_583:\n        /* \"#utility.yul\":19611:19733   */\n      pop\n      jump\t// out\n\n    auxdata: 0xa26469706673582212200f006b32d3bea071e90da26305a2223c32cf1f55e7ad8aa698a606cdf9fdb38c64736f6c63430008070033\n}\n",
				"bytecode": {
					"linkReferences": {},
					"object": "608060405260006001556000600255603c600355670de0b6b3a7640000600455670de0b6b3a76400006005553480156200003857600080fd5b50620000596200004d6200005f60201b60201c565b6200006760201b60201c565b6200012b565b600033905090565b60008060009054906101000a900473ffffffffffffffffffffffffffffffffffffffff169050816000806101000a81548173ffffffffffffffffffffffffffffffffffffffff021916908373ffffffffffffffffffffffffffffffffffffffff1602179055508173ffffffffffffffffffffffffffffffffffffffff168173ffffffffffffffffffffffffffffffffffffffff167f8be0079c531659141344cd1fd0a4f28419497f9722a3daafe3b4186f6b6457e060405160405180910390a35050565b612744806200013b6000396000f3fe6080604052600436106100c25760003560e01c8063715018a61161007f578063b2bdfa7b11610059578063b2bdfa7b14610279578063d735573d146102a4578063e172fca8146102e8578063f2fde38b14610311576100c2565b8063715018a6146101fa578063858b0554146102115780638da5cb5b1461024e576100c2565b8063049a5f65146100c757806317bde7a9146100f75780631c6743e4146101205780632458c5441461015d5780636a7d18161461019a5780636b6f0494146101ca575b600080fd5b6100e160048036038101906100dc9190611c7b565b61033a565b6040516100ee9190612071565b60405180910390f35b34801561010357600080fd5b5061011e60048036038101906101199190611c4e565b61049b565b005b34801561012c57600080fd5b5061014760048036038101906101429190611c4e565b61067f565b6040516101549190612194565b60405180910390f35b34801561016957600080fd5b50610184600480360381019061017f9190611d06565b610697565b6040516101919190612194565b60405180910390f35b6101b460048036038101906101af9190611c4e565b610979565b6040516101c19190612071565b60405180910390f35b6101e460048036038101906101df9190611dad565b610ace565b6040516101f19190612071565b60405180910390f35b34801561020657600080fd5b5061020f6113d6565b005b34801561021d57600080fd5b5061023860048036038101906102339190611dad565b61145e565b6040516102459190611fc3565b60405180910390f35b34801561025a57600080fd5b50610263611491565b6040516102709190611fc3565b60405180910390f35b34801561028557600080fd5b5061028e6114ba565b60405161029b9190611fc3565b60405180910390f35b3480156102b057600080fd5b506102cb60048036038101906102c69190611dad565b6114de565b6040516102df989796959493929190611fde565b60405180910390f35b3480156102f457600080fd5b5061030f600480360381019061030a9190611c4e565b6116fe565b005b34801561031d57600080fd5b5061033860048036038101906103339190611c4e565b6118a5565b005b60608373ffffffffffffffffffffffffffffffffffffffff163373ffffffffffffffffffffffffffffffffffffffff161461037457600080fd5b600554341461038257600080fd5b60005b600680549050811015610493573373ffffffffffffffffffffffffffffffffffffffff16600682815481106103bd576103bc61251e565b5b906000526020600020906008020160000160009054906101000a900473ffffffffffffffffffffffffffffffffffffffff1673ffffffffffffffffffffffffffffffffffffffff1614156104805783600682815481106104205761041f61251e565b5b90600052602060002090600802016001019080519060200190610444929190611ad1565b50826006828154811061045a5761045961251e565b5b9060005260206000209060080201600201908051906020019061047e929190611ad1565b505b808061048b906123b1565b915050610385565b509392505050565b60005b60068054905081101561067b578173ffffffffffffffffffffffffffffffffffffffff16600682815481106104d6576104d561251e565b5b906000526020600020906008020160000160009054906101000a900473ffffffffffffffffffffffffffffffffffffffff1673ffffffffffffffffffffffffffffffffffffffff1614156106685760405180602001604052806000815250600682815481106105485761054761251e565b5b9060005260206000209060080201600101908051906020019061056c929190611ad1565b5060405180602001604052806000815250600682815481106105915761059061251e565b5b906000526020600020906008020160020190805190602001906105b5929190611ad1565b5060068054806105c8576105c76124ef565b5b6001900381819060005260206000209060080201600080820160006101000a81549073ffffffffffffffffffffffffffffffffffffffff02191690556001820160006106149190611b57565b6002820160006106249190611b57565b6003820160006106349190611b57565b6004820160009055600582016000905560068201600090556007820160006101000a81549063ffffffff0219169055505090555b8080610673906123b1565b91505061049e565b5050565b60086020528060005260406000206000915090505481565b60006001600860003373ffffffffffffffffffffffffffffffffffffffff1673ffffffffffffffffffffffffffffffffffffffff168152602001908152602001600020541061071b576040517f08c379a0000000000000000000000000000000000000000000000000000000008152600401610712906120f4565b60405180910390fd5b60066040518061010001604052803373ffffffffffffffffffffffffffffffffffffffff1681526020018681526020018581526020018481526020016000815260200160008152602001600354426107739190612236565b63ffffffff168152602001600163ffffffff16815250908060018154018082558091505060019003906000526020600020906008020160009091909190915060008201518160000160006101000a81548173ffffffffffffffffffffffffffffffffffffffff021916908373ffffffffffffffffffffffffffffffffffffffff1602179055506020820151816001019080519060200190610815929190611ad1565b506040820151816002019080519060200190610832929190611ad1565b50606082015181600301908051906020019061084f929190611ad1565b506080820151816004015560a0820151816005015560c0820151816006015560e08201518160070160006101000a81548163ffffffff021916908363ffffffff160217905550505060006006805490509050336007600083815260200190815260200160002060006101000a81548173ffffffffffffffffffffffffffffffffffffffff021916908373ffffffffffffffffffffffffffffffffffffffff160217905550600860003373ffffffffffffffffffffffffffffffffffffffff1673ffffffffffffffffffffffffffffffffffffffff1681526020019081526020016000206000815480929190610943906123b1565b91905055506002600081548092919061095b906123b1565b9190505550600160025461096f919061228c565b9150509392505050565b6060600454341461098957600080fd5b60005b600680549050811015610ac7578273ffffffffffffffffffffffffffffffffffffffff16600682815481106109c4576109c361251e565b5b906000526020600020906008020160000160009054906101000a900473ffffffffffffffffffffffffffffffffffffffff1673ffffffffffffffffffffffffffffffffffffffff161415610ab45760068181548110610a2657610a2561251e565b5b9060005260206000209060080201600701600081819054906101000a900463ffffffff1680929190610a57906123fa565b91906101000a81548163ffffffff021916908363ffffffff160217905550506040518060400160405280601281526020017f48612073756269646f206465206e6976656c0000000000000000000000000000815250915050610ac9565b8080610abf906123b1565b91505061098c565b505b919050565b6060600160068054905011610b17577f6158fc8f21c8cc73ddf920956cc75d0e8a48b4fc85817a0ba89eb3b6d2a75441604051610b0a90612134565b60405180910390a16113d0565b813414610b2357600080fd5b60016000815480929190610b36906123b1565b9190505550600060068054905042600680549050600154604051602001610b5f93929190611f86565b6040516020818303038152906040528051906020012060001c610b829190612431565b905060006007600083815260200190815260200160002060009054906101000a900473ffffffffffffffffffffffffffffffffffffffff16905060016000815480929190610bcf906123b1565b91905055506000606490506000814283600154604051602001610bf493929190611f86565b6040516020818303038152906040528051906020012060001c610c179190612431565b905060005b6006805490508110156113ca5760068181548110610c3d57610c3c61251e565b5b906000526020600020906008020160000160009054906101000a900473ffffffffffffffffffffffffffffffffffffffff1673ffffffffffffffffffffffffffffffffffffffff163373ffffffffffffffffffffffffffffffffffffffff1614156113b75760068181548110610cb657610cb561251e565b5b90600052602060002090600802016005016000815480929190610cd8906123b1565b919050555060068581548110610cf157610cf061251e565b5b90600052602060002090600802016005016000815480929190610d13906123b1565b9190505550610d4260068281548110610d2f57610d2e61251e565b5b906000526020600020906008020161199d565b60068181548110610d5657610d5561251e565b5b906000526020600020906008020160070160009054906101000a900463ffffffff1663ffffffff1660068681548110610d9257610d9161251e565b5b906000526020600020906008020160070160009054906101000a900463ffffffff1663ffffffff161015610f9357603c8211610eb157610dd06119bc565b60068181548110610de457610de361251e565b5b90600052602060002090600802016004016000815480929190610e06906123b1565b919050555060068181548110610e1f57610e1e61251e565b5b9060005260206000209060080201600701600081819054906101000a900463ffffffff1680929190610e50906123fa565b91906101000a81548163ffffffff021916908363ffffffff160217905550506040518060400160405280600a81526020017f4861732067616e61646f00000000000000000000000000000000000000000000815250955050505050506113d1565b7f6158fc8f21c8cc73ddf920956cc75d0e8a48b4fc85817a0ba89eb3b6d2a75441604051610ede90612174565b60405180910390a13073ffffffffffffffffffffffffffffffffffffffff1663e172fca8856040518263ffffffff1660e01b8152600401610f1f9190611fc3565b600060405180830381600087803b158015610f3957600080fd5b505af1158015610f4d573d6000803e3d6000fd5b505050506040518060400160405280600b81526020017f486173207065726469646f000000000000000000000000000000000000000000815250955050505050506113d1565b60068181548110610fa757610fa661251e565b5b906000526020600020906008020160070160009054906101000a900463ffffffff1663ffffffff1660068681548110610fe357610fe261251e565b5b906000526020600020906008020160070160009054906101000a900463ffffffff1663ffffffff1614156111e45760328211611102576110216119bc565b600681815481106110355761103461251e565b5b90600052602060002090600802016004016000815480929190611057906123b1565b9190505550600681815481106110705761106f61251e565b5b9060005260206000209060080201600701600081819054906101000a900463ffffffff16809291906110a1906123fa565b91906101000a81548163ffffffff021916908363ffffffff160217905550506040518060400160405280600a81526020017f4861732067616e61646f00000000000000000000000000000000000000000000815250955050505050506113d1565b7f6158fc8f21c8cc73ddf920956cc75d0e8a48b4fc85817a0ba89eb3b6d2a7544160405161112f90612174565b60405180910390a13073ffffffffffffffffffffffffffffffffffffffff1663e172fca8856040518263ffffffff1660e01b81526004016111709190611fc3565b600060405180830381600087803b15801561118a57600080fd5b505af115801561119e573d6000803e3d6000fd5b505050506040518060400160405280600b81526020017f486173207065726469646f000000000000000000000000000000000000000000815250955050505050506113d1565b602882116112d5576111f46119bc565b600681815481106112085761120761251e565b5b9060005260206000209060080201600401600081548092919061122a906123b1565b9190505550600681815481106112435761124261251e565b5b9060005260206000209060080201600701600081819054906101000a900463ffffffff1680929190611274906123fa565b91906101000a81548163ffffffff021916908363ffffffff160217905550506040518060400160405280600a81526020017f4861732067616e61646f00000000000000000000000000000000000000000000815250955050505050506113d1565b7f6158fc8f21c8cc73ddf920956cc75d0e8a48b4fc85817a0ba89eb3b6d2a7544160405161130290612174565b60405180910390a13073ffffffffffffffffffffffffffffffffffffffff1663e172fca8856040518263ffffffff1660e01b81526004016113439190611fc3565b600060405180830381600087803b15801561135d57600080fd5b505af1158015611371573d6000803e3d6000fd5b505050506040518060400160405280600b81526020017f486173207065726469646f000000000000000000000000000000000000000000815250955050505050506113d1565b80806113c2906123b1565b915050610c1c565b50505050505b5b919050565b6113de611a05565b73ffffffffffffffffffffffffffffffffffffffff166113fc611491565b73ffffffffffffffffffffffffffffffffffffffff1614611452576040517f08c379a000000000000000000000000000000000000000000000000000000000815260040161144990612154565b60405180910390fd5b61145c6000611a0d565b565b60076020528060005260406000206000915054906101000a900473ffffffffffffffffffffffffffffffffffffffff1681565b60008060009054906101000a900473ffffffffffffffffffffffffffffffffffffffff16905090565b60008054906101000a900473ffffffffffffffffffffffffffffffffffffffff1681565b600681815481106114ee57600080fd5b90600052602060002090600802016000915090508060000160009054906101000a900473ffffffffffffffffffffffffffffffffffffffff16908060010180546115379061234e565b80601f01602080910402602001604051908101604052809291908181526020018280546115639061234e565b80156115b05780601f10611585576101008083540402835291602001916115b0565b820191906000526020600020905b81548152906001019060200180831161159357829003601f168201915b5050505050908060020180546115c59061234e565b80601f01602080910402602001604051908101604052809291908181526020018280546115f19061234e565b801561163e5780601f106116135761010080835404028352916020019161163e565b820191906000526020600020905b81548152906001019060200180831161162157829003601f168201915b5050505050908060030180546116539061234e565b80601f016020809104026020016040519081016040528092919081815260200182805461167f9061234e565b80156116cc5780601f106116a1576101008083540402835291602001916116cc565b820191906000526020600020905b8154815290600101906020018083116116af57829003601f168201915b5050505050908060040154908060050154908060060154908060070160009054906101000a900463ffffffff16905088565b60005b6006805490508110156118a1578173ffffffffffffffffffffffffffffffffffffffff16600682815481106117395761173861251e565b5b906000526020600020906008020160000160009054906101000a900473ffffffffffffffffffffffffffffffffffffffff1673ffffffffffffffffffffffffffffffffffffffff16141561188e577f20fdb8ab571bfbab79104bea84f9c31cb79c5ae45b5f515c1d6c8393e0028350600682815481106117bc576117bb61251e565b5b9060005260206000209060080201600201600683815481106117e1576117e061251e565b5b9060005260206000209060080201600101600684815481106118065761180561251e565b5b906000526020600020906008020160070160009054906101000a900463ffffffff166006858154811061183c5761183b61251e565b5b906000526020600020906008020160040154600686815481106118625761186161251e565b5b906000526020600020906008020160050154604051611885959493929190612093565b60405180910390a15b8080611899906123b1565b915050611701565b5050565b6118ad611a05565b73ffffffffffffffffffffffffffffffffffffffff166118cb611491565b73ffffffffffffffffffffffffffffffffffffffff1614611921576040517f08c379a000000000000000000000000000000000000000000000000000000000815260040161191890612154565b60405180910390fd5b600073ffffffffffffffffffffffffffffffffffffffff168173ffffffffffffffffffffffffffffffffffffffff161415611991576040517f08c379a000000000000000000000000000000000000000000000000000000000815260040161198890612114565b60405180910390fd5b61199a81611a0d565b50565b600354426119ab9190612236565b63ffffffff16816006018190555050565b3373ffffffffffffffffffffffffffffffffffffffff166108fc479081150290604051600060405180830381858888f19350505050158015611a02573d6000803e3d6000fd5b50565b600033905090565b60008060009054906101000a900473ffffffffffffffffffffffffffffffffffffffff169050816000806101000a81548173ffffffffffffffffffffffffffffffffffffffff021916908373ffffffffffffffffffffffffffffffffffffffff1602179055508173ffffffffffffffffffffffffffffffffffffffff168173ffffffffffffffffffffffffffffffffffffffff167f8be0079c531659141344cd1fd0a4f28419497f9722a3daafe3b4186f6b6457e060405160405180910390a35050565b828054611add9061234e565b90600052602060002090601f016020900481019282611aff5760008555611b46565b82601f10611b1857805160ff1916838001178555611b46565b82800160010185558215611b46579182015b82811115611b45578251825591602001919060010190611b2a565b5b509050611b539190611b97565b5090565b508054611b639061234e565b6000825580601f10611b755750611b94565b601f016020900490600052602060002090810190611b939190611b97565b5b50565b5b80821115611bb0576000816000905550600101611b98565b5090565b6000611bc7611bc2846121d4565b6121af565b905082815260208101848484011115611be357611be2612581565b5b611bee84828561230c565b509392505050565b600081359050611c05816126e0565b92915050565b600082601f830112611c2057611c1f61257c565b5b8135611c30848260208601611bb4565b91505092915050565b600081359050611c48816126f7565b92915050565b600060208284031215611c6457611c6361258b565b5b6000611c7284828501611bf6565b91505092915050565b600080600060608486031215611c9457611c9361258b565b5b6000611ca286828701611bf6565b935050602084013567ffffffffffffffff811115611cc357611cc2612586565b5b611ccf86828701611c0b565b925050604084013567ffffffffffffffff811115611cf057611cef612586565b5b611cfc86828701611c0b565b9150509250925092565b600080600060608486031215611d1f57611d1e61258b565b5b600084013567ffffffffffffffff811115611d3d57611d3c612586565b5b611d4986828701611c0b565b935050602084013567ffffffffffffffff811115611d6a57611d69612586565b5b611d7686828701611c0b565b925050604084013567ffffffffffffffff811115611d9757611d96612586565b5b611da386828701611c0b565b9150509250925092565b600060208284031215611dc357611dc261258b565b5b6000611dd184828501611c39565b91505092915050565b611de3816122c0565b82525050565b6000611df48261221a565b611dfe8185612225565b9350611e0e81856020860161231b565b611e1781612590565b840191505092915050565b60008154611e2f8161234e565b611e398186612225565b94506001821660008114611e545760018114611e6657611e99565b60ff1983168652602086019350611e99565b611e6f85612205565b60005b83811015611e9157815481890152600182019150602081019050611e72565b808801955050505b50505092915050565b6000611eaf602883612225565b9150611eba826125a1565b604082019050919050565b6000611ed2602683612225565b9150611edd826125f0565b604082019050919050565b6000611ef5603283612225565b9150611f008261263f565b604082019050919050565b6000611f18602083612225565b9150611f238261268e565b602082019050919050565b6000611f3b601583612225565b9150611f46826126b7565b602082019050919050565b611f5a816122f2565b82525050565b611f71611f6c826122f2565b612427565b82525050565b611f80816122fc565b82525050565b6000611f928286611f60565b602082019150611fa28285611f60565b602082019150611fb28284611f60565b602082019150819050949350505050565b6000602082019050611fd86000830184611dda565b92915050565b600061010082019050611ff4600083018b611dda565b8181036020830152612006818a611de9565b9050818103604083015261201a8189611de9565b9050818103606083015261202e8188611de9565b905061203d6080830187611f51565b61204a60a0830186611f51565b61205760c0830185611f51565b61206460e0830184611f77565b9998505050505050505050565b6000602082019050818103600083015261208b8184611de9565b905092915050565b600060a08201905081810360008301526120ad8188611e22565b905081810360208301526120c18187611e22565b90506120d06040830186611f77565b6120dd6060830185611f51565b6120ea6080830184611f51565b9695505050505050565b6000602082019050818103600083015261210d81611ea2565b9050919050565b6000602082019050818103600083015261212d81611ec5565b9050919050565b6000602082019050818103600083015261214d81611ee8565b9050919050565b6000602082019050818103600083015261216d81611f0b565b9050919050565b6000602082019050818103600083015261218d81611f2e565b9050919050565b60006020820190506121a96000830184611f51565b92915050565b60006121b96121ca565b90506121c58282612380565b919050565b6000604051905090565b600067ffffffffffffffff8211156121ef576121ee61254d565b5b6121f882612590565b9050602081019050919050565b60008190508160005260206000209050919050565b600081519050919050565b600082825260208201905092915050565b6000612241826122f2565b915061224c836122f2565b9250827fffffffffffffffffffffffffffffffffffffffffffffffffffffffffffffffff0382111561228157612280612462565b5b828201905092915050565b6000612297826122f2565b91506122a2836122f2565b9250828210156122b5576122b4612462565b5b828203905092915050565b60006122cb826122d2565b9050919050565b600073ffffffffffffffffffffffffffffffffffffffff82169050919050565b6000819050919050565b600063ffffffff82169050919050565b82818337600083830152505050565b60005b8381101561233957808201518184015260208101905061231e565b83811115612348576000848401525b50505050565b6000600282049050600182168061236657607f821691505b6020821081141561237a576123796124c0565b5b50919050565b61238982612590565b810181811067ffffffffffffffff821117156123a8576123a761254d565b5b80604052505050565b60006123bc826122f2565b91507fffffffffffffffffffffffffffffffffffffffffffffffffffffffffffffffff8214156123ef576123ee612462565b5b600182019050919050565b6000612405826122fc565b915063ffffffff82141561241c5761241b612462565b5b600182019050919050565b6000819050919050565b600061243c826122f2565b9150612447836122f2565b92508261245757612456612491565b5b828206905092915050565b7f4e487b7100000000000000000000000000000000000000000000000000000000600052601160045260246000fd5b7f4e487b7100000000000000000000000000000000000000000000000000000000600052601260045260246000fd5b7f4e487b7100000000000000000000000000000000000000000000000000000000600052602260045260246000fd5b7f4e487b7100000000000000000000000000000000000000000000000000000000600052603160045260246000fd5b7f4e487b7100000000000000000000000000000000000000000000000000000000600052603260045260246000fd5b7f4e487b7100000000000000000000000000000000000000000000000000000000600052604160045260246000fd5b600080fd5b600080fd5b600080fd5b600080fd5b6000601f19601f8301169050919050565b7f536f6c6f2073652070756564652074656e657220756e20636f63686520706f7260008201527f20706572736f6e61000000000000000000000000000000000000000000000000602082015250565b7f4f776e61626c653a206e6577206f776e657220697320746865207a65726f206160008201527f6464726573730000000000000000000000000000000000000000000000000000602082015250565b7f4e6f2068617920636f6368657320737566696369656e7465732070617261206960008201527f6e696369617220756e6120636172726572610000000000000000000000000000602082015250565b7f4f776e61626c653a2063616c6c6572206973206e6f7420746865206f776e6572600082015250565b7f456c20636f6368652067616e61646f722065733a200000000000000000000000600082015250565b6126e9816122c0565b81146126f457600080fd5b50565b612700816122f2565b811461270b57600080fd5b5056fea26469706673582212200f006b32d3bea071e90da26305a2223c32cf1f55e7ad8aa698a606cdf9fdb38c64736f6c63430008070033",
					"opcodes": "PUSH1 0x80 PUSH1 0x40 MSTORE PUSH1 0x0 PUSH1 0x1 SSTORE PUSH1 0x0 PUSH1 0x2 SSTORE PUSH1 0x3C PUSH1 0x3 SSTORE PUSH8 0xDE0B6B3A7640000 PUSH1 0x4 SSTORE PUSH8 0xDE0B6B3A7640000 PUSH1 0x5 SSTORE CALLVALUE DUP1 ISZERO PUSH3 0x38 JUMPI PUSH1 0x0 DUP1 REVERT JUMPDEST POP PUSH3 0x59 PUSH3 0x4D PUSH3 0x5F PUSH1 0x20 SHL PUSH1 0x20 SHR JUMP JUMPDEST PUSH3 0x67 PUSH1 0x20 SHL PUSH1 0x20 SHR JUMP JUMPDEST PUSH3 0x12B JUMP JUMPDEST PUSH1 0x0 CALLER SWAP1 POP SWAP1 JUMP JUMPDEST PUSH1 0x0 DUP1 PUSH1 0x0 SWAP1 SLOAD SWAP1 PUSH2 0x100 EXP SWAP1 DIV PUSH20 0xFFFFFFFFFFFFFFFFFFFFFFFFFFFFFFFFFFFFFFFF AND SWAP1 POP DUP2 PUSH1 0x0 DUP1 PUSH2 0x100 EXP DUP2 SLOAD DUP2 PUSH20 0xFFFFFFFFFFFFFFFFFFFFFFFFFFFFFFFFFFFFFFFF MUL NOT AND SWAP1 DUP4 PUSH20 0xFFFFFFFFFFFFFFFFFFFFFFFFFFFFFFFFFFFFFFFF AND MUL OR SWAP1 SSTORE POP DUP2 PUSH20 0xFFFFFFFFFFFFFFFFFFFFFFFFFFFFFFFFFFFFFFFF AND DUP2 PUSH20 0xFFFFFFFFFFFFFFFFFFFFFFFFFFFFFFFFFFFFFFFF AND PUSH32 0x8BE0079C531659141344CD1FD0A4F28419497F9722A3DAAFE3B4186F6B6457E0 PUSH1 0x40 MLOAD PUSH1 0x40 MLOAD DUP1 SWAP2 SUB SWAP1 LOG3 POP POP JUMP JUMPDEST PUSH2 0x2744 DUP1 PUSH3 0x13B PUSH1 0x0 CODECOPY PUSH1 0x0 RETURN INVALID PUSH1 0x80 PUSH1 0x40 MSTORE PUSH1 0x4 CALLDATASIZE LT PUSH2 0xC2 JUMPI PUSH1 0x0 CALLDATALOAD PUSH1 0xE0 SHR DUP1 PUSH4 0x715018A6 GT PUSH2 0x7F JUMPI DUP1 PUSH4 0xB2BDFA7B GT PUSH2 0x59 JUMPI DUP1 PUSH4 0xB2BDFA7B EQ PUSH2 0x279 JUMPI DUP1 PUSH4 0xD735573D EQ PUSH2 0x2A4 JUMPI DUP1 PUSH4 0xE172FCA8 EQ PUSH2 0x2E8 JUMPI DUP1 PUSH4 0xF2FDE38B EQ PUSH2 0x311 JUMPI PUSH2 0xC2 JUMP JUMPDEST DUP1 PUSH4 0x715018A6 EQ PUSH2 0x1FA JUMPI DUP1 PUSH4 0x858B0554 EQ PUSH2 0x211 JUMPI DUP1 PUSH4 0x8DA5CB5B EQ PUSH2 0x24E JUMPI PUSH2 0xC2 JUMP JUMPDEST DUP1 PUSH4 0x49A5F65 EQ PUSH2 0xC7 JUMPI DUP1 PUSH4 0x17BDE7A9 EQ PUSH2 0xF7 JUMPI DUP1 PUSH4 0x1C6743E4 EQ PUSH2 0x120 JUMPI DUP1 PUSH4 0x2458C544 EQ PUSH2 0x15D JUMPI DUP1 PUSH4 0x6A7D1816 EQ PUSH2 0x19A JUMPI DUP1 PUSH4 0x6B6F0494 EQ PUSH2 0x1CA JUMPI JUMPDEST PUSH1 0x0 DUP1 REVERT JUMPDEST PUSH2 0xE1 PUSH1 0x4 DUP1 CALLDATASIZE SUB DUP2 ADD SWAP1 PUSH2 0xDC SWAP2 SWAP1 PUSH2 0x1C7B JUMP JUMPDEST PUSH2 0x33A JUMP JUMPDEST PUSH1 0x40 MLOAD PUSH2 0xEE SWAP2 SWAP1 PUSH2 0x2071 JUMP JUMPDEST PUSH1 0x40 MLOAD DUP1 SWAP2 SUB SWAP1 RETURN JUMPDEST CALLVALUE DUP1 ISZERO PUSH2 0x103 JUMPI PUSH1 0x0 DUP1 REVERT JUMPDEST POP PUSH2 0x11E PUSH1 0x4 DUP1 CALLDATASIZE SUB DUP2 ADD SWAP1 PUSH2 0x119 SWAP2 SWAP1 PUSH2 0x1C4E JUMP JUMPDEST PUSH2 0x49B JUMP JUMPDEST STOP JUMPDEST CALLVALUE DUP1 ISZERO PUSH2 0x12C JUMPI PUSH1 0x0 DUP1 REVERT JUMPDEST POP PUSH2 0x147 PUSH1 0x4 DUP1 CALLDATASIZE SUB DUP2 ADD SWAP1 PUSH2 0x142 SWAP2 SWAP1 PUSH2 0x1C4E JUMP JUMPDEST PUSH2 0x67F JUMP JUMPDEST PUSH1 0x40 MLOAD PUSH2 0x154 SWAP2 SWAP1 PUSH2 0x2194 JUMP JUMPDEST PUSH1 0x40 MLOAD DUP1 SWAP2 SUB SWAP1 RETURN JUMPDEST CALLVALUE DUP1 ISZERO PUSH2 0x169 JUMPI PUSH1 0x0 DUP1 REVERT JUMPDEST POP PUSH2 0x184 PUSH1 0x4 DUP1 CALLDATASIZE SUB DUP2 ADD SWAP1 PUSH2 0x17F SWAP2 SWAP1 PUSH2 0x1D06 JUMP JUMPDEST PUSH2 0x697 JUMP JUMPDEST PUSH1 0x40 MLOAD PUSH2 0x191 SWAP2 SWAP1 PUSH2 0x2194 JUMP JUMPDEST PUSH1 0x40 MLOAD DUP1 SWAP2 SUB SWAP1 RETURN JUMPDEST PUSH2 0x1B4 PUSH1 0x4 DUP1 CALLDATASIZE SUB DUP2 ADD SWAP1 PUSH2 0x1AF SWAP2 SWAP1 PUSH2 0x1C4E JUMP JUMPDEST PUSH2 0x979 JUMP JUMPDEST PUSH1 0x40 MLOAD PUSH2 0x1C1 SWAP2 SWAP1 PUSH2 0x2071 JUMP JUMPDEST PUSH1 0x40 MLOAD DUP1 SWAP2 SUB SWAP1 RETURN JUMPDEST PUSH2 0x1E4 PUSH1 0x4 DUP1 CALLDATASIZE SUB DUP2 ADD SWAP1 PUSH2 0x1DF SWAP2 SWAP1 PUSH2 0x1DAD JUMP JUMPDEST PUSH2 0xACE JUMP JUMPDEST PUSH1 0x40 MLOAD PUSH2 0x1F1 SWAP2 SWAP1 PUSH2 0x2071 JUMP JUMPDEST PUSH1 0x40 MLOAD DUP1 SWAP2 SUB SWAP1 RETURN JUMPDEST CALLVALUE DUP1 ISZERO PUSH2 0x206 JUMPI PUSH1 0x0 DUP1 REVERT JUMPDEST POP PUSH2 0x20F PUSH2 0x13D6 JUMP JUMPDEST STOP JUMPDEST CALLVALUE DUP1 ISZERO PUSH2 0x21D JUMPI PUSH1 0x0 DUP1 REVERT JUMPDEST POP PUSH2 0x238 PUSH1 0x4 DUP1 CALLDATASIZE SUB DUP2 ADD SWAP1 PUSH2 0x233 SWAP2 SWAP1 PUSH2 0x1DAD JUMP JUMPDEST PUSH2 0x145E JUMP JUMPDEST PUSH1 0x40 MLOAD PUSH2 0x245 SWAP2 SWAP1 PUSH2 0x1FC3 JUMP JUMPDEST PUSH1 0x40 MLOAD DUP1 SWAP2 SUB SWAP1 RETURN JUMPDEST CALLVALUE DUP1 ISZERO PUSH2 0x25A JUMPI PUSH1 0x0 DUP1 REVERT JUMPDEST POP PUSH2 0x263 PUSH2 0x1491 JUMP JUMPDEST PUSH1 0x40 MLOAD PUSH2 0x270 SWAP2 SWAP1 PUSH2 0x1FC3 JUMP JUMPDEST PUSH1 0x40 MLOAD DUP1 SWAP2 SUB SWAP1 RETURN JUMPDEST CALLVALUE DUP1 ISZERO PUSH2 0x285 JUMPI PUSH1 0x0 DUP1 REVERT JUMPDEST POP PUSH2 0x28E PUSH2 0x14BA JUMP JUMPDEST PUSH1 0x40 MLOAD PUSH2 0x29B SWAP2 SWAP1 PUSH2 0x1FC3 JUMP JUMPDEST PUSH1 0x40 MLOAD DUP1 SWAP2 SUB SWAP1 RETURN JUMPDEST CALLVALUE DUP1 ISZERO PUSH2 0x2B0 JUMPI PUSH1 0x0 DUP1 REVERT JUMPDEST POP PUSH2 0x2CB PUSH1 0x4 DUP1 CALLDATASIZE SUB DUP2 ADD SWAP1 PUSH2 0x2C6 SWAP2 SWAP1 PUSH2 0x1DAD JUMP JUMPDEST PUSH2 0x14DE JUMP JUMPDEST PUSH1 0x40 MLOAD PUSH2 0x2DF SWAP9 SWAP8 SWAP7 SWAP6 SWAP5 SWAP4 SWAP3 SWAP2 SWAP1 PUSH2 0x1FDE JUMP JUMPDEST PUSH1 0x40 MLOAD DUP1 SWAP2 SUB SWAP1 RETURN JUMPDEST CALLVALUE DUP1 ISZERO PUSH2 0x2F4 JUMPI PUSH1 0x0 DUP1 REVERT JUMPDEST POP PUSH2 0x30F PUSH1 0x4 DUP1 CALLDATASIZE SUB DUP2 ADD SWAP1 PUSH2 0x30A SWAP2 SWAP1 PUSH2 0x1C4E JUMP JUMPDEST PUSH2 0x16FE JUMP JUMPDEST STOP JUMPDEST CALLVALUE DUP1 ISZERO PUSH2 0x31D JUMPI PUSH1 0x0 DUP1 REVERT JUMPDEST POP PUSH2 0x338 PUSH1 0x4 DUP1 CALLDATASIZE SUB DUP2 ADD SWAP1 PUSH2 0x333 SWAP2 SWAP1 PUSH2 0x1C4E JUMP JUMPDEST PUSH2 0x18A5 JUMP JUMPDEST STOP JUMPDEST PUSH1 0x60 DUP4 PUSH20 0xFFFFFFFFFFFFFFFFFFFFFFFFFFFFFFFFFFFFFFFF AND CALLER PUSH20 0xFFFFFFFFFFFFFFFFFFFFFFFFFFFFFFFFFFFFFFFF AND EQ PUSH2 0x374 JUMPI PUSH1 0x0 DUP1 REVERT JUMPDEST PUSH1 0x5 SLOAD CALLVALUE EQ PUSH2 0x382 JUMPI PUSH1 0x0 DUP1 REVERT JUMPDEST PUSH1 0x0 JUMPDEST PUSH1 0x6 DUP1 SLOAD SWAP1 POP DUP2 LT ISZERO PUSH2 0x493 JUMPI CALLER PUSH20 0xFFFFFFFFFFFFFFFFFFFFFFFFFFFFFFFFFFFFFFFF AND PUSH1 0x6 DUP3 DUP2 SLOAD DUP2 LT PUSH2 0x3BD JUMPI PUSH2 0x3BC PUSH2 0x251E JUMP JUMPDEST JUMPDEST SWAP1 PUSH1 0x0 MSTORE PUSH1 0x20 PUSH1 0x0 KECCAK256 SWAP1 PUSH1 0x8 MUL ADD PUSH1 0x0 ADD PUSH1 0x0 SWAP1 SLOAD SWAP1 PUSH2 0x100 EXP SWAP1 DIV PUSH20 0xFFFFFFFFFFFFFFFFFFFFFFFFFFFFFFFFFFFFFFFF AND PUSH20 0xFFFFFFFFFFFFFFFFFFFFFFFFFFFFFFFFFFFFFFFF AND EQ ISZERO PUSH2 0x480 JUMPI DUP4 PUSH1 0x6 DUP3 DUP2 SLOAD DUP2 LT PUSH2 0x420 JUMPI PUSH2 0x41F PUSH2 0x251E JUMP JUMPDEST JUMPDEST SWAP1 PUSH1 0x0 MSTORE PUSH1 0x20 PUSH1 0x0 KECCAK256 SWAP1 PUSH1 0x8 MUL ADD PUSH1 0x1 ADD SWAP1 DUP1 MLOAD SWAP1 PUSH1 0x20 ADD SWAP1 PUSH2 0x444 SWAP3 SWAP2 SWAP1 PUSH2 0x1AD1 JUMP JUMPDEST POP DUP3 PUSH1 0x6 DUP3 DUP2 SLOAD DUP2 LT PUSH2 0x45A JUMPI PUSH2 0x459 PUSH2 0x251E JUMP JUMPDEST JUMPDEST SWAP1 PUSH1 0x0 MSTORE PUSH1 0x20 PUSH1 0x0 KECCAK256 SWAP1 PUSH1 0x8 MUL ADD PUSH1 0x2 ADD SWAP1 DUP1 MLOAD SWAP1 PUSH1 0x20 ADD SWAP1 PUSH2 0x47E SWAP3 SWAP2 SWAP1 PUSH2 0x1AD1 JUMP JUMPDEST POP JUMPDEST DUP1 DUP1 PUSH2 0x48B SWAP1 PUSH2 0x23B1 JUMP JUMPDEST SWAP2 POP POP PUSH2 0x385 JUMP JUMPDEST POP SWAP4 SWAP3 POP POP POP JUMP JUMPDEST PUSH1 0x0 JUMPDEST PUSH1 0x6 DUP1 SLOAD SWAP1 POP DUP2 LT ISZERO PUSH2 0x67B JUMPI DUP2 PUSH20 0xFFFFFFFFFFFFFFFFFFFFFFFFFFFFFFFFFFFFFFFF AND PUSH1 0x6 DUP3 DUP2 SLOAD DUP2 LT PUSH2 0x4D6 JUMPI PUSH2 0x4D5 PUSH2 0x251E JUMP JUMPDEST JUMPDEST SWAP1 PUSH1 0x0 MSTORE PUSH1 0x20 PUSH1 0x0 KECCAK256 SWAP1 PUSH1 0x8 MUL ADD PUSH1 0x0 ADD PUSH1 0x0 SWAP1 SLOAD SWAP1 PUSH2 0x100 EXP SWAP1 DIV PUSH20 0xFFFFFFFFFFFFFFFFFFFFFFFFFFFFFFFFFFFFFFFF AND PUSH20 0xFFFFFFFFFFFFFFFFFFFFFFFFFFFFFFFFFFFFFFFF AND EQ ISZERO PUSH2 0x668 JUMPI PUSH1 0x40 MLOAD DUP1 PUSH1 0x20 ADD PUSH1 0x40 MSTORE DUP1 PUSH1 0x0 DUP2 MSTORE POP PUSH1 0x6 DUP3 DUP2 SLOAD DUP2 LT PUSH2 0x548 JUMPI PUSH2 0x547 PUSH2 0x251E JUMP JUMPDEST JUMPDEST SWAP1 PUSH1 0x0 MSTORE PUSH1 0x20 PUSH1 0x0 KECCAK256 SWAP1 PUSH1 0x8 MUL ADD PUSH1 0x1 ADD SWAP1 DUP1 MLOAD SWAP1 PUSH1 0x20 ADD SWAP1 PUSH2 0x56C SWAP3 SWAP2 SWAP1 PUSH2 0x1AD1 JUMP JUMPDEST POP PUSH1 0x40 MLOAD DUP1 PUSH1 0x20 ADD PUSH1 0x40 MSTORE DUP1 PUSH1 0x0 DUP2 MSTORE POP PUSH1 0x6 DUP3 DUP2 SLOAD DUP2 LT PUSH2 0x591 JUMPI PUSH2 0x590 PUSH2 0x251E JUMP JUMPDEST JUMPDEST SWAP1 PUSH1 0x0 MSTORE PUSH1 0x20 PUSH1 0x0 KECCAK256 SWAP1 PUSH1 0x8 MUL ADD PUSH1 0x2 ADD SWAP1 DUP1 MLOAD SWAP1 PUSH1 0x20 ADD SWAP1 PUSH2 0x5B5 SWAP3 SWAP2 SWAP1 PUSH2 0x1AD1 JUMP JUMPDEST POP PUSH1 0x6 DUP1 SLOAD DUP1 PUSH2 0x5C8 JUMPI PUSH2 0x5C7 PUSH2 0x24EF JUMP JUMPDEST JUMPDEST PUSH1 0x1 SWAP1 SUB DUP2 DUP2 SWAP1 PUSH1 0x0 MSTORE PUSH1 0x20 PUSH1 0x0 KECCAK256 SWAP1 PUSH1 0x8 MUL ADD PUSH1 0x0 DUP1 DUP3 ADD PUSH1 0x0 PUSH2 0x100 EXP DUP2 SLOAD SWAP1 PUSH20 0xFFFFFFFFFFFFFFFFFFFFFFFFFFFFFFFFFFFFFFFF MUL NOT AND SWAP1 SSTORE PUSH1 0x1 DUP3 ADD PUSH1 0x0 PUSH2 0x614 SWAP2 SWAP1 PUSH2 0x1B57 JUMP JUMPDEST PUSH1 0x2 DUP3 ADD PUSH1 0x0 PUSH2 0x624 SWAP2 SWAP1 PUSH2 0x1B57 JUMP JUMPDEST PUSH1 0x3 DUP3 ADD PUSH1 0x0 PUSH2 0x634 SWAP2 SWAP1 PUSH2 0x1B57 JUMP JUMPDEST PUSH1 0x4 DUP3 ADD PUSH1 0x0 SWAP1 SSTORE PUSH1 0x5 DUP3 ADD PUSH1 0x0 SWAP1 SSTORE PUSH1 0x6 DUP3 ADD PUSH1 0x0 SWAP1 SSTORE PUSH1 0x7 DUP3 ADD PUSH1 0x0 PUSH2 0x100 EXP DUP2 SLOAD SWAP1 PUSH4 0xFFFFFFFF MUL NOT AND SWAP1 SSTORE POP POP SWAP1 SSTORE JUMPDEST DUP1 DUP1 PUSH2 0x673 SWAP1 PUSH2 0x23B1 JUMP JUMPDEST SWAP2 POP POP PUSH2 0x49E JUMP JUMPDEST POP POP JUMP JUMPDEST PUSH1 0x8 PUSH1 0x20 MSTORE DUP1 PUSH1 0x0 MSTORE PUSH1 0x40 PUSH1 0x0 KECCAK256 PUSH1 0x0 SWAP2 POP SWAP1 POP SLOAD DUP2 JUMP JUMPDEST PUSH1 0x0 PUSH1 0x1 PUSH1 0x8 PUSH1 0x0 CALLER PUSH20 0xFFFFFFFFFFFFFFFFFFFFFFFFFFFFFFFFFFFFFFFF AND PUSH20 0xFFFFFFFFFFFFFFFFFFFFFFFFFFFFFFFFFFFFFFFF AND DUP2 MSTORE PUSH1 0x20 ADD SWAP1 DUP2 MSTORE PUSH1 0x20 ADD PUSH1 0x0 KECCAK256 SLOAD LT PUSH2 0x71B JUMPI PUSH1 0x40 MLOAD PUSH32 0x8C379A000000000000000000000000000000000000000000000000000000000 DUP2 MSTORE PUSH1 0x4 ADD PUSH2 0x712 SWAP1 PUSH2 0x20F4 JUMP JUMPDEST PUSH1 0x40 MLOAD DUP1 SWAP2 SUB SWAP1 REVERT JUMPDEST PUSH1 0x6 PUSH1 0x40 MLOAD DUP1 PUSH2 0x100 ADD PUSH1 0x40 MSTORE DUP1 CALLER PUSH20 0xFFFFFFFFFFFFFFFFFFFFFFFFFFFFFFFFFFFFFFFF AND DUP2 MSTORE PUSH1 0x20 ADD DUP7 DUP2 MSTORE PUSH1 0x20 ADD DUP6 DUP2 MSTORE PUSH1 0x20 ADD DUP5 DUP2 MSTORE PUSH1 0x20 ADD PUSH1 0x0 DUP2 MSTORE PUSH1 0x20 ADD PUSH1 0x0 DUP2 MSTORE PUSH1 0x20 ADD PUSH1 0x3 SLOAD TIMESTAMP PUSH2 0x773 SWAP2 SWAP1 PUSH2 0x2236 JUMP JUMPDEST PUSH4 0xFFFFFFFF AND DUP2 MSTORE PUSH1 0x20 ADD PUSH1 0x1 PUSH4 0xFFFFFFFF AND DUP2 MSTORE POP SWAP1 DUP1 PUSH1 0x1 DUP2 SLOAD ADD DUP1 DUP3 SSTORE DUP1 SWAP2 POP POP PUSH1 0x1 SWAP1 SUB SWAP1 PUSH1 0x0 MSTORE PUSH1 0x20 PUSH1 0x0 KECCAK256 SWAP1 PUSH1 0x8 MUL ADD PUSH1 0x0 SWAP1 SWAP2 SWAP1 SWAP2 SWAP1 SWAP2 POP PUSH1 0x0 DUP3 ADD MLOAD DUP2 PUSH1 0x0 ADD PUSH1 0x0 PUSH2 0x100 EXP DUP2 SLOAD DUP2 PUSH20 0xFFFFFFFFFFFFFFFFFFFFFFFFFFFFFFFFFFFFFFFF MUL NOT AND SWAP1 DUP4 PUSH20 0xFFFFFFFFFFFFFFFFFFFFFFFFFFFFFFFFFFFFFFFF AND MUL OR SWAP1 SSTORE POP PUSH1 0x20 DUP3 ADD MLOAD DUP2 PUSH1 0x1 ADD SWAP1 DUP1 MLOAD SWAP1 PUSH1 0x20 ADD SWAP1 PUSH2 0x815 SWAP3 SWAP2 SWAP1 PUSH2 0x1AD1 JUMP JUMPDEST POP PUSH1 0x40 DUP3 ADD MLOAD DUP2 PUSH1 0x2 ADD SWAP1 DUP1 MLOAD SWAP1 PUSH1 0x20 ADD SWAP1 PUSH2 0x832 SWAP3 SWAP2 SWAP1 PUSH2 0x1AD1 JUMP JUMPDEST POP PUSH1 0x60 DUP3 ADD MLOAD DUP2 PUSH1 0x3 ADD SWAP1 DUP1 MLOAD SWAP1 PUSH1 0x20 ADD SWAP1 PUSH2 0x84F SWAP3 SWAP2 SWAP1 PUSH2 0x1AD1 JUMP JUMPDEST POP PUSH1 0x80 DUP3 ADD MLOAD DUP2 PUSH1 0x4 ADD SSTORE PUSH1 0xA0 DUP3 ADD MLOAD DUP2 PUSH1 0x5 ADD SSTORE PUSH1 0xC0 DUP3 ADD MLOAD DUP2 PUSH1 0x6 ADD SSTORE PUSH1 0xE0 DUP3 ADD MLOAD DUP2 PUSH1 0x7 ADD PUSH1 0x0 PUSH2 0x100 EXP DUP2 SLOAD DUP2 PUSH4 0xFFFFFFFF MUL NOT AND SWAP1 DUP4 PUSH4 0xFFFFFFFF AND MUL OR SWAP1 SSTORE POP POP POP PUSH1 0x0 PUSH1 0x6 DUP1 SLOAD SWAP1 POP SWAP1 POP CALLER PUSH1 0x7 PUSH1 0x0 DUP4 DUP2 MSTORE PUSH1 0x20 ADD SWAP1 DUP2 MSTORE PUSH1 0x20 ADD PUSH1 0x0 KECCAK256 PUSH1 0x0 PUSH2 0x100 EXP DUP2 SLOAD DUP2 PUSH20 0xFFFFFFFFFFFFFFFFFFFFFFFFFFFFFFFFFFFFFFFF MUL NOT AND SWAP1 DUP4 PUSH20 0xFFFFFFFFFFFFFFFFFFFFFFFFFFFFFFFFFFFFFFFF AND MUL OR SWAP1 SSTORE POP PUSH1 0x8 PUSH1 0x0 CALLER PUSH20 0xFFFFFFFFFFFFFFFFFFFFFFFFFFFFFFFFFFFFFFFF AND PUSH20 0xFFFFFFFFFFFFFFFFFFFFFFFFFFFFFFFFFFFFFFFF AND DUP2 MSTORE PUSH1 0x20 ADD SWAP1 DUP2 MSTORE PUSH1 0x20 ADD PUSH1 0x0 KECCAK256 PUSH1 0x0 DUP2 SLOAD DUP1 SWAP3 SWAP2 SWAP1 PUSH2 0x943 SWAP1 PUSH2 0x23B1 JUMP JUMPDEST SWAP2 SWAP1 POP SSTORE POP PUSH1 0x2 PUSH1 0x0 DUP2 SLOAD DUP1 SWAP3 SWAP2 SWAP1 PUSH2 0x95B SWAP1 PUSH2 0x23B1 JUMP JUMPDEST SWAP2 SWAP1 POP SSTORE POP PUSH1 0x1 PUSH1 0x2 SLOAD PUSH2 0x96F SWAP2 SWAP1 PUSH2 0x228C JUMP JUMPDEST SWAP2 POP POP SWAP4 SWAP3 POP POP POP JUMP JUMPDEST PUSH1 0x60 PUSH1 0x4 SLOAD CALLVALUE EQ PUSH2 0x989 JUMPI PUSH1 0x0 DUP1 REVERT JUMPDEST PUSH1 0x0 JUMPDEST PUSH1 0x6 DUP1 SLOAD SWAP1 POP DUP2 LT ISZERO PUSH2 0xAC7 JUMPI DUP3 PUSH20 0xFFFFFFFFFFFFFFFFFFFFFFFFFFFFFFFFFFFFFFFF AND PUSH1 0x6 DUP3 DUP2 SLOAD DUP2 LT PUSH2 0x9C4 JUMPI PUSH2 0x9C3 PUSH2 0x251E JUMP JUMPDEST JUMPDEST SWAP1 PUSH1 0x0 MSTORE PUSH1 0x20 PUSH1 0x0 KECCAK256 SWAP1 PUSH1 0x8 MUL ADD PUSH1 0x0 ADD PUSH1 0x0 SWAP1 SLOAD SWAP1 PUSH2 0x100 EXP SWAP1 DIV PUSH20 0xFFFFFFFFFFFFFFFFFFFFFFFFFFFFFFFFFFFFFFFF AND PUSH20 0xFFFFFFFFFFFFFFFFFFFFFFFFFFFFFFFFFFFFFFFF AND EQ ISZERO PUSH2 0xAB4 JUMPI PUSH1 0x6 DUP2 DUP2 SLOAD DUP2 LT PUSH2 0xA26 JUMPI PUSH2 0xA25 PUSH2 0x251E JUMP JUMPDEST JUMPDEST SWAP1 PUSH1 0x0 MSTORE PUSH1 0x20 PUSH1 0x0 KECCAK256 SWAP1 PUSH1 0x8 MUL ADD PUSH1 0x7 ADD PUSH1 0x0 DUP2 DUP2 SWAP1 SLOAD SWAP1 PUSH2 0x100 EXP SWAP1 DIV PUSH4 0xFFFFFFFF AND DUP1 SWAP3 SWAP2 SWAP1 PUSH2 0xA57 SWAP1 PUSH2 0x23FA JUMP JUMPDEST SWAP2 SWAP1 PUSH2 0x100 EXP DUP2 SLOAD DUP2 PUSH4 0xFFFFFFFF MUL NOT AND SWAP1 DUP4 PUSH4 0xFFFFFFFF AND MUL OR SWAP1 SSTORE POP POP PUSH1 0x40 MLOAD DUP1 PUSH1 0x40 ADD PUSH1 0x40 MSTORE DUP1 PUSH1 0x12 DUP2 MSTORE PUSH1 0x20 ADD PUSH32 0x48612073756269646F206465206E6976656C0000000000000000000000000000 DUP2 MSTORE POP SWAP2 POP POP PUSH2 0xAC9 JUMP JUMPDEST DUP1 DUP1 PUSH2 0xABF SWAP1 PUSH2 0x23B1 JUMP JUMPDEST SWAP2 POP POP PUSH2 0x98C JUMP JUMPDEST POP JUMPDEST SWAP2 SWAP1 POP JUMP JUMPDEST PUSH1 0x60 PUSH1 0x1 PUSH1 0x6 DUP1 SLOAD SWAP1 POP GT PUSH2 0xB17 JUMPI PUSH32 0x6158FC8F21C8CC73DDF920956CC75D0E8A48B4FC85817A0BA89EB3B6D2A75441 PUSH1 0x40 MLOAD PUSH2 0xB0A SWAP1 PUSH2 0x2134 JUMP JUMPDEST PUSH1 0x40 MLOAD DUP1 SWAP2 SUB SWAP1 LOG1 PUSH2 0x13D0 JUMP JUMPDEST DUP2 CALLVALUE EQ PUSH2 0xB23 JUMPI PUSH1 0x0 DUP1 REVERT JUMPDEST PUSH1 0x1 PUSH1 0x0 DUP2 SLOAD DUP1 SWAP3 SWAP2 SWAP1 PUSH2 0xB36 SWAP1 PUSH2 0x23B1 JUMP JUMPDEST SWAP2 SWAP1 POP SSTORE POP PUSH1 0x0 PUSH1 0x6 DUP1 SLOAD SWAP1 POP TIMESTAMP PUSH1 0x6 DUP1 SLOAD SWAP1 POP PUSH1 0x1 SLOAD PUSH1 0x40 MLOAD PUSH1 0x20 ADD PUSH2 0xB5F SWAP4 SWAP3 SWAP2 SWAP1 PUSH2 0x1F86 JUMP JUMPDEST PUSH1 0x40 MLOAD PUSH1 0x20 DUP2 DUP4 SUB SUB DUP2 MSTORE SWAP1 PUSH1 0x40 MSTORE DUP1 MLOAD SWAP1 PUSH1 0x20 ADD KECCAK256 PUSH1 0x0 SHR PUSH2 0xB82 SWAP2 SWAP1 PUSH2 0x2431 JUMP JUMPDEST SWAP1 POP PUSH1 0x0 PUSH1 0x7 PUSH1 0x0 DUP4 DUP2 MSTORE PUSH1 0x20 ADD SWAP1 DUP2 MSTORE PUSH1 0x20 ADD PUSH1 0x0 KECCAK256 PUSH1 0x0 SWAP1 SLOAD SWAP1 PUSH2 0x100 EXP SWAP1 DIV PUSH20 0xFFFFFFFFFFFFFFFFFFFFFFFFFFFFFFFFFFFFFFFF AND SWAP1 POP PUSH1 0x1 PUSH1 0x0 DUP2 SLOAD DUP1 SWAP3 SWAP2 SWAP1 PUSH2 0xBCF SWAP1 PUSH2 0x23B1 JUMP JUMPDEST SWAP2 SWAP1 POP SSTORE POP PUSH1 0x0 PUSH1 0x64 SWAP1 POP PUSH1 0x0 DUP2 TIMESTAMP DUP4 PUSH1 0x1 SLOAD PUSH1 0x40 MLOAD PUSH1 0x20 ADD PUSH2 0xBF4 SWAP4 SWAP3 SWAP2 SWAP1 PUSH2 0x1F86 JUMP JUMPDEST PUSH1 0x40 MLOAD PUSH1 0x20 DUP2 DUP4 SUB SUB DUP2 MSTORE SWAP1 PUSH1 0x40 MSTORE DUP1 MLOAD SWAP1 PUSH1 0x20 ADD KECCAK256 PUSH1 0x0 SHR PUSH2 0xC17 SWAP2 SWAP1 PUSH2 0x2431 JUMP JUMPDEST SWAP1 POP PUSH1 0x0 JUMPDEST PUSH1 0x6 DUP1 SLOAD SWAP1 POP DUP2 LT ISZERO PUSH2 0x13CA JUMPI PUSH1 0x6 DUP2 DUP2 SLOAD DUP2 LT PUSH2 0xC3D JUMPI PUSH2 0xC3C PUSH2 0x251E JUMP JUMPDEST JUMPDEST SWAP1 PUSH1 0x0 MSTORE PUSH1 0x20 PUSH1 0x0 KECCAK256 SWAP1 PUSH1 0x8 MUL ADD PUSH1 0x0 ADD PUSH1 0x0 SWAP1 SLOAD SWAP1 PUSH2 0x100 EXP SWAP1 DIV PUSH20 0xFFFFFFFFFFFFFFFFFFFFFFFFFFFFFFFFFFFFFFFF AND PUSH20 0xFFFFFFFFFFFFFFFFFFFFFFFFFFFFFFFFFFFFFFFF AND CALLER PUSH20 0xFFFFFFFFFFFFFFFFFFFFFFFFFFFFFFFFFFFFFFFF AND EQ ISZERO PUSH2 0x13B7 JUMPI PUSH1 0x6 DUP2 DUP2 SLOAD DUP2 LT PUSH2 0xCB6 JUMPI PUSH2 0xCB5 PUSH2 0x251E JUMP JUMPDEST JUMPDEST SWAP1 PUSH1 0x0 MSTORE PUSH1 0x20 PUSH1 0x0 KECCAK256 SWAP1 PUSH1 0x8 MUL ADD PUSH1 0x5 ADD PUSH1 0x0 DUP2 SLOAD DUP1 SWAP3 SWAP2 SWAP1 PUSH2 0xCD8 SWAP1 PUSH2 0x23B1 JUMP JUMPDEST SWAP2 SWAP1 POP SSTORE POP PUSH1 0x6 DUP6 DUP2 SLOAD DUP2 LT PUSH2 0xCF1 JUMPI PUSH2 0xCF0 PUSH2 0x251E JUMP JUMPDEST JUMPDEST SWAP1 PUSH1 0x0 MSTORE PUSH1 0x20 PUSH1 0x0 KECCAK256 SWAP1 PUSH1 0x8 MUL ADD PUSH1 0x5 ADD PUSH1 0x0 DUP2 SLOAD DUP1 SWAP3 SWAP2 SWAP1 PUSH2 0xD13 SWAP1 PUSH2 0x23B1 JUMP JUMPDEST SWAP2 SWAP1 POP SSTORE POP PUSH2 0xD42 PUSH1 0x6 DUP3 DUP2 SLOAD DUP2 LT PUSH2 0xD2F JUMPI PUSH2 0xD2E PUSH2 0x251E JUMP JUMPDEST JUMPDEST SWAP1 PUSH1 0x0 MSTORE PUSH1 0x20 PUSH1 0x0 KECCAK256 SWAP1 PUSH1 0x8 MUL ADD PUSH2 0x199D JUMP JUMPDEST PUSH1 0x6 DUP2 DUP2 SLOAD DUP2 LT PUSH2 0xD56 JUMPI PUSH2 0xD55 PUSH2 0x251E JUMP JUMPDEST JUMPDEST SWAP1 PUSH1 0x0 MSTORE PUSH1 0x20 PUSH1 0x0 KECCAK256 SWAP1 PUSH1 0x8 MUL ADD PUSH1 0x7 ADD PUSH1 0x0 SWAP1 SLOAD SWAP1 PUSH2 0x100 EXP SWAP1 DIV PUSH4 0xFFFFFFFF AND PUSH4 0xFFFFFFFF AND PUSH1 0x6 DUP7 DUP2 SLOAD DUP2 LT PUSH2 0xD92 JUMPI PUSH2 0xD91 PUSH2 0x251E JUMP JUMPDEST JUMPDEST SWAP1 PUSH1 0x0 MSTORE PUSH1 0x20 PUSH1 0x0 KECCAK256 SWAP1 PUSH1 0x8 MUL ADD PUSH1 0x7 ADD PUSH1 0x0 SWAP1 SLOAD SWAP1 PUSH2 0x100 EXP SWAP1 DIV PUSH4 0xFFFFFFFF AND PUSH4 0xFFFFFFFF AND LT ISZERO PUSH2 0xF93 JUMPI PUSH1 0x3C DUP3 GT PUSH2 0xEB1 JUMPI PUSH2 0xDD0 PUSH2 0x19BC JUMP JUMPDEST PUSH1 0x6 DUP2 DUP2 SLOAD DUP2 LT PUSH2 0xDE4 JUMPI PUSH2 0xDE3 PUSH2 0x251E JUMP JUMPDEST JUMPDEST SWAP1 PUSH1 0x0 MSTORE PUSH1 0x20 PUSH1 0x0 KECCAK256 SWAP1 PUSH1 0x8 MUL ADD PUSH1 0x4 ADD PUSH1 0x0 DUP2 SLOAD DUP1 SWAP3 SWAP2 SWAP1 PUSH2 0xE06 SWAP1 PUSH2 0x23B1 JUMP JUMPDEST SWAP2 SWAP1 POP SSTORE POP PUSH1 0x6 DUP2 DUP2 SLOAD DUP2 LT PUSH2 0xE1F JUMPI PUSH2 0xE1E PUSH2 0x251E JUMP JUMPDEST JUMPDEST SWAP1 PUSH1 0x0 MSTORE PUSH1 0x20 PUSH1 0x0 KECCAK256 SWAP1 PUSH1 0x8 MUL ADD PUSH1 0x7 ADD PUSH1 0x0 DUP2 DUP2 SWAP1 SLOAD SWAP1 PUSH2 0x100 EXP SWAP1 DIV PUSH4 0xFFFFFFFF AND DUP1 SWAP3 SWAP2 SWAP1 PUSH2 0xE50 SWAP1 PUSH2 0x23FA JUMP JUMPDEST SWAP2 SWAP1 PUSH2 0x100 EXP DUP2 SLOAD DUP2 PUSH4 0xFFFFFFFF MUL NOT AND SWAP1 DUP4 PUSH4 0xFFFFFFFF AND MUL OR SWAP1 SSTORE POP POP PUSH1 0x40 MLOAD DUP1 PUSH1 0x40 ADD PUSH1 0x40 MSTORE DUP1 PUSH1 0xA DUP2 MSTORE PUSH1 0x20 ADD PUSH32 0x4861732067616E61646F00000000000000000000000000000000000000000000 DUP2 MSTORE POP SWAP6 POP POP POP POP POP POP PUSH2 0x13D1 JUMP JUMPDEST PUSH32 0x6158FC8F21C8CC73DDF920956CC75D0E8A48B4FC85817A0BA89EB3B6D2A75441 PUSH1 0x40 MLOAD PUSH2 0xEDE SWAP1 PUSH2 0x2174 JUMP JUMPDEST PUSH1 0x40 MLOAD DUP1 SWAP2 SUB SWAP1 LOG1 ADDRESS PUSH20 0xFFFFFFFFFFFFFFFFFFFFFFFFFFFFFFFFFFFFFFFF AND PUSH4 0xE172FCA8 DUP6 PUSH1 0x40 MLOAD DUP3 PUSH4 0xFFFFFFFF AND PUSH1 0xE0 SHL DUP2 MSTORE PUSH1 0x4 ADD PUSH2 0xF1F SWAP2 SWAP1 PUSH2 0x1FC3 JUMP JUMPDEST PUSH1 0x0 PUSH1 0x40 MLOAD DUP1 DUP4 SUB DUP2 PUSH1 0x0 DUP8 DUP1 EXTCODESIZE ISZERO DUP1 ISZERO PUSH2 0xF39 JUMPI PUSH1 0x0 DUP1 REVERT JUMPDEST POP GAS CALL ISZERO DUP1 ISZERO PUSH2 0xF4D JUMPI RETURNDATASIZE PUSH1 0x0 DUP1 RETURNDATACOPY RETURNDATASIZE PUSH1 0x0 REVERT JUMPDEST POP POP POP POP PUSH1 0x40 MLOAD DUP1 PUSH1 0x40 ADD PUSH1 0x40 MSTORE DUP1 PUSH1 0xB DUP2 MSTORE PUSH1 0x20 ADD PUSH32 0x486173207065726469646F000000000000000000000000000000000000000000 DUP2 MSTORE POP SWAP6 POP POP POP POP POP POP PUSH2 0x13D1 JUMP JUMPDEST PUSH1 0x6 DUP2 DUP2 SLOAD DUP2 LT PUSH2 0xFA7 JUMPI PUSH2 0xFA6 PUSH2 0x251E JUMP JUMPDEST JUMPDEST SWAP1 PUSH1 0x0 MSTORE PUSH1 0x20 PUSH1 0x0 KECCAK256 SWAP1 PUSH1 0x8 MUL ADD PUSH1 0x7 ADD PUSH1 0x0 SWAP1 SLOAD SWAP1 PUSH2 0x100 EXP SWAP1 DIV PUSH4 0xFFFFFFFF AND PUSH4 0xFFFFFFFF AND PUSH1 0x6 DUP7 DUP2 SLOAD DUP2 LT PUSH2 0xFE3 JUMPI PUSH2 0xFE2 PUSH2 0x251E JUMP JUMPDEST JUMPDEST SWAP1 PUSH1 0x0 MSTORE PUSH1 0x20 PUSH1 0x0 KECCAK256 SWAP1 PUSH1 0x8 MUL ADD PUSH1 0x7 ADD PUSH1 0x0 SWAP1 SLOAD SWAP1 PUSH2 0x100 EXP SWAP1 DIV PUSH4 0xFFFFFFFF AND PUSH4 0xFFFFFFFF AND EQ ISZERO PUSH2 0x11E4 JUMPI PUSH1 0x32 DUP3 GT PUSH2 0x1102 JUMPI PUSH2 0x1021 PUSH2 0x19BC JUMP JUMPDEST PUSH1 0x6 DUP2 DUP2 SLOAD DUP2 LT PUSH2 0x1035 JUMPI PUSH2 0x1034 PUSH2 0x251E JUMP JUMPDEST JUMPDEST SWAP1 PUSH1 0x0 MSTORE PUSH1 0x20 PUSH1 0x0 KECCAK256 SWAP1 PUSH1 0x8 MUL ADD PUSH1 0x4 ADD PUSH1 0x0 DUP2 SLOAD DUP1 SWAP3 SWAP2 SWAP1 PUSH2 0x1057 SWAP1 PUSH2 0x23B1 JUMP JUMPDEST SWAP2 SWAP1 POP SSTORE POP PUSH1 0x6 DUP2 DUP2 SLOAD DUP2 LT PUSH2 0x1070 JUMPI PUSH2 0x106F PUSH2 0x251E JUMP JUMPDEST JUMPDEST SWAP1 PUSH1 0x0 MSTORE PUSH1 0x20 PUSH1 0x0 KECCAK256 SWAP1 PUSH1 0x8 MUL ADD PUSH1 0x7 ADD PUSH1 0x0 DUP2 DUP2 SWAP1 SLOAD SWAP1 PUSH2 0x100 EXP SWAP1 DIV PUSH4 0xFFFFFFFF AND DUP1 SWAP3 SWAP2 SWAP1 PUSH2 0x10A1 SWAP1 PUSH2 0x23FA JUMP JUMPDEST SWAP2 SWAP1 PUSH2 0x100 EXP DUP2 SLOAD DUP2 PUSH4 0xFFFFFFFF MUL NOT AND SWAP1 DUP4 PUSH4 0xFFFFFFFF AND MUL OR SWAP1 SSTORE POP POP PUSH1 0x40 MLOAD DUP1 PUSH1 0x40 ADD PUSH1 0x40 MSTORE DUP1 PUSH1 0xA DUP2 MSTORE PUSH1 0x20 ADD PUSH32 0x4861732067616E61646F00000000000000000000000000000000000000000000 DUP2 MSTORE POP SWAP6 POP POP POP POP POP POP PUSH2 0x13D1 JUMP JUMPDEST PUSH32 0x6158FC8F21C8CC73DDF920956CC75D0E8A48B4FC85817A0BA89EB3B6D2A75441 PUSH1 0x40 MLOAD PUSH2 0x112F SWAP1 PUSH2 0x2174 JUMP JUMPDEST PUSH1 0x40 MLOAD DUP1 SWAP2 SUB SWAP1 LOG1 ADDRESS PUSH20 0xFFFFFFFFFFFFFFFFFFFFFFFFFFFFFFFFFFFFFFFF AND PUSH4 0xE172FCA8 DUP6 PUSH1 0x40 MLOAD DUP3 PUSH4 0xFFFFFFFF AND PUSH1 0xE0 SHL DUP2 MSTORE PUSH1 0x4 ADD PUSH2 0x1170 SWAP2 SWAP1 PUSH2 0x1FC3 JUMP JUMPDEST PUSH1 0x0 PUSH1 0x40 MLOAD DUP1 DUP4 SUB DUP2 PUSH1 0x0 DUP8 DUP1 EXTCODESIZE ISZERO DUP1 ISZERO PUSH2 0x118A JUMPI PUSH1 0x0 DUP1 REVERT JUMPDEST POP GAS CALL ISZERO DUP1 ISZERO PUSH2 0x119E JUMPI RETURNDATASIZE PUSH1 0x0 DUP1 RETURNDATACOPY RETURNDATASIZE PUSH1 0x0 REVERT JUMPDEST POP POP POP POP PUSH1 0x40 MLOAD DUP1 PUSH1 0x40 ADD PUSH1 0x40 MSTORE DUP1 PUSH1 0xB DUP2 MSTORE PUSH1 0x20 ADD PUSH32 0x486173207065726469646F000000000000000000000000000000000000000000 DUP2 MSTORE POP SWAP6 POP POP POP POP POP POP PUSH2 0x13D1 JUMP JUMPDEST PUSH1 0x28 DUP3 GT PUSH2 0x12D5 JUMPI PUSH2 0x11F4 PUSH2 0x19BC JUMP JUMPDEST PUSH1 0x6 DUP2 DUP2 SLOAD DUP2 LT PUSH2 0x1208 JUMPI PUSH2 0x1207 PUSH2 0x251E JUMP JUMPDEST JUMPDEST SWAP1 PUSH1 0x0 MSTORE PUSH1 0x20 PUSH1 0x0 KECCAK256 SWAP1 PUSH1 0x8 MUL ADD PUSH1 0x4 ADD PUSH1 0x0 DUP2 SLOAD DUP1 SWAP3 SWAP2 SWAP1 PUSH2 0x122A SWAP1 PUSH2 0x23B1 JUMP JUMPDEST SWAP2 SWAP1 POP SSTORE POP PUSH1 0x6 DUP2 DUP2 SLOAD DUP2 LT PUSH2 0x1243 JUMPI PUSH2 0x1242 PUSH2 0x251E JUMP JUMPDEST JUMPDEST SWAP1 PUSH1 0x0 MSTORE PUSH1 0x20 PUSH1 0x0 KECCAK256 SWAP1 PUSH1 0x8 MUL ADD PUSH1 0x7 ADD PUSH1 0x0 DUP2 DUP2 SWAP1 SLOAD SWAP1 PUSH2 0x100 EXP SWAP1 DIV PUSH4 0xFFFFFFFF AND DUP1 SWAP3 SWAP2 SWAP1 PUSH2 0x1274 SWAP1 PUSH2 0x23FA JUMP JUMPDEST SWAP2 SWAP1 PUSH2 0x100 EXP DUP2 SLOAD DUP2 PUSH4 0xFFFFFFFF MUL NOT AND SWAP1 DUP4 PUSH4 0xFFFFFFFF AND MUL OR SWAP1 SSTORE POP POP PUSH1 0x40 MLOAD DUP1 PUSH1 0x40 ADD PUSH1 0x40 MSTORE DUP1 PUSH1 0xA DUP2 MSTORE PUSH1 0x20 ADD PUSH32 0x4861732067616E61646F00000000000000000000000000000000000000000000 DUP2 MSTORE POP SWAP6 POP POP POP POP POP POP PUSH2 0x13D1 JUMP JUMPDEST PUSH32 0x6158FC8F21C8CC73DDF920956CC75D0E8A48B4FC85817A0BA89EB3B6D2A75441 PUSH1 0x40 MLOAD PUSH2 0x1302 SWAP1 PUSH2 0x2174 JUMP JUMPDEST PUSH1 0x40 MLOAD DUP1 SWAP2 SUB SWAP1 LOG1 ADDRESS PUSH20 0xFFFFFFFFFFFFFFFFFFFFFFFFFFFFFFFFFFFFFFFF AND PUSH4 0xE172FCA8 DUP6 PUSH1 0x40 MLOAD DUP3 PUSH4 0xFFFFFFFF AND PUSH1 0xE0 SHL DUP2 MSTORE PUSH1 0x4 ADD PUSH2 0x1343 SWAP2 SWAP1 PUSH2 0x1FC3 JUMP JUMPDEST PUSH1 0x0 PUSH1 0x40 MLOAD DUP1 DUP4 SUB DUP2 PUSH1 0x0 DUP8 DUP1 EXTCODESIZE ISZERO DUP1 ISZERO PUSH2 0x135D JUMPI PUSH1 0x0 DUP1 REVERT JUMPDEST POP GAS CALL ISZERO DUP1 ISZERO PUSH2 0x1371 JUMPI RETURNDATASIZE PUSH1 0x0 DUP1 RETURNDATACOPY RETURNDATASIZE PUSH1 0x0 REVERT JUMPDEST POP POP POP POP PUSH1 0x40 MLOAD DUP1 PUSH1 0x40 ADD PUSH1 0x40 MSTORE DUP1 PUSH1 0xB DUP2 MSTORE PUSH1 0x20 ADD PUSH32 0x486173207065726469646F000000000000000000000000000000000000000000 DUP2 MSTORE POP SWAP6 POP POP POP POP POP POP PUSH2 0x13D1 JUMP JUMPDEST DUP1 DUP1 PUSH2 0x13C2 SWAP1 PUSH2 0x23B1 JUMP JUMPDEST SWAP2 POP POP PUSH2 0xC1C JUMP JUMPDEST POP POP POP POP POP JUMPDEST JUMPDEST SWAP2 SWAP1 POP JUMP JUMPDEST PUSH2 0x13DE PUSH2 0x1A05 JUMP JUMPDEST PUSH20 0xFFFFFFFFFFFFFFFFFFFFFFFFFFFFFFFFFFFFFFFF AND PUSH2 0x13FC PUSH2 0x1491 JUMP JUMPDEST PUSH20 0xFFFFFFFFFFFFFFFFFFFFFFFFFFFFFFFFFFFFFFFF AND EQ PUSH2 0x1452 JUMPI PUSH1 0x40 MLOAD PUSH32 0x8C379A000000000000000000000000000000000000000000000000000000000 DUP2 MSTORE PUSH1 0x4 ADD PUSH2 0x1449 SWAP1 PUSH2 0x2154 JUMP JUMPDEST PUSH1 0x40 MLOAD DUP1 SWAP2 SUB SWAP1 REVERT JUMPDEST PUSH2 0x145C PUSH1 0x0 PUSH2 0x1A0D JUMP JUMPDEST JUMP JUMPDEST PUSH1 0x7 PUSH1 0x20 MSTORE DUP1 PUSH1 0x0 MSTORE PUSH1 0x40 PUSH1 0x0 KECCAK256 PUSH1 0x0 SWAP2 POP SLOAD SWAP1 PUSH2 0x100 EXP SWAP1 DIV PUSH20 0xFFFFFFFFFFFFFFFFFFFFFFFFFFFFFFFFFFFFFFFF AND DUP2 JUMP JUMPDEST PUSH1 0x0 DUP1 PUSH1 0x0 SWAP1 SLOAD SWAP1 PUSH2 0x100 EXP SWAP1 DIV PUSH20 0xFFFFFFFFFFFFFFFFFFFFFFFFFFFFFFFFFFFFFFFF AND SWAP1 POP SWAP1 JUMP JUMPDEST PUSH1 0x0 DUP1 SLOAD SWAP1 PUSH2 0x100 EXP SWAP1 DIV PUSH20 0xFFFFFFFFFFFFFFFFFFFFFFFFFFFFFFFFFFFFFFFF AND DUP2 JUMP JUMPDEST PUSH1 0x6 DUP2 DUP2 SLOAD DUP2 LT PUSH2 0x14EE JUMPI PUSH1 0x0 DUP1 REVERT JUMPDEST SWAP1 PUSH1 0x0 MSTORE PUSH1 0x20 PUSH1 0x0 KECCAK256 SWAP1 PUSH1 0x8 MUL ADD PUSH1 0x0 SWAP2 POP SWAP1 POP DUP1 PUSH1 0x0 ADD PUSH1 0x0 SWAP1 SLOAD SWAP1 PUSH2 0x100 EXP SWAP1 DIV PUSH20 0xFFFFFFFFFFFFFFFFFFFFFFFFFFFFFFFFFFFFFFFF AND SWAP1 DUP1 PUSH1 0x1 ADD DUP1 SLOAD PUSH2 0x1537 SWAP1 PUSH2 0x234E JUMP JUMPDEST DUP1 PUSH1 0x1F ADD PUSH1 0x20 DUP1 SWAP2 DIV MUL PUSH1 0x20 ADD PUSH1 0x40 MLOAD SWAP1 DUP2 ADD PUSH1 0x40 MSTORE DUP1 SWAP3 SWAP2 SWAP1 DUP2 DUP2 MSTORE PUSH1 0x20 ADD DUP3 DUP1 SLOAD PUSH2 0x1563 SWAP1 PUSH2 0x234E JUMP JUMPDEST DUP1 ISZERO PUSH2 0x15B0 JUMPI DUP1 PUSH1 0x1F LT PUSH2 0x1585 JUMPI PUSH2 0x100 DUP1 DUP4 SLOAD DIV MUL DUP4 MSTORE SWAP2 PUSH1 0x20 ADD SWAP2 PUSH2 0x15B0 JUMP JUMPDEST DUP3 ADD SWAP2 SWAP1 PUSH1 0x0 MSTORE PUSH1 0x20 PUSH1 0x0 KECCAK256 SWAP1 JUMPDEST DUP2 SLOAD DUP2 MSTORE SWAP1 PUSH1 0x1 ADD SWAP1 PUSH1 0x20 ADD DUP1 DUP4 GT PUSH2 0x1593 JUMPI DUP3 SWAP1 SUB PUSH1 0x1F AND DUP3 ADD SWAP2 JUMPDEST POP POP POP POP POP SWAP1 DUP1 PUSH1 0x2 ADD DUP1 SLOAD PUSH2 0x15C5 SWAP1 PUSH2 0x234E JUMP JUMPDEST DUP1 PUSH1 0x1F ADD PUSH1 0x20 DUP1 SWAP2 DIV MUL PUSH1 0x20 ADD PUSH1 0x40 MLOAD SWAP1 DUP2 ADD PUSH1 0x40 MSTORE DUP1 SWAP3 SWAP2 SWAP1 DUP2 DUP2 MSTORE PUSH1 0x20 ADD DUP3 DUP1 SLOAD PUSH2 0x15F1 SWAP1 PUSH2 0x234E JUMP JUMPDEST DUP1 ISZERO PUSH2 0x163E JUMPI DUP1 PUSH1 0x1F LT PUSH2 0x1613 JUMPI PUSH2 0x100 DUP1 DUP4 SLOAD DIV MUL DUP4 MSTORE SWAP2 PUSH1 0x20 ADD SWAP2 PUSH2 0x163E JUMP JUMPDEST DUP3 ADD SWAP2 SWAP1 PUSH1 0x0 MSTORE PUSH1 0x20 PUSH1 0x0 KECCAK256 SWAP1 JUMPDEST DUP2 SLOAD DUP2 MSTORE SWAP1 PUSH1 0x1 ADD SWAP1 PUSH1 0x20 ADD DUP1 DUP4 GT PUSH2 0x1621 JUMPI DUP3 SWAP1 SUB PUSH1 0x1F AND DUP3 ADD SWAP2 JUMPDEST POP POP POP POP POP SWAP1 DUP1 PUSH1 0x3 ADD DUP1 SLOAD PUSH2 0x1653 SWAP1 PUSH2 0x234E JUMP JUMPDEST DUP1 PUSH1 0x1F ADD PUSH1 0x20 DUP1 SWAP2 DIV MUL PUSH1 0x20 ADD PUSH1 0x40 MLOAD SWAP1 DUP2 ADD PUSH1 0x40 MSTORE DUP1 SWAP3 SWAP2 SWAP1 DUP2 DUP2 MSTORE PUSH1 0x20 ADD DUP3 DUP1 SLOAD PUSH2 0x167F SWAP1 PUSH2 0x234E JUMP JUMPDEST DUP1 ISZERO PUSH2 0x16CC JUMPI DUP1 PUSH1 0x1F LT PUSH2 0x16A1 JUMPI PUSH2 0x100 DUP1 DUP4 SLOAD DIV MUL DUP4 MSTORE SWAP2 PUSH1 0x20 ADD SWAP2 PUSH2 0x16CC JUMP JUMPDEST DUP3 ADD SWAP2 SWAP1 PUSH1 0x0 MSTORE PUSH1 0x20 PUSH1 0x0 KECCAK256 SWAP1 JUMPDEST DUP2 SLOAD DUP2 MSTORE SWAP1 PUSH1 0x1 ADD SWAP1 PUSH1 0x20 ADD DUP1 DUP4 GT PUSH2 0x16AF JUMPI DUP3 SWAP1 SUB PUSH1 0x1F AND DUP3 ADD SWAP2 JUMPDEST POP POP POP POP POP SWAP1 DUP1 PUSH1 0x4 ADD SLOAD SWAP1 DUP1 PUSH1 0x5 ADD SLOAD SWAP1 DUP1 PUSH1 0x6 ADD SLOAD SWAP1 DUP1 PUSH1 0x7 ADD PUSH1 0x0 SWAP1 SLOAD SWAP1 PUSH2 0x100 EXP SWAP1 DIV PUSH4 0xFFFFFFFF AND SWAP1 POP DUP9 JUMP JUMPDEST PUSH1 0x0 JUMPDEST PUSH1 0x6 DUP1 SLOAD SWAP1 POP DUP2 LT ISZERO PUSH2 0x18A1 JUMPI DUP2 PUSH20 0xFFFFFFFFFFFFFFFFFFFFFFFFFFFFFFFFFFFFFFFF AND PUSH1 0x6 DUP3 DUP2 SLOAD DUP2 LT PUSH2 0x1739 JUMPI PUSH2 0x1738 PUSH2 0x251E JUMP JUMPDEST JUMPDEST SWAP1 PUSH1 0x0 MSTORE PUSH1 0x20 PUSH1 0x0 KECCAK256 SWAP1 PUSH1 0x8 MUL ADD PUSH1 0x0 ADD PUSH1 0x0 SWAP1 SLOAD SWAP1 PUSH2 0x100 EXP SWAP1 DIV PUSH20 0xFFFFFFFFFFFFFFFFFFFFFFFFFFFFFFFFFFFFFFFF AND PUSH20 0xFFFFFFFFFFFFFFFFFFFFFFFFFFFFFFFFFFFFFFFF AND EQ ISZERO PUSH2 0x188E JUMPI PUSH32 0x20FDB8AB571BFBAB79104BEA84F9C31CB79C5AE45B5F515C1D6C8393E0028350 PUSH1 0x6 DUP3 DUP2 SLOAD DUP2 LT PUSH2 0x17BC JUMPI PUSH2 0x17BB PUSH2 0x251E JUMP JUMPDEST JUMPDEST SWAP1 PUSH1 0x0 MSTORE PUSH1 0x20 PUSH1 0x0 KECCAK256 SWAP1 PUSH1 0x8 MUL ADD PUSH1 0x2 ADD PUSH1 0x6 DUP4 DUP2 SLOAD DUP2 LT PUSH2 0x17E1 JUMPI PUSH2 0x17E0 PUSH2 0x251E JUMP JUMPDEST JUMPDEST SWAP1 PUSH1 0x0 MSTORE PUSH1 0x20 PUSH1 0x0 KECCAK256 SWAP1 PUSH1 0x8 MUL ADD PUSH1 0x1 ADD PUSH1 0x6 DUP5 DUP2 SLOAD DUP2 LT PUSH2 0x1806 JUMPI PUSH2 0x1805 PUSH2 0x251E JUMP JUMPDEST JUMPDEST SWAP1 PUSH1 0x0 MSTORE PUSH1 0x20 PUSH1 0x0 KECCAK256 SWAP1 PUSH1 0x8 MUL ADD PUSH1 0x7 ADD PUSH1 0x0 SWAP1 SLOAD SWAP1 PUSH2 0x100 EXP SWAP1 DIV PUSH4 0xFFFFFFFF AND PUSH1 0x6 DUP6 DUP2 SLOAD DUP2 LT PUSH2 0x183C JUMPI PUSH2 0x183B PUSH2 0x251E JUMP JUMPDEST JUMPDEST SWAP1 PUSH1 0x0 MSTORE PUSH1 0x20 PUSH1 0x0 KECCAK256 SWAP1 PUSH1 0x8 MUL ADD PUSH1 0x4 ADD SLOAD PUSH1 0x6 DUP7 DUP2 SLOAD DUP2 LT PUSH2 0x1862 JUMPI PUSH2 0x1861 PUSH2 0x251E JUMP JUMPDEST JUMPDEST SWAP1 PUSH1 0x0 MSTORE PUSH1 0x20 PUSH1 0x0 KECCAK256 SWAP1 PUSH1 0x8 MUL ADD PUSH1 0x5 ADD SLOAD PUSH1 0x40 MLOAD PUSH2 0x1885 SWAP6 SWAP5 SWAP4 SWAP3 SWAP2 SWAP1 PUSH2 0x2093 JUMP JUMPDEST PUSH1 0x40 MLOAD DUP1 SWAP2 SUB SWAP1 LOG1 JUMPDEST DUP1 DUP1 PUSH2 0x1899 SWAP1 PUSH2 0x23B1 JUMP JUMPDEST SWAP2 POP POP PUSH2 0x1701 JUMP JUMPDEST POP POP JUMP JUMPDEST PUSH2 0x18AD PUSH2 0x1A05 JUMP JUMPDEST PUSH20 0xFFFFFFFFFFFFFFFFFFFFFFFFFFFFFFFFFFFFFFFF AND PUSH2 0x18CB PUSH2 0x1491 JUMP JUMPDEST PUSH20 0xFFFFFFFFFFFFFFFFFFFFFFFFFFFFFFFFFFFFFFFF AND EQ PUSH2 0x1921 JUMPI PUSH1 0x40 MLOAD PUSH32 0x8C379A000000000000000000000000000000000000000000000000000000000 DUP2 MSTORE PUSH1 0x4 ADD PUSH2 0x1918 SWAP1 PUSH2 0x2154 JUMP JUMPDEST PUSH1 0x40 MLOAD DUP1 SWAP2 SUB SWAP1 REVERT JUMPDEST PUSH1 0x0 PUSH20 0xFFFFFFFFFFFFFFFFFFFFFFFFFFFFFFFFFFFFFFFF AND DUP2 PUSH20 0xFFFFFFFFFFFFFFFFFFFFFFFFFFFFFFFFFFFFFFFF AND EQ ISZERO PUSH2 0x1991 JUMPI PUSH1 0x40 MLOAD PUSH32 0x8C379A000000000000000000000000000000000000000000000000000000000 DUP2 MSTORE PUSH1 0x4 ADD PUSH2 0x1988 SWAP1 PUSH2 0x2114 JUMP JUMPDEST PUSH1 0x40 MLOAD DUP1 SWAP2 SUB SWAP1 REVERT JUMPDEST PUSH2 0x199A DUP2 PUSH2 0x1A0D JUMP JUMPDEST POP JUMP JUMPDEST PUSH1 0x3 SLOAD TIMESTAMP PUSH2 0x19AB SWAP2 SWAP1 PUSH2 0x2236 JUMP JUMPDEST PUSH4 0xFFFFFFFF AND DUP2 PUSH1 0x6 ADD DUP2 SWAP1 SSTORE POP POP JUMP JUMPDEST CALLER PUSH20 0xFFFFFFFFFFFFFFFFFFFFFFFFFFFFFFFFFFFFFFFF AND PUSH2 0x8FC SELFBALANCE SWAP1 DUP2 ISZERO MUL SWAP1 PUSH1 0x40 MLOAD PUSH1 0x0 PUSH1 0x40 MLOAD DUP1 DUP4 SUB DUP2 DUP6 DUP9 DUP9 CALL SWAP4 POP POP POP POP ISZERO DUP1 ISZERO PUSH2 0x1A02 JUMPI RETURNDATASIZE PUSH1 0x0 DUP1 RETURNDATACOPY RETURNDATASIZE PUSH1 0x0 REVERT JUMPDEST POP JUMP JUMPDEST PUSH1 0x0 CALLER SWAP1 POP SWAP1 JUMP JUMPDEST PUSH1 0x0 DUP1 PUSH1 0x0 SWAP1 SLOAD SWAP1 PUSH2 0x100 EXP SWAP1 DIV PUSH20 0xFFFFFFFFFFFFFFFFFFFFFFFFFFFFFFFFFFFFFFFF AND SWAP1 POP DUP2 PUSH1 0x0 DUP1 PUSH2 0x100 EXP DUP2 SLOAD DUP2 PUSH20 0xFFFFFFFFFFFFFFFFFFFFFFFFFFFFFFFFFFFFFFFF MUL NOT AND SWAP1 DUP4 PUSH20 0xFFFFFFFFFFFFFFFFFFFFFFFFFFFFFFFFFFFFFFFF AND MUL OR SWAP1 SSTORE POP DUP2 PUSH20 0xFFFFFFFFFFFFFFFFFFFFFFFFFFFFFFFFFFFFFFFF AND DUP2 PUSH20 0xFFFFFFFFFFFFFFFFFFFFFFFFFFFFFFFFFFFFFFFF AND PUSH32 0x8BE0079C531659141344CD1FD0A4F28419497F9722A3DAAFE3B4186F6B6457E0 PUSH1 0x40 MLOAD PUSH1 0x40 MLOAD DUP1 SWAP2 SUB SWAP1 LOG3 POP POP JUMP JUMPDEST DUP3 DUP1 SLOAD PUSH2 0x1ADD SWAP1 PUSH2 0x234E JUMP JUMPDEST SWAP1 PUSH1 0x0 MSTORE PUSH1 0x20 PUSH1 0x0 KECCAK256 SWAP1 PUSH1 0x1F ADD PUSH1 0x20 SWAP1 DIV DUP2 ADD SWAP3 DUP3 PUSH2 0x1AFF JUMPI PUSH1 0x0 DUP6 SSTORE PUSH2 0x1B46 JUMP JUMPDEST DUP3 PUSH1 0x1F LT PUSH2 0x1B18 JUMPI DUP1 MLOAD PUSH1 0xFF NOT AND DUP4 DUP1 ADD OR DUP6 SSTORE PUSH2 0x1B46 JUMP JUMPDEST DUP3 DUP1 ADD PUSH1 0x1 ADD DUP6 SSTORE DUP3 ISZERO PUSH2 0x1B46 JUMPI SWAP2 DUP3 ADD JUMPDEST DUP3 DUP2 GT ISZERO PUSH2 0x1B45 JUMPI DUP3 MLOAD DUP3 SSTORE SWAP2 PUSH1 0x20 ADD SWAP2 SWAP1 PUSH1 0x1 ADD SWAP1 PUSH2 0x1B2A JUMP JUMPDEST JUMPDEST POP SWAP1 POP PUSH2 0x1B53 SWAP2 SWAP1 PUSH2 0x1B97 JUMP JUMPDEST POP SWAP1 JUMP JUMPDEST POP DUP1 SLOAD PUSH2 0x1B63 SWAP1 PUSH2 0x234E JUMP JUMPDEST PUSH1 0x0 DUP3 SSTORE DUP1 PUSH1 0x1F LT PUSH2 0x1B75 JUMPI POP PUSH2 0x1B94 JUMP JUMPDEST PUSH1 0x1F ADD PUSH1 0x20 SWAP1 DIV SWAP1 PUSH1 0x0 MSTORE PUSH1 0x20 PUSH1 0x0 KECCAK256 SWAP1 DUP2 ADD SWAP1 PUSH2 0x1B93 SWAP2 SWAP1 PUSH2 0x1B97 JUMP JUMPDEST JUMPDEST POP JUMP JUMPDEST JUMPDEST DUP1 DUP3 GT ISZERO PUSH2 0x1BB0 JUMPI PUSH1 0x0 DUP2 PUSH1 0x0 SWAP1 SSTORE POP PUSH1 0x1 ADD PUSH2 0x1B98 JUMP JUMPDEST POP SWAP1 JUMP JUMPDEST PUSH1 0x0 PUSH2 0x1BC7 PUSH2 0x1BC2 DUP5 PUSH2 0x21D4 JUMP JUMPDEST PUSH2 0x21AF JUMP JUMPDEST SWAP1 POP DUP3 DUP2 MSTORE PUSH1 0x20 DUP2 ADD DUP5 DUP5 DUP5 ADD GT ISZERO PUSH2 0x1BE3 JUMPI PUSH2 0x1BE2 PUSH2 0x2581 JUMP JUMPDEST JUMPDEST PUSH2 0x1BEE DUP5 DUP3 DUP6 PUSH2 0x230C JUMP JUMPDEST POP SWAP4 SWAP3 POP POP POP JUMP JUMPDEST PUSH1 0x0 DUP2 CALLDATALOAD SWAP1 POP PUSH2 0x1C05 DUP2 PUSH2 0x26E0 JUMP JUMPDEST SWAP3 SWAP2 POP POP JUMP JUMPDEST PUSH1 0x0 DUP3 PUSH1 0x1F DUP4 ADD SLT PUSH2 0x1C20 JUMPI PUSH2 0x1C1F PUSH2 0x257C JUMP JUMPDEST JUMPDEST DUP2 CALLDATALOAD PUSH2 0x1C30 DUP5 DUP3 PUSH1 0x20 DUP7 ADD PUSH2 0x1BB4 JUMP JUMPDEST SWAP2 POP POP SWAP3 SWAP2 POP POP JUMP JUMPDEST PUSH1 0x0 DUP2 CALLDATALOAD SWAP1 POP PUSH2 0x1C48 DUP2 PUSH2 0x26F7 JUMP JUMPDEST SWAP3 SWAP2 POP POP JUMP JUMPDEST PUSH1 0x0 PUSH1 0x20 DUP3 DUP5 SUB SLT ISZERO PUSH2 0x1C64 JUMPI PUSH2 0x1C63 PUSH2 0x258B JUMP JUMPDEST JUMPDEST PUSH1 0x0 PUSH2 0x1C72 DUP5 DUP3 DUP6 ADD PUSH2 0x1BF6 JUMP JUMPDEST SWAP2 POP POP SWAP3 SWAP2 POP POP JUMP JUMPDEST PUSH1 0x0 DUP1 PUSH1 0x0 PUSH1 0x60 DUP5 DUP7 SUB SLT ISZERO PUSH2 0x1C94 JUMPI PUSH2 0x1C93 PUSH2 0x258B JUMP JUMPDEST JUMPDEST PUSH1 0x0 PUSH2 0x1CA2 DUP7 DUP3 DUP8 ADD PUSH2 0x1BF6 JUMP JUMPDEST SWAP4 POP POP PUSH1 0x20 DUP5 ADD CALLDATALOAD PUSH8 0xFFFFFFFFFFFFFFFF DUP2 GT ISZERO PUSH2 0x1CC3 JUMPI PUSH2 0x1CC2 PUSH2 0x2586 JUMP JUMPDEST JUMPDEST PUSH2 0x1CCF DUP7 DUP3 DUP8 ADD PUSH2 0x1C0B JUMP JUMPDEST SWAP3 POP POP PUSH1 0x40 DUP5 ADD CALLDATALOAD PUSH8 0xFFFFFFFFFFFFFFFF DUP2 GT ISZERO PUSH2 0x1CF0 JUMPI PUSH2 0x1CEF PUSH2 0x2586 JUMP JUMPDEST JUMPDEST PUSH2 0x1CFC DUP7 DUP3 DUP8 ADD PUSH2 0x1C0B JUMP JUMPDEST SWAP2 POP POP SWAP3 POP SWAP3 POP SWAP3 JUMP JUMPDEST PUSH1 0x0 DUP1 PUSH1 0x0 PUSH1 0x60 DUP5 DUP7 SUB SLT ISZERO PUSH2 0x1D1F JUMPI PUSH2 0x1D1E PUSH2 0x258B JUMP JUMPDEST JUMPDEST PUSH1 0x0 DUP5 ADD CALLDATALOAD PUSH8 0xFFFFFFFFFFFFFFFF DUP2 GT ISZERO PUSH2 0x1D3D JUMPI PUSH2 0x1D3C PUSH2 0x2586 JUMP JUMPDEST JUMPDEST PUSH2 0x1D49 DUP7 DUP3 DUP8 ADD PUSH2 0x1C0B JUMP JUMPDEST SWAP4 POP POP PUSH1 0x20 DUP5 ADD CALLDATALOAD PUSH8 0xFFFFFFFFFFFFFFFF DUP2 GT ISZERO PUSH2 0x1D6A JUMPI PUSH2 0x1D69 PUSH2 0x2586 JUMP JUMPDEST JUMPDEST PUSH2 0x1D76 DUP7 DUP3 DUP8 ADD PUSH2 0x1C0B JUMP JUMPDEST SWAP3 POP POP PUSH1 0x40 DUP5 ADD CALLDATALOAD PUSH8 0xFFFFFFFFFFFFFFFF DUP2 GT ISZERO PUSH2 0x1D97 JUMPI PUSH2 0x1D96 PUSH2 0x2586 JUMP JUMPDEST JUMPDEST PUSH2 0x1DA3 DUP7 DUP3 DUP8 ADD PUSH2 0x1C0B JUMP JUMPDEST SWAP2 POP POP SWAP3 POP SWAP3 POP SWAP3 JUMP JUMPDEST PUSH1 0x0 PUSH1 0x20 DUP3 DUP5 SUB SLT ISZERO PUSH2 0x1DC3 JUMPI PUSH2 0x1DC2 PUSH2 0x258B JUMP JUMPDEST JUMPDEST PUSH1 0x0 PUSH2 0x1DD1 DUP5 DUP3 DUP6 ADD PUSH2 0x1C39 JUMP JUMPDEST SWAP2 POP POP SWAP3 SWAP2 POP POP JUMP JUMPDEST PUSH2 0x1DE3 DUP2 PUSH2 0x22C0 JUMP JUMPDEST DUP3 MSTORE POP POP JUMP JUMPDEST PUSH1 0x0 PUSH2 0x1DF4 DUP3 PUSH2 0x221A JUMP JUMPDEST PUSH2 0x1DFE DUP2 DUP6 PUSH2 0x2225 JUMP JUMPDEST SWAP4 POP PUSH2 0x1E0E DUP2 DUP6 PUSH1 0x20 DUP7 ADD PUSH2 0x231B JUMP JUMPDEST PUSH2 0x1E17 DUP2 PUSH2 0x2590 JUMP JUMPDEST DUP5 ADD SWAP2 POP POP SWAP3 SWAP2 POP POP JUMP JUMPDEST PUSH1 0x0 DUP2 SLOAD PUSH2 0x1E2F DUP2 PUSH2 0x234E JUMP JUMPDEST PUSH2 0x1E39 DUP2 DUP7 PUSH2 0x2225 JUMP JUMPDEST SWAP5 POP PUSH1 0x1 DUP3 AND PUSH1 0x0 DUP2 EQ PUSH2 0x1E54 JUMPI PUSH1 0x1 DUP2 EQ PUSH2 0x1E66 JUMPI PUSH2 0x1E99 JUMP JUMPDEST PUSH1 0xFF NOT DUP4 AND DUP7 MSTORE PUSH1 0x20 DUP7 ADD SWAP4 POP PUSH2 0x1E99 JUMP JUMPDEST PUSH2 0x1E6F DUP6 PUSH2 0x2205 JUMP JUMPDEST PUSH1 0x0 JUMPDEST DUP4 DUP2 LT ISZERO PUSH2 0x1E91 JUMPI DUP2 SLOAD DUP2 DUP10 ADD MSTORE PUSH1 0x1 DUP3 ADD SWAP2 POP PUSH1 0x20 DUP2 ADD SWAP1 POP PUSH2 0x1E72 JUMP JUMPDEST DUP1 DUP9 ADD SWAP6 POP POP POP JUMPDEST POP POP POP SWAP3 SWAP2 POP POP JUMP JUMPDEST PUSH1 0x0 PUSH2 0x1EAF PUSH1 0x28 DUP4 PUSH2 0x2225 JUMP JUMPDEST SWAP2 POP PUSH2 0x1EBA DUP3 PUSH2 0x25A1 JUMP JUMPDEST PUSH1 0x40 DUP3 ADD SWAP1 POP SWAP2 SWAP1 POP JUMP JUMPDEST PUSH1 0x0 PUSH2 0x1ED2 PUSH1 0x26 DUP4 PUSH2 0x2225 JUMP JUMPDEST SWAP2 POP PUSH2 0x1EDD DUP3 PUSH2 0x25F0 JUMP JUMPDEST PUSH1 0x40 DUP3 ADD SWAP1 POP SWAP2 SWAP1 POP JUMP JUMPDEST PUSH1 0x0 PUSH2 0x1EF5 PUSH1 0x32 DUP4 PUSH2 0x2225 JUMP JUMPDEST SWAP2 POP PUSH2 0x1F00 DUP3 PUSH2 0x263F JUMP JUMPDEST PUSH1 0x40 DUP3 ADD SWAP1 POP SWAP2 SWAP1 POP JUMP JUMPDEST PUSH1 0x0 PUSH2 0x1F18 PUSH1 0x20 DUP4 PUSH2 0x2225 JUMP JUMPDEST SWAP2 POP PUSH2 0x1F23 DUP3 PUSH2 0x268E JUMP JUMPDEST PUSH1 0x20 DUP3 ADD SWAP1 POP SWAP2 SWAP1 POP JUMP JUMPDEST PUSH1 0x0 PUSH2 0x1F3B PUSH1 0x15 DUP4 PUSH2 0x2225 JUMP JUMPDEST SWAP2 POP PUSH2 0x1F46 DUP3 PUSH2 0x26B7 JUMP JUMPDEST PUSH1 0x20 DUP3 ADD SWAP1 POP SWAP2 SWAP1 POP JUMP JUMPDEST PUSH2 0x1F5A DUP2 PUSH2 0x22F2 JUMP JUMPDEST DUP3 MSTORE POP POP JUMP JUMPDEST PUSH2 0x1F71 PUSH2 0x1F6C DUP3 PUSH2 0x22F2 JUMP JUMPDEST PUSH2 0x2427 JUMP JUMPDEST DUP3 MSTORE POP POP JUMP JUMPDEST PUSH2 0x1F80 DUP2 PUSH2 0x22FC JUMP JUMPDEST DUP3 MSTORE POP POP JUMP JUMPDEST PUSH1 0x0 PUSH2 0x1F92 DUP3 DUP7 PUSH2 0x1F60 JUMP JUMPDEST PUSH1 0x20 DUP3 ADD SWAP2 POP PUSH2 0x1FA2 DUP3 DUP6 PUSH2 0x1F60 JUMP JUMPDEST PUSH1 0x20 DUP3 ADD SWAP2 POP PUSH2 0x1FB2 DUP3 DUP5 PUSH2 0x1F60 JUMP JUMPDEST PUSH1 0x20 DUP3 ADD SWAP2 POP DUP2 SWAP1 POP SWAP5 SWAP4 POP POP POP POP JUMP JUMPDEST PUSH1 0x0 PUSH1 0x20 DUP3 ADD SWAP1 POP PUSH2 0x1FD8 PUSH1 0x0 DUP4 ADD DUP5 PUSH2 0x1DDA JUMP JUMPDEST SWAP3 SWAP2 POP POP JUMP JUMPDEST PUSH1 0x0 PUSH2 0x100 DUP3 ADD SWAP1 POP PUSH2 0x1FF4 PUSH1 0x0 DUP4 ADD DUP12 PUSH2 0x1DDA JUMP JUMPDEST DUP2 DUP2 SUB PUSH1 0x20 DUP4 ADD MSTORE PUSH2 0x2006 DUP2 DUP11 PUSH2 0x1DE9 JUMP JUMPDEST SWAP1 POP DUP2 DUP2 SUB PUSH1 0x40 DUP4 ADD MSTORE PUSH2 0x201A DUP2 DUP10 PUSH2 0x1DE9 JUMP JUMPDEST SWAP1 POP DUP2 DUP2 SUB PUSH1 0x60 DUP4 ADD MSTORE PUSH2 0x202E DUP2 DUP9 PUSH2 0x1DE9 JUMP JUMPDEST SWAP1 POP PUSH2 0x203D PUSH1 0x80 DUP4 ADD DUP8 PUSH2 0x1F51 JUMP JUMPDEST PUSH2 0x204A PUSH1 0xA0 DUP4 ADD DUP7 PUSH2 0x1F51 JUMP JUMPDEST PUSH2 0x2057 PUSH1 0xC0 DUP4 ADD DUP6 PUSH2 0x1F51 JUMP JUMPDEST PUSH2 0x2064 PUSH1 0xE0 DUP4 ADD DUP5 PUSH2 0x1F77 JUMP JUMPDEST SWAP10 SWAP9 POP POP POP POP POP POP POP POP POP JUMP JUMPDEST PUSH1 0x0 PUSH1 0x20 DUP3 ADD SWAP1 POP DUP2 DUP2 SUB PUSH1 0x0 DUP4 ADD MSTORE PUSH2 0x208B DUP2 DUP5 PUSH2 0x1DE9 JUMP JUMPDEST SWAP1 POP SWAP3 SWAP2 POP POP JUMP JUMPDEST PUSH1 0x0 PUSH1 0xA0 DUP3 ADD SWAP1 POP DUP2 DUP2 SUB PUSH1 0x0 DUP4 ADD MSTORE PUSH2 0x20AD DUP2 DUP9 PUSH2 0x1E22 JUMP JUMPDEST SWAP1 POP DUP2 DUP2 SUB PUSH1 0x20 DUP4 ADD MSTORE PUSH2 0x20C1 DUP2 DUP8 PUSH2 0x1E22 JUMP JUMPDEST SWAP1 POP PUSH2 0x20D0 PUSH1 0x40 DUP4 ADD DUP7 PUSH2 0x1F77 JUMP JUMPDEST PUSH2 0x20DD PUSH1 0x60 DUP4 ADD DUP6 PUSH2 0x1F51 JUMP JUMPDEST PUSH2 0x20EA PUSH1 0x80 DUP4 ADD DUP5 PUSH2 0x1F51 JUMP JUMPDEST SWAP7 SWAP6 POP POP POP POP POP POP JUMP JUMPDEST PUSH1 0x0 PUSH1 0x20 DUP3 ADD SWAP1 POP DUP2 DUP2 SUB PUSH1 0x0 DUP4 ADD MSTORE PUSH2 0x210D DUP2 PUSH2 0x1EA2 JUMP JUMPDEST SWAP1 POP SWAP2 SWAP1 POP JUMP JUMPDEST PUSH1 0x0 PUSH1 0x20 DUP3 ADD SWAP1 POP DUP2 DUP2 SUB PUSH1 0x0 DUP4 ADD MSTORE PUSH2 0x212D DUP2 PUSH2 0x1EC5 JUMP JUMPDEST SWAP1 POP SWAP2 SWAP1 POP JUMP JUMPDEST PUSH1 0x0 PUSH1 0x20 DUP3 ADD SWAP1 POP DUP2 DUP2 SUB PUSH1 0x0 DUP4 ADD MSTORE PUSH2 0x214D DUP2 PUSH2 0x1EE8 JUMP JUMPDEST SWAP1 POP SWAP2 SWAP1 POP JUMP JUMPDEST PUSH1 0x0 PUSH1 0x20 DUP3 ADD SWAP1 POP DUP2 DUP2 SUB PUSH1 0x0 DUP4 ADD MSTORE PUSH2 0x216D DUP2 PUSH2 0x1F0B JUMP JUMPDEST SWAP1 POP SWAP2 SWAP1 POP JUMP JUMPDEST PUSH1 0x0 PUSH1 0x20 DUP3 ADD SWAP1 POP DUP2 DUP2 SUB PUSH1 0x0 DUP4 ADD MSTORE PUSH2 0x218D DUP2 PUSH2 0x1F2E JUMP JUMPDEST SWAP1 POP SWAP2 SWAP1 POP JUMP JUMPDEST PUSH1 0x0 PUSH1 0x20 DUP3 ADD SWAP1 POP PUSH2 0x21A9 PUSH1 0x0 DUP4 ADD DUP5 PUSH2 0x1F51 JUMP JUMPDEST SWAP3 SWAP2 POP POP JUMP JUMPDEST PUSH1 0x0 PUSH2 0x21B9 PUSH2 0x21CA JUMP JUMPDEST SWAP1 POP PUSH2 0x21C5 DUP3 DUP3 PUSH2 0x2380 JUMP JUMPDEST SWAP2 SWAP1 POP JUMP JUMPDEST PUSH1 0x0 PUSH1 0x40 MLOAD SWAP1 POP SWAP1 JUMP JUMPDEST PUSH1 0x0 PUSH8 0xFFFFFFFFFFFFFFFF DUP3 GT ISZERO PUSH2 0x21EF JUMPI PUSH2 0x21EE PUSH2 0x254D JUMP JUMPDEST JUMPDEST PUSH2 0x21F8 DUP3 PUSH2 0x2590 JUMP JUMPDEST SWAP1 POP PUSH1 0x20 DUP2 ADD SWAP1 POP SWAP2 SWAP1 POP JUMP JUMPDEST PUSH1 0x0 DUP2 SWAP1 POP DUP2 PUSH1 0x0 MSTORE PUSH1 0x20 PUSH1 0x0 KECCAK256 SWAP1 POP SWAP2 SWAP1 POP JUMP JUMPDEST PUSH1 0x0 DUP2 MLOAD SWAP1 POP SWAP2 SWAP1 POP JUMP JUMPDEST PUSH1 0x0 DUP3 DUP3 MSTORE PUSH1 0x20 DUP3 ADD SWAP1 POP SWAP3 SWAP2 POP POP JUMP JUMPDEST PUSH1 0x0 PUSH2 0x2241 DUP3 PUSH2 0x22F2 JUMP JUMPDEST SWAP2 POP PUSH2 0x224C DUP4 PUSH2 0x22F2 JUMP JUMPDEST SWAP3 POP DUP3 PUSH32 0xFFFFFFFFFFFFFFFFFFFFFFFFFFFFFFFFFFFFFFFFFFFFFFFFFFFFFFFFFFFFFFFF SUB DUP3 GT ISZERO PUSH2 0x2281 JUMPI PUSH2 0x2280 PUSH2 0x2462 JUMP JUMPDEST JUMPDEST DUP3 DUP3 ADD SWAP1 POP SWAP3 SWAP2 POP POP JUMP JUMPDEST PUSH1 0x0 PUSH2 0x2297 DUP3 PUSH2 0x22F2 JUMP JUMPDEST SWAP2 POP PUSH2 0x22A2 DUP4 PUSH2 0x22F2 JUMP JUMPDEST SWAP3 POP DUP3 DUP3 LT ISZERO PUSH2 0x22B5 JUMPI PUSH2 0x22B4 PUSH2 0x2462 JUMP JUMPDEST JUMPDEST DUP3 DUP3 SUB SWAP1 POP SWAP3 SWAP2 POP POP JUMP JUMPDEST PUSH1 0x0 PUSH2 0x22CB DUP3 PUSH2 0x22D2 JUMP JUMPDEST SWAP1 POP SWAP2 SWAP1 POP JUMP JUMPDEST PUSH1 0x0 PUSH20 0xFFFFFFFFFFFFFFFFFFFFFFFFFFFFFFFFFFFFFFFF DUP3 AND SWAP1 POP SWAP2 SWAP1 POP JUMP JUMPDEST PUSH1 0x0 DUP2 SWAP1 POP SWAP2 SWAP1 POP JUMP JUMPDEST PUSH1 0x0 PUSH4 0xFFFFFFFF DUP3 AND SWAP1 POP SWAP2 SWAP1 POP JUMP JUMPDEST DUP3 DUP2 DUP4 CALLDATACOPY PUSH1 0x0 DUP4 DUP4 ADD MSTORE POP POP POP JUMP JUMPDEST PUSH1 0x0 JUMPDEST DUP4 DUP2 LT ISZERO PUSH2 0x2339 JUMPI DUP1 DUP3 ADD MLOAD DUP2 DUP5 ADD MSTORE PUSH1 0x20 DUP2 ADD SWAP1 POP PUSH2 0x231E JUMP JUMPDEST DUP4 DUP2 GT ISZERO PUSH2 0x2348 JUMPI PUSH1 0x0 DUP5 DUP5 ADD MSTORE JUMPDEST POP POP POP POP JUMP JUMPDEST PUSH1 0x0 PUSH1 0x2 DUP3 DIV SWAP1 POP PUSH1 0x1 DUP3 AND DUP1 PUSH2 0x2366 JUMPI PUSH1 0x7F DUP3 AND SWAP2 POP JUMPDEST PUSH1 0x20 DUP3 LT DUP2 EQ ISZERO PUSH2 0x237A JUMPI PUSH2 0x2379 PUSH2 0x24C0 JUMP JUMPDEST JUMPDEST POP SWAP2 SWAP1 POP JUMP JUMPDEST PUSH2 0x2389 DUP3 PUSH2 0x2590 JUMP JUMPDEST DUP2 ADD DUP2 DUP2 LT PUSH8 0xFFFFFFFFFFFFFFFF DUP3 GT OR ISZERO PUSH2 0x23A8 JUMPI PUSH2 0x23A7 PUSH2 0x254D JUMP JUMPDEST JUMPDEST DUP1 PUSH1 0x40 MSTORE POP POP POP JUMP JUMPDEST PUSH1 0x0 PUSH2 0x23BC DUP3 PUSH2 0x22F2 JUMP JUMPDEST SWAP2 POP PUSH32 0xFFFFFFFFFFFFFFFFFFFFFFFFFFFFFFFFFFFFFFFFFFFFFFFFFFFFFFFFFFFFFFFF DUP3 EQ ISZERO PUSH2 0x23EF JUMPI PUSH2 0x23EE PUSH2 0x2462 JUMP JUMPDEST JUMPDEST PUSH1 0x1 DUP3 ADD SWAP1 POP SWAP2 SWAP1 POP JUMP JUMPDEST PUSH1 0x0 PUSH2 0x2405 DUP3 PUSH2 0x22FC JUMP JUMPDEST SWAP2 POP PUSH4 0xFFFFFFFF DUP3 EQ ISZERO PUSH2 0x241C JUMPI PUSH2 0x241B PUSH2 0x2462 JUMP JUMPDEST JUMPDEST PUSH1 0x1 DUP3 ADD SWAP1 POP SWAP2 SWAP1 POP JUMP JUMPDEST PUSH1 0x0 DUP2 SWAP1 POP SWAP2 SWAP1 POP JUMP JUMPDEST PUSH1 0x0 PUSH2 0x243C DUP3 PUSH2 0x22F2 JUMP JUMPDEST SWAP2 POP PUSH2 0x2447 DUP4 PUSH2 0x22F2 JUMP JUMPDEST SWAP3 POP DUP3 PUSH2 0x2457 JUMPI PUSH2 0x2456 PUSH2 0x2491 JUMP JUMPDEST JUMPDEST DUP3 DUP3 MOD SWAP1 POP SWAP3 SWAP2 POP POP JUMP JUMPDEST PUSH32 0x4E487B7100000000000000000000000000000000000000000000000000000000 PUSH1 0x0 MSTORE PUSH1 0x11 PUSH1 0x4 MSTORE PUSH1 0x24 PUSH1 0x0 REVERT JUMPDEST PUSH32 0x4E487B7100000000000000000000000000000000000000000000000000000000 PUSH1 0x0 MSTORE PUSH1 0x12 PUSH1 0x4 MSTORE PUSH1 0x24 PUSH1 0x0 REVERT JUMPDEST PUSH32 0x4E487B7100000000000000000000000000000000000000000000000000000000 PUSH1 0x0 MSTORE PUSH1 0x22 PUSH1 0x4 MSTORE PUSH1 0x24 PUSH1 0x0 REVERT JUMPDEST PUSH32 0x4E487B7100000000000000000000000000000000000000000000000000000000 PUSH1 0x0 MSTORE PUSH1 0x31 PUSH1 0x4 MSTORE PUSH1 0x24 PUSH1 0x0 REVERT JUMPDEST PUSH32 0x4E487B7100000000000000000000000000000000000000000000000000000000 PUSH1 0x0 MSTORE PUSH1 0x32 PUSH1 0x4 MSTORE PUSH1 0x24 PUSH1 0x0 REVERT JUMPDEST PUSH32 0x4E487B7100000000000000000000000000000000000000000000000000000000 PUSH1 0x0 MSTORE PUSH1 0x41 PUSH1 0x4 MSTORE PUSH1 0x24 PUSH1 0x0 REVERT JUMPDEST PUSH1 0x0 DUP1 REVERT JUMPDEST PUSH1 0x0 DUP1 REVERT JUMPDEST PUSH1 0x0 DUP1 REVERT JUMPDEST PUSH1 0x0 DUP1 REVERT JUMPDEST PUSH1 0x0 PUSH1 0x1F NOT PUSH1 0x1F DUP4 ADD AND SWAP1 POP SWAP2 SWAP1 POP JUMP JUMPDEST PUSH32 0x536F6C6F2073652070756564652074656E657220756E20636F63686520706F72 PUSH1 0x0 DUP3 ADD MSTORE PUSH32 0x20706572736F6E61000000000000000000000000000000000000000000000000 PUSH1 0x20 DUP3 ADD MSTORE POP JUMP JUMPDEST PUSH32 0x4F776E61626C653A206E6577206F776E657220697320746865207A65726F2061 PUSH1 0x0 DUP3 ADD MSTORE PUSH32 0x6464726573730000000000000000000000000000000000000000000000000000 PUSH1 0x20 DUP3 ADD MSTORE POP JUMP JUMPDEST PUSH32 0x4E6F2068617920636F6368657320737566696369656E74657320706172612069 PUSH1 0x0 DUP3 ADD MSTORE PUSH32 0x6E696369617220756E6120636172726572610000000000000000000000000000 PUSH1 0x20 DUP3 ADD MSTORE POP JUMP JUMPDEST PUSH32 0x4F776E61626C653A2063616C6C6572206973206E6F7420746865206F776E6572 PUSH1 0x0 DUP3 ADD MSTORE POP JUMP JUMPDEST PUSH32 0x456C20636F6368652067616E61646F722065733A200000000000000000000000 PUSH1 0x0 DUP3 ADD MSTORE POP JUMP JUMPDEST PUSH2 0x26E9 DUP2 PUSH2 0x22C0 JUMP JUMPDEST DUP2 EQ PUSH2 0x26F4 JUMPI PUSH1 0x0 DUP1 REVERT JUMPDEST POP JUMP JUMPDEST PUSH2 0x2700 DUP2 PUSH2 0x22F2 JUMP JUMPDEST DUP2 EQ PUSH2 0x270B JUMPI PUSH1 0x0 DUP1 REVERT JUMPDEST POP JUMP INVALID LOG2 PUSH5 0x6970667358 0x22 SLT KECCAK256 0xF STOP PUSH12 0x32D3BEA071E90DA26305A222 EXTCODECOPY ORIGIN 0xCF 0x1F SSTORE 0xE7 0xAD DUP11 0xA6 SWAP9 0xA6 MOD 0xCD 0xF9 REVERT 0xB3 DUP13 PUSH5 0x736F6C6343 STOP ADDMOD SMOD STOP CALLER "
				},
				"gasEstimates": {
					"creation": {
						"codeDepositCost": "2010400",
						"executionCost": "infinite",
						"totalCost": "infinite"
					},
					"external": {
						"Apostar(uint256)": "infinite",
						"_owner()": "2533",
						"anadirCoche(string,string,string)": "infinite",
						"borrarCoche(address)": "infinite",
						"cocheDePropietario(uint256)": "2884",
						"comprarCoche(address,string,string)": "infinite",
						"listaCoches(uint256)": "infinite",
						"numeroCochesPersona(address)": "2859",
						"owner()": "2589",
						"renounceOwnership()": "30397",
						"subirDeNivel(address)": "infinite",
						"transferOwnership(address)": "30811",
						"verCochePropietario(address)": "infinite"
					},
					"internal": {
						"_depositoLleno(struct CarreraCoches.Coche storage pointer)": "infinite",
						"_repostando(struct CarreraCoches.Coche storage pointer)": "infinite",
						"balance()": "infinite",
						"numAleatorio(uint256)": "infinite"
					}
				},
				"methodIdentifiers": {
					"Apostar(uint256)": "6b6f0494",
					"_owner()": "b2bdfa7b",
					"anadirCoche(string,string,string)": "2458c544",
					"borrarCoche(address)": "17bde7a9",
					"cocheDePropietario(uint256)": "858b0554",
					"comprarCoche(address,string,string)": "049a5f65",
					"listaCoches(uint256)": "d735573d",
					"numeroCochesPersona(address)": "1c6743e4",
					"owner()": "8da5cb5b",
					"renounceOwnership()": "715018a6",
					"subirDeNivel(address)": "6a7d1816",
					"transferOwnership(address)": "f2fde38b",
					"verCochePropietario(address)": "e172fca8"
				}
			},
			"storageLayout": {
				"storage": [
					{
						"astId": 7,
						"contract": "contracts/CarreraCoches/principal.sol:CarreraCoches",
						"label": "_owner",
						"offset": 0,
						"slot": "0",
						"type": "t_address"
					},
					{
						"astId": 129,
						"contract": "contracts/CarreraCoches/principal.sol:CarreraCoches",
						"label": "randNonce",
						"offset": 0,
						"slot": "1",
						"type": "t_uint256"
					},
					{
						"astId": 132,
						"contract": "contracts/CarreraCoches/principal.sol:CarreraCoches",
						"label": "contador",
						"offset": 0,
						"slot": "2",
						"type": "t_uint256"
					},
					{
						"astId": 135,
						"contract": "contracts/CarreraCoches/principal.sol:CarreraCoches",
						"label": "cooldown",
						"offset": 0,
						"slot": "3",
						"type": "t_uint256"
					},
					{
						"astId": 138,
						"contract": "contracts/CarreraCoches/principal.sol:CarreraCoches",
						"label": "subirNivel",
						"offset": 0,
						"slot": "4",
						"type": "t_uint256"
					},
					{
						"astId": 141,
						"contract": "contracts/CarreraCoches/principal.sol:CarreraCoches",
						"label": "cambiarCocheV",
						"offset": 0,
						"slot": "5",
						"type": "t_uint256"
					},
					{
						"astId": 145,
						"contract": "contracts/CarreraCoches/principal.sol:CarreraCoches",
						"label": "listaCoches",
						"offset": 0,
						"slot": "6",
						"type": "t_array(t_struct(Coche)126_storage)dyn_storage"
					},
					{
						"astId": 175,
						"contract": "contracts/CarreraCoches/principal.sol:CarreraCoches",
						"label": "cocheDePropietario",
						"offset": 0,
						"slot": "7",
						"type": "t_mapping(t_uint256,t_address)"
					},
					{
						"astId": 179,
						"contract": "contracts/CarreraCoches/principal.sol:CarreraCoches",
						"label": "numeroCochesPersona",
						"offset": 0,
						"slot": "8",
						"type": "t_mapping(t_address,t_uint256)"
					}
				],
				"types": {
					"t_address": {
						"encoding": "inplace",
						"label": "address",
						"numberOfBytes": "20"
					},
					"t_array(t_struct(Coche)126_storage)dyn_storage": {
						"base": "t_struct(Coche)126_storage",
						"encoding": "dynamic_array",
						"label": "struct CarreraCoches.Coche[]",
						"numberOfBytes": "32"
					},
					"t_mapping(t_address,t_uint256)": {
						"encoding": "mapping",
						"key": "t_address",
						"label": "mapping(address => uint256)",
						"numberOfBytes": "32",
						"value": "t_uint256"
					},
					"t_mapping(t_uint256,t_address)": {
						"encoding": "mapping",
						"key": "t_uint256",
						"label": "mapping(uint256 => address)",
						"numberOfBytes": "32",
						"value": "t_address"
					},
					"t_string_storage": {
						"encoding": "bytes",
						"label": "string",
						"numberOfBytes": "32"
					},
					"t_struct(Coche)126_storage": {
						"encoding": "inplace",
						"label": "struct CarreraCoches.Coche",
						"members": [
							{
								"astId": 111,
								"contract": "contracts/CarreraCoches/principal.sol:CarreraCoches",
								"label": "idPiloto",
								"offset": 0,
								"slot": "0",
								"type": "t_address"
							},
							{
								"astId": 113,
								"contract": "contracts/CarreraCoches/principal.sol:CarreraCoches",
								"label": "modelo",
								"offset": 0,
								"slot": "1",
								"type": "t_string_storage"
							},
							{
								"astId": 115,
								"contract": "contracts/CarreraCoches/principal.sol:CarreraCoches",
								"label": "marca",
								"offset": 0,
								"slot": "2",
								"type": "t_string_storage"
							},
							{
								"astId": 117,
								"contract": "contracts/CarreraCoches/principal.sol:CarreraCoches",
								"label": "nombrePiloto",
								"offset": 0,
								"slot": "3",
								"type": "t_string_storage"
							},
							{
								"astId": 119,
								"contract": "contracts/CarreraCoches/principal.sol:CarreraCoches",
								"label": "carrerasGanadas",
								"offset": 0,
								"slot": "4",
								"type": "t_uint256"
							},
							{
								"astId": 121,
								"contract": "contracts/CarreraCoches/principal.sol:CarreraCoches",
								"label": "carrerasTotales",
								"offset": 0,
								"slot": "5",
								"type": "t_uint256"
							},
							{
								"astId": 123,
								"contract": "contracts/CarreraCoches/principal.sol:CarreraCoches",
								"label": "tiempoEspera",
								"offset": 0,
								"slot": "6",
								"type": "t_uint256"
							},
							{
								"astId": 125,
								"contract": "contracts/CarreraCoches/principal.sol:CarreraCoches",
								"label": "nivel",
								"offset": 0,
								"slot": "7",
								"type": "t_uint32"
							}
						],
						"numberOfBytes": "256"
					},
					"t_uint256": {
						"encoding": "inplace",
						"label": "uint256",
						"numberOfBytes": "32"
					},
					"t_uint32": {
						"encoding": "inplace",
						"label": "uint32",
						"numberOfBytes": "4"
					}
				}
			},
			"userdoc": {
				"kind": "user",
				"methods": {},
				"version": 1
			}
		}
	}
}