{
	"contracts/CarreraCoches/cocheToken.sol": {
		"CocheToken": {
			"abi": [
				{
					"anonymous": false,
					"inputs": [
						{
							"indexed": true,
							"internalType": "address",
							"name": "_owner",
							"type": "address"
						},
						{
							"indexed": true,
							"internalType": "address",
							"name": "_approved",
							"type": "address"
						},
						{
							"indexed": true,
							"internalType": "uint256",
							"name": "_tokenId",
							"type": "uint256"
						}
					],
					"name": "Approval",
					"type": "event"
				},
				{
					"anonymous": false,
					"inputs": [
						{
							"indexed": true,
							"internalType": "address",
							"name": "_owner",
							"type": "address"
						},
						{
							"indexed": true,
							"internalType": "address",
							"name": "_operator",
							"type": "address"
						},
						{
							"indexed": false,
							"internalType": "bool",
							"name": "_approved",
							"type": "bool"
						}
					],
					"name": "ApprovalForAll",
					"type": "event"
				},
				{
					"anonymous": false,
					"inputs": [
						{
							"indexed": true,
							"internalType": "address",
							"name": "previousOwner",
							"type": "address"
						},
						{
							"indexed": true,
							"internalType": "address",
							"name": "newOwner",
							"type": "address"
						}
					],
					"name": "OwnershipTransferred",
					"type": "event"
				},
				{
					"anonymous": false,
					"inputs": [
						{
							"indexed": true,
							"internalType": "address",
							"name": "_from",
							"type": "address"
						},
						{
							"indexed": true,
							"internalType": "address",
							"name": "_to",
							"type": "address"
						},
						{
							"indexed": true,
							"internalType": "uint256",
							"name": "_tokenId",
							"type": "uint256"
						}
					],
					"name": "Transfer",
					"type": "event"
				},
				{
					"anonymous": false,
					"inputs": [
						{
							"indexed": false,
							"internalType": "string",
							"name": "mo",
							"type": "string"
						},
						{
							"indexed": false,
							"internalType": "string",
							"name": "ma",
							"type": "string"
						},
						{
							"indexed": false,
							"internalType": "uint32",
							"name": "niv",
							"type": "uint32"
						},
						{
							"indexed": false,
							"internalType": "uint256",
							"name": "carrGan",
							"type": "uint256"
						},
						{
							"indexed": false,
							"internalType": "uint256",
							"name": "carrTot",
							"type": "uint256"
						}
					],
					"name": "cochePropietario",
					"type": "event"
				},
				{
					"anonymous": false,
					"inputs": [
						{
							"indexed": false,
							"internalType": "uint256",
							"name": "compr",
							"type": "uint256"
						}
					],
					"name": "comprobar",
					"type": "event"
				},
				{
					"anonymous": false,
					"inputs": [
						{
							"indexed": false,
							"internalType": "string",
							"name": "ms",
							"type": "string"
						}
					],
					"name": "confirmacionDepositoLleno",
					"type": "event"
				},
				{
					"anonymous": false,
					"inputs": [
						{
							"indexed": false,
							"internalType": "string",
							"name": "ms",
							"type": "string"
						},
						{
							"indexed": false,
							"internalType": "uint256",
							"name": "res",
							"type": "uint256"
						}
					],
					"name": "mostrarResultado",
					"type": "event"
				},
				{
					"inputs": [
						{
							"internalType": "uint256",
							"name": "dineroApostar",
							"type": "uint256"
						}
					],
					"name": "Apostar",
					"outputs": [
						{
							"internalType": "string",
							"name": "",
							"type": "string"
						}
					],
					"stateMutability": "payable",
					"type": "function"
				},
				{
					"inputs": [],
					"name": "_owner",
					"outputs": [
						{
							"internalType": "address",
							"name": "",
							"type": "address"
						}
					],
					"stateMutability": "view",
					"type": "function"
				},
				{
					"inputs": [
						{
							"internalType": "string",
							"name": "_modelo",
							"type": "string"
						},
						{
							"internalType": "string",
							"name": "_marca",
							"type": "string"
						},
						{
							"internalType": "string",
							"name": "_nombrePiloto",
							"type": "string"
						}
					],
					"name": "anadirCoche",
					"outputs": [
						{
							"internalType": "uint256",
							"name": "",
							"type": "uint256"
						}
					],
					"stateMutability": "nonpayable",
					"type": "function"
				},
				{
					"inputs": [
						{
							"internalType": "address",
							"name": "_approved",
							"type": "address"
						},
						{
							"internalType": "uint256",
							"name": "_tokenId",
							"type": "uint256"
						}
					],
					"name": "approve",
					"outputs": [],
					"stateMutability": "payable",
					"type": "function"
				},
				{
					"inputs": [
						{
							"internalType": "address",
							"name": "_owner",
							"type": "address"
						}
					],
					"name": "balanceOf",
					"outputs": [
						{
							"internalType": "uint256",
							"name": "",
							"type": "uint256"
						}
					],
					"stateMutability": "view",
					"type": "function"
				},
				{
					"inputs": [
						{
							"internalType": "uint256",
							"name": "",
							"type": "uint256"
						}
					],
					"name": "cocheDePropietario",
					"outputs": [
						{
							"internalType": "address",
							"name": "",
							"type": "address"
						}
					],
					"stateMutability": "view",
					"type": "function"
				},
				{
					"inputs": [
						{
							"internalType": "address",
							"name": "_address",
							"type": "address"
						},
						{
							"internalType": "string",
							"name": "_newModelo",
							"type": "string"
						},
						{
							"internalType": "string",
							"name": "_newMarca",
							"type": "string"
						}
					],
					"name": "comprarCoche",
					"outputs": [
						{
							"internalType": "string",
							"name": "",
							"type": "string"
						}
					],
					"stateMutability": "payable",
					"type": "function"
				},
				{
					"inputs": [
						{
							"internalType": "uint256",
							"name": "_tokenId",
							"type": "uint256"
						}
					],
					"name": "getApproved",
					"outputs": [
						{
							"internalType": "address",
							"name": "",
							"type": "address"
						}
					],
					"stateMutability": "view",
					"type": "function"
				},
				{
					"inputs": [
						{
							"internalType": "address",
							"name": "_owner",
							"type": "address"
						},
						{
							"internalType": "address",
							"name": "_operator",
							"type": "address"
						}
					],
					"name": "isApprovedForAll",
					"outputs": [
						{
							"internalType": "bool",
							"name": "",
							"type": "bool"
						}
					],
					"stateMutability": "view",
					"type": "function"
				},
				{
					"inputs": [
						{
							"internalType": "uint256",
							"name": "",
							"type": "uint256"
						}
					],
					"name": "listaCoches",
					"outputs": [
						{
							"internalType": "address",
							"name": "idPiloto",
							"type": "address"
						},
						{
							"internalType": "string",
							"name": "modelo",
							"type": "string"
						},
						{
							"internalType": "string",
							"name": "marca",
							"type": "string"
						},
						{
							"internalType": "string",
							"name": "nombrePiloto",
							"type": "string"
						},
						{
							"internalType": "uint256",
							"name": "carrerasGanadas",
							"type": "uint256"
						},
						{
							"internalType": "uint256",
							"name": "carrerasTotales",
							"type": "uint256"
						},
						{
							"internalType": "uint256",
							"name": "tiempoEspera",
							"type": "uint256"
						},
						{
							"internalType": "uint32",
							"name": "nivel",
							"type": "uint32"
						}
					],
					"stateMutability": "view",
					"type": "function"
				},
				{
					"inputs": [
						{
							"internalType": "address",
							"name": "",
							"type": "address"
						}
					],
					"name": "numeroCochesPersona",
					"outputs": [
						{
							"internalType": "uint256",
							"name": "",
							"type": "uint256"
						}
					],
					"stateMutability": "view",
					"type": "function"
				},
				{
					"inputs": [],
					"name": "owner",
					"outputs": [
						{
							"internalType": "address",
							"name": "",
							"type": "address"
						}
					],
					"stateMutability": "view",
					"type": "function"
				},
				{
					"inputs": [
						{
							"internalType": "uint256",
							"name": "_tokenId",
							"type": "uint256"
						}
					],
					"name": "ownerOf",
					"outputs": [
						{
							"internalType": "address",
							"name": "",
							"type": "address"
						}
					],
					"stateMutability": "view",
					"type": "function"
				},
				{
					"inputs": [],
					"name": "renounceOwnership",
					"outputs": [],
					"stateMutability": "nonpayable",
					"type": "function"
				},
				{
					"inputs": [
						{
							"internalType": "address",
							"name": "_from",
							"type": "address"
						},
						{
							"internalType": "address",
							"name": "_to",
							"type": "address"
						},
						{
							"internalType": "uint256",
							"name": "_tokenId",
							"type": "uint256"
						}
					],
					"name": "safeTransferFrom",
					"outputs": [],
					"stateMutability": "payable",
					"type": "function"
				},
				{
					"inputs": [
						{
							"internalType": "address",
							"name": "_from",
							"type": "address"
						},
						{
							"internalType": "address",
							"name": "_to",
							"type": "address"
						},
						{
							"internalType": "uint256",
							"name": "_tokenId",
							"type": "uint256"
						},
						{
							"internalType": "bytes",
							"name": "data",
							"type": "bytes"
						}
					],
					"name": "safeTransferFrom",
					"outputs": [],
					"stateMutability": "payable",
					"type": "function"
				},
				{
					"inputs": [
						{
							"internalType": "address",
							"name": "_operator",
							"type": "address"
						},
						{
							"internalType": "bool",
							"name": "_approved",
							"type": "bool"
						}
					],
					"name": "setApprovalForAll",
					"outputs": [],
					"stateMutability": "nonpayable",
					"type": "function"
				},
				{
					"inputs": [
						{
							"internalType": "address",
							"name": "_propietario",
							"type": "address"
						}
					],
					"name": "subirDeNivel",
					"outputs": [
						{
							"internalType": "string",
							"name": "",
							"type": "string"
						}
					],
					"stateMutability": "payable",
					"type": "function"
				},
				{
					"inputs": [
						{
							"internalType": "uint256",
							"name": "_tokenId",
							"type": "uint256"
						}
					],
					"name": "takeOwnership",
					"outputs": [],
					"stateMutability": "nonpayable",
					"type": "function"
				},
				{
					"inputs": [
						{
							"internalType": "address",
							"name": "_from",
							"type": "address"
						},
						{
							"internalType": "address",
							"name": "_to",
							"type": "address"
						},
						{
							"internalType": "uint256",
							"name": "_tokenId",
							"type": "uint256"
						}
					],
					"name": "transferFrom",
					"outputs": [],
					"stateMutability": "payable",
					"type": "function"
				},
				{
					"inputs": [
						{
							"internalType": "address",
							"name": "newOwner",
							"type": "address"
						}
					],
					"name": "transferOwnership",
					"outputs": [],
					"stateMutability": "nonpayable",
					"type": "function"
				},
				{
					"inputs": [
						{
							"internalType": "address",
							"name": "_propietario",
							"type": "address"
						}
					],
					"name": "verCochePropietario",
					"outputs": [],
					"stateMutability": "nonpayable",
					"type": "function"
				}
			],
			"devdoc": {
				"kind": "dev",
				"methods": {
					"owner()": {
						"details": "Returns the address of the current owner."
					},
					"renounceOwnership()": {
						"details": "Leaves the contract without owner. It will not be possible to call `onlyOwner` functions anymore. Can only be called by the current owner. NOTE: Renouncing ownership will leave the contract without an owner, thereby removing any functionality that is only available to the owner."
					},
					"transferOwnership(address)": {
						"details": "Transfers ownership of the contract to a new account (`newOwner`). Can only be called by the current owner."
					}
				},
				"version": 1
			},
			"evm": {
				"assembly": "    /* \"contracts/CarreraCoches/cocheToken.sol\":80:3096  contract CocheToken is CarreraCoches, ERC721 {\r... */\n  mstore(0x40, 0x80)\n    /* \"contracts/CarreraCoches/principal.sol\":370:371  0 */\n  0x00\n    /* \"contracts/CarreraCoches/principal.sol\":353:371  uint randNonce = 0 */\n  0x01\n  sstore\n    /* \"contracts/CarreraCoches/principal.sol\":494:495  0 */\n  0x00\n    /* \"contracts/CarreraCoches/principal.sol\":478:495  uint contador = 0 */\n  0x02\n  sstore\n    /* \"contracts/CarreraCoches/principal.sol\":518:528  60 seconds */\n  0x3c\n    /* \"contracts/CarreraCoches/principal.sol\":502:528  uint cooldown = 60 seconds */\n  0x03\n  sstore\n    /* \"contracts/CarreraCoches/principal.sol\":553:560  1 ether */\n  0x0de0b6b3a7640000\n    /* \"contracts/CarreraCoches/principal.sol\":535:560  uint subirNivel = 1 ether */\n  0x04\n  sstore\n    /* \"contracts/CarreraCoches/principal.sol\":588:595  2 ether */\n  0x1bc16d674ec80000\n    /* \"contracts/CarreraCoches/principal.sol\":567:595  uint cambiarCocheV = 2 ether */\n  0x05\n  sstore\n    /* \"contracts/CarreraCoches/cocheToken.sol\":80:3096  contract CocheToken is CarreraCoches, ERC721 {\r... */\n  callvalue\n  dup1\n  iszero\n  tag_1\n  jumpi\n  0x00\n  dup1\n  revert\ntag_1:\n  pop\n    /* \"contracts/CarreraCoches/ownable.sol\":947:979  _transferOwnership(_msgSender()) */\n  tag_4\n    /* \"contracts/CarreraCoches/ownable.sol\":966:978  _msgSender() */\n  tag_5\n    /* \"contracts/CarreraCoches/ownable.sol\":966:976  _msgSender */\n  shl(0x20, tag_6)\n    /* \"contracts/CarreraCoches/ownable.sol\":966:978  _msgSender() */\n  0x20\n  shr\n  jump\t// in\ntag_5:\n    /* \"contracts/CarreraCoches/ownable.sol\":947:965  _transferOwnership */\n  shl(0x20, tag_7)\n    /* \"contracts/CarreraCoches/ownable.sol\":947:979  _transferOwnership(_msgSender()) */\n  0x20\n  shr\n  jump\t// in\ntag_4:\n    /* \"contracts/CarreraCoches/cocheToken.sol\":80:3096  contract CocheToken is CarreraCoches, ERC721 {\r... */\n  jump(tag_8)\n    /* \"contracts/CarreraCoches/utils/Context.sol\":656:754  function _msgSender() internal view virtual returns (address) {\r... */\ntag_6:\n    /* \"contracts/CarreraCoches/utils/Context.sol\":709:716  address */\n  0x00\n    /* \"contracts/CarreraCoches/utils/Context.sol\":736:746  msg.sender */\n  caller\n    /* \"contracts/CarreraCoches/utils/Context.sol\":729:746  return msg.sender */\n  swap1\n  pop\n    /* \"contracts/CarreraCoches/utils/Context.sol\":656:754  function _msgSender() internal view virtual returns (address) {\r... */\n  swap1\n  jump\t// out\n    /* \"contracts/CarreraCoches/ownable.sol\":2338:2529  function _transferOwnership(address newOwner) internal virtual {\r... */\ntag_7:\n    /* \"contracts/CarreraCoches/ownable.sol\":2412:2428  address oldOwner */\n  0x00\n    /* \"contracts/CarreraCoches/ownable.sol\":2431:2437  _owner */\n  dup1\n  0x00\n  swap1\n  sload\n  swap1\n  0x0100\n  exp\n  swap1\n  div\n  0xffffffffffffffffffffffffffffffffffffffff\n  and\n    /* \"contracts/CarreraCoches/ownable.sol\":2412:2437  address oldOwner = _owner */\n  swap1\n  pop\n    /* \"contracts/CarreraCoches/ownable.sol\":2457:2465  newOwner */\n  dup2\n    /* \"contracts/CarreraCoches/ownable.sol\":2448:2454  _owner */\n  0x00\n  dup1\n    /* \"contracts/CarreraCoches/ownable.sol\":2448:2465  _owner = newOwner */\n  0x0100\n  exp\n  dup2\n  sload\n  dup2\n  0xffffffffffffffffffffffffffffffffffffffff\n  mul\n  not\n  and\n  swap1\n  dup4\n  0xffffffffffffffffffffffffffffffffffffffff\n  and\n  mul\n  or\n  swap1\n  sstore\n  pop\n    /* \"contracts/CarreraCoches/ownable.sol\":2512:2520  newOwner */\n  dup2\n    /* \"contracts/CarreraCoches/ownable.sol\":2481:2521  OwnershipTransferred(oldOwner, newOwner) */\n  0xffffffffffffffffffffffffffffffffffffffff\n  and\n    /* \"contracts/CarreraCoches/ownable.sol\":2502:2510  oldOwner */\n  dup2\n    /* \"contracts/CarreraCoches/ownable.sol\":2481:2521  OwnershipTransferred(oldOwner, newOwner) */\n  0xffffffffffffffffffffffffffffffffffffffff\n  and\n  0x8be0079c531659141344cd1fd0a4f28419497f9722a3daafe3b4186f6b6457e0\n  mload(0x40)\n  mload(0x40)\n  dup1\n  swap2\n  sub\n  swap1\n  log3\n    /* \"contracts/CarreraCoches/ownable.sol\":2401:2529  {\r... */\n  pop\n    /* \"contracts/CarreraCoches/ownable.sol\":2338:2529  function _transferOwnership(address newOwner) internal virtual {\r... */\n  pop\n  jump\t// out\n    /* \"contracts/CarreraCoches/cocheToken.sol\":80:3096  contract CocheToken is CarreraCoches, ERC721 {\r... */\ntag_8:\n  dataSize(sub_0)\n  dup1\n  dataOffset(sub_0)\n  0x00\n  codecopy\n  0x00\n  return\nstop\n\nsub_0: assembly {\n        /* \"contracts/CarreraCoches/cocheToken.sol\":80:3096  contract CocheToken is CarreraCoches, ERC721 {\r... */\n      mstore(0x40, 0x80)\n      jumpi(tag_1, lt(calldatasize, 0x04))\n      shr(0xe0, calldataload(0x00))\n      dup1\n      0x715018a6\n      gt\n      tag_24\n      jumpi\n      dup1\n      0xb2e6ceeb\n      gt\n      tag_25\n      jumpi\n      dup1\n      0xb2e6ceeb\n      eq\n      tag_18\n      jumpi\n      dup1\n      0xb88d4fde\n      eq\n      tag_19\n      jumpi\n      dup1\n      0xd735573d\n      eq\n      tag_20\n      jumpi\n      dup1\n      0xe172fca8\n      eq\n      tag_21\n      jumpi\n      dup1\n      0xe985e9c5\n      eq\n      tag_22\n      jumpi\n      dup1\n      0xf2fde38b\n      eq\n      tag_23\n      jumpi\n      jump(tag_1)\n    tag_25:\n      dup1\n      0x715018a6\n      eq\n      tag_13\n      jumpi\n      dup1\n      0x858b0554\n      eq\n      tag_14\n      jumpi\n      dup1\n      0x8da5cb5b\n      eq\n      tag_15\n      jumpi\n      dup1\n      0xa22cb465\n      eq\n      tag_16\n      jumpi\n      dup1\n      0xb2bdfa7b\n      eq\n      tag_17\n      jumpi\n      jump(tag_1)\n    tag_24:\n      dup1\n      0x2458c544\n      gt\n      tag_26\n      jumpi\n      dup1\n      0x2458c544\n      eq\n      tag_7\n      jumpi\n      dup1\n      0x42842e0e\n      eq\n      tag_8\n      jumpi\n      dup1\n      0x6352211e\n      eq\n      tag_9\n      jumpi\n      dup1\n      0x6a7d1816\n      eq\n      tag_10\n      jumpi\n      dup1\n      0x6b6f0494\n      eq\n      tag_11\n      jumpi\n      dup1\n      0x70a08231\n      eq\n      tag_12\n      jumpi\n      jump(tag_1)\n    tag_26:\n      dup1\n      0x049a5f65\n      eq\n      tag_2\n      jumpi\n      dup1\n      0x081812fc\n      eq\n      tag_3\n      jumpi\n      dup1\n      0x095ea7b3\n      eq\n      tag_4\n      jumpi\n      dup1\n      0x1c6743e4\n      eq\n      tag_5\n      jumpi\n      dup1\n      0x23b872dd\n      eq\n      tag_6\n      jumpi\n    tag_1:\n      0x00\n      dup1\n      revert\n        /* \"contracts/CarreraCoches/principal.sol\":3448:3910  function comprarCoche(address _address, string memory _newModelo, string memory _newMarca) external payable returns(string memory) {\r... */\n    tag_2:\n      tag_27\n      0x04\n      dup1\n      calldatasize\n      sub\n      dup2\n      add\n      swap1\n      tag_28\n      swap2\n      swap1\n      tag_29\n      jump\t// in\n    tag_28:\n      tag_30\n      jump\t// in\n    tag_27:\n      mload(0x40)\n      tag_31\n      swap2\n      swap1\n      tag_32\n      jump\t// in\n    tag_31:\n      mload(0x40)\n      dup1\n      swap2\n      sub\n      swap1\n      return\n        /* \"contracts/CarreraCoches/cocheToken.sol\":2630:2727  function getApproved(uint256 _tokenId) external override virtual view returns (address){\r... */\n    tag_3:\n      callvalue\n      dup1\n      iszero\n      tag_33\n      jumpi\n      0x00\n      dup1\n      revert\n    tag_33:\n      pop\n      tag_34\n      0x04\n      dup1\n      calldatasize\n      sub\n      dup2\n      add\n      swap1\n      tag_35\n      swap2\n      swap1\n      tag_36\n      jump\t// in\n    tag_35:\n      tag_37\n      jump\t// in\n    tag_34:\n      mload(0x40)\n      tag_38\n      swap2\n      swap1\n      tag_39\n      jump\t// in\n    tag_38:\n      mload(0x40)\n      dup1\n      swap2\n      sub\n      swap1\n      return\n        /* \"contracts/CarreraCoches/cocheToken.sol\":2314:2521  function approve(address _approved, uint256 _tokenId) external override virtual payable{\r... */\n    tag_4:\n      tag_40\n      0x04\n      dup1\n      calldatasize\n      sub\n      dup2\n      add\n      swap1\n      tag_41\n      swap2\n      swap1\n      tag_42\n      jump\t// in\n    tag_41:\n      tag_43\n      jump\t// in\n    tag_40:\n      stop\n        /* \"contracts/CarreraCoches/principal.sol\":929:981  mapping (address => uint) public numeroCochesPersona */\n    tag_5:\n      callvalue\n      dup1\n      iszero\n      tag_44\n      jumpi\n      0x00\n      dup1\n      revert\n    tag_44:\n      pop\n      tag_45\n      0x04\n      dup1\n      calldatasize\n      sub\n      dup2\n      add\n      swap1\n      tag_46\n      swap2\n      swap1\n      tag_47\n      jump\t// in\n    tag_46:\n      tag_48\n      jump\t// in\n    tag_45:\n      mload(0x40)\n      tag_49\n      swap2\n      swap1\n      tag_50\n      jump\t// in\n    tag_49:\n      mload(0x40)\n      dup1\n      swap2\n      sub\n      swap1\n      return\n        /* \"contracts/CarreraCoches/cocheToken.sol\":2152:2308  function transferFrom(address _from, address _to, uint256 _tokenId) external override virtual payable{\r... */\n    tag_6:\n      tag_51\n      0x04\n      dup1\n      calldatasize\n      sub\n      dup2\n      add\n      swap1\n      tag_52\n      swap2\n      swap1\n      tag_53\n      jump\t// in\n    tag_52:\n      tag_54\n      jump\t// in\n    tag_51:\n      stop\n        /* \"contracts/CarreraCoches/principal.sol\":1777:2217  function anadirCoche(string memory _modelo, string memory _marca, string memory _nombrePiloto) public restriccion returns (uint) {\r... */\n    tag_7:\n      callvalue\n      dup1\n      iszero\n      tag_55\n      jumpi\n      0x00\n      dup1\n      revert\n    tag_55:\n      pop\n      tag_56\n      0x04\n      dup1\n      calldatasize\n      sub\n      dup2\n      add\n      swap1\n      tag_57\n      swap2\n      swap1\n      tag_58\n      jump\t// in\n    tag_57:\n      tag_59\n      jump\t// in\n    tag_56:\n      mload(0x40)\n      tag_60\n      swap2\n      swap1\n      tag_50\n      jump\t// in\n    tag_60:\n      mload(0x40)\n      dup1\n      swap2\n      sub\n      swap1\n      return\n        /* \"contracts/CarreraCoches/cocheToken.sol\":2031:2146  function safeTransferFrom(address _from, address _to, uint256 _tokenId) external override virtual payable{\r... */\n    tag_8:\n      tag_61\n      0x04\n      dup1\n      calldatasize\n      sub\n      dup2\n      add\n      swap1\n      tag_62\n      swap2\n      swap1\n      tag_53\n      jump\t// in\n    tag_62:\n      tag_63\n      jump\t// in\n    tag_61:\n      stop\n        /* \"contracts/CarreraCoches/cocheToken.sol\":1485:1622  function ownerOf(uint256 _tokenId) external override virtual view returns (address){\r... */\n    tag_9:\n      callvalue\n      dup1\n      iszero\n      tag_64\n      jumpi\n      0x00\n      dup1\n      revert\n    tag_64:\n      pop\n      tag_65\n      0x04\n      dup1\n      calldatasize\n      sub\n      dup2\n      add\n      swap1\n      tag_66\n      swap2\n      swap1\n      tag_36\n      jump\t// in\n    tag_66:\n      tag_67\n      jump\t// in\n    tag_65:\n      mload(0x40)\n      tag_68\n      swap2\n      swap1\n      tag_39\n      jump\t// in\n    tag_68:\n      mload(0x40)\n      dup1\n      swap2\n      sub\n      swap1\n      return\n        /* \"contracts/CarreraCoches/principal.sol\":2586:2945  function subirDeNivel(address _propietario) external payable returns(string memory) {\r... */\n    tag_10:\n      tag_69\n      0x04\n      dup1\n      calldatasize\n      sub\n      dup2\n      add\n      swap1\n      tag_70\n      swap2\n      swap1\n      tag_47\n      jump\t// in\n    tag_70:\n      tag_71\n      jump\t// in\n    tag_69:\n      mload(0x40)\n      tag_72\n      swap2\n      swap1\n      tag_32\n      jump\t// in\n    tag_72:\n      mload(0x40)\n      dup1\n      swap2\n      sub\n      swap1\n      return\n        /* \"contracts/CarreraCoches/principal.sol\":3968:7314  function Apostar(uint dineroApostar) public payable returns(string memory) {\r... */\n    tag_11:\n      tag_73\n      0x04\n      dup1\n      calldatasize\n      sub\n      dup2\n      add\n      swap1\n      tag_74\n      swap2\n      swap1\n      tag_36\n      jump\t// in\n    tag_74:\n      tag_75\n      jump\t// in\n    tag_73:\n      mload(0x40)\n      tag_76\n      swap2\n      swap1\n      tag_32\n      jump\t// in\n    tag_76:\n      mload(0x40)\n      dup1\n      swap2\n      sub\n      swap1\n      return\n        /* \"contracts/CarreraCoches/cocheToken.sol\":1343:1479  function balanceOf(address _owner) external override virtual view returns (uint256){\r... */\n    tag_12:\n      callvalue\n      dup1\n      iszero\n      tag_77\n      jumpi\n      0x00\n      dup1\n      revert\n    tag_77:\n      pop\n      tag_78\n      0x04\n      dup1\n      calldatasize\n      sub\n      dup2\n      add\n      swap1\n      tag_79\n      swap2\n      swap1\n      tag_47\n      jump\t// in\n    tag_79:\n      tag_80\n      jump\t// in\n    tag_78:\n      mload(0x40)\n      tag_81\n      swap2\n      swap1\n      tag_50\n      jump\t// in\n    tag_81:\n      mload(0x40)\n      dup1\n      swap2\n      sub\n      swap1\n      return\n        /* \"contracts/CarreraCoches/ownable.sol\":1719:1822  function renounceOwnership() public virtual onlyOwner {\r... */\n    tag_13:\n      callvalue\n      dup1\n      iszero\n      tag_82\n      jumpi\n      0x00\n      dup1\n      revert\n    tag_82:\n      pop\n      tag_83\n      tag_84\n      jump\t// in\n    tag_83:\n      stop\n        /* \"contracts/CarreraCoches/principal.sol\":871:922  mapping (uint => address) public cocheDePropietario */\n    tag_14:\n      callvalue\n      dup1\n      iszero\n      tag_85\n      jumpi\n      0x00\n      dup1\n      revert\n    tag_85:\n      pop\n      tag_86\n      0x04\n      dup1\n      calldatasize\n      sub\n      dup2\n      add\n      swap1\n      tag_87\n      swap2\n      swap1\n      tag_36\n      jump\t// in\n    tag_87:\n      tag_88\n      jump\t// in\n    tag_86:\n      mload(0x40)\n      tag_89\n      swap2\n      swap1\n      tag_39\n      jump\t// in\n    tag_89:\n      mload(0x40)\n      dup1\n      swap2\n      sub\n      swap1\n      return\n        /* \"contracts/CarreraCoches/ownable.sol\":1068:1155  function owner() public view virtual returns (address) {\r... */\n    tag_15:\n      callvalue\n      dup1\n      iszero\n      tag_90\n      jumpi\n      0x00\n      dup1\n      revert\n    tag_90:\n      pop\n      tag_91\n      tag_92\n      jump\t// in\n    tag_91:\n      mload(0x40)\n      tag_93\n      swap2\n      swap1\n      tag_39\n      jump\t// in\n    tag_93:\n      mload(0x40)\n      dup1\n      swap2\n      sub\n      swap1\n      return\n        /* \"contracts/CarreraCoches/cocheToken.sol\":2527:2624  function setApprovalForAll(address _operator, bool _approved) external override virtual{\r... */\n    tag_16:\n      callvalue\n      dup1\n      iszero\n      tag_94\n      jumpi\n      0x00\n      dup1\n      revert\n    tag_94:\n      pop\n      tag_95\n      0x04\n      dup1\n      calldatasize\n      sub\n      dup2\n      add\n      swap1\n      tag_96\n      swap2\n      swap1\n      tag_97\n      jump\t// in\n    tag_96:\n      tag_98\n      jump\t// in\n    tag_95:\n      stop\n        /* \"contracts/CarreraCoches/ownable.sol\":701:722  address public _owner */\n    tag_17:\n      callvalue\n      dup1\n      iszero\n      tag_99\n      jumpi\n      0x00\n      dup1\n      revert\n    tag_99:\n      pop\n      tag_100\n      tag_101\n      jump\t// in\n    tag_100:\n      mload(0x40)\n      tag_102\n      swap2\n      swap1\n      tag_39\n      jump\t// in\n    tag_102:\n      mload(0x40)\n      dup1\n      swap2\n      sub\n      swap1\n      return\n        /* \"contracts/CarreraCoches/cocheToken.sol\":2859:3091  function takeOwnership(uint256 _tokenId) public {\r... */\n    tag_18:\n      callvalue\n      dup1\n      iszero\n      tag_103\n      jumpi\n      0x00\n      dup1\n      revert\n    tag_103:\n      pop\n      tag_104\n      0x04\n      dup1\n      calldatasize\n      sub\n      dup2\n      add\n      swap1\n      tag_105\n      swap2\n      swap1\n      tag_36\n      jump\t// in\n    tag_105:\n      tag_106\n      jump\t// in\n    tag_104:\n      stop\n        /* \"contracts/CarreraCoches/cocheToken.sol\":1891:2025  function safeTransferFrom(address _from, address _to, uint256 _tokenId, bytes memory data) external override virtual payable{\r... */\n    tag_19:\n      tag_107\n      0x04\n      dup1\n      calldatasize\n      sub\n      dup2\n      add\n      swap1\n      tag_108\n      swap2\n      swap1\n      tag_109\n      jump\t// in\n    tag_108:\n      tag_110\n      jump\t// in\n    tag_107:\n      stop\n        /* \"contracts/CarreraCoches/principal.sol\":604:630  Coche[] public listaCoches */\n    tag_20:\n      callvalue\n      dup1\n      iszero\n      tag_111\n      jumpi\n      0x00\n      dup1\n      revert\n    tag_111:\n      pop\n      tag_112\n      0x04\n      dup1\n      calldatasize\n      sub\n      dup2\n      add\n      swap1\n      tag_113\n      swap2\n      swap1\n      tag_36\n      jump\t// in\n    tag_113:\n      tag_114\n      jump\t// in\n    tag_112:\n      mload(0x40)\n      tag_115\n      swap9\n      swap8\n      swap7\n      swap6\n      swap5\n      swap4\n      swap3\n      swap2\n      swap1\n      tag_116\n      jump\t// in\n    tag_115:\n      mload(0x40)\n      dup1\n      swap2\n      sub\n      swap1\n      return\n        /* \"contracts/CarreraCoches/principal.sol\":2989:3365  function verCochePropietario(address _propietario) external {\r... */\n    tag_21:\n      callvalue\n      dup1\n      iszero\n      tag_117\n      jumpi\n      0x00\n      dup1\n      revert\n    tag_117:\n      pop\n      tag_118\n      0x04\n      dup1\n      calldatasize\n      sub\n      dup2\n      add\n      swap1\n      tag_119\n      swap2\n      swap1\n      tag_47\n      jump\t// in\n    tag_119:\n      tag_120\n      jump\t// in\n    tag_118:\n      stop\n        /* \"contracts/CarreraCoches/cocheToken.sol\":2733:2849  function isApprovedForAll(address _owner, address _operator) external override virtual view returns (bool){\r... */\n    tag_22:\n      callvalue\n      dup1\n      iszero\n      tag_121\n      jumpi\n      0x00\n      dup1\n      revert\n    tag_121:\n      pop\n      tag_122\n      0x04\n      dup1\n      calldatasize\n      sub\n      dup2\n      add\n      swap1\n      tag_123\n      swap2\n      swap1\n      tag_124\n      jump\t// in\n    tag_123:\n      tag_125\n      jump\t// in\n    tag_122:\n      mload(0x40)\n      tag_126\n      swap2\n      swap1\n      tag_127\n      jump\t// in\n    tag_126:\n      mload(0x40)\n      dup1\n      swap2\n      sub\n      swap1\n      return\n        /* \"contracts/CarreraCoches/ownable.sol\":1977:2178  function transferOwnership(address newOwner) public virtual onlyOwner {\r... */\n    tag_23:\n      callvalue\n      dup1\n      iszero\n      tag_128\n      jumpi\n      0x00\n      dup1\n      revert\n    tag_128:\n      pop\n      tag_129\n      0x04\n      dup1\n      calldatasize\n      sub\n      dup2\n      add\n      swap1\n      tag_130\n      swap2\n      swap1\n      tag_47\n      jump\t// in\n    tag_130:\n      tag_131\n      jump\t// in\n    tag_129:\n      stop\n        /* \"contracts/CarreraCoches/principal.sol\":3448:3910  function comprarCoche(address _address, string memory _newModelo, string memory _newMarca) external payable returns(string memory) {\r... */\n    tag_30:\n        /* \"contracts/CarreraCoches/principal.sol\":3564:3577  string memory */\n      0x60\n        /* \"contracts/CarreraCoches/principal.sol\":3610:3618  _address */\n      dup4\n        /* \"contracts/CarreraCoches/principal.sol\":3598:3618  msg.sender==_address */\n      0xffffffffffffffffffffffffffffffffffffffff\n      and\n        /* \"contracts/CarreraCoches/principal.sol\":3598:3608  msg.sender */\n      caller\n        /* \"contracts/CarreraCoches/principal.sol\":3598:3618  msg.sender==_address */\n      0xffffffffffffffffffffffffffffffffffffffff\n      and\n      eq\n        /* \"contracts/CarreraCoches/principal.sol\":3590:3619  require(msg.sender==_address) */\n      tag_133\n      jumpi\n      0x00\n      dup1\n      revert\n    tag_133:\n        /* \"contracts/CarreraCoches/principal.sol\":3649:3662  cambiarCocheV */\n      sload(0x05)\n        /* \"contracts/CarreraCoches/principal.sol\":3638:3647  msg.value */\n      callvalue\n        /* \"contracts/CarreraCoches/principal.sol\":3638:3662  msg.value==cambiarCocheV */\n      eq\n        /* \"contracts/CarreraCoches/principal.sol\":3630:3663  require(msg.value==cambiarCocheV) */\n      tag_134\n      jumpi\n      0x00\n      dup1\n      revert\n    tag_134:\n        /* \"contracts/CarreraCoches/principal.sol\":3678:3684  uint i */\n      0x00\n        /* \"contracts/CarreraCoches/principal.sol\":3674:3903  for(uint i = 0; i < listaCoches.length; i++){\r... */\n    tag_135:\n        /* \"contracts/CarreraCoches/principal.sol\":3694:3705  listaCoches */\n      0x06\n        /* \"contracts/CarreraCoches/principal.sol\":3694:3712  listaCoches.length */\n      dup1\n      sload\n      swap1\n      pop\n        /* \"contracts/CarreraCoches/principal.sol\":3690:3691  i */\n      dup2\n        /* \"contracts/CarreraCoches/principal.sol\":3690:3712  i < listaCoches.length */\n      lt\n        /* \"contracts/CarreraCoches/principal.sol\":3674:3903  for(uint i = 0; i < listaCoches.length; i++){\r... */\n      iszero\n      tag_136\n      jumpi\n        /* \"contracts/CarreraCoches/principal.sol\":3761:3771  msg.sender */\n      caller\n        /* \"contracts/CarreraCoches/principal.sol\":3736:3771  listaCoches[i].idPiloto==msg.sender */\n      0xffffffffffffffffffffffffffffffffffffffff\n      and\n        /* \"contracts/CarreraCoches/principal.sol\":3736:3747  listaCoches */\n      0x06\n        /* \"contracts/CarreraCoches/principal.sol\":3748:3749  i */\n      dup3\n        /* \"contracts/CarreraCoches/principal.sol\":3736:3750  listaCoches[i] */\n      dup2\n      sload\n      dup2\n      lt\n      tag_138\n      jumpi\n      tag_139\n      tag_140\n      jump\t// in\n    tag_139:\n    tag_138:\n      swap1\n      0x00\n      mstore\n      keccak256(0x00, 0x20)\n      swap1\n      0x08\n      mul\n      add\n        /* \"contracts/CarreraCoches/principal.sol\":3736:3759  listaCoches[i].idPiloto */\n      0x00\n      add\n      0x00\n      swap1\n      sload\n      swap1\n      0x0100\n      exp\n      swap1\n      div\n      0xffffffffffffffffffffffffffffffffffffffff\n      and\n        /* \"contracts/CarreraCoches/principal.sol\":3736:3771  listaCoches[i].idPiloto==msg.sender */\n      0xffffffffffffffffffffffffffffffffffffffff\n      and\n      eq\n        /* \"contracts/CarreraCoches/principal.sol\":3733:3892  if(listaCoches[i].idPiloto==msg.sender){\r... */\n      iszero\n      tag_142\n      jumpi\n        /* \"contracts/CarreraCoches/principal.sol\":3815:3825  _newModelo */\n      dup4\n        /* \"contracts/CarreraCoches/principal.sol\":3791:3802  listaCoches */\n      0x06\n        /* \"contracts/CarreraCoches/principal.sol\":3803:3804  i */\n      dup3\n        /* \"contracts/CarreraCoches/principal.sol\":3791:3805  listaCoches[i] */\n      dup2\n      sload\n      dup2\n      lt\n      tag_143\n      jumpi\n      tag_144\n      tag_140\n      jump\t// in\n    tag_144:\n    tag_143:\n      swap1\n      0x00\n      mstore\n      keccak256(0x00, 0x20)\n      swap1\n      0x08\n      mul\n      add\n        /* \"contracts/CarreraCoches/principal.sol\":3791:3812  listaCoches[i].modelo */\n      0x01\n      add\n        /* \"contracts/CarreraCoches/principal.sol\":3791:3825  listaCoches[i].modelo = _newModelo */\n      swap1\n      dup1\n      mload\n      swap1\n      0x20\n      add\n      swap1\n      tag_146\n      swap3\n      swap2\n      swap1\n      tag_147\n      jump\t// in\n    tag_146:\n      pop\n        /* \"contracts/CarreraCoches/principal.sol\":3867:3876  _newMarca */\n      dup3\n        /* \"contracts/CarreraCoches/principal.sol\":3844:3855  listaCoches */\n      0x06\n        /* \"contracts/CarreraCoches/principal.sol\":3856:3857  i */\n      dup3\n        /* \"contracts/CarreraCoches/principal.sol\":3844:3858  listaCoches[i] */\n      dup2\n      sload\n      dup2\n      lt\n      tag_148\n      jumpi\n      tag_149\n      tag_140\n      jump\t// in\n    tag_149:\n    tag_148:\n      swap1\n      0x00\n      mstore\n      keccak256(0x00, 0x20)\n      swap1\n      0x08\n      mul\n      add\n        /* \"contracts/CarreraCoches/principal.sol\":3844:3864  listaCoches[i].marca */\n      0x02\n      add\n        /* \"contracts/CarreraCoches/principal.sol\":3844:3876  listaCoches[i].marca = _newMarca */\n      swap1\n      dup1\n      mload\n      swap1\n      0x20\n      add\n      swap1\n      tag_151\n      swap3\n      swap2\n      swap1\n      tag_147\n      jump\t// in\n    tag_151:\n      pop\n        /* \"contracts/CarreraCoches/principal.sol\":3733:3892  if(listaCoches[i].idPiloto==msg.sender){\r... */\n    tag_142:\n        /* \"contracts/CarreraCoches/principal.sol\":3714:3717  i++ */\n      dup1\n      dup1\n      tag_152\n      swap1\n      tag_153\n      jump\t// in\n    tag_152:\n      swap2\n      pop\n      pop\n        /* \"contracts/CarreraCoches/principal.sol\":3674:3903  for(uint i = 0; i < listaCoches.length; i++){\r... */\n      jump(tag_135)\n    tag_136:\n      pop\n        /* \"contracts/CarreraCoches/principal.sol\":3448:3910  function comprarCoche(address _address, string memory _newModelo, string memory _newMarca) external payable returns(string memory) {\r... */\n      swap4\n      swap3\n      pop\n      pop\n      pop\n      jump\t// out\n        /* \"contracts/CarreraCoches/cocheToken.sol\":2630:2727  function getApproved(uint256 _tokenId) external override virtual view returns (address){\r... */\n    tag_37:\n        /* \"contracts/CarreraCoches/cocheToken.sol\":2709:2716  address */\n      0x00\n        /* \"contracts/CarreraCoches/cocheToken.sol\":2630:2727  function getApproved(uint256 _tokenId) external override virtual view returns (address){\r... */\n      swap2\n      swap1\n      pop\n      jump\t// out\n        /* \"contracts/CarreraCoches/cocheToken.sol\":2314:2521  function approve(address _approved, uint256 _tokenId) external override virtual payable{\r... */\n    tag_43:\n        /* \"contracts/CarreraCoches/cocheToken.sol\":2447:2456  _approved */\n      dup2\n        /* \"contracts/CarreraCoches/cocheToken.sol\":2412:2434  confirmarTransferencia */\n      0x09\n        /* \"contracts/CarreraCoches/cocheToken.sol\":2412:2444  confirmarTransferencia[_tokenId] */\n      0x00\n        /* \"contracts/CarreraCoches/cocheToken.sol\":2435:2443  _tokenId */\n      dup4\n        /* \"contracts/CarreraCoches/cocheToken.sol\":2412:2444  confirmarTransferencia[_tokenId] */\n      dup2\n      mstore\n      0x20\n      add\n      swap1\n      dup2\n      mstore\n      0x20\n      add\n      0x00\n      keccak256\n      0x00\n        /* \"contracts/CarreraCoches/cocheToken.sol\":2412:2456  confirmarTransferencia[_tokenId] = _approved */\n      0x0100\n      exp\n      dup2\n      sload\n      dup2\n      0xffffffffffffffffffffffffffffffffffffffff\n      mul\n      not\n      and\n      swap1\n      dup4\n      0xffffffffffffffffffffffffffffffffffffffff\n      and\n      mul\n      or\n      swap1\n      sstore\n      pop\n        /* \"contracts/CarreraCoches/cocheToken.sol\":2504:2512  _tokenId */\n      dup1\n        /* \"contracts/CarreraCoches/cocheToken.sol\":2493:2502  _approved */\n      dup3\n        /* \"contracts/CarreraCoches/cocheToken.sol\":2472:2513  Approval(msg.sender, _approved, _tokenId) */\n      0xffffffffffffffffffffffffffffffffffffffff\n      and\n        /* \"contracts/CarreraCoches/cocheToken.sol\":2481:2491  msg.sender */\n      caller\n        /* \"contracts/CarreraCoches/cocheToken.sol\":2472:2513  Approval(msg.sender, _approved, _tokenId) */\n      0xffffffffffffffffffffffffffffffffffffffff\n      and\n      0x8c5be1e5ebec7d5bd14f71427d1e84f3dd0314c0f7b2291e5b200ac8c7c3b925\n      mload(0x40)\n      mload(0x40)\n      dup1\n      swap2\n      sub\n      swap1\n      log4\n        /* \"contracts/CarreraCoches/cocheToken.sol\":2314:2521  function approve(address _approved, uint256 _tokenId) external override virtual payable{\r... */\n      pop\n      pop\n      jump\t// out\n        /* \"contracts/CarreraCoches/principal.sol\":929:981  mapping (address => uint) public numeroCochesPersona */\n    tag_48:\n      mstore(0x20, 0x08)\n      dup1\n      0x00\n      mstore\n      keccak256(0x00, 0x40)\n      0x00\n      swap2\n      pop\n      swap1\n      pop\n      sload\n      dup2\n      jump\t// out\n        /* \"contracts/CarreraCoches/cocheToken.sol\":2152:2308  function transferFrom(address _from, address _to, uint256 _tokenId) external override virtual payable{\r... */\n    tag_54:\n        /* \"contracts/CarreraCoches/cocheToken.sol\":2264:2300  _transfer(msg.sender, _to, _tokenId) */\n      tag_157\n        /* \"contracts/CarreraCoches/cocheToken.sol\":2274:2284  msg.sender */\n      caller\n        /* \"contracts/CarreraCoches/cocheToken.sol\":2286:2289  _to */\n      dup4\n        /* \"contracts/CarreraCoches/cocheToken.sol\":2291:2299  _tokenId */\n      dup4\n        /* \"contracts/CarreraCoches/cocheToken.sol\":2264:2273  _transfer */\n      tag_158\n        /* \"contracts/CarreraCoches/cocheToken.sol\":2264:2300  _transfer(msg.sender, _to, _tokenId) */\n      jump\t// in\n    tag_157:\n        /* \"contracts/CarreraCoches/cocheToken.sol\":2152:2308  function transferFrom(address _from, address _to, uint256 _tokenId) external override virtual payable{\r... */\n      pop\n      pop\n      pop\n      jump\t// out\n        /* \"contracts/CarreraCoches/principal.sol\":1777:2217  function anadirCoche(string memory _modelo, string memory _marca, string memory _nombrePiloto) public restriccion returns (uint) {\r... */\n    tag_59:\n        /* \"contracts/CarreraCoches/principal.sol\":1900:1904  uint */\n      0x00\n        /* \"contracts/CarreraCoches/principal.sol\":1113:1114  1 */\n      0x01\n        /* \"contracts/CarreraCoches/principal.sol\":1079:1098  numeroCochesPersona */\n      0x08\n        /* \"contracts/CarreraCoches/principal.sol\":1079:1110  numeroCochesPersona[msg.sender] */\n      0x00\n        /* \"contracts/CarreraCoches/principal.sol\":1099:1109  msg.sender */\n      caller\n        /* \"contracts/CarreraCoches/principal.sol\":1079:1110  numeroCochesPersona[msg.sender] */\n      0xffffffffffffffffffffffffffffffffffffffff\n      and\n      0xffffffffffffffffffffffffffffffffffffffff\n      and\n      dup2\n      mstore\n      0x20\n      add\n      swap1\n      dup2\n      mstore\n      0x20\n      add\n      0x00\n      keccak256\n      sload\n        /* \"contracts/CarreraCoches/principal.sol\":1079:1114  numeroCochesPersona[msg.sender] < 1 */\n      lt\n        /* \"contracts/CarreraCoches/principal.sol\":1071:1159  require(numeroCochesPersona[msg.sender] < 1, \"Solo se puede tener un coche por persona\") */\n      tag_160\n      jumpi\n      mload(0x40)\n      0x08c379a000000000000000000000000000000000000000000000000000000000\n      dup2\n      mstore\n      0x04\n      add\n      tag_161\n      swap1\n      tag_162\n      jump\t// in\n    tag_161:\n      mload(0x40)\n      dup1\n      swap2\n      sub\n      swap1\n      revert\n    tag_160:\n        /* \"contracts/CarreraCoches/principal.sol\":1917:1928  listaCoches */\n      0x06\n        /* \"contracts/CarreraCoches/principal.sol\":1934:2028  Coche(msg.sender, _modelo, _marca, _nombrePiloto, 0, 0, uint32(block.timestamp + cooldown), 1) */\n      mload(0x40)\n      dup1\n      0x0100\n      add\n      0x40\n      mstore\n      dup1\n        /* \"contracts/CarreraCoches/principal.sol\":1940:1950  msg.sender */\n      caller\n        /* \"contracts/CarreraCoches/principal.sol\":1934:2028  Coche(msg.sender, _modelo, _marca, _nombrePiloto, 0, 0, uint32(block.timestamp + cooldown), 1) */\n      0xffffffffffffffffffffffffffffffffffffffff\n      and\n      dup2\n      mstore\n      0x20\n      add\n        /* \"contracts/CarreraCoches/principal.sol\":1952:1959  _modelo */\n      dup7\n        /* \"contracts/CarreraCoches/principal.sol\":1934:2028  Coche(msg.sender, _modelo, _marca, _nombrePiloto, 0, 0, uint32(block.timestamp + cooldown), 1) */\n      dup2\n      mstore\n      0x20\n      add\n        /* \"contracts/CarreraCoches/principal.sol\":1961:1967  _marca */\n      dup6\n        /* \"contracts/CarreraCoches/principal.sol\":1934:2028  Coche(msg.sender, _modelo, _marca, _nombrePiloto, 0, 0, uint32(block.timestamp + cooldown), 1) */\n      dup2\n      mstore\n      0x20\n      add\n        /* \"contracts/CarreraCoches/principal.sol\":1969:1982  _nombrePiloto */\n      dup5\n        /* \"contracts/CarreraCoches/principal.sol\":1934:2028  Coche(msg.sender, _modelo, _marca, _nombrePiloto, 0, 0, uint32(block.timestamp + cooldown), 1) */\n      dup2\n      mstore\n      0x20\n      add\n        /* \"contracts/CarreraCoches/principal.sol\":1984:1985  0 */\n      0x00\n        /* \"contracts/CarreraCoches/principal.sol\":1934:2028  Coche(msg.sender, _modelo, _marca, _nombrePiloto, 0, 0, uint32(block.timestamp + cooldown), 1) */\n      dup2\n      mstore\n      0x20\n      add\n        /* \"contracts/CarreraCoches/principal.sol\":1987:1988  0 */\n      0x00\n        /* \"contracts/CarreraCoches/principal.sol\":1934:2028  Coche(msg.sender, _modelo, _marca, _nombrePiloto, 0, 0, uint32(block.timestamp + cooldown), 1) */\n      dup2\n      mstore\n      0x20\n      add\n        /* \"contracts/CarreraCoches/principal.sol\":2015:2023  cooldown */\n      sload(0x03)\n        /* \"contracts/CarreraCoches/principal.sol\":1997:2012  block.timestamp */\n      timestamp\n        /* \"contracts/CarreraCoches/principal.sol\":1997:2023  block.timestamp + cooldown */\n      tag_164\n      swap2\n      swap1\n      tag_165\n      jump\t// in\n    tag_164:\n        /* \"contracts/CarreraCoches/principal.sol\":1934:2028  Coche(msg.sender, _modelo, _marca, _nombrePiloto, 0, 0, uint32(block.timestamp + cooldown), 1) */\n      0xffffffff\n      and\n      dup2\n      mstore\n      0x20\n      add\n        /* \"contracts/CarreraCoches/principal.sol\":2026:2027  1 */\n      0x01\n        /* \"contracts/CarreraCoches/principal.sol\":1934:2028  Coche(msg.sender, _modelo, _marca, _nombrePiloto, 0, 0, uint32(block.timestamp + cooldown), 1) */\n      0xffffffff\n      and\n      dup2\n      mstore\n      pop\n        /* \"contracts/CarreraCoches/principal.sol\":1917:2029  listaCoches.push(Coche(msg.sender, _modelo, _marca, _nombrePiloto, 0, 0, uint32(block.timestamp + cooldown), 1)) */\n      swap1\n      dup1\n      0x01\n      dup2\n      sload\n      add\n      dup1\n      dup3\n      sstore\n      dup1\n      swap2\n      pop\n      pop\n      0x01\n      swap1\n      sub\n      swap1\n      0x00\n      mstore\n      keccak256(0x00, 0x20)\n      swap1\n      0x08\n      mul\n      add\n      0x00\n      swap1\n      swap2\n      swap1\n      swap2\n      swap1\n      swap2\n      pop\n      0x00\n      dup3\n      add\n      mload\n      dup2\n      0x00\n      add\n      exp(0x0100, 0x00)\n      dup2\n      sload\n      dup2\n      0xffffffffffffffffffffffffffffffffffffffff\n      mul\n      not\n      and\n      swap1\n      dup4\n      0xffffffffffffffffffffffffffffffffffffffff\n      and\n      mul\n      or\n      swap1\n      sstore\n      pop\n      0x20\n      dup3\n      add\n      mload\n      dup2\n      0x01\n      add\n      swap1\n      dup1\n      mload\n      swap1\n      0x20\n      add\n      swap1\n      tag_167\n      swap3\n      swap2\n      swap1\n      tag_147\n      jump\t// in\n    tag_167:\n      pop\n      0x40\n      dup3\n      add\n      mload\n      dup2\n      0x02\n      add\n      swap1\n      dup1\n      mload\n      swap1\n      0x20\n      add\n      swap1\n      tag_168\n      swap3\n      swap2\n      swap1\n      tag_147\n      jump\t// in\n    tag_168:\n      pop\n      0x60\n      dup3\n      add\n      mload\n      dup2\n      0x03\n      add\n      swap1\n      dup1\n      mload\n      swap1\n      0x20\n      add\n      swap1\n      tag_169\n      swap3\n      swap2\n      swap1\n      tag_147\n      jump\t// in\n    tag_169:\n      pop\n      0x80\n      dup3\n      add\n      mload\n      dup2\n      0x04\n      add\n      sstore\n      0xa0\n      dup3\n      add\n      mload\n      dup2\n      0x05\n      add\n      sstore\n      0xc0\n      dup3\n      add\n      mload\n      dup2\n      0x06\n      add\n      sstore\n      0xe0\n      dup3\n      add\n      mload\n      dup2\n      0x07\n      add\n      exp(0x0100, 0x00)\n      dup2\n      sload\n      dup2\n      0xffffffff\n      mul\n      not\n      and\n      swap1\n      dup4\n      0xffffffff\n      and\n      mul\n      or\n      swap1\n      sstore\n      pop\n      pop\n      pop\n        /* \"contracts/CarreraCoches/principal.sol\":2040:2047  uint id */\n      0x00\n        /* \"contracts/CarreraCoches/principal.sol\":2050:2061  listaCoches */\n      0x06\n        /* \"contracts/CarreraCoches/principal.sol\":2050:2068  listaCoches.length */\n      dup1\n      sload\n      swap1\n      pop\n        /* \"contracts/CarreraCoches/principal.sol\":2040:2068  uint id = listaCoches.length */\n      swap1\n      pop\n        /* \"contracts/CarreraCoches/principal.sol\":2104:2114  msg.sender */\n      caller\n        /* \"contracts/CarreraCoches/principal.sol\":2079:2097  cocheDePropietario */\n      0x07\n        /* \"contracts/CarreraCoches/principal.sol\":2079:2101  cocheDePropietario[id] */\n      0x00\n        /* \"contracts/CarreraCoches/principal.sol\":2098:2100  id */\n      dup4\n        /* \"contracts/CarreraCoches/principal.sol\":2079:2101  cocheDePropietario[id] */\n      dup2\n      mstore\n      0x20\n      add\n      swap1\n      dup2\n      mstore\n      0x20\n      add\n      0x00\n      keccak256\n      0x00\n        /* \"contracts/CarreraCoches/principal.sol\":2079:2114  cocheDePropietario[id] = msg.sender */\n      0x0100\n      exp\n      dup2\n      sload\n      dup2\n      0xffffffffffffffffffffffffffffffffffffffff\n      mul\n      not\n      and\n      swap1\n      dup4\n      0xffffffffffffffffffffffffffffffffffffffff\n      and\n      mul\n      or\n      swap1\n      sstore\n      pop\n        /* \"contracts/CarreraCoches/principal.sol\":2125:2144  numeroCochesPersona */\n      0x08\n        /* \"contracts/CarreraCoches/principal.sol\":2125:2156  numeroCochesPersona[msg.sender] */\n      0x00\n        /* \"contracts/CarreraCoches/principal.sol\":2145:2155  msg.sender */\n      caller\n        /* \"contracts/CarreraCoches/principal.sol\":2125:2156  numeroCochesPersona[msg.sender] */\n      0xffffffffffffffffffffffffffffffffffffffff\n      and\n      0xffffffffffffffffffffffffffffffffffffffff\n      and\n      dup2\n      mstore\n      0x20\n      add\n      swap1\n      dup2\n      mstore\n      0x20\n      add\n      0x00\n      keccak256\n      0x00\n        /* \"contracts/CarreraCoches/principal.sol\":2125:2158  numeroCochesPersona[msg.sender]++ */\n      dup2\n      sload\n      dup1\n      swap3\n      swap2\n      swap1\n      tag_170\n      swap1\n      tag_153\n      jump\t// in\n    tag_170:\n      swap2\n      swap1\n      pop\n      sstore\n      pop\n        /* \"contracts/CarreraCoches/principal.sol\":2169:2177  contador */\n      0x02\n      0x00\n        /* \"contracts/CarreraCoches/principal.sol\":2169:2179  contador++ */\n      dup2\n      sload\n      dup1\n      swap3\n      swap2\n      swap1\n      tag_171\n      swap1\n      tag_153\n      jump\t// in\n    tag_171:\n      swap2\n      swap1\n      pop\n      sstore\n      pop\n        /* \"contracts/CarreraCoches/principal.sol\":2208:2209  1 */\n      0x01\n        /* \"contracts/CarreraCoches/principal.sol\":2197:2205  contador */\n      sload(0x02)\n        /* \"contracts/CarreraCoches/principal.sol\":2197:2209  contador - 1 */\n      tag_172\n      swap2\n      swap1\n      tag_173\n      jump\t// in\n    tag_172:\n        /* \"contracts/CarreraCoches/principal.sol\":2190:2209  return contador - 1 */\n      swap2\n      pop\n      pop\n        /* \"contracts/CarreraCoches/principal.sol\":1777:2217  function anadirCoche(string memory _modelo, string memory _marca, string memory _nombrePiloto) public restriccion returns (uint) {\r... */\n      swap4\n      swap3\n      pop\n      pop\n      pop\n      jump\t// out\n        /* \"contracts/CarreraCoches/cocheToken.sol\":2031:2146  function safeTransferFrom(address _from, address _to, uint256 _tokenId) external override virtual payable{\r... */\n    tag_63:\n      pop\n      pop\n      pop\n      jump\t// out\n        /* \"contracts/CarreraCoches/cocheToken.sol\":1485:1622  function ownerOf(uint256 _tokenId) external override virtual view returns (address){\r... */\n    tag_67:\n        /* \"contracts/CarreraCoches/cocheToken.sol\":1560:1567  address */\n      0x00\n        /* \"contracts/CarreraCoches/cocheToken.sol\":1586:1604  cocheDePropietario */\n      0x07\n        /* \"contracts/CarreraCoches/cocheToken.sol\":1586:1614  cocheDePropietario[_tokenId] */\n      0x00\n        /* \"contracts/CarreraCoches/cocheToken.sol\":1605:1613  _tokenId */\n      dup4\n        /* \"contracts/CarreraCoches/cocheToken.sol\":1586:1614  cocheDePropietario[_tokenId] */\n      dup2\n      mstore\n      0x20\n      add\n      swap1\n      dup2\n      mstore\n      0x20\n      add\n      0x00\n      keccak256\n      0x00\n      swap1\n      sload\n      swap1\n      0x0100\n      exp\n      swap1\n      div\n      0xffffffffffffffffffffffffffffffffffffffff\n      and\n        /* \"contracts/CarreraCoches/cocheToken.sol\":1579:1614  return cocheDePropietario[_tokenId] */\n      swap1\n      pop\n        /* \"contracts/CarreraCoches/cocheToken.sol\":1485:1622  function ownerOf(uint256 _tokenId) external override virtual view returns (address){\r... */\n      swap2\n      swap1\n      pop\n      jump\t// out\n        /* \"contracts/CarreraCoches/principal.sol\":2586:2945  function subirDeNivel(address _propietario) external payable returns(string memory) {\r... */\n    tag_71:\n        /* \"contracts/CarreraCoches/principal.sol\":2655:2668  string memory */\n      0x60\n        /* \"contracts/CarreraCoches/principal.sol\":2700:2710  subirNivel */\n      sload(0x04)\n        /* \"contracts/CarreraCoches/principal.sol\":2689:2698  msg.value */\n      callvalue\n        /* \"contracts/CarreraCoches/principal.sol\":2689:2710  msg.value==subirNivel */\n      eq\n        /* \"contracts/CarreraCoches/principal.sol\":2681:2711  require(msg.value==subirNivel) */\n      tag_177\n      jumpi\n      0x00\n      dup1\n      revert\n    tag_177:\n        /* \"contracts/CarreraCoches/principal.sol\":2726:2732  uint i */\n      0x00\n        /* \"contracts/CarreraCoches/principal.sol\":2722:2938  for(uint i = 0; i < listaCoches.length; i++){\r... */\n    tag_178:\n        /* \"contracts/CarreraCoches/principal.sol\":2742:2753  listaCoches */\n      0x06\n        /* \"contracts/CarreraCoches/principal.sol\":2742:2760  listaCoches.length */\n      dup1\n      sload\n      swap1\n      pop\n        /* \"contracts/CarreraCoches/principal.sol\":2738:2739  i */\n      dup2\n        /* \"contracts/CarreraCoches/principal.sol\":2738:2760  i < listaCoches.length */\n      lt\n        /* \"contracts/CarreraCoches/principal.sol\":2722:2938  for(uint i = 0; i < listaCoches.length; i++){\r... */\n      iszero\n      tag_179\n      jumpi\n        /* \"contracts/CarreraCoches/principal.sol\":2811:2823  _propietario */\n      dup3\n        /* \"contracts/CarreraCoches/principal.sol\":2784:2823  listaCoches[i].idPiloto == _propietario */\n      0xffffffffffffffffffffffffffffffffffffffff\n      and\n        /* \"contracts/CarreraCoches/principal.sol\":2784:2795  listaCoches */\n      0x06\n        /* \"contracts/CarreraCoches/principal.sol\":2796:2797  i */\n      dup3\n        /* \"contracts/CarreraCoches/principal.sol\":2784:2798  listaCoches[i] */\n      dup2\n      sload\n      dup2\n      lt\n      tag_181\n      jumpi\n      tag_182\n      tag_140\n      jump\t// in\n    tag_182:\n    tag_181:\n      swap1\n      0x00\n      mstore\n      keccak256(0x00, 0x20)\n      swap1\n      0x08\n      mul\n      add\n        /* \"contracts/CarreraCoches/principal.sol\":2784:2807  listaCoches[i].idPiloto */\n      0x00\n      add\n      0x00\n      swap1\n      sload\n      swap1\n      0x0100\n      exp\n      swap1\n      div\n      0xffffffffffffffffffffffffffffffffffffffff\n      and\n        /* \"contracts/CarreraCoches/principal.sol\":2784:2823  listaCoches[i].idPiloto == _propietario */\n      0xffffffffffffffffffffffffffffffffffffffff\n      and\n      eq\n        /* \"contracts/CarreraCoches/principal.sol\":2781:2927  if(listaCoches[i].idPiloto == _propietario){\r... */\n      iszero\n      tag_184\n      jumpi\n        /* \"contracts/CarreraCoches/principal.sol\":2843:2854  listaCoches */\n      0x06\n        /* \"contracts/CarreraCoches/principal.sol\":2855:2856  i */\n      dup2\n        /* \"contracts/CarreraCoches/principal.sol\":2843:2857  listaCoches[i] */\n      dup2\n      sload\n      dup2\n      lt\n      tag_185\n      jumpi\n      tag_186\n      tag_140\n      jump\t// in\n    tag_186:\n    tag_185:\n      swap1\n      0x00\n      mstore\n      keccak256(0x00, 0x20)\n      swap1\n      0x08\n      mul\n      add\n        /* \"contracts/CarreraCoches/principal.sol\":2843:2863  listaCoches[i].nivel */\n      0x07\n      add\n      0x00\n        /* \"contracts/CarreraCoches/principal.sol\":2843:2865  listaCoches[i].nivel++ */\n      dup2\n      dup2\n      swap1\n      sload\n      swap1\n      0x0100\n      exp\n      swap1\n      div\n      0xffffffff\n      and\n      dup1\n      swap3\n      swap2\n      swap1\n      tag_188\n      swap1\n      tag_189\n      jump\t// in\n    tag_188:\n      swap2\n      swap1\n      0x0100\n      exp\n      dup2\n      sload\n      dup2\n      0xffffffff\n      mul\n      not\n      and\n      swap1\n      dup4\n      0xffffffff\n      and\n      mul\n      or\n      swap1\n      sstore\n      pop\n      pop\n        /* \"contracts/CarreraCoches/principal.sol\":2884:2911  return \"Ha subido de nivel\" */\n      mload(0x40)\n      dup1\n      0x40\n      add\n      0x40\n      mstore\n      dup1\n      0x12\n      dup2\n      mstore\n      0x20\n      add\n      0x48612073756269646f206465206e6976656c0000000000000000000000000000\n      dup2\n      mstore\n      pop\n      swap2\n      pop\n      pop\n      jump(tag_176)\n        /* \"contracts/CarreraCoches/principal.sol\":2781:2927  if(listaCoches[i].idPiloto == _propietario){\r... */\n    tag_184:\n        /* \"contracts/CarreraCoches/principal.sol\":2762:2765  i++ */\n      dup1\n      dup1\n      tag_190\n      swap1\n      tag_153\n      jump\t// in\n    tag_190:\n      swap2\n      pop\n      pop\n        /* \"contracts/CarreraCoches/principal.sol\":2722:2938  for(uint i = 0; i < listaCoches.length; i++){\r... */\n      jump(tag_178)\n    tag_179:\n      pop\n        /* \"contracts/CarreraCoches/principal.sol\":2586:2945  function subirDeNivel(address _propietario) external payable returns(string memory) {\r... */\n    tag_176:\n      swap2\n      swap1\n      pop\n      jump\t// out\n        /* \"contracts/CarreraCoches/principal.sol\":3968:7314  function Apostar(uint dineroApostar) public payable returns(string memory) {\r... */\n    tag_75:\n        /* \"contracts/CarreraCoches/principal.sol\":4028:4041  string memory */\n      0x60\n        /* \"contracts/CarreraCoches/principal.sol\":4087:4088  1 */\n      0x01\n        /* \"contracts/CarreraCoches/principal.sol\":4065:4076  listaCoches */\n      0x06\n        /* \"contracts/CarreraCoches/principal.sol\":4065:4083  listaCoches.length */\n      dup1\n      sload\n      swap1\n      pop\n        /* \"contracts/CarreraCoches/principal.sol\":4065:4088  listaCoches.length <= 1 */\n      gt\n        /* \"contracts/CarreraCoches/principal.sol\":4062:7308  if(listaCoches.length <= 1){\r... */\n      tag_192\n      jumpi\n        /* \"contracts/CarreraCoches/principal.sol\":4108:4187  confirmacionDepositoLleno(\"No hay coches suficientes para iniciar una carrera\") */\n      0x6158fc8f21c8cc73ddf920956cc75d0e8a48b4fc85817a0ba89eb3b6d2a75441\n      mload(0x40)\n      tag_193\n      swap1\n      tag_194\n      jump\t// in\n    tag_193:\n      mload(0x40)\n      dup1\n      swap2\n      sub\n      swap1\n      log1\n        /* \"contracts/CarreraCoches/principal.sol\":4062:7308  if(listaCoches.length <= 1){\r... */\n      jump(tag_195)\n    tag_192:\n        /* \"contracts/CarreraCoches/principal.sol\":4238:4251  dineroApostar */\n      dup2\n        /* \"contracts/CarreraCoches/principal.sol\":4225:4234  msg.value */\n      callvalue\n        /* \"contracts/CarreraCoches/principal.sol\":4225:4251  msg.value == dineroApostar */\n      eq\n        /* \"contracts/CarreraCoches/principal.sol\":4217:4252  require(msg.value == dineroApostar) */\n      tag_196\n      jumpi\n      0x00\n      dup1\n      revert\n    tag_196:\n        /* \"contracts/CarreraCoches/principal.sol\":4267:4276  randNonce */\n      0x01\n      0x00\n        /* \"contracts/CarreraCoches/principal.sol\":4267:4278  randNonce++ */\n      dup2\n      sload\n      dup1\n      swap3\n      swap2\n      swap1\n      tag_197\n      swap1\n      tag_153\n      jump\t// in\n    tag_197:\n      swap2\n      swap1\n      pop\n      sstore\n      pop\n        /* \"contracts/CarreraCoches/principal.sol\":4333:4346  uint256 rival */\n      0x00\n        /* \"contracts/CarreraCoches/principal.sol\":4436:4447  listaCoches */\n      0x06\n        /* \"contracts/CarreraCoches/principal.sol\":4436:4454  listaCoches.length */\n      dup1\n      sload\n      swap1\n      pop\n        /* \"contracts/CarreraCoches/principal.sol\":4384:4399  block.timestamp */\n      timestamp\n        /* \"contracts/CarreraCoches/principal.sol\":4401:4412  listaCoches */\n      0x06\n        /* \"contracts/CarreraCoches/principal.sol\":4401:4419  listaCoches.length */\n      dup1\n      sload\n      swap1\n      pop\n        /* \"contracts/CarreraCoches/principal.sol\":4421:4430  randNonce */\n      sload(0x01)\n        /* \"contracts/CarreraCoches/principal.sol\":4367:4431  abi.encodePacked(block.timestamp, listaCoches.length, randNonce) */\n      add(0x20, mload(0x40))\n      tag_198\n      swap4\n      swap3\n      swap2\n      swap1\n      tag_199\n      jump\t// in\n    tag_198:\n      mload(0x40)\n      0x20\n      dup2\n      dup4\n      sub\n      sub\n      dup2\n      mstore\n      swap1\n      0x40\n      mstore\n        /* \"contracts/CarreraCoches/principal.sol\":4357:4432  keccak256(abi.encodePacked(block.timestamp, listaCoches.length, randNonce)) */\n      dup1\n      mload\n      swap1\n      0x20\n      add\n      keccak256\n        /* \"contracts/CarreraCoches/principal.sol\":4349:4433  uint256(keccak256(abi.encodePacked(block.timestamp, listaCoches.length, randNonce))) */\n      0x00\n      shr\n        /* \"contracts/CarreraCoches/principal.sol\":4349:4454  uint256(keccak256(abi.encodePacked(block.timestamp, listaCoches.length, randNonce))) % listaCoches.length */\n      tag_200\n      swap2\n      swap1\n      tag_201\n      jump\t// in\n    tag_200:\n        /* \"contracts/CarreraCoches/principal.sol\":4333:4454  uint256 rival = uint256(keccak256(abi.encodePacked(block.timestamp, listaCoches.length, randNonce))) % listaCoches.length */\n      swap1\n      pop\n        /* \"contracts/CarreraCoches/principal.sol\":4469:4489  address addressRival */\n      0x00\n        /* \"contracts/CarreraCoches/principal.sol\":4492:4510  cocheDePropietario */\n      0x07\n        /* \"contracts/CarreraCoches/principal.sol\":4492:4517  cocheDePropietario[rival] */\n      0x00\n        /* \"contracts/CarreraCoches/principal.sol\":4511:4516  rival */\n      dup4\n        /* \"contracts/CarreraCoches/principal.sol\":4492:4517  cocheDePropietario[rival] */\n      dup2\n      mstore\n      0x20\n      add\n      swap1\n      dup2\n      mstore\n      0x20\n      add\n      0x00\n      keccak256\n      0x00\n      swap1\n      sload\n      swap1\n      0x0100\n      exp\n      swap1\n      div\n      0xffffffffffffffffffffffffffffffffffffffff\n      and\n        /* \"contracts/CarreraCoches/principal.sol\":4469:4517  address addressRival = cocheDePropietario[rival] */\n      swap1\n      pop\n        /* \"contracts/CarreraCoches/principal.sol\":4568:4577  randNonce */\n      0x01\n      0x00\n        /* \"contracts/CarreraCoches/principal.sol\":4568:4579  randNonce++ */\n      dup2\n      sload\n      dup1\n      swap3\n      swap2\n      swap1\n      tag_202\n      swap1\n      tag_153\n      jump\t// in\n    tag_202:\n      swap2\n      swap1\n      pop\n      sstore\n      pop\n        /* \"contracts/CarreraCoches/principal.sol\":4594:4605  uint numero */\n      0x00\n        /* \"contracts/CarreraCoches/principal.sol\":4608:4611  100 */\n      0x64\n        /* \"contracts/CarreraCoches/principal.sol\":4594:4611  uint numero = 100 */\n      swap1\n      pop\n        /* \"contracts/CarreraCoches/principal.sol\":4626:4641  uint256 ganador */\n      0x00\n        /* \"contracts/CarreraCoches/principal.sol\":4719:4725  numero */\n      dup2\n        /* \"contracts/CarreraCoches/principal.sol\":4679:4694  block.timestamp */\n      timestamp\n        /* \"contracts/CarreraCoches/principal.sol\":4696:4702  numero */\n      dup4\n        /* \"contracts/CarreraCoches/principal.sol\":4704:4713  randNonce */\n      sload(0x01)\n        /* \"contracts/CarreraCoches/principal.sol\":4662:4714  abi.encodePacked(block.timestamp, numero, randNonce) */\n      add(0x20, mload(0x40))\n      tag_203\n      swap4\n      swap3\n      swap2\n      swap1\n      tag_199\n      jump\t// in\n    tag_203:\n      mload(0x40)\n      0x20\n      dup2\n      dup4\n      sub\n      sub\n      dup2\n      mstore\n      swap1\n      0x40\n      mstore\n        /* \"contracts/CarreraCoches/principal.sol\":4652:4715  keccak256(abi.encodePacked(block.timestamp, numero, randNonce)) */\n      dup1\n      mload\n      swap1\n      0x20\n      add\n      keccak256\n        /* \"contracts/CarreraCoches/principal.sol\":4644:4716  uint256(keccak256(abi.encodePacked(block.timestamp, numero, randNonce))) */\n      0x00\n      shr\n        /* \"contracts/CarreraCoches/principal.sol\":4644:4725  uint256(keccak256(abi.encodePacked(block.timestamp, numero, randNonce))) % numero */\n      tag_204\n      swap2\n      swap1\n      tag_201\n      jump\t// in\n    tag_204:\n        /* \"contracts/CarreraCoches/principal.sol\":4626:4725  uint256 ganador = uint256(keccak256(abi.encodePacked(block.timestamp, numero, randNonce))) % numero */\n      swap1\n      pop\n        /* \"contracts/CarreraCoches/principal.sol\":4746:4752  uint i */\n      0x00\n        /* \"contracts/CarreraCoches/principal.sol\":4742:7297  for(uint i = 0; i < listaCoches.length; i++){\r... */\n    tag_205:\n        /* \"contracts/CarreraCoches/principal.sol\":4762:4773  listaCoches */\n      0x06\n        /* \"contracts/CarreraCoches/principal.sol\":4762:4780  listaCoches.length */\n      dup1\n      sload\n      swap1\n      pop\n        /* \"contracts/CarreraCoches/principal.sol\":4758:4759  i */\n      dup2\n        /* \"contracts/CarreraCoches/principal.sol\":4758:4780  i < listaCoches.length */\n      lt\n        /* \"contracts/CarreraCoches/principal.sol\":4742:7297  for(uint i = 0; i < listaCoches.length; i++){\r... */\n      iszero\n      tag_206\n      jumpi\n        /* \"contracts/CarreraCoches/principal.sol\":4859:4870  listaCoches */\n      0x06\n        /* \"contracts/CarreraCoches/principal.sol\":4871:4872  i */\n      dup2\n        /* \"contracts/CarreraCoches/principal.sol\":4859:4873  listaCoches[i] */\n      dup2\n      sload\n      dup2\n      lt\n      tag_208\n      jumpi\n      tag_209\n      tag_140\n      jump\t// in\n    tag_209:\n    tag_208:\n      swap1\n      0x00\n      mstore\n      keccak256(0x00, 0x20)\n      swap1\n      0x08\n      mul\n      add\n        /* \"contracts/CarreraCoches/principal.sol\":4859:4882  listaCoches[i].idPiloto */\n      0x00\n      add\n      0x00\n      swap1\n      sload\n      swap1\n      0x0100\n      exp\n      swap1\n      div\n      0xffffffffffffffffffffffffffffffffffffffff\n      and\n        /* \"contracts/CarreraCoches/principal.sol\":4845:4882  msg.sender == listaCoches[i].idPiloto */\n      0xffffffffffffffffffffffffffffffffffffffff\n      and\n        /* \"contracts/CarreraCoches/principal.sol\":4845:4855  msg.sender */\n      caller\n        /* \"contracts/CarreraCoches/principal.sol\":4845:4882  msg.sender == listaCoches[i].idPiloto */\n      0xffffffffffffffffffffffffffffffffffffffff\n      and\n      eq\n        /* \"contracts/CarreraCoches/principal.sol\":4841:7264  if (msg.sender == listaCoches[i].idPiloto) {\r... */\n      iszero\n      tag_211\n      jumpi\n        /* \"contracts/CarreraCoches/principal.sol\":4915:4945  _depositoLleno(listaCoches[i]) */\n      tag_212\n        /* \"contracts/CarreraCoches/principal.sol\":4930:4941  listaCoches */\n      0x06\n        /* \"contracts/CarreraCoches/principal.sol\":4942:4943  i */\n      dup3\n        /* \"contracts/CarreraCoches/principal.sol\":4930:4944  listaCoches[i] */\n      dup2\n      sload\n      dup2\n      lt\n      tag_213\n      jumpi\n      tag_214\n      tag_140\n      jump\t// in\n    tag_214:\n    tag_213:\n      swap1\n      0x00\n      mstore\n      keccak256(0x00, 0x20)\n      swap1\n      0x08\n      mul\n      add\n        /* \"contracts/CarreraCoches/principal.sol\":4915:4929  _depositoLleno */\n      tag_216\n        /* \"contracts/CarreraCoches/principal.sol\":4915:4945  _depositoLleno(listaCoches[i]) */\n      jump\t// in\n    tag_212:\n        /* \"contracts/CarreraCoches/principal.sol\":4907:4946  require(_depositoLleno(listaCoches[i])) */\n      tag_217\n      jumpi\n      0x00\n      dup1\n      revert\n    tag_217:\n        /* \"contracts/CarreraCoches/principal.sol\":4969:4980  listaCoches */\n      0x06\n        /* \"contracts/CarreraCoches/principal.sol\":4981:4982  i */\n      dup2\n        /* \"contracts/CarreraCoches/principal.sol\":4969:4983  listaCoches[i] */\n      dup2\n      sload\n      dup2\n      lt\n      tag_218\n      jumpi\n      tag_219\n      tag_140\n      jump\t// in\n    tag_219:\n    tag_218:\n      swap1\n      0x00\n      mstore\n      keccak256(0x00, 0x20)\n      swap1\n      0x08\n      mul\n      add\n        /* \"contracts/CarreraCoches/principal.sol\":4969:4999  listaCoches[i].carrerasTotales */\n      0x05\n      add\n      0x00\n        /* \"contracts/CarreraCoches/principal.sol\":4969:5001  listaCoches[i].carrerasTotales++ */\n      dup2\n      sload\n      dup1\n      swap3\n      swap2\n      swap1\n      tag_221\n      swap1\n      tag_153\n      jump\t// in\n    tag_221:\n      swap2\n      swap1\n      pop\n      sstore\n      pop\n        /* \"contracts/CarreraCoches/principal.sol\":5024:5035  listaCoches */\n      0x06\n        /* \"contracts/CarreraCoches/principal.sol\":5036:5041  rival */\n      dup6\n        /* \"contracts/CarreraCoches/principal.sol\":5024:5042  listaCoches[rival] */\n      dup2\n      sload\n      dup2\n      lt\n      tag_222\n      jumpi\n      tag_223\n      tag_140\n      jump\t// in\n    tag_223:\n    tag_222:\n      swap1\n      0x00\n      mstore\n      keccak256(0x00, 0x20)\n      swap1\n      0x08\n      mul\n      add\n        /* \"contracts/CarreraCoches/principal.sol\":5024:5058  listaCoches[rival].carrerasTotales */\n      0x05\n      add\n      0x00\n        /* \"contracts/CarreraCoches/principal.sol\":5024:5060  listaCoches[rival].carrerasTotales++ */\n      dup2\n      sload\n      dup1\n      swap3\n      swap2\n      swap1\n      tag_225\n      swap1\n      tag_153\n      jump\t// in\n    tag_225:\n      swap2\n      swap1\n      pop\n      sstore\n      pop\n        /* \"contracts/CarreraCoches/principal.sol\":5083:5110  _repostando(listaCoches[i]) */\n      tag_226\n        /* \"contracts/CarreraCoches/principal.sol\":5095:5106  listaCoches */\n      0x06\n        /* \"contracts/CarreraCoches/principal.sol\":5107:5108  i */\n      dup3\n        /* \"contracts/CarreraCoches/principal.sol\":5095:5109  listaCoches[i] */\n      dup2\n      sload\n      dup2\n      lt\n      tag_227\n      jumpi\n      tag_228\n      tag_140\n      jump\t// in\n    tag_228:\n    tag_227:\n      swap1\n      0x00\n      mstore\n      keccak256(0x00, 0x20)\n      swap1\n      0x08\n      mul\n      add\n        /* \"contracts/CarreraCoches/principal.sol\":5083:5094  _repostando */\n      tag_230\n        /* \"contracts/CarreraCoches/principal.sol\":5083:5110  _repostando(listaCoches[i]) */\n      jump\t// in\n    tag_226:\n        /* \"contracts/CarreraCoches/principal.sol\":5163:5174  listaCoches */\n      0x06\n        /* \"contracts/CarreraCoches/principal.sol\":5175:5176  i */\n      dup2\n        /* \"contracts/CarreraCoches/principal.sol\":5163:5177  listaCoches[i] */\n      dup2\n      sload\n      dup2\n      lt\n      tag_231\n      jumpi\n      tag_232\n      tag_140\n      jump\t// in\n    tag_232:\n    tag_231:\n      swap1\n      0x00\n      mstore\n      keccak256(0x00, 0x20)\n      swap1\n      0x08\n      mul\n      add\n        /* \"contracts/CarreraCoches/principal.sol\":5163:5183  listaCoches[i].nivel */\n      0x07\n      add\n      0x00\n      swap1\n      sload\n      swap1\n      0x0100\n      exp\n      swap1\n      div\n      0xffffffff\n      and\n        /* \"contracts/CarreraCoches/principal.sol\":5136:5183  listaCoches[rival].nivel < listaCoches[i].nivel */\n      0xffffffff\n      and\n        /* \"contracts/CarreraCoches/principal.sol\":5136:5147  listaCoches */\n      0x06\n        /* \"contracts/CarreraCoches/principal.sol\":5148:5153  rival */\n      dup7\n        /* \"contracts/CarreraCoches/principal.sol\":5136:5154  listaCoches[rival] */\n      dup2\n      sload\n      dup2\n      lt\n      tag_234\n      jumpi\n      tag_235\n      tag_140\n      jump\t// in\n    tag_235:\n    tag_234:\n      swap1\n      0x00\n      mstore\n      keccak256(0x00, 0x20)\n      swap1\n      0x08\n      mul\n      add\n        /* \"contracts/CarreraCoches/principal.sol\":5136:5160  listaCoches[rival].nivel */\n      0x07\n      add\n      0x00\n      swap1\n      sload\n      swap1\n      0x0100\n      exp\n      swap1\n      div\n      0xffffffff\n      and\n        /* \"contracts/CarreraCoches/principal.sol\":5136:5183  listaCoches[rival].nivel < listaCoches[i].nivel */\n      0xffffffff\n      and\n      lt\n        /* \"contracts/CarreraCoches/principal.sol\":5133:7241  if(listaCoches[rival].nivel < listaCoches[i].nivel){\r... */\n      iszero\n      tag_237\n      jumpi\n        /* \"contracts/CarreraCoches/principal.sol\":5223:5225  60 */\n      0x3c\n        /* \"contracts/CarreraCoches/principal.sol\":5214:5221  ganador */\n      dup3\n        /* \"contracts/CarreraCoches/principal.sol\":5214:5225  ganador<=60 */\n      gt\n        /* \"contracts/CarreraCoches/principal.sol\":5211:5784  if(ganador<=60){\r... */\n      tag_238\n      jumpi\n        /* \"contracts/CarreraCoches/principal.sol\":5257:5266  balance() */\n      tag_239\n        /* \"contracts/CarreraCoches/principal.sol\":5257:5264  balance */\n      tag_240\n        /* \"contracts/CarreraCoches/principal.sol\":5257:5266  balance() */\n      jump\t// in\n    tag_239:\n        /* \"contracts/CarreraCoches/principal.sol\":5297:5308  listaCoches */\n      0x06\n        /* \"contracts/CarreraCoches/principal.sol\":5309:5310  i */\n      dup2\n        /* \"contracts/CarreraCoches/principal.sol\":5297:5311  listaCoches[i] */\n      dup2\n      sload\n      dup2\n      lt\n      tag_241\n      jumpi\n      tag_242\n      tag_140\n      jump\t// in\n    tag_242:\n    tag_241:\n      swap1\n      0x00\n      mstore\n      keccak256(0x00, 0x20)\n      swap1\n      0x08\n      mul\n      add\n        /* \"contracts/CarreraCoches/principal.sol\":5297:5327  listaCoches[i].carrerasGanadas */\n      0x04\n      add\n      0x00\n        /* \"contracts/CarreraCoches/principal.sol\":5297:5329  listaCoches[i].carrerasGanadas++ */\n      dup2\n      sload\n      dup1\n      swap3\n      swap2\n      swap1\n      tag_244\n      swap1\n      tag_153\n      jump\t// in\n    tag_244:\n      swap2\n      swap1\n      pop\n      sstore\n      pop\n        /* \"contracts/CarreraCoches/principal.sol\":5360:5371  listaCoches */\n      0x06\n        /* \"contracts/CarreraCoches/principal.sol\":5372:5373  i */\n      dup2\n        /* \"contracts/CarreraCoches/principal.sol\":5360:5374  listaCoches[i] */\n      dup2\n      sload\n      dup2\n      lt\n      tag_245\n      jumpi\n      tag_246\n      tag_140\n      jump\t// in\n    tag_246:\n    tag_245:\n      swap1\n      0x00\n      mstore\n      keccak256(0x00, 0x20)\n      swap1\n      0x08\n      mul\n      add\n        /* \"contracts/CarreraCoches/principal.sol\":5360:5380  listaCoches[i].nivel */\n      0x07\n      add\n      0x00\n        /* \"contracts/CarreraCoches/principal.sol\":5360:5382  listaCoches[i].nivel++ */\n      dup2\n      dup2\n      swap1\n      sload\n      swap1\n      0x0100\n      exp\n      swap1\n      div\n      0xffffffff\n      and\n      dup1\n      swap3\n      swap2\n      swap1\n      tag_248\n      swap1\n      tag_189\n      jump\t// in\n    tag_248:\n      swap2\n      swap1\n      0x0100\n      exp\n      dup2\n      sload\n      dup2\n      0xffffffff\n      mul\n      not\n      and\n      swap1\n      dup4\n      0xffffffff\n      and\n      mul\n      or\n      swap1\n      sstore\n      pop\n      pop\n        /* \"contracts/CarreraCoches/principal.sol\":5413:5432  return \"Has ganado\" */\n      mload(0x40)\n      dup1\n      0x40\n      add\n      0x40\n      mstore\n      dup1\n      0x0a\n      dup2\n      mstore\n      0x20\n      add\n      0x4861732067616e61646f00000000000000000000000000000000000000000000\n      dup2\n      mstore\n      pop\n      swap6\n      pop\n      pop\n      pop\n      pop\n      pop\n      pop\n      jump(tag_191)\n        /* \"contracts/CarreraCoches/principal.sol\":5211:5784  if(ganador<=60){\r... */\n    tag_238:\n        /* \"contracts/CarreraCoches/principal.sol\":5586:5636  confirmacionDepositoLleno(\"El coche ganador es: \") */\n      0x6158fc8f21c8cc73ddf920956cc75d0e8a48b4fc85817a0ba89eb3b6d2a75441\n      mload(0x40)\n      tag_250\n      swap1\n      tag_251\n      jump\t// in\n    tag_250:\n      mload(0x40)\n      dup1\n      swap2\n      sub\n      swap1\n      log1\n        /* \"contracts/CarreraCoches/principal.sol\":5667:5671  this */\n      address\n        /* \"contracts/CarreraCoches/principal.sol\":5667:5691  this.verCochePropietario */\n      0xffffffffffffffffffffffffffffffffffffffff\n      and\n      0xe172fca8\n        /* \"contracts/CarreraCoches/principal.sol\":5692:5704  addressRival */\n      dup6\n        /* \"contracts/CarreraCoches/principal.sol\":5667:5705  this.verCochePropietario(addressRival) */\n      mload(0x40)\n      dup3\n      0xffffffff\n      and\n      0xe0\n      shl\n      dup2\n      mstore\n      0x04\n      add\n      tag_252\n      swap2\n      swap1\n      tag_39\n      jump\t// in\n    tag_252:\n      0x00\n      mload(0x40)\n      dup1\n      dup4\n      sub\n      dup2\n      0x00\n      dup8\n      dup1\n      extcodesize\n      iszero\n      dup1\n      iszero\n      tag_253\n      jumpi\n      0x00\n      dup1\n      revert\n    tag_253:\n      pop\n      gas\n      call\n      iszero\n      dup1\n      iszero\n      tag_255\n      jumpi\n      returndatasize\n      0x00\n      dup1\n      returndatacopy\n      revert(0x00, returndatasize)\n    tag_255:\n      pop\n      pop\n      pop\n      pop\n        /* \"contracts/CarreraCoches/principal.sol\":5736:5756  return \"Has perdido\" */\n      mload(0x40)\n      dup1\n      0x40\n      add\n      0x40\n      mstore\n      dup1\n      0x0b\n      dup2\n      mstore\n      0x20\n      add\n      0x486173207065726469646f000000000000000000000000000000000000000000\n      dup2\n      mstore\n      pop\n      swap6\n      pop\n      pop\n      pop\n      pop\n      pop\n      pop\n      jump(tag_191)\n        /* \"contracts/CarreraCoches/principal.sol\":5133:7241  if(listaCoches[rival].nivel < listaCoches[i].nivel){\r... */\n    tag_237:\n        /* \"contracts/CarreraCoches/principal.sol\":5847:5858  listaCoches */\n      0x06\n        /* \"contracts/CarreraCoches/principal.sol\":5859:5860  i */\n      dup2\n        /* \"contracts/CarreraCoches/principal.sol\":5847:5861  listaCoches[i] */\n      dup2\n      sload\n      dup2\n      lt\n      tag_257\n      jumpi\n      tag_258\n      tag_140\n      jump\t// in\n    tag_258:\n    tag_257:\n      swap1\n      0x00\n      mstore\n      keccak256(0x00, 0x20)\n      swap1\n      0x08\n      mul\n      add\n        /* \"contracts/CarreraCoches/principal.sol\":5847:5867  listaCoches[i].nivel */\n      0x07\n      add\n      0x00\n      swap1\n      sload\n      swap1\n      0x0100\n      exp\n      swap1\n      div\n      0xffffffff\n      and\n        /* \"contracts/CarreraCoches/principal.sol\":5819:5867  listaCoches[rival].nivel == listaCoches[i].nivel */\n      0xffffffff\n      and\n        /* \"contracts/CarreraCoches/principal.sol\":5819:5830  listaCoches */\n      0x06\n        /* \"contracts/CarreraCoches/principal.sol\":5831:5836  rival */\n      dup7\n        /* \"contracts/CarreraCoches/principal.sol\":5819:5837  listaCoches[rival] */\n      dup2\n      sload\n      dup2\n      lt\n      tag_260\n      jumpi\n      tag_261\n      tag_140\n      jump\t// in\n    tag_261:\n    tag_260:\n      swap1\n      0x00\n      mstore\n      keccak256(0x00, 0x20)\n      swap1\n      0x08\n      mul\n      add\n        /* \"contracts/CarreraCoches/principal.sol\":5819:5843  listaCoches[rival].nivel */\n      0x07\n      add\n      0x00\n      swap1\n      sload\n      swap1\n      0x0100\n      exp\n      swap1\n      div\n      0xffffffff\n      and\n        /* \"contracts/CarreraCoches/principal.sol\":5819:5867  listaCoches[rival].nivel == listaCoches[i].nivel */\n      0xffffffff\n      and\n      eq\n        /* \"contracts/CarreraCoches/principal.sol\":5816:7241  if(listaCoches[rival].nivel == listaCoches[i].nivel){\r... */\n      iszero\n      tag_263\n      jumpi\n        /* \"contracts/CarreraCoches/principal.sol\":5907:5909  50 */\n      0x32\n        /* \"contracts/CarreraCoches/principal.sol\":5898:5905  ganador */\n      dup3\n        /* \"contracts/CarreraCoches/principal.sol\":5898:5909  ganador<=50 */\n      gt\n        /* \"contracts/CarreraCoches/principal.sol\":5895:6470  if(ganador<=50){\r... */\n      tag_264\n      jumpi\n        /* \"contracts/CarreraCoches/principal.sol\":5941:5950  balance() */\n      tag_265\n        /* \"contracts/CarreraCoches/principal.sol\":5941:5948  balance */\n      tag_240\n        /* \"contracts/CarreraCoches/principal.sol\":5941:5950  balance() */\n      jump\t// in\n    tag_265:\n        /* \"contracts/CarreraCoches/principal.sol\":5981:5992  listaCoches */\n      0x06\n        /* \"contracts/CarreraCoches/principal.sol\":5993:5994  i */\n      dup2\n        /* \"contracts/CarreraCoches/principal.sol\":5981:5995  listaCoches[i] */\n      dup2\n      sload\n      dup2\n      lt\n      tag_266\n      jumpi\n      tag_267\n      tag_140\n      jump\t// in\n    tag_267:\n    tag_266:\n      swap1\n      0x00\n      mstore\n      keccak256(0x00, 0x20)\n      swap1\n      0x08\n      mul\n      add\n        /* \"contracts/CarreraCoches/principal.sol\":5981:6011  listaCoches[i].carrerasGanadas */\n      0x04\n      add\n      0x00\n        /* \"contracts/CarreraCoches/principal.sol\":5981:6013  listaCoches[i].carrerasGanadas++ */\n      dup2\n      sload\n      dup1\n      swap3\n      swap2\n      swap1\n      tag_269\n      swap1\n      tag_153\n      jump\t// in\n    tag_269:\n      swap2\n      swap1\n      pop\n      sstore\n      pop\n        /* \"contracts/CarreraCoches/principal.sol\":6044:6055  listaCoches */\n      0x06\n        /* \"contracts/CarreraCoches/principal.sol\":6056:6057  i */\n      dup2\n        /* \"contracts/CarreraCoches/principal.sol\":6044:6058  listaCoches[i] */\n      dup2\n      sload\n      dup2\n      lt\n      tag_270\n      jumpi\n      tag_271\n      tag_140\n      jump\t// in\n    tag_271:\n    tag_270:\n      swap1\n      0x00\n      mstore\n      keccak256(0x00, 0x20)\n      swap1\n      0x08\n      mul\n      add\n        /* \"contracts/CarreraCoches/principal.sol\":6044:6064  listaCoches[i].nivel */\n      0x07\n      add\n      0x00\n        /* \"contracts/CarreraCoches/principal.sol\":6044:6066  listaCoches[i].nivel++ */\n      dup2\n      dup2\n      swap1\n      sload\n      swap1\n      0x0100\n      exp\n      swap1\n      div\n      0xffffffff\n      and\n      dup1\n      swap3\n      swap2\n      swap1\n      tag_273\n      swap1\n      tag_189\n      jump\t// in\n    tag_273:\n      swap2\n      swap1\n      0x0100\n      exp\n      dup2\n      sload\n      dup2\n      0xffffffff\n      mul\n      not\n      and\n      swap1\n      dup4\n      0xffffffff\n      and\n      mul\n      or\n      swap1\n      sstore\n      pop\n      pop\n        /* \"contracts/CarreraCoches/principal.sol\":6097:6116  return \"Has ganado\" */\n      mload(0x40)\n      dup1\n      0x40\n      add\n      0x40\n      mstore\n      dup1\n      0x0a\n      dup2\n      mstore\n      0x20\n      add\n      0x4861732067616e61646f00000000000000000000000000000000000000000000\n      dup2\n      mstore\n      pop\n      swap6\n      pop\n      pop\n      pop\n      pop\n      pop\n      pop\n      jump(tag_191)\n        /* \"contracts/CarreraCoches/principal.sol\":5895:6470  if(ganador<=50){\r... */\n    tag_264:\n        /* \"contracts/CarreraCoches/principal.sol\":6272:6322  confirmacionDepositoLleno(\"El coche ganador es: \") */\n      0x6158fc8f21c8cc73ddf920956cc75d0e8a48b4fc85817a0ba89eb3b6d2a75441\n      mload(0x40)\n      tag_275\n      swap1\n      tag_251\n      jump\t// in\n    tag_275:\n      mload(0x40)\n      dup1\n      swap2\n      sub\n      swap1\n      log1\n        /* \"contracts/CarreraCoches/principal.sol\":6353:6357  this */\n      address\n        /* \"contracts/CarreraCoches/principal.sol\":6353:6377  this.verCochePropietario */\n      0xffffffffffffffffffffffffffffffffffffffff\n      and\n      0xe172fca8\n        /* \"contracts/CarreraCoches/principal.sol\":6378:6390  addressRival */\n      dup6\n        /* \"contracts/CarreraCoches/principal.sol\":6353:6391  this.verCochePropietario(addressRival) */\n      mload(0x40)\n      dup3\n      0xffffffff\n      and\n      0xe0\n      shl\n      dup2\n      mstore\n      0x04\n      add\n      tag_276\n      swap2\n      swap1\n      tag_39\n      jump\t// in\n    tag_276:\n      0x00\n      mload(0x40)\n      dup1\n      dup4\n      sub\n      dup2\n      0x00\n      dup8\n      dup1\n      extcodesize\n      iszero\n      dup1\n      iszero\n      tag_277\n      jumpi\n      0x00\n      dup1\n      revert\n    tag_277:\n      pop\n      gas\n      call\n      iszero\n      dup1\n      iszero\n      tag_279\n      jumpi\n      returndatasize\n      0x00\n      dup1\n      returndatacopy\n      revert(0x00, returndatasize)\n    tag_279:\n      pop\n      pop\n      pop\n      pop\n        /* \"contracts/CarreraCoches/principal.sol\":6422:6442  return \"Has perdido\" */\n      mload(0x40)\n      dup1\n      0x40\n      add\n      0x40\n      mstore\n      dup1\n      0x0b\n      dup2\n      mstore\n      0x20\n      add\n      0x486173207065726469646f000000000000000000000000000000000000000000\n      dup2\n      mstore\n      pop\n      swap6\n      pop\n      pop\n      pop\n      pop\n      pop\n      pop\n      jump(tag_191)\n        /* \"contracts/CarreraCoches/principal.sol\":5816:7241  if(listaCoches[rival].nivel == listaCoches[i].nivel){\r... */\n    tag_263:\n        /* \"contracts/CarreraCoches/principal.sol\":6537:6539  40 */\n      0x28\n        /* \"contracts/CarreraCoches/principal.sol\":6528:6535  ganador */\n      dup3\n        /* \"contracts/CarreraCoches/principal.sol\":6528:6539  ganador<=40 */\n      gt\n        /* \"contracts/CarreraCoches/principal.sol\":6525:7217  if(ganador<=40){\r... */\n      tag_281\n      jumpi\n        /* \"contracts/CarreraCoches/principal.sol\":6571:6580  balance() */\n      tag_282\n        /* \"contracts/CarreraCoches/principal.sol\":6571:6578  balance */\n      tag_240\n        /* \"contracts/CarreraCoches/principal.sol\":6571:6580  balance() */\n      jump\t// in\n    tag_282:\n        /* \"contracts/CarreraCoches/principal.sol\":6611:6622  listaCoches */\n      0x06\n        /* \"contracts/CarreraCoches/principal.sol\":6623:6624  i */\n      dup2\n        /* \"contracts/CarreraCoches/principal.sol\":6611:6625  listaCoches[i] */\n      dup2\n      sload\n      dup2\n      lt\n      tag_283\n      jumpi\n      tag_284\n      tag_140\n      jump\t// in\n    tag_284:\n    tag_283:\n      swap1\n      0x00\n      mstore\n      keccak256(0x00, 0x20)\n      swap1\n      0x08\n      mul\n      add\n        /* \"contracts/CarreraCoches/principal.sol\":6611:6641  listaCoches[i].carrerasGanadas */\n      0x04\n      add\n      0x00\n        /* \"contracts/CarreraCoches/principal.sol\":6611:6643  listaCoches[i].carrerasGanadas++ */\n      dup2\n      sload\n      dup1\n      swap3\n      swap2\n      swap1\n      tag_286\n      swap1\n      tag_153\n      jump\t// in\n    tag_286:\n      swap2\n      swap1\n      pop\n      sstore\n      pop\n        /* \"contracts/CarreraCoches/principal.sol\":6674:6685  listaCoches */\n      0x06\n        /* \"contracts/CarreraCoches/principal.sol\":6686:6687  i */\n      dup2\n        /* \"contracts/CarreraCoches/principal.sol\":6674:6688  listaCoches[i] */\n      dup2\n      sload\n      dup2\n      lt\n      tag_287\n      jumpi\n      tag_288\n      tag_140\n      jump\t// in\n    tag_288:\n    tag_287:\n      swap1\n      0x00\n      mstore\n      keccak256(0x00, 0x20)\n      swap1\n      0x08\n      mul\n      add\n        /* \"contracts/CarreraCoches/principal.sol\":6674:6694  listaCoches[i].nivel */\n      0x07\n      add\n      0x00\n        /* \"contracts/CarreraCoches/principal.sol\":6674:6696  listaCoches[i].nivel++ */\n      dup2\n      dup2\n      swap1\n      sload\n      swap1\n      0x0100\n      exp\n      swap1\n      div\n      0xffffffff\n      and\n      dup1\n      swap3\n      swap2\n      swap1\n      tag_290\n      swap1\n      tag_189\n      jump\t// in\n    tag_290:\n      swap2\n      swap1\n      0x0100\n      exp\n      dup2\n      sload\n      dup2\n      0xffffffff\n      mul\n      not\n      and\n      swap1\n      dup4\n      0xffffffff\n      and\n      mul\n      or\n      swap1\n      sstore\n      pop\n      pop\n        /* \"contracts/CarreraCoches/principal.sol\":6727:6746  return \"Has ganado\" */\n      mload(0x40)\n      dup1\n      0x40\n      add\n      0x40\n      mstore\n      dup1\n      0x0a\n      dup2\n      mstore\n      0x20\n      add\n      0x4861732067616e61646f00000000000000000000000000000000000000000000\n      dup2\n      mstore\n      pop\n      swap6\n      pop\n      pop\n      pop\n      pop\n      pop\n      pop\n      jump(tag_191)\n        /* \"contracts/CarreraCoches/principal.sol\":6525:7217  if(ganador<=40){\r... */\n    tag_281:\n        /* \"contracts/CarreraCoches/principal.sol\":6814:6864  confirmacionDepositoLleno(\"El coche ganador es: \") */\n      0x6158fc8f21c8cc73ddf920956cc75d0e8a48b4fc85817a0ba89eb3b6d2a75441\n      mload(0x40)\n      tag_292\n      swap1\n      tag_251\n      jump\t// in\n    tag_292:\n      mload(0x40)\n      dup1\n      swap2\n      sub\n      swap1\n      log1\n        /* \"contracts/CarreraCoches/principal.sol\":6895:6899  this */\n      address\n        /* \"contracts/CarreraCoches/principal.sol\":6895:6919  this.verCochePropietario */\n      0xffffffffffffffffffffffffffffffffffffffff\n      and\n      0xe172fca8\n        /* \"contracts/CarreraCoches/principal.sol\":6920:6932  addressRival */\n      dup6\n        /* \"contracts/CarreraCoches/principal.sol\":6895:6933  this.verCochePropietario(addressRival) */\n      mload(0x40)\n      dup3\n      0xffffffff\n      and\n      0xe0\n      shl\n      dup2\n      mstore\n      0x04\n      add\n      tag_293\n      swap2\n      swap1\n      tag_39\n      jump\t// in\n    tag_293:\n      0x00\n      mload(0x40)\n      dup1\n      dup4\n      sub\n      dup2\n      0x00\n      dup8\n      dup1\n      extcodesize\n      iszero\n      dup1\n      iszero\n      tag_294\n      jumpi\n      0x00\n      dup1\n      revert\n    tag_294:\n      pop\n      gas\n      call\n      iszero\n      dup1\n      iszero\n      tag_296\n      jumpi\n      returndatasize\n      0x00\n      dup1\n      returndatacopy\n      revert(0x00, returndatasize)\n    tag_296:\n      pop\n      pop\n      pop\n      pop\n        /* \"contracts/CarreraCoches/principal.sol\":7169:7189  return \"Has perdido\" */\n      mload(0x40)\n      dup1\n      0x40\n      add\n      0x40\n      mstore\n      dup1\n      0x0b\n      dup2\n      mstore\n      0x20\n      add\n      0x486173207065726469646f000000000000000000000000000000000000000000\n      dup2\n      mstore\n      pop\n      swap6\n      pop\n      pop\n      pop\n      pop\n      pop\n      pop\n      jump(tag_191)\n        /* \"contracts/CarreraCoches/principal.sol\":4841:7264  if (msg.sender == listaCoches[i].idPiloto) {\r... */\n    tag_211:\n        /* \"contracts/CarreraCoches/principal.sol\":4782:4785  i++ */\n      dup1\n      dup1\n      tag_297\n      swap1\n      tag_153\n      jump\t// in\n    tag_297:\n      swap2\n      pop\n      pop\n        /* \"contracts/CarreraCoches/principal.sol\":4742:7297  for(uint i = 0; i < listaCoches.length; i++){\r... */\n      jump(tag_205)\n    tag_206:\n      pop\n        /* \"contracts/CarreraCoches/principal.sol\":4202:7308  {\r... */\n      pop\n      pop\n      pop\n      pop\n        /* \"contracts/CarreraCoches/principal.sol\":4062:7308  if(listaCoches.length <= 1){\r... */\n    tag_195:\n        /* \"contracts/CarreraCoches/principal.sol\":3968:7314  function Apostar(uint dineroApostar) public payable returns(string memory) {\r... */\n    tag_191:\n      swap2\n      swap1\n      pop\n      jump\t// out\n        /* \"contracts/CarreraCoches/cocheToken.sol\":1343:1479  function balanceOf(address _owner) external override virtual view returns (uint256){\r... */\n    tag_80:\n        /* \"contracts/CarreraCoches/cocheToken.sol\":1418:1425  uint256 */\n      0x00\n        /* \"contracts/CarreraCoches/cocheToken.sol\":1444:1463  numeroCochesPersona */\n      0x08\n        /* \"contracts/CarreraCoches/cocheToken.sol\":1444:1471  numeroCochesPersona[_owner] */\n      0x00\n        /* \"contracts/CarreraCoches/cocheToken.sol\":1464:1470  _owner */\n      dup4\n        /* \"contracts/CarreraCoches/cocheToken.sol\":1444:1471  numeroCochesPersona[_owner] */\n      0xffffffffffffffffffffffffffffffffffffffff\n      and\n      0xffffffffffffffffffffffffffffffffffffffff\n      and\n      dup2\n      mstore\n      0x20\n      add\n      swap1\n      dup2\n      mstore\n      0x20\n      add\n      0x00\n      keccak256\n      sload\n        /* \"contracts/CarreraCoches/cocheToken.sol\":1437:1471  return numeroCochesPersona[_owner] */\n      swap1\n      pop\n        /* \"contracts/CarreraCoches/cocheToken.sol\":1343:1479  function balanceOf(address _owner) external override virtual view returns (uint256){\r... */\n      swap2\n      swap1\n      pop\n      jump\t// out\n        /* \"contracts/CarreraCoches/ownable.sol\":1719:1822  function renounceOwnership() public virtual onlyOwner {\r... */\n    tag_84:\n        /* \"contracts/CarreraCoches/ownable.sol\":1299:1311  _msgSender() */\n      tag_300\n        /* \"contracts/CarreraCoches/ownable.sol\":1299:1309  _msgSender */\n      tag_301\n        /* \"contracts/CarreraCoches/ownable.sol\":1299:1311  _msgSender() */\n      jump\t// in\n    tag_300:\n        /* \"contracts/CarreraCoches/ownable.sol\":1288:1311  owner() == _msgSender() */\n      0xffffffffffffffffffffffffffffffffffffffff\n      and\n        /* \"contracts/CarreraCoches/ownable.sol\":1288:1295  owner() */\n      tag_302\n        /* \"contracts/CarreraCoches/ownable.sol\":1288:1293  owner */\n      tag_92\n        /* \"contracts/CarreraCoches/ownable.sol\":1288:1295  owner() */\n      jump\t// in\n    tag_302:\n        /* \"contracts/CarreraCoches/ownable.sol\":1288:1311  owner() == _msgSender() */\n      0xffffffffffffffffffffffffffffffffffffffff\n      and\n      eq\n        /* \"contracts/CarreraCoches/ownable.sol\":1280:1348  require(owner() == _msgSender(), \"Ownable: caller is not the owner\") */\n      tag_303\n      jumpi\n      mload(0x40)\n      0x08c379a000000000000000000000000000000000000000000000000000000000\n      dup2\n      mstore\n      0x04\n      add\n      tag_304\n      swap1\n      tag_305\n      jump\t// in\n    tag_304:\n      mload(0x40)\n      dup1\n      swap2\n      sub\n      swap1\n      revert\n    tag_303:\n        /* \"contracts/CarreraCoches/ownable.sol\":1784:1814  _transferOwnership(address(0)) */\n      tag_307\n        /* \"contracts/CarreraCoches/ownable.sol\":1811:1812  0 */\n      0x00\n        /* \"contracts/CarreraCoches/ownable.sol\":1784:1802  _transferOwnership */\n      tag_308\n        /* \"contracts/CarreraCoches/ownable.sol\":1784:1814  _transferOwnership(address(0)) */\n      jump\t// in\n    tag_307:\n        /* \"contracts/CarreraCoches/ownable.sol\":1719:1822  function renounceOwnership() public virtual onlyOwner {\r... */\n      jump\t// out\n        /* \"contracts/CarreraCoches/principal.sol\":871:922  mapping (uint => address) public cocheDePropietario */\n    tag_88:\n      mstore(0x20, 0x07)\n      dup1\n      0x00\n      mstore\n      keccak256(0x00, 0x40)\n      0x00\n      swap2\n      pop\n      sload\n      swap1\n      0x0100\n      exp\n      swap1\n      div\n      0xffffffffffffffffffffffffffffffffffffffff\n      and\n      dup2\n      jump\t// out\n        /* \"contracts/CarreraCoches/ownable.sol\":1068:1155  function owner() public view virtual returns (address) {\r... */\n    tag_92:\n        /* \"contracts/CarreraCoches/ownable.sol\":1114:1121  address */\n      0x00\n        /* \"contracts/CarreraCoches/ownable.sol\":1141:1147  _owner */\n      dup1\n      0x00\n      swap1\n      sload\n      swap1\n      0x0100\n      exp\n      swap1\n      div\n      0xffffffffffffffffffffffffffffffffffffffff\n      and\n        /* \"contracts/CarreraCoches/ownable.sol\":1134:1147  return _owner */\n      swap1\n      pop\n        /* \"contracts/CarreraCoches/ownable.sol\":1068:1155  function owner() public view virtual returns (address) {\r... */\n      swap1\n      jump\t// out\n        /* \"contracts/CarreraCoches/cocheToken.sol\":2527:2624  function setApprovalForAll(address _operator, bool _approved) external override virtual{\r... */\n    tag_98:\n      pop\n      pop\n      jump\t// out\n        /* \"contracts/CarreraCoches/ownable.sol\":701:722  address public _owner */\n    tag_101:\n      0x00\n      dup1\n      sload\n      swap1\n      0x0100\n      exp\n      swap1\n      div\n      0xffffffffffffffffffffffffffffffffffffffff\n      and\n      dup2\n      jump\t// out\n        /* \"contracts/CarreraCoches/cocheToken.sol\":2859:3091  function takeOwnership(uint256 _tokenId) public {\r... */\n    tag_106:\n        /* \"contracts/CarreraCoches/cocheToken.sol\":2962:2972  msg.sender */\n      caller\n        /* \"contracts/CarreraCoches/cocheToken.sol\":2926:2972  confirmarTransferencia[_tokenId] == msg.sender */\n      0xffffffffffffffffffffffffffffffffffffffff\n      and\n        /* \"contracts/CarreraCoches/cocheToken.sol\":2926:2948  confirmarTransferencia */\n      0x09\n        /* \"contracts/CarreraCoches/cocheToken.sol\":2926:2958  confirmarTransferencia[_tokenId] */\n      0x00\n        /* \"contracts/CarreraCoches/cocheToken.sol\":2949:2957  _tokenId */\n      dup4\n        /* \"contracts/CarreraCoches/cocheToken.sol\":2926:2958  confirmarTransferencia[_tokenId] */\n      dup2\n      mstore\n      0x20\n      add\n      swap1\n      dup2\n      mstore\n      0x20\n      add\n      0x00\n      keccak256\n      0x00\n      swap1\n      sload\n      swap1\n      0x0100\n      exp\n      swap1\n      div\n      0xffffffffffffffffffffffffffffffffffffffff\n      and\n        /* \"contracts/CarreraCoches/cocheToken.sol\":2926:2972  confirmarTransferencia[_tokenId] == msg.sender */\n      0xffffffffffffffffffffffffffffffffffffffff\n      and\n      eq\n        /* \"contracts/CarreraCoches/cocheToken.sol\":2918:2973  require(confirmarTransferencia[_tokenId] == msg.sender) */\n      tag_312\n      jumpi\n      0x00\n      dup1\n      revert\n    tag_312:\n        /* \"contracts/CarreraCoches/cocheToken.sol\":2984:3003  address propietario */\n      0x00\n        /* \"contracts/CarreraCoches/cocheToken.sol\":3006:3010  this */\n      address\n        /* \"contracts/CarreraCoches/cocheToken.sol\":3006:3018  this.ownerOf */\n      0xffffffffffffffffffffffffffffffffffffffff\n      and\n      0x6352211e\n        /* \"contracts/CarreraCoches/cocheToken.sol\":3019:3027  _tokenId */\n      dup4\n        /* \"contracts/CarreraCoches/cocheToken.sol\":3006:3028  this.ownerOf(_tokenId) */\n      mload(0x40)\n      dup3\n      0xffffffff\n      and\n      0xe0\n      shl\n      dup2\n      mstore\n      0x04\n      add\n      tag_313\n      swap2\n      swap1\n      tag_50\n      jump\t// in\n    tag_313:\n      0x20\n      mload(0x40)\n      dup1\n      dup4\n      sub\n      dup2\n      dup7\n      dup1\n      extcodesize\n      iszero\n      dup1\n      iszero\n      tag_314\n      jumpi\n      0x00\n      dup1\n      revert\n    tag_314:\n      pop\n      gas\n      staticcall\n      iszero\n      dup1\n      iszero\n      tag_316\n      jumpi\n      returndatasize\n      0x00\n      dup1\n      returndatacopy\n      revert(0x00, returndatasize)\n    tag_316:\n      pop\n      pop\n      pop\n      pop\n      mload(0x40)\n      returndatasize\n      not(0x1f)\n      0x1f\n      dup3\n      add\n      and\n      dup3\n      add\n      dup1\n      0x40\n      mstore\n      pop\n      dup2\n      add\n      swap1\n      tag_317\n      swap2\n      swap1\n      tag_318\n      jump\t// in\n    tag_317:\n        /* \"contracts/CarreraCoches/cocheToken.sol\":2984:3028  address propietario = this.ownerOf(_tokenId) */\n      swap1\n      pop\n        /* \"contracts/CarreraCoches/cocheToken.sol\":3039:3083  _transfer(propietario, msg.sender, _tokenId) */\n      tag_319\n        /* \"contracts/CarreraCoches/cocheToken.sol\":3049:3060  propietario */\n      dup2\n        /* \"contracts/CarreraCoches/cocheToken.sol\":3062:3072  msg.sender */\n      caller\n        /* \"contracts/CarreraCoches/cocheToken.sol\":3074:3082  _tokenId */\n      dup5\n        /* \"contracts/CarreraCoches/cocheToken.sol\":3039:3048  _transfer */\n      tag_158\n        /* \"contracts/CarreraCoches/cocheToken.sol\":3039:3083  _transfer(propietario, msg.sender, _tokenId) */\n      jump\t// in\n    tag_319:\n        /* \"contracts/CarreraCoches/cocheToken.sol\":2907:3091  {\r... */\n      pop\n        /* \"contracts/CarreraCoches/cocheToken.sol\":2859:3091  function takeOwnership(uint256 _tokenId) public {\r... */\n      pop\n      jump\t// out\n        /* \"contracts/CarreraCoches/cocheToken.sol\":1891:2025  function safeTransferFrom(address _from, address _to, uint256 _tokenId, bytes memory data) external override virtual payable{\r... */\n    tag_110:\n      pop\n      pop\n      pop\n      pop\n      jump\t// out\n        /* \"contracts/CarreraCoches/principal.sol\":604:630  Coche[] public listaCoches */\n    tag_114:\n      0x06\n      dup2\n      dup2\n      sload\n      dup2\n      lt\n      tag_321\n      jumpi\n      0x00\n      dup1\n      revert\n    tag_321:\n      swap1\n      0x00\n      mstore\n      keccak256(0x00, 0x20)\n      swap1\n      0x08\n      mul\n      add\n      0x00\n      swap2\n      pop\n      swap1\n      pop\n      dup1\n      0x00\n      add\n      0x00\n      swap1\n      sload\n      swap1\n      0x0100\n      exp\n      swap1\n      div\n      0xffffffffffffffffffffffffffffffffffffffff\n      and\n      swap1\n      dup1\n      0x01\n      add\n      dup1\n      sload\n      tag_323\n      swap1\n      tag_324\n      jump\t// in\n    tag_323:\n      dup1\n      0x1f\n      add\n      0x20\n      dup1\n      swap2\n      div\n      mul\n      0x20\n      add\n      mload(0x40)\n      swap1\n      dup2\n      add\n      0x40\n      mstore\n      dup1\n      swap3\n      swap2\n      swap1\n      dup2\n      dup2\n      mstore\n      0x20\n      add\n      dup3\n      dup1\n      sload\n      tag_325\n      swap1\n      tag_324\n      jump\t// in\n    tag_325:\n      dup1\n      iszero\n      tag_326\n      jumpi\n      dup1\n      0x1f\n      lt\n      tag_327\n      jumpi\n      0x0100\n      dup1\n      dup4\n      sload\n      div\n      mul\n      dup4\n      mstore\n      swap2\n      0x20\n      add\n      swap2\n      jump(tag_326)\n    tag_327:\n      dup3\n      add\n      swap2\n      swap1\n      0x00\n      mstore\n      keccak256(0x00, 0x20)\n      swap1\n    tag_328:\n      dup2\n      sload\n      dup2\n      mstore\n      swap1\n      0x01\n      add\n      swap1\n      0x20\n      add\n      dup1\n      dup4\n      gt\n      tag_328\n      jumpi\n      dup3\n      swap1\n      sub\n      0x1f\n      and\n      dup3\n      add\n      swap2\n    tag_326:\n      pop\n      pop\n      pop\n      pop\n      pop\n      swap1\n      dup1\n      0x02\n      add\n      dup1\n      sload\n      tag_329\n      swap1\n      tag_324\n      jump\t// in\n    tag_329:\n      dup1\n      0x1f\n      add\n      0x20\n      dup1\n      swap2\n      div\n      mul\n      0x20\n      add\n      mload(0x40)\n      swap1\n      dup2\n      add\n      0x40\n      mstore\n      dup1\n      swap3\n      swap2\n      swap1\n      dup2\n      dup2\n      mstore\n      0x20\n      add\n      dup3\n      dup1\n      sload\n      tag_330\n      swap1\n      tag_324\n      jump\t// in\n    tag_330:\n      dup1\n      iszero\n      tag_331\n      jumpi\n      dup1\n      0x1f\n      lt\n      tag_332\n      jumpi\n      0x0100\n      dup1\n      dup4\n      sload\n      div\n      mul\n      dup4\n      mstore\n      swap2\n      0x20\n      add\n      swap2\n      jump(tag_331)\n    tag_332:\n      dup3\n      add\n      swap2\n      swap1\n      0x00\n      mstore\n      keccak256(0x00, 0x20)\n      swap1\n    tag_333:\n      dup2\n      sload\n      dup2\n      mstore\n      swap1\n      0x01\n      add\n      swap1\n      0x20\n      add\n      dup1\n      dup4\n      gt\n      tag_333\n      jumpi\n      dup3\n      swap1\n      sub\n      0x1f\n      and\n      dup3\n      add\n      swap2\n    tag_331:\n      pop\n      pop\n      pop\n      pop\n      pop\n      swap1\n      dup1\n      0x03\n      add\n      dup1\n      sload\n      tag_334\n      swap1\n      tag_324\n      jump\t// in\n    tag_334:\n      dup1\n      0x1f\n      add\n      0x20\n      dup1\n      swap2\n      div\n      mul\n      0x20\n      add\n      mload(0x40)\n      swap1\n      dup2\n      add\n      0x40\n      mstore\n      dup1\n      swap3\n      swap2\n      swap1\n      dup2\n      dup2\n      mstore\n      0x20\n      add\n      dup3\n      dup1\n      sload\n      tag_335\n      swap1\n      tag_324\n      jump\t// in\n    tag_335:\n      dup1\n      iszero\n      tag_336\n      jumpi\n      dup1\n      0x1f\n      lt\n      tag_337\n      jumpi\n      0x0100\n      dup1\n      dup4\n      sload\n      div\n      mul\n      dup4\n      mstore\n      swap2\n      0x20\n      add\n      swap2\n      jump(tag_336)\n    tag_337:\n      dup3\n      add\n      swap2\n      swap1\n      0x00\n      mstore\n      keccak256(0x00, 0x20)\n      swap1\n    tag_338:\n      dup2\n      sload\n      dup2\n      mstore\n      swap1\n      0x01\n      add\n      swap1\n      0x20\n      add\n      dup1\n      dup4\n      gt\n      tag_338\n      jumpi\n      dup3\n      swap1\n      sub\n      0x1f\n      and\n      dup3\n      add\n      swap2\n    tag_336:\n      pop\n      pop\n      pop\n      pop\n      pop\n      swap1\n      dup1\n      0x04\n      add\n      sload\n      swap1\n      dup1\n      0x05\n      add\n      sload\n      swap1\n      dup1\n      0x06\n      add\n      sload\n      swap1\n      dup1\n      0x07\n      add\n      0x00\n      swap1\n      sload\n      swap1\n      0x0100\n      exp\n      swap1\n      div\n      0xffffffff\n      and\n      swap1\n      pop\n      dup9\n      jump\t// out\n        /* \"contracts/CarreraCoches/principal.sol\":2989:3365  function verCochePropietario(address _propietario) external {\r... */\n    tag_120:\n        /* \"contracts/CarreraCoches/principal.sol\":3064:3070  uint i */\n      0x00\n        /* \"contracts/CarreraCoches/principal.sol\":3060:3358  for(uint i = 0; i < listaCoches.length; i++){\r... */\n    tag_340:\n        /* \"contracts/CarreraCoches/principal.sol\":3080:3091  listaCoches */\n      0x06\n        /* \"contracts/CarreraCoches/principal.sol\":3080:3098  listaCoches.length */\n      dup1\n      sload\n      swap1\n      pop\n        /* \"contracts/CarreraCoches/principal.sol\":3076:3077  i */\n      dup2\n        /* \"contracts/CarreraCoches/principal.sol\":3076:3098  i < listaCoches.length */\n      lt\n        /* \"contracts/CarreraCoches/principal.sol\":3060:3358  for(uint i = 0; i < listaCoches.length; i++){\r... */\n      iszero\n      tag_341\n      jumpi\n        /* \"contracts/CarreraCoches/principal.sol\":3147:3159  _propietario */\n      dup2\n        /* \"contracts/CarreraCoches/principal.sol\":3122:3159  listaCoches[i].idPiloto==_propietario */\n      0xffffffffffffffffffffffffffffffffffffffff\n      and\n        /* \"contracts/CarreraCoches/principal.sol\":3122:3133  listaCoches */\n      0x06\n        /* \"contracts/CarreraCoches/principal.sol\":3134:3135  i */\n      dup3\n        /* \"contracts/CarreraCoches/principal.sol\":3122:3136  listaCoches[i] */\n      dup2\n      sload\n      dup2\n      lt\n      tag_343\n      jumpi\n      tag_344\n      tag_140\n      jump\t// in\n    tag_344:\n    tag_343:\n      swap1\n      0x00\n      mstore\n      keccak256(0x00, 0x20)\n      swap1\n      0x08\n      mul\n      add\n        /* \"contracts/CarreraCoches/principal.sol\":3122:3145  listaCoches[i].idPiloto */\n      0x00\n      add\n      0x00\n      swap1\n      sload\n      swap1\n      0x0100\n      exp\n      swap1\n      div\n      0xffffffffffffffffffffffffffffffffffffffff\n      and\n        /* \"contracts/CarreraCoches/principal.sol\":3122:3159  listaCoches[i].idPiloto==_propietario */\n      0xffffffffffffffffffffffffffffffffffffffff\n      and\n      eq\n        /* \"contracts/CarreraCoches/principal.sol\":3119:3347  if(listaCoches[i].idPiloto==_propietario){\r... */\n      iszero\n      tag_346\n      jumpi\n        /* \"contracts/CarreraCoches/principal.sol\":3184:3331  cochePropietario(listaCoches[i].marca, listaCoches[i].modelo, listaCoches[i].nivel, listaCoches[i].carrerasGanadas, listaCoches[i].carrerasTotales) */\n      0x20fdb8ab571bfbab79104bea84f9c31cb79c5ae45b5f515c1d6c8393e0028350\n        /* \"contracts/CarreraCoches/principal.sol\":3201:3212  listaCoches */\n      0x06\n        /* \"contracts/CarreraCoches/principal.sol\":3213:3214  i */\n      dup3\n        /* \"contracts/CarreraCoches/principal.sol\":3201:3215  listaCoches[i] */\n      dup2\n      sload\n      dup2\n      lt\n      tag_347\n      jumpi\n      tag_348\n      tag_140\n      jump\t// in\n    tag_348:\n    tag_347:\n      swap1\n      0x00\n      mstore\n      keccak256(0x00, 0x20)\n      swap1\n      0x08\n      mul\n      add\n        /* \"contracts/CarreraCoches/principal.sol\":3201:3221  listaCoches[i].marca */\n      0x02\n      add\n        /* \"contracts/CarreraCoches/principal.sol\":3223:3234  listaCoches */\n      0x06\n        /* \"contracts/CarreraCoches/principal.sol\":3235:3236  i */\n      dup4\n        /* \"contracts/CarreraCoches/principal.sol\":3223:3237  listaCoches[i] */\n      dup2\n      sload\n      dup2\n      lt\n      tag_350\n      jumpi\n      tag_351\n      tag_140\n      jump\t// in\n    tag_351:\n    tag_350:\n      swap1\n      0x00\n      mstore\n      keccak256(0x00, 0x20)\n      swap1\n      0x08\n      mul\n      add\n        /* \"contracts/CarreraCoches/principal.sol\":3223:3244  listaCoches[i].modelo */\n      0x01\n      add\n        /* \"contracts/CarreraCoches/principal.sol\":3246:3257  listaCoches */\n      0x06\n        /* \"contracts/CarreraCoches/principal.sol\":3258:3259  i */\n      dup5\n        /* \"contracts/CarreraCoches/principal.sol\":3246:3260  listaCoches[i] */\n      dup2\n      sload\n      dup2\n      lt\n      tag_353\n      jumpi\n      tag_354\n      tag_140\n      jump\t// in\n    tag_354:\n    tag_353:\n      swap1\n      0x00\n      mstore\n      keccak256(0x00, 0x20)\n      swap1\n      0x08\n      mul\n      add\n        /* \"contracts/CarreraCoches/principal.sol\":3246:3266  listaCoches[i].nivel */\n      0x07\n      add\n      0x00\n      swap1\n      sload\n      swap1\n      0x0100\n      exp\n      swap1\n      div\n      0xffffffff\n      and\n        /* \"contracts/CarreraCoches/principal.sol\":3268:3279  listaCoches */\n      0x06\n        /* \"contracts/CarreraCoches/principal.sol\":3280:3281  i */\n      dup6\n        /* \"contracts/CarreraCoches/principal.sol\":3268:3282  listaCoches[i] */\n      dup2\n      sload\n      dup2\n      lt\n      tag_356\n      jumpi\n      tag_357\n      tag_140\n      jump\t// in\n    tag_357:\n    tag_356:\n      swap1\n      0x00\n      mstore\n      keccak256(0x00, 0x20)\n      swap1\n      0x08\n      mul\n      add\n        /* \"contracts/CarreraCoches/principal.sol\":3268:3298  listaCoches[i].carrerasGanadas */\n      0x04\n      add\n      sload\n        /* \"contracts/CarreraCoches/principal.sol\":3300:3311  listaCoches */\n      0x06\n        /* \"contracts/CarreraCoches/principal.sol\":3312:3313  i */\n      dup7\n        /* \"contracts/CarreraCoches/principal.sol\":3300:3314  listaCoches[i] */\n      dup2\n      sload\n      dup2\n      lt\n      tag_359\n      jumpi\n      tag_360\n      tag_140\n      jump\t// in\n    tag_360:\n    tag_359:\n      swap1\n      0x00\n      mstore\n      keccak256(0x00, 0x20)\n      swap1\n      0x08\n      mul\n      add\n        /* \"contracts/CarreraCoches/principal.sol\":3300:3330  listaCoches[i].carrerasTotales */\n      0x05\n      add\n      sload\n        /* \"contracts/CarreraCoches/principal.sol\":3184:3331  cochePropietario(listaCoches[i].marca, listaCoches[i].modelo, listaCoches[i].nivel, listaCoches[i].carrerasGanadas, listaCoches[i].carrerasTotales) */\n      mload(0x40)\n      tag_362\n      swap6\n      swap5\n      swap4\n      swap3\n      swap2\n      swap1\n      tag_363\n      jump\t// in\n    tag_362:\n      mload(0x40)\n      dup1\n      swap2\n      sub\n      swap1\n      log1\n        /* \"contracts/CarreraCoches/principal.sol\":3119:3347  if(listaCoches[i].idPiloto==_propietario){\r... */\n    tag_346:\n        /* \"contracts/CarreraCoches/principal.sol\":3100:3103  i++ */\n      dup1\n      dup1\n      tag_364\n      swap1\n      tag_153\n      jump\t// in\n    tag_364:\n      swap2\n      pop\n      pop\n        /* \"contracts/CarreraCoches/principal.sol\":3060:3358  for(uint i = 0; i < listaCoches.length; i++){\r... */\n      jump(tag_340)\n    tag_341:\n      pop\n        /* \"contracts/CarreraCoches/principal.sol\":2989:3365  function verCochePropietario(address _propietario) external {\r... */\n      pop\n      jump\t// out\n        /* \"contracts/CarreraCoches/cocheToken.sol\":2733:2849  function isApprovedForAll(address _owner, address _operator) external override virtual view returns (bool){\r... */\n    tag_125:\n        /* \"contracts/CarreraCoches/cocheToken.sol\":2834:2838  bool */\n      0x00\n        /* \"contracts/CarreraCoches/cocheToken.sol\":2733:2849  function isApprovedForAll(address _owner, address _operator) external override virtual view returns (bool){\r... */\n      swap3\n      swap2\n      pop\n      pop\n      jump\t// out\n        /* \"contracts/CarreraCoches/ownable.sol\":1977:2178  function transferOwnership(address newOwner) public virtual onlyOwner {\r... */\n    tag_131:\n        /* \"contracts/CarreraCoches/ownable.sol\":1299:1311  _msgSender() */\n      tag_367\n        /* \"contracts/CarreraCoches/ownable.sol\":1299:1309  _msgSender */\n      tag_301\n        /* \"contracts/CarreraCoches/ownable.sol\":1299:1311  _msgSender() */\n      jump\t// in\n    tag_367:\n        /* \"contracts/CarreraCoches/ownable.sol\":1288:1311  owner() == _msgSender() */\n      0xffffffffffffffffffffffffffffffffffffffff\n      and\n        /* \"contracts/CarreraCoches/ownable.sol\":1288:1295  owner() */\n      tag_368\n        /* \"contracts/CarreraCoches/ownable.sol\":1288:1293  owner */\n      tag_92\n        /* \"contracts/CarreraCoches/ownable.sol\":1288:1295  owner() */\n      jump\t// in\n    tag_368:\n        /* \"contracts/CarreraCoches/ownable.sol\":1288:1311  owner() == _msgSender() */\n      0xffffffffffffffffffffffffffffffffffffffff\n      and\n      eq\n        /* \"contracts/CarreraCoches/ownable.sol\":1280:1348  require(owner() == _msgSender(), \"Ownable: caller is not the owner\") */\n      tag_369\n      jumpi\n      mload(0x40)\n      0x08c379a000000000000000000000000000000000000000000000000000000000\n      dup2\n      mstore\n      0x04\n      add\n      tag_370\n      swap1\n      tag_305\n      jump\t// in\n    tag_370:\n      mload(0x40)\n      dup1\n      swap2\n      sub\n      swap1\n      revert\n    tag_369:\n        /* \"contracts/CarreraCoches/ownable.sol\":2086:2087  0 */\n      0x00\n        /* \"contracts/CarreraCoches/ownable.sol\":2066:2088  newOwner != address(0) */\n      0xffffffffffffffffffffffffffffffffffffffff\n      and\n        /* \"contracts/CarreraCoches/ownable.sol\":2066:2074  newOwner */\n      dup2\n        /* \"contracts/CarreraCoches/ownable.sol\":2066:2088  newOwner != address(0) */\n      0xffffffffffffffffffffffffffffffffffffffff\n      and\n      eq\n      iszero\n        /* \"contracts/CarreraCoches/ownable.sol\":2058:2131  require(newOwner != address(0), \"Ownable: new owner is the zero address\") */\n      tag_372\n      jumpi\n      mload(0x40)\n      0x08c379a000000000000000000000000000000000000000000000000000000000\n      dup2\n      mstore\n      0x04\n      add\n      tag_373\n      swap1\n      tag_374\n      jump\t// in\n    tag_373:\n      mload(0x40)\n      dup1\n      swap2\n      sub\n      swap1\n      revert\n    tag_372:\n        /* \"contracts/CarreraCoches/ownable.sol\":2142:2170  _transferOwnership(newOwner) */\n      tag_375\n        /* \"contracts/CarreraCoches/ownable.sol\":2161:2169  newOwner */\n      dup2\n        /* \"contracts/CarreraCoches/ownable.sol\":2142:2160  _transferOwnership */\n      tag_308\n        /* \"contracts/CarreraCoches/ownable.sol\":2142:2170  _transferOwnership(newOwner) */\n      jump\t// in\n    tag_375:\n        /* \"contracts/CarreraCoches/ownable.sol\":1977:2178  function transferOwnership(address newOwner) public virtual onlyOwner {\r... */\n      pop\n      jump\t// out\n        /* \"contracts/CarreraCoches/cocheToken.sol\":1632:1881  function _transfer(address _from, address _to, uint256 _tokenId) private {\r... */\n    tag_158:\n        /* \"contracts/CarreraCoches/cocheToken.sol\":1716:1735  numeroCochesPersona */\n      0x08\n        /* \"contracts/CarreraCoches/cocheToken.sol\":1716:1740  numeroCochesPersona[_to] */\n      0x00\n        /* \"contracts/CarreraCoches/cocheToken.sol\":1736:1739  _to */\n      dup4\n        /* \"contracts/CarreraCoches/cocheToken.sol\":1716:1740  numeroCochesPersona[_to] */\n      0xffffffffffffffffffffffffffffffffffffffff\n      and\n      0xffffffffffffffffffffffffffffffffffffffff\n      and\n      dup2\n      mstore\n      0x20\n      add\n      swap1\n      dup2\n      mstore\n      0x20\n      add\n      0x00\n      keccak256\n      0x00\n        /* \"contracts/CarreraCoches/cocheToken.sol\":1716:1742  numeroCochesPersona[_to]++ */\n      dup2\n      sload\n      dup1\n      swap3\n      swap2\n      swap1\n      tag_377\n      swap1\n      tag_153\n      jump\t// in\n    tag_377:\n      swap2\n      swap1\n      pop\n      sstore\n      pop\n        /* \"contracts/CarreraCoches/cocheToken.sol\":1753:1772  numeroCochesPersona */\n      0x08\n        /* \"contracts/CarreraCoches/cocheToken.sol\":1753:1779  numeroCochesPersona[_from] */\n      0x00\n        /* \"contracts/CarreraCoches/cocheToken.sol\":1773:1778  _from */\n      dup5\n        /* \"contracts/CarreraCoches/cocheToken.sol\":1753:1779  numeroCochesPersona[_from] */\n      0xffffffffffffffffffffffffffffffffffffffff\n      and\n      0xffffffffffffffffffffffffffffffffffffffff\n      and\n      dup2\n      mstore\n      0x20\n      add\n      swap1\n      dup2\n      mstore\n      0x20\n      add\n      0x00\n      keccak256\n      0x00\n        /* \"contracts/CarreraCoches/cocheToken.sol\":1753:1781  numeroCochesPersona[_from]-- */\n      dup2\n      sload\n      dup1\n      swap3\n      swap2\n      swap1\n      tag_378\n      swap1\n      tag_379\n      jump\t// in\n    tag_378:\n      swap2\n      swap1\n      pop\n      sstore\n      pop\n        /* \"contracts/CarreraCoches/cocheToken.sol\":1824:1827  _to */\n      dup2\n        /* \"contracts/CarreraCoches/cocheToken.sol\":1792:1827  cocheDePropietario[_tokenId] == _to */\n      0xffffffffffffffffffffffffffffffffffffffff\n      and\n        /* \"contracts/CarreraCoches/cocheToken.sol\":1792:1810  cocheDePropietario */\n      0x07\n        /* \"contracts/CarreraCoches/cocheToken.sol\":1792:1820  cocheDePropietario[_tokenId] */\n      0x00\n        /* \"contracts/CarreraCoches/cocheToken.sol\":1811:1819  _tokenId */\n      dup4\n        /* \"contracts/CarreraCoches/cocheToken.sol\":1792:1820  cocheDePropietario[_tokenId] */\n      dup2\n      mstore\n      0x20\n      add\n      swap1\n      dup2\n      mstore\n      0x20\n      add\n      0x00\n      keccak256\n      0x00\n      swap1\n      sload\n      swap1\n      0x0100\n      exp\n      swap1\n      pop\n      pop\n        /* \"contracts/CarreraCoches/cocheToken.sol\":1792:1827  cocheDePropietario[_tokenId] == _to */\n      pop\n        /* \"contracts/CarreraCoches/cocheToken.sol\":1864:1872  _tokenId */\n      dup1\n        /* \"contracts/CarreraCoches/cocheToken.sol\":1859:1862  _to */\n      dup3\n        /* \"contracts/CarreraCoches/cocheToken.sol\":1843:1873  Transfer(_from, _to, _tokenId) */\n      0xffffffffffffffffffffffffffffffffffffffff\n      and\n        /* \"contracts/CarreraCoches/cocheToken.sol\":1852:1857  _from */\n      dup5\n        /* \"contracts/CarreraCoches/cocheToken.sol\":1843:1873  Transfer(_from, _to, _tokenId) */\n      0xffffffffffffffffffffffffffffffffffffffff\n      and\n      0xddf252ad1be2c89b69c2b068fc378daa952ba7f163c4a11628f55a4df523b3ef\n      mload(0x40)\n      mload(0x40)\n      dup1\n      swap2\n      sub\n      swap1\n      log4\n        /* \"contracts/CarreraCoches/cocheToken.sol\":1632:1881  function _transfer(address _from, address _to, uint256 _tokenId) private {\r... */\n      pop\n      pop\n      pop\n      jump\t// out\n        /* \"contracts/CarreraCoches/principal.sol\":2398:2537  function _depositoLleno(Coche storage _coche) internal view returns (bool) {\r... */\n    tag_216:\n        /* \"contracts/CarreraCoches/principal.sol\":2467:2471  bool */\n      0x00\n        /* \"contracts/CarreraCoches/principal.sol\":2514:2529  block.timestamp */\n      timestamp\n        /* \"contracts/CarreraCoches/principal.sol\":2491:2497  _coche */\n      dup3\n        /* \"contracts/CarreraCoches/principal.sol\":2491:2510  _coche.tiempoEspera */\n      0x06\n      add\n      sload\n        /* \"contracts/CarreraCoches/principal.sol\":2491:2529  _coche.tiempoEspera <= block.timestamp */\n      gt\n      iszero\n        /* \"contracts/CarreraCoches/principal.sol\":2484:2529  return _coche.tiempoEspera <= block.timestamp */\n      swap1\n      pop\n        /* \"contracts/CarreraCoches/principal.sol\":2398:2537  function _depositoLleno(Coche storage _coche) internal view returns (bool) {\r... */\n      swap2\n      swap1\n      pop\n      jump\t// out\n        /* \"contracts/CarreraCoches/principal.sol\":2245:2372  function _repostando(Coche storage _coche) internal {\r... */\n    tag_230:\n        /* \"contracts/CarreraCoches/principal.sol\":2355:2363  cooldown */\n      sload(0x03)\n        /* \"contracts/CarreraCoches/principal.sol\":2337:2352  block.timestamp */\n      timestamp\n        /* \"contracts/CarreraCoches/principal.sol\":2337:2363  block.timestamp + cooldown */\n      tag_382\n      swap2\n      swap1\n      tag_165\n      jump\t// in\n    tag_382:\n        /* \"contracts/CarreraCoches/principal.sol\":2308:2364  _coche.tiempoEspera = uint32(block.timestamp + cooldown) */\n      0xffffffff\n      and\n        /* \"contracts/CarreraCoches/principal.sol\":2308:2314  _coche */\n      dup2\n        /* \"contracts/CarreraCoches/principal.sol\":2308:2327  _coche.tiempoEspera */\n      0x06\n      add\n        /* \"contracts/CarreraCoches/principal.sol\":2308:2364  _coche.tiempoEspera = uint32(block.timestamp + cooldown) */\n      dup2\n      swap1\n      sstore\n      pop\n        /* \"contracts/CarreraCoches/principal.sol\":2245:2372  function _repostando(Coche storage _coche) internal {\r... */\n      pop\n      jump\t// out\n        /* \"contracts/CarreraCoches/principal.sol\":7371:7469  function balance() private {\r... */\n    tag_240:\n        /* \"contracts/CarreraCoches/principal.sol\":7418:7428  msg.sender */\n      caller\n        /* \"contracts/CarreraCoches/principal.sol\":7409:7438  payable (msg.sender).transfer */\n      0xffffffffffffffffffffffffffffffffffffffff\n      and\n        /* \"contracts/CarreraCoches/principal.sol\":7409:7461  payable (msg.sender).transfer(address(this).balance) */\n      0x08fc\n        /* \"contracts/CarreraCoches/principal.sol\":7439:7460  address(this).balance */\n      selfbalance\n        /* \"contracts/CarreraCoches/principal.sol\":7409:7461  payable (msg.sender).transfer(address(this).balance) */\n      swap1\n      dup2\n      iszero\n      mul\n      swap1\n      mload(0x40)\n      0x00\n      mload(0x40)\n      dup1\n      dup4\n      sub\n      dup2\n      dup6\n      dup9\n      dup9\n      call\n      swap4\n      pop\n      pop\n      pop\n      pop\n      iszero\n      dup1\n      iszero\n      tag_385\n      jumpi\n      returndatasize\n      0x00\n      dup1\n      returndatacopy\n      revert(0x00, returndatasize)\n    tag_385:\n      pop\n        /* \"contracts/CarreraCoches/principal.sol\":7371:7469  function balance() private {\r... */\n      jump\t// out\n        /* \"contracts/CarreraCoches/utils/Context.sol\":656:754  function _msgSender() internal view virtual returns (address) {\r... */\n    tag_301:\n        /* \"contracts/CarreraCoches/utils/Context.sol\":709:716  address */\n      0x00\n        /* \"contracts/CarreraCoches/utils/Context.sol\":736:746  msg.sender */\n      caller\n        /* \"contracts/CarreraCoches/utils/Context.sol\":729:746  return msg.sender */\n      swap1\n      pop\n        /* \"contracts/CarreraCoches/utils/Context.sol\":656:754  function _msgSender() internal view virtual returns (address) {\r... */\n      swap1\n      jump\t// out\n        /* \"contracts/CarreraCoches/ownable.sol\":2338:2529  function _transferOwnership(address newOwner) internal virtual {\r... */\n    tag_308:\n        /* \"contracts/CarreraCoches/ownable.sol\":2412:2428  address oldOwner */\n      0x00\n        /* \"contracts/CarreraCoches/ownable.sol\":2431:2437  _owner */\n      dup1\n      0x00\n      swap1\n      sload\n      swap1\n      0x0100\n      exp\n      swap1\n      div\n      0xffffffffffffffffffffffffffffffffffffffff\n      and\n        /* \"contracts/CarreraCoches/ownable.sol\":2412:2437  address oldOwner = _owner */\n      swap1\n      pop\n        /* \"contracts/CarreraCoches/ownable.sol\":2457:2465  newOwner */\n      dup2\n        /* \"contracts/CarreraCoches/ownable.sol\":2448:2454  _owner */\n      0x00\n      dup1\n        /* \"contracts/CarreraCoches/ownable.sol\":2448:2465  _owner = newOwner */\n      0x0100\n      exp\n      dup2\n      sload\n      dup2\n      0xffffffffffffffffffffffffffffffffffffffff\n      mul\n      not\n      and\n      swap1\n      dup4\n      0xffffffffffffffffffffffffffffffffffffffff\n      and\n      mul\n      or\n      swap1\n      sstore\n      pop\n        /* \"contracts/CarreraCoches/ownable.sol\":2512:2520  newOwner */\n      dup2\n        /* \"contracts/CarreraCoches/ownable.sol\":2481:2521  OwnershipTransferred(oldOwner, newOwner) */\n      0xffffffffffffffffffffffffffffffffffffffff\n      and\n        /* \"contracts/CarreraCoches/ownable.sol\":2502:2510  oldOwner */\n      dup2\n        /* \"contracts/CarreraCoches/ownable.sol\":2481:2521  OwnershipTransferred(oldOwner, newOwner) */\n      0xffffffffffffffffffffffffffffffffffffffff\n      and\n      0x8be0079c531659141344cd1fd0a4f28419497f9722a3daafe3b4186f6b6457e0\n      mload(0x40)\n      mload(0x40)\n      dup1\n      swap2\n      sub\n      swap1\n      log3\n        /* \"contracts/CarreraCoches/ownable.sol\":2401:2529  {\r... */\n      pop\n        /* \"contracts/CarreraCoches/ownable.sol\":2338:2529  function _transferOwnership(address newOwner) internal virtual {\r... */\n      pop\n      jump\t// out\n    tag_147:\n      dup3\n      dup1\n      sload\n      tag_388\n      swap1\n      tag_324\n      jump\t// in\n    tag_388:\n      swap1\n      0x00\n      mstore\n      keccak256(0x00, 0x20)\n      swap1\n      0x1f\n      add\n      0x20\n      swap1\n      div\n      dup2\n      add\n      swap3\n      dup3\n      tag_390\n      jumpi\n      0x00\n      dup6\n      sstore\n      jump(tag_389)\n    tag_390:\n      dup3\n      0x1f\n      lt\n      tag_391\n      jumpi\n      dup1\n      mload\n      not(0xff)\n      and\n      dup4\n      dup1\n      add\n      or\n      dup6\n      sstore\n      jump(tag_389)\n    tag_391:\n      dup3\n      dup1\n      add\n      0x01\n      add\n      dup6\n      sstore\n      dup3\n      iszero\n      tag_389\n      jumpi\n      swap2\n      dup3\n      add\n    tag_392:\n      dup3\n      dup2\n      gt\n      iszero\n      tag_393\n      jumpi\n      dup3\n      mload\n      dup3\n      sstore\n      swap2\n      0x20\n      add\n      swap2\n      swap1\n      0x01\n      add\n      swap1\n      jump(tag_392)\n    tag_393:\n    tag_389:\n      pop\n      swap1\n      pop\n      tag_394\n      swap2\n      swap1\n      tag_395\n      jump\t// in\n    tag_394:\n      pop\n      swap1\n      jump\t// out\n    tag_395:\n    tag_396:\n      dup1\n      dup3\n      gt\n      iszero\n      tag_397\n      jumpi\n      0x00\n      dup2\n      0x00\n      swap1\n      sstore\n      pop\n      0x01\n      add\n      jump(tag_396)\n    tag_397:\n      pop\n      swap1\n      jump\t// out\n        /* \"#utility.yul\":7:417   */\n    tag_399:\n        /* \"#utility.yul\":84:89   */\n      0x00\n        /* \"#utility.yul\":109:174   */\n      tag_401\n        /* \"#utility.yul\":125:173   */\n      tag_402\n        /* \"#utility.yul\":166:172   */\n      dup5\n        /* \"#utility.yul\":125:173   */\n      tag_403\n      jump\t// in\n    tag_402:\n        /* \"#utility.yul\":109:174   */\n      tag_404\n      jump\t// in\n    tag_401:\n        /* \"#utility.yul\":100:174   */\n      swap1\n      pop\n        /* \"#utility.yul\":197:203   */\n      dup3\n        /* \"#utility.yul\":190:195   */\n      dup2\n        /* \"#utility.yul\":183:204   */\n      mstore\n        /* \"#utility.yul\":235:239   */\n      0x20\n        /* \"#utility.yul\":228:233   */\n      dup2\n        /* \"#utility.yul\":224:240   */\n      add\n        /* \"#utility.yul\":273:276   */\n      dup5\n        /* \"#utility.yul\":264:270   */\n      dup5\n        /* \"#utility.yul\":259:262   */\n      dup5\n        /* \"#utility.yul\":255:271   */\n      add\n        /* \"#utility.yul\":252:277   */\n      gt\n        /* \"#utility.yul\":249:361   */\n      iszero\n      tag_405\n      jumpi\n        /* \"#utility.yul\":280:359   */\n      tag_406\n      tag_407\n      jump\t// in\n    tag_406:\n        /* \"#utility.yul\":249:361   */\n    tag_405:\n        /* \"#utility.yul\":370:411   */\n      tag_408\n        /* \"#utility.yul\":404:410   */\n      dup5\n        /* \"#utility.yul\":399:402   */\n      dup3\n        /* \"#utility.yul\":394:397   */\n      dup6\n        /* \"#utility.yul\":370:411   */\n      tag_409\n      jump\t// in\n    tag_408:\n        /* \"#utility.yul\":90:417   */\n      pop\n        /* \"#utility.yul\":7:417   */\n      swap4\n      swap3\n      pop\n      pop\n      pop\n      jump\t// out\n        /* \"#utility.yul\":423:835   */\n    tag_410:\n        /* \"#utility.yul\":501:506   */\n      0x00\n        /* \"#utility.yul\":526:592   */\n      tag_412\n        /* \"#utility.yul\":542:591   */\n      tag_413\n        /* \"#utility.yul\":584:590   */\n      dup5\n        /* \"#utility.yul\":542:591   */\n      tag_414\n      jump\t// in\n    tag_413:\n        /* \"#utility.yul\":526:592   */\n      tag_404\n      jump\t// in\n    tag_412:\n        /* \"#utility.yul\":517:592   */\n      swap1\n      pop\n        /* \"#utility.yul\":615:621   */\n      dup3\n        /* \"#utility.yul\":608:613   */\n      dup2\n        /* \"#utility.yul\":601:622   */\n      mstore\n        /* \"#utility.yul\":653:657   */\n      0x20\n        /* \"#utility.yul\":646:651   */\n      dup2\n        /* \"#utility.yul\":642:658   */\n      add\n        /* \"#utility.yul\":691:694   */\n      dup5\n        /* \"#utility.yul\":682:688   */\n      dup5\n        /* \"#utility.yul\":677:680   */\n      dup5\n        /* \"#utility.yul\":673:689   */\n      add\n        /* \"#utility.yul\":670:695   */\n      gt\n        /* \"#utility.yul\":667:779   */\n      iszero\n      tag_415\n      jumpi\n        /* \"#utility.yul\":698:777   */\n      tag_416\n      tag_407\n      jump\t// in\n    tag_416:\n        /* \"#utility.yul\":667:779   */\n    tag_415:\n        /* \"#utility.yul\":788:829   */\n      tag_417\n        /* \"#utility.yul\":822:828   */\n      dup5\n        /* \"#utility.yul\":817:820   */\n      dup3\n        /* \"#utility.yul\":812:815   */\n      dup6\n        /* \"#utility.yul\":788:829   */\n      tag_409\n      jump\t// in\n    tag_417:\n        /* \"#utility.yul\":507:835   */\n      pop\n        /* \"#utility.yul\":423:835   */\n      swap4\n      swap3\n      pop\n      pop\n      pop\n      jump\t// out\n        /* \"#utility.yul\":841:980   */\n    tag_418:\n        /* \"#utility.yul\":887:892   */\n      0x00\n        /* \"#utility.yul\":925:931   */\n      dup2\n        /* \"#utility.yul\":912:932   */\n      calldataload\n        /* \"#utility.yul\":903:932   */\n      swap1\n      pop\n        /* \"#utility.yul\":941:974   */\n      tag_420\n        /* \"#utility.yul\":968:973   */\n      dup2\n        /* \"#utility.yul\":941:974   */\n      tag_421\n      jump\t// in\n    tag_420:\n        /* \"#utility.yul\":841:980   */\n      swap3\n      swap2\n      pop\n      pop\n      jump\t// out\n        /* \"#utility.yul\":986:1129   */\n    tag_422:\n        /* \"#utility.yul\":1043:1048   */\n      0x00\n        /* \"#utility.yul\":1074:1080   */\n      dup2\n        /* \"#utility.yul\":1068:1081   */\n      mload\n        /* \"#utility.yul\":1059:1081   */\n      swap1\n      pop\n        /* \"#utility.yul\":1090:1123   */\n      tag_424\n        /* \"#utility.yul\":1117:1122   */\n      dup2\n        /* \"#utility.yul\":1090:1123   */\n      tag_421\n      jump\t// in\n    tag_424:\n        /* \"#utility.yul\":986:1129   */\n      swap3\n      swap2\n      pop\n      pop\n      jump\t// out\n        /* \"#utility.yul\":1135:1268   */\n    tag_425:\n        /* \"#utility.yul\":1178:1183   */\n      0x00\n        /* \"#utility.yul\":1216:1222   */\n      dup2\n        /* \"#utility.yul\":1203:1223   */\n      calldataload\n        /* \"#utility.yul\":1194:1223   */\n      swap1\n      pop\n        /* \"#utility.yul\":1232:1262   */\n      tag_427\n        /* \"#utility.yul\":1256:1261   */\n      dup2\n        /* \"#utility.yul\":1232:1262   */\n      tag_428\n      jump\t// in\n    tag_427:\n        /* \"#utility.yul\":1135:1268   */\n      swap3\n      swap2\n      pop\n      pop\n      jump\t// out\n        /* \"#utility.yul\":1287:1625   */\n    tag_429:\n        /* \"#utility.yul\":1342:1347   */\n      0x00\n        /* \"#utility.yul\":1391:1394   */\n      dup3\n        /* \"#utility.yul\":1384:1388   */\n      0x1f\n        /* \"#utility.yul\":1376:1382   */\n      dup4\n        /* \"#utility.yul\":1372:1389   */\n      add\n        /* \"#utility.yul\":1368:1395   */\n      slt\n        /* \"#utility.yul\":1358:1480   */\n      tag_431\n      jumpi\n        /* \"#utility.yul\":1399:1478   */\n      tag_432\n      tag_433\n      jump\t// in\n    tag_432:\n        /* \"#utility.yul\":1358:1480   */\n    tag_431:\n        /* \"#utility.yul\":1516:1522   */\n      dup2\n        /* \"#utility.yul\":1503:1523   */\n      calldataload\n        /* \"#utility.yul\":1541:1619   */\n      tag_434\n        /* \"#utility.yul\":1615:1618   */\n      dup5\n        /* \"#utility.yul\":1607:1613   */\n      dup3\n        /* \"#utility.yul\":1600:1604   */\n      0x20\n        /* \"#utility.yul\":1592:1598   */\n      dup7\n        /* \"#utility.yul\":1588:1605   */\n      add\n        /* \"#utility.yul\":1541:1619   */\n      tag_399\n      jump\t// in\n    tag_434:\n        /* \"#utility.yul\":1532:1619   */\n      swap2\n      pop\n        /* \"#utility.yul\":1348:1625   */\n      pop\n        /* \"#utility.yul\":1287:1625   */\n      swap3\n      swap2\n      pop\n      pop\n      jump\t// out\n        /* \"#utility.yul\":1645:1985   */\n    tag_435:\n        /* \"#utility.yul\":1701:1706   */\n      0x00\n        /* \"#utility.yul\":1750:1753   */\n      dup3\n        /* \"#utility.yul\":1743:1747   */\n      0x1f\n        /* \"#utility.yul\":1735:1741   */\n      dup4\n        /* \"#utility.yul\":1731:1748   */\n      add\n        /* \"#utility.yul\":1727:1754   */\n      slt\n        /* \"#utility.yul\":1717:1839   */\n      tag_437\n      jumpi\n        /* \"#utility.yul\":1758:1837   */\n      tag_438\n      tag_433\n      jump\t// in\n    tag_438:\n        /* \"#utility.yul\":1717:1839   */\n    tag_437:\n        /* \"#utility.yul\":1875:1881   */\n      dup2\n        /* \"#utility.yul\":1862:1882   */\n      calldataload\n        /* \"#utility.yul\":1900:1979   */\n      tag_439\n        /* \"#utility.yul\":1975:1978   */\n      dup5\n        /* \"#utility.yul\":1967:1973   */\n      dup3\n        /* \"#utility.yul\":1960:1964   */\n      0x20\n        /* \"#utility.yul\":1952:1958   */\n      dup7\n        /* \"#utility.yul\":1948:1965   */\n      add\n        /* \"#utility.yul\":1900:1979   */\n      tag_410\n      jump\t// in\n    tag_439:\n        /* \"#utility.yul\":1891:1979   */\n      swap2\n      pop\n        /* \"#utility.yul\":1707:1985   */\n      pop\n        /* \"#utility.yul\":1645:1985   */\n      swap3\n      swap2\n      pop\n      pop\n      jump\t// out\n        /* \"#utility.yul\":1991:2130   */\n    tag_440:\n        /* \"#utility.yul\":2037:2042   */\n      0x00\n        /* \"#utility.yul\":2075:2081   */\n      dup2\n        /* \"#utility.yul\":2062:2082   */\n      calldataload\n        /* \"#utility.yul\":2053:2082   */\n      swap1\n      pop\n        /* \"#utility.yul\":2091:2124   */\n      tag_442\n        /* \"#utility.yul\":2118:2123   */\n      dup2\n        /* \"#utility.yul\":2091:2124   */\n      tag_443\n      jump\t// in\n    tag_442:\n        /* \"#utility.yul\":1991:2130   */\n      swap3\n      swap2\n      pop\n      pop\n      jump\t// out\n        /* \"#utility.yul\":2136:2465   */\n    tag_47:\n        /* \"#utility.yul\":2195:2201   */\n      0x00\n        /* \"#utility.yul\":2244:2246   */\n      0x20\n        /* \"#utility.yul\":2232:2241   */\n      dup3\n        /* \"#utility.yul\":2223:2230   */\n      dup5\n        /* \"#utility.yul\":2219:2242   */\n      sub\n        /* \"#utility.yul\":2215:2247   */\n      slt\n        /* \"#utility.yul\":2212:2331   */\n      iszero\n      tag_445\n      jumpi\n        /* \"#utility.yul\":2250:2329   */\n      tag_446\n      tag_447\n      jump\t// in\n    tag_446:\n        /* \"#utility.yul\":2212:2331   */\n    tag_445:\n        /* \"#utility.yul\":2370:2371   */\n      0x00\n        /* \"#utility.yul\":2395:2448   */\n      tag_448\n        /* \"#utility.yul\":2440:2447   */\n      dup5\n        /* \"#utility.yul\":2431:2437   */\n      dup3\n        /* \"#utility.yul\":2420:2429   */\n      dup6\n        /* \"#utility.yul\":2416:2438   */\n      add\n        /* \"#utility.yul\":2395:2448   */\n      tag_418\n      jump\t// in\n    tag_448:\n        /* \"#utility.yul\":2385:2448   */\n      swap2\n      pop\n        /* \"#utility.yul\":2341:2458   */\n      pop\n        /* \"#utility.yul\":2136:2465   */\n      swap3\n      swap2\n      pop\n      pop\n      jump\t// out\n        /* \"#utility.yul\":2471:2822   */\n    tag_318:\n        /* \"#utility.yul\":2541:2547   */\n      0x00\n        /* \"#utility.yul\":2590:2592   */\n      0x20\n        /* \"#utility.yul\":2578:2587   */\n      dup3\n        /* \"#utility.yul\":2569:2576   */\n      dup5\n        /* \"#utility.yul\":2565:2588   */\n      sub\n        /* \"#utility.yul\":2561:2593   */\n      slt\n        /* \"#utility.yul\":2558:2677   */\n      iszero\n      tag_450\n      jumpi\n        /* \"#utility.yul\":2596:2675   */\n      tag_451\n      tag_447\n      jump\t// in\n    tag_451:\n        /* \"#utility.yul\":2558:2677   */\n    tag_450:\n        /* \"#utility.yul\":2716:2717   */\n      0x00\n        /* \"#utility.yul\":2741:2805   */\n      tag_452\n        /* \"#utility.yul\":2797:2804   */\n      dup5\n        /* \"#utility.yul\":2788:2794   */\n      dup3\n        /* \"#utility.yul\":2777:2786   */\n      dup6\n        /* \"#utility.yul\":2773:2795   */\n      add\n        /* \"#utility.yul\":2741:2805   */\n      tag_422\n      jump\t// in\n    tag_452:\n        /* \"#utility.yul\":2731:2805   */\n      swap2\n      pop\n        /* \"#utility.yul\":2687:2815   */\n      pop\n        /* \"#utility.yul\":2471:2822   */\n      swap3\n      swap2\n      pop\n      pop\n      jump\t// out\n        /* \"#utility.yul\":2828:3302   */\n    tag_124:\n        /* \"#utility.yul\":2896:2902   */\n      0x00\n        /* \"#utility.yul\":2904:2910   */\n      dup1\n        /* \"#utility.yul\":2953:2955   */\n      0x40\n        /* \"#utility.yul\":2941:2950   */\n      dup4\n        /* \"#utility.yul\":2932:2939   */\n      dup6\n        /* \"#utility.yul\":2928:2951   */\n      sub\n        /* \"#utility.yul\":2924:2956   */\n      slt\n        /* \"#utility.yul\":2921:3040   */\n      iszero\n      tag_454\n      jumpi\n        /* \"#utility.yul\":2959:3038   */\n      tag_455\n      tag_447\n      jump\t// in\n    tag_455:\n        /* \"#utility.yul\":2921:3040   */\n    tag_454:\n        /* \"#utility.yul\":3079:3080   */\n      0x00\n        /* \"#utility.yul\":3104:3157   */\n      tag_456\n        /* \"#utility.yul\":3149:3156   */\n      dup6\n        /* \"#utility.yul\":3140:3146   */\n      dup3\n        /* \"#utility.yul\":3129:3138   */\n      dup7\n        /* \"#utility.yul\":3125:3147   */\n      add\n        /* \"#utility.yul\":3104:3157   */\n      tag_418\n      jump\t// in\n    tag_456:\n        /* \"#utility.yul\":3094:3157   */\n      swap3\n      pop\n        /* \"#utility.yul\":3050:3167   */\n      pop\n        /* \"#utility.yul\":3206:3208   */\n      0x20\n        /* \"#utility.yul\":3232:3285   */\n      tag_457\n        /* \"#utility.yul\":3277:3284   */\n      dup6\n        /* \"#utility.yul\":3268:3274   */\n      dup3\n        /* \"#utility.yul\":3257:3266   */\n      dup7\n        /* \"#utility.yul\":3253:3275   */\n      add\n        /* \"#utility.yul\":3232:3285   */\n      tag_418\n      jump\t// in\n    tag_457:\n        /* \"#utility.yul\":3222:3285   */\n      swap2\n      pop\n        /* \"#utility.yul\":3177:3295   */\n      pop\n        /* \"#utility.yul\":2828:3302   */\n      swap3\n      pop\n      swap3\n      swap1\n      pop\n      jump\t// out\n        /* \"#utility.yul\":3308:3927   */\n    tag_53:\n        /* \"#utility.yul\":3385:3391   */\n      0x00\n        /* \"#utility.yul\":3393:3399   */\n      dup1\n        /* \"#utility.yul\":3401:3407   */\n      0x00\n        /* \"#utility.yul\":3450:3452   */\n      0x60\n        /* \"#utility.yul\":3438:3447   */\n      dup5\n        /* \"#utility.yul\":3429:3436   */\n      dup7\n        /* \"#utility.yul\":3425:3448   */\n      sub\n        /* \"#utility.yul\":3421:3453   */\n      slt\n        /* \"#utility.yul\":3418:3537   */\n      iszero\n      tag_459\n      jumpi\n        /* \"#utility.yul\":3456:3535   */\n      tag_460\n      tag_447\n      jump\t// in\n    tag_460:\n        /* \"#utility.yul\":3418:3537   */\n    tag_459:\n        /* \"#utility.yul\":3576:3577   */\n      0x00\n        /* \"#utility.yul\":3601:3654   */\n      tag_461\n        /* \"#utility.yul\":3646:3653   */\n      dup7\n        /* \"#utility.yul\":3637:3643   */\n      dup3\n        /* \"#utility.yul\":3626:3635   */\n      dup8\n        /* \"#utility.yul\":3622:3644   */\n      add\n        /* \"#utility.yul\":3601:3654   */\n      tag_418\n      jump\t// in\n    tag_461:\n        /* \"#utility.yul\":3591:3654   */\n      swap4\n      pop\n        /* \"#utility.yul\":3547:3664   */\n      pop\n        /* \"#utility.yul\":3703:3705   */\n      0x20\n        /* \"#utility.yul\":3729:3782   */\n      tag_462\n        /* \"#utility.yul\":3774:3781   */\n      dup7\n        /* \"#utility.yul\":3765:3771   */\n      dup3\n        /* \"#utility.yul\":3754:3763   */\n      dup8\n        /* \"#utility.yul\":3750:3772   */\n      add\n        /* \"#utility.yul\":3729:3782   */\n      tag_418\n      jump\t// in\n    tag_462:\n        /* \"#utility.yul\":3719:3782   */\n      swap3\n      pop\n        /* \"#utility.yul\":3674:3792   */\n      pop\n        /* \"#utility.yul\":3831:3833   */\n      0x40\n        /* \"#utility.yul\":3857:3910   */\n      tag_463\n        /* \"#utility.yul\":3902:3909   */\n      dup7\n        /* \"#utility.yul\":3893:3899   */\n      dup3\n        /* \"#utility.yul\":3882:3891   */\n      dup8\n        /* \"#utility.yul\":3878:3900   */\n      add\n        /* \"#utility.yul\":3857:3910   */\n      tag_440\n      jump\t// in\n    tag_463:\n        /* \"#utility.yul\":3847:3910   */\n      swap2\n      pop\n        /* \"#utility.yul\":3802:3920   */\n      pop\n        /* \"#utility.yul\":3308:3927   */\n      swap3\n      pop\n      swap3\n      pop\n      swap3\n      jump\t// out\n        /* \"#utility.yul\":3933:4876   */\n    tag_109:\n        /* \"#utility.yul\":4028:4034   */\n      0x00\n        /* \"#utility.yul\":4036:4042   */\n      dup1\n        /* \"#utility.yul\":4044:4050   */\n      0x00\n        /* \"#utility.yul\":4052:4058   */\n      dup1\n        /* \"#utility.yul\":4101:4104   */\n      0x80\n        /* \"#utility.yul\":4089:4098   */\n      dup6\n        /* \"#utility.yul\":4080:4087   */\n      dup8\n        /* \"#utility.yul\":4076:4099   */\n      sub\n        /* \"#utility.yul\":4072:4105   */\n      slt\n        /* \"#utility.yul\":4069:4189   */\n      iszero\n      tag_465\n      jumpi\n        /* \"#utility.yul\":4108:4187   */\n      tag_466\n      tag_447\n      jump\t// in\n    tag_466:\n        /* \"#utility.yul\":4069:4189   */\n    tag_465:\n        /* \"#utility.yul\":4228:4229   */\n      0x00\n        /* \"#utility.yul\":4253:4306   */\n      tag_467\n        /* \"#utility.yul\":4298:4305   */\n      dup8\n        /* \"#utility.yul\":4289:4295   */\n      dup3\n        /* \"#utility.yul\":4278:4287   */\n      dup9\n        /* \"#utility.yul\":4274:4296   */\n      add\n        /* \"#utility.yul\":4253:4306   */\n      tag_418\n      jump\t// in\n    tag_467:\n        /* \"#utility.yul\":4243:4306   */\n      swap5\n      pop\n        /* \"#utility.yul\":4199:4316   */\n      pop\n        /* \"#utility.yul\":4355:4357   */\n      0x20\n        /* \"#utility.yul\":4381:4434   */\n      tag_468\n        /* \"#utility.yul\":4426:4433   */\n      dup8\n        /* \"#utility.yul\":4417:4423   */\n      dup3\n        /* \"#utility.yul\":4406:4415   */\n      dup9\n        /* \"#utility.yul\":4402:4424   */\n      add\n        /* \"#utility.yul\":4381:4434   */\n      tag_418\n      jump\t// in\n    tag_468:\n        /* \"#utility.yul\":4371:4434   */\n      swap4\n      pop\n        /* \"#utility.yul\":4326:4444   */\n      pop\n        /* \"#utility.yul\":4483:4485   */\n      0x40\n        /* \"#utility.yul\":4509:4562   */\n      tag_469\n        /* \"#utility.yul\":4554:4561   */\n      dup8\n        /* \"#utility.yul\":4545:4551   */\n      dup3\n        /* \"#utility.yul\":4534:4543   */\n      dup9\n        /* \"#utility.yul\":4530:4552   */\n      add\n        /* \"#utility.yul\":4509:4562   */\n      tag_440\n      jump\t// in\n    tag_469:\n        /* \"#utility.yul\":4499:4562   */\n      swap3\n      pop\n        /* \"#utility.yul\":4454:4572   */\n      pop\n        /* \"#utility.yul\":4639:4641   */\n      0x60\n        /* \"#utility.yul\":4628:4637   */\n      dup6\n        /* \"#utility.yul\":4624:4642   */\n      add\n        /* \"#utility.yul\":4611:4643   */\n      calldataload\n        /* \"#utility.yul\":4670:4688   */\n      0xffffffffffffffff\n        /* \"#utility.yul\":4662:4668   */\n      dup2\n        /* \"#utility.yul\":4659:4689   */\n      gt\n        /* \"#utility.yul\":4656:4773   */\n      iszero\n      tag_470\n      jumpi\n        /* \"#utility.yul\":4692:4771   */\n      tag_471\n      tag_472\n      jump\t// in\n    tag_471:\n        /* \"#utility.yul\":4656:4773   */\n    tag_470:\n        /* \"#utility.yul\":4797:4859   */\n      tag_473\n        /* \"#utility.yul\":4851:4858   */\n      dup8\n        /* \"#utility.yul\":4842:4848   */\n      dup3\n        /* \"#utility.yul\":4831:4840   */\n      dup9\n        /* \"#utility.yul\":4827:4849   */\n      add\n        /* \"#utility.yul\":4797:4859   */\n      tag_429\n      jump\t// in\n    tag_473:\n        /* \"#utility.yul\":4787:4859   */\n      swap2\n      pop\n        /* \"#utility.yul\":4582:4869   */\n      pop\n        /* \"#utility.yul\":3933:4876   */\n      swap3\n      swap6\n      swap2\n      swap5\n      pop\n      swap3\n      pop\n      jump\t// out\n        /* \"#utility.yul\":4882:5350   */\n    tag_97:\n        /* \"#utility.yul\":4947:4953   */\n      0x00\n        /* \"#utility.yul\":4955:4961   */\n      dup1\n        /* \"#utility.yul\":5004:5006   */\n      0x40\n        /* \"#utility.yul\":4992:5001   */\n      dup4\n        /* \"#utility.yul\":4983:4990   */\n      dup6\n        /* \"#utility.yul\":4979:5002   */\n      sub\n        /* \"#utility.yul\":4975:5007   */\n      slt\n        /* \"#utility.yul\":4972:5091   */\n      iszero\n      tag_475\n      jumpi\n        /* \"#utility.yul\":5010:5089   */\n      tag_476\n      tag_447\n      jump\t// in\n    tag_476:\n        /* \"#utility.yul\":4972:5091   */\n    tag_475:\n        /* \"#utility.yul\":5130:5131   */\n      0x00\n        /* \"#utility.yul\":5155:5208   */\n      tag_477\n        /* \"#utility.yul\":5200:5207   */\n      dup6\n        /* \"#utility.yul\":5191:5197   */\n      dup3\n        /* \"#utility.yul\":5180:5189   */\n      dup7\n        /* \"#utility.yul\":5176:5198   */\n      add\n        /* \"#utility.yul\":5155:5208   */\n      tag_418\n      jump\t// in\n    tag_477:\n        /* \"#utility.yul\":5145:5208   */\n      swap3\n      pop\n        /* \"#utility.yul\":5101:5218   */\n      pop\n        /* \"#utility.yul\":5257:5259   */\n      0x20\n        /* \"#utility.yul\":5283:5333   */\n      tag_478\n        /* \"#utility.yul\":5325:5332   */\n      dup6\n        /* \"#utility.yul\":5316:5322   */\n      dup3\n        /* \"#utility.yul\":5305:5314   */\n      dup7\n        /* \"#utility.yul\":5301:5323   */\n      add\n        /* \"#utility.yul\":5283:5333   */\n      tag_425\n      jump\t// in\n    tag_478:\n        /* \"#utility.yul\":5273:5333   */\n      swap2\n      pop\n        /* \"#utility.yul\":5228:5343   */\n      pop\n        /* \"#utility.yul\":4882:5350   */\n      swap3\n      pop\n      swap3\n      swap1\n      pop\n      jump\t// out\n        /* \"#utility.yul\":5356:6335   */\n    tag_29:\n        /* \"#utility.yul\":5453:5459   */\n      0x00\n        /* \"#utility.yul\":5461:5467   */\n      dup1\n        /* \"#utility.yul\":5469:5475   */\n      0x00\n        /* \"#utility.yul\":5518:5520   */\n      0x60\n        /* \"#utility.yul\":5506:5515   */\n      dup5\n        /* \"#utility.yul\":5497:5504   */\n      dup7\n        /* \"#utility.yul\":5493:5516   */\n      sub\n        /* \"#utility.yul\":5489:5521   */\n      slt\n        /* \"#utility.yul\":5486:5605   */\n      iszero\n      tag_480\n      jumpi\n        /* \"#utility.yul\":5524:5603   */\n      tag_481\n      tag_447\n      jump\t// in\n    tag_481:\n        /* \"#utility.yul\":5486:5605   */\n    tag_480:\n        /* \"#utility.yul\":5644:5645   */\n      0x00\n        /* \"#utility.yul\":5669:5722   */\n      tag_482\n        /* \"#utility.yul\":5714:5721   */\n      dup7\n        /* \"#utility.yul\":5705:5711   */\n      dup3\n        /* \"#utility.yul\":5694:5703   */\n      dup8\n        /* \"#utility.yul\":5690:5712   */\n      add\n        /* \"#utility.yul\":5669:5722   */\n      tag_418\n      jump\t// in\n    tag_482:\n        /* \"#utility.yul\":5659:5722   */\n      swap4\n      pop\n        /* \"#utility.yul\":5615:5732   */\n      pop\n        /* \"#utility.yul\":5799:5801   */\n      0x20\n        /* \"#utility.yul\":5788:5797   */\n      dup5\n        /* \"#utility.yul\":5784:5802   */\n      add\n        /* \"#utility.yul\":5771:5803   */\n      calldataload\n        /* \"#utility.yul\":5830:5848   */\n      0xffffffffffffffff\n        /* \"#utility.yul\":5822:5828   */\n      dup2\n        /* \"#utility.yul\":5819:5849   */\n      gt\n        /* \"#utility.yul\":5816:5933   */\n      iszero\n      tag_483\n      jumpi\n        /* \"#utility.yul\":5852:5931   */\n      tag_484\n      tag_472\n      jump\t// in\n    tag_484:\n        /* \"#utility.yul\":5816:5933   */\n    tag_483:\n        /* \"#utility.yul\":5957:6020   */\n      tag_485\n        /* \"#utility.yul\":6012:6019   */\n      dup7\n        /* \"#utility.yul\":6003:6009   */\n      dup3\n        /* \"#utility.yul\":5992:6001   */\n      dup8\n        /* \"#utility.yul\":5988:6010   */\n      add\n        /* \"#utility.yul\":5957:6020   */\n      tag_435\n      jump\t// in\n    tag_485:\n        /* \"#utility.yul\":5947:6020   */\n      swap3\n      pop\n        /* \"#utility.yul\":5742:6030   */\n      pop\n        /* \"#utility.yul\":6097:6099   */\n      0x40\n        /* \"#utility.yul\":6086:6095   */\n      dup5\n        /* \"#utility.yul\":6082:6100   */\n      add\n        /* \"#utility.yul\":6069:6101   */\n      calldataload\n        /* \"#utility.yul\":6128:6146   */\n      0xffffffffffffffff\n        /* \"#utility.yul\":6120:6126   */\n      dup2\n        /* \"#utility.yul\":6117:6147   */\n      gt\n        /* \"#utility.yul\":6114:6231   */\n      iszero\n      tag_486\n      jumpi\n        /* \"#utility.yul\":6150:6229   */\n      tag_487\n      tag_472\n      jump\t// in\n    tag_487:\n        /* \"#utility.yul\":6114:6231   */\n    tag_486:\n        /* \"#utility.yul\":6255:6318   */\n      tag_488\n        /* \"#utility.yul\":6310:6317   */\n      dup7\n        /* \"#utility.yul\":6301:6307   */\n      dup3\n        /* \"#utility.yul\":6290:6299   */\n      dup8\n        /* \"#utility.yul\":6286:6308   */\n      add\n        /* \"#utility.yul\":6255:6318   */\n      tag_435\n      jump\t// in\n    tag_488:\n        /* \"#utility.yul\":6245:6318   */\n      swap2\n      pop\n        /* \"#utility.yul\":6040:6328   */\n      pop\n        /* \"#utility.yul\":5356:6335   */\n      swap3\n      pop\n      swap3\n      pop\n      swap3\n      jump\t// out\n        /* \"#utility.yul\":6341:6815   */\n    tag_42:\n        /* \"#utility.yul\":6409:6415   */\n      0x00\n        /* \"#utility.yul\":6417:6423   */\n      dup1\n        /* \"#utility.yul\":6466:6468   */\n      0x40\n        /* \"#utility.yul\":6454:6463   */\n      dup4\n        /* \"#utility.yul\":6445:6452   */\n      dup6\n        /* \"#utility.yul\":6441:6464   */\n      sub\n        /* \"#utility.yul\":6437:6469   */\n      slt\n        /* \"#utility.yul\":6434:6553   */\n      iszero\n      tag_490\n      jumpi\n        /* \"#utility.yul\":6472:6551   */\n      tag_491\n      tag_447\n      jump\t// in\n    tag_491:\n        /* \"#utility.yul\":6434:6553   */\n    tag_490:\n        /* \"#utility.yul\":6592:6593   */\n      0x00\n        /* \"#utility.yul\":6617:6670   */\n      tag_492\n        /* \"#utility.yul\":6662:6669   */\n      dup6\n        /* \"#utility.yul\":6653:6659   */\n      dup3\n        /* \"#utility.yul\":6642:6651   */\n      dup7\n        /* \"#utility.yul\":6638:6660   */\n      add\n        /* \"#utility.yul\":6617:6670   */\n      tag_418\n      jump\t// in\n    tag_492:\n        /* \"#utility.yul\":6607:6670   */\n      swap3\n      pop\n        /* \"#utility.yul\":6563:6680   */\n      pop\n        /* \"#utility.yul\":6719:6721   */\n      0x20\n        /* \"#utility.yul\":6745:6798   */\n      tag_493\n        /* \"#utility.yul\":6790:6797   */\n      dup6\n        /* \"#utility.yul\":6781:6787   */\n      dup3\n        /* \"#utility.yul\":6770:6779   */\n      dup7\n        /* \"#utility.yul\":6766:6788   */\n      add\n        /* \"#utility.yul\":6745:6798   */\n      tag_440\n      jump\t// in\n    tag_493:\n        /* \"#utility.yul\":6735:6798   */\n      swap2\n      pop\n        /* \"#utility.yul\":6690:6808   */\n      pop\n        /* \"#utility.yul\":6341:6815   */\n      swap3\n      pop\n      swap3\n      swap1\n      pop\n      jump\t// out\n        /* \"#utility.yul\":6821:7980   */\n    tag_58:\n        /* \"#utility.yul\":6928:6934   */\n      0x00\n        /* \"#utility.yul\":6936:6942   */\n      dup1\n        /* \"#utility.yul\":6944:6950   */\n      0x00\n        /* \"#utility.yul\":6993:6995   */\n      0x60\n        /* \"#utility.yul\":6981:6990   */\n      dup5\n        /* \"#utility.yul\":6972:6979   */\n      dup7\n        /* \"#utility.yul\":6968:6991   */\n      sub\n        /* \"#utility.yul\":6964:6996   */\n      slt\n        /* \"#utility.yul\":6961:7080   */\n      iszero\n      tag_495\n      jumpi\n        /* \"#utility.yul\":6999:7078   */\n      tag_496\n      tag_447\n      jump\t// in\n    tag_496:\n        /* \"#utility.yul\":6961:7080   */\n    tag_495:\n        /* \"#utility.yul\":7147:7148   */\n      0x00\n        /* \"#utility.yul\":7136:7145   */\n      dup5\n        /* \"#utility.yul\":7132:7149   */\n      add\n        /* \"#utility.yul\":7119:7150   */\n      calldataload\n        /* \"#utility.yul\":7177:7195   */\n      0xffffffffffffffff\n        /* \"#utility.yul\":7169:7175   */\n      dup2\n        /* \"#utility.yul\":7166:7196   */\n      gt\n        /* \"#utility.yul\":7163:7280   */\n      iszero\n      tag_497\n      jumpi\n        /* \"#utility.yul\":7199:7278   */\n      tag_498\n      tag_472\n      jump\t// in\n    tag_498:\n        /* \"#utility.yul\":7163:7280   */\n    tag_497:\n        /* \"#utility.yul\":7304:7367   */\n      tag_499\n        /* \"#utility.yul\":7359:7366   */\n      dup7\n        /* \"#utility.yul\":7350:7356   */\n      dup3\n        /* \"#utility.yul\":7339:7348   */\n      dup8\n        /* \"#utility.yul\":7335:7357   */\n      add\n        /* \"#utility.yul\":7304:7367   */\n      tag_435\n      jump\t// in\n    tag_499:\n        /* \"#utility.yul\":7294:7367   */\n      swap4\n      pop\n        /* \"#utility.yul\":7090:7377   */\n      pop\n        /* \"#utility.yul\":7444:7446   */\n      0x20\n        /* \"#utility.yul\":7433:7442   */\n      dup5\n        /* \"#utility.yul\":7429:7447   */\n      add\n        /* \"#utility.yul\":7416:7448   */\n      calldataload\n        /* \"#utility.yul\":7475:7493   */\n      0xffffffffffffffff\n        /* \"#utility.yul\":7467:7473   */\n      dup2\n        /* \"#utility.yul\":7464:7494   */\n      gt\n        /* \"#utility.yul\":7461:7578   */\n      iszero\n      tag_500\n      jumpi\n        /* \"#utility.yul\":7497:7576   */\n      tag_501\n      tag_472\n      jump\t// in\n    tag_501:\n        /* \"#utility.yul\":7461:7578   */\n    tag_500:\n        /* \"#utility.yul\":7602:7665   */\n      tag_502\n        /* \"#utility.yul\":7657:7664   */\n      dup7\n        /* \"#utility.yul\":7648:7654   */\n      dup3\n        /* \"#utility.yul\":7637:7646   */\n      dup8\n        /* \"#utility.yul\":7633:7655   */\n      add\n        /* \"#utility.yul\":7602:7665   */\n      tag_435\n      jump\t// in\n    tag_502:\n        /* \"#utility.yul\":7592:7665   */\n      swap3\n      pop\n        /* \"#utility.yul\":7387:7675   */\n      pop\n        /* \"#utility.yul\":7742:7744   */\n      0x40\n        /* \"#utility.yul\":7731:7740   */\n      dup5\n        /* \"#utility.yul\":7727:7745   */\n      add\n        /* \"#utility.yul\":7714:7746   */\n      calldataload\n        /* \"#utility.yul\":7773:7791   */\n      0xffffffffffffffff\n        /* \"#utility.yul\":7765:7771   */\n      dup2\n        /* \"#utility.yul\":7762:7792   */\n      gt\n        /* \"#utility.yul\":7759:7876   */\n      iszero\n      tag_503\n      jumpi\n        /* \"#utility.yul\":7795:7874   */\n      tag_504\n      tag_472\n      jump\t// in\n    tag_504:\n        /* \"#utility.yul\":7759:7876   */\n    tag_503:\n        /* \"#utility.yul\":7900:7963   */\n      tag_505\n        /* \"#utility.yul\":7955:7962   */\n      dup7\n        /* \"#utility.yul\":7946:7952   */\n      dup3\n        /* \"#utility.yul\":7935:7944   */\n      dup8\n        /* \"#utility.yul\":7931:7953   */\n      add\n        /* \"#utility.yul\":7900:7963   */\n      tag_435\n      jump\t// in\n    tag_505:\n        /* \"#utility.yul\":7890:7963   */\n      swap2\n      pop\n        /* \"#utility.yul\":7685:7973   */\n      pop\n        /* \"#utility.yul\":6821:7980   */\n      swap3\n      pop\n      swap3\n      pop\n      swap3\n      jump\t// out\n        /* \"#utility.yul\":7986:8315   */\n    tag_36:\n        /* \"#utility.yul\":8045:8051   */\n      0x00\n        /* \"#utility.yul\":8094:8096   */\n      0x20\n        /* \"#utility.yul\":8082:8091   */\n      dup3\n        /* \"#utility.yul\":8073:8080   */\n      dup5\n        /* \"#utility.yul\":8069:8092   */\n      sub\n        /* \"#utility.yul\":8065:8097   */\n      slt\n        /* \"#utility.yul\":8062:8181   */\n      iszero\n      tag_507\n      jumpi\n        /* \"#utility.yul\":8100:8179   */\n      tag_508\n      tag_447\n      jump\t// in\n    tag_508:\n        /* \"#utility.yul\":8062:8181   */\n    tag_507:\n        /* \"#utility.yul\":8220:8221   */\n      0x00\n        /* \"#utility.yul\":8245:8298   */\n      tag_509\n        /* \"#utility.yul\":8290:8297   */\n      dup5\n        /* \"#utility.yul\":8281:8287   */\n      dup3\n        /* \"#utility.yul\":8270:8279   */\n      dup6\n        /* \"#utility.yul\":8266:8288   */\n      add\n        /* \"#utility.yul\":8245:8298   */\n      tag_440\n      jump\t// in\n    tag_509:\n        /* \"#utility.yul\":8235:8298   */\n      swap2\n      pop\n        /* \"#utility.yul\":8191:8308   */\n      pop\n        /* \"#utility.yul\":7986:8315   */\n      swap3\n      swap2\n      pop\n      pop\n      jump\t// out\n        /* \"#utility.yul\":8321:8439   */\n    tag_510:\n        /* \"#utility.yul\":8408:8432   */\n      tag_512\n        /* \"#utility.yul\":8426:8431   */\n      dup2\n        /* \"#utility.yul\":8408:8432   */\n      tag_513\n      jump\t// in\n    tag_512:\n        /* \"#utility.yul\":8403:8406   */\n      dup3\n        /* \"#utility.yul\":8396:8433   */\n      mstore\n        /* \"#utility.yul\":8321:8439   */\n      pop\n      pop\n      jump\t// out\n        /* \"#utility.yul\":8445:8554   */\n    tag_514:\n        /* \"#utility.yul\":8526:8547   */\n      tag_516\n        /* \"#utility.yul\":8541:8546   */\n      dup2\n        /* \"#utility.yul\":8526:8547   */\n      tag_517\n      jump\t// in\n    tag_516:\n        /* \"#utility.yul\":8521:8524   */\n      dup3\n        /* \"#utility.yul\":8514:8548   */\n      mstore\n        /* \"#utility.yul\":8445:8554   */\n      pop\n      pop\n      jump\t// out\n        /* \"#utility.yul\":8560:8924   */\n    tag_518:\n        /* \"#utility.yul\":8648:8651   */\n      0x00\n        /* \"#utility.yul\":8676:8715   */\n      tag_520\n        /* \"#utility.yul\":8709:8714   */\n      dup3\n        /* \"#utility.yul\":8676:8715   */\n      tag_521\n      jump\t// in\n    tag_520:\n        /* \"#utility.yul\":8731:8802   */\n      tag_522\n        /* \"#utility.yul\":8795:8801   */\n      dup2\n        /* \"#utility.yul\":8790:8793   */\n      dup6\n        /* \"#utility.yul\":8731:8802   */\n      tag_523\n      jump\t// in\n    tag_522:\n        /* \"#utility.yul\":8724:8802   */\n      swap4\n      pop\n        /* \"#utility.yul\":8811:8863   */\n      tag_524\n        /* \"#utility.yul\":8856:8862   */\n      dup2\n        /* \"#utility.yul\":8851:8854   */\n      dup6\n        /* \"#utility.yul\":8844:8848   */\n      0x20\n        /* \"#utility.yul\":8837:8842   */\n      dup7\n        /* \"#utility.yul\":8833:8849   */\n      add\n        /* \"#utility.yul\":8811:8863   */\n      tag_525\n      jump\t// in\n    tag_524:\n        /* \"#utility.yul\":8888:8917   */\n      tag_526\n        /* \"#utility.yul\":8910:8916   */\n      dup2\n        /* \"#utility.yul\":8888:8917   */\n      tag_527\n      jump\t// in\n    tag_526:\n        /* \"#utility.yul\":8883:8886   */\n      dup5\n        /* \"#utility.yul\":8879:8918   */\n      add\n        /* \"#utility.yul\":8872:8918   */\n      swap2\n      pop\n        /* \"#utility.yul\":8652:8924   */\n      pop\n        /* \"#utility.yul\":8560:8924   */\n      swap3\n      swap2\n      pop\n      pop\n      jump\t// out\n        /* \"#utility.yul\":8954:9756   */\n    tag_528:\n        /* \"#utility.yul\":9039:9042   */\n      0x00\n        /* \"#utility.yul\":9076:9081   */\n      dup2\n        /* \"#utility.yul\":9070:9082   */\n      sload\n        /* \"#utility.yul\":9105:9141   */\n      tag_530\n        /* \"#utility.yul\":9131:9140   */\n      dup2\n        /* \"#utility.yul\":9105:9141   */\n      tag_324\n      jump\t// in\n    tag_530:\n        /* \"#utility.yul\":9157:9228   */\n      tag_531\n        /* \"#utility.yul\":9221:9227   */\n      dup2\n        /* \"#utility.yul\":9216:9219   */\n      dup7\n        /* \"#utility.yul\":9157:9228   */\n      tag_523\n      jump\t// in\n    tag_531:\n        /* \"#utility.yul\":9150:9228   */\n      swap5\n      pop\n        /* \"#utility.yul\":9259:9260   */\n      0x01\n        /* \"#utility.yul\":9248:9257   */\n      dup3\n        /* \"#utility.yul\":9244:9261   */\n      and\n        /* \"#utility.yul\":9275:9276   */\n      0x00\n        /* \"#utility.yul\":9270:9405   */\n      dup2\n      eq\n      tag_533\n      jumpi\n        /* \"#utility.yul\":9419:9420   */\n      0x01\n        /* \"#utility.yul\":9414:9750   */\n      dup2\n      eq\n      tag_534\n      jumpi\n        /* \"#utility.yul\":9237:9750   */\n      jump(tag_532)\n        /* \"#utility.yul\":9270:9405   */\n    tag_533:\n        /* \"#utility.yul\":9354:9358   */\n      0xff\n        /* \"#utility.yul\":9350:9359   */\n      not\n        /* \"#utility.yul\":9339:9348   */\n      dup4\n        /* \"#utility.yul\":9335:9360   */\n      and\n        /* \"#utility.yul\":9330:9333   */\n      dup7\n        /* \"#utility.yul\":9323:9361   */\n      mstore\n        /* \"#utility.yul\":9390:9394   */\n      0x20\n        /* \"#utility.yul\":9385:9388   */\n      dup7\n        /* \"#utility.yul\":9381:9395   */\n      add\n        /* \"#utility.yul\":9374:9395   */\n      swap4\n      pop\n        /* \"#utility.yul\":9270:9405   */\n      jump(tag_532)\n        /* \"#utility.yul\":9414:9750   */\n    tag_534:\n        /* \"#utility.yul\":9481:9519   */\n      tag_535\n        /* \"#utility.yul\":9513:9518   */\n      dup6\n        /* \"#utility.yul\":9481:9519   */\n      tag_536\n      jump\t// in\n    tag_535:\n        /* \"#utility.yul\":9541:9542   */\n      0x00\n        /* \"#utility.yul\":9555:9709   */\n    tag_537:\n        /* \"#utility.yul\":9569:9575   */\n      dup4\n        /* \"#utility.yul\":9566:9567   */\n      dup2\n        /* \"#utility.yul\":9563:9576   */\n      lt\n        /* \"#utility.yul\":9555:9709   */\n      iszero\n      tag_539\n      jumpi\n        /* \"#utility.yul\":9643:9650   */\n      dup2\n        /* \"#utility.yul\":9637:9651   */\n      sload\n        /* \"#utility.yul\":9633:9634   */\n      dup2\n        /* \"#utility.yul\":9628:9631   */\n      dup10\n        /* \"#utility.yul\":9624:9635   */\n      add\n        /* \"#utility.yul\":9617:9652   */\n      mstore\n        /* \"#utility.yul\":9693:9694   */\n      0x01\n        /* \"#utility.yul\":9684:9691   */\n      dup3\n        /* \"#utility.yul\":9680:9695   */\n      add\n        /* \"#utility.yul\":9669:9695   */\n      swap2\n      pop\n        /* \"#utility.yul\":9591:9595   */\n      0x20\n        /* \"#utility.yul\":9588:9589   */\n      dup2\n        /* \"#utility.yul\":9584:9596   */\n      add\n        /* \"#utility.yul\":9579:9596   */\n      swap1\n      pop\n        /* \"#utility.yul\":9555:9709   */\n      jump(tag_537)\n    tag_539:\n        /* \"#utility.yul\":9738:9739   */\n      dup1\n        /* \"#utility.yul\":9733:9736   */\n      dup9\n        /* \"#utility.yul\":9729:9740   */\n      add\n        /* \"#utility.yul\":9722:9740   */\n      swap6\n      pop\n        /* \"#utility.yul\":9421:9750   */\n      pop\n      pop\n        /* \"#utility.yul\":9237:9750   */\n    tag_532:\n      pop\n        /* \"#utility.yul\":9043:9756   */\n      pop\n      pop\n        /* \"#utility.yul\":8954:9756   */\n      swap3\n      swap2\n      pop\n      pop\n      jump\t// out\n        /* \"#utility.yul\":9762:10128   */\n    tag_540:\n        /* \"#utility.yul\":9904:9907   */\n      0x00\n        /* \"#utility.yul\":9925:9992   */\n      tag_542\n        /* \"#utility.yul\":9989:9991   */\n      0x28\n        /* \"#utility.yul\":9984:9987   */\n      dup4\n        /* \"#utility.yul\":9925:9992   */\n      tag_523\n      jump\t// in\n    tag_542:\n        /* \"#utility.yul\":9918:9992   */\n      swap2\n      pop\n        /* \"#utility.yul\":10001:10094   */\n      tag_543\n        /* \"#utility.yul\":10090:10093   */\n      dup3\n        /* \"#utility.yul\":10001:10094   */\n      tag_544\n      jump\t// in\n    tag_543:\n        /* \"#utility.yul\":10119:10121   */\n      0x40\n        /* \"#utility.yul\":10114:10117   */\n      dup3\n        /* \"#utility.yul\":10110:10122   */\n      add\n        /* \"#utility.yul\":10103:10122   */\n      swap1\n      pop\n        /* \"#utility.yul\":9762:10128   */\n      swap2\n      swap1\n      pop\n      jump\t// out\n        /* \"#utility.yul\":10134:10500   */\n    tag_545:\n        /* \"#utility.yul\":10276:10279   */\n      0x00\n        /* \"#utility.yul\":10297:10364   */\n      tag_547\n        /* \"#utility.yul\":10361:10363   */\n      0x26\n        /* \"#utility.yul\":10356:10359   */\n      dup4\n        /* \"#utility.yul\":10297:10364   */\n      tag_523\n      jump\t// in\n    tag_547:\n        /* \"#utility.yul\":10290:10364   */\n      swap2\n      pop\n        /* \"#utility.yul\":10373:10466   */\n      tag_548\n        /* \"#utility.yul\":10462:10465   */\n      dup3\n        /* \"#utility.yul\":10373:10466   */\n      tag_549\n      jump\t// in\n    tag_548:\n        /* \"#utility.yul\":10491:10493   */\n      0x40\n        /* \"#utility.yul\":10486:10489   */\n      dup3\n        /* \"#utility.yul\":10482:10494   */\n      add\n        /* \"#utility.yul\":10475:10494   */\n      swap1\n      pop\n        /* \"#utility.yul\":10134:10500   */\n      swap2\n      swap1\n      pop\n      jump\t// out\n        /* \"#utility.yul\":10506:10872   */\n    tag_550:\n        /* \"#utility.yul\":10648:10651   */\n      0x00\n        /* \"#utility.yul\":10669:10736   */\n      tag_552\n        /* \"#utility.yul\":10733:10735   */\n      0x32\n        /* \"#utility.yul\":10728:10731   */\n      dup4\n        /* \"#utility.yul\":10669:10736   */\n      tag_523\n      jump\t// in\n    tag_552:\n        /* \"#utility.yul\":10662:10736   */\n      swap2\n      pop\n        /* \"#utility.yul\":10745:10838   */\n      tag_553\n        /* \"#utility.yul\":10834:10837   */\n      dup3\n        /* \"#utility.yul\":10745:10838   */\n      tag_554\n      jump\t// in\n    tag_553:\n        /* \"#utility.yul\":10863:10865   */\n      0x40\n        /* \"#utility.yul\":10858:10861   */\n      dup3\n        /* \"#utility.yul\":10854:10866   */\n      add\n        /* \"#utility.yul\":10847:10866   */\n      swap1\n      pop\n        /* \"#utility.yul\":10506:10872   */\n      swap2\n      swap1\n      pop\n      jump\t// out\n        /* \"#utility.yul\":10878:11244   */\n    tag_555:\n        /* \"#utility.yul\":11020:11023   */\n      0x00\n        /* \"#utility.yul\":11041:11108   */\n      tag_557\n        /* \"#utility.yul\":11105:11107   */\n      0x20\n        /* \"#utility.yul\":11100:11103   */\n      dup4\n        /* \"#utility.yul\":11041:11108   */\n      tag_523\n      jump\t// in\n    tag_557:\n        /* \"#utility.yul\":11034:11108   */\n      swap2\n      pop\n        /* \"#utility.yul\":11117:11210   */\n      tag_558\n        /* \"#utility.yul\":11206:11209   */\n      dup3\n        /* \"#utility.yul\":11117:11210   */\n      tag_559\n      jump\t// in\n    tag_558:\n        /* \"#utility.yul\":11235:11237   */\n      0x20\n        /* \"#utility.yul\":11230:11233   */\n      dup3\n        /* \"#utility.yul\":11226:11238   */\n      add\n        /* \"#utility.yul\":11219:11238   */\n      swap1\n      pop\n        /* \"#utility.yul\":10878:11244   */\n      swap2\n      swap1\n      pop\n      jump\t// out\n        /* \"#utility.yul\":11250:11616   */\n    tag_560:\n        /* \"#utility.yul\":11392:11395   */\n      0x00\n        /* \"#utility.yul\":11413:11480   */\n      tag_562\n        /* \"#utility.yul\":11477:11479   */\n      0x15\n        /* \"#utility.yul\":11472:11475   */\n      dup4\n        /* \"#utility.yul\":11413:11480   */\n      tag_523\n      jump\t// in\n    tag_562:\n        /* \"#utility.yul\":11406:11480   */\n      swap2\n      pop\n        /* \"#utility.yul\":11489:11582   */\n      tag_563\n        /* \"#utility.yul\":11578:11581   */\n      dup3\n        /* \"#utility.yul\":11489:11582   */\n      tag_564\n      jump\t// in\n    tag_563:\n        /* \"#utility.yul\":11607:11609   */\n      0x20\n        /* \"#utility.yul\":11602:11605   */\n      dup3\n        /* \"#utility.yul\":11598:11610   */\n      add\n        /* \"#utility.yul\":11591:11610   */\n      swap1\n      pop\n        /* \"#utility.yul\":11250:11616   */\n      swap2\n      swap1\n      pop\n      jump\t// out\n        /* \"#utility.yul\":11622:11740   */\n    tag_565:\n        /* \"#utility.yul\":11709:11733   */\n      tag_567\n        /* \"#utility.yul\":11727:11732   */\n      dup2\n        /* \"#utility.yul\":11709:11733   */\n      tag_568\n      jump\t// in\n    tag_567:\n        /* \"#utility.yul\":11704:11707   */\n      dup3\n        /* \"#utility.yul\":11697:11734   */\n      mstore\n        /* \"#utility.yul\":11622:11740   */\n      pop\n      pop\n      jump\t// out\n        /* \"#utility.yul\":11746:11903   */\n    tag_569:\n        /* \"#utility.yul\":11851:11896   */\n      tag_571\n        /* \"#utility.yul\":11871:11895   */\n      tag_572\n        /* \"#utility.yul\":11889:11894   */\n      dup3\n        /* \"#utility.yul\":11871:11895   */\n      tag_568\n      jump\t// in\n    tag_572:\n        /* \"#utility.yul\":11851:11896   */\n      tag_573\n      jump\t// in\n    tag_571:\n        /* \"#utility.yul\":11846:11849   */\n      dup3\n        /* \"#utility.yul\":11839:11897   */\n      mstore\n        /* \"#utility.yul\":11746:11903   */\n      pop\n      pop\n      jump\t// out\n        /* \"#utility.yul\":11909:12024   */\n    tag_574:\n        /* \"#utility.yul\":11994:12017   */\n      tag_576\n        /* \"#utility.yul\":12011:12016   */\n      dup2\n        /* \"#utility.yul\":11994:12017   */\n      tag_577\n      jump\t// in\n    tag_576:\n        /* \"#utility.yul\":11989:11992   */\n      dup3\n        /* \"#utility.yul\":11982:12018   */\n      mstore\n        /* \"#utility.yul\":11909:12024   */\n      pop\n      pop\n      jump\t// out\n        /* \"#utility.yul\":12030:12568   */\n    tag_199:\n        /* \"#utility.yul\":12198:12201   */\n      0x00\n        /* \"#utility.yul\":12213:12288   */\n      tag_579\n        /* \"#utility.yul\":12284:12287   */\n      dup3\n        /* \"#utility.yul\":12275:12281   */\n      dup7\n        /* \"#utility.yul\":12213:12288   */\n      tag_569\n      jump\t// in\n    tag_579:\n        /* \"#utility.yul\":12313:12315   */\n      0x20\n        /* \"#utility.yul\":12308:12311   */\n      dup3\n        /* \"#utility.yul\":12304:12316   */\n      add\n        /* \"#utility.yul\":12297:12316   */\n      swap2\n      pop\n        /* \"#utility.yul\":12326:12401   */\n      tag_580\n        /* \"#utility.yul\":12397:12400   */\n      dup3\n        /* \"#utility.yul\":12388:12394   */\n      dup6\n        /* \"#utility.yul\":12326:12401   */\n      tag_569\n      jump\t// in\n    tag_580:\n        /* \"#utility.yul\":12426:12428   */\n      0x20\n        /* \"#utility.yul\":12421:12424   */\n      dup3\n        /* \"#utility.yul\":12417:12429   */\n      add\n        /* \"#utility.yul\":12410:12429   */\n      swap2\n      pop\n        /* \"#utility.yul\":12439:12514   */\n      tag_581\n        /* \"#utility.yul\":12510:12513   */\n      dup3\n        /* \"#utility.yul\":12501:12507   */\n      dup5\n        /* \"#utility.yul\":12439:12514   */\n      tag_569\n      jump\t// in\n    tag_581:\n        /* \"#utility.yul\":12539:12541   */\n      0x20\n        /* \"#utility.yul\":12534:12537   */\n      dup3\n        /* \"#utility.yul\":12530:12542   */\n      add\n        /* \"#utility.yul\":12523:12542   */\n      swap2\n      pop\n        /* \"#utility.yul\":12559:12562   */\n      dup2\n        /* \"#utility.yul\":12552:12562   */\n      swap1\n      pop\n        /* \"#utility.yul\":12030:12568   */\n      swap5\n      swap4\n      pop\n      pop\n      pop\n      pop\n      jump\t// out\n        /* \"#utility.yul\":12574:12796   */\n    tag_39:\n        /* \"#utility.yul\":12667:12671   */\n      0x00\n        /* \"#utility.yul\":12705:12707   */\n      0x20\n        /* \"#utility.yul\":12694:12703   */\n      dup3\n        /* \"#utility.yul\":12690:12708   */\n      add\n        /* \"#utility.yul\":12682:12708   */\n      swap1\n      pop\n        /* \"#utility.yul\":12718:12789   */\n      tag_583\n        /* \"#utility.yul\":12786:12787   */\n      0x00\n        /* \"#utility.yul\":12775:12784   */\n      dup4\n        /* \"#utility.yul\":12771:12788   */\n      add\n        /* \"#utility.yul\":12762:12768   */\n      dup5\n        /* \"#utility.yul\":12718:12789   */\n      tag_510\n      jump\t// in\n    tag_583:\n        /* \"#utility.yul\":12574:12796   */\n      swap3\n      swap2\n      pop\n      pop\n      jump\t// out\n        /* \"#utility.yul\":12802:14068   */\n    tag_116:\n        /* \"#utility.yul\":13149:13153   */\n      0x00\n        /* \"#utility.yul\":13187:13190   */\n      0x0100\n        /* \"#utility.yul\":13176:13185   */\n      dup3\n        /* \"#utility.yul\":13172:13191   */\n      add\n        /* \"#utility.yul\":13164:13191   */\n      swap1\n      pop\n        /* \"#utility.yul\":13201:13272   */\n      tag_585\n        /* \"#utility.yul\":13269:13270   */\n      0x00\n        /* \"#utility.yul\":13258:13267   */\n      dup4\n        /* \"#utility.yul\":13254:13271   */\n      add\n        /* \"#utility.yul\":13245:13251   */\n      dup12\n        /* \"#utility.yul\":13201:13272   */\n      tag_510\n      jump\t// in\n    tag_585:\n        /* \"#utility.yul\":13319:13328   */\n      dup2\n        /* \"#utility.yul\":13313:13317   */\n      dup2\n        /* \"#utility.yul\":13309:13329   */\n      sub\n        /* \"#utility.yul\":13304:13306   */\n      0x20\n        /* \"#utility.yul\":13293:13302   */\n      dup4\n        /* \"#utility.yul\":13289:13307   */\n      add\n        /* \"#utility.yul\":13282:13330   */\n      mstore\n        /* \"#utility.yul\":13347:13425   */\n      tag_586\n        /* \"#utility.yul\":13420:13424   */\n      dup2\n        /* \"#utility.yul\":13411:13417   */\n      dup11\n        /* \"#utility.yul\":13347:13425   */\n      tag_518\n      jump\t// in\n    tag_586:\n        /* \"#utility.yul\":13339:13425   */\n      swap1\n      pop\n        /* \"#utility.yul\":13472:13481   */\n      dup2\n        /* \"#utility.yul\":13466:13470   */\n      dup2\n        /* \"#utility.yul\":13462:13482   */\n      sub\n        /* \"#utility.yul\":13457:13459   */\n      0x40\n        /* \"#utility.yul\":13446:13455   */\n      dup4\n        /* \"#utility.yul\":13442:13460   */\n      add\n        /* \"#utility.yul\":13435:13483   */\n      mstore\n        /* \"#utility.yul\":13500:13578   */\n      tag_587\n        /* \"#utility.yul\":13573:13577   */\n      dup2\n        /* \"#utility.yul\":13564:13570   */\n      dup10\n        /* \"#utility.yul\":13500:13578   */\n      tag_518\n      jump\t// in\n    tag_587:\n        /* \"#utility.yul\":13492:13578   */\n      swap1\n      pop\n        /* \"#utility.yul\":13625:13634   */\n      dup2\n        /* \"#utility.yul\":13619:13623   */\n      dup2\n        /* \"#utility.yul\":13615:13635   */\n      sub\n        /* \"#utility.yul\":13610:13612   */\n      0x60\n        /* \"#utility.yul\":13599:13608   */\n      dup4\n        /* \"#utility.yul\":13595:13613   */\n      add\n        /* \"#utility.yul\":13588:13636   */\n      mstore\n        /* \"#utility.yul\":13653:13731   */\n      tag_588\n        /* \"#utility.yul\":13726:13730   */\n      dup2\n        /* \"#utility.yul\":13717:13723   */\n      dup9\n        /* \"#utility.yul\":13653:13731   */\n      tag_518\n      jump\t// in\n    tag_588:\n        /* \"#utility.yul\":13645:13731   */\n      swap1\n      pop\n        /* \"#utility.yul\":13741:13814   */\n      tag_589\n        /* \"#utility.yul\":13809:13812   */\n      0x80\n        /* \"#utility.yul\":13798:13807   */\n      dup4\n        /* \"#utility.yul\":13794:13813   */\n      add\n        /* \"#utility.yul\":13785:13791   */\n      dup8\n        /* \"#utility.yul\":13741:13814   */\n      tag_565\n      jump\t// in\n    tag_589:\n        /* \"#utility.yul\":13824:13897   */\n      tag_590\n        /* \"#utility.yul\":13892:13895   */\n      0xa0\n        /* \"#utility.yul\":13881:13890   */\n      dup4\n        /* \"#utility.yul\":13877:13896   */\n      add\n        /* \"#utility.yul\":13868:13874   */\n      dup7\n        /* \"#utility.yul\":13824:13897   */\n      tag_565\n      jump\t// in\n    tag_590:\n        /* \"#utility.yul\":13907:13980   */\n      tag_591\n        /* \"#utility.yul\":13975:13978   */\n      0xc0\n        /* \"#utility.yul\":13964:13973   */\n      dup4\n        /* \"#utility.yul\":13960:13979   */\n      add\n        /* \"#utility.yul\":13951:13957   */\n      dup6\n        /* \"#utility.yul\":13907:13980   */\n      tag_565\n      jump\t// in\n    tag_591:\n        /* \"#utility.yul\":13990:14061   */\n      tag_592\n        /* \"#utility.yul\":14056:14059   */\n      0xe0\n        /* \"#utility.yul\":14045:14054   */\n      dup4\n        /* \"#utility.yul\":14041:14060   */\n      add\n        /* \"#utility.yul\":14032:14038   */\n      dup5\n        /* \"#utility.yul\":13990:14061   */\n      tag_574\n      jump\t// in\n    tag_592:\n        /* \"#utility.yul\":12802:14068   */\n      swap10\n      swap9\n      pop\n      pop\n      pop\n      pop\n      pop\n      pop\n      pop\n      pop\n      pop\n      jump\t// out\n        /* \"#utility.yul\":14074:14284   */\n    tag_127:\n        /* \"#utility.yul\":14161:14165   */\n      0x00\n        /* \"#utility.yul\":14199:14201   */\n      0x20\n        /* \"#utility.yul\":14188:14197   */\n      dup3\n        /* \"#utility.yul\":14184:14202   */\n      add\n        /* \"#utility.yul\":14176:14202   */\n      swap1\n      pop\n        /* \"#utility.yul\":14212:14277   */\n      tag_594\n        /* \"#utility.yul\":14274:14275   */\n      0x00\n        /* \"#utility.yul\":14263:14272   */\n      dup4\n        /* \"#utility.yul\":14259:14276   */\n      add\n        /* \"#utility.yul\":14250:14256   */\n      dup5\n        /* \"#utility.yul\":14212:14277   */\n      tag_514\n      jump\t// in\n    tag_594:\n        /* \"#utility.yul\":14074:14284   */\n      swap3\n      swap2\n      pop\n      pop\n      jump\t// out\n        /* \"#utility.yul\":14290:14603   */\n    tag_32:\n        /* \"#utility.yul\":14403:14407   */\n      0x00\n        /* \"#utility.yul\":14441:14443   */\n      0x20\n        /* \"#utility.yul\":14430:14439   */\n      dup3\n        /* \"#utility.yul\":14426:14444   */\n      add\n        /* \"#utility.yul\":14418:14444   */\n      swap1\n      pop\n        /* \"#utility.yul\":14490:14499   */\n      dup2\n        /* \"#utility.yul\":14484:14488   */\n      dup2\n        /* \"#utility.yul\":14480:14500   */\n      sub\n        /* \"#utility.yul\":14476:14477   */\n      0x00\n        /* \"#utility.yul\":14465:14474   */\n      dup4\n        /* \"#utility.yul\":14461:14478   */\n      add\n        /* \"#utility.yul\":14454:14501   */\n      mstore\n        /* \"#utility.yul\":14518:14596   */\n      tag_596\n        /* \"#utility.yul\":14591:14595   */\n      dup2\n        /* \"#utility.yul\":14582:14588   */\n      dup5\n        /* \"#utility.yul\":14518:14596   */\n      tag_518\n      jump\t// in\n    tag_596:\n        /* \"#utility.yul\":14510:14596   */\n      swap1\n      pop\n        /* \"#utility.yul\":14290:14603   */\n      swap3\n      swap2\n      pop\n      pop\n      jump\t// out\n        /* \"#utility.yul\":14609:15439   */\n    tag_363:\n        /* \"#utility.yul\":14846:14850   */\n      0x00\n        /* \"#utility.yul\":14884:14887   */\n      0xa0\n        /* \"#utility.yul\":14873:14882   */\n      dup3\n        /* \"#utility.yul\":14869:14888   */\n      add\n        /* \"#utility.yul\":14861:14888   */\n      swap1\n      pop\n        /* \"#utility.yul\":14934:14943   */\n      dup2\n        /* \"#utility.yul\":14928:14932   */\n      dup2\n        /* \"#utility.yul\":14924:14944   */\n      sub\n        /* \"#utility.yul\":14920:14921   */\n      0x00\n        /* \"#utility.yul\":14909:14918   */\n      dup4\n        /* \"#utility.yul\":14905:14922   */\n      add\n        /* \"#utility.yul\":14898:14945   */\n      mstore\n        /* \"#utility.yul\":14962:15037   */\n      tag_598\n        /* \"#utility.yul\":15032:15036   */\n      dup2\n        /* \"#utility.yul\":15023:15029   */\n      dup9\n        /* \"#utility.yul\":14962:15037   */\n      tag_528\n      jump\t// in\n    tag_598:\n        /* \"#utility.yul\":14954:15037   */\n      swap1\n      pop\n        /* \"#utility.yul\":15084:15093   */\n      dup2\n        /* \"#utility.yul\":15078:15082   */\n      dup2\n        /* \"#utility.yul\":15074:15094   */\n      sub\n        /* \"#utility.yul\":15069:15071   */\n      0x20\n        /* \"#utility.yul\":15058:15067   */\n      dup4\n        /* \"#utility.yul\":15054:15072   */\n      add\n        /* \"#utility.yul\":15047:15095   */\n      mstore\n        /* \"#utility.yul\":15112:15187   */\n      tag_599\n        /* \"#utility.yul\":15182:15186   */\n      dup2\n        /* \"#utility.yul\":15173:15179   */\n      dup8\n        /* \"#utility.yul\":15112:15187   */\n      tag_528\n      jump\t// in\n    tag_599:\n        /* \"#utility.yul\":15104:15187   */\n      swap1\n      pop\n        /* \"#utility.yul\":15197:15267   */\n      tag_600\n        /* \"#utility.yul\":15263:15265   */\n      0x40\n        /* \"#utility.yul\":15252:15261   */\n      dup4\n        /* \"#utility.yul\":15248:15266   */\n      add\n        /* \"#utility.yul\":15239:15245   */\n      dup7\n        /* \"#utility.yul\":15197:15267   */\n      tag_574\n      jump\t// in\n    tag_600:\n        /* \"#utility.yul\":15277:15349   */\n      tag_601\n        /* \"#utility.yul\":15345:15347   */\n      0x60\n        /* \"#utility.yul\":15334:15343   */\n      dup4\n        /* \"#utility.yul\":15330:15348   */\n      add\n        /* \"#utility.yul\":15321:15327   */\n      dup6\n        /* \"#utility.yul\":15277:15349   */\n      tag_565\n      jump\t// in\n    tag_601:\n        /* \"#utility.yul\":15359:15432   */\n      tag_602\n        /* \"#utility.yul\":15427:15430   */\n      0x80\n        /* \"#utility.yul\":15416:15425   */\n      dup4\n        /* \"#utility.yul\":15412:15431   */\n      add\n        /* \"#utility.yul\":15403:15409   */\n      dup5\n        /* \"#utility.yul\":15359:15432   */\n      tag_565\n      jump\t// in\n    tag_602:\n        /* \"#utility.yul\":14609:15439   */\n      swap7\n      swap6\n      pop\n      pop\n      pop\n      pop\n      pop\n      pop\n      jump\t// out\n        /* \"#utility.yul\":15445:15864   */\n    tag_162:\n        /* \"#utility.yul\":15611:15615   */\n      0x00\n        /* \"#utility.yul\":15649:15651   */\n      0x20\n        /* \"#utility.yul\":15638:15647   */\n      dup3\n        /* \"#utility.yul\":15634:15652   */\n      add\n        /* \"#utility.yul\":15626:15652   */\n      swap1\n      pop\n        /* \"#utility.yul\":15698:15707   */\n      dup2\n        /* \"#utility.yul\":15692:15696   */\n      dup2\n        /* \"#utility.yul\":15688:15708   */\n      sub\n        /* \"#utility.yul\":15684:15685   */\n      0x00\n        /* \"#utility.yul\":15673:15682   */\n      dup4\n        /* \"#utility.yul\":15669:15686   */\n      add\n        /* \"#utility.yul\":15662:15709   */\n      mstore\n        /* \"#utility.yul\":15726:15857   */\n      tag_604\n        /* \"#utility.yul\":15852:15856   */\n      dup2\n        /* \"#utility.yul\":15726:15857   */\n      tag_540\n      jump\t// in\n    tag_604:\n        /* \"#utility.yul\":15718:15857   */\n      swap1\n      pop\n        /* \"#utility.yul\":15445:15864   */\n      swap2\n      swap1\n      pop\n      jump\t// out\n        /* \"#utility.yul\":15870:16289   */\n    tag_374:\n        /* \"#utility.yul\":16036:16040   */\n      0x00\n        /* \"#utility.yul\":16074:16076   */\n      0x20\n        /* \"#utility.yul\":16063:16072   */\n      dup3\n        /* \"#utility.yul\":16059:16077   */\n      add\n        /* \"#utility.yul\":16051:16077   */\n      swap1\n      pop\n        /* \"#utility.yul\":16123:16132   */\n      dup2\n        /* \"#utility.yul\":16117:16121   */\n      dup2\n        /* \"#utility.yul\":16113:16133   */\n      sub\n        /* \"#utility.yul\":16109:16110   */\n      0x00\n        /* \"#utility.yul\":16098:16107   */\n      dup4\n        /* \"#utility.yul\":16094:16111   */\n      add\n        /* \"#utility.yul\":16087:16134   */\n      mstore\n        /* \"#utility.yul\":16151:16282   */\n      tag_606\n        /* \"#utility.yul\":16277:16281   */\n      dup2\n        /* \"#utility.yul\":16151:16282   */\n      tag_545\n      jump\t// in\n    tag_606:\n        /* \"#utility.yul\":16143:16282   */\n      swap1\n      pop\n        /* \"#utility.yul\":15870:16289   */\n      swap2\n      swap1\n      pop\n      jump\t// out\n        /* \"#utility.yul\":16295:16714   */\n    tag_194:\n        /* \"#utility.yul\":16461:16465   */\n      0x00\n        /* \"#utility.yul\":16499:16501   */\n      0x20\n        /* \"#utility.yul\":16488:16497   */\n      dup3\n        /* \"#utility.yul\":16484:16502   */\n      add\n        /* \"#utility.yul\":16476:16502   */\n      swap1\n      pop\n        /* \"#utility.yul\":16548:16557   */\n      dup2\n        /* \"#utility.yul\":16542:16546   */\n      dup2\n        /* \"#utility.yul\":16538:16558   */\n      sub\n        /* \"#utility.yul\":16534:16535   */\n      0x00\n        /* \"#utility.yul\":16523:16532   */\n      dup4\n        /* \"#utility.yul\":16519:16536   */\n      add\n        /* \"#utility.yul\":16512:16559   */\n      mstore\n        /* \"#utility.yul\":16576:16707   */\n      tag_608\n        /* \"#utility.yul\":16702:16706   */\n      dup2\n        /* \"#utility.yul\":16576:16707   */\n      tag_550\n      jump\t// in\n    tag_608:\n        /* \"#utility.yul\":16568:16707   */\n      swap1\n      pop\n        /* \"#utility.yul\":16295:16714   */\n      swap2\n      swap1\n      pop\n      jump\t// out\n        /* \"#utility.yul\":16720:17139   */\n    tag_305:\n        /* \"#utility.yul\":16886:16890   */\n      0x00\n        /* \"#utility.yul\":16924:16926   */\n      0x20\n        /* \"#utility.yul\":16913:16922   */\n      dup3\n        /* \"#utility.yul\":16909:16927   */\n      add\n        /* \"#utility.yul\":16901:16927   */\n      swap1\n      pop\n        /* \"#utility.yul\":16973:16982   */\n      dup2\n        /* \"#utility.yul\":16967:16971   */\n      dup2\n        /* \"#utility.yul\":16963:16983   */\n      sub\n        /* \"#utility.yul\":16959:16960   */\n      0x00\n        /* \"#utility.yul\":16948:16957   */\n      dup4\n        /* \"#utility.yul\":16944:16961   */\n      add\n        /* \"#utility.yul\":16937:16984   */\n      mstore\n        /* \"#utility.yul\":17001:17132   */\n      tag_610\n        /* \"#utility.yul\":17127:17131   */\n      dup2\n        /* \"#utility.yul\":17001:17132   */\n      tag_555\n      jump\t// in\n    tag_610:\n        /* \"#utility.yul\":16993:17132   */\n      swap1\n      pop\n        /* \"#utility.yul\":16720:17139   */\n      swap2\n      swap1\n      pop\n      jump\t// out\n        /* \"#utility.yul\":17145:17564   */\n    tag_251:\n        /* \"#utility.yul\":17311:17315   */\n      0x00\n        /* \"#utility.yul\":17349:17351   */\n      0x20\n        /* \"#utility.yul\":17338:17347   */\n      dup3\n        /* \"#utility.yul\":17334:17352   */\n      add\n        /* \"#utility.yul\":17326:17352   */\n      swap1\n      pop\n        /* \"#utility.yul\":17398:17407   */\n      dup2\n        /* \"#utility.yul\":17392:17396   */\n      dup2\n        /* \"#utility.yul\":17388:17408   */\n      sub\n        /* \"#utility.yul\":17384:17385   */\n      0x00\n        /* \"#utility.yul\":17373:17382   */\n      dup4\n        /* \"#utility.yul\":17369:17386   */\n      add\n        /* \"#utility.yul\":17362:17409   */\n      mstore\n        /* \"#utility.yul\":17426:17557   */\n      tag_612\n        /* \"#utility.yul\":17552:17556   */\n      dup2\n        /* \"#utility.yul\":17426:17557   */\n      tag_560\n      jump\t// in\n    tag_612:\n        /* \"#utility.yul\":17418:17557   */\n      swap1\n      pop\n        /* \"#utility.yul\":17145:17564   */\n      swap2\n      swap1\n      pop\n      jump\t// out\n        /* \"#utility.yul\":17570:17792   */\n    tag_50:\n        /* \"#utility.yul\":17663:17667   */\n      0x00\n        /* \"#utility.yul\":17701:17703   */\n      0x20\n        /* \"#utility.yul\":17690:17699   */\n      dup3\n        /* \"#utility.yul\":17686:17704   */\n      add\n        /* \"#utility.yul\":17678:17704   */\n      swap1\n      pop\n        /* \"#utility.yul\":17714:17785   */\n      tag_614\n        /* \"#utility.yul\":17782:17783   */\n      0x00\n        /* \"#utility.yul\":17771:17780   */\n      dup4\n        /* \"#utility.yul\":17767:17784   */\n      add\n        /* \"#utility.yul\":17758:17764   */\n      dup5\n        /* \"#utility.yul\":17714:17785   */\n      tag_565\n      jump\t// in\n    tag_614:\n        /* \"#utility.yul\":17570:17792   */\n      swap3\n      swap2\n      pop\n      pop\n      jump\t// out\n        /* \"#utility.yul\":17798:17927   */\n    tag_404:\n        /* \"#utility.yul\":17832:17838   */\n      0x00\n        /* \"#utility.yul\":17859:17879   */\n      tag_616\n      tag_617\n      jump\t// in\n    tag_616:\n        /* \"#utility.yul\":17849:17879   */\n      swap1\n      pop\n        /* \"#utility.yul\":17888:17921   */\n      tag_618\n        /* \"#utility.yul\":17916:17920   */\n      dup3\n        /* \"#utility.yul\":17908:17914   */\n      dup3\n        /* \"#utility.yul\":17888:17921   */\n      tag_619\n      jump\t// in\n    tag_618:\n        /* \"#utility.yul\":17798:17927   */\n      swap2\n      swap1\n      pop\n      jump\t// out\n        /* \"#utility.yul\":17933:18008   */\n    tag_617:\n        /* \"#utility.yul\":17966:17972   */\n      0x00\n        /* \"#utility.yul\":17999:18001   */\n      0x40\n        /* \"#utility.yul\":17993:18002   */\n      mload\n        /* \"#utility.yul\":17983:18002   */\n      swap1\n      pop\n        /* \"#utility.yul\":17933:18008   */\n      swap1\n      jump\t// out\n        /* \"#utility.yul\":18014:18321   */\n    tag_403:\n        /* \"#utility.yul\":18075:18079   */\n      0x00\n        /* \"#utility.yul\":18165:18183   */\n      0xffffffffffffffff\n        /* \"#utility.yul\":18157:18163   */\n      dup3\n        /* \"#utility.yul\":18154:18184   */\n      gt\n        /* \"#utility.yul\":18151:18207   */\n      iszero\n      tag_622\n      jumpi\n        /* \"#utility.yul\":18187:18205   */\n      tag_623\n      tag_624\n      jump\t// in\n    tag_623:\n        /* \"#utility.yul\":18151:18207   */\n    tag_622:\n        /* \"#utility.yul\":18225:18254   */\n      tag_625\n        /* \"#utility.yul\":18247:18253   */\n      dup3\n        /* \"#utility.yul\":18225:18254   */\n      tag_527\n      jump\t// in\n    tag_625:\n        /* \"#utility.yul\":18217:18254   */\n      swap1\n      pop\n        /* \"#utility.yul\":18309:18313   */\n      0x20\n        /* \"#utility.yul\":18303:18307   */\n      dup2\n        /* \"#utility.yul\":18299:18314   */\n      add\n        /* \"#utility.yul\":18291:18314   */\n      swap1\n      pop\n        /* \"#utility.yul\":18014:18321   */\n      swap2\n      swap1\n      pop\n      jump\t// out\n        /* \"#utility.yul\":18327:18635   */\n    tag_414:\n        /* \"#utility.yul\":18389:18393   */\n      0x00\n        /* \"#utility.yul\":18479:18497   */\n      0xffffffffffffffff\n        /* \"#utility.yul\":18471:18477   */\n      dup3\n        /* \"#utility.yul\":18468:18498   */\n      gt\n        /* \"#utility.yul\":18465:18521   */\n      iszero\n      tag_627\n      jumpi\n        /* \"#utility.yul\":18501:18519   */\n      tag_628\n      tag_624\n      jump\t// in\n    tag_628:\n        /* \"#utility.yul\":18465:18521   */\n    tag_627:\n        /* \"#utility.yul\":18539:18568   */\n      tag_629\n        /* \"#utility.yul\":18561:18567   */\n      dup3\n        /* \"#utility.yul\":18539:18568   */\n      tag_527\n      jump\t// in\n    tag_629:\n        /* \"#utility.yul\":18531:18568   */\n      swap1\n      pop\n        /* \"#utility.yul\":18623:18627   */\n      0x20\n        /* \"#utility.yul\":18617:18621   */\n      dup2\n        /* \"#utility.yul\":18613:18628   */\n      add\n        /* \"#utility.yul\":18605:18628   */\n      swap1\n      pop\n        /* \"#utility.yul\":18327:18635   */\n      swap2\n      swap1\n      pop\n      jump\t// out\n        /* \"#utility.yul\":18641:18782   */\n    tag_536:\n        /* \"#utility.yul\":18690:18694   */\n      0x00\n        /* \"#utility.yul\":18713:18716   */\n      dup2\n        /* \"#utility.yul\":18705:18716   */\n      swap1\n      pop\n        /* \"#utility.yul\":18736:18739   */\n      dup2\n        /* \"#utility.yul\":18733:18734   */\n      0x00\n        /* \"#utility.yul\":18726:18740   */\n      mstore\n        /* \"#utility.yul\":18770:18774   */\n      0x20\n        /* \"#utility.yul\":18767:18768   */\n      0x00\n        /* \"#utility.yul\":18757:18775   */\n      keccak256\n        /* \"#utility.yul\":18749:18775   */\n      swap1\n      pop\n        /* \"#utility.yul\":18641:18782   */\n      swap2\n      swap1\n      pop\n      jump\t// out\n        /* \"#utility.yul\":18788:18887   */\n    tag_521:\n        /* \"#utility.yul\":18840:18846   */\n      0x00\n        /* \"#utility.yul\":18874:18879   */\n      dup2\n        /* \"#utility.yul\":18868:18880   */\n      mload\n        /* \"#utility.yul\":18858:18880   */\n      swap1\n      pop\n        /* \"#utility.yul\":18788:18887   */\n      swap2\n      swap1\n      pop\n      jump\t// out\n        /* \"#utility.yul\":18893:19062   */\n    tag_523:\n        /* \"#utility.yul\":18977:18988   */\n      0x00\n        /* \"#utility.yul\":19011:19017   */\n      dup3\n        /* \"#utility.yul\":19006:19009   */\n      dup3\n        /* \"#utility.yul\":18999:19018   */\n      mstore\n        /* \"#utility.yul\":19051:19055   */\n      0x20\n        /* \"#utility.yul\":19046:19049   */\n      dup3\n        /* \"#utility.yul\":19042:19056   */\n      add\n        /* \"#utility.yul\":19027:19056   */\n      swap1\n      pop\n        /* \"#utility.yul\":18893:19062   */\n      swap3\n      swap2\n      pop\n      pop\n      jump\t// out\n        /* \"#utility.yul\":19068:19373   */\n    tag_165:\n        /* \"#utility.yul\":19108:19111   */\n      0x00\n        /* \"#utility.yul\":19127:19147   */\n      tag_634\n        /* \"#utility.yul\":19145:19146   */\n      dup3\n        /* \"#utility.yul\":19127:19147   */\n      tag_568\n      jump\t// in\n    tag_634:\n        /* \"#utility.yul\":19122:19147   */\n      swap2\n      pop\n        /* \"#utility.yul\":19161:19181   */\n      tag_635\n        /* \"#utility.yul\":19179:19180   */\n      dup4\n        /* \"#utility.yul\":19161:19181   */\n      tag_568\n      jump\t// in\n    tag_635:\n        /* \"#utility.yul\":19156:19181   */\n      swap3\n      pop\n        /* \"#utility.yul\":19315:19316   */\n      dup3\n        /* \"#utility.yul\":19247:19313   */\n      0xffffffffffffffffffffffffffffffffffffffffffffffffffffffffffffffff\n        /* \"#utility.yul\":19243:19317   */\n      sub\n        /* \"#utility.yul\":19240:19241   */\n      dup3\n        /* \"#utility.yul\":19237:19318   */\n      gt\n        /* \"#utility.yul\":19234:19341   */\n      iszero\n      tag_636\n      jumpi\n        /* \"#utility.yul\":19321:19339   */\n      tag_637\n      tag_638\n      jump\t// in\n    tag_637:\n        /* \"#utility.yul\":19234:19341   */\n    tag_636:\n        /* \"#utility.yul\":19365:19366   */\n      dup3\n        /* \"#utility.yul\":19362:19363   */\n      dup3\n        /* \"#utility.yul\":19358:19367   */\n      add\n        /* \"#utility.yul\":19351:19367   */\n      swap1\n      pop\n        /* \"#utility.yul\":19068:19373   */\n      swap3\n      swap2\n      pop\n      pop\n      jump\t// out\n        /* \"#utility.yul\":19379:19570   */\n    tag_173:\n        /* \"#utility.yul\":19419:19423   */\n      0x00\n        /* \"#utility.yul\":19439:19459   */\n      tag_640\n        /* \"#utility.yul\":19457:19458   */\n      dup3\n        /* \"#utility.yul\":19439:19459   */\n      tag_568\n      jump\t// in\n    tag_640:\n        /* \"#utility.yul\":19434:19459   */\n      swap2\n      pop\n        /* \"#utility.yul\":19473:19493   */\n      tag_641\n        /* \"#utility.yul\":19491:19492   */\n      dup4\n        /* \"#utility.yul\":19473:19493   */\n      tag_568\n      jump\t// in\n    tag_641:\n        /* \"#utility.yul\":19468:19493   */\n      swap3\n      pop\n        /* \"#utility.yul\":19512:19513   */\n      dup3\n        /* \"#utility.yul\":19509:19510   */\n      dup3\n        /* \"#utility.yul\":19506:19514   */\n      lt\n        /* \"#utility.yul\":19503:19537   */\n      iszero\n      tag_642\n      jumpi\n        /* \"#utility.yul\":19517:19535   */\n      tag_643\n      tag_638\n      jump\t// in\n    tag_643:\n        /* \"#utility.yul\":19503:19537   */\n    tag_642:\n        /* \"#utility.yul\":19562:19563   */\n      dup3\n        /* \"#utility.yul\":19559:19560   */\n      dup3\n        /* \"#utility.yul\":19555:19564   */\n      sub\n        /* \"#utility.yul\":19547:19564   */\n      swap1\n      pop\n        /* \"#utility.yul\":19379:19570   */\n      swap3\n      swap2\n      pop\n      pop\n      jump\t// out\n        /* \"#utility.yul\":19576:19672   */\n    tag_513:\n        /* \"#utility.yul\":19613:19620   */\n      0x00\n        /* \"#utility.yul\":19642:19666   */\n      tag_645\n        /* \"#utility.yul\":19660:19665   */\n      dup3\n        /* \"#utility.yul\":19642:19666   */\n      tag_646\n      jump\t// in\n    tag_645:\n        /* \"#utility.yul\":19631:19666   */\n      swap1\n      pop\n        /* \"#utility.yul\":19576:19672   */\n      swap2\n      swap1\n      pop\n      jump\t// out\n        /* \"#utility.yul\":19678:19768   */\n    tag_517:\n        /* \"#utility.yul\":19712:19719   */\n      0x00\n        /* \"#utility.yul\":19755:19760   */\n      dup2\n        /* \"#utility.yul\":19748:19761   */\n      iszero\n        /* \"#utility.yul\":19741:19762   */\n      iszero\n        /* \"#utility.yul\":19730:19762   */\n      swap1\n      pop\n        /* \"#utility.yul\":19678:19768   */\n      swap2\n      swap1\n      pop\n      jump\t// out\n        /* \"#utility.yul\":19774:19900   */\n    tag_646:\n        /* \"#utility.yul\":19811:19818   */\n      0x00\n        /* \"#utility.yul\":19851:19893   */\n      0xffffffffffffffffffffffffffffffffffffffff\n        /* \"#utility.yul\":19844:19849   */\n      dup3\n        /* \"#utility.yul\":19840:19894   */\n      and\n        /* \"#utility.yul\":19829:19894   */\n      swap1\n      pop\n        /* \"#utility.yul\":19774:19900   */\n      swap2\n      swap1\n      pop\n      jump\t// out\n        /* \"#utility.yul\":19906:19983   */\n    tag_568:\n        /* \"#utility.yul\":19943:19950   */\n      0x00\n        /* \"#utility.yul\":19972:19977   */\n      dup2\n        /* \"#utility.yul\":19961:19977   */\n      swap1\n      pop\n        /* \"#utility.yul\":19906:19983   */\n      swap2\n      swap1\n      pop\n      jump\t// out\n        /* \"#utility.yul\":19989:20082   */\n    tag_577:\n        /* \"#utility.yul\":20025:20032   */\n      0x00\n        /* \"#utility.yul\":20065:20075   */\n      0xffffffff\n        /* \"#utility.yul\":20058:20063   */\n      dup3\n        /* \"#utility.yul\":20054:20076   */\n      and\n        /* \"#utility.yul\":20043:20076   */\n      swap1\n      pop\n        /* \"#utility.yul\":19989:20082   */\n      swap2\n      swap1\n      pop\n      jump\t// out\n        /* \"#utility.yul\":20088:20242   */\n    tag_409:\n        /* \"#utility.yul\":20172:20178   */\n      dup3\n        /* \"#utility.yul\":20167:20170   */\n      dup2\n        /* \"#utility.yul\":20162:20165   */\n      dup4\n        /* \"#utility.yul\":20149:20179   */\n      calldatacopy\n        /* \"#utility.yul\":20234:20235   */\n      0x00\n        /* \"#utility.yul\":20225:20231   */\n      dup4\n        /* \"#utility.yul\":20220:20223   */\n      dup4\n        /* \"#utility.yul\":20216:20232   */\n      add\n        /* \"#utility.yul\":20209:20236   */\n      mstore\n        /* \"#utility.yul\":20088:20242   */\n      pop\n      pop\n      pop\n      jump\t// out\n        /* \"#utility.yul\":20248:20555   */\n    tag_525:\n        /* \"#utility.yul\":20316:20317   */\n      0x00\n        /* \"#utility.yul\":20326:20439   */\n    tag_653:\n        /* \"#utility.yul\":20340:20346   */\n      dup4\n        /* \"#utility.yul\":20337:20338   */\n      dup2\n        /* \"#utility.yul\":20334:20347   */\n      lt\n        /* \"#utility.yul\":20326:20439   */\n      iszero\n      tag_655\n      jumpi\n        /* \"#utility.yul\":20425:20426   */\n      dup1\n        /* \"#utility.yul\":20420:20423   */\n      dup3\n        /* \"#utility.yul\":20416:20427   */\n      add\n        /* \"#utility.yul\":20410:20428   */\n      mload\n        /* \"#utility.yul\":20406:20407   */\n      dup2\n        /* \"#utility.yul\":20401:20404   */\n      dup5\n        /* \"#utility.yul\":20397:20408   */\n      add\n        /* \"#utility.yul\":20390:20429   */\n      mstore\n        /* \"#utility.yul\":20362:20364   */\n      0x20\n        /* \"#utility.yul\":20359:20360   */\n      dup2\n        /* \"#utility.yul\":20355:20365   */\n      add\n        /* \"#utility.yul\":20350:20365   */\n      swap1\n      pop\n        /* \"#utility.yul\":20326:20439   */\n      jump(tag_653)\n    tag_655:\n        /* \"#utility.yul\":20457:20463   */\n      dup4\n        /* \"#utility.yul\":20454:20455   */\n      dup2\n        /* \"#utility.yul\":20451:20464   */\n      gt\n        /* \"#utility.yul\":20448:20549   */\n      iszero\n      tag_656\n      jumpi\n        /* \"#utility.yul\":20537:20538   */\n      0x00\n        /* \"#utility.yul\":20528:20534   */\n      dup5\n        /* \"#utility.yul\":20523:20526   */\n      dup5\n        /* \"#utility.yul\":20519:20535   */\n      add\n        /* \"#utility.yul\":20512:20539   */\n      mstore\n        /* \"#utility.yul\":20448:20549   */\n    tag_656:\n        /* \"#utility.yul\":20297:20555   */\n      pop\n        /* \"#utility.yul\":20248:20555   */\n      pop\n      pop\n      pop\n      jump\t// out\n        /* \"#utility.yul\":20561:20732   */\n    tag_379:\n        /* \"#utility.yul\":20600:20603   */\n      0x00\n        /* \"#utility.yul\":20623:20647   */\n      tag_658\n        /* \"#utility.yul\":20641:20646   */\n      dup3\n        /* \"#utility.yul\":20623:20647   */\n      tag_568\n      jump\t// in\n    tag_658:\n        /* \"#utility.yul\":20614:20647   */\n      swap2\n      pop\n        /* \"#utility.yul\":20669:20673   */\n      0x00\n        /* \"#utility.yul\":20662:20667   */\n      dup3\n        /* \"#utility.yul\":20659:20674   */\n      eq\n        /* \"#utility.yul\":20656:20697   */\n      iszero\n      tag_659\n      jumpi\n        /* \"#utility.yul\":20677:20695   */\n      tag_660\n      tag_638\n      jump\t// in\n    tag_660:\n        /* \"#utility.yul\":20656:20697   */\n    tag_659:\n        /* \"#utility.yul\":20724:20725   */\n      0x01\n        /* \"#utility.yul\":20717:20722   */\n      dup3\n        /* \"#utility.yul\":20713:20726   */\n      sub\n        /* \"#utility.yul\":20706:20726   */\n      swap1\n      pop\n        /* \"#utility.yul\":20561:20732   */\n      swap2\n      swap1\n      pop\n      jump\t// out\n        /* \"#utility.yul\":20738:21058   */\n    tag_324:\n        /* \"#utility.yul\":20782:20788   */\n      0x00\n        /* \"#utility.yul\":20819:20820   */\n      0x02\n        /* \"#utility.yul\":20813:20817   */\n      dup3\n        /* \"#utility.yul\":20809:20821   */\n      div\n        /* \"#utility.yul\":20799:20821   */\n      swap1\n      pop\n        /* \"#utility.yul\":20866:20867   */\n      0x01\n        /* \"#utility.yul\":20860:20864   */\n      dup3\n        /* \"#utility.yul\":20856:20868   */\n      and\n        /* \"#utility.yul\":20887:20905   */\n      dup1\n        /* \"#utility.yul\":20877:20958   */\n      tag_662\n      jumpi\n        /* \"#utility.yul\":20943:20947   */\n      0x7f\n        /* \"#utility.yul\":20935:20941   */\n      dup3\n        /* \"#utility.yul\":20931:20948   */\n      and\n        /* \"#utility.yul\":20921:20948   */\n      swap2\n      pop\n        /* \"#utility.yul\":20877:20958   */\n    tag_662:\n        /* \"#utility.yul\":21005:21007   */\n      0x20\n        /* \"#utility.yul\":20997:21003   */\n      dup3\n        /* \"#utility.yul\":20994:21008   */\n      lt\n        /* \"#utility.yul\":20974:20992   */\n      dup2\n        /* \"#utility.yul\":20971:21009   */\n      eq\n        /* \"#utility.yul\":20968:21052   */\n      iszero\n      tag_663\n      jumpi\n        /* \"#utility.yul\":21024:21042   */\n      tag_664\n      tag_665\n      jump\t// in\n    tag_664:\n        /* \"#utility.yul\":20968:21052   */\n    tag_663:\n        /* \"#utility.yul\":20789:21058   */\n      pop\n        /* \"#utility.yul\":20738:21058   */\n      swap2\n      swap1\n      pop\n      jump\t// out\n        /* \"#utility.yul\":21064:21345   */\n    tag_619:\n        /* \"#utility.yul\":21147:21174   */\n      tag_667\n        /* \"#utility.yul\":21169:21173   */\n      dup3\n        /* \"#utility.yul\":21147:21174   */\n      tag_527\n      jump\t// in\n    tag_667:\n        /* \"#utility.yul\":21139:21145   */\n      dup2\n        /* \"#utility.yul\":21135:21175   */\n      add\n        /* \"#utility.yul\":21277:21283   */\n      dup2\n        /* \"#utility.yul\":21265:21275   */\n      dup2\n        /* \"#utility.yul\":21262:21284   */\n      lt\n        /* \"#utility.yul\":21241:21259   */\n      0xffffffffffffffff\n        /* \"#utility.yul\":21229:21239   */\n      dup3\n        /* \"#utility.yul\":21226:21260   */\n      gt\n        /* \"#utility.yul\":21223:21285   */\n      or\n        /* \"#utility.yul\":21220:21308   */\n      iszero\n      tag_668\n      jumpi\n        /* \"#utility.yul\":21288:21306   */\n      tag_669\n      tag_624\n      jump\t// in\n    tag_669:\n        /* \"#utility.yul\":21220:21308   */\n    tag_668:\n        /* \"#utility.yul\":21328:21338   */\n      dup1\n        /* \"#utility.yul\":21324:21326   */\n      0x40\n        /* \"#utility.yul\":21317:21339   */\n      mstore\n        /* \"#utility.yul\":21107:21345   */\n      pop\n        /* \"#utility.yul\":21064:21345   */\n      pop\n      pop\n      jump\t// out\n        /* \"#utility.yul\":21351:21584   */\n    tag_153:\n        /* \"#utility.yul\":21390:21393   */\n      0x00\n        /* \"#utility.yul\":21413:21437   */\n      tag_671\n        /* \"#utility.yul\":21431:21436   */\n      dup3\n        /* \"#utility.yul\":21413:21437   */\n      tag_568\n      jump\t// in\n    tag_671:\n        /* \"#utility.yul\":21404:21437   */\n      swap2\n      pop\n        /* \"#utility.yul\":21459:21525   */\n      0xffffffffffffffffffffffffffffffffffffffffffffffffffffffffffffffff\n        /* \"#utility.yul\":21452:21457   */\n      dup3\n        /* \"#utility.yul\":21449:21526   */\n      eq\n        /* \"#utility.yul\":21446:21549   */\n      iszero\n      tag_672\n      jumpi\n        /* \"#utility.yul\":21529:21547   */\n      tag_673\n      tag_638\n      jump\t// in\n    tag_673:\n        /* \"#utility.yul\":21446:21549   */\n    tag_672:\n        /* \"#utility.yul\":21576:21577   */\n      0x01\n        /* \"#utility.yul\":21569:21574   */\n      dup3\n        /* \"#utility.yul\":21565:21578   */\n      add\n        /* \"#utility.yul\":21558:21578   */\n      swap1\n      pop\n        /* \"#utility.yul\":21351:21584   */\n      swap2\n      swap1\n      pop\n      jump\t// out\n        /* \"#utility.yul\":21590:21765   */\n    tag_189:\n        /* \"#utility.yul\":21628:21631   */\n      0x00\n        /* \"#utility.yul\":21651:21674   */\n      tag_675\n        /* \"#utility.yul\":21668:21673   */\n      dup3\n        /* \"#utility.yul\":21651:21674   */\n      tag_577\n      jump\t// in\n    tag_675:\n        /* \"#utility.yul\":21642:21674   */\n      swap2\n      pop\n        /* \"#utility.yul\":21696:21706   */\n      0xffffffff\n        /* \"#utility.yul\":21689:21694   */\n      dup3\n        /* \"#utility.yul\":21686:21707   */\n      eq\n        /* \"#utility.yul\":21683:21730   */\n      iszero\n      tag_676\n      jumpi\n        /* \"#utility.yul\":21710:21728   */\n      tag_677\n      tag_638\n      jump\t// in\n    tag_677:\n        /* \"#utility.yul\":21683:21730   */\n    tag_676:\n        /* \"#utility.yul\":21757:21758   */\n      0x01\n        /* \"#utility.yul\":21750:21755   */\n      dup3\n        /* \"#utility.yul\":21746:21759   */\n      add\n        /* \"#utility.yul\":21739:21759   */\n      swap1\n      pop\n        /* \"#utility.yul\":21590:21765   */\n      swap2\n      swap1\n      pop\n      jump\t// out\n        /* \"#utility.yul\":21771:21850   */\n    tag_573:\n        /* \"#utility.yul\":21810:21817   */\n      0x00\n        /* \"#utility.yul\":21839:21844   */\n      dup2\n        /* \"#utility.yul\":21828:21844   */\n      swap1\n      pop\n        /* \"#utility.yul\":21771:21850   */\n      swap2\n      swap1\n      pop\n      jump\t// out\n        /* \"#utility.yul\":21856:22032   */\n    tag_201:\n        /* \"#utility.yul\":21888:21889   */\n      0x00\n        /* \"#utility.yul\":21905:21925   */\n      tag_680\n        /* \"#utility.yul\":21923:21924   */\n      dup3\n        /* \"#utility.yul\":21905:21925   */\n      tag_568\n      jump\t// in\n    tag_680:\n        /* \"#utility.yul\":21900:21925   */\n      swap2\n      pop\n        /* \"#utility.yul\":21939:21959   */\n      tag_681\n        /* \"#utility.yul\":21957:21958   */\n      dup4\n        /* \"#utility.yul\":21939:21959   */\n      tag_568\n      jump\t// in\n    tag_681:\n        /* \"#utility.yul\":21934:21959   */\n      swap3\n      pop\n        /* \"#utility.yul\":21978:21979   */\n      dup3\n        /* \"#utility.yul\":21968:22003   */\n      tag_682\n      jumpi\n        /* \"#utility.yul\":21983:22001   */\n      tag_683\n      tag_684\n      jump\t// in\n    tag_683:\n        /* \"#utility.yul\":21968:22003   */\n    tag_682:\n        /* \"#utility.yul\":22024:22025   */\n      dup3\n        /* \"#utility.yul\":22021:22022   */\n      dup3\n        /* \"#utility.yul\":22017:22026   */\n      mod\n        /* \"#utility.yul\":22012:22026   */\n      swap1\n      pop\n        /* \"#utility.yul\":21856:22032   */\n      swap3\n      swap2\n      pop\n      pop\n      jump\t// out\n        /* \"#utility.yul\":22038:22218   */\n    tag_638:\n        /* \"#utility.yul\":22086:22163   */\n      0x4e487b7100000000000000000000000000000000000000000000000000000000\n        /* \"#utility.yul\":22083:22084   */\n      0x00\n        /* \"#utility.yul\":22076:22164   */\n      mstore\n        /* \"#utility.yul\":22183:22187   */\n      0x11\n        /* \"#utility.yul\":22180:22181   */\n      0x04\n        /* \"#utility.yul\":22173:22188   */\n      mstore\n        /* \"#utility.yul\":22207:22211   */\n      0x24\n        /* \"#utility.yul\":22204:22205   */\n      0x00\n        /* \"#utility.yul\":22197:22212   */\n      revert\n        /* \"#utility.yul\":22224:22404   */\n    tag_684:\n        /* \"#utility.yul\":22272:22349   */\n      0x4e487b7100000000000000000000000000000000000000000000000000000000\n        /* \"#utility.yul\":22269:22270   */\n      0x00\n        /* \"#utility.yul\":22262:22350   */\n      mstore\n        /* \"#utility.yul\":22369:22373   */\n      0x12\n        /* \"#utility.yul\":22366:22367   */\n      0x04\n        /* \"#utility.yul\":22359:22374   */\n      mstore\n        /* \"#utility.yul\":22393:22397   */\n      0x24\n        /* \"#utility.yul\":22390:22391   */\n      0x00\n        /* \"#utility.yul\":22383:22398   */\n      revert\n        /* \"#utility.yul\":22410:22590   */\n    tag_665:\n        /* \"#utility.yul\":22458:22535   */\n      0x4e487b7100000000000000000000000000000000000000000000000000000000\n        /* \"#utility.yul\":22455:22456   */\n      0x00\n        /* \"#utility.yul\":22448:22536   */\n      mstore\n        /* \"#utility.yul\":22555:22559   */\n      0x22\n        /* \"#utility.yul\":22552:22553   */\n      0x04\n        /* \"#utility.yul\":22545:22560   */\n      mstore\n        /* \"#utility.yul\":22579:22583   */\n      0x24\n        /* \"#utility.yul\":22576:22577   */\n      0x00\n        /* \"#utility.yul\":22569:22584   */\n      revert\n        /* \"#utility.yul\":22596:22776   */\n    tag_140:\n        /* \"#utility.yul\":22644:22721   */\n      0x4e487b7100000000000000000000000000000000000000000000000000000000\n        /* \"#utility.yul\":22641:22642   */\n      0x00\n        /* \"#utility.yul\":22634:22722   */\n      mstore\n        /* \"#utility.yul\":22741:22745   */\n      0x32\n        /* \"#utility.yul\":22738:22739   */\n      0x04\n        /* \"#utility.yul\":22731:22746   */\n      mstore\n        /* \"#utility.yul\":22765:22769   */\n      0x24\n        /* \"#utility.yul\":22762:22763   */\n      0x00\n        /* \"#utility.yul\":22755:22770   */\n      revert\n        /* \"#utility.yul\":22782:22962   */\n    tag_624:\n        /* \"#utility.yul\":22830:22907   */\n      0x4e487b7100000000000000000000000000000000000000000000000000000000\n        /* \"#utility.yul\":22827:22828   */\n      0x00\n        /* \"#utility.yul\":22820:22908   */\n      mstore\n        /* \"#utility.yul\":22927:22931   */\n      0x41\n        /* \"#utility.yul\":22924:22925   */\n      0x04\n        /* \"#utility.yul\":22917:22932   */\n      mstore\n        /* \"#utility.yul\":22951:22955   */\n      0x24\n        /* \"#utility.yul\":22948:22949   */\n      0x00\n        /* \"#utility.yul\":22941:22956   */\n      revert\n        /* \"#utility.yul\":22968:23085   */\n    tag_433:\n        /* \"#utility.yul\":23077:23078   */\n      0x00\n        /* \"#utility.yul\":23074:23075   */\n      dup1\n        /* \"#utility.yul\":23067:23079   */\n      revert\n        /* \"#utility.yul\":23091:23208   */\n    tag_407:\n        /* \"#utility.yul\":23200:23201   */\n      0x00\n        /* \"#utility.yul\":23197:23198   */\n      dup1\n        /* \"#utility.yul\":23190:23202   */\n      revert\n        /* \"#utility.yul\":23214:23331   */\n    tag_472:\n        /* \"#utility.yul\":23323:23324   */\n      0x00\n        /* \"#utility.yul\":23320:23321   */\n      dup1\n        /* \"#utility.yul\":23313:23325   */\n      revert\n        /* \"#utility.yul\":23337:23454   */\n    tag_447:\n        /* \"#utility.yul\":23446:23447   */\n      0x00\n        /* \"#utility.yul\":23443:23444   */\n      dup1\n        /* \"#utility.yul\":23436:23448   */\n      revert\n        /* \"#utility.yul\":23460:23562   */\n    tag_527:\n        /* \"#utility.yul\":23501:23507   */\n      0x00\n        /* \"#utility.yul\":23552:23554   */\n      0x1f\n        /* \"#utility.yul\":23548:23555   */\n      not\n        /* \"#utility.yul\":23543:23545   */\n      0x1f\n        /* \"#utility.yul\":23536:23541   */\n      dup4\n        /* \"#utility.yul\":23532:23546   */\n      add\n        /* \"#utility.yul\":23528:23556   */\n      and\n        /* \"#utility.yul\":23518:23556   */\n      swap1\n      pop\n        /* \"#utility.yul\":23460:23562   */\n      swap2\n      swap1\n      pop\n      jump\t// out\n        /* \"#utility.yul\":23568:23795   */\n    tag_544:\n        /* \"#utility.yul\":23708:23742   */\n      0x536f6c6f2073652070756564652074656e657220756e20636f63686520706f72\n        /* \"#utility.yul\":23704:23705   */\n      0x00\n        /* \"#utility.yul\":23696:23702   */\n      dup3\n        /* \"#utility.yul\":23692:23706   */\n      add\n        /* \"#utility.yul\":23685:23743   */\n      mstore\n        /* \"#utility.yul\":23777:23787   */\n      0x20706572736f6e61000000000000000000000000000000000000000000000000\n        /* \"#utility.yul\":23772:23774   */\n      0x20\n        /* \"#utility.yul\":23764:23770   */\n      dup3\n        /* \"#utility.yul\":23760:23775   */\n      add\n        /* \"#utility.yul\":23753:23788   */\n      mstore\n        /* \"#utility.yul\":23568:23795   */\n      pop\n      jump\t// out\n        /* \"#utility.yul\":23801:24026   */\n    tag_549:\n        /* \"#utility.yul\":23941:23975   */\n      0x4f776e61626c653a206e6577206f776e657220697320746865207a65726f2061\n        /* \"#utility.yul\":23937:23938   */\n      0x00\n        /* \"#utility.yul\":23929:23935   */\n      dup3\n        /* \"#utility.yul\":23925:23939   */\n      add\n        /* \"#utility.yul\":23918:23976   */\n      mstore\n        /* \"#utility.yul\":24010:24018   */\n      0x6464726573730000000000000000000000000000000000000000000000000000\n        /* \"#utility.yul\":24005:24007   */\n      0x20\n        /* \"#utility.yul\":23997:24003   */\n      dup3\n        /* \"#utility.yul\":23993:24008   */\n      add\n        /* \"#utility.yul\":23986:24019   */\n      mstore\n        /* \"#utility.yul\":23801:24026   */\n      pop\n      jump\t// out\n        /* \"#utility.yul\":24032:24269   */\n    tag_554:\n        /* \"#utility.yul\":24172:24206   */\n      0x4e6f2068617920636f6368657320737566696369656e74657320706172612069\n        /* \"#utility.yul\":24168:24169   */\n      0x00\n        /* \"#utility.yul\":24160:24166   */\n      dup3\n        /* \"#utility.yul\":24156:24170   */\n      add\n        /* \"#utility.yul\":24149:24207   */\n      mstore\n        /* \"#utility.yul\":24241:24261   */\n      0x6e696369617220756e6120636172726572610000000000000000000000000000\n        /* \"#utility.yul\":24236:24238   */\n      0x20\n        /* \"#utility.yul\":24228:24234   */\n      dup3\n        /* \"#utility.yul\":24224:24239   */\n      add\n        /* \"#utility.yul\":24217:24262   */\n      mstore\n        /* \"#utility.yul\":24032:24269   */\n      pop\n      jump\t// out\n        /* \"#utility.yul\":24275:24457   */\n    tag_559:\n        /* \"#utility.yul\":24415:24449   */\n      0x4f776e61626c653a2063616c6c6572206973206e6f7420746865206f776e6572\n        /* \"#utility.yul\":24411:24412   */\n      0x00\n        /* \"#utility.yul\":24403:24409   */\n      dup3\n        /* \"#utility.yul\":24399:24413   */\n      add\n        /* \"#utility.yul\":24392:24450   */\n      mstore\n        /* \"#utility.yul\":24275:24457   */\n      pop\n      jump\t// out\n        /* \"#utility.yul\":24463:24634   */\n    tag_564:\n        /* \"#utility.yul\":24603:24626   */\n      0x456c20636f6368652067616e61646f722065733a200000000000000000000000\n        /* \"#utility.yul\":24599:24600   */\n      0x00\n        /* \"#utility.yul\":24591:24597   */\n      dup3\n        /* \"#utility.yul\":24587:24601   */\n      add\n        /* \"#utility.yul\":24580:24627   */\n      mstore\n        /* \"#utility.yul\":24463:24634   */\n      pop\n      jump\t// out\n        /* \"#utility.yul\":24640:24762   */\n    tag_421:\n        /* \"#utility.yul\":24713:24737   */\n      tag_701\n        /* \"#utility.yul\":24731:24736   */\n      dup2\n        /* \"#utility.yul\":24713:24737   */\n      tag_513\n      jump\t// in\n    tag_701:\n        /* \"#utility.yul\":24706:24711   */\n      dup2\n        /* \"#utility.yul\":24703:24738   */\n      eq\n        /* \"#utility.yul\":24693:24756   */\n      tag_702\n      jumpi\n        /* \"#utility.yul\":24752:24753   */\n      0x00\n        /* \"#utility.yul\":24749:24750   */\n      dup1\n        /* \"#utility.yul\":24742:24754   */\n      revert\n        /* \"#utility.yul\":24693:24756   */\n    tag_702:\n        /* \"#utility.yul\":24640:24762   */\n      pop\n      jump\t// out\n        /* \"#utility.yul\":24768:24884   */\n    tag_428:\n        /* \"#utility.yul\":24838:24859   */\n      tag_704\n        /* \"#utility.yul\":24853:24858   */\n      dup2\n        /* \"#utility.yul\":24838:24859   */\n      tag_517\n      jump\t// in\n    tag_704:\n        /* \"#utility.yul\":24831:24836   */\n      dup2\n        /* \"#utility.yul\":24828:24860   */\n      eq\n        /* \"#utility.yul\":24818:24878   */\n      tag_705\n      jumpi\n        /* \"#utility.yul\":24874:24875   */\n      0x00\n        /* \"#utility.yul\":24871:24872   */\n      dup1\n        /* \"#utility.yul\":24864:24876   */\n      revert\n        /* \"#utility.yul\":24818:24878   */\n    tag_705:\n        /* \"#utility.yul\":24768:24884   */\n      pop\n      jump\t// out\n        /* \"#utility.yul\":24890:25012   */\n    tag_443:\n        /* \"#utility.yul\":24963:24987   */\n      tag_707\n        /* \"#utility.yul\":24981:24986   */\n      dup2\n        /* \"#utility.yul\":24963:24987   */\n      tag_568\n      jump\t// in\n    tag_707:\n        /* \"#utility.yul\":24956:24961   */\n      dup2\n        /* \"#utility.yul\":24953:24988   */\n      eq\n        /* \"#utility.yul\":24943:25006   */\n      tag_708\n      jumpi\n        /* \"#utility.yul\":25002:25003   */\n      0x00\n        /* \"#utility.yul\":24999:25000   */\n      dup1\n        /* \"#utility.yul\":24992:25004   */\n      revert\n        /* \"#utility.yul\":24943:25006   */\n    tag_708:\n        /* \"#utility.yul\":24890:25012   */\n      pop\n      jump\t// out\n\n    auxdata: 0xa26469706673582212206f6acc9490ef8a5932c0afb8f81e90f4eee69b463cb5e0474b57fac6ee007a3a64736f6c63430008070033\n}\n",
				"bytecode": {
					"linkReferences": {},
					"object": "608060405260006001556000600255603c600355670de0b6b3a7640000600455671bc16d674ec800006005553480156200003857600080fd5b50620000596200004d6200005f60201b60201c565b6200006760201b60201c565b6200012b565b600033905090565b60008060009054906101000a900473ffffffffffffffffffffffffffffffffffffffff169050816000806101000a81548173ffffffffffffffffffffffffffffffffffffffff021916908373ffffffffffffffffffffffffffffffffffffffff1602179055508173ffffffffffffffffffffffffffffffffffffffff168173ffffffffffffffffffffffffffffffffffffffff167f8be0079c531659141344cd1fd0a4f28419497f9722a3daafe3b4186f6b6457e060405160405180910390a35050565b612de7806200013b6000396000f3fe6080604052600436106101355760003560e01c8063715018a6116100ab578063b2e6ceeb1161006f578063b2e6ceeb14610422578063b88d4fde1461044b578063d735573d14610467578063e172fca8146104ab578063e985e9c5146104d4578063f2fde38b1461051157610135565b8063715018a61461034f578063858b0554146103665780638da5cb5b146103a3578063a22cb465146103ce578063b2bdfa7b146103f757610135565b80632458c544116100fd5780632458c5441461021c57806342842e0e146102595780636352211e146102755780636a7d1816146102b25780636b6f0494146102e257806370a082311461031257610135565b8063049a5f651461013a578063081812fc1461016a578063095ea7b3146101a75780631c6743e4146101c357806323b872dd14610200575b600080fd5b610154600480360381019061014f9190612265565b61053a565b60405161016191906126c5565b60405180910390f35b34801561017657600080fd5b50610191600480360381019061018c91906123d7565b61069b565b60405161019e91906125fc565b60405180910390f35b6101c160048036038101906101bc91906122f0565b6106a2565b005b3480156101cf57600080fd5b506101ea60048036038101906101e591906120b5565b610753565b6040516101f791906127e8565b60405180910390f35b61021a6004803603810190610215919061214f565b61076b565b005b34801561022857600080fd5b50610243600480360381019061023e9190612330565b61077b565b60405161025091906127e8565b60405180910390f35b610273600480360381019061026e919061214f565b610a5d565b005b34801561028157600080fd5b5061029c600480360381019061029791906123d7565b610a62565b6040516102a991906125fc565b60405180910390f35b6102cc60048036038101906102c791906120b5565b610a9f565b6040516102d991906126c5565b60405180910390f35b6102fc60048036038101906102f791906123d7565b610bf4565b60405161030991906126c5565b60405180910390f35b34801561031e57600080fd5b50610339600480360381019061033491906120b5565b61152f565b60405161034691906127e8565b60405180910390f35b34801561035b57600080fd5b50610364611578565b005b34801561037257600080fd5b5061038d600480360381019061038891906123d7565b611600565b60405161039a91906125fc565b60405180910390f35b3480156103af57600080fd5b506103b8611633565b6040516103c591906125fc565b60405180910390f35b3480156103da57600080fd5b506103f560048036038101906103f09190612225565b61165c565b005b34801561040357600080fd5b5061040c611660565b60405161041991906125fc565b60405180910390f35b34801561042e57600080fd5b50610449600480360381019061044491906123d7565b611684565b005b610465600480360381019061046091906121a2565b61178b565b005b34801561047357600080fd5b5061048e600480360381019061048991906123d7565b611791565b6040516104a2989796959493929190612617565b60405180910390f35b3480156104b757600080fd5b506104d260048036038101906104cd91906120b5565b6119b1565b005b3480156104e057600080fd5b506104fb60048036038101906104f6919061210f565b611b58565b60405161050891906126aa565b60405180910390f35b34801561051d57600080fd5b50610538600480360381019061053391906120b5565b611b60565b005b60608373ffffffffffffffffffffffffffffffffffffffff163373ffffffffffffffffffffffffffffffffffffffff161461057457600080fd5b600554341461058257600080fd5b60005b600680549050811015610693573373ffffffffffffffffffffffffffffffffffffffff16600682815481106105bd576105bc612baa565b5b906000526020600020906008020160000160009054906101000a900473ffffffffffffffffffffffffffffffffffffffff1673ffffffffffffffffffffffffffffffffffffffff1614156106805783600682815481106106205761061f612baa565b5b90600052602060002090600802016001019080519060200190610644929190611ede565b50826006828154811061065a57610659612baa565b5b9060005260206000209060080201600201908051906020019061067e929190611ede565b505b808061068b90612a6c565b915050610585565b509392505050565b6000919050565b816009600083815260200190815260200160002060006101000a81548173ffffffffffffffffffffffffffffffffffffffff021916908373ffffffffffffffffffffffffffffffffffffffff160217905550808273ffffffffffffffffffffffffffffffffffffffff163373ffffffffffffffffffffffffffffffffffffffff167f8c5be1e5ebec7d5bd14f71427d1e84f3dd0314c0f7b2291e5b200ac8c7c3b92560405160405180910390a45050565b60086020528060005260406000206000915090505481565b610776338383611c58565b505050565b60006001600860003373ffffffffffffffffffffffffffffffffffffffff1673ffffffffffffffffffffffffffffffffffffffff16815260200190815260200160002054106107ff576040517f08c379a00000000000000000000000000000000000000000000000000000000081526004016107f690612748565b60405180910390fd5b60066040518061010001604052803373ffffffffffffffffffffffffffffffffffffffff16815260200186815260200185815260200184815260200160008152602001600081526020016003544261085791906128bb565b63ffffffff168152602001600163ffffffff16815250908060018154018082558091505060019003906000526020600020906008020160009091909190915060008201518160000160006101000a81548173ffffffffffffffffffffffffffffffffffffffff021916908373ffffffffffffffffffffffffffffffffffffffff16021790555060208201518160010190805190602001906108f9929190611ede565b506040820151816002019080519060200190610916929190611ede565b506060820151816003019080519060200190610933929190611ede565b506080820151816004015560a0820151816005015560c0820151816006015560e08201518160070160006101000a81548163ffffffff021916908363ffffffff160217905550505060006006805490509050336007600083815260200190815260200160002060006101000a81548173ffffffffffffffffffffffffffffffffffffffff021916908373ffffffffffffffffffffffffffffffffffffffff160217905550600860003373ffffffffffffffffffffffffffffffffffffffff1673ffffffffffffffffffffffffffffffffffffffff1681526020019081526020016000206000815480929190610a2790612a6c565b919050555060026000815480929190610a3f90612a6c565b91905055506001600254610a539190612911565b9150509392505050565b505050565b60006007600083815260200190815260200160002060009054906101000a900473ffffffffffffffffffffffffffffffffffffffff169050919050565b60606004543414610aaf57600080fd5b60005b600680549050811015610bed578273ffffffffffffffffffffffffffffffffffffffff1660068281548110610aea57610ae9612baa565b5b906000526020600020906008020160000160009054906101000a900473ffffffffffffffffffffffffffffffffffffffff1673ffffffffffffffffffffffffffffffffffffffff161415610bda5760068181548110610b4c57610b4b612baa565b5b9060005260206000209060080201600701600081819054906101000a900463ffffffff1680929190610b7d90612ab5565b91906101000a81548163ffffffff021916908363ffffffff160217905550506040518060400160405280601281526020017f48612073756269646f206465206e6976656c0000000000000000000000000000815250915050610bef565b8080610be590612a6c565b915050610ab2565b505b919050565b6060600160068054905011610c3d577f6158fc8f21c8cc73ddf920956cc75d0e8a48b4fc85817a0ba89eb3b6d2a75441604051610c3090612788565b60405180910390a1611529565b813414610c4957600080fd5b60016000815480929190610c5c90612a6c565b9190505550600060068054905042600680549050600154604051602001610c85939291906125bf565b6040516020818303038152906040528051906020012060001c610ca89190612aec565b905060006007600083815260200190815260200160002060009054906101000a900473ffffffffffffffffffffffffffffffffffffffff16905060016000815480929190610cf590612a6c565b91905055506000606490506000814283600154604051602001610d1a939291906125bf565b6040516020818303038152906040528051906020012060001c610d3d9190612aec565b905060005b6006805490508110156115235760068181548110610d6357610d62612baa565b5b906000526020600020906008020160000160009054906101000a900473ffffffffffffffffffffffffffffffffffffffff1673ffffffffffffffffffffffffffffffffffffffff163373ffffffffffffffffffffffffffffffffffffffff16141561151057610df260068281548110610ddf57610dde612baa565b5b9060005260206000209060080201611d99565b610dfb57600080fd5b60068181548110610e0f57610e0e612baa565b5b90600052602060002090600802016005016000815480929190610e3190612a6c565b919050555060068581548110610e4a57610e49612baa565b5b90600052602060002090600802016005016000815480929190610e6c90612a6c565b9190505550610e9b60068281548110610e8857610e87612baa565b5b9060005260206000209060080201611daa565b60068181548110610eaf57610eae612baa565b5b906000526020600020906008020160070160009054906101000a900463ffffffff1663ffffffff1660068681548110610eeb57610eea612baa565b5b906000526020600020906008020160070160009054906101000a900463ffffffff1663ffffffff1610156110ec57603c821161100a57610f29611dc9565b60068181548110610f3d57610f3c612baa565b5b90600052602060002090600802016004016000815480929190610f5f90612a6c565b919050555060068181548110610f7857610f77612baa565b5b9060005260206000209060080201600701600081819054906101000a900463ffffffff1680929190610fa990612ab5565b91906101000a81548163ffffffff021916908363ffffffff160217905550506040518060400160405280600a81526020017f4861732067616e61646f000000000000000000000000000000000000000000008152509550505050505061152a565b7f6158fc8f21c8cc73ddf920956cc75d0e8a48b4fc85817a0ba89eb3b6d2a75441604051611037906127c8565b60405180910390a13073ffffffffffffffffffffffffffffffffffffffff1663e172fca8856040518263ffffffff1660e01b815260040161107891906125fc565b600060405180830381600087803b15801561109257600080fd5b505af11580156110a6573d6000803e3d6000fd5b505050506040518060400160405280600b81526020017f486173207065726469646f0000000000000000000000000000000000000000008152509550505050505061152a565b60068181548110611100576110ff612baa565b5b906000526020600020906008020160070160009054906101000a900463ffffffff1663ffffffff166006868154811061113c5761113b612baa565b5b906000526020600020906008020160070160009054906101000a900463ffffffff1663ffffffff16141561133d576032821161125b5761117a611dc9565b6006818154811061118e5761118d612baa565b5b906000526020600020906008020160040160008154809291906111b090612a6c565b9190505550600681815481106111c9576111c8612baa565b5b9060005260206000209060080201600701600081819054906101000a900463ffffffff16809291906111fa90612ab5565b91906101000a81548163ffffffff021916908363ffffffff160217905550506040518060400160405280600a81526020017f4861732067616e61646f000000000000000000000000000000000000000000008152509550505050505061152a565b7f6158fc8f21c8cc73ddf920956cc75d0e8a48b4fc85817a0ba89eb3b6d2a75441604051611288906127c8565b60405180910390a13073ffffffffffffffffffffffffffffffffffffffff1663e172fca8856040518263ffffffff1660e01b81526004016112c991906125fc565b600060405180830381600087803b1580156112e357600080fd5b505af11580156112f7573d6000803e3d6000fd5b505050506040518060400160405280600b81526020017f486173207065726469646f0000000000000000000000000000000000000000008152509550505050505061152a565b6028821161142e5761134d611dc9565b6006818154811061136157611360612baa565b5b9060005260206000209060080201600401600081548092919061138390612a6c565b91905055506006818154811061139c5761139b612baa565b5b9060005260206000209060080201600701600081819054906101000a900463ffffffff16809291906113cd90612ab5565b91906101000a81548163ffffffff021916908363ffffffff160217905550506040518060400160405280600a81526020017f4861732067616e61646f000000000000000000000000000000000000000000008152509550505050505061152a565b7f6158fc8f21c8cc73ddf920956cc75d0e8a48b4fc85817a0ba89eb3b6d2a7544160405161145b906127c8565b60405180910390a13073ffffffffffffffffffffffffffffffffffffffff1663e172fca8856040518263ffffffff1660e01b815260040161149c91906125fc565b600060405180830381600087803b1580156114b657600080fd5b505af11580156114ca573d6000803e3d6000fd5b505050506040518060400160405280600b81526020017f486173207065726469646f0000000000000000000000000000000000000000008152509550505050505061152a565b808061151b90612a6c565b915050610d42565b50505050505b5b919050565b6000600860008373ffffffffffffffffffffffffffffffffffffffff1673ffffffffffffffffffffffffffffffffffffffff168152602001908152602001600020549050919050565b611580611e12565b73ffffffffffffffffffffffffffffffffffffffff1661159e611633565b73ffffffffffffffffffffffffffffffffffffffff16146115f4576040517f08c379a00000000000000000000000000000000000000000000000000000000081526004016115eb906127a8565b60405180910390fd5b6115fe6000611e1a565b565b60076020528060005260406000206000915054906101000a900473ffffffffffffffffffffffffffffffffffffffff1681565b60008060009054906101000a900473ffffffffffffffffffffffffffffffffffffffff16905090565b5050565b60008054906101000a900473ffffffffffffffffffffffffffffffffffffffff1681565b3373ffffffffffffffffffffffffffffffffffffffff166009600083815260200190815260200160002060009054906101000a900473ffffffffffffffffffffffffffffffffffffffff1673ffffffffffffffffffffffffffffffffffffffff16146116ef57600080fd5b60003073ffffffffffffffffffffffffffffffffffffffff16636352211e836040518263ffffffff1660e01b815260040161172a91906127e8565b60206040518083038186803b15801561174257600080fd5b505afa158015611756573d6000803e3d6000fd5b505050506040513d601f19601f8201168201806040525081019061177a91906120e2565b9050611787813384611c58565b5050565b50505050565b600681815481106117a157600080fd5b90600052602060002090600802016000915090508060000160009054906101000a900473ffffffffffffffffffffffffffffffffffffffff16908060010180546117ea90612a09565b80601f016020809104026020016040519081016040528092919081815260200182805461181690612a09565b80156118635780601f1061183857610100808354040283529160200191611863565b820191906000526020600020905b81548152906001019060200180831161184657829003601f168201915b50505050509080600201805461187890612a09565b80601f01602080910402602001604051908101604052809291908181526020018280546118a490612a09565b80156118f15780601f106118c6576101008083540402835291602001916118f1565b820191906000526020600020905b8154815290600101906020018083116118d457829003601f168201915b50505050509080600301805461190690612a09565b80601f016020809104026020016040519081016040528092919081815260200182805461193290612a09565b801561197f5780601f106119545761010080835404028352916020019161197f565b820191906000526020600020905b81548152906001019060200180831161196257829003601f168201915b5050505050908060040154908060050154908060060154908060070160009054906101000a900463ffffffff16905088565b60005b600680549050811015611b54578173ffffffffffffffffffffffffffffffffffffffff16600682815481106119ec576119eb612baa565b5b906000526020600020906008020160000160009054906101000a900473ffffffffffffffffffffffffffffffffffffffff1673ffffffffffffffffffffffffffffffffffffffff161415611b41577f20fdb8ab571bfbab79104bea84f9c31cb79c5ae45b5f515c1d6c8393e002835060068281548110611a6f57611a6e612baa565b5b906000526020600020906008020160020160068381548110611a9457611a93612baa565b5b906000526020600020906008020160010160068481548110611ab957611ab8612baa565b5b906000526020600020906008020160070160009054906101000a900463ffffffff1660068581548110611aef57611aee612baa565b5b90600052602060002090600802016004015460068681548110611b1557611b14612baa565b5b906000526020600020906008020160050154604051611b389594939291906126e7565b60405180910390a15b8080611b4c90612a6c565b9150506119b4565b5050565b600092915050565b611b68611e12565b73ffffffffffffffffffffffffffffffffffffffff16611b86611633565b73ffffffffffffffffffffffffffffffffffffffff1614611bdc576040517f08c379a0000000000000000000000000000000000000000000000000000000008152600401611bd3906127a8565b60405180910390fd5b600073ffffffffffffffffffffffffffffffffffffffff168173ffffffffffffffffffffffffffffffffffffffff161415611c4c576040517f08c379a0000000000000000000000000000000000000000000000000000000008152600401611c4390612768565b60405180910390fd5b611c5581611e1a565b50565b600860008373ffffffffffffffffffffffffffffffffffffffff1673ffffffffffffffffffffffffffffffffffffffff1681526020019081526020016000206000815480929190611ca890612a6c565b9190505550600860008473ffffffffffffffffffffffffffffffffffffffff1673ffffffffffffffffffffffffffffffffffffffff1681526020019081526020016000206000815480929190611cfd906129df565b91905055508173ffffffffffffffffffffffffffffffffffffffff166007600083815260200190815260200160002060009054906101000a90505050808273ffffffffffffffffffffffffffffffffffffffff168473ffffffffffffffffffffffffffffffffffffffff167fddf252ad1be2c89b69c2b068fc378daa952ba7f163c4a11628f55a4df523b3ef60405160405180910390a4505050565b600042826006015411159050919050565b60035442611db891906128bb565b63ffffffff16816006018190555050565b3373ffffffffffffffffffffffffffffffffffffffff166108fc479081150290604051600060405180830381858888f19350505050158015611e0f573d6000803e3d6000fd5b50565b600033905090565b60008060009054906101000a900473ffffffffffffffffffffffffffffffffffffffff169050816000806101000a81548173ffffffffffffffffffffffffffffffffffffffff021916908373ffffffffffffffffffffffffffffffffffffffff1602179055508173ffffffffffffffffffffffffffffffffffffffff168173ffffffffffffffffffffffffffffffffffffffff167f8be0079c531659141344cd1fd0a4f28419497f9722a3daafe3b4186f6b6457e060405160405180910390a35050565b828054611eea90612a09565b90600052602060002090601f016020900481019282611f0c5760008555611f53565b82601f10611f2557805160ff1916838001178555611f53565b82800160010185558215611f53579182015b82811115611f52578251825591602001919060010190611f37565b5b509050611f609190611f64565b5090565b5b80821115611f7d576000816000905550600101611f65565b5090565b6000611f94611f8f84612828565b612803565b905082815260208101848484011115611fb057611faf612c0d565b5b611fbb84828561299d565b509392505050565b6000611fd6611fd184612859565b612803565b905082815260208101848484011115611ff257611ff1612c0d565b5b611ffd84828561299d565b509392505050565b60008135905061201481612d6c565b92915050565b60008151905061202981612d6c565b92915050565b60008135905061203e81612d83565b92915050565b600082601f83011261205957612058612c08565b5b8135612069848260208601611f81565b91505092915050565b600082601f83011261208757612086612c08565b5b8135612097848260208601611fc3565b91505092915050565b6000813590506120af81612d9a565b92915050565b6000602082840312156120cb576120ca612c17565b5b60006120d984828501612005565b91505092915050565b6000602082840312156120f8576120f7612c17565b5b60006121068482850161201a565b91505092915050565b6000806040838503121561212657612125612c17565b5b600061213485828601612005565b925050602061214585828601612005565b9150509250929050565b60008060006060848603121561216857612167612c17565b5b600061217686828701612005565b935050602061218786828701612005565b9250506040612198868287016120a0565b9150509250925092565b600080600080608085870312156121bc576121bb612c17565b5b60006121ca87828801612005565b94505060206121db87828801612005565b93505060406121ec878288016120a0565b925050606085013567ffffffffffffffff81111561220d5761220c612c12565b5b61221987828801612044565b91505092959194509250565b6000806040838503121561223c5761223b612c17565b5b600061224a85828601612005565b925050602061225b8582860161202f565b9150509250929050565b60008060006060848603121561227e5761227d612c17565b5b600061228c86828701612005565b935050602084013567ffffffffffffffff8111156122ad576122ac612c12565b5b6122b986828701612072565b925050604084013567ffffffffffffffff8111156122da576122d9612c12565b5b6122e686828701612072565b9150509250925092565b6000806040838503121561230757612306612c17565b5b600061231585828601612005565b9250506020612326858286016120a0565b9150509250929050565b60008060006060848603121561234957612348612c17565b5b600084013567ffffffffffffffff81111561236757612366612c12565b5b61237386828701612072565b935050602084013567ffffffffffffffff81111561239457612393612c12565b5b6123a086828701612072565b925050604084013567ffffffffffffffff8111156123c1576123c0612c12565b5b6123cd86828701612072565b9150509250925092565b6000602082840312156123ed576123ec612c17565b5b60006123fb848285016120a0565b91505092915050565b61240d81612945565b82525050565b61241c81612957565b82525050565b600061242d8261289f565b61243781856128aa565b93506124478185602086016129ac565b61245081612c1c565b840191505092915050565b6000815461246881612a09565b61247281866128aa565b9450600182166000811461248d576001811461249f576124d2565b60ff19831686526020860193506124d2565b6124a88561288a565b60005b838110156124ca578154818901526001820191506020810190506124ab565b808801955050505b50505092915050565b60006124e86028836128aa565b91506124f382612c2d565b604082019050919050565b600061250b6026836128aa565b915061251682612c7c565b604082019050919050565b600061252e6032836128aa565b915061253982612ccb565b604082019050919050565b60006125516020836128aa565b915061255c82612d1a565b602082019050919050565b60006125746015836128aa565b915061257f82612d43565b602082019050919050565b61259381612983565b82525050565b6125aa6125a582612983565b612ae2565b82525050565b6125b98161298d565b82525050565b60006125cb8286612599565b6020820191506125db8285612599565b6020820191506125eb8284612599565b602082019150819050949350505050565b60006020820190506126116000830184612404565b92915050565b60006101008201905061262d600083018b612404565b818103602083015261263f818a612422565b905081810360408301526126538189612422565b905081810360608301526126678188612422565b9050612676608083018761258a565b61268360a083018661258a565b61269060c083018561258a565b61269d60e08301846125b0565b9998505050505050505050565b60006020820190506126bf6000830184612413565b92915050565b600060208201905081810360008301526126df8184612422565b905092915050565b600060a0820190508181036000830152612701818861245b565b90508181036020830152612715818761245b565b905061272460408301866125b0565b612731606083018561258a565b61273e608083018461258a565b9695505050505050565b60006020820190508181036000830152612761816124db565b9050919050565b60006020820190508181036000830152612781816124fe565b9050919050565b600060208201905081810360008301526127a181612521565b9050919050565b600060208201905081810360008301526127c181612544565b9050919050565b600060208201905081810360008301526127e181612567565b9050919050565b60006020820190506127fd600083018461258a565b92915050565b600061280d61281e565b90506128198282612a3b565b919050565b6000604051905090565b600067ffffffffffffffff82111561284357612842612bd9565b5b61284c82612c1c565b9050602081019050919050565b600067ffffffffffffffff82111561287457612873612bd9565b5b61287d82612c1c565b9050602081019050919050565b60008190508160005260206000209050919050565b600081519050919050565b600082825260208201905092915050565b60006128c682612983565b91506128d183612983565b9250827fffffffffffffffffffffffffffffffffffffffffffffffffffffffffffffffff0382111561290657612905612b1d565b5b828201905092915050565b600061291c82612983565b915061292783612983565b92508282101561293a57612939612b1d565b5b828203905092915050565b600061295082612963565b9050919050565b60008115159050919050565b600073ffffffffffffffffffffffffffffffffffffffff82169050919050565b6000819050919050565b600063ffffffff82169050919050565b82818337600083830152505050565b60005b838110156129ca5780820151818401526020810190506129af565b838111156129d9576000848401525b50505050565b60006129ea82612983565b915060008214156129fe576129fd612b1d565b5b600182039050919050565b60006002820490506001821680612a2157607f821691505b60208210811415612a3557612a34612b7b565b5b50919050565b612a4482612c1c565b810181811067ffffffffffffffff82111715612a6357612a62612bd9565b5b80604052505050565b6000612a7782612983565b91507fffffffffffffffffffffffffffffffffffffffffffffffffffffffffffffffff821415612aaa57612aa9612b1d565b5b600182019050919050565b6000612ac08261298d565b915063ffffffff821415612ad757612ad6612b1d565b5b600182019050919050565b6000819050919050565b6000612af782612983565b9150612b0283612983565b925082612b1257612b11612b4c565b5b828206905092915050565b7f4e487b7100000000000000000000000000000000000000000000000000000000600052601160045260246000fd5b7f4e487b7100000000000000000000000000000000000000000000000000000000600052601260045260246000fd5b7f4e487b7100000000000000000000000000000000000000000000000000000000600052602260045260246000fd5b7f4e487b7100000000000000000000000000000000000000000000000000000000600052603260045260246000fd5b7f4e487b7100000000000000000000000000000000000000000000000000000000600052604160045260246000fd5b600080fd5b600080fd5b600080fd5b600080fd5b6000601f19601f8301169050919050565b7f536f6c6f2073652070756564652074656e657220756e20636f63686520706f7260008201527f20706572736f6e61000000000000000000000000000000000000000000000000602082015250565b7f4f776e61626c653a206e6577206f776e657220697320746865207a65726f206160008201527f6464726573730000000000000000000000000000000000000000000000000000602082015250565b7f4e6f2068617920636f6368657320737566696369656e7465732070617261206960008201527f6e696369617220756e6120636172726572610000000000000000000000000000602082015250565b7f4f776e61626c653a2063616c6c6572206973206e6f7420746865206f776e6572600082015250565b7f456c20636f6368652067616e61646f722065733a200000000000000000000000600082015250565b612d7581612945565b8114612d8057600080fd5b50565b612d8c81612957565b8114612d9757600080fd5b50565b612da381612983565b8114612dae57600080fd5b5056fea26469706673582212206f6acc9490ef8a5932c0afb8f81e90f4eee69b463cb5e0474b57fac6ee007a3a64736f6c63430008070033",
					"opcodes": "PUSH1 0x80 PUSH1 0x40 MSTORE PUSH1 0x0 PUSH1 0x1 SSTORE PUSH1 0x0 PUSH1 0x2 SSTORE PUSH1 0x3C PUSH1 0x3 SSTORE PUSH8 0xDE0B6B3A7640000 PUSH1 0x4 SSTORE PUSH8 0x1BC16D674EC80000 PUSH1 0x5 SSTORE CALLVALUE DUP1 ISZERO PUSH3 0x38 JUMPI PUSH1 0x0 DUP1 REVERT JUMPDEST POP PUSH3 0x59 PUSH3 0x4D PUSH3 0x5F PUSH1 0x20 SHL PUSH1 0x20 SHR JUMP JUMPDEST PUSH3 0x67 PUSH1 0x20 SHL PUSH1 0x20 SHR JUMP JUMPDEST PUSH3 0x12B JUMP JUMPDEST PUSH1 0x0 CALLER SWAP1 POP SWAP1 JUMP JUMPDEST PUSH1 0x0 DUP1 PUSH1 0x0 SWAP1 SLOAD SWAP1 PUSH2 0x100 EXP SWAP1 DIV PUSH20 0xFFFFFFFFFFFFFFFFFFFFFFFFFFFFFFFFFFFFFFFF AND SWAP1 POP DUP2 PUSH1 0x0 DUP1 PUSH2 0x100 EXP DUP2 SLOAD DUP2 PUSH20 0xFFFFFFFFFFFFFFFFFFFFFFFFFFFFFFFFFFFFFFFF MUL NOT AND SWAP1 DUP4 PUSH20 0xFFFFFFFFFFFFFFFFFFFFFFFFFFFFFFFFFFFFFFFF AND MUL OR SWAP1 SSTORE POP DUP2 PUSH20 0xFFFFFFFFFFFFFFFFFFFFFFFFFFFFFFFFFFFFFFFF AND DUP2 PUSH20 0xFFFFFFFFFFFFFFFFFFFFFFFFFFFFFFFFFFFFFFFF AND PUSH32 0x8BE0079C531659141344CD1FD0A4F28419497F9722A3DAAFE3B4186F6B6457E0 PUSH1 0x40 MLOAD PUSH1 0x40 MLOAD DUP1 SWAP2 SUB SWAP1 LOG3 POP POP JUMP JUMPDEST PUSH2 0x2DE7 DUP1 PUSH3 0x13B PUSH1 0x0 CODECOPY PUSH1 0x0 RETURN INVALID PUSH1 0x80 PUSH1 0x40 MSTORE PUSH1 0x4 CALLDATASIZE LT PUSH2 0x135 JUMPI PUSH1 0x0 CALLDATALOAD PUSH1 0xE0 SHR DUP1 PUSH4 0x715018A6 GT PUSH2 0xAB JUMPI DUP1 PUSH4 0xB2E6CEEB GT PUSH2 0x6F JUMPI DUP1 PUSH4 0xB2E6CEEB EQ PUSH2 0x422 JUMPI DUP1 PUSH4 0xB88D4FDE EQ PUSH2 0x44B JUMPI DUP1 PUSH4 0xD735573D EQ PUSH2 0x467 JUMPI DUP1 PUSH4 0xE172FCA8 EQ PUSH2 0x4AB JUMPI DUP1 PUSH4 0xE985E9C5 EQ PUSH2 0x4D4 JUMPI DUP1 PUSH4 0xF2FDE38B EQ PUSH2 0x511 JUMPI PUSH2 0x135 JUMP JUMPDEST DUP1 PUSH4 0x715018A6 EQ PUSH2 0x34F JUMPI DUP1 PUSH4 0x858B0554 EQ PUSH2 0x366 JUMPI DUP1 PUSH4 0x8DA5CB5B EQ PUSH2 0x3A3 JUMPI DUP1 PUSH4 0xA22CB465 EQ PUSH2 0x3CE JUMPI DUP1 PUSH4 0xB2BDFA7B EQ PUSH2 0x3F7 JUMPI PUSH2 0x135 JUMP JUMPDEST DUP1 PUSH4 0x2458C544 GT PUSH2 0xFD JUMPI DUP1 PUSH4 0x2458C544 EQ PUSH2 0x21C JUMPI DUP1 PUSH4 0x42842E0E EQ PUSH2 0x259 JUMPI DUP1 PUSH4 0x6352211E EQ PUSH2 0x275 JUMPI DUP1 PUSH4 0x6A7D1816 EQ PUSH2 0x2B2 JUMPI DUP1 PUSH4 0x6B6F0494 EQ PUSH2 0x2E2 JUMPI DUP1 PUSH4 0x70A08231 EQ PUSH2 0x312 JUMPI PUSH2 0x135 JUMP JUMPDEST DUP1 PUSH4 0x49A5F65 EQ PUSH2 0x13A JUMPI DUP1 PUSH4 0x81812FC EQ PUSH2 0x16A JUMPI DUP1 PUSH4 0x95EA7B3 EQ PUSH2 0x1A7 JUMPI DUP1 PUSH4 0x1C6743E4 EQ PUSH2 0x1C3 JUMPI DUP1 PUSH4 0x23B872DD EQ PUSH2 0x200 JUMPI JUMPDEST PUSH1 0x0 DUP1 REVERT JUMPDEST PUSH2 0x154 PUSH1 0x4 DUP1 CALLDATASIZE SUB DUP2 ADD SWAP1 PUSH2 0x14F SWAP2 SWAP1 PUSH2 0x2265 JUMP JUMPDEST PUSH2 0x53A JUMP JUMPDEST PUSH1 0x40 MLOAD PUSH2 0x161 SWAP2 SWAP1 PUSH2 0x26C5 JUMP JUMPDEST PUSH1 0x40 MLOAD DUP1 SWAP2 SUB SWAP1 RETURN JUMPDEST CALLVALUE DUP1 ISZERO PUSH2 0x176 JUMPI PUSH1 0x0 DUP1 REVERT JUMPDEST POP PUSH2 0x191 PUSH1 0x4 DUP1 CALLDATASIZE SUB DUP2 ADD SWAP1 PUSH2 0x18C SWAP2 SWAP1 PUSH2 0x23D7 JUMP JUMPDEST PUSH2 0x69B JUMP JUMPDEST PUSH1 0x40 MLOAD PUSH2 0x19E SWAP2 SWAP1 PUSH2 0x25FC JUMP JUMPDEST PUSH1 0x40 MLOAD DUP1 SWAP2 SUB SWAP1 RETURN JUMPDEST PUSH2 0x1C1 PUSH1 0x4 DUP1 CALLDATASIZE SUB DUP2 ADD SWAP1 PUSH2 0x1BC SWAP2 SWAP1 PUSH2 0x22F0 JUMP JUMPDEST PUSH2 0x6A2 JUMP JUMPDEST STOP JUMPDEST CALLVALUE DUP1 ISZERO PUSH2 0x1CF JUMPI PUSH1 0x0 DUP1 REVERT JUMPDEST POP PUSH2 0x1EA PUSH1 0x4 DUP1 CALLDATASIZE SUB DUP2 ADD SWAP1 PUSH2 0x1E5 SWAP2 SWAP1 PUSH2 0x20B5 JUMP JUMPDEST PUSH2 0x753 JUMP JUMPDEST PUSH1 0x40 MLOAD PUSH2 0x1F7 SWAP2 SWAP1 PUSH2 0x27E8 JUMP JUMPDEST PUSH1 0x40 MLOAD DUP1 SWAP2 SUB SWAP1 RETURN JUMPDEST PUSH2 0x21A PUSH1 0x4 DUP1 CALLDATASIZE SUB DUP2 ADD SWAP1 PUSH2 0x215 SWAP2 SWAP1 PUSH2 0x214F JUMP JUMPDEST PUSH2 0x76B JUMP JUMPDEST STOP JUMPDEST CALLVALUE DUP1 ISZERO PUSH2 0x228 JUMPI PUSH1 0x0 DUP1 REVERT JUMPDEST POP PUSH2 0x243 PUSH1 0x4 DUP1 CALLDATASIZE SUB DUP2 ADD SWAP1 PUSH2 0x23E SWAP2 SWAP1 PUSH2 0x2330 JUMP JUMPDEST PUSH2 0x77B JUMP JUMPDEST PUSH1 0x40 MLOAD PUSH2 0x250 SWAP2 SWAP1 PUSH2 0x27E8 JUMP JUMPDEST PUSH1 0x40 MLOAD DUP1 SWAP2 SUB SWAP1 RETURN JUMPDEST PUSH2 0x273 PUSH1 0x4 DUP1 CALLDATASIZE SUB DUP2 ADD SWAP1 PUSH2 0x26E SWAP2 SWAP1 PUSH2 0x214F JUMP JUMPDEST PUSH2 0xA5D JUMP JUMPDEST STOP JUMPDEST CALLVALUE DUP1 ISZERO PUSH2 0x281 JUMPI PUSH1 0x0 DUP1 REVERT JUMPDEST POP PUSH2 0x29C PUSH1 0x4 DUP1 CALLDATASIZE SUB DUP2 ADD SWAP1 PUSH2 0x297 SWAP2 SWAP1 PUSH2 0x23D7 JUMP JUMPDEST PUSH2 0xA62 JUMP JUMPDEST PUSH1 0x40 MLOAD PUSH2 0x2A9 SWAP2 SWAP1 PUSH2 0x25FC JUMP JUMPDEST PUSH1 0x40 MLOAD DUP1 SWAP2 SUB SWAP1 RETURN JUMPDEST PUSH2 0x2CC PUSH1 0x4 DUP1 CALLDATASIZE SUB DUP2 ADD SWAP1 PUSH2 0x2C7 SWAP2 SWAP1 PUSH2 0x20B5 JUMP JUMPDEST PUSH2 0xA9F JUMP JUMPDEST PUSH1 0x40 MLOAD PUSH2 0x2D9 SWAP2 SWAP1 PUSH2 0x26C5 JUMP JUMPDEST PUSH1 0x40 MLOAD DUP1 SWAP2 SUB SWAP1 RETURN JUMPDEST PUSH2 0x2FC PUSH1 0x4 DUP1 CALLDATASIZE SUB DUP2 ADD SWAP1 PUSH2 0x2F7 SWAP2 SWAP1 PUSH2 0x23D7 JUMP JUMPDEST PUSH2 0xBF4 JUMP JUMPDEST PUSH1 0x40 MLOAD PUSH2 0x309 SWAP2 SWAP1 PUSH2 0x26C5 JUMP JUMPDEST PUSH1 0x40 MLOAD DUP1 SWAP2 SUB SWAP1 RETURN JUMPDEST CALLVALUE DUP1 ISZERO PUSH2 0x31E JUMPI PUSH1 0x0 DUP1 REVERT JUMPDEST POP PUSH2 0x339 PUSH1 0x4 DUP1 CALLDATASIZE SUB DUP2 ADD SWAP1 PUSH2 0x334 SWAP2 SWAP1 PUSH2 0x20B5 JUMP JUMPDEST PUSH2 0x152F JUMP JUMPDEST PUSH1 0x40 MLOAD PUSH2 0x346 SWAP2 SWAP1 PUSH2 0x27E8 JUMP JUMPDEST PUSH1 0x40 MLOAD DUP1 SWAP2 SUB SWAP1 RETURN JUMPDEST CALLVALUE DUP1 ISZERO PUSH2 0x35B JUMPI PUSH1 0x0 DUP1 REVERT JUMPDEST POP PUSH2 0x364 PUSH2 0x1578 JUMP JUMPDEST STOP JUMPDEST CALLVALUE DUP1 ISZERO PUSH2 0x372 JUMPI PUSH1 0x0 DUP1 REVERT JUMPDEST POP PUSH2 0x38D PUSH1 0x4 DUP1 CALLDATASIZE SUB DUP2 ADD SWAP1 PUSH2 0x388 SWAP2 SWAP1 PUSH2 0x23D7 JUMP JUMPDEST PUSH2 0x1600 JUMP JUMPDEST PUSH1 0x40 MLOAD PUSH2 0x39A SWAP2 SWAP1 PUSH2 0x25FC JUMP JUMPDEST PUSH1 0x40 MLOAD DUP1 SWAP2 SUB SWAP1 RETURN JUMPDEST CALLVALUE DUP1 ISZERO PUSH2 0x3AF JUMPI PUSH1 0x0 DUP1 REVERT JUMPDEST POP PUSH2 0x3B8 PUSH2 0x1633 JUMP JUMPDEST PUSH1 0x40 MLOAD PUSH2 0x3C5 SWAP2 SWAP1 PUSH2 0x25FC JUMP JUMPDEST PUSH1 0x40 MLOAD DUP1 SWAP2 SUB SWAP1 RETURN JUMPDEST CALLVALUE DUP1 ISZERO PUSH2 0x3DA JUMPI PUSH1 0x0 DUP1 REVERT JUMPDEST POP PUSH2 0x3F5 PUSH1 0x4 DUP1 CALLDATASIZE SUB DUP2 ADD SWAP1 PUSH2 0x3F0 SWAP2 SWAP1 PUSH2 0x2225 JUMP JUMPDEST PUSH2 0x165C JUMP JUMPDEST STOP JUMPDEST CALLVALUE DUP1 ISZERO PUSH2 0x403 JUMPI PUSH1 0x0 DUP1 REVERT JUMPDEST POP PUSH2 0x40C PUSH2 0x1660 JUMP JUMPDEST PUSH1 0x40 MLOAD PUSH2 0x419 SWAP2 SWAP1 PUSH2 0x25FC JUMP JUMPDEST PUSH1 0x40 MLOAD DUP1 SWAP2 SUB SWAP1 RETURN JUMPDEST CALLVALUE DUP1 ISZERO PUSH2 0x42E JUMPI PUSH1 0x0 DUP1 REVERT JUMPDEST POP PUSH2 0x449 PUSH1 0x4 DUP1 CALLDATASIZE SUB DUP2 ADD SWAP1 PUSH2 0x444 SWAP2 SWAP1 PUSH2 0x23D7 JUMP JUMPDEST PUSH2 0x1684 JUMP JUMPDEST STOP JUMPDEST PUSH2 0x465 PUSH1 0x4 DUP1 CALLDATASIZE SUB DUP2 ADD SWAP1 PUSH2 0x460 SWAP2 SWAP1 PUSH2 0x21A2 JUMP JUMPDEST PUSH2 0x178B JUMP JUMPDEST STOP JUMPDEST CALLVALUE DUP1 ISZERO PUSH2 0x473 JUMPI PUSH1 0x0 DUP1 REVERT JUMPDEST POP PUSH2 0x48E PUSH1 0x4 DUP1 CALLDATASIZE SUB DUP2 ADD SWAP1 PUSH2 0x489 SWAP2 SWAP1 PUSH2 0x23D7 JUMP JUMPDEST PUSH2 0x1791 JUMP JUMPDEST PUSH1 0x40 MLOAD PUSH2 0x4A2 SWAP9 SWAP8 SWAP7 SWAP6 SWAP5 SWAP4 SWAP3 SWAP2 SWAP1 PUSH2 0x2617 JUMP JUMPDEST PUSH1 0x40 MLOAD DUP1 SWAP2 SUB SWAP1 RETURN JUMPDEST CALLVALUE DUP1 ISZERO PUSH2 0x4B7 JUMPI PUSH1 0x0 DUP1 REVERT JUMPDEST POP PUSH2 0x4D2 PUSH1 0x4 DUP1 CALLDATASIZE SUB DUP2 ADD SWAP1 PUSH2 0x4CD SWAP2 SWAP1 PUSH2 0x20B5 JUMP JUMPDEST PUSH2 0x19B1 JUMP JUMPDEST STOP JUMPDEST CALLVALUE DUP1 ISZERO PUSH2 0x4E0 JUMPI PUSH1 0x0 DUP1 REVERT JUMPDEST POP PUSH2 0x4FB PUSH1 0x4 DUP1 CALLDATASIZE SUB DUP2 ADD SWAP1 PUSH2 0x4F6 SWAP2 SWAP1 PUSH2 0x210F JUMP JUMPDEST PUSH2 0x1B58 JUMP JUMPDEST PUSH1 0x40 MLOAD PUSH2 0x508 SWAP2 SWAP1 PUSH2 0x26AA JUMP JUMPDEST PUSH1 0x40 MLOAD DUP1 SWAP2 SUB SWAP1 RETURN JUMPDEST CALLVALUE DUP1 ISZERO PUSH2 0x51D JUMPI PUSH1 0x0 DUP1 REVERT JUMPDEST POP PUSH2 0x538 PUSH1 0x4 DUP1 CALLDATASIZE SUB DUP2 ADD SWAP1 PUSH2 0x533 SWAP2 SWAP1 PUSH2 0x20B5 JUMP JUMPDEST PUSH2 0x1B60 JUMP JUMPDEST STOP JUMPDEST PUSH1 0x60 DUP4 PUSH20 0xFFFFFFFFFFFFFFFFFFFFFFFFFFFFFFFFFFFFFFFF AND CALLER PUSH20 0xFFFFFFFFFFFFFFFFFFFFFFFFFFFFFFFFFFFFFFFF AND EQ PUSH2 0x574 JUMPI PUSH1 0x0 DUP1 REVERT JUMPDEST PUSH1 0x5 SLOAD CALLVALUE EQ PUSH2 0x582 JUMPI PUSH1 0x0 DUP1 REVERT JUMPDEST PUSH1 0x0 JUMPDEST PUSH1 0x6 DUP1 SLOAD SWAP1 POP DUP2 LT ISZERO PUSH2 0x693 JUMPI CALLER PUSH20 0xFFFFFFFFFFFFFFFFFFFFFFFFFFFFFFFFFFFFFFFF AND PUSH1 0x6 DUP3 DUP2 SLOAD DUP2 LT PUSH2 0x5BD JUMPI PUSH2 0x5BC PUSH2 0x2BAA JUMP JUMPDEST JUMPDEST SWAP1 PUSH1 0x0 MSTORE PUSH1 0x20 PUSH1 0x0 KECCAK256 SWAP1 PUSH1 0x8 MUL ADD PUSH1 0x0 ADD PUSH1 0x0 SWAP1 SLOAD SWAP1 PUSH2 0x100 EXP SWAP1 DIV PUSH20 0xFFFFFFFFFFFFFFFFFFFFFFFFFFFFFFFFFFFFFFFF AND PUSH20 0xFFFFFFFFFFFFFFFFFFFFFFFFFFFFFFFFFFFFFFFF AND EQ ISZERO PUSH2 0x680 JUMPI DUP4 PUSH1 0x6 DUP3 DUP2 SLOAD DUP2 LT PUSH2 0x620 JUMPI PUSH2 0x61F PUSH2 0x2BAA JUMP JUMPDEST JUMPDEST SWAP1 PUSH1 0x0 MSTORE PUSH1 0x20 PUSH1 0x0 KECCAK256 SWAP1 PUSH1 0x8 MUL ADD PUSH1 0x1 ADD SWAP1 DUP1 MLOAD SWAP1 PUSH1 0x20 ADD SWAP1 PUSH2 0x644 SWAP3 SWAP2 SWAP1 PUSH2 0x1EDE JUMP JUMPDEST POP DUP3 PUSH1 0x6 DUP3 DUP2 SLOAD DUP2 LT PUSH2 0x65A JUMPI PUSH2 0x659 PUSH2 0x2BAA JUMP JUMPDEST JUMPDEST SWAP1 PUSH1 0x0 MSTORE PUSH1 0x20 PUSH1 0x0 KECCAK256 SWAP1 PUSH1 0x8 MUL ADD PUSH1 0x2 ADD SWAP1 DUP1 MLOAD SWAP1 PUSH1 0x20 ADD SWAP1 PUSH2 0x67E SWAP3 SWAP2 SWAP1 PUSH2 0x1EDE JUMP JUMPDEST POP JUMPDEST DUP1 DUP1 PUSH2 0x68B SWAP1 PUSH2 0x2A6C JUMP JUMPDEST SWAP2 POP POP PUSH2 0x585 JUMP JUMPDEST POP SWAP4 SWAP3 POP POP POP JUMP JUMPDEST PUSH1 0x0 SWAP2 SWAP1 POP JUMP JUMPDEST DUP2 PUSH1 0x9 PUSH1 0x0 DUP4 DUP2 MSTORE PUSH1 0x20 ADD SWAP1 DUP2 MSTORE PUSH1 0x20 ADD PUSH1 0x0 KECCAK256 PUSH1 0x0 PUSH2 0x100 EXP DUP2 SLOAD DUP2 PUSH20 0xFFFFFFFFFFFFFFFFFFFFFFFFFFFFFFFFFFFFFFFF MUL NOT AND SWAP1 DUP4 PUSH20 0xFFFFFFFFFFFFFFFFFFFFFFFFFFFFFFFFFFFFFFFF AND MUL OR SWAP1 SSTORE POP DUP1 DUP3 PUSH20 0xFFFFFFFFFFFFFFFFFFFFFFFFFFFFFFFFFFFFFFFF AND CALLER PUSH20 0xFFFFFFFFFFFFFFFFFFFFFFFFFFFFFFFFFFFFFFFF AND PUSH32 0x8C5BE1E5EBEC7D5BD14F71427D1E84F3DD0314C0F7B2291E5B200AC8C7C3B925 PUSH1 0x40 MLOAD PUSH1 0x40 MLOAD DUP1 SWAP2 SUB SWAP1 LOG4 POP POP JUMP JUMPDEST PUSH1 0x8 PUSH1 0x20 MSTORE DUP1 PUSH1 0x0 MSTORE PUSH1 0x40 PUSH1 0x0 KECCAK256 PUSH1 0x0 SWAP2 POP SWAP1 POP SLOAD DUP2 JUMP JUMPDEST PUSH2 0x776 CALLER DUP4 DUP4 PUSH2 0x1C58 JUMP JUMPDEST POP POP POP JUMP JUMPDEST PUSH1 0x0 PUSH1 0x1 PUSH1 0x8 PUSH1 0x0 CALLER PUSH20 0xFFFFFFFFFFFFFFFFFFFFFFFFFFFFFFFFFFFFFFFF AND PUSH20 0xFFFFFFFFFFFFFFFFFFFFFFFFFFFFFFFFFFFFFFFF AND DUP2 MSTORE PUSH1 0x20 ADD SWAP1 DUP2 MSTORE PUSH1 0x20 ADD PUSH1 0x0 KECCAK256 SLOAD LT PUSH2 0x7FF JUMPI PUSH1 0x40 MLOAD PUSH32 0x8C379A000000000000000000000000000000000000000000000000000000000 DUP2 MSTORE PUSH1 0x4 ADD PUSH2 0x7F6 SWAP1 PUSH2 0x2748 JUMP JUMPDEST PUSH1 0x40 MLOAD DUP1 SWAP2 SUB SWAP1 REVERT JUMPDEST PUSH1 0x6 PUSH1 0x40 MLOAD DUP1 PUSH2 0x100 ADD PUSH1 0x40 MSTORE DUP1 CALLER PUSH20 0xFFFFFFFFFFFFFFFFFFFFFFFFFFFFFFFFFFFFFFFF AND DUP2 MSTORE PUSH1 0x20 ADD DUP7 DUP2 MSTORE PUSH1 0x20 ADD DUP6 DUP2 MSTORE PUSH1 0x20 ADD DUP5 DUP2 MSTORE PUSH1 0x20 ADD PUSH1 0x0 DUP2 MSTORE PUSH1 0x20 ADD PUSH1 0x0 DUP2 MSTORE PUSH1 0x20 ADD PUSH1 0x3 SLOAD TIMESTAMP PUSH2 0x857 SWAP2 SWAP1 PUSH2 0x28BB JUMP JUMPDEST PUSH4 0xFFFFFFFF AND DUP2 MSTORE PUSH1 0x20 ADD PUSH1 0x1 PUSH4 0xFFFFFFFF AND DUP2 MSTORE POP SWAP1 DUP1 PUSH1 0x1 DUP2 SLOAD ADD DUP1 DUP3 SSTORE DUP1 SWAP2 POP POP PUSH1 0x1 SWAP1 SUB SWAP1 PUSH1 0x0 MSTORE PUSH1 0x20 PUSH1 0x0 KECCAK256 SWAP1 PUSH1 0x8 MUL ADD PUSH1 0x0 SWAP1 SWAP2 SWAP1 SWAP2 SWAP1 SWAP2 POP PUSH1 0x0 DUP3 ADD MLOAD DUP2 PUSH1 0x0 ADD PUSH1 0x0 PUSH2 0x100 EXP DUP2 SLOAD DUP2 PUSH20 0xFFFFFFFFFFFFFFFFFFFFFFFFFFFFFFFFFFFFFFFF MUL NOT AND SWAP1 DUP4 PUSH20 0xFFFFFFFFFFFFFFFFFFFFFFFFFFFFFFFFFFFFFFFF AND MUL OR SWAP1 SSTORE POP PUSH1 0x20 DUP3 ADD MLOAD DUP2 PUSH1 0x1 ADD SWAP1 DUP1 MLOAD SWAP1 PUSH1 0x20 ADD SWAP1 PUSH2 0x8F9 SWAP3 SWAP2 SWAP1 PUSH2 0x1EDE JUMP JUMPDEST POP PUSH1 0x40 DUP3 ADD MLOAD DUP2 PUSH1 0x2 ADD SWAP1 DUP1 MLOAD SWAP1 PUSH1 0x20 ADD SWAP1 PUSH2 0x916 SWAP3 SWAP2 SWAP1 PUSH2 0x1EDE JUMP JUMPDEST POP PUSH1 0x60 DUP3 ADD MLOAD DUP2 PUSH1 0x3 ADD SWAP1 DUP1 MLOAD SWAP1 PUSH1 0x20 ADD SWAP1 PUSH2 0x933 SWAP3 SWAP2 SWAP1 PUSH2 0x1EDE JUMP JUMPDEST POP PUSH1 0x80 DUP3 ADD MLOAD DUP2 PUSH1 0x4 ADD SSTORE PUSH1 0xA0 DUP3 ADD MLOAD DUP2 PUSH1 0x5 ADD SSTORE PUSH1 0xC0 DUP3 ADD MLOAD DUP2 PUSH1 0x6 ADD SSTORE PUSH1 0xE0 DUP3 ADD MLOAD DUP2 PUSH1 0x7 ADD PUSH1 0x0 PUSH2 0x100 EXP DUP2 SLOAD DUP2 PUSH4 0xFFFFFFFF MUL NOT AND SWAP1 DUP4 PUSH4 0xFFFFFFFF AND MUL OR SWAP1 SSTORE POP POP POP PUSH1 0x0 PUSH1 0x6 DUP1 SLOAD SWAP1 POP SWAP1 POP CALLER PUSH1 0x7 PUSH1 0x0 DUP4 DUP2 MSTORE PUSH1 0x20 ADD SWAP1 DUP2 MSTORE PUSH1 0x20 ADD PUSH1 0x0 KECCAK256 PUSH1 0x0 PUSH2 0x100 EXP DUP2 SLOAD DUP2 PUSH20 0xFFFFFFFFFFFFFFFFFFFFFFFFFFFFFFFFFFFFFFFF MUL NOT AND SWAP1 DUP4 PUSH20 0xFFFFFFFFFFFFFFFFFFFFFFFFFFFFFFFFFFFFFFFF AND MUL OR SWAP1 SSTORE POP PUSH1 0x8 PUSH1 0x0 CALLER PUSH20 0xFFFFFFFFFFFFFFFFFFFFFFFFFFFFFFFFFFFFFFFF AND PUSH20 0xFFFFFFFFFFFFFFFFFFFFFFFFFFFFFFFFFFFFFFFF AND DUP2 MSTORE PUSH1 0x20 ADD SWAP1 DUP2 MSTORE PUSH1 0x20 ADD PUSH1 0x0 KECCAK256 PUSH1 0x0 DUP2 SLOAD DUP1 SWAP3 SWAP2 SWAP1 PUSH2 0xA27 SWAP1 PUSH2 0x2A6C JUMP JUMPDEST SWAP2 SWAP1 POP SSTORE POP PUSH1 0x2 PUSH1 0x0 DUP2 SLOAD DUP1 SWAP3 SWAP2 SWAP1 PUSH2 0xA3F SWAP1 PUSH2 0x2A6C JUMP JUMPDEST SWAP2 SWAP1 POP SSTORE POP PUSH1 0x1 PUSH1 0x2 SLOAD PUSH2 0xA53 SWAP2 SWAP1 PUSH2 0x2911 JUMP JUMPDEST SWAP2 POP POP SWAP4 SWAP3 POP POP POP JUMP JUMPDEST POP POP POP JUMP JUMPDEST PUSH1 0x0 PUSH1 0x7 PUSH1 0x0 DUP4 DUP2 MSTORE PUSH1 0x20 ADD SWAP1 DUP2 MSTORE PUSH1 0x20 ADD PUSH1 0x0 KECCAK256 PUSH1 0x0 SWAP1 SLOAD SWAP1 PUSH2 0x100 EXP SWAP1 DIV PUSH20 0xFFFFFFFFFFFFFFFFFFFFFFFFFFFFFFFFFFFFFFFF AND SWAP1 POP SWAP2 SWAP1 POP JUMP JUMPDEST PUSH1 0x60 PUSH1 0x4 SLOAD CALLVALUE EQ PUSH2 0xAAF JUMPI PUSH1 0x0 DUP1 REVERT JUMPDEST PUSH1 0x0 JUMPDEST PUSH1 0x6 DUP1 SLOAD SWAP1 POP DUP2 LT ISZERO PUSH2 0xBED JUMPI DUP3 PUSH20 0xFFFFFFFFFFFFFFFFFFFFFFFFFFFFFFFFFFFFFFFF AND PUSH1 0x6 DUP3 DUP2 SLOAD DUP2 LT PUSH2 0xAEA JUMPI PUSH2 0xAE9 PUSH2 0x2BAA JUMP JUMPDEST JUMPDEST SWAP1 PUSH1 0x0 MSTORE PUSH1 0x20 PUSH1 0x0 KECCAK256 SWAP1 PUSH1 0x8 MUL ADD PUSH1 0x0 ADD PUSH1 0x0 SWAP1 SLOAD SWAP1 PUSH2 0x100 EXP SWAP1 DIV PUSH20 0xFFFFFFFFFFFFFFFFFFFFFFFFFFFFFFFFFFFFFFFF AND PUSH20 0xFFFFFFFFFFFFFFFFFFFFFFFFFFFFFFFFFFFFFFFF AND EQ ISZERO PUSH2 0xBDA JUMPI PUSH1 0x6 DUP2 DUP2 SLOAD DUP2 LT PUSH2 0xB4C JUMPI PUSH2 0xB4B PUSH2 0x2BAA JUMP JUMPDEST JUMPDEST SWAP1 PUSH1 0x0 MSTORE PUSH1 0x20 PUSH1 0x0 KECCAK256 SWAP1 PUSH1 0x8 MUL ADD PUSH1 0x7 ADD PUSH1 0x0 DUP2 DUP2 SWAP1 SLOAD SWAP1 PUSH2 0x100 EXP SWAP1 DIV PUSH4 0xFFFFFFFF AND DUP1 SWAP3 SWAP2 SWAP1 PUSH2 0xB7D SWAP1 PUSH2 0x2AB5 JUMP JUMPDEST SWAP2 SWAP1 PUSH2 0x100 EXP DUP2 SLOAD DUP2 PUSH4 0xFFFFFFFF MUL NOT AND SWAP1 DUP4 PUSH4 0xFFFFFFFF AND MUL OR SWAP1 SSTORE POP POP PUSH1 0x40 MLOAD DUP1 PUSH1 0x40 ADD PUSH1 0x40 MSTORE DUP1 PUSH1 0x12 DUP2 MSTORE PUSH1 0x20 ADD PUSH32 0x48612073756269646F206465206E6976656C0000000000000000000000000000 DUP2 MSTORE POP SWAP2 POP POP PUSH2 0xBEF JUMP JUMPDEST DUP1 DUP1 PUSH2 0xBE5 SWAP1 PUSH2 0x2A6C JUMP JUMPDEST SWAP2 POP POP PUSH2 0xAB2 JUMP JUMPDEST POP JUMPDEST SWAP2 SWAP1 POP JUMP JUMPDEST PUSH1 0x60 PUSH1 0x1 PUSH1 0x6 DUP1 SLOAD SWAP1 POP GT PUSH2 0xC3D JUMPI PUSH32 0x6158FC8F21C8CC73DDF920956CC75D0E8A48B4FC85817A0BA89EB3B6D2A75441 PUSH1 0x40 MLOAD PUSH2 0xC30 SWAP1 PUSH2 0x2788 JUMP JUMPDEST PUSH1 0x40 MLOAD DUP1 SWAP2 SUB SWAP1 LOG1 PUSH2 0x1529 JUMP JUMPDEST DUP2 CALLVALUE EQ PUSH2 0xC49 JUMPI PUSH1 0x0 DUP1 REVERT JUMPDEST PUSH1 0x1 PUSH1 0x0 DUP2 SLOAD DUP1 SWAP3 SWAP2 SWAP1 PUSH2 0xC5C SWAP1 PUSH2 0x2A6C JUMP JUMPDEST SWAP2 SWAP1 POP SSTORE POP PUSH1 0x0 PUSH1 0x6 DUP1 SLOAD SWAP1 POP TIMESTAMP PUSH1 0x6 DUP1 SLOAD SWAP1 POP PUSH1 0x1 SLOAD PUSH1 0x40 MLOAD PUSH1 0x20 ADD PUSH2 0xC85 SWAP4 SWAP3 SWAP2 SWAP1 PUSH2 0x25BF JUMP JUMPDEST PUSH1 0x40 MLOAD PUSH1 0x20 DUP2 DUP4 SUB SUB DUP2 MSTORE SWAP1 PUSH1 0x40 MSTORE DUP1 MLOAD SWAP1 PUSH1 0x20 ADD KECCAK256 PUSH1 0x0 SHR PUSH2 0xCA8 SWAP2 SWAP1 PUSH2 0x2AEC JUMP JUMPDEST SWAP1 POP PUSH1 0x0 PUSH1 0x7 PUSH1 0x0 DUP4 DUP2 MSTORE PUSH1 0x20 ADD SWAP1 DUP2 MSTORE PUSH1 0x20 ADD PUSH1 0x0 KECCAK256 PUSH1 0x0 SWAP1 SLOAD SWAP1 PUSH2 0x100 EXP SWAP1 DIV PUSH20 0xFFFFFFFFFFFFFFFFFFFFFFFFFFFFFFFFFFFFFFFF AND SWAP1 POP PUSH1 0x1 PUSH1 0x0 DUP2 SLOAD DUP1 SWAP3 SWAP2 SWAP1 PUSH2 0xCF5 SWAP1 PUSH2 0x2A6C JUMP JUMPDEST SWAP2 SWAP1 POP SSTORE POP PUSH1 0x0 PUSH1 0x64 SWAP1 POP PUSH1 0x0 DUP2 TIMESTAMP DUP4 PUSH1 0x1 SLOAD PUSH1 0x40 MLOAD PUSH1 0x20 ADD PUSH2 0xD1A SWAP4 SWAP3 SWAP2 SWAP1 PUSH2 0x25BF JUMP JUMPDEST PUSH1 0x40 MLOAD PUSH1 0x20 DUP2 DUP4 SUB SUB DUP2 MSTORE SWAP1 PUSH1 0x40 MSTORE DUP1 MLOAD SWAP1 PUSH1 0x20 ADD KECCAK256 PUSH1 0x0 SHR PUSH2 0xD3D SWAP2 SWAP1 PUSH2 0x2AEC JUMP JUMPDEST SWAP1 POP PUSH1 0x0 JUMPDEST PUSH1 0x6 DUP1 SLOAD SWAP1 POP DUP2 LT ISZERO PUSH2 0x1523 JUMPI PUSH1 0x6 DUP2 DUP2 SLOAD DUP2 LT PUSH2 0xD63 JUMPI PUSH2 0xD62 PUSH2 0x2BAA JUMP JUMPDEST JUMPDEST SWAP1 PUSH1 0x0 MSTORE PUSH1 0x20 PUSH1 0x0 KECCAK256 SWAP1 PUSH1 0x8 MUL ADD PUSH1 0x0 ADD PUSH1 0x0 SWAP1 SLOAD SWAP1 PUSH2 0x100 EXP SWAP1 DIV PUSH20 0xFFFFFFFFFFFFFFFFFFFFFFFFFFFFFFFFFFFFFFFF AND PUSH20 0xFFFFFFFFFFFFFFFFFFFFFFFFFFFFFFFFFFFFFFFF AND CALLER PUSH20 0xFFFFFFFFFFFFFFFFFFFFFFFFFFFFFFFFFFFFFFFF AND EQ ISZERO PUSH2 0x1510 JUMPI PUSH2 0xDF2 PUSH1 0x6 DUP3 DUP2 SLOAD DUP2 LT PUSH2 0xDDF JUMPI PUSH2 0xDDE PUSH2 0x2BAA JUMP JUMPDEST JUMPDEST SWAP1 PUSH1 0x0 MSTORE PUSH1 0x20 PUSH1 0x0 KECCAK256 SWAP1 PUSH1 0x8 MUL ADD PUSH2 0x1D99 JUMP JUMPDEST PUSH2 0xDFB JUMPI PUSH1 0x0 DUP1 REVERT JUMPDEST PUSH1 0x6 DUP2 DUP2 SLOAD DUP2 LT PUSH2 0xE0F JUMPI PUSH2 0xE0E PUSH2 0x2BAA JUMP JUMPDEST JUMPDEST SWAP1 PUSH1 0x0 MSTORE PUSH1 0x20 PUSH1 0x0 KECCAK256 SWAP1 PUSH1 0x8 MUL ADD PUSH1 0x5 ADD PUSH1 0x0 DUP2 SLOAD DUP1 SWAP3 SWAP2 SWAP1 PUSH2 0xE31 SWAP1 PUSH2 0x2A6C JUMP JUMPDEST SWAP2 SWAP1 POP SSTORE POP PUSH1 0x6 DUP6 DUP2 SLOAD DUP2 LT PUSH2 0xE4A JUMPI PUSH2 0xE49 PUSH2 0x2BAA JUMP JUMPDEST JUMPDEST SWAP1 PUSH1 0x0 MSTORE PUSH1 0x20 PUSH1 0x0 KECCAK256 SWAP1 PUSH1 0x8 MUL ADD PUSH1 0x5 ADD PUSH1 0x0 DUP2 SLOAD DUP1 SWAP3 SWAP2 SWAP1 PUSH2 0xE6C SWAP1 PUSH2 0x2A6C JUMP JUMPDEST SWAP2 SWAP1 POP SSTORE POP PUSH2 0xE9B PUSH1 0x6 DUP3 DUP2 SLOAD DUP2 LT PUSH2 0xE88 JUMPI PUSH2 0xE87 PUSH2 0x2BAA JUMP JUMPDEST JUMPDEST SWAP1 PUSH1 0x0 MSTORE PUSH1 0x20 PUSH1 0x0 KECCAK256 SWAP1 PUSH1 0x8 MUL ADD PUSH2 0x1DAA JUMP JUMPDEST PUSH1 0x6 DUP2 DUP2 SLOAD DUP2 LT PUSH2 0xEAF JUMPI PUSH2 0xEAE PUSH2 0x2BAA JUMP JUMPDEST JUMPDEST SWAP1 PUSH1 0x0 MSTORE PUSH1 0x20 PUSH1 0x0 KECCAK256 SWAP1 PUSH1 0x8 MUL ADD PUSH1 0x7 ADD PUSH1 0x0 SWAP1 SLOAD SWAP1 PUSH2 0x100 EXP SWAP1 DIV PUSH4 0xFFFFFFFF AND PUSH4 0xFFFFFFFF AND PUSH1 0x6 DUP7 DUP2 SLOAD DUP2 LT PUSH2 0xEEB JUMPI PUSH2 0xEEA PUSH2 0x2BAA JUMP JUMPDEST JUMPDEST SWAP1 PUSH1 0x0 MSTORE PUSH1 0x20 PUSH1 0x0 KECCAK256 SWAP1 PUSH1 0x8 MUL ADD PUSH1 0x7 ADD PUSH1 0x0 SWAP1 SLOAD SWAP1 PUSH2 0x100 EXP SWAP1 DIV PUSH4 0xFFFFFFFF AND PUSH4 0xFFFFFFFF AND LT ISZERO PUSH2 0x10EC JUMPI PUSH1 0x3C DUP3 GT PUSH2 0x100A JUMPI PUSH2 0xF29 PUSH2 0x1DC9 JUMP JUMPDEST PUSH1 0x6 DUP2 DUP2 SLOAD DUP2 LT PUSH2 0xF3D JUMPI PUSH2 0xF3C PUSH2 0x2BAA JUMP JUMPDEST JUMPDEST SWAP1 PUSH1 0x0 MSTORE PUSH1 0x20 PUSH1 0x0 KECCAK256 SWAP1 PUSH1 0x8 MUL ADD PUSH1 0x4 ADD PUSH1 0x0 DUP2 SLOAD DUP1 SWAP3 SWAP2 SWAP1 PUSH2 0xF5F SWAP1 PUSH2 0x2A6C JUMP JUMPDEST SWAP2 SWAP1 POP SSTORE POP PUSH1 0x6 DUP2 DUP2 SLOAD DUP2 LT PUSH2 0xF78 JUMPI PUSH2 0xF77 PUSH2 0x2BAA JUMP JUMPDEST JUMPDEST SWAP1 PUSH1 0x0 MSTORE PUSH1 0x20 PUSH1 0x0 KECCAK256 SWAP1 PUSH1 0x8 MUL ADD PUSH1 0x7 ADD PUSH1 0x0 DUP2 DUP2 SWAP1 SLOAD SWAP1 PUSH2 0x100 EXP SWAP1 DIV PUSH4 0xFFFFFFFF AND DUP1 SWAP3 SWAP2 SWAP1 PUSH2 0xFA9 SWAP1 PUSH2 0x2AB5 JUMP JUMPDEST SWAP2 SWAP1 PUSH2 0x100 EXP DUP2 SLOAD DUP2 PUSH4 0xFFFFFFFF MUL NOT AND SWAP1 DUP4 PUSH4 0xFFFFFFFF AND MUL OR SWAP1 SSTORE POP POP PUSH1 0x40 MLOAD DUP1 PUSH1 0x40 ADD PUSH1 0x40 MSTORE DUP1 PUSH1 0xA DUP2 MSTORE PUSH1 0x20 ADD PUSH32 0x4861732067616E61646F00000000000000000000000000000000000000000000 DUP2 MSTORE POP SWAP6 POP POP POP POP POP POP PUSH2 0x152A JUMP JUMPDEST PUSH32 0x6158FC8F21C8CC73DDF920956CC75D0E8A48B4FC85817A0BA89EB3B6D2A75441 PUSH1 0x40 MLOAD PUSH2 0x1037 SWAP1 PUSH2 0x27C8 JUMP JUMPDEST PUSH1 0x40 MLOAD DUP1 SWAP2 SUB SWAP1 LOG1 ADDRESS PUSH20 0xFFFFFFFFFFFFFFFFFFFFFFFFFFFFFFFFFFFFFFFF AND PUSH4 0xE172FCA8 DUP6 PUSH1 0x40 MLOAD DUP3 PUSH4 0xFFFFFFFF AND PUSH1 0xE0 SHL DUP2 MSTORE PUSH1 0x4 ADD PUSH2 0x1078 SWAP2 SWAP1 PUSH2 0x25FC JUMP JUMPDEST PUSH1 0x0 PUSH1 0x40 MLOAD DUP1 DUP4 SUB DUP2 PUSH1 0x0 DUP8 DUP1 EXTCODESIZE ISZERO DUP1 ISZERO PUSH2 0x1092 JUMPI PUSH1 0x0 DUP1 REVERT JUMPDEST POP GAS CALL ISZERO DUP1 ISZERO PUSH2 0x10A6 JUMPI RETURNDATASIZE PUSH1 0x0 DUP1 RETURNDATACOPY RETURNDATASIZE PUSH1 0x0 REVERT JUMPDEST POP POP POP POP PUSH1 0x40 MLOAD DUP1 PUSH1 0x40 ADD PUSH1 0x40 MSTORE DUP1 PUSH1 0xB DUP2 MSTORE PUSH1 0x20 ADD PUSH32 0x486173207065726469646F000000000000000000000000000000000000000000 DUP2 MSTORE POP SWAP6 POP POP POP POP POP POP PUSH2 0x152A JUMP JUMPDEST PUSH1 0x6 DUP2 DUP2 SLOAD DUP2 LT PUSH2 0x1100 JUMPI PUSH2 0x10FF PUSH2 0x2BAA JUMP JUMPDEST JUMPDEST SWAP1 PUSH1 0x0 MSTORE PUSH1 0x20 PUSH1 0x0 KECCAK256 SWAP1 PUSH1 0x8 MUL ADD PUSH1 0x7 ADD PUSH1 0x0 SWAP1 SLOAD SWAP1 PUSH2 0x100 EXP SWAP1 DIV PUSH4 0xFFFFFFFF AND PUSH4 0xFFFFFFFF AND PUSH1 0x6 DUP7 DUP2 SLOAD DUP2 LT PUSH2 0x113C JUMPI PUSH2 0x113B PUSH2 0x2BAA JUMP JUMPDEST JUMPDEST SWAP1 PUSH1 0x0 MSTORE PUSH1 0x20 PUSH1 0x0 KECCAK256 SWAP1 PUSH1 0x8 MUL ADD PUSH1 0x7 ADD PUSH1 0x0 SWAP1 SLOAD SWAP1 PUSH2 0x100 EXP SWAP1 DIV PUSH4 0xFFFFFFFF AND PUSH4 0xFFFFFFFF AND EQ ISZERO PUSH2 0x133D JUMPI PUSH1 0x32 DUP3 GT PUSH2 0x125B JUMPI PUSH2 0x117A PUSH2 0x1DC9 JUMP JUMPDEST PUSH1 0x6 DUP2 DUP2 SLOAD DUP2 LT PUSH2 0x118E JUMPI PUSH2 0x118D PUSH2 0x2BAA JUMP JUMPDEST JUMPDEST SWAP1 PUSH1 0x0 MSTORE PUSH1 0x20 PUSH1 0x0 KECCAK256 SWAP1 PUSH1 0x8 MUL ADD PUSH1 0x4 ADD PUSH1 0x0 DUP2 SLOAD DUP1 SWAP3 SWAP2 SWAP1 PUSH2 0x11B0 SWAP1 PUSH2 0x2A6C JUMP JUMPDEST SWAP2 SWAP1 POP SSTORE POP PUSH1 0x6 DUP2 DUP2 SLOAD DUP2 LT PUSH2 0x11C9 JUMPI PUSH2 0x11C8 PUSH2 0x2BAA JUMP JUMPDEST JUMPDEST SWAP1 PUSH1 0x0 MSTORE PUSH1 0x20 PUSH1 0x0 KECCAK256 SWAP1 PUSH1 0x8 MUL ADD PUSH1 0x7 ADD PUSH1 0x0 DUP2 DUP2 SWAP1 SLOAD SWAP1 PUSH2 0x100 EXP SWAP1 DIV PUSH4 0xFFFFFFFF AND DUP1 SWAP3 SWAP2 SWAP1 PUSH2 0x11FA SWAP1 PUSH2 0x2AB5 JUMP JUMPDEST SWAP2 SWAP1 PUSH2 0x100 EXP DUP2 SLOAD DUP2 PUSH4 0xFFFFFFFF MUL NOT AND SWAP1 DUP4 PUSH4 0xFFFFFFFF AND MUL OR SWAP1 SSTORE POP POP PUSH1 0x40 MLOAD DUP1 PUSH1 0x40 ADD PUSH1 0x40 MSTORE DUP1 PUSH1 0xA DUP2 MSTORE PUSH1 0x20 ADD PUSH32 0x4861732067616E61646F00000000000000000000000000000000000000000000 DUP2 MSTORE POP SWAP6 POP POP POP POP POP POP PUSH2 0x152A JUMP JUMPDEST PUSH32 0x6158FC8F21C8CC73DDF920956CC75D0E8A48B4FC85817A0BA89EB3B6D2A75441 PUSH1 0x40 MLOAD PUSH2 0x1288 SWAP1 PUSH2 0x27C8 JUMP JUMPDEST PUSH1 0x40 MLOAD DUP1 SWAP2 SUB SWAP1 LOG1 ADDRESS PUSH20 0xFFFFFFFFFFFFFFFFFFFFFFFFFFFFFFFFFFFFFFFF AND PUSH4 0xE172FCA8 DUP6 PUSH1 0x40 MLOAD DUP3 PUSH4 0xFFFFFFFF AND PUSH1 0xE0 SHL DUP2 MSTORE PUSH1 0x4 ADD PUSH2 0x12C9 SWAP2 SWAP1 PUSH2 0x25FC JUMP JUMPDEST PUSH1 0x0 PUSH1 0x40 MLOAD DUP1 DUP4 SUB DUP2 PUSH1 0x0 DUP8 DUP1 EXTCODESIZE ISZERO DUP1 ISZERO PUSH2 0x12E3 JUMPI PUSH1 0x0 DUP1 REVERT JUMPDEST POP GAS CALL ISZERO DUP1 ISZERO PUSH2 0x12F7 JUMPI RETURNDATASIZE PUSH1 0x0 DUP1 RETURNDATACOPY RETURNDATASIZE PUSH1 0x0 REVERT JUMPDEST POP POP POP POP PUSH1 0x40 MLOAD DUP1 PUSH1 0x40 ADD PUSH1 0x40 MSTORE DUP1 PUSH1 0xB DUP2 MSTORE PUSH1 0x20 ADD PUSH32 0x486173207065726469646F000000000000000000000000000000000000000000 DUP2 MSTORE POP SWAP6 POP POP POP POP POP POP PUSH2 0x152A JUMP JUMPDEST PUSH1 0x28 DUP3 GT PUSH2 0x142E JUMPI PUSH2 0x134D PUSH2 0x1DC9 JUMP JUMPDEST PUSH1 0x6 DUP2 DUP2 SLOAD DUP2 LT PUSH2 0x1361 JUMPI PUSH2 0x1360 PUSH2 0x2BAA JUMP JUMPDEST JUMPDEST SWAP1 PUSH1 0x0 MSTORE PUSH1 0x20 PUSH1 0x0 KECCAK256 SWAP1 PUSH1 0x8 MUL ADD PUSH1 0x4 ADD PUSH1 0x0 DUP2 SLOAD DUP1 SWAP3 SWAP2 SWAP1 PUSH2 0x1383 SWAP1 PUSH2 0x2A6C JUMP JUMPDEST SWAP2 SWAP1 POP SSTORE POP PUSH1 0x6 DUP2 DUP2 SLOAD DUP2 LT PUSH2 0x139C JUMPI PUSH2 0x139B PUSH2 0x2BAA JUMP JUMPDEST JUMPDEST SWAP1 PUSH1 0x0 MSTORE PUSH1 0x20 PUSH1 0x0 KECCAK256 SWAP1 PUSH1 0x8 MUL ADD PUSH1 0x7 ADD PUSH1 0x0 DUP2 DUP2 SWAP1 SLOAD SWAP1 PUSH2 0x100 EXP SWAP1 DIV PUSH4 0xFFFFFFFF AND DUP1 SWAP3 SWAP2 SWAP1 PUSH2 0x13CD SWAP1 PUSH2 0x2AB5 JUMP JUMPDEST SWAP2 SWAP1 PUSH2 0x100 EXP DUP2 SLOAD DUP2 PUSH4 0xFFFFFFFF MUL NOT AND SWAP1 DUP4 PUSH4 0xFFFFFFFF AND MUL OR SWAP1 SSTORE POP POP PUSH1 0x40 MLOAD DUP1 PUSH1 0x40 ADD PUSH1 0x40 MSTORE DUP1 PUSH1 0xA DUP2 MSTORE PUSH1 0x20 ADD PUSH32 0x4861732067616E61646F00000000000000000000000000000000000000000000 DUP2 MSTORE POP SWAP6 POP POP POP POP POP POP PUSH2 0x152A JUMP JUMPDEST PUSH32 0x6158FC8F21C8CC73DDF920956CC75D0E8A48B4FC85817A0BA89EB3B6D2A75441 PUSH1 0x40 MLOAD PUSH2 0x145B SWAP1 PUSH2 0x27C8 JUMP JUMPDEST PUSH1 0x40 MLOAD DUP1 SWAP2 SUB SWAP1 LOG1 ADDRESS PUSH20 0xFFFFFFFFFFFFFFFFFFFFFFFFFFFFFFFFFFFFFFFF AND PUSH4 0xE172FCA8 DUP6 PUSH1 0x40 MLOAD DUP3 PUSH4 0xFFFFFFFF AND PUSH1 0xE0 SHL DUP2 MSTORE PUSH1 0x4 ADD PUSH2 0x149C SWAP2 SWAP1 PUSH2 0x25FC JUMP JUMPDEST PUSH1 0x0 PUSH1 0x40 MLOAD DUP1 DUP4 SUB DUP2 PUSH1 0x0 DUP8 DUP1 EXTCODESIZE ISZERO DUP1 ISZERO PUSH2 0x14B6 JUMPI PUSH1 0x0 DUP1 REVERT JUMPDEST POP GAS CALL ISZERO DUP1 ISZERO PUSH2 0x14CA JUMPI RETURNDATASIZE PUSH1 0x0 DUP1 RETURNDATACOPY RETURNDATASIZE PUSH1 0x0 REVERT JUMPDEST POP POP POP POP PUSH1 0x40 MLOAD DUP1 PUSH1 0x40 ADD PUSH1 0x40 MSTORE DUP1 PUSH1 0xB DUP2 MSTORE PUSH1 0x20 ADD PUSH32 0x486173207065726469646F000000000000000000000000000000000000000000 DUP2 MSTORE POP SWAP6 POP POP POP POP POP POP PUSH2 0x152A JUMP JUMPDEST DUP1 DUP1 PUSH2 0x151B SWAP1 PUSH2 0x2A6C JUMP JUMPDEST SWAP2 POP POP PUSH2 0xD42 JUMP JUMPDEST POP POP POP POP POP JUMPDEST JUMPDEST SWAP2 SWAP1 POP JUMP JUMPDEST PUSH1 0x0 PUSH1 0x8 PUSH1 0x0 DUP4 PUSH20 0xFFFFFFFFFFFFFFFFFFFFFFFFFFFFFFFFFFFFFFFF AND PUSH20 0xFFFFFFFFFFFFFFFFFFFFFFFFFFFFFFFFFFFFFFFF AND DUP2 MSTORE PUSH1 0x20 ADD SWAP1 DUP2 MSTORE PUSH1 0x20 ADD PUSH1 0x0 KECCAK256 SLOAD SWAP1 POP SWAP2 SWAP1 POP JUMP JUMPDEST PUSH2 0x1580 PUSH2 0x1E12 JUMP JUMPDEST PUSH20 0xFFFFFFFFFFFFFFFFFFFFFFFFFFFFFFFFFFFFFFFF AND PUSH2 0x159E PUSH2 0x1633 JUMP JUMPDEST PUSH20 0xFFFFFFFFFFFFFFFFFFFFFFFFFFFFFFFFFFFFFFFF AND EQ PUSH2 0x15F4 JUMPI PUSH1 0x40 MLOAD PUSH32 0x8C379A000000000000000000000000000000000000000000000000000000000 DUP2 MSTORE PUSH1 0x4 ADD PUSH2 0x15EB SWAP1 PUSH2 0x27A8 JUMP JUMPDEST PUSH1 0x40 MLOAD DUP1 SWAP2 SUB SWAP1 REVERT JUMPDEST PUSH2 0x15FE PUSH1 0x0 PUSH2 0x1E1A JUMP JUMPDEST JUMP JUMPDEST PUSH1 0x7 PUSH1 0x20 MSTORE DUP1 PUSH1 0x0 MSTORE PUSH1 0x40 PUSH1 0x0 KECCAK256 PUSH1 0x0 SWAP2 POP SLOAD SWAP1 PUSH2 0x100 EXP SWAP1 DIV PUSH20 0xFFFFFFFFFFFFFFFFFFFFFFFFFFFFFFFFFFFFFFFF AND DUP2 JUMP JUMPDEST PUSH1 0x0 DUP1 PUSH1 0x0 SWAP1 SLOAD SWAP1 PUSH2 0x100 EXP SWAP1 DIV PUSH20 0xFFFFFFFFFFFFFFFFFFFFFFFFFFFFFFFFFFFFFFFF AND SWAP1 POP SWAP1 JUMP JUMPDEST POP POP JUMP JUMPDEST PUSH1 0x0 DUP1 SLOAD SWAP1 PUSH2 0x100 EXP SWAP1 DIV PUSH20 0xFFFFFFFFFFFFFFFFFFFFFFFFFFFFFFFFFFFFFFFF AND DUP2 JUMP JUMPDEST CALLER PUSH20 0xFFFFFFFFFFFFFFFFFFFFFFFFFFFFFFFFFFFFFFFF AND PUSH1 0x9 PUSH1 0x0 DUP4 DUP2 MSTORE PUSH1 0x20 ADD SWAP1 DUP2 MSTORE PUSH1 0x20 ADD PUSH1 0x0 KECCAK256 PUSH1 0x0 SWAP1 SLOAD SWAP1 PUSH2 0x100 EXP SWAP1 DIV PUSH20 0xFFFFFFFFFFFFFFFFFFFFFFFFFFFFFFFFFFFFFFFF AND PUSH20 0xFFFFFFFFFFFFFFFFFFFFFFFFFFFFFFFFFFFFFFFF AND EQ PUSH2 0x16EF JUMPI PUSH1 0x0 DUP1 REVERT JUMPDEST PUSH1 0x0 ADDRESS PUSH20 0xFFFFFFFFFFFFFFFFFFFFFFFFFFFFFFFFFFFFFFFF AND PUSH4 0x6352211E DUP4 PUSH1 0x40 MLOAD DUP3 PUSH4 0xFFFFFFFF AND PUSH1 0xE0 SHL DUP2 MSTORE PUSH1 0x4 ADD PUSH2 0x172A SWAP2 SWAP1 PUSH2 0x27E8 JUMP JUMPDEST PUSH1 0x20 PUSH1 0x40 MLOAD DUP1 DUP4 SUB DUP2 DUP7 DUP1 EXTCODESIZE ISZERO DUP1 ISZERO PUSH2 0x1742 JUMPI PUSH1 0x0 DUP1 REVERT JUMPDEST POP GAS STATICCALL ISZERO DUP1 ISZERO PUSH2 0x1756 JUMPI RETURNDATASIZE PUSH1 0x0 DUP1 RETURNDATACOPY RETURNDATASIZE PUSH1 0x0 REVERT JUMPDEST POP POP POP POP PUSH1 0x40 MLOAD RETURNDATASIZE PUSH1 0x1F NOT PUSH1 0x1F DUP3 ADD AND DUP3 ADD DUP1 PUSH1 0x40 MSTORE POP DUP2 ADD SWAP1 PUSH2 0x177A SWAP2 SWAP1 PUSH2 0x20E2 JUMP JUMPDEST SWAP1 POP PUSH2 0x1787 DUP2 CALLER DUP5 PUSH2 0x1C58 JUMP JUMPDEST POP POP JUMP JUMPDEST POP POP POP POP JUMP JUMPDEST PUSH1 0x6 DUP2 DUP2 SLOAD DUP2 LT PUSH2 0x17A1 JUMPI PUSH1 0x0 DUP1 REVERT JUMPDEST SWAP1 PUSH1 0x0 MSTORE PUSH1 0x20 PUSH1 0x0 KECCAK256 SWAP1 PUSH1 0x8 MUL ADD PUSH1 0x0 SWAP2 POP SWAP1 POP DUP1 PUSH1 0x0 ADD PUSH1 0x0 SWAP1 SLOAD SWAP1 PUSH2 0x100 EXP SWAP1 DIV PUSH20 0xFFFFFFFFFFFFFFFFFFFFFFFFFFFFFFFFFFFFFFFF AND SWAP1 DUP1 PUSH1 0x1 ADD DUP1 SLOAD PUSH2 0x17EA SWAP1 PUSH2 0x2A09 JUMP JUMPDEST DUP1 PUSH1 0x1F ADD PUSH1 0x20 DUP1 SWAP2 DIV MUL PUSH1 0x20 ADD PUSH1 0x40 MLOAD SWAP1 DUP2 ADD PUSH1 0x40 MSTORE DUP1 SWAP3 SWAP2 SWAP1 DUP2 DUP2 MSTORE PUSH1 0x20 ADD DUP3 DUP1 SLOAD PUSH2 0x1816 SWAP1 PUSH2 0x2A09 JUMP JUMPDEST DUP1 ISZERO PUSH2 0x1863 JUMPI DUP1 PUSH1 0x1F LT PUSH2 0x1838 JUMPI PUSH2 0x100 DUP1 DUP4 SLOAD DIV MUL DUP4 MSTORE SWAP2 PUSH1 0x20 ADD SWAP2 PUSH2 0x1863 JUMP JUMPDEST DUP3 ADD SWAP2 SWAP1 PUSH1 0x0 MSTORE PUSH1 0x20 PUSH1 0x0 KECCAK256 SWAP1 JUMPDEST DUP2 SLOAD DUP2 MSTORE SWAP1 PUSH1 0x1 ADD SWAP1 PUSH1 0x20 ADD DUP1 DUP4 GT PUSH2 0x1846 JUMPI DUP3 SWAP1 SUB PUSH1 0x1F AND DUP3 ADD SWAP2 JUMPDEST POP POP POP POP POP SWAP1 DUP1 PUSH1 0x2 ADD DUP1 SLOAD PUSH2 0x1878 SWAP1 PUSH2 0x2A09 JUMP JUMPDEST DUP1 PUSH1 0x1F ADD PUSH1 0x20 DUP1 SWAP2 DIV MUL PUSH1 0x20 ADD PUSH1 0x40 MLOAD SWAP1 DUP2 ADD PUSH1 0x40 MSTORE DUP1 SWAP3 SWAP2 SWAP1 DUP2 DUP2 MSTORE PUSH1 0x20 ADD DUP3 DUP1 SLOAD PUSH2 0x18A4 SWAP1 PUSH2 0x2A09 JUMP JUMPDEST DUP1 ISZERO PUSH2 0x18F1 JUMPI DUP1 PUSH1 0x1F LT PUSH2 0x18C6 JUMPI PUSH2 0x100 DUP1 DUP4 SLOAD DIV MUL DUP4 MSTORE SWAP2 PUSH1 0x20 ADD SWAP2 PUSH2 0x18F1 JUMP JUMPDEST DUP3 ADD SWAP2 SWAP1 PUSH1 0x0 MSTORE PUSH1 0x20 PUSH1 0x0 KECCAK256 SWAP1 JUMPDEST DUP2 SLOAD DUP2 MSTORE SWAP1 PUSH1 0x1 ADD SWAP1 PUSH1 0x20 ADD DUP1 DUP4 GT PUSH2 0x18D4 JUMPI DUP3 SWAP1 SUB PUSH1 0x1F AND DUP3 ADD SWAP2 JUMPDEST POP POP POP POP POP SWAP1 DUP1 PUSH1 0x3 ADD DUP1 SLOAD PUSH2 0x1906 SWAP1 PUSH2 0x2A09 JUMP JUMPDEST DUP1 PUSH1 0x1F ADD PUSH1 0x20 DUP1 SWAP2 DIV MUL PUSH1 0x20 ADD PUSH1 0x40 MLOAD SWAP1 DUP2 ADD PUSH1 0x40 MSTORE DUP1 SWAP3 SWAP2 SWAP1 DUP2 DUP2 MSTORE PUSH1 0x20 ADD DUP3 DUP1 SLOAD PUSH2 0x1932 SWAP1 PUSH2 0x2A09 JUMP JUMPDEST DUP1 ISZERO PUSH2 0x197F JUMPI DUP1 PUSH1 0x1F LT PUSH2 0x1954 JUMPI PUSH2 0x100 DUP1 DUP4 SLOAD DIV MUL DUP4 MSTORE SWAP2 PUSH1 0x20 ADD SWAP2 PUSH2 0x197F JUMP JUMPDEST DUP3 ADD SWAP2 SWAP1 PUSH1 0x0 MSTORE PUSH1 0x20 PUSH1 0x0 KECCAK256 SWAP1 JUMPDEST DUP2 SLOAD DUP2 MSTORE SWAP1 PUSH1 0x1 ADD SWAP1 PUSH1 0x20 ADD DUP1 DUP4 GT PUSH2 0x1962 JUMPI DUP3 SWAP1 SUB PUSH1 0x1F AND DUP3 ADD SWAP2 JUMPDEST POP POP POP POP POP SWAP1 DUP1 PUSH1 0x4 ADD SLOAD SWAP1 DUP1 PUSH1 0x5 ADD SLOAD SWAP1 DUP1 PUSH1 0x6 ADD SLOAD SWAP1 DUP1 PUSH1 0x7 ADD PUSH1 0x0 SWAP1 SLOAD SWAP1 PUSH2 0x100 EXP SWAP1 DIV PUSH4 0xFFFFFFFF AND SWAP1 POP DUP9 JUMP JUMPDEST PUSH1 0x0 JUMPDEST PUSH1 0x6 DUP1 SLOAD SWAP1 POP DUP2 LT ISZERO PUSH2 0x1B54 JUMPI DUP2 PUSH20 0xFFFFFFFFFFFFFFFFFFFFFFFFFFFFFFFFFFFFFFFF AND PUSH1 0x6 DUP3 DUP2 SLOAD DUP2 LT PUSH2 0x19EC JUMPI PUSH2 0x19EB PUSH2 0x2BAA JUMP JUMPDEST JUMPDEST SWAP1 PUSH1 0x0 MSTORE PUSH1 0x20 PUSH1 0x0 KECCAK256 SWAP1 PUSH1 0x8 MUL ADD PUSH1 0x0 ADD PUSH1 0x0 SWAP1 SLOAD SWAP1 PUSH2 0x100 EXP SWAP1 DIV PUSH20 0xFFFFFFFFFFFFFFFFFFFFFFFFFFFFFFFFFFFFFFFF AND PUSH20 0xFFFFFFFFFFFFFFFFFFFFFFFFFFFFFFFFFFFFFFFF AND EQ ISZERO PUSH2 0x1B41 JUMPI PUSH32 0x20FDB8AB571BFBAB79104BEA84F9C31CB79C5AE45B5F515C1D6C8393E0028350 PUSH1 0x6 DUP3 DUP2 SLOAD DUP2 LT PUSH2 0x1A6F JUMPI PUSH2 0x1A6E PUSH2 0x2BAA JUMP JUMPDEST JUMPDEST SWAP1 PUSH1 0x0 MSTORE PUSH1 0x20 PUSH1 0x0 KECCAK256 SWAP1 PUSH1 0x8 MUL ADD PUSH1 0x2 ADD PUSH1 0x6 DUP4 DUP2 SLOAD DUP2 LT PUSH2 0x1A94 JUMPI PUSH2 0x1A93 PUSH2 0x2BAA JUMP JUMPDEST JUMPDEST SWAP1 PUSH1 0x0 MSTORE PUSH1 0x20 PUSH1 0x0 KECCAK256 SWAP1 PUSH1 0x8 MUL ADD PUSH1 0x1 ADD PUSH1 0x6 DUP5 DUP2 SLOAD DUP2 LT PUSH2 0x1AB9 JUMPI PUSH2 0x1AB8 PUSH2 0x2BAA JUMP JUMPDEST JUMPDEST SWAP1 PUSH1 0x0 MSTORE PUSH1 0x20 PUSH1 0x0 KECCAK256 SWAP1 PUSH1 0x8 MUL ADD PUSH1 0x7 ADD PUSH1 0x0 SWAP1 SLOAD SWAP1 PUSH2 0x100 EXP SWAP1 DIV PUSH4 0xFFFFFFFF AND PUSH1 0x6 DUP6 DUP2 SLOAD DUP2 LT PUSH2 0x1AEF JUMPI PUSH2 0x1AEE PUSH2 0x2BAA JUMP JUMPDEST JUMPDEST SWAP1 PUSH1 0x0 MSTORE PUSH1 0x20 PUSH1 0x0 KECCAK256 SWAP1 PUSH1 0x8 MUL ADD PUSH1 0x4 ADD SLOAD PUSH1 0x6 DUP7 DUP2 SLOAD DUP2 LT PUSH2 0x1B15 JUMPI PUSH2 0x1B14 PUSH2 0x2BAA JUMP JUMPDEST JUMPDEST SWAP1 PUSH1 0x0 MSTORE PUSH1 0x20 PUSH1 0x0 KECCAK256 SWAP1 PUSH1 0x8 MUL ADD PUSH1 0x5 ADD SLOAD PUSH1 0x40 MLOAD PUSH2 0x1B38 SWAP6 SWAP5 SWAP4 SWAP3 SWAP2 SWAP1 PUSH2 0x26E7 JUMP JUMPDEST PUSH1 0x40 MLOAD DUP1 SWAP2 SUB SWAP1 LOG1 JUMPDEST DUP1 DUP1 PUSH2 0x1B4C SWAP1 PUSH2 0x2A6C JUMP JUMPDEST SWAP2 POP POP PUSH2 0x19B4 JUMP JUMPDEST POP POP JUMP JUMPDEST PUSH1 0x0 SWAP3 SWAP2 POP POP JUMP JUMPDEST PUSH2 0x1B68 PUSH2 0x1E12 JUMP JUMPDEST PUSH20 0xFFFFFFFFFFFFFFFFFFFFFFFFFFFFFFFFFFFFFFFF AND PUSH2 0x1B86 PUSH2 0x1633 JUMP JUMPDEST PUSH20 0xFFFFFFFFFFFFFFFFFFFFFFFFFFFFFFFFFFFFFFFF AND EQ PUSH2 0x1BDC JUMPI PUSH1 0x40 MLOAD PUSH32 0x8C379A000000000000000000000000000000000000000000000000000000000 DUP2 MSTORE PUSH1 0x4 ADD PUSH2 0x1BD3 SWAP1 PUSH2 0x27A8 JUMP JUMPDEST PUSH1 0x40 MLOAD DUP1 SWAP2 SUB SWAP1 REVERT JUMPDEST PUSH1 0x0 PUSH20 0xFFFFFFFFFFFFFFFFFFFFFFFFFFFFFFFFFFFFFFFF AND DUP2 PUSH20 0xFFFFFFFFFFFFFFFFFFFFFFFFFFFFFFFFFFFFFFFF AND EQ ISZERO PUSH2 0x1C4C JUMPI PUSH1 0x40 MLOAD PUSH32 0x8C379A000000000000000000000000000000000000000000000000000000000 DUP2 MSTORE PUSH1 0x4 ADD PUSH2 0x1C43 SWAP1 PUSH2 0x2768 JUMP JUMPDEST PUSH1 0x40 MLOAD DUP1 SWAP2 SUB SWAP1 REVERT JUMPDEST PUSH2 0x1C55 DUP2 PUSH2 0x1E1A JUMP JUMPDEST POP JUMP JUMPDEST PUSH1 0x8 PUSH1 0x0 DUP4 PUSH20 0xFFFFFFFFFFFFFFFFFFFFFFFFFFFFFFFFFFFFFFFF AND PUSH20 0xFFFFFFFFFFFFFFFFFFFFFFFFFFFFFFFFFFFFFFFF AND DUP2 MSTORE PUSH1 0x20 ADD SWAP1 DUP2 MSTORE PUSH1 0x20 ADD PUSH1 0x0 KECCAK256 PUSH1 0x0 DUP2 SLOAD DUP1 SWAP3 SWAP2 SWAP1 PUSH2 0x1CA8 SWAP1 PUSH2 0x2A6C JUMP JUMPDEST SWAP2 SWAP1 POP SSTORE POP PUSH1 0x8 PUSH1 0x0 DUP5 PUSH20 0xFFFFFFFFFFFFFFFFFFFFFFFFFFFFFFFFFFFFFFFF AND PUSH20 0xFFFFFFFFFFFFFFFFFFFFFFFFFFFFFFFFFFFFFFFF AND DUP2 MSTORE PUSH1 0x20 ADD SWAP1 DUP2 MSTORE PUSH1 0x20 ADD PUSH1 0x0 KECCAK256 PUSH1 0x0 DUP2 SLOAD DUP1 SWAP3 SWAP2 SWAP1 PUSH2 0x1CFD SWAP1 PUSH2 0x29DF JUMP JUMPDEST SWAP2 SWAP1 POP SSTORE POP DUP2 PUSH20 0xFFFFFFFFFFFFFFFFFFFFFFFFFFFFFFFFFFFFFFFF AND PUSH1 0x7 PUSH1 0x0 DUP4 DUP2 MSTORE PUSH1 0x20 ADD SWAP1 DUP2 MSTORE PUSH1 0x20 ADD PUSH1 0x0 KECCAK256 PUSH1 0x0 SWAP1 SLOAD SWAP1 PUSH2 0x100 EXP SWAP1 POP POP POP DUP1 DUP3 PUSH20 0xFFFFFFFFFFFFFFFFFFFFFFFFFFFFFFFFFFFFFFFF AND DUP5 PUSH20 0xFFFFFFFFFFFFFFFFFFFFFFFFFFFFFFFFFFFFFFFF AND PUSH32 0xDDF252AD1BE2C89B69C2B068FC378DAA952BA7F163C4A11628F55A4DF523B3EF PUSH1 0x40 MLOAD PUSH1 0x40 MLOAD DUP1 SWAP2 SUB SWAP1 LOG4 POP POP POP JUMP JUMPDEST PUSH1 0x0 TIMESTAMP DUP3 PUSH1 0x6 ADD SLOAD GT ISZERO SWAP1 POP SWAP2 SWAP1 POP JUMP JUMPDEST PUSH1 0x3 SLOAD TIMESTAMP PUSH2 0x1DB8 SWAP2 SWAP1 PUSH2 0x28BB JUMP JUMPDEST PUSH4 0xFFFFFFFF AND DUP2 PUSH1 0x6 ADD DUP2 SWAP1 SSTORE POP POP JUMP JUMPDEST CALLER PUSH20 0xFFFFFFFFFFFFFFFFFFFFFFFFFFFFFFFFFFFFFFFF AND PUSH2 0x8FC SELFBALANCE SWAP1 DUP2 ISZERO MUL SWAP1 PUSH1 0x40 MLOAD PUSH1 0x0 PUSH1 0x40 MLOAD DUP1 DUP4 SUB DUP2 DUP6 DUP9 DUP9 CALL SWAP4 POP POP POP POP ISZERO DUP1 ISZERO PUSH2 0x1E0F JUMPI RETURNDATASIZE PUSH1 0x0 DUP1 RETURNDATACOPY RETURNDATASIZE PUSH1 0x0 REVERT JUMPDEST POP JUMP JUMPDEST PUSH1 0x0 CALLER SWAP1 POP SWAP1 JUMP JUMPDEST PUSH1 0x0 DUP1 PUSH1 0x0 SWAP1 SLOAD SWAP1 PUSH2 0x100 EXP SWAP1 DIV PUSH20 0xFFFFFFFFFFFFFFFFFFFFFFFFFFFFFFFFFFFFFFFF AND SWAP1 POP DUP2 PUSH1 0x0 DUP1 PUSH2 0x100 EXP DUP2 SLOAD DUP2 PUSH20 0xFFFFFFFFFFFFFFFFFFFFFFFFFFFFFFFFFFFFFFFF MUL NOT AND SWAP1 DUP4 PUSH20 0xFFFFFFFFFFFFFFFFFFFFFFFFFFFFFFFFFFFFFFFF AND MUL OR SWAP1 SSTORE POP DUP2 PUSH20 0xFFFFFFFFFFFFFFFFFFFFFFFFFFFFFFFFFFFFFFFF AND DUP2 PUSH20 0xFFFFFFFFFFFFFFFFFFFFFFFFFFFFFFFFFFFFFFFF AND PUSH32 0x8BE0079C531659141344CD1FD0A4F28419497F9722A3DAAFE3B4186F6B6457E0 PUSH1 0x40 MLOAD PUSH1 0x40 MLOAD DUP1 SWAP2 SUB SWAP1 LOG3 POP POP JUMP JUMPDEST DUP3 DUP1 SLOAD PUSH2 0x1EEA SWAP1 PUSH2 0x2A09 JUMP JUMPDEST SWAP1 PUSH1 0x0 MSTORE PUSH1 0x20 PUSH1 0x0 KECCAK256 SWAP1 PUSH1 0x1F ADD PUSH1 0x20 SWAP1 DIV DUP2 ADD SWAP3 DUP3 PUSH2 0x1F0C JUMPI PUSH1 0x0 DUP6 SSTORE PUSH2 0x1F53 JUMP JUMPDEST DUP3 PUSH1 0x1F LT PUSH2 0x1F25 JUMPI DUP1 MLOAD PUSH1 0xFF NOT AND DUP4 DUP1 ADD OR DUP6 SSTORE PUSH2 0x1F53 JUMP JUMPDEST DUP3 DUP1 ADD PUSH1 0x1 ADD DUP6 SSTORE DUP3 ISZERO PUSH2 0x1F53 JUMPI SWAP2 DUP3 ADD JUMPDEST DUP3 DUP2 GT ISZERO PUSH2 0x1F52 JUMPI DUP3 MLOAD DUP3 SSTORE SWAP2 PUSH1 0x20 ADD SWAP2 SWAP1 PUSH1 0x1 ADD SWAP1 PUSH2 0x1F37 JUMP JUMPDEST JUMPDEST POP SWAP1 POP PUSH2 0x1F60 SWAP2 SWAP1 PUSH2 0x1F64 JUMP JUMPDEST POP SWAP1 JUMP JUMPDEST JUMPDEST DUP1 DUP3 GT ISZERO PUSH2 0x1F7D JUMPI PUSH1 0x0 DUP2 PUSH1 0x0 SWAP1 SSTORE POP PUSH1 0x1 ADD PUSH2 0x1F65 JUMP JUMPDEST POP SWAP1 JUMP JUMPDEST PUSH1 0x0 PUSH2 0x1F94 PUSH2 0x1F8F DUP5 PUSH2 0x2828 JUMP JUMPDEST PUSH2 0x2803 JUMP JUMPDEST SWAP1 POP DUP3 DUP2 MSTORE PUSH1 0x20 DUP2 ADD DUP5 DUP5 DUP5 ADD GT ISZERO PUSH2 0x1FB0 JUMPI PUSH2 0x1FAF PUSH2 0x2C0D JUMP JUMPDEST JUMPDEST PUSH2 0x1FBB DUP5 DUP3 DUP6 PUSH2 0x299D JUMP JUMPDEST POP SWAP4 SWAP3 POP POP POP JUMP JUMPDEST PUSH1 0x0 PUSH2 0x1FD6 PUSH2 0x1FD1 DUP5 PUSH2 0x2859 JUMP JUMPDEST PUSH2 0x2803 JUMP JUMPDEST SWAP1 POP DUP3 DUP2 MSTORE PUSH1 0x20 DUP2 ADD DUP5 DUP5 DUP5 ADD GT ISZERO PUSH2 0x1FF2 JUMPI PUSH2 0x1FF1 PUSH2 0x2C0D JUMP JUMPDEST JUMPDEST PUSH2 0x1FFD DUP5 DUP3 DUP6 PUSH2 0x299D JUMP JUMPDEST POP SWAP4 SWAP3 POP POP POP JUMP JUMPDEST PUSH1 0x0 DUP2 CALLDATALOAD SWAP1 POP PUSH2 0x2014 DUP2 PUSH2 0x2D6C JUMP JUMPDEST SWAP3 SWAP2 POP POP JUMP JUMPDEST PUSH1 0x0 DUP2 MLOAD SWAP1 POP PUSH2 0x2029 DUP2 PUSH2 0x2D6C JUMP JUMPDEST SWAP3 SWAP2 POP POP JUMP JUMPDEST PUSH1 0x0 DUP2 CALLDATALOAD SWAP1 POP PUSH2 0x203E DUP2 PUSH2 0x2D83 JUMP JUMPDEST SWAP3 SWAP2 POP POP JUMP JUMPDEST PUSH1 0x0 DUP3 PUSH1 0x1F DUP4 ADD SLT PUSH2 0x2059 JUMPI PUSH2 0x2058 PUSH2 0x2C08 JUMP JUMPDEST JUMPDEST DUP2 CALLDATALOAD PUSH2 0x2069 DUP5 DUP3 PUSH1 0x20 DUP7 ADD PUSH2 0x1F81 JUMP JUMPDEST SWAP2 POP POP SWAP3 SWAP2 POP POP JUMP JUMPDEST PUSH1 0x0 DUP3 PUSH1 0x1F DUP4 ADD SLT PUSH2 0x2087 JUMPI PUSH2 0x2086 PUSH2 0x2C08 JUMP JUMPDEST JUMPDEST DUP2 CALLDATALOAD PUSH2 0x2097 DUP5 DUP3 PUSH1 0x20 DUP7 ADD PUSH2 0x1FC3 JUMP JUMPDEST SWAP2 POP POP SWAP3 SWAP2 POP POP JUMP JUMPDEST PUSH1 0x0 DUP2 CALLDATALOAD SWAP1 POP PUSH2 0x20AF DUP2 PUSH2 0x2D9A JUMP JUMPDEST SWAP3 SWAP2 POP POP JUMP JUMPDEST PUSH1 0x0 PUSH1 0x20 DUP3 DUP5 SUB SLT ISZERO PUSH2 0x20CB JUMPI PUSH2 0x20CA PUSH2 0x2C17 JUMP JUMPDEST JUMPDEST PUSH1 0x0 PUSH2 0x20D9 DUP5 DUP3 DUP6 ADD PUSH2 0x2005 JUMP JUMPDEST SWAP2 POP POP SWAP3 SWAP2 POP POP JUMP JUMPDEST PUSH1 0x0 PUSH1 0x20 DUP3 DUP5 SUB SLT ISZERO PUSH2 0x20F8 JUMPI PUSH2 0x20F7 PUSH2 0x2C17 JUMP JUMPDEST JUMPDEST PUSH1 0x0 PUSH2 0x2106 DUP5 DUP3 DUP6 ADD PUSH2 0x201A JUMP JUMPDEST SWAP2 POP POP SWAP3 SWAP2 POP POP JUMP JUMPDEST PUSH1 0x0 DUP1 PUSH1 0x40 DUP4 DUP6 SUB SLT ISZERO PUSH2 0x2126 JUMPI PUSH2 0x2125 PUSH2 0x2C17 JUMP JUMPDEST JUMPDEST PUSH1 0x0 PUSH2 0x2134 DUP6 DUP3 DUP7 ADD PUSH2 0x2005 JUMP JUMPDEST SWAP3 POP POP PUSH1 0x20 PUSH2 0x2145 DUP6 DUP3 DUP7 ADD PUSH2 0x2005 JUMP JUMPDEST SWAP2 POP POP SWAP3 POP SWAP3 SWAP1 POP JUMP JUMPDEST PUSH1 0x0 DUP1 PUSH1 0x0 PUSH1 0x60 DUP5 DUP7 SUB SLT ISZERO PUSH2 0x2168 JUMPI PUSH2 0x2167 PUSH2 0x2C17 JUMP JUMPDEST JUMPDEST PUSH1 0x0 PUSH2 0x2176 DUP7 DUP3 DUP8 ADD PUSH2 0x2005 JUMP JUMPDEST SWAP4 POP POP PUSH1 0x20 PUSH2 0x2187 DUP7 DUP3 DUP8 ADD PUSH2 0x2005 JUMP JUMPDEST SWAP3 POP POP PUSH1 0x40 PUSH2 0x2198 DUP7 DUP3 DUP8 ADD PUSH2 0x20A0 JUMP JUMPDEST SWAP2 POP POP SWAP3 POP SWAP3 POP SWAP3 JUMP JUMPDEST PUSH1 0x0 DUP1 PUSH1 0x0 DUP1 PUSH1 0x80 DUP6 DUP8 SUB SLT ISZERO PUSH2 0x21BC JUMPI PUSH2 0x21BB PUSH2 0x2C17 JUMP JUMPDEST JUMPDEST PUSH1 0x0 PUSH2 0x21CA DUP8 DUP3 DUP9 ADD PUSH2 0x2005 JUMP JUMPDEST SWAP5 POP POP PUSH1 0x20 PUSH2 0x21DB DUP8 DUP3 DUP9 ADD PUSH2 0x2005 JUMP JUMPDEST SWAP4 POP POP PUSH1 0x40 PUSH2 0x21EC DUP8 DUP3 DUP9 ADD PUSH2 0x20A0 JUMP JUMPDEST SWAP3 POP POP PUSH1 0x60 DUP6 ADD CALLDATALOAD PUSH8 0xFFFFFFFFFFFFFFFF DUP2 GT ISZERO PUSH2 0x220D JUMPI PUSH2 0x220C PUSH2 0x2C12 JUMP JUMPDEST JUMPDEST PUSH2 0x2219 DUP8 DUP3 DUP9 ADD PUSH2 0x2044 JUMP JUMPDEST SWAP2 POP POP SWAP3 SWAP6 SWAP2 SWAP5 POP SWAP3 POP JUMP JUMPDEST PUSH1 0x0 DUP1 PUSH1 0x40 DUP4 DUP6 SUB SLT ISZERO PUSH2 0x223C JUMPI PUSH2 0x223B PUSH2 0x2C17 JUMP JUMPDEST JUMPDEST PUSH1 0x0 PUSH2 0x224A DUP6 DUP3 DUP7 ADD PUSH2 0x2005 JUMP JUMPDEST SWAP3 POP POP PUSH1 0x20 PUSH2 0x225B DUP6 DUP3 DUP7 ADD PUSH2 0x202F JUMP JUMPDEST SWAP2 POP POP SWAP3 POP SWAP3 SWAP1 POP JUMP JUMPDEST PUSH1 0x0 DUP1 PUSH1 0x0 PUSH1 0x60 DUP5 DUP7 SUB SLT ISZERO PUSH2 0x227E JUMPI PUSH2 0x227D PUSH2 0x2C17 JUMP JUMPDEST JUMPDEST PUSH1 0x0 PUSH2 0x228C DUP7 DUP3 DUP8 ADD PUSH2 0x2005 JUMP JUMPDEST SWAP4 POP POP PUSH1 0x20 DUP5 ADD CALLDATALOAD PUSH8 0xFFFFFFFFFFFFFFFF DUP2 GT ISZERO PUSH2 0x22AD JUMPI PUSH2 0x22AC PUSH2 0x2C12 JUMP JUMPDEST JUMPDEST PUSH2 0x22B9 DUP7 DUP3 DUP8 ADD PUSH2 0x2072 JUMP JUMPDEST SWAP3 POP POP PUSH1 0x40 DUP5 ADD CALLDATALOAD PUSH8 0xFFFFFFFFFFFFFFFF DUP2 GT ISZERO PUSH2 0x22DA JUMPI PUSH2 0x22D9 PUSH2 0x2C12 JUMP JUMPDEST JUMPDEST PUSH2 0x22E6 DUP7 DUP3 DUP8 ADD PUSH2 0x2072 JUMP JUMPDEST SWAP2 POP POP SWAP3 POP SWAP3 POP SWAP3 JUMP JUMPDEST PUSH1 0x0 DUP1 PUSH1 0x40 DUP4 DUP6 SUB SLT ISZERO PUSH2 0x2307 JUMPI PUSH2 0x2306 PUSH2 0x2C17 JUMP JUMPDEST JUMPDEST PUSH1 0x0 PUSH2 0x2315 DUP6 DUP3 DUP7 ADD PUSH2 0x2005 JUMP JUMPDEST SWAP3 POP POP PUSH1 0x20 PUSH2 0x2326 DUP6 DUP3 DUP7 ADD PUSH2 0x20A0 JUMP JUMPDEST SWAP2 POP POP SWAP3 POP SWAP3 SWAP1 POP JUMP JUMPDEST PUSH1 0x0 DUP1 PUSH1 0x0 PUSH1 0x60 DUP5 DUP7 SUB SLT ISZERO PUSH2 0x2349 JUMPI PUSH2 0x2348 PUSH2 0x2C17 JUMP JUMPDEST JUMPDEST PUSH1 0x0 DUP5 ADD CALLDATALOAD PUSH8 0xFFFFFFFFFFFFFFFF DUP2 GT ISZERO PUSH2 0x2367 JUMPI PUSH2 0x2366 PUSH2 0x2C12 JUMP JUMPDEST JUMPDEST PUSH2 0x2373 DUP7 DUP3 DUP8 ADD PUSH2 0x2072 JUMP JUMPDEST SWAP4 POP POP PUSH1 0x20 DUP5 ADD CALLDATALOAD PUSH8 0xFFFFFFFFFFFFFFFF DUP2 GT ISZERO PUSH2 0x2394 JUMPI PUSH2 0x2393 PUSH2 0x2C12 JUMP JUMPDEST JUMPDEST PUSH2 0x23A0 DUP7 DUP3 DUP8 ADD PUSH2 0x2072 JUMP JUMPDEST SWAP3 POP POP PUSH1 0x40 DUP5 ADD CALLDATALOAD PUSH8 0xFFFFFFFFFFFFFFFF DUP2 GT ISZERO PUSH2 0x23C1 JUMPI PUSH2 0x23C0 PUSH2 0x2C12 JUMP JUMPDEST JUMPDEST PUSH2 0x23CD DUP7 DUP3 DUP8 ADD PUSH2 0x2072 JUMP JUMPDEST SWAP2 POP POP SWAP3 POP SWAP3 POP SWAP3 JUMP JUMPDEST PUSH1 0x0 PUSH1 0x20 DUP3 DUP5 SUB SLT ISZERO PUSH2 0x23ED JUMPI PUSH2 0x23EC PUSH2 0x2C17 JUMP JUMPDEST JUMPDEST PUSH1 0x0 PUSH2 0x23FB DUP5 DUP3 DUP6 ADD PUSH2 0x20A0 JUMP JUMPDEST SWAP2 POP POP SWAP3 SWAP2 POP POP JUMP JUMPDEST PUSH2 0x240D DUP2 PUSH2 0x2945 JUMP JUMPDEST DUP3 MSTORE POP POP JUMP JUMPDEST PUSH2 0x241C DUP2 PUSH2 0x2957 JUMP JUMPDEST DUP3 MSTORE POP POP JUMP JUMPDEST PUSH1 0x0 PUSH2 0x242D DUP3 PUSH2 0x289F JUMP JUMPDEST PUSH2 0x2437 DUP2 DUP6 PUSH2 0x28AA JUMP JUMPDEST SWAP4 POP PUSH2 0x2447 DUP2 DUP6 PUSH1 0x20 DUP7 ADD PUSH2 0x29AC JUMP JUMPDEST PUSH2 0x2450 DUP2 PUSH2 0x2C1C JUMP JUMPDEST DUP5 ADD SWAP2 POP POP SWAP3 SWAP2 POP POP JUMP JUMPDEST PUSH1 0x0 DUP2 SLOAD PUSH2 0x2468 DUP2 PUSH2 0x2A09 JUMP JUMPDEST PUSH2 0x2472 DUP2 DUP7 PUSH2 0x28AA JUMP JUMPDEST SWAP5 POP PUSH1 0x1 DUP3 AND PUSH1 0x0 DUP2 EQ PUSH2 0x248D JUMPI PUSH1 0x1 DUP2 EQ PUSH2 0x249F JUMPI PUSH2 0x24D2 JUMP JUMPDEST PUSH1 0xFF NOT DUP4 AND DUP7 MSTORE PUSH1 0x20 DUP7 ADD SWAP4 POP PUSH2 0x24D2 JUMP JUMPDEST PUSH2 0x24A8 DUP6 PUSH2 0x288A JUMP JUMPDEST PUSH1 0x0 JUMPDEST DUP4 DUP2 LT ISZERO PUSH2 0x24CA JUMPI DUP2 SLOAD DUP2 DUP10 ADD MSTORE PUSH1 0x1 DUP3 ADD SWAP2 POP PUSH1 0x20 DUP2 ADD SWAP1 POP PUSH2 0x24AB JUMP JUMPDEST DUP1 DUP9 ADD SWAP6 POP POP POP JUMPDEST POP POP POP SWAP3 SWAP2 POP POP JUMP JUMPDEST PUSH1 0x0 PUSH2 0x24E8 PUSH1 0x28 DUP4 PUSH2 0x28AA JUMP JUMPDEST SWAP2 POP PUSH2 0x24F3 DUP3 PUSH2 0x2C2D JUMP JUMPDEST PUSH1 0x40 DUP3 ADD SWAP1 POP SWAP2 SWAP1 POP JUMP JUMPDEST PUSH1 0x0 PUSH2 0x250B PUSH1 0x26 DUP4 PUSH2 0x28AA JUMP JUMPDEST SWAP2 POP PUSH2 0x2516 DUP3 PUSH2 0x2C7C JUMP JUMPDEST PUSH1 0x40 DUP3 ADD SWAP1 POP SWAP2 SWAP1 POP JUMP JUMPDEST PUSH1 0x0 PUSH2 0x252E PUSH1 0x32 DUP4 PUSH2 0x28AA JUMP JUMPDEST SWAP2 POP PUSH2 0x2539 DUP3 PUSH2 0x2CCB JUMP JUMPDEST PUSH1 0x40 DUP3 ADD SWAP1 POP SWAP2 SWAP1 POP JUMP JUMPDEST PUSH1 0x0 PUSH2 0x2551 PUSH1 0x20 DUP4 PUSH2 0x28AA JUMP JUMPDEST SWAP2 POP PUSH2 0x255C DUP3 PUSH2 0x2D1A JUMP JUMPDEST PUSH1 0x20 DUP3 ADD SWAP1 POP SWAP2 SWAP1 POP JUMP JUMPDEST PUSH1 0x0 PUSH2 0x2574 PUSH1 0x15 DUP4 PUSH2 0x28AA JUMP JUMPDEST SWAP2 POP PUSH2 0x257F DUP3 PUSH2 0x2D43 JUMP JUMPDEST PUSH1 0x20 DUP3 ADD SWAP1 POP SWAP2 SWAP1 POP JUMP JUMPDEST PUSH2 0x2593 DUP2 PUSH2 0x2983 JUMP JUMPDEST DUP3 MSTORE POP POP JUMP JUMPDEST PUSH2 0x25AA PUSH2 0x25A5 DUP3 PUSH2 0x2983 JUMP JUMPDEST PUSH2 0x2AE2 JUMP JUMPDEST DUP3 MSTORE POP POP JUMP JUMPDEST PUSH2 0x25B9 DUP2 PUSH2 0x298D JUMP JUMPDEST DUP3 MSTORE POP POP JUMP JUMPDEST PUSH1 0x0 PUSH2 0x25CB DUP3 DUP7 PUSH2 0x2599 JUMP JUMPDEST PUSH1 0x20 DUP3 ADD SWAP2 POP PUSH2 0x25DB DUP3 DUP6 PUSH2 0x2599 JUMP JUMPDEST PUSH1 0x20 DUP3 ADD SWAP2 POP PUSH2 0x25EB DUP3 DUP5 PUSH2 0x2599 JUMP JUMPDEST PUSH1 0x20 DUP3 ADD SWAP2 POP DUP2 SWAP1 POP SWAP5 SWAP4 POP POP POP POP JUMP JUMPDEST PUSH1 0x0 PUSH1 0x20 DUP3 ADD SWAP1 POP PUSH2 0x2611 PUSH1 0x0 DUP4 ADD DUP5 PUSH2 0x2404 JUMP JUMPDEST SWAP3 SWAP2 POP POP JUMP JUMPDEST PUSH1 0x0 PUSH2 0x100 DUP3 ADD SWAP1 POP PUSH2 0x262D PUSH1 0x0 DUP4 ADD DUP12 PUSH2 0x2404 JUMP JUMPDEST DUP2 DUP2 SUB PUSH1 0x20 DUP4 ADD MSTORE PUSH2 0x263F DUP2 DUP11 PUSH2 0x2422 JUMP JUMPDEST SWAP1 POP DUP2 DUP2 SUB PUSH1 0x40 DUP4 ADD MSTORE PUSH2 0x2653 DUP2 DUP10 PUSH2 0x2422 JUMP JUMPDEST SWAP1 POP DUP2 DUP2 SUB PUSH1 0x60 DUP4 ADD MSTORE PUSH2 0x2667 DUP2 DUP9 PUSH2 0x2422 JUMP JUMPDEST SWAP1 POP PUSH2 0x2676 PUSH1 0x80 DUP4 ADD DUP8 PUSH2 0x258A JUMP JUMPDEST PUSH2 0x2683 PUSH1 0xA0 DUP4 ADD DUP7 PUSH2 0x258A JUMP JUMPDEST PUSH2 0x2690 PUSH1 0xC0 DUP4 ADD DUP6 PUSH2 0x258A JUMP JUMPDEST PUSH2 0x269D PUSH1 0xE0 DUP4 ADD DUP5 PUSH2 0x25B0 JUMP JUMPDEST SWAP10 SWAP9 POP POP POP POP POP POP POP POP POP JUMP JUMPDEST PUSH1 0x0 PUSH1 0x20 DUP3 ADD SWAP1 POP PUSH2 0x26BF PUSH1 0x0 DUP4 ADD DUP5 PUSH2 0x2413 JUMP JUMPDEST SWAP3 SWAP2 POP POP JUMP JUMPDEST PUSH1 0x0 PUSH1 0x20 DUP3 ADD SWAP1 POP DUP2 DUP2 SUB PUSH1 0x0 DUP4 ADD MSTORE PUSH2 0x26DF DUP2 DUP5 PUSH2 0x2422 JUMP JUMPDEST SWAP1 POP SWAP3 SWAP2 POP POP JUMP JUMPDEST PUSH1 0x0 PUSH1 0xA0 DUP3 ADD SWAP1 POP DUP2 DUP2 SUB PUSH1 0x0 DUP4 ADD MSTORE PUSH2 0x2701 DUP2 DUP9 PUSH2 0x245B JUMP JUMPDEST SWAP1 POP DUP2 DUP2 SUB PUSH1 0x20 DUP4 ADD MSTORE PUSH2 0x2715 DUP2 DUP8 PUSH2 0x245B JUMP JUMPDEST SWAP1 POP PUSH2 0x2724 PUSH1 0x40 DUP4 ADD DUP7 PUSH2 0x25B0 JUMP JUMPDEST PUSH2 0x2731 PUSH1 0x60 DUP4 ADD DUP6 PUSH2 0x258A JUMP JUMPDEST PUSH2 0x273E PUSH1 0x80 DUP4 ADD DUP5 PUSH2 0x258A JUMP JUMPDEST SWAP7 SWAP6 POP POP POP POP POP POP JUMP JUMPDEST PUSH1 0x0 PUSH1 0x20 DUP3 ADD SWAP1 POP DUP2 DUP2 SUB PUSH1 0x0 DUP4 ADD MSTORE PUSH2 0x2761 DUP2 PUSH2 0x24DB JUMP JUMPDEST SWAP1 POP SWAP2 SWAP1 POP JUMP JUMPDEST PUSH1 0x0 PUSH1 0x20 DUP3 ADD SWAP1 POP DUP2 DUP2 SUB PUSH1 0x0 DUP4 ADD MSTORE PUSH2 0x2781 DUP2 PUSH2 0x24FE JUMP JUMPDEST SWAP1 POP SWAP2 SWAP1 POP JUMP JUMPDEST PUSH1 0x0 PUSH1 0x20 DUP3 ADD SWAP1 POP DUP2 DUP2 SUB PUSH1 0x0 DUP4 ADD MSTORE PUSH2 0x27A1 DUP2 PUSH2 0x2521 JUMP JUMPDEST SWAP1 POP SWAP2 SWAP1 POP JUMP JUMPDEST PUSH1 0x0 PUSH1 0x20 DUP3 ADD SWAP1 POP DUP2 DUP2 SUB PUSH1 0x0 DUP4 ADD MSTORE PUSH2 0x27C1 DUP2 PUSH2 0x2544 JUMP JUMPDEST SWAP1 POP SWAP2 SWAP1 POP JUMP JUMPDEST PUSH1 0x0 PUSH1 0x20 DUP3 ADD SWAP1 POP DUP2 DUP2 SUB PUSH1 0x0 DUP4 ADD MSTORE PUSH2 0x27E1 DUP2 PUSH2 0x2567 JUMP JUMPDEST SWAP1 POP SWAP2 SWAP1 POP JUMP JUMPDEST PUSH1 0x0 PUSH1 0x20 DUP3 ADD SWAP1 POP PUSH2 0x27FD PUSH1 0x0 DUP4 ADD DUP5 PUSH2 0x258A JUMP JUMPDEST SWAP3 SWAP2 POP POP JUMP JUMPDEST PUSH1 0x0 PUSH2 0x280D PUSH2 0x281E JUMP JUMPDEST SWAP1 POP PUSH2 0x2819 DUP3 DUP3 PUSH2 0x2A3B JUMP JUMPDEST SWAP2 SWAP1 POP JUMP JUMPDEST PUSH1 0x0 PUSH1 0x40 MLOAD SWAP1 POP SWAP1 JUMP JUMPDEST PUSH1 0x0 PUSH8 0xFFFFFFFFFFFFFFFF DUP3 GT ISZERO PUSH2 0x2843 JUMPI PUSH2 0x2842 PUSH2 0x2BD9 JUMP JUMPDEST JUMPDEST PUSH2 0x284C DUP3 PUSH2 0x2C1C JUMP JUMPDEST SWAP1 POP PUSH1 0x20 DUP2 ADD SWAP1 POP SWAP2 SWAP1 POP JUMP JUMPDEST PUSH1 0x0 PUSH8 0xFFFFFFFFFFFFFFFF DUP3 GT ISZERO PUSH2 0x2874 JUMPI PUSH2 0x2873 PUSH2 0x2BD9 JUMP JUMPDEST JUMPDEST PUSH2 0x287D DUP3 PUSH2 0x2C1C JUMP JUMPDEST SWAP1 POP PUSH1 0x20 DUP2 ADD SWAP1 POP SWAP2 SWAP1 POP JUMP JUMPDEST PUSH1 0x0 DUP2 SWAP1 POP DUP2 PUSH1 0x0 MSTORE PUSH1 0x20 PUSH1 0x0 KECCAK256 SWAP1 POP SWAP2 SWAP1 POP JUMP JUMPDEST PUSH1 0x0 DUP2 MLOAD SWAP1 POP SWAP2 SWAP1 POP JUMP JUMPDEST PUSH1 0x0 DUP3 DUP3 MSTORE PUSH1 0x20 DUP3 ADD SWAP1 POP SWAP3 SWAP2 POP POP JUMP JUMPDEST PUSH1 0x0 PUSH2 0x28C6 DUP3 PUSH2 0x2983 JUMP JUMPDEST SWAP2 POP PUSH2 0x28D1 DUP4 PUSH2 0x2983 JUMP JUMPDEST SWAP3 POP DUP3 PUSH32 0xFFFFFFFFFFFFFFFFFFFFFFFFFFFFFFFFFFFFFFFFFFFFFFFFFFFFFFFFFFFFFFFF SUB DUP3 GT ISZERO PUSH2 0x2906 JUMPI PUSH2 0x2905 PUSH2 0x2B1D JUMP JUMPDEST JUMPDEST DUP3 DUP3 ADD SWAP1 POP SWAP3 SWAP2 POP POP JUMP JUMPDEST PUSH1 0x0 PUSH2 0x291C DUP3 PUSH2 0x2983 JUMP JUMPDEST SWAP2 POP PUSH2 0x2927 DUP4 PUSH2 0x2983 JUMP JUMPDEST SWAP3 POP DUP3 DUP3 LT ISZERO PUSH2 0x293A JUMPI PUSH2 0x2939 PUSH2 0x2B1D JUMP JUMPDEST JUMPDEST DUP3 DUP3 SUB SWAP1 POP SWAP3 SWAP2 POP POP JUMP JUMPDEST PUSH1 0x0 PUSH2 0x2950 DUP3 PUSH2 0x2963 JUMP JUMPDEST SWAP1 POP SWAP2 SWAP1 POP JUMP JUMPDEST PUSH1 0x0 DUP2 ISZERO ISZERO SWAP1 POP SWAP2 SWAP1 POP JUMP JUMPDEST PUSH1 0x0 PUSH20 0xFFFFFFFFFFFFFFFFFFFFFFFFFFFFFFFFFFFFFFFF DUP3 AND SWAP1 POP SWAP2 SWAP1 POP JUMP JUMPDEST PUSH1 0x0 DUP2 SWAP1 POP SWAP2 SWAP1 POP JUMP JUMPDEST PUSH1 0x0 PUSH4 0xFFFFFFFF DUP3 AND SWAP1 POP SWAP2 SWAP1 POP JUMP JUMPDEST DUP3 DUP2 DUP4 CALLDATACOPY PUSH1 0x0 DUP4 DUP4 ADD MSTORE POP POP POP JUMP JUMPDEST PUSH1 0x0 JUMPDEST DUP4 DUP2 LT ISZERO PUSH2 0x29CA JUMPI DUP1 DUP3 ADD MLOAD DUP2 DUP5 ADD MSTORE PUSH1 0x20 DUP2 ADD SWAP1 POP PUSH2 0x29AF JUMP JUMPDEST DUP4 DUP2 GT ISZERO PUSH2 0x29D9 JUMPI PUSH1 0x0 DUP5 DUP5 ADD MSTORE JUMPDEST POP POP POP POP JUMP JUMPDEST PUSH1 0x0 PUSH2 0x29EA DUP3 PUSH2 0x2983 JUMP JUMPDEST SWAP2 POP PUSH1 0x0 DUP3 EQ ISZERO PUSH2 0x29FE JUMPI PUSH2 0x29FD PUSH2 0x2B1D JUMP JUMPDEST JUMPDEST PUSH1 0x1 DUP3 SUB SWAP1 POP SWAP2 SWAP1 POP JUMP JUMPDEST PUSH1 0x0 PUSH1 0x2 DUP3 DIV SWAP1 POP PUSH1 0x1 DUP3 AND DUP1 PUSH2 0x2A21 JUMPI PUSH1 0x7F DUP3 AND SWAP2 POP JUMPDEST PUSH1 0x20 DUP3 LT DUP2 EQ ISZERO PUSH2 0x2A35 JUMPI PUSH2 0x2A34 PUSH2 0x2B7B JUMP JUMPDEST JUMPDEST POP SWAP2 SWAP1 POP JUMP JUMPDEST PUSH2 0x2A44 DUP3 PUSH2 0x2C1C JUMP JUMPDEST DUP2 ADD DUP2 DUP2 LT PUSH8 0xFFFFFFFFFFFFFFFF DUP3 GT OR ISZERO PUSH2 0x2A63 JUMPI PUSH2 0x2A62 PUSH2 0x2BD9 JUMP JUMPDEST JUMPDEST DUP1 PUSH1 0x40 MSTORE POP POP POP JUMP JUMPDEST PUSH1 0x0 PUSH2 0x2A77 DUP3 PUSH2 0x2983 JUMP JUMPDEST SWAP2 POP PUSH32 0xFFFFFFFFFFFFFFFFFFFFFFFFFFFFFFFFFFFFFFFFFFFFFFFFFFFFFFFFFFFFFFFF DUP3 EQ ISZERO PUSH2 0x2AAA JUMPI PUSH2 0x2AA9 PUSH2 0x2B1D JUMP JUMPDEST JUMPDEST PUSH1 0x1 DUP3 ADD SWAP1 POP SWAP2 SWAP1 POP JUMP JUMPDEST PUSH1 0x0 PUSH2 0x2AC0 DUP3 PUSH2 0x298D JUMP JUMPDEST SWAP2 POP PUSH4 0xFFFFFFFF DUP3 EQ ISZERO PUSH2 0x2AD7 JUMPI PUSH2 0x2AD6 PUSH2 0x2B1D JUMP JUMPDEST JUMPDEST PUSH1 0x1 DUP3 ADD SWAP1 POP SWAP2 SWAP1 POP JUMP JUMPDEST PUSH1 0x0 DUP2 SWAP1 POP SWAP2 SWAP1 POP JUMP JUMPDEST PUSH1 0x0 PUSH2 0x2AF7 DUP3 PUSH2 0x2983 JUMP JUMPDEST SWAP2 POP PUSH2 0x2B02 DUP4 PUSH2 0x2983 JUMP JUMPDEST SWAP3 POP DUP3 PUSH2 0x2B12 JUMPI PUSH2 0x2B11 PUSH2 0x2B4C JUMP JUMPDEST JUMPDEST DUP3 DUP3 MOD SWAP1 POP SWAP3 SWAP2 POP POP JUMP JUMPDEST PUSH32 0x4E487B7100000000000000000000000000000000000000000000000000000000 PUSH1 0x0 MSTORE PUSH1 0x11 PUSH1 0x4 MSTORE PUSH1 0x24 PUSH1 0x0 REVERT JUMPDEST PUSH32 0x4E487B7100000000000000000000000000000000000000000000000000000000 PUSH1 0x0 MSTORE PUSH1 0x12 PUSH1 0x4 MSTORE PUSH1 0x24 PUSH1 0x0 REVERT JUMPDEST PUSH32 0x4E487B7100000000000000000000000000000000000000000000000000000000 PUSH1 0x0 MSTORE PUSH1 0x22 PUSH1 0x4 MSTORE PUSH1 0x24 PUSH1 0x0 REVERT JUMPDEST PUSH32 0x4E487B7100000000000000000000000000000000000000000000000000000000 PUSH1 0x0 MSTORE PUSH1 0x32 PUSH1 0x4 MSTORE PUSH1 0x24 PUSH1 0x0 REVERT JUMPDEST PUSH32 0x4E487B7100000000000000000000000000000000000000000000000000000000 PUSH1 0x0 MSTORE PUSH1 0x41 PUSH1 0x4 MSTORE PUSH1 0x24 PUSH1 0x0 REVERT JUMPDEST PUSH1 0x0 DUP1 REVERT JUMPDEST PUSH1 0x0 DUP1 REVERT JUMPDEST PUSH1 0x0 DUP1 REVERT JUMPDEST PUSH1 0x0 DUP1 REVERT JUMPDEST PUSH1 0x0 PUSH1 0x1F NOT PUSH1 0x1F DUP4 ADD AND SWAP1 POP SWAP2 SWAP1 POP JUMP JUMPDEST PUSH32 0x536F6C6F2073652070756564652074656E657220756E20636F63686520706F72 PUSH1 0x0 DUP3 ADD MSTORE PUSH32 0x20706572736F6E61000000000000000000000000000000000000000000000000 PUSH1 0x20 DUP3 ADD MSTORE POP JUMP JUMPDEST PUSH32 0x4F776E61626C653A206E6577206F776E657220697320746865207A65726F2061 PUSH1 0x0 DUP3 ADD MSTORE PUSH32 0x6464726573730000000000000000000000000000000000000000000000000000 PUSH1 0x20 DUP3 ADD MSTORE POP JUMP JUMPDEST PUSH32 0x4E6F2068617920636F6368657320737566696369656E74657320706172612069 PUSH1 0x0 DUP3 ADD MSTORE PUSH32 0x6E696369617220756E6120636172726572610000000000000000000000000000 PUSH1 0x20 DUP3 ADD MSTORE POP JUMP JUMPDEST PUSH32 0x4F776E61626C653A2063616C6C6572206973206E6F7420746865206F776E6572 PUSH1 0x0 DUP3 ADD MSTORE POP JUMP JUMPDEST PUSH32 0x456C20636F6368652067616E61646F722065733A200000000000000000000000 PUSH1 0x0 DUP3 ADD MSTORE POP JUMP JUMPDEST PUSH2 0x2D75 DUP2 PUSH2 0x2945 JUMP JUMPDEST DUP2 EQ PUSH2 0x2D80 JUMPI PUSH1 0x0 DUP1 REVERT JUMPDEST POP JUMP JUMPDEST PUSH2 0x2D8C DUP2 PUSH2 0x2957 JUMP JUMPDEST DUP2 EQ PUSH2 0x2D97 JUMPI PUSH1 0x0 DUP1 REVERT JUMPDEST POP JUMP JUMPDEST PUSH2 0x2DA3 DUP2 PUSH2 0x2983 JUMP JUMPDEST DUP2 EQ PUSH2 0x2DAE JUMPI PUSH1 0x0 DUP1 REVERT JUMPDEST POP JUMP INVALID LOG2 PUSH5 0x6970667358 0x22 SLT KECCAK256 PUSH16 0x6ACC9490EF8A5932C0AFB8F81E90F4EE 0xE6 SWAP12 CHAINID EXTCODECOPY 0xB5 0xE0 SELFBALANCE 0x4B JUMPI STATICCALL 0xC6 0xEE STOP PUSH27 0x3A64736F6C63430008070033000000000000000000000000000000 "
				},
				"gasEstimates": {
					"creation": {
						"codeDepositCost": "2350200",
						"executionCost": "infinite",
						"totalCost": "infinite"
					},
					"external": {
						"Apostar(uint256)": "infinite",
						"_owner()": "2622",
						"anadirCoche(string,string,string)": "infinite",
						"approve(address,uint256)": "26939",
						"balanceOf(address)": "2974",
						"cocheDePropietario(uint256)": "2884",
						"comprarCoche(address,string,string)": "infinite",
						"getApproved(uint256)": "689",
						"isApprovedForAll(address,address)": "infinite",
						"listaCoches(uint256)": "infinite",
						"numeroCochesPersona(address)": "2904",
						"owner()": "2589",
						"ownerOf(uint256)": "2932",
						"renounceOwnership()": "30397",
						"safeTransferFrom(address,address,uint256)": "infinite",
						"safeTransferFrom(address,address,uint256,bytes)": "infinite",
						"setApprovalForAll(address,bool)": "723",
						"subirDeNivel(address)": "infinite",
						"takeOwnership(uint256)": "infinite",
						"transferFrom(address,address,uint256)": "infinite",
						"transferOwnership(address)": "30855",
						"verCochePropietario(address)": "infinite"
					},
					"internal": {
						"_transfer(address,address,uint256)": "infinite"
					}
				},
				"methodIdentifiers": {
					"Apostar(uint256)": "6b6f0494",
					"_owner()": "b2bdfa7b",
					"anadirCoche(string,string,string)": "2458c544",
					"approve(address,uint256)": "095ea7b3",
					"balanceOf(address)": "70a08231",
					"cocheDePropietario(uint256)": "858b0554",
					"comprarCoche(address,string,string)": "049a5f65",
					"getApproved(uint256)": "081812fc",
					"isApprovedForAll(address,address)": "e985e9c5",
					"listaCoches(uint256)": "d735573d",
					"numeroCochesPersona(address)": "1c6743e4",
					"owner()": "8da5cb5b",
					"ownerOf(uint256)": "6352211e",
					"renounceOwnership()": "715018a6",
					"safeTransferFrom(address,address,uint256)": "42842e0e",
					"safeTransferFrom(address,address,uint256,bytes)": "b88d4fde",
					"setApprovalForAll(address,bool)": "a22cb465",
					"subirDeNivel(address)": "6a7d1816",
					"takeOwnership(uint256)": "b2e6ceeb",
					"transferFrom(address,address,uint256)": "23b872dd",
					"transferOwnership(address)": "f2fde38b",
					"verCochePropietario(address)": "e172fca8"
				}
			},
			"storageLayout": {
				"storage": [
					{
						"astId": 300,
						"contract": "contracts/CarreraCoches/cocheToken.sol:CocheToken",
						"label": "_owner",
						"offset": 0,
						"slot": "0",
						"type": "t_address"
					},
					{
						"astId": 422,
						"contract": "contracts/CarreraCoches/cocheToken.sol:CocheToken",
						"label": "randNonce",
						"offset": 0,
						"slot": "1",
						"type": "t_uint256"
					},
					{
						"astId": 425,
						"contract": "contracts/CarreraCoches/cocheToken.sol:CocheToken",
						"label": "contador",
						"offset": 0,
						"slot": "2",
						"type": "t_uint256"
					},
					{
						"astId": 428,
						"contract": "contracts/CarreraCoches/cocheToken.sol:CocheToken",
						"label": "cooldown",
						"offset": 0,
						"slot": "3",
						"type": "t_uint256"
					},
					{
						"astId": 431,
						"contract": "contracts/CarreraCoches/cocheToken.sol:CocheToken",
						"label": "subirNivel",
						"offset": 0,
						"slot": "4",
						"type": "t_uint256"
					},
					{
						"astId": 434,
						"contract": "contracts/CarreraCoches/cocheToken.sol:CocheToken",
						"label": "cambiarCocheV",
						"offset": 0,
						"slot": "5",
						"type": "t_uint256"
					},
					{
						"astId": 438,
						"contract": "contracts/CarreraCoches/cocheToken.sol:CocheToken",
						"label": "listaCoches",
						"offset": 0,
						"slot": "6",
						"type": "t_array(t_struct(Coche)419_storage)dyn_storage"
					},
					{
						"astId": 468,
						"contract": "contracts/CarreraCoches/cocheToken.sol:CocheToken",
						"label": "cocheDePropietario",
						"offset": 0,
						"slot": "7",
						"type": "t_mapping(t_uint256,t_address)"
					},
					{
						"astId": 472,
						"contract": "contracts/CarreraCoches/cocheToken.sol:CocheToken",
						"label": "numeroCochesPersona",
						"offset": 0,
						"slot": "8",
						"type": "t_mapping(t_address,t_uint256)"
					},
					{
						"astId": 11,
						"contract": "contracts/CarreraCoches/cocheToken.sol:CocheToken",
						"label": "confirmarTransferencia",
						"offset": 0,
						"slot": "9",
						"type": "t_mapping(t_uint256,t_address)"
					}
				],
				"types": {
					"t_address": {
						"encoding": "inplace",
						"label": "address",
						"numberOfBytes": "20"
					},
					"t_array(t_struct(Coche)419_storage)dyn_storage": {
						"base": "t_struct(Coche)419_storage",
						"encoding": "dynamic_array",
						"label": "struct CarreraCoches.Coche[]",
						"numberOfBytes": "32"
					},
					"t_mapping(t_address,t_uint256)": {
						"encoding": "mapping",
						"key": "t_address",
						"label": "mapping(address => uint256)",
						"numberOfBytes": "32",
						"value": "t_uint256"
					},
					"t_mapping(t_uint256,t_address)": {
						"encoding": "mapping",
						"key": "t_uint256",
						"label": "mapping(uint256 => address)",
						"numberOfBytes": "32",
						"value": "t_address"
					},
					"t_string_storage": {
						"encoding": "bytes",
						"label": "string",
						"numberOfBytes": "32"
					},
					"t_struct(Coche)419_storage": {
						"encoding": "inplace",
						"label": "struct CarreraCoches.Coche",
						"members": [
							{
								"astId": 404,
								"contract": "contracts/CarreraCoches/cocheToken.sol:CocheToken",
								"label": "idPiloto",
								"offset": 0,
								"slot": "0",
								"type": "t_address"
							},
							{
								"astId": 406,
								"contract": "contracts/CarreraCoches/cocheToken.sol:CocheToken",
								"label": "modelo",
								"offset": 0,
								"slot": "1",
								"type": "t_string_storage"
							},
							{
								"astId": 408,
								"contract": "contracts/CarreraCoches/cocheToken.sol:CocheToken",
								"label": "marca",
								"offset": 0,
								"slot": "2",
								"type": "t_string_storage"
							},
							{
								"astId": 410,
								"contract": "contracts/CarreraCoches/cocheToken.sol:CocheToken",
								"label": "nombrePiloto",
								"offset": 0,
								"slot": "3",
								"type": "t_string_storage"
							},
							{
								"astId": 412,
								"contract": "contracts/CarreraCoches/cocheToken.sol:CocheToken",
								"label": "carrerasGanadas",
								"offset": 0,
								"slot": "4",
								"type": "t_uint256"
							},
							{
								"astId": 414,
								"contract": "contracts/CarreraCoches/cocheToken.sol:CocheToken",
								"label": "carrerasTotales",
								"offset": 0,
								"slot": "5",
								"type": "t_uint256"
							},
							{
								"astId": 416,
								"contract": "contracts/CarreraCoches/cocheToken.sol:CocheToken",
								"label": "tiempoEspera",
								"offset": 0,
								"slot": "6",
								"type": "t_uint256"
							},
							{
								"astId": 418,
								"contract": "contracts/CarreraCoches/cocheToken.sol:CocheToken",
								"label": "nivel",
								"offset": 0,
								"slot": "7",
								"type": "t_uint32"
							}
						],
						"numberOfBytes": "256"
					},
					"t_uint256": {
						"encoding": "inplace",
						"label": "uint256",
						"numberOfBytes": "32"
					},
					"t_uint32": {
						"encoding": "inplace",
						"label": "uint32",
						"numberOfBytes": "4"
					}
				}
			},
			"userdoc": {
				"kind": "user",
				"methods": {},
				"version": 1
			}
		}
	}
}