{
	"contracts/CarreraCoches/principal.sol": {
		"CarreraCoches": {
			"abi": [
				{
					"anonymous": false,
					"inputs": [
						{
							"indexed": true,
							"internalType": "address",
							"name": "previousOwner",
							"type": "address"
						},
						{
							"indexed": true,
							"internalType": "address",
							"name": "newOwner",
							"type": "address"
						}
					],
					"name": "OwnershipTransferred",
					"type": "event"
				},
				{
					"anonymous": false,
					"inputs": [
						{
							"indexed": false,
							"internalType": "string",
							"name": "mo",
							"type": "string"
						},
						{
							"indexed": false,
							"internalType": "string",
							"name": "ma",
							"type": "string"
						}
					],
					"name": "cochePropietario",
					"type": "event"
				},
				{
					"anonymous": false,
					"inputs": [
						{
							"indexed": false,
							"internalType": "uint256",
							"name": "compr",
							"type": "uint256"
						}
					],
					"name": "comprobar",
					"type": "event"
				},
				{
					"anonymous": false,
					"inputs": [
						{
							"indexed": false,
							"internalType": "string",
							"name": "ms",
							"type": "string"
						}
					],
					"name": "confirmacionDepositoLleno",
					"type": "event"
				},
				{
					"anonymous": false,
					"inputs": [
						{
							"indexed": false,
							"internalType": "string",
							"name": "ms",
							"type": "string"
						},
						{
							"indexed": false,
							"internalType": "uint256",
							"name": "res",
							"type": "uint256"
						}
					],
					"name": "mostrarResultado",
					"type": "event"
				},
				{
					"inputs": [
						{
							"internalType": "uint256",
							"name": "dineroApostar",
							"type": "uint256"
						}
					],
					"name": "Apostar",
					"outputs": [
						{
							"internalType": "string",
							"name": "",
							"type": "string"
						}
					],
					"stateMutability": "payable",
					"type": "function"
				},
				{
					"inputs": [
						{
							"internalType": "string",
							"name": "_modelo",
							"type": "string"
						},
						{
							"internalType": "string",
							"name": "_marca",
							"type": "string"
						},
						{
							"internalType": "string",
							"name": "_nombrePiloto",
							"type": "string"
						}
					],
					"name": "anadirCoche",
					"outputs": [
						{
							"internalType": "uint256",
							"name": "",
							"type": "uint256"
						}
					],
					"stateMutability": "nonpayable",
					"type": "function"
				},
				{
					"inputs": [
						{
							"internalType": "uint256",
							"name": "",
							"type": "uint256"
						}
					],
					"name": "cocheDePropietario",
					"outputs": [
						{
							"internalType": "address",
							"name": "",
							"type": "address"
						}
					],
					"stateMutability": "view",
					"type": "function"
				},
				{
					"inputs": [
						{
							"internalType": "uint256",
							"name": "",
							"type": "uint256"
						}
					],
					"name": "listaCoches",
					"outputs": [
						{
							"internalType": "address",
							"name": "idPiloto",
							"type": "address"
						},
						{
							"internalType": "string",
							"name": "modelo",
							"type": "string"
						},
						{
							"internalType": "string",
							"name": "marca",
							"type": "string"
						},
						{
							"internalType": "string",
							"name": "nombrePiloto",
							"type": "string"
						},
						{
							"internalType": "uint256",
							"name": "carrerasGanadas",
							"type": "uint256"
						},
						{
							"internalType": "uint256",
							"name": "carrerasTotales",
							"type": "uint256"
						},
						{
							"internalType": "uint256",
							"name": "tiempoEspera",
							"type": "uint256"
						},
						{
							"internalType": "uint32",
							"name": "nivel",
							"type": "uint32"
						}
					],
					"stateMutability": "view",
					"type": "function"
				},
				{
					"inputs": [
						{
							"internalType": "address",
							"name": "",
							"type": "address"
						}
					],
					"name": "numeroCochesPersona",
					"outputs": [
						{
							"internalType": "uint256",
							"name": "",
							"type": "uint256"
						}
					],
					"stateMutability": "view",
					"type": "function"
				},
				{
					"inputs": [],
					"name": "owner",
					"outputs": [
						{
							"internalType": "address",
							"name": "",
							"type": "address"
						}
					],
					"stateMutability": "view",
					"type": "function"
				},
				{
					"inputs": [],
					"name": "renounceOwnership",
					"outputs": [],
					"stateMutability": "nonpayable",
					"type": "function"
				},
				{
					"inputs": [
						{
							"internalType": "uint256",
							"name": "_coche",
							"type": "uint256"
						}
					],
					"name": "subirDeNivel",
					"outputs": [],
					"stateMutability": "payable",
					"type": "function"
				},
				{
					"inputs": [
						{
							"internalType": "address",
							"name": "newOwner",
							"type": "address"
						}
					],
					"name": "transferOwnership",
					"outputs": [],
					"stateMutability": "nonpayable",
					"type": "function"
				},
				{
					"inputs": [
						{
							"internalType": "address",
							"name": "_propietario",
							"type": "address"
						}
					],
					"name": "verCochePropietario",
					"outputs": [],
					"stateMutability": "nonpayable",
					"type": "function"
				}
			],
			"devdoc": {
				"kind": "dev",
				"methods": {
					"owner()": {
						"details": "Returns the address of the current owner."
					},
					"renounceOwnership()": {
						"details": "Leaves the contract without owner. It will not be possible to call `onlyOwner` functions anymore. Can only be called by the current owner. NOTE: Renouncing ownership will leave the contract without an owner, thereby removing any functionality that is only available to the owner."
					},
					"transferOwnership(address)": {
						"details": "Transfers ownership of the contract to a new account (`newOwner`). Can only be called by the current owner."
					}
				},
				"version": 1
			},
			"evm": {
				"assembly": "    /* \"contracts/CarreraCoches/principal.sol\":54:4065  contract CarreraCoches is Ownable {\r... */\n  mstore(0x40, 0x80)\n    /* \"contracts/CarreraCoches/principal.sol\":370:371  0 */\n  0x00\n    /* \"contracts/CarreraCoches/principal.sol\":353:371  uint randNonce = 0 */\n  0x01\n  sstore\n    /* \"contracts/CarreraCoches/principal.sol\":494:495  0 */\n  0x00\n    /* \"contracts/CarreraCoches/principal.sol\":478:495  uint contador = 0 */\n  0x02\n  sstore\n    /* \"contracts/CarreraCoches/principal.sol\":518:528  60 seconds */\n  0x3c\n    /* \"contracts/CarreraCoches/principal.sol\":502:528  uint cooldown = 60 seconds */\n  0x03\n  sstore\n    /* \"contracts/CarreraCoches/principal.sol\":553:563  0.01 ether */\n  0x2386f26fc10000\n    /* \"contracts/CarreraCoches/principal.sol\":535:563  uint subirNivel = 0.01 ether */\n  0x04\n  sstore\n    /* \"contracts/CarreraCoches/principal.sol\":54:4065  contract CarreraCoches is Ownable {\r... */\n  callvalue\n  dup1\n  iszero\n  tag_1\n  jumpi\n  0x00\n  dup1\n  revert\ntag_1:\n  pop\n    /* \"contracts/CarreraCoches/ownable.sol\":948:980  _transferOwnership(_msgSender()) */\n  tag_4\n    /* \"contracts/CarreraCoches/ownable.sol\":967:979  _msgSender() */\n  tag_5\n    /* \"contracts/CarreraCoches/ownable.sol\":967:977  _msgSender */\n  shl(0x20, tag_6)\n    /* \"contracts/CarreraCoches/ownable.sol\":967:979  _msgSender() */\n  0x20\n  shr\n  jump\t// in\ntag_5:\n    /* \"contracts/CarreraCoches/ownable.sol\":948:966  _transferOwnership */\n  shl(0x20, tag_7)\n    /* \"contracts/CarreraCoches/ownable.sol\":948:980  _transferOwnership(_msgSender()) */\n  0x20\n  shr\n  jump\t// in\ntag_4:\n    /* \"contracts/CarreraCoches/principal.sol\":54:4065  contract CarreraCoches is Ownable {\r... */\n  jump(tag_8)\n    /* \"contracts/CarreraCoches/utils/Context.sol\":656:754  function _msgSender() internal view virtual returns (address) {\r... */\ntag_6:\n    /* \"contracts/CarreraCoches/utils/Context.sol\":709:716  address */\n  0x00\n    /* \"contracts/CarreraCoches/utils/Context.sol\":736:746  msg.sender */\n  caller\n    /* \"contracts/CarreraCoches/utils/Context.sol\":729:746  return msg.sender */\n  swap1\n  pop\n    /* \"contracts/CarreraCoches/utils/Context.sol\":656:754  function _msgSender() internal view virtual returns (address) {\r... */\n  swap1\n  jump\t// out\n    /* \"contracts/CarreraCoches/ownable.sol\":2339:2530  function _transferOwnership(address newOwner) internal virtual {\r... */\ntag_7:\n    /* \"contracts/CarreraCoches/ownable.sol\":2413:2429  address oldOwner */\n  0x00\n    /* \"contracts/CarreraCoches/ownable.sol\":2432:2438  _owner */\n  dup1\n  0x00\n  swap1\n  sload\n  swap1\n  0x0100\n  exp\n  swap1\n  div\n  0xffffffffffffffffffffffffffffffffffffffff\n  and\n    /* \"contracts/CarreraCoches/ownable.sol\":2413:2438  address oldOwner = _owner */\n  swap1\n  pop\n    /* \"contracts/CarreraCoches/ownable.sol\":2458:2466  newOwner */\n  dup2\n    /* \"contracts/CarreraCoches/ownable.sol\":2449:2455  _owner */\n  0x00\n  dup1\n    /* \"contracts/CarreraCoches/ownable.sol\":2449:2466  _owner = newOwner */\n  0x0100\n  exp\n  dup2\n  sload\n  dup2\n  0xffffffffffffffffffffffffffffffffffffffff\n  mul\n  not\n  and\n  swap1\n  dup4\n  0xffffffffffffffffffffffffffffffffffffffff\n  and\n  mul\n  or\n  swap1\n  sstore\n  pop\n    /* \"contracts/CarreraCoches/ownable.sol\":2513:2521  newOwner */\n  dup2\n    /* \"contracts/CarreraCoches/ownable.sol\":2482:2522  OwnershipTransferred(oldOwner, newOwner) */\n  0xffffffffffffffffffffffffffffffffffffffff\n  and\n    /* \"contracts/CarreraCoches/ownable.sol\":2503:2511  oldOwner */\n  dup2\n    /* \"contracts/CarreraCoches/ownable.sol\":2482:2522  OwnershipTransferred(oldOwner, newOwner) */\n  0xffffffffffffffffffffffffffffffffffffffff\n  and\n  0x8be0079c531659141344cd1fd0a4f28419497f9722a3daafe3b4186f6b6457e0\n  mload(0x40)\n  mload(0x40)\n  dup1\n  swap2\n  sub\n  swap1\n  log3\n    /* \"contracts/CarreraCoches/ownable.sol\":2402:2530  {\r... */\n  pop\n    /* \"contracts/CarreraCoches/ownable.sol\":2339:2530  function _transferOwnership(address newOwner) internal virtual {\r... */\n  pop\n  jump\t// out\n    /* \"contracts/CarreraCoches/principal.sol\":54:4065  contract CarreraCoches is Ownable {\r... */\ntag_8:\n  dataSize(sub_0)\n  dup1\n  dataOffset(sub_0)\n  0x00\n  codecopy\n  0x00\n  return\nstop\n\nsub_0: assembly {\n        /* \"contracts/CarreraCoches/principal.sol\":54:4065  contract CarreraCoches is Ownable {\r... */\n      mstore(0x40, 0x80)\n      jumpi(tag_1, lt(calldatasize, 0x04))\n      shr(0xe0, calldataload(0x00))\n      dup1\n      0x858b0554\n      gt\n      tag_12\n      jumpi\n      dup1\n      0x858b0554\n      eq\n      tag_7\n      jumpi\n      dup1\n      0x8da5cb5b\n      eq\n      tag_8\n      jumpi\n      dup1\n      0xd735573d\n      eq\n      tag_9\n      jumpi\n      dup1\n      0xe172fca8\n      eq\n      tag_10\n      jumpi\n      dup1\n      0xf2fde38b\n      eq\n      tag_11\n      jumpi\n      jump(tag_1)\n    tag_12:\n      dup1\n      0x1c6743e4\n      eq\n      tag_2\n      jumpi\n      dup1\n      0x2458c544\n      eq\n      tag_3\n      jumpi\n      dup1\n      0x2d54d647\n      eq\n      tag_4\n      jumpi\n      dup1\n      0x6b6f0494\n      eq\n      tag_5\n      jumpi\n      dup1\n      0x715018a6\n      eq\n      tag_6\n      jumpi\n    tag_1:\n      0x00\n      dup1\n      revert\n        /* \"contracts/CarreraCoches/principal.sol\":851:903  mapping (address => uint) public numeroCochesPersona */\n    tag_2:\n      callvalue\n      dup1\n      iszero\n      tag_13\n      jumpi\n      0x00\n      dup1\n      revert\n    tag_13:\n      pop\n      tag_14\n      0x04\n      dup1\n      calldatasize\n      sub\n      dup2\n      add\n      swap1\n      tag_15\n      swap2\n      swap1\n      tag_16\n      jump\t// in\n    tag_15:\n      tag_17\n      jump\t// in\n    tag_14:\n      mload(0x40)\n      tag_18\n      swap2\n      swap1\n      tag_19\n      jump\t// in\n    tag_18:\n      mload(0x40)\n      dup1\n      swap2\n      sub\n      swap1\n      return\n        /* \"contracts/CarreraCoches/principal.sol\":1146:1586  function anadirCoche(string memory _modelo, string memory _marca, string memory _nombrePiloto) public restriccion returns (uint) {\r... */\n    tag_3:\n      callvalue\n      dup1\n      iszero\n      tag_20\n      jumpi\n      0x00\n      dup1\n      revert\n    tag_20:\n      pop\n      tag_21\n      0x04\n      dup1\n      calldatasize\n      sub\n      dup2\n      add\n      swap1\n      tag_22\n      swap2\n      swap1\n      tag_23\n      jump\t// in\n    tag_22:\n      tag_24\n      jump\t// in\n    tag_21:\n      mload(0x40)\n      tag_25\n      swap2\n      swap1\n      tag_19\n      jump\t// in\n    tag_25:\n      mload(0x40)\n      dup1\n      swap2\n      sub\n      swap1\n      return\n        /* \"contracts/CarreraCoches/principal.sol\":1914:2015  function subirDeNivel(uint _coche) external payable {\r... */\n    tag_4:\n      tag_26\n      0x04\n      dup1\n      calldatasize\n      sub\n      dup2\n      add\n      swap1\n      tag_27\n      swap2\n      swap1\n      tag_28\n      jump\t// in\n    tag_27:\n      tag_29\n      jump\t// in\n    tag_26:\n      stop\n        /* \"contracts/CarreraCoches/principal.sol\":2650:3826  function Apostar(uint dineroApostar) public payable returns(string memory) {\r... */\n    tag_5:\n      tag_30\n      0x04\n      dup1\n      calldatasize\n      sub\n      dup2\n      add\n      swap1\n      tag_31\n      swap2\n      swap1\n      tag_28\n      jump\t// in\n    tag_31:\n      tag_32\n      jump\t// in\n    tag_30:\n      mload(0x40)\n      tag_33\n      swap2\n      swap1\n      tag_34\n      jump\t// in\n    tag_33:\n      mload(0x40)\n      dup1\n      swap2\n      sub\n      swap1\n      return\n        /* \"contracts/CarreraCoches/ownable.sol\":1720:1823  function renounceOwnership() public virtual onlyOwner {\r... */\n    tag_6:\n      callvalue\n      dup1\n      iszero\n      tag_35\n      jumpi\n      0x00\n      dup1\n      revert\n    tag_35:\n      pop\n      tag_36\n      tag_37\n      jump\t// in\n    tag_36:\n      stop\n        /* \"contracts/CarreraCoches/principal.sol\":793:844  mapping (uint => address) public cocheDePropietario */\n    tag_7:\n      callvalue\n      dup1\n      iszero\n      tag_38\n      jumpi\n      0x00\n      dup1\n      revert\n    tag_38:\n      pop\n      tag_39\n      0x04\n      dup1\n      calldatasize\n      sub\n      dup2\n      add\n      swap1\n      tag_40\n      swap2\n      swap1\n      tag_28\n      jump\t// in\n    tag_40:\n      tag_41\n      jump\t// in\n    tag_39:\n      mload(0x40)\n      tag_42\n      swap2\n      swap1\n      tag_43\n      jump\t// in\n    tag_42:\n      mload(0x40)\n      dup1\n      swap2\n      sub\n      swap1\n      return\n        /* \"contracts/CarreraCoches/ownable.sol\":1069:1156  function owner() public view virtual returns (address) {\r... */\n    tag_8:\n      callvalue\n      dup1\n      iszero\n      tag_44\n      jumpi\n      0x00\n      dup1\n      revert\n    tag_44:\n      pop\n      tag_45\n      tag_46\n      jump\t// in\n    tag_45:\n      mload(0x40)\n      tag_47\n      swap2\n      swap1\n      tag_43\n      jump\t// in\n    tag_47:\n      mload(0x40)\n      dup1\n      swap2\n      sub\n      swap1\n      return\n        /* \"contracts/CarreraCoches/principal.sol\":572:598  Coche[] public listaCoches */\n    tag_9:\n      callvalue\n      dup1\n      iszero\n      tag_48\n      jumpi\n      0x00\n      dup1\n      revert\n    tag_48:\n      pop\n      tag_49\n      0x04\n      dup1\n      calldatasize\n      sub\n      dup2\n      add\n      swap1\n      tag_50\n      swap2\n      swap1\n      tag_28\n      jump\t// in\n    tag_50:\n      tag_51\n      jump\t// in\n    tag_49:\n      mload(0x40)\n      tag_52\n      swap9\n      swap8\n      swap7\n      swap6\n      swap5\n      swap4\n      swap3\n      swap2\n      swap1\n      tag_53\n      jump\t// in\n    tag_52:\n      mload(0x40)\n      dup1\n      swap2\n      sub\n      swap1\n      return\n        /* \"contracts/CarreraCoches/principal.sol\":2025:2313  function verCochePropietario(address _propietario) external {\r... */\n    tag_10:\n      callvalue\n      dup1\n      iszero\n      tag_54\n      jumpi\n      0x00\n      dup1\n      revert\n    tag_54:\n      pop\n      tag_55\n      0x04\n      dup1\n      calldatasize\n      sub\n      dup2\n      add\n      swap1\n      tag_56\n      swap2\n      swap1\n      tag_16\n      jump\t// in\n    tag_56:\n      tag_57\n      jump\t// in\n    tag_55:\n      stop\n        /* \"contracts/CarreraCoches/ownable.sol\":1978:2179  function transferOwnership(address newOwner) public virtual onlyOwner {\r... */\n    tag_11:\n      callvalue\n      dup1\n      iszero\n      tag_58\n      jumpi\n      0x00\n      dup1\n      revert\n    tag_58:\n      pop\n      tag_59\n      0x04\n      dup1\n      calldatasize\n      sub\n      dup2\n      add\n      swap1\n      tag_60\n      swap2\n      swap1\n      tag_16\n      jump\t// in\n    tag_60:\n      tag_61\n      jump\t// in\n    tag_59:\n      stop\n        /* \"contracts/CarreraCoches/principal.sol\":851:903  mapping (address => uint) public numeroCochesPersona */\n    tag_17:\n      mstore(0x20, 0x07)\n      dup1\n      0x00\n      mstore\n      keccak256(0x00, 0x40)\n      0x00\n      swap2\n      pop\n      swap1\n      pop\n      sload\n      dup2\n      jump\t// out\n        /* \"contracts/CarreraCoches/principal.sol\":1146:1586  function anadirCoche(string memory _modelo, string memory _marca, string memory _nombrePiloto) public restriccion returns (uint) {\r... */\n    tag_24:\n        /* \"contracts/CarreraCoches/principal.sol\":1269:1273  uint */\n      0x00\n        /* \"contracts/CarreraCoches/principal.sol\":1035:1036  1 */\n      0x01\n        /* \"contracts/CarreraCoches/principal.sol\":1001:1020  numeroCochesPersona */\n      0x07\n        /* \"contracts/CarreraCoches/principal.sol\":1001:1032  numeroCochesPersona[msg.sender] */\n      0x00\n        /* \"contracts/CarreraCoches/principal.sol\":1021:1031  msg.sender */\n      caller\n        /* \"contracts/CarreraCoches/principal.sol\":1001:1032  numeroCochesPersona[msg.sender] */\n      0xffffffffffffffffffffffffffffffffffffffff\n      and\n      0xffffffffffffffffffffffffffffffffffffffff\n      and\n      dup2\n      mstore\n      0x20\n      add\n      swap1\n      dup2\n      mstore\n      0x20\n      add\n      0x00\n      keccak256\n      sload\n        /* \"contracts/CarreraCoches/principal.sol\":1001:1036  numeroCochesPersona[msg.sender] < 1 */\n      lt\n        /* \"contracts/CarreraCoches/principal.sol\":993:1081  require(numeroCochesPersona[msg.sender] < 1, \"Solo se puede tener un coche por persona\") */\n      tag_63\n      jumpi\n      mload(0x40)\n      0x08c379a000000000000000000000000000000000000000000000000000000000\n      dup2\n      mstore\n      0x04\n      add\n      tag_64\n      swap1\n      tag_65\n      jump\t// in\n    tag_64:\n      mload(0x40)\n      dup1\n      swap2\n      sub\n      swap1\n      revert\n    tag_63:\n        /* \"contracts/CarreraCoches/principal.sol\":1286:1297  listaCoches */\n      0x05\n        /* \"contracts/CarreraCoches/principal.sol\":1303:1397  Coche(msg.sender, _modelo, _marca, _nombrePiloto, 0, 0, uint32(block.timestamp + cooldown), 0) */\n      mload(0x40)\n      dup1\n      0x0100\n      add\n      0x40\n      mstore\n      dup1\n        /* \"contracts/CarreraCoches/principal.sol\":1309:1319  msg.sender */\n      caller\n        /* \"contracts/CarreraCoches/principal.sol\":1303:1397  Coche(msg.sender, _modelo, _marca, _nombrePiloto, 0, 0, uint32(block.timestamp + cooldown), 0) */\n      0xffffffffffffffffffffffffffffffffffffffff\n      and\n      dup2\n      mstore\n      0x20\n      add\n        /* \"contracts/CarreraCoches/principal.sol\":1321:1328  _modelo */\n      dup7\n        /* \"contracts/CarreraCoches/principal.sol\":1303:1397  Coche(msg.sender, _modelo, _marca, _nombrePiloto, 0, 0, uint32(block.timestamp + cooldown), 0) */\n      dup2\n      mstore\n      0x20\n      add\n        /* \"contracts/CarreraCoches/principal.sol\":1330:1336  _marca */\n      dup6\n        /* \"contracts/CarreraCoches/principal.sol\":1303:1397  Coche(msg.sender, _modelo, _marca, _nombrePiloto, 0, 0, uint32(block.timestamp + cooldown), 0) */\n      dup2\n      mstore\n      0x20\n      add\n        /* \"contracts/CarreraCoches/principal.sol\":1338:1351  _nombrePiloto */\n      dup5\n        /* \"contracts/CarreraCoches/principal.sol\":1303:1397  Coche(msg.sender, _modelo, _marca, _nombrePiloto, 0, 0, uint32(block.timestamp + cooldown), 0) */\n      dup2\n      mstore\n      0x20\n      add\n        /* \"contracts/CarreraCoches/principal.sol\":1353:1354  0 */\n      0x00\n        /* \"contracts/CarreraCoches/principal.sol\":1303:1397  Coche(msg.sender, _modelo, _marca, _nombrePiloto, 0, 0, uint32(block.timestamp + cooldown), 0) */\n      dup2\n      mstore\n      0x20\n      add\n        /* \"contracts/CarreraCoches/principal.sol\":1356:1357  0 */\n      0x00\n        /* \"contracts/CarreraCoches/principal.sol\":1303:1397  Coche(msg.sender, _modelo, _marca, _nombrePiloto, 0, 0, uint32(block.timestamp + cooldown), 0) */\n      dup2\n      mstore\n      0x20\n      add\n        /* \"contracts/CarreraCoches/principal.sol\":1384:1392  cooldown */\n      sload(0x03)\n        /* \"contracts/CarreraCoches/principal.sol\":1366:1381  block.timestamp */\n      timestamp\n        /* \"contracts/CarreraCoches/principal.sol\":1366:1392  block.timestamp + cooldown */\n      tag_67\n      swap2\n      swap1\n      tag_68\n      jump\t// in\n    tag_67:\n        /* \"contracts/CarreraCoches/principal.sol\":1303:1397  Coche(msg.sender, _modelo, _marca, _nombrePiloto, 0, 0, uint32(block.timestamp + cooldown), 0) */\n      0xffffffff\n      and\n      dup2\n      mstore\n      0x20\n      add\n        /* \"contracts/CarreraCoches/principal.sol\":1395:1396  0 */\n      0x00\n        /* \"contracts/CarreraCoches/principal.sol\":1303:1397  Coche(msg.sender, _modelo, _marca, _nombrePiloto, 0, 0, uint32(block.timestamp + cooldown), 0) */\n      0xffffffff\n      and\n      dup2\n      mstore\n      pop\n        /* \"contracts/CarreraCoches/principal.sol\":1286:1398  listaCoches.push(Coche(msg.sender, _modelo, _marca, _nombrePiloto, 0, 0, uint32(block.timestamp + cooldown), 0)) */\n      swap1\n      dup1\n      0x01\n      dup2\n      sload\n      add\n      dup1\n      dup3\n      sstore\n      dup1\n      swap2\n      pop\n      pop\n      0x01\n      swap1\n      sub\n      swap1\n      0x00\n      mstore\n      keccak256(0x00, 0x20)\n      swap1\n      0x08\n      mul\n      add\n      0x00\n      swap1\n      swap2\n      swap1\n      swap2\n      swap1\n      swap2\n      pop\n      0x00\n      dup3\n      add\n      mload\n      dup2\n      0x00\n      add\n      exp(0x0100, 0x00)\n      dup2\n      sload\n      dup2\n      0xffffffffffffffffffffffffffffffffffffffff\n      mul\n      not\n      and\n      swap1\n      dup4\n      0xffffffffffffffffffffffffffffffffffffffff\n      and\n      mul\n      or\n      swap1\n      sstore\n      pop\n      0x20\n      dup3\n      add\n      mload\n      dup2\n      0x01\n      add\n      swap1\n      dup1\n      mload\n      swap1\n      0x20\n      add\n      swap1\n      tag_70\n      swap3\n      swap2\n      swap1\n      tag_71\n      jump\t// in\n    tag_70:\n      pop\n      0x40\n      dup3\n      add\n      mload\n      dup2\n      0x02\n      add\n      swap1\n      dup1\n      mload\n      swap1\n      0x20\n      add\n      swap1\n      tag_72\n      swap3\n      swap2\n      swap1\n      tag_71\n      jump\t// in\n    tag_72:\n      pop\n      0x60\n      dup3\n      add\n      mload\n      dup2\n      0x03\n      add\n      swap1\n      dup1\n      mload\n      swap1\n      0x20\n      add\n      swap1\n      tag_73\n      swap3\n      swap2\n      swap1\n      tag_71\n      jump\t// in\n    tag_73:\n      pop\n      0x80\n      dup3\n      add\n      mload\n      dup2\n      0x04\n      add\n      sstore\n      0xa0\n      dup3\n      add\n      mload\n      dup2\n      0x05\n      add\n      sstore\n      0xc0\n      dup3\n      add\n      mload\n      dup2\n      0x06\n      add\n      sstore\n      0xe0\n      dup3\n      add\n      mload\n      dup2\n      0x07\n      add\n      exp(0x0100, 0x00)\n      dup2\n      sload\n      dup2\n      0xffffffff\n      mul\n      not\n      and\n      swap1\n      dup4\n      0xffffffff\n      and\n      mul\n      or\n      swap1\n      sstore\n      pop\n      pop\n      pop\n        /* \"contracts/CarreraCoches/principal.sol\":1409:1416  uint id */\n      0x00\n        /* \"contracts/CarreraCoches/principal.sol\":1419:1430  listaCoches */\n      0x05\n        /* \"contracts/CarreraCoches/principal.sol\":1419:1437  listaCoches.length */\n      dup1\n      sload\n      swap1\n      pop\n        /* \"contracts/CarreraCoches/principal.sol\":1409:1437  uint id = listaCoches.length */\n      swap1\n      pop\n        /* \"contracts/CarreraCoches/principal.sol\":1473:1483  msg.sender */\n      caller\n        /* \"contracts/CarreraCoches/principal.sol\":1448:1466  cocheDePropietario */\n      0x06\n        /* \"contracts/CarreraCoches/principal.sol\":1448:1470  cocheDePropietario[id] */\n      0x00\n        /* \"contracts/CarreraCoches/principal.sol\":1467:1469  id */\n      dup4\n        /* \"contracts/CarreraCoches/principal.sol\":1448:1470  cocheDePropietario[id] */\n      dup2\n      mstore\n      0x20\n      add\n      swap1\n      dup2\n      mstore\n      0x20\n      add\n      0x00\n      keccak256\n      0x00\n        /* \"contracts/CarreraCoches/principal.sol\":1448:1483  cocheDePropietario[id] = msg.sender */\n      0x0100\n      exp\n      dup2\n      sload\n      dup2\n      0xffffffffffffffffffffffffffffffffffffffff\n      mul\n      not\n      and\n      swap1\n      dup4\n      0xffffffffffffffffffffffffffffffffffffffff\n      and\n      mul\n      or\n      swap1\n      sstore\n      pop\n        /* \"contracts/CarreraCoches/principal.sol\":1494:1513  numeroCochesPersona */\n      0x07\n        /* \"contracts/CarreraCoches/principal.sol\":1494:1525  numeroCochesPersona[msg.sender] */\n      0x00\n        /* \"contracts/CarreraCoches/principal.sol\":1514:1524  msg.sender */\n      caller\n        /* \"contracts/CarreraCoches/principal.sol\":1494:1525  numeroCochesPersona[msg.sender] */\n      0xffffffffffffffffffffffffffffffffffffffff\n      and\n      0xffffffffffffffffffffffffffffffffffffffff\n      and\n      dup2\n      mstore\n      0x20\n      add\n      swap1\n      dup2\n      mstore\n      0x20\n      add\n      0x00\n      keccak256\n      0x00\n        /* \"contracts/CarreraCoches/principal.sol\":1494:1527  numeroCochesPersona[msg.sender]++ */\n      dup2\n      sload\n      dup1\n      swap3\n      swap2\n      swap1\n      tag_74\n      swap1\n      tag_75\n      jump\t// in\n    tag_74:\n      swap2\n      swap1\n      pop\n      sstore\n      pop\n        /* \"contracts/CarreraCoches/principal.sol\":1538:1546  contador */\n      0x02\n      0x00\n        /* \"contracts/CarreraCoches/principal.sol\":1538:1548  contador++ */\n      dup2\n      sload\n      dup1\n      swap3\n      swap2\n      swap1\n      tag_76\n      swap1\n      tag_75\n      jump\t// in\n    tag_76:\n      swap2\n      swap1\n      pop\n      sstore\n      pop\n        /* \"contracts/CarreraCoches/principal.sol\":1577:1578  1 */\n      0x01\n        /* \"contracts/CarreraCoches/principal.sol\":1566:1574  contador */\n      sload(0x02)\n        /* \"contracts/CarreraCoches/principal.sol\":1566:1578  contador - 1 */\n      tag_77\n      swap2\n      swap1\n      tag_78\n      jump\t// in\n    tag_77:\n        /* \"contracts/CarreraCoches/principal.sol\":1559:1578  return contador - 1 */\n      swap2\n      pop\n      pop\n        /* \"contracts/CarreraCoches/principal.sol\":1146:1586  function anadirCoche(string memory _modelo, string memory _marca, string memory _nombrePiloto) public restriccion returns (uint) {\r... */\n      swap4\n      swap3\n      pop\n      pop\n      pop\n      jump\t// out\n        /* \"contracts/CarreraCoches/principal.sol\":1914:2015  function subirDeNivel(uint _coche) external payable {\r... */\n    tag_29:\n        /* \"contracts/CarreraCoches/principal.sol\":1996:2006  subirNivel */\n      sload(0x04)\n        /* \"contracts/CarreraCoches/principal.sol\":1985:1994  msg.value */\n      callvalue\n        /* \"contracts/CarreraCoches/principal.sol\":1985:2006  msg.value==subirNivel */\n      eq\n        /* \"contracts/CarreraCoches/principal.sol\":1977:2007  require(msg.value==subirNivel) */\n      tag_80\n      jumpi\n      0x00\n      dup1\n      revert\n    tag_80:\n        /* \"contracts/CarreraCoches/principal.sol\":1914:2015  function subirDeNivel(uint _coche) external payable {\r... */\n      pop\n      jump\t// out\n        /* \"contracts/CarreraCoches/principal.sol\":2650:3826  function Apostar(uint dineroApostar) public payable returns(string memory) {\r... */\n    tag_32:\n        /* \"contracts/CarreraCoches/principal.sol\":2710:2723  string memory */\n      0x60\n        /* \"contracts/CarreraCoches/principal.sol\":2756:2769  dineroApostar */\n      dup2\n        /* \"contracts/CarreraCoches/principal.sol\":2743:2752  msg.value */\n      callvalue\n        /* \"contracts/CarreraCoches/principal.sol\":2743:2769  msg.value == dineroApostar */\n      eq\n        /* \"contracts/CarreraCoches/principal.sol\":2735:2770  require(msg.value == dineroApostar) */\n      tag_82\n      jumpi\n      0x00\n      dup1\n      revert\n    tag_82:\n        /* \"contracts/CarreraCoches/principal.sol\":2791:2800  randNonce */\n      0x01\n      0x00\n        /* \"contracts/CarreraCoches/principal.sol\":2791:2802  randNonce++ */\n      dup2\n      sload\n      dup1\n      swap3\n      swap2\n      swap1\n      tag_83\n      swap1\n      tag_75\n      jump\t// in\n    tag_83:\n      swap2\n      swap1\n      pop\n      sstore\n      pop\n        /* \"contracts/CarreraCoches/principal.sol\":2849:2862  uint256 rival */\n      0x00\n        /* \"contracts/CarreraCoches/principal.sol\":2952:2963  listaCoches */\n      0x05\n        /* \"contracts/CarreraCoches/principal.sol\":2952:2970  listaCoches.length */\n      dup1\n      sload\n      swap1\n      pop\n        /* \"contracts/CarreraCoches/principal.sol\":2900:2915  block.timestamp */\n      timestamp\n        /* \"contracts/CarreraCoches/principal.sol\":2917:2928  listaCoches */\n      0x05\n        /* \"contracts/CarreraCoches/principal.sol\":2917:2935  listaCoches.length */\n      dup1\n      sload\n      swap1\n      pop\n        /* \"contracts/CarreraCoches/principal.sol\":2937:2946  randNonce */\n      sload(0x01)\n        /* \"contracts/CarreraCoches/principal.sol\":2883:2947  abi.encodePacked(block.timestamp, listaCoches.length, randNonce) */\n      add(0x20, mload(0x40))\n      tag_84\n      swap4\n      swap3\n      swap2\n      swap1\n      tag_85\n      jump\t// in\n    tag_84:\n      mload(0x40)\n      0x20\n      dup2\n      dup4\n      sub\n      sub\n      dup2\n      mstore\n      swap1\n      0x40\n      mstore\n        /* \"contracts/CarreraCoches/principal.sol\":2873:2948  keccak256(abi.encodePacked(block.timestamp, listaCoches.length, randNonce)) */\n      dup1\n      mload\n      swap1\n      0x20\n      add\n      keccak256\n        /* \"contracts/CarreraCoches/principal.sol\":2865:2949  uint256(keccak256(abi.encodePacked(block.timestamp, listaCoches.length, randNonce))) */\n      0x00\n      shr\n        /* \"contracts/CarreraCoches/principal.sol\":2865:2970  uint256(keccak256(abi.encodePacked(block.timestamp, listaCoches.length, randNonce))) % listaCoches.length */\n      tag_86\n      swap2\n      swap1\n      tag_87\n      jump\t// in\n    tag_86:\n        /* \"contracts/CarreraCoches/principal.sol\":2849:2970  uint256 rival = uint256(keccak256(abi.encodePacked(block.timestamp, listaCoches.length, randNonce))) % listaCoches.length */\n      swap1\n      pop\n        /* \"contracts/CarreraCoches/principal.sol\":3013:3022  randNonce */\n      0x01\n      0x00\n        /* \"contracts/CarreraCoches/principal.sol\":3013:3024  randNonce++ */\n      dup2\n      sload\n      dup1\n      swap3\n      swap2\n      swap1\n      tag_88\n      swap1\n      tag_75\n      jump\t// in\n    tag_88:\n      swap2\n      swap1\n      pop\n      sstore\n      pop\n        /* \"contracts/CarreraCoches/principal.sol\":3035:3046  uint numero */\n      0x00\n        /* \"contracts/CarreraCoches/principal.sol\":3049:3050  2 */\n      0x02\n        /* \"contracts/CarreraCoches/principal.sol\":3035:3050  uint numero = 2 */\n      swap1\n      pop\n        /* \"contracts/CarreraCoches/principal.sol\":3061:3076  uint256 ganador */\n      0x00\n        /* \"contracts/CarreraCoches/principal.sol\":3154:3160  numero */\n      dup2\n        /* \"contracts/CarreraCoches/principal.sol\":3114:3129  block.timestamp */\n      timestamp\n        /* \"contracts/CarreraCoches/principal.sol\":3131:3137  numero */\n      dup4\n        /* \"contracts/CarreraCoches/principal.sol\":3139:3148  randNonce */\n      sload(0x01)\n        /* \"contracts/CarreraCoches/principal.sol\":3097:3149  abi.encodePacked(block.timestamp, numero, randNonce) */\n      add(0x20, mload(0x40))\n      tag_89\n      swap4\n      swap3\n      swap2\n      swap1\n      tag_85\n      jump\t// in\n    tag_89:\n      mload(0x40)\n      0x20\n      dup2\n      dup4\n      sub\n      sub\n      dup2\n      mstore\n      swap1\n      0x40\n      mstore\n        /* \"contracts/CarreraCoches/principal.sol\":3087:3150  keccak256(abi.encodePacked(block.timestamp, numero, randNonce)) */\n      dup1\n      mload\n      swap1\n      0x20\n      add\n      keccak256\n        /* \"contracts/CarreraCoches/principal.sol\":3079:3151  uint256(keccak256(abi.encodePacked(block.timestamp, numero, randNonce))) */\n      0x00\n      shr\n        /* \"contracts/CarreraCoches/principal.sol\":3079:3160  uint256(keccak256(abi.encodePacked(block.timestamp, numero, randNonce))) % numero */\n      tag_90\n      swap2\n      swap1\n      tag_87\n      jump\t// in\n    tag_90:\n        /* \"contracts/CarreraCoches/principal.sol\":3061:3160  uint256 ganador = uint256(keccak256(abi.encodePacked(block.timestamp, numero, randNonce))) % numero */\n      swap1\n      pop\n        /* \"contracts/CarreraCoches/principal.sol\":3177:3183  uint i */\n      0x00\n        /* \"contracts/CarreraCoches/principal.sol\":3173:3820  for(uint i = 0; i < listaCoches.length; i++){\r... */\n    tag_91:\n        /* \"contracts/CarreraCoches/principal.sol\":3193:3204  listaCoches */\n      0x05\n        /* \"contracts/CarreraCoches/principal.sol\":3193:3211  listaCoches.length */\n      dup1\n      sload\n      swap1\n      pop\n        /* \"contracts/CarreraCoches/principal.sol\":3189:3190  i */\n      dup2\n        /* \"contracts/CarreraCoches/principal.sol\":3189:3211  i < listaCoches.length */\n      lt\n        /* \"contracts/CarreraCoches/principal.sol\":3173:3820  for(uint i = 0; i < listaCoches.length; i++){\r... */\n      iszero\n      tag_92\n      jumpi\n        /* \"contracts/CarreraCoches/principal.sol\":3353:3364  listaCoches */\n      0x05\n        /* \"contracts/CarreraCoches/principal.sol\":3365:3366  i */\n      dup2\n        /* \"contracts/CarreraCoches/principal.sol\":3353:3367  listaCoches[i] */\n      dup2\n      sload\n      dup2\n      lt\n      tag_94\n      jumpi\n      tag_95\n      tag_96\n      jump\t// in\n    tag_95:\n    tag_94:\n      swap1\n      0x00\n      mstore\n      keccak256(0x00, 0x20)\n      swap1\n      0x08\n      mul\n      add\n        /* \"contracts/CarreraCoches/principal.sol\":3353:3376  listaCoches[i].idPiloto */\n      0x00\n      add\n      0x00\n      swap1\n      sload\n      swap1\n      0x0100\n      exp\n      swap1\n      div\n      0xffffffffffffffffffffffffffffffffffffffff\n      and\n        /* \"contracts/CarreraCoches/principal.sol\":3339:3376  msg.sender == listaCoches[i].idPiloto */\n      0xffffffffffffffffffffffffffffffffffffffff\n      and\n        /* \"contracts/CarreraCoches/principal.sol\":3339:3349  msg.sender */\n      caller\n        /* \"contracts/CarreraCoches/principal.sol\":3339:3376  msg.sender == listaCoches[i].idPiloto */\n      0xffffffffffffffffffffffffffffffffffffffff\n      and\n      eq\n        /* \"contracts/CarreraCoches/principal.sol\":3335:3809  if (msg.sender == listaCoches[i].idPiloto) {\r... */\n      iszero\n      tag_98\n      jumpi\n        /* \"contracts/CarreraCoches/principal.sol\":3411:3412  0 */\n      0x00\n        /* \"contracts/CarreraCoches/principal.sol\":3400:3407  ganador */\n      dup3\n        /* \"contracts/CarreraCoches/principal.sol\":3400:3412  ganador == 0 */\n      eq\n        /* \"contracts/CarreraCoches/principal.sol\":3397:3705  if(ganador == 0){\r... */\n      iszero\n      tag_99\n      jumpi\n        /* \"contracts/CarreraCoches/principal.sol\":3436:3445  balance() */\n      tag_100\n        /* \"contracts/CarreraCoches/principal.sol\":3436:3443  balance */\n      tag_101\n        /* \"contracts/CarreraCoches/principal.sol\":3436:3445  balance() */\n      jump\t// in\n    tag_100:\n        /* \"contracts/CarreraCoches/principal.sol\":3468:3487  return \"Has ganado\" */\n      mload(0x40)\n      dup1\n      0x40\n      add\n      0x40\n      mstore\n      dup1\n      0x0a\n      dup2\n      mstore\n      0x20\n      add\n      0x4861732067616e61646f00000000000000000000000000000000000000000000\n      dup2\n      mstore\n      pop\n      swap5\n      pop\n      pop\n      pop\n      pop\n      pop\n      jump(tag_81)\n        /* \"contracts/CarreraCoches/principal.sol\":3397:3705  if(ganador == 0){\r... */\n    tag_99:\n        /* \"contracts/CarreraCoches/principal.sol\":3594:3642  mostrarResultado(\"El coche ganador es: \", rival) */\n      0xa28482eec3136a2461c6c30c08f71ba279c6c51a2d9c7bea4e50d6d2632f3896\n        /* \"contracts/CarreraCoches/principal.sol\":3636:3641  rival */\n      dup5\n        /* \"contracts/CarreraCoches/principal.sol\":3594:3642  mostrarResultado(\"El coche ganador es: \", rival) */\n      mload(0x40)\n      tag_107\n      swap2\n      swap1\n      tag_108\n      jump\t// in\n    tag_107:\n      mload(0x40)\n      dup1\n      swap2\n      sub\n      swap1\n      log1\n        /* \"contracts/CarreraCoches/principal.sol\":3665:3685  return \"Has perdido\" */\n      mload(0x40)\n      dup1\n      0x40\n      add\n      0x40\n      mstore\n      dup1\n      0x0b\n      dup2\n      mstore\n      0x20\n      add\n      0x486173207065726469646f000000000000000000000000000000000000000000\n      dup2\n      mstore\n      pop\n      swap5\n      pop\n      pop\n      pop\n      pop\n      pop\n      jump(tag_81)\n        /* \"contracts/CarreraCoches/principal.sol\":3335:3809  if (msg.sender == listaCoches[i].idPiloto) {\r... */\n    tag_98:\n        /* \"contracts/CarreraCoches/principal.sol\":3213:3216  i++ */\n      dup1\n      dup1\n      tag_118\n      swap1\n      tag_75\n      jump\t// in\n    tag_118:\n      swap2\n      pop\n      pop\n        /* \"contracts/CarreraCoches/principal.sol\":3173:3820  for(uint i = 0; i < listaCoches.length; i++){\r... */\n      jump(tag_91)\n    tag_92:\n      pop\n        /* \"contracts/CarreraCoches/principal.sol\":2725:3826  {\r... */\n      pop\n      pop\n      pop\n        /* \"contracts/CarreraCoches/principal.sol\":2650:3826  function Apostar(uint dineroApostar) public payable returns(string memory) {\r... */\n    tag_81:\n      swap2\n      swap1\n      pop\n      jump\t// out\n        /* \"contracts/CarreraCoches/ownable.sol\":1720:1823  function renounceOwnership() public virtual onlyOwner {\r... */\n    tag_37:\n        /* \"contracts/CarreraCoches/ownable.sol\":1300:1312  _msgSender() */\n      tag_120\n        /* \"contracts/CarreraCoches/ownable.sol\":1300:1310  _msgSender */\n      tag_121\n        /* \"contracts/CarreraCoches/ownable.sol\":1300:1312  _msgSender() */\n      jump\t// in\n    tag_120:\n        /* \"contracts/CarreraCoches/ownable.sol\":1289:1312  owner() == _msgSender() */\n      0xffffffffffffffffffffffffffffffffffffffff\n      and\n        /* \"contracts/CarreraCoches/ownable.sol\":1289:1296  owner() */\n      tag_122\n        /* \"contracts/CarreraCoches/ownable.sol\":1289:1294  owner */\n      tag_46\n        /* \"contracts/CarreraCoches/ownable.sol\":1289:1296  owner() */\n      jump\t// in\n    tag_122:\n        /* \"contracts/CarreraCoches/ownable.sol\":1289:1312  owner() == _msgSender() */\n      0xffffffffffffffffffffffffffffffffffffffff\n      and\n      eq\n        /* \"contracts/CarreraCoches/ownable.sol\":1281:1349  require(owner() == _msgSender(), \"Ownable: caller is not the owner\") */\n      tag_123\n      jumpi\n      mload(0x40)\n      0x08c379a000000000000000000000000000000000000000000000000000000000\n      dup2\n      mstore\n      0x04\n      add\n      tag_124\n      swap1\n      tag_125\n      jump\t// in\n    tag_124:\n      mload(0x40)\n      dup1\n      swap2\n      sub\n      swap1\n      revert\n    tag_123:\n        /* \"contracts/CarreraCoches/ownable.sol\":1785:1815  _transferOwnership(address(0)) */\n      tag_127\n        /* \"contracts/CarreraCoches/ownable.sol\":1812:1813  0 */\n      0x00\n        /* \"contracts/CarreraCoches/ownable.sol\":1785:1803  _transferOwnership */\n      tag_128\n        /* \"contracts/CarreraCoches/ownable.sol\":1785:1815  _transferOwnership(address(0)) */\n      jump\t// in\n    tag_127:\n        /* \"contracts/CarreraCoches/ownable.sol\":1720:1823  function renounceOwnership() public virtual onlyOwner {\r... */\n      jump\t// out\n        /* \"contracts/CarreraCoches/principal.sol\":793:844  mapping (uint => address) public cocheDePropietario */\n    tag_41:\n      mstore(0x20, 0x06)\n      dup1\n      0x00\n      mstore\n      keccak256(0x00, 0x40)\n      0x00\n      swap2\n      pop\n      sload\n      swap1\n      0x0100\n      exp\n      swap1\n      div\n      0xffffffffffffffffffffffffffffffffffffffff\n      and\n      dup2\n      jump\t// out\n        /* \"contracts/CarreraCoches/ownable.sol\":1069:1156  function owner() public view virtual returns (address) {\r... */\n    tag_46:\n        /* \"contracts/CarreraCoches/ownable.sol\":1115:1122  address */\n      0x00\n        /* \"contracts/CarreraCoches/ownable.sol\":1142:1148  _owner */\n      dup1\n      0x00\n      swap1\n      sload\n      swap1\n      0x0100\n      exp\n      swap1\n      div\n      0xffffffffffffffffffffffffffffffffffffffff\n      and\n        /* \"contracts/CarreraCoches/ownable.sol\":1135:1148  return _owner */\n      swap1\n      pop\n        /* \"contracts/CarreraCoches/ownable.sol\":1069:1156  function owner() public view virtual returns (address) {\r... */\n      swap1\n      jump\t// out\n        /* \"contracts/CarreraCoches/principal.sol\":572:598  Coche[] public listaCoches */\n    tag_51:\n      0x05\n      dup2\n      dup2\n      sload\n      dup2\n      lt\n      tag_130\n      jumpi\n      0x00\n      dup1\n      revert\n    tag_130:\n      swap1\n      0x00\n      mstore\n      keccak256(0x00, 0x20)\n      swap1\n      0x08\n      mul\n      add\n      0x00\n      swap2\n      pop\n      swap1\n      pop\n      dup1\n      0x00\n      add\n      0x00\n      swap1\n      sload\n      swap1\n      0x0100\n      exp\n      swap1\n      div\n      0xffffffffffffffffffffffffffffffffffffffff\n      and\n      swap1\n      dup1\n      0x01\n      add\n      dup1\n      sload\n      tag_132\n      swap1\n      tag_133\n      jump\t// in\n    tag_132:\n      dup1\n      0x1f\n      add\n      0x20\n      dup1\n      swap2\n      div\n      mul\n      0x20\n      add\n      mload(0x40)\n      swap1\n      dup2\n      add\n      0x40\n      mstore\n      dup1\n      swap3\n      swap2\n      swap1\n      dup2\n      dup2\n      mstore\n      0x20\n      add\n      dup3\n      dup1\n      sload\n      tag_134\n      swap1\n      tag_133\n      jump\t// in\n    tag_134:\n      dup1\n      iszero\n      tag_135\n      jumpi\n      dup1\n      0x1f\n      lt\n      tag_136\n      jumpi\n      0x0100\n      dup1\n      dup4\n      sload\n      div\n      mul\n      dup4\n      mstore\n      swap2\n      0x20\n      add\n      swap2\n      jump(tag_135)\n    tag_136:\n      dup3\n      add\n      swap2\n      swap1\n      0x00\n      mstore\n      keccak256(0x00, 0x20)\n      swap1\n    tag_137:\n      dup2\n      sload\n      dup2\n      mstore\n      swap1\n      0x01\n      add\n      swap1\n      0x20\n      add\n      dup1\n      dup4\n      gt\n      tag_137\n      jumpi\n      dup3\n      swap1\n      sub\n      0x1f\n      and\n      dup3\n      add\n      swap2\n    tag_135:\n      pop\n      pop\n      pop\n      pop\n      pop\n      swap1\n      dup1\n      0x02\n      add\n      dup1\n      sload\n      tag_138\n      swap1\n      tag_133\n      jump\t// in\n    tag_138:\n      dup1\n      0x1f\n      add\n      0x20\n      dup1\n      swap2\n      div\n      mul\n      0x20\n      add\n      mload(0x40)\n      swap1\n      dup2\n      add\n      0x40\n      mstore\n      dup1\n      swap3\n      swap2\n      swap1\n      dup2\n      dup2\n      mstore\n      0x20\n      add\n      dup3\n      dup1\n      sload\n      tag_139\n      swap1\n      tag_133\n      jump\t// in\n    tag_139:\n      dup1\n      iszero\n      tag_140\n      jumpi\n      dup1\n      0x1f\n      lt\n      tag_141\n      jumpi\n      0x0100\n      dup1\n      dup4\n      sload\n      div\n      mul\n      dup4\n      mstore\n      swap2\n      0x20\n      add\n      swap2\n      jump(tag_140)\n    tag_141:\n      dup3\n      add\n      swap2\n      swap1\n      0x00\n      mstore\n      keccak256(0x00, 0x20)\n      swap1\n    tag_142:\n      dup2\n      sload\n      dup2\n      mstore\n      swap1\n      0x01\n      add\n      swap1\n      0x20\n      add\n      dup1\n      dup4\n      gt\n      tag_142\n      jumpi\n      dup3\n      swap1\n      sub\n      0x1f\n      and\n      dup3\n      add\n      swap2\n    tag_140:\n      pop\n      pop\n      pop\n      pop\n      pop\n      swap1\n      dup1\n      0x03\n      add\n      dup1\n      sload\n      tag_143\n      swap1\n      tag_133\n      jump\t// in\n    tag_143:\n      dup1\n      0x1f\n      add\n      0x20\n      dup1\n      swap2\n      div\n      mul\n      0x20\n      add\n      mload(0x40)\n      swap1\n      dup2\n      add\n      0x40\n      mstore\n      dup1\n      swap3\n      swap2\n      swap1\n      dup2\n      dup2\n      mstore\n      0x20\n      add\n      dup3\n      dup1\n      sload\n      tag_144\n      swap1\n      tag_133\n      jump\t// in\n    tag_144:\n      dup1\n      iszero\n      tag_145\n      jumpi\n      dup1\n      0x1f\n      lt\n      tag_146\n      jumpi\n      0x0100\n      dup1\n      dup4\n      sload\n      div\n      mul\n      dup4\n      mstore\n      swap2\n      0x20\n      add\n      swap2\n      jump(tag_145)\n    tag_146:\n      dup3\n      add\n      swap2\n      swap1\n      0x00\n      mstore\n      keccak256(0x00, 0x20)\n      swap1\n    tag_147:\n      dup2\n      sload\n      dup2\n      mstore\n      swap1\n      0x01\n      add\n      swap1\n      0x20\n      add\n      dup1\n      dup4\n      gt\n      tag_147\n      jumpi\n      dup3\n      swap1\n      sub\n      0x1f\n      and\n      dup3\n      add\n      swap2\n    tag_145:\n      pop\n      pop\n      pop\n      pop\n      pop\n      swap1\n      dup1\n      0x04\n      add\n      sload\n      swap1\n      dup1\n      0x05\n      add\n      sload\n      swap1\n      dup1\n      0x06\n      add\n      sload\n      swap1\n      dup1\n      0x07\n      add\n      0x00\n      swap1\n      sload\n      swap1\n      0x0100\n      exp\n      swap1\n      div\n      0xffffffff\n      and\n      swap1\n      pop\n      dup9\n      jump\t// out\n        /* \"contracts/CarreraCoches/principal.sol\":2025:2313  function verCochePropietario(address _propietario) external {\r... */\n    tag_57:\n        /* \"contracts/CarreraCoches/principal.sol\":2100:2106  uint i */\n      0x00\n        /* \"contracts/CarreraCoches/principal.sol\":2096:2306  for(uint i = 0; i < listaCoches.length; i++){\r... */\n    tag_149:\n        /* \"contracts/CarreraCoches/principal.sol\":2116:2127  listaCoches */\n      0x05\n        /* \"contracts/CarreraCoches/principal.sol\":2116:2134  listaCoches.length */\n      dup1\n      sload\n      swap1\n      pop\n        /* \"contracts/CarreraCoches/principal.sol\":2112:2113  i */\n      dup2\n        /* \"contracts/CarreraCoches/principal.sol\":2112:2134  i < listaCoches.length */\n      lt\n        /* \"contracts/CarreraCoches/principal.sol\":2096:2306  for(uint i = 0; i < listaCoches.length; i++){\r... */\n      iszero\n      tag_150\n      jumpi\n        /* \"contracts/CarreraCoches/principal.sol\":2181:2193  _propietario */\n      dup2\n        /* \"contracts/CarreraCoches/principal.sol\":2158:2193  cocheDePropietario[i]==_propietario */\n      0xffffffffffffffffffffffffffffffffffffffff\n      and\n        /* \"contracts/CarreraCoches/principal.sol\":2158:2176  cocheDePropietario */\n      0x06\n        /* \"contracts/CarreraCoches/principal.sol\":2158:2179  cocheDePropietario[i] */\n      0x00\n        /* \"contracts/CarreraCoches/principal.sol\":2177:2178  i */\n      dup4\n        /* \"contracts/CarreraCoches/principal.sol\":2158:2179  cocheDePropietario[i] */\n      dup2\n      mstore\n      0x20\n      add\n      swap1\n      dup2\n      mstore\n      0x20\n      add\n      0x00\n      keccak256\n      0x00\n      swap1\n      sload\n      swap1\n      0x0100\n      exp\n      swap1\n      div\n      0xffffffffffffffffffffffffffffffffffffffff\n      and\n        /* \"contracts/CarreraCoches/principal.sol\":2158:2193  cocheDePropietario[i]==_propietario */\n      0xffffffffffffffffffffffffffffffffffffffff\n      and\n      eq\n        /* \"contracts/CarreraCoches/principal.sol\":2155:2295  if(cocheDePropietario[i]==_propietario){\r... */\n      iszero\n      tag_152\n      jumpi\n        /* \"contracts/CarreraCoches/principal.sol\":2218:2279  cochePropietario(listaCoches[i].marca, listaCoches[i].modelo) */\n      0x96408510f58a52b0cfe536e046b25664fa36d8122620ec608c1767b45aa4f03c\n        /* \"contracts/CarreraCoches/principal.sol\":2235:2246  listaCoches */\n      0x05\n        /* \"contracts/CarreraCoches/principal.sol\":2247:2248  i */\n      dup3\n        /* \"contracts/CarreraCoches/principal.sol\":2235:2249  listaCoches[i] */\n      dup2\n      sload\n      dup2\n      lt\n      tag_153\n      jumpi\n      tag_154\n      tag_96\n      jump\t// in\n    tag_154:\n    tag_153:\n      swap1\n      0x00\n      mstore\n      keccak256(0x00, 0x20)\n      swap1\n      0x08\n      mul\n      add\n        /* \"contracts/CarreraCoches/principal.sol\":2235:2255  listaCoches[i].marca */\n      0x02\n      add\n        /* \"contracts/CarreraCoches/principal.sol\":2257:2268  listaCoches */\n      0x05\n        /* \"contracts/CarreraCoches/principal.sol\":2269:2270  i */\n      dup4\n        /* \"contracts/CarreraCoches/principal.sol\":2257:2271  listaCoches[i] */\n      dup2\n      sload\n      dup2\n      lt\n      tag_156\n      jumpi\n      tag_157\n      tag_96\n      jump\t// in\n    tag_157:\n    tag_156:\n      swap1\n      0x00\n      mstore\n      keccak256(0x00, 0x20)\n      swap1\n      0x08\n      mul\n      add\n        /* \"contracts/CarreraCoches/principal.sol\":2257:2278  listaCoches[i].modelo */\n      0x01\n      add\n        /* \"contracts/CarreraCoches/principal.sol\":2218:2279  cochePropietario(listaCoches[i].marca, listaCoches[i].modelo) */\n      mload(0x40)\n      tag_159\n      swap3\n      swap2\n      swap1\n      tag_160\n      jump\t// in\n    tag_159:\n      mload(0x40)\n      dup1\n      swap2\n      sub\n      swap1\n      log1\n        /* \"contracts/CarreraCoches/principal.sol\":2155:2295  if(cocheDePropietario[i]==_propietario){\r... */\n    tag_152:\n        /* \"contracts/CarreraCoches/principal.sol\":2136:2139  i++ */\n      dup1\n      dup1\n      tag_161\n      swap1\n      tag_75\n      jump\t// in\n    tag_161:\n      swap2\n      pop\n      pop\n        /* \"contracts/CarreraCoches/principal.sol\":2096:2306  for(uint i = 0; i < listaCoches.length; i++){\r... */\n      jump(tag_149)\n    tag_150:\n      pop\n        /* \"contracts/CarreraCoches/principal.sol\":2025:2313  function verCochePropietario(address _propietario) external {\r... */\n      pop\n      jump\t// out\n        /* \"contracts/CarreraCoches/ownable.sol\":1978:2179  function transferOwnership(address newOwner) public virtual onlyOwner {\r... */\n    tag_61:\n        /* \"contracts/CarreraCoches/ownable.sol\":1300:1312  _msgSender() */\n      tag_163\n        /* \"contracts/CarreraCoches/ownable.sol\":1300:1310  _msgSender */\n      tag_121\n        /* \"contracts/CarreraCoches/ownable.sol\":1300:1312  _msgSender() */\n      jump\t// in\n    tag_163:\n        /* \"contracts/CarreraCoches/ownable.sol\":1289:1312  owner() == _msgSender() */\n      0xffffffffffffffffffffffffffffffffffffffff\n      and\n        /* \"contracts/CarreraCoches/ownable.sol\":1289:1296  owner() */\n      tag_164\n        /* \"contracts/CarreraCoches/ownable.sol\":1289:1294  owner */\n      tag_46\n        /* \"contracts/CarreraCoches/ownable.sol\":1289:1296  owner() */\n      jump\t// in\n    tag_164:\n        /* \"contracts/CarreraCoches/ownable.sol\":1289:1312  owner() == _msgSender() */\n      0xffffffffffffffffffffffffffffffffffffffff\n      and\n      eq\n        /* \"contracts/CarreraCoches/ownable.sol\":1281:1349  require(owner() == _msgSender(), \"Ownable: caller is not the owner\") */\n      tag_165\n      jumpi\n      mload(0x40)\n      0x08c379a000000000000000000000000000000000000000000000000000000000\n      dup2\n      mstore\n      0x04\n      add\n      tag_166\n      swap1\n      tag_125\n      jump\t// in\n    tag_166:\n      mload(0x40)\n      dup1\n      swap2\n      sub\n      swap1\n      revert\n    tag_165:\n        /* \"contracts/CarreraCoches/ownable.sol\":2087:2088  0 */\n      0x00\n        /* \"contracts/CarreraCoches/ownable.sol\":2067:2089  newOwner != address(0) */\n      0xffffffffffffffffffffffffffffffffffffffff\n      and\n        /* \"contracts/CarreraCoches/ownable.sol\":2067:2075  newOwner */\n      dup2\n        /* \"contracts/CarreraCoches/ownable.sol\":2067:2089  newOwner != address(0) */\n      0xffffffffffffffffffffffffffffffffffffffff\n      and\n      eq\n      iszero\n        /* \"contracts/CarreraCoches/ownable.sol\":2059:2132  require(newOwner != address(0), \"Ownable: new owner is the zero address\") */\n      tag_168\n      jumpi\n      mload(0x40)\n      0x08c379a000000000000000000000000000000000000000000000000000000000\n      dup2\n      mstore\n      0x04\n      add\n      tag_169\n      swap1\n      tag_170\n      jump\t// in\n    tag_169:\n      mload(0x40)\n      dup1\n      swap2\n      sub\n      swap1\n      revert\n    tag_168:\n        /* \"contracts/CarreraCoches/ownable.sol\":2143:2171  _transferOwnership(newOwner) */\n      tag_171\n        /* \"contracts/CarreraCoches/ownable.sol\":2162:2170  newOwner */\n      dup2\n        /* \"contracts/CarreraCoches/ownable.sol\":2143:2161  _transferOwnership */\n      tag_128\n        /* \"contracts/CarreraCoches/ownable.sol\":2143:2171  _transferOwnership(newOwner) */\n      jump\t// in\n    tag_171:\n        /* \"contracts/CarreraCoches/ownable.sol\":1978:2179  function transferOwnership(address newOwner) public virtual onlyOwner {\r... */\n      pop\n      jump\t// out\n        /* \"contracts/CarreraCoches/principal.sol\":3883:4062  function balance() private {\r... */\n    tag_101:\n        /* \"contracts/CarreraCoches/principal.sol\":3930:3940  msg.sender */\n      caller\n        /* \"contracts/CarreraCoches/principal.sol\":3921:3950  payable (msg.sender).transfer */\n      0xffffffffffffffffffffffffffffffffffffffff\n      and\n        /* \"contracts/CarreraCoches/principal.sol\":3921:3977  payable (msg.sender).transfer((address(this).balance)*2) */\n      0x08fc\n        /* \"contracts/CarreraCoches/principal.sol\":3975:3976  2 */\n      0x02\n        /* \"contracts/CarreraCoches/principal.sol\":3952:3973  address(this).balance */\n      selfbalance\n        /* \"contracts/CarreraCoches/principal.sol\":3951:3976  (address(this).balance)*2 */\n      tag_173\n      swap2\n      swap1\n      tag_174\n      jump\t// in\n    tag_173:\n        /* \"contracts/CarreraCoches/principal.sol\":3921:3977  payable (msg.sender).transfer((address(this).balance)*2) */\n      swap1\n      dup2\n      iszero\n      mul\n      swap1\n      mload(0x40)\n      0x00\n      mload(0x40)\n      dup1\n      dup4\n      sub\n      dup2\n      dup6\n      dup9\n      dup9\n      call\n      swap4\n      pop\n      pop\n      pop\n      pop\n      iszero\n      dup1\n      iszero\n      tag_176\n      jumpi\n      returndatasize\n      0x00\n      dup1\n      returndatacopy\n      revert(0x00, returndatasize)\n    tag_176:\n      pop\n        /* \"contracts/CarreraCoches/principal.sol\":3993:4054  mostrarResultado(\"Has ganado: \", ((address(this).balance)*2)) */\n      0xa28482eec3136a2461c6c30c08f71ba279c6c51a2d9c7bea4e50d6d2632f3896\n        /* \"contracts/CarreraCoches/principal.sol\":4051:4052  2 */\n      0x02\n        /* \"contracts/CarreraCoches/principal.sol\":4028:4049  address(this).balance */\n      selfbalance\n        /* \"contracts/CarreraCoches/principal.sol\":4027:4052  (address(this).balance)*2 */\n      tag_177\n      swap2\n      swap1\n      tag_174\n      jump\t// in\n    tag_177:\n        /* \"contracts/CarreraCoches/principal.sol\":3993:4054  mostrarResultado(\"Has ganado: \", ((address(this).balance)*2)) */\n      mload(0x40)\n      tag_178\n      swap2\n      swap1\n      tag_179\n      jump\t// in\n    tag_178:\n      mload(0x40)\n      dup1\n      swap2\n      sub\n      swap1\n      log1\n        /* \"contracts/CarreraCoches/principal.sol\":3883:4062  function balance() private {\r... */\n      jump\t// out\n        /* \"contracts/CarreraCoches/utils/Context.sol\":656:754  function _msgSender() internal view virtual returns (address) {\r... */\n    tag_121:\n        /* \"contracts/CarreraCoches/utils/Context.sol\":709:716  address */\n      0x00\n        /* \"contracts/CarreraCoches/utils/Context.sol\":736:746  msg.sender */\n      caller\n        /* \"contracts/CarreraCoches/utils/Context.sol\":729:746  return msg.sender */\n      swap1\n      pop\n        /* \"contracts/CarreraCoches/utils/Context.sol\":656:754  function _msgSender() internal view virtual returns (address) {\r... */\n      swap1\n      jump\t// out\n        /* \"contracts/CarreraCoches/ownable.sol\":2339:2530  function _transferOwnership(address newOwner) internal virtual {\r... */\n    tag_128:\n        /* \"contracts/CarreraCoches/ownable.sol\":2413:2429  address oldOwner */\n      0x00\n        /* \"contracts/CarreraCoches/ownable.sol\":2432:2438  _owner */\n      dup1\n      0x00\n      swap1\n      sload\n      swap1\n      0x0100\n      exp\n      swap1\n      div\n      0xffffffffffffffffffffffffffffffffffffffff\n      and\n        /* \"contracts/CarreraCoches/ownable.sol\":2413:2438  address oldOwner = _owner */\n      swap1\n      pop\n        /* \"contracts/CarreraCoches/ownable.sol\":2458:2466  newOwner */\n      dup2\n        /* \"contracts/CarreraCoches/ownable.sol\":2449:2455  _owner */\n      0x00\n      dup1\n        /* \"contracts/CarreraCoches/ownable.sol\":2449:2466  _owner = newOwner */\n      0x0100\n      exp\n      dup2\n      sload\n      dup2\n      0xffffffffffffffffffffffffffffffffffffffff\n      mul\n      not\n      and\n      swap1\n      dup4\n      0xffffffffffffffffffffffffffffffffffffffff\n      and\n      mul\n      or\n      swap1\n      sstore\n      pop\n        /* \"contracts/CarreraCoches/ownable.sol\":2513:2521  newOwner */\n      dup2\n        /* \"contracts/CarreraCoches/ownable.sol\":2482:2522  OwnershipTransferred(oldOwner, newOwner) */\n      0xffffffffffffffffffffffffffffffffffffffff\n      and\n        /* \"contracts/CarreraCoches/ownable.sol\":2503:2511  oldOwner */\n      dup2\n        /* \"contracts/CarreraCoches/ownable.sol\":2482:2522  OwnershipTransferred(oldOwner, newOwner) */\n      0xffffffffffffffffffffffffffffffffffffffff\n      and\n      0x8be0079c531659141344cd1fd0a4f28419497f9722a3daafe3b4186f6b6457e0\n      mload(0x40)\n      mload(0x40)\n      dup1\n      swap2\n      sub\n      swap1\n      log3\n        /* \"contracts/CarreraCoches/ownable.sol\":2402:2530  {\r... */\n      pop\n        /* \"contracts/CarreraCoches/ownable.sol\":2339:2530  function _transferOwnership(address newOwner) internal virtual {\r... */\n      pop\n      jump\t// out\n    tag_71:\n      dup3\n      dup1\n      sload\n      tag_184\n      swap1\n      tag_133\n      jump\t// in\n    tag_184:\n      swap1\n      0x00\n      mstore\n      keccak256(0x00, 0x20)\n      swap1\n      0x1f\n      add\n      0x20\n      swap1\n      div\n      dup2\n      add\n      swap3\n      dup3\n      tag_186\n      jumpi\n      0x00\n      dup6\n      sstore\n      jump(tag_185)\n    tag_186:\n      dup3\n      0x1f\n      lt\n      tag_187\n      jumpi\n      dup1\n      mload\n      not(0xff)\n      and\n      dup4\n      dup1\n      add\n      or\n      dup6\n      sstore\n      jump(tag_185)\n    tag_187:\n      dup3\n      dup1\n      add\n      0x01\n      add\n      dup6\n      sstore\n      dup3\n      iszero\n      tag_185\n      jumpi\n      swap2\n      dup3\n      add\n    tag_188:\n      dup3\n      dup2\n      gt\n      iszero\n      tag_189\n      jumpi\n      dup3\n      mload\n      dup3\n      sstore\n      swap2\n      0x20\n      add\n      swap2\n      swap1\n      0x01\n      add\n      swap1\n      jump(tag_188)\n    tag_189:\n    tag_185:\n      pop\n      swap1\n      pop\n      tag_190\n      swap2\n      swap1\n      tag_191\n      jump\t// in\n    tag_190:\n      pop\n      swap1\n      jump\t// out\n    tag_191:\n    tag_192:\n      dup1\n      dup3\n      gt\n      iszero\n      tag_193\n      jumpi\n      0x00\n      dup2\n      0x00\n      swap1\n      sstore\n      pop\n      0x01\n      add\n      jump(tag_192)\n    tag_193:\n      pop\n      swap1\n      jump\t// out\n        /* \"#utility.yul\":7:419   */\n    tag_195:\n        /* \"#utility.yul\":85:90   */\n      0x00\n        /* \"#utility.yul\":110:176   */\n      tag_197\n        /* \"#utility.yul\":126:175   */\n      tag_198\n        /* \"#utility.yul\":168:174   */\n      dup5\n        /* \"#utility.yul\":126:175   */\n      tag_199\n      jump\t// in\n    tag_198:\n        /* \"#utility.yul\":110:176   */\n      tag_200\n      jump\t// in\n    tag_197:\n        /* \"#utility.yul\":101:176   */\n      swap1\n      pop\n        /* \"#utility.yul\":199:205   */\n      dup3\n        /* \"#utility.yul\":192:197   */\n      dup2\n        /* \"#utility.yul\":185:206   */\n      mstore\n        /* \"#utility.yul\":237:241   */\n      0x20\n        /* \"#utility.yul\":230:235   */\n      dup2\n        /* \"#utility.yul\":226:242   */\n      add\n        /* \"#utility.yul\":275:278   */\n      dup5\n        /* \"#utility.yul\":266:272   */\n      dup5\n        /* \"#utility.yul\":261:264   */\n      dup5\n        /* \"#utility.yul\":257:273   */\n      add\n        /* \"#utility.yul\":254:279   */\n      gt\n        /* \"#utility.yul\":251:363   */\n      iszero\n      tag_201\n      jumpi\n        /* \"#utility.yul\":282:361   */\n      tag_202\n      tag_203\n      jump\t// in\n    tag_202:\n        /* \"#utility.yul\":251:363   */\n    tag_201:\n        /* \"#utility.yul\":372:413   */\n      tag_204\n        /* \"#utility.yul\":406:412   */\n      dup5\n        /* \"#utility.yul\":401:404   */\n      dup3\n        /* \"#utility.yul\":396:399   */\n      dup6\n        /* \"#utility.yul\":372:413   */\n      tag_205\n      jump\t// in\n    tag_204:\n        /* \"#utility.yul\":91:419   */\n      pop\n        /* \"#utility.yul\":7:419   */\n      swap4\n      swap3\n      pop\n      pop\n      pop\n      jump\t// out\n        /* \"#utility.yul\":425:564   */\n    tag_206:\n        /* \"#utility.yul\":471:476   */\n      0x00\n        /* \"#utility.yul\":509:515   */\n      dup2\n        /* \"#utility.yul\":496:516   */\n      calldataload\n        /* \"#utility.yul\":487:516   */\n      swap1\n      pop\n        /* \"#utility.yul\":525:558   */\n      tag_208\n        /* \"#utility.yul\":552:557   */\n      dup2\n        /* \"#utility.yul\":525:558   */\n      tag_209\n      jump\t// in\n    tag_208:\n        /* \"#utility.yul\":425:564   */\n      swap3\n      swap2\n      pop\n      pop\n      jump\t// out\n        /* \"#utility.yul\":584:924   */\n    tag_210:\n        /* \"#utility.yul\":640:645   */\n      0x00\n        /* \"#utility.yul\":689:692   */\n      dup3\n        /* \"#utility.yul\":682:686   */\n      0x1f\n        /* \"#utility.yul\":674:680   */\n      dup4\n        /* \"#utility.yul\":670:687   */\n      add\n        /* \"#utility.yul\":666:693   */\n      slt\n        /* \"#utility.yul\":656:778   */\n      tag_212\n      jumpi\n        /* \"#utility.yul\":697:776   */\n      tag_213\n      tag_214\n      jump\t// in\n    tag_213:\n        /* \"#utility.yul\":656:778   */\n    tag_212:\n        /* \"#utility.yul\":814:820   */\n      dup2\n        /* \"#utility.yul\":801:821   */\n      calldataload\n        /* \"#utility.yul\":839:918   */\n      tag_215\n        /* \"#utility.yul\":914:917   */\n      dup5\n        /* \"#utility.yul\":906:912   */\n      dup3\n        /* \"#utility.yul\":899:903   */\n      0x20\n        /* \"#utility.yul\":891:897   */\n      dup7\n        /* \"#utility.yul\":887:904   */\n      add\n        /* \"#utility.yul\":839:918   */\n      tag_195\n      jump\t// in\n    tag_215:\n        /* \"#utility.yul\":830:918   */\n      swap2\n      pop\n        /* \"#utility.yul\":646:924   */\n      pop\n        /* \"#utility.yul\":584:924   */\n      swap3\n      swap2\n      pop\n      pop\n      jump\t// out\n        /* \"#utility.yul\":930:1069   */\n    tag_216:\n        /* \"#utility.yul\":976:981   */\n      0x00\n        /* \"#utility.yul\":1014:1020   */\n      dup2\n        /* \"#utility.yul\":1001:1021   */\n      calldataload\n        /* \"#utility.yul\":992:1021   */\n      swap1\n      pop\n        /* \"#utility.yul\":1030:1063   */\n      tag_218\n        /* \"#utility.yul\":1057:1062   */\n      dup2\n        /* \"#utility.yul\":1030:1063   */\n      tag_219\n      jump\t// in\n    tag_218:\n        /* \"#utility.yul\":930:1069   */\n      swap3\n      swap2\n      pop\n      pop\n      jump\t// out\n        /* \"#utility.yul\":1075:1404   */\n    tag_16:\n        /* \"#utility.yul\":1134:1140   */\n      0x00\n        /* \"#utility.yul\":1183:1185   */\n      0x20\n        /* \"#utility.yul\":1171:1180   */\n      dup3\n        /* \"#utility.yul\":1162:1169   */\n      dup5\n        /* \"#utility.yul\":1158:1181   */\n      sub\n        /* \"#utility.yul\":1154:1186   */\n      slt\n        /* \"#utility.yul\":1151:1270   */\n      iszero\n      tag_221\n      jumpi\n        /* \"#utility.yul\":1189:1268   */\n      tag_222\n      tag_223\n      jump\t// in\n    tag_222:\n        /* \"#utility.yul\":1151:1270   */\n    tag_221:\n        /* \"#utility.yul\":1309:1310   */\n      0x00\n        /* \"#utility.yul\":1334:1387   */\n      tag_224\n        /* \"#utility.yul\":1379:1386   */\n      dup5\n        /* \"#utility.yul\":1370:1376   */\n      dup3\n        /* \"#utility.yul\":1359:1368   */\n      dup6\n        /* \"#utility.yul\":1355:1377   */\n      add\n        /* \"#utility.yul\":1334:1387   */\n      tag_206\n      jump\t// in\n    tag_224:\n        /* \"#utility.yul\":1324:1387   */\n      swap2\n      pop\n        /* \"#utility.yul\":1280:1397   */\n      pop\n        /* \"#utility.yul\":1075:1404   */\n      swap3\n      swap2\n      pop\n      pop\n      jump\t// out\n        /* \"#utility.yul\":1410:2569   */\n    tag_23:\n        /* \"#utility.yul\":1517:1523   */\n      0x00\n        /* \"#utility.yul\":1525:1531   */\n      dup1\n        /* \"#utility.yul\":1533:1539   */\n      0x00\n        /* \"#utility.yul\":1582:1584   */\n      0x60\n        /* \"#utility.yul\":1570:1579   */\n      dup5\n        /* \"#utility.yul\":1561:1568   */\n      dup7\n        /* \"#utility.yul\":1557:1580   */\n      sub\n        /* \"#utility.yul\":1553:1585   */\n      slt\n        /* \"#utility.yul\":1550:1669   */\n      iszero\n      tag_226\n      jumpi\n        /* \"#utility.yul\":1588:1667   */\n      tag_227\n      tag_223\n      jump\t// in\n    tag_227:\n        /* \"#utility.yul\":1550:1669   */\n    tag_226:\n        /* \"#utility.yul\":1736:1737   */\n      0x00\n        /* \"#utility.yul\":1725:1734   */\n      dup5\n        /* \"#utility.yul\":1721:1738   */\n      add\n        /* \"#utility.yul\":1708:1739   */\n      calldataload\n        /* \"#utility.yul\":1766:1784   */\n      0xffffffffffffffff\n        /* \"#utility.yul\":1758:1764   */\n      dup2\n        /* \"#utility.yul\":1755:1785   */\n      gt\n        /* \"#utility.yul\":1752:1869   */\n      iszero\n      tag_228\n      jumpi\n        /* \"#utility.yul\":1788:1867   */\n      tag_229\n      tag_230\n      jump\t// in\n    tag_229:\n        /* \"#utility.yul\":1752:1869   */\n    tag_228:\n        /* \"#utility.yul\":1893:1956   */\n      tag_231\n        /* \"#utility.yul\":1948:1955   */\n      dup7\n        /* \"#utility.yul\":1939:1945   */\n      dup3\n        /* \"#utility.yul\":1928:1937   */\n      dup8\n        /* \"#utility.yul\":1924:1946   */\n      add\n        /* \"#utility.yul\":1893:1956   */\n      tag_210\n      jump\t// in\n    tag_231:\n        /* \"#utility.yul\":1883:1956   */\n      swap4\n      pop\n        /* \"#utility.yul\":1679:1966   */\n      pop\n        /* \"#utility.yul\":2033:2035   */\n      0x20\n        /* \"#utility.yul\":2022:2031   */\n      dup5\n        /* \"#utility.yul\":2018:2036   */\n      add\n        /* \"#utility.yul\":2005:2037   */\n      calldataload\n        /* \"#utility.yul\":2064:2082   */\n      0xffffffffffffffff\n        /* \"#utility.yul\":2056:2062   */\n      dup2\n        /* \"#utility.yul\":2053:2083   */\n      gt\n        /* \"#utility.yul\":2050:2167   */\n      iszero\n      tag_232\n      jumpi\n        /* \"#utility.yul\":2086:2165   */\n      tag_233\n      tag_230\n      jump\t// in\n    tag_233:\n        /* \"#utility.yul\":2050:2167   */\n    tag_232:\n        /* \"#utility.yul\":2191:2254   */\n      tag_234\n        /* \"#utility.yul\":2246:2253   */\n      dup7\n        /* \"#utility.yul\":2237:2243   */\n      dup3\n        /* \"#utility.yul\":2226:2235   */\n      dup8\n        /* \"#utility.yul\":2222:2244   */\n      add\n        /* \"#utility.yul\":2191:2254   */\n      tag_210\n      jump\t// in\n    tag_234:\n        /* \"#utility.yul\":2181:2254   */\n      swap3\n      pop\n        /* \"#utility.yul\":1976:2264   */\n      pop\n        /* \"#utility.yul\":2331:2333   */\n      0x40\n        /* \"#utility.yul\":2320:2329   */\n      dup5\n        /* \"#utility.yul\":2316:2334   */\n      add\n        /* \"#utility.yul\":2303:2335   */\n      calldataload\n        /* \"#utility.yul\":2362:2380   */\n      0xffffffffffffffff\n        /* \"#utility.yul\":2354:2360   */\n      dup2\n        /* \"#utility.yul\":2351:2381   */\n      gt\n        /* \"#utility.yul\":2348:2465   */\n      iszero\n      tag_235\n      jumpi\n        /* \"#utility.yul\":2384:2463   */\n      tag_236\n      tag_230\n      jump\t// in\n    tag_236:\n        /* \"#utility.yul\":2348:2465   */\n    tag_235:\n        /* \"#utility.yul\":2489:2552   */\n      tag_237\n        /* \"#utility.yul\":2544:2551   */\n      dup7\n        /* \"#utility.yul\":2535:2541   */\n      dup3\n        /* \"#utility.yul\":2524:2533   */\n      dup8\n        /* \"#utility.yul\":2520:2542   */\n      add\n        /* \"#utility.yul\":2489:2552   */\n      tag_210\n      jump\t// in\n    tag_237:\n        /* \"#utility.yul\":2479:2552   */\n      swap2\n      pop\n        /* \"#utility.yul\":2274:2562   */\n      pop\n        /* \"#utility.yul\":1410:2569   */\n      swap3\n      pop\n      swap3\n      pop\n      swap3\n      jump\t// out\n        /* \"#utility.yul\":2575:2904   */\n    tag_28:\n        /* \"#utility.yul\":2634:2640   */\n      0x00\n        /* \"#utility.yul\":2683:2685   */\n      0x20\n        /* \"#utility.yul\":2671:2680   */\n      dup3\n        /* \"#utility.yul\":2662:2669   */\n      dup5\n        /* \"#utility.yul\":2658:2681   */\n      sub\n        /* \"#utility.yul\":2654:2686   */\n      slt\n        /* \"#utility.yul\":2651:2770   */\n      iszero\n      tag_239\n      jumpi\n        /* \"#utility.yul\":2689:2768   */\n      tag_240\n      tag_223\n      jump\t// in\n    tag_240:\n        /* \"#utility.yul\":2651:2770   */\n    tag_239:\n        /* \"#utility.yul\":2809:2810   */\n      0x00\n        /* \"#utility.yul\":2834:2887   */\n      tag_241\n        /* \"#utility.yul\":2879:2886   */\n      dup5\n        /* \"#utility.yul\":2870:2876   */\n      dup3\n        /* \"#utility.yul\":2859:2868   */\n      dup6\n        /* \"#utility.yul\":2855:2877   */\n      add\n        /* \"#utility.yul\":2834:2887   */\n      tag_216\n      jump\t// in\n    tag_241:\n        /* \"#utility.yul\":2824:2887   */\n      swap2\n      pop\n        /* \"#utility.yul\":2780:2897   */\n      pop\n        /* \"#utility.yul\":2575:2904   */\n      swap3\n      swap2\n      pop\n      pop\n      jump\t// out\n        /* \"#utility.yul\":2910:3028   */\n    tag_242:\n        /* \"#utility.yul\":2997:3021   */\n      tag_244\n        /* \"#utility.yul\":3015:3020   */\n      dup2\n        /* \"#utility.yul\":2997:3021   */\n      tag_245\n      jump\t// in\n    tag_244:\n        /* \"#utility.yul\":2992:2995   */\n      dup3\n        /* \"#utility.yul\":2985:3022   */\n      mstore\n        /* \"#utility.yul\":2910:3028   */\n      pop\n      pop\n      jump\t// out\n        /* \"#utility.yul\":3034:3398   */\n    tag_246:\n        /* \"#utility.yul\":3122:3125   */\n      0x00\n        /* \"#utility.yul\":3150:3189   */\n      tag_248\n        /* \"#utility.yul\":3183:3188   */\n      dup3\n        /* \"#utility.yul\":3150:3189   */\n      tag_249\n      jump\t// in\n    tag_248:\n        /* \"#utility.yul\":3205:3276   */\n      tag_250\n        /* \"#utility.yul\":3269:3275   */\n      dup2\n        /* \"#utility.yul\":3264:3267   */\n      dup6\n        /* \"#utility.yul\":3205:3276   */\n      tag_251\n      jump\t// in\n    tag_250:\n        /* \"#utility.yul\":3198:3276   */\n      swap4\n      pop\n        /* \"#utility.yul\":3285:3337   */\n      tag_252\n        /* \"#utility.yul\":3330:3336   */\n      dup2\n        /* \"#utility.yul\":3325:3328   */\n      dup6\n        /* \"#utility.yul\":3318:3322   */\n      0x20\n        /* \"#utility.yul\":3311:3316   */\n      dup7\n        /* \"#utility.yul\":3307:3323   */\n      add\n        /* \"#utility.yul\":3285:3337   */\n      tag_253\n      jump\t// in\n    tag_252:\n        /* \"#utility.yul\":3362:3391   */\n      tag_254\n        /* \"#utility.yul\":3384:3390   */\n      dup2\n        /* \"#utility.yul\":3362:3391   */\n      tag_255\n      jump\t// in\n    tag_254:\n        /* \"#utility.yul\":3357:3360   */\n      dup5\n        /* \"#utility.yul\":3353:3392   */\n      add\n        /* \"#utility.yul\":3346:3392   */\n      swap2\n      pop\n        /* \"#utility.yul\":3126:3398   */\n      pop\n        /* \"#utility.yul\":3034:3398   */\n      swap3\n      swap2\n      pop\n      pop\n      jump\t// out\n        /* \"#utility.yul\":3428:4230   */\n    tag_256:\n        /* \"#utility.yul\":3513:3516   */\n      0x00\n        /* \"#utility.yul\":3550:3555   */\n      dup2\n        /* \"#utility.yul\":3544:3556   */\n      sload\n        /* \"#utility.yul\":3579:3615   */\n      tag_258\n        /* \"#utility.yul\":3605:3614   */\n      dup2\n        /* \"#utility.yul\":3579:3615   */\n      tag_133\n      jump\t// in\n    tag_258:\n        /* \"#utility.yul\":3631:3702   */\n      tag_259\n        /* \"#utility.yul\":3695:3701   */\n      dup2\n        /* \"#utility.yul\":3690:3693   */\n      dup7\n        /* \"#utility.yul\":3631:3702   */\n      tag_251\n      jump\t// in\n    tag_259:\n        /* \"#utility.yul\":3624:3702   */\n      swap5\n      pop\n        /* \"#utility.yul\":3733:3734   */\n      0x01\n        /* \"#utility.yul\":3722:3731   */\n      dup3\n        /* \"#utility.yul\":3718:3735   */\n      and\n        /* \"#utility.yul\":3749:3750   */\n      0x00\n        /* \"#utility.yul\":3744:3879   */\n      dup2\n      eq\n      tag_261\n      jumpi\n        /* \"#utility.yul\":3893:3894   */\n      0x01\n        /* \"#utility.yul\":3888:4224   */\n      dup2\n      eq\n      tag_262\n      jumpi\n        /* \"#utility.yul\":3711:4224   */\n      jump(tag_260)\n        /* \"#utility.yul\":3744:3879   */\n    tag_261:\n        /* \"#utility.yul\":3828:3832   */\n      0xff\n        /* \"#utility.yul\":3824:3833   */\n      not\n        /* \"#utility.yul\":3813:3822   */\n      dup4\n        /* \"#utility.yul\":3809:3834   */\n      and\n        /* \"#utility.yul\":3804:3807   */\n      dup7\n        /* \"#utility.yul\":3797:3835   */\n      mstore\n        /* \"#utility.yul\":3864:3868   */\n      0x20\n        /* \"#utility.yul\":3859:3862   */\n      dup7\n        /* \"#utility.yul\":3855:3869   */\n      add\n        /* \"#utility.yul\":3848:3869   */\n      swap4\n      pop\n        /* \"#utility.yul\":3744:3879   */\n      jump(tag_260)\n        /* \"#utility.yul\":3888:4224   */\n    tag_262:\n        /* \"#utility.yul\":3955:3993   */\n      tag_263\n        /* \"#utility.yul\":3987:3992   */\n      dup6\n        /* \"#utility.yul\":3955:3993   */\n      tag_264\n      jump\t// in\n    tag_263:\n        /* \"#utility.yul\":4015:4016   */\n      0x00\n        /* \"#utility.yul\":4029:4183   */\n    tag_265:\n        /* \"#utility.yul\":4043:4049   */\n      dup4\n        /* \"#utility.yul\":4040:4041   */\n      dup2\n        /* \"#utility.yul\":4037:4050   */\n      lt\n        /* \"#utility.yul\":4029:4183   */\n      iszero\n      tag_267\n      jumpi\n        /* \"#utility.yul\":4117:4124   */\n      dup2\n        /* \"#utility.yul\":4111:4125   */\n      sload\n        /* \"#utility.yul\":4107:4108   */\n      dup2\n        /* \"#utility.yul\":4102:4105   */\n      dup10\n        /* \"#utility.yul\":4098:4109   */\n      add\n        /* \"#utility.yul\":4091:4126   */\n      mstore\n        /* \"#utility.yul\":4167:4168   */\n      0x01\n        /* \"#utility.yul\":4158:4165   */\n      dup3\n        /* \"#utility.yul\":4154:4169   */\n      add\n        /* \"#utility.yul\":4143:4169   */\n      swap2\n      pop\n        /* \"#utility.yul\":4065:4069   */\n      0x20\n        /* \"#utility.yul\":4062:4063   */\n      dup2\n        /* \"#utility.yul\":4058:4070   */\n      add\n        /* \"#utility.yul\":4053:4070   */\n      swap1\n      pop\n        /* \"#utility.yul\":4029:4183   */\n      jump(tag_265)\n    tag_267:\n        /* \"#utility.yul\":4212:4213   */\n      dup1\n        /* \"#utility.yul\":4207:4210   */\n      dup9\n        /* \"#utility.yul\":4203:4214   */\n      add\n        /* \"#utility.yul\":4196:4214   */\n      swap6\n      pop\n        /* \"#utility.yul\":3895:4224   */\n      pop\n      pop\n        /* \"#utility.yul\":3711:4224   */\n    tag_260:\n      pop\n        /* \"#utility.yul\":3517:4230   */\n      pop\n      pop\n        /* \"#utility.yul\":3428:4230   */\n      swap3\n      swap2\n      pop\n      pop\n      jump\t// out\n        /* \"#utility.yul\":4236:4602   */\n    tag_268:\n        /* \"#utility.yul\":4378:4381   */\n      0x00\n        /* \"#utility.yul\":4399:4466   */\n      tag_270\n        /* \"#utility.yul\":4463:4465   */\n      0x28\n        /* \"#utility.yul\":4458:4461   */\n      dup4\n        /* \"#utility.yul\":4399:4466   */\n      tag_251\n      jump\t// in\n    tag_270:\n        /* \"#utility.yul\":4392:4466   */\n      swap2\n      pop\n        /* \"#utility.yul\":4475:4568   */\n      tag_271\n        /* \"#utility.yul\":4564:4567   */\n      dup3\n        /* \"#utility.yul\":4475:4568   */\n      tag_272\n      jump\t// in\n    tag_271:\n        /* \"#utility.yul\":4593:4595   */\n      0x40\n        /* \"#utility.yul\":4588:4591   */\n      dup3\n        /* \"#utility.yul\":4584:4596   */\n      add\n        /* \"#utility.yul\":4577:4596   */\n      swap1\n      pop\n        /* \"#utility.yul\":4236:4602   */\n      swap2\n      swap1\n      pop\n      jump\t// out\n        /* \"#utility.yul\":4608:4974   */\n    tag_273:\n        /* \"#utility.yul\":4750:4753   */\n      0x00\n        /* \"#utility.yul\":4771:4838   */\n      tag_275\n        /* \"#utility.yul\":4835:4837   */\n      0x26\n        /* \"#utility.yul\":4830:4833   */\n      dup4\n        /* \"#utility.yul\":4771:4838   */\n      tag_251\n      jump\t// in\n    tag_275:\n        /* \"#utility.yul\":4764:4838   */\n      swap2\n      pop\n        /* \"#utility.yul\":4847:4940   */\n      tag_276\n        /* \"#utility.yul\":4936:4939   */\n      dup3\n        /* \"#utility.yul\":4847:4940   */\n      tag_277\n      jump\t// in\n    tag_276:\n        /* \"#utility.yul\":4965:4967   */\n      0x40\n        /* \"#utility.yul\":4960:4963   */\n      dup3\n        /* \"#utility.yul\":4956:4968   */\n      add\n        /* \"#utility.yul\":4949:4968   */\n      swap1\n      pop\n        /* \"#utility.yul\":4608:4974   */\n      swap2\n      swap1\n      pop\n      jump\t// out\n        /* \"#utility.yul\":4980:5346   */\n    tag_278:\n        /* \"#utility.yul\":5122:5125   */\n      0x00\n        /* \"#utility.yul\":5143:5210   */\n      tag_280\n        /* \"#utility.yul\":5207:5209   */\n      0x0c\n        /* \"#utility.yul\":5202:5205   */\n      dup4\n        /* \"#utility.yul\":5143:5210   */\n      tag_251\n      jump\t// in\n    tag_280:\n        /* \"#utility.yul\":5136:5210   */\n      swap2\n      pop\n        /* \"#utility.yul\":5219:5312   */\n      tag_281\n        /* \"#utility.yul\":5308:5311   */\n      dup3\n        /* \"#utility.yul\":5219:5312   */\n      tag_282\n      jump\t// in\n    tag_281:\n        /* \"#utility.yul\":5337:5339   */\n      0x20\n        /* \"#utility.yul\":5332:5335   */\n      dup3\n        /* \"#utility.yul\":5328:5340   */\n      add\n        /* \"#utility.yul\":5321:5340   */\n      swap1\n      pop\n        /* \"#utility.yul\":4980:5346   */\n      swap2\n      swap1\n      pop\n      jump\t// out\n        /* \"#utility.yul\":5352:5718   */\n    tag_283:\n        /* \"#utility.yul\":5494:5497   */\n      0x00\n        /* \"#utility.yul\":5515:5582   */\n      tag_285\n        /* \"#utility.yul\":5579:5581   */\n      0x20\n        /* \"#utility.yul\":5574:5577   */\n      dup4\n        /* \"#utility.yul\":5515:5582   */\n      tag_251\n      jump\t// in\n    tag_285:\n        /* \"#utility.yul\":5508:5582   */\n      swap2\n      pop\n        /* \"#utility.yul\":5591:5684   */\n      tag_286\n        /* \"#utility.yul\":5680:5683   */\n      dup3\n        /* \"#utility.yul\":5591:5684   */\n      tag_287\n      jump\t// in\n    tag_286:\n        /* \"#utility.yul\":5709:5711   */\n      0x20\n        /* \"#utility.yul\":5704:5707   */\n      dup3\n        /* \"#utility.yul\":5700:5712   */\n      add\n        /* \"#utility.yul\":5693:5712   */\n      swap1\n      pop\n        /* \"#utility.yul\":5352:5718   */\n      swap2\n      swap1\n      pop\n      jump\t// out\n        /* \"#utility.yul\":5724:6090   */\n    tag_288:\n        /* \"#utility.yul\":5866:5869   */\n      0x00\n        /* \"#utility.yul\":5887:5954   */\n      tag_290\n        /* \"#utility.yul\":5951:5953   */\n      0x15\n        /* \"#utility.yul\":5946:5949   */\n      dup4\n        /* \"#utility.yul\":5887:5954   */\n      tag_251\n      jump\t// in\n    tag_290:\n        /* \"#utility.yul\":5880:5954   */\n      swap2\n      pop\n        /* \"#utility.yul\":5963:6056   */\n      tag_291\n        /* \"#utility.yul\":6052:6055   */\n      dup3\n        /* \"#utility.yul\":5963:6056   */\n      tag_292\n      jump\t// in\n    tag_291:\n        /* \"#utility.yul\":6081:6083   */\n      0x20\n        /* \"#utility.yul\":6076:6079   */\n      dup3\n        /* \"#utility.yul\":6072:6084   */\n      add\n        /* \"#utility.yul\":6065:6084   */\n      swap1\n      pop\n        /* \"#utility.yul\":5724:6090   */\n      swap2\n      swap1\n      pop\n      jump\t// out\n        /* \"#utility.yul\":6096:6214   */\n    tag_293:\n        /* \"#utility.yul\":6183:6207   */\n      tag_295\n        /* \"#utility.yul\":6201:6206   */\n      dup2\n        /* \"#utility.yul\":6183:6207   */\n      tag_296\n      jump\t// in\n    tag_295:\n        /* \"#utility.yul\":6178:6181   */\n      dup3\n        /* \"#utility.yul\":6171:6208   */\n      mstore\n        /* \"#utility.yul\":6096:6214   */\n      pop\n      pop\n      jump\t// out\n        /* \"#utility.yul\":6220:6377   */\n    tag_297:\n        /* \"#utility.yul\":6325:6370   */\n      tag_299\n        /* \"#utility.yul\":6345:6369   */\n      tag_300\n        /* \"#utility.yul\":6363:6368   */\n      dup3\n        /* \"#utility.yul\":6345:6369   */\n      tag_296\n      jump\t// in\n    tag_300:\n        /* \"#utility.yul\":6325:6370   */\n      tag_301\n      jump\t// in\n    tag_299:\n        /* \"#utility.yul\":6320:6323   */\n      dup3\n        /* \"#utility.yul\":6313:6371   */\n      mstore\n        /* \"#utility.yul\":6220:6377   */\n      pop\n      pop\n      jump\t// out\n        /* \"#utility.yul\":6383:6498   */\n    tag_302:\n        /* \"#utility.yul\":6468:6491   */\n      tag_304\n        /* \"#utility.yul\":6485:6490   */\n      dup2\n        /* \"#utility.yul\":6468:6491   */\n      tag_305\n      jump\t// in\n    tag_304:\n        /* \"#utility.yul\":6463:6466   */\n      dup3\n        /* \"#utility.yul\":6456:6492   */\n      mstore\n        /* \"#utility.yul\":6383:6498   */\n      pop\n      pop\n      jump\t// out\n        /* \"#utility.yul\":6504:7042   */\n    tag_85:\n        /* \"#utility.yul\":6672:6675   */\n      0x00\n        /* \"#utility.yul\":6687:6762   */\n      tag_307\n        /* \"#utility.yul\":6758:6761   */\n      dup3\n        /* \"#utility.yul\":6749:6755   */\n      dup7\n        /* \"#utility.yul\":6687:6762   */\n      tag_297\n      jump\t// in\n    tag_307:\n        /* \"#utility.yul\":6787:6789   */\n      0x20\n        /* \"#utility.yul\":6782:6785   */\n      dup3\n        /* \"#utility.yul\":6778:6790   */\n      add\n        /* \"#utility.yul\":6771:6790   */\n      swap2\n      pop\n        /* \"#utility.yul\":6800:6875   */\n      tag_308\n        /* \"#utility.yul\":6871:6874   */\n      dup3\n        /* \"#utility.yul\":6862:6868   */\n      dup6\n        /* \"#utility.yul\":6800:6875   */\n      tag_297\n      jump\t// in\n    tag_308:\n        /* \"#utility.yul\":6900:6902   */\n      0x20\n        /* \"#utility.yul\":6895:6898   */\n      dup3\n        /* \"#utility.yul\":6891:6903   */\n      add\n        /* \"#utility.yul\":6884:6903   */\n      swap2\n      pop\n        /* \"#utility.yul\":6913:6988   */\n      tag_309\n        /* \"#utility.yul\":6984:6987   */\n      dup3\n        /* \"#utility.yul\":6975:6981   */\n      dup5\n        /* \"#utility.yul\":6913:6988   */\n      tag_297\n      jump\t// in\n    tag_309:\n        /* \"#utility.yul\":7013:7015   */\n      0x20\n        /* \"#utility.yul\":7008:7011   */\n      dup3\n        /* \"#utility.yul\":7004:7016   */\n      add\n        /* \"#utility.yul\":6997:7016   */\n      swap2\n      pop\n        /* \"#utility.yul\":7033:7036   */\n      dup2\n        /* \"#utility.yul\":7026:7036   */\n      swap1\n      pop\n        /* \"#utility.yul\":6504:7042   */\n      swap5\n      swap4\n      pop\n      pop\n      pop\n      pop\n      jump\t// out\n        /* \"#utility.yul\":7048:7270   */\n    tag_43:\n        /* \"#utility.yul\":7141:7145   */\n      0x00\n        /* \"#utility.yul\":7179:7181   */\n      0x20\n        /* \"#utility.yul\":7168:7177   */\n      dup3\n        /* \"#utility.yul\":7164:7182   */\n      add\n        /* \"#utility.yul\":7156:7182   */\n      swap1\n      pop\n        /* \"#utility.yul\":7192:7263   */\n      tag_311\n        /* \"#utility.yul\":7260:7261   */\n      0x00\n        /* \"#utility.yul\":7249:7258   */\n      dup4\n        /* \"#utility.yul\":7245:7262   */\n      add\n        /* \"#utility.yul\":7236:7242   */\n      dup5\n        /* \"#utility.yul\":7192:7263   */\n      tag_242\n      jump\t// in\n    tag_311:\n        /* \"#utility.yul\":7048:7270   */\n      swap3\n      swap2\n      pop\n      pop\n      jump\t// out\n        /* \"#utility.yul\":7276:8542   */\n    tag_53:\n        /* \"#utility.yul\":7623:7627   */\n      0x00\n        /* \"#utility.yul\":7661:7664   */\n      0x0100\n        /* \"#utility.yul\":7650:7659   */\n      dup3\n        /* \"#utility.yul\":7646:7665   */\n      add\n        /* \"#utility.yul\":7638:7665   */\n      swap1\n      pop\n        /* \"#utility.yul\":7675:7746   */\n      tag_313\n        /* \"#utility.yul\":7743:7744   */\n      0x00\n        /* \"#utility.yul\":7732:7741   */\n      dup4\n        /* \"#utility.yul\":7728:7745   */\n      add\n        /* \"#utility.yul\":7719:7725   */\n      dup12\n        /* \"#utility.yul\":7675:7746   */\n      tag_242\n      jump\t// in\n    tag_313:\n        /* \"#utility.yul\":7793:7802   */\n      dup2\n        /* \"#utility.yul\":7787:7791   */\n      dup2\n        /* \"#utility.yul\":7783:7803   */\n      sub\n        /* \"#utility.yul\":7778:7780   */\n      0x20\n        /* \"#utility.yul\":7767:7776   */\n      dup4\n        /* \"#utility.yul\":7763:7781   */\n      add\n        /* \"#utility.yul\":7756:7804   */\n      mstore\n        /* \"#utility.yul\":7821:7899   */\n      tag_314\n        /* \"#utility.yul\":7894:7898   */\n      dup2\n        /* \"#utility.yul\":7885:7891   */\n      dup11\n        /* \"#utility.yul\":7821:7899   */\n      tag_246\n      jump\t// in\n    tag_314:\n        /* \"#utility.yul\":7813:7899   */\n      swap1\n      pop\n        /* \"#utility.yul\":7946:7955   */\n      dup2\n        /* \"#utility.yul\":7940:7944   */\n      dup2\n        /* \"#utility.yul\":7936:7956   */\n      sub\n        /* \"#utility.yul\":7931:7933   */\n      0x40\n        /* \"#utility.yul\":7920:7929   */\n      dup4\n        /* \"#utility.yul\":7916:7934   */\n      add\n        /* \"#utility.yul\":7909:7957   */\n      mstore\n        /* \"#utility.yul\":7974:8052   */\n      tag_315\n        /* \"#utility.yul\":8047:8051   */\n      dup2\n        /* \"#utility.yul\":8038:8044   */\n      dup10\n        /* \"#utility.yul\":7974:8052   */\n      tag_246\n      jump\t// in\n    tag_315:\n        /* \"#utility.yul\":7966:8052   */\n      swap1\n      pop\n        /* \"#utility.yul\":8099:8108   */\n      dup2\n        /* \"#utility.yul\":8093:8097   */\n      dup2\n        /* \"#utility.yul\":8089:8109   */\n      sub\n        /* \"#utility.yul\":8084:8086   */\n      0x60\n        /* \"#utility.yul\":8073:8082   */\n      dup4\n        /* \"#utility.yul\":8069:8087   */\n      add\n        /* \"#utility.yul\":8062:8110   */\n      mstore\n        /* \"#utility.yul\":8127:8205   */\n      tag_316\n        /* \"#utility.yul\":8200:8204   */\n      dup2\n        /* \"#utility.yul\":8191:8197   */\n      dup9\n        /* \"#utility.yul\":8127:8205   */\n      tag_246\n      jump\t// in\n    tag_316:\n        /* \"#utility.yul\":8119:8205   */\n      swap1\n      pop\n        /* \"#utility.yul\":8215:8288   */\n      tag_317\n        /* \"#utility.yul\":8283:8286   */\n      0x80\n        /* \"#utility.yul\":8272:8281   */\n      dup4\n        /* \"#utility.yul\":8268:8287   */\n      add\n        /* \"#utility.yul\":8259:8265   */\n      dup8\n        /* \"#utility.yul\":8215:8288   */\n      tag_293\n      jump\t// in\n    tag_317:\n        /* \"#utility.yul\":8298:8371   */\n      tag_318\n        /* \"#utility.yul\":8366:8369   */\n      0xa0\n        /* \"#utility.yul\":8355:8364   */\n      dup4\n        /* \"#utility.yul\":8351:8370   */\n      add\n        /* \"#utility.yul\":8342:8348   */\n      dup7\n        /* \"#utility.yul\":8298:8371   */\n      tag_293\n      jump\t// in\n    tag_318:\n        /* \"#utility.yul\":8381:8454   */\n      tag_319\n        /* \"#utility.yul\":8449:8452   */\n      0xc0\n        /* \"#utility.yul\":8438:8447   */\n      dup4\n        /* \"#utility.yul\":8434:8453   */\n      add\n        /* \"#utility.yul\":8425:8431   */\n      dup6\n        /* \"#utility.yul\":8381:8454   */\n      tag_293\n      jump\t// in\n    tag_319:\n        /* \"#utility.yul\":8464:8535   */\n      tag_320\n        /* \"#utility.yul\":8530:8533   */\n      0xe0\n        /* \"#utility.yul\":8519:8528   */\n      dup4\n        /* \"#utility.yul\":8515:8534   */\n      add\n        /* \"#utility.yul\":8506:8512   */\n      dup5\n        /* \"#utility.yul\":8464:8535   */\n      tag_302\n      jump\t// in\n    tag_320:\n        /* \"#utility.yul\":7276:8542   */\n      swap10\n      swap9\n      pop\n      pop\n      pop\n      pop\n      pop\n      pop\n      pop\n      pop\n      pop\n      jump\t// out\n        /* \"#utility.yul\":8548:8861   */\n    tag_34:\n        /* \"#utility.yul\":8661:8665   */\n      0x00\n        /* \"#utility.yul\":8699:8701   */\n      0x20\n        /* \"#utility.yul\":8688:8697   */\n      dup3\n        /* \"#utility.yul\":8684:8702   */\n      add\n        /* \"#utility.yul\":8676:8702   */\n      swap1\n      pop\n        /* \"#utility.yul\":8748:8757   */\n      dup2\n        /* \"#utility.yul\":8742:8746   */\n      dup2\n        /* \"#utility.yul\":8738:8758   */\n      sub\n        /* \"#utility.yul\":8734:8735   */\n      0x00\n        /* \"#utility.yul\":8723:8732   */\n      dup4\n        /* \"#utility.yul\":8719:8736   */\n      add\n        /* \"#utility.yul\":8712:8759   */\n      mstore\n        /* \"#utility.yul\":8776:8854   */\n      tag_322\n        /* \"#utility.yul\":8849:8853   */\n      dup2\n        /* \"#utility.yul\":8840:8846   */\n      dup5\n        /* \"#utility.yul\":8776:8854   */\n      tag_246\n      jump\t// in\n    tag_322:\n        /* \"#utility.yul\":8768:8854   */\n      swap1\n      pop\n        /* \"#utility.yul\":8548:8861   */\n      swap3\n      swap2\n      pop\n      pop\n      jump\t// out\n        /* \"#utility.yul\":8867:9369   */\n    tag_160:\n        /* \"#utility.yul\":9022:9026   */\n      0x00\n        /* \"#utility.yul\":9060:9062   */\n      0x40\n        /* \"#utility.yul\":9049:9058   */\n      dup3\n        /* \"#utility.yul\":9045:9063   */\n      add\n        /* \"#utility.yul\":9037:9063   */\n      swap1\n      pop\n        /* \"#utility.yul\":9109:9118   */\n      dup2\n        /* \"#utility.yul\":9103:9107   */\n      dup2\n        /* \"#utility.yul\":9099:9119   */\n      sub\n        /* \"#utility.yul\":9095:9096   */\n      0x00\n        /* \"#utility.yul\":9084:9093   */\n      dup4\n        /* \"#utility.yul\":9080:9097   */\n      add\n        /* \"#utility.yul\":9073:9120   */\n      mstore\n        /* \"#utility.yul\":9137:9212   */\n      tag_324\n        /* \"#utility.yul\":9207:9211   */\n      dup2\n        /* \"#utility.yul\":9198:9204   */\n      dup6\n        /* \"#utility.yul\":9137:9212   */\n      tag_256\n      jump\t// in\n    tag_324:\n        /* \"#utility.yul\":9129:9212   */\n      swap1\n      pop\n        /* \"#utility.yul\":9259:9268   */\n      dup2\n        /* \"#utility.yul\":9253:9257   */\n      dup2\n        /* \"#utility.yul\":9249:9269   */\n      sub\n        /* \"#utility.yul\":9244:9246   */\n      0x20\n        /* \"#utility.yul\":9233:9242   */\n      dup4\n        /* \"#utility.yul\":9229:9247   */\n      add\n        /* \"#utility.yul\":9222:9270   */\n      mstore\n        /* \"#utility.yul\":9287:9362   */\n      tag_325\n        /* \"#utility.yul\":9357:9361   */\n      dup2\n        /* \"#utility.yul\":9348:9354   */\n      dup5\n        /* \"#utility.yul\":9287:9362   */\n      tag_256\n      jump\t// in\n    tag_325:\n        /* \"#utility.yul\":9279:9362   */\n      swap1\n      pop\n        /* \"#utility.yul\":8867:9369   */\n      swap4\n      swap3\n      pop\n      pop\n      pop\n      jump\t// out\n        /* \"#utility.yul\":9375:9794   */\n    tag_65:\n        /* \"#utility.yul\":9541:9545   */\n      0x00\n        /* \"#utility.yul\":9579:9581   */\n      0x20\n        /* \"#utility.yul\":9568:9577   */\n      dup3\n        /* \"#utility.yul\":9564:9582   */\n      add\n        /* \"#utility.yul\":9556:9582   */\n      swap1\n      pop\n        /* \"#utility.yul\":9628:9637   */\n      dup2\n        /* \"#utility.yul\":9622:9626   */\n      dup2\n        /* \"#utility.yul\":9618:9638   */\n      sub\n        /* \"#utility.yul\":9614:9615   */\n      0x00\n        /* \"#utility.yul\":9603:9612   */\n      dup4\n        /* \"#utility.yul\":9599:9616   */\n      add\n        /* \"#utility.yul\":9592:9639   */\n      mstore\n        /* \"#utility.yul\":9656:9787   */\n      tag_327\n        /* \"#utility.yul\":9782:9786   */\n      dup2\n        /* \"#utility.yul\":9656:9787   */\n      tag_268\n      jump\t// in\n    tag_327:\n        /* \"#utility.yul\":9648:9787   */\n      swap1\n      pop\n        /* \"#utility.yul\":9375:9794   */\n      swap2\n      swap1\n      pop\n      jump\t// out\n        /* \"#utility.yul\":9800:10219   */\n    tag_170:\n        /* \"#utility.yul\":9966:9970   */\n      0x00\n        /* \"#utility.yul\":10004:10006   */\n      0x20\n        /* \"#utility.yul\":9993:10002   */\n      dup3\n        /* \"#utility.yul\":9989:10007   */\n      add\n        /* \"#utility.yul\":9981:10007   */\n      swap1\n      pop\n        /* \"#utility.yul\":10053:10062   */\n      dup2\n        /* \"#utility.yul\":10047:10051   */\n      dup2\n        /* \"#utility.yul\":10043:10063   */\n      sub\n        /* \"#utility.yul\":10039:10040   */\n      0x00\n        /* \"#utility.yul\":10028:10037   */\n      dup4\n        /* \"#utility.yul\":10024:10041   */\n      add\n        /* \"#utility.yul\":10017:10064   */\n      mstore\n        /* \"#utility.yul\":10081:10212   */\n      tag_329\n        /* \"#utility.yul\":10207:10211   */\n      dup2\n        /* \"#utility.yul\":10081:10212   */\n      tag_273\n      jump\t// in\n    tag_329:\n        /* \"#utility.yul\":10073:10212   */\n      swap1\n      pop\n        /* \"#utility.yul\":9800:10219   */\n      swap2\n      swap1\n      pop\n      jump\t// out\n        /* \"#utility.yul\":10225:10754   */\n    tag_179:\n        /* \"#utility.yul\":10419:10423   */\n      0x00\n        /* \"#utility.yul\":10457:10459   */\n      0x40\n        /* \"#utility.yul\":10446:10455   */\n      dup3\n        /* \"#utility.yul\":10442:10460   */\n      add\n        /* \"#utility.yul\":10434:10460   */\n      swap1\n      pop\n        /* \"#utility.yul\":10506:10515   */\n      dup2\n        /* \"#utility.yul\":10500:10504   */\n      dup2\n        /* \"#utility.yul\":10496:10516   */\n      sub\n        /* \"#utility.yul\":10492:10493   */\n      0x00\n        /* \"#utility.yul\":10481:10490   */\n      dup4\n        /* \"#utility.yul\":10477:10494   */\n      add\n        /* \"#utility.yul\":10470:10517   */\n      mstore\n        /* \"#utility.yul\":10534:10665   */\n      tag_331\n        /* \"#utility.yul\":10660:10664   */\n      dup2\n        /* \"#utility.yul\":10534:10665   */\n      tag_278\n      jump\t// in\n    tag_331:\n        /* \"#utility.yul\":10526:10665   */\n      swap1\n      pop\n        /* \"#utility.yul\":10675:10747   */\n      tag_332\n        /* \"#utility.yul\":10743:10745   */\n      0x20\n        /* \"#utility.yul\":10732:10741   */\n      dup4\n        /* \"#utility.yul\":10728:10746   */\n      add\n        /* \"#utility.yul\":10719:10725   */\n      dup5\n        /* \"#utility.yul\":10675:10747   */\n      tag_293\n      jump\t// in\n    tag_332:\n        /* \"#utility.yul\":10225:10754   */\n      swap3\n      swap2\n      pop\n      pop\n      jump\t// out\n        /* \"#utility.yul\":10760:11179   */\n    tag_125:\n        /* \"#utility.yul\":10926:10930   */\n      0x00\n        /* \"#utility.yul\":10964:10966   */\n      0x20\n        /* \"#utility.yul\":10953:10962   */\n      dup3\n        /* \"#utility.yul\":10949:10967   */\n      add\n        /* \"#utility.yul\":10941:10967   */\n      swap1\n      pop\n        /* \"#utility.yul\":11013:11022   */\n      dup2\n        /* \"#utility.yul\":11007:11011   */\n      dup2\n        /* \"#utility.yul\":11003:11023   */\n      sub\n        /* \"#utility.yul\":10999:11000   */\n      0x00\n        /* \"#utility.yul\":10988:10997   */\n      dup4\n        /* \"#utility.yul\":10984:11001   */\n      add\n        /* \"#utility.yul\":10977:11024   */\n      mstore\n        /* \"#utility.yul\":11041:11172   */\n      tag_334\n        /* \"#utility.yul\":11167:11171   */\n      dup2\n        /* \"#utility.yul\":11041:11172   */\n      tag_283\n      jump\t// in\n    tag_334:\n        /* \"#utility.yul\":11033:11172   */\n      swap1\n      pop\n        /* \"#utility.yul\":10760:11179   */\n      swap2\n      swap1\n      pop\n      jump\t// out\n        /* \"#utility.yul\":11185:11714   */\n    tag_108:\n        /* \"#utility.yul\":11379:11383   */\n      0x00\n        /* \"#utility.yul\":11417:11419   */\n      0x40\n        /* \"#utility.yul\":11406:11415   */\n      dup3\n        /* \"#utility.yul\":11402:11420   */\n      add\n        /* \"#utility.yul\":11394:11420   */\n      swap1\n      pop\n        /* \"#utility.yul\":11466:11475   */\n      dup2\n        /* \"#utility.yul\":11460:11464   */\n      dup2\n        /* \"#utility.yul\":11456:11476   */\n      sub\n        /* \"#utility.yul\":11452:11453   */\n      0x00\n        /* \"#utility.yul\":11441:11450   */\n      dup4\n        /* \"#utility.yul\":11437:11454   */\n      add\n        /* \"#utility.yul\":11430:11477   */\n      mstore\n        /* \"#utility.yul\":11494:11625   */\n      tag_336\n        /* \"#utility.yul\":11620:11624   */\n      dup2\n        /* \"#utility.yul\":11494:11625   */\n      tag_288\n      jump\t// in\n    tag_336:\n        /* \"#utility.yul\":11486:11625   */\n      swap1\n      pop\n        /* \"#utility.yul\":11635:11707   */\n      tag_337\n        /* \"#utility.yul\":11703:11705   */\n      0x20\n        /* \"#utility.yul\":11692:11701   */\n      dup4\n        /* \"#utility.yul\":11688:11706   */\n      add\n        /* \"#utility.yul\":11679:11685   */\n      dup5\n        /* \"#utility.yul\":11635:11707   */\n      tag_293\n      jump\t// in\n    tag_337:\n        /* \"#utility.yul\":11185:11714   */\n      swap3\n      swap2\n      pop\n      pop\n      jump\t// out\n        /* \"#utility.yul\":11720:11942   */\n    tag_19:\n        /* \"#utility.yul\":11813:11817   */\n      0x00\n        /* \"#utility.yul\":11851:11853   */\n      0x20\n        /* \"#utility.yul\":11840:11849   */\n      dup3\n        /* \"#utility.yul\":11836:11854   */\n      add\n        /* \"#utility.yul\":11828:11854   */\n      swap1\n      pop\n        /* \"#utility.yul\":11864:11935   */\n      tag_339\n        /* \"#utility.yul\":11932:11933   */\n      0x00\n        /* \"#utility.yul\":11921:11930   */\n      dup4\n        /* \"#utility.yul\":11917:11934   */\n      add\n        /* \"#utility.yul\":11908:11914   */\n      dup5\n        /* \"#utility.yul\":11864:11935   */\n      tag_293\n      jump\t// in\n    tag_339:\n        /* \"#utility.yul\":11720:11942   */\n      swap3\n      swap2\n      pop\n      pop\n      jump\t// out\n        /* \"#utility.yul\":11948:12077   */\n    tag_200:\n        /* \"#utility.yul\":11982:11988   */\n      0x00\n        /* \"#utility.yul\":12009:12029   */\n      tag_341\n      tag_342\n      jump\t// in\n    tag_341:\n        /* \"#utility.yul\":11999:12029   */\n      swap1\n      pop\n        /* \"#utility.yul\":12038:12071   */\n      tag_343\n        /* \"#utility.yul\":12066:12070   */\n      dup3\n        /* \"#utility.yul\":12058:12064   */\n      dup3\n        /* \"#utility.yul\":12038:12071   */\n      tag_344\n      jump\t// in\n    tag_343:\n        /* \"#utility.yul\":11948:12077   */\n      swap2\n      swap1\n      pop\n      jump\t// out\n        /* \"#utility.yul\":12083:12158   */\n    tag_342:\n        /* \"#utility.yul\":12116:12122   */\n      0x00\n        /* \"#utility.yul\":12149:12151   */\n      0x40\n        /* \"#utility.yul\":12143:12152   */\n      mload\n        /* \"#utility.yul\":12133:12152   */\n      swap1\n      pop\n        /* \"#utility.yul\":12083:12158   */\n      swap1\n      jump\t// out\n        /* \"#utility.yul\":12164:12472   */\n    tag_199:\n        /* \"#utility.yul\":12226:12230   */\n      0x00\n        /* \"#utility.yul\":12316:12334   */\n      0xffffffffffffffff\n        /* \"#utility.yul\":12308:12314   */\n      dup3\n        /* \"#utility.yul\":12305:12335   */\n      gt\n        /* \"#utility.yul\":12302:12358   */\n      iszero\n      tag_347\n      jumpi\n        /* \"#utility.yul\":12338:12356   */\n      tag_348\n      tag_349\n      jump\t// in\n    tag_348:\n        /* \"#utility.yul\":12302:12358   */\n    tag_347:\n        /* \"#utility.yul\":12376:12405   */\n      tag_350\n        /* \"#utility.yul\":12398:12404   */\n      dup3\n        /* \"#utility.yul\":12376:12405   */\n      tag_255\n      jump\t// in\n    tag_350:\n        /* \"#utility.yul\":12368:12405   */\n      swap1\n      pop\n        /* \"#utility.yul\":12460:12464   */\n      0x20\n        /* \"#utility.yul\":12454:12458   */\n      dup2\n        /* \"#utility.yul\":12450:12465   */\n      add\n        /* \"#utility.yul\":12442:12465   */\n      swap1\n      pop\n        /* \"#utility.yul\":12164:12472   */\n      swap2\n      swap1\n      pop\n      jump\t// out\n        /* \"#utility.yul\":12478:12619   */\n    tag_264:\n        /* \"#utility.yul\":12527:12531   */\n      0x00\n        /* \"#utility.yul\":12550:12553   */\n      dup2\n        /* \"#utility.yul\":12542:12553   */\n      swap1\n      pop\n        /* \"#utility.yul\":12573:12576   */\n      dup2\n        /* \"#utility.yul\":12570:12571   */\n      0x00\n        /* \"#utility.yul\":12563:12577   */\n      mstore\n        /* \"#utility.yul\":12607:12611   */\n      0x20\n        /* \"#utility.yul\":12604:12605   */\n      0x00\n        /* \"#utility.yul\":12594:12612   */\n      keccak256\n        /* \"#utility.yul\":12586:12612   */\n      swap1\n      pop\n        /* \"#utility.yul\":12478:12619   */\n      swap2\n      swap1\n      pop\n      jump\t// out\n        /* \"#utility.yul\":12625:12724   */\n    tag_249:\n        /* \"#utility.yul\":12677:12683   */\n      0x00\n        /* \"#utility.yul\":12711:12716   */\n      dup2\n        /* \"#utility.yul\":12705:12717   */\n      mload\n        /* \"#utility.yul\":12695:12717   */\n      swap1\n      pop\n        /* \"#utility.yul\":12625:12724   */\n      swap2\n      swap1\n      pop\n      jump\t// out\n        /* \"#utility.yul\":12730:12899   */\n    tag_251:\n        /* \"#utility.yul\":12814:12825   */\n      0x00\n        /* \"#utility.yul\":12848:12854   */\n      dup3\n        /* \"#utility.yul\":12843:12846   */\n      dup3\n        /* \"#utility.yul\":12836:12855   */\n      mstore\n        /* \"#utility.yul\":12888:12892   */\n      0x20\n        /* \"#utility.yul\":12883:12886   */\n      dup3\n        /* \"#utility.yul\":12879:12893   */\n      add\n        /* \"#utility.yul\":12864:12893   */\n      swap1\n      pop\n        /* \"#utility.yul\":12730:12899   */\n      swap3\n      swap2\n      pop\n      pop\n      jump\t// out\n        /* \"#utility.yul\":12905:13210   */\n    tag_68:\n        /* \"#utility.yul\":12945:12948   */\n      0x00\n        /* \"#utility.yul\":12964:12984   */\n      tag_355\n        /* \"#utility.yul\":12982:12983   */\n      dup3\n        /* \"#utility.yul\":12964:12984   */\n      tag_296\n      jump\t// in\n    tag_355:\n        /* \"#utility.yul\":12959:12984   */\n      swap2\n      pop\n        /* \"#utility.yul\":12998:13018   */\n      tag_356\n        /* \"#utility.yul\":13016:13017   */\n      dup4\n        /* \"#utility.yul\":12998:13018   */\n      tag_296\n      jump\t// in\n    tag_356:\n        /* \"#utility.yul\":12993:13018   */\n      swap3\n      pop\n        /* \"#utility.yul\":13152:13153   */\n      dup3\n        /* \"#utility.yul\":13084:13150   */\n      0xffffffffffffffffffffffffffffffffffffffffffffffffffffffffffffffff\n        /* \"#utility.yul\":13080:13154   */\n      sub\n        /* \"#utility.yul\":13077:13078   */\n      dup3\n        /* \"#utility.yul\":13074:13155   */\n      gt\n        /* \"#utility.yul\":13071:13178   */\n      iszero\n      tag_357\n      jumpi\n        /* \"#utility.yul\":13158:13176   */\n      tag_358\n      tag_359\n      jump\t// in\n    tag_358:\n        /* \"#utility.yul\":13071:13178   */\n    tag_357:\n        /* \"#utility.yul\":13202:13203   */\n      dup3\n        /* \"#utility.yul\":13199:13200   */\n      dup3\n        /* \"#utility.yul\":13195:13204   */\n      add\n        /* \"#utility.yul\":13188:13204   */\n      swap1\n      pop\n        /* \"#utility.yul\":12905:13210   */\n      swap3\n      swap2\n      pop\n      pop\n      jump\t// out\n        /* \"#utility.yul\":13216:13564   */\n    tag_174:\n        /* \"#utility.yul\":13256:13263   */\n      0x00\n        /* \"#utility.yul\":13279:13299   */\n      tag_361\n        /* \"#utility.yul\":13297:13298   */\n      dup3\n        /* \"#utility.yul\":13279:13299   */\n      tag_296\n      jump\t// in\n    tag_361:\n        /* \"#utility.yul\":13274:13299   */\n      swap2\n      pop\n        /* \"#utility.yul\":13313:13333   */\n      tag_362\n        /* \"#utility.yul\":13331:13332   */\n      dup4\n        /* \"#utility.yul\":13313:13333   */\n      tag_296\n      jump\t// in\n    tag_362:\n        /* \"#utility.yul\":13308:13333   */\n      swap3\n      pop\n        /* \"#utility.yul\":13501:13502   */\n      dup2\n        /* \"#utility.yul\":13433:13499   */\n      0xffffffffffffffffffffffffffffffffffffffffffffffffffffffffffffffff\n        /* \"#utility.yul\":13429:13503   */\n      div\n        /* \"#utility.yul\":13426:13427   */\n      dup4\n        /* \"#utility.yul\":13423:13504   */\n      gt\n        /* \"#utility.yul\":13418:13419   */\n      dup3\n        /* \"#utility.yul\":13411:13420   */\n      iszero\n        /* \"#utility.yul\":13404:13421   */\n      iszero\n        /* \"#utility.yul\":13400:13505   */\n      and\n        /* \"#utility.yul\":13397:13528   */\n      iszero\n      tag_363\n      jumpi\n        /* \"#utility.yul\":13508:13526   */\n      tag_364\n      tag_359\n      jump\t// in\n    tag_364:\n        /* \"#utility.yul\":13397:13528   */\n    tag_363:\n        /* \"#utility.yul\":13556:13557   */\n      dup3\n        /* \"#utility.yul\":13553:13554   */\n      dup3\n        /* \"#utility.yul\":13549:13558   */\n      mul\n        /* \"#utility.yul\":13538:13558   */\n      swap1\n      pop\n        /* \"#utility.yul\":13216:13564   */\n      swap3\n      swap2\n      pop\n      pop\n      jump\t// out\n        /* \"#utility.yul\":13570:13761   */\n    tag_78:\n        /* \"#utility.yul\":13610:13614   */\n      0x00\n        /* \"#utility.yul\":13630:13650   */\n      tag_366\n        /* \"#utility.yul\":13648:13649   */\n      dup3\n        /* \"#utility.yul\":13630:13650   */\n      tag_296\n      jump\t// in\n    tag_366:\n        /* \"#utility.yul\":13625:13650   */\n      swap2\n      pop\n        /* \"#utility.yul\":13664:13684   */\n      tag_367\n        /* \"#utility.yul\":13682:13683   */\n      dup4\n        /* \"#utility.yul\":13664:13684   */\n      tag_296\n      jump\t// in\n    tag_367:\n        /* \"#utility.yul\":13659:13684   */\n      swap3\n      pop\n        /* \"#utility.yul\":13703:13704   */\n      dup3\n        /* \"#utility.yul\":13700:13701   */\n      dup3\n        /* \"#utility.yul\":13697:13705   */\n      lt\n        /* \"#utility.yul\":13694:13728   */\n      iszero\n      tag_368\n      jumpi\n        /* \"#utility.yul\":13708:13726   */\n      tag_369\n      tag_359\n      jump\t// in\n    tag_369:\n        /* \"#utility.yul\":13694:13728   */\n    tag_368:\n        /* \"#utility.yul\":13753:13754   */\n      dup3\n        /* \"#utility.yul\":13750:13751   */\n      dup3\n        /* \"#utility.yul\":13746:13755   */\n      sub\n        /* \"#utility.yul\":13738:13755   */\n      swap1\n      pop\n        /* \"#utility.yul\":13570:13761   */\n      swap3\n      swap2\n      pop\n      pop\n      jump\t// out\n        /* \"#utility.yul\":13767:13863   */\n    tag_245:\n        /* \"#utility.yul\":13804:13811   */\n      0x00\n        /* \"#utility.yul\":13833:13857   */\n      tag_371\n        /* \"#utility.yul\":13851:13856   */\n      dup3\n        /* \"#utility.yul\":13833:13857   */\n      tag_372\n      jump\t// in\n    tag_371:\n        /* \"#utility.yul\":13822:13857   */\n      swap1\n      pop\n        /* \"#utility.yul\":13767:13863   */\n      swap2\n      swap1\n      pop\n      jump\t// out\n        /* \"#utility.yul\":13869:13995   */\n    tag_372:\n        /* \"#utility.yul\":13906:13913   */\n      0x00\n        /* \"#utility.yul\":13946:13988   */\n      0xffffffffffffffffffffffffffffffffffffffff\n        /* \"#utility.yul\":13939:13944   */\n      dup3\n        /* \"#utility.yul\":13935:13989   */\n      and\n        /* \"#utility.yul\":13924:13989   */\n      swap1\n      pop\n        /* \"#utility.yul\":13869:13995   */\n      swap2\n      swap1\n      pop\n      jump\t// out\n        /* \"#utility.yul\":14001:14078   */\n    tag_296:\n        /* \"#utility.yul\":14038:14045   */\n      0x00\n        /* \"#utility.yul\":14067:14072   */\n      dup2\n        /* \"#utility.yul\":14056:14072   */\n      swap1\n      pop\n        /* \"#utility.yul\":14001:14078   */\n      swap2\n      swap1\n      pop\n      jump\t// out\n        /* \"#utility.yul\":14084:14177   */\n    tag_305:\n        /* \"#utility.yul\":14120:14127   */\n      0x00\n        /* \"#utility.yul\":14160:14170   */\n      0xffffffff\n        /* \"#utility.yul\":14153:14158   */\n      dup3\n        /* \"#utility.yul\":14149:14171   */\n      and\n        /* \"#utility.yul\":14138:14171   */\n      swap1\n      pop\n        /* \"#utility.yul\":14084:14177   */\n      swap2\n      swap1\n      pop\n      jump\t// out\n        /* \"#utility.yul\":14183:14337   */\n    tag_205:\n        /* \"#utility.yul\":14267:14273   */\n      dup3\n        /* \"#utility.yul\":14262:14265   */\n      dup2\n        /* \"#utility.yul\":14257:14260   */\n      dup4\n        /* \"#utility.yul\":14244:14274   */\n      calldatacopy\n        /* \"#utility.yul\":14329:14330   */\n      0x00\n        /* \"#utility.yul\":14320:14326   */\n      dup4\n        /* \"#utility.yul\":14315:14318   */\n      dup4\n        /* \"#utility.yul\":14311:14327   */\n      add\n        /* \"#utility.yul\":14304:14331   */\n      mstore\n        /* \"#utility.yul\":14183:14337   */\n      pop\n      pop\n      pop\n      jump\t// out\n        /* \"#utility.yul\":14343:14650   */\n    tag_253:\n        /* \"#utility.yul\":14411:14412   */\n      0x00\n        /* \"#utility.yul\":14421:14534   */\n    tag_378:\n        /* \"#utility.yul\":14435:14441   */\n      dup4\n        /* \"#utility.yul\":14432:14433   */\n      dup2\n        /* \"#utility.yul\":14429:14442   */\n      lt\n        /* \"#utility.yul\":14421:14534   */\n      iszero\n      tag_380\n      jumpi\n        /* \"#utility.yul\":14520:14521   */\n      dup1\n        /* \"#utility.yul\":14515:14518   */\n      dup3\n        /* \"#utility.yul\":14511:14522   */\n      add\n        /* \"#utility.yul\":14505:14523   */\n      mload\n        /* \"#utility.yul\":14501:14502   */\n      dup2\n        /* \"#utility.yul\":14496:14499   */\n      dup5\n        /* \"#utility.yul\":14492:14503   */\n      add\n        /* \"#utility.yul\":14485:14524   */\n      mstore\n        /* \"#utility.yul\":14457:14459   */\n      0x20\n        /* \"#utility.yul\":14454:14455   */\n      dup2\n        /* \"#utility.yul\":14450:14460   */\n      add\n        /* \"#utility.yul\":14445:14460   */\n      swap1\n      pop\n        /* \"#utility.yul\":14421:14534   */\n      jump(tag_378)\n    tag_380:\n        /* \"#utility.yul\":14552:14558   */\n      dup4\n        /* \"#utility.yul\":14549:14550   */\n      dup2\n        /* \"#utility.yul\":14546:14559   */\n      gt\n        /* \"#utility.yul\":14543:14644   */\n      iszero\n      tag_381\n      jumpi\n        /* \"#utility.yul\":14632:14633   */\n      0x00\n        /* \"#utility.yul\":14623:14629   */\n      dup5\n        /* \"#utility.yul\":14618:14621   */\n      dup5\n        /* \"#utility.yul\":14614:14630   */\n      add\n        /* \"#utility.yul\":14607:14634   */\n      mstore\n        /* \"#utility.yul\":14543:14644   */\n    tag_381:\n        /* \"#utility.yul\":14392:14650   */\n      pop\n        /* \"#utility.yul\":14343:14650   */\n      pop\n      pop\n      pop\n      jump\t// out\n        /* \"#utility.yul\":14656:14976   */\n    tag_133:\n        /* \"#utility.yul\":14700:14706   */\n      0x00\n        /* \"#utility.yul\":14737:14738   */\n      0x02\n        /* \"#utility.yul\":14731:14735   */\n      dup3\n        /* \"#utility.yul\":14727:14739   */\n      div\n        /* \"#utility.yul\":14717:14739   */\n      swap1\n      pop\n        /* \"#utility.yul\":14784:14785   */\n      0x01\n        /* \"#utility.yul\":14778:14782   */\n      dup3\n        /* \"#utility.yul\":14774:14786   */\n      and\n        /* \"#utility.yul\":14805:14823   */\n      dup1\n        /* \"#utility.yul\":14795:14876   */\n      tag_383\n      jumpi\n        /* \"#utility.yul\":14861:14865   */\n      0x7f\n        /* \"#utility.yul\":14853:14859   */\n      dup3\n        /* \"#utility.yul\":14849:14866   */\n      and\n        /* \"#utility.yul\":14839:14866   */\n      swap2\n      pop\n        /* \"#utility.yul\":14795:14876   */\n    tag_383:\n        /* \"#utility.yul\":14923:14925   */\n      0x20\n        /* \"#utility.yul\":14915:14921   */\n      dup3\n        /* \"#utility.yul\":14912:14926   */\n      lt\n        /* \"#utility.yul\":14892:14910   */\n      dup2\n        /* \"#utility.yul\":14889:14927   */\n      eq\n        /* \"#utility.yul\":14886:14970   */\n      iszero\n      tag_384\n      jumpi\n        /* \"#utility.yul\":14942:14960   */\n      tag_385\n      tag_386\n      jump\t// in\n    tag_385:\n        /* \"#utility.yul\":14886:14970   */\n    tag_384:\n        /* \"#utility.yul\":14707:14976   */\n      pop\n        /* \"#utility.yul\":14656:14976   */\n      swap2\n      swap1\n      pop\n      jump\t// out\n        /* \"#utility.yul\":14982:15263   */\n    tag_344:\n        /* \"#utility.yul\":15065:15092   */\n      tag_388\n        /* \"#utility.yul\":15087:15091   */\n      dup3\n        /* \"#utility.yul\":15065:15092   */\n      tag_255\n      jump\t// in\n    tag_388:\n        /* \"#utility.yul\":15057:15063   */\n      dup2\n        /* \"#utility.yul\":15053:15093   */\n      add\n        /* \"#utility.yul\":15195:15201   */\n      dup2\n        /* \"#utility.yul\":15183:15193   */\n      dup2\n        /* \"#utility.yul\":15180:15202   */\n      lt\n        /* \"#utility.yul\":15159:15177   */\n      0xffffffffffffffff\n        /* \"#utility.yul\":15147:15157   */\n      dup3\n        /* \"#utility.yul\":15144:15178   */\n      gt\n        /* \"#utility.yul\":15141:15203   */\n      or\n        /* \"#utility.yul\":15138:15226   */\n      iszero\n      tag_389\n      jumpi\n        /* \"#utility.yul\":15206:15224   */\n      tag_390\n      tag_349\n      jump\t// in\n    tag_390:\n        /* \"#utility.yul\":15138:15226   */\n    tag_389:\n        /* \"#utility.yul\":15246:15256   */\n      dup1\n        /* \"#utility.yul\":15242:15244   */\n      0x40\n        /* \"#utility.yul\":15235:15257   */\n      mstore\n        /* \"#utility.yul\":15025:15263   */\n      pop\n        /* \"#utility.yul\":14982:15263   */\n      pop\n      pop\n      jump\t// out\n        /* \"#utility.yul\":15269:15502   */\n    tag_75:\n        /* \"#utility.yul\":15308:15311   */\n      0x00\n        /* \"#utility.yul\":15331:15355   */\n      tag_392\n        /* \"#utility.yul\":15349:15354   */\n      dup3\n        /* \"#utility.yul\":15331:15355   */\n      tag_296\n      jump\t// in\n    tag_392:\n        /* \"#utility.yul\":15322:15355   */\n      swap2\n      pop\n        /* \"#utility.yul\":15377:15443   */\n      0xffffffffffffffffffffffffffffffffffffffffffffffffffffffffffffffff\n        /* \"#utility.yul\":15370:15375   */\n      dup3\n        /* \"#utility.yul\":15367:15444   */\n      eq\n        /* \"#utility.yul\":15364:15467   */\n      iszero\n      tag_393\n      jumpi\n        /* \"#utility.yul\":15447:15465   */\n      tag_394\n      tag_359\n      jump\t// in\n    tag_394:\n        /* \"#utility.yul\":15364:15467   */\n    tag_393:\n        /* \"#utility.yul\":15494:15495   */\n      0x01\n        /* \"#utility.yul\":15487:15492   */\n      dup3\n        /* \"#utility.yul\":15483:15496   */\n      add\n        /* \"#utility.yul\":15476:15496   */\n      swap1\n      pop\n        /* \"#utility.yul\":15269:15502   */\n      swap2\n      swap1\n      pop\n      jump\t// out\n        /* \"#utility.yul\":15508:15587   */\n    tag_301:\n        /* \"#utility.yul\":15547:15554   */\n      0x00\n        /* \"#utility.yul\":15576:15581   */\n      dup2\n        /* \"#utility.yul\":15565:15581   */\n      swap1\n      pop\n        /* \"#utility.yul\":15508:15587   */\n      swap2\n      swap1\n      pop\n      jump\t// out\n        /* \"#utility.yul\":15593:15769   */\n    tag_87:\n        /* \"#utility.yul\":15625:15626   */\n      0x00\n        /* \"#utility.yul\":15642:15662   */\n      tag_397\n        /* \"#utility.yul\":15660:15661   */\n      dup3\n        /* \"#utility.yul\":15642:15662   */\n      tag_296\n      jump\t// in\n    tag_397:\n        /* \"#utility.yul\":15637:15662   */\n      swap2\n      pop\n        /* \"#utility.yul\":15676:15696   */\n      tag_398\n        /* \"#utility.yul\":15694:15695   */\n      dup4\n        /* \"#utility.yul\":15676:15696   */\n      tag_296\n      jump\t// in\n    tag_398:\n        /* \"#utility.yul\":15671:15696   */\n      swap3\n      pop\n        /* \"#utility.yul\":15715:15716   */\n      dup3\n        /* \"#utility.yul\":15705:15740   */\n      tag_399\n      jumpi\n        /* \"#utility.yul\":15720:15738   */\n      tag_400\n      tag_401\n      jump\t// in\n    tag_400:\n        /* \"#utility.yul\":15705:15740   */\n    tag_399:\n        /* \"#utility.yul\":15761:15762   */\n      dup3\n        /* \"#utility.yul\":15758:15759   */\n      dup3\n        /* \"#utility.yul\":15754:15763   */\n      mod\n        /* \"#utility.yul\":15749:15763   */\n      swap1\n      pop\n        /* \"#utility.yul\":15593:15769   */\n      swap3\n      swap2\n      pop\n      pop\n      jump\t// out\n        /* \"#utility.yul\":15775:15955   */\n    tag_359:\n        /* \"#utility.yul\":15823:15900   */\n      0x4e487b7100000000000000000000000000000000000000000000000000000000\n        /* \"#utility.yul\":15820:15821   */\n      0x00\n        /* \"#utility.yul\":15813:15901   */\n      mstore\n        /* \"#utility.yul\":15920:15924   */\n      0x11\n        /* \"#utility.yul\":15917:15918   */\n      0x04\n        /* \"#utility.yul\":15910:15925   */\n      mstore\n        /* \"#utility.yul\":15944:15948   */\n      0x24\n        /* \"#utility.yul\":15941:15942   */\n      0x00\n        /* \"#utility.yul\":15934:15949   */\n      revert\n        /* \"#utility.yul\":15961:16141   */\n    tag_401:\n        /* \"#utility.yul\":16009:16086   */\n      0x4e487b7100000000000000000000000000000000000000000000000000000000\n        /* \"#utility.yul\":16006:16007   */\n      0x00\n        /* \"#utility.yul\":15999:16087   */\n      mstore\n        /* \"#utility.yul\":16106:16110   */\n      0x12\n        /* \"#utility.yul\":16103:16104   */\n      0x04\n        /* \"#utility.yul\":16096:16111   */\n      mstore\n        /* \"#utility.yul\":16130:16134   */\n      0x24\n        /* \"#utility.yul\":16127:16128   */\n      0x00\n        /* \"#utility.yul\":16120:16135   */\n      revert\n        /* \"#utility.yul\":16147:16327   */\n    tag_386:\n        /* \"#utility.yul\":16195:16272   */\n      0x4e487b7100000000000000000000000000000000000000000000000000000000\n        /* \"#utility.yul\":16192:16193   */\n      0x00\n        /* \"#utility.yul\":16185:16273   */\n      mstore\n        /* \"#utility.yul\":16292:16296   */\n      0x22\n        /* \"#utility.yul\":16289:16290   */\n      0x04\n        /* \"#utility.yul\":16282:16297   */\n      mstore\n        /* \"#utility.yul\":16316:16320   */\n      0x24\n        /* \"#utility.yul\":16313:16314   */\n      0x00\n        /* \"#utility.yul\":16306:16321   */\n      revert\n        /* \"#utility.yul\":16333:16513   */\n    tag_96:\n        /* \"#utility.yul\":16381:16458   */\n      0x4e487b7100000000000000000000000000000000000000000000000000000000\n        /* \"#utility.yul\":16378:16379   */\n      0x00\n        /* \"#utility.yul\":16371:16459   */\n      mstore\n        /* \"#utility.yul\":16478:16482   */\n      0x32\n        /* \"#utility.yul\":16475:16476   */\n      0x04\n        /* \"#utility.yul\":16468:16483   */\n      mstore\n        /* \"#utility.yul\":16502:16506   */\n      0x24\n        /* \"#utility.yul\":16499:16500   */\n      0x00\n        /* \"#utility.yul\":16492:16507   */\n      revert\n        /* \"#utility.yul\":16519:16699   */\n    tag_349:\n        /* \"#utility.yul\":16567:16644   */\n      0x4e487b7100000000000000000000000000000000000000000000000000000000\n        /* \"#utility.yul\":16564:16565   */\n      0x00\n        /* \"#utility.yul\":16557:16645   */\n      mstore\n        /* \"#utility.yul\":16664:16668   */\n      0x41\n        /* \"#utility.yul\":16661:16662   */\n      0x04\n        /* \"#utility.yul\":16654:16669   */\n      mstore\n        /* \"#utility.yul\":16688:16692   */\n      0x24\n        /* \"#utility.yul\":16685:16686   */\n      0x00\n        /* \"#utility.yul\":16678:16693   */\n      revert\n        /* \"#utility.yul\":16705:16822   */\n    tag_214:\n        /* \"#utility.yul\":16814:16815   */\n      0x00\n        /* \"#utility.yul\":16811:16812   */\n      dup1\n        /* \"#utility.yul\":16804:16816   */\n      revert\n        /* \"#utility.yul\":16828:16945   */\n    tag_203:\n        /* \"#utility.yul\":16937:16938   */\n      0x00\n        /* \"#utility.yul\":16934:16935   */\n      dup1\n        /* \"#utility.yul\":16927:16939   */\n      revert\n        /* \"#utility.yul\":16951:17068   */\n    tag_230:\n        /* \"#utility.yul\":17060:17061   */\n      0x00\n        /* \"#utility.yul\":17057:17058   */\n      dup1\n        /* \"#utility.yul\":17050:17062   */\n      revert\n        /* \"#utility.yul\":17074:17191   */\n    tag_223:\n        /* \"#utility.yul\":17183:17184   */\n      0x00\n        /* \"#utility.yul\":17180:17181   */\n      dup1\n        /* \"#utility.yul\":17173:17185   */\n      revert\n        /* \"#utility.yul\":17197:17299   */\n    tag_255:\n        /* \"#utility.yul\":17238:17244   */\n      0x00\n        /* \"#utility.yul\":17289:17291   */\n      0x1f\n        /* \"#utility.yul\":17285:17292   */\n      not\n        /* \"#utility.yul\":17280:17282   */\n      0x1f\n        /* \"#utility.yul\":17273:17278   */\n      dup4\n        /* \"#utility.yul\":17269:17283   */\n      add\n        /* \"#utility.yul\":17265:17293   */\n      and\n        /* \"#utility.yul\":17255:17293   */\n      swap1\n      pop\n        /* \"#utility.yul\":17197:17299   */\n      swap2\n      swap1\n      pop\n      jump\t// out\n        /* \"#utility.yul\":17305:17532   */\n    tag_272:\n        /* \"#utility.yul\":17445:17479   */\n      0x536f6c6f2073652070756564652074656e657220756e20636f63686520706f72\n        /* \"#utility.yul\":17441:17442   */\n      0x00\n        /* \"#utility.yul\":17433:17439   */\n      dup3\n        /* \"#utility.yul\":17429:17443   */\n      add\n        /* \"#utility.yul\":17422:17480   */\n      mstore\n        /* \"#utility.yul\":17514:17524   */\n      0x20706572736f6e61000000000000000000000000000000000000000000000000\n        /* \"#utility.yul\":17509:17511   */\n      0x20\n        /* \"#utility.yul\":17501:17507   */\n      dup3\n        /* \"#utility.yul\":17497:17512   */\n      add\n        /* \"#utility.yul\":17490:17525   */\n      mstore\n        /* \"#utility.yul\":17305:17532   */\n      pop\n      jump\t// out\n        /* \"#utility.yul\":17538:17763   */\n    tag_277:\n        /* \"#utility.yul\":17678:17712   */\n      0x4f776e61626c653a206e6577206f776e657220697320746865207a65726f2061\n        /* \"#utility.yul\":17674:17675   */\n      0x00\n        /* \"#utility.yul\":17666:17672   */\n      dup3\n        /* \"#utility.yul\":17662:17676   */\n      add\n        /* \"#utility.yul\":17655:17713   */\n      mstore\n        /* \"#utility.yul\":17747:17755   */\n      0x6464726573730000000000000000000000000000000000000000000000000000\n        /* \"#utility.yul\":17742:17744   */\n      0x20\n        /* \"#utility.yul\":17734:17740   */\n      dup3\n        /* \"#utility.yul\":17730:17745   */\n      add\n        /* \"#utility.yul\":17723:17756   */\n      mstore\n        /* \"#utility.yul\":17538:17763   */\n      pop\n      jump\t// out\n        /* \"#utility.yul\":17769:17931   */\n    tag_282:\n        /* \"#utility.yul\":17909:17923   */\n      0x4861732067616e61646f3a200000000000000000000000000000000000000000\n        /* \"#utility.yul\":17905:17906   */\n      0x00\n        /* \"#utility.yul\":17897:17903   */\n      dup3\n        /* \"#utility.yul\":17893:17907   */\n      add\n        /* \"#utility.yul\":17886:17924   */\n      mstore\n        /* \"#utility.yul\":17769:17931   */\n      pop\n      jump\t// out\n        /* \"#utility.yul\":17937:18119   */\n    tag_287:\n        /* \"#utility.yul\":18077:18111   */\n      0x4f776e61626c653a2063616c6c6572206973206e6f7420746865206f776e6572\n        /* \"#utility.yul\":18073:18074   */\n      0x00\n        /* \"#utility.yul\":18065:18071   */\n      dup3\n        /* \"#utility.yul\":18061:18075   */\n      add\n        /* \"#utility.yul\":18054:18112   */\n      mstore\n        /* \"#utility.yul\":17937:18119   */\n      pop\n      jump\t// out\n        /* \"#utility.yul\":18125:18296   */\n    tag_292:\n        /* \"#utility.yul\":18265:18288   */\n      0x456c20636f6368652067616e61646f722065733a200000000000000000000000\n        /* \"#utility.yul\":18261:18262   */\n      0x00\n        /* \"#utility.yul\":18253:18259   */\n      dup3\n        /* \"#utility.yul\":18249:18263   */\n      add\n        /* \"#utility.yul\":18242:18289   */\n      mstore\n        /* \"#utility.yul\":18125:18296   */\n      pop\n      jump\t// out\n        /* \"#utility.yul\":18302:18424   */\n    tag_209:\n        /* \"#utility.yul\":18375:18399   */\n      tag_418\n        /* \"#utility.yul\":18393:18398   */\n      dup2\n        /* \"#utility.yul\":18375:18399   */\n      tag_245\n      jump\t// in\n    tag_418:\n        /* \"#utility.yul\":18368:18373   */\n      dup2\n        /* \"#utility.yul\":18365:18400   */\n      eq\n        /* \"#utility.yul\":18355:18418   */\n      tag_419\n      jumpi\n        /* \"#utility.yul\":18414:18415   */\n      0x00\n        /* \"#utility.yul\":18411:18412   */\n      dup1\n        /* \"#utility.yul\":18404:18416   */\n      revert\n        /* \"#utility.yul\":18355:18418   */\n    tag_419:\n        /* \"#utility.yul\":18302:18424   */\n      pop\n      jump\t// out\n        /* \"#utility.yul\":18430:18552   */\n    tag_219:\n        /* \"#utility.yul\":18503:18527   */\n      tag_421\n        /* \"#utility.yul\":18521:18526   */\n      dup2\n        /* \"#utility.yul\":18503:18527   */\n      tag_296\n      jump\t// in\n    tag_421:\n        /* \"#utility.yul\":18496:18501   */\n      dup2\n        /* \"#utility.yul\":18493:18528   */\n      eq\n        /* \"#utility.yul\":18483:18546   */\n      tag_422\n      jumpi\n        /* \"#utility.yul\":18542:18543   */\n      0x00\n        /* \"#utility.yul\":18539:18540   */\n      dup1\n        /* \"#utility.yul\":18532:18544   */\n      revert\n        /* \"#utility.yul\":18483:18546   */\n    tag_422:\n        /* \"#utility.yul\":18430:18552   */\n      pop\n      jump\t// out\n\n    auxdata: 0xa26469706673582212203487fe717392192bf419cd4b851a2d919f6e5145bc263deb04af93640957065864736f6c63430008070033\n}\n",
				"bytecode": {
					"linkReferences": {},
					"object": "608060405260006001556000600255603c600355662386f26fc1000060045534801561002a57600080fd5b5061004761003c61004c60201b60201c565b61005460201b60201c565b610118565b600033905090565b60008060009054906101000a900473ffffffffffffffffffffffffffffffffffffffff169050816000806101000a81548173ffffffffffffffffffffffffffffffffffffffff021916908373ffffffffffffffffffffffffffffffffffffffff1602179055508173ffffffffffffffffffffffffffffffffffffffff168173ffffffffffffffffffffffffffffffffffffffff167f8be0079c531659141344cd1fd0a4f28419497f9722a3daafe3b4186f6b6457e060405160405180910390a35050565b61199a806101276000396000f3fe6080604052600436106100915760003560e01c8063858b055411610059578063858b0554146101735780638da5cb5b146101b0578063d735573d146101db578063e172fca81461021f578063f2fde38b1461024857610091565b80631c6743e4146100965780632458c544146100d35780632d54d647146101105780636b6f04941461012c578063715018a61461015c575b600080fd5b3480156100a257600080fd5b506100bd60048036038101906100b89190610f65565b610271565b6040516100ca9190611412565b60405180910390f35b3480156100df57600080fd5b506100fa60048036038101906100f59190610f92565b610289565b6040516101079190611412565b60405180910390f35b61012a60048036038101906101259190611039565b61056b565b005b61014660048036038101906101419190611039565b61057c565b60405161015391906112fd565b60405180910390f35b34801561016857600080fd5b506101716107b8565b005b34801561017f57600080fd5b5061019a60048036038101906101959190611039565b610840565b6040516101a7919061124f565b60405180910390f35b3480156101bc57600080fd5b506101c5610873565b6040516101d2919061124f565b60405180910390f35b3480156101e757600080fd5b5061020260048036038101906101fd9190611039565b61089c565b60405161021698979695949392919061126a565b60405180910390f35b34801561022b57600080fd5b5061024660048036038101906102419190610f65565b610abc565b005b34801561025457600080fd5b5061026f600480360381019061026a9190610f65565b610bcc565b005b60076020528060005260406000206000915090505481565b60006001600760003373ffffffffffffffffffffffffffffffffffffffff1673ffffffffffffffffffffffffffffffffffffffff168152602001908152602001600020541061030d576040517f08c379a000000000000000000000000000000000000000000000000000000000815260040161030490611356565b60405180910390fd5b60056040518061010001604052803373ffffffffffffffffffffffffffffffffffffffff16815260200186815260200185815260200184815260200160008152602001600081526020016003544261036591906114b4565b63ffffffff168152602001600063ffffffff16815250908060018154018082558091505060019003906000526020600020906008020160009091909190915060008201518160000160006101000a81548173ffffffffffffffffffffffffffffffffffffffff021916908373ffffffffffffffffffffffffffffffffffffffff1602179055506020820151816001019080519060200190610407929190610e28565b506040820151816002019080519060200190610424929190610e28565b506060820151816003019080519060200190610441929190610e28565b506080820151816004015560a0820151816005015560c0820151816006015560e08201518160070160006101000a81548163ffffffff021916908363ffffffff160217905550505060006005805490509050336006600083815260200190815260200160002060006101000a81548173ffffffffffffffffffffffffffffffffffffffff021916908373ffffffffffffffffffffffffffffffffffffffff160217905550600760003373ffffffffffffffffffffffffffffffffffffffff1673ffffffffffffffffffffffffffffffffffffffff168152602001908152602001600020600081548092919061053590611689565b91905055506002600081548092919061054d90611689565b919050555060016002546105619190611564565b9150509392505050565b600454341461057957600080fd5b50565b606081341461058a57600080fd5b6001600081548092919061059d90611689565b91905055506000600580549050426005805490506001546040516020016105c693929190611212565b6040516020818303038152906040528051906020012060001c6105e991906116dc565b9050600160008154809291906105fe90611689565b9190505550600060029050600081428360015460405160200161062393929190611212565b6040516020818303038152906040528051906020012060001c61064691906116dc565b905060005b6005805490508110156107ae576005818154811061066c5761066b61179a565b5b906000526020600020906008020160000160009054906101000a900473ffffffffffffffffffffffffffffffffffffffff1673ffffffffffffffffffffffffffffffffffffffff163373ffffffffffffffffffffffffffffffffffffffff16141561079b576000821415610723576106e2610cc4565b6040518060400160405280600a81526020017f4861732067616e61646f000000000000000000000000000000000000000000008152509450505050506107b3565b7fa28482eec3136a2461c6c30c08f71ba279c6c51a2d9c7bea4e50d6d2632f38968460405161075291906113e4565b60405180910390a16040518060400160405280600b81526020017f486173207065726469646f0000000000000000000000000000000000000000008152509450505050506107b3565b80806107a690611689565b91505061064b565b505050505b919050565b6107c0610d5c565b73ffffffffffffffffffffffffffffffffffffffff166107de610873565b73ffffffffffffffffffffffffffffffffffffffff1614610834576040517f08c379a000000000000000000000000000000000000000000000000000000000815260040161082b906113c4565b60405180910390fd5b61083e6000610d64565b565b60066020528060005260406000206000915054906101000a900473ffffffffffffffffffffffffffffffffffffffff1681565b60008060009054906101000a900473ffffffffffffffffffffffffffffffffffffffff16905090565b600581815481106108ac57600080fd5b90600052602060002090600802016000915090508060000160009054906101000a900473ffffffffffffffffffffffffffffffffffffffff16908060010180546108f590611626565b80601f016020809104026020016040519081016040528092919081815260200182805461092190611626565b801561096e5780601f106109435761010080835404028352916020019161096e565b820191906000526020600020905b81548152906001019060200180831161095157829003601f168201915b50505050509080600201805461098390611626565b80601f01602080910402602001604051908101604052809291908181526020018280546109af90611626565b80156109fc5780601f106109d1576101008083540402835291602001916109fc565b820191906000526020600020905b8154815290600101906020018083116109df57829003601f168201915b505050505090806003018054610a1190611626565b80601f0160208091040260200160405190810160405280929190818152602001828054610a3d90611626565b8015610a8a5780601f10610a5f57610100808354040283529160200191610a8a565b820191906000526020600020905b815481529060010190602001808311610a6d57829003601f168201915b5050505050908060040154908060050154908060060154908060070160009054906101000a900463ffffffff16905088565b60005b600580549050811015610bc8578173ffffffffffffffffffffffffffffffffffffffff166006600083815260200190815260200160002060009054906101000a900473ffffffffffffffffffffffffffffffffffffffff1673ffffffffffffffffffffffffffffffffffffffff161415610bb5577f96408510f58a52b0cfe536e046b25664fa36d8122620ec608c1767b45aa4f03c60058281548110610b6857610b6761179a565b5b906000526020600020906008020160020160058381548110610b8d57610b8c61179a565b5b9060005260206000209060080201600101604051610bac92919061131f565b60405180910390a15b8080610bc090611689565b915050610abf565b5050565b610bd4610d5c565b73ffffffffffffffffffffffffffffffffffffffff16610bf2610873565b73ffffffffffffffffffffffffffffffffffffffff1614610c48576040517f08c379a0000000000000000000000000000000000000000000000000000000008152600401610c3f906113c4565b60405180910390fd5b600073ffffffffffffffffffffffffffffffffffffffff168173ffffffffffffffffffffffffffffffffffffffff161415610cb8576040517f08c379a0000000000000000000000000000000000000000000000000000000008152600401610caf90611376565b60405180910390fd5b610cc181610d64565b50565b3373ffffffffffffffffffffffffffffffffffffffff166108fc600247610ceb919061150a565b9081150290604051600060405180830381858888f19350505050158015610d16573d6000803e3d6000fd5b507fa28482eec3136a2461c6c30c08f71ba279c6c51a2d9c7bea4e50d6d2632f3896600247610d45919061150a565b604051610d529190611396565b60405180910390a1565b600033905090565b60008060009054906101000a900473ffffffffffffffffffffffffffffffffffffffff169050816000806101000a81548173ffffffffffffffffffffffffffffffffffffffff021916908373ffffffffffffffffffffffffffffffffffffffff1602179055508173ffffffffffffffffffffffffffffffffffffffff168173ffffffffffffffffffffffffffffffffffffffff167f8be0079c531659141344cd1fd0a4f28419497f9722a3daafe3b4186f6b6457e060405160405180910390a35050565b828054610e3490611626565b90600052602060002090601f016020900481019282610e565760008555610e9d565b82601f10610e6f57805160ff1916838001178555610e9d565b82800160010185558215610e9d579182015b82811115610e9c578251825591602001919060010190610e81565b5b509050610eaa9190610eae565b5090565b5b80821115610ec7576000816000905550600101610eaf565b5090565b6000610ede610ed984611452565b61142d565b905082815260208101848484011115610efa57610ef96117fd565b5b610f058482856115e4565b509392505050565b600081359050610f1c81611936565b92915050565b600082601f830112610f3757610f366117f8565b5b8135610f47848260208601610ecb565b91505092915050565b600081359050610f5f8161194d565b92915050565b600060208284031215610f7b57610f7a611807565b5b6000610f8984828501610f0d565b91505092915050565b600080600060608486031215610fab57610faa611807565b5b600084013567ffffffffffffffff811115610fc957610fc8611802565b5b610fd586828701610f22565b935050602084013567ffffffffffffffff811115610ff657610ff5611802565b5b61100286828701610f22565b925050604084013567ffffffffffffffff81111561102357611022611802565b5b61102f86828701610f22565b9150509250925092565b60006020828403121561104f5761104e611807565b5b600061105d84828501610f50565b91505092915050565b61106f81611598565b82525050565b600061108082611498565b61108a81856114a3565b935061109a8185602086016115f3565b6110a38161180c565b840191505092915050565b600081546110bb81611626565b6110c581866114a3565b945060018216600081146110e057600181146110f257611125565b60ff1983168652602086019350611125565b6110fb85611483565b60005b8381101561111d578154818901526001820191506020810190506110fe565b808801955050505b50505092915050565b600061113b6028836114a3565b91506111468261181d565b604082019050919050565b600061115e6026836114a3565b91506111698261186c565b604082019050919050565b6000611181600c836114a3565b915061118c826118bb565b602082019050919050565b60006111a46020836114a3565b91506111af826118e4565b602082019050919050565b60006111c76015836114a3565b91506111d28261190d565b602082019050919050565b6111e6816115ca565b82525050565b6111fd6111f8826115ca565b6116d2565b82525050565b61120c816115d4565b82525050565b600061121e82866111ec565b60208201915061122e82856111ec565b60208201915061123e82846111ec565b602082019150819050949350505050565b60006020820190506112646000830184611066565b92915050565b600061010082019050611280600083018b611066565b8181036020830152611292818a611075565b905081810360408301526112a68189611075565b905081810360608301526112ba8188611075565b90506112c960808301876111dd565b6112d660a08301866111dd565b6112e360c08301856111dd565b6112f060e0830184611203565b9998505050505050505050565b600060208201905081810360008301526113178184611075565b905092915050565b6000604082019050818103600083015261133981856110ae565b9050818103602083015261134d81846110ae565b90509392505050565b6000602082019050818103600083015261136f8161112e565b9050919050565b6000602082019050818103600083015261138f81611151565b9050919050565b600060408201905081810360008301526113af81611174565b90506113be60208301846111dd565b92915050565b600060208201905081810360008301526113dd81611197565b9050919050565b600060408201905081810360008301526113fd816111ba565b905061140c60208301846111dd565b92915050565b600060208201905061142760008301846111dd565b92915050565b6000611437611448565b90506114438282611658565b919050565b6000604051905090565b600067ffffffffffffffff82111561146d5761146c6117c9565b5b6114768261180c565b9050602081019050919050565b60008190508160005260206000209050919050565b600081519050919050565b600082825260208201905092915050565b60006114bf826115ca565b91506114ca836115ca565b9250827fffffffffffffffffffffffffffffffffffffffffffffffffffffffffffffffff038211156114ff576114fe61170d565b5b828201905092915050565b6000611515826115ca565b9150611520836115ca565b9250817fffffffffffffffffffffffffffffffffffffffffffffffffffffffffffffffff04831182151516156115595761155861170d565b5b828202905092915050565b600061156f826115ca565b915061157a836115ca565b92508282101561158d5761158c61170d565b5b828203905092915050565b60006115a3826115aa565b9050919050565b600073ffffffffffffffffffffffffffffffffffffffff82169050919050565b6000819050919050565b600063ffffffff82169050919050565b82818337600083830152505050565b60005b838110156116115780820151818401526020810190506115f6565b83811115611620576000848401525b50505050565b6000600282049050600182168061163e57607f821691505b602082108114156116525761165161176b565b5b50919050565b6116618261180c565b810181811067ffffffffffffffff821117156116805761167f6117c9565b5b80604052505050565b6000611694826115ca565b91507fffffffffffffffffffffffffffffffffffffffffffffffffffffffffffffffff8214156116c7576116c661170d565b5b600182019050919050565b6000819050919050565b60006116e7826115ca565b91506116f2836115ca565b9250826117025761170161173c565b5b828206905092915050565b7f4e487b7100000000000000000000000000000000000000000000000000000000600052601160045260246000fd5b7f4e487b7100000000000000000000000000000000000000000000000000000000600052601260045260246000fd5b7f4e487b7100000000000000000000000000000000000000000000000000000000600052602260045260246000fd5b7f4e487b7100000000000000000000000000000000000000000000000000000000600052603260045260246000fd5b7f4e487b7100000000000000000000000000000000000000000000000000000000600052604160045260246000fd5b600080fd5b600080fd5b600080fd5b600080fd5b6000601f19601f8301169050919050565b7f536f6c6f2073652070756564652074656e657220756e20636f63686520706f7260008201527f20706572736f6e61000000000000000000000000000000000000000000000000602082015250565b7f4f776e61626c653a206e6577206f776e657220697320746865207a65726f206160008201527f6464726573730000000000000000000000000000000000000000000000000000602082015250565b7f4861732067616e61646f3a200000000000000000000000000000000000000000600082015250565b7f4f776e61626c653a2063616c6c6572206973206e6f7420746865206f776e6572600082015250565b7f456c20636f6368652067616e61646f722065733a200000000000000000000000600082015250565b61193f81611598565b811461194a57600080fd5b50565b611956816115ca565b811461196157600080fd5b5056fea26469706673582212203487fe717392192bf419cd4b851a2d919f6e5145bc263deb04af93640957065864736f6c63430008070033",
					"opcodes": "PUSH1 0x80 PUSH1 0x40 MSTORE PUSH1 0x0 PUSH1 0x1 SSTORE PUSH1 0x0 PUSH1 0x2 SSTORE PUSH1 0x3C PUSH1 0x3 SSTORE PUSH7 0x2386F26FC10000 PUSH1 0x4 SSTORE CALLVALUE DUP1 ISZERO PUSH2 0x2A JUMPI PUSH1 0x0 DUP1 REVERT JUMPDEST POP PUSH2 0x47 PUSH2 0x3C PUSH2 0x4C PUSH1 0x20 SHL PUSH1 0x20 SHR JUMP JUMPDEST PUSH2 0x54 PUSH1 0x20 SHL PUSH1 0x20 SHR JUMP JUMPDEST PUSH2 0x118 JUMP JUMPDEST PUSH1 0x0 CALLER SWAP1 POP SWAP1 JUMP JUMPDEST PUSH1 0x0 DUP1 PUSH1 0x0 SWAP1 SLOAD SWAP1 PUSH2 0x100 EXP SWAP1 DIV PUSH20 0xFFFFFFFFFFFFFFFFFFFFFFFFFFFFFFFFFFFFFFFF AND SWAP1 POP DUP2 PUSH1 0x0 DUP1 PUSH2 0x100 EXP DUP2 SLOAD DUP2 PUSH20 0xFFFFFFFFFFFFFFFFFFFFFFFFFFFFFFFFFFFFFFFF MUL NOT AND SWAP1 DUP4 PUSH20 0xFFFFFFFFFFFFFFFFFFFFFFFFFFFFFFFFFFFFFFFF AND MUL OR SWAP1 SSTORE POP DUP2 PUSH20 0xFFFFFFFFFFFFFFFFFFFFFFFFFFFFFFFFFFFFFFFF AND DUP2 PUSH20 0xFFFFFFFFFFFFFFFFFFFFFFFFFFFFFFFFFFFFFFFF AND PUSH32 0x8BE0079C531659141344CD1FD0A4F28419497F9722A3DAAFE3B4186F6B6457E0 PUSH1 0x40 MLOAD PUSH1 0x40 MLOAD DUP1 SWAP2 SUB SWAP1 LOG3 POP POP JUMP JUMPDEST PUSH2 0x199A DUP1 PUSH2 0x127 PUSH1 0x0 CODECOPY PUSH1 0x0 RETURN INVALID PUSH1 0x80 PUSH1 0x40 MSTORE PUSH1 0x4 CALLDATASIZE LT PUSH2 0x91 JUMPI PUSH1 0x0 CALLDATALOAD PUSH1 0xE0 SHR DUP1 PUSH4 0x858B0554 GT PUSH2 0x59 JUMPI DUP1 PUSH4 0x858B0554 EQ PUSH2 0x173 JUMPI DUP1 PUSH4 0x8DA5CB5B EQ PUSH2 0x1B0 JUMPI DUP1 PUSH4 0xD735573D EQ PUSH2 0x1DB JUMPI DUP1 PUSH4 0xE172FCA8 EQ PUSH2 0x21F JUMPI DUP1 PUSH4 0xF2FDE38B EQ PUSH2 0x248 JUMPI PUSH2 0x91 JUMP JUMPDEST DUP1 PUSH4 0x1C6743E4 EQ PUSH2 0x96 JUMPI DUP1 PUSH4 0x2458C544 EQ PUSH2 0xD3 JUMPI DUP1 PUSH4 0x2D54D647 EQ PUSH2 0x110 JUMPI DUP1 PUSH4 0x6B6F0494 EQ PUSH2 0x12C JUMPI DUP1 PUSH4 0x715018A6 EQ PUSH2 0x15C JUMPI JUMPDEST PUSH1 0x0 DUP1 REVERT JUMPDEST CALLVALUE DUP1 ISZERO PUSH2 0xA2 JUMPI PUSH1 0x0 DUP1 REVERT JUMPDEST POP PUSH2 0xBD PUSH1 0x4 DUP1 CALLDATASIZE SUB DUP2 ADD SWAP1 PUSH2 0xB8 SWAP2 SWAP1 PUSH2 0xF65 JUMP JUMPDEST PUSH2 0x271 JUMP JUMPDEST PUSH1 0x40 MLOAD PUSH2 0xCA SWAP2 SWAP1 PUSH2 0x1412 JUMP JUMPDEST PUSH1 0x40 MLOAD DUP1 SWAP2 SUB SWAP1 RETURN JUMPDEST CALLVALUE DUP1 ISZERO PUSH2 0xDF JUMPI PUSH1 0x0 DUP1 REVERT JUMPDEST POP PUSH2 0xFA PUSH1 0x4 DUP1 CALLDATASIZE SUB DUP2 ADD SWAP1 PUSH2 0xF5 SWAP2 SWAP1 PUSH2 0xF92 JUMP JUMPDEST PUSH2 0x289 JUMP JUMPDEST PUSH1 0x40 MLOAD PUSH2 0x107 SWAP2 SWAP1 PUSH2 0x1412 JUMP JUMPDEST PUSH1 0x40 MLOAD DUP1 SWAP2 SUB SWAP1 RETURN JUMPDEST PUSH2 0x12A PUSH1 0x4 DUP1 CALLDATASIZE SUB DUP2 ADD SWAP1 PUSH2 0x125 SWAP2 SWAP1 PUSH2 0x1039 JUMP JUMPDEST PUSH2 0x56B JUMP JUMPDEST STOP JUMPDEST PUSH2 0x146 PUSH1 0x4 DUP1 CALLDATASIZE SUB DUP2 ADD SWAP1 PUSH2 0x141 SWAP2 SWAP1 PUSH2 0x1039 JUMP JUMPDEST PUSH2 0x57C JUMP JUMPDEST PUSH1 0x40 MLOAD PUSH2 0x153 SWAP2 SWAP1 PUSH2 0x12FD JUMP JUMPDEST PUSH1 0x40 MLOAD DUP1 SWAP2 SUB SWAP1 RETURN JUMPDEST CALLVALUE DUP1 ISZERO PUSH2 0x168 JUMPI PUSH1 0x0 DUP1 REVERT JUMPDEST POP PUSH2 0x171 PUSH2 0x7B8 JUMP JUMPDEST STOP JUMPDEST CALLVALUE DUP1 ISZERO PUSH2 0x17F JUMPI PUSH1 0x0 DUP1 REVERT JUMPDEST POP PUSH2 0x19A PUSH1 0x4 DUP1 CALLDATASIZE SUB DUP2 ADD SWAP1 PUSH2 0x195 SWAP2 SWAP1 PUSH2 0x1039 JUMP JUMPDEST PUSH2 0x840 JUMP JUMPDEST PUSH1 0x40 MLOAD PUSH2 0x1A7 SWAP2 SWAP1 PUSH2 0x124F JUMP JUMPDEST PUSH1 0x40 MLOAD DUP1 SWAP2 SUB SWAP1 RETURN JUMPDEST CALLVALUE DUP1 ISZERO PUSH2 0x1BC JUMPI PUSH1 0x0 DUP1 REVERT JUMPDEST POP PUSH2 0x1C5 PUSH2 0x873 JUMP JUMPDEST PUSH1 0x40 MLOAD PUSH2 0x1D2 SWAP2 SWAP1 PUSH2 0x124F JUMP JUMPDEST PUSH1 0x40 MLOAD DUP1 SWAP2 SUB SWAP1 RETURN JUMPDEST CALLVALUE DUP1 ISZERO PUSH2 0x1E7 JUMPI PUSH1 0x0 DUP1 REVERT JUMPDEST POP PUSH2 0x202 PUSH1 0x4 DUP1 CALLDATASIZE SUB DUP2 ADD SWAP1 PUSH2 0x1FD SWAP2 SWAP1 PUSH2 0x1039 JUMP JUMPDEST PUSH2 0x89C JUMP JUMPDEST PUSH1 0x40 MLOAD PUSH2 0x216 SWAP9 SWAP8 SWAP7 SWAP6 SWAP5 SWAP4 SWAP3 SWAP2 SWAP1 PUSH2 0x126A JUMP JUMPDEST PUSH1 0x40 MLOAD DUP1 SWAP2 SUB SWAP1 RETURN JUMPDEST CALLVALUE DUP1 ISZERO PUSH2 0x22B JUMPI PUSH1 0x0 DUP1 REVERT JUMPDEST POP PUSH2 0x246 PUSH1 0x4 DUP1 CALLDATASIZE SUB DUP2 ADD SWAP1 PUSH2 0x241 SWAP2 SWAP1 PUSH2 0xF65 JUMP JUMPDEST PUSH2 0xABC JUMP JUMPDEST STOP JUMPDEST CALLVALUE DUP1 ISZERO PUSH2 0x254 JUMPI PUSH1 0x0 DUP1 REVERT JUMPDEST POP PUSH2 0x26F PUSH1 0x4 DUP1 CALLDATASIZE SUB DUP2 ADD SWAP1 PUSH2 0x26A SWAP2 SWAP1 PUSH2 0xF65 JUMP JUMPDEST PUSH2 0xBCC JUMP JUMPDEST STOP JUMPDEST PUSH1 0x7 PUSH1 0x20 MSTORE DUP1 PUSH1 0x0 MSTORE PUSH1 0x40 PUSH1 0x0 KECCAK256 PUSH1 0x0 SWAP2 POP SWAP1 POP SLOAD DUP2 JUMP JUMPDEST PUSH1 0x0 PUSH1 0x1 PUSH1 0x7 PUSH1 0x0 CALLER PUSH20 0xFFFFFFFFFFFFFFFFFFFFFFFFFFFFFFFFFFFFFFFF AND PUSH20 0xFFFFFFFFFFFFFFFFFFFFFFFFFFFFFFFFFFFFFFFF AND DUP2 MSTORE PUSH1 0x20 ADD SWAP1 DUP2 MSTORE PUSH1 0x20 ADD PUSH1 0x0 KECCAK256 SLOAD LT PUSH2 0x30D JUMPI PUSH1 0x40 MLOAD PUSH32 0x8C379A000000000000000000000000000000000000000000000000000000000 DUP2 MSTORE PUSH1 0x4 ADD PUSH2 0x304 SWAP1 PUSH2 0x1356 JUMP JUMPDEST PUSH1 0x40 MLOAD DUP1 SWAP2 SUB SWAP1 REVERT JUMPDEST PUSH1 0x5 PUSH1 0x40 MLOAD DUP1 PUSH2 0x100 ADD PUSH1 0x40 MSTORE DUP1 CALLER PUSH20 0xFFFFFFFFFFFFFFFFFFFFFFFFFFFFFFFFFFFFFFFF AND DUP2 MSTORE PUSH1 0x20 ADD DUP7 DUP2 MSTORE PUSH1 0x20 ADD DUP6 DUP2 MSTORE PUSH1 0x20 ADD DUP5 DUP2 MSTORE PUSH1 0x20 ADD PUSH1 0x0 DUP2 MSTORE PUSH1 0x20 ADD PUSH1 0x0 DUP2 MSTORE PUSH1 0x20 ADD PUSH1 0x3 SLOAD TIMESTAMP PUSH2 0x365 SWAP2 SWAP1 PUSH2 0x14B4 JUMP JUMPDEST PUSH4 0xFFFFFFFF AND DUP2 MSTORE PUSH1 0x20 ADD PUSH1 0x0 PUSH4 0xFFFFFFFF AND DUP2 MSTORE POP SWAP1 DUP1 PUSH1 0x1 DUP2 SLOAD ADD DUP1 DUP3 SSTORE DUP1 SWAP2 POP POP PUSH1 0x1 SWAP1 SUB SWAP1 PUSH1 0x0 MSTORE PUSH1 0x20 PUSH1 0x0 KECCAK256 SWAP1 PUSH1 0x8 MUL ADD PUSH1 0x0 SWAP1 SWAP2 SWAP1 SWAP2 SWAP1 SWAP2 POP PUSH1 0x0 DUP3 ADD MLOAD DUP2 PUSH1 0x0 ADD PUSH1 0x0 PUSH2 0x100 EXP DUP2 SLOAD DUP2 PUSH20 0xFFFFFFFFFFFFFFFFFFFFFFFFFFFFFFFFFFFFFFFF MUL NOT AND SWAP1 DUP4 PUSH20 0xFFFFFFFFFFFFFFFFFFFFFFFFFFFFFFFFFFFFFFFF AND MUL OR SWAP1 SSTORE POP PUSH1 0x20 DUP3 ADD MLOAD DUP2 PUSH1 0x1 ADD SWAP1 DUP1 MLOAD SWAP1 PUSH1 0x20 ADD SWAP1 PUSH2 0x407 SWAP3 SWAP2 SWAP1 PUSH2 0xE28 JUMP JUMPDEST POP PUSH1 0x40 DUP3 ADD MLOAD DUP2 PUSH1 0x2 ADD SWAP1 DUP1 MLOAD SWAP1 PUSH1 0x20 ADD SWAP1 PUSH2 0x424 SWAP3 SWAP2 SWAP1 PUSH2 0xE28 JUMP JUMPDEST POP PUSH1 0x60 DUP3 ADD MLOAD DUP2 PUSH1 0x3 ADD SWAP1 DUP1 MLOAD SWAP1 PUSH1 0x20 ADD SWAP1 PUSH2 0x441 SWAP3 SWAP2 SWAP1 PUSH2 0xE28 JUMP JUMPDEST POP PUSH1 0x80 DUP3 ADD MLOAD DUP2 PUSH1 0x4 ADD SSTORE PUSH1 0xA0 DUP3 ADD MLOAD DUP2 PUSH1 0x5 ADD SSTORE PUSH1 0xC0 DUP3 ADD MLOAD DUP2 PUSH1 0x6 ADD SSTORE PUSH1 0xE0 DUP3 ADD MLOAD DUP2 PUSH1 0x7 ADD PUSH1 0x0 PUSH2 0x100 EXP DUP2 SLOAD DUP2 PUSH4 0xFFFFFFFF MUL NOT AND SWAP1 DUP4 PUSH4 0xFFFFFFFF AND MUL OR SWAP1 SSTORE POP POP POP PUSH1 0x0 PUSH1 0x5 DUP1 SLOAD SWAP1 POP SWAP1 POP CALLER PUSH1 0x6 PUSH1 0x0 DUP4 DUP2 MSTORE PUSH1 0x20 ADD SWAP1 DUP2 MSTORE PUSH1 0x20 ADD PUSH1 0x0 KECCAK256 PUSH1 0x0 PUSH2 0x100 EXP DUP2 SLOAD DUP2 PUSH20 0xFFFFFFFFFFFFFFFFFFFFFFFFFFFFFFFFFFFFFFFF MUL NOT AND SWAP1 DUP4 PUSH20 0xFFFFFFFFFFFFFFFFFFFFFFFFFFFFFFFFFFFFFFFF AND MUL OR SWAP1 SSTORE POP PUSH1 0x7 PUSH1 0x0 CALLER PUSH20 0xFFFFFFFFFFFFFFFFFFFFFFFFFFFFFFFFFFFFFFFF AND PUSH20 0xFFFFFFFFFFFFFFFFFFFFFFFFFFFFFFFFFFFFFFFF AND DUP2 MSTORE PUSH1 0x20 ADD SWAP1 DUP2 MSTORE PUSH1 0x20 ADD PUSH1 0x0 KECCAK256 PUSH1 0x0 DUP2 SLOAD DUP1 SWAP3 SWAP2 SWAP1 PUSH2 0x535 SWAP1 PUSH2 0x1689 JUMP JUMPDEST SWAP2 SWAP1 POP SSTORE POP PUSH1 0x2 PUSH1 0x0 DUP2 SLOAD DUP1 SWAP3 SWAP2 SWAP1 PUSH2 0x54D SWAP1 PUSH2 0x1689 JUMP JUMPDEST SWAP2 SWAP1 POP SSTORE POP PUSH1 0x1 PUSH1 0x2 SLOAD PUSH2 0x561 SWAP2 SWAP1 PUSH2 0x1564 JUMP JUMPDEST SWAP2 POP POP SWAP4 SWAP3 POP POP POP JUMP JUMPDEST PUSH1 0x4 SLOAD CALLVALUE EQ PUSH2 0x579 JUMPI PUSH1 0x0 DUP1 REVERT JUMPDEST POP JUMP JUMPDEST PUSH1 0x60 DUP2 CALLVALUE EQ PUSH2 0x58A JUMPI PUSH1 0x0 DUP1 REVERT JUMPDEST PUSH1 0x1 PUSH1 0x0 DUP2 SLOAD DUP1 SWAP3 SWAP2 SWAP1 PUSH2 0x59D SWAP1 PUSH2 0x1689 JUMP JUMPDEST SWAP2 SWAP1 POP SSTORE POP PUSH1 0x0 PUSH1 0x5 DUP1 SLOAD SWAP1 POP TIMESTAMP PUSH1 0x5 DUP1 SLOAD SWAP1 POP PUSH1 0x1 SLOAD PUSH1 0x40 MLOAD PUSH1 0x20 ADD PUSH2 0x5C6 SWAP4 SWAP3 SWAP2 SWAP1 PUSH2 0x1212 JUMP JUMPDEST PUSH1 0x40 MLOAD PUSH1 0x20 DUP2 DUP4 SUB SUB DUP2 MSTORE SWAP1 PUSH1 0x40 MSTORE DUP1 MLOAD SWAP1 PUSH1 0x20 ADD KECCAK256 PUSH1 0x0 SHR PUSH2 0x5E9 SWAP2 SWAP1 PUSH2 0x16DC JUMP JUMPDEST SWAP1 POP PUSH1 0x1 PUSH1 0x0 DUP2 SLOAD DUP1 SWAP3 SWAP2 SWAP1 PUSH2 0x5FE SWAP1 PUSH2 0x1689 JUMP JUMPDEST SWAP2 SWAP1 POP SSTORE POP PUSH1 0x0 PUSH1 0x2 SWAP1 POP PUSH1 0x0 DUP2 TIMESTAMP DUP4 PUSH1 0x1 SLOAD PUSH1 0x40 MLOAD PUSH1 0x20 ADD PUSH2 0x623 SWAP4 SWAP3 SWAP2 SWAP1 PUSH2 0x1212 JUMP JUMPDEST PUSH1 0x40 MLOAD PUSH1 0x20 DUP2 DUP4 SUB SUB DUP2 MSTORE SWAP1 PUSH1 0x40 MSTORE DUP1 MLOAD SWAP1 PUSH1 0x20 ADD KECCAK256 PUSH1 0x0 SHR PUSH2 0x646 SWAP2 SWAP1 PUSH2 0x16DC JUMP JUMPDEST SWAP1 POP PUSH1 0x0 JUMPDEST PUSH1 0x5 DUP1 SLOAD SWAP1 POP DUP2 LT ISZERO PUSH2 0x7AE JUMPI PUSH1 0x5 DUP2 DUP2 SLOAD DUP2 LT PUSH2 0x66C JUMPI PUSH2 0x66B PUSH2 0x179A JUMP JUMPDEST JUMPDEST SWAP1 PUSH1 0x0 MSTORE PUSH1 0x20 PUSH1 0x0 KECCAK256 SWAP1 PUSH1 0x8 MUL ADD PUSH1 0x0 ADD PUSH1 0x0 SWAP1 SLOAD SWAP1 PUSH2 0x100 EXP SWAP1 DIV PUSH20 0xFFFFFFFFFFFFFFFFFFFFFFFFFFFFFFFFFFFFFFFF AND PUSH20 0xFFFFFFFFFFFFFFFFFFFFFFFFFFFFFFFFFFFFFFFF AND CALLER PUSH20 0xFFFFFFFFFFFFFFFFFFFFFFFFFFFFFFFFFFFFFFFF AND EQ ISZERO PUSH2 0x79B JUMPI PUSH1 0x0 DUP3 EQ ISZERO PUSH2 0x723 JUMPI PUSH2 0x6E2 PUSH2 0xCC4 JUMP JUMPDEST PUSH1 0x40 MLOAD DUP1 PUSH1 0x40 ADD PUSH1 0x40 MSTORE DUP1 PUSH1 0xA DUP2 MSTORE PUSH1 0x20 ADD PUSH32 0x4861732067616E61646F00000000000000000000000000000000000000000000 DUP2 MSTORE POP SWAP5 POP POP POP POP POP PUSH2 0x7B3 JUMP JUMPDEST PUSH32 0xA28482EEC3136A2461C6C30C08F71BA279C6C51A2D9C7BEA4E50D6D2632F3896 DUP5 PUSH1 0x40 MLOAD PUSH2 0x752 SWAP2 SWAP1 PUSH2 0x13E4 JUMP JUMPDEST PUSH1 0x40 MLOAD DUP1 SWAP2 SUB SWAP1 LOG1 PUSH1 0x40 MLOAD DUP1 PUSH1 0x40 ADD PUSH1 0x40 MSTORE DUP1 PUSH1 0xB DUP2 MSTORE PUSH1 0x20 ADD PUSH32 0x486173207065726469646F000000000000000000000000000000000000000000 DUP2 MSTORE POP SWAP5 POP POP POP POP POP PUSH2 0x7B3 JUMP JUMPDEST DUP1 DUP1 PUSH2 0x7A6 SWAP1 PUSH2 0x1689 JUMP JUMPDEST SWAP2 POP POP PUSH2 0x64B JUMP JUMPDEST POP POP POP POP JUMPDEST SWAP2 SWAP1 POP JUMP JUMPDEST PUSH2 0x7C0 PUSH2 0xD5C JUMP JUMPDEST PUSH20 0xFFFFFFFFFFFFFFFFFFFFFFFFFFFFFFFFFFFFFFFF AND PUSH2 0x7DE PUSH2 0x873 JUMP JUMPDEST PUSH20 0xFFFFFFFFFFFFFFFFFFFFFFFFFFFFFFFFFFFFFFFF AND EQ PUSH2 0x834 JUMPI PUSH1 0x40 MLOAD PUSH32 0x8C379A000000000000000000000000000000000000000000000000000000000 DUP2 MSTORE PUSH1 0x4 ADD PUSH2 0x82B SWAP1 PUSH2 0x13C4 JUMP JUMPDEST PUSH1 0x40 MLOAD DUP1 SWAP2 SUB SWAP1 REVERT JUMPDEST PUSH2 0x83E PUSH1 0x0 PUSH2 0xD64 JUMP JUMPDEST JUMP JUMPDEST PUSH1 0x6 PUSH1 0x20 MSTORE DUP1 PUSH1 0x0 MSTORE PUSH1 0x40 PUSH1 0x0 KECCAK256 PUSH1 0x0 SWAP2 POP SLOAD SWAP1 PUSH2 0x100 EXP SWAP1 DIV PUSH20 0xFFFFFFFFFFFFFFFFFFFFFFFFFFFFFFFFFFFFFFFF AND DUP2 JUMP JUMPDEST PUSH1 0x0 DUP1 PUSH1 0x0 SWAP1 SLOAD SWAP1 PUSH2 0x100 EXP SWAP1 DIV PUSH20 0xFFFFFFFFFFFFFFFFFFFFFFFFFFFFFFFFFFFFFFFF AND SWAP1 POP SWAP1 JUMP JUMPDEST PUSH1 0x5 DUP2 DUP2 SLOAD DUP2 LT PUSH2 0x8AC JUMPI PUSH1 0x0 DUP1 REVERT JUMPDEST SWAP1 PUSH1 0x0 MSTORE PUSH1 0x20 PUSH1 0x0 KECCAK256 SWAP1 PUSH1 0x8 MUL ADD PUSH1 0x0 SWAP2 POP SWAP1 POP DUP1 PUSH1 0x0 ADD PUSH1 0x0 SWAP1 SLOAD SWAP1 PUSH2 0x100 EXP SWAP1 DIV PUSH20 0xFFFFFFFFFFFFFFFFFFFFFFFFFFFFFFFFFFFFFFFF AND SWAP1 DUP1 PUSH1 0x1 ADD DUP1 SLOAD PUSH2 0x8F5 SWAP1 PUSH2 0x1626 JUMP JUMPDEST DUP1 PUSH1 0x1F ADD PUSH1 0x20 DUP1 SWAP2 DIV MUL PUSH1 0x20 ADD PUSH1 0x40 MLOAD SWAP1 DUP2 ADD PUSH1 0x40 MSTORE DUP1 SWAP3 SWAP2 SWAP1 DUP2 DUP2 MSTORE PUSH1 0x20 ADD DUP3 DUP1 SLOAD PUSH2 0x921 SWAP1 PUSH2 0x1626 JUMP JUMPDEST DUP1 ISZERO PUSH2 0x96E JUMPI DUP1 PUSH1 0x1F LT PUSH2 0x943 JUMPI PUSH2 0x100 DUP1 DUP4 SLOAD DIV MUL DUP4 MSTORE SWAP2 PUSH1 0x20 ADD SWAP2 PUSH2 0x96E JUMP JUMPDEST DUP3 ADD SWAP2 SWAP1 PUSH1 0x0 MSTORE PUSH1 0x20 PUSH1 0x0 KECCAK256 SWAP1 JUMPDEST DUP2 SLOAD DUP2 MSTORE SWAP1 PUSH1 0x1 ADD SWAP1 PUSH1 0x20 ADD DUP1 DUP4 GT PUSH2 0x951 JUMPI DUP3 SWAP1 SUB PUSH1 0x1F AND DUP3 ADD SWAP2 JUMPDEST POP POP POP POP POP SWAP1 DUP1 PUSH1 0x2 ADD DUP1 SLOAD PUSH2 0x983 SWAP1 PUSH2 0x1626 JUMP JUMPDEST DUP1 PUSH1 0x1F ADD PUSH1 0x20 DUP1 SWAP2 DIV MUL PUSH1 0x20 ADD PUSH1 0x40 MLOAD SWAP1 DUP2 ADD PUSH1 0x40 MSTORE DUP1 SWAP3 SWAP2 SWAP1 DUP2 DUP2 MSTORE PUSH1 0x20 ADD DUP3 DUP1 SLOAD PUSH2 0x9AF SWAP1 PUSH2 0x1626 JUMP JUMPDEST DUP1 ISZERO PUSH2 0x9FC JUMPI DUP1 PUSH1 0x1F LT PUSH2 0x9D1 JUMPI PUSH2 0x100 DUP1 DUP4 SLOAD DIV MUL DUP4 MSTORE SWAP2 PUSH1 0x20 ADD SWAP2 PUSH2 0x9FC JUMP JUMPDEST DUP3 ADD SWAP2 SWAP1 PUSH1 0x0 MSTORE PUSH1 0x20 PUSH1 0x0 KECCAK256 SWAP1 JUMPDEST DUP2 SLOAD DUP2 MSTORE SWAP1 PUSH1 0x1 ADD SWAP1 PUSH1 0x20 ADD DUP1 DUP4 GT PUSH2 0x9DF JUMPI DUP3 SWAP1 SUB PUSH1 0x1F AND DUP3 ADD SWAP2 JUMPDEST POP POP POP POP POP SWAP1 DUP1 PUSH1 0x3 ADD DUP1 SLOAD PUSH2 0xA11 SWAP1 PUSH2 0x1626 JUMP JUMPDEST DUP1 PUSH1 0x1F ADD PUSH1 0x20 DUP1 SWAP2 DIV MUL PUSH1 0x20 ADD PUSH1 0x40 MLOAD SWAP1 DUP2 ADD PUSH1 0x40 MSTORE DUP1 SWAP3 SWAP2 SWAP1 DUP2 DUP2 MSTORE PUSH1 0x20 ADD DUP3 DUP1 SLOAD PUSH2 0xA3D SWAP1 PUSH2 0x1626 JUMP JUMPDEST DUP1 ISZERO PUSH2 0xA8A JUMPI DUP1 PUSH1 0x1F LT PUSH2 0xA5F JUMPI PUSH2 0x100 DUP1 DUP4 SLOAD DIV MUL DUP4 MSTORE SWAP2 PUSH1 0x20 ADD SWAP2 PUSH2 0xA8A JUMP JUMPDEST DUP3 ADD SWAP2 SWAP1 PUSH1 0x0 MSTORE PUSH1 0x20 PUSH1 0x0 KECCAK256 SWAP1 JUMPDEST DUP2 SLOAD DUP2 MSTORE SWAP1 PUSH1 0x1 ADD SWAP1 PUSH1 0x20 ADD DUP1 DUP4 GT PUSH2 0xA6D JUMPI DUP3 SWAP1 SUB PUSH1 0x1F AND DUP3 ADD SWAP2 JUMPDEST POP POP POP POP POP SWAP1 DUP1 PUSH1 0x4 ADD SLOAD SWAP1 DUP1 PUSH1 0x5 ADD SLOAD SWAP1 DUP1 PUSH1 0x6 ADD SLOAD SWAP1 DUP1 PUSH1 0x7 ADD PUSH1 0x0 SWAP1 SLOAD SWAP1 PUSH2 0x100 EXP SWAP1 DIV PUSH4 0xFFFFFFFF AND SWAP1 POP DUP9 JUMP JUMPDEST PUSH1 0x0 JUMPDEST PUSH1 0x5 DUP1 SLOAD SWAP1 POP DUP2 LT ISZERO PUSH2 0xBC8 JUMPI DUP2 PUSH20 0xFFFFFFFFFFFFFFFFFFFFFFFFFFFFFFFFFFFFFFFF AND PUSH1 0x6 PUSH1 0x0 DUP4 DUP2 MSTORE PUSH1 0x20 ADD SWAP1 DUP2 MSTORE PUSH1 0x20 ADD PUSH1 0x0 KECCAK256 PUSH1 0x0 SWAP1 SLOAD SWAP1 PUSH2 0x100 EXP SWAP1 DIV PUSH20 0xFFFFFFFFFFFFFFFFFFFFFFFFFFFFFFFFFFFFFFFF AND PUSH20 0xFFFFFFFFFFFFFFFFFFFFFFFFFFFFFFFFFFFFFFFF AND EQ ISZERO PUSH2 0xBB5 JUMPI PUSH32 0x96408510F58A52B0CFE536E046B25664FA36D8122620EC608C1767B45AA4F03C PUSH1 0x5 DUP3 DUP2 SLOAD DUP2 LT PUSH2 0xB68 JUMPI PUSH2 0xB67 PUSH2 0x179A JUMP JUMPDEST JUMPDEST SWAP1 PUSH1 0x0 MSTORE PUSH1 0x20 PUSH1 0x0 KECCAK256 SWAP1 PUSH1 0x8 MUL ADD PUSH1 0x2 ADD PUSH1 0x5 DUP4 DUP2 SLOAD DUP2 LT PUSH2 0xB8D JUMPI PUSH2 0xB8C PUSH2 0x179A JUMP JUMPDEST JUMPDEST SWAP1 PUSH1 0x0 MSTORE PUSH1 0x20 PUSH1 0x0 KECCAK256 SWAP1 PUSH1 0x8 MUL ADD PUSH1 0x1 ADD PUSH1 0x40 MLOAD PUSH2 0xBAC SWAP3 SWAP2 SWAP1 PUSH2 0x131F JUMP JUMPDEST PUSH1 0x40 MLOAD DUP1 SWAP2 SUB SWAP1 LOG1 JUMPDEST DUP1 DUP1 PUSH2 0xBC0 SWAP1 PUSH2 0x1689 JUMP JUMPDEST SWAP2 POP POP PUSH2 0xABF JUMP JUMPDEST POP POP JUMP JUMPDEST PUSH2 0xBD4 PUSH2 0xD5C JUMP JUMPDEST PUSH20 0xFFFFFFFFFFFFFFFFFFFFFFFFFFFFFFFFFFFFFFFF AND PUSH2 0xBF2 PUSH2 0x873 JUMP JUMPDEST PUSH20 0xFFFFFFFFFFFFFFFFFFFFFFFFFFFFFFFFFFFFFFFF AND EQ PUSH2 0xC48 JUMPI PUSH1 0x40 MLOAD PUSH32 0x8C379A000000000000000000000000000000000000000000000000000000000 DUP2 MSTORE PUSH1 0x4 ADD PUSH2 0xC3F SWAP1 PUSH2 0x13C4 JUMP JUMPDEST PUSH1 0x40 MLOAD DUP1 SWAP2 SUB SWAP1 REVERT JUMPDEST PUSH1 0x0 PUSH20 0xFFFFFFFFFFFFFFFFFFFFFFFFFFFFFFFFFFFFFFFF AND DUP2 PUSH20 0xFFFFFFFFFFFFFFFFFFFFFFFFFFFFFFFFFFFFFFFF AND EQ ISZERO PUSH2 0xCB8 JUMPI PUSH1 0x40 MLOAD PUSH32 0x8C379A000000000000000000000000000000000000000000000000000000000 DUP2 MSTORE PUSH1 0x4 ADD PUSH2 0xCAF SWAP1 PUSH2 0x1376 JUMP JUMPDEST PUSH1 0x40 MLOAD DUP1 SWAP2 SUB SWAP1 REVERT JUMPDEST PUSH2 0xCC1 DUP2 PUSH2 0xD64 JUMP JUMPDEST POP JUMP JUMPDEST CALLER PUSH20 0xFFFFFFFFFFFFFFFFFFFFFFFFFFFFFFFFFFFFFFFF AND PUSH2 0x8FC PUSH1 0x2 SELFBALANCE PUSH2 0xCEB SWAP2 SWAP1 PUSH2 0x150A JUMP JUMPDEST SWAP1 DUP2 ISZERO MUL SWAP1 PUSH1 0x40 MLOAD PUSH1 0x0 PUSH1 0x40 MLOAD DUP1 DUP4 SUB DUP2 DUP6 DUP9 DUP9 CALL SWAP4 POP POP POP POP ISZERO DUP1 ISZERO PUSH2 0xD16 JUMPI RETURNDATASIZE PUSH1 0x0 DUP1 RETURNDATACOPY RETURNDATASIZE PUSH1 0x0 REVERT JUMPDEST POP PUSH32 0xA28482EEC3136A2461C6C30C08F71BA279C6C51A2D9C7BEA4E50D6D2632F3896 PUSH1 0x2 SELFBALANCE PUSH2 0xD45 SWAP2 SWAP1 PUSH2 0x150A JUMP JUMPDEST PUSH1 0x40 MLOAD PUSH2 0xD52 SWAP2 SWAP1 PUSH2 0x1396 JUMP JUMPDEST PUSH1 0x40 MLOAD DUP1 SWAP2 SUB SWAP1 LOG1 JUMP JUMPDEST PUSH1 0x0 CALLER SWAP1 POP SWAP1 JUMP JUMPDEST PUSH1 0x0 DUP1 PUSH1 0x0 SWAP1 SLOAD SWAP1 PUSH2 0x100 EXP SWAP1 DIV PUSH20 0xFFFFFFFFFFFFFFFFFFFFFFFFFFFFFFFFFFFFFFFF AND SWAP1 POP DUP2 PUSH1 0x0 DUP1 PUSH2 0x100 EXP DUP2 SLOAD DUP2 PUSH20 0xFFFFFFFFFFFFFFFFFFFFFFFFFFFFFFFFFFFFFFFF MUL NOT AND SWAP1 DUP4 PUSH20 0xFFFFFFFFFFFFFFFFFFFFFFFFFFFFFFFFFFFFFFFF AND MUL OR SWAP1 SSTORE POP DUP2 PUSH20 0xFFFFFFFFFFFFFFFFFFFFFFFFFFFFFFFFFFFFFFFF AND DUP2 PUSH20 0xFFFFFFFFFFFFFFFFFFFFFFFFFFFFFFFFFFFFFFFF AND PUSH32 0x8BE0079C531659141344CD1FD0A4F28419497F9722A3DAAFE3B4186F6B6457E0 PUSH1 0x40 MLOAD PUSH1 0x40 MLOAD DUP1 SWAP2 SUB SWAP1 LOG3 POP POP JUMP JUMPDEST DUP3 DUP1 SLOAD PUSH2 0xE34 SWAP1 PUSH2 0x1626 JUMP JUMPDEST SWAP1 PUSH1 0x0 MSTORE PUSH1 0x20 PUSH1 0x0 KECCAK256 SWAP1 PUSH1 0x1F ADD PUSH1 0x20 SWAP1 DIV DUP2 ADD SWAP3 DUP3 PUSH2 0xE56 JUMPI PUSH1 0x0 DUP6 SSTORE PUSH2 0xE9D JUMP JUMPDEST DUP3 PUSH1 0x1F LT PUSH2 0xE6F JUMPI DUP1 MLOAD PUSH1 0xFF NOT AND DUP4 DUP1 ADD OR DUP6 SSTORE PUSH2 0xE9D JUMP JUMPDEST DUP3 DUP1 ADD PUSH1 0x1 ADD DUP6 SSTORE DUP3 ISZERO PUSH2 0xE9D JUMPI SWAP2 DUP3 ADD JUMPDEST DUP3 DUP2 GT ISZERO PUSH2 0xE9C JUMPI DUP3 MLOAD DUP3 SSTORE SWAP2 PUSH1 0x20 ADD SWAP2 SWAP1 PUSH1 0x1 ADD SWAP1 PUSH2 0xE81 JUMP JUMPDEST JUMPDEST POP SWAP1 POP PUSH2 0xEAA SWAP2 SWAP1 PUSH2 0xEAE JUMP JUMPDEST POP SWAP1 JUMP JUMPDEST JUMPDEST DUP1 DUP3 GT ISZERO PUSH2 0xEC7 JUMPI PUSH1 0x0 DUP2 PUSH1 0x0 SWAP1 SSTORE POP PUSH1 0x1 ADD PUSH2 0xEAF JUMP JUMPDEST POP SWAP1 JUMP JUMPDEST PUSH1 0x0 PUSH2 0xEDE PUSH2 0xED9 DUP5 PUSH2 0x1452 JUMP JUMPDEST PUSH2 0x142D JUMP JUMPDEST SWAP1 POP DUP3 DUP2 MSTORE PUSH1 0x20 DUP2 ADD DUP5 DUP5 DUP5 ADD GT ISZERO PUSH2 0xEFA JUMPI PUSH2 0xEF9 PUSH2 0x17FD JUMP JUMPDEST JUMPDEST PUSH2 0xF05 DUP5 DUP3 DUP6 PUSH2 0x15E4 JUMP JUMPDEST POP SWAP4 SWAP3 POP POP POP JUMP JUMPDEST PUSH1 0x0 DUP2 CALLDATALOAD SWAP1 POP PUSH2 0xF1C DUP2 PUSH2 0x1936 JUMP JUMPDEST SWAP3 SWAP2 POP POP JUMP JUMPDEST PUSH1 0x0 DUP3 PUSH1 0x1F DUP4 ADD SLT PUSH2 0xF37 JUMPI PUSH2 0xF36 PUSH2 0x17F8 JUMP JUMPDEST JUMPDEST DUP2 CALLDATALOAD PUSH2 0xF47 DUP5 DUP3 PUSH1 0x20 DUP7 ADD PUSH2 0xECB JUMP JUMPDEST SWAP2 POP POP SWAP3 SWAP2 POP POP JUMP JUMPDEST PUSH1 0x0 DUP2 CALLDATALOAD SWAP1 POP PUSH2 0xF5F DUP2 PUSH2 0x194D JUMP JUMPDEST SWAP3 SWAP2 POP POP JUMP JUMPDEST PUSH1 0x0 PUSH1 0x20 DUP3 DUP5 SUB SLT ISZERO PUSH2 0xF7B JUMPI PUSH2 0xF7A PUSH2 0x1807 JUMP JUMPDEST JUMPDEST PUSH1 0x0 PUSH2 0xF89 DUP5 DUP3 DUP6 ADD PUSH2 0xF0D JUMP JUMPDEST SWAP2 POP POP SWAP3 SWAP2 POP POP JUMP JUMPDEST PUSH1 0x0 DUP1 PUSH1 0x0 PUSH1 0x60 DUP5 DUP7 SUB SLT ISZERO PUSH2 0xFAB JUMPI PUSH2 0xFAA PUSH2 0x1807 JUMP JUMPDEST JUMPDEST PUSH1 0x0 DUP5 ADD CALLDATALOAD PUSH8 0xFFFFFFFFFFFFFFFF DUP2 GT ISZERO PUSH2 0xFC9 JUMPI PUSH2 0xFC8 PUSH2 0x1802 JUMP JUMPDEST JUMPDEST PUSH2 0xFD5 DUP7 DUP3 DUP8 ADD PUSH2 0xF22 JUMP JUMPDEST SWAP4 POP POP PUSH1 0x20 DUP5 ADD CALLDATALOAD PUSH8 0xFFFFFFFFFFFFFFFF DUP2 GT ISZERO PUSH2 0xFF6 JUMPI PUSH2 0xFF5 PUSH2 0x1802 JUMP JUMPDEST JUMPDEST PUSH2 0x1002 DUP7 DUP3 DUP8 ADD PUSH2 0xF22 JUMP JUMPDEST SWAP3 POP POP PUSH1 0x40 DUP5 ADD CALLDATALOAD PUSH8 0xFFFFFFFFFFFFFFFF DUP2 GT ISZERO PUSH2 0x1023 JUMPI PUSH2 0x1022 PUSH2 0x1802 JUMP JUMPDEST JUMPDEST PUSH2 0x102F DUP7 DUP3 DUP8 ADD PUSH2 0xF22 JUMP JUMPDEST SWAP2 POP POP SWAP3 POP SWAP3 POP SWAP3 JUMP JUMPDEST PUSH1 0x0 PUSH1 0x20 DUP3 DUP5 SUB SLT ISZERO PUSH2 0x104F JUMPI PUSH2 0x104E PUSH2 0x1807 JUMP JUMPDEST JUMPDEST PUSH1 0x0 PUSH2 0x105D DUP5 DUP3 DUP6 ADD PUSH2 0xF50 JUMP JUMPDEST SWAP2 POP POP SWAP3 SWAP2 POP POP JUMP JUMPDEST PUSH2 0x106F DUP2 PUSH2 0x1598 JUMP JUMPDEST DUP3 MSTORE POP POP JUMP JUMPDEST PUSH1 0x0 PUSH2 0x1080 DUP3 PUSH2 0x1498 JUMP JUMPDEST PUSH2 0x108A DUP2 DUP6 PUSH2 0x14A3 JUMP JUMPDEST SWAP4 POP PUSH2 0x109A DUP2 DUP6 PUSH1 0x20 DUP7 ADD PUSH2 0x15F3 JUMP JUMPDEST PUSH2 0x10A3 DUP2 PUSH2 0x180C JUMP JUMPDEST DUP5 ADD SWAP2 POP POP SWAP3 SWAP2 POP POP JUMP JUMPDEST PUSH1 0x0 DUP2 SLOAD PUSH2 0x10BB DUP2 PUSH2 0x1626 JUMP JUMPDEST PUSH2 0x10C5 DUP2 DUP7 PUSH2 0x14A3 JUMP JUMPDEST SWAP5 POP PUSH1 0x1 DUP3 AND PUSH1 0x0 DUP2 EQ PUSH2 0x10E0 JUMPI PUSH1 0x1 DUP2 EQ PUSH2 0x10F2 JUMPI PUSH2 0x1125 JUMP JUMPDEST PUSH1 0xFF NOT DUP4 AND DUP7 MSTORE PUSH1 0x20 DUP7 ADD SWAP4 POP PUSH2 0x1125 JUMP JUMPDEST PUSH2 0x10FB DUP6 PUSH2 0x1483 JUMP JUMPDEST PUSH1 0x0 JUMPDEST DUP4 DUP2 LT ISZERO PUSH2 0x111D JUMPI DUP2 SLOAD DUP2 DUP10 ADD MSTORE PUSH1 0x1 DUP3 ADD SWAP2 POP PUSH1 0x20 DUP2 ADD SWAP1 POP PUSH2 0x10FE JUMP JUMPDEST DUP1 DUP9 ADD SWAP6 POP POP POP JUMPDEST POP POP POP SWAP3 SWAP2 POP POP JUMP JUMPDEST PUSH1 0x0 PUSH2 0x113B PUSH1 0x28 DUP4 PUSH2 0x14A3 JUMP JUMPDEST SWAP2 POP PUSH2 0x1146 DUP3 PUSH2 0x181D JUMP JUMPDEST PUSH1 0x40 DUP3 ADD SWAP1 POP SWAP2 SWAP1 POP JUMP JUMPDEST PUSH1 0x0 PUSH2 0x115E PUSH1 0x26 DUP4 PUSH2 0x14A3 JUMP JUMPDEST SWAP2 POP PUSH2 0x1169 DUP3 PUSH2 0x186C JUMP JUMPDEST PUSH1 0x40 DUP3 ADD SWAP1 POP SWAP2 SWAP1 POP JUMP JUMPDEST PUSH1 0x0 PUSH2 0x1181 PUSH1 0xC DUP4 PUSH2 0x14A3 JUMP JUMPDEST SWAP2 POP PUSH2 0x118C DUP3 PUSH2 0x18BB JUMP JUMPDEST PUSH1 0x20 DUP3 ADD SWAP1 POP SWAP2 SWAP1 POP JUMP JUMPDEST PUSH1 0x0 PUSH2 0x11A4 PUSH1 0x20 DUP4 PUSH2 0x14A3 JUMP JUMPDEST SWAP2 POP PUSH2 0x11AF DUP3 PUSH2 0x18E4 JUMP JUMPDEST PUSH1 0x20 DUP3 ADD SWAP1 POP SWAP2 SWAP1 POP JUMP JUMPDEST PUSH1 0x0 PUSH2 0x11C7 PUSH1 0x15 DUP4 PUSH2 0x14A3 JUMP JUMPDEST SWAP2 POP PUSH2 0x11D2 DUP3 PUSH2 0x190D JUMP JUMPDEST PUSH1 0x20 DUP3 ADD SWAP1 POP SWAP2 SWAP1 POP JUMP JUMPDEST PUSH2 0x11E6 DUP2 PUSH2 0x15CA JUMP JUMPDEST DUP3 MSTORE POP POP JUMP JUMPDEST PUSH2 0x11FD PUSH2 0x11F8 DUP3 PUSH2 0x15CA JUMP JUMPDEST PUSH2 0x16D2 JUMP JUMPDEST DUP3 MSTORE POP POP JUMP JUMPDEST PUSH2 0x120C DUP2 PUSH2 0x15D4 JUMP JUMPDEST DUP3 MSTORE POP POP JUMP JUMPDEST PUSH1 0x0 PUSH2 0x121E DUP3 DUP7 PUSH2 0x11EC JUMP JUMPDEST PUSH1 0x20 DUP3 ADD SWAP2 POP PUSH2 0x122E DUP3 DUP6 PUSH2 0x11EC JUMP JUMPDEST PUSH1 0x20 DUP3 ADD SWAP2 POP PUSH2 0x123E DUP3 DUP5 PUSH2 0x11EC JUMP JUMPDEST PUSH1 0x20 DUP3 ADD SWAP2 POP DUP2 SWAP1 POP SWAP5 SWAP4 POP POP POP POP JUMP JUMPDEST PUSH1 0x0 PUSH1 0x20 DUP3 ADD SWAP1 POP PUSH2 0x1264 PUSH1 0x0 DUP4 ADD DUP5 PUSH2 0x1066 JUMP JUMPDEST SWAP3 SWAP2 POP POP JUMP JUMPDEST PUSH1 0x0 PUSH2 0x100 DUP3 ADD SWAP1 POP PUSH2 0x1280 PUSH1 0x0 DUP4 ADD DUP12 PUSH2 0x1066 JUMP JUMPDEST DUP2 DUP2 SUB PUSH1 0x20 DUP4 ADD MSTORE PUSH2 0x1292 DUP2 DUP11 PUSH2 0x1075 JUMP JUMPDEST SWAP1 POP DUP2 DUP2 SUB PUSH1 0x40 DUP4 ADD MSTORE PUSH2 0x12A6 DUP2 DUP10 PUSH2 0x1075 JUMP JUMPDEST SWAP1 POP DUP2 DUP2 SUB PUSH1 0x60 DUP4 ADD MSTORE PUSH2 0x12BA DUP2 DUP9 PUSH2 0x1075 JUMP JUMPDEST SWAP1 POP PUSH2 0x12C9 PUSH1 0x80 DUP4 ADD DUP8 PUSH2 0x11DD JUMP JUMPDEST PUSH2 0x12D6 PUSH1 0xA0 DUP4 ADD DUP7 PUSH2 0x11DD JUMP JUMPDEST PUSH2 0x12E3 PUSH1 0xC0 DUP4 ADD DUP6 PUSH2 0x11DD JUMP JUMPDEST PUSH2 0x12F0 PUSH1 0xE0 DUP4 ADD DUP5 PUSH2 0x1203 JUMP JUMPDEST SWAP10 SWAP9 POP POP POP POP POP POP POP POP POP JUMP JUMPDEST PUSH1 0x0 PUSH1 0x20 DUP3 ADD SWAP1 POP DUP2 DUP2 SUB PUSH1 0x0 DUP4 ADD MSTORE PUSH2 0x1317 DUP2 DUP5 PUSH2 0x1075 JUMP JUMPDEST SWAP1 POP SWAP3 SWAP2 POP POP JUMP JUMPDEST PUSH1 0x0 PUSH1 0x40 DUP3 ADD SWAP1 POP DUP2 DUP2 SUB PUSH1 0x0 DUP4 ADD MSTORE PUSH2 0x1339 DUP2 DUP6 PUSH2 0x10AE JUMP JUMPDEST SWAP1 POP DUP2 DUP2 SUB PUSH1 0x20 DUP4 ADD MSTORE PUSH2 0x134D DUP2 DUP5 PUSH2 0x10AE JUMP JUMPDEST SWAP1 POP SWAP4 SWAP3 POP POP POP JUMP JUMPDEST PUSH1 0x0 PUSH1 0x20 DUP3 ADD SWAP1 POP DUP2 DUP2 SUB PUSH1 0x0 DUP4 ADD MSTORE PUSH2 0x136F DUP2 PUSH2 0x112E JUMP JUMPDEST SWAP1 POP SWAP2 SWAP1 POP JUMP JUMPDEST PUSH1 0x0 PUSH1 0x20 DUP3 ADD SWAP1 POP DUP2 DUP2 SUB PUSH1 0x0 DUP4 ADD MSTORE PUSH2 0x138F DUP2 PUSH2 0x1151 JUMP JUMPDEST SWAP1 POP SWAP2 SWAP1 POP JUMP JUMPDEST PUSH1 0x0 PUSH1 0x40 DUP3 ADD SWAP1 POP DUP2 DUP2 SUB PUSH1 0x0 DUP4 ADD MSTORE PUSH2 0x13AF DUP2 PUSH2 0x1174 JUMP JUMPDEST SWAP1 POP PUSH2 0x13BE PUSH1 0x20 DUP4 ADD DUP5 PUSH2 0x11DD JUMP JUMPDEST SWAP3 SWAP2 POP POP JUMP JUMPDEST PUSH1 0x0 PUSH1 0x20 DUP3 ADD SWAP1 POP DUP2 DUP2 SUB PUSH1 0x0 DUP4 ADD MSTORE PUSH2 0x13DD DUP2 PUSH2 0x1197 JUMP JUMPDEST SWAP1 POP SWAP2 SWAP1 POP JUMP JUMPDEST PUSH1 0x0 PUSH1 0x40 DUP3 ADD SWAP1 POP DUP2 DUP2 SUB PUSH1 0x0 DUP4 ADD MSTORE PUSH2 0x13FD DUP2 PUSH2 0x11BA JUMP JUMPDEST SWAP1 POP PUSH2 0x140C PUSH1 0x20 DUP4 ADD DUP5 PUSH2 0x11DD JUMP JUMPDEST SWAP3 SWAP2 POP POP JUMP JUMPDEST PUSH1 0x0 PUSH1 0x20 DUP3 ADD SWAP1 POP PUSH2 0x1427 PUSH1 0x0 DUP4 ADD DUP5 PUSH2 0x11DD JUMP JUMPDEST SWAP3 SWAP2 POP POP JUMP JUMPDEST PUSH1 0x0 PUSH2 0x1437 PUSH2 0x1448 JUMP JUMPDEST SWAP1 POP PUSH2 0x1443 DUP3 DUP3 PUSH2 0x1658 JUMP JUMPDEST SWAP2 SWAP1 POP JUMP JUMPDEST PUSH1 0x0 PUSH1 0x40 MLOAD SWAP1 POP SWAP1 JUMP JUMPDEST PUSH1 0x0 PUSH8 0xFFFFFFFFFFFFFFFF DUP3 GT ISZERO PUSH2 0x146D JUMPI PUSH2 0x146C PUSH2 0x17C9 JUMP JUMPDEST JUMPDEST PUSH2 0x1476 DUP3 PUSH2 0x180C JUMP JUMPDEST SWAP1 POP PUSH1 0x20 DUP2 ADD SWAP1 POP SWAP2 SWAP1 POP JUMP JUMPDEST PUSH1 0x0 DUP2 SWAP1 POP DUP2 PUSH1 0x0 MSTORE PUSH1 0x20 PUSH1 0x0 KECCAK256 SWAP1 POP SWAP2 SWAP1 POP JUMP JUMPDEST PUSH1 0x0 DUP2 MLOAD SWAP1 POP SWAP2 SWAP1 POP JUMP JUMPDEST PUSH1 0x0 DUP3 DUP3 MSTORE PUSH1 0x20 DUP3 ADD SWAP1 POP SWAP3 SWAP2 POP POP JUMP JUMPDEST PUSH1 0x0 PUSH2 0x14BF DUP3 PUSH2 0x15CA JUMP JUMPDEST SWAP2 POP PUSH2 0x14CA DUP4 PUSH2 0x15CA JUMP JUMPDEST SWAP3 POP DUP3 PUSH32 0xFFFFFFFFFFFFFFFFFFFFFFFFFFFFFFFFFFFFFFFFFFFFFFFFFFFFFFFFFFFFFFFF SUB DUP3 GT ISZERO PUSH2 0x14FF JUMPI PUSH2 0x14FE PUSH2 0x170D JUMP JUMPDEST JUMPDEST DUP3 DUP3 ADD SWAP1 POP SWAP3 SWAP2 POP POP JUMP JUMPDEST PUSH1 0x0 PUSH2 0x1515 DUP3 PUSH2 0x15CA JUMP JUMPDEST SWAP2 POP PUSH2 0x1520 DUP4 PUSH2 0x15CA JUMP JUMPDEST SWAP3 POP DUP2 PUSH32 0xFFFFFFFFFFFFFFFFFFFFFFFFFFFFFFFFFFFFFFFFFFFFFFFFFFFFFFFFFFFFFFFF DIV DUP4 GT DUP3 ISZERO ISZERO AND ISZERO PUSH2 0x1559 JUMPI PUSH2 0x1558 PUSH2 0x170D JUMP JUMPDEST JUMPDEST DUP3 DUP3 MUL SWAP1 POP SWAP3 SWAP2 POP POP JUMP JUMPDEST PUSH1 0x0 PUSH2 0x156F DUP3 PUSH2 0x15CA JUMP JUMPDEST SWAP2 POP PUSH2 0x157A DUP4 PUSH2 0x15CA JUMP JUMPDEST SWAP3 POP DUP3 DUP3 LT ISZERO PUSH2 0x158D JUMPI PUSH2 0x158C PUSH2 0x170D JUMP JUMPDEST JUMPDEST DUP3 DUP3 SUB SWAP1 POP SWAP3 SWAP2 POP POP JUMP JUMPDEST PUSH1 0x0 PUSH2 0x15A3 DUP3 PUSH2 0x15AA JUMP JUMPDEST SWAP1 POP SWAP2 SWAP1 POP JUMP JUMPDEST PUSH1 0x0 PUSH20 0xFFFFFFFFFFFFFFFFFFFFFFFFFFFFFFFFFFFFFFFF DUP3 AND SWAP1 POP SWAP2 SWAP1 POP JUMP JUMPDEST PUSH1 0x0 DUP2 SWAP1 POP SWAP2 SWAP1 POP JUMP JUMPDEST PUSH1 0x0 PUSH4 0xFFFFFFFF DUP3 AND SWAP1 POP SWAP2 SWAP1 POP JUMP JUMPDEST DUP3 DUP2 DUP4 CALLDATACOPY PUSH1 0x0 DUP4 DUP4 ADD MSTORE POP POP POP JUMP JUMPDEST PUSH1 0x0 JUMPDEST DUP4 DUP2 LT ISZERO PUSH2 0x1611 JUMPI DUP1 DUP3 ADD MLOAD DUP2 DUP5 ADD MSTORE PUSH1 0x20 DUP2 ADD SWAP1 POP PUSH2 0x15F6 JUMP JUMPDEST DUP4 DUP2 GT ISZERO PUSH2 0x1620 JUMPI PUSH1 0x0 DUP5 DUP5 ADD MSTORE JUMPDEST POP POP POP POP JUMP JUMPDEST PUSH1 0x0 PUSH1 0x2 DUP3 DIV SWAP1 POP PUSH1 0x1 DUP3 AND DUP1 PUSH2 0x163E JUMPI PUSH1 0x7F DUP3 AND SWAP2 POP JUMPDEST PUSH1 0x20 DUP3 LT DUP2 EQ ISZERO PUSH2 0x1652 JUMPI PUSH2 0x1651 PUSH2 0x176B JUMP JUMPDEST JUMPDEST POP SWAP2 SWAP1 POP JUMP JUMPDEST PUSH2 0x1661 DUP3 PUSH2 0x180C JUMP JUMPDEST DUP2 ADD DUP2 DUP2 LT PUSH8 0xFFFFFFFFFFFFFFFF DUP3 GT OR ISZERO PUSH2 0x1680 JUMPI PUSH2 0x167F PUSH2 0x17C9 JUMP JUMPDEST JUMPDEST DUP1 PUSH1 0x40 MSTORE POP POP POP JUMP JUMPDEST PUSH1 0x0 PUSH2 0x1694 DUP3 PUSH2 0x15CA JUMP JUMPDEST SWAP2 POP PUSH32 0xFFFFFFFFFFFFFFFFFFFFFFFFFFFFFFFFFFFFFFFFFFFFFFFFFFFFFFFFFFFFFFFF DUP3 EQ ISZERO PUSH2 0x16C7 JUMPI PUSH2 0x16C6 PUSH2 0x170D JUMP JUMPDEST JUMPDEST PUSH1 0x1 DUP3 ADD SWAP1 POP SWAP2 SWAP1 POP JUMP JUMPDEST PUSH1 0x0 DUP2 SWAP1 POP SWAP2 SWAP1 POP JUMP JUMPDEST PUSH1 0x0 PUSH2 0x16E7 DUP3 PUSH2 0x15CA JUMP JUMPDEST SWAP2 POP PUSH2 0x16F2 DUP4 PUSH2 0x15CA JUMP JUMPDEST SWAP3 POP DUP3 PUSH2 0x1702 JUMPI PUSH2 0x1701 PUSH2 0x173C JUMP JUMPDEST JUMPDEST DUP3 DUP3 MOD SWAP1 POP SWAP3 SWAP2 POP POP JUMP JUMPDEST PUSH32 0x4E487B7100000000000000000000000000000000000000000000000000000000 PUSH1 0x0 MSTORE PUSH1 0x11 PUSH1 0x4 MSTORE PUSH1 0x24 PUSH1 0x0 REVERT JUMPDEST PUSH32 0x4E487B7100000000000000000000000000000000000000000000000000000000 PUSH1 0x0 MSTORE PUSH1 0x12 PUSH1 0x4 MSTORE PUSH1 0x24 PUSH1 0x0 REVERT JUMPDEST PUSH32 0x4E487B7100000000000000000000000000000000000000000000000000000000 PUSH1 0x0 MSTORE PUSH1 0x22 PUSH1 0x4 MSTORE PUSH1 0x24 PUSH1 0x0 REVERT JUMPDEST PUSH32 0x4E487B7100000000000000000000000000000000000000000000000000000000 PUSH1 0x0 MSTORE PUSH1 0x32 PUSH1 0x4 MSTORE PUSH1 0x24 PUSH1 0x0 REVERT JUMPDEST PUSH32 0x4E487B7100000000000000000000000000000000000000000000000000000000 PUSH1 0x0 MSTORE PUSH1 0x41 PUSH1 0x4 MSTORE PUSH1 0x24 PUSH1 0x0 REVERT JUMPDEST PUSH1 0x0 DUP1 REVERT JUMPDEST PUSH1 0x0 DUP1 REVERT JUMPDEST PUSH1 0x0 DUP1 REVERT JUMPDEST PUSH1 0x0 DUP1 REVERT JUMPDEST PUSH1 0x0 PUSH1 0x1F NOT PUSH1 0x1F DUP4 ADD AND SWAP1 POP SWAP2 SWAP1 POP JUMP JUMPDEST PUSH32 0x536F6C6F2073652070756564652074656E657220756E20636F63686520706F72 PUSH1 0x0 DUP3 ADD MSTORE PUSH32 0x20706572736F6E61000000000000000000000000000000000000000000000000 PUSH1 0x20 DUP3 ADD MSTORE POP JUMP JUMPDEST PUSH32 0x4F776E61626C653A206E6577206F776E657220697320746865207A65726F2061 PUSH1 0x0 DUP3 ADD MSTORE PUSH32 0x6464726573730000000000000000000000000000000000000000000000000000 PUSH1 0x20 DUP3 ADD MSTORE POP JUMP JUMPDEST PUSH32 0x4861732067616E61646F3A200000000000000000000000000000000000000000 PUSH1 0x0 DUP3 ADD MSTORE POP JUMP JUMPDEST PUSH32 0x4F776E61626C653A2063616C6C6572206973206E6F7420746865206F776E6572 PUSH1 0x0 DUP3 ADD MSTORE POP JUMP JUMPDEST PUSH32 0x456C20636F6368652067616E61646F722065733A200000000000000000000000 PUSH1 0x0 DUP3 ADD MSTORE POP JUMP JUMPDEST PUSH2 0x193F DUP2 PUSH2 0x1598 JUMP JUMPDEST DUP2 EQ PUSH2 0x194A JUMPI PUSH1 0x0 DUP1 REVERT JUMPDEST POP JUMP JUMPDEST PUSH2 0x1956 DUP2 PUSH2 0x15CA JUMP JUMPDEST DUP2 EQ PUSH2 0x1961 JUMPI PUSH1 0x0 DUP1 REVERT JUMPDEST POP JUMP INVALID LOG2 PUSH5 0x6970667358 0x22 SLT KECCAK256 CALLVALUE DUP8 INVALID PUSH18 0x7392192BF419CD4B851A2D919F6E5145BC26 RETURNDATASIZE 0xEB DIV 0xAF SWAP4 PUSH5 0x957065864 PUSH20 0x6F6C634300080700330000000000000000000000 "
				},
				"gasEstimates": {
					"creation": {
						"codeDepositCost": "1310800",
						"executionCost": "infinite",
						"totalCost": "infinite"
					},
					"external": {
						"Apostar(uint256)": "infinite",
						"anadirCoche(string,string,string)": "infinite",
						"cocheDePropietario(uint256)": "2839",
						"listaCoches(uint256)": "infinite",
						"numeroCochesPersona(address)": "2815",
						"owner()": "2544",
						"renounceOwnership()": "30463",
						"subirDeNivel(uint256)": "2549",
						"transferOwnership(address)": "30811",
						"verCochePropietario(address)": "infinite"
					},
					"internal": {
						"_depositoLleno(struct CarreraCoches.Coche storage pointer)": "infinite",
						"_repostando(struct CarreraCoches.Coche storage pointer)": "infinite",
						"balance()": "infinite"
					}
				},
				"methodIdentifiers": {
					"Apostar(uint256)": "6b6f0494",
					"anadirCoche(string,string,string)": "2458c544",
					"cocheDePropietario(uint256)": "858b0554",
					"listaCoches(uint256)": "d735573d",
					"numeroCochesPersona(address)": "1c6743e4",
					"owner()": "8da5cb5b",
					"renounceOwnership()": "715018a6",
					"subirDeNivel(uint256)": "2d54d647",
					"transferOwnership(address)": "f2fde38b",
					"verCochePropietario(address)": "e172fca8"
				}
			},
			"storageLayout": {
				"storage": [
					{
						"astId": 7,
						"contract": "contracts/CarreraCoches/principal.sol:CarreraCoches",
						"label": "_owner",
						"offset": 0,
						"slot": "0",
						"type": "t_address"
					},
					{
						"astId": 129,
						"contract": "contracts/CarreraCoches/principal.sol:CarreraCoches",
						"label": "randNonce",
						"offset": 0,
						"slot": "1",
						"type": "t_uint256"
					},
					{
						"astId": 132,
						"contract": "contracts/CarreraCoches/principal.sol:CarreraCoches",
						"label": "contador",
						"offset": 0,
						"slot": "2",
						"type": "t_uint256"
					},
					{
						"astId": 135,
						"contract": "contracts/CarreraCoches/principal.sol:CarreraCoches",
						"label": "cooldown",
						"offset": 0,
						"slot": "3",
						"type": "t_uint256"
					},
					{
						"astId": 138,
						"contract": "contracts/CarreraCoches/principal.sol:CarreraCoches",
						"label": "subirNivel",
						"offset": 0,
						"slot": "4",
						"type": "t_uint256"
					},
					{
						"astId": 142,
						"contract": "contracts/CarreraCoches/principal.sol:CarreraCoches",
						"label": "listaCoches",
						"offset": 0,
						"slot": "5",
						"type": "t_array(t_struct(Coche)126_storage)dyn_storage"
					},
					{
						"astId": 166,
						"contract": "contracts/CarreraCoches/principal.sol:CarreraCoches",
						"label": "cocheDePropietario",
						"offset": 0,
						"slot": "6",
						"type": "t_mapping(t_uint256,t_address)"
					},
					{
						"astId": 170,
						"contract": "contracts/CarreraCoches/principal.sol:CarreraCoches",
						"label": "numeroCochesPersona",
						"offset": 0,
						"slot": "7",
						"type": "t_mapping(t_address,t_uint256)"
					}
				],
				"types": {
					"t_address": {
						"encoding": "inplace",
						"label": "address",
						"numberOfBytes": "20"
					},
					"t_array(t_struct(Coche)126_storage)dyn_storage": {
						"base": "t_struct(Coche)126_storage",
						"encoding": "dynamic_array",
						"label": "struct CarreraCoches.Coche[]",
						"numberOfBytes": "32"
					},
					"t_mapping(t_address,t_uint256)": {
						"encoding": "mapping",
						"key": "t_address",
						"label": "mapping(address => uint256)",
						"numberOfBytes": "32",
						"value": "t_uint256"
					},
					"t_mapping(t_uint256,t_address)": {
						"encoding": "mapping",
						"key": "t_uint256",
						"label": "mapping(uint256 => address)",
						"numberOfBytes": "32",
						"value": "t_address"
					},
					"t_string_storage": {
						"encoding": "bytes",
						"label": "string",
						"numberOfBytes": "32"
					},
					"t_struct(Coche)126_storage": {
						"encoding": "inplace",
						"label": "struct CarreraCoches.Coche",
						"members": [
							{
								"astId": 111,
								"contract": "contracts/CarreraCoches/principal.sol:CarreraCoches",
								"label": "idPiloto",
								"offset": 0,
								"slot": "0",
								"type": "t_address"
							},
							{
								"astId": 113,
								"contract": "contracts/CarreraCoches/principal.sol:CarreraCoches",
								"label": "modelo",
								"offset": 0,
								"slot": "1",
								"type": "t_string_storage"
							},
							{
								"astId": 115,
								"contract": "contracts/CarreraCoches/principal.sol:CarreraCoches",
								"label": "marca",
								"offset": 0,
								"slot": "2",
								"type": "t_string_storage"
							},
							{
								"astId": 117,
								"contract": "contracts/CarreraCoches/principal.sol:CarreraCoches",
								"label": "nombrePiloto",
								"offset": 0,
								"slot": "3",
								"type": "t_string_storage"
							},
							{
								"astId": 119,
								"contract": "contracts/CarreraCoches/principal.sol:CarreraCoches",
								"label": "carrerasGanadas",
								"offset": 0,
								"slot": "4",
								"type": "t_uint256"
							},
							{
								"astId": 121,
								"contract": "contracts/CarreraCoches/principal.sol:CarreraCoches",
								"label": "carrerasTotales",
								"offset": 0,
								"slot": "5",
								"type": "t_uint256"
							},
							{
								"astId": 123,
								"contract": "contracts/CarreraCoches/principal.sol:CarreraCoches",
								"label": "tiempoEspera",
								"offset": 0,
								"slot": "6",
								"type": "t_uint256"
							},
							{
								"astId": 125,
								"contract": "contracts/CarreraCoches/principal.sol:CarreraCoches",
								"label": "nivel",
								"offset": 0,
								"slot": "7",
								"type": "t_uint32"
							}
						],
						"numberOfBytes": "256"
					},
					"t_uint256": {
						"encoding": "inplace",
						"label": "uint256",
						"numberOfBytes": "32"
					},
					"t_uint32": {
						"encoding": "inplace",
						"label": "uint32",
						"numberOfBytes": "4"
					}
				}
			},
			"userdoc": {
				"kind": "user",
				"methods": {},
				"version": 1
			}
		}
	}
}