{
	"contracts/CarreraCoches/cocheToken.sol": {
		"CocheToken": {
			"abi": [
				{
					"anonymous": false,
					"inputs": [
						{
							"indexed": true,
							"internalType": "address",
							"name": "_owner",
							"type": "address"
						},
						{
							"indexed": true,
							"internalType": "address",
							"name": "_approved",
							"type": "address"
						},
						{
							"indexed": true,
							"internalType": "uint256",
							"name": "_tokenId",
							"type": "uint256"
						}
					],
					"name": "Approval",
					"type": "event"
				},
				{
					"anonymous": false,
					"inputs": [
						{
							"indexed": true,
							"internalType": "address",
							"name": "_owner",
							"type": "address"
						},
						{
							"indexed": true,
							"internalType": "address",
							"name": "_operator",
							"type": "address"
						},
						{
							"indexed": false,
							"internalType": "bool",
							"name": "_approved",
							"type": "bool"
						}
					],
					"name": "ApprovalForAll",
					"type": "event"
				},
				{
					"anonymous": false,
					"inputs": [
						{
							"indexed": true,
							"internalType": "address",
							"name": "previousOwner",
							"type": "address"
						},
						{
							"indexed": true,
							"internalType": "address",
							"name": "newOwner",
							"type": "address"
						}
					],
					"name": "OwnershipTransferred",
					"type": "event"
				},
				{
					"anonymous": false,
					"inputs": [
						{
							"indexed": true,
							"internalType": "address",
							"name": "_from",
							"type": "address"
						},
						{
							"indexed": true,
							"internalType": "address",
							"name": "_to",
							"type": "address"
						},
						{
							"indexed": true,
							"internalType": "uint256",
							"name": "_tokenId",
							"type": "uint256"
						}
					],
					"name": "Transfer",
					"type": "event"
				},
				{
					"anonymous": false,
					"inputs": [
						{
							"indexed": false,
							"internalType": "string",
							"name": "mo",
							"type": "string"
						},
						{
							"indexed": false,
							"internalType": "string",
							"name": "ma",
							"type": "string"
						},
						{
							"indexed": false,
							"internalType": "uint32",
							"name": "niv",
							"type": "uint32"
						},
						{
							"indexed": false,
							"internalType": "uint256",
							"name": "carrGan",
							"type": "uint256"
						},
						{
							"indexed": false,
							"internalType": "uint256",
							"name": "carrTot",
							"type": "uint256"
						}
					],
					"name": "cochePropietario",
					"type": "event"
				},
				{
					"anonymous": false,
					"inputs": [
						{
							"indexed": false,
							"internalType": "uint256",
							"name": "compr",
							"type": "uint256"
						}
					],
					"name": "comprobar",
					"type": "event"
				},
				{
					"anonymous": false,
					"inputs": [
						{
							"indexed": false,
							"internalType": "string",
							"name": "ms",
							"type": "string"
						}
					],
					"name": "confirmacionDepositoLleno",
					"type": "event"
				},
				{
					"anonymous": false,
					"inputs": [
						{
							"indexed": false,
							"internalType": "string",
							"name": "ms",
							"type": "string"
						},
						{
							"indexed": false,
							"internalType": "uint256",
							"name": "res",
							"type": "uint256"
						}
					],
					"name": "mostrarResultado",
					"type": "event"
				},
				{
					"inputs": [
						{
							"internalType": "uint256",
							"name": "dineroApostar",
							"type": "uint256"
						}
					],
					"name": "Apostar",
					"outputs": [
						{
							"internalType": "string",
							"name": "",
							"type": "string"
						}
					],
					"stateMutability": "payable",
					"type": "function"
				},
				{
					"inputs": [],
					"name": "_owner",
					"outputs": [
						{
							"internalType": "address",
							"name": "",
							"type": "address"
						}
					],
					"stateMutability": "view",
					"type": "function"
				},
				{
					"inputs": [
						{
							"internalType": "string",
							"name": "_modelo",
							"type": "string"
						},
						{
							"internalType": "string",
							"name": "_marca",
							"type": "string"
						},
						{
							"internalType": "string",
							"name": "_nombrePiloto",
							"type": "string"
						}
					],
					"name": "anadirCoche",
					"outputs": [
						{
							"internalType": "uint256",
							"name": "",
							"type": "uint256"
						}
					],
					"stateMutability": "nonpayable",
					"type": "function"
				},
				{
					"inputs": [
						{
							"internalType": "address",
							"name": "_approved",
							"type": "address"
						},
						{
							"internalType": "uint256",
							"name": "_tokenId",
							"type": "uint256"
						}
					],
					"name": "approve",
					"outputs": [],
					"stateMutability": "payable",
					"type": "function"
				},
				{
					"inputs": [
						{
							"internalType": "address",
							"name": "_owner",
							"type": "address"
						}
					],
					"name": "balanceOf",
					"outputs": [
						{
							"internalType": "uint256",
							"name": "",
							"type": "uint256"
						}
					],
					"stateMutability": "view",
					"type": "function"
				},
				{
					"inputs": [
						{
							"internalType": "uint256",
							"name": "",
							"type": "uint256"
						}
					],
					"name": "cocheDePropietario",
					"outputs": [
						{
							"internalType": "address",
							"name": "",
							"type": "address"
						}
					],
					"stateMutability": "view",
					"type": "function"
				},
				{
					"inputs": [
						{
							"internalType": "address",
							"name": "_address",
							"type": "address"
						},
						{
							"internalType": "string",
							"name": "_newModelo",
							"type": "string"
						},
						{
							"internalType": "string",
							"name": "_newMarca",
							"type": "string"
						}
					],
					"name": "comprarCoche",
					"outputs": [
						{
							"internalType": "string",
							"name": "",
							"type": "string"
						}
					],
					"stateMutability": "payable",
					"type": "function"
				},
				{
					"inputs": [
						{
							"internalType": "uint256",
							"name": "_tokenId",
							"type": "uint256"
						}
					],
					"name": "getApproved",
					"outputs": [
						{
							"internalType": "address",
							"name": "",
							"type": "address"
						}
					],
					"stateMutability": "view",
					"type": "function"
				},
				{
					"inputs": [
						{
							"internalType": "address",
							"name": "_owner",
							"type": "address"
						},
						{
							"internalType": "address",
							"name": "_operator",
							"type": "address"
						}
					],
					"name": "isApprovedForAll",
					"outputs": [
						{
							"internalType": "bool",
							"name": "",
							"type": "bool"
						}
					],
					"stateMutability": "view",
					"type": "function"
				},
				{
					"inputs": [
						{
							"internalType": "uint256",
							"name": "",
							"type": "uint256"
						}
					],
					"name": "listaCoches",
					"outputs": [
						{
							"internalType": "address",
							"name": "idPiloto",
							"type": "address"
						},
						{
							"internalType": "string",
							"name": "modelo",
							"type": "string"
						},
						{
							"internalType": "string",
							"name": "marca",
							"type": "string"
						},
						{
							"internalType": "string",
							"name": "nombrePiloto",
							"type": "string"
						},
						{
							"internalType": "uint256",
							"name": "carrerasGanadas",
							"type": "uint256"
						},
						{
							"internalType": "uint256",
							"name": "carrerasTotales",
							"type": "uint256"
						},
						{
							"internalType": "uint256",
							"name": "tiempoEspera",
							"type": "uint256"
						},
						{
							"internalType": "uint32",
							"name": "nivel",
							"type": "uint32"
						}
					],
					"stateMutability": "view",
					"type": "function"
				},
				{
					"inputs": [
						{
							"internalType": "address",
							"name": "",
							"type": "address"
						}
					],
					"name": "numeroCochesPersona",
					"outputs": [
						{
							"internalType": "uint256",
							"name": "",
							"type": "uint256"
						}
					],
					"stateMutability": "view",
					"type": "function"
				},
				{
					"inputs": [],
					"name": "owner",
					"outputs": [
						{
							"internalType": "address",
							"name": "",
							"type": "address"
						}
					],
					"stateMutability": "view",
					"type": "function"
				},
				{
					"inputs": [
						{
							"internalType": "uint256",
							"name": "_tokenId",
							"type": "uint256"
						}
					],
					"name": "ownerOf",
					"outputs": [
						{
							"internalType": "address",
							"name": "",
							"type": "address"
						}
					],
					"stateMutability": "view",
					"type": "function"
				},
				{
					"inputs": [],
					"name": "renounceOwnership",
					"outputs": [],
					"stateMutability": "nonpayable",
					"type": "function"
				},
				{
					"inputs": [
						{
							"internalType": "address",
							"name": "_from",
							"type": "address"
						},
						{
							"internalType": "address",
							"name": "_to",
							"type": "address"
						},
						{
							"internalType": "uint256",
							"name": "_tokenId",
							"type": "uint256"
						}
					],
					"name": "safeTransferFrom",
					"outputs": [],
					"stateMutability": "payable",
					"type": "function"
				},
				{
					"inputs": [
						{
							"internalType": "address",
							"name": "_from",
							"type": "address"
						},
						{
							"internalType": "address",
							"name": "_to",
							"type": "address"
						},
						{
							"internalType": "uint256",
							"name": "_tokenId",
							"type": "uint256"
						},
						{
							"internalType": "bytes",
							"name": "data",
							"type": "bytes"
						}
					],
					"name": "safeTransferFrom",
					"outputs": [],
					"stateMutability": "payable",
					"type": "function"
				},
				{
					"inputs": [
						{
							"internalType": "address",
							"name": "_operator",
							"type": "address"
						},
						{
							"internalType": "bool",
							"name": "_approved",
							"type": "bool"
						}
					],
					"name": "setApprovalForAll",
					"outputs": [],
					"stateMutability": "nonpayable",
					"type": "function"
				},
				{
					"inputs": [
						{
							"internalType": "address",
							"name": "_propietario",
							"type": "address"
						}
					],
					"name": "subirDeNivel",
					"outputs": [
						{
							"internalType": "string",
							"name": "",
							"type": "string"
						}
					],
					"stateMutability": "payable",
					"type": "function"
				},
				{
					"inputs": [
						{
							"internalType": "address",
							"name": "_from",
							"type": "address"
						},
						{
							"internalType": "address",
							"name": "_to",
							"type": "address"
						},
						{
							"internalType": "uint256",
							"name": "_tokenId",
							"type": "uint256"
						}
					],
					"name": "transferFrom",
					"outputs": [],
					"stateMutability": "payable",
					"type": "function"
				},
				{
					"inputs": [
						{
							"internalType": "address",
							"name": "newOwner",
							"type": "address"
						}
					],
					"name": "transferOwnership",
					"outputs": [],
					"stateMutability": "nonpayable",
					"type": "function"
				},
				{
					"inputs": [
						{
							"internalType": "address",
							"name": "_propietario",
							"type": "address"
						}
					],
					"name": "verCochePropietario",
					"outputs": [],
					"stateMutability": "nonpayable",
					"type": "function"
				}
			],
			"devdoc": {
				"kind": "dev",
				"methods": {
					"owner()": {
						"details": "Returns the address of the current owner."
					},
					"renounceOwnership()": {
						"details": "Leaves the contract without owner. It will not be possible to call `onlyOwner` functions anymore. Can only be called by the current owner. NOTE: Renouncing ownership will leave the contract without an owner, thereby removing any functionality that is only available to the owner."
					},
					"transferOwnership(address)": {
						"details": "Transfers ownership of the contract to a new account (`newOwner`). Can only be called by the current owner."
					}
				},
				"version": 1
			},
			"evm": {
				"assembly": "    /* \"contracts/CarreraCoches/cocheToken.sol\":80:2392  contract CocheToken is CarreraCoches, ERC721 {\r... */\n  mstore(0x40, 0x80)\n    /* \"contracts/CarreraCoches/principal.sol\":370:371  0 */\n  0x00\n    /* \"contracts/CarreraCoches/principal.sol\":353:371  uint randNonce = 0 */\n  0x01\n  sstore\n    /* \"contracts/CarreraCoches/principal.sol\":494:495  0 */\n  0x00\n    /* \"contracts/CarreraCoches/principal.sol\":478:495  uint contador = 0 */\n  0x02\n  sstore\n    /* \"contracts/CarreraCoches/principal.sol\":518:528  60 seconds */\n  0x3c\n    /* \"contracts/CarreraCoches/principal.sol\":502:528  uint cooldown = 60 seconds */\n  0x03\n  sstore\n    /* \"contracts/CarreraCoches/principal.sol\":553:560  1 ether */\n  0x0de0b6b3a7640000\n    /* \"contracts/CarreraCoches/principal.sol\":535:560  uint subirNivel = 1 ether */\n  0x04\n  sstore\n    /* \"contracts/CarreraCoches/principal.sol\":588:595  2 ether */\n  0x1bc16d674ec80000\n    /* \"contracts/CarreraCoches/principal.sol\":567:595  uint cambiarCocheV = 2 ether */\n  0x05\n  sstore\n    /* \"contracts/CarreraCoches/cocheToken.sol\":80:2392  contract CocheToken is CarreraCoches, ERC721 {\r... */\n  callvalue\n  dup1\n  iszero\n  tag_1\n  jumpi\n  0x00\n  dup1\n  revert\ntag_1:\n  pop\n    /* \"contracts/CarreraCoches/ownable.sol\":947:979  _transferOwnership(_msgSender()) */\n  tag_4\n    /* \"contracts/CarreraCoches/ownable.sol\":966:978  _msgSender() */\n  tag_5\n    /* \"contracts/CarreraCoches/ownable.sol\":966:976  _msgSender */\n  shl(0x20, tag_6)\n    /* \"contracts/CarreraCoches/ownable.sol\":966:978  _msgSender() */\n  0x20\n  shr\n  jump\t// in\ntag_5:\n    /* \"contracts/CarreraCoches/ownable.sol\":947:965  _transferOwnership */\n  shl(0x20, tag_7)\n    /* \"contracts/CarreraCoches/ownable.sol\":947:979  _transferOwnership(_msgSender()) */\n  0x20\n  shr\n  jump\t// in\ntag_4:\n    /* \"contracts/CarreraCoches/cocheToken.sol\":80:2392  contract CocheToken is CarreraCoches, ERC721 {\r... */\n  jump(tag_8)\n    /* \"contracts/CarreraCoches/utils/Context.sol\":656:754  function _msgSender() internal view virtual returns (address) {\r... */\ntag_6:\n    /* \"contracts/CarreraCoches/utils/Context.sol\":709:716  address */\n  0x00\n    /* \"contracts/CarreraCoches/utils/Context.sol\":736:746  msg.sender */\n  caller\n    /* \"contracts/CarreraCoches/utils/Context.sol\":729:746  return msg.sender */\n  swap1\n  pop\n    /* \"contracts/CarreraCoches/utils/Context.sol\":656:754  function _msgSender() internal view virtual returns (address) {\r... */\n  swap1\n  jump\t// out\n    /* \"contracts/CarreraCoches/ownable.sol\":2338:2529  function _transferOwnership(address newOwner) internal virtual {\r... */\ntag_7:\n    /* \"contracts/CarreraCoches/ownable.sol\":2412:2428  address oldOwner */\n  0x00\n    /* \"contracts/CarreraCoches/ownable.sol\":2431:2437  _owner */\n  dup1\n  0x00\n  swap1\n  sload\n  swap1\n  0x0100\n  exp\n  swap1\n  div\n  0xffffffffffffffffffffffffffffffffffffffff\n  and\n    /* \"contracts/CarreraCoches/ownable.sol\":2412:2437  address oldOwner = _owner */\n  swap1\n  pop\n    /* \"contracts/CarreraCoches/ownable.sol\":2457:2465  newOwner */\n  dup2\n    /* \"contracts/CarreraCoches/ownable.sol\":2448:2454  _owner */\n  0x00\n  dup1\n    /* \"contracts/CarreraCoches/ownable.sol\":2448:2465  _owner = newOwner */\n  0x0100\n  exp\n  dup2\n  sload\n  dup2\n  0xffffffffffffffffffffffffffffffffffffffff\n  mul\n  not\n  and\n  swap1\n  dup4\n  0xffffffffffffffffffffffffffffffffffffffff\n  and\n  mul\n  or\n  swap1\n  sstore\n  pop\n    /* \"contracts/CarreraCoches/ownable.sol\":2512:2520  newOwner */\n  dup2\n    /* \"contracts/CarreraCoches/ownable.sol\":2481:2521  OwnershipTransferred(oldOwner, newOwner) */\n  0xffffffffffffffffffffffffffffffffffffffff\n  and\n    /* \"contracts/CarreraCoches/ownable.sol\":2502:2510  oldOwner */\n  dup2\n    /* \"contracts/CarreraCoches/ownable.sol\":2481:2521  OwnershipTransferred(oldOwner, newOwner) */\n  0xffffffffffffffffffffffffffffffffffffffff\n  and\n  0x8be0079c531659141344cd1fd0a4f28419497f9722a3daafe3b4186f6b6457e0\n  mload(0x40)\n  mload(0x40)\n  dup1\n  swap2\n  sub\n  swap1\n  log3\n    /* \"contracts/CarreraCoches/ownable.sol\":2401:2529  {\r... */\n  pop\n    /* \"contracts/CarreraCoches/ownable.sol\":2338:2529  function _transferOwnership(address newOwner) internal virtual {\r... */\n  pop\n  jump\t// out\n    /* \"contracts/CarreraCoches/cocheToken.sol\":80:2392  contract CocheToken is CarreraCoches, ERC721 {\r... */\ntag_8:\n  dataSize(sub_0)\n  dup1\n  dataOffset(sub_0)\n  0x00\n  codecopy\n  0x00\n  return\nstop\n\nsub_0: assembly {\n        /* \"contracts/CarreraCoches/cocheToken.sol\":80:2392  contract CocheToken is CarreraCoches, ERC721 {\r... */\n      mstore(0x40, 0x80)\n      jumpi(tag_1, lt(calldatasize, 0x04))\n      shr(0xe0, calldataload(0x00))\n      dup1\n      0x70a08231\n      gt\n      tag_23\n      jumpi\n      dup1\n      0xb2bdfa7b\n      gt\n      tag_24\n      jumpi\n      dup1\n      0xb2bdfa7b\n      eq\n      tag_17\n      jumpi\n      dup1\n      0xb88d4fde\n      eq\n      tag_18\n      jumpi\n      dup1\n      0xd735573d\n      eq\n      tag_19\n      jumpi\n      dup1\n      0xe172fca8\n      eq\n      tag_20\n      jumpi\n      dup1\n      0xe985e9c5\n      eq\n      tag_21\n      jumpi\n      dup1\n      0xf2fde38b\n      eq\n      tag_22\n      jumpi\n      jump(tag_1)\n    tag_24:\n      dup1\n      0x70a08231\n      eq\n      tag_12\n      jumpi\n      dup1\n      0x715018a6\n      eq\n      tag_13\n      jumpi\n      dup1\n      0x858b0554\n      eq\n      tag_14\n      jumpi\n      dup1\n      0x8da5cb5b\n      eq\n      tag_15\n      jumpi\n      dup1\n      0xa22cb465\n      eq\n      tag_16\n      jumpi\n      jump(tag_1)\n    tag_23:\n      dup1\n      0x2458c544\n      gt\n      tag_25\n      jumpi\n      dup1\n      0x2458c544\n      eq\n      tag_7\n      jumpi\n      dup1\n      0x42842e0e\n      eq\n      tag_8\n      jumpi\n      dup1\n      0x6352211e\n      eq\n      tag_9\n      jumpi\n      dup1\n      0x6a7d1816\n      eq\n      tag_10\n      jumpi\n      dup1\n      0x6b6f0494\n      eq\n      tag_11\n      jumpi\n      jump(tag_1)\n    tag_25:\n      dup1\n      0x049a5f65\n      eq\n      tag_2\n      jumpi\n      dup1\n      0x081812fc\n      eq\n      tag_3\n      jumpi\n      dup1\n      0x095ea7b3\n      eq\n      tag_4\n      jumpi\n      dup1\n      0x1c6743e4\n      eq\n      tag_5\n      jumpi\n      dup1\n      0x23b872dd\n      eq\n      tag_6\n      jumpi\n    tag_1:\n      0x00\n      dup1\n      revert\n        /* \"contracts/CarreraCoches/principal.sol\":3448:3910  function comprarCoche(address _address, string memory _newModelo, string memory _newMarca) external payable returns(string memory) {\r... */\n    tag_2:\n      tag_26\n      0x04\n      dup1\n      calldatasize\n      sub\n      dup2\n      add\n      swap1\n      tag_27\n      swap2\n      swap1\n      tag_28\n      jump\t// in\n    tag_27:\n      tag_29\n      jump\t// in\n    tag_26:\n      mload(0x40)\n      tag_30\n      swap2\n      swap1\n      tag_31\n      jump\t// in\n    tag_30:\n      mload(0x40)\n      dup1\n      swap2\n      sub\n      swap1\n      return\n        /* \"contracts/CarreraCoches/cocheToken.sol\":2168:2265  function getApproved(uint256 _tokenId) external override virtual view returns (address){\r... */\n    tag_3:\n      callvalue\n      dup1\n      iszero\n      tag_32\n      jumpi\n      0x00\n      dup1\n      revert\n    tag_32:\n      pop\n      tag_33\n      0x04\n      dup1\n      calldatasize\n      sub\n      dup2\n      add\n      swap1\n      tag_34\n      swap2\n      swap1\n      tag_35\n      jump\t// in\n    tag_34:\n      tag_36\n      jump\t// in\n    tag_33:\n      mload(0x40)\n      tag_37\n      swap2\n      swap1\n      tag_38\n      jump\t// in\n    tag_37:\n      mload(0x40)\n      dup1\n      swap2\n      sub\n      swap1\n      return\n        /* \"contracts/CarreraCoches/cocheToken.sol\":1962:2059  function approve(address _approved, uint256 _tokenId) external override virtual payable{\r... */\n    tag_4:\n      tag_39\n      0x04\n      dup1\n      calldatasize\n      sub\n      dup2\n      add\n      swap1\n      tag_40\n      swap2\n      swap1\n      tag_41\n      jump\t// in\n    tag_40:\n      tag_42\n      jump\t// in\n    tag_39:\n      stop\n        /* \"contracts/CarreraCoches/principal.sol\":929:981  mapping (address => uint) public numeroCochesPersona */\n    tag_5:\n      callvalue\n      dup1\n      iszero\n      tag_43\n      jumpi\n      0x00\n      dup1\n      revert\n    tag_43:\n      pop\n      tag_44\n      0x04\n      dup1\n      calldatasize\n      sub\n      dup2\n      add\n      swap1\n      tag_45\n      swap2\n      swap1\n      tag_46\n      jump\t// in\n    tag_45:\n      tag_47\n      jump\t// in\n    tag_44:\n      mload(0x40)\n      tag_48\n      swap2\n      swap1\n      tag_49\n      jump\t// in\n    tag_48:\n      mload(0x40)\n      dup1\n      swap2\n      sub\n      swap1\n      return\n        /* \"contracts/CarreraCoches/cocheToken.sol\":1845:1956  function transferFrom(address _from, address _to, uint256 _tokenId) external override virtual payable{\r... */\n    tag_6:\n      tag_50\n      0x04\n      dup1\n      calldatasize\n      sub\n      dup2\n      add\n      swap1\n      tag_51\n      swap2\n      swap1\n      tag_52\n      jump\t// in\n    tag_51:\n      tag_53\n      jump\t// in\n    tag_50:\n      stop\n        /* \"contracts/CarreraCoches/principal.sol\":1777:2217  function anadirCoche(string memory _modelo, string memory _marca, string memory _nombrePiloto) public restriccion returns (uint) {\r... */\n    tag_7:\n      callvalue\n      dup1\n      iszero\n      tag_54\n      jumpi\n      0x00\n      dup1\n      revert\n    tag_54:\n      pop\n      tag_55\n      0x04\n      dup1\n      calldatasize\n      sub\n      dup2\n      add\n      swap1\n      tag_56\n      swap2\n      swap1\n      tag_57\n      jump\t// in\n    tag_56:\n      tag_58\n      jump\t// in\n    tag_55:\n      mload(0x40)\n      tag_59\n      swap2\n      swap1\n      tag_49\n      jump\t// in\n    tag_59:\n      mload(0x40)\n      dup1\n      swap2\n      sub\n      swap1\n      return\n        /* \"contracts/CarreraCoches/cocheToken.sol\":1724:1839  function safeTransferFrom(address _from, address _to, uint256 _tokenId) external override virtual payable{\r... */\n    tag_8:\n      tag_60\n      0x04\n      dup1\n      calldatasize\n      sub\n      dup2\n      add\n      swap1\n      tag_61\n      swap2\n      swap1\n      tag_52\n      jump\t// in\n    tag_61:\n      tag_62\n      jump\t// in\n    tag_60:\n      stop\n        /* \"contracts/CarreraCoches/cocheToken.sol\":1485:1578  function ownerOf(uint256 _tokenId) external override virtual view returns (address){\r... */\n    tag_9:\n      callvalue\n      dup1\n      iszero\n      tag_63\n      jumpi\n      0x00\n      dup1\n      revert\n    tag_63:\n      pop\n      tag_64\n      0x04\n      dup1\n      calldatasize\n      sub\n      dup2\n      add\n      swap1\n      tag_65\n      swap2\n      swap1\n      tag_35\n      jump\t// in\n    tag_65:\n      tag_66\n      jump\t// in\n    tag_64:\n      mload(0x40)\n      tag_67\n      swap2\n      swap1\n      tag_38\n      jump\t// in\n    tag_67:\n      mload(0x40)\n      dup1\n      swap2\n      sub\n      swap1\n      return\n        /* \"contracts/CarreraCoches/principal.sol\":2586:2945  function subirDeNivel(address _propietario) external payable returns(string memory) {\r... */\n    tag_10:\n      tag_68\n      0x04\n      dup1\n      calldatasize\n      sub\n      dup2\n      add\n      swap1\n      tag_69\n      swap2\n      swap1\n      tag_46\n      jump\t// in\n    tag_69:\n      tag_70\n      jump\t// in\n    tag_68:\n      mload(0x40)\n      tag_71\n      swap2\n      swap1\n      tag_31\n      jump\t// in\n    tag_71:\n      mload(0x40)\n      dup1\n      swap2\n      sub\n      swap1\n      return\n        /* \"contracts/CarreraCoches/principal.sol\":3968:7314  function Apostar(uint dineroApostar) public payable returns(string memory) {\r... */\n    tag_11:\n      tag_72\n      0x04\n      dup1\n      calldatasize\n      sub\n      dup2\n      add\n      swap1\n      tag_73\n      swap2\n      swap1\n      tag_35\n      jump\t// in\n    tag_73:\n      tag_74\n      jump\t// in\n    tag_72:\n      mload(0x40)\n      tag_75\n      swap2\n      swap1\n      tag_31\n      jump\t// in\n    tag_75:\n      mload(0x40)\n      dup1\n      swap2\n      sub\n      swap1\n      return\n        /* \"contracts/CarreraCoches/cocheToken.sol\":1343:1479  function balanceOf(address _owner) external override virtual view returns (uint256){\r... */\n    tag_12:\n      callvalue\n      dup1\n      iszero\n      tag_76\n      jumpi\n      0x00\n      dup1\n      revert\n    tag_76:\n      pop\n      tag_77\n      0x04\n      dup1\n      calldatasize\n      sub\n      dup2\n      add\n      swap1\n      tag_78\n      swap2\n      swap1\n      tag_46\n      jump\t// in\n    tag_78:\n      tag_79\n      jump\t// in\n    tag_77:\n      mload(0x40)\n      tag_80\n      swap2\n      swap1\n      tag_49\n      jump\t// in\n    tag_80:\n      mload(0x40)\n      dup1\n      swap2\n      sub\n      swap1\n      return\n        /* \"contracts/CarreraCoches/ownable.sol\":1719:1822  function renounceOwnership() public virtual onlyOwner {\r... */\n    tag_13:\n      callvalue\n      dup1\n      iszero\n      tag_81\n      jumpi\n      0x00\n      dup1\n      revert\n    tag_81:\n      pop\n      tag_82\n      tag_83\n      jump\t// in\n    tag_82:\n      stop\n        /* \"contracts/CarreraCoches/principal.sol\":871:922  mapping (uint => address) public cocheDePropietario */\n    tag_14:\n      callvalue\n      dup1\n      iszero\n      tag_84\n      jumpi\n      0x00\n      dup1\n      revert\n    tag_84:\n      pop\n      tag_85\n      0x04\n      dup1\n      calldatasize\n      sub\n      dup2\n      add\n      swap1\n      tag_86\n      swap2\n      swap1\n      tag_35\n      jump\t// in\n    tag_86:\n      tag_87\n      jump\t// in\n    tag_85:\n      mload(0x40)\n      tag_88\n      swap2\n      swap1\n      tag_38\n      jump\t// in\n    tag_88:\n      mload(0x40)\n      dup1\n      swap2\n      sub\n      swap1\n      return\n        /* \"contracts/CarreraCoches/ownable.sol\":1068:1155  function owner() public view virtual returns (address) {\r... */\n    tag_15:\n      callvalue\n      dup1\n      iszero\n      tag_89\n      jumpi\n      0x00\n      dup1\n      revert\n    tag_89:\n      pop\n      tag_90\n      tag_91\n      jump\t// in\n    tag_90:\n      mload(0x40)\n      tag_92\n      swap2\n      swap1\n      tag_38\n      jump\t// in\n    tag_92:\n      mload(0x40)\n      dup1\n      swap2\n      sub\n      swap1\n      return\n        /* \"contracts/CarreraCoches/cocheToken.sol\":2065:2162  function setApprovalForAll(address _operator, bool _approved) external override virtual{\r... */\n    tag_16:\n      callvalue\n      dup1\n      iszero\n      tag_93\n      jumpi\n      0x00\n      dup1\n      revert\n    tag_93:\n      pop\n      tag_94\n      0x04\n      dup1\n      calldatasize\n      sub\n      dup2\n      add\n      swap1\n      tag_95\n      swap2\n      swap1\n      tag_96\n      jump\t// in\n    tag_95:\n      tag_97\n      jump\t// in\n    tag_94:\n      stop\n        /* \"contracts/CarreraCoches/ownable.sol\":701:722  address public _owner */\n    tag_17:\n      callvalue\n      dup1\n      iszero\n      tag_98\n      jumpi\n      0x00\n      dup1\n      revert\n    tag_98:\n      pop\n      tag_99\n      tag_100\n      jump\t// in\n    tag_99:\n      mload(0x40)\n      tag_101\n      swap2\n      swap1\n      tag_38\n      jump\t// in\n    tag_101:\n      mload(0x40)\n      dup1\n      swap2\n      sub\n      swap1\n      return\n        /* \"contracts/CarreraCoches/cocheToken.sol\":1584:1718  function safeTransferFrom(address _from, address _to, uint256 _tokenId, bytes memory data) external override virtual payable{\r... */\n    tag_18:\n      tag_102\n      0x04\n      dup1\n      calldatasize\n      sub\n      dup2\n      add\n      swap1\n      tag_103\n      swap2\n      swap1\n      tag_104\n      jump\t// in\n    tag_103:\n      tag_105\n      jump\t// in\n    tag_102:\n      stop\n        /* \"contracts/CarreraCoches/principal.sol\":604:630  Coche[] public listaCoches */\n    tag_19:\n      callvalue\n      dup1\n      iszero\n      tag_106\n      jumpi\n      0x00\n      dup1\n      revert\n    tag_106:\n      pop\n      tag_107\n      0x04\n      dup1\n      calldatasize\n      sub\n      dup2\n      add\n      swap1\n      tag_108\n      swap2\n      swap1\n      tag_35\n      jump\t// in\n    tag_108:\n      tag_109\n      jump\t// in\n    tag_107:\n      mload(0x40)\n      tag_110\n      swap9\n      swap8\n      swap7\n      swap6\n      swap5\n      swap4\n      swap3\n      swap2\n      swap1\n      tag_111\n      jump\t// in\n    tag_110:\n      mload(0x40)\n      dup1\n      swap2\n      sub\n      swap1\n      return\n        /* \"contracts/CarreraCoches/principal.sol\":2989:3365  function verCochePropietario(address _propietario) external {\r... */\n    tag_20:\n      callvalue\n      dup1\n      iszero\n      tag_112\n      jumpi\n      0x00\n      dup1\n      revert\n    tag_112:\n      pop\n      tag_113\n      0x04\n      dup1\n      calldatasize\n      sub\n      dup2\n      add\n      swap1\n      tag_114\n      swap2\n      swap1\n      tag_46\n      jump\t// in\n    tag_114:\n      tag_115\n      jump\t// in\n    tag_113:\n      stop\n        /* \"contracts/CarreraCoches/cocheToken.sol\":2271:2387  function isApprovedForAll(address _owner, address _operator) external override virtual view returns (bool){\r... */\n    tag_21:\n      callvalue\n      dup1\n      iszero\n      tag_116\n      jumpi\n      0x00\n      dup1\n      revert\n    tag_116:\n      pop\n      tag_117\n      0x04\n      dup1\n      calldatasize\n      sub\n      dup2\n      add\n      swap1\n      tag_118\n      swap2\n      swap1\n      tag_119\n      jump\t// in\n    tag_118:\n      tag_120\n      jump\t// in\n    tag_117:\n      mload(0x40)\n      tag_121\n      swap2\n      swap1\n      tag_122\n      jump\t// in\n    tag_121:\n      mload(0x40)\n      dup1\n      swap2\n      sub\n      swap1\n      return\n        /* \"contracts/CarreraCoches/ownable.sol\":1977:2178  function transferOwnership(address newOwner) public virtual onlyOwner {\r... */\n    tag_22:\n      callvalue\n      dup1\n      iszero\n      tag_123\n      jumpi\n      0x00\n      dup1\n      revert\n    tag_123:\n      pop\n      tag_124\n      0x04\n      dup1\n      calldatasize\n      sub\n      dup2\n      add\n      swap1\n      tag_125\n      swap2\n      swap1\n      tag_46\n      jump\t// in\n    tag_125:\n      tag_126\n      jump\t// in\n    tag_124:\n      stop\n        /* \"contracts/CarreraCoches/principal.sol\":3448:3910  function comprarCoche(address _address, string memory _newModelo, string memory _newMarca) external payable returns(string memory) {\r... */\n    tag_29:\n        /* \"contracts/CarreraCoches/principal.sol\":3564:3577  string memory */\n      0x60\n        /* \"contracts/CarreraCoches/principal.sol\":3610:3618  _address */\n      dup4\n        /* \"contracts/CarreraCoches/principal.sol\":3598:3618  msg.sender==_address */\n      0xffffffffffffffffffffffffffffffffffffffff\n      and\n        /* \"contracts/CarreraCoches/principal.sol\":3598:3608  msg.sender */\n      caller\n        /* \"contracts/CarreraCoches/principal.sol\":3598:3618  msg.sender==_address */\n      0xffffffffffffffffffffffffffffffffffffffff\n      and\n      eq\n        /* \"contracts/CarreraCoches/principal.sol\":3590:3619  require(msg.sender==_address) */\n      tag_128\n      jumpi\n      0x00\n      dup1\n      revert\n    tag_128:\n        /* \"contracts/CarreraCoches/principal.sol\":3649:3662  cambiarCocheV */\n      sload(0x05)\n        /* \"contracts/CarreraCoches/principal.sol\":3638:3647  msg.value */\n      callvalue\n        /* \"contracts/CarreraCoches/principal.sol\":3638:3662  msg.value==cambiarCocheV */\n      eq\n        /* \"contracts/CarreraCoches/principal.sol\":3630:3663  require(msg.value==cambiarCocheV) */\n      tag_129\n      jumpi\n      0x00\n      dup1\n      revert\n    tag_129:\n        /* \"contracts/CarreraCoches/principal.sol\":3678:3684  uint i */\n      0x00\n        /* \"contracts/CarreraCoches/principal.sol\":3674:3903  for(uint i = 0; i < listaCoches.length; i++){\r... */\n    tag_130:\n        /* \"contracts/CarreraCoches/principal.sol\":3694:3705  listaCoches */\n      0x06\n        /* \"contracts/CarreraCoches/principal.sol\":3694:3712  listaCoches.length */\n      dup1\n      sload\n      swap1\n      pop\n        /* \"contracts/CarreraCoches/principal.sol\":3690:3691  i */\n      dup2\n        /* \"contracts/CarreraCoches/principal.sol\":3690:3712  i < listaCoches.length */\n      lt\n        /* \"contracts/CarreraCoches/principal.sol\":3674:3903  for(uint i = 0; i < listaCoches.length; i++){\r... */\n      iszero\n      tag_131\n      jumpi\n        /* \"contracts/CarreraCoches/principal.sol\":3761:3771  msg.sender */\n      caller\n        /* \"contracts/CarreraCoches/principal.sol\":3736:3771  listaCoches[i].idPiloto==msg.sender */\n      0xffffffffffffffffffffffffffffffffffffffff\n      and\n        /* \"contracts/CarreraCoches/principal.sol\":3736:3747  listaCoches */\n      0x06\n        /* \"contracts/CarreraCoches/principal.sol\":3748:3749  i */\n      dup3\n        /* \"contracts/CarreraCoches/principal.sol\":3736:3750  listaCoches[i] */\n      dup2\n      sload\n      dup2\n      lt\n      tag_133\n      jumpi\n      tag_134\n      tag_135\n      jump\t// in\n    tag_134:\n    tag_133:\n      swap1\n      0x00\n      mstore\n      keccak256(0x00, 0x20)\n      swap1\n      0x08\n      mul\n      add\n        /* \"contracts/CarreraCoches/principal.sol\":3736:3759  listaCoches[i].idPiloto */\n      0x00\n      add\n      0x00\n      swap1\n      sload\n      swap1\n      0x0100\n      exp\n      swap1\n      div\n      0xffffffffffffffffffffffffffffffffffffffff\n      and\n        /* \"contracts/CarreraCoches/principal.sol\":3736:3771  listaCoches[i].idPiloto==msg.sender */\n      0xffffffffffffffffffffffffffffffffffffffff\n      and\n      eq\n        /* \"contracts/CarreraCoches/principal.sol\":3733:3892  if(listaCoches[i].idPiloto==msg.sender){\r... */\n      iszero\n      tag_137\n      jumpi\n        /* \"contracts/CarreraCoches/principal.sol\":3815:3825  _newModelo */\n      dup4\n        /* \"contracts/CarreraCoches/principal.sol\":3791:3802  listaCoches */\n      0x06\n        /* \"contracts/CarreraCoches/principal.sol\":3803:3804  i */\n      dup3\n        /* \"contracts/CarreraCoches/principal.sol\":3791:3805  listaCoches[i] */\n      dup2\n      sload\n      dup2\n      lt\n      tag_138\n      jumpi\n      tag_139\n      tag_135\n      jump\t// in\n    tag_139:\n    tag_138:\n      swap1\n      0x00\n      mstore\n      keccak256(0x00, 0x20)\n      swap1\n      0x08\n      mul\n      add\n        /* \"contracts/CarreraCoches/principal.sol\":3791:3812  listaCoches[i].modelo */\n      0x01\n      add\n        /* \"contracts/CarreraCoches/principal.sol\":3791:3825  listaCoches[i].modelo = _newModelo */\n      swap1\n      dup1\n      mload\n      swap1\n      0x20\n      add\n      swap1\n      tag_141\n      swap3\n      swap2\n      swap1\n      tag_142\n      jump\t// in\n    tag_141:\n      pop\n        /* \"contracts/CarreraCoches/principal.sol\":3867:3876  _newMarca */\n      dup3\n        /* \"contracts/CarreraCoches/principal.sol\":3844:3855  listaCoches */\n      0x06\n        /* \"contracts/CarreraCoches/principal.sol\":3856:3857  i */\n      dup3\n        /* \"contracts/CarreraCoches/principal.sol\":3844:3858  listaCoches[i] */\n      dup2\n      sload\n      dup2\n      lt\n      tag_143\n      jumpi\n      tag_144\n      tag_135\n      jump\t// in\n    tag_144:\n    tag_143:\n      swap1\n      0x00\n      mstore\n      keccak256(0x00, 0x20)\n      swap1\n      0x08\n      mul\n      add\n        /* \"contracts/CarreraCoches/principal.sol\":3844:3864  listaCoches[i].marca */\n      0x02\n      add\n        /* \"contracts/CarreraCoches/principal.sol\":3844:3876  listaCoches[i].marca = _newMarca */\n      swap1\n      dup1\n      mload\n      swap1\n      0x20\n      add\n      swap1\n      tag_146\n      swap3\n      swap2\n      swap1\n      tag_142\n      jump\t// in\n    tag_146:\n      pop\n        /* \"contracts/CarreraCoches/principal.sol\":3733:3892  if(listaCoches[i].idPiloto==msg.sender){\r... */\n    tag_137:\n        /* \"contracts/CarreraCoches/principal.sol\":3714:3717  i++ */\n      dup1\n      dup1\n      tag_147\n      swap1\n      tag_148\n      jump\t// in\n    tag_147:\n      swap2\n      pop\n      pop\n        /* \"contracts/CarreraCoches/principal.sol\":3674:3903  for(uint i = 0; i < listaCoches.length; i++){\r... */\n      jump(tag_130)\n    tag_131:\n      pop\n        /* \"contracts/CarreraCoches/principal.sol\":3448:3910  function comprarCoche(address _address, string memory _newModelo, string memory _newMarca) external payable returns(string memory) {\r... */\n      swap4\n      swap3\n      pop\n      pop\n      pop\n      jump\t// out\n        /* \"contracts/CarreraCoches/cocheToken.sol\":2168:2265  function getApproved(uint256 _tokenId) external override virtual view returns (address){\r... */\n    tag_36:\n        /* \"contracts/CarreraCoches/cocheToken.sol\":2247:2254  address */\n      0x00\n        /* \"contracts/CarreraCoches/cocheToken.sol\":2168:2265  function getApproved(uint256 _tokenId) external override virtual view returns (address){\r... */\n      swap2\n      swap1\n      pop\n      jump\t// out\n        /* \"contracts/CarreraCoches/cocheToken.sol\":1962:2059  function approve(address _approved, uint256 _tokenId) external override virtual payable{\r... */\n    tag_42:\n      pop\n      pop\n      jump\t// out\n        /* \"contracts/CarreraCoches/principal.sol\":929:981  mapping (address => uint) public numeroCochesPersona */\n    tag_47:\n      mstore(0x20, 0x08)\n      dup1\n      0x00\n      mstore\n      keccak256(0x00, 0x40)\n      0x00\n      swap2\n      pop\n      swap1\n      pop\n      sload\n      dup2\n      jump\t// out\n        /* \"contracts/CarreraCoches/cocheToken.sol\":1845:1956  function transferFrom(address _from, address _to, uint256 _tokenId) external override virtual payable{\r... */\n    tag_53:\n      pop\n      pop\n      pop\n      jump\t// out\n        /* \"contracts/CarreraCoches/principal.sol\":1777:2217  function anadirCoche(string memory _modelo, string memory _marca, string memory _nombrePiloto) public restriccion returns (uint) {\r... */\n    tag_58:\n        /* \"contracts/CarreraCoches/principal.sol\":1900:1904  uint */\n      0x00\n        /* \"contracts/CarreraCoches/principal.sol\":1113:1114  1 */\n      0x01\n        /* \"contracts/CarreraCoches/principal.sol\":1079:1098  numeroCochesPersona */\n      0x08\n        /* \"contracts/CarreraCoches/principal.sol\":1079:1110  numeroCochesPersona[msg.sender] */\n      0x00\n        /* \"contracts/CarreraCoches/principal.sol\":1099:1109  msg.sender */\n      caller\n        /* \"contracts/CarreraCoches/principal.sol\":1079:1110  numeroCochesPersona[msg.sender] */\n      0xffffffffffffffffffffffffffffffffffffffff\n      and\n      0xffffffffffffffffffffffffffffffffffffffff\n      and\n      dup2\n      mstore\n      0x20\n      add\n      swap1\n      dup2\n      mstore\n      0x20\n      add\n      0x00\n      keccak256\n      sload\n        /* \"contracts/CarreraCoches/principal.sol\":1079:1114  numeroCochesPersona[msg.sender] < 1 */\n      lt\n        /* \"contracts/CarreraCoches/principal.sol\":1071:1159  require(numeroCochesPersona[msg.sender] < 1, \"Solo se puede tener un coche por persona\") */\n      tag_153\n      jumpi\n      mload(0x40)\n      0x08c379a000000000000000000000000000000000000000000000000000000000\n      dup2\n      mstore\n      0x04\n      add\n      tag_154\n      swap1\n      tag_155\n      jump\t// in\n    tag_154:\n      mload(0x40)\n      dup1\n      swap2\n      sub\n      swap1\n      revert\n    tag_153:\n        /* \"contracts/CarreraCoches/principal.sol\":1917:1928  listaCoches */\n      0x06\n        /* \"contracts/CarreraCoches/principal.sol\":1934:2028  Coche(msg.sender, _modelo, _marca, _nombrePiloto, 0, 0, uint32(block.timestamp + cooldown), 1) */\n      mload(0x40)\n      dup1\n      0x0100\n      add\n      0x40\n      mstore\n      dup1\n        /* \"contracts/CarreraCoches/principal.sol\":1940:1950  msg.sender */\n      caller\n        /* \"contracts/CarreraCoches/principal.sol\":1934:2028  Coche(msg.sender, _modelo, _marca, _nombrePiloto, 0, 0, uint32(block.timestamp + cooldown), 1) */\n      0xffffffffffffffffffffffffffffffffffffffff\n      and\n      dup2\n      mstore\n      0x20\n      add\n        /* \"contracts/CarreraCoches/principal.sol\":1952:1959  _modelo */\n      dup7\n        /* \"contracts/CarreraCoches/principal.sol\":1934:2028  Coche(msg.sender, _modelo, _marca, _nombrePiloto, 0, 0, uint32(block.timestamp + cooldown), 1) */\n      dup2\n      mstore\n      0x20\n      add\n        /* \"contracts/CarreraCoches/principal.sol\":1961:1967  _marca */\n      dup6\n        /* \"contracts/CarreraCoches/principal.sol\":1934:2028  Coche(msg.sender, _modelo, _marca, _nombrePiloto, 0, 0, uint32(block.timestamp + cooldown), 1) */\n      dup2\n      mstore\n      0x20\n      add\n        /* \"contracts/CarreraCoches/principal.sol\":1969:1982  _nombrePiloto */\n      dup5\n        /* \"contracts/CarreraCoches/principal.sol\":1934:2028  Coche(msg.sender, _modelo, _marca, _nombrePiloto, 0, 0, uint32(block.timestamp + cooldown), 1) */\n      dup2\n      mstore\n      0x20\n      add\n        /* \"contracts/CarreraCoches/principal.sol\":1984:1985  0 */\n      0x00\n        /* \"contracts/CarreraCoches/principal.sol\":1934:2028  Coche(msg.sender, _modelo, _marca, _nombrePiloto, 0, 0, uint32(block.timestamp + cooldown), 1) */\n      dup2\n      mstore\n      0x20\n      add\n        /* \"contracts/CarreraCoches/principal.sol\":1987:1988  0 */\n      0x00\n        /* \"contracts/CarreraCoches/principal.sol\":1934:2028  Coche(msg.sender, _modelo, _marca, _nombrePiloto, 0, 0, uint32(block.timestamp + cooldown), 1) */\n      dup2\n      mstore\n      0x20\n      add\n        /* \"contracts/CarreraCoches/principal.sol\":2015:2023  cooldown */\n      sload(0x03)\n        /* \"contracts/CarreraCoches/principal.sol\":1997:2012  block.timestamp */\n      timestamp\n        /* \"contracts/CarreraCoches/principal.sol\":1997:2023  block.timestamp + cooldown */\n      tag_157\n      swap2\n      swap1\n      tag_158\n      jump\t// in\n    tag_157:\n        /* \"contracts/CarreraCoches/principal.sol\":1934:2028  Coche(msg.sender, _modelo, _marca, _nombrePiloto, 0, 0, uint32(block.timestamp + cooldown), 1) */\n      0xffffffff\n      and\n      dup2\n      mstore\n      0x20\n      add\n        /* \"contracts/CarreraCoches/principal.sol\":2026:2027  1 */\n      0x01\n        /* \"contracts/CarreraCoches/principal.sol\":1934:2028  Coche(msg.sender, _modelo, _marca, _nombrePiloto, 0, 0, uint32(block.timestamp + cooldown), 1) */\n      0xffffffff\n      and\n      dup2\n      mstore\n      pop\n        /* \"contracts/CarreraCoches/principal.sol\":1917:2029  listaCoches.push(Coche(msg.sender, _modelo, _marca, _nombrePiloto, 0, 0, uint32(block.timestamp + cooldown), 1)) */\n      swap1\n      dup1\n      0x01\n      dup2\n      sload\n      add\n      dup1\n      dup3\n      sstore\n      dup1\n      swap2\n      pop\n      pop\n      0x01\n      swap1\n      sub\n      swap1\n      0x00\n      mstore\n      keccak256(0x00, 0x20)\n      swap1\n      0x08\n      mul\n      add\n      0x00\n      swap1\n      swap2\n      swap1\n      swap2\n      swap1\n      swap2\n      pop\n      0x00\n      dup3\n      add\n      mload\n      dup2\n      0x00\n      add\n      exp(0x0100, 0x00)\n      dup2\n      sload\n      dup2\n      0xffffffffffffffffffffffffffffffffffffffff\n      mul\n      not\n      and\n      swap1\n      dup4\n      0xffffffffffffffffffffffffffffffffffffffff\n      and\n      mul\n      or\n      swap1\n      sstore\n      pop\n      0x20\n      dup3\n      add\n      mload\n      dup2\n      0x01\n      add\n      swap1\n      dup1\n      mload\n      swap1\n      0x20\n      add\n      swap1\n      tag_160\n      swap3\n      swap2\n      swap1\n      tag_142\n      jump\t// in\n    tag_160:\n      pop\n      0x40\n      dup3\n      add\n      mload\n      dup2\n      0x02\n      add\n      swap1\n      dup1\n      mload\n      swap1\n      0x20\n      add\n      swap1\n      tag_161\n      swap3\n      swap2\n      swap1\n      tag_142\n      jump\t// in\n    tag_161:\n      pop\n      0x60\n      dup3\n      add\n      mload\n      dup2\n      0x03\n      add\n      swap1\n      dup1\n      mload\n      swap1\n      0x20\n      add\n      swap1\n      tag_162\n      swap3\n      swap2\n      swap1\n      tag_142\n      jump\t// in\n    tag_162:\n      pop\n      0x80\n      dup3\n      add\n      mload\n      dup2\n      0x04\n      add\n      sstore\n      0xa0\n      dup3\n      add\n      mload\n      dup2\n      0x05\n      add\n      sstore\n      0xc0\n      dup3\n      add\n      mload\n      dup2\n      0x06\n      add\n      sstore\n      0xe0\n      dup3\n      add\n      mload\n      dup2\n      0x07\n      add\n      exp(0x0100, 0x00)\n      dup2\n      sload\n      dup2\n      0xffffffff\n      mul\n      not\n      and\n      swap1\n      dup4\n      0xffffffff\n      and\n      mul\n      or\n      swap1\n      sstore\n      pop\n      pop\n      pop\n        /* \"contracts/CarreraCoches/principal.sol\":2040:2047  uint id */\n      0x00\n        /* \"contracts/CarreraCoches/principal.sol\":2050:2061  listaCoches */\n      0x06\n        /* \"contracts/CarreraCoches/principal.sol\":2050:2068  listaCoches.length */\n      dup1\n      sload\n      swap1\n      pop\n        /* \"contracts/CarreraCoches/principal.sol\":2040:2068  uint id = listaCoches.length */\n      swap1\n      pop\n        /* \"contracts/CarreraCoches/principal.sol\":2104:2114  msg.sender */\n      caller\n        /* \"contracts/CarreraCoches/principal.sol\":2079:2097  cocheDePropietario */\n      0x07\n        /* \"contracts/CarreraCoches/principal.sol\":2079:2101  cocheDePropietario[id] */\n      0x00\n        /* \"contracts/CarreraCoches/principal.sol\":2098:2100  id */\n      dup4\n        /* \"contracts/CarreraCoches/principal.sol\":2079:2101  cocheDePropietario[id] */\n      dup2\n      mstore\n      0x20\n      add\n      swap1\n      dup2\n      mstore\n      0x20\n      add\n      0x00\n      keccak256\n      0x00\n        /* \"contracts/CarreraCoches/principal.sol\":2079:2114  cocheDePropietario[id] = msg.sender */\n      0x0100\n      exp\n      dup2\n      sload\n      dup2\n      0xffffffffffffffffffffffffffffffffffffffff\n      mul\n      not\n      and\n      swap1\n      dup4\n      0xffffffffffffffffffffffffffffffffffffffff\n      and\n      mul\n      or\n      swap1\n      sstore\n      pop\n        /* \"contracts/CarreraCoches/principal.sol\":2125:2144  numeroCochesPersona */\n      0x08\n        /* \"contracts/CarreraCoches/principal.sol\":2125:2156  numeroCochesPersona[msg.sender] */\n      0x00\n        /* \"contracts/CarreraCoches/principal.sol\":2145:2155  msg.sender */\n      caller\n        /* \"contracts/CarreraCoches/principal.sol\":2125:2156  numeroCochesPersona[msg.sender] */\n      0xffffffffffffffffffffffffffffffffffffffff\n      and\n      0xffffffffffffffffffffffffffffffffffffffff\n      and\n      dup2\n      mstore\n      0x20\n      add\n      swap1\n      dup2\n      mstore\n      0x20\n      add\n      0x00\n      keccak256\n      0x00\n        /* \"contracts/CarreraCoches/principal.sol\":2125:2158  numeroCochesPersona[msg.sender]++ */\n      dup2\n      sload\n      dup1\n      swap3\n      swap2\n      swap1\n      tag_163\n      swap1\n      tag_148\n      jump\t// in\n    tag_163:\n      swap2\n      swap1\n      pop\n      sstore\n      pop\n        /* \"contracts/CarreraCoches/principal.sol\":2169:2177  contador */\n      0x02\n      0x00\n        /* \"contracts/CarreraCoches/principal.sol\":2169:2179  contador++ */\n      dup2\n      sload\n      dup1\n      swap3\n      swap2\n      swap1\n      tag_164\n      swap1\n      tag_148\n      jump\t// in\n    tag_164:\n      swap2\n      swap1\n      pop\n      sstore\n      pop\n        /* \"contracts/CarreraCoches/principal.sol\":2208:2209  1 */\n      0x01\n        /* \"contracts/CarreraCoches/principal.sol\":2197:2205  contador */\n      sload(0x02)\n        /* \"contracts/CarreraCoches/principal.sol\":2197:2209  contador - 1 */\n      tag_165\n      swap2\n      swap1\n      tag_166\n      jump\t// in\n    tag_165:\n        /* \"contracts/CarreraCoches/principal.sol\":2190:2209  return contador - 1 */\n      swap2\n      pop\n      pop\n        /* \"contracts/CarreraCoches/principal.sol\":1777:2217  function anadirCoche(string memory _modelo, string memory _marca, string memory _nombrePiloto) public restriccion returns (uint) {\r... */\n      swap4\n      swap3\n      pop\n      pop\n      pop\n      jump\t// out\n        /* \"contracts/CarreraCoches/cocheToken.sol\":1724:1839  function safeTransferFrom(address _from, address _to, uint256 _tokenId) external override virtual payable{\r... */\n    tag_62:\n      pop\n      pop\n      pop\n      jump\t// out\n        /* \"contracts/CarreraCoches/cocheToken.sol\":1485:1578  function ownerOf(uint256 _tokenId) external override virtual view returns (address){\r... */\n    tag_66:\n        /* \"contracts/CarreraCoches/cocheToken.sol\":1560:1567  address */\n      0x00\n        /* \"contracts/CarreraCoches/cocheToken.sol\":1485:1578  function ownerOf(uint256 _tokenId) external override virtual view returns (address){\r... */\n      swap2\n      swap1\n      pop\n      jump\t// out\n        /* \"contracts/CarreraCoches/principal.sol\":2586:2945  function subirDeNivel(address _propietario) external payable returns(string memory) {\r... */\n    tag_70:\n        /* \"contracts/CarreraCoches/principal.sol\":2655:2668  string memory */\n      0x60\n        /* \"contracts/CarreraCoches/principal.sol\":2700:2710  subirNivel */\n      sload(0x04)\n        /* \"contracts/CarreraCoches/principal.sol\":2689:2698  msg.value */\n      callvalue\n        /* \"contracts/CarreraCoches/principal.sol\":2689:2710  msg.value==subirNivel */\n      eq\n        /* \"contracts/CarreraCoches/principal.sol\":2681:2711  require(msg.value==subirNivel) */\n      tag_170\n      jumpi\n      0x00\n      dup1\n      revert\n    tag_170:\n        /* \"contracts/CarreraCoches/principal.sol\":2726:2732  uint i */\n      0x00\n        /* \"contracts/CarreraCoches/principal.sol\":2722:2938  for(uint i = 0; i < listaCoches.length; i++){\r... */\n    tag_171:\n        /* \"contracts/CarreraCoches/principal.sol\":2742:2753  listaCoches */\n      0x06\n        /* \"contracts/CarreraCoches/principal.sol\":2742:2760  listaCoches.length */\n      dup1\n      sload\n      swap1\n      pop\n        /* \"contracts/CarreraCoches/principal.sol\":2738:2739  i */\n      dup2\n        /* \"contracts/CarreraCoches/principal.sol\":2738:2760  i < listaCoches.length */\n      lt\n        /* \"contracts/CarreraCoches/principal.sol\":2722:2938  for(uint i = 0; i < listaCoches.length; i++){\r... */\n      iszero\n      tag_172\n      jumpi\n        /* \"contracts/CarreraCoches/principal.sol\":2811:2823  _propietario */\n      dup3\n        /* \"contracts/CarreraCoches/principal.sol\":2784:2823  listaCoches[i].idPiloto == _propietario */\n      0xffffffffffffffffffffffffffffffffffffffff\n      and\n        /* \"contracts/CarreraCoches/principal.sol\":2784:2795  listaCoches */\n      0x06\n        /* \"contracts/CarreraCoches/principal.sol\":2796:2797  i */\n      dup3\n        /* \"contracts/CarreraCoches/principal.sol\":2784:2798  listaCoches[i] */\n      dup2\n      sload\n      dup2\n      lt\n      tag_174\n      jumpi\n      tag_175\n      tag_135\n      jump\t// in\n    tag_175:\n    tag_174:\n      swap1\n      0x00\n      mstore\n      keccak256(0x00, 0x20)\n      swap1\n      0x08\n      mul\n      add\n        /* \"contracts/CarreraCoches/principal.sol\":2784:2807  listaCoches[i].idPiloto */\n      0x00\n      add\n      0x00\n      swap1\n      sload\n      swap1\n      0x0100\n      exp\n      swap1\n      div\n      0xffffffffffffffffffffffffffffffffffffffff\n      and\n        /* \"contracts/CarreraCoches/principal.sol\":2784:2823  listaCoches[i].idPiloto == _propietario */\n      0xffffffffffffffffffffffffffffffffffffffff\n      and\n      eq\n        /* \"contracts/CarreraCoches/principal.sol\":2781:2927  if(listaCoches[i].idPiloto == _propietario){\r... */\n      iszero\n      tag_177\n      jumpi\n        /* \"contracts/CarreraCoches/principal.sol\":2843:2854  listaCoches */\n      0x06\n        /* \"contracts/CarreraCoches/principal.sol\":2855:2856  i */\n      dup2\n        /* \"contracts/CarreraCoches/principal.sol\":2843:2857  listaCoches[i] */\n      dup2\n      sload\n      dup2\n      lt\n      tag_178\n      jumpi\n      tag_179\n      tag_135\n      jump\t// in\n    tag_179:\n    tag_178:\n      swap1\n      0x00\n      mstore\n      keccak256(0x00, 0x20)\n      swap1\n      0x08\n      mul\n      add\n        /* \"contracts/CarreraCoches/principal.sol\":2843:2863  listaCoches[i].nivel */\n      0x07\n      add\n      0x00\n        /* \"contracts/CarreraCoches/principal.sol\":2843:2865  listaCoches[i].nivel++ */\n      dup2\n      dup2\n      swap1\n      sload\n      swap1\n      0x0100\n      exp\n      swap1\n      div\n      0xffffffff\n      and\n      dup1\n      swap3\n      swap2\n      swap1\n      tag_181\n      swap1\n      tag_182\n      jump\t// in\n    tag_181:\n      swap2\n      swap1\n      0x0100\n      exp\n      dup2\n      sload\n      dup2\n      0xffffffff\n      mul\n      not\n      and\n      swap1\n      dup4\n      0xffffffff\n      and\n      mul\n      or\n      swap1\n      sstore\n      pop\n      pop\n        /* \"contracts/CarreraCoches/principal.sol\":2884:2911  return \"Ha subido de nivel\" */\n      mload(0x40)\n      dup1\n      0x40\n      add\n      0x40\n      mstore\n      dup1\n      0x12\n      dup2\n      mstore\n      0x20\n      add\n      0x48612073756269646f206465206e6976656c0000000000000000000000000000\n      dup2\n      mstore\n      pop\n      swap2\n      pop\n      pop\n      jump(tag_169)\n        /* \"contracts/CarreraCoches/principal.sol\":2781:2927  if(listaCoches[i].idPiloto == _propietario){\r... */\n    tag_177:\n        /* \"contracts/CarreraCoches/principal.sol\":2762:2765  i++ */\n      dup1\n      dup1\n      tag_183\n      swap1\n      tag_148\n      jump\t// in\n    tag_183:\n      swap2\n      pop\n      pop\n        /* \"contracts/CarreraCoches/principal.sol\":2722:2938  for(uint i = 0; i < listaCoches.length; i++){\r... */\n      jump(tag_171)\n    tag_172:\n      pop\n        /* \"contracts/CarreraCoches/principal.sol\":2586:2945  function subirDeNivel(address _propietario) external payable returns(string memory) {\r... */\n    tag_169:\n      swap2\n      swap1\n      pop\n      jump\t// out\n        /* \"contracts/CarreraCoches/principal.sol\":3968:7314  function Apostar(uint dineroApostar) public payable returns(string memory) {\r... */\n    tag_74:\n        /* \"contracts/CarreraCoches/principal.sol\":4028:4041  string memory */\n      0x60\n        /* \"contracts/CarreraCoches/principal.sol\":4087:4088  1 */\n      0x01\n        /* \"contracts/CarreraCoches/principal.sol\":4065:4076  listaCoches */\n      0x06\n        /* \"contracts/CarreraCoches/principal.sol\":4065:4083  listaCoches.length */\n      dup1\n      sload\n      swap1\n      pop\n        /* \"contracts/CarreraCoches/principal.sol\":4065:4088  listaCoches.length <= 1 */\n      gt\n        /* \"contracts/CarreraCoches/principal.sol\":4062:7308  if(listaCoches.length <= 1){\r... */\n      tag_185\n      jumpi\n        /* \"contracts/CarreraCoches/principal.sol\":4108:4187  confirmacionDepositoLleno(\"No hay coches suficientes para iniciar una carrera\") */\n      0x6158fc8f21c8cc73ddf920956cc75d0e8a48b4fc85817a0ba89eb3b6d2a75441\n      mload(0x40)\n      tag_186\n      swap1\n      tag_187\n      jump\t// in\n    tag_186:\n      mload(0x40)\n      dup1\n      swap2\n      sub\n      swap1\n      log1\n        /* \"contracts/CarreraCoches/principal.sol\":4062:7308  if(listaCoches.length <= 1){\r... */\n      jump(tag_188)\n    tag_185:\n        /* \"contracts/CarreraCoches/principal.sol\":4238:4251  dineroApostar */\n      dup2\n        /* \"contracts/CarreraCoches/principal.sol\":4225:4234  msg.value */\n      callvalue\n        /* \"contracts/CarreraCoches/principal.sol\":4225:4251  msg.value == dineroApostar */\n      eq\n        /* \"contracts/CarreraCoches/principal.sol\":4217:4252  require(msg.value == dineroApostar) */\n      tag_189\n      jumpi\n      0x00\n      dup1\n      revert\n    tag_189:\n        /* \"contracts/CarreraCoches/principal.sol\":4267:4276  randNonce */\n      0x01\n      0x00\n        /* \"contracts/CarreraCoches/principal.sol\":4267:4278  randNonce++ */\n      dup2\n      sload\n      dup1\n      swap3\n      swap2\n      swap1\n      tag_190\n      swap1\n      tag_148\n      jump\t// in\n    tag_190:\n      swap2\n      swap1\n      pop\n      sstore\n      pop\n        /* \"contracts/CarreraCoches/principal.sol\":4333:4346  uint256 rival */\n      0x00\n        /* \"contracts/CarreraCoches/principal.sol\":4436:4447  listaCoches */\n      0x06\n        /* \"contracts/CarreraCoches/principal.sol\":4436:4454  listaCoches.length */\n      dup1\n      sload\n      swap1\n      pop\n        /* \"contracts/CarreraCoches/principal.sol\":4384:4399  block.timestamp */\n      timestamp\n        /* \"contracts/CarreraCoches/principal.sol\":4401:4412  listaCoches */\n      0x06\n        /* \"contracts/CarreraCoches/principal.sol\":4401:4419  listaCoches.length */\n      dup1\n      sload\n      swap1\n      pop\n        /* \"contracts/CarreraCoches/principal.sol\":4421:4430  randNonce */\n      sload(0x01)\n        /* \"contracts/CarreraCoches/principal.sol\":4367:4431  abi.encodePacked(block.timestamp, listaCoches.length, randNonce) */\n      add(0x20, mload(0x40))\n      tag_191\n      swap4\n      swap3\n      swap2\n      swap1\n      tag_192\n      jump\t// in\n    tag_191:\n      mload(0x40)\n      0x20\n      dup2\n      dup4\n      sub\n      sub\n      dup2\n      mstore\n      swap1\n      0x40\n      mstore\n        /* \"contracts/CarreraCoches/principal.sol\":4357:4432  keccak256(abi.encodePacked(block.timestamp, listaCoches.length, randNonce)) */\n      dup1\n      mload\n      swap1\n      0x20\n      add\n      keccak256\n        /* \"contracts/CarreraCoches/principal.sol\":4349:4433  uint256(keccak256(abi.encodePacked(block.timestamp, listaCoches.length, randNonce))) */\n      0x00\n      shr\n        /* \"contracts/CarreraCoches/principal.sol\":4349:4454  uint256(keccak256(abi.encodePacked(block.timestamp, listaCoches.length, randNonce))) % listaCoches.length */\n      tag_193\n      swap2\n      swap1\n      tag_194\n      jump\t// in\n    tag_193:\n        /* \"contracts/CarreraCoches/principal.sol\":4333:4454  uint256 rival = uint256(keccak256(abi.encodePacked(block.timestamp, listaCoches.length, randNonce))) % listaCoches.length */\n      swap1\n      pop\n        /* \"contracts/CarreraCoches/principal.sol\":4469:4489  address addressRival */\n      0x00\n        /* \"contracts/CarreraCoches/principal.sol\":4492:4510  cocheDePropietario */\n      0x07\n        /* \"contracts/CarreraCoches/principal.sol\":4492:4517  cocheDePropietario[rival] */\n      0x00\n        /* \"contracts/CarreraCoches/principal.sol\":4511:4516  rival */\n      dup4\n        /* \"contracts/CarreraCoches/principal.sol\":4492:4517  cocheDePropietario[rival] */\n      dup2\n      mstore\n      0x20\n      add\n      swap1\n      dup2\n      mstore\n      0x20\n      add\n      0x00\n      keccak256\n      0x00\n      swap1\n      sload\n      swap1\n      0x0100\n      exp\n      swap1\n      div\n      0xffffffffffffffffffffffffffffffffffffffff\n      and\n        /* \"contracts/CarreraCoches/principal.sol\":4469:4517  address addressRival = cocheDePropietario[rival] */\n      swap1\n      pop\n        /* \"contracts/CarreraCoches/principal.sol\":4568:4577  randNonce */\n      0x01\n      0x00\n        /* \"contracts/CarreraCoches/principal.sol\":4568:4579  randNonce++ */\n      dup2\n      sload\n      dup1\n      swap3\n      swap2\n      swap1\n      tag_195\n      swap1\n      tag_148\n      jump\t// in\n    tag_195:\n      swap2\n      swap1\n      pop\n      sstore\n      pop\n        /* \"contracts/CarreraCoches/principal.sol\":4594:4605  uint numero */\n      0x00\n        /* \"contracts/CarreraCoches/principal.sol\":4608:4611  100 */\n      0x64\n        /* \"contracts/CarreraCoches/principal.sol\":4594:4611  uint numero = 100 */\n      swap1\n      pop\n        /* \"contracts/CarreraCoches/principal.sol\":4626:4641  uint256 ganador */\n      0x00\n        /* \"contracts/CarreraCoches/principal.sol\":4719:4725  numero */\n      dup2\n        /* \"contracts/CarreraCoches/principal.sol\":4679:4694  block.timestamp */\n      timestamp\n        /* \"contracts/CarreraCoches/principal.sol\":4696:4702  numero */\n      dup4\n        /* \"contracts/CarreraCoches/principal.sol\":4704:4713  randNonce */\n      sload(0x01)\n        /* \"contracts/CarreraCoches/principal.sol\":4662:4714  abi.encodePacked(block.timestamp, numero, randNonce) */\n      add(0x20, mload(0x40))\n      tag_196\n      swap4\n      swap3\n      swap2\n      swap1\n      tag_192\n      jump\t// in\n    tag_196:\n      mload(0x40)\n      0x20\n      dup2\n      dup4\n      sub\n      sub\n      dup2\n      mstore\n      swap1\n      0x40\n      mstore\n        /* \"contracts/CarreraCoches/principal.sol\":4652:4715  keccak256(abi.encodePacked(block.timestamp, numero, randNonce)) */\n      dup1\n      mload\n      swap1\n      0x20\n      add\n      keccak256\n        /* \"contracts/CarreraCoches/principal.sol\":4644:4716  uint256(keccak256(abi.encodePacked(block.timestamp, numero, randNonce))) */\n      0x00\n      shr\n        /* \"contracts/CarreraCoches/principal.sol\":4644:4725  uint256(keccak256(abi.encodePacked(block.timestamp, numero, randNonce))) % numero */\n      tag_197\n      swap2\n      swap1\n      tag_194\n      jump\t// in\n    tag_197:\n        /* \"contracts/CarreraCoches/principal.sol\":4626:4725  uint256 ganador = uint256(keccak256(abi.encodePacked(block.timestamp, numero, randNonce))) % numero */\n      swap1\n      pop\n        /* \"contracts/CarreraCoches/principal.sol\":4746:4752  uint i */\n      0x00\n        /* \"contracts/CarreraCoches/principal.sol\":4742:7297  for(uint i = 0; i < listaCoches.length; i++){\r... */\n    tag_198:\n        /* \"contracts/CarreraCoches/principal.sol\":4762:4773  listaCoches */\n      0x06\n        /* \"contracts/CarreraCoches/principal.sol\":4762:4780  listaCoches.length */\n      dup1\n      sload\n      swap1\n      pop\n        /* \"contracts/CarreraCoches/principal.sol\":4758:4759  i */\n      dup2\n        /* \"contracts/CarreraCoches/principal.sol\":4758:4780  i < listaCoches.length */\n      lt\n        /* \"contracts/CarreraCoches/principal.sol\":4742:7297  for(uint i = 0; i < listaCoches.length; i++){\r... */\n      iszero\n      tag_199\n      jumpi\n        /* \"contracts/CarreraCoches/principal.sol\":4859:4870  listaCoches */\n      0x06\n        /* \"contracts/CarreraCoches/principal.sol\":4871:4872  i */\n      dup2\n        /* \"contracts/CarreraCoches/principal.sol\":4859:4873  listaCoches[i] */\n      dup2\n      sload\n      dup2\n      lt\n      tag_201\n      jumpi\n      tag_202\n      tag_135\n      jump\t// in\n    tag_202:\n    tag_201:\n      swap1\n      0x00\n      mstore\n      keccak256(0x00, 0x20)\n      swap1\n      0x08\n      mul\n      add\n        /* \"contracts/CarreraCoches/principal.sol\":4859:4882  listaCoches[i].idPiloto */\n      0x00\n      add\n      0x00\n      swap1\n      sload\n      swap1\n      0x0100\n      exp\n      swap1\n      div\n      0xffffffffffffffffffffffffffffffffffffffff\n      and\n        /* \"contracts/CarreraCoches/principal.sol\":4845:4882  msg.sender == listaCoches[i].idPiloto */\n      0xffffffffffffffffffffffffffffffffffffffff\n      and\n        /* \"contracts/CarreraCoches/principal.sol\":4845:4855  msg.sender */\n      caller\n        /* \"contracts/CarreraCoches/principal.sol\":4845:4882  msg.sender == listaCoches[i].idPiloto */\n      0xffffffffffffffffffffffffffffffffffffffff\n      and\n      eq\n        /* \"contracts/CarreraCoches/principal.sol\":4841:7264  if (msg.sender == listaCoches[i].idPiloto) {\r... */\n      iszero\n      tag_204\n      jumpi\n        /* \"contracts/CarreraCoches/principal.sol\":4915:4945  _depositoLleno(listaCoches[i]) */\n      tag_205\n        /* \"contracts/CarreraCoches/principal.sol\":4930:4941  listaCoches */\n      0x06\n        /* \"contracts/CarreraCoches/principal.sol\":4942:4943  i */\n      dup3\n        /* \"contracts/CarreraCoches/principal.sol\":4930:4944  listaCoches[i] */\n      dup2\n      sload\n      dup2\n      lt\n      tag_206\n      jumpi\n      tag_207\n      tag_135\n      jump\t// in\n    tag_207:\n    tag_206:\n      swap1\n      0x00\n      mstore\n      keccak256(0x00, 0x20)\n      swap1\n      0x08\n      mul\n      add\n        /* \"contracts/CarreraCoches/principal.sol\":4915:4929  _depositoLleno */\n      tag_209\n        /* \"contracts/CarreraCoches/principal.sol\":4915:4945  _depositoLleno(listaCoches[i]) */\n      jump\t// in\n    tag_205:\n        /* \"contracts/CarreraCoches/principal.sol\":4907:4946  require(_depositoLleno(listaCoches[i])) */\n      tag_210\n      jumpi\n      0x00\n      dup1\n      revert\n    tag_210:\n        /* \"contracts/CarreraCoches/principal.sol\":4969:4980  listaCoches */\n      0x06\n        /* \"contracts/CarreraCoches/principal.sol\":4981:4982  i */\n      dup2\n        /* \"contracts/CarreraCoches/principal.sol\":4969:4983  listaCoches[i] */\n      dup2\n      sload\n      dup2\n      lt\n      tag_211\n      jumpi\n      tag_212\n      tag_135\n      jump\t// in\n    tag_212:\n    tag_211:\n      swap1\n      0x00\n      mstore\n      keccak256(0x00, 0x20)\n      swap1\n      0x08\n      mul\n      add\n        /* \"contracts/CarreraCoches/principal.sol\":4969:4999  listaCoches[i].carrerasTotales */\n      0x05\n      add\n      0x00\n        /* \"contracts/CarreraCoches/principal.sol\":4969:5001  listaCoches[i].carrerasTotales++ */\n      dup2\n      sload\n      dup1\n      swap3\n      swap2\n      swap1\n      tag_214\n      swap1\n      tag_148\n      jump\t// in\n    tag_214:\n      swap2\n      swap1\n      pop\n      sstore\n      pop\n        /* \"contracts/CarreraCoches/principal.sol\":5024:5035  listaCoches */\n      0x06\n        /* \"contracts/CarreraCoches/principal.sol\":5036:5041  rival */\n      dup6\n        /* \"contracts/CarreraCoches/principal.sol\":5024:5042  listaCoches[rival] */\n      dup2\n      sload\n      dup2\n      lt\n      tag_215\n      jumpi\n      tag_216\n      tag_135\n      jump\t// in\n    tag_216:\n    tag_215:\n      swap1\n      0x00\n      mstore\n      keccak256(0x00, 0x20)\n      swap1\n      0x08\n      mul\n      add\n        /* \"contracts/CarreraCoches/principal.sol\":5024:5058  listaCoches[rival].carrerasTotales */\n      0x05\n      add\n      0x00\n        /* \"contracts/CarreraCoches/principal.sol\":5024:5060  listaCoches[rival].carrerasTotales++ */\n      dup2\n      sload\n      dup1\n      swap3\n      swap2\n      swap1\n      tag_218\n      swap1\n      tag_148\n      jump\t// in\n    tag_218:\n      swap2\n      swap1\n      pop\n      sstore\n      pop\n        /* \"contracts/CarreraCoches/principal.sol\":5083:5110  _repostando(listaCoches[i]) */\n      tag_219\n        /* \"contracts/CarreraCoches/principal.sol\":5095:5106  listaCoches */\n      0x06\n        /* \"contracts/CarreraCoches/principal.sol\":5107:5108  i */\n      dup3\n        /* \"contracts/CarreraCoches/principal.sol\":5095:5109  listaCoches[i] */\n      dup2\n      sload\n      dup2\n      lt\n      tag_220\n      jumpi\n      tag_221\n      tag_135\n      jump\t// in\n    tag_221:\n    tag_220:\n      swap1\n      0x00\n      mstore\n      keccak256(0x00, 0x20)\n      swap1\n      0x08\n      mul\n      add\n        /* \"contracts/CarreraCoches/principal.sol\":5083:5094  _repostando */\n      tag_223\n        /* \"contracts/CarreraCoches/principal.sol\":5083:5110  _repostando(listaCoches[i]) */\n      jump\t// in\n    tag_219:\n        /* \"contracts/CarreraCoches/principal.sol\":5163:5174  listaCoches */\n      0x06\n        /* \"contracts/CarreraCoches/principal.sol\":5175:5176  i */\n      dup2\n        /* \"contracts/CarreraCoches/principal.sol\":5163:5177  listaCoches[i] */\n      dup2\n      sload\n      dup2\n      lt\n      tag_224\n      jumpi\n      tag_225\n      tag_135\n      jump\t// in\n    tag_225:\n    tag_224:\n      swap1\n      0x00\n      mstore\n      keccak256(0x00, 0x20)\n      swap1\n      0x08\n      mul\n      add\n        /* \"contracts/CarreraCoches/principal.sol\":5163:5183  listaCoches[i].nivel */\n      0x07\n      add\n      0x00\n      swap1\n      sload\n      swap1\n      0x0100\n      exp\n      swap1\n      div\n      0xffffffff\n      and\n        /* \"contracts/CarreraCoches/principal.sol\":5136:5183  listaCoches[rival].nivel < listaCoches[i].nivel */\n      0xffffffff\n      and\n        /* \"contracts/CarreraCoches/principal.sol\":5136:5147  listaCoches */\n      0x06\n        /* \"contracts/CarreraCoches/principal.sol\":5148:5153  rival */\n      dup7\n        /* \"contracts/CarreraCoches/principal.sol\":5136:5154  listaCoches[rival] */\n      dup2\n      sload\n      dup2\n      lt\n      tag_227\n      jumpi\n      tag_228\n      tag_135\n      jump\t// in\n    tag_228:\n    tag_227:\n      swap1\n      0x00\n      mstore\n      keccak256(0x00, 0x20)\n      swap1\n      0x08\n      mul\n      add\n        /* \"contracts/CarreraCoches/principal.sol\":5136:5160  listaCoches[rival].nivel */\n      0x07\n      add\n      0x00\n      swap1\n      sload\n      swap1\n      0x0100\n      exp\n      swap1\n      div\n      0xffffffff\n      and\n        /* \"contracts/CarreraCoches/principal.sol\":5136:5183  listaCoches[rival].nivel < listaCoches[i].nivel */\n      0xffffffff\n      and\n      lt\n        /* \"contracts/CarreraCoches/principal.sol\":5133:7241  if(listaCoches[rival].nivel < listaCoches[i].nivel){\r... */\n      iszero\n      tag_230\n      jumpi\n        /* \"contracts/CarreraCoches/principal.sol\":5223:5225  60 */\n      0x3c\n        /* \"contracts/CarreraCoches/principal.sol\":5214:5221  ganador */\n      dup3\n        /* \"contracts/CarreraCoches/principal.sol\":5214:5225  ganador<=60 */\n      gt\n        /* \"contracts/CarreraCoches/principal.sol\":5211:5784  if(ganador<=60){\r... */\n      tag_231\n      jumpi\n        /* \"contracts/CarreraCoches/principal.sol\":5257:5266  balance() */\n      tag_232\n        /* \"contracts/CarreraCoches/principal.sol\":5257:5264  balance */\n      tag_233\n        /* \"contracts/CarreraCoches/principal.sol\":5257:5266  balance() */\n      jump\t// in\n    tag_232:\n        /* \"contracts/CarreraCoches/principal.sol\":5297:5308  listaCoches */\n      0x06\n        /* \"contracts/CarreraCoches/principal.sol\":5309:5310  i */\n      dup2\n        /* \"contracts/CarreraCoches/principal.sol\":5297:5311  listaCoches[i] */\n      dup2\n      sload\n      dup2\n      lt\n      tag_234\n      jumpi\n      tag_235\n      tag_135\n      jump\t// in\n    tag_235:\n    tag_234:\n      swap1\n      0x00\n      mstore\n      keccak256(0x00, 0x20)\n      swap1\n      0x08\n      mul\n      add\n        /* \"contracts/CarreraCoches/principal.sol\":5297:5327  listaCoches[i].carrerasGanadas */\n      0x04\n      add\n      0x00\n        /* \"contracts/CarreraCoches/principal.sol\":5297:5329  listaCoches[i].carrerasGanadas++ */\n      dup2\n      sload\n      dup1\n      swap3\n      swap2\n      swap1\n      tag_237\n      swap1\n      tag_148\n      jump\t// in\n    tag_237:\n      swap2\n      swap1\n      pop\n      sstore\n      pop\n        /* \"contracts/CarreraCoches/principal.sol\":5360:5371  listaCoches */\n      0x06\n        /* \"contracts/CarreraCoches/principal.sol\":5372:5373  i */\n      dup2\n        /* \"contracts/CarreraCoches/principal.sol\":5360:5374  listaCoches[i] */\n      dup2\n      sload\n      dup2\n      lt\n      tag_238\n      jumpi\n      tag_239\n      tag_135\n      jump\t// in\n    tag_239:\n    tag_238:\n      swap1\n      0x00\n      mstore\n      keccak256(0x00, 0x20)\n      swap1\n      0x08\n      mul\n      add\n        /* \"contracts/CarreraCoches/principal.sol\":5360:5380  listaCoches[i].nivel */\n      0x07\n      add\n      0x00\n        /* \"contracts/CarreraCoches/principal.sol\":5360:5382  listaCoches[i].nivel++ */\n      dup2\n      dup2\n      swap1\n      sload\n      swap1\n      0x0100\n      exp\n      swap1\n      div\n      0xffffffff\n      and\n      dup1\n      swap3\n      swap2\n      swap1\n      tag_241\n      swap1\n      tag_182\n      jump\t// in\n    tag_241:\n      swap2\n      swap1\n      0x0100\n      exp\n      dup2\n      sload\n      dup2\n      0xffffffff\n      mul\n      not\n      and\n      swap1\n      dup4\n      0xffffffff\n      and\n      mul\n      or\n      swap1\n      sstore\n      pop\n      pop\n        /* \"contracts/CarreraCoches/principal.sol\":5413:5432  return \"Has ganado\" */\n      mload(0x40)\n      dup1\n      0x40\n      add\n      0x40\n      mstore\n      dup1\n      0x0a\n      dup2\n      mstore\n      0x20\n      add\n      0x4861732067616e61646f00000000000000000000000000000000000000000000\n      dup2\n      mstore\n      pop\n      swap6\n      pop\n      pop\n      pop\n      pop\n      pop\n      pop\n      jump(tag_184)\n        /* \"contracts/CarreraCoches/principal.sol\":5211:5784  if(ganador<=60){\r... */\n    tag_231:\n        /* \"contracts/CarreraCoches/principal.sol\":5586:5636  confirmacionDepositoLleno(\"El coche ganador es: \") */\n      0x6158fc8f21c8cc73ddf920956cc75d0e8a48b4fc85817a0ba89eb3b6d2a75441\n      mload(0x40)\n      tag_243\n      swap1\n      tag_244\n      jump\t// in\n    tag_243:\n      mload(0x40)\n      dup1\n      swap2\n      sub\n      swap1\n      log1\n        /* \"contracts/CarreraCoches/principal.sol\":5667:5671  this */\n      address\n        /* \"contracts/CarreraCoches/principal.sol\":5667:5691  this.verCochePropietario */\n      0xffffffffffffffffffffffffffffffffffffffff\n      and\n      0xe172fca8\n        /* \"contracts/CarreraCoches/principal.sol\":5692:5704  addressRival */\n      dup6\n        /* \"contracts/CarreraCoches/principal.sol\":5667:5705  this.verCochePropietario(addressRival) */\n      mload(0x40)\n      dup3\n      0xffffffff\n      and\n      0xe0\n      shl\n      dup2\n      mstore\n      0x04\n      add\n      tag_245\n      swap2\n      swap1\n      tag_38\n      jump\t// in\n    tag_245:\n      0x00\n      mload(0x40)\n      dup1\n      dup4\n      sub\n      dup2\n      0x00\n      dup8\n      dup1\n      extcodesize\n      iszero\n      dup1\n      iszero\n      tag_246\n      jumpi\n      0x00\n      dup1\n      revert\n    tag_246:\n      pop\n      gas\n      call\n      iszero\n      dup1\n      iszero\n      tag_248\n      jumpi\n      returndatasize\n      0x00\n      dup1\n      returndatacopy\n      revert(0x00, returndatasize)\n    tag_248:\n      pop\n      pop\n      pop\n      pop\n        /* \"contracts/CarreraCoches/principal.sol\":5736:5756  return \"Has perdido\" */\n      mload(0x40)\n      dup1\n      0x40\n      add\n      0x40\n      mstore\n      dup1\n      0x0b\n      dup2\n      mstore\n      0x20\n      add\n      0x486173207065726469646f000000000000000000000000000000000000000000\n      dup2\n      mstore\n      pop\n      swap6\n      pop\n      pop\n      pop\n      pop\n      pop\n      pop\n      jump(tag_184)\n        /* \"contracts/CarreraCoches/principal.sol\":5133:7241  if(listaCoches[rival].nivel < listaCoches[i].nivel){\r... */\n    tag_230:\n        /* \"contracts/CarreraCoches/principal.sol\":5847:5858  listaCoches */\n      0x06\n        /* \"contracts/CarreraCoches/principal.sol\":5859:5860  i */\n      dup2\n        /* \"contracts/CarreraCoches/principal.sol\":5847:5861  listaCoches[i] */\n      dup2\n      sload\n      dup2\n      lt\n      tag_250\n      jumpi\n      tag_251\n      tag_135\n      jump\t// in\n    tag_251:\n    tag_250:\n      swap1\n      0x00\n      mstore\n      keccak256(0x00, 0x20)\n      swap1\n      0x08\n      mul\n      add\n        /* \"contracts/CarreraCoches/principal.sol\":5847:5867  listaCoches[i].nivel */\n      0x07\n      add\n      0x00\n      swap1\n      sload\n      swap1\n      0x0100\n      exp\n      swap1\n      div\n      0xffffffff\n      and\n        /* \"contracts/CarreraCoches/principal.sol\":5819:5867  listaCoches[rival].nivel == listaCoches[i].nivel */\n      0xffffffff\n      and\n        /* \"contracts/CarreraCoches/principal.sol\":5819:5830  listaCoches */\n      0x06\n        /* \"contracts/CarreraCoches/principal.sol\":5831:5836  rival */\n      dup7\n        /* \"contracts/CarreraCoches/principal.sol\":5819:5837  listaCoches[rival] */\n      dup2\n      sload\n      dup2\n      lt\n      tag_253\n      jumpi\n      tag_254\n      tag_135\n      jump\t// in\n    tag_254:\n    tag_253:\n      swap1\n      0x00\n      mstore\n      keccak256(0x00, 0x20)\n      swap1\n      0x08\n      mul\n      add\n        /* \"contracts/CarreraCoches/principal.sol\":5819:5843  listaCoches[rival].nivel */\n      0x07\n      add\n      0x00\n      swap1\n      sload\n      swap1\n      0x0100\n      exp\n      swap1\n      div\n      0xffffffff\n      and\n        /* \"contracts/CarreraCoches/principal.sol\":5819:5867  listaCoches[rival].nivel == listaCoches[i].nivel */\n      0xffffffff\n      and\n      eq\n        /* \"contracts/CarreraCoches/principal.sol\":5816:7241  if(listaCoches[rival].nivel == listaCoches[i].nivel){\r... */\n      iszero\n      tag_256\n      jumpi\n        /* \"contracts/CarreraCoches/principal.sol\":5907:5909  50 */\n      0x32\n        /* \"contracts/CarreraCoches/principal.sol\":5898:5905  ganador */\n      dup3\n        /* \"contracts/CarreraCoches/principal.sol\":5898:5909  ganador<=50 */\n      gt\n        /* \"contracts/CarreraCoches/principal.sol\":5895:6470  if(ganador<=50){\r... */\n      tag_257\n      jumpi\n        /* \"contracts/CarreraCoches/principal.sol\":5941:5950  balance() */\n      tag_258\n        /* \"contracts/CarreraCoches/principal.sol\":5941:5948  balance */\n      tag_233\n        /* \"contracts/CarreraCoches/principal.sol\":5941:5950  balance() */\n      jump\t// in\n    tag_258:\n        /* \"contracts/CarreraCoches/principal.sol\":5981:5992  listaCoches */\n      0x06\n        /* \"contracts/CarreraCoches/principal.sol\":5993:5994  i */\n      dup2\n        /* \"contracts/CarreraCoches/principal.sol\":5981:5995  listaCoches[i] */\n      dup2\n      sload\n      dup2\n      lt\n      tag_259\n      jumpi\n      tag_260\n      tag_135\n      jump\t// in\n    tag_260:\n    tag_259:\n      swap1\n      0x00\n      mstore\n      keccak256(0x00, 0x20)\n      swap1\n      0x08\n      mul\n      add\n        /* \"contracts/CarreraCoches/principal.sol\":5981:6011  listaCoches[i].carrerasGanadas */\n      0x04\n      add\n      0x00\n        /* \"contracts/CarreraCoches/principal.sol\":5981:6013  listaCoches[i].carrerasGanadas++ */\n      dup2\n      sload\n      dup1\n      swap3\n      swap2\n      swap1\n      tag_262\n      swap1\n      tag_148\n      jump\t// in\n    tag_262:\n      swap2\n      swap1\n      pop\n      sstore\n      pop\n        /* \"contracts/CarreraCoches/principal.sol\":6044:6055  listaCoches */\n      0x06\n        /* \"contracts/CarreraCoches/principal.sol\":6056:6057  i */\n      dup2\n        /* \"contracts/CarreraCoches/principal.sol\":6044:6058  listaCoches[i] */\n      dup2\n      sload\n      dup2\n      lt\n      tag_263\n      jumpi\n      tag_264\n      tag_135\n      jump\t// in\n    tag_264:\n    tag_263:\n      swap1\n      0x00\n      mstore\n      keccak256(0x00, 0x20)\n      swap1\n      0x08\n      mul\n      add\n        /* \"contracts/CarreraCoches/principal.sol\":6044:6064  listaCoches[i].nivel */\n      0x07\n      add\n      0x00\n        /* \"contracts/CarreraCoches/principal.sol\":6044:6066  listaCoches[i].nivel++ */\n      dup2\n      dup2\n      swap1\n      sload\n      swap1\n      0x0100\n      exp\n      swap1\n      div\n      0xffffffff\n      and\n      dup1\n      swap3\n      swap2\n      swap1\n      tag_266\n      swap1\n      tag_182\n      jump\t// in\n    tag_266:\n      swap2\n      swap1\n      0x0100\n      exp\n      dup2\n      sload\n      dup2\n      0xffffffff\n      mul\n      not\n      and\n      swap1\n      dup4\n      0xffffffff\n      and\n      mul\n      or\n      swap1\n      sstore\n      pop\n      pop\n        /* \"contracts/CarreraCoches/principal.sol\":6097:6116  return \"Has ganado\" */\n      mload(0x40)\n      dup1\n      0x40\n      add\n      0x40\n      mstore\n      dup1\n      0x0a\n      dup2\n      mstore\n      0x20\n      add\n      0x4861732067616e61646f00000000000000000000000000000000000000000000\n      dup2\n      mstore\n      pop\n      swap6\n      pop\n      pop\n      pop\n      pop\n      pop\n      pop\n      jump(tag_184)\n        /* \"contracts/CarreraCoches/principal.sol\":5895:6470  if(ganador<=50){\r... */\n    tag_257:\n        /* \"contracts/CarreraCoches/principal.sol\":6272:6322  confirmacionDepositoLleno(\"El coche ganador es: \") */\n      0x6158fc8f21c8cc73ddf920956cc75d0e8a48b4fc85817a0ba89eb3b6d2a75441\n      mload(0x40)\n      tag_268\n      swap1\n      tag_244\n      jump\t// in\n    tag_268:\n      mload(0x40)\n      dup1\n      swap2\n      sub\n      swap1\n      log1\n        /* \"contracts/CarreraCoches/principal.sol\":6353:6357  this */\n      address\n        /* \"contracts/CarreraCoches/principal.sol\":6353:6377  this.verCochePropietario */\n      0xffffffffffffffffffffffffffffffffffffffff\n      and\n      0xe172fca8\n        /* \"contracts/CarreraCoches/principal.sol\":6378:6390  addressRival */\n      dup6\n        /* \"contracts/CarreraCoches/principal.sol\":6353:6391  this.verCochePropietario(addressRival) */\n      mload(0x40)\n      dup3\n      0xffffffff\n      and\n      0xe0\n      shl\n      dup2\n      mstore\n      0x04\n      add\n      tag_269\n      swap2\n      swap1\n      tag_38\n      jump\t// in\n    tag_269:\n      0x00\n      mload(0x40)\n      dup1\n      dup4\n      sub\n      dup2\n      0x00\n      dup8\n      dup1\n      extcodesize\n      iszero\n      dup1\n      iszero\n      tag_270\n      jumpi\n      0x00\n      dup1\n      revert\n    tag_270:\n      pop\n      gas\n      call\n      iszero\n      dup1\n      iszero\n      tag_272\n      jumpi\n      returndatasize\n      0x00\n      dup1\n      returndatacopy\n      revert(0x00, returndatasize)\n    tag_272:\n      pop\n      pop\n      pop\n      pop\n        /* \"contracts/CarreraCoches/principal.sol\":6422:6442  return \"Has perdido\" */\n      mload(0x40)\n      dup1\n      0x40\n      add\n      0x40\n      mstore\n      dup1\n      0x0b\n      dup2\n      mstore\n      0x20\n      add\n      0x486173207065726469646f000000000000000000000000000000000000000000\n      dup2\n      mstore\n      pop\n      swap6\n      pop\n      pop\n      pop\n      pop\n      pop\n      pop\n      jump(tag_184)\n        /* \"contracts/CarreraCoches/principal.sol\":5816:7241  if(listaCoches[rival].nivel == listaCoches[i].nivel){\r... */\n    tag_256:\n        /* \"contracts/CarreraCoches/principal.sol\":6537:6539  40 */\n      0x28\n        /* \"contracts/CarreraCoches/principal.sol\":6528:6535  ganador */\n      dup3\n        /* \"contracts/CarreraCoches/principal.sol\":6528:6539  ganador<=40 */\n      gt\n        /* \"contracts/CarreraCoches/principal.sol\":6525:7217  if(ganador<=40){\r... */\n      tag_274\n      jumpi\n        /* \"contracts/CarreraCoches/principal.sol\":6571:6580  balance() */\n      tag_275\n        /* \"contracts/CarreraCoches/principal.sol\":6571:6578  balance */\n      tag_233\n        /* \"contracts/CarreraCoches/principal.sol\":6571:6580  balance() */\n      jump\t// in\n    tag_275:\n        /* \"contracts/CarreraCoches/principal.sol\":6611:6622  listaCoches */\n      0x06\n        /* \"contracts/CarreraCoches/principal.sol\":6623:6624  i */\n      dup2\n        /* \"contracts/CarreraCoches/principal.sol\":6611:6625  listaCoches[i] */\n      dup2\n      sload\n      dup2\n      lt\n      tag_276\n      jumpi\n      tag_277\n      tag_135\n      jump\t// in\n    tag_277:\n    tag_276:\n      swap1\n      0x00\n      mstore\n      keccak256(0x00, 0x20)\n      swap1\n      0x08\n      mul\n      add\n        /* \"contracts/CarreraCoches/principal.sol\":6611:6641  listaCoches[i].carrerasGanadas */\n      0x04\n      add\n      0x00\n        /* \"contracts/CarreraCoches/principal.sol\":6611:6643  listaCoches[i].carrerasGanadas++ */\n      dup2\n      sload\n      dup1\n      swap3\n      swap2\n      swap1\n      tag_279\n      swap1\n      tag_148\n      jump\t// in\n    tag_279:\n      swap2\n      swap1\n      pop\n      sstore\n      pop\n        /* \"contracts/CarreraCoches/principal.sol\":6674:6685  listaCoches */\n      0x06\n        /* \"contracts/CarreraCoches/principal.sol\":6686:6687  i */\n      dup2\n        /* \"contracts/CarreraCoches/principal.sol\":6674:6688  listaCoches[i] */\n      dup2\n      sload\n      dup2\n      lt\n      tag_280\n      jumpi\n      tag_281\n      tag_135\n      jump\t// in\n    tag_281:\n    tag_280:\n      swap1\n      0x00\n      mstore\n      keccak256(0x00, 0x20)\n      swap1\n      0x08\n      mul\n      add\n        /* \"contracts/CarreraCoches/principal.sol\":6674:6694  listaCoches[i].nivel */\n      0x07\n      add\n      0x00\n        /* \"contracts/CarreraCoches/principal.sol\":6674:6696  listaCoches[i].nivel++ */\n      dup2\n      dup2\n      swap1\n      sload\n      swap1\n      0x0100\n      exp\n      swap1\n      div\n      0xffffffff\n      and\n      dup1\n      swap3\n      swap2\n      swap1\n      tag_283\n      swap1\n      tag_182\n      jump\t// in\n    tag_283:\n      swap2\n      swap1\n      0x0100\n      exp\n      dup2\n      sload\n      dup2\n      0xffffffff\n      mul\n      not\n      and\n      swap1\n      dup4\n      0xffffffff\n      and\n      mul\n      or\n      swap1\n      sstore\n      pop\n      pop\n        /* \"contracts/CarreraCoches/principal.sol\":6727:6746  return \"Has ganado\" */\n      mload(0x40)\n      dup1\n      0x40\n      add\n      0x40\n      mstore\n      dup1\n      0x0a\n      dup2\n      mstore\n      0x20\n      add\n      0x4861732067616e61646f00000000000000000000000000000000000000000000\n      dup2\n      mstore\n      pop\n      swap6\n      pop\n      pop\n      pop\n      pop\n      pop\n      pop\n      jump(tag_184)\n        /* \"contracts/CarreraCoches/principal.sol\":6525:7217  if(ganador<=40){\r... */\n    tag_274:\n        /* \"contracts/CarreraCoches/principal.sol\":6814:6864  confirmacionDepositoLleno(\"El coche ganador es: \") */\n      0x6158fc8f21c8cc73ddf920956cc75d0e8a48b4fc85817a0ba89eb3b6d2a75441\n      mload(0x40)\n      tag_285\n      swap1\n      tag_244\n      jump\t// in\n    tag_285:\n      mload(0x40)\n      dup1\n      swap2\n      sub\n      swap1\n      log1\n        /* \"contracts/CarreraCoches/principal.sol\":6895:6899  this */\n      address\n        /* \"contracts/CarreraCoches/principal.sol\":6895:6919  this.verCochePropietario */\n      0xffffffffffffffffffffffffffffffffffffffff\n      and\n      0xe172fca8\n        /* \"contracts/CarreraCoches/principal.sol\":6920:6932  addressRival */\n      dup6\n        /* \"contracts/CarreraCoches/principal.sol\":6895:6933  this.verCochePropietario(addressRival) */\n      mload(0x40)\n      dup3\n      0xffffffff\n      and\n      0xe0\n      shl\n      dup2\n      mstore\n      0x04\n      add\n      tag_286\n      swap2\n      swap1\n      tag_38\n      jump\t// in\n    tag_286:\n      0x00\n      mload(0x40)\n      dup1\n      dup4\n      sub\n      dup2\n      0x00\n      dup8\n      dup1\n      extcodesize\n      iszero\n      dup1\n      iszero\n      tag_287\n      jumpi\n      0x00\n      dup1\n      revert\n    tag_287:\n      pop\n      gas\n      call\n      iszero\n      dup1\n      iszero\n      tag_289\n      jumpi\n      returndatasize\n      0x00\n      dup1\n      returndatacopy\n      revert(0x00, returndatasize)\n    tag_289:\n      pop\n      pop\n      pop\n      pop\n        /* \"contracts/CarreraCoches/principal.sol\":7169:7189  return \"Has perdido\" */\n      mload(0x40)\n      dup1\n      0x40\n      add\n      0x40\n      mstore\n      dup1\n      0x0b\n      dup2\n      mstore\n      0x20\n      add\n      0x486173207065726469646f000000000000000000000000000000000000000000\n      dup2\n      mstore\n      pop\n      swap6\n      pop\n      pop\n      pop\n      pop\n      pop\n      pop\n      jump(tag_184)\n        /* \"contracts/CarreraCoches/principal.sol\":4841:7264  if (msg.sender == listaCoches[i].idPiloto) {\r... */\n    tag_204:\n        /* \"contracts/CarreraCoches/principal.sol\":4782:4785  i++ */\n      dup1\n      dup1\n      tag_290\n      swap1\n      tag_148\n      jump\t// in\n    tag_290:\n      swap2\n      pop\n      pop\n        /* \"contracts/CarreraCoches/principal.sol\":4742:7297  for(uint i = 0; i < listaCoches.length; i++){\r... */\n      jump(tag_198)\n    tag_199:\n      pop\n        /* \"contracts/CarreraCoches/principal.sol\":4202:7308  {\r... */\n      pop\n      pop\n      pop\n      pop\n        /* \"contracts/CarreraCoches/principal.sol\":4062:7308  if(listaCoches.length <= 1){\r... */\n    tag_188:\n        /* \"contracts/CarreraCoches/principal.sol\":3968:7314  function Apostar(uint dineroApostar) public payable returns(string memory) {\r... */\n    tag_184:\n      swap2\n      swap1\n      pop\n      jump\t// out\n        /* \"contracts/CarreraCoches/cocheToken.sol\":1343:1479  function balanceOf(address _owner) external override virtual view returns (uint256){\r... */\n    tag_79:\n        /* \"contracts/CarreraCoches/cocheToken.sol\":1418:1425  uint256 */\n      0x00\n        /* \"contracts/CarreraCoches/cocheToken.sol\":1444:1463  numeroCochesPersona */\n      0x08\n        /* \"contracts/CarreraCoches/cocheToken.sol\":1444:1471  numeroCochesPersona[_owner] */\n      0x00\n        /* \"contracts/CarreraCoches/cocheToken.sol\":1464:1470  _owner */\n      dup4\n        /* \"contracts/CarreraCoches/cocheToken.sol\":1444:1471  numeroCochesPersona[_owner] */\n      0xffffffffffffffffffffffffffffffffffffffff\n      and\n      0xffffffffffffffffffffffffffffffffffffffff\n      and\n      dup2\n      mstore\n      0x20\n      add\n      swap1\n      dup2\n      mstore\n      0x20\n      add\n      0x00\n      keccak256\n      sload\n        /* \"contracts/CarreraCoches/cocheToken.sol\":1437:1471  return numeroCochesPersona[_owner] */\n      swap1\n      pop\n        /* \"contracts/CarreraCoches/cocheToken.sol\":1343:1479  function balanceOf(address _owner) external override virtual view returns (uint256){\r... */\n      swap2\n      swap1\n      pop\n      jump\t// out\n        /* \"contracts/CarreraCoches/ownable.sol\":1719:1822  function renounceOwnership() public virtual onlyOwner {\r... */\n    tag_83:\n        /* \"contracts/CarreraCoches/ownable.sol\":1299:1311  _msgSender() */\n      tag_293\n        /* \"contracts/CarreraCoches/ownable.sol\":1299:1309  _msgSender */\n      tag_294\n        /* \"contracts/CarreraCoches/ownable.sol\":1299:1311  _msgSender() */\n      jump\t// in\n    tag_293:\n        /* \"contracts/CarreraCoches/ownable.sol\":1288:1311  owner() == _msgSender() */\n      0xffffffffffffffffffffffffffffffffffffffff\n      and\n        /* \"contracts/CarreraCoches/ownable.sol\":1288:1295  owner() */\n      tag_295\n        /* \"contracts/CarreraCoches/ownable.sol\":1288:1293  owner */\n      tag_91\n        /* \"contracts/CarreraCoches/ownable.sol\":1288:1295  owner() */\n      jump\t// in\n    tag_295:\n        /* \"contracts/CarreraCoches/ownable.sol\":1288:1311  owner() == _msgSender() */\n      0xffffffffffffffffffffffffffffffffffffffff\n      and\n      eq\n        /* \"contracts/CarreraCoches/ownable.sol\":1280:1348  require(owner() == _msgSender(), \"Ownable: caller is not the owner\") */\n      tag_296\n      jumpi\n      mload(0x40)\n      0x08c379a000000000000000000000000000000000000000000000000000000000\n      dup2\n      mstore\n      0x04\n      add\n      tag_297\n      swap1\n      tag_298\n      jump\t// in\n    tag_297:\n      mload(0x40)\n      dup1\n      swap2\n      sub\n      swap1\n      revert\n    tag_296:\n        /* \"contracts/CarreraCoches/ownable.sol\":1784:1814  _transferOwnership(address(0)) */\n      tag_300\n        /* \"contracts/CarreraCoches/ownable.sol\":1811:1812  0 */\n      0x00\n        /* \"contracts/CarreraCoches/ownable.sol\":1784:1802  _transferOwnership */\n      tag_301\n        /* \"contracts/CarreraCoches/ownable.sol\":1784:1814  _transferOwnership(address(0)) */\n      jump\t// in\n    tag_300:\n        /* \"contracts/CarreraCoches/ownable.sol\":1719:1822  function renounceOwnership() public virtual onlyOwner {\r... */\n      jump\t// out\n        /* \"contracts/CarreraCoches/principal.sol\":871:922  mapping (uint => address) public cocheDePropietario */\n    tag_87:\n      mstore(0x20, 0x07)\n      dup1\n      0x00\n      mstore\n      keccak256(0x00, 0x40)\n      0x00\n      swap2\n      pop\n      sload\n      swap1\n      0x0100\n      exp\n      swap1\n      div\n      0xffffffffffffffffffffffffffffffffffffffff\n      and\n      dup2\n      jump\t// out\n        /* \"contracts/CarreraCoches/ownable.sol\":1068:1155  function owner() public view virtual returns (address) {\r... */\n    tag_91:\n        /* \"contracts/CarreraCoches/ownable.sol\":1114:1121  address */\n      0x00\n        /* \"contracts/CarreraCoches/ownable.sol\":1141:1147  _owner */\n      dup1\n      0x00\n      swap1\n      sload\n      swap1\n      0x0100\n      exp\n      swap1\n      div\n      0xffffffffffffffffffffffffffffffffffffffff\n      and\n        /* \"contracts/CarreraCoches/ownable.sol\":1134:1147  return _owner */\n      swap1\n      pop\n        /* \"contracts/CarreraCoches/ownable.sol\":1068:1155  function owner() public view virtual returns (address) {\r... */\n      swap1\n      jump\t// out\n        /* \"contracts/CarreraCoches/cocheToken.sol\":2065:2162  function setApprovalForAll(address _operator, bool _approved) external override virtual{\r... */\n    tag_97:\n      pop\n      pop\n      jump\t// out\n        /* \"contracts/CarreraCoches/ownable.sol\":701:722  address public _owner */\n    tag_100:\n      0x00\n      dup1\n      sload\n      swap1\n      0x0100\n      exp\n      swap1\n      div\n      0xffffffffffffffffffffffffffffffffffffffff\n      and\n      dup2\n      jump\t// out\n        /* \"contracts/CarreraCoches/cocheToken.sol\":1584:1718  function safeTransferFrom(address _from, address _to, uint256 _tokenId, bytes memory data) external override virtual payable{\r... */\n    tag_105:\n      pop\n      pop\n      pop\n      pop\n      jump\t// out\n        /* \"contracts/CarreraCoches/principal.sol\":604:630  Coche[] public listaCoches */\n    tag_109:\n      0x06\n      dup2\n      dup2\n      sload\n      dup2\n      lt\n      tag_305\n      jumpi\n      0x00\n      dup1\n      revert\n    tag_305:\n      swap1\n      0x00\n      mstore\n      keccak256(0x00, 0x20)\n      swap1\n      0x08\n      mul\n      add\n      0x00\n      swap2\n      pop\n      swap1\n      pop\n      dup1\n      0x00\n      add\n      0x00\n      swap1\n      sload\n      swap1\n      0x0100\n      exp\n      swap1\n      div\n      0xffffffffffffffffffffffffffffffffffffffff\n      and\n      swap1\n      dup1\n      0x01\n      add\n      dup1\n      sload\n      tag_307\n      swap1\n      tag_308\n      jump\t// in\n    tag_307:\n      dup1\n      0x1f\n      add\n      0x20\n      dup1\n      swap2\n      div\n      mul\n      0x20\n      add\n      mload(0x40)\n      swap1\n      dup2\n      add\n      0x40\n      mstore\n      dup1\n      swap3\n      swap2\n      swap1\n      dup2\n      dup2\n      mstore\n      0x20\n      add\n      dup3\n      dup1\n      sload\n      tag_309\n      swap1\n      tag_308\n      jump\t// in\n    tag_309:\n      dup1\n      iszero\n      tag_310\n      jumpi\n      dup1\n      0x1f\n      lt\n      tag_311\n      jumpi\n      0x0100\n      dup1\n      dup4\n      sload\n      div\n      mul\n      dup4\n      mstore\n      swap2\n      0x20\n      add\n      swap2\n      jump(tag_310)\n    tag_311:\n      dup3\n      add\n      swap2\n      swap1\n      0x00\n      mstore\n      keccak256(0x00, 0x20)\n      swap1\n    tag_312:\n      dup2\n      sload\n      dup2\n      mstore\n      swap1\n      0x01\n      add\n      swap1\n      0x20\n      add\n      dup1\n      dup4\n      gt\n      tag_312\n      jumpi\n      dup3\n      swap1\n      sub\n      0x1f\n      and\n      dup3\n      add\n      swap2\n    tag_310:\n      pop\n      pop\n      pop\n      pop\n      pop\n      swap1\n      dup1\n      0x02\n      add\n      dup1\n      sload\n      tag_313\n      swap1\n      tag_308\n      jump\t// in\n    tag_313:\n      dup1\n      0x1f\n      add\n      0x20\n      dup1\n      swap2\n      div\n      mul\n      0x20\n      add\n      mload(0x40)\n      swap1\n      dup2\n      add\n      0x40\n      mstore\n      dup1\n      swap3\n      swap2\n      swap1\n      dup2\n      dup2\n      mstore\n      0x20\n      add\n      dup3\n      dup1\n      sload\n      tag_314\n      swap1\n      tag_308\n      jump\t// in\n    tag_314:\n      dup1\n      iszero\n      tag_315\n      jumpi\n      dup1\n      0x1f\n      lt\n      tag_316\n      jumpi\n      0x0100\n      dup1\n      dup4\n      sload\n      div\n      mul\n      dup4\n      mstore\n      swap2\n      0x20\n      add\n      swap2\n      jump(tag_315)\n    tag_316:\n      dup3\n      add\n      swap2\n      swap1\n      0x00\n      mstore\n      keccak256(0x00, 0x20)\n      swap1\n    tag_317:\n      dup2\n      sload\n      dup2\n      mstore\n      swap1\n      0x01\n      add\n      swap1\n      0x20\n      add\n      dup1\n      dup4\n      gt\n      tag_317\n      jumpi\n      dup3\n      swap1\n      sub\n      0x1f\n      and\n      dup3\n      add\n      swap2\n    tag_315:\n      pop\n      pop\n      pop\n      pop\n      pop\n      swap1\n      dup1\n      0x03\n      add\n      dup1\n      sload\n      tag_318\n      swap1\n      tag_308\n      jump\t// in\n    tag_318:\n      dup1\n      0x1f\n      add\n      0x20\n      dup1\n      swap2\n      div\n      mul\n      0x20\n      add\n      mload(0x40)\n      swap1\n      dup2\n      add\n      0x40\n      mstore\n      dup1\n      swap3\n      swap2\n      swap1\n      dup2\n      dup2\n      mstore\n      0x20\n      add\n      dup3\n      dup1\n      sload\n      tag_319\n      swap1\n      tag_308\n      jump\t// in\n    tag_319:\n      dup1\n      iszero\n      tag_320\n      jumpi\n      dup1\n      0x1f\n      lt\n      tag_321\n      jumpi\n      0x0100\n      dup1\n      dup4\n      sload\n      div\n      mul\n      dup4\n      mstore\n      swap2\n      0x20\n      add\n      swap2\n      jump(tag_320)\n    tag_321:\n      dup3\n      add\n      swap2\n      swap1\n      0x00\n      mstore\n      keccak256(0x00, 0x20)\n      swap1\n    tag_322:\n      dup2\n      sload\n      dup2\n      mstore\n      swap1\n      0x01\n      add\n      swap1\n      0x20\n      add\n      dup1\n      dup4\n      gt\n      tag_322\n      jumpi\n      dup3\n      swap1\n      sub\n      0x1f\n      and\n      dup3\n      add\n      swap2\n    tag_320:\n      pop\n      pop\n      pop\n      pop\n      pop\n      swap1\n      dup1\n      0x04\n      add\n      sload\n      swap1\n      dup1\n      0x05\n      add\n      sload\n      swap1\n      dup1\n      0x06\n      add\n      sload\n      swap1\n      dup1\n      0x07\n      add\n      0x00\n      swap1\n      sload\n      swap1\n      0x0100\n      exp\n      swap1\n      div\n      0xffffffff\n      and\n      swap1\n      pop\n      dup9\n      jump\t// out\n        /* \"contracts/CarreraCoches/principal.sol\":2989:3365  function verCochePropietario(address _propietario) external {\r... */\n    tag_115:\n        /* \"contracts/CarreraCoches/principal.sol\":3064:3070  uint i */\n      0x00\n        /* \"contracts/CarreraCoches/principal.sol\":3060:3358  for(uint i = 0; i < listaCoches.length; i++){\r... */\n    tag_324:\n        /* \"contracts/CarreraCoches/principal.sol\":3080:3091  listaCoches */\n      0x06\n        /* \"contracts/CarreraCoches/principal.sol\":3080:3098  listaCoches.length */\n      dup1\n      sload\n      swap1\n      pop\n        /* \"contracts/CarreraCoches/principal.sol\":3076:3077  i */\n      dup2\n        /* \"contracts/CarreraCoches/principal.sol\":3076:3098  i < listaCoches.length */\n      lt\n        /* \"contracts/CarreraCoches/principal.sol\":3060:3358  for(uint i = 0; i < listaCoches.length; i++){\r... */\n      iszero\n      tag_325\n      jumpi\n        /* \"contracts/CarreraCoches/principal.sol\":3147:3159  _propietario */\n      dup2\n        /* \"contracts/CarreraCoches/principal.sol\":3122:3159  listaCoches[i].idPiloto==_propietario */\n      0xffffffffffffffffffffffffffffffffffffffff\n      and\n        /* \"contracts/CarreraCoches/principal.sol\":3122:3133  listaCoches */\n      0x06\n        /* \"contracts/CarreraCoches/principal.sol\":3134:3135  i */\n      dup3\n        /* \"contracts/CarreraCoches/principal.sol\":3122:3136  listaCoches[i] */\n      dup2\n      sload\n      dup2\n      lt\n      tag_327\n      jumpi\n      tag_328\n      tag_135\n      jump\t// in\n    tag_328:\n    tag_327:\n      swap1\n      0x00\n      mstore\n      keccak256(0x00, 0x20)\n      swap1\n      0x08\n      mul\n      add\n        /* \"contracts/CarreraCoches/principal.sol\":3122:3145  listaCoches[i].idPiloto */\n      0x00\n      add\n      0x00\n      swap1\n      sload\n      swap1\n      0x0100\n      exp\n      swap1\n      div\n      0xffffffffffffffffffffffffffffffffffffffff\n      and\n        /* \"contracts/CarreraCoches/principal.sol\":3122:3159  listaCoches[i].idPiloto==_propietario */\n      0xffffffffffffffffffffffffffffffffffffffff\n      and\n      eq\n        /* \"contracts/CarreraCoches/principal.sol\":3119:3347  if(listaCoches[i].idPiloto==_propietario){\r... */\n      iszero\n      tag_330\n      jumpi\n        /* \"contracts/CarreraCoches/principal.sol\":3184:3331  cochePropietario(listaCoches[i].marca, listaCoches[i].modelo, listaCoches[i].nivel, listaCoches[i].carrerasGanadas, listaCoches[i].carrerasTotales) */\n      0x20fdb8ab571bfbab79104bea84f9c31cb79c5ae45b5f515c1d6c8393e0028350\n        /* \"contracts/CarreraCoches/principal.sol\":3201:3212  listaCoches */\n      0x06\n        /* \"contracts/CarreraCoches/principal.sol\":3213:3214  i */\n      dup3\n        /* \"contracts/CarreraCoches/principal.sol\":3201:3215  listaCoches[i] */\n      dup2\n      sload\n      dup2\n      lt\n      tag_331\n      jumpi\n      tag_332\n      tag_135\n      jump\t// in\n    tag_332:\n    tag_331:\n      swap1\n      0x00\n      mstore\n      keccak256(0x00, 0x20)\n      swap1\n      0x08\n      mul\n      add\n        /* \"contracts/CarreraCoches/principal.sol\":3201:3221  listaCoches[i].marca */\n      0x02\n      add\n        /* \"contracts/CarreraCoches/principal.sol\":3223:3234  listaCoches */\n      0x06\n        /* \"contracts/CarreraCoches/principal.sol\":3235:3236  i */\n      dup4\n        /* \"contracts/CarreraCoches/principal.sol\":3223:3237  listaCoches[i] */\n      dup2\n      sload\n      dup2\n      lt\n      tag_334\n      jumpi\n      tag_335\n      tag_135\n      jump\t// in\n    tag_335:\n    tag_334:\n      swap1\n      0x00\n      mstore\n      keccak256(0x00, 0x20)\n      swap1\n      0x08\n      mul\n      add\n        /* \"contracts/CarreraCoches/principal.sol\":3223:3244  listaCoches[i].modelo */\n      0x01\n      add\n        /* \"contracts/CarreraCoches/principal.sol\":3246:3257  listaCoches */\n      0x06\n        /* \"contracts/CarreraCoches/principal.sol\":3258:3259  i */\n      dup5\n        /* \"contracts/CarreraCoches/principal.sol\":3246:3260  listaCoches[i] */\n      dup2\n      sload\n      dup2\n      lt\n      tag_337\n      jumpi\n      tag_338\n      tag_135\n      jump\t// in\n    tag_338:\n    tag_337:\n      swap1\n      0x00\n      mstore\n      keccak256(0x00, 0x20)\n      swap1\n      0x08\n      mul\n      add\n        /* \"contracts/CarreraCoches/principal.sol\":3246:3266  listaCoches[i].nivel */\n      0x07\n      add\n      0x00\n      swap1\n      sload\n      swap1\n      0x0100\n      exp\n      swap1\n      div\n      0xffffffff\n      and\n        /* \"contracts/CarreraCoches/principal.sol\":3268:3279  listaCoches */\n      0x06\n        /* \"contracts/CarreraCoches/principal.sol\":3280:3281  i */\n      dup6\n        /* \"contracts/CarreraCoches/principal.sol\":3268:3282  listaCoches[i] */\n      dup2\n      sload\n      dup2\n      lt\n      tag_340\n      jumpi\n      tag_341\n      tag_135\n      jump\t// in\n    tag_341:\n    tag_340:\n      swap1\n      0x00\n      mstore\n      keccak256(0x00, 0x20)\n      swap1\n      0x08\n      mul\n      add\n        /* \"contracts/CarreraCoches/principal.sol\":3268:3298  listaCoches[i].carrerasGanadas */\n      0x04\n      add\n      sload\n        /* \"contracts/CarreraCoches/principal.sol\":3300:3311  listaCoches */\n      0x06\n        /* \"contracts/CarreraCoches/principal.sol\":3312:3313  i */\n      dup7\n        /* \"contracts/CarreraCoches/principal.sol\":3300:3314  listaCoches[i] */\n      dup2\n      sload\n      dup2\n      lt\n      tag_343\n      jumpi\n      tag_344\n      tag_135\n      jump\t// in\n    tag_344:\n    tag_343:\n      swap1\n      0x00\n      mstore\n      keccak256(0x00, 0x20)\n      swap1\n      0x08\n      mul\n      add\n        /* \"contracts/CarreraCoches/principal.sol\":3300:3330  listaCoches[i].carrerasTotales */\n      0x05\n      add\n      sload\n        /* \"contracts/CarreraCoches/principal.sol\":3184:3331  cochePropietario(listaCoches[i].marca, listaCoches[i].modelo, listaCoches[i].nivel, listaCoches[i].carrerasGanadas, listaCoches[i].carrerasTotales) */\n      mload(0x40)\n      tag_346\n      swap6\n      swap5\n      swap4\n      swap3\n      swap2\n      swap1\n      tag_347\n      jump\t// in\n    tag_346:\n      mload(0x40)\n      dup1\n      swap2\n      sub\n      swap1\n      log1\n        /* \"contracts/CarreraCoches/principal.sol\":3119:3347  if(listaCoches[i].idPiloto==_propietario){\r... */\n    tag_330:\n        /* \"contracts/CarreraCoches/principal.sol\":3100:3103  i++ */\n      dup1\n      dup1\n      tag_348\n      swap1\n      tag_148\n      jump\t// in\n    tag_348:\n      swap2\n      pop\n      pop\n        /* \"contracts/CarreraCoches/principal.sol\":3060:3358  for(uint i = 0; i < listaCoches.length; i++){\r... */\n      jump(tag_324)\n    tag_325:\n      pop\n        /* \"contracts/CarreraCoches/principal.sol\":2989:3365  function verCochePropietario(address _propietario) external {\r... */\n      pop\n      jump\t// out\n        /* \"contracts/CarreraCoches/cocheToken.sol\":2271:2387  function isApprovedForAll(address _owner, address _operator) external override virtual view returns (bool){\r... */\n    tag_120:\n        /* \"contracts/CarreraCoches/cocheToken.sol\":2372:2376  bool */\n      0x00\n        /* \"contracts/CarreraCoches/cocheToken.sol\":2271:2387  function isApprovedForAll(address _owner, address _operator) external override virtual view returns (bool){\r... */\n      swap3\n      swap2\n      pop\n      pop\n      jump\t// out\n        /* \"contracts/CarreraCoches/ownable.sol\":1977:2178  function transferOwnership(address newOwner) public virtual onlyOwner {\r... */\n    tag_126:\n        /* \"contracts/CarreraCoches/ownable.sol\":1299:1311  _msgSender() */\n      tag_351\n        /* \"contracts/CarreraCoches/ownable.sol\":1299:1309  _msgSender */\n      tag_294\n        /* \"contracts/CarreraCoches/ownable.sol\":1299:1311  _msgSender() */\n      jump\t// in\n    tag_351:\n        /* \"contracts/CarreraCoches/ownable.sol\":1288:1311  owner() == _msgSender() */\n      0xffffffffffffffffffffffffffffffffffffffff\n      and\n        /* \"contracts/CarreraCoches/ownable.sol\":1288:1295  owner() */\n      tag_352\n        /* \"contracts/CarreraCoches/ownable.sol\":1288:1293  owner */\n      tag_91\n        /* \"contracts/CarreraCoches/ownable.sol\":1288:1295  owner() */\n      jump\t// in\n    tag_352:\n        /* \"contracts/CarreraCoches/ownable.sol\":1288:1311  owner() == _msgSender() */\n      0xffffffffffffffffffffffffffffffffffffffff\n      and\n      eq\n        /* \"contracts/CarreraCoches/ownable.sol\":1280:1348  require(owner() == _msgSender(), \"Ownable: caller is not the owner\") */\n      tag_353\n      jumpi\n      mload(0x40)\n      0x08c379a000000000000000000000000000000000000000000000000000000000\n      dup2\n      mstore\n      0x04\n      add\n      tag_354\n      swap1\n      tag_298\n      jump\t// in\n    tag_354:\n      mload(0x40)\n      dup1\n      swap2\n      sub\n      swap1\n      revert\n    tag_353:\n        /* \"contracts/CarreraCoches/ownable.sol\":2086:2087  0 */\n      0x00\n        /* \"contracts/CarreraCoches/ownable.sol\":2066:2088  newOwner != address(0) */\n      0xffffffffffffffffffffffffffffffffffffffff\n      and\n        /* \"contracts/CarreraCoches/ownable.sol\":2066:2074  newOwner */\n      dup2\n        /* \"contracts/CarreraCoches/ownable.sol\":2066:2088  newOwner != address(0) */\n      0xffffffffffffffffffffffffffffffffffffffff\n      and\n      eq\n      iszero\n        /* \"contracts/CarreraCoches/ownable.sol\":2058:2131  require(newOwner != address(0), \"Ownable: new owner is the zero address\") */\n      tag_356\n      jumpi\n      mload(0x40)\n      0x08c379a000000000000000000000000000000000000000000000000000000000\n      dup2\n      mstore\n      0x04\n      add\n      tag_357\n      swap1\n      tag_358\n      jump\t// in\n    tag_357:\n      mload(0x40)\n      dup1\n      swap2\n      sub\n      swap1\n      revert\n    tag_356:\n        /* \"contracts/CarreraCoches/ownable.sol\":2142:2170  _transferOwnership(newOwner) */\n      tag_359\n        /* \"contracts/CarreraCoches/ownable.sol\":2161:2169  newOwner */\n      dup2\n        /* \"contracts/CarreraCoches/ownable.sol\":2142:2160  _transferOwnership */\n      tag_301\n        /* \"contracts/CarreraCoches/ownable.sol\":2142:2170  _transferOwnership(newOwner) */\n      jump\t// in\n    tag_359:\n        /* \"contracts/CarreraCoches/ownable.sol\":1977:2178  function transferOwnership(address newOwner) public virtual onlyOwner {\r... */\n      pop\n      jump\t// out\n        /* \"contracts/CarreraCoches/principal.sol\":2398:2537  function _depositoLleno(Coche storage _coche) internal view returns (bool) {\r... */\n    tag_209:\n        /* \"contracts/CarreraCoches/principal.sol\":2467:2471  bool */\n      0x00\n        /* \"contracts/CarreraCoches/principal.sol\":2514:2529  block.timestamp */\n      timestamp\n        /* \"contracts/CarreraCoches/principal.sol\":2491:2497  _coche */\n      dup3\n        /* \"contracts/CarreraCoches/principal.sol\":2491:2510  _coche.tiempoEspera */\n      0x06\n      add\n      sload\n        /* \"contracts/CarreraCoches/principal.sol\":2491:2529  _coche.tiempoEspera <= block.timestamp */\n      gt\n      iszero\n        /* \"contracts/CarreraCoches/principal.sol\":2484:2529  return _coche.tiempoEspera <= block.timestamp */\n      swap1\n      pop\n        /* \"contracts/CarreraCoches/principal.sol\":2398:2537  function _depositoLleno(Coche storage _coche) internal view returns (bool) {\r... */\n      swap2\n      swap1\n      pop\n      jump\t// out\n        /* \"contracts/CarreraCoches/principal.sol\":2245:2372  function _repostando(Coche storage _coche) internal {\r... */\n    tag_223:\n        /* \"contracts/CarreraCoches/principal.sol\":2355:2363  cooldown */\n      sload(0x03)\n        /* \"contracts/CarreraCoches/principal.sol\":2337:2352  block.timestamp */\n      timestamp\n        /* \"contracts/CarreraCoches/principal.sol\":2337:2363  block.timestamp + cooldown */\n      tag_362\n      swap2\n      swap1\n      tag_158\n      jump\t// in\n    tag_362:\n        /* \"contracts/CarreraCoches/principal.sol\":2308:2364  _coche.tiempoEspera = uint32(block.timestamp + cooldown) */\n      0xffffffff\n      and\n        /* \"contracts/CarreraCoches/principal.sol\":2308:2314  _coche */\n      dup2\n        /* \"contracts/CarreraCoches/principal.sol\":2308:2327  _coche.tiempoEspera */\n      0x06\n      add\n        /* \"contracts/CarreraCoches/principal.sol\":2308:2364  _coche.tiempoEspera = uint32(block.timestamp + cooldown) */\n      dup2\n      swap1\n      sstore\n      pop\n        /* \"contracts/CarreraCoches/principal.sol\":2245:2372  function _repostando(Coche storage _coche) internal {\r... */\n      pop\n      jump\t// out\n        /* \"contracts/CarreraCoches/principal.sol\":7371:7469  function balance() private {\r... */\n    tag_233:\n        /* \"contracts/CarreraCoches/principal.sol\":7418:7428  msg.sender */\n      caller\n        /* \"contracts/CarreraCoches/principal.sol\":7409:7438  payable (msg.sender).transfer */\n      0xffffffffffffffffffffffffffffffffffffffff\n      and\n        /* \"contracts/CarreraCoches/principal.sol\":7409:7461  payable (msg.sender).transfer(address(this).balance) */\n      0x08fc\n        /* \"contracts/CarreraCoches/principal.sol\":7439:7460  address(this).balance */\n      selfbalance\n        /* \"contracts/CarreraCoches/principal.sol\":7409:7461  payable (msg.sender).transfer(address(this).balance) */\n      swap1\n      dup2\n      iszero\n      mul\n      swap1\n      mload(0x40)\n      0x00\n      mload(0x40)\n      dup1\n      dup4\n      sub\n      dup2\n      dup6\n      dup9\n      dup9\n      call\n      swap4\n      pop\n      pop\n      pop\n      pop\n      iszero\n      dup1\n      iszero\n      tag_365\n      jumpi\n      returndatasize\n      0x00\n      dup1\n      returndatacopy\n      revert(0x00, returndatasize)\n    tag_365:\n      pop\n        /* \"contracts/CarreraCoches/principal.sol\":7371:7469  function balance() private {\r... */\n      jump\t// out\n        /* \"contracts/CarreraCoches/utils/Context.sol\":656:754  function _msgSender() internal view virtual returns (address) {\r... */\n    tag_294:\n        /* \"contracts/CarreraCoches/utils/Context.sol\":709:716  address */\n      0x00\n        /* \"contracts/CarreraCoches/utils/Context.sol\":736:746  msg.sender */\n      caller\n        /* \"contracts/CarreraCoches/utils/Context.sol\":729:746  return msg.sender */\n      swap1\n      pop\n        /* \"contracts/CarreraCoches/utils/Context.sol\":656:754  function _msgSender() internal view virtual returns (address) {\r... */\n      swap1\n      jump\t// out\n        /* \"contracts/CarreraCoches/ownable.sol\":2338:2529  function _transferOwnership(address newOwner) internal virtual {\r... */\n    tag_301:\n        /* \"contracts/CarreraCoches/ownable.sol\":2412:2428  address oldOwner */\n      0x00\n        /* \"contracts/CarreraCoches/ownable.sol\":2431:2437  _owner */\n      dup1\n      0x00\n      swap1\n      sload\n      swap1\n      0x0100\n      exp\n      swap1\n      div\n      0xffffffffffffffffffffffffffffffffffffffff\n      and\n        /* \"contracts/CarreraCoches/ownable.sol\":2412:2437  address oldOwner = _owner */\n      swap1\n      pop\n        /* \"contracts/CarreraCoches/ownable.sol\":2457:2465  newOwner */\n      dup2\n        /* \"contracts/CarreraCoches/ownable.sol\":2448:2454  _owner */\n      0x00\n      dup1\n        /* \"contracts/CarreraCoches/ownable.sol\":2448:2465  _owner = newOwner */\n      0x0100\n      exp\n      dup2\n      sload\n      dup2\n      0xffffffffffffffffffffffffffffffffffffffff\n      mul\n      not\n      and\n      swap1\n      dup4\n      0xffffffffffffffffffffffffffffffffffffffff\n      and\n      mul\n      or\n      swap1\n      sstore\n      pop\n        /* \"contracts/CarreraCoches/ownable.sol\":2512:2520  newOwner */\n      dup2\n        /* \"contracts/CarreraCoches/ownable.sol\":2481:2521  OwnershipTransferred(oldOwner, newOwner) */\n      0xffffffffffffffffffffffffffffffffffffffff\n      and\n        /* \"contracts/CarreraCoches/ownable.sol\":2502:2510  oldOwner */\n      dup2\n        /* \"contracts/CarreraCoches/ownable.sol\":2481:2521  OwnershipTransferred(oldOwner, newOwner) */\n      0xffffffffffffffffffffffffffffffffffffffff\n      and\n      0x8be0079c531659141344cd1fd0a4f28419497f9722a3daafe3b4186f6b6457e0\n      mload(0x40)\n      mload(0x40)\n      dup1\n      swap2\n      sub\n      swap1\n      log3\n        /* \"contracts/CarreraCoches/ownable.sol\":2401:2529  {\r... */\n      pop\n        /* \"contracts/CarreraCoches/ownable.sol\":2338:2529  function _transferOwnership(address newOwner) internal virtual {\r... */\n      pop\n      jump\t// out\n    tag_142:\n      dup3\n      dup1\n      sload\n      tag_368\n      swap1\n      tag_308\n      jump\t// in\n    tag_368:\n      swap1\n      0x00\n      mstore\n      keccak256(0x00, 0x20)\n      swap1\n      0x1f\n      add\n      0x20\n      swap1\n      div\n      dup2\n      add\n      swap3\n      dup3\n      tag_370\n      jumpi\n      0x00\n      dup6\n      sstore\n      jump(tag_369)\n    tag_370:\n      dup3\n      0x1f\n      lt\n      tag_371\n      jumpi\n      dup1\n      mload\n      not(0xff)\n      and\n      dup4\n      dup1\n      add\n      or\n      dup6\n      sstore\n      jump(tag_369)\n    tag_371:\n      dup3\n      dup1\n      add\n      0x01\n      add\n      dup6\n      sstore\n      dup3\n      iszero\n      tag_369\n      jumpi\n      swap2\n      dup3\n      add\n    tag_372:\n      dup3\n      dup2\n      gt\n      iszero\n      tag_373\n      jumpi\n      dup3\n      mload\n      dup3\n      sstore\n      swap2\n      0x20\n      add\n      swap2\n      swap1\n      0x01\n      add\n      swap1\n      jump(tag_372)\n    tag_373:\n    tag_369:\n      pop\n      swap1\n      pop\n      tag_374\n      swap2\n      swap1\n      tag_375\n      jump\t// in\n    tag_374:\n      pop\n      swap1\n      jump\t// out\n    tag_375:\n    tag_376:\n      dup1\n      dup3\n      gt\n      iszero\n      tag_377\n      jumpi\n      0x00\n      dup2\n      0x00\n      swap1\n      sstore\n      pop\n      0x01\n      add\n      jump(tag_376)\n    tag_377:\n      pop\n      swap1\n      jump\t// out\n        /* \"#utility.yul\":7:417   */\n    tag_379:\n        /* \"#utility.yul\":84:89   */\n      0x00\n        /* \"#utility.yul\":109:174   */\n      tag_381\n        /* \"#utility.yul\":125:173   */\n      tag_382\n        /* \"#utility.yul\":166:172   */\n      dup5\n        /* \"#utility.yul\":125:173   */\n      tag_383\n      jump\t// in\n    tag_382:\n        /* \"#utility.yul\":109:174   */\n      tag_384\n      jump\t// in\n    tag_381:\n        /* \"#utility.yul\":100:174   */\n      swap1\n      pop\n        /* \"#utility.yul\":197:203   */\n      dup3\n        /* \"#utility.yul\":190:195   */\n      dup2\n        /* \"#utility.yul\":183:204   */\n      mstore\n        /* \"#utility.yul\":235:239   */\n      0x20\n        /* \"#utility.yul\":228:233   */\n      dup2\n        /* \"#utility.yul\":224:240   */\n      add\n        /* \"#utility.yul\":273:276   */\n      dup5\n        /* \"#utility.yul\":264:270   */\n      dup5\n        /* \"#utility.yul\":259:262   */\n      dup5\n        /* \"#utility.yul\":255:271   */\n      add\n        /* \"#utility.yul\":252:277   */\n      gt\n        /* \"#utility.yul\":249:361   */\n      iszero\n      tag_385\n      jumpi\n        /* \"#utility.yul\":280:359   */\n      tag_386\n      tag_387\n      jump\t// in\n    tag_386:\n        /* \"#utility.yul\":249:361   */\n    tag_385:\n        /* \"#utility.yul\":370:411   */\n      tag_388\n        /* \"#utility.yul\":404:410   */\n      dup5\n        /* \"#utility.yul\":399:402   */\n      dup3\n        /* \"#utility.yul\":394:397   */\n      dup6\n        /* \"#utility.yul\":370:411   */\n      tag_389\n      jump\t// in\n    tag_388:\n        /* \"#utility.yul\":90:417   */\n      pop\n        /* \"#utility.yul\":7:417   */\n      swap4\n      swap3\n      pop\n      pop\n      pop\n      jump\t// out\n        /* \"#utility.yul\":423:835   */\n    tag_390:\n        /* \"#utility.yul\":501:506   */\n      0x00\n        /* \"#utility.yul\":526:592   */\n      tag_392\n        /* \"#utility.yul\":542:591   */\n      tag_393\n        /* \"#utility.yul\":584:590   */\n      dup5\n        /* \"#utility.yul\":542:591   */\n      tag_394\n      jump\t// in\n    tag_393:\n        /* \"#utility.yul\":526:592   */\n      tag_384\n      jump\t// in\n    tag_392:\n        /* \"#utility.yul\":517:592   */\n      swap1\n      pop\n        /* \"#utility.yul\":615:621   */\n      dup3\n        /* \"#utility.yul\":608:613   */\n      dup2\n        /* \"#utility.yul\":601:622   */\n      mstore\n        /* \"#utility.yul\":653:657   */\n      0x20\n        /* \"#utility.yul\":646:651   */\n      dup2\n        /* \"#utility.yul\":642:658   */\n      add\n        /* \"#utility.yul\":691:694   */\n      dup5\n        /* \"#utility.yul\":682:688   */\n      dup5\n        /* \"#utility.yul\":677:680   */\n      dup5\n        /* \"#utility.yul\":673:689   */\n      add\n        /* \"#utility.yul\":670:695   */\n      gt\n        /* \"#utility.yul\":667:779   */\n      iszero\n      tag_395\n      jumpi\n        /* \"#utility.yul\":698:777   */\n      tag_396\n      tag_387\n      jump\t// in\n    tag_396:\n        /* \"#utility.yul\":667:779   */\n    tag_395:\n        /* \"#utility.yul\":788:829   */\n      tag_397\n        /* \"#utility.yul\":822:828   */\n      dup5\n        /* \"#utility.yul\":817:820   */\n      dup3\n        /* \"#utility.yul\":812:815   */\n      dup6\n        /* \"#utility.yul\":788:829   */\n      tag_389\n      jump\t// in\n    tag_397:\n        /* \"#utility.yul\":507:835   */\n      pop\n        /* \"#utility.yul\":423:835   */\n      swap4\n      swap3\n      pop\n      pop\n      pop\n      jump\t// out\n        /* \"#utility.yul\":841:980   */\n    tag_398:\n        /* \"#utility.yul\":887:892   */\n      0x00\n        /* \"#utility.yul\":925:931   */\n      dup2\n        /* \"#utility.yul\":912:932   */\n      calldataload\n        /* \"#utility.yul\":903:932   */\n      swap1\n      pop\n        /* \"#utility.yul\":941:974   */\n      tag_400\n        /* \"#utility.yul\":968:973   */\n      dup2\n        /* \"#utility.yul\":941:974   */\n      tag_401\n      jump\t// in\n    tag_400:\n        /* \"#utility.yul\":841:980   */\n      swap3\n      swap2\n      pop\n      pop\n      jump\t// out\n        /* \"#utility.yul\":986:1119   */\n    tag_402:\n        /* \"#utility.yul\":1029:1034   */\n      0x00\n        /* \"#utility.yul\":1067:1073   */\n      dup2\n        /* \"#utility.yul\":1054:1074   */\n      calldataload\n        /* \"#utility.yul\":1045:1074   */\n      swap1\n      pop\n        /* \"#utility.yul\":1083:1113   */\n      tag_404\n        /* \"#utility.yul\":1107:1112   */\n      dup2\n        /* \"#utility.yul\":1083:1113   */\n      tag_405\n      jump\t// in\n    tag_404:\n        /* \"#utility.yul\":986:1119   */\n      swap3\n      swap2\n      pop\n      pop\n      jump\t// out\n        /* \"#utility.yul\":1138:1476   */\n    tag_406:\n        /* \"#utility.yul\":1193:1198   */\n      0x00\n        /* \"#utility.yul\":1242:1245   */\n      dup3\n        /* \"#utility.yul\":1235:1239   */\n      0x1f\n        /* \"#utility.yul\":1227:1233   */\n      dup4\n        /* \"#utility.yul\":1223:1240   */\n      add\n        /* \"#utility.yul\":1219:1246   */\n      slt\n        /* \"#utility.yul\":1209:1331   */\n      tag_408\n      jumpi\n        /* \"#utility.yul\":1250:1329   */\n      tag_409\n      tag_410\n      jump\t// in\n    tag_409:\n        /* \"#utility.yul\":1209:1331   */\n    tag_408:\n        /* \"#utility.yul\":1367:1373   */\n      dup2\n        /* \"#utility.yul\":1354:1374   */\n      calldataload\n        /* \"#utility.yul\":1392:1470   */\n      tag_411\n        /* \"#utility.yul\":1466:1469   */\n      dup5\n        /* \"#utility.yul\":1458:1464   */\n      dup3\n        /* \"#utility.yul\":1451:1455   */\n      0x20\n        /* \"#utility.yul\":1443:1449   */\n      dup7\n        /* \"#utility.yul\":1439:1456   */\n      add\n        /* \"#utility.yul\":1392:1470   */\n      tag_379\n      jump\t// in\n    tag_411:\n        /* \"#utility.yul\":1383:1470   */\n      swap2\n      pop\n        /* \"#utility.yul\":1199:1476   */\n      pop\n        /* \"#utility.yul\":1138:1476   */\n      swap3\n      swap2\n      pop\n      pop\n      jump\t// out\n        /* \"#utility.yul\":1496:1836   */\n    tag_412:\n        /* \"#utility.yul\":1552:1557   */\n      0x00\n        /* \"#utility.yul\":1601:1604   */\n      dup3\n        /* \"#utility.yul\":1594:1598   */\n      0x1f\n        /* \"#utility.yul\":1586:1592   */\n      dup4\n        /* \"#utility.yul\":1582:1599   */\n      add\n        /* \"#utility.yul\":1578:1605   */\n      slt\n        /* \"#utility.yul\":1568:1690   */\n      tag_414\n      jumpi\n        /* \"#utility.yul\":1609:1688   */\n      tag_415\n      tag_410\n      jump\t// in\n    tag_415:\n        /* \"#utility.yul\":1568:1690   */\n    tag_414:\n        /* \"#utility.yul\":1726:1732   */\n      dup2\n        /* \"#utility.yul\":1713:1733   */\n      calldataload\n        /* \"#utility.yul\":1751:1830   */\n      tag_416\n        /* \"#utility.yul\":1826:1829   */\n      dup5\n        /* \"#utility.yul\":1818:1824   */\n      dup3\n        /* \"#utility.yul\":1811:1815   */\n      0x20\n        /* \"#utility.yul\":1803:1809   */\n      dup7\n        /* \"#utility.yul\":1799:1816   */\n      add\n        /* \"#utility.yul\":1751:1830   */\n      tag_390\n      jump\t// in\n    tag_416:\n        /* \"#utility.yul\":1742:1830   */\n      swap2\n      pop\n        /* \"#utility.yul\":1558:1836   */\n      pop\n        /* \"#utility.yul\":1496:1836   */\n      swap3\n      swap2\n      pop\n      pop\n      jump\t// out\n        /* \"#utility.yul\":1842:1981   */\n    tag_417:\n        /* \"#utility.yul\":1888:1893   */\n      0x00\n        /* \"#utility.yul\":1926:1932   */\n      dup2\n        /* \"#utility.yul\":1913:1933   */\n      calldataload\n        /* \"#utility.yul\":1904:1933   */\n      swap1\n      pop\n        /* \"#utility.yul\":1942:1975   */\n      tag_419\n        /* \"#utility.yul\":1969:1974   */\n      dup2\n        /* \"#utility.yul\":1942:1975   */\n      tag_420\n      jump\t// in\n    tag_419:\n        /* \"#utility.yul\":1842:1981   */\n      swap3\n      swap2\n      pop\n      pop\n      jump\t// out\n        /* \"#utility.yul\":1987:2316   */\n    tag_46:\n        /* \"#utility.yul\":2046:2052   */\n      0x00\n        /* \"#utility.yul\":2095:2097   */\n      0x20\n        /* \"#utility.yul\":2083:2092   */\n      dup3\n        /* \"#utility.yul\":2074:2081   */\n      dup5\n        /* \"#utility.yul\":2070:2093   */\n      sub\n        /* \"#utility.yul\":2066:2098   */\n      slt\n        /* \"#utility.yul\":2063:2182   */\n      iszero\n      tag_422\n      jumpi\n        /* \"#utility.yul\":2101:2180   */\n      tag_423\n      tag_424\n      jump\t// in\n    tag_423:\n        /* \"#utility.yul\":2063:2182   */\n    tag_422:\n        /* \"#utility.yul\":2221:2222   */\n      0x00\n        /* \"#utility.yul\":2246:2299   */\n      tag_425\n        /* \"#utility.yul\":2291:2298   */\n      dup5\n        /* \"#utility.yul\":2282:2288   */\n      dup3\n        /* \"#utility.yul\":2271:2280   */\n      dup6\n        /* \"#utility.yul\":2267:2289   */\n      add\n        /* \"#utility.yul\":2246:2299   */\n      tag_398\n      jump\t// in\n    tag_425:\n        /* \"#utility.yul\":2236:2299   */\n      swap2\n      pop\n        /* \"#utility.yul\":2192:2309   */\n      pop\n        /* \"#utility.yul\":1987:2316   */\n      swap3\n      swap2\n      pop\n      pop\n      jump\t// out\n        /* \"#utility.yul\":2322:2796   */\n    tag_119:\n        /* \"#utility.yul\":2390:2396   */\n      0x00\n        /* \"#utility.yul\":2398:2404   */\n      dup1\n        /* \"#utility.yul\":2447:2449   */\n      0x40\n        /* \"#utility.yul\":2435:2444   */\n      dup4\n        /* \"#utility.yul\":2426:2433   */\n      dup6\n        /* \"#utility.yul\":2422:2445   */\n      sub\n        /* \"#utility.yul\":2418:2450   */\n      slt\n        /* \"#utility.yul\":2415:2534   */\n      iszero\n      tag_427\n      jumpi\n        /* \"#utility.yul\":2453:2532   */\n      tag_428\n      tag_424\n      jump\t// in\n    tag_428:\n        /* \"#utility.yul\":2415:2534   */\n    tag_427:\n        /* \"#utility.yul\":2573:2574   */\n      0x00\n        /* \"#utility.yul\":2598:2651   */\n      tag_429\n        /* \"#utility.yul\":2643:2650   */\n      dup6\n        /* \"#utility.yul\":2634:2640   */\n      dup3\n        /* \"#utility.yul\":2623:2632   */\n      dup7\n        /* \"#utility.yul\":2619:2641   */\n      add\n        /* \"#utility.yul\":2598:2651   */\n      tag_398\n      jump\t// in\n    tag_429:\n        /* \"#utility.yul\":2588:2651   */\n      swap3\n      pop\n        /* \"#utility.yul\":2544:2661   */\n      pop\n        /* \"#utility.yul\":2700:2702   */\n      0x20\n        /* \"#utility.yul\":2726:2779   */\n      tag_430\n        /* \"#utility.yul\":2771:2778   */\n      dup6\n        /* \"#utility.yul\":2762:2768   */\n      dup3\n        /* \"#utility.yul\":2751:2760   */\n      dup7\n        /* \"#utility.yul\":2747:2769   */\n      add\n        /* \"#utility.yul\":2726:2779   */\n      tag_398\n      jump\t// in\n    tag_430:\n        /* \"#utility.yul\":2716:2779   */\n      swap2\n      pop\n        /* \"#utility.yul\":2671:2789   */\n      pop\n        /* \"#utility.yul\":2322:2796   */\n      swap3\n      pop\n      swap3\n      swap1\n      pop\n      jump\t// out\n        /* \"#utility.yul\":2802:3421   */\n    tag_52:\n        /* \"#utility.yul\":2879:2885   */\n      0x00\n        /* \"#utility.yul\":2887:2893   */\n      dup1\n        /* \"#utility.yul\":2895:2901   */\n      0x00\n        /* \"#utility.yul\":2944:2946   */\n      0x60\n        /* \"#utility.yul\":2932:2941   */\n      dup5\n        /* \"#utility.yul\":2923:2930   */\n      dup7\n        /* \"#utility.yul\":2919:2942   */\n      sub\n        /* \"#utility.yul\":2915:2947   */\n      slt\n        /* \"#utility.yul\":2912:3031   */\n      iszero\n      tag_432\n      jumpi\n        /* \"#utility.yul\":2950:3029   */\n      tag_433\n      tag_424\n      jump\t// in\n    tag_433:\n        /* \"#utility.yul\":2912:3031   */\n    tag_432:\n        /* \"#utility.yul\":3070:3071   */\n      0x00\n        /* \"#utility.yul\":3095:3148   */\n      tag_434\n        /* \"#utility.yul\":3140:3147   */\n      dup7\n        /* \"#utility.yul\":3131:3137   */\n      dup3\n        /* \"#utility.yul\":3120:3129   */\n      dup8\n        /* \"#utility.yul\":3116:3138   */\n      add\n        /* \"#utility.yul\":3095:3148   */\n      tag_398\n      jump\t// in\n    tag_434:\n        /* \"#utility.yul\":3085:3148   */\n      swap4\n      pop\n        /* \"#utility.yul\":3041:3158   */\n      pop\n        /* \"#utility.yul\":3197:3199   */\n      0x20\n        /* \"#utility.yul\":3223:3276   */\n      tag_435\n        /* \"#utility.yul\":3268:3275   */\n      dup7\n        /* \"#utility.yul\":3259:3265   */\n      dup3\n        /* \"#utility.yul\":3248:3257   */\n      dup8\n        /* \"#utility.yul\":3244:3266   */\n      add\n        /* \"#utility.yul\":3223:3276   */\n      tag_398\n      jump\t// in\n    tag_435:\n        /* \"#utility.yul\":3213:3276   */\n      swap3\n      pop\n        /* \"#utility.yul\":3168:3286   */\n      pop\n        /* \"#utility.yul\":3325:3327   */\n      0x40\n        /* \"#utility.yul\":3351:3404   */\n      tag_436\n        /* \"#utility.yul\":3396:3403   */\n      dup7\n        /* \"#utility.yul\":3387:3393   */\n      dup3\n        /* \"#utility.yul\":3376:3385   */\n      dup8\n        /* \"#utility.yul\":3372:3394   */\n      add\n        /* \"#utility.yul\":3351:3404   */\n      tag_417\n      jump\t// in\n    tag_436:\n        /* \"#utility.yul\":3341:3404   */\n      swap2\n      pop\n        /* \"#utility.yul\":3296:3414   */\n      pop\n        /* \"#utility.yul\":2802:3421   */\n      swap3\n      pop\n      swap3\n      pop\n      swap3\n      jump\t// out\n        /* \"#utility.yul\":3427:4370   */\n    tag_104:\n        /* \"#utility.yul\":3522:3528   */\n      0x00\n        /* \"#utility.yul\":3530:3536   */\n      dup1\n        /* \"#utility.yul\":3538:3544   */\n      0x00\n        /* \"#utility.yul\":3546:3552   */\n      dup1\n        /* \"#utility.yul\":3595:3598   */\n      0x80\n        /* \"#utility.yul\":3583:3592   */\n      dup6\n        /* \"#utility.yul\":3574:3581   */\n      dup8\n        /* \"#utility.yul\":3570:3593   */\n      sub\n        /* \"#utility.yul\":3566:3599   */\n      slt\n        /* \"#utility.yul\":3563:3683   */\n      iszero\n      tag_438\n      jumpi\n        /* \"#utility.yul\":3602:3681   */\n      tag_439\n      tag_424\n      jump\t// in\n    tag_439:\n        /* \"#utility.yul\":3563:3683   */\n    tag_438:\n        /* \"#utility.yul\":3722:3723   */\n      0x00\n        /* \"#utility.yul\":3747:3800   */\n      tag_440\n        /* \"#utility.yul\":3792:3799   */\n      dup8\n        /* \"#utility.yul\":3783:3789   */\n      dup3\n        /* \"#utility.yul\":3772:3781   */\n      dup9\n        /* \"#utility.yul\":3768:3790   */\n      add\n        /* \"#utility.yul\":3747:3800   */\n      tag_398\n      jump\t// in\n    tag_440:\n        /* \"#utility.yul\":3737:3800   */\n      swap5\n      pop\n        /* \"#utility.yul\":3693:3810   */\n      pop\n        /* \"#utility.yul\":3849:3851   */\n      0x20\n        /* \"#utility.yul\":3875:3928   */\n      tag_441\n        /* \"#utility.yul\":3920:3927   */\n      dup8\n        /* \"#utility.yul\":3911:3917   */\n      dup3\n        /* \"#utility.yul\":3900:3909   */\n      dup9\n        /* \"#utility.yul\":3896:3918   */\n      add\n        /* \"#utility.yul\":3875:3928   */\n      tag_398\n      jump\t// in\n    tag_441:\n        /* \"#utility.yul\":3865:3928   */\n      swap4\n      pop\n        /* \"#utility.yul\":3820:3938   */\n      pop\n        /* \"#utility.yul\":3977:3979   */\n      0x40\n        /* \"#utility.yul\":4003:4056   */\n      tag_442\n        /* \"#utility.yul\":4048:4055   */\n      dup8\n        /* \"#utility.yul\":4039:4045   */\n      dup3\n        /* \"#utility.yul\":4028:4037   */\n      dup9\n        /* \"#utility.yul\":4024:4046   */\n      add\n        /* \"#utility.yul\":4003:4056   */\n      tag_417\n      jump\t// in\n    tag_442:\n        /* \"#utility.yul\":3993:4056   */\n      swap3\n      pop\n        /* \"#utility.yul\":3948:4066   */\n      pop\n        /* \"#utility.yul\":4133:4135   */\n      0x60\n        /* \"#utility.yul\":4122:4131   */\n      dup6\n        /* \"#utility.yul\":4118:4136   */\n      add\n        /* \"#utility.yul\":4105:4137   */\n      calldataload\n        /* \"#utility.yul\":4164:4182   */\n      0xffffffffffffffff\n        /* \"#utility.yul\":4156:4162   */\n      dup2\n        /* \"#utility.yul\":4153:4183   */\n      gt\n        /* \"#utility.yul\":4150:4267   */\n      iszero\n      tag_443\n      jumpi\n        /* \"#utility.yul\":4186:4265   */\n      tag_444\n      tag_445\n      jump\t// in\n    tag_444:\n        /* \"#utility.yul\":4150:4267   */\n    tag_443:\n        /* \"#utility.yul\":4291:4353   */\n      tag_446\n        /* \"#utility.yul\":4345:4352   */\n      dup8\n        /* \"#utility.yul\":4336:4342   */\n      dup3\n        /* \"#utility.yul\":4325:4334   */\n      dup9\n        /* \"#utility.yul\":4321:4343   */\n      add\n        /* \"#utility.yul\":4291:4353   */\n      tag_406\n      jump\t// in\n    tag_446:\n        /* \"#utility.yul\":4281:4353   */\n      swap2\n      pop\n        /* \"#utility.yul\":4076:4363   */\n      pop\n        /* \"#utility.yul\":3427:4370   */\n      swap3\n      swap6\n      swap2\n      swap5\n      pop\n      swap3\n      pop\n      jump\t// out\n        /* \"#utility.yul\":4376:4844   */\n    tag_96:\n        /* \"#utility.yul\":4441:4447   */\n      0x00\n        /* \"#utility.yul\":4449:4455   */\n      dup1\n        /* \"#utility.yul\":4498:4500   */\n      0x40\n        /* \"#utility.yul\":4486:4495   */\n      dup4\n        /* \"#utility.yul\":4477:4484   */\n      dup6\n        /* \"#utility.yul\":4473:4496   */\n      sub\n        /* \"#utility.yul\":4469:4501   */\n      slt\n        /* \"#utility.yul\":4466:4585   */\n      iszero\n      tag_448\n      jumpi\n        /* \"#utility.yul\":4504:4583   */\n      tag_449\n      tag_424\n      jump\t// in\n    tag_449:\n        /* \"#utility.yul\":4466:4585   */\n    tag_448:\n        /* \"#utility.yul\":4624:4625   */\n      0x00\n        /* \"#utility.yul\":4649:4702   */\n      tag_450\n        /* \"#utility.yul\":4694:4701   */\n      dup6\n        /* \"#utility.yul\":4685:4691   */\n      dup3\n        /* \"#utility.yul\":4674:4683   */\n      dup7\n        /* \"#utility.yul\":4670:4692   */\n      add\n        /* \"#utility.yul\":4649:4702   */\n      tag_398\n      jump\t// in\n    tag_450:\n        /* \"#utility.yul\":4639:4702   */\n      swap3\n      pop\n        /* \"#utility.yul\":4595:4712   */\n      pop\n        /* \"#utility.yul\":4751:4753   */\n      0x20\n        /* \"#utility.yul\":4777:4827   */\n      tag_451\n        /* \"#utility.yul\":4819:4826   */\n      dup6\n        /* \"#utility.yul\":4810:4816   */\n      dup3\n        /* \"#utility.yul\":4799:4808   */\n      dup7\n        /* \"#utility.yul\":4795:4817   */\n      add\n        /* \"#utility.yul\":4777:4827   */\n      tag_402\n      jump\t// in\n    tag_451:\n        /* \"#utility.yul\":4767:4827   */\n      swap2\n      pop\n        /* \"#utility.yul\":4722:4837   */\n      pop\n        /* \"#utility.yul\":4376:4844   */\n      swap3\n      pop\n      swap3\n      swap1\n      pop\n      jump\t// out\n        /* \"#utility.yul\":4850:5829   */\n    tag_28:\n        /* \"#utility.yul\":4947:4953   */\n      0x00\n        /* \"#utility.yul\":4955:4961   */\n      dup1\n        /* \"#utility.yul\":4963:4969   */\n      0x00\n        /* \"#utility.yul\":5012:5014   */\n      0x60\n        /* \"#utility.yul\":5000:5009   */\n      dup5\n        /* \"#utility.yul\":4991:4998   */\n      dup7\n        /* \"#utility.yul\":4987:5010   */\n      sub\n        /* \"#utility.yul\":4983:5015   */\n      slt\n        /* \"#utility.yul\":4980:5099   */\n      iszero\n      tag_453\n      jumpi\n        /* \"#utility.yul\":5018:5097   */\n      tag_454\n      tag_424\n      jump\t// in\n    tag_454:\n        /* \"#utility.yul\":4980:5099   */\n    tag_453:\n        /* \"#utility.yul\":5138:5139   */\n      0x00\n        /* \"#utility.yul\":5163:5216   */\n      tag_455\n        /* \"#utility.yul\":5208:5215   */\n      dup7\n        /* \"#utility.yul\":5199:5205   */\n      dup3\n        /* \"#utility.yul\":5188:5197   */\n      dup8\n        /* \"#utility.yul\":5184:5206   */\n      add\n        /* \"#utility.yul\":5163:5216   */\n      tag_398\n      jump\t// in\n    tag_455:\n        /* \"#utility.yul\":5153:5216   */\n      swap4\n      pop\n        /* \"#utility.yul\":5109:5226   */\n      pop\n        /* \"#utility.yul\":5293:5295   */\n      0x20\n        /* \"#utility.yul\":5282:5291   */\n      dup5\n        /* \"#utility.yul\":5278:5296   */\n      add\n        /* \"#utility.yul\":5265:5297   */\n      calldataload\n        /* \"#utility.yul\":5324:5342   */\n      0xffffffffffffffff\n        /* \"#utility.yul\":5316:5322   */\n      dup2\n        /* \"#utility.yul\":5313:5343   */\n      gt\n        /* \"#utility.yul\":5310:5427   */\n      iszero\n      tag_456\n      jumpi\n        /* \"#utility.yul\":5346:5425   */\n      tag_457\n      tag_445\n      jump\t// in\n    tag_457:\n        /* \"#utility.yul\":5310:5427   */\n    tag_456:\n        /* \"#utility.yul\":5451:5514   */\n      tag_458\n        /* \"#utility.yul\":5506:5513   */\n      dup7\n        /* \"#utility.yul\":5497:5503   */\n      dup3\n        /* \"#utility.yul\":5486:5495   */\n      dup8\n        /* \"#utility.yul\":5482:5504   */\n      add\n        /* \"#utility.yul\":5451:5514   */\n      tag_412\n      jump\t// in\n    tag_458:\n        /* \"#utility.yul\":5441:5514   */\n      swap3\n      pop\n        /* \"#utility.yul\":5236:5524   */\n      pop\n        /* \"#utility.yul\":5591:5593   */\n      0x40\n        /* \"#utility.yul\":5580:5589   */\n      dup5\n        /* \"#utility.yul\":5576:5594   */\n      add\n        /* \"#utility.yul\":5563:5595   */\n      calldataload\n        /* \"#utility.yul\":5622:5640   */\n      0xffffffffffffffff\n        /* \"#utility.yul\":5614:5620   */\n      dup2\n        /* \"#utility.yul\":5611:5641   */\n      gt\n        /* \"#utility.yul\":5608:5725   */\n      iszero\n      tag_459\n      jumpi\n        /* \"#utility.yul\":5644:5723   */\n      tag_460\n      tag_445\n      jump\t// in\n    tag_460:\n        /* \"#utility.yul\":5608:5725   */\n    tag_459:\n        /* \"#utility.yul\":5749:5812   */\n      tag_461\n        /* \"#utility.yul\":5804:5811   */\n      dup7\n        /* \"#utility.yul\":5795:5801   */\n      dup3\n        /* \"#utility.yul\":5784:5793   */\n      dup8\n        /* \"#utility.yul\":5780:5802   */\n      add\n        /* \"#utility.yul\":5749:5812   */\n      tag_412\n      jump\t// in\n    tag_461:\n        /* \"#utility.yul\":5739:5812   */\n      swap2\n      pop\n        /* \"#utility.yul\":5534:5822   */\n      pop\n        /* \"#utility.yul\":4850:5829   */\n      swap3\n      pop\n      swap3\n      pop\n      swap3\n      jump\t// out\n        /* \"#utility.yul\":5835:6309   */\n    tag_41:\n        /* \"#utility.yul\":5903:5909   */\n      0x00\n        /* \"#utility.yul\":5911:5917   */\n      dup1\n        /* \"#utility.yul\":5960:5962   */\n      0x40\n        /* \"#utility.yul\":5948:5957   */\n      dup4\n        /* \"#utility.yul\":5939:5946   */\n      dup6\n        /* \"#utility.yul\":5935:5958   */\n      sub\n        /* \"#utility.yul\":5931:5963   */\n      slt\n        /* \"#utility.yul\":5928:6047   */\n      iszero\n      tag_463\n      jumpi\n        /* \"#utility.yul\":5966:6045   */\n      tag_464\n      tag_424\n      jump\t// in\n    tag_464:\n        /* \"#utility.yul\":5928:6047   */\n    tag_463:\n        /* \"#utility.yul\":6086:6087   */\n      0x00\n        /* \"#utility.yul\":6111:6164   */\n      tag_465\n        /* \"#utility.yul\":6156:6163   */\n      dup6\n        /* \"#utility.yul\":6147:6153   */\n      dup3\n        /* \"#utility.yul\":6136:6145   */\n      dup7\n        /* \"#utility.yul\":6132:6154   */\n      add\n        /* \"#utility.yul\":6111:6164   */\n      tag_398\n      jump\t// in\n    tag_465:\n        /* \"#utility.yul\":6101:6164   */\n      swap3\n      pop\n        /* \"#utility.yul\":6057:6174   */\n      pop\n        /* \"#utility.yul\":6213:6215   */\n      0x20\n        /* \"#utility.yul\":6239:6292   */\n      tag_466\n        /* \"#utility.yul\":6284:6291   */\n      dup6\n        /* \"#utility.yul\":6275:6281   */\n      dup3\n        /* \"#utility.yul\":6264:6273   */\n      dup7\n        /* \"#utility.yul\":6260:6282   */\n      add\n        /* \"#utility.yul\":6239:6292   */\n      tag_417\n      jump\t// in\n    tag_466:\n        /* \"#utility.yul\":6229:6292   */\n      swap2\n      pop\n        /* \"#utility.yul\":6184:6302   */\n      pop\n        /* \"#utility.yul\":5835:6309   */\n      swap3\n      pop\n      swap3\n      swap1\n      pop\n      jump\t// out\n        /* \"#utility.yul\":6315:7474   */\n    tag_57:\n        /* \"#utility.yul\":6422:6428   */\n      0x00\n        /* \"#utility.yul\":6430:6436   */\n      dup1\n        /* \"#utility.yul\":6438:6444   */\n      0x00\n        /* \"#utility.yul\":6487:6489   */\n      0x60\n        /* \"#utility.yul\":6475:6484   */\n      dup5\n        /* \"#utility.yul\":6466:6473   */\n      dup7\n        /* \"#utility.yul\":6462:6485   */\n      sub\n        /* \"#utility.yul\":6458:6490   */\n      slt\n        /* \"#utility.yul\":6455:6574   */\n      iszero\n      tag_468\n      jumpi\n        /* \"#utility.yul\":6493:6572   */\n      tag_469\n      tag_424\n      jump\t// in\n    tag_469:\n        /* \"#utility.yul\":6455:6574   */\n    tag_468:\n        /* \"#utility.yul\":6641:6642   */\n      0x00\n        /* \"#utility.yul\":6630:6639   */\n      dup5\n        /* \"#utility.yul\":6626:6643   */\n      add\n        /* \"#utility.yul\":6613:6644   */\n      calldataload\n        /* \"#utility.yul\":6671:6689   */\n      0xffffffffffffffff\n        /* \"#utility.yul\":6663:6669   */\n      dup2\n        /* \"#utility.yul\":6660:6690   */\n      gt\n        /* \"#utility.yul\":6657:6774   */\n      iszero\n      tag_470\n      jumpi\n        /* \"#utility.yul\":6693:6772   */\n      tag_471\n      tag_445\n      jump\t// in\n    tag_471:\n        /* \"#utility.yul\":6657:6774   */\n    tag_470:\n        /* \"#utility.yul\":6798:6861   */\n      tag_472\n        /* \"#utility.yul\":6853:6860   */\n      dup7\n        /* \"#utility.yul\":6844:6850   */\n      dup3\n        /* \"#utility.yul\":6833:6842   */\n      dup8\n        /* \"#utility.yul\":6829:6851   */\n      add\n        /* \"#utility.yul\":6798:6861   */\n      tag_412\n      jump\t// in\n    tag_472:\n        /* \"#utility.yul\":6788:6861   */\n      swap4\n      pop\n        /* \"#utility.yul\":6584:6871   */\n      pop\n        /* \"#utility.yul\":6938:6940   */\n      0x20\n        /* \"#utility.yul\":6927:6936   */\n      dup5\n        /* \"#utility.yul\":6923:6941   */\n      add\n        /* \"#utility.yul\":6910:6942   */\n      calldataload\n        /* \"#utility.yul\":6969:6987   */\n      0xffffffffffffffff\n        /* \"#utility.yul\":6961:6967   */\n      dup2\n        /* \"#utility.yul\":6958:6988   */\n      gt\n        /* \"#utility.yul\":6955:7072   */\n      iszero\n      tag_473\n      jumpi\n        /* \"#utility.yul\":6991:7070   */\n      tag_474\n      tag_445\n      jump\t// in\n    tag_474:\n        /* \"#utility.yul\":6955:7072   */\n    tag_473:\n        /* \"#utility.yul\":7096:7159   */\n      tag_475\n        /* \"#utility.yul\":7151:7158   */\n      dup7\n        /* \"#utility.yul\":7142:7148   */\n      dup3\n        /* \"#utility.yul\":7131:7140   */\n      dup8\n        /* \"#utility.yul\":7127:7149   */\n      add\n        /* \"#utility.yul\":7096:7159   */\n      tag_412\n      jump\t// in\n    tag_475:\n        /* \"#utility.yul\":7086:7159   */\n      swap3\n      pop\n        /* \"#utility.yul\":6881:7169   */\n      pop\n        /* \"#utility.yul\":7236:7238   */\n      0x40\n        /* \"#utility.yul\":7225:7234   */\n      dup5\n        /* \"#utility.yul\":7221:7239   */\n      add\n        /* \"#utility.yul\":7208:7240   */\n      calldataload\n        /* \"#utility.yul\":7267:7285   */\n      0xffffffffffffffff\n        /* \"#utility.yul\":7259:7265   */\n      dup2\n        /* \"#utility.yul\":7256:7286   */\n      gt\n        /* \"#utility.yul\":7253:7370   */\n      iszero\n      tag_476\n      jumpi\n        /* \"#utility.yul\":7289:7368   */\n      tag_477\n      tag_445\n      jump\t// in\n    tag_477:\n        /* \"#utility.yul\":7253:7370   */\n    tag_476:\n        /* \"#utility.yul\":7394:7457   */\n      tag_478\n        /* \"#utility.yul\":7449:7456   */\n      dup7\n        /* \"#utility.yul\":7440:7446   */\n      dup3\n        /* \"#utility.yul\":7429:7438   */\n      dup8\n        /* \"#utility.yul\":7425:7447   */\n      add\n        /* \"#utility.yul\":7394:7457   */\n      tag_412\n      jump\t// in\n    tag_478:\n        /* \"#utility.yul\":7384:7457   */\n      swap2\n      pop\n        /* \"#utility.yul\":7179:7467   */\n      pop\n        /* \"#utility.yul\":6315:7474   */\n      swap3\n      pop\n      swap3\n      pop\n      swap3\n      jump\t// out\n        /* \"#utility.yul\":7480:7809   */\n    tag_35:\n        /* \"#utility.yul\":7539:7545   */\n      0x00\n        /* \"#utility.yul\":7588:7590   */\n      0x20\n        /* \"#utility.yul\":7576:7585   */\n      dup3\n        /* \"#utility.yul\":7567:7574   */\n      dup5\n        /* \"#utility.yul\":7563:7586   */\n      sub\n        /* \"#utility.yul\":7559:7591   */\n      slt\n        /* \"#utility.yul\":7556:7675   */\n      iszero\n      tag_480\n      jumpi\n        /* \"#utility.yul\":7594:7673   */\n      tag_481\n      tag_424\n      jump\t// in\n    tag_481:\n        /* \"#utility.yul\":7556:7675   */\n    tag_480:\n        /* \"#utility.yul\":7714:7715   */\n      0x00\n        /* \"#utility.yul\":7739:7792   */\n      tag_482\n        /* \"#utility.yul\":7784:7791   */\n      dup5\n        /* \"#utility.yul\":7775:7781   */\n      dup3\n        /* \"#utility.yul\":7764:7773   */\n      dup6\n        /* \"#utility.yul\":7760:7782   */\n      add\n        /* \"#utility.yul\":7739:7792   */\n      tag_417\n      jump\t// in\n    tag_482:\n        /* \"#utility.yul\":7729:7792   */\n      swap2\n      pop\n        /* \"#utility.yul\":7685:7802   */\n      pop\n        /* \"#utility.yul\":7480:7809   */\n      swap3\n      swap2\n      pop\n      pop\n      jump\t// out\n        /* \"#utility.yul\":7815:7933   */\n    tag_483:\n        /* \"#utility.yul\":7902:7926   */\n      tag_485\n        /* \"#utility.yul\":7920:7925   */\n      dup2\n        /* \"#utility.yul\":7902:7926   */\n      tag_486\n      jump\t// in\n    tag_485:\n        /* \"#utility.yul\":7897:7900   */\n      dup3\n        /* \"#utility.yul\":7890:7927   */\n      mstore\n        /* \"#utility.yul\":7815:7933   */\n      pop\n      pop\n      jump\t// out\n        /* \"#utility.yul\":7939:8048   */\n    tag_487:\n        /* \"#utility.yul\":8020:8041   */\n      tag_489\n        /* \"#utility.yul\":8035:8040   */\n      dup2\n        /* \"#utility.yul\":8020:8041   */\n      tag_490\n      jump\t// in\n    tag_489:\n        /* \"#utility.yul\":8015:8018   */\n      dup3\n        /* \"#utility.yul\":8008:8042   */\n      mstore\n        /* \"#utility.yul\":7939:8048   */\n      pop\n      pop\n      jump\t// out\n        /* \"#utility.yul\":8054:8418   */\n    tag_491:\n        /* \"#utility.yul\":8142:8145   */\n      0x00\n        /* \"#utility.yul\":8170:8209   */\n      tag_493\n        /* \"#utility.yul\":8203:8208   */\n      dup3\n        /* \"#utility.yul\":8170:8209   */\n      tag_494\n      jump\t// in\n    tag_493:\n        /* \"#utility.yul\":8225:8296   */\n      tag_495\n        /* \"#utility.yul\":8289:8295   */\n      dup2\n        /* \"#utility.yul\":8284:8287   */\n      dup6\n        /* \"#utility.yul\":8225:8296   */\n      tag_496\n      jump\t// in\n    tag_495:\n        /* \"#utility.yul\":8218:8296   */\n      swap4\n      pop\n        /* \"#utility.yul\":8305:8357   */\n      tag_497\n        /* \"#utility.yul\":8350:8356   */\n      dup2\n        /* \"#utility.yul\":8345:8348   */\n      dup6\n        /* \"#utility.yul\":8338:8342   */\n      0x20\n        /* \"#utility.yul\":8331:8336   */\n      dup7\n        /* \"#utility.yul\":8327:8343   */\n      add\n        /* \"#utility.yul\":8305:8357   */\n      tag_498\n      jump\t// in\n    tag_497:\n        /* \"#utility.yul\":8382:8411   */\n      tag_499\n        /* \"#utility.yul\":8404:8410   */\n      dup2\n        /* \"#utility.yul\":8382:8411   */\n      tag_500\n      jump\t// in\n    tag_499:\n        /* \"#utility.yul\":8377:8380   */\n      dup5\n        /* \"#utility.yul\":8373:8412   */\n      add\n        /* \"#utility.yul\":8366:8412   */\n      swap2\n      pop\n        /* \"#utility.yul\":8146:8418   */\n      pop\n        /* \"#utility.yul\":8054:8418   */\n      swap3\n      swap2\n      pop\n      pop\n      jump\t// out\n        /* \"#utility.yul\":8448:9250   */\n    tag_501:\n        /* \"#utility.yul\":8533:8536   */\n      0x00\n        /* \"#utility.yul\":8570:8575   */\n      dup2\n        /* \"#utility.yul\":8564:8576   */\n      sload\n        /* \"#utility.yul\":8599:8635   */\n      tag_503\n        /* \"#utility.yul\":8625:8634   */\n      dup2\n        /* \"#utility.yul\":8599:8635   */\n      tag_308\n      jump\t// in\n    tag_503:\n        /* \"#utility.yul\":8651:8722   */\n      tag_504\n        /* \"#utility.yul\":8715:8721   */\n      dup2\n        /* \"#utility.yul\":8710:8713   */\n      dup7\n        /* \"#utility.yul\":8651:8722   */\n      tag_496\n      jump\t// in\n    tag_504:\n        /* \"#utility.yul\":8644:8722   */\n      swap5\n      pop\n        /* \"#utility.yul\":8753:8754   */\n      0x01\n        /* \"#utility.yul\":8742:8751   */\n      dup3\n        /* \"#utility.yul\":8738:8755   */\n      and\n        /* \"#utility.yul\":8769:8770   */\n      0x00\n        /* \"#utility.yul\":8764:8899   */\n      dup2\n      eq\n      tag_506\n      jumpi\n        /* \"#utility.yul\":8913:8914   */\n      0x01\n        /* \"#utility.yul\":8908:9244   */\n      dup2\n      eq\n      tag_507\n      jumpi\n        /* \"#utility.yul\":8731:9244   */\n      jump(tag_505)\n        /* \"#utility.yul\":8764:8899   */\n    tag_506:\n        /* \"#utility.yul\":8848:8852   */\n      0xff\n        /* \"#utility.yul\":8844:8853   */\n      not\n        /* \"#utility.yul\":8833:8842   */\n      dup4\n        /* \"#utility.yul\":8829:8854   */\n      and\n        /* \"#utility.yul\":8824:8827   */\n      dup7\n        /* \"#utility.yul\":8817:8855   */\n      mstore\n        /* \"#utility.yul\":8884:8888   */\n      0x20\n        /* \"#utility.yul\":8879:8882   */\n      dup7\n        /* \"#utility.yul\":8875:8889   */\n      add\n        /* \"#utility.yul\":8868:8889   */\n      swap4\n      pop\n        /* \"#utility.yul\":8764:8899   */\n      jump(tag_505)\n        /* \"#utility.yul\":8908:9244   */\n    tag_507:\n        /* \"#utility.yul\":8975:9013   */\n      tag_508\n        /* \"#utility.yul\":9007:9012   */\n      dup6\n        /* \"#utility.yul\":8975:9013   */\n      tag_509\n      jump\t// in\n    tag_508:\n        /* \"#utility.yul\":9035:9036   */\n      0x00\n        /* \"#utility.yul\":9049:9203   */\n    tag_510:\n        /* \"#utility.yul\":9063:9069   */\n      dup4\n        /* \"#utility.yul\":9060:9061   */\n      dup2\n        /* \"#utility.yul\":9057:9070   */\n      lt\n        /* \"#utility.yul\":9049:9203   */\n      iszero\n      tag_512\n      jumpi\n        /* \"#utility.yul\":9137:9144   */\n      dup2\n        /* \"#utility.yul\":9131:9145   */\n      sload\n        /* \"#utility.yul\":9127:9128   */\n      dup2\n        /* \"#utility.yul\":9122:9125   */\n      dup10\n        /* \"#utility.yul\":9118:9129   */\n      add\n        /* \"#utility.yul\":9111:9146   */\n      mstore\n        /* \"#utility.yul\":9187:9188   */\n      0x01\n        /* \"#utility.yul\":9178:9185   */\n      dup3\n        /* \"#utility.yul\":9174:9189   */\n      add\n        /* \"#utility.yul\":9163:9189   */\n      swap2\n      pop\n        /* \"#utility.yul\":9085:9089   */\n      0x20\n        /* \"#utility.yul\":9082:9083   */\n      dup2\n        /* \"#utility.yul\":9078:9090   */\n      add\n        /* \"#utility.yul\":9073:9090   */\n      swap1\n      pop\n        /* \"#utility.yul\":9049:9203   */\n      jump(tag_510)\n    tag_512:\n        /* \"#utility.yul\":9232:9233   */\n      dup1\n        /* \"#utility.yul\":9227:9230   */\n      dup9\n        /* \"#utility.yul\":9223:9234   */\n      add\n        /* \"#utility.yul\":9216:9234   */\n      swap6\n      pop\n        /* \"#utility.yul\":8915:9244   */\n      pop\n      pop\n        /* \"#utility.yul\":8731:9244   */\n    tag_505:\n      pop\n        /* \"#utility.yul\":8537:9250   */\n      pop\n      pop\n        /* \"#utility.yul\":8448:9250   */\n      swap3\n      swap2\n      pop\n      pop\n      jump\t// out\n        /* \"#utility.yul\":9256:9622   */\n    tag_513:\n        /* \"#utility.yul\":9398:9401   */\n      0x00\n        /* \"#utility.yul\":9419:9486   */\n      tag_515\n        /* \"#utility.yul\":9483:9485   */\n      0x28\n        /* \"#utility.yul\":9478:9481   */\n      dup4\n        /* \"#utility.yul\":9419:9486   */\n      tag_496\n      jump\t// in\n    tag_515:\n        /* \"#utility.yul\":9412:9486   */\n      swap2\n      pop\n        /* \"#utility.yul\":9495:9588   */\n      tag_516\n        /* \"#utility.yul\":9584:9587   */\n      dup3\n        /* \"#utility.yul\":9495:9588   */\n      tag_517\n      jump\t// in\n    tag_516:\n        /* \"#utility.yul\":9613:9615   */\n      0x40\n        /* \"#utility.yul\":9608:9611   */\n      dup3\n        /* \"#utility.yul\":9604:9616   */\n      add\n        /* \"#utility.yul\":9597:9616   */\n      swap1\n      pop\n        /* \"#utility.yul\":9256:9622   */\n      swap2\n      swap1\n      pop\n      jump\t// out\n        /* \"#utility.yul\":9628:9994   */\n    tag_518:\n        /* \"#utility.yul\":9770:9773   */\n      0x00\n        /* \"#utility.yul\":9791:9858   */\n      tag_520\n        /* \"#utility.yul\":9855:9857   */\n      0x26\n        /* \"#utility.yul\":9850:9853   */\n      dup4\n        /* \"#utility.yul\":9791:9858   */\n      tag_496\n      jump\t// in\n    tag_520:\n        /* \"#utility.yul\":9784:9858   */\n      swap2\n      pop\n        /* \"#utility.yul\":9867:9960   */\n      tag_521\n        /* \"#utility.yul\":9956:9959   */\n      dup3\n        /* \"#utility.yul\":9867:9960   */\n      tag_522\n      jump\t// in\n    tag_521:\n        /* \"#utility.yul\":9985:9987   */\n      0x40\n        /* \"#utility.yul\":9980:9983   */\n      dup3\n        /* \"#utility.yul\":9976:9988   */\n      add\n        /* \"#utility.yul\":9969:9988   */\n      swap1\n      pop\n        /* \"#utility.yul\":9628:9994   */\n      swap2\n      swap1\n      pop\n      jump\t// out\n        /* \"#utility.yul\":10000:10366   */\n    tag_523:\n        /* \"#utility.yul\":10142:10145   */\n      0x00\n        /* \"#utility.yul\":10163:10230   */\n      tag_525\n        /* \"#utility.yul\":10227:10229   */\n      0x32\n        /* \"#utility.yul\":10222:10225   */\n      dup4\n        /* \"#utility.yul\":10163:10230   */\n      tag_496\n      jump\t// in\n    tag_525:\n        /* \"#utility.yul\":10156:10230   */\n      swap2\n      pop\n        /* \"#utility.yul\":10239:10332   */\n      tag_526\n        /* \"#utility.yul\":10328:10331   */\n      dup3\n        /* \"#utility.yul\":10239:10332   */\n      tag_527\n      jump\t// in\n    tag_526:\n        /* \"#utility.yul\":10357:10359   */\n      0x40\n        /* \"#utility.yul\":10352:10355   */\n      dup3\n        /* \"#utility.yul\":10348:10360   */\n      add\n        /* \"#utility.yul\":10341:10360   */\n      swap1\n      pop\n        /* \"#utility.yul\":10000:10366   */\n      swap2\n      swap1\n      pop\n      jump\t// out\n        /* \"#utility.yul\":10372:10738   */\n    tag_528:\n        /* \"#utility.yul\":10514:10517   */\n      0x00\n        /* \"#utility.yul\":10535:10602   */\n      tag_530\n        /* \"#utility.yul\":10599:10601   */\n      0x20\n        /* \"#utility.yul\":10594:10597   */\n      dup4\n        /* \"#utility.yul\":10535:10602   */\n      tag_496\n      jump\t// in\n    tag_530:\n        /* \"#utility.yul\":10528:10602   */\n      swap2\n      pop\n        /* \"#utility.yul\":10611:10704   */\n      tag_531\n        /* \"#utility.yul\":10700:10703   */\n      dup3\n        /* \"#utility.yul\":10611:10704   */\n      tag_532\n      jump\t// in\n    tag_531:\n        /* \"#utility.yul\":10729:10731   */\n      0x20\n        /* \"#utility.yul\":10724:10727   */\n      dup3\n        /* \"#utility.yul\":10720:10732   */\n      add\n        /* \"#utility.yul\":10713:10732   */\n      swap1\n      pop\n        /* \"#utility.yul\":10372:10738   */\n      swap2\n      swap1\n      pop\n      jump\t// out\n        /* \"#utility.yul\":10744:11110   */\n    tag_533:\n        /* \"#utility.yul\":10886:10889   */\n      0x00\n        /* \"#utility.yul\":10907:10974   */\n      tag_535\n        /* \"#utility.yul\":10971:10973   */\n      0x15\n        /* \"#utility.yul\":10966:10969   */\n      dup4\n        /* \"#utility.yul\":10907:10974   */\n      tag_496\n      jump\t// in\n    tag_535:\n        /* \"#utility.yul\":10900:10974   */\n      swap2\n      pop\n        /* \"#utility.yul\":10983:11076   */\n      tag_536\n        /* \"#utility.yul\":11072:11075   */\n      dup3\n        /* \"#utility.yul\":10983:11076   */\n      tag_537\n      jump\t// in\n    tag_536:\n        /* \"#utility.yul\":11101:11103   */\n      0x20\n        /* \"#utility.yul\":11096:11099   */\n      dup3\n        /* \"#utility.yul\":11092:11104   */\n      add\n        /* \"#utility.yul\":11085:11104   */\n      swap1\n      pop\n        /* \"#utility.yul\":10744:11110   */\n      swap2\n      swap1\n      pop\n      jump\t// out\n        /* \"#utility.yul\":11116:11234   */\n    tag_538:\n        /* \"#utility.yul\":11203:11227   */\n      tag_540\n        /* \"#utility.yul\":11221:11226   */\n      dup2\n        /* \"#utility.yul\":11203:11227   */\n      tag_541\n      jump\t// in\n    tag_540:\n        /* \"#utility.yul\":11198:11201   */\n      dup3\n        /* \"#utility.yul\":11191:11228   */\n      mstore\n        /* \"#utility.yul\":11116:11234   */\n      pop\n      pop\n      jump\t// out\n        /* \"#utility.yul\":11240:11397   */\n    tag_542:\n        /* \"#utility.yul\":11345:11390   */\n      tag_544\n        /* \"#utility.yul\":11365:11389   */\n      tag_545\n        /* \"#utility.yul\":11383:11388   */\n      dup3\n        /* \"#utility.yul\":11365:11389   */\n      tag_541\n      jump\t// in\n    tag_545:\n        /* \"#utility.yul\":11345:11390   */\n      tag_546\n      jump\t// in\n    tag_544:\n        /* \"#utility.yul\":11340:11343   */\n      dup3\n        /* \"#utility.yul\":11333:11391   */\n      mstore\n        /* \"#utility.yul\":11240:11397   */\n      pop\n      pop\n      jump\t// out\n        /* \"#utility.yul\":11403:11518   */\n    tag_547:\n        /* \"#utility.yul\":11488:11511   */\n      tag_549\n        /* \"#utility.yul\":11505:11510   */\n      dup2\n        /* \"#utility.yul\":11488:11511   */\n      tag_550\n      jump\t// in\n    tag_549:\n        /* \"#utility.yul\":11483:11486   */\n      dup3\n        /* \"#utility.yul\":11476:11512   */\n      mstore\n        /* \"#utility.yul\":11403:11518   */\n      pop\n      pop\n      jump\t// out\n        /* \"#utility.yul\":11524:12062   */\n    tag_192:\n        /* \"#utility.yul\":11692:11695   */\n      0x00\n        /* \"#utility.yul\":11707:11782   */\n      tag_552\n        /* \"#utility.yul\":11778:11781   */\n      dup3\n        /* \"#utility.yul\":11769:11775   */\n      dup7\n        /* \"#utility.yul\":11707:11782   */\n      tag_542\n      jump\t// in\n    tag_552:\n        /* \"#utility.yul\":11807:11809   */\n      0x20\n        /* \"#utility.yul\":11802:11805   */\n      dup3\n        /* \"#utility.yul\":11798:11810   */\n      add\n        /* \"#utility.yul\":11791:11810   */\n      swap2\n      pop\n        /* \"#utility.yul\":11820:11895   */\n      tag_553\n        /* \"#utility.yul\":11891:11894   */\n      dup3\n        /* \"#utility.yul\":11882:11888   */\n      dup6\n        /* \"#utility.yul\":11820:11895   */\n      tag_542\n      jump\t// in\n    tag_553:\n        /* \"#utility.yul\":11920:11922   */\n      0x20\n        /* \"#utility.yul\":11915:11918   */\n      dup3\n        /* \"#utility.yul\":11911:11923   */\n      add\n        /* \"#utility.yul\":11904:11923   */\n      swap2\n      pop\n        /* \"#utility.yul\":11933:12008   */\n      tag_554\n        /* \"#utility.yul\":12004:12007   */\n      dup3\n        /* \"#utility.yul\":11995:12001   */\n      dup5\n        /* \"#utility.yul\":11933:12008   */\n      tag_542\n      jump\t// in\n    tag_554:\n        /* \"#utility.yul\":12033:12035   */\n      0x20\n        /* \"#utility.yul\":12028:12031   */\n      dup3\n        /* \"#utility.yul\":12024:12036   */\n      add\n        /* \"#utility.yul\":12017:12036   */\n      swap2\n      pop\n        /* \"#utility.yul\":12053:12056   */\n      dup2\n        /* \"#utility.yul\":12046:12056   */\n      swap1\n      pop\n        /* \"#utility.yul\":11524:12062   */\n      swap5\n      swap4\n      pop\n      pop\n      pop\n      pop\n      jump\t// out\n        /* \"#utility.yul\":12068:12290   */\n    tag_38:\n        /* \"#utility.yul\":12161:12165   */\n      0x00\n        /* \"#utility.yul\":12199:12201   */\n      0x20\n        /* \"#utility.yul\":12188:12197   */\n      dup3\n        /* \"#utility.yul\":12184:12202   */\n      add\n        /* \"#utility.yul\":12176:12202   */\n      swap1\n      pop\n        /* \"#utility.yul\":12212:12283   */\n      tag_556\n        /* \"#utility.yul\":12280:12281   */\n      0x00\n        /* \"#utility.yul\":12269:12278   */\n      dup4\n        /* \"#utility.yul\":12265:12282   */\n      add\n        /* \"#utility.yul\":12256:12262   */\n      dup5\n        /* \"#utility.yul\":12212:12283   */\n      tag_483\n      jump\t// in\n    tag_556:\n        /* \"#utility.yul\":12068:12290   */\n      swap3\n      swap2\n      pop\n      pop\n      jump\t// out\n        /* \"#utility.yul\":12296:13562   */\n    tag_111:\n        /* \"#utility.yul\":12643:12647   */\n      0x00\n        /* \"#utility.yul\":12681:12684   */\n      0x0100\n        /* \"#utility.yul\":12670:12679   */\n      dup3\n        /* \"#utility.yul\":12666:12685   */\n      add\n        /* \"#utility.yul\":12658:12685   */\n      swap1\n      pop\n        /* \"#utility.yul\":12695:12766   */\n      tag_558\n        /* \"#utility.yul\":12763:12764   */\n      0x00\n        /* \"#utility.yul\":12752:12761   */\n      dup4\n        /* \"#utility.yul\":12748:12765   */\n      add\n        /* \"#utility.yul\":12739:12745   */\n      dup12\n        /* \"#utility.yul\":12695:12766   */\n      tag_483\n      jump\t// in\n    tag_558:\n        /* \"#utility.yul\":12813:12822   */\n      dup2\n        /* \"#utility.yul\":12807:12811   */\n      dup2\n        /* \"#utility.yul\":12803:12823   */\n      sub\n        /* \"#utility.yul\":12798:12800   */\n      0x20\n        /* \"#utility.yul\":12787:12796   */\n      dup4\n        /* \"#utility.yul\":12783:12801   */\n      add\n        /* \"#utility.yul\":12776:12824   */\n      mstore\n        /* \"#utility.yul\":12841:12919   */\n      tag_559\n        /* \"#utility.yul\":12914:12918   */\n      dup2\n        /* \"#utility.yul\":12905:12911   */\n      dup11\n        /* \"#utility.yul\":12841:12919   */\n      tag_491\n      jump\t// in\n    tag_559:\n        /* \"#utility.yul\":12833:12919   */\n      swap1\n      pop\n        /* \"#utility.yul\":12966:12975   */\n      dup2\n        /* \"#utility.yul\":12960:12964   */\n      dup2\n        /* \"#utility.yul\":12956:12976   */\n      sub\n        /* \"#utility.yul\":12951:12953   */\n      0x40\n        /* \"#utility.yul\":12940:12949   */\n      dup4\n        /* \"#utility.yul\":12936:12954   */\n      add\n        /* \"#utility.yul\":12929:12977   */\n      mstore\n        /* \"#utility.yul\":12994:13072   */\n      tag_560\n        /* \"#utility.yul\":13067:13071   */\n      dup2\n        /* \"#utility.yul\":13058:13064   */\n      dup10\n        /* \"#utility.yul\":12994:13072   */\n      tag_491\n      jump\t// in\n    tag_560:\n        /* \"#utility.yul\":12986:13072   */\n      swap1\n      pop\n        /* \"#utility.yul\":13119:13128   */\n      dup2\n        /* \"#utility.yul\":13113:13117   */\n      dup2\n        /* \"#utility.yul\":13109:13129   */\n      sub\n        /* \"#utility.yul\":13104:13106   */\n      0x60\n        /* \"#utility.yul\":13093:13102   */\n      dup4\n        /* \"#utility.yul\":13089:13107   */\n      add\n        /* \"#utility.yul\":13082:13130   */\n      mstore\n        /* \"#utility.yul\":13147:13225   */\n      tag_561\n        /* \"#utility.yul\":13220:13224   */\n      dup2\n        /* \"#utility.yul\":13211:13217   */\n      dup9\n        /* \"#utility.yul\":13147:13225   */\n      tag_491\n      jump\t// in\n    tag_561:\n        /* \"#utility.yul\":13139:13225   */\n      swap1\n      pop\n        /* \"#utility.yul\":13235:13308   */\n      tag_562\n        /* \"#utility.yul\":13303:13306   */\n      0x80\n        /* \"#utility.yul\":13292:13301   */\n      dup4\n        /* \"#utility.yul\":13288:13307   */\n      add\n        /* \"#utility.yul\":13279:13285   */\n      dup8\n        /* \"#utility.yul\":13235:13308   */\n      tag_538\n      jump\t// in\n    tag_562:\n        /* \"#utility.yul\":13318:13391   */\n      tag_563\n        /* \"#utility.yul\":13386:13389   */\n      0xa0\n        /* \"#utility.yul\":13375:13384   */\n      dup4\n        /* \"#utility.yul\":13371:13390   */\n      add\n        /* \"#utility.yul\":13362:13368   */\n      dup7\n        /* \"#utility.yul\":13318:13391   */\n      tag_538\n      jump\t// in\n    tag_563:\n        /* \"#utility.yul\":13401:13474   */\n      tag_564\n        /* \"#utility.yul\":13469:13472   */\n      0xc0\n        /* \"#utility.yul\":13458:13467   */\n      dup4\n        /* \"#utility.yul\":13454:13473   */\n      add\n        /* \"#utility.yul\":13445:13451   */\n      dup6\n        /* \"#utility.yul\":13401:13474   */\n      tag_538\n      jump\t// in\n    tag_564:\n        /* \"#utility.yul\":13484:13555   */\n      tag_565\n        /* \"#utility.yul\":13550:13553   */\n      0xe0\n        /* \"#utility.yul\":13539:13548   */\n      dup4\n        /* \"#utility.yul\":13535:13554   */\n      add\n        /* \"#utility.yul\":13526:13532   */\n      dup5\n        /* \"#utility.yul\":13484:13555   */\n      tag_547\n      jump\t// in\n    tag_565:\n        /* \"#utility.yul\":12296:13562   */\n      swap10\n      swap9\n      pop\n      pop\n      pop\n      pop\n      pop\n      pop\n      pop\n      pop\n      pop\n      jump\t// out\n        /* \"#utility.yul\":13568:13778   */\n    tag_122:\n        /* \"#utility.yul\":13655:13659   */\n      0x00\n        /* \"#utility.yul\":13693:13695   */\n      0x20\n        /* \"#utility.yul\":13682:13691   */\n      dup3\n        /* \"#utility.yul\":13678:13696   */\n      add\n        /* \"#utility.yul\":13670:13696   */\n      swap1\n      pop\n        /* \"#utility.yul\":13706:13771   */\n      tag_567\n        /* \"#utility.yul\":13768:13769   */\n      0x00\n        /* \"#utility.yul\":13757:13766   */\n      dup4\n        /* \"#utility.yul\":13753:13770   */\n      add\n        /* \"#utility.yul\":13744:13750   */\n      dup5\n        /* \"#utility.yul\":13706:13771   */\n      tag_487\n      jump\t// in\n    tag_567:\n        /* \"#utility.yul\":13568:13778   */\n      swap3\n      swap2\n      pop\n      pop\n      jump\t// out\n        /* \"#utility.yul\":13784:14097   */\n    tag_31:\n        /* \"#utility.yul\":13897:13901   */\n      0x00\n        /* \"#utility.yul\":13935:13937   */\n      0x20\n        /* \"#utility.yul\":13924:13933   */\n      dup3\n        /* \"#utility.yul\":13920:13938   */\n      add\n        /* \"#utility.yul\":13912:13938   */\n      swap1\n      pop\n        /* \"#utility.yul\":13984:13993   */\n      dup2\n        /* \"#utility.yul\":13978:13982   */\n      dup2\n        /* \"#utility.yul\":13974:13994   */\n      sub\n        /* \"#utility.yul\":13970:13971   */\n      0x00\n        /* \"#utility.yul\":13959:13968   */\n      dup4\n        /* \"#utility.yul\":13955:13972   */\n      add\n        /* \"#utility.yul\":13948:13995   */\n      mstore\n        /* \"#utility.yul\":14012:14090   */\n      tag_569\n        /* \"#utility.yul\":14085:14089   */\n      dup2\n        /* \"#utility.yul\":14076:14082   */\n      dup5\n        /* \"#utility.yul\":14012:14090   */\n      tag_491\n      jump\t// in\n    tag_569:\n        /* \"#utility.yul\":14004:14090   */\n      swap1\n      pop\n        /* \"#utility.yul\":13784:14097   */\n      swap3\n      swap2\n      pop\n      pop\n      jump\t// out\n        /* \"#utility.yul\":14103:14933   */\n    tag_347:\n        /* \"#utility.yul\":14340:14344   */\n      0x00\n        /* \"#utility.yul\":14378:14381   */\n      0xa0\n        /* \"#utility.yul\":14367:14376   */\n      dup3\n        /* \"#utility.yul\":14363:14382   */\n      add\n        /* \"#utility.yul\":14355:14382   */\n      swap1\n      pop\n        /* \"#utility.yul\":14428:14437   */\n      dup2\n        /* \"#utility.yul\":14422:14426   */\n      dup2\n        /* \"#utility.yul\":14418:14438   */\n      sub\n        /* \"#utility.yul\":14414:14415   */\n      0x00\n        /* \"#utility.yul\":14403:14412   */\n      dup4\n        /* \"#utility.yul\":14399:14416   */\n      add\n        /* \"#utility.yul\":14392:14439   */\n      mstore\n        /* \"#utility.yul\":14456:14531   */\n      tag_571\n        /* \"#utility.yul\":14526:14530   */\n      dup2\n        /* \"#utility.yul\":14517:14523   */\n      dup9\n        /* \"#utility.yul\":14456:14531   */\n      tag_501\n      jump\t// in\n    tag_571:\n        /* \"#utility.yul\":14448:14531   */\n      swap1\n      pop\n        /* \"#utility.yul\":14578:14587   */\n      dup2\n        /* \"#utility.yul\":14572:14576   */\n      dup2\n        /* \"#utility.yul\":14568:14588   */\n      sub\n        /* \"#utility.yul\":14563:14565   */\n      0x20\n        /* \"#utility.yul\":14552:14561   */\n      dup4\n        /* \"#utility.yul\":14548:14566   */\n      add\n        /* \"#utility.yul\":14541:14589   */\n      mstore\n        /* \"#utility.yul\":14606:14681   */\n      tag_572\n        /* \"#utility.yul\":14676:14680   */\n      dup2\n        /* \"#utility.yul\":14667:14673   */\n      dup8\n        /* \"#utility.yul\":14606:14681   */\n      tag_501\n      jump\t// in\n    tag_572:\n        /* \"#utility.yul\":14598:14681   */\n      swap1\n      pop\n        /* \"#utility.yul\":14691:14761   */\n      tag_573\n        /* \"#utility.yul\":14757:14759   */\n      0x40\n        /* \"#utility.yul\":14746:14755   */\n      dup4\n        /* \"#utility.yul\":14742:14760   */\n      add\n        /* \"#utility.yul\":14733:14739   */\n      dup7\n        /* \"#utility.yul\":14691:14761   */\n      tag_547\n      jump\t// in\n    tag_573:\n        /* \"#utility.yul\":14771:14843   */\n      tag_574\n        /* \"#utility.yul\":14839:14841   */\n      0x60\n        /* \"#utility.yul\":14828:14837   */\n      dup4\n        /* \"#utility.yul\":14824:14842   */\n      add\n        /* \"#utility.yul\":14815:14821   */\n      dup6\n        /* \"#utility.yul\":14771:14843   */\n      tag_538\n      jump\t// in\n    tag_574:\n        /* \"#utility.yul\":14853:14926   */\n      tag_575\n        /* \"#utility.yul\":14921:14924   */\n      0x80\n        /* \"#utility.yul\":14910:14919   */\n      dup4\n        /* \"#utility.yul\":14906:14925   */\n      add\n        /* \"#utility.yul\":14897:14903   */\n      dup5\n        /* \"#utility.yul\":14853:14926   */\n      tag_538\n      jump\t// in\n    tag_575:\n        /* \"#utility.yul\":14103:14933   */\n      swap7\n      swap6\n      pop\n      pop\n      pop\n      pop\n      pop\n      pop\n      jump\t// out\n        /* \"#utility.yul\":14939:15358   */\n    tag_155:\n        /* \"#utility.yul\":15105:15109   */\n      0x00\n        /* \"#utility.yul\":15143:15145   */\n      0x20\n        /* \"#utility.yul\":15132:15141   */\n      dup3\n        /* \"#utility.yul\":15128:15146   */\n      add\n        /* \"#utility.yul\":15120:15146   */\n      swap1\n      pop\n        /* \"#utility.yul\":15192:15201   */\n      dup2\n        /* \"#utility.yul\":15186:15190   */\n      dup2\n        /* \"#utility.yul\":15182:15202   */\n      sub\n        /* \"#utility.yul\":15178:15179   */\n      0x00\n        /* \"#utility.yul\":15167:15176   */\n      dup4\n        /* \"#utility.yul\":15163:15180   */\n      add\n        /* \"#utility.yul\":15156:15203   */\n      mstore\n        /* \"#utility.yul\":15220:15351   */\n      tag_577\n        /* \"#utility.yul\":15346:15350   */\n      dup2\n        /* \"#utility.yul\":15220:15351   */\n      tag_513\n      jump\t// in\n    tag_577:\n        /* \"#utility.yul\":15212:15351   */\n      swap1\n      pop\n        /* \"#utility.yul\":14939:15358   */\n      swap2\n      swap1\n      pop\n      jump\t// out\n        /* \"#utility.yul\":15364:15783   */\n    tag_358:\n        /* \"#utility.yul\":15530:15534   */\n      0x00\n        /* \"#utility.yul\":15568:15570   */\n      0x20\n        /* \"#utility.yul\":15557:15566   */\n      dup3\n        /* \"#utility.yul\":15553:15571   */\n      add\n        /* \"#utility.yul\":15545:15571   */\n      swap1\n      pop\n        /* \"#utility.yul\":15617:15626   */\n      dup2\n        /* \"#utility.yul\":15611:15615   */\n      dup2\n        /* \"#utility.yul\":15607:15627   */\n      sub\n        /* \"#utility.yul\":15603:15604   */\n      0x00\n        /* \"#utility.yul\":15592:15601   */\n      dup4\n        /* \"#utility.yul\":15588:15605   */\n      add\n        /* \"#utility.yul\":15581:15628   */\n      mstore\n        /* \"#utility.yul\":15645:15776   */\n      tag_579\n        /* \"#utility.yul\":15771:15775   */\n      dup2\n        /* \"#utility.yul\":15645:15776   */\n      tag_518\n      jump\t// in\n    tag_579:\n        /* \"#utility.yul\":15637:15776   */\n      swap1\n      pop\n        /* \"#utility.yul\":15364:15783   */\n      swap2\n      swap1\n      pop\n      jump\t// out\n        /* \"#utility.yul\":15789:16208   */\n    tag_187:\n        /* \"#utility.yul\":15955:15959   */\n      0x00\n        /* \"#utility.yul\":15993:15995   */\n      0x20\n        /* \"#utility.yul\":15982:15991   */\n      dup3\n        /* \"#utility.yul\":15978:15996   */\n      add\n        /* \"#utility.yul\":15970:15996   */\n      swap1\n      pop\n        /* \"#utility.yul\":16042:16051   */\n      dup2\n        /* \"#utility.yul\":16036:16040   */\n      dup2\n        /* \"#utility.yul\":16032:16052   */\n      sub\n        /* \"#utility.yul\":16028:16029   */\n      0x00\n        /* \"#utility.yul\":16017:16026   */\n      dup4\n        /* \"#utility.yul\":16013:16030   */\n      add\n        /* \"#utility.yul\":16006:16053   */\n      mstore\n        /* \"#utility.yul\":16070:16201   */\n      tag_581\n        /* \"#utility.yul\":16196:16200   */\n      dup2\n        /* \"#utility.yul\":16070:16201   */\n      tag_523\n      jump\t// in\n    tag_581:\n        /* \"#utility.yul\":16062:16201   */\n      swap1\n      pop\n        /* \"#utility.yul\":15789:16208   */\n      swap2\n      swap1\n      pop\n      jump\t// out\n        /* \"#utility.yul\":16214:16633   */\n    tag_298:\n        /* \"#utility.yul\":16380:16384   */\n      0x00\n        /* \"#utility.yul\":16418:16420   */\n      0x20\n        /* \"#utility.yul\":16407:16416   */\n      dup3\n        /* \"#utility.yul\":16403:16421   */\n      add\n        /* \"#utility.yul\":16395:16421   */\n      swap1\n      pop\n        /* \"#utility.yul\":16467:16476   */\n      dup2\n        /* \"#utility.yul\":16461:16465   */\n      dup2\n        /* \"#utility.yul\":16457:16477   */\n      sub\n        /* \"#utility.yul\":16453:16454   */\n      0x00\n        /* \"#utility.yul\":16442:16451   */\n      dup4\n        /* \"#utility.yul\":16438:16455   */\n      add\n        /* \"#utility.yul\":16431:16478   */\n      mstore\n        /* \"#utility.yul\":16495:16626   */\n      tag_583\n        /* \"#utility.yul\":16621:16625   */\n      dup2\n        /* \"#utility.yul\":16495:16626   */\n      tag_528\n      jump\t// in\n    tag_583:\n        /* \"#utility.yul\":16487:16626   */\n      swap1\n      pop\n        /* \"#utility.yul\":16214:16633   */\n      swap2\n      swap1\n      pop\n      jump\t// out\n        /* \"#utility.yul\":16639:17058   */\n    tag_244:\n        /* \"#utility.yul\":16805:16809   */\n      0x00\n        /* \"#utility.yul\":16843:16845   */\n      0x20\n        /* \"#utility.yul\":16832:16841   */\n      dup3\n        /* \"#utility.yul\":16828:16846   */\n      add\n        /* \"#utility.yul\":16820:16846   */\n      swap1\n      pop\n        /* \"#utility.yul\":16892:16901   */\n      dup2\n        /* \"#utility.yul\":16886:16890   */\n      dup2\n        /* \"#utility.yul\":16882:16902   */\n      sub\n        /* \"#utility.yul\":16878:16879   */\n      0x00\n        /* \"#utility.yul\":16867:16876   */\n      dup4\n        /* \"#utility.yul\":16863:16880   */\n      add\n        /* \"#utility.yul\":16856:16903   */\n      mstore\n        /* \"#utility.yul\":16920:17051   */\n      tag_585\n        /* \"#utility.yul\":17046:17050   */\n      dup2\n        /* \"#utility.yul\":16920:17051   */\n      tag_533\n      jump\t// in\n    tag_585:\n        /* \"#utility.yul\":16912:17051   */\n      swap1\n      pop\n        /* \"#utility.yul\":16639:17058   */\n      swap2\n      swap1\n      pop\n      jump\t// out\n        /* \"#utility.yul\":17064:17286   */\n    tag_49:\n        /* \"#utility.yul\":17157:17161   */\n      0x00\n        /* \"#utility.yul\":17195:17197   */\n      0x20\n        /* \"#utility.yul\":17184:17193   */\n      dup3\n        /* \"#utility.yul\":17180:17198   */\n      add\n        /* \"#utility.yul\":17172:17198   */\n      swap1\n      pop\n        /* \"#utility.yul\":17208:17279   */\n      tag_587\n        /* \"#utility.yul\":17276:17277   */\n      0x00\n        /* \"#utility.yul\":17265:17274   */\n      dup4\n        /* \"#utility.yul\":17261:17278   */\n      add\n        /* \"#utility.yul\":17252:17258   */\n      dup5\n        /* \"#utility.yul\":17208:17279   */\n      tag_538\n      jump\t// in\n    tag_587:\n        /* \"#utility.yul\":17064:17286   */\n      swap3\n      swap2\n      pop\n      pop\n      jump\t// out\n        /* \"#utility.yul\":17292:17421   */\n    tag_384:\n        /* \"#utility.yul\":17326:17332   */\n      0x00\n        /* \"#utility.yul\":17353:17373   */\n      tag_589\n      tag_590\n      jump\t// in\n    tag_589:\n        /* \"#utility.yul\":17343:17373   */\n      swap1\n      pop\n        /* \"#utility.yul\":17382:17415   */\n      tag_591\n        /* \"#utility.yul\":17410:17414   */\n      dup3\n        /* \"#utility.yul\":17402:17408   */\n      dup3\n        /* \"#utility.yul\":17382:17415   */\n      tag_592\n      jump\t// in\n    tag_591:\n        /* \"#utility.yul\":17292:17421   */\n      swap2\n      swap1\n      pop\n      jump\t// out\n        /* \"#utility.yul\":17427:17502   */\n    tag_590:\n        /* \"#utility.yul\":17460:17466   */\n      0x00\n        /* \"#utility.yul\":17493:17495   */\n      0x40\n        /* \"#utility.yul\":17487:17496   */\n      mload\n        /* \"#utility.yul\":17477:17496   */\n      swap1\n      pop\n        /* \"#utility.yul\":17427:17502   */\n      swap1\n      jump\t// out\n        /* \"#utility.yul\":17508:17815   */\n    tag_383:\n        /* \"#utility.yul\":17569:17573   */\n      0x00\n        /* \"#utility.yul\":17659:17677   */\n      0xffffffffffffffff\n        /* \"#utility.yul\":17651:17657   */\n      dup3\n        /* \"#utility.yul\":17648:17678   */\n      gt\n        /* \"#utility.yul\":17645:17701   */\n      iszero\n      tag_595\n      jumpi\n        /* \"#utility.yul\":17681:17699   */\n      tag_596\n      tag_597\n      jump\t// in\n    tag_596:\n        /* \"#utility.yul\":17645:17701   */\n    tag_595:\n        /* \"#utility.yul\":17719:17748   */\n      tag_598\n        /* \"#utility.yul\":17741:17747   */\n      dup3\n        /* \"#utility.yul\":17719:17748   */\n      tag_500\n      jump\t// in\n    tag_598:\n        /* \"#utility.yul\":17711:17748   */\n      swap1\n      pop\n        /* \"#utility.yul\":17803:17807   */\n      0x20\n        /* \"#utility.yul\":17797:17801   */\n      dup2\n        /* \"#utility.yul\":17793:17808   */\n      add\n        /* \"#utility.yul\":17785:17808   */\n      swap1\n      pop\n        /* \"#utility.yul\":17508:17815   */\n      swap2\n      swap1\n      pop\n      jump\t// out\n        /* \"#utility.yul\":17821:18129   */\n    tag_394:\n        /* \"#utility.yul\":17883:17887   */\n      0x00\n        /* \"#utility.yul\":17973:17991   */\n      0xffffffffffffffff\n        /* \"#utility.yul\":17965:17971   */\n      dup3\n        /* \"#utility.yul\":17962:17992   */\n      gt\n        /* \"#utility.yul\":17959:18015   */\n      iszero\n      tag_600\n      jumpi\n        /* \"#utility.yul\":17995:18013   */\n      tag_601\n      tag_597\n      jump\t// in\n    tag_601:\n        /* \"#utility.yul\":17959:18015   */\n    tag_600:\n        /* \"#utility.yul\":18033:18062   */\n      tag_602\n        /* \"#utility.yul\":18055:18061   */\n      dup3\n        /* \"#utility.yul\":18033:18062   */\n      tag_500\n      jump\t// in\n    tag_602:\n        /* \"#utility.yul\":18025:18062   */\n      swap1\n      pop\n        /* \"#utility.yul\":18117:18121   */\n      0x20\n        /* \"#utility.yul\":18111:18115   */\n      dup2\n        /* \"#utility.yul\":18107:18122   */\n      add\n        /* \"#utility.yul\":18099:18122   */\n      swap1\n      pop\n        /* \"#utility.yul\":17821:18129   */\n      swap2\n      swap1\n      pop\n      jump\t// out\n        /* \"#utility.yul\":18135:18276   */\n    tag_509:\n        /* \"#utility.yul\":18184:18188   */\n      0x00\n        /* \"#utility.yul\":18207:18210   */\n      dup2\n        /* \"#utility.yul\":18199:18210   */\n      swap1\n      pop\n        /* \"#utility.yul\":18230:18233   */\n      dup2\n        /* \"#utility.yul\":18227:18228   */\n      0x00\n        /* \"#utility.yul\":18220:18234   */\n      mstore\n        /* \"#utility.yul\":18264:18268   */\n      0x20\n        /* \"#utility.yul\":18261:18262   */\n      0x00\n        /* \"#utility.yul\":18251:18269   */\n      keccak256\n        /* \"#utility.yul\":18243:18269   */\n      swap1\n      pop\n        /* \"#utility.yul\":18135:18276   */\n      swap2\n      swap1\n      pop\n      jump\t// out\n        /* \"#utility.yul\":18282:18381   */\n    tag_494:\n        /* \"#utility.yul\":18334:18340   */\n      0x00\n        /* \"#utility.yul\":18368:18373   */\n      dup2\n        /* \"#utility.yul\":18362:18374   */\n      mload\n        /* \"#utility.yul\":18352:18374   */\n      swap1\n      pop\n        /* \"#utility.yul\":18282:18381   */\n      swap2\n      swap1\n      pop\n      jump\t// out\n        /* \"#utility.yul\":18387:18556   */\n    tag_496:\n        /* \"#utility.yul\":18471:18482   */\n      0x00\n        /* \"#utility.yul\":18505:18511   */\n      dup3\n        /* \"#utility.yul\":18500:18503   */\n      dup3\n        /* \"#utility.yul\":18493:18512   */\n      mstore\n        /* \"#utility.yul\":18545:18549   */\n      0x20\n        /* \"#utility.yul\":18540:18543   */\n      dup3\n        /* \"#utility.yul\":18536:18550   */\n      add\n        /* \"#utility.yul\":18521:18550   */\n      swap1\n      pop\n        /* \"#utility.yul\":18387:18556   */\n      swap3\n      swap2\n      pop\n      pop\n      jump\t// out\n        /* \"#utility.yul\":18562:18867   */\n    tag_158:\n        /* \"#utility.yul\":18602:18605   */\n      0x00\n        /* \"#utility.yul\":18621:18641   */\n      tag_607\n        /* \"#utility.yul\":18639:18640   */\n      dup3\n        /* \"#utility.yul\":18621:18641   */\n      tag_541\n      jump\t// in\n    tag_607:\n        /* \"#utility.yul\":18616:18641   */\n      swap2\n      pop\n        /* \"#utility.yul\":18655:18675   */\n      tag_608\n        /* \"#utility.yul\":18673:18674   */\n      dup4\n        /* \"#utility.yul\":18655:18675   */\n      tag_541\n      jump\t// in\n    tag_608:\n        /* \"#utility.yul\":18650:18675   */\n      swap3\n      pop\n        /* \"#utility.yul\":18809:18810   */\n      dup3\n        /* \"#utility.yul\":18741:18807   */\n      0xffffffffffffffffffffffffffffffffffffffffffffffffffffffffffffffff\n        /* \"#utility.yul\":18737:18811   */\n      sub\n        /* \"#utility.yul\":18734:18735   */\n      dup3\n        /* \"#utility.yul\":18731:18812   */\n      gt\n        /* \"#utility.yul\":18728:18835   */\n      iszero\n      tag_609\n      jumpi\n        /* \"#utility.yul\":18815:18833   */\n      tag_610\n      tag_611\n      jump\t// in\n    tag_610:\n        /* \"#utility.yul\":18728:18835   */\n    tag_609:\n        /* \"#utility.yul\":18859:18860   */\n      dup3\n        /* \"#utility.yul\":18856:18857   */\n      dup3\n        /* \"#utility.yul\":18852:18861   */\n      add\n        /* \"#utility.yul\":18845:18861   */\n      swap1\n      pop\n        /* \"#utility.yul\":18562:18867   */\n      swap3\n      swap2\n      pop\n      pop\n      jump\t// out\n        /* \"#utility.yul\":18873:19064   */\n    tag_166:\n        /* \"#utility.yul\":18913:18917   */\n      0x00\n        /* \"#utility.yul\":18933:18953   */\n      tag_613\n        /* \"#utility.yul\":18951:18952   */\n      dup3\n        /* \"#utility.yul\":18933:18953   */\n      tag_541\n      jump\t// in\n    tag_613:\n        /* \"#utility.yul\":18928:18953   */\n      swap2\n      pop\n        /* \"#utility.yul\":18967:18987   */\n      tag_614\n        /* \"#utility.yul\":18985:18986   */\n      dup4\n        /* \"#utility.yul\":18967:18987   */\n      tag_541\n      jump\t// in\n    tag_614:\n        /* \"#utility.yul\":18962:18987   */\n      swap3\n      pop\n        /* \"#utility.yul\":19006:19007   */\n      dup3\n        /* \"#utility.yul\":19003:19004   */\n      dup3\n        /* \"#utility.yul\":19000:19008   */\n      lt\n        /* \"#utility.yul\":18997:19031   */\n      iszero\n      tag_615\n      jumpi\n        /* \"#utility.yul\":19011:19029   */\n      tag_616\n      tag_611\n      jump\t// in\n    tag_616:\n        /* \"#utility.yul\":18997:19031   */\n    tag_615:\n        /* \"#utility.yul\":19056:19057   */\n      dup3\n        /* \"#utility.yul\":19053:19054   */\n      dup3\n        /* \"#utility.yul\":19049:19058   */\n      sub\n        /* \"#utility.yul\":19041:19058   */\n      swap1\n      pop\n        /* \"#utility.yul\":18873:19064   */\n      swap3\n      swap2\n      pop\n      pop\n      jump\t// out\n        /* \"#utility.yul\":19070:19166   */\n    tag_486:\n        /* \"#utility.yul\":19107:19114   */\n      0x00\n        /* \"#utility.yul\":19136:19160   */\n      tag_618\n        /* \"#utility.yul\":19154:19159   */\n      dup3\n        /* \"#utility.yul\":19136:19160   */\n      tag_619\n      jump\t// in\n    tag_618:\n        /* \"#utility.yul\":19125:19160   */\n      swap1\n      pop\n        /* \"#utility.yul\":19070:19166   */\n      swap2\n      swap1\n      pop\n      jump\t// out\n        /* \"#utility.yul\":19172:19262   */\n    tag_490:\n        /* \"#utility.yul\":19206:19213   */\n      0x00\n        /* \"#utility.yul\":19249:19254   */\n      dup2\n        /* \"#utility.yul\":19242:19255   */\n      iszero\n        /* \"#utility.yul\":19235:19256   */\n      iszero\n        /* \"#utility.yul\":19224:19256   */\n      swap1\n      pop\n        /* \"#utility.yul\":19172:19262   */\n      swap2\n      swap1\n      pop\n      jump\t// out\n        /* \"#utility.yul\":19268:19394   */\n    tag_619:\n        /* \"#utility.yul\":19305:19312   */\n      0x00\n        /* \"#utility.yul\":19345:19387   */\n      0xffffffffffffffffffffffffffffffffffffffff\n        /* \"#utility.yul\":19338:19343   */\n      dup3\n        /* \"#utility.yul\":19334:19388   */\n      and\n        /* \"#utility.yul\":19323:19388   */\n      swap1\n      pop\n        /* \"#utility.yul\":19268:19394   */\n      swap2\n      swap1\n      pop\n      jump\t// out\n        /* \"#utility.yul\":19400:19477   */\n    tag_541:\n        /* \"#utility.yul\":19437:19444   */\n      0x00\n        /* \"#utility.yul\":19466:19471   */\n      dup2\n        /* \"#utility.yul\":19455:19471   */\n      swap1\n      pop\n        /* \"#utility.yul\":19400:19477   */\n      swap2\n      swap1\n      pop\n      jump\t// out\n        /* \"#utility.yul\":19483:19576   */\n    tag_550:\n        /* \"#utility.yul\":19519:19526   */\n      0x00\n        /* \"#utility.yul\":19559:19569   */\n      0xffffffff\n        /* \"#utility.yul\":19552:19557   */\n      dup3\n        /* \"#utility.yul\":19548:19570   */\n      and\n        /* \"#utility.yul\":19537:19570   */\n      swap1\n      pop\n        /* \"#utility.yul\":19483:19576   */\n      swap2\n      swap1\n      pop\n      jump\t// out\n        /* \"#utility.yul\":19582:19736   */\n    tag_389:\n        /* \"#utility.yul\":19666:19672   */\n      dup3\n        /* \"#utility.yul\":19661:19664   */\n      dup2\n        /* \"#utility.yul\":19656:19659   */\n      dup4\n        /* \"#utility.yul\":19643:19673   */\n      calldatacopy\n        /* \"#utility.yul\":19728:19729   */\n      0x00\n        /* \"#utility.yul\":19719:19725   */\n      dup4\n        /* \"#utility.yul\":19714:19717   */\n      dup4\n        /* \"#utility.yul\":19710:19726   */\n      add\n        /* \"#utility.yul\":19703:19730   */\n      mstore\n        /* \"#utility.yul\":19582:19736   */\n      pop\n      pop\n      pop\n      jump\t// out\n        /* \"#utility.yul\":19742:20049   */\n    tag_498:\n        /* \"#utility.yul\":19810:19811   */\n      0x00\n        /* \"#utility.yul\":19820:19933   */\n    tag_626:\n        /* \"#utility.yul\":19834:19840   */\n      dup4\n        /* \"#utility.yul\":19831:19832   */\n      dup2\n        /* \"#utility.yul\":19828:19841   */\n      lt\n        /* \"#utility.yul\":19820:19933   */\n      iszero\n      tag_628\n      jumpi\n        /* \"#utility.yul\":19919:19920   */\n      dup1\n        /* \"#utility.yul\":19914:19917   */\n      dup3\n        /* \"#utility.yul\":19910:19921   */\n      add\n        /* \"#utility.yul\":19904:19922   */\n      mload\n        /* \"#utility.yul\":19900:19901   */\n      dup2\n        /* \"#utility.yul\":19895:19898   */\n      dup5\n        /* \"#utility.yul\":19891:19902   */\n      add\n        /* \"#utility.yul\":19884:19923   */\n      mstore\n        /* \"#utility.yul\":19856:19858   */\n      0x20\n        /* \"#utility.yul\":19853:19854   */\n      dup2\n        /* \"#utility.yul\":19849:19859   */\n      add\n        /* \"#utility.yul\":19844:19859   */\n      swap1\n      pop\n        /* \"#utility.yul\":19820:19933   */\n      jump(tag_626)\n    tag_628:\n        /* \"#utility.yul\":19951:19957   */\n      dup4\n        /* \"#utility.yul\":19948:19949   */\n      dup2\n        /* \"#utility.yul\":19945:19958   */\n      gt\n        /* \"#utility.yul\":19942:20043   */\n      iszero\n      tag_629\n      jumpi\n        /* \"#utility.yul\":20031:20032   */\n      0x00\n        /* \"#utility.yul\":20022:20028   */\n      dup5\n        /* \"#utility.yul\":20017:20020   */\n      dup5\n        /* \"#utility.yul\":20013:20029   */\n      add\n        /* \"#utility.yul\":20006:20033   */\n      mstore\n        /* \"#utility.yul\":19942:20043   */\n    tag_629:\n        /* \"#utility.yul\":19791:20049   */\n      pop\n        /* \"#utility.yul\":19742:20049   */\n      pop\n      pop\n      pop\n      jump\t// out\n        /* \"#utility.yul\":20055:20375   */\n    tag_308:\n        /* \"#utility.yul\":20099:20105   */\n      0x00\n        /* \"#utility.yul\":20136:20137   */\n      0x02\n        /* \"#utility.yul\":20130:20134   */\n      dup3\n        /* \"#utility.yul\":20126:20138   */\n      div\n        /* \"#utility.yul\":20116:20138   */\n      swap1\n      pop\n        /* \"#utility.yul\":20183:20184   */\n      0x01\n        /* \"#utility.yul\":20177:20181   */\n      dup3\n        /* \"#utility.yul\":20173:20185   */\n      and\n        /* \"#utility.yul\":20204:20222   */\n      dup1\n        /* \"#utility.yul\":20194:20275   */\n      tag_631\n      jumpi\n        /* \"#utility.yul\":20260:20264   */\n      0x7f\n        /* \"#utility.yul\":20252:20258   */\n      dup3\n        /* \"#utility.yul\":20248:20265   */\n      and\n        /* \"#utility.yul\":20238:20265   */\n      swap2\n      pop\n        /* \"#utility.yul\":20194:20275   */\n    tag_631:\n        /* \"#utility.yul\":20322:20324   */\n      0x20\n        /* \"#utility.yul\":20314:20320   */\n      dup3\n        /* \"#utility.yul\":20311:20325   */\n      lt\n        /* \"#utility.yul\":20291:20309   */\n      dup2\n        /* \"#utility.yul\":20288:20326   */\n      eq\n        /* \"#utility.yul\":20285:20369   */\n      iszero\n      tag_632\n      jumpi\n        /* \"#utility.yul\":20341:20359   */\n      tag_633\n      tag_634\n      jump\t// in\n    tag_633:\n        /* \"#utility.yul\":20285:20369   */\n    tag_632:\n        /* \"#utility.yul\":20106:20375   */\n      pop\n        /* \"#utility.yul\":20055:20375   */\n      swap2\n      swap1\n      pop\n      jump\t// out\n        /* \"#utility.yul\":20381:20662   */\n    tag_592:\n        /* \"#utility.yul\":20464:20491   */\n      tag_636\n        /* \"#utility.yul\":20486:20490   */\n      dup3\n        /* \"#utility.yul\":20464:20491   */\n      tag_500\n      jump\t// in\n    tag_636:\n        /* \"#utility.yul\":20456:20462   */\n      dup2\n        /* \"#utility.yul\":20452:20492   */\n      add\n        /* \"#utility.yul\":20594:20600   */\n      dup2\n        /* \"#utility.yul\":20582:20592   */\n      dup2\n        /* \"#utility.yul\":20579:20601   */\n      lt\n        /* \"#utility.yul\":20558:20576   */\n      0xffffffffffffffff\n        /* \"#utility.yul\":20546:20556   */\n      dup3\n        /* \"#utility.yul\":20543:20577   */\n      gt\n        /* \"#utility.yul\":20540:20602   */\n      or\n        /* \"#utility.yul\":20537:20625   */\n      iszero\n      tag_637\n      jumpi\n        /* \"#utility.yul\":20605:20623   */\n      tag_638\n      tag_597\n      jump\t// in\n    tag_638:\n        /* \"#utility.yul\":20537:20625   */\n    tag_637:\n        /* \"#utility.yul\":20645:20655   */\n      dup1\n        /* \"#utility.yul\":20641:20643   */\n      0x40\n        /* \"#utility.yul\":20634:20656   */\n      mstore\n        /* \"#utility.yul\":20424:20662   */\n      pop\n        /* \"#utility.yul\":20381:20662   */\n      pop\n      pop\n      jump\t// out\n        /* \"#utility.yul\":20668:20901   */\n    tag_148:\n        /* \"#utility.yul\":20707:20710   */\n      0x00\n        /* \"#utility.yul\":20730:20754   */\n      tag_640\n        /* \"#utility.yul\":20748:20753   */\n      dup3\n        /* \"#utility.yul\":20730:20754   */\n      tag_541\n      jump\t// in\n    tag_640:\n        /* \"#utility.yul\":20721:20754   */\n      swap2\n      pop\n        /* \"#utility.yul\":20776:20842   */\n      0xffffffffffffffffffffffffffffffffffffffffffffffffffffffffffffffff\n        /* \"#utility.yul\":20769:20774   */\n      dup3\n        /* \"#utility.yul\":20766:20843   */\n      eq\n        /* \"#utility.yul\":20763:20866   */\n      iszero\n      tag_641\n      jumpi\n        /* \"#utility.yul\":20846:20864   */\n      tag_642\n      tag_611\n      jump\t// in\n    tag_642:\n        /* \"#utility.yul\":20763:20866   */\n    tag_641:\n        /* \"#utility.yul\":20893:20894   */\n      0x01\n        /* \"#utility.yul\":20886:20891   */\n      dup3\n        /* \"#utility.yul\":20882:20895   */\n      add\n        /* \"#utility.yul\":20875:20895   */\n      swap1\n      pop\n        /* \"#utility.yul\":20668:20901   */\n      swap2\n      swap1\n      pop\n      jump\t// out\n        /* \"#utility.yul\":20907:21082   */\n    tag_182:\n        /* \"#utility.yul\":20945:20948   */\n      0x00\n        /* \"#utility.yul\":20968:20991   */\n      tag_644\n        /* \"#utility.yul\":20985:20990   */\n      dup3\n        /* \"#utility.yul\":20968:20991   */\n      tag_550\n      jump\t// in\n    tag_644:\n        /* \"#utility.yul\":20959:20991   */\n      swap2\n      pop\n        /* \"#utility.yul\":21013:21023   */\n      0xffffffff\n        /* \"#utility.yul\":21006:21011   */\n      dup3\n        /* \"#utility.yul\":21003:21024   */\n      eq\n        /* \"#utility.yul\":21000:21047   */\n      iszero\n      tag_645\n      jumpi\n        /* \"#utility.yul\":21027:21045   */\n      tag_646\n      tag_611\n      jump\t// in\n    tag_646:\n        /* \"#utility.yul\":21000:21047   */\n    tag_645:\n        /* \"#utility.yul\":21074:21075   */\n      0x01\n        /* \"#utility.yul\":21067:21072   */\n      dup3\n        /* \"#utility.yul\":21063:21076   */\n      add\n        /* \"#utility.yul\":21056:21076   */\n      swap1\n      pop\n        /* \"#utility.yul\":20907:21082   */\n      swap2\n      swap1\n      pop\n      jump\t// out\n        /* \"#utility.yul\":21088:21167   */\n    tag_546:\n        /* \"#utility.yul\":21127:21134   */\n      0x00\n        /* \"#utility.yul\":21156:21161   */\n      dup2\n        /* \"#utility.yul\":21145:21161   */\n      swap1\n      pop\n        /* \"#utility.yul\":21088:21167   */\n      swap2\n      swap1\n      pop\n      jump\t// out\n        /* \"#utility.yul\":21173:21349   */\n    tag_194:\n        /* \"#utility.yul\":21205:21206   */\n      0x00\n        /* \"#utility.yul\":21222:21242   */\n      tag_649\n        /* \"#utility.yul\":21240:21241   */\n      dup3\n        /* \"#utility.yul\":21222:21242   */\n      tag_541\n      jump\t// in\n    tag_649:\n        /* \"#utility.yul\":21217:21242   */\n      swap2\n      pop\n        /* \"#utility.yul\":21256:21276   */\n      tag_650\n        /* \"#utility.yul\":21274:21275   */\n      dup4\n        /* \"#utility.yul\":21256:21276   */\n      tag_541\n      jump\t// in\n    tag_650:\n        /* \"#utility.yul\":21251:21276   */\n      swap3\n      pop\n        /* \"#utility.yul\":21295:21296   */\n      dup3\n        /* \"#utility.yul\":21285:21320   */\n      tag_651\n      jumpi\n        /* \"#utility.yul\":21300:21318   */\n      tag_652\n      tag_653\n      jump\t// in\n    tag_652:\n        /* \"#utility.yul\":21285:21320   */\n    tag_651:\n        /* \"#utility.yul\":21341:21342   */\n      dup3\n        /* \"#utility.yul\":21338:21339   */\n      dup3\n        /* \"#utility.yul\":21334:21343   */\n      mod\n        /* \"#utility.yul\":21329:21343   */\n      swap1\n      pop\n        /* \"#utility.yul\":21173:21349   */\n      swap3\n      swap2\n      pop\n      pop\n      jump\t// out\n        /* \"#utility.yul\":21355:21535   */\n    tag_611:\n        /* \"#utility.yul\":21403:21480   */\n      0x4e487b7100000000000000000000000000000000000000000000000000000000\n        /* \"#utility.yul\":21400:21401   */\n      0x00\n        /* \"#utility.yul\":21393:21481   */\n      mstore\n        /* \"#utility.yul\":21500:21504   */\n      0x11\n        /* \"#utility.yul\":21497:21498   */\n      0x04\n        /* \"#utility.yul\":21490:21505   */\n      mstore\n        /* \"#utility.yul\":21524:21528   */\n      0x24\n        /* \"#utility.yul\":21521:21522   */\n      0x00\n        /* \"#utility.yul\":21514:21529   */\n      revert\n        /* \"#utility.yul\":21541:21721   */\n    tag_653:\n        /* \"#utility.yul\":21589:21666   */\n      0x4e487b7100000000000000000000000000000000000000000000000000000000\n        /* \"#utility.yul\":21586:21587   */\n      0x00\n        /* \"#utility.yul\":21579:21667   */\n      mstore\n        /* \"#utility.yul\":21686:21690   */\n      0x12\n        /* \"#utility.yul\":21683:21684   */\n      0x04\n        /* \"#utility.yul\":21676:21691   */\n      mstore\n        /* \"#utility.yul\":21710:21714   */\n      0x24\n        /* \"#utility.yul\":21707:21708   */\n      0x00\n        /* \"#utility.yul\":21700:21715   */\n      revert\n        /* \"#utility.yul\":21727:21907   */\n    tag_634:\n        /* \"#utility.yul\":21775:21852   */\n      0x4e487b7100000000000000000000000000000000000000000000000000000000\n        /* \"#utility.yul\":21772:21773   */\n      0x00\n        /* \"#utility.yul\":21765:21853   */\n      mstore\n        /* \"#utility.yul\":21872:21876   */\n      0x22\n        /* \"#utility.yul\":21869:21870   */\n      0x04\n        /* \"#utility.yul\":21862:21877   */\n      mstore\n        /* \"#utility.yul\":21896:21900   */\n      0x24\n        /* \"#utility.yul\":21893:21894   */\n      0x00\n        /* \"#utility.yul\":21886:21901   */\n      revert\n        /* \"#utility.yul\":21913:22093   */\n    tag_135:\n        /* \"#utility.yul\":21961:22038   */\n      0x4e487b7100000000000000000000000000000000000000000000000000000000\n        /* \"#utility.yul\":21958:21959   */\n      0x00\n        /* \"#utility.yul\":21951:22039   */\n      mstore\n        /* \"#utility.yul\":22058:22062   */\n      0x32\n        /* \"#utility.yul\":22055:22056   */\n      0x04\n        /* \"#utility.yul\":22048:22063   */\n      mstore\n        /* \"#utility.yul\":22082:22086   */\n      0x24\n        /* \"#utility.yul\":22079:22080   */\n      0x00\n        /* \"#utility.yul\":22072:22087   */\n      revert\n        /* \"#utility.yul\":22099:22279   */\n    tag_597:\n        /* \"#utility.yul\":22147:22224   */\n      0x4e487b7100000000000000000000000000000000000000000000000000000000\n        /* \"#utility.yul\":22144:22145   */\n      0x00\n        /* \"#utility.yul\":22137:22225   */\n      mstore\n        /* \"#utility.yul\":22244:22248   */\n      0x41\n        /* \"#utility.yul\":22241:22242   */\n      0x04\n        /* \"#utility.yul\":22234:22249   */\n      mstore\n        /* \"#utility.yul\":22268:22272   */\n      0x24\n        /* \"#utility.yul\":22265:22266   */\n      0x00\n        /* \"#utility.yul\":22258:22273   */\n      revert\n        /* \"#utility.yul\":22285:22402   */\n    tag_410:\n        /* \"#utility.yul\":22394:22395   */\n      0x00\n        /* \"#utility.yul\":22391:22392   */\n      dup1\n        /* \"#utility.yul\":22384:22396   */\n      revert\n        /* \"#utility.yul\":22408:22525   */\n    tag_387:\n        /* \"#utility.yul\":22517:22518   */\n      0x00\n        /* \"#utility.yul\":22514:22515   */\n      dup1\n        /* \"#utility.yul\":22507:22519   */\n      revert\n        /* \"#utility.yul\":22531:22648   */\n    tag_445:\n        /* \"#utility.yul\":22640:22641   */\n      0x00\n        /* \"#utility.yul\":22637:22638   */\n      dup1\n        /* \"#utility.yul\":22630:22642   */\n      revert\n        /* \"#utility.yul\":22654:22771   */\n    tag_424:\n        /* \"#utility.yul\":22763:22764   */\n      0x00\n        /* \"#utility.yul\":22760:22761   */\n      dup1\n        /* \"#utility.yul\":22753:22765   */\n      revert\n        /* \"#utility.yul\":22777:22879   */\n    tag_500:\n        /* \"#utility.yul\":22818:22824   */\n      0x00\n        /* \"#utility.yul\":22869:22871   */\n      0x1f\n        /* \"#utility.yul\":22865:22872   */\n      not\n        /* \"#utility.yul\":22860:22862   */\n      0x1f\n        /* \"#utility.yul\":22853:22858   */\n      dup4\n        /* \"#utility.yul\":22849:22863   */\n      add\n        /* \"#utility.yul\":22845:22873   */\n      and\n        /* \"#utility.yul\":22835:22873   */\n      swap1\n      pop\n        /* \"#utility.yul\":22777:22879   */\n      swap2\n      swap1\n      pop\n      jump\t// out\n        /* \"#utility.yul\":22885:23112   */\n    tag_517:\n        /* \"#utility.yul\":23025:23059   */\n      0x536f6c6f2073652070756564652074656e657220756e20636f63686520706f72\n        /* \"#utility.yul\":23021:23022   */\n      0x00\n        /* \"#utility.yul\":23013:23019   */\n      dup3\n        /* \"#utility.yul\":23009:23023   */\n      add\n        /* \"#utility.yul\":23002:23060   */\n      mstore\n        /* \"#utility.yul\":23094:23104   */\n      0x20706572736f6e61000000000000000000000000000000000000000000000000\n        /* \"#utility.yul\":23089:23091   */\n      0x20\n        /* \"#utility.yul\":23081:23087   */\n      dup3\n        /* \"#utility.yul\":23077:23092   */\n      add\n        /* \"#utility.yul\":23070:23105   */\n      mstore\n        /* \"#utility.yul\":22885:23112   */\n      pop\n      jump\t// out\n        /* \"#utility.yul\":23118:23343   */\n    tag_522:\n        /* \"#utility.yul\":23258:23292   */\n      0x4f776e61626c653a206e6577206f776e657220697320746865207a65726f2061\n        /* \"#utility.yul\":23254:23255   */\n      0x00\n        /* \"#utility.yul\":23246:23252   */\n      dup3\n        /* \"#utility.yul\":23242:23256   */\n      add\n        /* \"#utility.yul\":23235:23293   */\n      mstore\n        /* \"#utility.yul\":23327:23335   */\n      0x6464726573730000000000000000000000000000000000000000000000000000\n        /* \"#utility.yul\":23322:23324   */\n      0x20\n        /* \"#utility.yul\":23314:23320   */\n      dup3\n        /* \"#utility.yul\":23310:23325   */\n      add\n        /* \"#utility.yul\":23303:23336   */\n      mstore\n        /* \"#utility.yul\":23118:23343   */\n      pop\n      jump\t// out\n        /* \"#utility.yul\":23349:23586   */\n    tag_527:\n        /* \"#utility.yul\":23489:23523   */\n      0x4e6f2068617920636f6368657320737566696369656e74657320706172612069\n        /* \"#utility.yul\":23485:23486   */\n      0x00\n        /* \"#utility.yul\":23477:23483   */\n      dup3\n        /* \"#utility.yul\":23473:23487   */\n      add\n        /* \"#utility.yul\":23466:23524   */\n      mstore\n        /* \"#utility.yul\":23558:23578   */\n      0x6e696369617220756e6120636172726572610000000000000000000000000000\n        /* \"#utility.yul\":23553:23555   */\n      0x20\n        /* \"#utility.yul\":23545:23551   */\n      dup3\n        /* \"#utility.yul\":23541:23556   */\n      add\n        /* \"#utility.yul\":23534:23579   */\n      mstore\n        /* \"#utility.yul\":23349:23586   */\n      pop\n      jump\t// out\n        /* \"#utility.yul\":23592:23774   */\n    tag_532:\n        /* \"#utility.yul\":23732:23766   */\n      0x4f776e61626c653a2063616c6c6572206973206e6f7420746865206f776e6572\n        /* \"#utility.yul\":23728:23729   */\n      0x00\n        /* \"#utility.yul\":23720:23726   */\n      dup3\n        /* \"#utility.yul\":23716:23730   */\n      add\n        /* \"#utility.yul\":23709:23767   */\n      mstore\n        /* \"#utility.yul\":23592:23774   */\n      pop\n      jump\t// out\n        /* \"#utility.yul\":23780:23951   */\n    tag_537:\n        /* \"#utility.yul\":23920:23943   */\n      0x456c20636f6368652067616e61646f722065733a200000000000000000000000\n        /* \"#utility.yul\":23916:23917   */\n      0x00\n        /* \"#utility.yul\":23908:23914   */\n      dup3\n        /* \"#utility.yul\":23904:23918   */\n      add\n        /* \"#utility.yul\":23897:23944   */\n      mstore\n        /* \"#utility.yul\":23780:23951   */\n      pop\n      jump\t// out\n        /* \"#utility.yul\":23957:24079   */\n    tag_401:\n        /* \"#utility.yul\":24030:24054   */\n      tag_670\n        /* \"#utility.yul\":24048:24053   */\n      dup2\n        /* \"#utility.yul\":24030:24054   */\n      tag_486\n      jump\t// in\n    tag_670:\n        /* \"#utility.yul\":24023:24028   */\n      dup2\n        /* \"#utility.yul\":24020:24055   */\n      eq\n        /* \"#utility.yul\":24010:24073   */\n      tag_671\n      jumpi\n        /* \"#utility.yul\":24069:24070   */\n      0x00\n        /* \"#utility.yul\":24066:24067   */\n      dup1\n        /* \"#utility.yul\":24059:24071   */\n      revert\n        /* \"#utility.yul\":24010:24073   */\n    tag_671:\n        /* \"#utility.yul\":23957:24079   */\n      pop\n      jump\t// out\n        /* \"#utility.yul\":24085:24201   */\n    tag_405:\n        /* \"#utility.yul\":24155:24176   */\n      tag_673\n        /* \"#utility.yul\":24170:24175   */\n      dup2\n        /* \"#utility.yul\":24155:24176   */\n      tag_490\n      jump\t// in\n    tag_673:\n        /* \"#utility.yul\":24148:24153   */\n      dup2\n        /* \"#utility.yul\":24145:24177   */\n      eq\n        /* \"#utility.yul\":24135:24195   */\n      tag_674\n      jumpi\n        /* \"#utility.yul\":24191:24192   */\n      0x00\n        /* \"#utility.yul\":24188:24189   */\n      dup1\n        /* \"#utility.yul\":24181:24193   */\n      revert\n        /* \"#utility.yul\":24135:24195   */\n    tag_674:\n        /* \"#utility.yul\":24085:24201   */\n      pop\n      jump\t// out\n        /* \"#utility.yul\":24207:24329   */\n    tag_420:\n        /* \"#utility.yul\":24280:24304   */\n      tag_676\n        /* \"#utility.yul\":24298:24303   */\n      dup2\n        /* \"#utility.yul\":24280:24304   */\n      tag_541\n      jump\t// in\n    tag_676:\n        /* \"#utility.yul\":24273:24278   */\n      dup2\n        /* \"#utility.yul\":24270:24305   */\n      eq\n        /* \"#utility.yul\":24260:24323   */\n      tag_677\n      jumpi\n        /* \"#utility.yul\":24319:24320   */\n      0x00\n        /* \"#utility.yul\":24316:24317   */\n      dup1\n        /* \"#utility.yul\":24309:24321   */\n      revert\n        /* \"#utility.yul\":24260:24323   */\n    tag_677:\n        /* \"#utility.yul\":24207:24329   */\n      pop\n      jump\t// out\n\n    auxdata: 0xa26469706673582212209fe62ba9f2802677883538a11bc9930f09ab92cbe6167f7e9d8f5cae6657595564736f6c63430008070033\n}\n",
				"bytecode": {
					"linkReferences": {},
					"object": "608060405260006001556000600255603c600355670de0b6b3a7640000600455671bc16d674ec800006005553480156200003857600080fd5b50620000596200004d6200005f60201b60201c565b6200006760201b60201c565b6200012b565b600033905090565b60008060009054906101000a900473ffffffffffffffffffffffffffffffffffffffff169050816000806101000a81548173ffffffffffffffffffffffffffffffffffffffff021916908373ffffffffffffffffffffffffffffffffffffffff1602179055508173ffffffffffffffffffffffffffffffffffffffff168173ffffffffffffffffffffffffffffffffffffffff167f8be0079c531659141344cd1fd0a4f28419497f9722a3daafe3b4186f6b6457e060405160405180910390a35050565b612a11806200013b6000396000f3fe60806040526004361061012a5760003560e01c806370a08231116100ab578063b2bdfa7b1161006f578063b2bdfa7b146103ec578063b88d4fde14610417578063d735573d14610433578063e172fca814610477578063e985e9c5146104a0578063f2fde38b146104dd5761012a565b806370a0823114610307578063715018a614610344578063858b05541461035b5780638da5cb5b14610398578063a22cb465146103c35761012a565b80632458c544116100f25780632458c5441461021157806342842e0e1461024e5780636352211e1461026a5780636a7d1816146102a75780636b6f0494146102d75761012a565b8063049a5f651461012f578063081812fc1461015f578063095ea7b31461019c5780631c6743e4146101b857806323b872dd146101f5575b600080fd5b61014960048036038101906101449190611eb9565b610506565b6040516101569190612319565b60405180910390f35b34801561016b57600080fd5b506101866004803603810190610181919061202b565b610667565b6040516101939190612250565b60405180910390f35b6101b660048036038101906101b19190611f44565b61066e565b005b3480156101c457600080fd5b506101df60048036038101906101da9190611d36565b610672565b6040516101ec919061243c565b60405180910390f35b61020f600480360381019061020a9190611da3565b61068a565b005b34801561021d57600080fd5b5061023860048036038101906102339190611f84565b61068f565b604051610245919061243c565b60405180910390f35b61026860048036038101906102639190611da3565b610971565b005b34801561027657600080fd5b50610291600480360381019061028c919061202b565b610976565b60405161029e9190612250565b60405180910390f35b6102c160048036038101906102bc9190611d36565b61097d565b6040516102ce9190612319565b60405180910390f35b6102f160048036038101906102ec919061202b565b610ad2565b6040516102fe9190612319565b60405180910390f35b34801561031357600080fd5b5061032e60048036038101906103299190611d36565b61140d565b60405161033b919061243c565b60405180910390f35b34801561035057600080fd5b50610359611456565b005b34801561036757600080fd5b50610382600480360381019061037d919061202b565b6114de565b60405161038f9190612250565b60405180910390f35b3480156103a457600080fd5b506103ad611511565b6040516103ba9190612250565b60405180910390f35b3480156103cf57600080fd5b506103ea60048036038101906103e59190611e79565b61153a565b005b3480156103f857600080fd5b5061040161153e565b60405161040e9190612250565b60405180910390f35b610431600480360381019061042c9190611df6565b611562565b005b34801561043f57600080fd5b5061045a6004803603810190610455919061202b565b611568565b60405161046e98979695949392919061226b565b60405180910390f35b34801561048357600080fd5b5061049e60048036038101906104999190611d36565b611788565b005b3480156104ac57600080fd5b506104c760048036038101906104c29190611d63565b61192f565b6040516104d491906122fe565b60405180910390f35b3480156104e957600080fd5b5061050460048036038101906104ff9190611d36565b611937565b005b60608373ffffffffffffffffffffffffffffffffffffffff163373ffffffffffffffffffffffffffffffffffffffff161461054057600080fd5b600554341461054e57600080fd5b60005b60068054905081101561065f573373ffffffffffffffffffffffffffffffffffffffff1660068281548110610589576105886127d4565b5b906000526020600020906008020160000160009054906101000a900473ffffffffffffffffffffffffffffffffffffffff1673ffffffffffffffffffffffffffffffffffffffff16141561064c5783600682815481106105ec576105eb6127d4565b5b90600052602060002090600802016001019080519060200190610610929190611b74565b508260068281548110610626576106256127d4565b5b9060005260206000209060080201600201908051906020019061064a929190611b74565b505b808061065790612696565b915050610551565b509392505050565b6000919050565b5050565b60086020528060005260406000206000915090505481565b505050565b60006001600860003373ffffffffffffffffffffffffffffffffffffffff1673ffffffffffffffffffffffffffffffffffffffff1681526020019081526020016000205410610713576040517f08c379a000000000000000000000000000000000000000000000000000000000815260040161070a9061239c565b60405180910390fd5b60066040518061010001604052803373ffffffffffffffffffffffffffffffffffffffff16815260200186815260200185815260200184815260200160008152602001600081526020016003544261076b919061250f565b63ffffffff168152602001600163ffffffff16815250908060018154018082558091505060019003906000526020600020906008020160009091909190915060008201518160000160006101000a81548173ffffffffffffffffffffffffffffffffffffffff021916908373ffffffffffffffffffffffffffffffffffffffff160217905550602082015181600101908051906020019061080d929190611b74565b50604082015181600201908051906020019061082a929190611b74565b506060820151816003019080519060200190610847929190611b74565b506080820151816004015560a0820151816005015560c0820151816006015560e08201518160070160006101000a81548163ffffffff021916908363ffffffff160217905550505060006006805490509050336007600083815260200190815260200160002060006101000a81548173ffffffffffffffffffffffffffffffffffffffff021916908373ffffffffffffffffffffffffffffffffffffffff160217905550600860003373ffffffffffffffffffffffffffffffffffffffff1673ffffffffffffffffffffffffffffffffffffffff168152602001908152602001600020600081548092919061093b90612696565b91905055506002600081548092919061095390612696565b919050555060016002546109679190612565565b9150509392505050565b505050565b6000919050565b6060600454341461098d57600080fd5b60005b600680549050811015610acb578273ffffffffffffffffffffffffffffffffffffffff16600682815481106109c8576109c76127d4565b5b906000526020600020906008020160000160009054906101000a900473ffffffffffffffffffffffffffffffffffffffff1673ffffffffffffffffffffffffffffffffffffffff161415610ab85760068181548110610a2a57610a296127d4565b5b9060005260206000209060080201600701600081819054906101000a900463ffffffff1680929190610a5b906126df565b91906101000a81548163ffffffff021916908363ffffffff160217905550506040518060400160405280601281526020017f48612073756269646f206465206e6976656c0000000000000000000000000000815250915050610acd565b8080610ac390612696565b915050610990565b505b919050565b6060600160068054905011610b1b577f6158fc8f21c8cc73ddf920956cc75d0e8a48b4fc85817a0ba89eb3b6d2a75441604051610b0e906123dc565b60405180910390a1611407565b813414610b2757600080fd5b60016000815480929190610b3a90612696565b9190505550600060068054905042600680549050600154604051602001610b6393929190612213565b6040516020818303038152906040528051906020012060001c610b869190612716565b905060006007600083815260200190815260200160002060009054906101000a900473ffffffffffffffffffffffffffffffffffffffff16905060016000815480929190610bd390612696565b91905055506000606490506000814283600154604051602001610bf893929190612213565b6040516020818303038152906040528051906020012060001c610c1b9190612716565b905060005b6006805490508110156114015760068181548110610c4157610c406127d4565b5b906000526020600020906008020160000160009054906101000a900473ffffffffffffffffffffffffffffffffffffffff1673ffffffffffffffffffffffffffffffffffffffff163373ffffffffffffffffffffffffffffffffffffffff1614156113ee57610cd060068281548110610cbd57610cbc6127d4565b5b9060005260206000209060080201611a2f565b610cd957600080fd5b60068181548110610ced57610cec6127d4565b5b90600052602060002090600802016005016000815480929190610d0f90612696565b919050555060068581548110610d2857610d276127d4565b5b90600052602060002090600802016005016000815480929190610d4a90612696565b9190505550610d7960068281548110610d6657610d656127d4565b5b9060005260206000209060080201611a40565b60068181548110610d8d57610d8c6127d4565b5b906000526020600020906008020160070160009054906101000a900463ffffffff1663ffffffff1660068681548110610dc957610dc86127d4565b5b906000526020600020906008020160070160009054906101000a900463ffffffff1663ffffffff161015610fca57603c8211610ee857610e07611a5f565b60068181548110610e1b57610e1a6127d4565b5b90600052602060002090600802016004016000815480929190610e3d90612696565b919050555060068181548110610e5657610e556127d4565b5b9060005260206000209060080201600701600081819054906101000a900463ffffffff1680929190610e87906126df565b91906101000a81548163ffffffff021916908363ffffffff160217905550506040518060400160405280600a81526020017f4861732067616e61646f0000000000000000000000000000000000000000000081525095505050505050611408565b7f6158fc8f21c8cc73ddf920956cc75d0e8a48b4fc85817a0ba89eb3b6d2a75441604051610f159061241c565b60405180910390a13073ffffffffffffffffffffffffffffffffffffffff1663e172fca8856040518263ffffffff1660e01b8152600401610f569190612250565b600060405180830381600087803b158015610f7057600080fd5b505af1158015610f84573d6000803e3d6000fd5b505050506040518060400160405280600b81526020017f486173207065726469646f00000000000000000000000000000000000000000081525095505050505050611408565b60068181548110610fde57610fdd6127d4565b5b906000526020600020906008020160070160009054906101000a900463ffffffff1663ffffffff166006868154811061101a576110196127d4565b5b906000526020600020906008020160070160009054906101000a900463ffffffff1663ffffffff16141561121b576032821161113957611058611a5f565b6006818154811061106c5761106b6127d4565b5b9060005260206000209060080201600401600081548092919061108e90612696565b9190505550600681815481106110a7576110a66127d4565b5b9060005260206000209060080201600701600081819054906101000a900463ffffffff16809291906110d8906126df565b91906101000a81548163ffffffff021916908363ffffffff160217905550506040518060400160405280600a81526020017f4861732067616e61646f0000000000000000000000000000000000000000000081525095505050505050611408565b7f6158fc8f21c8cc73ddf920956cc75d0e8a48b4fc85817a0ba89eb3b6d2a754416040516111669061241c565b60405180910390a13073ffffffffffffffffffffffffffffffffffffffff1663e172fca8856040518263ffffffff1660e01b81526004016111a79190612250565b600060405180830381600087803b1580156111c157600080fd5b505af11580156111d5573d6000803e3d6000fd5b505050506040518060400160405280600b81526020017f486173207065726469646f00000000000000000000000000000000000000000081525095505050505050611408565b6028821161130c5761122b611a5f565b6006818154811061123f5761123e6127d4565b5b9060005260206000209060080201600401600081548092919061126190612696565b91905055506006818154811061127a576112796127d4565b5b9060005260206000209060080201600701600081819054906101000a900463ffffffff16809291906112ab906126df565b91906101000a81548163ffffffff021916908363ffffffff160217905550506040518060400160405280600a81526020017f4861732067616e61646f0000000000000000000000000000000000000000000081525095505050505050611408565b7f6158fc8f21c8cc73ddf920956cc75d0e8a48b4fc85817a0ba89eb3b6d2a754416040516113399061241c565b60405180910390a13073ffffffffffffffffffffffffffffffffffffffff1663e172fca8856040518263ffffffff1660e01b815260040161137a9190612250565b600060405180830381600087803b15801561139457600080fd5b505af11580156113a8573d6000803e3d6000fd5b505050506040518060400160405280600b81526020017f486173207065726469646f00000000000000000000000000000000000000000081525095505050505050611408565b80806113f990612696565b915050610c20565b50505050505b5b919050565b6000600860008373ffffffffffffffffffffffffffffffffffffffff1673ffffffffffffffffffffffffffffffffffffffff168152602001908152602001600020549050919050565b61145e611aa8565b73ffffffffffffffffffffffffffffffffffffffff1661147c611511565b73ffffffffffffffffffffffffffffffffffffffff16146114d2576040517f08c379a00000000000000000000000000000000000000000000000000000000081526004016114c9906123fc565b60405180910390fd5b6114dc6000611ab0565b565b60076020528060005260406000206000915054906101000a900473ffffffffffffffffffffffffffffffffffffffff1681565b60008060009054906101000a900473ffffffffffffffffffffffffffffffffffffffff16905090565b5050565b60008054906101000a900473ffffffffffffffffffffffffffffffffffffffff1681565b50505050565b6006818154811061157857600080fd5b90600052602060002090600802016000915090508060000160009054906101000a900473ffffffffffffffffffffffffffffffffffffffff16908060010180546115c190612633565b80601f01602080910402602001604051908101604052809291908181526020018280546115ed90612633565b801561163a5780601f1061160f5761010080835404028352916020019161163a565b820191906000526020600020905b81548152906001019060200180831161161d57829003601f168201915b50505050509080600201805461164f90612633565b80601f016020809104026020016040519081016040528092919081815260200182805461167b90612633565b80156116c85780601f1061169d576101008083540402835291602001916116c8565b820191906000526020600020905b8154815290600101906020018083116116ab57829003601f168201915b5050505050908060030180546116dd90612633565b80601f016020809104026020016040519081016040528092919081815260200182805461170990612633565b80156117565780601f1061172b57610100808354040283529160200191611756565b820191906000526020600020905b81548152906001019060200180831161173957829003601f168201915b5050505050908060040154908060050154908060060154908060070160009054906101000a900463ffffffff16905088565b60005b60068054905081101561192b578173ffffffffffffffffffffffffffffffffffffffff16600682815481106117c3576117c26127d4565b5b906000526020600020906008020160000160009054906101000a900473ffffffffffffffffffffffffffffffffffffffff1673ffffffffffffffffffffffffffffffffffffffff161415611918577f20fdb8ab571bfbab79104bea84f9c31cb79c5ae45b5f515c1d6c8393e002835060068281548110611846576118456127d4565b5b90600052602060002090600802016002016006838154811061186b5761186a6127d4565b5b9060005260206000209060080201600101600684815481106118905761188f6127d4565b5b906000526020600020906008020160070160009054906101000a900463ffffffff16600685815481106118c6576118c56127d4565b5b906000526020600020906008020160040154600686815481106118ec576118eb6127d4565b5b90600052602060002090600802016005015460405161190f95949392919061233b565b60405180910390a15b808061192390612696565b91505061178b565b5050565b600092915050565b61193f611aa8565b73ffffffffffffffffffffffffffffffffffffffff1661195d611511565b73ffffffffffffffffffffffffffffffffffffffff16146119b3576040517f08c379a00000000000000000000000000000000000000000000000000000000081526004016119aa906123fc565b60405180910390fd5b600073ffffffffffffffffffffffffffffffffffffffff168173ffffffffffffffffffffffffffffffffffffffff161415611a23576040517f08c379a0000000000000000000000000000000000000000000000000000000008152600401611a1a906123bc565b60405180910390fd5b611a2c81611ab0565b50565b600042826006015411159050919050565b60035442611a4e919061250f565b63ffffffff16816006018190555050565b3373ffffffffffffffffffffffffffffffffffffffff166108fc479081150290604051600060405180830381858888f19350505050158015611aa5573d6000803e3d6000fd5b50565b600033905090565b60008060009054906101000a900473ffffffffffffffffffffffffffffffffffffffff169050816000806101000a81548173ffffffffffffffffffffffffffffffffffffffff021916908373ffffffffffffffffffffffffffffffffffffffff1602179055508173ffffffffffffffffffffffffffffffffffffffff168173ffffffffffffffffffffffffffffffffffffffff167f8be0079c531659141344cd1fd0a4f28419497f9722a3daafe3b4186f6b6457e060405160405180910390a35050565b828054611b8090612633565b90600052602060002090601f016020900481019282611ba25760008555611be9565b82601f10611bbb57805160ff1916838001178555611be9565b82800160010185558215611be9579182015b82811115611be8578251825591602001919060010190611bcd565b5b509050611bf69190611bfa565b5090565b5b80821115611c13576000816000905550600101611bfb565b5090565b6000611c2a611c258461247c565b612457565b905082815260208101848484011115611c4657611c45612837565b5b611c518482856125f1565b509392505050565b6000611c6c611c67846124ad565b612457565b905082815260208101848484011115611c8857611c87612837565b5b611c938482856125f1565b509392505050565b600081359050611caa81612996565b92915050565b600081359050611cbf816129ad565b92915050565b600082601f830112611cda57611cd9612832565b5b8135611cea848260208601611c17565b91505092915050565b600082601f830112611d0857611d07612832565b5b8135611d18848260208601611c59565b91505092915050565b600081359050611d30816129c4565b92915050565b600060208284031215611d4c57611d4b612841565b5b6000611d5a84828501611c9b565b91505092915050565b60008060408385031215611d7a57611d79612841565b5b6000611d8885828601611c9b565b9250506020611d9985828601611c9b565b9150509250929050565b600080600060608486031215611dbc57611dbb612841565b5b6000611dca86828701611c9b565b9350506020611ddb86828701611c9b565b9250506040611dec86828701611d21565b9150509250925092565b60008060008060808587031215611e1057611e0f612841565b5b6000611e1e87828801611c9b565b9450506020611e2f87828801611c9b565b9350506040611e4087828801611d21565b925050606085013567ffffffffffffffff811115611e6157611e6061283c565b5b611e6d87828801611cc5565b91505092959194509250565b60008060408385031215611e9057611e8f612841565b5b6000611e9e85828601611c9b565b9250506020611eaf85828601611cb0565b9150509250929050565b600080600060608486031215611ed257611ed1612841565b5b6000611ee086828701611c9b565b935050602084013567ffffffffffffffff811115611f0157611f0061283c565b5b611f0d86828701611cf3565b925050604084013567ffffffffffffffff811115611f2e57611f2d61283c565b5b611f3a86828701611cf3565b9150509250925092565b60008060408385031215611f5b57611f5a612841565b5b6000611f6985828601611c9b565b9250506020611f7a85828601611d21565b9150509250929050565b600080600060608486031215611f9d57611f9c612841565b5b600084013567ffffffffffffffff811115611fbb57611fba61283c565b5b611fc786828701611cf3565b935050602084013567ffffffffffffffff811115611fe857611fe761283c565b5b611ff486828701611cf3565b925050604084013567ffffffffffffffff8111156120155761201461283c565b5b61202186828701611cf3565b9150509250925092565b60006020828403121561204157612040612841565b5b600061204f84828501611d21565b91505092915050565b61206181612599565b82525050565b612070816125ab565b82525050565b6000612081826124f3565b61208b81856124fe565b935061209b818560208601612600565b6120a481612846565b840191505092915050565b600081546120bc81612633565b6120c681866124fe565b945060018216600081146120e157600181146120f357612126565b60ff1983168652602086019350612126565b6120fc856124de565b60005b8381101561211e578154818901526001820191506020810190506120ff565b808801955050505b50505092915050565b600061213c6028836124fe565b915061214782612857565b604082019050919050565b600061215f6026836124fe565b915061216a826128a6565b604082019050919050565b60006121826032836124fe565b915061218d826128f5565b604082019050919050565b60006121a56020836124fe565b91506121b082612944565b602082019050919050565b60006121c86015836124fe565b91506121d38261296d565b602082019050919050565b6121e7816125d7565b82525050565b6121fe6121f9826125d7565b61270c565b82525050565b61220d816125e1565b82525050565b600061221f82866121ed565b60208201915061222f82856121ed565b60208201915061223f82846121ed565b602082019150819050949350505050565b60006020820190506122656000830184612058565b92915050565b600061010082019050612281600083018b612058565b8181036020830152612293818a612076565b905081810360408301526122a78189612076565b905081810360608301526122bb8188612076565b90506122ca60808301876121de565b6122d760a08301866121de565b6122e460c08301856121de565b6122f160e0830184612204565b9998505050505050505050565b60006020820190506123136000830184612067565b92915050565b600060208201905081810360008301526123338184612076565b905092915050565b600060a082019050818103600083015261235581886120af565b9050818103602083015261236981876120af565b90506123786040830186612204565b61238560608301856121de565b61239260808301846121de565b9695505050505050565b600060208201905081810360008301526123b58161212f565b9050919050565b600060208201905081810360008301526123d581612152565b9050919050565b600060208201905081810360008301526123f581612175565b9050919050565b6000602082019050818103600083015261241581612198565b9050919050565b60006020820190508181036000830152612435816121bb565b9050919050565b600060208201905061245160008301846121de565b92915050565b6000612461612472565b905061246d8282612665565b919050565b6000604051905090565b600067ffffffffffffffff82111561249757612496612803565b5b6124a082612846565b9050602081019050919050565b600067ffffffffffffffff8211156124c8576124c7612803565b5b6124d182612846565b9050602081019050919050565b60008190508160005260206000209050919050565b600081519050919050565b600082825260208201905092915050565b600061251a826125d7565b9150612525836125d7565b9250827fffffffffffffffffffffffffffffffffffffffffffffffffffffffffffffffff0382111561255a57612559612747565b5b828201905092915050565b6000612570826125d7565b915061257b836125d7565b92508282101561258e5761258d612747565b5b828203905092915050565b60006125a4826125b7565b9050919050565b60008115159050919050565b600073ffffffffffffffffffffffffffffffffffffffff82169050919050565b6000819050919050565b600063ffffffff82169050919050565b82818337600083830152505050565b60005b8381101561261e578082015181840152602081019050612603565b8381111561262d576000848401525b50505050565b6000600282049050600182168061264b57607f821691505b6020821081141561265f5761265e6127a5565b5b50919050565b61266e82612846565b810181811067ffffffffffffffff8211171561268d5761268c612803565b5b80604052505050565b60006126a1826125d7565b91507fffffffffffffffffffffffffffffffffffffffffffffffffffffffffffffffff8214156126d4576126d3612747565b5b600182019050919050565b60006126ea826125e1565b915063ffffffff82141561270157612700612747565b5b600182019050919050565b6000819050919050565b6000612721826125d7565b915061272c836125d7565b92508261273c5761273b612776565b5b828206905092915050565b7f4e487b7100000000000000000000000000000000000000000000000000000000600052601160045260246000fd5b7f4e487b7100000000000000000000000000000000000000000000000000000000600052601260045260246000fd5b7f4e487b7100000000000000000000000000000000000000000000000000000000600052602260045260246000fd5b7f4e487b7100000000000000000000000000000000000000000000000000000000600052603260045260246000fd5b7f4e487b7100000000000000000000000000000000000000000000000000000000600052604160045260246000fd5b600080fd5b600080fd5b600080fd5b600080fd5b6000601f19601f8301169050919050565b7f536f6c6f2073652070756564652074656e657220756e20636f63686520706f7260008201527f20706572736f6e61000000000000000000000000000000000000000000000000602082015250565b7f4f776e61626c653a206e6577206f776e657220697320746865207a65726f206160008201527f6464726573730000000000000000000000000000000000000000000000000000602082015250565b7f4e6f2068617920636f6368657320737566696369656e7465732070617261206960008201527f6e696369617220756e6120636172726572610000000000000000000000000000602082015250565b7f4f776e61626c653a2063616c6c6572206973206e6f7420746865206f776e6572600082015250565b7f456c20636f6368652067616e61646f722065733a200000000000000000000000600082015250565b61299f81612599565b81146129aa57600080fd5b50565b6129b6816125ab565b81146129c157600080fd5b50565b6129cd816125d7565b81146129d857600080fd5b5056fea26469706673582212209fe62ba9f2802677883538a11bc9930f09ab92cbe6167f7e9d8f5cae6657595564736f6c63430008070033",
					"opcodes": "PUSH1 0x80 PUSH1 0x40 MSTORE PUSH1 0x0 PUSH1 0x1 SSTORE PUSH1 0x0 PUSH1 0x2 SSTORE PUSH1 0x3C PUSH1 0x3 SSTORE PUSH8 0xDE0B6B3A7640000 PUSH1 0x4 SSTORE PUSH8 0x1BC16D674EC80000 PUSH1 0x5 SSTORE CALLVALUE DUP1 ISZERO PUSH3 0x38 JUMPI PUSH1 0x0 DUP1 REVERT JUMPDEST POP PUSH3 0x59 PUSH3 0x4D PUSH3 0x5F PUSH1 0x20 SHL PUSH1 0x20 SHR JUMP JUMPDEST PUSH3 0x67 PUSH1 0x20 SHL PUSH1 0x20 SHR JUMP JUMPDEST PUSH3 0x12B JUMP JUMPDEST PUSH1 0x0 CALLER SWAP1 POP SWAP1 JUMP JUMPDEST PUSH1 0x0 DUP1 PUSH1 0x0 SWAP1 SLOAD SWAP1 PUSH2 0x100 EXP SWAP1 DIV PUSH20 0xFFFFFFFFFFFFFFFFFFFFFFFFFFFFFFFFFFFFFFFF AND SWAP1 POP DUP2 PUSH1 0x0 DUP1 PUSH2 0x100 EXP DUP2 SLOAD DUP2 PUSH20 0xFFFFFFFFFFFFFFFFFFFFFFFFFFFFFFFFFFFFFFFF MUL NOT AND SWAP1 DUP4 PUSH20 0xFFFFFFFFFFFFFFFFFFFFFFFFFFFFFFFFFFFFFFFF AND MUL OR SWAP1 SSTORE POP DUP2 PUSH20 0xFFFFFFFFFFFFFFFFFFFFFFFFFFFFFFFFFFFFFFFF AND DUP2 PUSH20 0xFFFFFFFFFFFFFFFFFFFFFFFFFFFFFFFFFFFFFFFF AND PUSH32 0x8BE0079C531659141344CD1FD0A4F28419497F9722A3DAAFE3B4186F6B6457E0 PUSH1 0x40 MLOAD PUSH1 0x40 MLOAD DUP1 SWAP2 SUB SWAP1 LOG3 POP POP JUMP JUMPDEST PUSH2 0x2A11 DUP1 PUSH3 0x13B PUSH1 0x0 CODECOPY PUSH1 0x0 RETURN INVALID PUSH1 0x80 PUSH1 0x40 MSTORE PUSH1 0x4 CALLDATASIZE LT PUSH2 0x12A JUMPI PUSH1 0x0 CALLDATALOAD PUSH1 0xE0 SHR DUP1 PUSH4 0x70A08231 GT PUSH2 0xAB JUMPI DUP1 PUSH4 0xB2BDFA7B GT PUSH2 0x6F JUMPI DUP1 PUSH4 0xB2BDFA7B EQ PUSH2 0x3EC JUMPI DUP1 PUSH4 0xB88D4FDE EQ PUSH2 0x417 JUMPI DUP1 PUSH4 0xD735573D EQ PUSH2 0x433 JUMPI DUP1 PUSH4 0xE172FCA8 EQ PUSH2 0x477 JUMPI DUP1 PUSH4 0xE985E9C5 EQ PUSH2 0x4A0 JUMPI DUP1 PUSH4 0xF2FDE38B EQ PUSH2 0x4DD JUMPI PUSH2 0x12A JUMP JUMPDEST DUP1 PUSH4 0x70A08231 EQ PUSH2 0x307 JUMPI DUP1 PUSH4 0x715018A6 EQ PUSH2 0x344 JUMPI DUP1 PUSH4 0x858B0554 EQ PUSH2 0x35B JUMPI DUP1 PUSH4 0x8DA5CB5B EQ PUSH2 0x398 JUMPI DUP1 PUSH4 0xA22CB465 EQ PUSH2 0x3C3 JUMPI PUSH2 0x12A JUMP JUMPDEST DUP1 PUSH4 0x2458C544 GT PUSH2 0xF2 JUMPI DUP1 PUSH4 0x2458C544 EQ PUSH2 0x211 JUMPI DUP1 PUSH4 0x42842E0E EQ PUSH2 0x24E JUMPI DUP1 PUSH4 0x6352211E EQ PUSH2 0x26A JUMPI DUP1 PUSH4 0x6A7D1816 EQ PUSH2 0x2A7 JUMPI DUP1 PUSH4 0x6B6F0494 EQ PUSH2 0x2D7 JUMPI PUSH2 0x12A JUMP JUMPDEST DUP1 PUSH4 0x49A5F65 EQ PUSH2 0x12F JUMPI DUP1 PUSH4 0x81812FC EQ PUSH2 0x15F JUMPI DUP1 PUSH4 0x95EA7B3 EQ PUSH2 0x19C JUMPI DUP1 PUSH4 0x1C6743E4 EQ PUSH2 0x1B8 JUMPI DUP1 PUSH4 0x23B872DD EQ PUSH2 0x1F5 JUMPI JUMPDEST PUSH1 0x0 DUP1 REVERT JUMPDEST PUSH2 0x149 PUSH1 0x4 DUP1 CALLDATASIZE SUB DUP2 ADD SWAP1 PUSH2 0x144 SWAP2 SWAP1 PUSH2 0x1EB9 JUMP JUMPDEST PUSH2 0x506 JUMP JUMPDEST PUSH1 0x40 MLOAD PUSH2 0x156 SWAP2 SWAP1 PUSH2 0x2319 JUMP JUMPDEST PUSH1 0x40 MLOAD DUP1 SWAP2 SUB SWAP1 RETURN JUMPDEST CALLVALUE DUP1 ISZERO PUSH2 0x16B JUMPI PUSH1 0x0 DUP1 REVERT JUMPDEST POP PUSH2 0x186 PUSH1 0x4 DUP1 CALLDATASIZE SUB DUP2 ADD SWAP1 PUSH2 0x181 SWAP2 SWAP1 PUSH2 0x202B JUMP JUMPDEST PUSH2 0x667 JUMP JUMPDEST PUSH1 0x40 MLOAD PUSH2 0x193 SWAP2 SWAP1 PUSH2 0x2250 JUMP JUMPDEST PUSH1 0x40 MLOAD DUP1 SWAP2 SUB SWAP1 RETURN JUMPDEST PUSH2 0x1B6 PUSH1 0x4 DUP1 CALLDATASIZE SUB DUP2 ADD SWAP1 PUSH2 0x1B1 SWAP2 SWAP1 PUSH2 0x1F44 JUMP JUMPDEST PUSH2 0x66E JUMP JUMPDEST STOP JUMPDEST CALLVALUE DUP1 ISZERO PUSH2 0x1C4 JUMPI PUSH1 0x0 DUP1 REVERT JUMPDEST POP PUSH2 0x1DF PUSH1 0x4 DUP1 CALLDATASIZE SUB DUP2 ADD SWAP1 PUSH2 0x1DA SWAP2 SWAP1 PUSH2 0x1D36 JUMP JUMPDEST PUSH2 0x672 JUMP JUMPDEST PUSH1 0x40 MLOAD PUSH2 0x1EC SWAP2 SWAP1 PUSH2 0x243C JUMP JUMPDEST PUSH1 0x40 MLOAD DUP1 SWAP2 SUB SWAP1 RETURN JUMPDEST PUSH2 0x20F PUSH1 0x4 DUP1 CALLDATASIZE SUB DUP2 ADD SWAP1 PUSH2 0x20A SWAP2 SWAP1 PUSH2 0x1DA3 JUMP JUMPDEST PUSH2 0x68A JUMP JUMPDEST STOP JUMPDEST CALLVALUE DUP1 ISZERO PUSH2 0x21D JUMPI PUSH1 0x0 DUP1 REVERT JUMPDEST POP PUSH2 0x238 PUSH1 0x4 DUP1 CALLDATASIZE SUB DUP2 ADD SWAP1 PUSH2 0x233 SWAP2 SWAP1 PUSH2 0x1F84 JUMP JUMPDEST PUSH2 0x68F JUMP JUMPDEST PUSH1 0x40 MLOAD PUSH2 0x245 SWAP2 SWAP1 PUSH2 0x243C JUMP JUMPDEST PUSH1 0x40 MLOAD DUP1 SWAP2 SUB SWAP1 RETURN JUMPDEST PUSH2 0x268 PUSH1 0x4 DUP1 CALLDATASIZE SUB DUP2 ADD SWAP1 PUSH2 0x263 SWAP2 SWAP1 PUSH2 0x1DA3 JUMP JUMPDEST PUSH2 0x971 JUMP JUMPDEST STOP JUMPDEST CALLVALUE DUP1 ISZERO PUSH2 0x276 JUMPI PUSH1 0x0 DUP1 REVERT JUMPDEST POP PUSH2 0x291 PUSH1 0x4 DUP1 CALLDATASIZE SUB DUP2 ADD SWAP1 PUSH2 0x28C SWAP2 SWAP1 PUSH2 0x202B JUMP JUMPDEST PUSH2 0x976 JUMP JUMPDEST PUSH1 0x40 MLOAD PUSH2 0x29E SWAP2 SWAP1 PUSH2 0x2250 JUMP JUMPDEST PUSH1 0x40 MLOAD DUP1 SWAP2 SUB SWAP1 RETURN JUMPDEST PUSH2 0x2C1 PUSH1 0x4 DUP1 CALLDATASIZE SUB DUP2 ADD SWAP1 PUSH2 0x2BC SWAP2 SWAP1 PUSH2 0x1D36 JUMP JUMPDEST PUSH2 0x97D JUMP JUMPDEST PUSH1 0x40 MLOAD PUSH2 0x2CE SWAP2 SWAP1 PUSH2 0x2319 JUMP JUMPDEST PUSH1 0x40 MLOAD DUP1 SWAP2 SUB SWAP1 RETURN JUMPDEST PUSH2 0x2F1 PUSH1 0x4 DUP1 CALLDATASIZE SUB DUP2 ADD SWAP1 PUSH2 0x2EC SWAP2 SWAP1 PUSH2 0x202B JUMP JUMPDEST PUSH2 0xAD2 JUMP JUMPDEST PUSH1 0x40 MLOAD PUSH2 0x2FE SWAP2 SWAP1 PUSH2 0x2319 JUMP JUMPDEST PUSH1 0x40 MLOAD DUP1 SWAP2 SUB SWAP1 RETURN JUMPDEST CALLVALUE DUP1 ISZERO PUSH2 0x313 JUMPI PUSH1 0x0 DUP1 REVERT JUMPDEST POP PUSH2 0x32E PUSH1 0x4 DUP1 CALLDATASIZE SUB DUP2 ADD SWAP1 PUSH2 0x329 SWAP2 SWAP1 PUSH2 0x1D36 JUMP JUMPDEST PUSH2 0x140D JUMP JUMPDEST PUSH1 0x40 MLOAD PUSH2 0x33B SWAP2 SWAP1 PUSH2 0x243C JUMP JUMPDEST PUSH1 0x40 MLOAD DUP1 SWAP2 SUB SWAP1 RETURN JUMPDEST CALLVALUE DUP1 ISZERO PUSH2 0x350 JUMPI PUSH1 0x0 DUP1 REVERT JUMPDEST POP PUSH2 0x359 PUSH2 0x1456 JUMP JUMPDEST STOP JUMPDEST CALLVALUE DUP1 ISZERO PUSH2 0x367 JUMPI PUSH1 0x0 DUP1 REVERT JUMPDEST POP PUSH2 0x382 PUSH1 0x4 DUP1 CALLDATASIZE SUB DUP2 ADD SWAP1 PUSH2 0x37D SWAP2 SWAP1 PUSH2 0x202B JUMP JUMPDEST PUSH2 0x14DE JUMP JUMPDEST PUSH1 0x40 MLOAD PUSH2 0x38F SWAP2 SWAP1 PUSH2 0x2250 JUMP JUMPDEST PUSH1 0x40 MLOAD DUP1 SWAP2 SUB SWAP1 RETURN JUMPDEST CALLVALUE DUP1 ISZERO PUSH2 0x3A4 JUMPI PUSH1 0x0 DUP1 REVERT JUMPDEST POP PUSH2 0x3AD PUSH2 0x1511 JUMP JUMPDEST PUSH1 0x40 MLOAD PUSH2 0x3BA SWAP2 SWAP1 PUSH2 0x2250 JUMP JUMPDEST PUSH1 0x40 MLOAD DUP1 SWAP2 SUB SWAP1 RETURN JUMPDEST CALLVALUE DUP1 ISZERO PUSH2 0x3CF JUMPI PUSH1 0x0 DUP1 REVERT JUMPDEST POP PUSH2 0x3EA PUSH1 0x4 DUP1 CALLDATASIZE SUB DUP2 ADD SWAP1 PUSH2 0x3E5 SWAP2 SWAP1 PUSH2 0x1E79 JUMP JUMPDEST PUSH2 0x153A JUMP JUMPDEST STOP JUMPDEST CALLVALUE DUP1 ISZERO PUSH2 0x3F8 JUMPI PUSH1 0x0 DUP1 REVERT JUMPDEST POP PUSH2 0x401 PUSH2 0x153E JUMP JUMPDEST PUSH1 0x40 MLOAD PUSH2 0x40E SWAP2 SWAP1 PUSH2 0x2250 JUMP JUMPDEST PUSH1 0x40 MLOAD DUP1 SWAP2 SUB SWAP1 RETURN JUMPDEST PUSH2 0x431 PUSH1 0x4 DUP1 CALLDATASIZE SUB DUP2 ADD SWAP1 PUSH2 0x42C SWAP2 SWAP1 PUSH2 0x1DF6 JUMP JUMPDEST PUSH2 0x1562 JUMP JUMPDEST STOP JUMPDEST CALLVALUE DUP1 ISZERO PUSH2 0x43F JUMPI PUSH1 0x0 DUP1 REVERT JUMPDEST POP PUSH2 0x45A PUSH1 0x4 DUP1 CALLDATASIZE SUB DUP2 ADD SWAP1 PUSH2 0x455 SWAP2 SWAP1 PUSH2 0x202B JUMP JUMPDEST PUSH2 0x1568 JUMP JUMPDEST PUSH1 0x40 MLOAD PUSH2 0x46E SWAP9 SWAP8 SWAP7 SWAP6 SWAP5 SWAP4 SWAP3 SWAP2 SWAP1 PUSH2 0x226B JUMP JUMPDEST PUSH1 0x40 MLOAD DUP1 SWAP2 SUB SWAP1 RETURN JUMPDEST CALLVALUE DUP1 ISZERO PUSH2 0x483 JUMPI PUSH1 0x0 DUP1 REVERT JUMPDEST POP PUSH2 0x49E PUSH1 0x4 DUP1 CALLDATASIZE SUB DUP2 ADD SWAP1 PUSH2 0x499 SWAP2 SWAP1 PUSH2 0x1D36 JUMP JUMPDEST PUSH2 0x1788 JUMP JUMPDEST STOP JUMPDEST CALLVALUE DUP1 ISZERO PUSH2 0x4AC JUMPI PUSH1 0x0 DUP1 REVERT JUMPDEST POP PUSH2 0x4C7 PUSH1 0x4 DUP1 CALLDATASIZE SUB DUP2 ADD SWAP1 PUSH2 0x4C2 SWAP2 SWAP1 PUSH2 0x1D63 JUMP JUMPDEST PUSH2 0x192F JUMP JUMPDEST PUSH1 0x40 MLOAD PUSH2 0x4D4 SWAP2 SWAP1 PUSH2 0x22FE JUMP JUMPDEST PUSH1 0x40 MLOAD DUP1 SWAP2 SUB SWAP1 RETURN JUMPDEST CALLVALUE DUP1 ISZERO PUSH2 0x4E9 JUMPI PUSH1 0x0 DUP1 REVERT JUMPDEST POP PUSH2 0x504 PUSH1 0x4 DUP1 CALLDATASIZE SUB DUP2 ADD SWAP1 PUSH2 0x4FF SWAP2 SWAP1 PUSH2 0x1D36 JUMP JUMPDEST PUSH2 0x1937 JUMP JUMPDEST STOP JUMPDEST PUSH1 0x60 DUP4 PUSH20 0xFFFFFFFFFFFFFFFFFFFFFFFFFFFFFFFFFFFFFFFF AND CALLER PUSH20 0xFFFFFFFFFFFFFFFFFFFFFFFFFFFFFFFFFFFFFFFF AND EQ PUSH2 0x540 JUMPI PUSH1 0x0 DUP1 REVERT JUMPDEST PUSH1 0x5 SLOAD CALLVALUE EQ PUSH2 0x54E JUMPI PUSH1 0x0 DUP1 REVERT JUMPDEST PUSH1 0x0 JUMPDEST PUSH1 0x6 DUP1 SLOAD SWAP1 POP DUP2 LT ISZERO PUSH2 0x65F JUMPI CALLER PUSH20 0xFFFFFFFFFFFFFFFFFFFFFFFFFFFFFFFFFFFFFFFF AND PUSH1 0x6 DUP3 DUP2 SLOAD DUP2 LT PUSH2 0x589 JUMPI PUSH2 0x588 PUSH2 0x27D4 JUMP JUMPDEST JUMPDEST SWAP1 PUSH1 0x0 MSTORE PUSH1 0x20 PUSH1 0x0 KECCAK256 SWAP1 PUSH1 0x8 MUL ADD PUSH1 0x0 ADD PUSH1 0x0 SWAP1 SLOAD SWAP1 PUSH2 0x100 EXP SWAP1 DIV PUSH20 0xFFFFFFFFFFFFFFFFFFFFFFFFFFFFFFFFFFFFFFFF AND PUSH20 0xFFFFFFFFFFFFFFFFFFFFFFFFFFFFFFFFFFFFFFFF AND EQ ISZERO PUSH2 0x64C JUMPI DUP4 PUSH1 0x6 DUP3 DUP2 SLOAD DUP2 LT PUSH2 0x5EC JUMPI PUSH2 0x5EB PUSH2 0x27D4 JUMP JUMPDEST JUMPDEST SWAP1 PUSH1 0x0 MSTORE PUSH1 0x20 PUSH1 0x0 KECCAK256 SWAP1 PUSH1 0x8 MUL ADD PUSH1 0x1 ADD SWAP1 DUP1 MLOAD SWAP1 PUSH1 0x20 ADD SWAP1 PUSH2 0x610 SWAP3 SWAP2 SWAP1 PUSH2 0x1B74 JUMP JUMPDEST POP DUP3 PUSH1 0x6 DUP3 DUP2 SLOAD DUP2 LT PUSH2 0x626 JUMPI PUSH2 0x625 PUSH2 0x27D4 JUMP JUMPDEST JUMPDEST SWAP1 PUSH1 0x0 MSTORE PUSH1 0x20 PUSH1 0x0 KECCAK256 SWAP1 PUSH1 0x8 MUL ADD PUSH1 0x2 ADD SWAP1 DUP1 MLOAD SWAP1 PUSH1 0x20 ADD SWAP1 PUSH2 0x64A SWAP3 SWAP2 SWAP1 PUSH2 0x1B74 JUMP JUMPDEST POP JUMPDEST DUP1 DUP1 PUSH2 0x657 SWAP1 PUSH2 0x2696 JUMP JUMPDEST SWAP2 POP POP PUSH2 0x551 JUMP JUMPDEST POP SWAP4 SWAP3 POP POP POP JUMP JUMPDEST PUSH1 0x0 SWAP2 SWAP1 POP JUMP JUMPDEST POP POP JUMP JUMPDEST PUSH1 0x8 PUSH1 0x20 MSTORE DUP1 PUSH1 0x0 MSTORE PUSH1 0x40 PUSH1 0x0 KECCAK256 PUSH1 0x0 SWAP2 POP SWAP1 POP SLOAD DUP2 JUMP JUMPDEST POP POP POP JUMP JUMPDEST PUSH1 0x0 PUSH1 0x1 PUSH1 0x8 PUSH1 0x0 CALLER PUSH20 0xFFFFFFFFFFFFFFFFFFFFFFFFFFFFFFFFFFFFFFFF AND PUSH20 0xFFFFFFFFFFFFFFFFFFFFFFFFFFFFFFFFFFFFFFFF AND DUP2 MSTORE PUSH1 0x20 ADD SWAP1 DUP2 MSTORE PUSH1 0x20 ADD PUSH1 0x0 KECCAK256 SLOAD LT PUSH2 0x713 JUMPI PUSH1 0x40 MLOAD PUSH32 0x8C379A000000000000000000000000000000000000000000000000000000000 DUP2 MSTORE PUSH1 0x4 ADD PUSH2 0x70A SWAP1 PUSH2 0x239C JUMP JUMPDEST PUSH1 0x40 MLOAD DUP1 SWAP2 SUB SWAP1 REVERT JUMPDEST PUSH1 0x6 PUSH1 0x40 MLOAD DUP1 PUSH2 0x100 ADD PUSH1 0x40 MSTORE DUP1 CALLER PUSH20 0xFFFFFFFFFFFFFFFFFFFFFFFFFFFFFFFFFFFFFFFF AND DUP2 MSTORE PUSH1 0x20 ADD DUP7 DUP2 MSTORE PUSH1 0x20 ADD DUP6 DUP2 MSTORE PUSH1 0x20 ADD DUP5 DUP2 MSTORE PUSH1 0x20 ADD PUSH1 0x0 DUP2 MSTORE PUSH1 0x20 ADD PUSH1 0x0 DUP2 MSTORE PUSH1 0x20 ADD PUSH1 0x3 SLOAD TIMESTAMP PUSH2 0x76B SWAP2 SWAP1 PUSH2 0x250F JUMP JUMPDEST PUSH4 0xFFFFFFFF AND DUP2 MSTORE PUSH1 0x20 ADD PUSH1 0x1 PUSH4 0xFFFFFFFF AND DUP2 MSTORE POP SWAP1 DUP1 PUSH1 0x1 DUP2 SLOAD ADD DUP1 DUP3 SSTORE DUP1 SWAP2 POP POP PUSH1 0x1 SWAP1 SUB SWAP1 PUSH1 0x0 MSTORE PUSH1 0x20 PUSH1 0x0 KECCAK256 SWAP1 PUSH1 0x8 MUL ADD PUSH1 0x0 SWAP1 SWAP2 SWAP1 SWAP2 SWAP1 SWAP2 POP PUSH1 0x0 DUP3 ADD MLOAD DUP2 PUSH1 0x0 ADD PUSH1 0x0 PUSH2 0x100 EXP DUP2 SLOAD DUP2 PUSH20 0xFFFFFFFFFFFFFFFFFFFFFFFFFFFFFFFFFFFFFFFF MUL NOT AND SWAP1 DUP4 PUSH20 0xFFFFFFFFFFFFFFFFFFFFFFFFFFFFFFFFFFFFFFFF AND MUL OR SWAP1 SSTORE POP PUSH1 0x20 DUP3 ADD MLOAD DUP2 PUSH1 0x1 ADD SWAP1 DUP1 MLOAD SWAP1 PUSH1 0x20 ADD SWAP1 PUSH2 0x80D SWAP3 SWAP2 SWAP1 PUSH2 0x1B74 JUMP JUMPDEST POP PUSH1 0x40 DUP3 ADD MLOAD DUP2 PUSH1 0x2 ADD SWAP1 DUP1 MLOAD SWAP1 PUSH1 0x20 ADD SWAP1 PUSH2 0x82A SWAP3 SWAP2 SWAP1 PUSH2 0x1B74 JUMP JUMPDEST POP PUSH1 0x60 DUP3 ADD MLOAD DUP2 PUSH1 0x3 ADD SWAP1 DUP1 MLOAD SWAP1 PUSH1 0x20 ADD SWAP1 PUSH2 0x847 SWAP3 SWAP2 SWAP1 PUSH2 0x1B74 JUMP JUMPDEST POP PUSH1 0x80 DUP3 ADD MLOAD DUP2 PUSH1 0x4 ADD SSTORE PUSH1 0xA0 DUP3 ADD MLOAD DUP2 PUSH1 0x5 ADD SSTORE PUSH1 0xC0 DUP3 ADD MLOAD DUP2 PUSH1 0x6 ADD SSTORE PUSH1 0xE0 DUP3 ADD MLOAD DUP2 PUSH1 0x7 ADD PUSH1 0x0 PUSH2 0x100 EXP DUP2 SLOAD DUP2 PUSH4 0xFFFFFFFF MUL NOT AND SWAP1 DUP4 PUSH4 0xFFFFFFFF AND MUL OR SWAP1 SSTORE POP POP POP PUSH1 0x0 PUSH1 0x6 DUP1 SLOAD SWAP1 POP SWAP1 POP CALLER PUSH1 0x7 PUSH1 0x0 DUP4 DUP2 MSTORE PUSH1 0x20 ADD SWAP1 DUP2 MSTORE PUSH1 0x20 ADD PUSH1 0x0 KECCAK256 PUSH1 0x0 PUSH2 0x100 EXP DUP2 SLOAD DUP2 PUSH20 0xFFFFFFFFFFFFFFFFFFFFFFFFFFFFFFFFFFFFFFFF MUL NOT AND SWAP1 DUP4 PUSH20 0xFFFFFFFFFFFFFFFFFFFFFFFFFFFFFFFFFFFFFFFF AND MUL OR SWAP1 SSTORE POP PUSH1 0x8 PUSH1 0x0 CALLER PUSH20 0xFFFFFFFFFFFFFFFFFFFFFFFFFFFFFFFFFFFFFFFF AND PUSH20 0xFFFFFFFFFFFFFFFFFFFFFFFFFFFFFFFFFFFFFFFF AND DUP2 MSTORE PUSH1 0x20 ADD SWAP1 DUP2 MSTORE PUSH1 0x20 ADD PUSH1 0x0 KECCAK256 PUSH1 0x0 DUP2 SLOAD DUP1 SWAP3 SWAP2 SWAP1 PUSH2 0x93B SWAP1 PUSH2 0x2696 JUMP JUMPDEST SWAP2 SWAP1 POP SSTORE POP PUSH1 0x2 PUSH1 0x0 DUP2 SLOAD DUP1 SWAP3 SWAP2 SWAP1 PUSH2 0x953 SWAP1 PUSH2 0x2696 JUMP JUMPDEST SWAP2 SWAP1 POP SSTORE POP PUSH1 0x1 PUSH1 0x2 SLOAD PUSH2 0x967 SWAP2 SWAP1 PUSH2 0x2565 JUMP JUMPDEST SWAP2 POP POP SWAP4 SWAP3 POP POP POP JUMP JUMPDEST POP POP POP JUMP JUMPDEST PUSH1 0x0 SWAP2 SWAP1 POP JUMP JUMPDEST PUSH1 0x60 PUSH1 0x4 SLOAD CALLVALUE EQ PUSH2 0x98D JUMPI PUSH1 0x0 DUP1 REVERT JUMPDEST PUSH1 0x0 JUMPDEST PUSH1 0x6 DUP1 SLOAD SWAP1 POP DUP2 LT ISZERO PUSH2 0xACB JUMPI DUP3 PUSH20 0xFFFFFFFFFFFFFFFFFFFFFFFFFFFFFFFFFFFFFFFF AND PUSH1 0x6 DUP3 DUP2 SLOAD DUP2 LT PUSH2 0x9C8 JUMPI PUSH2 0x9C7 PUSH2 0x27D4 JUMP JUMPDEST JUMPDEST SWAP1 PUSH1 0x0 MSTORE PUSH1 0x20 PUSH1 0x0 KECCAK256 SWAP1 PUSH1 0x8 MUL ADD PUSH1 0x0 ADD PUSH1 0x0 SWAP1 SLOAD SWAP1 PUSH2 0x100 EXP SWAP1 DIV PUSH20 0xFFFFFFFFFFFFFFFFFFFFFFFFFFFFFFFFFFFFFFFF AND PUSH20 0xFFFFFFFFFFFFFFFFFFFFFFFFFFFFFFFFFFFFFFFF AND EQ ISZERO PUSH2 0xAB8 JUMPI PUSH1 0x6 DUP2 DUP2 SLOAD DUP2 LT PUSH2 0xA2A JUMPI PUSH2 0xA29 PUSH2 0x27D4 JUMP JUMPDEST JUMPDEST SWAP1 PUSH1 0x0 MSTORE PUSH1 0x20 PUSH1 0x0 KECCAK256 SWAP1 PUSH1 0x8 MUL ADD PUSH1 0x7 ADD PUSH1 0x0 DUP2 DUP2 SWAP1 SLOAD SWAP1 PUSH2 0x100 EXP SWAP1 DIV PUSH4 0xFFFFFFFF AND DUP1 SWAP3 SWAP2 SWAP1 PUSH2 0xA5B SWAP1 PUSH2 0x26DF JUMP JUMPDEST SWAP2 SWAP1 PUSH2 0x100 EXP DUP2 SLOAD DUP2 PUSH4 0xFFFFFFFF MUL NOT AND SWAP1 DUP4 PUSH4 0xFFFFFFFF AND MUL OR SWAP1 SSTORE POP POP PUSH1 0x40 MLOAD DUP1 PUSH1 0x40 ADD PUSH1 0x40 MSTORE DUP1 PUSH1 0x12 DUP2 MSTORE PUSH1 0x20 ADD PUSH32 0x48612073756269646F206465206E6976656C0000000000000000000000000000 DUP2 MSTORE POP SWAP2 POP POP PUSH2 0xACD JUMP JUMPDEST DUP1 DUP1 PUSH2 0xAC3 SWAP1 PUSH2 0x2696 JUMP JUMPDEST SWAP2 POP POP PUSH2 0x990 JUMP JUMPDEST POP JUMPDEST SWAP2 SWAP1 POP JUMP JUMPDEST PUSH1 0x60 PUSH1 0x1 PUSH1 0x6 DUP1 SLOAD SWAP1 POP GT PUSH2 0xB1B JUMPI PUSH32 0x6158FC8F21C8CC73DDF920956CC75D0E8A48B4FC85817A0BA89EB3B6D2A75441 PUSH1 0x40 MLOAD PUSH2 0xB0E SWAP1 PUSH2 0x23DC JUMP JUMPDEST PUSH1 0x40 MLOAD DUP1 SWAP2 SUB SWAP1 LOG1 PUSH2 0x1407 JUMP JUMPDEST DUP2 CALLVALUE EQ PUSH2 0xB27 JUMPI PUSH1 0x0 DUP1 REVERT JUMPDEST PUSH1 0x1 PUSH1 0x0 DUP2 SLOAD DUP1 SWAP3 SWAP2 SWAP1 PUSH2 0xB3A SWAP1 PUSH2 0x2696 JUMP JUMPDEST SWAP2 SWAP1 POP SSTORE POP PUSH1 0x0 PUSH1 0x6 DUP1 SLOAD SWAP1 POP TIMESTAMP PUSH1 0x6 DUP1 SLOAD SWAP1 POP PUSH1 0x1 SLOAD PUSH1 0x40 MLOAD PUSH1 0x20 ADD PUSH2 0xB63 SWAP4 SWAP3 SWAP2 SWAP1 PUSH2 0x2213 JUMP JUMPDEST PUSH1 0x40 MLOAD PUSH1 0x20 DUP2 DUP4 SUB SUB DUP2 MSTORE SWAP1 PUSH1 0x40 MSTORE DUP1 MLOAD SWAP1 PUSH1 0x20 ADD KECCAK256 PUSH1 0x0 SHR PUSH2 0xB86 SWAP2 SWAP1 PUSH2 0x2716 JUMP JUMPDEST SWAP1 POP PUSH1 0x0 PUSH1 0x7 PUSH1 0x0 DUP4 DUP2 MSTORE PUSH1 0x20 ADD SWAP1 DUP2 MSTORE PUSH1 0x20 ADD PUSH1 0x0 KECCAK256 PUSH1 0x0 SWAP1 SLOAD SWAP1 PUSH2 0x100 EXP SWAP1 DIV PUSH20 0xFFFFFFFFFFFFFFFFFFFFFFFFFFFFFFFFFFFFFFFF AND SWAP1 POP PUSH1 0x1 PUSH1 0x0 DUP2 SLOAD DUP1 SWAP3 SWAP2 SWAP1 PUSH2 0xBD3 SWAP1 PUSH2 0x2696 JUMP JUMPDEST SWAP2 SWAP1 POP SSTORE POP PUSH1 0x0 PUSH1 0x64 SWAP1 POP PUSH1 0x0 DUP2 TIMESTAMP DUP4 PUSH1 0x1 SLOAD PUSH1 0x40 MLOAD PUSH1 0x20 ADD PUSH2 0xBF8 SWAP4 SWAP3 SWAP2 SWAP1 PUSH2 0x2213 JUMP JUMPDEST PUSH1 0x40 MLOAD PUSH1 0x20 DUP2 DUP4 SUB SUB DUP2 MSTORE SWAP1 PUSH1 0x40 MSTORE DUP1 MLOAD SWAP1 PUSH1 0x20 ADD KECCAK256 PUSH1 0x0 SHR PUSH2 0xC1B SWAP2 SWAP1 PUSH2 0x2716 JUMP JUMPDEST SWAP1 POP PUSH1 0x0 JUMPDEST PUSH1 0x6 DUP1 SLOAD SWAP1 POP DUP2 LT ISZERO PUSH2 0x1401 JUMPI PUSH1 0x6 DUP2 DUP2 SLOAD DUP2 LT PUSH2 0xC41 JUMPI PUSH2 0xC40 PUSH2 0x27D4 JUMP JUMPDEST JUMPDEST SWAP1 PUSH1 0x0 MSTORE PUSH1 0x20 PUSH1 0x0 KECCAK256 SWAP1 PUSH1 0x8 MUL ADD PUSH1 0x0 ADD PUSH1 0x0 SWAP1 SLOAD SWAP1 PUSH2 0x100 EXP SWAP1 DIV PUSH20 0xFFFFFFFFFFFFFFFFFFFFFFFFFFFFFFFFFFFFFFFF AND PUSH20 0xFFFFFFFFFFFFFFFFFFFFFFFFFFFFFFFFFFFFFFFF AND CALLER PUSH20 0xFFFFFFFFFFFFFFFFFFFFFFFFFFFFFFFFFFFFFFFF AND EQ ISZERO PUSH2 0x13EE JUMPI PUSH2 0xCD0 PUSH1 0x6 DUP3 DUP2 SLOAD DUP2 LT PUSH2 0xCBD JUMPI PUSH2 0xCBC PUSH2 0x27D4 JUMP JUMPDEST JUMPDEST SWAP1 PUSH1 0x0 MSTORE PUSH1 0x20 PUSH1 0x0 KECCAK256 SWAP1 PUSH1 0x8 MUL ADD PUSH2 0x1A2F JUMP JUMPDEST PUSH2 0xCD9 JUMPI PUSH1 0x0 DUP1 REVERT JUMPDEST PUSH1 0x6 DUP2 DUP2 SLOAD DUP2 LT PUSH2 0xCED JUMPI PUSH2 0xCEC PUSH2 0x27D4 JUMP JUMPDEST JUMPDEST SWAP1 PUSH1 0x0 MSTORE PUSH1 0x20 PUSH1 0x0 KECCAK256 SWAP1 PUSH1 0x8 MUL ADD PUSH1 0x5 ADD PUSH1 0x0 DUP2 SLOAD DUP1 SWAP3 SWAP2 SWAP1 PUSH2 0xD0F SWAP1 PUSH2 0x2696 JUMP JUMPDEST SWAP2 SWAP1 POP SSTORE POP PUSH1 0x6 DUP6 DUP2 SLOAD DUP2 LT PUSH2 0xD28 JUMPI PUSH2 0xD27 PUSH2 0x27D4 JUMP JUMPDEST JUMPDEST SWAP1 PUSH1 0x0 MSTORE PUSH1 0x20 PUSH1 0x0 KECCAK256 SWAP1 PUSH1 0x8 MUL ADD PUSH1 0x5 ADD PUSH1 0x0 DUP2 SLOAD DUP1 SWAP3 SWAP2 SWAP1 PUSH2 0xD4A SWAP1 PUSH2 0x2696 JUMP JUMPDEST SWAP2 SWAP1 POP SSTORE POP PUSH2 0xD79 PUSH1 0x6 DUP3 DUP2 SLOAD DUP2 LT PUSH2 0xD66 JUMPI PUSH2 0xD65 PUSH2 0x27D4 JUMP JUMPDEST JUMPDEST SWAP1 PUSH1 0x0 MSTORE PUSH1 0x20 PUSH1 0x0 KECCAK256 SWAP1 PUSH1 0x8 MUL ADD PUSH2 0x1A40 JUMP JUMPDEST PUSH1 0x6 DUP2 DUP2 SLOAD DUP2 LT PUSH2 0xD8D JUMPI PUSH2 0xD8C PUSH2 0x27D4 JUMP JUMPDEST JUMPDEST SWAP1 PUSH1 0x0 MSTORE PUSH1 0x20 PUSH1 0x0 KECCAK256 SWAP1 PUSH1 0x8 MUL ADD PUSH1 0x7 ADD PUSH1 0x0 SWAP1 SLOAD SWAP1 PUSH2 0x100 EXP SWAP1 DIV PUSH4 0xFFFFFFFF AND PUSH4 0xFFFFFFFF AND PUSH1 0x6 DUP7 DUP2 SLOAD DUP2 LT PUSH2 0xDC9 JUMPI PUSH2 0xDC8 PUSH2 0x27D4 JUMP JUMPDEST JUMPDEST SWAP1 PUSH1 0x0 MSTORE PUSH1 0x20 PUSH1 0x0 KECCAK256 SWAP1 PUSH1 0x8 MUL ADD PUSH1 0x7 ADD PUSH1 0x0 SWAP1 SLOAD SWAP1 PUSH2 0x100 EXP SWAP1 DIV PUSH4 0xFFFFFFFF AND PUSH4 0xFFFFFFFF AND LT ISZERO PUSH2 0xFCA JUMPI PUSH1 0x3C DUP3 GT PUSH2 0xEE8 JUMPI PUSH2 0xE07 PUSH2 0x1A5F JUMP JUMPDEST PUSH1 0x6 DUP2 DUP2 SLOAD DUP2 LT PUSH2 0xE1B JUMPI PUSH2 0xE1A PUSH2 0x27D4 JUMP JUMPDEST JUMPDEST SWAP1 PUSH1 0x0 MSTORE PUSH1 0x20 PUSH1 0x0 KECCAK256 SWAP1 PUSH1 0x8 MUL ADD PUSH1 0x4 ADD PUSH1 0x0 DUP2 SLOAD DUP1 SWAP3 SWAP2 SWAP1 PUSH2 0xE3D SWAP1 PUSH2 0x2696 JUMP JUMPDEST SWAP2 SWAP1 POP SSTORE POP PUSH1 0x6 DUP2 DUP2 SLOAD DUP2 LT PUSH2 0xE56 JUMPI PUSH2 0xE55 PUSH2 0x27D4 JUMP JUMPDEST JUMPDEST SWAP1 PUSH1 0x0 MSTORE PUSH1 0x20 PUSH1 0x0 KECCAK256 SWAP1 PUSH1 0x8 MUL ADD PUSH1 0x7 ADD PUSH1 0x0 DUP2 DUP2 SWAP1 SLOAD SWAP1 PUSH2 0x100 EXP SWAP1 DIV PUSH4 0xFFFFFFFF AND DUP1 SWAP3 SWAP2 SWAP1 PUSH2 0xE87 SWAP1 PUSH2 0x26DF JUMP JUMPDEST SWAP2 SWAP1 PUSH2 0x100 EXP DUP2 SLOAD DUP2 PUSH4 0xFFFFFFFF MUL NOT AND SWAP1 DUP4 PUSH4 0xFFFFFFFF AND MUL OR SWAP1 SSTORE POP POP PUSH1 0x40 MLOAD DUP1 PUSH1 0x40 ADD PUSH1 0x40 MSTORE DUP1 PUSH1 0xA DUP2 MSTORE PUSH1 0x20 ADD PUSH32 0x4861732067616E61646F00000000000000000000000000000000000000000000 DUP2 MSTORE POP SWAP6 POP POP POP POP POP POP PUSH2 0x1408 JUMP JUMPDEST PUSH32 0x6158FC8F21C8CC73DDF920956CC75D0E8A48B4FC85817A0BA89EB3B6D2A75441 PUSH1 0x40 MLOAD PUSH2 0xF15 SWAP1 PUSH2 0x241C JUMP JUMPDEST PUSH1 0x40 MLOAD DUP1 SWAP2 SUB SWAP1 LOG1 ADDRESS PUSH20 0xFFFFFFFFFFFFFFFFFFFFFFFFFFFFFFFFFFFFFFFF AND PUSH4 0xE172FCA8 DUP6 PUSH1 0x40 MLOAD DUP3 PUSH4 0xFFFFFFFF AND PUSH1 0xE0 SHL DUP2 MSTORE PUSH1 0x4 ADD PUSH2 0xF56 SWAP2 SWAP1 PUSH2 0x2250 JUMP JUMPDEST PUSH1 0x0 PUSH1 0x40 MLOAD DUP1 DUP4 SUB DUP2 PUSH1 0x0 DUP8 DUP1 EXTCODESIZE ISZERO DUP1 ISZERO PUSH2 0xF70 JUMPI PUSH1 0x0 DUP1 REVERT JUMPDEST POP GAS CALL ISZERO DUP1 ISZERO PUSH2 0xF84 JUMPI RETURNDATASIZE PUSH1 0x0 DUP1 RETURNDATACOPY RETURNDATASIZE PUSH1 0x0 REVERT JUMPDEST POP POP POP POP PUSH1 0x40 MLOAD DUP1 PUSH1 0x40 ADD PUSH1 0x40 MSTORE DUP1 PUSH1 0xB DUP2 MSTORE PUSH1 0x20 ADD PUSH32 0x486173207065726469646F000000000000000000000000000000000000000000 DUP2 MSTORE POP SWAP6 POP POP POP POP POP POP PUSH2 0x1408 JUMP JUMPDEST PUSH1 0x6 DUP2 DUP2 SLOAD DUP2 LT PUSH2 0xFDE JUMPI PUSH2 0xFDD PUSH2 0x27D4 JUMP JUMPDEST JUMPDEST SWAP1 PUSH1 0x0 MSTORE PUSH1 0x20 PUSH1 0x0 KECCAK256 SWAP1 PUSH1 0x8 MUL ADD PUSH1 0x7 ADD PUSH1 0x0 SWAP1 SLOAD SWAP1 PUSH2 0x100 EXP SWAP1 DIV PUSH4 0xFFFFFFFF AND PUSH4 0xFFFFFFFF AND PUSH1 0x6 DUP7 DUP2 SLOAD DUP2 LT PUSH2 0x101A JUMPI PUSH2 0x1019 PUSH2 0x27D4 JUMP JUMPDEST JUMPDEST SWAP1 PUSH1 0x0 MSTORE PUSH1 0x20 PUSH1 0x0 KECCAK256 SWAP1 PUSH1 0x8 MUL ADD PUSH1 0x7 ADD PUSH1 0x0 SWAP1 SLOAD SWAP1 PUSH2 0x100 EXP SWAP1 DIV PUSH4 0xFFFFFFFF AND PUSH4 0xFFFFFFFF AND EQ ISZERO PUSH2 0x121B JUMPI PUSH1 0x32 DUP3 GT PUSH2 0x1139 JUMPI PUSH2 0x1058 PUSH2 0x1A5F JUMP JUMPDEST PUSH1 0x6 DUP2 DUP2 SLOAD DUP2 LT PUSH2 0x106C JUMPI PUSH2 0x106B PUSH2 0x27D4 JUMP JUMPDEST JUMPDEST SWAP1 PUSH1 0x0 MSTORE PUSH1 0x20 PUSH1 0x0 KECCAK256 SWAP1 PUSH1 0x8 MUL ADD PUSH1 0x4 ADD PUSH1 0x0 DUP2 SLOAD DUP1 SWAP3 SWAP2 SWAP1 PUSH2 0x108E SWAP1 PUSH2 0x2696 JUMP JUMPDEST SWAP2 SWAP1 POP SSTORE POP PUSH1 0x6 DUP2 DUP2 SLOAD DUP2 LT PUSH2 0x10A7 JUMPI PUSH2 0x10A6 PUSH2 0x27D4 JUMP JUMPDEST JUMPDEST SWAP1 PUSH1 0x0 MSTORE PUSH1 0x20 PUSH1 0x0 KECCAK256 SWAP1 PUSH1 0x8 MUL ADD PUSH1 0x7 ADD PUSH1 0x0 DUP2 DUP2 SWAP1 SLOAD SWAP1 PUSH2 0x100 EXP SWAP1 DIV PUSH4 0xFFFFFFFF AND DUP1 SWAP3 SWAP2 SWAP1 PUSH2 0x10D8 SWAP1 PUSH2 0x26DF JUMP JUMPDEST SWAP2 SWAP1 PUSH2 0x100 EXP DUP2 SLOAD DUP2 PUSH4 0xFFFFFFFF MUL NOT AND SWAP1 DUP4 PUSH4 0xFFFFFFFF AND MUL OR SWAP1 SSTORE POP POP PUSH1 0x40 MLOAD DUP1 PUSH1 0x40 ADD PUSH1 0x40 MSTORE DUP1 PUSH1 0xA DUP2 MSTORE PUSH1 0x20 ADD PUSH32 0x4861732067616E61646F00000000000000000000000000000000000000000000 DUP2 MSTORE POP SWAP6 POP POP POP POP POP POP PUSH2 0x1408 JUMP JUMPDEST PUSH32 0x6158FC8F21C8CC73DDF920956CC75D0E8A48B4FC85817A0BA89EB3B6D2A75441 PUSH1 0x40 MLOAD PUSH2 0x1166 SWAP1 PUSH2 0x241C JUMP JUMPDEST PUSH1 0x40 MLOAD DUP1 SWAP2 SUB SWAP1 LOG1 ADDRESS PUSH20 0xFFFFFFFFFFFFFFFFFFFFFFFFFFFFFFFFFFFFFFFF AND PUSH4 0xE172FCA8 DUP6 PUSH1 0x40 MLOAD DUP3 PUSH4 0xFFFFFFFF AND PUSH1 0xE0 SHL DUP2 MSTORE PUSH1 0x4 ADD PUSH2 0x11A7 SWAP2 SWAP1 PUSH2 0x2250 JUMP JUMPDEST PUSH1 0x0 PUSH1 0x40 MLOAD DUP1 DUP4 SUB DUP2 PUSH1 0x0 DUP8 DUP1 EXTCODESIZE ISZERO DUP1 ISZERO PUSH2 0x11C1 JUMPI PUSH1 0x0 DUP1 REVERT JUMPDEST POP GAS CALL ISZERO DUP1 ISZERO PUSH2 0x11D5 JUMPI RETURNDATASIZE PUSH1 0x0 DUP1 RETURNDATACOPY RETURNDATASIZE PUSH1 0x0 REVERT JUMPDEST POP POP POP POP PUSH1 0x40 MLOAD DUP1 PUSH1 0x40 ADD PUSH1 0x40 MSTORE DUP1 PUSH1 0xB DUP2 MSTORE PUSH1 0x20 ADD PUSH32 0x486173207065726469646F000000000000000000000000000000000000000000 DUP2 MSTORE POP SWAP6 POP POP POP POP POP POP PUSH2 0x1408 JUMP JUMPDEST PUSH1 0x28 DUP3 GT PUSH2 0x130C JUMPI PUSH2 0x122B PUSH2 0x1A5F JUMP JUMPDEST PUSH1 0x6 DUP2 DUP2 SLOAD DUP2 LT PUSH2 0x123F JUMPI PUSH2 0x123E PUSH2 0x27D4 JUMP JUMPDEST JUMPDEST SWAP1 PUSH1 0x0 MSTORE PUSH1 0x20 PUSH1 0x0 KECCAK256 SWAP1 PUSH1 0x8 MUL ADD PUSH1 0x4 ADD PUSH1 0x0 DUP2 SLOAD DUP1 SWAP3 SWAP2 SWAP1 PUSH2 0x1261 SWAP1 PUSH2 0x2696 JUMP JUMPDEST SWAP2 SWAP1 POP SSTORE POP PUSH1 0x6 DUP2 DUP2 SLOAD DUP2 LT PUSH2 0x127A JUMPI PUSH2 0x1279 PUSH2 0x27D4 JUMP JUMPDEST JUMPDEST SWAP1 PUSH1 0x0 MSTORE PUSH1 0x20 PUSH1 0x0 KECCAK256 SWAP1 PUSH1 0x8 MUL ADD PUSH1 0x7 ADD PUSH1 0x0 DUP2 DUP2 SWAP1 SLOAD SWAP1 PUSH2 0x100 EXP SWAP1 DIV PUSH4 0xFFFFFFFF AND DUP1 SWAP3 SWAP2 SWAP1 PUSH2 0x12AB SWAP1 PUSH2 0x26DF JUMP JUMPDEST SWAP2 SWAP1 PUSH2 0x100 EXP DUP2 SLOAD DUP2 PUSH4 0xFFFFFFFF MUL NOT AND SWAP1 DUP4 PUSH4 0xFFFFFFFF AND MUL OR SWAP1 SSTORE POP POP PUSH1 0x40 MLOAD DUP1 PUSH1 0x40 ADD PUSH1 0x40 MSTORE DUP1 PUSH1 0xA DUP2 MSTORE PUSH1 0x20 ADD PUSH32 0x4861732067616E61646F00000000000000000000000000000000000000000000 DUP2 MSTORE POP SWAP6 POP POP POP POP POP POP PUSH2 0x1408 JUMP JUMPDEST PUSH32 0x6158FC8F21C8CC73DDF920956CC75D0E8A48B4FC85817A0BA89EB3B6D2A75441 PUSH1 0x40 MLOAD PUSH2 0x1339 SWAP1 PUSH2 0x241C JUMP JUMPDEST PUSH1 0x40 MLOAD DUP1 SWAP2 SUB SWAP1 LOG1 ADDRESS PUSH20 0xFFFFFFFFFFFFFFFFFFFFFFFFFFFFFFFFFFFFFFFF AND PUSH4 0xE172FCA8 DUP6 PUSH1 0x40 MLOAD DUP3 PUSH4 0xFFFFFFFF AND PUSH1 0xE0 SHL DUP2 MSTORE PUSH1 0x4 ADD PUSH2 0x137A SWAP2 SWAP1 PUSH2 0x2250 JUMP JUMPDEST PUSH1 0x0 PUSH1 0x40 MLOAD DUP1 DUP4 SUB DUP2 PUSH1 0x0 DUP8 DUP1 EXTCODESIZE ISZERO DUP1 ISZERO PUSH2 0x1394 JUMPI PUSH1 0x0 DUP1 REVERT JUMPDEST POP GAS CALL ISZERO DUP1 ISZERO PUSH2 0x13A8 JUMPI RETURNDATASIZE PUSH1 0x0 DUP1 RETURNDATACOPY RETURNDATASIZE PUSH1 0x0 REVERT JUMPDEST POP POP POP POP PUSH1 0x40 MLOAD DUP1 PUSH1 0x40 ADD PUSH1 0x40 MSTORE DUP1 PUSH1 0xB DUP2 MSTORE PUSH1 0x20 ADD PUSH32 0x486173207065726469646F000000000000000000000000000000000000000000 DUP2 MSTORE POP SWAP6 POP POP POP POP POP POP PUSH2 0x1408 JUMP JUMPDEST DUP1 DUP1 PUSH2 0x13F9 SWAP1 PUSH2 0x2696 JUMP JUMPDEST SWAP2 POP POP PUSH2 0xC20 JUMP JUMPDEST POP POP POP POP POP JUMPDEST JUMPDEST SWAP2 SWAP1 POP JUMP JUMPDEST PUSH1 0x0 PUSH1 0x8 PUSH1 0x0 DUP4 PUSH20 0xFFFFFFFFFFFFFFFFFFFFFFFFFFFFFFFFFFFFFFFF AND PUSH20 0xFFFFFFFFFFFFFFFFFFFFFFFFFFFFFFFFFFFFFFFF AND DUP2 MSTORE PUSH1 0x20 ADD SWAP1 DUP2 MSTORE PUSH1 0x20 ADD PUSH1 0x0 KECCAK256 SLOAD SWAP1 POP SWAP2 SWAP1 POP JUMP JUMPDEST PUSH2 0x145E PUSH2 0x1AA8 JUMP JUMPDEST PUSH20 0xFFFFFFFFFFFFFFFFFFFFFFFFFFFFFFFFFFFFFFFF AND PUSH2 0x147C PUSH2 0x1511 JUMP JUMPDEST PUSH20 0xFFFFFFFFFFFFFFFFFFFFFFFFFFFFFFFFFFFFFFFF AND EQ PUSH2 0x14D2 JUMPI PUSH1 0x40 MLOAD PUSH32 0x8C379A000000000000000000000000000000000000000000000000000000000 DUP2 MSTORE PUSH1 0x4 ADD PUSH2 0x14C9 SWAP1 PUSH2 0x23FC JUMP JUMPDEST PUSH1 0x40 MLOAD DUP1 SWAP2 SUB SWAP1 REVERT JUMPDEST PUSH2 0x14DC PUSH1 0x0 PUSH2 0x1AB0 JUMP JUMPDEST JUMP JUMPDEST PUSH1 0x7 PUSH1 0x20 MSTORE DUP1 PUSH1 0x0 MSTORE PUSH1 0x40 PUSH1 0x0 KECCAK256 PUSH1 0x0 SWAP2 POP SLOAD SWAP1 PUSH2 0x100 EXP SWAP1 DIV PUSH20 0xFFFFFFFFFFFFFFFFFFFFFFFFFFFFFFFFFFFFFFFF AND DUP2 JUMP JUMPDEST PUSH1 0x0 DUP1 PUSH1 0x0 SWAP1 SLOAD SWAP1 PUSH2 0x100 EXP SWAP1 DIV PUSH20 0xFFFFFFFFFFFFFFFFFFFFFFFFFFFFFFFFFFFFFFFF AND SWAP1 POP SWAP1 JUMP JUMPDEST POP POP JUMP JUMPDEST PUSH1 0x0 DUP1 SLOAD SWAP1 PUSH2 0x100 EXP SWAP1 DIV PUSH20 0xFFFFFFFFFFFFFFFFFFFFFFFFFFFFFFFFFFFFFFFF AND DUP2 JUMP JUMPDEST POP POP POP POP JUMP JUMPDEST PUSH1 0x6 DUP2 DUP2 SLOAD DUP2 LT PUSH2 0x1578 JUMPI PUSH1 0x0 DUP1 REVERT JUMPDEST SWAP1 PUSH1 0x0 MSTORE PUSH1 0x20 PUSH1 0x0 KECCAK256 SWAP1 PUSH1 0x8 MUL ADD PUSH1 0x0 SWAP2 POP SWAP1 POP DUP1 PUSH1 0x0 ADD PUSH1 0x0 SWAP1 SLOAD SWAP1 PUSH2 0x100 EXP SWAP1 DIV PUSH20 0xFFFFFFFFFFFFFFFFFFFFFFFFFFFFFFFFFFFFFFFF AND SWAP1 DUP1 PUSH1 0x1 ADD DUP1 SLOAD PUSH2 0x15C1 SWAP1 PUSH2 0x2633 JUMP JUMPDEST DUP1 PUSH1 0x1F ADD PUSH1 0x20 DUP1 SWAP2 DIV MUL PUSH1 0x20 ADD PUSH1 0x40 MLOAD SWAP1 DUP2 ADD PUSH1 0x40 MSTORE DUP1 SWAP3 SWAP2 SWAP1 DUP2 DUP2 MSTORE PUSH1 0x20 ADD DUP3 DUP1 SLOAD PUSH2 0x15ED SWAP1 PUSH2 0x2633 JUMP JUMPDEST DUP1 ISZERO PUSH2 0x163A JUMPI DUP1 PUSH1 0x1F LT PUSH2 0x160F JUMPI PUSH2 0x100 DUP1 DUP4 SLOAD DIV MUL DUP4 MSTORE SWAP2 PUSH1 0x20 ADD SWAP2 PUSH2 0x163A JUMP JUMPDEST DUP3 ADD SWAP2 SWAP1 PUSH1 0x0 MSTORE PUSH1 0x20 PUSH1 0x0 KECCAK256 SWAP1 JUMPDEST DUP2 SLOAD DUP2 MSTORE SWAP1 PUSH1 0x1 ADD SWAP1 PUSH1 0x20 ADD DUP1 DUP4 GT PUSH2 0x161D JUMPI DUP3 SWAP1 SUB PUSH1 0x1F AND DUP3 ADD SWAP2 JUMPDEST POP POP POP POP POP SWAP1 DUP1 PUSH1 0x2 ADD DUP1 SLOAD PUSH2 0x164F SWAP1 PUSH2 0x2633 JUMP JUMPDEST DUP1 PUSH1 0x1F ADD PUSH1 0x20 DUP1 SWAP2 DIV MUL PUSH1 0x20 ADD PUSH1 0x40 MLOAD SWAP1 DUP2 ADD PUSH1 0x40 MSTORE DUP1 SWAP3 SWAP2 SWAP1 DUP2 DUP2 MSTORE PUSH1 0x20 ADD DUP3 DUP1 SLOAD PUSH2 0x167B SWAP1 PUSH2 0x2633 JUMP JUMPDEST DUP1 ISZERO PUSH2 0x16C8 JUMPI DUP1 PUSH1 0x1F LT PUSH2 0x169D JUMPI PUSH2 0x100 DUP1 DUP4 SLOAD DIV MUL DUP4 MSTORE SWAP2 PUSH1 0x20 ADD SWAP2 PUSH2 0x16C8 JUMP JUMPDEST DUP3 ADD SWAP2 SWAP1 PUSH1 0x0 MSTORE PUSH1 0x20 PUSH1 0x0 KECCAK256 SWAP1 JUMPDEST DUP2 SLOAD DUP2 MSTORE SWAP1 PUSH1 0x1 ADD SWAP1 PUSH1 0x20 ADD DUP1 DUP4 GT PUSH2 0x16AB JUMPI DUP3 SWAP1 SUB PUSH1 0x1F AND DUP3 ADD SWAP2 JUMPDEST POP POP POP POP POP SWAP1 DUP1 PUSH1 0x3 ADD DUP1 SLOAD PUSH2 0x16DD SWAP1 PUSH2 0x2633 JUMP JUMPDEST DUP1 PUSH1 0x1F ADD PUSH1 0x20 DUP1 SWAP2 DIV MUL PUSH1 0x20 ADD PUSH1 0x40 MLOAD SWAP1 DUP2 ADD PUSH1 0x40 MSTORE DUP1 SWAP3 SWAP2 SWAP1 DUP2 DUP2 MSTORE PUSH1 0x20 ADD DUP3 DUP1 SLOAD PUSH2 0x1709 SWAP1 PUSH2 0x2633 JUMP JUMPDEST DUP1 ISZERO PUSH2 0x1756 JUMPI DUP1 PUSH1 0x1F LT PUSH2 0x172B JUMPI PUSH2 0x100 DUP1 DUP4 SLOAD DIV MUL DUP4 MSTORE SWAP2 PUSH1 0x20 ADD SWAP2 PUSH2 0x1756 JUMP JUMPDEST DUP3 ADD SWAP2 SWAP1 PUSH1 0x0 MSTORE PUSH1 0x20 PUSH1 0x0 KECCAK256 SWAP1 JUMPDEST DUP2 SLOAD DUP2 MSTORE SWAP1 PUSH1 0x1 ADD SWAP1 PUSH1 0x20 ADD DUP1 DUP4 GT PUSH2 0x1739 JUMPI DUP3 SWAP1 SUB PUSH1 0x1F AND DUP3 ADD SWAP2 JUMPDEST POP POP POP POP POP SWAP1 DUP1 PUSH1 0x4 ADD SLOAD SWAP1 DUP1 PUSH1 0x5 ADD SLOAD SWAP1 DUP1 PUSH1 0x6 ADD SLOAD SWAP1 DUP1 PUSH1 0x7 ADD PUSH1 0x0 SWAP1 SLOAD SWAP1 PUSH2 0x100 EXP SWAP1 DIV PUSH4 0xFFFFFFFF AND SWAP1 POP DUP9 JUMP JUMPDEST PUSH1 0x0 JUMPDEST PUSH1 0x6 DUP1 SLOAD SWAP1 POP DUP2 LT ISZERO PUSH2 0x192B JUMPI DUP2 PUSH20 0xFFFFFFFFFFFFFFFFFFFFFFFFFFFFFFFFFFFFFFFF AND PUSH1 0x6 DUP3 DUP2 SLOAD DUP2 LT PUSH2 0x17C3 JUMPI PUSH2 0x17C2 PUSH2 0x27D4 JUMP JUMPDEST JUMPDEST SWAP1 PUSH1 0x0 MSTORE PUSH1 0x20 PUSH1 0x0 KECCAK256 SWAP1 PUSH1 0x8 MUL ADD PUSH1 0x0 ADD PUSH1 0x0 SWAP1 SLOAD SWAP1 PUSH2 0x100 EXP SWAP1 DIV PUSH20 0xFFFFFFFFFFFFFFFFFFFFFFFFFFFFFFFFFFFFFFFF AND PUSH20 0xFFFFFFFFFFFFFFFFFFFFFFFFFFFFFFFFFFFFFFFF AND EQ ISZERO PUSH2 0x1918 JUMPI PUSH32 0x20FDB8AB571BFBAB79104BEA84F9C31CB79C5AE45B5F515C1D6C8393E0028350 PUSH1 0x6 DUP3 DUP2 SLOAD DUP2 LT PUSH2 0x1846 JUMPI PUSH2 0x1845 PUSH2 0x27D4 JUMP JUMPDEST JUMPDEST SWAP1 PUSH1 0x0 MSTORE PUSH1 0x20 PUSH1 0x0 KECCAK256 SWAP1 PUSH1 0x8 MUL ADD PUSH1 0x2 ADD PUSH1 0x6 DUP4 DUP2 SLOAD DUP2 LT PUSH2 0x186B JUMPI PUSH2 0x186A PUSH2 0x27D4 JUMP JUMPDEST JUMPDEST SWAP1 PUSH1 0x0 MSTORE PUSH1 0x20 PUSH1 0x0 KECCAK256 SWAP1 PUSH1 0x8 MUL ADD PUSH1 0x1 ADD PUSH1 0x6 DUP5 DUP2 SLOAD DUP2 LT PUSH2 0x1890 JUMPI PUSH2 0x188F PUSH2 0x27D4 JUMP JUMPDEST JUMPDEST SWAP1 PUSH1 0x0 MSTORE PUSH1 0x20 PUSH1 0x0 KECCAK256 SWAP1 PUSH1 0x8 MUL ADD PUSH1 0x7 ADD PUSH1 0x0 SWAP1 SLOAD SWAP1 PUSH2 0x100 EXP SWAP1 DIV PUSH4 0xFFFFFFFF AND PUSH1 0x6 DUP6 DUP2 SLOAD DUP2 LT PUSH2 0x18C6 JUMPI PUSH2 0x18C5 PUSH2 0x27D4 JUMP JUMPDEST JUMPDEST SWAP1 PUSH1 0x0 MSTORE PUSH1 0x20 PUSH1 0x0 KECCAK256 SWAP1 PUSH1 0x8 MUL ADD PUSH1 0x4 ADD SLOAD PUSH1 0x6 DUP7 DUP2 SLOAD DUP2 LT PUSH2 0x18EC JUMPI PUSH2 0x18EB PUSH2 0x27D4 JUMP JUMPDEST JUMPDEST SWAP1 PUSH1 0x0 MSTORE PUSH1 0x20 PUSH1 0x0 KECCAK256 SWAP1 PUSH1 0x8 MUL ADD PUSH1 0x5 ADD SLOAD PUSH1 0x40 MLOAD PUSH2 0x190F SWAP6 SWAP5 SWAP4 SWAP3 SWAP2 SWAP1 PUSH2 0x233B JUMP JUMPDEST PUSH1 0x40 MLOAD DUP1 SWAP2 SUB SWAP1 LOG1 JUMPDEST DUP1 DUP1 PUSH2 0x1923 SWAP1 PUSH2 0x2696 JUMP JUMPDEST SWAP2 POP POP PUSH2 0x178B JUMP JUMPDEST POP POP JUMP JUMPDEST PUSH1 0x0 SWAP3 SWAP2 POP POP JUMP JUMPDEST PUSH2 0x193F PUSH2 0x1AA8 JUMP JUMPDEST PUSH20 0xFFFFFFFFFFFFFFFFFFFFFFFFFFFFFFFFFFFFFFFF AND PUSH2 0x195D PUSH2 0x1511 JUMP JUMPDEST PUSH20 0xFFFFFFFFFFFFFFFFFFFFFFFFFFFFFFFFFFFFFFFF AND EQ PUSH2 0x19B3 JUMPI PUSH1 0x40 MLOAD PUSH32 0x8C379A000000000000000000000000000000000000000000000000000000000 DUP2 MSTORE PUSH1 0x4 ADD PUSH2 0x19AA SWAP1 PUSH2 0x23FC JUMP JUMPDEST PUSH1 0x40 MLOAD DUP1 SWAP2 SUB SWAP1 REVERT JUMPDEST PUSH1 0x0 PUSH20 0xFFFFFFFFFFFFFFFFFFFFFFFFFFFFFFFFFFFFFFFF AND DUP2 PUSH20 0xFFFFFFFFFFFFFFFFFFFFFFFFFFFFFFFFFFFFFFFF AND EQ ISZERO PUSH2 0x1A23 JUMPI PUSH1 0x40 MLOAD PUSH32 0x8C379A000000000000000000000000000000000000000000000000000000000 DUP2 MSTORE PUSH1 0x4 ADD PUSH2 0x1A1A SWAP1 PUSH2 0x23BC JUMP JUMPDEST PUSH1 0x40 MLOAD DUP1 SWAP2 SUB SWAP1 REVERT JUMPDEST PUSH2 0x1A2C DUP2 PUSH2 0x1AB0 JUMP JUMPDEST POP JUMP JUMPDEST PUSH1 0x0 TIMESTAMP DUP3 PUSH1 0x6 ADD SLOAD GT ISZERO SWAP1 POP SWAP2 SWAP1 POP JUMP JUMPDEST PUSH1 0x3 SLOAD TIMESTAMP PUSH2 0x1A4E SWAP2 SWAP1 PUSH2 0x250F JUMP JUMPDEST PUSH4 0xFFFFFFFF AND DUP2 PUSH1 0x6 ADD DUP2 SWAP1 SSTORE POP POP JUMP JUMPDEST CALLER PUSH20 0xFFFFFFFFFFFFFFFFFFFFFFFFFFFFFFFFFFFFFFFF AND PUSH2 0x8FC SELFBALANCE SWAP1 DUP2 ISZERO MUL SWAP1 PUSH1 0x40 MLOAD PUSH1 0x0 PUSH1 0x40 MLOAD DUP1 DUP4 SUB DUP2 DUP6 DUP9 DUP9 CALL SWAP4 POP POP POP POP ISZERO DUP1 ISZERO PUSH2 0x1AA5 JUMPI RETURNDATASIZE PUSH1 0x0 DUP1 RETURNDATACOPY RETURNDATASIZE PUSH1 0x0 REVERT JUMPDEST POP JUMP JUMPDEST PUSH1 0x0 CALLER SWAP1 POP SWAP1 JUMP JUMPDEST PUSH1 0x0 DUP1 PUSH1 0x0 SWAP1 SLOAD SWAP1 PUSH2 0x100 EXP SWAP1 DIV PUSH20 0xFFFFFFFFFFFFFFFFFFFFFFFFFFFFFFFFFFFFFFFF AND SWAP1 POP DUP2 PUSH1 0x0 DUP1 PUSH2 0x100 EXP DUP2 SLOAD DUP2 PUSH20 0xFFFFFFFFFFFFFFFFFFFFFFFFFFFFFFFFFFFFFFFF MUL NOT AND SWAP1 DUP4 PUSH20 0xFFFFFFFFFFFFFFFFFFFFFFFFFFFFFFFFFFFFFFFF AND MUL OR SWAP1 SSTORE POP DUP2 PUSH20 0xFFFFFFFFFFFFFFFFFFFFFFFFFFFFFFFFFFFFFFFF AND DUP2 PUSH20 0xFFFFFFFFFFFFFFFFFFFFFFFFFFFFFFFFFFFFFFFF AND PUSH32 0x8BE0079C531659141344CD1FD0A4F28419497F9722A3DAAFE3B4186F6B6457E0 PUSH1 0x40 MLOAD PUSH1 0x40 MLOAD DUP1 SWAP2 SUB SWAP1 LOG3 POP POP JUMP JUMPDEST DUP3 DUP1 SLOAD PUSH2 0x1B80 SWAP1 PUSH2 0x2633 JUMP JUMPDEST SWAP1 PUSH1 0x0 MSTORE PUSH1 0x20 PUSH1 0x0 KECCAK256 SWAP1 PUSH1 0x1F ADD PUSH1 0x20 SWAP1 DIV DUP2 ADD SWAP3 DUP3 PUSH2 0x1BA2 JUMPI PUSH1 0x0 DUP6 SSTORE PUSH2 0x1BE9 JUMP JUMPDEST DUP3 PUSH1 0x1F LT PUSH2 0x1BBB JUMPI DUP1 MLOAD PUSH1 0xFF NOT AND DUP4 DUP1 ADD OR DUP6 SSTORE PUSH2 0x1BE9 JUMP JUMPDEST DUP3 DUP1 ADD PUSH1 0x1 ADD DUP6 SSTORE DUP3 ISZERO PUSH2 0x1BE9 JUMPI SWAP2 DUP3 ADD JUMPDEST DUP3 DUP2 GT ISZERO PUSH2 0x1BE8 JUMPI DUP3 MLOAD DUP3 SSTORE SWAP2 PUSH1 0x20 ADD SWAP2 SWAP1 PUSH1 0x1 ADD SWAP1 PUSH2 0x1BCD JUMP JUMPDEST JUMPDEST POP SWAP1 POP PUSH2 0x1BF6 SWAP2 SWAP1 PUSH2 0x1BFA JUMP JUMPDEST POP SWAP1 JUMP JUMPDEST JUMPDEST DUP1 DUP3 GT ISZERO PUSH2 0x1C13 JUMPI PUSH1 0x0 DUP2 PUSH1 0x0 SWAP1 SSTORE POP PUSH1 0x1 ADD PUSH2 0x1BFB JUMP JUMPDEST POP SWAP1 JUMP JUMPDEST PUSH1 0x0 PUSH2 0x1C2A PUSH2 0x1C25 DUP5 PUSH2 0x247C JUMP JUMPDEST PUSH2 0x2457 JUMP JUMPDEST SWAP1 POP DUP3 DUP2 MSTORE PUSH1 0x20 DUP2 ADD DUP5 DUP5 DUP5 ADD GT ISZERO PUSH2 0x1C46 JUMPI PUSH2 0x1C45 PUSH2 0x2837 JUMP JUMPDEST JUMPDEST PUSH2 0x1C51 DUP5 DUP3 DUP6 PUSH2 0x25F1 JUMP JUMPDEST POP SWAP4 SWAP3 POP POP POP JUMP JUMPDEST PUSH1 0x0 PUSH2 0x1C6C PUSH2 0x1C67 DUP5 PUSH2 0x24AD JUMP JUMPDEST PUSH2 0x2457 JUMP JUMPDEST SWAP1 POP DUP3 DUP2 MSTORE PUSH1 0x20 DUP2 ADD DUP5 DUP5 DUP5 ADD GT ISZERO PUSH2 0x1C88 JUMPI PUSH2 0x1C87 PUSH2 0x2837 JUMP JUMPDEST JUMPDEST PUSH2 0x1C93 DUP5 DUP3 DUP6 PUSH2 0x25F1 JUMP JUMPDEST POP SWAP4 SWAP3 POP POP POP JUMP JUMPDEST PUSH1 0x0 DUP2 CALLDATALOAD SWAP1 POP PUSH2 0x1CAA DUP2 PUSH2 0x2996 JUMP JUMPDEST SWAP3 SWAP2 POP POP JUMP JUMPDEST PUSH1 0x0 DUP2 CALLDATALOAD SWAP1 POP PUSH2 0x1CBF DUP2 PUSH2 0x29AD JUMP JUMPDEST SWAP3 SWAP2 POP POP JUMP JUMPDEST PUSH1 0x0 DUP3 PUSH1 0x1F DUP4 ADD SLT PUSH2 0x1CDA JUMPI PUSH2 0x1CD9 PUSH2 0x2832 JUMP JUMPDEST JUMPDEST DUP2 CALLDATALOAD PUSH2 0x1CEA DUP5 DUP3 PUSH1 0x20 DUP7 ADD PUSH2 0x1C17 JUMP JUMPDEST SWAP2 POP POP SWAP3 SWAP2 POP POP JUMP JUMPDEST PUSH1 0x0 DUP3 PUSH1 0x1F DUP4 ADD SLT PUSH2 0x1D08 JUMPI PUSH2 0x1D07 PUSH2 0x2832 JUMP JUMPDEST JUMPDEST DUP2 CALLDATALOAD PUSH2 0x1D18 DUP5 DUP3 PUSH1 0x20 DUP7 ADD PUSH2 0x1C59 JUMP JUMPDEST SWAP2 POP POP SWAP3 SWAP2 POP POP JUMP JUMPDEST PUSH1 0x0 DUP2 CALLDATALOAD SWAP1 POP PUSH2 0x1D30 DUP2 PUSH2 0x29C4 JUMP JUMPDEST SWAP3 SWAP2 POP POP JUMP JUMPDEST PUSH1 0x0 PUSH1 0x20 DUP3 DUP5 SUB SLT ISZERO PUSH2 0x1D4C JUMPI PUSH2 0x1D4B PUSH2 0x2841 JUMP JUMPDEST JUMPDEST PUSH1 0x0 PUSH2 0x1D5A DUP5 DUP3 DUP6 ADD PUSH2 0x1C9B JUMP JUMPDEST SWAP2 POP POP SWAP3 SWAP2 POP POP JUMP JUMPDEST PUSH1 0x0 DUP1 PUSH1 0x40 DUP4 DUP6 SUB SLT ISZERO PUSH2 0x1D7A JUMPI PUSH2 0x1D79 PUSH2 0x2841 JUMP JUMPDEST JUMPDEST PUSH1 0x0 PUSH2 0x1D88 DUP6 DUP3 DUP7 ADD PUSH2 0x1C9B JUMP JUMPDEST SWAP3 POP POP PUSH1 0x20 PUSH2 0x1D99 DUP6 DUP3 DUP7 ADD PUSH2 0x1C9B JUMP JUMPDEST SWAP2 POP POP SWAP3 POP SWAP3 SWAP1 POP JUMP JUMPDEST PUSH1 0x0 DUP1 PUSH1 0x0 PUSH1 0x60 DUP5 DUP7 SUB SLT ISZERO PUSH2 0x1DBC JUMPI PUSH2 0x1DBB PUSH2 0x2841 JUMP JUMPDEST JUMPDEST PUSH1 0x0 PUSH2 0x1DCA DUP7 DUP3 DUP8 ADD PUSH2 0x1C9B JUMP JUMPDEST SWAP4 POP POP PUSH1 0x20 PUSH2 0x1DDB DUP7 DUP3 DUP8 ADD PUSH2 0x1C9B JUMP JUMPDEST SWAP3 POP POP PUSH1 0x40 PUSH2 0x1DEC DUP7 DUP3 DUP8 ADD PUSH2 0x1D21 JUMP JUMPDEST SWAP2 POP POP SWAP3 POP SWAP3 POP SWAP3 JUMP JUMPDEST PUSH1 0x0 DUP1 PUSH1 0x0 DUP1 PUSH1 0x80 DUP6 DUP8 SUB SLT ISZERO PUSH2 0x1E10 JUMPI PUSH2 0x1E0F PUSH2 0x2841 JUMP JUMPDEST JUMPDEST PUSH1 0x0 PUSH2 0x1E1E DUP8 DUP3 DUP9 ADD PUSH2 0x1C9B JUMP JUMPDEST SWAP5 POP POP PUSH1 0x20 PUSH2 0x1E2F DUP8 DUP3 DUP9 ADD PUSH2 0x1C9B JUMP JUMPDEST SWAP4 POP POP PUSH1 0x40 PUSH2 0x1E40 DUP8 DUP3 DUP9 ADD PUSH2 0x1D21 JUMP JUMPDEST SWAP3 POP POP PUSH1 0x60 DUP6 ADD CALLDATALOAD PUSH8 0xFFFFFFFFFFFFFFFF DUP2 GT ISZERO PUSH2 0x1E61 JUMPI PUSH2 0x1E60 PUSH2 0x283C JUMP JUMPDEST JUMPDEST PUSH2 0x1E6D DUP8 DUP3 DUP9 ADD PUSH2 0x1CC5 JUMP JUMPDEST SWAP2 POP POP SWAP3 SWAP6 SWAP2 SWAP5 POP SWAP3 POP JUMP JUMPDEST PUSH1 0x0 DUP1 PUSH1 0x40 DUP4 DUP6 SUB SLT ISZERO PUSH2 0x1E90 JUMPI PUSH2 0x1E8F PUSH2 0x2841 JUMP JUMPDEST JUMPDEST PUSH1 0x0 PUSH2 0x1E9E DUP6 DUP3 DUP7 ADD PUSH2 0x1C9B JUMP JUMPDEST SWAP3 POP POP PUSH1 0x20 PUSH2 0x1EAF DUP6 DUP3 DUP7 ADD PUSH2 0x1CB0 JUMP JUMPDEST SWAP2 POP POP SWAP3 POP SWAP3 SWAP1 POP JUMP JUMPDEST PUSH1 0x0 DUP1 PUSH1 0x0 PUSH1 0x60 DUP5 DUP7 SUB SLT ISZERO PUSH2 0x1ED2 JUMPI PUSH2 0x1ED1 PUSH2 0x2841 JUMP JUMPDEST JUMPDEST PUSH1 0x0 PUSH2 0x1EE0 DUP7 DUP3 DUP8 ADD PUSH2 0x1C9B JUMP JUMPDEST SWAP4 POP POP PUSH1 0x20 DUP5 ADD CALLDATALOAD PUSH8 0xFFFFFFFFFFFFFFFF DUP2 GT ISZERO PUSH2 0x1F01 JUMPI PUSH2 0x1F00 PUSH2 0x283C JUMP JUMPDEST JUMPDEST PUSH2 0x1F0D DUP7 DUP3 DUP8 ADD PUSH2 0x1CF3 JUMP JUMPDEST SWAP3 POP POP PUSH1 0x40 DUP5 ADD CALLDATALOAD PUSH8 0xFFFFFFFFFFFFFFFF DUP2 GT ISZERO PUSH2 0x1F2E JUMPI PUSH2 0x1F2D PUSH2 0x283C JUMP JUMPDEST JUMPDEST PUSH2 0x1F3A DUP7 DUP3 DUP8 ADD PUSH2 0x1CF3 JUMP JUMPDEST SWAP2 POP POP SWAP3 POP SWAP3 POP SWAP3 JUMP JUMPDEST PUSH1 0x0 DUP1 PUSH1 0x40 DUP4 DUP6 SUB SLT ISZERO PUSH2 0x1F5B JUMPI PUSH2 0x1F5A PUSH2 0x2841 JUMP JUMPDEST JUMPDEST PUSH1 0x0 PUSH2 0x1F69 DUP6 DUP3 DUP7 ADD PUSH2 0x1C9B JUMP JUMPDEST SWAP3 POP POP PUSH1 0x20 PUSH2 0x1F7A DUP6 DUP3 DUP7 ADD PUSH2 0x1D21 JUMP JUMPDEST SWAP2 POP POP SWAP3 POP SWAP3 SWAP1 POP JUMP JUMPDEST PUSH1 0x0 DUP1 PUSH1 0x0 PUSH1 0x60 DUP5 DUP7 SUB SLT ISZERO PUSH2 0x1F9D JUMPI PUSH2 0x1F9C PUSH2 0x2841 JUMP JUMPDEST JUMPDEST PUSH1 0x0 DUP5 ADD CALLDATALOAD PUSH8 0xFFFFFFFFFFFFFFFF DUP2 GT ISZERO PUSH2 0x1FBB JUMPI PUSH2 0x1FBA PUSH2 0x283C JUMP JUMPDEST JUMPDEST PUSH2 0x1FC7 DUP7 DUP3 DUP8 ADD PUSH2 0x1CF3 JUMP JUMPDEST SWAP4 POP POP PUSH1 0x20 DUP5 ADD CALLDATALOAD PUSH8 0xFFFFFFFFFFFFFFFF DUP2 GT ISZERO PUSH2 0x1FE8 JUMPI PUSH2 0x1FE7 PUSH2 0x283C JUMP JUMPDEST JUMPDEST PUSH2 0x1FF4 DUP7 DUP3 DUP8 ADD PUSH2 0x1CF3 JUMP JUMPDEST SWAP3 POP POP PUSH1 0x40 DUP5 ADD CALLDATALOAD PUSH8 0xFFFFFFFFFFFFFFFF DUP2 GT ISZERO PUSH2 0x2015 JUMPI PUSH2 0x2014 PUSH2 0x283C JUMP JUMPDEST JUMPDEST PUSH2 0x2021 DUP7 DUP3 DUP8 ADD PUSH2 0x1CF3 JUMP JUMPDEST SWAP2 POP POP SWAP3 POP SWAP3 POP SWAP3 JUMP JUMPDEST PUSH1 0x0 PUSH1 0x20 DUP3 DUP5 SUB SLT ISZERO PUSH2 0x2041 JUMPI PUSH2 0x2040 PUSH2 0x2841 JUMP JUMPDEST JUMPDEST PUSH1 0x0 PUSH2 0x204F DUP5 DUP3 DUP6 ADD PUSH2 0x1D21 JUMP JUMPDEST SWAP2 POP POP SWAP3 SWAP2 POP POP JUMP JUMPDEST PUSH2 0x2061 DUP2 PUSH2 0x2599 JUMP JUMPDEST DUP3 MSTORE POP POP JUMP JUMPDEST PUSH2 0x2070 DUP2 PUSH2 0x25AB JUMP JUMPDEST DUP3 MSTORE POP POP JUMP JUMPDEST PUSH1 0x0 PUSH2 0x2081 DUP3 PUSH2 0x24F3 JUMP JUMPDEST PUSH2 0x208B DUP2 DUP6 PUSH2 0x24FE JUMP JUMPDEST SWAP4 POP PUSH2 0x209B DUP2 DUP6 PUSH1 0x20 DUP7 ADD PUSH2 0x2600 JUMP JUMPDEST PUSH2 0x20A4 DUP2 PUSH2 0x2846 JUMP JUMPDEST DUP5 ADD SWAP2 POP POP SWAP3 SWAP2 POP POP JUMP JUMPDEST PUSH1 0x0 DUP2 SLOAD PUSH2 0x20BC DUP2 PUSH2 0x2633 JUMP JUMPDEST PUSH2 0x20C6 DUP2 DUP7 PUSH2 0x24FE JUMP JUMPDEST SWAP5 POP PUSH1 0x1 DUP3 AND PUSH1 0x0 DUP2 EQ PUSH2 0x20E1 JUMPI PUSH1 0x1 DUP2 EQ PUSH2 0x20F3 JUMPI PUSH2 0x2126 JUMP JUMPDEST PUSH1 0xFF NOT DUP4 AND DUP7 MSTORE PUSH1 0x20 DUP7 ADD SWAP4 POP PUSH2 0x2126 JUMP JUMPDEST PUSH2 0x20FC DUP6 PUSH2 0x24DE JUMP JUMPDEST PUSH1 0x0 JUMPDEST DUP4 DUP2 LT ISZERO PUSH2 0x211E JUMPI DUP2 SLOAD DUP2 DUP10 ADD MSTORE PUSH1 0x1 DUP3 ADD SWAP2 POP PUSH1 0x20 DUP2 ADD SWAP1 POP PUSH2 0x20FF JUMP JUMPDEST DUP1 DUP9 ADD SWAP6 POP POP POP JUMPDEST POP POP POP SWAP3 SWAP2 POP POP JUMP JUMPDEST PUSH1 0x0 PUSH2 0x213C PUSH1 0x28 DUP4 PUSH2 0x24FE JUMP JUMPDEST SWAP2 POP PUSH2 0x2147 DUP3 PUSH2 0x2857 JUMP JUMPDEST PUSH1 0x40 DUP3 ADD SWAP1 POP SWAP2 SWAP1 POP JUMP JUMPDEST PUSH1 0x0 PUSH2 0x215F PUSH1 0x26 DUP4 PUSH2 0x24FE JUMP JUMPDEST SWAP2 POP PUSH2 0x216A DUP3 PUSH2 0x28A6 JUMP JUMPDEST PUSH1 0x40 DUP3 ADD SWAP1 POP SWAP2 SWAP1 POP JUMP JUMPDEST PUSH1 0x0 PUSH2 0x2182 PUSH1 0x32 DUP4 PUSH2 0x24FE JUMP JUMPDEST SWAP2 POP PUSH2 0x218D DUP3 PUSH2 0x28F5 JUMP JUMPDEST PUSH1 0x40 DUP3 ADD SWAP1 POP SWAP2 SWAP1 POP JUMP JUMPDEST PUSH1 0x0 PUSH2 0x21A5 PUSH1 0x20 DUP4 PUSH2 0x24FE JUMP JUMPDEST SWAP2 POP PUSH2 0x21B0 DUP3 PUSH2 0x2944 JUMP JUMPDEST PUSH1 0x20 DUP3 ADD SWAP1 POP SWAP2 SWAP1 POP JUMP JUMPDEST PUSH1 0x0 PUSH2 0x21C8 PUSH1 0x15 DUP4 PUSH2 0x24FE JUMP JUMPDEST SWAP2 POP PUSH2 0x21D3 DUP3 PUSH2 0x296D JUMP JUMPDEST PUSH1 0x20 DUP3 ADD SWAP1 POP SWAP2 SWAP1 POP JUMP JUMPDEST PUSH2 0x21E7 DUP2 PUSH2 0x25D7 JUMP JUMPDEST DUP3 MSTORE POP POP JUMP JUMPDEST PUSH2 0x21FE PUSH2 0x21F9 DUP3 PUSH2 0x25D7 JUMP JUMPDEST PUSH2 0x270C JUMP JUMPDEST DUP3 MSTORE POP POP JUMP JUMPDEST PUSH2 0x220D DUP2 PUSH2 0x25E1 JUMP JUMPDEST DUP3 MSTORE POP POP JUMP JUMPDEST PUSH1 0x0 PUSH2 0x221F DUP3 DUP7 PUSH2 0x21ED JUMP JUMPDEST PUSH1 0x20 DUP3 ADD SWAP2 POP PUSH2 0x222F DUP3 DUP6 PUSH2 0x21ED JUMP JUMPDEST PUSH1 0x20 DUP3 ADD SWAP2 POP PUSH2 0x223F DUP3 DUP5 PUSH2 0x21ED JUMP JUMPDEST PUSH1 0x20 DUP3 ADD SWAP2 POP DUP2 SWAP1 POP SWAP5 SWAP4 POP POP POP POP JUMP JUMPDEST PUSH1 0x0 PUSH1 0x20 DUP3 ADD SWAP1 POP PUSH2 0x2265 PUSH1 0x0 DUP4 ADD DUP5 PUSH2 0x2058 JUMP JUMPDEST SWAP3 SWAP2 POP POP JUMP JUMPDEST PUSH1 0x0 PUSH2 0x100 DUP3 ADD SWAP1 POP PUSH2 0x2281 PUSH1 0x0 DUP4 ADD DUP12 PUSH2 0x2058 JUMP JUMPDEST DUP2 DUP2 SUB PUSH1 0x20 DUP4 ADD MSTORE PUSH2 0x2293 DUP2 DUP11 PUSH2 0x2076 JUMP JUMPDEST SWAP1 POP DUP2 DUP2 SUB PUSH1 0x40 DUP4 ADD MSTORE PUSH2 0x22A7 DUP2 DUP10 PUSH2 0x2076 JUMP JUMPDEST SWAP1 POP DUP2 DUP2 SUB PUSH1 0x60 DUP4 ADD MSTORE PUSH2 0x22BB DUP2 DUP9 PUSH2 0x2076 JUMP JUMPDEST SWAP1 POP PUSH2 0x22CA PUSH1 0x80 DUP4 ADD DUP8 PUSH2 0x21DE JUMP JUMPDEST PUSH2 0x22D7 PUSH1 0xA0 DUP4 ADD DUP7 PUSH2 0x21DE JUMP JUMPDEST PUSH2 0x22E4 PUSH1 0xC0 DUP4 ADD DUP6 PUSH2 0x21DE JUMP JUMPDEST PUSH2 0x22F1 PUSH1 0xE0 DUP4 ADD DUP5 PUSH2 0x2204 JUMP JUMPDEST SWAP10 SWAP9 POP POP POP POP POP POP POP POP POP JUMP JUMPDEST PUSH1 0x0 PUSH1 0x20 DUP3 ADD SWAP1 POP PUSH2 0x2313 PUSH1 0x0 DUP4 ADD DUP5 PUSH2 0x2067 JUMP JUMPDEST SWAP3 SWAP2 POP POP JUMP JUMPDEST PUSH1 0x0 PUSH1 0x20 DUP3 ADD SWAP1 POP DUP2 DUP2 SUB PUSH1 0x0 DUP4 ADD MSTORE PUSH2 0x2333 DUP2 DUP5 PUSH2 0x2076 JUMP JUMPDEST SWAP1 POP SWAP3 SWAP2 POP POP JUMP JUMPDEST PUSH1 0x0 PUSH1 0xA0 DUP3 ADD SWAP1 POP DUP2 DUP2 SUB PUSH1 0x0 DUP4 ADD MSTORE PUSH2 0x2355 DUP2 DUP9 PUSH2 0x20AF JUMP JUMPDEST SWAP1 POP DUP2 DUP2 SUB PUSH1 0x20 DUP4 ADD MSTORE PUSH2 0x2369 DUP2 DUP8 PUSH2 0x20AF JUMP JUMPDEST SWAP1 POP PUSH2 0x2378 PUSH1 0x40 DUP4 ADD DUP7 PUSH2 0x2204 JUMP JUMPDEST PUSH2 0x2385 PUSH1 0x60 DUP4 ADD DUP6 PUSH2 0x21DE JUMP JUMPDEST PUSH2 0x2392 PUSH1 0x80 DUP4 ADD DUP5 PUSH2 0x21DE JUMP JUMPDEST SWAP7 SWAP6 POP POP POP POP POP POP JUMP JUMPDEST PUSH1 0x0 PUSH1 0x20 DUP3 ADD SWAP1 POP DUP2 DUP2 SUB PUSH1 0x0 DUP4 ADD MSTORE PUSH2 0x23B5 DUP2 PUSH2 0x212F JUMP JUMPDEST SWAP1 POP SWAP2 SWAP1 POP JUMP JUMPDEST PUSH1 0x0 PUSH1 0x20 DUP3 ADD SWAP1 POP DUP2 DUP2 SUB PUSH1 0x0 DUP4 ADD MSTORE PUSH2 0x23D5 DUP2 PUSH2 0x2152 JUMP JUMPDEST SWAP1 POP SWAP2 SWAP1 POP JUMP JUMPDEST PUSH1 0x0 PUSH1 0x20 DUP3 ADD SWAP1 POP DUP2 DUP2 SUB PUSH1 0x0 DUP4 ADD MSTORE PUSH2 0x23F5 DUP2 PUSH2 0x2175 JUMP JUMPDEST SWAP1 POP SWAP2 SWAP1 POP JUMP JUMPDEST PUSH1 0x0 PUSH1 0x20 DUP3 ADD SWAP1 POP DUP2 DUP2 SUB PUSH1 0x0 DUP4 ADD MSTORE PUSH2 0x2415 DUP2 PUSH2 0x2198 JUMP JUMPDEST SWAP1 POP SWAP2 SWAP1 POP JUMP JUMPDEST PUSH1 0x0 PUSH1 0x20 DUP3 ADD SWAP1 POP DUP2 DUP2 SUB PUSH1 0x0 DUP4 ADD MSTORE PUSH2 0x2435 DUP2 PUSH2 0x21BB JUMP JUMPDEST SWAP1 POP SWAP2 SWAP1 POP JUMP JUMPDEST PUSH1 0x0 PUSH1 0x20 DUP3 ADD SWAP1 POP PUSH2 0x2451 PUSH1 0x0 DUP4 ADD DUP5 PUSH2 0x21DE JUMP JUMPDEST SWAP3 SWAP2 POP POP JUMP JUMPDEST PUSH1 0x0 PUSH2 0x2461 PUSH2 0x2472 JUMP JUMPDEST SWAP1 POP PUSH2 0x246D DUP3 DUP3 PUSH2 0x2665 JUMP JUMPDEST SWAP2 SWAP1 POP JUMP JUMPDEST PUSH1 0x0 PUSH1 0x40 MLOAD SWAP1 POP SWAP1 JUMP JUMPDEST PUSH1 0x0 PUSH8 0xFFFFFFFFFFFFFFFF DUP3 GT ISZERO PUSH2 0x2497 JUMPI PUSH2 0x2496 PUSH2 0x2803 JUMP JUMPDEST JUMPDEST PUSH2 0x24A0 DUP3 PUSH2 0x2846 JUMP JUMPDEST SWAP1 POP PUSH1 0x20 DUP2 ADD SWAP1 POP SWAP2 SWAP1 POP JUMP JUMPDEST PUSH1 0x0 PUSH8 0xFFFFFFFFFFFFFFFF DUP3 GT ISZERO PUSH2 0x24C8 JUMPI PUSH2 0x24C7 PUSH2 0x2803 JUMP JUMPDEST JUMPDEST PUSH2 0x24D1 DUP3 PUSH2 0x2846 JUMP JUMPDEST SWAP1 POP PUSH1 0x20 DUP2 ADD SWAP1 POP SWAP2 SWAP1 POP JUMP JUMPDEST PUSH1 0x0 DUP2 SWAP1 POP DUP2 PUSH1 0x0 MSTORE PUSH1 0x20 PUSH1 0x0 KECCAK256 SWAP1 POP SWAP2 SWAP1 POP JUMP JUMPDEST PUSH1 0x0 DUP2 MLOAD SWAP1 POP SWAP2 SWAP1 POP JUMP JUMPDEST PUSH1 0x0 DUP3 DUP3 MSTORE PUSH1 0x20 DUP3 ADD SWAP1 POP SWAP3 SWAP2 POP POP JUMP JUMPDEST PUSH1 0x0 PUSH2 0x251A DUP3 PUSH2 0x25D7 JUMP JUMPDEST SWAP2 POP PUSH2 0x2525 DUP4 PUSH2 0x25D7 JUMP JUMPDEST SWAP3 POP DUP3 PUSH32 0xFFFFFFFFFFFFFFFFFFFFFFFFFFFFFFFFFFFFFFFFFFFFFFFFFFFFFFFFFFFFFFFF SUB DUP3 GT ISZERO PUSH2 0x255A JUMPI PUSH2 0x2559 PUSH2 0x2747 JUMP JUMPDEST JUMPDEST DUP3 DUP3 ADD SWAP1 POP SWAP3 SWAP2 POP POP JUMP JUMPDEST PUSH1 0x0 PUSH2 0x2570 DUP3 PUSH2 0x25D7 JUMP JUMPDEST SWAP2 POP PUSH2 0x257B DUP4 PUSH2 0x25D7 JUMP JUMPDEST SWAP3 POP DUP3 DUP3 LT ISZERO PUSH2 0x258E JUMPI PUSH2 0x258D PUSH2 0x2747 JUMP JUMPDEST JUMPDEST DUP3 DUP3 SUB SWAP1 POP SWAP3 SWAP2 POP POP JUMP JUMPDEST PUSH1 0x0 PUSH2 0x25A4 DUP3 PUSH2 0x25B7 JUMP JUMPDEST SWAP1 POP SWAP2 SWAP1 POP JUMP JUMPDEST PUSH1 0x0 DUP2 ISZERO ISZERO SWAP1 POP SWAP2 SWAP1 POP JUMP JUMPDEST PUSH1 0x0 PUSH20 0xFFFFFFFFFFFFFFFFFFFFFFFFFFFFFFFFFFFFFFFF DUP3 AND SWAP1 POP SWAP2 SWAP1 POP JUMP JUMPDEST PUSH1 0x0 DUP2 SWAP1 POP SWAP2 SWAP1 POP JUMP JUMPDEST PUSH1 0x0 PUSH4 0xFFFFFFFF DUP3 AND SWAP1 POP SWAP2 SWAP1 POP JUMP JUMPDEST DUP3 DUP2 DUP4 CALLDATACOPY PUSH1 0x0 DUP4 DUP4 ADD MSTORE POP POP POP JUMP JUMPDEST PUSH1 0x0 JUMPDEST DUP4 DUP2 LT ISZERO PUSH2 0x261E JUMPI DUP1 DUP3 ADD MLOAD DUP2 DUP5 ADD MSTORE PUSH1 0x20 DUP2 ADD SWAP1 POP PUSH2 0x2603 JUMP JUMPDEST DUP4 DUP2 GT ISZERO PUSH2 0x262D JUMPI PUSH1 0x0 DUP5 DUP5 ADD MSTORE JUMPDEST POP POP POP POP JUMP JUMPDEST PUSH1 0x0 PUSH1 0x2 DUP3 DIV SWAP1 POP PUSH1 0x1 DUP3 AND DUP1 PUSH2 0x264B JUMPI PUSH1 0x7F DUP3 AND SWAP2 POP JUMPDEST PUSH1 0x20 DUP3 LT DUP2 EQ ISZERO PUSH2 0x265F JUMPI PUSH2 0x265E PUSH2 0x27A5 JUMP JUMPDEST JUMPDEST POP SWAP2 SWAP1 POP JUMP JUMPDEST PUSH2 0x266E DUP3 PUSH2 0x2846 JUMP JUMPDEST DUP2 ADD DUP2 DUP2 LT PUSH8 0xFFFFFFFFFFFFFFFF DUP3 GT OR ISZERO PUSH2 0x268D JUMPI PUSH2 0x268C PUSH2 0x2803 JUMP JUMPDEST JUMPDEST DUP1 PUSH1 0x40 MSTORE POP POP POP JUMP JUMPDEST PUSH1 0x0 PUSH2 0x26A1 DUP3 PUSH2 0x25D7 JUMP JUMPDEST SWAP2 POP PUSH32 0xFFFFFFFFFFFFFFFFFFFFFFFFFFFFFFFFFFFFFFFFFFFFFFFFFFFFFFFFFFFFFFFF DUP3 EQ ISZERO PUSH2 0x26D4 JUMPI PUSH2 0x26D3 PUSH2 0x2747 JUMP JUMPDEST JUMPDEST PUSH1 0x1 DUP3 ADD SWAP1 POP SWAP2 SWAP1 POP JUMP JUMPDEST PUSH1 0x0 PUSH2 0x26EA DUP3 PUSH2 0x25E1 JUMP JUMPDEST SWAP2 POP PUSH4 0xFFFFFFFF DUP3 EQ ISZERO PUSH2 0x2701 JUMPI PUSH2 0x2700 PUSH2 0x2747 JUMP JUMPDEST JUMPDEST PUSH1 0x1 DUP3 ADD SWAP1 POP SWAP2 SWAP1 POP JUMP JUMPDEST PUSH1 0x0 DUP2 SWAP1 POP SWAP2 SWAP1 POP JUMP JUMPDEST PUSH1 0x0 PUSH2 0x2721 DUP3 PUSH2 0x25D7 JUMP JUMPDEST SWAP2 POP PUSH2 0x272C DUP4 PUSH2 0x25D7 JUMP JUMPDEST SWAP3 POP DUP3 PUSH2 0x273C JUMPI PUSH2 0x273B PUSH2 0x2776 JUMP JUMPDEST JUMPDEST DUP3 DUP3 MOD SWAP1 POP SWAP3 SWAP2 POP POP JUMP JUMPDEST PUSH32 0x4E487B7100000000000000000000000000000000000000000000000000000000 PUSH1 0x0 MSTORE PUSH1 0x11 PUSH1 0x4 MSTORE PUSH1 0x24 PUSH1 0x0 REVERT JUMPDEST PUSH32 0x4E487B7100000000000000000000000000000000000000000000000000000000 PUSH1 0x0 MSTORE PUSH1 0x12 PUSH1 0x4 MSTORE PUSH1 0x24 PUSH1 0x0 REVERT JUMPDEST PUSH32 0x4E487B7100000000000000000000000000000000000000000000000000000000 PUSH1 0x0 MSTORE PUSH1 0x22 PUSH1 0x4 MSTORE PUSH1 0x24 PUSH1 0x0 REVERT JUMPDEST PUSH32 0x4E487B7100000000000000000000000000000000000000000000000000000000 PUSH1 0x0 MSTORE PUSH1 0x32 PUSH1 0x4 MSTORE PUSH1 0x24 PUSH1 0x0 REVERT JUMPDEST PUSH32 0x4E487B7100000000000000000000000000000000000000000000000000000000 PUSH1 0x0 MSTORE PUSH1 0x41 PUSH1 0x4 MSTORE PUSH1 0x24 PUSH1 0x0 REVERT JUMPDEST PUSH1 0x0 DUP1 REVERT JUMPDEST PUSH1 0x0 DUP1 REVERT JUMPDEST PUSH1 0x0 DUP1 REVERT JUMPDEST PUSH1 0x0 DUP1 REVERT JUMPDEST PUSH1 0x0 PUSH1 0x1F NOT PUSH1 0x1F DUP4 ADD AND SWAP1 POP SWAP2 SWAP1 POP JUMP JUMPDEST PUSH32 0x536F6C6F2073652070756564652074656E657220756E20636F63686520706F72 PUSH1 0x0 DUP3 ADD MSTORE PUSH32 0x20706572736F6E61000000000000000000000000000000000000000000000000 PUSH1 0x20 DUP3 ADD MSTORE POP JUMP JUMPDEST PUSH32 0x4F776E61626C653A206E6577206F776E657220697320746865207A65726F2061 PUSH1 0x0 DUP3 ADD MSTORE PUSH32 0x6464726573730000000000000000000000000000000000000000000000000000 PUSH1 0x20 DUP3 ADD MSTORE POP JUMP JUMPDEST PUSH32 0x4E6F2068617920636F6368657320737566696369656E74657320706172612069 PUSH1 0x0 DUP3 ADD MSTORE PUSH32 0x6E696369617220756E6120636172726572610000000000000000000000000000 PUSH1 0x20 DUP3 ADD MSTORE POP JUMP JUMPDEST PUSH32 0x4F776E61626C653A2063616C6C6572206973206E6F7420746865206F776E6572 PUSH1 0x0 DUP3 ADD MSTORE POP JUMP JUMPDEST PUSH32 0x456C20636F6368652067616E61646F722065733A200000000000000000000000 PUSH1 0x0 DUP3 ADD MSTORE POP JUMP JUMPDEST PUSH2 0x299F DUP2 PUSH2 0x2599 JUMP JUMPDEST DUP2 EQ PUSH2 0x29AA JUMPI PUSH1 0x0 DUP1 REVERT JUMPDEST POP JUMP JUMPDEST PUSH2 0x29B6 DUP2 PUSH2 0x25AB JUMP JUMPDEST DUP2 EQ PUSH2 0x29C1 JUMPI PUSH1 0x0 DUP1 REVERT JUMPDEST POP JUMP JUMPDEST PUSH2 0x29CD DUP2 PUSH2 0x25D7 JUMP JUMPDEST DUP2 EQ PUSH2 0x29D8 JUMPI PUSH1 0x0 DUP1 REVERT JUMPDEST POP JUMP INVALID LOG2 PUSH5 0x6970667358 0x22 SLT KECCAK256 SWAP16 0xE6 0x2B 0xA9 CALLCODE DUP1 0x26 PUSH24 0x883538A11BC9930F09AB92CBE6167F7E9D8F5CAE66575955 PUSH5 0x736F6C6343 STOP ADDMOD SMOD STOP CALLER "
				},
				"gasEstimates": {
					"creation": {
						"codeDepositCost": "2153800",
						"executionCost": "infinite",
						"totalCost": "infinite"
					},
					"external": {
						"Apostar(uint256)": "infinite",
						"_owner()": "2533",
						"anadirCoche(string,string,string)": "infinite",
						"approve(address,uint256)": "672",
						"balanceOf(address)": "2864",
						"cocheDePropietario(uint256)": "2906",
						"comprarCoche(address,string,string)": "infinite",
						"getApproved(uint256)": "689",
						"isApprovedForAll(address,address)": "infinite",
						"listaCoches(uint256)": "infinite",
						"numeroCochesPersona(address)": "2904",
						"owner()": "2611",
						"ownerOf(uint256)": "710",
						"renounceOwnership()": "30419",
						"safeTransferFrom(address,address,uint256)": "infinite",
						"safeTransferFrom(address,address,uint256,bytes)": "infinite",
						"setApprovalForAll(address,bool)": "745",
						"subirDeNivel(address)": "infinite",
						"transferFrom(address,address,uint256)": "infinite",
						"transferOwnership(address)": "30855",
						"verCochePropietario(address)": "infinite"
					}
				},
				"methodIdentifiers": {
					"Apostar(uint256)": "6b6f0494",
					"_owner()": "b2bdfa7b",
					"anadirCoche(string,string,string)": "2458c544",
					"approve(address,uint256)": "095ea7b3",
					"balanceOf(address)": "70a08231",
					"cocheDePropietario(uint256)": "858b0554",
					"comprarCoche(address,string,string)": "049a5f65",
					"getApproved(uint256)": "081812fc",
					"isApprovedForAll(address,address)": "e985e9c5",
					"listaCoches(uint256)": "d735573d",
					"numeroCochesPersona(address)": "1c6743e4",
					"owner()": "8da5cb5b",
					"ownerOf(uint256)": "6352211e",
					"renounceOwnership()": "715018a6",
					"safeTransferFrom(address,address,uint256)": "42842e0e",
					"safeTransferFrom(address,address,uint256,bytes)": "b88d4fde",
					"setApprovalForAll(address,bool)": "a22cb465",
					"subirDeNivel(address)": "6a7d1816",
					"transferFrom(address,address,uint256)": "23b872dd",
					"transferOwnership(address)": "f2fde38b",
					"verCochePropietario(address)": "e172fca8"
				}
			},
			"storageLayout": {
				"storage": [
					{
						"astId": 215,
						"contract": "contracts/CarreraCoches/cocheToken.sol:CocheToken",
						"label": "_owner",
						"offset": 0,
						"slot": "0",
						"type": "t_address"
					},
					{
						"astId": 337,
						"contract": "contracts/CarreraCoches/cocheToken.sol:CocheToken",
						"label": "randNonce",
						"offset": 0,
						"slot": "1",
						"type": "t_uint256"
					},
					{
						"astId": 340,
						"contract": "contracts/CarreraCoches/cocheToken.sol:CocheToken",
						"label": "contador",
						"offset": 0,
						"slot": "2",
						"type": "t_uint256"
					},
					{
						"astId": 343,
						"contract": "contracts/CarreraCoches/cocheToken.sol:CocheToken",
						"label": "cooldown",
						"offset": 0,
						"slot": "3",
						"type": "t_uint256"
					},
					{
						"astId": 346,
						"contract": "contracts/CarreraCoches/cocheToken.sol:CocheToken",
						"label": "subirNivel",
						"offset": 0,
						"slot": "4",
						"type": "t_uint256"
					},
					{
						"astId": 349,
						"contract": "contracts/CarreraCoches/cocheToken.sol:CocheToken",
						"label": "cambiarCocheV",
						"offset": 0,
						"slot": "5",
						"type": "t_uint256"
					},
					{
						"astId": 353,
						"contract": "contracts/CarreraCoches/cocheToken.sol:CocheToken",
						"label": "listaCoches",
						"offset": 0,
						"slot": "6",
						"type": "t_array(t_struct(Coche)334_storage)dyn_storage"
					},
					{
						"astId": 383,
						"contract": "contracts/CarreraCoches/cocheToken.sol:CocheToken",
						"label": "cocheDePropietario",
						"offset": 0,
						"slot": "7",
						"type": "t_mapping(t_uint256,t_address)"
					},
					{
						"astId": 387,
						"contract": "contracts/CarreraCoches/cocheToken.sol:CocheToken",
						"label": "numeroCochesPersona",
						"offset": 0,
						"slot": "8",
						"type": "t_mapping(t_address,t_uint256)"
					},
					{
						"astId": 11,
						"contract": "contracts/CarreraCoches/cocheToken.sol:CocheToken",
						"label": "confirmarTransferencia",
						"offset": 0,
						"slot": "9",
						"type": "t_mapping(t_uint256,t_address)"
					}
				],
				"types": {
					"t_address": {
						"encoding": "inplace",
						"label": "address",
						"numberOfBytes": "20"
					},
					"t_array(t_struct(Coche)334_storage)dyn_storage": {
						"base": "t_struct(Coche)334_storage",
						"encoding": "dynamic_array",
						"label": "struct CarreraCoches.Coche[]",
						"numberOfBytes": "32"
					},
					"t_mapping(t_address,t_uint256)": {
						"encoding": "mapping",
						"key": "t_address",
						"label": "mapping(address => uint256)",
						"numberOfBytes": "32",
						"value": "t_uint256"
					},
					"t_mapping(t_uint256,t_address)": {
						"encoding": "mapping",
						"key": "t_uint256",
						"label": "mapping(uint256 => address)",
						"numberOfBytes": "32",
						"value": "t_address"
					},
					"t_string_storage": {
						"encoding": "bytes",
						"label": "string",
						"numberOfBytes": "32"
					},
					"t_struct(Coche)334_storage": {
						"encoding": "inplace",
						"label": "struct CarreraCoches.Coche",
						"members": [
							{
								"astId": 319,
								"contract": "contracts/CarreraCoches/cocheToken.sol:CocheToken",
								"label": "idPiloto",
								"offset": 0,
								"slot": "0",
								"type": "t_address"
							},
							{
								"astId": 321,
								"contract": "contracts/CarreraCoches/cocheToken.sol:CocheToken",
								"label": "modelo",
								"offset": 0,
								"slot": "1",
								"type": "t_string_storage"
							},
							{
								"astId": 323,
								"contract": "contracts/CarreraCoches/cocheToken.sol:CocheToken",
								"label": "marca",
								"offset": 0,
								"slot": "2",
								"type": "t_string_storage"
							},
							{
								"astId": 325,
								"contract": "contracts/CarreraCoches/cocheToken.sol:CocheToken",
								"label": "nombrePiloto",
								"offset": 0,
								"slot": "3",
								"type": "t_string_storage"
							},
							{
								"astId": 327,
								"contract": "contracts/CarreraCoches/cocheToken.sol:CocheToken",
								"label": "carrerasGanadas",
								"offset": 0,
								"slot": "4",
								"type": "t_uint256"
							},
							{
								"astId": 329,
								"contract": "contracts/CarreraCoches/cocheToken.sol:CocheToken",
								"label": "carrerasTotales",
								"offset": 0,
								"slot": "5",
								"type": "t_uint256"
							},
							{
								"astId": 331,
								"contract": "contracts/CarreraCoches/cocheToken.sol:CocheToken",
								"label": "tiempoEspera",
								"offset": 0,
								"slot": "6",
								"type": "t_uint256"
							},
							{
								"astId": 333,
								"contract": "contracts/CarreraCoches/cocheToken.sol:CocheToken",
								"label": "nivel",
								"offset": 0,
								"slot": "7",
								"type": "t_uint32"
							}
						],
						"numberOfBytes": "256"
					},
					"t_uint256": {
						"encoding": "inplace",
						"label": "uint256",
						"numberOfBytes": "32"
					},
					"t_uint32": {
						"encoding": "inplace",
						"label": "uint32",
						"numberOfBytes": "4"
					}
				}
			},
			"userdoc": {
				"kind": "user",
				"methods": {},
				"version": 1
			}
		}
	}
}