{
	"contracts/CarreraCoches/principal.sol": {
		"CarreraCoches": {
			"abi": [
				{
					"anonymous": false,
					"inputs": [
						{
							"indexed": true,
							"internalType": "address",
							"name": "previousOwner",
							"type": "address"
						},
						{
							"indexed": true,
							"internalType": "address",
							"name": "newOwner",
							"type": "address"
						}
					],
					"name": "OwnershipTransferred",
					"type": "event"
				},
				{
					"anonymous": false,
					"inputs": [
						{
							"indexed": false,
							"internalType": "string",
							"name": "mo",
							"type": "string"
						},
						{
							"indexed": false,
							"internalType": "string",
							"name": "ma",
							"type": "string"
						},
						{
							"indexed": false,
							"internalType": "uint32",
							"name": "niv",
							"type": "uint32"
						},
						{
							"indexed": false,
							"internalType": "uint256",
							"name": "carrGan",
							"type": "uint256"
						},
						{
							"indexed": false,
							"internalType": "uint256",
							"name": "carrTot",
							"type": "uint256"
						}
					],
					"name": "cochePropietario",
					"type": "event"
				},
				{
					"anonymous": false,
					"inputs": [
						{
							"indexed": false,
							"internalType": "uint256",
							"name": "compr",
							"type": "uint256"
						}
					],
					"name": "comprobar",
					"type": "event"
				},
				{
					"anonymous": false,
					"inputs": [
						{
							"indexed": false,
							"internalType": "string",
							"name": "ms",
							"type": "string"
						}
					],
					"name": "confirmacionDepositoLleno",
					"type": "event"
				},
				{
					"anonymous": false,
					"inputs": [
						{
							"indexed": false,
							"internalType": "string",
							"name": "ms",
							"type": "string"
						},
						{
							"indexed": false,
							"internalType": "uint256",
							"name": "res",
							"type": "uint256"
						}
					],
					"name": "mostrarResultado",
					"type": "event"
				},
				{
					"inputs": [
						{
							"internalType": "uint256",
							"name": "dineroApostar",
							"type": "uint256"
						}
					],
					"name": "Apostar",
					"outputs": [
						{
							"internalType": "string",
							"name": "",
							"type": "string"
						}
					],
					"stateMutability": "payable",
					"type": "function"
				},
				{
					"inputs": [],
					"name": "_owner",
					"outputs": [
						{
							"internalType": "address",
							"name": "",
							"type": "address"
						}
					],
					"stateMutability": "view",
					"type": "function"
				},
				{
					"inputs": [
						{
							"internalType": "string",
							"name": "_modelo",
							"type": "string"
						},
						{
							"internalType": "string",
							"name": "_marca",
							"type": "string"
						},
						{
							"internalType": "string",
							"name": "_nombrePiloto",
							"type": "string"
						}
					],
					"name": "anadirCoche",
					"outputs": [
						{
							"internalType": "uint256",
							"name": "",
							"type": "uint256"
						}
					],
					"stateMutability": "nonpayable",
					"type": "function"
				},
				{
					"inputs": [
						{
							"internalType": "uint256",
							"name": "",
							"type": "uint256"
						}
					],
					"name": "cocheDePropietario",
					"outputs": [
						{
							"internalType": "address",
							"name": "",
							"type": "address"
						}
					],
					"stateMutability": "view",
					"type": "function"
				},
				{
					"inputs": [
						{
							"internalType": "address",
							"name": "_address",
							"type": "address"
						},
						{
							"internalType": "string",
							"name": "_newModelo",
							"type": "string"
						},
						{
							"internalType": "string",
							"name": "_newMarca",
							"type": "string"
						}
					],
					"name": "comprarCoche",
					"outputs": [
						{
							"internalType": "string",
							"name": "",
							"type": "string"
						}
					],
					"stateMutability": "payable",
					"type": "function"
				},
				{
					"inputs": [
						{
							"internalType": "uint256",
							"name": "",
							"type": "uint256"
						}
					],
					"name": "listaCoches",
					"outputs": [
						{
							"internalType": "address",
							"name": "idPiloto",
							"type": "address"
						},
						{
							"internalType": "string",
							"name": "modelo",
							"type": "string"
						},
						{
							"internalType": "string",
							"name": "marca",
							"type": "string"
						},
						{
							"internalType": "string",
							"name": "nombrePiloto",
							"type": "string"
						},
						{
							"internalType": "uint256",
							"name": "carrerasGanadas",
							"type": "uint256"
						},
						{
							"internalType": "uint256",
							"name": "carrerasTotales",
							"type": "uint256"
						},
						{
							"internalType": "uint256",
							"name": "tiempoEspera",
							"type": "uint256"
						},
						{
							"internalType": "uint32",
							"name": "nivel",
							"type": "uint32"
						}
					],
					"stateMutability": "view",
					"type": "function"
				},
				{
					"inputs": [
						{
							"internalType": "address",
							"name": "",
							"type": "address"
						}
					],
					"name": "numeroCochesPersona",
					"outputs": [
						{
							"internalType": "uint256",
							"name": "",
							"type": "uint256"
						}
					],
					"stateMutability": "view",
					"type": "function"
				},
				{
					"inputs": [],
					"name": "owner",
					"outputs": [
						{
							"internalType": "address",
							"name": "",
							"type": "address"
						}
					],
					"stateMutability": "view",
					"type": "function"
				},
				{
					"inputs": [],
					"name": "renounceOwnership",
					"outputs": [],
					"stateMutability": "nonpayable",
					"type": "function"
				},
				{
					"inputs": [
						{
							"internalType": "address",
							"name": "_propietario",
							"type": "address"
						}
					],
					"name": "subirDeNivel",
					"outputs": [
						{
							"internalType": "string",
							"name": "",
							"type": "string"
						}
					],
					"stateMutability": "payable",
					"type": "function"
				},
				{
					"inputs": [
						{
							"internalType": "address",
							"name": "newOwner",
							"type": "address"
						}
					],
					"name": "transferOwnership",
					"outputs": [],
					"stateMutability": "nonpayable",
					"type": "function"
				},
				{
					"inputs": [
						{
							"internalType": "address",
							"name": "_propietario",
							"type": "address"
						}
					],
					"name": "verCochePropietario",
					"outputs": [],
					"stateMutability": "nonpayable",
					"type": "function"
				}
			],
			"devdoc": {
				"kind": "dev",
				"methods": {
					"owner()": {
						"details": "Returns the address of the current owner."
					},
					"renounceOwnership()": {
						"details": "Leaves the contract without owner. It will not be possible to call `onlyOwner` functions anymore. Can only be called by the current owner. NOTE: Renouncing ownership will leave the contract without an owner, thereby removing any functionality that is only available to the owner."
					},
					"transferOwnership(address)": {
						"details": "Transfers ownership of the contract to a new account (`newOwner`). Can only be called by the current owner."
					}
				},
				"version": 1
			},
			"evm": {
				"assembly": "    /* \"contracts/CarreraCoches/principal.sol\":54:7472  contract CarreraCoches is Ownable {\r... */\n  mstore(0x40, 0x80)\n    /* \"contracts/CarreraCoches/principal.sol\":370:371  0 */\n  0x00\n    /* \"contracts/CarreraCoches/principal.sol\":353:371  uint randNonce = 0 */\n  0x01\n  sstore\n    /* \"contracts/CarreraCoches/principal.sol\":494:495  0 */\n  0x00\n    /* \"contracts/CarreraCoches/principal.sol\":478:495  uint contador = 0 */\n  0x02\n  sstore\n    /* \"contracts/CarreraCoches/principal.sol\":518:528  60 seconds */\n  0x3c\n    /* \"contracts/CarreraCoches/principal.sol\":502:528  uint cooldown = 60 seconds */\n  0x03\n  sstore\n    /* \"contracts/CarreraCoches/principal.sol\":553:560  1 ether */\n  0x0de0b6b3a7640000\n    /* \"contracts/CarreraCoches/principal.sol\":535:560  uint subirNivel = 1 ether */\n  0x04\n  sstore\n    /* \"contracts/CarreraCoches/principal.sol\":588:595  2 ether */\n  0x1bc16d674ec80000\n    /* \"contracts/CarreraCoches/principal.sol\":567:595  uint cambiarCocheV = 2 ether */\n  0x05\n  sstore\n    /* \"contracts/CarreraCoches/principal.sol\":54:7472  contract CarreraCoches is Ownable {\r... */\n  callvalue\n  dup1\n  iszero\n  tag_1\n  jumpi\n  0x00\n  dup1\n  revert\ntag_1:\n  pop\n    /* \"contracts/CarreraCoches/ownable.sol\":947:979  _transferOwnership(_msgSender()) */\n  tag_4\n    /* \"contracts/CarreraCoches/ownable.sol\":966:978  _msgSender() */\n  tag_5\n    /* \"contracts/CarreraCoches/ownable.sol\":966:976  _msgSender */\n  shl(0x20, tag_6)\n    /* \"contracts/CarreraCoches/ownable.sol\":966:978  _msgSender() */\n  0x20\n  shr\n  jump\t// in\ntag_5:\n    /* \"contracts/CarreraCoches/ownable.sol\":947:965  _transferOwnership */\n  shl(0x20, tag_7)\n    /* \"contracts/CarreraCoches/ownable.sol\":947:979  _transferOwnership(_msgSender()) */\n  0x20\n  shr\n  jump\t// in\ntag_4:\n    /* \"contracts/CarreraCoches/principal.sol\":54:7472  contract CarreraCoches is Ownable {\r... */\n  jump(tag_8)\n    /* \"contracts/CarreraCoches/utils/Context.sol\":656:754  function _msgSender() internal view virtual returns (address) {\r... */\ntag_6:\n    /* \"contracts/CarreraCoches/utils/Context.sol\":709:716  address */\n  0x00\n    /* \"contracts/CarreraCoches/utils/Context.sol\":736:746  msg.sender */\n  caller\n    /* \"contracts/CarreraCoches/utils/Context.sol\":729:746  return msg.sender */\n  swap1\n  pop\n    /* \"contracts/CarreraCoches/utils/Context.sol\":656:754  function _msgSender() internal view virtual returns (address) {\r... */\n  swap1\n  jump\t// out\n    /* \"contracts/CarreraCoches/ownable.sol\":2338:2529  function _transferOwnership(address newOwner) internal virtual {\r... */\ntag_7:\n    /* \"contracts/CarreraCoches/ownable.sol\":2412:2428  address oldOwner */\n  0x00\n    /* \"contracts/CarreraCoches/ownable.sol\":2431:2437  _owner */\n  dup1\n  0x00\n  swap1\n  sload\n  swap1\n  0x0100\n  exp\n  swap1\n  div\n  0xffffffffffffffffffffffffffffffffffffffff\n  and\n    /* \"contracts/CarreraCoches/ownable.sol\":2412:2437  address oldOwner = _owner */\n  swap1\n  pop\n    /* \"contracts/CarreraCoches/ownable.sol\":2457:2465  newOwner */\n  dup2\n    /* \"contracts/CarreraCoches/ownable.sol\":2448:2454  _owner */\n  0x00\n  dup1\n    /* \"contracts/CarreraCoches/ownable.sol\":2448:2465  _owner = newOwner */\n  0x0100\n  exp\n  dup2\n  sload\n  dup2\n  0xffffffffffffffffffffffffffffffffffffffff\n  mul\n  not\n  and\n  swap1\n  dup4\n  0xffffffffffffffffffffffffffffffffffffffff\n  and\n  mul\n  or\n  swap1\n  sstore\n  pop\n    /* \"contracts/CarreraCoches/ownable.sol\":2512:2520  newOwner */\n  dup2\n    /* \"contracts/CarreraCoches/ownable.sol\":2481:2521  OwnershipTransferred(oldOwner, newOwner) */\n  0xffffffffffffffffffffffffffffffffffffffff\n  and\n    /* \"contracts/CarreraCoches/ownable.sol\":2502:2510  oldOwner */\n  dup2\n    /* \"contracts/CarreraCoches/ownable.sol\":2481:2521  OwnershipTransferred(oldOwner, newOwner) */\n  0xffffffffffffffffffffffffffffffffffffffff\n  and\n  0x8be0079c531659141344cd1fd0a4f28419497f9722a3daafe3b4186f6b6457e0\n  mload(0x40)\n  mload(0x40)\n  dup1\n  swap2\n  sub\n  swap1\n  log3\n    /* \"contracts/CarreraCoches/ownable.sol\":2401:2529  {\r... */\n  pop\n    /* \"contracts/CarreraCoches/ownable.sol\":2338:2529  function _transferOwnership(address newOwner) internal virtual {\r... */\n  pop\n  jump\t// out\n    /* \"contracts/CarreraCoches/principal.sol\":54:7472  contract CarreraCoches is Ownable {\r... */\ntag_8:\n  dataSize(sub_0)\n  dup1\n  dataOffset(sub_0)\n  0x00\n  codecopy\n  0x00\n  return\nstop\n\nsub_0: assembly {\n        /* \"contracts/CarreraCoches/principal.sol\":54:7472  contract CarreraCoches is Ownable {\r... */\n      mstore(0x40, 0x80)\n      jumpi(tag_1, lt(calldatasize, 0x04))\n      shr(0xe0, calldataload(0x00))\n      dup1\n      0x858b0554\n      gt\n      tag_14\n      jumpi\n      dup1\n      0x858b0554\n      eq\n      tag_8\n      jumpi\n      dup1\n      0x8da5cb5b\n      eq\n      tag_9\n      jumpi\n      dup1\n      0xb2bdfa7b\n      eq\n      tag_10\n      jumpi\n      dup1\n      0xd735573d\n      eq\n      tag_11\n      jumpi\n      dup1\n      0xe172fca8\n      eq\n      tag_12\n      jumpi\n      dup1\n      0xf2fde38b\n      eq\n      tag_13\n      jumpi\n      jump(tag_1)\n    tag_14:\n      dup1\n      0x049a5f65\n      eq\n      tag_2\n      jumpi\n      dup1\n      0x1c6743e4\n      eq\n      tag_3\n      jumpi\n      dup1\n      0x2458c544\n      eq\n      tag_4\n      jumpi\n      dup1\n      0x6a7d1816\n      eq\n      tag_5\n      jumpi\n      dup1\n      0x6b6f0494\n      eq\n      tag_6\n      jumpi\n      dup1\n      0x715018a6\n      eq\n      tag_7\n      jumpi\n    tag_1:\n      0x00\n      dup1\n      revert\n        /* \"contracts/CarreraCoches/principal.sol\":3448:3910  function comprarCoche(address _address, string memory _newModelo, string memory _newMarca) external payable returns(string memory) {\r... */\n    tag_2:\n      tag_15\n      0x04\n      dup1\n      calldatasize\n      sub\n      dup2\n      add\n      swap1\n      tag_16\n      swap2\n      swap1\n      tag_17\n      jump\t// in\n    tag_16:\n      tag_18\n      jump\t// in\n    tag_15:\n      mload(0x40)\n      tag_19\n      swap2\n      swap1\n      tag_20\n      jump\t// in\n    tag_19:\n      mload(0x40)\n      dup1\n      swap2\n      sub\n      swap1\n      return\n        /* \"contracts/CarreraCoches/principal.sol\":929:981  mapping (address => uint) public numeroCochesPersona */\n    tag_3:\n      callvalue\n      dup1\n      iszero\n      tag_21\n      jumpi\n      0x00\n      dup1\n      revert\n    tag_21:\n      pop\n      tag_22\n      0x04\n      dup1\n      calldatasize\n      sub\n      dup2\n      add\n      swap1\n      tag_23\n      swap2\n      swap1\n      tag_24\n      jump\t// in\n    tag_23:\n      tag_25\n      jump\t// in\n    tag_22:\n      mload(0x40)\n      tag_26\n      swap2\n      swap1\n      tag_27\n      jump\t// in\n    tag_26:\n      mload(0x40)\n      dup1\n      swap2\n      sub\n      swap1\n      return\n        /* \"contracts/CarreraCoches/principal.sol\":1777:2217  function anadirCoche(string memory _modelo, string memory _marca, string memory _nombrePiloto) public restriccion returns (uint) {\r... */\n    tag_4:\n      callvalue\n      dup1\n      iszero\n      tag_28\n      jumpi\n      0x00\n      dup1\n      revert\n    tag_28:\n      pop\n      tag_29\n      0x04\n      dup1\n      calldatasize\n      sub\n      dup2\n      add\n      swap1\n      tag_30\n      swap2\n      swap1\n      tag_31\n      jump\t// in\n    tag_30:\n      tag_32\n      jump\t// in\n    tag_29:\n      mload(0x40)\n      tag_33\n      swap2\n      swap1\n      tag_27\n      jump\t// in\n    tag_33:\n      mload(0x40)\n      dup1\n      swap2\n      sub\n      swap1\n      return\n        /* \"contracts/CarreraCoches/principal.sol\":2586:2945  function subirDeNivel(address _propietario) external payable returns(string memory) {\r... */\n    tag_5:\n      tag_34\n      0x04\n      dup1\n      calldatasize\n      sub\n      dup2\n      add\n      swap1\n      tag_35\n      swap2\n      swap1\n      tag_24\n      jump\t// in\n    tag_35:\n      tag_36\n      jump\t// in\n    tag_34:\n      mload(0x40)\n      tag_37\n      swap2\n      swap1\n      tag_20\n      jump\t// in\n    tag_37:\n      mload(0x40)\n      dup1\n      swap2\n      sub\n      swap1\n      return\n        /* \"contracts/CarreraCoches/principal.sol\":3968:7314  function Apostar(uint dineroApostar) public payable returns(string memory) {\r... */\n    tag_6:\n      tag_38\n      0x04\n      dup1\n      calldatasize\n      sub\n      dup2\n      add\n      swap1\n      tag_39\n      swap2\n      swap1\n      tag_40\n      jump\t// in\n    tag_39:\n      tag_41\n      jump\t// in\n    tag_38:\n      mload(0x40)\n      tag_42\n      swap2\n      swap1\n      tag_20\n      jump\t// in\n    tag_42:\n      mload(0x40)\n      dup1\n      swap2\n      sub\n      swap1\n      return\n        /* \"contracts/CarreraCoches/ownable.sol\":1719:1822  function renounceOwnership() public virtual onlyOwner {\r... */\n    tag_7:\n      callvalue\n      dup1\n      iszero\n      tag_43\n      jumpi\n      0x00\n      dup1\n      revert\n    tag_43:\n      pop\n      tag_44\n      tag_45\n      jump\t// in\n    tag_44:\n      stop\n        /* \"contracts/CarreraCoches/principal.sol\":871:922  mapping (uint => address) public cocheDePropietario */\n    tag_8:\n      callvalue\n      dup1\n      iszero\n      tag_46\n      jumpi\n      0x00\n      dup1\n      revert\n    tag_46:\n      pop\n      tag_47\n      0x04\n      dup1\n      calldatasize\n      sub\n      dup2\n      add\n      swap1\n      tag_48\n      swap2\n      swap1\n      tag_40\n      jump\t// in\n    tag_48:\n      tag_49\n      jump\t// in\n    tag_47:\n      mload(0x40)\n      tag_50\n      swap2\n      swap1\n      tag_51\n      jump\t// in\n    tag_50:\n      mload(0x40)\n      dup1\n      swap2\n      sub\n      swap1\n      return\n        /* \"contracts/CarreraCoches/ownable.sol\":1068:1155  function owner() public view virtual returns (address) {\r... */\n    tag_9:\n      callvalue\n      dup1\n      iszero\n      tag_52\n      jumpi\n      0x00\n      dup1\n      revert\n    tag_52:\n      pop\n      tag_53\n      tag_54\n      jump\t// in\n    tag_53:\n      mload(0x40)\n      tag_55\n      swap2\n      swap1\n      tag_51\n      jump\t// in\n    tag_55:\n      mload(0x40)\n      dup1\n      swap2\n      sub\n      swap1\n      return\n        /* \"contracts/CarreraCoches/ownable.sol\":701:722  address public _owner */\n    tag_10:\n      callvalue\n      dup1\n      iszero\n      tag_56\n      jumpi\n      0x00\n      dup1\n      revert\n    tag_56:\n      pop\n      tag_57\n      tag_58\n      jump\t// in\n    tag_57:\n      mload(0x40)\n      tag_59\n      swap2\n      swap1\n      tag_51\n      jump\t// in\n    tag_59:\n      mload(0x40)\n      dup1\n      swap2\n      sub\n      swap1\n      return\n        /* \"contracts/CarreraCoches/principal.sol\":604:630  Coche[] public listaCoches */\n    tag_11:\n      callvalue\n      dup1\n      iszero\n      tag_60\n      jumpi\n      0x00\n      dup1\n      revert\n    tag_60:\n      pop\n      tag_61\n      0x04\n      dup1\n      calldatasize\n      sub\n      dup2\n      add\n      swap1\n      tag_62\n      swap2\n      swap1\n      tag_40\n      jump\t// in\n    tag_62:\n      tag_63\n      jump\t// in\n    tag_61:\n      mload(0x40)\n      tag_64\n      swap9\n      swap8\n      swap7\n      swap6\n      swap5\n      swap4\n      swap3\n      swap2\n      swap1\n      tag_65\n      jump\t// in\n    tag_64:\n      mload(0x40)\n      dup1\n      swap2\n      sub\n      swap1\n      return\n        /* \"contracts/CarreraCoches/principal.sol\":2989:3365  function verCochePropietario(address _propietario) external {\r... */\n    tag_12:\n      callvalue\n      dup1\n      iszero\n      tag_66\n      jumpi\n      0x00\n      dup1\n      revert\n    tag_66:\n      pop\n      tag_67\n      0x04\n      dup1\n      calldatasize\n      sub\n      dup2\n      add\n      swap1\n      tag_68\n      swap2\n      swap1\n      tag_24\n      jump\t// in\n    tag_68:\n      tag_69\n      jump\t// in\n    tag_67:\n      stop\n        /* \"contracts/CarreraCoches/ownable.sol\":1977:2178  function transferOwnership(address newOwner) public virtual onlyOwner {\r... */\n    tag_13:\n      callvalue\n      dup1\n      iszero\n      tag_70\n      jumpi\n      0x00\n      dup1\n      revert\n    tag_70:\n      pop\n      tag_71\n      0x04\n      dup1\n      calldatasize\n      sub\n      dup2\n      add\n      swap1\n      tag_72\n      swap2\n      swap1\n      tag_24\n      jump\t// in\n    tag_72:\n      tag_73\n      jump\t// in\n    tag_71:\n      stop\n        /* \"contracts/CarreraCoches/principal.sol\":3448:3910  function comprarCoche(address _address, string memory _newModelo, string memory _newMarca) external payable returns(string memory) {\r... */\n    tag_18:\n        /* \"contracts/CarreraCoches/principal.sol\":3564:3577  string memory */\n      0x60\n        /* \"contracts/CarreraCoches/principal.sol\":3610:3618  _address */\n      dup4\n        /* \"contracts/CarreraCoches/principal.sol\":3598:3618  msg.sender==_address */\n      0xffffffffffffffffffffffffffffffffffffffff\n      and\n        /* \"contracts/CarreraCoches/principal.sol\":3598:3608  msg.sender */\n      caller\n        /* \"contracts/CarreraCoches/principal.sol\":3598:3618  msg.sender==_address */\n      0xffffffffffffffffffffffffffffffffffffffff\n      and\n      eq\n        /* \"contracts/CarreraCoches/principal.sol\":3590:3619  require(msg.sender==_address) */\n      tag_75\n      jumpi\n      0x00\n      dup1\n      revert\n    tag_75:\n        /* \"contracts/CarreraCoches/principal.sol\":3649:3662  cambiarCocheV */\n      sload(0x05)\n        /* \"contracts/CarreraCoches/principal.sol\":3638:3647  msg.value */\n      callvalue\n        /* \"contracts/CarreraCoches/principal.sol\":3638:3662  msg.value==cambiarCocheV */\n      eq\n        /* \"contracts/CarreraCoches/principal.sol\":3630:3663  require(msg.value==cambiarCocheV) */\n      tag_76\n      jumpi\n      0x00\n      dup1\n      revert\n    tag_76:\n        /* \"contracts/CarreraCoches/principal.sol\":3678:3684  uint i */\n      0x00\n        /* \"contracts/CarreraCoches/principal.sol\":3674:3903  for(uint i = 0; i < listaCoches.length; i++){\r... */\n    tag_77:\n        /* \"contracts/CarreraCoches/principal.sol\":3694:3705  listaCoches */\n      0x06\n        /* \"contracts/CarreraCoches/principal.sol\":3694:3712  listaCoches.length */\n      dup1\n      sload\n      swap1\n      pop\n        /* \"contracts/CarreraCoches/principal.sol\":3690:3691  i */\n      dup2\n        /* \"contracts/CarreraCoches/principal.sol\":3690:3712  i < listaCoches.length */\n      lt\n        /* \"contracts/CarreraCoches/principal.sol\":3674:3903  for(uint i = 0; i < listaCoches.length; i++){\r... */\n      iszero\n      tag_78\n      jumpi\n        /* \"contracts/CarreraCoches/principal.sol\":3761:3771  msg.sender */\n      caller\n        /* \"contracts/CarreraCoches/principal.sol\":3736:3771  listaCoches[i].idPiloto==msg.sender */\n      0xffffffffffffffffffffffffffffffffffffffff\n      and\n        /* \"contracts/CarreraCoches/principal.sol\":3736:3747  listaCoches */\n      0x06\n        /* \"contracts/CarreraCoches/principal.sol\":3748:3749  i */\n      dup3\n        /* \"contracts/CarreraCoches/principal.sol\":3736:3750  listaCoches[i] */\n      dup2\n      sload\n      dup2\n      lt\n      tag_80\n      jumpi\n      tag_81\n      tag_82\n      jump\t// in\n    tag_81:\n    tag_80:\n      swap1\n      0x00\n      mstore\n      keccak256(0x00, 0x20)\n      swap1\n      0x08\n      mul\n      add\n        /* \"contracts/CarreraCoches/principal.sol\":3736:3759  listaCoches[i].idPiloto */\n      0x00\n      add\n      0x00\n      swap1\n      sload\n      swap1\n      0x0100\n      exp\n      swap1\n      div\n      0xffffffffffffffffffffffffffffffffffffffff\n      and\n        /* \"contracts/CarreraCoches/principal.sol\":3736:3771  listaCoches[i].idPiloto==msg.sender */\n      0xffffffffffffffffffffffffffffffffffffffff\n      and\n      eq\n        /* \"contracts/CarreraCoches/principal.sol\":3733:3892  if(listaCoches[i].idPiloto==msg.sender){\r... */\n      iszero\n      tag_84\n      jumpi\n        /* \"contracts/CarreraCoches/principal.sol\":3815:3825  _newModelo */\n      dup4\n        /* \"contracts/CarreraCoches/principal.sol\":3791:3802  listaCoches */\n      0x06\n        /* \"contracts/CarreraCoches/principal.sol\":3803:3804  i */\n      dup3\n        /* \"contracts/CarreraCoches/principal.sol\":3791:3805  listaCoches[i] */\n      dup2\n      sload\n      dup2\n      lt\n      tag_85\n      jumpi\n      tag_86\n      tag_82\n      jump\t// in\n    tag_86:\n    tag_85:\n      swap1\n      0x00\n      mstore\n      keccak256(0x00, 0x20)\n      swap1\n      0x08\n      mul\n      add\n        /* \"contracts/CarreraCoches/principal.sol\":3791:3812  listaCoches[i].modelo */\n      0x01\n      add\n        /* \"contracts/CarreraCoches/principal.sol\":3791:3825  listaCoches[i].modelo = _newModelo */\n      swap1\n      dup1\n      mload\n      swap1\n      0x20\n      add\n      swap1\n      tag_88\n      swap3\n      swap2\n      swap1\n      tag_89\n      jump\t// in\n    tag_88:\n      pop\n        /* \"contracts/CarreraCoches/principal.sol\":3867:3876  _newMarca */\n      dup3\n        /* \"contracts/CarreraCoches/principal.sol\":3844:3855  listaCoches */\n      0x06\n        /* \"contracts/CarreraCoches/principal.sol\":3856:3857  i */\n      dup3\n        /* \"contracts/CarreraCoches/principal.sol\":3844:3858  listaCoches[i] */\n      dup2\n      sload\n      dup2\n      lt\n      tag_90\n      jumpi\n      tag_91\n      tag_82\n      jump\t// in\n    tag_91:\n    tag_90:\n      swap1\n      0x00\n      mstore\n      keccak256(0x00, 0x20)\n      swap1\n      0x08\n      mul\n      add\n        /* \"contracts/CarreraCoches/principal.sol\":3844:3864  listaCoches[i].marca */\n      0x02\n      add\n        /* \"contracts/CarreraCoches/principal.sol\":3844:3876  listaCoches[i].marca = _newMarca */\n      swap1\n      dup1\n      mload\n      swap1\n      0x20\n      add\n      swap1\n      tag_93\n      swap3\n      swap2\n      swap1\n      tag_89\n      jump\t// in\n    tag_93:\n      pop\n        /* \"contracts/CarreraCoches/principal.sol\":3733:3892  if(listaCoches[i].idPiloto==msg.sender){\r... */\n    tag_84:\n        /* \"contracts/CarreraCoches/principal.sol\":3714:3717  i++ */\n      dup1\n      dup1\n      tag_94\n      swap1\n      tag_95\n      jump\t// in\n    tag_94:\n      swap2\n      pop\n      pop\n        /* \"contracts/CarreraCoches/principal.sol\":3674:3903  for(uint i = 0; i < listaCoches.length; i++){\r... */\n      jump(tag_77)\n    tag_78:\n      pop\n        /* \"contracts/CarreraCoches/principal.sol\":3448:3910  function comprarCoche(address _address, string memory _newModelo, string memory _newMarca) external payable returns(string memory) {\r... */\n      swap4\n      swap3\n      pop\n      pop\n      pop\n      jump\t// out\n        /* \"contracts/CarreraCoches/principal.sol\":929:981  mapping (address => uint) public numeroCochesPersona */\n    tag_25:\n      mstore(0x20, 0x08)\n      dup1\n      0x00\n      mstore\n      keccak256(0x00, 0x40)\n      0x00\n      swap2\n      pop\n      swap1\n      pop\n      sload\n      dup2\n      jump\t// out\n        /* \"contracts/CarreraCoches/principal.sol\":1777:2217  function anadirCoche(string memory _modelo, string memory _marca, string memory _nombrePiloto) public restriccion returns (uint) {\r... */\n    tag_32:\n        /* \"contracts/CarreraCoches/principal.sol\":1900:1904  uint */\n      0x00\n        /* \"contracts/CarreraCoches/principal.sol\":1113:1114  1 */\n      0x01\n        /* \"contracts/CarreraCoches/principal.sol\":1079:1098  numeroCochesPersona */\n      0x08\n        /* \"contracts/CarreraCoches/principal.sol\":1079:1110  numeroCochesPersona[msg.sender] */\n      0x00\n        /* \"contracts/CarreraCoches/principal.sol\":1099:1109  msg.sender */\n      caller\n        /* \"contracts/CarreraCoches/principal.sol\":1079:1110  numeroCochesPersona[msg.sender] */\n      0xffffffffffffffffffffffffffffffffffffffff\n      and\n      0xffffffffffffffffffffffffffffffffffffffff\n      and\n      dup2\n      mstore\n      0x20\n      add\n      swap1\n      dup2\n      mstore\n      0x20\n      add\n      0x00\n      keccak256\n      sload\n        /* \"contracts/CarreraCoches/principal.sol\":1079:1114  numeroCochesPersona[msg.sender] < 1 */\n      lt\n        /* \"contracts/CarreraCoches/principal.sol\":1071:1159  require(numeroCochesPersona[msg.sender] < 1, \"Solo se puede tener un coche por persona\") */\n      tag_97\n      jumpi\n      mload(0x40)\n      0x08c379a000000000000000000000000000000000000000000000000000000000\n      dup2\n      mstore\n      0x04\n      add\n      tag_98\n      swap1\n      tag_99\n      jump\t// in\n    tag_98:\n      mload(0x40)\n      dup1\n      swap2\n      sub\n      swap1\n      revert\n    tag_97:\n        /* \"contracts/CarreraCoches/principal.sol\":1917:1928  listaCoches */\n      0x06\n        /* \"contracts/CarreraCoches/principal.sol\":1934:2028  Coche(msg.sender, _modelo, _marca, _nombrePiloto, 0, 0, uint32(block.timestamp + cooldown), 1) */\n      mload(0x40)\n      dup1\n      0x0100\n      add\n      0x40\n      mstore\n      dup1\n        /* \"contracts/CarreraCoches/principal.sol\":1940:1950  msg.sender */\n      caller\n        /* \"contracts/CarreraCoches/principal.sol\":1934:2028  Coche(msg.sender, _modelo, _marca, _nombrePiloto, 0, 0, uint32(block.timestamp + cooldown), 1) */\n      0xffffffffffffffffffffffffffffffffffffffff\n      and\n      dup2\n      mstore\n      0x20\n      add\n        /* \"contracts/CarreraCoches/principal.sol\":1952:1959  _modelo */\n      dup7\n        /* \"contracts/CarreraCoches/principal.sol\":1934:2028  Coche(msg.sender, _modelo, _marca, _nombrePiloto, 0, 0, uint32(block.timestamp + cooldown), 1) */\n      dup2\n      mstore\n      0x20\n      add\n        /* \"contracts/CarreraCoches/principal.sol\":1961:1967  _marca */\n      dup6\n        /* \"contracts/CarreraCoches/principal.sol\":1934:2028  Coche(msg.sender, _modelo, _marca, _nombrePiloto, 0, 0, uint32(block.timestamp + cooldown), 1) */\n      dup2\n      mstore\n      0x20\n      add\n        /* \"contracts/CarreraCoches/principal.sol\":1969:1982  _nombrePiloto */\n      dup5\n        /* \"contracts/CarreraCoches/principal.sol\":1934:2028  Coche(msg.sender, _modelo, _marca, _nombrePiloto, 0, 0, uint32(block.timestamp + cooldown), 1) */\n      dup2\n      mstore\n      0x20\n      add\n        /* \"contracts/CarreraCoches/principal.sol\":1984:1985  0 */\n      0x00\n        /* \"contracts/CarreraCoches/principal.sol\":1934:2028  Coche(msg.sender, _modelo, _marca, _nombrePiloto, 0, 0, uint32(block.timestamp + cooldown), 1) */\n      dup2\n      mstore\n      0x20\n      add\n        /* \"contracts/CarreraCoches/principal.sol\":1987:1988  0 */\n      0x00\n        /* \"contracts/CarreraCoches/principal.sol\":1934:2028  Coche(msg.sender, _modelo, _marca, _nombrePiloto, 0, 0, uint32(block.timestamp + cooldown), 1) */\n      dup2\n      mstore\n      0x20\n      add\n        /* \"contracts/CarreraCoches/principal.sol\":2015:2023  cooldown */\n      sload(0x03)\n        /* \"contracts/CarreraCoches/principal.sol\":1997:2012  block.timestamp */\n      timestamp\n        /* \"contracts/CarreraCoches/principal.sol\":1997:2023  block.timestamp + cooldown */\n      tag_101\n      swap2\n      swap1\n      tag_102\n      jump\t// in\n    tag_101:\n        /* \"contracts/CarreraCoches/principal.sol\":1934:2028  Coche(msg.sender, _modelo, _marca, _nombrePiloto, 0, 0, uint32(block.timestamp + cooldown), 1) */\n      0xffffffff\n      and\n      dup2\n      mstore\n      0x20\n      add\n        /* \"contracts/CarreraCoches/principal.sol\":2026:2027  1 */\n      0x01\n        /* \"contracts/CarreraCoches/principal.sol\":1934:2028  Coche(msg.sender, _modelo, _marca, _nombrePiloto, 0, 0, uint32(block.timestamp + cooldown), 1) */\n      0xffffffff\n      and\n      dup2\n      mstore\n      pop\n        /* \"contracts/CarreraCoches/principal.sol\":1917:2029  listaCoches.push(Coche(msg.sender, _modelo, _marca, _nombrePiloto, 0, 0, uint32(block.timestamp + cooldown), 1)) */\n      swap1\n      dup1\n      0x01\n      dup2\n      sload\n      add\n      dup1\n      dup3\n      sstore\n      dup1\n      swap2\n      pop\n      pop\n      0x01\n      swap1\n      sub\n      swap1\n      0x00\n      mstore\n      keccak256(0x00, 0x20)\n      swap1\n      0x08\n      mul\n      add\n      0x00\n      swap1\n      swap2\n      swap1\n      swap2\n      swap1\n      swap2\n      pop\n      0x00\n      dup3\n      add\n      mload\n      dup2\n      0x00\n      add\n      exp(0x0100, 0x00)\n      dup2\n      sload\n      dup2\n      0xffffffffffffffffffffffffffffffffffffffff\n      mul\n      not\n      and\n      swap1\n      dup4\n      0xffffffffffffffffffffffffffffffffffffffff\n      and\n      mul\n      or\n      swap1\n      sstore\n      pop\n      0x20\n      dup3\n      add\n      mload\n      dup2\n      0x01\n      add\n      swap1\n      dup1\n      mload\n      swap1\n      0x20\n      add\n      swap1\n      tag_104\n      swap3\n      swap2\n      swap1\n      tag_89\n      jump\t// in\n    tag_104:\n      pop\n      0x40\n      dup3\n      add\n      mload\n      dup2\n      0x02\n      add\n      swap1\n      dup1\n      mload\n      swap1\n      0x20\n      add\n      swap1\n      tag_105\n      swap3\n      swap2\n      swap1\n      tag_89\n      jump\t// in\n    tag_105:\n      pop\n      0x60\n      dup3\n      add\n      mload\n      dup2\n      0x03\n      add\n      swap1\n      dup1\n      mload\n      swap1\n      0x20\n      add\n      swap1\n      tag_106\n      swap3\n      swap2\n      swap1\n      tag_89\n      jump\t// in\n    tag_106:\n      pop\n      0x80\n      dup3\n      add\n      mload\n      dup2\n      0x04\n      add\n      sstore\n      0xa0\n      dup3\n      add\n      mload\n      dup2\n      0x05\n      add\n      sstore\n      0xc0\n      dup3\n      add\n      mload\n      dup2\n      0x06\n      add\n      sstore\n      0xe0\n      dup3\n      add\n      mload\n      dup2\n      0x07\n      add\n      exp(0x0100, 0x00)\n      dup2\n      sload\n      dup2\n      0xffffffff\n      mul\n      not\n      and\n      swap1\n      dup4\n      0xffffffff\n      and\n      mul\n      or\n      swap1\n      sstore\n      pop\n      pop\n      pop\n        /* \"contracts/CarreraCoches/principal.sol\":2040:2047  uint id */\n      0x00\n        /* \"contracts/CarreraCoches/principal.sol\":2050:2061  listaCoches */\n      0x06\n        /* \"contracts/CarreraCoches/principal.sol\":2050:2068  listaCoches.length */\n      dup1\n      sload\n      swap1\n      pop\n        /* \"contracts/CarreraCoches/principal.sol\":2040:2068  uint id = listaCoches.length */\n      swap1\n      pop\n        /* \"contracts/CarreraCoches/principal.sol\":2104:2114  msg.sender */\n      caller\n        /* \"contracts/CarreraCoches/principal.sol\":2079:2097  cocheDePropietario */\n      0x07\n        /* \"contracts/CarreraCoches/principal.sol\":2079:2101  cocheDePropietario[id] */\n      0x00\n        /* \"contracts/CarreraCoches/principal.sol\":2098:2100  id */\n      dup4\n        /* \"contracts/CarreraCoches/principal.sol\":2079:2101  cocheDePropietario[id] */\n      dup2\n      mstore\n      0x20\n      add\n      swap1\n      dup2\n      mstore\n      0x20\n      add\n      0x00\n      keccak256\n      0x00\n        /* \"contracts/CarreraCoches/principal.sol\":2079:2114  cocheDePropietario[id] = msg.sender */\n      0x0100\n      exp\n      dup2\n      sload\n      dup2\n      0xffffffffffffffffffffffffffffffffffffffff\n      mul\n      not\n      and\n      swap1\n      dup4\n      0xffffffffffffffffffffffffffffffffffffffff\n      and\n      mul\n      or\n      swap1\n      sstore\n      pop\n        /* \"contracts/CarreraCoches/principal.sol\":2125:2144  numeroCochesPersona */\n      0x08\n        /* \"contracts/CarreraCoches/principal.sol\":2125:2156  numeroCochesPersona[msg.sender] */\n      0x00\n        /* \"contracts/CarreraCoches/principal.sol\":2145:2155  msg.sender */\n      caller\n        /* \"contracts/CarreraCoches/principal.sol\":2125:2156  numeroCochesPersona[msg.sender] */\n      0xffffffffffffffffffffffffffffffffffffffff\n      and\n      0xffffffffffffffffffffffffffffffffffffffff\n      and\n      dup2\n      mstore\n      0x20\n      add\n      swap1\n      dup2\n      mstore\n      0x20\n      add\n      0x00\n      keccak256\n      0x00\n        /* \"contracts/CarreraCoches/principal.sol\":2125:2158  numeroCochesPersona[msg.sender]++ */\n      dup2\n      sload\n      dup1\n      swap3\n      swap2\n      swap1\n      tag_107\n      swap1\n      tag_95\n      jump\t// in\n    tag_107:\n      swap2\n      swap1\n      pop\n      sstore\n      pop\n        /* \"contracts/CarreraCoches/principal.sol\":2169:2177  contador */\n      0x02\n      0x00\n        /* \"contracts/CarreraCoches/principal.sol\":2169:2179  contador++ */\n      dup2\n      sload\n      dup1\n      swap3\n      swap2\n      swap1\n      tag_108\n      swap1\n      tag_95\n      jump\t// in\n    tag_108:\n      swap2\n      swap1\n      pop\n      sstore\n      pop\n        /* \"contracts/CarreraCoches/principal.sol\":2208:2209  1 */\n      0x01\n        /* \"contracts/CarreraCoches/principal.sol\":2197:2205  contador */\n      sload(0x02)\n        /* \"contracts/CarreraCoches/principal.sol\":2197:2209  contador - 1 */\n      tag_109\n      swap2\n      swap1\n      tag_110\n      jump\t// in\n    tag_109:\n        /* \"contracts/CarreraCoches/principal.sol\":2190:2209  return contador - 1 */\n      swap2\n      pop\n      pop\n        /* \"contracts/CarreraCoches/principal.sol\":1777:2217  function anadirCoche(string memory _modelo, string memory _marca, string memory _nombrePiloto) public restriccion returns (uint) {\r... */\n      swap4\n      swap3\n      pop\n      pop\n      pop\n      jump\t// out\n        /* \"contracts/CarreraCoches/principal.sol\":2586:2945  function subirDeNivel(address _propietario) external payable returns(string memory) {\r... */\n    tag_36:\n        /* \"contracts/CarreraCoches/principal.sol\":2655:2668  string memory */\n      0x60\n        /* \"contracts/CarreraCoches/principal.sol\":2700:2710  subirNivel */\n      sload(0x04)\n        /* \"contracts/CarreraCoches/principal.sol\":2689:2698  msg.value */\n      callvalue\n        /* \"contracts/CarreraCoches/principal.sol\":2689:2710  msg.value==subirNivel */\n      eq\n        /* \"contracts/CarreraCoches/principal.sol\":2681:2711  require(msg.value==subirNivel) */\n      tag_112\n      jumpi\n      0x00\n      dup1\n      revert\n    tag_112:\n        /* \"contracts/CarreraCoches/principal.sol\":2726:2732  uint i */\n      0x00\n        /* \"contracts/CarreraCoches/principal.sol\":2722:2938  for(uint i = 0; i < listaCoches.length; i++){\r... */\n    tag_113:\n        /* \"contracts/CarreraCoches/principal.sol\":2742:2753  listaCoches */\n      0x06\n        /* \"contracts/CarreraCoches/principal.sol\":2742:2760  listaCoches.length */\n      dup1\n      sload\n      swap1\n      pop\n        /* \"contracts/CarreraCoches/principal.sol\":2738:2739  i */\n      dup2\n        /* \"contracts/CarreraCoches/principal.sol\":2738:2760  i < listaCoches.length */\n      lt\n        /* \"contracts/CarreraCoches/principal.sol\":2722:2938  for(uint i = 0; i < listaCoches.length; i++){\r... */\n      iszero\n      tag_114\n      jumpi\n        /* \"contracts/CarreraCoches/principal.sol\":2811:2823  _propietario */\n      dup3\n        /* \"contracts/CarreraCoches/principal.sol\":2784:2823  listaCoches[i].idPiloto == _propietario */\n      0xffffffffffffffffffffffffffffffffffffffff\n      and\n        /* \"contracts/CarreraCoches/principal.sol\":2784:2795  listaCoches */\n      0x06\n        /* \"contracts/CarreraCoches/principal.sol\":2796:2797  i */\n      dup3\n        /* \"contracts/CarreraCoches/principal.sol\":2784:2798  listaCoches[i] */\n      dup2\n      sload\n      dup2\n      lt\n      tag_116\n      jumpi\n      tag_117\n      tag_82\n      jump\t// in\n    tag_117:\n    tag_116:\n      swap1\n      0x00\n      mstore\n      keccak256(0x00, 0x20)\n      swap1\n      0x08\n      mul\n      add\n        /* \"contracts/CarreraCoches/principal.sol\":2784:2807  listaCoches[i].idPiloto */\n      0x00\n      add\n      0x00\n      swap1\n      sload\n      swap1\n      0x0100\n      exp\n      swap1\n      div\n      0xffffffffffffffffffffffffffffffffffffffff\n      and\n        /* \"contracts/CarreraCoches/principal.sol\":2784:2823  listaCoches[i].idPiloto == _propietario */\n      0xffffffffffffffffffffffffffffffffffffffff\n      and\n      eq\n        /* \"contracts/CarreraCoches/principal.sol\":2781:2927  if(listaCoches[i].idPiloto == _propietario){\r... */\n      iszero\n      tag_119\n      jumpi\n        /* \"contracts/CarreraCoches/principal.sol\":2843:2854  listaCoches */\n      0x06\n        /* \"contracts/CarreraCoches/principal.sol\":2855:2856  i */\n      dup2\n        /* \"contracts/CarreraCoches/principal.sol\":2843:2857  listaCoches[i] */\n      dup2\n      sload\n      dup2\n      lt\n      tag_120\n      jumpi\n      tag_121\n      tag_82\n      jump\t// in\n    tag_121:\n    tag_120:\n      swap1\n      0x00\n      mstore\n      keccak256(0x00, 0x20)\n      swap1\n      0x08\n      mul\n      add\n        /* \"contracts/CarreraCoches/principal.sol\":2843:2863  listaCoches[i].nivel */\n      0x07\n      add\n      0x00\n        /* \"contracts/CarreraCoches/principal.sol\":2843:2865  listaCoches[i].nivel++ */\n      dup2\n      dup2\n      swap1\n      sload\n      swap1\n      0x0100\n      exp\n      swap1\n      div\n      0xffffffff\n      and\n      dup1\n      swap3\n      swap2\n      swap1\n      tag_123\n      swap1\n      tag_124\n      jump\t// in\n    tag_123:\n      swap2\n      swap1\n      0x0100\n      exp\n      dup2\n      sload\n      dup2\n      0xffffffff\n      mul\n      not\n      and\n      swap1\n      dup4\n      0xffffffff\n      and\n      mul\n      or\n      swap1\n      sstore\n      pop\n      pop\n        /* \"contracts/CarreraCoches/principal.sol\":2884:2911  return \"Ha subido de nivel\" */\n      mload(0x40)\n      dup1\n      0x40\n      add\n      0x40\n      mstore\n      dup1\n      0x12\n      dup2\n      mstore\n      0x20\n      add\n      0x48612073756269646f206465206e6976656c0000000000000000000000000000\n      dup2\n      mstore\n      pop\n      swap2\n      pop\n      pop\n      jump(tag_111)\n        /* \"contracts/CarreraCoches/principal.sol\":2781:2927  if(listaCoches[i].idPiloto == _propietario){\r... */\n    tag_119:\n        /* \"contracts/CarreraCoches/principal.sol\":2762:2765  i++ */\n      dup1\n      dup1\n      tag_125\n      swap1\n      tag_95\n      jump\t// in\n    tag_125:\n      swap2\n      pop\n      pop\n        /* \"contracts/CarreraCoches/principal.sol\":2722:2938  for(uint i = 0; i < listaCoches.length; i++){\r... */\n      jump(tag_113)\n    tag_114:\n      pop\n        /* \"contracts/CarreraCoches/principal.sol\":2586:2945  function subirDeNivel(address _propietario) external payable returns(string memory) {\r... */\n    tag_111:\n      swap2\n      swap1\n      pop\n      jump\t// out\n        /* \"contracts/CarreraCoches/principal.sol\":3968:7314  function Apostar(uint dineroApostar) public payable returns(string memory) {\r... */\n    tag_41:\n        /* \"contracts/CarreraCoches/principal.sol\":4028:4041  string memory */\n      0x60\n        /* \"contracts/CarreraCoches/principal.sol\":4087:4088  1 */\n      0x01\n        /* \"contracts/CarreraCoches/principal.sol\":4065:4076  listaCoches */\n      0x06\n        /* \"contracts/CarreraCoches/principal.sol\":4065:4083  listaCoches.length */\n      dup1\n      sload\n      swap1\n      pop\n        /* \"contracts/CarreraCoches/principal.sol\":4065:4088  listaCoches.length <= 1 */\n      gt\n        /* \"contracts/CarreraCoches/principal.sol\":4062:7308  if(listaCoches.length <= 1){\r... */\n      tag_127\n      jumpi\n        /* \"contracts/CarreraCoches/principal.sol\":4108:4187  confirmacionDepositoLleno(\"No hay coches suficientes para iniciar una carrera\") */\n      0x6158fc8f21c8cc73ddf920956cc75d0e8a48b4fc85817a0ba89eb3b6d2a75441\n      mload(0x40)\n      tag_128\n      swap1\n      tag_129\n      jump\t// in\n    tag_128:\n      mload(0x40)\n      dup1\n      swap2\n      sub\n      swap1\n      log1\n        /* \"contracts/CarreraCoches/principal.sol\":4062:7308  if(listaCoches.length <= 1){\r... */\n      jump(tag_130)\n    tag_127:\n        /* \"contracts/CarreraCoches/principal.sol\":4238:4251  dineroApostar */\n      dup2\n        /* \"contracts/CarreraCoches/principal.sol\":4225:4234  msg.value */\n      callvalue\n        /* \"contracts/CarreraCoches/principal.sol\":4225:4251  msg.value == dineroApostar */\n      eq\n        /* \"contracts/CarreraCoches/principal.sol\":4217:4252  require(msg.value == dineroApostar) */\n      tag_131\n      jumpi\n      0x00\n      dup1\n      revert\n    tag_131:\n        /* \"contracts/CarreraCoches/principal.sol\":4267:4276  randNonce */\n      0x01\n      0x00\n        /* \"contracts/CarreraCoches/principal.sol\":4267:4278  randNonce++ */\n      dup2\n      sload\n      dup1\n      swap3\n      swap2\n      swap1\n      tag_132\n      swap1\n      tag_95\n      jump\t// in\n    tag_132:\n      swap2\n      swap1\n      pop\n      sstore\n      pop\n        /* \"contracts/CarreraCoches/principal.sol\":4333:4346  uint256 rival */\n      0x00\n        /* \"contracts/CarreraCoches/principal.sol\":4436:4447  listaCoches */\n      0x06\n        /* \"contracts/CarreraCoches/principal.sol\":4436:4454  listaCoches.length */\n      dup1\n      sload\n      swap1\n      pop\n        /* \"contracts/CarreraCoches/principal.sol\":4384:4399  block.timestamp */\n      timestamp\n        /* \"contracts/CarreraCoches/principal.sol\":4401:4412  listaCoches */\n      0x06\n        /* \"contracts/CarreraCoches/principal.sol\":4401:4419  listaCoches.length */\n      dup1\n      sload\n      swap1\n      pop\n        /* \"contracts/CarreraCoches/principal.sol\":4421:4430  randNonce */\n      sload(0x01)\n        /* \"contracts/CarreraCoches/principal.sol\":4367:4431  abi.encodePacked(block.timestamp, listaCoches.length, randNonce) */\n      add(0x20, mload(0x40))\n      tag_133\n      swap4\n      swap3\n      swap2\n      swap1\n      tag_134\n      jump\t// in\n    tag_133:\n      mload(0x40)\n      0x20\n      dup2\n      dup4\n      sub\n      sub\n      dup2\n      mstore\n      swap1\n      0x40\n      mstore\n        /* \"contracts/CarreraCoches/principal.sol\":4357:4432  keccak256(abi.encodePacked(block.timestamp, listaCoches.length, randNonce)) */\n      dup1\n      mload\n      swap1\n      0x20\n      add\n      keccak256\n        /* \"contracts/CarreraCoches/principal.sol\":4349:4433  uint256(keccak256(abi.encodePacked(block.timestamp, listaCoches.length, randNonce))) */\n      0x00\n      shr\n        /* \"contracts/CarreraCoches/principal.sol\":4349:4454  uint256(keccak256(abi.encodePacked(block.timestamp, listaCoches.length, randNonce))) % listaCoches.length */\n      tag_135\n      swap2\n      swap1\n      tag_136\n      jump\t// in\n    tag_135:\n        /* \"contracts/CarreraCoches/principal.sol\":4333:4454  uint256 rival = uint256(keccak256(abi.encodePacked(block.timestamp, listaCoches.length, randNonce))) % listaCoches.length */\n      swap1\n      pop\n        /* \"contracts/CarreraCoches/principal.sol\":4469:4489  address addressRival */\n      0x00\n        /* \"contracts/CarreraCoches/principal.sol\":4492:4510  cocheDePropietario */\n      0x07\n        /* \"contracts/CarreraCoches/principal.sol\":4492:4517  cocheDePropietario[rival] */\n      0x00\n        /* \"contracts/CarreraCoches/principal.sol\":4511:4516  rival */\n      dup4\n        /* \"contracts/CarreraCoches/principal.sol\":4492:4517  cocheDePropietario[rival] */\n      dup2\n      mstore\n      0x20\n      add\n      swap1\n      dup2\n      mstore\n      0x20\n      add\n      0x00\n      keccak256\n      0x00\n      swap1\n      sload\n      swap1\n      0x0100\n      exp\n      swap1\n      div\n      0xffffffffffffffffffffffffffffffffffffffff\n      and\n        /* \"contracts/CarreraCoches/principal.sol\":4469:4517  address addressRival = cocheDePropietario[rival] */\n      swap1\n      pop\n        /* \"contracts/CarreraCoches/principal.sol\":4568:4577  randNonce */\n      0x01\n      0x00\n        /* \"contracts/CarreraCoches/principal.sol\":4568:4579  randNonce++ */\n      dup2\n      sload\n      dup1\n      swap3\n      swap2\n      swap1\n      tag_137\n      swap1\n      tag_95\n      jump\t// in\n    tag_137:\n      swap2\n      swap1\n      pop\n      sstore\n      pop\n        /* \"contracts/CarreraCoches/principal.sol\":4594:4605  uint numero */\n      0x00\n        /* \"contracts/CarreraCoches/principal.sol\":4608:4611  100 */\n      0x64\n        /* \"contracts/CarreraCoches/principal.sol\":4594:4611  uint numero = 100 */\n      swap1\n      pop\n        /* \"contracts/CarreraCoches/principal.sol\":4626:4641  uint256 ganador */\n      0x00\n        /* \"contracts/CarreraCoches/principal.sol\":4719:4725  numero */\n      dup2\n        /* \"contracts/CarreraCoches/principal.sol\":4679:4694  block.timestamp */\n      timestamp\n        /* \"contracts/CarreraCoches/principal.sol\":4696:4702  numero */\n      dup4\n        /* \"contracts/CarreraCoches/principal.sol\":4704:4713  randNonce */\n      sload(0x01)\n        /* \"contracts/CarreraCoches/principal.sol\":4662:4714  abi.encodePacked(block.timestamp, numero, randNonce) */\n      add(0x20, mload(0x40))\n      tag_138\n      swap4\n      swap3\n      swap2\n      swap1\n      tag_134\n      jump\t// in\n    tag_138:\n      mload(0x40)\n      0x20\n      dup2\n      dup4\n      sub\n      sub\n      dup2\n      mstore\n      swap1\n      0x40\n      mstore\n        /* \"contracts/CarreraCoches/principal.sol\":4652:4715  keccak256(abi.encodePacked(block.timestamp, numero, randNonce)) */\n      dup1\n      mload\n      swap1\n      0x20\n      add\n      keccak256\n        /* \"contracts/CarreraCoches/principal.sol\":4644:4716  uint256(keccak256(abi.encodePacked(block.timestamp, numero, randNonce))) */\n      0x00\n      shr\n        /* \"contracts/CarreraCoches/principal.sol\":4644:4725  uint256(keccak256(abi.encodePacked(block.timestamp, numero, randNonce))) % numero */\n      tag_139\n      swap2\n      swap1\n      tag_136\n      jump\t// in\n    tag_139:\n        /* \"contracts/CarreraCoches/principal.sol\":4626:4725  uint256 ganador = uint256(keccak256(abi.encodePacked(block.timestamp, numero, randNonce))) % numero */\n      swap1\n      pop\n        /* \"contracts/CarreraCoches/principal.sol\":4746:4752  uint i */\n      0x00\n        /* \"contracts/CarreraCoches/principal.sol\":4742:7297  for(uint i = 0; i < listaCoches.length; i++){\r... */\n    tag_140:\n        /* \"contracts/CarreraCoches/principal.sol\":4762:4773  listaCoches */\n      0x06\n        /* \"contracts/CarreraCoches/principal.sol\":4762:4780  listaCoches.length */\n      dup1\n      sload\n      swap1\n      pop\n        /* \"contracts/CarreraCoches/principal.sol\":4758:4759  i */\n      dup2\n        /* \"contracts/CarreraCoches/principal.sol\":4758:4780  i < listaCoches.length */\n      lt\n        /* \"contracts/CarreraCoches/principal.sol\":4742:7297  for(uint i = 0; i < listaCoches.length; i++){\r... */\n      iszero\n      tag_141\n      jumpi\n        /* \"contracts/CarreraCoches/principal.sol\":4859:4870  listaCoches */\n      0x06\n        /* \"contracts/CarreraCoches/principal.sol\":4871:4872  i */\n      dup2\n        /* \"contracts/CarreraCoches/principal.sol\":4859:4873  listaCoches[i] */\n      dup2\n      sload\n      dup2\n      lt\n      tag_143\n      jumpi\n      tag_144\n      tag_82\n      jump\t// in\n    tag_144:\n    tag_143:\n      swap1\n      0x00\n      mstore\n      keccak256(0x00, 0x20)\n      swap1\n      0x08\n      mul\n      add\n        /* \"contracts/CarreraCoches/principal.sol\":4859:4882  listaCoches[i].idPiloto */\n      0x00\n      add\n      0x00\n      swap1\n      sload\n      swap1\n      0x0100\n      exp\n      swap1\n      div\n      0xffffffffffffffffffffffffffffffffffffffff\n      and\n        /* \"contracts/CarreraCoches/principal.sol\":4845:4882  msg.sender == listaCoches[i].idPiloto */\n      0xffffffffffffffffffffffffffffffffffffffff\n      and\n        /* \"contracts/CarreraCoches/principal.sol\":4845:4855  msg.sender */\n      caller\n        /* \"contracts/CarreraCoches/principal.sol\":4845:4882  msg.sender == listaCoches[i].idPiloto */\n      0xffffffffffffffffffffffffffffffffffffffff\n      and\n      eq\n        /* \"contracts/CarreraCoches/principal.sol\":4841:7264  if (msg.sender == listaCoches[i].idPiloto) {\r... */\n      iszero\n      tag_146\n      jumpi\n        /* \"contracts/CarreraCoches/principal.sol\":4915:4945  _depositoLleno(listaCoches[i]) */\n      tag_147\n        /* \"contracts/CarreraCoches/principal.sol\":4930:4941  listaCoches */\n      0x06\n        /* \"contracts/CarreraCoches/principal.sol\":4942:4943  i */\n      dup3\n        /* \"contracts/CarreraCoches/principal.sol\":4930:4944  listaCoches[i] */\n      dup2\n      sload\n      dup2\n      lt\n      tag_148\n      jumpi\n      tag_149\n      tag_82\n      jump\t// in\n    tag_149:\n    tag_148:\n      swap1\n      0x00\n      mstore\n      keccak256(0x00, 0x20)\n      swap1\n      0x08\n      mul\n      add\n        /* \"contracts/CarreraCoches/principal.sol\":4915:4929  _depositoLleno */\n      tag_151\n        /* \"contracts/CarreraCoches/principal.sol\":4915:4945  _depositoLleno(listaCoches[i]) */\n      jump\t// in\n    tag_147:\n        /* \"contracts/CarreraCoches/principal.sol\":4907:4946  require(_depositoLleno(listaCoches[i])) */\n      tag_152\n      jumpi\n      0x00\n      dup1\n      revert\n    tag_152:\n        /* \"contracts/CarreraCoches/principal.sol\":4969:4980  listaCoches */\n      0x06\n        /* \"contracts/CarreraCoches/principal.sol\":4981:4982  i */\n      dup2\n        /* \"contracts/CarreraCoches/principal.sol\":4969:4983  listaCoches[i] */\n      dup2\n      sload\n      dup2\n      lt\n      tag_153\n      jumpi\n      tag_154\n      tag_82\n      jump\t// in\n    tag_154:\n    tag_153:\n      swap1\n      0x00\n      mstore\n      keccak256(0x00, 0x20)\n      swap1\n      0x08\n      mul\n      add\n        /* \"contracts/CarreraCoches/principal.sol\":4969:4999  listaCoches[i].carrerasTotales */\n      0x05\n      add\n      0x00\n        /* \"contracts/CarreraCoches/principal.sol\":4969:5001  listaCoches[i].carrerasTotales++ */\n      dup2\n      sload\n      dup1\n      swap3\n      swap2\n      swap1\n      tag_156\n      swap1\n      tag_95\n      jump\t// in\n    tag_156:\n      swap2\n      swap1\n      pop\n      sstore\n      pop\n        /* \"contracts/CarreraCoches/principal.sol\":5024:5035  listaCoches */\n      0x06\n        /* \"contracts/CarreraCoches/principal.sol\":5036:5041  rival */\n      dup6\n        /* \"contracts/CarreraCoches/principal.sol\":5024:5042  listaCoches[rival] */\n      dup2\n      sload\n      dup2\n      lt\n      tag_157\n      jumpi\n      tag_158\n      tag_82\n      jump\t// in\n    tag_158:\n    tag_157:\n      swap1\n      0x00\n      mstore\n      keccak256(0x00, 0x20)\n      swap1\n      0x08\n      mul\n      add\n        /* \"contracts/CarreraCoches/principal.sol\":5024:5058  listaCoches[rival].carrerasTotales */\n      0x05\n      add\n      0x00\n        /* \"contracts/CarreraCoches/principal.sol\":5024:5060  listaCoches[rival].carrerasTotales++ */\n      dup2\n      sload\n      dup1\n      swap3\n      swap2\n      swap1\n      tag_160\n      swap1\n      tag_95\n      jump\t// in\n    tag_160:\n      swap2\n      swap1\n      pop\n      sstore\n      pop\n        /* \"contracts/CarreraCoches/principal.sol\":5083:5110  _repostando(listaCoches[i]) */\n      tag_161\n        /* \"contracts/CarreraCoches/principal.sol\":5095:5106  listaCoches */\n      0x06\n        /* \"contracts/CarreraCoches/principal.sol\":5107:5108  i */\n      dup3\n        /* \"contracts/CarreraCoches/principal.sol\":5095:5109  listaCoches[i] */\n      dup2\n      sload\n      dup2\n      lt\n      tag_162\n      jumpi\n      tag_163\n      tag_82\n      jump\t// in\n    tag_163:\n    tag_162:\n      swap1\n      0x00\n      mstore\n      keccak256(0x00, 0x20)\n      swap1\n      0x08\n      mul\n      add\n        /* \"contracts/CarreraCoches/principal.sol\":5083:5094  _repostando */\n      tag_165\n        /* \"contracts/CarreraCoches/principal.sol\":5083:5110  _repostando(listaCoches[i]) */\n      jump\t// in\n    tag_161:\n        /* \"contracts/CarreraCoches/principal.sol\":5163:5174  listaCoches */\n      0x06\n        /* \"contracts/CarreraCoches/principal.sol\":5175:5176  i */\n      dup2\n        /* \"contracts/CarreraCoches/principal.sol\":5163:5177  listaCoches[i] */\n      dup2\n      sload\n      dup2\n      lt\n      tag_166\n      jumpi\n      tag_167\n      tag_82\n      jump\t// in\n    tag_167:\n    tag_166:\n      swap1\n      0x00\n      mstore\n      keccak256(0x00, 0x20)\n      swap1\n      0x08\n      mul\n      add\n        /* \"contracts/CarreraCoches/principal.sol\":5163:5183  listaCoches[i].nivel */\n      0x07\n      add\n      0x00\n      swap1\n      sload\n      swap1\n      0x0100\n      exp\n      swap1\n      div\n      0xffffffff\n      and\n        /* \"contracts/CarreraCoches/principal.sol\":5136:5183  listaCoches[rival].nivel < listaCoches[i].nivel */\n      0xffffffff\n      and\n        /* \"contracts/CarreraCoches/principal.sol\":5136:5147  listaCoches */\n      0x06\n        /* \"contracts/CarreraCoches/principal.sol\":5148:5153  rival */\n      dup7\n        /* \"contracts/CarreraCoches/principal.sol\":5136:5154  listaCoches[rival] */\n      dup2\n      sload\n      dup2\n      lt\n      tag_169\n      jumpi\n      tag_170\n      tag_82\n      jump\t// in\n    tag_170:\n    tag_169:\n      swap1\n      0x00\n      mstore\n      keccak256(0x00, 0x20)\n      swap1\n      0x08\n      mul\n      add\n        /* \"contracts/CarreraCoches/principal.sol\":5136:5160  listaCoches[rival].nivel */\n      0x07\n      add\n      0x00\n      swap1\n      sload\n      swap1\n      0x0100\n      exp\n      swap1\n      div\n      0xffffffff\n      and\n        /* \"contracts/CarreraCoches/principal.sol\":5136:5183  listaCoches[rival].nivel < listaCoches[i].nivel */\n      0xffffffff\n      and\n      lt\n        /* \"contracts/CarreraCoches/principal.sol\":5133:7241  if(listaCoches[rival].nivel < listaCoches[i].nivel){\r... */\n      iszero\n      tag_172\n      jumpi\n        /* \"contracts/CarreraCoches/principal.sol\":5223:5225  60 */\n      0x3c\n        /* \"contracts/CarreraCoches/principal.sol\":5214:5221  ganador */\n      dup3\n        /* \"contracts/CarreraCoches/principal.sol\":5214:5225  ganador<=60 */\n      gt\n        /* \"contracts/CarreraCoches/principal.sol\":5211:5784  if(ganador<=60){\r... */\n      tag_173\n      jumpi\n        /* \"contracts/CarreraCoches/principal.sol\":5257:5266  balance() */\n      tag_174\n        /* \"contracts/CarreraCoches/principal.sol\":5257:5264  balance */\n      tag_175\n        /* \"contracts/CarreraCoches/principal.sol\":5257:5266  balance() */\n      jump\t// in\n    tag_174:\n        /* \"contracts/CarreraCoches/principal.sol\":5297:5308  listaCoches */\n      0x06\n        /* \"contracts/CarreraCoches/principal.sol\":5309:5310  i */\n      dup2\n        /* \"contracts/CarreraCoches/principal.sol\":5297:5311  listaCoches[i] */\n      dup2\n      sload\n      dup2\n      lt\n      tag_176\n      jumpi\n      tag_177\n      tag_82\n      jump\t// in\n    tag_177:\n    tag_176:\n      swap1\n      0x00\n      mstore\n      keccak256(0x00, 0x20)\n      swap1\n      0x08\n      mul\n      add\n        /* \"contracts/CarreraCoches/principal.sol\":5297:5327  listaCoches[i].carrerasGanadas */\n      0x04\n      add\n      0x00\n        /* \"contracts/CarreraCoches/principal.sol\":5297:5329  listaCoches[i].carrerasGanadas++ */\n      dup2\n      sload\n      dup1\n      swap3\n      swap2\n      swap1\n      tag_179\n      swap1\n      tag_95\n      jump\t// in\n    tag_179:\n      swap2\n      swap1\n      pop\n      sstore\n      pop\n        /* \"contracts/CarreraCoches/principal.sol\":5360:5371  listaCoches */\n      0x06\n        /* \"contracts/CarreraCoches/principal.sol\":5372:5373  i */\n      dup2\n        /* \"contracts/CarreraCoches/principal.sol\":5360:5374  listaCoches[i] */\n      dup2\n      sload\n      dup2\n      lt\n      tag_180\n      jumpi\n      tag_181\n      tag_82\n      jump\t// in\n    tag_181:\n    tag_180:\n      swap1\n      0x00\n      mstore\n      keccak256(0x00, 0x20)\n      swap1\n      0x08\n      mul\n      add\n        /* \"contracts/CarreraCoches/principal.sol\":5360:5380  listaCoches[i].nivel */\n      0x07\n      add\n      0x00\n        /* \"contracts/CarreraCoches/principal.sol\":5360:5382  listaCoches[i].nivel++ */\n      dup2\n      dup2\n      swap1\n      sload\n      swap1\n      0x0100\n      exp\n      swap1\n      div\n      0xffffffff\n      and\n      dup1\n      swap3\n      swap2\n      swap1\n      tag_183\n      swap1\n      tag_124\n      jump\t// in\n    tag_183:\n      swap2\n      swap1\n      0x0100\n      exp\n      dup2\n      sload\n      dup2\n      0xffffffff\n      mul\n      not\n      and\n      swap1\n      dup4\n      0xffffffff\n      and\n      mul\n      or\n      swap1\n      sstore\n      pop\n      pop\n        /* \"contracts/CarreraCoches/principal.sol\":5413:5432  return \"Has ganado\" */\n      mload(0x40)\n      dup1\n      0x40\n      add\n      0x40\n      mstore\n      dup1\n      0x0a\n      dup2\n      mstore\n      0x20\n      add\n      0x4861732067616e61646f00000000000000000000000000000000000000000000\n      dup2\n      mstore\n      pop\n      swap6\n      pop\n      pop\n      pop\n      pop\n      pop\n      pop\n      jump(tag_126)\n        /* \"contracts/CarreraCoches/principal.sol\":5211:5784  if(ganador<=60){\r... */\n    tag_173:\n        /* \"contracts/CarreraCoches/principal.sol\":5586:5636  confirmacionDepositoLleno(\"El coche ganador es: \") */\n      0x6158fc8f21c8cc73ddf920956cc75d0e8a48b4fc85817a0ba89eb3b6d2a75441\n      mload(0x40)\n      tag_185\n      swap1\n      tag_186\n      jump\t// in\n    tag_185:\n      mload(0x40)\n      dup1\n      swap2\n      sub\n      swap1\n      log1\n        /* \"contracts/CarreraCoches/principal.sol\":5667:5671  this */\n      address\n        /* \"contracts/CarreraCoches/principal.sol\":5667:5691  this.verCochePropietario */\n      0xffffffffffffffffffffffffffffffffffffffff\n      and\n      0xe172fca8\n        /* \"contracts/CarreraCoches/principal.sol\":5692:5704  addressRival */\n      dup6\n        /* \"contracts/CarreraCoches/principal.sol\":5667:5705  this.verCochePropietario(addressRival) */\n      mload(0x40)\n      dup3\n      0xffffffff\n      and\n      0xe0\n      shl\n      dup2\n      mstore\n      0x04\n      add\n      tag_187\n      swap2\n      swap1\n      tag_51\n      jump\t// in\n    tag_187:\n      0x00\n      mload(0x40)\n      dup1\n      dup4\n      sub\n      dup2\n      0x00\n      dup8\n      dup1\n      extcodesize\n      iszero\n      dup1\n      iszero\n      tag_188\n      jumpi\n      0x00\n      dup1\n      revert\n    tag_188:\n      pop\n      gas\n      call\n      iszero\n      dup1\n      iszero\n      tag_190\n      jumpi\n      returndatasize\n      0x00\n      dup1\n      returndatacopy\n      revert(0x00, returndatasize)\n    tag_190:\n      pop\n      pop\n      pop\n      pop\n        /* \"contracts/CarreraCoches/principal.sol\":5736:5756  return \"Has perdido\" */\n      mload(0x40)\n      dup1\n      0x40\n      add\n      0x40\n      mstore\n      dup1\n      0x0b\n      dup2\n      mstore\n      0x20\n      add\n      0x486173207065726469646f000000000000000000000000000000000000000000\n      dup2\n      mstore\n      pop\n      swap6\n      pop\n      pop\n      pop\n      pop\n      pop\n      pop\n      jump(tag_126)\n        /* \"contracts/CarreraCoches/principal.sol\":5133:7241  if(listaCoches[rival].nivel < listaCoches[i].nivel){\r... */\n    tag_172:\n        /* \"contracts/CarreraCoches/principal.sol\":5847:5858  listaCoches */\n      0x06\n        /* \"contracts/CarreraCoches/principal.sol\":5859:5860  i */\n      dup2\n        /* \"contracts/CarreraCoches/principal.sol\":5847:5861  listaCoches[i] */\n      dup2\n      sload\n      dup2\n      lt\n      tag_192\n      jumpi\n      tag_193\n      tag_82\n      jump\t// in\n    tag_193:\n    tag_192:\n      swap1\n      0x00\n      mstore\n      keccak256(0x00, 0x20)\n      swap1\n      0x08\n      mul\n      add\n        /* \"contracts/CarreraCoches/principal.sol\":5847:5867  listaCoches[i].nivel */\n      0x07\n      add\n      0x00\n      swap1\n      sload\n      swap1\n      0x0100\n      exp\n      swap1\n      div\n      0xffffffff\n      and\n        /* \"contracts/CarreraCoches/principal.sol\":5819:5867  listaCoches[rival].nivel == listaCoches[i].nivel */\n      0xffffffff\n      and\n        /* \"contracts/CarreraCoches/principal.sol\":5819:5830  listaCoches */\n      0x06\n        /* \"contracts/CarreraCoches/principal.sol\":5831:5836  rival */\n      dup7\n        /* \"contracts/CarreraCoches/principal.sol\":5819:5837  listaCoches[rival] */\n      dup2\n      sload\n      dup2\n      lt\n      tag_195\n      jumpi\n      tag_196\n      tag_82\n      jump\t// in\n    tag_196:\n    tag_195:\n      swap1\n      0x00\n      mstore\n      keccak256(0x00, 0x20)\n      swap1\n      0x08\n      mul\n      add\n        /* \"contracts/CarreraCoches/principal.sol\":5819:5843  listaCoches[rival].nivel */\n      0x07\n      add\n      0x00\n      swap1\n      sload\n      swap1\n      0x0100\n      exp\n      swap1\n      div\n      0xffffffff\n      and\n        /* \"contracts/CarreraCoches/principal.sol\":5819:5867  listaCoches[rival].nivel == listaCoches[i].nivel */\n      0xffffffff\n      and\n      eq\n        /* \"contracts/CarreraCoches/principal.sol\":5816:7241  if(listaCoches[rival].nivel == listaCoches[i].nivel){\r... */\n      iszero\n      tag_198\n      jumpi\n        /* \"contracts/CarreraCoches/principal.sol\":5907:5909  50 */\n      0x32\n        /* \"contracts/CarreraCoches/principal.sol\":5898:5905  ganador */\n      dup3\n        /* \"contracts/CarreraCoches/principal.sol\":5898:5909  ganador<=50 */\n      gt\n        /* \"contracts/CarreraCoches/principal.sol\":5895:6470  if(ganador<=50){\r... */\n      tag_199\n      jumpi\n        /* \"contracts/CarreraCoches/principal.sol\":5941:5950  balance() */\n      tag_200\n        /* \"contracts/CarreraCoches/principal.sol\":5941:5948  balance */\n      tag_175\n        /* \"contracts/CarreraCoches/principal.sol\":5941:5950  balance() */\n      jump\t// in\n    tag_200:\n        /* \"contracts/CarreraCoches/principal.sol\":5981:5992  listaCoches */\n      0x06\n        /* \"contracts/CarreraCoches/principal.sol\":5993:5994  i */\n      dup2\n        /* \"contracts/CarreraCoches/principal.sol\":5981:5995  listaCoches[i] */\n      dup2\n      sload\n      dup2\n      lt\n      tag_201\n      jumpi\n      tag_202\n      tag_82\n      jump\t// in\n    tag_202:\n    tag_201:\n      swap1\n      0x00\n      mstore\n      keccak256(0x00, 0x20)\n      swap1\n      0x08\n      mul\n      add\n        /* \"contracts/CarreraCoches/principal.sol\":5981:6011  listaCoches[i].carrerasGanadas */\n      0x04\n      add\n      0x00\n        /* \"contracts/CarreraCoches/principal.sol\":5981:6013  listaCoches[i].carrerasGanadas++ */\n      dup2\n      sload\n      dup1\n      swap3\n      swap2\n      swap1\n      tag_204\n      swap1\n      tag_95\n      jump\t// in\n    tag_204:\n      swap2\n      swap1\n      pop\n      sstore\n      pop\n        /* \"contracts/CarreraCoches/principal.sol\":6044:6055  listaCoches */\n      0x06\n        /* \"contracts/CarreraCoches/principal.sol\":6056:6057  i */\n      dup2\n        /* \"contracts/CarreraCoches/principal.sol\":6044:6058  listaCoches[i] */\n      dup2\n      sload\n      dup2\n      lt\n      tag_205\n      jumpi\n      tag_206\n      tag_82\n      jump\t// in\n    tag_206:\n    tag_205:\n      swap1\n      0x00\n      mstore\n      keccak256(0x00, 0x20)\n      swap1\n      0x08\n      mul\n      add\n        /* \"contracts/CarreraCoches/principal.sol\":6044:6064  listaCoches[i].nivel */\n      0x07\n      add\n      0x00\n        /* \"contracts/CarreraCoches/principal.sol\":6044:6066  listaCoches[i].nivel++ */\n      dup2\n      dup2\n      swap1\n      sload\n      swap1\n      0x0100\n      exp\n      swap1\n      div\n      0xffffffff\n      and\n      dup1\n      swap3\n      swap2\n      swap1\n      tag_208\n      swap1\n      tag_124\n      jump\t// in\n    tag_208:\n      swap2\n      swap1\n      0x0100\n      exp\n      dup2\n      sload\n      dup2\n      0xffffffff\n      mul\n      not\n      and\n      swap1\n      dup4\n      0xffffffff\n      and\n      mul\n      or\n      swap1\n      sstore\n      pop\n      pop\n        /* \"contracts/CarreraCoches/principal.sol\":6097:6116  return \"Has ganado\" */\n      mload(0x40)\n      dup1\n      0x40\n      add\n      0x40\n      mstore\n      dup1\n      0x0a\n      dup2\n      mstore\n      0x20\n      add\n      0x4861732067616e61646f00000000000000000000000000000000000000000000\n      dup2\n      mstore\n      pop\n      swap6\n      pop\n      pop\n      pop\n      pop\n      pop\n      pop\n      jump(tag_126)\n        /* \"contracts/CarreraCoches/principal.sol\":5895:6470  if(ganador<=50){\r... */\n    tag_199:\n        /* \"contracts/CarreraCoches/principal.sol\":6272:6322  confirmacionDepositoLleno(\"El coche ganador es: \") */\n      0x6158fc8f21c8cc73ddf920956cc75d0e8a48b4fc85817a0ba89eb3b6d2a75441\n      mload(0x40)\n      tag_210\n      swap1\n      tag_186\n      jump\t// in\n    tag_210:\n      mload(0x40)\n      dup1\n      swap2\n      sub\n      swap1\n      log1\n        /* \"contracts/CarreraCoches/principal.sol\":6353:6357  this */\n      address\n        /* \"contracts/CarreraCoches/principal.sol\":6353:6377  this.verCochePropietario */\n      0xffffffffffffffffffffffffffffffffffffffff\n      and\n      0xe172fca8\n        /* \"contracts/CarreraCoches/principal.sol\":6378:6390  addressRival */\n      dup6\n        /* \"contracts/CarreraCoches/principal.sol\":6353:6391  this.verCochePropietario(addressRival) */\n      mload(0x40)\n      dup3\n      0xffffffff\n      and\n      0xe0\n      shl\n      dup2\n      mstore\n      0x04\n      add\n      tag_211\n      swap2\n      swap1\n      tag_51\n      jump\t// in\n    tag_211:\n      0x00\n      mload(0x40)\n      dup1\n      dup4\n      sub\n      dup2\n      0x00\n      dup8\n      dup1\n      extcodesize\n      iszero\n      dup1\n      iszero\n      tag_212\n      jumpi\n      0x00\n      dup1\n      revert\n    tag_212:\n      pop\n      gas\n      call\n      iszero\n      dup1\n      iszero\n      tag_214\n      jumpi\n      returndatasize\n      0x00\n      dup1\n      returndatacopy\n      revert(0x00, returndatasize)\n    tag_214:\n      pop\n      pop\n      pop\n      pop\n        /* \"contracts/CarreraCoches/principal.sol\":6422:6442  return \"Has perdido\" */\n      mload(0x40)\n      dup1\n      0x40\n      add\n      0x40\n      mstore\n      dup1\n      0x0b\n      dup2\n      mstore\n      0x20\n      add\n      0x486173207065726469646f000000000000000000000000000000000000000000\n      dup2\n      mstore\n      pop\n      swap6\n      pop\n      pop\n      pop\n      pop\n      pop\n      pop\n      jump(tag_126)\n        /* \"contracts/CarreraCoches/principal.sol\":5816:7241  if(listaCoches[rival].nivel == listaCoches[i].nivel){\r... */\n    tag_198:\n        /* \"contracts/CarreraCoches/principal.sol\":6537:6539  40 */\n      0x28\n        /* \"contracts/CarreraCoches/principal.sol\":6528:6535  ganador */\n      dup3\n        /* \"contracts/CarreraCoches/principal.sol\":6528:6539  ganador<=40 */\n      gt\n        /* \"contracts/CarreraCoches/principal.sol\":6525:7217  if(ganador<=40){\r... */\n      tag_216\n      jumpi\n        /* \"contracts/CarreraCoches/principal.sol\":6571:6580  balance() */\n      tag_217\n        /* \"contracts/CarreraCoches/principal.sol\":6571:6578  balance */\n      tag_175\n        /* \"contracts/CarreraCoches/principal.sol\":6571:6580  balance() */\n      jump\t// in\n    tag_217:\n        /* \"contracts/CarreraCoches/principal.sol\":6611:6622  listaCoches */\n      0x06\n        /* \"contracts/CarreraCoches/principal.sol\":6623:6624  i */\n      dup2\n        /* \"contracts/CarreraCoches/principal.sol\":6611:6625  listaCoches[i] */\n      dup2\n      sload\n      dup2\n      lt\n      tag_218\n      jumpi\n      tag_219\n      tag_82\n      jump\t// in\n    tag_219:\n    tag_218:\n      swap1\n      0x00\n      mstore\n      keccak256(0x00, 0x20)\n      swap1\n      0x08\n      mul\n      add\n        /* \"contracts/CarreraCoches/principal.sol\":6611:6641  listaCoches[i].carrerasGanadas */\n      0x04\n      add\n      0x00\n        /* \"contracts/CarreraCoches/principal.sol\":6611:6643  listaCoches[i].carrerasGanadas++ */\n      dup2\n      sload\n      dup1\n      swap3\n      swap2\n      swap1\n      tag_221\n      swap1\n      tag_95\n      jump\t// in\n    tag_221:\n      swap2\n      swap1\n      pop\n      sstore\n      pop\n        /* \"contracts/CarreraCoches/principal.sol\":6674:6685  listaCoches */\n      0x06\n        /* \"contracts/CarreraCoches/principal.sol\":6686:6687  i */\n      dup2\n        /* \"contracts/CarreraCoches/principal.sol\":6674:6688  listaCoches[i] */\n      dup2\n      sload\n      dup2\n      lt\n      tag_222\n      jumpi\n      tag_223\n      tag_82\n      jump\t// in\n    tag_223:\n    tag_222:\n      swap1\n      0x00\n      mstore\n      keccak256(0x00, 0x20)\n      swap1\n      0x08\n      mul\n      add\n        /* \"contracts/CarreraCoches/principal.sol\":6674:6694  listaCoches[i].nivel */\n      0x07\n      add\n      0x00\n        /* \"contracts/CarreraCoches/principal.sol\":6674:6696  listaCoches[i].nivel++ */\n      dup2\n      dup2\n      swap1\n      sload\n      swap1\n      0x0100\n      exp\n      swap1\n      div\n      0xffffffff\n      and\n      dup1\n      swap3\n      swap2\n      swap1\n      tag_225\n      swap1\n      tag_124\n      jump\t// in\n    tag_225:\n      swap2\n      swap1\n      0x0100\n      exp\n      dup2\n      sload\n      dup2\n      0xffffffff\n      mul\n      not\n      and\n      swap1\n      dup4\n      0xffffffff\n      and\n      mul\n      or\n      swap1\n      sstore\n      pop\n      pop\n        /* \"contracts/CarreraCoches/principal.sol\":6727:6746  return \"Has ganado\" */\n      mload(0x40)\n      dup1\n      0x40\n      add\n      0x40\n      mstore\n      dup1\n      0x0a\n      dup2\n      mstore\n      0x20\n      add\n      0x4861732067616e61646f00000000000000000000000000000000000000000000\n      dup2\n      mstore\n      pop\n      swap6\n      pop\n      pop\n      pop\n      pop\n      pop\n      pop\n      jump(tag_126)\n        /* \"contracts/CarreraCoches/principal.sol\":6525:7217  if(ganador<=40){\r... */\n    tag_216:\n        /* \"contracts/CarreraCoches/principal.sol\":6814:6864  confirmacionDepositoLleno(\"El coche ganador es: \") */\n      0x6158fc8f21c8cc73ddf920956cc75d0e8a48b4fc85817a0ba89eb3b6d2a75441\n      mload(0x40)\n      tag_227\n      swap1\n      tag_186\n      jump\t// in\n    tag_227:\n      mload(0x40)\n      dup1\n      swap2\n      sub\n      swap1\n      log1\n        /* \"contracts/CarreraCoches/principal.sol\":6895:6899  this */\n      address\n        /* \"contracts/CarreraCoches/principal.sol\":6895:6919  this.verCochePropietario */\n      0xffffffffffffffffffffffffffffffffffffffff\n      and\n      0xe172fca8\n        /* \"contracts/CarreraCoches/principal.sol\":6920:6932  addressRival */\n      dup6\n        /* \"contracts/CarreraCoches/principal.sol\":6895:6933  this.verCochePropietario(addressRival) */\n      mload(0x40)\n      dup3\n      0xffffffff\n      and\n      0xe0\n      shl\n      dup2\n      mstore\n      0x04\n      add\n      tag_228\n      swap2\n      swap1\n      tag_51\n      jump\t// in\n    tag_228:\n      0x00\n      mload(0x40)\n      dup1\n      dup4\n      sub\n      dup2\n      0x00\n      dup8\n      dup1\n      extcodesize\n      iszero\n      dup1\n      iszero\n      tag_229\n      jumpi\n      0x00\n      dup1\n      revert\n    tag_229:\n      pop\n      gas\n      call\n      iszero\n      dup1\n      iszero\n      tag_231\n      jumpi\n      returndatasize\n      0x00\n      dup1\n      returndatacopy\n      revert(0x00, returndatasize)\n    tag_231:\n      pop\n      pop\n      pop\n      pop\n        /* \"contracts/CarreraCoches/principal.sol\":7169:7189  return \"Has perdido\" */\n      mload(0x40)\n      dup1\n      0x40\n      add\n      0x40\n      mstore\n      dup1\n      0x0b\n      dup2\n      mstore\n      0x20\n      add\n      0x486173207065726469646f000000000000000000000000000000000000000000\n      dup2\n      mstore\n      pop\n      swap6\n      pop\n      pop\n      pop\n      pop\n      pop\n      pop\n      jump(tag_126)\n        /* \"contracts/CarreraCoches/principal.sol\":4841:7264  if (msg.sender == listaCoches[i].idPiloto) {\r... */\n    tag_146:\n        /* \"contracts/CarreraCoches/principal.sol\":4782:4785  i++ */\n      dup1\n      dup1\n      tag_232\n      swap1\n      tag_95\n      jump\t// in\n    tag_232:\n      swap2\n      pop\n      pop\n        /* \"contracts/CarreraCoches/principal.sol\":4742:7297  for(uint i = 0; i < listaCoches.length; i++){\r... */\n      jump(tag_140)\n    tag_141:\n      pop\n        /* \"contracts/CarreraCoches/principal.sol\":4202:7308  {\r... */\n      pop\n      pop\n      pop\n      pop\n        /* \"contracts/CarreraCoches/principal.sol\":4062:7308  if(listaCoches.length <= 1){\r... */\n    tag_130:\n        /* \"contracts/CarreraCoches/principal.sol\":3968:7314  function Apostar(uint dineroApostar) public payable returns(string memory) {\r... */\n    tag_126:\n      swap2\n      swap1\n      pop\n      jump\t// out\n        /* \"contracts/CarreraCoches/ownable.sol\":1719:1822  function renounceOwnership() public virtual onlyOwner {\r... */\n    tag_45:\n        /* \"contracts/CarreraCoches/ownable.sol\":1299:1311  _msgSender() */\n      tag_234\n        /* \"contracts/CarreraCoches/ownable.sol\":1299:1309  _msgSender */\n      tag_235\n        /* \"contracts/CarreraCoches/ownable.sol\":1299:1311  _msgSender() */\n      jump\t// in\n    tag_234:\n        /* \"contracts/CarreraCoches/ownable.sol\":1288:1311  owner() == _msgSender() */\n      0xffffffffffffffffffffffffffffffffffffffff\n      and\n        /* \"contracts/CarreraCoches/ownable.sol\":1288:1295  owner() */\n      tag_236\n        /* \"contracts/CarreraCoches/ownable.sol\":1288:1293  owner */\n      tag_54\n        /* \"contracts/CarreraCoches/ownable.sol\":1288:1295  owner() */\n      jump\t// in\n    tag_236:\n        /* \"contracts/CarreraCoches/ownable.sol\":1288:1311  owner() == _msgSender() */\n      0xffffffffffffffffffffffffffffffffffffffff\n      and\n      eq\n        /* \"contracts/CarreraCoches/ownable.sol\":1280:1348  require(owner() == _msgSender(), \"Ownable: caller is not the owner\") */\n      tag_237\n      jumpi\n      mload(0x40)\n      0x08c379a000000000000000000000000000000000000000000000000000000000\n      dup2\n      mstore\n      0x04\n      add\n      tag_238\n      swap1\n      tag_239\n      jump\t// in\n    tag_238:\n      mload(0x40)\n      dup1\n      swap2\n      sub\n      swap1\n      revert\n    tag_237:\n        /* \"contracts/CarreraCoches/ownable.sol\":1784:1814  _transferOwnership(address(0)) */\n      tag_241\n        /* \"contracts/CarreraCoches/ownable.sol\":1811:1812  0 */\n      0x00\n        /* \"contracts/CarreraCoches/ownable.sol\":1784:1802  _transferOwnership */\n      tag_242\n        /* \"contracts/CarreraCoches/ownable.sol\":1784:1814  _transferOwnership(address(0)) */\n      jump\t// in\n    tag_241:\n        /* \"contracts/CarreraCoches/ownable.sol\":1719:1822  function renounceOwnership() public virtual onlyOwner {\r... */\n      jump\t// out\n        /* \"contracts/CarreraCoches/principal.sol\":871:922  mapping (uint => address) public cocheDePropietario */\n    tag_49:\n      mstore(0x20, 0x07)\n      dup1\n      0x00\n      mstore\n      keccak256(0x00, 0x40)\n      0x00\n      swap2\n      pop\n      sload\n      swap1\n      0x0100\n      exp\n      swap1\n      div\n      0xffffffffffffffffffffffffffffffffffffffff\n      and\n      dup2\n      jump\t// out\n        /* \"contracts/CarreraCoches/ownable.sol\":1068:1155  function owner() public view virtual returns (address) {\r... */\n    tag_54:\n        /* \"contracts/CarreraCoches/ownable.sol\":1114:1121  address */\n      0x00\n        /* \"contracts/CarreraCoches/ownable.sol\":1141:1147  _owner */\n      dup1\n      0x00\n      swap1\n      sload\n      swap1\n      0x0100\n      exp\n      swap1\n      div\n      0xffffffffffffffffffffffffffffffffffffffff\n      and\n        /* \"contracts/CarreraCoches/ownable.sol\":1134:1147  return _owner */\n      swap1\n      pop\n        /* \"contracts/CarreraCoches/ownable.sol\":1068:1155  function owner() public view virtual returns (address) {\r... */\n      swap1\n      jump\t// out\n        /* \"contracts/CarreraCoches/ownable.sol\":701:722  address public _owner */\n    tag_58:\n      0x00\n      dup1\n      sload\n      swap1\n      0x0100\n      exp\n      swap1\n      div\n      0xffffffffffffffffffffffffffffffffffffffff\n      and\n      dup2\n      jump\t// out\n        /* \"contracts/CarreraCoches/principal.sol\":604:630  Coche[] public listaCoches */\n    tag_63:\n      0x06\n      dup2\n      dup2\n      sload\n      dup2\n      lt\n      tag_244\n      jumpi\n      0x00\n      dup1\n      revert\n    tag_244:\n      swap1\n      0x00\n      mstore\n      keccak256(0x00, 0x20)\n      swap1\n      0x08\n      mul\n      add\n      0x00\n      swap2\n      pop\n      swap1\n      pop\n      dup1\n      0x00\n      add\n      0x00\n      swap1\n      sload\n      swap1\n      0x0100\n      exp\n      swap1\n      div\n      0xffffffffffffffffffffffffffffffffffffffff\n      and\n      swap1\n      dup1\n      0x01\n      add\n      dup1\n      sload\n      tag_246\n      swap1\n      tag_247\n      jump\t// in\n    tag_246:\n      dup1\n      0x1f\n      add\n      0x20\n      dup1\n      swap2\n      div\n      mul\n      0x20\n      add\n      mload(0x40)\n      swap1\n      dup2\n      add\n      0x40\n      mstore\n      dup1\n      swap3\n      swap2\n      swap1\n      dup2\n      dup2\n      mstore\n      0x20\n      add\n      dup3\n      dup1\n      sload\n      tag_248\n      swap1\n      tag_247\n      jump\t// in\n    tag_248:\n      dup1\n      iszero\n      tag_249\n      jumpi\n      dup1\n      0x1f\n      lt\n      tag_250\n      jumpi\n      0x0100\n      dup1\n      dup4\n      sload\n      div\n      mul\n      dup4\n      mstore\n      swap2\n      0x20\n      add\n      swap2\n      jump(tag_249)\n    tag_250:\n      dup3\n      add\n      swap2\n      swap1\n      0x00\n      mstore\n      keccak256(0x00, 0x20)\n      swap1\n    tag_251:\n      dup2\n      sload\n      dup2\n      mstore\n      swap1\n      0x01\n      add\n      swap1\n      0x20\n      add\n      dup1\n      dup4\n      gt\n      tag_251\n      jumpi\n      dup3\n      swap1\n      sub\n      0x1f\n      and\n      dup3\n      add\n      swap2\n    tag_249:\n      pop\n      pop\n      pop\n      pop\n      pop\n      swap1\n      dup1\n      0x02\n      add\n      dup1\n      sload\n      tag_252\n      swap1\n      tag_247\n      jump\t// in\n    tag_252:\n      dup1\n      0x1f\n      add\n      0x20\n      dup1\n      swap2\n      div\n      mul\n      0x20\n      add\n      mload(0x40)\n      swap1\n      dup2\n      add\n      0x40\n      mstore\n      dup1\n      swap3\n      swap2\n      swap1\n      dup2\n      dup2\n      mstore\n      0x20\n      add\n      dup3\n      dup1\n      sload\n      tag_253\n      swap1\n      tag_247\n      jump\t// in\n    tag_253:\n      dup1\n      iszero\n      tag_254\n      jumpi\n      dup1\n      0x1f\n      lt\n      tag_255\n      jumpi\n      0x0100\n      dup1\n      dup4\n      sload\n      div\n      mul\n      dup4\n      mstore\n      swap2\n      0x20\n      add\n      swap2\n      jump(tag_254)\n    tag_255:\n      dup3\n      add\n      swap2\n      swap1\n      0x00\n      mstore\n      keccak256(0x00, 0x20)\n      swap1\n    tag_256:\n      dup2\n      sload\n      dup2\n      mstore\n      swap1\n      0x01\n      add\n      swap1\n      0x20\n      add\n      dup1\n      dup4\n      gt\n      tag_256\n      jumpi\n      dup3\n      swap1\n      sub\n      0x1f\n      and\n      dup3\n      add\n      swap2\n    tag_254:\n      pop\n      pop\n      pop\n      pop\n      pop\n      swap1\n      dup1\n      0x03\n      add\n      dup1\n      sload\n      tag_257\n      swap1\n      tag_247\n      jump\t// in\n    tag_257:\n      dup1\n      0x1f\n      add\n      0x20\n      dup1\n      swap2\n      div\n      mul\n      0x20\n      add\n      mload(0x40)\n      swap1\n      dup2\n      add\n      0x40\n      mstore\n      dup1\n      swap3\n      swap2\n      swap1\n      dup2\n      dup2\n      mstore\n      0x20\n      add\n      dup3\n      dup1\n      sload\n      tag_258\n      swap1\n      tag_247\n      jump\t// in\n    tag_258:\n      dup1\n      iszero\n      tag_259\n      jumpi\n      dup1\n      0x1f\n      lt\n      tag_260\n      jumpi\n      0x0100\n      dup1\n      dup4\n      sload\n      div\n      mul\n      dup4\n      mstore\n      swap2\n      0x20\n      add\n      swap2\n      jump(tag_259)\n    tag_260:\n      dup3\n      add\n      swap2\n      swap1\n      0x00\n      mstore\n      keccak256(0x00, 0x20)\n      swap1\n    tag_261:\n      dup2\n      sload\n      dup2\n      mstore\n      swap1\n      0x01\n      add\n      swap1\n      0x20\n      add\n      dup1\n      dup4\n      gt\n      tag_261\n      jumpi\n      dup3\n      swap1\n      sub\n      0x1f\n      and\n      dup3\n      add\n      swap2\n    tag_259:\n      pop\n      pop\n      pop\n      pop\n      pop\n      swap1\n      dup1\n      0x04\n      add\n      sload\n      swap1\n      dup1\n      0x05\n      add\n      sload\n      swap1\n      dup1\n      0x06\n      add\n      sload\n      swap1\n      dup1\n      0x07\n      add\n      0x00\n      swap1\n      sload\n      swap1\n      0x0100\n      exp\n      swap1\n      div\n      0xffffffff\n      and\n      swap1\n      pop\n      dup9\n      jump\t// out\n        /* \"contracts/CarreraCoches/principal.sol\":2989:3365  function verCochePropietario(address _propietario) external {\r... */\n    tag_69:\n        /* \"contracts/CarreraCoches/principal.sol\":3064:3070  uint i */\n      0x00\n        /* \"contracts/CarreraCoches/principal.sol\":3060:3358  for(uint i = 0; i < listaCoches.length; i++){\r... */\n    tag_263:\n        /* \"contracts/CarreraCoches/principal.sol\":3080:3091  listaCoches */\n      0x06\n        /* \"contracts/CarreraCoches/principal.sol\":3080:3098  listaCoches.length */\n      dup1\n      sload\n      swap1\n      pop\n        /* \"contracts/CarreraCoches/principal.sol\":3076:3077  i */\n      dup2\n        /* \"contracts/CarreraCoches/principal.sol\":3076:3098  i < listaCoches.length */\n      lt\n        /* \"contracts/CarreraCoches/principal.sol\":3060:3358  for(uint i = 0; i < listaCoches.length; i++){\r... */\n      iszero\n      tag_264\n      jumpi\n        /* \"contracts/CarreraCoches/principal.sol\":3147:3159  _propietario */\n      dup2\n        /* \"contracts/CarreraCoches/principal.sol\":3122:3159  listaCoches[i].idPiloto==_propietario */\n      0xffffffffffffffffffffffffffffffffffffffff\n      and\n        /* \"contracts/CarreraCoches/principal.sol\":3122:3133  listaCoches */\n      0x06\n        /* \"contracts/CarreraCoches/principal.sol\":3134:3135  i */\n      dup3\n        /* \"contracts/CarreraCoches/principal.sol\":3122:3136  listaCoches[i] */\n      dup2\n      sload\n      dup2\n      lt\n      tag_266\n      jumpi\n      tag_267\n      tag_82\n      jump\t// in\n    tag_267:\n    tag_266:\n      swap1\n      0x00\n      mstore\n      keccak256(0x00, 0x20)\n      swap1\n      0x08\n      mul\n      add\n        /* \"contracts/CarreraCoches/principal.sol\":3122:3145  listaCoches[i].idPiloto */\n      0x00\n      add\n      0x00\n      swap1\n      sload\n      swap1\n      0x0100\n      exp\n      swap1\n      div\n      0xffffffffffffffffffffffffffffffffffffffff\n      and\n        /* \"contracts/CarreraCoches/principal.sol\":3122:3159  listaCoches[i].idPiloto==_propietario */\n      0xffffffffffffffffffffffffffffffffffffffff\n      and\n      eq\n        /* \"contracts/CarreraCoches/principal.sol\":3119:3347  if(listaCoches[i].idPiloto==_propietario){\r... */\n      iszero\n      tag_269\n      jumpi\n        /* \"contracts/CarreraCoches/principal.sol\":3184:3331  cochePropietario(listaCoches[i].marca, listaCoches[i].modelo, listaCoches[i].nivel, listaCoches[i].carrerasGanadas, listaCoches[i].carrerasTotales) */\n      0x20fdb8ab571bfbab79104bea84f9c31cb79c5ae45b5f515c1d6c8393e0028350\n        /* \"contracts/CarreraCoches/principal.sol\":3201:3212  listaCoches */\n      0x06\n        /* \"contracts/CarreraCoches/principal.sol\":3213:3214  i */\n      dup3\n        /* \"contracts/CarreraCoches/principal.sol\":3201:3215  listaCoches[i] */\n      dup2\n      sload\n      dup2\n      lt\n      tag_270\n      jumpi\n      tag_271\n      tag_82\n      jump\t// in\n    tag_271:\n    tag_270:\n      swap1\n      0x00\n      mstore\n      keccak256(0x00, 0x20)\n      swap1\n      0x08\n      mul\n      add\n        /* \"contracts/CarreraCoches/principal.sol\":3201:3221  listaCoches[i].marca */\n      0x02\n      add\n        /* \"contracts/CarreraCoches/principal.sol\":3223:3234  listaCoches */\n      0x06\n        /* \"contracts/CarreraCoches/principal.sol\":3235:3236  i */\n      dup4\n        /* \"contracts/CarreraCoches/principal.sol\":3223:3237  listaCoches[i] */\n      dup2\n      sload\n      dup2\n      lt\n      tag_273\n      jumpi\n      tag_274\n      tag_82\n      jump\t// in\n    tag_274:\n    tag_273:\n      swap1\n      0x00\n      mstore\n      keccak256(0x00, 0x20)\n      swap1\n      0x08\n      mul\n      add\n        /* \"contracts/CarreraCoches/principal.sol\":3223:3244  listaCoches[i].modelo */\n      0x01\n      add\n        /* \"contracts/CarreraCoches/principal.sol\":3246:3257  listaCoches */\n      0x06\n        /* \"contracts/CarreraCoches/principal.sol\":3258:3259  i */\n      dup5\n        /* \"contracts/CarreraCoches/principal.sol\":3246:3260  listaCoches[i] */\n      dup2\n      sload\n      dup2\n      lt\n      tag_276\n      jumpi\n      tag_277\n      tag_82\n      jump\t// in\n    tag_277:\n    tag_276:\n      swap1\n      0x00\n      mstore\n      keccak256(0x00, 0x20)\n      swap1\n      0x08\n      mul\n      add\n        /* \"contracts/CarreraCoches/principal.sol\":3246:3266  listaCoches[i].nivel */\n      0x07\n      add\n      0x00\n      swap1\n      sload\n      swap1\n      0x0100\n      exp\n      swap1\n      div\n      0xffffffff\n      and\n        /* \"contracts/CarreraCoches/principal.sol\":3268:3279  listaCoches */\n      0x06\n        /* \"contracts/CarreraCoches/principal.sol\":3280:3281  i */\n      dup6\n        /* \"contracts/CarreraCoches/principal.sol\":3268:3282  listaCoches[i] */\n      dup2\n      sload\n      dup2\n      lt\n      tag_279\n      jumpi\n      tag_280\n      tag_82\n      jump\t// in\n    tag_280:\n    tag_279:\n      swap1\n      0x00\n      mstore\n      keccak256(0x00, 0x20)\n      swap1\n      0x08\n      mul\n      add\n        /* \"contracts/CarreraCoches/principal.sol\":3268:3298  listaCoches[i].carrerasGanadas */\n      0x04\n      add\n      sload\n        /* \"contracts/CarreraCoches/principal.sol\":3300:3311  listaCoches */\n      0x06\n        /* \"contracts/CarreraCoches/principal.sol\":3312:3313  i */\n      dup7\n        /* \"contracts/CarreraCoches/principal.sol\":3300:3314  listaCoches[i] */\n      dup2\n      sload\n      dup2\n      lt\n      tag_282\n      jumpi\n      tag_283\n      tag_82\n      jump\t// in\n    tag_283:\n    tag_282:\n      swap1\n      0x00\n      mstore\n      keccak256(0x00, 0x20)\n      swap1\n      0x08\n      mul\n      add\n        /* \"contracts/CarreraCoches/principal.sol\":3300:3330  listaCoches[i].carrerasTotales */\n      0x05\n      add\n      sload\n        /* \"contracts/CarreraCoches/principal.sol\":3184:3331  cochePropietario(listaCoches[i].marca, listaCoches[i].modelo, listaCoches[i].nivel, listaCoches[i].carrerasGanadas, listaCoches[i].carrerasTotales) */\n      mload(0x40)\n      tag_285\n      swap6\n      swap5\n      swap4\n      swap3\n      swap2\n      swap1\n      tag_286\n      jump\t// in\n    tag_285:\n      mload(0x40)\n      dup1\n      swap2\n      sub\n      swap1\n      log1\n        /* \"contracts/CarreraCoches/principal.sol\":3119:3347  if(listaCoches[i].idPiloto==_propietario){\r... */\n    tag_269:\n        /* \"contracts/CarreraCoches/principal.sol\":3100:3103  i++ */\n      dup1\n      dup1\n      tag_287\n      swap1\n      tag_95\n      jump\t// in\n    tag_287:\n      swap2\n      pop\n      pop\n        /* \"contracts/CarreraCoches/principal.sol\":3060:3358  for(uint i = 0; i < listaCoches.length; i++){\r... */\n      jump(tag_263)\n    tag_264:\n      pop\n        /* \"contracts/CarreraCoches/principal.sol\":2989:3365  function verCochePropietario(address _propietario) external {\r... */\n      pop\n      jump\t// out\n        /* \"contracts/CarreraCoches/ownable.sol\":1977:2178  function transferOwnership(address newOwner) public virtual onlyOwner {\r... */\n    tag_73:\n        /* \"contracts/CarreraCoches/ownable.sol\":1299:1311  _msgSender() */\n      tag_289\n        /* \"contracts/CarreraCoches/ownable.sol\":1299:1309  _msgSender */\n      tag_235\n        /* \"contracts/CarreraCoches/ownable.sol\":1299:1311  _msgSender() */\n      jump\t// in\n    tag_289:\n        /* \"contracts/CarreraCoches/ownable.sol\":1288:1311  owner() == _msgSender() */\n      0xffffffffffffffffffffffffffffffffffffffff\n      and\n        /* \"contracts/CarreraCoches/ownable.sol\":1288:1295  owner() */\n      tag_290\n        /* \"contracts/CarreraCoches/ownable.sol\":1288:1293  owner */\n      tag_54\n        /* \"contracts/CarreraCoches/ownable.sol\":1288:1295  owner() */\n      jump\t// in\n    tag_290:\n        /* \"contracts/CarreraCoches/ownable.sol\":1288:1311  owner() == _msgSender() */\n      0xffffffffffffffffffffffffffffffffffffffff\n      and\n      eq\n        /* \"contracts/CarreraCoches/ownable.sol\":1280:1348  require(owner() == _msgSender(), \"Ownable: caller is not the owner\") */\n      tag_291\n      jumpi\n      mload(0x40)\n      0x08c379a000000000000000000000000000000000000000000000000000000000\n      dup2\n      mstore\n      0x04\n      add\n      tag_292\n      swap1\n      tag_239\n      jump\t// in\n    tag_292:\n      mload(0x40)\n      dup1\n      swap2\n      sub\n      swap1\n      revert\n    tag_291:\n        /* \"contracts/CarreraCoches/ownable.sol\":2086:2087  0 */\n      0x00\n        /* \"contracts/CarreraCoches/ownable.sol\":2066:2088  newOwner != address(0) */\n      0xffffffffffffffffffffffffffffffffffffffff\n      and\n        /* \"contracts/CarreraCoches/ownable.sol\":2066:2074  newOwner */\n      dup2\n        /* \"contracts/CarreraCoches/ownable.sol\":2066:2088  newOwner != address(0) */\n      0xffffffffffffffffffffffffffffffffffffffff\n      and\n      eq\n      iszero\n        /* \"contracts/CarreraCoches/ownable.sol\":2058:2131  require(newOwner != address(0), \"Ownable: new owner is the zero address\") */\n      tag_294\n      jumpi\n      mload(0x40)\n      0x08c379a000000000000000000000000000000000000000000000000000000000\n      dup2\n      mstore\n      0x04\n      add\n      tag_295\n      swap1\n      tag_296\n      jump\t// in\n    tag_295:\n      mload(0x40)\n      dup1\n      swap2\n      sub\n      swap1\n      revert\n    tag_294:\n        /* \"contracts/CarreraCoches/ownable.sol\":2142:2170  _transferOwnership(newOwner) */\n      tag_297\n        /* \"contracts/CarreraCoches/ownable.sol\":2161:2169  newOwner */\n      dup2\n        /* \"contracts/CarreraCoches/ownable.sol\":2142:2160  _transferOwnership */\n      tag_242\n        /* \"contracts/CarreraCoches/ownable.sol\":2142:2170  _transferOwnership(newOwner) */\n      jump\t// in\n    tag_297:\n        /* \"contracts/CarreraCoches/ownable.sol\":1977:2178  function transferOwnership(address newOwner) public virtual onlyOwner {\r... */\n      pop\n      jump\t// out\n        /* \"contracts/CarreraCoches/principal.sol\":2398:2537  function _depositoLleno(Coche storage _coche) internal view returns (bool) {\r... */\n    tag_151:\n        /* \"contracts/CarreraCoches/principal.sol\":2467:2471  bool */\n      0x00\n        /* \"contracts/CarreraCoches/principal.sol\":2514:2529  block.timestamp */\n      timestamp\n        /* \"contracts/CarreraCoches/principal.sol\":2491:2497  _coche */\n      dup3\n        /* \"contracts/CarreraCoches/principal.sol\":2491:2510  _coche.tiempoEspera */\n      0x06\n      add\n      sload\n        /* \"contracts/CarreraCoches/principal.sol\":2491:2529  _coche.tiempoEspera <= block.timestamp */\n      gt\n      iszero\n        /* \"contracts/CarreraCoches/principal.sol\":2484:2529  return _coche.tiempoEspera <= block.timestamp */\n      swap1\n      pop\n        /* \"contracts/CarreraCoches/principal.sol\":2398:2537  function _depositoLleno(Coche storage _coche) internal view returns (bool) {\r... */\n      swap2\n      swap1\n      pop\n      jump\t// out\n        /* \"contracts/CarreraCoches/principal.sol\":2245:2372  function _repostando(Coche storage _coche) internal {\r... */\n    tag_165:\n        /* \"contracts/CarreraCoches/principal.sol\":2355:2363  cooldown */\n      sload(0x03)\n        /* \"contracts/CarreraCoches/principal.sol\":2337:2352  block.timestamp */\n      timestamp\n        /* \"contracts/CarreraCoches/principal.sol\":2337:2363  block.timestamp + cooldown */\n      tag_300\n      swap2\n      swap1\n      tag_102\n      jump\t// in\n    tag_300:\n        /* \"contracts/CarreraCoches/principal.sol\":2308:2364  _coche.tiempoEspera = uint32(block.timestamp + cooldown) */\n      0xffffffff\n      and\n        /* \"contracts/CarreraCoches/principal.sol\":2308:2314  _coche */\n      dup2\n        /* \"contracts/CarreraCoches/principal.sol\":2308:2327  _coche.tiempoEspera */\n      0x06\n      add\n        /* \"contracts/CarreraCoches/principal.sol\":2308:2364  _coche.tiempoEspera = uint32(block.timestamp + cooldown) */\n      dup2\n      swap1\n      sstore\n      pop\n        /* \"contracts/CarreraCoches/principal.sol\":2245:2372  function _repostando(Coche storage _coche) internal {\r... */\n      pop\n      jump\t// out\n        /* \"contracts/CarreraCoches/principal.sol\":7371:7469  function balance() private {\r... */\n    tag_175:\n        /* \"contracts/CarreraCoches/principal.sol\":7418:7428  msg.sender */\n      caller\n        /* \"contracts/CarreraCoches/principal.sol\":7409:7438  payable (msg.sender).transfer */\n      0xffffffffffffffffffffffffffffffffffffffff\n      and\n        /* \"contracts/CarreraCoches/principal.sol\":7409:7461  payable (msg.sender).transfer(address(this).balance) */\n      0x08fc\n        /* \"contracts/CarreraCoches/principal.sol\":7439:7460  address(this).balance */\n      selfbalance\n        /* \"contracts/CarreraCoches/principal.sol\":7409:7461  payable (msg.sender).transfer(address(this).balance) */\n      swap1\n      dup2\n      iszero\n      mul\n      swap1\n      mload(0x40)\n      0x00\n      mload(0x40)\n      dup1\n      dup4\n      sub\n      dup2\n      dup6\n      dup9\n      dup9\n      call\n      swap4\n      pop\n      pop\n      pop\n      pop\n      iszero\n      dup1\n      iszero\n      tag_303\n      jumpi\n      returndatasize\n      0x00\n      dup1\n      returndatacopy\n      revert(0x00, returndatasize)\n    tag_303:\n      pop\n        /* \"contracts/CarreraCoches/principal.sol\":7371:7469  function balance() private {\r... */\n      jump\t// out\n        /* \"contracts/CarreraCoches/utils/Context.sol\":656:754  function _msgSender() internal view virtual returns (address) {\r... */\n    tag_235:\n        /* \"contracts/CarreraCoches/utils/Context.sol\":709:716  address */\n      0x00\n        /* \"contracts/CarreraCoches/utils/Context.sol\":736:746  msg.sender */\n      caller\n        /* \"contracts/CarreraCoches/utils/Context.sol\":729:746  return msg.sender */\n      swap1\n      pop\n        /* \"contracts/CarreraCoches/utils/Context.sol\":656:754  function _msgSender() internal view virtual returns (address) {\r... */\n      swap1\n      jump\t// out\n        /* \"contracts/CarreraCoches/ownable.sol\":2338:2529  function _transferOwnership(address newOwner) internal virtual {\r... */\n    tag_242:\n        /* \"contracts/CarreraCoches/ownable.sol\":2412:2428  address oldOwner */\n      0x00\n        /* \"contracts/CarreraCoches/ownable.sol\":2431:2437  _owner */\n      dup1\n      0x00\n      swap1\n      sload\n      swap1\n      0x0100\n      exp\n      swap1\n      div\n      0xffffffffffffffffffffffffffffffffffffffff\n      and\n        /* \"contracts/CarreraCoches/ownable.sol\":2412:2437  address oldOwner = _owner */\n      swap1\n      pop\n        /* \"contracts/CarreraCoches/ownable.sol\":2457:2465  newOwner */\n      dup2\n        /* \"contracts/CarreraCoches/ownable.sol\":2448:2454  _owner */\n      0x00\n      dup1\n        /* \"contracts/CarreraCoches/ownable.sol\":2448:2465  _owner = newOwner */\n      0x0100\n      exp\n      dup2\n      sload\n      dup2\n      0xffffffffffffffffffffffffffffffffffffffff\n      mul\n      not\n      and\n      swap1\n      dup4\n      0xffffffffffffffffffffffffffffffffffffffff\n      and\n      mul\n      or\n      swap1\n      sstore\n      pop\n        /* \"contracts/CarreraCoches/ownable.sol\":2512:2520  newOwner */\n      dup2\n        /* \"contracts/CarreraCoches/ownable.sol\":2481:2521  OwnershipTransferred(oldOwner, newOwner) */\n      0xffffffffffffffffffffffffffffffffffffffff\n      and\n        /* \"contracts/CarreraCoches/ownable.sol\":2502:2510  oldOwner */\n      dup2\n        /* \"contracts/CarreraCoches/ownable.sol\":2481:2521  OwnershipTransferred(oldOwner, newOwner) */\n      0xffffffffffffffffffffffffffffffffffffffff\n      and\n      0x8be0079c531659141344cd1fd0a4f28419497f9722a3daafe3b4186f6b6457e0\n      mload(0x40)\n      mload(0x40)\n      dup1\n      swap2\n      sub\n      swap1\n      log3\n        /* \"contracts/CarreraCoches/ownable.sol\":2401:2529  {\r... */\n      pop\n        /* \"contracts/CarreraCoches/ownable.sol\":2338:2529  function _transferOwnership(address newOwner) internal virtual {\r... */\n      pop\n      jump\t// out\n    tag_89:\n      dup3\n      dup1\n      sload\n      tag_306\n      swap1\n      tag_247\n      jump\t// in\n    tag_306:\n      swap1\n      0x00\n      mstore\n      keccak256(0x00, 0x20)\n      swap1\n      0x1f\n      add\n      0x20\n      swap1\n      div\n      dup2\n      add\n      swap3\n      dup3\n      tag_308\n      jumpi\n      0x00\n      dup6\n      sstore\n      jump(tag_307)\n    tag_308:\n      dup3\n      0x1f\n      lt\n      tag_309\n      jumpi\n      dup1\n      mload\n      not(0xff)\n      and\n      dup4\n      dup1\n      add\n      or\n      dup6\n      sstore\n      jump(tag_307)\n    tag_309:\n      dup3\n      dup1\n      add\n      0x01\n      add\n      dup6\n      sstore\n      dup3\n      iszero\n      tag_307\n      jumpi\n      swap2\n      dup3\n      add\n    tag_310:\n      dup3\n      dup2\n      gt\n      iszero\n      tag_311\n      jumpi\n      dup3\n      mload\n      dup3\n      sstore\n      swap2\n      0x20\n      add\n      swap2\n      swap1\n      0x01\n      add\n      swap1\n      jump(tag_310)\n    tag_311:\n    tag_307:\n      pop\n      swap1\n      pop\n      tag_312\n      swap2\n      swap1\n      tag_313\n      jump\t// in\n    tag_312:\n      pop\n      swap1\n      jump\t// out\n    tag_313:\n    tag_314:\n      dup1\n      dup3\n      gt\n      iszero\n      tag_315\n      jumpi\n      0x00\n      dup2\n      0x00\n      swap1\n      sstore\n      pop\n      0x01\n      add\n      jump(tag_314)\n    tag_315:\n      pop\n      swap1\n      jump\t// out\n        /* \"#utility.yul\":7:419   */\n    tag_317:\n        /* \"#utility.yul\":85:90   */\n      0x00\n        /* \"#utility.yul\":110:176   */\n      tag_319\n        /* \"#utility.yul\":126:175   */\n      tag_320\n        /* \"#utility.yul\":168:174   */\n      dup5\n        /* \"#utility.yul\":126:175   */\n      tag_321\n      jump\t// in\n    tag_320:\n        /* \"#utility.yul\":110:176   */\n      tag_322\n      jump\t// in\n    tag_319:\n        /* \"#utility.yul\":101:176   */\n      swap1\n      pop\n        /* \"#utility.yul\":199:205   */\n      dup3\n        /* \"#utility.yul\":192:197   */\n      dup2\n        /* \"#utility.yul\":185:206   */\n      mstore\n        /* \"#utility.yul\":237:241   */\n      0x20\n        /* \"#utility.yul\":230:235   */\n      dup2\n        /* \"#utility.yul\":226:242   */\n      add\n        /* \"#utility.yul\":275:278   */\n      dup5\n        /* \"#utility.yul\":266:272   */\n      dup5\n        /* \"#utility.yul\":261:264   */\n      dup5\n        /* \"#utility.yul\":257:273   */\n      add\n        /* \"#utility.yul\":254:279   */\n      gt\n        /* \"#utility.yul\":251:363   */\n      iszero\n      tag_323\n      jumpi\n        /* \"#utility.yul\":282:361   */\n      tag_324\n      tag_325\n      jump\t// in\n    tag_324:\n        /* \"#utility.yul\":251:363   */\n    tag_323:\n        /* \"#utility.yul\":372:413   */\n      tag_326\n        /* \"#utility.yul\":406:412   */\n      dup5\n        /* \"#utility.yul\":401:404   */\n      dup3\n        /* \"#utility.yul\":396:399   */\n      dup6\n        /* \"#utility.yul\":372:413   */\n      tag_327\n      jump\t// in\n    tag_326:\n        /* \"#utility.yul\":91:419   */\n      pop\n        /* \"#utility.yul\":7:419   */\n      swap4\n      swap3\n      pop\n      pop\n      pop\n      jump\t// out\n        /* \"#utility.yul\":425:564   */\n    tag_328:\n        /* \"#utility.yul\":471:476   */\n      0x00\n        /* \"#utility.yul\":509:515   */\n      dup2\n        /* \"#utility.yul\":496:516   */\n      calldataload\n        /* \"#utility.yul\":487:516   */\n      swap1\n      pop\n        /* \"#utility.yul\":525:558   */\n      tag_330\n        /* \"#utility.yul\":552:557   */\n      dup2\n        /* \"#utility.yul\":525:558   */\n      tag_331\n      jump\t// in\n    tag_330:\n        /* \"#utility.yul\":425:564   */\n      swap3\n      swap2\n      pop\n      pop\n      jump\t// out\n        /* \"#utility.yul\":584:924   */\n    tag_332:\n        /* \"#utility.yul\":640:645   */\n      0x00\n        /* \"#utility.yul\":689:692   */\n      dup3\n        /* \"#utility.yul\":682:686   */\n      0x1f\n        /* \"#utility.yul\":674:680   */\n      dup4\n        /* \"#utility.yul\":670:687   */\n      add\n        /* \"#utility.yul\":666:693   */\n      slt\n        /* \"#utility.yul\":656:778   */\n      tag_334\n      jumpi\n        /* \"#utility.yul\":697:776   */\n      tag_335\n      tag_336\n      jump\t// in\n    tag_335:\n        /* \"#utility.yul\":656:778   */\n    tag_334:\n        /* \"#utility.yul\":814:820   */\n      dup2\n        /* \"#utility.yul\":801:821   */\n      calldataload\n        /* \"#utility.yul\":839:918   */\n      tag_337\n        /* \"#utility.yul\":914:917   */\n      dup5\n        /* \"#utility.yul\":906:912   */\n      dup3\n        /* \"#utility.yul\":899:903   */\n      0x20\n        /* \"#utility.yul\":891:897   */\n      dup7\n        /* \"#utility.yul\":887:904   */\n      add\n        /* \"#utility.yul\":839:918   */\n      tag_317\n      jump\t// in\n    tag_337:\n        /* \"#utility.yul\":830:918   */\n      swap2\n      pop\n        /* \"#utility.yul\":646:924   */\n      pop\n        /* \"#utility.yul\":584:924   */\n      swap3\n      swap2\n      pop\n      pop\n      jump\t// out\n        /* \"#utility.yul\":930:1069   */\n    tag_338:\n        /* \"#utility.yul\":976:981   */\n      0x00\n        /* \"#utility.yul\":1014:1020   */\n      dup2\n        /* \"#utility.yul\":1001:1021   */\n      calldataload\n        /* \"#utility.yul\":992:1021   */\n      swap1\n      pop\n        /* \"#utility.yul\":1030:1063   */\n      tag_340\n        /* \"#utility.yul\":1057:1062   */\n      dup2\n        /* \"#utility.yul\":1030:1063   */\n      tag_341\n      jump\t// in\n    tag_340:\n        /* \"#utility.yul\":930:1069   */\n      swap3\n      swap2\n      pop\n      pop\n      jump\t// out\n        /* \"#utility.yul\":1075:1404   */\n    tag_24:\n        /* \"#utility.yul\":1134:1140   */\n      0x00\n        /* \"#utility.yul\":1183:1185   */\n      0x20\n        /* \"#utility.yul\":1171:1180   */\n      dup3\n        /* \"#utility.yul\":1162:1169   */\n      dup5\n        /* \"#utility.yul\":1158:1181   */\n      sub\n        /* \"#utility.yul\":1154:1186   */\n      slt\n        /* \"#utility.yul\":1151:1270   */\n      iszero\n      tag_343\n      jumpi\n        /* \"#utility.yul\":1189:1268   */\n      tag_344\n      tag_345\n      jump\t// in\n    tag_344:\n        /* \"#utility.yul\":1151:1270   */\n    tag_343:\n        /* \"#utility.yul\":1309:1310   */\n      0x00\n        /* \"#utility.yul\":1334:1387   */\n      tag_346\n        /* \"#utility.yul\":1379:1386   */\n      dup5\n        /* \"#utility.yul\":1370:1376   */\n      dup3\n        /* \"#utility.yul\":1359:1368   */\n      dup6\n        /* \"#utility.yul\":1355:1377   */\n      add\n        /* \"#utility.yul\":1334:1387   */\n      tag_328\n      jump\t// in\n    tag_346:\n        /* \"#utility.yul\":1324:1387   */\n      swap2\n      pop\n        /* \"#utility.yul\":1280:1397   */\n      pop\n        /* \"#utility.yul\":1075:1404   */\n      swap3\n      swap2\n      pop\n      pop\n      jump\t// out\n        /* \"#utility.yul\":1410:2389   */\n    tag_17:\n        /* \"#utility.yul\":1507:1513   */\n      0x00\n        /* \"#utility.yul\":1515:1521   */\n      dup1\n        /* \"#utility.yul\":1523:1529   */\n      0x00\n        /* \"#utility.yul\":1572:1574   */\n      0x60\n        /* \"#utility.yul\":1560:1569   */\n      dup5\n        /* \"#utility.yul\":1551:1558   */\n      dup7\n        /* \"#utility.yul\":1547:1570   */\n      sub\n        /* \"#utility.yul\":1543:1575   */\n      slt\n        /* \"#utility.yul\":1540:1659   */\n      iszero\n      tag_348\n      jumpi\n        /* \"#utility.yul\":1578:1657   */\n      tag_349\n      tag_345\n      jump\t// in\n    tag_349:\n        /* \"#utility.yul\":1540:1659   */\n    tag_348:\n        /* \"#utility.yul\":1698:1699   */\n      0x00\n        /* \"#utility.yul\":1723:1776   */\n      tag_350\n        /* \"#utility.yul\":1768:1775   */\n      dup7\n        /* \"#utility.yul\":1759:1765   */\n      dup3\n        /* \"#utility.yul\":1748:1757   */\n      dup8\n        /* \"#utility.yul\":1744:1766   */\n      add\n        /* \"#utility.yul\":1723:1776   */\n      tag_328\n      jump\t// in\n    tag_350:\n        /* \"#utility.yul\":1713:1776   */\n      swap4\n      pop\n        /* \"#utility.yul\":1669:1786   */\n      pop\n        /* \"#utility.yul\":1853:1855   */\n      0x20\n        /* \"#utility.yul\":1842:1851   */\n      dup5\n        /* \"#utility.yul\":1838:1856   */\n      add\n        /* \"#utility.yul\":1825:1857   */\n      calldataload\n        /* \"#utility.yul\":1884:1902   */\n      0xffffffffffffffff\n        /* \"#utility.yul\":1876:1882   */\n      dup2\n        /* \"#utility.yul\":1873:1903   */\n      gt\n        /* \"#utility.yul\":1870:1987   */\n      iszero\n      tag_351\n      jumpi\n        /* \"#utility.yul\":1906:1985   */\n      tag_352\n      tag_353\n      jump\t// in\n    tag_352:\n        /* \"#utility.yul\":1870:1987   */\n    tag_351:\n        /* \"#utility.yul\":2011:2074   */\n      tag_354\n        /* \"#utility.yul\":2066:2073   */\n      dup7\n        /* \"#utility.yul\":2057:2063   */\n      dup3\n        /* \"#utility.yul\":2046:2055   */\n      dup8\n        /* \"#utility.yul\":2042:2064   */\n      add\n        /* \"#utility.yul\":2011:2074   */\n      tag_332\n      jump\t// in\n    tag_354:\n        /* \"#utility.yul\":2001:2074   */\n      swap3\n      pop\n        /* \"#utility.yul\":1796:2084   */\n      pop\n        /* \"#utility.yul\":2151:2153   */\n      0x40\n        /* \"#utility.yul\":2140:2149   */\n      dup5\n        /* \"#utility.yul\":2136:2154   */\n      add\n        /* \"#utility.yul\":2123:2155   */\n      calldataload\n        /* \"#utility.yul\":2182:2200   */\n      0xffffffffffffffff\n        /* \"#utility.yul\":2174:2180   */\n      dup2\n        /* \"#utility.yul\":2171:2201   */\n      gt\n        /* \"#utility.yul\":2168:2285   */\n      iszero\n      tag_355\n      jumpi\n        /* \"#utility.yul\":2204:2283   */\n      tag_356\n      tag_353\n      jump\t// in\n    tag_356:\n        /* \"#utility.yul\":2168:2285   */\n    tag_355:\n        /* \"#utility.yul\":2309:2372   */\n      tag_357\n        /* \"#utility.yul\":2364:2371   */\n      dup7\n        /* \"#utility.yul\":2355:2361   */\n      dup3\n        /* \"#utility.yul\":2344:2353   */\n      dup8\n        /* \"#utility.yul\":2340:2362   */\n      add\n        /* \"#utility.yul\":2309:2372   */\n      tag_332\n      jump\t// in\n    tag_357:\n        /* \"#utility.yul\":2299:2372   */\n      swap2\n      pop\n        /* \"#utility.yul\":2094:2382   */\n      pop\n        /* \"#utility.yul\":1410:2389   */\n      swap3\n      pop\n      swap3\n      pop\n      swap3\n      jump\t// out\n        /* \"#utility.yul\":2395:3554   */\n    tag_31:\n        /* \"#utility.yul\":2502:2508   */\n      0x00\n        /* \"#utility.yul\":2510:2516   */\n      dup1\n        /* \"#utility.yul\":2518:2524   */\n      0x00\n        /* \"#utility.yul\":2567:2569   */\n      0x60\n        /* \"#utility.yul\":2555:2564   */\n      dup5\n        /* \"#utility.yul\":2546:2553   */\n      dup7\n        /* \"#utility.yul\":2542:2565   */\n      sub\n        /* \"#utility.yul\":2538:2570   */\n      slt\n        /* \"#utility.yul\":2535:2654   */\n      iszero\n      tag_359\n      jumpi\n        /* \"#utility.yul\":2573:2652   */\n      tag_360\n      tag_345\n      jump\t// in\n    tag_360:\n        /* \"#utility.yul\":2535:2654   */\n    tag_359:\n        /* \"#utility.yul\":2721:2722   */\n      0x00\n        /* \"#utility.yul\":2710:2719   */\n      dup5\n        /* \"#utility.yul\":2706:2723   */\n      add\n        /* \"#utility.yul\":2693:2724   */\n      calldataload\n        /* \"#utility.yul\":2751:2769   */\n      0xffffffffffffffff\n        /* \"#utility.yul\":2743:2749   */\n      dup2\n        /* \"#utility.yul\":2740:2770   */\n      gt\n        /* \"#utility.yul\":2737:2854   */\n      iszero\n      tag_361\n      jumpi\n        /* \"#utility.yul\":2773:2852   */\n      tag_362\n      tag_353\n      jump\t// in\n    tag_362:\n        /* \"#utility.yul\":2737:2854   */\n    tag_361:\n        /* \"#utility.yul\":2878:2941   */\n      tag_363\n        /* \"#utility.yul\":2933:2940   */\n      dup7\n        /* \"#utility.yul\":2924:2930   */\n      dup3\n        /* \"#utility.yul\":2913:2922   */\n      dup8\n        /* \"#utility.yul\":2909:2931   */\n      add\n        /* \"#utility.yul\":2878:2941   */\n      tag_332\n      jump\t// in\n    tag_363:\n        /* \"#utility.yul\":2868:2941   */\n      swap4\n      pop\n        /* \"#utility.yul\":2664:2951   */\n      pop\n        /* \"#utility.yul\":3018:3020   */\n      0x20\n        /* \"#utility.yul\":3007:3016   */\n      dup5\n        /* \"#utility.yul\":3003:3021   */\n      add\n        /* \"#utility.yul\":2990:3022   */\n      calldataload\n        /* \"#utility.yul\":3049:3067   */\n      0xffffffffffffffff\n        /* \"#utility.yul\":3041:3047   */\n      dup2\n        /* \"#utility.yul\":3038:3068   */\n      gt\n        /* \"#utility.yul\":3035:3152   */\n      iszero\n      tag_364\n      jumpi\n        /* \"#utility.yul\":3071:3150   */\n      tag_365\n      tag_353\n      jump\t// in\n    tag_365:\n        /* \"#utility.yul\":3035:3152   */\n    tag_364:\n        /* \"#utility.yul\":3176:3239   */\n      tag_366\n        /* \"#utility.yul\":3231:3238   */\n      dup7\n        /* \"#utility.yul\":3222:3228   */\n      dup3\n        /* \"#utility.yul\":3211:3220   */\n      dup8\n        /* \"#utility.yul\":3207:3229   */\n      add\n        /* \"#utility.yul\":3176:3239   */\n      tag_332\n      jump\t// in\n    tag_366:\n        /* \"#utility.yul\":3166:3239   */\n      swap3\n      pop\n        /* \"#utility.yul\":2961:3249   */\n      pop\n        /* \"#utility.yul\":3316:3318   */\n      0x40\n        /* \"#utility.yul\":3305:3314   */\n      dup5\n        /* \"#utility.yul\":3301:3319   */\n      add\n        /* \"#utility.yul\":3288:3320   */\n      calldataload\n        /* \"#utility.yul\":3347:3365   */\n      0xffffffffffffffff\n        /* \"#utility.yul\":3339:3345   */\n      dup2\n        /* \"#utility.yul\":3336:3366   */\n      gt\n        /* \"#utility.yul\":3333:3450   */\n      iszero\n      tag_367\n      jumpi\n        /* \"#utility.yul\":3369:3448   */\n      tag_368\n      tag_353\n      jump\t// in\n    tag_368:\n        /* \"#utility.yul\":3333:3450   */\n    tag_367:\n        /* \"#utility.yul\":3474:3537   */\n      tag_369\n        /* \"#utility.yul\":3529:3536   */\n      dup7\n        /* \"#utility.yul\":3520:3526   */\n      dup3\n        /* \"#utility.yul\":3509:3518   */\n      dup8\n        /* \"#utility.yul\":3505:3527   */\n      add\n        /* \"#utility.yul\":3474:3537   */\n      tag_332\n      jump\t// in\n    tag_369:\n        /* \"#utility.yul\":3464:3537   */\n      swap2\n      pop\n        /* \"#utility.yul\":3259:3547   */\n      pop\n        /* \"#utility.yul\":2395:3554   */\n      swap3\n      pop\n      swap3\n      pop\n      swap3\n      jump\t// out\n        /* \"#utility.yul\":3560:3889   */\n    tag_40:\n        /* \"#utility.yul\":3619:3625   */\n      0x00\n        /* \"#utility.yul\":3668:3670   */\n      0x20\n        /* \"#utility.yul\":3656:3665   */\n      dup3\n        /* \"#utility.yul\":3647:3654   */\n      dup5\n        /* \"#utility.yul\":3643:3666   */\n      sub\n        /* \"#utility.yul\":3639:3671   */\n      slt\n        /* \"#utility.yul\":3636:3755   */\n      iszero\n      tag_371\n      jumpi\n        /* \"#utility.yul\":3674:3753   */\n      tag_372\n      tag_345\n      jump\t// in\n    tag_372:\n        /* \"#utility.yul\":3636:3755   */\n    tag_371:\n        /* \"#utility.yul\":3794:3795   */\n      0x00\n        /* \"#utility.yul\":3819:3872   */\n      tag_373\n        /* \"#utility.yul\":3864:3871   */\n      dup5\n        /* \"#utility.yul\":3855:3861   */\n      dup3\n        /* \"#utility.yul\":3844:3853   */\n      dup6\n        /* \"#utility.yul\":3840:3862   */\n      add\n        /* \"#utility.yul\":3819:3872   */\n      tag_338\n      jump\t// in\n    tag_373:\n        /* \"#utility.yul\":3809:3872   */\n      swap2\n      pop\n        /* \"#utility.yul\":3765:3882   */\n      pop\n        /* \"#utility.yul\":3560:3889   */\n      swap3\n      swap2\n      pop\n      pop\n      jump\t// out\n        /* \"#utility.yul\":3895:4013   */\n    tag_374:\n        /* \"#utility.yul\":3982:4006   */\n      tag_376\n        /* \"#utility.yul\":4000:4005   */\n      dup2\n        /* \"#utility.yul\":3982:4006   */\n      tag_377\n      jump\t// in\n    tag_376:\n        /* \"#utility.yul\":3977:3980   */\n      dup3\n        /* \"#utility.yul\":3970:4007   */\n      mstore\n        /* \"#utility.yul\":3895:4013   */\n      pop\n      pop\n      jump\t// out\n        /* \"#utility.yul\":4019:4383   */\n    tag_378:\n        /* \"#utility.yul\":4107:4110   */\n      0x00\n        /* \"#utility.yul\":4135:4174   */\n      tag_380\n        /* \"#utility.yul\":4168:4173   */\n      dup3\n        /* \"#utility.yul\":4135:4174   */\n      tag_381\n      jump\t// in\n    tag_380:\n        /* \"#utility.yul\":4190:4261   */\n      tag_382\n        /* \"#utility.yul\":4254:4260   */\n      dup2\n        /* \"#utility.yul\":4249:4252   */\n      dup6\n        /* \"#utility.yul\":4190:4261   */\n      tag_383\n      jump\t// in\n    tag_382:\n        /* \"#utility.yul\":4183:4261   */\n      swap4\n      pop\n        /* \"#utility.yul\":4270:4322   */\n      tag_384\n        /* \"#utility.yul\":4315:4321   */\n      dup2\n        /* \"#utility.yul\":4310:4313   */\n      dup6\n        /* \"#utility.yul\":4303:4307   */\n      0x20\n        /* \"#utility.yul\":4296:4301   */\n      dup7\n        /* \"#utility.yul\":4292:4308   */\n      add\n        /* \"#utility.yul\":4270:4322   */\n      tag_385\n      jump\t// in\n    tag_384:\n        /* \"#utility.yul\":4347:4376   */\n      tag_386\n        /* \"#utility.yul\":4369:4375   */\n      dup2\n        /* \"#utility.yul\":4347:4376   */\n      tag_387\n      jump\t// in\n    tag_386:\n        /* \"#utility.yul\":4342:4345   */\n      dup5\n        /* \"#utility.yul\":4338:4377   */\n      add\n        /* \"#utility.yul\":4331:4377   */\n      swap2\n      pop\n        /* \"#utility.yul\":4111:4383   */\n      pop\n        /* \"#utility.yul\":4019:4383   */\n      swap3\n      swap2\n      pop\n      pop\n      jump\t// out\n        /* \"#utility.yul\":4413:5215   */\n    tag_388:\n        /* \"#utility.yul\":4498:4501   */\n      0x00\n        /* \"#utility.yul\":4535:4540   */\n      dup2\n        /* \"#utility.yul\":4529:4541   */\n      sload\n        /* \"#utility.yul\":4564:4600   */\n      tag_390\n        /* \"#utility.yul\":4590:4599   */\n      dup2\n        /* \"#utility.yul\":4564:4600   */\n      tag_247\n      jump\t// in\n    tag_390:\n        /* \"#utility.yul\":4616:4687   */\n      tag_391\n        /* \"#utility.yul\":4680:4686   */\n      dup2\n        /* \"#utility.yul\":4675:4678   */\n      dup7\n        /* \"#utility.yul\":4616:4687   */\n      tag_383\n      jump\t// in\n    tag_391:\n        /* \"#utility.yul\":4609:4687   */\n      swap5\n      pop\n        /* \"#utility.yul\":4718:4719   */\n      0x01\n        /* \"#utility.yul\":4707:4716   */\n      dup3\n        /* \"#utility.yul\":4703:4720   */\n      and\n        /* \"#utility.yul\":4734:4735   */\n      0x00\n        /* \"#utility.yul\":4729:4864   */\n      dup2\n      eq\n      tag_393\n      jumpi\n        /* \"#utility.yul\":4878:4879   */\n      0x01\n        /* \"#utility.yul\":4873:5209   */\n      dup2\n      eq\n      tag_394\n      jumpi\n        /* \"#utility.yul\":4696:5209   */\n      jump(tag_392)\n        /* \"#utility.yul\":4729:4864   */\n    tag_393:\n        /* \"#utility.yul\":4813:4817   */\n      0xff\n        /* \"#utility.yul\":4809:4818   */\n      not\n        /* \"#utility.yul\":4798:4807   */\n      dup4\n        /* \"#utility.yul\":4794:4819   */\n      and\n        /* \"#utility.yul\":4789:4792   */\n      dup7\n        /* \"#utility.yul\":4782:4820   */\n      mstore\n        /* \"#utility.yul\":4849:4853   */\n      0x20\n        /* \"#utility.yul\":4844:4847   */\n      dup7\n        /* \"#utility.yul\":4840:4854   */\n      add\n        /* \"#utility.yul\":4833:4854   */\n      swap4\n      pop\n        /* \"#utility.yul\":4729:4864   */\n      jump(tag_392)\n        /* \"#utility.yul\":4873:5209   */\n    tag_394:\n        /* \"#utility.yul\":4940:4978   */\n      tag_395\n        /* \"#utility.yul\":4972:4977   */\n      dup6\n        /* \"#utility.yul\":4940:4978   */\n      tag_396\n      jump\t// in\n    tag_395:\n        /* \"#utility.yul\":5000:5001   */\n      0x00\n        /* \"#utility.yul\":5014:5168   */\n    tag_397:\n        /* \"#utility.yul\":5028:5034   */\n      dup4\n        /* \"#utility.yul\":5025:5026   */\n      dup2\n        /* \"#utility.yul\":5022:5035   */\n      lt\n        /* \"#utility.yul\":5014:5168   */\n      iszero\n      tag_399\n      jumpi\n        /* \"#utility.yul\":5102:5109   */\n      dup2\n        /* \"#utility.yul\":5096:5110   */\n      sload\n        /* \"#utility.yul\":5092:5093   */\n      dup2\n        /* \"#utility.yul\":5087:5090   */\n      dup10\n        /* \"#utility.yul\":5083:5094   */\n      add\n        /* \"#utility.yul\":5076:5111   */\n      mstore\n        /* \"#utility.yul\":5152:5153   */\n      0x01\n        /* \"#utility.yul\":5143:5150   */\n      dup3\n        /* \"#utility.yul\":5139:5154   */\n      add\n        /* \"#utility.yul\":5128:5154   */\n      swap2\n      pop\n        /* \"#utility.yul\":5050:5054   */\n      0x20\n        /* \"#utility.yul\":5047:5048   */\n      dup2\n        /* \"#utility.yul\":5043:5055   */\n      add\n        /* \"#utility.yul\":5038:5055   */\n      swap1\n      pop\n        /* \"#utility.yul\":5014:5168   */\n      jump(tag_397)\n    tag_399:\n        /* \"#utility.yul\":5197:5198   */\n      dup1\n        /* \"#utility.yul\":5192:5195   */\n      dup9\n        /* \"#utility.yul\":5188:5199   */\n      add\n        /* \"#utility.yul\":5181:5199   */\n      swap6\n      pop\n        /* \"#utility.yul\":4880:5209   */\n      pop\n      pop\n        /* \"#utility.yul\":4696:5209   */\n    tag_392:\n      pop\n        /* \"#utility.yul\":4502:5215   */\n      pop\n      pop\n        /* \"#utility.yul\":4413:5215   */\n      swap3\n      swap2\n      pop\n      pop\n      jump\t// out\n        /* \"#utility.yul\":5221:5587   */\n    tag_400:\n        /* \"#utility.yul\":5363:5366   */\n      0x00\n        /* \"#utility.yul\":5384:5451   */\n      tag_402\n        /* \"#utility.yul\":5448:5450   */\n      0x28\n        /* \"#utility.yul\":5443:5446   */\n      dup4\n        /* \"#utility.yul\":5384:5451   */\n      tag_383\n      jump\t// in\n    tag_402:\n        /* \"#utility.yul\":5377:5451   */\n      swap2\n      pop\n        /* \"#utility.yul\":5460:5553   */\n      tag_403\n        /* \"#utility.yul\":5549:5552   */\n      dup3\n        /* \"#utility.yul\":5460:5553   */\n      tag_404\n      jump\t// in\n    tag_403:\n        /* \"#utility.yul\":5578:5580   */\n      0x40\n        /* \"#utility.yul\":5573:5576   */\n      dup3\n        /* \"#utility.yul\":5569:5581   */\n      add\n        /* \"#utility.yul\":5562:5581   */\n      swap1\n      pop\n        /* \"#utility.yul\":5221:5587   */\n      swap2\n      swap1\n      pop\n      jump\t// out\n        /* \"#utility.yul\":5593:5959   */\n    tag_405:\n        /* \"#utility.yul\":5735:5738   */\n      0x00\n        /* \"#utility.yul\":5756:5823   */\n      tag_407\n        /* \"#utility.yul\":5820:5822   */\n      0x26\n        /* \"#utility.yul\":5815:5818   */\n      dup4\n        /* \"#utility.yul\":5756:5823   */\n      tag_383\n      jump\t// in\n    tag_407:\n        /* \"#utility.yul\":5749:5823   */\n      swap2\n      pop\n        /* \"#utility.yul\":5832:5925   */\n      tag_408\n        /* \"#utility.yul\":5921:5924   */\n      dup3\n        /* \"#utility.yul\":5832:5925   */\n      tag_409\n      jump\t// in\n    tag_408:\n        /* \"#utility.yul\":5950:5952   */\n      0x40\n        /* \"#utility.yul\":5945:5948   */\n      dup3\n        /* \"#utility.yul\":5941:5953   */\n      add\n        /* \"#utility.yul\":5934:5953   */\n      swap1\n      pop\n        /* \"#utility.yul\":5593:5959   */\n      swap2\n      swap1\n      pop\n      jump\t// out\n        /* \"#utility.yul\":5965:6331   */\n    tag_410:\n        /* \"#utility.yul\":6107:6110   */\n      0x00\n        /* \"#utility.yul\":6128:6195   */\n      tag_412\n        /* \"#utility.yul\":6192:6194   */\n      0x32\n        /* \"#utility.yul\":6187:6190   */\n      dup4\n        /* \"#utility.yul\":6128:6195   */\n      tag_383\n      jump\t// in\n    tag_412:\n        /* \"#utility.yul\":6121:6195   */\n      swap2\n      pop\n        /* \"#utility.yul\":6204:6297   */\n      tag_413\n        /* \"#utility.yul\":6293:6296   */\n      dup3\n        /* \"#utility.yul\":6204:6297   */\n      tag_414\n      jump\t// in\n    tag_413:\n        /* \"#utility.yul\":6322:6324   */\n      0x40\n        /* \"#utility.yul\":6317:6320   */\n      dup3\n        /* \"#utility.yul\":6313:6325   */\n      add\n        /* \"#utility.yul\":6306:6325   */\n      swap1\n      pop\n        /* \"#utility.yul\":5965:6331   */\n      swap2\n      swap1\n      pop\n      jump\t// out\n        /* \"#utility.yul\":6337:6703   */\n    tag_415:\n        /* \"#utility.yul\":6479:6482   */\n      0x00\n        /* \"#utility.yul\":6500:6567   */\n      tag_417\n        /* \"#utility.yul\":6564:6566   */\n      0x20\n        /* \"#utility.yul\":6559:6562   */\n      dup4\n        /* \"#utility.yul\":6500:6567   */\n      tag_383\n      jump\t// in\n    tag_417:\n        /* \"#utility.yul\":6493:6567   */\n      swap2\n      pop\n        /* \"#utility.yul\":6576:6669   */\n      tag_418\n        /* \"#utility.yul\":6665:6668   */\n      dup3\n        /* \"#utility.yul\":6576:6669   */\n      tag_419\n      jump\t// in\n    tag_418:\n        /* \"#utility.yul\":6694:6696   */\n      0x20\n        /* \"#utility.yul\":6689:6692   */\n      dup3\n        /* \"#utility.yul\":6685:6697   */\n      add\n        /* \"#utility.yul\":6678:6697   */\n      swap1\n      pop\n        /* \"#utility.yul\":6337:6703   */\n      swap2\n      swap1\n      pop\n      jump\t// out\n        /* \"#utility.yul\":6709:7075   */\n    tag_420:\n        /* \"#utility.yul\":6851:6854   */\n      0x00\n        /* \"#utility.yul\":6872:6939   */\n      tag_422\n        /* \"#utility.yul\":6936:6938   */\n      0x15\n        /* \"#utility.yul\":6931:6934   */\n      dup4\n        /* \"#utility.yul\":6872:6939   */\n      tag_383\n      jump\t// in\n    tag_422:\n        /* \"#utility.yul\":6865:6939   */\n      swap2\n      pop\n        /* \"#utility.yul\":6948:7041   */\n      tag_423\n        /* \"#utility.yul\":7037:7040   */\n      dup3\n        /* \"#utility.yul\":6948:7041   */\n      tag_424\n      jump\t// in\n    tag_423:\n        /* \"#utility.yul\":7066:7068   */\n      0x20\n        /* \"#utility.yul\":7061:7064   */\n      dup3\n        /* \"#utility.yul\":7057:7069   */\n      add\n        /* \"#utility.yul\":7050:7069   */\n      swap1\n      pop\n        /* \"#utility.yul\":6709:7075   */\n      swap2\n      swap1\n      pop\n      jump\t// out\n        /* \"#utility.yul\":7081:7199   */\n    tag_425:\n        /* \"#utility.yul\":7168:7192   */\n      tag_427\n        /* \"#utility.yul\":7186:7191   */\n      dup2\n        /* \"#utility.yul\":7168:7192   */\n      tag_428\n      jump\t// in\n    tag_427:\n        /* \"#utility.yul\":7163:7166   */\n      dup3\n        /* \"#utility.yul\":7156:7193   */\n      mstore\n        /* \"#utility.yul\":7081:7199   */\n      pop\n      pop\n      jump\t// out\n        /* \"#utility.yul\":7205:7362   */\n    tag_429:\n        /* \"#utility.yul\":7310:7355   */\n      tag_431\n        /* \"#utility.yul\":7330:7354   */\n      tag_432\n        /* \"#utility.yul\":7348:7353   */\n      dup3\n        /* \"#utility.yul\":7330:7354   */\n      tag_428\n      jump\t// in\n    tag_432:\n        /* \"#utility.yul\":7310:7355   */\n      tag_433\n      jump\t// in\n    tag_431:\n        /* \"#utility.yul\":7305:7308   */\n      dup3\n        /* \"#utility.yul\":7298:7356   */\n      mstore\n        /* \"#utility.yul\":7205:7362   */\n      pop\n      pop\n      jump\t// out\n        /* \"#utility.yul\":7368:7483   */\n    tag_434:\n        /* \"#utility.yul\":7453:7476   */\n      tag_436\n        /* \"#utility.yul\":7470:7475   */\n      dup2\n        /* \"#utility.yul\":7453:7476   */\n      tag_437\n      jump\t// in\n    tag_436:\n        /* \"#utility.yul\":7448:7451   */\n      dup3\n        /* \"#utility.yul\":7441:7477   */\n      mstore\n        /* \"#utility.yul\":7368:7483   */\n      pop\n      pop\n      jump\t// out\n        /* \"#utility.yul\":7489:8027   */\n    tag_134:\n        /* \"#utility.yul\":7657:7660   */\n      0x00\n        /* \"#utility.yul\":7672:7747   */\n      tag_439\n        /* \"#utility.yul\":7743:7746   */\n      dup3\n        /* \"#utility.yul\":7734:7740   */\n      dup7\n        /* \"#utility.yul\":7672:7747   */\n      tag_429\n      jump\t// in\n    tag_439:\n        /* \"#utility.yul\":7772:7774   */\n      0x20\n        /* \"#utility.yul\":7767:7770   */\n      dup3\n        /* \"#utility.yul\":7763:7775   */\n      add\n        /* \"#utility.yul\":7756:7775   */\n      swap2\n      pop\n        /* \"#utility.yul\":7785:7860   */\n      tag_440\n        /* \"#utility.yul\":7856:7859   */\n      dup3\n        /* \"#utility.yul\":7847:7853   */\n      dup6\n        /* \"#utility.yul\":7785:7860   */\n      tag_429\n      jump\t// in\n    tag_440:\n        /* \"#utility.yul\":7885:7887   */\n      0x20\n        /* \"#utility.yul\":7880:7883   */\n      dup3\n        /* \"#utility.yul\":7876:7888   */\n      add\n        /* \"#utility.yul\":7869:7888   */\n      swap2\n      pop\n        /* \"#utility.yul\":7898:7973   */\n      tag_441\n        /* \"#utility.yul\":7969:7972   */\n      dup3\n        /* \"#utility.yul\":7960:7966   */\n      dup5\n        /* \"#utility.yul\":7898:7973   */\n      tag_429\n      jump\t// in\n    tag_441:\n        /* \"#utility.yul\":7998:8000   */\n      0x20\n        /* \"#utility.yul\":7993:7996   */\n      dup3\n        /* \"#utility.yul\":7989:8001   */\n      add\n        /* \"#utility.yul\":7982:8001   */\n      swap2\n      pop\n        /* \"#utility.yul\":8018:8021   */\n      dup2\n        /* \"#utility.yul\":8011:8021   */\n      swap1\n      pop\n        /* \"#utility.yul\":7489:8027   */\n      swap5\n      swap4\n      pop\n      pop\n      pop\n      pop\n      jump\t// out\n        /* \"#utility.yul\":8033:8255   */\n    tag_51:\n        /* \"#utility.yul\":8126:8130   */\n      0x00\n        /* \"#utility.yul\":8164:8166   */\n      0x20\n        /* \"#utility.yul\":8153:8162   */\n      dup3\n        /* \"#utility.yul\":8149:8167   */\n      add\n        /* \"#utility.yul\":8141:8167   */\n      swap1\n      pop\n        /* \"#utility.yul\":8177:8248   */\n      tag_443\n        /* \"#utility.yul\":8245:8246   */\n      0x00\n        /* \"#utility.yul\":8234:8243   */\n      dup4\n        /* \"#utility.yul\":8230:8247   */\n      add\n        /* \"#utility.yul\":8221:8227   */\n      dup5\n        /* \"#utility.yul\":8177:8248   */\n      tag_374\n      jump\t// in\n    tag_443:\n        /* \"#utility.yul\":8033:8255   */\n      swap3\n      swap2\n      pop\n      pop\n      jump\t// out\n        /* \"#utility.yul\":8261:9527   */\n    tag_65:\n        /* \"#utility.yul\":8608:8612   */\n      0x00\n        /* \"#utility.yul\":8646:8649   */\n      0x0100\n        /* \"#utility.yul\":8635:8644   */\n      dup3\n        /* \"#utility.yul\":8631:8650   */\n      add\n        /* \"#utility.yul\":8623:8650   */\n      swap1\n      pop\n        /* \"#utility.yul\":8660:8731   */\n      tag_445\n        /* \"#utility.yul\":8728:8729   */\n      0x00\n        /* \"#utility.yul\":8717:8726   */\n      dup4\n        /* \"#utility.yul\":8713:8730   */\n      add\n        /* \"#utility.yul\":8704:8710   */\n      dup12\n        /* \"#utility.yul\":8660:8731   */\n      tag_374\n      jump\t// in\n    tag_445:\n        /* \"#utility.yul\":8778:8787   */\n      dup2\n        /* \"#utility.yul\":8772:8776   */\n      dup2\n        /* \"#utility.yul\":8768:8788   */\n      sub\n        /* \"#utility.yul\":8763:8765   */\n      0x20\n        /* \"#utility.yul\":8752:8761   */\n      dup4\n        /* \"#utility.yul\":8748:8766   */\n      add\n        /* \"#utility.yul\":8741:8789   */\n      mstore\n        /* \"#utility.yul\":8806:8884   */\n      tag_446\n        /* \"#utility.yul\":8879:8883   */\n      dup2\n        /* \"#utility.yul\":8870:8876   */\n      dup11\n        /* \"#utility.yul\":8806:8884   */\n      tag_378\n      jump\t// in\n    tag_446:\n        /* \"#utility.yul\":8798:8884   */\n      swap1\n      pop\n        /* \"#utility.yul\":8931:8940   */\n      dup2\n        /* \"#utility.yul\":8925:8929   */\n      dup2\n        /* \"#utility.yul\":8921:8941   */\n      sub\n        /* \"#utility.yul\":8916:8918   */\n      0x40\n        /* \"#utility.yul\":8905:8914   */\n      dup4\n        /* \"#utility.yul\":8901:8919   */\n      add\n        /* \"#utility.yul\":8894:8942   */\n      mstore\n        /* \"#utility.yul\":8959:9037   */\n      tag_447\n        /* \"#utility.yul\":9032:9036   */\n      dup2\n        /* \"#utility.yul\":9023:9029   */\n      dup10\n        /* \"#utility.yul\":8959:9037   */\n      tag_378\n      jump\t// in\n    tag_447:\n        /* \"#utility.yul\":8951:9037   */\n      swap1\n      pop\n        /* \"#utility.yul\":9084:9093   */\n      dup2\n        /* \"#utility.yul\":9078:9082   */\n      dup2\n        /* \"#utility.yul\":9074:9094   */\n      sub\n        /* \"#utility.yul\":9069:9071   */\n      0x60\n        /* \"#utility.yul\":9058:9067   */\n      dup4\n        /* \"#utility.yul\":9054:9072   */\n      add\n        /* \"#utility.yul\":9047:9095   */\n      mstore\n        /* \"#utility.yul\":9112:9190   */\n      tag_448\n        /* \"#utility.yul\":9185:9189   */\n      dup2\n        /* \"#utility.yul\":9176:9182   */\n      dup9\n        /* \"#utility.yul\":9112:9190   */\n      tag_378\n      jump\t// in\n    tag_448:\n        /* \"#utility.yul\":9104:9190   */\n      swap1\n      pop\n        /* \"#utility.yul\":9200:9273   */\n      tag_449\n        /* \"#utility.yul\":9268:9271   */\n      0x80\n        /* \"#utility.yul\":9257:9266   */\n      dup4\n        /* \"#utility.yul\":9253:9272   */\n      add\n        /* \"#utility.yul\":9244:9250   */\n      dup8\n        /* \"#utility.yul\":9200:9273   */\n      tag_425\n      jump\t// in\n    tag_449:\n        /* \"#utility.yul\":9283:9356   */\n      tag_450\n        /* \"#utility.yul\":9351:9354   */\n      0xa0\n        /* \"#utility.yul\":9340:9349   */\n      dup4\n        /* \"#utility.yul\":9336:9355   */\n      add\n        /* \"#utility.yul\":9327:9333   */\n      dup7\n        /* \"#utility.yul\":9283:9356   */\n      tag_425\n      jump\t// in\n    tag_450:\n        /* \"#utility.yul\":9366:9439   */\n      tag_451\n        /* \"#utility.yul\":9434:9437   */\n      0xc0\n        /* \"#utility.yul\":9423:9432   */\n      dup4\n        /* \"#utility.yul\":9419:9438   */\n      add\n        /* \"#utility.yul\":9410:9416   */\n      dup6\n        /* \"#utility.yul\":9366:9439   */\n      tag_425\n      jump\t// in\n    tag_451:\n        /* \"#utility.yul\":9449:9520   */\n      tag_452\n        /* \"#utility.yul\":9515:9518   */\n      0xe0\n        /* \"#utility.yul\":9504:9513   */\n      dup4\n        /* \"#utility.yul\":9500:9519   */\n      add\n        /* \"#utility.yul\":9491:9497   */\n      dup5\n        /* \"#utility.yul\":9449:9520   */\n      tag_434\n      jump\t// in\n    tag_452:\n        /* \"#utility.yul\":8261:9527   */\n      swap10\n      swap9\n      pop\n      pop\n      pop\n      pop\n      pop\n      pop\n      pop\n      pop\n      pop\n      jump\t// out\n        /* \"#utility.yul\":9533:9846   */\n    tag_20:\n        /* \"#utility.yul\":9646:9650   */\n      0x00\n        /* \"#utility.yul\":9684:9686   */\n      0x20\n        /* \"#utility.yul\":9673:9682   */\n      dup3\n        /* \"#utility.yul\":9669:9687   */\n      add\n        /* \"#utility.yul\":9661:9687   */\n      swap1\n      pop\n        /* \"#utility.yul\":9733:9742   */\n      dup2\n        /* \"#utility.yul\":9727:9731   */\n      dup2\n        /* \"#utility.yul\":9723:9743   */\n      sub\n        /* \"#utility.yul\":9719:9720   */\n      0x00\n        /* \"#utility.yul\":9708:9717   */\n      dup4\n        /* \"#utility.yul\":9704:9721   */\n      add\n        /* \"#utility.yul\":9697:9744   */\n      mstore\n        /* \"#utility.yul\":9761:9839   */\n      tag_454\n        /* \"#utility.yul\":9834:9838   */\n      dup2\n        /* \"#utility.yul\":9825:9831   */\n      dup5\n        /* \"#utility.yul\":9761:9839   */\n      tag_378\n      jump\t// in\n    tag_454:\n        /* \"#utility.yul\":9753:9839   */\n      swap1\n      pop\n        /* \"#utility.yul\":9533:9846   */\n      swap3\n      swap2\n      pop\n      pop\n      jump\t// out\n        /* \"#utility.yul\":9852:10682   */\n    tag_286:\n        /* \"#utility.yul\":10089:10093   */\n      0x00\n        /* \"#utility.yul\":10127:10130   */\n      0xa0\n        /* \"#utility.yul\":10116:10125   */\n      dup3\n        /* \"#utility.yul\":10112:10131   */\n      add\n        /* \"#utility.yul\":10104:10131   */\n      swap1\n      pop\n        /* \"#utility.yul\":10177:10186   */\n      dup2\n        /* \"#utility.yul\":10171:10175   */\n      dup2\n        /* \"#utility.yul\":10167:10187   */\n      sub\n        /* \"#utility.yul\":10163:10164   */\n      0x00\n        /* \"#utility.yul\":10152:10161   */\n      dup4\n        /* \"#utility.yul\":10148:10165   */\n      add\n        /* \"#utility.yul\":10141:10188   */\n      mstore\n        /* \"#utility.yul\":10205:10280   */\n      tag_456\n        /* \"#utility.yul\":10275:10279   */\n      dup2\n        /* \"#utility.yul\":10266:10272   */\n      dup9\n        /* \"#utility.yul\":10205:10280   */\n      tag_388\n      jump\t// in\n    tag_456:\n        /* \"#utility.yul\":10197:10280   */\n      swap1\n      pop\n        /* \"#utility.yul\":10327:10336   */\n      dup2\n        /* \"#utility.yul\":10321:10325   */\n      dup2\n        /* \"#utility.yul\":10317:10337   */\n      sub\n        /* \"#utility.yul\":10312:10314   */\n      0x20\n        /* \"#utility.yul\":10301:10310   */\n      dup4\n        /* \"#utility.yul\":10297:10315   */\n      add\n        /* \"#utility.yul\":10290:10338   */\n      mstore\n        /* \"#utility.yul\":10355:10430   */\n      tag_457\n        /* \"#utility.yul\":10425:10429   */\n      dup2\n        /* \"#utility.yul\":10416:10422   */\n      dup8\n        /* \"#utility.yul\":10355:10430   */\n      tag_388\n      jump\t// in\n    tag_457:\n        /* \"#utility.yul\":10347:10430   */\n      swap1\n      pop\n        /* \"#utility.yul\":10440:10510   */\n      tag_458\n        /* \"#utility.yul\":10506:10508   */\n      0x40\n        /* \"#utility.yul\":10495:10504   */\n      dup4\n        /* \"#utility.yul\":10491:10509   */\n      add\n        /* \"#utility.yul\":10482:10488   */\n      dup7\n        /* \"#utility.yul\":10440:10510   */\n      tag_434\n      jump\t// in\n    tag_458:\n        /* \"#utility.yul\":10520:10592   */\n      tag_459\n        /* \"#utility.yul\":10588:10590   */\n      0x60\n        /* \"#utility.yul\":10577:10586   */\n      dup4\n        /* \"#utility.yul\":10573:10591   */\n      add\n        /* \"#utility.yul\":10564:10570   */\n      dup6\n        /* \"#utility.yul\":10520:10592   */\n      tag_425\n      jump\t// in\n    tag_459:\n        /* \"#utility.yul\":10602:10675   */\n      tag_460\n        /* \"#utility.yul\":10670:10673   */\n      0x80\n        /* \"#utility.yul\":10659:10668   */\n      dup4\n        /* \"#utility.yul\":10655:10674   */\n      add\n        /* \"#utility.yul\":10646:10652   */\n      dup5\n        /* \"#utility.yul\":10602:10675   */\n      tag_425\n      jump\t// in\n    tag_460:\n        /* \"#utility.yul\":9852:10682   */\n      swap7\n      swap6\n      pop\n      pop\n      pop\n      pop\n      pop\n      pop\n      jump\t// out\n        /* \"#utility.yul\":10688:11107   */\n    tag_99:\n        /* \"#utility.yul\":10854:10858   */\n      0x00\n        /* \"#utility.yul\":10892:10894   */\n      0x20\n        /* \"#utility.yul\":10881:10890   */\n      dup3\n        /* \"#utility.yul\":10877:10895   */\n      add\n        /* \"#utility.yul\":10869:10895   */\n      swap1\n      pop\n        /* \"#utility.yul\":10941:10950   */\n      dup2\n        /* \"#utility.yul\":10935:10939   */\n      dup2\n        /* \"#utility.yul\":10931:10951   */\n      sub\n        /* \"#utility.yul\":10927:10928   */\n      0x00\n        /* \"#utility.yul\":10916:10925   */\n      dup4\n        /* \"#utility.yul\":10912:10929   */\n      add\n        /* \"#utility.yul\":10905:10952   */\n      mstore\n        /* \"#utility.yul\":10969:11100   */\n      tag_462\n        /* \"#utility.yul\":11095:11099   */\n      dup2\n        /* \"#utility.yul\":10969:11100   */\n      tag_400\n      jump\t// in\n    tag_462:\n        /* \"#utility.yul\":10961:11100   */\n      swap1\n      pop\n        /* \"#utility.yul\":10688:11107   */\n      swap2\n      swap1\n      pop\n      jump\t// out\n        /* \"#utility.yul\":11113:11532   */\n    tag_296:\n        /* \"#utility.yul\":11279:11283   */\n      0x00\n        /* \"#utility.yul\":11317:11319   */\n      0x20\n        /* \"#utility.yul\":11306:11315   */\n      dup3\n        /* \"#utility.yul\":11302:11320   */\n      add\n        /* \"#utility.yul\":11294:11320   */\n      swap1\n      pop\n        /* \"#utility.yul\":11366:11375   */\n      dup2\n        /* \"#utility.yul\":11360:11364   */\n      dup2\n        /* \"#utility.yul\":11356:11376   */\n      sub\n        /* \"#utility.yul\":11352:11353   */\n      0x00\n        /* \"#utility.yul\":11341:11350   */\n      dup4\n        /* \"#utility.yul\":11337:11354   */\n      add\n        /* \"#utility.yul\":11330:11377   */\n      mstore\n        /* \"#utility.yul\":11394:11525   */\n      tag_464\n        /* \"#utility.yul\":11520:11524   */\n      dup2\n        /* \"#utility.yul\":11394:11525   */\n      tag_405\n      jump\t// in\n    tag_464:\n        /* \"#utility.yul\":11386:11525   */\n      swap1\n      pop\n        /* \"#utility.yul\":11113:11532   */\n      swap2\n      swap1\n      pop\n      jump\t// out\n        /* \"#utility.yul\":11538:11957   */\n    tag_129:\n        /* \"#utility.yul\":11704:11708   */\n      0x00\n        /* \"#utility.yul\":11742:11744   */\n      0x20\n        /* \"#utility.yul\":11731:11740   */\n      dup3\n        /* \"#utility.yul\":11727:11745   */\n      add\n        /* \"#utility.yul\":11719:11745   */\n      swap1\n      pop\n        /* \"#utility.yul\":11791:11800   */\n      dup2\n        /* \"#utility.yul\":11785:11789   */\n      dup2\n        /* \"#utility.yul\":11781:11801   */\n      sub\n        /* \"#utility.yul\":11777:11778   */\n      0x00\n        /* \"#utility.yul\":11766:11775   */\n      dup4\n        /* \"#utility.yul\":11762:11779   */\n      add\n        /* \"#utility.yul\":11755:11802   */\n      mstore\n        /* \"#utility.yul\":11819:11950   */\n      tag_466\n        /* \"#utility.yul\":11945:11949   */\n      dup2\n        /* \"#utility.yul\":11819:11950   */\n      tag_410\n      jump\t// in\n    tag_466:\n        /* \"#utility.yul\":11811:11950   */\n      swap1\n      pop\n        /* \"#utility.yul\":11538:11957   */\n      swap2\n      swap1\n      pop\n      jump\t// out\n        /* \"#utility.yul\":11963:12382   */\n    tag_239:\n        /* \"#utility.yul\":12129:12133   */\n      0x00\n        /* \"#utility.yul\":12167:12169   */\n      0x20\n        /* \"#utility.yul\":12156:12165   */\n      dup3\n        /* \"#utility.yul\":12152:12170   */\n      add\n        /* \"#utility.yul\":12144:12170   */\n      swap1\n      pop\n        /* \"#utility.yul\":12216:12225   */\n      dup2\n        /* \"#utility.yul\":12210:12214   */\n      dup2\n        /* \"#utility.yul\":12206:12226   */\n      sub\n        /* \"#utility.yul\":12202:12203   */\n      0x00\n        /* \"#utility.yul\":12191:12200   */\n      dup4\n        /* \"#utility.yul\":12187:12204   */\n      add\n        /* \"#utility.yul\":12180:12227   */\n      mstore\n        /* \"#utility.yul\":12244:12375   */\n      tag_468\n        /* \"#utility.yul\":12370:12374   */\n      dup2\n        /* \"#utility.yul\":12244:12375   */\n      tag_415\n      jump\t// in\n    tag_468:\n        /* \"#utility.yul\":12236:12375   */\n      swap1\n      pop\n        /* \"#utility.yul\":11963:12382   */\n      swap2\n      swap1\n      pop\n      jump\t// out\n        /* \"#utility.yul\":12388:12807   */\n    tag_186:\n        /* \"#utility.yul\":12554:12558   */\n      0x00\n        /* \"#utility.yul\":12592:12594   */\n      0x20\n        /* \"#utility.yul\":12581:12590   */\n      dup3\n        /* \"#utility.yul\":12577:12595   */\n      add\n        /* \"#utility.yul\":12569:12595   */\n      swap1\n      pop\n        /* \"#utility.yul\":12641:12650   */\n      dup2\n        /* \"#utility.yul\":12635:12639   */\n      dup2\n        /* \"#utility.yul\":12631:12651   */\n      sub\n        /* \"#utility.yul\":12627:12628   */\n      0x00\n        /* \"#utility.yul\":12616:12625   */\n      dup4\n        /* \"#utility.yul\":12612:12629   */\n      add\n        /* \"#utility.yul\":12605:12652   */\n      mstore\n        /* \"#utility.yul\":12669:12800   */\n      tag_470\n        /* \"#utility.yul\":12795:12799   */\n      dup2\n        /* \"#utility.yul\":12669:12800   */\n      tag_420\n      jump\t// in\n    tag_470:\n        /* \"#utility.yul\":12661:12800   */\n      swap1\n      pop\n        /* \"#utility.yul\":12388:12807   */\n      swap2\n      swap1\n      pop\n      jump\t// out\n        /* \"#utility.yul\":12813:13035   */\n    tag_27:\n        /* \"#utility.yul\":12906:12910   */\n      0x00\n        /* \"#utility.yul\":12944:12946   */\n      0x20\n        /* \"#utility.yul\":12933:12942   */\n      dup3\n        /* \"#utility.yul\":12929:12947   */\n      add\n        /* \"#utility.yul\":12921:12947   */\n      swap1\n      pop\n        /* \"#utility.yul\":12957:13028   */\n      tag_472\n        /* \"#utility.yul\":13025:13026   */\n      0x00\n        /* \"#utility.yul\":13014:13023   */\n      dup4\n        /* \"#utility.yul\":13010:13027   */\n      add\n        /* \"#utility.yul\":13001:13007   */\n      dup5\n        /* \"#utility.yul\":12957:13028   */\n      tag_425\n      jump\t// in\n    tag_472:\n        /* \"#utility.yul\":12813:13035   */\n      swap3\n      swap2\n      pop\n      pop\n      jump\t// out\n        /* \"#utility.yul\":13041:13170   */\n    tag_322:\n        /* \"#utility.yul\":13075:13081   */\n      0x00\n        /* \"#utility.yul\":13102:13122   */\n      tag_474\n      tag_475\n      jump\t// in\n    tag_474:\n        /* \"#utility.yul\":13092:13122   */\n      swap1\n      pop\n        /* \"#utility.yul\":13131:13164   */\n      tag_476\n        /* \"#utility.yul\":13159:13163   */\n      dup3\n        /* \"#utility.yul\":13151:13157   */\n      dup3\n        /* \"#utility.yul\":13131:13164   */\n      tag_477\n      jump\t// in\n    tag_476:\n        /* \"#utility.yul\":13041:13170   */\n      swap2\n      swap1\n      pop\n      jump\t// out\n        /* \"#utility.yul\":13176:13251   */\n    tag_475:\n        /* \"#utility.yul\":13209:13215   */\n      0x00\n        /* \"#utility.yul\":13242:13244   */\n      0x40\n        /* \"#utility.yul\":13236:13245   */\n      mload\n        /* \"#utility.yul\":13226:13245   */\n      swap1\n      pop\n        /* \"#utility.yul\":13176:13251   */\n      swap1\n      jump\t// out\n        /* \"#utility.yul\":13257:13565   */\n    tag_321:\n        /* \"#utility.yul\":13319:13323   */\n      0x00\n        /* \"#utility.yul\":13409:13427   */\n      0xffffffffffffffff\n        /* \"#utility.yul\":13401:13407   */\n      dup3\n        /* \"#utility.yul\":13398:13428   */\n      gt\n        /* \"#utility.yul\":13395:13451   */\n      iszero\n      tag_480\n      jumpi\n        /* \"#utility.yul\":13431:13449   */\n      tag_481\n      tag_482\n      jump\t// in\n    tag_481:\n        /* \"#utility.yul\":13395:13451   */\n    tag_480:\n        /* \"#utility.yul\":13469:13498   */\n      tag_483\n        /* \"#utility.yul\":13491:13497   */\n      dup3\n        /* \"#utility.yul\":13469:13498   */\n      tag_387\n      jump\t// in\n    tag_483:\n        /* \"#utility.yul\":13461:13498   */\n      swap1\n      pop\n        /* \"#utility.yul\":13553:13557   */\n      0x20\n        /* \"#utility.yul\":13547:13551   */\n      dup2\n        /* \"#utility.yul\":13543:13558   */\n      add\n        /* \"#utility.yul\":13535:13558   */\n      swap1\n      pop\n        /* \"#utility.yul\":13257:13565   */\n      swap2\n      swap1\n      pop\n      jump\t// out\n        /* \"#utility.yul\":13571:13712   */\n    tag_396:\n        /* \"#utility.yul\":13620:13624   */\n      0x00\n        /* \"#utility.yul\":13643:13646   */\n      dup2\n        /* \"#utility.yul\":13635:13646   */\n      swap1\n      pop\n        /* \"#utility.yul\":13666:13669   */\n      dup2\n        /* \"#utility.yul\":13663:13664   */\n      0x00\n        /* \"#utility.yul\":13656:13670   */\n      mstore\n        /* \"#utility.yul\":13700:13704   */\n      0x20\n        /* \"#utility.yul\":13697:13698   */\n      0x00\n        /* \"#utility.yul\":13687:13705   */\n      keccak256\n        /* \"#utility.yul\":13679:13705   */\n      swap1\n      pop\n        /* \"#utility.yul\":13571:13712   */\n      swap2\n      swap1\n      pop\n      jump\t// out\n        /* \"#utility.yul\":13718:13817   */\n    tag_381:\n        /* \"#utility.yul\":13770:13776   */\n      0x00\n        /* \"#utility.yul\":13804:13809   */\n      dup2\n        /* \"#utility.yul\":13798:13810   */\n      mload\n        /* \"#utility.yul\":13788:13810   */\n      swap1\n      pop\n        /* \"#utility.yul\":13718:13817   */\n      swap2\n      swap1\n      pop\n      jump\t// out\n        /* \"#utility.yul\":13823:13992   */\n    tag_383:\n        /* \"#utility.yul\":13907:13918   */\n      0x00\n        /* \"#utility.yul\":13941:13947   */\n      dup3\n        /* \"#utility.yul\":13936:13939   */\n      dup3\n        /* \"#utility.yul\":13929:13948   */\n      mstore\n        /* \"#utility.yul\":13981:13985   */\n      0x20\n        /* \"#utility.yul\":13976:13979   */\n      dup3\n        /* \"#utility.yul\":13972:13986   */\n      add\n        /* \"#utility.yul\":13957:13986   */\n      swap1\n      pop\n        /* \"#utility.yul\":13823:13992   */\n      swap3\n      swap2\n      pop\n      pop\n      jump\t// out\n        /* \"#utility.yul\":13998:14303   */\n    tag_102:\n        /* \"#utility.yul\":14038:14041   */\n      0x00\n        /* \"#utility.yul\":14057:14077   */\n      tag_488\n        /* \"#utility.yul\":14075:14076   */\n      dup3\n        /* \"#utility.yul\":14057:14077   */\n      tag_428\n      jump\t// in\n    tag_488:\n        /* \"#utility.yul\":14052:14077   */\n      swap2\n      pop\n        /* \"#utility.yul\":14091:14111   */\n      tag_489\n        /* \"#utility.yul\":14109:14110   */\n      dup4\n        /* \"#utility.yul\":14091:14111   */\n      tag_428\n      jump\t// in\n    tag_489:\n        /* \"#utility.yul\":14086:14111   */\n      swap3\n      pop\n        /* \"#utility.yul\":14245:14246   */\n      dup3\n        /* \"#utility.yul\":14177:14243   */\n      0xffffffffffffffffffffffffffffffffffffffffffffffffffffffffffffffff\n        /* \"#utility.yul\":14173:14247   */\n      sub\n        /* \"#utility.yul\":14170:14171   */\n      dup3\n        /* \"#utility.yul\":14167:14248   */\n      gt\n        /* \"#utility.yul\":14164:14271   */\n      iszero\n      tag_490\n      jumpi\n        /* \"#utility.yul\":14251:14269   */\n      tag_491\n      tag_492\n      jump\t// in\n    tag_491:\n        /* \"#utility.yul\":14164:14271   */\n    tag_490:\n        /* \"#utility.yul\":14295:14296   */\n      dup3\n        /* \"#utility.yul\":14292:14293   */\n      dup3\n        /* \"#utility.yul\":14288:14297   */\n      add\n        /* \"#utility.yul\":14281:14297   */\n      swap1\n      pop\n        /* \"#utility.yul\":13998:14303   */\n      swap3\n      swap2\n      pop\n      pop\n      jump\t// out\n        /* \"#utility.yul\":14309:14500   */\n    tag_110:\n        /* \"#utility.yul\":14349:14353   */\n      0x00\n        /* \"#utility.yul\":14369:14389   */\n      tag_494\n        /* \"#utility.yul\":14387:14388   */\n      dup3\n        /* \"#utility.yul\":14369:14389   */\n      tag_428\n      jump\t// in\n    tag_494:\n        /* \"#utility.yul\":14364:14389   */\n      swap2\n      pop\n        /* \"#utility.yul\":14403:14423   */\n      tag_495\n        /* \"#utility.yul\":14421:14422   */\n      dup4\n        /* \"#utility.yul\":14403:14423   */\n      tag_428\n      jump\t// in\n    tag_495:\n        /* \"#utility.yul\":14398:14423   */\n      swap3\n      pop\n        /* \"#utility.yul\":14442:14443   */\n      dup3\n        /* \"#utility.yul\":14439:14440   */\n      dup3\n        /* \"#utility.yul\":14436:14444   */\n      lt\n        /* \"#utility.yul\":14433:14467   */\n      iszero\n      tag_496\n      jumpi\n        /* \"#utility.yul\":14447:14465   */\n      tag_497\n      tag_492\n      jump\t// in\n    tag_497:\n        /* \"#utility.yul\":14433:14467   */\n    tag_496:\n        /* \"#utility.yul\":14492:14493   */\n      dup3\n        /* \"#utility.yul\":14489:14490   */\n      dup3\n        /* \"#utility.yul\":14485:14494   */\n      sub\n        /* \"#utility.yul\":14477:14494   */\n      swap1\n      pop\n        /* \"#utility.yul\":14309:14500   */\n      swap3\n      swap2\n      pop\n      pop\n      jump\t// out\n        /* \"#utility.yul\":14506:14602   */\n    tag_377:\n        /* \"#utility.yul\":14543:14550   */\n      0x00\n        /* \"#utility.yul\":14572:14596   */\n      tag_499\n        /* \"#utility.yul\":14590:14595   */\n      dup3\n        /* \"#utility.yul\":14572:14596   */\n      tag_500\n      jump\t// in\n    tag_499:\n        /* \"#utility.yul\":14561:14596   */\n      swap1\n      pop\n        /* \"#utility.yul\":14506:14602   */\n      swap2\n      swap1\n      pop\n      jump\t// out\n        /* \"#utility.yul\":14608:14734   */\n    tag_500:\n        /* \"#utility.yul\":14645:14652   */\n      0x00\n        /* \"#utility.yul\":14685:14727   */\n      0xffffffffffffffffffffffffffffffffffffffff\n        /* \"#utility.yul\":14678:14683   */\n      dup3\n        /* \"#utility.yul\":14674:14728   */\n      and\n        /* \"#utility.yul\":14663:14728   */\n      swap1\n      pop\n        /* \"#utility.yul\":14608:14734   */\n      swap2\n      swap1\n      pop\n      jump\t// out\n        /* \"#utility.yul\":14740:14817   */\n    tag_428:\n        /* \"#utility.yul\":14777:14784   */\n      0x00\n        /* \"#utility.yul\":14806:14811   */\n      dup2\n        /* \"#utility.yul\":14795:14811   */\n      swap1\n      pop\n        /* \"#utility.yul\":14740:14817   */\n      swap2\n      swap1\n      pop\n      jump\t// out\n        /* \"#utility.yul\":14823:14916   */\n    tag_437:\n        /* \"#utility.yul\":14859:14866   */\n      0x00\n        /* \"#utility.yul\":14899:14909   */\n      0xffffffff\n        /* \"#utility.yul\":14892:14897   */\n      dup3\n        /* \"#utility.yul\":14888:14910   */\n      and\n        /* \"#utility.yul\":14877:14910   */\n      swap1\n      pop\n        /* \"#utility.yul\":14823:14916   */\n      swap2\n      swap1\n      pop\n      jump\t// out\n        /* \"#utility.yul\":14922:15076   */\n    tag_327:\n        /* \"#utility.yul\":15006:15012   */\n      dup3\n        /* \"#utility.yul\":15001:15004   */\n      dup2\n        /* \"#utility.yul\":14996:14999   */\n      dup4\n        /* \"#utility.yul\":14983:15013   */\n      calldatacopy\n        /* \"#utility.yul\":15068:15069   */\n      0x00\n        /* \"#utility.yul\":15059:15065   */\n      dup4\n        /* \"#utility.yul\":15054:15057   */\n      dup4\n        /* \"#utility.yul\":15050:15066   */\n      add\n        /* \"#utility.yul\":15043:15070   */\n      mstore\n        /* \"#utility.yul\":14922:15076   */\n      pop\n      pop\n      pop\n      jump\t// out\n        /* \"#utility.yul\":15082:15389   */\n    tag_385:\n        /* \"#utility.yul\":15150:15151   */\n      0x00\n        /* \"#utility.yul\":15160:15273   */\n    tag_506:\n        /* \"#utility.yul\":15174:15180   */\n      dup4\n        /* \"#utility.yul\":15171:15172   */\n      dup2\n        /* \"#utility.yul\":15168:15181   */\n      lt\n        /* \"#utility.yul\":15160:15273   */\n      iszero\n      tag_508\n      jumpi\n        /* \"#utility.yul\":15259:15260   */\n      dup1\n        /* \"#utility.yul\":15254:15257   */\n      dup3\n        /* \"#utility.yul\":15250:15261   */\n      add\n        /* \"#utility.yul\":15244:15262   */\n      mload\n        /* \"#utility.yul\":15240:15241   */\n      dup2\n        /* \"#utility.yul\":15235:15238   */\n      dup5\n        /* \"#utility.yul\":15231:15242   */\n      add\n        /* \"#utility.yul\":15224:15263   */\n      mstore\n        /* \"#utility.yul\":15196:15198   */\n      0x20\n        /* \"#utility.yul\":15193:15194   */\n      dup2\n        /* \"#utility.yul\":15189:15199   */\n      add\n        /* \"#utility.yul\":15184:15199   */\n      swap1\n      pop\n        /* \"#utility.yul\":15160:15273   */\n      jump(tag_506)\n    tag_508:\n        /* \"#utility.yul\":15291:15297   */\n      dup4\n        /* \"#utility.yul\":15288:15289   */\n      dup2\n        /* \"#utility.yul\":15285:15298   */\n      gt\n        /* \"#utility.yul\":15282:15383   */\n      iszero\n      tag_509\n      jumpi\n        /* \"#utility.yul\":15371:15372   */\n      0x00\n        /* \"#utility.yul\":15362:15368   */\n      dup5\n        /* \"#utility.yul\":15357:15360   */\n      dup5\n        /* \"#utility.yul\":15353:15369   */\n      add\n        /* \"#utility.yul\":15346:15373   */\n      mstore\n        /* \"#utility.yul\":15282:15383   */\n    tag_509:\n        /* \"#utility.yul\":15131:15389   */\n      pop\n        /* \"#utility.yul\":15082:15389   */\n      pop\n      pop\n      pop\n      jump\t// out\n        /* \"#utility.yul\":15395:15715   */\n    tag_247:\n        /* \"#utility.yul\":15439:15445   */\n      0x00\n        /* \"#utility.yul\":15476:15477   */\n      0x02\n        /* \"#utility.yul\":15470:15474   */\n      dup3\n        /* \"#utility.yul\":15466:15478   */\n      div\n        /* \"#utility.yul\":15456:15478   */\n      swap1\n      pop\n        /* \"#utility.yul\":15523:15524   */\n      0x01\n        /* \"#utility.yul\":15517:15521   */\n      dup3\n        /* \"#utility.yul\":15513:15525   */\n      and\n        /* \"#utility.yul\":15544:15562   */\n      dup1\n        /* \"#utility.yul\":15534:15615   */\n      tag_511\n      jumpi\n        /* \"#utility.yul\":15600:15604   */\n      0x7f\n        /* \"#utility.yul\":15592:15598   */\n      dup3\n        /* \"#utility.yul\":15588:15605   */\n      and\n        /* \"#utility.yul\":15578:15605   */\n      swap2\n      pop\n        /* \"#utility.yul\":15534:15615   */\n    tag_511:\n        /* \"#utility.yul\":15662:15664   */\n      0x20\n        /* \"#utility.yul\":15654:15660   */\n      dup3\n        /* \"#utility.yul\":15651:15665   */\n      lt\n        /* \"#utility.yul\":15631:15649   */\n      dup2\n        /* \"#utility.yul\":15628:15666   */\n      eq\n        /* \"#utility.yul\":15625:15709   */\n      iszero\n      tag_512\n      jumpi\n        /* \"#utility.yul\":15681:15699   */\n      tag_513\n      tag_514\n      jump\t// in\n    tag_513:\n        /* \"#utility.yul\":15625:15709   */\n    tag_512:\n        /* \"#utility.yul\":15446:15715   */\n      pop\n        /* \"#utility.yul\":15395:15715   */\n      swap2\n      swap1\n      pop\n      jump\t// out\n        /* \"#utility.yul\":15721:16002   */\n    tag_477:\n        /* \"#utility.yul\":15804:15831   */\n      tag_516\n        /* \"#utility.yul\":15826:15830   */\n      dup3\n        /* \"#utility.yul\":15804:15831   */\n      tag_387\n      jump\t// in\n    tag_516:\n        /* \"#utility.yul\":15796:15802   */\n      dup2\n        /* \"#utility.yul\":15792:15832   */\n      add\n        /* \"#utility.yul\":15934:15940   */\n      dup2\n        /* \"#utility.yul\":15922:15932   */\n      dup2\n        /* \"#utility.yul\":15919:15941   */\n      lt\n        /* \"#utility.yul\":15898:15916   */\n      0xffffffffffffffff\n        /* \"#utility.yul\":15886:15896   */\n      dup3\n        /* \"#utility.yul\":15883:15917   */\n      gt\n        /* \"#utility.yul\":15880:15942   */\n      or\n        /* \"#utility.yul\":15877:15965   */\n      iszero\n      tag_517\n      jumpi\n        /* \"#utility.yul\":15945:15963   */\n      tag_518\n      tag_482\n      jump\t// in\n    tag_518:\n        /* \"#utility.yul\":15877:15965   */\n    tag_517:\n        /* \"#utility.yul\":15985:15995   */\n      dup1\n        /* \"#utility.yul\":15981:15983   */\n      0x40\n        /* \"#utility.yul\":15974:15996   */\n      mstore\n        /* \"#utility.yul\":15764:16002   */\n      pop\n        /* \"#utility.yul\":15721:16002   */\n      pop\n      pop\n      jump\t// out\n        /* \"#utility.yul\":16008:16241   */\n    tag_95:\n        /* \"#utility.yul\":16047:16050   */\n      0x00\n        /* \"#utility.yul\":16070:16094   */\n      tag_520\n        /* \"#utility.yul\":16088:16093   */\n      dup3\n        /* \"#utility.yul\":16070:16094   */\n      tag_428\n      jump\t// in\n    tag_520:\n        /* \"#utility.yul\":16061:16094   */\n      swap2\n      pop\n        /* \"#utility.yul\":16116:16182   */\n      0xffffffffffffffffffffffffffffffffffffffffffffffffffffffffffffffff\n        /* \"#utility.yul\":16109:16114   */\n      dup3\n        /* \"#utility.yul\":16106:16183   */\n      eq\n        /* \"#utility.yul\":16103:16206   */\n      iszero\n      tag_521\n      jumpi\n        /* \"#utility.yul\":16186:16204   */\n      tag_522\n      tag_492\n      jump\t// in\n    tag_522:\n        /* \"#utility.yul\":16103:16206   */\n    tag_521:\n        /* \"#utility.yul\":16233:16234   */\n      0x01\n        /* \"#utility.yul\":16226:16231   */\n      dup3\n        /* \"#utility.yul\":16222:16235   */\n      add\n        /* \"#utility.yul\":16215:16235   */\n      swap1\n      pop\n        /* \"#utility.yul\":16008:16241   */\n      swap2\n      swap1\n      pop\n      jump\t// out\n        /* \"#utility.yul\":16247:16422   */\n    tag_124:\n        /* \"#utility.yul\":16285:16288   */\n      0x00\n        /* \"#utility.yul\":16308:16331   */\n      tag_524\n        /* \"#utility.yul\":16325:16330   */\n      dup3\n        /* \"#utility.yul\":16308:16331   */\n      tag_437\n      jump\t// in\n    tag_524:\n        /* \"#utility.yul\":16299:16331   */\n      swap2\n      pop\n        /* \"#utility.yul\":16353:16363   */\n      0xffffffff\n        /* \"#utility.yul\":16346:16351   */\n      dup3\n        /* \"#utility.yul\":16343:16364   */\n      eq\n        /* \"#utility.yul\":16340:16387   */\n      iszero\n      tag_525\n      jumpi\n        /* \"#utility.yul\":16367:16385   */\n      tag_526\n      tag_492\n      jump\t// in\n    tag_526:\n        /* \"#utility.yul\":16340:16387   */\n    tag_525:\n        /* \"#utility.yul\":16414:16415   */\n      0x01\n        /* \"#utility.yul\":16407:16412   */\n      dup3\n        /* \"#utility.yul\":16403:16416   */\n      add\n        /* \"#utility.yul\":16396:16416   */\n      swap1\n      pop\n        /* \"#utility.yul\":16247:16422   */\n      swap2\n      swap1\n      pop\n      jump\t// out\n        /* \"#utility.yul\":16428:16507   */\n    tag_433:\n        /* \"#utility.yul\":16467:16474   */\n      0x00\n        /* \"#utility.yul\":16496:16501   */\n      dup2\n        /* \"#utility.yul\":16485:16501   */\n      swap1\n      pop\n        /* \"#utility.yul\":16428:16507   */\n      swap2\n      swap1\n      pop\n      jump\t// out\n        /* \"#utility.yul\":16513:16689   */\n    tag_136:\n        /* \"#utility.yul\":16545:16546   */\n      0x00\n        /* \"#utility.yul\":16562:16582   */\n      tag_529\n        /* \"#utility.yul\":16580:16581   */\n      dup3\n        /* \"#utility.yul\":16562:16582   */\n      tag_428\n      jump\t// in\n    tag_529:\n        /* \"#utility.yul\":16557:16582   */\n      swap2\n      pop\n        /* \"#utility.yul\":16596:16616   */\n      tag_530\n        /* \"#utility.yul\":16614:16615   */\n      dup4\n        /* \"#utility.yul\":16596:16616   */\n      tag_428\n      jump\t// in\n    tag_530:\n        /* \"#utility.yul\":16591:16616   */\n      swap3\n      pop\n        /* \"#utility.yul\":16635:16636   */\n      dup3\n        /* \"#utility.yul\":16625:16660   */\n      tag_531\n      jumpi\n        /* \"#utility.yul\":16640:16658   */\n      tag_532\n      tag_533\n      jump\t// in\n    tag_532:\n        /* \"#utility.yul\":16625:16660   */\n    tag_531:\n        /* \"#utility.yul\":16681:16682   */\n      dup3\n        /* \"#utility.yul\":16678:16679   */\n      dup3\n        /* \"#utility.yul\":16674:16683   */\n      mod\n        /* \"#utility.yul\":16669:16683   */\n      swap1\n      pop\n        /* \"#utility.yul\":16513:16689   */\n      swap3\n      swap2\n      pop\n      pop\n      jump\t// out\n        /* \"#utility.yul\":16695:16875   */\n    tag_492:\n        /* \"#utility.yul\":16743:16820   */\n      0x4e487b7100000000000000000000000000000000000000000000000000000000\n        /* \"#utility.yul\":16740:16741   */\n      0x00\n        /* \"#utility.yul\":16733:16821   */\n      mstore\n        /* \"#utility.yul\":16840:16844   */\n      0x11\n        /* \"#utility.yul\":16837:16838   */\n      0x04\n        /* \"#utility.yul\":16830:16845   */\n      mstore\n        /* \"#utility.yul\":16864:16868   */\n      0x24\n        /* \"#utility.yul\":16861:16862   */\n      0x00\n        /* \"#utility.yul\":16854:16869   */\n      revert\n        /* \"#utility.yul\":16881:17061   */\n    tag_533:\n        /* \"#utility.yul\":16929:17006   */\n      0x4e487b7100000000000000000000000000000000000000000000000000000000\n        /* \"#utility.yul\":16926:16927   */\n      0x00\n        /* \"#utility.yul\":16919:17007   */\n      mstore\n        /* \"#utility.yul\":17026:17030   */\n      0x12\n        /* \"#utility.yul\":17023:17024   */\n      0x04\n        /* \"#utility.yul\":17016:17031   */\n      mstore\n        /* \"#utility.yul\":17050:17054   */\n      0x24\n        /* \"#utility.yul\":17047:17048   */\n      0x00\n        /* \"#utility.yul\":17040:17055   */\n      revert\n        /* \"#utility.yul\":17067:17247   */\n    tag_514:\n        /* \"#utility.yul\":17115:17192   */\n      0x4e487b7100000000000000000000000000000000000000000000000000000000\n        /* \"#utility.yul\":17112:17113   */\n      0x00\n        /* \"#utility.yul\":17105:17193   */\n      mstore\n        /* \"#utility.yul\":17212:17216   */\n      0x22\n        /* \"#utility.yul\":17209:17210   */\n      0x04\n        /* \"#utility.yul\":17202:17217   */\n      mstore\n        /* \"#utility.yul\":17236:17240   */\n      0x24\n        /* \"#utility.yul\":17233:17234   */\n      0x00\n        /* \"#utility.yul\":17226:17241   */\n      revert\n        /* \"#utility.yul\":17253:17433   */\n    tag_82:\n        /* \"#utility.yul\":17301:17378   */\n      0x4e487b7100000000000000000000000000000000000000000000000000000000\n        /* \"#utility.yul\":17298:17299   */\n      0x00\n        /* \"#utility.yul\":17291:17379   */\n      mstore\n        /* \"#utility.yul\":17398:17402   */\n      0x32\n        /* \"#utility.yul\":17395:17396   */\n      0x04\n        /* \"#utility.yul\":17388:17403   */\n      mstore\n        /* \"#utility.yul\":17422:17426   */\n      0x24\n        /* \"#utility.yul\":17419:17420   */\n      0x00\n        /* \"#utility.yul\":17412:17427   */\n      revert\n        /* \"#utility.yul\":17439:17619   */\n    tag_482:\n        /* \"#utility.yul\":17487:17564   */\n      0x4e487b7100000000000000000000000000000000000000000000000000000000\n        /* \"#utility.yul\":17484:17485   */\n      0x00\n        /* \"#utility.yul\":17477:17565   */\n      mstore\n        /* \"#utility.yul\":17584:17588   */\n      0x41\n        /* \"#utility.yul\":17581:17582   */\n      0x04\n        /* \"#utility.yul\":17574:17589   */\n      mstore\n        /* \"#utility.yul\":17608:17612   */\n      0x24\n        /* \"#utility.yul\":17605:17606   */\n      0x00\n        /* \"#utility.yul\":17598:17613   */\n      revert\n        /* \"#utility.yul\":17625:17742   */\n    tag_336:\n        /* \"#utility.yul\":17734:17735   */\n      0x00\n        /* \"#utility.yul\":17731:17732   */\n      dup1\n        /* \"#utility.yul\":17724:17736   */\n      revert\n        /* \"#utility.yul\":17748:17865   */\n    tag_325:\n        /* \"#utility.yul\":17857:17858   */\n      0x00\n        /* \"#utility.yul\":17854:17855   */\n      dup1\n        /* \"#utility.yul\":17847:17859   */\n      revert\n        /* \"#utility.yul\":17871:17988   */\n    tag_353:\n        /* \"#utility.yul\":17980:17981   */\n      0x00\n        /* \"#utility.yul\":17977:17978   */\n      dup1\n        /* \"#utility.yul\":17970:17982   */\n      revert\n        /* \"#utility.yul\":17994:18111   */\n    tag_345:\n        /* \"#utility.yul\":18103:18104   */\n      0x00\n        /* \"#utility.yul\":18100:18101   */\n      dup1\n        /* \"#utility.yul\":18093:18105   */\n      revert\n        /* \"#utility.yul\":18117:18219   */\n    tag_387:\n        /* \"#utility.yul\":18158:18164   */\n      0x00\n        /* \"#utility.yul\":18209:18211   */\n      0x1f\n        /* \"#utility.yul\":18205:18212   */\n      not\n        /* \"#utility.yul\":18200:18202   */\n      0x1f\n        /* \"#utility.yul\":18193:18198   */\n      dup4\n        /* \"#utility.yul\":18189:18203   */\n      add\n        /* \"#utility.yul\":18185:18213   */\n      and\n        /* \"#utility.yul\":18175:18213   */\n      swap1\n      pop\n        /* \"#utility.yul\":18117:18219   */\n      swap2\n      swap1\n      pop\n      jump\t// out\n        /* \"#utility.yul\":18225:18452   */\n    tag_404:\n        /* \"#utility.yul\":18365:18399   */\n      0x536f6c6f2073652070756564652074656e657220756e20636f63686520706f72\n        /* \"#utility.yul\":18361:18362   */\n      0x00\n        /* \"#utility.yul\":18353:18359   */\n      dup3\n        /* \"#utility.yul\":18349:18363   */\n      add\n        /* \"#utility.yul\":18342:18400   */\n      mstore\n        /* \"#utility.yul\":18434:18444   */\n      0x20706572736f6e61000000000000000000000000000000000000000000000000\n        /* \"#utility.yul\":18429:18431   */\n      0x20\n        /* \"#utility.yul\":18421:18427   */\n      dup3\n        /* \"#utility.yul\":18417:18432   */\n      add\n        /* \"#utility.yul\":18410:18445   */\n      mstore\n        /* \"#utility.yul\":18225:18452   */\n      pop\n      jump\t// out\n        /* \"#utility.yul\":18458:18683   */\n    tag_409:\n        /* \"#utility.yul\":18598:18632   */\n      0x4f776e61626c653a206e6577206f776e657220697320746865207a65726f2061\n        /* \"#utility.yul\":18594:18595   */\n      0x00\n        /* \"#utility.yul\":18586:18592   */\n      dup3\n        /* \"#utility.yul\":18582:18596   */\n      add\n        /* \"#utility.yul\":18575:18633   */\n      mstore\n        /* \"#utility.yul\":18667:18675   */\n      0x6464726573730000000000000000000000000000000000000000000000000000\n        /* \"#utility.yul\":18662:18664   */\n      0x20\n        /* \"#utility.yul\":18654:18660   */\n      dup3\n        /* \"#utility.yul\":18650:18665   */\n      add\n        /* \"#utility.yul\":18643:18676   */\n      mstore\n        /* \"#utility.yul\":18458:18683   */\n      pop\n      jump\t// out\n        /* \"#utility.yul\":18689:18926   */\n    tag_414:\n        /* \"#utility.yul\":18829:18863   */\n      0x4e6f2068617920636f6368657320737566696369656e74657320706172612069\n        /* \"#utility.yul\":18825:18826   */\n      0x00\n        /* \"#utility.yul\":18817:18823   */\n      dup3\n        /* \"#utility.yul\":18813:18827   */\n      add\n        /* \"#utility.yul\":18806:18864   */\n      mstore\n        /* \"#utility.yul\":18898:18918   */\n      0x6e696369617220756e6120636172726572610000000000000000000000000000\n        /* \"#utility.yul\":18893:18895   */\n      0x20\n        /* \"#utility.yul\":18885:18891   */\n      dup3\n        /* \"#utility.yul\":18881:18896   */\n      add\n        /* \"#utility.yul\":18874:18919   */\n      mstore\n        /* \"#utility.yul\":18689:18926   */\n      pop\n      jump\t// out\n        /* \"#utility.yul\":18932:19114   */\n    tag_419:\n        /* \"#utility.yul\":19072:19106   */\n      0x4f776e61626c653a2063616c6c6572206973206e6f7420746865206f776e6572\n        /* \"#utility.yul\":19068:19069   */\n      0x00\n        /* \"#utility.yul\":19060:19066   */\n      dup3\n        /* \"#utility.yul\":19056:19070   */\n      add\n        /* \"#utility.yul\":19049:19107   */\n      mstore\n        /* \"#utility.yul\":18932:19114   */\n      pop\n      jump\t// out\n        /* \"#utility.yul\":19120:19291   */\n    tag_424:\n        /* \"#utility.yul\":19260:19283   */\n      0x456c20636f6368652067616e61646f722065733a200000000000000000000000\n        /* \"#utility.yul\":19256:19257   */\n      0x00\n        /* \"#utility.yul\":19248:19254   */\n      dup3\n        /* \"#utility.yul\":19244:19258   */\n      add\n        /* \"#utility.yul\":19237:19284   */\n      mstore\n        /* \"#utility.yul\":19120:19291   */\n      pop\n      jump\t// out\n        /* \"#utility.yul\":19297:19419   */\n    tag_331:\n        /* \"#utility.yul\":19370:19394   */\n      tag_550\n        /* \"#utility.yul\":19388:19393   */\n      dup2\n        /* \"#utility.yul\":19370:19394   */\n      tag_377\n      jump\t// in\n    tag_550:\n        /* \"#utility.yul\":19363:19368   */\n      dup2\n        /* \"#utility.yul\":19360:19395   */\n      eq\n        /* \"#utility.yul\":19350:19413   */\n      tag_551\n      jumpi\n        /* \"#utility.yul\":19409:19410   */\n      0x00\n        /* \"#utility.yul\":19406:19407   */\n      dup1\n        /* \"#utility.yul\":19399:19411   */\n      revert\n        /* \"#utility.yul\":19350:19413   */\n    tag_551:\n        /* \"#utility.yul\":19297:19419   */\n      pop\n      jump\t// out\n        /* \"#utility.yul\":19425:19547   */\n    tag_341:\n        /* \"#utility.yul\":19498:19522   */\n      tag_553\n        /* \"#utility.yul\":19516:19521   */\n      dup2\n        /* \"#utility.yul\":19498:19522   */\n      tag_428\n      jump\t// in\n    tag_553:\n        /* \"#utility.yul\":19491:19496   */\n      dup2\n        /* \"#utility.yul\":19488:19523   */\n      eq\n        /* \"#utility.yul\":19478:19541   */\n      tag_554\n      jumpi\n        /* \"#utility.yul\":19537:19538   */\n      0x00\n        /* \"#utility.yul\":19534:19535   */\n      dup1\n        /* \"#utility.yul\":19527:19539   */\n      revert\n        /* \"#utility.yul\":19478:19541   */\n    tag_554:\n        /* \"#utility.yul\":19425:19547   */\n      pop\n      jump\t// out\n\n    auxdata: 0xa2646970667358221220dcb8738cad5288c459e4deb64f52fb53da177320475ac6d6c4756abcd3a73b9964736f6c63430008070033\n}\n",
				"bytecode": {
					"linkReferences": {},
					"object": "608060405260006001556000600255603c600355670de0b6b3a7640000600455671bc16d674ec800006005553480156200003857600080fd5b50620000596200004d6200005f60201b60201c565b6200006760201b60201c565b6200012b565b600033905090565b60008060009054906101000a900473ffffffffffffffffffffffffffffffffffffffff169050816000806101000a81548173ffffffffffffffffffffffffffffffffffffffff021916908373ffffffffffffffffffffffffffffffffffffffff1602179055508173ffffffffffffffffffffffffffffffffffffffff168173ffffffffffffffffffffffffffffffffffffffff167f8be0079c531659141344cd1fd0a4f28419497f9722a3daafe3b4186f6b6457e060405160405180910390a35050565b6124f1806200013b6000396000f3fe6080604052600436106100a75760003560e01c8063858b055411610064578063858b0554146101cd5780638da5cb5b1461020a578063b2bdfa7b14610235578063d735573d14610260578063e172fca8146102a4578063f2fde38b146102cd576100a7565b8063049a5f65146100ac5780631c6743e4146100dc5780632458c544146101195780636a7d1816146101565780636b6f049414610186578063715018a6146101b6575b600080fd5b6100c660048036038101906100c19190611a57565b6102f6565b6040516100d39190611e4d565b60405180910390f35b3480156100e857600080fd5b5061010360048036038101906100fe9190611a2a565b610457565b6040516101109190611f70565b60405180910390f35b34801561012557600080fd5b50610140600480360381019061013b9190611ae2565b61046f565b60405161014d9190611f70565b60405180910390f35b610170600480360381019061016b9190611a2a565b610751565b60405161017d9190611e4d565b60405180910390f35b6101a0600480360381019061019b9190611b89565b6108a6565b6040516101ad9190611e4d565b60405180910390f35b3480156101c257600080fd5b506101cb6111e1565b005b3480156101d957600080fd5b506101f460048036038101906101ef9190611b89565b611269565b6040516102019190611d9f565b60405180910390f35b34801561021657600080fd5b5061021f61129c565b60405161022c9190611d9f565b60405180910390f35b34801561024157600080fd5b5061024a6112c5565b6040516102579190611d9f565b60405180910390f35b34801561026c57600080fd5b5061028760048036038101906102829190611b89565b6112e9565b60405161029b989796959493929190611dba565b60405180910390f35b3480156102b057600080fd5b506102cb60048036038101906102c69190611a2a565b611509565b005b3480156102d957600080fd5b506102f460048036038101906102ef9190611a2a565b6116b0565b005b60608373ffffffffffffffffffffffffffffffffffffffff163373ffffffffffffffffffffffffffffffffffffffff161461033057600080fd5b600554341461033e57600080fd5b60005b60068054905081101561044f573373ffffffffffffffffffffffffffffffffffffffff1660068281548110610379576103786122cb565b5b906000526020600020906008020160000160009054906101000a900473ffffffffffffffffffffffffffffffffffffffff1673ffffffffffffffffffffffffffffffffffffffff16141561043c5783600682815481106103dc576103db6122cb565b5b906000526020600020906008020160010190805190602001906104009291906118ed565b508260068281548110610416576104156122cb565b5b9060005260206000209060080201600201908051906020019061043a9291906118ed565b505b80806104479061218d565b915050610341565b509392505050565b60086020528060005260406000206000915090505481565b60006001600860003373ffffffffffffffffffffffffffffffffffffffff1673ffffffffffffffffffffffffffffffffffffffff16815260200190815260200160002054106104f3576040517f08c379a00000000000000000000000000000000000000000000000000000000081526004016104ea90611ed0565b60405180910390fd5b60066040518061010001604052803373ffffffffffffffffffffffffffffffffffffffff16815260200186815260200185815260200184815260200160008152602001600081526020016003544261054b9190612012565b63ffffffff168152602001600163ffffffff16815250908060018154018082558091505060019003906000526020600020906008020160009091909190915060008201518160000160006101000a81548173ffffffffffffffffffffffffffffffffffffffff021916908373ffffffffffffffffffffffffffffffffffffffff16021790555060208201518160010190805190602001906105ed9291906118ed565b50604082015181600201908051906020019061060a9291906118ed565b5060608201518160030190805190602001906106279291906118ed565b506080820151816004015560a0820151816005015560c0820151816006015560e08201518160070160006101000a81548163ffffffff021916908363ffffffff160217905550505060006006805490509050336007600083815260200190815260200160002060006101000a81548173ffffffffffffffffffffffffffffffffffffffff021916908373ffffffffffffffffffffffffffffffffffffffff160217905550600860003373ffffffffffffffffffffffffffffffffffffffff1673ffffffffffffffffffffffffffffffffffffffff168152602001908152602001600020600081548092919061071b9061218d565b9190505550600260008154809291906107339061218d565b919050555060016002546107479190612068565b9150509392505050565b6060600454341461076157600080fd5b60005b60068054905081101561089f578273ffffffffffffffffffffffffffffffffffffffff166006828154811061079c5761079b6122cb565b5b906000526020600020906008020160000160009054906101000a900473ffffffffffffffffffffffffffffffffffffffff1673ffffffffffffffffffffffffffffffffffffffff16141561088c57600681815481106107fe576107fd6122cb565b5b9060005260206000209060080201600701600081819054906101000a900463ffffffff168092919061082f906121d6565b91906101000a81548163ffffffff021916908363ffffffff160217905550506040518060400160405280601281526020017f48612073756269646f206465206e6976656c00000000000000000000000000008152509150506108a1565b80806108979061218d565b915050610764565b505b919050565b60606001600680549050116108ef577f6158fc8f21c8cc73ddf920956cc75d0e8a48b4fc85817a0ba89eb3b6d2a754416040516108e290611f10565b60405180910390a16111db565b8134146108fb57600080fd5b6001600081548092919061090e9061218d565b919050555060006006805490504260068054905060015460405160200161093793929190611d62565b6040516020818303038152906040528051906020012060001c61095a919061220d565b905060006007600083815260200190815260200160002060009054906101000a900473ffffffffffffffffffffffffffffffffffffffff169050600160008154809291906109a79061218d565b919050555060006064905060008142836001546040516020016109cc93929190611d62565b6040516020818303038152906040528051906020012060001c6109ef919061220d565b905060005b6006805490508110156111d55760068181548110610a1557610a146122cb565b5b906000526020600020906008020160000160009054906101000a900473ffffffffffffffffffffffffffffffffffffffff1673ffffffffffffffffffffffffffffffffffffffff163373ffffffffffffffffffffffffffffffffffffffff1614156111c257610aa460068281548110610a9157610a906122cb565b5b90600052602060002090600802016117a8565b610aad57600080fd5b60068181548110610ac157610ac06122cb565b5b90600052602060002090600802016005016000815480929190610ae39061218d565b919050555060068581548110610afc57610afb6122cb565b5b90600052602060002090600802016005016000815480929190610b1e9061218d565b9190505550610b4d60068281548110610b3a57610b396122cb565b5b90600052602060002090600802016117b9565b60068181548110610b6157610b606122cb565b5b906000526020600020906008020160070160009054906101000a900463ffffffff1663ffffffff1660068681548110610b9d57610b9c6122cb565b5b906000526020600020906008020160070160009054906101000a900463ffffffff1663ffffffff161015610d9e57603c8211610cbc57610bdb6117d8565b60068181548110610bef57610bee6122cb565b5b90600052602060002090600802016004016000815480929190610c119061218d565b919050555060068181548110610c2a57610c296122cb565b5b9060005260206000209060080201600701600081819054906101000a900463ffffffff1680929190610c5b906121d6565b91906101000a81548163ffffffff021916908363ffffffff160217905550506040518060400160405280600a81526020017f4861732067616e61646f00000000000000000000000000000000000000000000815250955050505050506111dc565b7f6158fc8f21c8cc73ddf920956cc75d0e8a48b4fc85817a0ba89eb3b6d2a75441604051610ce990611f50565b60405180910390a13073ffffffffffffffffffffffffffffffffffffffff1663e172fca8856040518263ffffffff1660e01b8152600401610d2a9190611d9f565b600060405180830381600087803b158015610d4457600080fd5b505af1158015610d58573d6000803e3d6000fd5b505050506040518060400160405280600b81526020017f486173207065726469646f000000000000000000000000000000000000000000815250955050505050506111dc565b60068181548110610db257610db16122cb565b5b906000526020600020906008020160070160009054906101000a900463ffffffff1663ffffffff1660068681548110610dee57610ded6122cb565b5b906000526020600020906008020160070160009054906101000a900463ffffffff1663ffffffff161415610fef5760328211610f0d57610e2c6117d8565b60068181548110610e4057610e3f6122cb565b5b90600052602060002090600802016004016000815480929190610e629061218d565b919050555060068181548110610e7b57610e7a6122cb565b5b9060005260206000209060080201600701600081819054906101000a900463ffffffff1680929190610eac906121d6565b91906101000a81548163ffffffff021916908363ffffffff160217905550506040518060400160405280600a81526020017f4861732067616e61646f00000000000000000000000000000000000000000000815250955050505050506111dc565b7f6158fc8f21c8cc73ddf920956cc75d0e8a48b4fc85817a0ba89eb3b6d2a75441604051610f3a90611f50565b60405180910390a13073ffffffffffffffffffffffffffffffffffffffff1663e172fca8856040518263ffffffff1660e01b8152600401610f7b9190611d9f565b600060405180830381600087803b158015610f9557600080fd5b505af1158015610fa9573d6000803e3d6000fd5b505050506040518060400160405280600b81526020017f486173207065726469646f000000000000000000000000000000000000000000815250955050505050506111dc565b602882116110e057610fff6117d8565b60068181548110611013576110126122cb565b5b906000526020600020906008020160040160008154809291906110359061218d565b91905055506006818154811061104e5761104d6122cb565b5b9060005260206000209060080201600701600081819054906101000a900463ffffffff168092919061107f906121d6565b91906101000a81548163ffffffff021916908363ffffffff160217905550506040518060400160405280600a81526020017f4861732067616e61646f00000000000000000000000000000000000000000000815250955050505050506111dc565b7f6158fc8f21c8cc73ddf920956cc75d0e8a48b4fc85817a0ba89eb3b6d2a7544160405161110d90611f50565b60405180910390a13073ffffffffffffffffffffffffffffffffffffffff1663e172fca8856040518263ffffffff1660e01b815260040161114e9190611d9f565b600060405180830381600087803b15801561116857600080fd5b505af115801561117c573d6000803e3d6000fd5b505050506040518060400160405280600b81526020017f486173207065726469646f000000000000000000000000000000000000000000815250955050505050506111dc565b80806111cd9061218d565b9150506109f4565b50505050505b5b919050565b6111e9611821565b73ffffffffffffffffffffffffffffffffffffffff1661120761129c565b73ffffffffffffffffffffffffffffffffffffffff161461125d576040517f08c379a000000000000000000000000000000000000000000000000000000000815260040161125490611f30565b60405180910390fd5b6112676000611829565b565b60076020528060005260406000206000915054906101000a900473ffffffffffffffffffffffffffffffffffffffff1681565b60008060009054906101000a900473ffffffffffffffffffffffffffffffffffffffff16905090565b60008054906101000a900473ffffffffffffffffffffffffffffffffffffffff1681565b600681815481106112f957600080fd5b90600052602060002090600802016000915090508060000160009054906101000a900473ffffffffffffffffffffffffffffffffffffffff16908060010180546113429061212a565b80601f016020809104026020016040519081016040528092919081815260200182805461136e9061212a565b80156113bb5780601f10611390576101008083540402835291602001916113bb565b820191906000526020600020905b81548152906001019060200180831161139e57829003601f168201915b5050505050908060020180546113d09061212a565b80601f01602080910402602001604051908101604052809291908181526020018280546113fc9061212a565b80156114495780601f1061141e57610100808354040283529160200191611449565b820191906000526020600020905b81548152906001019060200180831161142c57829003601f168201915b50505050509080600301805461145e9061212a565b80601f016020809104026020016040519081016040528092919081815260200182805461148a9061212a565b80156114d75780601f106114ac576101008083540402835291602001916114d7565b820191906000526020600020905b8154815290600101906020018083116114ba57829003601f168201915b5050505050908060040154908060050154908060060154908060070160009054906101000a900463ffffffff16905088565b60005b6006805490508110156116ac578173ffffffffffffffffffffffffffffffffffffffff1660068281548110611544576115436122cb565b5b906000526020600020906008020160000160009054906101000a900473ffffffffffffffffffffffffffffffffffffffff1673ffffffffffffffffffffffffffffffffffffffff161415611699577f20fdb8ab571bfbab79104bea84f9c31cb79c5ae45b5f515c1d6c8393e0028350600682815481106115c7576115c66122cb565b5b9060005260206000209060080201600201600683815481106115ec576115eb6122cb565b5b906000526020600020906008020160010160068481548110611611576116106122cb565b5b906000526020600020906008020160070160009054906101000a900463ffffffff1660068581548110611647576116466122cb565b5b9060005260206000209060080201600401546006868154811061166d5761166c6122cb565b5b906000526020600020906008020160050154604051611690959493929190611e6f565b60405180910390a15b80806116a49061218d565b91505061150c565b5050565b6116b8611821565b73ffffffffffffffffffffffffffffffffffffffff166116d661129c565b73ffffffffffffffffffffffffffffffffffffffff161461172c576040517f08c379a000000000000000000000000000000000000000000000000000000000815260040161172390611f30565b60405180910390fd5b600073ffffffffffffffffffffffffffffffffffffffff168173ffffffffffffffffffffffffffffffffffffffff16141561179c576040517f08c379a000000000000000000000000000000000000000000000000000000000815260040161179390611ef0565b60405180910390fd5b6117a581611829565b50565b600042826006015411159050919050565b600354426117c79190612012565b63ffffffff16816006018190555050565b3373ffffffffffffffffffffffffffffffffffffffff166108fc479081150290604051600060405180830381858888f1935050505015801561181e573d6000803e3d6000fd5b50565b600033905090565b60008060009054906101000a900473ffffffffffffffffffffffffffffffffffffffff169050816000806101000a81548173ffffffffffffffffffffffffffffffffffffffff021916908373ffffffffffffffffffffffffffffffffffffffff1602179055508173ffffffffffffffffffffffffffffffffffffffff168173ffffffffffffffffffffffffffffffffffffffff167f8be0079c531659141344cd1fd0a4f28419497f9722a3daafe3b4186f6b6457e060405160405180910390a35050565b8280546118f99061212a565b90600052602060002090601f01602090048101928261191b5760008555611962565b82601f1061193457805160ff1916838001178555611962565b82800160010185558215611962579182015b82811115611961578251825591602001919060010190611946565b5b50905061196f9190611973565b5090565b5b8082111561198c576000816000905550600101611974565b5090565b60006119a361199e84611fb0565b611f8b565b9050828152602081018484840111156119bf576119be61232e565b5b6119ca8482856120e8565b509392505050565b6000813590506119e18161248d565b92915050565b600082601f8301126119fc576119fb612329565b5b8135611a0c848260208601611990565b91505092915050565b600081359050611a24816124a4565b92915050565b600060208284031215611a4057611a3f612338565b5b6000611a4e848285016119d2565b91505092915050565b600080600060608486031215611a7057611a6f612338565b5b6000611a7e868287016119d2565b935050602084013567ffffffffffffffff811115611a9f57611a9e612333565b5b611aab868287016119e7565b925050604084013567ffffffffffffffff811115611acc57611acb612333565b5b611ad8868287016119e7565b9150509250925092565b600080600060608486031215611afb57611afa612338565b5b600084013567ffffffffffffffff811115611b1957611b18612333565b5b611b25868287016119e7565b935050602084013567ffffffffffffffff811115611b4657611b45612333565b5b611b52868287016119e7565b925050604084013567ffffffffffffffff811115611b7357611b72612333565b5b611b7f868287016119e7565b9150509250925092565b600060208284031215611b9f57611b9e612338565b5b6000611bad84828501611a15565b91505092915050565b611bbf8161209c565b82525050565b6000611bd082611ff6565b611bda8185612001565b9350611bea8185602086016120f7565b611bf38161233d565b840191505092915050565b60008154611c0b8161212a565b611c158186612001565b94506001821660008114611c305760018114611c4257611c75565b60ff1983168652602086019350611c75565b611c4b85611fe1565b60005b83811015611c6d57815481890152600182019150602081019050611c4e565b808801955050505b50505092915050565b6000611c8b602883612001565b9150611c968261234e565b604082019050919050565b6000611cae602683612001565b9150611cb98261239d565b604082019050919050565b6000611cd1603283612001565b9150611cdc826123ec565b604082019050919050565b6000611cf4602083612001565b9150611cff8261243b565b602082019050919050565b6000611d17601583612001565b9150611d2282612464565b602082019050919050565b611d36816120ce565b82525050565b611d4d611d48826120ce565b612203565b82525050565b611d5c816120d8565b82525050565b6000611d6e8286611d3c565b602082019150611d7e8285611d3c565b602082019150611d8e8284611d3c565b602082019150819050949350505050565b6000602082019050611db46000830184611bb6565b92915050565b600061010082019050611dd0600083018b611bb6565b8181036020830152611de2818a611bc5565b90508181036040830152611df68189611bc5565b90508181036060830152611e0a8188611bc5565b9050611e196080830187611d2d565b611e2660a0830186611d2d565b611e3360c0830185611d2d565b611e4060e0830184611d53565b9998505050505050505050565b60006020820190508181036000830152611e678184611bc5565b905092915050565b600060a0820190508181036000830152611e898188611bfe565b90508181036020830152611e9d8187611bfe565b9050611eac6040830186611d53565b611eb96060830185611d2d565b611ec66080830184611d2d565b9695505050505050565b60006020820190508181036000830152611ee981611c7e565b9050919050565b60006020820190508181036000830152611f0981611ca1565b9050919050565b60006020820190508181036000830152611f2981611cc4565b9050919050565b60006020820190508181036000830152611f4981611ce7565b9050919050565b60006020820190508181036000830152611f6981611d0a565b9050919050565b6000602082019050611f856000830184611d2d565b92915050565b6000611f95611fa6565b9050611fa1828261215c565b919050565b6000604051905090565b600067ffffffffffffffff821115611fcb57611fca6122fa565b5b611fd48261233d565b9050602081019050919050565b60008190508160005260206000209050919050565b600081519050919050565b600082825260208201905092915050565b600061201d826120ce565b9150612028836120ce565b9250827fffffffffffffffffffffffffffffffffffffffffffffffffffffffffffffffff0382111561205d5761205c61223e565b5b828201905092915050565b6000612073826120ce565b915061207e836120ce565b9250828210156120915761209061223e565b5b828203905092915050565b60006120a7826120ae565b9050919050565b600073ffffffffffffffffffffffffffffffffffffffff82169050919050565b6000819050919050565b600063ffffffff82169050919050565b82818337600083830152505050565b60005b838110156121155780820151818401526020810190506120fa565b83811115612124576000848401525b50505050565b6000600282049050600182168061214257607f821691505b602082108114156121565761215561229c565b5b50919050565b6121658261233d565b810181811067ffffffffffffffff82111715612184576121836122fa565b5b80604052505050565b6000612198826120ce565b91507fffffffffffffffffffffffffffffffffffffffffffffffffffffffffffffffff8214156121cb576121ca61223e565b5b600182019050919050565b60006121e1826120d8565b915063ffffffff8214156121f8576121f761223e565b5b600182019050919050565b6000819050919050565b6000612218826120ce565b9150612223836120ce565b9250826122335761223261226d565b5b828206905092915050565b7f4e487b7100000000000000000000000000000000000000000000000000000000600052601160045260246000fd5b7f4e487b7100000000000000000000000000000000000000000000000000000000600052601260045260246000fd5b7f4e487b7100000000000000000000000000000000000000000000000000000000600052602260045260246000fd5b7f4e487b7100000000000000000000000000000000000000000000000000000000600052603260045260246000fd5b7f4e487b7100000000000000000000000000000000000000000000000000000000600052604160045260246000fd5b600080fd5b600080fd5b600080fd5b600080fd5b6000601f19601f8301169050919050565b7f536f6c6f2073652070756564652074656e657220756e20636f63686520706f7260008201527f20706572736f6e61000000000000000000000000000000000000000000000000602082015250565b7f4f776e61626c653a206e6577206f776e657220697320746865207a65726f206160008201527f6464726573730000000000000000000000000000000000000000000000000000602082015250565b7f4e6f2068617920636f6368657320737566696369656e7465732070617261206960008201527f6e696369617220756e6120636172726572610000000000000000000000000000602082015250565b7f4f776e61626c653a2063616c6c6572206973206e6f7420746865206f776e6572600082015250565b7f456c20636f6368652067616e61646f722065733a200000000000000000000000600082015250565b6124968161209c565b81146124a157600080fd5b50565b6124ad816120ce565b81146124b857600080fd5b5056fea2646970667358221220dcb8738cad5288c459e4deb64f52fb53da177320475ac6d6c4756abcd3a73b9964736f6c63430008070033",
					"opcodes": "PUSH1 0x80 PUSH1 0x40 MSTORE PUSH1 0x0 PUSH1 0x1 SSTORE PUSH1 0x0 PUSH1 0x2 SSTORE PUSH1 0x3C PUSH1 0x3 SSTORE PUSH8 0xDE0B6B3A7640000 PUSH1 0x4 SSTORE PUSH8 0x1BC16D674EC80000 PUSH1 0x5 SSTORE CALLVALUE DUP1 ISZERO PUSH3 0x38 JUMPI PUSH1 0x0 DUP1 REVERT JUMPDEST POP PUSH3 0x59 PUSH3 0x4D PUSH3 0x5F PUSH1 0x20 SHL PUSH1 0x20 SHR JUMP JUMPDEST PUSH3 0x67 PUSH1 0x20 SHL PUSH1 0x20 SHR JUMP JUMPDEST PUSH3 0x12B JUMP JUMPDEST PUSH1 0x0 CALLER SWAP1 POP SWAP1 JUMP JUMPDEST PUSH1 0x0 DUP1 PUSH1 0x0 SWAP1 SLOAD SWAP1 PUSH2 0x100 EXP SWAP1 DIV PUSH20 0xFFFFFFFFFFFFFFFFFFFFFFFFFFFFFFFFFFFFFFFF AND SWAP1 POP DUP2 PUSH1 0x0 DUP1 PUSH2 0x100 EXP DUP2 SLOAD DUP2 PUSH20 0xFFFFFFFFFFFFFFFFFFFFFFFFFFFFFFFFFFFFFFFF MUL NOT AND SWAP1 DUP4 PUSH20 0xFFFFFFFFFFFFFFFFFFFFFFFFFFFFFFFFFFFFFFFF AND MUL OR SWAP1 SSTORE POP DUP2 PUSH20 0xFFFFFFFFFFFFFFFFFFFFFFFFFFFFFFFFFFFFFFFF AND DUP2 PUSH20 0xFFFFFFFFFFFFFFFFFFFFFFFFFFFFFFFFFFFFFFFF AND PUSH32 0x8BE0079C531659141344CD1FD0A4F28419497F9722A3DAAFE3B4186F6B6457E0 PUSH1 0x40 MLOAD PUSH1 0x40 MLOAD DUP1 SWAP2 SUB SWAP1 LOG3 POP POP JUMP JUMPDEST PUSH2 0x24F1 DUP1 PUSH3 0x13B PUSH1 0x0 CODECOPY PUSH1 0x0 RETURN INVALID PUSH1 0x80 PUSH1 0x40 MSTORE PUSH1 0x4 CALLDATASIZE LT PUSH2 0xA7 JUMPI PUSH1 0x0 CALLDATALOAD PUSH1 0xE0 SHR DUP1 PUSH4 0x858B0554 GT PUSH2 0x64 JUMPI DUP1 PUSH4 0x858B0554 EQ PUSH2 0x1CD JUMPI DUP1 PUSH4 0x8DA5CB5B EQ PUSH2 0x20A JUMPI DUP1 PUSH4 0xB2BDFA7B EQ PUSH2 0x235 JUMPI DUP1 PUSH4 0xD735573D EQ PUSH2 0x260 JUMPI DUP1 PUSH4 0xE172FCA8 EQ PUSH2 0x2A4 JUMPI DUP1 PUSH4 0xF2FDE38B EQ PUSH2 0x2CD JUMPI PUSH2 0xA7 JUMP JUMPDEST DUP1 PUSH4 0x49A5F65 EQ PUSH2 0xAC JUMPI DUP1 PUSH4 0x1C6743E4 EQ PUSH2 0xDC JUMPI DUP1 PUSH4 0x2458C544 EQ PUSH2 0x119 JUMPI DUP1 PUSH4 0x6A7D1816 EQ PUSH2 0x156 JUMPI DUP1 PUSH4 0x6B6F0494 EQ PUSH2 0x186 JUMPI DUP1 PUSH4 0x715018A6 EQ PUSH2 0x1B6 JUMPI JUMPDEST PUSH1 0x0 DUP1 REVERT JUMPDEST PUSH2 0xC6 PUSH1 0x4 DUP1 CALLDATASIZE SUB DUP2 ADD SWAP1 PUSH2 0xC1 SWAP2 SWAP1 PUSH2 0x1A57 JUMP JUMPDEST PUSH2 0x2F6 JUMP JUMPDEST PUSH1 0x40 MLOAD PUSH2 0xD3 SWAP2 SWAP1 PUSH2 0x1E4D JUMP JUMPDEST PUSH1 0x40 MLOAD DUP1 SWAP2 SUB SWAP1 RETURN JUMPDEST CALLVALUE DUP1 ISZERO PUSH2 0xE8 JUMPI PUSH1 0x0 DUP1 REVERT JUMPDEST POP PUSH2 0x103 PUSH1 0x4 DUP1 CALLDATASIZE SUB DUP2 ADD SWAP1 PUSH2 0xFE SWAP2 SWAP1 PUSH2 0x1A2A JUMP JUMPDEST PUSH2 0x457 JUMP JUMPDEST PUSH1 0x40 MLOAD PUSH2 0x110 SWAP2 SWAP1 PUSH2 0x1F70 JUMP JUMPDEST PUSH1 0x40 MLOAD DUP1 SWAP2 SUB SWAP1 RETURN JUMPDEST CALLVALUE DUP1 ISZERO PUSH2 0x125 JUMPI PUSH1 0x0 DUP1 REVERT JUMPDEST POP PUSH2 0x140 PUSH1 0x4 DUP1 CALLDATASIZE SUB DUP2 ADD SWAP1 PUSH2 0x13B SWAP2 SWAP1 PUSH2 0x1AE2 JUMP JUMPDEST PUSH2 0x46F JUMP JUMPDEST PUSH1 0x40 MLOAD PUSH2 0x14D SWAP2 SWAP1 PUSH2 0x1F70 JUMP JUMPDEST PUSH1 0x40 MLOAD DUP1 SWAP2 SUB SWAP1 RETURN JUMPDEST PUSH2 0x170 PUSH1 0x4 DUP1 CALLDATASIZE SUB DUP2 ADD SWAP1 PUSH2 0x16B SWAP2 SWAP1 PUSH2 0x1A2A JUMP JUMPDEST PUSH2 0x751 JUMP JUMPDEST PUSH1 0x40 MLOAD PUSH2 0x17D SWAP2 SWAP1 PUSH2 0x1E4D JUMP JUMPDEST PUSH1 0x40 MLOAD DUP1 SWAP2 SUB SWAP1 RETURN JUMPDEST PUSH2 0x1A0 PUSH1 0x4 DUP1 CALLDATASIZE SUB DUP2 ADD SWAP1 PUSH2 0x19B SWAP2 SWAP1 PUSH2 0x1B89 JUMP JUMPDEST PUSH2 0x8A6 JUMP JUMPDEST PUSH1 0x40 MLOAD PUSH2 0x1AD SWAP2 SWAP1 PUSH2 0x1E4D JUMP JUMPDEST PUSH1 0x40 MLOAD DUP1 SWAP2 SUB SWAP1 RETURN JUMPDEST CALLVALUE DUP1 ISZERO PUSH2 0x1C2 JUMPI PUSH1 0x0 DUP1 REVERT JUMPDEST POP PUSH2 0x1CB PUSH2 0x11E1 JUMP JUMPDEST STOP JUMPDEST CALLVALUE DUP1 ISZERO PUSH2 0x1D9 JUMPI PUSH1 0x0 DUP1 REVERT JUMPDEST POP PUSH2 0x1F4 PUSH1 0x4 DUP1 CALLDATASIZE SUB DUP2 ADD SWAP1 PUSH2 0x1EF SWAP2 SWAP1 PUSH2 0x1B89 JUMP JUMPDEST PUSH2 0x1269 JUMP JUMPDEST PUSH1 0x40 MLOAD PUSH2 0x201 SWAP2 SWAP1 PUSH2 0x1D9F JUMP JUMPDEST PUSH1 0x40 MLOAD DUP1 SWAP2 SUB SWAP1 RETURN JUMPDEST CALLVALUE DUP1 ISZERO PUSH2 0x216 JUMPI PUSH1 0x0 DUP1 REVERT JUMPDEST POP PUSH2 0x21F PUSH2 0x129C JUMP JUMPDEST PUSH1 0x40 MLOAD PUSH2 0x22C SWAP2 SWAP1 PUSH2 0x1D9F JUMP JUMPDEST PUSH1 0x40 MLOAD DUP1 SWAP2 SUB SWAP1 RETURN JUMPDEST CALLVALUE DUP1 ISZERO PUSH2 0x241 JUMPI PUSH1 0x0 DUP1 REVERT JUMPDEST POP PUSH2 0x24A PUSH2 0x12C5 JUMP JUMPDEST PUSH1 0x40 MLOAD PUSH2 0x257 SWAP2 SWAP1 PUSH2 0x1D9F JUMP JUMPDEST PUSH1 0x40 MLOAD DUP1 SWAP2 SUB SWAP1 RETURN JUMPDEST CALLVALUE DUP1 ISZERO PUSH2 0x26C JUMPI PUSH1 0x0 DUP1 REVERT JUMPDEST POP PUSH2 0x287 PUSH1 0x4 DUP1 CALLDATASIZE SUB DUP2 ADD SWAP1 PUSH2 0x282 SWAP2 SWAP1 PUSH2 0x1B89 JUMP JUMPDEST PUSH2 0x12E9 JUMP JUMPDEST PUSH1 0x40 MLOAD PUSH2 0x29B SWAP9 SWAP8 SWAP7 SWAP6 SWAP5 SWAP4 SWAP3 SWAP2 SWAP1 PUSH2 0x1DBA JUMP JUMPDEST PUSH1 0x40 MLOAD DUP1 SWAP2 SUB SWAP1 RETURN JUMPDEST CALLVALUE DUP1 ISZERO PUSH2 0x2B0 JUMPI PUSH1 0x0 DUP1 REVERT JUMPDEST POP PUSH2 0x2CB PUSH1 0x4 DUP1 CALLDATASIZE SUB DUP2 ADD SWAP1 PUSH2 0x2C6 SWAP2 SWAP1 PUSH2 0x1A2A JUMP JUMPDEST PUSH2 0x1509 JUMP JUMPDEST STOP JUMPDEST CALLVALUE DUP1 ISZERO PUSH2 0x2D9 JUMPI PUSH1 0x0 DUP1 REVERT JUMPDEST POP PUSH2 0x2F4 PUSH1 0x4 DUP1 CALLDATASIZE SUB DUP2 ADD SWAP1 PUSH2 0x2EF SWAP2 SWAP1 PUSH2 0x1A2A JUMP JUMPDEST PUSH2 0x16B0 JUMP JUMPDEST STOP JUMPDEST PUSH1 0x60 DUP4 PUSH20 0xFFFFFFFFFFFFFFFFFFFFFFFFFFFFFFFFFFFFFFFF AND CALLER PUSH20 0xFFFFFFFFFFFFFFFFFFFFFFFFFFFFFFFFFFFFFFFF AND EQ PUSH2 0x330 JUMPI PUSH1 0x0 DUP1 REVERT JUMPDEST PUSH1 0x5 SLOAD CALLVALUE EQ PUSH2 0x33E JUMPI PUSH1 0x0 DUP1 REVERT JUMPDEST PUSH1 0x0 JUMPDEST PUSH1 0x6 DUP1 SLOAD SWAP1 POP DUP2 LT ISZERO PUSH2 0x44F JUMPI CALLER PUSH20 0xFFFFFFFFFFFFFFFFFFFFFFFFFFFFFFFFFFFFFFFF AND PUSH1 0x6 DUP3 DUP2 SLOAD DUP2 LT PUSH2 0x379 JUMPI PUSH2 0x378 PUSH2 0x22CB JUMP JUMPDEST JUMPDEST SWAP1 PUSH1 0x0 MSTORE PUSH1 0x20 PUSH1 0x0 KECCAK256 SWAP1 PUSH1 0x8 MUL ADD PUSH1 0x0 ADD PUSH1 0x0 SWAP1 SLOAD SWAP1 PUSH2 0x100 EXP SWAP1 DIV PUSH20 0xFFFFFFFFFFFFFFFFFFFFFFFFFFFFFFFFFFFFFFFF AND PUSH20 0xFFFFFFFFFFFFFFFFFFFFFFFFFFFFFFFFFFFFFFFF AND EQ ISZERO PUSH2 0x43C JUMPI DUP4 PUSH1 0x6 DUP3 DUP2 SLOAD DUP2 LT PUSH2 0x3DC JUMPI PUSH2 0x3DB PUSH2 0x22CB JUMP JUMPDEST JUMPDEST SWAP1 PUSH1 0x0 MSTORE PUSH1 0x20 PUSH1 0x0 KECCAK256 SWAP1 PUSH1 0x8 MUL ADD PUSH1 0x1 ADD SWAP1 DUP1 MLOAD SWAP1 PUSH1 0x20 ADD SWAP1 PUSH2 0x400 SWAP3 SWAP2 SWAP1 PUSH2 0x18ED JUMP JUMPDEST POP DUP3 PUSH1 0x6 DUP3 DUP2 SLOAD DUP2 LT PUSH2 0x416 JUMPI PUSH2 0x415 PUSH2 0x22CB JUMP JUMPDEST JUMPDEST SWAP1 PUSH1 0x0 MSTORE PUSH1 0x20 PUSH1 0x0 KECCAK256 SWAP1 PUSH1 0x8 MUL ADD PUSH1 0x2 ADD SWAP1 DUP1 MLOAD SWAP1 PUSH1 0x20 ADD SWAP1 PUSH2 0x43A SWAP3 SWAP2 SWAP1 PUSH2 0x18ED JUMP JUMPDEST POP JUMPDEST DUP1 DUP1 PUSH2 0x447 SWAP1 PUSH2 0x218D JUMP JUMPDEST SWAP2 POP POP PUSH2 0x341 JUMP JUMPDEST POP SWAP4 SWAP3 POP POP POP JUMP JUMPDEST PUSH1 0x8 PUSH1 0x20 MSTORE DUP1 PUSH1 0x0 MSTORE PUSH1 0x40 PUSH1 0x0 KECCAK256 PUSH1 0x0 SWAP2 POP SWAP1 POP SLOAD DUP2 JUMP JUMPDEST PUSH1 0x0 PUSH1 0x1 PUSH1 0x8 PUSH1 0x0 CALLER PUSH20 0xFFFFFFFFFFFFFFFFFFFFFFFFFFFFFFFFFFFFFFFF AND PUSH20 0xFFFFFFFFFFFFFFFFFFFFFFFFFFFFFFFFFFFFFFFF AND DUP2 MSTORE PUSH1 0x20 ADD SWAP1 DUP2 MSTORE PUSH1 0x20 ADD PUSH1 0x0 KECCAK256 SLOAD LT PUSH2 0x4F3 JUMPI PUSH1 0x40 MLOAD PUSH32 0x8C379A000000000000000000000000000000000000000000000000000000000 DUP2 MSTORE PUSH1 0x4 ADD PUSH2 0x4EA SWAP1 PUSH2 0x1ED0 JUMP JUMPDEST PUSH1 0x40 MLOAD DUP1 SWAP2 SUB SWAP1 REVERT JUMPDEST PUSH1 0x6 PUSH1 0x40 MLOAD DUP1 PUSH2 0x100 ADD PUSH1 0x40 MSTORE DUP1 CALLER PUSH20 0xFFFFFFFFFFFFFFFFFFFFFFFFFFFFFFFFFFFFFFFF AND DUP2 MSTORE PUSH1 0x20 ADD DUP7 DUP2 MSTORE PUSH1 0x20 ADD DUP6 DUP2 MSTORE PUSH1 0x20 ADD DUP5 DUP2 MSTORE PUSH1 0x20 ADD PUSH1 0x0 DUP2 MSTORE PUSH1 0x20 ADD PUSH1 0x0 DUP2 MSTORE PUSH1 0x20 ADD PUSH1 0x3 SLOAD TIMESTAMP PUSH2 0x54B SWAP2 SWAP1 PUSH2 0x2012 JUMP JUMPDEST PUSH4 0xFFFFFFFF AND DUP2 MSTORE PUSH1 0x20 ADD PUSH1 0x1 PUSH4 0xFFFFFFFF AND DUP2 MSTORE POP SWAP1 DUP1 PUSH1 0x1 DUP2 SLOAD ADD DUP1 DUP3 SSTORE DUP1 SWAP2 POP POP PUSH1 0x1 SWAP1 SUB SWAP1 PUSH1 0x0 MSTORE PUSH1 0x20 PUSH1 0x0 KECCAK256 SWAP1 PUSH1 0x8 MUL ADD PUSH1 0x0 SWAP1 SWAP2 SWAP1 SWAP2 SWAP1 SWAP2 POP PUSH1 0x0 DUP3 ADD MLOAD DUP2 PUSH1 0x0 ADD PUSH1 0x0 PUSH2 0x100 EXP DUP2 SLOAD DUP2 PUSH20 0xFFFFFFFFFFFFFFFFFFFFFFFFFFFFFFFFFFFFFFFF MUL NOT AND SWAP1 DUP4 PUSH20 0xFFFFFFFFFFFFFFFFFFFFFFFFFFFFFFFFFFFFFFFF AND MUL OR SWAP1 SSTORE POP PUSH1 0x20 DUP3 ADD MLOAD DUP2 PUSH1 0x1 ADD SWAP1 DUP1 MLOAD SWAP1 PUSH1 0x20 ADD SWAP1 PUSH2 0x5ED SWAP3 SWAP2 SWAP1 PUSH2 0x18ED JUMP JUMPDEST POP PUSH1 0x40 DUP3 ADD MLOAD DUP2 PUSH1 0x2 ADD SWAP1 DUP1 MLOAD SWAP1 PUSH1 0x20 ADD SWAP1 PUSH2 0x60A SWAP3 SWAP2 SWAP1 PUSH2 0x18ED JUMP JUMPDEST POP PUSH1 0x60 DUP3 ADD MLOAD DUP2 PUSH1 0x3 ADD SWAP1 DUP1 MLOAD SWAP1 PUSH1 0x20 ADD SWAP1 PUSH2 0x627 SWAP3 SWAP2 SWAP1 PUSH2 0x18ED JUMP JUMPDEST POP PUSH1 0x80 DUP3 ADD MLOAD DUP2 PUSH1 0x4 ADD SSTORE PUSH1 0xA0 DUP3 ADD MLOAD DUP2 PUSH1 0x5 ADD SSTORE PUSH1 0xC0 DUP3 ADD MLOAD DUP2 PUSH1 0x6 ADD SSTORE PUSH1 0xE0 DUP3 ADD MLOAD DUP2 PUSH1 0x7 ADD PUSH1 0x0 PUSH2 0x100 EXP DUP2 SLOAD DUP2 PUSH4 0xFFFFFFFF MUL NOT AND SWAP1 DUP4 PUSH4 0xFFFFFFFF AND MUL OR SWAP1 SSTORE POP POP POP PUSH1 0x0 PUSH1 0x6 DUP1 SLOAD SWAP1 POP SWAP1 POP CALLER PUSH1 0x7 PUSH1 0x0 DUP4 DUP2 MSTORE PUSH1 0x20 ADD SWAP1 DUP2 MSTORE PUSH1 0x20 ADD PUSH1 0x0 KECCAK256 PUSH1 0x0 PUSH2 0x100 EXP DUP2 SLOAD DUP2 PUSH20 0xFFFFFFFFFFFFFFFFFFFFFFFFFFFFFFFFFFFFFFFF MUL NOT AND SWAP1 DUP4 PUSH20 0xFFFFFFFFFFFFFFFFFFFFFFFFFFFFFFFFFFFFFFFF AND MUL OR SWAP1 SSTORE POP PUSH1 0x8 PUSH1 0x0 CALLER PUSH20 0xFFFFFFFFFFFFFFFFFFFFFFFFFFFFFFFFFFFFFFFF AND PUSH20 0xFFFFFFFFFFFFFFFFFFFFFFFFFFFFFFFFFFFFFFFF AND DUP2 MSTORE PUSH1 0x20 ADD SWAP1 DUP2 MSTORE PUSH1 0x20 ADD PUSH1 0x0 KECCAK256 PUSH1 0x0 DUP2 SLOAD DUP1 SWAP3 SWAP2 SWAP1 PUSH2 0x71B SWAP1 PUSH2 0x218D JUMP JUMPDEST SWAP2 SWAP1 POP SSTORE POP PUSH1 0x2 PUSH1 0x0 DUP2 SLOAD DUP1 SWAP3 SWAP2 SWAP1 PUSH2 0x733 SWAP1 PUSH2 0x218D JUMP JUMPDEST SWAP2 SWAP1 POP SSTORE POP PUSH1 0x1 PUSH1 0x2 SLOAD PUSH2 0x747 SWAP2 SWAP1 PUSH2 0x2068 JUMP JUMPDEST SWAP2 POP POP SWAP4 SWAP3 POP POP POP JUMP JUMPDEST PUSH1 0x60 PUSH1 0x4 SLOAD CALLVALUE EQ PUSH2 0x761 JUMPI PUSH1 0x0 DUP1 REVERT JUMPDEST PUSH1 0x0 JUMPDEST PUSH1 0x6 DUP1 SLOAD SWAP1 POP DUP2 LT ISZERO PUSH2 0x89F JUMPI DUP3 PUSH20 0xFFFFFFFFFFFFFFFFFFFFFFFFFFFFFFFFFFFFFFFF AND PUSH1 0x6 DUP3 DUP2 SLOAD DUP2 LT PUSH2 0x79C JUMPI PUSH2 0x79B PUSH2 0x22CB JUMP JUMPDEST JUMPDEST SWAP1 PUSH1 0x0 MSTORE PUSH1 0x20 PUSH1 0x0 KECCAK256 SWAP1 PUSH1 0x8 MUL ADD PUSH1 0x0 ADD PUSH1 0x0 SWAP1 SLOAD SWAP1 PUSH2 0x100 EXP SWAP1 DIV PUSH20 0xFFFFFFFFFFFFFFFFFFFFFFFFFFFFFFFFFFFFFFFF AND PUSH20 0xFFFFFFFFFFFFFFFFFFFFFFFFFFFFFFFFFFFFFFFF AND EQ ISZERO PUSH2 0x88C JUMPI PUSH1 0x6 DUP2 DUP2 SLOAD DUP2 LT PUSH2 0x7FE JUMPI PUSH2 0x7FD PUSH2 0x22CB JUMP JUMPDEST JUMPDEST SWAP1 PUSH1 0x0 MSTORE PUSH1 0x20 PUSH1 0x0 KECCAK256 SWAP1 PUSH1 0x8 MUL ADD PUSH1 0x7 ADD PUSH1 0x0 DUP2 DUP2 SWAP1 SLOAD SWAP1 PUSH2 0x100 EXP SWAP1 DIV PUSH4 0xFFFFFFFF AND DUP1 SWAP3 SWAP2 SWAP1 PUSH2 0x82F SWAP1 PUSH2 0x21D6 JUMP JUMPDEST SWAP2 SWAP1 PUSH2 0x100 EXP DUP2 SLOAD DUP2 PUSH4 0xFFFFFFFF MUL NOT AND SWAP1 DUP4 PUSH4 0xFFFFFFFF AND MUL OR SWAP1 SSTORE POP POP PUSH1 0x40 MLOAD DUP1 PUSH1 0x40 ADD PUSH1 0x40 MSTORE DUP1 PUSH1 0x12 DUP2 MSTORE PUSH1 0x20 ADD PUSH32 0x48612073756269646F206465206E6976656C0000000000000000000000000000 DUP2 MSTORE POP SWAP2 POP POP PUSH2 0x8A1 JUMP JUMPDEST DUP1 DUP1 PUSH2 0x897 SWAP1 PUSH2 0x218D JUMP JUMPDEST SWAP2 POP POP PUSH2 0x764 JUMP JUMPDEST POP JUMPDEST SWAP2 SWAP1 POP JUMP JUMPDEST PUSH1 0x60 PUSH1 0x1 PUSH1 0x6 DUP1 SLOAD SWAP1 POP GT PUSH2 0x8EF JUMPI PUSH32 0x6158FC8F21C8CC73DDF920956CC75D0E8A48B4FC85817A0BA89EB3B6D2A75441 PUSH1 0x40 MLOAD PUSH2 0x8E2 SWAP1 PUSH2 0x1F10 JUMP JUMPDEST PUSH1 0x40 MLOAD DUP1 SWAP2 SUB SWAP1 LOG1 PUSH2 0x11DB JUMP JUMPDEST DUP2 CALLVALUE EQ PUSH2 0x8FB JUMPI PUSH1 0x0 DUP1 REVERT JUMPDEST PUSH1 0x1 PUSH1 0x0 DUP2 SLOAD DUP1 SWAP3 SWAP2 SWAP1 PUSH2 0x90E SWAP1 PUSH2 0x218D JUMP JUMPDEST SWAP2 SWAP1 POP SSTORE POP PUSH1 0x0 PUSH1 0x6 DUP1 SLOAD SWAP1 POP TIMESTAMP PUSH1 0x6 DUP1 SLOAD SWAP1 POP PUSH1 0x1 SLOAD PUSH1 0x40 MLOAD PUSH1 0x20 ADD PUSH2 0x937 SWAP4 SWAP3 SWAP2 SWAP1 PUSH2 0x1D62 JUMP JUMPDEST PUSH1 0x40 MLOAD PUSH1 0x20 DUP2 DUP4 SUB SUB DUP2 MSTORE SWAP1 PUSH1 0x40 MSTORE DUP1 MLOAD SWAP1 PUSH1 0x20 ADD KECCAK256 PUSH1 0x0 SHR PUSH2 0x95A SWAP2 SWAP1 PUSH2 0x220D JUMP JUMPDEST SWAP1 POP PUSH1 0x0 PUSH1 0x7 PUSH1 0x0 DUP4 DUP2 MSTORE PUSH1 0x20 ADD SWAP1 DUP2 MSTORE PUSH1 0x20 ADD PUSH1 0x0 KECCAK256 PUSH1 0x0 SWAP1 SLOAD SWAP1 PUSH2 0x100 EXP SWAP1 DIV PUSH20 0xFFFFFFFFFFFFFFFFFFFFFFFFFFFFFFFFFFFFFFFF AND SWAP1 POP PUSH1 0x1 PUSH1 0x0 DUP2 SLOAD DUP1 SWAP3 SWAP2 SWAP1 PUSH2 0x9A7 SWAP1 PUSH2 0x218D JUMP JUMPDEST SWAP2 SWAP1 POP SSTORE POP PUSH1 0x0 PUSH1 0x64 SWAP1 POP PUSH1 0x0 DUP2 TIMESTAMP DUP4 PUSH1 0x1 SLOAD PUSH1 0x40 MLOAD PUSH1 0x20 ADD PUSH2 0x9CC SWAP4 SWAP3 SWAP2 SWAP1 PUSH2 0x1D62 JUMP JUMPDEST PUSH1 0x40 MLOAD PUSH1 0x20 DUP2 DUP4 SUB SUB DUP2 MSTORE SWAP1 PUSH1 0x40 MSTORE DUP1 MLOAD SWAP1 PUSH1 0x20 ADD KECCAK256 PUSH1 0x0 SHR PUSH2 0x9EF SWAP2 SWAP1 PUSH2 0x220D JUMP JUMPDEST SWAP1 POP PUSH1 0x0 JUMPDEST PUSH1 0x6 DUP1 SLOAD SWAP1 POP DUP2 LT ISZERO PUSH2 0x11D5 JUMPI PUSH1 0x6 DUP2 DUP2 SLOAD DUP2 LT PUSH2 0xA15 JUMPI PUSH2 0xA14 PUSH2 0x22CB JUMP JUMPDEST JUMPDEST SWAP1 PUSH1 0x0 MSTORE PUSH1 0x20 PUSH1 0x0 KECCAK256 SWAP1 PUSH1 0x8 MUL ADD PUSH1 0x0 ADD PUSH1 0x0 SWAP1 SLOAD SWAP1 PUSH2 0x100 EXP SWAP1 DIV PUSH20 0xFFFFFFFFFFFFFFFFFFFFFFFFFFFFFFFFFFFFFFFF AND PUSH20 0xFFFFFFFFFFFFFFFFFFFFFFFFFFFFFFFFFFFFFFFF AND CALLER PUSH20 0xFFFFFFFFFFFFFFFFFFFFFFFFFFFFFFFFFFFFFFFF AND EQ ISZERO PUSH2 0x11C2 JUMPI PUSH2 0xAA4 PUSH1 0x6 DUP3 DUP2 SLOAD DUP2 LT PUSH2 0xA91 JUMPI PUSH2 0xA90 PUSH2 0x22CB JUMP JUMPDEST JUMPDEST SWAP1 PUSH1 0x0 MSTORE PUSH1 0x20 PUSH1 0x0 KECCAK256 SWAP1 PUSH1 0x8 MUL ADD PUSH2 0x17A8 JUMP JUMPDEST PUSH2 0xAAD JUMPI PUSH1 0x0 DUP1 REVERT JUMPDEST PUSH1 0x6 DUP2 DUP2 SLOAD DUP2 LT PUSH2 0xAC1 JUMPI PUSH2 0xAC0 PUSH2 0x22CB JUMP JUMPDEST JUMPDEST SWAP1 PUSH1 0x0 MSTORE PUSH1 0x20 PUSH1 0x0 KECCAK256 SWAP1 PUSH1 0x8 MUL ADD PUSH1 0x5 ADD PUSH1 0x0 DUP2 SLOAD DUP1 SWAP3 SWAP2 SWAP1 PUSH2 0xAE3 SWAP1 PUSH2 0x218D JUMP JUMPDEST SWAP2 SWAP1 POP SSTORE POP PUSH1 0x6 DUP6 DUP2 SLOAD DUP2 LT PUSH2 0xAFC JUMPI PUSH2 0xAFB PUSH2 0x22CB JUMP JUMPDEST JUMPDEST SWAP1 PUSH1 0x0 MSTORE PUSH1 0x20 PUSH1 0x0 KECCAK256 SWAP1 PUSH1 0x8 MUL ADD PUSH1 0x5 ADD PUSH1 0x0 DUP2 SLOAD DUP1 SWAP3 SWAP2 SWAP1 PUSH2 0xB1E SWAP1 PUSH2 0x218D JUMP JUMPDEST SWAP2 SWAP1 POP SSTORE POP PUSH2 0xB4D PUSH1 0x6 DUP3 DUP2 SLOAD DUP2 LT PUSH2 0xB3A JUMPI PUSH2 0xB39 PUSH2 0x22CB JUMP JUMPDEST JUMPDEST SWAP1 PUSH1 0x0 MSTORE PUSH1 0x20 PUSH1 0x0 KECCAK256 SWAP1 PUSH1 0x8 MUL ADD PUSH2 0x17B9 JUMP JUMPDEST PUSH1 0x6 DUP2 DUP2 SLOAD DUP2 LT PUSH2 0xB61 JUMPI PUSH2 0xB60 PUSH2 0x22CB JUMP JUMPDEST JUMPDEST SWAP1 PUSH1 0x0 MSTORE PUSH1 0x20 PUSH1 0x0 KECCAK256 SWAP1 PUSH1 0x8 MUL ADD PUSH1 0x7 ADD PUSH1 0x0 SWAP1 SLOAD SWAP1 PUSH2 0x100 EXP SWAP1 DIV PUSH4 0xFFFFFFFF AND PUSH4 0xFFFFFFFF AND PUSH1 0x6 DUP7 DUP2 SLOAD DUP2 LT PUSH2 0xB9D JUMPI PUSH2 0xB9C PUSH2 0x22CB JUMP JUMPDEST JUMPDEST SWAP1 PUSH1 0x0 MSTORE PUSH1 0x20 PUSH1 0x0 KECCAK256 SWAP1 PUSH1 0x8 MUL ADD PUSH1 0x7 ADD PUSH1 0x0 SWAP1 SLOAD SWAP1 PUSH2 0x100 EXP SWAP1 DIV PUSH4 0xFFFFFFFF AND PUSH4 0xFFFFFFFF AND LT ISZERO PUSH2 0xD9E JUMPI PUSH1 0x3C DUP3 GT PUSH2 0xCBC JUMPI PUSH2 0xBDB PUSH2 0x17D8 JUMP JUMPDEST PUSH1 0x6 DUP2 DUP2 SLOAD DUP2 LT PUSH2 0xBEF JUMPI PUSH2 0xBEE PUSH2 0x22CB JUMP JUMPDEST JUMPDEST SWAP1 PUSH1 0x0 MSTORE PUSH1 0x20 PUSH1 0x0 KECCAK256 SWAP1 PUSH1 0x8 MUL ADD PUSH1 0x4 ADD PUSH1 0x0 DUP2 SLOAD DUP1 SWAP3 SWAP2 SWAP1 PUSH2 0xC11 SWAP1 PUSH2 0x218D JUMP JUMPDEST SWAP2 SWAP1 POP SSTORE POP PUSH1 0x6 DUP2 DUP2 SLOAD DUP2 LT PUSH2 0xC2A JUMPI PUSH2 0xC29 PUSH2 0x22CB JUMP JUMPDEST JUMPDEST SWAP1 PUSH1 0x0 MSTORE PUSH1 0x20 PUSH1 0x0 KECCAK256 SWAP1 PUSH1 0x8 MUL ADD PUSH1 0x7 ADD PUSH1 0x0 DUP2 DUP2 SWAP1 SLOAD SWAP1 PUSH2 0x100 EXP SWAP1 DIV PUSH4 0xFFFFFFFF AND DUP1 SWAP3 SWAP2 SWAP1 PUSH2 0xC5B SWAP1 PUSH2 0x21D6 JUMP JUMPDEST SWAP2 SWAP1 PUSH2 0x100 EXP DUP2 SLOAD DUP2 PUSH4 0xFFFFFFFF MUL NOT AND SWAP1 DUP4 PUSH4 0xFFFFFFFF AND MUL OR SWAP1 SSTORE POP POP PUSH1 0x40 MLOAD DUP1 PUSH1 0x40 ADD PUSH1 0x40 MSTORE DUP1 PUSH1 0xA DUP2 MSTORE PUSH1 0x20 ADD PUSH32 0x4861732067616E61646F00000000000000000000000000000000000000000000 DUP2 MSTORE POP SWAP6 POP POP POP POP POP POP PUSH2 0x11DC JUMP JUMPDEST PUSH32 0x6158FC8F21C8CC73DDF920956CC75D0E8A48B4FC85817A0BA89EB3B6D2A75441 PUSH1 0x40 MLOAD PUSH2 0xCE9 SWAP1 PUSH2 0x1F50 JUMP JUMPDEST PUSH1 0x40 MLOAD DUP1 SWAP2 SUB SWAP1 LOG1 ADDRESS PUSH20 0xFFFFFFFFFFFFFFFFFFFFFFFFFFFFFFFFFFFFFFFF AND PUSH4 0xE172FCA8 DUP6 PUSH1 0x40 MLOAD DUP3 PUSH4 0xFFFFFFFF AND PUSH1 0xE0 SHL DUP2 MSTORE PUSH1 0x4 ADD PUSH2 0xD2A SWAP2 SWAP1 PUSH2 0x1D9F JUMP JUMPDEST PUSH1 0x0 PUSH1 0x40 MLOAD DUP1 DUP4 SUB DUP2 PUSH1 0x0 DUP8 DUP1 EXTCODESIZE ISZERO DUP1 ISZERO PUSH2 0xD44 JUMPI PUSH1 0x0 DUP1 REVERT JUMPDEST POP GAS CALL ISZERO DUP1 ISZERO PUSH2 0xD58 JUMPI RETURNDATASIZE PUSH1 0x0 DUP1 RETURNDATACOPY RETURNDATASIZE PUSH1 0x0 REVERT JUMPDEST POP POP POP POP PUSH1 0x40 MLOAD DUP1 PUSH1 0x40 ADD PUSH1 0x40 MSTORE DUP1 PUSH1 0xB DUP2 MSTORE PUSH1 0x20 ADD PUSH32 0x486173207065726469646F000000000000000000000000000000000000000000 DUP2 MSTORE POP SWAP6 POP POP POP POP POP POP PUSH2 0x11DC JUMP JUMPDEST PUSH1 0x6 DUP2 DUP2 SLOAD DUP2 LT PUSH2 0xDB2 JUMPI PUSH2 0xDB1 PUSH2 0x22CB JUMP JUMPDEST JUMPDEST SWAP1 PUSH1 0x0 MSTORE PUSH1 0x20 PUSH1 0x0 KECCAK256 SWAP1 PUSH1 0x8 MUL ADD PUSH1 0x7 ADD PUSH1 0x0 SWAP1 SLOAD SWAP1 PUSH2 0x100 EXP SWAP1 DIV PUSH4 0xFFFFFFFF AND PUSH4 0xFFFFFFFF AND PUSH1 0x6 DUP7 DUP2 SLOAD DUP2 LT PUSH2 0xDEE JUMPI PUSH2 0xDED PUSH2 0x22CB JUMP JUMPDEST JUMPDEST SWAP1 PUSH1 0x0 MSTORE PUSH1 0x20 PUSH1 0x0 KECCAK256 SWAP1 PUSH1 0x8 MUL ADD PUSH1 0x7 ADD PUSH1 0x0 SWAP1 SLOAD SWAP1 PUSH2 0x100 EXP SWAP1 DIV PUSH4 0xFFFFFFFF AND PUSH4 0xFFFFFFFF AND EQ ISZERO PUSH2 0xFEF JUMPI PUSH1 0x32 DUP3 GT PUSH2 0xF0D JUMPI PUSH2 0xE2C PUSH2 0x17D8 JUMP JUMPDEST PUSH1 0x6 DUP2 DUP2 SLOAD DUP2 LT PUSH2 0xE40 JUMPI PUSH2 0xE3F PUSH2 0x22CB JUMP JUMPDEST JUMPDEST SWAP1 PUSH1 0x0 MSTORE PUSH1 0x20 PUSH1 0x0 KECCAK256 SWAP1 PUSH1 0x8 MUL ADD PUSH1 0x4 ADD PUSH1 0x0 DUP2 SLOAD DUP1 SWAP3 SWAP2 SWAP1 PUSH2 0xE62 SWAP1 PUSH2 0x218D JUMP JUMPDEST SWAP2 SWAP1 POP SSTORE POP PUSH1 0x6 DUP2 DUP2 SLOAD DUP2 LT PUSH2 0xE7B JUMPI PUSH2 0xE7A PUSH2 0x22CB JUMP JUMPDEST JUMPDEST SWAP1 PUSH1 0x0 MSTORE PUSH1 0x20 PUSH1 0x0 KECCAK256 SWAP1 PUSH1 0x8 MUL ADD PUSH1 0x7 ADD PUSH1 0x0 DUP2 DUP2 SWAP1 SLOAD SWAP1 PUSH2 0x100 EXP SWAP1 DIV PUSH4 0xFFFFFFFF AND DUP1 SWAP3 SWAP2 SWAP1 PUSH2 0xEAC SWAP1 PUSH2 0x21D6 JUMP JUMPDEST SWAP2 SWAP1 PUSH2 0x100 EXP DUP2 SLOAD DUP2 PUSH4 0xFFFFFFFF MUL NOT AND SWAP1 DUP4 PUSH4 0xFFFFFFFF AND MUL OR SWAP1 SSTORE POP POP PUSH1 0x40 MLOAD DUP1 PUSH1 0x40 ADD PUSH1 0x40 MSTORE DUP1 PUSH1 0xA DUP2 MSTORE PUSH1 0x20 ADD PUSH32 0x4861732067616E61646F00000000000000000000000000000000000000000000 DUP2 MSTORE POP SWAP6 POP POP POP POP POP POP PUSH2 0x11DC JUMP JUMPDEST PUSH32 0x6158FC8F21C8CC73DDF920956CC75D0E8A48B4FC85817A0BA89EB3B6D2A75441 PUSH1 0x40 MLOAD PUSH2 0xF3A SWAP1 PUSH2 0x1F50 JUMP JUMPDEST PUSH1 0x40 MLOAD DUP1 SWAP2 SUB SWAP1 LOG1 ADDRESS PUSH20 0xFFFFFFFFFFFFFFFFFFFFFFFFFFFFFFFFFFFFFFFF AND PUSH4 0xE172FCA8 DUP6 PUSH1 0x40 MLOAD DUP3 PUSH4 0xFFFFFFFF AND PUSH1 0xE0 SHL DUP2 MSTORE PUSH1 0x4 ADD PUSH2 0xF7B SWAP2 SWAP1 PUSH2 0x1D9F JUMP JUMPDEST PUSH1 0x0 PUSH1 0x40 MLOAD DUP1 DUP4 SUB DUP2 PUSH1 0x0 DUP8 DUP1 EXTCODESIZE ISZERO DUP1 ISZERO PUSH2 0xF95 JUMPI PUSH1 0x0 DUP1 REVERT JUMPDEST POP GAS CALL ISZERO DUP1 ISZERO PUSH2 0xFA9 JUMPI RETURNDATASIZE PUSH1 0x0 DUP1 RETURNDATACOPY RETURNDATASIZE PUSH1 0x0 REVERT JUMPDEST POP POP POP POP PUSH1 0x40 MLOAD DUP1 PUSH1 0x40 ADD PUSH1 0x40 MSTORE DUP1 PUSH1 0xB DUP2 MSTORE PUSH1 0x20 ADD PUSH32 0x486173207065726469646F000000000000000000000000000000000000000000 DUP2 MSTORE POP SWAP6 POP POP POP POP POP POP PUSH2 0x11DC JUMP JUMPDEST PUSH1 0x28 DUP3 GT PUSH2 0x10E0 JUMPI PUSH2 0xFFF PUSH2 0x17D8 JUMP JUMPDEST PUSH1 0x6 DUP2 DUP2 SLOAD DUP2 LT PUSH2 0x1013 JUMPI PUSH2 0x1012 PUSH2 0x22CB JUMP JUMPDEST JUMPDEST SWAP1 PUSH1 0x0 MSTORE PUSH1 0x20 PUSH1 0x0 KECCAK256 SWAP1 PUSH1 0x8 MUL ADD PUSH1 0x4 ADD PUSH1 0x0 DUP2 SLOAD DUP1 SWAP3 SWAP2 SWAP1 PUSH2 0x1035 SWAP1 PUSH2 0x218D JUMP JUMPDEST SWAP2 SWAP1 POP SSTORE POP PUSH1 0x6 DUP2 DUP2 SLOAD DUP2 LT PUSH2 0x104E JUMPI PUSH2 0x104D PUSH2 0x22CB JUMP JUMPDEST JUMPDEST SWAP1 PUSH1 0x0 MSTORE PUSH1 0x20 PUSH1 0x0 KECCAK256 SWAP1 PUSH1 0x8 MUL ADD PUSH1 0x7 ADD PUSH1 0x0 DUP2 DUP2 SWAP1 SLOAD SWAP1 PUSH2 0x100 EXP SWAP1 DIV PUSH4 0xFFFFFFFF AND DUP1 SWAP3 SWAP2 SWAP1 PUSH2 0x107F SWAP1 PUSH2 0x21D6 JUMP JUMPDEST SWAP2 SWAP1 PUSH2 0x100 EXP DUP2 SLOAD DUP2 PUSH4 0xFFFFFFFF MUL NOT AND SWAP1 DUP4 PUSH4 0xFFFFFFFF AND MUL OR SWAP1 SSTORE POP POP PUSH1 0x40 MLOAD DUP1 PUSH1 0x40 ADD PUSH1 0x40 MSTORE DUP1 PUSH1 0xA DUP2 MSTORE PUSH1 0x20 ADD PUSH32 0x4861732067616E61646F00000000000000000000000000000000000000000000 DUP2 MSTORE POP SWAP6 POP POP POP POP POP POP PUSH2 0x11DC JUMP JUMPDEST PUSH32 0x6158FC8F21C8CC73DDF920956CC75D0E8A48B4FC85817A0BA89EB3B6D2A75441 PUSH1 0x40 MLOAD PUSH2 0x110D SWAP1 PUSH2 0x1F50 JUMP JUMPDEST PUSH1 0x40 MLOAD DUP1 SWAP2 SUB SWAP1 LOG1 ADDRESS PUSH20 0xFFFFFFFFFFFFFFFFFFFFFFFFFFFFFFFFFFFFFFFF AND PUSH4 0xE172FCA8 DUP6 PUSH1 0x40 MLOAD DUP3 PUSH4 0xFFFFFFFF AND PUSH1 0xE0 SHL DUP2 MSTORE PUSH1 0x4 ADD PUSH2 0x114E SWAP2 SWAP1 PUSH2 0x1D9F JUMP JUMPDEST PUSH1 0x0 PUSH1 0x40 MLOAD DUP1 DUP4 SUB DUP2 PUSH1 0x0 DUP8 DUP1 EXTCODESIZE ISZERO DUP1 ISZERO PUSH2 0x1168 JUMPI PUSH1 0x0 DUP1 REVERT JUMPDEST POP GAS CALL ISZERO DUP1 ISZERO PUSH2 0x117C JUMPI RETURNDATASIZE PUSH1 0x0 DUP1 RETURNDATACOPY RETURNDATASIZE PUSH1 0x0 REVERT JUMPDEST POP POP POP POP PUSH1 0x40 MLOAD DUP1 PUSH1 0x40 ADD PUSH1 0x40 MSTORE DUP1 PUSH1 0xB DUP2 MSTORE PUSH1 0x20 ADD PUSH32 0x486173207065726469646F000000000000000000000000000000000000000000 DUP2 MSTORE POP SWAP6 POP POP POP POP POP POP PUSH2 0x11DC JUMP JUMPDEST DUP1 DUP1 PUSH2 0x11CD SWAP1 PUSH2 0x218D JUMP JUMPDEST SWAP2 POP POP PUSH2 0x9F4 JUMP JUMPDEST POP POP POP POP POP JUMPDEST JUMPDEST SWAP2 SWAP1 POP JUMP JUMPDEST PUSH2 0x11E9 PUSH2 0x1821 JUMP JUMPDEST PUSH20 0xFFFFFFFFFFFFFFFFFFFFFFFFFFFFFFFFFFFFFFFF AND PUSH2 0x1207 PUSH2 0x129C JUMP JUMPDEST PUSH20 0xFFFFFFFFFFFFFFFFFFFFFFFFFFFFFFFFFFFFFFFF AND EQ PUSH2 0x125D JUMPI PUSH1 0x40 MLOAD PUSH32 0x8C379A000000000000000000000000000000000000000000000000000000000 DUP2 MSTORE PUSH1 0x4 ADD PUSH2 0x1254 SWAP1 PUSH2 0x1F30 JUMP JUMPDEST PUSH1 0x40 MLOAD DUP1 SWAP2 SUB SWAP1 REVERT JUMPDEST PUSH2 0x1267 PUSH1 0x0 PUSH2 0x1829 JUMP JUMPDEST JUMP JUMPDEST PUSH1 0x7 PUSH1 0x20 MSTORE DUP1 PUSH1 0x0 MSTORE PUSH1 0x40 PUSH1 0x0 KECCAK256 PUSH1 0x0 SWAP2 POP SLOAD SWAP1 PUSH2 0x100 EXP SWAP1 DIV PUSH20 0xFFFFFFFFFFFFFFFFFFFFFFFFFFFFFFFFFFFFFFFF AND DUP2 JUMP JUMPDEST PUSH1 0x0 DUP1 PUSH1 0x0 SWAP1 SLOAD SWAP1 PUSH2 0x100 EXP SWAP1 DIV PUSH20 0xFFFFFFFFFFFFFFFFFFFFFFFFFFFFFFFFFFFFFFFF AND SWAP1 POP SWAP1 JUMP JUMPDEST PUSH1 0x0 DUP1 SLOAD SWAP1 PUSH2 0x100 EXP SWAP1 DIV PUSH20 0xFFFFFFFFFFFFFFFFFFFFFFFFFFFFFFFFFFFFFFFF AND DUP2 JUMP JUMPDEST PUSH1 0x6 DUP2 DUP2 SLOAD DUP2 LT PUSH2 0x12F9 JUMPI PUSH1 0x0 DUP1 REVERT JUMPDEST SWAP1 PUSH1 0x0 MSTORE PUSH1 0x20 PUSH1 0x0 KECCAK256 SWAP1 PUSH1 0x8 MUL ADD PUSH1 0x0 SWAP2 POP SWAP1 POP DUP1 PUSH1 0x0 ADD PUSH1 0x0 SWAP1 SLOAD SWAP1 PUSH2 0x100 EXP SWAP1 DIV PUSH20 0xFFFFFFFFFFFFFFFFFFFFFFFFFFFFFFFFFFFFFFFF AND SWAP1 DUP1 PUSH1 0x1 ADD DUP1 SLOAD PUSH2 0x1342 SWAP1 PUSH2 0x212A JUMP JUMPDEST DUP1 PUSH1 0x1F ADD PUSH1 0x20 DUP1 SWAP2 DIV MUL PUSH1 0x20 ADD PUSH1 0x40 MLOAD SWAP1 DUP2 ADD PUSH1 0x40 MSTORE DUP1 SWAP3 SWAP2 SWAP1 DUP2 DUP2 MSTORE PUSH1 0x20 ADD DUP3 DUP1 SLOAD PUSH2 0x136E SWAP1 PUSH2 0x212A JUMP JUMPDEST DUP1 ISZERO PUSH2 0x13BB JUMPI DUP1 PUSH1 0x1F LT PUSH2 0x1390 JUMPI PUSH2 0x100 DUP1 DUP4 SLOAD DIV MUL DUP4 MSTORE SWAP2 PUSH1 0x20 ADD SWAP2 PUSH2 0x13BB JUMP JUMPDEST DUP3 ADD SWAP2 SWAP1 PUSH1 0x0 MSTORE PUSH1 0x20 PUSH1 0x0 KECCAK256 SWAP1 JUMPDEST DUP2 SLOAD DUP2 MSTORE SWAP1 PUSH1 0x1 ADD SWAP1 PUSH1 0x20 ADD DUP1 DUP4 GT PUSH2 0x139E JUMPI DUP3 SWAP1 SUB PUSH1 0x1F AND DUP3 ADD SWAP2 JUMPDEST POP POP POP POP POP SWAP1 DUP1 PUSH1 0x2 ADD DUP1 SLOAD PUSH2 0x13D0 SWAP1 PUSH2 0x212A JUMP JUMPDEST DUP1 PUSH1 0x1F ADD PUSH1 0x20 DUP1 SWAP2 DIV MUL PUSH1 0x20 ADD PUSH1 0x40 MLOAD SWAP1 DUP2 ADD PUSH1 0x40 MSTORE DUP1 SWAP3 SWAP2 SWAP1 DUP2 DUP2 MSTORE PUSH1 0x20 ADD DUP3 DUP1 SLOAD PUSH2 0x13FC SWAP1 PUSH2 0x212A JUMP JUMPDEST DUP1 ISZERO PUSH2 0x1449 JUMPI DUP1 PUSH1 0x1F LT PUSH2 0x141E JUMPI PUSH2 0x100 DUP1 DUP4 SLOAD DIV MUL DUP4 MSTORE SWAP2 PUSH1 0x20 ADD SWAP2 PUSH2 0x1449 JUMP JUMPDEST DUP3 ADD SWAP2 SWAP1 PUSH1 0x0 MSTORE PUSH1 0x20 PUSH1 0x0 KECCAK256 SWAP1 JUMPDEST DUP2 SLOAD DUP2 MSTORE SWAP1 PUSH1 0x1 ADD SWAP1 PUSH1 0x20 ADD DUP1 DUP4 GT PUSH2 0x142C JUMPI DUP3 SWAP1 SUB PUSH1 0x1F AND DUP3 ADD SWAP2 JUMPDEST POP POP POP POP POP SWAP1 DUP1 PUSH1 0x3 ADD DUP1 SLOAD PUSH2 0x145E SWAP1 PUSH2 0x212A JUMP JUMPDEST DUP1 PUSH1 0x1F ADD PUSH1 0x20 DUP1 SWAP2 DIV MUL PUSH1 0x20 ADD PUSH1 0x40 MLOAD SWAP1 DUP2 ADD PUSH1 0x40 MSTORE DUP1 SWAP3 SWAP2 SWAP1 DUP2 DUP2 MSTORE PUSH1 0x20 ADD DUP3 DUP1 SLOAD PUSH2 0x148A SWAP1 PUSH2 0x212A JUMP JUMPDEST DUP1 ISZERO PUSH2 0x14D7 JUMPI DUP1 PUSH1 0x1F LT PUSH2 0x14AC JUMPI PUSH2 0x100 DUP1 DUP4 SLOAD DIV MUL DUP4 MSTORE SWAP2 PUSH1 0x20 ADD SWAP2 PUSH2 0x14D7 JUMP JUMPDEST DUP3 ADD SWAP2 SWAP1 PUSH1 0x0 MSTORE PUSH1 0x20 PUSH1 0x0 KECCAK256 SWAP1 JUMPDEST DUP2 SLOAD DUP2 MSTORE SWAP1 PUSH1 0x1 ADD SWAP1 PUSH1 0x20 ADD DUP1 DUP4 GT PUSH2 0x14BA JUMPI DUP3 SWAP1 SUB PUSH1 0x1F AND DUP3 ADD SWAP2 JUMPDEST POP POP POP POP POP SWAP1 DUP1 PUSH1 0x4 ADD SLOAD SWAP1 DUP1 PUSH1 0x5 ADD SLOAD SWAP1 DUP1 PUSH1 0x6 ADD SLOAD SWAP1 DUP1 PUSH1 0x7 ADD PUSH1 0x0 SWAP1 SLOAD SWAP1 PUSH2 0x100 EXP SWAP1 DIV PUSH4 0xFFFFFFFF AND SWAP1 POP DUP9 JUMP JUMPDEST PUSH1 0x0 JUMPDEST PUSH1 0x6 DUP1 SLOAD SWAP1 POP DUP2 LT ISZERO PUSH2 0x16AC JUMPI DUP2 PUSH20 0xFFFFFFFFFFFFFFFFFFFFFFFFFFFFFFFFFFFFFFFF AND PUSH1 0x6 DUP3 DUP2 SLOAD DUP2 LT PUSH2 0x1544 JUMPI PUSH2 0x1543 PUSH2 0x22CB JUMP JUMPDEST JUMPDEST SWAP1 PUSH1 0x0 MSTORE PUSH1 0x20 PUSH1 0x0 KECCAK256 SWAP1 PUSH1 0x8 MUL ADD PUSH1 0x0 ADD PUSH1 0x0 SWAP1 SLOAD SWAP1 PUSH2 0x100 EXP SWAP1 DIV PUSH20 0xFFFFFFFFFFFFFFFFFFFFFFFFFFFFFFFFFFFFFFFF AND PUSH20 0xFFFFFFFFFFFFFFFFFFFFFFFFFFFFFFFFFFFFFFFF AND EQ ISZERO PUSH2 0x1699 JUMPI PUSH32 0x20FDB8AB571BFBAB79104BEA84F9C31CB79C5AE45B5F515C1D6C8393E0028350 PUSH1 0x6 DUP3 DUP2 SLOAD DUP2 LT PUSH2 0x15C7 JUMPI PUSH2 0x15C6 PUSH2 0x22CB JUMP JUMPDEST JUMPDEST SWAP1 PUSH1 0x0 MSTORE PUSH1 0x20 PUSH1 0x0 KECCAK256 SWAP1 PUSH1 0x8 MUL ADD PUSH1 0x2 ADD PUSH1 0x6 DUP4 DUP2 SLOAD DUP2 LT PUSH2 0x15EC JUMPI PUSH2 0x15EB PUSH2 0x22CB JUMP JUMPDEST JUMPDEST SWAP1 PUSH1 0x0 MSTORE PUSH1 0x20 PUSH1 0x0 KECCAK256 SWAP1 PUSH1 0x8 MUL ADD PUSH1 0x1 ADD PUSH1 0x6 DUP5 DUP2 SLOAD DUP2 LT PUSH2 0x1611 JUMPI PUSH2 0x1610 PUSH2 0x22CB JUMP JUMPDEST JUMPDEST SWAP1 PUSH1 0x0 MSTORE PUSH1 0x20 PUSH1 0x0 KECCAK256 SWAP1 PUSH1 0x8 MUL ADD PUSH1 0x7 ADD PUSH1 0x0 SWAP1 SLOAD SWAP1 PUSH2 0x100 EXP SWAP1 DIV PUSH4 0xFFFFFFFF AND PUSH1 0x6 DUP6 DUP2 SLOAD DUP2 LT PUSH2 0x1647 JUMPI PUSH2 0x1646 PUSH2 0x22CB JUMP JUMPDEST JUMPDEST SWAP1 PUSH1 0x0 MSTORE PUSH1 0x20 PUSH1 0x0 KECCAK256 SWAP1 PUSH1 0x8 MUL ADD PUSH1 0x4 ADD SLOAD PUSH1 0x6 DUP7 DUP2 SLOAD DUP2 LT PUSH2 0x166D JUMPI PUSH2 0x166C PUSH2 0x22CB JUMP JUMPDEST JUMPDEST SWAP1 PUSH1 0x0 MSTORE PUSH1 0x20 PUSH1 0x0 KECCAK256 SWAP1 PUSH1 0x8 MUL ADD PUSH1 0x5 ADD SLOAD PUSH1 0x40 MLOAD PUSH2 0x1690 SWAP6 SWAP5 SWAP4 SWAP3 SWAP2 SWAP1 PUSH2 0x1E6F JUMP JUMPDEST PUSH1 0x40 MLOAD DUP1 SWAP2 SUB SWAP1 LOG1 JUMPDEST DUP1 DUP1 PUSH2 0x16A4 SWAP1 PUSH2 0x218D JUMP JUMPDEST SWAP2 POP POP PUSH2 0x150C JUMP JUMPDEST POP POP JUMP JUMPDEST PUSH2 0x16B8 PUSH2 0x1821 JUMP JUMPDEST PUSH20 0xFFFFFFFFFFFFFFFFFFFFFFFFFFFFFFFFFFFFFFFF AND PUSH2 0x16D6 PUSH2 0x129C JUMP JUMPDEST PUSH20 0xFFFFFFFFFFFFFFFFFFFFFFFFFFFFFFFFFFFFFFFF AND EQ PUSH2 0x172C JUMPI PUSH1 0x40 MLOAD PUSH32 0x8C379A000000000000000000000000000000000000000000000000000000000 DUP2 MSTORE PUSH1 0x4 ADD PUSH2 0x1723 SWAP1 PUSH2 0x1F30 JUMP JUMPDEST PUSH1 0x40 MLOAD DUP1 SWAP2 SUB SWAP1 REVERT JUMPDEST PUSH1 0x0 PUSH20 0xFFFFFFFFFFFFFFFFFFFFFFFFFFFFFFFFFFFFFFFF AND DUP2 PUSH20 0xFFFFFFFFFFFFFFFFFFFFFFFFFFFFFFFFFFFFFFFF AND EQ ISZERO PUSH2 0x179C JUMPI PUSH1 0x40 MLOAD PUSH32 0x8C379A000000000000000000000000000000000000000000000000000000000 DUP2 MSTORE PUSH1 0x4 ADD PUSH2 0x1793 SWAP1 PUSH2 0x1EF0 JUMP JUMPDEST PUSH1 0x40 MLOAD DUP1 SWAP2 SUB SWAP1 REVERT JUMPDEST PUSH2 0x17A5 DUP2 PUSH2 0x1829 JUMP JUMPDEST POP JUMP JUMPDEST PUSH1 0x0 TIMESTAMP DUP3 PUSH1 0x6 ADD SLOAD GT ISZERO SWAP1 POP SWAP2 SWAP1 POP JUMP JUMPDEST PUSH1 0x3 SLOAD TIMESTAMP PUSH2 0x17C7 SWAP2 SWAP1 PUSH2 0x2012 JUMP JUMPDEST PUSH4 0xFFFFFFFF AND DUP2 PUSH1 0x6 ADD DUP2 SWAP1 SSTORE POP POP JUMP JUMPDEST CALLER PUSH20 0xFFFFFFFFFFFFFFFFFFFFFFFFFFFFFFFFFFFFFFFF AND PUSH2 0x8FC SELFBALANCE SWAP1 DUP2 ISZERO MUL SWAP1 PUSH1 0x40 MLOAD PUSH1 0x0 PUSH1 0x40 MLOAD DUP1 DUP4 SUB DUP2 DUP6 DUP9 DUP9 CALL SWAP4 POP POP POP POP ISZERO DUP1 ISZERO PUSH2 0x181E JUMPI RETURNDATASIZE PUSH1 0x0 DUP1 RETURNDATACOPY RETURNDATASIZE PUSH1 0x0 REVERT JUMPDEST POP JUMP JUMPDEST PUSH1 0x0 CALLER SWAP1 POP SWAP1 JUMP JUMPDEST PUSH1 0x0 DUP1 PUSH1 0x0 SWAP1 SLOAD SWAP1 PUSH2 0x100 EXP SWAP1 DIV PUSH20 0xFFFFFFFFFFFFFFFFFFFFFFFFFFFFFFFFFFFFFFFF AND SWAP1 POP DUP2 PUSH1 0x0 DUP1 PUSH2 0x100 EXP DUP2 SLOAD DUP2 PUSH20 0xFFFFFFFFFFFFFFFFFFFFFFFFFFFFFFFFFFFFFFFF MUL NOT AND SWAP1 DUP4 PUSH20 0xFFFFFFFFFFFFFFFFFFFFFFFFFFFFFFFFFFFFFFFF AND MUL OR SWAP1 SSTORE POP DUP2 PUSH20 0xFFFFFFFFFFFFFFFFFFFFFFFFFFFFFFFFFFFFFFFF AND DUP2 PUSH20 0xFFFFFFFFFFFFFFFFFFFFFFFFFFFFFFFFFFFFFFFF AND PUSH32 0x8BE0079C531659141344CD1FD0A4F28419497F9722A3DAAFE3B4186F6B6457E0 PUSH1 0x40 MLOAD PUSH1 0x40 MLOAD DUP1 SWAP2 SUB SWAP1 LOG3 POP POP JUMP JUMPDEST DUP3 DUP1 SLOAD PUSH2 0x18F9 SWAP1 PUSH2 0x212A JUMP JUMPDEST SWAP1 PUSH1 0x0 MSTORE PUSH1 0x20 PUSH1 0x0 KECCAK256 SWAP1 PUSH1 0x1F ADD PUSH1 0x20 SWAP1 DIV DUP2 ADD SWAP3 DUP3 PUSH2 0x191B JUMPI PUSH1 0x0 DUP6 SSTORE PUSH2 0x1962 JUMP JUMPDEST DUP3 PUSH1 0x1F LT PUSH2 0x1934 JUMPI DUP1 MLOAD PUSH1 0xFF NOT AND DUP4 DUP1 ADD OR DUP6 SSTORE PUSH2 0x1962 JUMP JUMPDEST DUP3 DUP1 ADD PUSH1 0x1 ADD DUP6 SSTORE DUP3 ISZERO PUSH2 0x1962 JUMPI SWAP2 DUP3 ADD JUMPDEST DUP3 DUP2 GT ISZERO PUSH2 0x1961 JUMPI DUP3 MLOAD DUP3 SSTORE SWAP2 PUSH1 0x20 ADD SWAP2 SWAP1 PUSH1 0x1 ADD SWAP1 PUSH2 0x1946 JUMP JUMPDEST JUMPDEST POP SWAP1 POP PUSH2 0x196F SWAP2 SWAP1 PUSH2 0x1973 JUMP JUMPDEST POP SWAP1 JUMP JUMPDEST JUMPDEST DUP1 DUP3 GT ISZERO PUSH2 0x198C JUMPI PUSH1 0x0 DUP2 PUSH1 0x0 SWAP1 SSTORE POP PUSH1 0x1 ADD PUSH2 0x1974 JUMP JUMPDEST POP SWAP1 JUMP JUMPDEST PUSH1 0x0 PUSH2 0x19A3 PUSH2 0x199E DUP5 PUSH2 0x1FB0 JUMP JUMPDEST PUSH2 0x1F8B JUMP JUMPDEST SWAP1 POP DUP3 DUP2 MSTORE PUSH1 0x20 DUP2 ADD DUP5 DUP5 DUP5 ADD GT ISZERO PUSH2 0x19BF JUMPI PUSH2 0x19BE PUSH2 0x232E JUMP JUMPDEST JUMPDEST PUSH2 0x19CA DUP5 DUP3 DUP6 PUSH2 0x20E8 JUMP JUMPDEST POP SWAP4 SWAP3 POP POP POP JUMP JUMPDEST PUSH1 0x0 DUP2 CALLDATALOAD SWAP1 POP PUSH2 0x19E1 DUP2 PUSH2 0x248D JUMP JUMPDEST SWAP3 SWAP2 POP POP JUMP JUMPDEST PUSH1 0x0 DUP3 PUSH1 0x1F DUP4 ADD SLT PUSH2 0x19FC JUMPI PUSH2 0x19FB PUSH2 0x2329 JUMP JUMPDEST JUMPDEST DUP2 CALLDATALOAD PUSH2 0x1A0C DUP5 DUP3 PUSH1 0x20 DUP7 ADD PUSH2 0x1990 JUMP JUMPDEST SWAP2 POP POP SWAP3 SWAP2 POP POP JUMP JUMPDEST PUSH1 0x0 DUP2 CALLDATALOAD SWAP1 POP PUSH2 0x1A24 DUP2 PUSH2 0x24A4 JUMP JUMPDEST SWAP3 SWAP2 POP POP JUMP JUMPDEST PUSH1 0x0 PUSH1 0x20 DUP3 DUP5 SUB SLT ISZERO PUSH2 0x1A40 JUMPI PUSH2 0x1A3F PUSH2 0x2338 JUMP JUMPDEST JUMPDEST PUSH1 0x0 PUSH2 0x1A4E DUP5 DUP3 DUP6 ADD PUSH2 0x19D2 JUMP JUMPDEST SWAP2 POP POP SWAP3 SWAP2 POP POP JUMP JUMPDEST PUSH1 0x0 DUP1 PUSH1 0x0 PUSH1 0x60 DUP5 DUP7 SUB SLT ISZERO PUSH2 0x1A70 JUMPI PUSH2 0x1A6F PUSH2 0x2338 JUMP JUMPDEST JUMPDEST PUSH1 0x0 PUSH2 0x1A7E DUP7 DUP3 DUP8 ADD PUSH2 0x19D2 JUMP JUMPDEST SWAP4 POP POP PUSH1 0x20 DUP5 ADD CALLDATALOAD PUSH8 0xFFFFFFFFFFFFFFFF DUP2 GT ISZERO PUSH2 0x1A9F JUMPI PUSH2 0x1A9E PUSH2 0x2333 JUMP JUMPDEST JUMPDEST PUSH2 0x1AAB DUP7 DUP3 DUP8 ADD PUSH2 0x19E7 JUMP JUMPDEST SWAP3 POP POP PUSH1 0x40 DUP5 ADD CALLDATALOAD PUSH8 0xFFFFFFFFFFFFFFFF DUP2 GT ISZERO PUSH2 0x1ACC JUMPI PUSH2 0x1ACB PUSH2 0x2333 JUMP JUMPDEST JUMPDEST PUSH2 0x1AD8 DUP7 DUP3 DUP8 ADD PUSH2 0x19E7 JUMP JUMPDEST SWAP2 POP POP SWAP3 POP SWAP3 POP SWAP3 JUMP JUMPDEST PUSH1 0x0 DUP1 PUSH1 0x0 PUSH1 0x60 DUP5 DUP7 SUB SLT ISZERO PUSH2 0x1AFB JUMPI PUSH2 0x1AFA PUSH2 0x2338 JUMP JUMPDEST JUMPDEST PUSH1 0x0 DUP5 ADD CALLDATALOAD PUSH8 0xFFFFFFFFFFFFFFFF DUP2 GT ISZERO PUSH2 0x1B19 JUMPI PUSH2 0x1B18 PUSH2 0x2333 JUMP JUMPDEST JUMPDEST PUSH2 0x1B25 DUP7 DUP3 DUP8 ADD PUSH2 0x19E7 JUMP JUMPDEST SWAP4 POP POP PUSH1 0x20 DUP5 ADD CALLDATALOAD PUSH8 0xFFFFFFFFFFFFFFFF DUP2 GT ISZERO PUSH2 0x1B46 JUMPI PUSH2 0x1B45 PUSH2 0x2333 JUMP JUMPDEST JUMPDEST PUSH2 0x1B52 DUP7 DUP3 DUP8 ADD PUSH2 0x19E7 JUMP JUMPDEST SWAP3 POP POP PUSH1 0x40 DUP5 ADD CALLDATALOAD PUSH8 0xFFFFFFFFFFFFFFFF DUP2 GT ISZERO PUSH2 0x1B73 JUMPI PUSH2 0x1B72 PUSH2 0x2333 JUMP JUMPDEST JUMPDEST PUSH2 0x1B7F DUP7 DUP3 DUP8 ADD PUSH2 0x19E7 JUMP JUMPDEST SWAP2 POP POP SWAP3 POP SWAP3 POP SWAP3 JUMP JUMPDEST PUSH1 0x0 PUSH1 0x20 DUP3 DUP5 SUB SLT ISZERO PUSH2 0x1B9F JUMPI PUSH2 0x1B9E PUSH2 0x2338 JUMP JUMPDEST JUMPDEST PUSH1 0x0 PUSH2 0x1BAD DUP5 DUP3 DUP6 ADD PUSH2 0x1A15 JUMP JUMPDEST SWAP2 POP POP SWAP3 SWAP2 POP POP JUMP JUMPDEST PUSH2 0x1BBF DUP2 PUSH2 0x209C JUMP JUMPDEST DUP3 MSTORE POP POP JUMP JUMPDEST PUSH1 0x0 PUSH2 0x1BD0 DUP3 PUSH2 0x1FF6 JUMP JUMPDEST PUSH2 0x1BDA DUP2 DUP6 PUSH2 0x2001 JUMP JUMPDEST SWAP4 POP PUSH2 0x1BEA DUP2 DUP6 PUSH1 0x20 DUP7 ADD PUSH2 0x20F7 JUMP JUMPDEST PUSH2 0x1BF3 DUP2 PUSH2 0x233D JUMP JUMPDEST DUP5 ADD SWAP2 POP POP SWAP3 SWAP2 POP POP JUMP JUMPDEST PUSH1 0x0 DUP2 SLOAD PUSH2 0x1C0B DUP2 PUSH2 0x212A JUMP JUMPDEST PUSH2 0x1C15 DUP2 DUP7 PUSH2 0x2001 JUMP JUMPDEST SWAP5 POP PUSH1 0x1 DUP3 AND PUSH1 0x0 DUP2 EQ PUSH2 0x1C30 JUMPI PUSH1 0x1 DUP2 EQ PUSH2 0x1C42 JUMPI PUSH2 0x1C75 JUMP JUMPDEST PUSH1 0xFF NOT DUP4 AND DUP7 MSTORE PUSH1 0x20 DUP7 ADD SWAP4 POP PUSH2 0x1C75 JUMP JUMPDEST PUSH2 0x1C4B DUP6 PUSH2 0x1FE1 JUMP JUMPDEST PUSH1 0x0 JUMPDEST DUP4 DUP2 LT ISZERO PUSH2 0x1C6D JUMPI DUP2 SLOAD DUP2 DUP10 ADD MSTORE PUSH1 0x1 DUP3 ADD SWAP2 POP PUSH1 0x20 DUP2 ADD SWAP1 POP PUSH2 0x1C4E JUMP JUMPDEST DUP1 DUP9 ADD SWAP6 POP POP POP JUMPDEST POP POP POP SWAP3 SWAP2 POP POP JUMP JUMPDEST PUSH1 0x0 PUSH2 0x1C8B PUSH1 0x28 DUP4 PUSH2 0x2001 JUMP JUMPDEST SWAP2 POP PUSH2 0x1C96 DUP3 PUSH2 0x234E JUMP JUMPDEST PUSH1 0x40 DUP3 ADD SWAP1 POP SWAP2 SWAP1 POP JUMP JUMPDEST PUSH1 0x0 PUSH2 0x1CAE PUSH1 0x26 DUP4 PUSH2 0x2001 JUMP JUMPDEST SWAP2 POP PUSH2 0x1CB9 DUP3 PUSH2 0x239D JUMP JUMPDEST PUSH1 0x40 DUP3 ADD SWAP1 POP SWAP2 SWAP1 POP JUMP JUMPDEST PUSH1 0x0 PUSH2 0x1CD1 PUSH1 0x32 DUP4 PUSH2 0x2001 JUMP JUMPDEST SWAP2 POP PUSH2 0x1CDC DUP3 PUSH2 0x23EC JUMP JUMPDEST PUSH1 0x40 DUP3 ADD SWAP1 POP SWAP2 SWAP1 POP JUMP JUMPDEST PUSH1 0x0 PUSH2 0x1CF4 PUSH1 0x20 DUP4 PUSH2 0x2001 JUMP JUMPDEST SWAP2 POP PUSH2 0x1CFF DUP3 PUSH2 0x243B JUMP JUMPDEST PUSH1 0x20 DUP3 ADD SWAP1 POP SWAP2 SWAP1 POP JUMP JUMPDEST PUSH1 0x0 PUSH2 0x1D17 PUSH1 0x15 DUP4 PUSH2 0x2001 JUMP JUMPDEST SWAP2 POP PUSH2 0x1D22 DUP3 PUSH2 0x2464 JUMP JUMPDEST PUSH1 0x20 DUP3 ADD SWAP1 POP SWAP2 SWAP1 POP JUMP JUMPDEST PUSH2 0x1D36 DUP2 PUSH2 0x20CE JUMP JUMPDEST DUP3 MSTORE POP POP JUMP JUMPDEST PUSH2 0x1D4D PUSH2 0x1D48 DUP3 PUSH2 0x20CE JUMP JUMPDEST PUSH2 0x2203 JUMP JUMPDEST DUP3 MSTORE POP POP JUMP JUMPDEST PUSH2 0x1D5C DUP2 PUSH2 0x20D8 JUMP JUMPDEST DUP3 MSTORE POP POP JUMP JUMPDEST PUSH1 0x0 PUSH2 0x1D6E DUP3 DUP7 PUSH2 0x1D3C JUMP JUMPDEST PUSH1 0x20 DUP3 ADD SWAP2 POP PUSH2 0x1D7E DUP3 DUP6 PUSH2 0x1D3C JUMP JUMPDEST PUSH1 0x20 DUP3 ADD SWAP2 POP PUSH2 0x1D8E DUP3 DUP5 PUSH2 0x1D3C JUMP JUMPDEST PUSH1 0x20 DUP3 ADD SWAP2 POP DUP2 SWAP1 POP SWAP5 SWAP4 POP POP POP POP JUMP JUMPDEST PUSH1 0x0 PUSH1 0x20 DUP3 ADD SWAP1 POP PUSH2 0x1DB4 PUSH1 0x0 DUP4 ADD DUP5 PUSH2 0x1BB6 JUMP JUMPDEST SWAP3 SWAP2 POP POP JUMP JUMPDEST PUSH1 0x0 PUSH2 0x100 DUP3 ADD SWAP1 POP PUSH2 0x1DD0 PUSH1 0x0 DUP4 ADD DUP12 PUSH2 0x1BB6 JUMP JUMPDEST DUP2 DUP2 SUB PUSH1 0x20 DUP4 ADD MSTORE PUSH2 0x1DE2 DUP2 DUP11 PUSH2 0x1BC5 JUMP JUMPDEST SWAP1 POP DUP2 DUP2 SUB PUSH1 0x40 DUP4 ADD MSTORE PUSH2 0x1DF6 DUP2 DUP10 PUSH2 0x1BC5 JUMP JUMPDEST SWAP1 POP DUP2 DUP2 SUB PUSH1 0x60 DUP4 ADD MSTORE PUSH2 0x1E0A DUP2 DUP9 PUSH2 0x1BC5 JUMP JUMPDEST SWAP1 POP PUSH2 0x1E19 PUSH1 0x80 DUP4 ADD DUP8 PUSH2 0x1D2D JUMP JUMPDEST PUSH2 0x1E26 PUSH1 0xA0 DUP4 ADD DUP7 PUSH2 0x1D2D JUMP JUMPDEST PUSH2 0x1E33 PUSH1 0xC0 DUP4 ADD DUP6 PUSH2 0x1D2D JUMP JUMPDEST PUSH2 0x1E40 PUSH1 0xE0 DUP4 ADD DUP5 PUSH2 0x1D53 JUMP JUMPDEST SWAP10 SWAP9 POP POP POP POP POP POP POP POP POP JUMP JUMPDEST PUSH1 0x0 PUSH1 0x20 DUP3 ADD SWAP1 POP DUP2 DUP2 SUB PUSH1 0x0 DUP4 ADD MSTORE PUSH2 0x1E67 DUP2 DUP5 PUSH2 0x1BC5 JUMP JUMPDEST SWAP1 POP SWAP3 SWAP2 POP POP JUMP JUMPDEST PUSH1 0x0 PUSH1 0xA0 DUP3 ADD SWAP1 POP DUP2 DUP2 SUB PUSH1 0x0 DUP4 ADD MSTORE PUSH2 0x1E89 DUP2 DUP9 PUSH2 0x1BFE JUMP JUMPDEST SWAP1 POP DUP2 DUP2 SUB PUSH1 0x20 DUP4 ADD MSTORE PUSH2 0x1E9D DUP2 DUP8 PUSH2 0x1BFE JUMP JUMPDEST SWAP1 POP PUSH2 0x1EAC PUSH1 0x40 DUP4 ADD DUP7 PUSH2 0x1D53 JUMP JUMPDEST PUSH2 0x1EB9 PUSH1 0x60 DUP4 ADD DUP6 PUSH2 0x1D2D JUMP JUMPDEST PUSH2 0x1EC6 PUSH1 0x80 DUP4 ADD DUP5 PUSH2 0x1D2D JUMP JUMPDEST SWAP7 SWAP6 POP POP POP POP POP POP JUMP JUMPDEST PUSH1 0x0 PUSH1 0x20 DUP3 ADD SWAP1 POP DUP2 DUP2 SUB PUSH1 0x0 DUP4 ADD MSTORE PUSH2 0x1EE9 DUP2 PUSH2 0x1C7E JUMP JUMPDEST SWAP1 POP SWAP2 SWAP1 POP JUMP JUMPDEST PUSH1 0x0 PUSH1 0x20 DUP3 ADD SWAP1 POP DUP2 DUP2 SUB PUSH1 0x0 DUP4 ADD MSTORE PUSH2 0x1F09 DUP2 PUSH2 0x1CA1 JUMP JUMPDEST SWAP1 POP SWAP2 SWAP1 POP JUMP JUMPDEST PUSH1 0x0 PUSH1 0x20 DUP3 ADD SWAP1 POP DUP2 DUP2 SUB PUSH1 0x0 DUP4 ADD MSTORE PUSH2 0x1F29 DUP2 PUSH2 0x1CC4 JUMP JUMPDEST SWAP1 POP SWAP2 SWAP1 POP JUMP JUMPDEST PUSH1 0x0 PUSH1 0x20 DUP3 ADD SWAP1 POP DUP2 DUP2 SUB PUSH1 0x0 DUP4 ADD MSTORE PUSH2 0x1F49 DUP2 PUSH2 0x1CE7 JUMP JUMPDEST SWAP1 POP SWAP2 SWAP1 POP JUMP JUMPDEST PUSH1 0x0 PUSH1 0x20 DUP3 ADD SWAP1 POP DUP2 DUP2 SUB PUSH1 0x0 DUP4 ADD MSTORE PUSH2 0x1F69 DUP2 PUSH2 0x1D0A JUMP JUMPDEST SWAP1 POP SWAP2 SWAP1 POP JUMP JUMPDEST PUSH1 0x0 PUSH1 0x20 DUP3 ADD SWAP1 POP PUSH2 0x1F85 PUSH1 0x0 DUP4 ADD DUP5 PUSH2 0x1D2D JUMP JUMPDEST SWAP3 SWAP2 POP POP JUMP JUMPDEST PUSH1 0x0 PUSH2 0x1F95 PUSH2 0x1FA6 JUMP JUMPDEST SWAP1 POP PUSH2 0x1FA1 DUP3 DUP3 PUSH2 0x215C JUMP JUMPDEST SWAP2 SWAP1 POP JUMP JUMPDEST PUSH1 0x0 PUSH1 0x40 MLOAD SWAP1 POP SWAP1 JUMP JUMPDEST PUSH1 0x0 PUSH8 0xFFFFFFFFFFFFFFFF DUP3 GT ISZERO PUSH2 0x1FCB JUMPI PUSH2 0x1FCA PUSH2 0x22FA JUMP JUMPDEST JUMPDEST PUSH2 0x1FD4 DUP3 PUSH2 0x233D JUMP JUMPDEST SWAP1 POP PUSH1 0x20 DUP2 ADD SWAP1 POP SWAP2 SWAP1 POP JUMP JUMPDEST PUSH1 0x0 DUP2 SWAP1 POP DUP2 PUSH1 0x0 MSTORE PUSH1 0x20 PUSH1 0x0 KECCAK256 SWAP1 POP SWAP2 SWAP1 POP JUMP JUMPDEST PUSH1 0x0 DUP2 MLOAD SWAP1 POP SWAP2 SWAP1 POP JUMP JUMPDEST PUSH1 0x0 DUP3 DUP3 MSTORE PUSH1 0x20 DUP3 ADD SWAP1 POP SWAP3 SWAP2 POP POP JUMP JUMPDEST PUSH1 0x0 PUSH2 0x201D DUP3 PUSH2 0x20CE JUMP JUMPDEST SWAP2 POP PUSH2 0x2028 DUP4 PUSH2 0x20CE JUMP JUMPDEST SWAP3 POP DUP3 PUSH32 0xFFFFFFFFFFFFFFFFFFFFFFFFFFFFFFFFFFFFFFFFFFFFFFFFFFFFFFFFFFFFFFFF SUB DUP3 GT ISZERO PUSH2 0x205D JUMPI PUSH2 0x205C PUSH2 0x223E JUMP JUMPDEST JUMPDEST DUP3 DUP3 ADD SWAP1 POP SWAP3 SWAP2 POP POP JUMP JUMPDEST PUSH1 0x0 PUSH2 0x2073 DUP3 PUSH2 0x20CE JUMP JUMPDEST SWAP2 POP PUSH2 0x207E DUP4 PUSH2 0x20CE JUMP JUMPDEST SWAP3 POP DUP3 DUP3 LT ISZERO PUSH2 0x2091 JUMPI PUSH2 0x2090 PUSH2 0x223E JUMP JUMPDEST JUMPDEST DUP3 DUP3 SUB SWAP1 POP SWAP3 SWAP2 POP POP JUMP JUMPDEST PUSH1 0x0 PUSH2 0x20A7 DUP3 PUSH2 0x20AE JUMP JUMPDEST SWAP1 POP SWAP2 SWAP1 POP JUMP JUMPDEST PUSH1 0x0 PUSH20 0xFFFFFFFFFFFFFFFFFFFFFFFFFFFFFFFFFFFFFFFF DUP3 AND SWAP1 POP SWAP2 SWAP1 POP JUMP JUMPDEST PUSH1 0x0 DUP2 SWAP1 POP SWAP2 SWAP1 POP JUMP JUMPDEST PUSH1 0x0 PUSH4 0xFFFFFFFF DUP3 AND SWAP1 POP SWAP2 SWAP1 POP JUMP JUMPDEST DUP3 DUP2 DUP4 CALLDATACOPY PUSH1 0x0 DUP4 DUP4 ADD MSTORE POP POP POP JUMP JUMPDEST PUSH1 0x0 JUMPDEST DUP4 DUP2 LT ISZERO PUSH2 0x2115 JUMPI DUP1 DUP3 ADD MLOAD DUP2 DUP5 ADD MSTORE PUSH1 0x20 DUP2 ADD SWAP1 POP PUSH2 0x20FA JUMP JUMPDEST DUP4 DUP2 GT ISZERO PUSH2 0x2124 JUMPI PUSH1 0x0 DUP5 DUP5 ADD MSTORE JUMPDEST POP POP POP POP JUMP JUMPDEST PUSH1 0x0 PUSH1 0x2 DUP3 DIV SWAP1 POP PUSH1 0x1 DUP3 AND DUP1 PUSH2 0x2142 JUMPI PUSH1 0x7F DUP3 AND SWAP2 POP JUMPDEST PUSH1 0x20 DUP3 LT DUP2 EQ ISZERO PUSH2 0x2156 JUMPI PUSH2 0x2155 PUSH2 0x229C JUMP JUMPDEST JUMPDEST POP SWAP2 SWAP1 POP JUMP JUMPDEST PUSH2 0x2165 DUP3 PUSH2 0x233D JUMP JUMPDEST DUP2 ADD DUP2 DUP2 LT PUSH8 0xFFFFFFFFFFFFFFFF DUP3 GT OR ISZERO PUSH2 0x2184 JUMPI PUSH2 0x2183 PUSH2 0x22FA JUMP JUMPDEST JUMPDEST DUP1 PUSH1 0x40 MSTORE POP POP POP JUMP JUMPDEST PUSH1 0x0 PUSH2 0x2198 DUP3 PUSH2 0x20CE JUMP JUMPDEST SWAP2 POP PUSH32 0xFFFFFFFFFFFFFFFFFFFFFFFFFFFFFFFFFFFFFFFFFFFFFFFFFFFFFFFFFFFFFFFF DUP3 EQ ISZERO PUSH2 0x21CB JUMPI PUSH2 0x21CA PUSH2 0x223E JUMP JUMPDEST JUMPDEST PUSH1 0x1 DUP3 ADD SWAP1 POP SWAP2 SWAP1 POP JUMP JUMPDEST PUSH1 0x0 PUSH2 0x21E1 DUP3 PUSH2 0x20D8 JUMP JUMPDEST SWAP2 POP PUSH4 0xFFFFFFFF DUP3 EQ ISZERO PUSH2 0x21F8 JUMPI PUSH2 0x21F7 PUSH2 0x223E JUMP JUMPDEST JUMPDEST PUSH1 0x1 DUP3 ADD SWAP1 POP SWAP2 SWAP1 POP JUMP JUMPDEST PUSH1 0x0 DUP2 SWAP1 POP SWAP2 SWAP1 POP JUMP JUMPDEST PUSH1 0x0 PUSH2 0x2218 DUP3 PUSH2 0x20CE JUMP JUMPDEST SWAP2 POP PUSH2 0x2223 DUP4 PUSH2 0x20CE JUMP JUMPDEST SWAP3 POP DUP3 PUSH2 0x2233 JUMPI PUSH2 0x2232 PUSH2 0x226D JUMP JUMPDEST JUMPDEST DUP3 DUP3 MOD SWAP1 POP SWAP3 SWAP2 POP POP JUMP JUMPDEST PUSH32 0x4E487B7100000000000000000000000000000000000000000000000000000000 PUSH1 0x0 MSTORE PUSH1 0x11 PUSH1 0x4 MSTORE PUSH1 0x24 PUSH1 0x0 REVERT JUMPDEST PUSH32 0x4E487B7100000000000000000000000000000000000000000000000000000000 PUSH1 0x0 MSTORE PUSH1 0x12 PUSH1 0x4 MSTORE PUSH1 0x24 PUSH1 0x0 REVERT JUMPDEST PUSH32 0x4E487B7100000000000000000000000000000000000000000000000000000000 PUSH1 0x0 MSTORE PUSH1 0x22 PUSH1 0x4 MSTORE PUSH1 0x24 PUSH1 0x0 REVERT JUMPDEST PUSH32 0x4E487B7100000000000000000000000000000000000000000000000000000000 PUSH1 0x0 MSTORE PUSH1 0x32 PUSH1 0x4 MSTORE PUSH1 0x24 PUSH1 0x0 REVERT JUMPDEST PUSH32 0x4E487B7100000000000000000000000000000000000000000000000000000000 PUSH1 0x0 MSTORE PUSH1 0x41 PUSH1 0x4 MSTORE PUSH1 0x24 PUSH1 0x0 REVERT JUMPDEST PUSH1 0x0 DUP1 REVERT JUMPDEST PUSH1 0x0 DUP1 REVERT JUMPDEST PUSH1 0x0 DUP1 REVERT JUMPDEST PUSH1 0x0 DUP1 REVERT JUMPDEST PUSH1 0x0 PUSH1 0x1F NOT PUSH1 0x1F DUP4 ADD AND SWAP1 POP SWAP2 SWAP1 POP JUMP JUMPDEST PUSH32 0x536F6C6F2073652070756564652074656E657220756E20636F63686520706F72 PUSH1 0x0 DUP3 ADD MSTORE PUSH32 0x20706572736F6E61000000000000000000000000000000000000000000000000 PUSH1 0x20 DUP3 ADD MSTORE POP JUMP JUMPDEST PUSH32 0x4F776E61626C653A206E6577206F776E657220697320746865207A65726F2061 PUSH1 0x0 DUP3 ADD MSTORE PUSH32 0x6464726573730000000000000000000000000000000000000000000000000000 PUSH1 0x20 DUP3 ADD MSTORE POP JUMP JUMPDEST PUSH32 0x4E6F2068617920636F6368657320737566696369656E74657320706172612069 PUSH1 0x0 DUP3 ADD MSTORE PUSH32 0x6E696369617220756E6120636172726572610000000000000000000000000000 PUSH1 0x20 DUP3 ADD MSTORE POP JUMP JUMPDEST PUSH32 0x4F776E61626C653A2063616C6C6572206973206E6F7420746865206F776E6572 PUSH1 0x0 DUP3 ADD MSTORE POP JUMP JUMPDEST PUSH32 0x456C20636F6368652067616E61646F722065733A200000000000000000000000 PUSH1 0x0 DUP3 ADD MSTORE POP JUMP JUMPDEST PUSH2 0x2496 DUP2 PUSH2 0x209C JUMP JUMPDEST DUP2 EQ PUSH2 0x24A1 JUMPI PUSH1 0x0 DUP1 REVERT JUMPDEST POP JUMP JUMPDEST PUSH2 0x24AD DUP2 PUSH2 0x20CE JUMP JUMPDEST DUP2 EQ PUSH2 0x24B8 JUMPI PUSH1 0x0 DUP1 REVERT JUMPDEST POP JUMP INVALID LOG2 PUSH5 0x6970667358 0x22 SLT KECCAK256 0xDC 0xB8 PUSH20 0x8CAD5288C459E4DEB64F52FB53DA177320475AC6 0xD6 0xC4 PUSH22 0x6ABCD3A73B9964736F6C634300080700330000000000 "
				},
				"gasEstimates": {
					"creation": {
						"codeDepositCost": "1891400",
						"executionCost": "infinite",
						"totalCost": "infinite"
					},
					"external": {
						"Apostar(uint256)": "infinite",
						"_owner()": "2555",
						"anadirCoche(string,string,string)": "infinite",
						"cocheDePropietario(uint256)": "2839",
						"comprarCoche(address,string,string)": "infinite",
						"listaCoches(uint256)": "infinite",
						"numeroCochesPersona(address)": "2837",
						"owner()": "2544",
						"renounceOwnership()": "30485",
						"subirDeNivel(address)": "infinite",
						"transferOwnership(address)": "30833",
						"verCochePropietario(address)": "infinite"
					},
					"internal": {
						"_depositoLleno(struct CarreraCoches.Coche storage pointer)": "2142",
						"_repostando(struct CarreraCoches.Coche storage pointer)": "infinite",
						"balance()": "infinite",
						"numAleatorio(uint256)": "infinite"
					}
				},
				"methodIdentifiers": {
					"Apostar(uint256)": "6b6f0494",
					"_owner()": "b2bdfa7b",
					"anadirCoche(string,string,string)": "2458c544",
					"cocheDePropietario(uint256)": "858b0554",
					"comprarCoche(address,string,string)": "049a5f65",
					"listaCoches(uint256)": "d735573d",
					"numeroCochesPersona(address)": "1c6743e4",
					"owner()": "8da5cb5b",
					"renounceOwnership()": "715018a6",
					"subirDeNivel(address)": "6a7d1816",
					"transferOwnership(address)": "f2fde38b",
					"verCochePropietario(address)": "e172fca8"
				}
			},
			"storageLayout": {
				"storage": [
					{
						"astId": 215,
						"contract": "contracts/CarreraCoches/principal.sol:CarreraCoches",
						"label": "_owner",
						"offset": 0,
						"slot": "0",
						"type": "t_address"
					},
					{
						"astId": 337,
						"contract": "contracts/CarreraCoches/principal.sol:CarreraCoches",
						"label": "randNonce",
						"offset": 0,
						"slot": "1",
						"type": "t_uint256"
					},
					{
						"astId": 340,
						"contract": "contracts/CarreraCoches/principal.sol:CarreraCoches",
						"label": "contador",
						"offset": 0,
						"slot": "2",
						"type": "t_uint256"
					},
					{
						"astId": 343,
						"contract": "contracts/CarreraCoches/principal.sol:CarreraCoches",
						"label": "cooldown",
						"offset": 0,
						"slot": "3",
						"type": "t_uint256"
					},
					{
						"astId": 346,
						"contract": "contracts/CarreraCoches/principal.sol:CarreraCoches",
						"label": "subirNivel",
						"offset": 0,
						"slot": "4",
						"type": "t_uint256"
					},
					{
						"astId": 349,
						"contract": "contracts/CarreraCoches/principal.sol:CarreraCoches",
						"label": "cambiarCocheV",
						"offset": 0,
						"slot": "5",
						"type": "t_uint256"
					},
					{
						"astId": 353,
						"contract": "contracts/CarreraCoches/principal.sol:CarreraCoches",
						"label": "listaCoches",
						"offset": 0,
						"slot": "6",
						"type": "t_array(t_struct(Coche)334_storage)dyn_storage"
					},
					{
						"astId": 383,
						"contract": "contracts/CarreraCoches/principal.sol:CarreraCoches",
						"label": "cocheDePropietario",
						"offset": 0,
						"slot": "7",
						"type": "t_mapping(t_uint256,t_address)"
					},
					{
						"astId": 387,
						"contract": "contracts/CarreraCoches/principal.sol:CarreraCoches",
						"label": "numeroCochesPersona",
						"offset": 0,
						"slot": "8",
						"type": "t_mapping(t_address,t_uint256)"
					}
				],
				"types": {
					"t_address": {
						"encoding": "inplace",
						"label": "address",
						"numberOfBytes": "20"
					},
					"t_array(t_struct(Coche)334_storage)dyn_storage": {
						"base": "t_struct(Coche)334_storage",
						"encoding": "dynamic_array",
						"label": "struct CarreraCoches.Coche[]",
						"numberOfBytes": "32"
					},
					"t_mapping(t_address,t_uint256)": {
						"encoding": "mapping",
						"key": "t_address",
						"label": "mapping(address => uint256)",
						"numberOfBytes": "32",
						"value": "t_uint256"
					},
					"t_mapping(t_uint256,t_address)": {
						"encoding": "mapping",
						"key": "t_uint256",
						"label": "mapping(uint256 => address)",
						"numberOfBytes": "32",
						"value": "t_address"
					},
					"t_string_storage": {
						"encoding": "bytes",
						"label": "string",
						"numberOfBytes": "32"
					},
					"t_struct(Coche)334_storage": {
						"encoding": "inplace",
						"label": "struct CarreraCoches.Coche",
						"members": [
							{
								"astId": 319,
								"contract": "contracts/CarreraCoches/principal.sol:CarreraCoches",
								"label": "idPiloto",
								"offset": 0,
								"slot": "0",
								"type": "t_address"
							},
							{
								"astId": 321,
								"contract": "contracts/CarreraCoches/principal.sol:CarreraCoches",
								"label": "modelo",
								"offset": 0,
								"slot": "1",
								"type": "t_string_storage"
							},
							{
								"astId": 323,
								"contract": "contracts/CarreraCoches/principal.sol:CarreraCoches",
								"label": "marca",
								"offset": 0,
								"slot": "2",
								"type": "t_string_storage"
							},
							{
								"astId": 325,
								"contract": "contracts/CarreraCoches/principal.sol:CarreraCoches",
								"label": "nombrePiloto",
								"offset": 0,
								"slot": "3",
								"type": "t_string_storage"
							},
							{
								"astId": 327,
								"contract": "contracts/CarreraCoches/principal.sol:CarreraCoches",
								"label": "carrerasGanadas",
								"offset": 0,
								"slot": "4",
								"type": "t_uint256"
							},
							{
								"astId": 329,
								"contract": "contracts/CarreraCoches/principal.sol:CarreraCoches",
								"label": "carrerasTotales",
								"offset": 0,
								"slot": "5",
								"type": "t_uint256"
							},
							{
								"astId": 331,
								"contract": "contracts/CarreraCoches/principal.sol:CarreraCoches",
								"label": "tiempoEspera",
								"offset": 0,
								"slot": "6",
								"type": "t_uint256"
							},
							{
								"astId": 333,
								"contract": "contracts/CarreraCoches/principal.sol:CarreraCoches",
								"label": "nivel",
								"offset": 0,
								"slot": "7",
								"type": "t_uint32"
							}
						],
						"numberOfBytes": "256"
					},
					"t_uint256": {
						"encoding": "inplace",
						"label": "uint256",
						"numberOfBytes": "32"
					},
					"t_uint32": {
						"encoding": "inplace",
						"label": "uint32",
						"numberOfBytes": "4"
					}
				}
			},
			"userdoc": {
				"kind": "user",
				"methods": {},
				"version": 1
			}
		}
	}
}