{
	"contracts/CarreraCoches/level.sol": {
		"LevelCoches": {
			"abi": [
				{
					"anonymous": false,
					"inputs": [
						{
							"indexed": true,
							"internalType": "address",
							"name": "previousOwner",
							"type": "address"
						},
						{
							"indexed": true,
							"internalType": "address",
							"name": "newOwner",
							"type": "address"
						}
					],
					"name": "OwnershipTransferred",
					"type": "event"
				},
				{
					"anonymous": false,
					"inputs": [
						{
							"indexed": false,
							"internalType": "string",
							"name": "mo",
							"type": "string"
						},
						{
							"indexed": false,
							"internalType": "string",
							"name": "ma",
							"type": "string"
						}
					],
					"name": "cochePropietario",
					"type": "event"
				},
				{
					"anonymous": false,
					"inputs": [
						{
							"indexed": false,
							"internalType": "uint256",
							"name": "compr",
							"type": "uint256"
						}
					],
					"name": "comprobar",
					"type": "event"
				},
				{
					"anonymous": false,
					"inputs": [
						{
							"indexed": false,
							"internalType": "string",
							"name": "ms",
							"type": "string"
						}
					],
					"name": "confirmacionDepositoLleno",
					"type": "event"
				},
				{
					"anonymous": false,
					"inputs": [
						{
							"indexed": false,
							"internalType": "string",
							"name": "ms",
							"type": "string"
						},
						{
							"indexed": false,
							"internalType": "uint256",
							"name": "res",
							"type": "uint256"
						}
					],
					"name": "mostrarResultado",
					"type": "event"
				},
				{
					"inputs": [
						{
							"internalType": "uint256",
							"name": "dineroApostar",
							"type": "uint256"
						}
					],
					"name": "Apostar",
					"outputs": [
						{
							"internalType": "string",
							"name": "",
							"type": "string"
						}
					],
					"stateMutability": "payable",
					"type": "function"
				},
				{
					"inputs": [
						{
							"internalType": "string",
							"name": "_modelo",
							"type": "string"
						},
						{
							"internalType": "string",
							"name": "_marca",
							"type": "string"
						},
						{
							"internalType": "string",
							"name": "_nombrePiloto",
							"type": "string"
						}
					],
					"name": "anadirCoche",
					"outputs": [
						{
							"internalType": "uint256",
							"name": "",
							"type": "uint256"
						}
					],
					"stateMutability": "nonpayable",
					"type": "function"
				},
				{
					"inputs": [
						{
							"internalType": "uint256",
							"name": "_coche",
							"type": "uint256"
						},
						{
							"internalType": "string",
							"name": "_newModelo",
							"type": "string"
						},
						{
							"internalType": "string",
							"name": "_newMarca",
							"type": "string"
						}
					],
					"name": "cambiarCoche",
					"outputs": [],
					"stateMutability": "nonpayable",
					"type": "function"
				},
				{
					"inputs": [
						{
							"internalType": "uint256",
							"name": "",
							"type": "uint256"
						}
					],
					"name": "cocheDePropietario",
					"outputs": [
						{
							"internalType": "address",
							"name": "",
							"type": "address"
						}
					],
					"stateMutability": "view",
					"type": "function"
				},
				{
					"inputs": [
						{
							"internalType": "uint256",
							"name": "",
							"type": "uint256"
						}
					],
					"name": "listaCoches",
					"outputs": [
						{
							"internalType": "address",
							"name": "idPiloto",
							"type": "address"
						},
						{
							"internalType": "string",
							"name": "modelo",
							"type": "string"
						},
						{
							"internalType": "string",
							"name": "marca",
							"type": "string"
						},
						{
							"internalType": "string",
							"name": "nombrePiloto",
							"type": "string"
						},
						{
							"internalType": "uint256",
							"name": "carrerasGanadas",
							"type": "uint256"
						},
						{
							"internalType": "uint256",
							"name": "carrerasTotales",
							"type": "uint256"
						},
						{
							"internalType": "uint256",
							"name": "tiempoEspera",
							"type": "uint256"
						},
						{
							"internalType": "uint32",
							"name": "nivel",
							"type": "uint32"
						}
					],
					"stateMutability": "view",
					"type": "function"
				},
				{
					"inputs": [],
					"name": "numeroAleatorio",
					"outputs": [
						{
							"internalType": "uint256",
							"name": "",
							"type": "uint256"
						}
					],
					"stateMutability": "nonpayable",
					"type": "function"
				},
				{
					"inputs": [
						{
							"internalType": "address",
							"name": "",
							"type": "address"
						}
					],
					"name": "numeroCochesPersona",
					"outputs": [
						{
							"internalType": "uint256",
							"name": "",
							"type": "uint256"
						}
					],
					"stateMutability": "view",
					"type": "function"
				},
				{
					"inputs": [],
					"name": "owner",
					"outputs": [
						{
							"internalType": "address",
							"name": "",
							"type": "address"
						}
					],
					"stateMutability": "view",
					"type": "function"
				},
				{
					"inputs": [],
					"name": "renounceOwnership",
					"outputs": [],
					"stateMutability": "nonpayable",
					"type": "function"
				},
				{
					"inputs": [
						{
							"internalType": "address",
							"name": "newOwner",
							"type": "address"
						}
					],
					"name": "transferOwnership",
					"outputs": [],
					"stateMutability": "nonpayable",
					"type": "function"
				},
				{
					"inputs": [
						{
							"internalType": "address",
							"name": "_propietario",
							"type": "address"
						}
					],
					"name": "verCochePropietario",
					"outputs": [
						{
							"internalType": "uint256[]",
							"name": "",
							"type": "uint256[]"
						}
					],
					"stateMutability": "nonpayable",
					"type": "function"
				}
			],
			"devdoc": {
				"kind": "dev",
				"methods": {
					"owner()": {
						"details": "Returns the address of the current owner."
					},
					"renounceOwnership()": {
						"details": "Leaves the contract without owner. It will not be possible to call `onlyOwner` functions anymore. Can only be called by the current owner. NOTE: Renouncing ownership will leave the contract without an owner, thereby removing any functionality that is only available to the owner."
					},
					"transferOwnership(address)": {
						"details": "Transfers ownership of the contract to a new account (`newOwner`). Can only be called by the current owner."
					}
				},
				"version": 1
			},
			"evm": {
				"assembly": "    /* \"contracts/CarreraCoches/level.sol\":56:527  contract LevelCoches is CarreraCoches {\r... */\n  mstore(0x40, 0x80)\n    /* \"contracts/CarreraCoches/principal.sol\":370:371  0 */\n  0x00\n    /* \"contracts/CarreraCoches/principal.sol\":353:371  uint randNonce = 0 */\n  0x01\n  sstore\n    /* \"contracts/CarreraCoches/principal.sol\":494:495  0 */\n  0x00\n    /* \"contracts/CarreraCoches/principal.sol\":478:495  uint contador = 0 */\n  0x02\n  sstore\n    /* \"contracts/CarreraCoches/principal.sol\":518:528  60 seconds */\n  0x3c\n    /* \"contracts/CarreraCoches/principal.sol\":502:528  uint cooldown = 60 seconds */\n  0x03\n  sstore\n    /* \"contracts/CarreraCoches/level.sol\":56:527  contract LevelCoches is CarreraCoches {\r... */\n  callvalue\n  dup1\n  iszero\n  tag_1\n  jumpi\n  0x00\n  dup1\n  revert\ntag_1:\n  pop\n    /* \"contracts/CarreraCoches/ownable.sol\":948:980  _transferOwnership(_msgSender()) */\n  tag_4\n    /* \"contracts/CarreraCoches/ownable.sol\":967:979  _msgSender() */\n  tag_5\n    /* \"contracts/CarreraCoches/ownable.sol\":967:977  _msgSender */\n  shl(0x20, tag_6)\n    /* \"contracts/CarreraCoches/ownable.sol\":967:979  _msgSender() */\n  0x20\n  shr\n  jump\t// in\ntag_5:\n    /* \"contracts/CarreraCoches/ownable.sol\":948:966  _transferOwnership */\n  shl(0x20, tag_7)\n    /* \"contracts/CarreraCoches/ownable.sol\":948:980  _transferOwnership(_msgSender()) */\n  0x20\n  shr\n  jump\t// in\ntag_4:\n    /* \"contracts/CarreraCoches/level.sol\":56:527  contract LevelCoches is CarreraCoches {\r... */\n  jump(tag_8)\n    /* \"contracts/CarreraCoches/utils/Context.sol\":656:754  function _msgSender() internal view virtual returns (address) {\r... */\ntag_6:\n    /* \"contracts/CarreraCoches/utils/Context.sol\":709:716  address */\n  0x00\n    /* \"contracts/CarreraCoches/utils/Context.sol\":736:746  msg.sender */\n  caller\n    /* \"contracts/CarreraCoches/utils/Context.sol\":729:746  return msg.sender */\n  swap1\n  pop\n    /* \"contracts/CarreraCoches/utils/Context.sol\":656:754  function _msgSender() internal view virtual returns (address) {\r... */\n  swap1\n  jump\t// out\n    /* \"contracts/CarreraCoches/ownable.sol\":2339:2530  function _transferOwnership(address newOwner) internal virtual {\r... */\ntag_7:\n    /* \"contracts/CarreraCoches/ownable.sol\":2413:2429  address oldOwner */\n  0x00\n    /* \"contracts/CarreraCoches/ownable.sol\":2432:2438  _owner */\n  dup1\n  0x00\n  swap1\n  sload\n  swap1\n  0x0100\n  exp\n  swap1\n  div\n  0xffffffffffffffffffffffffffffffffffffffff\n  and\n    /* \"contracts/CarreraCoches/ownable.sol\":2413:2438  address oldOwner = _owner */\n  swap1\n  pop\n    /* \"contracts/CarreraCoches/ownable.sol\":2458:2466  newOwner */\n  dup2\n    /* \"contracts/CarreraCoches/ownable.sol\":2449:2455  _owner */\n  0x00\n  dup1\n    /* \"contracts/CarreraCoches/ownable.sol\":2449:2466  _owner = newOwner */\n  0x0100\n  exp\n  dup2\n  sload\n  dup2\n  0xffffffffffffffffffffffffffffffffffffffff\n  mul\n  not\n  and\n  swap1\n  dup4\n  0xffffffffffffffffffffffffffffffffffffffff\n  and\n  mul\n  or\n  swap1\n  sstore\n  pop\n    /* \"contracts/CarreraCoches/ownable.sol\":2513:2521  newOwner */\n  dup2\n    /* \"contracts/CarreraCoches/ownable.sol\":2482:2522  OwnershipTransferred(oldOwner, newOwner) */\n  0xffffffffffffffffffffffffffffffffffffffff\n  and\n    /* \"contracts/CarreraCoches/ownable.sol\":2503:2511  oldOwner */\n  dup2\n    /* \"contracts/CarreraCoches/ownable.sol\":2482:2522  OwnershipTransferred(oldOwner, newOwner) */\n  0xffffffffffffffffffffffffffffffffffffffff\n  and\n  0x8be0079c531659141344cd1fd0a4f28419497f9722a3daafe3b4186f6b6457e0\n  mload(0x40)\n  mload(0x40)\n  dup1\n  swap2\n  sub\n  swap1\n  log3\n    /* \"contracts/CarreraCoches/ownable.sol\":2402:2530  {\r... */\n  pop\n    /* \"contracts/CarreraCoches/ownable.sol\":2339:2530  function _transferOwnership(address newOwner) internal virtual {\r... */\n  pop\n  jump\t// out\n    /* \"contracts/CarreraCoches/level.sol\":56:527  contract LevelCoches is CarreraCoches {\r... */\ntag_8:\n  dataSize(sub_0)\n  dup1\n  dataOffset(sub_0)\n  0x00\n  codecopy\n  0x00\n  return\nstop\n\nsub_0: assembly {\n        /* \"contracts/CarreraCoches/level.sol\":56:527  contract LevelCoches is CarreraCoches {\r... */\n      mstore(0x40, 0x80)\n      jumpi(tag_1, lt(calldatasize, 0x04))\n      shr(0xe0, calldataload(0x00))\n      dup1\n      0x858b0554\n      gt\n      tag_13\n      jumpi\n      dup1\n      0x858b0554\n      eq\n      tag_7\n      jumpi\n      dup1\n      0x8da5cb5b\n      eq\n      tag_8\n      jumpi\n      dup1\n      0xd735573d\n      eq\n      tag_9\n      jumpi\n      dup1\n      0xe172fca8\n      eq\n      tag_10\n      jumpi\n      dup1\n      0xf1413763\n      eq\n      tag_11\n      jumpi\n      dup1\n      0xf2fde38b\n      eq\n      tag_12\n      jumpi\n      jump(tag_1)\n    tag_13:\n      dup1\n      0x1c6743e4\n      eq\n      tag_2\n      jumpi\n      dup1\n      0x2458c544\n      eq\n      tag_3\n      jumpi\n      dup1\n      0x6b6f0494\n      eq\n      tag_4\n      jumpi\n      dup1\n      0x6ba2cdf4\n      eq\n      tag_5\n      jumpi\n      dup1\n      0x715018a6\n      eq\n      tag_6\n      jumpi\n    tag_1:\n      0x00\n      dup1\n      revert\n        /* \"contracts/CarreraCoches/principal.sol\":816:868  mapping (address => uint) public numeroCochesPersona */\n    tag_2:\n      callvalue\n      dup1\n      iszero\n      tag_14\n      jumpi\n      0x00\n      dup1\n      revert\n    tag_14:\n      pop\n      tag_15\n      0x04\n      dup1\n      calldatasize\n      sub\n      dup2\n      add\n      swap1\n      tag_16\n      swap2\n      swap1\n      tag_17\n      jump\t// in\n    tag_16:\n      tag_18\n      jump\t// in\n    tag_15:\n      mload(0x40)\n      tag_19\n      swap2\n      swap1\n      tag_20\n      jump\t// in\n    tag_19:\n      mload(0x40)\n      dup1\n      swap2\n      sub\n      swap1\n      return\n        /* \"contracts/CarreraCoches/principal.sol\":1111:1551  function anadirCoche(string memory _modelo, string memory _marca, string memory _nombrePiloto) public restriccion returns (uint) {\r... */\n    tag_3:\n      callvalue\n      dup1\n      iszero\n      tag_21\n      jumpi\n      0x00\n      dup1\n      revert\n    tag_21:\n      pop\n      tag_22\n      0x04\n      dup1\n      calldatasize\n      sub\n      dup2\n      add\n      swap1\n      tag_23\n      swap2\n      swap1\n      tag_24\n      jump\t// in\n    tag_23:\n      tag_25\n      jump\t// in\n    tag_22:\n      mload(0x40)\n      tag_26\n      swap2\n      swap1\n      tag_20\n      jump\t// in\n    tag_26:\n      mload(0x40)\n      dup1\n      swap2\n      sub\n      swap1\n      return\n        /* \"contracts/CarreraCoches/principal.sol\":2788:3964  function Apostar(uint dineroApostar) public payable returns(string memory) {\r... */\n    tag_4:\n      tag_27\n      0x04\n      dup1\n      calldatasize\n      sub\n      dup2\n      add\n      swap1\n      tag_28\n      swap2\n      swap1\n      tag_29\n      jump\t// in\n    tag_28:\n      tag_30\n      jump\t// in\n    tag_27:\n      mload(0x40)\n      tag_31\n      swap2\n      swap1\n      tag_32\n      jump\t// in\n    tag_31:\n      mload(0x40)\n      dup1\n      swap2\n      sub\n      swap1\n      return\n        /* \"contracts/CarreraCoches/level.sol\":236:522  function cambiarCoche(uint _coche, string memory _newModelo, string memory _newMarca) external nivelAlcanzado(10, _coche) {\r... */\n    tag_5:\n      callvalue\n      dup1\n      iszero\n      tag_33\n      jumpi\n      0x00\n      dup1\n      revert\n    tag_33:\n      pop\n      tag_34\n      0x04\n      dup1\n      calldatasize\n      sub\n      dup2\n      add\n      swap1\n      tag_35\n      swap2\n      swap1\n      tag_36\n      jump\t// in\n    tag_35:\n      tag_37\n      jump\t// in\n    tag_34:\n      stop\n        /* \"contracts/CarreraCoches/ownable.sol\":1720:1823  function renounceOwnership() public virtual onlyOwner {\r... */\n    tag_6:\n      callvalue\n      dup1\n      iszero\n      tag_38\n      jumpi\n      0x00\n      dup1\n      revert\n    tag_38:\n      pop\n      tag_39\n      tag_40\n      jump\t// in\n    tag_39:\n      stop\n        /* \"contracts/CarreraCoches/principal.sol\":758:809  mapping (uint => address) public cocheDePropietario */\n    tag_7:\n      callvalue\n      dup1\n      iszero\n      tag_41\n      jumpi\n      0x00\n      dup1\n      revert\n    tag_41:\n      pop\n      tag_42\n      0x04\n      dup1\n      calldatasize\n      sub\n      dup2\n      add\n      swap1\n      tag_43\n      swap2\n      swap1\n      tag_29\n      jump\t// in\n    tag_43:\n      tag_44\n      jump\t// in\n    tag_42:\n      mload(0x40)\n      tag_45\n      swap2\n      swap1\n      tag_46\n      jump\t// in\n    tag_45:\n      mload(0x40)\n      dup1\n      swap2\n      sub\n      swap1\n      return\n        /* \"contracts/CarreraCoches/ownable.sol\":1069:1156  function owner() public view virtual returns (address) {\r... */\n    tag_8:\n      callvalue\n      dup1\n      iszero\n      tag_47\n      jumpi\n      0x00\n      dup1\n      revert\n    tag_47:\n      pop\n      tag_48\n      tag_49\n      jump\t// in\n    tag_48:\n      mload(0x40)\n      tag_50\n      swap2\n      swap1\n      tag_46\n      jump\t// in\n    tag_50:\n      mload(0x40)\n      dup1\n      swap2\n      sub\n      swap1\n      return\n        /* \"contracts/CarreraCoches/principal.sol\":537:563  Coche[] public listaCoches */\n    tag_9:\n      callvalue\n      dup1\n      iszero\n      tag_51\n      jumpi\n      0x00\n      dup1\n      revert\n    tag_51:\n      pop\n      tag_52\n      0x04\n      dup1\n      calldatasize\n      sub\n      dup2\n      add\n      swap1\n      tag_53\n      swap2\n      swap1\n      tag_29\n      jump\t// in\n    tag_53:\n      tag_54\n      jump\t// in\n    tag_52:\n      mload(0x40)\n      tag_55\n      swap9\n      swap8\n      swap7\n      swap6\n      swap5\n      swap4\n      swap3\n      swap2\n      swap1\n      tag_56\n      jump\t// in\n    tag_55:\n      mload(0x40)\n      dup1\n      swap2\n      sub\n      swap1\n      return\n        /* \"contracts/CarreraCoches/principal.sol\":2108:2451  function verCochePropietario(address _propietario) external returns(uint[] memory){\r... */\n    tag_10:\n      callvalue\n      dup1\n      iszero\n      tag_57\n      jumpi\n      0x00\n      dup1\n      revert\n    tag_57:\n      pop\n      tag_58\n      0x04\n      dup1\n      calldatasize\n      sub\n      dup2\n      add\n      swap1\n      tag_59\n      swap2\n      swap1\n      tag_17\n      jump\t// in\n    tag_59:\n      tag_60\n      jump\t// in\n    tag_58:\n      mload(0x40)\n      tag_61\n      swap2\n      swap1\n      tag_62\n      jump\t// in\n    tag_61:\n      mload(0x40)\n      dup1\n      swap2\n      sub\n      swap1\n      return\n        /* \"contracts/CarreraCoches/principal.sol\":1881:2100  function numeroAleatorio() public returns (uint256) {\r... */\n    tag_11:\n      callvalue\n      dup1\n      iszero\n      tag_63\n      jumpi\n      0x00\n      dup1\n      revert\n    tag_63:\n      pop\n      tag_64\n      tag_65\n      jump\t// in\n    tag_64:\n      mload(0x40)\n      tag_66\n      swap2\n      swap1\n      tag_20\n      jump\t// in\n    tag_66:\n      mload(0x40)\n      dup1\n      swap2\n      sub\n      swap1\n      return\n        /* \"contracts/CarreraCoches/ownable.sol\":1978:2179  function transferOwnership(address newOwner) public virtual onlyOwner {\r... */\n    tag_12:\n      callvalue\n      dup1\n      iszero\n      tag_67\n      jumpi\n      0x00\n      dup1\n      revert\n    tag_67:\n      pop\n      tag_68\n      0x04\n      dup1\n      calldatasize\n      sub\n      dup2\n      add\n      swap1\n      tag_69\n      swap2\n      swap1\n      tag_17\n      jump\t// in\n    tag_69:\n      tag_70\n      jump\t// in\n    tag_68:\n      stop\n        /* \"contracts/CarreraCoches/principal.sol\":816:868  mapping (address => uint) public numeroCochesPersona */\n    tag_18:\n      mstore(0x20, 0x06)\n      dup1\n      0x00\n      mstore\n      keccak256(0x00, 0x40)\n      0x00\n      swap2\n      pop\n      swap1\n      pop\n      sload\n      dup2\n      jump\t// out\n        /* \"contracts/CarreraCoches/principal.sol\":1111:1551  function anadirCoche(string memory _modelo, string memory _marca, string memory _nombrePiloto) public restriccion returns (uint) {\r... */\n    tag_25:\n        /* \"contracts/CarreraCoches/principal.sol\":1234:1238  uint */\n      0x00\n        /* \"contracts/CarreraCoches/principal.sol\":1000:1001  1 */\n      0x01\n        /* \"contracts/CarreraCoches/principal.sol\":966:985  numeroCochesPersona */\n      0x06\n        /* \"contracts/CarreraCoches/principal.sol\":966:997  numeroCochesPersona[msg.sender] */\n      0x00\n        /* \"contracts/CarreraCoches/principal.sol\":986:996  msg.sender */\n      caller\n        /* \"contracts/CarreraCoches/principal.sol\":966:997  numeroCochesPersona[msg.sender] */\n      0xffffffffffffffffffffffffffffffffffffffff\n      and\n      0xffffffffffffffffffffffffffffffffffffffff\n      and\n      dup2\n      mstore\n      0x20\n      add\n      swap1\n      dup2\n      mstore\n      0x20\n      add\n      0x00\n      keccak256\n      sload\n        /* \"contracts/CarreraCoches/principal.sol\":966:1001  numeroCochesPersona[msg.sender] < 1 */\n      lt\n        /* \"contracts/CarreraCoches/principal.sol\":958:1046  require(numeroCochesPersona[msg.sender] < 1, \"Solo se puede tener un coche por persona\") */\n      tag_72\n      jumpi\n      mload(0x40)\n      0x08c379a000000000000000000000000000000000000000000000000000000000\n      dup2\n      mstore\n      0x04\n      add\n      tag_73\n      swap1\n      tag_74\n      jump\t// in\n    tag_73:\n      mload(0x40)\n      dup1\n      swap2\n      sub\n      swap1\n      revert\n    tag_72:\n        /* \"contracts/CarreraCoches/principal.sol\":1251:1262  listaCoches */\n      0x04\n        /* \"contracts/CarreraCoches/principal.sol\":1268:1362  Coche(msg.sender, _modelo, _marca, _nombrePiloto, 0, 0, uint32(block.timestamp + cooldown), 0) */\n      mload(0x40)\n      dup1\n      0x0100\n      add\n      0x40\n      mstore\n      dup1\n        /* \"contracts/CarreraCoches/principal.sol\":1274:1284  msg.sender */\n      caller\n        /* \"contracts/CarreraCoches/principal.sol\":1268:1362  Coche(msg.sender, _modelo, _marca, _nombrePiloto, 0, 0, uint32(block.timestamp + cooldown), 0) */\n      0xffffffffffffffffffffffffffffffffffffffff\n      and\n      dup2\n      mstore\n      0x20\n      add\n        /* \"contracts/CarreraCoches/principal.sol\":1286:1293  _modelo */\n      dup7\n        /* \"contracts/CarreraCoches/principal.sol\":1268:1362  Coche(msg.sender, _modelo, _marca, _nombrePiloto, 0, 0, uint32(block.timestamp + cooldown), 0) */\n      dup2\n      mstore\n      0x20\n      add\n        /* \"contracts/CarreraCoches/principal.sol\":1295:1301  _marca */\n      dup6\n        /* \"contracts/CarreraCoches/principal.sol\":1268:1362  Coche(msg.sender, _modelo, _marca, _nombrePiloto, 0, 0, uint32(block.timestamp + cooldown), 0) */\n      dup2\n      mstore\n      0x20\n      add\n        /* \"contracts/CarreraCoches/principal.sol\":1303:1316  _nombrePiloto */\n      dup5\n        /* \"contracts/CarreraCoches/principal.sol\":1268:1362  Coche(msg.sender, _modelo, _marca, _nombrePiloto, 0, 0, uint32(block.timestamp + cooldown), 0) */\n      dup2\n      mstore\n      0x20\n      add\n        /* \"contracts/CarreraCoches/principal.sol\":1318:1319  0 */\n      0x00\n        /* \"contracts/CarreraCoches/principal.sol\":1268:1362  Coche(msg.sender, _modelo, _marca, _nombrePiloto, 0, 0, uint32(block.timestamp + cooldown), 0) */\n      dup2\n      mstore\n      0x20\n      add\n        /* \"contracts/CarreraCoches/principal.sol\":1321:1322  0 */\n      0x00\n        /* \"contracts/CarreraCoches/principal.sol\":1268:1362  Coche(msg.sender, _modelo, _marca, _nombrePiloto, 0, 0, uint32(block.timestamp + cooldown), 0) */\n      dup2\n      mstore\n      0x20\n      add\n        /* \"contracts/CarreraCoches/principal.sol\":1349:1357  cooldown */\n      sload(0x03)\n        /* \"contracts/CarreraCoches/principal.sol\":1331:1346  block.timestamp */\n      timestamp\n        /* \"contracts/CarreraCoches/principal.sol\":1331:1357  block.timestamp + cooldown */\n      tag_76\n      swap2\n      swap1\n      tag_77\n      jump\t// in\n    tag_76:\n        /* \"contracts/CarreraCoches/principal.sol\":1268:1362  Coche(msg.sender, _modelo, _marca, _nombrePiloto, 0, 0, uint32(block.timestamp + cooldown), 0) */\n      0xffffffff\n      and\n      dup2\n      mstore\n      0x20\n      add\n        /* \"contracts/CarreraCoches/principal.sol\":1360:1361  0 */\n      0x00\n        /* \"contracts/CarreraCoches/principal.sol\":1268:1362  Coche(msg.sender, _modelo, _marca, _nombrePiloto, 0, 0, uint32(block.timestamp + cooldown), 0) */\n      0xffffffff\n      and\n      dup2\n      mstore\n      pop\n        /* \"contracts/CarreraCoches/principal.sol\":1251:1363  listaCoches.push(Coche(msg.sender, _modelo, _marca, _nombrePiloto, 0, 0, uint32(block.timestamp + cooldown), 0)) */\n      swap1\n      dup1\n      0x01\n      dup2\n      sload\n      add\n      dup1\n      dup3\n      sstore\n      dup1\n      swap2\n      pop\n      pop\n      0x01\n      swap1\n      sub\n      swap1\n      0x00\n      mstore\n      keccak256(0x00, 0x20)\n      swap1\n      0x08\n      mul\n      add\n      0x00\n      swap1\n      swap2\n      swap1\n      swap2\n      swap1\n      swap2\n      pop\n      0x00\n      dup3\n      add\n      mload\n      dup2\n      0x00\n      add\n      exp(0x0100, 0x00)\n      dup2\n      sload\n      dup2\n      0xffffffffffffffffffffffffffffffffffffffff\n      mul\n      not\n      and\n      swap1\n      dup4\n      0xffffffffffffffffffffffffffffffffffffffff\n      and\n      mul\n      or\n      swap1\n      sstore\n      pop\n      0x20\n      dup3\n      add\n      mload\n      dup2\n      0x01\n      add\n      swap1\n      dup1\n      mload\n      swap1\n      0x20\n      add\n      swap1\n      tag_79\n      swap3\n      swap2\n      swap1\n      tag_80\n      jump\t// in\n    tag_79:\n      pop\n      0x40\n      dup3\n      add\n      mload\n      dup2\n      0x02\n      add\n      swap1\n      dup1\n      mload\n      swap1\n      0x20\n      add\n      swap1\n      tag_81\n      swap3\n      swap2\n      swap1\n      tag_80\n      jump\t// in\n    tag_81:\n      pop\n      0x60\n      dup3\n      add\n      mload\n      dup2\n      0x03\n      add\n      swap1\n      dup1\n      mload\n      swap1\n      0x20\n      add\n      swap1\n      tag_82\n      swap3\n      swap2\n      swap1\n      tag_80\n      jump\t// in\n    tag_82:\n      pop\n      0x80\n      dup3\n      add\n      mload\n      dup2\n      0x04\n      add\n      sstore\n      0xa0\n      dup3\n      add\n      mload\n      dup2\n      0x05\n      add\n      sstore\n      0xc0\n      dup3\n      add\n      mload\n      dup2\n      0x06\n      add\n      sstore\n      0xe0\n      dup3\n      add\n      mload\n      dup2\n      0x07\n      add\n      exp(0x0100, 0x00)\n      dup2\n      sload\n      dup2\n      0xffffffff\n      mul\n      not\n      and\n      swap1\n      dup4\n      0xffffffff\n      and\n      mul\n      or\n      swap1\n      sstore\n      pop\n      pop\n      pop\n        /* \"contracts/CarreraCoches/principal.sol\":1374:1381  uint id */\n      0x00\n        /* \"contracts/CarreraCoches/principal.sol\":1384:1395  listaCoches */\n      0x04\n        /* \"contracts/CarreraCoches/principal.sol\":1384:1402  listaCoches.length */\n      dup1\n      sload\n      swap1\n      pop\n        /* \"contracts/CarreraCoches/principal.sol\":1374:1402  uint id = listaCoches.length */\n      swap1\n      pop\n        /* \"contracts/CarreraCoches/principal.sol\":1438:1448  msg.sender */\n      caller\n        /* \"contracts/CarreraCoches/principal.sol\":1413:1431  cocheDePropietario */\n      0x05\n        /* \"contracts/CarreraCoches/principal.sol\":1413:1435  cocheDePropietario[id] */\n      0x00\n        /* \"contracts/CarreraCoches/principal.sol\":1432:1434  id */\n      dup4\n        /* \"contracts/CarreraCoches/principal.sol\":1413:1435  cocheDePropietario[id] */\n      dup2\n      mstore\n      0x20\n      add\n      swap1\n      dup2\n      mstore\n      0x20\n      add\n      0x00\n      keccak256\n      0x00\n        /* \"contracts/CarreraCoches/principal.sol\":1413:1448  cocheDePropietario[id] = msg.sender */\n      0x0100\n      exp\n      dup2\n      sload\n      dup2\n      0xffffffffffffffffffffffffffffffffffffffff\n      mul\n      not\n      and\n      swap1\n      dup4\n      0xffffffffffffffffffffffffffffffffffffffff\n      and\n      mul\n      or\n      swap1\n      sstore\n      pop\n        /* \"contracts/CarreraCoches/principal.sol\":1459:1478  numeroCochesPersona */\n      0x06\n        /* \"contracts/CarreraCoches/principal.sol\":1459:1490  numeroCochesPersona[msg.sender] */\n      0x00\n        /* \"contracts/CarreraCoches/principal.sol\":1479:1489  msg.sender */\n      caller\n        /* \"contracts/CarreraCoches/principal.sol\":1459:1490  numeroCochesPersona[msg.sender] */\n      0xffffffffffffffffffffffffffffffffffffffff\n      and\n      0xffffffffffffffffffffffffffffffffffffffff\n      and\n      dup2\n      mstore\n      0x20\n      add\n      swap1\n      dup2\n      mstore\n      0x20\n      add\n      0x00\n      keccak256\n      0x00\n        /* \"contracts/CarreraCoches/principal.sol\":1459:1492  numeroCochesPersona[msg.sender]++ */\n      dup2\n      sload\n      dup1\n      swap3\n      swap2\n      swap1\n      tag_83\n      swap1\n      tag_84\n      jump\t// in\n    tag_83:\n      swap2\n      swap1\n      pop\n      sstore\n      pop\n        /* \"contracts/CarreraCoches/principal.sol\":1503:1511  contador */\n      0x02\n      0x00\n        /* \"contracts/CarreraCoches/principal.sol\":1503:1513  contador++ */\n      dup2\n      sload\n      dup1\n      swap3\n      swap2\n      swap1\n      tag_85\n      swap1\n      tag_84\n      jump\t// in\n    tag_85:\n      swap2\n      swap1\n      pop\n      sstore\n      pop\n        /* \"contracts/CarreraCoches/principal.sol\":1542:1543  1 */\n      0x01\n        /* \"contracts/CarreraCoches/principal.sol\":1531:1539  contador */\n      sload(0x02)\n        /* \"contracts/CarreraCoches/principal.sol\":1531:1543  contador - 1 */\n      tag_86\n      swap2\n      swap1\n      tag_87\n      jump\t// in\n    tag_86:\n        /* \"contracts/CarreraCoches/principal.sol\":1524:1543  return contador - 1 */\n      swap2\n      pop\n      pop\n        /* \"contracts/CarreraCoches/principal.sol\":1111:1551  function anadirCoche(string memory _modelo, string memory _marca, string memory _nombrePiloto) public restriccion returns (uint) {\r... */\n      swap4\n      swap3\n      pop\n      pop\n      pop\n      jump\t// out\n        /* \"contracts/CarreraCoches/principal.sol\":2788:3964  function Apostar(uint dineroApostar) public payable returns(string memory) {\r... */\n    tag_30:\n        /* \"contracts/CarreraCoches/principal.sol\":2848:2861  string memory */\n      0x60\n        /* \"contracts/CarreraCoches/principal.sol\":2894:2907  dineroApostar */\n      dup2\n        /* \"contracts/CarreraCoches/principal.sol\":2881:2890  msg.value */\n      callvalue\n        /* \"contracts/CarreraCoches/principal.sol\":2881:2907  msg.value == dineroApostar */\n      eq\n        /* \"contracts/CarreraCoches/principal.sol\":2873:2908  require(msg.value == dineroApostar) */\n      tag_89\n      jumpi\n      0x00\n      dup1\n      revert\n    tag_89:\n        /* \"contracts/CarreraCoches/principal.sol\":2929:2938  randNonce */\n      0x01\n      0x00\n        /* \"contracts/CarreraCoches/principal.sol\":2929:2940  randNonce++ */\n      dup2\n      sload\n      dup1\n      swap3\n      swap2\n      swap1\n      tag_90\n      swap1\n      tag_84\n      jump\t// in\n    tag_90:\n      swap2\n      swap1\n      pop\n      sstore\n      pop\n        /* \"contracts/CarreraCoches/principal.sol\":2987:3000  uint256 rival */\n      0x00\n        /* \"contracts/CarreraCoches/principal.sol\":3090:3101  listaCoches */\n      0x04\n        /* \"contracts/CarreraCoches/principal.sol\":3090:3108  listaCoches.length */\n      dup1\n      sload\n      swap1\n      pop\n        /* \"contracts/CarreraCoches/principal.sol\":3038:3053  block.timestamp */\n      timestamp\n        /* \"contracts/CarreraCoches/principal.sol\":3055:3066  listaCoches */\n      0x04\n        /* \"contracts/CarreraCoches/principal.sol\":3055:3073  listaCoches.length */\n      dup1\n      sload\n      swap1\n      pop\n        /* \"contracts/CarreraCoches/principal.sol\":3075:3084  randNonce */\n      sload(0x01)\n        /* \"contracts/CarreraCoches/principal.sol\":3021:3085  abi.encodePacked(block.timestamp, listaCoches.length, randNonce) */\n      add(0x20, mload(0x40))\n      tag_91\n      swap4\n      swap3\n      swap2\n      swap1\n      tag_92\n      jump\t// in\n    tag_91:\n      mload(0x40)\n      0x20\n      dup2\n      dup4\n      sub\n      sub\n      dup2\n      mstore\n      swap1\n      0x40\n      mstore\n        /* \"contracts/CarreraCoches/principal.sol\":3011:3086  keccak256(abi.encodePacked(block.timestamp, listaCoches.length, randNonce)) */\n      dup1\n      mload\n      swap1\n      0x20\n      add\n      keccak256\n        /* \"contracts/CarreraCoches/principal.sol\":3003:3087  uint256(keccak256(abi.encodePacked(block.timestamp, listaCoches.length, randNonce))) */\n      0x00\n      shr\n        /* \"contracts/CarreraCoches/principal.sol\":3003:3108  uint256(keccak256(abi.encodePacked(block.timestamp, listaCoches.length, randNonce))) % listaCoches.length */\n      tag_93\n      swap2\n      swap1\n      tag_94\n      jump\t// in\n    tag_93:\n        /* \"contracts/CarreraCoches/principal.sol\":2987:3108  uint256 rival = uint256(keccak256(abi.encodePacked(block.timestamp, listaCoches.length, randNonce))) % listaCoches.length */\n      swap1\n      pop\n        /* \"contracts/CarreraCoches/principal.sol\":3151:3160  randNonce */\n      0x01\n      0x00\n        /* \"contracts/CarreraCoches/principal.sol\":3151:3162  randNonce++ */\n      dup2\n      sload\n      dup1\n      swap3\n      swap2\n      swap1\n      tag_95\n      swap1\n      tag_84\n      jump\t// in\n    tag_95:\n      swap2\n      swap1\n      pop\n      sstore\n      pop\n        /* \"contracts/CarreraCoches/principal.sol\":3173:3184  uint numero */\n      0x00\n        /* \"contracts/CarreraCoches/principal.sol\":3187:3188  2 */\n      0x02\n        /* \"contracts/CarreraCoches/principal.sol\":3173:3188  uint numero = 2 */\n      swap1\n      pop\n        /* \"contracts/CarreraCoches/principal.sol\":3199:3214  uint256 ganador */\n      0x00\n        /* \"contracts/CarreraCoches/principal.sol\":3292:3298  numero */\n      dup2\n        /* \"contracts/CarreraCoches/principal.sol\":3252:3267  block.timestamp */\n      timestamp\n        /* \"contracts/CarreraCoches/principal.sol\":3269:3275  numero */\n      dup4\n        /* \"contracts/CarreraCoches/principal.sol\":3277:3286  randNonce */\n      sload(0x01)\n        /* \"contracts/CarreraCoches/principal.sol\":3235:3287  abi.encodePacked(block.timestamp, numero, randNonce) */\n      add(0x20, mload(0x40))\n      tag_96\n      swap4\n      swap3\n      swap2\n      swap1\n      tag_92\n      jump\t// in\n    tag_96:\n      mload(0x40)\n      0x20\n      dup2\n      dup4\n      sub\n      sub\n      dup2\n      mstore\n      swap1\n      0x40\n      mstore\n        /* \"contracts/CarreraCoches/principal.sol\":3225:3288  keccak256(abi.encodePacked(block.timestamp, numero, randNonce)) */\n      dup1\n      mload\n      swap1\n      0x20\n      add\n      keccak256\n        /* \"contracts/CarreraCoches/principal.sol\":3217:3289  uint256(keccak256(abi.encodePacked(block.timestamp, numero, randNonce))) */\n      0x00\n      shr\n        /* \"contracts/CarreraCoches/principal.sol\":3217:3298  uint256(keccak256(abi.encodePacked(block.timestamp, numero, randNonce))) % numero */\n      tag_97\n      swap2\n      swap1\n      tag_94\n      jump\t// in\n    tag_97:\n        /* \"contracts/CarreraCoches/principal.sol\":3199:3298  uint256 ganador = uint256(keccak256(abi.encodePacked(block.timestamp, numero, randNonce))) % numero */\n      swap1\n      pop\n        /* \"contracts/CarreraCoches/principal.sol\":3315:3321  uint i */\n      0x00\n        /* \"contracts/CarreraCoches/principal.sol\":3311:3958  for(uint i = 0; i < listaCoches.length; i++){\r... */\n    tag_98:\n        /* \"contracts/CarreraCoches/principal.sol\":3331:3342  listaCoches */\n      0x04\n        /* \"contracts/CarreraCoches/principal.sol\":3331:3349  listaCoches.length */\n      dup1\n      sload\n      swap1\n      pop\n        /* \"contracts/CarreraCoches/principal.sol\":3327:3328  i */\n      dup2\n        /* \"contracts/CarreraCoches/principal.sol\":3327:3349  i < listaCoches.length */\n      lt\n        /* \"contracts/CarreraCoches/principal.sol\":3311:3958  for(uint i = 0; i < listaCoches.length; i++){\r... */\n      iszero\n      tag_99\n      jumpi\n        /* \"contracts/CarreraCoches/principal.sol\":3491:3502  listaCoches */\n      0x04\n        /* \"contracts/CarreraCoches/principal.sol\":3503:3504  i */\n      dup2\n        /* \"contracts/CarreraCoches/principal.sol\":3491:3505  listaCoches[i] */\n      dup2\n      sload\n      dup2\n      lt\n      tag_101\n      jumpi\n      tag_102\n      tag_103\n      jump\t// in\n    tag_102:\n    tag_101:\n      swap1\n      0x00\n      mstore\n      keccak256(0x00, 0x20)\n      swap1\n      0x08\n      mul\n      add\n        /* \"contracts/CarreraCoches/principal.sol\":3491:3514  listaCoches[i].idPiloto */\n      0x00\n      add\n      0x00\n      swap1\n      sload\n      swap1\n      0x0100\n      exp\n      swap1\n      div\n      0xffffffffffffffffffffffffffffffffffffffff\n      and\n        /* \"contracts/CarreraCoches/principal.sol\":3477:3514  msg.sender == listaCoches[i].idPiloto */\n      0xffffffffffffffffffffffffffffffffffffffff\n      and\n        /* \"contracts/CarreraCoches/principal.sol\":3477:3487  msg.sender */\n      caller\n        /* \"contracts/CarreraCoches/principal.sol\":3477:3514  msg.sender == listaCoches[i].idPiloto */\n      0xffffffffffffffffffffffffffffffffffffffff\n      and\n      eq\n        /* \"contracts/CarreraCoches/principal.sol\":3473:3947  if (msg.sender == listaCoches[i].idPiloto) {\r... */\n      iszero\n      tag_105\n      jumpi\n        /* \"contracts/CarreraCoches/principal.sol\":3549:3550  0 */\n      0x00\n        /* \"contracts/CarreraCoches/principal.sol\":3538:3545  ganador */\n      dup3\n        /* \"contracts/CarreraCoches/principal.sol\":3538:3550  ganador == 0 */\n      eq\n        /* \"contracts/CarreraCoches/principal.sol\":3535:3843  if(ganador == 0){\r... */\n      iszero\n      tag_106\n      jumpi\n        /* \"contracts/CarreraCoches/principal.sol\":3574:3583  balance() */\n      tag_107\n        /* \"contracts/CarreraCoches/principal.sol\":3574:3581  balance */\n      tag_108\n        /* \"contracts/CarreraCoches/principal.sol\":3574:3583  balance() */\n      jump\t// in\n    tag_107:\n        /* \"contracts/CarreraCoches/principal.sol\":3606:3625  return \"Has ganado\" */\n      mload(0x40)\n      dup1\n      0x40\n      add\n      0x40\n      mstore\n      dup1\n      0x0a\n      dup2\n      mstore\n      0x20\n      add\n      0x4861732067616e61646f00000000000000000000000000000000000000000000\n      dup2\n      mstore\n      pop\n      swap5\n      pop\n      pop\n      pop\n      pop\n      pop\n      jump(tag_88)\n        /* \"contracts/CarreraCoches/principal.sol\":3535:3843  if(ganador == 0){\r... */\n    tag_106:\n        /* \"contracts/CarreraCoches/principal.sol\":3732:3780  mostrarResultado(\"El coche ganador es: \", rival) */\n      0xa28482eec3136a2461c6c30c08f71ba279c6c51a2d9c7bea4e50d6d2632f3896\n        /* \"contracts/CarreraCoches/principal.sol\":3774:3779  rival */\n      dup5\n        /* \"contracts/CarreraCoches/principal.sol\":3732:3780  mostrarResultado(\"El coche ganador es: \", rival) */\n      mload(0x40)\n      tag_114\n      swap2\n      swap1\n      tag_115\n      jump\t// in\n    tag_114:\n      mload(0x40)\n      dup1\n      swap2\n      sub\n      swap1\n      log1\n        /* \"contracts/CarreraCoches/principal.sol\":3803:3823  return \"Has perdido\" */\n      mload(0x40)\n      dup1\n      0x40\n      add\n      0x40\n      mstore\n      dup1\n      0x0b\n      dup2\n      mstore\n      0x20\n      add\n      0x486173207065726469646f000000000000000000000000000000000000000000\n      dup2\n      mstore\n      pop\n      swap5\n      pop\n      pop\n      pop\n      pop\n      pop\n      jump(tag_88)\n        /* \"contracts/CarreraCoches/principal.sol\":3473:3947  if (msg.sender == listaCoches[i].idPiloto) {\r... */\n    tag_105:\n        /* \"contracts/CarreraCoches/principal.sol\":3351:3354  i++ */\n      dup1\n      dup1\n      tag_125\n      swap1\n      tag_84\n      jump\t// in\n    tag_125:\n      swap2\n      pop\n      pop\n        /* \"contracts/CarreraCoches/principal.sol\":3311:3958  for(uint i = 0; i < listaCoches.length; i++){\r... */\n      jump(tag_98)\n    tag_99:\n      pop\n        /* \"contracts/CarreraCoches/principal.sol\":2863:3964  {\r... */\n      pop\n      pop\n      pop\n        /* \"contracts/CarreraCoches/principal.sol\":2788:3964  function Apostar(uint dineroApostar) public payable returns(string memory) {\r... */\n    tag_88:\n      swap2\n      swap1\n      pop\n      jump\t// out\n        /* \"contracts/CarreraCoches/level.sol\":236:522  function cambiarCoche(uint _coche, string memory _newModelo, string memory _newMarca) external nivelAlcanzado(10, _coche) {\r... */\n    tag_37:\n        /* \"contracts/CarreraCoches/level.sol\":346:348  10 */\n      0x0a\n        /* \"contracts/CarreraCoches/level.sol\":350:356  _coche */\n      dup4\n        /* \"contracts/CarreraCoches/level.sol\":201:207  _nivel */\n      dup2\n        /* \"contracts/CarreraCoches/level.sol\":172:183  listaCoches */\n      0x04\n        /* \"contracts/CarreraCoches/level.sol\":184:190  _coche */\n      dup3\n        /* \"contracts/CarreraCoches/level.sol\":172:191  listaCoches[_coche] */\n      dup2\n      sload\n      dup2\n      lt\n      tag_127\n      jumpi\n      tag_128\n      tag_103\n      jump\t// in\n    tag_128:\n    tag_127:\n      swap1\n      0x00\n      mstore\n      keccak256(0x00, 0x20)\n      swap1\n      0x08\n      mul\n      add\n        /* \"contracts/CarreraCoches/level.sol\":172:197  listaCoches[_coche].nivel */\n      0x07\n      add\n      0x00\n      swap1\n      sload\n      swap1\n      0x0100\n      exp\n      swap1\n      div\n      0xffffffff\n      and\n        /* \"contracts/CarreraCoches/level.sol\":172:207  listaCoches[_coche].nivel >= _nivel */\n      0xffffffff\n      and\n      lt\n      iszero\n        /* \"contracts/CarreraCoches/level.sol\":164:208  require(listaCoches[_coche].nivel >= _nivel) */\n      tag_130\n      jumpi\n      0x00\n      dup1\n      revert\n    tag_130:\n        /* \"contracts/CarreraCoches/level.sol\":389:407  cocheDePropietario */\n      0x05\n        /* \"contracts/CarreraCoches/level.sol\":389:415  cocheDePropietario[_coche] */\n      0x00\n        /* \"contracts/CarreraCoches/level.sol\":408:414  _coche */\n      dup7\n        /* \"contracts/CarreraCoches/level.sol\":389:415  cocheDePropietario[_coche] */\n      dup2\n      mstore\n      0x20\n      add\n      swap1\n      dup2\n      mstore\n      0x20\n      add\n      0x00\n      keccak256\n      0x00\n      swap1\n      sload\n      swap1\n      0x0100\n      exp\n      swap1\n      div\n      0xffffffffffffffffffffffffffffffffffffffff\n      and\n        /* \"contracts/CarreraCoches/level.sol\":377:415  msg.sender==cocheDePropietario[_coche] */\n      0xffffffffffffffffffffffffffffffffffffffff\n      and\n        /* \"contracts/CarreraCoches/level.sol\":377:387  msg.sender */\n      caller\n        /* \"contracts/CarreraCoches/level.sol\":377:415  msg.sender==cocheDePropietario[_coche] */\n      0xffffffffffffffffffffffffffffffffffffffff\n      and\n      eq\n        /* \"contracts/CarreraCoches/level.sol\":369:416  require(msg.sender==cocheDePropietario[_coche]) */\n      tag_132\n      jumpi\n      0x00\n      dup1\n      revert\n    tag_132:\n        /* \"contracts/CarreraCoches/level.sol\":456:466  _newModelo */\n      dup4\n        /* \"contracts/CarreraCoches/level.sol\":427:438  listaCoches */\n      0x04\n        /* \"contracts/CarreraCoches/level.sol\":439:445  _coche */\n      dup7\n        /* \"contracts/CarreraCoches/level.sol\":427:446  listaCoches[_coche] */\n      dup2\n      sload\n      dup2\n      lt\n      tag_133\n      jumpi\n      tag_134\n      tag_103\n      jump\t// in\n    tag_134:\n    tag_133:\n      swap1\n      0x00\n      mstore\n      keccak256(0x00, 0x20)\n      swap1\n      0x08\n      mul\n      add\n        /* \"contracts/CarreraCoches/level.sol\":427:453  listaCoches[_coche].modelo */\n      0x01\n      add\n        /* \"contracts/CarreraCoches/level.sol\":427:466  listaCoches[_coche].modelo = _newModelo */\n      swap1\n      dup1\n      mload\n      swap1\n      0x20\n      add\n      swap1\n      tag_136\n      swap3\n      swap2\n      swap1\n      tag_80\n      jump\t// in\n    tag_136:\n      pop\n        /* \"contracts/CarreraCoches/level.sol\":505:514  _newMarca */\n      dup3\n        /* \"contracts/CarreraCoches/level.sol\":477:488  listaCoches */\n      0x04\n        /* \"contracts/CarreraCoches/level.sol\":489:495  _coche */\n      dup7\n        /* \"contracts/CarreraCoches/level.sol\":477:496  listaCoches[_coche] */\n      dup2\n      sload\n      dup2\n      lt\n      tag_137\n      jumpi\n      tag_138\n      tag_103\n      jump\t// in\n    tag_138:\n    tag_137:\n      swap1\n      0x00\n      mstore\n      keccak256(0x00, 0x20)\n      swap1\n      0x08\n      mul\n      add\n        /* \"contracts/CarreraCoches/level.sol\":477:502  listaCoches[_coche].marca */\n      0x02\n      add\n        /* \"contracts/CarreraCoches/level.sol\":477:514  listaCoches[_coche].marca = _newMarca */\n      swap1\n      dup1\n      mload\n      swap1\n      0x20\n      add\n      swap1\n      tag_140\n      swap3\n      swap2\n      swap1\n      tag_80\n      jump\t// in\n    tag_140:\n      pop\n        /* \"contracts/CarreraCoches/level.sol\":236:522  function cambiarCoche(uint _coche, string memory _newModelo, string memory _newMarca) external nivelAlcanzado(10, _coche) {\r... */\n      pop\n      pop\n      pop\n      pop\n      pop\n      jump\t// out\n        /* \"contracts/CarreraCoches/ownable.sol\":1720:1823  function renounceOwnership() public virtual onlyOwner {\r... */\n    tag_40:\n        /* \"contracts/CarreraCoches/ownable.sol\":1300:1312  _msgSender() */\n      tag_142\n        /* \"contracts/CarreraCoches/ownable.sol\":1300:1310  _msgSender */\n      tag_143\n        /* \"contracts/CarreraCoches/ownable.sol\":1300:1312  _msgSender() */\n      jump\t// in\n    tag_142:\n        /* \"contracts/CarreraCoches/ownable.sol\":1289:1312  owner() == _msgSender() */\n      0xffffffffffffffffffffffffffffffffffffffff\n      and\n        /* \"contracts/CarreraCoches/ownable.sol\":1289:1296  owner() */\n      tag_144\n        /* \"contracts/CarreraCoches/ownable.sol\":1289:1294  owner */\n      tag_49\n        /* \"contracts/CarreraCoches/ownable.sol\":1289:1296  owner() */\n      jump\t// in\n    tag_144:\n        /* \"contracts/CarreraCoches/ownable.sol\":1289:1312  owner() == _msgSender() */\n      0xffffffffffffffffffffffffffffffffffffffff\n      and\n      eq\n        /* \"contracts/CarreraCoches/ownable.sol\":1281:1349  require(owner() == _msgSender(), \"Ownable: caller is not the owner\") */\n      tag_145\n      jumpi\n      mload(0x40)\n      0x08c379a000000000000000000000000000000000000000000000000000000000\n      dup2\n      mstore\n      0x04\n      add\n      tag_146\n      swap1\n      tag_147\n      jump\t// in\n    tag_146:\n      mload(0x40)\n      dup1\n      swap2\n      sub\n      swap1\n      revert\n    tag_145:\n        /* \"contracts/CarreraCoches/ownable.sol\":1785:1815  _transferOwnership(address(0)) */\n      tag_149\n        /* \"contracts/CarreraCoches/ownable.sol\":1812:1813  0 */\n      0x00\n        /* \"contracts/CarreraCoches/ownable.sol\":1785:1803  _transferOwnership */\n      tag_150\n        /* \"contracts/CarreraCoches/ownable.sol\":1785:1815  _transferOwnership(address(0)) */\n      jump\t// in\n    tag_149:\n        /* \"contracts/CarreraCoches/ownable.sol\":1720:1823  function renounceOwnership() public virtual onlyOwner {\r... */\n      jump\t// out\n        /* \"contracts/CarreraCoches/principal.sol\":758:809  mapping (uint => address) public cocheDePropietario */\n    tag_44:\n      mstore(0x20, 0x05)\n      dup1\n      0x00\n      mstore\n      keccak256(0x00, 0x40)\n      0x00\n      swap2\n      pop\n      sload\n      swap1\n      0x0100\n      exp\n      swap1\n      div\n      0xffffffffffffffffffffffffffffffffffffffff\n      and\n      dup2\n      jump\t// out\n        /* \"contracts/CarreraCoches/ownable.sol\":1069:1156  function owner() public view virtual returns (address) {\r... */\n    tag_49:\n        /* \"contracts/CarreraCoches/ownable.sol\":1115:1122  address */\n      0x00\n        /* \"contracts/CarreraCoches/ownable.sol\":1142:1148  _owner */\n      dup1\n      0x00\n      swap1\n      sload\n      swap1\n      0x0100\n      exp\n      swap1\n      div\n      0xffffffffffffffffffffffffffffffffffffffff\n      and\n        /* \"contracts/CarreraCoches/ownable.sol\":1135:1148  return _owner */\n      swap1\n      pop\n        /* \"contracts/CarreraCoches/ownable.sol\":1069:1156  function owner() public view virtual returns (address) {\r... */\n      swap1\n      jump\t// out\n        /* \"contracts/CarreraCoches/principal.sol\":537:563  Coche[] public listaCoches */\n    tag_54:\n      0x04\n      dup2\n      dup2\n      sload\n      dup2\n      lt\n      tag_152\n      jumpi\n      0x00\n      dup1\n      revert\n    tag_152:\n      swap1\n      0x00\n      mstore\n      keccak256(0x00, 0x20)\n      swap1\n      0x08\n      mul\n      add\n      0x00\n      swap2\n      pop\n      swap1\n      pop\n      dup1\n      0x00\n      add\n      0x00\n      swap1\n      sload\n      swap1\n      0x0100\n      exp\n      swap1\n      div\n      0xffffffffffffffffffffffffffffffffffffffff\n      and\n      swap1\n      dup1\n      0x01\n      add\n      dup1\n      sload\n      tag_154\n      swap1\n      tag_155\n      jump\t// in\n    tag_154:\n      dup1\n      0x1f\n      add\n      0x20\n      dup1\n      swap2\n      div\n      mul\n      0x20\n      add\n      mload(0x40)\n      swap1\n      dup2\n      add\n      0x40\n      mstore\n      dup1\n      swap3\n      swap2\n      swap1\n      dup2\n      dup2\n      mstore\n      0x20\n      add\n      dup3\n      dup1\n      sload\n      tag_156\n      swap1\n      tag_155\n      jump\t// in\n    tag_156:\n      dup1\n      iszero\n      tag_157\n      jumpi\n      dup1\n      0x1f\n      lt\n      tag_158\n      jumpi\n      0x0100\n      dup1\n      dup4\n      sload\n      div\n      mul\n      dup4\n      mstore\n      swap2\n      0x20\n      add\n      swap2\n      jump(tag_157)\n    tag_158:\n      dup3\n      add\n      swap2\n      swap1\n      0x00\n      mstore\n      keccak256(0x00, 0x20)\n      swap1\n    tag_159:\n      dup2\n      sload\n      dup2\n      mstore\n      swap1\n      0x01\n      add\n      swap1\n      0x20\n      add\n      dup1\n      dup4\n      gt\n      tag_159\n      jumpi\n      dup3\n      swap1\n      sub\n      0x1f\n      and\n      dup3\n      add\n      swap2\n    tag_157:\n      pop\n      pop\n      pop\n      pop\n      pop\n      swap1\n      dup1\n      0x02\n      add\n      dup1\n      sload\n      tag_160\n      swap1\n      tag_155\n      jump\t// in\n    tag_160:\n      dup1\n      0x1f\n      add\n      0x20\n      dup1\n      swap2\n      div\n      mul\n      0x20\n      add\n      mload(0x40)\n      swap1\n      dup2\n      add\n      0x40\n      mstore\n      dup1\n      swap3\n      swap2\n      swap1\n      dup2\n      dup2\n      mstore\n      0x20\n      add\n      dup3\n      dup1\n      sload\n      tag_161\n      swap1\n      tag_155\n      jump\t// in\n    tag_161:\n      dup1\n      iszero\n      tag_162\n      jumpi\n      dup1\n      0x1f\n      lt\n      tag_163\n      jumpi\n      0x0100\n      dup1\n      dup4\n      sload\n      div\n      mul\n      dup4\n      mstore\n      swap2\n      0x20\n      add\n      swap2\n      jump(tag_162)\n    tag_163:\n      dup3\n      add\n      swap2\n      swap1\n      0x00\n      mstore\n      keccak256(0x00, 0x20)\n      swap1\n    tag_164:\n      dup2\n      sload\n      dup2\n      mstore\n      swap1\n      0x01\n      add\n      swap1\n      0x20\n      add\n      dup1\n      dup4\n      gt\n      tag_164\n      jumpi\n      dup3\n      swap1\n      sub\n      0x1f\n      and\n      dup3\n      add\n      swap2\n    tag_162:\n      pop\n      pop\n      pop\n      pop\n      pop\n      swap1\n      dup1\n      0x03\n      add\n      dup1\n      sload\n      tag_165\n      swap1\n      tag_155\n      jump\t// in\n    tag_165:\n      dup1\n      0x1f\n      add\n      0x20\n      dup1\n      swap2\n      div\n      mul\n      0x20\n      add\n      mload(0x40)\n      swap1\n      dup2\n      add\n      0x40\n      mstore\n      dup1\n      swap3\n      swap2\n      swap1\n      dup2\n      dup2\n      mstore\n      0x20\n      add\n      dup3\n      dup1\n      sload\n      tag_166\n      swap1\n      tag_155\n      jump\t// in\n    tag_166:\n      dup1\n      iszero\n      tag_167\n      jumpi\n      dup1\n      0x1f\n      lt\n      tag_168\n      jumpi\n      0x0100\n      dup1\n      dup4\n      sload\n      div\n      mul\n      dup4\n      mstore\n      swap2\n      0x20\n      add\n      swap2\n      jump(tag_167)\n    tag_168:\n      dup3\n      add\n      swap2\n      swap1\n      0x00\n      mstore\n      keccak256(0x00, 0x20)\n      swap1\n    tag_169:\n      dup2\n      sload\n      dup2\n      mstore\n      swap1\n      0x01\n      add\n      swap1\n      0x20\n      add\n      dup1\n      dup4\n      gt\n      tag_169\n      jumpi\n      dup3\n      swap1\n      sub\n      0x1f\n      and\n      dup3\n      add\n      swap2\n    tag_167:\n      pop\n      pop\n      pop\n      pop\n      pop\n      swap1\n      dup1\n      0x04\n      add\n      sload\n      swap1\n      dup1\n      0x05\n      add\n      sload\n      swap1\n      dup1\n      0x06\n      add\n      sload\n      swap1\n      dup1\n      0x07\n      add\n      0x00\n      swap1\n      sload\n      swap1\n      0x0100\n      exp\n      swap1\n      div\n      0xffffffff\n      and\n      swap1\n      pop\n      dup9\n      jump\t// out\n        /* \"contracts/CarreraCoches/principal.sol\":2108:2451  function verCochePropietario(address _propietario) external returns(uint[] memory){\r... */\n    tag_60:\n        /* \"contracts/CarreraCoches/principal.sol\":2176:2189  uint[] memory */\n      0x60\n        /* \"contracts/CarreraCoches/principal.sol\":2201:2223  string[] memory result */\n      dup1\n        /* \"contracts/CarreraCoches/principal.sol\":2238:2244  uint i */\n      0x00\n        /* \"contracts/CarreraCoches/principal.sol\":2234:2444  for(uint i = 0; i < listaCoches.length; i++){\r... */\n    tag_171:\n        /* \"contracts/CarreraCoches/principal.sol\":2254:2265  listaCoches */\n      0x04\n        /* \"contracts/CarreraCoches/principal.sol\":2254:2272  listaCoches.length */\n      dup1\n      sload\n      swap1\n      pop\n        /* \"contracts/CarreraCoches/principal.sol\":2250:2251  i */\n      dup2\n        /* \"contracts/CarreraCoches/principal.sol\":2250:2272  i < listaCoches.length */\n      lt\n        /* \"contracts/CarreraCoches/principal.sol\":2234:2444  for(uint i = 0; i < listaCoches.length; i++){\r... */\n      iszero\n      tag_172\n      jumpi\n        /* \"contracts/CarreraCoches/principal.sol\":2319:2331  _propietario */\n      dup4\n        /* \"contracts/CarreraCoches/principal.sol\":2296:2331  cocheDePropietario[i]==_propietario */\n      0xffffffffffffffffffffffffffffffffffffffff\n      and\n        /* \"contracts/CarreraCoches/principal.sol\":2296:2314  cocheDePropietario */\n      0x05\n        /* \"contracts/CarreraCoches/principal.sol\":2296:2317  cocheDePropietario[i] */\n      0x00\n        /* \"contracts/CarreraCoches/principal.sol\":2315:2316  i */\n      dup4\n        /* \"contracts/CarreraCoches/principal.sol\":2296:2317  cocheDePropietario[i] */\n      dup2\n      mstore\n      0x20\n      add\n      swap1\n      dup2\n      mstore\n      0x20\n      add\n      0x00\n      keccak256\n      0x00\n      swap1\n      sload\n      swap1\n      0x0100\n      exp\n      swap1\n      div\n      0xffffffffffffffffffffffffffffffffffffffff\n      and\n        /* \"contracts/CarreraCoches/principal.sol\":2296:2331  cocheDePropietario[i]==_propietario */\n      0xffffffffffffffffffffffffffffffffffffffff\n      and\n      eq\n        /* \"contracts/CarreraCoches/principal.sol\":2293:2433  if(cocheDePropietario[i]==_propietario){\r... */\n      iszero\n      tag_174\n      jumpi\n        /* \"contracts/CarreraCoches/principal.sol\":2356:2417  cochePropietario(listaCoches[i].marca, listaCoches[i].modelo) */\n      0x96408510f58a52b0cfe536e046b25664fa36d8122620ec608c1767b45aa4f03c\n        /* \"contracts/CarreraCoches/principal.sol\":2373:2384  listaCoches */\n      0x04\n        /* \"contracts/CarreraCoches/principal.sol\":2385:2386  i */\n      dup3\n        /* \"contracts/CarreraCoches/principal.sol\":2373:2387  listaCoches[i] */\n      dup2\n      sload\n      dup2\n      lt\n      tag_175\n      jumpi\n      tag_176\n      tag_103\n      jump\t// in\n    tag_176:\n    tag_175:\n      swap1\n      0x00\n      mstore\n      keccak256(0x00, 0x20)\n      swap1\n      0x08\n      mul\n      add\n        /* \"contracts/CarreraCoches/principal.sol\":2373:2393  listaCoches[i].marca */\n      0x02\n      add\n        /* \"contracts/CarreraCoches/principal.sol\":2395:2406  listaCoches */\n      0x04\n        /* \"contracts/CarreraCoches/principal.sol\":2407:2408  i */\n      dup4\n        /* \"contracts/CarreraCoches/principal.sol\":2395:2409  listaCoches[i] */\n      dup2\n      sload\n      dup2\n      lt\n      tag_178\n      jumpi\n      tag_179\n      tag_103\n      jump\t// in\n    tag_179:\n    tag_178:\n      swap1\n      0x00\n      mstore\n      keccak256(0x00, 0x20)\n      swap1\n      0x08\n      mul\n      add\n        /* \"contracts/CarreraCoches/principal.sol\":2395:2416  listaCoches[i].modelo */\n      0x01\n      add\n        /* \"contracts/CarreraCoches/principal.sol\":2356:2417  cochePropietario(listaCoches[i].marca, listaCoches[i].modelo) */\n      mload(0x40)\n      tag_181\n      swap3\n      swap2\n      swap1\n      tag_182\n      jump\t// in\n    tag_181:\n      mload(0x40)\n      dup1\n      swap2\n      sub\n      swap1\n      log1\n        /* \"contracts/CarreraCoches/principal.sol\":2293:2433  if(cocheDePropietario[i]==_propietario){\r... */\n    tag_174:\n        /* \"contracts/CarreraCoches/principal.sol\":2274:2277  i++ */\n      dup1\n      dup1\n      tag_183\n      swap1\n      tag_84\n      jump\t// in\n    tag_183:\n      swap2\n      pop\n      pop\n        /* \"contracts/CarreraCoches/principal.sol\":2234:2444  for(uint i = 0; i < listaCoches.length; i++){\r... */\n      jump(tag_171)\n    tag_172:\n      pop\n        /* \"contracts/CarreraCoches/principal.sol\":2190:2451  {\r... */\n      pop\n        /* \"contracts/CarreraCoches/principal.sol\":2108:2451  function verCochePropietario(address _propietario) external returns(uint[] memory){\r... */\n      swap2\n      swap1\n      pop\n      jump\t// out\n        /* \"contracts/CarreraCoches/principal.sol\":1881:2100  function numeroAleatorio() public returns (uint256) {\r... */\n    tag_65:\n        /* \"contracts/CarreraCoches/principal.sol\":1924:1931  uint256 */\n      0x00\n        /* \"contracts/CarreraCoches/principal.sol\":1944:1955  uint numero */\n      dup1\n        /* \"contracts/CarreraCoches/principal.sol\":1958:1959  2 */\n      0x02\n        /* \"contracts/CarreraCoches/principal.sol\":1944:1959  uint numero = 2 */\n      swap1\n      pop\n        /* \"contracts/CarreraCoches/principal.sol\":1970:1984  uint256 result */\n      0x00\n        /* \"contracts/CarreraCoches/principal.sol\":2062:2068  numero */\n      dup2\n        /* \"contracts/CarreraCoches/principal.sol\":2022:2037  block.timestamp */\n      timestamp\n        /* \"contracts/CarreraCoches/principal.sol\":2039:2045  numero */\n      dup4\n        /* \"contracts/CarreraCoches/principal.sol\":2047:2056  randNonce */\n      sload(0x01)\n        /* \"contracts/CarreraCoches/principal.sol\":2005:2057  abi.encodePacked(block.timestamp, numero, randNonce) */\n      add(0x20, mload(0x40))\n      tag_185\n      swap4\n      swap3\n      swap2\n      swap1\n      tag_92\n      jump\t// in\n    tag_185:\n      mload(0x40)\n      0x20\n      dup2\n      dup4\n      sub\n      sub\n      dup2\n      mstore\n      swap1\n      0x40\n      mstore\n        /* \"contracts/CarreraCoches/principal.sol\":1995:2058  keccak256(abi.encodePacked(block.timestamp, numero, randNonce)) */\n      dup1\n      mload\n      swap1\n      0x20\n      add\n      keccak256\n        /* \"contracts/CarreraCoches/principal.sol\":1987:2059  uint256(keccak256(abi.encodePacked(block.timestamp, numero, randNonce))) */\n      0x00\n      shr\n        /* \"contracts/CarreraCoches/principal.sol\":1987:2068  uint256(keccak256(abi.encodePacked(block.timestamp, numero, randNonce))) % numero */\n      tag_186\n      swap2\n      swap1\n      tag_94\n      jump\t// in\n    tag_186:\n        /* \"contracts/CarreraCoches/principal.sol\":1970:2068  uint256 result = uint256(keccak256(abi.encodePacked(block.timestamp, numero, randNonce))) % numero */\n      swap1\n      pop\n        /* \"contracts/CarreraCoches/principal.sol\":2086:2092  result */\n      dup1\n        /* \"contracts/CarreraCoches/principal.sol\":2079:2092  return result */\n      swap3\n      pop\n      pop\n      pop\n        /* \"contracts/CarreraCoches/principal.sol\":1881:2100  function numeroAleatorio() public returns (uint256) {\r... */\n      swap1\n      jump\t// out\n        /* \"contracts/CarreraCoches/ownable.sol\":1978:2179  function transferOwnership(address newOwner) public virtual onlyOwner {\r... */\n    tag_70:\n        /* \"contracts/CarreraCoches/ownable.sol\":1300:1312  _msgSender() */\n      tag_188\n        /* \"contracts/CarreraCoches/ownable.sol\":1300:1310  _msgSender */\n      tag_143\n        /* \"contracts/CarreraCoches/ownable.sol\":1300:1312  _msgSender() */\n      jump\t// in\n    tag_188:\n        /* \"contracts/CarreraCoches/ownable.sol\":1289:1312  owner() == _msgSender() */\n      0xffffffffffffffffffffffffffffffffffffffff\n      and\n        /* \"contracts/CarreraCoches/ownable.sol\":1289:1296  owner() */\n      tag_189\n        /* \"contracts/CarreraCoches/ownable.sol\":1289:1294  owner */\n      tag_49\n        /* \"contracts/CarreraCoches/ownable.sol\":1289:1296  owner() */\n      jump\t// in\n    tag_189:\n        /* \"contracts/CarreraCoches/ownable.sol\":1289:1312  owner() == _msgSender() */\n      0xffffffffffffffffffffffffffffffffffffffff\n      and\n      eq\n        /* \"contracts/CarreraCoches/ownable.sol\":1281:1349  require(owner() == _msgSender(), \"Ownable: caller is not the owner\") */\n      tag_190\n      jumpi\n      mload(0x40)\n      0x08c379a000000000000000000000000000000000000000000000000000000000\n      dup2\n      mstore\n      0x04\n      add\n      tag_191\n      swap1\n      tag_147\n      jump\t// in\n    tag_191:\n      mload(0x40)\n      dup1\n      swap2\n      sub\n      swap1\n      revert\n    tag_190:\n        /* \"contracts/CarreraCoches/ownable.sol\":2087:2088  0 */\n      0x00\n        /* \"contracts/CarreraCoches/ownable.sol\":2067:2089  newOwner != address(0) */\n      0xffffffffffffffffffffffffffffffffffffffff\n      and\n        /* \"contracts/CarreraCoches/ownable.sol\":2067:2075  newOwner */\n      dup2\n        /* \"contracts/CarreraCoches/ownable.sol\":2067:2089  newOwner != address(0) */\n      0xffffffffffffffffffffffffffffffffffffffff\n      and\n      eq\n      iszero\n        /* \"contracts/CarreraCoches/ownable.sol\":2059:2132  require(newOwner != address(0), \"Ownable: new owner is the zero address\") */\n      tag_193\n      jumpi\n      mload(0x40)\n      0x08c379a000000000000000000000000000000000000000000000000000000000\n      dup2\n      mstore\n      0x04\n      add\n      tag_194\n      swap1\n      tag_195\n      jump\t// in\n    tag_194:\n      mload(0x40)\n      dup1\n      swap2\n      sub\n      swap1\n      revert\n    tag_193:\n        /* \"contracts/CarreraCoches/ownable.sol\":2143:2171  _transferOwnership(newOwner) */\n      tag_196\n        /* \"contracts/CarreraCoches/ownable.sol\":2162:2170  newOwner */\n      dup2\n        /* \"contracts/CarreraCoches/ownable.sol\":2143:2161  _transferOwnership */\n      tag_150\n        /* \"contracts/CarreraCoches/ownable.sol\":2143:2171  _transferOwnership(newOwner) */\n      jump\t// in\n    tag_196:\n        /* \"contracts/CarreraCoches/ownable.sol\":1978:2179  function transferOwnership(address newOwner) public virtual onlyOwner {\r... */\n      pop\n      jump\t// out\n        /* \"contracts/CarreraCoches/principal.sol\":4021:4200  function balance() private {\r... */\n    tag_108:\n        /* \"contracts/CarreraCoches/principal.sol\":4068:4078  msg.sender */\n      caller\n        /* \"contracts/CarreraCoches/principal.sol\":4059:4088  payable (msg.sender).transfer */\n      0xffffffffffffffffffffffffffffffffffffffff\n      and\n        /* \"contracts/CarreraCoches/principal.sol\":4059:4115  payable (msg.sender).transfer((address(this).balance)*2) */\n      0x08fc\n        /* \"contracts/CarreraCoches/principal.sol\":4113:4114  2 */\n      0x02\n        /* \"contracts/CarreraCoches/principal.sol\":4090:4111  address(this).balance */\n      selfbalance\n        /* \"contracts/CarreraCoches/principal.sol\":4089:4114  (address(this).balance)*2 */\n      tag_198\n      swap2\n      swap1\n      tag_199\n      jump\t// in\n    tag_198:\n        /* \"contracts/CarreraCoches/principal.sol\":4059:4115  payable (msg.sender).transfer((address(this).balance)*2) */\n      swap1\n      dup2\n      iszero\n      mul\n      swap1\n      mload(0x40)\n      0x00\n      mload(0x40)\n      dup1\n      dup4\n      sub\n      dup2\n      dup6\n      dup9\n      dup9\n      call\n      swap4\n      pop\n      pop\n      pop\n      pop\n      iszero\n      dup1\n      iszero\n      tag_201\n      jumpi\n      returndatasize\n      0x00\n      dup1\n      returndatacopy\n      revert(0x00, returndatasize)\n    tag_201:\n      pop\n        /* \"contracts/CarreraCoches/principal.sol\":4131:4192  mostrarResultado(\"Has ganado: \", ((address(this).balance)*2)) */\n      0xa28482eec3136a2461c6c30c08f71ba279c6c51a2d9c7bea4e50d6d2632f3896\n        /* \"contracts/CarreraCoches/principal.sol\":4189:4190  2 */\n      0x02\n        /* \"contracts/CarreraCoches/principal.sol\":4166:4187  address(this).balance */\n      selfbalance\n        /* \"contracts/CarreraCoches/principal.sol\":4165:4190  (address(this).balance)*2 */\n      tag_202\n      swap2\n      swap1\n      tag_199\n      jump\t// in\n    tag_202:\n        /* \"contracts/CarreraCoches/principal.sol\":4131:4192  mostrarResultado(\"Has ganado: \", ((address(this).balance)*2)) */\n      mload(0x40)\n      tag_203\n      swap2\n      swap1\n      tag_204\n      jump\t// in\n    tag_203:\n      mload(0x40)\n      dup1\n      swap2\n      sub\n      swap1\n      log1\n        /* \"contracts/CarreraCoches/principal.sol\":4021:4200  function balance() private {\r... */\n      jump\t// out\n        /* \"contracts/CarreraCoches/utils/Context.sol\":656:754  function _msgSender() internal view virtual returns (address) {\r... */\n    tag_143:\n        /* \"contracts/CarreraCoches/utils/Context.sol\":709:716  address */\n      0x00\n        /* \"contracts/CarreraCoches/utils/Context.sol\":736:746  msg.sender */\n      caller\n        /* \"contracts/CarreraCoches/utils/Context.sol\":729:746  return msg.sender */\n      swap1\n      pop\n        /* \"contracts/CarreraCoches/utils/Context.sol\":656:754  function _msgSender() internal view virtual returns (address) {\r... */\n      swap1\n      jump\t// out\n        /* \"contracts/CarreraCoches/ownable.sol\":2339:2530  function _transferOwnership(address newOwner) internal virtual {\r... */\n    tag_150:\n        /* \"contracts/CarreraCoches/ownable.sol\":2413:2429  address oldOwner */\n      0x00\n        /* \"contracts/CarreraCoches/ownable.sol\":2432:2438  _owner */\n      dup1\n      0x00\n      swap1\n      sload\n      swap1\n      0x0100\n      exp\n      swap1\n      div\n      0xffffffffffffffffffffffffffffffffffffffff\n      and\n        /* \"contracts/CarreraCoches/ownable.sol\":2413:2438  address oldOwner = _owner */\n      swap1\n      pop\n        /* \"contracts/CarreraCoches/ownable.sol\":2458:2466  newOwner */\n      dup2\n        /* \"contracts/CarreraCoches/ownable.sol\":2449:2455  _owner */\n      0x00\n      dup1\n        /* \"contracts/CarreraCoches/ownable.sol\":2449:2466  _owner = newOwner */\n      0x0100\n      exp\n      dup2\n      sload\n      dup2\n      0xffffffffffffffffffffffffffffffffffffffff\n      mul\n      not\n      and\n      swap1\n      dup4\n      0xffffffffffffffffffffffffffffffffffffffff\n      and\n      mul\n      or\n      swap1\n      sstore\n      pop\n        /* \"contracts/CarreraCoches/ownable.sol\":2513:2521  newOwner */\n      dup2\n        /* \"contracts/CarreraCoches/ownable.sol\":2482:2522  OwnershipTransferred(oldOwner, newOwner) */\n      0xffffffffffffffffffffffffffffffffffffffff\n      and\n        /* \"contracts/CarreraCoches/ownable.sol\":2503:2511  oldOwner */\n      dup2\n        /* \"contracts/CarreraCoches/ownable.sol\":2482:2522  OwnershipTransferred(oldOwner, newOwner) */\n      0xffffffffffffffffffffffffffffffffffffffff\n      and\n      0x8be0079c531659141344cd1fd0a4f28419497f9722a3daafe3b4186f6b6457e0\n      mload(0x40)\n      mload(0x40)\n      dup1\n      swap2\n      sub\n      swap1\n      log3\n        /* \"contracts/CarreraCoches/ownable.sol\":2402:2530  {\r... */\n      pop\n        /* \"contracts/CarreraCoches/ownable.sol\":2339:2530  function _transferOwnership(address newOwner) internal virtual {\r... */\n      pop\n      jump\t// out\n    tag_80:\n      dup3\n      dup1\n      sload\n      tag_209\n      swap1\n      tag_155\n      jump\t// in\n    tag_209:\n      swap1\n      0x00\n      mstore\n      keccak256(0x00, 0x20)\n      swap1\n      0x1f\n      add\n      0x20\n      swap1\n      div\n      dup2\n      add\n      swap3\n      dup3\n      tag_211\n      jumpi\n      0x00\n      dup6\n      sstore\n      jump(tag_210)\n    tag_211:\n      dup3\n      0x1f\n      lt\n      tag_212\n      jumpi\n      dup1\n      mload\n      not(0xff)\n      and\n      dup4\n      dup1\n      add\n      or\n      dup6\n      sstore\n      jump(tag_210)\n    tag_212:\n      dup3\n      dup1\n      add\n      0x01\n      add\n      dup6\n      sstore\n      dup3\n      iszero\n      tag_210\n      jumpi\n      swap2\n      dup3\n      add\n    tag_213:\n      dup3\n      dup2\n      gt\n      iszero\n      tag_214\n      jumpi\n      dup3\n      mload\n      dup3\n      sstore\n      swap2\n      0x20\n      add\n      swap2\n      swap1\n      0x01\n      add\n      swap1\n      jump(tag_213)\n    tag_214:\n    tag_210:\n      pop\n      swap1\n      pop\n      tag_215\n      swap2\n      swap1\n      tag_216\n      jump\t// in\n    tag_215:\n      pop\n      swap1\n      jump\t// out\n    tag_216:\n    tag_217:\n      dup1\n      dup3\n      gt\n      iszero\n      tag_218\n      jumpi\n      0x00\n      dup2\n      0x00\n      swap1\n      sstore\n      pop\n      0x01\n      add\n      jump(tag_217)\n    tag_218:\n      pop\n      swap1\n      jump\t// out\n        /* \"#utility.yul\":7:419   */\n    tag_220:\n        /* \"#utility.yul\":85:90   */\n      0x00\n        /* \"#utility.yul\":110:176   */\n      tag_222\n        /* \"#utility.yul\":126:175   */\n      tag_223\n        /* \"#utility.yul\":168:174   */\n      dup5\n        /* \"#utility.yul\":126:175   */\n      tag_224\n      jump\t// in\n    tag_223:\n        /* \"#utility.yul\":110:176   */\n      tag_225\n      jump\t// in\n    tag_222:\n        /* \"#utility.yul\":101:176   */\n      swap1\n      pop\n        /* \"#utility.yul\":199:205   */\n      dup3\n        /* \"#utility.yul\":192:197   */\n      dup2\n        /* \"#utility.yul\":185:206   */\n      mstore\n        /* \"#utility.yul\":237:241   */\n      0x20\n        /* \"#utility.yul\":230:235   */\n      dup2\n        /* \"#utility.yul\":226:242   */\n      add\n        /* \"#utility.yul\":275:278   */\n      dup5\n        /* \"#utility.yul\":266:272   */\n      dup5\n        /* \"#utility.yul\":261:264   */\n      dup5\n        /* \"#utility.yul\":257:273   */\n      add\n        /* \"#utility.yul\":254:279   */\n      gt\n        /* \"#utility.yul\":251:363   */\n      iszero\n      tag_226\n      jumpi\n        /* \"#utility.yul\":282:361   */\n      tag_227\n      tag_228\n      jump\t// in\n    tag_227:\n        /* \"#utility.yul\":251:363   */\n    tag_226:\n        /* \"#utility.yul\":372:413   */\n      tag_229\n        /* \"#utility.yul\":406:412   */\n      dup5\n        /* \"#utility.yul\":401:404   */\n      dup3\n        /* \"#utility.yul\":396:399   */\n      dup6\n        /* \"#utility.yul\":372:413   */\n      tag_230\n      jump\t// in\n    tag_229:\n        /* \"#utility.yul\":91:419   */\n      pop\n        /* \"#utility.yul\":7:419   */\n      swap4\n      swap3\n      pop\n      pop\n      pop\n      jump\t// out\n        /* \"#utility.yul\":425:564   */\n    tag_231:\n        /* \"#utility.yul\":471:476   */\n      0x00\n        /* \"#utility.yul\":509:515   */\n      dup2\n        /* \"#utility.yul\":496:516   */\n      calldataload\n        /* \"#utility.yul\":487:516   */\n      swap1\n      pop\n        /* \"#utility.yul\":525:558   */\n      tag_233\n        /* \"#utility.yul\":552:557   */\n      dup2\n        /* \"#utility.yul\":525:558   */\n      tag_234\n      jump\t// in\n    tag_233:\n        /* \"#utility.yul\":425:564   */\n      swap3\n      swap2\n      pop\n      pop\n      jump\t// out\n        /* \"#utility.yul\":584:924   */\n    tag_235:\n        /* \"#utility.yul\":640:645   */\n      0x00\n        /* \"#utility.yul\":689:692   */\n      dup3\n        /* \"#utility.yul\":682:686   */\n      0x1f\n        /* \"#utility.yul\":674:680   */\n      dup4\n        /* \"#utility.yul\":670:687   */\n      add\n        /* \"#utility.yul\":666:693   */\n      slt\n        /* \"#utility.yul\":656:778   */\n      tag_237\n      jumpi\n        /* \"#utility.yul\":697:776   */\n      tag_238\n      tag_239\n      jump\t// in\n    tag_238:\n        /* \"#utility.yul\":656:778   */\n    tag_237:\n        /* \"#utility.yul\":814:820   */\n      dup2\n        /* \"#utility.yul\":801:821   */\n      calldataload\n        /* \"#utility.yul\":839:918   */\n      tag_240\n        /* \"#utility.yul\":914:917   */\n      dup5\n        /* \"#utility.yul\":906:912   */\n      dup3\n        /* \"#utility.yul\":899:903   */\n      0x20\n        /* \"#utility.yul\":891:897   */\n      dup7\n        /* \"#utility.yul\":887:904   */\n      add\n        /* \"#utility.yul\":839:918   */\n      tag_220\n      jump\t// in\n    tag_240:\n        /* \"#utility.yul\":830:918   */\n      swap2\n      pop\n        /* \"#utility.yul\":646:924   */\n      pop\n        /* \"#utility.yul\":584:924   */\n      swap3\n      swap2\n      pop\n      pop\n      jump\t// out\n        /* \"#utility.yul\":930:1069   */\n    tag_241:\n        /* \"#utility.yul\":976:981   */\n      0x00\n        /* \"#utility.yul\":1014:1020   */\n      dup2\n        /* \"#utility.yul\":1001:1021   */\n      calldataload\n        /* \"#utility.yul\":992:1021   */\n      swap1\n      pop\n        /* \"#utility.yul\":1030:1063   */\n      tag_243\n        /* \"#utility.yul\":1057:1062   */\n      dup2\n        /* \"#utility.yul\":1030:1063   */\n      tag_244\n      jump\t// in\n    tag_243:\n        /* \"#utility.yul\":930:1069   */\n      swap3\n      swap2\n      pop\n      pop\n      jump\t// out\n        /* \"#utility.yul\":1075:1404   */\n    tag_17:\n        /* \"#utility.yul\":1134:1140   */\n      0x00\n        /* \"#utility.yul\":1183:1185   */\n      0x20\n        /* \"#utility.yul\":1171:1180   */\n      dup3\n        /* \"#utility.yul\":1162:1169   */\n      dup5\n        /* \"#utility.yul\":1158:1181   */\n      sub\n        /* \"#utility.yul\":1154:1186   */\n      slt\n        /* \"#utility.yul\":1151:1270   */\n      iszero\n      tag_246\n      jumpi\n        /* \"#utility.yul\":1189:1268   */\n      tag_247\n      tag_248\n      jump\t// in\n    tag_247:\n        /* \"#utility.yul\":1151:1270   */\n    tag_246:\n        /* \"#utility.yul\":1309:1310   */\n      0x00\n        /* \"#utility.yul\":1334:1387   */\n      tag_249\n        /* \"#utility.yul\":1379:1386   */\n      dup5\n        /* \"#utility.yul\":1370:1376   */\n      dup3\n        /* \"#utility.yul\":1359:1368   */\n      dup6\n        /* \"#utility.yul\":1355:1377   */\n      add\n        /* \"#utility.yul\":1334:1387   */\n      tag_231\n      jump\t// in\n    tag_249:\n        /* \"#utility.yul\":1324:1387   */\n      swap2\n      pop\n        /* \"#utility.yul\":1280:1397   */\n      pop\n        /* \"#utility.yul\":1075:1404   */\n      swap3\n      swap2\n      pop\n      pop\n      jump\t// out\n        /* \"#utility.yul\":1410:2569   */\n    tag_24:\n        /* \"#utility.yul\":1517:1523   */\n      0x00\n        /* \"#utility.yul\":1525:1531   */\n      dup1\n        /* \"#utility.yul\":1533:1539   */\n      0x00\n        /* \"#utility.yul\":1582:1584   */\n      0x60\n        /* \"#utility.yul\":1570:1579   */\n      dup5\n        /* \"#utility.yul\":1561:1568   */\n      dup7\n        /* \"#utility.yul\":1557:1580   */\n      sub\n        /* \"#utility.yul\":1553:1585   */\n      slt\n        /* \"#utility.yul\":1550:1669   */\n      iszero\n      tag_251\n      jumpi\n        /* \"#utility.yul\":1588:1667   */\n      tag_252\n      tag_248\n      jump\t// in\n    tag_252:\n        /* \"#utility.yul\":1550:1669   */\n    tag_251:\n        /* \"#utility.yul\":1736:1737   */\n      0x00\n        /* \"#utility.yul\":1725:1734   */\n      dup5\n        /* \"#utility.yul\":1721:1738   */\n      add\n        /* \"#utility.yul\":1708:1739   */\n      calldataload\n        /* \"#utility.yul\":1766:1784   */\n      0xffffffffffffffff\n        /* \"#utility.yul\":1758:1764   */\n      dup2\n        /* \"#utility.yul\":1755:1785   */\n      gt\n        /* \"#utility.yul\":1752:1869   */\n      iszero\n      tag_253\n      jumpi\n        /* \"#utility.yul\":1788:1867   */\n      tag_254\n      tag_255\n      jump\t// in\n    tag_254:\n        /* \"#utility.yul\":1752:1869   */\n    tag_253:\n        /* \"#utility.yul\":1893:1956   */\n      tag_256\n        /* \"#utility.yul\":1948:1955   */\n      dup7\n        /* \"#utility.yul\":1939:1945   */\n      dup3\n        /* \"#utility.yul\":1928:1937   */\n      dup8\n        /* \"#utility.yul\":1924:1946   */\n      add\n        /* \"#utility.yul\":1893:1956   */\n      tag_235\n      jump\t// in\n    tag_256:\n        /* \"#utility.yul\":1883:1956   */\n      swap4\n      pop\n        /* \"#utility.yul\":1679:1966   */\n      pop\n        /* \"#utility.yul\":2033:2035   */\n      0x20\n        /* \"#utility.yul\":2022:2031   */\n      dup5\n        /* \"#utility.yul\":2018:2036   */\n      add\n        /* \"#utility.yul\":2005:2037   */\n      calldataload\n        /* \"#utility.yul\":2064:2082   */\n      0xffffffffffffffff\n        /* \"#utility.yul\":2056:2062   */\n      dup2\n        /* \"#utility.yul\":2053:2083   */\n      gt\n        /* \"#utility.yul\":2050:2167   */\n      iszero\n      tag_257\n      jumpi\n        /* \"#utility.yul\":2086:2165   */\n      tag_258\n      tag_255\n      jump\t// in\n    tag_258:\n        /* \"#utility.yul\":2050:2167   */\n    tag_257:\n        /* \"#utility.yul\":2191:2254   */\n      tag_259\n        /* \"#utility.yul\":2246:2253   */\n      dup7\n        /* \"#utility.yul\":2237:2243   */\n      dup3\n        /* \"#utility.yul\":2226:2235   */\n      dup8\n        /* \"#utility.yul\":2222:2244   */\n      add\n        /* \"#utility.yul\":2191:2254   */\n      tag_235\n      jump\t// in\n    tag_259:\n        /* \"#utility.yul\":2181:2254   */\n      swap3\n      pop\n        /* \"#utility.yul\":1976:2264   */\n      pop\n        /* \"#utility.yul\":2331:2333   */\n      0x40\n        /* \"#utility.yul\":2320:2329   */\n      dup5\n        /* \"#utility.yul\":2316:2334   */\n      add\n        /* \"#utility.yul\":2303:2335   */\n      calldataload\n        /* \"#utility.yul\":2362:2380   */\n      0xffffffffffffffff\n        /* \"#utility.yul\":2354:2360   */\n      dup2\n        /* \"#utility.yul\":2351:2381   */\n      gt\n        /* \"#utility.yul\":2348:2465   */\n      iszero\n      tag_260\n      jumpi\n        /* \"#utility.yul\":2384:2463   */\n      tag_261\n      tag_255\n      jump\t// in\n    tag_261:\n        /* \"#utility.yul\":2348:2465   */\n    tag_260:\n        /* \"#utility.yul\":2489:2552   */\n      tag_262\n        /* \"#utility.yul\":2544:2551   */\n      dup7\n        /* \"#utility.yul\":2535:2541   */\n      dup3\n        /* \"#utility.yul\":2524:2533   */\n      dup8\n        /* \"#utility.yul\":2520:2542   */\n      add\n        /* \"#utility.yul\":2489:2552   */\n      tag_235\n      jump\t// in\n    tag_262:\n        /* \"#utility.yul\":2479:2552   */\n      swap2\n      pop\n        /* \"#utility.yul\":2274:2562   */\n      pop\n        /* \"#utility.yul\":1410:2569   */\n      swap3\n      pop\n      swap3\n      pop\n      swap3\n      jump\t// out\n        /* \"#utility.yul\":2575:2904   */\n    tag_29:\n        /* \"#utility.yul\":2634:2640   */\n      0x00\n        /* \"#utility.yul\":2683:2685   */\n      0x20\n        /* \"#utility.yul\":2671:2680   */\n      dup3\n        /* \"#utility.yul\":2662:2669   */\n      dup5\n        /* \"#utility.yul\":2658:2681   */\n      sub\n        /* \"#utility.yul\":2654:2686   */\n      slt\n        /* \"#utility.yul\":2651:2770   */\n      iszero\n      tag_264\n      jumpi\n        /* \"#utility.yul\":2689:2768   */\n      tag_265\n      tag_248\n      jump\t// in\n    tag_265:\n        /* \"#utility.yul\":2651:2770   */\n    tag_264:\n        /* \"#utility.yul\":2809:2810   */\n      0x00\n        /* \"#utility.yul\":2834:2887   */\n      tag_266\n        /* \"#utility.yul\":2879:2886   */\n      dup5\n        /* \"#utility.yul\":2870:2876   */\n      dup3\n        /* \"#utility.yul\":2859:2868   */\n      dup6\n        /* \"#utility.yul\":2855:2877   */\n      add\n        /* \"#utility.yul\":2834:2887   */\n      tag_241\n      jump\t// in\n    tag_266:\n        /* \"#utility.yul\":2824:2887   */\n      swap2\n      pop\n        /* \"#utility.yul\":2780:2897   */\n      pop\n        /* \"#utility.yul\":2575:2904   */\n      swap3\n      swap2\n      pop\n      pop\n      jump\t// out\n        /* \"#utility.yul\":2910:3889   */\n    tag_36:\n        /* \"#utility.yul\":3007:3013   */\n      0x00\n        /* \"#utility.yul\":3015:3021   */\n      dup1\n        /* \"#utility.yul\":3023:3029   */\n      0x00\n        /* \"#utility.yul\":3072:3074   */\n      0x60\n        /* \"#utility.yul\":3060:3069   */\n      dup5\n        /* \"#utility.yul\":3051:3058   */\n      dup7\n        /* \"#utility.yul\":3047:3070   */\n      sub\n        /* \"#utility.yul\":3043:3075   */\n      slt\n        /* \"#utility.yul\":3040:3159   */\n      iszero\n      tag_268\n      jumpi\n        /* \"#utility.yul\":3078:3157   */\n      tag_269\n      tag_248\n      jump\t// in\n    tag_269:\n        /* \"#utility.yul\":3040:3159   */\n    tag_268:\n        /* \"#utility.yul\":3198:3199   */\n      0x00\n        /* \"#utility.yul\":3223:3276   */\n      tag_270\n        /* \"#utility.yul\":3268:3275   */\n      dup7\n        /* \"#utility.yul\":3259:3265   */\n      dup3\n        /* \"#utility.yul\":3248:3257   */\n      dup8\n        /* \"#utility.yul\":3244:3266   */\n      add\n        /* \"#utility.yul\":3223:3276   */\n      tag_241\n      jump\t// in\n    tag_270:\n        /* \"#utility.yul\":3213:3276   */\n      swap4\n      pop\n        /* \"#utility.yul\":3169:3286   */\n      pop\n        /* \"#utility.yul\":3353:3355   */\n      0x20\n        /* \"#utility.yul\":3342:3351   */\n      dup5\n        /* \"#utility.yul\":3338:3356   */\n      add\n        /* \"#utility.yul\":3325:3357   */\n      calldataload\n        /* \"#utility.yul\":3384:3402   */\n      0xffffffffffffffff\n        /* \"#utility.yul\":3376:3382   */\n      dup2\n        /* \"#utility.yul\":3373:3403   */\n      gt\n        /* \"#utility.yul\":3370:3487   */\n      iszero\n      tag_271\n      jumpi\n        /* \"#utility.yul\":3406:3485   */\n      tag_272\n      tag_255\n      jump\t// in\n    tag_272:\n        /* \"#utility.yul\":3370:3487   */\n    tag_271:\n        /* \"#utility.yul\":3511:3574   */\n      tag_273\n        /* \"#utility.yul\":3566:3573   */\n      dup7\n        /* \"#utility.yul\":3557:3563   */\n      dup3\n        /* \"#utility.yul\":3546:3555   */\n      dup8\n        /* \"#utility.yul\":3542:3564   */\n      add\n        /* \"#utility.yul\":3511:3574   */\n      tag_235\n      jump\t// in\n    tag_273:\n        /* \"#utility.yul\":3501:3574   */\n      swap3\n      pop\n        /* \"#utility.yul\":3296:3584   */\n      pop\n        /* \"#utility.yul\":3651:3653   */\n      0x40\n        /* \"#utility.yul\":3640:3649   */\n      dup5\n        /* \"#utility.yul\":3636:3654   */\n      add\n        /* \"#utility.yul\":3623:3655   */\n      calldataload\n        /* \"#utility.yul\":3682:3700   */\n      0xffffffffffffffff\n        /* \"#utility.yul\":3674:3680   */\n      dup2\n        /* \"#utility.yul\":3671:3701   */\n      gt\n        /* \"#utility.yul\":3668:3785   */\n      iszero\n      tag_274\n      jumpi\n        /* \"#utility.yul\":3704:3783   */\n      tag_275\n      tag_255\n      jump\t// in\n    tag_275:\n        /* \"#utility.yul\":3668:3785   */\n    tag_274:\n        /* \"#utility.yul\":3809:3872   */\n      tag_276\n        /* \"#utility.yul\":3864:3871   */\n      dup7\n        /* \"#utility.yul\":3855:3861   */\n      dup3\n        /* \"#utility.yul\":3844:3853   */\n      dup8\n        /* \"#utility.yul\":3840:3862   */\n      add\n        /* \"#utility.yul\":3809:3872   */\n      tag_235\n      jump\t// in\n    tag_276:\n        /* \"#utility.yul\":3799:3872   */\n      swap2\n      pop\n        /* \"#utility.yul\":3594:3882   */\n      pop\n        /* \"#utility.yul\":2910:3889   */\n      swap3\n      pop\n      swap3\n      pop\n      swap3\n      jump\t// out\n        /* \"#utility.yul\":3895:4074   */\n    tag_277:\n        /* \"#utility.yul\":3964:3974   */\n      0x00\n        /* \"#utility.yul\":3985:4031   */\n      tag_279\n        /* \"#utility.yul\":4027:4030   */\n      dup4\n        /* \"#utility.yul\":4019:4025   */\n      dup4\n        /* \"#utility.yul\":3985:4031   */\n      tag_280\n      jump\t// in\n    tag_279:\n        /* \"#utility.yul\":4063:4067   */\n      0x20\n        /* \"#utility.yul\":4058:4061   */\n      dup4\n        /* \"#utility.yul\":4054:4068   */\n      add\n        /* \"#utility.yul\":4040:4068   */\n      swap1\n      pop\n        /* \"#utility.yul\":3895:4074   */\n      swap3\n      swap2\n      pop\n      pop\n      jump\t// out\n        /* \"#utility.yul\":4080:4198   */\n    tag_281:\n        /* \"#utility.yul\":4167:4191   */\n      tag_283\n        /* \"#utility.yul\":4185:4190   */\n      dup2\n        /* \"#utility.yul\":4167:4191   */\n      tag_284\n      jump\t// in\n    tag_283:\n        /* \"#utility.yul\":4162:4165   */\n      dup3\n        /* \"#utility.yul\":4155:4192   */\n      mstore\n        /* \"#utility.yul\":4080:4198   */\n      pop\n      pop\n      jump\t// out\n        /* \"#utility.yul\":4234:4966   */\n    tag_285:\n        /* \"#utility.yul\":4353:4356   */\n      0x00\n        /* \"#utility.yul\":4382:4436   */\n      tag_287\n        /* \"#utility.yul\":4430:4435   */\n      dup3\n        /* \"#utility.yul\":4382:4436   */\n      tag_288\n      jump\t// in\n    tag_287:\n        /* \"#utility.yul\":4452:4538   */\n      tag_289\n        /* \"#utility.yul\":4531:4537   */\n      dup2\n        /* \"#utility.yul\":4526:4529   */\n      dup6\n        /* \"#utility.yul\":4452:4538   */\n      tag_290\n      jump\t// in\n    tag_289:\n        /* \"#utility.yul\":4445:4538   */\n      swap4\n      pop\n        /* \"#utility.yul\":4562:4618   */\n      tag_291\n        /* \"#utility.yul\":4612:4617   */\n      dup4\n        /* \"#utility.yul\":4562:4618   */\n      tag_292\n      jump\t// in\n    tag_291:\n        /* \"#utility.yul\":4641:4648   */\n      dup1\n        /* \"#utility.yul\":4672:4673   */\n      0x00\n        /* \"#utility.yul\":4657:4941   */\n    tag_293:\n        /* \"#utility.yul\":4682:4688   */\n      dup4\n        /* \"#utility.yul\":4679:4680   */\n      dup2\n        /* \"#utility.yul\":4676:4689   */\n      lt\n        /* \"#utility.yul\":4657:4941   */\n      iszero\n      tag_295\n      jumpi\n        /* \"#utility.yul\":4758:4764   */\n      dup2\n        /* \"#utility.yul\":4752:4765   */\n      mload\n        /* \"#utility.yul\":4785:4848   */\n      tag_296\n        /* \"#utility.yul\":4844:4847   */\n      dup9\n        /* \"#utility.yul\":4829:4842   */\n      dup3\n        /* \"#utility.yul\":4785:4848   */\n      tag_277\n      jump\t// in\n    tag_296:\n        /* \"#utility.yul\":4778:4848   */\n      swap8\n      pop\n        /* \"#utility.yul\":4871:4931   */\n      tag_297\n        /* \"#utility.yul\":4924:4930   */\n      dup4\n        /* \"#utility.yul\":4871:4931   */\n      tag_298\n      jump\t// in\n    tag_297:\n        /* \"#utility.yul\":4861:4931   */\n      swap3\n      pop\n        /* \"#utility.yul\":4717:4941   */\n      pop\n        /* \"#utility.yul\":4704:4705   */\n      0x01\n        /* \"#utility.yul\":4701:4702   */\n      dup2\n        /* \"#utility.yul\":4697:4706   */\n      add\n        /* \"#utility.yul\":4692:4706   */\n      swap1\n      pop\n        /* \"#utility.yul\":4657:4941   */\n      jump(tag_293)\n    tag_295:\n        /* \"#utility.yul\":4661:4675   */\n      pop\n        /* \"#utility.yul\":4957:4960   */\n      dup6\n        /* \"#utility.yul\":4950:4960   */\n      swap4\n      pop\n        /* \"#utility.yul\":4358:4966   */\n      pop\n      pop\n      pop\n        /* \"#utility.yul\":4234:4966   */\n      swap3\n      swap2\n      pop\n      pop\n      jump\t// out\n        /* \"#utility.yul\":4972:5336   */\n    tag_299:\n        /* \"#utility.yul\":5060:5063   */\n      0x00\n        /* \"#utility.yul\":5088:5127   */\n      tag_301\n        /* \"#utility.yul\":5121:5126   */\n      dup3\n        /* \"#utility.yul\":5088:5127   */\n      tag_302\n      jump\t// in\n    tag_301:\n        /* \"#utility.yul\":5143:5214   */\n      tag_303\n        /* \"#utility.yul\":5207:5213   */\n      dup2\n        /* \"#utility.yul\":5202:5205   */\n      dup6\n        /* \"#utility.yul\":5143:5214   */\n      tag_304\n      jump\t// in\n    tag_303:\n        /* \"#utility.yul\":5136:5214   */\n      swap4\n      pop\n        /* \"#utility.yul\":5223:5275   */\n      tag_305\n        /* \"#utility.yul\":5268:5274   */\n      dup2\n        /* \"#utility.yul\":5263:5266   */\n      dup6\n        /* \"#utility.yul\":5256:5260   */\n      0x20\n        /* \"#utility.yul\":5249:5254   */\n      dup7\n        /* \"#utility.yul\":5245:5261   */\n      add\n        /* \"#utility.yul\":5223:5275   */\n      tag_306\n      jump\t// in\n    tag_305:\n        /* \"#utility.yul\":5300:5329   */\n      tag_307\n        /* \"#utility.yul\":5322:5328   */\n      dup2\n        /* \"#utility.yul\":5300:5329   */\n      tag_308\n      jump\t// in\n    tag_307:\n        /* \"#utility.yul\":5295:5298   */\n      dup5\n        /* \"#utility.yul\":5291:5330   */\n      add\n        /* \"#utility.yul\":5284:5330   */\n      swap2\n      pop\n        /* \"#utility.yul\":5064:5336   */\n      pop\n        /* \"#utility.yul\":4972:5336   */\n      swap3\n      swap2\n      pop\n      pop\n      jump\t// out\n        /* \"#utility.yul\":5366:6168   */\n    tag_309:\n        /* \"#utility.yul\":5451:5454   */\n      0x00\n        /* \"#utility.yul\":5488:5493   */\n      dup2\n        /* \"#utility.yul\":5482:5494   */\n      sload\n        /* \"#utility.yul\":5517:5553   */\n      tag_311\n        /* \"#utility.yul\":5543:5552   */\n      dup2\n        /* \"#utility.yul\":5517:5553   */\n      tag_155\n      jump\t// in\n    tag_311:\n        /* \"#utility.yul\":5569:5640   */\n      tag_312\n        /* \"#utility.yul\":5633:5639   */\n      dup2\n        /* \"#utility.yul\":5628:5631   */\n      dup7\n        /* \"#utility.yul\":5569:5640   */\n      tag_304\n      jump\t// in\n    tag_312:\n        /* \"#utility.yul\":5562:5640   */\n      swap5\n      pop\n        /* \"#utility.yul\":5671:5672   */\n      0x01\n        /* \"#utility.yul\":5660:5669   */\n      dup3\n        /* \"#utility.yul\":5656:5673   */\n      and\n        /* \"#utility.yul\":5687:5688   */\n      0x00\n        /* \"#utility.yul\":5682:5817   */\n      dup2\n      eq\n      tag_314\n      jumpi\n        /* \"#utility.yul\":5831:5832   */\n      0x01\n        /* \"#utility.yul\":5826:6162   */\n      dup2\n      eq\n      tag_315\n      jumpi\n        /* \"#utility.yul\":5649:6162   */\n      jump(tag_313)\n        /* \"#utility.yul\":5682:5817   */\n    tag_314:\n        /* \"#utility.yul\":5766:5770   */\n      0xff\n        /* \"#utility.yul\":5762:5771   */\n      not\n        /* \"#utility.yul\":5751:5760   */\n      dup4\n        /* \"#utility.yul\":5747:5772   */\n      and\n        /* \"#utility.yul\":5742:5745   */\n      dup7\n        /* \"#utility.yul\":5735:5773   */\n      mstore\n        /* \"#utility.yul\":5802:5806   */\n      0x20\n        /* \"#utility.yul\":5797:5800   */\n      dup7\n        /* \"#utility.yul\":5793:5807   */\n      add\n        /* \"#utility.yul\":5786:5807   */\n      swap4\n      pop\n        /* \"#utility.yul\":5682:5817   */\n      jump(tag_313)\n        /* \"#utility.yul\":5826:6162   */\n    tag_315:\n        /* \"#utility.yul\":5893:5931   */\n      tag_316\n        /* \"#utility.yul\":5925:5930   */\n      dup6\n        /* \"#utility.yul\":5893:5931   */\n      tag_317\n      jump\t// in\n    tag_316:\n        /* \"#utility.yul\":5953:5954   */\n      0x00\n        /* \"#utility.yul\":5967:6121   */\n    tag_318:\n        /* \"#utility.yul\":5981:5987   */\n      dup4\n        /* \"#utility.yul\":5978:5979   */\n      dup2\n        /* \"#utility.yul\":5975:5988   */\n      lt\n        /* \"#utility.yul\":5967:6121   */\n      iszero\n      tag_320\n      jumpi\n        /* \"#utility.yul\":6055:6062   */\n      dup2\n        /* \"#utility.yul\":6049:6063   */\n      sload\n        /* \"#utility.yul\":6045:6046   */\n      dup2\n        /* \"#utility.yul\":6040:6043   */\n      dup10\n        /* \"#utility.yul\":6036:6047   */\n      add\n        /* \"#utility.yul\":6029:6064   */\n      mstore\n        /* \"#utility.yul\":6105:6106   */\n      0x01\n        /* \"#utility.yul\":6096:6103   */\n      dup3\n        /* \"#utility.yul\":6092:6107   */\n      add\n        /* \"#utility.yul\":6081:6107   */\n      swap2\n      pop\n        /* \"#utility.yul\":6003:6007   */\n      0x20\n        /* \"#utility.yul\":6000:6001   */\n      dup2\n        /* \"#utility.yul\":5996:6008   */\n      add\n        /* \"#utility.yul\":5991:6008   */\n      swap1\n      pop\n        /* \"#utility.yul\":5967:6121   */\n      jump(tag_318)\n    tag_320:\n        /* \"#utility.yul\":6150:6151   */\n      dup1\n        /* \"#utility.yul\":6145:6148   */\n      dup9\n        /* \"#utility.yul\":6141:6152   */\n      add\n        /* \"#utility.yul\":6134:6152   */\n      swap6\n      pop\n        /* \"#utility.yul\":5833:6162   */\n      pop\n      pop\n        /* \"#utility.yul\":5649:6162   */\n    tag_313:\n      pop\n        /* \"#utility.yul\":5455:6168   */\n      pop\n      pop\n        /* \"#utility.yul\":5366:6168   */\n      swap3\n      swap2\n      pop\n      pop\n      jump\t// out\n        /* \"#utility.yul\":6174:6540   */\n    tag_321:\n        /* \"#utility.yul\":6316:6319   */\n      0x00\n        /* \"#utility.yul\":6337:6404   */\n      tag_323\n        /* \"#utility.yul\":6401:6403   */\n      0x28\n        /* \"#utility.yul\":6396:6399   */\n      dup4\n        /* \"#utility.yul\":6337:6404   */\n      tag_304\n      jump\t// in\n    tag_323:\n        /* \"#utility.yul\":6330:6404   */\n      swap2\n      pop\n        /* \"#utility.yul\":6413:6506   */\n      tag_324\n        /* \"#utility.yul\":6502:6505   */\n      dup3\n        /* \"#utility.yul\":6413:6506   */\n      tag_325\n      jump\t// in\n    tag_324:\n        /* \"#utility.yul\":6531:6533   */\n      0x40\n        /* \"#utility.yul\":6526:6529   */\n      dup3\n        /* \"#utility.yul\":6522:6534   */\n      add\n        /* \"#utility.yul\":6515:6534   */\n      swap1\n      pop\n        /* \"#utility.yul\":6174:6540   */\n      swap2\n      swap1\n      pop\n      jump\t// out\n        /* \"#utility.yul\":6546:6912   */\n    tag_326:\n        /* \"#utility.yul\":6688:6691   */\n      0x00\n        /* \"#utility.yul\":6709:6776   */\n      tag_328\n        /* \"#utility.yul\":6773:6775   */\n      0x26\n        /* \"#utility.yul\":6768:6771   */\n      dup4\n        /* \"#utility.yul\":6709:6776   */\n      tag_304\n      jump\t// in\n    tag_328:\n        /* \"#utility.yul\":6702:6776   */\n      swap2\n      pop\n        /* \"#utility.yul\":6785:6878   */\n      tag_329\n        /* \"#utility.yul\":6874:6877   */\n      dup3\n        /* \"#utility.yul\":6785:6878   */\n      tag_330\n      jump\t// in\n    tag_329:\n        /* \"#utility.yul\":6903:6905   */\n      0x40\n        /* \"#utility.yul\":6898:6901   */\n      dup3\n        /* \"#utility.yul\":6894:6906   */\n      add\n        /* \"#utility.yul\":6887:6906   */\n      swap1\n      pop\n        /* \"#utility.yul\":6546:6912   */\n      swap2\n      swap1\n      pop\n      jump\t// out\n        /* \"#utility.yul\":6918:7284   */\n    tag_331:\n        /* \"#utility.yul\":7060:7063   */\n      0x00\n        /* \"#utility.yul\":7081:7148   */\n      tag_333\n        /* \"#utility.yul\":7145:7147   */\n      0x0c\n        /* \"#utility.yul\":7140:7143   */\n      dup4\n        /* \"#utility.yul\":7081:7148   */\n      tag_304\n      jump\t// in\n    tag_333:\n        /* \"#utility.yul\":7074:7148   */\n      swap2\n      pop\n        /* \"#utility.yul\":7157:7250   */\n      tag_334\n        /* \"#utility.yul\":7246:7249   */\n      dup3\n        /* \"#utility.yul\":7157:7250   */\n      tag_335\n      jump\t// in\n    tag_334:\n        /* \"#utility.yul\":7275:7277   */\n      0x20\n        /* \"#utility.yul\":7270:7273   */\n      dup3\n        /* \"#utility.yul\":7266:7278   */\n      add\n        /* \"#utility.yul\":7259:7278   */\n      swap1\n      pop\n        /* \"#utility.yul\":6918:7284   */\n      swap2\n      swap1\n      pop\n      jump\t// out\n        /* \"#utility.yul\":7290:7656   */\n    tag_336:\n        /* \"#utility.yul\":7432:7435   */\n      0x00\n        /* \"#utility.yul\":7453:7520   */\n      tag_338\n        /* \"#utility.yul\":7517:7519   */\n      0x20\n        /* \"#utility.yul\":7512:7515   */\n      dup4\n        /* \"#utility.yul\":7453:7520   */\n      tag_304\n      jump\t// in\n    tag_338:\n        /* \"#utility.yul\":7446:7520   */\n      swap2\n      pop\n        /* \"#utility.yul\":7529:7622   */\n      tag_339\n        /* \"#utility.yul\":7618:7621   */\n      dup3\n        /* \"#utility.yul\":7529:7622   */\n      tag_340\n      jump\t// in\n    tag_339:\n        /* \"#utility.yul\":7647:7649   */\n      0x20\n        /* \"#utility.yul\":7642:7645   */\n      dup3\n        /* \"#utility.yul\":7638:7650   */\n      add\n        /* \"#utility.yul\":7631:7650   */\n      swap1\n      pop\n        /* \"#utility.yul\":7290:7656   */\n      swap2\n      swap1\n      pop\n      jump\t// out\n        /* \"#utility.yul\":7662:8028   */\n    tag_341:\n        /* \"#utility.yul\":7804:7807   */\n      0x00\n        /* \"#utility.yul\":7825:7892   */\n      tag_343\n        /* \"#utility.yul\":7889:7891   */\n      0x15\n        /* \"#utility.yul\":7884:7887   */\n      dup4\n        /* \"#utility.yul\":7825:7892   */\n      tag_304\n      jump\t// in\n    tag_343:\n        /* \"#utility.yul\":7818:7892   */\n      swap2\n      pop\n        /* \"#utility.yul\":7901:7994   */\n      tag_344\n        /* \"#utility.yul\":7990:7993   */\n      dup3\n        /* \"#utility.yul\":7901:7994   */\n      tag_345\n      jump\t// in\n    tag_344:\n        /* \"#utility.yul\":8019:8021   */\n      0x20\n        /* \"#utility.yul\":8014:8017   */\n      dup3\n        /* \"#utility.yul\":8010:8022   */\n      add\n        /* \"#utility.yul\":8003:8022   */\n      swap1\n      pop\n        /* \"#utility.yul\":7662:8028   */\n      swap2\n      swap1\n      pop\n      jump\t// out\n        /* \"#utility.yul\":8034:8142   */\n    tag_280:\n        /* \"#utility.yul\":8111:8135   */\n      tag_347\n        /* \"#utility.yul\":8129:8134   */\n      dup2\n        /* \"#utility.yul\":8111:8135   */\n      tag_348\n      jump\t// in\n    tag_347:\n        /* \"#utility.yul\":8106:8109   */\n      dup3\n        /* \"#utility.yul\":8099:8136   */\n      mstore\n        /* \"#utility.yul\":8034:8142   */\n      pop\n      pop\n      jump\t// out\n        /* \"#utility.yul\":8148:8266   */\n    tag_349:\n        /* \"#utility.yul\":8235:8259   */\n      tag_351\n        /* \"#utility.yul\":8253:8258   */\n      dup2\n        /* \"#utility.yul\":8235:8259   */\n      tag_348\n      jump\t// in\n    tag_351:\n        /* \"#utility.yul\":8230:8233   */\n      dup3\n        /* \"#utility.yul\":8223:8260   */\n      mstore\n        /* \"#utility.yul\":8148:8266   */\n      pop\n      pop\n      jump\t// out\n        /* \"#utility.yul\":8272:8429   */\n    tag_352:\n        /* \"#utility.yul\":8377:8422   */\n      tag_354\n        /* \"#utility.yul\":8397:8421   */\n      tag_355\n        /* \"#utility.yul\":8415:8420   */\n      dup3\n        /* \"#utility.yul\":8397:8421   */\n      tag_348\n      jump\t// in\n    tag_355:\n        /* \"#utility.yul\":8377:8422   */\n      tag_356\n      jump\t// in\n    tag_354:\n        /* \"#utility.yul\":8372:8375   */\n      dup3\n        /* \"#utility.yul\":8365:8423   */\n      mstore\n        /* \"#utility.yul\":8272:8429   */\n      pop\n      pop\n      jump\t// out\n        /* \"#utility.yul\":8435:8550   */\n    tag_357:\n        /* \"#utility.yul\":8520:8543   */\n      tag_359\n        /* \"#utility.yul\":8537:8542   */\n      dup2\n        /* \"#utility.yul\":8520:8543   */\n      tag_360\n      jump\t// in\n    tag_359:\n        /* \"#utility.yul\":8515:8518   */\n      dup3\n        /* \"#utility.yul\":8508:8544   */\n      mstore\n        /* \"#utility.yul\":8435:8550   */\n      pop\n      pop\n      jump\t// out\n        /* \"#utility.yul\":8556:9094   */\n    tag_92:\n        /* \"#utility.yul\":8724:8727   */\n      0x00\n        /* \"#utility.yul\":8739:8814   */\n      tag_362\n        /* \"#utility.yul\":8810:8813   */\n      dup3\n        /* \"#utility.yul\":8801:8807   */\n      dup7\n        /* \"#utility.yul\":8739:8814   */\n      tag_352\n      jump\t// in\n    tag_362:\n        /* \"#utility.yul\":8839:8841   */\n      0x20\n        /* \"#utility.yul\":8834:8837   */\n      dup3\n        /* \"#utility.yul\":8830:8842   */\n      add\n        /* \"#utility.yul\":8823:8842   */\n      swap2\n      pop\n        /* \"#utility.yul\":8852:8927   */\n      tag_363\n        /* \"#utility.yul\":8923:8926   */\n      dup3\n        /* \"#utility.yul\":8914:8920   */\n      dup6\n        /* \"#utility.yul\":8852:8927   */\n      tag_352\n      jump\t// in\n    tag_363:\n        /* \"#utility.yul\":8952:8954   */\n      0x20\n        /* \"#utility.yul\":8947:8950   */\n      dup3\n        /* \"#utility.yul\":8943:8955   */\n      add\n        /* \"#utility.yul\":8936:8955   */\n      swap2\n      pop\n        /* \"#utility.yul\":8965:9040   */\n      tag_364\n        /* \"#utility.yul\":9036:9039   */\n      dup3\n        /* \"#utility.yul\":9027:9033   */\n      dup5\n        /* \"#utility.yul\":8965:9040   */\n      tag_352\n      jump\t// in\n    tag_364:\n        /* \"#utility.yul\":9065:9067   */\n      0x20\n        /* \"#utility.yul\":9060:9063   */\n      dup3\n        /* \"#utility.yul\":9056:9068   */\n      add\n        /* \"#utility.yul\":9049:9068   */\n      swap2\n      pop\n        /* \"#utility.yul\":9085:9088   */\n      dup2\n        /* \"#utility.yul\":9078:9088   */\n      swap1\n      pop\n        /* \"#utility.yul\":8556:9094   */\n      swap5\n      swap4\n      pop\n      pop\n      pop\n      pop\n      jump\t// out\n        /* \"#utility.yul\":9100:9322   */\n    tag_46:\n        /* \"#utility.yul\":9193:9197   */\n      0x00\n        /* \"#utility.yul\":9231:9233   */\n      0x20\n        /* \"#utility.yul\":9220:9229   */\n      dup3\n        /* \"#utility.yul\":9216:9234   */\n      add\n        /* \"#utility.yul\":9208:9234   */\n      swap1\n      pop\n        /* \"#utility.yul\":9244:9315   */\n      tag_366\n        /* \"#utility.yul\":9312:9313   */\n      0x00\n        /* \"#utility.yul\":9301:9310   */\n      dup4\n        /* \"#utility.yul\":9297:9314   */\n      add\n        /* \"#utility.yul\":9288:9294   */\n      dup5\n        /* \"#utility.yul\":9244:9315   */\n      tag_281\n      jump\t// in\n    tag_366:\n        /* \"#utility.yul\":9100:9322   */\n      swap3\n      swap2\n      pop\n      pop\n      jump\t// out\n        /* \"#utility.yul\":9328:10594   */\n    tag_56:\n        /* \"#utility.yul\":9675:9679   */\n      0x00\n        /* \"#utility.yul\":9713:9716   */\n      0x0100\n        /* \"#utility.yul\":9702:9711   */\n      dup3\n        /* \"#utility.yul\":9698:9717   */\n      add\n        /* \"#utility.yul\":9690:9717   */\n      swap1\n      pop\n        /* \"#utility.yul\":9727:9798   */\n      tag_368\n        /* \"#utility.yul\":9795:9796   */\n      0x00\n        /* \"#utility.yul\":9784:9793   */\n      dup4\n        /* \"#utility.yul\":9780:9797   */\n      add\n        /* \"#utility.yul\":9771:9777   */\n      dup12\n        /* \"#utility.yul\":9727:9798   */\n      tag_281\n      jump\t// in\n    tag_368:\n        /* \"#utility.yul\":9845:9854   */\n      dup2\n        /* \"#utility.yul\":9839:9843   */\n      dup2\n        /* \"#utility.yul\":9835:9855   */\n      sub\n        /* \"#utility.yul\":9830:9832   */\n      0x20\n        /* \"#utility.yul\":9819:9828   */\n      dup4\n        /* \"#utility.yul\":9815:9833   */\n      add\n        /* \"#utility.yul\":9808:9856   */\n      mstore\n        /* \"#utility.yul\":9873:9951   */\n      tag_369\n        /* \"#utility.yul\":9946:9950   */\n      dup2\n        /* \"#utility.yul\":9937:9943   */\n      dup11\n        /* \"#utility.yul\":9873:9951   */\n      tag_299\n      jump\t// in\n    tag_369:\n        /* \"#utility.yul\":9865:9951   */\n      swap1\n      pop\n        /* \"#utility.yul\":9998:10007   */\n      dup2\n        /* \"#utility.yul\":9992:9996   */\n      dup2\n        /* \"#utility.yul\":9988:10008   */\n      sub\n        /* \"#utility.yul\":9983:9985   */\n      0x40\n        /* \"#utility.yul\":9972:9981   */\n      dup4\n        /* \"#utility.yul\":9968:9986   */\n      add\n        /* \"#utility.yul\":9961:10009   */\n      mstore\n        /* \"#utility.yul\":10026:10104   */\n      tag_370\n        /* \"#utility.yul\":10099:10103   */\n      dup2\n        /* \"#utility.yul\":10090:10096   */\n      dup10\n        /* \"#utility.yul\":10026:10104   */\n      tag_299\n      jump\t// in\n    tag_370:\n        /* \"#utility.yul\":10018:10104   */\n      swap1\n      pop\n        /* \"#utility.yul\":10151:10160   */\n      dup2\n        /* \"#utility.yul\":10145:10149   */\n      dup2\n        /* \"#utility.yul\":10141:10161   */\n      sub\n        /* \"#utility.yul\":10136:10138   */\n      0x60\n        /* \"#utility.yul\":10125:10134   */\n      dup4\n        /* \"#utility.yul\":10121:10139   */\n      add\n        /* \"#utility.yul\":10114:10162   */\n      mstore\n        /* \"#utility.yul\":10179:10257   */\n      tag_371\n        /* \"#utility.yul\":10252:10256   */\n      dup2\n        /* \"#utility.yul\":10243:10249   */\n      dup9\n        /* \"#utility.yul\":10179:10257   */\n      tag_299\n      jump\t// in\n    tag_371:\n        /* \"#utility.yul\":10171:10257   */\n      swap1\n      pop\n        /* \"#utility.yul\":10267:10340   */\n      tag_372\n        /* \"#utility.yul\":10335:10338   */\n      0x80\n        /* \"#utility.yul\":10324:10333   */\n      dup4\n        /* \"#utility.yul\":10320:10339   */\n      add\n        /* \"#utility.yul\":10311:10317   */\n      dup8\n        /* \"#utility.yul\":10267:10340   */\n      tag_349\n      jump\t// in\n    tag_372:\n        /* \"#utility.yul\":10350:10423   */\n      tag_373\n        /* \"#utility.yul\":10418:10421   */\n      0xa0\n        /* \"#utility.yul\":10407:10416   */\n      dup4\n        /* \"#utility.yul\":10403:10422   */\n      add\n        /* \"#utility.yul\":10394:10400   */\n      dup7\n        /* \"#utility.yul\":10350:10423   */\n      tag_349\n      jump\t// in\n    tag_373:\n        /* \"#utility.yul\":10433:10506   */\n      tag_374\n        /* \"#utility.yul\":10501:10504   */\n      0xc0\n        /* \"#utility.yul\":10490:10499   */\n      dup4\n        /* \"#utility.yul\":10486:10505   */\n      add\n        /* \"#utility.yul\":10477:10483   */\n      dup6\n        /* \"#utility.yul\":10433:10506   */\n      tag_349\n      jump\t// in\n    tag_374:\n        /* \"#utility.yul\":10516:10587   */\n      tag_375\n        /* \"#utility.yul\":10582:10585   */\n      0xe0\n        /* \"#utility.yul\":10571:10580   */\n      dup4\n        /* \"#utility.yul\":10567:10586   */\n      add\n        /* \"#utility.yul\":10558:10564   */\n      dup5\n        /* \"#utility.yul\":10516:10587   */\n      tag_357\n      jump\t// in\n    tag_375:\n        /* \"#utility.yul\":9328:10594   */\n      swap10\n      swap9\n      pop\n      pop\n      pop\n      pop\n      pop\n      pop\n      pop\n      pop\n      pop\n      jump\t// out\n        /* \"#utility.yul\":10600:10973   */\n    tag_62:\n        /* \"#utility.yul\":10743:10747   */\n      0x00\n        /* \"#utility.yul\":10781:10783   */\n      0x20\n        /* \"#utility.yul\":10770:10779   */\n      dup3\n        /* \"#utility.yul\":10766:10784   */\n      add\n        /* \"#utility.yul\":10758:10784   */\n      swap1\n      pop\n        /* \"#utility.yul\":10830:10839   */\n      dup2\n        /* \"#utility.yul\":10824:10828   */\n      dup2\n        /* \"#utility.yul\":10820:10840   */\n      sub\n        /* \"#utility.yul\":10816:10817   */\n      0x00\n        /* \"#utility.yul\":10805:10814   */\n      dup4\n        /* \"#utility.yul\":10801:10818   */\n      add\n        /* \"#utility.yul\":10794:10841   */\n      mstore\n        /* \"#utility.yul\":10858:10966   */\n      tag_377\n        /* \"#utility.yul\":10961:10965   */\n      dup2\n        /* \"#utility.yul\":10952:10958   */\n      dup5\n        /* \"#utility.yul\":10858:10966   */\n      tag_285\n      jump\t// in\n    tag_377:\n        /* \"#utility.yul\":10850:10966   */\n      swap1\n      pop\n        /* \"#utility.yul\":10600:10973   */\n      swap3\n      swap2\n      pop\n      pop\n      jump\t// out\n        /* \"#utility.yul\":10979:11292   */\n    tag_32:\n        /* \"#utility.yul\":11092:11096   */\n      0x00\n        /* \"#utility.yul\":11130:11132   */\n      0x20\n        /* \"#utility.yul\":11119:11128   */\n      dup3\n        /* \"#utility.yul\":11115:11133   */\n      add\n        /* \"#utility.yul\":11107:11133   */\n      swap1\n      pop\n        /* \"#utility.yul\":11179:11188   */\n      dup2\n        /* \"#utility.yul\":11173:11177   */\n      dup2\n        /* \"#utility.yul\":11169:11189   */\n      sub\n        /* \"#utility.yul\":11165:11166   */\n      0x00\n        /* \"#utility.yul\":11154:11163   */\n      dup4\n        /* \"#utility.yul\":11150:11167   */\n      add\n        /* \"#utility.yul\":11143:11190   */\n      mstore\n        /* \"#utility.yul\":11207:11285   */\n      tag_379\n        /* \"#utility.yul\":11280:11284   */\n      dup2\n        /* \"#utility.yul\":11271:11277   */\n      dup5\n        /* \"#utility.yul\":11207:11285   */\n      tag_299\n      jump\t// in\n    tag_379:\n        /* \"#utility.yul\":11199:11285   */\n      swap1\n      pop\n        /* \"#utility.yul\":10979:11292   */\n      swap3\n      swap2\n      pop\n      pop\n      jump\t// out\n        /* \"#utility.yul\":11298:11800   */\n    tag_182:\n        /* \"#utility.yul\":11453:11457   */\n      0x00\n        /* \"#utility.yul\":11491:11493   */\n      0x40\n        /* \"#utility.yul\":11480:11489   */\n      dup3\n        /* \"#utility.yul\":11476:11494   */\n      add\n        /* \"#utility.yul\":11468:11494   */\n      swap1\n      pop\n        /* \"#utility.yul\":11540:11549   */\n      dup2\n        /* \"#utility.yul\":11534:11538   */\n      dup2\n        /* \"#utility.yul\":11530:11550   */\n      sub\n        /* \"#utility.yul\":11526:11527   */\n      0x00\n        /* \"#utility.yul\":11515:11524   */\n      dup4\n        /* \"#utility.yul\":11511:11528   */\n      add\n        /* \"#utility.yul\":11504:11551   */\n      mstore\n        /* \"#utility.yul\":11568:11643   */\n      tag_381\n        /* \"#utility.yul\":11638:11642   */\n      dup2\n        /* \"#utility.yul\":11629:11635   */\n      dup6\n        /* \"#utility.yul\":11568:11643   */\n      tag_309\n      jump\t// in\n    tag_381:\n        /* \"#utility.yul\":11560:11643   */\n      swap1\n      pop\n        /* \"#utility.yul\":11690:11699   */\n      dup2\n        /* \"#utility.yul\":11684:11688   */\n      dup2\n        /* \"#utility.yul\":11680:11700   */\n      sub\n        /* \"#utility.yul\":11675:11677   */\n      0x20\n        /* \"#utility.yul\":11664:11673   */\n      dup4\n        /* \"#utility.yul\":11660:11678   */\n      add\n        /* \"#utility.yul\":11653:11701   */\n      mstore\n        /* \"#utility.yul\":11718:11793   */\n      tag_382\n        /* \"#utility.yul\":11788:11792   */\n      dup2\n        /* \"#utility.yul\":11779:11785   */\n      dup5\n        /* \"#utility.yul\":11718:11793   */\n      tag_309\n      jump\t// in\n    tag_382:\n        /* \"#utility.yul\":11710:11793   */\n      swap1\n      pop\n        /* \"#utility.yul\":11298:11800   */\n      swap4\n      swap3\n      pop\n      pop\n      pop\n      jump\t// out\n        /* \"#utility.yul\":11806:12225   */\n    tag_74:\n        /* \"#utility.yul\":11972:11976   */\n      0x00\n        /* \"#utility.yul\":12010:12012   */\n      0x20\n        /* \"#utility.yul\":11999:12008   */\n      dup3\n        /* \"#utility.yul\":11995:12013   */\n      add\n        /* \"#utility.yul\":11987:12013   */\n      swap1\n      pop\n        /* \"#utility.yul\":12059:12068   */\n      dup2\n        /* \"#utility.yul\":12053:12057   */\n      dup2\n        /* \"#utility.yul\":12049:12069   */\n      sub\n        /* \"#utility.yul\":12045:12046   */\n      0x00\n        /* \"#utility.yul\":12034:12043   */\n      dup4\n        /* \"#utility.yul\":12030:12047   */\n      add\n        /* \"#utility.yul\":12023:12070   */\n      mstore\n        /* \"#utility.yul\":12087:12218   */\n      tag_384\n        /* \"#utility.yul\":12213:12217   */\n      dup2\n        /* \"#utility.yul\":12087:12218   */\n      tag_321\n      jump\t// in\n    tag_384:\n        /* \"#utility.yul\":12079:12218   */\n      swap1\n      pop\n        /* \"#utility.yul\":11806:12225   */\n      swap2\n      swap1\n      pop\n      jump\t// out\n        /* \"#utility.yul\":12231:12650   */\n    tag_195:\n        /* \"#utility.yul\":12397:12401   */\n      0x00\n        /* \"#utility.yul\":12435:12437   */\n      0x20\n        /* \"#utility.yul\":12424:12433   */\n      dup3\n        /* \"#utility.yul\":12420:12438   */\n      add\n        /* \"#utility.yul\":12412:12438   */\n      swap1\n      pop\n        /* \"#utility.yul\":12484:12493   */\n      dup2\n        /* \"#utility.yul\":12478:12482   */\n      dup2\n        /* \"#utility.yul\":12474:12494   */\n      sub\n        /* \"#utility.yul\":12470:12471   */\n      0x00\n        /* \"#utility.yul\":12459:12468   */\n      dup4\n        /* \"#utility.yul\":12455:12472   */\n      add\n        /* \"#utility.yul\":12448:12495   */\n      mstore\n        /* \"#utility.yul\":12512:12643   */\n      tag_386\n        /* \"#utility.yul\":12638:12642   */\n      dup2\n        /* \"#utility.yul\":12512:12643   */\n      tag_326\n      jump\t// in\n    tag_386:\n        /* \"#utility.yul\":12504:12643   */\n      swap1\n      pop\n        /* \"#utility.yul\":12231:12650   */\n      swap2\n      swap1\n      pop\n      jump\t// out\n        /* \"#utility.yul\":12656:13185   */\n    tag_204:\n        /* \"#utility.yul\":12850:12854   */\n      0x00\n        /* \"#utility.yul\":12888:12890   */\n      0x40\n        /* \"#utility.yul\":12877:12886   */\n      dup3\n        /* \"#utility.yul\":12873:12891   */\n      add\n        /* \"#utility.yul\":12865:12891   */\n      swap1\n      pop\n        /* \"#utility.yul\":12937:12946   */\n      dup2\n        /* \"#utility.yul\":12931:12935   */\n      dup2\n        /* \"#utility.yul\":12927:12947   */\n      sub\n        /* \"#utility.yul\":12923:12924   */\n      0x00\n        /* \"#utility.yul\":12912:12921   */\n      dup4\n        /* \"#utility.yul\":12908:12925   */\n      add\n        /* \"#utility.yul\":12901:12948   */\n      mstore\n        /* \"#utility.yul\":12965:13096   */\n      tag_388\n        /* \"#utility.yul\":13091:13095   */\n      dup2\n        /* \"#utility.yul\":12965:13096   */\n      tag_331\n      jump\t// in\n    tag_388:\n        /* \"#utility.yul\":12957:13096   */\n      swap1\n      pop\n        /* \"#utility.yul\":13106:13178   */\n      tag_389\n        /* \"#utility.yul\":13174:13176   */\n      0x20\n        /* \"#utility.yul\":13163:13172   */\n      dup4\n        /* \"#utility.yul\":13159:13177   */\n      add\n        /* \"#utility.yul\":13150:13156   */\n      dup5\n        /* \"#utility.yul\":13106:13178   */\n      tag_349\n      jump\t// in\n    tag_389:\n        /* \"#utility.yul\":12656:13185   */\n      swap3\n      swap2\n      pop\n      pop\n      jump\t// out\n        /* \"#utility.yul\":13191:13610   */\n    tag_147:\n        /* \"#utility.yul\":13357:13361   */\n      0x00\n        /* \"#utility.yul\":13395:13397   */\n      0x20\n        /* \"#utility.yul\":13384:13393   */\n      dup3\n        /* \"#utility.yul\":13380:13398   */\n      add\n        /* \"#utility.yul\":13372:13398   */\n      swap1\n      pop\n        /* \"#utility.yul\":13444:13453   */\n      dup2\n        /* \"#utility.yul\":13438:13442   */\n      dup2\n        /* \"#utility.yul\":13434:13454   */\n      sub\n        /* \"#utility.yul\":13430:13431   */\n      0x00\n        /* \"#utility.yul\":13419:13428   */\n      dup4\n        /* \"#utility.yul\":13415:13432   */\n      add\n        /* \"#utility.yul\":13408:13455   */\n      mstore\n        /* \"#utility.yul\":13472:13603   */\n      tag_391\n        /* \"#utility.yul\":13598:13602   */\n      dup2\n        /* \"#utility.yul\":13472:13603   */\n      tag_336\n      jump\t// in\n    tag_391:\n        /* \"#utility.yul\":13464:13603   */\n      swap1\n      pop\n        /* \"#utility.yul\":13191:13610   */\n      swap2\n      swap1\n      pop\n      jump\t// out\n        /* \"#utility.yul\":13616:14145   */\n    tag_115:\n        /* \"#utility.yul\":13810:13814   */\n      0x00\n        /* \"#utility.yul\":13848:13850   */\n      0x40\n        /* \"#utility.yul\":13837:13846   */\n      dup3\n        /* \"#utility.yul\":13833:13851   */\n      add\n        /* \"#utility.yul\":13825:13851   */\n      swap1\n      pop\n        /* \"#utility.yul\":13897:13906   */\n      dup2\n        /* \"#utility.yul\":13891:13895   */\n      dup2\n        /* \"#utility.yul\":13887:13907   */\n      sub\n        /* \"#utility.yul\":13883:13884   */\n      0x00\n        /* \"#utility.yul\":13872:13881   */\n      dup4\n        /* \"#utility.yul\":13868:13885   */\n      add\n        /* \"#utility.yul\":13861:13908   */\n      mstore\n        /* \"#utility.yul\":13925:14056   */\n      tag_393\n        /* \"#utility.yul\":14051:14055   */\n      dup2\n        /* \"#utility.yul\":13925:14056   */\n      tag_341\n      jump\t// in\n    tag_393:\n        /* \"#utility.yul\":13917:14056   */\n      swap1\n      pop\n        /* \"#utility.yul\":14066:14138   */\n      tag_394\n        /* \"#utility.yul\":14134:14136   */\n      0x20\n        /* \"#utility.yul\":14123:14132   */\n      dup4\n        /* \"#utility.yul\":14119:14137   */\n      add\n        /* \"#utility.yul\":14110:14116   */\n      dup5\n        /* \"#utility.yul\":14066:14138   */\n      tag_349\n      jump\t// in\n    tag_394:\n        /* \"#utility.yul\":13616:14145   */\n      swap3\n      swap2\n      pop\n      pop\n      jump\t// out\n        /* \"#utility.yul\":14151:14373   */\n    tag_20:\n        /* \"#utility.yul\":14244:14248   */\n      0x00\n        /* \"#utility.yul\":14282:14284   */\n      0x20\n        /* \"#utility.yul\":14271:14280   */\n      dup3\n        /* \"#utility.yul\":14267:14285   */\n      add\n        /* \"#utility.yul\":14259:14285   */\n      swap1\n      pop\n        /* \"#utility.yul\":14295:14366   */\n      tag_396\n        /* \"#utility.yul\":14363:14364   */\n      0x00\n        /* \"#utility.yul\":14352:14361   */\n      dup4\n        /* \"#utility.yul\":14348:14365   */\n      add\n        /* \"#utility.yul\":14339:14345   */\n      dup5\n        /* \"#utility.yul\":14295:14366   */\n      tag_349\n      jump\t// in\n    tag_396:\n        /* \"#utility.yul\":14151:14373   */\n      swap3\n      swap2\n      pop\n      pop\n      jump\t// out\n        /* \"#utility.yul\":14379:14508   */\n    tag_225:\n        /* \"#utility.yul\":14413:14419   */\n      0x00\n        /* \"#utility.yul\":14440:14460   */\n      tag_398\n      tag_399\n      jump\t// in\n    tag_398:\n        /* \"#utility.yul\":14430:14460   */\n      swap1\n      pop\n        /* \"#utility.yul\":14469:14502   */\n      tag_400\n        /* \"#utility.yul\":14497:14501   */\n      dup3\n        /* \"#utility.yul\":14489:14495   */\n      dup3\n        /* \"#utility.yul\":14469:14502   */\n      tag_401\n      jump\t// in\n    tag_400:\n        /* \"#utility.yul\":14379:14508   */\n      swap2\n      swap1\n      pop\n      jump\t// out\n        /* \"#utility.yul\":14514:14589   */\n    tag_399:\n        /* \"#utility.yul\":14547:14553   */\n      0x00\n        /* \"#utility.yul\":14580:14582   */\n      0x40\n        /* \"#utility.yul\":14574:14583   */\n      mload\n        /* \"#utility.yul\":14564:14583   */\n      swap1\n      pop\n        /* \"#utility.yul\":14514:14589   */\n      swap1\n      jump\t// out\n        /* \"#utility.yul\":14595:14903   */\n    tag_224:\n        /* \"#utility.yul\":14657:14661   */\n      0x00\n        /* \"#utility.yul\":14747:14765   */\n      0xffffffffffffffff\n        /* \"#utility.yul\":14739:14745   */\n      dup3\n        /* \"#utility.yul\":14736:14766   */\n      gt\n        /* \"#utility.yul\":14733:14789   */\n      iszero\n      tag_404\n      jumpi\n        /* \"#utility.yul\":14769:14787   */\n      tag_405\n      tag_406\n      jump\t// in\n    tag_405:\n        /* \"#utility.yul\":14733:14789   */\n    tag_404:\n        /* \"#utility.yul\":14807:14836   */\n      tag_407\n        /* \"#utility.yul\":14829:14835   */\n      dup3\n        /* \"#utility.yul\":14807:14836   */\n      tag_308\n      jump\t// in\n    tag_407:\n        /* \"#utility.yul\":14799:14836   */\n      swap1\n      pop\n        /* \"#utility.yul\":14891:14895   */\n      0x20\n        /* \"#utility.yul\":14885:14889   */\n      dup2\n        /* \"#utility.yul\":14881:14896   */\n      add\n        /* \"#utility.yul\":14873:14896   */\n      swap1\n      pop\n        /* \"#utility.yul\":14595:14903   */\n      swap2\n      swap1\n      pop\n      jump\t// out\n        /* \"#utility.yul\":14909:15041   */\n    tag_292:\n        /* \"#utility.yul\":14976:14980   */\n      0x00\n        /* \"#utility.yul\":14999:15002   */\n      dup2\n        /* \"#utility.yul\":14991:15002   */\n      swap1\n      pop\n        /* \"#utility.yul\":15029:15033   */\n      0x20\n        /* \"#utility.yul\":15024:15027   */\n      dup3\n        /* \"#utility.yul\":15020:15034   */\n      add\n        /* \"#utility.yul\":15012:15034   */\n      swap1\n      pop\n        /* \"#utility.yul\":14909:15041   */\n      swap2\n      swap1\n      pop\n      jump\t// out\n        /* \"#utility.yul\":15047:15188   */\n    tag_317:\n        /* \"#utility.yul\":15096:15100   */\n      0x00\n        /* \"#utility.yul\":15119:15122   */\n      dup2\n        /* \"#utility.yul\":15111:15122   */\n      swap1\n      pop\n        /* \"#utility.yul\":15142:15145   */\n      dup2\n        /* \"#utility.yul\":15139:15140   */\n      0x00\n        /* \"#utility.yul\":15132:15146   */\n      mstore\n        /* \"#utility.yul\":15176:15180   */\n      0x20\n        /* \"#utility.yul\":15173:15174   */\n      0x00\n        /* \"#utility.yul\":15163:15181   */\n      keccak256\n        /* \"#utility.yul\":15155:15181   */\n      swap1\n      pop\n        /* \"#utility.yul\":15047:15188   */\n      swap2\n      swap1\n      pop\n      jump\t// out\n        /* \"#utility.yul\":15194:15308   */\n    tag_288:\n        /* \"#utility.yul\":15261:15267   */\n      0x00\n        /* \"#utility.yul\":15295:15300   */\n      dup2\n        /* \"#utility.yul\":15289:15301   */\n      mload\n        /* \"#utility.yul\":15279:15301   */\n      swap1\n      pop\n        /* \"#utility.yul\":15194:15308   */\n      swap2\n      swap1\n      pop\n      jump\t// out\n        /* \"#utility.yul\":15314:15413   */\n    tag_302:\n        /* \"#utility.yul\":15366:15372   */\n      0x00\n        /* \"#utility.yul\":15400:15405   */\n      dup2\n        /* \"#utility.yul\":15394:15406   */\n      mload\n        /* \"#utility.yul\":15384:15406   */\n      swap1\n      pop\n        /* \"#utility.yul\":15314:15413   */\n      swap2\n      swap1\n      pop\n      jump\t// out\n        /* \"#utility.yul\":15419:15532   */\n    tag_298:\n        /* \"#utility.yul\":15489:15493   */\n      0x00\n        /* \"#utility.yul\":15521:15525   */\n      0x20\n        /* \"#utility.yul\":15516:15519   */\n      dup3\n        /* \"#utility.yul\":15512:15526   */\n      add\n        /* \"#utility.yul\":15504:15526   */\n      swap1\n      pop\n        /* \"#utility.yul\":15419:15532   */\n      swap2\n      swap1\n      pop\n      jump\t// out\n        /* \"#utility.yul\":15538:15722   */\n    tag_290:\n        /* \"#utility.yul\":15637:15648   */\n      0x00\n        /* \"#utility.yul\":15671:15677   */\n      dup3\n        /* \"#utility.yul\":15666:15669   */\n      dup3\n        /* \"#utility.yul\":15659:15678   */\n      mstore\n        /* \"#utility.yul\":15711:15715   */\n      0x20\n        /* \"#utility.yul\":15706:15709   */\n      dup3\n        /* \"#utility.yul\":15702:15716   */\n      add\n        /* \"#utility.yul\":15687:15716   */\n      swap1\n      pop\n        /* \"#utility.yul\":15538:15722   */\n      swap3\n      swap2\n      pop\n      pop\n      jump\t// out\n        /* \"#utility.yul\":15728:15897   */\n    tag_304:\n        /* \"#utility.yul\":15812:15823   */\n      0x00\n        /* \"#utility.yul\":15846:15852   */\n      dup3\n        /* \"#utility.yul\":15841:15844   */\n      dup3\n        /* \"#utility.yul\":15834:15853   */\n      mstore\n        /* \"#utility.yul\":15886:15890   */\n      0x20\n        /* \"#utility.yul\":15881:15884   */\n      dup3\n        /* \"#utility.yul\":15877:15891   */\n      add\n        /* \"#utility.yul\":15862:15891   */\n      swap1\n      pop\n        /* \"#utility.yul\":15728:15897   */\n      swap3\n      swap2\n      pop\n      pop\n      jump\t// out\n        /* \"#utility.yul\":15903:16208   */\n    tag_77:\n        /* \"#utility.yul\":15943:15946   */\n      0x00\n        /* \"#utility.yul\":15962:15982   */\n      tag_416\n        /* \"#utility.yul\":15980:15981   */\n      dup3\n        /* \"#utility.yul\":15962:15982   */\n      tag_348\n      jump\t// in\n    tag_416:\n        /* \"#utility.yul\":15957:15982   */\n      swap2\n      pop\n        /* \"#utility.yul\":15996:16016   */\n      tag_417\n        /* \"#utility.yul\":16014:16015   */\n      dup4\n        /* \"#utility.yul\":15996:16016   */\n      tag_348\n      jump\t// in\n    tag_417:\n        /* \"#utility.yul\":15991:16016   */\n      swap3\n      pop\n        /* \"#utility.yul\":16150:16151   */\n      dup3\n        /* \"#utility.yul\":16082:16148   */\n      0xffffffffffffffffffffffffffffffffffffffffffffffffffffffffffffffff\n        /* \"#utility.yul\":16078:16152   */\n      sub\n        /* \"#utility.yul\":16075:16076   */\n      dup3\n        /* \"#utility.yul\":16072:16153   */\n      gt\n        /* \"#utility.yul\":16069:16176   */\n      iszero\n      tag_418\n      jumpi\n        /* \"#utility.yul\":16156:16174   */\n      tag_419\n      tag_420\n      jump\t// in\n    tag_419:\n        /* \"#utility.yul\":16069:16176   */\n    tag_418:\n        /* \"#utility.yul\":16200:16201   */\n      dup3\n        /* \"#utility.yul\":16197:16198   */\n      dup3\n        /* \"#utility.yul\":16193:16202   */\n      add\n        /* \"#utility.yul\":16186:16202   */\n      swap1\n      pop\n        /* \"#utility.yul\":15903:16208   */\n      swap3\n      swap2\n      pop\n      pop\n      jump\t// out\n        /* \"#utility.yul\":16214:16562   */\n    tag_199:\n        /* \"#utility.yul\":16254:16261   */\n      0x00\n        /* \"#utility.yul\":16277:16297   */\n      tag_422\n        /* \"#utility.yul\":16295:16296   */\n      dup3\n        /* \"#utility.yul\":16277:16297   */\n      tag_348\n      jump\t// in\n    tag_422:\n        /* \"#utility.yul\":16272:16297   */\n      swap2\n      pop\n        /* \"#utility.yul\":16311:16331   */\n      tag_423\n        /* \"#utility.yul\":16329:16330   */\n      dup4\n        /* \"#utility.yul\":16311:16331   */\n      tag_348\n      jump\t// in\n    tag_423:\n        /* \"#utility.yul\":16306:16331   */\n      swap3\n      pop\n        /* \"#utility.yul\":16499:16500   */\n      dup2\n        /* \"#utility.yul\":16431:16497   */\n      0xffffffffffffffffffffffffffffffffffffffffffffffffffffffffffffffff\n        /* \"#utility.yul\":16427:16501   */\n      div\n        /* \"#utility.yul\":16424:16425   */\n      dup4\n        /* \"#utility.yul\":16421:16502   */\n      gt\n        /* \"#utility.yul\":16416:16417   */\n      dup3\n        /* \"#utility.yul\":16409:16418   */\n      iszero\n        /* \"#utility.yul\":16402:16419   */\n      iszero\n        /* \"#utility.yul\":16398:16503   */\n      and\n        /* \"#utility.yul\":16395:16526   */\n      iszero\n      tag_424\n      jumpi\n        /* \"#utility.yul\":16506:16524   */\n      tag_425\n      tag_420\n      jump\t// in\n    tag_425:\n        /* \"#utility.yul\":16395:16526   */\n    tag_424:\n        /* \"#utility.yul\":16554:16555   */\n      dup3\n        /* \"#utility.yul\":16551:16552   */\n      dup3\n        /* \"#utility.yul\":16547:16556   */\n      mul\n        /* \"#utility.yul\":16536:16556   */\n      swap1\n      pop\n        /* \"#utility.yul\":16214:16562   */\n      swap3\n      swap2\n      pop\n      pop\n      jump\t// out\n        /* \"#utility.yul\":16568:16759   */\n    tag_87:\n        /* \"#utility.yul\":16608:16612   */\n      0x00\n        /* \"#utility.yul\":16628:16648   */\n      tag_427\n        /* \"#utility.yul\":16646:16647   */\n      dup3\n        /* \"#utility.yul\":16628:16648   */\n      tag_348\n      jump\t// in\n    tag_427:\n        /* \"#utility.yul\":16623:16648   */\n      swap2\n      pop\n        /* \"#utility.yul\":16662:16682   */\n      tag_428\n        /* \"#utility.yul\":16680:16681   */\n      dup4\n        /* \"#utility.yul\":16662:16682   */\n      tag_348\n      jump\t// in\n    tag_428:\n        /* \"#utility.yul\":16657:16682   */\n      swap3\n      pop\n        /* \"#utility.yul\":16701:16702   */\n      dup3\n        /* \"#utility.yul\":16698:16699   */\n      dup3\n        /* \"#utility.yul\":16695:16703   */\n      lt\n        /* \"#utility.yul\":16692:16726   */\n      iszero\n      tag_429\n      jumpi\n        /* \"#utility.yul\":16706:16724   */\n      tag_430\n      tag_420\n      jump\t// in\n    tag_430:\n        /* \"#utility.yul\":16692:16726   */\n    tag_429:\n        /* \"#utility.yul\":16751:16752   */\n      dup3\n        /* \"#utility.yul\":16748:16749   */\n      dup3\n        /* \"#utility.yul\":16744:16753   */\n      sub\n        /* \"#utility.yul\":16736:16753   */\n      swap1\n      pop\n        /* \"#utility.yul\":16568:16759   */\n      swap3\n      swap2\n      pop\n      pop\n      jump\t// out\n        /* \"#utility.yul\":16765:16861   */\n    tag_284:\n        /* \"#utility.yul\":16802:16809   */\n      0x00\n        /* \"#utility.yul\":16831:16855   */\n      tag_432\n        /* \"#utility.yul\":16849:16854   */\n      dup3\n        /* \"#utility.yul\":16831:16855   */\n      tag_433\n      jump\t// in\n    tag_432:\n        /* \"#utility.yul\":16820:16855   */\n      swap1\n      pop\n        /* \"#utility.yul\":16765:16861   */\n      swap2\n      swap1\n      pop\n      jump\t// out\n        /* \"#utility.yul\":16867:16993   */\n    tag_433:\n        /* \"#utility.yul\":16904:16911   */\n      0x00\n        /* \"#utility.yul\":16944:16986   */\n      0xffffffffffffffffffffffffffffffffffffffff\n        /* \"#utility.yul\":16937:16942   */\n      dup3\n        /* \"#utility.yul\":16933:16987   */\n      and\n        /* \"#utility.yul\":16922:16987   */\n      swap1\n      pop\n        /* \"#utility.yul\":16867:16993   */\n      swap2\n      swap1\n      pop\n      jump\t// out\n        /* \"#utility.yul\":16999:17076   */\n    tag_348:\n        /* \"#utility.yul\":17036:17043   */\n      0x00\n        /* \"#utility.yul\":17065:17070   */\n      dup2\n        /* \"#utility.yul\":17054:17070   */\n      swap1\n      pop\n        /* \"#utility.yul\":16999:17076   */\n      swap2\n      swap1\n      pop\n      jump\t// out\n        /* \"#utility.yul\":17082:17175   */\n    tag_360:\n        /* \"#utility.yul\":17118:17125   */\n      0x00\n        /* \"#utility.yul\":17158:17168   */\n      0xffffffff\n        /* \"#utility.yul\":17151:17156   */\n      dup3\n        /* \"#utility.yul\":17147:17169   */\n      and\n        /* \"#utility.yul\":17136:17169   */\n      swap1\n      pop\n        /* \"#utility.yul\":17082:17175   */\n      swap2\n      swap1\n      pop\n      jump\t// out\n        /* \"#utility.yul\":17181:17335   */\n    tag_230:\n        /* \"#utility.yul\":17265:17271   */\n      dup3\n        /* \"#utility.yul\":17260:17263   */\n      dup2\n        /* \"#utility.yul\":17255:17258   */\n      dup4\n        /* \"#utility.yul\":17242:17272   */\n      calldatacopy\n        /* \"#utility.yul\":17327:17328   */\n      0x00\n        /* \"#utility.yul\":17318:17324   */\n      dup4\n        /* \"#utility.yul\":17313:17316   */\n      dup4\n        /* \"#utility.yul\":17309:17325   */\n      add\n        /* \"#utility.yul\":17302:17329   */\n      mstore\n        /* \"#utility.yul\":17181:17335   */\n      pop\n      pop\n      pop\n      jump\t// out\n        /* \"#utility.yul\":17341:17648   */\n    tag_306:\n        /* \"#utility.yul\":17409:17410   */\n      0x00\n        /* \"#utility.yul\":17419:17532   */\n    tag_439:\n        /* \"#utility.yul\":17433:17439   */\n      dup4\n        /* \"#utility.yul\":17430:17431   */\n      dup2\n        /* \"#utility.yul\":17427:17440   */\n      lt\n        /* \"#utility.yul\":17419:17532   */\n      iszero\n      tag_441\n      jumpi\n        /* \"#utility.yul\":17518:17519   */\n      dup1\n        /* \"#utility.yul\":17513:17516   */\n      dup3\n        /* \"#utility.yul\":17509:17520   */\n      add\n        /* \"#utility.yul\":17503:17521   */\n      mload\n        /* \"#utility.yul\":17499:17500   */\n      dup2\n        /* \"#utility.yul\":17494:17497   */\n      dup5\n        /* \"#utility.yul\":17490:17501   */\n      add\n        /* \"#utility.yul\":17483:17522   */\n      mstore\n        /* \"#utility.yul\":17455:17457   */\n      0x20\n        /* \"#utility.yul\":17452:17453   */\n      dup2\n        /* \"#utility.yul\":17448:17458   */\n      add\n        /* \"#utility.yul\":17443:17458   */\n      swap1\n      pop\n        /* \"#utility.yul\":17419:17532   */\n      jump(tag_439)\n    tag_441:\n        /* \"#utility.yul\":17550:17556   */\n      dup4\n        /* \"#utility.yul\":17547:17548   */\n      dup2\n        /* \"#utility.yul\":17544:17557   */\n      gt\n        /* \"#utility.yul\":17541:17642   */\n      iszero\n      tag_442\n      jumpi\n        /* \"#utility.yul\":17630:17631   */\n      0x00\n        /* \"#utility.yul\":17621:17627   */\n      dup5\n        /* \"#utility.yul\":17616:17619   */\n      dup5\n        /* \"#utility.yul\":17612:17628   */\n      add\n        /* \"#utility.yul\":17605:17632   */\n      mstore\n        /* \"#utility.yul\":17541:17642   */\n    tag_442:\n        /* \"#utility.yul\":17390:17648   */\n      pop\n        /* \"#utility.yul\":17341:17648   */\n      pop\n      pop\n      pop\n      jump\t// out\n        /* \"#utility.yul\":17654:17974   */\n    tag_155:\n        /* \"#utility.yul\":17698:17704   */\n      0x00\n        /* \"#utility.yul\":17735:17736   */\n      0x02\n        /* \"#utility.yul\":17729:17733   */\n      dup3\n        /* \"#utility.yul\":17725:17737   */\n      div\n        /* \"#utility.yul\":17715:17737   */\n      swap1\n      pop\n        /* \"#utility.yul\":17782:17783   */\n      0x01\n        /* \"#utility.yul\":17776:17780   */\n      dup3\n        /* \"#utility.yul\":17772:17784   */\n      and\n        /* \"#utility.yul\":17803:17821   */\n      dup1\n        /* \"#utility.yul\":17793:17874   */\n      tag_444\n      jumpi\n        /* \"#utility.yul\":17859:17863   */\n      0x7f\n        /* \"#utility.yul\":17851:17857   */\n      dup3\n        /* \"#utility.yul\":17847:17864   */\n      and\n        /* \"#utility.yul\":17837:17864   */\n      swap2\n      pop\n        /* \"#utility.yul\":17793:17874   */\n    tag_444:\n        /* \"#utility.yul\":17921:17923   */\n      0x20\n        /* \"#utility.yul\":17913:17919   */\n      dup3\n        /* \"#utility.yul\":17910:17924   */\n      lt\n        /* \"#utility.yul\":17890:17908   */\n      dup2\n        /* \"#utility.yul\":17887:17925   */\n      eq\n        /* \"#utility.yul\":17884:17968   */\n      iszero\n      tag_445\n      jumpi\n        /* \"#utility.yul\":17940:17958   */\n      tag_446\n      tag_447\n      jump\t// in\n    tag_446:\n        /* \"#utility.yul\":17884:17968   */\n    tag_445:\n        /* \"#utility.yul\":17705:17974   */\n      pop\n        /* \"#utility.yul\":17654:17974   */\n      swap2\n      swap1\n      pop\n      jump\t// out\n        /* \"#utility.yul\":17980:18261   */\n    tag_401:\n        /* \"#utility.yul\":18063:18090   */\n      tag_449\n        /* \"#utility.yul\":18085:18089   */\n      dup3\n        /* \"#utility.yul\":18063:18090   */\n      tag_308\n      jump\t// in\n    tag_449:\n        /* \"#utility.yul\":18055:18061   */\n      dup2\n        /* \"#utility.yul\":18051:18091   */\n      add\n        /* \"#utility.yul\":18193:18199   */\n      dup2\n        /* \"#utility.yul\":18181:18191   */\n      dup2\n        /* \"#utility.yul\":18178:18200   */\n      lt\n        /* \"#utility.yul\":18157:18175   */\n      0xffffffffffffffff\n        /* \"#utility.yul\":18145:18155   */\n      dup3\n        /* \"#utility.yul\":18142:18176   */\n      gt\n        /* \"#utility.yul\":18139:18201   */\n      or\n        /* \"#utility.yul\":18136:18224   */\n      iszero\n      tag_450\n      jumpi\n        /* \"#utility.yul\":18204:18222   */\n      tag_451\n      tag_406\n      jump\t// in\n    tag_451:\n        /* \"#utility.yul\":18136:18224   */\n    tag_450:\n        /* \"#utility.yul\":18244:18254   */\n      dup1\n        /* \"#utility.yul\":18240:18242   */\n      0x40\n        /* \"#utility.yul\":18233:18255   */\n      mstore\n        /* \"#utility.yul\":18023:18261   */\n      pop\n        /* \"#utility.yul\":17980:18261   */\n      pop\n      pop\n      jump\t// out\n        /* \"#utility.yul\":18267:18500   */\n    tag_84:\n        /* \"#utility.yul\":18306:18309   */\n      0x00\n        /* \"#utility.yul\":18329:18353   */\n      tag_453\n        /* \"#utility.yul\":18347:18352   */\n      dup3\n        /* \"#utility.yul\":18329:18353   */\n      tag_348\n      jump\t// in\n    tag_453:\n        /* \"#utility.yul\":18320:18353   */\n      swap2\n      pop\n        /* \"#utility.yul\":18375:18441   */\n      0xffffffffffffffffffffffffffffffffffffffffffffffffffffffffffffffff\n        /* \"#utility.yul\":18368:18373   */\n      dup3\n        /* \"#utility.yul\":18365:18442   */\n      eq\n        /* \"#utility.yul\":18362:18465   */\n      iszero\n      tag_454\n      jumpi\n        /* \"#utility.yul\":18445:18463   */\n      tag_455\n      tag_420\n      jump\t// in\n    tag_455:\n        /* \"#utility.yul\":18362:18465   */\n    tag_454:\n        /* \"#utility.yul\":18492:18493   */\n      0x01\n        /* \"#utility.yul\":18485:18490   */\n      dup3\n        /* \"#utility.yul\":18481:18494   */\n      add\n        /* \"#utility.yul\":18474:18494   */\n      swap1\n      pop\n        /* \"#utility.yul\":18267:18500   */\n      swap2\n      swap1\n      pop\n      jump\t// out\n        /* \"#utility.yul\":18506:18585   */\n    tag_356:\n        /* \"#utility.yul\":18545:18552   */\n      0x00\n        /* \"#utility.yul\":18574:18579   */\n      dup2\n        /* \"#utility.yul\":18563:18579   */\n      swap1\n      pop\n        /* \"#utility.yul\":18506:18585   */\n      swap2\n      swap1\n      pop\n      jump\t// out\n        /* \"#utility.yul\":18591:18767   */\n    tag_94:\n        /* \"#utility.yul\":18623:18624   */\n      0x00\n        /* \"#utility.yul\":18640:18660   */\n      tag_458\n        /* \"#utility.yul\":18658:18659   */\n      dup3\n        /* \"#utility.yul\":18640:18660   */\n      tag_348\n      jump\t// in\n    tag_458:\n        /* \"#utility.yul\":18635:18660   */\n      swap2\n      pop\n        /* \"#utility.yul\":18674:18694   */\n      tag_459\n        /* \"#utility.yul\":18692:18693   */\n      dup4\n        /* \"#utility.yul\":18674:18694   */\n      tag_348\n      jump\t// in\n    tag_459:\n        /* \"#utility.yul\":18669:18694   */\n      swap3\n      pop\n        /* \"#utility.yul\":18713:18714   */\n      dup3\n        /* \"#utility.yul\":18703:18738   */\n      tag_460\n      jumpi\n        /* \"#utility.yul\":18718:18736   */\n      tag_461\n      tag_462\n      jump\t// in\n    tag_461:\n        /* \"#utility.yul\":18703:18738   */\n    tag_460:\n        /* \"#utility.yul\":18759:18760   */\n      dup3\n        /* \"#utility.yul\":18756:18757   */\n      dup3\n        /* \"#utility.yul\":18752:18761   */\n      mod\n        /* \"#utility.yul\":18747:18761   */\n      swap1\n      pop\n        /* \"#utility.yul\":18591:18767   */\n      swap3\n      swap2\n      pop\n      pop\n      jump\t// out\n        /* \"#utility.yul\":18773:18953   */\n    tag_420:\n        /* \"#utility.yul\":18821:18898   */\n      0x4e487b7100000000000000000000000000000000000000000000000000000000\n        /* \"#utility.yul\":18818:18819   */\n      0x00\n        /* \"#utility.yul\":18811:18899   */\n      mstore\n        /* \"#utility.yul\":18918:18922   */\n      0x11\n        /* \"#utility.yul\":18915:18916   */\n      0x04\n        /* \"#utility.yul\":18908:18923   */\n      mstore\n        /* \"#utility.yul\":18942:18946   */\n      0x24\n        /* \"#utility.yul\":18939:18940   */\n      0x00\n        /* \"#utility.yul\":18932:18947   */\n      revert\n        /* \"#utility.yul\":18959:19139   */\n    tag_462:\n        /* \"#utility.yul\":19007:19084   */\n      0x4e487b7100000000000000000000000000000000000000000000000000000000\n        /* \"#utility.yul\":19004:19005   */\n      0x00\n        /* \"#utility.yul\":18997:19085   */\n      mstore\n        /* \"#utility.yul\":19104:19108   */\n      0x12\n        /* \"#utility.yul\":19101:19102   */\n      0x04\n        /* \"#utility.yul\":19094:19109   */\n      mstore\n        /* \"#utility.yul\":19128:19132   */\n      0x24\n        /* \"#utility.yul\":19125:19126   */\n      0x00\n        /* \"#utility.yul\":19118:19133   */\n      revert\n        /* \"#utility.yul\":19145:19325   */\n    tag_447:\n        /* \"#utility.yul\":19193:19270   */\n      0x4e487b7100000000000000000000000000000000000000000000000000000000\n        /* \"#utility.yul\":19190:19191   */\n      0x00\n        /* \"#utility.yul\":19183:19271   */\n      mstore\n        /* \"#utility.yul\":19290:19294   */\n      0x22\n        /* \"#utility.yul\":19287:19288   */\n      0x04\n        /* \"#utility.yul\":19280:19295   */\n      mstore\n        /* \"#utility.yul\":19314:19318   */\n      0x24\n        /* \"#utility.yul\":19311:19312   */\n      0x00\n        /* \"#utility.yul\":19304:19319   */\n      revert\n        /* \"#utility.yul\":19331:19511   */\n    tag_103:\n        /* \"#utility.yul\":19379:19456   */\n      0x4e487b7100000000000000000000000000000000000000000000000000000000\n        /* \"#utility.yul\":19376:19377   */\n      0x00\n        /* \"#utility.yul\":19369:19457   */\n      mstore\n        /* \"#utility.yul\":19476:19480   */\n      0x32\n        /* \"#utility.yul\":19473:19474   */\n      0x04\n        /* \"#utility.yul\":19466:19481   */\n      mstore\n        /* \"#utility.yul\":19500:19504   */\n      0x24\n        /* \"#utility.yul\":19497:19498   */\n      0x00\n        /* \"#utility.yul\":19490:19505   */\n      revert\n        /* \"#utility.yul\":19517:19697   */\n    tag_406:\n        /* \"#utility.yul\":19565:19642   */\n      0x4e487b7100000000000000000000000000000000000000000000000000000000\n        /* \"#utility.yul\":19562:19563   */\n      0x00\n        /* \"#utility.yul\":19555:19643   */\n      mstore\n        /* \"#utility.yul\":19662:19666   */\n      0x41\n        /* \"#utility.yul\":19659:19660   */\n      0x04\n        /* \"#utility.yul\":19652:19667   */\n      mstore\n        /* \"#utility.yul\":19686:19690   */\n      0x24\n        /* \"#utility.yul\":19683:19684   */\n      0x00\n        /* \"#utility.yul\":19676:19691   */\n      revert\n        /* \"#utility.yul\":19703:19820   */\n    tag_239:\n        /* \"#utility.yul\":19812:19813   */\n      0x00\n        /* \"#utility.yul\":19809:19810   */\n      dup1\n        /* \"#utility.yul\":19802:19814   */\n      revert\n        /* \"#utility.yul\":19826:19943   */\n    tag_228:\n        /* \"#utility.yul\":19935:19936   */\n      0x00\n        /* \"#utility.yul\":19932:19933   */\n      dup1\n        /* \"#utility.yul\":19925:19937   */\n      revert\n        /* \"#utility.yul\":19949:20066   */\n    tag_255:\n        /* \"#utility.yul\":20058:20059   */\n      0x00\n        /* \"#utility.yul\":20055:20056   */\n      dup1\n        /* \"#utility.yul\":20048:20060   */\n      revert\n        /* \"#utility.yul\":20072:20189   */\n    tag_248:\n        /* \"#utility.yul\":20181:20182   */\n      0x00\n        /* \"#utility.yul\":20178:20179   */\n      dup1\n        /* \"#utility.yul\":20171:20183   */\n      revert\n        /* \"#utility.yul\":20195:20297   */\n    tag_308:\n        /* \"#utility.yul\":20236:20242   */\n      0x00\n        /* \"#utility.yul\":20287:20289   */\n      0x1f\n        /* \"#utility.yul\":20283:20290   */\n      not\n        /* \"#utility.yul\":20278:20280   */\n      0x1f\n        /* \"#utility.yul\":20271:20276   */\n      dup4\n        /* \"#utility.yul\":20267:20281   */\n      add\n        /* \"#utility.yul\":20263:20291   */\n      and\n        /* \"#utility.yul\":20253:20291   */\n      swap1\n      pop\n        /* \"#utility.yul\":20195:20297   */\n      swap2\n      swap1\n      pop\n      jump\t// out\n        /* \"#utility.yul\":20303:20530   */\n    tag_325:\n        /* \"#utility.yul\":20443:20477   */\n      0x536f6c6f2073652070756564652074656e657220756e20636f63686520706f72\n        /* \"#utility.yul\":20439:20440   */\n      0x00\n        /* \"#utility.yul\":20431:20437   */\n      dup3\n        /* \"#utility.yul\":20427:20441   */\n      add\n        /* \"#utility.yul\":20420:20478   */\n      mstore\n        /* \"#utility.yul\":20512:20522   */\n      0x20706572736f6e61000000000000000000000000000000000000000000000000\n        /* \"#utility.yul\":20507:20509   */\n      0x20\n        /* \"#utility.yul\":20499:20505   */\n      dup3\n        /* \"#utility.yul\":20495:20510   */\n      add\n        /* \"#utility.yul\":20488:20523   */\n      mstore\n        /* \"#utility.yul\":20303:20530   */\n      pop\n      jump\t// out\n        /* \"#utility.yul\":20536:20761   */\n    tag_330:\n        /* \"#utility.yul\":20676:20710   */\n      0x4f776e61626c653a206e6577206f776e657220697320746865207a65726f2061\n        /* \"#utility.yul\":20672:20673   */\n      0x00\n        /* \"#utility.yul\":20664:20670   */\n      dup3\n        /* \"#utility.yul\":20660:20674   */\n      add\n        /* \"#utility.yul\":20653:20711   */\n      mstore\n        /* \"#utility.yul\":20745:20753   */\n      0x6464726573730000000000000000000000000000000000000000000000000000\n        /* \"#utility.yul\":20740:20742   */\n      0x20\n        /* \"#utility.yul\":20732:20738   */\n      dup3\n        /* \"#utility.yul\":20728:20743   */\n      add\n        /* \"#utility.yul\":20721:20754   */\n      mstore\n        /* \"#utility.yul\":20536:20761   */\n      pop\n      jump\t// out\n        /* \"#utility.yul\":20767:20929   */\n    tag_335:\n        /* \"#utility.yul\":20907:20921   */\n      0x4861732067616e61646f3a200000000000000000000000000000000000000000\n        /* \"#utility.yul\":20903:20904   */\n      0x00\n        /* \"#utility.yul\":20895:20901   */\n      dup3\n        /* \"#utility.yul\":20891:20905   */\n      add\n        /* \"#utility.yul\":20884:20922   */\n      mstore\n        /* \"#utility.yul\":20767:20929   */\n      pop\n      jump\t// out\n        /* \"#utility.yul\":20935:21117   */\n    tag_340:\n        /* \"#utility.yul\":21075:21109   */\n      0x4f776e61626c653a2063616c6c6572206973206e6f7420746865206f776e6572\n        /* \"#utility.yul\":21071:21072   */\n      0x00\n        /* \"#utility.yul\":21063:21069   */\n      dup3\n        /* \"#utility.yul\":21059:21073   */\n      add\n        /* \"#utility.yul\":21052:21110   */\n      mstore\n        /* \"#utility.yul\":20935:21117   */\n      pop\n      jump\t// out\n        /* \"#utility.yul\":21123:21294   */\n    tag_345:\n        /* \"#utility.yul\":21263:21286   */\n      0x456c20636f6368652067616e61646f722065733a200000000000000000000000\n        /* \"#utility.yul\":21259:21260   */\n      0x00\n        /* \"#utility.yul\":21251:21257   */\n      dup3\n        /* \"#utility.yul\":21247:21261   */\n      add\n        /* \"#utility.yul\":21240:21287   */\n      mstore\n        /* \"#utility.yul\":21123:21294   */\n      pop\n      jump\t// out\n        /* \"#utility.yul\":21300:21422   */\n    tag_234:\n        /* \"#utility.yul\":21373:21397   */\n      tag_479\n        /* \"#utility.yul\":21391:21396   */\n      dup2\n        /* \"#utility.yul\":21373:21397   */\n      tag_284\n      jump\t// in\n    tag_479:\n        /* \"#utility.yul\":21366:21371   */\n      dup2\n        /* \"#utility.yul\":21363:21398   */\n      eq\n        /* \"#utility.yul\":21353:21416   */\n      tag_480\n      jumpi\n        /* \"#utility.yul\":21412:21413   */\n      0x00\n        /* \"#utility.yul\":21409:21410   */\n      dup1\n        /* \"#utility.yul\":21402:21414   */\n      revert\n        /* \"#utility.yul\":21353:21416   */\n    tag_480:\n        /* \"#utility.yul\":21300:21422   */\n      pop\n      jump\t// out\n        /* \"#utility.yul\":21428:21550   */\n    tag_244:\n        /* \"#utility.yul\":21501:21525   */\n      tag_482\n        /* \"#utility.yul\":21519:21524   */\n      dup2\n        /* \"#utility.yul\":21501:21525   */\n      tag_348\n      jump\t// in\n    tag_482:\n        /* \"#utility.yul\":21494:21499   */\n      dup2\n        /* \"#utility.yul\":21491:21526   */\n      eq\n        /* \"#utility.yul\":21481:21544   */\n      tag_483\n      jumpi\n        /* \"#utility.yul\":21540:21541   */\n      0x00\n        /* \"#utility.yul\":21537:21538   */\n      dup1\n        /* \"#utility.yul\":21530:21542   */\n      revert\n        /* \"#utility.yul\":21481:21544   */\n    tag_483:\n        /* \"#utility.yul\":21428:21550   */\n      pop\n      jump\t// out\n\n    auxdata: 0xa2646970667358221220ca98eff64b8dc3a27a8e5522023c3130d74d0794995d96ebf4864c7c797a752164736f6c63430008070033\n}\n",
				"bytecode": {
					"linkReferences": {},
					"object": "608060405260006001556000600255603c60035534801561001f57600080fd5b5061003c61003161004160201b60201c565b61004960201b60201c565b61010d565b600033905090565b60008060009054906101000a900473ffffffffffffffffffffffffffffffffffffffff169050816000806101000a81548173ffffffffffffffffffffffffffffffffffffffff021916908373ffffffffffffffffffffffffffffffffffffffff1602179055508173ffffffffffffffffffffffffffffffffffffffff168173ffffffffffffffffffffffffffffffffffffffff167f8be0079c531659141344cd1fd0a4f28419497f9722a3daafe3b4186f6b6457e060405160405180910390a35050565b611cd08061011c6000396000f3fe60806040526004361061009c5760003560e01c8063858b055411610064578063858b05541461018b5780638da5cb5b146101c8578063d735573d146101f3578063e172fca814610237578063f141376314610274578063f2fde38b1461029f5761009c565b80631c6743e4146100a15780632458c544146100de5780636b6f04941461011b5780636ba2cdf41461014b578063715018a614610174575b600080fd5b3480156100ad57600080fd5b506100c860048036038101906100c39190611130565b6102c8565b6040516100d5919061170f565b60405180910390f35b3480156100ea57600080fd5b506101056004803603810190610100919061115d565b6102e0565b604051610112919061170f565b60405180910390f35b61013560048036038101906101309190611204565b6105c2565b60405161014291906115fa565b60405180910390f35b34801561015757600080fd5b50610172600480360381019061016d9190611231565b6107fe565b005b34801561018057600080fd5b5061018961092f565b005b34801561019757600080fd5b506101b260048036038101906101ad9190611204565b6109b7565b6040516101bf919061152a565b60405180910390f35b3480156101d457600080fd5b506101dd6109ea565b6040516101ea919061152a565b60405180910390f35b3480156101ff57600080fd5b5061021a60048036038101906102159190611204565b610a13565b60405161022e989796959493929190611545565b60405180910390f35b34801561024357600080fd5b5061025e60048036038101906102599190611130565b610c33565b60405161026b91906115d8565b60405180910390f35b34801561028057600080fd5b50610289610d49565b604051610296919061170f565b60405180910390f35b3480156102ab57600080fd5b506102c660048036038101906102c19190611130565b610d97565b005b60066020528060005260406000206000915090505481565b60006001600660003373ffffffffffffffffffffffffffffffffffffffff1673ffffffffffffffffffffffffffffffffffffffff1681526020019081526020016000205410610364576040517f08c379a000000000000000000000000000000000000000000000000000000000815260040161035b90611653565b60405180910390fd5b60046040518061010001604052803373ffffffffffffffffffffffffffffffffffffffff1681526020018681526020018581526020018481526020016000815260200160008152602001600354426103bc91906117ea565b63ffffffff168152602001600063ffffffff16815250908060018154018082558091505060019003906000526020600020906008020160009091909190915060008201518160000160006101000a81548173ffffffffffffffffffffffffffffffffffffffff021916908373ffffffffffffffffffffffffffffffffffffffff160217905550602082015181600101908051906020019061045e929190610ff3565b50604082015181600201908051906020019061047b929190610ff3565b506060820151816003019080519060200190610498929190610ff3565b506080820151816004015560a0820151816005015560c0820151816006015560e08201518160070160006101000a81548163ffffffff021916908363ffffffff160217905550505060006004805490509050336005600083815260200190815260200160002060006101000a81548173ffffffffffffffffffffffffffffffffffffffff021916908373ffffffffffffffffffffffffffffffffffffffff160217905550600660003373ffffffffffffffffffffffffffffffffffffffff1673ffffffffffffffffffffffffffffffffffffffff168152602001908152602001600020600081548092919061058c906119bf565b9190505550600260008154809291906105a4906119bf565b919050555060016002546105b8919061189a565b9150509392505050565b60608134146105d057600080fd5b600160008154809291906105e3906119bf565b919050555060006004805490504260048054905060015460405160200161060c939291906114ed565b6040516020818303038152906040528051906020012060001c61062f9190611a12565b905060016000815480929190610644906119bf565b91905055506000600290506000814283600154604051602001610669939291906114ed565b6040516020818303038152906040528051906020012060001c61068c9190611a12565b905060005b6004805490508110156107f457600481815481106106b2576106b1611ad0565b5b906000526020600020906008020160000160009054906101000a900473ffffffffffffffffffffffffffffffffffffffff1673ffffffffffffffffffffffffffffffffffffffff163373ffffffffffffffffffffffffffffffffffffffff1614156107e157600082141561076957610728610e8f565b6040518060400160405280600a81526020017f4861732067616e61646f000000000000000000000000000000000000000000008152509450505050506107f9565b7fa28482eec3136a2461c6c30c08f71ba279c6c51a2d9c7bea4e50d6d2632f38968460405161079891906116e1565b60405180910390a16040518060400160405280600b81526020017f486173207065726469646f0000000000000000000000000000000000000000008152509450505050506107f9565b80806107ec906119bf565b915050610691565b505050505b919050565b600a83816004828154811061081657610815611ad0565b5b906000526020600020906008020160070160009054906101000a900463ffffffff1663ffffffff16101561084957600080fd5b6005600086815260200190815260200160002060009054906101000a900473ffffffffffffffffffffffffffffffffffffffff1673ffffffffffffffffffffffffffffffffffffffff163373ffffffffffffffffffffffffffffffffffffffff16146108b457600080fd5b83600486815481106108c9576108c8611ad0565b5b906000526020600020906008020160010190805190602001906108ed929190610ff3565b50826004868154811061090357610902611ad0565b5b90600052602060002090600802016002019080519060200190610927929190610ff3565b505050505050565b610937610f27565b73ffffffffffffffffffffffffffffffffffffffff166109556109ea565b73ffffffffffffffffffffffffffffffffffffffff16146109ab576040517f08c379a00000000000000000000000000000000000000000000000000000000081526004016109a2906116c1565b60405180910390fd5b6109b56000610f2f565b565b60056020528060005260406000206000915054906101000a900473ffffffffffffffffffffffffffffffffffffffff1681565b60008060009054906101000a900473ffffffffffffffffffffffffffffffffffffffff16905090565b60048181548110610a2357600080fd5b90600052602060002090600802016000915090508060000160009054906101000a900473ffffffffffffffffffffffffffffffffffffffff1690806001018054610a6c9061195c565b80601f0160208091040260200160405190810160405280929190818152602001828054610a989061195c565b8015610ae55780601f10610aba57610100808354040283529160200191610ae5565b820191906000526020600020905b815481529060010190602001808311610ac857829003601f168201915b505050505090806002018054610afa9061195c565b80601f0160208091040260200160405190810160405280929190818152602001828054610b269061195c565b8015610b735780601f10610b4857610100808354040283529160200191610b73565b820191906000526020600020905b815481529060010190602001808311610b5657829003601f168201915b505050505090806003018054610b889061195c565b80601f0160208091040260200160405190810160405280929190818152602001828054610bb49061195c565b8015610c015780601f10610bd657610100808354040283529160200191610c01565b820191906000526020600020905b815481529060010190602001808311610be457829003601f168201915b5050505050908060040154908060050154908060060154908060070160009054906101000a900463ffffffff16905088565b60608060005b600480549050811015610d42578373ffffffffffffffffffffffffffffffffffffffff166005600083815260200190815260200160002060009054906101000a900473ffffffffffffffffffffffffffffffffffffffff1673ffffffffffffffffffffffffffffffffffffffff161415610d2f577f96408510f58a52b0cfe536e046b25664fa36d8122620ec608c1767b45aa4f03c60048281548110610ce257610ce1611ad0565b5b906000526020600020906008020160020160048381548110610d0757610d06611ad0565b5b9060005260206000209060080201600101604051610d2692919061161c565b60405180910390a15b8080610d3a906119bf565b915050610c39565b5050919050565b600080600290506000814283600154604051602001610d6a939291906114ed565b6040516020818303038152906040528051906020012060001c610d8d9190611a12565b9050809250505090565b610d9f610f27565b73ffffffffffffffffffffffffffffffffffffffff16610dbd6109ea565b73ffffffffffffffffffffffffffffffffffffffff1614610e13576040517f08c379a0000000000000000000000000000000000000000000000000000000008152600401610e0a906116c1565b60405180910390fd5b600073ffffffffffffffffffffffffffffffffffffffff168173ffffffffffffffffffffffffffffffffffffffff161415610e83576040517f08c379a0000000000000000000000000000000000000000000000000000000008152600401610e7a90611673565b60405180910390fd5b610e8c81610f2f565b50565b3373ffffffffffffffffffffffffffffffffffffffff166108fc600247610eb69190611840565b9081150290604051600060405180830381858888f19350505050158015610ee1573d6000803e3d6000fd5b507fa28482eec3136a2461c6c30c08f71ba279c6c51a2d9c7bea4e50d6d2632f3896600247610f109190611840565b604051610f1d9190611693565b60405180910390a1565b600033905090565b60008060009054906101000a900473ffffffffffffffffffffffffffffffffffffffff169050816000806101000a81548173ffffffffffffffffffffffffffffffffffffffff021916908373ffffffffffffffffffffffffffffffffffffffff1602179055508173ffffffffffffffffffffffffffffffffffffffff168173ffffffffffffffffffffffffffffffffffffffff167f8be0079c531659141344cd1fd0a4f28419497f9722a3daafe3b4186f6b6457e060405160405180910390a35050565b828054610fff9061195c565b90600052602060002090601f0160209004810192826110215760008555611068565b82601f1061103a57805160ff1916838001178555611068565b82800160010185558215611068579182015b8281111561106757825182559160200191906001019061104c565b5b5090506110759190611079565b5090565b5b8082111561109257600081600090555060010161107a565b5090565b60006110a96110a48461174f565b61172a565b9050828152602081018484840111156110c5576110c4611b33565b5b6110d084828561191a565b509392505050565b6000813590506110e781611c6c565b92915050565b600082601f83011261110257611101611b2e565b5b8135611112848260208601611096565b91505092915050565b60008135905061112a81611c83565b92915050565b60006020828403121561114657611145611b3d565b5b6000611154848285016110d8565b91505092915050565b60008060006060848603121561117657611175611b3d565b5b600084013567ffffffffffffffff81111561119457611193611b38565b5b6111a0868287016110ed565b935050602084013567ffffffffffffffff8111156111c1576111c0611b38565b5b6111cd868287016110ed565b925050604084013567ffffffffffffffff8111156111ee576111ed611b38565b5b6111fa868287016110ed565b9150509250925092565b60006020828403121561121a57611219611b3d565b5b60006112288482850161111b565b91505092915050565b60008060006060848603121561124a57611249611b3d565b5b60006112588682870161111b565b935050602084013567ffffffffffffffff81111561127957611278611b38565b5b611285868287016110ed565b925050604084013567ffffffffffffffff8111156112a6576112a5611b38565b5b6112b2868287016110ed565b9150509250925092565b60006112c883836114a9565b60208301905092915050565b6112dd816118ce565b82525050565b60006112ee826117a5565b6112f881856117c8565b935061130383611780565b8060005b8381101561133457815161131b88826112bc565b9750611326836117bb565b925050600181019050611307565b5085935050505092915050565b600061134c826117b0565b61135681856117d9565b9350611366818560208601611929565b61136f81611b42565b840191505092915050565b600081546113878161195c565b61139181866117d9565b945060018216600081146113ac57600181146113be576113f1565b60ff19831686526020860193506113f1565b6113c785611790565b60005b838110156113e9578154818901526001820191506020810190506113ca565b808801955050505b50505092915050565b60006114076028836117d9565b915061141282611b53565b604082019050919050565b600061142a6026836117d9565b915061143582611ba2565b604082019050919050565b600061144d600c836117d9565b915061145882611bf1565b602082019050919050565b60006114706020836117d9565b915061147b82611c1a565b602082019050919050565b60006114936015836117d9565b915061149e82611c43565b602082019050919050565b6114b281611900565b82525050565b6114c181611900565b82525050565b6114d86114d382611900565b611a08565b82525050565b6114e78161190a565b82525050565b60006114f982866114c7565b60208201915061150982856114c7565b60208201915061151982846114c7565b602082019150819050949350505050565b600060208201905061153f60008301846112d4565b92915050565b60006101008201905061155b600083018b6112d4565b818103602083015261156d818a611341565b905081810360408301526115818189611341565b905081810360608301526115958188611341565b90506115a460808301876114b8565b6115b160a08301866114b8565b6115be60c08301856114b8565b6115cb60e08301846114de565b9998505050505050505050565b600060208201905081810360008301526115f281846112e3565b905092915050565b600060208201905081810360008301526116148184611341565b905092915050565b60006040820190508181036000830152611636818561137a565b9050818103602083015261164a818461137a565b90509392505050565b6000602082019050818103600083015261166c816113fa565b9050919050565b6000602082019050818103600083015261168c8161141d565b9050919050565b600060408201905081810360008301526116ac81611440565b90506116bb60208301846114b8565b92915050565b600060208201905081810360008301526116da81611463565b9050919050565b600060408201905081810360008301526116fa81611486565b905061170960208301846114b8565b92915050565b600060208201905061172460008301846114b8565b92915050565b6000611734611745565b9050611740828261198e565b919050565b6000604051905090565b600067ffffffffffffffff82111561176a57611769611aff565b5b61177382611b42565b9050602081019050919050565b6000819050602082019050919050565b60008190508160005260206000209050919050565b600081519050919050565b600081519050919050565b6000602082019050919050565b600082825260208201905092915050565b600082825260208201905092915050565b60006117f582611900565b915061180083611900565b9250827fffffffffffffffffffffffffffffffffffffffffffffffffffffffffffffffff0382111561183557611834611a43565b5b828201905092915050565b600061184b82611900565b915061185683611900565b9250817fffffffffffffffffffffffffffffffffffffffffffffffffffffffffffffffff048311821515161561188f5761188e611a43565b5b828202905092915050565b60006118a582611900565b91506118b083611900565b9250828210156118c3576118c2611a43565b5b828203905092915050565b60006118d9826118e0565b9050919050565b600073ffffffffffffffffffffffffffffffffffffffff82169050919050565b6000819050919050565b600063ffffffff82169050919050565b82818337600083830152505050565b60005b8381101561194757808201518184015260208101905061192c565b83811115611956576000848401525b50505050565b6000600282049050600182168061197457607f821691505b6020821081141561198857611987611aa1565b5b50919050565b61199782611b42565b810181811067ffffffffffffffff821117156119b6576119b5611aff565b5b80604052505050565b60006119ca82611900565b91507fffffffffffffffffffffffffffffffffffffffffffffffffffffffffffffffff8214156119fd576119fc611a43565b5b600182019050919050565b6000819050919050565b6000611a1d82611900565b9150611a2883611900565b925082611a3857611a37611a72565b5b828206905092915050565b7f4e487b7100000000000000000000000000000000000000000000000000000000600052601160045260246000fd5b7f4e487b7100000000000000000000000000000000000000000000000000000000600052601260045260246000fd5b7f4e487b7100000000000000000000000000000000000000000000000000000000600052602260045260246000fd5b7f4e487b7100000000000000000000000000000000000000000000000000000000600052603260045260246000fd5b7f4e487b7100000000000000000000000000000000000000000000000000000000600052604160045260246000fd5b600080fd5b600080fd5b600080fd5b600080fd5b6000601f19601f8301169050919050565b7f536f6c6f2073652070756564652074656e657220756e20636f63686520706f7260008201527f20706572736f6e61000000000000000000000000000000000000000000000000602082015250565b7f4f776e61626c653a206e6577206f776e657220697320746865207a65726f206160008201527f6464726573730000000000000000000000000000000000000000000000000000602082015250565b7f4861732067616e61646f3a200000000000000000000000000000000000000000600082015250565b7f4f776e61626c653a2063616c6c6572206973206e6f7420746865206f776e6572600082015250565b7f456c20636f6368652067616e61646f722065733a200000000000000000000000600082015250565b611c75816118ce565b8114611c8057600080fd5b50565b611c8c81611900565b8114611c9757600080fd5b5056fea2646970667358221220ca98eff64b8dc3a27a8e5522023c3130d74d0794995d96ebf4864c7c797a752164736f6c63430008070033",
					"opcodes": "PUSH1 0x80 PUSH1 0x40 MSTORE PUSH1 0x0 PUSH1 0x1 SSTORE PUSH1 0x0 PUSH1 0x2 SSTORE PUSH1 0x3C PUSH1 0x3 SSTORE CALLVALUE DUP1 ISZERO PUSH2 0x1F JUMPI PUSH1 0x0 DUP1 REVERT JUMPDEST POP PUSH2 0x3C PUSH2 0x31 PUSH2 0x41 PUSH1 0x20 SHL PUSH1 0x20 SHR JUMP JUMPDEST PUSH2 0x49 PUSH1 0x20 SHL PUSH1 0x20 SHR JUMP JUMPDEST PUSH2 0x10D JUMP JUMPDEST PUSH1 0x0 CALLER SWAP1 POP SWAP1 JUMP JUMPDEST PUSH1 0x0 DUP1 PUSH1 0x0 SWAP1 SLOAD SWAP1 PUSH2 0x100 EXP SWAP1 DIV PUSH20 0xFFFFFFFFFFFFFFFFFFFFFFFFFFFFFFFFFFFFFFFF AND SWAP1 POP DUP2 PUSH1 0x0 DUP1 PUSH2 0x100 EXP DUP2 SLOAD DUP2 PUSH20 0xFFFFFFFFFFFFFFFFFFFFFFFFFFFFFFFFFFFFFFFF MUL NOT AND SWAP1 DUP4 PUSH20 0xFFFFFFFFFFFFFFFFFFFFFFFFFFFFFFFFFFFFFFFF AND MUL OR SWAP1 SSTORE POP DUP2 PUSH20 0xFFFFFFFFFFFFFFFFFFFFFFFFFFFFFFFFFFFFFFFF AND DUP2 PUSH20 0xFFFFFFFFFFFFFFFFFFFFFFFFFFFFFFFFFFFFFFFF AND PUSH32 0x8BE0079C531659141344CD1FD0A4F28419497F9722A3DAAFE3B4186F6B6457E0 PUSH1 0x40 MLOAD PUSH1 0x40 MLOAD DUP1 SWAP2 SUB SWAP1 LOG3 POP POP JUMP JUMPDEST PUSH2 0x1CD0 DUP1 PUSH2 0x11C PUSH1 0x0 CODECOPY PUSH1 0x0 RETURN INVALID PUSH1 0x80 PUSH1 0x40 MSTORE PUSH1 0x4 CALLDATASIZE LT PUSH2 0x9C JUMPI PUSH1 0x0 CALLDATALOAD PUSH1 0xE0 SHR DUP1 PUSH4 0x858B0554 GT PUSH2 0x64 JUMPI DUP1 PUSH4 0x858B0554 EQ PUSH2 0x18B JUMPI DUP1 PUSH4 0x8DA5CB5B EQ PUSH2 0x1C8 JUMPI DUP1 PUSH4 0xD735573D EQ PUSH2 0x1F3 JUMPI DUP1 PUSH4 0xE172FCA8 EQ PUSH2 0x237 JUMPI DUP1 PUSH4 0xF1413763 EQ PUSH2 0x274 JUMPI DUP1 PUSH4 0xF2FDE38B EQ PUSH2 0x29F JUMPI PUSH2 0x9C JUMP JUMPDEST DUP1 PUSH4 0x1C6743E4 EQ PUSH2 0xA1 JUMPI DUP1 PUSH4 0x2458C544 EQ PUSH2 0xDE JUMPI DUP1 PUSH4 0x6B6F0494 EQ PUSH2 0x11B JUMPI DUP1 PUSH4 0x6BA2CDF4 EQ PUSH2 0x14B JUMPI DUP1 PUSH4 0x715018A6 EQ PUSH2 0x174 JUMPI JUMPDEST PUSH1 0x0 DUP1 REVERT JUMPDEST CALLVALUE DUP1 ISZERO PUSH2 0xAD JUMPI PUSH1 0x0 DUP1 REVERT JUMPDEST POP PUSH2 0xC8 PUSH1 0x4 DUP1 CALLDATASIZE SUB DUP2 ADD SWAP1 PUSH2 0xC3 SWAP2 SWAP1 PUSH2 0x1130 JUMP JUMPDEST PUSH2 0x2C8 JUMP JUMPDEST PUSH1 0x40 MLOAD PUSH2 0xD5 SWAP2 SWAP1 PUSH2 0x170F JUMP JUMPDEST PUSH1 0x40 MLOAD DUP1 SWAP2 SUB SWAP1 RETURN JUMPDEST CALLVALUE DUP1 ISZERO PUSH2 0xEA JUMPI PUSH1 0x0 DUP1 REVERT JUMPDEST POP PUSH2 0x105 PUSH1 0x4 DUP1 CALLDATASIZE SUB DUP2 ADD SWAP1 PUSH2 0x100 SWAP2 SWAP1 PUSH2 0x115D JUMP JUMPDEST PUSH2 0x2E0 JUMP JUMPDEST PUSH1 0x40 MLOAD PUSH2 0x112 SWAP2 SWAP1 PUSH2 0x170F JUMP JUMPDEST PUSH1 0x40 MLOAD DUP1 SWAP2 SUB SWAP1 RETURN JUMPDEST PUSH2 0x135 PUSH1 0x4 DUP1 CALLDATASIZE SUB DUP2 ADD SWAP1 PUSH2 0x130 SWAP2 SWAP1 PUSH2 0x1204 JUMP JUMPDEST PUSH2 0x5C2 JUMP JUMPDEST PUSH1 0x40 MLOAD PUSH2 0x142 SWAP2 SWAP1 PUSH2 0x15FA JUMP JUMPDEST PUSH1 0x40 MLOAD DUP1 SWAP2 SUB SWAP1 RETURN JUMPDEST CALLVALUE DUP1 ISZERO PUSH2 0x157 JUMPI PUSH1 0x0 DUP1 REVERT JUMPDEST POP PUSH2 0x172 PUSH1 0x4 DUP1 CALLDATASIZE SUB DUP2 ADD SWAP1 PUSH2 0x16D SWAP2 SWAP1 PUSH2 0x1231 JUMP JUMPDEST PUSH2 0x7FE JUMP JUMPDEST STOP JUMPDEST CALLVALUE DUP1 ISZERO PUSH2 0x180 JUMPI PUSH1 0x0 DUP1 REVERT JUMPDEST POP PUSH2 0x189 PUSH2 0x92F JUMP JUMPDEST STOP JUMPDEST CALLVALUE DUP1 ISZERO PUSH2 0x197 JUMPI PUSH1 0x0 DUP1 REVERT JUMPDEST POP PUSH2 0x1B2 PUSH1 0x4 DUP1 CALLDATASIZE SUB DUP2 ADD SWAP1 PUSH2 0x1AD SWAP2 SWAP1 PUSH2 0x1204 JUMP JUMPDEST PUSH2 0x9B7 JUMP JUMPDEST PUSH1 0x40 MLOAD PUSH2 0x1BF SWAP2 SWAP1 PUSH2 0x152A JUMP JUMPDEST PUSH1 0x40 MLOAD DUP1 SWAP2 SUB SWAP1 RETURN JUMPDEST CALLVALUE DUP1 ISZERO PUSH2 0x1D4 JUMPI PUSH1 0x0 DUP1 REVERT JUMPDEST POP PUSH2 0x1DD PUSH2 0x9EA JUMP JUMPDEST PUSH1 0x40 MLOAD PUSH2 0x1EA SWAP2 SWAP1 PUSH2 0x152A JUMP JUMPDEST PUSH1 0x40 MLOAD DUP1 SWAP2 SUB SWAP1 RETURN JUMPDEST CALLVALUE DUP1 ISZERO PUSH2 0x1FF JUMPI PUSH1 0x0 DUP1 REVERT JUMPDEST POP PUSH2 0x21A PUSH1 0x4 DUP1 CALLDATASIZE SUB DUP2 ADD SWAP1 PUSH2 0x215 SWAP2 SWAP1 PUSH2 0x1204 JUMP JUMPDEST PUSH2 0xA13 JUMP JUMPDEST PUSH1 0x40 MLOAD PUSH2 0x22E SWAP9 SWAP8 SWAP7 SWAP6 SWAP5 SWAP4 SWAP3 SWAP2 SWAP1 PUSH2 0x1545 JUMP JUMPDEST PUSH1 0x40 MLOAD DUP1 SWAP2 SUB SWAP1 RETURN JUMPDEST CALLVALUE DUP1 ISZERO PUSH2 0x243 JUMPI PUSH1 0x0 DUP1 REVERT JUMPDEST POP PUSH2 0x25E PUSH1 0x4 DUP1 CALLDATASIZE SUB DUP2 ADD SWAP1 PUSH2 0x259 SWAP2 SWAP1 PUSH2 0x1130 JUMP JUMPDEST PUSH2 0xC33 JUMP JUMPDEST PUSH1 0x40 MLOAD PUSH2 0x26B SWAP2 SWAP1 PUSH2 0x15D8 JUMP JUMPDEST PUSH1 0x40 MLOAD DUP1 SWAP2 SUB SWAP1 RETURN JUMPDEST CALLVALUE DUP1 ISZERO PUSH2 0x280 JUMPI PUSH1 0x0 DUP1 REVERT JUMPDEST POP PUSH2 0x289 PUSH2 0xD49 JUMP JUMPDEST PUSH1 0x40 MLOAD PUSH2 0x296 SWAP2 SWAP1 PUSH2 0x170F JUMP JUMPDEST PUSH1 0x40 MLOAD DUP1 SWAP2 SUB SWAP1 RETURN JUMPDEST CALLVALUE DUP1 ISZERO PUSH2 0x2AB JUMPI PUSH1 0x0 DUP1 REVERT JUMPDEST POP PUSH2 0x2C6 PUSH1 0x4 DUP1 CALLDATASIZE SUB DUP2 ADD SWAP1 PUSH2 0x2C1 SWAP2 SWAP1 PUSH2 0x1130 JUMP JUMPDEST PUSH2 0xD97 JUMP JUMPDEST STOP JUMPDEST PUSH1 0x6 PUSH1 0x20 MSTORE DUP1 PUSH1 0x0 MSTORE PUSH1 0x40 PUSH1 0x0 KECCAK256 PUSH1 0x0 SWAP2 POP SWAP1 POP SLOAD DUP2 JUMP JUMPDEST PUSH1 0x0 PUSH1 0x1 PUSH1 0x6 PUSH1 0x0 CALLER PUSH20 0xFFFFFFFFFFFFFFFFFFFFFFFFFFFFFFFFFFFFFFFF AND PUSH20 0xFFFFFFFFFFFFFFFFFFFFFFFFFFFFFFFFFFFFFFFF AND DUP2 MSTORE PUSH1 0x20 ADD SWAP1 DUP2 MSTORE PUSH1 0x20 ADD PUSH1 0x0 KECCAK256 SLOAD LT PUSH2 0x364 JUMPI PUSH1 0x40 MLOAD PUSH32 0x8C379A000000000000000000000000000000000000000000000000000000000 DUP2 MSTORE PUSH1 0x4 ADD PUSH2 0x35B SWAP1 PUSH2 0x1653 JUMP JUMPDEST PUSH1 0x40 MLOAD DUP1 SWAP2 SUB SWAP1 REVERT JUMPDEST PUSH1 0x4 PUSH1 0x40 MLOAD DUP1 PUSH2 0x100 ADD PUSH1 0x40 MSTORE DUP1 CALLER PUSH20 0xFFFFFFFFFFFFFFFFFFFFFFFFFFFFFFFFFFFFFFFF AND DUP2 MSTORE PUSH1 0x20 ADD DUP7 DUP2 MSTORE PUSH1 0x20 ADD DUP6 DUP2 MSTORE PUSH1 0x20 ADD DUP5 DUP2 MSTORE PUSH1 0x20 ADD PUSH1 0x0 DUP2 MSTORE PUSH1 0x20 ADD PUSH1 0x0 DUP2 MSTORE PUSH1 0x20 ADD PUSH1 0x3 SLOAD TIMESTAMP PUSH2 0x3BC SWAP2 SWAP1 PUSH2 0x17EA JUMP JUMPDEST PUSH4 0xFFFFFFFF AND DUP2 MSTORE PUSH1 0x20 ADD PUSH1 0x0 PUSH4 0xFFFFFFFF AND DUP2 MSTORE POP SWAP1 DUP1 PUSH1 0x1 DUP2 SLOAD ADD DUP1 DUP3 SSTORE DUP1 SWAP2 POP POP PUSH1 0x1 SWAP1 SUB SWAP1 PUSH1 0x0 MSTORE PUSH1 0x20 PUSH1 0x0 KECCAK256 SWAP1 PUSH1 0x8 MUL ADD PUSH1 0x0 SWAP1 SWAP2 SWAP1 SWAP2 SWAP1 SWAP2 POP PUSH1 0x0 DUP3 ADD MLOAD DUP2 PUSH1 0x0 ADD PUSH1 0x0 PUSH2 0x100 EXP DUP2 SLOAD DUP2 PUSH20 0xFFFFFFFFFFFFFFFFFFFFFFFFFFFFFFFFFFFFFFFF MUL NOT AND SWAP1 DUP4 PUSH20 0xFFFFFFFFFFFFFFFFFFFFFFFFFFFFFFFFFFFFFFFF AND MUL OR SWAP1 SSTORE POP PUSH1 0x20 DUP3 ADD MLOAD DUP2 PUSH1 0x1 ADD SWAP1 DUP1 MLOAD SWAP1 PUSH1 0x20 ADD SWAP1 PUSH2 0x45E SWAP3 SWAP2 SWAP1 PUSH2 0xFF3 JUMP JUMPDEST POP PUSH1 0x40 DUP3 ADD MLOAD DUP2 PUSH1 0x2 ADD SWAP1 DUP1 MLOAD SWAP1 PUSH1 0x20 ADD SWAP1 PUSH2 0x47B SWAP3 SWAP2 SWAP1 PUSH2 0xFF3 JUMP JUMPDEST POP PUSH1 0x60 DUP3 ADD MLOAD DUP2 PUSH1 0x3 ADD SWAP1 DUP1 MLOAD SWAP1 PUSH1 0x20 ADD SWAP1 PUSH2 0x498 SWAP3 SWAP2 SWAP1 PUSH2 0xFF3 JUMP JUMPDEST POP PUSH1 0x80 DUP3 ADD MLOAD DUP2 PUSH1 0x4 ADD SSTORE PUSH1 0xA0 DUP3 ADD MLOAD DUP2 PUSH1 0x5 ADD SSTORE PUSH1 0xC0 DUP3 ADD MLOAD DUP2 PUSH1 0x6 ADD SSTORE PUSH1 0xE0 DUP3 ADD MLOAD DUP2 PUSH1 0x7 ADD PUSH1 0x0 PUSH2 0x100 EXP DUP2 SLOAD DUP2 PUSH4 0xFFFFFFFF MUL NOT AND SWAP1 DUP4 PUSH4 0xFFFFFFFF AND MUL OR SWAP1 SSTORE POP POP POP PUSH1 0x0 PUSH1 0x4 DUP1 SLOAD SWAP1 POP SWAP1 POP CALLER PUSH1 0x5 PUSH1 0x0 DUP4 DUP2 MSTORE PUSH1 0x20 ADD SWAP1 DUP2 MSTORE PUSH1 0x20 ADD PUSH1 0x0 KECCAK256 PUSH1 0x0 PUSH2 0x100 EXP DUP2 SLOAD DUP2 PUSH20 0xFFFFFFFFFFFFFFFFFFFFFFFFFFFFFFFFFFFFFFFF MUL NOT AND SWAP1 DUP4 PUSH20 0xFFFFFFFFFFFFFFFFFFFFFFFFFFFFFFFFFFFFFFFF AND MUL OR SWAP1 SSTORE POP PUSH1 0x6 PUSH1 0x0 CALLER PUSH20 0xFFFFFFFFFFFFFFFFFFFFFFFFFFFFFFFFFFFFFFFF AND PUSH20 0xFFFFFFFFFFFFFFFFFFFFFFFFFFFFFFFFFFFFFFFF AND DUP2 MSTORE PUSH1 0x20 ADD SWAP1 DUP2 MSTORE PUSH1 0x20 ADD PUSH1 0x0 KECCAK256 PUSH1 0x0 DUP2 SLOAD DUP1 SWAP3 SWAP2 SWAP1 PUSH2 0x58C SWAP1 PUSH2 0x19BF JUMP JUMPDEST SWAP2 SWAP1 POP SSTORE POP PUSH1 0x2 PUSH1 0x0 DUP2 SLOAD DUP1 SWAP3 SWAP2 SWAP1 PUSH2 0x5A4 SWAP1 PUSH2 0x19BF JUMP JUMPDEST SWAP2 SWAP1 POP SSTORE POP PUSH1 0x1 PUSH1 0x2 SLOAD PUSH2 0x5B8 SWAP2 SWAP1 PUSH2 0x189A JUMP JUMPDEST SWAP2 POP POP SWAP4 SWAP3 POP POP POP JUMP JUMPDEST PUSH1 0x60 DUP2 CALLVALUE EQ PUSH2 0x5D0 JUMPI PUSH1 0x0 DUP1 REVERT JUMPDEST PUSH1 0x1 PUSH1 0x0 DUP2 SLOAD DUP1 SWAP3 SWAP2 SWAP1 PUSH2 0x5E3 SWAP1 PUSH2 0x19BF JUMP JUMPDEST SWAP2 SWAP1 POP SSTORE POP PUSH1 0x0 PUSH1 0x4 DUP1 SLOAD SWAP1 POP TIMESTAMP PUSH1 0x4 DUP1 SLOAD SWAP1 POP PUSH1 0x1 SLOAD PUSH1 0x40 MLOAD PUSH1 0x20 ADD PUSH2 0x60C SWAP4 SWAP3 SWAP2 SWAP1 PUSH2 0x14ED JUMP JUMPDEST PUSH1 0x40 MLOAD PUSH1 0x20 DUP2 DUP4 SUB SUB DUP2 MSTORE SWAP1 PUSH1 0x40 MSTORE DUP1 MLOAD SWAP1 PUSH1 0x20 ADD KECCAK256 PUSH1 0x0 SHR PUSH2 0x62F SWAP2 SWAP1 PUSH2 0x1A12 JUMP JUMPDEST SWAP1 POP PUSH1 0x1 PUSH1 0x0 DUP2 SLOAD DUP1 SWAP3 SWAP2 SWAP1 PUSH2 0x644 SWAP1 PUSH2 0x19BF JUMP JUMPDEST SWAP2 SWAP1 POP SSTORE POP PUSH1 0x0 PUSH1 0x2 SWAP1 POP PUSH1 0x0 DUP2 TIMESTAMP DUP4 PUSH1 0x1 SLOAD PUSH1 0x40 MLOAD PUSH1 0x20 ADD PUSH2 0x669 SWAP4 SWAP3 SWAP2 SWAP1 PUSH2 0x14ED JUMP JUMPDEST PUSH1 0x40 MLOAD PUSH1 0x20 DUP2 DUP4 SUB SUB DUP2 MSTORE SWAP1 PUSH1 0x40 MSTORE DUP1 MLOAD SWAP1 PUSH1 0x20 ADD KECCAK256 PUSH1 0x0 SHR PUSH2 0x68C SWAP2 SWAP1 PUSH2 0x1A12 JUMP JUMPDEST SWAP1 POP PUSH1 0x0 JUMPDEST PUSH1 0x4 DUP1 SLOAD SWAP1 POP DUP2 LT ISZERO PUSH2 0x7F4 JUMPI PUSH1 0x4 DUP2 DUP2 SLOAD DUP2 LT PUSH2 0x6B2 JUMPI PUSH2 0x6B1 PUSH2 0x1AD0 JUMP JUMPDEST JUMPDEST SWAP1 PUSH1 0x0 MSTORE PUSH1 0x20 PUSH1 0x0 KECCAK256 SWAP1 PUSH1 0x8 MUL ADD PUSH1 0x0 ADD PUSH1 0x0 SWAP1 SLOAD SWAP1 PUSH2 0x100 EXP SWAP1 DIV PUSH20 0xFFFFFFFFFFFFFFFFFFFFFFFFFFFFFFFFFFFFFFFF AND PUSH20 0xFFFFFFFFFFFFFFFFFFFFFFFFFFFFFFFFFFFFFFFF AND CALLER PUSH20 0xFFFFFFFFFFFFFFFFFFFFFFFFFFFFFFFFFFFFFFFF AND EQ ISZERO PUSH2 0x7E1 JUMPI PUSH1 0x0 DUP3 EQ ISZERO PUSH2 0x769 JUMPI PUSH2 0x728 PUSH2 0xE8F JUMP JUMPDEST PUSH1 0x40 MLOAD DUP1 PUSH1 0x40 ADD PUSH1 0x40 MSTORE DUP1 PUSH1 0xA DUP2 MSTORE PUSH1 0x20 ADD PUSH32 0x4861732067616E61646F00000000000000000000000000000000000000000000 DUP2 MSTORE POP SWAP5 POP POP POP POP POP PUSH2 0x7F9 JUMP JUMPDEST PUSH32 0xA28482EEC3136A2461C6C30C08F71BA279C6C51A2D9C7BEA4E50D6D2632F3896 DUP5 PUSH1 0x40 MLOAD PUSH2 0x798 SWAP2 SWAP1 PUSH2 0x16E1 JUMP JUMPDEST PUSH1 0x40 MLOAD DUP1 SWAP2 SUB SWAP1 LOG1 PUSH1 0x40 MLOAD DUP1 PUSH1 0x40 ADD PUSH1 0x40 MSTORE DUP1 PUSH1 0xB DUP2 MSTORE PUSH1 0x20 ADD PUSH32 0x486173207065726469646F000000000000000000000000000000000000000000 DUP2 MSTORE POP SWAP5 POP POP POP POP POP PUSH2 0x7F9 JUMP JUMPDEST DUP1 DUP1 PUSH2 0x7EC SWAP1 PUSH2 0x19BF JUMP JUMPDEST SWAP2 POP POP PUSH2 0x691 JUMP JUMPDEST POP POP POP POP JUMPDEST SWAP2 SWAP1 POP JUMP JUMPDEST PUSH1 0xA DUP4 DUP2 PUSH1 0x4 DUP3 DUP2 SLOAD DUP2 LT PUSH2 0x816 JUMPI PUSH2 0x815 PUSH2 0x1AD0 JUMP JUMPDEST JUMPDEST SWAP1 PUSH1 0x0 MSTORE PUSH1 0x20 PUSH1 0x0 KECCAK256 SWAP1 PUSH1 0x8 MUL ADD PUSH1 0x7 ADD PUSH1 0x0 SWAP1 SLOAD SWAP1 PUSH2 0x100 EXP SWAP1 DIV PUSH4 0xFFFFFFFF AND PUSH4 0xFFFFFFFF AND LT ISZERO PUSH2 0x849 JUMPI PUSH1 0x0 DUP1 REVERT JUMPDEST PUSH1 0x5 PUSH1 0x0 DUP7 DUP2 MSTORE PUSH1 0x20 ADD SWAP1 DUP2 MSTORE PUSH1 0x20 ADD PUSH1 0x0 KECCAK256 PUSH1 0x0 SWAP1 SLOAD SWAP1 PUSH2 0x100 EXP SWAP1 DIV PUSH20 0xFFFFFFFFFFFFFFFFFFFFFFFFFFFFFFFFFFFFFFFF AND PUSH20 0xFFFFFFFFFFFFFFFFFFFFFFFFFFFFFFFFFFFFFFFF AND CALLER PUSH20 0xFFFFFFFFFFFFFFFFFFFFFFFFFFFFFFFFFFFFFFFF AND EQ PUSH2 0x8B4 JUMPI PUSH1 0x0 DUP1 REVERT JUMPDEST DUP4 PUSH1 0x4 DUP7 DUP2 SLOAD DUP2 LT PUSH2 0x8C9 JUMPI PUSH2 0x8C8 PUSH2 0x1AD0 JUMP JUMPDEST JUMPDEST SWAP1 PUSH1 0x0 MSTORE PUSH1 0x20 PUSH1 0x0 KECCAK256 SWAP1 PUSH1 0x8 MUL ADD PUSH1 0x1 ADD SWAP1 DUP1 MLOAD SWAP1 PUSH1 0x20 ADD SWAP1 PUSH2 0x8ED SWAP3 SWAP2 SWAP1 PUSH2 0xFF3 JUMP JUMPDEST POP DUP3 PUSH1 0x4 DUP7 DUP2 SLOAD DUP2 LT PUSH2 0x903 JUMPI PUSH2 0x902 PUSH2 0x1AD0 JUMP JUMPDEST JUMPDEST SWAP1 PUSH1 0x0 MSTORE PUSH1 0x20 PUSH1 0x0 KECCAK256 SWAP1 PUSH1 0x8 MUL ADD PUSH1 0x2 ADD SWAP1 DUP1 MLOAD SWAP1 PUSH1 0x20 ADD SWAP1 PUSH2 0x927 SWAP3 SWAP2 SWAP1 PUSH2 0xFF3 JUMP JUMPDEST POP POP POP POP POP POP JUMP JUMPDEST PUSH2 0x937 PUSH2 0xF27 JUMP JUMPDEST PUSH20 0xFFFFFFFFFFFFFFFFFFFFFFFFFFFFFFFFFFFFFFFF AND PUSH2 0x955 PUSH2 0x9EA JUMP JUMPDEST PUSH20 0xFFFFFFFFFFFFFFFFFFFFFFFFFFFFFFFFFFFFFFFF AND EQ PUSH2 0x9AB JUMPI PUSH1 0x40 MLOAD PUSH32 0x8C379A000000000000000000000000000000000000000000000000000000000 DUP2 MSTORE PUSH1 0x4 ADD PUSH2 0x9A2 SWAP1 PUSH2 0x16C1 JUMP JUMPDEST PUSH1 0x40 MLOAD DUP1 SWAP2 SUB SWAP1 REVERT JUMPDEST PUSH2 0x9B5 PUSH1 0x0 PUSH2 0xF2F JUMP JUMPDEST JUMP JUMPDEST PUSH1 0x5 PUSH1 0x20 MSTORE DUP1 PUSH1 0x0 MSTORE PUSH1 0x40 PUSH1 0x0 KECCAK256 PUSH1 0x0 SWAP2 POP SLOAD SWAP1 PUSH2 0x100 EXP SWAP1 DIV PUSH20 0xFFFFFFFFFFFFFFFFFFFFFFFFFFFFFFFFFFFFFFFF AND DUP2 JUMP JUMPDEST PUSH1 0x0 DUP1 PUSH1 0x0 SWAP1 SLOAD SWAP1 PUSH2 0x100 EXP SWAP1 DIV PUSH20 0xFFFFFFFFFFFFFFFFFFFFFFFFFFFFFFFFFFFFFFFF AND SWAP1 POP SWAP1 JUMP JUMPDEST PUSH1 0x4 DUP2 DUP2 SLOAD DUP2 LT PUSH2 0xA23 JUMPI PUSH1 0x0 DUP1 REVERT JUMPDEST SWAP1 PUSH1 0x0 MSTORE PUSH1 0x20 PUSH1 0x0 KECCAK256 SWAP1 PUSH1 0x8 MUL ADD PUSH1 0x0 SWAP2 POP SWAP1 POP DUP1 PUSH1 0x0 ADD PUSH1 0x0 SWAP1 SLOAD SWAP1 PUSH2 0x100 EXP SWAP1 DIV PUSH20 0xFFFFFFFFFFFFFFFFFFFFFFFFFFFFFFFFFFFFFFFF AND SWAP1 DUP1 PUSH1 0x1 ADD DUP1 SLOAD PUSH2 0xA6C SWAP1 PUSH2 0x195C JUMP JUMPDEST DUP1 PUSH1 0x1F ADD PUSH1 0x20 DUP1 SWAP2 DIV MUL PUSH1 0x20 ADD PUSH1 0x40 MLOAD SWAP1 DUP2 ADD PUSH1 0x40 MSTORE DUP1 SWAP3 SWAP2 SWAP1 DUP2 DUP2 MSTORE PUSH1 0x20 ADD DUP3 DUP1 SLOAD PUSH2 0xA98 SWAP1 PUSH2 0x195C JUMP JUMPDEST DUP1 ISZERO PUSH2 0xAE5 JUMPI DUP1 PUSH1 0x1F LT PUSH2 0xABA JUMPI PUSH2 0x100 DUP1 DUP4 SLOAD DIV MUL DUP4 MSTORE SWAP2 PUSH1 0x20 ADD SWAP2 PUSH2 0xAE5 JUMP JUMPDEST DUP3 ADD SWAP2 SWAP1 PUSH1 0x0 MSTORE PUSH1 0x20 PUSH1 0x0 KECCAK256 SWAP1 JUMPDEST DUP2 SLOAD DUP2 MSTORE SWAP1 PUSH1 0x1 ADD SWAP1 PUSH1 0x20 ADD DUP1 DUP4 GT PUSH2 0xAC8 JUMPI DUP3 SWAP1 SUB PUSH1 0x1F AND DUP3 ADD SWAP2 JUMPDEST POP POP POP POP POP SWAP1 DUP1 PUSH1 0x2 ADD DUP1 SLOAD PUSH2 0xAFA SWAP1 PUSH2 0x195C JUMP JUMPDEST DUP1 PUSH1 0x1F ADD PUSH1 0x20 DUP1 SWAP2 DIV MUL PUSH1 0x20 ADD PUSH1 0x40 MLOAD SWAP1 DUP2 ADD PUSH1 0x40 MSTORE DUP1 SWAP3 SWAP2 SWAP1 DUP2 DUP2 MSTORE PUSH1 0x20 ADD DUP3 DUP1 SLOAD PUSH2 0xB26 SWAP1 PUSH2 0x195C JUMP JUMPDEST DUP1 ISZERO PUSH2 0xB73 JUMPI DUP1 PUSH1 0x1F LT PUSH2 0xB48 JUMPI PUSH2 0x100 DUP1 DUP4 SLOAD DIV MUL DUP4 MSTORE SWAP2 PUSH1 0x20 ADD SWAP2 PUSH2 0xB73 JUMP JUMPDEST DUP3 ADD SWAP2 SWAP1 PUSH1 0x0 MSTORE PUSH1 0x20 PUSH1 0x0 KECCAK256 SWAP1 JUMPDEST DUP2 SLOAD DUP2 MSTORE SWAP1 PUSH1 0x1 ADD SWAP1 PUSH1 0x20 ADD DUP1 DUP4 GT PUSH2 0xB56 JUMPI DUP3 SWAP1 SUB PUSH1 0x1F AND DUP3 ADD SWAP2 JUMPDEST POP POP POP POP POP SWAP1 DUP1 PUSH1 0x3 ADD DUP1 SLOAD PUSH2 0xB88 SWAP1 PUSH2 0x195C JUMP JUMPDEST DUP1 PUSH1 0x1F ADD PUSH1 0x20 DUP1 SWAP2 DIV MUL PUSH1 0x20 ADD PUSH1 0x40 MLOAD SWAP1 DUP2 ADD PUSH1 0x40 MSTORE DUP1 SWAP3 SWAP2 SWAP1 DUP2 DUP2 MSTORE PUSH1 0x20 ADD DUP3 DUP1 SLOAD PUSH2 0xBB4 SWAP1 PUSH2 0x195C JUMP JUMPDEST DUP1 ISZERO PUSH2 0xC01 JUMPI DUP1 PUSH1 0x1F LT PUSH2 0xBD6 JUMPI PUSH2 0x100 DUP1 DUP4 SLOAD DIV MUL DUP4 MSTORE SWAP2 PUSH1 0x20 ADD SWAP2 PUSH2 0xC01 JUMP JUMPDEST DUP3 ADD SWAP2 SWAP1 PUSH1 0x0 MSTORE PUSH1 0x20 PUSH1 0x0 KECCAK256 SWAP1 JUMPDEST DUP2 SLOAD DUP2 MSTORE SWAP1 PUSH1 0x1 ADD SWAP1 PUSH1 0x20 ADD DUP1 DUP4 GT PUSH2 0xBE4 JUMPI DUP3 SWAP1 SUB PUSH1 0x1F AND DUP3 ADD SWAP2 JUMPDEST POP POP POP POP POP SWAP1 DUP1 PUSH1 0x4 ADD SLOAD SWAP1 DUP1 PUSH1 0x5 ADD SLOAD SWAP1 DUP1 PUSH1 0x6 ADD SLOAD SWAP1 DUP1 PUSH1 0x7 ADD PUSH1 0x0 SWAP1 SLOAD SWAP1 PUSH2 0x100 EXP SWAP1 DIV PUSH4 0xFFFFFFFF AND SWAP1 POP DUP9 JUMP JUMPDEST PUSH1 0x60 DUP1 PUSH1 0x0 JUMPDEST PUSH1 0x4 DUP1 SLOAD SWAP1 POP DUP2 LT ISZERO PUSH2 0xD42 JUMPI DUP4 PUSH20 0xFFFFFFFFFFFFFFFFFFFFFFFFFFFFFFFFFFFFFFFF AND PUSH1 0x5 PUSH1 0x0 DUP4 DUP2 MSTORE PUSH1 0x20 ADD SWAP1 DUP2 MSTORE PUSH1 0x20 ADD PUSH1 0x0 KECCAK256 PUSH1 0x0 SWAP1 SLOAD SWAP1 PUSH2 0x100 EXP SWAP1 DIV PUSH20 0xFFFFFFFFFFFFFFFFFFFFFFFFFFFFFFFFFFFFFFFF AND PUSH20 0xFFFFFFFFFFFFFFFFFFFFFFFFFFFFFFFFFFFFFFFF AND EQ ISZERO PUSH2 0xD2F JUMPI PUSH32 0x96408510F58A52B0CFE536E046B25664FA36D8122620EC608C1767B45AA4F03C PUSH1 0x4 DUP3 DUP2 SLOAD DUP2 LT PUSH2 0xCE2 JUMPI PUSH2 0xCE1 PUSH2 0x1AD0 JUMP JUMPDEST JUMPDEST SWAP1 PUSH1 0x0 MSTORE PUSH1 0x20 PUSH1 0x0 KECCAK256 SWAP1 PUSH1 0x8 MUL ADD PUSH1 0x2 ADD PUSH1 0x4 DUP4 DUP2 SLOAD DUP2 LT PUSH2 0xD07 JUMPI PUSH2 0xD06 PUSH2 0x1AD0 JUMP JUMPDEST JUMPDEST SWAP1 PUSH1 0x0 MSTORE PUSH1 0x20 PUSH1 0x0 KECCAK256 SWAP1 PUSH1 0x8 MUL ADD PUSH1 0x1 ADD PUSH1 0x40 MLOAD PUSH2 0xD26 SWAP3 SWAP2 SWAP1 PUSH2 0x161C JUMP JUMPDEST PUSH1 0x40 MLOAD DUP1 SWAP2 SUB SWAP1 LOG1 JUMPDEST DUP1 DUP1 PUSH2 0xD3A SWAP1 PUSH2 0x19BF JUMP JUMPDEST SWAP2 POP POP PUSH2 0xC39 JUMP JUMPDEST POP POP SWAP2 SWAP1 POP JUMP JUMPDEST PUSH1 0x0 DUP1 PUSH1 0x2 SWAP1 POP PUSH1 0x0 DUP2 TIMESTAMP DUP4 PUSH1 0x1 SLOAD PUSH1 0x40 MLOAD PUSH1 0x20 ADD PUSH2 0xD6A SWAP4 SWAP3 SWAP2 SWAP1 PUSH2 0x14ED JUMP JUMPDEST PUSH1 0x40 MLOAD PUSH1 0x20 DUP2 DUP4 SUB SUB DUP2 MSTORE SWAP1 PUSH1 0x40 MSTORE DUP1 MLOAD SWAP1 PUSH1 0x20 ADD KECCAK256 PUSH1 0x0 SHR PUSH2 0xD8D SWAP2 SWAP1 PUSH2 0x1A12 JUMP JUMPDEST SWAP1 POP DUP1 SWAP3 POP POP POP SWAP1 JUMP JUMPDEST PUSH2 0xD9F PUSH2 0xF27 JUMP JUMPDEST PUSH20 0xFFFFFFFFFFFFFFFFFFFFFFFFFFFFFFFFFFFFFFFF AND PUSH2 0xDBD PUSH2 0x9EA JUMP JUMPDEST PUSH20 0xFFFFFFFFFFFFFFFFFFFFFFFFFFFFFFFFFFFFFFFF AND EQ PUSH2 0xE13 JUMPI PUSH1 0x40 MLOAD PUSH32 0x8C379A000000000000000000000000000000000000000000000000000000000 DUP2 MSTORE PUSH1 0x4 ADD PUSH2 0xE0A SWAP1 PUSH2 0x16C1 JUMP JUMPDEST PUSH1 0x40 MLOAD DUP1 SWAP2 SUB SWAP1 REVERT JUMPDEST PUSH1 0x0 PUSH20 0xFFFFFFFFFFFFFFFFFFFFFFFFFFFFFFFFFFFFFFFF AND DUP2 PUSH20 0xFFFFFFFFFFFFFFFFFFFFFFFFFFFFFFFFFFFFFFFF AND EQ ISZERO PUSH2 0xE83 JUMPI PUSH1 0x40 MLOAD PUSH32 0x8C379A000000000000000000000000000000000000000000000000000000000 DUP2 MSTORE PUSH1 0x4 ADD PUSH2 0xE7A SWAP1 PUSH2 0x1673 JUMP JUMPDEST PUSH1 0x40 MLOAD DUP1 SWAP2 SUB SWAP1 REVERT JUMPDEST PUSH2 0xE8C DUP2 PUSH2 0xF2F JUMP JUMPDEST POP JUMP JUMPDEST CALLER PUSH20 0xFFFFFFFFFFFFFFFFFFFFFFFFFFFFFFFFFFFFFFFF AND PUSH2 0x8FC PUSH1 0x2 SELFBALANCE PUSH2 0xEB6 SWAP2 SWAP1 PUSH2 0x1840 JUMP JUMPDEST SWAP1 DUP2 ISZERO MUL SWAP1 PUSH1 0x40 MLOAD PUSH1 0x0 PUSH1 0x40 MLOAD DUP1 DUP4 SUB DUP2 DUP6 DUP9 DUP9 CALL SWAP4 POP POP POP POP ISZERO DUP1 ISZERO PUSH2 0xEE1 JUMPI RETURNDATASIZE PUSH1 0x0 DUP1 RETURNDATACOPY RETURNDATASIZE PUSH1 0x0 REVERT JUMPDEST POP PUSH32 0xA28482EEC3136A2461C6C30C08F71BA279C6C51A2D9C7BEA4E50D6D2632F3896 PUSH1 0x2 SELFBALANCE PUSH2 0xF10 SWAP2 SWAP1 PUSH2 0x1840 JUMP JUMPDEST PUSH1 0x40 MLOAD PUSH2 0xF1D SWAP2 SWAP1 PUSH2 0x1693 JUMP JUMPDEST PUSH1 0x40 MLOAD DUP1 SWAP2 SUB SWAP1 LOG1 JUMP JUMPDEST PUSH1 0x0 CALLER SWAP1 POP SWAP1 JUMP JUMPDEST PUSH1 0x0 DUP1 PUSH1 0x0 SWAP1 SLOAD SWAP1 PUSH2 0x100 EXP SWAP1 DIV PUSH20 0xFFFFFFFFFFFFFFFFFFFFFFFFFFFFFFFFFFFFFFFF AND SWAP1 POP DUP2 PUSH1 0x0 DUP1 PUSH2 0x100 EXP DUP2 SLOAD DUP2 PUSH20 0xFFFFFFFFFFFFFFFFFFFFFFFFFFFFFFFFFFFFFFFF MUL NOT AND SWAP1 DUP4 PUSH20 0xFFFFFFFFFFFFFFFFFFFFFFFFFFFFFFFFFFFFFFFF AND MUL OR SWAP1 SSTORE POP DUP2 PUSH20 0xFFFFFFFFFFFFFFFFFFFFFFFFFFFFFFFFFFFFFFFF AND DUP2 PUSH20 0xFFFFFFFFFFFFFFFFFFFFFFFFFFFFFFFFFFFFFFFF AND PUSH32 0x8BE0079C531659141344CD1FD0A4F28419497F9722A3DAAFE3B4186F6B6457E0 PUSH1 0x40 MLOAD PUSH1 0x40 MLOAD DUP1 SWAP2 SUB SWAP1 LOG3 POP POP JUMP JUMPDEST DUP3 DUP1 SLOAD PUSH2 0xFFF SWAP1 PUSH2 0x195C JUMP JUMPDEST SWAP1 PUSH1 0x0 MSTORE PUSH1 0x20 PUSH1 0x0 KECCAK256 SWAP1 PUSH1 0x1F ADD PUSH1 0x20 SWAP1 DIV DUP2 ADD SWAP3 DUP3 PUSH2 0x1021 JUMPI PUSH1 0x0 DUP6 SSTORE PUSH2 0x1068 JUMP JUMPDEST DUP3 PUSH1 0x1F LT PUSH2 0x103A JUMPI DUP1 MLOAD PUSH1 0xFF NOT AND DUP4 DUP1 ADD OR DUP6 SSTORE PUSH2 0x1068 JUMP JUMPDEST DUP3 DUP1 ADD PUSH1 0x1 ADD DUP6 SSTORE DUP3 ISZERO PUSH2 0x1068 JUMPI SWAP2 DUP3 ADD JUMPDEST DUP3 DUP2 GT ISZERO PUSH2 0x1067 JUMPI DUP3 MLOAD DUP3 SSTORE SWAP2 PUSH1 0x20 ADD SWAP2 SWAP1 PUSH1 0x1 ADD SWAP1 PUSH2 0x104C JUMP JUMPDEST JUMPDEST POP SWAP1 POP PUSH2 0x1075 SWAP2 SWAP1 PUSH2 0x1079 JUMP JUMPDEST POP SWAP1 JUMP JUMPDEST JUMPDEST DUP1 DUP3 GT ISZERO PUSH2 0x1092 JUMPI PUSH1 0x0 DUP2 PUSH1 0x0 SWAP1 SSTORE POP PUSH1 0x1 ADD PUSH2 0x107A JUMP JUMPDEST POP SWAP1 JUMP JUMPDEST PUSH1 0x0 PUSH2 0x10A9 PUSH2 0x10A4 DUP5 PUSH2 0x174F JUMP JUMPDEST PUSH2 0x172A JUMP JUMPDEST SWAP1 POP DUP3 DUP2 MSTORE PUSH1 0x20 DUP2 ADD DUP5 DUP5 DUP5 ADD GT ISZERO PUSH2 0x10C5 JUMPI PUSH2 0x10C4 PUSH2 0x1B33 JUMP JUMPDEST JUMPDEST PUSH2 0x10D0 DUP5 DUP3 DUP6 PUSH2 0x191A JUMP JUMPDEST POP SWAP4 SWAP3 POP POP POP JUMP JUMPDEST PUSH1 0x0 DUP2 CALLDATALOAD SWAP1 POP PUSH2 0x10E7 DUP2 PUSH2 0x1C6C JUMP JUMPDEST SWAP3 SWAP2 POP POP JUMP JUMPDEST PUSH1 0x0 DUP3 PUSH1 0x1F DUP4 ADD SLT PUSH2 0x1102 JUMPI PUSH2 0x1101 PUSH2 0x1B2E JUMP JUMPDEST JUMPDEST DUP2 CALLDATALOAD PUSH2 0x1112 DUP5 DUP3 PUSH1 0x20 DUP7 ADD PUSH2 0x1096 JUMP JUMPDEST SWAP2 POP POP SWAP3 SWAP2 POP POP JUMP JUMPDEST PUSH1 0x0 DUP2 CALLDATALOAD SWAP1 POP PUSH2 0x112A DUP2 PUSH2 0x1C83 JUMP JUMPDEST SWAP3 SWAP2 POP POP JUMP JUMPDEST PUSH1 0x0 PUSH1 0x20 DUP3 DUP5 SUB SLT ISZERO PUSH2 0x1146 JUMPI PUSH2 0x1145 PUSH2 0x1B3D JUMP JUMPDEST JUMPDEST PUSH1 0x0 PUSH2 0x1154 DUP5 DUP3 DUP6 ADD PUSH2 0x10D8 JUMP JUMPDEST SWAP2 POP POP SWAP3 SWAP2 POP POP JUMP JUMPDEST PUSH1 0x0 DUP1 PUSH1 0x0 PUSH1 0x60 DUP5 DUP7 SUB SLT ISZERO PUSH2 0x1176 JUMPI PUSH2 0x1175 PUSH2 0x1B3D JUMP JUMPDEST JUMPDEST PUSH1 0x0 DUP5 ADD CALLDATALOAD PUSH8 0xFFFFFFFFFFFFFFFF DUP2 GT ISZERO PUSH2 0x1194 JUMPI PUSH2 0x1193 PUSH2 0x1B38 JUMP JUMPDEST JUMPDEST PUSH2 0x11A0 DUP7 DUP3 DUP8 ADD PUSH2 0x10ED JUMP JUMPDEST SWAP4 POP POP PUSH1 0x20 DUP5 ADD CALLDATALOAD PUSH8 0xFFFFFFFFFFFFFFFF DUP2 GT ISZERO PUSH2 0x11C1 JUMPI PUSH2 0x11C0 PUSH2 0x1B38 JUMP JUMPDEST JUMPDEST PUSH2 0x11CD DUP7 DUP3 DUP8 ADD PUSH2 0x10ED JUMP JUMPDEST SWAP3 POP POP PUSH1 0x40 DUP5 ADD CALLDATALOAD PUSH8 0xFFFFFFFFFFFFFFFF DUP2 GT ISZERO PUSH2 0x11EE JUMPI PUSH2 0x11ED PUSH2 0x1B38 JUMP JUMPDEST JUMPDEST PUSH2 0x11FA DUP7 DUP3 DUP8 ADD PUSH2 0x10ED JUMP JUMPDEST SWAP2 POP POP SWAP3 POP SWAP3 POP SWAP3 JUMP JUMPDEST PUSH1 0x0 PUSH1 0x20 DUP3 DUP5 SUB SLT ISZERO PUSH2 0x121A JUMPI PUSH2 0x1219 PUSH2 0x1B3D JUMP JUMPDEST JUMPDEST PUSH1 0x0 PUSH2 0x1228 DUP5 DUP3 DUP6 ADD PUSH2 0x111B JUMP JUMPDEST SWAP2 POP POP SWAP3 SWAP2 POP POP JUMP JUMPDEST PUSH1 0x0 DUP1 PUSH1 0x0 PUSH1 0x60 DUP5 DUP7 SUB SLT ISZERO PUSH2 0x124A JUMPI PUSH2 0x1249 PUSH2 0x1B3D JUMP JUMPDEST JUMPDEST PUSH1 0x0 PUSH2 0x1258 DUP7 DUP3 DUP8 ADD PUSH2 0x111B JUMP JUMPDEST SWAP4 POP POP PUSH1 0x20 DUP5 ADD CALLDATALOAD PUSH8 0xFFFFFFFFFFFFFFFF DUP2 GT ISZERO PUSH2 0x1279 JUMPI PUSH2 0x1278 PUSH2 0x1B38 JUMP JUMPDEST JUMPDEST PUSH2 0x1285 DUP7 DUP3 DUP8 ADD PUSH2 0x10ED JUMP JUMPDEST SWAP3 POP POP PUSH1 0x40 DUP5 ADD CALLDATALOAD PUSH8 0xFFFFFFFFFFFFFFFF DUP2 GT ISZERO PUSH2 0x12A6 JUMPI PUSH2 0x12A5 PUSH2 0x1B38 JUMP JUMPDEST JUMPDEST PUSH2 0x12B2 DUP7 DUP3 DUP8 ADD PUSH2 0x10ED JUMP JUMPDEST SWAP2 POP POP SWAP3 POP SWAP3 POP SWAP3 JUMP JUMPDEST PUSH1 0x0 PUSH2 0x12C8 DUP4 DUP4 PUSH2 0x14A9 JUMP JUMPDEST PUSH1 0x20 DUP4 ADD SWAP1 POP SWAP3 SWAP2 POP POP JUMP JUMPDEST PUSH2 0x12DD DUP2 PUSH2 0x18CE JUMP JUMPDEST DUP3 MSTORE POP POP JUMP JUMPDEST PUSH1 0x0 PUSH2 0x12EE DUP3 PUSH2 0x17A5 JUMP JUMPDEST PUSH2 0x12F8 DUP2 DUP6 PUSH2 0x17C8 JUMP JUMPDEST SWAP4 POP PUSH2 0x1303 DUP4 PUSH2 0x1780 JUMP JUMPDEST DUP1 PUSH1 0x0 JUMPDEST DUP4 DUP2 LT ISZERO PUSH2 0x1334 JUMPI DUP2 MLOAD PUSH2 0x131B DUP9 DUP3 PUSH2 0x12BC JUMP JUMPDEST SWAP8 POP PUSH2 0x1326 DUP4 PUSH2 0x17BB JUMP JUMPDEST SWAP3 POP POP PUSH1 0x1 DUP2 ADD SWAP1 POP PUSH2 0x1307 JUMP JUMPDEST POP DUP6 SWAP4 POP POP POP POP SWAP3 SWAP2 POP POP JUMP JUMPDEST PUSH1 0x0 PUSH2 0x134C DUP3 PUSH2 0x17B0 JUMP JUMPDEST PUSH2 0x1356 DUP2 DUP6 PUSH2 0x17D9 JUMP JUMPDEST SWAP4 POP PUSH2 0x1366 DUP2 DUP6 PUSH1 0x20 DUP7 ADD PUSH2 0x1929 JUMP JUMPDEST PUSH2 0x136F DUP2 PUSH2 0x1B42 JUMP JUMPDEST DUP5 ADD SWAP2 POP POP SWAP3 SWAP2 POP POP JUMP JUMPDEST PUSH1 0x0 DUP2 SLOAD PUSH2 0x1387 DUP2 PUSH2 0x195C JUMP JUMPDEST PUSH2 0x1391 DUP2 DUP7 PUSH2 0x17D9 JUMP JUMPDEST SWAP5 POP PUSH1 0x1 DUP3 AND PUSH1 0x0 DUP2 EQ PUSH2 0x13AC JUMPI PUSH1 0x1 DUP2 EQ PUSH2 0x13BE JUMPI PUSH2 0x13F1 JUMP JUMPDEST PUSH1 0xFF NOT DUP4 AND DUP7 MSTORE PUSH1 0x20 DUP7 ADD SWAP4 POP PUSH2 0x13F1 JUMP JUMPDEST PUSH2 0x13C7 DUP6 PUSH2 0x1790 JUMP JUMPDEST PUSH1 0x0 JUMPDEST DUP4 DUP2 LT ISZERO PUSH2 0x13E9 JUMPI DUP2 SLOAD DUP2 DUP10 ADD MSTORE PUSH1 0x1 DUP3 ADD SWAP2 POP PUSH1 0x20 DUP2 ADD SWAP1 POP PUSH2 0x13CA JUMP JUMPDEST DUP1 DUP9 ADD SWAP6 POP POP POP JUMPDEST POP POP POP SWAP3 SWAP2 POP POP JUMP JUMPDEST PUSH1 0x0 PUSH2 0x1407 PUSH1 0x28 DUP4 PUSH2 0x17D9 JUMP JUMPDEST SWAP2 POP PUSH2 0x1412 DUP3 PUSH2 0x1B53 JUMP JUMPDEST PUSH1 0x40 DUP3 ADD SWAP1 POP SWAP2 SWAP1 POP JUMP JUMPDEST PUSH1 0x0 PUSH2 0x142A PUSH1 0x26 DUP4 PUSH2 0x17D9 JUMP JUMPDEST SWAP2 POP PUSH2 0x1435 DUP3 PUSH2 0x1BA2 JUMP JUMPDEST PUSH1 0x40 DUP3 ADD SWAP1 POP SWAP2 SWAP1 POP JUMP JUMPDEST PUSH1 0x0 PUSH2 0x144D PUSH1 0xC DUP4 PUSH2 0x17D9 JUMP JUMPDEST SWAP2 POP PUSH2 0x1458 DUP3 PUSH2 0x1BF1 JUMP JUMPDEST PUSH1 0x20 DUP3 ADD SWAP1 POP SWAP2 SWAP1 POP JUMP JUMPDEST PUSH1 0x0 PUSH2 0x1470 PUSH1 0x20 DUP4 PUSH2 0x17D9 JUMP JUMPDEST SWAP2 POP PUSH2 0x147B DUP3 PUSH2 0x1C1A JUMP JUMPDEST PUSH1 0x20 DUP3 ADD SWAP1 POP SWAP2 SWAP1 POP JUMP JUMPDEST PUSH1 0x0 PUSH2 0x1493 PUSH1 0x15 DUP4 PUSH2 0x17D9 JUMP JUMPDEST SWAP2 POP PUSH2 0x149E DUP3 PUSH2 0x1C43 JUMP JUMPDEST PUSH1 0x20 DUP3 ADD SWAP1 POP SWAP2 SWAP1 POP JUMP JUMPDEST PUSH2 0x14B2 DUP2 PUSH2 0x1900 JUMP JUMPDEST DUP3 MSTORE POP POP JUMP JUMPDEST PUSH2 0x14C1 DUP2 PUSH2 0x1900 JUMP JUMPDEST DUP3 MSTORE POP POP JUMP JUMPDEST PUSH2 0x14D8 PUSH2 0x14D3 DUP3 PUSH2 0x1900 JUMP JUMPDEST PUSH2 0x1A08 JUMP JUMPDEST DUP3 MSTORE POP POP JUMP JUMPDEST PUSH2 0x14E7 DUP2 PUSH2 0x190A JUMP JUMPDEST DUP3 MSTORE POP POP JUMP JUMPDEST PUSH1 0x0 PUSH2 0x14F9 DUP3 DUP7 PUSH2 0x14C7 JUMP JUMPDEST PUSH1 0x20 DUP3 ADD SWAP2 POP PUSH2 0x1509 DUP3 DUP6 PUSH2 0x14C7 JUMP JUMPDEST PUSH1 0x20 DUP3 ADD SWAP2 POP PUSH2 0x1519 DUP3 DUP5 PUSH2 0x14C7 JUMP JUMPDEST PUSH1 0x20 DUP3 ADD SWAP2 POP DUP2 SWAP1 POP SWAP5 SWAP4 POP POP POP POP JUMP JUMPDEST PUSH1 0x0 PUSH1 0x20 DUP3 ADD SWAP1 POP PUSH2 0x153F PUSH1 0x0 DUP4 ADD DUP5 PUSH2 0x12D4 JUMP JUMPDEST SWAP3 SWAP2 POP POP JUMP JUMPDEST PUSH1 0x0 PUSH2 0x100 DUP3 ADD SWAP1 POP PUSH2 0x155B PUSH1 0x0 DUP4 ADD DUP12 PUSH2 0x12D4 JUMP JUMPDEST DUP2 DUP2 SUB PUSH1 0x20 DUP4 ADD MSTORE PUSH2 0x156D DUP2 DUP11 PUSH2 0x1341 JUMP JUMPDEST SWAP1 POP DUP2 DUP2 SUB PUSH1 0x40 DUP4 ADD MSTORE PUSH2 0x1581 DUP2 DUP10 PUSH2 0x1341 JUMP JUMPDEST SWAP1 POP DUP2 DUP2 SUB PUSH1 0x60 DUP4 ADD MSTORE PUSH2 0x1595 DUP2 DUP9 PUSH2 0x1341 JUMP JUMPDEST SWAP1 POP PUSH2 0x15A4 PUSH1 0x80 DUP4 ADD DUP8 PUSH2 0x14B8 JUMP JUMPDEST PUSH2 0x15B1 PUSH1 0xA0 DUP4 ADD DUP7 PUSH2 0x14B8 JUMP JUMPDEST PUSH2 0x15BE PUSH1 0xC0 DUP4 ADD DUP6 PUSH2 0x14B8 JUMP JUMPDEST PUSH2 0x15CB PUSH1 0xE0 DUP4 ADD DUP5 PUSH2 0x14DE JUMP JUMPDEST SWAP10 SWAP9 POP POP POP POP POP POP POP POP POP JUMP JUMPDEST PUSH1 0x0 PUSH1 0x20 DUP3 ADD SWAP1 POP DUP2 DUP2 SUB PUSH1 0x0 DUP4 ADD MSTORE PUSH2 0x15F2 DUP2 DUP5 PUSH2 0x12E3 JUMP JUMPDEST SWAP1 POP SWAP3 SWAP2 POP POP JUMP JUMPDEST PUSH1 0x0 PUSH1 0x20 DUP3 ADD SWAP1 POP DUP2 DUP2 SUB PUSH1 0x0 DUP4 ADD MSTORE PUSH2 0x1614 DUP2 DUP5 PUSH2 0x1341 JUMP JUMPDEST SWAP1 POP SWAP3 SWAP2 POP POP JUMP JUMPDEST PUSH1 0x0 PUSH1 0x40 DUP3 ADD SWAP1 POP DUP2 DUP2 SUB PUSH1 0x0 DUP4 ADD MSTORE PUSH2 0x1636 DUP2 DUP6 PUSH2 0x137A JUMP JUMPDEST SWAP1 POP DUP2 DUP2 SUB PUSH1 0x20 DUP4 ADD MSTORE PUSH2 0x164A DUP2 DUP5 PUSH2 0x137A JUMP JUMPDEST SWAP1 POP SWAP4 SWAP3 POP POP POP JUMP JUMPDEST PUSH1 0x0 PUSH1 0x20 DUP3 ADD SWAP1 POP DUP2 DUP2 SUB PUSH1 0x0 DUP4 ADD MSTORE PUSH2 0x166C DUP2 PUSH2 0x13FA JUMP JUMPDEST SWAP1 POP SWAP2 SWAP1 POP JUMP JUMPDEST PUSH1 0x0 PUSH1 0x20 DUP3 ADD SWAP1 POP DUP2 DUP2 SUB PUSH1 0x0 DUP4 ADD MSTORE PUSH2 0x168C DUP2 PUSH2 0x141D JUMP JUMPDEST SWAP1 POP SWAP2 SWAP1 POP JUMP JUMPDEST PUSH1 0x0 PUSH1 0x40 DUP3 ADD SWAP1 POP DUP2 DUP2 SUB PUSH1 0x0 DUP4 ADD MSTORE PUSH2 0x16AC DUP2 PUSH2 0x1440 JUMP JUMPDEST SWAP1 POP PUSH2 0x16BB PUSH1 0x20 DUP4 ADD DUP5 PUSH2 0x14B8 JUMP JUMPDEST SWAP3 SWAP2 POP POP JUMP JUMPDEST PUSH1 0x0 PUSH1 0x20 DUP3 ADD SWAP1 POP DUP2 DUP2 SUB PUSH1 0x0 DUP4 ADD MSTORE PUSH2 0x16DA DUP2 PUSH2 0x1463 JUMP JUMPDEST SWAP1 POP SWAP2 SWAP1 POP JUMP JUMPDEST PUSH1 0x0 PUSH1 0x40 DUP3 ADD SWAP1 POP DUP2 DUP2 SUB PUSH1 0x0 DUP4 ADD MSTORE PUSH2 0x16FA DUP2 PUSH2 0x1486 JUMP JUMPDEST SWAP1 POP PUSH2 0x1709 PUSH1 0x20 DUP4 ADD DUP5 PUSH2 0x14B8 JUMP JUMPDEST SWAP3 SWAP2 POP POP JUMP JUMPDEST PUSH1 0x0 PUSH1 0x20 DUP3 ADD SWAP1 POP PUSH2 0x1724 PUSH1 0x0 DUP4 ADD DUP5 PUSH2 0x14B8 JUMP JUMPDEST SWAP3 SWAP2 POP POP JUMP JUMPDEST PUSH1 0x0 PUSH2 0x1734 PUSH2 0x1745 JUMP JUMPDEST SWAP1 POP PUSH2 0x1740 DUP3 DUP3 PUSH2 0x198E JUMP JUMPDEST SWAP2 SWAP1 POP JUMP JUMPDEST PUSH1 0x0 PUSH1 0x40 MLOAD SWAP1 POP SWAP1 JUMP JUMPDEST PUSH1 0x0 PUSH8 0xFFFFFFFFFFFFFFFF DUP3 GT ISZERO PUSH2 0x176A JUMPI PUSH2 0x1769 PUSH2 0x1AFF JUMP JUMPDEST JUMPDEST PUSH2 0x1773 DUP3 PUSH2 0x1B42 JUMP JUMPDEST SWAP1 POP PUSH1 0x20 DUP2 ADD SWAP1 POP SWAP2 SWAP1 POP JUMP JUMPDEST PUSH1 0x0 DUP2 SWAP1 POP PUSH1 0x20 DUP3 ADD SWAP1 POP SWAP2 SWAP1 POP JUMP JUMPDEST PUSH1 0x0 DUP2 SWAP1 POP DUP2 PUSH1 0x0 MSTORE PUSH1 0x20 PUSH1 0x0 KECCAK256 SWAP1 POP SWAP2 SWAP1 POP JUMP JUMPDEST PUSH1 0x0 DUP2 MLOAD SWAP1 POP SWAP2 SWAP1 POP JUMP JUMPDEST PUSH1 0x0 DUP2 MLOAD SWAP1 POP SWAP2 SWAP1 POP JUMP JUMPDEST PUSH1 0x0 PUSH1 0x20 DUP3 ADD SWAP1 POP SWAP2 SWAP1 POP JUMP JUMPDEST PUSH1 0x0 DUP3 DUP3 MSTORE PUSH1 0x20 DUP3 ADD SWAP1 POP SWAP3 SWAP2 POP POP JUMP JUMPDEST PUSH1 0x0 DUP3 DUP3 MSTORE PUSH1 0x20 DUP3 ADD SWAP1 POP SWAP3 SWAP2 POP POP JUMP JUMPDEST PUSH1 0x0 PUSH2 0x17F5 DUP3 PUSH2 0x1900 JUMP JUMPDEST SWAP2 POP PUSH2 0x1800 DUP4 PUSH2 0x1900 JUMP JUMPDEST SWAP3 POP DUP3 PUSH32 0xFFFFFFFFFFFFFFFFFFFFFFFFFFFFFFFFFFFFFFFFFFFFFFFFFFFFFFFFFFFFFFFF SUB DUP3 GT ISZERO PUSH2 0x1835 JUMPI PUSH2 0x1834 PUSH2 0x1A43 JUMP JUMPDEST JUMPDEST DUP3 DUP3 ADD SWAP1 POP SWAP3 SWAP2 POP POP JUMP JUMPDEST PUSH1 0x0 PUSH2 0x184B DUP3 PUSH2 0x1900 JUMP JUMPDEST SWAP2 POP PUSH2 0x1856 DUP4 PUSH2 0x1900 JUMP JUMPDEST SWAP3 POP DUP2 PUSH32 0xFFFFFFFFFFFFFFFFFFFFFFFFFFFFFFFFFFFFFFFFFFFFFFFFFFFFFFFFFFFFFFFF DIV DUP4 GT DUP3 ISZERO ISZERO AND ISZERO PUSH2 0x188F JUMPI PUSH2 0x188E PUSH2 0x1A43 JUMP JUMPDEST JUMPDEST DUP3 DUP3 MUL SWAP1 POP SWAP3 SWAP2 POP POP JUMP JUMPDEST PUSH1 0x0 PUSH2 0x18A5 DUP3 PUSH2 0x1900 JUMP JUMPDEST SWAP2 POP PUSH2 0x18B0 DUP4 PUSH2 0x1900 JUMP JUMPDEST SWAP3 POP DUP3 DUP3 LT ISZERO PUSH2 0x18C3 JUMPI PUSH2 0x18C2 PUSH2 0x1A43 JUMP JUMPDEST JUMPDEST DUP3 DUP3 SUB SWAP1 POP SWAP3 SWAP2 POP POP JUMP JUMPDEST PUSH1 0x0 PUSH2 0x18D9 DUP3 PUSH2 0x18E0 JUMP JUMPDEST SWAP1 POP SWAP2 SWAP1 POP JUMP JUMPDEST PUSH1 0x0 PUSH20 0xFFFFFFFFFFFFFFFFFFFFFFFFFFFFFFFFFFFFFFFF DUP3 AND SWAP1 POP SWAP2 SWAP1 POP JUMP JUMPDEST PUSH1 0x0 DUP2 SWAP1 POP SWAP2 SWAP1 POP JUMP JUMPDEST PUSH1 0x0 PUSH4 0xFFFFFFFF DUP3 AND SWAP1 POP SWAP2 SWAP1 POP JUMP JUMPDEST DUP3 DUP2 DUP4 CALLDATACOPY PUSH1 0x0 DUP4 DUP4 ADD MSTORE POP POP POP JUMP JUMPDEST PUSH1 0x0 JUMPDEST DUP4 DUP2 LT ISZERO PUSH2 0x1947 JUMPI DUP1 DUP3 ADD MLOAD DUP2 DUP5 ADD MSTORE PUSH1 0x20 DUP2 ADD SWAP1 POP PUSH2 0x192C JUMP JUMPDEST DUP4 DUP2 GT ISZERO PUSH2 0x1956 JUMPI PUSH1 0x0 DUP5 DUP5 ADD MSTORE JUMPDEST POP POP POP POP JUMP JUMPDEST PUSH1 0x0 PUSH1 0x2 DUP3 DIV SWAP1 POP PUSH1 0x1 DUP3 AND DUP1 PUSH2 0x1974 JUMPI PUSH1 0x7F DUP3 AND SWAP2 POP JUMPDEST PUSH1 0x20 DUP3 LT DUP2 EQ ISZERO PUSH2 0x1988 JUMPI PUSH2 0x1987 PUSH2 0x1AA1 JUMP JUMPDEST JUMPDEST POP SWAP2 SWAP1 POP JUMP JUMPDEST PUSH2 0x1997 DUP3 PUSH2 0x1B42 JUMP JUMPDEST DUP2 ADD DUP2 DUP2 LT PUSH8 0xFFFFFFFFFFFFFFFF DUP3 GT OR ISZERO PUSH2 0x19B6 JUMPI PUSH2 0x19B5 PUSH2 0x1AFF JUMP JUMPDEST JUMPDEST DUP1 PUSH1 0x40 MSTORE POP POP POP JUMP JUMPDEST PUSH1 0x0 PUSH2 0x19CA DUP3 PUSH2 0x1900 JUMP JUMPDEST SWAP2 POP PUSH32 0xFFFFFFFFFFFFFFFFFFFFFFFFFFFFFFFFFFFFFFFFFFFFFFFFFFFFFFFFFFFFFFFF DUP3 EQ ISZERO PUSH2 0x19FD JUMPI PUSH2 0x19FC PUSH2 0x1A43 JUMP JUMPDEST JUMPDEST PUSH1 0x1 DUP3 ADD SWAP1 POP SWAP2 SWAP1 POP JUMP JUMPDEST PUSH1 0x0 DUP2 SWAP1 POP SWAP2 SWAP1 POP JUMP JUMPDEST PUSH1 0x0 PUSH2 0x1A1D DUP3 PUSH2 0x1900 JUMP JUMPDEST SWAP2 POP PUSH2 0x1A28 DUP4 PUSH2 0x1900 JUMP JUMPDEST SWAP3 POP DUP3 PUSH2 0x1A38 JUMPI PUSH2 0x1A37 PUSH2 0x1A72 JUMP JUMPDEST JUMPDEST DUP3 DUP3 MOD SWAP1 POP SWAP3 SWAP2 POP POP JUMP JUMPDEST PUSH32 0x4E487B7100000000000000000000000000000000000000000000000000000000 PUSH1 0x0 MSTORE PUSH1 0x11 PUSH1 0x4 MSTORE PUSH1 0x24 PUSH1 0x0 REVERT JUMPDEST PUSH32 0x4E487B7100000000000000000000000000000000000000000000000000000000 PUSH1 0x0 MSTORE PUSH1 0x12 PUSH1 0x4 MSTORE PUSH1 0x24 PUSH1 0x0 REVERT JUMPDEST PUSH32 0x4E487B7100000000000000000000000000000000000000000000000000000000 PUSH1 0x0 MSTORE PUSH1 0x22 PUSH1 0x4 MSTORE PUSH1 0x24 PUSH1 0x0 REVERT JUMPDEST PUSH32 0x4E487B7100000000000000000000000000000000000000000000000000000000 PUSH1 0x0 MSTORE PUSH1 0x32 PUSH1 0x4 MSTORE PUSH1 0x24 PUSH1 0x0 REVERT JUMPDEST PUSH32 0x4E487B7100000000000000000000000000000000000000000000000000000000 PUSH1 0x0 MSTORE PUSH1 0x41 PUSH1 0x4 MSTORE PUSH1 0x24 PUSH1 0x0 REVERT JUMPDEST PUSH1 0x0 DUP1 REVERT JUMPDEST PUSH1 0x0 DUP1 REVERT JUMPDEST PUSH1 0x0 DUP1 REVERT JUMPDEST PUSH1 0x0 DUP1 REVERT JUMPDEST PUSH1 0x0 PUSH1 0x1F NOT PUSH1 0x1F DUP4 ADD AND SWAP1 POP SWAP2 SWAP1 POP JUMP JUMPDEST PUSH32 0x536F6C6F2073652070756564652074656E657220756E20636F63686520706F72 PUSH1 0x0 DUP3 ADD MSTORE PUSH32 0x20706572736F6E61000000000000000000000000000000000000000000000000 PUSH1 0x20 DUP3 ADD MSTORE POP JUMP JUMPDEST PUSH32 0x4F776E61626C653A206E6577206F776E657220697320746865207A65726F2061 PUSH1 0x0 DUP3 ADD MSTORE PUSH32 0x6464726573730000000000000000000000000000000000000000000000000000 PUSH1 0x20 DUP3 ADD MSTORE POP JUMP JUMPDEST PUSH32 0x4861732067616E61646F3A200000000000000000000000000000000000000000 PUSH1 0x0 DUP3 ADD MSTORE POP JUMP JUMPDEST PUSH32 0x4F776E61626C653A2063616C6C6572206973206E6F7420746865206F776E6572 PUSH1 0x0 DUP3 ADD MSTORE POP JUMP JUMPDEST PUSH32 0x456C20636F6368652067616E61646F722065733A200000000000000000000000 PUSH1 0x0 DUP3 ADD MSTORE POP JUMP JUMPDEST PUSH2 0x1C75 DUP2 PUSH2 0x18CE JUMP JUMPDEST DUP2 EQ PUSH2 0x1C80 JUMPI PUSH1 0x0 DUP1 REVERT JUMPDEST POP JUMP JUMPDEST PUSH2 0x1C8C DUP2 PUSH2 0x1900 JUMP JUMPDEST DUP2 EQ PUSH2 0x1C97 JUMPI PUSH1 0x0 DUP1 REVERT JUMPDEST POP JUMP INVALID LOG2 PUSH5 0x6970667358 0x22 SLT KECCAK256 0xCA SWAP9 0xEF 0xF6 0x4B DUP14 0xC3 LOG2 PUSH27 0x8E5522023C3130D74D0794995D96EBF4864C7C797A752164736F6C PUSH4 0x43000807 STOP CALLER "
				},
				"gasEstimates": {
					"creation": {
						"codeDepositCost": "1475200",
						"executionCost": "infinite",
						"totalCost": "infinite"
					},
					"external": {
						"Apostar(uint256)": "infinite",
						"anadirCoche(string,string,string)": "infinite",
						"cambiarCoche(uint256,string,string)": "infinite",
						"cocheDePropietario(uint256)": "2839",
						"listaCoches(uint256)": "infinite",
						"numeroAleatorio()": "infinite",
						"numeroCochesPersona(address)": "2815",
						"owner()": "2544",
						"renounceOwnership()": "30463",
						"transferOwnership(address)": "30833",
						"verCochePropietario(address)": "infinite"
					}
				},
				"methodIdentifiers": {
					"Apostar(uint256)": "6b6f0494",
					"anadirCoche(string,string,string)": "2458c544",
					"cambiarCoche(uint256,string,string)": "6ba2cdf4",
					"cocheDePropietario(uint256)": "858b0554",
					"listaCoches(uint256)": "d735573d",
					"numeroAleatorio()": "f1413763",
					"numeroCochesPersona(address)": "1c6743e4",
					"owner()": "8da5cb5b",
					"renounceOwnership()": "715018a6",
					"transferOwnership(address)": "f2fde38b",
					"verCochePropietario(address)": "e172fca8"
				}
			},
			"storageLayout": {
				"storage": [
					{
						"astId": 67,
						"contract": "contracts/CarreraCoches/level.sol:LevelCoches",
						"label": "_owner",
						"offset": 0,
						"slot": "0",
						"type": "t_address"
					},
					{
						"astId": 189,
						"contract": "contracts/CarreraCoches/level.sol:LevelCoches",
						"label": "randNonce",
						"offset": 0,
						"slot": "1",
						"type": "t_uint256"
					},
					{
						"astId": 192,
						"contract": "contracts/CarreraCoches/level.sol:LevelCoches",
						"label": "contador",
						"offset": 0,
						"slot": "2",
						"type": "t_uint256"
					},
					{
						"astId": 195,
						"contract": "contracts/CarreraCoches/level.sol:LevelCoches",
						"label": "cooldown",
						"offset": 0,
						"slot": "3",
						"type": "t_uint256"
					},
					{
						"astId": 199,
						"contract": "contracts/CarreraCoches/level.sol:LevelCoches",
						"label": "listaCoches",
						"offset": 0,
						"slot": "4",
						"type": "t_array(t_struct(Coche)186_storage)dyn_storage"
					},
					{
						"astId": 223,
						"contract": "contracts/CarreraCoches/level.sol:LevelCoches",
						"label": "cocheDePropietario",
						"offset": 0,
						"slot": "5",
						"type": "t_mapping(t_uint256,t_address)"
					},
					{
						"astId": 227,
						"contract": "contracts/CarreraCoches/level.sol:LevelCoches",
						"label": "numeroCochesPersona",
						"offset": 0,
						"slot": "6",
						"type": "t_mapping(t_address,t_uint256)"
					}
				],
				"types": {
					"t_address": {
						"encoding": "inplace",
						"label": "address",
						"numberOfBytes": "20"
					},
					"t_array(t_struct(Coche)186_storage)dyn_storage": {
						"base": "t_struct(Coche)186_storage",
						"encoding": "dynamic_array",
						"label": "struct CarreraCoches.Coche[]",
						"numberOfBytes": "32"
					},
					"t_mapping(t_address,t_uint256)": {
						"encoding": "mapping",
						"key": "t_address",
						"label": "mapping(address => uint256)",
						"numberOfBytes": "32",
						"value": "t_uint256"
					},
					"t_mapping(t_uint256,t_address)": {
						"encoding": "mapping",
						"key": "t_uint256",
						"label": "mapping(uint256 => address)",
						"numberOfBytes": "32",
						"value": "t_address"
					},
					"t_string_storage": {
						"encoding": "bytes",
						"label": "string",
						"numberOfBytes": "32"
					},
					"t_struct(Coche)186_storage": {
						"encoding": "inplace",
						"label": "struct CarreraCoches.Coche",
						"members": [
							{
								"astId": 171,
								"contract": "contracts/CarreraCoches/level.sol:LevelCoches",
								"label": "idPiloto",
								"offset": 0,
								"slot": "0",
								"type": "t_address"
							},
							{
								"astId": 173,
								"contract": "contracts/CarreraCoches/level.sol:LevelCoches",
								"label": "modelo",
								"offset": 0,
								"slot": "1",
								"type": "t_string_storage"
							},
							{
								"astId": 175,
								"contract": "contracts/CarreraCoches/level.sol:LevelCoches",
								"label": "marca",
								"offset": 0,
								"slot": "2",
								"type": "t_string_storage"
							},
							{
								"astId": 177,
								"contract": "contracts/CarreraCoches/level.sol:LevelCoches",
								"label": "nombrePiloto",
								"offset": 0,
								"slot": "3",
								"type": "t_string_storage"
							},
							{
								"astId": 179,
								"contract": "contracts/CarreraCoches/level.sol:LevelCoches",
								"label": "carrerasGanadas",
								"offset": 0,
								"slot": "4",
								"type": "t_uint256"
							},
							{
								"astId": 181,
								"contract": "contracts/CarreraCoches/level.sol:LevelCoches",
								"label": "carrerasTotales",
								"offset": 0,
								"slot": "5",
								"type": "t_uint256"
							},
							{
								"astId": 183,
								"contract": "contracts/CarreraCoches/level.sol:LevelCoches",
								"label": "tiempoEspera",
								"offset": 0,
								"slot": "6",
								"type": "t_uint256"
							},
							{
								"astId": 185,
								"contract": "contracts/CarreraCoches/level.sol:LevelCoches",
								"label": "nivel",
								"offset": 0,
								"slot": "7",
								"type": "t_uint32"
							}
						],
						"numberOfBytes": "256"
					},
					"t_uint256": {
						"encoding": "inplace",
						"label": "uint256",
						"numberOfBytes": "32"
					},
					"t_uint32": {
						"encoding": "inplace",
						"label": "uint32",
						"numberOfBytes": "4"
					}
				}
			},
			"userdoc": {
				"kind": "user",
				"methods": {},
				"version": 1
			}
		}
	}
}