{
	"contracts/CarreraCoches/principal.sol": {
		"CarreraCoches": {
			"abi": [
				{
					"anonymous": false,
					"inputs": [
						{
							"indexed": true,
							"internalType": "address",
							"name": "previousOwner",
							"type": "address"
						},
						{
							"indexed": true,
							"internalType": "address",
							"name": "newOwner",
							"type": "address"
						}
					],
					"name": "OwnershipTransferred",
					"type": "event"
				},
				{
					"anonymous": false,
					"inputs": [
						{
							"indexed": false,
							"internalType": "string",
							"name": "mo",
							"type": "string"
						},
						{
							"indexed": false,
							"internalType": "string",
							"name": "ma",
							"type": "string"
						}
					],
					"name": "cochePropietario",
					"type": "event"
				},
				{
					"anonymous": false,
					"inputs": [
						{
							"indexed": false,
							"internalType": "uint256",
							"name": "compr",
							"type": "uint256"
						}
					],
					"name": "comprobar",
					"type": "event"
				},
				{
					"anonymous": false,
					"inputs": [
						{
							"indexed": false,
							"internalType": "string",
							"name": "ms",
							"type": "string"
						}
					],
					"name": "confirmacionDepositoLleno",
					"type": "event"
				},
				{
					"anonymous": false,
					"inputs": [
						{
							"indexed": false,
							"internalType": "string",
							"name": "ms",
							"type": "string"
						},
						{
							"indexed": false,
							"internalType": "uint256",
							"name": "res",
							"type": "uint256"
						}
					],
					"name": "mostrarResultado",
					"type": "event"
				},
				{
					"inputs": [
						{
							"internalType": "uint256",
							"name": "dineroApostar",
							"type": "uint256"
						}
					],
					"name": "Apostar",
					"outputs": [
						{
							"internalType": "string",
							"name": "",
							"type": "string"
						}
					],
					"stateMutability": "payable",
					"type": "function"
				},
				{
					"inputs": [
						{
							"internalType": "string",
							"name": "_modelo",
							"type": "string"
						},
						{
							"internalType": "string",
							"name": "_marca",
							"type": "string"
						},
						{
							"internalType": "string",
							"name": "_nombrePiloto",
							"type": "string"
						}
					],
					"name": "anadirCoche",
					"outputs": [
						{
							"internalType": "uint256",
							"name": "",
							"type": "uint256"
						}
					],
					"stateMutability": "nonpayable",
					"type": "function"
				},
				{
					"inputs": [
						{
							"internalType": "uint256",
							"name": "",
							"type": "uint256"
						}
					],
					"name": "cocheDePropietario",
					"outputs": [
						{
							"internalType": "address",
							"name": "",
							"type": "address"
						}
					],
					"stateMutability": "view",
					"type": "function"
				},
				{
					"inputs": [
						{
							"internalType": "uint256",
							"name": "",
							"type": "uint256"
						}
					],
					"name": "listaCoches",
					"outputs": [
						{
							"internalType": "address",
							"name": "idPiloto",
							"type": "address"
						},
						{
							"internalType": "string",
							"name": "modelo",
							"type": "string"
						},
						{
							"internalType": "string",
							"name": "marca",
							"type": "string"
						},
						{
							"internalType": "string",
							"name": "nombrePiloto",
							"type": "string"
						},
						{
							"internalType": "uint256",
							"name": "carrerasGanadas",
							"type": "uint256"
						},
						{
							"internalType": "uint256",
							"name": "carrerasTotales",
							"type": "uint256"
						},
						{
							"internalType": "uint256",
							"name": "tiempoEspera",
							"type": "uint256"
						},
						{
							"internalType": "uint32",
							"name": "nivel",
							"type": "uint32"
						}
					],
					"stateMutability": "view",
					"type": "function"
				},
				{
					"inputs": [],
					"name": "numeroAleatorio",
					"outputs": [
						{
							"internalType": "uint256",
							"name": "",
							"type": "uint256"
						}
					],
					"stateMutability": "nonpayable",
					"type": "function"
				},
				{
					"inputs": [
						{
							"internalType": "address",
							"name": "",
							"type": "address"
						}
					],
					"name": "numeroCochesPersona",
					"outputs": [
						{
							"internalType": "uint256",
							"name": "",
							"type": "uint256"
						}
					],
					"stateMutability": "view",
					"type": "function"
				},
				{
					"inputs": [],
					"name": "owner",
					"outputs": [
						{
							"internalType": "address",
							"name": "",
							"type": "address"
						}
					],
					"stateMutability": "view",
					"type": "function"
				},
				{
					"inputs": [],
					"name": "renounceOwnership",
					"outputs": [],
					"stateMutability": "nonpayable",
					"type": "function"
				},
				{
					"inputs": [
						{
							"internalType": "address",
							"name": "newOwner",
							"type": "address"
						}
					],
					"name": "transferOwnership",
					"outputs": [],
					"stateMutability": "nonpayable",
					"type": "function"
				},
				{
					"inputs": [
						{
							"internalType": "address",
							"name": "_propietario",
							"type": "address"
						}
					],
					"name": "verCochePropietario",
					"outputs": [
						{
							"internalType": "uint256[]",
							"name": "",
							"type": "uint256[]"
						}
					],
					"stateMutability": "nonpayable",
					"type": "function"
				}
			],
			"devdoc": {
				"kind": "dev",
				"methods": {
					"owner()": {
						"details": "Returns the address of the current owner."
					},
					"renounceOwnership()": {
						"details": "Leaves the contract without owner. It will not be possible to call `onlyOwner` functions anymore. Can only be called by the current owner. NOTE: Renouncing ownership will leave the contract without an owner, thereby removing any functionality that is only available to the owner."
					},
					"transferOwnership(address)": {
						"details": "Transfers ownership of the contract to a new account (`newOwner`). Can only be called by the current owner."
					}
				},
				"version": 1
			},
			"evm": {
				"assembly": "    /* \"contracts/CarreraCoches/principal.sol\":54:4203  contract CarreraCoches is Ownable {\r... */\n  mstore(0x40, 0x80)\n    /* \"contracts/CarreraCoches/principal.sol\":370:371  0 */\n  0x00\n    /* \"contracts/CarreraCoches/principal.sol\":353:371  uint randNonce = 0 */\n  0x01\n  sstore\n    /* \"contracts/CarreraCoches/principal.sol\":494:495  0 */\n  0x00\n    /* \"contracts/CarreraCoches/principal.sol\":478:495  uint contador = 0 */\n  0x02\n  sstore\n    /* \"contracts/CarreraCoches/principal.sol\":518:528  60 seconds */\n  0x3c\n    /* \"contracts/CarreraCoches/principal.sol\":502:528  uint cooldown = 60 seconds */\n  0x03\n  sstore\n    /* \"contracts/CarreraCoches/principal.sol\":54:4203  contract CarreraCoches is Ownable {\r... */\n  callvalue\n  dup1\n  iszero\n  tag_1\n  jumpi\n  0x00\n  dup1\n  revert\ntag_1:\n  pop\n    /* \"contracts/CarreraCoches/ownable.sol\":948:980  _transferOwnership(_msgSender()) */\n  tag_4\n    /* \"contracts/CarreraCoches/ownable.sol\":967:979  _msgSender() */\n  tag_5\n    /* \"contracts/CarreraCoches/ownable.sol\":967:977  _msgSender */\n  shl(0x20, tag_6)\n    /* \"contracts/CarreraCoches/ownable.sol\":967:979  _msgSender() */\n  0x20\n  shr\n  jump\t// in\ntag_5:\n    /* \"contracts/CarreraCoches/ownable.sol\":948:966  _transferOwnership */\n  shl(0x20, tag_7)\n    /* \"contracts/CarreraCoches/ownable.sol\":948:980  _transferOwnership(_msgSender()) */\n  0x20\n  shr\n  jump\t// in\ntag_4:\n    /* \"contracts/CarreraCoches/principal.sol\":54:4203  contract CarreraCoches is Ownable {\r... */\n  jump(tag_8)\n    /* \"contracts/CarreraCoches/utils/Context.sol\":656:754  function _msgSender() internal view virtual returns (address) {\r... */\ntag_6:\n    /* \"contracts/CarreraCoches/utils/Context.sol\":709:716  address */\n  0x00\n    /* \"contracts/CarreraCoches/utils/Context.sol\":736:746  msg.sender */\n  caller\n    /* \"contracts/CarreraCoches/utils/Context.sol\":729:746  return msg.sender */\n  swap1\n  pop\n    /* \"contracts/CarreraCoches/utils/Context.sol\":656:754  function _msgSender() internal view virtual returns (address) {\r... */\n  swap1\n  jump\t// out\n    /* \"contracts/CarreraCoches/ownable.sol\":2339:2530  function _transferOwnership(address newOwner) internal virtual {\r... */\ntag_7:\n    /* \"contracts/CarreraCoches/ownable.sol\":2413:2429  address oldOwner */\n  0x00\n    /* \"contracts/CarreraCoches/ownable.sol\":2432:2438  _owner */\n  dup1\n  0x00\n  swap1\n  sload\n  swap1\n  0x0100\n  exp\n  swap1\n  div\n  0xffffffffffffffffffffffffffffffffffffffff\n  and\n    /* \"contracts/CarreraCoches/ownable.sol\":2413:2438  address oldOwner = _owner */\n  swap1\n  pop\n    /* \"contracts/CarreraCoches/ownable.sol\":2458:2466  newOwner */\n  dup2\n    /* \"contracts/CarreraCoches/ownable.sol\":2449:2455  _owner */\n  0x00\n  dup1\n    /* \"contracts/CarreraCoches/ownable.sol\":2449:2466  _owner = newOwner */\n  0x0100\n  exp\n  dup2\n  sload\n  dup2\n  0xffffffffffffffffffffffffffffffffffffffff\n  mul\n  not\n  and\n  swap1\n  dup4\n  0xffffffffffffffffffffffffffffffffffffffff\n  and\n  mul\n  or\n  swap1\n  sstore\n  pop\n    /* \"contracts/CarreraCoches/ownable.sol\":2513:2521  newOwner */\n  dup2\n    /* \"contracts/CarreraCoches/ownable.sol\":2482:2522  OwnershipTransferred(oldOwner, newOwner) */\n  0xffffffffffffffffffffffffffffffffffffffff\n  and\n    /* \"contracts/CarreraCoches/ownable.sol\":2503:2511  oldOwner */\n  dup2\n    /* \"contracts/CarreraCoches/ownable.sol\":2482:2522  OwnershipTransferred(oldOwner, newOwner) */\n  0xffffffffffffffffffffffffffffffffffffffff\n  and\n  0x8be0079c531659141344cd1fd0a4f28419497f9722a3daafe3b4186f6b6457e0\n  mload(0x40)\n  mload(0x40)\n  dup1\n  swap2\n  sub\n  swap1\n  log3\n    /* \"contracts/CarreraCoches/ownable.sol\":2402:2530  {\r... */\n  pop\n    /* \"contracts/CarreraCoches/ownable.sol\":2339:2530  function _transferOwnership(address newOwner) internal virtual {\r... */\n  pop\n  jump\t// out\n    /* \"contracts/CarreraCoches/principal.sol\":54:4203  contract CarreraCoches is Ownable {\r... */\ntag_8:\n  dataSize(sub_0)\n  dup1\n  dataOffset(sub_0)\n  0x00\n  codecopy\n  0x00\n  return\nstop\n\nsub_0: assembly {\n        /* \"contracts/CarreraCoches/principal.sol\":54:4203  contract CarreraCoches is Ownable {\r... */\n      mstore(0x40, 0x80)\n      jumpi(tag_1, lt(calldatasize, 0x04))\n      shr(0xe0, calldataload(0x00))\n      dup1\n      0x8da5cb5b\n      gt\n      tag_12\n      jumpi\n      dup1\n      0x8da5cb5b\n      eq\n      tag_7\n      jumpi\n      dup1\n      0xd735573d\n      eq\n      tag_8\n      jumpi\n      dup1\n      0xe172fca8\n      eq\n      tag_9\n      jumpi\n      dup1\n      0xf1413763\n      eq\n      tag_10\n      jumpi\n      dup1\n      0xf2fde38b\n      eq\n      tag_11\n      jumpi\n      jump(tag_1)\n    tag_12:\n      dup1\n      0x1c6743e4\n      eq\n      tag_2\n      jumpi\n      dup1\n      0x2458c544\n      eq\n      tag_3\n      jumpi\n      dup1\n      0x6b6f0494\n      eq\n      tag_4\n      jumpi\n      dup1\n      0x715018a6\n      eq\n      tag_5\n      jumpi\n      dup1\n      0x858b0554\n      eq\n      tag_6\n      jumpi\n    tag_1:\n      0x00\n      dup1\n      revert\n        /* \"contracts/CarreraCoches/principal.sol\":816:868  mapping (address => uint) public numeroCochesPersona */\n    tag_2:\n      callvalue\n      dup1\n      iszero\n      tag_13\n      jumpi\n      0x00\n      dup1\n      revert\n    tag_13:\n      pop\n      tag_14\n      0x04\n      dup1\n      calldatasize\n      sub\n      dup2\n      add\n      swap1\n      tag_15\n      swap2\n      swap1\n      tag_16\n      jump\t// in\n    tag_15:\n      tag_17\n      jump\t// in\n    tag_14:\n      mload(0x40)\n      tag_18\n      swap2\n      swap1\n      tag_19\n      jump\t// in\n    tag_18:\n      mload(0x40)\n      dup1\n      swap2\n      sub\n      swap1\n      return\n        /* \"contracts/CarreraCoches/principal.sol\":1111:1551  function anadirCoche(string memory _modelo, string memory _marca, string memory _nombrePiloto) public restriccion returns (uint) {\r... */\n    tag_3:\n      callvalue\n      dup1\n      iszero\n      tag_20\n      jumpi\n      0x00\n      dup1\n      revert\n    tag_20:\n      pop\n      tag_21\n      0x04\n      dup1\n      calldatasize\n      sub\n      dup2\n      add\n      swap1\n      tag_22\n      swap2\n      swap1\n      tag_23\n      jump\t// in\n    tag_22:\n      tag_24\n      jump\t// in\n    tag_21:\n      mload(0x40)\n      tag_25\n      swap2\n      swap1\n      tag_19\n      jump\t// in\n    tag_25:\n      mload(0x40)\n      dup1\n      swap2\n      sub\n      swap1\n      return\n        /* \"contracts/CarreraCoches/principal.sol\":2788:3964  function Apostar(uint dineroApostar) public payable returns(string memory) {\r... */\n    tag_4:\n      tag_26\n      0x04\n      dup1\n      calldatasize\n      sub\n      dup2\n      add\n      swap1\n      tag_27\n      swap2\n      swap1\n      tag_28\n      jump\t// in\n    tag_27:\n      tag_29\n      jump\t// in\n    tag_26:\n      mload(0x40)\n      tag_30\n      swap2\n      swap1\n      tag_31\n      jump\t// in\n    tag_30:\n      mload(0x40)\n      dup1\n      swap2\n      sub\n      swap1\n      return\n        /* \"contracts/CarreraCoches/ownable.sol\":1720:1823  function renounceOwnership() public virtual onlyOwner {\r... */\n    tag_5:\n      callvalue\n      dup1\n      iszero\n      tag_32\n      jumpi\n      0x00\n      dup1\n      revert\n    tag_32:\n      pop\n      tag_33\n      tag_34\n      jump\t// in\n    tag_33:\n      stop\n        /* \"contracts/CarreraCoches/principal.sol\":758:809  mapping (uint => address) public cocheDePropietario */\n    tag_6:\n      callvalue\n      dup1\n      iszero\n      tag_35\n      jumpi\n      0x00\n      dup1\n      revert\n    tag_35:\n      pop\n      tag_36\n      0x04\n      dup1\n      calldatasize\n      sub\n      dup2\n      add\n      swap1\n      tag_37\n      swap2\n      swap1\n      tag_28\n      jump\t// in\n    tag_37:\n      tag_38\n      jump\t// in\n    tag_36:\n      mload(0x40)\n      tag_39\n      swap2\n      swap1\n      tag_40\n      jump\t// in\n    tag_39:\n      mload(0x40)\n      dup1\n      swap2\n      sub\n      swap1\n      return\n        /* \"contracts/CarreraCoches/ownable.sol\":1069:1156  function owner() public view virtual returns (address) {\r... */\n    tag_7:\n      callvalue\n      dup1\n      iszero\n      tag_41\n      jumpi\n      0x00\n      dup1\n      revert\n    tag_41:\n      pop\n      tag_42\n      tag_43\n      jump\t// in\n    tag_42:\n      mload(0x40)\n      tag_44\n      swap2\n      swap1\n      tag_40\n      jump\t// in\n    tag_44:\n      mload(0x40)\n      dup1\n      swap2\n      sub\n      swap1\n      return\n        /* \"contracts/CarreraCoches/principal.sol\":537:563  Coche[] public listaCoches */\n    tag_8:\n      callvalue\n      dup1\n      iszero\n      tag_45\n      jumpi\n      0x00\n      dup1\n      revert\n    tag_45:\n      pop\n      tag_46\n      0x04\n      dup1\n      calldatasize\n      sub\n      dup2\n      add\n      swap1\n      tag_47\n      swap2\n      swap1\n      tag_28\n      jump\t// in\n    tag_47:\n      tag_48\n      jump\t// in\n    tag_46:\n      mload(0x40)\n      tag_49\n      swap9\n      swap8\n      swap7\n      swap6\n      swap5\n      swap4\n      swap3\n      swap2\n      swap1\n      tag_50\n      jump\t// in\n    tag_49:\n      mload(0x40)\n      dup1\n      swap2\n      sub\n      swap1\n      return\n        /* \"contracts/CarreraCoches/principal.sol\":2108:2451  function verCochePropietario(address _propietario) external returns(uint[] memory){\r... */\n    tag_9:\n      callvalue\n      dup1\n      iszero\n      tag_51\n      jumpi\n      0x00\n      dup1\n      revert\n    tag_51:\n      pop\n      tag_52\n      0x04\n      dup1\n      calldatasize\n      sub\n      dup2\n      add\n      swap1\n      tag_53\n      swap2\n      swap1\n      tag_16\n      jump\t// in\n    tag_53:\n      tag_54\n      jump\t// in\n    tag_52:\n      mload(0x40)\n      tag_55\n      swap2\n      swap1\n      tag_56\n      jump\t// in\n    tag_55:\n      mload(0x40)\n      dup1\n      swap2\n      sub\n      swap1\n      return\n        /* \"contracts/CarreraCoches/principal.sol\":1881:2100  function numeroAleatorio() public returns (uint256) {\r... */\n    tag_10:\n      callvalue\n      dup1\n      iszero\n      tag_57\n      jumpi\n      0x00\n      dup1\n      revert\n    tag_57:\n      pop\n      tag_58\n      tag_59\n      jump\t// in\n    tag_58:\n      mload(0x40)\n      tag_60\n      swap2\n      swap1\n      tag_19\n      jump\t// in\n    tag_60:\n      mload(0x40)\n      dup1\n      swap2\n      sub\n      swap1\n      return\n        /* \"contracts/CarreraCoches/ownable.sol\":1978:2179  function transferOwnership(address newOwner) public virtual onlyOwner {\r... */\n    tag_11:\n      callvalue\n      dup1\n      iszero\n      tag_61\n      jumpi\n      0x00\n      dup1\n      revert\n    tag_61:\n      pop\n      tag_62\n      0x04\n      dup1\n      calldatasize\n      sub\n      dup2\n      add\n      swap1\n      tag_63\n      swap2\n      swap1\n      tag_16\n      jump\t// in\n    tag_63:\n      tag_64\n      jump\t// in\n    tag_62:\n      stop\n        /* \"contracts/CarreraCoches/principal.sol\":816:868  mapping (address => uint) public numeroCochesPersona */\n    tag_17:\n      mstore(0x20, 0x06)\n      dup1\n      0x00\n      mstore\n      keccak256(0x00, 0x40)\n      0x00\n      swap2\n      pop\n      swap1\n      pop\n      sload\n      dup2\n      jump\t// out\n        /* \"contracts/CarreraCoches/principal.sol\":1111:1551  function anadirCoche(string memory _modelo, string memory _marca, string memory _nombrePiloto) public restriccion returns (uint) {\r... */\n    tag_24:\n        /* \"contracts/CarreraCoches/principal.sol\":1234:1238  uint */\n      0x00\n        /* \"contracts/CarreraCoches/principal.sol\":1000:1001  1 */\n      0x01\n        /* \"contracts/CarreraCoches/principal.sol\":966:985  numeroCochesPersona */\n      0x06\n        /* \"contracts/CarreraCoches/principal.sol\":966:997  numeroCochesPersona[msg.sender] */\n      0x00\n        /* \"contracts/CarreraCoches/principal.sol\":986:996  msg.sender */\n      caller\n        /* \"contracts/CarreraCoches/principal.sol\":966:997  numeroCochesPersona[msg.sender] */\n      0xffffffffffffffffffffffffffffffffffffffff\n      and\n      0xffffffffffffffffffffffffffffffffffffffff\n      and\n      dup2\n      mstore\n      0x20\n      add\n      swap1\n      dup2\n      mstore\n      0x20\n      add\n      0x00\n      keccak256\n      sload\n        /* \"contracts/CarreraCoches/principal.sol\":966:1001  numeroCochesPersona[msg.sender] < 1 */\n      lt\n        /* \"contracts/CarreraCoches/principal.sol\":958:1046  require(numeroCochesPersona[msg.sender] < 1, \"Solo se puede tener un coche por persona\") */\n      tag_66\n      jumpi\n      mload(0x40)\n      0x08c379a000000000000000000000000000000000000000000000000000000000\n      dup2\n      mstore\n      0x04\n      add\n      tag_67\n      swap1\n      tag_68\n      jump\t// in\n    tag_67:\n      mload(0x40)\n      dup1\n      swap2\n      sub\n      swap1\n      revert\n    tag_66:\n        /* \"contracts/CarreraCoches/principal.sol\":1251:1262  listaCoches */\n      0x04\n        /* \"contracts/CarreraCoches/principal.sol\":1268:1362  Coche(msg.sender, _modelo, _marca, _nombrePiloto, 0, 0, uint32(block.timestamp + cooldown), 0) */\n      mload(0x40)\n      dup1\n      0x0100\n      add\n      0x40\n      mstore\n      dup1\n        /* \"contracts/CarreraCoches/principal.sol\":1274:1284  msg.sender */\n      caller\n        /* \"contracts/CarreraCoches/principal.sol\":1268:1362  Coche(msg.sender, _modelo, _marca, _nombrePiloto, 0, 0, uint32(block.timestamp + cooldown), 0) */\n      0xffffffffffffffffffffffffffffffffffffffff\n      and\n      dup2\n      mstore\n      0x20\n      add\n        /* \"contracts/CarreraCoches/principal.sol\":1286:1293  _modelo */\n      dup7\n        /* \"contracts/CarreraCoches/principal.sol\":1268:1362  Coche(msg.sender, _modelo, _marca, _nombrePiloto, 0, 0, uint32(block.timestamp + cooldown), 0) */\n      dup2\n      mstore\n      0x20\n      add\n        /* \"contracts/CarreraCoches/principal.sol\":1295:1301  _marca */\n      dup6\n        /* \"contracts/CarreraCoches/principal.sol\":1268:1362  Coche(msg.sender, _modelo, _marca, _nombrePiloto, 0, 0, uint32(block.timestamp + cooldown), 0) */\n      dup2\n      mstore\n      0x20\n      add\n        /* \"contracts/CarreraCoches/principal.sol\":1303:1316  _nombrePiloto */\n      dup5\n        /* \"contracts/CarreraCoches/principal.sol\":1268:1362  Coche(msg.sender, _modelo, _marca, _nombrePiloto, 0, 0, uint32(block.timestamp + cooldown), 0) */\n      dup2\n      mstore\n      0x20\n      add\n        /* \"contracts/CarreraCoches/principal.sol\":1318:1319  0 */\n      0x00\n        /* \"contracts/CarreraCoches/principal.sol\":1268:1362  Coche(msg.sender, _modelo, _marca, _nombrePiloto, 0, 0, uint32(block.timestamp + cooldown), 0) */\n      dup2\n      mstore\n      0x20\n      add\n        /* \"contracts/CarreraCoches/principal.sol\":1321:1322  0 */\n      0x00\n        /* \"contracts/CarreraCoches/principal.sol\":1268:1362  Coche(msg.sender, _modelo, _marca, _nombrePiloto, 0, 0, uint32(block.timestamp + cooldown), 0) */\n      dup2\n      mstore\n      0x20\n      add\n        /* \"contracts/CarreraCoches/principal.sol\":1349:1357  cooldown */\n      sload(0x03)\n        /* \"contracts/CarreraCoches/principal.sol\":1331:1346  block.timestamp */\n      timestamp\n        /* \"contracts/CarreraCoches/principal.sol\":1331:1357  block.timestamp + cooldown */\n      tag_70\n      swap2\n      swap1\n      tag_71\n      jump\t// in\n    tag_70:\n        /* \"contracts/CarreraCoches/principal.sol\":1268:1362  Coche(msg.sender, _modelo, _marca, _nombrePiloto, 0, 0, uint32(block.timestamp + cooldown), 0) */\n      0xffffffff\n      and\n      dup2\n      mstore\n      0x20\n      add\n        /* \"contracts/CarreraCoches/principal.sol\":1360:1361  0 */\n      0x00\n        /* \"contracts/CarreraCoches/principal.sol\":1268:1362  Coche(msg.sender, _modelo, _marca, _nombrePiloto, 0, 0, uint32(block.timestamp + cooldown), 0) */\n      0xffffffff\n      and\n      dup2\n      mstore\n      pop\n        /* \"contracts/CarreraCoches/principal.sol\":1251:1363  listaCoches.push(Coche(msg.sender, _modelo, _marca, _nombrePiloto, 0, 0, uint32(block.timestamp + cooldown), 0)) */\n      swap1\n      dup1\n      0x01\n      dup2\n      sload\n      add\n      dup1\n      dup3\n      sstore\n      dup1\n      swap2\n      pop\n      pop\n      0x01\n      swap1\n      sub\n      swap1\n      0x00\n      mstore\n      keccak256(0x00, 0x20)\n      swap1\n      0x08\n      mul\n      add\n      0x00\n      swap1\n      swap2\n      swap1\n      swap2\n      swap1\n      swap2\n      pop\n      0x00\n      dup3\n      add\n      mload\n      dup2\n      0x00\n      add\n      exp(0x0100, 0x00)\n      dup2\n      sload\n      dup2\n      0xffffffffffffffffffffffffffffffffffffffff\n      mul\n      not\n      and\n      swap1\n      dup4\n      0xffffffffffffffffffffffffffffffffffffffff\n      and\n      mul\n      or\n      swap1\n      sstore\n      pop\n      0x20\n      dup3\n      add\n      mload\n      dup2\n      0x01\n      add\n      swap1\n      dup1\n      mload\n      swap1\n      0x20\n      add\n      swap1\n      tag_73\n      swap3\n      swap2\n      swap1\n      tag_74\n      jump\t// in\n    tag_73:\n      pop\n      0x40\n      dup3\n      add\n      mload\n      dup2\n      0x02\n      add\n      swap1\n      dup1\n      mload\n      swap1\n      0x20\n      add\n      swap1\n      tag_75\n      swap3\n      swap2\n      swap1\n      tag_74\n      jump\t// in\n    tag_75:\n      pop\n      0x60\n      dup3\n      add\n      mload\n      dup2\n      0x03\n      add\n      swap1\n      dup1\n      mload\n      swap1\n      0x20\n      add\n      swap1\n      tag_76\n      swap3\n      swap2\n      swap1\n      tag_74\n      jump\t// in\n    tag_76:\n      pop\n      0x80\n      dup3\n      add\n      mload\n      dup2\n      0x04\n      add\n      sstore\n      0xa0\n      dup3\n      add\n      mload\n      dup2\n      0x05\n      add\n      sstore\n      0xc0\n      dup3\n      add\n      mload\n      dup2\n      0x06\n      add\n      sstore\n      0xe0\n      dup3\n      add\n      mload\n      dup2\n      0x07\n      add\n      exp(0x0100, 0x00)\n      dup2\n      sload\n      dup2\n      0xffffffff\n      mul\n      not\n      and\n      swap1\n      dup4\n      0xffffffff\n      and\n      mul\n      or\n      swap1\n      sstore\n      pop\n      pop\n      pop\n        /* \"contracts/CarreraCoches/principal.sol\":1374:1381  uint id */\n      0x00\n        /* \"contracts/CarreraCoches/principal.sol\":1384:1395  listaCoches */\n      0x04\n        /* \"contracts/CarreraCoches/principal.sol\":1384:1402  listaCoches.length */\n      dup1\n      sload\n      swap1\n      pop\n        /* \"contracts/CarreraCoches/principal.sol\":1374:1402  uint id = listaCoches.length */\n      swap1\n      pop\n        /* \"contracts/CarreraCoches/principal.sol\":1438:1448  msg.sender */\n      caller\n        /* \"contracts/CarreraCoches/principal.sol\":1413:1431  cocheDePropietario */\n      0x05\n        /* \"contracts/CarreraCoches/principal.sol\":1413:1435  cocheDePropietario[id] */\n      0x00\n        /* \"contracts/CarreraCoches/principal.sol\":1432:1434  id */\n      dup4\n        /* \"contracts/CarreraCoches/principal.sol\":1413:1435  cocheDePropietario[id] */\n      dup2\n      mstore\n      0x20\n      add\n      swap1\n      dup2\n      mstore\n      0x20\n      add\n      0x00\n      keccak256\n      0x00\n        /* \"contracts/CarreraCoches/principal.sol\":1413:1448  cocheDePropietario[id] = msg.sender */\n      0x0100\n      exp\n      dup2\n      sload\n      dup2\n      0xffffffffffffffffffffffffffffffffffffffff\n      mul\n      not\n      and\n      swap1\n      dup4\n      0xffffffffffffffffffffffffffffffffffffffff\n      and\n      mul\n      or\n      swap1\n      sstore\n      pop\n        /* \"contracts/CarreraCoches/principal.sol\":1459:1478  numeroCochesPersona */\n      0x06\n        /* \"contracts/CarreraCoches/principal.sol\":1459:1490  numeroCochesPersona[msg.sender] */\n      0x00\n        /* \"contracts/CarreraCoches/principal.sol\":1479:1489  msg.sender */\n      caller\n        /* \"contracts/CarreraCoches/principal.sol\":1459:1490  numeroCochesPersona[msg.sender] */\n      0xffffffffffffffffffffffffffffffffffffffff\n      and\n      0xffffffffffffffffffffffffffffffffffffffff\n      and\n      dup2\n      mstore\n      0x20\n      add\n      swap1\n      dup2\n      mstore\n      0x20\n      add\n      0x00\n      keccak256\n      0x00\n        /* \"contracts/CarreraCoches/principal.sol\":1459:1492  numeroCochesPersona[msg.sender]++ */\n      dup2\n      sload\n      dup1\n      swap3\n      swap2\n      swap1\n      tag_77\n      swap1\n      tag_78\n      jump\t// in\n    tag_77:\n      swap2\n      swap1\n      pop\n      sstore\n      pop\n        /* \"contracts/CarreraCoches/principal.sol\":1503:1511  contador */\n      0x02\n      0x00\n        /* \"contracts/CarreraCoches/principal.sol\":1503:1513  contador++ */\n      dup2\n      sload\n      dup1\n      swap3\n      swap2\n      swap1\n      tag_79\n      swap1\n      tag_78\n      jump\t// in\n    tag_79:\n      swap2\n      swap1\n      pop\n      sstore\n      pop\n        /* \"contracts/CarreraCoches/principal.sol\":1542:1543  1 */\n      0x01\n        /* \"contracts/CarreraCoches/principal.sol\":1531:1539  contador */\n      sload(0x02)\n        /* \"contracts/CarreraCoches/principal.sol\":1531:1543  contador - 1 */\n      tag_80\n      swap2\n      swap1\n      tag_81\n      jump\t// in\n    tag_80:\n        /* \"contracts/CarreraCoches/principal.sol\":1524:1543  return contador - 1 */\n      swap2\n      pop\n      pop\n        /* \"contracts/CarreraCoches/principal.sol\":1111:1551  function anadirCoche(string memory _modelo, string memory _marca, string memory _nombrePiloto) public restriccion returns (uint) {\r... */\n      swap4\n      swap3\n      pop\n      pop\n      pop\n      jump\t// out\n        /* \"contracts/CarreraCoches/principal.sol\":2788:3964  function Apostar(uint dineroApostar) public payable returns(string memory) {\r... */\n    tag_29:\n        /* \"contracts/CarreraCoches/principal.sol\":2848:2861  string memory */\n      0x60\n        /* \"contracts/CarreraCoches/principal.sol\":2894:2907  dineroApostar */\n      dup2\n        /* \"contracts/CarreraCoches/principal.sol\":2881:2890  msg.value */\n      callvalue\n        /* \"contracts/CarreraCoches/principal.sol\":2881:2907  msg.value == dineroApostar */\n      eq\n        /* \"contracts/CarreraCoches/principal.sol\":2873:2908  require(msg.value == dineroApostar) */\n      tag_83\n      jumpi\n      0x00\n      dup1\n      revert\n    tag_83:\n        /* \"contracts/CarreraCoches/principal.sol\":2929:2938  randNonce */\n      0x01\n      0x00\n        /* \"contracts/CarreraCoches/principal.sol\":2929:2940  randNonce++ */\n      dup2\n      sload\n      dup1\n      swap3\n      swap2\n      swap1\n      tag_84\n      swap1\n      tag_78\n      jump\t// in\n    tag_84:\n      swap2\n      swap1\n      pop\n      sstore\n      pop\n        /* \"contracts/CarreraCoches/principal.sol\":2987:3000  uint256 rival */\n      0x00\n        /* \"contracts/CarreraCoches/principal.sol\":3090:3101  listaCoches */\n      0x04\n        /* \"contracts/CarreraCoches/principal.sol\":3090:3108  listaCoches.length */\n      dup1\n      sload\n      swap1\n      pop\n        /* \"contracts/CarreraCoches/principal.sol\":3038:3053  block.timestamp */\n      timestamp\n        /* \"contracts/CarreraCoches/principal.sol\":3055:3066  listaCoches */\n      0x04\n        /* \"contracts/CarreraCoches/principal.sol\":3055:3073  listaCoches.length */\n      dup1\n      sload\n      swap1\n      pop\n        /* \"contracts/CarreraCoches/principal.sol\":3075:3084  randNonce */\n      sload(0x01)\n        /* \"contracts/CarreraCoches/principal.sol\":3021:3085  abi.encodePacked(block.timestamp, listaCoches.length, randNonce) */\n      add(0x20, mload(0x40))\n      tag_85\n      swap4\n      swap3\n      swap2\n      swap1\n      tag_86\n      jump\t// in\n    tag_85:\n      mload(0x40)\n      0x20\n      dup2\n      dup4\n      sub\n      sub\n      dup2\n      mstore\n      swap1\n      0x40\n      mstore\n        /* \"contracts/CarreraCoches/principal.sol\":3011:3086  keccak256(abi.encodePacked(block.timestamp, listaCoches.length, randNonce)) */\n      dup1\n      mload\n      swap1\n      0x20\n      add\n      keccak256\n        /* \"contracts/CarreraCoches/principal.sol\":3003:3087  uint256(keccak256(abi.encodePacked(block.timestamp, listaCoches.length, randNonce))) */\n      0x00\n      shr\n        /* \"contracts/CarreraCoches/principal.sol\":3003:3108  uint256(keccak256(abi.encodePacked(block.timestamp, listaCoches.length, randNonce))) % listaCoches.length */\n      tag_87\n      swap2\n      swap1\n      tag_88\n      jump\t// in\n    tag_87:\n        /* \"contracts/CarreraCoches/principal.sol\":2987:3108  uint256 rival = uint256(keccak256(abi.encodePacked(block.timestamp, listaCoches.length, randNonce))) % listaCoches.length */\n      swap1\n      pop\n        /* \"contracts/CarreraCoches/principal.sol\":3151:3160  randNonce */\n      0x01\n      0x00\n        /* \"contracts/CarreraCoches/principal.sol\":3151:3162  randNonce++ */\n      dup2\n      sload\n      dup1\n      swap3\n      swap2\n      swap1\n      tag_89\n      swap1\n      tag_78\n      jump\t// in\n    tag_89:\n      swap2\n      swap1\n      pop\n      sstore\n      pop\n        /* \"contracts/CarreraCoches/principal.sol\":3173:3184  uint numero */\n      0x00\n        /* \"contracts/CarreraCoches/principal.sol\":3187:3188  2 */\n      0x02\n        /* \"contracts/CarreraCoches/principal.sol\":3173:3188  uint numero = 2 */\n      swap1\n      pop\n        /* \"contracts/CarreraCoches/principal.sol\":3199:3214  uint256 ganador */\n      0x00\n        /* \"contracts/CarreraCoches/principal.sol\":3292:3298  numero */\n      dup2\n        /* \"contracts/CarreraCoches/principal.sol\":3252:3267  block.timestamp */\n      timestamp\n        /* \"contracts/CarreraCoches/principal.sol\":3269:3275  numero */\n      dup4\n        /* \"contracts/CarreraCoches/principal.sol\":3277:3286  randNonce */\n      sload(0x01)\n        /* \"contracts/CarreraCoches/principal.sol\":3235:3287  abi.encodePacked(block.timestamp, numero, randNonce) */\n      add(0x20, mload(0x40))\n      tag_90\n      swap4\n      swap3\n      swap2\n      swap1\n      tag_86\n      jump\t// in\n    tag_90:\n      mload(0x40)\n      0x20\n      dup2\n      dup4\n      sub\n      sub\n      dup2\n      mstore\n      swap1\n      0x40\n      mstore\n        /* \"contracts/CarreraCoches/principal.sol\":3225:3288  keccak256(abi.encodePacked(block.timestamp, numero, randNonce)) */\n      dup1\n      mload\n      swap1\n      0x20\n      add\n      keccak256\n        /* \"contracts/CarreraCoches/principal.sol\":3217:3289  uint256(keccak256(abi.encodePacked(block.timestamp, numero, randNonce))) */\n      0x00\n      shr\n        /* \"contracts/CarreraCoches/principal.sol\":3217:3298  uint256(keccak256(abi.encodePacked(block.timestamp, numero, randNonce))) % numero */\n      tag_91\n      swap2\n      swap1\n      tag_88\n      jump\t// in\n    tag_91:\n        /* \"contracts/CarreraCoches/principal.sol\":3199:3298  uint256 ganador = uint256(keccak256(abi.encodePacked(block.timestamp, numero, randNonce))) % numero */\n      swap1\n      pop\n        /* \"contracts/CarreraCoches/principal.sol\":3315:3321  uint i */\n      0x00\n        /* \"contracts/CarreraCoches/principal.sol\":3311:3958  for(uint i = 0; i < listaCoches.length; i++){\r... */\n    tag_92:\n        /* \"contracts/CarreraCoches/principal.sol\":3331:3342  listaCoches */\n      0x04\n        /* \"contracts/CarreraCoches/principal.sol\":3331:3349  listaCoches.length */\n      dup1\n      sload\n      swap1\n      pop\n        /* \"contracts/CarreraCoches/principal.sol\":3327:3328  i */\n      dup2\n        /* \"contracts/CarreraCoches/principal.sol\":3327:3349  i < listaCoches.length */\n      lt\n        /* \"contracts/CarreraCoches/principal.sol\":3311:3958  for(uint i = 0; i < listaCoches.length; i++){\r... */\n      iszero\n      tag_93\n      jumpi\n        /* \"contracts/CarreraCoches/principal.sol\":3491:3502  listaCoches */\n      0x04\n        /* \"contracts/CarreraCoches/principal.sol\":3503:3504  i */\n      dup2\n        /* \"contracts/CarreraCoches/principal.sol\":3491:3505  listaCoches[i] */\n      dup2\n      sload\n      dup2\n      lt\n      tag_95\n      jumpi\n      tag_96\n      tag_97\n      jump\t// in\n    tag_96:\n    tag_95:\n      swap1\n      0x00\n      mstore\n      keccak256(0x00, 0x20)\n      swap1\n      0x08\n      mul\n      add\n        /* \"contracts/CarreraCoches/principal.sol\":3491:3514  listaCoches[i].idPiloto */\n      0x00\n      add\n      0x00\n      swap1\n      sload\n      swap1\n      0x0100\n      exp\n      swap1\n      div\n      0xffffffffffffffffffffffffffffffffffffffff\n      and\n        /* \"contracts/CarreraCoches/principal.sol\":3477:3514  msg.sender == listaCoches[i].idPiloto */\n      0xffffffffffffffffffffffffffffffffffffffff\n      and\n        /* \"contracts/CarreraCoches/principal.sol\":3477:3487  msg.sender */\n      caller\n        /* \"contracts/CarreraCoches/principal.sol\":3477:3514  msg.sender == listaCoches[i].idPiloto */\n      0xffffffffffffffffffffffffffffffffffffffff\n      and\n      eq\n        /* \"contracts/CarreraCoches/principal.sol\":3473:3947  if (msg.sender == listaCoches[i].idPiloto) {\r... */\n      iszero\n      tag_99\n      jumpi\n        /* \"contracts/CarreraCoches/principal.sol\":3549:3550  0 */\n      0x00\n        /* \"contracts/CarreraCoches/principal.sol\":3538:3545  ganador */\n      dup3\n        /* \"contracts/CarreraCoches/principal.sol\":3538:3550  ganador == 0 */\n      eq\n        /* \"contracts/CarreraCoches/principal.sol\":3535:3843  if(ganador == 0){\r... */\n      iszero\n      tag_100\n      jumpi\n        /* \"contracts/CarreraCoches/principal.sol\":3574:3583  balance() */\n      tag_101\n        /* \"contracts/CarreraCoches/principal.sol\":3574:3581  balance */\n      tag_102\n        /* \"contracts/CarreraCoches/principal.sol\":3574:3583  balance() */\n      jump\t// in\n    tag_101:\n        /* \"contracts/CarreraCoches/principal.sol\":3606:3625  return \"Has ganado\" */\n      mload(0x40)\n      dup1\n      0x40\n      add\n      0x40\n      mstore\n      dup1\n      0x0a\n      dup2\n      mstore\n      0x20\n      add\n      0x4861732067616e61646f00000000000000000000000000000000000000000000\n      dup2\n      mstore\n      pop\n      swap5\n      pop\n      pop\n      pop\n      pop\n      pop\n      jump(tag_82)\n        /* \"contracts/CarreraCoches/principal.sol\":3535:3843  if(ganador == 0){\r... */\n    tag_100:\n        /* \"contracts/CarreraCoches/principal.sol\":3732:3780  mostrarResultado(\"El coche ganador es: \", rival) */\n      0xa28482eec3136a2461c6c30c08f71ba279c6c51a2d9c7bea4e50d6d2632f3896\n        /* \"contracts/CarreraCoches/principal.sol\":3774:3779  rival */\n      dup5\n        /* \"contracts/CarreraCoches/principal.sol\":3732:3780  mostrarResultado(\"El coche ganador es: \", rival) */\n      mload(0x40)\n      tag_108\n      swap2\n      swap1\n      tag_109\n      jump\t// in\n    tag_108:\n      mload(0x40)\n      dup1\n      swap2\n      sub\n      swap1\n      log1\n        /* \"contracts/CarreraCoches/principal.sol\":3803:3823  return \"Has perdido\" */\n      mload(0x40)\n      dup1\n      0x40\n      add\n      0x40\n      mstore\n      dup1\n      0x0b\n      dup2\n      mstore\n      0x20\n      add\n      0x486173207065726469646f000000000000000000000000000000000000000000\n      dup2\n      mstore\n      pop\n      swap5\n      pop\n      pop\n      pop\n      pop\n      pop\n      jump(tag_82)\n        /* \"contracts/CarreraCoches/principal.sol\":3473:3947  if (msg.sender == listaCoches[i].idPiloto) {\r... */\n    tag_99:\n        /* \"contracts/CarreraCoches/principal.sol\":3351:3354  i++ */\n      dup1\n      dup1\n      tag_119\n      swap1\n      tag_78\n      jump\t// in\n    tag_119:\n      swap2\n      pop\n      pop\n        /* \"contracts/CarreraCoches/principal.sol\":3311:3958  for(uint i = 0; i < listaCoches.length; i++){\r... */\n      jump(tag_92)\n    tag_93:\n      pop\n        /* \"contracts/CarreraCoches/principal.sol\":2863:3964  {\r... */\n      pop\n      pop\n      pop\n        /* \"contracts/CarreraCoches/principal.sol\":2788:3964  function Apostar(uint dineroApostar) public payable returns(string memory) {\r... */\n    tag_82:\n      swap2\n      swap1\n      pop\n      jump\t// out\n        /* \"contracts/CarreraCoches/ownable.sol\":1720:1823  function renounceOwnership() public virtual onlyOwner {\r... */\n    tag_34:\n        /* \"contracts/CarreraCoches/ownable.sol\":1300:1312  _msgSender() */\n      tag_121\n        /* \"contracts/CarreraCoches/ownable.sol\":1300:1310  _msgSender */\n      tag_122\n        /* \"contracts/CarreraCoches/ownable.sol\":1300:1312  _msgSender() */\n      jump\t// in\n    tag_121:\n        /* \"contracts/CarreraCoches/ownable.sol\":1289:1312  owner() == _msgSender() */\n      0xffffffffffffffffffffffffffffffffffffffff\n      and\n        /* \"contracts/CarreraCoches/ownable.sol\":1289:1296  owner() */\n      tag_123\n        /* \"contracts/CarreraCoches/ownable.sol\":1289:1294  owner */\n      tag_43\n        /* \"contracts/CarreraCoches/ownable.sol\":1289:1296  owner() */\n      jump\t// in\n    tag_123:\n        /* \"contracts/CarreraCoches/ownable.sol\":1289:1312  owner() == _msgSender() */\n      0xffffffffffffffffffffffffffffffffffffffff\n      and\n      eq\n        /* \"contracts/CarreraCoches/ownable.sol\":1281:1349  require(owner() == _msgSender(), \"Ownable: caller is not the owner\") */\n      tag_124\n      jumpi\n      mload(0x40)\n      0x08c379a000000000000000000000000000000000000000000000000000000000\n      dup2\n      mstore\n      0x04\n      add\n      tag_125\n      swap1\n      tag_126\n      jump\t// in\n    tag_125:\n      mload(0x40)\n      dup1\n      swap2\n      sub\n      swap1\n      revert\n    tag_124:\n        /* \"contracts/CarreraCoches/ownable.sol\":1785:1815  _transferOwnership(address(0)) */\n      tag_128\n        /* \"contracts/CarreraCoches/ownable.sol\":1812:1813  0 */\n      0x00\n        /* \"contracts/CarreraCoches/ownable.sol\":1785:1803  _transferOwnership */\n      tag_129\n        /* \"contracts/CarreraCoches/ownable.sol\":1785:1815  _transferOwnership(address(0)) */\n      jump\t// in\n    tag_128:\n        /* \"contracts/CarreraCoches/ownable.sol\":1720:1823  function renounceOwnership() public virtual onlyOwner {\r... */\n      jump\t// out\n        /* \"contracts/CarreraCoches/principal.sol\":758:809  mapping (uint => address) public cocheDePropietario */\n    tag_38:\n      mstore(0x20, 0x05)\n      dup1\n      0x00\n      mstore\n      keccak256(0x00, 0x40)\n      0x00\n      swap2\n      pop\n      sload\n      swap1\n      0x0100\n      exp\n      swap1\n      div\n      0xffffffffffffffffffffffffffffffffffffffff\n      and\n      dup2\n      jump\t// out\n        /* \"contracts/CarreraCoches/ownable.sol\":1069:1156  function owner() public view virtual returns (address) {\r... */\n    tag_43:\n        /* \"contracts/CarreraCoches/ownable.sol\":1115:1122  address */\n      0x00\n        /* \"contracts/CarreraCoches/ownable.sol\":1142:1148  _owner */\n      dup1\n      0x00\n      swap1\n      sload\n      swap1\n      0x0100\n      exp\n      swap1\n      div\n      0xffffffffffffffffffffffffffffffffffffffff\n      and\n        /* \"contracts/CarreraCoches/ownable.sol\":1135:1148  return _owner */\n      swap1\n      pop\n        /* \"contracts/CarreraCoches/ownable.sol\":1069:1156  function owner() public view virtual returns (address) {\r... */\n      swap1\n      jump\t// out\n        /* \"contracts/CarreraCoches/principal.sol\":537:563  Coche[] public listaCoches */\n    tag_48:\n      0x04\n      dup2\n      dup2\n      sload\n      dup2\n      lt\n      tag_131\n      jumpi\n      0x00\n      dup1\n      revert\n    tag_131:\n      swap1\n      0x00\n      mstore\n      keccak256(0x00, 0x20)\n      swap1\n      0x08\n      mul\n      add\n      0x00\n      swap2\n      pop\n      swap1\n      pop\n      dup1\n      0x00\n      add\n      0x00\n      swap1\n      sload\n      swap1\n      0x0100\n      exp\n      swap1\n      div\n      0xffffffffffffffffffffffffffffffffffffffff\n      and\n      swap1\n      dup1\n      0x01\n      add\n      dup1\n      sload\n      tag_133\n      swap1\n      tag_134\n      jump\t// in\n    tag_133:\n      dup1\n      0x1f\n      add\n      0x20\n      dup1\n      swap2\n      div\n      mul\n      0x20\n      add\n      mload(0x40)\n      swap1\n      dup2\n      add\n      0x40\n      mstore\n      dup1\n      swap3\n      swap2\n      swap1\n      dup2\n      dup2\n      mstore\n      0x20\n      add\n      dup3\n      dup1\n      sload\n      tag_135\n      swap1\n      tag_134\n      jump\t// in\n    tag_135:\n      dup1\n      iszero\n      tag_136\n      jumpi\n      dup1\n      0x1f\n      lt\n      tag_137\n      jumpi\n      0x0100\n      dup1\n      dup4\n      sload\n      div\n      mul\n      dup4\n      mstore\n      swap2\n      0x20\n      add\n      swap2\n      jump(tag_136)\n    tag_137:\n      dup3\n      add\n      swap2\n      swap1\n      0x00\n      mstore\n      keccak256(0x00, 0x20)\n      swap1\n    tag_138:\n      dup2\n      sload\n      dup2\n      mstore\n      swap1\n      0x01\n      add\n      swap1\n      0x20\n      add\n      dup1\n      dup4\n      gt\n      tag_138\n      jumpi\n      dup3\n      swap1\n      sub\n      0x1f\n      and\n      dup3\n      add\n      swap2\n    tag_136:\n      pop\n      pop\n      pop\n      pop\n      pop\n      swap1\n      dup1\n      0x02\n      add\n      dup1\n      sload\n      tag_139\n      swap1\n      tag_134\n      jump\t// in\n    tag_139:\n      dup1\n      0x1f\n      add\n      0x20\n      dup1\n      swap2\n      div\n      mul\n      0x20\n      add\n      mload(0x40)\n      swap1\n      dup2\n      add\n      0x40\n      mstore\n      dup1\n      swap3\n      swap2\n      swap1\n      dup2\n      dup2\n      mstore\n      0x20\n      add\n      dup3\n      dup1\n      sload\n      tag_140\n      swap1\n      tag_134\n      jump\t// in\n    tag_140:\n      dup1\n      iszero\n      tag_141\n      jumpi\n      dup1\n      0x1f\n      lt\n      tag_142\n      jumpi\n      0x0100\n      dup1\n      dup4\n      sload\n      div\n      mul\n      dup4\n      mstore\n      swap2\n      0x20\n      add\n      swap2\n      jump(tag_141)\n    tag_142:\n      dup3\n      add\n      swap2\n      swap1\n      0x00\n      mstore\n      keccak256(0x00, 0x20)\n      swap1\n    tag_143:\n      dup2\n      sload\n      dup2\n      mstore\n      swap1\n      0x01\n      add\n      swap1\n      0x20\n      add\n      dup1\n      dup4\n      gt\n      tag_143\n      jumpi\n      dup3\n      swap1\n      sub\n      0x1f\n      and\n      dup3\n      add\n      swap2\n    tag_141:\n      pop\n      pop\n      pop\n      pop\n      pop\n      swap1\n      dup1\n      0x03\n      add\n      dup1\n      sload\n      tag_144\n      swap1\n      tag_134\n      jump\t// in\n    tag_144:\n      dup1\n      0x1f\n      add\n      0x20\n      dup1\n      swap2\n      div\n      mul\n      0x20\n      add\n      mload(0x40)\n      swap1\n      dup2\n      add\n      0x40\n      mstore\n      dup1\n      swap3\n      swap2\n      swap1\n      dup2\n      dup2\n      mstore\n      0x20\n      add\n      dup3\n      dup1\n      sload\n      tag_145\n      swap1\n      tag_134\n      jump\t// in\n    tag_145:\n      dup1\n      iszero\n      tag_146\n      jumpi\n      dup1\n      0x1f\n      lt\n      tag_147\n      jumpi\n      0x0100\n      dup1\n      dup4\n      sload\n      div\n      mul\n      dup4\n      mstore\n      swap2\n      0x20\n      add\n      swap2\n      jump(tag_146)\n    tag_147:\n      dup3\n      add\n      swap2\n      swap1\n      0x00\n      mstore\n      keccak256(0x00, 0x20)\n      swap1\n    tag_148:\n      dup2\n      sload\n      dup2\n      mstore\n      swap1\n      0x01\n      add\n      swap1\n      0x20\n      add\n      dup1\n      dup4\n      gt\n      tag_148\n      jumpi\n      dup3\n      swap1\n      sub\n      0x1f\n      and\n      dup3\n      add\n      swap2\n    tag_146:\n      pop\n      pop\n      pop\n      pop\n      pop\n      swap1\n      dup1\n      0x04\n      add\n      sload\n      swap1\n      dup1\n      0x05\n      add\n      sload\n      swap1\n      dup1\n      0x06\n      add\n      sload\n      swap1\n      dup1\n      0x07\n      add\n      0x00\n      swap1\n      sload\n      swap1\n      0x0100\n      exp\n      swap1\n      div\n      0xffffffff\n      and\n      swap1\n      pop\n      dup9\n      jump\t// out\n        /* \"contracts/CarreraCoches/principal.sol\":2108:2451  function verCochePropietario(address _propietario) external returns(uint[] memory){\r... */\n    tag_54:\n        /* \"contracts/CarreraCoches/principal.sol\":2176:2189  uint[] memory */\n      0x60\n        /* \"contracts/CarreraCoches/principal.sol\":2201:2223  string[] memory result */\n      dup1\n        /* \"contracts/CarreraCoches/principal.sol\":2238:2244  uint i */\n      0x00\n        /* \"contracts/CarreraCoches/principal.sol\":2234:2444  for(uint i = 0; i < listaCoches.length; i++){\r... */\n    tag_150:\n        /* \"contracts/CarreraCoches/principal.sol\":2254:2265  listaCoches */\n      0x04\n        /* \"contracts/CarreraCoches/principal.sol\":2254:2272  listaCoches.length */\n      dup1\n      sload\n      swap1\n      pop\n        /* \"contracts/CarreraCoches/principal.sol\":2250:2251  i */\n      dup2\n        /* \"contracts/CarreraCoches/principal.sol\":2250:2272  i < listaCoches.length */\n      lt\n        /* \"contracts/CarreraCoches/principal.sol\":2234:2444  for(uint i = 0; i < listaCoches.length; i++){\r... */\n      iszero\n      tag_151\n      jumpi\n        /* \"contracts/CarreraCoches/principal.sol\":2319:2331  _propietario */\n      dup4\n        /* \"contracts/CarreraCoches/principal.sol\":2296:2331  cocheDePropietario[i]==_propietario */\n      0xffffffffffffffffffffffffffffffffffffffff\n      and\n        /* \"contracts/CarreraCoches/principal.sol\":2296:2314  cocheDePropietario */\n      0x05\n        /* \"contracts/CarreraCoches/principal.sol\":2296:2317  cocheDePropietario[i] */\n      0x00\n        /* \"contracts/CarreraCoches/principal.sol\":2315:2316  i */\n      dup4\n        /* \"contracts/CarreraCoches/principal.sol\":2296:2317  cocheDePropietario[i] */\n      dup2\n      mstore\n      0x20\n      add\n      swap1\n      dup2\n      mstore\n      0x20\n      add\n      0x00\n      keccak256\n      0x00\n      swap1\n      sload\n      swap1\n      0x0100\n      exp\n      swap1\n      div\n      0xffffffffffffffffffffffffffffffffffffffff\n      and\n        /* \"contracts/CarreraCoches/principal.sol\":2296:2331  cocheDePropietario[i]==_propietario */\n      0xffffffffffffffffffffffffffffffffffffffff\n      and\n      eq\n        /* \"contracts/CarreraCoches/principal.sol\":2293:2433  if(cocheDePropietario[i]==_propietario){\r... */\n      iszero\n      tag_153\n      jumpi\n        /* \"contracts/CarreraCoches/principal.sol\":2356:2417  cochePropietario(listaCoches[i].marca, listaCoches[i].modelo) */\n      0x96408510f58a52b0cfe536e046b25664fa36d8122620ec608c1767b45aa4f03c\n        /* \"contracts/CarreraCoches/principal.sol\":2373:2384  listaCoches */\n      0x04\n        /* \"contracts/CarreraCoches/principal.sol\":2385:2386  i */\n      dup3\n        /* \"contracts/CarreraCoches/principal.sol\":2373:2387  listaCoches[i] */\n      dup2\n      sload\n      dup2\n      lt\n      tag_154\n      jumpi\n      tag_155\n      tag_97\n      jump\t// in\n    tag_155:\n    tag_154:\n      swap1\n      0x00\n      mstore\n      keccak256(0x00, 0x20)\n      swap1\n      0x08\n      mul\n      add\n        /* \"contracts/CarreraCoches/principal.sol\":2373:2393  listaCoches[i].marca */\n      0x02\n      add\n        /* \"contracts/CarreraCoches/principal.sol\":2395:2406  listaCoches */\n      0x04\n        /* \"contracts/CarreraCoches/principal.sol\":2407:2408  i */\n      dup4\n        /* \"contracts/CarreraCoches/principal.sol\":2395:2409  listaCoches[i] */\n      dup2\n      sload\n      dup2\n      lt\n      tag_157\n      jumpi\n      tag_158\n      tag_97\n      jump\t// in\n    tag_158:\n    tag_157:\n      swap1\n      0x00\n      mstore\n      keccak256(0x00, 0x20)\n      swap1\n      0x08\n      mul\n      add\n        /* \"contracts/CarreraCoches/principal.sol\":2395:2416  listaCoches[i].modelo */\n      0x01\n      add\n        /* \"contracts/CarreraCoches/principal.sol\":2356:2417  cochePropietario(listaCoches[i].marca, listaCoches[i].modelo) */\n      mload(0x40)\n      tag_160\n      swap3\n      swap2\n      swap1\n      tag_161\n      jump\t// in\n    tag_160:\n      mload(0x40)\n      dup1\n      swap2\n      sub\n      swap1\n      log1\n        /* \"contracts/CarreraCoches/principal.sol\":2293:2433  if(cocheDePropietario[i]==_propietario){\r... */\n    tag_153:\n        /* \"contracts/CarreraCoches/principal.sol\":2274:2277  i++ */\n      dup1\n      dup1\n      tag_162\n      swap1\n      tag_78\n      jump\t// in\n    tag_162:\n      swap2\n      pop\n      pop\n        /* \"contracts/CarreraCoches/principal.sol\":2234:2444  for(uint i = 0; i < listaCoches.length; i++){\r... */\n      jump(tag_150)\n    tag_151:\n      pop\n        /* \"contracts/CarreraCoches/principal.sol\":2190:2451  {\r... */\n      pop\n        /* \"contracts/CarreraCoches/principal.sol\":2108:2451  function verCochePropietario(address _propietario) external returns(uint[] memory){\r... */\n      swap2\n      swap1\n      pop\n      jump\t// out\n        /* \"contracts/CarreraCoches/principal.sol\":1881:2100  function numeroAleatorio() public returns (uint256) {\r... */\n    tag_59:\n        /* \"contracts/CarreraCoches/principal.sol\":1924:1931  uint256 */\n      0x00\n        /* \"contracts/CarreraCoches/principal.sol\":1944:1955  uint numero */\n      dup1\n        /* \"contracts/CarreraCoches/principal.sol\":1958:1959  2 */\n      0x02\n        /* \"contracts/CarreraCoches/principal.sol\":1944:1959  uint numero = 2 */\n      swap1\n      pop\n        /* \"contracts/CarreraCoches/principal.sol\":1970:1984  uint256 result */\n      0x00\n        /* \"contracts/CarreraCoches/principal.sol\":2062:2068  numero */\n      dup2\n        /* \"contracts/CarreraCoches/principal.sol\":2022:2037  block.timestamp */\n      timestamp\n        /* \"contracts/CarreraCoches/principal.sol\":2039:2045  numero */\n      dup4\n        /* \"contracts/CarreraCoches/principal.sol\":2047:2056  randNonce */\n      sload(0x01)\n        /* \"contracts/CarreraCoches/principal.sol\":2005:2057  abi.encodePacked(block.timestamp, numero, randNonce) */\n      add(0x20, mload(0x40))\n      tag_164\n      swap4\n      swap3\n      swap2\n      swap1\n      tag_86\n      jump\t// in\n    tag_164:\n      mload(0x40)\n      0x20\n      dup2\n      dup4\n      sub\n      sub\n      dup2\n      mstore\n      swap1\n      0x40\n      mstore\n        /* \"contracts/CarreraCoches/principal.sol\":1995:2058  keccak256(abi.encodePacked(block.timestamp, numero, randNonce)) */\n      dup1\n      mload\n      swap1\n      0x20\n      add\n      keccak256\n        /* \"contracts/CarreraCoches/principal.sol\":1987:2059  uint256(keccak256(abi.encodePacked(block.timestamp, numero, randNonce))) */\n      0x00\n      shr\n        /* \"contracts/CarreraCoches/principal.sol\":1987:2068  uint256(keccak256(abi.encodePacked(block.timestamp, numero, randNonce))) % numero */\n      tag_165\n      swap2\n      swap1\n      tag_88\n      jump\t// in\n    tag_165:\n        /* \"contracts/CarreraCoches/principal.sol\":1970:2068  uint256 result = uint256(keccak256(abi.encodePacked(block.timestamp, numero, randNonce))) % numero */\n      swap1\n      pop\n        /* \"contracts/CarreraCoches/principal.sol\":2086:2092  result */\n      dup1\n        /* \"contracts/CarreraCoches/principal.sol\":2079:2092  return result */\n      swap3\n      pop\n      pop\n      pop\n        /* \"contracts/CarreraCoches/principal.sol\":1881:2100  function numeroAleatorio() public returns (uint256) {\r... */\n      swap1\n      jump\t// out\n        /* \"contracts/CarreraCoches/ownable.sol\":1978:2179  function transferOwnership(address newOwner) public virtual onlyOwner {\r... */\n    tag_64:\n        /* \"contracts/CarreraCoches/ownable.sol\":1300:1312  _msgSender() */\n      tag_167\n        /* \"contracts/CarreraCoches/ownable.sol\":1300:1310  _msgSender */\n      tag_122\n        /* \"contracts/CarreraCoches/ownable.sol\":1300:1312  _msgSender() */\n      jump\t// in\n    tag_167:\n        /* \"contracts/CarreraCoches/ownable.sol\":1289:1312  owner() == _msgSender() */\n      0xffffffffffffffffffffffffffffffffffffffff\n      and\n        /* \"contracts/CarreraCoches/ownable.sol\":1289:1296  owner() */\n      tag_168\n        /* \"contracts/CarreraCoches/ownable.sol\":1289:1294  owner */\n      tag_43\n        /* \"contracts/CarreraCoches/ownable.sol\":1289:1296  owner() */\n      jump\t// in\n    tag_168:\n        /* \"contracts/CarreraCoches/ownable.sol\":1289:1312  owner() == _msgSender() */\n      0xffffffffffffffffffffffffffffffffffffffff\n      and\n      eq\n        /* \"contracts/CarreraCoches/ownable.sol\":1281:1349  require(owner() == _msgSender(), \"Ownable: caller is not the owner\") */\n      tag_169\n      jumpi\n      mload(0x40)\n      0x08c379a000000000000000000000000000000000000000000000000000000000\n      dup2\n      mstore\n      0x04\n      add\n      tag_170\n      swap1\n      tag_126\n      jump\t// in\n    tag_170:\n      mload(0x40)\n      dup1\n      swap2\n      sub\n      swap1\n      revert\n    tag_169:\n        /* \"contracts/CarreraCoches/ownable.sol\":2087:2088  0 */\n      0x00\n        /* \"contracts/CarreraCoches/ownable.sol\":2067:2089  newOwner != address(0) */\n      0xffffffffffffffffffffffffffffffffffffffff\n      and\n        /* \"contracts/CarreraCoches/ownable.sol\":2067:2075  newOwner */\n      dup2\n        /* \"contracts/CarreraCoches/ownable.sol\":2067:2089  newOwner != address(0) */\n      0xffffffffffffffffffffffffffffffffffffffff\n      and\n      eq\n      iszero\n        /* \"contracts/CarreraCoches/ownable.sol\":2059:2132  require(newOwner != address(0), \"Ownable: new owner is the zero address\") */\n      tag_172\n      jumpi\n      mload(0x40)\n      0x08c379a000000000000000000000000000000000000000000000000000000000\n      dup2\n      mstore\n      0x04\n      add\n      tag_173\n      swap1\n      tag_174\n      jump\t// in\n    tag_173:\n      mload(0x40)\n      dup1\n      swap2\n      sub\n      swap1\n      revert\n    tag_172:\n        /* \"contracts/CarreraCoches/ownable.sol\":2143:2171  _transferOwnership(newOwner) */\n      tag_175\n        /* \"contracts/CarreraCoches/ownable.sol\":2162:2170  newOwner */\n      dup2\n        /* \"contracts/CarreraCoches/ownable.sol\":2143:2161  _transferOwnership */\n      tag_129\n        /* \"contracts/CarreraCoches/ownable.sol\":2143:2171  _transferOwnership(newOwner) */\n      jump\t// in\n    tag_175:\n        /* \"contracts/CarreraCoches/ownable.sol\":1978:2179  function transferOwnership(address newOwner) public virtual onlyOwner {\r... */\n      pop\n      jump\t// out\n        /* \"contracts/CarreraCoches/principal.sol\":4021:4200  function balance() private {\r... */\n    tag_102:\n        /* \"contracts/CarreraCoches/principal.sol\":4068:4078  msg.sender */\n      caller\n        /* \"contracts/CarreraCoches/principal.sol\":4059:4088  payable (msg.sender).transfer */\n      0xffffffffffffffffffffffffffffffffffffffff\n      and\n        /* \"contracts/CarreraCoches/principal.sol\":4059:4115  payable (msg.sender).transfer((address(this).balance)*2) */\n      0x08fc\n        /* \"contracts/CarreraCoches/principal.sol\":4113:4114  2 */\n      0x02\n        /* \"contracts/CarreraCoches/principal.sol\":4090:4111  address(this).balance */\n      selfbalance\n        /* \"contracts/CarreraCoches/principal.sol\":4089:4114  (address(this).balance)*2 */\n      tag_177\n      swap2\n      swap1\n      tag_178\n      jump\t// in\n    tag_177:\n        /* \"contracts/CarreraCoches/principal.sol\":4059:4115  payable (msg.sender).transfer((address(this).balance)*2) */\n      swap1\n      dup2\n      iszero\n      mul\n      swap1\n      mload(0x40)\n      0x00\n      mload(0x40)\n      dup1\n      dup4\n      sub\n      dup2\n      dup6\n      dup9\n      dup9\n      call\n      swap4\n      pop\n      pop\n      pop\n      pop\n      iszero\n      dup1\n      iszero\n      tag_180\n      jumpi\n      returndatasize\n      0x00\n      dup1\n      returndatacopy\n      revert(0x00, returndatasize)\n    tag_180:\n      pop\n        /* \"contracts/CarreraCoches/principal.sol\":4131:4192  mostrarResultado(\"Has ganado: \", ((address(this).balance)*2)) */\n      0xa28482eec3136a2461c6c30c08f71ba279c6c51a2d9c7bea4e50d6d2632f3896\n        /* \"contracts/CarreraCoches/principal.sol\":4189:4190  2 */\n      0x02\n        /* \"contracts/CarreraCoches/principal.sol\":4166:4187  address(this).balance */\n      selfbalance\n        /* \"contracts/CarreraCoches/principal.sol\":4165:4190  (address(this).balance)*2 */\n      tag_181\n      swap2\n      swap1\n      tag_178\n      jump\t// in\n    tag_181:\n        /* \"contracts/CarreraCoches/principal.sol\":4131:4192  mostrarResultado(\"Has ganado: \", ((address(this).balance)*2)) */\n      mload(0x40)\n      tag_182\n      swap2\n      swap1\n      tag_183\n      jump\t// in\n    tag_182:\n      mload(0x40)\n      dup1\n      swap2\n      sub\n      swap1\n      log1\n        /* \"contracts/CarreraCoches/principal.sol\":4021:4200  function balance() private {\r... */\n      jump\t// out\n        /* \"contracts/CarreraCoches/utils/Context.sol\":656:754  function _msgSender() internal view virtual returns (address) {\r... */\n    tag_122:\n        /* \"contracts/CarreraCoches/utils/Context.sol\":709:716  address */\n      0x00\n        /* \"contracts/CarreraCoches/utils/Context.sol\":736:746  msg.sender */\n      caller\n        /* \"contracts/CarreraCoches/utils/Context.sol\":729:746  return msg.sender */\n      swap1\n      pop\n        /* \"contracts/CarreraCoches/utils/Context.sol\":656:754  function _msgSender() internal view virtual returns (address) {\r... */\n      swap1\n      jump\t// out\n        /* \"contracts/CarreraCoches/ownable.sol\":2339:2530  function _transferOwnership(address newOwner) internal virtual {\r... */\n    tag_129:\n        /* \"contracts/CarreraCoches/ownable.sol\":2413:2429  address oldOwner */\n      0x00\n        /* \"contracts/CarreraCoches/ownable.sol\":2432:2438  _owner */\n      dup1\n      0x00\n      swap1\n      sload\n      swap1\n      0x0100\n      exp\n      swap1\n      div\n      0xffffffffffffffffffffffffffffffffffffffff\n      and\n        /* \"contracts/CarreraCoches/ownable.sol\":2413:2438  address oldOwner = _owner */\n      swap1\n      pop\n        /* \"contracts/CarreraCoches/ownable.sol\":2458:2466  newOwner */\n      dup2\n        /* \"contracts/CarreraCoches/ownable.sol\":2449:2455  _owner */\n      0x00\n      dup1\n        /* \"contracts/CarreraCoches/ownable.sol\":2449:2466  _owner = newOwner */\n      0x0100\n      exp\n      dup2\n      sload\n      dup2\n      0xffffffffffffffffffffffffffffffffffffffff\n      mul\n      not\n      and\n      swap1\n      dup4\n      0xffffffffffffffffffffffffffffffffffffffff\n      and\n      mul\n      or\n      swap1\n      sstore\n      pop\n        /* \"contracts/CarreraCoches/ownable.sol\":2513:2521  newOwner */\n      dup2\n        /* \"contracts/CarreraCoches/ownable.sol\":2482:2522  OwnershipTransferred(oldOwner, newOwner) */\n      0xffffffffffffffffffffffffffffffffffffffff\n      and\n        /* \"contracts/CarreraCoches/ownable.sol\":2503:2511  oldOwner */\n      dup2\n        /* \"contracts/CarreraCoches/ownable.sol\":2482:2522  OwnershipTransferred(oldOwner, newOwner) */\n      0xffffffffffffffffffffffffffffffffffffffff\n      and\n      0x8be0079c531659141344cd1fd0a4f28419497f9722a3daafe3b4186f6b6457e0\n      mload(0x40)\n      mload(0x40)\n      dup1\n      swap2\n      sub\n      swap1\n      log3\n        /* \"contracts/CarreraCoches/ownable.sol\":2402:2530  {\r... */\n      pop\n        /* \"contracts/CarreraCoches/ownable.sol\":2339:2530  function _transferOwnership(address newOwner) internal virtual {\r... */\n      pop\n      jump\t// out\n    tag_74:\n      dup3\n      dup1\n      sload\n      tag_188\n      swap1\n      tag_134\n      jump\t// in\n    tag_188:\n      swap1\n      0x00\n      mstore\n      keccak256(0x00, 0x20)\n      swap1\n      0x1f\n      add\n      0x20\n      swap1\n      div\n      dup2\n      add\n      swap3\n      dup3\n      tag_190\n      jumpi\n      0x00\n      dup6\n      sstore\n      jump(tag_189)\n    tag_190:\n      dup3\n      0x1f\n      lt\n      tag_191\n      jumpi\n      dup1\n      mload\n      not(0xff)\n      and\n      dup4\n      dup1\n      add\n      or\n      dup6\n      sstore\n      jump(tag_189)\n    tag_191:\n      dup3\n      dup1\n      add\n      0x01\n      add\n      dup6\n      sstore\n      dup3\n      iszero\n      tag_189\n      jumpi\n      swap2\n      dup3\n      add\n    tag_192:\n      dup3\n      dup2\n      gt\n      iszero\n      tag_193\n      jumpi\n      dup3\n      mload\n      dup3\n      sstore\n      swap2\n      0x20\n      add\n      swap2\n      swap1\n      0x01\n      add\n      swap1\n      jump(tag_192)\n    tag_193:\n    tag_189:\n      pop\n      swap1\n      pop\n      tag_194\n      swap2\n      swap1\n      tag_195\n      jump\t// in\n    tag_194:\n      pop\n      swap1\n      jump\t// out\n    tag_195:\n    tag_196:\n      dup1\n      dup3\n      gt\n      iszero\n      tag_197\n      jumpi\n      0x00\n      dup2\n      0x00\n      swap1\n      sstore\n      pop\n      0x01\n      add\n      jump(tag_196)\n    tag_197:\n      pop\n      swap1\n      jump\t// out\n        /* \"#utility.yul\":7:419   */\n    tag_199:\n        /* \"#utility.yul\":85:90   */\n      0x00\n        /* \"#utility.yul\":110:176   */\n      tag_201\n        /* \"#utility.yul\":126:175   */\n      tag_202\n        /* \"#utility.yul\":168:174   */\n      dup5\n        /* \"#utility.yul\":126:175   */\n      tag_203\n      jump\t// in\n    tag_202:\n        /* \"#utility.yul\":110:176   */\n      tag_204\n      jump\t// in\n    tag_201:\n        /* \"#utility.yul\":101:176   */\n      swap1\n      pop\n        /* \"#utility.yul\":199:205   */\n      dup3\n        /* \"#utility.yul\":192:197   */\n      dup2\n        /* \"#utility.yul\":185:206   */\n      mstore\n        /* \"#utility.yul\":237:241   */\n      0x20\n        /* \"#utility.yul\":230:235   */\n      dup2\n        /* \"#utility.yul\":226:242   */\n      add\n        /* \"#utility.yul\":275:278   */\n      dup5\n        /* \"#utility.yul\":266:272   */\n      dup5\n        /* \"#utility.yul\":261:264   */\n      dup5\n        /* \"#utility.yul\":257:273   */\n      add\n        /* \"#utility.yul\":254:279   */\n      gt\n        /* \"#utility.yul\":251:363   */\n      iszero\n      tag_205\n      jumpi\n        /* \"#utility.yul\":282:361   */\n      tag_206\n      tag_207\n      jump\t// in\n    tag_206:\n        /* \"#utility.yul\":251:363   */\n    tag_205:\n        /* \"#utility.yul\":372:413   */\n      tag_208\n        /* \"#utility.yul\":406:412   */\n      dup5\n        /* \"#utility.yul\":401:404   */\n      dup3\n        /* \"#utility.yul\":396:399   */\n      dup6\n        /* \"#utility.yul\":372:413   */\n      tag_209\n      jump\t// in\n    tag_208:\n        /* \"#utility.yul\":91:419   */\n      pop\n        /* \"#utility.yul\":7:419   */\n      swap4\n      swap3\n      pop\n      pop\n      pop\n      jump\t// out\n        /* \"#utility.yul\":425:564   */\n    tag_210:\n        /* \"#utility.yul\":471:476   */\n      0x00\n        /* \"#utility.yul\":509:515   */\n      dup2\n        /* \"#utility.yul\":496:516   */\n      calldataload\n        /* \"#utility.yul\":487:516   */\n      swap1\n      pop\n        /* \"#utility.yul\":525:558   */\n      tag_212\n        /* \"#utility.yul\":552:557   */\n      dup2\n        /* \"#utility.yul\":525:558   */\n      tag_213\n      jump\t// in\n    tag_212:\n        /* \"#utility.yul\":425:564   */\n      swap3\n      swap2\n      pop\n      pop\n      jump\t// out\n        /* \"#utility.yul\":584:924   */\n    tag_214:\n        /* \"#utility.yul\":640:645   */\n      0x00\n        /* \"#utility.yul\":689:692   */\n      dup3\n        /* \"#utility.yul\":682:686   */\n      0x1f\n        /* \"#utility.yul\":674:680   */\n      dup4\n        /* \"#utility.yul\":670:687   */\n      add\n        /* \"#utility.yul\":666:693   */\n      slt\n        /* \"#utility.yul\":656:778   */\n      tag_216\n      jumpi\n        /* \"#utility.yul\":697:776   */\n      tag_217\n      tag_218\n      jump\t// in\n    tag_217:\n        /* \"#utility.yul\":656:778   */\n    tag_216:\n        /* \"#utility.yul\":814:820   */\n      dup2\n        /* \"#utility.yul\":801:821   */\n      calldataload\n        /* \"#utility.yul\":839:918   */\n      tag_219\n        /* \"#utility.yul\":914:917   */\n      dup5\n        /* \"#utility.yul\":906:912   */\n      dup3\n        /* \"#utility.yul\":899:903   */\n      0x20\n        /* \"#utility.yul\":891:897   */\n      dup7\n        /* \"#utility.yul\":887:904   */\n      add\n        /* \"#utility.yul\":839:918   */\n      tag_199\n      jump\t// in\n    tag_219:\n        /* \"#utility.yul\":830:918   */\n      swap2\n      pop\n        /* \"#utility.yul\":646:924   */\n      pop\n        /* \"#utility.yul\":584:924   */\n      swap3\n      swap2\n      pop\n      pop\n      jump\t// out\n        /* \"#utility.yul\":930:1069   */\n    tag_220:\n        /* \"#utility.yul\":976:981   */\n      0x00\n        /* \"#utility.yul\":1014:1020   */\n      dup2\n        /* \"#utility.yul\":1001:1021   */\n      calldataload\n        /* \"#utility.yul\":992:1021   */\n      swap1\n      pop\n        /* \"#utility.yul\":1030:1063   */\n      tag_222\n        /* \"#utility.yul\":1057:1062   */\n      dup2\n        /* \"#utility.yul\":1030:1063   */\n      tag_223\n      jump\t// in\n    tag_222:\n        /* \"#utility.yul\":930:1069   */\n      swap3\n      swap2\n      pop\n      pop\n      jump\t// out\n        /* \"#utility.yul\":1075:1404   */\n    tag_16:\n        /* \"#utility.yul\":1134:1140   */\n      0x00\n        /* \"#utility.yul\":1183:1185   */\n      0x20\n        /* \"#utility.yul\":1171:1180   */\n      dup3\n        /* \"#utility.yul\":1162:1169   */\n      dup5\n        /* \"#utility.yul\":1158:1181   */\n      sub\n        /* \"#utility.yul\":1154:1186   */\n      slt\n        /* \"#utility.yul\":1151:1270   */\n      iszero\n      tag_225\n      jumpi\n        /* \"#utility.yul\":1189:1268   */\n      tag_226\n      tag_227\n      jump\t// in\n    tag_226:\n        /* \"#utility.yul\":1151:1270   */\n    tag_225:\n        /* \"#utility.yul\":1309:1310   */\n      0x00\n        /* \"#utility.yul\":1334:1387   */\n      tag_228\n        /* \"#utility.yul\":1379:1386   */\n      dup5\n        /* \"#utility.yul\":1370:1376   */\n      dup3\n        /* \"#utility.yul\":1359:1368   */\n      dup6\n        /* \"#utility.yul\":1355:1377   */\n      add\n        /* \"#utility.yul\":1334:1387   */\n      tag_210\n      jump\t// in\n    tag_228:\n        /* \"#utility.yul\":1324:1387   */\n      swap2\n      pop\n        /* \"#utility.yul\":1280:1397   */\n      pop\n        /* \"#utility.yul\":1075:1404   */\n      swap3\n      swap2\n      pop\n      pop\n      jump\t// out\n        /* \"#utility.yul\":1410:2569   */\n    tag_23:\n        /* \"#utility.yul\":1517:1523   */\n      0x00\n        /* \"#utility.yul\":1525:1531   */\n      dup1\n        /* \"#utility.yul\":1533:1539   */\n      0x00\n        /* \"#utility.yul\":1582:1584   */\n      0x60\n        /* \"#utility.yul\":1570:1579   */\n      dup5\n        /* \"#utility.yul\":1561:1568   */\n      dup7\n        /* \"#utility.yul\":1557:1580   */\n      sub\n        /* \"#utility.yul\":1553:1585   */\n      slt\n        /* \"#utility.yul\":1550:1669   */\n      iszero\n      tag_230\n      jumpi\n        /* \"#utility.yul\":1588:1667   */\n      tag_231\n      tag_227\n      jump\t// in\n    tag_231:\n        /* \"#utility.yul\":1550:1669   */\n    tag_230:\n        /* \"#utility.yul\":1736:1737   */\n      0x00\n        /* \"#utility.yul\":1725:1734   */\n      dup5\n        /* \"#utility.yul\":1721:1738   */\n      add\n        /* \"#utility.yul\":1708:1739   */\n      calldataload\n        /* \"#utility.yul\":1766:1784   */\n      0xffffffffffffffff\n        /* \"#utility.yul\":1758:1764   */\n      dup2\n        /* \"#utility.yul\":1755:1785   */\n      gt\n        /* \"#utility.yul\":1752:1869   */\n      iszero\n      tag_232\n      jumpi\n        /* \"#utility.yul\":1788:1867   */\n      tag_233\n      tag_234\n      jump\t// in\n    tag_233:\n        /* \"#utility.yul\":1752:1869   */\n    tag_232:\n        /* \"#utility.yul\":1893:1956   */\n      tag_235\n        /* \"#utility.yul\":1948:1955   */\n      dup7\n        /* \"#utility.yul\":1939:1945   */\n      dup3\n        /* \"#utility.yul\":1928:1937   */\n      dup8\n        /* \"#utility.yul\":1924:1946   */\n      add\n        /* \"#utility.yul\":1893:1956   */\n      tag_214\n      jump\t// in\n    tag_235:\n        /* \"#utility.yul\":1883:1956   */\n      swap4\n      pop\n        /* \"#utility.yul\":1679:1966   */\n      pop\n        /* \"#utility.yul\":2033:2035   */\n      0x20\n        /* \"#utility.yul\":2022:2031   */\n      dup5\n        /* \"#utility.yul\":2018:2036   */\n      add\n        /* \"#utility.yul\":2005:2037   */\n      calldataload\n        /* \"#utility.yul\":2064:2082   */\n      0xffffffffffffffff\n        /* \"#utility.yul\":2056:2062   */\n      dup2\n        /* \"#utility.yul\":2053:2083   */\n      gt\n        /* \"#utility.yul\":2050:2167   */\n      iszero\n      tag_236\n      jumpi\n        /* \"#utility.yul\":2086:2165   */\n      tag_237\n      tag_234\n      jump\t// in\n    tag_237:\n        /* \"#utility.yul\":2050:2167   */\n    tag_236:\n        /* \"#utility.yul\":2191:2254   */\n      tag_238\n        /* \"#utility.yul\":2246:2253   */\n      dup7\n        /* \"#utility.yul\":2237:2243   */\n      dup3\n        /* \"#utility.yul\":2226:2235   */\n      dup8\n        /* \"#utility.yul\":2222:2244   */\n      add\n        /* \"#utility.yul\":2191:2254   */\n      tag_214\n      jump\t// in\n    tag_238:\n        /* \"#utility.yul\":2181:2254   */\n      swap3\n      pop\n        /* \"#utility.yul\":1976:2264   */\n      pop\n        /* \"#utility.yul\":2331:2333   */\n      0x40\n        /* \"#utility.yul\":2320:2329   */\n      dup5\n        /* \"#utility.yul\":2316:2334   */\n      add\n        /* \"#utility.yul\":2303:2335   */\n      calldataload\n        /* \"#utility.yul\":2362:2380   */\n      0xffffffffffffffff\n        /* \"#utility.yul\":2354:2360   */\n      dup2\n        /* \"#utility.yul\":2351:2381   */\n      gt\n        /* \"#utility.yul\":2348:2465   */\n      iszero\n      tag_239\n      jumpi\n        /* \"#utility.yul\":2384:2463   */\n      tag_240\n      tag_234\n      jump\t// in\n    tag_240:\n        /* \"#utility.yul\":2348:2465   */\n    tag_239:\n        /* \"#utility.yul\":2489:2552   */\n      tag_241\n        /* \"#utility.yul\":2544:2551   */\n      dup7\n        /* \"#utility.yul\":2535:2541   */\n      dup3\n        /* \"#utility.yul\":2524:2533   */\n      dup8\n        /* \"#utility.yul\":2520:2542   */\n      add\n        /* \"#utility.yul\":2489:2552   */\n      tag_214\n      jump\t// in\n    tag_241:\n        /* \"#utility.yul\":2479:2552   */\n      swap2\n      pop\n        /* \"#utility.yul\":2274:2562   */\n      pop\n        /* \"#utility.yul\":1410:2569   */\n      swap3\n      pop\n      swap3\n      pop\n      swap3\n      jump\t// out\n        /* \"#utility.yul\":2575:2904   */\n    tag_28:\n        /* \"#utility.yul\":2634:2640   */\n      0x00\n        /* \"#utility.yul\":2683:2685   */\n      0x20\n        /* \"#utility.yul\":2671:2680   */\n      dup3\n        /* \"#utility.yul\":2662:2669   */\n      dup5\n        /* \"#utility.yul\":2658:2681   */\n      sub\n        /* \"#utility.yul\":2654:2686   */\n      slt\n        /* \"#utility.yul\":2651:2770   */\n      iszero\n      tag_243\n      jumpi\n        /* \"#utility.yul\":2689:2768   */\n      tag_244\n      tag_227\n      jump\t// in\n    tag_244:\n        /* \"#utility.yul\":2651:2770   */\n    tag_243:\n        /* \"#utility.yul\":2809:2810   */\n      0x00\n        /* \"#utility.yul\":2834:2887   */\n      tag_245\n        /* \"#utility.yul\":2879:2886   */\n      dup5\n        /* \"#utility.yul\":2870:2876   */\n      dup3\n        /* \"#utility.yul\":2859:2868   */\n      dup6\n        /* \"#utility.yul\":2855:2877   */\n      add\n        /* \"#utility.yul\":2834:2887   */\n      tag_220\n      jump\t// in\n    tag_245:\n        /* \"#utility.yul\":2824:2887   */\n      swap2\n      pop\n        /* \"#utility.yul\":2780:2897   */\n      pop\n        /* \"#utility.yul\":2575:2904   */\n      swap3\n      swap2\n      pop\n      pop\n      jump\t// out\n        /* \"#utility.yul\":2910:3089   */\n    tag_246:\n        /* \"#utility.yul\":2979:2989   */\n      0x00\n        /* \"#utility.yul\":3000:3046   */\n      tag_248\n        /* \"#utility.yul\":3042:3045   */\n      dup4\n        /* \"#utility.yul\":3034:3040   */\n      dup4\n        /* \"#utility.yul\":3000:3046   */\n      tag_249\n      jump\t// in\n    tag_248:\n        /* \"#utility.yul\":3078:3082   */\n      0x20\n        /* \"#utility.yul\":3073:3076   */\n      dup4\n        /* \"#utility.yul\":3069:3083   */\n      add\n        /* \"#utility.yul\":3055:3083   */\n      swap1\n      pop\n        /* \"#utility.yul\":2910:3089   */\n      swap3\n      swap2\n      pop\n      pop\n      jump\t// out\n        /* \"#utility.yul\":3095:3213   */\n    tag_250:\n        /* \"#utility.yul\":3182:3206   */\n      tag_252\n        /* \"#utility.yul\":3200:3205   */\n      dup2\n        /* \"#utility.yul\":3182:3206   */\n      tag_253\n      jump\t// in\n    tag_252:\n        /* \"#utility.yul\":3177:3180   */\n      dup3\n        /* \"#utility.yul\":3170:3207   */\n      mstore\n        /* \"#utility.yul\":3095:3213   */\n      pop\n      pop\n      jump\t// out\n        /* \"#utility.yul\":3249:3981   */\n    tag_254:\n        /* \"#utility.yul\":3368:3371   */\n      0x00\n        /* \"#utility.yul\":3397:3451   */\n      tag_256\n        /* \"#utility.yul\":3445:3450   */\n      dup3\n        /* \"#utility.yul\":3397:3451   */\n      tag_257\n      jump\t// in\n    tag_256:\n        /* \"#utility.yul\":3467:3553   */\n      tag_258\n        /* \"#utility.yul\":3546:3552   */\n      dup2\n        /* \"#utility.yul\":3541:3544   */\n      dup6\n        /* \"#utility.yul\":3467:3553   */\n      tag_259\n      jump\t// in\n    tag_258:\n        /* \"#utility.yul\":3460:3553   */\n      swap4\n      pop\n        /* \"#utility.yul\":3577:3633   */\n      tag_260\n        /* \"#utility.yul\":3627:3632   */\n      dup4\n        /* \"#utility.yul\":3577:3633   */\n      tag_261\n      jump\t// in\n    tag_260:\n        /* \"#utility.yul\":3656:3663   */\n      dup1\n        /* \"#utility.yul\":3687:3688   */\n      0x00\n        /* \"#utility.yul\":3672:3956   */\n    tag_262:\n        /* \"#utility.yul\":3697:3703   */\n      dup4\n        /* \"#utility.yul\":3694:3695   */\n      dup2\n        /* \"#utility.yul\":3691:3704   */\n      lt\n        /* \"#utility.yul\":3672:3956   */\n      iszero\n      tag_264\n      jumpi\n        /* \"#utility.yul\":3773:3779   */\n      dup2\n        /* \"#utility.yul\":3767:3780   */\n      mload\n        /* \"#utility.yul\":3800:3863   */\n      tag_265\n        /* \"#utility.yul\":3859:3862   */\n      dup9\n        /* \"#utility.yul\":3844:3857   */\n      dup3\n        /* \"#utility.yul\":3800:3863   */\n      tag_246\n      jump\t// in\n    tag_265:\n        /* \"#utility.yul\":3793:3863   */\n      swap8\n      pop\n        /* \"#utility.yul\":3886:3946   */\n      tag_266\n        /* \"#utility.yul\":3939:3945   */\n      dup4\n        /* \"#utility.yul\":3886:3946   */\n      tag_267\n      jump\t// in\n    tag_266:\n        /* \"#utility.yul\":3876:3946   */\n      swap3\n      pop\n        /* \"#utility.yul\":3732:3956   */\n      pop\n        /* \"#utility.yul\":3719:3720   */\n      0x01\n        /* \"#utility.yul\":3716:3717   */\n      dup2\n        /* \"#utility.yul\":3712:3721   */\n      add\n        /* \"#utility.yul\":3707:3721   */\n      swap1\n      pop\n        /* \"#utility.yul\":3672:3956   */\n      jump(tag_262)\n    tag_264:\n        /* \"#utility.yul\":3676:3690   */\n      pop\n        /* \"#utility.yul\":3972:3975   */\n      dup6\n        /* \"#utility.yul\":3965:3975   */\n      swap4\n      pop\n        /* \"#utility.yul\":3373:3981   */\n      pop\n      pop\n      pop\n        /* \"#utility.yul\":3249:3981   */\n      swap3\n      swap2\n      pop\n      pop\n      jump\t// out\n        /* \"#utility.yul\":3987:4351   */\n    tag_268:\n        /* \"#utility.yul\":4075:4078   */\n      0x00\n        /* \"#utility.yul\":4103:4142   */\n      tag_270\n        /* \"#utility.yul\":4136:4141   */\n      dup3\n        /* \"#utility.yul\":4103:4142   */\n      tag_271\n      jump\t// in\n    tag_270:\n        /* \"#utility.yul\":4158:4229   */\n      tag_272\n        /* \"#utility.yul\":4222:4228   */\n      dup2\n        /* \"#utility.yul\":4217:4220   */\n      dup6\n        /* \"#utility.yul\":4158:4229   */\n      tag_273\n      jump\t// in\n    tag_272:\n        /* \"#utility.yul\":4151:4229   */\n      swap4\n      pop\n        /* \"#utility.yul\":4238:4290   */\n      tag_274\n        /* \"#utility.yul\":4283:4289   */\n      dup2\n        /* \"#utility.yul\":4278:4281   */\n      dup6\n        /* \"#utility.yul\":4271:4275   */\n      0x20\n        /* \"#utility.yul\":4264:4269   */\n      dup7\n        /* \"#utility.yul\":4260:4276   */\n      add\n        /* \"#utility.yul\":4238:4290   */\n      tag_275\n      jump\t// in\n    tag_274:\n        /* \"#utility.yul\":4315:4344   */\n      tag_276\n        /* \"#utility.yul\":4337:4343   */\n      dup2\n        /* \"#utility.yul\":4315:4344   */\n      tag_277\n      jump\t// in\n    tag_276:\n        /* \"#utility.yul\":4310:4313   */\n      dup5\n        /* \"#utility.yul\":4306:4345   */\n      add\n        /* \"#utility.yul\":4299:4345   */\n      swap2\n      pop\n        /* \"#utility.yul\":4079:4351   */\n      pop\n        /* \"#utility.yul\":3987:4351   */\n      swap3\n      swap2\n      pop\n      pop\n      jump\t// out\n        /* \"#utility.yul\":4381:5183   */\n    tag_278:\n        /* \"#utility.yul\":4466:4469   */\n      0x00\n        /* \"#utility.yul\":4503:4508   */\n      dup2\n        /* \"#utility.yul\":4497:4509   */\n      sload\n        /* \"#utility.yul\":4532:4568   */\n      tag_280\n        /* \"#utility.yul\":4558:4567   */\n      dup2\n        /* \"#utility.yul\":4532:4568   */\n      tag_134\n      jump\t// in\n    tag_280:\n        /* \"#utility.yul\":4584:4655   */\n      tag_281\n        /* \"#utility.yul\":4648:4654   */\n      dup2\n        /* \"#utility.yul\":4643:4646   */\n      dup7\n        /* \"#utility.yul\":4584:4655   */\n      tag_273\n      jump\t// in\n    tag_281:\n        /* \"#utility.yul\":4577:4655   */\n      swap5\n      pop\n        /* \"#utility.yul\":4686:4687   */\n      0x01\n        /* \"#utility.yul\":4675:4684   */\n      dup3\n        /* \"#utility.yul\":4671:4688   */\n      and\n        /* \"#utility.yul\":4702:4703   */\n      0x00\n        /* \"#utility.yul\":4697:4832   */\n      dup2\n      eq\n      tag_283\n      jumpi\n        /* \"#utility.yul\":4846:4847   */\n      0x01\n        /* \"#utility.yul\":4841:5177   */\n      dup2\n      eq\n      tag_284\n      jumpi\n        /* \"#utility.yul\":4664:5177   */\n      jump(tag_282)\n        /* \"#utility.yul\":4697:4832   */\n    tag_283:\n        /* \"#utility.yul\":4781:4785   */\n      0xff\n        /* \"#utility.yul\":4777:4786   */\n      not\n        /* \"#utility.yul\":4766:4775   */\n      dup4\n        /* \"#utility.yul\":4762:4787   */\n      and\n        /* \"#utility.yul\":4757:4760   */\n      dup7\n        /* \"#utility.yul\":4750:4788   */\n      mstore\n        /* \"#utility.yul\":4817:4821   */\n      0x20\n        /* \"#utility.yul\":4812:4815   */\n      dup7\n        /* \"#utility.yul\":4808:4822   */\n      add\n        /* \"#utility.yul\":4801:4822   */\n      swap4\n      pop\n        /* \"#utility.yul\":4697:4832   */\n      jump(tag_282)\n        /* \"#utility.yul\":4841:5177   */\n    tag_284:\n        /* \"#utility.yul\":4908:4946   */\n      tag_285\n        /* \"#utility.yul\":4940:4945   */\n      dup6\n        /* \"#utility.yul\":4908:4946   */\n      tag_286\n      jump\t// in\n    tag_285:\n        /* \"#utility.yul\":4968:4969   */\n      0x00\n        /* \"#utility.yul\":4982:5136   */\n    tag_287:\n        /* \"#utility.yul\":4996:5002   */\n      dup4\n        /* \"#utility.yul\":4993:4994   */\n      dup2\n        /* \"#utility.yul\":4990:5003   */\n      lt\n        /* \"#utility.yul\":4982:5136   */\n      iszero\n      tag_289\n      jumpi\n        /* \"#utility.yul\":5070:5077   */\n      dup2\n        /* \"#utility.yul\":5064:5078   */\n      sload\n        /* \"#utility.yul\":5060:5061   */\n      dup2\n        /* \"#utility.yul\":5055:5058   */\n      dup10\n        /* \"#utility.yul\":5051:5062   */\n      add\n        /* \"#utility.yul\":5044:5079   */\n      mstore\n        /* \"#utility.yul\":5120:5121   */\n      0x01\n        /* \"#utility.yul\":5111:5118   */\n      dup3\n        /* \"#utility.yul\":5107:5122   */\n      add\n        /* \"#utility.yul\":5096:5122   */\n      swap2\n      pop\n        /* \"#utility.yul\":5018:5022   */\n      0x20\n        /* \"#utility.yul\":5015:5016   */\n      dup2\n        /* \"#utility.yul\":5011:5023   */\n      add\n        /* \"#utility.yul\":5006:5023   */\n      swap1\n      pop\n        /* \"#utility.yul\":4982:5136   */\n      jump(tag_287)\n    tag_289:\n        /* \"#utility.yul\":5165:5166   */\n      dup1\n        /* \"#utility.yul\":5160:5163   */\n      dup9\n        /* \"#utility.yul\":5156:5167   */\n      add\n        /* \"#utility.yul\":5149:5167   */\n      swap6\n      pop\n        /* \"#utility.yul\":4848:5177   */\n      pop\n      pop\n        /* \"#utility.yul\":4664:5177   */\n    tag_282:\n      pop\n        /* \"#utility.yul\":4470:5183   */\n      pop\n      pop\n        /* \"#utility.yul\":4381:5183   */\n      swap3\n      swap2\n      pop\n      pop\n      jump\t// out\n        /* \"#utility.yul\":5189:5555   */\n    tag_290:\n        /* \"#utility.yul\":5331:5334   */\n      0x00\n        /* \"#utility.yul\":5352:5419   */\n      tag_292\n        /* \"#utility.yul\":5416:5418   */\n      0x28\n        /* \"#utility.yul\":5411:5414   */\n      dup4\n        /* \"#utility.yul\":5352:5419   */\n      tag_273\n      jump\t// in\n    tag_292:\n        /* \"#utility.yul\":5345:5419   */\n      swap2\n      pop\n        /* \"#utility.yul\":5428:5521   */\n      tag_293\n        /* \"#utility.yul\":5517:5520   */\n      dup3\n        /* \"#utility.yul\":5428:5521   */\n      tag_294\n      jump\t// in\n    tag_293:\n        /* \"#utility.yul\":5546:5548   */\n      0x40\n        /* \"#utility.yul\":5541:5544   */\n      dup3\n        /* \"#utility.yul\":5537:5549   */\n      add\n        /* \"#utility.yul\":5530:5549   */\n      swap1\n      pop\n        /* \"#utility.yul\":5189:5555   */\n      swap2\n      swap1\n      pop\n      jump\t// out\n        /* \"#utility.yul\":5561:5927   */\n    tag_295:\n        /* \"#utility.yul\":5703:5706   */\n      0x00\n        /* \"#utility.yul\":5724:5791   */\n      tag_297\n        /* \"#utility.yul\":5788:5790   */\n      0x26\n        /* \"#utility.yul\":5783:5786   */\n      dup4\n        /* \"#utility.yul\":5724:5791   */\n      tag_273\n      jump\t// in\n    tag_297:\n        /* \"#utility.yul\":5717:5791   */\n      swap2\n      pop\n        /* \"#utility.yul\":5800:5893   */\n      tag_298\n        /* \"#utility.yul\":5889:5892   */\n      dup3\n        /* \"#utility.yul\":5800:5893   */\n      tag_299\n      jump\t// in\n    tag_298:\n        /* \"#utility.yul\":5918:5920   */\n      0x40\n        /* \"#utility.yul\":5913:5916   */\n      dup3\n        /* \"#utility.yul\":5909:5921   */\n      add\n        /* \"#utility.yul\":5902:5921   */\n      swap1\n      pop\n        /* \"#utility.yul\":5561:5927   */\n      swap2\n      swap1\n      pop\n      jump\t// out\n        /* \"#utility.yul\":5933:6299   */\n    tag_300:\n        /* \"#utility.yul\":6075:6078   */\n      0x00\n        /* \"#utility.yul\":6096:6163   */\n      tag_302\n        /* \"#utility.yul\":6160:6162   */\n      0x0c\n        /* \"#utility.yul\":6155:6158   */\n      dup4\n        /* \"#utility.yul\":6096:6163   */\n      tag_273\n      jump\t// in\n    tag_302:\n        /* \"#utility.yul\":6089:6163   */\n      swap2\n      pop\n        /* \"#utility.yul\":6172:6265   */\n      tag_303\n        /* \"#utility.yul\":6261:6264   */\n      dup3\n        /* \"#utility.yul\":6172:6265   */\n      tag_304\n      jump\t// in\n    tag_303:\n        /* \"#utility.yul\":6290:6292   */\n      0x20\n        /* \"#utility.yul\":6285:6288   */\n      dup3\n        /* \"#utility.yul\":6281:6293   */\n      add\n        /* \"#utility.yul\":6274:6293   */\n      swap1\n      pop\n        /* \"#utility.yul\":5933:6299   */\n      swap2\n      swap1\n      pop\n      jump\t// out\n        /* \"#utility.yul\":6305:6671   */\n    tag_305:\n        /* \"#utility.yul\":6447:6450   */\n      0x00\n        /* \"#utility.yul\":6468:6535   */\n      tag_307\n        /* \"#utility.yul\":6532:6534   */\n      0x20\n        /* \"#utility.yul\":6527:6530   */\n      dup4\n        /* \"#utility.yul\":6468:6535   */\n      tag_273\n      jump\t// in\n    tag_307:\n        /* \"#utility.yul\":6461:6535   */\n      swap2\n      pop\n        /* \"#utility.yul\":6544:6637   */\n      tag_308\n        /* \"#utility.yul\":6633:6636   */\n      dup3\n        /* \"#utility.yul\":6544:6637   */\n      tag_309\n      jump\t// in\n    tag_308:\n        /* \"#utility.yul\":6662:6664   */\n      0x20\n        /* \"#utility.yul\":6657:6660   */\n      dup3\n        /* \"#utility.yul\":6653:6665   */\n      add\n        /* \"#utility.yul\":6646:6665   */\n      swap1\n      pop\n        /* \"#utility.yul\":6305:6671   */\n      swap2\n      swap1\n      pop\n      jump\t// out\n        /* \"#utility.yul\":6677:7043   */\n    tag_310:\n        /* \"#utility.yul\":6819:6822   */\n      0x00\n        /* \"#utility.yul\":6840:6907   */\n      tag_312\n        /* \"#utility.yul\":6904:6906   */\n      0x15\n        /* \"#utility.yul\":6899:6902   */\n      dup4\n        /* \"#utility.yul\":6840:6907   */\n      tag_273\n      jump\t// in\n    tag_312:\n        /* \"#utility.yul\":6833:6907   */\n      swap2\n      pop\n        /* \"#utility.yul\":6916:7009   */\n      tag_313\n        /* \"#utility.yul\":7005:7008   */\n      dup3\n        /* \"#utility.yul\":6916:7009   */\n      tag_314\n      jump\t// in\n    tag_313:\n        /* \"#utility.yul\":7034:7036   */\n      0x20\n        /* \"#utility.yul\":7029:7032   */\n      dup3\n        /* \"#utility.yul\":7025:7037   */\n      add\n        /* \"#utility.yul\":7018:7037   */\n      swap1\n      pop\n        /* \"#utility.yul\":6677:7043   */\n      swap2\n      swap1\n      pop\n      jump\t// out\n        /* \"#utility.yul\":7049:7157   */\n    tag_249:\n        /* \"#utility.yul\":7126:7150   */\n      tag_316\n        /* \"#utility.yul\":7144:7149   */\n      dup2\n        /* \"#utility.yul\":7126:7150   */\n      tag_317\n      jump\t// in\n    tag_316:\n        /* \"#utility.yul\":7121:7124   */\n      dup3\n        /* \"#utility.yul\":7114:7151   */\n      mstore\n        /* \"#utility.yul\":7049:7157   */\n      pop\n      pop\n      jump\t// out\n        /* \"#utility.yul\":7163:7281   */\n    tag_318:\n        /* \"#utility.yul\":7250:7274   */\n      tag_320\n        /* \"#utility.yul\":7268:7273   */\n      dup2\n        /* \"#utility.yul\":7250:7274   */\n      tag_317\n      jump\t// in\n    tag_320:\n        /* \"#utility.yul\":7245:7248   */\n      dup3\n        /* \"#utility.yul\":7238:7275   */\n      mstore\n        /* \"#utility.yul\":7163:7281   */\n      pop\n      pop\n      jump\t// out\n        /* \"#utility.yul\":7287:7444   */\n    tag_321:\n        /* \"#utility.yul\":7392:7437   */\n      tag_323\n        /* \"#utility.yul\":7412:7436   */\n      tag_324\n        /* \"#utility.yul\":7430:7435   */\n      dup3\n        /* \"#utility.yul\":7412:7436   */\n      tag_317\n      jump\t// in\n    tag_324:\n        /* \"#utility.yul\":7392:7437   */\n      tag_325\n      jump\t// in\n    tag_323:\n        /* \"#utility.yul\":7387:7390   */\n      dup3\n        /* \"#utility.yul\":7380:7438   */\n      mstore\n        /* \"#utility.yul\":7287:7444   */\n      pop\n      pop\n      jump\t// out\n        /* \"#utility.yul\":7450:7565   */\n    tag_326:\n        /* \"#utility.yul\":7535:7558   */\n      tag_328\n        /* \"#utility.yul\":7552:7557   */\n      dup2\n        /* \"#utility.yul\":7535:7558   */\n      tag_329\n      jump\t// in\n    tag_328:\n        /* \"#utility.yul\":7530:7533   */\n      dup3\n        /* \"#utility.yul\":7523:7559   */\n      mstore\n        /* \"#utility.yul\":7450:7565   */\n      pop\n      pop\n      jump\t// out\n        /* \"#utility.yul\":7571:8109   */\n    tag_86:\n        /* \"#utility.yul\":7739:7742   */\n      0x00\n        /* \"#utility.yul\":7754:7829   */\n      tag_331\n        /* \"#utility.yul\":7825:7828   */\n      dup3\n        /* \"#utility.yul\":7816:7822   */\n      dup7\n        /* \"#utility.yul\":7754:7829   */\n      tag_321\n      jump\t// in\n    tag_331:\n        /* \"#utility.yul\":7854:7856   */\n      0x20\n        /* \"#utility.yul\":7849:7852   */\n      dup3\n        /* \"#utility.yul\":7845:7857   */\n      add\n        /* \"#utility.yul\":7838:7857   */\n      swap2\n      pop\n        /* \"#utility.yul\":7867:7942   */\n      tag_332\n        /* \"#utility.yul\":7938:7941   */\n      dup3\n        /* \"#utility.yul\":7929:7935   */\n      dup6\n        /* \"#utility.yul\":7867:7942   */\n      tag_321\n      jump\t// in\n    tag_332:\n        /* \"#utility.yul\":7967:7969   */\n      0x20\n        /* \"#utility.yul\":7962:7965   */\n      dup3\n        /* \"#utility.yul\":7958:7970   */\n      add\n        /* \"#utility.yul\":7951:7970   */\n      swap2\n      pop\n        /* \"#utility.yul\":7980:8055   */\n      tag_333\n        /* \"#utility.yul\":8051:8054   */\n      dup3\n        /* \"#utility.yul\":8042:8048   */\n      dup5\n        /* \"#utility.yul\":7980:8055   */\n      tag_321\n      jump\t// in\n    tag_333:\n        /* \"#utility.yul\":8080:8082   */\n      0x20\n        /* \"#utility.yul\":8075:8078   */\n      dup3\n        /* \"#utility.yul\":8071:8083   */\n      add\n        /* \"#utility.yul\":8064:8083   */\n      swap2\n      pop\n        /* \"#utility.yul\":8100:8103   */\n      dup2\n        /* \"#utility.yul\":8093:8103   */\n      swap1\n      pop\n        /* \"#utility.yul\":7571:8109   */\n      swap5\n      swap4\n      pop\n      pop\n      pop\n      pop\n      jump\t// out\n        /* \"#utility.yul\":8115:8337   */\n    tag_40:\n        /* \"#utility.yul\":8208:8212   */\n      0x00\n        /* \"#utility.yul\":8246:8248   */\n      0x20\n        /* \"#utility.yul\":8235:8244   */\n      dup3\n        /* \"#utility.yul\":8231:8249   */\n      add\n        /* \"#utility.yul\":8223:8249   */\n      swap1\n      pop\n        /* \"#utility.yul\":8259:8330   */\n      tag_335\n        /* \"#utility.yul\":8327:8328   */\n      0x00\n        /* \"#utility.yul\":8316:8325   */\n      dup4\n        /* \"#utility.yul\":8312:8329   */\n      add\n        /* \"#utility.yul\":8303:8309   */\n      dup5\n        /* \"#utility.yul\":8259:8330   */\n      tag_250\n      jump\t// in\n    tag_335:\n        /* \"#utility.yul\":8115:8337   */\n      swap3\n      swap2\n      pop\n      pop\n      jump\t// out\n        /* \"#utility.yul\":8343:9609   */\n    tag_50:\n        /* \"#utility.yul\":8690:8694   */\n      0x00\n        /* \"#utility.yul\":8728:8731   */\n      0x0100\n        /* \"#utility.yul\":8717:8726   */\n      dup3\n        /* \"#utility.yul\":8713:8732   */\n      add\n        /* \"#utility.yul\":8705:8732   */\n      swap1\n      pop\n        /* \"#utility.yul\":8742:8813   */\n      tag_337\n        /* \"#utility.yul\":8810:8811   */\n      0x00\n        /* \"#utility.yul\":8799:8808   */\n      dup4\n        /* \"#utility.yul\":8795:8812   */\n      add\n        /* \"#utility.yul\":8786:8792   */\n      dup12\n        /* \"#utility.yul\":8742:8813   */\n      tag_250\n      jump\t// in\n    tag_337:\n        /* \"#utility.yul\":8860:8869   */\n      dup2\n        /* \"#utility.yul\":8854:8858   */\n      dup2\n        /* \"#utility.yul\":8850:8870   */\n      sub\n        /* \"#utility.yul\":8845:8847   */\n      0x20\n        /* \"#utility.yul\":8834:8843   */\n      dup4\n        /* \"#utility.yul\":8830:8848   */\n      add\n        /* \"#utility.yul\":8823:8871   */\n      mstore\n        /* \"#utility.yul\":8888:8966   */\n      tag_338\n        /* \"#utility.yul\":8961:8965   */\n      dup2\n        /* \"#utility.yul\":8952:8958   */\n      dup11\n        /* \"#utility.yul\":8888:8966   */\n      tag_268\n      jump\t// in\n    tag_338:\n        /* \"#utility.yul\":8880:8966   */\n      swap1\n      pop\n        /* \"#utility.yul\":9013:9022   */\n      dup2\n        /* \"#utility.yul\":9007:9011   */\n      dup2\n        /* \"#utility.yul\":9003:9023   */\n      sub\n        /* \"#utility.yul\":8998:9000   */\n      0x40\n        /* \"#utility.yul\":8987:8996   */\n      dup4\n        /* \"#utility.yul\":8983:9001   */\n      add\n        /* \"#utility.yul\":8976:9024   */\n      mstore\n        /* \"#utility.yul\":9041:9119   */\n      tag_339\n        /* \"#utility.yul\":9114:9118   */\n      dup2\n        /* \"#utility.yul\":9105:9111   */\n      dup10\n        /* \"#utility.yul\":9041:9119   */\n      tag_268\n      jump\t// in\n    tag_339:\n        /* \"#utility.yul\":9033:9119   */\n      swap1\n      pop\n        /* \"#utility.yul\":9166:9175   */\n      dup2\n        /* \"#utility.yul\":9160:9164   */\n      dup2\n        /* \"#utility.yul\":9156:9176   */\n      sub\n        /* \"#utility.yul\":9151:9153   */\n      0x60\n        /* \"#utility.yul\":9140:9149   */\n      dup4\n        /* \"#utility.yul\":9136:9154   */\n      add\n        /* \"#utility.yul\":9129:9177   */\n      mstore\n        /* \"#utility.yul\":9194:9272   */\n      tag_340\n        /* \"#utility.yul\":9267:9271   */\n      dup2\n        /* \"#utility.yul\":9258:9264   */\n      dup9\n        /* \"#utility.yul\":9194:9272   */\n      tag_268\n      jump\t// in\n    tag_340:\n        /* \"#utility.yul\":9186:9272   */\n      swap1\n      pop\n        /* \"#utility.yul\":9282:9355   */\n      tag_341\n        /* \"#utility.yul\":9350:9353   */\n      0x80\n        /* \"#utility.yul\":9339:9348   */\n      dup4\n        /* \"#utility.yul\":9335:9354   */\n      add\n        /* \"#utility.yul\":9326:9332   */\n      dup8\n        /* \"#utility.yul\":9282:9355   */\n      tag_318\n      jump\t// in\n    tag_341:\n        /* \"#utility.yul\":9365:9438   */\n      tag_342\n        /* \"#utility.yul\":9433:9436   */\n      0xa0\n        /* \"#utility.yul\":9422:9431   */\n      dup4\n        /* \"#utility.yul\":9418:9437   */\n      add\n        /* \"#utility.yul\":9409:9415   */\n      dup7\n        /* \"#utility.yul\":9365:9438   */\n      tag_318\n      jump\t// in\n    tag_342:\n        /* \"#utility.yul\":9448:9521   */\n      tag_343\n        /* \"#utility.yul\":9516:9519   */\n      0xc0\n        /* \"#utility.yul\":9505:9514   */\n      dup4\n        /* \"#utility.yul\":9501:9520   */\n      add\n        /* \"#utility.yul\":9492:9498   */\n      dup6\n        /* \"#utility.yul\":9448:9521   */\n      tag_318\n      jump\t// in\n    tag_343:\n        /* \"#utility.yul\":9531:9602   */\n      tag_344\n        /* \"#utility.yul\":9597:9600   */\n      0xe0\n        /* \"#utility.yul\":9586:9595   */\n      dup4\n        /* \"#utility.yul\":9582:9601   */\n      add\n        /* \"#utility.yul\":9573:9579   */\n      dup5\n        /* \"#utility.yul\":9531:9602   */\n      tag_326\n      jump\t// in\n    tag_344:\n        /* \"#utility.yul\":8343:9609   */\n      swap10\n      swap9\n      pop\n      pop\n      pop\n      pop\n      pop\n      pop\n      pop\n      pop\n      pop\n      jump\t// out\n        /* \"#utility.yul\":9615:9988   */\n    tag_56:\n        /* \"#utility.yul\":9758:9762   */\n      0x00\n        /* \"#utility.yul\":9796:9798   */\n      0x20\n        /* \"#utility.yul\":9785:9794   */\n      dup3\n        /* \"#utility.yul\":9781:9799   */\n      add\n        /* \"#utility.yul\":9773:9799   */\n      swap1\n      pop\n        /* \"#utility.yul\":9845:9854   */\n      dup2\n        /* \"#utility.yul\":9839:9843   */\n      dup2\n        /* \"#utility.yul\":9835:9855   */\n      sub\n        /* \"#utility.yul\":9831:9832   */\n      0x00\n        /* \"#utility.yul\":9820:9829   */\n      dup4\n        /* \"#utility.yul\":9816:9833   */\n      add\n        /* \"#utility.yul\":9809:9856   */\n      mstore\n        /* \"#utility.yul\":9873:9981   */\n      tag_346\n        /* \"#utility.yul\":9976:9980   */\n      dup2\n        /* \"#utility.yul\":9967:9973   */\n      dup5\n        /* \"#utility.yul\":9873:9981   */\n      tag_254\n      jump\t// in\n    tag_346:\n        /* \"#utility.yul\":9865:9981   */\n      swap1\n      pop\n        /* \"#utility.yul\":9615:9988   */\n      swap3\n      swap2\n      pop\n      pop\n      jump\t// out\n        /* \"#utility.yul\":9994:10307   */\n    tag_31:\n        /* \"#utility.yul\":10107:10111   */\n      0x00\n        /* \"#utility.yul\":10145:10147   */\n      0x20\n        /* \"#utility.yul\":10134:10143   */\n      dup3\n        /* \"#utility.yul\":10130:10148   */\n      add\n        /* \"#utility.yul\":10122:10148   */\n      swap1\n      pop\n        /* \"#utility.yul\":10194:10203   */\n      dup2\n        /* \"#utility.yul\":10188:10192   */\n      dup2\n        /* \"#utility.yul\":10184:10204   */\n      sub\n        /* \"#utility.yul\":10180:10181   */\n      0x00\n        /* \"#utility.yul\":10169:10178   */\n      dup4\n        /* \"#utility.yul\":10165:10182   */\n      add\n        /* \"#utility.yul\":10158:10205   */\n      mstore\n        /* \"#utility.yul\":10222:10300   */\n      tag_348\n        /* \"#utility.yul\":10295:10299   */\n      dup2\n        /* \"#utility.yul\":10286:10292   */\n      dup5\n        /* \"#utility.yul\":10222:10300   */\n      tag_268\n      jump\t// in\n    tag_348:\n        /* \"#utility.yul\":10214:10300   */\n      swap1\n      pop\n        /* \"#utility.yul\":9994:10307   */\n      swap3\n      swap2\n      pop\n      pop\n      jump\t// out\n        /* \"#utility.yul\":10313:10815   */\n    tag_161:\n        /* \"#utility.yul\":10468:10472   */\n      0x00\n        /* \"#utility.yul\":10506:10508   */\n      0x40\n        /* \"#utility.yul\":10495:10504   */\n      dup3\n        /* \"#utility.yul\":10491:10509   */\n      add\n        /* \"#utility.yul\":10483:10509   */\n      swap1\n      pop\n        /* \"#utility.yul\":10555:10564   */\n      dup2\n        /* \"#utility.yul\":10549:10553   */\n      dup2\n        /* \"#utility.yul\":10545:10565   */\n      sub\n        /* \"#utility.yul\":10541:10542   */\n      0x00\n        /* \"#utility.yul\":10530:10539   */\n      dup4\n        /* \"#utility.yul\":10526:10543   */\n      add\n        /* \"#utility.yul\":10519:10566   */\n      mstore\n        /* \"#utility.yul\":10583:10658   */\n      tag_350\n        /* \"#utility.yul\":10653:10657   */\n      dup2\n        /* \"#utility.yul\":10644:10650   */\n      dup6\n        /* \"#utility.yul\":10583:10658   */\n      tag_278\n      jump\t// in\n    tag_350:\n        /* \"#utility.yul\":10575:10658   */\n      swap1\n      pop\n        /* \"#utility.yul\":10705:10714   */\n      dup2\n        /* \"#utility.yul\":10699:10703   */\n      dup2\n        /* \"#utility.yul\":10695:10715   */\n      sub\n        /* \"#utility.yul\":10690:10692   */\n      0x20\n        /* \"#utility.yul\":10679:10688   */\n      dup4\n        /* \"#utility.yul\":10675:10693   */\n      add\n        /* \"#utility.yul\":10668:10716   */\n      mstore\n        /* \"#utility.yul\":10733:10808   */\n      tag_351\n        /* \"#utility.yul\":10803:10807   */\n      dup2\n        /* \"#utility.yul\":10794:10800   */\n      dup5\n        /* \"#utility.yul\":10733:10808   */\n      tag_278\n      jump\t// in\n    tag_351:\n        /* \"#utility.yul\":10725:10808   */\n      swap1\n      pop\n        /* \"#utility.yul\":10313:10815   */\n      swap4\n      swap3\n      pop\n      pop\n      pop\n      jump\t// out\n        /* \"#utility.yul\":10821:11240   */\n    tag_68:\n        /* \"#utility.yul\":10987:10991   */\n      0x00\n        /* \"#utility.yul\":11025:11027   */\n      0x20\n        /* \"#utility.yul\":11014:11023   */\n      dup3\n        /* \"#utility.yul\":11010:11028   */\n      add\n        /* \"#utility.yul\":11002:11028   */\n      swap1\n      pop\n        /* \"#utility.yul\":11074:11083   */\n      dup2\n        /* \"#utility.yul\":11068:11072   */\n      dup2\n        /* \"#utility.yul\":11064:11084   */\n      sub\n        /* \"#utility.yul\":11060:11061   */\n      0x00\n        /* \"#utility.yul\":11049:11058   */\n      dup4\n        /* \"#utility.yul\":11045:11062   */\n      add\n        /* \"#utility.yul\":11038:11085   */\n      mstore\n        /* \"#utility.yul\":11102:11233   */\n      tag_353\n        /* \"#utility.yul\":11228:11232   */\n      dup2\n        /* \"#utility.yul\":11102:11233   */\n      tag_290\n      jump\t// in\n    tag_353:\n        /* \"#utility.yul\":11094:11233   */\n      swap1\n      pop\n        /* \"#utility.yul\":10821:11240   */\n      swap2\n      swap1\n      pop\n      jump\t// out\n        /* \"#utility.yul\":11246:11665   */\n    tag_174:\n        /* \"#utility.yul\":11412:11416   */\n      0x00\n        /* \"#utility.yul\":11450:11452   */\n      0x20\n        /* \"#utility.yul\":11439:11448   */\n      dup3\n        /* \"#utility.yul\":11435:11453   */\n      add\n        /* \"#utility.yul\":11427:11453   */\n      swap1\n      pop\n        /* \"#utility.yul\":11499:11508   */\n      dup2\n        /* \"#utility.yul\":11493:11497   */\n      dup2\n        /* \"#utility.yul\":11489:11509   */\n      sub\n        /* \"#utility.yul\":11485:11486   */\n      0x00\n        /* \"#utility.yul\":11474:11483   */\n      dup4\n        /* \"#utility.yul\":11470:11487   */\n      add\n        /* \"#utility.yul\":11463:11510   */\n      mstore\n        /* \"#utility.yul\":11527:11658   */\n      tag_355\n        /* \"#utility.yul\":11653:11657   */\n      dup2\n        /* \"#utility.yul\":11527:11658   */\n      tag_295\n      jump\t// in\n    tag_355:\n        /* \"#utility.yul\":11519:11658   */\n      swap1\n      pop\n        /* \"#utility.yul\":11246:11665   */\n      swap2\n      swap1\n      pop\n      jump\t// out\n        /* \"#utility.yul\":11671:12200   */\n    tag_183:\n        /* \"#utility.yul\":11865:11869   */\n      0x00\n        /* \"#utility.yul\":11903:11905   */\n      0x40\n        /* \"#utility.yul\":11892:11901   */\n      dup3\n        /* \"#utility.yul\":11888:11906   */\n      add\n        /* \"#utility.yul\":11880:11906   */\n      swap1\n      pop\n        /* \"#utility.yul\":11952:11961   */\n      dup2\n        /* \"#utility.yul\":11946:11950   */\n      dup2\n        /* \"#utility.yul\":11942:11962   */\n      sub\n        /* \"#utility.yul\":11938:11939   */\n      0x00\n        /* \"#utility.yul\":11927:11936   */\n      dup4\n        /* \"#utility.yul\":11923:11940   */\n      add\n        /* \"#utility.yul\":11916:11963   */\n      mstore\n        /* \"#utility.yul\":11980:12111   */\n      tag_357\n        /* \"#utility.yul\":12106:12110   */\n      dup2\n        /* \"#utility.yul\":11980:12111   */\n      tag_300\n      jump\t// in\n    tag_357:\n        /* \"#utility.yul\":11972:12111   */\n      swap1\n      pop\n        /* \"#utility.yul\":12121:12193   */\n      tag_358\n        /* \"#utility.yul\":12189:12191   */\n      0x20\n        /* \"#utility.yul\":12178:12187   */\n      dup4\n        /* \"#utility.yul\":12174:12192   */\n      add\n        /* \"#utility.yul\":12165:12171   */\n      dup5\n        /* \"#utility.yul\":12121:12193   */\n      tag_318\n      jump\t// in\n    tag_358:\n        /* \"#utility.yul\":11671:12200   */\n      swap3\n      swap2\n      pop\n      pop\n      jump\t// out\n        /* \"#utility.yul\":12206:12625   */\n    tag_126:\n        /* \"#utility.yul\":12372:12376   */\n      0x00\n        /* \"#utility.yul\":12410:12412   */\n      0x20\n        /* \"#utility.yul\":12399:12408   */\n      dup3\n        /* \"#utility.yul\":12395:12413   */\n      add\n        /* \"#utility.yul\":12387:12413   */\n      swap1\n      pop\n        /* \"#utility.yul\":12459:12468   */\n      dup2\n        /* \"#utility.yul\":12453:12457   */\n      dup2\n        /* \"#utility.yul\":12449:12469   */\n      sub\n        /* \"#utility.yul\":12445:12446   */\n      0x00\n        /* \"#utility.yul\":12434:12443   */\n      dup4\n        /* \"#utility.yul\":12430:12447   */\n      add\n        /* \"#utility.yul\":12423:12470   */\n      mstore\n        /* \"#utility.yul\":12487:12618   */\n      tag_360\n        /* \"#utility.yul\":12613:12617   */\n      dup2\n        /* \"#utility.yul\":12487:12618   */\n      tag_305\n      jump\t// in\n    tag_360:\n        /* \"#utility.yul\":12479:12618   */\n      swap1\n      pop\n        /* \"#utility.yul\":12206:12625   */\n      swap2\n      swap1\n      pop\n      jump\t// out\n        /* \"#utility.yul\":12631:13160   */\n    tag_109:\n        /* \"#utility.yul\":12825:12829   */\n      0x00\n        /* \"#utility.yul\":12863:12865   */\n      0x40\n        /* \"#utility.yul\":12852:12861   */\n      dup3\n        /* \"#utility.yul\":12848:12866   */\n      add\n        /* \"#utility.yul\":12840:12866   */\n      swap1\n      pop\n        /* \"#utility.yul\":12912:12921   */\n      dup2\n        /* \"#utility.yul\":12906:12910   */\n      dup2\n        /* \"#utility.yul\":12902:12922   */\n      sub\n        /* \"#utility.yul\":12898:12899   */\n      0x00\n        /* \"#utility.yul\":12887:12896   */\n      dup4\n        /* \"#utility.yul\":12883:12900   */\n      add\n        /* \"#utility.yul\":12876:12923   */\n      mstore\n        /* \"#utility.yul\":12940:13071   */\n      tag_362\n        /* \"#utility.yul\":13066:13070   */\n      dup2\n        /* \"#utility.yul\":12940:13071   */\n      tag_310\n      jump\t// in\n    tag_362:\n        /* \"#utility.yul\":12932:13071   */\n      swap1\n      pop\n        /* \"#utility.yul\":13081:13153   */\n      tag_363\n        /* \"#utility.yul\":13149:13151   */\n      0x20\n        /* \"#utility.yul\":13138:13147   */\n      dup4\n        /* \"#utility.yul\":13134:13152   */\n      add\n        /* \"#utility.yul\":13125:13131   */\n      dup5\n        /* \"#utility.yul\":13081:13153   */\n      tag_318\n      jump\t// in\n    tag_363:\n        /* \"#utility.yul\":12631:13160   */\n      swap3\n      swap2\n      pop\n      pop\n      jump\t// out\n        /* \"#utility.yul\":13166:13388   */\n    tag_19:\n        /* \"#utility.yul\":13259:13263   */\n      0x00\n        /* \"#utility.yul\":13297:13299   */\n      0x20\n        /* \"#utility.yul\":13286:13295   */\n      dup3\n        /* \"#utility.yul\":13282:13300   */\n      add\n        /* \"#utility.yul\":13274:13300   */\n      swap1\n      pop\n        /* \"#utility.yul\":13310:13381   */\n      tag_365\n        /* \"#utility.yul\":13378:13379   */\n      0x00\n        /* \"#utility.yul\":13367:13376   */\n      dup4\n        /* \"#utility.yul\":13363:13380   */\n      add\n        /* \"#utility.yul\":13354:13360   */\n      dup5\n        /* \"#utility.yul\":13310:13381   */\n      tag_318\n      jump\t// in\n    tag_365:\n        /* \"#utility.yul\":13166:13388   */\n      swap3\n      swap2\n      pop\n      pop\n      jump\t// out\n        /* \"#utility.yul\":13394:13523   */\n    tag_204:\n        /* \"#utility.yul\":13428:13434   */\n      0x00\n        /* \"#utility.yul\":13455:13475   */\n      tag_367\n      tag_368\n      jump\t// in\n    tag_367:\n        /* \"#utility.yul\":13445:13475   */\n      swap1\n      pop\n        /* \"#utility.yul\":13484:13517   */\n      tag_369\n        /* \"#utility.yul\":13512:13516   */\n      dup3\n        /* \"#utility.yul\":13504:13510   */\n      dup3\n        /* \"#utility.yul\":13484:13517   */\n      tag_370\n      jump\t// in\n    tag_369:\n        /* \"#utility.yul\":13394:13523   */\n      swap2\n      swap1\n      pop\n      jump\t// out\n        /* \"#utility.yul\":13529:13604   */\n    tag_368:\n        /* \"#utility.yul\":13562:13568   */\n      0x00\n        /* \"#utility.yul\":13595:13597   */\n      0x40\n        /* \"#utility.yul\":13589:13598   */\n      mload\n        /* \"#utility.yul\":13579:13598   */\n      swap1\n      pop\n        /* \"#utility.yul\":13529:13604   */\n      swap1\n      jump\t// out\n        /* \"#utility.yul\":13610:13918   */\n    tag_203:\n        /* \"#utility.yul\":13672:13676   */\n      0x00\n        /* \"#utility.yul\":13762:13780   */\n      0xffffffffffffffff\n        /* \"#utility.yul\":13754:13760   */\n      dup3\n        /* \"#utility.yul\":13751:13781   */\n      gt\n        /* \"#utility.yul\":13748:13804   */\n      iszero\n      tag_373\n      jumpi\n        /* \"#utility.yul\":13784:13802   */\n      tag_374\n      tag_375\n      jump\t// in\n    tag_374:\n        /* \"#utility.yul\":13748:13804   */\n    tag_373:\n        /* \"#utility.yul\":13822:13851   */\n      tag_376\n        /* \"#utility.yul\":13844:13850   */\n      dup3\n        /* \"#utility.yul\":13822:13851   */\n      tag_277\n      jump\t// in\n    tag_376:\n        /* \"#utility.yul\":13814:13851   */\n      swap1\n      pop\n        /* \"#utility.yul\":13906:13910   */\n      0x20\n        /* \"#utility.yul\":13900:13904   */\n      dup2\n        /* \"#utility.yul\":13896:13911   */\n      add\n        /* \"#utility.yul\":13888:13911   */\n      swap1\n      pop\n        /* \"#utility.yul\":13610:13918   */\n      swap2\n      swap1\n      pop\n      jump\t// out\n        /* \"#utility.yul\":13924:14056   */\n    tag_261:\n        /* \"#utility.yul\":13991:13995   */\n      0x00\n        /* \"#utility.yul\":14014:14017   */\n      dup2\n        /* \"#utility.yul\":14006:14017   */\n      swap1\n      pop\n        /* \"#utility.yul\":14044:14048   */\n      0x20\n        /* \"#utility.yul\":14039:14042   */\n      dup3\n        /* \"#utility.yul\":14035:14049   */\n      add\n        /* \"#utility.yul\":14027:14049   */\n      swap1\n      pop\n        /* \"#utility.yul\":13924:14056   */\n      swap2\n      swap1\n      pop\n      jump\t// out\n        /* \"#utility.yul\":14062:14203   */\n    tag_286:\n        /* \"#utility.yul\":14111:14115   */\n      0x00\n        /* \"#utility.yul\":14134:14137   */\n      dup2\n        /* \"#utility.yul\":14126:14137   */\n      swap1\n      pop\n        /* \"#utility.yul\":14157:14160   */\n      dup2\n        /* \"#utility.yul\":14154:14155   */\n      0x00\n        /* \"#utility.yul\":14147:14161   */\n      mstore\n        /* \"#utility.yul\":14191:14195   */\n      0x20\n        /* \"#utility.yul\":14188:14189   */\n      0x00\n        /* \"#utility.yul\":14178:14196   */\n      keccak256\n        /* \"#utility.yul\":14170:14196   */\n      swap1\n      pop\n        /* \"#utility.yul\":14062:14203   */\n      swap2\n      swap1\n      pop\n      jump\t// out\n        /* \"#utility.yul\":14209:14323   */\n    tag_257:\n        /* \"#utility.yul\":14276:14282   */\n      0x00\n        /* \"#utility.yul\":14310:14315   */\n      dup2\n        /* \"#utility.yul\":14304:14316   */\n      mload\n        /* \"#utility.yul\":14294:14316   */\n      swap1\n      pop\n        /* \"#utility.yul\":14209:14323   */\n      swap2\n      swap1\n      pop\n      jump\t// out\n        /* \"#utility.yul\":14329:14428   */\n    tag_271:\n        /* \"#utility.yul\":14381:14387   */\n      0x00\n        /* \"#utility.yul\":14415:14420   */\n      dup2\n        /* \"#utility.yul\":14409:14421   */\n      mload\n        /* \"#utility.yul\":14399:14421   */\n      swap1\n      pop\n        /* \"#utility.yul\":14329:14428   */\n      swap2\n      swap1\n      pop\n      jump\t// out\n        /* \"#utility.yul\":14434:14547   */\n    tag_267:\n        /* \"#utility.yul\":14504:14508   */\n      0x00\n        /* \"#utility.yul\":14536:14540   */\n      0x20\n        /* \"#utility.yul\":14531:14534   */\n      dup3\n        /* \"#utility.yul\":14527:14541   */\n      add\n        /* \"#utility.yul\":14519:14541   */\n      swap1\n      pop\n        /* \"#utility.yul\":14434:14547   */\n      swap2\n      swap1\n      pop\n      jump\t// out\n        /* \"#utility.yul\":14553:14737   */\n    tag_259:\n        /* \"#utility.yul\":14652:14663   */\n      0x00\n        /* \"#utility.yul\":14686:14692   */\n      dup3\n        /* \"#utility.yul\":14681:14684   */\n      dup3\n        /* \"#utility.yul\":14674:14693   */\n      mstore\n        /* \"#utility.yul\":14726:14730   */\n      0x20\n        /* \"#utility.yul\":14721:14724   */\n      dup3\n        /* \"#utility.yul\":14717:14731   */\n      add\n        /* \"#utility.yul\":14702:14731   */\n      swap1\n      pop\n        /* \"#utility.yul\":14553:14737   */\n      swap3\n      swap2\n      pop\n      pop\n      jump\t// out\n        /* \"#utility.yul\":14743:14912   */\n    tag_273:\n        /* \"#utility.yul\":14827:14838   */\n      0x00\n        /* \"#utility.yul\":14861:14867   */\n      dup3\n        /* \"#utility.yul\":14856:14859   */\n      dup3\n        /* \"#utility.yul\":14849:14868   */\n      mstore\n        /* \"#utility.yul\":14901:14905   */\n      0x20\n        /* \"#utility.yul\":14896:14899   */\n      dup3\n        /* \"#utility.yul\":14892:14906   */\n      add\n        /* \"#utility.yul\":14877:14906   */\n      swap1\n      pop\n        /* \"#utility.yul\":14743:14912   */\n      swap3\n      swap2\n      pop\n      pop\n      jump\t// out\n        /* \"#utility.yul\":14918:15223   */\n    tag_71:\n        /* \"#utility.yul\":14958:14961   */\n      0x00\n        /* \"#utility.yul\":14977:14997   */\n      tag_385\n        /* \"#utility.yul\":14995:14996   */\n      dup3\n        /* \"#utility.yul\":14977:14997   */\n      tag_317\n      jump\t// in\n    tag_385:\n        /* \"#utility.yul\":14972:14997   */\n      swap2\n      pop\n        /* \"#utility.yul\":15011:15031   */\n      tag_386\n        /* \"#utility.yul\":15029:15030   */\n      dup4\n        /* \"#utility.yul\":15011:15031   */\n      tag_317\n      jump\t// in\n    tag_386:\n        /* \"#utility.yul\":15006:15031   */\n      swap3\n      pop\n        /* \"#utility.yul\":15165:15166   */\n      dup3\n        /* \"#utility.yul\":15097:15163   */\n      0xffffffffffffffffffffffffffffffffffffffffffffffffffffffffffffffff\n        /* \"#utility.yul\":15093:15167   */\n      sub\n        /* \"#utility.yul\":15090:15091   */\n      dup3\n        /* \"#utility.yul\":15087:15168   */\n      gt\n        /* \"#utility.yul\":15084:15191   */\n      iszero\n      tag_387\n      jumpi\n        /* \"#utility.yul\":15171:15189   */\n      tag_388\n      tag_389\n      jump\t// in\n    tag_388:\n        /* \"#utility.yul\":15084:15191   */\n    tag_387:\n        /* \"#utility.yul\":15215:15216   */\n      dup3\n        /* \"#utility.yul\":15212:15213   */\n      dup3\n        /* \"#utility.yul\":15208:15217   */\n      add\n        /* \"#utility.yul\":15201:15217   */\n      swap1\n      pop\n        /* \"#utility.yul\":14918:15223   */\n      swap3\n      swap2\n      pop\n      pop\n      jump\t// out\n        /* \"#utility.yul\":15229:15577   */\n    tag_178:\n        /* \"#utility.yul\":15269:15276   */\n      0x00\n        /* \"#utility.yul\":15292:15312   */\n      tag_391\n        /* \"#utility.yul\":15310:15311   */\n      dup3\n        /* \"#utility.yul\":15292:15312   */\n      tag_317\n      jump\t// in\n    tag_391:\n        /* \"#utility.yul\":15287:15312   */\n      swap2\n      pop\n        /* \"#utility.yul\":15326:15346   */\n      tag_392\n        /* \"#utility.yul\":15344:15345   */\n      dup4\n        /* \"#utility.yul\":15326:15346   */\n      tag_317\n      jump\t// in\n    tag_392:\n        /* \"#utility.yul\":15321:15346   */\n      swap3\n      pop\n        /* \"#utility.yul\":15514:15515   */\n      dup2\n        /* \"#utility.yul\":15446:15512   */\n      0xffffffffffffffffffffffffffffffffffffffffffffffffffffffffffffffff\n        /* \"#utility.yul\":15442:15516   */\n      div\n        /* \"#utility.yul\":15439:15440   */\n      dup4\n        /* \"#utility.yul\":15436:15517   */\n      gt\n        /* \"#utility.yul\":15431:15432   */\n      dup3\n        /* \"#utility.yul\":15424:15433   */\n      iszero\n        /* \"#utility.yul\":15417:15434   */\n      iszero\n        /* \"#utility.yul\":15413:15518   */\n      and\n        /* \"#utility.yul\":15410:15541   */\n      iszero\n      tag_393\n      jumpi\n        /* \"#utility.yul\":15521:15539   */\n      tag_394\n      tag_389\n      jump\t// in\n    tag_394:\n        /* \"#utility.yul\":15410:15541   */\n    tag_393:\n        /* \"#utility.yul\":15569:15570   */\n      dup3\n        /* \"#utility.yul\":15566:15567   */\n      dup3\n        /* \"#utility.yul\":15562:15571   */\n      mul\n        /* \"#utility.yul\":15551:15571   */\n      swap1\n      pop\n        /* \"#utility.yul\":15229:15577   */\n      swap3\n      swap2\n      pop\n      pop\n      jump\t// out\n        /* \"#utility.yul\":15583:15774   */\n    tag_81:\n        /* \"#utility.yul\":15623:15627   */\n      0x00\n        /* \"#utility.yul\":15643:15663   */\n      tag_396\n        /* \"#utility.yul\":15661:15662   */\n      dup3\n        /* \"#utility.yul\":15643:15663   */\n      tag_317\n      jump\t// in\n    tag_396:\n        /* \"#utility.yul\":15638:15663   */\n      swap2\n      pop\n        /* \"#utility.yul\":15677:15697   */\n      tag_397\n        /* \"#utility.yul\":15695:15696   */\n      dup4\n        /* \"#utility.yul\":15677:15697   */\n      tag_317\n      jump\t// in\n    tag_397:\n        /* \"#utility.yul\":15672:15697   */\n      swap3\n      pop\n        /* \"#utility.yul\":15716:15717   */\n      dup3\n        /* \"#utility.yul\":15713:15714   */\n      dup3\n        /* \"#utility.yul\":15710:15718   */\n      lt\n        /* \"#utility.yul\":15707:15741   */\n      iszero\n      tag_398\n      jumpi\n        /* \"#utility.yul\":15721:15739   */\n      tag_399\n      tag_389\n      jump\t// in\n    tag_399:\n        /* \"#utility.yul\":15707:15741   */\n    tag_398:\n        /* \"#utility.yul\":15766:15767   */\n      dup3\n        /* \"#utility.yul\":15763:15764   */\n      dup3\n        /* \"#utility.yul\":15759:15768   */\n      sub\n        /* \"#utility.yul\":15751:15768   */\n      swap1\n      pop\n        /* \"#utility.yul\":15583:15774   */\n      swap3\n      swap2\n      pop\n      pop\n      jump\t// out\n        /* \"#utility.yul\":15780:15876   */\n    tag_253:\n        /* \"#utility.yul\":15817:15824   */\n      0x00\n        /* \"#utility.yul\":15846:15870   */\n      tag_401\n        /* \"#utility.yul\":15864:15869   */\n      dup3\n        /* \"#utility.yul\":15846:15870   */\n      tag_402\n      jump\t// in\n    tag_401:\n        /* \"#utility.yul\":15835:15870   */\n      swap1\n      pop\n        /* \"#utility.yul\":15780:15876   */\n      swap2\n      swap1\n      pop\n      jump\t// out\n        /* \"#utility.yul\":15882:16008   */\n    tag_402:\n        /* \"#utility.yul\":15919:15926   */\n      0x00\n        /* \"#utility.yul\":15959:16001   */\n      0xffffffffffffffffffffffffffffffffffffffff\n        /* \"#utility.yul\":15952:15957   */\n      dup3\n        /* \"#utility.yul\":15948:16002   */\n      and\n        /* \"#utility.yul\":15937:16002   */\n      swap1\n      pop\n        /* \"#utility.yul\":15882:16008   */\n      swap2\n      swap1\n      pop\n      jump\t// out\n        /* \"#utility.yul\":16014:16091   */\n    tag_317:\n        /* \"#utility.yul\":16051:16058   */\n      0x00\n        /* \"#utility.yul\":16080:16085   */\n      dup2\n        /* \"#utility.yul\":16069:16085   */\n      swap1\n      pop\n        /* \"#utility.yul\":16014:16091   */\n      swap2\n      swap1\n      pop\n      jump\t// out\n        /* \"#utility.yul\":16097:16190   */\n    tag_329:\n        /* \"#utility.yul\":16133:16140   */\n      0x00\n        /* \"#utility.yul\":16173:16183   */\n      0xffffffff\n        /* \"#utility.yul\":16166:16171   */\n      dup3\n        /* \"#utility.yul\":16162:16184   */\n      and\n        /* \"#utility.yul\":16151:16184   */\n      swap1\n      pop\n        /* \"#utility.yul\":16097:16190   */\n      swap2\n      swap1\n      pop\n      jump\t// out\n        /* \"#utility.yul\":16196:16350   */\n    tag_209:\n        /* \"#utility.yul\":16280:16286   */\n      dup3\n        /* \"#utility.yul\":16275:16278   */\n      dup2\n        /* \"#utility.yul\":16270:16273   */\n      dup4\n        /* \"#utility.yul\":16257:16287   */\n      calldatacopy\n        /* \"#utility.yul\":16342:16343   */\n      0x00\n        /* \"#utility.yul\":16333:16339   */\n      dup4\n        /* \"#utility.yul\":16328:16331   */\n      dup4\n        /* \"#utility.yul\":16324:16340   */\n      add\n        /* \"#utility.yul\":16317:16344   */\n      mstore\n        /* \"#utility.yul\":16196:16350   */\n      pop\n      pop\n      pop\n      jump\t// out\n        /* \"#utility.yul\":16356:16663   */\n    tag_275:\n        /* \"#utility.yul\":16424:16425   */\n      0x00\n        /* \"#utility.yul\":16434:16547   */\n    tag_408:\n        /* \"#utility.yul\":16448:16454   */\n      dup4\n        /* \"#utility.yul\":16445:16446   */\n      dup2\n        /* \"#utility.yul\":16442:16455   */\n      lt\n        /* \"#utility.yul\":16434:16547   */\n      iszero\n      tag_410\n      jumpi\n        /* \"#utility.yul\":16533:16534   */\n      dup1\n        /* \"#utility.yul\":16528:16531   */\n      dup3\n        /* \"#utility.yul\":16524:16535   */\n      add\n        /* \"#utility.yul\":16518:16536   */\n      mload\n        /* \"#utility.yul\":16514:16515   */\n      dup2\n        /* \"#utility.yul\":16509:16512   */\n      dup5\n        /* \"#utility.yul\":16505:16516   */\n      add\n        /* \"#utility.yul\":16498:16537   */\n      mstore\n        /* \"#utility.yul\":16470:16472   */\n      0x20\n        /* \"#utility.yul\":16467:16468   */\n      dup2\n        /* \"#utility.yul\":16463:16473   */\n      add\n        /* \"#utility.yul\":16458:16473   */\n      swap1\n      pop\n        /* \"#utility.yul\":16434:16547   */\n      jump(tag_408)\n    tag_410:\n        /* \"#utility.yul\":16565:16571   */\n      dup4\n        /* \"#utility.yul\":16562:16563   */\n      dup2\n        /* \"#utility.yul\":16559:16572   */\n      gt\n        /* \"#utility.yul\":16556:16657   */\n      iszero\n      tag_411\n      jumpi\n        /* \"#utility.yul\":16645:16646   */\n      0x00\n        /* \"#utility.yul\":16636:16642   */\n      dup5\n        /* \"#utility.yul\":16631:16634   */\n      dup5\n        /* \"#utility.yul\":16627:16643   */\n      add\n        /* \"#utility.yul\":16620:16647   */\n      mstore\n        /* \"#utility.yul\":16556:16657   */\n    tag_411:\n        /* \"#utility.yul\":16405:16663   */\n      pop\n        /* \"#utility.yul\":16356:16663   */\n      pop\n      pop\n      pop\n      jump\t// out\n        /* \"#utility.yul\":16669:16989   */\n    tag_134:\n        /* \"#utility.yul\":16713:16719   */\n      0x00\n        /* \"#utility.yul\":16750:16751   */\n      0x02\n        /* \"#utility.yul\":16744:16748   */\n      dup3\n        /* \"#utility.yul\":16740:16752   */\n      div\n        /* \"#utility.yul\":16730:16752   */\n      swap1\n      pop\n        /* \"#utility.yul\":16797:16798   */\n      0x01\n        /* \"#utility.yul\":16791:16795   */\n      dup3\n        /* \"#utility.yul\":16787:16799   */\n      and\n        /* \"#utility.yul\":16818:16836   */\n      dup1\n        /* \"#utility.yul\":16808:16889   */\n      tag_413\n      jumpi\n        /* \"#utility.yul\":16874:16878   */\n      0x7f\n        /* \"#utility.yul\":16866:16872   */\n      dup3\n        /* \"#utility.yul\":16862:16879   */\n      and\n        /* \"#utility.yul\":16852:16879   */\n      swap2\n      pop\n        /* \"#utility.yul\":16808:16889   */\n    tag_413:\n        /* \"#utility.yul\":16936:16938   */\n      0x20\n        /* \"#utility.yul\":16928:16934   */\n      dup3\n        /* \"#utility.yul\":16925:16939   */\n      lt\n        /* \"#utility.yul\":16905:16923   */\n      dup2\n        /* \"#utility.yul\":16902:16940   */\n      eq\n        /* \"#utility.yul\":16899:16983   */\n      iszero\n      tag_414\n      jumpi\n        /* \"#utility.yul\":16955:16973   */\n      tag_415\n      tag_416\n      jump\t// in\n    tag_415:\n        /* \"#utility.yul\":16899:16983   */\n    tag_414:\n        /* \"#utility.yul\":16720:16989   */\n      pop\n        /* \"#utility.yul\":16669:16989   */\n      swap2\n      swap1\n      pop\n      jump\t// out\n        /* \"#utility.yul\":16995:17276   */\n    tag_370:\n        /* \"#utility.yul\":17078:17105   */\n      tag_418\n        /* \"#utility.yul\":17100:17104   */\n      dup3\n        /* \"#utility.yul\":17078:17105   */\n      tag_277\n      jump\t// in\n    tag_418:\n        /* \"#utility.yul\":17070:17076   */\n      dup2\n        /* \"#utility.yul\":17066:17106   */\n      add\n        /* \"#utility.yul\":17208:17214   */\n      dup2\n        /* \"#utility.yul\":17196:17206   */\n      dup2\n        /* \"#utility.yul\":17193:17215   */\n      lt\n        /* \"#utility.yul\":17172:17190   */\n      0xffffffffffffffff\n        /* \"#utility.yul\":17160:17170   */\n      dup3\n        /* \"#utility.yul\":17157:17191   */\n      gt\n        /* \"#utility.yul\":17154:17216   */\n      or\n        /* \"#utility.yul\":17151:17239   */\n      iszero\n      tag_419\n      jumpi\n        /* \"#utility.yul\":17219:17237   */\n      tag_420\n      tag_375\n      jump\t// in\n    tag_420:\n        /* \"#utility.yul\":17151:17239   */\n    tag_419:\n        /* \"#utility.yul\":17259:17269   */\n      dup1\n        /* \"#utility.yul\":17255:17257   */\n      0x40\n        /* \"#utility.yul\":17248:17270   */\n      mstore\n        /* \"#utility.yul\":17038:17276   */\n      pop\n        /* \"#utility.yul\":16995:17276   */\n      pop\n      pop\n      jump\t// out\n        /* \"#utility.yul\":17282:17515   */\n    tag_78:\n        /* \"#utility.yul\":17321:17324   */\n      0x00\n        /* \"#utility.yul\":17344:17368   */\n      tag_422\n        /* \"#utility.yul\":17362:17367   */\n      dup3\n        /* \"#utility.yul\":17344:17368   */\n      tag_317\n      jump\t// in\n    tag_422:\n        /* \"#utility.yul\":17335:17368   */\n      swap2\n      pop\n        /* \"#utility.yul\":17390:17456   */\n      0xffffffffffffffffffffffffffffffffffffffffffffffffffffffffffffffff\n        /* \"#utility.yul\":17383:17388   */\n      dup3\n        /* \"#utility.yul\":17380:17457   */\n      eq\n        /* \"#utility.yul\":17377:17480   */\n      iszero\n      tag_423\n      jumpi\n        /* \"#utility.yul\":17460:17478   */\n      tag_424\n      tag_389\n      jump\t// in\n    tag_424:\n        /* \"#utility.yul\":17377:17480   */\n    tag_423:\n        /* \"#utility.yul\":17507:17508   */\n      0x01\n        /* \"#utility.yul\":17500:17505   */\n      dup3\n        /* \"#utility.yul\":17496:17509   */\n      add\n        /* \"#utility.yul\":17489:17509   */\n      swap1\n      pop\n        /* \"#utility.yul\":17282:17515   */\n      swap2\n      swap1\n      pop\n      jump\t// out\n        /* \"#utility.yul\":17521:17600   */\n    tag_325:\n        /* \"#utility.yul\":17560:17567   */\n      0x00\n        /* \"#utility.yul\":17589:17594   */\n      dup2\n        /* \"#utility.yul\":17578:17594   */\n      swap1\n      pop\n        /* \"#utility.yul\":17521:17600   */\n      swap2\n      swap1\n      pop\n      jump\t// out\n        /* \"#utility.yul\":17606:17782   */\n    tag_88:\n        /* \"#utility.yul\":17638:17639   */\n      0x00\n        /* \"#utility.yul\":17655:17675   */\n      tag_427\n        /* \"#utility.yul\":17673:17674   */\n      dup3\n        /* \"#utility.yul\":17655:17675   */\n      tag_317\n      jump\t// in\n    tag_427:\n        /* \"#utility.yul\":17650:17675   */\n      swap2\n      pop\n        /* \"#utility.yul\":17689:17709   */\n      tag_428\n        /* \"#utility.yul\":17707:17708   */\n      dup4\n        /* \"#utility.yul\":17689:17709   */\n      tag_317\n      jump\t// in\n    tag_428:\n        /* \"#utility.yul\":17684:17709   */\n      swap3\n      pop\n        /* \"#utility.yul\":17728:17729   */\n      dup3\n        /* \"#utility.yul\":17718:17753   */\n      tag_429\n      jumpi\n        /* \"#utility.yul\":17733:17751   */\n      tag_430\n      tag_431\n      jump\t// in\n    tag_430:\n        /* \"#utility.yul\":17718:17753   */\n    tag_429:\n        /* \"#utility.yul\":17774:17775   */\n      dup3\n        /* \"#utility.yul\":17771:17772   */\n      dup3\n        /* \"#utility.yul\":17767:17776   */\n      mod\n        /* \"#utility.yul\":17762:17776   */\n      swap1\n      pop\n        /* \"#utility.yul\":17606:17782   */\n      swap3\n      swap2\n      pop\n      pop\n      jump\t// out\n        /* \"#utility.yul\":17788:17968   */\n    tag_389:\n        /* \"#utility.yul\":17836:17913   */\n      0x4e487b7100000000000000000000000000000000000000000000000000000000\n        /* \"#utility.yul\":17833:17834   */\n      0x00\n        /* \"#utility.yul\":17826:17914   */\n      mstore\n        /* \"#utility.yul\":17933:17937   */\n      0x11\n        /* \"#utility.yul\":17930:17931   */\n      0x04\n        /* \"#utility.yul\":17923:17938   */\n      mstore\n        /* \"#utility.yul\":17957:17961   */\n      0x24\n        /* \"#utility.yul\":17954:17955   */\n      0x00\n        /* \"#utility.yul\":17947:17962   */\n      revert\n        /* \"#utility.yul\":17974:18154   */\n    tag_431:\n        /* \"#utility.yul\":18022:18099   */\n      0x4e487b7100000000000000000000000000000000000000000000000000000000\n        /* \"#utility.yul\":18019:18020   */\n      0x00\n        /* \"#utility.yul\":18012:18100   */\n      mstore\n        /* \"#utility.yul\":18119:18123   */\n      0x12\n        /* \"#utility.yul\":18116:18117   */\n      0x04\n        /* \"#utility.yul\":18109:18124   */\n      mstore\n        /* \"#utility.yul\":18143:18147   */\n      0x24\n        /* \"#utility.yul\":18140:18141   */\n      0x00\n        /* \"#utility.yul\":18133:18148   */\n      revert\n        /* \"#utility.yul\":18160:18340   */\n    tag_416:\n        /* \"#utility.yul\":18208:18285   */\n      0x4e487b7100000000000000000000000000000000000000000000000000000000\n        /* \"#utility.yul\":18205:18206   */\n      0x00\n        /* \"#utility.yul\":18198:18286   */\n      mstore\n        /* \"#utility.yul\":18305:18309   */\n      0x22\n        /* \"#utility.yul\":18302:18303   */\n      0x04\n        /* \"#utility.yul\":18295:18310   */\n      mstore\n        /* \"#utility.yul\":18329:18333   */\n      0x24\n        /* \"#utility.yul\":18326:18327   */\n      0x00\n        /* \"#utility.yul\":18319:18334   */\n      revert\n        /* \"#utility.yul\":18346:18526   */\n    tag_97:\n        /* \"#utility.yul\":18394:18471   */\n      0x4e487b7100000000000000000000000000000000000000000000000000000000\n        /* \"#utility.yul\":18391:18392   */\n      0x00\n        /* \"#utility.yul\":18384:18472   */\n      mstore\n        /* \"#utility.yul\":18491:18495   */\n      0x32\n        /* \"#utility.yul\":18488:18489   */\n      0x04\n        /* \"#utility.yul\":18481:18496   */\n      mstore\n        /* \"#utility.yul\":18515:18519   */\n      0x24\n        /* \"#utility.yul\":18512:18513   */\n      0x00\n        /* \"#utility.yul\":18505:18520   */\n      revert\n        /* \"#utility.yul\":18532:18712   */\n    tag_375:\n        /* \"#utility.yul\":18580:18657   */\n      0x4e487b7100000000000000000000000000000000000000000000000000000000\n        /* \"#utility.yul\":18577:18578   */\n      0x00\n        /* \"#utility.yul\":18570:18658   */\n      mstore\n        /* \"#utility.yul\":18677:18681   */\n      0x41\n        /* \"#utility.yul\":18674:18675   */\n      0x04\n        /* \"#utility.yul\":18667:18682   */\n      mstore\n        /* \"#utility.yul\":18701:18705   */\n      0x24\n        /* \"#utility.yul\":18698:18699   */\n      0x00\n        /* \"#utility.yul\":18691:18706   */\n      revert\n        /* \"#utility.yul\":18718:18835   */\n    tag_218:\n        /* \"#utility.yul\":18827:18828   */\n      0x00\n        /* \"#utility.yul\":18824:18825   */\n      dup1\n        /* \"#utility.yul\":18817:18829   */\n      revert\n        /* \"#utility.yul\":18841:18958   */\n    tag_207:\n        /* \"#utility.yul\":18950:18951   */\n      0x00\n        /* \"#utility.yul\":18947:18948   */\n      dup1\n        /* \"#utility.yul\":18940:18952   */\n      revert\n        /* \"#utility.yul\":18964:19081   */\n    tag_234:\n        /* \"#utility.yul\":19073:19074   */\n      0x00\n        /* \"#utility.yul\":19070:19071   */\n      dup1\n        /* \"#utility.yul\":19063:19075   */\n      revert\n        /* \"#utility.yul\":19087:19204   */\n    tag_227:\n        /* \"#utility.yul\":19196:19197   */\n      0x00\n        /* \"#utility.yul\":19193:19194   */\n      dup1\n        /* \"#utility.yul\":19186:19198   */\n      revert\n        /* \"#utility.yul\":19210:19312   */\n    tag_277:\n        /* \"#utility.yul\":19251:19257   */\n      0x00\n        /* \"#utility.yul\":19302:19304   */\n      0x1f\n        /* \"#utility.yul\":19298:19305   */\n      not\n        /* \"#utility.yul\":19293:19295   */\n      0x1f\n        /* \"#utility.yul\":19286:19291   */\n      dup4\n        /* \"#utility.yul\":19282:19296   */\n      add\n        /* \"#utility.yul\":19278:19306   */\n      and\n        /* \"#utility.yul\":19268:19306   */\n      swap1\n      pop\n        /* \"#utility.yul\":19210:19312   */\n      swap2\n      swap1\n      pop\n      jump\t// out\n        /* \"#utility.yul\":19318:19545   */\n    tag_294:\n        /* \"#utility.yul\":19458:19492   */\n      0x536f6c6f2073652070756564652074656e657220756e20636f63686520706f72\n        /* \"#utility.yul\":19454:19455   */\n      0x00\n        /* \"#utility.yul\":19446:19452   */\n      dup3\n        /* \"#utility.yul\":19442:19456   */\n      add\n        /* \"#utility.yul\":19435:19493   */\n      mstore\n        /* \"#utility.yul\":19527:19537   */\n      0x20706572736f6e61000000000000000000000000000000000000000000000000\n        /* \"#utility.yul\":19522:19524   */\n      0x20\n        /* \"#utility.yul\":19514:19520   */\n      dup3\n        /* \"#utility.yul\":19510:19525   */\n      add\n        /* \"#utility.yul\":19503:19538   */\n      mstore\n        /* \"#utility.yul\":19318:19545   */\n      pop\n      jump\t// out\n        /* \"#utility.yul\":19551:19776   */\n    tag_299:\n        /* \"#utility.yul\":19691:19725   */\n      0x4f776e61626c653a206e6577206f776e657220697320746865207a65726f2061\n        /* \"#utility.yul\":19687:19688   */\n      0x00\n        /* \"#utility.yul\":19679:19685   */\n      dup3\n        /* \"#utility.yul\":19675:19689   */\n      add\n        /* \"#utility.yul\":19668:19726   */\n      mstore\n        /* \"#utility.yul\":19760:19768   */\n      0x6464726573730000000000000000000000000000000000000000000000000000\n        /* \"#utility.yul\":19755:19757   */\n      0x20\n        /* \"#utility.yul\":19747:19753   */\n      dup3\n        /* \"#utility.yul\":19743:19758   */\n      add\n        /* \"#utility.yul\":19736:19769   */\n      mstore\n        /* \"#utility.yul\":19551:19776   */\n      pop\n      jump\t// out\n        /* \"#utility.yul\":19782:19944   */\n    tag_304:\n        /* \"#utility.yul\":19922:19936   */\n      0x4861732067616e61646f3a200000000000000000000000000000000000000000\n        /* \"#utility.yul\":19918:19919   */\n      0x00\n        /* \"#utility.yul\":19910:19916   */\n      dup3\n        /* \"#utility.yul\":19906:19920   */\n      add\n        /* \"#utility.yul\":19899:19937   */\n      mstore\n        /* \"#utility.yul\":19782:19944   */\n      pop\n      jump\t// out\n        /* \"#utility.yul\":19950:20132   */\n    tag_309:\n        /* \"#utility.yul\":20090:20124   */\n      0x4f776e61626c653a2063616c6c6572206973206e6f7420746865206f776e6572\n        /* \"#utility.yul\":20086:20087   */\n      0x00\n        /* \"#utility.yul\":20078:20084   */\n      dup3\n        /* \"#utility.yul\":20074:20088   */\n      add\n        /* \"#utility.yul\":20067:20125   */\n      mstore\n        /* \"#utility.yul\":19950:20132   */\n      pop\n      jump\t// out\n        /* \"#utility.yul\":20138:20309   */\n    tag_314:\n        /* \"#utility.yul\":20278:20301   */\n      0x456c20636f6368652067616e61646f722065733a200000000000000000000000\n        /* \"#utility.yul\":20274:20275   */\n      0x00\n        /* \"#utility.yul\":20266:20272   */\n      dup3\n        /* \"#utility.yul\":20262:20276   */\n      add\n        /* \"#utility.yul\":20255:20302   */\n      mstore\n        /* \"#utility.yul\":20138:20309   */\n      pop\n      jump\t// out\n        /* \"#utility.yul\":20315:20437   */\n    tag_213:\n        /* \"#utility.yul\":20388:20412   */\n      tag_448\n        /* \"#utility.yul\":20406:20411   */\n      dup2\n        /* \"#utility.yul\":20388:20412   */\n      tag_253\n      jump\t// in\n    tag_448:\n        /* \"#utility.yul\":20381:20386   */\n      dup2\n        /* \"#utility.yul\":20378:20413   */\n      eq\n        /* \"#utility.yul\":20368:20431   */\n      tag_449\n      jumpi\n        /* \"#utility.yul\":20427:20428   */\n      0x00\n        /* \"#utility.yul\":20424:20425   */\n      dup1\n        /* \"#utility.yul\":20417:20429   */\n      revert\n        /* \"#utility.yul\":20368:20431   */\n    tag_449:\n        /* \"#utility.yul\":20315:20437   */\n      pop\n      jump\t// out\n        /* \"#utility.yul\":20443:20565   */\n    tag_223:\n        /* \"#utility.yul\":20516:20540   */\n      tag_451\n        /* \"#utility.yul\":20534:20539   */\n      dup2\n        /* \"#utility.yul\":20516:20540   */\n      tag_317\n      jump\t// in\n    tag_451:\n        /* \"#utility.yul\":20509:20514   */\n      dup2\n        /* \"#utility.yul\":20506:20541   */\n      eq\n        /* \"#utility.yul\":20496:20559   */\n      tag_452\n      jumpi\n        /* \"#utility.yul\":20555:20556   */\n      0x00\n        /* \"#utility.yul\":20552:20553   */\n      dup1\n        /* \"#utility.yul\":20545:20557   */\n      revert\n        /* \"#utility.yul\":20496:20559   */\n    tag_452:\n        /* \"#utility.yul\":20443:20565   */\n      pop\n      jump\t// out\n\n    auxdata: 0xa264697066735822122062d33efe60f325d6f4d040d06d538cd06338520f0d9557253b71c864102651f564736f6c63430008070033\n}\n",
				"bytecode": {
					"linkReferences": {},
					"object": "608060405260006001556000600255603c60035534801561001f57600080fd5b5061003c61003161004160201b60201c565b61004960201b60201c565b61010d565b600033905090565b60008060009054906101000a900473ffffffffffffffffffffffffffffffffffffffff169050816000806101000a81548173ffffffffffffffffffffffffffffffffffffffff021916908373ffffffffffffffffffffffffffffffffffffffff1602179055508173ffffffffffffffffffffffffffffffffffffffff168173ffffffffffffffffffffffffffffffffffffffff167f8be0079c531659141344cd1fd0a4f28419497f9722a3daafe3b4186f6b6457e060405160405180910390a35050565b611ae08061011c6000396000f3fe6080604052600436106100915760003560e01c80638da5cb5b116100595780638da5cb5b14610194578063d735573d146101bf578063e172fca814610203578063f141376314610240578063f2fde38b1461026b57610091565b80631c6743e4146100965780632458c544146100d35780636b6f049414610110578063715018a614610140578063858b055414610157575b600080fd5b3480156100a257600080fd5b506100bd60048036038101906100b89190610fcb565b610294565b6040516100ca919061151f565b60405180910390f35b3480156100df57600080fd5b506100fa60048036038101906100f59190610ff8565b6102ac565b604051610107919061151f565b60405180910390f35b61012a6004803603810190610125919061109f565b61058e565b604051610137919061140a565b60405180910390f35b34801561014c57600080fd5b506101556107ca565b005b34801561016357600080fd5b5061017e6004803603810190610179919061109f565b610852565b60405161018b919061133a565b60405180910390f35b3480156101a057600080fd5b506101a9610885565b6040516101b6919061133a565b60405180910390f35b3480156101cb57600080fd5b506101e660048036038101906101e1919061109f565b6108ae565b6040516101fa989796959493929190611355565b60405180910390f35b34801561020f57600080fd5b5061022a60048036038101906102259190610fcb565b610ace565b60405161023791906113e8565b60405180910390f35b34801561024c57600080fd5b50610255610be4565b604051610262919061151f565b60405180910390f35b34801561027757600080fd5b50610292600480360381019061028d9190610fcb565b610c32565b005b60066020528060005260406000206000915090505481565b60006001600660003373ffffffffffffffffffffffffffffffffffffffff1673ffffffffffffffffffffffffffffffffffffffff1681526020019081526020016000205410610330576040517f08c379a000000000000000000000000000000000000000000000000000000000815260040161032790611463565b60405180910390fd5b60046040518061010001604052803373ffffffffffffffffffffffffffffffffffffffff16815260200186815260200185815260200184815260200160008152602001600081526020016003544261038891906115fa565b63ffffffff168152602001600063ffffffff16815250908060018154018082558091505060019003906000526020600020906008020160009091909190915060008201518160000160006101000a81548173ffffffffffffffffffffffffffffffffffffffff021916908373ffffffffffffffffffffffffffffffffffffffff160217905550602082015181600101908051906020019061042a929190610e8e565b506040820151816002019080519060200190610447929190610e8e565b506060820151816003019080519060200190610464929190610e8e565b506080820151816004015560a0820151816005015560c0820151816006015560e08201518160070160006101000a81548163ffffffff021916908363ffffffff160217905550505060006004805490509050336005600083815260200190815260200160002060006101000a81548173ffffffffffffffffffffffffffffffffffffffff021916908373ffffffffffffffffffffffffffffffffffffffff160217905550600660003373ffffffffffffffffffffffffffffffffffffffff1673ffffffffffffffffffffffffffffffffffffffff1681526020019081526020016000206000815480929190610558906117cf565b919050555060026000815480929190610570906117cf565b9190505550600160025461058491906116aa565b9150509392505050565b606081341461059c57600080fd5b600160008154809291906105af906117cf565b91905055506000600480549050426004805490506001546040516020016105d8939291906112fd565b6040516020818303038152906040528051906020012060001c6105fb9190611822565b905060016000815480929190610610906117cf565b91905055506000600290506000814283600154604051602001610635939291906112fd565b6040516020818303038152906040528051906020012060001c6106589190611822565b905060005b6004805490508110156107c0576004818154811061067e5761067d6118e0565b5b906000526020600020906008020160000160009054906101000a900473ffffffffffffffffffffffffffffffffffffffff1673ffffffffffffffffffffffffffffffffffffffff163373ffffffffffffffffffffffffffffffffffffffff1614156107ad576000821415610735576106f4610d2a565b6040518060400160405280600a81526020017f4861732067616e61646f000000000000000000000000000000000000000000008152509450505050506107c5565b7fa28482eec3136a2461c6c30c08f71ba279c6c51a2d9c7bea4e50d6d2632f38968460405161076491906114f1565b60405180910390a16040518060400160405280600b81526020017f486173207065726469646f0000000000000000000000000000000000000000008152509450505050506107c5565b80806107b8906117cf565b91505061065d565b505050505b919050565b6107d2610dc2565b73ffffffffffffffffffffffffffffffffffffffff166107f0610885565b73ffffffffffffffffffffffffffffffffffffffff1614610846576040517f08c379a000000000000000000000000000000000000000000000000000000000815260040161083d906114d1565b60405180910390fd5b6108506000610dca565b565b60056020528060005260406000206000915054906101000a900473ffffffffffffffffffffffffffffffffffffffff1681565b60008060009054906101000a900473ffffffffffffffffffffffffffffffffffffffff16905090565b600481815481106108be57600080fd5b90600052602060002090600802016000915090508060000160009054906101000a900473ffffffffffffffffffffffffffffffffffffffff16908060010180546109079061176c565b80601f01602080910402602001604051908101604052809291908181526020018280546109339061176c565b80156109805780601f1061095557610100808354040283529160200191610980565b820191906000526020600020905b81548152906001019060200180831161096357829003601f168201915b5050505050908060020180546109959061176c565b80601f01602080910402602001604051908101604052809291908181526020018280546109c19061176c565b8015610a0e5780601f106109e357610100808354040283529160200191610a0e565b820191906000526020600020905b8154815290600101906020018083116109f157829003601f168201915b505050505090806003018054610a239061176c565b80601f0160208091040260200160405190810160405280929190818152602001828054610a4f9061176c565b8015610a9c5780601f10610a7157610100808354040283529160200191610a9c565b820191906000526020600020905b815481529060010190602001808311610a7f57829003601f168201915b5050505050908060040154908060050154908060060154908060070160009054906101000a900463ffffffff16905088565b60608060005b600480549050811015610bdd578373ffffffffffffffffffffffffffffffffffffffff166005600083815260200190815260200160002060009054906101000a900473ffffffffffffffffffffffffffffffffffffffff1673ffffffffffffffffffffffffffffffffffffffff161415610bca577f96408510f58a52b0cfe536e046b25664fa36d8122620ec608c1767b45aa4f03c60048281548110610b7d57610b7c6118e0565b5b906000526020600020906008020160020160048381548110610ba257610ba16118e0565b5b9060005260206000209060080201600101604051610bc192919061142c565b60405180910390a15b8080610bd5906117cf565b915050610ad4565b5050919050565b600080600290506000814283600154604051602001610c05939291906112fd565b6040516020818303038152906040528051906020012060001c610c289190611822565b9050809250505090565b610c3a610dc2565b73ffffffffffffffffffffffffffffffffffffffff16610c58610885565b73ffffffffffffffffffffffffffffffffffffffff1614610cae576040517f08c379a0000000000000000000000000000000000000000000000000000000008152600401610ca5906114d1565b60405180910390fd5b600073ffffffffffffffffffffffffffffffffffffffff168173ffffffffffffffffffffffffffffffffffffffff161415610d1e576040517f08c379a0000000000000000000000000000000000000000000000000000000008152600401610d1590611483565b60405180910390fd5b610d2781610dca565b50565b3373ffffffffffffffffffffffffffffffffffffffff166108fc600247610d519190611650565b9081150290604051600060405180830381858888f19350505050158015610d7c573d6000803e3d6000fd5b507fa28482eec3136a2461c6c30c08f71ba279c6c51a2d9c7bea4e50d6d2632f3896600247610dab9190611650565b604051610db891906114a3565b60405180910390a1565b600033905090565b60008060009054906101000a900473ffffffffffffffffffffffffffffffffffffffff169050816000806101000a81548173ffffffffffffffffffffffffffffffffffffffff021916908373ffffffffffffffffffffffffffffffffffffffff1602179055508173ffffffffffffffffffffffffffffffffffffffff168173ffffffffffffffffffffffffffffffffffffffff167f8be0079c531659141344cd1fd0a4f28419497f9722a3daafe3b4186f6b6457e060405160405180910390a35050565b828054610e9a9061176c565b90600052602060002090601f016020900481019282610ebc5760008555610f03565b82601f10610ed557805160ff1916838001178555610f03565b82800160010185558215610f03579182015b82811115610f02578251825591602001919060010190610ee7565b5b509050610f109190610f14565b5090565b5b80821115610f2d576000816000905550600101610f15565b5090565b6000610f44610f3f8461155f565b61153a565b905082815260208101848484011115610f6057610f5f611943565b5b610f6b84828561172a565b509392505050565b600081359050610f8281611a7c565b92915050565b600082601f830112610f9d57610f9c61193e565b5b8135610fad848260208601610f31565b91505092915050565b600081359050610fc581611a93565b92915050565b600060208284031215610fe157610fe061194d565b5b6000610fef84828501610f73565b91505092915050565b6000806000606084860312156110115761101061194d565b5b600084013567ffffffffffffffff81111561102f5761102e611948565b5b61103b86828701610f88565b935050602084013567ffffffffffffffff81111561105c5761105b611948565b5b61106886828701610f88565b925050604084013567ffffffffffffffff81111561108957611088611948565b5b61109586828701610f88565b9150509250925092565b6000602082840312156110b5576110b461194d565b5b60006110c384828501610fb6565b91505092915050565b60006110d883836112b9565b60208301905092915050565b6110ed816116de565b82525050565b60006110fe826115b5565b61110881856115d8565b935061111383611590565b8060005b8381101561114457815161112b88826110cc565b9750611136836115cb565b925050600181019050611117565b5085935050505092915050565b600061115c826115c0565b61116681856115e9565b9350611176818560208601611739565b61117f81611952565b840191505092915050565b600081546111978161176c565b6111a181866115e9565b945060018216600081146111bc57600181146111ce57611201565b60ff1983168652602086019350611201565b6111d7856115a0565b60005b838110156111f9578154818901526001820191506020810190506111da565b808801955050505b50505092915050565b60006112176028836115e9565b915061122282611963565b604082019050919050565b600061123a6026836115e9565b9150611245826119b2565b604082019050919050565b600061125d600c836115e9565b915061126882611a01565b602082019050919050565b60006112806020836115e9565b915061128b82611a2a565b602082019050919050565b60006112a36015836115e9565b91506112ae82611a53565b602082019050919050565b6112c281611710565b82525050565b6112d181611710565b82525050565b6112e86112e382611710565b611818565b82525050565b6112f78161171a565b82525050565b600061130982866112d7565b60208201915061131982856112d7565b60208201915061132982846112d7565b602082019150819050949350505050565b600060208201905061134f60008301846110e4565b92915050565b60006101008201905061136b600083018b6110e4565b818103602083015261137d818a611151565b905081810360408301526113918189611151565b905081810360608301526113a58188611151565b90506113b460808301876112c8565b6113c160a08301866112c8565b6113ce60c08301856112c8565b6113db60e08301846112ee565b9998505050505050505050565b6000602082019050818103600083015261140281846110f3565b905092915050565b600060208201905081810360008301526114248184611151565b905092915050565b60006040820190508181036000830152611446818561118a565b9050818103602083015261145a818461118a565b90509392505050565b6000602082019050818103600083015261147c8161120a565b9050919050565b6000602082019050818103600083015261149c8161122d565b9050919050565b600060408201905081810360008301526114bc81611250565b90506114cb60208301846112c8565b92915050565b600060208201905081810360008301526114ea81611273565b9050919050565b6000604082019050818103600083015261150a81611296565b905061151960208301846112c8565b92915050565b600060208201905061153460008301846112c8565b92915050565b6000611544611555565b9050611550828261179e565b919050565b6000604051905090565b600067ffffffffffffffff82111561157a5761157961190f565b5b61158382611952565b9050602081019050919050565b6000819050602082019050919050565b60008190508160005260206000209050919050565b600081519050919050565b600081519050919050565b6000602082019050919050565b600082825260208201905092915050565b600082825260208201905092915050565b600061160582611710565b915061161083611710565b9250827fffffffffffffffffffffffffffffffffffffffffffffffffffffffffffffffff0382111561164557611644611853565b5b828201905092915050565b600061165b82611710565b915061166683611710565b9250817fffffffffffffffffffffffffffffffffffffffffffffffffffffffffffffffff048311821515161561169f5761169e611853565b5b828202905092915050565b60006116b582611710565b91506116c083611710565b9250828210156116d3576116d2611853565b5b828203905092915050565b60006116e9826116f0565b9050919050565b600073ffffffffffffffffffffffffffffffffffffffff82169050919050565b6000819050919050565b600063ffffffff82169050919050565b82818337600083830152505050565b60005b8381101561175757808201518184015260208101905061173c565b83811115611766576000848401525b50505050565b6000600282049050600182168061178457607f821691505b60208210811415611798576117976118b1565b5b50919050565b6117a782611952565b810181811067ffffffffffffffff821117156117c6576117c561190f565b5b80604052505050565b60006117da82611710565b91507fffffffffffffffffffffffffffffffffffffffffffffffffffffffffffffffff82141561180d5761180c611853565b5b600182019050919050565b6000819050919050565b600061182d82611710565b915061183883611710565b92508261184857611847611882565b5b828206905092915050565b7f4e487b7100000000000000000000000000000000000000000000000000000000600052601160045260246000fd5b7f4e487b7100000000000000000000000000000000000000000000000000000000600052601260045260246000fd5b7f4e487b7100000000000000000000000000000000000000000000000000000000600052602260045260246000fd5b7f4e487b7100000000000000000000000000000000000000000000000000000000600052603260045260246000fd5b7f4e487b7100000000000000000000000000000000000000000000000000000000600052604160045260246000fd5b600080fd5b600080fd5b600080fd5b600080fd5b6000601f19601f8301169050919050565b7f536f6c6f2073652070756564652074656e657220756e20636f63686520706f7260008201527f20706572736f6e61000000000000000000000000000000000000000000000000602082015250565b7f4f776e61626c653a206e6577206f776e657220697320746865207a65726f206160008201527f6464726573730000000000000000000000000000000000000000000000000000602082015250565b7f4861732067616e61646f3a200000000000000000000000000000000000000000600082015250565b7f4f776e61626c653a2063616c6c6572206973206e6f7420746865206f776e6572600082015250565b7f456c20636f6368652067616e61646f722065733a200000000000000000000000600082015250565b611a85816116de565b8114611a9057600080fd5b50565b611a9c81611710565b8114611aa757600080fd5b5056fea264697066735822122062d33efe60f325d6f4d040d06d538cd06338520f0d9557253b71c864102651f564736f6c63430008070033",
					"opcodes": "PUSH1 0x80 PUSH1 0x40 MSTORE PUSH1 0x0 PUSH1 0x1 SSTORE PUSH1 0x0 PUSH1 0x2 SSTORE PUSH1 0x3C PUSH1 0x3 SSTORE CALLVALUE DUP1 ISZERO PUSH2 0x1F JUMPI PUSH1 0x0 DUP1 REVERT JUMPDEST POP PUSH2 0x3C PUSH2 0x31 PUSH2 0x41 PUSH1 0x20 SHL PUSH1 0x20 SHR JUMP JUMPDEST PUSH2 0x49 PUSH1 0x20 SHL PUSH1 0x20 SHR JUMP JUMPDEST PUSH2 0x10D JUMP JUMPDEST PUSH1 0x0 CALLER SWAP1 POP SWAP1 JUMP JUMPDEST PUSH1 0x0 DUP1 PUSH1 0x0 SWAP1 SLOAD SWAP1 PUSH2 0x100 EXP SWAP1 DIV PUSH20 0xFFFFFFFFFFFFFFFFFFFFFFFFFFFFFFFFFFFFFFFF AND SWAP1 POP DUP2 PUSH1 0x0 DUP1 PUSH2 0x100 EXP DUP2 SLOAD DUP2 PUSH20 0xFFFFFFFFFFFFFFFFFFFFFFFFFFFFFFFFFFFFFFFF MUL NOT AND SWAP1 DUP4 PUSH20 0xFFFFFFFFFFFFFFFFFFFFFFFFFFFFFFFFFFFFFFFF AND MUL OR SWAP1 SSTORE POP DUP2 PUSH20 0xFFFFFFFFFFFFFFFFFFFFFFFFFFFFFFFFFFFFFFFF AND DUP2 PUSH20 0xFFFFFFFFFFFFFFFFFFFFFFFFFFFFFFFFFFFFFFFF AND PUSH32 0x8BE0079C531659141344CD1FD0A4F28419497F9722A3DAAFE3B4186F6B6457E0 PUSH1 0x40 MLOAD PUSH1 0x40 MLOAD DUP1 SWAP2 SUB SWAP1 LOG3 POP POP JUMP JUMPDEST PUSH2 0x1AE0 DUP1 PUSH2 0x11C PUSH1 0x0 CODECOPY PUSH1 0x0 RETURN INVALID PUSH1 0x80 PUSH1 0x40 MSTORE PUSH1 0x4 CALLDATASIZE LT PUSH2 0x91 JUMPI PUSH1 0x0 CALLDATALOAD PUSH1 0xE0 SHR DUP1 PUSH4 0x8DA5CB5B GT PUSH2 0x59 JUMPI DUP1 PUSH4 0x8DA5CB5B EQ PUSH2 0x194 JUMPI DUP1 PUSH4 0xD735573D EQ PUSH2 0x1BF JUMPI DUP1 PUSH4 0xE172FCA8 EQ PUSH2 0x203 JUMPI DUP1 PUSH4 0xF1413763 EQ PUSH2 0x240 JUMPI DUP1 PUSH4 0xF2FDE38B EQ PUSH2 0x26B JUMPI PUSH2 0x91 JUMP JUMPDEST DUP1 PUSH4 0x1C6743E4 EQ PUSH2 0x96 JUMPI DUP1 PUSH4 0x2458C544 EQ PUSH2 0xD3 JUMPI DUP1 PUSH4 0x6B6F0494 EQ PUSH2 0x110 JUMPI DUP1 PUSH4 0x715018A6 EQ PUSH2 0x140 JUMPI DUP1 PUSH4 0x858B0554 EQ PUSH2 0x157 JUMPI JUMPDEST PUSH1 0x0 DUP1 REVERT JUMPDEST CALLVALUE DUP1 ISZERO PUSH2 0xA2 JUMPI PUSH1 0x0 DUP1 REVERT JUMPDEST POP PUSH2 0xBD PUSH1 0x4 DUP1 CALLDATASIZE SUB DUP2 ADD SWAP1 PUSH2 0xB8 SWAP2 SWAP1 PUSH2 0xFCB JUMP JUMPDEST PUSH2 0x294 JUMP JUMPDEST PUSH1 0x40 MLOAD PUSH2 0xCA SWAP2 SWAP1 PUSH2 0x151F JUMP JUMPDEST PUSH1 0x40 MLOAD DUP1 SWAP2 SUB SWAP1 RETURN JUMPDEST CALLVALUE DUP1 ISZERO PUSH2 0xDF JUMPI PUSH1 0x0 DUP1 REVERT JUMPDEST POP PUSH2 0xFA PUSH1 0x4 DUP1 CALLDATASIZE SUB DUP2 ADD SWAP1 PUSH2 0xF5 SWAP2 SWAP1 PUSH2 0xFF8 JUMP JUMPDEST PUSH2 0x2AC JUMP JUMPDEST PUSH1 0x40 MLOAD PUSH2 0x107 SWAP2 SWAP1 PUSH2 0x151F JUMP JUMPDEST PUSH1 0x40 MLOAD DUP1 SWAP2 SUB SWAP1 RETURN JUMPDEST PUSH2 0x12A PUSH1 0x4 DUP1 CALLDATASIZE SUB DUP2 ADD SWAP1 PUSH2 0x125 SWAP2 SWAP1 PUSH2 0x109F JUMP JUMPDEST PUSH2 0x58E JUMP JUMPDEST PUSH1 0x40 MLOAD PUSH2 0x137 SWAP2 SWAP1 PUSH2 0x140A JUMP JUMPDEST PUSH1 0x40 MLOAD DUP1 SWAP2 SUB SWAP1 RETURN JUMPDEST CALLVALUE DUP1 ISZERO PUSH2 0x14C JUMPI PUSH1 0x0 DUP1 REVERT JUMPDEST POP PUSH2 0x155 PUSH2 0x7CA JUMP JUMPDEST STOP JUMPDEST CALLVALUE DUP1 ISZERO PUSH2 0x163 JUMPI PUSH1 0x0 DUP1 REVERT JUMPDEST POP PUSH2 0x17E PUSH1 0x4 DUP1 CALLDATASIZE SUB DUP2 ADD SWAP1 PUSH2 0x179 SWAP2 SWAP1 PUSH2 0x109F JUMP JUMPDEST PUSH2 0x852 JUMP JUMPDEST PUSH1 0x40 MLOAD PUSH2 0x18B SWAP2 SWAP1 PUSH2 0x133A JUMP JUMPDEST PUSH1 0x40 MLOAD DUP1 SWAP2 SUB SWAP1 RETURN JUMPDEST CALLVALUE DUP1 ISZERO PUSH2 0x1A0 JUMPI PUSH1 0x0 DUP1 REVERT JUMPDEST POP PUSH2 0x1A9 PUSH2 0x885 JUMP JUMPDEST PUSH1 0x40 MLOAD PUSH2 0x1B6 SWAP2 SWAP1 PUSH2 0x133A JUMP JUMPDEST PUSH1 0x40 MLOAD DUP1 SWAP2 SUB SWAP1 RETURN JUMPDEST CALLVALUE DUP1 ISZERO PUSH2 0x1CB JUMPI PUSH1 0x0 DUP1 REVERT JUMPDEST POP PUSH2 0x1E6 PUSH1 0x4 DUP1 CALLDATASIZE SUB DUP2 ADD SWAP1 PUSH2 0x1E1 SWAP2 SWAP1 PUSH2 0x109F JUMP JUMPDEST PUSH2 0x8AE JUMP JUMPDEST PUSH1 0x40 MLOAD PUSH2 0x1FA SWAP9 SWAP8 SWAP7 SWAP6 SWAP5 SWAP4 SWAP3 SWAP2 SWAP1 PUSH2 0x1355 JUMP JUMPDEST PUSH1 0x40 MLOAD DUP1 SWAP2 SUB SWAP1 RETURN JUMPDEST CALLVALUE DUP1 ISZERO PUSH2 0x20F JUMPI PUSH1 0x0 DUP1 REVERT JUMPDEST POP PUSH2 0x22A PUSH1 0x4 DUP1 CALLDATASIZE SUB DUP2 ADD SWAP1 PUSH2 0x225 SWAP2 SWAP1 PUSH2 0xFCB JUMP JUMPDEST PUSH2 0xACE JUMP JUMPDEST PUSH1 0x40 MLOAD PUSH2 0x237 SWAP2 SWAP1 PUSH2 0x13E8 JUMP JUMPDEST PUSH1 0x40 MLOAD DUP1 SWAP2 SUB SWAP1 RETURN JUMPDEST CALLVALUE DUP1 ISZERO PUSH2 0x24C JUMPI PUSH1 0x0 DUP1 REVERT JUMPDEST POP PUSH2 0x255 PUSH2 0xBE4 JUMP JUMPDEST PUSH1 0x40 MLOAD PUSH2 0x262 SWAP2 SWAP1 PUSH2 0x151F JUMP JUMPDEST PUSH1 0x40 MLOAD DUP1 SWAP2 SUB SWAP1 RETURN JUMPDEST CALLVALUE DUP1 ISZERO PUSH2 0x277 JUMPI PUSH1 0x0 DUP1 REVERT JUMPDEST POP PUSH2 0x292 PUSH1 0x4 DUP1 CALLDATASIZE SUB DUP2 ADD SWAP1 PUSH2 0x28D SWAP2 SWAP1 PUSH2 0xFCB JUMP JUMPDEST PUSH2 0xC32 JUMP JUMPDEST STOP JUMPDEST PUSH1 0x6 PUSH1 0x20 MSTORE DUP1 PUSH1 0x0 MSTORE PUSH1 0x40 PUSH1 0x0 KECCAK256 PUSH1 0x0 SWAP2 POP SWAP1 POP SLOAD DUP2 JUMP JUMPDEST PUSH1 0x0 PUSH1 0x1 PUSH1 0x6 PUSH1 0x0 CALLER PUSH20 0xFFFFFFFFFFFFFFFFFFFFFFFFFFFFFFFFFFFFFFFF AND PUSH20 0xFFFFFFFFFFFFFFFFFFFFFFFFFFFFFFFFFFFFFFFF AND DUP2 MSTORE PUSH1 0x20 ADD SWAP1 DUP2 MSTORE PUSH1 0x20 ADD PUSH1 0x0 KECCAK256 SLOAD LT PUSH2 0x330 JUMPI PUSH1 0x40 MLOAD PUSH32 0x8C379A000000000000000000000000000000000000000000000000000000000 DUP2 MSTORE PUSH1 0x4 ADD PUSH2 0x327 SWAP1 PUSH2 0x1463 JUMP JUMPDEST PUSH1 0x40 MLOAD DUP1 SWAP2 SUB SWAP1 REVERT JUMPDEST PUSH1 0x4 PUSH1 0x40 MLOAD DUP1 PUSH2 0x100 ADD PUSH1 0x40 MSTORE DUP1 CALLER PUSH20 0xFFFFFFFFFFFFFFFFFFFFFFFFFFFFFFFFFFFFFFFF AND DUP2 MSTORE PUSH1 0x20 ADD DUP7 DUP2 MSTORE PUSH1 0x20 ADD DUP6 DUP2 MSTORE PUSH1 0x20 ADD DUP5 DUP2 MSTORE PUSH1 0x20 ADD PUSH1 0x0 DUP2 MSTORE PUSH1 0x20 ADD PUSH1 0x0 DUP2 MSTORE PUSH1 0x20 ADD PUSH1 0x3 SLOAD TIMESTAMP PUSH2 0x388 SWAP2 SWAP1 PUSH2 0x15FA JUMP JUMPDEST PUSH4 0xFFFFFFFF AND DUP2 MSTORE PUSH1 0x20 ADD PUSH1 0x0 PUSH4 0xFFFFFFFF AND DUP2 MSTORE POP SWAP1 DUP1 PUSH1 0x1 DUP2 SLOAD ADD DUP1 DUP3 SSTORE DUP1 SWAP2 POP POP PUSH1 0x1 SWAP1 SUB SWAP1 PUSH1 0x0 MSTORE PUSH1 0x20 PUSH1 0x0 KECCAK256 SWAP1 PUSH1 0x8 MUL ADD PUSH1 0x0 SWAP1 SWAP2 SWAP1 SWAP2 SWAP1 SWAP2 POP PUSH1 0x0 DUP3 ADD MLOAD DUP2 PUSH1 0x0 ADD PUSH1 0x0 PUSH2 0x100 EXP DUP2 SLOAD DUP2 PUSH20 0xFFFFFFFFFFFFFFFFFFFFFFFFFFFFFFFFFFFFFFFF MUL NOT AND SWAP1 DUP4 PUSH20 0xFFFFFFFFFFFFFFFFFFFFFFFFFFFFFFFFFFFFFFFF AND MUL OR SWAP1 SSTORE POP PUSH1 0x20 DUP3 ADD MLOAD DUP2 PUSH1 0x1 ADD SWAP1 DUP1 MLOAD SWAP1 PUSH1 0x20 ADD SWAP1 PUSH2 0x42A SWAP3 SWAP2 SWAP1 PUSH2 0xE8E JUMP JUMPDEST POP PUSH1 0x40 DUP3 ADD MLOAD DUP2 PUSH1 0x2 ADD SWAP1 DUP1 MLOAD SWAP1 PUSH1 0x20 ADD SWAP1 PUSH2 0x447 SWAP3 SWAP2 SWAP1 PUSH2 0xE8E JUMP JUMPDEST POP PUSH1 0x60 DUP3 ADD MLOAD DUP2 PUSH1 0x3 ADD SWAP1 DUP1 MLOAD SWAP1 PUSH1 0x20 ADD SWAP1 PUSH2 0x464 SWAP3 SWAP2 SWAP1 PUSH2 0xE8E JUMP JUMPDEST POP PUSH1 0x80 DUP3 ADD MLOAD DUP2 PUSH1 0x4 ADD SSTORE PUSH1 0xA0 DUP3 ADD MLOAD DUP2 PUSH1 0x5 ADD SSTORE PUSH1 0xC0 DUP3 ADD MLOAD DUP2 PUSH1 0x6 ADD SSTORE PUSH1 0xE0 DUP3 ADD MLOAD DUP2 PUSH1 0x7 ADD PUSH1 0x0 PUSH2 0x100 EXP DUP2 SLOAD DUP2 PUSH4 0xFFFFFFFF MUL NOT AND SWAP1 DUP4 PUSH4 0xFFFFFFFF AND MUL OR SWAP1 SSTORE POP POP POP PUSH1 0x0 PUSH1 0x4 DUP1 SLOAD SWAP1 POP SWAP1 POP CALLER PUSH1 0x5 PUSH1 0x0 DUP4 DUP2 MSTORE PUSH1 0x20 ADD SWAP1 DUP2 MSTORE PUSH1 0x20 ADD PUSH1 0x0 KECCAK256 PUSH1 0x0 PUSH2 0x100 EXP DUP2 SLOAD DUP2 PUSH20 0xFFFFFFFFFFFFFFFFFFFFFFFFFFFFFFFFFFFFFFFF MUL NOT AND SWAP1 DUP4 PUSH20 0xFFFFFFFFFFFFFFFFFFFFFFFFFFFFFFFFFFFFFFFF AND MUL OR SWAP1 SSTORE POP PUSH1 0x6 PUSH1 0x0 CALLER PUSH20 0xFFFFFFFFFFFFFFFFFFFFFFFFFFFFFFFFFFFFFFFF AND PUSH20 0xFFFFFFFFFFFFFFFFFFFFFFFFFFFFFFFFFFFFFFFF AND DUP2 MSTORE PUSH1 0x20 ADD SWAP1 DUP2 MSTORE PUSH1 0x20 ADD PUSH1 0x0 KECCAK256 PUSH1 0x0 DUP2 SLOAD DUP1 SWAP3 SWAP2 SWAP1 PUSH2 0x558 SWAP1 PUSH2 0x17CF JUMP JUMPDEST SWAP2 SWAP1 POP SSTORE POP PUSH1 0x2 PUSH1 0x0 DUP2 SLOAD DUP1 SWAP3 SWAP2 SWAP1 PUSH2 0x570 SWAP1 PUSH2 0x17CF JUMP JUMPDEST SWAP2 SWAP1 POP SSTORE POP PUSH1 0x1 PUSH1 0x2 SLOAD PUSH2 0x584 SWAP2 SWAP1 PUSH2 0x16AA JUMP JUMPDEST SWAP2 POP POP SWAP4 SWAP3 POP POP POP JUMP JUMPDEST PUSH1 0x60 DUP2 CALLVALUE EQ PUSH2 0x59C JUMPI PUSH1 0x0 DUP1 REVERT JUMPDEST PUSH1 0x1 PUSH1 0x0 DUP2 SLOAD DUP1 SWAP3 SWAP2 SWAP1 PUSH2 0x5AF SWAP1 PUSH2 0x17CF JUMP JUMPDEST SWAP2 SWAP1 POP SSTORE POP PUSH1 0x0 PUSH1 0x4 DUP1 SLOAD SWAP1 POP TIMESTAMP PUSH1 0x4 DUP1 SLOAD SWAP1 POP PUSH1 0x1 SLOAD PUSH1 0x40 MLOAD PUSH1 0x20 ADD PUSH2 0x5D8 SWAP4 SWAP3 SWAP2 SWAP1 PUSH2 0x12FD JUMP JUMPDEST PUSH1 0x40 MLOAD PUSH1 0x20 DUP2 DUP4 SUB SUB DUP2 MSTORE SWAP1 PUSH1 0x40 MSTORE DUP1 MLOAD SWAP1 PUSH1 0x20 ADD KECCAK256 PUSH1 0x0 SHR PUSH2 0x5FB SWAP2 SWAP1 PUSH2 0x1822 JUMP JUMPDEST SWAP1 POP PUSH1 0x1 PUSH1 0x0 DUP2 SLOAD DUP1 SWAP3 SWAP2 SWAP1 PUSH2 0x610 SWAP1 PUSH2 0x17CF JUMP JUMPDEST SWAP2 SWAP1 POP SSTORE POP PUSH1 0x0 PUSH1 0x2 SWAP1 POP PUSH1 0x0 DUP2 TIMESTAMP DUP4 PUSH1 0x1 SLOAD PUSH1 0x40 MLOAD PUSH1 0x20 ADD PUSH2 0x635 SWAP4 SWAP3 SWAP2 SWAP1 PUSH2 0x12FD JUMP JUMPDEST PUSH1 0x40 MLOAD PUSH1 0x20 DUP2 DUP4 SUB SUB DUP2 MSTORE SWAP1 PUSH1 0x40 MSTORE DUP1 MLOAD SWAP1 PUSH1 0x20 ADD KECCAK256 PUSH1 0x0 SHR PUSH2 0x658 SWAP2 SWAP1 PUSH2 0x1822 JUMP JUMPDEST SWAP1 POP PUSH1 0x0 JUMPDEST PUSH1 0x4 DUP1 SLOAD SWAP1 POP DUP2 LT ISZERO PUSH2 0x7C0 JUMPI PUSH1 0x4 DUP2 DUP2 SLOAD DUP2 LT PUSH2 0x67E JUMPI PUSH2 0x67D PUSH2 0x18E0 JUMP JUMPDEST JUMPDEST SWAP1 PUSH1 0x0 MSTORE PUSH1 0x20 PUSH1 0x0 KECCAK256 SWAP1 PUSH1 0x8 MUL ADD PUSH1 0x0 ADD PUSH1 0x0 SWAP1 SLOAD SWAP1 PUSH2 0x100 EXP SWAP1 DIV PUSH20 0xFFFFFFFFFFFFFFFFFFFFFFFFFFFFFFFFFFFFFFFF AND PUSH20 0xFFFFFFFFFFFFFFFFFFFFFFFFFFFFFFFFFFFFFFFF AND CALLER PUSH20 0xFFFFFFFFFFFFFFFFFFFFFFFFFFFFFFFFFFFFFFFF AND EQ ISZERO PUSH2 0x7AD JUMPI PUSH1 0x0 DUP3 EQ ISZERO PUSH2 0x735 JUMPI PUSH2 0x6F4 PUSH2 0xD2A JUMP JUMPDEST PUSH1 0x40 MLOAD DUP1 PUSH1 0x40 ADD PUSH1 0x40 MSTORE DUP1 PUSH1 0xA DUP2 MSTORE PUSH1 0x20 ADD PUSH32 0x4861732067616E61646F00000000000000000000000000000000000000000000 DUP2 MSTORE POP SWAP5 POP POP POP POP POP PUSH2 0x7C5 JUMP JUMPDEST PUSH32 0xA28482EEC3136A2461C6C30C08F71BA279C6C51A2D9C7BEA4E50D6D2632F3896 DUP5 PUSH1 0x40 MLOAD PUSH2 0x764 SWAP2 SWAP1 PUSH2 0x14F1 JUMP JUMPDEST PUSH1 0x40 MLOAD DUP1 SWAP2 SUB SWAP1 LOG1 PUSH1 0x40 MLOAD DUP1 PUSH1 0x40 ADD PUSH1 0x40 MSTORE DUP1 PUSH1 0xB DUP2 MSTORE PUSH1 0x20 ADD PUSH32 0x486173207065726469646F000000000000000000000000000000000000000000 DUP2 MSTORE POP SWAP5 POP POP POP POP POP PUSH2 0x7C5 JUMP JUMPDEST DUP1 DUP1 PUSH2 0x7B8 SWAP1 PUSH2 0x17CF JUMP JUMPDEST SWAP2 POP POP PUSH2 0x65D JUMP JUMPDEST POP POP POP POP JUMPDEST SWAP2 SWAP1 POP JUMP JUMPDEST PUSH2 0x7D2 PUSH2 0xDC2 JUMP JUMPDEST PUSH20 0xFFFFFFFFFFFFFFFFFFFFFFFFFFFFFFFFFFFFFFFF AND PUSH2 0x7F0 PUSH2 0x885 JUMP JUMPDEST PUSH20 0xFFFFFFFFFFFFFFFFFFFFFFFFFFFFFFFFFFFFFFFF AND EQ PUSH2 0x846 JUMPI PUSH1 0x40 MLOAD PUSH32 0x8C379A000000000000000000000000000000000000000000000000000000000 DUP2 MSTORE PUSH1 0x4 ADD PUSH2 0x83D SWAP1 PUSH2 0x14D1 JUMP JUMPDEST PUSH1 0x40 MLOAD DUP1 SWAP2 SUB SWAP1 REVERT JUMPDEST PUSH2 0x850 PUSH1 0x0 PUSH2 0xDCA JUMP JUMPDEST JUMP JUMPDEST PUSH1 0x5 PUSH1 0x20 MSTORE DUP1 PUSH1 0x0 MSTORE PUSH1 0x40 PUSH1 0x0 KECCAK256 PUSH1 0x0 SWAP2 POP SLOAD SWAP1 PUSH2 0x100 EXP SWAP1 DIV PUSH20 0xFFFFFFFFFFFFFFFFFFFFFFFFFFFFFFFFFFFFFFFF AND DUP2 JUMP JUMPDEST PUSH1 0x0 DUP1 PUSH1 0x0 SWAP1 SLOAD SWAP1 PUSH2 0x100 EXP SWAP1 DIV PUSH20 0xFFFFFFFFFFFFFFFFFFFFFFFFFFFFFFFFFFFFFFFF AND SWAP1 POP SWAP1 JUMP JUMPDEST PUSH1 0x4 DUP2 DUP2 SLOAD DUP2 LT PUSH2 0x8BE JUMPI PUSH1 0x0 DUP1 REVERT JUMPDEST SWAP1 PUSH1 0x0 MSTORE PUSH1 0x20 PUSH1 0x0 KECCAK256 SWAP1 PUSH1 0x8 MUL ADD PUSH1 0x0 SWAP2 POP SWAP1 POP DUP1 PUSH1 0x0 ADD PUSH1 0x0 SWAP1 SLOAD SWAP1 PUSH2 0x100 EXP SWAP1 DIV PUSH20 0xFFFFFFFFFFFFFFFFFFFFFFFFFFFFFFFFFFFFFFFF AND SWAP1 DUP1 PUSH1 0x1 ADD DUP1 SLOAD PUSH2 0x907 SWAP1 PUSH2 0x176C JUMP JUMPDEST DUP1 PUSH1 0x1F ADD PUSH1 0x20 DUP1 SWAP2 DIV MUL PUSH1 0x20 ADD PUSH1 0x40 MLOAD SWAP1 DUP2 ADD PUSH1 0x40 MSTORE DUP1 SWAP3 SWAP2 SWAP1 DUP2 DUP2 MSTORE PUSH1 0x20 ADD DUP3 DUP1 SLOAD PUSH2 0x933 SWAP1 PUSH2 0x176C JUMP JUMPDEST DUP1 ISZERO PUSH2 0x980 JUMPI DUP1 PUSH1 0x1F LT PUSH2 0x955 JUMPI PUSH2 0x100 DUP1 DUP4 SLOAD DIV MUL DUP4 MSTORE SWAP2 PUSH1 0x20 ADD SWAP2 PUSH2 0x980 JUMP JUMPDEST DUP3 ADD SWAP2 SWAP1 PUSH1 0x0 MSTORE PUSH1 0x20 PUSH1 0x0 KECCAK256 SWAP1 JUMPDEST DUP2 SLOAD DUP2 MSTORE SWAP1 PUSH1 0x1 ADD SWAP1 PUSH1 0x20 ADD DUP1 DUP4 GT PUSH2 0x963 JUMPI DUP3 SWAP1 SUB PUSH1 0x1F AND DUP3 ADD SWAP2 JUMPDEST POP POP POP POP POP SWAP1 DUP1 PUSH1 0x2 ADD DUP1 SLOAD PUSH2 0x995 SWAP1 PUSH2 0x176C JUMP JUMPDEST DUP1 PUSH1 0x1F ADD PUSH1 0x20 DUP1 SWAP2 DIV MUL PUSH1 0x20 ADD PUSH1 0x40 MLOAD SWAP1 DUP2 ADD PUSH1 0x40 MSTORE DUP1 SWAP3 SWAP2 SWAP1 DUP2 DUP2 MSTORE PUSH1 0x20 ADD DUP3 DUP1 SLOAD PUSH2 0x9C1 SWAP1 PUSH2 0x176C JUMP JUMPDEST DUP1 ISZERO PUSH2 0xA0E JUMPI DUP1 PUSH1 0x1F LT PUSH2 0x9E3 JUMPI PUSH2 0x100 DUP1 DUP4 SLOAD DIV MUL DUP4 MSTORE SWAP2 PUSH1 0x20 ADD SWAP2 PUSH2 0xA0E JUMP JUMPDEST DUP3 ADD SWAP2 SWAP1 PUSH1 0x0 MSTORE PUSH1 0x20 PUSH1 0x0 KECCAK256 SWAP1 JUMPDEST DUP2 SLOAD DUP2 MSTORE SWAP1 PUSH1 0x1 ADD SWAP1 PUSH1 0x20 ADD DUP1 DUP4 GT PUSH2 0x9F1 JUMPI DUP3 SWAP1 SUB PUSH1 0x1F AND DUP3 ADD SWAP2 JUMPDEST POP POP POP POP POP SWAP1 DUP1 PUSH1 0x3 ADD DUP1 SLOAD PUSH2 0xA23 SWAP1 PUSH2 0x176C JUMP JUMPDEST DUP1 PUSH1 0x1F ADD PUSH1 0x20 DUP1 SWAP2 DIV MUL PUSH1 0x20 ADD PUSH1 0x40 MLOAD SWAP1 DUP2 ADD PUSH1 0x40 MSTORE DUP1 SWAP3 SWAP2 SWAP1 DUP2 DUP2 MSTORE PUSH1 0x20 ADD DUP3 DUP1 SLOAD PUSH2 0xA4F SWAP1 PUSH2 0x176C JUMP JUMPDEST DUP1 ISZERO PUSH2 0xA9C JUMPI DUP1 PUSH1 0x1F LT PUSH2 0xA71 JUMPI PUSH2 0x100 DUP1 DUP4 SLOAD DIV MUL DUP4 MSTORE SWAP2 PUSH1 0x20 ADD SWAP2 PUSH2 0xA9C JUMP JUMPDEST DUP3 ADD SWAP2 SWAP1 PUSH1 0x0 MSTORE PUSH1 0x20 PUSH1 0x0 KECCAK256 SWAP1 JUMPDEST DUP2 SLOAD DUP2 MSTORE SWAP1 PUSH1 0x1 ADD SWAP1 PUSH1 0x20 ADD DUP1 DUP4 GT PUSH2 0xA7F JUMPI DUP3 SWAP1 SUB PUSH1 0x1F AND DUP3 ADD SWAP2 JUMPDEST POP POP POP POP POP SWAP1 DUP1 PUSH1 0x4 ADD SLOAD SWAP1 DUP1 PUSH1 0x5 ADD SLOAD SWAP1 DUP1 PUSH1 0x6 ADD SLOAD SWAP1 DUP1 PUSH1 0x7 ADD PUSH1 0x0 SWAP1 SLOAD SWAP1 PUSH2 0x100 EXP SWAP1 DIV PUSH4 0xFFFFFFFF AND SWAP1 POP DUP9 JUMP JUMPDEST PUSH1 0x60 DUP1 PUSH1 0x0 JUMPDEST PUSH1 0x4 DUP1 SLOAD SWAP1 POP DUP2 LT ISZERO PUSH2 0xBDD JUMPI DUP4 PUSH20 0xFFFFFFFFFFFFFFFFFFFFFFFFFFFFFFFFFFFFFFFF AND PUSH1 0x5 PUSH1 0x0 DUP4 DUP2 MSTORE PUSH1 0x20 ADD SWAP1 DUP2 MSTORE PUSH1 0x20 ADD PUSH1 0x0 KECCAK256 PUSH1 0x0 SWAP1 SLOAD SWAP1 PUSH2 0x100 EXP SWAP1 DIV PUSH20 0xFFFFFFFFFFFFFFFFFFFFFFFFFFFFFFFFFFFFFFFF AND PUSH20 0xFFFFFFFFFFFFFFFFFFFFFFFFFFFFFFFFFFFFFFFF AND EQ ISZERO PUSH2 0xBCA JUMPI PUSH32 0x96408510F58A52B0CFE536E046B25664FA36D8122620EC608C1767B45AA4F03C PUSH1 0x4 DUP3 DUP2 SLOAD DUP2 LT PUSH2 0xB7D JUMPI PUSH2 0xB7C PUSH2 0x18E0 JUMP JUMPDEST JUMPDEST SWAP1 PUSH1 0x0 MSTORE PUSH1 0x20 PUSH1 0x0 KECCAK256 SWAP1 PUSH1 0x8 MUL ADD PUSH1 0x2 ADD PUSH1 0x4 DUP4 DUP2 SLOAD DUP2 LT PUSH2 0xBA2 JUMPI PUSH2 0xBA1 PUSH2 0x18E0 JUMP JUMPDEST JUMPDEST SWAP1 PUSH1 0x0 MSTORE PUSH1 0x20 PUSH1 0x0 KECCAK256 SWAP1 PUSH1 0x8 MUL ADD PUSH1 0x1 ADD PUSH1 0x40 MLOAD PUSH2 0xBC1 SWAP3 SWAP2 SWAP1 PUSH2 0x142C JUMP JUMPDEST PUSH1 0x40 MLOAD DUP1 SWAP2 SUB SWAP1 LOG1 JUMPDEST DUP1 DUP1 PUSH2 0xBD5 SWAP1 PUSH2 0x17CF JUMP JUMPDEST SWAP2 POP POP PUSH2 0xAD4 JUMP JUMPDEST POP POP SWAP2 SWAP1 POP JUMP JUMPDEST PUSH1 0x0 DUP1 PUSH1 0x2 SWAP1 POP PUSH1 0x0 DUP2 TIMESTAMP DUP4 PUSH1 0x1 SLOAD PUSH1 0x40 MLOAD PUSH1 0x20 ADD PUSH2 0xC05 SWAP4 SWAP3 SWAP2 SWAP1 PUSH2 0x12FD JUMP JUMPDEST PUSH1 0x40 MLOAD PUSH1 0x20 DUP2 DUP4 SUB SUB DUP2 MSTORE SWAP1 PUSH1 0x40 MSTORE DUP1 MLOAD SWAP1 PUSH1 0x20 ADD KECCAK256 PUSH1 0x0 SHR PUSH2 0xC28 SWAP2 SWAP1 PUSH2 0x1822 JUMP JUMPDEST SWAP1 POP DUP1 SWAP3 POP POP POP SWAP1 JUMP JUMPDEST PUSH2 0xC3A PUSH2 0xDC2 JUMP JUMPDEST PUSH20 0xFFFFFFFFFFFFFFFFFFFFFFFFFFFFFFFFFFFFFFFF AND PUSH2 0xC58 PUSH2 0x885 JUMP JUMPDEST PUSH20 0xFFFFFFFFFFFFFFFFFFFFFFFFFFFFFFFFFFFFFFFF AND EQ PUSH2 0xCAE JUMPI PUSH1 0x40 MLOAD PUSH32 0x8C379A000000000000000000000000000000000000000000000000000000000 DUP2 MSTORE PUSH1 0x4 ADD PUSH2 0xCA5 SWAP1 PUSH2 0x14D1 JUMP JUMPDEST PUSH1 0x40 MLOAD DUP1 SWAP2 SUB SWAP1 REVERT JUMPDEST PUSH1 0x0 PUSH20 0xFFFFFFFFFFFFFFFFFFFFFFFFFFFFFFFFFFFFFFFF AND DUP2 PUSH20 0xFFFFFFFFFFFFFFFFFFFFFFFFFFFFFFFFFFFFFFFF AND EQ ISZERO PUSH2 0xD1E JUMPI PUSH1 0x40 MLOAD PUSH32 0x8C379A000000000000000000000000000000000000000000000000000000000 DUP2 MSTORE PUSH1 0x4 ADD PUSH2 0xD15 SWAP1 PUSH2 0x1483 JUMP JUMPDEST PUSH1 0x40 MLOAD DUP1 SWAP2 SUB SWAP1 REVERT JUMPDEST PUSH2 0xD27 DUP2 PUSH2 0xDCA JUMP JUMPDEST POP JUMP JUMPDEST CALLER PUSH20 0xFFFFFFFFFFFFFFFFFFFFFFFFFFFFFFFFFFFFFFFF AND PUSH2 0x8FC PUSH1 0x2 SELFBALANCE PUSH2 0xD51 SWAP2 SWAP1 PUSH2 0x1650 JUMP JUMPDEST SWAP1 DUP2 ISZERO MUL SWAP1 PUSH1 0x40 MLOAD PUSH1 0x0 PUSH1 0x40 MLOAD DUP1 DUP4 SUB DUP2 DUP6 DUP9 DUP9 CALL SWAP4 POP POP POP POP ISZERO DUP1 ISZERO PUSH2 0xD7C JUMPI RETURNDATASIZE PUSH1 0x0 DUP1 RETURNDATACOPY RETURNDATASIZE PUSH1 0x0 REVERT JUMPDEST POP PUSH32 0xA28482EEC3136A2461C6C30C08F71BA279C6C51A2D9C7BEA4E50D6D2632F3896 PUSH1 0x2 SELFBALANCE PUSH2 0xDAB SWAP2 SWAP1 PUSH2 0x1650 JUMP JUMPDEST PUSH1 0x40 MLOAD PUSH2 0xDB8 SWAP2 SWAP1 PUSH2 0x14A3 JUMP JUMPDEST PUSH1 0x40 MLOAD DUP1 SWAP2 SUB SWAP1 LOG1 JUMP JUMPDEST PUSH1 0x0 CALLER SWAP1 POP SWAP1 JUMP JUMPDEST PUSH1 0x0 DUP1 PUSH1 0x0 SWAP1 SLOAD SWAP1 PUSH2 0x100 EXP SWAP1 DIV PUSH20 0xFFFFFFFFFFFFFFFFFFFFFFFFFFFFFFFFFFFFFFFF AND SWAP1 POP DUP2 PUSH1 0x0 DUP1 PUSH2 0x100 EXP DUP2 SLOAD DUP2 PUSH20 0xFFFFFFFFFFFFFFFFFFFFFFFFFFFFFFFFFFFFFFFF MUL NOT AND SWAP1 DUP4 PUSH20 0xFFFFFFFFFFFFFFFFFFFFFFFFFFFFFFFFFFFFFFFF AND MUL OR SWAP1 SSTORE POP DUP2 PUSH20 0xFFFFFFFFFFFFFFFFFFFFFFFFFFFFFFFFFFFFFFFF AND DUP2 PUSH20 0xFFFFFFFFFFFFFFFFFFFFFFFFFFFFFFFFFFFFFFFF AND PUSH32 0x8BE0079C531659141344CD1FD0A4F28419497F9722A3DAAFE3B4186F6B6457E0 PUSH1 0x40 MLOAD PUSH1 0x40 MLOAD DUP1 SWAP2 SUB SWAP1 LOG3 POP POP JUMP JUMPDEST DUP3 DUP1 SLOAD PUSH2 0xE9A SWAP1 PUSH2 0x176C JUMP JUMPDEST SWAP1 PUSH1 0x0 MSTORE PUSH1 0x20 PUSH1 0x0 KECCAK256 SWAP1 PUSH1 0x1F ADD PUSH1 0x20 SWAP1 DIV DUP2 ADD SWAP3 DUP3 PUSH2 0xEBC JUMPI PUSH1 0x0 DUP6 SSTORE PUSH2 0xF03 JUMP JUMPDEST DUP3 PUSH1 0x1F LT PUSH2 0xED5 JUMPI DUP1 MLOAD PUSH1 0xFF NOT AND DUP4 DUP1 ADD OR DUP6 SSTORE PUSH2 0xF03 JUMP JUMPDEST DUP3 DUP1 ADD PUSH1 0x1 ADD DUP6 SSTORE DUP3 ISZERO PUSH2 0xF03 JUMPI SWAP2 DUP3 ADD JUMPDEST DUP3 DUP2 GT ISZERO PUSH2 0xF02 JUMPI DUP3 MLOAD DUP3 SSTORE SWAP2 PUSH1 0x20 ADD SWAP2 SWAP1 PUSH1 0x1 ADD SWAP1 PUSH2 0xEE7 JUMP JUMPDEST JUMPDEST POP SWAP1 POP PUSH2 0xF10 SWAP2 SWAP1 PUSH2 0xF14 JUMP JUMPDEST POP SWAP1 JUMP JUMPDEST JUMPDEST DUP1 DUP3 GT ISZERO PUSH2 0xF2D JUMPI PUSH1 0x0 DUP2 PUSH1 0x0 SWAP1 SSTORE POP PUSH1 0x1 ADD PUSH2 0xF15 JUMP JUMPDEST POP SWAP1 JUMP JUMPDEST PUSH1 0x0 PUSH2 0xF44 PUSH2 0xF3F DUP5 PUSH2 0x155F JUMP JUMPDEST PUSH2 0x153A JUMP JUMPDEST SWAP1 POP DUP3 DUP2 MSTORE PUSH1 0x20 DUP2 ADD DUP5 DUP5 DUP5 ADD GT ISZERO PUSH2 0xF60 JUMPI PUSH2 0xF5F PUSH2 0x1943 JUMP JUMPDEST JUMPDEST PUSH2 0xF6B DUP5 DUP3 DUP6 PUSH2 0x172A JUMP JUMPDEST POP SWAP4 SWAP3 POP POP POP JUMP JUMPDEST PUSH1 0x0 DUP2 CALLDATALOAD SWAP1 POP PUSH2 0xF82 DUP2 PUSH2 0x1A7C JUMP JUMPDEST SWAP3 SWAP2 POP POP JUMP JUMPDEST PUSH1 0x0 DUP3 PUSH1 0x1F DUP4 ADD SLT PUSH2 0xF9D JUMPI PUSH2 0xF9C PUSH2 0x193E JUMP JUMPDEST JUMPDEST DUP2 CALLDATALOAD PUSH2 0xFAD DUP5 DUP3 PUSH1 0x20 DUP7 ADD PUSH2 0xF31 JUMP JUMPDEST SWAP2 POP POP SWAP3 SWAP2 POP POP JUMP JUMPDEST PUSH1 0x0 DUP2 CALLDATALOAD SWAP1 POP PUSH2 0xFC5 DUP2 PUSH2 0x1A93 JUMP JUMPDEST SWAP3 SWAP2 POP POP JUMP JUMPDEST PUSH1 0x0 PUSH1 0x20 DUP3 DUP5 SUB SLT ISZERO PUSH2 0xFE1 JUMPI PUSH2 0xFE0 PUSH2 0x194D JUMP JUMPDEST JUMPDEST PUSH1 0x0 PUSH2 0xFEF DUP5 DUP3 DUP6 ADD PUSH2 0xF73 JUMP JUMPDEST SWAP2 POP POP SWAP3 SWAP2 POP POP JUMP JUMPDEST PUSH1 0x0 DUP1 PUSH1 0x0 PUSH1 0x60 DUP5 DUP7 SUB SLT ISZERO PUSH2 0x1011 JUMPI PUSH2 0x1010 PUSH2 0x194D JUMP JUMPDEST JUMPDEST PUSH1 0x0 DUP5 ADD CALLDATALOAD PUSH8 0xFFFFFFFFFFFFFFFF DUP2 GT ISZERO PUSH2 0x102F JUMPI PUSH2 0x102E PUSH2 0x1948 JUMP JUMPDEST JUMPDEST PUSH2 0x103B DUP7 DUP3 DUP8 ADD PUSH2 0xF88 JUMP JUMPDEST SWAP4 POP POP PUSH1 0x20 DUP5 ADD CALLDATALOAD PUSH8 0xFFFFFFFFFFFFFFFF DUP2 GT ISZERO PUSH2 0x105C JUMPI PUSH2 0x105B PUSH2 0x1948 JUMP JUMPDEST JUMPDEST PUSH2 0x1068 DUP7 DUP3 DUP8 ADD PUSH2 0xF88 JUMP JUMPDEST SWAP3 POP POP PUSH1 0x40 DUP5 ADD CALLDATALOAD PUSH8 0xFFFFFFFFFFFFFFFF DUP2 GT ISZERO PUSH2 0x1089 JUMPI PUSH2 0x1088 PUSH2 0x1948 JUMP JUMPDEST JUMPDEST PUSH2 0x1095 DUP7 DUP3 DUP8 ADD PUSH2 0xF88 JUMP JUMPDEST SWAP2 POP POP SWAP3 POP SWAP3 POP SWAP3 JUMP JUMPDEST PUSH1 0x0 PUSH1 0x20 DUP3 DUP5 SUB SLT ISZERO PUSH2 0x10B5 JUMPI PUSH2 0x10B4 PUSH2 0x194D JUMP JUMPDEST JUMPDEST PUSH1 0x0 PUSH2 0x10C3 DUP5 DUP3 DUP6 ADD PUSH2 0xFB6 JUMP JUMPDEST SWAP2 POP POP SWAP3 SWAP2 POP POP JUMP JUMPDEST PUSH1 0x0 PUSH2 0x10D8 DUP4 DUP4 PUSH2 0x12B9 JUMP JUMPDEST PUSH1 0x20 DUP4 ADD SWAP1 POP SWAP3 SWAP2 POP POP JUMP JUMPDEST PUSH2 0x10ED DUP2 PUSH2 0x16DE JUMP JUMPDEST DUP3 MSTORE POP POP JUMP JUMPDEST PUSH1 0x0 PUSH2 0x10FE DUP3 PUSH2 0x15B5 JUMP JUMPDEST PUSH2 0x1108 DUP2 DUP6 PUSH2 0x15D8 JUMP JUMPDEST SWAP4 POP PUSH2 0x1113 DUP4 PUSH2 0x1590 JUMP JUMPDEST DUP1 PUSH1 0x0 JUMPDEST DUP4 DUP2 LT ISZERO PUSH2 0x1144 JUMPI DUP2 MLOAD PUSH2 0x112B DUP9 DUP3 PUSH2 0x10CC JUMP JUMPDEST SWAP8 POP PUSH2 0x1136 DUP4 PUSH2 0x15CB JUMP JUMPDEST SWAP3 POP POP PUSH1 0x1 DUP2 ADD SWAP1 POP PUSH2 0x1117 JUMP JUMPDEST POP DUP6 SWAP4 POP POP POP POP SWAP3 SWAP2 POP POP JUMP JUMPDEST PUSH1 0x0 PUSH2 0x115C DUP3 PUSH2 0x15C0 JUMP JUMPDEST PUSH2 0x1166 DUP2 DUP6 PUSH2 0x15E9 JUMP JUMPDEST SWAP4 POP PUSH2 0x1176 DUP2 DUP6 PUSH1 0x20 DUP7 ADD PUSH2 0x1739 JUMP JUMPDEST PUSH2 0x117F DUP2 PUSH2 0x1952 JUMP JUMPDEST DUP5 ADD SWAP2 POP POP SWAP3 SWAP2 POP POP JUMP JUMPDEST PUSH1 0x0 DUP2 SLOAD PUSH2 0x1197 DUP2 PUSH2 0x176C JUMP JUMPDEST PUSH2 0x11A1 DUP2 DUP7 PUSH2 0x15E9 JUMP JUMPDEST SWAP5 POP PUSH1 0x1 DUP3 AND PUSH1 0x0 DUP2 EQ PUSH2 0x11BC JUMPI PUSH1 0x1 DUP2 EQ PUSH2 0x11CE JUMPI PUSH2 0x1201 JUMP JUMPDEST PUSH1 0xFF NOT DUP4 AND DUP7 MSTORE PUSH1 0x20 DUP7 ADD SWAP4 POP PUSH2 0x1201 JUMP JUMPDEST PUSH2 0x11D7 DUP6 PUSH2 0x15A0 JUMP JUMPDEST PUSH1 0x0 JUMPDEST DUP4 DUP2 LT ISZERO PUSH2 0x11F9 JUMPI DUP2 SLOAD DUP2 DUP10 ADD MSTORE PUSH1 0x1 DUP3 ADD SWAP2 POP PUSH1 0x20 DUP2 ADD SWAP1 POP PUSH2 0x11DA JUMP JUMPDEST DUP1 DUP9 ADD SWAP6 POP POP POP JUMPDEST POP POP POP SWAP3 SWAP2 POP POP JUMP JUMPDEST PUSH1 0x0 PUSH2 0x1217 PUSH1 0x28 DUP4 PUSH2 0x15E9 JUMP JUMPDEST SWAP2 POP PUSH2 0x1222 DUP3 PUSH2 0x1963 JUMP JUMPDEST PUSH1 0x40 DUP3 ADD SWAP1 POP SWAP2 SWAP1 POP JUMP JUMPDEST PUSH1 0x0 PUSH2 0x123A PUSH1 0x26 DUP4 PUSH2 0x15E9 JUMP JUMPDEST SWAP2 POP PUSH2 0x1245 DUP3 PUSH2 0x19B2 JUMP JUMPDEST PUSH1 0x40 DUP3 ADD SWAP1 POP SWAP2 SWAP1 POP JUMP JUMPDEST PUSH1 0x0 PUSH2 0x125D PUSH1 0xC DUP4 PUSH2 0x15E9 JUMP JUMPDEST SWAP2 POP PUSH2 0x1268 DUP3 PUSH2 0x1A01 JUMP JUMPDEST PUSH1 0x20 DUP3 ADD SWAP1 POP SWAP2 SWAP1 POP JUMP JUMPDEST PUSH1 0x0 PUSH2 0x1280 PUSH1 0x20 DUP4 PUSH2 0x15E9 JUMP JUMPDEST SWAP2 POP PUSH2 0x128B DUP3 PUSH2 0x1A2A JUMP JUMPDEST PUSH1 0x20 DUP3 ADD SWAP1 POP SWAP2 SWAP1 POP JUMP JUMPDEST PUSH1 0x0 PUSH2 0x12A3 PUSH1 0x15 DUP4 PUSH2 0x15E9 JUMP JUMPDEST SWAP2 POP PUSH2 0x12AE DUP3 PUSH2 0x1A53 JUMP JUMPDEST PUSH1 0x20 DUP3 ADD SWAP1 POP SWAP2 SWAP1 POP JUMP JUMPDEST PUSH2 0x12C2 DUP2 PUSH2 0x1710 JUMP JUMPDEST DUP3 MSTORE POP POP JUMP JUMPDEST PUSH2 0x12D1 DUP2 PUSH2 0x1710 JUMP JUMPDEST DUP3 MSTORE POP POP JUMP JUMPDEST PUSH2 0x12E8 PUSH2 0x12E3 DUP3 PUSH2 0x1710 JUMP JUMPDEST PUSH2 0x1818 JUMP JUMPDEST DUP3 MSTORE POP POP JUMP JUMPDEST PUSH2 0x12F7 DUP2 PUSH2 0x171A JUMP JUMPDEST DUP3 MSTORE POP POP JUMP JUMPDEST PUSH1 0x0 PUSH2 0x1309 DUP3 DUP7 PUSH2 0x12D7 JUMP JUMPDEST PUSH1 0x20 DUP3 ADD SWAP2 POP PUSH2 0x1319 DUP3 DUP6 PUSH2 0x12D7 JUMP JUMPDEST PUSH1 0x20 DUP3 ADD SWAP2 POP PUSH2 0x1329 DUP3 DUP5 PUSH2 0x12D7 JUMP JUMPDEST PUSH1 0x20 DUP3 ADD SWAP2 POP DUP2 SWAP1 POP SWAP5 SWAP4 POP POP POP POP JUMP JUMPDEST PUSH1 0x0 PUSH1 0x20 DUP3 ADD SWAP1 POP PUSH2 0x134F PUSH1 0x0 DUP4 ADD DUP5 PUSH2 0x10E4 JUMP JUMPDEST SWAP3 SWAP2 POP POP JUMP JUMPDEST PUSH1 0x0 PUSH2 0x100 DUP3 ADD SWAP1 POP PUSH2 0x136B PUSH1 0x0 DUP4 ADD DUP12 PUSH2 0x10E4 JUMP JUMPDEST DUP2 DUP2 SUB PUSH1 0x20 DUP4 ADD MSTORE PUSH2 0x137D DUP2 DUP11 PUSH2 0x1151 JUMP JUMPDEST SWAP1 POP DUP2 DUP2 SUB PUSH1 0x40 DUP4 ADD MSTORE PUSH2 0x1391 DUP2 DUP10 PUSH2 0x1151 JUMP JUMPDEST SWAP1 POP DUP2 DUP2 SUB PUSH1 0x60 DUP4 ADD MSTORE PUSH2 0x13A5 DUP2 DUP9 PUSH2 0x1151 JUMP JUMPDEST SWAP1 POP PUSH2 0x13B4 PUSH1 0x80 DUP4 ADD DUP8 PUSH2 0x12C8 JUMP JUMPDEST PUSH2 0x13C1 PUSH1 0xA0 DUP4 ADD DUP7 PUSH2 0x12C8 JUMP JUMPDEST PUSH2 0x13CE PUSH1 0xC0 DUP4 ADD DUP6 PUSH2 0x12C8 JUMP JUMPDEST PUSH2 0x13DB PUSH1 0xE0 DUP4 ADD DUP5 PUSH2 0x12EE JUMP JUMPDEST SWAP10 SWAP9 POP POP POP POP POP POP POP POP POP JUMP JUMPDEST PUSH1 0x0 PUSH1 0x20 DUP3 ADD SWAP1 POP DUP2 DUP2 SUB PUSH1 0x0 DUP4 ADD MSTORE PUSH2 0x1402 DUP2 DUP5 PUSH2 0x10F3 JUMP JUMPDEST SWAP1 POP SWAP3 SWAP2 POP POP JUMP JUMPDEST PUSH1 0x0 PUSH1 0x20 DUP3 ADD SWAP1 POP DUP2 DUP2 SUB PUSH1 0x0 DUP4 ADD MSTORE PUSH2 0x1424 DUP2 DUP5 PUSH2 0x1151 JUMP JUMPDEST SWAP1 POP SWAP3 SWAP2 POP POP JUMP JUMPDEST PUSH1 0x0 PUSH1 0x40 DUP3 ADD SWAP1 POP DUP2 DUP2 SUB PUSH1 0x0 DUP4 ADD MSTORE PUSH2 0x1446 DUP2 DUP6 PUSH2 0x118A JUMP JUMPDEST SWAP1 POP DUP2 DUP2 SUB PUSH1 0x20 DUP4 ADD MSTORE PUSH2 0x145A DUP2 DUP5 PUSH2 0x118A JUMP JUMPDEST SWAP1 POP SWAP4 SWAP3 POP POP POP JUMP JUMPDEST PUSH1 0x0 PUSH1 0x20 DUP3 ADD SWAP1 POP DUP2 DUP2 SUB PUSH1 0x0 DUP4 ADD MSTORE PUSH2 0x147C DUP2 PUSH2 0x120A JUMP JUMPDEST SWAP1 POP SWAP2 SWAP1 POP JUMP JUMPDEST PUSH1 0x0 PUSH1 0x20 DUP3 ADD SWAP1 POP DUP2 DUP2 SUB PUSH1 0x0 DUP4 ADD MSTORE PUSH2 0x149C DUP2 PUSH2 0x122D JUMP JUMPDEST SWAP1 POP SWAP2 SWAP1 POP JUMP JUMPDEST PUSH1 0x0 PUSH1 0x40 DUP3 ADD SWAP1 POP DUP2 DUP2 SUB PUSH1 0x0 DUP4 ADD MSTORE PUSH2 0x14BC DUP2 PUSH2 0x1250 JUMP JUMPDEST SWAP1 POP PUSH2 0x14CB PUSH1 0x20 DUP4 ADD DUP5 PUSH2 0x12C8 JUMP JUMPDEST SWAP3 SWAP2 POP POP JUMP JUMPDEST PUSH1 0x0 PUSH1 0x20 DUP3 ADD SWAP1 POP DUP2 DUP2 SUB PUSH1 0x0 DUP4 ADD MSTORE PUSH2 0x14EA DUP2 PUSH2 0x1273 JUMP JUMPDEST SWAP1 POP SWAP2 SWAP1 POP JUMP JUMPDEST PUSH1 0x0 PUSH1 0x40 DUP3 ADD SWAP1 POP DUP2 DUP2 SUB PUSH1 0x0 DUP4 ADD MSTORE PUSH2 0x150A DUP2 PUSH2 0x1296 JUMP JUMPDEST SWAP1 POP PUSH2 0x1519 PUSH1 0x20 DUP4 ADD DUP5 PUSH2 0x12C8 JUMP JUMPDEST SWAP3 SWAP2 POP POP JUMP JUMPDEST PUSH1 0x0 PUSH1 0x20 DUP3 ADD SWAP1 POP PUSH2 0x1534 PUSH1 0x0 DUP4 ADD DUP5 PUSH2 0x12C8 JUMP JUMPDEST SWAP3 SWAP2 POP POP JUMP JUMPDEST PUSH1 0x0 PUSH2 0x1544 PUSH2 0x1555 JUMP JUMPDEST SWAP1 POP PUSH2 0x1550 DUP3 DUP3 PUSH2 0x179E JUMP JUMPDEST SWAP2 SWAP1 POP JUMP JUMPDEST PUSH1 0x0 PUSH1 0x40 MLOAD SWAP1 POP SWAP1 JUMP JUMPDEST PUSH1 0x0 PUSH8 0xFFFFFFFFFFFFFFFF DUP3 GT ISZERO PUSH2 0x157A JUMPI PUSH2 0x1579 PUSH2 0x190F JUMP JUMPDEST JUMPDEST PUSH2 0x1583 DUP3 PUSH2 0x1952 JUMP JUMPDEST SWAP1 POP PUSH1 0x20 DUP2 ADD SWAP1 POP SWAP2 SWAP1 POP JUMP JUMPDEST PUSH1 0x0 DUP2 SWAP1 POP PUSH1 0x20 DUP3 ADD SWAP1 POP SWAP2 SWAP1 POP JUMP JUMPDEST PUSH1 0x0 DUP2 SWAP1 POP DUP2 PUSH1 0x0 MSTORE PUSH1 0x20 PUSH1 0x0 KECCAK256 SWAP1 POP SWAP2 SWAP1 POP JUMP JUMPDEST PUSH1 0x0 DUP2 MLOAD SWAP1 POP SWAP2 SWAP1 POP JUMP JUMPDEST PUSH1 0x0 DUP2 MLOAD SWAP1 POP SWAP2 SWAP1 POP JUMP JUMPDEST PUSH1 0x0 PUSH1 0x20 DUP3 ADD SWAP1 POP SWAP2 SWAP1 POP JUMP JUMPDEST PUSH1 0x0 DUP3 DUP3 MSTORE PUSH1 0x20 DUP3 ADD SWAP1 POP SWAP3 SWAP2 POP POP JUMP JUMPDEST PUSH1 0x0 DUP3 DUP3 MSTORE PUSH1 0x20 DUP3 ADD SWAP1 POP SWAP3 SWAP2 POP POP JUMP JUMPDEST PUSH1 0x0 PUSH2 0x1605 DUP3 PUSH2 0x1710 JUMP JUMPDEST SWAP2 POP PUSH2 0x1610 DUP4 PUSH2 0x1710 JUMP JUMPDEST SWAP3 POP DUP3 PUSH32 0xFFFFFFFFFFFFFFFFFFFFFFFFFFFFFFFFFFFFFFFFFFFFFFFFFFFFFFFFFFFFFFFF SUB DUP3 GT ISZERO PUSH2 0x1645 JUMPI PUSH2 0x1644 PUSH2 0x1853 JUMP JUMPDEST JUMPDEST DUP3 DUP3 ADD SWAP1 POP SWAP3 SWAP2 POP POP JUMP JUMPDEST PUSH1 0x0 PUSH2 0x165B DUP3 PUSH2 0x1710 JUMP JUMPDEST SWAP2 POP PUSH2 0x1666 DUP4 PUSH2 0x1710 JUMP JUMPDEST SWAP3 POP DUP2 PUSH32 0xFFFFFFFFFFFFFFFFFFFFFFFFFFFFFFFFFFFFFFFFFFFFFFFFFFFFFFFFFFFFFFFF DIV DUP4 GT DUP3 ISZERO ISZERO AND ISZERO PUSH2 0x169F JUMPI PUSH2 0x169E PUSH2 0x1853 JUMP JUMPDEST JUMPDEST DUP3 DUP3 MUL SWAP1 POP SWAP3 SWAP2 POP POP JUMP JUMPDEST PUSH1 0x0 PUSH2 0x16B5 DUP3 PUSH2 0x1710 JUMP JUMPDEST SWAP2 POP PUSH2 0x16C0 DUP4 PUSH2 0x1710 JUMP JUMPDEST SWAP3 POP DUP3 DUP3 LT ISZERO PUSH2 0x16D3 JUMPI PUSH2 0x16D2 PUSH2 0x1853 JUMP JUMPDEST JUMPDEST DUP3 DUP3 SUB SWAP1 POP SWAP3 SWAP2 POP POP JUMP JUMPDEST PUSH1 0x0 PUSH2 0x16E9 DUP3 PUSH2 0x16F0 JUMP JUMPDEST SWAP1 POP SWAP2 SWAP1 POP JUMP JUMPDEST PUSH1 0x0 PUSH20 0xFFFFFFFFFFFFFFFFFFFFFFFFFFFFFFFFFFFFFFFF DUP3 AND SWAP1 POP SWAP2 SWAP1 POP JUMP JUMPDEST PUSH1 0x0 DUP2 SWAP1 POP SWAP2 SWAP1 POP JUMP JUMPDEST PUSH1 0x0 PUSH4 0xFFFFFFFF DUP3 AND SWAP1 POP SWAP2 SWAP1 POP JUMP JUMPDEST DUP3 DUP2 DUP4 CALLDATACOPY PUSH1 0x0 DUP4 DUP4 ADD MSTORE POP POP POP JUMP JUMPDEST PUSH1 0x0 JUMPDEST DUP4 DUP2 LT ISZERO PUSH2 0x1757 JUMPI DUP1 DUP3 ADD MLOAD DUP2 DUP5 ADD MSTORE PUSH1 0x20 DUP2 ADD SWAP1 POP PUSH2 0x173C JUMP JUMPDEST DUP4 DUP2 GT ISZERO PUSH2 0x1766 JUMPI PUSH1 0x0 DUP5 DUP5 ADD MSTORE JUMPDEST POP POP POP POP JUMP JUMPDEST PUSH1 0x0 PUSH1 0x2 DUP3 DIV SWAP1 POP PUSH1 0x1 DUP3 AND DUP1 PUSH2 0x1784 JUMPI PUSH1 0x7F DUP3 AND SWAP2 POP JUMPDEST PUSH1 0x20 DUP3 LT DUP2 EQ ISZERO PUSH2 0x1798 JUMPI PUSH2 0x1797 PUSH2 0x18B1 JUMP JUMPDEST JUMPDEST POP SWAP2 SWAP1 POP JUMP JUMPDEST PUSH2 0x17A7 DUP3 PUSH2 0x1952 JUMP JUMPDEST DUP2 ADD DUP2 DUP2 LT PUSH8 0xFFFFFFFFFFFFFFFF DUP3 GT OR ISZERO PUSH2 0x17C6 JUMPI PUSH2 0x17C5 PUSH2 0x190F JUMP JUMPDEST JUMPDEST DUP1 PUSH1 0x40 MSTORE POP POP POP JUMP JUMPDEST PUSH1 0x0 PUSH2 0x17DA DUP3 PUSH2 0x1710 JUMP JUMPDEST SWAP2 POP PUSH32 0xFFFFFFFFFFFFFFFFFFFFFFFFFFFFFFFFFFFFFFFFFFFFFFFFFFFFFFFFFFFFFFFF DUP3 EQ ISZERO PUSH2 0x180D JUMPI PUSH2 0x180C PUSH2 0x1853 JUMP JUMPDEST JUMPDEST PUSH1 0x1 DUP3 ADD SWAP1 POP SWAP2 SWAP1 POP JUMP JUMPDEST PUSH1 0x0 DUP2 SWAP1 POP SWAP2 SWAP1 POP JUMP JUMPDEST PUSH1 0x0 PUSH2 0x182D DUP3 PUSH2 0x1710 JUMP JUMPDEST SWAP2 POP PUSH2 0x1838 DUP4 PUSH2 0x1710 JUMP JUMPDEST SWAP3 POP DUP3 PUSH2 0x1848 JUMPI PUSH2 0x1847 PUSH2 0x1882 JUMP JUMPDEST JUMPDEST DUP3 DUP3 MOD SWAP1 POP SWAP3 SWAP2 POP POP JUMP JUMPDEST PUSH32 0x4E487B7100000000000000000000000000000000000000000000000000000000 PUSH1 0x0 MSTORE PUSH1 0x11 PUSH1 0x4 MSTORE PUSH1 0x24 PUSH1 0x0 REVERT JUMPDEST PUSH32 0x4E487B7100000000000000000000000000000000000000000000000000000000 PUSH1 0x0 MSTORE PUSH1 0x12 PUSH1 0x4 MSTORE PUSH1 0x24 PUSH1 0x0 REVERT JUMPDEST PUSH32 0x4E487B7100000000000000000000000000000000000000000000000000000000 PUSH1 0x0 MSTORE PUSH1 0x22 PUSH1 0x4 MSTORE PUSH1 0x24 PUSH1 0x0 REVERT JUMPDEST PUSH32 0x4E487B7100000000000000000000000000000000000000000000000000000000 PUSH1 0x0 MSTORE PUSH1 0x32 PUSH1 0x4 MSTORE PUSH1 0x24 PUSH1 0x0 REVERT JUMPDEST PUSH32 0x4E487B7100000000000000000000000000000000000000000000000000000000 PUSH1 0x0 MSTORE PUSH1 0x41 PUSH1 0x4 MSTORE PUSH1 0x24 PUSH1 0x0 REVERT JUMPDEST PUSH1 0x0 DUP1 REVERT JUMPDEST PUSH1 0x0 DUP1 REVERT JUMPDEST PUSH1 0x0 DUP1 REVERT JUMPDEST PUSH1 0x0 DUP1 REVERT JUMPDEST PUSH1 0x0 PUSH1 0x1F NOT PUSH1 0x1F DUP4 ADD AND SWAP1 POP SWAP2 SWAP1 POP JUMP JUMPDEST PUSH32 0x536F6C6F2073652070756564652074656E657220756E20636F63686520706F72 PUSH1 0x0 DUP3 ADD MSTORE PUSH32 0x20706572736F6E61000000000000000000000000000000000000000000000000 PUSH1 0x20 DUP3 ADD MSTORE POP JUMP JUMPDEST PUSH32 0x4F776E61626C653A206E6577206F776E657220697320746865207A65726F2061 PUSH1 0x0 DUP3 ADD MSTORE PUSH32 0x6464726573730000000000000000000000000000000000000000000000000000 PUSH1 0x20 DUP3 ADD MSTORE POP JUMP JUMPDEST PUSH32 0x4861732067616E61646F3A200000000000000000000000000000000000000000 PUSH1 0x0 DUP3 ADD MSTORE POP JUMP JUMPDEST PUSH32 0x4F776E61626C653A2063616C6C6572206973206E6F7420746865206F776E6572 PUSH1 0x0 DUP3 ADD MSTORE POP JUMP JUMPDEST PUSH32 0x456C20636F6368652067616E61646F722065733A200000000000000000000000 PUSH1 0x0 DUP3 ADD MSTORE POP JUMP JUMPDEST PUSH2 0x1A85 DUP2 PUSH2 0x16DE JUMP JUMPDEST DUP2 EQ PUSH2 0x1A90 JUMPI PUSH1 0x0 DUP1 REVERT JUMPDEST POP JUMP JUMPDEST PUSH2 0x1A9C DUP2 PUSH2 0x1710 JUMP JUMPDEST DUP2 EQ PUSH2 0x1AA7 JUMPI PUSH1 0x0 DUP1 REVERT JUMPDEST POP JUMP INVALID LOG2 PUSH5 0x6970667358 0x22 SLT KECCAK256 PUSH3 0xD33EFE PUSH1 0xF3 0x25 0xD6 DELEGATECALL 0xD0 BLOCKHASH 0xD0 PUSH14 0x538CD06338520F0D9557253B71C8 PUSH5 0x102651F564 PUSH20 0x6F6C634300080700330000000000000000000000 "
				},
				"gasEstimates": {
					"creation": {
						"codeDepositCost": "1376000",
						"executionCost": "infinite",
						"totalCost": "infinite"
					},
					"external": {
						"Apostar(uint256)": "infinite",
						"anadirCoche(string,string,string)": "infinite",
						"cocheDePropietario(uint256)": "2928",
						"listaCoches(uint256)": "infinite",
						"numeroAleatorio()": "infinite",
						"numeroCochesPersona(address)": "2815",
						"owner()": "2522",
						"renounceOwnership()": "30441",
						"transferOwnership(address)": "30811",
						"verCochePropietario(address)": "infinite"
					},
					"internal": {
						"_depositoLleno(struct CarreraCoches.Coche storage pointer)": "infinite",
						"_repostando(struct CarreraCoches.Coche storage pointer)": "infinite",
						"balance()": "infinite"
					}
				},
				"methodIdentifiers": {
					"Apostar(uint256)": "6b6f0494",
					"anadirCoche(string,string,string)": "2458c544",
					"cocheDePropietario(uint256)": "858b0554",
					"listaCoches(uint256)": "d735573d",
					"numeroAleatorio()": "f1413763",
					"numeroCochesPersona(address)": "1c6743e4",
					"owner()": "8da5cb5b",
					"renounceOwnership()": "715018a6",
					"transferOwnership(address)": "f2fde38b",
					"verCochePropietario(address)": "e172fca8"
				}
			},
			"storageLayout": {
				"storage": [
					{
						"astId": 67,
						"contract": "contracts/CarreraCoches/principal.sol:CarreraCoches",
						"label": "_owner",
						"offset": 0,
						"slot": "0",
						"type": "t_address"
					},
					{
						"astId": 189,
						"contract": "contracts/CarreraCoches/principal.sol:CarreraCoches",
						"label": "randNonce",
						"offset": 0,
						"slot": "1",
						"type": "t_uint256"
					},
					{
						"astId": 192,
						"contract": "contracts/CarreraCoches/principal.sol:CarreraCoches",
						"label": "contador",
						"offset": 0,
						"slot": "2",
						"type": "t_uint256"
					},
					{
						"astId": 195,
						"contract": "contracts/CarreraCoches/principal.sol:CarreraCoches",
						"label": "cooldown",
						"offset": 0,
						"slot": "3",
						"type": "t_uint256"
					},
					{
						"astId": 199,
						"contract": "contracts/CarreraCoches/principal.sol:CarreraCoches",
						"label": "listaCoches",
						"offset": 0,
						"slot": "4",
						"type": "t_array(t_struct(Coche)186_storage)dyn_storage"
					},
					{
						"astId": 223,
						"contract": "contracts/CarreraCoches/principal.sol:CarreraCoches",
						"label": "cocheDePropietario",
						"offset": 0,
						"slot": "5",
						"type": "t_mapping(t_uint256,t_address)"
					},
					{
						"astId": 227,
						"contract": "contracts/CarreraCoches/principal.sol:CarreraCoches",
						"label": "numeroCochesPersona",
						"offset": 0,
						"slot": "6",
						"type": "t_mapping(t_address,t_uint256)"
					}
				],
				"types": {
					"t_address": {
						"encoding": "inplace",
						"label": "address",
						"numberOfBytes": "20"
					},
					"t_array(t_struct(Coche)186_storage)dyn_storage": {
						"base": "t_struct(Coche)186_storage",
						"encoding": "dynamic_array",
						"label": "struct CarreraCoches.Coche[]",
						"numberOfBytes": "32"
					},
					"t_mapping(t_address,t_uint256)": {
						"encoding": "mapping",
						"key": "t_address",
						"label": "mapping(address => uint256)",
						"numberOfBytes": "32",
						"value": "t_uint256"
					},
					"t_mapping(t_uint256,t_address)": {
						"encoding": "mapping",
						"key": "t_uint256",
						"label": "mapping(uint256 => address)",
						"numberOfBytes": "32",
						"value": "t_address"
					},
					"t_string_storage": {
						"encoding": "bytes",
						"label": "string",
						"numberOfBytes": "32"
					},
					"t_struct(Coche)186_storage": {
						"encoding": "inplace",
						"label": "struct CarreraCoches.Coche",
						"members": [
							{
								"astId": 171,
								"contract": "contracts/CarreraCoches/principal.sol:CarreraCoches",
								"label": "idPiloto",
								"offset": 0,
								"slot": "0",
								"type": "t_address"
							},
							{
								"astId": 173,
								"contract": "contracts/CarreraCoches/principal.sol:CarreraCoches",
								"label": "modelo",
								"offset": 0,
								"slot": "1",
								"type": "t_string_storage"
							},
							{
								"astId": 175,
								"contract": "contracts/CarreraCoches/principal.sol:CarreraCoches",
								"label": "marca",
								"offset": 0,
								"slot": "2",
								"type": "t_string_storage"
							},
							{
								"astId": 177,
								"contract": "contracts/CarreraCoches/principal.sol:CarreraCoches",
								"label": "nombrePiloto",
								"offset": 0,
								"slot": "3",
								"type": "t_string_storage"
							},
							{
								"astId": 179,
								"contract": "contracts/CarreraCoches/principal.sol:CarreraCoches",
								"label": "carrerasGanadas",
								"offset": 0,
								"slot": "4",
								"type": "t_uint256"
							},
							{
								"astId": 181,
								"contract": "contracts/CarreraCoches/principal.sol:CarreraCoches",
								"label": "carrerasTotales",
								"offset": 0,
								"slot": "5",
								"type": "t_uint256"
							},
							{
								"astId": 183,
								"contract": "contracts/CarreraCoches/principal.sol:CarreraCoches",
								"label": "tiempoEspera",
								"offset": 0,
								"slot": "6",
								"type": "t_uint256"
							},
							{
								"astId": 185,
								"contract": "contracts/CarreraCoches/principal.sol:CarreraCoches",
								"label": "nivel",
								"offset": 0,
								"slot": "7",
								"type": "t_uint32"
							}
						],
						"numberOfBytes": "256"
					},
					"t_uint256": {
						"encoding": "inplace",
						"label": "uint256",
						"numberOfBytes": "32"
					},
					"t_uint32": {
						"encoding": "inplace",
						"label": "uint32",
						"numberOfBytes": "4"
					}
				}
			},
			"userdoc": {
				"kind": "user",
				"methods": {},
				"version": 1
			}
		}
	}
}