{
	"contracts/CarreraCoches/principal.sol": {
		"CarreraCoches": {
			"abi": [
				{
					"anonymous": false,
					"inputs": [
						{
							"indexed": true,
							"internalType": "address",
							"name": "previousOwner",
							"type": "address"
						},
						{
							"indexed": true,
							"internalType": "address",
							"name": "newOwner",
							"type": "address"
						}
					],
					"name": "OwnershipTransferred",
					"type": "event"
				},
				{
					"anonymous": false,
					"inputs": [
						{
							"indexed": false,
							"internalType": "string",
							"name": "mo",
							"type": "string"
						},
						{
							"indexed": false,
							"internalType": "string",
							"name": "ma",
							"type": "string"
						},
						{
							"indexed": false,
							"internalType": "uint32",
							"name": "niv",
							"type": "uint32"
						}
					],
					"name": "cochePropietario",
					"type": "event"
				},
				{
					"anonymous": false,
					"inputs": [
						{
							"indexed": false,
							"internalType": "uint256",
							"name": "compr",
							"type": "uint256"
						}
					],
					"name": "comprobar",
					"type": "event"
				},
				{
					"anonymous": false,
					"inputs": [
						{
							"indexed": false,
							"internalType": "string",
							"name": "ms",
							"type": "string"
						}
					],
					"name": "confirmacionDepositoLleno",
					"type": "event"
				},
				{
					"anonymous": false,
					"inputs": [
						{
							"indexed": false,
							"internalType": "string",
							"name": "ms",
							"type": "string"
						},
						{
							"indexed": false,
							"internalType": "uint256",
							"name": "res",
							"type": "uint256"
						}
					],
					"name": "mostrarResultado",
					"type": "event"
				},
				{
					"inputs": [
						{
							"internalType": "uint256",
							"name": "dineroApostar",
							"type": "uint256"
						}
					],
					"name": "Apostar",
					"outputs": [
						{
							"internalType": "string",
							"name": "",
							"type": "string"
						}
					],
					"stateMutability": "payable",
					"type": "function"
				},
				{
					"inputs": [
						{
							"internalType": "string",
							"name": "_modelo",
							"type": "string"
						},
						{
							"internalType": "string",
							"name": "_marca",
							"type": "string"
						},
						{
							"internalType": "string",
							"name": "_nombrePiloto",
							"type": "string"
						}
					],
					"name": "anadirCoche",
					"outputs": [
						{
							"internalType": "uint256",
							"name": "",
							"type": "uint256"
						}
					],
					"stateMutability": "nonpayable",
					"type": "function"
				},
				{
					"inputs": [
						{
							"internalType": "uint256",
							"name": "",
							"type": "uint256"
						}
					],
					"name": "cocheDePropietario",
					"outputs": [
						{
							"internalType": "address",
							"name": "",
							"type": "address"
						}
					],
					"stateMutability": "view",
					"type": "function"
				},
				{
					"inputs": [
						{
							"internalType": "uint256",
							"name": "",
							"type": "uint256"
						}
					],
					"name": "listaCoches",
					"outputs": [
						{
							"internalType": "address",
							"name": "idPiloto",
							"type": "address"
						},
						{
							"internalType": "string",
							"name": "modelo",
							"type": "string"
						},
						{
							"internalType": "string",
							"name": "marca",
							"type": "string"
						},
						{
							"internalType": "string",
							"name": "nombrePiloto",
							"type": "string"
						},
						{
							"internalType": "uint256",
							"name": "carrerasGanadas",
							"type": "uint256"
						},
						{
							"internalType": "uint256",
							"name": "carrerasTotales",
							"type": "uint256"
						},
						{
							"internalType": "uint256",
							"name": "tiempoEspera",
							"type": "uint256"
						},
						{
							"internalType": "uint32",
							"name": "nivel",
							"type": "uint32"
						}
					],
					"stateMutability": "view",
					"type": "function"
				},
				{
					"inputs": [
						{
							"internalType": "address",
							"name": "",
							"type": "address"
						}
					],
					"name": "numeroCochesPersona",
					"outputs": [
						{
							"internalType": "uint256",
							"name": "",
							"type": "uint256"
						}
					],
					"stateMutability": "view",
					"type": "function"
				},
				{
					"inputs": [],
					"name": "owner",
					"outputs": [
						{
							"internalType": "address",
							"name": "",
							"type": "address"
						}
					],
					"stateMutability": "view",
					"type": "function"
				},
				{
					"inputs": [],
					"name": "renounceOwnership",
					"outputs": [],
					"stateMutability": "nonpayable",
					"type": "function"
				},
				{
					"inputs": [
						{
							"internalType": "address",
							"name": "_propietario",
							"type": "address"
						}
					],
					"name": "subirDeNivel",
					"outputs": [
						{
							"internalType": "string",
							"name": "",
							"type": "string"
						}
					],
					"stateMutability": "payable",
					"type": "function"
				},
				{
					"inputs": [
						{
							"internalType": "address",
							"name": "newOwner",
							"type": "address"
						}
					],
					"name": "transferOwnership",
					"outputs": [],
					"stateMutability": "nonpayable",
					"type": "function"
				},
				{
					"inputs": [
						{
							"internalType": "address",
							"name": "_propietario",
							"type": "address"
						}
					],
					"name": "verCochePropietario",
					"outputs": [],
					"stateMutability": "nonpayable",
					"type": "function"
				}
			],
			"devdoc": {
				"kind": "dev",
				"methods": {
					"owner()": {
						"details": "Returns the address of the current owner."
					},
					"renounceOwnership()": {
						"details": "Leaves the contract without owner. It will not be possible to call `onlyOwner` functions anymore. Can only be called by the current owner. NOTE: Renouncing ownership will leave the contract without an owner, thereby removing any functionality that is only available to the owner."
					},
					"transferOwnership(address)": {
						"details": "Transfers ownership of the contract to a new account (`newOwner`). Can only be called by the current owner."
					}
				},
				"version": 1
			},
			"evm": {
				"assembly": "    /* \"contracts/CarreraCoches/principal.sol\":54:4356  contract CarreraCoches is Ownable {\r... */\n  mstore(0x40, 0x80)\n    /* \"contracts/CarreraCoches/principal.sol\":370:371  0 */\n  0x00\n    /* \"contracts/CarreraCoches/principal.sol\":353:371  uint randNonce = 0 */\n  0x01\n  sstore\n    /* \"contracts/CarreraCoches/principal.sol\":494:495  0 */\n  0x00\n    /* \"contracts/CarreraCoches/principal.sol\":478:495  uint contador = 0 */\n  0x02\n  sstore\n    /* \"contracts/CarreraCoches/principal.sol\":518:528  60 seconds */\n  0x3c\n    /* \"contracts/CarreraCoches/principal.sol\":502:528  uint cooldown = 60 seconds */\n  0x03\n  sstore\n    /* \"contracts/CarreraCoches/principal.sol\":553:560  1 ether */\n  0x0de0b6b3a7640000\n    /* \"contracts/CarreraCoches/principal.sol\":535:560  uint subirNivel = 1 ether */\n  0x04\n  sstore\n    /* \"contracts/CarreraCoches/principal.sol\":54:4356  contract CarreraCoches is Ownable {\r... */\n  callvalue\n  dup1\n  iszero\n  tag_1\n  jumpi\n  0x00\n  dup1\n  revert\ntag_1:\n  pop\n    /* \"contracts/CarreraCoches/ownable.sol\":948:980  _transferOwnership(_msgSender()) */\n  tag_4\n    /* \"contracts/CarreraCoches/ownable.sol\":967:979  _msgSender() */\n  tag_5\n    /* \"contracts/CarreraCoches/ownable.sol\":967:977  _msgSender */\n  shl(0x20, tag_6)\n    /* \"contracts/CarreraCoches/ownable.sol\":967:979  _msgSender() */\n  0x20\n  shr\n  jump\t// in\ntag_5:\n    /* \"contracts/CarreraCoches/ownable.sol\":948:966  _transferOwnership */\n  shl(0x20, tag_7)\n    /* \"contracts/CarreraCoches/ownable.sol\":948:980  _transferOwnership(_msgSender()) */\n  0x20\n  shr\n  jump\t// in\ntag_4:\n    /* \"contracts/CarreraCoches/principal.sol\":54:4356  contract CarreraCoches is Ownable {\r... */\n  jump(tag_8)\n    /* \"contracts/CarreraCoches/utils/Context.sol\":656:754  function _msgSender() internal view virtual returns (address) {\r... */\ntag_6:\n    /* \"contracts/CarreraCoches/utils/Context.sol\":709:716  address */\n  0x00\n    /* \"contracts/CarreraCoches/utils/Context.sol\":736:746  msg.sender */\n  caller\n    /* \"contracts/CarreraCoches/utils/Context.sol\":729:746  return msg.sender */\n  swap1\n  pop\n    /* \"contracts/CarreraCoches/utils/Context.sol\":656:754  function _msgSender() internal view virtual returns (address) {\r... */\n  swap1\n  jump\t// out\n    /* \"contracts/CarreraCoches/ownable.sol\":2339:2530  function _transferOwnership(address newOwner) internal virtual {\r... */\ntag_7:\n    /* \"contracts/CarreraCoches/ownable.sol\":2413:2429  address oldOwner */\n  0x00\n    /* \"contracts/CarreraCoches/ownable.sol\":2432:2438  _owner */\n  dup1\n  0x00\n  swap1\n  sload\n  swap1\n  0x0100\n  exp\n  swap1\n  div\n  0xffffffffffffffffffffffffffffffffffffffff\n  and\n    /* \"contracts/CarreraCoches/ownable.sol\":2413:2438  address oldOwner = _owner */\n  swap1\n  pop\n    /* \"contracts/CarreraCoches/ownable.sol\":2458:2466  newOwner */\n  dup2\n    /* \"contracts/CarreraCoches/ownable.sol\":2449:2455  _owner */\n  0x00\n  dup1\n    /* \"contracts/CarreraCoches/ownable.sol\":2449:2466  _owner = newOwner */\n  0x0100\n  exp\n  dup2\n  sload\n  dup2\n  0xffffffffffffffffffffffffffffffffffffffff\n  mul\n  not\n  and\n  swap1\n  dup4\n  0xffffffffffffffffffffffffffffffffffffffff\n  and\n  mul\n  or\n  swap1\n  sstore\n  pop\n    /* \"contracts/CarreraCoches/ownable.sol\":2513:2521  newOwner */\n  dup2\n    /* \"contracts/CarreraCoches/ownable.sol\":2482:2522  OwnershipTransferred(oldOwner, newOwner) */\n  0xffffffffffffffffffffffffffffffffffffffff\n  and\n    /* \"contracts/CarreraCoches/ownable.sol\":2503:2511  oldOwner */\n  dup2\n    /* \"contracts/CarreraCoches/ownable.sol\":2482:2522  OwnershipTransferred(oldOwner, newOwner) */\n  0xffffffffffffffffffffffffffffffffffffffff\n  and\n  0x8be0079c531659141344cd1fd0a4f28419497f9722a3daafe3b4186f6b6457e0\n  mload(0x40)\n  mload(0x40)\n  dup1\n  swap2\n  sub\n  swap1\n  log3\n    /* \"contracts/CarreraCoches/ownable.sol\":2402:2530  {\r... */\n  pop\n    /* \"contracts/CarreraCoches/ownable.sol\":2339:2530  function _transferOwnership(address newOwner) internal virtual {\r... */\n  pop\n  jump\t// out\n    /* \"contracts/CarreraCoches/principal.sol\":54:4356  contract CarreraCoches is Ownable {\r... */\ntag_8:\n  dataSize(sub_0)\n  dup1\n  dataOffset(sub_0)\n  0x00\n  codecopy\n  0x00\n  return\nstop\n\nsub_0: assembly {\n        /* \"contracts/CarreraCoches/principal.sol\":54:4356  contract CarreraCoches is Ownable {\r... */\n      mstore(0x40, 0x80)\n      jumpi(tag_1, lt(calldatasize, 0x04))\n      shr(0xe0, calldataload(0x00))\n      dup1\n      0x858b0554\n      gt\n      tag_12\n      jumpi\n      dup1\n      0x858b0554\n      eq\n      tag_7\n      jumpi\n      dup1\n      0x8da5cb5b\n      eq\n      tag_8\n      jumpi\n      dup1\n      0xd735573d\n      eq\n      tag_9\n      jumpi\n      dup1\n      0xe172fca8\n      eq\n      tag_10\n      jumpi\n      dup1\n      0xf2fde38b\n      eq\n      tag_11\n      jumpi\n      jump(tag_1)\n    tag_12:\n      dup1\n      0x1c6743e4\n      eq\n      tag_2\n      jumpi\n      dup1\n      0x2458c544\n      eq\n      tag_3\n      jumpi\n      dup1\n      0x6a7d1816\n      eq\n      tag_4\n      jumpi\n      dup1\n      0x6b6f0494\n      eq\n      tag_5\n      jumpi\n      dup1\n      0x715018a6\n      eq\n      tag_6\n      jumpi\n    tag_1:\n      0x00\n      dup1\n      revert\n        /* \"contracts/CarreraCoches/principal.sol\":860:912  mapping (address => uint) public numeroCochesPersona */\n    tag_2:\n      callvalue\n      dup1\n      iszero\n      tag_13\n      jumpi\n      0x00\n      dup1\n      revert\n    tag_13:\n      pop\n      tag_14\n      0x04\n      dup1\n      calldatasize\n      sub\n      dup2\n      add\n      swap1\n      tag_15\n      swap2\n      swap1\n      tag_16\n      jump\t// in\n    tag_15:\n      tag_17\n      jump\t// in\n    tag_14:\n      mload(0x40)\n      tag_18\n      swap2\n      swap1\n      tag_19\n      jump\t// in\n    tag_18:\n      mload(0x40)\n      dup1\n      swap2\n      sub\n      swap1\n      return\n        /* \"contracts/CarreraCoches/principal.sol\":1155:1595  function anadirCoche(string memory _modelo, string memory _marca, string memory _nombrePiloto) public restriccion returns (uint) {\r... */\n    tag_3:\n      callvalue\n      dup1\n      iszero\n      tag_20\n      jumpi\n      0x00\n      dup1\n      revert\n    tag_20:\n      pop\n      tag_21\n      0x04\n      dup1\n      calldatasize\n      sub\n      dup2\n      add\n      swap1\n      tag_22\n      swap2\n      swap1\n      tag_23\n      jump\t// in\n    tag_22:\n      tag_24\n      jump\t// in\n    tag_21:\n      mload(0x40)\n      tag_25\n      swap2\n      swap1\n      tag_19\n      jump\t// in\n    tag_25:\n      mload(0x40)\n      dup1\n      swap2\n      sub\n      swap1\n      return\n        /* \"contracts/CarreraCoches/principal.sol\":1923:2282  function subirDeNivel(address _propietario) external payable returns(string memory) {\r... */\n    tag_4:\n      tag_26\n      0x04\n      dup1\n      calldatasize\n      sub\n      dup2\n      add\n      swap1\n      tag_27\n      swap2\n      swap1\n      tag_16\n      jump\t// in\n    tag_27:\n      tag_28\n      jump\t// in\n    tag_26:\n      mload(0x40)\n      tag_29\n      swap2\n      swap1\n      tag_30\n      jump\t// in\n    tag_29:\n      mload(0x40)\n      dup1\n      swap2\n      sub\n      swap1\n      return\n        /* \"contracts/CarreraCoches/principal.sol\":2941:4117  function Apostar(uint dineroApostar) public payable returns(string memory) {\r... */\n    tag_5:\n      tag_31\n      0x04\n      dup1\n      calldatasize\n      sub\n      dup2\n      add\n      swap1\n      tag_32\n      swap2\n      swap1\n      tag_33\n      jump\t// in\n    tag_32:\n      tag_34\n      jump\t// in\n    tag_31:\n      mload(0x40)\n      tag_35\n      swap2\n      swap1\n      tag_30\n      jump\t// in\n    tag_35:\n      mload(0x40)\n      dup1\n      swap2\n      sub\n      swap1\n      return\n        /* \"contracts/CarreraCoches/ownable.sol\":1720:1823  function renounceOwnership() public virtual onlyOwner {\r... */\n    tag_6:\n      callvalue\n      dup1\n      iszero\n      tag_36\n      jumpi\n      0x00\n      dup1\n      revert\n    tag_36:\n      pop\n      tag_37\n      tag_38\n      jump\t// in\n    tag_37:\n      stop\n        /* \"contracts/CarreraCoches/principal.sol\":802:853  mapping (uint => address) public cocheDePropietario */\n    tag_7:\n      callvalue\n      dup1\n      iszero\n      tag_39\n      jumpi\n      0x00\n      dup1\n      revert\n    tag_39:\n      pop\n      tag_40\n      0x04\n      dup1\n      calldatasize\n      sub\n      dup2\n      add\n      swap1\n      tag_41\n      swap2\n      swap1\n      tag_33\n      jump\t// in\n    tag_41:\n      tag_42\n      jump\t// in\n    tag_40:\n      mload(0x40)\n      tag_43\n      swap2\n      swap1\n      tag_44\n      jump\t// in\n    tag_43:\n      mload(0x40)\n      dup1\n      swap2\n      sub\n      swap1\n      return\n        /* \"contracts/CarreraCoches/ownable.sol\":1069:1156  function owner() public view virtual returns (address) {\r... */\n    tag_8:\n      callvalue\n      dup1\n      iszero\n      tag_45\n      jumpi\n      0x00\n      dup1\n      revert\n    tag_45:\n      pop\n      tag_46\n      tag_47\n      jump\t// in\n    tag_46:\n      mload(0x40)\n      tag_48\n      swap2\n      swap1\n      tag_44\n      jump\t// in\n    tag_48:\n      mload(0x40)\n      dup1\n      swap2\n      sub\n      swap1\n      return\n        /* \"contracts/CarreraCoches/principal.sol\":569:595  Coche[] public listaCoches */\n    tag_9:\n      callvalue\n      dup1\n      iszero\n      tag_49\n      jumpi\n      0x00\n      dup1\n      revert\n    tag_49:\n      pop\n      tag_50\n      0x04\n      dup1\n      calldatasize\n      sub\n      dup2\n      add\n      swap1\n      tag_51\n      swap2\n      swap1\n      tag_33\n      jump\t// in\n    tag_51:\n      tag_52\n      jump\t// in\n    tag_50:\n      mload(0x40)\n      tag_53\n      swap9\n      swap8\n      swap7\n      swap6\n      swap5\n      swap4\n      swap3\n      swap2\n      swap1\n      tag_54\n      jump\t// in\n    tag_53:\n      mload(0x40)\n      dup1\n      swap2\n      sub\n      swap1\n      return\n        /* \"contracts/CarreraCoches/principal.sol\":2292:2604  function verCochePropietario(address _propietario) external {\r... */\n    tag_10:\n      callvalue\n      dup1\n      iszero\n      tag_55\n      jumpi\n      0x00\n      dup1\n      revert\n    tag_55:\n      pop\n      tag_56\n      0x04\n      dup1\n      calldatasize\n      sub\n      dup2\n      add\n      swap1\n      tag_57\n      swap2\n      swap1\n      tag_16\n      jump\t// in\n    tag_57:\n      tag_58\n      jump\t// in\n    tag_56:\n      stop\n        /* \"contracts/CarreraCoches/ownable.sol\":1978:2179  function transferOwnership(address newOwner) public virtual onlyOwner {\r... */\n    tag_11:\n      callvalue\n      dup1\n      iszero\n      tag_59\n      jumpi\n      0x00\n      dup1\n      revert\n    tag_59:\n      pop\n      tag_60\n      0x04\n      dup1\n      calldatasize\n      sub\n      dup2\n      add\n      swap1\n      tag_61\n      swap2\n      swap1\n      tag_16\n      jump\t// in\n    tag_61:\n      tag_62\n      jump\t// in\n    tag_60:\n      stop\n        /* \"contracts/CarreraCoches/principal.sol\":860:912  mapping (address => uint) public numeroCochesPersona */\n    tag_17:\n      mstore(0x20, 0x07)\n      dup1\n      0x00\n      mstore\n      keccak256(0x00, 0x40)\n      0x00\n      swap2\n      pop\n      swap1\n      pop\n      sload\n      dup2\n      jump\t// out\n        /* \"contracts/CarreraCoches/principal.sol\":1155:1595  function anadirCoche(string memory _modelo, string memory _marca, string memory _nombrePiloto) public restriccion returns (uint) {\r... */\n    tag_24:\n        /* \"contracts/CarreraCoches/principal.sol\":1278:1282  uint */\n      0x00\n        /* \"contracts/CarreraCoches/principal.sol\":1044:1045  1 */\n      0x01\n        /* \"contracts/CarreraCoches/principal.sol\":1010:1029  numeroCochesPersona */\n      0x07\n        /* \"contracts/CarreraCoches/principal.sol\":1010:1041  numeroCochesPersona[msg.sender] */\n      0x00\n        /* \"contracts/CarreraCoches/principal.sol\":1030:1040  msg.sender */\n      caller\n        /* \"contracts/CarreraCoches/principal.sol\":1010:1041  numeroCochesPersona[msg.sender] */\n      0xffffffffffffffffffffffffffffffffffffffff\n      and\n      0xffffffffffffffffffffffffffffffffffffffff\n      and\n      dup2\n      mstore\n      0x20\n      add\n      swap1\n      dup2\n      mstore\n      0x20\n      add\n      0x00\n      keccak256\n      sload\n        /* \"contracts/CarreraCoches/principal.sol\":1010:1045  numeroCochesPersona[msg.sender] < 1 */\n      lt\n        /* \"contracts/CarreraCoches/principal.sol\":1002:1090  require(numeroCochesPersona[msg.sender] < 1, \"Solo se puede tener un coche por persona\") */\n      tag_64\n      jumpi\n      mload(0x40)\n      0x08c379a000000000000000000000000000000000000000000000000000000000\n      dup2\n      mstore\n      0x04\n      add\n      tag_65\n      swap1\n      tag_66\n      jump\t// in\n    tag_65:\n      mload(0x40)\n      dup1\n      swap2\n      sub\n      swap1\n      revert\n    tag_64:\n        /* \"contracts/CarreraCoches/principal.sol\":1295:1306  listaCoches */\n      0x05\n        /* \"contracts/CarreraCoches/principal.sol\":1312:1406  Coche(msg.sender, _modelo, _marca, _nombrePiloto, 0, 0, uint32(block.timestamp + cooldown), 0) */\n      mload(0x40)\n      dup1\n      0x0100\n      add\n      0x40\n      mstore\n      dup1\n        /* \"contracts/CarreraCoches/principal.sol\":1318:1328  msg.sender */\n      caller\n        /* \"contracts/CarreraCoches/principal.sol\":1312:1406  Coche(msg.sender, _modelo, _marca, _nombrePiloto, 0, 0, uint32(block.timestamp + cooldown), 0) */\n      0xffffffffffffffffffffffffffffffffffffffff\n      and\n      dup2\n      mstore\n      0x20\n      add\n        /* \"contracts/CarreraCoches/principal.sol\":1330:1337  _modelo */\n      dup7\n        /* \"contracts/CarreraCoches/principal.sol\":1312:1406  Coche(msg.sender, _modelo, _marca, _nombrePiloto, 0, 0, uint32(block.timestamp + cooldown), 0) */\n      dup2\n      mstore\n      0x20\n      add\n        /* \"contracts/CarreraCoches/principal.sol\":1339:1345  _marca */\n      dup6\n        /* \"contracts/CarreraCoches/principal.sol\":1312:1406  Coche(msg.sender, _modelo, _marca, _nombrePiloto, 0, 0, uint32(block.timestamp + cooldown), 0) */\n      dup2\n      mstore\n      0x20\n      add\n        /* \"contracts/CarreraCoches/principal.sol\":1347:1360  _nombrePiloto */\n      dup5\n        /* \"contracts/CarreraCoches/principal.sol\":1312:1406  Coche(msg.sender, _modelo, _marca, _nombrePiloto, 0, 0, uint32(block.timestamp + cooldown), 0) */\n      dup2\n      mstore\n      0x20\n      add\n        /* \"contracts/CarreraCoches/principal.sol\":1362:1363  0 */\n      0x00\n        /* \"contracts/CarreraCoches/principal.sol\":1312:1406  Coche(msg.sender, _modelo, _marca, _nombrePiloto, 0, 0, uint32(block.timestamp + cooldown), 0) */\n      dup2\n      mstore\n      0x20\n      add\n        /* \"contracts/CarreraCoches/principal.sol\":1365:1366  0 */\n      0x00\n        /* \"contracts/CarreraCoches/principal.sol\":1312:1406  Coche(msg.sender, _modelo, _marca, _nombrePiloto, 0, 0, uint32(block.timestamp + cooldown), 0) */\n      dup2\n      mstore\n      0x20\n      add\n        /* \"contracts/CarreraCoches/principal.sol\":1393:1401  cooldown */\n      sload(0x03)\n        /* \"contracts/CarreraCoches/principal.sol\":1375:1390  block.timestamp */\n      timestamp\n        /* \"contracts/CarreraCoches/principal.sol\":1375:1401  block.timestamp + cooldown */\n      tag_68\n      swap2\n      swap1\n      tag_69\n      jump\t// in\n    tag_68:\n        /* \"contracts/CarreraCoches/principal.sol\":1312:1406  Coche(msg.sender, _modelo, _marca, _nombrePiloto, 0, 0, uint32(block.timestamp + cooldown), 0) */\n      0xffffffff\n      and\n      dup2\n      mstore\n      0x20\n      add\n        /* \"contracts/CarreraCoches/principal.sol\":1404:1405  0 */\n      0x00\n        /* \"contracts/CarreraCoches/principal.sol\":1312:1406  Coche(msg.sender, _modelo, _marca, _nombrePiloto, 0, 0, uint32(block.timestamp + cooldown), 0) */\n      0xffffffff\n      and\n      dup2\n      mstore\n      pop\n        /* \"contracts/CarreraCoches/principal.sol\":1295:1407  listaCoches.push(Coche(msg.sender, _modelo, _marca, _nombrePiloto, 0, 0, uint32(block.timestamp + cooldown), 0)) */\n      swap1\n      dup1\n      0x01\n      dup2\n      sload\n      add\n      dup1\n      dup3\n      sstore\n      dup1\n      swap2\n      pop\n      pop\n      0x01\n      swap1\n      sub\n      swap1\n      0x00\n      mstore\n      keccak256(0x00, 0x20)\n      swap1\n      0x08\n      mul\n      add\n      0x00\n      swap1\n      swap2\n      swap1\n      swap2\n      swap1\n      swap2\n      pop\n      0x00\n      dup3\n      add\n      mload\n      dup2\n      0x00\n      add\n      exp(0x0100, 0x00)\n      dup2\n      sload\n      dup2\n      0xffffffffffffffffffffffffffffffffffffffff\n      mul\n      not\n      and\n      swap1\n      dup4\n      0xffffffffffffffffffffffffffffffffffffffff\n      and\n      mul\n      or\n      swap1\n      sstore\n      pop\n      0x20\n      dup3\n      add\n      mload\n      dup2\n      0x01\n      add\n      swap1\n      dup1\n      mload\n      swap1\n      0x20\n      add\n      swap1\n      tag_71\n      swap3\n      swap2\n      swap1\n      tag_72\n      jump\t// in\n    tag_71:\n      pop\n      0x40\n      dup3\n      add\n      mload\n      dup2\n      0x02\n      add\n      swap1\n      dup1\n      mload\n      swap1\n      0x20\n      add\n      swap1\n      tag_73\n      swap3\n      swap2\n      swap1\n      tag_72\n      jump\t// in\n    tag_73:\n      pop\n      0x60\n      dup3\n      add\n      mload\n      dup2\n      0x03\n      add\n      swap1\n      dup1\n      mload\n      swap1\n      0x20\n      add\n      swap1\n      tag_74\n      swap3\n      swap2\n      swap1\n      tag_72\n      jump\t// in\n    tag_74:\n      pop\n      0x80\n      dup3\n      add\n      mload\n      dup2\n      0x04\n      add\n      sstore\n      0xa0\n      dup3\n      add\n      mload\n      dup2\n      0x05\n      add\n      sstore\n      0xc0\n      dup3\n      add\n      mload\n      dup2\n      0x06\n      add\n      sstore\n      0xe0\n      dup3\n      add\n      mload\n      dup2\n      0x07\n      add\n      exp(0x0100, 0x00)\n      dup2\n      sload\n      dup2\n      0xffffffff\n      mul\n      not\n      and\n      swap1\n      dup4\n      0xffffffff\n      and\n      mul\n      or\n      swap1\n      sstore\n      pop\n      pop\n      pop\n        /* \"contracts/CarreraCoches/principal.sol\":1418:1425  uint id */\n      0x00\n        /* \"contracts/CarreraCoches/principal.sol\":1428:1439  listaCoches */\n      0x05\n        /* \"contracts/CarreraCoches/principal.sol\":1428:1446  listaCoches.length */\n      dup1\n      sload\n      swap1\n      pop\n        /* \"contracts/CarreraCoches/principal.sol\":1418:1446  uint id = listaCoches.length */\n      swap1\n      pop\n        /* \"contracts/CarreraCoches/principal.sol\":1482:1492  msg.sender */\n      caller\n        /* \"contracts/CarreraCoches/principal.sol\":1457:1475  cocheDePropietario */\n      0x06\n        /* \"contracts/CarreraCoches/principal.sol\":1457:1479  cocheDePropietario[id] */\n      0x00\n        /* \"contracts/CarreraCoches/principal.sol\":1476:1478  id */\n      dup4\n        /* \"contracts/CarreraCoches/principal.sol\":1457:1479  cocheDePropietario[id] */\n      dup2\n      mstore\n      0x20\n      add\n      swap1\n      dup2\n      mstore\n      0x20\n      add\n      0x00\n      keccak256\n      0x00\n        /* \"contracts/CarreraCoches/principal.sol\":1457:1492  cocheDePropietario[id] = msg.sender */\n      0x0100\n      exp\n      dup2\n      sload\n      dup2\n      0xffffffffffffffffffffffffffffffffffffffff\n      mul\n      not\n      and\n      swap1\n      dup4\n      0xffffffffffffffffffffffffffffffffffffffff\n      and\n      mul\n      or\n      swap1\n      sstore\n      pop\n        /* \"contracts/CarreraCoches/principal.sol\":1503:1522  numeroCochesPersona */\n      0x07\n        /* \"contracts/CarreraCoches/principal.sol\":1503:1534  numeroCochesPersona[msg.sender] */\n      0x00\n        /* \"contracts/CarreraCoches/principal.sol\":1523:1533  msg.sender */\n      caller\n        /* \"contracts/CarreraCoches/principal.sol\":1503:1534  numeroCochesPersona[msg.sender] */\n      0xffffffffffffffffffffffffffffffffffffffff\n      and\n      0xffffffffffffffffffffffffffffffffffffffff\n      and\n      dup2\n      mstore\n      0x20\n      add\n      swap1\n      dup2\n      mstore\n      0x20\n      add\n      0x00\n      keccak256\n      0x00\n        /* \"contracts/CarreraCoches/principal.sol\":1503:1536  numeroCochesPersona[msg.sender]++ */\n      dup2\n      sload\n      dup1\n      swap3\n      swap2\n      swap1\n      tag_75\n      swap1\n      tag_76\n      jump\t// in\n    tag_75:\n      swap2\n      swap1\n      pop\n      sstore\n      pop\n        /* \"contracts/CarreraCoches/principal.sol\":1547:1555  contador */\n      0x02\n      0x00\n        /* \"contracts/CarreraCoches/principal.sol\":1547:1557  contador++ */\n      dup2\n      sload\n      dup1\n      swap3\n      swap2\n      swap1\n      tag_77\n      swap1\n      tag_76\n      jump\t// in\n    tag_77:\n      swap2\n      swap1\n      pop\n      sstore\n      pop\n        /* \"contracts/CarreraCoches/principal.sol\":1586:1587  1 */\n      0x01\n        /* \"contracts/CarreraCoches/principal.sol\":1575:1583  contador */\n      sload(0x02)\n        /* \"contracts/CarreraCoches/principal.sol\":1575:1587  contador - 1 */\n      tag_78\n      swap2\n      swap1\n      tag_79\n      jump\t// in\n    tag_78:\n        /* \"contracts/CarreraCoches/principal.sol\":1568:1587  return contador - 1 */\n      swap2\n      pop\n      pop\n        /* \"contracts/CarreraCoches/principal.sol\":1155:1595  function anadirCoche(string memory _modelo, string memory _marca, string memory _nombrePiloto) public restriccion returns (uint) {\r... */\n      swap4\n      swap3\n      pop\n      pop\n      pop\n      jump\t// out\n        /* \"contracts/CarreraCoches/principal.sol\":1923:2282  function subirDeNivel(address _propietario) external payable returns(string memory) {\r... */\n    tag_28:\n        /* \"contracts/CarreraCoches/principal.sol\":1992:2005  string memory */\n      0x60\n        /* \"contracts/CarreraCoches/principal.sol\":2037:2047  subirNivel */\n      sload(0x04)\n        /* \"contracts/CarreraCoches/principal.sol\":2026:2035  msg.value */\n      callvalue\n        /* \"contracts/CarreraCoches/principal.sol\":2026:2047  msg.value==subirNivel */\n      eq\n        /* \"contracts/CarreraCoches/principal.sol\":2018:2048  require(msg.value==subirNivel) */\n      tag_81\n      jumpi\n      0x00\n      dup1\n      revert\n    tag_81:\n        /* \"contracts/CarreraCoches/principal.sol\":2063:2069  uint i */\n      0x00\n        /* \"contracts/CarreraCoches/principal.sol\":2059:2275  for(uint i = 0; i < listaCoches.length; i++){\r... */\n    tag_82:\n        /* \"contracts/CarreraCoches/principal.sol\":2079:2090  listaCoches */\n      0x05\n        /* \"contracts/CarreraCoches/principal.sol\":2079:2097  listaCoches.length */\n      dup1\n      sload\n      swap1\n      pop\n        /* \"contracts/CarreraCoches/principal.sol\":2075:2076  i */\n      dup2\n        /* \"contracts/CarreraCoches/principal.sol\":2075:2097  i < listaCoches.length */\n      lt\n        /* \"contracts/CarreraCoches/principal.sol\":2059:2275  for(uint i = 0; i < listaCoches.length; i++){\r... */\n      iszero\n      tag_83\n      jumpi\n        /* \"contracts/CarreraCoches/principal.sol\":2148:2160  _propietario */\n      dup3\n        /* \"contracts/CarreraCoches/principal.sol\":2121:2160  listaCoches[i].idPiloto == _propietario */\n      0xffffffffffffffffffffffffffffffffffffffff\n      and\n        /* \"contracts/CarreraCoches/principal.sol\":2121:2132  listaCoches */\n      0x05\n        /* \"contracts/CarreraCoches/principal.sol\":2133:2134  i */\n      dup3\n        /* \"contracts/CarreraCoches/principal.sol\":2121:2135  listaCoches[i] */\n      dup2\n      sload\n      dup2\n      lt\n      tag_85\n      jumpi\n      tag_86\n      tag_87\n      jump\t// in\n    tag_86:\n    tag_85:\n      swap1\n      0x00\n      mstore\n      keccak256(0x00, 0x20)\n      swap1\n      0x08\n      mul\n      add\n        /* \"contracts/CarreraCoches/principal.sol\":2121:2144  listaCoches[i].idPiloto */\n      0x00\n      add\n      0x00\n      swap1\n      sload\n      swap1\n      0x0100\n      exp\n      swap1\n      div\n      0xffffffffffffffffffffffffffffffffffffffff\n      and\n        /* \"contracts/CarreraCoches/principal.sol\":2121:2160  listaCoches[i].idPiloto == _propietario */\n      0xffffffffffffffffffffffffffffffffffffffff\n      and\n      eq\n        /* \"contracts/CarreraCoches/principal.sol\":2118:2264  if(listaCoches[i].idPiloto == _propietario){\r... */\n      iszero\n      tag_89\n      jumpi\n        /* \"contracts/CarreraCoches/principal.sol\":2180:2191  listaCoches */\n      0x05\n        /* \"contracts/CarreraCoches/principal.sol\":2192:2193  i */\n      dup2\n        /* \"contracts/CarreraCoches/principal.sol\":2180:2194  listaCoches[i] */\n      dup2\n      sload\n      dup2\n      lt\n      tag_90\n      jumpi\n      tag_91\n      tag_87\n      jump\t// in\n    tag_91:\n    tag_90:\n      swap1\n      0x00\n      mstore\n      keccak256(0x00, 0x20)\n      swap1\n      0x08\n      mul\n      add\n        /* \"contracts/CarreraCoches/principal.sol\":2180:2200  listaCoches[i].nivel */\n      0x07\n      add\n      0x00\n        /* \"contracts/CarreraCoches/principal.sol\":2180:2202  listaCoches[i].nivel++ */\n      dup2\n      dup2\n      swap1\n      sload\n      swap1\n      0x0100\n      exp\n      swap1\n      div\n      0xffffffff\n      and\n      dup1\n      swap3\n      swap2\n      swap1\n      tag_93\n      swap1\n      tag_94\n      jump\t// in\n    tag_93:\n      swap2\n      swap1\n      0x0100\n      exp\n      dup2\n      sload\n      dup2\n      0xffffffff\n      mul\n      not\n      and\n      swap1\n      dup4\n      0xffffffff\n      and\n      mul\n      or\n      swap1\n      sstore\n      pop\n      pop\n        /* \"contracts/CarreraCoches/principal.sol\":2221:2248  return \"Ha subido de nivel\" */\n      mload(0x40)\n      dup1\n      0x40\n      add\n      0x40\n      mstore\n      dup1\n      0x12\n      dup2\n      mstore\n      0x20\n      add\n      0x48612073756269646f206465206e6976656c0000000000000000000000000000\n      dup2\n      mstore\n      pop\n      swap2\n      pop\n      pop\n      jump(tag_80)\n        /* \"contracts/CarreraCoches/principal.sol\":2118:2264  if(listaCoches[i].idPiloto == _propietario){\r... */\n    tag_89:\n        /* \"contracts/CarreraCoches/principal.sol\":2099:2102  i++ */\n      dup1\n      dup1\n      tag_95\n      swap1\n      tag_76\n      jump\t// in\n    tag_95:\n      swap2\n      pop\n      pop\n        /* \"contracts/CarreraCoches/principal.sol\":2059:2275  for(uint i = 0; i < listaCoches.length; i++){\r... */\n      jump(tag_82)\n    tag_83:\n      pop\n        /* \"contracts/CarreraCoches/principal.sol\":1923:2282  function subirDeNivel(address _propietario) external payable returns(string memory) {\r... */\n    tag_80:\n      swap2\n      swap1\n      pop\n      jump\t// out\n        /* \"contracts/CarreraCoches/principal.sol\":2941:4117  function Apostar(uint dineroApostar) public payable returns(string memory) {\r... */\n    tag_34:\n        /* \"contracts/CarreraCoches/principal.sol\":3001:3014  string memory */\n      0x60\n        /* \"contracts/CarreraCoches/principal.sol\":3047:3060  dineroApostar */\n      dup2\n        /* \"contracts/CarreraCoches/principal.sol\":3034:3043  msg.value */\n      callvalue\n        /* \"contracts/CarreraCoches/principal.sol\":3034:3060  msg.value == dineroApostar */\n      eq\n        /* \"contracts/CarreraCoches/principal.sol\":3026:3061  require(msg.value == dineroApostar) */\n      tag_97\n      jumpi\n      0x00\n      dup1\n      revert\n    tag_97:\n        /* \"contracts/CarreraCoches/principal.sol\":3082:3091  randNonce */\n      0x01\n      0x00\n        /* \"contracts/CarreraCoches/principal.sol\":3082:3093  randNonce++ */\n      dup2\n      sload\n      dup1\n      swap3\n      swap2\n      swap1\n      tag_98\n      swap1\n      tag_76\n      jump\t// in\n    tag_98:\n      swap2\n      swap1\n      pop\n      sstore\n      pop\n        /* \"contracts/CarreraCoches/principal.sol\":3140:3153  uint256 rival */\n      0x00\n        /* \"contracts/CarreraCoches/principal.sol\":3243:3254  listaCoches */\n      0x05\n        /* \"contracts/CarreraCoches/principal.sol\":3243:3261  listaCoches.length */\n      dup1\n      sload\n      swap1\n      pop\n        /* \"contracts/CarreraCoches/principal.sol\":3191:3206  block.timestamp */\n      timestamp\n        /* \"contracts/CarreraCoches/principal.sol\":3208:3219  listaCoches */\n      0x05\n        /* \"contracts/CarreraCoches/principal.sol\":3208:3226  listaCoches.length */\n      dup1\n      sload\n      swap1\n      pop\n        /* \"contracts/CarreraCoches/principal.sol\":3228:3237  randNonce */\n      sload(0x01)\n        /* \"contracts/CarreraCoches/principal.sol\":3174:3238  abi.encodePacked(block.timestamp, listaCoches.length, randNonce) */\n      add(0x20, mload(0x40))\n      tag_99\n      swap4\n      swap3\n      swap2\n      swap1\n      tag_100\n      jump\t// in\n    tag_99:\n      mload(0x40)\n      0x20\n      dup2\n      dup4\n      sub\n      sub\n      dup2\n      mstore\n      swap1\n      0x40\n      mstore\n        /* \"contracts/CarreraCoches/principal.sol\":3164:3239  keccak256(abi.encodePacked(block.timestamp, listaCoches.length, randNonce)) */\n      dup1\n      mload\n      swap1\n      0x20\n      add\n      keccak256\n        /* \"contracts/CarreraCoches/principal.sol\":3156:3240  uint256(keccak256(abi.encodePacked(block.timestamp, listaCoches.length, randNonce))) */\n      0x00\n      shr\n        /* \"contracts/CarreraCoches/principal.sol\":3156:3261  uint256(keccak256(abi.encodePacked(block.timestamp, listaCoches.length, randNonce))) % listaCoches.length */\n      tag_101\n      swap2\n      swap1\n      tag_102\n      jump\t// in\n    tag_101:\n        /* \"contracts/CarreraCoches/principal.sol\":3140:3261  uint256 rival = uint256(keccak256(abi.encodePacked(block.timestamp, listaCoches.length, randNonce))) % listaCoches.length */\n      swap1\n      pop\n        /* \"contracts/CarreraCoches/principal.sol\":3304:3313  randNonce */\n      0x01\n      0x00\n        /* \"contracts/CarreraCoches/principal.sol\":3304:3315  randNonce++ */\n      dup2\n      sload\n      dup1\n      swap3\n      swap2\n      swap1\n      tag_103\n      swap1\n      tag_76\n      jump\t// in\n    tag_103:\n      swap2\n      swap1\n      pop\n      sstore\n      pop\n        /* \"contracts/CarreraCoches/principal.sol\":3326:3337  uint numero */\n      0x00\n        /* \"contracts/CarreraCoches/principal.sol\":3340:3341  2 */\n      0x02\n        /* \"contracts/CarreraCoches/principal.sol\":3326:3341  uint numero = 2 */\n      swap1\n      pop\n        /* \"contracts/CarreraCoches/principal.sol\":3352:3367  uint256 ganador */\n      0x00\n        /* \"contracts/CarreraCoches/principal.sol\":3445:3451  numero */\n      dup2\n        /* \"contracts/CarreraCoches/principal.sol\":3405:3420  block.timestamp */\n      timestamp\n        /* \"contracts/CarreraCoches/principal.sol\":3422:3428  numero */\n      dup4\n        /* \"contracts/CarreraCoches/principal.sol\":3430:3439  randNonce */\n      sload(0x01)\n        /* \"contracts/CarreraCoches/principal.sol\":3388:3440  abi.encodePacked(block.timestamp, numero, randNonce) */\n      add(0x20, mload(0x40))\n      tag_104\n      swap4\n      swap3\n      swap2\n      swap1\n      tag_100\n      jump\t// in\n    tag_104:\n      mload(0x40)\n      0x20\n      dup2\n      dup4\n      sub\n      sub\n      dup2\n      mstore\n      swap1\n      0x40\n      mstore\n        /* \"contracts/CarreraCoches/principal.sol\":3378:3441  keccak256(abi.encodePacked(block.timestamp, numero, randNonce)) */\n      dup1\n      mload\n      swap1\n      0x20\n      add\n      keccak256\n        /* \"contracts/CarreraCoches/principal.sol\":3370:3442  uint256(keccak256(abi.encodePacked(block.timestamp, numero, randNonce))) */\n      0x00\n      shr\n        /* \"contracts/CarreraCoches/principal.sol\":3370:3451  uint256(keccak256(abi.encodePacked(block.timestamp, numero, randNonce))) % numero */\n      tag_105\n      swap2\n      swap1\n      tag_102\n      jump\t// in\n    tag_105:\n        /* \"contracts/CarreraCoches/principal.sol\":3352:3451  uint256 ganador = uint256(keccak256(abi.encodePacked(block.timestamp, numero, randNonce))) % numero */\n      swap1\n      pop\n        /* \"contracts/CarreraCoches/principal.sol\":3468:3474  uint i */\n      0x00\n        /* \"contracts/CarreraCoches/principal.sol\":3464:4111  for(uint i = 0; i < listaCoches.length; i++){\r... */\n    tag_106:\n        /* \"contracts/CarreraCoches/principal.sol\":3484:3495  listaCoches */\n      0x05\n        /* \"contracts/CarreraCoches/principal.sol\":3484:3502  listaCoches.length */\n      dup1\n      sload\n      swap1\n      pop\n        /* \"contracts/CarreraCoches/principal.sol\":3480:3481  i */\n      dup2\n        /* \"contracts/CarreraCoches/principal.sol\":3480:3502  i < listaCoches.length */\n      lt\n        /* \"contracts/CarreraCoches/principal.sol\":3464:4111  for(uint i = 0; i < listaCoches.length; i++){\r... */\n      iszero\n      tag_107\n      jumpi\n        /* \"contracts/CarreraCoches/principal.sol\":3644:3655  listaCoches */\n      0x05\n        /* \"contracts/CarreraCoches/principal.sol\":3656:3657  i */\n      dup2\n        /* \"contracts/CarreraCoches/principal.sol\":3644:3658  listaCoches[i] */\n      dup2\n      sload\n      dup2\n      lt\n      tag_109\n      jumpi\n      tag_110\n      tag_87\n      jump\t// in\n    tag_110:\n    tag_109:\n      swap1\n      0x00\n      mstore\n      keccak256(0x00, 0x20)\n      swap1\n      0x08\n      mul\n      add\n        /* \"contracts/CarreraCoches/principal.sol\":3644:3667  listaCoches[i].idPiloto */\n      0x00\n      add\n      0x00\n      swap1\n      sload\n      swap1\n      0x0100\n      exp\n      swap1\n      div\n      0xffffffffffffffffffffffffffffffffffffffff\n      and\n        /* \"contracts/CarreraCoches/principal.sol\":3630:3667  msg.sender == listaCoches[i].idPiloto */\n      0xffffffffffffffffffffffffffffffffffffffff\n      and\n        /* \"contracts/CarreraCoches/principal.sol\":3630:3640  msg.sender */\n      caller\n        /* \"contracts/CarreraCoches/principal.sol\":3630:3667  msg.sender == listaCoches[i].idPiloto */\n      0xffffffffffffffffffffffffffffffffffffffff\n      and\n      eq\n        /* \"contracts/CarreraCoches/principal.sol\":3626:4100  if (msg.sender == listaCoches[i].idPiloto) {\r... */\n      iszero\n      tag_112\n      jumpi\n        /* \"contracts/CarreraCoches/principal.sol\":3702:3703  0 */\n      0x00\n        /* \"contracts/CarreraCoches/principal.sol\":3691:3698  ganador */\n      dup3\n        /* \"contracts/CarreraCoches/principal.sol\":3691:3703  ganador == 0 */\n      eq\n        /* \"contracts/CarreraCoches/principal.sol\":3688:3996  if(ganador == 0){\r... */\n      iszero\n      tag_113\n      jumpi\n        /* \"contracts/CarreraCoches/principal.sol\":3727:3736  balance() */\n      tag_114\n        /* \"contracts/CarreraCoches/principal.sol\":3727:3734  balance */\n      tag_115\n        /* \"contracts/CarreraCoches/principal.sol\":3727:3736  balance() */\n      jump\t// in\n    tag_114:\n        /* \"contracts/CarreraCoches/principal.sol\":3759:3778  return \"Has ganado\" */\n      mload(0x40)\n      dup1\n      0x40\n      add\n      0x40\n      mstore\n      dup1\n      0x0a\n      dup2\n      mstore\n      0x20\n      add\n      0x4861732067616e61646f00000000000000000000000000000000000000000000\n      dup2\n      mstore\n      pop\n      swap5\n      pop\n      pop\n      pop\n      pop\n      pop\n      jump(tag_96)\n        /* \"contracts/CarreraCoches/principal.sol\":3688:3996  if(ganador == 0){\r... */\n    tag_113:\n        /* \"contracts/CarreraCoches/principal.sol\":3885:3933  mostrarResultado(\"El coche ganador es: \", rival) */\n      0xa28482eec3136a2461c6c30c08f71ba279c6c51a2d9c7bea4e50d6d2632f3896\n        /* \"contracts/CarreraCoches/principal.sol\":3927:3932  rival */\n      dup5\n        /* \"contracts/CarreraCoches/principal.sol\":3885:3933  mostrarResultado(\"El coche ganador es: \", rival) */\n      mload(0x40)\n      tag_121\n      swap2\n      swap1\n      tag_122\n      jump\t// in\n    tag_121:\n      mload(0x40)\n      dup1\n      swap2\n      sub\n      swap1\n      log1\n        /* \"contracts/CarreraCoches/principal.sol\":3956:3976  return \"Has perdido\" */\n      mload(0x40)\n      dup1\n      0x40\n      add\n      0x40\n      mstore\n      dup1\n      0x0b\n      dup2\n      mstore\n      0x20\n      add\n      0x486173207065726469646f000000000000000000000000000000000000000000\n      dup2\n      mstore\n      pop\n      swap5\n      pop\n      pop\n      pop\n      pop\n      pop\n      jump(tag_96)\n        /* \"contracts/CarreraCoches/principal.sol\":3626:4100  if (msg.sender == listaCoches[i].idPiloto) {\r... */\n    tag_112:\n        /* \"contracts/CarreraCoches/principal.sol\":3504:3507  i++ */\n      dup1\n      dup1\n      tag_132\n      swap1\n      tag_76\n      jump\t// in\n    tag_132:\n      swap2\n      pop\n      pop\n        /* \"contracts/CarreraCoches/principal.sol\":3464:4111  for(uint i = 0; i < listaCoches.length; i++){\r... */\n      jump(tag_106)\n    tag_107:\n      pop\n        /* \"contracts/CarreraCoches/principal.sol\":3016:4117  {\r... */\n      pop\n      pop\n      pop\n        /* \"contracts/CarreraCoches/principal.sol\":2941:4117  function Apostar(uint dineroApostar) public payable returns(string memory) {\r... */\n    tag_96:\n      swap2\n      swap1\n      pop\n      jump\t// out\n        /* \"contracts/CarreraCoches/ownable.sol\":1720:1823  function renounceOwnership() public virtual onlyOwner {\r... */\n    tag_38:\n        /* \"contracts/CarreraCoches/ownable.sol\":1300:1312  _msgSender() */\n      tag_134\n        /* \"contracts/CarreraCoches/ownable.sol\":1300:1310  _msgSender */\n      tag_135\n        /* \"contracts/CarreraCoches/ownable.sol\":1300:1312  _msgSender() */\n      jump\t// in\n    tag_134:\n        /* \"contracts/CarreraCoches/ownable.sol\":1289:1312  owner() == _msgSender() */\n      0xffffffffffffffffffffffffffffffffffffffff\n      and\n        /* \"contracts/CarreraCoches/ownable.sol\":1289:1296  owner() */\n      tag_136\n        /* \"contracts/CarreraCoches/ownable.sol\":1289:1294  owner */\n      tag_47\n        /* \"contracts/CarreraCoches/ownable.sol\":1289:1296  owner() */\n      jump\t// in\n    tag_136:\n        /* \"contracts/CarreraCoches/ownable.sol\":1289:1312  owner() == _msgSender() */\n      0xffffffffffffffffffffffffffffffffffffffff\n      and\n      eq\n        /* \"contracts/CarreraCoches/ownable.sol\":1281:1349  require(owner() == _msgSender(), \"Ownable: caller is not the owner\") */\n      tag_137\n      jumpi\n      mload(0x40)\n      0x08c379a000000000000000000000000000000000000000000000000000000000\n      dup2\n      mstore\n      0x04\n      add\n      tag_138\n      swap1\n      tag_139\n      jump\t// in\n    tag_138:\n      mload(0x40)\n      dup1\n      swap2\n      sub\n      swap1\n      revert\n    tag_137:\n        /* \"contracts/CarreraCoches/ownable.sol\":1785:1815  _transferOwnership(address(0)) */\n      tag_141\n        /* \"contracts/CarreraCoches/ownable.sol\":1812:1813  0 */\n      0x00\n        /* \"contracts/CarreraCoches/ownable.sol\":1785:1803  _transferOwnership */\n      tag_142\n        /* \"contracts/CarreraCoches/ownable.sol\":1785:1815  _transferOwnership(address(0)) */\n      jump\t// in\n    tag_141:\n        /* \"contracts/CarreraCoches/ownable.sol\":1720:1823  function renounceOwnership() public virtual onlyOwner {\r... */\n      jump\t// out\n        /* \"contracts/CarreraCoches/principal.sol\":802:853  mapping (uint => address) public cocheDePropietario */\n    tag_42:\n      mstore(0x20, 0x06)\n      dup1\n      0x00\n      mstore\n      keccak256(0x00, 0x40)\n      0x00\n      swap2\n      pop\n      sload\n      swap1\n      0x0100\n      exp\n      swap1\n      div\n      0xffffffffffffffffffffffffffffffffffffffff\n      and\n      dup2\n      jump\t// out\n        /* \"contracts/CarreraCoches/ownable.sol\":1069:1156  function owner() public view virtual returns (address) {\r... */\n    tag_47:\n        /* \"contracts/CarreraCoches/ownable.sol\":1115:1122  address */\n      0x00\n        /* \"contracts/CarreraCoches/ownable.sol\":1142:1148  _owner */\n      dup1\n      0x00\n      swap1\n      sload\n      swap1\n      0x0100\n      exp\n      swap1\n      div\n      0xffffffffffffffffffffffffffffffffffffffff\n      and\n        /* \"contracts/CarreraCoches/ownable.sol\":1135:1148  return _owner */\n      swap1\n      pop\n        /* \"contracts/CarreraCoches/ownable.sol\":1069:1156  function owner() public view virtual returns (address) {\r... */\n      swap1\n      jump\t// out\n        /* \"contracts/CarreraCoches/principal.sol\":569:595  Coche[] public listaCoches */\n    tag_52:\n      0x05\n      dup2\n      dup2\n      sload\n      dup2\n      lt\n      tag_144\n      jumpi\n      0x00\n      dup1\n      revert\n    tag_144:\n      swap1\n      0x00\n      mstore\n      keccak256(0x00, 0x20)\n      swap1\n      0x08\n      mul\n      add\n      0x00\n      swap2\n      pop\n      swap1\n      pop\n      dup1\n      0x00\n      add\n      0x00\n      swap1\n      sload\n      swap1\n      0x0100\n      exp\n      swap1\n      div\n      0xffffffffffffffffffffffffffffffffffffffff\n      and\n      swap1\n      dup1\n      0x01\n      add\n      dup1\n      sload\n      tag_146\n      swap1\n      tag_147\n      jump\t// in\n    tag_146:\n      dup1\n      0x1f\n      add\n      0x20\n      dup1\n      swap2\n      div\n      mul\n      0x20\n      add\n      mload(0x40)\n      swap1\n      dup2\n      add\n      0x40\n      mstore\n      dup1\n      swap3\n      swap2\n      swap1\n      dup2\n      dup2\n      mstore\n      0x20\n      add\n      dup3\n      dup1\n      sload\n      tag_148\n      swap1\n      tag_147\n      jump\t// in\n    tag_148:\n      dup1\n      iszero\n      tag_149\n      jumpi\n      dup1\n      0x1f\n      lt\n      tag_150\n      jumpi\n      0x0100\n      dup1\n      dup4\n      sload\n      div\n      mul\n      dup4\n      mstore\n      swap2\n      0x20\n      add\n      swap2\n      jump(tag_149)\n    tag_150:\n      dup3\n      add\n      swap2\n      swap1\n      0x00\n      mstore\n      keccak256(0x00, 0x20)\n      swap1\n    tag_151:\n      dup2\n      sload\n      dup2\n      mstore\n      swap1\n      0x01\n      add\n      swap1\n      0x20\n      add\n      dup1\n      dup4\n      gt\n      tag_151\n      jumpi\n      dup3\n      swap1\n      sub\n      0x1f\n      and\n      dup3\n      add\n      swap2\n    tag_149:\n      pop\n      pop\n      pop\n      pop\n      pop\n      swap1\n      dup1\n      0x02\n      add\n      dup1\n      sload\n      tag_152\n      swap1\n      tag_147\n      jump\t// in\n    tag_152:\n      dup1\n      0x1f\n      add\n      0x20\n      dup1\n      swap2\n      div\n      mul\n      0x20\n      add\n      mload(0x40)\n      swap1\n      dup2\n      add\n      0x40\n      mstore\n      dup1\n      swap3\n      swap2\n      swap1\n      dup2\n      dup2\n      mstore\n      0x20\n      add\n      dup3\n      dup1\n      sload\n      tag_153\n      swap1\n      tag_147\n      jump\t// in\n    tag_153:\n      dup1\n      iszero\n      tag_154\n      jumpi\n      dup1\n      0x1f\n      lt\n      tag_155\n      jumpi\n      0x0100\n      dup1\n      dup4\n      sload\n      div\n      mul\n      dup4\n      mstore\n      swap2\n      0x20\n      add\n      swap2\n      jump(tag_154)\n    tag_155:\n      dup3\n      add\n      swap2\n      swap1\n      0x00\n      mstore\n      keccak256(0x00, 0x20)\n      swap1\n    tag_156:\n      dup2\n      sload\n      dup2\n      mstore\n      swap1\n      0x01\n      add\n      swap1\n      0x20\n      add\n      dup1\n      dup4\n      gt\n      tag_156\n      jumpi\n      dup3\n      swap1\n      sub\n      0x1f\n      and\n      dup3\n      add\n      swap2\n    tag_154:\n      pop\n      pop\n      pop\n      pop\n      pop\n      swap1\n      dup1\n      0x03\n      add\n      dup1\n      sload\n      tag_157\n      swap1\n      tag_147\n      jump\t// in\n    tag_157:\n      dup1\n      0x1f\n      add\n      0x20\n      dup1\n      swap2\n      div\n      mul\n      0x20\n      add\n      mload(0x40)\n      swap1\n      dup2\n      add\n      0x40\n      mstore\n      dup1\n      swap3\n      swap2\n      swap1\n      dup2\n      dup2\n      mstore\n      0x20\n      add\n      dup3\n      dup1\n      sload\n      tag_158\n      swap1\n      tag_147\n      jump\t// in\n    tag_158:\n      dup1\n      iszero\n      tag_159\n      jumpi\n      dup1\n      0x1f\n      lt\n      tag_160\n      jumpi\n      0x0100\n      dup1\n      dup4\n      sload\n      div\n      mul\n      dup4\n      mstore\n      swap2\n      0x20\n      add\n      swap2\n      jump(tag_159)\n    tag_160:\n      dup3\n      add\n      swap2\n      swap1\n      0x00\n      mstore\n      keccak256(0x00, 0x20)\n      swap1\n    tag_161:\n      dup2\n      sload\n      dup2\n      mstore\n      swap1\n      0x01\n      add\n      swap1\n      0x20\n      add\n      dup1\n      dup4\n      gt\n      tag_161\n      jumpi\n      dup3\n      swap1\n      sub\n      0x1f\n      and\n      dup3\n      add\n      swap2\n    tag_159:\n      pop\n      pop\n      pop\n      pop\n      pop\n      swap1\n      dup1\n      0x04\n      add\n      sload\n      swap1\n      dup1\n      0x05\n      add\n      sload\n      swap1\n      dup1\n      0x06\n      add\n      sload\n      swap1\n      dup1\n      0x07\n      add\n      0x00\n      swap1\n      sload\n      swap1\n      0x0100\n      exp\n      swap1\n      div\n      0xffffffff\n      and\n      swap1\n      pop\n      dup9\n      jump\t// out\n        /* \"contracts/CarreraCoches/principal.sol\":2292:2604  function verCochePropietario(address _propietario) external {\r... */\n    tag_58:\n        /* \"contracts/CarreraCoches/principal.sol\":2367:2373  uint i */\n      0x00\n        /* \"contracts/CarreraCoches/principal.sol\":2363:2597  for(uint i = 0; i < listaCoches.length; i++){\r... */\n    tag_163:\n        /* \"contracts/CarreraCoches/principal.sol\":2383:2394  listaCoches */\n      0x05\n        /* \"contracts/CarreraCoches/principal.sol\":2383:2401  listaCoches.length */\n      dup1\n      sload\n      swap1\n      pop\n        /* \"contracts/CarreraCoches/principal.sol\":2379:2380  i */\n      dup2\n        /* \"contracts/CarreraCoches/principal.sol\":2379:2401  i < listaCoches.length */\n      lt\n        /* \"contracts/CarreraCoches/principal.sol\":2363:2597  for(uint i = 0; i < listaCoches.length; i++){\r... */\n      iszero\n      tag_164\n      jumpi\n        /* \"contracts/CarreraCoches/principal.sol\":2450:2462  _propietario */\n      dup2\n        /* \"contracts/CarreraCoches/principal.sol\":2425:2462  listaCoches[i].idPiloto==_propietario */\n      0xffffffffffffffffffffffffffffffffffffffff\n      and\n        /* \"contracts/CarreraCoches/principal.sol\":2425:2436  listaCoches */\n      0x05\n        /* \"contracts/CarreraCoches/principal.sol\":2437:2438  i */\n      dup3\n        /* \"contracts/CarreraCoches/principal.sol\":2425:2439  listaCoches[i] */\n      dup2\n      sload\n      dup2\n      lt\n      tag_166\n      jumpi\n      tag_167\n      tag_87\n      jump\t// in\n    tag_167:\n    tag_166:\n      swap1\n      0x00\n      mstore\n      keccak256(0x00, 0x20)\n      swap1\n      0x08\n      mul\n      add\n        /* \"contracts/CarreraCoches/principal.sol\":2425:2448  listaCoches[i].idPiloto */\n      0x00\n      add\n      0x00\n      swap1\n      sload\n      swap1\n      0x0100\n      exp\n      swap1\n      div\n      0xffffffffffffffffffffffffffffffffffffffff\n      and\n        /* \"contracts/CarreraCoches/principal.sol\":2425:2462  listaCoches[i].idPiloto==_propietario */\n      0xffffffffffffffffffffffffffffffffffffffff\n      and\n      eq\n        /* \"contracts/CarreraCoches/principal.sol\":2422:2586  if(listaCoches[i].idPiloto==_propietario){\r... */\n      iszero\n      tag_169\n      jumpi\n        /* \"contracts/CarreraCoches/principal.sol\":2487:2570  cochePropietario(listaCoches[i].marca, listaCoches[i].modelo, listaCoches[i].nivel) */\n      0x4d8b408f48fd4450357b5fbd9b157b451b3a9a7b0228ab3afefe4d0551d5fc14\n        /* \"contracts/CarreraCoches/principal.sol\":2504:2515  listaCoches */\n      0x05\n        /* \"contracts/CarreraCoches/principal.sol\":2516:2517  i */\n      dup3\n        /* \"contracts/CarreraCoches/principal.sol\":2504:2518  listaCoches[i] */\n      dup2\n      sload\n      dup2\n      lt\n      tag_170\n      jumpi\n      tag_171\n      tag_87\n      jump\t// in\n    tag_171:\n    tag_170:\n      swap1\n      0x00\n      mstore\n      keccak256(0x00, 0x20)\n      swap1\n      0x08\n      mul\n      add\n        /* \"contracts/CarreraCoches/principal.sol\":2504:2524  listaCoches[i].marca */\n      0x02\n      add\n        /* \"contracts/CarreraCoches/principal.sol\":2526:2537  listaCoches */\n      0x05\n        /* \"contracts/CarreraCoches/principal.sol\":2538:2539  i */\n      dup4\n        /* \"contracts/CarreraCoches/principal.sol\":2526:2540  listaCoches[i] */\n      dup2\n      sload\n      dup2\n      lt\n      tag_173\n      jumpi\n      tag_174\n      tag_87\n      jump\t// in\n    tag_174:\n    tag_173:\n      swap1\n      0x00\n      mstore\n      keccak256(0x00, 0x20)\n      swap1\n      0x08\n      mul\n      add\n        /* \"contracts/CarreraCoches/principal.sol\":2526:2547  listaCoches[i].modelo */\n      0x01\n      add\n        /* \"contracts/CarreraCoches/principal.sol\":2549:2560  listaCoches */\n      0x05\n        /* \"contracts/CarreraCoches/principal.sol\":2561:2562  i */\n      dup5\n        /* \"contracts/CarreraCoches/principal.sol\":2549:2563  listaCoches[i] */\n      dup2\n      sload\n      dup2\n      lt\n      tag_176\n      jumpi\n      tag_177\n      tag_87\n      jump\t// in\n    tag_177:\n    tag_176:\n      swap1\n      0x00\n      mstore\n      keccak256(0x00, 0x20)\n      swap1\n      0x08\n      mul\n      add\n        /* \"contracts/CarreraCoches/principal.sol\":2549:2569  listaCoches[i].nivel */\n      0x07\n      add\n      0x00\n      swap1\n      sload\n      swap1\n      0x0100\n      exp\n      swap1\n      div\n      0xffffffff\n      and\n        /* \"contracts/CarreraCoches/principal.sol\":2487:2570  cochePropietario(listaCoches[i].marca, listaCoches[i].modelo, listaCoches[i].nivel) */\n      mload(0x40)\n      tag_179\n      swap4\n      swap3\n      swap2\n      swap1\n      tag_180\n      jump\t// in\n    tag_179:\n      mload(0x40)\n      dup1\n      swap2\n      sub\n      swap1\n      log1\n        /* \"contracts/CarreraCoches/principal.sol\":2422:2586  if(listaCoches[i].idPiloto==_propietario){\r... */\n    tag_169:\n        /* \"contracts/CarreraCoches/principal.sol\":2403:2406  i++ */\n      dup1\n      dup1\n      tag_181\n      swap1\n      tag_76\n      jump\t// in\n    tag_181:\n      swap2\n      pop\n      pop\n        /* \"contracts/CarreraCoches/principal.sol\":2363:2597  for(uint i = 0; i < listaCoches.length; i++){\r... */\n      jump(tag_163)\n    tag_164:\n      pop\n        /* \"contracts/CarreraCoches/principal.sol\":2292:2604  function verCochePropietario(address _propietario) external {\r... */\n      pop\n      jump\t// out\n        /* \"contracts/CarreraCoches/ownable.sol\":1978:2179  function transferOwnership(address newOwner) public virtual onlyOwner {\r... */\n    tag_62:\n        /* \"contracts/CarreraCoches/ownable.sol\":1300:1312  _msgSender() */\n      tag_183\n        /* \"contracts/CarreraCoches/ownable.sol\":1300:1310  _msgSender */\n      tag_135\n        /* \"contracts/CarreraCoches/ownable.sol\":1300:1312  _msgSender() */\n      jump\t// in\n    tag_183:\n        /* \"contracts/CarreraCoches/ownable.sol\":1289:1312  owner() == _msgSender() */\n      0xffffffffffffffffffffffffffffffffffffffff\n      and\n        /* \"contracts/CarreraCoches/ownable.sol\":1289:1296  owner() */\n      tag_184\n        /* \"contracts/CarreraCoches/ownable.sol\":1289:1294  owner */\n      tag_47\n        /* \"contracts/CarreraCoches/ownable.sol\":1289:1296  owner() */\n      jump\t// in\n    tag_184:\n        /* \"contracts/CarreraCoches/ownable.sol\":1289:1312  owner() == _msgSender() */\n      0xffffffffffffffffffffffffffffffffffffffff\n      and\n      eq\n        /* \"contracts/CarreraCoches/ownable.sol\":1281:1349  require(owner() == _msgSender(), \"Ownable: caller is not the owner\") */\n      tag_185\n      jumpi\n      mload(0x40)\n      0x08c379a000000000000000000000000000000000000000000000000000000000\n      dup2\n      mstore\n      0x04\n      add\n      tag_186\n      swap1\n      tag_139\n      jump\t// in\n    tag_186:\n      mload(0x40)\n      dup1\n      swap2\n      sub\n      swap1\n      revert\n    tag_185:\n        /* \"contracts/CarreraCoches/ownable.sol\":2087:2088  0 */\n      0x00\n        /* \"contracts/CarreraCoches/ownable.sol\":2067:2089  newOwner != address(0) */\n      0xffffffffffffffffffffffffffffffffffffffff\n      and\n        /* \"contracts/CarreraCoches/ownable.sol\":2067:2075  newOwner */\n      dup2\n        /* \"contracts/CarreraCoches/ownable.sol\":2067:2089  newOwner != address(0) */\n      0xffffffffffffffffffffffffffffffffffffffff\n      and\n      eq\n      iszero\n        /* \"contracts/CarreraCoches/ownable.sol\":2059:2132  require(newOwner != address(0), \"Ownable: new owner is the zero address\") */\n      tag_188\n      jumpi\n      mload(0x40)\n      0x08c379a000000000000000000000000000000000000000000000000000000000\n      dup2\n      mstore\n      0x04\n      add\n      tag_189\n      swap1\n      tag_190\n      jump\t// in\n    tag_189:\n      mload(0x40)\n      dup1\n      swap2\n      sub\n      swap1\n      revert\n    tag_188:\n        /* \"contracts/CarreraCoches/ownable.sol\":2143:2171  _transferOwnership(newOwner) */\n      tag_191\n        /* \"contracts/CarreraCoches/ownable.sol\":2162:2170  newOwner */\n      dup2\n        /* \"contracts/CarreraCoches/ownable.sol\":2143:2161  _transferOwnership */\n      tag_142\n        /* \"contracts/CarreraCoches/ownable.sol\":2143:2171  _transferOwnership(newOwner) */\n      jump\t// in\n    tag_191:\n        /* \"contracts/CarreraCoches/ownable.sol\":1978:2179  function transferOwnership(address newOwner) public virtual onlyOwner {\r... */\n      pop\n      jump\t// out\n        /* \"contracts/CarreraCoches/principal.sol\":4174:4353  function balance() private {\r... */\n    tag_115:\n        /* \"contracts/CarreraCoches/principal.sol\":4221:4231  msg.sender */\n      caller\n        /* \"contracts/CarreraCoches/principal.sol\":4212:4241  payable (msg.sender).transfer */\n      0xffffffffffffffffffffffffffffffffffffffff\n      and\n        /* \"contracts/CarreraCoches/principal.sol\":4212:4268  payable (msg.sender).transfer((address(this).balance)*2) */\n      0x08fc\n        /* \"contracts/CarreraCoches/principal.sol\":4266:4267  2 */\n      0x02\n        /* \"contracts/CarreraCoches/principal.sol\":4243:4264  address(this).balance */\n      selfbalance\n        /* \"contracts/CarreraCoches/principal.sol\":4242:4267  (address(this).balance)*2 */\n      tag_193\n      swap2\n      swap1\n      tag_194\n      jump\t// in\n    tag_193:\n        /* \"contracts/CarreraCoches/principal.sol\":4212:4268  payable (msg.sender).transfer((address(this).balance)*2) */\n      swap1\n      dup2\n      iszero\n      mul\n      swap1\n      mload(0x40)\n      0x00\n      mload(0x40)\n      dup1\n      dup4\n      sub\n      dup2\n      dup6\n      dup9\n      dup9\n      call\n      swap4\n      pop\n      pop\n      pop\n      pop\n      iszero\n      dup1\n      iszero\n      tag_196\n      jumpi\n      returndatasize\n      0x00\n      dup1\n      returndatacopy\n      revert(0x00, returndatasize)\n    tag_196:\n      pop\n        /* \"contracts/CarreraCoches/principal.sol\":4284:4345  mostrarResultado(\"Has ganado: \", ((address(this).balance)*2)) */\n      0xa28482eec3136a2461c6c30c08f71ba279c6c51a2d9c7bea4e50d6d2632f3896\n        /* \"contracts/CarreraCoches/principal.sol\":4342:4343  2 */\n      0x02\n        /* \"contracts/CarreraCoches/principal.sol\":4319:4340  address(this).balance */\n      selfbalance\n        /* \"contracts/CarreraCoches/principal.sol\":4318:4343  (address(this).balance)*2 */\n      tag_197\n      swap2\n      swap1\n      tag_194\n      jump\t// in\n    tag_197:\n        /* \"contracts/CarreraCoches/principal.sol\":4284:4345  mostrarResultado(\"Has ganado: \", ((address(this).balance)*2)) */\n      mload(0x40)\n      tag_198\n      swap2\n      swap1\n      tag_199\n      jump\t// in\n    tag_198:\n      mload(0x40)\n      dup1\n      swap2\n      sub\n      swap1\n      log1\n        /* \"contracts/CarreraCoches/principal.sol\":4174:4353  function balance() private {\r... */\n      jump\t// out\n        /* \"contracts/CarreraCoches/utils/Context.sol\":656:754  function _msgSender() internal view virtual returns (address) {\r... */\n    tag_135:\n        /* \"contracts/CarreraCoches/utils/Context.sol\":709:716  address */\n      0x00\n        /* \"contracts/CarreraCoches/utils/Context.sol\":736:746  msg.sender */\n      caller\n        /* \"contracts/CarreraCoches/utils/Context.sol\":729:746  return msg.sender */\n      swap1\n      pop\n        /* \"contracts/CarreraCoches/utils/Context.sol\":656:754  function _msgSender() internal view virtual returns (address) {\r... */\n      swap1\n      jump\t// out\n        /* \"contracts/CarreraCoches/ownable.sol\":2339:2530  function _transferOwnership(address newOwner) internal virtual {\r... */\n    tag_142:\n        /* \"contracts/CarreraCoches/ownable.sol\":2413:2429  address oldOwner */\n      0x00\n        /* \"contracts/CarreraCoches/ownable.sol\":2432:2438  _owner */\n      dup1\n      0x00\n      swap1\n      sload\n      swap1\n      0x0100\n      exp\n      swap1\n      div\n      0xffffffffffffffffffffffffffffffffffffffff\n      and\n        /* \"contracts/CarreraCoches/ownable.sol\":2413:2438  address oldOwner = _owner */\n      swap1\n      pop\n        /* \"contracts/CarreraCoches/ownable.sol\":2458:2466  newOwner */\n      dup2\n        /* \"contracts/CarreraCoches/ownable.sol\":2449:2455  _owner */\n      0x00\n      dup1\n        /* \"contracts/CarreraCoches/ownable.sol\":2449:2466  _owner = newOwner */\n      0x0100\n      exp\n      dup2\n      sload\n      dup2\n      0xffffffffffffffffffffffffffffffffffffffff\n      mul\n      not\n      and\n      swap1\n      dup4\n      0xffffffffffffffffffffffffffffffffffffffff\n      and\n      mul\n      or\n      swap1\n      sstore\n      pop\n        /* \"contracts/CarreraCoches/ownable.sol\":2513:2521  newOwner */\n      dup2\n        /* \"contracts/CarreraCoches/ownable.sol\":2482:2522  OwnershipTransferred(oldOwner, newOwner) */\n      0xffffffffffffffffffffffffffffffffffffffff\n      and\n        /* \"contracts/CarreraCoches/ownable.sol\":2503:2511  oldOwner */\n      dup2\n        /* \"contracts/CarreraCoches/ownable.sol\":2482:2522  OwnershipTransferred(oldOwner, newOwner) */\n      0xffffffffffffffffffffffffffffffffffffffff\n      and\n      0x8be0079c531659141344cd1fd0a4f28419497f9722a3daafe3b4186f6b6457e0\n      mload(0x40)\n      mload(0x40)\n      dup1\n      swap2\n      sub\n      swap1\n      log3\n        /* \"contracts/CarreraCoches/ownable.sol\":2402:2530  {\r... */\n      pop\n        /* \"contracts/CarreraCoches/ownable.sol\":2339:2530  function _transferOwnership(address newOwner) internal virtual {\r... */\n      pop\n      jump\t// out\n    tag_72:\n      dup3\n      dup1\n      sload\n      tag_204\n      swap1\n      tag_147\n      jump\t// in\n    tag_204:\n      swap1\n      0x00\n      mstore\n      keccak256(0x00, 0x20)\n      swap1\n      0x1f\n      add\n      0x20\n      swap1\n      div\n      dup2\n      add\n      swap3\n      dup3\n      tag_206\n      jumpi\n      0x00\n      dup6\n      sstore\n      jump(tag_205)\n    tag_206:\n      dup3\n      0x1f\n      lt\n      tag_207\n      jumpi\n      dup1\n      mload\n      not(0xff)\n      and\n      dup4\n      dup1\n      add\n      or\n      dup6\n      sstore\n      jump(tag_205)\n    tag_207:\n      dup3\n      dup1\n      add\n      0x01\n      add\n      dup6\n      sstore\n      dup3\n      iszero\n      tag_205\n      jumpi\n      swap2\n      dup3\n      add\n    tag_208:\n      dup3\n      dup2\n      gt\n      iszero\n      tag_209\n      jumpi\n      dup3\n      mload\n      dup3\n      sstore\n      swap2\n      0x20\n      add\n      swap2\n      swap1\n      0x01\n      add\n      swap1\n      jump(tag_208)\n    tag_209:\n    tag_205:\n      pop\n      swap1\n      pop\n      tag_210\n      swap2\n      swap1\n      tag_211\n      jump\t// in\n    tag_210:\n      pop\n      swap1\n      jump\t// out\n    tag_211:\n    tag_212:\n      dup1\n      dup3\n      gt\n      iszero\n      tag_213\n      jumpi\n      0x00\n      dup2\n      0x00\n      swap1\n      sstore\n      pop\n      0x01\n      add\n      jump(tag_212)\n    tag_213:\n      pop\n      swap1\n      jump\t// out\n        /* \"#utility.yul\":7:419   */\n    tag_215:\n        /* \"#utility.yul\":85:90   */\n      0x00\n        /* \"#utility.yul\":110:176   */\n      tag_217\n        /* \"#utility.yul\":126:175   */\n      tag_218\n        /* \"#utility.yul\":168:174   */\n      dup5\n        /* \"#utility.yul\":126:175   */\n      tag_219\n      jump\t// in\n    tag_218:\n        /* \"#utility.yul\":110:176   */\n      tag_220\n      jump\t// in\n    tag_217:\n        /* \"#utility.yul\":101:176   */\n      swap1\n      pop\n        /* \"#utility.yul\":199:205   */\n      dup3\n        /* \"#utility.yul\":192:197   */\n      dup2\n        /* \"#utility.yul\":185:206   */\n      mstore\n        /* \"#utility.yul\":237:241   */\n      0x20\n        /* \"#utility.yul\":230:235   */\n      dup2\n        /* \"#utility.yul\":226:242   */\n      add\n        /* \"#utility.yul\":275:278   */\n      dup5\n        /* \"#utility.yul\":266:272   */\n      dup5\n        /* \"#utility.yul\":261:264   */\n      dup5\n        /* \"#utility.yul\":257:273   */\n      add\n        /* \"#utility.yul\":254:279   */\n      gt\n        /* \"#utility.yul\":251:363   */\n      iszero\n      tag_221\n      jumpi\n        /* \"#utility.yul\":282:361   */\n      tag_222\n      tag_223\n      jump\t// in\n    tag_222:\n        /* \"#utility.yul\":251:363   */\n    tag_221:\n        /* \"#utility.yul\":372:413   */\n      tag_224\n        /* \"#utility.yul\":406:412   */\n      dup5\n        /* \"#utility.yul\":401:404   */\n      dup3\n        /* \"#utility.yul\":396:399   */\n      dup6\n        /* \"#utility.yul\":372:413   */\n      tag_225\n      jump\t// in\n    tag_224:\n        /* \"#utility.yul\":91:419   */\n      pop\n        /* \"#utility.yul\":7:419   */\n      swap4\n      swap3\n      pop\n      pop\n      pop\n      jump\t// out\n        /* \"#utility.yul\":425:564   */\n    tag_226:\n        /* \"#utility.yul\":471:476   */\n      0x00\n        /* \"#utility.yul\":509:515   */\n      dup2\n        /* \"#utility.yul\":496:516   */\n      calldataload\n        /* \"#utility.yul\":487:516   */\n      swap1\n      pop\n        /* \"#utility.yul\":525:558   */\n      tag_228\n        /* \"#utility.yul\":552:557   */\n      dup2\n        /* \"#utility.yul\":525:558   */\n      tag_229\n      jump\t// in\n    tag_228:\n        /* \"#utility.yul\":425:564   */\n      swap3\n      swap2\n      pop\n      pop\n      jump\t// out\n        /* \"#utility.yul\":584:924   */\n    tag_230:\n        /* \"#utility.yul\":640:645   */\n      0x00\n        /* \"#utility.yul\":689:692   */\n      dup3\n        /* \"#utility.yul\":682:686   */\n      0x1f\n        /* \"#utility.yul\":674:680   */\n      dup4\n        /* \"#utility.yul\":670:687   */\n      add\n        /* \"#utility.yul\":666:693   */\n      slt\n        /* \"#utility.yul\":656:778   */\n      tag_232\n      jumpi\n        /* \"#utility.yul\":697:776   */\n      tag_233\n      tag_234\n      jump\t// in\n    tag_233:\n        /* \"#utility.yul\":656:778   */\n    tag_232:\n        /* \"#utility.yul\":814:820   */\n      dup2\n        /* \"#utility.yul\":801:821   */\n      calldataload\n        /* \"#utility.yul\":839:918   */\n      tag_235\n        /* \"#utility.yul\":914:917   */\n      dup5\n        /* \"#utility.yul\":906:912   */\n      dup3\n        /* \"#utility.yul\":899:903   */\n      0x20\n        /* \"#utility.yul\":891:897   */\n      dup7\n        /* \"#utility.yul\":887:904   */\n      add\n        /* \"#utility.yul\":839:918   */\n      tag_215\n      jump\t// in\n    tag_235:\n        /* \"#utility.yul\":830:918   */\n      swap2\n      pop\n        /* \"#utility.yul\":646:924   */\n      pop\n        /* \"#utility.yul\":584:924   */\n      swap3\n      swap2\n      pop\n      pop\n      jump\t// out\n        /* \"#utility.yul\":930:1069   */\n    tag_236:\n        /* \"#utility.yul\":976:981   */\n      0x00\n        /* \"#utility.yul\":1014:1020   */\n      dup2\n        /* \"#utility.yul\":1001:1021   */\n      calldataload\n        /* \"#utility.yul\":992:1021   */\n      swap1\n      pop\n        /* \"#utility.yul\":1030:1063   */\n      tag_238\n        /* \"#utility.yul\":1057:1062   */\n      dup2\n        /* \"#utility.yul\":1030:1063   */\n      tag_239\n      jump\t// in\n    tag_238:\n        /* \"#utility.yul\":930:1069   */\n      swap3\n      swap2\n      pop\n      pop\n      jump\t// out\n        /* \"#utility.yul\":1075:1404   */\n    tag_16:\n        /* \"#utility.yul\":1134:1140   */\n      0x00\n        /* \"#utility.yul\":1183:1185   */\n      0x20\n        /* \"#utility.yul\":1171:1180   */\n      dup3\n        /* \"#utility.yul\":1162:1169   */\n      dup5\n        /* \"#utility.yul\":1158:1181   */\n      sub\n        /* \"#utility.yul\":1154:1186   */\n      slt\n        /* \"#utility.yul\":1151:1270   */\n      iszero\n      tag_241\n      jumpi\n        /* \"#utility.yul\":1189:1268   */\n      tag_242\n      tag_243\n      jump\t// in\n    tag_242:\n        /* \"#utility.yul\":1151:1270   */\n    tag_241:\n        /* \"#utility.yul\":1309:1310   */\n      0x00\n        /* \"#utility.yul\":1334:1387   */\n      tag_244\n        /* \"#utility.yul\":1379:1386   */\n      dup5\n        /* \"#utility.yul\":1370:1376   */\n      dup3\n        /* \"#utility.yul\":1359:1368   */\n      dup6\n        /* \"#utility.yul\":1355:1377   */\n      add\n        /* \"#utility.yul\":1334:1387   */\n      tag_226\n      jump\t// in\n    tag_244:\n        /* \"#utility.yul\":1324:1387   */\n      swap2\n      pop\n        /* \"#utility.yul\":1280:1397   */\n      pop\n        /* \"#utility.yul\":1075:1404   */\n      swap3\n      swap2\n      pop\n      pop\n      jump\t// out\n        /* \"#utility.yul\":1410:2569   */\n    tag_23:\n        /* \"#utility.yul\":1517:1523   */\n      0x00\n        /* \"#utility.yul\":1525:1531   */\n      dup1\n        /* \"#utility.yul\":1533:1539   */\n      0x00\n        /* \"#utility.yul\":1582:1584   */\n      0x60\n        /* \"#utility.yul\":1570:1579   */\n      dup5\n        /* \"#utility.yul\":1561:1568   */\n      dup7\n        /* \"#utility.yul\":1557:1580   */\n      sub\n        /* \"#utility.yul\":1553:1585   */\n      slt\n        /* \"#utility.yul\":1550:1669   */\n      iszero\n      tag_246\n      jumpi\n        /* \"#utility.yul\":1588:1667   */\n      tag_247\n      tag_243\n      jump\t// in\n    tag_247:\n        /* \"#utility.yul\":1550:1669   */\n    tag_246:\n        /* \"#utility.yul\":1736:1737   */\n      0x00\n        /* \"#utility.yul\":1725:1734   */\n      dup5\n        /* \"#utility.yul\":1721:1738   */\n      add\n        /* \"#utility.yul\":1708:1739   */\n      calldataload\n        /* \"#utility.yul\":1766:1784   */\n      0xffffffffffffffff\n        /* \"#utility.yul\":1758:1764   */\n      dup2\n        /* \"#utility.yul\":1755:1785   */\n      gt\n        /* \"#utility.yul\":1752:1869   */\n      iszero\n      tag_248\n      jumpi\n        /* \"#utility.yul\":1788:1867   */\n      tag_249\n      tag_250\n      jump\t// in\n    tag_249:\n        /* \"#utility.yul\":1752:1869   */\n    tag_248:\n        /* \"#utility.yul\":1893:1956   */\n      tag_251\n        /* \"#utility.yul\":1948:1955   */\n      dup7\n        /* \"#utility.yul\":1939:1945   */\n      dup3\n        /* \"#utility.yul\":1928:1937   */\n      dup8\n        /* \"#utility.yul\":1924:1946   */\n      add\n        /* \"#utility.yul\":1893:1956   */\n      tag_230\n      jump\t// in\n    tag_251:\n        /* \"#utility.yul\":1883:1956   */\n      swap4\n      pop\n        /* \"#utility.yul\":1679:1966   */\n      pop\n        /* \"#utility.yul\":2033:2035   */\n      0x20\n        /* \"#utility.yul\":2022:2031   */\n      dup5\n        /* \"#utility.yul\":2018:2036   */\n      add\n        /* \"#utility.yul\":2005:2037   */\n      calldataload\n        /* \"#utility.yul\":2064:2082   */\n      0xffffffffffffffff\n        /* \"#utility.yul\":2056:2062   */\n      dup2\n        /* \"#utility.yul\":2053:2083   */\n      gt\n        /* \"#utility.yul\":2050:2167   */\n      iszero\n      tag_252\n      jumpi\n        /* \"#utility.yul\":2086:2165   */\n      tag_253\n      tag_250\n      jump\t// in\n    tag_253:\n        /* \"#utility.yul\":2050:2167   */\n    tag_252:\n        /* \"#utility.yul\":2191:2254   */\n      tag_254\n        /* \"#utility.yul\":2246:2253   */\n      dup7\n        /* \"#utility.yul\":2237:2243   */\n      dup3\n        /* \"#utility.yul\":2226:2235   */\n      dup8\n        /* \"#utility.yul\":2222:2244   */\n      add\n        /* \"#utility.yul\":2191:2254   */\n      tag_230\n      jump\t// in\n    tag_254:\n        /* \"#utility.yul\":2181:2254   */\n      swap3\n      pop\n        /* \"#utility.yul\":1976:2264   */\n      pop\n        /* \"#utility.yul\":2331:2333   */\n      0x40\n        /* \"#utility.yul\":2320:2329   */\n      dup5\n        /* \"#utility.yul\":2316:2334   */\n      add\n        /* \"#utility.yul\":2303:2335   */\n      calldataload\n        /* \"#utility.yul\":2362:2380   */\n      0xffffffffffffffff\n        /* \"#utility.yul\":2354:2360   */\n      dup2\n        /* \"#utility.yul\":2351:2381   */\n      gt\n        /* \"#utility.yul\":2348:2465   */\n      iszero\n      tag_255\n      jumpi\n        /* \"#utility.yul\":2384:2463   */\n      tag_256\n      tag_250\n      jump\t// in\n    tag_256:\n        /* \"#utility.yul\":2348:2465   */\n    tag_255:\n        /* \"#utility.yul\":2489:2552   */\n      tag_257\n        /* \"#utility.yul\":2544:2551   */\n      dup7\n        /* \"#utility.yul\":2535:2541   */\n      dup3\n        /* \"#utility.yul\":2524:2533   */\n      dup8\n        /* \"#utility.yul\":2520:2542   */\n      add\n        /* \"#utility.yul\":2489:2552   */\n      tag_230\n      jump\t// in\n    tag_257:\n        /* \"#utility.yul\":2479:2552   */\n      swap2\n      pop\n        /* \"#utility.yul\":2274:2562   */\n      pop\n        /* \"#utility.yul\":1410:2569   */\n      swap3\n      pop\n      swap3\n      pop\n      swap3\n      jump\t// out\n        /* \"#utility.yul\":2575:2904   */\n    tag_33:\n        /* \"#utility.yul\":2634:2640   */\n      0x00\n        /* \"#utility.yul\":2683:2685   */\n      0x20\n        /* \"#utility.yul\":2671:2680   */\n      dup3\n        /* \"#utility.yul\":2662:2669   */\n      dup5\n        /* \"#utility.yul\":2658:2681   */\n      sub\n        /* \"#utility.yul\":2654:2686   */\n      slt\n        /* \"#utility.yul\":2651:2770   */\n      iszero\n      tag_259\n      jumpi\n        /* \"#utility.yul\":2689:2768   */\n      tag_260\n      tag_243\n      jump\t// in\n    tag_260:\n        /* \"#utility.yul\":2651:2770   */\n    tag_259:\n        /* \"#utility.yul\":2809:2810   */\n      0x00\n        /* \"#utility.yul\":2834:2887   */\n      tag_261\n        /* \"#utility.yul\":2879:2886   */\n      dup5\n        /* \"#utility.yul\":2870:2876   */\n      dup3\n        /* \"#utility.yul\":2859:2868   */\n      dup6\n        /* \"#utility.yul\":2855:2877   */\n      add\n        /* \"#utility.yul\":2834:2887   */\n      tag_236\n      jump\t// in\n    tag_261:\n        /* \"#utility.yul\":2824:2887   */\n      swap2\n      pop\n        /* \"#utility.yul\":2780:2897   */\n      pop\n        /* \"#utility.yul\":2575:2904   */\n      swap3\n      swap2\n      pop\n      pop\n      jump\t// out\n        /* \"#utility.yul\":2910:3028   */\n    tag_262:\n        /* \"#utility.yul\":2997:3021   */\n      tag_264\n        /* \"#utility.yul\":3015:3020   */\n      dup2\n        /* \"#utility.yul\":2997:3021   */\n      tag_265\n      jump\t// in\n    tag_264:\n        /* \"#utility.yul\":2992:2995   */\n      dup3\n        /* \"#utility.yul\":2985:3022   */\n      mstore\n        /* \"#utility.yul\":2910:3028   */\n      pop\n      pop\n      jump\t// out\n        /* \"#utility.yul\":3034:3398   */\n    tag_266:\n        /* \"#utility.yul\":3122:3125   */\n      0x00\n        /* \"#utility.yul\":3150:3189   */\n      tag_268\n        /* \"#utility.yul\":3183:3188   */\n      dup3\n        /* \"#utility.yul\":3150:3189   */\n      tag_269\n      jump\t// in\n    tag_268:\n        /* \"#utility.yul\":3205:3276   */\n      tag_270\n        /* \"#utility.yul\":3269:3275   */\n      dup2\n        /* \"#utility.yul\":3264:3267   */\n      dup6\n        /* \"#utility.yul\":3205:3276   */\n      tag_271\n      jump\t// in\n    tag_270:\n        /* \"#utility.yul\":3198:3276   */\n      swap4\n      pop\n        /* \"#utility.yul\":3285:3337   */\n      tag_272\n        /* \"#utility.yul\":3330:3336   */\n      dup2\n        /* \"#utility.yul\":3325:3328   */\n      dup6\n        /* \"#utility.yul\":3318:3322   */\n      0x20\n        /* \"#utility.yul\":3311:3316   */\n      dup7\n        /* \"#utility.yul\":3307:3323   */\n      add\n        /* \"#utility.yul\":3285:3337   */\n      tag_273\n      jump\t// in\n    tag_272:\n        /* \"#utility.yul\":3362:3391   */\n      tag_274\n        /* \"#utility.yul\":3384:3390   */\n      dup2\n        /* \"#utility.yul\":3362:3391   */\n      tag_275\n      jump\t// in\n    tag_274:\n        /* \"#utility.yul\":3357:3360   */\n      dup5\n        /* \"#utility.yul\":3353:3392   */\n      add\n        /* \"#utility.yul\":3346:3392   */\n      swap2\n      pop\n        /* \"#utility.yul\":3126:3398   */\n      pop\n        /* \"#utility.yul\":3034:3398   */\n      swap3\n      swap2\n      pop\n      pop\n      jump\t// out\n        /* \"#utility.yul\":3428:4230   */\n    tag_276:\n        /* \"#utility.yul\":3513:3516   */\n      0x00\n        /* \"#utility.yul\":3550:3555   */\n      dup2\n        /* \"#utility.yul\":3544:3556   */\n      sload\n        /* \"#utility.yul\":3579:3615   */\n      tag_278\n        /* \"#utility.yul\":3605:3614   */\n      dup2\n        /* \"#utility.yul\":3579:3615   */\n      tag_147\n      jump\t// in\n    tag_278:\n        /* \"#utility.yul\":3631:3702   */\n      tag_279\n        /* \"#utility.yul\":3695:3701   */\n      dup2\n        /* \"#utility.yul\":3690:3693   */\n      dup7\n        /* \"#utility.yul\":3631:3702   */\n      tag_271\n      jump\t// in\n    tag_279:\n        /* \"#utility.yul\":3624:3702   */\n      swap5\n      pop\n        /* \"#utility.yul\":3733:3734   */\n      0x01\n        /* \"#utility.yul\":3722:3731   */\n      dup3\n        /* \"#utility.yul\":3718:3735   */\n      and\n        /* \"#utility.yul\":3749:3750   */\n      0x00\n        /* \"#utility.yul\":3744:3879   */\n      dup2\n      eq\n      tag_281\n      jumpi\n        /* \"#utility.yul\":3893:3894   */\n      0x01\n        /* \"#utility.yul\":3888:4224   */\n      dup2\n      eq\n      tag_282\n      jumpi\n        /* \"#utility.yul\":3711:4224   */\n      jump(tag_280)\n        /* \"#utility.yul\":3744:3879   */\n    tag_281:\n        /* \"#utility.yul\":3828:3832   */\n      0xff\n        /* \"#utility.yul\":3824:3833   */\n      not\n        /* \"#utility.yul\":3813:3822   */\n      dup4\n        /* \"#utility.yul\":3809:3834   */\n      and\n        /* \"#utility.yul\":3804:3807   */\n      dup7\n        /* \"#utility.yul\":3797:3835   */\n      mstore\n        /* \"#utility.yul\":3864:3868   */\n      0x20\n        /* \"#utility.yul\":3859:3862   */\n      dup7\n        /* \"#utility.yul\":3855:3869   */\n      add\n        /* \"#utility.yul\":3848:3869   */\n      swap4\n      pop\n        /* \"#utility.yul\":3744:3879   */\n      jump(tag_280)\n        /* \"#utility.yul\":3888:4224   */\n    tag_282:\n        /* \"#utility.yul\":3955:3993   */\n      tag_283\n        /* \"#utility.yul\":3987:3992   */\n      dup6\n        /* \"#utility.yul\":3955:3993   */\n      tag_284\n      jump\t// in\n    tag_283:\n        /* \"#utility.yul\":4015:4016   */\n      0x00\n        /* \"#utility.yul\":4029:4183   */\n    tag_285:\n        /* \"#utility.yul\":4043:4049   */\n      dup4\n        /* \"#utility.yul\":4040:4041   */\n      dup2\n        /* \"#utility.yul\":4037:4050   */\n      lt\n        /* \"#utility.yul\":4029:4183   */\n      iszero\n      tag_287\n      jumpi\n        /* \"#utility.yul\":4117:4124   */\n      dup2\n        /* \"#utility.yul\":4111:4125   */\n      sload\n        /* \"#utility.yul\":4107:4108   */\n      dup2\n        /* \"#utility.yul\":4102:4105   */\n      dup10\n        /* \"#utility.yul\":4098:4109   */\n      add\n        /* \"#utility.yul\":4091:4126   */\n      mstore\n        /* \"#utility.yul\":4167:4168   */\n      0x01\n        /* \"#utility.yul\":4158:4165   */\n      dup3\n        /* \"#utility.yul\":4154:4169   */\n      add\n        /* \"#utility.yul\":4143:4169   */\n      swap2\n      pop\n        /* \"#utility.yul\":4065:4069   */\n      0x20\n        /* \"#utility.yul\":4062:4063   */\n      dup2\n        /* \"#utility.yul\":4058:4070   */\n      add\n        /* \"#utility.yul\":4053:4070   */\n      swap1\n      pop\n        /* \"#utility.yul\":4029:4183   */\n      jump(tag_285)\n    tag_287:\n        /* \"#utility.yul\":4212:4213   */\n      dup1\n        /* \"#utility.yul\":4207:4210   */\n      dup9\n        /* \"#utility.yul\":4203:4214   */\n      add\n        /* \"#utility.yul\":4196:4214   */\n      swap6\n      pop\n        /* \"#utility.yul\":3895:4224   */\n      pop\n      pop\n        /* \"#utility.yul\":3711:4224   */\n    tag_280:\n      pop\n        /* \"#utility.yul\":3517:4230   */\n      pop\n      pop\n        /* \"#utility.yul\":3428:4230   */\n      swap3\n      swap2\n      pop\n      pop\n      jump\t// out\n        /* \"#utility.yul\":4236:4602   */\n    tag_288:\n        /* \"#utility.yul\":4378:4381   */\n      0x00\n        /* \"#utility.yul\":4399:4466   */\n      tag_290\n        /* \"#utility.yul\":4463:4465   */\n      0x28\n        /* \"#utility.yul\":4458:4461   */\n      dup4\n        /* \"#utility.yul\":4399:4466   */\n      tag_271\n      jump\t// in\n    tag_290:\n        /* \"#utility.yul\":4392:4466   */\n      swap2\n      pop\n        /* \"#utility.yul\":4475:4568   */\n      tag_291\n        /* \"#utility.yul\":4564:4567   */\n      dup3\n        /* \"#utility.yul\":4475:4568   */\n      tag_292\n      jump\t// in\n    tag_291:\n        /* \"#utility.yul\":4593:4595   */\n      0x40\n        /* \"#utility.yul\":4588:4591   */\n      dup3\n        /* \"#utility.yul\":4584:4596   */\n      add\n        /* \"#utility.yul\":4577:4596   */\n      swap1\n      pop\n        /* \"#utility.yul\":4236:4602   */\n      swap2\n      swap1\n      pop\n      jump\t// out\n        /* \"#utility.yul\":4608:4974   */\n    tag_293:\n        /* \"#utility.yul\":4750:4753   */\n      0x00\n        /* \"#utility.yul\":4771:4838   */\n      tag_295\n        /* \"#utility.yul\":4835:4837   */\n      0x26\n        /* \"#utility.yul\":4830:4833   */\n      dup4\n        /* \"#utility.yul\":4771:4838   */\n      tag_271\n      jump\t// in\n    tag_295:\n        /* \"#utility.yul\":4764:4838   */\n      swap2\n      pop\n        /* \"#utility.yul\":4847:4940   */\n      tag_296\n        /* \"#utility.yul\":4936:4939   */\n      dup3\n        /* \"#utility.yul\":4847:4940   */\n      tag_297\n      jump\t// in\n    tag_296:\n        /* \"#utility.yul\":4965:4967   */\n      0x40\n        /* \"#utility.yul\":4960:4963   */\n      dup3\n        /* \"#utility.yul\":4956:4968   */\n      add\n        /* \"#utility.yul\":4949:4968   */\n      swap1\n      pop\n        /* \"#utility.yul\":4608:4974   */\n      swap2\n      swap1\n      pop\n      jump\t// out\n        /* \"#utility.yul\":4980:5346   */\n    tag_298:\n        /* \"#utility.yul\":5122:5125   */\n      0x00\n        /* \"#utility.yul\":5143:5210   */\n      tag_300\n        /* \"#utility.yul\":5207:5209   */\n      0x0c\n        /* \"#utility.yul\":5202:5205   */\n      dup4\n        /* \"#utility.yul\":5143:5210   */\n      tag_271\n      jump\t// in\n    tag_300:\n        /* \"#utility.yul\":5136:5210   */\n      swap2\n      pop\n        /* \"#utility.yul\":5219:5312   */\n      tag_301\n        /* \"#utility.yul\":5308:5311   */\n      dup3\n        /* \"#utility.yul\":5219:5312   */\n      tag_302\n      jump\t// in\n    tag_301:\n        /* \"#utility.yul\":5337:5339   */\n      0x20\n        /* \"#utility.yul\":5332:5335   */\n      dup3\n        /* \"#utility.yul\":5328:5340   */\n      add\n        /* \"#utility.yul\":5321:5340   */\n      swap1\n      pop\n        /* \"#utility.yul\":4980:5346   */\n      swap2\n      swap1\n      pop\n      jump\t// out\n        /* \"#utility.yul\":5352:5718   */\n    tag_303:\n        /* \"#utility.yul\":5494:5497   */\n      0x00\n        /* \"#utility.yul\":5515:5582   */\n      tag_305\n        /* \"#utility.yul\":5579:5581   */\n      0x20\n        /* \"#utility.yul\":5574:5577   */\n      dup4\n        /* \"#utility.yul\":5515:5582   */\n      tag_271\n      jump\t// in\n    tag_305:\n        /* \"#utility.yul\":5508:5582   */\n      swap2\n      pop\n        /* \"#utility.yul\":5591:5684   */\n      tag_306\n        /* \"#utility.yul\":5680:5683   */\n      dup3\n        /* \"#utility.yul\":5591:5684   */\n      tag_307\n      jump\t// in\n    tag_306:\n        /* \"#utility.yul\":5709:5711   */\n      0x20\n        /* \"#utility.yul\":5704:5707   */\n      dup3\n        /* \"#utility.yul\":5700:5712   */\n      add\n        /* \"#utility.yul\":5693:5712   */\n      swap1\n      pop\n        /* \"#utility.yul\":5352:5718   */\n      swap2\n      swap1\n      pop\n      jump\t// out\n        /* \"#utility.yul\":5724:6090   */\n    tag_308:\n        /* \"#utility.yul\":5866:5869   */\n      0x00\n        /* \"#utility.yul\":5887:5954   */\n      tag_310\n        /* \"#utility.yul\":5951:5953   */\n      0x15\n        /* \"#utility.yul\":5946:5949   */\n      dup4\n        /* \"#utility.yul\":5887:5954   */\n      tag_271\n      jump\t// in\n    tag_310:\n        /* \"#utility.yul\":5880:5954   */\n      swap2\n      pop\n        /* \"#utility.yul\":5963:6056   */\n      tag_311\n        /* \"#utility.yul\":6052:6055   */\n      dup3\n        /* \"#utility.yul\":5963:6056   */\n      tag_312\n      jump\t// in\n    tag_311:\n        /* \"#utility.yul\":6081:6083   */\n      0x20\n        /* \"#utility.yul\":6076:6079   */\n      dup3\n        /* \"#utility.yul\":6072:6084   */\n      add\n        /* \"#utility.yul\":6065:6084   */\n      swap1\n      pop\n        /* \"#utility.yul\":5724:6090   */\n      swap2\n      swap1\n      pop\n      jump\t// out\n        /* \"#utility.yul\":6096:6214   */\n    tag_313:\n        /* \"#utility.yul\":6183:6207   */\n      tag_315\n        /* \"#utility.yul\":6201:6206   */\n      dup2\n        /* \"#utility.yul\":6183:6207   */\n      tag_316\n      jump\t// in\n    tag_315:\n        /* \"#utility.yul\":6178:6181   */\n      dup3\n        /* \"#utility.yul\":6171:6208   */\n      mstore\n        /* \"#utility.yul\":6096:6214   */\n      pop\n      pop\n      jump\t// out\n        /* \"#utility.yul\":6220:6377   */\n    tag_317:\n        /* \"#utility.yul\":6325:6370   */\n      tag_319\n        /* \"#utility.yul\":6345:6369   */\n      tag_320\n        /* \"#utility.yul\":6363:6368   */\n      dup3\n        /* \"#utility.yul\":6345:6369   */\n      tag_316\n      jump\t// in\n    tag_320:\n        /* \"#utility.yul\":6325:6370   */\n      tag_321\n      jump\t// in\n    tag_319:\n        /* \"#utility.yul\":6320:6323   */\n      dup3\n        /* \"#utility.yul\":6313:6371   */\n      mstore\n        /* \"#utility.yul\":6220:6377   */\n      pop\n      pop\n      jump\t// out\n        /* \"#utility.yul\":6383:6498   */\n    tag_322:\n        /* \"#utility.yul\":6468:6491   */\n      tag_324\n        /* \"#utility.yul\":6485:6490   */\n      dup2\n        /* \"#utility.yul\":6468:6491   */\n      tag_325\n      jump\t// in\n    tag_324:\n        /* \"#utility.yul\":6463:6466   */\n      dup3\n        /* \"#utility.yul\":6456:6492   */\n      mstore\n        /* \"#utility.yul\":6383:6498   */\n      pop\n      pop\n      jump\t// out\n        /* \"#utility.yul\":6504:7042   */\n    tag_100:\n        /* \"#utility.yul\":6672:6675   */\n      0x00\n        /* \"#utility.yul\":6687:6762   */\n      tag_327\n        /* \"#utility.yul\":6758:6761   */\n      dup3\n        /* \"#utility.yul\":6749:6755   */\n      dup7\n        /* \"#utility.yul\":6687:6762   */\n      tag_317\n      jump\t// in\n    tag_327:\n        /* \"#utility.yul\":6787:6789   */\n      0x20\n        /* \"#utility.yul\":6782:6785   */\n      dup3\n        /* \"#utility.yul\":6778:6790   */\n      add\n        /* \"#utility.yul\":6771:6790   */\n      swap2\n      pop\n        /* \"#utility.yul\":6800:6875   */\n      tag_328\n        /* \"#utility.yul\":6871:6874   */\n      dup3\n        /* \"#utility.yul\":6862:6868   */\n      dup6\n        /* \"#utility.yul\":6800:6875   */\n      tag_317\n      jump\t// in\n    tag_328:\n        /* \"#utility.yul\":6900:6902   */\n      0x20\n        /* \"#utility.yul\":6895:6898   */\n      dup3\n        /* \"#utility.yul\":6891:6903   */\n      add\n        /* \"#utility.yul\":6884:6903   */\n      swap2\n      pop\n        /* \"#utility.yul\":6913:6988   */\n      tag_329\n        /* \"#utility.yul\":6984:6987   */\n      dup3\n        /* \"#utility.yul\":6975:6981   */\n      dup5\n        /* \"#utility.yul\":6913:6988   */\n      tag_317\n      jump\t// in\n    tag_329:\n        /* \"#utility.yul\":7013:7015   */\n      0x20\n        /* \"#utility.yul\":7008:7011   */\n      dup3\n        /* \"#utility.yul\":7004:7016   */\n      add\n        /* \"#utility.yul\":6997:7016   */\n      swap2\n      pop\n        /* \"#utility.yul\":7033:7036   */\n      dup2\n        /* \"#utility.yul\":7026:7036   */\n      swap1\n      pop\n        /* \"#utility.yul\":6504:7042   */\n      swap5\n      swap4\n      pop\n      pop\n      pop\n      pop\n      jump\t// out\n        /* \"#utility.yul\":7048:7270   */\n    tag_44:\n        /* \"#utility.yul\":7141:7145   */\n      0x00\n        /* \"#utility.yul\":7179:7181   */\n      0x20\n        /* \"#utility.yul\":7168:7177   */\n      dup3\n        /* \"#utility.yul\":7164:7182   */\n      add\n        /* \"#utility.yul\":7156:7182   */\n      swap1\n      pop\n        /* \"#utility.yul\":7192:7263   */\n      tag_331\n        /* \"#utility.yul\":7260:7261   */\n      0x00\n        /* \"#utility.yul\":7249:7258   */\n      dup4\n        /* \"#utility.yul\":7245:7262   */\n      add\n        /* \"#utility.yul\":7236:7242   */\n      dup5\n        /* \"#utility.yul\":7192:7263   */\n      tag_262\n      jump\t// in\n    tag_331:\n        /* \"#utility.yul\":7048:7270   */\n      swap3\n      swap2\n      pop\n      pop\n      jump\t// out\n        /* \"#utility.yul\":7276:8542   */\n    tag_54:\n        /* \"#utility.yul\":7623:7627   */\n      0x00\n        /* \"#utility.yul\":7661:7664   */\n      0x0100\n        /* \"#utility.yul\":7650:7659   */\n      dup3\n        /* \"#utility.yul\":7646:7665   */\n      add\n        /* \"#utility.yul\":7638:7665   */\n      swap1\n      pop\n        /* \"#utility.yul\":7675:7746   */\n      tag_333\n        /* \"#utility.yul\":7743:7744   */\n      0x00\n        /* \"#utility.yul\":7732:7741   */\n      dup4\n        /* \"#utility.yul\":7728:7745   */\n      add\n        /* \"#utility.yul\":7719:7725   */\n      dup12\n        /* \"#utility.yul\":7675:7746   */\n      tag_262\n      jump\t// in\n    tag_333:\n        /* \"#utility.yul\":7793:7802   */\n      dup2\n        /* \"#utility.yul\":7787:7791   */\n      dup2\n        /* \"#utility.yul\":7783:7803   */\n      sub\n        /* \"#utility.yul\":7778:7780   */\n      0x20\n        /* \"#utility.yul\":7767:7776   */\n      dup4\n        /* \"#utility.yul\":7763:7781   */\n      add\n        /* \"#utility.yul\":7756:7804   */\n      mstore\n        /* \"#utility.yul\":7821:7899   */\n      tag_334\n        /* \"#utility.yul\":7894:7898   */\n      dup2\n        /* \"#utility.yul\":7885:7891   */\n      dup11\n        /* \"#utility.yul\":7821:7899   */\n      tag_266\n      jump\t// in\n    tag_334:\n        /* \"#utility.yul\":7813:7899   */\n      swap1\n      pop\n        /* \"#utility.yul\":7946:7955   */\n      dup2\n        /* \"#utility.yul\":7940:7944   */\n      dup2\n        /* \"#utility.yul\":7936:7956   */\n      sub\n        /* \"#utility.yul\":7931:7933   */\n      0x40\n        /* \"#utility.yul\":7920:7929   */\n      dup4\n        /* \"#utility.yul\":7916:7934   */\n      add\n        /* \"#utility.yul\":7909:7957   */\n      mstore\n        /* \"#utility.yul\":7974:8052   */\n      tag_335\n        /* \"#utility.yul\":8047:8051   */\n      dup2\n        /* \"#utility.yul\":8038:8044   */\n      dup10\n        /* \"#utility.yul\":7974:8052   */\n      tag_266\n      jump\t// in\n    tag_335:\n        /* \"#utility.yul\":7966:8052   */\n      swap1\n      pop\n        /* \"#utility.yul\":8099:8108   */\n      dup2\n        /* \"#utility.yul\":8093:8097   */\n      dup2\n        /* \"#utility.yul\":8089:8109   */\n      sub\n        /* \"#utility.yul\":8084:8086   */\n      0x60\n        /* \"#utility.yul\":8073:8082   */\n      dup4\n        /* \"#utility.yul\":8069:8087   */\n      add\n        /* \"#utility.yul\":8062:8110   */\n      mstore\n        /* \"#utility.yul\":8127:8205   */\n      tag_336\n        /* \"#utility.yul\":8200:8204   */\n      dup2\n        /* \"#utility.yul\":8191:8197   */\n      dup9\n        /* \"#utility.yul\":8127:8205   */\n      tag_266\n      jump\t// in\n    tag_336:\n        /* \"#utility.yul\":8119:8205   */\n      swap1\n      pop\n        /* \"#utility.yul\":8215:8288   */\n      tag_337\n        /* \"#utility.yul\":8283:8286   */\n      0x80\n        /* \"#utility.yul\":8272:8281   */\n      dup4\n        /* \"#utility.yul\":8268:8287   */\n      add\n        /* \"#utility.yul\":8259:8265   */\n      dup8\n        /* \"#utility.yul\":8215:8288   */\n      tag_313\n      jump\t// in\n    tag_337:\n        /* \"#utility.yul\":8298:8371   */\n      tag_338\n        /* \"#utility.yul\":8366:8369   */\n      0xa0\n        /* \"#utility.yul\":8355:8364   */\n      dup4\n        /* \"#utility.yul\":8351:8370   */\n      add\n        /* \"#utility.yul\":8342:8348   */\n      dup7\n        /* \"#utility.yul\":8298:8371   */\n      tag_313\n      jump\t// in\n    tag_338:\n        /* \"#utility.yul\":8381:8454   */\n      tag_339\n        /* \"#utility.yul\":8449:8452   */\n      0xc0\n        /* \"#utility.yul\":8438:8447   */\n      dup4\n        /* \"#utility.yul\":8434:8453   */\n      add\n        /* \"#utility.yul\":8425:8431   */\n      dup6\n        /* \"#utility.yul\":8381:8454   */\n      tag_313\n      jump\t// in\n    tag_339:\n        /* \"#utility.yul\":8464:8535   */\n      tag_340\n        /* \"#utility.yul\":8530:8533   */\n      0xe0\n        /* \"#utility.yul\":8519:8528   */\n      dup4\n        /* \"#utility.yul\":8515:8534   */\n      add\n        /* \"#utility.yul\":8506:8512   */\n      dup5\n        /* \"#utility.yul\":8464:8535   */\n      tag_322\n      jump\t// in\n    tag_340:\n        /* \"#utility.yul\":7276:8542   */\n      swap10\n      swap9\n      pop\n      pop\n      pop\n      pop\n      pop\n      pop\n      pop\n      pop\n      pop\n      jump\t// out\n        /* \"#utility.yul\":8548:8861   */\n    tag_30:\n        /* \"#utility.yul\":8661:8665   */\n      0x00\n        /* \"#utility.yul\":8699:8701   */\n      0x20\n        /* \"#utility.yul\":8688:8697   */\n      dup3\n        /* \"#utility.yul\":8684:8702   */\n      add\n        /* \"#utility.yul\":8676:8702   */\n      swap1\n      pop\n        /* \"#utility.yul\":8748:8757   */\n      dup2\n        /* \"#utility.yul\":8742:8746   */\n      dup2\n        /* \"#utility.yul\":8738:8758   */\n      sub\n        /* \"#utility.yul\":8734:8735   */\n      0x00\n        /* \"#utility.yul\":8723:8732   */\n      dup4\n        /* \"#utility.yul\":8719:8736   */\n      add\n        /* \"#utility.yul\":8712:8759   */\n      mstore\n        /* \"#utility.yul\":8776:8854   */\n      tag_342\n        /* \"#utility.yul\":8849:8853   */\n      dup2\n        /* \"#utility.yul\":8840:8846   */\n      dup5\n        /* \"#utility.yul\":8776:8854   */\n      tag_266\n      jump\t// in\n    tag_342:\n        /* \"#utility.yul\":8768:8854   */\n      swap1\n      pop\n        /* \"#utility.yul\":8548:8861   */\n      swap3\n      swap2\n      pop\n      pop\n      jump\t// out\n        /* \"#utility.yul\":8867:9475   */\n    tag_180:\n        /* \"#utility.yul\":9048:9052   */\n      0x00\n        /* \"#utility.yul\":9086:9088   */\n      0x60\n        /* \"#utility.yul\":9075:9084   */\n      dup3\n        /* \"#utility.yul\":9071:9089   */\n      add\n        /* \"#utility.yul\":9063:9089   */\n      swap1\n      pop\n        /* \"#utility.yul\":9135:9144   */\n      dup2\n        /* \"#utility.yul\":9129:9133   */\n      dup2\n        /* \"#utility.yul\":9125:9145   */\n      sub\n        /* \"#utility.yul\":9121:9122   */\n      0x00\n        /* \"#utility.yul\":9110:9119   */\n      dup4\n        /* \"#utility.yul\":9106:9123   */\n      add\n        /* \"#utility.yul\":9099:9146   */\n      mstore\n        /* \"#utility.yul\":9163:9238   */\n      tag_344\n        /* \"#utility.yul\":9233:9237   */\n      dup2\n        /* \"#utility.yul\":9224:9230   */\n      dup7\n        /* \"#utility.yul\":9163:9238   */\n      tag_276\n      jump\t// in\n    tag_344:\n        /* \"#utility.yul\":9155:9238   */\n      swap1\n      pop\n        /* \"#utility.yul\":9285:9294   */\n      dup2\n        /* \"#utility.yul\":9279:9283   */\n      dup2\n        /* \"#utility.yul\":9275:9295   */\n      sub\n        /* \"#utility.yul\":9270:9272   */\n      0x20\n        /* \"#utility.yul\":9259:9268   */\n      dup4\n        /* \"#utility.yul\":9255:9273   */\n      add\n        /* \"#utility.yul\":9248:9296   */\n      mstore\n        /* \"#utility.yul\":9313:9388   */\n      tag_345\n        /* \"#utility.yul\":9383:9387   */\n      dup2\n        /* \"#utility.yul\":9374:9380   */\n      dup6\n        /* \"#utility.yul\":9313:9388   */\n      tag_276\n      jump\t// in\n    tag_345:\n        /* \"#utility.yul\":9305:9388   */\n      swap1\n      pop\n        /* \"#utility.yul\":9398:9468   */\n      tag_346\n        /* \"#utility.yul\":9464:9466   */\n      0x40\n        /* \"#utility.yul\":9453:9462   */\n      dup4\n        /* \"#utility.yul\":9449:9467   */\n      add\n        /* \"#utility.yul\":9440:9446   */\n      dup5\n        /* \"#utility.yul\":9398:9468   */\n      tag_322\n      jump\t// in\n    tag_346:\n        /* \"#utility.yul\":8867:9475   */\n      swap5\n      swap4\n      pop\n      pop\n      pop\n      pop\n      jump\t// out\n        /* \"#utility.yul\":9481:9900   */\n    tag_66:\n        /* \"#utility.yul\":9647:9651   */\n      0x00\n        /* \"#utility.yul\":9685:9687   */\n      0x20\n        /* \"#utility.yul\":9674:9683   */\n      dup3\n        /* \"#utility.yul\":9670:9688   */\n      add\n        /* \"#utility.yul\":9662:9688   */\n      swap1\n      pop\n        /* \"#utility.yul\":9734:9743   */\n      dup2\n        /* \"#utility.yul\":9728:9732   */\n      dup2\n        /* \"#utility.yul\":9724:9744   */\n      sub\n        /* \"#utility.yul\":9720:9721   */\n      0x00\n        /* \"#utility.yul\":9709:9718   */\n      dup4\n        /* \"#utility.yul\":9705:9722   */\n      add\n        /* \"#utility.yul\":9698:9745   */\n      mstore\n        /* \"#utility.yul\":9762:9893   */\n      tag_348\n        /* \"#utility.yul\":9888:9892   */\n      dup2\n        /* \"#utility.yul\":9762:9893   */\n      tag_288\n      jump\t// in\n    tag_348:\n        /* \"#utility.yul\":9754:9893   */\n      swap1\n      pop\n        /* \"#utility.yul\":9481:9900   */\n      swap2\n      swap1\n      pop\n      jump\t// out\n        /* \"#utility.yul\":9906:10325   */\n    tag_190:\n        /* \"#utility.yul\":10072:10076   */\n      0x00\n        /* \"#utility.yul\":10110:10112   */\n      0x20\n        /* \"#utility.yul\":10099:10108   */\n      dup3\n        /* \"#utility.yul\":10095:10113   */\n      add\n        /* \"#utility.yul\":10087:10113   */\n      swap1\n      pop\n        /* \"#utility.yul\":10159:10168   */\n      dup2\n        /* \"#utility.yul\":10153:10157   */\n      dup2\n        /* \"#utility.yul\":10149:10169   */\n      sub\n        /* \"#utility.yul\":10145:10146   */\n      0x00\n        /* \"#utility.yul\":10134:10143   */\n      dup4\n        /* \"#utility.yul\":10130:10147   */\n      add\n        /* \"#utility.yul\":10123:10170   */\n      mstore\n        /* \"#utility.yul\":10187:10318   */\n      tag_350\n        /* \"#utility.yul\":10313:10317   */\n      dup2\n        /* \"#utility.yul\":10187:10318   */\n      tag_293\n      jump\t// in\n    tag_350:\n        /* \"#utility.yul\":10179:10318   */\n      swap1\n      pop\n        /* \"#utility.yul\":9906:10325   */\n      swap2\n      swap1\n      pop\n      jump\t// out\n        /* \"#utility.yul\":10331:10860   */\n    tag_199:\n        /* \"#utility.yul\":10525:10529   */\n      0x00\n        /* \"#utility.yul\":10563:10565   */\n      0x40\n        /* \"#utility.yul\":10552:10561   */\n      dup3\n        /* \"#utility.yul\":10548:10566   */\n      add\n        /* \"#utility.yul\":10540:10566   */\n      swap1\n      pop\n        /* \"#utility.yul\":10612:10621   */\n      dup2\n        /* \"#utility.yul\":10606:10610   */\n      dup2\n        /* \"#utility.yul\":10602:10622   */\n      sub\n        /* \"#utility.yul\":10598:10599   */\n      0x00\n        /* \"#utility.yul\":10587:10596   */\n      dup4\n        /* \"#utility.yul\":10583:10600   */\n      add\n        /* \"#utility.yul\":10576:10623   */\n      mstore\n        /* \"#utility.yul\":10640:10771   */\n      tag_352\n        /* \"#utility.yul\":10766:10770   */\n      dup2\n        /* \"#utility.yul\":10640:10771   */\n      tag_298\n      jump\t// in\n    tag_352:\n        /* \"#utility.yul\":10632:10771   */\n      swap1\n      pop\n        /* \"#utility.yul\":10781:10853   */\n      tag_353\n        /* \"#utility.yul\":10849:10851   */\n      0x20\n        /* \"#utility.yul\":10838:10847   */\n      dup4\n        /* \"#utility.yul\":10834:10852   */\n      add\n        /* \"#utility.yul\":10825:10831   */\n      dup5\n        /* \"#utility.yul\":10781:10853   */\n      tag_313\n      jump\t// in\n    tag_353:\n        /* \"#utility.yul\":10331:10860   */\n      swap3\n      swap2\n      pop\n      pop\n      jump\t// out\n        /* \"#utility.yul\":10866:11285   */\n    tag_139:\n        /* \"#utility.yul\":11032:11036   */\n      0x00\n        /* \"#utility.yul\":11070:11072   */\n      0x20\n        /* \"#utility.yul\":11059:11068   */\n      dup3\n        /* \"#utility.yul\":11055:11073   */\n      add\n        /* \"#utility.yul\":11047:11073   */\n      swap1\n      pop\n        /* \"#utility.yul\":11119:11128   */\n      dup2\n        /* \"#utility.yul\":11113:11117   */\n      dup2\n        /* \"#utility.yul\":11109:11129   */\n      sub\n        /* \"#utility.yul\":11105:11106   */\n      0x00\n        /* \"#utility.yul\":11094:11103   */\n      dup4\n        /* \"#utility.yul\":11090:11107   */\n      add\n        /* \"#utility.yul\":11083:11130   */\n      mstore\n        /* \"#utility.yul\":11147:11278   */\n      tag_355\n        /* \"#utility.yul\":11273:11277   */\n      dup2\n        /* \"#utility.yul\":11147:11278   */\n      tag_303\n      jump\t// in\n    tag_355:\n        /* \"#utility.yul\":11139:11278   */\n      swap1\n      pop\n        /* \"#utility.yul\":10866:11285   */\n      swap2\n      swap1\n      pop\n      jump\t// out\n        /* \"#utility.yul\":11291:11820   */\n    tag_122:\n        /* \"#utility.yul\":11485:11489   */\n      0x00\n        /* \"#utility.yul\":11523:11525   */\n      0x40\n        /* \"#utility.yul\":11512:11521   */\n      dup3\n        /* \"#utility.yul\":11508:11526   */\n      add\n        /* \"#utility.yul\":11500:11526   */\n      swap1\n      pop\n        /* \"#utility.yul\":11572:11581   */\n      dup2\n        /* \"#utility.yul\":11566:11570   */\n      dup2\n        /* \"#utility.yul\":11562:11582   */\n      sub\n        /* \"#utility.yul\":11558:11559   */\n      0x00\n        /* \"#utility.yul\":11547:11556   */\n      dup4\n        /* \"#utility.yul\":11543:11560   */\n      add\n        /* \"#utility.yul\":11536:11583   */\n      mstore\n        /* \"#utility.yul\":11600:11731   */\n      tag_357\n        /* \"#utility.yul\":11726:11730   */\n      dup2\n        /* \"#utility.yul\":11600:11731   */\n      tag_308\n      jump\t// in\n    tag_357:\n        /* \"#utility.yul\":11592:11731   */\n      swap1\n      pop\n        /* \"#utility.yul\":11741:11813   */\n      tag_358\n        /* \"#utility.yul\":11809:11811   */\n      0x20\n        /* \"#utility.yul\":11798:11807   */\n      dup4\n        /* \"#utility.yul\":11794:11812   */\n      add\n        /* \"#utility.yul\":11785:11791   */\n      dup5\n        /* \"#utility.yul\":11741:11813   */\n      tag_313\n      jump\t// in\n    tag_358:\n        /* \"#utility.yul\":11291:11820   */\n      swap3\n      swap2\n      pop\n      pop\n      jump\t// out\n        /* \"#utility.yul\":11826:12048   */\n    tag_19:\n        /* \"#utility.yul\":11919:11923   */\n      0x00\n        /* \"#utility.yul\":11957:11959   */\n      0x20\n        /* \"#utility.yul\":11946:11955   */\n      dup3\n        /* \"#utility.yul\":11942:11960   */\n      add\n        /* \"#utility.yul\":11934:11960   */\n      swap1\n      pop\n        /* \"#utility.yul\":11970:12041   */\n      tag_360\n        /* \"#utility.yul\":12038:12039   */\n      0x00\n        /* \"#utility.yul\":12027:12036   */\n      dup4\n        /* \"#utility.yul\":12023:12040   */\n      add\n        /* \"#utility.yul\":12014:12020   */\n      dup5\n        /* \"#utility.yul\":11970:12041   */\n      tag_313\n      jump\t// in\n    tag_360:\n        /* \"#utility.yul\":11826:12048   */\n      swap3\n      swap2\n      pop\n      pop\n      jump\t// out\n        /* \"#utility.yul\":12054:12183   */\n    tag_220:\n        /* \"#utility.yul\":12088:12094   */\n      0x00\n        /* \"#utility.yul\":12115:12135   */\n      tag_362\n      tag_363\n      jump\t// in\n    tag_362:\n        /* \"#utility.yul\":12105:12135   */\n      swap1\n      pop\n        /* \"#utility.yul\":12144:12177   */\n      tag_364\n        /* \"#utility.yul\":12172:12176   */\n      dup3\n        /* \"#utility.yul\":12164:12170   */\n      dup3\n        /* \"#utility.yul\":12144:12177   */\n      tag_365\n      jump\t// in\n    tag_364:\n        /* \"#utility.yul\":12054:12183   */\n      swap2\n      swap1\n      pop\n      jump\t// out\n        /* \"#utility.yul\":12189:12264   */\n    tag_363:\n        /* \"#utility.yul\":12222:12228   */\n      0x00\n        /* \"#utility.yul\":12255:12257   */\n      0x40\n        /* \"#utility.yul\":12249:12258   */\n      mload\n        /* \"#utility.yul\":12239:12258   */\n      swap1\n      pop\n        /* \"#utility.yul\":12189:12264   */\n      swap1\n      jump\t// out\n        /* \"#utility.yul\":12270:12578   */\n    tag_219:\n        /* \"#utility.yul\":12332:12336   */\n      0x00\n        /* \"#utility.yul\":12422:12440   */\n      0xffffffffffffffff\n        /* \"#utility.yul\":12414:12420   */\n      dup3\n        /* \"#utility.yul\":12411:12441   */\n      gt\n        /* \"#utility.yul\":12408:12464   */\n      iszero\n      tag_368\n      jumpi\n        /* \"#utility.yul\":12444:12462   */\n      tag_369\n      tag_370\n      jump\t// in\n    tag_369:\n        /* \"#utility.yul\":12408:12464   */\n    tag_368:\n        /* \"#utility.yul\":12482:12511   */\n      tag_371\n        /* \"#utility.yul\":12504:12510   */\n      dup3\n        /* \"#utility.yul\":12482:12511   */\n      tag_275\n      jump\t// in\n    tag_371:\n        /* \"#utility.yul\":12474:12511   */\n      swap1\n      pop\n        /* \"#utility.yul\":12566:12570   */\n      0x20\n        /* \"#utility.yul\":12560:12564   */\n      dup2\n        /* \"#utility.yul\":12556:12571   */\n      add\n        /* \"#utility.yul\":12548:12571   */\n      swap1\n      pop\n        /* \"#utility.yul\":12270:12578   */\n      swap2\n      swap1\n      pop\n      jump\t// out\n        /* \"#utility.yul\":12584:12725   */\n    tag_284:\n        /* \"#utility.yul\":12633:12637   */\n      0x00\n        /* \"#utility.yul\":12656:12659   */\n      dup2\n        /* \"#utility.yul\":12648:12659   */\n      swap1\n      pop\n        /* \"#utility.yul\":12679:12682   */\n      dup2\n        /* \"#utility.yul\":12676:12677   */\n      0x00\n        /* \"#utility.yul\":12669:12683   */\n      mstore\n        /* \"#utility.yul\":12713:12717   */\n      0x20\n        /* \"#utility.yul\":12710:12711   */\n      0x00\n        /* \"#utility.yul\":12700:12718   */\n      keccak256\n        /* \"#utility.yul\":12692:12718   */\n      swap1\n      pop\n        /* \"#utility.yul\":12584:12725   */\n      swap2\n      swap1\n      pop\n      jump\t// out\n        /* \"#utility.yul\":12731:12830   */\n    tag_269:\n        /* \"#utility.yul\":12783:12789   */\n      0x00\n        /* \"#utility.yul\":12817:12822   */\n      dup2\n        /* \"#utility.yul\":12811:12823   */\n      mload\n        /* \"#utility.yul\":12801:12823   */\n      swap1\n      pop\n        /* \"#utility.yul\":12731:12830   */\n      swap2\n      swap1\n      pop\n      jump\t// out\n        /* \"#utility.yul\":12836:13005   */\n    tag_271:\n        /* \"#utility.yul\":12920:12931   */\n      0x00\n        /* \"#utility.yul\":12954:12960   */\n      dup3\n        /* \"#utility.yul\":12949:12952   */\n      dup3\n        /* \"#utility.yul\":12942:12961   */\n      mstore\n        /* \"#utility.yul\":12994:12998   */\n      0x20\n        /* \"#utility.yul\":12989:12992   */\n      dup3\n        /* \"#utility.yul\":12985:12999   */\n      add\n        /* \"#utility.yul\":12970:12999   */\n      swap1\n      pop\n        /* \"#utility.yul\":12836:13005   */\n      swap3\n      swap2\n      pop\n      pop\n      jump\t// out\n        /* \"#utility.yul\":13011:13316   */\n    tag_69:\n        /* \"#utility.yul\":13051:13054   */\n      0x00\n        /* \"#utility.yul\":13070:13090   */\n      tag_376\n        /* \"#utility.yul\":13088:13089   */\n      dup3\n        /* \"#utility.yul\":13070:13090   */\n      tag_316\n      jump\t// in\n    tag_376:\n        /* \"#utility.yul\":13065:13090   */\n      swap2\n      pop\n        /* \"#utility.yul\":13104:13124   */\n      tag_377\n        /* \"#utility.yul\":13122:13123   */\n      dup4\n        /* \"#utility.yul\":13104:13124   */\n      tag_316\n      jump\t// in\n    tag_377:\n        /* \"#utility.yul\":13099:13124   */\n      swap3\n      pop\n        /* \"#utility.yul\":13258:13259   */\n      dup3\n        /* \"#utility.yul\":13190:13256   */\n      0xffffffffffffffffffffffffffffffffffffffffffffffffffffffffffffffff\n        /* \"#utility.yul\":13186:13260   */\n      sub\n        /* \"#utility.yul\":13183:13184   */\n      dup3\n        /* \"#utility.yul\":13180:13261   */\n      gt\n        /* \"#utility.yul\":13177:13284   */\n      iszero\n      tag_378\n      jumpi\n        /* \"#utility.yul\":13264:13282   */\n      tag_379\n      tag_380\n      jump\t// in\n    tag_379:\n        /* \"#utility.yul\":13177:13284   */\n    tag_378:\n        /* \"#utility.yul\":13308:13309   */\n      dup3\n        /* \"#utility.yul\":13305:13306   */\n      dup3\n        /* \"#utility.yul\":13301:13310   */\n      add\n        /* \"#utility.yul\":13294:13310   */\n      swap1\n      pop\n        /* \"#utility.yul\":13011:13316   */\n      swap3\n      swap2\n      pop\n      pop\n      jump\t// out\n        /* \"#utility.yul\":13322:13670   */\n    tag_194:\n        /* \"#utility.yul\":13362:13369   */\n      0x00\n        /* \"#utility.yul\":13385:13405   */\n      tag_382\n        /* \"#utility.yul\":13403:13404   */\n      dup3\n        /* \"#utility.yul\":13385:13405   */\n      tag_316\n      jump\t// in\n    tag_382:\n        /* \"#utility.yul\":13380:13405   */\n      swap2\n      pop\n        /* \"#utility.yul\":13419:13439   */\n      tag_383\n        /* \"#utility.yul\":13437:13438   */\n      dup4\n        /* \"#utility.yul\":13419:13439   */\n      tag_316\n      jump\t// in\n    tag_383:\n        /* \"#utility.yul\":13414:13439   */\n      swap3\n      pop\n        /* \"#utility.yul\":13607:13608   */\n      dup2\n        /* \"#utility.yul\":13539:13605   */\n      0xffffffffffffffffffffffffffffffffffffffffffffffffffffffffffffffff\n        /* \"#utility.yul\":13535:13609   */\n      div\n        /* \"#utility.yul\":13532:13533   */\n      dup4\n        /* \"#utility.yul\":13529:13610   */\n      gt\n        /* \"#utility.yul\":13524:13525   */\n      dup3\n        /* \"#utility.yul\":13517:13526   */\n      iszero\n        /* \"#utility.yul\":13510:13527   */\n      iszero\n        /* \"#utility.yul\":13506:13611   */\n      and\n        /* \"#utility.yul\":13503:13634   */\n      iszero\n      tag_384\n      jumpi\n        /* \"#utility.yul\":13614:13632   */\n      tag_385\n      tag_380\n      jump\t// in\n    tag_385:\n        /* \"#utility.yul\":13503:13634   */\n    tag_384:\n        /* \"#utility.yul\":13662:13663   */\n      dup3\n        /* \"#utility.yul\":13659:13660   */\n      dup3\n        /* \"#utility.yul\":13655:13664   */\n      mul\n        /* \"#utility.yul\":13644:13664   */\n      swap1\n      pop\n        /* \"#utility.yul\":13322:13670   */\n      swap3\n      swap2\n      pop\n      pop\n      jump\t// out\n        /* \"#utility.yul\":13676:13867   */\n    tag_79:\n        /* \"#utility.yul\":13716:13720   */\n      0x00\n        /* \"#utility.yul\":13736:13756   */\n      tag_387\n        /* \"#utility.yul\":13754:13755   */\n      dup3\n        /* \"#utility.yul\":13736:13756   */\n      tag_316\n      jump\t// in\n    tag_387:\n        /* \"#utility.yul\":13731:13756   */\n      swap2\n      pop\n        /* \"#utility.yul\":13770:13790   */\n      tag_388\n        /* \"#utility.yul\":13788:13789   */\n      dup4\n        /* \"#utility.yul\":13770:13790   */\n      tag_316\n      jump\t// in\n    tag_388:\n        /* \"#utility.yul\":13765:13790   */\n      swap3\n      pop\n        /* \"#utility.yul\":13809:13810   */\n      dup3\n        /* \"#utility.yul\":13806:13807   */\n      dup3\n        /* \"#utility.yul\":13803:13811   */\n      lt\n        /* \"#utility.yul\":13800:13834   */\n      iszero\n      tag_389\n      jumpi\n        /* \"#utility.yul\":13814:13832   */\n      tag_390\n      tag_380\n      jump\t// in\n    tag_390:\n        /* \"#utility.yul\":13800:13834   */\n    tag_389:\n        /* \"#utility.yul\":13859:13860   */\n      dup3\n        /* \"#utility.yul\":13856:13857   */\n      dup3\n        /* \"#utility.yul\":13852:13861   */\n      sub\n        /* \"#utility.yul\":13844:13861   */\n      swap1\n      pop\n        /* \"#utility.yul\":13676:13867   */\n      swap3\n      swap2\n      pop\n      pop\n      jump\t// out\n        /* \"#utility.yul\":13873:13969   */\n    tag_265:\n        /* \"#utility.yul\":13910:13917   */\n      0x00\n        /* \"#utility.yul\":13939:13963   */\n      tag_392\n        /* \"#utility.yul\":13957:13962   */\n      dup3\n        /* \"#utility.yul\":13939:13963   */\n      tag_393\n      jump\t// in\n    tag_392:\n        /* \"#utility.yul\":13928:13963   */\n      swap1\n      pop\n        /* \"#utility.yul\":13873:13969   */\n      swap2\n      swap1\n      pop\n      jump\t// out\n        /* \"#utility.yul\":13975:14101   */\n    tag_393:\n        /* \"#utility.yul\":14012:14019   */\n      0x00\n        /* \"#utility.yul\":14052:14094   */\n      0xffffffffffffffffffffffffffffffffffffffff\n        /* \"#utility.yul\":14045:14050   */\n      dup3\n        /* \"#utility.yul\":14041:14095   */\n      and\n        /* \"#utility.yul\":14030:14095   */\n      swap1\n      pop\n        /* \"#utility.yul\":13975:14101   */\n      swap2\n      swap1\n      pop\n      jump\t// out\n        /* \"#utility.yul\":14107:14184   */\n    tag_316:\n        /* \"#utility.yul\":14144:14151   */\n      0x00\n        /* \"#utility.yul\":14173:14178   */\n      dup2\n        /* \"#utility.yul\":14162:14178   */\n      swap1\n      pop\n        /* \"#utility.yul\":14107:14184   */\n      swap2\n      swap1\n      pop\n      jump\t// out\n        /* \"#utility.yul\":14190:14283   */\n    tag_325:\n        /* \"#utility.yul\":14226:14233   */\n      0x00\n        /* \"#utility.yul\":14266:14276   */\n      0xffffffff\n        /* \"#utility.yul\":14259:14264   */\n      dup3\n        /* \"#utility.yul\":14255:14277   */\n      and\n        /* \"#utility.yul\":14244:14277   */\n      swap1\n      pop\n        /* \"#utility.yul\":14190:14283   */\n      swap2\n      swap1\n      pop\n      jump\t// out\n        /* \"#utility.yul\":14289:14443   */\n    tag_225:\n        /* \"#utility.yul\":14373:14379   */\n      dup3\n        /* \"#utility.yul\":14368:14371   */\n      dup2\n        /* \"#utility.yul\":14363:14366   */\n      dup4\n        /* \"#utility.yul\":14350:14380   */\n      calldatacopy\n        /* \"#utility.yul\":14435:14436   */\n      0x00\n        /* \"#utility.yul\":14426:14432   */\n      dup4\n        /* \"#utility.yul\":14421:14424   */\n      dup4\n        /* \"#utility.yul\":14417:14433   */\n      add\n        /* \"#utility.yul\":14410:14437   */\n      mstore\n        /* \"#utility.yul\":14289:14443   */\n      pop\n      pop\n      pop\n      jump\t// out\n        /* \"#utility.yul\":14449:14756   */\n    tag_273:\n        /* \"#utility.yul\":14517:14518   */\n      0x00\n        /* \"#utility.yul\":14527:14640   */\n    tag_399:\n        /* \"#utility.yul\":14541:14547   */\n      dup4\n        /* \"#utility.yul\":14538:14539   */\n      dup2\n        /* \"#utility.yul\":14535:14548   */\n      lt\n        /* \"#utility.yul\":14527:14640   */\n      iszero\n      tag_401\n      jumpi\n        /* \"#utility.yul\":14626:14627   */\n      dup1\n        /* \"#utility.yul\":14621:14624   */\n      dup3\n        /* \"#utility.yul\":14617:14628   */\n      add\n        /* \"#utility.yul\":14611:14629   */\n      mload\n        /* \"#utility.yul\":14607:14608   */\n      dup2\n        /* \"#utility.yul\":14602:14605   */\n      dup5\n        /* \"#utility.yul\":14598:14609   */\n      add\n        /* \"#utility.yul\":14591:14630   */\n      mstore\n        /* \"#utility.yul\":14563:14565   */\n      0x20\n        /* \"#utility.yul\":14560:14561   */\n      dup2\n        /* \"#utility.yul\":14556:14566   */\n      add\n        /* \"#utility.yul\":14551:14566   */\n      swap1\n      pop\n        /* \"#utility.yul\":14527:14640   */\n      jump(tag_399)\n    tag_401:\n        /* \"#utility.yul\":14658:14664   */\n      dup4\n        /* \"#utility.yul\":14655:14656   */\n      dup2\n        /* \"#utility.yul\":14652:14665   */\n      gt\n        /* \"#utility.yul\":14649:14750   */\n      iszero\n      tag_402\n      jumpi\n        /* \"#utility.yul\":14738:14739   */\n      0x00\n        /* \"#utility.yul\":14729:14735   */\n      dup5\n        /* \"#utility.yul\":14724:14727   */\n      dup5\n        /* \"#utility.yul\":14720:14736   */\n      add\n        /* \"#utility.yul\":14713:14740   */\n      mstore\n        /* \"#utility.yul\":14649:14750   */\n    tag_402:\n        /* \"#utility.yul\":14498:14756   */\n      pop\n        /* \"#utility.yul\":14449:14756   */\n      pop\n      pop\n      pop\n      jump\t// out\n        /* \"#utility.yul\":14762:15082   */\n    tag_147:\n        /* \"#utility.yul\":14806:14812   */\n      0x00\n        /* \"#utility.yul\":14843:14844   */\n      0x02\n        /* \"#utility.yul\":14837:14841   */\n      dup3\n        /* \"#utility.yul\":14833:14845   */\n      div\n        /* \"#utility.yul\":14823:14845   */\n      swap1\n      pop\n        /* \"#utility.yul\":14890:14891   */\n      0x01\n        /* \"#utility.yul\":14884:14888   */\n      dup3\n        /* \"#utility.yul\":14880:14892   */\n      and\n        /* \"#utility.yul\":14911:14929   */\n      dup1\n        /* \"#utility.yul\":14901:14982   */\n      tag_404\n      jumpi\n        /* \"#utility.yul\":14967:14971   */\n      0x7f\n        /* \"#utility.yul\":14959:14965   */\n      dup3\n        /* \"#utility.yul\":14955:14972   */\n      and\n        /* \"#utility.yul\":14945:14972   */\n      swap2\n      pop\n        /* \"#utility.yul\":14901:14982   */\n    tag_404:\n        /* \"#utility.yul\":15029:15031   */\n      0x20\n        /* \"#utility.yul\":15021:15027   */\n      dup3\n        /* \"#utility.yul\":15018:15032   */\n      lt\n        /* \"#utility.yul\":14998:15016   */\n      dup2\n        /* \"#utility.yul\":14995:15033   */\n      eq\n        /* \"#utility.yul\":14992:15076   */\n      iszero\n      tag_405\n      jumpi\n        /* \"#utility.yul\":15048:15066   */\n      tag_406\n      tag_407\n      jump\t// in\n    tag_406:\n        /* \"#utility.yul\":14992:15076   */\n    tag_405:\n        /* \"#utility.yul\":14813:15082   */\n      pop\n        /* \"#utility.yul\":14762:15082   */\n      swap2\n      swap1\n      pop\n      jump\t// out\n        /* \"#utility.yul\":15088:15369   */\n    tag_365:\n        /* \"#utility.yul\":15171:15198   */\n      tag_409\n        /* \"#utility.yul\":15193:15197   */\n      dup3\n        /* \"#utility.yul\":15171:15198   */\n      tag_275\n      jump\t// in\n    tag_409:\n        /* \"#utility.yul\":15163:15169   */\n      dup2\n        /* \"#utility.yul\":15159:15199   */\n      add\n        /* \"#utility.yul\":15301:15307   */\n      dup2\n        /* \"#utility.yul\":15289:15299   */\n      dup2\n        /* \"#utility.yul\":15286:15308   */\n      lt\n        /* \"#utility.yul\":15265:15283   */\n      0xffffffffffffffff\n        /* \"#utility.yul\":15253:15263   */\n      dup3\n        /* \"#utility.yul\":15250:15284   */\n      gt\n        /* \"#utility.yul\":15247:15309   */\n      or\n        /* \"#utility.yul\":15244:15332   */\n      iszero\n      tag_410\n      jumpi\n        /* \"#utility.yul\":15312:15330   */\n      tag_411\n      tag_370\n      jump\t// in\n    tag_411:\n        /* \"#utility.yul\":15244:15332   */\n    tag_410:\n        /* \"#utility.yul\":15352:15362   */\n      dup1\n        /* \"#utility.yul\":15348:15350   */\n      0x40\n        /* \"#utility.yul\":15341:15363   */\n      mstore\n        /* \"#utility.yul\":15131:15369   */\n      pop\n        /* \"#utility.yul\":15088:15369   */\n      pop\n      pop\n      jump\t// out\n        /* \"#utility.yul\":15375:15608   */\n    tag_76:\n        /* \"#utility.yul\":15414:15417   */\n      0x00\n        /* \"#utility.yul\":15437:15461   */\n      tag_413\n        /* \"#utility.yul\":15455:15460   */\n      dup3\n        /* \"#utility.yul\":15437:15461   */\n      tag_316\n      jump\t// in\n    tag_413:\n        /* \"#utility.yul\":15428:15461   */\n      swap2\n      pop\n        /* \"#utility.yul\":15483:15549   */\n      0xffffffffffffffffffffffffffffffffffffffffffffffffffffffffffffffff\n        /* \"#utility.yul\":15476:15481   */\n      dup3\n        /* \"#utility.yul\":15473:15550   */\n      eq\n        /* \"#utility.yul\":15470:15573   */\n      iszero\n      tag_414\n      jumpi\n        /* \"#utility.yul\":15553:15571   */\n      tag_415\n      tag_380\n      jump\t// in\n    tag_415:\n        /* \"#utility.yul\":15470:15573   */\n    tag_414:\n        /* \"#utility.yul\":15600:15601   */\n      0x01\n        /* \"#utility.yul\":15593:15598   */\n      dup3\n        /* \"#utility.yul\":15589:15602   */\n      add\n        /* \"#utility.yul\":15582:15602   */\n      swap1\n      pop\n        /* \"#utility.yul\":15375:15608   */\n      swap2\n      swap1\n      pop\n      jump\t// out\n        /* \"#utility.yul\":15614:15789   */\n    tag_94:\n        /* \"#utility.yul\":15652:15655   */\n      0x00\n        /* \"#utility.yul\":15675:15698   */\n      tag_417\n        /* \"#utility.yul\":15692:15697   */\n      dup3\n        /* \"#utility.yul\":15675:15698   */\n      tag_325\n      jump\t// in\n    tag_417:\n        /* \"#utility.yul\":15666:15698   */\n      swap2\n      pop\n        /* \"#utility.yul\":15720:15730   */\n      0xffffffff\n        /* \"#utility.yul\":15713:15718   */\n      dup3\n        /* \"#utility.yul\":15710:15731   */\n      eq\n        /* \"#utility.yul\":15707:15754   */\n      iszero\n      tag_418\n      jumpi\n        /* \"#utility.yul\":15734:15752   */\n      tag_419\n      tag_380\n      jump\t// in\n    tag_419:\n        /* \"#utility.yul\":15707:15754   */\n    tag_418:\n        /* \"#utility.yul\":15781:15782   */\n      0x01\n        /* \"#utility.yul\":15774:15779   */\n      dup3\n        /* \"#utility.yul\":15770:15783   */\n      add\n        /* \"#utility.yul\":15763:15783   */\n      swap1\n      pop\n        /* \"#utility.yul\":15614:15789   */\n      swap2\n      swap1\n      pop\n      jump\t// out\n        /* \"#utility.yul\":15795:15874   */\n    tag_321:\n        /* \"#utility.yul\":15834:15841   */\n      0x00\n        /* \"#utility.yul\":15863:15868   */\n      dup2\n        /* \"#utility.yul\":15852:15868   */\n      swap1\n      pop\n        /* \"#utility.yul\":15795:15874   */\n      swap2\n      swap1\n      pop\n      jump\t// out\n        /* \"#utility.yul\":15880:16056   */\n    tag_102:\n        /* \"#utility.yul\":15912:15913   */\n      0x00\n        /* \"#utility.yul\":15929:15949   */\n      tag_422\n        /* \"#utility.yul\":15947:15948   */\n      dup3\n        /* \"#utility.yul\":15929:15949   */\n      tag_316\n      jump\t// in\n    tag_422:\n        /* \"#utility.yul\":15924:15949   */\n      swap2\n      pop\n        /* \"#utility.yul\":15963:15983   */\n      tag_423\n        /* \"#utility.yul\":15981:15982   */\n      dup4\n        /* \"#utility.yul\":15963:15983   */\n      tag_316\n      jump\t// in\n    tag_423:\n        /* \"#utility.yul\":15958:15983   */\n      swap3\n      pop\n        /* \"#utility.yul\":16002:16003   */\n      dup3\n        /* \"#utility.yul\":15992:16027   */\n      tag_424\n      jumpi\n        /* \"#utility.yul\":16007:16025   */\n      tag_425\n      tag_426\n      jump\t// in\n    tag_425:\n        /* \"#utility.yul\":15992:16027   */\n    tag_424:\n        /* \"#utility.yul\":16048:16049   */\n      dup3\n        /* \"#utility.yul\":16045:16046   */\n      dup3\n        /* \"#utility.yul\":16041:16050   */\n      mod\n        /* \"#utility.yul\":16036:16050   */\n      swap1\n      pop\n        /* \"#utility.yul\":15880:16056   */\n      swap3\n      swap2\n      pop\n      pop\n      jump\t// out\n        /* \"#utility.yul\":16062:16242   */\n    tag_380:\n        /* \"#utility.yul\":16110:16187   */\n      0x4e487b7100000000000000000000000000000000000000000000000000000000\n        /* \"#utility.yul\":16107:16108   */\n      0x00\n        /* \"#utility.yul\":16100:16188   */\n      mstore\n        /* \"#utility.yul\":16207:16211   */\n      0x11\n        /* \"#utility.yul\":16204:16205   */\n      0x04\n        /* \"#utility.yul\":16197:16212   */\n      mstore\n        /* \"#utility.yul\":16231:16235   */\n      0x24\n        /* \"#utility.yul\":16228:16229   */\n      0x00\n        /* \"#utility.yul\":16221:16236   */\n      revert\n        /* \"#utility.yul\":16248:16428   */\n    tag_426:\n        /* \"#utility.yul\":16296:16373   */\n      0x4e487b7100000000000000000000000000000000000000000000000000000000\n        /* \"#utility.yul\":16293:16294   */\n      0x00\n        /* \"#utility.yul\":16286:16374   */\n      mstore\n        /* \"#utility.yul\":16393:16397   */\n      0x12\n        /* \"#utility.yul\":16390:16391   */\n      0x04\n        /* \"#utility.yul\":16383:16398   */\n      mstore\n        /* \"#utility.yul\":16417:16421   */\n      0x24\n        /* \"#utility.yul\":16414:16415   */\n      0x00\n        /* \"#utility.yul\":16407:16422   */\n      revert\n        /* \"#utility.yul\":16434:16614   */\n    tag_407:\n        /* \"#utility.yul\":16482:16559   */\n      0x4e487b7100000000000000000000000000000000000000000000000000000000\n        /* \"#utility.yul\":16479:16480   */\n      0x00\n        /* \"#utility.yul\":16472:16560   */\n      mstore\n        /* \"#utility.yul\":16579:16583   */\n      0x22\n        /* \"#utility.yul\":16576:16577   */\n      0x04\n        /* \"#utility.yul\":16569:16584   */\n      mstore\n        /* \"#utility.yul\":16603:16607   */\n      0x24\n        /* \"#utility.yul\":16600:16601   */\n      0x00\n        /* \"#utility.yul\":16593:16608   */\n      revert\n        /* \"#utility.yul\":16620:16800   */\n    tag_87:\n        /* \"#utility.yul\":16668:16745   */\n      0x4e487b7100000000000000000000000000000000000000000000000000000000\n        /* \"#utility.yul\":16665:16666   */\n      0x00\n        /* \"#utility.yul\":16658:16746   */\n      mstore\n        /* \"#utility.yul\":16765:16769   */\n      0x32\n        /* \"#utility.yul\":16762:16763   */\n      0x04\n        /* \"#utility.yul\":16755:16770   */\n      mstore\n        /* \"#utility.yul\":16789:16793   */\n      0x24\n        /* \"#utility.yul\":16786:16787   */\n      0x00\n        /* \"#utility.yul\":16779:16794   */\n      revert\n        /* \"#utility.yul\":16806:16986   */\n    tag_370:\n        /* \"#utility.yul\":16854:16931   */\n      0x4e487b7100000000000000000000000000000000000000000000000000000000\n        /* \"#utility.yul\":16851:16852   */\n      0x00\n        /* \"#utility.yul\":16844:16932   */\n      mstore\n        /* \"#utility.yul\":16951:16955   */\n      0x41\n        /* \"#utility.yul\":16948:16949   */\n      0x04\n        /* \"#utility.yul\":16941:16956   */\n      mstore\n        /* \"#utility.yul\":16975:16979   */\n      0x24\n        /* \"#utility.yul\":16972:16973   */\n      0x00\n        /* \"#utility.yul\":16965:16980   */\n      revert\n        /* \"#utility.yul\":16992:17109   */\n    tag_234:\n        /* \"#utility.yul\":17101:17102   */\n      0x00\n        /* \"#utility.yul\":17098:17099   */\n      dup1\n        /* \"#utility.yul\":17091:17103   */\n      revert\n        /* \"#utility.yul\":17115:17232   */\n    tag_223:\n        /* \"#utility.yul\":17224:17225   */\n      0x00\n        /* \"#utility.yul\":17221:17222   */\n      dup1\n        /* \"#utility.yul\":17214:17226   */\n      revert\n        /* \"#utility.yul\":17238:17355   */\n    tag_250:\n        /* \"#utility.yul\":17347:17348   */\n      0x00\n        /* \"#utility.yul\":17344:17345   */\n      dup1\n        /* \"#utility.yul\":17337:17349   */\n      revert\n        /* \"#utility.yul\":17361:17478   */\n    tag_243:\n        /* \"#utility.yul\":17470:17471   */\n      0x00\n        /* \"#utility.yul\":17467:17468   */\n      dup1\n        /* \"#utility.yul\":17460:17472   */\n      revert\n        /* \"#utility.yul\":17484:17586   */\n    tag_275:\n        /* \"#utility.yul\":17525:17531   */\n      0x00\n        /* \"#utility.yul\":17576:17578   */\n      0x1f\n        /* \"#utility.yul\":17572:17579   */\n      not\n        /* \"#utility.yul\":17567:17569   */\n      0x1f\n        /* \"#utility.yul\":17560:17565   */\n      dup4\n        /* \"#utility.yul\":17556:17570   */\n      add\n        /* \"#utility.yul\":17552:17580   */\n      and\n        /* \"#utility.yul\":17542:17580   */\n      swap1\n      pop\n        /* \"#utility.yul\":17484:17586   */\n      swap2\n      swap1\n      pop\n      jump\t// out\n        /* \"#utility.yul\":17592:17819   */\n    tag_292:\n        /* \"#utility.yul\":17732:17766   */\n      0x536f6c6f2073652070756564652074656e657220756e20636f63686520706f72\n        /* \"#utility.yul\":17728:17729   */\n      0x00\n        /* \"#utility.yul\":17720:17726   */\n      dup3\n        /* \"#utility.yul\":17716:17730   */\n      add\n        /* \"#utility.yul\":17709:17767   */\n      mstore\n        /* \"#utility.yul\":17801:17811   */\n      0x20706572736f6e61000000000000000000000000000000000000000000000000\n        /* \"#utility.yul\":17796:17798   */\n      0x20\n        /* \"#utility.yul\":17788:17794   */\n      dup3\n        /* \"#utility.yul\":17784:17799   */\n      add\n        /* \"#utility.yul\":17777:17812   */\n      mstore\n        /* \"#utility.yul\":17592:17819   */\n      pop\n      jump\t// out\n        /* \"#utility.yul\":17825:18050   */\n    tag_297:\n        /* \"#utility.yul\":17965:17999   */\n      0x4f776e61626c653a206e6577206f776e657220697320746865207a65726f2061\n        /* \"#utility.yul\":17961:17962   */\n      0x00\n        /* \"#utility.yul\":17953:17959   */\n      dup3\n        /* \"#utility.yul\":17949:17963   */\n      add\n        /* \"#utility.yul\":17942:18000   */\n      mstore\n        /* \"#utility.yul\":18034:18042   */\n      0x6464726573730000000000000000000000000000000000000000000000000000\n        /* \"#utility.yul\":18029:18031   */\n      0x20\n        /* \"#utility.yul\":18021:18027   */\n      dup3\n        /* \"#utility.yul\":18017:18032   */\n      add\n        /* \"#utility.yul\":18010:18043   */\n      mstore\n        /* \"#utility.yul\":17825:18050   */\n      pop\n      jump\t// out\n        /* \"#utility.yul\":18056:18218   */\n    tag_302:\n        /* \"#utility.yul\":18196:18210   */\n      0x4861732067616e61646f3a200000000000000000000000000000000000000000\n        /* \"#utility.yul\":18192:18193   */\n      0x00\n        /* \"#utility.yul\":18184:18190   */\n      dup3\n        /* \"#utility.yul\":18180:18194   */\n      add\n        /* \"#utility.yul\":18173:18211   */\n      mstore\n        /* \"#utility.yul\":18056:18218   */\n      pop\n      jump\t// out\n        /* \"#utility.yul\":18224:18406   */\n    tag_307:\n        /* \"#utility.yul\":18364:18398   */\n      0x4f776e61626c653a2063616c6c6572206973206e6f7420746865206f776e6572\n        /* \"#utility.yul\":18360:18361   */\n      0x00\n        /* \"#utility.yul\":18352:18358   */\n      dup3\n        /* \"#utility.yul\":18348:18362   */\n      add\n        /* \"#utility.yul\":18341:18399   */\n      mstore\n        /* \"#utility.yul\":18224:18406   */\n      pop\n      jump\t// out\n        /* \"#utility.yul\":18412:18583   */\n    tag_312:\n        /* \"#utility.yul\":18552:18575   */\n      0x456c20636f6368652067616e61646f722065733a200000000000000000000000\n        /* \"#utility.yul\":18548:18549   */\n      0x00\n        /* \"#utility.yul\":18540:18546   */\n      dup3\n        /* \"#utility.yul\":18536:18550   */\n      add\n        /* \"#utility.yul\":18529:18576   */\n      mstore\n        /* \"#utility.yul\":18412:18583   */\n      pop\n      jump\t// out\n        /* \"#utility.yul\":18589:18711   */\n    tag_229:\n        /* \"#utility.yul\":18662:18686   */\n      tag_443\n        /* \"#utility.yul\":18680:18685   */\n      dup2\n        /* \"#utility.yul\":18662:18686   */\n      tag_265\n      jump\t// in\n    tag_443:\n        /* \"#utility.yul\":18655:18660   */\n      dup2\n        /* \"#utility.yul\":18652:18687   */\n      eq\n        /* \"#utility.yul\":18642:18705   */\n      tag_444\n      jumpi\n        /* \"#utility.yul\":18701:18702   */\n      0x00\n        /* \"#utility.yul\":18698:18699   */\n      dup1\n        /* \"#utility.yul\":18691:18703   */\n      revert\n        /* \"#utility.yul\":18642:18705   */\n    tag_444:\n        /* \"#utility.yul\":18589:18711   */\n      pop\n      jump\t// out\n        /* \"#utility.yul\":18717:18839   */\n    tag_239:\n        /* \"#utility.yul\":18790:18814   */\n      tag_446\n        /* \"#utility.yul\":18808:18813   */\n      dup2\n        /* \"#utility.yul\":18790:18814   */\n      tag_316\n      jump\t// in\n    tag_446:\n        /* \"#utility.yul\":18783:18788   */\n      dup2\n        /* \"#utility.yul\":18780:18815   */\n      eq\n        /* \"#utility.yul\":18770:18833   */\n      tag_447\n      jumpi\n        /* \"#utility.yul\":18829:18830   */\n      0x00\n        /* \"#utility.yul\":18826:18827   */\n      dup1\n        /* \"#utility.yul\":18819:18831   */\n      revert\n        /* \"#utility.yul\":18770:18833   */\n    tag_447:\n        /* \"#utility.yul\":18717:18839   */\n      pop\n      jump\t// out\n\n    auxdata: 0xa2646970667358221220bccd3c2e7438f062ca535608feaa5b4b124090512d728f88af3b98f3cc2d8dbc64736f6c63430008070033\n}\n",
				"bytecode": {
					"linkReferences": {},
					"object": "608060405260006001556000600255603c600355670de0b6b3a764000060045534801561002b57600080fd5b5061004861003d61004d60201b60201c565b61005560201b60201c565b610119565b600033905090565b60008060009054906101000a900473ffffffffffffffffffffffffffffffffffffffff169050816000806101000a81548173ffffffffffffffffffffffffffffffffffffffff021916908373ffffffffffffffffffffffffffffffffffffffff1602179055508173ffffffffffffffffffffffffffffffffffffffff168173ffffffffffffffffffffffffffffffffffffffff167f8be0079c531659141344cd1fd0a4f28419497f9722a3daafe3b4186f6b6457e060405160405180910390a35050565b611b76806101286000396000f3fe6080604052600436106100915760003560e01c8063858b055411610059578063858b0554146101875780638da5cb5b146101c4578063d735573d146101ef578063e172fca814610233578063f2fde38b1461025c57610091565b80631c6743e4146100965780632458c544146100d35780636a7d1816146101105780636b6f049414610140578063715018a614610170575b600080fd5b3480156100a257600080fd5b506100bd60048036038101906100b89190611106565b610285565b6040516100ca91906115c1565b60405180910390f35b3480156100df57600080fd5b506100fa60048036038101906100f59190611133565b61029d565b60405161010791906115c1565b60405180910390f35b61012a60048036038101906101259190611106565b61057f565b604051610137919061149e565b60405180910390f35b61015a600480360381019061015591906111da565b6106d4565b604051610167919061149e565b60405180910390f35b34801561017c57600080fd5b50610185610910565b005b34801561019357600080fd5b506101ae60048036038101906101a991906111da565b610998565b6040516101bb91906113f0565b60405180910390f35b3480156101d057600080fd5b506101d96109cb565b6040516101e691906113f0565b60405180910390f35b3480156101fb57600080fd5b50610216600480360381019061021191906111da565b6109f4565b60405161022a98979695949392919061140b565b60405180910390f35b34801561023f57600080fd5b5061025a60048036038101906102559190611106565b610c14565b005b34801561026857600080fd5b50610283600480360381019061027e9190611106565b610d6d565b005b60076020528060005260406000206000915090505481565b60006001600760003373ffffffffffffffffffffffffffffffffffffffff1673ffffffffffffffffffffffffffffffffffffffff1681526020019081526020016000205410610321576040517f08c379a000000000000000000000000000000000000000000000000000000000815260040161031890611505565b60405180910390fd5b60056040518061010001604052803373ffffffffffffffffffffffffffffffffffffffff1681526020018681526020018581526020018481526020016000815260200160008152602001600354426103799190611663565b63ffffffff168152602001600063ffffffff16815250908060018154018082558091505060019003906000526020600020906008020160009091909190915060008201518160000160006101000a81548173ffffffffffffffffffffffffffffffffffffffff021916908373ffffffffffffffffffffffffffffffffffffffff160217905550602082015181600101908051906020019061041b929190610fc9565b506040820151816002019080519060200190610438929190610fc9565b506060820151816003019080519060200190610455929190610fc9565b506080820151816004015560a0820151816005015560c0820151816006015560e08201518160070160006101000a81548163ffffffff021916908363ffffffff160217905550505060006005805490509050336006600083815260200190815260200160002060006101000a81548173ffffffffffffffffffffffffffffffffffffffff021916908373ffffffffffffffffffffffffffffffffffffffff160217905550600760003373ffffffffffffffffffffffffffffffffffffffff1673ffffffffffffffffffffffffffffffffffffffff168152602001908152602001600020600081548092919061054990611838565b91905055506002600081548092919061056190611838565b919050555060016002546105759190611713565b9150509392505050565b6060600454341461058f57600080fd5b60005b6005805490508110156106cd578273ffffffffffffffffffffffffffffffffffffffff16600582815481106105ca576105c9611976565b5b906000526020600020906008020160000160009054906101000a900473ffffffffffffffffffffffffffffffffffffffff1673ffffffffffffffffffffffffffffffffffffffff1614156106ba576005818154811061062c5761062b611976565b5b9060005260206000209060080201600701600081819054906101000a900463ffffffff168092919061065d90611881565b91906101000a81548163ffffffff021916908363ffffffff160217905550506040518060400160405280601281526020017f48612073756269646f206465206e6976656c00000000000000000000000000008152509150506106cf565b80806106c590611838565b915050610592565b505b919050565b60608134146106e257600080fd5b600160008154809291906106f590611838565b919050555060006005805490504260058054905060015460405160200161071e939291906113b3565b6040516020818303038152906040528051906020012060001c61074191906118b8565b90506001600081548092919061075690611838565b9190505550600060029050600081428360015460405160200161077b939291906113b3565b6040516020818303038152906040528051906020012060001c61079e91906118b8565b905060005b60058054905081101561090657600581815481106107c4576107c3611976565b5b906000526020600020906008020160000160009054906101000a900473ffffffffffffffffffffffffffffffffffffffff1673ffffffffffffffffffffffffffffffffffffffff163373ffffffffffffffffffffffffffffffffffffffff1614156108f357600082141561087b5761083a610e65565b6040518060400160405280600a81526020017f4861732067616e61646f0000000000000000000000000000000000000000000081525094505050505061090b565b7fa28482eec3136a2461c6c30c08f71ba279c6c51a2d9c7bea4e50d6d2632f3896846040516108aa9190611593565b60405180910390a16040518060400160405280600b81526020017f486173207065726469646f00000000000000000000000000000000000000000081525094505050505061090b565b80806108fe90611838565b9150506107a3565b505050505b919050565b610918610efd565b73ffffffffffffffffffffffffffffffffffffffff166109366109cb565b73ffffffffffffffffffffffffffffffffffffffff161461098c576040517f08c379a000000000000000000000000000000000000000000000000000000000815260040161098390611573565b60405180910390fd5b6109966000610f05565b565b60066020528060005260406000206000915054906101000a900473ffffffffffffffffffffffffffffffffffffffff1681565b60008060009054906101000a900473ffffffffffffffffffffffffffffffffffffffff16905090565b60058181548110610a0457600080fd5b90600052602060002090600802016000915090508060000160009054906101000a900473ffffffffffffffffffffffffffffffffffffffff1690806001018054610a4d906117d5565b80601f0160208091040260200160405190810160405280929190818152602001828054610a79906117d5565b8015610ac65780601f10610a9b57610100808354040283529160200191610ac6565b820191906000526020600020905b815481529060010190602001808311610aa957829003601f168201915b505050505090806002018054610adb906117d5565b80601f0160208091040260200160405190810160405280929190818152602001828054610b07906117d5565b8015610b545780601f10610b2957610100808354040283529160200191610b54565b820191906000526020600020905b815481529060010190602001808311610b3757829003601f168201915b505050505090806003018054610b69906117d5565b80601f0160208091040260200160405190810160405280929190818152602001828054610b95906117d5565b8015610be25780601f10610bb757610100808354040283529160200191610be2565b820191906000526020600020905b815481529060010190602001808311610bc557829003601f168201915b5050505050908060040154908060050154908060060154908060070160009054906101000a900463ffffffff16905088565b60005b600580549050811015610d69578173ffffffffffffffffffffffffffffffffffffffff1660058281548110610c4f57610c4e611976565b5b906000526020600020906008020160000160009054906101000a900473ffffffffffffffffffffffffffffffffffffffff1673ffffffffffffffffffffffffffffffffffffffff161415610d56577f4d8b408f48fd4450357b5fbd9b157b451b3a9a7b0228ab3afefe4d0551d5fc1460058281548110610cd257610cd1611976565b5b906000526020600020906008020160020160058381548110610cf757610cf6611976565b5b906000526020600020906008020160010160058481548110610d1c57610d1b611976565b5b906000526020600020906008020160070160009054906101000a900463ffffffff16604051610d4d939291906114c0565b60405180910390a15b8080610d6190611838565b915050610c17565b5050565b610d75610efd565b73ffffffffffffffffffffffffffffffffffffffff16610d936109cb565b73ffffffffffffffffffffffffffffffffffffffff1614610de9576040517f08c379a0000000000000000000000000000000000000000000000000000000008152600401610de090611573565b60405180910390fd5b600073ffffffffffffffffffffffffffffffffffffffff168173ffffffffffffffffffffffffffffffffffffffff161415610e59576040517f08c379a0000000000000000000000000000000000000000000000000000000008152600401610e5090611525565b60405180910390fd5b610e6281610f05565b50565b3373ffffffffffffffffffffffffffffffffffffffff166108fc600247610e8c91906116b9565b9081150290604051600060405180830381858888f19350505050158015610eb7573d6000803e3d6000fd5b507fa28482eec3136a2461c6c30c08f71ba279c6c51a2d9c7bea4e50d6d2632f3896600247610ee691906116b9565b604051610ef39190611545565b60405180910390a1565b600033905090565b60008060009054906101000a900473ffffffffffffffffffffffffffffffffffffffff169050816000806101000a81548173ffffffffffffffffffffffffffffffffffffffff021916908373ffffffffffffffffffffffffffffffffffffffff1602179055508173ffffffffffffffffffffffffffffffffffffffff168173ffffffffffffffffffffffffffffffffffffffff167f8be0079c531659141344cd1fd0a4f28419497f9722a3daafe3b4186f6b6457e060405160405180910390a35050565b828054610fd5906117d5565b90600052602060002090601f016020900481019282610ff7576000855561103e565b82601f1061101057805160ff191683800117855561103e565b8280016001018555821561103e579182015b8281111561103d578251825591602001919060010190611022565b5b50905061104b919061104f565b5090565b5b80821115611068576000816000905550600101611050565b5090565b600061107f61107a84611601565b6115dc565b90508281526020810184848401111561109b5761109a6119d9565b5b6110a6848285611793565b509392505050565b6000813590506110bd81611b12565b92915050565b600082601f8301126110d8576110d76119d4565b5b81356110e884826020860161106c565b91505092915050565b60008135905061110081611b29565b92915050565b60006020828403121561111c5761111b6119e3565b5b600061112a848285016110ae565b91505092915050565b60008060006060848603121561114c5761114b6119e3565b5b600084013567ffffffffffffffff81111561116a576111696119de565b5b611176868287016110c3565b935050602084013567ffffffffffffffff811115611197576111966119de565b5b6111a3868287016110c3565b925050604084013567ffffffffffffffff8111156111c4576111c36119de565b5b6111d0868287016110c3565b9150509250925092565b6000602082840312156111f0576111ef6119e3565b5b60006111fe848285016110f1565b91505092915050565b61121081611747565b82525050565b600061122182611647565b61122b8185611652565b935061123b8185602086016117a2565b611244816119e8565b840191505092915050565b6000815461125c816117d5565b6112668186611652565b945060018216600081146112815760018114611293576112c6565b60ff19831686526020860193506112c6565b61129c85611632565b60005b838110156112be5781548189015260018201915060208101905061129f565b808801955050505b50505092915050565b60006112dc602883611652565b91506112e7826119f9565b604082019050919050565b60006112ff602683611652565b915061130a82611a48565b604082019050919050565b6000611322600c83611652565b915061132d82611a97565b602082019050919050565b6000611345602083611652565b915061135082611ac0565b602082019050919050565b6000611368601583611652565b915061137382611ae9565b602082019050919050565b61138781611779565b82525050565b61139e61139982611779565b6118ae565b82525050565b6113ad81611783565b82525050565b60006113bf828661138d565b6020820191506113cf828561138d565b6020820191506113df828461138d565b602082019150819050949350505050565b60006020820190506114056000830184611207565b92915050565b600061010082019050611421600083018b611207565b8181036020830152611433818a611216565b905081810360408301526114478189611216565b9050818103606083015261145b8188611216565b905061146a608083018761137e565b61147760a083018661137e565b61148460c083018561137e565b61149160e08301846113a4565b9998505050505050505050565b600060208201905081810360008301526114b88184611216565b905092915050565b600060608201905081810360008301526114da818661124f565b905081810360208301526114ee818561124f565b90506114fd60408301846113a4565b949350505050565b6000602082019050818103600083015261151e816112cf565b9050919050565b6000602082019050818103600083015261153e816112f2565b9050919050565b6000604082019050818103600083015261155e81611315565b905061156d602083018461137e565b92915050565b6000602082019050818103600083015261158c81611338565b9050919050565b600060408201905081810360008301526115ac8161135b565b90506115bb602083018461137e565b92915050565b60006020820190506115d6600083018461137e565b92915050565b60006115e66115f7565b90506115f28282611807565b919050565b6000604051905090565b600067ffffffffffffffff82111561161c5761161b6119a5565b5b611625826119e8565b9050602081019050919050565b60008190508160005260206000209050919050565b600081519050919050565b600082825260208201905092915050565b600061166e82611779565b915061167983611779565b9250827fffffffffffffffffffffffffffffffffffffffffffffffffffffffffffffffff038211156116ae576116ad6118e9565b5b828201905092915050565b60006116c482611779565b91506116cf83611779565b9250817fffffffffffffffffffffffffffffffffffffffffffffffffffffffffffffffff0483118215151615611708576117076118e9565b5b828202905092915050565b600061171e82611779565b915061172983611779565b92508282101561173c5761173b6118e9565b5b828203905092915050565b600061175282611759565b9050919050565b600073ffffffffffffffffffffffffffffffffffffffff82169050919050565b6000819050919050565b600063ffffffff82169050919050565b82818337600083830152505050565b60005b838110156117c05780820151818401526020810190506117a5565b838111156117cf576000848401525b50505050565b600060028204905060018216806117ed57607f821691505b6020821081141561180157611800611947565b5b50919050565b611810826119e8565b810181811067ffffffffffffffff8211171561182f5761182e6119a5565b5b80604052505050565b600061184382611779565b91507fffffffffffffffffffffffffffffffffffffffffffffffffffffffffffffffff821415611876576118756118e9565b5b600182019050919050565b600061188c82611783565b915063ffffffff8214156118a3576118a26118e9565b5b600182019050919050565b6000819050919050565b60006118c382611779565b91506118ce83611779565b9250826118de576118dd611918565b5b828206905092915050565b7f4e487b7100000000000000000000000000000000000000000000000000000000600052601160045260246000fd5b7f4e487b7100000000000000000000000000000000000000000000000000000000600052601260045260246000fd5b7f4e487b7100000000000000000000000000000000000000000000000000000000600052602260045260246000fd5b7f4e487b7100000000000000000000000000000000000000000000000000000000600052603260045260246000fd5b7f4e487b7100000000000000000000000000000000000000000000000000000000600052604160045260246000fd5b600080fd5b600080fd5b600080fd5b600080fd5b6000601f19601f8301169050919050565b7f536f6c6f2073652070756564652074656e657220756e20636f63686520706f7260008201527f20706572736f6e61000000000000000000000000000000000000000000000000602082015250565b7f4f776e61626c653a206e6577206f776e657220697320746865207a65726f206160008201527f6464726573730000000000000000000000000000000000000000000000000000602082015250565b7f4861732067616e61646f3a200000000000000000000000000000000000000000600082015250565b7f4f776e61626c653a2063616c6c6572206973206e6f7420746865206f776e6572600082015250565b7f456c20636f6368652067616e61646f722065733a200000000000000000000000600082015250565b611b1b81611747565b8114611b2657600080fd5b50565b611b3281611779565b8114611b3d57600080fd5b5056fea2646970667358221220bccd3c2e7438f062ca535608feaa5b4b124090512d728f88af3b98f3cc2d8dbc64736f6c63430008070033",
					"opcodes": "PUSH1 0x80 PUSH1 0x40 MSTORE PUSH1 0x0 PUSH1 0x1 SSTORE PUSH1 0x0 PUSH1 0x2 SSTORE PUSH1 0x3C PUSH1 0x3 SSTORE PUSH8 0xDE0B6B3A7640000 PUSH1 0x4 SSTORE CALLVALUE DUP1 ISZERO PUSH2 0x2B JUMPI PUSH1 0x0 DUP1 REVERT JUMPDEST POP PUSH2 0x48 PUSH2 0x3D PUSH2 0x4D PUSH1 0x20 SHL PUSH1 0x20 SHR JUMP JUMPDEST PUSH2 0x55 PUSH1 0x20 SHL PUSH1 0x20 SHR JUMP JUMPDEST PUSH2 0x119 JUMP JUMPDEST PUSH1 0x0 CALLER SWAP1 POP SWAP1 JUMP JUMPDEST PUSH1 0x0 DUP1 PUSH1 0x0 SWAP1 SLOAD SWAP1 PUSH2 0x100 EXP SWAP1 DIV PUSH20 0xFFFFFFFFFFFFFFFFFFFFFFFFFFFFFFFFFFFFFFFF AND SWAP1 POP DUP2 PUSH1 0x0 DUP1 PUSH2 0x100 EXP DUP2 SLOAD DUP2 PUSH20 0xFFFFFFFFFFFFFFFFFFFFFFFFFFFFFFFFFFFFFFFF MUL NOT AND SWAP1 DUP4 PUSH20 0xFFFFFFFFFFFFFFFFFFFFFFFFFFFFFFFFFFFFFFFF AND MUL OR SWAP1 SSTORE POP DUP2 PUSH20 0xFFFFFFFFFFFFFFFFFFFFFFFFFFFFFFFFFFFFFFFF AND DUP2 PUSH20 0xFFFFFFFFFFFFFFFFFFFFFFFFFFFFFFFFFFFFFFFF AND PUSH32 0x8BE0079C531659141344CD1FD0A4F28419497F9722A3DAAFE3B4186F6B6457E0 PUSH1 0x40 MLOAD PUSH1 0x40 MLOAD DUP1 SWAP2 SUB SWAP1 LOG3 POP POP JUMP JUMPDEST PUSH2 0x1B76 DUP1 PUSH2 0x128 PUSH1 0x0 CODECOPY PUSH1 0x0 RETURN INVALID PUSH1 0x80 PUSH1 0x40 MSTORE PUSH1 0x4 CALLDATASIZE LT PUSH2 0x91 JUMPI PUSH1 0x0 CALLDATALOAD PUSH1 0xE0 SHR DUP1 PUSH4 0x858B0554 GT PUSH2 0x59 JUMPI DUP1 PUSH4 0x858B0554 EQ PUSH2 0x187 JUMPI DUP1 PUSH4 0x8DA5CB5B EQ PUSH2 0x1C4 JUMPI DUP1 PUSH4 0xD735573D EQ PUSH2 0x1EF JUMPI DUP1 PUSH4 0xE172FCA8 EQ PUSH2 0x233 JUMPI DUP1 PUSH4 0xF2FDE38B EQ PUSH2 0x25C JUMPI PUSH2 0x91 JUMP JUMPDEST DUP1 PUSH4 0x1C6743E4 EQ PUSH2 0x96 JUMPI DUP1 PUSH4 0x2458C544 EQ PUSH2 0xD3 JUMPI DUP1 PUSH4 0x6A7D1816 EQ PUSH2 0x110 JUMPI DUP1 PUSH4 0x6B6F0494 EQ PUSH2 0x140 JUMPI DUP1 PUSH4 0x715018A6 EQ PUSH2 0x170 JUMPI JUMPDEST PUSH1 0x0 DUP1 REVERT JUMPDEST CALLVALUE DUP1 ISZERO PUSH2 0xA2 JUMPI PUSH1 0x0 DUP1 REVERT JUMPDEST POP PUSH2 0xBD PUSH1 0x4 DUP1 CALLDATASIZE SUB DUP2 ADD SWAP1 PUSH2 0xB8 SWAP2 SWAP1 PUSH2 0x1106 JUMP JUMPDEST PUSH2 0x285 JUMP JUMPDEST PUSH1 0x40 MLOAD PUSH2 0xCA SWAP2 SWAP1 PUSH2 0x15C1 JUMP JUMPDEST PUSH1 0x40 MLOAD DUP1 SWAP2 SUB SWAP1 RETURN JUMPDEST CALLVALUE DUP1 ISZERO PUSH2 0xDF JUMPI PUSH1 0x0 DUP1 REVERT JUMPDEST POP PUSH2 0xFA PUSH1 0x4 DUP1 CALLDATASIZE SUB DUP2 ADD SWAP1 PUSH2 0xF5 SWAP2 SWAP1 PUSH2 0x1133 JUMP JUMPDEST PUSH2 0x29D JUMP JUMPDEST PUSH1 0x40 MLOAD PUSH2 0x107 SWAP2 SWAP1 PUSH2 0x15C1 JUMP JUMPDEST PUSH1 0x40 MLOAD DUP1 SWAP2 SUB SWAP1 RETURN JUMPDEST PUSH2 0x12A PUSH1 0x4 DUP1 CALLDATASIZE SUB DUP2 ADD SWAP1 PUSH2 0x125 SWAP2 SWAP1 PUSH2 0x1106 JUMP JUMPDEST PUSH2 0x57F JUMP JUMPDEST PUSH1 0x40 MLOAD PUSH2 0x137 SWAP2 SWAP1 PUSH2 0x149E JUMP JUMPDEST PUSH1 0x40 MLOAD DUP1 SWAP2 SUB SWAP1 RETURN JUMPDEST PUSH2 0x15A PUSH1 0x4 DUP1 CALLDATASIZE SUB DUP2 ADD SWAP1 PUSH2 0x155 SWAP2 SWAP1 PUSH2 0x11DA JUMP JUMPDEST PUSH2 0x6D4 JUMP JUMPDEST PUSH1 0x40 MLOAD PUSH2 0x167 SWAP2 SWAP1 PUSH2 0x149E JUMP JUMPDEST PUSH1 0x40 MLOAD DUP1 SWAP2 SUB SWAP1 RETURN JUMPDEST CALLVALUE DUP1 ISZERO PUSH2 0x17C JUMPI PUSH1 0x0 DUP1 REVERT JUMPDEST POP PUSH2 0x185 PUSH2 0x910 JUMP JUMPDEST STOP JUMPDEST CALLVALUE DUP1 ISZERO PUSH2 0x193 JUMPI PUSH1 0x0 DUP1 REVERT JUMPDEST POP PUSH2 0x1AE PUSH1 0x4 DUP1 CALLDATASIZE SUB DUP2 ADD SWAP1 PUSH2 0x1A9 SWAP2 SWAP1 PUSH2 0x11DA JUMP JUMPDEST PUSH2 0x998 JUMP JUMPDEST PUSH1 0x40 MLOAD PUSH2 0x1BB SWAP2 SWAP1 PUSH2 0x13F0 JUMP JUMPDEST PUSH1 0x40 MLOAD DUP1 SWAP2 SUB SWAP1 RETURN JUMPDEST CALLVALUE DUP1 ISZERO PUSH2 0x1D0 JUMPI PUSH1 0x0 DUP1 REVERT JUMPDEST POP PUSH2 0x1D9 PUSH2 0x9CB JUMP JUMPDEST PUSH1 0x40 MLOAD PUSH2 0x1E6 SWAP2 SWAP1 PUSH2 0x13F0 JUMP JUMPDEST PUSH1 0x40 MLOAD DUP1 SWAP2 SUB SWAP1 RETURN JUMPDEST CALLVALUE DUP1 ISZERO PUSH2 0x1FB JUMPI PUSH1 0x0 DUP1 REVERT JUMPDEST POP PUSH2 0x216 PUSH1 0x4 DUP1 CALLDATASIZE SUB DUP2 ADD SWAP1 PUSH2 0x211 SWAP2 SWAP1 PUSH2 0x11DA JUMP JUMPDEST PUSH2 0x9F4 JUMP JUMPDEST PUSH1 0x40 MLOAD PUSH2 0x22A SWAP9 SWAP8 SWAP7 SWAP6 SWAP5 SWAP4 SWAP3 SWAP2 SWAP1 PUSH2 0x140B JUMP JUMPDEST PUSH1 0x40 MLOAD DUP1 SWAP2 SUB SWAP1 RETURN JUMPDEST CALLVALUE DUP1 ISZERO PUSH2 0x23F JUMPI PUSH1 0x0 DUP1 REVERT JUMPDEST POP PUSH2 0x25A PUSH1 0x4 DUP1 CALLDATASIZE SUB DUP2 ADD SWAP1 PUSH2 0x255 SWAP2 SWAP1 PUSH2 0x1106 JUMP JUMPDEST PUSH2 0xC14 JUMP JUMPDEST STOP JUMPDEST CALLVALUE DUP1 ISZERO PUSH2 0x268 JUMPI PUSH1 0x0 DUP1 REVERT JUMPDEST POP PUSH2 0x283 PUSH1 0x4 DUP1 CALLDATASIZE SUB DUP2 ADD SWAP1 PUSH2 0x27E SWAP2 SWAP1 PUSH2 0x1106 JUMP JUMPDEST PUSH2 0xD6D JUMP JUMPDEST STOP JUMPDEST PUSH1 0x7 PUSH1 0x20 MSTORE DUP1 PUSH1 0x0 MSTORE PUSH1 0x40 PUSH1 0x0 KECCAK256 PUSH1 0x0 SWAP2 POP SWAP1 POP SLOAD DUP2 JUMP JUMPDEST PUSH1 0x0 PUSH1 0x1 PUSH1 0x7 PUSH1 0x0 CALLER PUSH20 0xFFFFFFFFFFFFFFFFFFFFFFFFFFFFFFFFFFFFFFFF AND PUSH20 0xFFFFFFFFFFFFFFFFFFFFFFFFFFFFFFFFFFFFFFFF AND DUP2 MSTORE PUSH1 0x20 ADD SWAP1 DUP2 MSTORE PUSH1 0x20 ADD PUSH1 0x0 KECCAK256 SLOAD LT PUSH2 0x321 JUMPI PUSH1 0x40 MLOAD PUSH32 0x8C379A000000000000000000000000000000000000000000000000000000000 DUP2 MSTORE PUSH1 0x4 ADD PUSH2 0x318 SWAP1 PUSH2 0x1505 JUMP JUMPDEST PUSH1 0x40 MLOAD DUP1 SWAP2 SUB SWAP1 REVERT JUMPDEST PUSH1 0x5 PUSH1 0x40 MLOAD DUP1 PUSH2 0x100 ADD PUSH1 0x40 MSTORE DUP1 CALLER PUSH20 0xFFFFFFFFFFFFFFFFFFFFFFFFFFFFFFFFFFFFFFFF AND DUP2 MSTORE PUSH1 0x20 ADD DUP7 DUP2 MSTORE PUSH1 0x20 ADD DUP6 DUP2 MSTORE PUSH1 0x20 ADD DUP5 DUP2 MSTORE PUSH1 0x20 ADD PUSH1 0x0 DUP2 MSTORE PUSH1 0x20 ADD PUSH1 0x0 DUP2 MSTORE PUSH1 0x20 ADD PUSH1 0x3 SLOAD TIMESTAMP PUSH2 0x379 SWAP2 SWAP1 PUSH2 0x1663 JUMP JUMPDEST PUSH4 0xFFFFFFFF AND DUP2 MSTORE PUSH1 0x20 ADD PUSH1 0x0 PUSH4 0xFFFFFFFF AND DUP2 MSTORE POP SWAP1 DUP1 PUSH1 0x1 DUP2 SLOAD ADD DUP1 DUP3 SSTORE DUP1 SWAP2 POP POP PUSH1 0x1 SWAP1 SUB SWAP1 PUSH1 0x0 MSTORE PUSH1 0x20 PUSH1 0x0 KECCAK256 SWAP1 PUSH1 0x8 MUL ADD PUSH1 0x0 SWAP1 SWAP2 SWAP1 SWAP2 SWAP1 SWAP2 POP PUSH1 0x0 DUP3 ADD MLOAD DUP2 PUSH1 0x0 ADD PUSH1 0x0 PUSH2 0x100 EXP DUP2 SLOAD DUP2 PUSH20 0xFFFFFFFFFFFFFFFFFFFFFFFFFFFFFFFFFFFFFFFF MUL NOT AND SWAP1 DUP4 PUSH20 0xFFFFFFFFFFFFFFFFFFFFFFFFFFFFFFFFFFFFFFFF AND MUL OR SWAP1 SSTORE POP PUSH1 0x20 DUP3 ADD MLOAD DUP2 PUSH1 0x1 ADD SWAP1 DUP1 MLOAD SWAP1 PUSH1 0x20 ADD SWAP1 PUSH2 0x41B SWAP3 SWAP2 SWAP1 PUSH2 0xFC9 JUMP JUMPDEST POP PUSH1 0x40 DUP3 ADD MLOAD DUP2 PUSH1 0x2 ADD SWAP1 DUP1 MLOAD SWAP1 PUSH1 0x20 ADD SWAP1 PUSH2 0x438 SWAP3 SWAP2 SWAP1 PUSH2 0xFC9 JUMP JUMPDEST POP PUSH1 0x60 DUP3 ADD MLOAD DUP2 PUSH1 0x3 ADD SWAP1 DUP1 MLOAD SWAP1 PUSH1 0x20 ADD SWAP1 PUSH2 0x455 SWAP3 SWAP2 SWAP1 PUSH2 0xFC9 JUMP JUMPDEST POP PUSH1 0x80 DUP3 ADD MLOAD DUP2 PUSH1 0x4 ADD SSTORE PUSH1 0xA0 DUP3 ADD MLOAD DUP2 PUSH1 0x5 ADD SSTORE PUSH1 0xC0 DUP3 ADD MLOAD DUP2 PUSH1 0x6 ADD SSTORE PUSH1 0xE0 DUP3 ADD MLOAD DUP2 PUSH1 0x7 ADD PUSH1 0x0 PUSH2 0x100 EXP DUP2 SLOAD DUP2 PUSH4 0xFFFFFFFF MUL NOT AND SWAP1 DUP4 PUSH4 0xFFFFFFFF AND MUL OR SWAP1 SSTORE POP POP POP PUSH1 0x0 PUSH1 0x5 DUP1 SLOAD SWAP1 POP SWAP1 POP CALLER PUSH1 0x6 PUSH1 0x0 DUP4 DUP2 MSTORE PUSH1 0x20 ADD SWAP1 DUP2 MSTORE PUSH1 0x20 ADD PUSH1 0x0 KECCAK256 PUSH1 0x0 PUSH2 0x100 EXP DUP2 SLOAD DUP2 PUSH20 0xFFFFFFFFFFFFFFFFFFFFFFFFFFFFFFFFFFFFFFFF MUL NOT AND SWAP1 DUP4 PUSH20 0xFFFFFFFFFFFFFFFFFFFFFFFFFFFFFFFFFFFFFFFF AND MUL OR SWAP1 SSTORE POP PUSH1 0x7 PUSH1 0x0 CALLER PUSH20 0xFFFFFFFFFFFFFFFFFFFFFFFFFFFFFFFFFFFFFFFF AND PUSH20 0xFFFFFFFFFFFFFFFFFFFFFFFFFFFFFFFFFFFFFFFF AND DUP2 MSTORE PUSH1 0x20 ADD SWAP1 DUP2 MSTORE PUSH1 0x20 ADD PUSH1 0x0 KECCAK256 PUSH1 0x0 DUP2 SLOAD DUP1 SWAP3 SWAP2 SWAP1 PUSH2 0x549 SWAP1 PUSH2 0x1838 JUMP JUMPDEST SWAP2 SWAP1 POP SSTORE POP PUSH1 0x2 PUSH1 0x0 DUP2 SLOAD DUP1 SWAP3 SWAP2 SWAP1 PUSH2 0x561 SWAP1 PUSH2 0x1838 JUMP JUMPDEST SWAP2 SWAP1 POP SSTORE POP PUSH1 0x1 PUSH1 0x2 SLOAD PUSH2 0x575 SWAP2 SWAP1 PUSH2 0x1713 JUMP JUMPDEST SWAP2 POP POP SWAP4 SWAP3 POP POP POP JUMP JUMPDEST PUSH1 0x60 PUSH1 0x4 SLOAD CALLVALUE EQ PUSH2 0x58F JUMPI PUSH1 0x0 DUP1 REVERT JUMPDEST PUSH1 0x0 JUMPDEST PUSH1 0x5 DUP1 SLOAD SWAP1 POP DUP2 LT ISZERO PUSH2 0x6CD JUMPI DUP3 PUSH20 0xFFFFFFFFFFFFFFFFFFFFFFFFFFFFFFFFFFFFFFFF AND PUSH1 0x5 DUP3 DUP2 SLOAD DUP2 LT PUSH2 0x5CA JUMPI PUSH2 0x5C9 PUSH2 0x1976 JUMP JUMPDEST JUMPDEST SWAP1 PUSH1 0x0 MSTORE PUSH1 0x20 PUSH1 0x0 KECCAK256 SWAP1 PUSH1 0x8 MUL ADD PUSH1 0x0 ADD PUSH1 0x0 SWAP1 SLOAD SWAP1 PUSH2 0x100 EXP SWAP1 DIV PUSH20 0xFFFFFFFFFFFFFFFFFFFFFFFFFFFFFFFFFFFFFFFF AND PUSH20 0xFFFFFFFFFFFFFFFFFFFFFFFFFFFFFFFFFFFFFFFF AND EQ ISZERO PUSH2 0x6BA JUMPI PUSH1 0x5 DUP2 DUP2 SLOAD DUP2 LT PUSH2 0x62C JUMPI PUSH2 0x62B PUSH2 0x1976 JUMP JUMPDEST JUMPDEST SWAP1 PUSH1 0x0 MSTORE PUSH1 0x20 PUSH1 0x0 KECCAK256 SWAP1 PUSH1 0x8 MUL ADD PUSH1 0x7 ADD PUSH1 0x0 DUP2 DUP2 SWAP1 SLOAD SWAP1 PUSH2 0x100 EXP SWAP1 DIV PUSH4 0xFFFFFFFF AND DUP1 SWAP3 SWAP2 SWAP1 PUSH2 0x65D SWAP1 PUSH2 0x1881 JUMP JUMPDEST SWAP2 SWAP1 PUSH2 0x100 EXP DUP2 SLOAD DUP2 PUSH4 0xFFFFFFFF MUL NOT AND SWAP1 DUP4 PUSH4 0xFFFFFFFF AND MUL OR SWAP1 SSTORE POP POP PUSH1 0x40 MLOAD DUP1 PUSH1 0x40 ADD PUSH1 0x40 MSTORE DUP1 PUSH1 0x12 DUP2 MSTORE PUSH1 0x20 ADD PUSH32 0x48612073756269646F206465206E6976656C0000000000000000000000000000 DUP2 MSTORE POP SWAP2 POP POP PUSH2 0x6CF JUMP JUMPDEST DUP1 DUP1 PUSH2 0x6C5 SWAP1 PUSH2 0x1838 JUMP JUMPDEST SWAP2 POP POP PUSH2 0x592 JUMP JUMPDEST POP JUMPDEST SWAP2 SWAP1 POP JUMP JUMPDEST PUSH1 0x60 DUP2 CALLVALUE EQ PUSH2 0x6E2 JUMPI PUSH1 0x0 DUP1 REVERT JUMPDEST PUSH1 0x1 PUSH1 0x0 DUP2 SLOAD DUP1 SWAP3 SWAP2 SWAP1 PUSH2 0x6F5 SWAP1 PUSH2 0x1838 JUMP JUMPDEST SWAP2 SWAP1 POP SSTORE POP PUSH1 0x0 PUSH1 0x5 DUP1 SLOAD SWAP1 POP TIMESTAMP PUSH1 0x5 DUP1 SLOAD SWAP1 POP PUSH1 0x1 SLOAD PUSH1 0x40 MLOAD PUSH1 0x20 ADD PUSH2 0x71E SWAP4 SWAP3 SWAP2 SWAP1 PUSH2 0x13B3 JUMP JUMPDEST PUSH1 0x40 MLOAD PUSH1 0x20 DUP2 DUP4 SUB SUB DUP2 MSTORE SWAP1 PUSH1 0x40 MSTORE DUP1 MLOAD SWAP1 PUSH1 0x20 ADD KECCAK256 PUSH1 0x0 SHR PUSH2 0x741 SWAP2 SWAP1 PUSH2 0x18B8 JUMP JUMPDEST SWAP1 POP PUSH1 0x1 PUSH1 0x0 DUP2 SLOAD DUP1 SWAP3 SWAP2 SWAP1 PUSH2 0x756 SWAP1 PUSH2 0x1838 JUMP JUMPDEST SWAP2 SWAP1 POP SSTORE POP PUSH1 0x0 PUSH1 0x2 SWAP1 POP PUSH1 0x0 DUP2 TIMESTAMP DUP4 PUSH1 0x1 SLOAD PUSH1 0x40 MLOAD PUSH1 0x20 ADD PUSH2 0x77B SWAP4 SWAP3 SWAP2 SWAP1 PUSH2 0x13B3 JUMP JUMPDEST PUSH1 0x40 MLOAD PUSH1 0x20 DUP2 DUP4 SUB SUB DUP2 MSTORE SWAP1 PUSH1 0x40 MSTORE DUP1 MLOAD SWAP1 PUSH1 0x20 ADD KECCAK256 PUSH1 0x0 SHR PUSH2 0x79E SWAP2 SWAP1 PUSH2 0x18B8 JUMP JUMPDEST SWAP1 POP PUSH1 0x0 JUMPDEST PUSH1 0x5 DUP1 SLOAD SWAP1 POP DUP2 LT ISZERO PUSH2 0x906 JUMPI PUSH1 0x5 DUP2 DUP2 SLOAD DUP2 LT PUSH2 0x7C4 JUMPI PUSH2 0x7C3 PUSH2 0x1976 JUMP JUMPDEST JUMPDEST SWAP1 PUSH1 0x0 MSTORE PUSH1 0x20 PUSH1 0x0 KECCAK256 SWAP1 PUSH1 0x8 MUL ADD PUSH1 0x0 ADD PUSH1 0x0 SWAP1 SLOAD SWAP1 PUSH2 0x100 EXP SWAP1 DIV PUSH20 0xFFFFFFFFFFFFFFFFFFFFFFFFFFFFFFFFFFFFFFFF AND PUSH20 0xFFFFFFFFFFFFFFFFFFFFFFFFFFFFFFFFFFFFFFFF AND CALLER PUSH20 0xFFFFFFFFFFFFFFFFFFFFFFFFFFFFFFFFFFFFFFFF AND EQ ISZERO PUSH2 0x8F3 JUMPI PUSH1 0x0 DUP3 EQ ISZERO PUSH2 0x87B JUMPI PUSH2 0x83A PUSH2 0xE65 JUMP JUMPDEST PUSH1 0x40 MLOAD DUP1 PUSH1 0x40 ADD PUSH1 0x40 MSTORE DUP1 PUSH1 0xA DUP2 MSTORE PUSH1 0x20 ADD PUSH32 0x4861732067616E61646F00000000000000000000000000000000000000000000 DUP2 MSTORE POP SWAP5 POP POP POP POP POP PUSH2 0x90B JUMP JUMPDEST PUSH32 0xA28482EEC3136A2461C6C30C08F71BA279C6C51A2D9C7BEA4E50D6D2632F3896 DUP5 PUSH1 0x40 MLOAD PUSH2 0x8AA SWAP2 SWAP1 PUSH2 0x1593 JUMP JUMPDEST PUSH1 0x40 MLOAD DUP1 SWAP2 SUB SWAP1 LOG1 PUSH1 0x40 MLOAD DUP1 PUSH1 0x40 ADD PUSH1 0x40 MSTORE DUP1 PUSH1 0xB DUP2 MSTORE PUSH1 0x20 ADD PUSH32 0x486173207065726469646F000000000000000000000000000000000000000000 DUP2 MSTORE POP SWAP5 POP POP POP POP POP PUSH2 0x90B JUMP JUMPDEST DUP1 DUP1 PUSH2 0x8FE SWAP1 PUSH2 0x1838 JUMP JUMPDEST SWAP2 POP POP PUSH2 0x7A3 JUMP JUMPDEST POP POP POP POP JUMPDEST SWAP2 SWAP1 POP JUMP JUMPDEST PUSH2 0x918 PUSH2 0xEFD JUMP JUMPDEST PUSH20 0xFFFFFFFFFFFFFFFFFFFFFFFFFFFFFFFFFFFFFFFF AND PUSH2 0x936 PUSH2 0x9CB JUMP JUMPDEST PUSH20 0xFFFFFFFFFFFFFFFFFFFFFFFFFFFFFFFFFFFFFFFF AND EQ PUSH2 0x98C JUMPI PUSH1 0x40 MLOAD PUSH32 0x8C379A000000000000000000000000000000000000000000000000000000000 DUP2 MSTORE PUSH1 0x4 ADD PUSH2 0x983 SWAP1 PUSH2 0x1573 JUMP JUMPDEST PUSH1 0x40 MLOAD DUP1 SWAP2 SUB SWAP1 REVERT JUMPDEST PUSH2 0x996 PUSH1 0x0 PUSH2 0xF05 JUMP JUMPDEST JUMP JUMPDEST PUSH1 0x6 PUSH1 0x20 MSTORE DUP1 PUSH1 0x0 MSTORE PUSH1 0x40 PUSH1 0x0 KECCAK256 PUSH1 0x0 SWAP2 POP SLOAD SWAP1 PUSH2 0x100 EXP SWAP1 DIV PUSH20 0xFFFFFFFFFFFFFFFFFFFFFFFFFFFFFFFFFFFFFFFF AND DUP2 JUMP JUMPDEST PUSH1 0x0 DUP1 PUSH1 0x0 SWAP1 SLOAD SWAP1 PUSH2 0x100 EXP SWAP1 DIV PUSH20 0xFFFFFFFFFFFFFFFFFFFFFFFFFFFFFFFFFFFFFFFF AND SWAP1 POP SWAP1 JUMP JUMPDEST PUSH1 0x5 DUP2 DUP2 SLOAD DUP2 LT PUSH2 0xA04 JUMPI PUSH1 0x0 DUP1 REVERT JUMPDEST SWAP1 PUSH1 0x0 MSTORE PUSH1 0x20 PUSH1 0x0 KECCAK256 SWAP1 PUSH1 0x8 MUL ADD PUSH1 0x0 SWAP2 POP SWAP1 POP DUP1 PUSH1 0x0 ADD PUSH1 0x0 SWAP1 SLOAD SWAP1 PUSH2 0x100 EXP SWAP1 DIV PUSH20 0xFFFFFFFFFFFFFFFFFFFFFFFFFFFFFFFFFFFFFFFF AND SWAP1 DUP1 PUSH1 0x1 ADD DUP1 SLOAD PUSH2 0xA4D SWAP1 PUSH2 0x17D5 JUMP JUMPDEST DUP1 PUSH1 0x1F ADD PUSH1 0x20 DUP1 SWAP2 DIV MUL PUSH1 0x20 ADD PUSH1 0x40 MLOAD SWAP1 DUP2 ADD PUSH1 0x40 MSTORE DUP1 SWAP3 SWAP2 SWAP1 DUP2 DUP2 MSTORE PUSH1 0x20 ADD DUP3 DUP1 SLOAD PUSH2 0xA79 SWAP1 PUSH2 0x17D5 JUMP JUMPDEST DUP1 ISZERO PUSH2 0xAC6 JUMPI DUP1 PUSH1 0x1F LT PUSH2 0xA9B JUMPI PUSH2 0x100 DUP1 DUP4 SLOAD DIV MUL DUP4 MSTORE SWAP2 PUSH1 0x20 ADD SWAP2 PUSH2 0xAC6 JUMP JUMPDEST DUP3 ADD SWAP2 SWAP1 PUSH1 0x0 MSTORE PUSH1 0x20 PUSH1 0x0 KECCAK256 SWAP1 JUMPDEST DUP2 SLOAD DUP2 MSTORE SWAP1 PUSH1 0x1 ADD SWAP1 PUSH1 0x20 ADD DUP1 DUP4 GT PUSH2 0xAA9 JUMPI DUP3 SWAP1 SUB PUSH1 0x1F AND DUP3 ADD SWAP2 JUMPDEST POP POP POP POP POP SWAP1 DUP1 PUSH1 0x2 ADD DUP1 SLOAD PUSH2 0xADB SWAP1 PUSH2 0x17D5 JUMP JUMPDEST DUP1 PUSH1 0x1F ADD PUSH1 0x20 DUP1 SWAP2 DIV MUL PUSH1 0x20 ADD PUSH1 0x40 MLOAD SWAP1 DUP2 ADD PUSH1 0x40 MSTORE DUP1 SWAP3 SWAP2 SWAP1 DUP2 DUP2 MSTORE PUSH1 0x20 ADD DUP3 DUP1 SLOAD PUSH2 0xB07 SWAP1 PUSH2 0x17D5 JUMP JUMPDEST DUP1 ISZERO PUSH2 0xB54 JUMPI DUP1 PUSH1 0x1F LT PUSH2 0xB29 JUMPI PUSH2 0x100 DUP1 DUP4 SLOAD DIV MUL DUP4 MSTORE SWAP2 PUSH1 0x20 ADD SWAP2 PUSH2 0xB54 JUMP JUMPDEST DUP3 ADD SWAP2 SWAP1 PUSH1 0x0 MSTORE PUSH1 0x20 PUSH1 0x0 KECCAK256 SWAP1 JUMPDEST DUP2 SLOAD DUP2 MSTORE SWAP1 PUSH1 0x1 ADD SWAP1 PUSH1 0x20 ADD DUP1 DUP4 GT PUSH2 0xB37 JUMPI DUP3 SWAP1 SUB PUSH1 0x1F AND DUP3 ADD SWAP2 JUMPDEST POP POP POP POP POP SWAP1 DUP1 PUSH1 0x3 ADD DUP1 SLOAD PUSH2 0xB69 SWAP1 PUSH2 0x17D5 JUMP JUMPDEST DUP1 PUSH1 0x1F ADD PUSH1 0x20 DUP1 SWAP2 DIV MUL PUSH1 0x20 ADD PUSH1 0x40 MLOAD SWAP1 DUP2 ADD PUSH1 0x40 MSTORE DUP1 SWAP3 SWAP2 SWAP1 DUP2 DUP2 MSTORE PUSH1 0x20 ADD DUP3 DUP1 SLOAD PUSH2 0xB95 SWAP1 PUSH2 0x17D5 JUMP JUMPDEST DUP1 ISZERO PUSH2 0xBE2 JUMPI DUP1 PUSH1 0x1F LT PUSH2 0xBB7 JUMPI PUSH2 0x100 DUP1 DUP4 SLOAD DIV MUL DUP4 MSTORE SWAP2 PUSH1 0x20 ADD SWAP2 PUSH2 0xBE2 JUMP JUMPDEST DUP3 ADD SWAP2 SWAP1 PUSH1 0x0 MSTORE PUSH1 0x20 PUSH1 0x0 KECCAK256 SWAP1 JUMPDEST DUP2 SLOAD DUP2 MSTORE SWAP1 PUSH1 0x1 ADD SWAP1 PUSH1 0x20 ADD DUP1 DUP4 GT PUSH2 0xBC5 JUMPI DUP3 SWAP1 SUB PUSH1 0x1F AND DUP3 ADD SWAP2 JUMPDEST POP POP POP POP POP SWAP1 DUP1 PUSH1 0x4 ADD SLOAD SWAP1 DUP1 PUSH1 0x5 ADD SLOAD SWAP1 DUP1 PUSH1 0x6 ADD SLOAD SWAP1 DUP1 PUSH1 0x7 ADD PUSH1 0x0 SWAP1 SLOAD SWAP1 PUSH2 0x100 EXP SWAP1 DIV PUSH4 0xFFFFFFFF AND SWAP1 POP DUP9 JUMP JUMPDEST PUSH1 0x0 JUMPDEST PUSH1 0x5 DUP1 SLOAD SWAP1 POP DUP2 LT ISZERO PUSH2 0xD69 JUMPI DUP2 PUSH20 0xFFFFFFFFFFFFFFFFFFFFFFFFFFFFFFFFFFFFFFFF AND PUSH1 0x5 DUP3 DUP2 SLOAD DUP2 LT PUSH2 0xC4F JUMPI PUSH2 0xC4E PUSH2 0x1976 JUMP JUMPDEST JUMPDEST SWAP1 PUSH1 0x0 MSTORE PUSH1 0x20 PUSH1 0x0 KECCAK256 SWAP1 PUSH1 0x8 MUL ADD PUSH1 0x0 ADD PUSH1 0x0 SWAP1 SLOAD SWAP1 PUSH2 0x100 EXP SWAP1 DIV PUSH20 0xFFFFFFFFFFFFFFFFFFFFFFFFFFFFFFFFFFFFFFFF AND PUSH20 0xFFFFFFFFFFFFFFFFFFFFFFFFFFFFFFFFFFFFFFFF AND EQ ISZERO PUSH2 0xD56 JUMPI PUSH32 0x4D8B408F48FD4450357B5FBD9B157B451B3A9A7B0228AB3AFEFE4D0551D5FC14 PUSH1 0x5 DUP3 DUP2 SLOAD DUP2 LT PUSH2 0xCD2 JUMPI PUSH2 0xCD1 PUSH2 0x1976 JUMP JUMPDEST JUMPDEST SWAP1 PUSH1 0x0 MSTORE PUSH1 0x20 PUSH1 0x0 KECCAK256 SWAP1 PUSH1 0x8 MUL ADD PUSH1 0x2 ADD PUSH1 0x5 DUP4 DUP2 SLOAD DUP2 LT PUSH2 0xCF7 JUMPI PUSH2 0xCF6 PUSH2 0x1976 JUMP JUMPDEST JUMPDEST SWAP1 PUSH1 0x0 MSTORE PUSH1 0x20 PUSH1 0x0 KECCAK256 SWAP1 PUSH1 0x8 MUL ADD PUSH1 0x1 ADD PUSH1 0x5 DUP5 DUP2 SLOAD DUP2 LT PUSH2 0xD1C JUMPI PUSH2 0xD1B PUSH2 0x1976 JUMP JUMPDEST JUMPDEST SWAP1 PUSH1 0x0 MSTORE PUSH1 0x20 PUSH1 0x0 KECCAK256 SWAP1 PUSH1 0x8 MUL ADD PUSH1 0x7 ADD PUSH1 0x0 SWAP1 SLOAD SWAP1 PUSH2 0x100 EXP SWAP1 DIV PUSH4 0xFFFFFFFF AND PUSH1 0x40 MLOAD PUSH2 0xD4D SWAP4 SWAP3 SWAP2 SWAP1 PUSH2 0x14C0 JUMP JUMPDEST PUSH1 0x40 MLOAD DUP1 SWAP2 SUB SWAP1 LOG1 JUMPDEST DUP1 DUP1 PUSH2 0xD61 SWAP1 PUSH2 0x1838 JUMP JUMPDEST SWAP2 POP POP PUSH2 0xC17 JUMP JUMPDEST POP POP JUMP JUMPDEST PUSH2 0xD75 PUSH2 0xEFD JUMP JUMPDEST PUSH20 0xFFFFFFFFFFFFFFFFFFFFFFFFFFFFFFFFFFFFFFFF AND PUSH2 0xD93 PUSH2 0x9CB JUMP JUMPDEST PUSH20 0xFFFFFFFFFFFFFFFFFFFFFFFFFFFFFFFFFFFFFFFF AND EQ PUSH2 0xDE9 JUMPI PUSH1 0x40 MLOAD PUSH32 0x8C379A000000000000000000000000000000000000000000000000000000000 DUP2 MSTORE PUSH1 0x4 ADD PUSH2 0xDE0 SWAP1 PUSH2 0x1573 JUMP JUMPDEST PUSH1 0x40 MLOAD DUP1 SWAP2 SUB SWAP1 REVERT JUMPDEST PUSH1 0x0 PUSH20 0xFFFFFFFFFFFFFFFFFFFFFFFFFFFFFFFFFFFFFFFF AND DUP2 PUSH20 0xFFFFFFFFFFFFFFFFFFFFFFFFFFFFFFFFFFFFFFFF AND EQ ISZERO PUSH2 0xE59 JUMPI PUSH1 0x40 MLOAD PUSH32 0x8C379A000000000000000000000000000000000000000000000000000000000 DUP2 MSTORE PUSH1 0x4 ADD PUSH2 0xE50 SWAP1 PUSH2 0x1525 JUMP JUMPDEST PUSH1 0x40 MLOAD DUP1 SWAP2 SUB SWAP1 REVERT JUMPDEST PUSH2 0xE62 DUP2 PUSH2 0xF05 JUMP JUMPDEST POP JUMP JUMPDEST CALLER PUSH20 0xFFFFFFFFFFFFFFFFFFFFFFFFFFFFFFFFFFFFFFFF AND PUSH2 0x8FC PUSH1 0x2 SELFBALANCE PUSH2 0xE8C SWAP2 SWAP1 PUSH2 0x16B9 JUMP JUMPDEST SWAP1 DUP2 ISZERO MUL SWAP1 PUSH1 0x40 MLOAD PUSH1 0x0 PUSH1 0x40 MLOAD DUP1 DUP4 SUB DUP2 DUP6 DUP9 DUP9 CALL SWAP4 POP POP POP POP ISZERO DUP1 ISZERO PUSH2 0xEB7 JUMPI RETURNDATASIZE PUSH1 0x0 DUP1 RETURNDATACOPY RETURNDATASIZE PUSH1 0x0 REVERT JUMPDEST POP PUSH32 0xA28482EEC3136A2461C6C30C08F71BA279C6C51A2D9C7BEA4E50D6D2632F3896 PUSH1 0x2 SELFBALANCE PUSH2 0xEE6 SWAP2 SWAP1 PUSH2 0x16B9 JUMP JUMPDEST PUSH1 0x40 MLOAD PUSH2 0xEF3 SWAP2 SWAP1 PUSH2 0x1545 JUMP JUMPDEST PUSH1 0x40 MLOAD DUP1 SWAP2 SUB SWAP1 LOG1 JUMP JUMPDEST PUSH1 0x0 CALLER SWAP1 POP SWAP1 JUMP JUMPDEST PUSH1 0x0 DUP1 PUSH1 0x0 SWAP1 SLOAD SWAP1 PUSH2 0x100 EXP SWAP1 DIV PUSH20 0xFFFFFFFFFFFFFFFFFFFFFFFFFFFFFFFFFFFFFFFF AND SWAP1 POP DUP2 PUSH1 0x0 DUP1 PUSH2 0x100 EXP DUP2 SLOAD DUP2 PUSH20 0xFFFFFFFFFFFFFFFFFFFFFFFFFFFFFFFFFFFFFFFF MUL NOT AND SWAP1 DUP4 PUSH20 0xFFFFFFFFFFFFFFFFFFFFFFFFFFFFFFFFFFFFFFFF AND MUL OR SWAP1 SSTORE POP DUP2 PUSH20 0xFFFFFFFFFFFFFFFFFFFFFFFFFFFFFFFFFFFFFFFF AND DUP2 PUSH20 0xFFFFFFFFFFFFFFFFFFFFFFFFFFFFFFFFFFFFFFFF AND PUSH32 0x8BE0079C531659141344CD1FD0A4F28419497F9722A3DAAFE3B4186F6B6457E0 PUSH1 0x40 MLOAD PUSH1 0x40 MLOAD DUP1 SWAP2 SUB SWAP1 LOG3 POP POP JUMP JUMPDEST DUP3 DUP1 SLOAD PUSH2 0xFD5 SWAP1 PUSH2 0x17D5 JUMP JUMPDEST SWAP1 PUSH1 0x0 MSTORE PUSH1 0x20 PUSH1 0x0 KECCAK256 SWAP1 PUSH1 0x1F ADD PUSH1 0x20 SWAP1 DIV DUP2 ADD SWAP3 DUP3 PUSH2 0xFF7 JUMPI PUSH1 0x0 DUP6 SSTORE PUSH2 0x103E JUMP JUMPDEST DUP3 PUSH1 0x1F LT PUSH2 0x1010 JUMPI DUP1 MLOAD PUSH1 0xFF NOT AND DUP4 DUP1 ADD OR DUP6 SSTORE PUSH2 0x103E JUMP JUMPDEST DUP3 DUP1 ADD PUSH1 0x1 ADD DUP6 SSTORE DUP3 ISZERO PUSH2 0x103E JUMPI SWAP2 DUP3 ADD JUMPDEST DUP3 DUP2 GT ISZERO PUSH2 0x103D JUMPI DUP3 MLOAD DUP3 SSTORE SWAP2 PUSH1 0x20 ADD SWAP2 SWAP1 PUSH1 0x1 ADD SWAP1 PUSH2 0x1022 JUMP JUMPDEST JUMPDEST POP SWAP1 POP PUSH2 0x104B SWAP2 SWAP1 PUSH2 0x104F JUMP JUMPDEST POP SWAP1 JUMP JUMPDEST JUMPDEST DUP1 DUP3 GT ISZERO PUSH2 0x1068 JUMPI PUSH1 0x0 DUP2 PUSH1 0x0 SWAP1 SSTORE POP PUSH1 0x1 ADD PUSH2 0x1050 JUMP JUMPDEST POP SWAP1 JUMP JUMPDEST PUSH1 0x0 PUSH2 0x107F PUSH2 0x107A DUP5 PUSH2 0x1601 JUMP JUMPDEST PUSH2 0x15DC JUMP JUMPDEST SWAP1 POP DUP3 DUP2 MSTORE PUSH1 0x20 DUP2 ADD DUP5 DUP5 DUP5 ADD GT ISZERO PUSH2 0x109B JUMPI PUSH2 0x109A PUSH2 0x19D9 JUMP JUMPDEST JUMPDEST PUSH2 0x10A6 DUP5 DUP3 DUP6 PUSH2 0x1793 JUMP JUMPDEST POP SWAP4 SWAP3 POP POP POP JUMP JUMPDEST PUSH1 0x0 DUP2 CALLDATALOAD SWAP1 POP PUSH2 0x10BD DUP2 PUSH2 0x1B12 JUMP JUMPDEST SWAP3 SWAP2 POP POP JUMP JUMPDEST PUSH1 0x0 DUP3 PUSH1 0x1F DUP4 ADD SLT PUSH2 0x10D8 JUMPI PUSH2 0x10D7 PUSH2 0x19D4 JUMP JUMPDEST JUMPDEST DUP2 CALLDATALOAD PUSH2 0x10E8 DUP5 DUP3 PUSH1 0x20 DUP7 ADD PUSH2 0x106C JUMP JUMPDEST SWAP2 POP POP SWAP3 SWAP2 POP POP JUMP JUMPDEST PUSH1 0x0 DUP2 CALLDATALOAD SWAP1 POP PUSH2 0x1100 DUP2 PUSH2 0x1B29 JUMP JUMPDEST SWAP3 SWAP2 POP POP JUMP JUMPDEST PUSH1 0x0 PUSH1 0x20 DUP3 DUP5 SUB SLT ISZERO PUSH2 0x111C JUMPI PUSH2 0x111B PUSH2 0x19E3 JUMP JUMPDEST JUMPDEST PUSH1 0x0 PUSH2 0x112A DUP5 DUP3 DUP6 ADD PUSH2 0x10AE JUMP JUMPDEST SWAP2 POP POP SWAP3 SWAP2 POP POP JUMP JUMPDEST PUSH1 0x0 DUP1 PUSH1 0x0 PUSH1 0x60 DUP5 DUP7 SUB SLT ISZERO PUSH2 0x114C JUMPI PUSH2 0x114B PUSH2 0x19E3 JUMP JUMPDEST JUMPDEST PUSH1 0x0 DUP5 ADD CALLDATALOAD PUSH8 0xFFFFFFFFFFFFFFFF DUP2 GT ISZERO PUSH2 0x116A JUMPI PUSH2 0x1169 PUSH2 0x19DE JUMP JUMPDEST JUMPDEST PUSH2 0x1176 DUP7 DUP3 DUP8 ADD PUSH2 0x10C3 JUMP JUMPDEST SWAP4 POP POP PUSH1 0x20 DUP5 ADD CALLDATALOAD PUSH8 0xFFFFFFFFFFFFFFFF DUP2 GT ISZERO PUSH2 0x1197 JUMPI PUSH2 0x1196 PUSH2 0x19DE JUMP JUMPDEST JUMPDEST PUSH2 0x11A3 DUP7 DUP3 DUP8 ADD PUSH2 0x10C3 JUMP JUMPDEST SWAP3 POP POP PUSH1 0x40 DUP5 ADD CALLDATALOAD PUSH8 0xFFFFFFFFFFFFFFFF DUP2 GT ISZERO PUSH2 0x11C4 JUMPI PUSH2 0x11C3 PUSH2 0x19DE JUMP JUMPDEST JUMPDEST PUSH2 0x11D0 DUP7 DUP3 DUP8 ADD PUSH2 0x10C3 JUMP JUMPDEST SWAP2 POP POP SWAP3 POP SWAP3 POP SWAP3 JUMP JUMPDEST PUSH1 0x0 PUSH1 0x20 DUP3 DUP5 SUB SLT ISZERO PUSH2 0x11F0 JUMPI PUSH2 0x11EF PUSH2 0x19E3 JUMP JUMPDEST JUMPDEST PUSH1 0x0 PUSH2 0x11FE DUP5 DUP3 DUP6 ADD PUSH2 0x10F1 JUMP JUMPDEST SWAP2 POP POP SWAP3 SWAP2 POP POP JUMP JUMPDEST PUSH2 0x1210 DUP2 PUSH2 0x1747 JUMP JUMPDEST DUP3 MSTORE POP POP JUMP JUMPDEST PUSH1 0x0 PUSH2 0x1221 DUP3 PUSH2 0x1647 JUMP JUMPDEST PUSH2 0x122B DUP2 DUP6 PUSH2 0x1652 JUMP JUMPDEST SWAP4 POP PUSH2 0x123B DUP2 DUP6 PUSH1 0x20 DUP7 ADD PUSH2 0x17A2 JUMP JUMPDEST PUSH2 0x1244 DUP2 PUSH2 0x19E8 JUMP JUMPDEST DUP5 ADD SWAP2 POP POP SWAP3 SWAP2 POP POP JUMP JUMPDEST PUSH1 0x0 DUP2 SLOAD PUSH2 0x125C DUP2 PUSH2 0x17D5 JUMP JUMPDEST PUSH2 0x1266 DUP2 DUP7 PUSH2 0x1652 JUMP JUMPDEST SWAP5 POP PUSH1 0x1 DUP3 AND PUSH1 0x0 DUP2 EQ PUSH2 0x1281 JUMPI PUSH1 0x1 DUP2 EQ PUSH2 0x1293 JUMPI PUSH2 0x12C6 JUMP JUMPDEST PUSH1 0xFF NOT DUP4 AND DUP7 MSTORE PUSH1 0x20 DUP7 ADD SWAP4 POP PUSH2 0x12C6 JUMP JUMPDEST PUSH2 0x129C DUP6 PUSH2 0x1632 JUMP JUMPDEST PUSH1 0x0 JUMPDEST DUP4 DUP2 LT ISZERO PUSH2 0x12BE JUMPI DUP2 SLOAD DUP2 DUP10 ADD MSTORE PUSH1 0x1 DUP3 ADD SWAP2 POP PUSH1 0x20 DUP2 ADD SWAP1 POP PUSH2 0x129F JUMP JUMPDEST DUP1 DUP9 ADD SWAP6 POP POP POP JUMPDEST POP POP POP SWAP3 SWAP2 POP POP JUMP JUMPDEST PUSH1 0x0 PUSH2 0x12DC PUSH1 0x28 DUP4 PUSH2 0x1652 JUMP JUMPDEST SWAP2 POP PUSH2 0x12E7 DUP3 PUSH2 0x19F9 JUMP JUMPDEST PUSH1 0x40 DUP3 ADD SWAP1 POP SWAP2 SWAP1 POP JUMP JUMPDEST PUSH1 0x0 PUSH2 0x12FF PUSH1 0x26 DUP4 PUSH2 0x1652 JUMP JUMPDEST SWAP2 POP PUSH2 0x130A DUP3 PUSH2 0x1A48 JUMP JUMPDEST PUSH1 0x40 DUP3 ADD SWAP1 POP SWAP2 SWAP1 POP JUMP JUMPDEST PUSH1 0x0 PUSH2 0x1322 PUSH1 0xC DUP4 PUSH2 0x1652 JUMP JUMPDEST SWAP2 POP PUSH2 0x132D DUP3 PUSH2 0x1A97 JUMP JUMPDEST PUSH1 0x20 DUP3 ADD SWAP1 POP SWAP2 SWAP1 POP JUMP JUMPDEST PUSH1 0x0 PUSH2 0x1345 PUSH1 0x20 DUP4 PUSH2 0x1652 JUMP JUMPDEST SWAP2 POP PUSH2 0x1350 DUP3 PUSH2 0x1AC0 JUMP JUMPDEST PUSH1 0x20 DUP3 ADD SWAP1 POP SWAP2 SWAP1 POP JUMP JUMPDEST PUSH1 0x0 PUSH2 0x1368 PUSH1 0x15 DUP4 PUSH2 0x1652 JUMP JUMPDEST SWAP2 POP PUSH2 0x1373 DUP3 PUSH2 0x1AE9 JUMP JUMPDEST PUSH1 0x20 DUP3 ADD SWAP1 POP SWAP2 SWAP1 POP JUMP JUMPDEST PUSH2 0x1387 DUP2 PUSH2 0x1779 JUMP JUMPDEST DUP3 MSTORE POP POP JUMP JUMPDEST PUSH2 0x139E PUSH2 0x1399 DUP3 PUSH2 0x1779 JUMP JUMPDEST PUSH2 0x18AE JUMP JUMPDEST DUP3 MSTORE POP POP JUMP JUMPDEST PUSH2 0x13AD DUP2 PUSH2 0x1783 JUMP JUMPDEST DUP3 MSTORE POP POP JUMP JUMPDEST PUSH1 0x0 PUSH2 0x13BF DUP3 DUP7 PUSH2 0x138D JUMP JUMPDEST PUSH1 0x20 DUP3 ADD SWAP2 POP PUSH2 0x13CF DUP3 DUP6 PUSH2 0x138D JUMP JUMPDEST PUSH1 0x20 DUP3 ADD SWAP2 POP PUSH2 0x13DF DUP3 DUP5 PUSH2 0x138D JUMP JUMPDEST PUSH1 0x20 DUP3 ADD SWAP2 POP DUP2 SWAP1 POP SWAP5 SWAP4 POP POP POP POP JUMP JUMPDEST PUSH1 0x0 PUSH1 0x20 DUP3 ADD SWAP1 POP PUSH2 0x1405 PUSH1 0x0 DUP4 ADD DUP5 PUSH2 0x1207 JUMP JUMPDEST SWAP3 SWAP2 POP POP JUMP JUMPDEST PUSH1 0x0 PUSH2 0x100 DUP3 ADD SWAP1 POP PUSH2 0x1421 PUSH1 0x0 DUP4 ADD DUP12 PUSH2 0x1207 JUMP JUMPDEST DUP2 DUP2 SUB PUSH1 0x20 DUP4 ADD MSTORE PUSH2 0x1433 DUP2 DUP11 PUSH2 0x1216 JUMP JUMPDEST SWAP1 POP DUP2 DUP2 SUB PUSH1 0x40 DUP4 ADD MSTORE PUSH2 0x1447 DUP2 DUP10 PUSH2 0x1216 JUMP JUMPDEST SWAP1 POP DUP2 DUP2 SUB PUSH1 0x60 DUP4 ADD MSTORE PUSH2 0x145B DUP2 DUP9 PUSH2 0x1216 JUMP JUMPDEST SWAP1 POP PUSH2 0x146A PUSH1 0x80 DUP4 ADD DUP8 PUSH2 0x137E JUMP JUMPDEST PUSH2 0x1477 PUSH1 0xA0 DUP4 ADD DUP7 PUSH2 0x137E JUMP JUMPDEST PUSH2 0x1484 PUSH1 0xC0 DUP4 ADD DUP6 PUSH2 0x137E JUMP JUMPDEST PUSH2 0x1491 PUSH1 0xE0 DUP4 ADD DUP5 PUSH2 0x13A4 JUMP JUMPDEST SWAP10 SWAP9 POP POP POP POP POP POP POP POP POP JUMP JUMPDEST PUSH1 0x0 PUSH1 0x20 DUP3 ADD SWAP1 POP DUP2 DUP2 SUB PUSH1 0x0 DUP4 ADD MSTORE PUSH2 0x14B8 DUP2 DUP5 PUSH2 0x1216 JUMP JUMPDEST SWAP1 POP SWAP3 SWAP2 POP POP JUMP JUMPDEST PUSH1 0x0 PUSH1 0x60 DUP3 ADD SWAP1 POP DUP2 DUP2 SUB PUSH1 0x0 DUP4 ADD MSTORE PUSH2 0x14DA DUP2 DUP7 PUSH2 0x124F JUMP JUMPDEST SWAP1 POP DUP2 DUP2 SUB PUSH1 0x20 DUP4 ADD MSTORE PUSH2 0x14EE DUP2 DUP6 PUSH2 0x124F JUMP JUMPDEST SWAP1 POP PUSH2 0x14FD PUSH1 0x40 DUP4 ADD DUP5 PUSH2 0x13A4 JUMP JUMPDEST SWAP5 SWAP4 POP POP POP POP JUMP JUMPDEST PUSH1 0x0 PUSH1 0x20 DUP3 ADD SWAP1 POP DUP2 DUP2 SUB PUSH1 0x0 DUP4 ADD MSTORE PUSH2 0x151E DUP2 PUSH2 0x12CF JUMP JUMPDEST SWAP1 POP SWAP2 SWAP1 POP JUMP JUMPDEST PUSH1 0x0 PUSH1 0x20 DUP3 ADD SWAP1 POP DUP2 DUP2 SUB PUSH1 0x0 DUP4 ADD MSTORE PUSH2 0x153E DUP2 PUSH2 0x12F2 JUMP JUMPDEST SWAP1 POP SWAP2 SWAP1 POP JUMP JUMPDEST PUSH1 0x0 PUSH1 0x40 DUP3 ADD SWAP1 POP DUP2 DUP2 SUB PUSH1 0x0 DUP4 ADD MSTORE PUSH2 0x155E DUP2 PUSH2 0x1315 JUMP JUMPDEST SWAP1 POP PUSH2 0x156D PUSH1 0x20 DUP4 ADD DUP5 PUSH2 0x137E JUMP JUMPDEST SWAP3 SWAP2 POP POP JUMP JUMPDEST PUSH1 0x0 PUSH1 0x20 DUP3 ADD SWAP1 POP DUP2 DUP2 SUB PUSH1 0x0 DUP4 ADD MSTORE PUSH2 0x158C DUP2 PUSH2 0x1338 JUMP JUMPDEST SWAP1 POP SWAP2 SWAP1 POP JUMP JUMPDEST PUSH1 0x0 PUSH1 0x40 DUP3 ADD SWAP1 POP DUP2 DUP2 SUB PUSH1 0x0 DUP4 ADD MSTORE PUSH2 0x15AC DUP2 PUSH2 0x135B JUMP JUMPDEST SWAP1 POP PUSH2 0x15BB PUSH1 0x20 DUP4 ADD DUP5 PUSH2 0x137E JUMP JUMPDEST SWAP3 SWAP2 POP POP JUMP JUMPDEST PUSH1 0x0 PUSH1 0x20 DUP3 ADD SWAP1 POP PUSH2 0x15D6 PUSH1 0x0 DUP4 ADD DUP5 PUSH2 0x137E JUMP JUMPDEST SWAP3 SWAP2 POP POP JUMP JUMPDEST PUSH1 0x0 PUSH2 0x15E6 PUSH2 0x15F7 JUMP JUMPDEST SWAP1 POP PUSH2 0x15F2 DUP3 DUP3 PUSH2 0x1807 JUMP JUMPDEST SWAP2 SWAP1 POP JUMP JUMPDEST PUSH1 0x0 PUSH1 0x40 MLOAD SWAP1 POP SWAP1 JUMP JUMPDEST PUSH1 0x0 PUSH8 0xFFFFFFFFFFFFFFFF DUP3 GT ISZERO PUSH2 0x161C JUMPI PUSH2 0x161B PUSH2 0x19A5 JUMP JUMPDEST JUMPDEST PUSH2 0x1625 DUP3 PUSH2 0x19E8 JUMP JUMPDEST SWAP1 POP PUSH1 0x20 DUP2 ADD SWAP1 POP SWAP2 SWAP1 POP JUMP JUMPDEST PUSH1 0x0 DUP2 SWAP1 POP DUP2 PUSH1 0x0 MSTORE PUSH1 0x20 PUSH1 0x0 KECCAK256 SWAP1 POP SWAP2 SWAP1 POP JUMP JUMPDEST PUSH1 0x0 DUP2 MLOAD SWAP1 POP SWAP2 SWAP1 POP JUMP JUMPDEST PUSH1 0x0 DUP3 DUP3 MSTORE PUSH1 0x20 DUP3 ADD SWAP1 POP SWAP3 SWAP2 POP POP JUMP JUMPDEST PUSH1 0x0 PUSH2 0x166E DUP3 PUSH2 0x1779 JUMP JUMPDEST SWAP2 POP PUSH2 0x1679 DUP4 PUSH2 0x1779 JUMP JUMPDEST SWAP3 POP DUP3 PUSH32 0xFFFFFFFFFFFFFFFFFFFFFFFFFFFFFFFFFFFFFFFFFFFFFFFFFFFFFFFFFFFFFFFF SUB DUP3 GT ISZERO PUSH2 0x16AE JUMPI PUSH2 0x16AD PUSH2 0x18E9 JUMP JUMPDEST JUMPDEST DUP3 DUP3 ADD SWAP1 POP SWAP3 SWAP2 POP POP JUMP JUMPDEST PUSH1 0x0 PUSH2 0x16C4 DUP3 PUSH2 0x1779 JUMP JUMPDEST SWAP2 POP PUSH2 0x16CF DUP4 PUSH2 0x1779 JUMP JUMPDEST SWAP3 POP DUP2 PUSH32 0xFFFFFFFFFFFFFFFFFFFFFFFFFFFFFFFFFFFFFFFFFFFFFFFFFFFFFFFFFFFFFFFF DIV DUP4 GT DUP3 ISZERO ISZERO AND ISZERO PUSH2 0x1708 JUMPI PUSH2 0x1707 PUSH2 0x18E9 JUMP JUMPDEST JUMPDEST DUP3 DUP3 MUL SWAP1 POP SWAP3 SWAP2 POP POP JUMP JUMPDEST PUSH1 0x0 PUSH2 0x171E DUP3 PUSH2 0x1779 JUMP JUMPDEST SWAP2 POP PUSH2 0x1729 DUP4 PUSH2 0x1779 JUMP JUMPDEST SWAP3 POP DUP3 DUP3 LT ISZERO PUSH2 0x173C JUMPI PUSH2 0x173B PUSH2 0x18E9 JUMP JUMPDEST JUMPDEST DUP3 DUP3 SUB SWAP1 POP SWAP3 SWAP2 POP POP JUMP JUMPDEST PUSH1 0x0 PUSH2 0x1752 DUP3 PUSH2 0x1759 JUMP JUMPDEST SWAP1 POP SWAP2 SWAP1 POP JUMP JUMPDEST PUSH1 0x0 PUSH20 0xFFFFFFFFFFFFFFFFFFFFFFFFFFFFFFFFFFFFFFFF DUP3 AND SWAP1 POP SWAP2 SWAP1 POP JUMP JUMPDEST PUSH1 0x0 DUP2 SWAP1 POP SWAP2 SWAP1 POP JUMP JUMPDEST PUSH1 0x0 PUSH4 0xFFFFFFFF DUP3 AND SWAP1 POP SWAP2 SWAP1 POP JUMP JUMPDEST DUP3 DUP2 DUP4 CALLDATACOPY PUSH1 0x0 DUP4 DUP4 ADD MSTORE POP POP POP JUMP JUMPDEST PUSH1 0x0 JUMPDEST DUP4 DUP2 LT ISZERO PUSH2 0x17C0 JUMPI DUP1 DUP3 ADD MLOAD DUP2 DUP5 ADD MSTORE PUSH1 0x20 DUP2 ADD SWAP1 POP PUSH2 0x17A5 JUMP JUMPDEST DUP4 DUP2 GT ISZERO PUSH2 0x17CF JUMPI PUSH1 0x0 DUP5 DUP5 ADD MSTORE JUMPDEST POP POP POP POP JUMP JUMPDEST PUSH1 0x0 PUSH1 0x2 DUP3 DIV SWAP1 POP PUSH1 0x1 DUP3 AND DUP1 PUSH2 0x17ED JUMPI PUSH1 0x7F DUP3 AND SWAP2 POP JUMPDEST PUSH1 0x20 DUP3 LT DUP2 EQ ISZERO PUSH2 0x1801 JUMPI PUSH2 0x1800 PUSH2 0x1947 JUMP JUMPDEST JUMPDEST POP SWAP2 SWAP1 POP JUMP JUMPDEST PUSH2 0x1810 DUP3 PUSH2 0x19E8 JUMP JUMPDEST DUP2 ADD DUP2 DUP2 LT PUSH8 0xFFFFFFFFFFFFFFFF DUP3 GT OR ISZERO PUSH2 0x182F JUMPI PUSH2 0x182E PUSH2 0x19A5 JUMP JUMPDEST JUMPDEST DUP1 PUSH1 0x40 MSTORE POP POP POP JUMP JUMPDEST PUSH1 0x0 PUSH2 0x1843 DUP3 PUSH2 0x1779 JUMP JUMPDEST SWAP2 POP PUSH32 0xFFFFFFFFFFFFFFFFFFFFFFFFFFFFFFFFFFFFFFFFFFFFFFFFFFFFFFFFFFFFFFFF DUP3 EQ ISZERO PUSH2 0x1876 JUMPI PUSH2 0x1875 PUSH2 0x18E9 JUMP JUMPDEST JUMPDEST PUSH1 0x1 DUP3 ADD SWAP1 POP SWAP2 SWAP1 POP JUMP JUMPDEST PUSH1 0x0 PUSH2 0x188C DUP3 PUSH2 0x1783 JUMP JUMPDEST SWAP2 POP PUSH4 0xFFFFFFFF DUP3 EQ ISZERO PUSH2 0x18A3 JUMPI PUSH2 0x18A2 PUSH2 0x18E9 JUMP JUMPDEST JUMPDEST PUSH1 0x1 DUP3 ADD SWAP1 POP SWAP2 SWAP1 POP JUMP JUMPDEST PUSH1 0x0 DUP2 SWAP1 POP SWAP2 SWAP1 POP JUMP JUMPDEST PUSH1 0x0 PUSH2 0x18C3 DUP3 PUSH2 0x1779 JUMP JUMPDEST SWAP2 POP PUSH2 0x18CE DUP4 PUSH2 0x1779 JUMP JUMPDEST SWAP3 POP DUP3 PUSH2 0x18DE JUMPI PUSH2 0x18DD PUSH2 0x1918 JUMP JUMPDEST JUMPDEST DUP3 DUP3 MOD SWAP1 POP SWAP3 SWAP2 POP POP JUMP JUMPDEST PUSH32 0x4E487B7100000000000000000000000000000000000000000000000000000000 PUSH1 0x0 MSTORE PUSH1 0x11 PUSH1 0x4 MSTORE PUSH1 0x24 PUSH1 0x0 REVERT JUMPDEST PUSH32 0x4E487B7100000000000000000000000000000000000000000000000000000000 PUSH1 0x0 MSTORE PUSH1 0x12 PUSH1 0x4 MSTORE PUSH1 0x24 PUSH1 0x0 REVERT JUMPDEST PUSH32 0x4E487B7100000000000000000000000000000000000000000000000000000000 PUSH1 0x0 MSTORE PUSH1 0x22 PUSH1 0x4 MSTORE PUSH1 0x24 PUSH1 0x0 REVERT JUMPDEST PUSH32 0x4E487B7100000000000000000000000000000000000000000000000000000000 PUSH1 0x0 MSTORE PUSH1 0x32 PUSH1 0x4 MSTORE PUSH1 0x24 PUSH1 0x0 REVERT JUMPDEST PUSH32 0x4E487B7100000000000000000000000000000000000000000000000000000000 PUSH1 0x0 MSTORE PUSH1 0x41 PUSH1 0x4 MSTORE PUSH1 0x24 PUSH1 0x0 REVERT JUMPDEST PUSH1 0x0 DUP1 REVERT JUMPDEST PUSH1 0x0 DUP1 REVERT JUMPDEST PUSH1 0x0 DUP1 REVERT JUMPDEST PUSH1 0x0 DUP1 REVERT JUMPDEST PUSH1 0x0 PUSH1 0x1F NOT PUSH1 0x1F DUP4 ADD AND SWAP1 POP SWAP2 SWAP1 POP JUMP JUMPDEST PUSH32 0x536F6C6F2073652070756564652074656E657220756E20636F63686520706F72 PUSH1 0x0 DUP3 ADD MSTORE PUSH32 0x20706572736F6E61000000000000000000000000000000000000000000000000 PUSH1 0x20 DUP3 ADD MSTORE POP JUMP JUMPDEST PUSH32 0x4F776E61626C653A206E6577206F776E657220697320746865207A65726F2061 PUSH1 0x0 DUP3 ADD MSTORE PUSH32 0x6464726573730000000000000000000000000000000000000000000000000000 PUSH1 0x20 DUP3 ADD MSTORE POP JUMP JUMPDEST PUSH32 0x4861732067616E61646F3A200000000000000000000000000000000000000000 PUSH1 0x0 DUP3 ADD MSTORE POP JUMP JUMPDEST PUSH32 0x4F776E61626C653A2063616C6C6572206973206E6F7420746865206F776E6572 PUSH1 0x0 DUP3 ADD MSTORE POP JUMP JUMPDEST PUSH32 0x456C20636F6368652067616E61646F722065733A200000000000000000000000 PUSH1 0x0 DUP3 ADD MSTORE POP JUMP JUMPDEST PUSH2 0x1B1B DUP2 PUSH2 0x1747 JUMP JUMPDEST DUP2 EQ PUSH2 0x1B26 JUMPI PUSH1 0x0 DUP1 REVERT JUMPDEST POP JUMP JUMPDEST PUSH2 0x1B32 DUP2 PUSH2 0x1779 JUMP JUMPDEST DUP2 EQ PUSH2 0x1B3D JUMPI PUSH1 0x0 DUP1 REVERT JUMPDEST POP JUMP INVALID LOG2 PUSH5 0x6970667358 0x22 SLT KECCAK256 0xBC 0xCD EXTCODECOPY 0x2E PUSH21 0x38F062CA535608FEAA5B4B124090512D728F88AF3B SWAP9 RETURN 0xCC 0x2D DUP14 0xBC PUSH5 0x736F6C6343 STOP ADDMOD SMOD STOP CALLER "
				},
				"gasEstimates": {
					"creation": {
						"codeDepositCost": "1406000",
						"executionCost": "infinite",
						"totalCost": "infinite"
					},
					"external": {
						"Apostar(uint256)": "infinite",
						"anadirCoche(string,string,string)": "infinite",
						"cocheDePropietario(uint256)": "2839",
						"listaCoches(uint256)": "infinite",
						"numeroCochesPersona(address)": "2815",
						"owner()": "2544",
						"renounceOwnership()": "30463",
						"subirDeNivel(address)": "infinite",
						"transferOwnership(address)": "30811",
						"verCochePropietario(address)": "infinite"
					},
					"internal": {
						"_depositoLleno(struct CarreraCoches.Coche storage pointer)": "infinite",
						"_repostando(struct CarreraCoches.Coche storage pointer)": "infinite",
						"balance()": "infinite"
					}
				},
				"methodIdentifiers": {
					"Apostar(uint256)": "6b6f0494",
					"anadirCoche(string,string,string)": "2458c544",
					"cocheDePropietario(uint256)": "858b0554",
					"listaCoches(uint256)": "d735573d",
					"numeroCochesPersona(address)": "1c6743e4",
					"owner()": "8da5cb5b",
					"renounceOwnership()": "715018a6",
					"subirDeNivel(address)": "6a7d1816",
					"transferOwnership(address)": "f2fde38b",
					"verCochePropietario(address)": "e172fca8"
				}
			},
			"storageLayout": {
				"storage": [
					{
						"astId": 7,
						"contract": "contracts/CarreraCoches/principal.sol:CarreraCoches",
						"label": "_owner",
						"offset": 0,
						"slot": "0",
						"type": "t_address"
					},
					{
						"astId": 129,
						"contract": "contracts/CarreraCoches/principal.sol:CarreraCoches",
						"label": "randNonce",
						"offset": 0,
						"slot": "1",
						"type": "t_uint256"
					},
					{
						"astId": 132,
						"contract": "contracts/CarreraCoches/principal.sol:CarreraCoches",
						"label": "contador",
						"offset": 0,
						"slot": "2",
						"type": "t_uint256"
					},
					{
						"astId": 135,
						"contract": "contracts/CarreraCoches/principal.sol:CarreraCoches",
						"label": "cooldown",
						"offset": 0,
						"slot": "3",
						"type": "t_uint256"
					},
					{
						"astId": 138,
						"contract": "contracts/CarreraCoches/principal.sol:CarreraCoches",
						"label": "subirNivel",
						"offset": 0,
						"slot": "4",
						"type": "t_uint256"
					},
					{
						"astId": 142,
						"contract": "contracts/CarreraCoches/principal.sol:CarreraCoches",
						"label": "listaCoches",
						"offset": 0,
						"slot": "5",
						"type": "t_array(t_struct(Coche)126_storage)dyn_storage"
					},
					{
						"astId": 168,
						"contract": "contracts/CarreraCoches/principal.sol:CarreraCoches",
						"label": "cocheDePropietario",
						"offset": 0,
						"slot": "6",
						"type": "t_mapping(t_uint256,t_address)"
					},
					{
						"astId": 172,
						"contract": "contracts/CarreraCoches/principal.sol:CarreraCoches",
						"label": "numeroCochesPersona",
						"offset": 0,
						"slot": "7",
						"type": "t_mapping(t_address,t_uint256)"
					}
				],
				"types": {
					"t_address": {
						"encoding": "inplace",
						"label": "address",
						"numberOfBytes": "20"
					},
					"t_array(t_struct(Coche)126_storage)dyn_storage": {
						"base": "t_struct(Coche)126_storage",
						"encoding": "dynamic_array",
						"label": "struct CarreraCoches.Coche[]",
						"numberOfBytes": "32"
					},
					"t_mapping(t_address,t_uint256)": {
						"encoding": "mapping",
						"key": "t_address",
						"label": "mapping(address => uint256)",
						"numberOfBytes": "32",
						"value": "t_uint256"
					},
					"t_mapping(t_uint256,t_address)": {
						"encoding": "mapping",
						"key": "t_uint256",
						"label": "mapping(uint256 => address)",
						"numberOfBytes": "32",
						"value": "t_address"
					},
					"t_string_storage": {
						"encoding": "bytes",
						"label": "string",
						"numberOfBytes": "32"
					},
					"t_struct(Coche)126_storage": {
						"encoding": "inplace",
						"label": "struct CarreraCoches.Coche",
						"members": [
							{
								"astId": 111,
								"contract": "contracts/CarreraCoches/principal.sol:CarreraCoches",
								"label": "idPiloto",
								"offset": 0,
								"slot": "0",
								"type": "t_address"
							},
							{
								"astId": 113,
								"contract": "contracts/CarreraCoches/principal.sol:CarreraCoches",
								"label": "modelo",
								"offset": 0,
								"slot": "1",
								"type": "t_string_storage"
							},
							{
								"astId": 115,
								"contract": "contracts/CarreraCoches/principal.sol:CarreraCoches",
								"label": "marca",
								"offset": 0,
								"slot": "2",
								"type": "t_string_storage"
							},
							{
								"astId": 117,
								"contract": "contracts/CarreraCoches/principal.sol:CarreraCoches",
								"label": "nombrePiloto",
								"offset": 0,
								"slot": "3",
								"type": "t_string_storage"
							},
							{
								"astId": 119,
								"contract": "contracts/CarreraCoches/principal.sol:CarreraCoches",
								"label": "carrerasGanadas",
								"offset": 0,
								"slot": "4",
								"type": "t_uint256"
							},
							{
								"astId": 121,
								"contract": "contracts/CarreraCoches/principal.sol:CarreraCoches",
								"label": "carrerasTotales",
								"offset": 0,
								"slot": "5",
								"type": "t_uint256"
							},
							{
								"astId": 123,
								"contract": "contracts/CarreraCoches/principal.sol:CarreraCoches",
								"label": "tiempoEspera",
								"offset": 0,
								"slot": "6",
								"type": "t_uint256"
							},
							{
								"astId": 125,
								"contract": "contracts/CarreraCoches/principal.sol:CarreraCoches",
								"label": "nivel",
								"offset": 0,
								"slot": "7",
								"type": "t_uint32"
							}
						],
						"numberOfBytes": "256"
					},
					"t_uint256": {
						"encoding": "inplace",
						"label": "uint256",
						"numberOfBytes": "32"
					},
					"t_uint32": {
						"encoding": "inplace",
						"label": "uint32",
						"numberOfBytes": "4"
					}
				}
			},
			"userdoc": {
				"kind": "user",
				"methods": {},
				"version": 1
			}
		}
	}
}