{
	"contracts/CarreraCoches/principal.sol": {
		"CarreraCoches": {
			"abi": [
				{
					"anonymous": false,
					"inputs": [
						{
							"indexed": true,
							"internalType": "address",
							"name": "previousOwner",
							"type": "address"
						},
						{
							"indexed": true,
							"internalType": "address",
							"name": "newOwner",
							"type": "address"
						}
					],
					"name": "OwnershipTransferred",
					"type": "event"
				},
				{
					"anonymous": false,
					"inputs": [
						{
							"indexed": false,
							"internalType": "string",
							"name": "mo",
							"type": "string"
						},
						{
							"indexed": false,
							"internalType": "string",
							"name": "ma",
							"type": "string"
						},
						{
							"indexed": false,
							"internalType": "uint32",
							"name": "niv",
							"type": "uint32"
						},
						{
							"indexed": false,
							"internalType": "uint256",
							"name": "carrGan",
							"type": "uint256"
						}
					],
					"name": "cochePropietario",
					"type": "event"
				},
				{
					"anonymous": false,
					"inputs": [
						{
							"indexed": false,
							"internalType": "uint256",
							"name": "compr",
							"type": "uint256"
						}
					],
					"name": "comprobar",
					"type": "event"
				},
				{
					"anonymous": false,
					"inputs": [
						{
							"indexed": false,
							"internalType": "string",
							"name": "ms",
							"type": "string"
						}
					],
					"name": "confirmacionDepositoLleno",
					"type": "event"
				},
				{
					"anonymous": false,
					"inputs": [
						{
							"indexed": false,
							"internalType": "string",
							"name": "ms",
							"type": "string"
						},
						{
							"indexed": false,
							"internalType": "uint256",
							"name": "res",
							"type": "uint256"
						}
					],
					"name": "mostrarResultado",
					"type": "event"
				},
				{
					"inputs": [
						{
							"internalType": "uint256",
							"name": "dineroApostar",
							"type": "uint256"
						}
					],
					"name": "Apostar",
					"outputs": [
						{
							"internalType": "string",
							"name": "",
							"type": "string"
						}
					],
					"stateMutability": "payable",
					"type": "function"
				},
				{
					"inputs": [],
					"name": "_owner",
					"outputs": [
						{
							"internalType": "address",
							"name": "",
							"type": "address"
						}
					],
					"stateMutability": "view",
					"type": "function"
				},
				{
					"inputs": [
						{
							"internalType": "string",
							"name": "_modelo",
							"type": "string"
						},
						{
							"internalType": "string",
							"name": "_marca",
							"type": "string"
						},
						{
							"internalType": "string",
							"name": "_nombrePiloto",
							"type": "string"
						}
					],
					"name": "anadirCoche",
					"outputs": [
						{
							"internalType": "uint256",
							"name": "",
							"type": "uint256"
						}
					],
					"stateMutability": "nonpayable",
					"type": "function"
				},
				{
					"inputs": [
						{
							"internalType": "uint256",
							"name": "",
							"type": "uint256"
						}
					],
					"name": "cocheDePropietario",
					"outputs": [
						{
							"internalType": "address",
							"name": "",
							"type": "address"
						}
					],
					"stateMutability": "view",
					"type": "function"
				},
				{
					"inputs": [
						{
							"internalType": "address",
							"name": "_address",
							"type": "address"
						},
						{
							"internalType": "string",
							"name": "_newModelo",
							"type": "string"
						},
						{
							"internalType": "string",
							"name": "_newMarca",
							"type": "string"
						}
					],
					"name": "comprarCoche",
					"outputs": [
						{
							"internalType": "string",
							"name": "",
							"type": "string"
						}
					],
					"stateMutability": "payable",
					"type": "function"
				},
				{
					"inputs": [
						{
							"internalType": "uint256",
							"name": "",
							"type": "uint256"
						}
					],
					"name": "listaCoches",
					"outputs": [
						{
							"internalType": "address",
							"name": "idPiloto",
							"type": "address"
						},
						{
							"internalType": "string",
							"name": "modelo",
							"type": "string"
						},
						{
							"internalType": "string",
							"name": "marca",
							"type": "string"
						},
						{
							"internalType": "string",
							"name": "nombrePiloto",
							"type": "string"
						},
						{
							"internalType": "uint256",
							"name": "carrerasGanadas",
							"type": "uint256"
						},
						{
							"internalType": "uint256",
							"name": "carrerasTotales",
							"type": "uint256"
						},
						{
							"internalType": "uint256",
							"name": "tiempoEspera",
							"type": "uint256"
						},
						{
							"internalType": "uint32",
							"name": "nivel",
							"type": "uint32"
						}
					],
					"stateMutability": "view",
					"type": "function"
				},
				{
					"inputs": [
						{
							"internalType": "address",
							"name": "",
							"type": "address"
						}
					],
					"name": "numeroCochesPersona",
					"outputs": [
						{
							"internalType": "uint256",
							"name": "",
							"type": "uint256"
						}
					],
					"stateMutability": "view",
					"type": "function"
				},
				{
					"inputs": [],
					"name": "owner",
					"outputs": [
						{
							"internalType": "address",
							"name": "",
							"type": "address"
						}
					],
					"stateMutability": "view",
					"type": "function"
				},
				{
					"inputs": [],
					"name": "renounceOwnership",
					"outputs": [],
					"stateMutability": "nonpayable",
					"type": "function"
				},
				{
					"inputs": [],
					"name": "retirarDinero",
					"outputs": [],
					"stateMutability": "nonpayable",
					"type": "function"
				},
				{
					"inputs": [
						{
							"internalType": "address",
							"name": "_propietario",
							"type": "address"
						}
					],
					"name": "subirDeNivel",
					"outputs": [
						{
							"internalType": "string",
							"name": "",
							"type": "string"
						}
					],
					"stateMutability": "payable",
					"type": "function"
				},
				{
					"inputs": [
						{
							"internalType": "address",
							"name": "newOwner",
							"type": "address"
						}
					],
					"name": "transferOwnership",
					"outputs": [],
					"stateMutability": "nonpayable",
					"type": "function"
				},
				{
					"inputs": [
						{
							"internalType": "address",
							"name": "_propietario",
							"type": "address"
						}
					],
					"name": "verCochePropietario",
					"outputs": [],
					"stateMutability": "nonpayable",
					"type": "function"
				}
			],
			"devdoc": {
				"kind": "dev",
				"methods": {
					"owner()": {
						"details": "Returns the address of the current owner."
					},
					"renounceOwnership()": {
						"details": "Leaves the contract without owner. It will not be possible to call `onlyOwner` functions anymore. Can only be called by the current owner. NOTE: Renouncing ownership will leave the contract without an owner, thereby removing any functionality that is only available to the owner."
					},
					"transferOwnership(address)": {
						"details": "Transfers ownership of the contract to a new account (`newOwner`). Can only be called by the current owner."
					}
				},
				"version": 1
			},
			"evm": {
				"assembly": "    /* \"contracts/CarreraCoches/principal.sol\":54:5666  contract CarreraCoches is Ownable {\r... */\n  mstore(0x40, 0x80)\n    /* \"contracts/CarreraCoches/principal.sol\":370:371  0 */\n  0x00\n    /* \"contracts/CarreraCoches/principal.sol\":353:371  uint randNonce = 0 */\n  0x01\n  sstore\n    /* \"contracts/CarreraCoches/principal.sol\":494:495  0 */\n  0x00\n    /* \"contracts/CarreraCoches/principal.sol\":478:495  uint contador = 0 */\n  0x02\n  sstore\n    /* \"contracts/CarreraCoches/principal.sol\":518:528  60 seconds */\n  0x3c\n    /* \"contracts/CarreraCoches/principal.sol\":502:528  uint cooldown = 60 seconds */\n  0x03\n  sstore\n    /* \"contracts/CarreraCoches/principal.sol\":553:560  1 ether */\n  0x0de0b6b3a7640000\n    /* \"contracts/CarreraCoches/principal.sol\":535:560  uint subirNivel = 1 ether */\n  0x04\n  sstore\n    /* \"contracts/CarreraCoches/principal.sol\":588:595  1 ether */\n  0x0de0b6b3a7640000\n    /* \"contracts/CarreraCoches/principal.sol\":567:595  uint cambiarCocheV = 1 ether */\n  0x05\n  sstore\n    /* \"contracts/CarreraCoches/principal.sol\":54:5666  contract CarreraCoches is Ownable {\r... */\n  callvalue\n  dup1\n  iszero\n  tag_1\n  jumpi\n  0x00\n  dup1\n  revert\ntag_1:\n  pop\n    /* \"contracts/CarreraCoches/ownable.sol\":947:979  _transferOwnership(_msgSender()) */\n  tag_4\n    /* \"contracts/CarreraCoches/ownable.sol\":966:978  _msgSender() */\n  tag_5\n    /* \"contracts/CarreraCoches/ownable.sol\":966:976  _msgSender */\n  shl(0x20, tag_6)\n    /* \"contracts/CarreraCoches/ownable.sol\":966:978  _msgSender() */\n  0x20\n  shr\n  jump\t// in\ntag_5:\n    /* \"contracts/CarreraCoches/ownable.sol\":947:965  _transferOwnership */\n  shl(0x20, tag_7)\n    /* \"contracts/CarreraCoches/ownable.sol\":947:979  _transferOwnership(_msgSender()) */\n  0x20\n  shr\n  jump\t// in\ntag_4:\n    /* \"contracts/CarreraCoches/principal.sol\":54:5666  contract CarreraCoches is Ownable {\r... */\n  jump(tag_8)\n    /* \"contracts/CarreraCoches/utils/Context.sol\":656:754  function _msgSender() internal view virtual returns (address) {\r... */\ntag_6:\n    /* \"contracts/CarreraCoches/utils/Context.sol\":709:716  address */\n  0x00\n    /* \"contracts/CarreraCoches/utils/Context.sol\":736:746  msg.sender */\n  caller\n    /* \"contracts/CarreraCoches/utils/Context.sol\":729:746  return msg.sender */\n  swap1\n  pop\n    /* \"contracts/CarreraCoches/utils/Context.sol\":656:754  function _msgSender() internal view virtual returns (address) {\r... */\n  swap1\n  jump\t// out\n    /* \"contracts/CarreraCoches/ownable.sol\":2338:2529  function _transferOwnership(address newOwner) internal virtual {\r... */\ntag_7:\n    /* \"contracts/CarreraCoches/ownable.sol\":2412:2428  address oldOwner */\n  0x00\n    /* \"contracts/CarreraCoches/ownable.sol\":2431:2437  _owner */\n  dup1\n  0x00\n  swap1\n  sload\n  swap1\n  0x0100\n  exp\n  swap1\n  div\n  0xffffffffffffffffffffffffffffffffffffffff\n  and\n    /* \"contracts/CarreraCoches/ownable.sol\":2412:2437  address oldOwner = _owner */\n  swap1\n  pop\n    /* \"contracts/CarreraCoches/ownable.sol\":2457:2465  newOwner */\n  dup2\n    /* \"contracts/CarreraCoches/ownable.sol\":2448:2454  _owner */\n  0x00\n  dup1\n    /* \"contracts/CarreraCoches/ownable.sol\":2448:2465  _owner = newOwner */\n  0x0100\n  exp\n  dup2\n  sload\n  dup2\n  0xffffffffffffffffffffffffffffffffffffffff\n  mul\n  not\n  and\n  swap1\n  dup4\n  0xffffffffffffffffffffffffffffffffffffffff\n  and\n  mul\n  or\n  swap1\n  sstore\n  pop\n    /* \"contracts/CarreraCoches/ownable.sol\":2512:2520  newOwner */\n  dup2\n    /* \"contracts/CarreraCoches/ownable.sol\":2481:2521  OwnershipTransferred(oldOwner, newOwner) */\n  0xffffffffffffffffffffffffffffffffffffffff\n  and\n    /* \"contracts/CarreraCoches/ownable.sol\":2502:2510  oldOwner */\n  dup2\n    /* \"contracts/CarreraCoches/ownable.sol\":2481:2521  OwnershipTransferred(oldOwner, newOwner) */\n  0xffffffffffffffffffffffffffffffffffffffff\n  and\n  0x8be0079c531659141344cd1fd0a4f28419497f9722a3daafe3b4186f6b6457e0\n  mload(0x40)\n  mload(0x40)\n  dup1\n  swap2\n  sub\n  swap1\n  log3\n    /* \"contracts/CarreraCoches/ownable.sol\":2401:2529  {\r... */\n  pop\n    /* \"contracts/CarreraCoches/ownable.sol\":2338:2529  function _transferOwnership(address newOwner) internal virtual {\r... */\n  pop\n  jump\t// out\n    /* \"contracts/CarreraCoches/principal.sol\":54:5666  contract CarreraCoches is Ownable {\r... */\ntag_8:\n  dataSize(sub_0)\n  dup1\n  dataOffset(sub_0)\n  0x00\n  codecopy\n  0x00\n  return\nstop\n\nsub_0: assembly {\n        /* \"contracts/CarreraCoches/principal.sol\":54:5666  contract CarreraCoches is Ownable {\r... */\n      mstore(0x40, 0x80)\n      jumpi(tag_1, lt(calldatasize, 0x04))\n      shr(0xe0, calldataload(0x00))\n      dup1\n      0x715018a6\n      gt\n      tag_15\n      jumpi\n      dup1\n      0xb2bdfa7b\n      gt\n      tag_16\n      jumpi\n      dup1\n      0xb2bdfa7b\n      eq\n      tag_11\n      jumpi\n      dup1\n      0xd735573d\n      eq\n      tag_12\n      jumpi\n      dup1\n      0xe172fca8\n      eq\n      tag_13\n      jumpi\n      dup1\n      0xf2fde38b\n      eq\n      tag_14\n      jumpi\n      jump(tag_1)\n    tag_16:\n      dup1\n      0x715018a6\n      eq\n      tag_8\n      jumpi\n      dup1\n      0x858b0554\n      eq\n      tag_9\n      jumpi\n      dup1\n      0x8da5cb5b\n      eq\n      tag_10\n      jumpi\n      jump(tag_1)\n    tag_15:\n      dup1\n      0x049a5f65\n      eq\n      tag_2\n      jumpi\n      dup1\n      0x1bfdc150\n      eq\n      tag_3\n      jumpi\n      dup1\n      0x1c6743e4\n      eq\n      tag_4\n      jumpi\n      dup1\n      0x2458c544\n      eq\n      tag_5\n      jumpi\n      dup1\n      0x6a7d1816\n      eq\n      tag_6\n      jumpi\n      dup1\n      0x6b6f0494\n      eq\n      tag_7\n      jumpi\n    tag_1:\n      0x00\n      dup1\n      revert\n        /* \"contracts/CarreraCoches/principal.sol\":3015:3477  function comprarCoche(address _address, string memory _newModelo, string memory _newMarca) external payable returns(string memory) {\r... */\n    tag_2:\n      tag_17\n      0x04\n      dup1\n      calldatasize\n      sub\n      dup2\n      add\n      swap1\n      tag_18\n      swap2\n      swap1\n      tag_19\n      jump\t// in\n    tag_18:\n      tag_20\n      jump\t// in\n    tag_17:\n      mload(0x40)\n      tag_21\n      swap2\n      swap1\n      tag_22\n      jump\t// in\n    tag_21:\n      mload(0x40)\n      dup1\n      swap2\n      sub\n      swap1\n      return\n        /* \"contracts/CarreraCoches/principal.sol\":5548:5663  function retirarDinero() external onlyOwner {\r... */\n    tag_3:\n      callvalue\n      dup1\n      iszero\n      tag_23\n      jumpi\n      0x00\n      dup1\n      revert\n    tag_23:\n      pop\n      tag_24\n      tag_25\n      jump\t// in\n    tag_24:\n      stop\n        /* \"contracts/CarreraCoches/principal.sol\":909:961  mapping (address => uint) public numeroCochesPersona */\n    tag_4:\n      callvalue\n      dup1\n      iszero\n      tag_26\n      jumpi\n      0x00\n      dup1\n      revert\n    tag_26:\n      pop\n      tag_27\n      0x04\n      dup1\n      calldatasize\n      sub\n      dup2\n      add\n      swap1\n      tag_28\n      swap2\n      swap1\n      tag_29\n      jump\t// in\n    tag_28:\n      tag_30\n      jump\t// in\n    tag_27:\n      mload(0x40)\n      tag_31\n      swap2\n      swap1\n      tag_32\n      jump\t// in\n    tag_31:\n      mload(0x40)\n      dup1\n      swap2\n      sub\n      swap1\n      return\n        /* \"contracts/CarreraCoches/principal.sol\":1526:1966  function anadirCoche(string memory _modelo, string memory _marca, string memory _nombrePiloto) public restriccion returns (uint) {\r... */\n    tag_5:\n      callvalue\n      dup1\n      iszero\n      tag_33\n      jumpi\n      0x00\n      dup1\n      revert\n    tag_33:\n      pop\n      tag_34\n      0x04\n      dup1\n      calldatasize\n      sub\n      dup2\n      add\n      swap1\n      tag_35\n      swap2\n      swap1\n      tag_36\n      jump\t// in\n    tag_35:\n      tag_37\n      jump\t// in\n    tag_34:\n      mload(0x40)\n      tag_38\n      swap2\n      swap1\n      tag_32\n      jump\t// in\n    tag_38:\n      mload(0x40)\n      dup1\n      swap2\n      sub\n      swap1\n      return\n        /* \"contracts/CarreraCoches/principal.sol\":2294:2653  function subirDeNivel(address _propietario) external payable returns(string memory) {\r... */\n    tag_6:\n      tag_39\n      0x04\n      dup1\n      calldatasize\n      sub\n      dup2\n      add\n      swap1\n      tag_40\n      swap2\n      swap1\n      tag_29\n      jump\t// in\n    tag_40:\n      tag_41\n      jump\t// in\n    tag_39:\n      mload(0x40)\n      tag_42\n      swap2\n      swap1\n      tag_22\n      jump\t// in\n    tag_42:\n      mload(0x40)\n      dup1\n      swap2\n      sub\n      swap1\n      return\n        /* \"contracts/CarreraCoches/principal.sol\":3814:5356  function Apostar(uint dineroApostar) public payable returns(string memory) {\r... */\n    tag_7:\n      tag_43\n      0x04\n      dup1\n      calldatasize\n      sub\n      dup2\n      add\n      swap1\n      tag_44\n      swap2\n      swap1\n      tag_45\n      jump\t// in\n    tag_44:\n      tag_46\n      jump\t// in\n    tag_43:\n      mload(0x40)\n      tag_47\n      swap2\n      swap1\n      tag_22\n      jump\t// in\n    tag_47:\n      mload(0x40)\n      dup1\n      swap2\n      sub\n      swap1\n      return\n        /* \"contracts/CarreraCoches/ownable.sol\":1719:1822  function renounceOwnership() public virtual onlyOwner {\r... */\n    tag_8:\n      callvalue\n      dup1\n      iszero\n      tag_48\n      jumpi\n      0x00\n      dup1\n      revert\n    tag_48:\n      pop\n      tag_49\n      tag_50\n      jump\t// in\n    tag_49:\n      stop\n        /* \"contracts/CarreraCoches/principal.sol\":851:902  mapping (uint => address) public cocheDePropietario */\n    tag_9:\n      callvalue\n      dup1\n      iszero\n      tag_51\n      jumpi\n      0x00\n      dup1\n      revert\n    tag_51:\n      pop\n      tag_52\n      0x04\n      dup1\n      calldatasize\n      sub\n      dup2\n      add\n      swap1\n      tag_53\n      swap2\n      swap1\n      tag_45\n      jump\t// in\n    tag_53:\n      tag_54\n      jump\t// in\n    tag_52:\n      mload(0x40)\n      tag_55\n      swap2\n      swap1\n      tag_56\n      jump\t// in\n    tag_55:\n      mload(0x40)\n      dup1\n      swap2\n      sub\n      swap1\n      return\n        /* \"contracts/CarreraCoches/ownable.sol\":1068:1155  function owner() public view virtual returns (address) {\r... */\n    tag_10:\n      callvalue\n      dup1\n      iszero\n      tag_57\n      jumpi\n      0x00\n      dup1\n      revert\n    tag_57:\n      pop\n      tag_58\n      tag_59\n      jump\t// in\n    tag_58:\n      mload(0x40)\n      tag_60\n      swap2\n      swap1\n      tag_56\n      jump\t// in\n    tag_60:\n      mload(0x40)\n      dup1\n      swap2\n      sub\n      swap1\n      return\n        /* \"contracts/CarreraCoches/ownable.sol\":701:722  address public _owner */\n    tag_11:\n      callvalue\n      dup1\n      iszero\n      tag_61\n      jumpi\n      0x00\n      dup1\n      revert\n    tag_61:\n      pop\n      tag_62\n      tag_63\n      jump\t// in\n    tag_62:\n      mload(0x40)\n      tag_64\n      swap2\n      swap1\n      tag_56\n      jump\t// in\n    tag_64:\n      mload(0x40)\n      dup1\n      swap2\n      sub\n      swap1\n      return\n        /* \"contracts/CarreraCoches/principal.sol\":604:630  Coche[] public listaCoches */\n    tag_12:\n      callvalue\n      dup1\n      iszero\n      tag_65\n      jumpi\n      0x00\n      dup1\n      revert\n    tag_65:\n      pop\n      tag_66\n      0x04\n      dup1\n      calldatasize\n      sub\n      dup2\n      add\n      swap1\n      tag_67\n      swap2\n      swap1\n      tag_45\n      jump\t// in\n    tag_67:\n      tag_68\n      jump\t// in\n    tag_66:\n      mload(0x40)\n      tag_69\n      swap9\n      swap8\n      swap7\n      swap6\n      swap5\n      swap4\n      swap3\n      swap2\n      swap1\n      tag_70\n      jump\t// in\n    tag_69:\n      mload(0x40)\n      dup1\n      swap2\n      sub\n      swap1\n      return\n        /* \"contracts/CarreraCoches/principal.sol\":2661:3005  function verCochePropietario(address _propietario) external {\r... */\n    tag_13:\n      callvalue\n      dup1\n      iszero\n      tag_71\n      jumpi\n      0x00\n      dup1\n      revert\n    tag_71:\n      pop\n      tag_72\n      0x04\n      dup1\n      calldatasize\n      sub\n      dup2\n      add\n      swap1\n      tag_73\n      swap2\n      swap1\n      tag_29\n      jump\t// in\n    tag_73:\n      tag_74\n      jump\t// in\n    tag_72:\n      stop\n        /* \"contracts/CarreraCoches/ownable.sol\":1977:2178  function transferOwnership(address newOwner) public virtual onlyOwner {\r... */\n    tag_14:\n      callvalue\n      dup1\n      iszero\n      tag_75\n      jumpi\n      0x00\n      dup1\n      revert\n    tag_75:\n      pop\n      tag_76\n      0x04\n      dup1\n      calldatasize\n      sub\n      dup2\n      add\n      swap1\n      tag_77\n      swap2\n      swap1\n      tag_29\n      jump\t// in\n    tag_77:\n      tag_78\n      jump\t// in\n    tag_76:\n      stop\n        /* \"contracts/CarreraCoches/principal.sol\":3015:3477  function comprarCoche(address _address, string memory _newModelo, string memory _newMarca) external payable returns(string memory) {\r... */\n    tag_20:\n        /* \"contracts/CarreraCoches/principal.sol\":3131:3144  string memory */\n      0x60\n        /* \"contracts/CarreraCoches/principal.sol\":3177:3185  _address */\n      dup4\n        /* \"contracts/CarreraCoches/principal.sol\":3165:3185  msg.sender==_address */\n      0xffffffffffffffffffffffffffffffffffffffff\n      and\n        /* \"contracts/CarreraCoches/principal.sol\":3165:3175  msg.sender */\n      caller\n        /* \"contracts/CarreraCoches/principal.sol\":3165:3185  msg.sender==_address */\n      0xffffffffffffffffffffffffffffffffffffffff\n      and\n      eq\n        /* \"contracts/CarreraCoches/principal.sol\":3157:3186  require(msg.sender==_address) */\n      tag_80\n      jumpi\n      0x00\n      dup1\n      revert\n    tag_80:\n        /* \"contracts/CarreraCoches/principal.sol\":3216:3229  cambiarCocheV */\n      sload(0x05)\n        /* \"contracts/CarreraCoches/principal.sol\":3205:3214  msg.value */\n      callvalue\n        /* \"contracts/CarreraCoches/principal.sol\":3205:3229  msg.value==cambiarCocheV */\n      eq\n        /* \"contracts/CarreraCoches/principal.sol\":3197:3230  require(msg.value==cambiarCocheV) */\n      tag_81\n      jumpi\n      0x00\n      dup1\n      revert\n    tag_81:\n        /* \"contracts/CarreraCoches/principal.sol\":3245:3251  uint i */\n      0x00\n        /* \"contracts/CarreraCoches/principal.sol\":3241:3470  for(uint i = 0; i < listaCoches.length; i++){\r... */\n    tag_82:\n        /* \"contracts/CarreraCoches/principal.sol\":3261:3272  listaCoches */\n      0x06\n        /* \"contracts/CarreraCoches/principal.sol\":3261:3279  listaCoches.length */\n      dup1\n      sload\n      swap1\n      pop\n        /* \"contracts/CarreraCoches/principal.sol\":3257:3258  i */\n      dup2\n        /* \"contracts/CarreraCoches/principal.sol\":3257:3279  i < listaCoches.length */\n      lt\n        /* \"contracts/CarreraCoches/principal.sol\":3241:3470  for(uint i = 0; i < listaCoches.length; i++){\r... */\n      iszero\n      tag_83\n      jumpi\n        /* \"contracts/CarreraCoches/principal.sol\":3328:3338  msg.sender */\n      caller\n        /* \"contracts/CarreraCoches/principal.sol\":3303:3338  listaCoches[i].idPiloto==msg.sender */\n      0xffffffffffffffffffffffffffffffffffffffff\n      and\n        /* \"contracts/CarreraCoches/principal.sol\":3303:3314  listaCoches */\n      0x06\n        /* \"contracts/CarreraCoches/principal.sol\":3315:3316  i */\n      dup3\n        /* \"contracts/CarreraCoches/principal.sol\":3303:3317  listaCoches[i] */\n      dup2\n      sload\n      dup2\n      lt\n      tag_85\n      jumpi\n      tag_86\n      tag_87\n      jump\t// in\n    tag_86:\n    tag_85:\n      swap1\n      0x00\n      mstore\n      keccak256(0x00, 0x20)\n      swap1\n      0x08\n      mul\n      add\n        /* \"contracts/CarreraCoches/principal.sol\":3303:3326  listaCoches[i].idPiloto */\n      0x00\n      add\n      0x00\n      swap1\n      sload\n      swap1\n      0x0100\n      exp\n      swap1\n      div\n      0xffffffffffffffffffffffffffffffffffffffff\n      and\n        /* \"contracts/CarreraCoches/principal.sol\":3303:3338  listaCoches[i].idPiloto==msg.sender */\n      0xffffffffffffffffffffffffffffffffffffffff\n      and\n      eq\n        /* \"contracts/CarreraCoches/principal.sol\":3300:3459  if(listaCoches[i].idPiloto==msg.sender){\r... */\n      iszero\n      tag_89\n      jumpi\n        /* \"contracts/CarreraCoches/principal.sol\":3382:3392  _newModelo */\n      dup4\n        /* \"contracts/CarreraCoches/principal.sol\":3358:3369  listaCoches */\n      0x06\n        /* \"contracts/CarreraCoches/principal.sol\":3370:3371  i */\n      dup3\n        /* \"contracts/CarreraCoches/principal.sol\":3358:3372  listaCoches[i] */\n      dup2\n      sload\n      dup2\n      lt\n      tag_90\n      jumpi\n      tag_91\n      tag_87\n      jump\t// in\n    tag_91:\n    tag_90:\n      swap1\n      0x00\n      mstore\n      keccak256(0x00, 0x20)\n      swap1\n      0x08\n      mul\n      add\n        /* \"contracts/CarreraCoches/principal.sol\":3358:3379  listaCoches[i].modelo */\n      0x01\n      add\n        /* \"contracts/CarreraCoches/principal.sol\":3358:3392  listaCoches[i].modelo = _newModelo */\n      swap1\n      dup1\n      mload\n      swap1\n      0x20\n      add\n      swap1\n      tag_93\n      swap3\n      swap2\n      swap1\n      tag_94\n      jump\t// in\n    tag_93:\n      pop\n        /* \"contracts/CarreraCoches/principal.sol\":3434:3443  _newMarca */\n      dup3\n        /* \"contracts/CarreraCoches/principal.sol\":3411:3422  listaCoches */\n      0x06\n        /* \"contracts/CarreraCoches/principal.sol\":3423:3424  i */\n      dup3\n        /* \"contracts/CarreraCoches/principal.sol\":3411:3425  listaCoches[i] */\n      dup2\n      sload\n      dup2\n      lt\n      tag_95\n      jumpi\n      tag_96\n      tag_87\n      jump\t// in\n    tag_96:\n    tag_95:\n      swap1\n      0x00\n      mstore\n      keccak256(0x00, 0x20)\n      swap1\n      0x08\n      mul\n      add\n        /* \"contracts/CarreraCoches/principal.sol\":3411:3431  listaCoches[i].marca */\n      0x02\n      add\n        /* \"contracts/CarreraCoches/principal.sol\":3411:3443  listaCoches[i].marca = _newMarca */\n      swap1\n      dup1\n      mload\n      swap1\n      0x20\n      add\n      swap1\n      tag_98\n      swap3\n      swap2\n      swap1\n      tag_94\n      jump\t// in\n    tag_98:\n      pop\n        /* \"contracts/CarreraCoches/principal.sol\":3300:3459  if(listaCoches[i].idPiloto==msg.sender){\r... */\n    tag_89:\n        /* \"contracts/CarreraCoches/principal.sol\":3281:3284  i++ */\n      dup1\n      dup1\n      tag_99\n      swap1\n      tag_100\n      jump\t// in\n    tag_99:\n      swap2\n      pop\n      pop\n        /* \"contracts/CarreraCoches/principal.sol\":3241:3470  for(uint i = 0; i < listaCoches.length; i++){\r... */\n      jump(tag_82)\n    tag_83:\n      pop\n        /* \"contracts/CarreraCoches/principal.sol\":3015:3477  function comprarCoche(address _address, string memory _newModelo, string memory _newMarca) external payable returns(string memory) {\r... */\n      swap4\n      swap3\n      pop\n      pop\n      pop\n      jump\t// out\n        /* \"contracts/CarreraCoches/principal.sol\":5548:5663  function retirarDinero() external onlyOwner {\r... */\n    tag_25:\n        /* \"contracts/CarreraCoches/ownable.sol\":1299:1311  _msgSender() */\n      tag_102\n        /* \"contracts/CarreraCoches/ownable.sol\":1299:1309  _msgSender */\n      tag_103\n        /* \"contracts/CarreraCoches/ownable.sol\":1299:1311  _msgSender() */\n      jump\t// in\n    tag_102:\n        /* \"contracts/CarreraCoches/ownable.sol\":1288:1311  owner() == _msgSender() */\n      0xffffffffffffffffffffffffffffffffffffffff\n      and\n        /* \"contracts/CarreraCoches/ownable.sol\":1288:1295  owner() */\n      tag_104\n        /* \"contracts/CarreraCoches/ownable.sol\":1288:1293  owner */\n      tag_59\n        /* \"contracts/CarreraCoches/ownable.sol\":1288:1295  owner() */\n      jump\t// in\n    tag_104:\n        /* \"contracts/CarreraCoches/ownable.sol\":1288:1311  owner() == _msgSender() */\n      0xffffffffffffffffffffffffffffffffffffffff\n      and\n      eq\n        /* \"contracts/CarreraCoches/ownable.sol\":1280:1348  require(owner() == _msgSender(), \"Ownable: caller is not the owner\") */\n      tag_105\n      jumpi\n      mload(0x40)\n      0x08c379a000000000000000000000000000000000000000000000000000000000\n      dup2\n      mstore\n      0x04\n      add\n      tag_106\n      swap1\n      tag_107\n      jump\t// in\n    tag_106:\n      mload(0x40)\n      dup1\n      swap2\n      sub\n      swap1\n      revert\n    tag_105:\n        /* \"contracts/CarreraCoches/principal.sol\":5612:5622  msg.sender */\n      caller\n        /* \"contracts/CarreraCoches/principal.sol\":5603:5632  payable (msg.sender).transfer */\n      0xffffffffffffffffffffffffffffffffffffffff\n      and\n        /* \"contracts/CarreraCoches/principal.sol\":5603:5655  payable (msg.sender).transfer(address(this).balance) */\n      0x08fc\n        /* \"contracts/CarreraCoches/principal.sol\":5633:5654  address(this).balance */\n      selfbalance\n        /* \"contracts/CarreraCoches/principal.sol\":5603:5655  payable (msg.sender).transfer(address(this).balance) */\n      swap1\n      dup2\n      iszero\n      mul\n      swap1\n      mload(0x40)\n      0x00\n      mload(0x40)\n      dup1\n      dup4\n      sub\n      dup2\n      dup6\n      dup9\n      dup9\n      call\n      swap4\n      pop\n      pop\n      pop\n      pop\n      iszero\n      dup1\n      iszero\n      tag_110\n      jumpi\n      returndatasize\n      0x00\n      dup1\n      returndatacopy\n      revert(0x00, returndatasize)\n    tag_110:\n      pop\n        /* \"contracts/CarreraCoches/principal.sol\":5548:5663  function retirarDinero() external onlyOwner {\r... */\n      jump\t// out\n        /* \"contracts/CarreraCoches/principal.sol\":909:961  mapping (address => uint) public numeroCochesPersona */\n    tag_30:\n      mstore(0x20, 0x08)\n      dup1\n      0x00\n      mstore\n      keccak256(0x00, 0x40)\n      0x00\n      swap2\n      pop\n      swap1\n      pop\n      sload\n      dup2\n      jump\t// out\n        /* \"contracts/CarreraCoches/principal.sol\":1526:1966  function anadirCoche(string memory _modelo, string memory _marca, string memory _nombrePiloto) public restriccion returns (uint) {\r... */\n    tag_37:\n        /* \"contracts/CarreraCoches/principal.sol\":1649:1653  uint */\n      0x00\n        /* \"contracts/CarreraCoches/principal.sol\":1093:1094  1 */\n      0x01\n        /* \"contracts/CarreraCoches/principal.sol\":1059:1078  numeroCochesPersona */\n      0x08\n        /* \"contracts/CarreraCoches/principal.sol\":1059:1090  numeroCochesPersona[msg.sender] */\n      0x00\n        /* \"contracts/CarreraCoches/principal.sol\":1079:1089  msg.sender */\n      caller\n        /* \"contracts/CarreraCoches/principal.sol\":1059:1090  numeroCochesPersona[msg.sender] */\n      0xffffffffffffffffffffffffffffffffffffffff\n      and\n      0xffffffffffffffffffffffffffffffffffffffff\n      and\n      dup2\n      mstore\n      0x20\n      add\n      swap1\n      dup2\n      mstore\n      0x20\n      add\n      0x00\n      keccak256\n      sload\n        /* \"contracts/CarreraCoches/principal.sol\":1059:1094  numeroCochesPersona[msg.sender] < 1 */\n      lt\n        /* \"contracts/CarreraCoches/principal.sol\":1051:1139  require(numeroCochesPersona[msg.sender] < 1, \"Solo se puede tener un coche por persona\") */\n      tag_112\n      jumpi\n      mload(0x40)\n      0x08c379a000000000000000000000000000000000000000000000000000000000\n      dup2\n      mstore\n      0x04\n      add\n      tag_113\n      swap1\n      tag_114\n      jump\t// in\n    tag_113:\n      mload(0x40)\n      dup1\n      swap2\n      sub\n      swap1\n      revert\n    tag_112:\n        /* \"contracts/CarreraCoches/principal.sol\":1666:1677  listaCoches */\n      0x06\n        /* \"contracts/CarreraCoches/principal.sol\":1683:1777  Coche(msg.sender, _modelo, _marca, _nombrePiloto, 0, 0, uint32(block.timestamp + cooldown), 1) */\n      mload(0x40)\n      dup1\n      0x0100\n      add\n      0x40\n      mstore\n      dup1\n        /* \"contracts/CarreraCoches/principal.sol\":1689:1699  msg.sender */\n      caller\n        /* \"contracts/CarreraCoches/principal.sol\":1683:1777  Coche(msg.sender, _modelo, _marca, _nombrePiloto, 0, 0, uint32(block.timestamp + cooldown), 1) */\n      0xffffffffffffffffffffffffffffffffffffffff\n      and\n      dup2\n      mstore\n      0x20\n      add\n        /* \"contracts/CarreraCoches/principal.sol\":1701:1708  _modelo */\n      dup7\n        /* \"contracts/CarreraCoches/principal.sol\":1683:1777  Coche(msg.sender, _modelo, _marca, _nombrePiloto, 0, 0, uint32(block.timestamp + cooldown), 1) */\n      dup2\n      mstore\n      0x20\n      add\n        /* \"contracts/CarreraCoches/principal.sol\":1710:1716  _marca */\n      dup6\n        /* \"contracts/CarreraCoches/principal.sol\":1683:1777  Coche(msg.sender, _modelo, _marca, _nombrePiloto, 0, 0, uint32(block.timestamp + cooldown), 1) */\n      dup2\n      mstore\n      0x20\n      add\n        /* \"contracts/CarreraCoches/principal.sol\":1718:1731  _nombrePiloto */\n      dup5\n        /* \"contracts/CarreraCoches/principal.sol\":1683:1777  Coche(msg.sender, _modelo, _marca, _nombrePiloto, 0, 0, uint32(block.timestamp + cooldown), 1) */\n      dup2\n      mstore\n      0x20\n      add\n        /* \"contracts/CarreraCoches/principal.sol\":1733:1734  0 */\n      0x00\n        /* \"contracts/CarreraCoches/principal.sol\":1683:1777  Coche(msg.sender, _modelo, _marca, _nombrePiloto, 0, 0, uint32(block.timestamp + cooldown), 1) */\n      dup2\n      mstore\n      0x20\n      add\n        /* \"contracts/CarreraCoches/principal.sol\":1736:1737  0 */\n      0x00\n        /* \"contracts/CarreraCoches/principal.sol\":1683:1777  Coche(msg.sender, _modelo, _marca, _nombrePiloto, 0, 0, uint32(block.timestamp + cooldown), 1) */\n      dup2\n      mstore\n      0x20\n      add\n        /* \"contracts/CarreraCoches/principal.sol\":1764:1772  cooldown */\n      sload(0x03)\n        /* \"contracts/CarreraCoches/principal.sol\":1746:1761  block.timestamp */\n      timestamp\n        /* \"contracts/CarreraCoches/principal.sol\":1746:1772  block.timestamp + cooldown */\n      tag_116\n      swap2\n      swap1\n      tag_117\n      jump\t// in\n    tag_116:\n        /* \"contracts/CarreraCoches/principal.sol\":1683:1777  Coche(msg.sender, _modelo, _marca, _nombrePiloto, 0, 0, uint32(block.timestamp + cooldown), 1) */\n      0xffffffff\n      and\n      dup2\n      mstore\n      0x20\n      add\n        /* \"contracts/CarreraCoches/principal.sol\":1775:1776  1 */\n      0x01\n        /* \"contracts/CarreraCoches/principal.sol\":1683:1777  Coche(msg.sender, _modelo, _marca, _nombrePiloto, 0, 0, uint32(block.timestamp + cooldown), 1) */\n      0xffffffff\n      and\n      dup2\n      mstore\n      pop\n        /* \"contracts/CarreraCoches/principal.sol\":1666:1778  listaCoches.push(Coche(msg.sender, _modelo, _marca, _nombrePiloto, 0, 0, uint32(block.timestamp + cooldown), 1)) */\n      swap1\n      dup1\n      0x01\n      dup2\n      sload\n      add\n      dup1\n      dup3\n      sstore\n      dup1\n      swap2\n      pop\n      pop\n      0x01\n      swap1\n      sub\n      swap1\n      0x00\n      mstore\n      keccak256(0x00, 0x20)\n      swap1\n      0x08\n      mul\n      add\n      0x00\n      swap1\n      swap2\n      swap1\n      swap2\n      swap1\n      swap2\n      pop\n      0x00\n      dup3\n      add\n      mload\n      dup2\n      0x00\n      add\n      exp(0x0100, 0x00)\n      dup2\n      sload\n      dup2\n      0xffffffffffffffffffffffffffffffffffffffff\n      mul\n      not\n      and\n      swap1\n      dup4\n      0xffffffffffffffffffffffffffffffffffffffff\n      and\n      mul\n      or\n      swap1\n      sstore\n      pop\n      0x20\n      dup3\n      add\n      mload\n      dup2\n      0x01\n      add\n      swap1\n      dup1\n      mload\n      swap1\n      0x20\n      add\n      swap1\n      tag_119\n      swap3\n      swap2\n      swap1\n      tag_94\n      jump\t// in\n    tag_119:\n      pop\n      0x40\n      dup3\n      add\n      mload\n      dup2\n      0x02\n      add\n      swap1\n      dup1\n      mload\n      swap1\n      0x20\n      add\n      swap1\n      tag_120\n      swap3\n      swap2\n      swap1\n      tag_94\n      jump\t// in\n    tag_120:\n      pop\n      0x60\n      dup3\n      add\n      mload\n      dup2\n      0x03\n      add\n      swap1\n      dup1\n      mload\n      swap1\n      0x20\n      add\n      swap1\n      tag_121\n      swap3\n      swap2\n      swap1\n      tag_94\n      jump\t// in\n    tag_121:\n      pop\n      0x80\n      dup3\n      add\n      mload\n      dup2\n      0x04\n      add\n      sstore\n      0xa0\n      dup3\n      add\n      mload\n      dup2\n      0x05\n      add\n      sstore\n      0xc0\n      dup3\n      add\n      mload\n      dup2\n      0x06\n      add\n      sstore\n      0xe0\n      dup3\n      add\n      mload\n      dup2\n      0x07\n      add\n      exp(0x0100, 0x00)\n      dup2\n      sload\n      dup2\n      0xffffffff\n      mul\n      not\n      and\n      swap1\n      dup4\n      0xffffffff\n      and\n      mul\n      or\n      swap1\n      sstore\n      pop\n      pop\n      pop\n        /* \"contracts/CarreraCoches/principal.sol\":1789:1796  uint id */\n      0x00\n        /* \"contracts/CarreraCoches/principal.sol\":1799:1810  listaCoches */\n      0x06\n        /* \"contracts/CarreraCoches/principal.sol\":1799:1817  listaCoches.length */\n      dup1\n      sload\n      swap1\n      pop\n        /* \"contracts/CarreraCoches/principal.sol\":1789:1817  uint id = listaCoches.length */\n      swap1\n      pop\n        /* \"contracts/CarreraCoches/principal.sol\":1853:1863  msg.sender */\n      caller\n        /* \"contracts/CarreraCoches/principal.sol\":1828:1846  cocheDePropietario */\n      0x07\n        /* \"contracts/CarreraCoches/principal.sol\":1828:1850  cocheDePropietario[id] */\n      0x00\n        /* \"contracts/CarreraCoches/principal.sol\":1847:1849  id */\n      dup4\n        /* \"contracts/CarreraCoches/principal.sol\":1828:1850  cocheDePropietario[id] */\n      dup2\n      mstore\n      0x20\n      add\n      swap1\n      dup2\n      mstore\n      0x20\n      add\n      0x00\n      keccak256\n      0x00\n        /* \"contracts/CarreraCoches/principal.sol\":1828:1863  cocheDePropietario[id] = msg.sender */\n      0x0100\n      exp\n      dup2\n      sload\n      dup2\n      0xffffffffffffffffffffffffffffffffffffffff\n      mul\n      not\n      and\n      swap1\n      dup4\n      0xffffffffffffffffffffffffffffffffffffffff\n      and\n      mul\n      or\n      swap1\n      sstore\n      pop\n        /* \"contracts/CarreraCoches/principal.sol\":1874:1893  numeroCochesPersona */\n      0x08\n        /* \"contracts/CarreraCoches/principal.sol\":1874:1905  numeroCochesPersona[msg.sender] */\n      0x00\n        /* \"contracts/CarreraCoches/principal.sol\":1894:1904  msg.sender */\n      caller\n        /* \"contracts/CarreraCoches/principal.sol\":1874:1905  numeroCochesPersona[msg.sender] */\n      0xffffffffffffffffffffffffffffffffffffffff\n      and\n      0xffffffffffffffffffffffffffffffffffffffff\n      and\n      dup2\n      mstore\n      0x20\n      add\n      swap1\n      dup2\n      mstore\n      0x20\n      add\n      0x00\n      keccak256\n      0x00\n        /* \"contracts/CarreraCoches/principal.sol\":1874:1907  numeroCochesPersona[msg.sender]++ */\n      dup2\n      sload\n      dup1\n      swap3\n      swap2\n      swap1\n      tag_122\n      swap1\n      tag_100\n      jump\t// in\n    tag_122:\n      swap2\n      swap1\n      pop\n      sstore\n      pop\n        /* \"contracts/CarreraCoches/principal.sol\":1918:1926  contador */\n      0x02\n      0x00\n        /* \"contracts/CarreraCoches/principal.sol\":1918:1928  contador++ */\n      dup2\n      sload\n      dup1\n      swap3\n      swap2\n      swap1\n      tag_123\n      swap1\n      tag_100\n      jump\t// in\n    tag_123:\n      swap2\n      swap1\n      pop\n      sstore\n      pop\n        /* \"contracts/CarreraCoches/principal.sol\":1957:1958  1 */\n      0x01\n        /* \"contracts/CarreraCoches/principal.sol\":1946:1954  contador */\n      sload(0x02)\n        /* \"contracts/CarreraCoches/principal.sol\":1946:1958  contador - 1 */\n      tag_124\n      swap2\n      swap1\n      tag_125\n      jump\t// in\n    tag_124:\n        /* \"contracts/CarreraCoches/principal.sol\":1939:1958  return contador - 1 */\n      swap2\n      pop\n      pop\n        /* \"contracts/CarreraCoches/principal.sol\":1526:1966  function anadirCoche(string memory _modelo, string memory _marca, string memory _nombrePiloto) public restriccion returns (uint) {\r... */\n      swap4\n      swap3\n      pop\n      pop\n      pop\n      jump\t// out\n        /* \"contracts/CarreraCoches/principal.sol\":2294:2653  function subirDeNivel(address _propietario) external payable returns(string memory) {\r... */\n    tag_41:\n        /* \"contracts/CarreraCoches/principal.sol\":2363:2376  string memory */\n      0x60\n        /* \"contracts/CarreraCoches/principal.sol\":2408:2418  subirNivel */\n      sload(0x04)\n        /* \"contracts/CarreraCoches/principal.sol\":2397:2406  msg.value */\n      callvalue\n        /* \"contracts/CarreraCoches/principal.sol\":2397:2418  msg.value==subirNivel */\n      eq\n        /* \"contracts/CarreraCoches/principal.sol\":2389:2419  require(msg.value==subirNivel) */\n      tag_127\n      jumpi\n      0x00\n      dup1\n      revert\n    tag_127:\n        /* \"contracts/CarreraCoches/principal.sol\":2434:2440  uint i */\n      0x00\n        /* \"contracts/CarreraCoches/principal.sol\":2430:2646  for(uint i = 0; i < listaCoches.length; i++){\r... */\n    tag_128:\n        /* \"contracts/CarreraCoches/principal.sol\":2450:2461  listaCoches */\n      0x06\n        /* \"contracts/CarreraCoches/principal.sol\":2450:2468  listaCoches.length */\n      dup1\n      sload\n      swap1\n      pop\n        /* \"contracts/CarreraCoches/principal.sol\":2446:2447  i */\n      dup2\n        /* \"contracts/CarreraCoches/principal.sol\":2446:2468  i < listaCoches.length */\n      lt\n        /* \"contracts/CarreraCoches/principal.sol\":2430:2646  for(uint i = 0; i < listaCoches.length; i++){\r... */\n      iszero\n      tag_129\n      jumpi\n        /* \"contracts/CarreraCoches/principal.sol\":2519:2531  _propietario */\n      dup3\n        /* \"contracts/CarreraCoches/principal.sol\":2492:2531  listaCoches[i].idPiloto == _propietario */\n      0xffffffffffffffffffffffffffffffffffffffff\n      and\n        /* \"contracts/CarreraCoches/principal.sol\":2492:2503  listaCoches */\n      0x06\n        /* \"contracts/CarreraCoches/principal.sol\":2504:2505  i */\n      dup3\n        /* \"contracts/CarreraCoches/principal.sol\":2492:2506  listaCoches[i] */\n      dup2\n      sload\n      dup2\n      lt\n      tag_131\n      jumpi\n      tag_132\n      tag_87\n      jump\t// in\n    tag_132:\n    tag_131:\n      swap1\n      0x00\n      mstore\n      keccak256(0x00, 0x20)\n      swap1\n      0x08\n      mul\n      add\n        /* \"contracts/CarreraCoches/principal.sol\":2492:2515  listaCoches[i].idPiloto */\n      0x00\n      add\n      0x00\n      swap1\n      sload\n      swap1\n      0x0100\n      exp\n      swap1\n      div\n      0xffffffffffffffffffffffffffffffffffffffff\n      and\n        /* \"contracts/CarreraCoches/principal.sol\":2492:2531  listaCoches[i].idPiloto == _propietario */\n      0xffffffffffffffffffffffffffffffffffffffff\n      and\n      eq\n        /* \"contracts/CarreraCoches/principal.sol\":2489:2635  if(listaCoches[i].idPiloto == _propietario){\r... */\n      iszero\n      tag_134\n      jumpi\n        /* \"contracts/CarreraCoches/principal.sol\":2551:2562  listaCoches */\n      0x06\n        /* \"contracts/CarreraCoches/principal.sol\":2563:2564  i */\n      dup2\n        /* \"contracts/CarreraCoches/principal.sol\":2551:2565  listaCoches[i] */\n      dup2\n      sload\n      dup2\n      lt\n      tag_135\n      jumpi\n      tag_136\n      tag_87\n      jump\t// in\n    tag_136:\n    tag_135:\n      swap1\n      0x00\n      mstore\n      keccak256(0x00, 0x20)\n      swap1\n      0x08\n      mul\n      add\n        /* \"contracts/CarreraCoches/principal.sol\":2551:2571  listaCoches[i].nivel */\n      0x07\n      add\n      0x00\n        /* \"contracts/CarreraCoches/principal.sol\":2551:2573  listaCoches[i].nivel++ */\n      dup2\n      dup2\n      swap1\n      sload\n      swap1\n      0x0100\n      exp\n      swap1\n      div\n      0xffffffff\n      and\n      dup1\n      swap3\n      swap2\n      swap1\n      tag_138\n      swap1\n      tag_139\n      jump\t// in\n    tag_138:\n      swap2\n      swap1\n      0x0100\n      exp\n      dup2\n      sload\n      dup2\n      0xffffffff\n      mul\n      not\n      and\n      swap1\n      dup4\n      0xffffffff\n      and\n      mul\n      or\n      swap1\n      sstore\n      pop\n      pop\n        /* \"contracts/CarreraCoches/principal.sol\":2592:2619  return \"Ha subido de nivel\" */\n      mload(0x40)\n      dup1\n      0x40\n      add\n      0x40\n      mstore\n      dup1\n      0x12\n      dup2\n      mstore\n      0x20\n      add\n      0x48612073756269646f206465206e6976656c0000000000000000000000000000\n      dup2\n      mstore\n      pop\n      swap2\n      pop\n      pop\n      jump(tag_126)\n        /* \"contracts/CarreraCoches/principal.sol\":2489:2635  if(listaCoches[i].idPiloto == _propietario){\r... */\n    tag_134:\n        /* \"contracts/CarreraCoches/principal.sol\":2470:2473  i++ */\n      dup1\n      dup1\n      tag_140\n      swap1\n      tag_100\n      jump\t// in\n    tag_140:\n      swap2\n      pop\n      pop\n        /* \"contracts/CarreraCoches/principal.sol\":2430:2646  for(uint i = 0; i < listaCoches.length; i++){\r... */\n      jump(tag_128)\n    tag_129:\n      pop\n        /* \"contracts/CarreraCoches/principal.sol\":2294:2653  function subirDeNivel(address _propietario) external payable returns(string memory) {\r... */\n    tag_126:\n      swap2\n      swap1\n      pop\n      jump\t// out\n        /* \"contracts/CarreraCoches/principal.sol\":3814:5356  function Apostar(uint dineroApostar) public payable returns(string memory) {\r... */\n    tag_46:\n        /* \"contracts/CarreraCoches/principal.sol\":3874:3887  string memory */\n      0x60\n        /* \"contracts/CarreraCoches/principal.sol\":3935:3936  1 */\n      0x01\n        /* \"contracts/CarreraCoches/principal.sol\":3913:3924  listaCoches */\n      0x06\n        /* \"contracts/CarreraCoches/principal.sol\":3913:3931  listaCoches.length */\n      dup1\n      sload\n      swap1\n      pop\n        /* \"contracts/CarreraCoches/principal.sol\":3913:3936  listaCoches.length <= 1 */\n      gt\n        /* \"contracts/CarreraCoches/principal.sol\":3910:5350  if(listaCoches.length <= 1){\r... */\n      tag_142\n      jumpi\n        /* \"contracts/CarreraCoches/principal.sol\":3956:4035  confirmacionDepositoLleno(\"No hay coches suficientes para iniciar una carrera\") */\n      0x6158fc8f21c8cc73ddf920956cc75d0e8a48b4fc85817a0ba89eb3b6d2a75441\n      mload(0x40)\n      tag_143\n      swap1\n      tag_144\n      jump\t// in\n    tag_143:\n      mload(0x40)\n      dup1\n      swap2\n      sub\n      swap1\n      log1\n        /* \"contracts/CarreraCoches/principal.sol\":3910:5350  if(listaCoches.length <= 1){\r... */\n      jump(tag_145)\n    tag_142:\n        /* \"contracts/CarreraCoches/principal.sol\":4086:4099  dineroApostar */\n      dup2\n        /* \"contracts/CarreraCoches/principal.sol\":4073:4082  msg.value */\n      callvalue\n        /* \"contracts/CarreraCoches/principal.sol\":4073:4099  msg.value == dineroApostar */\n      eq\n        /* \"contracts/CarreraCoches/principal.sol\":4065:4100  require(msg.value == dineroApostar) */\n      tag_146\n      jumpi\n      0x00\n      dup1\n      revert\n    tag_146:\n        /* \"contracts/CarreraCoches/principal.sol\":4115:4124  randNonce */\n      0x01\n      0x00\n        /* \"contracts/CarreraCoches/principal.sol\":4115:4126  randNonce++ */\n      dup2\n      sload\n      dup1\n      swap3\n      swap2\n      swap1\n      tag_147\n      swap1\n      tag_100\n      jump\t// in\n    tag_147:\n      swap2\n      swap1\n      pop\n      sstore\n      pop\n        /* \"contracts/CarreraCoches/principal.sol\":4181:4194  uint256 rival */\n      0x00\n        /* \"contracts/CarreraCoches/principal.sol\":4284:4295  listaCoches */\n      0x06\n        /* \"contracts/CarreraCoches/principal.sol\":4284:4302  listaCoches.length */\n      dup1\n      sload\n      swap1\n      pop\n        /* \"contracts/CarreraCoches/principal.sol\":4232:4247  block.timestamp */\n      timestamp\n        /* \"contracts/CarreraCoches/principal.sol\":4249:4260  listaCoches */\n      0x06\n        /* \"contracts/CarreraCoches/principal.sol\":4249:4267  listaCoches.length */\n      dup1\n      sload\n      swap1\n      pop\n        /* \"contracts/CarreraCoches/principal.sol\":4269:4278  randNonce */\n      sload(0x01)\n        /* \"contracts/CarreraCoches/principal.sol\":4215:4279  abi.encodePacked(block.timestamp, listaCoches.length, randNonce) */\n      add(0x20, mload(0x40))\n      tag_148\n      swap4\n      swap3\n      swap2\n      swap1\n      tag_149\n      jump\t// in\n    tag_148:\n      mload(0x40)\n      0x20\n      dup2\n      dup4\n      sub\n      sub\n      dup2\n      mstore\n      swap1\n      0x40\n      mstore\n        /* \"contracts/CarreraCoches/principal.sol\":4205:4280  keccak256(abi.encodePacked(block.timestamp, listaCoches.length, randNonce)) */\n      dup1\n      mload\n      swap1\n      0x20\n      add\n      keccak256\n        /* \"contracts/CarreraCoches/principal.sol\":4197:4281  uint256(keccak256(abi.encodePacked(block.timestamp, listaCoches.length, randNonce))) */\n      0x00\n      shr\n        /* \"contracts/CarreraCoches/principal.sol\":4197:4302  uint256(keccak256(abi.encodePacked(block.timestamp, listaCoches.length, randNonce))) % listaCoches.length */\n      tag_150\n      swap2\n      swap1\n      tag_151\n      jump\t// in\n    tag_150:\n        /* \"contracts/CarreraCoches/principal.sol\":4181:4302  uint256 rival = uint256(keccak256(abi.encodePacked(block.timestamp, listaCoches.length, randNonce))) % listaCoches.length */\n      swap1\n      pop\n        /* \"contracts/CarreraCoches/principal.sol\":4353:4362  randNonce */\n      0x01\n      0x00\n        /* \"contracts/CarreraCoches/principal.sol\":4353:4364  randNonce++ */\n      dup2\n      sload\n      dup1\n      swap3\n      swap2\n      swap1\n      tag_152\n      swap1\n      tag_100\n      jump\t// in\n    tag_152:\n      swap2\n      swap1\n      pop\n      sstore\n      pop\n        /* \"contracts/CarreraCoches/principal.sol\":4379:4390  uint numero */\n      0x00\n        /* \"contracts/CarreraCoches/principal.sol\":4393:4394  2 */\n      0x02\n        /* \"contracts/CarreraCoches/principal.sol\":4379:4394  uint numero = 2 */\n      swap1\n      pop\n        /* \"contracts/CarreraCoches/principal.sol\":4409:4424  uint256 ganador */\n      0x00\n        /* \"contracts/CarreraCoches/principal.sol\":4502:4508  numero */\n      dup2\n        /* \"contracts/CarreraCoches/principal.sol\":4462:4477  block.timestamp */\n      timestamp\n        /* \"contracts/CarreraCoches/principal.sol\":4479:4485  numero */\n      dup4\n        /* \"contracts/CarreraCoches/principal.sol\":4487:4496  randNonce */\n      sload(0x01)\n        /* \"contracts/CarreraCoches/principal.sol\":4445:4497  abi.encodePacked(block.timestamp, numero, randNonce) */\n      add(0x20, mload(0x40))\n      tag_153\n      swap4\n      swap3\n      swap2\n      swap1\n      tag_149\n      jump\t// in\n    tag_153:\n      mload(0x40)\n      0x20\n      dup2\n      dup4\n      sub\n      sub\n      dup2\n      mstore\n      swap1\n      0x40\n      mstore\n        /* \"contracts/CarreraCoches/principal.sol\":4435:4498  keccak256(abi.encodePacked(block.timestamp, numero, randNonce)) */\n      dup1\n      mload\n      swap1\n      0x20\n      add\n      keccak256\n        /* \"contracts/CarreraCoches/principal.sol\":4427:4499  uint256(keccak256(abi.encodePacked(block.timestamp, numero, randNonce))) */\n      0x00\n      shr\n        /* \"contracts/CarreraCoches/principal.sol\":4427:4508  uint256(keccak256(abi.encodePacked(block.timestamp, numero, randNonce))) % numero */\n      tag_154\n      swap2\n      swap1\n      tag_151\n      jump\t// in\n    tag_154:\n        /* \"contracts/CarreraCoches/principal.sol\":4409:4508  uint256 ganador = uint256(keccak256(abi.encodePacked(block.timestamp, numero, randNonce))) % numero */\n      swap1\n      pop\n        /* \"contracts/CarreraCoches/principal.sol\":4529:4535  uint i */\n      0x00\n        /* \"contracts/CarreraCoches/principal.sol\":4525:5340  for(uint i = 0; i < listaCoches.length; i++){\r... */\n    tag_155:\n        /* \"contracts/CarreraCoches/principal.sol\":4545:4556  listaCoches */\n      0x06\n        /* \"contracts/CarreraCoches/principal.sol\":4545:4563  listaCoches.length */\n      dup1\n      sload\n      swap1\n      pop\n        /* \"contracts/CarreraCoches/principal.sol\":4541:4542  i */\n      dup2\n        /* \"contracts/CarreraCoches/principal.sol\":4541:4563  i < listaCoches.length */\n      lt\n        /* \"contracts/CarreraCoches/principal.sol\":4525:5340  for(uint i = 0; i < listaCoches.length; i++){\r... */\n      iszero\n      tag_156\n      jumpi\n        /* \"contracts/CarreraCoches/principal.sol\":4684:4695  listaCoches */\n      0x06\n        /* \"contracts/CarreraCoches/principal.sol\":4696:4697  i */\n      dup2\n        /* \"contracts/CarreraCoches/principal.sol\":4684:4698  listaCoches[i] */\n      dup2\n      sload\n      dup2\n      lt\n      tag_158\n      jumpi\n      tag_159\n      tag_87\n      jump\t// in\n    tag_159:\n    tag_158:\n      swap1\n      0x00\n      mstore\n      keccak256(0x00, 0x20)\n      swap1\n      0x08\n      mul\n      add\n        /* \"contracts/CarreraCoches/principal.sol\":4684:4707  listaCoches[i].idPiloto */\n      0x00\n      add\n      0x00\n      swap1\n      sload\n      swap1\n      0x0100\n      exp\n      swap1\n      div\n      0xffffffffffffffffffffffffffffffffffffffff\n      and\n        /* \"contracts/CarreraCoches/principal.sol\":4670:4707  msg.sender == listaCoches[i].idPiloto */\n      0xffffffffffffffffffffffffffffffffffffffff\n      and\n        /* \"contracts/CarreraCoches/principal.sol\":4670:4680  msg.sender */\n      caller\n        /* \"contracts/CarreraCoches/principal.sol\":4670:4707  msg.sender == listaCoches[i].idPiloto */\n      0xffffffffffffffffffffffffffffffffffffffff\n      and\n      eq\n        /* \"contracts/CarreraCoches/principal.sol\":4666:5325  if (msg.sender == listaCoches[i].idPiloto) {\r... */\n      iszero\n      tag_161\n      jumpi\n        /* \"contracts/CarreraCoches/principal.sol\":4746:4747  0 */\n      0x00\n        /* \"contracts/CarreraCoches/principal.sol\":4735:4742  ganador */\n      dup3\n        /* \"contracts/CarreraCoches/principal.sol\":4735:4747  ganador == 0 */\n      eq\n        /* \"contracts/CarreraCoches/principal.sol\":4732:5197  if(ganador == 0){\r... */\n      iszero\n      tag_162\n      jumpi\n        /* \"contracts/CarreraCoches/principal.sol\":4775:4784  balance() */\n      tag_163\n        /* \"contracts/CarreraCoches/principal.sol\":4775:4782  balance */\n      tag_164\n        /* \"contracts/CarreraCoches/principal.sol\":4775:4784  balance() */\n      jump\t// in\n    tag_163:\n        /* \"contracts/CarreraCoches/principal.sol\":4811:4822  listaCoches */\n      0x06\n        /* \"contracts/CarreraCoches/principal.sol\":4823:4824  i */\n      dup2\n        /* \"contracts/CarreraCoches/principal.sol\":4811:4825  listaCoches[i] */\n      dup2\n      sload\n      dup2\n      lt\n      tag_165\n      jumpi\n      tag_166\n      tag_87\n      jump\t// in\n    tag_166:\n    tag_165:\n      swap1\n      0x00\n      mstore\n      keccak256(0x00, 0x20)\n      swap1\n      0x08\n      mul\n      add\n        /* \"contracts/CarreraCoches/principal.sol\":4811:4841  listaCoches[i].carrerasGanadas */\n      0x04\n      add\n      0x00\n        /* \"contracts/CarreraCoches/principal.sol\":4811:4843  listaCoches[i].carrerasGanadas++ */\n      dup2\n      sload\n      dup1\n      swap3\n      swap2\n      swap1\n      tag_168\n      swap1\n      tag_100\n      jump\t// in\n    tag_168:\n      swap2\n      swap1\n      pop\n      sstore\n      pop\n        /* \"contracts/CarreraCoches/principal.sol\":4870:4881  listaCoches */\n      0x06\n        /* \"contracts/CarreraCoches/principal.sol\":4882:4883  i */\n      dup2\n        /* \"contracts/CarreraCoches/principal.sol\":4870:4884  listaCoches[i] */\n      dup2\n      sload\n      dup2\n      lt\n      tag_169\n      jumpi\n      tag_170\n      tag_87\n      jump\t// in\n    tag_170:\n    tag_169:\n      swap1\n      0x00\n      mstore\n      keccak256(0x00, 0x20)\n      swap1\n      0x08\n      mul\n      add\n        /* \"contracts/CarreraCoches/principal.sol\":4870:4890  listaCoches[i].nivel */\n      0x07\n      add\n      0x00\n        /* \"contracts/CarreraCoches/principal.sol\":4870:4892  listaCoches[i].nivel++ */\n      dup2\n      dup2\n      swap1\n      sload\n      swap1\n      0x0100\n      exp\n      swap1\n      div\n      0xffffffff\n      and\n      dup1\n      swap3\n      swap2\n      swap1\n      tag_172\n      swap1\n      tag_139\n      jump\t// in\n    tag_172:\n      swap2\n      swap1\n      0x0100\n      exp\n      dup2\n      sload\n      dup2\n      0xffffffff\n      mul\n      not\n      and\n      swap1\n      dup4\n      0xffffffff\n      and\n      mul\n      or\n      swap1\n      sstore\n      pop\n      pop\n        /* \"contracts/CarreraCoches/principal.sol\":4919:4938  return \"Has ganado\" */\n      mload(0x40)\n      dup1\n      0x40\n      add\n      0x40\n      mstore\n      dup1\n      0x0a\n      dup2\n      mstore\n      0x20\n      add\n      0x4861732067616e61646f00000000000000000000000000000000000000000000\n      dup2\n      mstore\n      pop\n      swap5\n      pop\n      pop\n      pop\n      pop\n      pop\n      jump(tag_141)\n        /* \"contracts/CarreraCoches/principal.sol\":4732:5197  if(ganador == 0){\r... */\n    tag_162:\n        /* \"contracts/CarreraCoches/principal.sol\":5078:5126  mostrarResultado(\"El coche ganador es: \", rival) */\n      0xa28482eec3136a2461c6c30c08f71ba279c6c51a2d9c7bea4e50d6d2632f3896\n        /* \"contracts/CarreraCoches/principal.sol\":5120:5125  rival */\n      dup5\n        /* \"contracts/CarreraCoches/principal.sol\":5078:5126  mostrarResultado(\"El coche ganador es: \", rival) */\n      mload(0x40)\n      tag_174\n      swap2\n      swap1\n      tag_175\n      jump\t// in\n    tag_174:\n      mload(0x40)\n      dup1\n      swap2\n      sub\n      swap1\n      log1\n        /* \"contracts/CarreraCoches/principal.sol\":5153:5173  return \"Has perdido\" */\n      mload(0x40)\n      dup1\n      0x40\n      add\n      0x40\n      mstore\n      dup1\n      0x0b\n      dup2\n      mstore\n      0x20\n      add\n      0x486173207065726469646f000000000000000000000000000000000000000000\n      dup2\n      mstore\n      pop\n      swap5\n      pop\n      pop\n      pop\n      pop\n      pop\n      jump(tag_141)\n        /* \"contracts/CarreraCoches/principal.sol\":4666:5325  if (msg.sender == listaCoches[i].idPiloto) {\r... */\n    tag_161:\n        /* \"contracts/CarreraCoches/principal.sol\":4565:4568  i++ */\n      dup1\n      dup1\n      tag_185\n      swap1\n      tag_100\n      jump\t// in\n    tag_185:\n      swap2\n      pop\n      pop\n        /* \"contracts/CarreraCoches/principal.sol\":4525:5340  for(uint i = 0; i < listaCoches.length; i++){\r... */\n      jump(tag_155)\n    tag_156:\n      pop\n        /* \"contracts/CarreraCoches/principal.sol\":4050:5350  {\r... */\n      pop\n      pop\n      pop\n        /* \"contracts/CarreraCoches/principal.sol\":3910:5350  if(listaCoches.length <= 1){\r... */\n    tag_145:\n        /* \"contracts/CarreraCoches/principal.sol\":3814:5356  function Apostar(uint dineroApostar) public payable returns(string memory) {\r... */\n    tag_141:\n      swap2\n      swap1\n      pop\n      jump\t// out\n        /* \"contracts/CarreraCoches/ownable.sol\":1719:1822  function renounceOwnership() public virtual onlyOwner {\r... */\n    tag_50:\n        /* \"contracts/CarreraCoches/ownable.sol\":1299:1311  _msgSender() */\n      tag_187\n        /* \"contracts/CarreraCoches/ownable.sol\":1299:1309  _msgSender */\n      tag_103\n        /* \"contracts/CarreraCoches/ownable.sol\":1299:1311  _msgSender() */\n      jump\t// in\n    tag_187:\n        /* \"contracts/CarreraCoches/ownable.sol\":1288:1311  owner() == _msgSender() */\n      0xffffffffffffffffffffffffffffffffffffffff\n      and\n        /* \"contracts/CarreraCoches/ownable.sol\":1288:1295  owner() */\n      tag_188\n        /* \"contracts/CarreraCoches/ownable.sol\":1288:1293  owner */\n      tag_59\n        /* \"contracts/CarreraCoches/ownable.sol\":1288:1295  owner() */\n      jump\t// in\n    tag_188:\n        /* \"contracts/CarreraCoches/ownable.sol\":1288:1311  owner() == _msgSender() */\n      0xffffffffffffffffffffffffffffffffffffffff\n      and\n      eq\n        /* \"contracts/CarreraCoches/ownable.sol\":1280:1348  require(owner() == _msgSender(), \"Ownable: caller is not the owner\") */\n      tag_189\n      jumpi\n      mload(0x40)\n      0x08c379a000000000000000000000000000000000000000000000000000000000\n      dup2\n      mstore\n      0x04\n      add\n      tag_190\n      swap1\n      tag_107\n      jump\t// in\n    tag_190:\n      mload(0x40)\n      dup1\n      swap2\n      sub\n      swap1\n      revert\n    tag_189:\n        /* \"contracts/CarreraCoches/ownable.sol\":1784:1814  _transferOwnership(address(0)) */\n      tag_192\n        /* \"contracts/CarreraCoches/ownable.sol\":1811:1812  0 */\n      0x00\n        /* \"contracts/CarreraCoches/ownable.sol\":1784:1802  _transferOwnership */\n      tag_193\n        /* \"contracts/CarreraCoches/ownable.sol\":1784:1814  _transferOwnership(address(0)) */\n      jump\t// in\n    tag_192:\n        /* \"contracts/CarreraCoches/ownable.sol\":1719:1822  function renounceOwnership() public virtual onlyOwner {\r... */\n      jump\t// out\n        /* \"contracts/CarreraCoches/principal.sol\":851:902  mapping (uint => address) public cocheDePropietario */\n    tag_54:\n      mstore(0x20, 0x07)\n      dup1\n      0x00\n      mstore\n      keccak256(0x00, 0x40)\n      0x00\n      swap2\n      pop\n      sload\n      swap1\n      0x0100\n      exp\n      swap1\n      div\n      0xffffffffffffffffffffffffffffffffffffffff\n      and\n      dup2\n      jump\t// out\n        /* \"contracts/CarreraCoches/ownable.sol\":1068:1155  function owner() public view virtual returns (address) {\r... */\n    tag_59:\n        /* \"contracts/CarreraCoches/ownable.sol\":1114:1121  address */\n      0x00\n        /* \"contracts/CarreraCoches/ownable.sol\":1141:1147  _owner */\n      dup1\n      0x00\n      swap1\n      sload\n      swap1\n      0x0100\n      exp\n      swap1\n      div\n      0xffffffffffffffffffffffffffffffffffffffff\n      and\n        /* \"contracts/CarreraCoches/ownable.sol\":1134:1147  return _owner */\n      swap1\n      pop\n        /* \"contracts/CarreraCoches/ownable.sol\":1068:1155  function owner() public view virtual returns (address) {\r... */\n      swap1\n      jump\t// out\n        /* \"contracts/CarreraCoches/ownable.sol\":701:722  address public _owner */\n    tag_63:\n      0x00\n      dup1\n      sload\n      swap1\n      0x0100\n      exp\n      swap1\n      div\n      0xffffffffffffffffffffffffffffffffffffffff\n      and\n      dup2\n      jump\t// out\n        /* \"contracts/CarreraCoches/principal.sol\":604:630  Coche[] public listaCoches */\n    tag_68:\n      0x06\n      dup2\n      dup2\n      sload\n      dup2\n      lt\n      tag_195\n      jumpi\n      0x00\n      dup1\n      revert\n    tag_195:\n      swap1\n      0x00\n      mstore\n      keccak256(0x00, 0x20)\n      swap1\n      0x08\n      mul\n      add\n      0x00\n      swap2\n      pop\n      swap1\n      pop\n      dup1\n      0x00\n      add\n      0x00\n      swap1\n      sload\n      swap1\n      0x0100\n      exp\n      swap1\n      div\n      0xffffffffffffffffffffffffffffffffffffffff\n      and\n      swap1\n      dup1\n      0x01\n      add\n      dup1\n      sload\n      tag_197\n      swap1\n      tag_198\n      jump\t// in\n    tag_197:\n      dup1\n      0x1f\n      add\n      0x20\n      dup1\n      swap2\n      div\n      mul\n      0x20\n      add\n      mload(0x40)\n      swap1\n      dup2\n      add\n      0x40\n      mstore\n      dup1\n      swap3\n      swap2\n      swap1\n      dup2\n      dup2\n      mstore\n      0x20\n      add\n      dup3\n      dup1\n      sload\n      tag_199\n      swap1\n      tag_198\n      jump\t// in\n    tag_199:\n      dup1\n      iszero\n      tag_200\n      jumpi\n      dup1\n      0x1f\n      lt\n      tag_201\n      jumpi\n      0x0100\n      dup1\n      dup4\n      sload\n      div\n      mul\n      dup4\n      mstore\n      swap2\n      0x20\n      add\n      swap2\n      jump(tag_200)\n    tag_201:\n      dup3\n      add\n      swap2\n      swap1\n      0x00\n      mstore\n      keccak256(0x00, 0x20)\n      swap1\n    tag_202:\n      dup2\n      sload\n      dup2\n      mstore\n      swap1\n      0x01\n      add\n      swap1\n      0x20\n      add\n      dup1\n      dup4\n      gt\n      tag_202\n      jumpi\n      dup3\n      swap1\n      sub\n      0x1f\n      and\n      dup3\n      add\n      swap2\n    tag_200:\n      pop\n      pop\n      pop\n      pop\n      pop\n      swap1\n      dup1\n      0x02\n      add\n      dup1\n      sload\n      tag_203\n      swap1\n      tag_198\n      jump\t// in\n    tag_203:\n      dup1\n      0x1f\n      add\n      0x20\n      dup1\n      swap2\n      div\n      mul\n      0x20\n      add\n      mload(0x40)\n      swap1\n      dup2\n      add\n      0x40\n      mstore\n      dup1\n      swap3\n      swap2\n      swap1\n      dup2\n      dup2\n      mstore\n      0x20\n      add\n      dup3\n      dup1\n      sload\n      tag_204\n      swap1\n      tag_198\n      jump\t// in\n    tag_204:\n      dup1\n      iszero\n      tag_205\n      jumpi\n      dup1\n      0x1f\n      lt\n      tag_206\n      jumpi\n      0x0100\n      dup1\n      dup4\n      sload\n      div\n      mul\n      dup4\n      mstore\n      swap2\n      0x20\n      add\n      swap2\n      jump(tag_205)\n    tag_206:\n      dup3\n      add\n      swap2\n      swap1\n      0x00\n      mstore\n      keccak256(0x00, 0x20)\n      swap1\n    tag_207:\n      dup2\n      sload\n      dup2\n      mstore\n      swap1\n      0x01\n      add\n      swap1\n      0x20\n      add\n      dup1\n      dup4\n      gt\n      tag_207\n      jumpi\n      dup3\n      swap1\n      sub\n      0x1f\n      and\n      dup3\n      add\n      swap2\n    tag_205:\n      pop\n      pop\n      pop\n      pop\n      pop\n      swap1\n      dup1\n      0x03\n      add\n      dup1\n      sload\n      tag_208\n      swap1\n      tag_198\n      jump\t// in\n    tag_208:\n      dup1\n      0x1f\n      add\n      0x20\n      dup1\n      swap2\n      div\n      mul\n      0x20\n      add\n      mload(0x40)\n      swap1\n      dup2\n      add\n      0x40\n      mstore\n      dup1\n      swap3\n      swap2\n      swap1\n      dup2\n      dup2\n      mstore\n      0x20\n      add\n      dup3\n      dup1\n      sload\n      tag_209\n      swap1\n      tag_198\n      jump\t// in\n    tag_209:\n      dup1\n      iszero\n      tag_210\n      jumpi\n      dup1\n      0x1f\n      lt\n      tag_211\n      jumpi\n      0x0100\n      dup1\n      dup4\n      sload\n      div\n      mul\n      dup4\n      mstore\n      swap2\n      0x20\n      add\n      swap2\n      jump(tag_210)\n    tag_211:\n      dup3\n      add\n      swap2\n      swap1\n      0x00\n      mstore\n      keccak256(0x00, 0x20)\n      swap1\n    tag_212:\n      dup2\n      sload\n      dup2\n      mstore\n      swap1\n      0x01\n      add\n      swap1\n      0x20\n      add\n      dup1\n      dup4\n      gt\n      tag_212\n      jumpi\n      dup3\n      swap1\n      sub\n      0x1f\n      and\n      dup3\n      add\n      swap2\n    tag_210:\n      pop\n      pop\n      pop\n      pop\n      pop\n      swap1\n      dup1\n      0x04\n      add\n      sload\n      swap1\n      dup1\n      0x05\n      add\n      sload\n      swap1\n      dup1\n      0x06\n      add\n      sload\n      swap1\n      dup1\n      0x07\n      add\n      0x00\n      swap1\n      sload\n      swap1\n      0x0100\n      exp\n      swap1\n      div\n      0xffffffff\n      and\n      swap1\n      pop\n      dup9\n      jump\t// out\n        /* \"contracts/CarreraCoches/principal.sol\":2661:3005  function verCochePropietario(address _propietario) external {\r... */\n    tag_74:\n        /* \"contracts/CarreraCoches/principal.sol\":2736:2742  uint i */\n      0x00\n        /* \"contracts/CarreraCoches/principal.sol\":2732:2998  for(uint i = 0; i < listaCoches.length; i++){\r... */\n    tag_214:\n        /* \"contracts/CarreraCoches/principal.sol\":2752:2763  listaCoches */\n      0x06\n        /* \"contracts/CarreraCoches/principal.sol\":2752:2770  listaCoches.length */\n      dup1\n      sload\n      swap1\n      pop\n        /* \"contracts/CarreraCoches/principal.sol\":2748:2749  i */\n      dup2\n        /* \"contracts/CarreraCoches/principal.sol\":2748:2770  i < listaCoches.length */\n      lt\n        /* \"contracts/CarreraCoches/principal.sol\":2732:2998  for(uint i = 0; i < listaCoches.length; i++){\r... */\n      iszero\n      tag_215\n      jumpi\n        /* \"contracts/CarreraCoches/principal.sol\":2819:2831  _propietario */\n      dup2\n        /* \"contracts/CarreraCoches/principal.sol\":2794:2831  listaCoches[i].idPiloto==_propietario */\n      0xffffffffffffffffffffffffffffffffffffffff\n      and\n        /* \"contracts/CarreraCoches/principal.sol\":2794:2805  listaCoches */\n      0x06\n        /* \"contracts/CarreraCoches/principal.sol\":2806:2807  i */\n      dup3\n        /* \"contracts/CarreraCoches/principal.sol\":2794:2808  listaCoches[i] */\n      dup2\n      sload\n      dup2\n      lt\n      tag_217\n      jumpi\n      tag_218\n      tag_87\n      jump\t// in\n    tag_218:\n    tag_217:\n      swap1\n      0x00\n      mstore\n      keccak256(0x00, 0x20)\n      swap1\n      0x08\n      mul\n      add\n        /* \"contracts/CarreraCoches/principal.sol\":2794:2817  listaCoches[i].idPiloto */\n      0x00\n      add\n      0x00\n      swap1\n      sload\n      swap1\n      0x0100\n      exp\n      swap1\n      div\n      0xffffffffffffffffffffffffffffffffffffffff\n      and\n        /* \"contracts/CarreraCoches/principal.sol\":2794:2831  listaCoches[i].idPiloto==_propietario */\n      0xffffffffffffffffffffffffffffffffffffffff\n      and\n      eq\n        /* \"contracts/CarreraCoches/principal.sol\":2791:2987  if(listaCoches[i].idPiloto==_propietario){\r... */\n      iszero\n      tag_220\n      jumpi\n        /* \"contracts/CarreraCoches/principal.sol\":2856:2971  cochePropietario(listaCoches[i].marca, listaCoches[i].modelo, listaCoches[i].nivel, listaCoches[i].carrerasGanadas) */\n      0x18c2885dbbffc4e127da047b869295b42d8d5ee97848f7f117b062e88f34a9e6\n        /* \"contracts/CarreraCoches/principal.sol\":2873:2884  listaCoches */\n      0x06\n        /* \"contracts/CarreraCoches/principal.sol\":2885:2886  i */\n      dup3\n        /* \"contracts/CarreraCoches/principal.sol\":2873:2887  listaCoches[i] */\n      dup2\n      sload\n      dup2\n      lt\n      tag_221\n      jumpi\n      tag_222\n      tag_87\n      jump\t// in\n    tag_222:\n    tag_221:\n      swap1\n      0x00\n      mstore\n      keccak256(0x00, 0x20)\n      swap1\n      0x08\n      mul\n      add\n        /* \"contracts/CarreraCoches/principal.sol\":2873:2893  listaCoches[i].marca */\n      0x02\n      add\n        /* \"contracts/CarreraCoches/principal.sol\":2895:2906  listaCoches */\n      0x06\n        /* \"contracts/CarreraCoches/principal.sol\":2907:2908  i */\n      dup4\n        /* \"contracts/CarreraCoches/principal.sol\":2895:2909  listaCoches[i] */\n      dup2\n      sload\n      dup2\n      lt\n      tag_224\n      jumpi\n      tag_225\n      tag_87\n      jump\t// in\n    tag_225:\n    tag_224:\n      swap1\n      0x00\n      mstore\n      keccak256(0x00, 0x20)\n      swap1\n      0x08\n      mul\n      add\n        /* \"contracts/CarreraCoches/principal.sol\":2895:2916  listaCoches[i].modelo */\n      0x01\n      add\n        /* \"contracts/CarreraCoches/principal.sol\":2918:2929  listaCoches */\n      0x06\n        /* \"contracts/CarreraCoches/principal.sol\":2930:2931  i */\n      dup5\n        /* \"contracts/CarreraCoches/principal.sol\":2918:2932  listaCoches[i] */\n      dup2\n      sload\n      dup2\n      lt\n      tag_227\n      jumpi\n      tag_228\n      tag_87\n      jump\t// in\n    tag_228:\n    tag_227:\n      swap1\n      0x00\n      mstore\n      keccak256(0x00, 0x20)\n      swap1\n      0x08\n      mul\n      add\n        /* \"contracts/CarreraCoches/principal.sol\":2918:2938  listaCoches[i].nivel */\n      0x07\n      add\n      0x00\n      swap1\n      sload\n      swap1\n      0x0100\n      exp\n      swap1\n      div\n      0xffffffff\n      and\n        /* \"contracts/CarreraCoches/principal.sol\":2940:2951  listaCoches */\n      0x06\n        /* \"contracts/CarreraCoches/principal.sol\":2952:2953  i */\n      dup6\n        /* \"contracts/CarreraCoches/principal.sol\":2940:2954  listaCoches[i] */\n      dup2\n      sload\n      dup2\n      lt\n      tag_230\n      jumpi\n      tag_231\n      tag_87\n      jump\t// in\n    tag_231:\n    tag_230:\n      swap1\n      0x00\n      mstore\n      keccak256(0x00, 0x20)\n      swap1\n      0x08\n      mul\n      add\n        /* \"contracts/CarreraCoches/principal.sol\":2940:2970  listaCoches[i].carrerasGanadas */\n      0x04\n      add\n      sload\n        /* \"contracts/CarreraCoches/principal.sol\":2856:2971  cochePropietario(listaCoches[i].marca, listaCoches[i].modelo, listaCoches[i].nivel, listaCoches[i].carrerasGanadas) */\n      mload(0x40)\n      tag_233\n      swap5\n      swap4\n      swap3\n      swap2\n      swap1\n      tag_234\n      jump\t// in\n    tag_233:\n      mload(0x40)\n      dup1\n      swap2\n      sub\n      swap1\n      log1\n        /* \"contracts/CarreraCoches/principal.sol\":2791:2987  if(listaCoches[i].idPiloto==_propietario){\r... */\n    tag_220:\n        /* \"contracts/CarreraCoches/principal.sol\":2772:2775  i++ */\n      dup1\n      dup1\n      tag_235\n      swap1\n      tag_100\n      jump\t// in\n    tag_235:\n      swap2\n      pop\n      pop\n        /* \"contracts/CarreraCoches/principal.sol\":2732:2998  for(uint i = 0; i < listaCoches.length; i++){\r... */\n      jump(tag_214)\n    tag_215:\n      pop\n        /* \"contracts/CarreraCoches/principal.sol\":2661:3005  function verCochePropietario(address _propietario) external {\r... */\n      pop\n      jump\t// out\n        /* \"contracts/CarreraCoches/ownable.sol\":1977:2178  function transferOwnership(address newOwner) public virtual onlyOwner {\r... */\n    tag_78:\n        /* \"contracts/CarreraCoches/ownable.sol\":1299:1311  _msgSender() */\n      tag_237\n        /* \"contracts/CarreraCoches/ownable.sol\":1299:1309  _msgSender */\n      tag_103\n        /* \"contracts/CarreraCoches/ownable.sol\":1299:1311  _msgSender() */\n      jump\t// in\n    tag_237:\n        /* \"contracts/CarreraCoches/ownable.sol\":1288:1311  owner() == _msgSender() */\n      0xffffffffffffffffffffffffffffffffffffffff\n      and\n        /* \"contracts/CarreraCoches/ownable.sol\":1288:1295  owner() */\n      tag_238\n        /* \"contracts/CarreraCoches/ownable.sol\":1288:1293  owner */\n      tag_59\n        /* \"contracts/CarreraCoches/ownable.sol\":1288:1295  owner() */\n      jump\t// in\n    tag_238:\n        /* \"contracts/CarreraCoches/ownable.sol\":1288:1311  owner() == _msgSender() */\n      0xffffffffffffffffffffffffffffffffffffffff\n      and\n      eq\n        /* \"contracts/CarreraCoches/ownable.sol\":1280:1348  require(owner() == _msgSender(), \"Ownable: caller is not the owner\") */\n      tag_239\n      jumpi\n      mload(0x40)\n      0x08c379a000000000000000000000000000000000000000000000000000000000\n      dup2\n      mstore\n      0x04\n      add\n      tag_240\n      swap1\n      tag_107\n      jump\t// in\n    tag_240:\n      mload(0x40)\n      dup1\n      swap2\n      sub\n      swap1\n      revert\n    tag_239:\n        /* \"contracts/CarreraCoches/ownable.sol\":2086:2087  0 */\n      0x00\n        /* \"contracts/CarreraCoches/ownable.sol\":2066:2088  newOwner != address(0) */\n      0xffffffffffffffffffffffffffffffffffffffff\n      and\n        /* \"contracts/CarreraCoches/ownable.sol\":2066:2074  newOwner */\n      dup2\n        /* \"contracts/CarreraCoches/ownable.sol\":2066:2088  newOwner != address(0) */\n      0xffffffffffffffffffffffffffffffffffffffff\n      and\n      eq\n      iszero\n        /* \"contracts/CarreraCoches/ownable.sol\":2058:2131  require(newOwner != address(0), \"Ownable: new owner is the zero address\") */\n      tag_242\n      jumpi\n      mload(0x40)\n      0x08c379a000000000000000000000000000000000000000000000000000000000\n      dup2\n      mstore\n      0x04\n      add\n      tag_243\n      swap1\n      tag_244\n      jump\t// in\n    tag_243:\n      mload(0x40)\n      dup1\n      swap2\n      sub\n      swap1\n      revert\n    tag_242:\n        /* \"contracts/CarreraCoches/ownable.sol\":2142:2170  _transferOwnership(newOwner) */\n      tag_245\n        /* \"contracts/CarreraCoches/ownable.sol\":2161:2169  newOwner */\n      dup2\n        /* \"contracts/CarreraCoches/ownable.sol\":2142:2160  _transferOwnership */\n      tag_193\n        /* \"contracts/CarreraCoches/ownable.sol\":2142:2170  _transferOwnership(newOwner) */\n      jump\t// in\n    tag_245:\n        /* \"contracts/CarreraCoches/ownable.sol\":1977:2178  function transferOwnership(address newOwner) public virtual onlyOwner {\r... */\n      pop\n      jump\t// out\n        /* \"contracts/CarreraCoches/utils/Context.sol\":656:754  function _msgSender() internal view virtual returns (address) {\r... */\n    tag_103:\n        /* \"contracts/CarreraCoches/utils/Context.sol\":709:716  address */\n      0x00\n        /* \"contracts/CarreraCoches/utils/Context.sol\":736:746  msg.sender */\n      caller\n        /* \"contracts/CarreraCoches/utils/Context.sol\":729:746  return msg.sender */\n      swap1\n      pop\n        /* \"contracts/CarreraCoches/utils/Context.sol\":656:754  function _msgSender() internal view virtual returns (address) {\r... */\n      swap1\n      jump\t// out\n        /* \"contracts/CarreraCoches/principal.sol\":5413:5511  function balance() private {\r... */\n    tag_164:\n        /* \"contracts/CarreraCoches/principal.sol\":5460:5470  msg.sender */\n      caller\n        /* \"contracts/CarreraCoches/principal.sol\":5451:5480  payable (msg.sender).transfer */\n      0xffffffffffffffffffffffffffffffffffffffff\n      and\n        /* \"contracts/CarreraCoches/principal.sol\":5451:5503  payable (msg.sender).transfer(address(this).balance) */\n      0x08fc\n        /* \"contracts/CarreraCoches/principal.sol\":5481:5502  address(this).balance */\n      selfbalance\n        /* \"contracts/CarreraCoches/principal.sol\":5451:5503  payable (msg.sender).transfer(address(this).balance) */\n      swap1\n      dup2\n      iszero\n      mul\n      swap1\n      mload(0x40)\n      0x00\n      mload(0x40)\n      dup1\n      dup4\n      sub\n      dup2\n      dup6\n      dup9\n      dup9\n      call\n      swap4\n      pop\n      pop\n      pop\n      pop\n      iszero\n      dup1\n      iszero\n      tag_249\n      jumpi\n      returndatasize\n      0x00\n      dup1\n      returndatacopy\n      revert(0x00, returndatasize)\n    tag_249:\n      pop\n        /* \"contracts/CarreraCoches/principal.sol\":5413:5511  function balance() private {\r... */\n      jump\t// out\n        /* \"contracts/CarreraCoches/ownable.sol\":2338:2529  function _transferOwnership(address newOwner) internal virtual {\r... */\n    tag_193:\n        /* \"contracts/CarreraCoches/ownable.sol\":2412:2428  address oldOwner */\n      0x00\n        /* \"contracts/CarreraCoches/ownable.sol\":2431:2437  _owner */\n      dup1\n      0x00\n      swap1\n      sload\n      swap1\n      0x0100\n      exp\n      swap1\n      div\n      0xffffffffffffffffffffffffffffffffffffffff\n      and\n        /* \"contracts/CarreraCoches/ownable.sol\":2412:2437  address oldOwner = _owner */\n      swap1\n      pop\n        /* \"contracts/CarreraCoches/ownable.sol\":2457:2465  newOwner */\n      dup2\n        /* \"contracts/CarreraCoches/ownable.sol\":2448:2454  _owner */\n      0x00\n      dup1\n        /* \"contracts/CarreraCoches/ownable.sol\":2448:2465  _owner = newOwner */\n      0x0100\n      exp\n      dup2\n      sload\n      dup2\n      0xffffffffffffffffffffffffffffffffffffffff\n      mul\n      not\n      and\n      swap1\n      dup4\n      0xffffffffffffffffffffffffffffffffffffffff\n      and\n      mul\n      or\n      swap1\n      sstore\n      pop\n        /* \"contracts/CarreraCoches/ownable.sol\":2512:2520  newOwner */\n      dup2\n        /* \"contracts/CarreraCoches/ownable.sol\":2481:2521  OwnershipTransferred(oldOwner, newOwner) */\n      0xffffffffffffffffffffffffffffffffffffffff\n      and\n        /* \"contracts/CarreraCoches/ownable.sol\":2502:2510  oldOwner */\n      dup2\n        /* \"contracts/CarreraCoches/ownable.sol\":2481:2521  OwnershipTransferred(oldOwner, newOwner) */\n      0xffffffffffffffffffffffffffffffffffffffff\n      and\n      0x8be0079c531659141344cd1fd0a4f28419497f9722a3daafe3b4186f6b6457e0\n      mload(0x40)\n      mload(0x40)\n      dup1\n      swap2\n      sub\n      swap1\n      log3\n        /* \"contracts/CarreraCoches/ownable.sol\":2401:2529  {\r... */\n      pop\n        /* \"contracts/CarreraCoches/ownable.sol\":2338:2529  function _transferOwnership(address newOwner) internal virtual {\r... */\n      pop\n      jump\t// out\n    tag_94:\n      dup3\n      dup1\n      sload\n      tag_253\n      swap1\n      tag_198\n      jump\t// in\n    tag_253:\n      swap1\n      0x00\n      mstore\n      keccak256(0x00, 0x20)\n      swap1\n      0x1f\n      add\n      0x20\n      swap1\n      div\n      dup2\n      add\n      swap3\n      dup3\n      tag_255\n      jumpi\n      0x00\n      dup6\n      sstore\n      jump(tag_254)\n    tag_255:\n      dup3\n      0x1f\n      lt\n      tag_256\n      jumpi\n      dup1\n      mload\n      not(0xff)\n      and\n      dup4\n      dup1\n      add\n      or\n      dup6\n      sstore\n      jump(tag_254)\n    tag_256:\n      dup3\n      dup1\n      add\n      0x01\n      add\n      dup6\n      sstore\n      dup3\n      iszero\n      tag_254\n      jumpi\n      swap2\n      dup3\n      add\n    tag_257:\n      dup3\n      dup2\n      gt\n      iszero\n      tag_258\n      jumpi\n      dup3\n      mload\n      dup3\n      sstore\n      swap2\n      0x20\n      add\n      swap2\n      swap1\n      0x01\n      add\n      swap1\n      jump(tag_257)\n    tag_258:\n    tag_254:\n      pop\n      swap1\n      pop\n      tag_259\n      swap2\n      swap1\n      tag_260\n      jump\t// in\n    tag_259:\n      pop\n      swap1\n      jump\t// out\n    tag_260:\n    tag_261:\n      dup1\n      dup3\n      gt\n      iszero\n      tag_262\n      jumpi\n      0x00\n      dup2\n      0x00\n      swap1\n      sstore\n      pop\n      0x01\n      add\n      jump(tag_261)\n    tag_262:\n      pop\n      swap1\n      jump\t// out\n        /* \"#utility.yul\":7:419   */\n    tag_264:\n        /* \"#utility.yul\":85:90   */\n      0x00\n        /* \"#utility.yul\":110:176   */\n      tag_266\n        /* \"#utility.yul\":126:175   */\n      tag_267\n        /* \"#utility.yul\":168:174   */\n      dup5\n        /* \"#utility.yul\":126:175   */\n      tag_268\n      jump\t// in\n    tag_267:\n        /* \"#utility.yul\":110:176   */\n      tag_269\n      jump\t// in\n    tag_266:\n        /* \"#utility.yul\":101:176   */\n      swap1\n      pop\n        /* \"#utility.yul\":199:205   */\n      dup3\n        /* \"#utility.yul\":192:197   */\n      dup2\n        /* \"#utility.yul\":185:206   */\n      mstore\n        /* \"#utility.yul\":237:241   */\n      0x20\n        /* \"#utility.yul\":230:235   */\n      dup2\n        /* \"#utility.yul\":226:242   */\n      add\n        /* \"#utility.yul\":275:278   */\n      dup5\n        /* \"#utility.yul\":266:272   */\n      dup5\n        /* \"#utility.yul\":261:264   */\n      dup5\n        /* \"#utility.yul\":257:273   */\n      add\n        /* \"#utility.yul\":254:279   */\n      gt\n        /* \"#utility.yul\":251:363   */\n      iszero\n      tag_270\n      jumpi\n        /* \"#utility.yul\":282:361   */\n      tag_271\n      tag_272\n      jump\t// in\n    tag_271:\n        /* \"#utility.yul\":251:363   */\n    tag_270:\n        /* \"#utility.yul\":372:413   */\n      tag_273\n        /* \"#utility.yul\":406:412   */\n      dup5\n        /* \"#utility.yul\":401:404   */\n      dup3\n        /* \"#utility.yul\":396:399   */\n      dup6\n        /* \"#utility.yul\":372:413   */\n      tag_274\n      jump\t// in\n    tag_273:\n        /* \"#utility.yul\":91:419   */\n      pop\n        /* \"#utility.yul\":7:419   */\n      swap4\n      swap3\n      pop\n      pop\n      pop\n      jump\t// out\n        /* \"#utility.yul\":425:564   */\n    tag_275:\n        /* \"#utility.yul\":471:476   */\n      0x00\n        /* \"#utility.yul\":509:515   */\n      dup2\n        /* \"#utility.yul\":496:516   */\n      calldataload\n        /* \"#utility.yul\":487:516   */\n      swap1\n      pop\n        /* \"#utility.yul\":525:558   */\n      tag_277\n        /* \"#utility.yul\":552:557   */\n      dup2\n        /* \"#utility.yul\":525:558   */\n      tag_278\n      jump\t// in\n    tag_277:\n        /* \"#utility.yul\":425:564   */\n      swap3\n      swap2\n      pop\n      pop\n      jump\t// out\n        /* \"#utility.yul\":584:924   */\n    tag_279:\n        /* \"#utility.yul\":640:645   */\n      0x00\n        /* \"#utility.yul\":689:692   */\n      dup3\n        /* \"#utility.yul\":682:686   */\n      0x1f\n        /* \"#utility.yul\":674:680   */\n      dup4\n        /* \"#utility.yul\":670:687   */\n      add\n        /* \"#utility.yul\":666:693   */\n      slt\n        /* \"#utility.yul\":656:778   */\n      tag_281\n      jumpi\n        /* \"#utility.yul\":697:776   */\n      tag_282\n      tag_283\n      jump\t// in\n    tag_282:\n        /* \"#utility.yul\":656:778   */\n    tag_281:\n        /* \"#utility.yul\":814:820   */\n      dup2\n        /* \"#utility.yul\":801:821   */\n      calldataload\n        /* \"#utility.yul\":839:918   */\n      tag_284\n        /* \"#utility.yul\":914:917   */\n      dup5\n        /* \"#utility.yul\":906:912   */\n      dup3\n        /* \"#utility.yul\":899:903   */\n      0x20\n        /* \"#utility.yul\":891:897   */\n      dup7\n        /* \"#utility.yul\":887:904   */\n      add\n        /* \"#utility.yul\":839:918   */\n      tag_264\n      jump\t// in\n    tag_284:\n        /* \"#utility.yul\":830:918   */\n      swap2\n      pop\n        /* \"#utility.yul\":646:924   */\n      pop\n        /* \"#utility.yul\":584:924   */\n      swap3\n      swap2\n      pop\n      pop\n      jump\t// out\n        /* \"#utility.yul\":930:1069   */\n    tag_285:\n        /* \"#utility.yul\":976:981   */\n      0x00\n        /* \"#utility.yul\":1014:1020   */\n      dup2\n        /* \"#utility.yul\":1001:1021   */\n      calldataload\n        /* \"#utility.yul\":992:1021   */\n      swap1\n      pop\n        /* \"#utility.yul\":1030:1063   */\n      tag_287\n        /* \"#utility.yul\":1057:1062   */\n      dup2\n        /* \"#utility.yul\":1030:1063   */\n      tag_288\n      jump\t// in\n    tag_287:\n        /* \"#utility.yul\":930:1069   */\n      swap3\n      swap2\n      pop\n      pop\n      jump\t// out\n        /* \"#utility.yul\":1075:1404   */\n    tag_29:\n        /* \"#utility.yul\":1134:1140   */\n      0x00\n        /* \"#utility.yul\":1183:1185   */\n      0x20\n        /* \"#utility.yul\":1171:1180   */\n      dup3\n        /* \"#utility.yul\":1162:1169   */\n      dup5\n        /* \"#utility.yul\":1158:1181   */\n      sub\n        /* \"#utility.yul\":1154:1186   */\n      slt\n        /* \"#utility.yul\":1151:1270   */\n      iszero\n      tag_290\n      jumpi\n        /* \"#utility.yul\":1189:1268   */\n      tag_291\n      tag_292\n      jump\t// in\n    tag_291:\n        /* \"#utility.yul\":1151:1270   */\n    tag_290:\n        /* \"#utility.yul\":1309:1310   */\n      0x00\n        /* \"#utility.yul\":1334:1387   */\n      tag_293\n        /* \"#utility.yul\":1379:1386   */\n      dup5\n        /* \"#utility.yul\":1370:1376   */\n      dup3\n        /* \"#utility.yul\":1359:1368   */\n      dup6\n        /* \"#utility.yul\":1355:1377   */\n      add\n        /* \"#utility.yul\":1334:1387   */\n      tag_275\n      jump\t// in\n    tag_293:\n        /* \"#utility.yul\":1324:1387   */\n      swap2\n      pop\n        /* \"#utility.yul\":1280:1397   */\n      pop\n        /* \"#utility.yul\":1075:1404   */\n      swap3\n      swap2\n      pop\n      pop\n      jump\t// out\n        /* \"#utility.yul\":1410:2389   */\n    tag_19:\n        /* \"#utility.yul\":1507:1513   */\n      0x00\n        /* \"#utility.yul\":1515:1521   */\n      dup1\n        /* \"#utility.yul\":1523:1529   */\n      0x00\n        /* \"#utility.yul\":1572:1574   */\n      0x60\n        /* \"#utility.yul\":1560:1569   */\n      dup5\n        /* \"#utility.yul\":1551:1558   */\n      dup7\n        /* \"#utility.yul\":1547:1570   */\n      sub\n        /* \"#utility.yul\":1543:1575   */\n      slt\n        /* \"#utility.yul\":1540:1659   */\n      iszero\n      tag_295\n      jumpi\n        /* \"#utility.yul\":1578:1657   */\n      tag_296\n      tag_292\n      jump\t// in\n    tag_296:\n        /* \"#utility.yul\":1540:1659   */\n    tag_295:\n        /* \"#utility.yul\":1698:1699   */\n      0x00\n        /* \"#utility.yul\":1723:1776   */\n      tag_297\n        /* \"#utility.yul\":1768:1775   */\n      dup7\n        /* \"#utility.yul\":1759:1765   */\n      dup3\n        /* \"#utility.yul\":1748:1757   */\n      dup8\n        /* \"#utility.yul\":1744:1766   */\n      add\n        /* \"#utility.yul\":1723:1776   */\n      tag_275\n      jump\t// in\n    tag_297:\n        /* \"#utility.yul\":1713:1776   */\n      swap4\n      pop\n        /* \"#utility.yul\":1669:1786   */\n      pop\n        /* \"#utility.yul\":1853:1855   */\n      0x20\n        /* \"#utility.yul\":1842:1851   */\n      dup5\n        /* \"#utility.yul\":1838:1856   */\n      add\n        /* \"#utility.yul\":1825:1857   */\n      calldataload\n        /* \"#utility.yul\":1884:1902   */\n      0xffffffffffffffff\n        /* \"#utility.yul\":1876:1882   */\n      dup2\n        /* \"#utility.yul\":1873:1903   */\n      gt\n        /* \"#utility.yul\":1870:1987   */\n      iszero\n      tag_298\n      jumpi\n        /* \"#utility.yul\":1906:1985   */\n      tag_299\n      tag_300\n      jump\t// in\n    tag_299:\n        /* \"#utility.yul\":1870:1987   */\n    tag_298:\n        /* \"#utility.yul\":2011:2074   */\n      tag_301\n        /* \"#utility.yul\":2066:2073   */\n      dup7\n        /* \"#utility.yul\":2057:2063   */\n      dup3\n        /* \"#utility.yul\":2046:2055   */\n      dup8\n        /* \"#utility.yul\":2042:2064   */\n      add\n        /* \"#utility.yul\":2011:2074   */\n      tag_279\n      jump\t// in\n    tag_301:\n        /* \"#utility.yul\":2001:2074   */\n      swap3\n      pop\n        /* \"#utility.yul\":1796:2084   */\n      pop\n        /* \"#utility.yul\":2151:2153   */\n      0x40\n        /* \"#utility.yul\":2140:2149   */\n      dup5\n        /* \"#utility.yul\":2136:2154   */\n      add\n        /* \"#utility.yul\":2123:2155   */\n      calldataload\n        /* \"#utility.yul\":2182:2200   */\n      0xffffffffffffffff\n        /* \"#utility.yul\":2174:2180   */\n      dup2\n        /* \"#utility.yul\":2171:2201   */\n      gt\n        /* \"#utility.yul\":2168:2285   */\n      iszero\n      tag_302\n      jumpi\n        /* \"#utility.yul\":2204:2283   */\n      tag_303\n      tag_300\n      jump\t// in\n    tag_303:\n        /* \"#utility.yul\":2168:2285   */\n    tag_302:\n        /* \"#utility.yul\":2309:2372   */\n      tag_304\n        /* \"#utility.yul\":2364:2371   */\n      dup7\n        /* \"#utility.yul\":2355:2361   */\n      dup3\n        /* \"#utility.yul\":2344:2353   */\n      dup8\n        /* \"#utility.yul\":2340:2362   */\n      add\n        /* \"#utility.yul\":2309:2372   */\n      tag_279\n      jump\t// in\n    tag_304:\n        /* \"#utility.yul\":2299:2372   */\n      swap2\n      pop\n        /* \"#utility.yul\":2094:2382   */\n      pop\n        /* \"#utility.yul\":1410:2389   */\n      swap3\n      pop\n      swap3\n      pop\n      swap3\n      jump\t// out\n        /* \"#utility.yul\":2395:3554   */\n    tag_36:\n        /* \"#utility.yul\":2502:2508   */\n      0x00\n        /* \"#utility.yul\":2510:2516   */\n      dup1\n        /* \"#utility.yul\":2518:2524   */\n      0x00\n        /* \"#utility.yul\":2567:2569   */\n      0x60\n        /* \"#utility.yul\":2555:2564   */\n      dup5\n        /* \"#utility.yul\":2546:2553   */\n      dup7\n        /* \"#utility.yul\":2542:2565   */\n      sub\n        /* \"#utility.yul\":2538:2570   */\n      slt\n        /* \"#utility.yul\":2535:2654   */\n      iszero\n      tag_306\n      jumpi\n        /* \"#utility.yul\":2573:2652   */\n      tag_307\n      tag_292\n      jump\t// in\n    tag_307:\n        /* \"#utility.yul\":2535:2654   */\n    tag_306:\n        /* \"#utility.yul\":2721:2722   */\n      0x00\n        /* \"#utility.yul\":2710:2719   */\n      dup5\n        /* \"#utility.yul\":2706:2723   */\n      add\n        /* \"#utility.yul\":2693:2724   */\n      calldataload\n        /* \"#utility.yul\":2751:2769   */\n      0xffffffffffffffff\n        /* \"#utility.yul\":2743:2749   */\n      dup2\n        /* \"#utility.yul\":2740:2770   */\n      gt\n        /* \"#utility.yul\":2737:2854   */\n      iszero\n      tag_308\n      jumpi\n        /* \"#utility.yul\":2773:2852   */\n      tag_309\n      tag_300\n      jump\t// in\n    tag_309:\n        /* \"#utility.yul\":2737:2854   */\n    tag_308:\n        /* \"#utility.yul\":2878:2941   */\n      tag_310\n        /* \"#utility.yul\":2933:2940   */\n      dup7\n        /* \"#utility.yul\":2924:2930   */\n      dup3\n        /* \"#utility.yul\":2913:2922   */\n      dup8\n        /* \"#utility.yul\":2909:2931   */\n      add\n        /* \"#utility.yul\":2878:2941   */\n      tag_279\n      jump\t// in\n    tag_310:\n        /* \"#utility.yul\":2868:2941   */\n      swap4\n      pop\n        /* \"#utility.yul\":2664:2951   */\n      pop\n        /* \"#utility.yul\":3018:3020   */\n      0x20\n        /* \"#utility.yul\":3007:3016   */\n      dup5\n        /* \"#utility.yul\":3003:3021   */\n      add\n        /* \"#utility.yul\":2990:3022   */\n      calldataload\n        /* \"#utility.yul\":3049:3067   */\n      0xffffffffffffffff\n        /* \"#utility.yul\":3041:3047   */\n      dup2\n        /* \"#utility.yul\":3038:3068   */\n      gt\n        /* \"#utility.yul\":3035:3152   */\n      iszero\n      tag_311\n      jumpi\n        /* \"#utility.yul\":3071:3150   */\n      tag_312\n      tag_300\n      jump\t// in\n    tag_312:\n        /* \"#utility.yul\":3035:3152   */\n    tag_311:\n        /* \"#utility.yul\":3176:3239   */\n      tag_313\n        /* \"#utility.yul\":3231:3238   */\n      dup7\n        /* \"#utility.yul\":3222:3228   */\n      dup3\n        /* \"#utility.yul\":3211:3220   */\n      dup8\n        /* \"#utility.yul\":3207:3229   */\n      add\n        /* \"#utility.yul\":3176:3239   */\n      tag_279\n      jump\t// in\n    tag_313:\n        /* \"#utility.yul\":3166:3239   */\n      swap3\n      pop\n        /* \"#utility.yul\":2961:3249   */\n      pop\n        /* \"#utility.yul\":3316:3318   */\n      0x40\n        /* \"#utility.yul\":3305:3314   */\n      dup5\n        /* \"#utility.yul\":3301:3319   */\n      add\n        /* \"#utility.yul\":3288:3320   */\n      calldataload\n        /* \"#utility.yul\":3347:3365   */\n      0xffffffffffffffff\n        /* \"#utility.yul\":3339:3345   */\n      dup2\n        /* \"#utility.yul\":3336:3366   */\n      gt\n        /* \"#utility.yul\":3333:3450   */\n      iszero\n      tag_314\n      jumpi\n        /* \"#utility.yul\":3369:3448   */\n      tag_315\n      tag_300\n      jump\t// in\n    tag_315:\n        /* \"#utility.yul\":3333:3450   */\n    tag_314:\n        /* \"#utility.yul\":3474:3537   */\n      tag_316\n        /* \"#utility.yul\":3529:3536   */\n      dup7\n        /* \"#utility.yul\":3520:3526   */\n      dup3\n        /* \"#utility.yul\":3509:3518   */\n      dup8\n        /* \"#utility.yul\":3505:3527   */\n      add\n        /* \"#utility.yul\":3474:3537   */\n      tag_279\n      jump\t// in\n    tag_316:\n        /* \"#utility.yul\":3464:3537   */\n      swap2\n      pop\n        /* \"#utility.yul\":3259:3547   */\n      pop\n        /* \"#utility.yul\":2395:3554   */\n      swap3\n      pop\n      swap3\n      pop\n      swap3\n      jump\t// out\n        /* \"#utility.yul\":3560:3889   */\n    tag_45:\n        /* \"#utility.yul\":3619:3625   */\n      0x00\n        /* \"#utility.yul\":3668:3670   */\n      0x20\n        /* \"#utility.yul\":3656:3665   */\n      dup3\n        /* \"#utility.yul\":3647:3654   */\n      dup5\n        /* \"#utility.yul\":3643:3666   */\n      sub\n        /* \"#utility.yul\":3639:3671   */\n      slt\n        /* \"#utility.yul\":3636:3755   */\n      iszero\n      tag_318\n      jumpi\n        /* \"#utility.yul\":3674:3753   */\n      tag_319\n      tag_292\n      jump\t// in\n    tag_319:\n        /* \"#utility.yul\":3636:3755   */\n    tag_318:\n        /* \"#utility.yul\":3794:3795   */\n      0x00\n        /* \"#utility.yul\":3819:3872   */\n      tag_320\n        /* \"#utility.yul\":3864:3871   */\n      dup5\n        /* \"#utility.yul\":3855:3861   */\n      dup3\n        /* \"#utility.yul\":3844:3853   */\n      dup6\n        /* \"#utility.yul\":3840:3862   */\n      add\n        /* \"#utility.yul\":3819:3872   */\n      tag_285\n      jump\t// in\n    tag_320:\n        /* \"#utility.yul\":3809:3872   */\n      swap2\n      pop\n        /* \"#utility.yul\":3765:3882   */\n      pop\n        /* \"#utility.yul\":3560:3889   */\n      swap3\n      swap2\n      pop\n      pop\n      jump\t// out\n        /* \"#utility.yul\":3895:4013   */\n    tag_321:\n        /* \"#utility.yul\":3982:4006   */\n      tag_323\n        /* \"#utility.yul\":4000:4005   */\n      dup2\n        /* \"#utility.yul\":3982:4006   */\n      tag_324\n      jump\t// in\n    tag_323:\n        /* \"#utility.yul\":3977:3980   */\n      dup3\n        /* \"#utility.yul\":3970:4007   */\n      mstore\n        /* \"#utility.yul\":3895:4013   */\n      pop\n      pop\n      jump\t// out\n        /* \"#utility.yul\":4019:4383   */\n    tag_325:\n        /* \"#utility.yul\":4107:4110   */\n      0x00\n        /* \"#utility.yul\":4135:4174   */\n      tag_327\n        /* \"#utility.yul\":4168:4173   */\n      dup3\n        /* \"#utility.yul\":4135:4174   */\n      tag_328\n      jump\t// in\n    tag_327:\n        /* \"#utility.yul\":4190:4261   */\n      tag_329\n        /* \"#utility.yul\":4254:4260   */\n      dup2\n        /* \"#utility.yul\":4249:4252   */\n      dup6\n        /* \"#utility.yul\":4190:4261   */\n      tag_330\n      jump\t// in\n    tag_329:\n        /* \"#utility.yul\":4183:4261   */\n      swap4\n      pop\n        /* \"#utility.yul\":4270:4322   */\n      tag_331\n        /* \"#utility.yul\":4315:4321   */\n      dup2\n        /* \"#utility.yul\":4310:4313   */\n      dup6\n        /* \"#utility.yul\":4303:4307   */\n      0x20\n        /* \"#utility.yul\":4296:4301   */\n      dup7\n        /* \"#utility.yul\":4292:4308   */\n      add\n        /* \"#utility.yul\":4270:4322   */\n      tag_332\n      jump\t// in\n    tag_331:\n        /* \"#utility.yul\":4347:4376   */\n      tag_333\n        /* \"#utility.yul\":4369:4375   */\n      dup2\n        /* \"#utility.yul\":4347:4376   */\n      tag_334\n      jump\t// in\n    tag_333:\n        /* \"#utility.yul\":4342:4345   */\n      dup5\n        /* \"#utility.yul\":4338:4377   */\n      add\n        /* \"#utility.yul\":4331:4377   */\n      swap2\n      pop\n        /* \"#utility.yul\":4111:4383   */\n      pop\n        /* \"#utility.yul\":4019:4383   */\n      swap3\n      swap2\n      pop\n      pop\n      jump\t// out\n        /* \"#utility.yul\":4413:5215   */\n    tag_335:\n        /* \"#utility.yul\":4498:4501   */\n      0x00\n        /* \"#utility.yul\":4535:4540   */\n      dup2\n        /* \"#utility.yul\":4529:4541   */\n      sload\n        /* \"#utility.yul\":4564:4600   */\n      tag_337\n        /* \"#utility.yul\":4590:4599   */\n      dup2\n        /* \"#utility.yul\":4564:4600   */\n      tag_198\n      jump\t// in\n    tag_337:\n        /* \"#utility.yul\":4616:4687   */\n      tag_338\n        /* \"#utility.yul\":4680:4686   */\n      dup2\n        /* \"#utility.yul\":4675:4678   */\n      dup7\n        /* \"#utility.yul\":4616:4687   */\n      tag_330\n      jump\t// in\n    tag_338:\n        /* \"#utility.yul\":4609:4687   */\n      swap5\n      pop\n        /* \"#utility.yul\":4718:4719   */\n      0x01\n        /* \"#utility.yul\":4707:4716   */\n      dup3\n        /* \"#utility.yul\":4703:4720   */\n      and\n        /* \"#utility.yul\":4734:4735   */\n      0x00\n        /* \"#utility.yul\":4729:4864   */\n      dup2\n      eq\n      tag_340\n      jumpi\n        /* \"#utility.yul\":4878:4879   */\n      0x01\n        /* \"#utility.yul\":4873:5209   */\n      dup2\n      eq\n      tag_341\n      jumpi\n        /* \"#utility.yul\":4696:5209   */\n      jump(tag_339)\n        /* \"#utility.yul\":4729:4864   */\n    tag_340:\n        /* \"#utility.yul\":4813:4817   */\n      0xff\n        /* \"#utility.yul\":4809:4818   */\n      not\n        /* \"#utility.yul\":4798:4807   */\n      dup4\n        /* \"#utility.yul\":4794:4819   */\n      and\n        /* \"#utility.yul\":4789:4792   */\n      dup7\n        /* \"#utility.yul\":4782:4820   */\n      mstore\n        /* \"#utility.yul\":4849:4853   */\n      0x20\n        /* \"#utility.yul\":4844:4847   */\n      dup7\n        /* \"#utility.yul\":4840:4854   */\n      add\n        /* \"#utility.yul\":4833:4854   */\n      swap4\n      pop\n        /* \"#utility.yul\":4729:4864   */\n      jump(tag_339)\n        /* \"#utility.yul\":4873:5209   */\n    tag_341:\n        /* \"#utility.yul\":4940:4978   */\n      tag_342\n        /* \"#utility.yul\":4972:4977   */\n      dup6\n        /* \"#utility.yul\":4940:4978   */\n      tag_343\n      jump\t// in\n    tag_342:\n        /* \"#utility.yul\":5000:5001   */\n      0x00\n        /* \"#utility.yul\":5014:5168   */\n    tag_344:\n        /* \"#utility.yul\":5028:5034   */\n      dup4\n        /* \"#utility.yul\":5025:5026   */\n      dup2\n        /* \"#utility.yul\":5022:5035   */\n      lt\n        /* \"#utility.yul\":5014:5168   */\n      iszero\n      tag_346\n      jumpi\n        /* \"#utility.yul\":5102:5109   */\n      dup2\n        /* \"#utility.yul\":5096:5110   */\n      sload\n        /* \"#utility.yul\":5092:5093   */\n      dup2\n        /* \"#utility.yul\":5087:5090   */\n      dup10\n        /* \"#utility.yul\":5083:5094   */\n      add\n        /* \"#utility.yul\":5076:5111   */\n      mstore\n        /* \"#utility.yul\":5152:5153   */\n      0x01\n        /* \"#utility.yul\":5143:5150   */\n      dup3\n        /* \"#utility.yul\":5139:5154   */\n      add\n        /* \"#utility.yul\":5128:5154   */\n      swap2\n      pop\n        /* \"#utility.yul\":5050:5054   */\n      0x20\n        /* \"#utility.yul\":5047:5048   */\n      dup2\n        /* \"#utility.yul\":5043:5055   */\n      add\n        /* \"#utility.yul\":5038:5055   */\n      swap1\n      pop\n        /* \"#utility.yul\":5014:5168   */\n      jump(tag_344)\n    tag_346:\n        /* \"#utility.yul\":5197:5198   */\n      dup1\n        /* \"#utility.yul\":5192:5195   */\n      dup9\n        /* \"#utility.yul\":5188:5199   */\n      add\n        /* \"#utility.yul\":5181:5199   */\n      swap6\n      pop\n        /* \"#utility.yul\":4880:5209   */\n      pop\n      pop\n        /* \"#utility.yul\":4696:5209   */\n    tag_339:\n      pop\n        /* \"#utility.yul\":4502:5215   */\n      pop\n      pop\n        /* \"#utility.yul\":4413:5215   */\n      swap3\n      swap2\n      pop\n      pop\n      jump\t// out\n        /* \"#utility.yul\":5221:5587   */\n    tag_347:\n        /* \"#utility.yul\":5363:5366   */\n      0x00\n        /* \"#utility.yul\":5384:5451   */\n      tag_349\n        /* \"#utility.yul\":5448:5450   */\n      0x28\n        /* \"#utility.yul\":5443:5446   */\n      dup4\n        /* \"#utility.yul\":5384:5451   */\n      tag_330\n      jump\t// in\n    tag_349:\n        /* \"#utility.yul\":5377:5451   */\n      swap2\n      pop\n        /* \"#utility.yul\":5460:5553   */\n      tag_350\n        /* \"#utility.yul\":5549:5552   */\n      dup3\n        /* \"#utility.yul\":5460:5553   */\n      tag_351\n      jump\t// in\n    tag_350:\n        /* \"#utility.yul\":5578:5580   */\n      0x40\n        /* \"#utility.yul\":5573:5576   */\n      dup3\n        /* \"#utility.yul\":5569:5581   */\n      add\n        /* \"#utility.yul\":5562:5581   */\n      swap1\n      pop\n        /* \"#utility.yul\":5221:5587   */\n      swap2\n      swap1\n      pop\n      jump\t// out\n        /* \"#utility.yul\":5593:5959   */\n    tag_352:\n        /* \"#utility.yul\":5735:5738   */\n      0x00\n        /* \"#utility.yul\":5756:5823   */\n      tag_354\n        /* \"#utility.yul\":5820:5822   */\n      0x26\n        /* \"#utility.yul\":5815:5818   */\n      dup4\n        /* \"#utility.yul\":5756:5823   */\n      tag_330\n      jump\t// in\n    tag_354:\n        /* \"#utility.yul\":5749:5823   */\n      swap2\n      pop\n        /* \"#utility.yul\":5832:5925   */\n      tag_355\n        /* \"#utility.yul\":5921:5924   */\n      dup3\n        /* \"#utility.yul\":5832:5925   */\n      tag_356\n      jump\t// in\n    tag_355:\n        /* \"#utility.yul\":5950:5952   */\n      0x40\n        /* \"#utility.yul\":5945:5948   */\n      dup3\n        /* \"#utility.yul\":5941:5953   */\n      add\n        /* \"#utility.yul\":5934:5953   */\n      swap1\n      pop\n        /* \"#utility.yul\":5593:5959   */\n      swap2\n      swap1\n      pop\n      jump\t// out\n        /* \"#utility.yul\":5965:6331   */\n    tag_357:\n        /* \"#utility.yul\":6107:6110   */\n      0x00\n        /* \"#utility.yul\":6128:6195   */\n      tag_359\n        /* \"#utility.yul\":6192:6194   */\n      0x32\n        /* \"#utility.yul\":6187:6190   */\n      dup4\n        /* \"#utility.yul\":6128:6195   */\n      tag_330\n      jump\t// in\n    tag_359:\n        /* \"#utility.yul\":6121:6195   */\n      swap2\n      pop\n        /* \"#utility.yul\":6204:6297   */\n      tag_360\n        /* \"#utility.yul\":6293:6296   */\n      dup3\n        /* \"#utility.yul\":6204:6297   */\n      tag_361\n      jump\t// in\n    tag_360:\n        /* \"#utility.yul\":6322:6324   */\n      0x40\n        /* \"#utility.yul\":6317:6320   */\n      dup3\n        /* \"#utility.yul\":6313:6325   */\n      add\n        /* \"#utility.yul\":6306:6325   */\n      swap1\n      pop\n        /* \"#utility.yul\":5965:6331   */\n      swap2\n      swap1\n      pop\n      jump\t// out\n        /* \"#utility.yul\":6337:6703   */\n    tag_362:\n        /* \"#utility.yul\":6479:6482   */\n      0x00\n        /* \"#utility.yul\":6500:6567   */\n      tag_364\n        /* \"#utility.yul\":6564:6566   */\n      0x20\n        /* \"#utility.yul\":6559:6562   */\n      dup4\n        /* \"#utility.yul\":6500:6567   */\n      tag_330\n      jump\t// in\n    tag_364:\n        /* \"#utility.yul\":6493:6567   */\n      swap2\n      pop\n        /* \"#utility.yul\":6576:6669   */\n      tag_365\n        /* \"#utility.yul\":6665:6668   */\n      dup3\n        /* \"#utility.yul\":6576:6669   */\n      tag_366\n      jump\t// in\n    tag_365:\n        /* \"#utility.yul\":6694:6696   */\n      0x20\n        /* \"#utility.yul\":6689:6692   */\n      dup3\n        /* \"#utility.yul\":6685:6697   */\n      add\n        /* \"#utility.yul\":6678:6697   */\n      swap1\n      pop\n        /* \"#utility.yul\":6337:6703   */\n      swap2\n      swap1\n      pop\n      jump\t// out\n        /* \"#utility.yul\":6709:7075   */\n    tag_367:\n        /* \"#utility.yul\":6851:6854   */\n      0x00\n        /* \"#utility.yul\":6872:6939   */\n      tag_369\n        /* \"#utility.yul\":6936:6938   */\n      0x15\n        /* \"#utility.yul\":6931:6934   */\n      dup4\n        /* \"#utility.yul\":6872:6939   */\n      tag_330\n      jump\t// in\n    tag_369:\n        /* \"#utility.yul\":6865:6939   */\n      swap2\n      pop\n        /* \"#utility.yul\":6948:7041   */\n      tag_370\n        /* \"#utility.yul\":7037:7040   */\n      dup3\n        /* \"#utility.yul\":6948:7041   */\n      tag_371\n      jump\t// in\n    tag_370:\n        /* \"#utility.yul\":7066:7068   */\n      0x20\n        /* \"#utility.yul\":7061:7064   */\n      dup3\n        /* \"#utility.yul\":7057:7069   */\n      add\n        /* \"#utility.yul\":7050:7069   */\n      swap1\n      pop\n        /* \"#utility.yul\":6709:7075   */\n      swap2\n      swap1\n      pop\n      jump\t// out\n        /* \"#utility.yul\":7081:7199   */\n    tag_372:\n        /* \"#utility.yul\":7168:7192   */\n      tag_374\n        /* \"#utility.yul\":7186:7191   */\n      dup2\n        /* \"#utility.yul\":7168:7192   */\n      tag_375\n      jump\t// in\n    tag_374:\n        /* \"#utility.yul\":7163:7166   */\n      dup3\n        /* \"#utility.yul\":7156:7193   */\n      mstore\n        /* \"#utility.yul\":7081:7199   */\n      pop\n      pop\n      jump\t// out\n        /* \"#utility.yul\":7205:7362   */\n    tag_376:\n        /* \"#utility.yul\":7310:7355   */\n      tag_378\n        /* \"#utility.yul\":7330:7354   */\n      tag_379\n        /* \"#utility.yul\":7348:7353   */\n      dup3\n        /* \"#utility.yul\":7330:7354   */\n      tag_375\n      jump\t// in\n    tag_379:\n        /* \"#utility.yul\":7310:7355   */\n      tag_380\n      jump\t// in\n    tag_378:\n        /* \"#utility.yul\":7305:7308   */\n      dup3\n        /* \"#utility.yul\":7298:7356   */\n      mstore\n        /* \"#utility.yul\":7205:7362   */\n      pop\n      pop\n      jump\t// out\n        /* \"#utility.yul\":7368:7483   */\n    tag_381:\n        /* \"#utility.yul\":7453:7476   */\n      tag_383\n        /* \"#utility.yul\":7470:7475   */\n      dup2\n        /* \"#utility.yul\":7453:7476   */\n      tag_384\n      jump\t// in\n    tag_383:\n        /* \"#utility.yul\":7448:7451   */\n      dup3\n        /* \"#utility.yul\":7441:7477   */\n      mstore\n        /* \"#utility.yul\":7368:7483   */\n      pop\n      pop\n      jump\t// out\n        /* \"#utility.yul\":7489:8027   */\n    tag_149:\n        /* \"#utility.yul\":7657:7660   */\n      0x00\n        /* \"#utility.yul\":7672:7747   */\n      tag_386\n        /* \"#utility.yul\":7743:7746   */\n      dup3\n        /* \"#utility.yul\":7734:7740   */\n      dup7\n        /* \"#utility.yul\":7672:7747   */\n      tag_376\n      jump\t// in\n    tag_386:\n        /* \"#utility.yul\":7772:7774   */\n      0x20\n        /* \"#utility.yul\":7767:7770   */\n      dup3\n        /* \"#utility.yul\":7763:7775   */\n      add\n        /* \"#utility.yul\":7756:7775   */\n      swap2\n      pop\n        /* \"#utility.yul\":7785:7860   */\n      tag_387\n        /* \"#utility.yul\":7856:7859   */\n      dup3\n        /* \"#utility.yul\":7847:7853   */\n      dup6\n        /* \"#utility.yul\":7785:7860   */\n      tag_376\n      jump\t// in\n    tag_387:\n        /* \"#utility.yul\":7885:7887   */\n      0x20\n        /* \"#utility.yul\":7880:7883   */\n      dup3\n        /* \"#utility.yul\":7876:7888   */\n      add\n        /* \"#utility.yul\":7869:7888   */\n      swap2\n      pop\n        /* \"#utility.yul\":7898:7973   */\n      tag_388\n        /* \"#utility.yul\":7969:7972   */\n      dup3\n        /* \"#utility.yul\":7960:7966   */\n      dup5\n        /* \"#utility.yul\":7898:7973   */\n      tag_376\n      jump\t// in\n    tag_388:\n        /* \"#utility.yul\":7998:8000   */\n      0x20\n        /* \"#utility.yul\":7993:7996   */\n      dup3\n        /* \"#utility.yul\":7989:8001   */\n      add\n        /* \"#utility.yul\":7982:8001   */\n      swap2\n      pop\n        /* \"#utility.yul\":8018:8021   */\n      dup2\n        /* \"#utility.yul\":8011:8021   */\n      swap1\n      pop\n        /* \"#utility.yul\":7489:8027   */\n      swap5\n      swap4\n      pop\n      pop\n      pop\n      pop\n      jump\t// out\n        /* \"#utility.yul\":8033:8255   */\n    tag_56:\n        /* \"#utility.yul\":8126:8130   */\n      0x00\n        /* \"#utility.yul\":8164:8166   */\n      0x20\n        /* \"#utility.yul\":8153:8162   */\n      dup3\n        /* \"#utility.yul\":8149:8167   */\n      add\n        /* \"#utility.yul\":8141:8167   */\n      swap1\n      pop\n        /* \"#utility.yul\":8177:8248   */\n      tag_390\n        /* \"#utility.yul\":8245:8246   */\n      0x00\n        /* \"#utility.yul\":8234:8243   */\n      dup4\n        /* \"#utility.yul\":8230:8247   */\n      add\n        /* \"#utility.yul\":8221:8227   */\n      dup5\n        /* \"#utility.yul\":8177:8248   */\n      tag_321\n      jump\t// in\n    tag_390:\n        /* \"#utility.yul\":8033:8255   */\n      swap3\n      swap2\n      pop\n      pop\n      jump\t// out\n        /* \"#utility.yul\":8261:9527   */\n    tag_70:\n        /* \"#utility.yul\":8608:8612   */\n      0x00\n        /* \"#utility.yul\":8646:8649   */\n      0x0100\n        /* \"#utility.yul\":8635:8644   */\n      dup3\n        /* \"#utility.yul\":8631:8650   */\n      add\n        /* \"#utility.yul\":8623:8650   */\n      swap1\n      pop\n        /* \"#utility.yul\":8660:8731   */\n      tag_392\n        /* \"#utility.yul\":8728:8729   */\n      0x00\n        /* \"#utility.yul\":8717:8726   */\n      dup4\n        /* \"#utility.yul\":8713:8730   */\n      add\n        /* \"#utility.yul\":8704:8710   */\n      dup12\n        /* \"#utility.yul\":8660:8731   */\n      tag_321\n      jump\t// in\n    tag_392:\n        /* \"#utility.yul\":8778:8787   */\n      dup2\n        /* \"#utility.yul\":8772:8776   */\n      dup2\n        /* \"#utility.yul\":8768:8788   */\n      sub\n        /* \"#utility.yul\":8763:8765   */\n      0x20\n        /* \"#utility.yul\":8752:8761   */\n      dup4\n        /* \"#utility.yul\":8748:8766   */\n      add\n        /* \"#utility.yul\":8741:8789   */\n      mstore\n        /* \"#utility.yul\":8806:8884   */\n      tag_393\n        /* \"#utility.yul\":8879:8883   */\n      dup2\n        /* \"#utility.yul\":8870:8876   */\n      dup11\n        /* \"#utility.yul\":8806:8884   */\n      tag_325\n      jump\t// in\n    tag_393:\n        /* \"#utility.yul\":8798:8884   */\n      swap1\n      pop\n        /* \"#utility.yul\":8931:8940   */\n      dup2\n        /* \"#utility.yul\":8925:8929   */\n      dup2\n        /* \"#utility.yul\":8921:8941   */\n      sub\n        /* \"#utility.yul\":8916:8918   */\n      0x40\n        /* \"#utility.yul\":8905:8914   */\n      dup4\n        /* \"#utility.yul\":8901:8919   */\n      add\n        /* \"#utility.yul\":8894:8942   */\n      mstore\n        /* \"#utility.yul\":8959:9037   */\n      tag_394\n        /* \"#utility.yul\":9032:9036   */\n      dup2\n        /* \"#utility.yul\":9023:9029   */\n      dup10\n        /* \"#utility.yul\":8959:9037   */\n      tag_325\n      jump\t// in\n    tag_394:\n        /* \"#utility.yul\":8951:9037   */\n      swap1\n      pop\n        /* \"#utility.yul\":9084:9093   */\n      dup2\n        /* \"#utility.yul\":9078:9082   */\n      dup2\n        /* \"#utility.yul\":9074:9094   */\n      sub\n        /* \"#utility.yul\":9069:9071   */\n      0x60\n        /* \"#utility.yul\":9058:9067   */\n      dup4\n        /* \"#utility.yul\":9054:9072   */\n      add\n        /* \"#utility.yul\":9047:9095   */\n      mstore\n        /* \"#utility.yul\":9112:9190   */\n      tag_395\n        /* \"#utility.yul\":9185:9189   */\n      dup2\n        /* \"#utility.yul\":9176:9182   */\n      dup9\n        /* \"#utility.yul\":9112:9190   */\n      tag_325\n      jump\t// in\n    tag_395:\n        /* \"#utility.yul\":9104:9190   */\n      swap1\n      pop\n        /* \"#utility.yul\":9200:9273   */\n      tag_396\n        /* \"#utility.yul\":9268:9271   */\n      0x80\n        /* \"#utility.yul\":9257:9266   */\n      dup4\n        /* \"#utility.yul\":9253:9272   */\n      add\n        /* \"#utility.yul\":9244:9250   */\n      dup8\n        /* \"#utility.yul\":9200:9273   */\n      tag_372\n      jump\t// in\n    tag_396:\n        /* \"#utility.yul\":9283:9356   */\n      tag_397\n        /* \"#utility.yul\":9351:9354   */\n      0xa0\n        /* \"#utility.yul\":9340:9349   */\n      dup4\n        /* \"#utility.yul\":9336:9355   */\n      add\n        /* \"#utility.yul\":9327:9333   */\n      dup7\n        /* \"#utility.yul\":9283:9356   */\n      tag_372\n      jump\t// in\n    tag_397:\n        /* \"#utility.yul\":9366:9439   */\n      tag_398\n        /* \"#utility.yul\":9434:9437   */\n      0xc0\n        /* \"#utility.yul\":9423:9432   */\n      dup4\n        /* \"#utility.yul\":9419:9438   */\n      add\n        /* \"#utility.yul\":9410:9416   */\n      dup6\n        /* \"#utility.yul\":9366:9439   */\n      tag_372\n      jump\t// in\n    tag_398:\n        /* \"#utility.yul\":9449:9520   */\n      tag_399\n        /* \"#utility.yul\":9515:9518   */\n      0xe0\n        /* \"#utility.yul\":9504:9513   */\n      dup4\n        /* \"#utility.yul\":9500:9519   */\n      add\n        /* \"#utility.yul\":9491:9497   */\n      dup5\n        /* \"#utility.yul\":9449:9520   */\n      tag_381\n      jump\t// in\n    tag_399:\n        /* \"#utility.yul\":8261:9527   */\n      swap10\n      swap9\n      pop\n      pop\n      pop\n      pop\n      pop\n      pop\n      pop\n      pop\n      pop\n      jump\t// out\n        /* \"#utility.yul\":9533:9846   */\n    tag_22:\n        /* \"#utility.yul\":9646:9650   */\n      0x00\n        /* \"#utility.yul\":9684:9686   */\n      0x20\n        /* \"#utility.yul\":9673:9682   */\n      dup3\n        /* \"#utility.yul\":9669:9687   */\n      add\n        /* \"#utility.yul\":9661:9687   */\n      swap1\n      pop\n        /* \"#utility.yul\":9733:9742   */\n      dup2\n        /* \"#utility.yul\":9727:9731   */\n      dup2\n        /* \"#utility.yul\":9723:9743   */\n      sub\n        /* \"#utility.yul\":9719:9720   */\n      0x00\n        /* \"#utility.yul\":9708:9717   */\n      dup4\n        /* \"#utility.yul\":9704:9721   */\n      add\n        /* \"#utility.yul\":9697:9744   */\n      mstore\n        /* \"#utility.yul\":9761:9839   */\n      tag_401\n        /* \"#utility.yul\":9834:9838   */\n      dup2\n        /* \"#utility.yul\":9825:9831   */\n      dup5\n        /* \"#utility.yul\":9761:9839   */\n      tag_325\n      jump\t// in\n    tag_401:\n        /* \"#utility.yul\":9753:9839   */\n      swap1\n      pop\n        /* \"#utility.yul\":9533:9846   */\n      swap3\n      swap2\n      pop\n      pop\n      jump\t// out\n        /* \"#utility.yul\":9852:10571   */\n    tag_234:\n        /* \"#utility.yul\":10061:10065   */\n      0x00\n        /* \"#utility.yul\":10099:10102   */\n      0x80\n        /* \"#utility.yul\":10088:10097   */\n      dup3\n        /* \"#utility.yul\":10084:10103   */\n      add\n        /* \"#utility.yul\":10076:10103   */\n      swap1\n      pop\n        /* \"#utility.yul\":10149:10158   */\n      dup2\n        /* \"#utility.yul\":10143:10147   */\n      dup2\n        /* \"#utility.yul\":10139:10159   */\n      sub\n        /* \"#utility.yul\":10135:10136   */\n      0x00\n        /* \"#utility.yul\":10124:10133   */\n      dup4\n        /* \"#utility.yul\":10120:10137   */\n      add\n        /* \"#utility.yul\":10113:10160   */\n      mstore\n        /* \"#utility.yul\":10177:10252   */\n      tag_403\n        /* \"#utility.yul\":10247:10251   */\n      dup2\n        /* \"#utility.yul\":10238:10244   */\n      dup8\n        /* \"#utility.yul\":10177:10252   */\n      tag_335\n      jump\t// in\n    tag_403:\n        /* \"#utility.yul\":10169:10252   */\n      swap1\n      pop\n        /* \"#utility.yul\":10299:10308   */\n      dup2\n        /* \"#utility.yul\":10293:10297   */\n      dup2\n        /* \"#utility.yul\":10289:10309   */\n      sub\n        /* \"#utility.yul\":10284:10286   */\n      0x20\n        /* \"#utility.yul\":10273:10282   */\n      dup4\n        /* \"#utility.yul\":10269:10287   */\n      add\n        /* \"#utility.yul\":10262:10310   */\n      mstore\n        /* \"#utility.yul\":10327:10402   */\n      tag_404\n        /* \"#utility.yul\":10397:10401   */\n      dup2\n        /* \"#utility.yul\":10388:10394   */\n      dup7\n        /* \"#utility.yul\":10327:10402   */\n      tag_335\n      jump\t// in\n    tag_404:\n        /* \"#utility.yul\":10319:10402   */\n      swap1\n      pop\n        /* \"#utility.yul\":10412:10482   */\n      tag_405\n        /* \"#utility.yul\":10478:10480   */\n      0x40\n        /* \"#utility.yul\":10467:10476   */\n      dup4\n        /* \"#utility.yul\":10463:10481   */\n      add\n        /* \"#utility.yul\":10454:10460   */\n      dup6\n        /* \"#utility.yul\":10412:10482   */\n      tag_381\n      jump\t// in\n    tag_405:\n        /* \"#utility.yul\":10492:10564   */\n      tag_406\n        /* \"#utility.yul\":10560:10562   */\n      0x60\n        /* \"#utility.yul\":10549:10558   */\n      dup4\n        /* \"#utility.yul\":10545:10563   */\n      add\n        /* \"#utility.yul\":10536:10542   */\n      dup5\n        /* \"#utility.yul\":10492:10564   */\n      tag_372\n      jump\t// in\n    tag_406:\n        /* \"#utility.yul\":9852:10571   */\n      swap6\n      swap5\n      pop\n      pop\n      pop\n      pop\n      pop\n      jump\t// out\n        /* \"#utility.yul\":10577:10996   */\n    tag_114:\n        /* \"#utility.yul\":10743:10747   */\n      0x00\n        /* \"#utility.yul\":10781:10783   */\n      0x20\n        /* \"#utility.yul\":10770:10779   */\n      dup3\n        /* \"#utility.yul\":10766:10784   */\n      add\n        /* \"#utility.yul\":10758:10784   */\n      swap1\n      pop\n        /* \"#utility.yul\":10830:10839   */\n      dup2\n        /* \"#utility.yul\":10824:10828   */\n      dup2\n        /* \"#utility.yul\":10820:10840   */\n      sub\n        /* \"#utility.yul\":10816:10817   */\n      0x00\n        /* \"#utility.yul\":10805:10814   */\n      dup4\n        /* \"#utility.yul\":10801:10818   */\n      add\n        /* \"#utility.yul\":10794:10841   */\n      mstore\n        /* \"#utility.yul\":10858:10989   */\n      tag_408\n        /* \"#utility.yul\":10984:10988   */\n      dup2\n        /* \"#utility.yul\":10858:10989   */\n      tag_347\n      jump\t// in\n    tag_408:\n        /* \"#utility.yul\":10850:10989   */\n      swap1\n      pop\n        /* \"#utility.yul\":10577:10996   */\n      swap2\n      swap1\n      pop\n      jump\t// out\n        /* \"#utility.yul\":11002:11421   */\n    tag_244:\n        /* \"#utility.yul\":11168:11172   */\n      0x00\n        /* \"#utility.yul\":11206:11208   */\n      0x20\n        /* \"#utility.yul\":11195:11204   */\n      dup3\n        /* \"#utility.yul\":11191:11209   */\n      add\n        /* \"#utility.yul\":11183:11209   */\n      swap1\n      pop\n        /* \"#utility.yul\":11255:11264   */\n      dup2\n        /* \"#utility.yul\":11249:11253   */\n      dup2\n        /* \"#utility.yul\":11245:11265   */\n      sub\n        /* \"#utility.yul\":11241:11242   */\n      0x00\n        /* \"#utility.yul\":11230:11239   */\n      dup4\n        /* \"#utility.yul\":11226:11243   */\n      add\n        /* \"#utility.yul\":11219:11266   */\n      mstore\n        /* \"#utility.yul\":11283:11414   */\n      tag_410\n        /* \"#utility.yul\":11409:11413   */\n      dup2\n        /* \"#utility.yul\":11283:11414   */\n      tag_352\n      jump\t// in\n    tag_410:\n        /* \"#utility.yul\":11275:11414   */\n      swap1\n      pop\n        /* \"#utility.yul\":11002:11421   */\n      swap2\n      swap1\n      pop\n      jump\t// out\n        /* \"#utility.yul\":11427:11846   */\n    tag_144:\n        /* \"#utility.yul\":11593:11597   */\n      0x00\n        /* \"#utility.yul\":11631:11633   */\n      0x20\n        /* \"#utility.yul\":11620:11629   */\n      dup3\n        /* \"#utility.yul\":11616:11634   */\n      add\n        /* \"#utility.yul\":11608:11634   */\n      swap1\n      pop\n        /* \"#utility.yul\":11680:11689   */\n      dup2\n        /* \"#utility.yul\":11674:11678   */\n      dup2\n        /* \"#utility.yul\":11670:11690   */\n      sub\n        /* \"#utility.yul\":11666:11667   */\n      0x00\n        /* \"#utility.yul\":11655:11664   */\n      dup4\n        /* \"#utility.yul\":11651:11668   */\n      add\n        /* \"#utility.yul\":11644:11691   */\n      mstore\n        /* \"#utility.yul\":11708:11839   */\n      tag_412\n        /* \"#utility.yul\":11834:11838   */\n      dup2\n        /* \"#utility.yul\":11708:11839   */\n      tag_357\n      jump\t// in\n    tag_412:\n        /* \"#utility.yul\":11700:11839   */\n      swap1\n      pop\n        /* \"#utility.yul\":11427:11846   */\n      swap2\n      swap1\n      pop\n      jump\t// out\n        /* \"#utility.yul\":11852:12271   */\n    tag_107:\n        /* \"#utility.yul\":12018:12022   */\n      0x00\n        /* \"#utility.yul\":12056:12058   */\n      0x20\n        /* \"#utility.yul\":12045:12054   */\n      dup3\n        /* \"#utility.yul\":12041:12059   */\n      add\n        /* \"#utility.yul\":12033:12059   */\n      swap1\n      pop\n        /* \"#utility.yul\":12105:12114   */\n      dup2\n        /* \"#utility.yul\":12099:12103   */\n      dup2\n        /* \"#utility.yul\":12095:12115   */\n      sub\n        /* \"#utility.yul\":12091:12092   */\n      0x00\n        /* \"#utility.yul\":12080:12089   */\n      dup4\n        /* \"#utility.yul\":12076:12093   */\n      add\n        /* \"#utility.yul\":12069:12116   */\n      mstore\n        /* \"#utility.yul\":12133:12264   */\n      tag_414\n        /* \"#utility.yul\":12259:12263   */\n      dup2\n        /* \"#utility.yul\":12133:12264   */\n      tag_362\n      jump\t// in\n    tag_414:\n        /* \"#utility.yul\":12125:12264   */\n      swap1\n      pop\n        /* \"#utility.yul\":11852:12271   */\n      swap2\n      swap1\n      pop\n      jump\t// out\n        /* \"#utility.yul\":12277:12806   */\n    tag_175:\n        /* \"#utility.yul\":12471:12475   */\n      0x00\n        /* \"#utility.yul\":12509:12511   */\n      0x40\n        /* \"#utility.yul\":12498:12507   */\n      dup3\n        /* \"#utility.yul\":12494:12512   */\n      add\n        /* \"#utility.yul\":12486:12512   */\n      swap1\n      pop\n        /* \"#utility.yul\":12558:12567   */\n      dup2\n        /* \"#utility.yul\":12552:12556   */\n      dup2\n        /* \"#utility.yul\":12548:12568   */\n      sub\n        /* \"#utility.yul\":12544:12545   */\n      0x00\n        /* \"#utility.yul\":12533:12542   */\n      dup4\n        /* \"#utility.yul\":12529:12546   */\n      add\n        /* \"#utility.yul\":12522:12569   */\n      mstore\n        /* \"#utility.yul\":12586:12717   */\n      tag_416\n        /* \"#utility.yul\":12712:12716   */\n      dup2\n        /* \"#utility.yul\":12586:12717   */\n      tag_367\n      jump\t// in\n    tag_416:\n        /* \"#utility.yul\":12578:12717   */\n      swap1\n      pop\n        /* \"#utility.yul\":12727:12799   */\n      tag_417\n        /* \"#utility.yul\":12795:12797   */\n      0x20\n        /* \"#utility.yul\":12784:12793   */\n      dup4\n        /* \"#utility.yul\":12780:12798   */\n      add\n        /* \"#utility.yul\":12771:12777   */\n      dup5\n        /* \"#utility.yul\":12727:12799   */\n      tag_372\n      jump\t// in\n    tag_417:\n        /* \"#utility.yul\":12277:12806   */\n      swap3\n      swap2\n      pop\n      pop\n      jump\t// out\n        /* \"#utility.yul\":12812:13034   */\n    tag_32:\n        /* \"#utility.yul\":12905:12909   */\n      0x00\n        /* \"#utility.yul\":12943:12945   */\n      0x20\n        /* \"#utility.yul\":12932:12941   */\n      dup3\n        /* \"#utility.yul\":12928:12946   */\n      add\n        /* \"#utility.yul\":12920:12946   */\n      swap1\n      pop\n        /* \"#utility.yul\":12956:13027   */\n      tag_419\n        /* \"#utility.yul\":13024:13025   */\n      0x00\n        /* \"#utility.yul\":13013:13022   */\n      dup4\n        /* \"#utility.yul\":13009:13026   */\n      add\n        /* \"#utility.yul\":13000:13006   */\n      dup5\n        /* \"#utility.yul\":12956:13027   */\n      tag_372\n      jump\t// in\n    tag_419:\n        /* \"#utility.yul\":12812:13034   */\n      swap3\n      swap2\n      pop\n      pop\n      jump\t// out\n        /* \"#utility.yul\":13040:13169   */\n    tag_269:\n        /* \"#utility.yul\":13074:13080   */\n      0x00\n        /* \"#utility.yul\":13101:13121   */\n      tag_421\n      tag_422\n      jump\t// in\n    tag_421:\n        /* \"#utility.yul\":13091:13121   */\n      swap1\n      pop\n        /* \"#utility.yul\":13130:13163   */\n      tag_423\n        /* \"#utility.yul\":13158:13162   */\n      dup3\n        /* \"#utility.yul\":13150:13156   */\n      dup3\n        /* \"#utility.yul\":13130:13163   */\n      tag_424\n      jump\t// in\n    tag_423:\n        /* \"#utility.yul\":13040:13169   */\n      swap2\n      swap1\n      pop\n      jump\t// out\n        /* \"#utility.yul\":13175:13250   */\n    tag_422:\n        /* \"#utility.yul\":13208:13214   */\n      0x00\n        /* \"#utility.yul\":13241:13243   */\n      0x40\n        /* \"#utility.yul\":13235:13244   */\n      mload\n        /* \"#utility.yul\":13225:13244   */\n      swap1\n      pop\n        /* \"#utility.yul\":13175:13250   */\n      swap1\n      jump\t// out\n        /* \"#utility.yul\":13256:13564   */\n    tag_268:\n        /* \"#utility.yul\":13318:13322   */\n      0x00\n        /* \"#utility.yul\":13408:13426   */\n      0xffffffffffffffff\n        /* \"#utility.yul\":13400:13406   */\n      dup3\n        /* \"#utility.yul\":13397:13427   */\n      gt\n        /* \"#utility.yul\":13394:13450   */\n      iszero\n      tag_427\n      jumpi\n        /* \"#utility.yul\":13430:13448   */\n      tag_428\n      tag_429\n      jump\t// in\n    tag_428:\n        /* \"#utility.yul\":13394:13450   */\n    tag_427:\n        /* \"#utility.yul\":13468:13497   */\n      tag_430\n        /* \"#utility.yul\":13490:13496   */\n      dup3\n        /* \"#utility.yul\":13468:13497   */\n      tag_334\n      jump\t// in\n    tag_430:\n        /* \"#utility.yul\":13460:13497   */\n      swap1\n      pop\n        /* \"#utility.yul\":13552:13556   */\n      0x20\n        /* \"#utility.yul\":13546:13550   */\n      dup2\n        /* \"#utility.yul\":13542:13557   */\n      add\n        /* \"#utility.yul\":13534:13557   */\n      swap1\n      pop\n        /* \"#utility.yul\":13256:13564   */\n      swap2\n      swap1\n      pop\n      jump\t// out\n        /* \"#utility.yul\":13570:13711   */\n    tag_343:\n        /* \"#utility.yul\":13619:13623   */\n      0x00\n        /* \"#utility.yul\":13642:13645   */\n      dup2\n        /* \"#utility.yul\":13634:13645   */\n      swap1\n      pop\n        /* \"#utility.yul\":13665:13668   */\n      dup2\n        /* \"#utility.yul\":13662:13663   */\n      0x00\n        /* \"#utility.yul\":13655:13669   */\n      mstore\n        /* \"#utility.yul\":13699:13703   */\n      0x20\n        /* \"#utility.yul\":13696:13697   */\n      0x00\n        /* \"#utility.yul\":13686:13704   */\n      keccak256\n        /* \"#utility.yul\":13678:13704   */\n      swap1\n      pop\n        /* \"#utility.yul\":13570:13711   */\n      swap2\n      swap1\n      pop\n      jump\t// out\n        /* \"#utility.yul\":13717:13816   */\n    tag_328:\n        /* \"#utility.yul\":13769:13775   */\n      0x00\n        /* \"#utility.yul\":13803:13808   */\n      dup2\n        /* \"#utility.yul\":13797:13809   */\n      mload\n        /* \"#utility.yul\":13787:13809   */\n      swap1\n      pop\n        /* \"#utility.yul\":13717:13816   */\n      swap2\n      swap1\n      pop\n      jump\t// out\n        /* \"#utility.yul\":13822:13991   */\n    tag_330:\n        /* \"#utility.yul\":13906:13917   */\n      0x00\n        /* \"#utility.yul\":13940:13946   */\n      dup3\n        /* \"#utility.yul\":13935:13938   */\n      dup3\n        /* \"#utility.yul\":13928:13947   */\n      mstore\n        /* \"#utility.yul\":13980:13984   */\n      0x20\n        /* \"#utility.yul\":13975:13978   */\n      dup3\n        /* \"#utility.yul\":13971:13985   */\n      add\n        /* \"#utility.yul\":13956:13985   */\n      swap1\n      pop\n        /* \"#utility.yul\":13822:13991   */\n      swap3\n      swap2\n      pop\n      pop\n      jump\t// out\n        /* \"#utility.yul\":13997:14302   */\n    tag_117:\n        /* \"#utility.yul\":14037:14040   */\n      0x00\n        /* \"#utility.yul\":14056:14076   */\n      tag_435\n        /* \"#utility.yul\":14074:14075   */\n      dup3\n        /* \"#utility.yul\":14056:14076   */\n      tag_375\n      jump\t// in\n    tag_435:\n        /* \"#utility.yul\":14051:14076   */\n      swap2\n      pop\n        /* \"#utility.yul\":14090:14110   */\n      tag_436\n        /* \"#utility.yul\":14108:14109   */\n      dup4\n        /* \"#utility.yul\":14090:14110   */\n      tag_375\n      jump\t// in\n    tag_436:\n        /* \"#utility.yul\":14085:14110   */\n      swap3\n      pop\n        /* \"#utility.yul\":14244:14245   */\n      dup3\n        /* \"#utility.yul\":14176:14242   */\n      0xffffffffffffffffffffffffffffffffffffffffffffffffffffffffffffffff\n        /* \"#utility.yul\":14172:14246   */\n      sub\n        /* \"#utility.yul\":14169:14170   */\n      dup3\n        /* \"#utility.yul\":14166:14247   */\n      gt\n        /* \"#utility.yul\":14163:14270   */\n      iszero\n      tag_437\n      jumpi\n        /* \"#utility.yul\":14250:14268   */\n      tag_438\n      tag_439\n      jump\t// in\n    tag_438:\n        /* \"#utility.yul\":14163:14270   */\n    tag_437:\n        /* \"#utility.yul\":14294:14295   */\n      dup3\n        /* \"#utility.yul\":14291:14292   */\n      dup3\n        /* \"#utility.yul\":14287:14296   */\n      add\n        /* \"#utility.yul\":14280:14296   */\n      swap1\n      pop\n        /* \"#utility.yul\":13997:14302   */\n      swap3\n      swap2\n      pop\n      pop\n      jump\t// out\n        /* \"#utility.yul\":14308:14499   */\n    tag_125:\n        /* \"#utility.yul\":14348:14352   */\n      0x00\n        /* \"#utility.yul\":14368:14388   */\n      tag_441\n        /* \"#utility.yul\":14386:14387   */\n      dup3\n        /* \"#utility.yul\":14368:14388   */\n      tag_375\n      jump\t// in\n    tag_441:\n        /* \"#utility.yul\":14363:14388   */\n      swap2\n      pop\n        /* \"#utility.yul\":14402:14422   */\n      tag_442\n        /* \"#utility.yul\":14420:14421   */\n      dup4\n        /* \"#utility.yul\":14402:14422   */\n      tag_375\n      jump\t// in\n    tag_442:\n        /* \"#utility.yul\":14397:14422   */\n      swap3\n      pop\n        /* \"#utility.yul\":14441:14442   */\n      dup3\n        /* \"#utility.yul\":14438:14439   */\n      dup3\n        /* \"#utility.yul\":14435:14443   */\n      lt\n        /* \"#utility.yul\":14432:14466   */\n      iszero\n      tag_443\n      jumpi\n        /* \"#utility.yul\":14446:14464   */\n      tag_444\n      tag_439\n      jump\t// in\n    tag_444:\n        /* \"#utility.yul\":14432:14466   */\n    tag_443:\n        /* \"#utility.yul\":14491:14492   */\n      dup3\n        /* \"#utility.yul\":14488:14489   */\n      dup3\n        /* \"#utility.yul\":14484:14493   */\n      sub\n        /* \"#utility.yul\":14476:14493   */\n      swap1\n      pop\n        /* \"#utility.yul\":14308:14499   */\n      swap3\n      swap2\n      pop\n      pop\n      jump\t// out\n        /* \"#utility.yul\":14505:14601   */\n    tag_324:\n        /* \"#utility.yul\":14542:14549   */\n      0x00\n        /* \"#utility.yul\":14571:14595   */\n      tag_446\n        /* \"#utility.yul\":14589:14594   */\n      dup3\n        /* \"#utility.yul\":14571:14595   */\n      tag_447\n      jump\t// in\n    tag_446:\n        /* \"#utility.yul\":14560:14595   */\n      swap1\n      pop\n        /* \"#utility.yul\":14505:14601   */\n      swap2\n      swap1\n      pop\n      jump\t// out\n        /* \"#utility.yul\":14607:14733   */\n    tag_447:\n        /* \"#utility.yul\":14644:14651   */\n      0x00\n        /* \"#utility.yul\":14684:14726   */\n      0xffffffffffffffffffffffffffffffffffffffff\n        /* \"#utility.yul\":14677:14682   */\n      dup3\n        /* \"#utility.yul\":14673:14727   */\n      and\n        /* \"#utility.yul\":14662:14727   */\n      swap1\n      pop\n        /* \"#utility.yul\":14607:14733   */\n      swap2\n      swap1\n      pop\n      jump\t// out\n        /* \"#utility.yul\":14739:14816   */\n    tag_375:\n        /* \"#utility.yul\":14776:14783   */\n      0x00\n        /* \"#utility.yul\":14805:14810   */\n      dup2\n        /* \"#utility.yul\":14794:14810   */\n      swap1\n      pop\n        /* \"#utility.yul\":14739:14816   */\n      swap2\n      swap1\n      pop\n      jump\t// out\n        /* \"#utility.yul\":14822:14915   */\n    tag_384:\n        /* \"#utility.yul\":14858:14865   */\n      0x00\n        /* \"#utility.yul\":14898:14908   */\n      0xffffffff\n        /* \"#utility.yul\":14891:14896   */\n      dup3\n        /* \"#utility.yul\":14887:14909   */\n      and\n        /* \"#utility.yul\":14876:14909   */\n      swap1\n      pop\n        /* \"#utility.yul\":14822:14915   */\n      swap2\n      swap1\n      pop\n      jump\t// out\n        /* \"#utility.yul\":14921:15075   */\n    tag_274:\n        /* \"#utility.yul\":15005:15011   */\n      dup3\n        /* \"#utility.yul\":15000:15003   */\n      dup2\n        /* \"#utility.yul\":14995:14998   */\n      dup4\n        /* \"#utility.yul\":14982:15012   */\n      calldatacopy\n        /* \"#utility.yul\":15067:15068   */\n      0x00\n        /* \"#utility.yul\":15058:15064   */\n      dup4\n        /* \"#utility.yul\":15053:15056   */\n      dup4\n        /* \"#utility.yul\":15049:15065   */\n      add\n        /* \"#utility.yul\":15042:15069   */\n      mstore\n        /* \"#utility.yul\":14921:15075   */\n      pop\n      pop\n      pop\n      jump\t// out\n        /* \"#utility.yul\":15081:15388   */\n    tag_332:\n        /* \"#utility.yul\":15149:15150   */\n      0x00\n        /* \"#utility.yul\":15159:15272   */\n    tag_453:\n        /* \"#utility.yul\":15173:15179   */\n      dup4\n        /* \"#utility.yul\":15170:15171   */\n      dup2\n        /* \"#utility.yul\":15167:15180   */\n      lt\n        /* \"#utility.yul\":15159:15272   */\n      iszero\n      tag_455\n      jumpi\n        /* \"#utility.yul\":15258:15259   */\n      dup1\n        /* \"#utility.yul\":15253:15256   */\n      dup3\n        /* \"#utility.yul\":15249:15260   */\n      add\n        /* \"#utility.yul\":15243:15261   */\n      mload\n        /* \"#utility.yul\":15239:15240   */\n      dup2\n        /* \"#utility.yul\":15234:15237   */\n      dup5\n        /* \"#utility.yul\":15230:15241   */\n      add\n        /* \"#utility.yul\":15223:15262   */\n      mstore\n        /* \"#utility.yul\":15195:15197   */\n      0x20\n        /* \"#utility.yul\":15192:15193   */\n      dup2\n        /* \"#utility.yul\":15188:15198   */\n      add\n        /* \"#utility.yul\":15183:15198   */\n      swap1\n      pop\n        /* \"#utility.yul\":15159:15272   */\n      jump(tag_453)\n    tag_455:\n        /* \"#utility.yul\":15290:15296   */\n      dup4\n        /* \"#utility.yul\":15287:15288   */\n      dup2\n        /* \"#utility.yul\":15284:15297   */\n      gt\n        /* \"#utility.yul\":15281:15382   */\n      iszero\n      tag_456\n      jumpi\n        /* \"#utility.yul\":15370:15371   */\n      0x00\n        /* \"#utility.yul\":15361:15367   */\n      dup5\n        /* \"#utility.yul\":15356:15359   */\n      dup5\n        /* \"#utility.yul\":15352:15368   */\n      add\n        /* \"#utility.yul\":15345:15372   */\n      mstore\n        /* \"#utility.yul\":15281:15382   */\n    tag_456:\n        /* \"#utility.yul\":15130:15388   */\n      pop\n        /* \"#utility.yul\":15081:15388   */\n      pop\n      pop\n      pop\n      jump\t// out\n        /* \"#utility.yul\":15394:15714   */\n    tag_198:\n        /* \"#utility.yul\":15438:15444   */\n      0x00\n        /* \"#utility.yul\":15475:15476   */\n      0x02\n        /* \"#utility.yul\":15469:15473   */\n      dup3\n        /* \"#utility.yul\":15465:15477   */\n      div\n        /* \"#utility.yul\":15455:15477   */\n      swap1\n      pop\n        /* \"#utility.yul\":15522:15523   */\n      0x01\n        /* \"#utility.yul\":15516:15520   */\n      dup3\n        /* \"#utility.yul\":15512:15524   */\n      and\n        /* \"#utility.yul\":15543:15561   */\n      dup1\n        /* \"#utility.yul\":15533:15614   */\n      tag_458\n      jumpi\n        /* \"#utility.yul\":15599:15603   */\n      0x7f\n        /* \"#utility.yul\":15591:15597   */\n      dup3\n        /* \"#utility.yul\":15587:15604   */\n      and\n        /* \"#utility.yul\":15577:15604   */\n      swap2\n      pop\n        /* \"#utility.yul\":15533:15614   */\n    tag_458:\n        /* \"#utility.yul\":15661:15663   */\n      0x20\n        /* \"#utility.yul\":15653:15659   */\n      dup3\n        /* \"#utility.yul\":15650:15664   */\n      lt\n        /* \"#utility.yul\":15630:15648   */\n      dup2\n        /* \"#utility.yul\":15627:15665   */\n      eq\n        /* \"#utility.yul\":15624:15708   */\n      iszero\n      tag_459\n      jumpi\n        /* \"#utility.yul\":15680:15698   */\n      tag_460\n      tag_461\n      jump\t// in\n    tag_460:\n        /* \"#utility.yul\":15624:15708   */\n    tag_459:\n        /* \"#utility.yul\":15445:15714   */\n      pop\n        /* \"#utility.yul\":15394:15714   */\n      swap2\n      swap1\n      pop\n      jump\t// out\n        /* \"#utility.yul\":15720:16001   */\n    tag_424:\n        /* \"#utility.yul\":15803:15830   */\n      tag_463\n        /* \"#utility.yul\":15825:15829   */\n      dup3\n        /* \"#utility.yul\":15803:15830   */\n      tag_334\n      jump\t// in\n    tag_463:\n        /* \"#utility.yul\":15795:15801   */\n      dup2\n        /* \"#utility.yul\":15791:15831   */\n      add\n        /* \"#utility.yul\":15933:15939   */\n      dup2\n        /* \"#utility.yul\":15921:15931   */\n      dup2\n        /* \"#utility.yul\":15918:15940   */\n      lt\n        /* \"#utility.yul\":15897:15915   */\n      0xffffffffffffffff\n        /* \"#utility.yul\":15885:15895   */\n      dup3\n        /* \"#utility.yul\":15882:15916   */\n      gt\n        /* \"#utility.yul\":15879:15941   */\n      or\n        /* \"#utility.yul\":15876:15964   */\n      iszero\n      tag_464\n      jumpi\n        /* \"#utility.yul\":15944:15962   */\n      tag_465\n      tag_429\n      jump\t// in\n    tag_465:\n        /* \"#utility.yul\":15876:15964   */\n    tag_464:\n        /* \"#utility.yul\":15984:15994   */\n      dup1\n        /* \"#utility.yul\":15980:15982   */\n      0x40\n        /* \"#utility.yul\":15973:15995   */\n      mstore\n        /* \"#utility.yul\":15763:16001   */\n      pop\n        /* \"#utility.yul\":15720:16001   */\n      pop\n      pop\n      jump\t// out\n        /* \"#utility.yul\":16007:16240   */\n    tag_100:\n        /* \"#utility.yul\":16046:16049   */\n      0x00\n        /* \"#utility.yul\":16069:16093   */\n      tag_467\n        /* \"#utility.yul\":16087:16092   */\n      dup3\n        /* \"#utility.yul\":16069:16093   */\n      tag_375\n      jump\t// in\n    tag_467:\n        /* \"#utility.yul\":16060:16093   */\n      swap2\n      pop\n        /* \"#utility.yul\":16115:16181   */\n      0xffffffffffffffffffffffffffffffffffffffffffffffffffffffffffffffff\n        /* \"#utility.yul\":16108:16113   */\n      dup3\n        /* \"#utility.yul\":16105:16182   */\n      eq\n        /* \"#utility.yul\":16102:16205   */\n      iszero\n      tag_468\n      jumpi\n        /* \"#utility.yul\":16185:16203   */\n      tag_469\n      tag_439\n      jump\t// in\n    tag_469:\n        /* \"#utility.yul\":16102:16205   */\n    tag_468:\n        /* \"#utility.yul\":16232:16233   */\n      0x01\n        /* \"#utility.yul\":16225:16230   */\n      dup3\n        /* \"#utility.yul\":16221:16234   */\n      add\n        /* \"#utility.yul\":16214:16234   */\n      swap1\n      pop\n        /* \"#utility.yul\":16007:16240   */\n      swap2\n      swap1\n      pop\n      jump\t// out\n        /* \"#utility.yul\":16246:16421   */\n    tag_139:\n        /* \"#utility.yul\":16284:16287   */\n      0x00\n        /* \"#utility.yul\":16307:16330   */\n      tag_471\n        /* \"#utility.yul\":16324:16329   */\n      dup3\n        /* \"#utility.yul\":16307:16330   */\n      tag_384\n      jump\t// in\n    tag_471:\n        /* \"#utility.yul\":16298:16330   */\n      swap2\n      pop\n        /* \"#utility.yul\":16352:16362   */\n      0xffffffff\n        /* \"#utility.yul\":16345:16350   */\n      dup3\n        /* \"#utility.yul\":16342:16363   */\n      eq\n        /* \"#utility.yul\":16339:16386   */\n      iszero\n      tag_472\n      jumpi\n        /* \"#utility.yul\":16366:16384   */\n      tag_473\n      tag_439\n      jump\t// in\n    tag_473:\n        /* \"#utility.yul\":16339:16386   */\n    tag_472:\n        /* \"#utility.yul\":16413:16414   */\n      0x01\n        /* \"#utility.yul\":16406:16411   */\n      dup3\n        /* \"#utility.yul\":16402:16415   */\n      add\n        /* \"#utility.yul\":16395:16415   */\n      swap1\n      pop\n        /* \"#utility.yul\":16246:16421   */\n      swap2\n      swap1\n      pop\n      jump\t// out\n        /* \"#utility.yul\":16427:16506   */\n    tag_380:\n        /* \"#utility.yul\":16466:16473   */\n      0x00\n        /* \"#utility.yul\":16495:16500   */\n      dup2\n        /* \"#utility.yul\":16484:16500   */\n      swap1\n      pop\n        /* \"#utility.yul\":16427:16506   */\n      swap2\n      swap1\n      pop\n      jump\t// out\n        /* \"#utility.yul\":16512:16688   */\n    tag_151:\n        /* \"#utility.yul\":16544:16545   */\n      0x00\n        /* \"#utility.yul\":16561:16581   */\n      tag_476\n        /* \"#utility.yul\":16579:16580   */\n      dup3\n        /* \"#utility.yul\":16561:16581   */\n      tag_375\n      jump\t// in\n    tag_476:\n        /* \"#utility.yul\":16556:16581   */\n      swap2\n      pop\n        /* \"#utility.yul\":16595:16615   */\n      tag_477\n        /* \"#utility.yul\":16613:16614   */\n      dup4\n        /* \"#utility.yul\":16595:16615   */\n      tag_375\n      jump\t// in\n    tag_477:\n        /* \"#utility.yul\":16590:16615   */\n      swap3\n      pop\n        /* \"#utility.yul\":16634:16635   */\n      dup3\n        /* \"#utility.yul\":16624:16659   */\n      tag_478\n      jumpi\n        /* \"#utility.yul\":16639:16657   */\n      tag_479\n      tag_480\n      jump\t// in\n    tag_479:\n        /* \"#utility.yul\":16624:16659   */\n    tag_478:\n        /* \"#utility.yul\":16680:16681   */\n      dup3\n        /* \"#utility.yul\":16677:16678   */\n      dup3\n        /* \"#utility.yul\":16673:16682   */\n      mod\n        /* \"#utility.yul\":16668:16682   */\n      swap1\n      pop\n        /* \"#utility.yul\":16512:16688   */\n      swap3\n      swap2\n      pop\n      pop\n      jump\t// out\n        /* \"#utility.yul\":16694:16874   */\n    tag_439:\n        /* \"#utility.yul\":16742:16819   */\n      0x4e487b7100000000000000000000000000000000000000000000000000000000\n        /* \"#utility.yul\":16739:16740   */\n      0x00\n        /* \"#utility.yul\":16732:16820   */\n      mstore\n        /* \"#utility.yul\":16839:16843   */\n      0x11\n        /* \"#utility.yul\":16836:16837   */\n      0x04\n        /* \"#utility.yul\":16829:16844   */\n      mstore\n        /* \"#utility.yul\":16863:16867   */\n      0x24\n        /* \"#utility.yul\":16860:16861   */\n      0x00\n        /* \"#utility.yul\":16853:16868   */\n      revert\n        /* \"#utility.yul\":16880:17060   */\n    tag_480:\n        /* \"#utility.yul\":16928:17005   */\n      0x4e487b7100000000000000000000000000000000000000000000000000000000\n        /* \"#utility.yul\":16925:16926   */\n      0x00\n        /* \"#utility.yul\":16918:17006   */\n      mstore\n        /* \"#utility.yul\":17025:17029   */\n      0x12\n        /* \"#utility.yul\":17022:17023   */\n      0x04\n        /* \"#utility.yul\":17015:17030   */\n      mstore\n        /* \"#utility.yul\":17049:17053   */\n      0x24\n        /* \"#utility.yul\":17046:17047   */\n      0x00\n        /* \"#utility.yul\":17039:17054   */\n      revert\n        /* \"#utility.yul\":17066:17246   */\n    tag_461:\n        /* \"#utility.yul\":17114:17191   */\n      0x4e487b7100000000000000000000000000000000000000000000000000000000\n        /* \"#utility.yul\":17111:17112   */\n      0x00\n        /* \"#utility.yul\":17104:17192   */\n      mstore\n        /* \"#utility.yul\":17211:17215   */\n      0x22\n        /* \"#utility.yul\":17208:17209   */\n      0x04\n        /* \"#utility.yul\":17201:17216   */\n      mstore\n        /* \"#utility.yul\":17235:17239   */\n      0x24\n        /* \"#utility.yul\":17232:17233   */\n      0x00\n        /* \"#utility.yul\":17225:17240   */\n      revert\n        /* \"#utility.yul\":17252:17432   */\n    tag_87:\n        /* \"#utility.yul\":17300:17377   */\n      0x4e487b7100000000000000000000000000000000000000000000000000000000\n        /* \"#utility.yul\":17297:17298   */\n      0x00\n        /* \"#utility.yul\":17290:17378   */\n      mstore\n        /* \"#utility.yul\":17397:17401   */\n      0x32\n        /* \"#utility.yul\":17394:17395   */\n      0x04\n        /* \"#utility.yul\":17387:17402   */\n      mstore\n        /* \"#utility.yul\":17421:17425   */\n      0x24\n        /* \"#utility.yul\":17418:17419   */\n      0x00\n        /* \"#utility.yul\":17411:17426   */\n      revert\n        /* \"#utility.yul\":17438:17618   */\n    tag_429:\n        /* \"#utility.yul\":17486:17563   */\n      0x4e487b7100000000000000000000000000000000000000000000000000000000\n        /* \"#utility.yul\":17483:17484   */\n      0x00\n        /* \"#utility.yul\":17476:17564   */\n      mstore\n        /* \"#utility.yul\":17583:17587   */\n      0x41\n        /* \"#utility.yul\":17580:17581   */\n      0x04\n        /* \"#utility.yul\":17573:17588   */\n      mstore\n        /* \"#utility.yul\":17607:17611   */\n      0x24\n        /* \"#utility.yul\":17604:17605   */\n      0x00\n        /* \"#utility.yul\":17597:17612   */\n      revert\n        /* \"#utility.yul\":17624:17741   */\n    tag_283:\n        /* \"#utility.yul\":17733:17734   */\n      0x00\n        /* \"#utility.yul\":17730:17731   */\n      dup1\n        /* \"#utility.yul\":17723:17735   */\n      revert\n        /* \"#utility.yul\":17747:17864   */\n    tag_272:\n        /* \"#utility.yul\":17856:17857   */\n      0x00\n        /* \"#utility.yul\":17853:17854   */\n      dup1\n        /* \"#utility.yul\":17846:17858   */\n      revert\n        /* \"#utility.yul\":17870:17987   */\n    tag_300:\n        /* \"#utility.yul\":17979:17980   */\n      0x00\n        /* \"#utility.yul\":17976:17977   */\n      dup1\n        /* \"#utility.yul\":17969:17981   */\n      revert\n        /* \"#utility.yul\":17993:18110   */\n    tag_292:\n        /* \"#utility.yul\":18102:18103   */\n      0x00\n        /* \"#utility.yul\":18099:18100   */\n      dup1\n        /* \"#utility.yul\":18092:18104   */\n      revert\n        /* \"#utility.yul\":18116:18218   */\n    tag_334:\n        /* \"#utility.yul\":18157:18163   */\n      0x00\n        /* \"#utility.yul\":18208:18210   */\n      0x1f\n        /* \"#utility.yul\":18204:18211   */\n      not\n        /* \"#utility.yul\":18199:18201   */\n      0x1f\n        /* \"#utility.yul\":18192:18197   */\n      dup4\n        /* \"#utility.yul\":18188:18202   */\n      add\n        /* \"#utility.yul\":18184:18212   */\n      and\n        /* \"#utility.yul\":18174:18212   */\n      swap1\n      pop\n        /* \"#utility.yul\":18116:18218   */\n      swap2\n      swap1\n      pop\n      jump\t// out\n        /* \"#utility.yul\":18224:18451   */\n    tag_351:\n        /* \"#utility.yul\":18364:18398   */\n      0x536f6c6f2073652070756564652074656e657220756e20636f63686520706f72\n        /* \"#utility.yul\":18360:18361   */\n      0x00\n        /* \"#utility.yul\":18352:18358   */\n      dup3\n        /* \"#utility.yul\":18348:18362   */\n      add\n        /* \"#utility.yul\":18341:18399   */\n      mstore\n        /* \"#utility.yul\":18433:18443   */\n      0x20706572736f6e61000000000000000000000000000000000000000000000000\n        /* \"#utility.yul\":18428:18430   */\n      0x20\n        /* \"#utility.yul\":18420:18426   */\n      dup3\n        /* \"#utility.yul\":18416:18431   */\n      add\n        /* \"#utility.yul\":18409:18444   */\n      mstore\n        /* \"#utility.yul\":18224:18451   */\n      pop\n      jump\t// out\n        /* \"#utility.yul\":18457:18682   */\n    tag_356:\n        /* \"#utility.yul\":18597:18631   */\n      0x4f776e61626c653a206e6577206f776e657220697320746865207a65726f2061\n        /* \"#utility.yul\":18593:18594   */\n      0x00\n        /* \"#utility.yul\":18585:18591   */\n      dup3\n        /* \"#utility.yul\":18581:18595   */\n      add\n        /* \"#utility.yul\":18574:18632   */\n      mstore\n        /* \"#utility.yul\":18666:18674   */\n      0x6464726573730000000000000000000000000000000000000000000000000000\n        /* \"#utility.yul\":18661:18663   */\n      0x20\n        /* \"#utility.yul\":18653:18659   */\n      dup3\n        /* \"#utility.yul\":18649:18664   */\n      add\n        /* \"#utility.yul\":18642:18675   */\n      mstore\n        /* \"#utility.yul\":18457:18682   */\n      pop\n      jump\t// out\n        /* \"#utility.yul\":18688:18925   */\n    tag_361:\n        /* \"#utility.yul\":18828:18862   */\n      0x4e6f2068617920636f6368657320737566696369656e74657320706172612069\n        /* \"#utility.yul\":18824:18825   */\n      0x00\n        /* \"#utility.yul\":18816:18822   */\n      dup3\n        /* \"#utility.yul\":18812:18826   */\n      add\n        /* \"#utility.yul\":18805:18863   */\n      mstore\n        /* \"#utility.yul\":18897:18917   */\n      0x6e696369617220756e6120636172726572610000000000000000000000000000\n        /* \"#utility.yul\":18892:18894   */\n      0x20\n        /* \"#utility.yul\":18884:18890   */\n      dup3\n        /* \"#utility.yul\":18880:18895   */\n      add\n        /* \"#utility.yul\":18873:18918   */\n      mstore\n        /* \"#utility.yul\":18688:18925   */\n      pop\n      jump\t// out\n        /* \"#utility.yul\":18931:19113   */\n    tag_366:\n        /* \"#utility.yul\":19071:19105   */\n      0x4f776e61626c653a2063616c6c6572206973206e6f7420746865206f776e6572\n        /* \"#utility.yul\":19067:19068   */\n      0x00\n        /* \"#utility.yul\":19059:19065   */\n      dup3\n        /* \"#utility.yul\":19055:19069   */\n      add\n        /* \"#utility.yul\":19048:19106   */\n      mstore\n        /* \"#utility.yul\":18931:19113   */\n      pop\n      jump\t// out\n        /* \"#utility.yul\":19119:19290   */\n    tag_371:\n        /* \"#utility.yul\":19259:19282   */\n      0x456c20636f6368652067616e61646f722065733a200000000000000000000000\n        /* \"#utility.yul\":19255:19256   */\n      0x00\n        /* \"#utility.yul\":19247:19253   */\n      dup3\n        /* \"#utility.yul\":19243:19257   */\n      add\n        /* \"#utility.yul\":19236:19283   */\n      mstore\n        /* \"#utility.yul\":19119:19290   */\n      pop\n      jump\t// out\n        /* \"#utility.yul\":19296:19418   */\n    tag_278:\n        /* \"#utility.yul\":19369:19393   */\n      tag_497\n        /* \"#utility.yul\":19387:19392   */\n      dup2\n        /* \"#utility.yul\":19369:19393   */\n      tag_324\n      jump\t// in\n    tag_497:\n        /* \"#utility.yul\":19362:19367   */\n      dup2\n        /* \"#utility.yul\":19359:19394   */\n      eq\n        /* \"#utility.yul\":19349:19412   */\n      tag_498\n      jumpi\n        /* \"#utility.yul\":19408:19409   */\n      0x00\n        /* \"#utility.yul\":19405:19406   */\n      dup1\n        /* \"#utility.yul\":19398:19410   */\n      revert\n        /* \"#utility.yul\":19349:19412   */\n    tag_498:\n        /* \"#utility.yul\":19296:19418   */\n      pop\n      jump\t// out\n        /* \"#utility.yul\":19424:19546   */\n    tag_288:\n        /* \"#utility.yul\":19497:19521   */\n      tag_500\n        /* \"#utility.yul\":19515:19520   */\n      dup2\n        /* \"#utility.yul\":19497:19521   */\n      tag_375\n      jump\t// in\n    tag_500:\n        /* \"#utility.yul\":19490:19495   */\n      dup2\n        /* \"#utility.yul\":19487:19522   */\n      eq\n        /* \"#utility.yul\":19477:19540   */\n      tag_501\n      jumpi\n        /* \"#utility.yul\":19536:19537   */\n      0x00\n        /* \"#utility.yul\":19533:19534   */\n      dup1\n        /* \"#utility.yul\":19526:19538   */\n      revert\n        /* \"#utility.yul\":19477:19540   */\n    tag_501:\n        /* \"#utility.yul\":19424:19546   */\n      pop\n      jump\t// out\n\n    auxdata: 0xa26469706673582212206007fe039600a170338d513eec28070a363549d48e39b9b60fa683befbdf6a8e64736f6c63430008070033\n}\n",
				"bytecode": {
					"linkReferences": {},
					"object": "608060405260006001556000600255603c600355670de0b6b3a7640000600455670de0b6b3a764000060055534801561003757600080fd5b5061005461004961005960201b60201c565b61006160201b60201c565b610125565b600033905090565b60008060009054906101000a900473ffffffffffffffffffffffffffffffffffffffff169050816000806101000a81548173ffffffffffffffffffffffffffffffffffffffff021916908373ffffffffffffffffffffffffffffffffffffffff1602179055508173ffffffffffffffffffffffffffffffffffffffff168173ffffffffffffffffffffffffffffffffffffffff167f8be0079c531659141344cd1fd0a4f28419497f9722a3daafe3b4186f6b6457e060405160405180910390a35050565b611f79806101346000396000f3fe6080604052600436106100c25760003560e01c8063715018a61161007f578063b2bdfa7b11610059578063b2bdfa7b14610267578063d735573d14610292578063e172fca8146102d6578063f2fde38b146102ff576100c2565b8063715018a6146101e8578063858b0554146101ff5780638da5cb5b1461023c576100c2565b8063049a5f65146100c75780631bfdc150146100f75780631c6743e41461010e5780632458c5441461014b5780636a7d1816146101885780636b6f0494146101b8575b600080fd5b6100e160048036038101906100dc91906114df565b610328565b6040516100ee91906118d5565b60405180910390f35b34801561010357600080fd5b5061010c610489565b005b34801561011a57600080fd5b50610135600480360381019061013091906114b2565b61054e565b60405161014291906119f8565b60405180910390f35b34801561015757600080fd5b50610172600480360381019061016d919061156a565b610566565b60405161017f91906119f8565b60405180910390f35b6101a2600480360381019061019d91906114b2565b610848565b6040516101af91906118d5565b60405180910390f35b6101d260048036038101906101cd9190611611565b61099d565b6040516101df91906118d5565b60405180910390f35b3480156101f457600080fd5b506101fd610cc0565b005b34801561020b57600080fd5b5061022660048036038101906102219190611611565b610d48565b6040516102339190611827565b60405180910390f35b34801561024857600080fd5b50610251610d7b565b60405161025e9190611827565b60405180910390f35b34801561027357600080fd5b5061027c610da4565b6040516102899190611827565b60405180910390f35b34801561029e57600080fd5b506102b960048036038101906102b49190611611565b610dc8565b6040516102cd989796959493929190611842565b60405180910390f35b3480156102e257600080fd5b506102fd60048036038101906102f891906114b2565b610fe8565b005b34801561030b57600080fd5b50610326600480360381019061032191906114b2565b611168565b005b60608373ffffffffffffffffffffffffffffffffffffffff163373ffffffffffffffffffffffffffffffffffffffff161461036257600080fd5b600554341461037057600080fd5b60005b600680549050811015610481573373ffffffffffffffffffffffffffffffffffffffff16600682815481106103ab576103aa611d53565b5b906000526020600020906008020160000160009054906101000a900473ffffffffffffffffffffffffffffffffffffffff1673ffffffffffffffffffffffffffffffffffffffff16141561046e57836006828154811061040e5761040d611d53565b5b90600052602060002090600802016001019080519060200190610432929190611375565b50826006828154811061044857610447611d53565b5b9060005260206000209060080201600201908051906020019061046c929190611375565b505b808061047990611c15565b915050610373565b509392505050565b610491611260565b73ffffffffffffffffffffffffffffffffffffffff166104af610d7b565b73ffffffffffffffffffffffffffffffffffffffff1614610505576040517f08c379a00000000000000000000000000000000000000000000000000000000081526004016104fc906119aa565b60405180910390fd5b3373ffffffffffffffffffffffffffffffffffffffff166108fc479081150290604051600060405180830381858888f1935050505015801561054b573d6000803e3d6000fd5b50565b60086020528060005260406000206000915090505481565b60006001600860003373ffffffffffffffffffffffffffffffffffffffff1673ffffffffffffffffffffffffffffffffffffffff16815260200190815260200160002054106105ea576040517f08c379a00000000000000000000000000000000000000000000000000000000081526004016105e19061194a565b60405180910390fd5b60066040518061010001604052803373ffffffffffffffffffffffffffffffffffffffff1681526020018681526020018581526020018481526020016000815260200160008152602001600354426106429190611a9a565b63ffffffff168152602001600163ffffffff16815250908060018154018082558091505060019003906000526020600020906008020160009091909190915060008201518160000160006101000a81548173ffffffffffffffffffffffffffffffffffffffff021916908373ffffffffffffffffffffffffffffffffffffffff16021790555060208201518160010190805190602001906106e4929190611375565b506040820151816002019080519060200190610701929190611375565b50606082015181600301908051906020019061071e929190611375565b506080820151816004015560a0820151816005015560c0820151816006015560e08201518160070160006101000a81548163ffffffff021916908363ffffffff160217905550505060006006805490509050336007600083815260200190815260200160002060006101000a81548173ffffffffffffffffffffffffffffffffffffffff021916908373ffffffffffffffffffffffffffffffffffffffff160217905550600860003373ffffffffffffffffffffffffffffffffffffffff1673ffffffffffffffffffffffffffffffffffffffff168152602001908152602001600020600081548092919061081290611c15565b91905055506002600081548092919061082a90611c15565b9190505550600160025461083e9190611af0565b9150509392505050565b6060600454341461085857600080fd5b60005b600680549050811015610996578273ffffffffffffffffffffffffffffffffffffffff166006828154811061089357610892611d53565b5b906000526020600020906008020160000160009054906101000a900473ffffffffffffffffffffffffffffffffffffffff1673ffffffffffffffffffffffffffffffffffffffff16141561098357600681815481106108f5576108f4611d53565b5b9060005260206000209060080201600701600081819054906101000a900463ffffffff168092919061092690611c5e565b91906101000a81548163ffffffff021916908363ffffffff160217905550506040518060400160405280601281526020017f48612073756269646f206465206e6976656c0000000000000000000000000000815250915050610998565b808061098e90611c15565b91505061085b565b505b919050565b60606001600680549050116109e6577f6158fc8f21c8cc73ddf920956cc75d0e8a48b4fc85817a0ba89eb3b6d2a754416040516109d99061198a565b60405180910390a1610cba565b8134146109f257600080fd5b60016000815480929190610a0590611c15565b9190505550600060068054905042600680549050600154604051602001610a2e939291906117ea565b6040516020818303038152906040528051906020012060001c610a519190611c95565b905060016000815480929190610a6690611c15565b91905055506000600290506000814283600154604051602001610a8b939291906117ea565b6040516020818303038152906040528051906020012060001c610aae9190611c95565b905060005b600680549050811015610cb55760068181548110610ad457610ad3611d53565b5b906000526020600020906008020160000160009054906101000a900473ffffffffffffffffffffffffffffffffffffffff1673ffffffffffffffffffffffffffffffffffffffff163373ffffffffffffffffffffffffffffffffffffffff161415610ca2576000821415610c2a57610b4a611268565b60068181548110610b5e57610b5d611d53565b5b90600052602060002090600802016004016000815480929190610b8090611c15565b919050555060068181548110610b9957610b98611d53565b5b9060005260206000209060080201600701600081819054906101000a900463ffffffff1680929190610bca90611c5e565b91906101000a81548163ffffffff021916908363ffffffff160217905550506040518060400160405280600a81526020017f4861732067616e61646f00000000000000000000000000000000000000000000815250945050505050610cbb565b7fa28482eec3136a2461c6c30c08f71ba279c6c51a2d9c7bea4e50d6d2632f389684604051610c5991906119ca565b60405180910390a16040518060400160405280600b81526020017f486173207065726469646f000000000000000000000000000000000000000000815250945050505050610cbb565b8080610cad90611c15565b915050610ab3565b505050505b5b919050565b610cc8611260565b73ffffffffffffffffffffffffffffffffffffffff16610ce6610d7b565b73ffffffffffffffffffffffffffffffffffffffff1614610d3c576040517f08c379a0000000000000000000000000000000000000000000000000000000008152600401610d33906119aa565b60405180910390fd5b610d4660006112b1565b565b60076020528060005260406000206000915054906101000a900473ffffffffffffffffffffffffffffffffffffffff1681565b60008060009054906101000a900473ffffffffffffffffffffffffffffffffffffffff16905090565b60008054906101000a900473ffffffffffffffffffffffffffffffffffffffff1681565b60068181548110610dd857600080fd5b90600052602060002090600802016000915090508060000160009054906101000a900473ffffffffffffffffffffffffffffffffffffffff1690806001018054610e2190611bb2565b80601f0160208091040260200160405190810160405280929190818152602001828054610e4d90611bb2565b8015610e9a5780601f10610e6f57610100808354040283529160200191610e9a565b820191906000526020600020905b815481529060010190602001808311610e7d57829003601f168201915b505050505090806002018054610eaf90611bb2565b80601f0160208091040260200160405190810160405280929190818152602001828054610edb90611bb2565b8015610f285780601f10610efd57610100808354040283529160200191610f28565b820191906000526020600020905b815481529060010190602001808311610f0b57829003601f168201915b505050505090806003018054610f3d90611bb2565b80601f0160208091040260200160405190810160405280929190818152602001828054610f6990611bb2565b8015610fb65780601f10610f8b57610100808354040283529160200191610fb6565b820191906000526020600020905b815481529060010190602001808311610f9957829003601f168201915b5050505050908060040154908060050154908060060154908060070160009054906101000a900463ffffffff16905088565b60005b600680549050811015611164578173ffffffffffffffffffffffffffffffffffffffff166006828154811061102357611022611d53565b5b906000526020600020906008020160000160009054906101000a900473ffffffffffffffffffffffffffffffffffffffff1673ffffffffffffffffffffffffffffffffffffffff161415611151577f18c2885dbbffc4e127da047b869295b42d8d5ee97848f7f117b062e88f34a9e6600682815481106110a6576110a5611d53565b5b9060005260206000209060080201600201600683815481106110cb576110ca611d53565b5b9060005260206000209060080201600101600684815481106110f0576110ef611d53565b5b906000526020600020906008020160070160009054906101000a900463ffffffff166006858154811061112657611125611d53565b5b90600052602060002090600802016004015460405161114894939291906118f7565b60405180910390a15b808061115c90611c15565b915050610feb565b5050565b611170611260565b73ffffffffffffffffffffffffffffffffffffffff1661118e610d7b565b73ffffffffffffffffffffffffffffffffffffffff16146111e4576040517f08c379a00000000000000000000000000000000000000000000000000000000081526004016111db906119aa565b60405180910390fd5b600073ffffffffffffffffffffffffffffffffffffffff168173ffffffffffffffffffffffffffffffffffffffff161415611254576040517f08c379a000000000000000000000000000000000000000000000000000000000815260040161124b9061196a565b60405180910390fd5b61125d816112b1565b50565b600033905090565b3373ffffffffffffffffffffffffffffffffffffffff166108fc479081150290604051600060405180830381858888f193505050501580156112ae573d6000803e3d6000fd5b50565b60008060009054906101000a900473ffffffffffffffffffffffffffffffffffffffff169050816000806101000a81548173ffffffffffffffffffffffffffffffffffffffff021916908373ffffffffffffffffffffffffffffffffffffffff1602179055508173ffffffffffffffffffffffffffffffffffffffff168173ffffffffffffffffffffffffffffffffffffffff167f8be0079c531659141344cd1fd0a4f28419497f9722a3daafe3b4186f6b6457e060405160405180910390a35050565b82805461138190611bb2565b90600052602060002090601f0160209004810192826113a357600085556113ea565b82601f106113bc57805160ff19168380011785556113ea565b828001600101855582156113ea579182015b828111156113e95782518255916020019190600101906113ce565b5b5090506113f791906113fb565b5090565b5b808211156114145760008160009055506001016113fc565b5090565b600061142b61142684611a38565b611a13565b90508281526020810184848401111561144757611446611db6565b5b611452848285611b70565b509392505050565b60008135905061146981611f15565b92915050565b600082601f83011261148457611483611db1565b5b8135611494848260208601611418565b91505092915050565b6000813590506114ac81611f2c565b92915050565b6000602082840312156114c8576114c7611dc0565b5b60006114d68482850161145a565b91505092915050565b6000806000606084860312156114f8576114f7611dc0565b5b60006115068682870161145a565b935050602084013567ffffffffffffffff81111561152757611526611dbb565b5b6115338682870161146f565b925050604084013567ffffffffffffffff81111561155457611553611dbb565b5b6115608682870161146f565b9150509250925092565b60008060006060848603121561158357611582611dc0565b5b600084013567ffffffffffffffff8111156115a1576115a0611dbb565b5b6115ad8682870161146f565b935050602084013567ffffffffffffffff8111156115ce576115cd611dbb565b5b6115da8682870161146f565b925050604084013567ffffffffffffffff8111156115fb576115fa611dbb565b5b6116078682870161146f565b9150509250925092565b60006020828403121561162757611626611dc0565b5b60006116358482850161149d565b91505092915050565b61164781611b24565b82525050565b600061165882611a7e565b6116628185611a89565b9350611672818560208601611b7f565b61167b81611dc5565b840191505092915050565b6000815461169381611bb2565b61169d8186611a89565b945060018216600081146116b857600181146116ca576116fd565b60ff19831686526020860193506116fd565b6116d385611a69565b60005b838110156116f5578154818901526001820191506020810190506116d6565b808801955050505b50505092915050565b6000611713602883611a89565b915061171e82611dd6565b604082019050919050565b6000611736602683611a89565b915061174182611e25565b604082019050919050565b6000611759603283611a89565b915061176482611e74565b604082019050919050565b600061177c602083611a89565b915061178782611ec3565b602082019050919050565b600061179f601583611a89565b91506117aa82611eec565b602082019050919050565b6117be81611b56565b82525050565b6117d56117d082611b56565b611c8b565b82525050565b6117e481611b60565b82525050565b60006117f682866117c4565b60208201915061180682856117c4565b60208201915061181682846117c4565b602082019150819050949350505050565b600060208201905061183c600083018461163e565b92915050565b600061010082019050611858600083018b61163e565b818103602083015261186a818a61164d565b9050818103604083015261187e818961164d565b90508181036060830152611892818861164d565b90506118a160808301876117b5565b6118ae60a08301866117b5565b6118bb60c08301856117b5565b6118c860e08301846117db565b9998505050505050505050565b600060208201905081810360008301526118ef818461164d565b905092915050565b600060808201905081810360008301526119118187611686565b905081810360208301526119258186611686565b905061193460408301856117db565b61194160608301846117b5565b95945050505050565b6000602082019050818103600083015261196381611706565b9050919050565b6000602082019050818103600083015261198381611729565b9050919050565b600060208201905081810360008301526119a38161174c565b9050919050565b600060208201905081810360008301526119c38161176f565b9050919050565b600060408201905081810360008301526119e381611792565b90506119f260208301846117b5565b92915050565b6000602082019050611a0d60008301846117b5565b92915050565b6000611a1d611a2e565b9050611a298282611be4565b919050565b6000604051905090565b600067ffffffffffffffff821115611a5357611a52611d82565b5b611a5c82611dc5565b9050602081019050919050565b60008190508160005260206000209050919050565b600081519050919050565b600082825260208201905092915050565b6000611aa582611b56565b9150611ab083611b56565b9250827fffffffffffffffffffffffffffffffffffffffffffffffffffffffffffffffff03821115611ae557611ae4611cc6565b5b828201905092915050565b6000611afb82611b56565b9150611b0683611b56565b925082821015611b1957611b18611cc6565b5b828203905092915050565b6000611b2f82611b36565b9050919050565b600073ffffffffffffffffffffffffffffffffffffffff82169050919050565b6000819050919050565b600063ffffffff82169050919050565b82818337600083830152505050565b60005b83811015611b9d578082015181840152602081019050611b82565b83811115611bac576000848401525b50505050565b60006002820490506001821680611bca57607f821691505b60208210811415611bde57611bdd611d24565b5b50919050565b611bed82611dc5565b810181811067ffffffffffffffff82111715611c0c57611c0b611d82565b5b80604052505050565b6000611c2082611b56565b91507fffffffffffffffffffffffffffffffffffffffffffffffffffffffffffffffff821415611c5357611c52611cc6565b5b600182019050919050565b6000611c6982611b60565b915063ffffffff821415611c8057611c7f611cc6565b5b600182019050919050565b6000819050919050565b6000611ca082611b56565b9150611cab83611b56565b925082611cbb57611cba611cf5565b5b828206905092915050565b7f4e487b7100000000000000000000000000000000000000000000000000000000600052601160045260246000fd5b7f4e487b7100000000000000000000000000000000000000000000000000000000600052601260045260246000fd5b7f4e487b7100000000000000000000000000000000000000000000000000000000600052602260045260246000fd5b7f4e487b7100000000000000000000000000000000000000000000000000000000600052603260045260246000fd5b7f4e487b7100000000000000000000000000000000000000000000000000000000600052604160045260246000fd5b600080fd5b600080fd5b600080fd5b600080fd5b6000601f19601f8301169050919050565b7f536f6c6f2073652070756564652074656e657220756e20636f63686520706f7260008201527f20706572736f6e61000000000000000000000000000000000000000000000000602082015250565b7f4f776e61626c653a206e6577206f776e657220697320746865207a65726f206160008201527f6464726573730000000000000000000000000000000000000000000000000000602082015250565b7f4e6f2068617920636f6368657320737566696369656e7465732070617261206960008201527f6e696369617220756e6120636172726572610000000000000000000000000000602082015250565b7f4f776e61626c653a2063616c6c6572206973206e6f7420746865206f776e6572600082015250565b7f456c20636f6368652067616e61646f722065733a200000000000000000000000600082015250565b611f1e81611b24565b8114611f2957600080fd5b50565b611f3581611b56565b8114611f4057600080fd5b5056fea26469706673582212206007fe039600a170338d513eec28070a363549d48e39b9b60fa683befbdf6a8e64736f6c63430008070033",
					"opcodes": "PUSH1 0x80 PUSH1 0x40 MSTORE PUSH1 0x0 PUSH1 0x1 SSTORE PUSH1 0x0 PUSH1 0x2 SSTORE PUSH1 0x3C PUSH1 0x3 SSTORE PUSH8 0xDE0B6B3A7640000 PUSH1 0x4 SSTORE PUSH8 0xDE0B6B3A7640000 PUSH1 0x5 SSTORE CALLVALUE DUP1 ISZERO PUSH2 0x37 JUMPI PUSH1 0x0 DUP1 REVERT JUMPDEST POP PUSH2 0x54 PUSH2 0x49 PUSH2 0x59 PUSH1 0x20 SHL PUSH1 0x20 SHR JUMP JUMPDEST PUSH2 0x61 PUSH1 0x20 SHL PUSH1 0x20 SHR JUMP JUMPDEST PUSH2 0x125 JUMP JUMPDEST PUSH1 0x0 CALLER SWAP1 POP SWAP1 JUMP JUMPDEST PUSH1 0x0 DUP1 PUSH1 0x0 SWAP1 SLOAD SWAP1 PUSH2 0x100 EXP SWAP1 DIV PUSH20 0xFFFFFFFFFFFFFFFFFFFFFFFFFFFFFFFFFFFFFFFF AND SWAP1 POP DUP2 PUSH1 0x0 DUP1 PUSH2 0x100 EXP DUP2 SLOAD DUP2 PUSH20 0xFFFFFFFFFFFFFFFFFFFFFFFFFFFFFFFFFFFFFFFF MUL NOT AND SWAP1 DUP4 PUSH20 0xFFFFFFFFFFFFFFFFFFFFFFFFFFFFFFFFFFFFFFFF AND MUL OR SWAP1 SSTORE POP DUP2 PUSH20 0xFFFFFFFFFFFFFFFFFFFFFFFFFFFFFFFFFFFFFFFF AND DUP2 PUSH20 0xFFFFFFFFFFFFFFFFFFFFFFFFFFFFFFFFFFFFFFFF AND PUSH32 0x8BE0079C531659141344CD1FD0A4F28419497F9722A3DAAFE3B4186F6B6457E0 PUSH1 0x40 MLOAD PUSH1 0x40 MLOAD DUP1 SWAP2 SUB SWAP1 LOG3 POP POP JUMP JUMPDEST PUSH2 0x1F79 DUP1 PUSH2 0x134 PUSH1 0x0 CODECOPY PUSH1 0x0 RETURN INVALID PUSH1 0x80 PUSH1 0x40 MSTORE PUSH1 0x4 CALLDATASIZE LT PUSH2 0xC2 JUMPI PUSH1 0x0 CALLDATALOAD PUSH1 0xE0 SHR DUP1 PUSH4 0x715018A6 GT PUSH2 0x7F JUMPI DUP1 PUSH4 0xB2BDFA7B GT PUSH2 0x59 JUMPI DUP1 PUSH4 0xB2BDFA7B EQ PUSH2 0x267 JUMPI DUP1 PUSH4 0xD735573D EQ PUSH2 0x292 JUMPI DUP1 PUSH4 0xE172FCA8 EQ PUSH2 0x2D6 JUMPI DUP1 PUSH4 0xF2FDE38B EQ PUSH2 0x2FF JUMPI PUSH2 0xC2 JUMP JUMPDEST DUP1 PUSH4 0x715018A6 EQ PUSH2 0x1E8 JUMPI DUP1 PUSH4 0x858B0554 EQ PUSH2 0x1FF JUMPI DUP1 PUSH4 0x8DA5CB5B EQ PUSH2 0x23C JUMPI PUSH2 0xC2 JUMP JUMPDEST DUP1 PUSH4 0x49A5F65 EQ PUSH2 0xC7 JUMPI DUP1 PUSH4 0x1BFDC150 EQ PUSH2 0xF7 JUMPI DUP1 PUSH4 0x1C6743E4 EQ PUSH2 0x10E JUMPI DUP1 PUSH4 0x2458C544 EQ PUSH2 0x14B JUMPI DUP1 PUSH4 0x6A7D1816 EQ PUSH2 0x188 JUMPI DUP1 PUSH4 0x6B6F0494 EQ PUSH2 0x1B8 JUMPI JUMPDEST PUSH1 0x0 DUP1 REVERT JUMPDEST PUSH2 0xE1 PUSH1 0x4 DUP1 CALLDATASIZE SUB DUP2 ADD SWAP1 PUSH2 0xDC SWAP2 SWAP1 PUSH2 0x14DF JUMP JUMPDEST PUSH2 0x328 JUMP JUMPDEST PUSH1 0x40 MLOAD PUSH2 0xEE SWAP2 SWAP1 PUSH2 0x18D5 JUMP JUMPDEST PUSH1 0x40 MLOAD DUP1 SWAP2 SUB SWAP1 RETURN JUMPDEST CALLVALUE DUP1 ISZERO PUSH2 0x103 JUMPI PUSH1 0x0 DUP1 REVERT JUMPDEST POP PUSH2 0x10C PUSH2 0x489 JUMP JUMPDEST STOP JUMPDEST CALLVALUE DUP1 ISZERO PUSH2 0x11A JUMPI PUSH1 0x0 DUP1 REVERT JUMPDEST POP PUSH2 0x135 PUSH1 0x4 DUP1 CALLDATASIZE SUB DUP2 ADD SWAP1 PUSH2 0x130 SWAP2 SWAP1 PUSH2 0x14B2 JUMP JUMPDEST PUSH2 0x54E JUMP JUMPDEST PUSH1 0x40 MLOAD PUSH2 0x142 SWAP2 SWAP1 PUSH2 0x19F8 JUMP JUMPDEST PUSH1 0x40 MLOAD DUP1 SWAP2 SUB SWAP1 RETURN JUMPDEST CALLVALUE DUP1 ISZERO PUSH2 0x157 JUMPI PUSH1 0x0 DUP1 REVERT JUMPDEST POP PUSH2 0x172 PUSH1 0x4 DUP1 CALLDATASIZE SUB DUP2 ADD SWAP1 PUSH2 0x16D SWAP2 SWAP1 PUSH2 0x156A JUMP JUMPDEST PUSH2 0x566 JUMP JUMPDEST PUSH1 0x40 MLOAD PUSH2 0x17F SWAP2 SWAP1 PUSH2 0x19F8 JUMP JUMPDEST PUSH1 0x40 MLOAD DUP1 SWAP2 SUB SWAP1 RETURN JUMPDEST PUSH2 0x1A2 PUSH1 0x4 DUP1 CALLDATASIZE SUB DUP2 ADD SWAP1 PUSH2 0x19D SWAP2 SWAP1 PUSH2 0x14B2 JUMP JUMPDEST PUSH2 0x848 JUMP JUMPDEST PUSH1 0x40 MLOAD PUSH2 0x1AF SWAP2 SWAP1 PUSH2 0x18D5 JUMP JUMPDEST PUSH1 0x40 MLOAD DUP1 SWAP2 SUB SWAP1 RETURN JUMPDEST PUSH2 0x1D2 PUSH1 0x4 DUP1 CALLDATASIZE SUB DUP2 ADD SWAP1 PUSH2 0x1CD SWAP2 SWAP1 PUSH2 0x1611 JUMP JUMPDEST PUSH2 0x99D JUMP JUMPDEST PUSH1 0x40 MLOAD PUSH2 0x1DF SWAP2 SWAP1 PUSH2 0x18D5 JUMP JUMPDEST PUSH1 0x40 MLOAD DUP1 SWAP2 SUB SWAP1 RETURN JUMPDEST CALLVALUE DUP1 ISZERO PUSH2 0x1F4 JUMPI PUSH1 0x0 DUP1 REVERT JUMPDEST POP PUSH2 0x1FD PUSH2 0xCC0 JUMP JUMPDEST STOP JUMPDEST CALLVALUE DUP1 ISZERO PUSH2 0x20B JUMPI PUSH1 0x0 DUP1 REVERT JUMPDEST POP PUSH2 0x226 PUSH1 0x4 DUP1 CALLDATASIZE SUB DUP2 ADD SWAP1 PUSH2 0x221 SWAP2 SWAP1 PUSH2 0x1611 JUMP JUMPDEST PUSH2 0xD48 JUMP JUMPDEST PUSH1 0x40 MLOAD PUSH2 0x233 SWAP2 SWAP1 PUSH2 0x1827 JUMP JUMPDEST PUSH1 0x40 MLOAD DUP1 SWAP2 SUB SWAP1 RETURN JUMPDEST CALLVALUE DUP1 ISZERO PUSH2 0x248 JUMPI PUSH1 0x0 DUP1 REVERT JUMPDEST POP PUSH2 0x251 PUSH2 0xD7B JUMP JUMPDEST PUSH1 0x40 MLOAD PUSH2 0x25E SWAP2 SWAP1 PUSH2 0x1827 JUMP JUMPDEST PUSH1 0x40 MLOAD DUP1 SWAP2 SUB SWAP1 RETURN JUMPDEST CALLVALUE DUP1 ISZERO PUSH2 0x273 JUMPI PUSH1 0x0 DUP1 REVERT JUMPDEST POP PUSH2 0x27C PUSH2 0xDA4 JUMP JUMPDEST PUSH1 0x40 MLOAD PUSH2 0x289 SWAP2 SWAP1 PUSH2 0x1827 JUMP JUMPDEST PUSH1 0x40 MLOAD DUP1 SWAP2 SUB SWAP1 RETURN JUMPDEST CALLVALUE DUP1 ISZERO PUSH2 0x29E JUMPI PUSH1 0x0 DUP1 REVERT JUMPDEST POP PUSH2 0x2B9 PUSH1 0x4 DUP1 CALLDATASIZE SUB DUP2 ADD SWAP1 PUSH2 0x2B4 SWAP2 SWAP1 PUSH2 0x1611 JUMP JUMPDEST PUSH2 0xDC8 JUMP JUMPDEST PUSH1 0x40 MLOAD PUSH2 0x2CD SWAP9 SWAP8 SWAP7 SWAP6 SWAP5 SWAP4 SWAP3 SWAP2 SWAP1 PUSH2 0x1842 JUMP JUMPDEST PUSH1 0x40 MLOAD DUP1 SWAP2 SUB SWAP1 RETURN JUMPDEST CALLVALUE DUP1 ISZERO PUSH2 0x2E2 JUMPI PUSH1 0x0 DUP1 REVERT JUMPDEST POP PUSH2 0x2FD PUSH1 0x4 DUP1 CALLDATASIZE SUB DUP2 ADD SWAP1 PUSH2 0x2F8 SWAP2 SWAP1 PUSH2 0x14B2 JUMP JUMPDEST PUSH2 0xFE8 JUMP JUMPDEST STOP JUMPDEST CALLVALUE DUP1 ISZERO PUSH2 0x30B JUMPI PUSH1 0x0 DUP1 REVERT JUMPDEST POP PUSH2 0x326 PUSH1 0x4 DUP1 CALLDATASIZE SUB DUP2 ADD SWAP1 PUSH2 0x321 SWAP2 SWAP1 PUSH2 0x14B2 JUMP JUMPDEST PUSH2 0x1168 JUMP JUMPDEST STOP JUMPDEST PUSH1 0x60 DUP4 PUSH20 0xFFFFFFFFFFFFFFFFFFFFFFFFFFFFFFFFFFFFFFFF AND CALLER PUSH20 0xFFFFFFFFFFFFFFFFFFFFFFFFFFFFFFFFFFFFFFFF AND EQ PUSH2 0x362 JUMPI PUSH1 0x0 DUP1 REVERT JUMPDEST PUSH1 0x5 SLOAD CALLVALUE EQ PUSH2 0x370 JUMPI PUSH1 0x0 DUP1 REVERT JUMPDEST PUSH1 0x0 JUMPDEST PUSH1 0x6 DUP1 SLOAD SWAP1 POP DUP2 LT ISZERO PUSH2 0x481 JUMPI CALLER PUSH20 0xFFFFFFFFFFFFFFFFFFFFFFFFFFFFFFFFFFFFFFFF AND PUSH1 0x6 DUP3 DUP2 SLOAD DUP2 LT PUSH2 0x3AB JUMPI PUSH2 0x3AA PUSH2 0x1D53 JUMP JUMPDEST JUMPDEST SWAP1 PUSH1 0x0 MSTORE PUSH1 0x20 PUSH1 0x0 KECCAK256 SWAP1 PUSH1 0x8 MUL ADD PUSH1 0x0 ADD PUSH1 0x0 SWAP1 SLOAD SWAP1 PUSH2 0x100 EXP SWAP1 DIV PUSH20 0xFFFFFFFFFFFFFFFFFFFFFFFFFFFFFFFFFFFFFFFF AND PUSH20 0xFFFFFFFFFFFFFFFFFFFFFFFFFFFFFFFFFFFFFFFF AND EQ ISZERO PUSH2 0x46E JUMPI DUP4 PUSH1 0x6 DUP3 DUP2 SLOAD DUP2 LT PUSH2 0x40E JUMPI PUSH2 0x40D PUSH2 0x1D53 JUMP JUMPDEST JUMPDEST SWAP1 PUSH1 0x0 MSTORE PUSH1 0x20 PUSH1 0x0 KECCAK256 SWAP1 PUSH1 0x8 MUL ADD PUSH1 0x1 ADD SWAP1 DUP1 MLOAD SWAP1 PUSH1 0x20 ADD SWAP1 PUSH2 0x432 SWAP3 SWAP2 SWAP1 PUSH2 0x1375 JUMP JUMPDEST POP DUP3 PUSH1 0x6 DUP3 DUP2 SLOAD DUP2 LT PUSH2 0x448 JUMPI PUSH2 0x447 PUSH2 0x1D53 JUMP JUMPDEST JUMPDEST SWAP1 PUSH1 0x0 MSTORE PUSH1 0x20 PUSH1 0x0 KECCAK256 SWAP1 PUSH1 0x8 MUL ADD PUSH1 0x2 ADD SWAP1 DUP1 MLOAD SWAP1 PUSH1 0x20 ADD SWAP1 PUSH2 0x46C SWAP3 SWAP2 SWAP1 PUSH2 0x1375 JUMP JUMPDEST POP JUMPDEST DUP1 DUP1 PUSH2 0x479 SWAP1 PUSH2 0x1C15 JUMP JUMPDEST SWAP2 POP POP PUSH2 0x373 JUMP JUMPDEST POP SWAP4 SWAP3 POP POP POP JUMP JUMPDEST PUSH2 0x491 PUSH2 0x1260 JUMP JUMPDEST PUSH20 0xFFFFFFFFFFFFFFFFFFFFFFFFFFFFFFFFFFFFFFFF AND PUSH2 0x4AF PUSH2 0xD7B JUMP JUMPDEST PUSH20 0xFFFFFFFFFFFFFFFFFFFFFFFFFFFFFFFFFFFFFFFF AND EQ PUSH2 0x505 JUMPI PUSH1 0x40 MLOAD PUSH32 0x8C379A000000000000000000000000000000000000000000000000000000000 DUP2 MSTORE PUSH1 0x4 ADD PUSH2 0x4FC SWAP1 PUSH2 0x19AA JUMP JUMPDEST PUSH1 0x40 MLOAD DUP1 SWAP2 SUB SWAP1 REVERT JUMPDEST CALLER PUSH20 0xFFFFFFFFFFFFFFFFFFFFFFFFFFFFFFFFFFFFFFFF AND PUSH2 0x8FC SELFBALANCE SWAP1 DUP2 ISZERO MUL SWAP1 PUSH1 0x40 MLOAD PUSH1 0x0 PUSH1 0x40 MLOAD DUP1 DUP4 SUB DUP2 DUP6 DUP9 DUP9 CALL SWAP4 POP POP POP POP ISZERO DUP1 ISZERO PUSH2 0x54B JUMPI RETURNDATASIZE PUSH1 0x0 DUP1 RETURNDATACOPY RETURNDATASIZE PUSH1 0x0 REVERT JUMPDEST POP JUMP JUMPDEST PUSH1 0x8 PUSH1 0x20 MSTORE DUP1 PUSH1 0x0 MSTORE PUSH1 0x40 PUSH1 0x0 KECCAK256 PUSH1 0x0 SWAP2 POP SWAP1 POP SLOAD DUP2 JUMP JUMPDEST PUSH1 0x0 PUSH1 0x1 PUSH1 0x8 PUSH1 0x0 CALLER PUSH20 0xFFFFFFFFFFFFFFFFFFFFFFFFFFFFFFFFFFFFFFFF AND PUSH20 0xFFFFFFFFFFFFFFFFFFFFFFFFFFFFFFFFFFFFFFFF AND DUP2 MSTORE PUSH1 0x20 ADD SWAP1 DUP2 MSTORE PUSH1 0x20 ADD PUSH1 0x0 KECCAK256 SLOAD LT PUSH2 0x5EA JUMPI PUSH1 0x40 MLOAD PUSH32 0x8C379A000000000000000000000000000000000000000000000000000000000 DUP2 MSTORE PUSH1 0x4 ADD PUSH2 0x5E1 SWAP1 PUSH2 0x194A JUMP JUMPDEST PUSH1 0x40 MLOAD DUP1 SWAP2 SUB SWAP1 REVERT JUMPDEST PUSH1 0x6 PUSH1 0x40 MLOAD DUP1 PUSH2 0x100 ADD PUSH1 0x40 MSTORE DUP1 CALLER PUSH20 0xFFFFFFFFFFFFFFFFFFFFFFFFFFFFFFFFFFFFFFFF AND DUP2 MSTORE PUSH1 0x20 ADD DUP7 DUP2 MSTORE PUSH1 0x20 ADD DUP6 DUP2 MSTORE PUSH1 0x20 ADD DUP5 DUP2 MSTORE PUSH1 0x20 ADD PUSH1 0x0 DUP2 MSTORE PUSH1 0x20 ADD PUSH1 0x0 DUP2 MSTORE PUSH1 0x20 ADD PUSH1 0x3 SLOAD TIMESTAMP PUSH2 0x642 SWAP2 SWAP1 PUSH2 0x1A9A JUMP JUMPDEST PUSH4 0xFFFFFFFF AND DUP2 MSTORE PUSH1 0x20 ADD PUSH1 0x1 PUSH4 0xFFFFFFFF AND DUP2 MSTORE POP SWAP1 DUP1 PUSH1 0x1 DUP2 SLOAD ADD DUP1 DUP3 SSTORE DUP1 SWAP2 POP POP PUSH1 0x1 SWAP1 SUB SWAP1 PUSH1 0x0 MSTORE PUSH1 0x20 PUSH1 0x0 KECCAK256 SWAP1 PUSH1 0x8 MUL ADD PUSH1 0x0 SWAP1 SWAP2 SWAP1 SWAP2 SWAP1 SWAP2 POP PUSH1 0x0 DUP3 ADD MLOAD DUP2 PUSH1 0x0 ADD PUSH1 0x0 PUSH2 0x100 EXP DUP2 SLOAD DUP2 PUSH20 0xFFFFFFFFFFFFFFFFFFFFFFFFFFFFFFFFFFFFFFFF MUL NOT AND SWAP1 DUP4 PUSH20 0xFFFFFFFFFFFFFFFFFFFFFFFFFFFFFFFFFFFFFFFF AND MUL OR SWAP1 SSTORE POP PUSH1 0x20 DUP3 ADD MLOAD DUP2 PUSH1 0x1 ADD SWAP1 DUP1 MLOAD SWAP1 PUSH1 0x20 ADD SWAP1 PUSH2 0x6E4 SWAP3 SWAP2 SWAP1 PUSH2 0x1375 JUMP JUMPDEST POP PUSH1 0x40 DUP3 ADD MLOAD DUP2 PUSH1 0x2 ADD SWAP1 DUP1 MLOAD SWAP1 PUSH1 0x20 ADD SWAP1 PUSH2 0x701 SWAP3 SWAP2 SWAP1 PUSH2 0x1375 JUMP JUMPDEST POP PUSH1 0x60 DUP3 ADD MLOAD DUP2 PUSH1 0x3 ADD SWAP1 DUP1 MLOAD SWAP1 PUSH1 0x20 ADD SWAP1 PUSH2 0x71E SWAP3 SWAP2 SWAP1 PUSH2 0x1375 JUMP JUMPDEST POP PUSH1 0x80 DUP3 ADD MLOAD DUP2 PUSH1 0x4 ADD SSTORE PUSH1 0xA0 DUP3 ADD MLOAD DUP2 PUSH1 0x5 ADD SSTORE PUSH1 0xC0 DUP3 ADD MLOAD DUP2 PUSH1 0x6 ADD SSTORE PUSH1 0xE0 DUP3 ADD MLOAD DUP2 PUSH1 0x7 ADD PUSH1 0x0 PUSH2 0x100 EXP DUP2 SLOAD DUP2 PUSH4 0xFFFFFFFF MUL NOT AND SWAP1 DUP4 PUSH4 0xFFFFFFFF AND MUL OR SWAP1 SSTORE POP POP POP PUSH1 0x0 PUSH1 0x6 DUP1 SLOAD SWAP1 POP SWAP1 POP CALLER PUSH1 0x7 PUSH1 0x0 DUP4 DUP2 MSTORE PUSH1 0x20 ADD SWAP1 DUP2 MSTORE PUSH1 0x20 ADD PUSH1 0x0 KECCAK256 PUSH1 0x0 PUSH2 0x100 EXP DUP2 SLOAD DUP2 PUSH20 0xFFFFFFFFFFFFFFFFFFFFFFFFFFFFFFFFFFFFFFFF MUL NOT AND SWAP1 DUP4 PUSH20 0xFFFFFFFFFFFFFFFFFFFFFFFFFFFFFFFFFFFFFFFF AND MUL OR SWAP1 SSTORE POP PUSH1 0x8 PUSH1 0x0 CALLER PUSH20 0xFFFFFFFFFFFFFFFFFFFFFFFFFFFFFFFFFFFFFFFF AND PUSH20 0xFFFFFFFFFFFFFFFFFFFFFFFFFFFFFFFFFFFFFFFF AND DUP2 MSTORE PUSH1 0x20 ADD SWAP1 DUP2 MSTORE PUSH1 0x20 ADD PUSH1 0x0 KECCAK256 PUSH1 0x0 DUP2 SLOAD DUP1 SWAP3 SWAP2 SWAP1 PUSH2 0x812 SWAP1 PUSH2 0x1C15 JUMP JUMPDEST SWAP2 SWAP1 POP SSTORE POP PUSH1 0x2 PUSH1 0x0 DUP2 SLOAD DUP1 SWAP3 SWAP2 SWAP1 PUSH2 0x82A SWAP1 PUSH2 0x1C15 JUMP JUMPDEST SWAP2 SWAP1 POP SSTORE POP PUSH1 0x1 PUSH1 0x2 SLOAD PUSH2 0x83E SWAP2 SWAP1 PUSH2 0x1AF0 JUMP JUMPDEST SWAP2 POP POP SWAP4 SWAP3 POP POP POP JUMP JUMPDEST PUSH1 0x60 PUSH1 0x4 SLOAD CALLVALUE EQ PUSH2 0x858 JUMPI PUSH1 0x0 DUP1 REVERT JUMPDEST PUSH1 0x0 JUMPDEST PUSH1 0x6 DUP1 SLOAD SWAP1 POP DUP2 LT ISZERO PUSH2 0x996 JUMPI DUP3 PUSH20 0xFFFFFFFFFFFFFFFFFFFFFFFFFFFFFFFFFFFFFFFF AND PUSH1 0x6 DUP3 DUP2 SLOAD DUP2 LT PUSH2 0x893 JUMPI PUSH2 0x892 PUSH2 0x1D53 JUMP JUMPDEST JUMPDEST SWAP1 PUSH1 0x0 MSTORE PUSH1 0x20 PUSH1 0x0 KECCAK256 SWAP1 PUSH1 0x8 MUL ADD PUSH1 0x0 ADD PUSH1 0x0 SWAP1 SLOAD SWAP1 PUSH2 0x100 EXP SWAP1 DIV PUSH20 0xFFFFFFFFFFFFFFFFFFFFFFFFFFFFFFFFFFFFFFFF AND PUSH20 0xFFFFFFFFFFFFFFFFFFFFFFFFFFFFFFFFFFFFFFFF AND EQ ISZERO PUSH2 0x983 JUMPI PUSH1 0x6 DUP2 DUP2 SLOAD DUP2 LT PUSH2 0x8F5 JUMPI PUSH2 0x8F4 PUSH2 0x1D53 JUMP JUMPDEST JUMPDEST SWAP1 PUSH1 0x0 MSTORE PUSH1 0x20 PUSH1 0x0 KECCAK256 SWAP1 PUSH1 0x8 MUL ADD PUSH1 0x7 ADD PUSH1 0x0 DUP2 DUP2 SWAP1 SLOAD SWAP1 PUSH2 0x100 EXP SWAP1 DIV PUSH4 0xFFFFFFFF AND DUP1 SWAP3 SWAP2 SWAP1 PUSH2 0x926 SWAP1 PUSH2 0x1C5E JUMP JUMPDEST SWAP2 SWAP1 PUSH2 0x100 EXP DUP2 SLOAD DUP2 PUSH4 0xFFFFFFFF MUL NOT AND SWAP1 DUP4 PUSH4 0xFFFFFFFF AND MUL OR SWAP1 SSTORE POP POP PUSH1 0x40 MLOAD DUP1 PUSH1 0x40 ADD PUSH1 0x40 MSTORE DUP1 PUSH1 0x12 DUP2 MSTORE PUSH1 0x20 ADD PUSH32 0x48612073756269646F206465206E6976656C0000000000000000000000000000 DUP2 MSTORE POP SWAP2 POP POP PUSH2 0x998 JUMP JUMPDEST DUP1 DUP1 PUSH2 0x98E SWAP1 PUSH2 0x1C15 JUMP JUMPDEST SWAP2 POP POP PUSH2 0x85B JUMP JUMPDEST POP JUMPDEST SWAP2 SWAP1 POP JUMP JUMPDEST PUSH1 0x60 PUSH1 0x1 PUSH1 0x6 DUP1 SLOAD SWAP1 POP GT PUSH2 0x9E6 JUMPI PUSH32 0x6158FC8F21C8CC73DDF920956CC75D0E8A48B4FC85817A0BA89EB3B6D2A75441 PUSH1 0x40 MLOAD PUSH2 0x9D9 SWAP1 PUSH2 0x198A JUMP JUMPDEST PUSH1 0x40 MLOAD DUP1 SWAP2 SUB SWAP1 LOG1 PUSH2 0xCBA JUMP JUMPDEST DUP2 CALLVALUE EQ PUSH2 0x9F2 JUMPI PUSH1 0x0 DUP1 REVERT JUMPDEST PUSH1 0x1 PUSH1 0x0 DUP2 SLOAD DUP1 SWAP3 SWAP2 SWAP1 PUSH2 0xA05 SWAP1 PUSH2 0x1C15 JUMP JUMPDEST SWAP2 SWAP1 POP SSTORE POP PUSH1 0x0 PUSH1 0x6 DUP1 SLOAD SWAP1 POP TIMESTAMP PUSH1 0x6 DUP1 SLOAD SWAP1 POP PUSH1 0x1 SLOAD PUSH1 0x40 MLOAD PUSH1 0x20 ADD PUSH2 0xA2E SWAP4 SWAP3 SWAP2 SWAP1 PUSH2 0x17EA JUMP JUMPDEST PUSH1 0x40 MLOAD PUSH1 0x20 DUP2 DUP4 SUB SUB DUP2 MSTORE SWAP1 PUSH1 0x40 MSTORE DUP1 MLOAD SWAP1 PUSH1 0x20 ADD KECCAK256 PUSH1 0x0 SHR PUSH2 0xA51 SWAP2 SWAP1 PUSH2 0x1C95 JUMP JUMPDEST SWAP1 POP PUSH1 0x1 PUSH1 0x0 DUP2 SLOAD DUP1 SWAP3 SWAP2 SWAP1 PUSH2 0xA66 SWAP1 PUSH2 0x1C15 JUMP JUMPDEST SWAP2 SWAP1 POP SSTORE POP PUSH1 0x0 PUSH1 0x2 SWAP1 POP PUSH1 0x0 DUP2 TIMESTAMP DUP4 PUSH1 0x1 SLOAD PUSH1 0x40 MLOAD PUSH1 0x20 ADD PUSH2 0xA8B SWAP4 SWAP3 SWAP2 SWAP1 PUSH2 0x17EA JUMP JUMPDEST PUSH1 0x40 MLOAD PUSH1 0x20 DUP2 DUP4 SUB SUB DUP2 MSTORE SWAP1 PUSH1 0x40 MSTORE DUP1 MLOAD SWAP1 PUSH1 0x20 ADD KECCAK256 PUSH1 0x0 SHR PUSH2 0xAAE SWAP2 SWAP1 PUSH2 0x1C95 JUMP JUMPDEST SWAP1 POP PUSH1 0x0 JUMPDEST PUSH1 0x6 DUP1 SLOAD SWAP1 POP DUP2 LT ISZERO PUSH2 0xCB5 JUMPI PUSH1 0x6 DUP2 DUP2 SLOAD DUP2 LT PUSH2 0xAD4 JUMPI PUSH2 0xAD3 PUSH2 0x1D53 JUMP JUMPDEST JUMPDEST SWAP1 PUSH1 0x0 MSTORE PUSH1 0x20 PUSH1 0x0 KECCAK256 SWAP1 PUSH1 0x8 MUL ADD PUSH1 0x0 ADD PUSH1 0x0 SWAP1 SLOAD SWAP1 PUSH2 0x100 EXP SWAP1 DIV PUSH20 0xFFFFFFFFFFFFFFFFFFFFFFFFFFFFFFFFFFFFFFFF AND PUSH20 0xFFFFFFFFFFFFFFFFFFFFFFFFFFFFFFFFFFFFFFFF AND CALLER PUSH20 0xFFFFFFFFFFFFFFFFFFFFFFFFFFFFFFFFFFFFFFFF AND EQ ISZERO PUSH2 0xCA2 JUMPI PUSH1 0x0 DUP3 EQ ISZERO PUSH2 0xC2A JUMPI PUSH2 0xB4A PUSH2 0x1268 JUMP JUMPDEST PUSH1 0x6 DUP2 DUP2 SLOAD DUP2 LT PUSH2 0xB5E JUMPI PUSH2 0xB5D PUSH2 0x1D53 JUMP JUMPDEST JUMPDEST SWAP1 PUSH1 0x0 MSTORE PUSH1 0x20 PUSH1 0x0 KECCAK256 SWAP1 PUSH1 0x8 MUL ADD PUSH1 0x4 ADD PUSH1 0x0 DUP2 SLOAD DUP1 SWAP3 SWAP2 SWAP1 PUSH2 0xB80 SWAP1 PUSH2 0x1C15 JUMP JUMPDEST SWAP2 SWAP1 POP SSTORE POP PUSH1 0x6 DUP2 DUP2 SLOAD DUP2 LT PUSH2 0xB99 JUMPI PUSH2 0xB98 PUSH2 0x1D53 JUMP JUMPDEST JUMPDEST SWAP1 PUSH1 0x0 MSTORE PUSH1 0x20 PUSH1 0x0 KECCAK256 SWAP1 PUSH1 0x8 MUL ADD PUSH1 0x7 ADD PUSH1 0x0 DUP2 DUP2 SWAP1 SLOAD SWAP1 PUSH2 0x100 EXP SWAP1 DIV PUSH4 0xFFFFFFFF AND DUP1 SWAP3 SWAP2 SWAP1 PUSH2 0xBCA SWAP1 PUSH2 0x1C5E JUMP JUMPDEST SWAP2 SWAP1 PUSH2 0x100 EXP DUP2 SLOAD DUP2 PUSH4 0xFFFFFFFF MUL NOT AND SWAP1 DUP4 PUSH4 0xFFFFFFFF AND MUL OR SWAP1 SSTORE POP POP PUSH1 0x40 MLOAD DUP1 PUSH1 0x40 ADD PUSH1 0x40 MSTORE DUP1 PUSH1 0xA DUP2 MSTORE PUSH1 0x20 ADD PUSH32 0x4861732067616E61646F00000000000000000000000000000000000000000000 DUP2 MSTORE POP SWAP5 POP POP POP POP POP PUSH2 0xCBB JUMP JUMPDEST PUSH32 0xA28482EEC3136A2461C6C30C08F71BA279C6C51A2D9C7BEA4E50D6D2632F3896 DUP5 PUSH1 0x40 MLOAD PUSH2 0xC59 SWAP2 SWAP1 PUSH2 0x19CA JUMP JUMPDEST PUSH1 0x40 MLOAD DUP1 SWAP2 SUB SWAP1 LOG1 PUSH1 0x40 MLOAD DUP1 PUSH1 0x40 ADD PUSH1 0x40 MSTORE DUP1 PUSH1 0xB DUP2 MSTORE PUSH1 0x20 ADD PUSH32 0x486173207065726469646F000000000000000000000000000000000000000000 DUP2 MSTORE POP SWAP5 POP POP POP POP POP PUSH2 0xCBB JUMP JUMPDEST DUP1 DUP1 PUSH2 0xCAD SWAP1 PUSH2 0x1C15 JUMP JUMPDEST SWAP2 POP POP PUSH2 0xAB3 JUMP JUMPDEST POP POP POP POP JUMPDEST JUMPDEST SWAP2 SWAP1 POP JUMP JUMPDEST PUSH2 0xCC8 PUSH2 0x1260 JUMP JUMPDEST PUSH20 0xFFFFFFFFFFFFFFFFFFFFFFFFFFFFFFFFFFFFFFFF AND PUSH2 0xCE6 PUSH2 0xD7B JUMP JUMPDEST PUSH20 0xFFFFFFFFFFFFFFFFFFFFFFFFFFFFFFFFFFFFFFFF AND EQ PUSH2 0xD3C JUMPI PUSH1 0x40 MLOAD PUSH32 0x8C379A000000000000000000000000000000000000000000000000000000000 DUP2 MSTORE PUSH1 0x4 ADD PUSH2 0xD33 SWAP1 PUSH2 0x19AA JUMP JUMPDEST PUSH1 0x40 MLOAD DUP1 SWAP2 SUB SWAP1 REVERT JUMPDEST PUSH2 0xD46 PUSH1 0x0 PUSH2 0x12B1 JUMP JUMPDEST JUMP JUMPDEST PUSH1 0x7 PUSH1 0x20 MSTORE DUP1 PUSH1 0x0 MSTORE PUSH1 0x40 PUSH1 0x0 KECCAK256 PUSH1 0x0 SWAP2 POP SLOAD SWAP1 PUSH2 0x100 EXP SWAP1 DIV PUSH20 0xFFFFFFFFFFFFFFFFFFFFFFFFFFFFFFFFFFFFFFFF AND DUP2 JUMP JUMPDEST PUSH1 0x0 DUP1 PUSH1 0x0 SWAP1 SLOAD SWAP1 PUSH2 0x100 EXP SWAP1 DIV PUSH20 0xFFFFFFFFFFFFFFFFFFFFFFFFFFFFFFFFFFFFFFFF AND SWAP1 POP SWAP1 JUMP JUMPDEST PUSH1 0x0 DUP1 SLOAD SWAP1 PUSH2 0x100 EXP SWAP1 DIV PUSH20 0xFFFFFFFFFFFFFFFFFFFFFFFFFFFFFFFFFFFFFFFF AND DUP2 JUMP JUMPDEST PUSH1 0x6 DUP2 DUP2 SLOAD DUP2 LT PUSH2 0xDD8 JUMPI PUSH1 0x0 DUP1 REVERT JUMPDEST SWAP1 PUSH1 0x0 MSTORE PUSH1 0x20 PUSH1 0x0 KECCAK256 SWAP1 PUSH1 0x8 MUL ADD PUSH1 0x0 SWAP2 POP SWAP1 POP DUP1 PUSH1 0x0 ADD PUSH1 0x0 SWAP1 SLOAD SWAP1 PUSH2 0x100 EXP SWAP1 DIV PUSH20 0xFFFFFFFFFFFFFFFFFFFFFFFFFFFFFFFFFFFFFFFF AND SWAP1 DUP1 PUSH1 0x1 ADD DUP1 SLOAD PUSH2 0xE21 SWAP1 PUSH2 0x1BB2 JUMP JUMPDEST DUP1 PUSH1 0x1F ADD PUSH1 0x20 DUP1 SWAP2 DIV MUL PUSH1 0x20 ADD PUSH1 0x40 MLOAD SWAP1 DUP2 ADD PUSH1 0x40 MSTORE DUP1 SWAP3 SWAP2 SWAP1 DUP2 DUP2 MSTORE PUSH1 0x20 ADD DUP3 DUP1 SLOAD PUSH2 0xE4D SWAP1 PUSH2 0x1BB2 JUMP JUMPDEST DUP1 ISZERO PUSH2 0xE9A JUMPI DUP1 PUSH1 0x1F LT PUSH2 0xE6F JUMPI PUSH2 0x100 DUP1 DUP4 SLOAD DIV MUL DUP4 MSTORE SWAP2 PUSH1 0x20 ADD SWAP2 PUSH2 0xE9A JUMP JUMPDEST DUP3 ADD SWAP2 SWAP1 PUSH1 0x0 MSTORE PUSH1 0x20 PUSH1 0x0 KECCAK256 SWAP1 JUMPDEST DUP2 SLOAD DUP2 MSTORE SWAP1 PUSH1 0x1 ADD SWAP1 PUSH1 0x20 ADD DUP1 DUP4 GT PUSH2 0xE7D JUMPI DUP3 SWAP1 SUB PUSH1 0x1F AND DUP3 ADD SWAP2 JUMPDEST POP POP POP POP POP SWAP1 DUP1 PUSH1 0x2 ADD DUP1 SLOAD PUSH2 0xEAF SWAP1 PUSH2 0x1BB2 JUMP JUMPDEST DUP1 PUSH1 0x1F ADD PUSH1 0x20 DUP1 SWAP2 DIV MUL PUSH1 0x20 ADD PUSH1 0x40 MLOAD SWAP1 DUP2 ADD PUSH1 0x40 MSTORE DUP1 SWAP3 SWAP2 SWAP1 DUP2 DUP2 MSTORE PUSH1 0x20 ADD DUP3 DUP1 SLOAD PUSH2 0xEDB SWAP1 PUSH2 0x1BB2 JUMP JUMPDEST DUP1 ISZERO PUSH2 0xF28 JUMPI DUP1 PUSH1 0x1F LT PUSH2 0xEFD JUMPI PUSH2 0x100 DUP1 DUP4 SLOAD DIV MUL DUP4 MSTORE SWAP2 PUSH1 0x20 ADD SWAP2 PUSH2 0xF28 JUMP JUMPDEST DUP3 ADD SWAP2 SWAP1 PUSH1 0x0 MSTORE PUSH1 0x20 PUSH1 0x0 KECCAK256 SWAP1 JUMPDEST DUP2 SLOAD DUP2 MSTORE SWAP1 PUSH1 0x1 ADD SWAP1 PUSH1 0x20 ADD DUP1 DUP4 GT PUSH2 0xF0B JUMPI DUP3 SWAP1 SUB PUSH1 0x1F AND DUP3 ADD SWAP2 JUMPDEST POP POP POP POP POP SWAP1 DUP1 PUSH1 0x3 ADD DUP1 SLOAD PUSH2 0xF3D SWAP1 PUSH2 0x1BB2 JUMP JUMPDEST DUP1 PUSH1 0x1F ADD PUSH1 0x20 DUP1 SWAP2 DIV MUL PUSH1 0x20 ADD PUSH1 0x40 MLOAD SWAP1 DUP2 ADD PUSH1 0x40 MSTORE DUP1 SWAP3 SWAP2 SWAP1 DUP2 DUP2 MSTORE PUSH1 0x20 ADD DUP3 DUP1 SLOAD PUSH2 0xF69 SWAP1 PUSH2 0x1BB2 JUMP JUMPDEST DUP1 ISZERO PUSH2 0xFB6 JUMPI DUP1 PUSH1 0x1F LT PUSH2 0xF8B JUMPI PUSH2 0x100 DUP1 DUP4 SLOAD DIV MUL DUP4 MSTORE SWAP2 PUSH1 0x20 ADD SWAP2 PUSH2 0xFB6 JUMP JUMPDEST DUP3 ADD SWAP2 SWAP1 PUSH1 0x0 MSTORE PUSH1 0x20 PUSH1 0x0 KECCAK256 SWAP1 JUMPDEST DUP2 SLOAD DUP2 MSTORE SWAP1 PUSH1 0x1 ADD SWAP1 PUSH1 0x20 ADD DUP1 DUP4 GT PUSH2 0xF99 JUMPI DUP3 SWAP1 SUB PUSH1 0x1F AND DUP3 ADD SWAP2 JUMPDEST POP POP POP POP POP SWAP1 DUP1 PUSH1 0x4 ADD SLOAD SWAP1 DUP1 PUSH1 0x5 ADD SLOAD SWAP1 DUP1 PUSH1 0x6 ADD SLOAD SWAP1 DUP1 PUSH1 0x7 ADD PUSH1 0x0 SWAP1 SLOAD SWAP1 PUSH2 0x100 EXP SWAP1 DIV PUSH4 0xFFFFFFFF AND SWAP1 POP DUP9 JUMP JUMPDEST PUSH1 0x0 JUMPDEST PUSH1 0x6 DUP1 SLOAD SWAP1 POP DUP2 LT ISZERO PUSH2 0x1164 JUMPI DUP2 PUSH20 0xFFFFFFFFFFFFFFFFFFFFFFFFFFFFFFFFFFFFFFFF AND PUSH1 0x6 DUP3 DUP2 SLOAD DUP2 LT PUSH2 0x1023 JUMPI PUSH2 0x1022 PUSH2 0x1D53 JUMP JUMPDEST JUMPDEST SWAP1 PUSH1 0x0 MSTORE PUSH1 0x20 PUSH1 0x0 KECCAK256 SWAP1 PUSH1 0x8 MUL ADD PUSH1 0x0 ADD PUSH1 0x0 SWAP1 SLOAD SWAP1 PUSH2 0x100 EXP SWAP1 DIV PUSH20 0xFFFFFFFFFFFFFFFFFFFFFFFFFFFFFFFFFFFFFFFF AND PUSH20 0xFFFFFFFFFFFFFFFFFFFFFFFFFFFFFFFFFFFFFFFF AND EQ ISZERO PUSH2 0x1151 JUMPI PUSH32 0x18C2885DBBFFC4E127DA047B869295B42D8D5EE97848F7F117B062E88F34A9E6 PUSH1 0x6 DUP3 DUP2 SLOAD DUP2 LT PUSH2 0x10A6 JUMPI PUSH2 0x10A5 PUSH2 0x1D53 JUMP JUMPDEST JUMPDEST SWAP1 PUSH1 0x0 MSTORE PUSH1 0x20 PUSH1 0x0 KECCAK256 SWAP1 PUSH1 0x8 MUL ADD PUSH1 0x2 ADD PUSH1 0x6 DUP4 DUP2 SLOAD DUP2 LT PUSH2 0x10CB JUMPI PUSH2 0x10CA PUSH2 0x1D53 JUMP JUMPDEST JUMPDEST SWAP1 PUSH1 0x0 MSTORE PUSH1 0x20 PUSH1 0x0 KECCAK256 SWAP1 PUSH1 0x8 MUL ADD PUSH1 0x1 ADD PUSH1 0x6 DUP5 DUP2 SLOAD DUP2 LT PUSH2 0x10F0 JUMPI PUSH2 0x10EF PUSH2 0x1D53 JUMP JUMPDEST JUMPDEST SWAP1 PUSH1 0x0 MSTORE PUSH1 0x20 PUSH1 0x0 KECCAK256 SWAP1 PUSH1 0x8 MUL ADD PUSH1 0x7 ADD PUSH1 0x0 SWAP1 SLOAD SWAP1 PUSH2 0x100 EXP SWAP1 DIV PUSH4 0xFFFFFFFF AND PUSH1 0x6 DUP6 DUP2 SLOAD DUP2 LT PUSH2 0x1126 JUMPI PUSH2 0x1125 PUSH2 0x1D53 JUMP JUMPDEST JUMPDEST SWAP1 PUSH1 0x0 MSTORE PUSH1 0x20 PUSH1 0x0 KECCAK256 SWAP1 PUSH1 0x8 MUL ADD PUSH1 0x4 ADD SLOAD PUSH1 0x40 MLOAD PUSH2 0x1148 SWAP5 SWAP4 SWAP3 SWAP2 SWAP1 PUSH2 0x18F7 JUMP JUMPDEST PUSH1 0x40 MLOAD DUP1 SWAP2 SUB SWAP1 LOG1 JUMPDEST DUP1 DUP1 PUSH2 0x115C SWAP1 PUSH2 0x1C15 JUMP JUMPDEST SWAP2 POP POP PUSH2 0xFEB JUMP JUMPDEST POP POP JUMP JUMPDEST PUSH2 0x1170 PUSH2 0x1260 JUMP JUMPDEST PUSH20 0xFFFFFFFFFFFFFFFFFFFFFFFFFFFFFFFFFFFFFFFF AND PUSH2 0x118E PUSH2 0xD7B JUMP JUMPDEST PUSH20 0xFFFFFFFFFFFFFFFFFFFFFFFFFFFFFFFFFFFFFFFF AND EQ PUSH2 0x11E4 JUMPI PUSH1 0x40 MLOAD PUSH32 0x8C379A000000000000000000000000000000000000000000000000000000000 DUP2 MSTORE PUSH1 0x4 ADD PUSH2 0x11DB SWAP1 PUSH2 0x19AA JUMP JUMPDEST PUSH1 0x40 MLOAD DUP1 SWAP2 SUB SWAP1 REVERT JUMPDEST PUSH1 0x0 PUSH20 0xFFFFFFFFFFFFFFFFFFFFFFFFFFFFFFFFFFFFFFFF AND DUP2 PUSH20 0xFFFFFFFFFFFFFFFFFFFFFFFFFFFFFFFFFFFFFFFF AND EQ ISZERO PUSH2 0x1254 JUMPI PUSH1 0x40 MLOAD PUSH32 0x8C379A000000000000000000000000000000000000000000000000000000000 DUP2 MSTORE PUSH1 0x4 ADD PUSH2 0x124B SWAP1 PUSH2 0x196A JUMP JUMPDEST PUSH1 0x40 MLOAD DUP1 SWAP2 SUB SWAP1 REVERT JUMPDEST PUSH2 0x125D DUP2 PUSH2 0x12B1 JUMP JUMPDEST POP JUMP JUMPDEST PUSH1 0x0 CALLER SWAP1 POP SWAP1 JUMP JUMPDEST CALLER PUSH20 0xFFFFFFFFFFFFFFFFFFFFFFFFFFFFFFFFFFFFFFFF AND PUSH2 0x8FC SELFBALANCE SWAP1 DUP2 ISZERO MUL SWAP1 PUSH1 0x40 MLOAD PUSH1 0x0 PUSH1 0x40 MLOAD DUP1 DUP4 SUB DUP2 DUP6 DUP9 DUP9 CALL SWAP4 POP POP POP POP ISZERO DUP1 ISZERO PUSH2 0x12AE JUMPI RETURNDATASIZE PUSH1 0x0 DUP1 RETURNDATACOPY RETURNDATASIZE PUSH1 0x0 REVERT JUMPDEST POP JUMP JUMPDEST PUSH1 0x0 DUP1 PUSH1 0x0 SWAP1 SLOAD SWAP1 PUSH2 0x100 EXP SWAP1 DIV PUSH20 0xFFFFFFFFFFFFFFFFFFFFFFFFFFFFFFFFFFFFFFFF AND SWAP1 POP DUP2 PUSH1 0x0 DUP1 PUSH2 0x100 EXP DUP2 SLOAD DUP2 PUSH20 0xFFFFFFFFFFFFFFFFFFFFFFFFFFFFFFFFFFFFFFFF MUL NOT AND SWAP1 DUP4 PUSH20 0xFFFFFFFFFFFFFFFFFFFFFFFFFFFFFFFFFFFFFFFF AND MUL OR SWAP1 SSTORE POP DUP2 PUSH20 0xFFFFFFFFFFFFFFFFFFFFFFFFFFFFFFFFFFFFFFFF AND DUP2 PUSH20 0xFFFFFFFFFFFFFFFFFFFFFFFFFFFFFFFFFFFFFFFF AND PUSH32 0x8BE0079C531659141344CD1FD0A4F28419497F9722A3DAAFE3B4186F6B6457E0 PUSH1 0x40 MLOAD PUSH1 0x40 MLOAD DUP1 SWAP2 SUB SWAP1 LOG3 POP POP JUMP JUMPDEST DUP3 DUP1 SLOAD PUSH2 0x1381 SWAP1 PUSH2 0x1BB2 JUMP JUMPDEST SWAP1 PUSH1 0x0 MSTORE PUSH1 0x20 PUSH1 0x0 KECCAK256 SWAP1 PUSH1 0x1F ADD PUSH1 0x20 SWAP1 DIV DUP2 ADD SWAP3 DUP3 PUSH2 0x13A3 JUMPI PUSH1 0x0 DUP6 SSTORE PUSH2 0x13EA JUMP JUMPDEST DUP3 PUSH1 0x1F LT PUSH2 0x13BC JUMPI DUP1 MLOAD PUSH1 0xFF NOT AND DUP4 DUP1 ADD OR DUP6 SSTORE PUSH2 0x13EA JUMP JUMPDEST DUP3 DUP1 ADD PUSH1 0x1 ADD DUP6 SSTORE DUP3 ISZERO PUSH2 0x13EA JUMPI SWAP2 DUP3 ADD JUMPDEST DUP3 DUP2 GT ISZERO PUSH2 0x13E9 JUMPI DUP3 MLOAD DUP3 SSTORE SWAP2 PUSH1 0x20 ADD SWAP2 SWAP1 PUSH1 0x1 ADD SWAP1 PUSH2 0x13CE JUMP JUMPDEST JUMPDEST POP SWAP1 POP PUSH2 0x13F7 SWAP2 SWAP1 PUSH2 0x13FB JUMP JUMPDEST POP SWAP1 JUMP JUMPDEST JUMPDEST DUP1 DUP3 GT ISZERO PUSH2 0x1414 JUMPI PUSH1 0x0 DUP2 PUSH1 0x0 SWAP1 SSTORE POP PUSH1 0x1 ADD PUSH2 0x13FC JUMP JUMPDEST POP SWAP1 JUMP JUMPDEST PUSH1 0x0 PUSH2 0x142B PUSH2 0x1426 DUP5 PUSH2 0x1A38 JUMP JUMPDEST PUSH2 0x1A13 JUMP JUMPDEST SWAP1 POP DUP3 DUP2 MSTORE PUSH1 0x20 DUP2 ADD DUP5 DUP5 DUP5 ADD GT ISZERO PUSH2 0x1447 JUMPI PUSH2 0x1446 PUSH2 0x1DB6 JUMP JUMPDEST JUMPDEST PUSH2 0x1452 DUP5 DUP3 DUP6 PUSH2 0x1B70 JUMP JUMPDEST POP SWAP4 SWAP3 POP POP POP JUMP JUMPDEST PUSH1 0x0 DUP2 CALLDATALOAD SWAP1 POP PUSH2 0x1469 DUP2 PUSH2 0x1F15 JUMP JUMPDEST SWAP3 SWAP2 POP POP JUMP JUMPDEST PUSH1 0x0 DUP3 PUSH1 0x1F DUP4 ADD SLT PUSH2 0x1484 JUMPI PUSH2 0x1483 PUSH2 0x1DB1 JUMP JUMPDEST JUMPDEST DUP2 CALLDATALOAD PUSH2 0x1494 DUP5 DUP3 PUSH1 0x20 DUP7 ADD PUSH2 0x1418 JUMP JUMPDEST SWAP2 POP POP SWAP3 SWAP2 POP POP JUMP JUMPDEST PUSH1 0x0 DUP2 CALLDATALOAD SWAP1 POP PUSH2 0x14AC DUP2 PUSH2 0x1F2C JUMP JUMPDEST SWAP3 SWAP2 POP POP JUMP JUMPDEST PUSH1 0x0 PUSH1 0x20 DUP3 DUP5 SUB SLT ISZERO PUSH2 0x14C8 JUMPI PUSH2 0x14C7 PUSH2 0x1DC0 JUMP JUMPDEST JUMPDEST PUSH1 0x0 PUSH2 0x14D6 DUP5 DUP3 DUP6 ADD PUSH2 0x145A JUMP JUMPDEST SWAP2 POP POP SWAP3 SWAP2 POP POP JUMP JUMPDEST PUSH1 0x0 DUP1 PUSH1 0x0 PUSH1 0x60 DUP5 DUP7 SUB SLT ISZERO PUSH2 0x14F8 JUMPI PUSH2 0x14F7 PUSH2 0x1DC0 JUMP JUMPDEST JUMPDEST PUSH1 0x0 PUSH2 0x1506 DUP7 DUP3 DUP8 ADD PUSH2 0x145A JUMP JUMPDEST SWAP4 POP POP PUSH1 0x20 DUP5 ADD CALLDATALOAD PUSH8 0xFFFFFFFFFFFFFFFF DUP2 GT ISZERO PUSH2 0x1527 JUMPI PUSH2 0x1526 PUSH2 0x1DBB JUMP JUMPDEST JUMPDEST PUSH2 0x1533 DUP7 DUP3 DUP8 ADD PUSH2 0x146F JUMP JUMPDEST SWAP3 POP POP PUSH1 0x40 DUP5 ADD CALLDATALOAD PUSH8 0xFFFFFFFFFFFFFFFF DUP2 GT ISZERO PUSH2 0x1554 JUMPI PUSH2 0x1553 PUSH2 0x1DBB JUMP JUMPDEST JUMPDEST PUSH2 0x1560 DUP7 DUP3 DUP8 ADD PUSH2 0x146F JUMP JUMPDEST SWAP2 POP POP SWAP3 POP SWAP3 POP SWAP3 JUMP JUMPDEST PUSH1 0x0 DUP1 PUSH1 0x0 PUSH1 0x60 DUP5 DUP7 SUB SLT ISZERO PUSH2 0x1583 JUMPI PUSH2 0x1582 PUSH2 0x1DC0 JUMP JUMPDEST JUMPDEST PUSH1 0x0 DUP5 ADD CALLDATALOAD PUSH8 0xFFFFFFFFFFFFFFFF DUP2 GT ISZERO PUSH2 0x15A1 JUMPI PUSH2 0x15A0 PUSH2 0x1DBB JUMP JUMPDEST JUMPDEST PUSH2 0x15AD DUP7 DUP3 DUP8 ADD PUSH2 0x146F JUMP JUMPDEST SWAP4 POP POP PUSH1 0x20 DUP5 ADD CALLDATALOAD PUSH8 0xFFFFFFFFFFFFFFFF DUP2 GT ISZERO PUSH2 0x15CE JUMPI PUSH2 0x15CD PUSH2 0x1DBB JUMP JUMPDEST JUMPDEST PUSH2 0x15DA DUP7 DUP3 DUP8 ADD PUSH2 0x146F JUMP JUMPDEST SWAP3 POP POP PUSH1 0x40 DUP5 ADD CALLDATALOAD PUSH8 0xFFFFFFFFFFFFFFFF DUP2 GT ISZERO PUSH2 0x15FB JUMPI PUSH2 0x15FA PUSH2 0x1DBB JUMP JUMPDEST JUMPDEST PUSH2 0x1607 DUP7 DUP3 DUP8 ADD PUSH2 0x146F JUMP JUMPDEST SWAP2 POP POP SWAP3 POP SWAP3 POP SWAP3 JUMP JUMPDEST PUSH1 0x0 PUSH1 0x20 DUP3 DUP5 SUB SLT ISZERO PUSH2 0x1627 JUMPI PUSH2 0x1626 PUSH2 0x1DC0 JUMP JUMPDEST JUMPDEST PUSH1 0x0 PUSH2 0x1635 DUP5 DUP3 DUP6 ADD PUSH2 0x149D JUMP JUMPDEST SWAP2 POP POP SWAP3 SWAP2 POP POP JUMP JUMPDEST PUSH2 0x1647 DUP2 PUSH2 0x1B24 JUMP JUMPDEST DUP3 MSTORE POP POP JUMP JUMPDEST PUSH1 0x0 PUSH2 0x1658 DUP3 PUSH2 0x1A7E JUMP JUMPDEST PUSH2 0x1662 DUP2 DUP6 PUSH2 0x1A89 JUMP JUMPDEST SWAP4 POP PUSH2 0x1672 DUP2 DUP6 PUSH1 0x20 DUP7 ADD PUSH2 0x1B7F JUMP JUMPDEST PUSH2 0x167B DUP2 PUSH2 0x1DC5 JUMP JUMPDEST DUP5 ADD SWAP2 POP POP SWAP3 SWAP2 POP POP JUMP JUMPDEST PUSH1 0x0 DUP2 SLOAD PUSH2 0x1693 DUP2 PUSH2 0x1BB2 JUMP JUMPDEST PUSH2 0x169D DUP2 DUP7 PUSH2 0x1A89 JUMP JUMPDEST SWAP5 POP PUSH1 0x1 DUP3 AND PUSH1 0x0 DUP2 EQ PUSH2 0x16B8 JUMPI PUSH1 0x1 DUP2 EQ PUSH2 0x16CA JUMPI PUSH2 0x16FD JUMP JUMPDEST PUSH1 0xFF NOT DUP4 AND DUP7 MSTORE PUSH1 0x20 DUP7 ADD SWAP4 POP PUSH2 0x16FD JUMP JUMPDEST PUSH2 0x16D3 DUP6 PUSH2 0x1A69 JUMP JUMPDEST PUSH1 0x0 JUMPDEST DUP4 DUP2 LT ISZERO PUSH2 0x16F5 JUMPI DUP2 SLOAD DUP2 DUP10 ADD MSTORE PUSH1 0x1 DUP3 ADD SWAP2 POP PUSH1 0x20 DUP2 ADD SWAP1 POP PUSH2 0x16D6 JUMP JUMPDEST DUP1 DUP9 ADD SWAP6 POP POP POP JUMPDEST POP POP POP SWAP3 SWAP2 POP POP JUMP JUMPDEST PUSH1 0x0 PUSH2 0x1713 PUSH1 0x28 DUP4 PUSH2 0x1A89 JUMP JUMPDEST SWAP2 POP PUSH2 0x171E DUP3 PUSH2 0x1DD6 JUMP JUMPDEST PUSH1 0x40 DUP3 ADD SWAP1 POP SWAP2 SWAP1 POP JUMP JUMPDEST PUSH1 0x0 PUSH2 0x1736 PUSH1 0x26 DUP4 PUSH2 0x1A89 JUMP JUMPDEST SWAP2 POP PUSH2 0x1741 DUP3 PUSH2 0x1E25 JUMP JUMPDEST PUSH1 0x40 DUP3 ADD SWAP1 POP SWAP2 SWAP1 POP JUMP JUMPDEST PUSH1 0x0 PUSH2 0x1759 PUSH1 0x32 DUP4 PUSH2 0x1A89 JUMP JUMPDEST SWAP2 POP PUSH2 0x1764 DUP3 PUSH2 0x1E74 JUMP JUMPDEST PUSH1 0x40 DUP3 ADD SWAP1 POP SWAP2 SWAP1 POP JUMP JUMPDEST PUSH1 0x0 PUSH2 0x177C PUSH1 0x20 DUP4 PUSH2 0x1A89 JUMP JUMPDEST SWAP2 POP PUSH2 0x1787 DUP3 PUSH2 0x1EC3 JUMP JUMPDEST PUSH1 0x20 DUP3 ADD SWAP1 POP SWAP2 SWAP1 POP JUMP JUMPDEST PUSH1 0x0 PUSH2 0x179F PUSH1 0x15 DUP4 PUSH2 0x1A89 JUMP JUMPDEST SWAP2 POP PUSH2 0x17AA DUP3 PUSH2 0x1EEC JUMP JUMPDEST PUSH1 0x20 DUP3 ADD SWAP1 POP SWAP2 SWAP1 POP JUMP JUMPDEST PUSH2 0x17BE DUP2 PUSH2 0x1B56 JUMP JUMPDEST DUP3 MSTORE POP POP JUMP JUMPDEST PUSH2 0x17D5 PUSH2 0x17D0 DUP3 PUSH2 0x1B56 JUMP JUMPDEST PUSH2 0x1C8B JUMP JUMPDEST DUP3 MSTORE POP POP JUMP JUMPDEST PUSH2 0x17E4 DUP2 PUSH2 0x1B60 JUMP JUMPDEST DUP3 MSTORE POP POP JUMP JUMPDEST PUSH1 0x0 PUSH2 0x17F6 DUP3 DUP7 PUSH2 0x17C4 JUMP JUMPDEST PUSH1 0x20 DUP3 ADD SWAP2 POP PUSH2 0x1806 DUP3 DUP6 PUSH2 0x17C4 JUMP JUMPDEST PUSH1 0x20 DUP3 ADD SWAP2 POP PUSH2 0x1816 DUP3 DUP5 PUSH2 0x17C4 JUMP JUMPDEST PUSH1 0x20 DUP3 ADD SWAP2 POP DUP2 SWAP1 POP SWAP5 SWAP4 POP POP POP POP JUMP JUMPDEST PUSH1 0x0 PUSH1 0x20 DUP3 ADD SWAP1 POP PUSH2 0x183C PUSH1 0x0 DUP4 ADD DUP5 PUSH2 0x163E JUMP JUMPDEST SWAP3 SWAP2 POP POP JUMP JUMPDEST PUSH1 0x0 PUSH2 0x100 DUP3 ADD SWAP1 POP PUSH2 0x1858 PUSH1 0x0 DUP4 ADD DUP12 PUSH2 0x163E JUMP JUMPDEST DUP2 DUP2 SUB PUSH1 0x20 DUP4 ADD MSTORE PUSH2 0x186A DUP2 DUP11 PUSH2 0x164D JUMP JUMPDEST SWAP1 POP DUP2 DUP2 SUB PUSH1 0x40 DUP4 ADD MSTORE PUSH2 0x187E DUP2 DUP10 PUSH2 0x164D JUMP JUMPDEST SWAP1 POP DUP2 DUP2 SUB PUSH1 0x60 DUP4 ADD MSTORE PUSH2 0x1892 DUP2 DUP9 PUSH2 0x164D JUMP JUMPDEST SWAP1 POP PUSH2 0x18A1 PUSH1 0x80 DUP4 ADD DUP8 PUSH2 0x17B5 JUMP JUMPDEST PUSH2 0x18AE PUSH1 0xA0 DUP4 ADD DUP7 PUSH2 0x17B5 JUMP JUMPDEST PUSH2 0x18BB PUSH1 0xC0 DUP4 ADD DUP6 PUSH2 0x17B5 JUMP JUMPDEST PUSH2 0x18C8 PUSH1 0xE0 DUP4 ADD DUP5 PUSH2 0x17DB JUMP JUMPDEST SWAP10 SWAP9 POP POP POP POP POP POP POP POP POP JUMP JUMPDEST PUSH1 0x0 PUSH1 0x20 DUP3 ADD SWAP1 POP DUP2 DUP2 SUB PUSH1 0x0 DUP4 ADD MSTORE PUSH2 0x18EF DUP2 DUP5 PUSH2 0x164D JUMP JUMPDEST SWAP1 POP SWAP3 SWAP2 POP POP JUMP JUMPDEST PUSH1 0x0 PUSH1 0x80 DUP3 ADD SWAP1 POP DUP2 DUP2 SUB PUSH1 0x0 DUP4 ADD MSTORE PUSH2 0x1911 DUP2 DUP8 PUSH2 0x1686 JUMP JUMPDEST SWAP1 POP DUP2 DUP2 SUB PUSH1 0x20 DUP4 ADD MSTORE PUSH2 0x1925 DUP2 DUP7 PUSH2 0x1686 JUMP JUMPDEST SWAP1 POP PUSH2 0x1934 PUSH1 0x40 DUP4 ADD DUP6 PUSH2 0x17DB JUMP JUMPDEST PUSH2 0x1941 PUSH1 0x60 DUP4 ADD DUP5 PUSH2 0x17B5 JUMP JUMPDEST SWAP6 SWAP5 POP POP POP POP POP JUMP JUMPDEST PUSH1 0x0 PUSH1 0x20 DUP3 ADD SWAP1 POP DUP2 DUP2 SUB PUSH1 0x0 DUP4 ADD MSTORE PUSH2 0x1963 DUP2 PUSH2 0x1706 JUMP JUMPDEST SWAP1 POP SWAP2 SWAP1 POP JUMP JUMPDEST PUSH1 0x0 PUSH1 0x20 DUP3 ADD SWAP1 POP DUP2 DUP2 SUB PUSH1 0x0 DUP4 ADD MSTORE PUSH2 0x1983 DUP2 PUSH2 0x1729 JUMP JUMPDEST SWAP1 POP SWAP2 SWAP1 POP JUMP JUMPDEST PUSH1 0x0 PUSH1 0x20 DUP3 ADD SWAP1 POP DUP2 DUP2 SUB PUSH1 0x0 DUP4 ADD MSTORE PUSH2 0x19A3 DUP2 PUSH2 0x174C JUMP JUMPDEST SWAP1 POP SWAP2 SWAP1 POP JUMP JUMPDEST PUSH1 0x0 PUSH1 0x20 DUP3 ADD SWAP1 POP DUP2 DUP2 SUB PUSH1 0x0 DUP4 ADD MSTORE PUSH2 0x19C3 DUP2 PUSH2 0x176F JUMP JUMPDEST SWAP1 POP SWAP2 SWAP1 POP JUMP JUMPDEST PUSH1 0x0 PUSH1 0x40 DUP3 ADD SWAP1 POP DUP2 DUP2 SUB PUSH1 0x0 DUP4 ADD MSTORE PUSH2 0x19E3 DUP2 PUSH2 0x1792 JUMP JUMPDEST SWAP1 POP PUSH2 0x19F2 PUSH1 0x20 DUP4 ADD DUP5 PUSH2 0x17B5 JUMP JUMPDEST SWAP3 SWAP2 POP POP JUMP JUMPDEST PUSH1 0x0 PUSH1 0x20 DUP3 ADD SWAP1 POP PUSH2 0x1A0D PUSH1 0x0 DUP4 ADD DUP5 PUSH2 0x17B5 JUMP JUMPDEST SWAP3 SWAP2 POP POP JUMP JUMPDEST PUSH1 0x0 PUSH2 0x1A1D PUSH2 0x1A2E JUMP JUMPDEST SWAP1 POP PUSH2 0x1A29 DUP3 DUP3 PUSH2 0x1BE4 JUMP JUMPDEST SWAP2 SWAP1 POP JUMP JUMPDEST PUSH1 0x0 PUSH1 0x40 MLOAD SWAP1 POP SWAP1 JUMP JUMPDEST PUSH1 0x0 PUSH8 0xFFFFFFFFFFFFFFFF DUP3 GT ISZERO PUSH2 0x1A53 JUMPI PUSH2 0x1A52 PUSH2 0x1D82 JUMP JUMPDEST JUMPDEST PUSH2 0x1A5C DUP3 PUSH2 0x1DC5 JUMP JUMPDEST SWAP1 POP PUSH1 0x20 DUP2 ADD SWAP1 POP SWAP2 SWAP1 POP JUMP JUMPDEST PUSH1 0x0 DUP2 SWAP1 POP DUP2 PUSH1 0x0 MSTORE PUSH1 0x20 PUSH1 0x0 KECCAK256 SWAP1 POP SWAP2 SWAP1 POP JUMP JUMPDEST PUSH1 0x0 DUP2 MLOAD SWAP1 POP SWAP2 SWAP1 POP JUMP JUMPDEST PUSH1 0x0 DUP3 DUP3 MSTORE PUSH1 0x20 DUP3 ADD SWAP1 POP SWAP3 SWAP2 POP POP JUMP JUMPDEST PUSH1 0x0 PUSH2 0x1AA5 DUP3 PUSH2 0x1B56 JUMP JUMPDEST SWAP2 POP PUSH2 0x1AB0 DUP4 PUSH2 0x1B56 JUMP JUMPDEST SWAP3 POP DUP3 PUSH32 0xFFFFFFFFFFFFFFFFFFFFFFFFFFFFFFFFFFFFFFFFFFFFFFFFFFFFFFFFFFFFFFFF SUB DUP3 GT ISZERO PUSH2 0x1AE5 JUMPI PUSH2 0x1AE4 PUSH2 0x1CC6 JUMP JUMPDEST JUMPDEST DUP3 DUP3 ADD SWAP1 POP SWAP3 SWAP2 POP POP JUMP JUMPDEST PUSH1 0x0 PUSH2 0x1AFB DUP3 PUSH2 0x1B56 JUMP JUMPDEST SWAP2 POP PUSH2 0x1B06 DUP4 PUSH2 0x1B56 JUMP JUMPDEST SWAP3 POP DUP3 DUP3 LT ISZERO PUSH2 0x1B19 JUMPI PUSH2 0x1B18 PUSH2 0x1CC6 JUMP JUMPDEST JUMPDEST DUP3 DUP3 SUB SWAP1 POP SWAP3 SWAP2 POP POP JUMP JUMPDEST PUSH1 0x0 PUSH2 0x1B2F DUP3 PUSH2 0x1B36 JUMP JUMPDEST SWAP1 POP SWAP2 SWAP1 POP JUMP JUMPDEST PUSH1 0x0 PUSH20 0xFFFFFFFFFFFFFFFFFFFFFFFFFFFFFFFFFFFFFFFF DUP3 AND SWAP1 POP SWAP2 SWAP1 POP JUMP JUMPDEST PUSH1 0x0 DUP2 SWAP1 POP SWAP2 SWAP1 POP JUMP JUMPDEST PUSH1 0x0 PUSH4 0xFFFFFFFF DUP3 AND SWAP1 POP SWAP2 SWAP1 POP JUMP JUMPDEST DUP3 DUP2 DUP4 CALLDATACOPY PUSH1 0x0 DUP4 DUP4 ADD MSTORE POP POP POP JUMP JUMPDEST PUSH1 0x0 JUMPDEST DUP4 DUP2 LT ISZERO PUSH2 0x1B9D JUMPI DUP1 DUP3 ADD MLOAD DUP2 DUP5 ADD MSTORE PUSH1 0x20 DUP2 ADD SWAP1 POP PUSH2 0x1B82 JUMP JUMPDEST DUP4 DUP2 GT ISZERO PUSH2 0x1BAC JUMPI PUSH1 0x0 DUP5 DUP5 ADD MSTORE JUMPDEST POP POP POP POP JUMP JUMPDEST PUSH1 0x0 PUSH1 0x2 DUP3 DIV SWAP1 POP PUSH1 0x1 DUP3 AND DUP1 PUSH2 0x1BCA JUMPI PUSH1 0x7F DUP3 AND SWAP2 POP JUMPDEST PUSH1 0x20 DUP3 LT DUP2 EQ ISZERO PUSH2 0x1BDE JUMPI PUSH2 0x1BDD PUSH2 0x1D24 JUMP JUMPDEST JUMPDEST POP SWAP2 SWAP1 POP JUMP JUMPDEST PUSH2 0x1BED DUP3 PUSH2 0x1DC5 JUMP JUMPDEST DUP2 ADD DUP2 DUP2 LT PUSH8 0xFFFFFFFFFFFFFFFF DUP3 GT OR ISZERO PUSH2 0x1C0C JUMPI PUSH2 0x1C0B PUSH2 0x1D82 JUMP JUMPDEST JUMPDEST DUP1 PUSH1 0x40 MSTORE POP POP POP JUMP JUMPDEST PUSH1 0x0 PUSH2 0x1C20 DUP3 PUSH2 0x1B56 JUMP JUMPDEST SWAP2 POP PUSH32 0xFFFFFFFFFFFFFFFFFFFFFFFFFFFFFFFFFFFFFFFFFFFFFFFFFFFFFFFFFFFFFFFF DUP3 EQ ISZERO PUSH2 0x1C53 JUMPI PUSH2 0x1C52 PUSH2 0x1CC6 JUMP JUMPDEST JUMPDEST PUSH1 0x1 DUP3 ADD SWAP1 POP SWAP2 SWAP1 POP JUMP JUMPDEST PUSH1 0x0 PUSH2 0x1C69 DUP3 PUSH2 0x1B60 JUMP JUMPDEST SWAP2 POP PUSH4 0xFFFFFFFF DUP3 EQ ISZERO PUSH2 0x1C80 JUMPI PUSH2 0x1C7F PUSH2 0x1CC6 JUMP JUMPDEST JUMPDEST PUSH1 0x1 DUP3 ADD SWAP1 POP SWAP2 SWAP1 POP JUMP JUMPDEST PUSH1 0x0 DUP2 SWAP1 POP SWAP2 SWAP1 POP JUMP JUMPDEST PUSH1 0x0 PUSH2 0x1CA0 DUP3 PUSH2 0x1B56 JUMP JUMPDEST SWAP2 POP PUSH2 0x1CAB DUP4 PUSH2 0x1B56 JUMP JUMPDEST SWAP3 POP DUP3 PUSH2 0x1CBB JUMPI PUSH2 0x1CBA PUSH2 0x1CF5 JUMP JUMPDEST JUMPDEST DUP3 DUP3 MOD SWAP1 POP SWAP3 SWAP2 POP POP JUMP JUMPDEST PUSH32 0x4E487B7100000000000000000000000000000000000000000000000000000000 PUSH1 0x0 MSTORE PUSH1 0x11 PUSH1 0x4 MSTORE PUSH1 0x24 PUSH1 0x0 REVERT JUMPDEST PUSH32 0x4E487B7100000000000000000000000000000000000000000000000000000000 PUSH1 0x0 MSTORE PUSH1 0x12 PUSH1 0x4 MSTORE PUSH1 0x24 PUSH1 0x0 REVERT JUMPDEST PUSH32 0x4E487B7100000000000000000000000000000000000000000000000000000000 PUSH1 0x0 MSTORE PUSH1 0x22 PUSH1 0x4 MSTORE PUSH1 0x24 PUSH1 0x0 REVERT JUMPDEST PUSH32 0x4E487B7100000000000000000000000000000000000000000000000000000000 PUSH1 0x0 MSTORE PUSH1 0x32 PUSH1 0x4 MSTORE PUSH1 0x24 PUSH1 0x0 REVERT JUMPDEST PUSH32 0x4E487B7100000000000000000000000000000000000000000000000000000000 PUSH1 0x0 MSTORE PUSH1 0x41 PUSH1 0x4 MSTORE PUSH1 0x24 PUSH1 0x0 REVERT JUMPDEST PUSH1 0x0 DUP1 REVERT JUMPDEST PUSH1 0x0 DUP1 REVERT JUMPDEST PUSH1 0x0 DUP1 REVERT JUMPDEST PUSH1 0x0 DUP1 REVERT JUMPDEST PUSH1 0x0 PUSH1 0x1F NOT PUSH1 0x1F DUP4 ADD AND SWAP1 POP SWAP2 SWAP1 POP JUMP JUMPDEST PUSH32 0x536F6C6F2073652070756564652074656E657220756E20636F63686520706F72 PUSH1 0x0 DUP3 ADD MSTORE PUSH32 0x20706572736F6E61000000000000000000000000000000000000000000000000 PUSH1 0x20 DUP3 ADD MSTORE POP JUMP JUMPDEST PUSH32 0x4F776E61626C653A206E6577206F776E657220697320746865207A65726F2061 PUSH1 0x0 DUP3 ADD MSTORE PUSH32 0x6464726573730000000000000000000000000000000000000000000000000000 PUSH1 0x20 DUP3 ADD MSTORE POP JUMP JUMPDEST PUSH32 0x4E6F2068617920636F6368657320737566696369656E74657320706172612069 PUSH1 0x0 DUP3 ADD MSTORE PUSH32 0x6E696369617220756E6120636172726572610000000000000000000000000000 PUSH1 0x20 DUP3 ADD MSTORE POP JUMP JUMPDEST PUSH32 0x4F776E61626C653A2063616C6C6572206973206E6F7420746865206F776E6572 PUSH1 0x0 DUP3 ADD MSTORE POP JUMP JUMPDEST PUSH32 0x456C20636F6368652067616E61646F722065733A200000000000000000000000 PUSH1 0x0 DUP3 ADD MSTORE POP JUMP JUMPDEST PUSH2 0x1F1E DUP2 PUSH2 0x1B24 JUMP JUMPDEST DUP2 EQ PUSH2 0x1F29 JUMPI PUSH1 0x0 DUP1 REVERT JUMPDEST POP JUMP JUMPDEST PUSH2 0x1F35 DUP2 PUSH2 0x1B56 JUMP JUMPDEST DUP2 EQ PUSH2 0x1F40 JUMPI PUSH1 0x0 DUP1 REVERT JUMPDEST POP JUMP INVALID LOG2 PUSH5 0x6970667358 0x22 SLT KECCAK256 PUSH1 0x7 INVALID SUB SWAP7 STOP LOG1 PUSH17 0x338D513EEC28070A363549D48E39B9B60F 0xA6 DUP4 0xBE 0xFB 0xDF PUSH11 0x8E64736F6C634300080700 CALLER "
				},
				"gasEstimates": {
					"creation": {
						"codeDepositCost": "1611400",
						"executionCost": "infinite",
						"totalCost": "infinite"
					},
					"external": {
						"Apostar(uint256)": "infinite",
						"_owner()": "2533",
						"anadirCoche(string,string,string)": "infinite",
						"cocheDePropietario(uint256)": "2884",
						"comprarCoche(address,string,string)": "infinite",
						"listaCoches(uint256)": "infinite",
						"numeroCochesPersona(address)": "2859",
						"owner()": "2589",
						"renounceOwnership()": "30397",
						"retirarDinero()": "infinite",
						"subirDeNivel(address)": "infinite",
						"transferOwnership(address)": "30811",
						"verCochePropietario(address)": "infinite"
					},
					"internal": {
						"_depositoLleno(struct CarreraCoches.Coche storage pointer)": "infinite",
						"_repostando(struct CarreraCoches.Coche storage pointer)": "infinite",
						"balance()": "infinite",
						"numAleatorio(uint256)": "infinite"
					}
				},
				"methodIdentifiers": {
					"Apostar(uint256)": "6b6f0494",
					"_owner()": "b2bdfa7b",
					"anadirCoche(string,string,string)": "2458c544",
					"cocheDePropietario(uint256)": "858b0554",
					"comprarCoche(address,string,string)": "049a5f65",
					"listaCoches(uint256)": "d735573d",
					"numeroCochesPersona(address)": "1c6743e4",
					"owner()": "8da5cb5b",
					"renounceOwnership()": "715018a6",
					"retirarDinero()": "1bfdc150",
					"subirDeNivel(address)": "6a7d1816",
					"transferOwnership(address)": "f2fde38b",
					"verCochePropietario(address)": "e172fca8"
				}
			},
			"storageLayout": {
				"storage": [
					{
						"astId": 7,
						"contract": "contracts/CarreraCoches/principal.sol:CarreraCoches",
						"label": "_owner",
						"offset": 0,
						"slot": "0",
						"type": "t_address"
					},
					{
						"astId": 129,
						"contract": "contracts/CarreraCoches/principal.sol:CarreraCoches",
						"label": "randNonce",
						"offset": 0,
						"slot": "1",
						"type": "t_uint256"
					},
					{
						"astId": 132,
						"contract": "contracts/CarreraCoches/principal.sol:CarreraCoches",
						"label": "contador",
						"offset": 0,
						"slot": "2",
						"type": "t_uint256"
					},
					{
						"astId": 135,
						"contract": "contracts/CarreraCoches/principal.sol:CarreraCoches",
						"label": "cooldown",
						"offset": 0,
						"slot": "3",
						"type": "t_uint256"
					},
					{
						"astId": 138,
						"contract": "contracts/CarreraCoches/principal.sol:CarreraCoches",
						"label": "subirNivel",
						"offset": 0,
						"slot": "4",
						"type": "t_uint256"
					},
					{
						"astId": 141,
						"contract": "contracts/CarreraCoches/principal.sol:CarreraCoches",
						"label": "cambiarCocheV",
						"offset": 0,
						"slot": "5",
						"type": "t_uint256"
					},
					{
						"astId": 145,
						"contract": "contracts/CarreraCoches/principal.sol:CarreraCoches",
						"label": "listaCoches",
						"offset": 0,
						"slot": "6",
						"type": "t_array(t_struct(Coche)126_storage)dyn_storage"
					},
					{
						"astId": 173,
						"contract": "contracts/CarreraCoches/principal.sol:CarreraCoches",
						"label": "cocheDePropietario",
						"offset": 0,
						"slot": "7",
						"type": "t_mapping(t_uint256,t_address)"
					},
					{
						"astId": 177,
						"contract": "contracts/CarreraCoches/principal.sol:CarreraCoches",
						"label": "numeroCochesPersona",
						"offset": 0,
						"slot": "8",
						"type": "t_mapping(t_address,t_uint256)"
					}
				],
				"types": {
					"t_address": {
						"encoding": "inplace",
						"label": "address",
						"numberOfBytes": "20"
					},
					"t_array(t_struct(Coche)126_storage)dyn_storage": {
						"base": "t_struct(Coche)126_storage",
						"encoding": "dynamic_array",
						"label": "struct CarreraCoches.Coche[]",
						"numberOfBytes": "32"
					},
					"t_mapping(t_address,t_uint256)": {
						"encoding": "mapping",
						"key": "t_address",
						"label": "mapping(address => uint256)",
						"numberOfBytes": "32",
						"value": "t_uint256"
					},
					"t_mapping(t_uint256,t_address)": {
						"encoding": "mapping",
						"key": "t_uint256",
						"label": "mapping(uint256 => address)",
						"numberOfBytes": "32",
						"value": "t_address"
					},
					"t_string_storage": {
						"encoding": "bytes",
						"label": "string",
						"numberOfBytes": "32"
					},
					"t_struct(Coche)126_storage": {
						"encoding": "inplace",
						"label": "struct CarreraCoches.Coche",
						"members": [
							{
								"astId": 111,
								"contract": "contracts/CarreraCoches/principal.sol:CarreraCoches",
								"label": "idPiloto",
								"offset": 0,
								"slot": "0",
								"type": "t_address"
							},
							{
								"astId": 113,
								"contract": "contracts/CarreraCoches/principal.sol:CarreraCoches",
								"label": "modelo",
								"offset": 0,
								"slot": "1",
								"type": "t_string_storage"
							},
							{
								"astId": 115,
								"contract": "contracts/CarreraCoches/principal.sol:CarreraCoches",
								"label": "marca",
								"offset": 0,
								"slot": "2",
								"type": "t_string_storage"
							},
							{
								"astId": 117,
								"contract": "contracts/CarreraCoches/principal.sol:CarreraCoches",
								"label": "nombrePiloto",
								"offset": 0,
								"slot": "3",
								"type": "t_string_storage"
							},
							{
								"astId": 119,
								"contract": "contracts/CarreraCoches/principal.sol:CarreraCoches",
								"label": "carrerasGanadas",
								"offset": 0,
								"slot": "4",
								"type": "t_uint256"
							},
							{
								"astId": 121,
								"contract": "contracts/CarreraCoches/principal.sol:CarreraCoches",
								"label": "carrerasTotales",
								"offset": 0,
								"slot": "5",
								"type": "t_uint256"
							},
							{
								"astId": 123,
								"contract": "contracts/CarreraCoches/principal.sol:CarreraCoches",
								"label": "tiempoEspera",
								"offset": 0,
								"slot": "6",
								"type": "t_uint256"
							},
							{
								"astId": 125,
								"contract": "contracts/CarreraCoches/principal.sol:CarreraCoches",
								"label": "nivel",
								"offset": 0,
								"slot": "7",
								"type": "t_uint32"
							}
						],
						"numberOfBytes": "256"
					},
					"t_uint256": {
						"encoding": "inplace",
						"label": "uint256",
						"numberOfBytes": "32"
					},
					"t_uint32": {
						"encoding": "inplace",
						"label": "uint32",
						"numberOfBytes": "4"
					}
				}
			},
			"userdoc": {
				"kind": "user",
				"methods": {},
				"version": 1
			}
		}
	}
}