{
	"contracts/CarreraCoches/cocheToken.sol": {
		"CocheToken": {
			"abi": [
				{
					"anonymous": false,
					"inputs": [
						{
							"indexed": true,
							"internalType": "address",
							"name": "_owner",
							"type": "address"
						},
						{
							"indexed": true,
							"internalType": "address",
							"name": "_approved",
							"type": "address"
						},
						{
							"indexed": true,
							"internalType": "uint256",
							"name": "_tokenId",
							"type": "uint256"
						}
					],
					"name": "Approval",
					"type": "event"
				},
				{
					"anonymous": false,
					"inputs": [
						{
							"indexed": true,
							"internalType": "address",
							"name": "_owner",
							"type": "address"
						},
						{
							"indexed": true,
							"internalType": "address",
							"name": "_operator",
							"type": "address"
						},
						{
							"indexed": false,
							"internalType": "bool",
							"name": "_approved",
							"type": "bool"
						}
					],
					"name": "ApprovalForAll",
					"type": "event"
				},
				{
					"anonymous": false,
					"inputs": [
						{
							"indexed": true,
							"internalType": "address",
							"name": "previousOwner",
							"type": "address"
						},
						{
							"indexed": true,
							"internalType": "address",
							"name": "newOwner",
							"type": "address"
						}
					],
					"name": "OwnershipTransferred",
					"type": "event"
				},
				{
					"anonymous": false,
					"inputs": [
						{
							"indexed": true,
							"internalType": "address",
							"name": "_from",
							"type": "address"
						},
						{
							"indexed": true,
							"internalType": "address",
							"name": "_to",
							"type": "address"
						},
						{
							"indexed": true,
							"internalType": "uint256",
							"name": "_tokenId",
							"type": "uint256"
						}
					],
					"name": "Transfer",
					"type": "event"
				},
				{
					"anonymous": false,
					"inputs": [
						{
							"indexed": false,
							"internalType": "string",
							"name": "mo",
							"type": "string"
						},
						{
							"indexed": false,
							"internalType": "string",
							"name": "ma",
							"type": "string"
						},
						{
							"indexed": false,
							"internalType": "uint32",
							"name": "niv",
							"type": "uint32"
						},
						{
							"indexed": false,
							"internalType": "uint256",
							"name": "carrGan",
							"type": "uint256"
						},
						{
							"indexed": false,
							"internalType": "uint256",
							"name": "carrTot",
							"type": "uint256"
						}
					],
					"name": "cochePropietario",
					"type": "event"
				},
				{
					"anonymous": false,
					"inputs": [
						{
							"indexed": false,
							"internalType": "uint256",
							"name": "compr",
							"type": "uint256"
						}
					],
					"name": "comprobar",
					"type": "event"
				},
				{
					"anonymous": false,
					"inputs": [
						{
							"indexed": false,
							"internalType": "string",
							"name": "ms",
							"type": "string"
						}
					],
					"name": "confirmacionDepositoLleno",
					"type": "event"
				},
				{
					"anonymous": false,
					"inputs": [
						{
							"indexed": false,
							"internalType": "string",
							"name": "ms",
							"type": "string"
						},
						{
							"indexed": false,
							"internalType": "uint256",
							"name": "res",
							"type": "uint256"
						}
					],
					"name": "mostrarResultado",
					"type": "event"
				},
				{
					"inputs": [
						{
							"internalType": "uint256",
							"name": "dineroApostar",
							"type": "uint256"
						}
					],
					"name": "Apostar",
					"outputs": [
						{
							"internalType": "string",
							"name": "",
							"type": "string"
						}
					],
					"stateMutability": "payable",
					"type": "function"
				},
				{
					"inputs": [],
					"name": "_owner",
					"outputs": [
						{
							"internalType": "address",
							"name": "",
							"type": "address"
						}
					],
					"stateMutability": "view",
					"type": "function"
				},
				{
					"inputs": [
						{
							"internalType": "string",
							"name": "_modelo",
							"type": "string"
						},
						{
							"internalType": "string",
							"name": "_marca",
							"type": "string"
						},
						{
							"internalType": "string",
							"name": "_nombrePiloto",
							"type": "string"
						}
					],
					"name": "anadirCoche",
					"outputs": [
						{
							"internalType": "uint256",
							"name": "",
							"type": "uint256"
						}
					],
					"stateMutability": "nonpayable",
					"type": "function"
				},
				{
					"inputs": [
						{
							"internalType": "address",
							"name": "_approved",
							"type": "address"
						},
						{
							"internalType": "uint256",
							"name": "_tokenId",
							"type": "uint256"
						}
					],
					"name": "approve",
					"outputs": [],
					"stateMutability": "payable",
					"type": "function"
				},
				{
					"inputs": [
						{
							"internalType": "address",
							"name": "_owner",
							"type": "address"
						}
					],
					"name": "balanceOf",
					"outputs": [
						{
							"internalType": "uint256",
							"name": "_balance",
							"type": "uint256"
						}
					],
					"stateMutability": "view",
					"type": "function"
				},
				{
					"inputs": [
						{
							"internalType": "uint256",
							"name": "",
							"type": "uint256"
						}
					],
					"name": "cocheDePropietario",
					"outputs": [
						{
							"internalType": "address",
							"name": "",
							"type": "address"
						}
					],
					"stateMutability": "view",
					"type": "function"
				},
				{
					"inputs": [
						{
							"internalType": "address",
							"name": "_address",
							"type": "address"
						},
						{
							"internalType": "string",
							"name": "_newModelo",
							"type": "string"
						},
						{
							"internalType": "string",
							"name": "_newMarca",
							"type": "string"
						}
					],
					"name": "comprarCoche",
					"outputs": [
						{
							"internalType": "string",
							"name": "",
							"type": "string"
						}
					],
					"stateMutability": "payable",
					"type": "function"
				},
				{
					"inputs": [
						{
							"internalType": "uint256",
							"name": "_tokenId",
							"type": "uint256"
						}
					],
					"name": "getApproved",
					"outputs": [
						{
							"internalType": "address",
							"name": "",
							"type": "address"
						}
					],
					"stateMutability": "view",
					"type": "function"
				},
				{
					"inputs": [
						{
							"internalType": "address",
							"name": "_owner",
							"type": "address"
						},
						{
							"internalType": "address",
							"name": "_operator",
							"type": "address"
						}
					],
					"name": "isApprovedForAll",
					"outputs": [
						{
							"internalType": "bool",
							"name": "",
							"type": "bool"
						}
					],
					"stateMutability": "view",
					"type": "function"
				},
				{
					"inputs": [
						{
							"internalType": "uint256",
							"name": "",
							"type": "uint256"
						}
					],
					"name": "listaCoches",
					"outputs": [
						{
							"internalType": "address",
							"name": "idPiloto",
							"type": "address"
						},
						{
							"internalType": "string",
							"name": "modelo",
							"type": "string"
						},
						{
							"internalType": "string",
							"name": "marca",
							"type": "string"
						},
						{
							"internalType": "string",
							"name": "nombrePiloto",
							"type": "string"
						},
						{
							"internalType": "uint256",
							"name": "carrerasGanadas",
							"type": "uint256"
						},
						{
							"internalType": "uint256",
							"name": "carrerasTotales",
							"type": "uint256"
						},
						{
							"internalType": "uint256",
							"name": "tiempoEspera",
							"type": "uint256"
						},
						{
							"internalType": "uint32",
							"name": "nivel",
							"type": "uint32"
						}
					],
					"stateMutability": "view",
					"type": "function"
				},
				{
					"inputs": [
						{
							"internalType": "address",
							"name": "",
							"type": "address"
						}
					],
					"name": "numeroCochesPersona",
					"outputs": [
						{
							"internalType": "uint256",
							"name": "",
							"type": "uint256"
						}
					],
					"stateMutability": "view",
					"type": "function"
				},
				{
					"inputs": [],
					"name": "owner",
					"outputs": [
						{
							"internalType": "address",
							"name": "",
							"type": "address"
						}
					],
					"stateMutability": "view",
					"type": "function"
				},
				{
					"inputs": [
						{
							"internalType": "uint256",
							"name": "_tokenId",
							"type": "uint256"
						}
					],
					"name": "ownerOf",
					"outputs": [
						{
							"internalType": "address",
							"name": "",
							"type": "address"
						}
					],
					"stateMutability": "view",
					"type": "function"
				},
				{
					"inputs": [],
					"name": "renounceOwnership",
					"outputs": [],
					"stateMutability": "nonpayable",
					"type": "function"
				},
				{
					"inputs": [
						{
							"internalType": "address",
							"name": "_from",
							"type": "address"
						},
						{
							"internalType": "address",
							"name": "_to",
							"type": "address"
						},
						{
							"internalType": "uint256",
							"name": "_tokenId",
							"type": "uint256"
						}
					],
					"name": "safeTransferFrom",
					"outputs": [],
					"stateMutability": "payable",
					"type": "function"
				},
				{
					"inputs": [
						{
							"internalType": "address",
							"name": "_from",
							"type": "address"
						},
						{
							"internalType": "address",
							"name": "_to",
							"type": "address"
						},
						{
							"internalType": "uint256",
							"name": "_tokenId",
							"type": "uint256"
						},
						{
							"internalType": "bytes",
							"name": "data",
							"type": "bytes"
						}
					],
					"name": "safeTransferFrom",
					"outputs": [],
					"stateMutability": "payable",
					"type": "function"
				},
				{
					"inputs": [
						{
							"internalType": "address",
							"name": "_operator",
							"type": "address"
						},
						{
							"internalType": "bool",
							"name": "_approved",
							"type": "bool"
						}
					],
					"name": "setApprovalForAll",
					"outputs": [],
					"stateMutability": "nonpayable",
					"type": "function"
				},
				{
					"inputs": [
						{
							"internalType": "address",
							"name": "_propietario",
							"type": "address"
						}
					],
					"name": "subirDeNivel",
					"outputs": [
						{
							"internalType": "string",
							"name": "",
							"type": "string"
						}
					],
					"stateMutability": "payable",
					"type": "function"
				},
				{
					"inputs": [
						{
							"internalType": "address",
							"name": "_from",
							"type": "address"
						},
						{
							"internalType": "address",
							"name": "_to",
							"type": "address"
						},
						{
							"internalType": "uint256",
							"name": "_tokenId",
							"type": "uint256"
						}
					],
					"name": "transferFrom",
					"outputs": [],
					"stateMutability": "payable",
					"type": "function"
				},
				{
					"inputs": [
						{
							"internalType": "address",
							"name": "newOwner",
							"type": "address"
						}
					],
					"name": "transferOwnership",
					"outputs": [],
					"stateMutability": "nonpayable",
					"type": "function"
				},
				{
					"inputs": [
						{
							"internalType": "address",
							"name": "_propietario",
							"type": "address"
						}
					],
					"name": "verCochePropietario",
					"outputs": [],
					"stateMutability": "nonpayable",
					"type": "function"
				}
			],
			"devdoc": {
				"kind": "dev",
				"methods": {
					"owner()": {
						"details": "Returns the address of the current owner."
					},
					"renounceOwnership()": {
						"details": "Leaves the contract without owner. It will not be possible to call `onlyOwner` functions anymore. Can only be called by the current owner. NOTE: Renouncing ownership will leave the contract without an owner, thereby removing any functionality that is only available to the owner."
					},
					"transferOwnership(address)": {
						"details": "Transfers ownership of the contract to a new account (`newOwner`). Can only be called by the current owner."
					}
				},
				"version": 1
			},
			"evm": {
				"assembly": "    /* \"contracts/CarreraCoches/cocheToken.sol\":80:2315  contract CocheToken is CarreraCoches, ERC721 {\r... */\n  mstore(0x40, 0x80)\n    /* \"contracts/CarreraCoches/principal.sol\":370:371  0 */\n  0x00\n    /* \"contracts/CarreraCoches/principal.sol\":353:371  uint randNonce = 0 */\n  0x01\n  sstore\n    /* \"contracts/CarreraCoches/principal.sol\":494:495  0 */\n  0x00\n    /* \"contracts/CarreraCoches/principal.sol\":478:495  uint contador = 0 */\n  0x02\n  sstore\n    /* \"contracts/CarreraCoches/principal.sol\":518:528  60 seconds */\n  0x3c\n    /* \"contracts/CarreraCoches/principal.sol\":502:528  uint cooldown = 60 seconds */\n  0x03\n  sstore\n    /* \"contracts/CarreraCoches/principal.sol\":553:560  1 ether */\n  0x0de0b6b3a7640000\n    /* \"contracts/CarreraCoches/principal.sol\":535:560  uint subirNivel = 1 ether */\n  0x04\n  sstore\n    /* \"contracts/CarreraCoches/principal.sol\":588:595  1 ether */\n  0x0de0b6b3a7640000\n    /* \"contracts/CarreraCoches/principal.sol\":567:595  uint cambiarCocheV = 1 ether */\n  0x05\n  sstore\n    /* \"contracts/CarreraCoches/cocheToken.sol\":80:2315  contract CocheToken is CarreraCoches, ERC721 {\r... */\n  callvalue\n  dup1\n  iszero\n  tag_1\n  jumpi\n  0x00\n  dup1\n  revert\ntag_1:\n  pop\n    /* \"contracts/CarreraCoches/ownable.sol\":947:979  _transferOwnership(_msgSender()) */\n  tag_4\n    /* \"contracts/CarreraCoches/ownable.sol\":966:978  _msgSender() */\n  tag_5\n    /* \"contracts/CarreraCoches/ownable.sol\":966:976  _msgSender */\n  shl(0x20, tag_6)\n    /* \"contracts/CarreraCoches/ownable.sol\":966:978  _msgSender() */\n  0x20\n  shr\n  jump\t// in\ntag_5:\n    /* \"contracts/CarreraCoches/ownable.sol\":947:965  _transferOwnership */\n  shl(0x20, tag_7)\n    /* \"contracts/CarreraCoches/ownable.sol\":947:979  _transferOwnership(_msgSender()) */\n  0x20\n  shr\n  jump\t// in\ntag_4:\n    /* \"contracts/CarreraCoches/cocheToken.sol\":80:2315  contract CocheToken is CarreraCoches, ERC721 {\r... */\n  jump(tag_8)\n    /* \"contracts/CarreraCoches/utils/Context.sol\":656:754  function _msgSender() internal view virtual returns (address) {\r... */\ntag_6:\n    /* \"contracts/CarreraCoches/utils/Context.sol\":709:716  address */\n  0x00\n    /* \"contracts/CarreraCoches/utils/Context.sol\":736:746  msg.sender */\n  caller\n    /* \"contracts/CarreraCoches/utils/Context.sol\":729:746  return msg.sender */\n  swap1\n  pop\n    /* \"contracts/CarreraCoches/utils/Context.sol\":656:754  function _msgSender() internal view virtual returns (address) {\r... */\n  swap1\n  jump\t// out\n    /* \"contracts/CarreraCoches/ownable.sol\":2338:2529  function _transferOwnership(address newOwner) internal virtual {\r... */\ntag_7:\n    /* \"contracts/CarreraCoches/ownable.sol\":2412:2428  address oldOwner */\n  0x00\n    /* \"contracts/CarreraCoches/ownable.sol\":2431:2437  _owner */\n  dup1\n  0x00\n  swap1\n  sload\n  swap1\n  0x0100\n  exp\n  swap1\n  div\n  0xffffffffffffffffffffffffffffffffffffffff\n  and\n    /* \"contracts/CarreraCoches/ownable.sol\":2412:2437  address oldOwner = _owner */\n  swap1\n  pop\n    /* \"contracts/CarreraCoches/ownable.sol\":2457:2465  newOwner */\n  dup2\n    /* \"contracts/CarreraCoches/ownable.sol\":2448:2454  _owner */\n  0x00\n  dup1\n    /* \"contracts/CarreraCoches/ownable.sol\":2448:2465  _owner = newOwner */\n  0x0100\n  exp\n  dup2\n  sload\n  dup2\n  0xffffffffffffffffffffffffffffffffffffffff\n  mul\n  not\n  and\n  swap1\n  dup4\n  0xffffffffffffffffffffffffffffffffffffffff\n  and\n  mul\n  or\n  swap1\n  sstore\n  pop\n    /* \"contracts/CarreraCoches/ownable.sol\":2512:2520  newOwner */\n  dup2\n    /* \"contracts/CarreraCoches/ownable.sol\":2481:2521  OwnershipTransferred(oldOwner, newOwner) */\n  0xffffffffffffffffffffffffffffffffffffffff\n  and\n    /* \"contracts/CarreraCoches/ownable.sol\":2502:2510  oldOwner */\n  dup2\n    /* \"contracts/CarreraCoches/ownable.sol\":2481:2521  OwnershipTransferred(oldOwner, newOwner) */\n  0xffffffffffffffffffffffffffffffffffffffff\n  and\n  0x8be0079c531659141344cd1fd0a4f28419497f9722a3daafe3b4186f6b6457e0\n  mload(0x40)\n  mload(0x40)\n  dup1\n  swap2\n  sub\n  swap1\n  log3\n    /* \"contracts/CarreraCoches/ownable.sol\":2401:2529  {\r... */\n  pop\n    /* \"contracts/CarreraCoches/ownable.sol\":2338:2529  function _transferOwnership(address newOwner) internal virtual {\r... */\n  pop\n  jump\t// out\n    /* \"contracts/CarreraCoches/cocheToken.sol\":80:2315  contract CocheToken is CarreraCoches, ERC721 {\r... */\ntag_8:\n  dataSize(sub_0)\n  dup1\n  dataOffset(sub_0)\n  0x00\n  codecopy\n  0x00\n  return\nstop\n\nsub_0: assembly {\n        /* \"contracts/CarreraCoches/cocheToken.sol\":80:2315  contract CocheToken is CarreraCoches, ERC721 {\r... */\n      mstore(0x40, 0x80)\n      jumpi(tag_1, lt(calldatasize, 0x04))\n      shr(0xe0, calldataload(0x00))\n      dup1\n      0x70a08231\n      gt\n      tag_23\n      jumpi\n      dup1\n      0xb2bdfa7b\n      gt\n      tag_24\n      jumpi\n      dup1\n      0xb2bdfa7b\n      eq\n      tag_17\n      jumpi\n      dup1\n      0xb88d4fde\n      eq\n      tag_18\n      jumpi\n      dup1\n      0xd735573d\n      eq\n      tag_19\n      jumpi\n      dup1\n      0xe172fca8\n      eq\n      tag_20\n      jumpi\n      dup1\n      0xe985e9c5\n      eq\n      tag_21\n      jumpi\n      dup1\n      0xf2fde38b\n      eq\n      tag_22\n      jumpi\n      jump(tag_1)\n    tag_24:\n      dup1\n      0x70a08231\n      eq\n      tag_12\n      jumpi\n      dup1\n      0x715018a6\n      eq\n      tag_13\n      jumpi\n      dup1\n      0x858b0554\n      eq\n      tag_14\n      jumpi\n      dup1\n      0x8da5cb5b\n      eq\n      tag_15\n      jumpi\n      dup1\n      0xa22cb465\n      eq\n      tag_16\n      jumpi\n      jump(tag_1)\n    tag_23:\n      dup1\n      0x2458c544\n      gt\n      tag_25\n      jumpi\n      dup1\n      0x2458c544\n      eq\n      tag_7\n      jumpi\n      dup1\n      0x42842e0e\n      eq\n      tag_8\n      jumpi\n      dup1\n      0x6352211e\n      eq\n      tag_9\n      jumpi\n      dup1\n      0x6a7d1816\n      eq\n      tag_10\n      jumpi\n      dup1\n      0x6b6f0494\n      eq\n      tag_11\n      jumpi\n      jump(tag_1)\n    tag_25:\n      dup1\n      0x049a5f65\n      eq\n      tag_2\n      jumpi\n      dup1\n      0x081812fc\n      eq\n      tag_3\n      jumpi\n      dup1\n      0x095ea7b3\n      eq\n      tag_4\n      jumpi\n      dup1\n      0x1c6743e4\n      eq\n      tag_5\n      jumpi\n      dup1\n      0x23b872dd\n      eq\n      tag_6\n      jumpi\n    tag_1:\n      0x00\n      dup1\n      revert\n        /* \"contracts/CarreraCoches/principal.sol\":3369:3831  function comprarCoche(address _address, string memory _newModelo, string memory _newMarca) external payable returns(string memory) {\r... */\n    tag_2:\n      tag_26\n      0x04\n      dup1\n      calldatasize\n      sub\n      dup2\n      add\n      swap1\n      tag_27\n      swap2\n      swap1\n      tag_28\n      jump\t// in\n    tag_27:\n      tag_29\n      jump\t// in\n    tag_26:\n      mload(0x40)\n      tag_30\n      swap2\n      swap1\n      tag_31\n      jump\t// in\n    tag_30:\n      mload(0x40)\n      dup1\n      swap2\n      sub\n      swap1\n      return\n        /* \"contracts/CarreraCoches/cocheToken.sol\":2099:2188  function getApproved(uint256 _tokenId) external override view returns (address){\r... */\n    tag_3:\n      callvalue\n      dup1\n      iszero\n      tag_32\n      jumpi\n      0x00\n      dup1\n      revert\n    tag_32:\n      pop\n      tag_33\n      0x04\n      dup1\n      calldatasize\n      sub\n      dup2\n      add\n      swap1\n      tag_34\n      swap2\n      swap1\n      tag_35\n      jump\t// in\n    tag_34:\n      tag_36\n      jump\t// in\n    tag_33:\n      mload(0x40)\n      tag_37\n      swap2\n      swap1\n      tag_38\n      jump\t// in\n    tag_37:\n      mload(0x40)\n      dup1\n      swap2\n      sub\n      swap1\n      return\n        /* \"contracts/CarreraCoches/cocheToken.sol\":1909:1998  function approve(address _approved, uint256 _tokenId) external override payable{\r... */\n    tag_4:\n      tag_39\n      0x04\n      dup1\n      calldatasize\n      sub\n      dup2\n      add\n      swap1\n      tag_40\n      swap2\n      swap1\n      tag_41\n      jump\t// in\n    tag_40:\n      tag_42\n      jump\t// in\n    tag_39:\n      stop\n        /* \"contracts/CarreraCoches/principal.sol\":929:981  mapping (address => uint) public numeroCochesPersona */\n    tag_5:\n      callvalue\n      dup1\n      iszero\n      tag_43\n      jumpi\n      0x00\n      dup1\n      revert\n    tag_43:\n      pop\n      tag_44\n      0x04\n      dup1\n      calldatasize\n      sub\n      dup2\n      add\n      swap1\n      tag_45\n      swap2\n      swap1\n      tag_46\n      jump\t// in\n    tag_45:\n      tag_47\n      jump\t// in\n    tag_44:\n      mload(0x40)\n      tag_48\n      swap2\n      swap1\n      tag_49\n      jump\t// in\n    tag_48:\n      mload(0x40)\n      dup1\n      swap2\n      sub\n      swap1\n      return\n        /* \"contracts/CarreraCoches/cocheToken.sol\":1800:1903  function transferFrom(address _from, address _to, uint256 _tokenId) external override payable{\r... */\n    tag_6:\n      tag_50\n      0x04\n      dup1\n      calldatasize\n      sub\n      dup2\n      add\n      swap1\n      tag_51\n      swap2\n      swap1\n      tag_52\n      jump\t// in\n    tag_51:\n      tag_53\n      jump\t// in\n    tag_50:\n      stop\n        /* \"contracts/CarreraCoches/principal.sol\":1777:2217  function anadirCoche(string memory _modelo, string memory _marca, string memory _nombrePiloto) public restriccion returns (uint) {\r... */\n    tag_7:\n      callvalue\n      dup1\n      iszero\n      tag_54\n      jumpi\n      0x00\n      dup1\n      revert\n    tag_54:\n      pop\n      tag_55\n      0x04\n      dup1\n      calldatasize\n      sub\n      dup2\n      add\n      swap1\n      tag_56\n      swap2\n      swap1\n      tag_57\n      jump\t// in\n    tag_56:\n      tag_58\n      jump\t// in\n    tag_55:\n      mload(0x40)\n      tag_59\n      swap2\n      swap1\n      tag_49\n      jump\t// in\n    tag_59:\n      mload(0x40)\n      dup1\n      swap2\n      sub\n      swap1\n      return\n        /* \"contracts/CarreraCoches/cocheToken.sol\":1687:1794  function safeTransferFrom(address _from, address _to, uint256 _tokenId) external override payable{\r... */\n    tag_8:\n      tag_60\n      0x04\n      dup1\n      calldatasize\n      sub\n      dup2\n      add\n      swap1\n      tag_61\n      swap2\n      swap1\n      tag_52\n      jump\t// in\n    tag_61:\n      tag_62\n      jump\t// in\n    tag_60:\n      stop\n        /* \"contracts/CarreraCoches/cocheToken.sol\":1464:1549  function ownerOf(uint256 _tokenId) external override view returns (address){\r... */\n    tag_9:\n      callvalue\n      dup1\n      iszero\n      tag_63\n      jumpi\n      0x00\n      dup1\n      revert\n    tag_63:\n      pop\n      tag_64\n      0x04\n      dup1\n      calldatasize\n      sub\n      dup2\n      add\n      swap1\n      tag_65\n      swap2\n      swap1\n      tag_35\n      jump\t// in\n    tag_65:\n      tag_66\n      jump\t// in\n    tag_64:\n      mload(0x40)\n      tag_67\n      swap2\n      swap1\n      tag_38\n      jump\t// in\n    tag_67:\n      mload(0x40)\n      dup1\n      swap2\n      sub\n      swap1\n      return\n        /* \"contracts/CarreraCoches/principal.sol\":2545:2904  function subirDeNivel(address _propietario) external payable returns(string memory) {\r... */\n    tag_10:\n      tag_68\n      0x04\n      dup1\n      calldatasize\n      sub\n      dup2\n      add\n      swap1\n      tag_69\n      swap2\n      swap1\n      tag_46\n      jump\t// in\n    tag_69:\n      tag_70\n      jump\t// in\n    tag_68:\n      mload(0x40)\n      tag_71\n      swap2\n      swap1\n      tag_31\n      jump\t// in\n    tag_71:\n      mload(0x40)\n      dup1\n      swap2\n      sub\n      swap1\n      return\n        /* \"contracts/CarreraCoches/principal.sol\":4168:7496  function Apostar(uint dineroApostar) public payable returns(string memory) {\r... */\n    tag_11:\n      tag_72\n      0x04\n      dup1\n      calldatasize\n      sub\n      dup2\n      add\n      swap1\n      tag_73\n      swap2\n      swap1\n      tag_35\n      jump\t// in\n    tag_73:\n      tag_74\n      jump\t// in\n    tag_72:\n      mload(0x40)\n      tag_75\n      swap2\n      swap1\n      tag_31\n      jump\t// in\n    tag_75:\n      mload(0x40)\n      dup1\n      swap2\n      sub\n      swap1\n      return\n        /* \"contracts/CarreraCoches/cocheToken.sol\":1321:1458  function balanceOf(address _owner) external override view returns (uint256 _balance){\r... */\n    tag_12:\n      callvalue\n      dup1\n      iszero\n      tag_76\n      jumpi\n      0x00\n      dup1\n      revert\n    tag_76:\n      pop\n      tag_77\n      0x04\n      dup1\n      calldatasize\n      sub\n      dup2\n      add\n      swap1\n      tag_78\n      swap2\n      swap1\n      tag_46\n      jump\t// in\n    tag_78:\n      tag_79\n      jump\t// in\n    tag_77:\n      mload(0x40)\n      tag_80\n      swap2\n      swap1\n      tag_49\n      jump\t// in\n    tag_80:\n      mload(0x40)\n      dup1\n      swap2\n      sub\n      swap1\n      return\n        /* \"contracts/CarreraCoches/ownable.sol\":1719:1822  function renounceOwnership() public virtual onlyOwner {\r... */\n    tag_13:\n      callvalue\n      dup1\n      iszero\n      tag_81\n      jumpi\n      0x00\n      dup1\n      revert\n    tag_81:\n      pop\n      tag_82\n      tag_83\n      jump\t// in\n    tag_82:\n      stop\n        /* \"contracts/CarreraCoches/principal.sol\":871:922  mapping (uint => address) public cocheDePropietario */\n    tag_14:\n      callvalue\n      dup1\n      iszero\n      tag_84\n      jumpi\n      0x00\n      dup1\n      revert\n    tag_84:\n      pop\n      tag_85\n      0x04\n      dup1\n      calldatasize\n      sub\n      dup2\n      add\n      swap1\n      tag_86\n      swap2\n      swap1\n      tag_35\n      jump\t// in\n    tag_86:\n      tag_87\n      jump\t// in\n    tag_85:\n      mload(0x40)\n      tag_88\n      swap2\n      swap1\n      tag_38\n      jump\t// in\n    tag_88:\n      mload(0x40)\n      dup1\n      swap2\n      sub\n      swap1\n      return\n        /* \"contracts/CarreraCoches/ownable.sol\":1068:1155  function owner() public view virtual returns (address) {\r... */\n    tag_15:\n      callvalue\n      dup1\n      iszero\n      tag_89\n      jumpi\n      0x00\n      dup1\n      revert\n    tag_89:\n      pop\n      tag_90\n      tag_91\n      jump\t// in\n    tag_90:\n      mload(0x40)\n      tag_92\n      swap2\n      swap1\n      tag_38\n      jump\t// in\n    tag_92:\n      mload(0x40)\n      dup1\n      swap2\n      sub\n      swap1\n      return\n        /* \"contracts/CarreraCoches/cocheToken.sol\":2004:2093  function setApprovalForAll(address _operator, bool _approved) external override{\r... */\n    tag_16:\n      callvalue\n      dup1\n      iszero\n      tag_93\n      jumpi\n      0x00\n      dup1\n      revert\n    tag_93:\n      pop\n      tag_94\n      0x04\n      dup1\n      calldatasize\n      sub\n      dup2\n      add\n      swap1\n      tag_95\n      swap2\n      swap1\n      tag_96\n      jump\t// in\n    tag_95:\n      tag_97\n      jump\t// in\n    tag_94:\n      stop\n        /* \"contracts/CarreraCoches/ownable.sol\":701:722  address public _owner */\n    tag_17:\n      callvalue\n      dup1\n      iszero\n      tag_98\n      jumpi\n      0x00\n      dup1\n      revert\n    tag_98:\n      pop\n      tag_99\n      tag_100\n      jump\t// in\n    tag_99:\n      mload(0x40)\n      tag_101\n      swap2\n      swap1\n      tag_38\n      jump\t// in\n    tag_101:\n      mload(0x40)\n      dup1\n      swap2\n      sub\n      swap1\n      return\n        /* \"contracts/CarreraCoches/cocheToken.sol\":1555:1681  function safeTransferFrom(address _from, address _to, uint256 _tokenId, bytes memory data) external override payable{\r... */\n    tag_18:\n      tag_102\n      0x04\n      dup1\n      calldatasize\n      sub\n      dup2\n      add\n      swap1\n      tag_103\n      swap2\n      swap1\n      tag_104\n      jump\t// in\n    tag_103:\n      tag_105\n      jump\t// in\n    tag_102:\n      stop\n        /* \"contracts/CarreraCoches/principal.sol\":604:630  Coche[] public listaCoches */\n    tag_19:\n      callvalue\n      dup1\n      iszero\n      tag_106\n      jumpi\n      0x00\n      dup1\n      revert\n    tag_106:\n      pop\n      tag_107\n      0x04\n      dup1\n      calldatasize\n      sub\n      dup2\n      add\n      swap1\n      tag_108\n      swap2\n      swap1\n      tag_35\n      jump\t// in\n    tag_108:\n      tag_109\n      jump\t// in\n    tag_107:\n      mload(0x40)\n      tag_110\n      swap9\n      swap8\n      swap7\n      swap6\n      swap5\n      swap4\n      swap3\n      swap2\n      swap1\n      tag_111\n      jump\t// in\n    tag_110:\n      mload(0x40)\n      dup1\n      swap2\n      sub\n      swap1\n      return\n        /* \"contracts/CarreraCoches/principal.sol\":2912:3288  function verCochePropietario(address _propietario) external {\r... */\n    tag_20:\n      callvalue\n      dup1\n      iszero\n      tag_112\n      jumpi\n      0x00\n      dup1\n      revert\n    tag_112:\n      pop\n      tag_113\n      0x04\n      dup1\n      calldatasize\n      sub\n      dup2\n      add\n      swap1\n      tag_114\n      swap2\n      swap1\n      tag_46\n      jump\t// in\n    tag_114:\n      tag_115\n      jump\t// in\n    tag_113:\n      stop\n        /* \"contracts/CarreraCoches/cocheToken.sol\":2194:2302  function isApprovedForAll(address _owner, address _operator) external override view returns (bool){\r... */\n    tag_21:\n      callvalue\n      dup1\n      iszero\n      tag_116\n      jumpi\n      0x00\n      dup1\n      revert\n    tag_116:\n      pop\n      tag_117\n      0x04\n      dup1\n      calldatasize\n      sub\n      dup2\n      add\n      swap1\n      tag_118\n      swap2\n      swap1\n      tag_119\n      jump\t// in\n    tag_118:\n      tag_120\n      jump\t// in\n    tag_117:\n      mload(0x40)\n      tag_121\n      swap2\n      swap1\n      tag_122\n      jump\t// in\n    tag_121:\n      mload(0x40)\n      dup1\n      swap2\n      sub\n      swap1\n      return\n        /* \"contracts/CarreraCoches/ownable.sol\":1977:2178  function transferOwnership(address newOwner) public virtual onlyOwner {\r... */\n    tag_22:\n      callvalue\n      dup1\n      iszero\n      tag_123\n      jumpi\n      0x00\n      dup1\n      revert\n    tag_123:\n      pop\n      tag_124\n      0x04\n      dup1\n      calldatasize\n      sub\n      dup2\n      add\n      swap1\n      tag_125\n      swap2\n      swap1\n      tag_46\n      jump\t// in\n    tag_125:\n      tag_126\n      jump\t// in\n    tag_124:\n      stop\n        /* \"contracts/CarreraCoches/principal.sol\":3369:3831  function comprarCoche(address _address, string memory _newModelo, string memory _newMarca) external payable returns(string memory) {\r... */\n    tag_29:\n        /* \"contracts/CarreraCoches/principal.sol\":3485:3498  string memory */\n      0x60\n        /* \"contracts/CarreraCoches/principal.sol\":3531:3539  _address */\n      dup4\n        /* \"contracts/CarreraCoches/principal.sol\":3519:3539  msg.sender==_address */\n      0xffffffffffffffffffffffffffffffffffffffff\n      and\n        /* \"contracts/CarreraCoches/principal.sol\":3519:3529  msg.sender */\n      caller\n        /* \"contracts/CarreraCoches/principal.sol\":3519:3539  msg.sender==_address */\n      0xffffffffffffffffffffffffffffffffffffffff\n      and\n      eq\n        /* \"contracts/CarreraCoches/principal.sol\":3511:3540  require(msg.sender==_address) */\n      tag_128\n      jumpi\n      0x00\n      dup1\n      revert\n    tag_128:\n        /* \"contracts/CarreraCoches/principal.sol\":3570:3583  cambiarCocheV */\n      sload(0x05)\n        /* \"contracts/CarreraCoches/principal.sol\":3559:3568  msg.value */\n      callvalue\n        /* \"contracts/CarreraCoches/principal.sol\":3559:3583  msg.value==cambiarCocheV */\n      eq\n        /* \"contracts/CarreraCoches/principal.sol\":3551:3584  require(msg.value==cambiarCocheV) */\n      tag_129\n      jumpi\n      0x00\n      dup1\n      revert\n    tag_129:\n        /* \"contracts/CarreraCoches/principal.sol\":3599:3605  uint i */\n      0x00\n        /* \"contracts/CarreraCoches/principal.sol\":3595:3824  for(uint i = 0; i < listaCoches.length; i++){\r... */\n    tag_130:\n        /* \"contracts/CarreraCoches/principal.sol\":3615:3626  listaCoches */\n      0x06\n        /* \"contracts/CarreraCoches/principal.sol\":3615:3633  listaCoches.length */\n      dup1\n      sload\n      swap1\n      pop\n        /* \"contracts/CarreraCoches/principal.sol\":3611:3612  i */\n      dup2\n        /* \"contracts/CarreraCoches/principal.sol\":3611:3633  i < listaCoches.length */\n      lt\n        /* \"contracts/CarreraCoches/principal.sol\":3595:3824  for(uint i = 0; i < listaCoches.length; i++){\r... */\n      iszero\n      tag_131\n      jumpi\n        /* \"contracts/CarreraCoches/principal.sol\":3682:3692  msg.sender */\n      caller\n        /* \"contracts/CarreraCoches/principal.sol\":3657:3692  listaCoches[i].idPiloto==msg.sender */\n      0xffffffffffffffffffffffffffffffffffffffff\n      and\n        /* \"contracts/CarreraCoches/principal.sol\":3657:3668  listaCoches */\n      0x06\n        /* \"contracts/CarreraCoches/principal.sol\":3669:3670  i */\n      dup3\n        /* \"contracts/CarreraCoches/principal.sol\":3657:3671  listaCoches[i] */\n      dup2\n      sload\n      dup2\n      lt\n      tag_133\n      jumpi\n      tag_134\n      tag_135\n      jump\t// in\n    tag_134:\n    tag_133:\n      swap1\n      0x00\n      mstore\n      keccak256(0x00, 0x20)\n      swap1\n      0x08\n      mul\n      add\n        /* \"contracts/CarreraCoches/principal.sol\":3657:3680  listaCoches[i].idPiloto */\n      0x00\n      add\n      0x00\n      swap1\n      sload\n      swap1\n      0x0100\n      exp\n      swap1\n      div\n      0xffffffffffffffffffffffffffffffffffffffff\n      and\n        /* \"contracts/CarreraCoches/principal.sol\":3657:3692  listaCoches[i].idPiloto==msg.sender */\n      0xffffffffffffffffffffffffffffffffffffffff\n      and\n      eq\n        /* \"contracts/CarreraCoches/principal.sol\":3654:3813  if(listaCoches[i].idPiloto==msg.sender){\r... */\n      iszero\n      tag_137\n      jumpi\n        /* \"contracts/CarreraCoches/principal.sol\":3736:3746  _newModelo */\n      dup4\n        /* \"contracts/CarreraCoches/principal.sol\":3712:3723  listaCoches */\n      0x06\n        /* \"contracts/CarreraCoches/principal.sol\":3724:3725  i */\n      dup3\n        /* \"contracts/CarreraCoches/principal.sol\":3712:3726  listaCoches[i] */\n      dup2\n      sload\n      dup2\n      lt\n      tag_138\n      jumpi\n      tag_139\n      tag_135\n      jump\t// in\n    tag_139:\n    tag_138:\n      swap1\n      0x00\n      mstore\n      keccak256(0x00, 0x20)\n      swap1\n      0x08\n      mul\n      add\n        /* \"contracts/CarreraCoches/principal.sol\":3712:3733  listaCoches[i].modelo */\n      0x01\n      add\n        /* \"contracts/CarreraCoches/principal.sol\":3712:3746  listaCoches[i].modelo = _newModelo */\n      swap1\n      dup1\n      mload\n      swap1\n      0x20\n      add\n      swap1\n      tag_141\n      swap3\n      swap2\n      swap1\n      tag_142\n      jump\t// in\n    tag_141:\n      pop\n        /* \"contracts/CarreraCoches/principal.sol\":3788:3797  _newMarca */\n      dup3\n        /* \"contracts/CarreraCoches/principal.sol\":3765:3776  listaCoches */\n      0x06\n        /* \"contracts/CarreraCoches/principal.sol\":3777:3778  i */\n      dup3\n        /* \"contracts/CarreraCoches/principal.sol\":3765:3779  listaCoches[i] */\n      dup2\n      sload\n      dup2\n      lt\n      tag_143\n      jumpi\n      tag_144\n      tag_135\n      jump\t// in\n    tag_144:\n    tag_143:\n      swap1\n      0x00\n      mstore\n      keccak256(0x00, 0x20)\n      swap1\n      0x08\n      mul\n      add\n        /* \"contracts/CarreraCoches/principal.sol\":3765:3785  listaCoches[i].marca */\n      0x02\n      add\n        /* \"contracts/CarreraCoches/principal.sol\":3765:3797  listaCoches[i].marca = _newMarca */\n      swap1\n      dup1\n      mload\n      swap1\n      0x20\n      add\n      swap1\n      tag_146\n      swap3\n      swap2\n      swap1\n      tag_142\n      jump\t// in\n    tag_146:\n      pop\n        /* \"contracts/CarreraCoches/principal.sol\":3654:3813  if(listaCoches[i].idPiloto==msg.sender){\r... */\n    tag_137:\n        /* \"contracts/CarreraCoches/principal.sol\":3635:3638  i++ */\n      dup1\n      dup1\n      tag_147\n      swap1\n      tag_148\n      jump\t// in\n    tag_147:\n      swap2\n      pop\n      pop\n        /* \"contracts/CarreraCoches/principal.sol\":3595:3824  for(uint i = 0; i < listaCoches.length; i++){\r... */\n      jump(tag_130)\n    tag_131:\n      pop\n        /* \"contracts/CarreraCoches/principal.sol\":3369:3831  function comprarCoche(address _address, string memory _newModelo, string memory _newMarca) external payable returns(string memory) {\r... */\n      swap4\n      swap3\n      pop\n      pop\n      pop\n      jump\t// out\n        /* \"contracts/CarreraCoches/cocheToken.sol\":2099:2188  function getApproved(uint256 _tokenId) external override view returns (address){\r... */\n    tag_36:\n        /* \"contracts/CarreraCoches/cocheToken.sol\":2170:2177  address */\n      0x00\n        /* \"contracts/CarreraCoches/cocheToken.sol\":2099:2188  function getApproved(uint256 _tokenId) external override view returns (address){\r... */\n      swap2\n      swap1\n      pop\n      jump\t// out\n        /* \"contracts/CarreraCoches/cocheToken.sol\":1909:1998  function approve(address _approved, uint256 _tokenId) external override payable{\r... */\n    tag_42:\n      pop\n      pop\n      jump\t// out\n        /* \"contracts/CarreraCoches/principal.sol\":929:981  mapping (address => uint) public numeroCochesPersona */\n    tag_47:\n      mstore(0x20, 0x08)\n      dup1\n      0x00\n      mstore\n      keccak256(0x00, 0x40)\n      0x00\n      swap2\n      pop\n      swap1\n      pop\n      sload\n      dup2\n      jump\t// out\n        /* \"contracts/CarreraCoches/cocheToken.sol\":1800:1903  function transferFrom(address _from, address _to, uint256 _tokenId) external override payable{\r... */\n    tag_53:\n      pop\n      pop\n      pop\n      jump\t// out\n        /* \"contracts/CarreraCoches/principal.sol\":1777:2217  function anadirCoche(string memory _modelo, string memory _marca, string memory _nombrePiloto) public restriccion returns (uint) {\r... */\n    tag_58:\n        /* \"contracts/CarreraCoches/principal.sol\":1900:1904  uint */\n      0x00\n        /* \"contracts/CarreraCoches/principal.sol\":1113:1114  1 */\n      0x01\n        /* \"contracts/CarreraCoches/principal.sol\":1079:1098  numeroCochesPersona */\n      0x08\n        /* \"contracts/CarreraCoches/principal.sol\":1079:1110  numeroCochesPersona[msg.sender] */\n      0x00\n        /* \"contracts/CarreraCoches/principal.sol\":1099:1109  msg.sender */\n      caller\n        /* \"contracts/CarreraCoches/principal.sol\":1079:1110  numeroCochesPersona[msg.sender] */\n      0xffffffffffffffffffffffffffffffffffffffff\n      and\n      0xffffffffffffffffffffffffffffffffffffffff\n      and\n      dup2\n      mstore\n      0x20\n      add\n      swap1\n      dup2\n      mstore\n      0x20\n      add\n      0x00\n      keccak256\n      sload\n        /* \"contracts/CarreraCoches/principal.sol\":1079:1114  numeroCochesPersona[msg.sender] < 1 */\n      lt\n        /* \"contracts/CarreraCoches/principal.sol\":1071:1159  require(numeroCochesPersona[msg.sender] < 1, \"Solo se puede tener un coche por persona\") */\n      tag_153\n      jumpi\n      mload(0x40)\n      0x08c379a000000000000000000000000000000000000000000000000000000000\n      dup2\n      mstore\n      0x04\n      add\n      tag_154\n      swap1\n      tag_155\n      jump\t// in\n    tag_154:\n      mload(0x40)\n      dup1\n      swap2\n      sub\n      swap1\n      revert\n    tag_153:\n        /* \"contracts/CarreraCoches/principal.sol\":1917:1928  listaCoches */\n      0x06\n        /* \"contracts/CarreraCoches/principal.sol\":1934:2028  Coche(msg.sender, _modelo, _marca, _nombrePiloto, 0, 0, uint32(block.timestamp + cooldown), 1) */\n      mload(0x40)\n      dup1\n      0x0100\n      add\n      0x40\n      mstore\n      dup1\n        /* \"contracts/CarreraCoches/principal.sol\":1940:1950  msg.sender */\n      caller\n        /* \"contracts/CarreraCoches/principal.sol\":1934:2028  Coche(msg.sender, _modelo, _marca, _nombrePiloto, 0, 0, uint32(block.timestamp + cooldown), 1) */\n      0xffffffffffffffffffffffffffffffffffffffff\n      and\n      dup2\n      mstore\n      0x20\n      add\n        /* \"contracts/CarreraCoches/principal.sol\":1952:1959  _modelo */\n      dup7\n        /* \"contracts/CarreraCoches/principal.sol\":1934:2028  Coche(msg.sender, _modelo, _marca, _nombrePiloto, 0, 0, uint32(block.timestamp + cooldown), 1) */\n      dup2\n      mstore\n      0x20\n      add\n        /* \"contracts/CarreraCoches/principal.sol\":1961:1967  _marca */\n      dup6\n        /* \"contracts/CarreraCoches/principal.sol\":1934:2028  Coche(msg.sender, _modelo, _marca, _nombrePiloto, 0, 0, uint32(block.timestamp + cooldown), 1) */\n      dup2\n      mstore\n      0x20\n      add\n        /* \"contracts/CarreraCoches/principal.sol\":1969:1982  _nombrePiloto */\n      dup5\n        /* \"contracts/CarreraCoches/principal.sol\":1934:2028  Coche(msg.sender, _modelo, _marca, _nombrePiloto, 0, 0, uint32(block.timestamp + cooldown), 1) */\n      dup2\n      mstore\n      0x20\n      add\n        /* \"contracts/CarreraCoches/principal.sol\":1984:1985  0 */\n      0x00\n        /* \"contracts/CarreraCoches/principal.sol\":1934:2028  Coche(msg.sender, _modelo, _marca, _nombrePiloto, 0, 0, uint32(block.timestamp + cooldown), 1) */\n      dup2\n      mstore\n      0x20\n      add\n        /* \"contracts/CarreraCoches/principal.sol\":1987:1988  0 */\n      0x00\n        /* \"contracts/CarreraCoches/principal.sol\":1934:2028  Coche(msg.sender, _modelo, _marca, _nombrePiloto, 0, 0, uint32(block.timestamp + cooldown), 1) */\n      dup2\n      mstore\n      0x20\n      add\n        /* \"contracts/CarreraCoches/principal.sol\":2015:2023  cooldown */\n      sload(0x03)\n        /* \"contracts/CarreraCoches/principal.sol\":1997:2012  block.timestamp */\n      timestamp\n        /* \"contracts/CarreraCoches/principal.sol\":1997:2023  block.timestamp + cooldown */\n      tag_157\n      swap2\n      swap1\n      tag_158\n      jump\t// in\n    tag_157:\n        /* \"contracts/CarreraCoches/principal.sol\":1934:2028  Coche(msg.sender, _modelo, _marca, _nombrePiloto, 0, 0, uint32(block.timestamp + cooldown), 1) */\n      0xffffffff\n      and\n      dup2\n      mstore\n      0x20\n      add\n        /* \"contracts/CarreraCoches/principal.sol\":2026:2027  1 */\n      0x01\n        /* \"contracts/CarreraCoches/principal.sol\":1934:2028  Coche(msg.sender, _modelo, _marca, _nombrePiloto, 0, 0, uint32(block.timestamp + cooldown), 1) */\n      0xffffffff\n      and\n      dup2\n      mstore\n      pop\n        /* \"contracts/CarreraCoches/principal.sol\":1917:2029  listaCoches.push(Coche(msg.sender, _modelo, _marca, _nombrePiloto, 0, 0, uint32(block.timestamp + cooldown), 1)) */\n      swap1\n      dup1\n      0x01\n      dup2\n      sload\n      add\n      dup1\n      dup3\n      sstore\n      dup1\n      swap2\n      pop\n      pop\n      0x01\n      swap1\n      sub\n      swap1\n      0x00\n      mstore\n      keccak256(0x00, 0x20)\n      swap1\n      0x08\n      mul\n      add\n      0x00\n      swap1\n      swap2\n      swap1\n      swap2\n      swap1\n      swap2\n      pop\n      0x00\n      dup3\n      add\n      mload\n      dup2\n      0x00\n      add\n      exp(0x0100, 0x00)\n      dup2\n      sload\n      dup2\n      0xffffffffffffffffffffffffffffffffffffffff\n      mul\n      not\n      and\n      swap1\n      dup4\n      0xffffffffffffffffffffffffffffffffffffffff\n      and\n      mul\n      or\n      swap1\n      sstore\n      pop\n      0x20\n      dup3\n      add\n      mload\n      dup2\n      0x01\n      add\n      swap1\n      dup1\n      mload\n      swap1\n      0x20\n      add\n      swap1\n      tag_160\n      swap3\n      swap2\n      swap1\n      tag_142\n      jump\t// in\n    tag_160:\n      pop\n      0x40\n      dup3\n      add\n      mload\n      dup2\n      0x02\n      add\n      swap1\n      dup1\n      mload\n      swap1\n      0x20\n      add\n      swap1\n      tag_161\n      swap3\n      swap2\n      swap1\n      tag_142\n      jump\t// in\n    tag_161:\n      pop\n      0x60\n      dup3\n      add\n      mload\n      dup2\n      0x03\n      add\n      swap1\n      dup1\n      mload\n      swap1\n      0x20\n      add\n      swap1\n      tag_162\n      swap3\n      swap2\n      swap1\n      tag_142\n      jump\t// in\n    tag_162:\n      pop\n      0x80\n      dup3\n      add\n      mload\n      dup2\n      0x04\n      add\n      sstore\n      0xa0\n      dup3\n      add\n      mload\n      dup2\n      0x05\n      add\n      sstore\n      0xc0\n      dup3\n      add\n      mload\n      dup2\n      0x06\n      add\n      sstore\n      0xe0\n      dup3\n      add\n      mload\n      dup2\n      0x07\n      add\n      exp(0x0100, 0x00)\n      dup2\n      sload\n      dup2\n      0xffffffff\n      mul\n      not\n      and\n      swap1\n      dup4\n      0xffffffff\n      and\n      mul\n      or\n      swap1\n      sstore\n      pop\n      pop\n      pop\n        /* \"contracts/CarreraCoches/principal.sol\":2040:2047  uint id */\n      0x00\n        /* \"contracts/CarreraCoches/principal.sol\":2050:2061  listaCoches */\n      0x06\n        /* \"contracts/CarreraCoches/principal.sol\":2050:2068  listaCoches.length */\n      dup1\n      sload\n      swap1\n      pop\n        /* \"contracts/CarreraCoches/principal.sol\":2040:2068  uint id = listaCoches.length */\n      swap1\n      pop\n        /* \"contracts/CarreraCoches/principal.sol\":2104:2114  msg.sender */\n      caller\n        /* \"contracts/CarreraCoches/principal.sol\":2079:2097  cocheDePropietario */\n      0x07\n        /* \"contracts/CarreraCoches/principal.sol\":2079:2101  cocheDePropietario[id] */\n      0x00\n        /* \"contracts/CarreraCoches/principal.sol\":2098:2100  id */\n      dup4\n        /* \"contracts/CarreraCoches/principal.sol\":2079:2101  cocheDePropietario[id] */\n      dup2\n      mstore\n      0x20\n      add\n      swap1\n      dup2\n      mstore\n      0x20\n      add\n      0x00\n      keccak256\n      0x00\n        /* \"contracts/CarreraCoches/principal.sol\":2079:2114  cocheDePropietario[id] = msg.sender */\n      0x0100\n      exp\n      dup2\n      sload\n      dup2\n      0xffffffffffffffffffffffffffffffffffffffff\n      mul\n      not\n      and\n      swap1\n      dup4\n      0xffffffffffffffffffffffffffffffffffffffff\n      and\n      mul\n      or\n      swap1\n      sstore\n      pop\n        /* \"contracts/CarreraCoches/principal.sol\":2125:2144  numeroCochesPersona */\n      0x08\n        /* \"contracts/CarreraCoches/principal.sol\":2125:2156  numeroCochesPersona[msg.sender] */\n      0x00\n        /* \"contracts/CarreraCoches/principal.sol\":2145:2155  msg.sender */\n      caller\n        /* \"contracts/CarreraCoches/principal.sol\":2125:2156  numeroCochesPersona[msg.sender] */\n      0xffffffffffffffffffffffffffffffffffffffff\n      and\n      0xffffffffffffffffffffffffffffffffffffffff\n      and\n      dup2\n      mstore\n      0x20\n      add\n      swap1\n      dup2\n      mstore\n      0x20\n      add\n      0x00\n      keccak256\n      0x00\n        /* \"contracts/CarreraCoches/principal.sol\":2125:2158  numeroCochesPersona[msg.sender]++ */\n      dup2\n      sload\n      dup1\n      swap3\n      swap2\n      swap1\n      tag_163\n      swap1\n      tag_148\n      jump\t// in\n    tag_163:\n      swap2\n      swap1\n      pop\n      sstore\n      pop\n        /* \"contracts/CarreraCoches/principal.sol\":2169:2177  contador */\n      0x02\n      0x00\n        /* \"contracts/CarreraCoches/principal.sol\":2169:2179  contador++ */\n      dup2\n      sload\n      dup1\n      swap3\n      swap2\n      swap1\n      tag_164\n      swap1\n      tag_148\n      jump\t// in\n    tag_164:\n      swap2\n      swap1\n      pop\n      sstore\n      pop\n        /* \"contracts/CarreraCoches/principal.sol\":2208:2209  1 */\n      0x01\n        /* \"contracts/CarreraCoches/principal.sol\":2197:2205  contador */\n      sload(0x02)\n        /* \"contracts/CarreraCoches/principal.sol\":2197:2209  contador - 1 */\n      tag_165\n      swap2\n      swap1\n      tag_166\n      jump\t// in\n    tag_165:\n        /* \"contracts/CarreraCoches/principal.sol\":2190:2209  return contador - 1 */\n      swap2\n      pop\n      pop\n        /* \"contracts/CarreraCoches/principal.sol\":1777:2217  function anadirCoche(string memory _modelo, string memory _marca, string memory _nombrePiloto) public restriccion returns (uint) {\r... */\n      swap4\n      swap3\n      pop\n      pop\n      pop\n      jump\t// out\n        /* \"contracts/CarreraCoches/cocheToken.sol\":1687:1794  function safeTransferFrom(address _from, address _to, uint256 _tokenId) external override payable{\r... */\n    tag_62:\n      pop\n      pop\n      pop\n      jump\t// out\n        /* \"contracts/CarreraCoches/cocheToken.sol\":1464:1549  function ownerOf(uint256 _tokenId) external override view returns (address){\r... */\n    tag_66:\n        /* \"contracts/CarreraCoches/cocheToken.sol\":1531:1538  address */\n      0x00\n        /* \"contracts/CarreraCoches/cocheToken.sol\":1464:1549  function ownerOf(uint256 _tokenId) external override view returns (address){\r... */\n      swap2\n      swap1\n      pop\n      jump\t// out\n        /* \"contracts/CarreraCoches/principal.sol\":2545:2904  function subirDeNivel(address _propietario) external payable returns(string memory) {\r... */\n    tag_70:\n        /* \"contracts/CarreraCoches/principal.sol\":2614:2627  string memory */\n      0x60\n        /* \"contracts/CarreraCoches/principal.sol\":2659:2669  subirNivel */\n      sload(0x04)\n        /* \"contracts/CarreraCoches/principal.sol\":2648:2657  msg.value */\n      callvalue\n        /* \"contracts/CarreraCoches/principal.sol\":2648:2669  msg.value==subirNivel */\n      eq\n        /* \"contracts/CarreraCoches/principal.sol\":2640:2670  require(msg.value==subirNivel) */\n      tag_170\n      jumpi\n      0x00\n      dup1\n      revert\n    tag_170:\n        /* \"contracts/CarreraCoches/principal.sol\":2685:2691  uint i */\n      0x00\n        /* \"contracts/CarreraCoches/principal.sol\":2681:2897  for(uint i = 0; i < listaCoches.length; i++){\r... */\n    tag_171:\n        /* \"contracts/CarreraCoches/principal.sol\":2701:2712  listaCoches */\n      0x06\n        /* \"contracts/CarreraCoches/principal.sol\":2701:2719  listaCoches.length */\n      dup1\n      sload\n      swap1\n      pop\n        /* \"contracts/CarreraCoches/principal.sol\":2697:2698  i */\n      dup2\n        /* \"contracts/CarreraCoches/principal.sol\":2697:2719  i < listaCoches.length */\n      lt\n        /* \"contracts/CarreraCoches/principal.sol\":2681:2897  for(uint i = 0; i < listaCoches.length; i++){\r... */\n      iszero\n      tag_172\n      jumpi\n        /* \"contracts/CarreraCoches/principal.sol\":2770:2782  _propietario */\n      dup3\n        /* \"contracts/CarreraCoches/principal.sol\":2743:2782  listaCoches[i].idPiloto == _propietario */\n      0xffffffffffffffffffffffffffffffffffffffff\n      and\n        /* \"contracts/CarreraCoches/principal.sol\":2743:2754  listaCoches */\n      0x06\n        /* \"contracts/CarreraCoches/principal.sol\":2755:2756  i */\n      dup3\n        /* \"contracts/CarreraCoches/principal.sol\":2743:2757  listaCoches[i] */\n      dup2\n      sload\n      dup2\n      lt\n      tag_174\n      jumpi\n      tag_175\n      tag_135\n      jump\t// in\n    tag_175:\n    tag_174:\n      swap1\n      0x00\n      mstore\n      keccak256(0x00, 0x20)\n      swap1\n      0x08\n      mul\n      add\n        /* \"contracts/CarreraCoches/principal.sol\":2743:2766  listaCoches[i].idPiloto */\n      0x00\n      add\n      0x00\n      swap1\n      sload\n      swap1\n      0x0100\n      exp\n      swap1\n      div\n      0xffffffffffffffffffffffffffffffffffffffff\n      and\n        /* \"contracts/CarreraCoches/principal.sol\":2743:2782  listaCoches[i].idPiloto == _propietario */\n      0xffffffffffffffffffffffffffffffffffffffff\n      and\n      eq\n        /* \"contracts/CarreraCoches/principal.sol\":2740:2886  if(listaCoches[i].idPiloto == _propietario){\r... */\n      iszero\n      tag_177\n      jumpi\n        /* \"contracts/CarreraCoches/principal.sol\":2802:2813  listaCoches */\n      0x06\n        /* \"contracts/CarreraCoches/principal.sol\":2814:2815  i */\n      dup2\n        /* \"contracts/CarreraCoches/principal.sol\":2802:2816  listaCoches[i] */\n      dup2\n      sload\n      dup2\n      lt\n      tag_178\n      jumpi\n      tag_179\n      tag_135\n      jump\t// in\n    tag_179:\n    tag_178:\n      swap1\n      0x00\n      mstore\n      keccak256(0x00, 0x20)\n      swap1\n      0x08\n      mul\n      add\n        /* \"contracts/CarreraCoches/principal.sol\":2802:2822  listaCoches[i].nivel */\n      0x07\n      add\n      0x00\n        /* \"contracts/CarreraCoches/principal.sol\":2802:2824  listaCoches[i].nivel++ */\n      dup2\n      dup2\n      swap1\n      sload\n      swap1\n      0x0100\n      exp\n      swap1\n      div\n      0xffffffff\n      and\n      dup1\n      swap3\n      swap2\n      swap1\n      tag_181\n      swap1\n      tag_182\n      jump\t// in\n    tag_181:\n      swap2\n      swap1\n      0x0100\n      exp\n      dup2\n      sload\n      dup2\n      0xffffffff\n      mul\n      not\n      and\n      swap1\n      dup4\n      0xffffffff\n      and\n      mul\n      or\n      swap1\n      sstore\n      pop\n      pop\n        /* \"contracts/CarreraCoches/principal.sol\":2843:2870  return \"Ha subido de nivel\" */\n      mload(0x40)\n      dup1\n      0x40\n      add\n      0x40\n      mstore\n      dup1\n      0x12\n      dup2\n      mstore\n      0x20\n      add\n      0x48612073756269646f206465206e6976656c0000000000000000000000000000\n      dup2\n      mstore\n      pop\n      swap2\n      pop\n      pop\n      jump(tag_169)\n        /* \"contracts/CarreraCoches/principal.sol\":2740:2886  if(listaCoches[i].idPiloto == _propietario){\r... */\n    tag_177:\n        /* \"contracts/CarreraCoches/principal.sol\":2721:2724  i++ */\n      dup1\n      dup1\n      tag_183\n      swap1\n      tag_148\n      jump\t// in\n    tag_183:\n      swap2\n      pop\n      pop\n        /* \"contracts/CarreraCoches/principal.sol\":2681:2897  for(uint i = 0; i < listaCoches.length; i++){\r... */\n      jump(tag_171)\n    tag_172:\n      pop\n        /* \"contracts/CarreraCoches/principal.sol\":2545:2904  function subirDeNivel(address _propietario) external payable returns(string memory) {\r... */\n    tag_169:\n      swap2\n      swap1\n      pop\n      jump\t// out\n        /* \"contracts/CarreraCoches/principal.sol\":4168:7496  function Apostar(uint dineroApostar) public payable returns(string memory) {\r... */\n    tag_74:\n        /* \"contracts/CarreraCoches/principal.sol\":4228:4241  string memory */\n      0x60\n        /* \"contracts/CarreraCoches/principal.sol\":4289:4290  1 */\n      0x01\n        /* \"contracts/CarreraCoches/principal.sol\":4267:4278  listaCoches */\n      0x06\n        /* \"contracts/CarreraCoches/principal.sol\":4267:4285  listaCoches.length */\n      dup1\n      sload\n      swap1\n      pop\n        /* \"contracts/CarreraCoches/principal.sol\":4267:4290  listaCoches.length <= 1 */\n      gt\n        /* \"contracts/CarreraCoches/principal.sol\":4264:7490  if(listaCoches.length <= 1){\r... */\n      tag_185\n      jumpi\n        /* \"contracts/CarreraCoches/principal.sol\":4310:4389  confirmacionDepositoLleno(\"No hay coches suficientes para iniciar una carrera\") */\n      0x6158fc8f21c8cc73ddf920956cc75d0e8a48b4fc85817a0ba89eb3b6d2a75441\n      mload(0x40)\n      tag_186\n      swap1\n      tag_187\n      jump\t// in\n    tag_186:\n      mload(0x40)\n      dup1\n      swap2\n      sub\n      swap1\n      log1\n        /* \"contracts/CarreraCoches/principal.sol\":4264:7490  if(listaCoches.length <= 1){\r... */\n      jump(tag_188)\n    tag_185:\n        /* \"contracts/CarreraCoches/principal.sol\":4440:4453  dineroApostar */\n      dup2\n        /* \"contracts/CarreraCoches/principal.sol\":4427:4436  msg.value */\n      callvalue\n        /* \"contracts/CarreraCoches/principal.sol\":4427:4453  msg.value == dineroApostar */\n      eq\n        /* \"contracts/CarreraCoches/principal.sol\":4419:4454  require(msg.value == dineroApostar) */\n      tag_189\n      jumpi\n      0x00\n      dup1\n      revert\n    tag_189:\n        /* \"contracts/CarreraCoches/principal.sol\":4469:4478  randNonce */\n      0x01\n      0x00\n        /* \"contracts/CarreraCoches/principal.sol\":4469:4480  randNonce++ */\n      dup2\n      sload\n      dup1\n      swap3\n      swap2\n      swap1\n      tag_190\n      swap1\n      tag_148\n      jump\t// in\n    tag_190:\n      swap2\n      swap1\n      pop\n      sstore\n      pop\n        /* \"contracts/CarreraCoches/principal.sol\":4535:4548  uint256 rival */\n      0x00\n        /* \"contracts/CarreraCoches/principal.sol\":4638:4649  listaCoches */\n      0x06\n        /* \"contracts/CarreraCoches/principal.sol\":4638:4656  listaCoches.length */\n      dup1\n      sload\n      swap1\n      pop\n        /* \"contracts/CarreraCoches/principal.sol\":4586:4601  block.timestamp */\n      timestamp\n        /* \"contracts/CarreraCoches/principal.sol\":4603:4614  listaCoches */\n      0x06\n        /* \"contracts/CarreraCoches/principal.sol\":4603:4621  listaCoches.length */\n      dup1\n      sload\n      swap1\n      pop\n        /* \"contracts/CarreraCoches/principal.sol\":4623:4632  randNonce */\n      sload(0x01)\n        /* \"contracts/CarreraCoches/principal.sol\":4569:4633  abi.encodePacked(block.timestamp, listaCoches.length, randNonce) */\n      add(0x20, mload(0x40))\n      tag_191\n      swap4\n      swap3\n      swap2\n      swap1\n      tag_192\n      jump\t// in\n    tag_191:\n      mload(0x40)\n      0x20\n      dup2\n      dup4\n      sub\n      sub\n      dup2\n      mstore\n      swap1\n      0x40\n      mstore\n        /* \"contracts/CarreraCoches/principal.sol\":4559:4634  keccak256(abi.encodePacked(block.timestamp, listaCoches.length, randNonce)) */\n      dup1\n      mload\n      swap1\n      0x20\n      add\n      keccak256\n        /* \"contracts/CarreraCoches/principal.sol\":4551:4635  uint256(keccak256(abi.encodePacked(block.timestamp, listaCoches.length, randNonce))) */\n      0x00\n      shr\n        /* \"contracts/CarreraCoches/principal.sol\":4551:4656  uint256(keccak256(abi.encodePacked(block.timestamp, listaCoches.length, randNonce))) % listaCoches.length */\n      tag_193\n      swap2\n      swap1\n      tag_194\n      jump\t// in\n    tag_193:\n        /* \"contracts/CarreraCoches/principal.sol\":4535:4656  uint256 rival = uint256(keccak256(abi.encodePacked(block.timestamp, listaCoches.length, randNonce))) % listaCoches.length */\n      swap1\n      pop\n        /* \"contracts/CarreraCoches/principal.sol\":4671:4691  address addressRival */\n      0x00\n        /* \"contracts/CarreraCoches/principal.sol\":4694:4712  cocheDePropietario */\n      0x07\n        /* \"contracts/CarreraCoches/principal.sol\":4694:4719  cocheDePropietario[rival] */\n      0x00\n        /* \"contracts/CarreraCoches/principal.sol\":4713:4718  rival */\n      dup4\n        /* \"contracts/CarreraCoches/principal.sol\":4694:4719  cocheDePropietario[rival] */\n      dup2\n      mstore\n      0x20\n      add\n      swap1\n      dup2\n      mstore\n      0x20\n      add\n      0x00\n      keccak256\n      0x00\n      swap1\n      sload\n      swap1\n      0x0100\n      exp\n      swap1\n      div\n      0xffffffffffffffffffffffffffffffffffffffff\n      and\n        /* \"contracts/CarreraCoches/principal.sol\":4671:4719  address addressRival = cocheDePropietario[rival] */\n      swap1\n      pop\n        /* \"contracts/CarreraCoches/principal.sol\":4770:4779  randNonce */\n      0x01\n      0x00\n        /* \"contracts/CarreraCoches/principal.sol\":4770:4781  randNonce++ */\n      dup2\n      sload\n      dup1\n      swap3\n      swap2\n      swap1\n      tag_195\n      swap1\n      tag_148\n      jump\t// in\n    tag_195:\n      swap2\n      swap1\n      pop\n      sstore\n      pop\n        /* \"contracts/CarreraCoches/principal.sol\":4796:4807  uint numero */\n      0x00\n        /* \"contracts/CarreraCoches/principal.sol\":4810:4813  100 */\n      0x64\n        /* \"contracts/CarreraCoches/principal.sol\":4796:4813  uint numero = 100 */\n      swap1\n      pop\n        /* \"contracts/CarreraCoches/principal.sol\":4828:4843  uint256 ganador */\n      0x00\n        /* \"contracts/CarreraCoches/principal.sol\":4921:4927  numero */\n      dup2\n        /* \"contracts/CarreraCoches/principal.sol\":4881:4896  block.timestamp */\n      timestamp\n        /* \"contracts/CarreraCoches/principal.sol\":4898:4904  numero */\n      dup4\n        /* \"contracts/CarreraCoches/principal.sol\":4906:4915  randNonce */\n      sload(0x01)\n        /* \"contracts/CarreraCoches/principal.sol\":4864:4916  abi.encodePacked(block.timestamp, numero, randNonce) */\n      add(0x20, mload(0x40))\n      tag_196\n      swap4\n      swap3\n      swap2\n      swap1\n      tag_192\n      jump\t// in\n    tag_196:\n      mload(0x40)\n      0x20\n      dup2\n      dup4\n      sub\n      sub\n      dup2\n      mstore\n      swap1\n      0x40\n      mstore\n        /* \"contracts/CarreraCoches/principal.sol\":4854:4917  keccak256(abi.encodePacked(block.timestamp, numero, randNonce)) */\n      dup1\n      mload\n      swap1\n      0x20\n      add\n      keccak256\n        /* \"contracts/CarreraCoches/principal.sol\":4846:4918  uint256(keccak256(abi.encodePacked(block.timestamp, numero, randNonce))) */\n      0x00\n      shr\n        /* \"contracts/CarreraCoches/principal.sol\":4846:4927  uint256(keccak256(abi.encodePacked(block.timestamp, numero, randNonce))) % numero */\n      tag_197\n      swap2\n      swap1\n      tag_194\n      jump\t// in\n    tag_197:\n        /* \"contracts/CarreraCoches/principal.sol\":4828:4927  uint256 ganador = uint256(keccak256(abi.encodePacked(block.timestamp, numero, randNonce))) % numero */\n      swap1\n      pop\n        /* \"contracts/CarreraCoches/principal.sol\":4948:4954  uint i */\n      0x00\n        /* \"contracts/CarreraCoches/principal.sol\":4944:7479  for(uint i = 0; i < listaCoches.length; i++){\r... */\n    tag_198:\n        /* \"contracts/CarreraCoches/principal.sol\":4964:4975  listaCoches */\n      0x06\n        /* \"contracts/CarreraCoches/principal.sol\":4964:4982  listaCoches.length */\n      dup1\n      sload\n      swap1\n      pop\n        /* \"contracts/CarreraCoches/principal.sol\":4960:4961  i */\n      dup2\n        /* \"contracts/CarreraCoches/principal.sol\":4960:4982  i < listaCoches.length */\n      lt\n        /* \"contracts/CarreraCoches/principal.sol\":4944:7479  for(uint i = 0; i < listaCoches.length; i++){\r... */\n      iszero\n      tag_199\n      jumpi\n        /* \"contracts/CarreraCoches/principal.sol\":5103:5114  listaCoches */\n      0x06\n        /* \"contracts/CarreraCoches/principal.sol\":5115:5116  i */\n      dup2\n        /* \"contracts/CarreraCoches/principal.sol\":5103:5117  listaCoches[i] */\n      dup2\n      sload\n      dup2\n      lt\n      tag_201\n      jumpi\n      tag_202\n      tag_135\n      jump\t// in\n    tag_202:\n    tag_201:\n      swap1\n      0x00\n      mstore\n      keccak256(0x00, 0x20)\n      swap1\n      0x08\n      mul\n      add\n        /* \"contracts/CarreraCoches/principal.sol\":5103:5126  listaCoches[i].idPiloto */\n      0x00\n      add\n      0x00\n      swap1\n      sload\n      swap1\n      0x0100\n      exp\n      swap1\n      div\n      0xffffffffffffffffffffffffffffffffffffffff\n      and\n        /* \"contracts/CarreraCoches/principal.sol\":5089:5126  msg.sender == listaCoches[i].idPiloto */\n      0xffffffffffffffffffffffffffffffffffffffff\n      and\n        /* \"contracts/CarreraCoches/principal.sol\":5089:5099  msg.sender */\n      caller\n        /* \"contracts/CarreraCoches/principal.sol\":5089:5126  msg.sender == listaCoches[i].idPiloto */\n      0xffffffffffffffffffffffffffffffffffffffff\n      and\n      eq\n        /* \"contracts/CarreraCoches/principal.sol\":5085:7446  if (msg.sender == listaCoches[i].idPiloto) {\r... */\n      iszero\n      tag_204\n      jumpi\n        /* \"contracts/CarreraCoches/principal.sol\":5151:5162  listaCoches */\n      0x06\n        /* \"contracts/CarreraCoches/principal.sol\":5163:5164  i */\n      dup2\n        /* \"contracts/CarreraCoches/principal.sol\":5151:5165  listaCoches[i] */\n      dup2\n      sload\n      dup2\n      lt\n      tag_205\n      jumpi\n      tag_206\n      tag_135\n      jump\t// in\n    tag_206:\n    tag_205:\n      swap1\n      0x00\n      mstore\n      keccak256(0x00, 0x20)\n      swap1\n      0x08\n      mul\n      add\n        /* \"contracts/CarreraCoches/principal.sol\":5151:5181  listaCoches[i].carrerasTotales */\n      0x05\n      add\n      0x00\n        /* \"contracts/CarreraCoches/principal.sol\":5151:5183  listaCoches[i].carrerasTotales++ */\n      dup2\n      sload\n      dup1\n      swap3\n      swap2\n      swap1\n      tag_208\n      swap1\n      tag_148\n      jump\t// in\n    tag_208:\n      swap2\n      swap1\n      pop\n      sstore\n      pop\n        /* \"contracts/CarreraCoches/principal.sol\":5206:5217  listaCoches */\n      0x06\n        /* \"contracts/CarreraCoches/principal.sol\":5218:5223  rival */\n      dup6\n        /* \"contracts/CarreraCoches/principal.sol\":5206:5224  listaCoches[rival] */\n      dup2\n      sload\n      dup2\n      lt\n      tag_209\n      jumpi\n      tag_210\n      tag_135\n      jump\t// in\n    tag_210:\n    tag_209:\n      swap1\n      0x00\n      mstore\n      keccak256(0x00, 0x20)\n      swap1\n      0x08\n      mul\n      add\n        /* \"contracts/CarreraCoches/principal.sol\":5206:5240  listaCoches[rival].carrerasTotales */\n      0x05\n      add\n      0x00\n        /* \"contracts/CarreraCoches/principal.sol\":5206:5242  listaCoches[rival].carrerasTotales++ */\n      dup2\n      sload\n      dup1\n      swap3\n      swap2\n      swap1\n      tag_212\n      swap1\n      tag_148\n      jump\t// in\n    tag_212:\n      swap2\n      swap1\n      pop\n      sstore\n      pop\n        /* \"contracts/CarreraCoches/principal.sol\":5265:5292  _repostando(listaCoches[i]) */\n      tag_213\n        /* \"contracts/CarreraCoches/principal.sol\":5277:5288  listaCoches */\n      0x06\n        /* \"contracts/CarreraCoches/principal.sol\":5289:5290  i */\n      dup3\n        /* \"contracts/CarreraCoches/principal.sol\":5277:5291  listaCoches[i] */\n      dup2\n      sload\n      dup2\n      lt\n      tag_214\n      jumpi\n      tag_215\n      tag_135\n      jump\t// in\n    tag_215:\n    tag_214:\n      swap1\n      0x00\n      mstore\n      keccak256(0x00, 0x20)\n      swap1\n      0x08\n      mul\n      add\n        /* \"contracts/CarreraCoches/principal.sol\":5265:5276  _repostando */\n      tag_217\n        /* \"contracts/CarreraCoches/principal.sol\":5265:5292  _repostando(listaCoches[i]) */\n      jump\t// in\n    tag_213:\n        /* \"contracts/CarreraCoches/principal.sol\":5345:5356  listaCoches */\n      0x06\n        /* \"contracts/CarreraCoches/principal.sol\":5357:5358  i */\n      dup2\n        /* \"contracts/CarreraCoches/principal.sol\":5345:5359  listaCoches[i] */\n      dup2\n      sload\n      dup2\n      lt\n      tag_218\n      jumpi\n      tag_219\n      tag_135\n      jump\t// in\n    tag_219:\n    tag_218:\n      swap1\n      0x00\n      mstore\n      keccak256(0x00, 0x20)\n      swap1\n      0x08\n      mul\n      add\n        /* \"contracts/CarreraCoches/principal.sol\":5345:5365  listaCoches[i].nivel */\n      0x07\n      add\n      0x00\n      swap1\n      sload\n      swap1\n      0x0100\n      exp\n      swap1\n      div\n      0xffffffff\n      and\n        /* \"contracts/CarreraCoches/principal.sol\":5318:5365  listaCoches[rival].nivel < listaCoches[i].nivel */\n      0xffffffff\n      and\n        /* \"contracts/CarreraCoches/principal.sol\":5318:5329  listaCoches */\n      0x06\n        /* \"contracts/CarreraCoches/principal.sol\":5330:5335  rival */\n      dup7\n        /* \"contracts/CarreraCoches/principal.sol\":5318:5336  listaCoches[rival] */\n      dup2\n      sload\n      dup2\n      lt\n      tag_221\n      jumpi\n      tag_222\n      tag_135\n      jump\t// in\n    tag_222:\n    tag_221:\n      swap1\n      0x00\n      mstore\n      keccak256(0x00, 0x20)\n      swap1\n      0x08\n      mul\n      add\n        /* \"contracts/CarreraCoches/principal.sol\":5318:5342  listaCoches[rival].nivel */\n      0x07\n      add\n      0x00\n      swap1\n      sload\n      swap1\n      0x0100\n      exp\n      swap1\n      div\n      0xffffffff\n      and\n        /* \"contracts/CarreraCoches/principal.sol\":5318:5365  listaCoches[rival].nivel < listaCoches[i].nivel */\n      0xffffffff\n      and\n      lt\n        /* \"contracts/CarreraCoches/principal.sol\":5315:7423  if(listaCoches[rival].nivel < listaCoches[i].nivel){\r... */\n      iszero\n      tag_224\n      jumpi\n        /* \"contracts/CarreraCoches/principal.sol\":5405:5407  60 */\n      0x3c\n        /* \"contracts/CarreraCoches/principal.sol\":5396:5403  ganador */\n      dup3\n        /* \"contracts/CarreraCoches/principal.sol\":5396:5407  ganador<=60 */\n      gt\n        /* \"contracts/CarreraCoches/principal.sol\":5393:5966  if(ganador<=60){\r... */\n      tag_225\n      jumpi\n        /* \"contracts/CarreraCoches/principal.sol\":5439:5448  balance() */\n      tag_226\n        /* \"contracts/CarreraCoches/principal.sol\":5439:5446  balance */\n      tag_227\n        /* \"contracts/CarreraCoches/principal.sol\":5439:5448  balance() */\n      jump\t// in\n    tag_226:\n        /* \"contracts/CarreraCoches/principal.sol\":5479:5490  listaCoches */\n      0x06\n        /* \"contracts/CarreraCoches/principal.sol\":5491:5492  i */\n      dup2\n        /* \"contracts/CarreraCoches/principal.sol\":5479:5493  listaCoches[i] */\n      dup2\n      sload\n      dup2\n      lt\n      tag_228\n      jumpi\n      tag_229\n      tag_135\n      jump\t// in\n    tag_229:\n    tag_228:\n      swap1\n      0x00\n      mstore\n      keccak256(0x00, 0x20)\n      swap1\n      0x08\n      mul\n      add\n        /* \"contracts/CarreraCoches/principal.sol\":5479:5509  listaCoches[i].carrerasGanadas */\n      0x04\n      add\n      0x00\n        /* \"contracts/CarreraCoches/principal.sol\":5479:5511  listaCoches[i].carrerasGanadas++ */\n      dup2\n      sload\n      dup1\n      swap3\n      swap2\n      swap1\n      tag_231\n      swap1\n      tag_148\n      jump\t// in\n    tag_231:\n      swap2\n      swap1\n      pop\n      sstore\n      pop\n        /* \"contracts/CarreraCoches/principal.sol\":5542:5553  listaCoches */\n      0x06\n        /* \"contracts/CarreraCoches/principal.sol\":5554:5555  i */\n      dup2\n        /* \"contracts/CarreraCoches/principal.sol\":5542:5556  listaCoches[i] */\n      dup2\n      sload\n      dup2\n      lt\n      tag_232\n      jumpi\n      tag_233\n      tag_135\n      jump\t// in\n    tag_233:\n    tag_232:\n      swap1\n      0x00\n      mstore\n      keccak256(0x00, 0x20)\n      swap1\n      0x08\n      mul\n      add\n        /* \"contracts/CarreraCoches/principal.sol\":5542:5562  listaCoches[i].nivel */\n      0x07\n      add\n      0x00\n        /* \"contracts/CarreraCoches/principal.sol\":5542:5564  listaCoches[i].nivel++ */\n      dup2\n      dup2\n      swap1\n      sload\n      swap1\n      0x0100\n      exp\n      swap1\n      div\n      0xffffffff\n      and\n      dup1\n      swap3\n      swap2\n      swap1\n      tag_235\n      swap1\n      tag_182\n      jump\t// in\n    tag_235:\n      swap2\n      swap1\n      0x0100\n      exp\n      dup2\n      sload\n      dup2\n      0xffffffff\n      mul\n      not\n      and\n      swap1\n      dup4\n      0xffffffff\n      and\n      mul\n      or\n      swap1\n      sstore\n      pop\n      pop\n        /* \"contracts/CarreraCoches/principal.sol\":5595:5614  return \"Has ganado\" */\n      mload(0x40)\n      dup1\n      0x40\n      add\n      0x40\n      mstore\n      dup1\n      0x0a\n      dup2\n      mstore\n      0x20\n      add\n      0x4861732067616e61646f00000000000000000000000000000000000000000000\n      dup2\n      mstore\n      pop\n      swap6\n      pop\n      pop\n      pop\n      pop\n      pop\n      pop\n      jump(tag_184)\n        /* \"contracts/CarreraCoches/principal.sol\":5393:5966  if(ganador<=60){\r... */\n    tag_225:\n        /* \"contracts/CarreraCoches/principal.sol\":5768:5818  confirmacionDepositoLleno(\"El coche ganador es: \") */\n      0x6158fc8f21c8cc73ddf920956cc75d0e8a48b4fc85817a0ba89eb3b6d2a75441\n      mload(0x40)\n      tag_237\n      swap1\n      tag_238\n      jump\t// in\n    tag_237:\n      mload(0x40)\n      dup1\n      swap2\n      sub\n      swap1\n      log1\n        /* \"contracts/CarreraCoches/principal.sol\":5849:5853  this */\n      address\n        /* \"contracts/CarreraCoches/principal.sol\":5849:5873  this.verCochePropietario */\n      0xffffffffffffffffffffffffffffffffffffffff\n      and\n      0xe172fca8\n        /* \"contracts/CarreraCoches/principal.sol\":5874:5886  addressRival */\n      dup6\n        /* \"contracts/CarreraCoches/principal.sol\":5849:5887  this.verCochePropietario(addressRival) */\n      mload(0x40)\n      dup3\n      0xffffffff\n      and\n      0xe0\n      shl\n      dup2\n      mstore\n      0x04\n      add\n      tag_239\n      swap2\n      swap1\n      tag_38\n      jump\t// in\n    tag_239:\n      0x00\n      mload(0x40)\n      dup1\n      dup4\n      sub\n      dup2\n      0x00\n      dup8\n      dup1\n      extcodesize\n      iszero\n      dup1\n      iszero\n      tag_240\n      jumpi\n      0x00\n      dup1\n      revert\n    tag_240:\n      pop\n      gas\n      call\n      iszero\n      dup1\n      iszero\n      tag_242\n      jumpi\n      returndatasize\n      0x00\n      dup1\n      returndatacopy\n      revert(0x00, returndatasize)\n    tag_242:\n      pop\n      pop\n      pop\n      pop\n        /* \"contracts/CarreraCoches/principal.sol\":5918:5938  return \"Has perdido\" */\n      mload(0x40)\n      dup1\n      0x40\n      add\n      0x40\n      mstore\n      dup1\n      0x0b\n      dup2\n      mstore\n      0x20\n      add\n      0x486173207065726469646f000000000000000000000000000000000000000000\n      dup2\n      mstore\n      pop\n      swap6\n      pop\n      pop\n      pop\n      pop\n      pop\n      pop\n      jump(tag_184)\n        /* \"contracts/CarreraCoches/principal.sol\":5315:7423  if(listaCoches[rival].nivel < listaCoches[i].nivel){\r... */\n    tag_224:\n        /* \"contracts/CarreraCoches/principal.sol\":6029:6040  listaCoches */\n      0x06\n        /* \"contracts/CarreraCoches/principal.sol\":6041:6042  i */\n      dup2\n        /* \"contracts/CarreraCoches/principal.sol\":6029:6043  listaCoches[i] */\n      dup2\n      sload\n      dup2\n      lt\n      tag_244\n      jumpi\n      tag_245\n      tag_135\n      jump\t// in\n    tag_245:\n    tag_244:\n      swap1\n      0x00\n      mstore\n      keccak256(0x00, 0x20)\n      swap1\n      0x08\n      mul\n      add\n        /* \"contracts/CarreraCoches/principal.sol\":6029:6049  listaCoches[i].nivel */\n      0x07\n      add\n      0x00\n      swap1\n      sload\n      swap1\n      0x0100\n      exp\n      swap1\n      div\n      0xffffffff\n      and\n        /* \"contracts/CarreraCoches/principal.sol\":6001:6049  listaCoches[rival].nivel == listaCoches[i].nivel */\n      0xffffffff\n      and\n        /* \"contracts/CarreraCoches/principal.sol\":6001:6012  listaCoches */\n      0x06\n        /* \"contracts/CarreraCoches/principal.sol\":6013:6018  rival */\n      dup7\n        /* \"contracts/CarreraCoches/principal.sol\":6001:6019  listaCoches[rival] */\n      dup2\n      sload\n      dup2\n      lt\n      tag_247\n      jumpi\n      tag_248\n      tag_135\n      jump\t// in\n    tag_248:\n    tag_247:\n      swap1\n      0x00\n      mstore\n      keccak256(0x00, 0x20)\n      swap1\n      0x08\n      mul\n      add\n        /* \"contracts/CarreraCoches/principal.sol\":6001:6025  listaCoches[rival].nivel */\n      0x07\n      add\n      0x00\n      swap1\n      sload\n      swap1\n      0x0100\n      exp\n      swap1\n      div\n      0xffffffff\n      and\n        /* \"contracts/CarreraCoches/principal.sol\":6001:6049  listaCoches[rival].nivel == listaCoches[i].nivel */\n      0xffffffff\n      and\n      eq\n        /* \"contracts/CarreraCoches/principal.sol\":5998:7423  if(listaCoches[rival].nivel == listaCoches[i].nivel){\r... */\n      iszero\n      tag_250\n      jumpi\n        /* \"contracts/CarreraCoches/principal.sol\":6089:6091  50 */\n      0x32\n        /* \"contracts/CarreraCoches/principal.sol\":6080:6087  ganador */\n      dup3\n        /* \"contracts/CarreraCoches/principal.sol\":6080:6091  ganador<=50 */\n      gt\n        /* \"contracts/CarreraCoches/principal.sol\":6077:6652  if(ganador<=50){\r... */\n      tag_251\n      jumpi\n        /* \"contracts/CarreraCoches/principal.sol\":6123:6132  balance() */\n      tag_252\n        /* \"contracts/CarreraCoches/principal.sol\":6123:6130  balance */\n      tag_227\n        /* \"contracts/CarreraCoches/principal.sol\":6123:6132  balance() */\n      jump\t// in\n    tag_252:\n        /* \"contracts/CarreraCoches/principal.sol\":6163:6174  listaCoches */\n      0x06\n        /* \"contracts/CarreraCoches/principal.sol\":6175:6176  i */\n      dup2\n        /* \"contracts/CarreraCoches/principal.sol\":6163:6177  listaCoches[i] */\n      dup2\n      sload\n      dup2\n      lt\n      tag_253\n      jumpi\n      tag_254\n      tag_135\n      jump\t// in\n    tag_254:\n    tag_253:\n      swap1\n      0x00\n      mstore\n      keccak256(0x00, 0x20)\n      swap1\n      0x08\n      mul\n      add\n        /* \"contracts/CarreraCoches/principal.sol\":6163:6193  listaCoches[i].carrerasGanadas */\n      0x04\n      add\n      0x00\n        /* \"contracts/CarreraCoches/principal.sol\":6163:6195  listaCoches[i].carrerasGanadas++ */\n      dup2\n      sload\n      dup1\n      swap3\n      swap2\n      swap1\n      tag_256\n      swap1\n      tag_148\n      jump\t// in\n    tag_256:\n      swap2\n      swap1\n      pop\n      sstore\n      pop\n        /* \"contracts/CarreraCoches/principal.sol\":6226:6237  listaCoches */\n      0x06\n        /* \"contracts/CarreraCoches/principal.sol\":6238:6239  i */\n      dup2\n        /* \"contracts/CarreraCoches/principal.sol\":6226:6240  listaCoches[i] */\n      dup2\n      sload\n      dup2\n      lt\n      tag_257\n      jumpi\n      tag_258\n      tag_135\n      jump\t// in\n    tag_258:\n    tag_257:\n      swap1\n      0x00\n      mstore\n      keccak256(0x00, 0x20)\n      swap1\n      0x08\n      mul\n      add\n        /* \"contracts/CarreraCoches/principal.sol\":6226:6246  listaCoches[i].nivel */\n      0x07\n      add\n      0x00\n        /* \"contracts/CarreraCoches/principal.sol\":6226:6248  listaCoches[i].nivel++ */\n      dup2\n      dup2\n      swap1\n      sload\n      swap1\n      0x0100\n      exp\n      swap1\n      div\n      0xffffffff\n      and\n      dup1\n      swap3\n      swap2\n      swap1\n      tag_260\n      swap1\n      tag_182\n      jump\t// in\n    tag_260:\n      swap2\n      swap1\n      0x0100\n      exp\n      dup2\n      sload\n      dup2\n      0xffffffff\n      mul\n      not\n      and\n      swap1\n      dup4\n      0xffffffff\n      and\n      mul\n      or\n      swap1\n      sstore\n      pop\n      pop\n        /* \"contracts/CarreraCoches/principal.sol\":6279:6298  return \"Has ganado\" */\n      mload(0x40)\n      dup1\n      0x40\n      add\n      0x40\n      mstore\n      dup1\n      0x0a\n      dup2\n      mstore\n      0x20\n      add\n      0x4861732067616e61646f00000000000000000000000000000000000000000000\n      dup2\n      mstore\n      pop\n      swap6\n      pop\n      pop\n      pop\n      pop\n      pop\n      pop\n      jump(tag_184)\n        /* \"contracts/CarreraCoches/principal.sol\":6077:6652  if(ganador<=50){\r... */\n    tag_251:\n        /* \"contracts/CarreraCoches/principal.sol\":6454:6504  confirmacionDepositoLleno(\"El coche ganador es: \") */\n      0x6158fc8f21c8cc73ddf920956cc75d0e8a48b4fc85817a0ba89eb3b6d2a75441\n      mload(0x40)\n      tag_262\n      swap1\n      tag_238\n      jump\t// in\n    tag_262:\n      mload(0x40)\n      dup1\n      swap2\n      sub\n      swap1\n      log1\n        /* \"contracts/CarreraCoches/principal.sol\":6535:6539  this */\n      address\n        /* \"contracts/CarreraCoches/principal.sol\":6535:6559  this.verCochePropietario */\n      0xffffffffffffffffffffffffffffffffffffffff\n      and\n      0xe172fca8\n        /* \"contracts/CarreraCoches/principal.sol\":6560:6572  addressRival */\n      dup6\n        /* \"contracts/CarreraCoches/principal.sol\":6535:6573  this.verCochePropietario(addressRival) */\n      mload(0x40)\n      dup3\n      0xffffffff\n      and\n      0xe0\n      shl\n      dup2\n      mstore\n      0x04\n      add\n      tag_263\n      swap2\n      swap1\n      tag_38\n      jump\t// in\n    tag_263:\n      0x00\n      mload(0x40)\n      dup1\n      dup4\n      sub\n      dup2\n      0x00\n      dup8\n      dup1\n      extcodesize\n      iszero\n      dup1\n      iszero\n      tag_264\n      jumpi\n      0x00\n      dup1\n      revert\n    tag_264:\n      pop\n      gas\n      call\n      iszero\n      dup1\n      iszero\n      tag_266\n      jumpi\n      returndatasize\n      0x00\n      dup1\n      returndatacopy\n      revert(0x00, returndatasize)\n    tag_266:\n      pop\n      pop\n      pop\n      pop\n        /* \"contracts/CarreraCoches/principal.sol\":6604:6624  return \"Has perdido\" */\n      mload(0x40)\n      dup1\n      0x40\n      add\n      0x40\n      mstore\n      dup1\n      0x0b\n      dup2\n      mstore\n      0x20\n      add\n      0x486173207065726469646f000000000000000000000000000000000000000000\n      dup2\n      mstore\n      pop\n      swap6\n      pop\n      pop\n      pop\n      pop\n      pop\n      pop\n      jump(tag_184)\n        /* \"contracts/CarreraCoches/principal.sol\":5998:7423  if(listaCoches[rival].nivel == listaCoches[i].nivel){\r... */\n    tag_250:\n        /* \"contracts/CarreraCoches/principal.sol\":6719:6721  40 */\n      0x28\n        /* \"contracts/CarreraCoches/principal.sol\":6710:6717  ganador */\n      dup3\n        /* \"contracts/CarreraCoches/principal.sol\":6710:6721  ganador<=40 */\n      gt\n        /* \"contracts/CarreraCoches/principal.sol\":6707:7399  if(ganador<=40){\r... */\n      tag_268\n      jumpi\n        /* \"contracts/CarreraCoches/principal.sol\":6753:6762  balance() */\n      tag_269\n        /* \"contracts/CarreraCoches/principal.sol\":6753:6760  balance */\n      tag_227\n        /* \"contracts/CarreraCoches/principal.sol\":6753:6762  balance() */\n      jump\t// in\n    tag_269:\n        /* \"contracts/CarreraCoches/principal.sol\":6793:6804  listaCoches */\n      0x06\n        /* \"contracts/CarreraCoches/principal.sol\":6805:6806  i */\n      dup2\n        /* \"contracts/CarreraCoches/principal.sol\":6793:6807  listaCoches[i] */\n      dup2\n      sload\n      dup2\n      lt\n      tag_270\n      jumpi\n      tag_271\n      tag_135\n      jump\t// in\n    tag_271:\n    tag_270:\n      swap1\n      0x00\n      mstore\n      keccak256(0x00, 0x20)\n      swap1\n      0x08\n      mul\n      add\n        /* \"contracts/CarreraCoches/principal.sol\":6793:6823  listaCoches[i].carrerasGanadas */\n      0x04\n      add\n      0x00\n        /* \"contracts/CarreraCoches/principal.sol\":6793:6825  listaCoches[i].carrerasGanadas++ */\n      dup2\n      sload\n      dup1\n      swap3\n      swap2\n      swap1\n      tag_273\n      swap1\n      tag_148\n      jump\t// in\n    tag_273:\n      swap2\n      swap1\n      pop\n      sstore\n      pop\n        /* \"contracts/CarreraCoches/principal.sol\":6856:6867  listaCoches */\n      0x06\n        /* \"contracts/CarreraCoches/principal.sol\":6868:6869  i */\n      dup2\n        /* \"contracts/CarreraCoches/principal.sol\":6856:6870  listaCoches[i] */\n      dup2\n      sload\n      dup2\n      lt\n      tag_274\n      jumpi\n      tag_275\n      tag_135\n      jump\t// in\n    tag_275:\n    tag_274:\n      swap1\n      0x00\n      mstore\n      keccak256(0x00, 0x20)\n      swap1\n      0x08\n      mul\n      add\n        /* \"contracts/CarreraCoches/principal.sol\":6856:6876  listaCoches[i].nivel */\n      0x07\n      add\n      0x00\n        /* \"contracts/CarreraCoches/principal.sol\":6856:6878  listaCoches[i].nivel++ */\n      dup2\n      dup2\n      swap1\n      sload\n      swap1\n      0x0100\n      exp\n      swap1\n      div\n      0xffffffff\n      and\n      dup1\n      swap3\n      swap2\n      swap1\n      tag_277\n      swap1\n      tag_182\n      jump\t// in\n    tag_277:\n      swap2\n      swap1\n      0x0100\n      exp\n      dup2\n      sload\n      dup2\n      0xffffffff\n      mul\n      not\n      and\n      swap1\n      dup4\n      0xffffffff\n      and\n      mul\n      or\n      swap1\n      sstore\n      pop\n      pop\n        /* \"contracts/CarreraCoches/principal.sol\":6909:6928  return \"Has ganado\" */\n      mload(0x40)\n      dup1\n      0x40\n      add\n      0x40\n      mstore\n      dup1\n      0x0a\n      dup2\n      mstore\n      0x20\n      add\n      0x4861732067616e61646f00000000000000000000000000000000000000000000\n      dup2\n      mstore\n      pop\n      swap6\n      pop\n      pop\n      pop\n      pop\n      pop\n      pop\n      jump(tag_184)\n        /* \"contracts/CarreraCoches/principal.sol\":6707:7399  if(ganador<=40){\r... */\n    tag_268:\n        /* \"contracts/CarreraCoches/principal.sol\":6996:7046  confirmacionDepositoLleno(\"El coche ganador es: \") */\n      0x6158fc8f21c8cc73ddf920956cc75d0e8a48b4fc85817a0ba89eb3b6d2a75441\n      mload(0x40)\n      tag_279\n      swap1\n      tag_238\n      jump\t// in\n    tag_279:\n      mload(0x40)\n      dup1\n      swap2\n      sub\n      swap1\n      log1\n        /* \"contracts/CarreraCoches/principal.sol\":7077:7081  this */\n      address\n        /* \"contracts/CarreraCoches/principal.sol\":7077:7101  this.verCochePropietario */\n      0xffffffffffffffffffffffffffffffffffffffff\n      and\n      0xe172fca8\n        /* \"contracts/CarreraCoches/principal.sol\":7102:7114  addressRival */\n      dup6\n        /* \"contracts/CarreraCoches/principal.sol\":7077:7115  this.verCochePropietario(addressRival) */\n      mload(0x40)\n      dup3\n      0xffffffff\n      and\n      0xe0\n      shl\n      dup2\n      mstore\n      0x04\n      add\n      tag_280\n      swap2\n      swap1\n      tag_38\n      jump\t// in\n    tag_280:\n      0x00\n      mload(0x40)\n      dup1\n      dup4\n      sub\n      dup2\n      0x00\n      dup8\n      dup1\n      extcodesize\n      iszero\n      dup1\n      iszero\n      tag_281\n      jumpi\n      0x00\n      dup1\n      revert\n    tag_281:\n      pop\n      gas\n      call\n      iszero\n      dup1\n      iszero\n      tag_283\n      jumpi\n      returndatasize\n      0x00\n      dup1\n      returndatacopy\n      revert(0x00, returndatasize)\n    tag_283:\n      pop\n      pop\n      pop\n      pop\n        /* \"contracts/CarreraCoches/principal.sol\":7351:7371  return \"Has perdido\" */\n      mload(0x40)\n      dup1\n      0x40\n      add\n      0x40\n      mstore\n      dup1\n      0x0b\n      dup2\n      mstore\n      0x20\n      add\n      0x486173207065726469646f000000000000000000000000000000000000000000\n      dup2\n      mstore\n      pop\n      swap6\n      pop\n      pop\n      pop\n      pop\n      pop\n      pop\n      jump(tag_184)\n        /* \"contracts/CarreraCoches/principal.sol\":5085:7446  if (msg.sender == listaCoches[i].idPiloto) {\r... */\n    tag_204:\n        /* \"contracts/CarreraCoches/principal.sol\":4984:4987  i++ */\n      dup1\n      dup1\n      tag_284\n      swap1\n      tag_148\n      jump\t// in\n    tag_284:\n      swap2\n      pop\n      pop\n        /* \"contracts/CarreraCoches/principal.sol\":4944:7479  for(uint i = 0; i < listaCoches.length; i++){\r... */\n      jump(tag_198)\n    tag_199:\n      pop\n        /* \"contracts/CarreraCoches/principal.sol\":4404:7490  {\r... */\n      pop\n      pop\n      pop\n      pop\n        /* \"contracts/CarreraCoches/principal.sol\":4264:7490  if(listaCoches.length <= 1){\r... */\n    tag_188:\n        /* \"contracts/CarreraCoches/principal.sol\":4168:7496  function Apostar(uint dineroApostar) public payable returns(string memory) {\r... */\n    tag_184:\n      swap2\n      swap1\n      pop\n      jump\t// out\n        /* \"contracts/CarreraCoches/cocheToken.sol\":1321:1458  function balanceOf(address _owner) external override view returns (uint256 _balance){\r... */\n    tag_79:\n        /* \"contracts/CarreraCoches/cocheToken.sol\":1388:1404  uint256 _balance */\n      0x00\n        /* \"contracts/CarreraCoches/cocheToken.sol\":1423:1442  numeroCochesPersona */\n      0x08\n        /* \"contracts/CarreraCoches/cocheToken.sol\":1423:1450  numeroCochesPersona[_owner] */\n      0x00\n        /* \"contracts/CarreraCoches/cocheToken.sol\":1443:1449  _owner */\n      dup4\n        /* \"contracts/CarreraCoches/cocheToken.sol\":1423:1450  numeroCochesPersona[_owner] */\n      0xffffffffffffffffffffffffffffffffffffffff\n      and\n      0xffffffffffffffffffffffffffffffffffffffff\n      and\n      dup2\n      mstore\n      0x20\n      add\n      swap1\n      dup2\n      mstore\n      0x20\n      add\n      0x00\n      keccak256\n      sload\n        /* \"contracts/CarreraCoches/cocheToken.sol\":1416:1450  return numeroCochesPersona[_owner] */\n      swap1\n      pop\n        /* \"contracts/CarreraCoches/cocheToken.sol\":1321:1458  function balanceOf(address _owner) external override view returns (uint256 _balance){\r... */\n      swap2\n      swap1\n      pop\n      jump\t// out\n        /* \"contracts/CarreraCoches/ownable.sol\":1719:1822  function renounceOwnership() public virtual onlyOwner {\r... */\n    tag_83:\n        /* \"contracts/CarreraCoches/ownable.sol\":1299:1311  _msgSender() */\n      tag_287\n        /* \"contracts/CarreraCoches/ownable.sol\":1299:1309  _msgSender */\n      tag_288\n        /* \"contracts/CarreraCoches/ownable.sol\":1299:1311  _msgSender() */\n      jump\t// in\n    tag_287:\n        /* \"contracts/CarreraCoches/ownable.sol\":1288:1311  owner() == _msgSender() */\n      0xffffffffffffffffffffffffffffffffffffffff\n      and\n        /* \"contracts/CarreraCoches/ownable.sol\":1288:1295  owner() */\n      tag_289\n        /* \"contracts/CarreraCoches/ownable.sol\":1288:1293  owner */\n      tag_91\n        /* \"contracts/CarreraCoches/ownable.sol\":1288:1295  owner() */\n      jump\t// in\n    tag_289:\n        /* \"contracts/CarreraCoches/ownable.sol\":1288:1311  owner() == _msgSender() */\n      0xffffffffffffffffffffffffffffffffffffffff\n      and\n      eq\n        /* \"contracts/CarreraCoches/ownable.sol\":1280:1348  require(owner() == _msgSender(), \"Ownable: caller is not the owner\") */\n      tag_290\n      jumpi\n      mload(0x40)\n      0x08c379a000000000000000000000000000000000000000000000000000000000\n      dup2\n      mstore\n      0x04\n      add\n      tag_291\n      swap1\n      tag_292\n      jump\t// in\n    tag_291:\n      mload(0x40)\n      dup1\n      swap2\n      sub\n      swap1\n      revert\n    tag_290:\n        /* \"contracts/CarreraCoches/ownable.sol\":1784:1814  _transferOwnership(address(0)) */\n      tag_294\n        /* \"contracts/CarreraCoches/ownable.sol\":1811:1812  0 */\n      0x00\n        /* \"contracts/CarreraCoches/ownable.sol\":1784:1802  _transferOwnership */\n      tag_295\n        /* \"contracts/CarreraCoches/ownable.sol\":1784:1814  _transferOwnership(address(0)) */\n      jump\t// in\n    tag_294:\n        /* \"contracts/CarreraCoches/ownable.sol\":1719:1822  function renounceOwnership() public virtual onlyOwner {\r... */\n      jump\t// out\n        /* \"contracts/CarreraCoches/principal.sol\":871:922  mapping (uint => address) public cocheDePropietario */\n    tag_87:\n      mstore(0x20, 0x07)\n      dup1\n      0x00\n      mstore\n      keccak256(0x00, 0x40)\n      0x00\n      swap2\n      pop\n      sload\n      swap1\n      0x0100\n      exp\n      swap1\n      div\n      0xffffffffffffffffffffffffffffffffffffffff\n      and\n      dup2\n      jump\t// out\n        /* \"contracts/CarreraCoches/ownable.sol\":1068:1155  function owner() public view virtual returns (address) {\r... */\n    tag_91:\n        /* \"contracts/CarreraCoches/ownable.sol\":1114:1121  address */\n      0x00\n        /* \"contracts/CarreraCoches/ownable.sol\":1141:1147  _owner */\n      dup1\n      0x00\n      swap1\n      sload\n      swap1\n      0x0100\n      exp\n      swap1\n      div\n      0xffffffffffffffffffffffffffffffffffffffff\n      and\n        /* \"contracts/CarreraCoches/ownable.sol\":1134:1147  return _owner */\n      swap1\n      pop\n        /* \"contracts/CarreraCoches/ownable.sol\":1068:1155  function owner() public view virtual returns (address) {\r... */\n      swap1\n      jump\t// out\n        /* \"contracts/CarreraCoches/cocheToken.sol\":2004:2093  function setApprovalForAll(address _operator, bool _approved) external override{\r... */\n    tag_97:\n      pop\n      pop\n      jump\t// out\n        /* \"contracts/CarreraCoches/ownable.sol\":701:722  address public _owner */\n    tag_100:\n      0x00\n      dup1\n      sload\n      swap1\n      0x0100\n      exp\n      swap1\n      div\n      0xffffffffffffffffffffffffffffffffffffffff\n      and\n      dup2\n      jump\t// out\n        /* \"contracts/CarreraCoches/cocheToken.sol\":1555:1681  function safeTransferFrom(address _from, address _to, uint256 _tokenId, bytes memory data) external override payable{\r... */\n    tag_105:\n      pop\n      pop\n      pop\n      pop\n      jump\t// out\n        /* \"contracts/CarreraCoches/principal.sol\":604:630  Coche[] public listaCoches */\n    tag_109:\n      0x06\n      dup2\n      dup2\n      sload\n      dup2\n      lt\n      tag_299\n      jumpi\n      0x00\n      dup1\n      revert\n    tag_299:\n      swap1\n      0x00\n      mstore\n      keccak256(0x00, 0x20)\n      swap1\n      0x08\n      mul\n      add\n      0x00\n      swap2\n      pop\n      swap1\n      pop\n      dup1\n      0x00\n      add\n      0x00\n      swap1\n      sload\n      swap1\n      0x0100\n      exp\n      swap1\n      div\n      0xffffffffffffffffffffffffffffffffffffffff\n      and\n      swap1\n      dup1\n      0x01\n      add\n      dup1\n      sload\n      tag_301\n      swap1\n      tag_302\n      jump\t// in\n    tag_301:\n      dup1\n      0x1f\n      add\n      0x20\n      dup1\n      swap2\n      div\n      mul\n      0x20\n      add\n      mload(0x40)\n      swap1\n      dup2\n      add\n      0x40\n      mstore\n      dup1\n      swap3\n      swap2\n      swap1\n      dup2\n      dup2\n      mstore\n      0x20\n      add\n      dup3\n      dup1\n      sload\n      tag_303\n      swap1\n      tag_302\n      jump\t// in\n    tag_303:\n      dup1\n      iszero\n      tag_304\n      jumpi\n      dup1\n      0x1f\n      lt\n      tag_305\n      jumpi\n      0x0100\n      dup1\n      dup4\n      sload\n      div\n      mul\n      dup4\n      mstore\n      swap2\n      0x20\n      add\n      swap2\n      jump(tag_304)\n    tag_305:\n      dup3\n      add\n      swap2\n      swap1\n      0x00\n      mstore\n      keccak256(0x00, 0x20)\n      swap1\n    tag_306:\n      dup2\n      sload\n      dup2\n      mstore\n      swap1\n      0x01\n      add\n      swap1\n      0x20\n      add\n      dup1\n      dup4\n      gt\n      tag_306\n      jumpi\n      dup3\n      swap1\n      sub\n      0x1f\n      and\n      dup3\n      add\n      swap2\n    tag_304:\n      pop\n      pop\n      pop\n      pop\n      pop\n      swap1\n      dup1\n      0x02\n      add\n      dup1\n      sload\n      tag_307\n      swap1\n      tag_302\n      jump\t// in\n    tag_307:\n      dup1\n      0x1f\n      add\n      0x20\n      dup1\n      swap2\n      div\n      mul\n      0x20\n      add\n      mload(0x40)\n      swap1\n      dup2\n      add\n      0x40\n      mstore\n      dup1\n      swap3\n      swap2\n      swap1\n      dup2\n      dup2\n      mstore\n      0x20\n      add\n      dup3\n      dup1\n      sload\n      tag_308\n      swap1\n      tag_302\n      jump\t// in\n    tag_308:\n      dup1\n      iszero\n      tag_309\n      jumpi\n      dup1\n      0x1f\n      lt\n      tag_310\n      jumpi\n      0x0100\n      dup1\n      dup4\n      sload\n      div\n      mul\n      dup4\n      mstore\n      swap2\n      0x20\n      add\n      swap2\n      jump(tag_309)\n    tag_310:\n      dup3\n      add\n      swap2\n      swap1\n      0x00\n      mstore\n      keccak256(0x00, 0x20)\n      swap1\n    tag_311:\n      dup2\n      sload\n      dup2\n      mstore\n      swap1\n      0x01\n      add\n      swap1\n      0x20\n      add\n      dup1\n      dup4\n      gt\n      tag_311\n      jumpi\n      dup3\n      swap1\n      sub\n      0x1f\n      and\n      dup3\n      add\n      swap2\n    tag_309:\n      pop\n      pop\n      pop\n      pop\n      pop\n      swap1\n      dup1\n      0x03\n      add\n      dup1\n      sload\n      tag_312\n      swap1\n      tag_302\n      jump\t// in\n    tag_312:\n      dup1\n      0x1f\n      add\n      0x20\n      dup1\n      swap2\n      div\n      mul\n      0x20\n      add\n      mload(0x40)\n      swap1\n      dup2\n      add\n      0x40\n      mstore\n      dup1\n      swap3\n      swap2\n      swap1\n      dup2\n      dup2\n      mstore\n      0x20\n      add\n      dup3\n      dup1\n      sload\n      tag_313\n      swap1\n      tag_302\n      jump\t// in\n    tag_313:\n      dup1\n      iszero\n      tag_314\n      jumpi\n      dup1\n      0x1f\n      lt\n      tag_315\n      jumpi\n      0x0100\n      dup1\n      dup4\n      sload\n      div\n      mul\n      dup4\n      mstore\n      swap2\n      0x20\n      add\n      swap2\n      jump(tag_314)\n    tag_315:\n      dup3\n      add\n      swap2\n      swap1\n      0x00\n      mstore\n      keccak256(0x00, 0x20)\n      swap1\n    tag_316:\n      dup2\n      sload\n      dup2\n      mstore\n      swap1\n      0x01\n      add\n      swap1\n      0x20\n      add\n      dup1\n      dup4\n      gt\n      tag_316\n      jumpi\n      dup3\n      swap1\n      sub\n      0x1f\n      and\n      dup3\n      add\n      swap2\n    tag_314:\n      pop\n      pop\n      pop\n      pop\n      pop\n      swap1\n      dup1\n      0x04\n      add\n      sload\n      swap1\n      dup1\n      0x05\n      add\n      sload\n      swap1\n      dup1\n      0x06\n      add\n      sload\n      swap1\n      dup1\n      0x07\n      add\n      0x00\n      swap1\n      sload\n      swap1\n      0x0100\n      exp\n      swap1\n      div\n      0xffffffff\n      and\n      swap1\n      pop\n      dup9\n      jump\t// out\n        /* \"contracts/CarreraCoches/principal.sol\":2912:3288  function verCochePropietario(address _propietario) external {\r... */\n    tag_115:\n        /* \"contracts/CarreraCoches/principal.sol\":2987:2993  uint i */\n      0x00\n        /* \"contracts/CarreraCoches/principal.sol\":2983:3281  for(uint i = 0; i < listaCoches.length; i++){\r... */\n    tag_318:\n        /* \"contracts/CarreraCoches/principal.sol\":3003:3014  listaCoches */\n      0x06\n        /* \"contracts/CarreraCoches/principal.sol\":3003:3021  listaCoches.length */\n      dup1\n      sload\n      swap1\n      pop\n        /* \"contracts/CarreraCoches/principal.sol\":2999:3000  i */\n      dup2\n        /* \"contracts/CarreraCoches/principal.sol\":2999:3021  i < listaCoches.length */\n      lt\n        /* \"contracts/CarreraCoches/principal.sol\":2983:3281  for(uint i = 0; i < listaCoches.length; i++){\r... */\n      iszero\n      tag_319\n      jumpi\n        /* \"contracts/CarreraCoches/principal.sol\":3070:3082  _propietario */\n      dup2\n        /* \"contracts/CarreraCoches/principal.sol\":3045:3082  listaCoches[i].idPiloto==_propietario */\n      0xffffffffffffffffffffffffffffffffffffffff\n      and\n        /* \"contracts/CarreraCoches/principal.sol\":3045:3056  listaCoches */\n      0x06\n        /* \"contracts/CarreraCoches/principal.sol\":3057:3058  i */\n      dup3\n        /* \"contracts/CarreraCoches/principal.sol\":3045:3059  listaCoches[i] */\n      dup2\n      sload\n      dup2\n      lt\n      tag_321\n      jumpi\n      tag_322\n      tag_135\n      jump\t// in\n    tag_322:\n    tag_321:\n      swap1\n      0x00\n      mstore\n      keccak256(0x00, 0x20)\n      swap1\n      0x08\n      mul\n      add\n        /* \"contracts/CarreraCoches/principal.sol\":3045:3068  listaCoches[i].idPiloto */\n      0x00\n      add\n      0x00\n      swap1\n      sload\n      swap1\n      0x0100\n      exp\n      swap1\n      div\n      0xffffffffffffffffffffffffffffffffffffffff\n      and\n        /* \"contracts/CarreraCoches/principal.sol\":3045:3082  listaCoches[i].idPiloto==_propietario */\n      0xffffffffffffffffffffffffffffffffffffffff\n      and\n      eq\n        /* \"contracts/CarreraCoches/principal.sol\":3042:3270  if(listaCoches[i].idPiloto==_propietario){\r... */\n      iszero\n      tag_324\n      jumpi\n        /* \"contracts/CarreraCoches/principal.sol\":3107:3254  cochePropietario(listaCoches[i].marca, listaCoches[i].modelo, listaCoches[i].nivel, listaCoches[i].carrerasGanadas, listaCoches[i].carrerasTotales) */\n      0x20fdb8ab571bfbab79104bea84f9c31cb79c5ae45b5f515c1d6c8393e0028350\n        /* \"contracts/CarreraCoches/principal.sol\":3124:3135  listaCoches */\n      0x06\n        /* \"contracts/CarreraCoches/principal.sol\":3136:3137  i */\n      dup3\n        /* \"contracts/CarreraCoches/principal.sol\":3124:3138  listaCoches[i] */\n      dup2\n      sload\n      dup2\n      lt\n      tag_325\n      jumpi\n      tag_326\n      tag_135\n      jump\t// in\n    tag_326:\n    tag_325:\n      swap1\n      0x00\n      mstore\n      keccak256(0x00, 0x20)\n      swap1\n      0x08\n      mul\n      add\n        /* \"contracts/CarreraCoches/principal.sol\":3124:3144  listaCoches[i].marca */\n      0x02\n      add\n        /* \"contracts/CarreraCoches/principal.sol\":3146:3157  listaCoches */\n      0x06\n        /* \"contracts/CarreraCoches/principal.sol\":3158:3159  i */\n      dup4\n        /* \"contracts/CarreraCoches/principal.sol\":3146:3160  listaCoches[i] */\n      dup2\n      sload\n      dup2\n      lt\n      tag_328\n      jumpi\n      tag_329\n      tag_135\n      jump\t// in\n    tag_329:\n    tag_328:\n      swap1\n      0x00\n      mstore\n      keccak256(0x00, 0x20)\n      swap1\n      0x08\n      mul\n      add\n        /* \"contracts/CarreraCoches/principal.sol\":3146:3167  listaCoches[i].modelo */\n      0x01\n      add\n        /* \"contracts/CarreraCoches/principal.sol\":3169:3180  listaCoches */\n      0x06\n        /* \"contracts/CarreraCoches/principal.sol\":3181:3182  i */\n      dup5\n        /* \"contracts/CarreraCoches/principal.sol\":3169:3183  listaCoches[i] */\n      dup2\n      sload\n      dup2\n      lt\n      tag_331\n      jumpi\n      tag_332\n      tag_135\n      jump\t// in\n    tag_332:\n    tag_331:\n      swap1\n      0x00\n      mstore\n      keccak256(0x00, 0x20)\n      swap1\n      0x08\n      mul\n      add\n        /* \"contracts/CarreraCoches/principal.sol\":3169:3189  listaCoches[i].nivel */\n      0x07\n      add\n      0x00\n      swap1\n      sload\n      swap1\n      0x0100\n      exp\n      swap1\n      div\n      0xffffffff\n      and\n        /* \"contracts/CarreraCoches/principal.sol\":3191:3202  listaCoches */\n      0x06\n        /* \"contracts/CarreraCoches/principal.sol\":3203:3204  i */\n      dup6\n        /* \"contracts/CarreraCoches/principal.sol\":3191:3205  listaCoches[i] */\n      dup2\n      sload\n      dup2\n      lt\n      tag_334\n      jumpi\n      tag_335\n      tag_135\n      jump\t// in\n    tag_335:\n    tag_334:\n      swap1\n      0x00\n      mstore\n      keccak256(0x00, 0x20)\n      swap1\n      0x08\n      mul\n      add\n        /* \"contracts/CarreraCoches/principal.sol\":3191:3221  listaCoches[i].carrerasGanadas */\n      0x04\n      add\n      sload\n        /* \"contracts/CarreraCoches/principal.sol\":3223:3234  listaCoches */\n      0x06\n        /* \"contracts/CarreraCoches/principal.sol\":3235:3236  i */\n      dup7\n        /* \"contracts/CarreraCoches/principal.sol\":3223:3237  listaCoches[i] */\n      dup2\n      sload\n      dup2\n      lt\n      tag_337\n      jumpi\n      tag_338\n      tag_135\n      jump\t// in\n    tag_338:\n    tag_337:\n      swap1\n      0x00\n      mstore\n      keccak256(0x00, 0x20)\n      swap1\n      0x08\n      mul\n      add\n        /* \"contracts/CarreraCoches/principal.sol\":3223:3253  listaCoches[i].carrerasTotales */\n      0x05\n      add\n      sload\n        /* \"contracts/CarreraCoches/principal.sol\":3107:3254  cochePropietario(listaCoches[i].marca, listaCoches[i].modelo, listaCoches[i].nivel, listaCoches[i].carrerasGanadas, listaCoches[i].carrerasTotales) */\n      mload(0x40)\n      tag_340\n      swap6\n      swap5\n      swap4\n      swap3\n      swap2\n      swap1\n      tag_341\n      jump\t// in\n    tag_340:\n      mload(0x40)\n      dup1\n      swap2\n      sub\n      swap1\n      log1\n        /* \"contracts/CarreraCoches/principal.sol\":3042:3270  if(listaCoches[i].idPiloto==_propietario){\r... */\n    tag_324:\n        /* \"contracts/CarreraCoches/principal.sol\":3023:3026  i++ */\n      dup1\n      dup1\n      tag_342\n      swap1\n      tag_148\n      jump\t// in\n    tag_342:\n      swap2\n      pop\n      pop\n        /* \"contracts/CarreraCoches/principal.sol\":2983:3281  for(uint i = 0; i < listaCoches.length; i++){\r... */\n      jump(tag_318)\n    tag_319:\n      pop\n        /* \"contracts/CarreraCoches/principal.sol\":2912:3288  function verCochePropietario(address _propietario) external {\r... */\n      pop\n      jump\t// out\n        /* \"contracts/CarreraCoches/cocheToken.sol\":2194:2302  function isApprovedForAll(address _owner, address _operator) external override view returns (bool){\r... */\n    tag_120:\n        /* \"contracts/CarreraCoches/cocheToken.sol\":2287:2291  bool */\n      0x00\n        /* \"contracts/CarreraCoches/cocheToken.sol\":2194:2302  function isApprovedForAll(address _owner, address _operator) external override view returns (bool){\r... */\n      swap3\n      swap2\n      pop\n      pop\n      jump\t// out\n        /* \"contracts/CarreraCoches/ownable.sol\":1977:2178  function transferOwnership(address newOwner) public virtual onlyOwner {\r... */\n    tag_126:\n        /* \"contracts/CarreraCoches/ownable.sol\":1299:1311  _msgSender() */\n      tag_345\n        /* \"contracts/CarreraCoches/ownable.sol\":1299:1309  _msgSender */\n      tag_288\n        /* \"contracts/CarreraCoches/ownable.sol\":1299:1311  _msgSender() */\n      jump\t// in\n    tag_345:\n        /* \"contracts/CarreraCoches/ownable.sol\":1288:1311  owner() == _msgSender() */\n      0xffffffffffffffffffffffffffffffffffffffff\n      and\n        /* \"contracts/CarreraCoches/ownable.sol\":1288:1295  owner() */\n      tag_346\n        /* \"contracts/CarreraCoches/ownable.sol\":1288:1293  owner */\n      tag_91\n        /* \"contracts/CarreraCoches/ownable.sol\":1288:1295  owner() */\n      jump\t// in\n    tag_346:\n        /* \"contracts/CarreraCoches/ownable.sol\":1288:1311  owner() == _msgSender() */\n      0xffffffffffffffffffffffffffffffffffffffff\n      and\n      eq\n        /* \"contracts/CarreraCoches/ownable.sol\":1280:1348  require(owner() == _msgSender(), \"Ownable: caller is not the owner\") */\n      tag_347\n      jumpi\n      mload(0x40)\n      0x08c379a000000000000000000000000000000000000000000000000000000000\n      dup2\n      mstore\n      0x04\n      add\n      tag_348\n      swap1\n      tag_292\n      jump\t// in\n    tag_348:\n      mload(0x40)\n      dup1\n      swap2\n      sub\n      swap1\n      revert\n    tag_347:\n        /* \"contracts/CarreraCoches/ownable.sol\":2086:2087  0 */\n      0x00\n        /* \"contracts/CarreraCoches/ownable.sol\":2066:2088  newOwner != address(0) */\n      0xffffffffffffffffffffffffffffffffffffffff\n      and\n        /* \"contracts/CarreraCoches/ownable.sol\":2066:2074  newOwner */\n      dup2\n        /* \"contracts/CarreraCoches/ownable.sol\":2066:2088  newOwner != address(0) */\n      0xffffffffffffffffffffffffffffffffffffffff\n      and\n      eq\n      iszero\n        /* \"contracts/CarreraCoches/ownable.sol\":2058:2131  require(newOwner != address(0), \"Ownable: new owner is the zero address\") */\n      tag_350\n      jumpi\n      mload(0x40)\n      0x08c379a000000000000000000000000000000000000000000000000000000000\n      dup2\n      mstore\n      0x04\n      add\n      tag_351\n      swap1\n      tag_352\n      jump\t// in\n    tag_351:\n      mload(0x40)\n      dup1\n      swap2\n      sub\n      swap1\n      revert\n    tag_350:\n        /* \"contracts/CarreraCoches/ownable.sol\":2142:2170  _transferOwnership(newOwner) */\n      tag_353\n        /* \"contracts/CarreraCoches/ownable.sol\":2161:2169  newOwner */\n      dup2\n        /* \"contracts/CarreraCoches/ownable.sol\":2142:2160  _transferOwnership */\n      tag_295\n        /* \"contracts/CarreraCoches/ownable.sol\":2142:2170  _transferOwnership(newOwner) */\n      jump\t// in\n    tag_353:\n        /* \"contracts/CarreraCoches/ownable.sol\":1977:2178  function transferOwnership(address newOwner) public virtual onlyOwner {\r... */\n      pop\n      jump\t// out\n        /* \"contracts/CarreraCoches/principal.sol\":2245:2372  function _repostando(Coche storage _coche) internal {\r... */\n    tag_217:\n        /* \"contracts/CarreraCoches/principal.sol\":2355:2363  cooldown */\n      sload(0x03)\n        /* \"contracts/CarreraCoches/principal.sol\":2337:2352  block.timestamp */\n      timestamp\n        /* \"contracts/CarreraCoches/principal.sol\":2337:2363  block.timestamp + cooldown */\n      tag_355\n      swap2\n      swap1\n      tag_158\n      jump\t// in\n    tag_355:\n        /* \"contracts/CarreraCoches/principal.sol\":2308:2364  _coche.tiempoEspera = uint32(block.timestamp + cooldown) */\n      0xffffffff\n      and\n        /* \"contracts/CarreraCoches/principal.sol\":2308:2314  _coche */\n      dup2\n        /* \"contracts/CarreraCoches/principal.sol\":2308:2327  _coche.tiempoEspera */\n      0x06\n      add\n        /* \"contracts/CarreraCoches/principal.sol\":2308:2364  _coche.tiempoEspera = uint32(block.timestamp + cooldown) */\n      dup2\n      swap1\n      sstore\n      pop\n        /* \"contracts/CarreraCoches/principal.sol\":2245:2372  function _repostando(Coche storage _coche) internal {\r... */\n      pop\n      jump\t// out\n        /* \"contracts/CarreraCoches/principal.sol\":7553:7651  function balance() private {\r... */\n    tag_227:\n        /* \"contracts/CarreraCoches/principal.sol\":7600:7610  msg.sender */\n      caller\n        /* \"contracts/CarreraCoches/principal.sol\":7591:7620  payable (msg.sender).transfer */\n      0xffffffffffffffffffffffffffffffffffffffff\n      and\n        /* \"contracts/CarreraCoches/principal.sol\":7591:7643  payable (msg.sender).transfer(address(this).balance) */\n      0x08fc\n        /* \"contracts/CarreraCoches/principal.sol\":7621:7642  address(this).balance */\n      selfbalance\n        /* \"contracts/CarreraCoches/principal.sol\":7591:7643  payable (msg.sender).transfer(address(this).balance) */\n      swap1\n      dup2\n      iszero\n      mul\n      swap1\n      mload(0x40)\n      0x00\n      mload(0x40)\n      dup1\n      dup4\n      sub\n      dup2\n      dup6\n      dup9\n      dup9\n      call\n      swap4\n      pop\n      pop\n      pop\n      pop\n      iszero\n      dup1\n      iszero\n      tag_358\n      jumpi\n      returndatasize\n      0x00\n      dup1\n      returndatacopy\n      revert(0x00, returndatasize)\n    tag_358:\n      pop\n        /* \"contracts/CarreraCoches/principal.sol\":7553:7651  function balance() private {\r... */\n      jump\t// out\n        /* \"contracts/CarreraCoches/utils/Context.sol\":656:754  function _msgSender() internal view virtual returns (address) {\r... */\n    tag_288:\n        /* \"contracts/CarreraCoches/utils/Context.sol\":709:716  address */\n      0x00\n        /* \"contracts/CarreraCoches/utils/Context.sol\":736:746  msg.sender */\n      caller\n        /* \"contracts/CarreraCoches/utils/Context.sol\":729:746  return msg.sender */\n      swap1\n      pop\n        /* \"contracts/CarreraCoches/utils/Context.sol\":656:754  function _msgSender() internal view virtual returns (address) {\r... */\n      swap1\n      jump\t// out\n        /* \"contracts/CarreraCoches/ownable.sol\":2338:2529  function _transferOwnership(address newOwner) internal virtual {\r... */\n    tag_295:\n        /* \"contracts/CarreraCoches/ownable.sol\":2412:2428  address oldOwner */\n      0x00\n        /* \"contracts/CarreraCoches/ownable.sol\":2431:2437  _owner */\n      dup1\n      0x00\n      swap1\n      sload\n      swap1\n      0x0100\n      exp\n      swap1\n      div\n      0xffffffffffffffffffffffffffffffffffffffff\n      and\n        /* \"contracts/CarreraCoches/ownable.sol\":2412:2437  address oldOwner = _owner */\n      swap1\n      pop\n        /* \"contracts/CarreraCoches/ownable.sol\":2457:2465  newOwner */\n      dup2\n        /* \"contracts/CarreraCoches/ownable.sol\":2448:2454  _owner */\n      0x00\n      dup1\n        /* \"contracts/CarreraCoches/ownable.sol\":2448:2465  _owner = newOwner */\n      0x0100\n      exp\n      dup2\n      sload\n      dup2\n      0xffffffffffffffffffffffffffffffffffffffff\n      mul\n      not\n      and\n      swap1\n      dup4\n      0xffffffffffffffffffffffffffffffffffffffff\n      and\n      mul\n      or\n      swap1\n      sstore\n      pop\n        /* \"contracts/CarreraCoches/ownable.sol\":2512:2520  newOwner */\n      dup2\n        /* \"contracts/CarreraCoches/ownable.sol\":2481:2521  OwnershipTransferred(oldOwner, newOwner) */\n      0xffffffffffffffffffffffffffffffffffffffff\n      and\n        /* \"contracts/CarreraCoches/ownable.sol\":2502:2510  oldOwner */\n      dup2\n        /* \"contracts/CarreraCoches/ownable.sol\":2481:2521  OwnershipTransferred(oldOwner, newOwner) */\n      0xffffffffffffffffffffffffffffffffffffffff\n      and\n      0x8be0079c531659141344cd1fd0a4f28419497f9722a3daafe3b4186f6b6457e0\n      mload(0x40)\n      mload(0x40)\n      dup1\n      swap2\n      sub\n      swap1\n      log3\n        /* \"contracts/CarreraCoches/ownable.sol\":2401:2529  {\r... */\n      pop\n        /* \"contracts/CarreraCoches/ownable.sol\":2338:2529  function _transferOwnership(address newOwner) internal virtual {\r... */\n      pop\n      jump\t// out\n    tag_142:\n      dup3\n      dup1\n      sload\n      tag_361\n      swap1\n      tag_302\n      jump\t// in\n    tag_361:\n      swap1\n      0x00\n      mstore\n      keccak256(0x00, 0x20)\n      swap1\n      0x1f\n      add\n      0x20\n      swap1\n      div\n      dup2\n      add\n      swap3\n      dup3\n      tag_363\n      jumpi\n      0x00\n      dup6\n      sstore\n      jump(tag_362)\n    tag_363:\n      dup3\n      0x1f\n      lt\n      tag_364\n      jumpi\n      dup1\n      mload\n      not(0xff)\n      and\n      dup4\n      dup1\n      add\n      or\n      dup6\n      sstore\n      jump(tag_362)\n    tag_364:\n      dup3\n      dup1\n      add\n      0x01\n      add\n      dup6\n      sstore\n      dup3\n      iszero\n      tag_362\n      jumpi\n      swap2\n      dup3\n      add\n    tag_365:\n      dup3\n      dup2\n      gt\n      iszero\n      tag_366\n      jumpi\n      dup3\n      mload\n      dup3\n      sstore\n      swap2\n      0x20\n      add\n      swap2\n      swap1\n      0x01\n      add\n      swap1\n      jump(tag_365)\n    tag_366:\n    tag_362:\n      pop\n      swap1\n      pop\n      tag_367\n      swap2\n      swap1\n      tag_368\n      jump\t// in\n    tag_367:\n      pop\n      swap1\n      jump\t// out\n    tag_368:\n    tag_369:\n      dup1\n      dup3\n      gt\n      iszero\n      tag_370\n      jumpi\n      0x00\n      dup2\n      0x00\n      swap1\n      sstore\n      pop\n      0x01\n      add\n      jump(tag_369)\n    tag_370:\n      pop\n      swap1\n      jump\t// out\n        /* \"#utility.yul\":7:417   */\n    tag_372:\n        /* \"#utility.yul\":84:89   */\n      0x00\n        /* \"#utility.yul\":109:174   */\n      tag_374\n        /* \"#utility.yul\":125:173   */\n      tag_375\n        /* \"#utility.yul\":166:172   */\n      dup5\n        /* \"#utility.yul\":125:173   */\n      tag_376\n      jump\t// in\n    tag_375:\n        /* \"#utility.yul\":109:174   */\n      tag_377\n      jump\t// in\n    tag_374:\n        /* \"#utility.yul\":100:174   */\n      swap1\n      pop\n        /* \"#utility.yul\":197:203   */\n      dup3\n        /* \"#utility.yul\":190:195   */\n      dup2\n        /* \"#utility.yul\":183:204   */\n      mstore\n        /* \"#utility.yul\":235:239   */\n      0x20\n        /* \"#utility.yul\":228:233   */\n      dup2\n        /* \"#utility.yul\":224:240   */\n      add\n        /* \"#utility.yul\":273:276   */\n      dup5\n        /* \"#utility.yul\":264:270   */\n      dup5\n        /* \"#utility.yul\":259:262   */\n      dup5\n        /* \"#utility.yul\":255:271   */\n      add\n        /* \"#utility.yul\":252:277   */\n      gt\n        /* \"#utility.yul\":249:361   */\n      iszero\n      tag_378\n      jumpi\n        /* \"#utility.yul\":280:359   */\n      tag_379\n      tag_380\n      jump\t// in\n    tag_379:\n        /* \"#utility.yul\":249:361   */\n    tag_378:\n        /* \"#utility.yul\":370:411   */\n      tag_381\n        /* \"#utility.yul\":404:410   */\n      dup5\n        /* \"#utility.yul\":399:402   */\n      dup3\n        /* \"#utility.yul\":394:397   */\n      dup6\n        /* \"#utility.yul\":370:411   */\n      tag_382\n      jump\t// in\n    tag_381:\n        /* \"#utility.yul\":90:417   */\n      pop\n        /* \"#utility.yul\":7:417   */\n      swap4\n      swap3\n      pop\n      pop\n      pop\n      jump\t// out\n        /* \"#utility.yul\":423:835   */\n    tag_383:\n        /* \"#utility.yul\":501:506   */\n      0x00\n        /* \"#utility.yul\":526:592   */\n      tag_385\n        /* \"#utility.yul\":542:591   */\n      tag_386\n        /* \"#utility.yul\":584:590   */\n      dup5\n        /* \"#utility.yul\":542:591   */\n      tag_387\n      jump\t// in\n    tag_386:\n        /* \"#utility.yul\":526:592   */\n      tag_377\n      jump\t// in\n    tag_385:\n        /* \"#utility.yul\":517:592   */\n      swap1\n      pop\n        /* \"#utility.yul\":615:621   */\n      dup3\n        /* \"#utility.yul\":608:613   */\n      dup2\n        /* \"#utility.yul\":601:622   */\n      mstore\n        /* \"#utility.yul\":653:657   */\n      0x20\n        /* \"#utility.yul\":646:651   */\n      dup2\n        /* \"#utility.yul\":642:658   */\n      add\n        /* \"#utility.yul\":691:694   */\n      dup5\n        /* \"#utility.yul\":682:688   */\n      dup5\n        /* \"#utility.yul\":677:680   */\n      dup5\n        /* \"#utility.yul\":673:689   */\n      add\n        /* \"#utility.yul\":670:695   */\n      gt\n        /* \"#utility.yul\":667:779   */\n      iszero\n      tag_388\n      jumpi\n        /* \"#utility.yul\":698:777   */\n      tag_389\n      tag_380\n      jump\t// in\n    tag_389:\n        /* \"#utility.yul\":667:779   */\n    tag_388:\n        /* \"#utility.yul\":788:829   */\n      tag_390\n        /* \"#utility.yul\":822:828   */\n      dup5\n        /* \"#utility.yul\":817:820   */\n      dup3\n        /* \"#utility.yul\":812:815   */\n      dup6\n        /* \"#utility.yul\":788:829   */\n      tag_382\n      jump\t// in\n    tag_390:\n        /* \"#utility.yul\":507:835   */\n      pop\n        /* \"#utility.yul\":423:835   */\n      swap4\n      swap3\n      pop\n      pop\n      pop\n      jump\t// out\n        /* \"#utility.yul\":841:980   */\n    tag_391:\n        /* \"#utility.yul\":887:892   */\n      0x00\n        /* \"#utility.yul\":925:931   */\n      dup2\n        /* \"#utility.yul\":912:932   */\n      calldataload\n        /* \"#utility.yul\":903:932   */\n      swap1\n      pop\n        /* \"#utility.yul\":941:974   */\n      tag_393\n        /* \"#utility.yul\":968:973   */\n      dup2\n        /* \"#utility.yul\":941:974   */\n      tag_394\n      jump\t// in\n    tag_393:\n        /* \"#utility.yul\":841:980   */\n      swap3\n      swap2\n      pop\n      pop\n      jump\t// out\n        /* \"#utility.yul\":986:1119   */\n    tag_395:\n        /* \"#utility.yul\":1029:1034   */\n      0x00\n        /* \"#utility.yul\":1067:1073   */\n      dup2\n        /* \"#utility.yul\":1054:1074   */\n      calldataload\n        /* \"#utility.yul\":1045:1074   */\n      swap1\n      pop\n        /* \"#utility.yul\":1083:1113   */\n      tag_397\n        /* \"#utility.yul\":1107:1112   */\n      dup2\n        /* \"#utility.yul\":1083:1113   */\n      tag_398\n      jump\t// in\n    tag_397:\n        /* \"#utility.yul\":986:1119   */\n      swap3\n      swap2\n      pop\n      pop\n      jump\t// out\n        /* \"#utility.yul\":1138:1476   */\n    tag_399:\n        /* \"#utility.yul\":1193:1198   */\n      0x00\n        /* \"#utility.yul\":1242:1245   */\n      dup3\n        /* \"#utility.yul\":1235:1239   */\n      0x1f\n        /* \"#utility.yul\":1227:1233   */\n      dup4\n        /* \"#utility.yul\":1223:1240   */\n      add\n        /* \"#utility.yul\":1219:1246   */\n      slt\n        /* \"#utility.yul\":1209:1331   */\n      tag_401\n      jumpi\n        /* \"#utility.yul\":1250:1329   */\n      tag_402\n      tag_403\n      jump\t// in\n    tag_402:\n        /* \"#utility.yul\":1209:1331   */\n    tag_401:\n        /* \"#utility.yul\":1367:1373   */\n      dup2\n        /* \"#utility.yul\":1354:1374   */\n      calldataload\n        /* \"#utility.yul\":1392:1470   */\n      tag_404\n        /* \"#utility.yul\":1466:1469   */\n      dup5\n        /* \"#utility.yul\":1458:1464   */\n      dup3\n        /* \"#utility.yul\":1451:1455   */\n      0x20\n        /* \"#utility.yul\":1443:1449   */\n      dup7\n        /* \"#utility.yul\":1439:1456   */\n      add\n        /* \"#utility.yul\":1392:1470   */\n      tag_372\n      jump\t// in\n    tag_404:\n        /* \"#utility.yul\":1383:1470   */\n      swap2\n      pop\n        /* \"#utility.yul\":1199:1476   */\n      pop\n        /* \"#utility.yul\":1138:1476   */\n      swap3\n      swap2\n      pop\n      pop\n      jump\t// out\n        /* \"#utility.yul\":1496:1836   */\n    tag_405:\n        /* \"#utility.yul\":1552:1557   */\n      0x00\n        /* \"#utility.yul\":1601:1604   */\n      dup3\n        /* \"#utility.yul\":1594:1598   */\n      0x1f\n        /* \"#utility.yul\":1586:1592   */\n      dup4\n        /* \"#utility.yul\":1582:1599   */\n      add\n        /* \"#utility.yul\":1578:1605   */\n      slt\n        /* \"#utility.yul\":1568:1690   */\n      tag_407\n      jumpi\n        /* \"#utility.yul\":1609:1688   */\n      tag_408\n      tag_403\n      jump\t// in\n    tag_408:\n        /* \"#utility.yul\":1568:1690   */\n    tag_407:\n        /* \"#utility.yul\":1726:1732   */\n      dup2\n        /* \"#utility.yul\":1713:1733   */\n      calldataload\n        /* \"#utility.yul\":1751:1830   */\n      tag_409\n        /* \"#utility.yul\":1826:1829   */\n      dup5\n        /* \"#utility.yul\":1818:1824   */\n      dup3\n        /* \"#utility.yul\":1811:1815   */\n      0x20\n        /* \"#utility.yul\":1803:1809   */\n      dup7\n        /* \"#utility.yul\":1799:1816   */\n      add\n        /* \"#utility.yul\":1751:1830   */\n      tag_383\n      jump\t// in\n    tag_409:\n        /* \"#utility.yul\":1742:1830   */\n      swap2\n      pop\n        /* \"#utility.yul\":1558:1836   */\n      pop\n        /* \"#utility.yul\":1496:1836   */\n      swap3\n      swap2\n      pop\n      pop\n      jump\t// out\n        /* \"#utility.yul\":1842:1981   */\n    tag_410:\n        /* \"#utility.yul\":1888:1893   */\n      0x00\n        /* \"#utility.yul\":1926:1932   */\n      dup2\n        /* \"#utility.yul\":1913:1933   */\n      calldataload\n        /* \"#utility.yul\":1904:1933   */\n      swap1\n      pop\n        /* \"#utility.yul\":1942:1975   */\n      tag_412\n        /* \"#utility.yul\":1969:1974   */\n      dup2\n        /* \"#utility.yul\":1942:1975   */\n      tag_413\n      jump\t// in\n    tag_412:\n        /* \"#utility.yul\":1842:1981   */\n      swap3\n      swap2\n      pop\n      pop\n      jump\t// out\n        /* \"#utility.yul\":1987:2316   */\n    tag_46:\n        /* \"#utility.yul\":2046:2052   */\n      0x00\n        /* \"#utility.yul\":2095:2097   */\n      0x20\n        /* \"#utility.yul\":2083:2092   */\n      dup3\n        /* \"#utility.yul\":2074:2081   */\n      dup5\n        /* \"#utility.yul\":2070:2093   */\n      sub\n        /* \"#utility.yul\":2066:2098   */\n      slt\n        /* \"#utility.yul\":2063:2182   */\n      iszero\n      tag_415\n      jumpi\n        /* \"#utility.yul\":2101:2180   */\n      tag_416\n      tag_417\n      jump\t// in\n    tag_416:\n        /* \"#utility.yul\":2063:2182   */\n    tag_415:\n        /* \"#utility.yul\":2221:2222   */\n      0x00\n        /* \"#utility.yul\":2246:2299   */\n      tag_418\n        /* \"#utility.yul\":2291:2298   */\n      dup5\n        /* \"#utility.yul\":2282:2288   */\n      dup3\n        /* \"#utility.yul\":2271:2280   */\n      dup6\n        /* \"#utility.yul\":2267:2289   */\n      add\n        /* \"#utility.yul\":2246:2299   */\n      tag_391\n      jump\t// in\n    tag_418:\n        /* \"#utility.yul\":2236:2299   */\n      swap2\n      pop\n        /* \"#utility.yul\":2192:2309   */\n      pop\n        /* \"#utility.yul\":1987:2316   */\n      swap3\n      swap2\n      pop\n      pop\n      jump\t// out\n        /* \"#utility.yul\":2322:2796   */\n    tag_119:\n        /* \"#utility.yul\":2390:2396   */\n      0x00\n        /* \"#utility.yul\":2398:2404   */\n      dup1\n        /* \"#utility.yul\":2447:2449   */\n      0x40\n        /* \"#utility.yul\":2435:2444   */\n      dup4\n        /* \"#utility.yul\":2426:2433   */\n      dup6\n        /* \"#utility.yul\":2422:2445   */\n      sub\n        /* \"#utility.yul\":2418:2450   */\n      slt\n        /* \"#utility.yul\":2415:2534   */\n      iszero\n      tag_420\n      jumpi\n        /* \"#utility.yul\":2453:2532   */\n      tag_421\n      tag_417\n      jump\t// in\n    tag_421:\n        /* \"#utility.yul\":2415:2534   */\n    tag_420:\n        /* \"#utility.yul\":2573:2574   */\n      0x00\n        /* \"#utility.yul\":2598:2651   */\n      tag_422\n        /* \"#utility.yul\":2643:2650   */\n      dup6\n        /* \"#utility.yul\":2634:2640   */\n      dup3\n        /* \"#utility.yul\":2623:2632   */\n      dup7\n        /* \"#utility.yul\":2619:2641   */\n      add\n        /* \"#utility.yul\":2598:2651   */\n      tag_391\n      jump\t// in\n    tag_422:\n        /* \"#utility.yul\":2588:2651   */\n      swap3\n      pop\n        /* \"#utility.yul\":2544:2661   */\n      pop\n        /* \"#utility.yul\":2700:2702   */\n      0x20\n        /* \"#utility.yul\":2726:2779   */\n      tag_423\n        /* \"#utility.yul\":2771:2778   */\n      dup6\n        /* \"#utility.yul\":2762:2768   */\n      dup3\n        /* \"#utility.yul\":2751:2760   */\n      dup7\n        /* \"#utility.yul\":2747:2769   */\n      add\n        /* \"#utility.yul\":2726:2779   */\n      tag_391\n      jump\t// in\n    tag_423:\n        /* \"#utility.yul\":2716:2779   */\n      swap2\n      pop\n        /* \"#utility.yul\":2671:2789   */\n      pop\n        /* \"#utility.yul\":2322:2796   */\n      swap3\n      pop\n      swap3\n      swap1\n      pop\n      jump\t// out\n        /* \"#utility.yul\":2802:3421   */\n    tag_52:\n        /* \"#utility.yul\":2879:2885   */\n      0x00\n        /* \"#utility.yul\":2887:2893   */\n      dup1\n        /* \"#utility.yul\":2895:2901   */\n      0x00\n        /* \"#utility.yul\":2944:2946   */\n      0x60\n        /* \"#utility.yul\":2932:2941   */\n      dup5\n        /* \"#utility.yul\":2923:2930   */\n      dup7\n        /* \"#utility.yul\":2919:2942   */\n      sub\n        /* \"#utility.yul\":2915:2947   */\n      slt\n        /* \"#utility.yul\":2912:3031   */\n      iszero\n      tag_425\n      jumpi\n        /* \"#utility.yul\":2950:3029   */\n      tag_426\n      tag_417\n      jump\t// in\n    tag_426:\n        /* \"#utility.yul\":2912:3031   */\n    tag_425:\n        /* \"#utility.yul\":3070:3071   */\n      0x00\n        /* \"#utility.yul\":3095:3148   */\n      tag_427\n        /* \"#utility.yul\":3140:3147   */\n      dup7\n        /* \"#utility.yul\":3131:3137   */\n      dup3\n        /* \"#utility.yul\":3120:3129   */\n      dup8\n        /* \"#utility.yul\":3116:3138   */\n      add\n        /* \"#utility.yul\":3095:3148   */\n      tag_391\n      jump\t// in\n    tag_427:\n        /* \"#utility.yul\":3085:3148   */\n      swap4\n      pop\n        /* \"#utility.yul\":3041:3158   */\n      pop\n        /* \"#utility.yul\":3197:3199   */\n      0x20\n        /* \"#utility.yul\":3223:3276   */\n      tag_428\n        /* \"#utility.yul\":3268:3275   */\n      dup7\n        /* \"#utility.yul\":3259:3265   */\n      dup3\n        /* \"#utility.yul\":3248:3257   */\n      dup8\n        /* \"#utility.yul\":3244:3266   */\n      add\n        /* \"#utility.yul\":3223:3276   */\n      tag_391\n      jump\t// in\n    tag_428:\n        /* \"#utility.yul\":3213:3276   */\n      swap3\n      pop\n        /* \"#utility.yul\":3168:3286   */\n      pop\n        /* \"#utility.yul\":3325:3327   */\n      0x40\n        /* \"#utility.yul\":3351:3404   */\n      tag_429\n        /* \"#utility.yul\":3396:3403   */\n      dup7\n        /* \"#utility.yul\":3387:3393   */\n      dup3\n        /* \"#utility.yul\":3376:3385   */\n      dup8\n        /* \"#utility.yul\":3372:3394   */\n      add\n        /* \"#utility.yul\":3351:3404   */\n      tag_410\n      jump\t// in\n    tag_429:\n        /* \"#utility.yul\":3341:3404   */\n      swap2\n      pop\n        /* \"#utility.yul\":3296:3414   */\n      pop\n        /* \"#utility.yul\":2802:3421   */\n      swap3\n      pop\n      swap3\n      pop\n      swap3\n      jump\t// out\n        /* \"#utility.yul\":3427:4370   */\n    tag_104:\n        /* \"#utility.yul\":3522:3528   */\n      0x00\n        /* \"#utility.yul\":3530:3536   */\n      dup1\n        /* \"#utility.yul\":3538:3544   */\n      0x00\n        /* \"#utility.yul\":3546:3552   */\n      dup1\n        /* \"#utility.yul\":3595:3598   */\n      0x80\n        /* \"#utility.yul\":3583:3592   */\n      dup6\n        /* \"#utility.yul\":3574:3581   */\n      dup8\n        /* \"#utility.yul\":3570:3593   */\n      sub\n        /* \"#utility.yul\":3566:3599   */\n      slt\n        /* \"#utility.yul\":3563:3683   */\n      iszero\n      tag_431\n      jumpi\n        /* \"#utility.yul\":3602:3681   */\n      tag_432\n      tag_417\n      jump\t// in\n    tag_432:\n        /* \"#utility.yul\":3563:3683   */\n    tag_431:\n        /* \"#utility.yul\":3722:3723   */\n      0x00\n        /* \"#utility.yul\":3747:3800   */\n      tag_433\n        /* \"#utility.yul\":3792:3799   */\n      dup8\n        /* \"#utility.yul\":3783:3789   */\n      dup3\n        /* \"#utility.yul\":3772:3781   */\n      dup9\n        /* \"#utility.yul\":3768:3790   */\n      add\n        /* \"#utility.yul\":3747:3800   */\n      tag_391\n      jump\t// in\n    tag_433:\n        /* \"#utility.yul\":3737:3800   */\n      swap5\n      pop\n        /* \"#utility.yul\":3693:3810   */\n      pop\n        /* \"#utility.yul\":3849:3851   */\n      0x20\n        /* \"#utility.yul\":3875:3928   */\n      tag_434\n        /* \"#utility.yul\":3920:3927   */\n      dup8\n        /* \"#utility.yul\":3911:3917   */\n      dup3\n        /* \"#utility.yul\":3900:3909   */\n      dup9\n        /* \"#utility.yul\":3896:3918   */\n      add\n        /* \"#utility.yul\":3875:3928   */\n      tag_391\n      jump\t// in\n    tag_434:\n        /* \"#utility.yul\":3865:3928   */\n      swap4\n      pop\n        /* \"#utility.yul\":3820:3938   */\n      pop\n        /* \"#utility.yul\":3977:3979   */\n      0x40\n        /* \"#utility.yul\":4003:4056   */\n      tag_435\n        /* \"#utility.yul\":4048:4055   */\n      dup8\n        /* \"#utility.yul\":4039:4045   */\n      dup3\n        /* \"#utility.yul\":4028:4037   */\n      dup9\n        /* \"#utility.yul\":4024:4046   */\n      add\n        /* \"#utility.yul\":4003:4056   */\n      tag_410\n      jump\t// in\n    tag_435:\n        /* \"#utility.yul\":3993:4056   */\n      swap3\n      pop\n        /* \"#utility.yul\":3948:4066   */\n      pop\n        /* \"#utility.yul\":4133:4135   */\n      0x60\n        /* \"#utility.yul\":4122:4131   */\n      dup6\n        /* \"#utility.yul\":4118:4136   */\n      add\n        /* \"#utility.yul\":4105:4137   */\n      calldataload\n        /* \"#utility.yul\":4164:4182   */\n      0xffffffffffffffff\n        /* \"#utility.yul\":4156:4162   */\n      dup2\n        /* \"#utility.yul\":4153:4183   */\n      gt\n        /* \"#utility.yul\":4150:4267   */\n      iszero\n      tag_436\n      jumpi\n        /* \"#utility.yul\":4186:4265   */\n      tag_437\n      tag_438\n      jump\t// in\n    tag_437:\n        /* \"#utility.yul\":4150:4267   */\n    tag_436:\n        /* \"#utility.yul\":4291:4353   */\n      tag_439\n        /* \"#utility.yul\":4345:4352   */\n      dup8\n        /* \"#utility.yul\":4336:4342   */\n      dup3\n        /* \"#utility.yul\":4325:4334   */\n      dup9\n        /* \"#utility.yul\":4321:4343   */\n      add\n        /* \"#utility.yul\":4291:4353   */\n      tag_399\n      jump\t// in\n    tag_439:\n        /* \"#utility.yul\":4281:4353   */\n      swap2\n      pop\n        /* \"#utility.yul\":4076:4363   */\n      pop\n        /* \"#utility.yul\":3427:4370   */\n      swap3\n      swap6\n      swap2\n      swap5\n      pop\n      swap3\n      pop\n      jump\t// out\n        /* \"#utility.yul\":4376:4844   */\n    tag_96:\n        /* \"#utility.yul\":4441:4447   */\n      0x00\n        /* \"#utility.yul\":4449:4455   */\n      dup1\n        /* \"#utility.yul\":4498:4500   */\n      0x40\n        /* \"#utility.yul\":4486:4495   */\n      dup4\n        /* \"#utility.yul\":4477:4484   */\n      dup6\n        /* \"#utility.yul\":4473:4496   */\n      sub\n        /* \"#utility.yul\":4469:4501   */\n      slt\n        /* \"#utility.yul\":4466:4585   */\n      iszero\n      tag_441\n      jumpi\n        /* \"#utility.yul\":4504:4583   */\n      tag_442\n      tag_417\n      jump\t// in\n    tag_442:\n        /* \"#utility.yul\":4466:4585   */\n    tag_441:\n        /* \"#utility.yul\":4624:4625   */\n      0x00\n        /* \"#utility.yul\":4649:4702   */\n      tag_443\n        /* \"#utility.yul\":4694:4701   */\n      dup6\n        /* \"#utility.yul\":4685:4691   */\n      dup3\n        /* \"#utility.yul\":4674:4683   */\n      dup7\n        /* \"#utility.yul\":4670:4692   */\n      add\n        /* \"#utility.yul\":4649:4702   */\n      tag_391\n      jump\t// in\n    tag_443:\n        /* \"#utility.yul\":4639:4702   */\n      swap3\n      pop\n        /* \"#utility.yul\":4595:4712   */\n      pop\n        /* \"#utility.yul\":4751:4753   */\n      0x20\n        /* \"#utility.yul\":4777:4827   */\n      tag_444\n        /* \"#utility.yul\":4819:4826   */\n      dup6\n        /* \"#utility.yul\":4810:4816   */\n      dup3\n        /* \"#utility.yul\":4799:4808   */\n      dup7\n        /* \"#utility.yul\":4795:4817   */\n      add\n        /* \"#utility.yul\":4777:4827   */\n      tag_395\n      jump\t// in\n    tag_444:\n        /* \"#utility.yul\":4767:4827   */\n      swap2\n      pop\n        /* \"#utility.yul\":4722:4837   */\n      pop\n        /* \"#utility.yul\":4376:4844   */\n      swap3\n      pop\n      swap3\n      swap1\n      pop\n      jump\t// out\n        /* \"#utility.yul\":4850:5829   */\n    tag_28:\n        /* \"#utility.yul\":4947:4953   */\n      0x00\n        /* \"#utility.yul\":4955:4961   */\n      dup1\n        /* \"#utility.yul\":4963:4969   */\n      0x00\n        /* \"#utility.yul\":5012:5014   */\n      0x60\n        /* \"#utility.yul\":5000:5009   */\n      dup5\n        /* \"#utility.yul\":4991:4998   */\n      dup7\n        /* \"#utility.yul\":4987:5010   */\n      sub\n        /* \"#utility.yul\":4983:5015   */\n      slt\n        /* \"#utility.yul\":4980:5099   */\n      iszero\n      tag_446\n      jumpi\n        /* \"#utility.yul\":5018:5097   */\n      tag_447\n      tag_417\n      jump\t// in\n    tag_447:\n        /* \"#utility.yul\":4980:5099   */\n    tag_446:\n        /* \"#utility.yul\":5138:5139   */\n      0x00\n        /* \"#utility.yul\":5163:5216   */\n      tag_448\n        /* \"#utility.yul\":5208:5215   */\n      dup7\n        /* \"#utility.yul\":5199:5205   */\n      dup3\n        /* \"#utility.yul\":5188:5197   */\n      dup8\n        /* \"#utility.yul\":5184:5206   */\n      add\n        /* \"#utility.yul\":5163:5216   */\n      tag_391\n      jump\t// in\n    tag_448:\n        /* \"#utility.yul\":5153:5216   */\n      swap4\n      pop\n        /* \"#utility.yul\":5109:5226   */\n      pop\n        /* \"#utility.yul\":5293:5295   */\n      0x20\n        /* \"#utility.yul\":5282:5291   */\n      dup5\n        /* \"#utility.yul\":5278:5296   */\n      add\n        /* \"#utility.yul\":5265:5297   */\n      calldataload\n        /* \"#utility.yul\":5324:5342   */\n      0xffffffffffffffff\n        /* \"#utility.yul\":5316:5322   */\n      dup2\n        /* \"#utility.yul\":5313:5343   */\n      gt\n        /* \"#utility.yul\":5310:5427   */\n      iszero\n      tag_449\n      jumpi\n        /* \"#utility.yul\":5346:5425   */\n      tag_450\n      tag_438\n      jump\t// in\n    tag_450:\n        /* \"#utility.yul\":5310:5427   */\n    tag_449:\n        /* \"#utility.yul\":5451:5514   */\n      tag_451\n        /* \"#utility.yul\":5506:5513   */\n      dup7\n        /* \"#utility.yul\":5497:5503   */\n      dup3\n        /* \"#utility.yul\":5486:5495   */\n      dup8\n        /* \"#utility.yul\":5482:5504   */\n      add\n        /* \"#utility.yul\":5451:5514   */\n      tag_405\n      jump\t// in\n    tag_451:\n        /* \"#utility.yul\":5441:5514   */\n      swap3\n      pop\n        /* \"#utility.yul\":5236:5524   */\n      pop\n        /* \"#utility.yul\":5591:5593   */\n      0x40\n        /* \"#utility.yul\":5580:5589   */\n      dup5\n        /* \"#utility.yul\":5576:5594   */\n      add\n        /* \"#utility.yul\":5563:5595   */\n      calldataload\n        /* \"#utility.yul\":5622:5640   */\n      0xffffffffffffffff\n        /* \"#utility.yul\":5614:5620   */\n      dup2\n        /* \"#utility.yul\":5611:5641   */\n      gt\n        /* \"#utility.yul\":5608:5725   */\n      iszero\n      tag_452\n      jumpi\n        /* \"#utility.yul\":5644:5723   */\n      tag_453\n      tag_438\n      jump\t// in\n    tag_453:\n        /* \"#utility.yul\":5608:5725   */\n    tag_452:\n        /* \"#utility.yul\":5749:5812   */\n      tag_454\n        /* \"#utility.yul\":5804:5811   */\n      dup7\n        /* \"#utility.yul\":5795:5801   */\n      dup3\n        /* \"#utility.yul\":5784:5793   */\n      dup8\n        /* \"#utility.yul\":5780:5802   */\n      add\n        /* \"#utility.yul\":5749:5812   */\n      tag_405\n      jump\t// in\n    tag_454:\n        /* \"#utility.yul\":5739:5812   */\n      swap2\n      pop\n        /* \"#utility.yul\":5534:5822   */\n      pop\n        /* \"#utility.yul\":4850:5829   */\n      swap3\n      pop\n      swap3\n      pop\n      swap3\n      jump\t// out\n        /* \"#utility.yul\":5835:6309   */\n    tag_41:\n        /* \"#utility.yul\":5903:5909   */\n      0x00\n        /* \"#utility.yul\":5911:5917   */\n      dup1\n        /* \"#utility.yul\":5960:5962   */\n      0x40\n        /* \"#utility.yul\":5948:5957   */\n      dup4\n        /* \"#utility.yul\":5939:5946   */\n      dup6\n        /* \"#utility.yul\":5935:5958   */\n      sub\n        /* \"#utility.yul\":5931:5963   */\n      slt\n        /* \"#utility.yul\":5928:6047   */\n      iszero\n      tag_456\n      jumpi\n        /* \"#utility.yul\":5966:6045   */\n      tag_457\n      tag_417\n      jump\t// in\n    tag_457:\n        /* \"#utility.yul\":5928:6047   */\n    tag_456:\n        /* \"#utility.yul\":6086:6087   */\n      0x00\n        /* \"#utility.yul\":6111:6164   */\n      tag_458\n        /* \"#utility.yul\":6156:6163   */\n      dup6\n        /* \"#utility.yul\":6147:6153   */\n      dup3\n        /* \"#utility.yul\":6136:6145   */\n      dup7\n        /* \"#utility.yul\":6132:6154   */\n      add\n        /* \"#utility.yul\":6111:6164   */\n      tag_391\n      jump\t// in\n    tag_458:\n        /* \"#utility.yul\":6101:6164   */\n      swap3\n      pop\n        /* \"#utility.yul\":6057:6174   */\n      pop\n        /* \"#utility.yul\":6213:6215   */\n      0x20\n        /* \"#utility.yul\":6239:6292   */\n      tag_459\n        /* \"#utility.yul\":6284:6291   */\n      dup6\n        /* \"#utility.yul\":6275:6281   */\n      dup3\n        /* \"#utility.yul\":6264:6273   */\n      dup7\n        /* \"#utility.yul\":6260:6282   */\n      add\n        /* \"#utility.yul\":6239:6292   */\n      tag_410\n      jump\t// in\n    tag_459:\n        /* \"#utility.yul\":6229:6292   */\n      swap2\n      pop\n        /* \"#utility.yul\":6184:6302   */\n      pop\n        /* \"#utility.yul\":5835:6309   */\n      swap3\n      pop\n      swap3\n      swap1\n      pop\n      jump\t// out\n        /* \"#utility.yul\":6315:7474   */\n    tag_57:\n        /* \"#utility.yul\":6422:6428   */\n      0x00\n        /* \"#utility.yul\":6430:6436   */\n      dup1\n        /* \"#utility.yul\":6438:6444   */\n      0x00\n        /* \"#utility.yul\":6487:6489   */\n      0x60\n        /* \"#utility.yul\":6475:6484   */\n      dup5\n        /* \"#utility.yul\":6466:6473   */\n      dup7\n        /* \"#utility.yul\":6462:6485   */\n      sub\n        /* \"#utility.yul\":6458:6490   */\n      slt\n        /* \"#utility.yul\":6455:6574   */\n      iszero\n      tag_461\n      jumpi\n        /* \"#utility.yul\":6493:6572   */\n      tag_462\n      tag_417\n      jump\t// in\n    tag_462:\n        /* \"#utility.yul\":6455:6574   */\n    tag_461:\n        /* \"#utility.yul\":6641:6642   */\n      0x00\n        /* \"#utility.yul\":6630:6639   */\n      dup5\n        /* \"#utility.yul\":6626:6643   */\n      add\n        /* \"#utility.yul\":6613:6644   */\n      calldataload\n        /* \"#utility.yul\":6671:6689   */\n      0xffffffffffffffff\n        /* \"#utility.yul\":6663:6669   */\n      dup2\n        /* \"#utility.yul\":6660:6690   */\n      gt\n        /* \"#utility.yul\":6657:6774   */\n      iszero\n      tag_463\n      jumpi\n        /* \"#utility.yul\":6693:6772   */\n      tag_464\n      tag_438\n      jump\t// in\n    tag_464:\n        /* \"#utility.yul\":6657:6774   */\n    tag_463:\n        /* \"#utility.yul\":6798:6861   */\n      tag_465\n        /* \"#utility.yul\":6853:6860   */\n      dup7\n        /* \"#utility.yul\":6844:6850   */\n      dup3\n        /* \"#utility.yul\":6833:6842   */\n      dup8\n        /* \"#utility.yul\":6829:6851   */\n      add\n        /* \"#utility.yul\":6798:6861   */\n      tag_405\n      jump\t// in\n    tag_465:\n        /* \"#utility.yul\":6788:6861   */\n      swap4\n      pop\n        /* \"#utility.yul\":6584:6871   */\n      pop\n        /* \"#utility.yul\":6938:6940   */\n      0x20\n        /* \"#utility.yul\":6927:6936   */\n      dup5\n        /* \"#utility.yul\":6923:6941   */\n      add\n        /* \"#utility.yul\":6910:6942   */\n      calldataload\n        /* \"#utility.yul\":6969:6987   */\n      0xffffffffffffffff\n        /* \"#utility.yul\":6961:6967   */\n      dup2\n        /* \"#utility.yul\":6958:6988   */\n      gt\n        /* \"#utility.yul\":6955:7072   */\n      iszero\n      tag_466\n      jumpi\n        /* \"#utility.yul\":6991:7070   */\n      tag_467\n      tag_438\n      jump\t// in\n    tag_467:\n        /* \"#utility.yul\":6955:7072   */\n    tag_466:\n        /* \"#utility.yul\":7096:7159   */\n      tag_468\n        /* \"#utility.yul\":7151:7158   */\n      dup7\n        /* \"#utility.yul\":7142:7148   */\n      dup3\n        /* \"#utility.yul\":7131:7140   */\n      dup8\n        /* \"#utility.yul\":7127:7149   */\n      add\n        /* \"#utility.yul\":7096:7159   */\n      tag_405\n      jump\t// in\n    tag_468:\n        /* \"#utility.yul\":7086:7159   */\n      swap3\n      pop\n        /* \"#utility.yul\":6881:7169   */\n      pop\n        /* \"#utility.yul\":7236:7238   */\n      0x40\n        /* \"#utility.yul\":7225:7234   */\n      dup5\n        /* \"#utility.yul\":7221:7239   */\n      add\n        /* \"#utility.yul\":7208:7240   */\n      calldataload\n        /* \"#utility.yul\":7267:7285   */\n      0xffffffffffffffff\n        /* \"#utility.yul\":7259:7265   */\n      dup2\n        /* \"#utility.yul\":7256:7286   */\n      gt\n        /* \"#utility.yul\":7253:7370   */\n      iszero\n      tag_469\n      jumpi\n        /* \"#utility.yul\":7289:7368   */\n      tag_470\n      tag_438\n      jump\t// in\n    tag_470:\n        /* \"#utility.yul\":7253:7370   */\n    tag_469:\n        /* \"#utility.yul\":7394:7457   */\n      tag_471\n        /* \"#utility.yul\":7449:7456   */\n      dup7\n        /* \"#utility.yul\":7440:7446   */\n      dup3\n        /* \"#utility.yul\":7429:7438   */\n      dup8\n        /* \"#utility.yul\":7425:7447   */\n      add\n        /* \"#utility.yul\":7394:7457   */\n      tag_405\n      jump\t// in\n    tag_471:\n        /* \"#utility.yul\":7384:7457   */\n      swap2\n      pop\n        /* \"#utility.yul\":7179:7467   */\n      pop\n        /* \"#utility.yul\":6315:7474   */\n      swap3\n      pop\n      swap3\n      pop\n      swap3\n      jump\t// out\n        /* \"#utility.yul\":7480:7809   */\n    tag_35:\n        /* \"#utility.yul\":7539:7545   */\n      0x00\n        /* \"#utility.yul\":7588:7590   */\n      0x20\n        /* \"#utility.yul\":7576:7585   */\n      dup3\n        /* \"#utility.yul\":7567:7574   */\n      dup5\n        /* \"#utility.yul\":7563:7586   */\n      sub\n        /* \"#utility.yul\":7559:7591   */\n      slt\n        /* \"#utility.yul\":7556:7675   */\n      iszero\n      tag_473\n      jumpi\n        /* \"#utility.yul\":7594:7673   */\n      tag_474\n      tag_417\n      jump\t// in\n    tag_474:\n        /* \"#utility.yul\":7556:7675   */\n    tag_473:\n        /* \"#utility.yul\":7714:7715   */\n      0x00\n        /* \"#utility.yul\":7739:7792   */\n      tag_475\n        /* \"#utility.yul\":7784:7791   */\n      dup5\n        /* \"#utility.yul\":7775:7781   */\n      dup3\n        /* \"#utility.yul\":7764:7773   */\n      dup6\n        /* \"#utility.yul\":7760:7782   */\n      add\n        /* \"#utility.yul\":7739:7792   */\n      tag_410\n      jump\t// in\n    tag_475:\n        /* \"#utility.yul\":7729:7792   */\n      swap2\n      pop\n        /* \"#utility.yul\":7685:7802   */\n      pop\n        /* \"#utility.yul\":7480:7809   */\n      swap3\n      swap2\n      pop\n      pop\n      jump\t// out\n        /* \"#utility.yul\":7815:7933   */\n    tag_476:\n        /* \"#utility.yul\":7902:7926   */\n      tag_478\n        /* \"#utility.yul\":7920:7925   */\n      dup2\n        /* \"#utility.yul\":7902:7926   */\n      tag_479\n      jump\t// in\n    tag_478:\n        /* \"#utility.yul\":7897:7900   */\n      dup3\n        /* \"#utility.yul\":7890:7927   */\n      mstore\n        /* \"#utility.yul\":7815:7933   */\n      pop\n      pop\n      jump\t// out\n        /* \"#utility.yul\":7939:8048   */\n    tag_480:\n        /* \"#utility.yul\":8020:8041   */\n      tag_482\n        /* \"#utility.yul\":8035:8040   */\n      dup2\n        /* \"#utility.yul\":8020:8041   */\n      tag_483\n      jump\t// in\n    tag_482:\n        /* \"#utility.yul\":8015:8018   */\n      dup3\n        /* \"#utility.yul\":8008:8042   */\n      mstore\n        /* \"#utility.yul\":7939:8048   */\n      pop\n      pop\n      jump\t// out\n        /* \"#utility.yul\":8054:8418   */\n    tag_484:\n        /* \"#utility.yul\":8142:8145   */\n      0x00\n        /* \"#utility.yul\":8170:8209   */\n      tag_486\n        /* \"#utility.yul\":8203:8208   */\n      dup3\n        /* \"#utility.yul\":8170:8209   */\n      tag_487\n      jump\t// in\n    tag_486:\n        /* \"#utility.yul\":8225:8296   */\n      tag_488\n        /* \"#utility.yul\":8289:8295   */\n      dup2\n        /* \"#utility.yul\":8284:8287   */\n      dup6\n        /* \"#utility.yul\":8225:8296   */\n      tag_489\n      jump\t// in\n    tag_488:\n        /* \"#utility.yul\":8218:8296   */\n      swap4\n      pop\n        /* \"#utility.yul\":8305:8357   */\n      tag_490\n        /* \"#utility.yul\":8350:8356   */\n      dup2\n        /* \"#utility.yul\":8345:8348   */\n      dup6\n        /* \"#utility.yul\":8338:8342   */\n      0x20\n        /* \"#utility.yul\":8331:8336   */\n      dup7\n        /* \"#utility.yul\":8327:8343   */\n      add\n        /* \"#utility.yul\":8305:8357   */\n      tag_491\n      jump\t// in\n    tag_490:\n        /* \"#utility.yul\":8382:8411   */\n      tag_492\n        /* \"#utility.yul\":8404:8410   */\n      dup2\n        /* \"#utility.yul\":8382:8411   */\n      tag_493\n      jump\t// in\n    tag_492:\n        /* \"#utility.yul\":8377:8380   */\n      dup5\n        /* \"#utility.yul\":8373:8412   */\n      add\n        /* \"#utility.yul\":8366:8412   */\n      swap2\n      pop\n        /* \"#utility.yul\":8146:8418   */\n      pop\n        /* \"#utility.yul\":8054:8418   */\n      swap3\n      swap2\n      pop\n      pop\n      jump\t// out\n        /* \"#utility.yul\":8448:9250   */\n    tag_494:\n        /* \"#utility.yul\":8533:8536   */\n      0x00\n        /* \"#utility.yul\":8570:8575   */\n      dup2\n        /* \"#utility.yul\":8564:8576   */\n      sload\n        /* \"#utility.yul\":8599:8635   */\n      tag_496\n        /* \"#utility.yul\":8625:8634   */\n      dup2\n        /* \"#utility.yul\":8599:8635   */\n      tag_302\n      jump\t// in\n    tag_496:\n        /* \"#utility.yul\":8651:8722   */\n      tag_497\n        /* \"#utility.yul\":8715:8721   */\n      dup2\n        /* \"#utility.yul\":8710:8713   */\n      dup7\n        /* \"#utility.yul\":8651:8722   */\n      tag_489\n      jump\t// in\n    tag_497:\n        /* \"#utility.yul\":8644:8722   */\n      swap5\n      pop\n        /* \"#utility.yul\":8753:8754   */\n      0x01\n        /* \"#utility.yul\":8742:8751   */\n      dup3\n        /* \"#utility.yul\":8738:8755   */\n      and\n        /* \"#utility.yul\":8769:8770   */\n      0x00\n        /* \"#utility.yul\":8764:8899   */\n      dup2\n      eq\n      tag_499\n      jumpi\n        /* \"#utility.yul\":8913:8914   */\n      0x01\n        /* \"#utility.yul\":8908:9244   */\n      dup2\n      eq\n      tag_500\n      jumpi\n        /* \"#utility.yul\":8731:9244   */\n      jump(tag_498)\n        /* \"#utility.yul\":8764:8899   */\n    tag_499:\n        /* \"#utility.yul\":8848:8852   */\n      0xff\n        /* \"#utility.yul\":8844:8853   */\n      not\n        /* \"#utility.yul\":8833:8842   */\n      dup4\n        /* \"#utility.yul\":8829:8854   */\n      and\n        /* \"#utility.yul\":8824:8827   */\n      dup7\n        /* \"#utility.yul\":8817:8855   */\n      mstore\n        /* \"#utility.yul\":8884:8888   */\n      0x20\n        /* \"#utility.yul\":8879:8882   */\n      dup7\n        /* \"#utility.yul\":8875:8889   */\n      add\n        /* \"#utility.yul\":8868:8889   */\n      swap4\n      pop\n        /* \"#utility.yul\":8764:8899   */\n      jump(tag_498)\n        /* \"#utility.yul\":8908:9244   */\n    tag_500:\n        /* \"#utility.yul\":8975:9013   */\n      tag_501\n        /* \"#utility.yul\":9007:9012   */\n      dup6\n        /* \"#utility.yul\":8975:9013   */\n      tag_502\n      jump\t// in\n    tag_501:\n        /* \"#utility.yul\":9035:9036   */\n      0x00\n        /* \"#utility.yul\":9049:9203   */\n    tag_503:\n        /* \"#utility.yul\":9063:9069   */\n      dup4\n        /* \"#utility.yul\":9060:9061   */\n      dup2\n        /* \"#utility.yul\":9057:9070   */\n      lt\n        /* \"#utility.yul\":9049:9203   */\n      iszero\n      tag_505\n      jumpi\n        /* \"#utility.yul\":9137:9144   */\n      dup2\n        /* \"#utility.yul\":9131:9145   */\n      sload\n        /* \"#utility.yul\":9127:9128   */\n      dup2\n        /* \"#utility.yul\":9122:9125   */\n      dup10\n        /* \"#utility.yul\":9118:9129   */\n      add\n        /* \"#utility.yul\":9111:9146   */\n      mstore\n        /* \"#utility.yul\":9187:9188   */\n      0x01\n        /* \"#utility.yul\":9178:9185   */\n      dup3\n        /* \"#utility.yul\":9174:9189   */\n      add\n        /* \"#utility.yul\":9163:9189   */\n      swap2\n      pop\n        /* \"#utility.yul\":9085:9089   */\n      0x20\n        /* \"#utility.yul\":9082:9083   */\n      dup2\n        /* \"#utility.yul\":9078:9090   */\n      add\n        /* \"#utility.yul\":9073:9090   */\n      swap1\n      pop\n        /* \"#utility.yul\":9049:9203   */\n      jump(tag_503)\n    tag_505:\n        /* \"#utility.yul\":9232:9233   */\n      dup1\n        /* \"#utility.yul\":9227:9230   */\n      dup9\n        /* \"#utility.yul\":9223:9234   */\n      add\n        /* \"#utility.yul\":9216:9234   */\n      swap6\n      pop\n        /* \"#utility.yul\":8915:9244   */\n      pop\n      pop\n        /* \"#utility.yul\":8731:9244   */\n    tag_498:\n      pop\n        /* \"#utility.yul\":8537:9250   */\n      pop\n      pop\n        /* \"#utility.yul\":8448:9250   */\n      swap3\n      swap2\n      pop\n      pop\n      jump\t// out\n        /* \"#utility.yul\":9256:9622   */\n    tag_506:\n        /* \"#utility.yul\":9398:9401   */\n      0x00\n        /* \"#utility.yul\":9419:9486   */\n      tag_508\n        /* \"#utility.yul\":9483:9485   */\n      0x28\n        /* \"#utility.yul\":9478:9481   */\n      dup4\n        /* \"#utility.yul\":9419:9486   */\n      tag_489\n      jump\t// in\n    tag_508:\n        /* \"#utility.yul\":9412:9486   */\n      swap2\n      pop\n        /* \"#utility.yul\":9495:9588   */\n      tag_509\n        /* \"#utility.yul\":9584:9587   */\n      dup3\n        /* \"#utility.yul\":9495:9588   */\n      tag_510\n      jump\t// in\n    tag_509:\n        /* \"#utility.yul\":9613:9615   */\n      0x40\n        /* \"#utility.yul\":9608:9611   */\n      dup3\n        /* \"#utility.yul\":9604:9616   */\n      add\n        /* \"#utility.yul\":9597:9616   */\n      swap1\n      pop\n        /* \"#utility.yul\":9256:9622   */\n      swap2\n      swap1\n      pop\n      jump\t// out\n        /* \"#utility.yul\":9628:9994   */\n    tag_511:\n        /* \"#utility.yul\":9770:9773   */\n      0x00\n        /* \"#utility.yul\":9791:9858   */\n      tag_513\n        /* \"#utility.yul\":9855:9857   */\n      0x26\n        /* \"#utility.yul\":9850:9853   */\n      dup4\n        /* \"#utility.yul\":9791:9858   */\n      tag_489\n      jump\t// in\n    tag_513:\n        /* \"#utility.yul\":9784:9858   */\n      swap2\n      pop\n        /* \"#utility.yul\":9867:9960   */\n      tag_514\n        /* \"#utility.yul\":9956:9959   */\n      dup3\n        /* \"#utility.yul\":9867:9960   */\n      tag_515\n      jump\t// in\n    tag_514:\n        /* \"#utility.yul\":9985:9987   */\n      0x40\n        /* \"#utility.yul\":9980:9983   */\n      dup3\n        /* \"#utility.yul\":9976:9988   */\n      add\n        /* \"#utility.yul\":9969:9988   */\n      swap1\n      pop\n        /* \"#utility.yul\":9628:9994   */\n      swap2\n      swap1\n      pop\n      jump\t// out\n        /* \"#utility.yul\":10000:10366   */\n    tag_516:\n        /* \"#utility.yul\":10142:10145   */\n      0x00\n        /* \"#utility.yul\":10163:10230   */\n      tag_518\n        /* \"#utility.yul\":10227:10229   */\n      0x32\n        /* \"#utility.yul\":10222:10225   */\n      dup4\n        /* \"#utility.yul\":10163:10230   */\n      tag_489\n      jump\t// in\n    tag_518:\n        /* \"#utility.yul\":10156:10230   */\n      swap2\n      pop\n        /* \"#utility.yul\":10239:10332   */\n      tag_519\n        /* \"#utility.yul\":10328:10331   */\n      dup3\n        /* \"#utility.yul\":10239:10332   */\n      tag_520\n      jump\t// in\n    tag_519:\n        /* \"#utility.yul\":10357:10359   */\n      0x40\n        /* \"#utility.yul\":10352:10355   */\n      dup3\n        /* \"#utility.yul\":10348:10360   */\n      add\n        /* \"#utility.yul\":10341:10360   */\n      swap1\n      pop\n        /* \"#utility.yul\":10000:10366   */\n      swap2\n      swap1\n      pop\n      jump\t// out\n        /* \"#utility.yul\":10372:10738   */\n    tag_521:\n        /* \"#utility.yul\":10514:10517   */\n      0x00\n        /* \"#utility.yul\":10535:10602   */\n      tag_523\n        /* \"#utility.yul\":10599:10601   */\n      0x20\n        /* \"#utility.yul\":10594:10597   */\n      dup4\n        /* \"#utility.yul\":10535:10602   */\n      tag_489\n      jump\t// in\n    tag_523:\n        /* \"#utility.yul\":10528:10602   */\n      swap2\n      pop\n        /* \"#utility.yul\":10611:10704   */\n      tag_524\n        /* \"#utility.yul\":10700:10703   */\n      dup3\n        /* \"#utility.yul\":10611:10704   */\n      tag_525\n      jump\t// in\n    tag_524:\n        /* \"#utility.yul\":10729:10731   */\n      0x20\n        /* \"#utility.yul\":10724:10727   */\n      dup3\n        /* \"#utility.yul\":10720:10732   */\n      add\n        /* \"#utility.yul\":10713:10732   */\n      swap1\n      pop\n        /* \"#utility.yul\":10372:10738   */\n      swap2\n      swap1\n      pop\n      jump\t// out\n        /* \"#utility.yul\":10744:11110   */\n    tag_526:\n        /* \"#utility.yul\":10886:10889   */\n      0x00\n        /* \"#utility.yul\":10907:10974   */\n      tag_528\n        /* \"#utility.yul\":10971:10973   */\n      0x15\n        /* \"#utility.yul\":10966:10969   */\n      dup4\n        /* \"#utility.yul\":10907:10974   */\n      tag_489\n      jump\t// in\n    tag_528:\n        /* \"#utility.yul\":10900:10974   */\n      swap2\n      pop\n        /* \"#utility.yul\":10983:11076   */\n      tag_529\n        /* \"#utility.yul\":11072:11075   */\n      dup3\n        /* \"#utility.yul\":10983:11076   */\n      tag_530\n      jump\t// in\n    tag_529:\n        /* \"#utility.yul\":11101:11103   */\n      0x20\n        /* \"#utility.yul\":11096:11099   */\n      dup3\n        /* \"#utility.yul\":11092:11104   */\n      add\n        /* \"#utility.yul\":11085:11104   */\n      swap1\n      pop\n        /* \"#utility.yul\":10744:11110   */\n      swap2\n      swap1\n      pop\n      jump\t// out\n        /* \"#utility.yul\":11116:11234   */\n    tag_531:\n        /* \"#utility.yul\":11203:11227   */\n      tag_533\n        /* \"#utility.yul\":11221:11226   */\n      dup2\n        /* \"#utility.yul\":11203:11227   */\n      tag_534\n      jump\t// in\n    tag_533:\n        /* \"#utility.yul\":11198:11201   */\n      dup3\n        /* \"#utility.yul\":11191:11228   */\n      mstore\n        /* \"#utility.yul\":11116:11234   */\n      pop\n      pop\n      jump\t// out\n        /* \"#utility.yul\":11240:11397   */\n    tag_535:\n        /* \"#utility.yul\":11345:11390   */\n      tag_537\n        /* \"#utility.yul\":11365:11389   */\n      tag_538\n        /* \"#utility.yul\":11383:11388   */\n      dup3\n        /* \"#utility.yul\":11365:11389   */\n      tag_534\n      jump\t// in\n    tag_538:\n        /* \"#utility.yul\":11345:11390   */\n      tag_539\n      jump\t// in\n    tag_537:\n        /* \"#utility.yul\":11340:11343   */\n      dup3\n        /* \"#utility.yul\":11333:11391   */\n      mstore\n        /* \"#utility.yul\":11240:11397   */\n      pop\n      pop\n      jump\t// out\n        /* \"#utility.yul\":11403:11518   */\n    tag_540:\n        /* \"#utility.yul\":11488:11511   */\n      tag_542\n        /* \"#utility.yul\":11505:11510   */\n      dup2\n        /* \"#utility.yul\":11488:11511   */\n      tag_543\n      jump\t// in\n    tag_542:\n        /* \"#utility.yul\":11483:11486   */\n      dup3\n        /* \"#utility.yul\":11476:11512   */\n      mstore\n        /* \"#utility.yul\":11403:11518   */\n      pop\n      pop\n      jump\t// out\n        /* \"#utility.yul\":11524:12062   */\n    tag_192:\n        /* \"#utility.yul\":11692:11695   */\n      0x00\n        /* \"#utility.yul\":11707:11782   */\n      tag_545\n        /* \"#utility.yul\":11778:11781   */\n      dup3\n        /* \"#utility.yul\":11769:11775   */\n      dup7\n        /* \"#utility.yul\":11707:11782   */\n      tag_535\n      jump\t// in\n    tag_545:\n        /* \"#utility.yul\":11807:11809   */\n      0x20\n        /* \"#utility.yul\":11802:11805   */\n      dup3\n        /* \"#utility.yul\":11798:11810   */\n      add\n        /* \"#utility.yul\":11791:11810   */\n      swap2\n      pop\n        /* \"#utility.yul\":11820:11895   */\n      tag_546\n        /* \"#utility.yul\":11891:11894   */\n      dup3\n        /* \"#utility.yul\":11882:11888   */\n      dup6\n        /* \"#utility.yul\":11820:11895   */\n      tag_535\n      jump\t// in\n    tag_546:\n        /* \"#utility.yul\":11920:11922   */\n      0x20\n        /* \"#utility.yul\":11915:11918   */\n      dup3\n        /* \"#utility.yul\":11911:11923   */\n      add\n        /* \"#utility.yul\":11904:11923   */\n      swap2\n      pop\n        /* \"#utility.yul\":11933:12008   */\n      tag_547\n        /* \"#utility.yul\":12004:12007   */\n      dup3\n        /* \"#utility.yul\":11995:12001   */\n      dup5\n        /* \"#utility.yul\":11933:12008   */\n      tag_535\n      jump\t// in\n    tag_547:\n        /* \"#utility.yul\":12033:12035   */\n      0x20\n        /* \"#utility.yul\":12028:12031   */\n      dup3\n        /* \"#utility.yul\":12024:12036   */\n      add\n        /* \"#utility.yul\":12017:12036   */\n      swap2\n      pop\n        /* \"#utility.yul\":12053:12056   */\n      dup2\n        /* \"#utility.yul\":12046:12056   */\n      swap1\n      pop\n        /* \"#utility.yul\":11524:12062   */\n      swap5\n      swap4\n      pop\n      pop\n      pop\n      pop\n      jump\t// out\n        /* \"#utility.yul\":12068:12290   */\n    tag_38:\n        /* \"#utility.yul\":12161:12165   */\n      0x00\n        /* \"#utility.yul\":12199:12201   */\n      0x20\n        /* \"#utility.yul\":12188:12197   */\n      dup3\n        /* \"#utility.yul\":12184:12202   */\n      add\n        /* \"#utility.yul\":12176:12202   */\n      swap1\n      pop\n        /* \"#utility.yul\":12212:12283   */\n      tag_549\n        /* \"#utility.yul\":12280:12281   */\n      0x00\n        /* \"#utility.yul\":12269:12278   */\n      dup4\n        /* \"#utility.yul\":12265:12282   */\n      add\n        /* \"#utility.yul\":12256:12262   */\n      dup5\n        /* \"#utility.yul\":12212:12283   */\n      tag_476\n      jump\t// in\n    tag_549:\n        /* \"#utility.yul\":12068:12290   */\n      swap3\n      swap2\n      pop\n      pop\n      jump\t// out\n        /* \"#utility.yul\":12296:13562   */\n    tag_111:\n        /* \"#utility.yul\":12643:12647   */\n      0x00\n        /* \"#utility.yul\":12681:12684   */\n      0x0100\n        /* \"#utility.yul\":12670:12679   */\n      dup3\n        /* \"#utility.yul\":12666:12685   */\n      add\n        /* \"#utility.yul\":12658:12685   */\n      swap1\n      pop\n        /* \"#utility.yul\":12695:12766   */\n      tag_551\n        /* \"#utility.yul\":12763:12764   */\n      0x00\n        /* \"#utility.yul\":12752:12761   */\n      dup4\n        /* \"#utility.yul\":12748:12765   */\n      add\n        /* \"#utility.yul\":12739:12745   */\n      dup12\n        /* \"#utility.yul\":12695:12766   */\n      tag_476\n      jump\t// in\n    tag_551:\n        /* \"#utility.yul\":12813:12822   */\n      dup2\n        /* \"#utility.yul\":12807:12811   */\n      dup2\n        /* \"#utility.yul\":12803:12823   */\n      sub\n        /* \"#utility.yul\":12798:12800   */\n      0x20\n        /* \"#utility.yul\":12787:12796   */\n      dup4\n        /* \"#utility.yul\":12783:12801   */\n      add\n        /* \"#utility.yul\":12776:12824   */\n      mstore\n        /* \"#utility.yul\":12841:12919   */\n      tag_552\n        /* \"#utility.yul\":12914:12918   */\n      dup2\n        /* \"#utility.yul\":12905:12911   */\n      dup11\n        /* \"#utility.yul\":12841:12919   */\n      tag_484\n      jump\t// in\n    tag_552:\n        /* \"#utility.yul\":12833:12919   */\n      swap1\n      pop\n        /* \"#utility.yul\":12966:12975   */\n      dup2\n        /* \"#utility.yul\":12960:12964   */\n      dup2\n        /* \"#utility.yul\":12956:12976   */\n      sub\n        /* \"#utility.yul\":12951:12953   */\n      0x40\n        /* \"#utility.yul\":12940:12949   */\n      dup4\n        /* \"#utility.yul\":12936:12954   */\n      add\n        /* \"#utility.yul\":12929:12977   */\n      mstore\n        /* \"#utility.yul\":12994:13072   */\n      tag_553\n        /* \"#utility.yul\":13067:13071   */\n      dup2\n        /* \"#utility.yul\":13058:13064   */\n      dup10\n        /* \"#utility.yul\":12994:13072   */\n      tag_484\n      jump\t// in\n    tag_553:\n        /* \"#utility.yul\":12986:13072   */\n      swap1\n      pop\n        /* \"#utility.yul\":13119:13128   */\n      dup2\n        /* \"#utility.yul\":13113:13117   */\n      dup2\n        /* \"#utility.yul\":13109:13129   */\n      sub\n        /* \"#utility.yul\":13104:13106   */\n      0x60\n        /* \"#utility.yul\":13093:13102   */\n      dup4\n        /* \"#utility.yul\":13089:13107   */\n      add\n        /* \"#utility.yul\":13082:13130   */\n      mstore\n        /* \"#utility.yul\":13147:13225   */\n      tag_554\n        /* \"#utility.yul\":13220:13224   */\n      dup2\n        /* \"#utility.yul\":13211:13217   */\n      dup9\n        /* \"#utility.yul\":13147:13225   */\n      tag_484\n      jump\t// in\n    tag_554:\n        /* \"#utility.yul\":13139:13225   */\n      swap1\n      pop\n        /* \"#utility.yul\":13235:13308   */\n      tag_555\n        /* \"#utility.yul\":13303:13306   */\n      0x80\n        /* \"#utility.yul\":13292:13301   */\n      dup4\n        /* \"#utility.yul\":13288:13307   */\n      add\n        /* \"#utility.yul\":13279:13285   */\n      dup8\n        /* \"#utility.yul\":13235:13308   */\n      tag_531\n      jump\t// in\n    tag_555:\n        /* \"#utility.yul\":13318:13391   */\n      tag_556\n        /* \"#utility.yul\":13386:13389   */\n      0xa0\n        /* \"#utility.yul\":13375:13384   */\n      dup4\n        /* \"#utility.yul\":13371:13390   */\n      add\n        /* \"#utility.yul\":13362:13368   */\n      dup7\n        /* \"#utility.yul\":13318:13391   */\n      tag_531\n      jump\t// in\n    tag_556:\n        /* \"#utility.yul\":13401:13474   */\n      tag_557\n        /* \"#utility.yul\":13469:13472   */\n      0xc0\n        /* \"#utility.yul\":13458:13467   */\n      dup4\n        /* \"#utility.yul\":13454:13473   */\n      add\n        /* \"#utility.yul\":13445:13451   */\n      dup6\n        /* \"#utility.yul\":13401:13474   */\n      tag_531\n      jump\t// in\n    tag_557:\n        /* \"#utility.yul\":13484:13555   */\n      tag_558\n        /* \"#utility.yul\":13550:13553   */\n      0xe0\n        /* \"#utility.yul\":13539:13548   */\n      dup4\n        /* \"#utility.yul\":13535:13554   */\n      add\n        /* \"#utility.yul\":13526:13532   */\n      dup5\n        /* \"#utility.yul\":13484:13555   */\n      tag_540\n      jump\t// in\n    tag_558:\n        /* \"#utility.yul\":12296:13562   */\n      swap10\n      swap9\n      pop\n      pop\n      pop\n      pop\n      pop\n      pop\n      pop\n      pop\n      pop\n      jump\t// out\n        /* \"#utility.yul\":13568:13778   */\n    tag_122:\n        /* \"#utility.yul\":13655:13659   */\n      0x00\n        /* \"#utility.yul\":13693:13695   */\n      0x20\n        /* \"#utility.yul\":13682:13691   */\n      dup3\n        /* \"#utility.yul\":13678:13696   */\n      add\n        /* \"#utility.yul\":13670:13696   */\n      swap1\n      pop\n        /* \"#utility.yul\":13706:13771   */\n      tag_560\n        /* \"#utility.yul\":13768:13769   */\n      0x00\n        /* \"#utility.yul\":13757:13766   */\n      dup4\n        /* \"#utility.yul\":13753:13770   */\n      add\n        /* \"#utility.yul\":13744:13750   */\n      dup5\n        /* \"#utility.yul\":13706:13771   */\n      tag_480\n      jump\t// in\n    tag_560:\n        /* \"#utility.yul\":13568:13778   */\n      swap3\n      swap2\n      pop\n      pop\n      jump\t// out\n        /* \"#utility.yul\":13784:14097   */\n    tag_31:\n        /* \"#utility.yul\":13897:13901   */\n      0x00\n        /* \"#utility.yul\":13935:13937   */\n      0x20\n        /* \"#utility.yul\":13924:13933   */\n      dup3\n        /* \"#utility.yul\":13920:13938   */\n      add\n        /* \"#utility.yul\":13912:13938   */\n      swap1\n      pop\n        /* \"#utility.yul\":13984:13993   */\n      dup2\n        /* \"#utility.yul\":13978:13982   */\n      dup2\n        /* \"#utility.yul\":13974:13994   */\n      sub\n        /* \"#utility.yul\":13970:13971   */\n      0x00\n        /* \"#utility.yul\":13959:13968   */\n      dup4\n        /* \"#utility.yul\":13955:13972   */\n      add\n        /* \"#utility.yul\":13948:13995   */\n      mstore\n        /* \"#utility.yul\":14012:14090   */\n      tag_562\n        /* \"#utility.yul\":14085:14089   */\n      dup2\n        /* \"#utility.yul\":14076:14082   */\n      dup5\n        /* \"#utility.yul\":14012:14090   */\n      tag_484\n      jump\t// in\n    tag_562:\n        /* \"#utility.yul\":14004:14090   */\n      swap1\n      pop\n        /* \"#utility.yul\":13784:14097   */\n      swap3\n      swap2\n      pop\n      pop\n      jump\t// out\n        /* \"#utility.yul\":14103:14933   */\n    tag_341:\n        /* \"#utility.yul\":14340:14344   */\n      0x00\n        /* \"#utility.yul\":14378:14381   */\n      0xa0\n        /* \"#utility.yul\":14367:14376   */\n      dup3\n        /* \"#utility.yul\":14363:14382   */\n      add\n        /* \"#utility.yul\":14355:14382   */\n      swap1\n      pop\n        /* \"#utility.yul\":14428:14437   */\n      dup2\n        /* \"#utility.yul\":14422:14426   */\n      dup2\n        /* \"#utility.yul\":14418:14438   */\n      sub\n        /* \"#utility.yul\":14414:14415   */\n      0x00\n        /* \"#utility.yul\":14403:14412   */\n      dup4\n        /* \"#utility.yul\":14399:14416   */\n      add\n        /* \"#utility.yul\":14392:14439   */\n      mstore\n        /* \"#utility.yul\":14456:14531   */\n      tag_564\n        /* \"#utility.yul\":14526:14530   */\n      dup2\n        /* \"#utility.yul\":14517:14523   */\n      dup9\n        /* \"#utility.yul\":14456:14531   */\n      tag_494\n      jump\t// in\n    tag_564:\n        /* \"#utility.yul\":14448:14531   */\n      swap1\n      pop\n        /* \"#utility.yul\":14578:14587   */\n      dup2\n        /* \"#utility.yul\":14572:14576   */\n      dup2\n        /* \"#utility.yul\":14568:14588   */\n      sub\n        /* \"#utility.yul\":14563:14565   */\n      0x20\n        /* \"#utility.yul\":14552:14561   */\n      dup4\n        /* \"#utility.yul\":14548:14566   */\n      add\n        /* \"#utility.yul\":14541:14589   */\n      mstore\n        /* \"#utility.yul\":14606:14681   */\n      tag_565\n        /* \"#utility.yul\":14676:14680   */\n      dup2\n        /* \"#utility.yul\":14667:14673   */\n      dup8\n        /* \"#utility.yul\":14606:14681   */\n      tag_494\n      jump\t// in\n    tag_565:\n        /* \"#utility.yul\":14598:14681   */\n      swap1\n      pop\n        /* \"#utility.yul\":14691:14761   */\n      tag_566\n        /* \"#utility.yul\":14757:14759   */\n      0x40\n        /* \"#utility.yul\":14746:14755   */\n      dup4\n        /* \"#utility.yul\":14742:14760   */\n      add\n        /* \"#utility.yul\":14733:14739   */\n      dup7\n        /* \"#utility.yul\":14691:14761   */\n      tag_540\n      jump\t// in\n    tag_566:\n        /* \"#utility.yul\":14771:14843   */\n      tag_567\n        /* \"#utility.yul\":14839:14841   */\n      0x60\n        /* \"#utility.yul\":14828:14837   */\n      dup4\n        /* \"#utility.yul\":14824:14842   */\n      add\n        /* \"#utility.yul\":14815:14821   */\n      dup6\n        /* \"#utility.yul\":14771:14843   */\n      tag_531\n      jump\t// in\n    tag_567:\n        /* \"#utility.yul\":14853:14926   */\n      tag_568\n        /* \"#utility.yul\":14921:14924   */\n      0x80\n        /* \"#utility.yul\":14910:14919   */\n      dup4\n        /* \"#utility.yul\":14906:14925   */\n      add\n        /* \"#utility.yul\":14897:14903   */\n      dup5\n        /* \"#utility.yul\":14853:14926   */\n      tag_531\n      jump\t// in\n    tag_568:\n        /* \"#utility.yul\":14103:14933   */\n      swap7\n      swap6\n      pop\n      pop\n      pop\n      pop\n      pop\n      pop\n      jump\t// out\n        /* \"#utility.yul\":14939:15358   */\n    tag_155:\n        /* \"#utility.yul\":15105:15109   */\n      0x00\n        /* \"#utility.yul\":15143:15145   */\n      0x20\n        /* \"#utility.yul\":15132:15141   */\n      dup3\n        /* \"#utility.yul\":15128:15146   */\n      add\n        /* \"#utility.yul\":15120:15146   */\n      swap1\n      pop\n        /* \"#utility.yul\":15192:15201   */\n      dup2\n        /* \"#utility.yul\":15186:15190   */\n      dup2\n        /* \"#utility.yul\":15182:15202   */\n      sub\n        /* \"#utility.yul\":15178:15179   */\n      0x00\n        /* \"#utility.yul\":15167:15176   */\n      dup4\n        /* \"#utility.yul\":15163:15180   */\n      add\n        /* \"#utility.yul\":15156:15203   */\n      mstore\n        /* \"#utility.yul\":15220:15351   */\n      tag_570\n        /* \"#utility.yul\":15346:15350   */\n      dup2\n        /* \"#utility.yul\":15220:15351   */\n      tag_506\n      jump\t// in\n    tag_570:\n        /* \"#utility.yul\":15212:15351   */\n      swap1\n      pop\n        /* \"#utility.yul\":14939:15358   */\n      swap2\n      swap1\n      pop\n      jump\t// out\n        /* \"#utility.yul\":15364:15783   */\n    tag_352:\n        /* \"#utility.yul\":15530:15534   */\n      0x00\n        /* \"#utility.yul\":15568:15570   */\n      0x20\n        /* \"#utility.yul\":15557:15566   */\n      dup3\n        /* \"#utility.yul\":15553:15571   */\n      add\n        /* \"#utility.yul\":15545:15571   */\n      swap1\n      pop\n        /* \"#utility.yul\":15617:15626   */\n      dup2\n        /* \"#utility.yul\":15611:15615   */\n      dup2\n        /* \"#utility.yul\":15607:15627   */\n      sub\n        /* \"#utility.yul\":15603:15604   */\n      0x00\n        /* \"#utility.yul\":15592:15601   */\n      dup4\n        /* \"#utility.yul\":15588:15605   */\n      add\n        /* \"#utility.yul\":15581:15628   */\n      mstore\n        /* \"#utility.yul\":15645:15776   */\n      tag_572\n        /* \"#utility.yul\":15771:15775   */\n      dup2\n        /* \"#utility.yul\":15645:15776   */\n      tag_511\n      jump\t// in\n    tag_572:\n        /* \"#utility.yul\":15637:15776   */\n      swap1\n      pop\n        /* \"#utility.yul\":15364:15783   */\n      swap2\n      swap1\n      pop\n      jump\t// out\n        /* \"#utility.yul\":15789:16208   */\n    tag_187:\n        /* \"#utility.yul\":15955:15959   */\n      0x00\n        /* \"#utility.yul\":15993:15995   */\n      0x20\n        /* \"#utility.yul\":15982:15991   */\n      dup3\n        /* \"#utility.yul\":15978:15996   */\n      add\n        /* \"#utility.yul\":15970:15996   */\n      swap1\n      pop\n        /* \"#utility.yul\":16042:16051   */\n      dup2\n        /* \"#utility.yul\":16036:16040   */\n      dup2\n        /* \"#utility.yul\":16032:16052   */\n      sub\n        /* \"#utility.yul\":16028:16029   */\n      0x00\n        /* \"#utility.yul\":16017:16026   */\n      dup4\n        /* \"#utility.yul\":16013:16030   */\n      add\n        /* \"#utility.yul\":16006:16053   */\n      mstore\n        /* \"#utility.yul\":16070:16201   */\n      tag_574\n        /* \"#utility.yul\":16196:16200   */\n      dup2\n        /* \"#utility.yul\":16070:16201   */\n      tag_516\n      jump\t// in\n    tag_574:\n        /* \"#utility.yul\":16062:16201   */\n      swap1\n      pop\n        /* \"#utility.yul\":15789:16208   */\n      swap2\n      swap1\n      pop\n      jump\t// out\n        /* \"#utility.yul\":16214:16633   */\n    tag_292:\n        /* \"#utility.yul\":16380:16384   */\n      0x00\n        /* \"#utility.yul\":16418:16420   */\n      0x20\n        /* \"#utility.yul\":16407:16416   */\n      dup3\n        /* \"#utility.yul\":16403:16421   */\n      add\n        /* \"#utility.yul\":16395:16421   */\n      swap1\n      pop\n        /* \"#utility.yul\":16467:16476   */\n      dup2\n        /* \"#utility.yul\":16461:16465   */\n      dup2\n        /* \"#utility.yul\":16457:16477   */\n      sub\n        /* \"#utility.yul\":16453:16454   */\n      0x00\n        /* \"#utility.yul\":16442:16451   */\n      dup4\n        /* \"#utility.yul\":16438:16455   */\n      add\n        /* \"#utility.yul\":16431:16478   */\n      mstore\n        /* \"#utility.yul\":16495:16626   */\n      tag_576\n        /* \"#utility.yul\":16621:16625   */\n      dup2\n        /* \"#utility.yul\":16495:16626   */\n      tag_521\n      jump\t// in\n    tag_576:\n        /* \"#utility.yul\":16487:16626   */\n      swap1\n      pop\n        /* \"#utility.yul\":16214:16633   */\n      swap2\n      swap1\n      pop\n      jump\t// out\n        /* \"#utility.yul\":16639:17058   */\n    tag_238:\n        /* \"#utility.yul\":16805:16809   */\n      0x00\n        /* \"#utility.yul\":16843:16845   */\n      0x20\n        /* \"#utility.yul\":16832:16841   */\n      dup3\n        /* \"#utility.yul\":16828:16846   */\n      add\n        /* \"#utility.yul\":16820:16846   */\n      swap1\n      pop\n        /* \"#utility.yul\":16892:16901   */\n      dup2\n        /* \"#utility.yul\":16886:16890   */\n      dup2\n        /* \"#utility.yul\":16882:16902   */\n      sub\n        /* \"#utility.yul\":16878:16879   */\n      0x00\n        /* \"#utility.yul\":16867:16876   */\n      dup4\n        /* \"#utility.yul\":16863:16880   */\n      add\n        /* \"#utility.yul\":16856:16903   */\n      mstore\n        /* \"#utility.yul\":16920:17051   */\n      tag_578\n        /* \"#utility.yul\":17046:17050   */\n      dup2\n        /* \"#utility.yul\":16920:17051   */\n      tag_526\n      jump\t// in\n    tag_578:\n        /* \"#utility.yul\":16912:17051   */\n      swap1\n      pop\n        /* \"#utility.yul\":16639:17058   */\n      swap2\n      swap1\n      pop\n      jump\t// out\n        /* \"#utility.yul\":17064:17286   */\n    tag_49:\n        /* \"#utility.yul\":17157:17161   */\n      0x00\n        /* \"#utility.yul\":17195:17197   */\n      0x20\n        /* \"#utility.yul\":17184:17193   */\n      dup3\n        /* \"#utility.yul\":17180:17198   */\n      add\n        /* \"#utility.yul\":17172:17198   */\n      swap1\n      pop\n        /* \"#utility.yul\":17208:17279   */\n      tag_580\n        /* \"#utility.yul\":17276:17277   */\n      0x00\n        /* \"#utility.yul\":17265:17274   */\n      dup4\n        /* \"#utility.yul\":17261:17278   */\n      add\n        /* \"#utility.yul\":17252:17258   */\n      dup5\n        /* \"#utility.yul\":17208:17279   */\n      tag_531\n      jump\t// in\n    tag_580:\n        /* \"#utility.yul\":17064:17286   */\n      swap3\n      swap2\n      pop\n      pop\n      jump\t// out\n        /* \"#utility.yul\":17292:17421   */\n    tag_377:\n        /* \"#utility.yul\":17326:17332   */\n      0x00\n        /* \"#utility.yul\":17353:17373   */\n      tag_582\n      tag_583\n      jump\t// in\n    tag_582:\n        /* \"#utility.yul\":17343:17373   */\n      swap1\n      pop\n        /* \"#utility.yul\":17382:17415   */\n      tag_584\n        /* \"#utility.yul\":17410:17414   */\n      dup3\n        /* \"#utility.yul\":17402:17408   */\n      dup3\n        /* \"#utility.yul\":17382:17415   */\n      tag_585\n      jump\t// in\n    tag_584:\n        /* \"#utility.yul\":17292:17421   */\n      swap2\n      swap1\n      pop\n      jump\t// out\n        /* \"#utility.yul\":17427:17502   */\n    tag_583:\n        /* \"#utility.yul\":17460:17466   */\n      0x00\n        /* \"#utility.yul\":17493:17495   */\n      0x40\n        /* \"#utility.yul\":17487:17496   */\n      mload\n        /* \"#utility.yul\":17477:17496   */\n      swap1\n      pop\n        /* \"#utility.yul\":17427:17502   */\n      swap1\n      jump\t// out\n        /* \"#utility.yul\":17508:17815   */\n    tag_376:\n        /* \"#utility.yul\":17569:17573   */\n      0x00\n        /* \"#utility.yul\":17659:17677   */\n      0xffffffffffffffff\n        /* \"#utility.yul\":17651:17657   */\n      dup3\n        /* \"#utility.yul\":17648:17678   */\n      gt\n        /* \"#utility.yul\":17645:17701   */\n      iszero\n      tag_588\n      jumpi\n        /* \"#utility.yul\":17681:17699   */\n      tag_589\n      tag_590\n      jump\t// in\n    tag_589:\n        /* \"#utility.yul\":17645:17701   */\n    tag_588:\n        /* \"#utility.yul\":17719:17748   */\n      tag_591\n        /* \"#utility.yul\":17741:17747   */\n      dup3\n        /* \"#utility.yul\":17719:17748   */\n      tag_493\n      jump\t// in\n    tag_591:\n        /* \"#utility.yul\":17711:17748   */\n      swap1\n      pop\n        /* \"#utility.yul\":17803:17807   */\n      0x20\n        /* \"#utility.yul\":17797:17801   */\n      dup2\n        /* \"#utility.yul\":17793:17808   */\n      add\n        /* \"#utility.yul\":17785:17808   */\n      swap1\n      pop\n        /* \"#utility.yul\":17508:17815   */\n      swap2\n      swap1\n      pop\n      jump\t// out\n        /* \"#utility.yul\":17821:18129   */\n    tag_387:\n        /* \"#utility.yul\":17883:17887   */\n      0x00\n        /* \"#utility.yul\":17973:17991   */\n      0xffffffffffffffff\n        /* \"#utility.yul\":17965:17971   */\n      dup3\n        /* \"#utility.yul\":17962:17992   */\n      gt\n        /* \"#utility.yul\":17959:18015   */\n      iszero\n      tag_593\n      jumpi\n        /* \"#utility.yul\":17995:18013   */\n      tag_594\n      tag_590\n      jump\t// in\n    tag_594:\n        /* \"#utility.yul\":17959:18015   */\n    tag_593:\n        /* \"#utility.yul\":18033:18062   */\n      tag_595\n        /* \"#utility.yul\":18055:18061   */\n      dup3\n        /* \"#utility.yul\":18033:18062   */\n      tag_493\n      jump\t// in\n    tag_595:\n        /* \"#utility.yul\":18025:18062   */\n      swap1\n      pop\n        /* \"#utility.yul\":18117:18121   */\n      0x20\n        /* \"#utility.yul\":18111:18115   */\n      dup2\n        /* \"#utility.yul\":18107:18122   */\n      add\n        /* \"#utility.yul\":18099:18122   */\n      swap1\n      pop\n        /* \"#utility.yul\":17821:18129   */\n      swap2\n      swap1\n      pop\n      jump\t// out\n        /* \"#utility.yul\":18135:18276   */\n    tag_502:\n        /* \"#utility.yul\":18184:18188   */\n      0x00\n        /* \"#utility.yul\":18207:18210   */\n      dup2\n        /* \"#utility.yul\":18199:18210   */\n      swap1\n      pop\n        /* \"#utility.yul\":18230:18233   */\n      dup2\n        /* \"#utility.yul\":18227:18228   */\n      0x00\n        /* \"#utility.yul\":18220:18234   */\n      mstore\n        /* \"#utility.yul\":18264:18268   */\n      0x20\n        /* \"#utility.yul\":18261:18262   */\n      0x00\n        /* \"#utility.yul\":18251:18269   */\n      keccak256\n        /* \"#utility.yul\":18243:18269   */\n      swap1\n      pop\n        /* \"#utility.yul\":18135:18276   */\n      swap2\n      swap1\n      pop\n      jump\t// out\n        /* \"#utility.yul\":18282:18381   */\n    tag_487:\n        /* \"#utility.yul\":18334:18340   */\n      0x00\n        /* \"#utility.yul\":18368:18373   */\n      dup2\n        /* \"#utility.yul\":18362:18374   */\n      mload\n        /* \"#utility.yul\":18352:18374   */\n      swap1\n      pop\n        /* \"#utility.yul\":18282:18381   */\n      swap2\n      swap1\n      pop\n      jump\t// out\n        /* \"#utility.yul\":18387:18556   */\n    tag_489:\n        /* \"#utility.yul\":18471:18482   */\n      0x00\n        /* \"#utility.yul\":18505:18511   */\n      dup3\n        /* \"#utility.yul\":18500:18503   */\n      dup3\n        /* \"#utility.yul\":18493:18512   */\n      mstore\n        /* \"#utility.yul\":18545:18549   */\n      0x20\n        /* \"#utility.yul\":18540:18543   */\n      dup3\n        /* \"#utility.yul\":18536:18550   */\n      add\n        /* \"#utility.yul\":18521:18550   */\n      swap1\n      pop\n        /* \"#utility.yul\":18387:18556   */\n      swap3\n      swap2\n      pop\n      pop\n      jump\t// out\n        /* \"#utility.yul\":18562:18867   */\n    tag_158:\n        /* \"#utility.yul\":18602:18605   */\n      0x00\n        /* \"#utility.yul\":18621:18641   */\n      tag_600\n        /* \"#utility.yul\":18639:18640   */\n      dup3\n        /* \"#utility.yul\":18621:18641   */\n      tag_534\n      jump\t// in\n    tag_600:\n        /* \"#utility.yul\":18616:18641   */\n      swap2\n      pop\n        /* \"#utility.yul\":18655:18675   */\n      tag_601\n        /* \"#utility.yul\":18673:18674   */\n      dup4\n        /* \"#utility.yul\":18655:18675   */\n      tag_534\n      jump\t// in\n    tag_601:\n        /* \"#utility.yul\":18650:18675   */\n      swap3\n      pop\n        /* \"#utility.yul\":18809:18810   */\n      dup3\n        /* \"#utility.yul\":18741:18807   */\n      0xffffffffffffffffffffffffffffffffffffffffffffffffffffffffffffffff\n        /* \"#utility.yul\":18737:18811   */\n      sub\n        /* \"#utility.yul\":18734:18735   */\n      dup3\n        /* \"#utility.yul\":18731:18812   */\n      gt\n        /* \"#utility.yul\":18728:18835   */\n      iszero\n      tag_602\n      jumpi\n        /* \"#utility.yul\":18815:18833   */\n      tag_603\n      tag_604\n      jump\t// in\n    tag_603:\n        /* \"#utility.yul\":18728:18835   */\n    tag_602:\n        /* \"#utility.yul\":18859:18860   */\n      dup3\n        /* \"#utility.yul\":18856:18857   */\n      dup3\n        /* \"#utility.yul\":18852:18861   */\n      add\n        /* \"#utility.yul\":18845:18861   */\n      swap1\n      pop\n        /* \"#utility.yul\":18562:18867   */\n      swap3\n      swap2\n      pop\n      pop\n      jump\t// out\n        /* \"#utility.yul\":18873:19064   */\n    tag_166:\n        /* \"#utility.yul\":18913:18917   */\n      0x00\n        /* \"#utility.yul\":18933:18953   */\n      tag_606\n        /* \"#utility.yul\":18951:18952   */\n      dup3\n        /* \"#utility.yul\":18933:18953   */\n      tag_534\n      jump\t// in\n    tag_606:\n        /* \"#utility.yul\":18928:18953   */\n      swap2\n      pop\n        /* \"#utility.yul\":18967:18987   */\n      tag_607\n        /* \"#utility.yul\":18985:18986   */\n      dup4\n        /* \"#utility.yul\":18967:18987   */\n      tag_534\n      jump\t// in\n    tag_607:\n        /* \"#utility.yul\":18962:18987   */\n      swap3\n      pop\n        /* \"#utility.yul\":19006:19007   */\n      dup3\n        /* \"#utility.yul\":19003:19004   */\n      dup3\n        /* \"#utility.yul\":19000:19008   */\n      lt\n        /* \"#utility.yul\":18997:19031   */\n      iszero\n      tag_608\n      jumpi\n        /* \"#utility.yul\":19011:19029   */\n      tag_609\n      tag_604\n      jump\t// in\n    tag_609:\n        /* \"#utility.yul\":18997:19031   */\n    tag_608:\n        /* \"#utility.yul\":19056:19057   */\n      dup3\n        /* \"#utility.yul\":19053:19054   */\n      dup3\n        /* \"#utility.yul\":19049:19058   */\n      sub\n        /* \"#utility.yul\":19041:19058   */\n      swap1\n      pop\n        /* \"#utility.yul\":18873:19064   */\n      swap3\n      swap2\n      pop\n      pop\n      jump\t// out\n        /* \"#utility.yul\":19070:19166   */\n    tag_479:\n        /* \"#utility.yul\":19107:19114   */\n      0x00\n        /* \"#utility.yul\":19136:19160   */\n      tag_611\n        /* \"#utility.yul\":19154:19159   */\n      dup3\n        /* \"#utility.yul\":19136:19160   */\n      tag_612\n      jump\t// in\n    tag_611:\n        /* \"#utility.yul\":19125:19160   */\n      swap1\n      pop\n        /* \"#utility.yul\":19070:19166   */\n      swap2\n      swap1\n      pop\n      jump\t// out\n        /* \"#utility.yul\":19172:19262   */\n    tag_483:\n        /* \"#utility.yul\":19206:19213   */\n      0x00\n        /* \"#utility.yul\":19249:19254   */\n      dup2\n        /* \"#utility.yul\":19242:19255   */\n      iszero\n        /* \"#utility.yul\":19235:19256   */\n      iszero\n        /* \"#utility.yul\":19224:19256   */\n      swap1\n      pop\n        /* \"#utility.yul\":19172:19262   */\n      swap2\n      swap1\n      pop\n      jump\t// out\n        /* \"#utility.yul\":19268:19394   */\n    tag_612:\n        /* \"#utility.yul\":19305:19312   */\n      0x00\n        /* \"#utility.yul\":19345:19387   */\n      0xffffffffffffffffffffffffffffffffffffffff\n        /* \"#utility.yul\":19338:19343   */\n      dup3\n        /* \"#utility.yul\":19334:19388   */\n      and\n        /* \"#utility.yul\":19323:19388   */\n      swap1\n      pop\n        /* \"#utility.yul\":19268:19394   */\n      swap2\n      swap1\n      pop\n      jump\t// out\n        /* \"#utility.yul\":19400:19477   */\n    tag_534:\n        /* \"#utility.yul\":19437:19444   */\n      0x00\n        /* \"#utility.yul\":19466:19471   */\n      dup2\n        /* \"#utility.yul\":19455:19471   */\n      swap1\n      pop\n        /* \"#utility.yul\":19400:19477   */\n      swap2\n      swap1\n      pop\n      jump\t// out\n        /* \"#utility.yul\":19483:19576   */\n    tag_543:\n        /* \"#utility.yul\":19519:19526   */\n      0x00\n        /* \"#utility.yul\":19559:19569   */\n      0xffffffff\n        /* \"#utility.yul\":19552:19557   */\n      dup3\n        /* \"#utility.yul\":19548:19570   */\n      and\n        /* \"#utility.yul\":19537:19570   */\n      swap1\n      pop\n        /* \"#utility.yul\":19483:19576   */\n      swap2\n      swap1\n      pop\n      jump\t// out\n        /* \"#utility.yul\":19582:19736   */\n    tag_382:\n        /* \"#utility.yul\":19666:19672   */\n      dup3\n        /* \"#utility.yul\":19661:19664   */\n      dup2\n        /* \"#utility.yul\":19656:19659   */\n      dup4\n        /* \"#utility.yul\":19643:19673   */\n      calldatacopy\n        /* \"#utility.yul\":19728:19729   */\n      0x00\n        /* \"#utility.yul\":19719:19725   */\n      dup4\n        /* \"#utility.yul\":19714:19717   */\n      dup4\n        /* \"#utility.yul\":19710:19726   */\n      add\n        /* \"#utility.yul\":19703:19730   */\n      mstore\n        /* \"#utility.yul\":19582:19736   */\n      pop\n      pop\n      pop\n      jump\t// out\n        /* \"#utility.yul\":19742:20049   */\n    tag_491:\n        /* \"#utility.yul\":19810:19811   */\n      0x00\n        /* \"#utility.yul\":19820:19933   */\n    tag_619:\n        /* \"#utility.yul\":19834:19840   */\n      dup4\n        /* \"#utility.yul\":19831:19832   */\n      dup2\n        /* \"#utility.yul\":19828:19841   */\n      lt\n        /* \"#utility.yul\":19820:19933   */\n      iszero\n      tag_621\n      jumpi\n        /* \"#utility.yul\":19919:19920   */\n      dup1\n        /* \"#utility.yul\":19914:19917   */\n      dup3\n        /* \"#utility.yul\":19910:19921   */\n      add\n        /* \"#utility.yul\":19904:19922   */\n      mload\n        /* \"#utility.yul\":19900:19901   */\n      dup2\n        /* \"#utility.yul\":19895:19898   */\n      dup5\n        /* \"#utility.yul\":19891:19902   */\n      add\n        /* \"#utility.yul\":19884:19923   */\n      mstore\n        /* \"#utility.yul\":19856:19858   */\n      0x20\n        /* \"#utility.yul\":19853:19854   */\n      dup2\n        /* \"#utility.yul\":19849:19859   */\n      add\n        /* \"#utility.yul\":19844:19859   */\n      swap1\n      pop\n        /* \"#utility.yul\":19820:19933   */\n      jump(tag_619)\n    tag_621:\n        /* \"#utility.yul\":19951:19957   */\n      dup4\n        /* \"#utility.yul\":19948:19949   */\n      dup2\n        /* \"#utility.yul\":19945:19958   */\n      gt\n        /* \"#utility.yul\":19942:20043   */\n      iszero\n      tag_622\n      jumpi\n        /* \"#utility.yul\":20031:20032   */\n      0x00\n        /* \"#utility.yul\":20022:20028   */\n      dup5\n        /* \"#utility.yul\":20017:20020   */\n      dup5\n        /* \"#utility.yul\":20013:20029   */\n      add\n        /* \"#utility.yul\":20006:20033   */\n      mstore\n        /* \"#utility.yul\":19942:20043   */\n    tag_622:\n        /* \"#utility.yul\":19791:20049   */\n      pop\n        /* \"#utility.yul\":19742:20049   */\n      pop\n      pop\n      pop\n      jump\t// out\n        /* \"#utility.yul\":20055:20375   */\n    tag_302:\n        /* \"#utility.yul\":20099:20105   */\n      0x00\n        /* \"#utility.yul\":20136:20137   */\n      0x02\n        /* \"#utility.yul\":20130:20134   */\n      dup3\n        /* \"#utility.yul\":20126:20138   */\n      div\n        /* \"#utility.yul\":20116:20138   */\n      swap1\n      pop\n        /* \"#utility.yul\":20183:20184   */\n      0x01\n        /* \"#utility.yul\":20177:20181   */\n      dup3\n        /* \"#utility.yul\":20173:20185   */\n      and\n        /* \"#utility.yul\":20204:20222   */\n      dup1\n        /* \"#utility.yul\":20194:20275   */\n      tag_624\n      jumpi\n        /* \"#utility.yul\":20260:20264   */\n      0x7f\n        /* \"#utility.yul\":20252:20258   */\n      dup3\n        /* \"#utility.yul\":20248:20265   */\n      and\n        /* \"#utility.yul\":20238:20265   */\n      swap2\n      pop\n        /* \"#utility.yul\":20194:20275   */\n    tag_624:\n        /* \"#utility.yul\":20322:20324   */\n      0x20\n        /* \"#utility.yul\":20314:20320   */\n      dup3\n        /* \"#utility.yul\":20311:20325   */\n      lt\n        /* \"#utility.yul\":20291:20309   */\n      dup2\n        /* \"#utility.yul\":20288:20326   */\n      eq\n        /* \"#utility.yul\":20285:20369   */\n      iszero\n      tag_625\n      jumpi\n        /* \"#utility.yul\":20341:20359   */\n      tag_626\n      tag_627\n      jump\t// in\n    tag_626:\n        /* \"#utility.yul\":20285:20369   */\n    tag_625:\n        /* \"#utility.yul\":20106:20375   */\n      pop\n        /* \"#utility.yul\":20055:20375   */\n      swap2\n      swap1\n      pop\n      jump\t// out\n        /* \"#utility.yul\":20381:20662   */\n    tag_585:\n        /* \"#utility.yul\":20464:20491   */\n      tag_629\n        /* \"#utility.yul\":20486:20490   */\n      dup3\n        /* \"#utility.yul\":20464:20491   */\n      tag_493\n      jump\t// in\n    tag_629:\n        /* \"#utility.yul\":20456:20462   */\n      dup2\n        /* \"#utility.yul\":20452:20492   */\n      add\n        /* \"#utility.yul\":20594:20600   */\n      dup2\n        /* \"#utility.yul\":20582:20592   */\n      dup2\n        /* \"#utility.yul\":20579:20601   */\n      lt\n        /* \"#utility.yul\":20558:20576   */\n      0xffffffffffffffff\n        /* \"#utility.yul\":20546:20556   */\n      dup3\n        /* \"#utility.yul\":20543:20577   */\n      gt\n        /* \"#utility.yul\":20540:20602   */\n      or\n        /* \"#utility.yul\":20537:20625   */\n      iszero\n      tag_630\n      jumpi\n        /* \"#utility.yul\":20605:20623   */\n      tag_631\n      tag_590\n      jump\t// in\n    tag_631:\n        /* \"#utility.yul\":20537:20625   */\n    tag_630:\n        /* \"#utility.yul\":20645:20655   */\n      dup1\n        /* \"#utility.yul\":20641:20643   */\n      0x40\n        /* \"#utility.yul\":20634:20656   */\n      mstore\n        /* \"#utility.yul\":20424:20662   */\n      pop\n        /* \"#utility.yul\":20381:20662   */\n      pop\n      pop\n      jump\t// out\n        /* \"#utility.yul\":20668:20901   */\n    tag_148:\n        /* \"#utility.yul\":20707:20710   */\n      0x00\n        /* \"#utility.yul\":20730:20754   */\n      tag_633\n        /* \"#utility.yul\":20748:20753   */\n      dup3\n        /* \"#utility.yul\":20730:20754   */\n      tag_534\n      jump\t// in\n    tag_633:\n        /* \"#utility.yul\":20721:20754   */\n      swap2\n      pop\n        /* \"#utility.yul\":20776:20842   */\n      0xffffffffffffffffffffffffffffffffffffffffffffffffffffffffffffffff\n        /* \"#utility.yul\":20769:20774   */\n      dup3\n        /* \"#utility.yul\":20766:20843   */\n      eq\n        /* \"#utility.yul\":20763:20866   */\n      iszero\n      tag_634\n      jumpi\n        /* \"#utility.yul\":20846:20864   */\n      tag_635\n      tag_604\n      jump\t// in\n    tag_635:\n        /* \"#utility.yul\":20763:20866   */\n    tag_634:\n        /* \"#utility.yul\":20893:20894   */\n      0x01\n        /* \"#utility.yul\":20886:20891   */\n      dup3\n        /* \"#utility.yul\":20882:20895   */\n      add\n        /* \"#utility.yul\":20875:20895   */\n      swap1\n      pop\n        /* \"#utility.yul\":20668:20901   */\n      swap2\n      swap1\n      pop\n      jump\t// out\n        /* \"#utility.yul\":20907:21082   */\n    tag_182:\n        /* \"#utility.yul\":20945:20948   */\n      0x00\n        /* \"#utility.yul\":20968:20991   */\n      tag_637\n        /* \"#utility.yul\":20985:20990   */\n      dup3\n        /* \"#utility.yul\":20968:20991   */\n      tag_543\n      jump\t// in\n    tag_637:\n        /* \"#utility.yul\":20959:20991   */\n      swap2\n      pop\n        /* \"#utility.yul\":21013:21023   */\n      0xffffffff\n        /* \"#utility.yul\":21006:21011   */\n      dup3\n        /* \"#utility.yul\":21003:21024   */\n      eq\n        /* \"#utility.yul\":21000:21047   */\n      iszero\n      tag_638\n      jumpi\n        /* \"#utility.yul\":21027:21045   */\n      tag_639\n      tag_604\n      jump\t// in\n    tag_639:\n        /* \"#utility.yul\":21000:21047   */\n    tag_638:\n        /* \"#utility.yul\":21074:21075   */\n      0x01\n        /* \"#utility.yul\":21067:21072   */\n      dup3\n        /* \"#utility.yul\":21063:21076   */\n      add\n        /* \"#utility.yul\":21056:21076   */\n      swap1\n      pop\n        /* \"#utility.yul\":20907:21082   */\n      swap2\n      swap1\n      pop\n      jump\t// out\n        /* \"#utility.yul\":21088:21167   */\n    tag_539:\n        /* \"#utility.yul\":21127:21134   */\n      0x00\n        /* \"#utility.yul\":21156:21161   */\n      dup2\n        /* \"#utility.yul\":21145:21161   */\n      swap1\n      pop\n        /* \"#utility.yul\":21088:21167   */\n      swap2\n      swap1\n      pop\n      jump\t// out\n        /* \"#utility.yul\":21173:21349   */\n    tag_194:\n        /* \"#utility.yul\":21205:21206   */\n      0x00\n        /* \"#utility.yul\":21222:21242   */\n      tag_642\n        /* \"#utility.yul\":21240:21241   */\n      dup3\n        /* \"#utility.yul\":21222:21242   */\n      tag_534\n      jump\t// in\n    tag_642:\n        /* \"#utility.yul\":21217:21242   */\n      swap2\n      pop\n        /* \"#utility.yul\":21256:21276   */\n      tag_643\n        /* \"#utility.yul\":21274:21275   */\n      dup4\n        /* \"#utility.yul\":21256:21276   */\n      tag_534\n      jump\t// in\n    tag_643:\n        /* \"#utility.yul\":21251:21276   */\n      swap3\n      pop\n        /* \"#utility.yul\":21295:21296   */\n      dup3\n        /* \"#utility.yul\":21285:21320   */\n      tag_644\n      jumpi\n        /* \"#utility.yul\":21300:21318   */\n      tag_645\n      tag_646\n      jump\t// in\n    tag_645:\n        /* \"#utility.yul\":21285:21320   */\n    tag_644:\n        /* \"#utility.yul\":21341:21342   */\n      dup3\n        /* \"#utility.yul\":21338:21339   */\n      dup3\n        /* \"#utility.yul\":21334:21343   */\n      mod\n        /* \"#utility.yul\":21329:21343   */\n      swap1\n      pop\n        /* \"#utility.yul\":21173:21349   */\n      swap3\n      swap2\n      pop\n      pop\n      jump\t// out\n        /* \"#utility.yul\":21355:21535   */\n    tag_604:\n        /* \"#utility.yul\":21403:21480   */\n      0x4e487b7100000000000000000000000000000000000000000000000000000000\n        /* \"#utility.yul\":21400:21401   */\n      0x00\n        /* \"#utility.yul\":21393:21481   */\n      mstore\n        /* \"#utility.yul\":21500:21504   */\n      0x11\n        /* \"#utility.yul\":21497:21498   */\n      0x04\n        /* \"#utility.yul\":21490:21505   */\n      mstore\n        /* \"#utility.yul\":21524:21528   */\n      0x24\n        /* \"#utility.yul\":21521:21522   */\n      0x00\n        /* \"#utility.yul\":21514:21529   */\n      revert\n        /* \"#utility.yul\":21541:21721   */\n    tag_646:\n        /* \"#utility.yul\":21589:21666   */\n      0x4e487b7100000000000000000000000000000000000000000000000000000000\n        /* \"#utility.yul\":21586:21587   */\n      0x00\n        /* \"#utility.yul\":21579:21667   */\n      mstore\n        /* \"#utility.yul\":21686:21690   */\n      0x12\n        /* \"#utility.yul\":21683:21684   */\n      0x04\n        /* \"#utility.yul\":21676:21691   */\n      mstore\n        /* \"#utility.yul\":21710:21714   */\n      0x24\n        /* \"#utility.yul\":21707:21708   */\n      0x00\n        /* \"#utility.yul\":21700:21715   */\n      revert\n        /* \"#utility.yul\":21727:21907   */\n    tag_627:\n        /* \"#utility.yul\":21775:21852   */\n      0x4e487b7100000000000000000000000000000000000000000000000000000000\n        /* \"#utility.yul\":21772:21773   */\n      0x00\n        /* \"#utility.yul\":21765:21853   */\n      mstore\n        /* \"#utility.yul\":21872:21876   */\n      0x22\n        /* \"#utility.yul\":21869:21870   */\n      0x04\n        /* \"#utility.yul\":21862:21877   */\n      mstore\n        /* \"#utility.yul\":21896:21900   */\n      0x24\n        /* \"#utility.yul\":21893:21894   */\n      0x00\n        /* \"#utility.yul\":21886:21901   */\n      revert\n        /* \"#utility.yul\":21913:22093   */\n    tag_135:\n        /* \"#utility.yul\":21961:22038   */\n      0x4e487b7100000000000000000000000000000000000000000000000000000000\n        /* \"#utility.yul\":21958:21959   */\n      0x00\n        /* \"#utility.yul\":21951:22039   */\n      mstore\n        /* \"#utility.yul\":22058:22062   */\n      0x32\n        /* \"#utility.yul\":22055:22056   */\n      0x04\n        /* \"#utility.yul\":22048:22063   */\n      mstore\n        /* \"#utility.yul\":22082:22086   */\n      0x24\n        /* \"#utility.yul\":22079:22080   */\n      0x00\n        /* \"#utility.yul\":22072:22087   */\n      revert\n        /* \"#utility.yul\":22099:22279   */\n    tag_590:\n        /* \"#utility.yul\":22147:22224   */\n      0x4e487b7100000000000000000000000000000000000000000000000000000000\n        /* \"#utility.yul\":22144:22145   */\n      0x00\n        /* \"#utility.yul\":22137:22225   */\n      mstore\n        /* \"#utility.yul\":22244:22248   */\n      0x41\n        /* \"#utility.yul\":22241:22242   */\n      0x04\n        /* \"#utility.yul\":22234:22249   */\n      mstore\n        /* \"#utility.yul\":22268:22272   */\n      0x24\n        /* \"#utility.yul\":22265:22266   */\n      0x00\n        /* \"#utility.yul\":22258:22273   */\n      revert\n        /* \"#utility.yul\":22285:22402   */\n    tag_403:\n        /* \"#utility.yul\":22394:22395   */\n      0x00\n        /* \"#utility.yul\":22391:22392   */\n      dup1\n        /* \"#utility.yul\":22384:22396   */\n      revert\n        /* \"#utility.yul\":22408:22525   */\n    tag_380:\n        /* \"#utility.yul\":22517:22518   */\n      0x00\n        /* \"#utility.yul\":22514:22515   */\n      dup1\n        /* \"#utility.yul\":22507:22519   */\n      revert\n        /* \"#utility.yul\":22531:22648   */\n    tag_438:\n        /* \"#utility.yul\":22640:22641   */\n      0x00\n        /* \"#utility.yul\":22637:22638   */\n      dup1\n        /* \"#utility.yul\":22630:22642   */\n      revert\n        /* \"#utility.yul\":22654:22771   */\n    tag_417:\n        /* \"#utility.yul\":22763:22764   */\n      0x00\n        /* \"#utility.yul\":22760:22761   */\n      dup1\n        /* \"#utility.yul\":22753:22765   */\n      revert\n        /* \"#utility.yul\":22777:22879   */\n    tag_493:\n        /* \"#utility.yul\":22818:22824   */\n      0x00\n        /* \"#utility.yul\":22869:22871   */\n      0x1f\n        /* \"#utility.yul\":22865:22872   */\n      not\n        /* \"#utility.yul\":22860:22862   */\n      0x1f\n        /* \"#utility.yul\":22853:22858   */\n      dup4\n        /* \"#utility.yul\":22849:22863   */\n      add\n        /* \"#utility.yul\":22845:22873   */\n      and\n        /* \"#utility.yul\":22835:22873   */\n      swap1\n      pop\n        /* \"#utility.yul\":22777:22879   */\n      swap2\n      swap1\n      pop\n      jump\t// out\n        /* \"#utility.yul\":22885:23112   */\n    tag_510:\n        /* \"#utility.yul\":23025:23059   */\n      0x536f6c6f2073652070756564652074656e657220756e20636f63686520706f72\n        /* \"#utility.yul\":23021:23022   */\n      0x00\n        /* \"#utility.yul\":23013:23019   */\n      dup3\n        /* \"#utility.yul\":23009:23023   */\n      add\n        /* \"#utility.yul\":23002:23060   */\n      mstore\n        /* \"#utility.yul\":23094:23104   */\n      0x20706572736f6e61000000000000000000000000000000000000000000000000\n        /* \"#utility.yul\":23089:23091   */\n      0x20\n        /* \"#utility.yul\":23081:23087   */\n      dup3\n        /* \"#utility.yul\":23077:23092   */\n      add\n        /* \"#utility.yul\":23070:23105   */\n      mstore\n        /* \"#utility.yul\":22885:23112   */\n      pop\n      jump\t// out\n        /* \"#utility.yul\":23118:23343   */\n    tag_515:\n        /* \"#utility.yul\":23258:23292   */\n      0x4f776e61626c653a206e6577206f776e657220697320746865207a65726f2061\n        /* \"#utility.yul\":23254:23255   */\n      0x00\n        /* \"#utility.yul\":23246:23252   */\n      dup3\n        /* \"#utility.yul\":23242:23256   */\n      add\n        /* \"#utility.yul\":23235:23293   */\n      mstore\n        /* \"#utility.yul\":23327:23335   */\n      0x6464726573730000000000000000000000000000000000000000000000000000\n        /* \"#utility.yul\":23322:23324   */\n      0x20\n        /* \"#utility.yul\":23314:23320   */\n      dup3\n        /* \"#utility.yul\":23310:23325   */\n      add\n        /* \"#utility.yul\":23303:23336   */\n      mstore\n        /* \"#utility.yul\":23118:23343   */\n      pop\n      jump\t// out\n        /* \"#utility.yul\":23349:23586   */\n    tag_520:\n        /* \"#utility.yul\":23489:23523   */\n      0x4e6f2068617920636f6368657320737566696369656e74657320706172612069\n        /* \"#utility.yul\":23485:23486   */\n      0x00\n        /* \"#utility.yul\":23477:23483   */\n      dup3\n        /* \"#utility.yul\":23473:23487   */\n      add\n        /* \"#utility.yul\":23466:23524   */\n      mstore\n        /* \"#utility.yul\":23558:23578   */\n      0x6e696369617220756e6120636172726572610000000000000000000000000000\n        /* \"#utility.yul\":23553:23555   */\n      0x20\n        /* \"#utility.yul\":23545:23551   */\n      dup3\n        /* \"#utility.yul\":23541:23556   */\n      add\n        /* \"#utility.yul\":23534:23579   */\n      mstore\n        /* \"#utility.yul\":23349:23586   */\n      pop\n      jump\t// out\n        /* \"#utility.yul\":23592:23774   */\n    tag_525:\n        /* \"#utility.yul\":23732:23766   */\n      0x4f776e61626c653a2063616c6c6572206973206e6f7420746865206f776e6572\n        /* \"#utility.yul\":23728:23729   */\n      0x00\n        /* \"#utility.yul\":23720:23726   */\n      dup3\n        /* \"#utility.yul\":23716:23730   */\n      add\n        /* \"#utility.yul\":23709:23767   */\n      mstore\n        /* \"#utility.yul\":23592:23774   */\n      pop\n      jump\t// out\n        /* \"#utility.yul\":23780:23951   */\n    tag_530:\n        /* \"#utility.yul\":23920:23943   */\n      0x456c20636f6368652067616e61646f722065733a200000000000000000000000\n        /* \"#utility.yul\":23916:23917   */\n      0x00\n        /* \"#utility.yul\":23908:23914   */\n      dup3\n        /* \"#utility.yul\":23904:23918   */\n      add\n        /* \"#utility.yul\":23897:23944   */\n      mstore\n        /* \"#utility.yul\":23780:23951   */\n      pop\n      jump\t// out\n        /* \"#utility.yul\":23957:24079   */\n    tag_394:\n        /* \"#utility.yul\":24030:24054   */\n      tag_663\n        /* \"#utility.yul\":24048:24053   */\n      dup2\n        /* \"#utility.yul\":24030:24054   */\n      tag_479\n      jump\t// in\n    tag_663:\n        /* \"#utility.yul\":24023:24028   */\n      dup2\n        /* \"#utility.yul\":24020:24055   */\n      eq\n        /* \"#utility.yul\":24010:24073   */\n      tag_664\n      jumpi\n        /* \"#utility.yul\":24069:24070   */\n      0x00\n        /* \"#utility.yul\":24066:24067   */\n      dup1\n        /* \"#utility.yul\":24059:24071   */\n      revert\n        /* \"#utility.yul\":24010:24073   */\n    tag_664:\n        /* \"#utility.yul\":23957:24079   */\n      pop\n      jump\t// out\n        /* \"#utility.yul\":24085:24201   */\n    tag_398:\n        /* \"#utility.yul\":24155:24176   */\n      tag_666\n        /* \"#utility.yul\":24170:24175   */\n      dup2\n        /* \"#utility.yul\":24155:24176   */\n      tag_483\n      jump\t// in\n    tag_666:\n        /* \"#utility.yul\":24148:24153   */\n      dup2\n        /* \"#utility.yul\":24145:24177   */\n      eq\n        /* \"#utility.yul\":24135:24195   */\n      tag_667\n      jumpi\n        /* \"#utility.yul\":24191:24192   */\n      0x00\n        /* \"#utility.yul\":24188:24189   */\n      dup1\n        /* \"#utility.yul\":24181:24193   */\n      revert\n        /* \"#utility.yul\":24135:24195   */\n    tag_667:\n        /* \"#utility.yul\":24085:24201   */\n      pop\n      jump\t// out\n        /* \"#utility.yul\":24207:24329   */\n    tag_413:\n        /* \"#utility.yul\":24280:24304   */\n      tag_669\n        /* \"#utility.yul\":24298:24303   */\n      dup2\n        /* \"#utility.yul\":24280:24304   */\n      tag_534\n      jump\t// in\n    tag_669:\n        /* \"#utility.yul\":24273:24278   */\n      dup2\n        /* \"#utility.yul\":24270:24305   */\n      eq\n        /* \"#utility.yul\":24260:24323   */\n      tag_670\n      jumpi\n        /* \"#utility.yul\":24319:24320   */\n      0x00\n        /* \"#utility.yul\":24316:24317   */\n      dup1\n        /* \"#utility.yul\":24309:24321   */\n      revert\n        /* \"#utility.yul\":24260:24323   */\n    tag_670:\n        /* \"#utility.yul\":24207:24329   */\n      pop\n      jump\t// out\n\n    auxdata: 0xa264697066735822122011e60e4daceecc04c48581270ad8cfbd5f78559ecec8d89925ccfacf62d133df64736f6c63430008070033\n}\n",
				"bytecode": {
					"linkReferences": {},
					"object": "608060405260006001556000600255603c600355670de0b6b3a7640000600455670de0b6b3a76400006005553480156200003857600080fd5b50620000596200004d6200005f60201b60201c565b6200006760201b60201c565b6200012b565b600033905090565b60008060009054906101000a900473ffffffffffffffffffffffffffffffffffffffff169050816000806101000a81548173ffffffffffffffffffffffffffffffffffffffff021916908373ffffffffffffffffffffffffffffffffffffffff1602179055508173ffffffffffffffffffffffffffffffffffffffff168173ffffffffffffffffffffffffffffffffffffffff167f8be0079c531659141344cd1fd0a4f28419497f9722a3daafe3b4186f6b6457e060405160405180910390a35050565b6129cd806200013b6000396000f3fe60806040526004361061012a5760003560e01c806370a08231116100ab578063b2bdfa7b1161006f578063b2bdfa7b146103ec578063b88d4fde14610417578063d735573d14610433578063e172fca814610477578063e985e9c5146104a0578063f2fde38b146104dd5761012a565b806370a0823114610307578063715018a614610344578063858b05541461035b5780638da5cb5b14610398578063a22cb465146103c35761012a565b80632458c544116100f25780632458c5441461021157806342842e0e1461024e5780636352211e1461026a5780636a7d1816146102a75780636b6f0494146102d75761012a565b8063049a5f651461012f578063081812fc1461015f578063095ea7b31461019c5780631c6743e4146101b857806323b872dd146101f5575b600080fd5b61014960048036038101906101449190611e75565b610506565b60405161015691906122d5565b60405180910390f35b34801561016b57600080fd5b5061018660048036038101906101819190611fe7565b610667565b604051610193919061220c565b60405180910390f35b6101b660048036038101906101b19190611f00565b61066e565b005b3480156101c457600080fd5b506101df60048036038101906101da9190611cf2565b610672565b6040516101ec91906123f8565b60405180910390f35b61020f600480360381019061020a9190611d5f565b61068a565b005b34801561021d57600080fd5b5061023860048036038101906102339190611f40565b61068f565b60405161024591906123f8565b60405180910390f35b61026860048036038101906102639190611d5f565b610971565b005b34801561027657600080fd5b50610291600480360381019061028c9190611fe7565b610976565b60405161029e919061220c565b60405180910390f35b6102c160048036038101906102bc9190611cf2565b61097d565b6040516102ce91906122d5565b60405180910390f35b6102f160048036038101906102ec9190611fe7565b610ad2565b6040516102fe91906122d5565b60405180910390f35b34801561031357600080fd5b5061032e60048036038101906103299190611cf2565b6113da565b60405161033b91906123f8565b60405180910390f35b34801561035057600080fd5b50610359611423565b005b34801561036757600080fd5b50610382600480360381019061037d9190611fe7565b6114ab565b60405161038f919061220c565b60405180910390f35b3480156103a457600080fd5b506103ad6114de565b6040516103ba919061220c565b60405180910390f35b3480156103cf57600080fd5b506103ea60048036038101906103e59190611e35565b611507565b005b3480156103f857600080fd5b5061040161150b565b60405161040e919061220c565b60405180910390f35b610431600480360381019061042c9190611db2565b61152f565b005b34801561043f57600080fd5b5061045a60048036038101906104559190611fe7565b611535565b60405161046e989796959493929190612227565b60405180910390f35b34801561048357600080fd5b5061049e60048036038101906104999190611cf2565b611755565b005b3480156104ac57600080fd5b506104c760048036038101906104c29190611d1f565b6118fc565b6040516104d491906122ba565b60405180910390f35b3480156104e957600080fd5b5061050460048036038101906104ff9190611cf2565b611904565b005b60608373ffffffffffffffffffffffffffffffffffffffff163373ffffffffffffffffffffffffffffffffffffffff161461054057600080fd5b600554341461054e57600080fd5b60005b60068054905081101561065f573373ffffffffffffffffffffffffffffffffffffffff166006828154811061058957610588612790565b5b906000526020600020906008020160000160009054906101000a900473ffffffffffffffffffffffffffffffffffffffff1673ffffffffffffffffffffffffffffffffffffffff16141561064c5783600682815481106105ec576105eb612790565b5b90600052602060002090600802016001019080519060200190610610929190611b30565b50826006828154811061062657610625612790565b5b9060005260206000209060080201600201908051906020019061064a929190611b30565b505b808061065790612652565b915050610551565b509392505050565b6000919050565b5050565b60086020528060005260406000206000915090505481565b505050565b60006001600860003373ffffffffffffffffffffffffffffffffffffffff1673ffffffffffffffffffffffffffffffffffffffff1681526020019081526020016000205410610713576040517f08c379a000000000000000000000000000000000000000000000000000000000815260040161070a90612358565b60405180910390fd5b60066040518061010001604052803373ffffffffffffffffffffffffffffffffffffffff16815260200186815260200185815260200184815260200160008152602001600081526020016003544261076b91906124cb565b63ffffffff168152602001600163ffffffff16815250908060018154018082558091505060019003906000526020600020906008020160009091909190915060008201518160000160006101000a81548173ffffffffffffffffffffffffffffffffffffffff021916908373ffffffffffffffffffffffffffffffffffffffff160217905550602082015181600101908051906020019061080d929190611b30565b50604082015181600201908051906020019061082a929190611b30565b506060820151816003019080519060200190610847929190611b30565b506080820151816004015560a0820151816005015560c0820151816006015560e08201518160070160006101000a81548163ffffffff021916908363ffffffff160217905550505060006006805490509050336007600083815260200190815260200160002060006101000a81548173ffffffffffffffffffffffffffffffffffffffff021916908373ffffffffffffffffffffffffffffffffffffffff160217905550600860003373ffffffffffffffffffffffffffffffffffffffff1673ffffffffffffffffffffffffffffffffffffffff168152602001908152602001600020600081548092919061093b90612652565b91905055506002600081548092919061095390612652565b919050555060016002546109679190612521565b9150509392505050565b505050565b6000919050565b6060600454341461098d57600080fd5b60005b600680549050811015610acb578273ffffffffffffffffffffffffffffffffffffffff16600682815481106109c8576109c7612790565b5b906000526020600020906008020160000160009054906101000a900473ffffffffffffffffffffffffffffffffffffffff1673ffffffffffffffffffffffffffffffffffffffff161415610ab85760068181548110610a2a57610a29612790565b5b9060005260206000209060080201600701600081819054906101000a900463ffffffff1680929190610a5b9061269b565b91906101000a81548163ffffffff021916908363ffffffff160217905550506040518060400160405280601281526020017f48612073756269646f206465206e6976656c0000000000000000000000000000815250915050610acd565b8080610ac390612652565b915050610990565b505b919050565b6060600160068054905011610b1b577f6158fc8f21c8cc73ddf920956cc75d0e8a48b4fc85817a0ba89eb3b6d2a75441604051610b0e90612398565b60405180910390a16113d4565b813414610b2757600080fd5b60016000815480929190610b3a90612652565b9190505550600060068054905042600680549050600154604051602001610b63939291906121cf565b6040516020818303038152906040528051906020012060001c610b8691906126d2565b905060006007600083815260200190815260200160002060009054906101000a900473ffffffffffffffffffffffffffffffffffffffff16905060016000815480929190610bd390612652565b91905055506000606490506000814283600154604051602001610bf8939291906121cf565b6040516020818303038152906040528051906020012060001c610c1b91906126d2565b905060005b6006805490508110156113ce5760068181548110610c4157610c40612790565b5b906000526020600020906008020160000160009054906101000a900473ffffffffffffffffffffffffffffffffffffffff1673ffffffffffffffffffffffffffffffffffffffff163373ffffffffffffffffffffffffffffffffffffffff1614156113bb5760068181548110610cba57610cb9612790565b5b90600052602060002090600802016005016000815480929190610cdc90612652565b919050555060068581548110610cf557610cf4612790565b5b90600052602060002090600802016005016000815480929190610d1790612652565b9190505550610d4660068281548110610d3357610d32612790565b5b90600052602060002090600802016119fc565b60068181548110610d5a57610d59612790565b5b906000526020600020906008020160070160009054906101000a900463ffffffff1663ffffffff1660068681548110610d9657610d95612790565b5b906000526020600020906008020160070160009054906101000a900463ffffffff1663ffffffff161015610f9757603c8211610eb557610dd4611a1b565b60068181548110610de857610de7612790565b5b90600052602060002090600802016004016000815480929190610e0a90612652565b919050555060068181548110610e2357610e22612790565b5b9060005260206000209060080201600701600081819054906101000a900463ffffffff1680929190610e549061269b565b91906101000a81548163ffffffff021916908363ffffffff160217905550506040518060400160405280600a81526020017f4861732067616e61646f00000000000000000000000000000000000000000000815250955050505050506113d5565b7f6158fc8f21c8cc73ddf920956cc75d0e8a48b4fc85817a0ba89eb3b6d2a75441604051610ee2906123d8565b60405180910390a13073ffffffffffffffffffffffffffffffffffffffff1663e172fca8856040518263ffffffff1660e01b8152600401610f23919061220c565b600060405180830381600087803b158015610f3d57600080fd5b505af1158015610f51573d6000803e3d6000fd5b505050506040518060400160405280600b81526020017f486173207065726469646f000000000000000000000000000000000000000000815250955050505050506113d5565b60068181548110610fab57610faa612790565b5b906000526020600020906008020160070160009054906101000a900463ffffffff1663ffffffff1660068681548110610fe757610fe6612790565b5b906000526020600020906008020160070160009054906101000a900463ffffffff1663ffffffff1614156111e8576032821161110657611025611a1b565b6006818154811061103957611038612790565b5b9060005260206000209060080201600401600081548092919061105b90612652565b91905055506006818154811061107457611073612790565b5b9060005260206000209060080201600701600081819054906101000a900463ffffffff16809291906110a59061269b565b91906101000a81548163ffffffff021916908363ffffffff160217905550506040518060400160405280600a81526020017f4861732067616e61646f00000000000000000000000000000000000000000000815250955050505050506113d5565b7f6158fc8f21c8cc73ddf920956cc75d0e8a48b4fc85817a0ba89eb3b6d2a75441604051611133906123d8565b60405180910390a13073ffffffffffffffffffffffffffffffffffffffff1663e172fca8856040518263ffffffff1660e01b8152600401611174919061220c565b600060405180830381600087803b15801561118e57600080fd5b505af11580156111a2573d6000803e3d6000fd5b505050506040518060400160405280600b81526020017f486173207065726469646f000000000000000000000000000000000000000000815250955050505050506113d5565b602882116112d9576111f8611a1b565b6006818154811061120c5761120b612790565b5b9060005260206000209060080201600401600081548092919061122e90612652565b91905055506006818154811061124757611246612790565b5b9060005260206000209060080201600701600081819054906101000a900463ffffffff16809291906112789061269b565b91906101000a81548163ffffffff021916908363ffffffff160217905550506040518060400160405280600a81526020017f4861732067616e61646f00000000000000000000000000000000000000000000815250955050505050506113d5565b7f6158fc8f21c8cc73ddf920956cc75d0e8a48b4fc85817a0ba89eb3b6d2a75441604051611306906123d8565b60405180910390a13073ffffffffffffffffffffffffffffffffffffffff1663e172fca8856040518263ffffffff1660e01b8152600401611347919061220c565b600060405180830381600087803b15801561136157600080fd5b505af1158015611375573d6000803e3d6000fd5b505050506040518060400160405280600b81526020017f486173207065726469646f000000000000000000000000000000000000000000815250955050505050506113d5565b80806113c690612652565b915050610c20565b50505050505b5b919050565b6000600860008373ffffffffffffffffffffffffffffffffffffffff1673ffffffffffffffffffffffffffffffffffffffff168152602001908152602001600020549050919050565b61142b611a64565b73ffffffffffffffffffffffffffffffffffffffff166114496114de565b73ffffffffffffffffffffffffffffffffffffffff161461149f576040517f08c379a0000000000000000000000000000000000000000000000000000000008152600401611496906123b8565b60405180910390fd5b6114a96000611a6c565b565b60076020528060005260406000206000915054906101000a900473ffffffffffffffffffffffffffffffffffffffff1681565b60008060009054906101000a900473ffffffffffffffffffffffffffffffffffffffff16905090565b5050565b60008054906101000a900473ffffffffffffffffffffffffffffffffffffffff1681565b50505050565b6006818154811061154557600080fd5b90600052602060002090600802016000915090508060000160009054906101000a900473ffffffffffffffffffffffffffffffffffffffff169080600101805461158e906125ef565b80601f01602080910402602001604051908101604052809291908181526020018280546115ba906125ef565b80156116075780601f106115dc57610100808354040283529160200191611607565b820191906000526020600020905b8154815290600101906020018083116115ea57829003601f168201915b50505050509080600201805461161c906125ef565b80601f0160208091040260200160405190810160405280929190818152602001828054611648906125ef565b80156116955780601f1061166a57610100808354040283529160200191611695565b820191906000526020600020905b81548152906001019060200180831161167857829003601f168201915b5050505050908060030180546116aa906125ef565b80601f01602080910402602001604051908101604052809291908181526020018280546116d6906125ef565b80156117235780601f106116f857610100808354040283529160200191611723565b820191906000526020600020905b81548152906001019060200180831161170657829003601f168201915b5050505050908060040154908060050154908060060154908060070160009054906101000a900463ffffffff16905088565b60005b6006805490508110156118f8578173ffffffffffffffffffffffffffffffffffffffff16600682815481106117905761178f612790565b5b906000526020600020906008020160000160009054906101000a900473ffffffffffffffffffffffffffffffffffffffff1673ffffffffffffffffffffffffffffffffffffffff1614156118e5577f20fdb8ab571bfbab79104bea84f9c31cb79c5ae45b5f515c1d6c8393e00283506006828154811061181357611812612790565b5b90600052602060002090600802016002016006838154811061183857611837612790565b5b90600052602060002090600802016001016006848154811061185d5761185c612790565b5b906000526020600020906008020160070160009054906101000a900463ffffffff166006858154811061189357611892612790565b5b906000526020600020906008020160040154600686815481106118b9576118b8612790565b5b9060005260206000209060080201600501546040516118dc9594939291906122f7565b60405180910390a15b80806118f090612652565b915050611758565b5050565b600092915050565b61190c611a64565b73ffffffffffffffffffffffffffffffffffffffff1661192a6114de565b73ffffffffffffffffffffffffffffffffffffffff1614611980576040517f08c379a0000000000000000000000000000000000000000000000000000000008152600401611977906123b8565b60405180910390fd5b600073ffffffffffffffffffffffffffffffffffffffff168173ffffffffffffffffffffffffffffffffffffffff1614156119f0576040517f08c379a00000000000000000000000000000000000000000000000000000000081526004016119e790612378565b60405180910390fd5b6119f981611a6c565b50565b60035442611a0a91906124cb565b63ffffffff16816006018190555050565b3373ffffffffffffffffffffffffffffffffffffffff166108fc479081150290604051600060405180830381858888f19350505050158015611a61573d6000803e3d6000fd5b50565b600033905090565b60008060009054906101000a900473ffffffffffffffffffffffffffffffffffffffff169050816000806101000a81548173ffffffffffffffffffffffffffffffffffffffff021916908373ffffffffffffffffffffffffffffffffffffffff1602179055508173ffffffffffffffffffffffffffffffffffffffff168173ffffffffffffffffffffffffffffffffffffffff167f8be0079c531659141344cd1fd0a4f28419497f9722a3daafe3b4186f6b6457e060405160405180910390a35050565b828054611b3c906125ef565b90600052602060002090601f016020900481019282611b5e5760008555611ba5565b82601f10611b7757805160ff1916838001178555611ba5565b82800160010185558215611ba5579182015b82811115611ba4578251825591602001919060010190611b89565b5b509050611bb29190611bb6565b5090565b5b80821115611bcf576000816000905550600101611bb7565b5090565b6000611be6611be184612438565b612413565b905082815260208101848484011115611c0257611c016127f3565b5b611c0d8482856125ad565b509392505050565b6000611c28611c2384612469565b612413565b905082815260208101848484011115611c4457611c436127f3565b5b611c4f8482856125ad565b509392505050565b600081359050611c6681612952565b92915050565b600081359050611c7b81612969565b92915050565b600082601f830112611c9657611c956127ee565b5b8135611ca6848260208601611bd3565b91505092915050565b600082601f830112611cc457611cc36127ee565b5b8135611cd4848260208601611c15565b91505092915050565b600081359050611cec81612980565b92915050565b600060208284031215611d0857611d076127fd565b5b6000611d1684828501611c57565b91505092915050565b60008060408385031215611d3657611d356127fd565b5b6000611d4485828601611c57565b9250506020611d5585828601611c57565b9150509250929050565b600080600060608486031215611d7857611d776127fd565b5b6000611d8686828701611c57565b9350506020611d9786828701611c57565b9250506040611da886828701611cdd565b9150509250925092565b60008060008060808587031215611dcc57611dcb6127fd565b5b6000611dda87828801611c57565b9450506020611deb87828801611c57565b9350506040611dfc87828801611cdd565b925050606085013567ffffffffffffffff811115611e1d57611e1c6127f8565b5b611e2987828801611c81565b91505092959194509250565b60008060408385031215611e4c57611e4b6127fd565b5b6000611e5a85828601611c57565b9250506020611e6b85828601611c6c565b9150509250929050565b600080600060608486031215611e8e57611e8d6127fd565b5b6000611e9c86828701611c57565b935050602084013567ffffffffffffffff811115611ebd57611ebc6127f8565b5b611ec986828701611caf565b925050604084013567ffffffffffffffff811115611eea57611ee96127f8565b5b611ef686828701611caf565b9150509250925092565b60008060408385031215611f1757611f166127fd565b5b6000611f2585828601611c57565b9250506020611f3685828601611cdd565b9150509250929050565b600080600060608486031215611f5957611f586127fd565b5b600084013567ffffffffffffffff811115611f7757611f766127f8565b5b611f8386828701611caf565b935050602084013567ffffffffffffffff811115611fa457611fa36127f8565b5b611fb086828701611caf565b925050604084013567ffffffffffffffff811115611fd157611fd06127f8565b5b611fdd86828701611caf565b9150509250925092565b600060208284031215611ffd57611ffc6127fd565b5b600061200b84828501611cdd565b91505092915050565b61201d81612555565b82525050565b61202c81612567565b82525050565b600061203d826124af565b61204781856124ba565b93506120578185602086016125bc565b61206081612802565b840191505092915050565b60008154612078816125ef565b61208281866124ba565b9450600182166000811461209d57600181146120af576120e2565b60ff19831686526020860193506120e2565b6120b88561249a565b60005b838110156120da578154818901526001820191506020810190506120bb565b808801955050505b50505092915050565b60006120f86028836124ba565b915061210382612813565b604082019050919050565b600061211b6026836124ba565b915061212682612862565b604082019050919050565b600061213e6032836124ba565b9150612149826128b1565b604082019050919050565b60006121616020836124ba565b915061216c82612900565b602082019050919050565b60006121846015836124ba565b915061218f82612929565b602082019050919050565b6121a381612593565b82525050565b6121ba6121b582612593565b6126c8565b82525050565b6121c98161259d565b82525050565b60006121db82866121a9565b6020820191506121eb82856121a9565b6020820191506121fb82846121a9565b602082019150819050949350505050565b60006020820190506122216000830184612014565b92915050565b60006101008201905061223d600083018b612014565b818103602083015261224f818a612032565b905081810360408301526122638189612032565b905081810360608301526122778188612032565b9050612286608083018761219a565b61229360a083018661219a565b6122a060c083018561219a565b6122ad60e08301846121c0565b9998505050505050505050565b60006020820190506122cf6000830184612023565b92915050565b600060208201905081810360008301526122ef8184612032565b905092915050565b600060a0820190508181036000830152612311818861206b565b90508181036020830152612325818761206b565b905061233460408301866121c0565b612341606083018561219a565b61234e608083018461219a565b9695505050505050565b60006020820190508181036000830152612371816120eb565b9050919050565b600060208201905081810360008301526123918161210e565b9050919050565b600060208201905081810360008301526123b181612131565b9050919050565b600060208201905081810360008301526123d181612154565b9050919050565b600060208201905081810360008301526123f181612177565b9050919050565b600060208201905061240d600083018461219a565b92915050565b600061241d61242e565b90506124298282612621565b919050565b6000604051905090565b600067ffffffffffffffff821115612453576124526127bf565b5b61245c82612802565b9050602081019050919050565b600067ffffffffffffffff821115612484576124836127bf565b5b61248d82612802565b9050602081019050919050565b60008190508160005260206000209050919050565b600081519050919050565b600082825260208201905092915050565b60006124d682612593565b91506124e183612593565b9250827fffffffffffffffffffffffffffffffffffffffffffffffffffffffffffffffff0382111561251657612515612703565b5b828201905092915050565b600061252c82612593565b915061253783612593565b92508282101561254a57612549612703565b5b828203905092915050565b600061256082612573565b9050919050565b60008115159050919050565b600073ffffffffffffffffffffffffffffffffffffffff82169050919050565b6000819050919050565b600063ffffffff82169050919050565b82818337600083830152505050565b60005b838110156125da5780820151818401526020810190506125bf565b838111156125e9576000848401525b50505050565b6000600282049050600182168061260757607f821691505b6020821081141561261b5761261a612761565b5b50919050565b61262a82612802565b810181811067ffffffffffffffff82111715612649576126486127bf565b5b80604052505050565b600061265d82612593565b91507fffffffffffffffffffffffffffffffffffffffffffffffffffffffffffffffff8214156126905761268f612703565b5b600182019050919050565b60006126a68261259d565b915063ffffffff8214156126bd576126bc612703565b5b600182019050919050565b6000819050919050565b60006126dd82612593565b91506126e883612593565b9250826126f8576126f7612732565b5b828206905092915050565b7f4e487b7100000000000000000000000000000000000000000000000000000000600052601160045260246000fd5b7f4e487b7100000000000000000000000000000000000000000000000000000000600052601260045260246000fd5b7f4e487b7100000000000000000000000000000000000000000000000000000000600052602260045260246000fd5b7f4e487b7100000000000000000000000000000000000000000000000000000000600052603260045260246000fd5b7f4e487b7100000000000000000000000000000000000000000000000000000000600052604160045260246000fd5b600080fd5b600080fd5b600080fd5b600080fd5b6000601f19601f8301169050919050565b7f536f6c6f2073652070756564652074656e657220756e20636f63686520706f7260008201527f20706572736f6e61000000000000000000000000000000000000000000000000602082015250565b7f4f776e61626c653a206e6577206f776e657220697320746865207a65726f206160008201527f6464726573730000000000000000000000000000000000000000000000000000602082015250565b7f4e6f2068617920636f6368657320737566696369656e7465732070617261206960008201527f6e696369617220756e6120636172726572610000000000000000000000000000602082015250565b7f4f776e61626c653a2063616c6c6572206973206e6f7420746865206f776e6572600082015250565b7f456c20636f6368652067616e61646f722065733a200000000000000000000000600082015250565b61295b81612555565b811461296657600080fd5b50565b61297281612567565b811461297d57600080fd5b50565b61298981612593565b811461299457600080fd5b5056fea264697066735822122011e60e4daceecc04c48581270ad8cfbd5f78559ecec8d89925ccfacf62d133df64736f6c63430008070033",
					"opcodes": "PUSH1 0x80 PUSH1 0x40 MSTORE PUSH1 0x0 PUSH1 0x1 SSTORE PUSH1 0x0 PUSH1 0x2 SSTORE PUSH1 0x3C PUSH1 0x3 SSTORE PUSH8 0xDE0B6B3A7640000 PUSH1 0x4 SSTORE PUSH8 0xDE0B6B3A7640000 PUSH1 0x5 SSTORE CALLVALUE DUP1 ISZERO PUSH3 0x38 JUMPI PUSH1 0x0 DUP1 REVERT JUMPDEST POP PUSH3 0x59 PUSH3 0x4D PUSH3 0x5F PUSH1 0x20 SHL PUSH1 0x20 SHR JUMP JUMPDEST PUSH3 0x67 PUSH1 0x20 SHL PUSH1 0x20 SHR JUMP JUMPDEST PUSH3 0x12B JUMP JUMPDEST PUSH1 0x0 CALLER SWAP1 POP SWAP1 JUMP JUMPDEST PUSH1 0x0 DUP1 PUSH1 0x0 SWAP1 SLOAD SWAP1 PUSH2 0x100 EXP SWAP1 DIV PUSH20 0xFFFFFFFFFFFFFFFFFFFFFFFFFFFFFFFFFFFFFFFF AND SWAP1 POP DUP2 PUSH1 0x0 DUP1 PUSH2 0x100 EXP DUP2 SLOAD DUP2 PUSH20 0xFFFFFFFFFFFFFFFFFFFFFFFFFFFFFFFFFFFFFFFF MUL NOT AND SWAP1 DUP4 PUSH20 0xFFFFFFFFFFFFFFFFFFFFFFFFFFFFFFFFFFFFFFFF AND MUL OR SWAP1 SSTORE POP DUP2 PUSH20 0xFFFFFFFFFFFFFFFFFFFFFFFFFFFFFFFFFFFFFFFF AND DUP2 PUSH20 0xFFFFFFFFFFFFFFFFFFFFFFFFFFFFFFFFFFFFFFFF AND PUSH32 0x8BE0079C531659141344CD1FD0A4F28419497F9722A3DAAFE3B4186F6B6457E0 PUSH1 0x40 MLOAD PUSH1 0x40 MLOAD DUP1 SWAP2 SUB SWAP1 LOG3 POP POP JUMP JUMPDEST PUSH2 0x29CD DUP1 PUSH3 0x13B PUSH1 0x0 CODECOPY PUSH1 0x0 RETURN INVALID PUSH1 0x80 PUSH1 0x40 MSTORE PUSH1 0x4 CALLDATASIZE LT PUSH2 0x12A JUMPI PUSH1 0x0 CALLDATALOAD PUSH1 0xE0 SHR DUP1 PUSH4 0x70A08231 GT PUSH2 0xAB JUMPI DUP1 PUSH4 0xB2BDFA7B GT PUSH2 0x6F JUMPI DUP1 PUSH4 0xB2BDFA7B EQ PUSH2 0x3EC JUMPI DUP1 PUSH4 0xB88D4FDE EQ PUSH2 0x417 JUMPI DUP1 PUSH4 0xD735573D EQ PUSH2 0x433 JUMPI DUP1 PUSH4 0xE172FCA8 EQ PUSH2 0x477 JUMPI DUP1 PUSH4 0xE985E9C5 EQ PUSH2 0x4A0 JUMPI DUP1 PUSH4 0xF2FDE38B EQ PUSH2 0x4DD JUMPI PUSH2 0x12A JUMP JUMPDEST DUP1 PUSH4 0x70A08231 EQ PUSH2 0x307 JUMPI DUP1 PUSH4 0x715018A6 EQ PUSH2 0x344 JUMPI DUP1 PUSH4 0x858B0554 EQ PUSH2 0x35B JUMPI DUP1 PUSH4 0x8DA5CB5B EQ PUSH2 0x398 JUMPI DUP1 PUSH4 0xA22CB465 EQ PUSH2 0x3C3 JUMPI PUSH2 0x12A JUMP JUMPDEST DUP1 PUSH4 0x2458C544 GT PUSH2 0xF2 JUMPI DUP1 PUSH4 0x2458C544 EQ PUSH2 0x211 JUMPI DUP1 PUSH4 0x42842E0E EQ PUSH2 0x24E JUMPI DUP1 PUSH4 0x6352211E EQ PUSH2 0x26A JUMPI DUP1 PUSH4 0x6A7D1816 EQ PUSH2 0x2A7 JUMPI DUP1 PUSH4 0x6B6F0494 EQ PUSH2 0x2D7 JUMPI PUSH2 0x12A JUMP JUMPDEST DUP1 PUSH4 0x49A5F65 EQ PUSH2 0x12F JUMPI DUP1 PUSH4 0x81812FC EQ PUSH2 0x15F JUMPI DUP1 PUSH4 0x95EA7B3 EQ PUSH2 0x19C JUMPI DUP1 PUSH4 0x1C6743E4 EQ PUSH2 0x1B8 JUMPI DUP1 PUSH4 0x23B872DD EQ PUSH2 0x1F5 JUMPI JUMPDEST PUSH1 0x0 DUP1 REVERT JUMPDEST PUSH2 0x149 PUSH1 0x4 DUP1 CALLDATASIZE SUB DUP2 ADD SWAP1 PUSH2 0x144 SWAP2 SWAP1 PUSH2 0x1E75 JUMP JUMPDEST PUSH2 0x506 JUMP JUMPDEST PUSH1 0x40 MLOAD PUSH2 0x156 SWAP2 SWAP1 PUSH2 0x22D5 JUMP JUMPDEST PUSH1 0x40 MLOAD DUP1 SWAP2 SUB SWAP1 RETURN JUMPDEST CALLVALUE DUP1 ISZERO PUSH2 0x16B JUMPI PUSH1 0x0 DUP1 REVERT JUMPDEST POP PUSH2 0x186 PUSH1 0x4 DUP1 CALLDATASIZE SUB DUP2 ADD SWAP1 PUSH2 0x181 SWAP2 SWAP1 PUSH2 0x1FE7 JUMP JUMPDEST PUSH2 0x667 JUMP JUMPDEST PUSH1 0x40 MLOAD PUSH2 0x193 SWAP2 SWAP1 PUSH2 0x220C JUMP JUMPDEST PUSH1 0x40 MLOAD DUP1 SWAP2 SUB SWAP1 RETURN JUMPDEST PUSH2 0x1B6 PUSH1 0x4 DUP1 CALLDATASIZE SUB DUP2 ADD SWAP1 PUSH2 0x1B1 SWAP2 SWAP1 PUSH2 0x1F00 JUMP JUMPDEST PUSH2 0x66E JUMP JUMPDEST STOP JUMPDEST CALLVALUE DUP1 ISZERO PUSH2 0x1C4 JUMPI PUSH1 0x0 DUP1 REVERT JUMPDEST POP PUSH2 0x1DF PUSH1 0x4 DUP1 CALLDATASIZE SUB DUP2 ADD SWAP1 PUSH2 0x1DA SWAP2 SWAP1 PUSH2 0x1CF2 JUMP JUMPDEST PUSH2 0x672 JUMP JUMPDEST PUSH1 0x40 MLOAD PUSH2 0x1EC SWAP2 SWAP1 PUSH2 0x23F8 JUMP JUMPDEST PUSH1 0x40 MLOAD DUP1 SWAP2 SUB SWAP1 RETURN JUMPDEST PUSH2 0x20F PUSH1 0x4 DUP1 CALLDATASIZE SUB DUP2 ADD SWAP1 PUSH2 0x20A SWAP2 SWAP1 PUSH2 0x1D5F JUMP JUMPDEST PUSH2 0x68A JUMP JUMPDEST STOP JUMPDEST CALLVALUE DUP1 ISZERO PUSH2 0x21D JUMPI PUSH1 0x0 DUP1 REVERT JUMPDEST POP PUSH2 0x238 PUSH1 0x4 DUP1 CALLDATASIZE SUB DUP2 ADD SWAP1 PUSH2 0x233 SWAP2 SWAP1 PUSH2 0x1F40 JUMP JUMPDEST PUSH2 0x68F JUMP JUMPDEST PUSH1 0x40 MLOAD PUSH2 0x245 SWAP2 SWAP1 PUSH2 0x23F8 JUMP JUMPDEST PUSH1 0x40 MLOAD DUP1 SWAP2 SUB SWAP1 RETURN JUMPDEST PUSH2 0x268 PUSH1 0x4 DUP1 CALLDATASIZE SUB DUP2 ADD SWAP1 PUSH2 0x263 SWAP2 SWAP1 PUSH2 0x1D5F JUMP JUMPDEST PUSH2 0x971 JUMP JUMPDEST STOP JUMPDEST CALLVALUE DUP1 ISZERO PUSH2 0x276 JUMPI PUSH1 0x0 DUP1 REVERT JUMPDEST POP PUSH2 0x291 PUSH1 0x4 DUP1 CALLDATASIZE SUB DUP2 ADD SWAP1 PUSH2 0x28C SWAP2 SWAP1 PUSH2 0x1FE7 JUMP JUMPDEST PUSH2 0x976 JUMP JUMPDEST PUSH1 0x40 MLOAD PUSH2 0x29E SWAP2 SWAP1 PUSH2 0x220C JUMP JUMPDEST PUSH1 0x40 MLOAD DUP1 SWAP2 SUB SWAP1 RETURN JUMPDEST PUSH2 0x2C1 PUSH1 0x4 DUP1 CALLDATASIZE SUB DUP2 ADD SWAP1 PUSH2 0x2BC SWAP2 SWAP1 PUSH2 0x1CF2 JUMP JUMPDEST PUSH2 0x97D JUMP JUMPDEST PUSH1 0x40 MLOAD PUSH2 0x2CE SWAP2 SWAP1 PUSH2 0x22D5 JUMP JUMPDEST PUSH1 0x40 MLOAD DUP1 SWAP2 SUB SWAP1 RETURN JUMPDEST PUSH2 0x2F1 PUSH1 0x4 DUP1 CALLDATASIZE SUB DUP2 ADD SWAP1 PUSH2 0x2EC SWAP2 SWAP1 PUSH2 0x1FE7 JUMP JUMPDEST PUSH2 0xAD2 JUMP JUMPDEST PUSH1 0x40 MLOAD PUSH2 0x2FE SWAP2 SWAP1 PUSH2 0x22D5 JUMP JUMPDEST PUSH1 0x40 MLOAD DUP1 SWAP2 SUB SWAP1 RETURN JUMPDEST CALLVALUE DUP1 ISZERO PUSH2 0x313 JUMPI PUSH1 0x0 DUP1 REVERT JUMPDEST POP PUSH2 0x32E PUSH1 0x4 DUP1 CALLDATASIZE SUB DUP2 ADD SWAP1 PUSH2 0x329 SWAP2 SWAP1 PUSH2 0x1CF2 JUMP JUMPDEST PUSH2 0x13DA JUMP JUMPDEST PUSH1 0x40 MLOAD PUSH2 0x33B SWAP2 SWAP1 PUSH2 0x23F8 JUMP JUMPDEST PUSH1 0x40 MLOAD DUP1 SWAP2 SUB SWAP1 RETURN JUMPDEST CALLVALUE DUP1 ISZERO PUSH2 0x350 JUMPI PUSH1 0x0 DUP1 REVERT JUMPDEST POP PUSH2 0x359 PUSH2 0x1423 JUMP JUMPDEST STOP JUMPDEST CALLVALUE DUP1 ISZERO PUSH2 0x367 JUMPI PUSH1 0x0 DUP1 REVERT JUMPDEST POP PUSH2 0x382 PUSH1 0x4 DUP1 CALLDATASIZE SUB DUP2 ADD SWAP1 PUSH2 0x37D SWAP2 SWAP1 PUSH2 0x1FE7 JUMP JUMPDEST PUSH2 0x14AB JUMP JUMPDEST PUSH1 0x40 MLOAD PUSH2 0x38F SWAP2 SWAP1 PUSH2 0x220C JUMP JUMPDEST PUSH1 0x40 MLOAD DUP1 SWAP2 SUB SWAP1 RETURN JUMPDEST CALLVALUE DUP1 ISZERO PUSH2 0x3A4 JUMPI PUSH1 0x0 DUP1 REVERT JUMPDEST POP PUSH2 0x3AD PUSH2 0x14DE JUMP JUMPDEST PUSH1 0x40 MLOAD PUSH2 0x3BA SWAP2 SWAP1 PUSH2 0x220C JUMP JUMPDEST PUSH1 0x40 MLOAD DUP1 SWAP2 SUB SWAP1 RETURN JUMPDEST CALLVALUE DUP1 ISZERO PUSH2 0x3CF JUMPI PUSH1 0x0 DUP1 REVERT JUMPDEST POP PUSH2 0x3EA PUSH1 0x4 DUP1 CALLDATASIZE SUB DUP2 ADD SWAP1 PUSH2 0x3E5 SWAP2 SWAP1 PUSH2 0x1E35 JUMP JUMPDEST PUSH2 0x1507 JUMP JUMPDEST STOP JUMPDEST CALLVALUE DUP1 ISZERO PUSH2 0x3F8 JUMPI PUSH1 0x0 DUP1 REVERT JUMPDEST POP PUSH2 0x401 PUSH2 0x150B JUMP JUMPDEST PUSH1 0x40 MLOAD PUSH2 0x40E SWAP2 SWAP1 PUSH2 0x220C JUMP JUMPDEST PUSH1 0x40 MLOAD DUP1 SWAP2 SUB SWAP1 RETURN JUMPDEST PUSH2 0x431 PUSH1 0x4 DUP1 CALLDATASIZE SUB DUP2 ADD SWAP1 PUSH2 0x42C SWAP2 SWAP1 PUSH2 0x1DB2 JUMP JUMPDEST PUSH2 0x152F JUMP JUMPDEST STOP JUMPDEST CALLVALUE DUP1 ISZERO PUSH2 0x43F JUMPI PUSH1 0x0 DUP1 REVERT JUMPDEST POP PUSH2 0x45A PUSH1 0x4 DUP1 CALLDATASIZE SUB DUP2 ADD SWAP1 PUSH2 0x455 SWAP2 SWAP1 PUSH2 0x1FE7 JUMP JUMPDEST PUSH2 0x1535 JUMP JUMPDEST PUSH1 0x40 MLOAD PUSH2 0x46E SWAP9 SWAP8 SWAP7 SWAP6 SWAP5 SWAP4 SWAP3 SWAP2 SWAP1 PUSH2 0x2227 JUMP JUMPDEST PUSH1 0x40 MLOAD DUP1 SWAP2 SUB SWAP1 RETURN JUMPDEST CALLVALUE DUP1 ISZERO PUSH2 0x483 JUMPI PUSH1 0x0 DUP1 REVERT JUMPDEST POP PUSH2 0x49E PUSH1 0x4 DUP1 CALLDATASIZE SUB DUP2 ADD SWAP1 PUSH2 0x499 SWAP2 SWAP1 PUSH2 0x1CF2 JUMP JUMPDEST PUSH2 0x1755 JUMP JUMPDEST STOP JUMPDEST CALLVALUE DUP1 ISZERO PUSH2 0x4AC JUMPI PUSH1 0x0 DUP1 REVERT JUMPDEST POP PUSH2 0x4C7 PUSH1 0x4 DUP1 CALLDATASIZE SUB DUP2 ADD SWAP1 PUSH2 0x4C2 SWAP2 SWAP1 PUSH2 0x1D1F JUMP JUMPDEST PUSH2 0x18FC JUMP JUMPDEST PUSH1 0x40 MLOAD PUSH2 0x4D4 SWAP2 SWAP1 PUSH2 0x22BA JUMP JUMPDEST PUSH1 0x40 MLOAD DUP1 SWAP2 SUB SWAP1 RETURN JUMPDEST CALLVALUE DUP1 ISZERO PUSH2 0x4E9 JUMPI PUSH1 0x0 DUP1 REVERT JUMPDEST POP PUSH2 0x504 PUSH1 0x4 DUP1 CALLDATASIZE SUB DUP2 ADD SWAP1 PUSH2 0x4FF SWAP2 SWAP1 PUSH2 0x1CF2 JUMP JUMPDEST PUSH2 0x1904 JUMP JUMPDEST STOP JUMPDEST PUSH1 0x60 DUP4 PUSH20 0xFFFFFFFFFFFFFFFFFFFFFFFFFFFFFFFFFFFFFFFF AND CALLER PUSH20 0xFFFFFFFFFFFFFFFFFFFFFFFFFFFFFFFFFFFFFFFF AND EQ PUSH2 0x540 JUMPI PUSH1 0x0 DUP1 REVERT JUMPDEST PUSH1 0x5 SLOAD CALLVALUE EQ PUSH2 0x54E JUMPI PUSH1 0x0 DUP1 REVERT JUMPDEST PUSH1 0x0 JUMPDEST PUSH1 0x6 DUP1 SLOAD SWAP1 POP DUP2 LT ISZERO PUSH2 0x65F JUMPI CALLER PUSH20 0xFFFFFFFFFFFFFFFFFFFFFFFFFFFFFFFFFFFFFFFF AND PUSH1 0x6 DUP3 DUP2 SLOAD DUP2 LT PUSH2 0x589 JUMPI PUSH2 0x588 PUSH2 0x2790 JUMP JUMPDEST JUMPDEST SWAP1 PUSH1 0x0 MSTORE PUSH1 0x20 PUSH1 0x0 KECCAK256 SWAP1 PUSH1 0x8 MUL ADD PUSH1 0x0 ADD PUSH1 0x0 SWAP1 SLOAD SWAP1 PUSH2 0x100 EXP SWAP1 DIV PUSH20 0xFFFFFFFFFFFFFFFFFFFFFFFFFFFFFFFFFFFFFFFF AND PUSH20 0xFFFFFFFFFFFFFFFFFFFFFFFFFFFFFFFFFFFFFFFF AND EQ ISZERO PUSH2 0x64C JUMPI DUP4 PUSH1 0x6 DUP3 DUP2 SLOAD DUP2 LT PUSH2 0x5EC JUMPI PUSH2 0x5EB PUSH2 0x2790 JUMP JUMPDEST JUMPDEST SWAP1 PUSH1 0x0 MSTORE PUSH1 0x20 PUSH1 0x0 KECCAK256 SWAP1 PUSH1 0x8 MUL ADD PUSH1 0x1 ADD SWAP1 DUP1 MLOAD SWAP1 PUSH1 0x20 ADD SWAP1 PUSH2 0x610 SWAP3 SWAP2 SWAP1 PUSH2 0x1B30 JUMP JUMPDEST POP DUP3 PUSH1 0x6 DUP3 DUP2 SLOAD DUP2 LT PUSH2 0x626 JUMPI PUSH2 0x625 PUSH2 0x2790 JUMP JUMPDEST JUMPDEST SWAP1 PUSH1 0x0 MSTORE PUSH1 0x20 PUSH1 0x0 KECCAK256 SWAP1 PUSH1 0x8 MUL ADD PUSH1 0x2 ADD SWAP1 DUP1 MLOAD SWAP1 PUSH1 0x20 ADD SWAP1 PUSH2 0x64A SWAP3 SWAP2 SWAP1 PUSH2 0x1B30 JUMP JUMPDEST POP JUMPDEST DUP1 DUP1 PUSH2 0x657 SWAP1 PUSH2 0x2652 JUMP JUMPDEST SWAP2 POP POP PUSH2 0x551 JUMP JUMPDEST POP SWAP4 SWAP3 POP POP POP JUMP JUMPDEST PUSH1 0x0 SWAP2 SWAP1 POP JUMP JUMPDEST POP POP JUMP JUMPDEST PUSH1 0x8 PUSH1 0x20 MSTORE DUP1 PUSH1 0x0 MSTORE PUSH1 0x40 PUSH1 0x0 KECCAK256 PUSH1 0x0 SWAP2 POP SWAP1 POP SLOAD DUP2 JUMP JUMPDEST POP POP POP JUMP JUMPDEST PUSH1 0x0 PUSH1 0x1 PUSH1 0x8 PUSH1 0x0 CALLER PUSH20 0xFFFFFFFFFFFFFFFFFFFFFFFFFFFFFFFFFFFFFFFF AND PUSH20 0xFFFFFFFFFFFFFFFFFFFFFFFFFFFFFFFFFFFFFFFF AND DUP2 MSTORE PUSH1 0x20 ADD SWAP1 DUP2 MSTORE PUSH1 0x20 ADD PUSH1 0x0 KECCAK256 SLOAD LT PUSH2 0x713 JUMPI PUSH1 0x40 MLOAD PUSH32 0x8C379A000000000000000000000000000000000000000000000000000000000 DUP2 MSTORE PUSH1 0x4 ADD PUSH2 0x70A SWAP1 PUSH2 0x2358 JUMP JUMPDEST PUSH1 0x40 MLOAD DUP1 SWAP2 SUB SWAP1 REVERT JUMPDEST PUSH1 0x6 PUSH1 0x40 MLOAD DUP1 PUSH2 0x100 ADD PUSH1 0x40 MSTORE DUP1 CALLER PUSH20 0xFFFFFFFFFFFFFFFFFFFFFFFFFFFFFFFFFFFFFFFF AND DUP2 MSTORE PUSH1 0x20 ADD DUP7 DUP2 MSTORE PUSH1 0x20 ADD DUP6 DUP2 MSTORE PUSH1 0x20 ADD DUP5 DUP2 MSTORE PUSH1 0x20 ADD PUSH1 0x0 DUP2 MSTORE PUSH1 0x20 ADD PUSH1 0x0 DUP2 MSTORE PUSH1 0x20 ADD PUSH1 0x3 SLOAD TIMESTAMP PUSH2 0x76B SWAP2 SWAP1 PUSH2 0x24CB JUMP JUMPDEST PUSH4 0xFFFFFFFF AND DUP2 MSTORE PUSH1 0x20 ADD PUSH1 0x1 PUSH4 0xFFFFFFFF AND DUP2 MSTORE POP SWAP1 DUP1 PUSH1 0x1 DUP2 SLOAD ADD DUP1 DUP3 SSTORE DUP1 SWAP2 POP POP PUSH1 0x1 SWAP1 SUB SWAP1 PUSH1 0x0 MSTORE PUSH1 0x20 PUSH1 0x0 KECCAK256 SWAP1 PUSH1 0x8 MUL ADD PUSH1 0x0 SWAP1 SWAP2 SWAP1 SWAP2 SWAP1 SWAP2 POP PUSH1 0x0 DUP3 ADD MLOAD DUP2 PUSH1 0x0 ADD PUSH1 0x0 PUSH2 0x100 EXP DUP2 SLOAD DUP2 PUSH20 0xFFFFFFFFFFFFFFFFFFFFFFFFFFFFFFFFFFFFFFFF MUL NOT AND SWAP1 DUP4 PUSH20 0xFFFFFFFFFFFFFFFFFFFFFFFFFFFFFFFFFFFFFFFF AND MUL OR SWAP1 SSTORE POP PUSH1 0x20 DUP3 ADD MLOAD DUP2 PUSH1 0x1 ADD SWAP1 DUP1 MLOAD SWAP1 PUSH1 0x20 ADD SWAP1 PUSH2 0x80D SWAP3 SWAP2 SWAP1 PUSH2 0x1B30 JUMP JUMPDEST POP PUSH1 0x40 DUP3 ADD MLOAD DUP2 PUSH1 0x2 ADD SWAP1 DUP1 MLOAD SWAP1 PUSH1 0x20 ADD SWAP1 PUSH2 0x82A SWAP3 SWAP2 SWAP1 PUSH2 0x1B30 JUMP JUMPDEST POP PUSH1 0x60 DUP3 ADD MLOAD DUP2 PUSH1 0x3 ADD SWAP1 DUP1 MLOAD SWAP1 PUSH1 0x20 ADD SWAP1 PUSH2 0x847 SWAP3 SWAP2 SWAP1 PUSH2 0x1B30 JUMP JUMPDEST POP PUSH1 0x80 DUP3 ADD MLOAD DUP2 PUSH1 0x4 ADD SSTORE PUSH1 0xA0 DUP3 ADD MLOAD DUP2 PUSH1 0x5 ADD SSTORE PUSH1 0xC0 DUP3 ADD MLOAD DUP2 PUSH1 0x6 ADD SSTORE PUSH1 0xE0 DUP3 ADD MLOAD DUP2 PUSH1 0x7 ADD PUSH1 0x0 PUSH2 0x100 EXP DUP2 SLOAD DUP2 PUSH4 0xFFFFFFFF MUL NOT AND SWAP1 DUP4 PUSH4 0xFFFFFFFF AND MUL OR SWAP1 SSTORE POP POP POP PUSH1 0x0 PUSH1 0x6 DUP1 SLOAD SWAP1 POP SWAP1 POP CALLER PUSH1 0x7 PUSH1 0x0 DUP4 DUP2 MSTORE PUSH1 0x20 ADD SWAP1 DUP2 MSTORE PUSH1 0x20 ADD PUSH1 0x0 KECCAK256 PUSH1 0x0 PUSH2 0x100 EXP DUP2 SLOAD DUP2 PUSH20 0xFFFFFFFFFFFFFFFFFFFFFFFFFFFFFFFFFFFFFFFF MUL NOT AND SWAP1 DUP4 PUSH20 0xFFFFFFFFFFFFFFFFFFFFFFFFFFFFFFFFFFFFFFFF AND MUL OR SWAP1 SSTORE POP PUSH1 0x8 PUSH1 0x0 CALLER PUSH20 0xFFFFFFFFFFFFFFFFFFFFFFFFFFFFFFFFFFFFFFFF AND PUSH20 0xFFFFFFFFFFFFFFFFFFFFFFFFFFFFFFFFFFFFFFFF AND DUP2 MSTORE PUSH1 0x20 ADD SWAP1 DUP2 MSTORE PUSH1 0x20 ADD PUSH1 0x0 KECCAK256 PUSH1 0x0 DUP2 SLOAD DUP1 SWAP3 SWAP2 SWAP1 PUSH2 0x93B SWAP1 PUSH2 0x2652 JUMP JUMPDEST SWAP2 SWAP1 POP SSTORE POP PUSH1 0x2 PUSH1 0x0 DUP2 SLOAD DUP1 SWAP3 SWAP2 SWAP1 PUSH2 0x953 SWAP1 PUSH2 0x2652 JUMP JUMPDEST SWAP2 SWAP1 POP SSTORE POP PUSH1 0x1 PUSH1 0x2 SLOAD PUSH2 0x967 SWAP2 SWAP1 PUSH2 0x2521 JUMP JUMPDEST SWAP2 POP POP SWAP4 SWAP3 POP POP POP JUMP JUMPDEST POP POP POP JUMP JUMPDEST PUSH1 0x0 SWAP2 SWAP1 POP JUMP JUMPDEST PUSH1 0x60 PUSH1 0x4 SLOAD CALLVALUE EQ PUSH2 0x98D JUMPI PUSH1 0x0 DUP1 REVERT JUMPDEST PUSH1 0x0 JUMPDEST PUSH1 0x6 DUP1 SLOAD SWAP1 POP DUP2 LT ISZERO PUSH2 0xACB JUMPI DUP3 PUSH20 0xFFFFFFFFFFFFFFFFFFFFFFFFFFFFFFFFFFFFFFFF AND PUSH1 0x6 DUP3 DUP2 SLOAD DUP2 LT PUSH2 0x9C8 JUMPI PUSH2 0x9C7 PUSH2 0x2790 JUMP JUMPDEST JUMPDEST SWAP1 PUSH1 0x0 MSTORE PUSH1 0x20 PUSH1 0x0 KECCAK256 SWAP1 PUSH1 0x8 MUL ADD PUSH1 0x0 ADD PUSH1 0x0 SWAP1 SLOAD SWAP1 PUSH2 0x100 EXP SWAP1 DIV PUSH20 0xFFFFFFFFFFFFFFFFFFFFFFFFFFFFFFFFFFFFFFFF AND PUSH20 0xFFFFFFFFFFFFFFFFFFFFFFFFFFFFFFFFFFFFFFFF AND EQ ISZERO PUSH2 0xAB8 JUMPI PUSH1 0x6 DUP2 DUP2 SLOAD DUP2 LT PUSH2 0xA2A JUMPI PUSH2 0xA29 PUSH2 0x2790 JUMP JUMPDEST JUMPDEST SWAP1 PUSH1 0x0 MSTORE PUSH1 0x20 PUSH1 0x0 KECCAK256 SWAP1 PUSH1 0x8 MUL ADD PUSH1 0x7 ADD PUSH1 0x0 DUP2 DUP2 SWAP1 SLOAD SWAP1 PUSH2 0x100 EXP SWAP1 DIV PUSH4 0xFFFFFFFF AND DUP1 SWAP3 SWAP2 SWAP1 PUSH2 0xA5B SWAP1 PUSH2 0x269B JUMP JUMPDEST SWAP2 SWAP1 PUSH2 0x100 EXP DUP2 SLOAD DUP2 PUSH4 0xFFFFFFFF MUL NOT AND SWAP1 DUP4 PUSH4 0xFFFFFFFF AND MUL OR SWAP1 SSTORE POP POP PUSH1 0x40 MLOAD DUP1 PUSH1 0x40 ADD PUSH1 0x40 MSTORE DUP1 PUSH1 0x12 DUP2 MSTORE PUSH1 0x20 ADD PUSH32 0x48612073756269646F206465206E6976656C0000000000000000000000000000 DUP2 MSTORE POP SWAP2 POP POP PUSH2 0xACD JUMP JUMPDEST DUP1 DUP1 PUSH2 0xAC3 SWAP1 PUSH2 0x2652 JUMP JUMPDEST SWAP2 POP POP PUSH2 0x990 JUMP JUMPDEST POP JUMPDEST SWAP2 SWAP1 POP JUMP JUMPDEST PUSH1 0x60 PUSH1 0x1 PUSH1 0x6 DUP1 SLOAD SWAP1 POP GT PUSH2 0xB1B JUMPI PUSH32 0x6158FC8F21C8CC73DDF920956CC75D0E8A48B4FC85817A0BA89EB3B6D2A75441 PUSH1 0x40 MLOAD PUSH2 0xB0E SWAP1 PUSH2 0x2398 JUMP JUMPDEST PUSH1 0x40 MLOAD DUP1 SWAP2 SUB SWAP1 LOG1 PUSH2 0x13D4 JUMP JUMPDEST DUP2 CALLVALUE EQ PUSH2 0xB27 JUMPI PUSH1 0x0 DUP1 REVERT JUMPDEST PUSH1 0x1 PUSH1 0x0 DUP2 SLOAD DUP1 SWAP3 SWAP2 SWAP1 PUSH2 0xB3A SWAP1 PUSH2 0x2652 JUMP JUMPDEST SWAP2 SWAP1 POP SSTORE POP PUSH1 0x0 PUSH1 0x6 DUP1 SLOAD SWAP1 POP TIMESTAMP PUSH1 0x6 DUP1 SLOAD SWAP1 POP PUSH1 0x1 SLOAD PUSH1 0x40 MLOAD PUSH1 0x20 ADD PUSH2 0xB63 SWAP4 SWAP3 SWAP2 SWAP1 PUSH2 0x21CF JUMP JUMPDEST PUSH1 0x40 MLOAD PUSH1 0x20 DUP2 DUP4 SUB SUB DUP2 MSTORE SWAP1 PUSH1 0x40 MSTORE DUP1 MLOAD SWAP1 PUSH1 0x20 ADD KECCAK256 PUSH1 0x0 SHR PUSH2 0xB86 SWAP2 SWAP1 PUSH2 0x26D2 JUMP JUMPDEST SWAP1 POP PUSH1 0x0 PUSH1 0x7 PUSH1 0x0 DUP4 DUP2 MSTORE PUSH1 0x20 ADD SWAP1 DUP2 MSTORE PUSH1 0x20 ADD PUSH1 0x0 KECCAK256 PUSH1 0x0 SWAP1 SLOAD SWAP1 PUSH2 0x100 EXP SWAP1 DIV PUSH20 0xFFFFFFFFFFFFFFFFFFFFFFFFFFFFFFFFFFFFFFFF AND SWAP1 POP PUSH1 0x1 PUSH1 0x0 DUP2 SLOAD DUP1 SWAP3 SWAP2 SWAP1 PUSH2 0xBD3 SWAP1 PUSH2 0x2652 JUMP JUMPDEST SWAP2 SWAP1 POP SSTORE POP PUSH1 0x0 PUSH1 0x64 SWAP1 POP PUSH1 0x0 DUP2 TIMESTAMP DUP4 PUSH1 0x1 SLOAD PUSH1 0x40 MLOAD PUSH1 0x20 ADD PUSH2 0xBF8 SWAP4 SWAP3 SWAP2 SWAP1 PUSH2 0x21CF JUMP JUMPDEST PUSH1 0x40 MLOAD PUSH1 0x20 DUP2 DUP4 SUB SUB DUP2 MSTORE SWAP1 PUSH1 0x40 MSTORE DUP1 MLOAD SWAP1 PUSH1 0x20 ADD KECCAK256 PUSH1 0x0 SHR PUSH2 0xC1B SWAP2 SWAP1 PUSH2 0x26D2 JUMP JUMPDEST SWAP1 POP PUSH1 0x0 JUMPDEST PUSH1 0x6 DUP1 SLOAD SWAP1 POP DUP2 LT ISZERO PUSH2 0x13CE JUMPI PUSH1 0x6 DUP2 DUP2 SLOAD DUP2 LT PUSH2 0xC41 JUMPI PUSH2 0xC40 PUSH2 0x2790 JUMP JUMPDEST JUMPDEST SWAP1 PUSH1 0x0 MSTORE PUSH1 0x20 PUSH1 0x0 KECCAK256 SWAP1 PUSH1 0x8 MUL ADD PUSH1 0x0 ADD PUSH1 0x0 SWAP1 SLOAD SWAP1 PUSH2 0x100 EXP SWAP1 DIV PUSH20 0xFFFFFFFFFFFFFFFFFFFFFFFFFFFFFFFFFFFFFFFF AND PUSH20 0xFFFFFFFFFFFFFFFFFFFFFFFFFFFFFFFFFFFFFFFF AND CALLER PUSH20 0xFFFFFFFFFFFFFFFFFFFFFFFFFFFFFFFFFFFFFFFF AND EQ ISZERO PUSH2 0x13BB JUMPI PUSH1 0x6 DUP2 DUP2 SLOAD DUP2 LT PUSH2 0xCBA JUMPI PUSH2 0xCB9 PUSH2 0x2790 JUMP JUMPDEST JUMPDEST SWAP1 PUSH1 0x0 MSTORE PUSH1 0x20 PUSH1 0x0 KECCAK256 SWAP1 PUSH1 0x8 MUL ADD PUSH1 0x5 ADD PUSH1 0x0 DUP2 SLOAD DUP1 SWAP3 SWAP2 SWAP1 PUSH2 0xCDC SWAP1 PUSH2 0x2652 JUMP JUMPDEST SWAP2 SWAP1 POP SSTORE POP PUSH1 0x6 DUP6 DUP2 SLOAD DUP2 LT PUSH2 0xCF5 JUMPI PUSH2 0xCF4 PUSH2 0x2790 JUMP JUMPDEST JUMPDEST SWAP1 PUSH1 0x0 MSTORE PUSH1 0x20 PUSH1 0x0 KECCAK256 SWAP1 PUSH1 0x8 MUL ADD PUSH1 0x5 ADD PUSH1 0x0 DUP2 SLOAD DUP1 SWAP3 SWAP2 SWAP1 PUSH2 0xD17 SWAP1 PUSH2 0x2652 JUMP JUMPDEST SWAP2 SWAP1 POP SSTORE POP PUSH2 0xD46 PUSH1 0x6 DUP3 DUP2 SLOAD DUP2 LT PUSH2 0xD33 JUMPI PUSH2 0xD32 PUSH2 0x2790 JUMP JUMPDEST JUMPDEST SWAP1 PUSH1 0x0 MSTORE PUSH1 0x20 PUSH1 0x0 KECCAK256 SWAP1 PUSH1 0x8 MUL ADD PUSH2 0x19FC JUMP JUMPDEST PUSH1 0x6 DUP2 DUP2 SLOAD DUP2 LT PUSH2 0xD5A JUMPI PUSH2 0xD59 PUSH2 0x2790 JUMP JUMPDEST JUMPDEST SWAP1 PUSH1 0x0 MSTORE PUSH1 0x20 PUSH1 0x0 KECCAK256 SWAP1 PUSH1 0x8 MUL ADD PUSH1 0x7 ADD PUSH1 0x0 SWAP1 SLOAD SWAP1 PUSH2 0x100 EXP SWAP1 DIV PUSH4 0xFFFFFFFF AND PUSH4 0xFFFFFFFF AND PUSH1 0x6 DUP7 DUP2 SLOAD DUP2 LT PUSH2 0xD96 JUMPI PUSH2 0xD95 PUSH2 0x2790 JUMP JUMPDEST JUMPDEST SWAP1 PUSH1 0x0 MSTORE PUSH1 0x20 PUSH1 0x0 KECCAK256 SWAP1 PUSH1 0x8 MUL ADD PUSH1 0x7 ADD PUSH1 0x0 SWAP1 SLOAD SWAP1 PUSH2 0x100 EXP SWAP1 DIV PUSH4 0xFFFFFFFF AND PUSH4 0xFFFFFFFF AND LT ISZERO PUSH2 0xF97 JUMPI PUSH1 0x3C DUP3 GT PUSH2 0xEB5 JUMPI PUSH2 0xDD4 PUSH2 0x1A1B JUMP JUMPDEST PUSH1 0x6 DUP2 DUP2 SLOAD DUP2 LT PUSH2 0xDE8 JUMPI PUSH2 0xDE7 PUSH2 0x2790 JUMP JUMPDEST JUMPDEST SWAP1 PUSH1 0x0 MSTORE PUSH1 0x20 PUSH1 0x0 KECCAK256 SWAP1 PUSH1 0x8 MUL ADD PUSH1 0x4 ADD PUSH1 0x0 DUP2 SLOAD DUP1 SWAP3 SWAP2 SWAP1 PUSH2 0xE0A SWAP1 PUSH2 0x2652 JUMP JUMPDEST SWAP2 SWAP1 POP SSTORE POP PUSH1 0x6 DUP2 DUP2 SLOAD DUP2 LT PUSH2 0xE23 JUMPI PUSH2 0xE22 PUSH2 0x2790 JUMP JUMPDEST JUMPDEST SWAP1 PUSH1 0x0 MSTORE PUSH1 0x20 PUSH1 0x0 KECCAK256 SWAP1 PUSH1 0x8 MUL ADD PUSH1 0x7 ADD PUSH1 0x0 DUP2 DUP2 SWAP1 SLOAD SWAP1 PUSH2 0x100 EXP SWAP1 DIV PUSH4 0xFFFFFFFF AND DUP1 SWAP3 SWAP2 SWAP1 PUSH2 0xE54 SWAP1 PUSH2 0x269B JUMP JUMPDEST SWAP2 SWAP1 PUSH2 0x100 EXP DUP2 SLOAD DUP2 PUSH4 0xFFFFFFFF MUL NOT AND SWAP1 DUP4 PUSH4 0xFFFFFFFF AND MUL OR SWAP1 SSTORE POP POP PUSH1 0x40 MLOAD DUP1 PUSH1 0x40 ADD PUSH1 0x40 MSTORE DUP1 PUSH1 0xA DUP2 MSTORE PUSH1 0x20 ADD PUSH32 0x4861732067616E61646F00000000000000000000000000000000000000000000 DUP2 MSTORE POP SWAP6 POP POP POP POP POP POP PUSH2 0x13D5 JUMP JUMPDEST PUSH32 0x6158FC8F21C8CC73DDF920956CC75D0E8A48B4FC85817A0BA89EB3B6D2A75441 PUSH1 0x40 MLOAD PUSH2 0xEE2 SWAP1 PUSH2 0x23D8 JUMP JUMPDEST PUSH1 0x40 MLOAD DUP1 SWAP2 SUB SWAP1 LOG1 ADDRESS PUSH20 0xFFFFFFFFFFFFFFFFFFFFFFFFFFFFFFFFFFFFFFFF AND PUSH4 0xE172FCA8 DUP6 PUSH1 0x40 MLOAD DUP3 PUSH4 0xFFFFFFFF AND PUSH1 0xE0 SHL DUP2 MSTORE PUSH1 0x4 ADD PUSH2 0xF23 SWAP2 SWAP1 PUSH2 0x220C JUMP JUMPDEST PUSH1 0x0 PUSH1 0x40 MLOAD DUP1 DUP4 SUB DUP2 PUSH1 0x0 DUP8 DUP1 EXTCODESIZE ISZERO DUP1 ISZERO PUSH2 0xF3D JUMPI PUSH1 0x0 DUP1 REVERT JUMPDEST POP GAS CALL ISZERO DUP1 ISZERO PUSH2 0xF51 JUMPI RETURNDATASIZE PUSH1 0x0 DUP1 RETURNDATACOPY RETURNDATASIZE PUSH1 0x0 REVERT JUMPDEST POP POP POP POP PUSH1 0x40 MLOAD DUP1 PUSH1 0x40 ADD PUSH1 0x40 MSTORE DUP1 PUSH1 0xB DUP2 MSTORE PUSH1 0x20 ADD PUSH32 0x486173207065726469646F000000000000000000000000000000000000000000 DUP2 MSTORE POP SWAP6 POP POP POP POP POP POP PUSH2 0x13D5 JUMP JUMPDEST PUSH1 0x6 DUP2 DUP2 SLOAD DUP2 LT PUSH2 0xFAB JUMPI PUSH2 0xFAA PUSH2 0x2790 JUMP JUMPDEST JUMPDEST SWAP1 PUSH1 0x0 MSTORE PUSH1 0x20 PUSH1 0x0 KECCAK256 SWAP1 PUSH1 0x8 MUL ADD PUSH1 0x7 ADD PUSH1 0x0 SWAP1 SLOAD SWAP1 PUSH2 0x100 EXP SWAP1 DIV PUSH4 0xFFFFFFFF AND PUSH4 0xFFFFFFFF AND PUSH1 0x6 DUP7 DUP2 SLOAD DUP2 LT PUSH2 0xFE7 JUMPI PUSH2 0xFE6 PUSH2 0x2790 JUMP JUMPDEST JUMPDEST SWAP1 PUSH1 0x0 MSTORE PUSH1 0x20 PUSH1 0x0 KECCAK256 SWAP1 PUSH1 0x8 MUL ADD PUSH1 0x7 ADD PUSH1 0x0 SWAP1 SLOAD SWAP1 PUSH2 0x100 EXP SWAP1 DIV PUSH4 0xFFFFFFFF AND PUSH4 0xFFFFFFFF AND EQ ISZERO PUSH2 0x11E8 JUMPI PUSH1 0x32 DUP3 GT PUSH2 0x1106 JUMPI PUSH2 0x1025 PUSH2 0x1A1B JUMP JUMPDEST PUSH1 0x6 DUP2 DUP2 SLOAD DUP2 LT PUSH2 0x1039 JUMPI PUSH2 0x1038 PUSH2 0x2790 JUMP JUMPDEST JUMPDEST SWAP1 PUSH1 0x0 MSTORE PUSH1 0x20 PUSH1 0x0 KECCAK256 SWAP1 PUSH1 0x8 MUL ADD PUSH1 0x4 ADD PUSH1 0x0 DUP2 SLOAD DUP1 SWAP3 SWAP2 SWAP1 PUSH2 0x105B SWAP1 PUSH2 0x2652 JUMP JUMPDEST SWAP2 SWAP1 POP SSTORE POP PUSH1 0x6 DUP2 DUP2 SLOAD DUP2 LT PUSH2 0x1074 JUMPI PUSH2 0x1073 PUSH2 0x2790 JUMP JUMPDEST JUMPDEST SWAP1 PUSH1 0x0 MSTORE PUSH1 0x20 PUSH1 0x0 KECCAK256 SWAP1 PUSH1 0x8 MUL ADD PUSH1 0x7 ADD PUSH1 0x0 DUP2 DUP2 SWAP1 SLOAD SWAP1 PUSH2 0x100 EXP SWAP1 DIV PUSH4 0xFFFFFFFF AND DUP1 SWAP3 SWAP2 SWAP1 PUSH2 0x10A5 SWAP1 PUSH2 0x269B JUMP JUMPDEST SWAP2 SWAP1 PUSH2 0x100 EXP DUP2 SLOAD DUP2 PUSH4 0xFFFFFFFF MUL NOT AND SWAP1 DUP4 PUSH4 0xFFFFFFFF AND MUL OR SWAP1 SSTORE POP POP PUSH1 0x40 MLOAD DUP1 PUSH1 0x40 ADD PUSH1 0x40 MSTORE DUP1 PUSH1 0xA DUP2 MSTORE PUSH1 0x20 ADD PUSH32 0x4861732067616E61646F00000000000000000000000000000000000000000000 DUP2 MSTORE POP SWAP6 POP POP POP POP POP POP PUSH2 0x13D5 JUMP JUMPDEST PUSH32 0x6158FC8F21C8CC73DDF920956CC75D0E8A48B4FC85817A0BA89EB3B6D2A75441 PUSH1 0x40 MLOAD PUSH2 0x1133 SWAP1 PUSH2 0x23D8 JUMP JUMPDEST PUSH1 0x40 MLOAD DUP1 SWAP2 SUB SWAP1 LOG1 ADDRESS PUSH20 0xFFFFFFFFFFFFFFFFFFFFFFFFFFFFFFFFFFFFFFFF AND PUSH4 0xE172FCA8 DUP6 PUSH1 0x40 MLOAD DUP3 PUSH4 0xFFFFFFFF AND PUSH1 0xE0 SHL DUP2 MSTORE PUSH1 0x4 ADD PUSH2 0x1174 SWAP2 SWAP1 PUSH2 0x220C JUMP JUMPDEST PUSH1 0x0 PUSH1 0x40 MLOAD DUP1 DUP4 SUB DUP2 PUSH1 0x0 DUP8 DUP1 EXTCODESIZE ISZERO DUP1 ISZERO PUSH2 0x118E JUMPI PUSH1 0x0 DUP1 REVERT JUMPDEST POP GAS CALL ISZERO DUP1 ISZERO PUSH2 0x11A2 JUMPI RETURNDATASIZE PUSH1 0x0 DUP1 RETURNDATACOPY RETURNDATASIZE PUSH1 0x0 REVERT JUMPDEST POP POP POP POP PUSH1 0x40 MLOAD DUP1 PUSH1 0x40 ADD PUSH1 0x40 MSTORE DUP1 PUSH1 0xB DUP2 MSTORE PUSH1 0x20 ADD PUSH32 0x486173207065726469646F000000000000000000000000000000000000000000 DUP2 MSTORE POP SWAP6 POP POP POP POP POP POP PUSH2 0x13D5 JUMP JUMPDEST PUSH1 0x28 DUP3 GT PUSH2 0x12D9 JUMPI PUSH2 0x11F8 PUSH2 0x1A1B JUMP JUMPDEST PUSH1 0x6 DUP2 DUP2 SLOAD DUP2 LT PUSH2 0x120C JUMPI PUSH2 0x120B PUSH2 0x2790 JUMP JUMPDEST JUMPDEST SWAP1 PUSH1 0x0 MSTORE PUSH1 0x20 PUSH1 0x0 KECCAK256 SWAP1 PUSH1 0x8 MUL ADD PUSH1 0x4 ADD PUSH1 0x0 DUP2 SLOAD DUP1 SWAP3 SWAP2 SWAP1 PUSH2 0x122E SWAP1 PUSH2 0x2652 JUMP JUMPDEST SWAP2 SWAP1 POP SSTORE POP PUSH1 0x6 DUP2 DUP2 SLOAD DUP2 LT PUSH2 0x1247 JUMPI PUSH2 0x1246 PUSH2 0x2790 JUMP JUMPDEST JUMPDEST SWAP1 PUSH1 0x0 MSTORE PUSH1 0x20 PUSH1 0x0 KECCAK256 SWAP1 PUSH1 0x8 MUL ADD PUSH1 0x7 ADD PUSH1 0x0 DUP2 DUP2 SWAP1 SLOAD SWAP1 PUSH2 0x100 EXP SWAP1 DIV PUSH4 0xFFFFFFFF AND DUP1 SWAP3 SWAP2 SWAP1 PUSH2 0x1278 SWAP1 PUSH2 0x269B JUMP JUMPDEST SWAP2 SWAP1 PUSH2 0x100 EXP DUP2 SLOAD DUP2 PUSH4 0xFFFFFFFF MUL NOT AND SWAP1 DUP4 PUSH4 0xFFFFFFFF AND MUL OR SWAP1 SSTORE POP POP PUSH1 0x40 MLOAD DUP1 PUSH1 0x40 ADD PUSH1 0x40 MSTORE DUP1 PUSH1 0xA DUP2 MSTORE PUSH1 0x20 ADD PUSH32 0x4861732067616E61646F00000000000000000000000000000000000000000000 DUP2 MSTORE POP SWAP6 POP POP POP POP POP POP PUSH2 0x13D5 JUMP JUMPDEST PUSH32 0x6158FC8F21C8CC73DDF920956CC75D0E8A48B4FC85817A0BA89EB3B6D2A75441 PUSH1 0x40 MLOAD PUSH2 0x1306 SWAP1 PUSH2 0x23D8 JUMP JUMPDEST PUSH1 0x40 MLOAD DUP1 SWAP2 SUB SWAP1 LOG1 ADDRESS PUSH20 0xFFFFFFFFFFFFFFFFFFFFFFFFFFFFFFFFFFFFFFFF AND PUSH4 0xE172FCA8 DUP6 PUSH1 0x40 MLOAD DUP3 PUSH4 0xFFFFFFFF AND PUSH1 0xE0 SHL DUP2 MSTORE PUSH1 0x4 ADD PUSH2 0x1347 SWAP2 SWAP1 PUSH2 0x220C JUMP JUMPDEST PUSH1 0x0 PUSH1 0x40 MLOAD DUP1 DUP4 SUB DUP2 PUSH1 0x0 DUP8 DUP1 EXTCODESIZE ISZERO DUP1 ISZERO PUSH2 0x1361 JUMPI PUSH1 0x0 DUP1 REVERT JUMPDEST POP GAS CALL ISZERO DUP1 ISZERO PUSH2 0x1375 JUMPI RETURNDATASIZE PUSH1 0x0 DUP1 RETURNDATACOPY RETURNDATASIZE PUSH1 0x0 REVERT JUMPDEST POP POP POP POP PUSH1 0x40 MLOAD DUP1 PUSH1 0x40 ADD PUSH1 0x40 MSTORE DUP1 PUSH1 0xB DUP2 MSTORE PUSH1 0x20 ADD PUSH32 0x486173207065726469646F000000000000000000000000000000000000000000 DUP2 MSTORE POP SWAP6 POP POP POP POP POP POP PUSH2 0x13D5 JUMP JUMPDEST DUP1 DUP1 PUSH2 0x13C6 SWAP1 PUSH2 0x2652 JUMP JUMPDEST SWAP2 POP POP PUSH2 0xC20 JUMP JUMPDEST POP POP POP POP POP JUMPDEST JUMPDEST SWAP2 SWAP1 POP JUMP JUMPDEST PUSH1 0x0 PUSH1 0x8 PUSH1 0x0 DUP4 PUSH20 0xFFFFFFFFFFFFFFFFFFFFFFFFFFFFFFFFFFFFFFFF AND PUSH20 0xFFFFFFFFFFFFFFFFFFFFFFFFFFFFFFFFFFFFFFFF AND DUP2 MSTORE PUSH1 0x20 ADD SWAP1 DUP2 MSTORE PUSH1 0x20 ADD PUSH1 0x0 KECCAK256 SLOAD SWAP1 POP SWAP2 SWAP1 POP JUMP JUMPDEST PUSH2 0x142B PUSH2 0x1A64 JUMP JUMPDEST PUSH20 0xFFFFFFFFFFFFFFFFFFFFFFFFFFFFFFFFFFFFFFFF AND PUSH2 0x1449 PUSH2 0x14DE JUMP JUMPDEST PUSH20 0xFFFFFFFFFFFFFFFFFFFFFFFFFFFFFFFFFFFFFFFF AND EQ PUSH2 0x149F JUMPI PUSH1 0x40 MLOAD PUSH32 0x8C379A000000000000000000000000000000000000000000000000000000000 DUP2 MSTORE PUSH1 0x4 ADD PUSH2 0x1496 SWAP1 PUSH2 0x23B8 JUMP JUMPDEST PUSH1 0x40 MLOAD DUP1 SWAP2 SUB SWAP1 REVERT JUMPDEST PUSH2 0x14A9 PUSH1 0x0 PUSH2 0x1A6C JUMP JUMPDEST JUMP JUMPDEST PUSH1 0x7 PUSH1 0x20 MSTORE DUP1 PUSH1 0x0 MSTORE PUSH1 0x40 PUSH1 0x0 KECCAK256 PUSH1 0x0 SWAP2 POP SLOAD SWAP1 PUSH2 0x100 EXP SWAP1 DIV PUSH20 0xFFFFFFFFFFFFFFFFFFFFFFFFFFFFFFFFFFFFFFFF AND DUP2 JUMP JUMPDEST PUSH1 0x0 DUP1 PUSH1 0x0 SWAP1 SLOAD SWAP1 PUSH2 0x100 EXP SWAP1 DIV PUSH20 0xFFFFFFFFFFFFFFFFFFFFFFFFFFFFFFFFFFFFFFFF AND SWAP1 POP SWAP1 JUMP JUMPDEST POP POP JUMP JUMPDEST PUSH1 0x0 DUP1 SLOAD SWAP1 PUSH2 0x100 EXP SWAP1 DIV PUSH20 0xFFFFFFFFFFFFFFFFFFFFFFFFFFFFFFFFFFFFFFFF AND DUP2 JUMP JUMPDEST POP POP POP POP JUMP JUMPDEST PUSH1 0x6 DUP2 DUP2 SLOAD DUP2 LT PUSH2 0x1545 JUMPI PUSH1 0x0 DUP1 REVERT JUMPDEST SWAP1 PUSH1 0x0 MSTORE PUSH1 0x20 PUSH1 0x0 KECCAK256 SWAP1 PUSH1 0x8 MUL ADD PUSH1 0x0 SWAP2 POP SWAP1 POP DUP1 PUSH1 0x0 ADD PUSH1 0x0 SWAP1 SLOAD SWAP1 PUSH2 0x100 EXP SWAP1 DIV PUSH20 0xFFFFFFFFFFFFFFFFFFFFFFFFFFFFFFFFFFFFFFFF AND SWAP1 DUP1 PUSH1 0x1 ADD DUP1 SLOAD PUSH2 0x158E SWAP1 PUSH2 0x25EF JUMP JUMPDEST DUP1 PUSH1 0x1F ADD PUSH1 0x20 DUP1 SWAP2 DIV MUL PUSH1 0x20 ADD PUSH1 0x40 MLOAD SWAP1 DUP2 ADD PUSH1 0x40 MSTORE DUP1 SWAP3 SWAP2 SWAP1 DUP2 DUP2 MSTORE PUSH1 0x20 ADD DUP3 DUP1 SLOAD PUSH2 0x15BA SWAP1 PUSH2 0x25EF JUMP JUMPDEST DUP1 ISZERO PUSH2 0x1607 JUMPI DUP1 PUSH1 0x1F LT PUSH2 0x15DC JUMPI PUSH2 0x100 DUP1 DUP4 SLOAD DIV MUL DUP4 MSTORE SWAP2 PUSH1 0x20 ADD SWAP2 PUSH2 0x1607 JUMP JUMPDEST DUP3 ADD SWAP2 SWAP1 PUSH1 0x0 MSTORE PUSH1 0x20 PUSH1 0x0 KECCAK256 SWAP1 JUMPDEST DUP2 SLOAD DUP2 MSTORE SWAP1 PUSH1 0x1 ADD SWAP1 PUSH1 0x20 ADD DUP1 DUP4 GT PUSH2 0x15EA JUMPI DUP3 SWAP1 SUB PUSH1 0x1F AND DUP3 ADD SWAP2 JUMPDEST POP POP POP POP POP SWAP1 DUP1 PUSH1 0x2 ADD DUP1 SLOAD PUSH2 0x161C SWAP1 PUSH2 0x25EF JUMP JUMPDEST DUP1 PUSH1 0x1F ADD PUSH1 0x20 DUP1 SWAP2 DIV MUL PUSH1 0x20 ADD PUSH1 0x40 MLOAD SWAP1 DUP2 ADD PUSH1 0x40 MSTORE DUP1 SWAP3 SWAP2 SWAP1 DUP2 DUP2 MSTORE PUSH1 0x20 ADD DUP3 DUP1 SLOAD PUSH2 0x1648 SWAP1 PUSH2 0x25EF JUMP JUMPDEST DUP1 ISZERO PUSH2 0x1695 JUMPI DUP1 PUSH1 0x1F LT PUSH2 0x166A JUMPI PUSH2 0x100 DUP1 DUP4 SLOAD DIV MUL DUP4 MSTORE SWAP2 PUSH1 0x20 ADD SWAP2 PUSH2 0x1695 JUMP JUMPDEST DUP3 ADD SWAP2 SWAP1 PUSH1 0x0 MSTORE PUSH1 0x20 PUSH1 0x0 KECCAK256 SWAP1 JUMPDEST DUP2 SLOAD DUP2 MSTORE SWAP1 PUSH1 0x1 ADD SWAP1 PUSH1 0x20 ADD DUP1 DUP4 GT PUSH2 0x1678 JUMPI DUP3 SWAP1 SUB PUSH1 0x1F AND DUP3 ADD SWAP2 JUMPDEST POP POP POP POP POP SWAP1 DUP1 PUSH1 0x3 ADD DUP1 SLOAD PUSH2 0x16AA SWAP1 PUSH2 0x25EF JUMP JUMPDEST DUP1 PUSH1 0x1F ADD PUSH1 0x20 DUP1 SWAP2 DIV MUL PUSH1 0x20 ADD PUSH1 0x40 MLOAD SWAP1 DUP2 ADD PUSH1 0x40 MSTORE DUP1 SWAP3 SWAP2 SWAP1 DUP2 DUP2 MSTORE PUSH1 0x20 ADD DUP3 DUP1 SLOAD PUSH2 0x16D6 SWAP1 PUSH2 0x25EF JUMP JUMPDEST DUP1 ISZERO PUSH2 0x1723 JUMPI DUP1 PUSH1 0x1F LT PUSH2 0x16F8 JUMPI PUSH2 0x100 DUP1 DUP4 SLOAD DIV MUL DUP4 MSTORE SWAP2 PUSH1 0x20 ADD SWAP2 PUSH2 0x1723 JUMP JUMPDEST DUP3 ADD SWAP2 SWAP1 PUSH1 0x0 MSTORE PUSH1 0x20 PUSH1 0x0 KECCAK256 SWAP1 JUMPDEST DUP2 SLOAD DUP2 MSTORE SWAP1 PUSH1 0x1 ADD SWAP1 PUSH1 0x20 ADD DUP1 DUP4 GT PUSH2 0x1706 JUMPI DUP3 SWAP1 SUB PUSH1 0x1F AND DUP3 ADD SWAP2 JUMPDEST POP POP POP POP POP SWAP1 DUP1 PUSH1 0x4 ADD SLOAD SWAP1 DUP1 PUSH1 0x5 ADD SLOAD SWAP1 DUP1 PUSH1 0x6 ADD SLOAD SWAP1 DUP1 PUSH1 0x7 ADD PUSH1 0x0 SWAP1 SLOAD SWAP1 PUSH2 0x100 EXP SWAP1 DIV PUSH4 0xFFFFFFFF AND SWAP1 POP DUP9 JUMP JUMPDEST PUSH1 0x0 JUMPDEST PUSH1 0x6 DUP1 SLOAD SWAP1 POP DUP2 LT ISZERO PUSH2 0x18F8 JUMPI DUP2 PUSH20 0xFFFFFFFFFFFFFFFFFFFFFFFFFFFFFFFFFFFFFFFF AND PUSH1 0x6 DUP3 DUP2 SLOAD DUP2 LT PUSH2 0x1790 JUMPI PUSH2 0x178F PUSH2 0x2790 JUMP JUMPDEST JUMPDEST SWAP1 PUSH1 0x0 MSTORE PUSH1 0x20 PUSH1 0x0 KECCAK256 SWAP1 PUSH1 0x8 MUL ADD PUSH1 0x0 ADD PUSH1 0x0 SWAP1 SLOAD SWAP1 PUSH2 0x100 EXP SWAP1 DIV PUSH20 0xFFFFFFFFFFFFFFFFFFFFFFFFFFFFFFFFFFFFFFFF AND PUSH20 0xFFFFFFFFFFFFFFFFFFFFFFFFFFFFFFFFFFFFFFFF AND EQ ISZERO PUSH2 0x18E5 JUMPI PUSH32 0x20FDB8AB571BFBAB79104BEA84F9C31CB79C5AE45B5F515C1D6C8393E0028350 PUSH1 0x6 DUP3 DUP2 SLOAD DUP2 LT PUSH2 0x1813 JUMPI PUSH2 0x1812 PUSH2 0x2790 JUMP JUMPDEST JUMPDEST SWAP1 PUSH1 0x0 MSTORE PUSH1 0x20 PUSH1 0x0 KECCAK256 SWAP1 PUSH1 0x8 MUL ADD PUSH1 0x2 ADD PUSH1 0x6 DUP4 DUP2 SLOAD DUP2 LT PUSH2 0x1838 JUMPI PUSH2 0x1837 PUSH2 0x2790 JUMP JUMPDEST JUMPDEST SWAP1 PUSH1 0x0 MSTORE PUSH1 0x20 PUSH1 0x0 KECCAK256 SWAP1 PUSH1 0x8 MUL ADD PUSH1 0x1 ADD PUSH1 0x6 DUP5 DUP2 SLOAD DUP2 LT PUSH2 0x185D JUMPI PUSH2 0x185C PUSH2 0x2790 JUMP JUMPDEST JUMPDEST SWAP1 PUSH1 0x0 MSTORE PUSH1 0x20 PUSH1 0x0 KECCAK256 SWAP1 PUSH1 0x8 MUL ADD PUSH1 0x7 ADD PUSH1 0x0 SWAP1 SLOAD SWAP1 PUSH2 0x100 EXP SWAP1 DIV PUSH4 0xFFFFFFFF AND PUSH1 0x6 DUP6 DUP2 SLOAD DUP2 LT PUSH2 0x1893 JUMPI PUSH2 0x1892 PUSH2 0x2790 JUMP JUMPDEST JUMPDEST SWAP1 PUSH1 0x0 MSTORE PUSH1 0x20 PUSH1 0x0 KECCAK256 SWAP1 PUSH1 0x8 MUL ADD PUSH1 0x4 ADD SLOAD PUSH1 0x6 DUP7 DUP2 SLOAD DUP2 LT PUSH2 0x18B9 JUMPI PUSH2 0x18B8 PUSH2 0x2790 JUMP JUMPDEST JUMPDEST SWAP1 PUSH1 0x0 MSTORE PUSH1 0x20 PUSH1 0x0 KECCAK256 SWAP1 PUSH1 0x8 MUL ADD PUSH1 0x5 ADD SLOAD PUSH1 0x40 MLOAD PUSH2 0x18DC SWAP6 SWAP5 SWAP4 SWAP3 SWAP2 SWAP1 PUSH2 0x22F7 JUMP JUMPDEST PUSH1 0x40 MLOAD DUP1 SWAP2 SUB SWAP1 LOG1 JUMPDEST DUP1 DUP1 PUSH2 0x18F0 SWAP1 PUSH2 0x2652 JUMP JUMPDEST SWAP2 POP POP PUSH2 0x1758 JUMP JUMPDEST POP POP JUMP JUMPDEST PUSH1 0x0 SWAP3 SWAP2 POP POP JUMP JUMPDEST PUSH2 0x190C PUSH2 0x1A64 JUMP JUMPDEST PUSH20 0xFFFFFFFFFFFFFFFFFFFFFFFFFFFFFFFFFFFFFFFF AND PUSH2 0x192A PUSH2 0x14DE JUMP JUMPDEST PUSH20 0xFFFFFFFFFFFFFFFFFFFFFFFFFFFFFFFFFFFFFFFF AND EQ PUSH2 0x1980 JUMPI PUSH1 0x40 MLOAD PUSH32 0x8C379A000000000000000000000000000000000000000000000000000000000 DUP2 MSTORE PUSH1 0x4 ADD PUSH2 0x1977 SWAP1 PUSH2 0x23B8 JUMP JUMPDEST PUSH1 0x40 MLOAD DUP1 SWAP2 SUB SWAP1 REVERT JUMPDEST PUSH1 0x0 PUSH20 0xFFFFFFFFFFFFFFFFFFFFFFFFFFFFFFFFFFFFFFFF AND DUP2 PUSH20 0xFFFFFFFFFFFFFFFFFFFFFFFFFFFFFFFFFFFFFFFF AND EQ ISZERO PUSH2 0x19F0 JUMPI PUSH1 0x40 MLOAD PUSH32 0x8C379A000000000000000000000000000000000000000000000000000000000 DUP2 MSTORE PUSH1 0x4 ADD PUSH2 0x19E7 SWAP1 PUSH2 0x2378 JUMP JUMPDEST PUSH1 0x40 MLOAD DUP1 SWAP2 SUB SWAP1 REVERT JUMPDEST PUSH2 0x19F9 DUP2 PUSH2 0x1A6C JUMP JUMPDEST POP JUMP JUMPDEST PUSH1 0x3 SLOAD TIMESTAMP PUSH2 0x1A0A SWAP2 SWAP1 PUSH2 0x24CB JUMP JUMPDEST PUSH4 0xFFFFFFFF AND DUP2 PUSH1 0x6 ADD DUP2 SWAP1 SSTORE POP POP JUMP JUMPDEST CALLER PUSH20 0xFFFFFFFFFFFFFFFFFFFFFFFFFFFFFFFFFFFFFFFF AND PUSH2 0x8FC SELFBALANCE SWAP1 DUP2 ISZERO MUL SWAP1 PUSH1 0x40 MLOAD PUSH1 0x0 PUSH1 0x40 MLOAD DUP1 DUP4 SUB DUP2 DUP6 DUP9 DUP9 CALL SWAP4 POP POP POP POP ISZERO DUP1 ISZERO PUSH2 0x1A61 JUMPI RETURNDATASIZE PUSH1 0x0 DUP1 RETURNDATACOPY RETURNDATASIZE PUSH1 0x0 REVERT JUMPDEST POP JUMP JUMPDEST PUSH1 0x0 CALLER SWAP1 POP SWAP1 JUMP JUMPDEST PUSH1 0x0 DUP1 PUSH1 0x0 SWAP1 SLOAD SWAP1 PUSH2 0x100 EXP SWAP1 DIV PUSH20 0xFFFFFFFFFFFFFFFFFFFFFFFFFFFFFFFFFFFFFFFF AND SWAP1 POP DUP2 PUSH1 0x0 DUP1 PUSH2 0x100 EXP DUP2 SLOAD DUP2 PUSH20 0xFFFFFFFFFFFFFFFFFFFFFFFFFFFFFFFFFFFFFFFF MUL NOT AND SWAP1 DUP4 PUSH20 0xFFFFFFFFFFFFFFFFFFFFFFFFFFFFFFFFFFFFFFFF AND MUL OR SWAP1 SSTORE POP DUP2 PUSH20 0xFFFFFFFFFFFFFFFFFFFFFFFFFFFFFFFFFFFFFFFF AND DUP2 PUSH20 0xFFFFFFFFFFFFFFFFFFFFFFFFFFFFFFFFFFFFFFFF AND PUSH32 0x8BE0079C531659141344CD1FD0A4F28419497F9722A3DAAFE3B4186F6B6457E0 PUSH1 0x40 MLOAD PUSH1 0x40 MLOAD DUP1 SWAP2 SUB SWAP1 LOG3 POP POP JUMP JUMPDEST DUP3 DUP1 SLOAD PUSH2 0x1B3C SWAP1 PUSH2 0x25EF JUMP JUMPDEST SWAP1 PUSH1 0x0 MSTORE PUSH1 0x20 PUSH1 0x0 KECCAK256 SWAP1 PUSH1 0x1F ADD PUSH1 0x20 SWAP1 DIV DUP2 ADD SWAP3 DUP3 PUSH2 0x1B5E JUMPI PUSH1 0x0 DUP6 SSTORE PUSH2 0x1BA5 JUMP JUMPDEST DUP3 PUSH1 0x1F LT PUSH2 0x1B77 JUMPI DUP1 MLOAD PUSH1 0xFF NOT AND DUP4 DUP1 ADD OR DUP6 SSTORE PUSH2 0x1BA5 JUMP JUMPDEST DUP3 DUP1 ADD PUSH1 0x1 ADD DUP6 SSTORE DUP3 ISZERO PUSH2 0x1BA5 JUMPI SWAP2 DUP3 ADD JUMPDEST DUP3 DUP2 GT ISZERO PUSH2 0x1BA4 JUMPI DUP3 MLOAD DUP3 SSTORE SWAP2 PUSH1 0x20 ADD SWAP2 SWAP1 PUSH1 0x1 ADD SWAP1 PUSH2 0x1B89 JUMP JUMPDEST JUMPDEST POP SWAP1 POP PUSH2 0x1BB2 SWAP2 SWAP1 PUSH2 0x1BB6 JUMP JUMPDEST POP SWAP1 JUMP JUMPDEST JUMPDEST DUP1 DUP3 GT ISZERO PUSH2 0x1BCF JUMPI PUSH1 0x0 DUP2 PUSH1 0x0 SWAP1 SSTORE POP PUSH1 0x1 ADD PUSH2 0x1BB7 JUMP JUMPDEST POP SWAP1 JUMP JUMPDEST PUSH1 0x0 PUSH2 0x1BE6 PUSH2 0x1BE1 DUP5 PUSH2 0x2438 JUMP JUMPDEST PUSH2 0x2413 JUMP JUMPDEST SWAP1 POP DUP3 DUP2 MSTORE PUSH1 0x20 DUP2 ADD DUP5 DUP5 DUP5 ADD GT ISZERO PUSH2 0x1C02 JUMPI PUSH2 0x1C01 PUSH2 0x27F3 JUMP JUMPDEST JUMPDEST PUSH2 0x1C0D DUP5 DUP3 DUP6 PUSH2 0x25AD JUMP JUMPDEST POP SWAP4 SWAP3 POP POP POP JUMP JUMPDEST PUSH1 0x0 PUSH2 0x1C28 PUSH2 0x1C23 DUP5 PUSH2 0x2469 JUMP JUMPDEST PUSH2 0x2413 JUMP JUMPDEST SWAP1 POP DUP3 DUP2 MSTORE PUSH1 0x20 DUP2 ADD DUP5 DUP5 DUP5 ADD GT ISZERO PUSH2 0x1C44 JUMPI PUSH2 0x1C43 PUSH2 0x27F3 JUMP JUMPDEST JUMPDEST PUSH2 0x1C4F DUP5 DUP3 DUP6 PUSH2 0x25AD JUMP JUMPDEST POP SWAP4 SWAP3 POP POP POP JUMP JUMPDEST PUSH1 0x0 DUP2 CALLDATALOAD SWAP1 POP PUSH2 0x1C66 DUP2 PUSH2 0x2952 JUMP JUMPDEST SWAP3 SWAP2 POP POP JUMP JUMPDEST PUSH1 0x0 DUP2 CALLDATALOAD SWAP1 POP PUSH2 0x1C7B DUP2 PUSH2 0x2969 JUMP JUMPDEST SWAP3 SWAP2 POP POP JUMP JUMPDEST PUSH1 0x0 DUP3 PUSH1 0x1F DUP4 ADD SLT PUSH2 0x1C96 JUMPI PUSH2 0x1C95 PUSH2 0x27EE JUMP JUMPDEST JUMPDEST DUP2 CALLDATALOAD PUSH2 0x1CA6 DUP5 DUP3 PUSH1 0x20 DUP7 ADD PUSH2 0x1BD3 JUMP JUMPDEST SWAP2 POP POP SWAP3 SWAP2 POP POP JUMP JUMPDEST PUSH1 0x0 DUP3 PUSH1 0x1F DUP4 ADD SLT PUSH2 0x1CC4 JUMPI PUSH2 0x1CC3 PUSH2 0x27EE JUMP JUMPDEST JUMPDEST DUP2 CALLDATALOAD PUSH2 0x1CD4 DUP5 DUP3 PUSH1 0x20 DUP7 ADD PUSH2 0x1C15 JUMP JUMPDEST SWAP2 POP POP SWAP3 SWAP2 POP POP JUMP JUMPDEST PUSH1 0x0 DUP2 CALLDATALOAD SWAP1 POP PUSH2 0x1CEC DUP2 PUSH2 0x2980 JUMP JUMPDEST SWAP3 SWAP2 POP POP JUMP JUMPDEST PUSH1 0x0 PUSH1 0x20 DUP3 DUP5 SUB SLT ISZERO PUSH2 0x1D08 JUMPI PUSH2 0x1D07 PUSH2 0x27FD JUMP JUMPDEST JUMPDEST PUSH1 0x0 PUSH2 0x1D16 DUP5 DUP3 DUP6 ADD PUSH2 0x1C57 JUMP JUMPDEST SWAP2 POP POP SWAP3 SWAP2 POP POP JUMP JUMPDEST PUSH1 0x0 DUP1 PUSH1 0x40 DUP4 DUP6 SUB SLT ISZERO PUSH2 0x1D36 JUMPI PUSH2 0x1D35 PUSH2 0x27FD JUMP JUMPDEST JUMPDEST PUSH1 0x0 PUSH2 0x1D44 DUP6 DUP3 DUP7 ADD PUSH2 0x1C57 JUMP JUMPDEST SWAP3 POP POP PUSH1 0x20 PUSH2 0x1D55 DUP6 DUP3 DUP7 ADD PUSH2 0x1C57 JUMP JUMPDEST SWAP2 POP POP SWAP3 POP SWAP3 SWAP1 POP JUMP JUMPDEST PUSH1 0x0 DUP1 PUSH1 0x0 PUSH1 0x60 DUP5 DUP7 SUB SLT ISZERO PUSH2 0x1D78 JUMPI PUSH2 0x1D77 PUSH2 0x27FD JUMP JUMPDEST JUMPDEST PUSH1 0x0 PUSH2 0x1D86 DUP7 DUP3 DUP8 ADD PUSH2 0x1C57 JUMP JUMPDEST SWAP4 POP POP PUSH1 0x20 PUSH2 0x1D97 DUP7 DUP3 DUP8 ADD PUSH2 0x1C57 JUMP JUMPDEST SWAP3 POP POP PUSH1 0x40 PUSH2 0x1DA8 DUP7 DUP3 DUP8 ADD PUSH2 0x1CDD JUMP JUMPDEST SWAP2 POP POP SWAP3 POP SWAP3 POP SWAP3 JUMP JUMPDEST PUSH1 0x0 DUP1 PUSH1 0x0 DUP1 PUSH1 0x80 DUP6 DUP8 SUB SLT ISZERO PUSH2 0x1DCC JUMPI PUSH2 0x1DCB PUSH2 0x27FD JUMP JUMPDEST JUMPDEST PUSH1 0x0 PUSH2 0x1DDA DUP8 DUP3 DUP9 ADD PUSH2 0x1C57 JUMP JUMPDEST SWAP5 POP POP PUSH1 0x20 PUSH2 0x1DEB DUP8 DUP3 DUP9 ADD PUSH2 0x1C57 JUMP JUMPDEST SWAP4 POP POP PUSH1 0x40 PUSH2 0x1DFC DUP8 DUP3 DUP9 ADD PUSH2 0x1CDD JUMP JUMPDEST SWAP3 POP POP PUSH1 0x60 DUP6 ADD CALLDATALOAD PUSH8 0xFFFFFFFFFFFFFFFF DUP2 GT ISZERO PUSH2 0x1E1D JUMPI PUSH2 0x1E1C PUSH2 0x27F8 JUMP JUMPDEST JUMPDEST PUSH2 0x1E29 DUP8 DUP3 DUP9 ADD PUSH2 0x1C81 JUMP JUMPDEST SWAP2 POP POP SWAP3 SWAP6 SWAP2 SWAP5 POP SWAP3 POP JUMP JUMPDEST PUSH1 0x0 DUP1 PUSH1 0x40 DUP4 DUP6 SUB SLT ISZERO PUSH2 0x1E4C JUMPI PUSH2 0x1E4B PUSH2 0x27FD JUMP JUMPDEST JUMPDEST PUSH1 0x0 PUSH2 0x1E5A DUP6 DUP3 DUP7 ADD PUSH2 0x1C57 JUMP JUMPDEST SWAP3 POP POP PUSH1 0x20 PUSH2 0x1E6B DUP6 DUP3 DUP7 ADD PUSH2 0x1C6C JUMP JUMPDEST SWAP2 POP POP SWAP3 POP SWAP3 SWAP1 POP JUMP JUMPDEST PUSH1 0x0 DUP1 PUSH1 0x0 PUSH1 0x60 DUP5 DUP7 SUB SLT ISZERO PUSH2 0x1E8E JUMPI PUSH2 0x1E8D PUSH2 0x27FD JUMP JUMPDEST JUMPDEST PUSH1 0x0 PUSH2 0x1E9C DUP7 DUP3 DUP8 ADD PUSH2 0x1C57 JUMP JUMPDEST SWAP4 POP POP PUSH1 0x20 DUP5 ADD CALLDATALOAD PUSH8 0xFFFFFFFFFFFFFFFF DUP2 GT ISZERO PUSH2 0x1EBD JUMPI PUSH2 0x1EBC PUSH2 0x27F8 JUMP JUMPDEST JUMPDEST PUSH2 0x1EC9 DUP7 DUP3 DUP8 ADD PUSH2 0x1CAF JUMP JUMPDEST SWAP3 POP POP PUSH1 0x40 DUP5 ADD CALLDATALOAD PUSH8 0xFFFFFFFFFFFFFFFF DUP2 GT ISZERO PUSH2 0x1EEA JUMPI PUSH2 0x1EE9 PUSH2 0x27F8 JUMP JUMPDEST JUMPDEST PUSH2 0x1EF6 DUP7 DUP3 DUP8 ADD PUSH2 0x1CAF JUMP JUMPDEST SWAP2 POP POP SWAP3 POP SWAP3 POP SWAP3 JUMP JUMPDEST PUSH1 0x0 DUP1 PUSH1 0x40 DUP4 DUP6 SUB SLT ISZERO PUSH2 0x1F17 JUMPI PUSH2 0x1F16 PUSH2 0x27FD JUMP JUMPDEST JUMPDEST PUSH1 0x0 PUSH2 0x1F25 DUP6 DUP3 DUP7 ADD PUSH2 0x1C57 JUMP JUMPDEST SWAP3 POP POP PUSH1 0x20 PUSH2 0x1F36 DUP6 DUP3 DUP7 ADD PUSH2 0x1CDD JUMP JUMPDEST SWAP2 POP POP SWAP3 POP SWAP3 SWAP1 POP JUMP JUMPDEST PUSH1 0x0 DUP1 PUSH1 0x0 PUSH1 0x60 DUP5 DUP7 SUB SLT ISZERO PUSH2 0x1F59 JUMPI PUSH2 0x1F58 PUSH2 0x27FD JUMP JUMPDEST JUMPDEST PUSH1 0x0 DUP5 ADD CALLDATALOAD PUSH8 0xFFFFFFFFFFFFFFFF DUP2 GT ISZERO PUSH2 0x1F77 JUMPI PUSH2 0x1F76 PUSH2 0x27F8 JUMP JUMPDEST JUMPDEST PUSH2 0x1F83 DUP7 DUP3 DUP8 ADD PUSH2 0x1CAF JUMP JUMPDEST SWAP4 POP POP PUSH1 0x20 DUP5 ADD CALLDATALOAD PUSH8 0xFFFFFFFFFFFFFFFF DUP2 GT ISZERO PUSH2 0x1FA4 JUMPI PUSH2 0x1FA3 PUSH2 0x27F8 JUMP JUMPDEST JUMPDEST PUSH2 0x1FB0 DUP7 DUP3 DUP8 ADD PUSH2 0x1CAF JUMP JUMPDEST SWAP3 POP POP PUSH1 0x40 DUP5 ADD CALLDATALOAD PUSH8 0xFFFFFFFFFFFFFFFF DUP2 GT ISZERO PUSH2 0x1FD1 JUMPI PUSH2 0x1FD0 PUSH2 0x27F8 JUMP JUMPDEST JUMPDEST PUSH2 0x1FDD DUP7 DUP3 DUP8 ADD PUSH2 0x1CAF JUMP JUMPDEST SWAP2 POP POP SWAP3 POP SWAP3 POP SWAP3 JUMP JUMPDEST PUSH1 0x0 PUSH1 0x20 DUP3 DUP5 SUB SLT ISZERO PUSH2 0x1FFD JUMPI PUSH2 0x1FFC PUSH2 0x27FD JUMP JUMPDEST JUMPDEST PUSH1 0x0 PUSH2 0x200B DUP5 DUP3 DUP6 ADD PUSH2 0x1CDD JUMP JUMPDEST SWAP2 POP POP SWAP3 SWAP2 POP POP JUMP JUMPDEST PUSH2 0x201D DUP2 PUSH2 0x2555 JUMP JUMPDEST DUP3 MSTORE POP POP JUMP JUMPDEST PUSH2 0x202C DUP2 PUSH2 0x2567 JUMP JUMPDEST DUP3 MSTORE POP POP JUMP JUMPDEST PUSH1 0x0 PUSH2 0x203D DUP3 PUSH2 0x24AF JUMP JUMPDEST PUSH2 0x2047 DUP2 DUP6 PUSH2 0x24BA JUMP JUMPDEST SWAP4 POP PUSH2 0x2057 DUP2 DUP6 PUSH1 0x20 DUP7 ADD PUSH2 0x25BC JUMP JUMPDEST PUSH2 0x2060 DUP2 PUSH2 0x2802 JUMP JUMPDEST DUP5 ADD SWAP2 POP POP SWAP3 SWAP2 POP POP JUMP JUMPDEST PUSH1 0x0 DUP2 SLOAD PUSH2 0x2078 DUP2 PUSH2 0x25EF JUMP JUMPDEST PUSH2 0x2082 DUP2 DUP7 PUSH2 0x24BA JUMP JUMPDEST SWAP5 POP PUSH1 0x1 DUP3 AND PUSH1 0x0 DUP2 EQ PUSH2 0x209D JUMPI PUSH1 0x1 DUP2 EQ PUSH2 0x20AF JUMPI PUSH2 0x20E2 JUMP JUMPDEST PUSH1 0xFF NOT DUP4 AND DUP7 MSTORE PUSH1 0x20 DUP7 ADD SWAP4 POP PUSH2 0x20E2 JUMP JUMPDEST PUSH2 0x20B8 DUP6 PUSH2 0x249A JUMP JUMPDEST PUSH1 0x0 JUMPDEST DUP4 DUP2 LT ISZERO PUSH2 0x20DA JUMPI DUP2 SLOAD DUP2 DUP10 ADD MSTORE PUSH1 0x1 DUP3 ADD SWAP2 POP PUSH1 0x20 DUP2 ADD SWAP1 POP PUSH2 0x20BB JUMP JUMPDEST DUP1 DUP9 ADD SWAP6 POP POP POP JUMPDEST POP POP POP SWAP3 SWAP2 POP POP JUMP JUMPDEST PUSH1 0x0 PUSH2 0x20F8 PUSH1 0x28 DUP4 PUSH2 0x24BA JUMP JUMPDEST SWAP2 POP PUSH2 0x2103 DUP3 PUSH2 0x2813 JUMP JUMPDEST PUSH1 0x40 DUP3 ADD SWAP1 POP SWAP2 SWAP1 POP JUMP JUMPDEST PUSH1 0x0 PUSH2 0x211B PUSH1 0x26 DUP4 PUSH2 0x24BA JUMP JUMPDEST SWAP2 POP PUSH2 0x2126 DUP3 PUSH2 0x2862 JUMP JUMPDEST PUSH1 0x40 DUP3 ADD SWAP1 POP SWAP2 SWAP1 POP JUMP JUMPDEST PUSH1 0x0 PUSH2 0x213E PUSH1 0x32 DUP4 PUSH2 0x24BA JUMP JUMPDEST SWAP2 POP PUSH2 0x2149 DUP3 PUSH2 0x28B1 JUMP JUMPDEST PUSH1 0x40 DUP3 ADD SWAP1 POP SWAP2 SWAP1 POP JUMP JUMPDEST PUSH1 0x0 PUSH2 0x2161 PUSH1 0x20 DUP4 PUSH2 0x24BA JUMP JUMPDEST SWAP2 POP PUSH2 0x216C DUP3 PUSH2 0x2900 JUMP JUMPDEST PUSH1 0x20 DUP3 ADD SWAP1 POP SWAP2 SWAP1 POP JUMP JUMPDEST PUSH1 0x0 PUSH2 0x2184 PUSH1 0x15 DUP4 PUSH2 0x24BA JUMP JUMPDEST SWAP2 POP PUSH2 0x218F DUP3 PUSH2 0x2929 JUMP JUMPDEST PUSH1 0x20 DUP3 ADD SWAP1 POP SWAP2 SWAP1 POP JUMP JUMPDEST PUSH2 0x21A3 DUP2 PUSH2 0x2593 JUMP JUMPDEST DUP3 MSTORE POP POP JUMP JUMPDEST PUSH2 0x21BA PUSH2 0x21B5 DUP3 PUSH2 0x2593 JUMP JUMPDEST PUSH2 0x26C8 JUMP JUMPDEST DUP3 MSTORE POP POP JUMP JUMPDEST PUSH2 0x21C9 DUP2 PUSH2 0x259D JUMP JUMPDEST DUP3 MSTORE POP POP JUMP JUMPDEST PUSH1 0x0 PUSH2 0x21DB DUP3 DUP7 PUSH2 0x21A9 JUMP JUMPDEST PUSH1 0x20 DUP3 ADD SWAP2 POP PUSH2 0x21EB DUP3 DUP6 PUSH2 0x21A9 JUMP JUMPDEST PUSH1 0x20 DUP3 ADD SWAP2 POP PUSH2 0x21FB DUP3 DUP5 PUSH2 0x21A9 JUMP JUMPDEST PUSH1 0x20 DUP3 ADD SWAP2 POP DUP2 SWAP1 POP SWAP5 SWAP4 POP POP POP POP JUMP JUMPDEST PUSH1 0x0 PUSH1 0x20 DUP3 ADD SWAP1 POP PUSH2 0x2221 PUSH1 0x0 DUP4 ADD DUP5 PUSH2 0x2014 JUMP JUMPDEST SWAP3 SWAP2 POP POP JUMP JUMPDEST PUSH1 0x0 PUSH2 0x100 DUP3 ADD SWAP1 POP PUSH2 0x223D PUSH1 0x0 DUP4 ADD DUP12 PUSH2 0x2014 JUMP JUMPDEST DUP2 DUP2 SUB PUSH1 0x20 DUP4 ADD MSTORE PUSH2 0x224F DUP2 DUP11 PUSH2 0x2032 JUMP JUMPDEST SWAP1 POP DUP2 DUP2 SUB PUSH1 0x40 DUP4 ADD MSTORE PUSH2 0x2263 DUP2 DUP10 PUSH2 0x2032 JUMP JUMPDEST SWAP1 POP DUP2 DUP2 SUB PUSH1 0x60 DUP4 ADD MSTORE PUSH2 0x2277 DUP2 DUP9 PUSH2 0x2032 JUMP JUMPDEST SWAP1 POP PUSH2 0x2286 PUSH1 0x80 DUP4 ADD DUP8 PUSH2 0x219A JUMP JUMPDEST PUSH2 0x2293 PUSH1 0xA0 DUP4 ADD DUP7 PUSH2 0x219A JUMP JUMPDEST PUSH2 0x22A0 PUSH1 0xC0 DUP4 ADD DUP6 PUSH2 0x219A JUMP JUMPDEST PUSH2 0x22AD PUSH1 0xE0 DUP4 ADD DUP5 PUSH2 0x21C0 JUMP JUMPDEST SWAP10 SWAP9 POP POP POP POP POP POP POP POP POP JUMP JUMPDEST PUSH1 0x0 PUSH1 0x20 DUP3 ADD SWAP1 POP PUSH2 0x22CF PUSH1 0x0 DUP4 ADD DUP5 PUSH2 0x2023 JUMP JUMPDEST SWAP3 SWAP2 POP POP JUMP JUMPDEST PUSH1 0x0 PUSH1 0x20 DUP3 ADD SWAP1 POP DUP2 DUP2 SUB PUSH1 0x0 DUP4 ADD MSTORE PUSH2 0x22EF DUP2 DUP5 PUSH2 0x2032 JUMP JUMPDEST SWAP1 POP SWAP3 SWAP2 POP POP JUMP JUMPDEST PUSH1 0x0 PUSH1 0xA0 DUP3 ADD SWAP1 POP DUP2 DUP2 SUB PUSH1 0x0 DUP4 ADD MSTORE PUSH2 0x2311 DUP2 DUP9 PUSH2 0x206B JUMP JUMPDEST SWAP1 POP DUP2 DUP2 SUB PUSH1 0x20 DUP4 ADD MSTORE PUSH2 0x2325 DUP2 DUP8 PUSH2 0x206B JUMP JUMPDEST SWAP1 POP PUSH2 0x2334 PUSH1 0x40 DUP4 ADD DUP7 PUSH2 0x21C0 JUMP JUMPDEST PUSH2 0x2341 PUSH1 0x60 DUP4 ADD DUP6 PUSH2 0x219A JUMP JUMPDEST PUSH2 0x234E PUSH1 0x80 DUP4 ADD DUP5 PUSH2 0x219A JUMP JUMPDEST SWAP7 SWAP6 POP POP POP POP POP POP JUMP JUMPDEST PUSH1 0x0 PUSH1 0x20 DUP3 ADD SWAP1 POP DUP2 DUP2 SUB PUSH1 0x0 DUP4 ADD MSTORE PUSH2 0x2371 DUP2 PUSH2 0x20EB JUMP JUMPDEST SWAP1 POP SWAP2 SWAP1 POP JUMP JUMPDEST PUSH1 0x0 PUSH1 0x20 DUP3 ADD SWAP1 POP DUP2 DUP2 SUB PUSH1 0x0 DUP4 ADD MSTORE PUSH2 0x2391 DUP2 PUSH2 0x210E JUMP JUMPDEST SWAP1 POP SWAP2 SWAP1 POP JUMP JUMPDEST PUSH1 0x0 PUSH1 0x20 DUP3 ADD SWAP1 POP DUP2 DUP2 SUB PUSH1 0x0 DUP4 ADD MSTORE PUSH2 0x23B1 DUP2 PUSH2 0x2131 JUMP JUMPDEST SWAP1 POP SWAP2 SWAP1 POP JUMP JUMPDEST PUSH1 0x0 PUSH1 0x20 DUP3 ADD SWAP1 POP DUP2 DUP2 SUB PUSH1 0x0 DUP4 ADD MSTORE PUSH2 0x23D1 DUP2 PUSH2 0x2154 JUMP JUMPDEST SWAP1 POP SWAP2 SWAP1 POP JUMP JUMPDEST PUSH1 0x0 PUSH1 0x20 DUP3 ADD SWAP1 POP DUP2 DUP2 SUB PUSH1 0x0 DUP4 ADD MSTORE PUSH2 0x23F1 DUP2 PUSH2 0x2177 JUMP JUMPDEST SWAP1 POP SWAP2 SWAP1 POP JUMP JUMPDEST PUSH1 0x0 PUSH1 0x20 DUP3 ADD SWAP1 POP PUSH2 0x240D PUSH1 0x0 DUP4 ADD DUP5 PUSH2 0x219A JUMP JUMPDEST SWAP3 SWAP2 POP POP JUMP JUMPDEST PUSH1 0x0 PUSH2 0x241D PUSH2 0x242E JUMP JUMPDEST SWAP1 POP PUSH2 0x2429 DUP3 DUP3 PUSH2 0x2621 JUMP JUMPDEST SWAP2 SWAP1 POP JUMP JUMPDEST PUSH1 0x0 PUSH1 0x40 MLOAD SWAP1 POP SWAP1 JUMP JUMPDEST PUSH1 0x0 PUSH8 0xFFFFFFFFFFFFFFFF DUP3 GT ISZERO PUSH2 0x2453 JUMPI PUSH2 0x2452 PUSH2 0x27BF JUMP JUMPDEST JUMPDEST PUSH2 0x245C DUP3 PUSH2 0x2802 JUMP JUMPDEST SWAP1 POP PUSH1 0x20 DUP2 ADD SWAP1 POP SWAP2 SWAP1 POP JUMP JUMPDEST PUSH1 0x0 PUSH8 0xFFFFFFFFFFFFFFFF DUP3 GT ISZERO PUSH2 0x2484 JUMPI PUSH2 0x2483 PUSH2 0x27BF JUMP JUMPDEST JUMPDEST PUSH2 0x248D DUP3 PUSH2 0x2802 JUMP JUMPDEST SWAP1 POP PUSH1 0x20 DUP2 ADD SWAP1 POP SWAP2 SWAP1 POP JUMP JUMPDEST PUSH1 0x0 DUP2 SWAP1 POP DUP2 PUSH1 0x0 MSTORE PUSH1 0x20 PUSH1 0x0 KECCAK256 SWAP1 POP SWAP2 SWAP1 POP JUMP JUMPDEST PUSH1 0x0 DUP2 MLOAD SWAP1 POP SWAP2 SWAP1 POP JUMP JUMPDEST PUSH1 0x0 DUP3 DUP3 MSTORE PUSH1 0x20 DUP3 ADD SWAP1 POP SWAP3 SWAP2 POP POP JUMP JUMPDEST PUSH1 0x0 PUSH2 0x24D6 DUP3 PUSH2 0x2593 JUMP JUMPDEST SWAP2 POP PUSH2 0x24E1 DUP4 PUSH2 0x2593 JUMP JUMPDEST SWAP3 POP DUP3 PUSH32 0xFFFFFFFFFFFFFFFFFFFFFFFFFFFFFFFFFFFFFFFFFFFFFFFFFFFFFFFFFFFFFFFF SUB DUP3 GT ISZERO PUSH2 0x2516 JUMPI PUSH2 0x2515 PUSH2 0x2703 JUMP JUMPDEST JUMPDEST DUP3 DUP3 ADD SWAP1 POP SWAP3 SWAP2 POP POP JUMP JUMPDEST PUSH1 0x0 PUSH2 0x252C DUP3 PUSH2 0x2593 JUMP JUMPDEST SWAP2 POP PUSH2 0x2537 DUP4 PUSH2 0x2593 JUMP JUMPDEST SWAP3 POP DUP3 DUP3 LT ISZERO PUSH2 0x254A JUMPI PUSH2 0x2549 PUSH2 0x2703 JUMP JUMPDEST JUMPDEST DUP3 DUP3 SUB SWAP1 POP SWAP3 SWAP2 POP POP JUMP JUMPDEST PUSH1 0x0 PUSH2 0x2560 DUP3 PUSH2 0x2573 JUMP JUMPDEST SWAP1 POP SWAP2 SWAP1 POP JUMP JUMPDEST PUSH1 0x0 DUP2 ISZERO ISZERO SWAP1 POP SWAP2 SWAP1 POP JUMP JUMPDEST PUSH1 0x0 PUSH20 0xFFFFFFFFFFFFFFFFFFFFFFFFFFFFFFFFFFFFFFFF DUP3 AND SWAP1 POP SWAP2 SWAP1 POP JUMP JUMPDEST PUSH1 0x0 DUP2 SWAP1 POP SWAP2 SWAP1 POP JUMP JUMPDEST PUSH1 0x0 PUSH4 0xFFFFFFFF DUP3 AND SWAP1 POP SWAP2 SWAP1 POP JUMP JUMPDEST DUP3 DUP2 DUP4 CALLDATACOPY PUSH1 0x0 DUP4 DUP4 ADD MSTORE POP POP POP JUMP JUMPDEST PUSH1 0x0 JUMPDEST DUP4 DUP2 LT ISZERO PUSH2 0x25DA JUMPI DUP1 DUP3 ADD MLOAD DUP2 DUP5 ADD MSTORE PUSH1 0x20 DUP2 ADD SWAP1 POP PUSH2 0x25BF JUMP JUMPDEST DUP4 DUP2 GT ISZERO PUSH2 0x25E9 JUMPI PUSH1 0x0 DUP5 DUP5 ADD MSTORE JUMPDEST POP POP POP POP JUMP JUMPDEST PUSH1 0x0 PUSH1 0x2 DUP3 DIV SWAP1 POP PUSH1 0x1 DUP3 AND DUP1 PUSH2 0x2607 JUMPI PUSH1 0x7F DUP3 AND SWAP2 POP JUMPDEST PUSH1 0x20 DUP3 LT DUP2 EQ ISZERO PUSH2 0x261B JUMPI PUSH2 0x261A PUSH2 0x2761 JUMP JUMPDEST JUMPDEST POP SWAP2 SWAP1 POP JUMP JUMPDEST PUSH2 0x262A DUP3 PUSH2 0x2802 JUMP JUMPDEST DUP2 ADD DUP2 DUP2 LT PUSH8 0xFFFFFFFFFFFFFFFF DUP3 GT OR ISZERO PUSH2 0x2649 JUMPI PUSH2 0x2648 PUSH2 0x27BF JUMP JUMPDEST JUMPDEST DUP1 PUSH1 0x40 MSTORE POP POP POP JUMP JUMPDEST PUSH1 0x0 PUSH2 0x265D DUP3 PUSH2 0x2593 JUMP JUMPDEST SWAP2 POP PUSH32 0xFFFFFFFFFFFFFFFFFFFFFFFFFFFFFFFFFFFFFFFFFFFFFFFFFFFFFFFFFFFFFFFF DUP3 EQ ISZERO PUSH2 0x2690 JUMPI PUSH2 0x268F PUSH2 0x2703 JUMP JUMPDEST JUMPDEST PUSH1 0x1 DUP3 ADD SWAP1 POP SWAP2 SWAP1 POP JUMP JUMPDEST PUSH1 0x0 PUSH2 0x26A6 DUP3 PUSH2 0x259D JUMP JUMPDEST SWAP2 POP PUSH4 0xFFFFFFFF DUP3 EQ ISZERO PUSH2 0x26BD JUMPI PUSH2 0x26BC PUSH2 0x2703 JUMP JUMPDEST JUMPDEST PUSH1 0x1 DUP3 ADD SWAP1 POP SWAP2 SWAP1 POP JUMP JUMPDEST PUSH1 0x0 DUP2 SWAP1 POP SWAP2 SWAP1 POP JUMP JUMPDEST PUSH1 0x0 PUSH2 0x26DD DUP3 PUSH2 0x2593 JUMP JUMPDEST SWAP2 POP PUSH2 0x26E8 DUP4 PUSH2 0x2593 JUMP JUMPDEST SWAP3 POP DUP3 PUSH2 0x26F8 JUMPI PUSH2 0x26F7 PUSH2 0x2732 JUMP JUMPDEST JUMPDEST DUP3 DUP3 MOD SWAP1 POP SWAP3 SWAP2 POP POP JUMP JUMPDEST PUSH32 0x4E487B7100000000000000000000000000000000000000000000000000000000 PUSH1 0x0 MSTORE PUSH1 0x11 PUSH1 0x4 MSTORE PUSH1 0x24 PUSH1 0x0 REVERT JUMPDEST PUSH32 0x4E487B7100000000000000000000000000000000000000000000000000000000 PUSH1 0x0 MSTORE PUSH1 0x12 PUSH1 0x4 MSTORE PUSH1 0x24 PUSH1 0x0 REVERT JUMPDEST PUSH32 0x4E487B7100000000000000000000000000000000000000000000000000000000 PUSH1 0x0 MSTORE PUSH1 0x22 PUSH1 0x4 MSTORE PUSH1 0x24 PUSH1 0x0 REVERT JUMPDEST PUSH32 0x4E487B7100000000000000000000000000000000000000000000000000000000 PUSH1 0x0 MSTORE PUSH1 0x32 PUSH1 0x4 MSTORE PUSH1 0x24 PUSH1 0x0 REVERT JUMPDEST PUSH32 0x4E487B7100000000000000000000000000000000000000000000000000000000 PUSH1 0x0 MSTORE PUSH1 0x41 PUSH1 0x4 MSTORE PUSH1 0x24 PUSH1 0x0 REVERT JUMPDEST PUSH1 0x0 DUP1 REVERT JUMPDEST PUSH1 0x0 DUP1 REVERT JUMPDEST PUSH1 0x0 DUP1 REVERT JUMPDEST PUSH1 0x0 DUP1 REVERT JUMPDEST PUSH1 0x0 PUSH1 0x1F NOT PUSH1 0x1F DUP4 ADD AND SWAP1 POP SWAP2 SWAP1 POP JUMP JUMPDEST PUSH32 0x536F6C6F2073652070756564652074656E657220756E20636F63686520706F72 PUSH1 0x0 DUP3 ADD MSTORE PUSH32 0x20706572736F6E61000000000000000000000000000000000000000000000000 PUSH1 0x20 DUP3 ADD MSTORE POP JUMP JUMPDEST PUSH32 0x4F776E61626C653A206E6577206F776E657220697320746865207A65726F2061 PUSH1 0x0 DUP3 ADD MSTORE PUSH32 0x6464726573730000000000000000000000000000000000000000000000000000 PUSH1 0x20 DUP3 ADD MSTORE POP JUMP JUMPDEST PUSH32 0x4E6F2068617920636F6368657320737566696369656E74657320706172612069 PUSH1 0x0 DUP3 ADD MSTORE PUSH32 0x6E696369617220756E6120636172726572610000000000000000000000000000 PUSH1 0x20 DUP3 ADD MSTORE POP JUMP JUMPDEST PUSH32 0x4F776E61626C653A2063616C6C6572206973206E6F7420746865206F776E6572 PUSH1 0x0 DUP3 ADD MSTORE POP JUMP JUMPDEST PUSH32 0x456C20636F6368652067616E61646F722065733A200000000000000000000000 PUSH1 0x0 DUP3 ADD MSTORE POP JUMP JUMPDEST PUSH2 0x295B DUP2 PUSH2 0x2555 JUMP JUMPDEST DUP2 EQ PUSH2 0x2966 JUMPI PUSH1 0x0 DUP1 REVERT JUMPDEST POP JUMP JUMPDEST PUSH2 0x2972 DUP2 PUSH2 0x2567 JUMP JUMPDEST DUP2 EQ PUSH2 0x297D JUMPI PUSH1 0x0 DUP1 REVERT JUMPDEST POP JUMP JUMPDEST PUSH2 0x2989 DUP2 PUSH2 0x2593 JUMP JUMPDEST DUP2 EQ PUSH2 0x2994 JUMPI PUSH1 0x0 DUP1 REVERT JUMPDEST POP JUMP INVALID LOG2 PUSH5 0x6970667358 0x22 SLT KECCAK256 GT 0xE6 0xE 0x4D 0xAC 0xEE 0xCC DIV 0xC4 DUP6 DUP2 0x27 EXP 0xD8 0xCF 0xBD 0x5F PUSH25 0x559ECEC8D89925CCFACF62D133DF64736F6C63430008070033 "
				},
				"gasEstimates": {
					"creation": {
						"codeDepositCost": "2140200",
						"executionCost": "infinite",
						"totalCost": "infinite"
					},
					"external": {
						"Apostar(uint256)": "infinite",
						"_owner()": "2533",
						"anadirCoche(string,string,string)": "infinite",
						"approve(address,uint256)": "672",
						"balanceOf(address)": "2864",
						"cocheDePropietario(uint256)": "2906",
						"comprarCoche(address,string,string)": "infinite",
						"getApproved(uint256)": "689",
						"isApprovedForAll(address,address)": "infinite",
						"listaCoches(uint256)": "infinite",
						"numeroCochesPersona(address)": "2904",
						"owner()": "2611",
						"ownerOf(uint256)": "710",
						"renounceOwnership()": "30419",
						"safeTransferFrom(address,address,uint256)": "infinite",
						"safeTransferFrom(address,address,uint256,bytes)": "infinite",
						"setApprovalForAll(address,bool)": "745",
						"subirDeNivel(address)": "infinite",
						"transferFrom(address,address,uint256)": "infinite",
						"transferOwnership(address)": "30855",
						"verCochePropietario(address)": "infinite"
					}
				},
				"methodIdentifiers": {
					"Apostar(uint256)": "6b6f0494",
					"_owner()": "b2bdfa7b",
					"anadirCoche(string,string,string)": "2458c544",
					"approve(address,uint256)": "095ea7b3",
					"balanceOf(address)": "70a08231",
					"cocheDePropietario(uint256)": "858b0554",
					"comprarCoche(address,string,string)": "049a5f65",
					"getApproved(uint256)": "081812fc",
					"isApprovedForAll(address,address)": "e985e9c5",
					"listaCoches(uint256)": "d735573d",
					"numeroCochesPersona(address)": "1c6743e4",
					"owner()": "8da5cb5b",
					"ownerOf(uint256)": "6352211e",
					"renounceOwnership()": "715018a6",
					"safeTransferFrom(address,address,uint256)": "42842e0e",
					"safeTransferFrom(address,address,uint256,bytes)": "b88d4fde",
					"setApprovalForAll(address,bool)": "a22cb465",
					"subirDeNivel(address)": "6a7d1816",
					"transferFrom(address,address,uint256)": "23b872dd",
					"transferOwnership(address)": "f2fde38b",
					"verCochePropietario(address)": "e172fca8"
				}
			},
			"storageLayout": {
				"storage": [
					{
						"astId": 215,
						"contract": "contracts/CarreraCoches/cocheToken.sol:CocheToken",
						"label": "_owner",
						"offset": 0,
						"slot": "0",
						"type": "t_address"
					},
					{
						"astId": 337,
						"contract": "contracts/CarreraCoches/cocheToken.sol:CocheToken",
						"label": "randNonce",
						"offset": 0,
						"slot": "1",
						"type": "t_uint256"
					},
					{
						"astId": 340,
						"contract": "contracts/CarreraCoches/cocheToken.sol:CocheToken",
						"label": "contador",
						"offset": 0,
						"slot": "2",
						"type": "t_uint256"
					},
					{
						"astId": 343,
						"contract": "contracts/CarreraCoches/cocheToken.sol:CocheToken",
						"label": "cooldown",
						"offset": 0,
						"slot": "3",
						"type": "t_uint256"
					},
					{
						"astId": 346,
						"contract": "contracts/CarreraCoches/cocheToken.sol:CocheToken",
						"label": "subirNivel",
						"offset": 0,
						"slot": "4",
						"type": "t_uint256"
					},
					{
						"astId": 349,
						"contract": "contracts/CarreraCoches/cocheToken.sol:CocheToken",
						"label": "cambiarCocheV",
						"offset": 0,
						"slot": "5",
						"type": "t_uint256"
					},
					{
						"astId": 353,
						"contract": "contracts/CarreraCoches/cocheToken.sol:CocheToken",
						"label": "listaCoches",
						"offset": 0,
						"slot": "6",
						"type": "t_array(t_struct(Coche)334_storage)dyn_storage"
					},
					{
						"astId": 383,
						"contract": "contracts/CarreraCoches/cocheToken.sol:CocheToken",
						"label": "cocheDePropietario",
						"offset": 0,
						"slot": "7",
						"type": "t_mapping(t_uint256,t_address)"
					},
					{
						"astId": 387,
						"contract": "contracts/CarreraCoches/cocheToken.sol:CocheToken",
						"label": "numeroCochesPersona",
						"offset": 0,
						"slot": "8",
						"type": "t_mapping(t_address,t_uint256)"
					},
					{
						"astId": 11,
						"contract": "contracts/CarreraCoches/cocheToken.sol:CocheToken",
						"label": "confirmarTransferencia",
						"offset": 0,
						"slot": "9",
						"type": "t_mapping(t_uint256,t_address)"
					}
				],
				"types": {
					"t_address": {
						"encoding": "inplace",
						"label": "address",
						"numberOfBytes": "20"
					},
					"t_array(t_struct(Coche)334_storage)dyn_storage": {
						"base": "t_struct(Coche)334_storage",
						"encoding": "dynamic_array",
						"label": "struct CarreraCoches.Coche[]",
						"numberOfBytes": "32"
					},
					"t_mapping(t_address,t_uint256)": {
						"encoding": "mapping",
						"key": "t_address",
						"label": "mapping(address => uint256)",
						"numberOfBytes": "32",
						"value": "t_uint256"
					},
					"t_mapping(t_uint256,t_address)": {
						"encoding": "mapping",
						"key": "t_uint256",
						"label": "mapping(uint256 => address)",
						"numberOfBytes": "32",
						"value": "t_address"
					},
					"t_string_storage": {
						"encoding": "bytes",
						"label": "string",
						"numberOfBytes": "32"
					},
					"t_struct(Coche)334_storage": {
						"encoding": "inplace",
						"label": "struct CarreraCoches.Coche",
						"members": [
							{
								"astId": 319,
								"contract": "contracts/CarreraCoches/cocheToken.sol:CocheToken",
								"label": "idPiloto",
								"offset": 0,
								"slot": "0",
								"type": "t_address"
							},
							{
								"astId": 321,
								"contract": "contracts/CarreraCoches/cocheToken.sol:CocheToken",
								"label": "modelo",
								"offset": 0,
								"slot": "1",
								"type": "t_string_storage"
							},
							{
								"astId": 323,
								"contract": "contracts/CarreraCoches/cocheToken.sol:CocheToken",
								"label": "marca",
								"offset": 0,
								"slot": "2",
								"type": "t_string_storage"
							},
							{
								"astId": 325,
								"contract": "contracts/CarreraCoches/cocheToken.sol:CocheToken",
								"label": "nombrePiloto",
								"offset": 0,
								"slot": "3",
								"type": "t_string_storage"
							},
							{
								"astId": 327,
								"contract": "contracts/CarreraCoches/cocheToken.sol:CocheToken",
								"label": "carrerasGanadas",
								"offset": 0,
								"slot": "4",
								"type": "t_uint256"
							},
							{
								"astId": 329,
								"contract": "contracts/CarreraCoches/cocheToken.sol:CocheToken",
								"label": "carrerasTotales",
								"offset": 0,
								"slot": "5",
								"type": "t_uint256"
							},
							{
								"astId": 331,
								"contract": "contracts/CarreraCoches/cocheToken.sol:CocheToken",
								"label": "tiempoEspera",
								"offset": 0,
								"slot": "6",
								"type": "t_uint256"
							},
							{
								"astId": 333,
								"contract": "contracts/CarreraCoches/cocheToken.sol:CocheToken",
								"label": "nivel",
								"offset": 0,
								"slot": "7",
								"type": "t_uint32"
							}
						],
						"numberOfBytes": "256"
					},
					"t_uint256": {
						"encoding": "inplace",
						"label": "uint256",
						"numberOfBytes": "32"
					},
					"t_uint32": {
						"encoding": "inplace",
						"label": "uint32",
						"numberOfBytes": "4"
					}
				}
			},
			"userdoc": {
				"kind": "user",
				"methods": {},
				"version": 1
			}
		}
	}
}