{
	"contracts/CarreraCoches/Coche.sol": {
		"Coche": {
			"abi": [
				{
					"inputs": [
						{
							"internalType": "string",
							"name": "_modelo",
							"type": "string"
						},
						{
							"internalType": "string",
							"name": "_marca",
							"type": "string"
						},
						{
							"internalType": "string",
							"name": "_nombrePiloto",
							"type": "string"
						}
					],
					"name": "anadirCoche",
					"outputs": [
						{
							"internalType": "uint256",
							"name": "",
							"type": "uint256"
						}
					],
					"stateMutability": "nonpayable",
					"type": "function"
				},
				{
					"inputs": [
						{
							"internalType": "uint256",
							"name": "",
							"type": "uint256"
						}
					],
					"name": "listaCoches",
					"outputs": [
						{
							"internalType": "address",
							"name": "idPiloto",
							"type": "address"
						},
						{
							"internalType": "string",
							"name": "modelo",
							"type": "string"
						},
						{
							"internalType": "string",
							"name": "marca",
							"type": "string"
						},
						{
							"internalType": "string",
							"name": "nombrePiloto",
							"type": "string"
						},
						{
							"internalType": "uint256",
							"name": "carrerasGanadas",
							"type": "uint256"
						},
						{
							"internalType": "uint256",
							"name": "carrerasTotales",
							"type": "uint256"
						}
					],
					"stateMutability": "view",
					"type": "function"
				},
				{
					"inputs": [
						{
							"internalType": "address",
							"name": "",
							"type": "address"
						}
					],
					"name": "numeroCochesPersona",
					"outputs": [
						{
							"internalType": "uint256",
							"name": "",
							"type": "uint256"
						}
					],
					"stateMutability": "view",
					"type": "function"
				}
			],
			"devdoc": {
				"kind": "dev",
				"methods": {},
				"version": 1
			},
			"evm": {
				"assembly": "    /* \"contracts/CarreraCoches/Coche.sol\":27:939  contract Coche {\r... */\n  mstore(0x40, 0x80)\n    /* \"contracts/CarreraCoches/Coche.sol\":272:273  0 */\n  0x00\n    /* \"contracts/CarreraCoches/Coche.sol\":256:273  uint contador = 0 */\n  dup1\n  sstore\n    /* \"contracts/CarreraCoches/Coche.sol\":27:939  contract Coche {\r... */\n  callvalue\n  dup1\n  iszero\n  tag_1\n  jumpi\n  0x00\n  dup1\n  revert\ntag_1:\n  pop\n  dataSize(sub_0)\n  dup1\n  dataOffset(sub_0)\n  0x00\n  codecopy\n  0x00\n  return\nstop\n\nsub_0: assembly {\n        /* \"contracts/CarreraCoches/Coche.sol\":27:939  contract Coche {\r... */\n      mstore(0x40, 0x80)\n      callvalue\n      dup1\n      iszero\n      tag_1\n      jumpi\n      0x00\n      dup1\n      revert\n    tag_1:\n      pop\n      jumpi(tag_2, lt(calldatasize, 0x04))\n      shr(0xe0, calldataload(0x00))\n      dup1\n      0x1c6743e4\n      eq\n      tag_3\n      jumpi\n      dup1\n      0x2458c544\n      eq\n      tag_4\n      jumpi\n      dup1\n      0xd735573d\n      eq\n      tag_5\n      jumpi\n    tag_2:\n      0x00\n      dup1\n      revert\n        /* \"contracts/CarreraCoches/Coche.sol\":325:377  mapping (address => uint) public numeroCochesPersona */\n    tag_3:\n      tag_6\n      0x04\n      dup1\n      calldatasize\n      sub\n      dup2\n      add\n      swap1\n      tag_7\n      swap2\n      swap1\n      tag_8\n      jump\t// in\n    tag_7:\n      tag_9\n      jump\t// in\n    tag_6:\n      mload(0x40)\n      tag_10\n      swap2\n      swap1\n      tag_11\n      jump\t// in\n    tag_10:\n      mload(0x40)\n      dup1\n      swap2\n      sub\n      swap1\n      return\n        /* \"contracts/CarreraCoches/Coche.sol\":620:936  function anadirCoche(string memory _modelo, string memory _marca, string memory _nombrePiloto) public restriccion returns (uint) {\r... */\n    tag_4:\n      tag_12\n      0x04\n      dup1\n      calldatasize\n      sub\n      dup2\n      add\n      swap1\n      tag_13\n      swap2\n      swap1\n      tag_14\n      jump\t// in\n    tag_13:\n      tag_15\n      jump\t// in\n    tag_12:\n      mload(0x40)\n      tag_16\n      swap2\n      swap1\n      tag_11\n      jump\t// in\n    tag_16:\n      mload(0x40)\n      dup1\n      swap2\n      sub\n      swap1\n      return\n        /* \"contracts/CarreraCoches/Coche.sol\":290:316  Coche[] public listaCoches */\n    tag_5:\n      tag_17\n      0x04\n      dup1\n      calldatasize\n      sub\n      dup2\n      add\n      swap1\n      tag_18\n      swap2\n      swap1\n      tag_19\n      jump\t// in\n    tag_18:\n      tag_20\n      jump\t// in\n    tag_17:\n      mload(0x40)\n      tag_21\n      swap7\n      swap6\n      swap5\n      swap4\n      swap3\n      swap2\n      swap1\n      tag_22\n      jump\t// in\n    tag_21:\n      mload(0x40)\n      dup1\n      swap2\n      sub\n      swap1\n      return\n        /* \"contracts/CarreraCoches/Coche.sol\":325:377  mapping (address => uint) public numeroCochesPersona */\n    tag_9:\n      mstore(0x20, 0x02)\n      dup1\n      0x00\n      mstore\n      keccak256(0x00, 0x40)\n      0x00\n      swap2\n      pop\n      swap1\n      pop\n      sload\n      dup2\n      jump\t// out\n        /* \"contracts/CarreraCoches/Coche.sol\":620:936  function anadirCoche(string memory _modelo, string memory _marca, string memory _nombrePiloto) public restriccion returns (uint) {\r... */\n    tag_15:\n        /* \"contracts/CarreraCoches/Coche.sol\":743:747  uint */\n      0x00\n        /* \"contracts/CarreraCoches/Coche.sol\":509:510  1 */\n      0x01\n        /* \"contracts/CarreraCoches/Coche.sol\":475:494  numeroCochesPersona */\n      0x02\n        /* \"contracts/CarreraCoches/Coche.sol\":475:506  numeroCochesPersona[msg.sender] */\n      0x00\n        /* \"contracts/CarreraCoches/Coche.sol\":495:505  msg.sender */\n      caller\n        /* \"contracts/CarreraCoches/Coche.sol\":475:506  numeroCochesPersona[msg.sender] */\n      0xffffffffffffffffffffffffffffffffffffffff\n      and\n      0xffffffffffffffffffffffffffffffffffffffff\n      and\n      dup2\n      mstore\n      0x20\n      add\n      swap1\n      dup2\n      mstore\n      0x20\n      add\n      0x00\n      keccak256\n      sload\n        /* \"contracts/CarreraCoches/Coche.sol\":475:510  numeroCochesPersona[msg.sender] < 1 */\n      lt\n        /* \"contracts/CarreraCoches/Coche.sol\":467:555  require(numeroCochesPersona[msg.sender] < 1, \"Solo se puede tener un coche por persona\") */\n      tag_24\n      jumpi\n      mload(0x40)\n      0x08c379a000000000000000000000000000000000000000000000000000000000\n      dup2\n      mstore\n      0x04\n      add\n      tag_25\n      swap1\n      tag_26\n      jump\t// in\n    tag_25:\n      mload(0x40)\n      dup1\n      swap2\n      sub\n      swap1\n      revert\n    tag_24:\n        /* \"contracts/CarreraCoches/Coche.sol\":760:771  listaCoches */\n      0x01\n        /* \"contracts/CarreraCoches/Coche.sol\":777:832  Coche(msg.sender, _modelo, _marca, _nombrePiloto, 0, 0) */\n      mload(0x40)\n      dup1\n      0xc0\n      add\n      0x40\n      mstore\n      dup1\n        /* \"contracts/CarreraCoches/Coche.sol\":783:793  msg.sender */\n      caller\n        /* \"contracts/CarreraCoches/Coche.sol\":777:832  Coche(msg.sender, _modelo, _marca, _nombrePiloto, 0, 0) */\n      0xffffffffffffffffffffffffffffffffffffffff\n      and\n      dup2\n      mstore\n      0x20\n      add\n        /* \"contracts/CarreraCoches/Coche.sol\":795:802  _modelo */\n      dup7\n        /* \"contracts/CarreraCoches/Coche.sol\":777:832  Coche(msg.sender, _modelo, _marca, _nombrePiloto, 0, 0) */\n      dup2\n      mstore\n      0x20\n      add\n        /* \"contracts/CarreraCoches/Coche.sol\":804:810  _marca */\n      dup6\n        /* \"contracts/CarreraCoches/Coche.sol\":777:832  Coche(msg.sender, _modelo, _marca, _nombrePiloto, 0, 0) */\n      dup2\n      mstore\n      0x20\n      add\n        /* \"contracts/CarreraCoches/Coche.sol\":812:825  _nombrePiloto */\n      dup5\n        /* \"contracts/CarreraCoches/Coche.sol\":777:832  Coche(msg.sender, _modelo, _marca, _nombrePiloto, 0, 0) */\n      dup2\n      mstore\n      0x20\n      add\n        /* \"contracts/CarreraCoches/Coche.sol\":827:828  0 */\n      0x00\n        /* \"contracts/CarreraCoches/Coche.sol\":777:832  Coche(msg.sender, _modelo, _marca, _nombrePiloto, 0, 0) */\n      dup2\n      mstore\n      0x20\n      add\n        /* \"contracts/CarreraCoches/Coche.sol\":830:831  0 */\n      0x00\n        /* \"contracts/CarreraCoches/Coche.sol\":777:832  Coche(msg.sender, _modelo, _marca, _nombrePiloto, 0, 0) */\n      dup2\n      mstore\n      pop\n        /* \"contracts/CarreraCoches/Coche.sol\":760:833  listaCoches.push(Coche(msg.sender, _modelo, _marca, _nombrePiloto, 0, 0)) */\n      swap1\n      dup1\n      0x01\n      dup2\n      sload\n      add\n      dup1\n      dup3\n      sstore\n      dup1\n      swap2\n      pop\n      pop\n      0x01\n      swap1\n      sub\n      swap1\n      0x00\n      mstore\n      keccak256(0x00, 0x20)\n      swap1\n      0x06\n      mul\n      add\n      0x00\n      swap1\n      swap2\n      swap1\n      swap2\n      swap1\n      swap2\n      pop\n      0x00\n      dup3\n      add\n      mload\n      dup2\n      0x00\n      add\n      exp(0x0100, 0x00)\n      dup2\n      sload\n      dup2\n      0xffffffffffffffffffffffffffffffffffffffff\n      mul\n      not\n      and\n      swap1\n      dup4\n      0xffffffffffffffffffffffffffffffffffffffff\n      and\n      mul\n      or\n      swap1\n      sstore\n      pop\n      0x20\n      dup3\n      add\n      mload\n      dup2\n      0x01\n      add\n      swap1\n      dup1\n      mload\n      swap1\n      0x20\n      add\n      swap1\n      tag_29\n      swap3\n      swap2\n      swap1\n      tag_30\n      jump\t// in\n    tag_29:\n      pop\n      0x40\n      dup3\n      add\n      mload\n      dup2\n      0x02\n      add\n      swap1\n      dup1\n      mload\n      swap1\n      0x20\n      add\n      swap1\n      tag_31\n      swap3\n      swap2\n      swap1\n      tag_30\n      jump\t// in\n    tag_31:\n      pop\n      0x60\n      dup3\n      add\n      mload\n      dup2\n      0x03\n      add\n      swap1\n      dup1\n      mload\n      swap1\n      0x20\n      add\n      swap1\n      tag_32\n      swap3\n      swap2\n      swap1\n      tag_30\n      jump\t// in\n    tag_32:\n      pop\n      0x80\n      dup3\n      add\n      mload\n      dup2\n      0x04\n      add\n      sstore\n      0xa0\n      dup3\n      add\n      mload\n      dup2\n      0x05\n      add\n      sstore\n      pop\n      pop\n        /* \"contracts/CarreraCoches/Coche.sol\":844:863  numeroCochesPersona */\n      0x02\n        /* \"contracts/CarreraCoches/Coche.sol\":844:875  numeroCochesPersona[msg.sender] */\n      0x00\n        /* \"contracts/CarreraCoches/Coche.sol\":864:874  msg.sender */\n      caller\n        /* \"contracts/CarreraCoches/Coche.sol\":844:875  numeroCochesPersona[msg.sender] */\n      0xffffffffffffffffffffffffffffffffffffffff\n      and\n      0xffffffffffffffffffffffffffffffffffffffff\n      and\n      dup2\n      mstore\n      0x20\n      add\n      swap1\n      dup2\n      mstore\n      0x20\n      add\n      0x00\n      keccak256\n      0x00\n        /* \"contracts/CarreraCoches/Coche.sol\":844:877  numeroCochesPersona[msg.sender]++ */\n      dup2\n      sload\n      dup1\n      swap3\n      swap2\n      swap1\n      tag_33\n      swap1\n      tag_34\n      jump\t// in\n    tag_33:\n      swap2\n      swap1\n      pop\n      sstore\n      pop\n        /* \"contracts/CarreraCoches/Coche.sol\":888:896  contador */\n      0x00\n      dup1\n        /* \"contracts/CarreraCoches/Coche.sol\":888:898  contador++ */\n      dup2\n      sload\n      dup1\n      swap3\n      swap2\n      swap1\n      tag_35\n      swap1\n      tag_34\n      jump\t// in\n    tag_35:\n      swap2\n      swap1\n      pop\n      sstore\n      pop\n        /* \"contracts/CarreraCoches/Coche.sol\":927:928  1 */\n      0x01\n        /* \"contracts/CarreraCoches/Coche.sol\":916:924  contador */\n      sload(0x00)\n        /* \"contracts/CarreraCoches/Coche.sol\":916:928  contador - 1 */\n      tag_36\n      swap2\n      swap1\n      tag_37\n      jump\t// in\n    tag_36:\n        /* \"contracts/CarreraCoches/Coche.sol\":909:928  return contador - 1 */\n      swap1\n      pop\n        /* \"contracts/CarreraCoches/Coche.sol\":620:936  function anadirCoche(string memory _modelo, string memory _marca, string memory _nombrePiloto) public restriccion returns (uint) {\r... */\n      swap4\n      swap3\n      pop\n      pop\n      pop\n      jump\t// out\n        /* \"contracts/CarreraCoches/Coche.sol\":290:316  Coche[] public listaCoches */\n    tag_20:\n      0x01\n      dup2\n      dup2\n      sload\n      dup2\n      lt\n      tag_38\n      jumpi\n      0x00\n      dup1\n      revert\n    tag_38:\n      swap1\n      0x00\n      mstore\n      keccak256(0x00, 0x20)\n      swap1\n      0x06\n      mul\n      add\n      0x00\n      swap2\n      pop\n      swap1\n      pop\n      dup1\n      0x00\n      add\n      0x00\n      swap1\n      sload\n      swap1\n      0x0100\n      exp\n      swap1\n      div\n      0xffffffffffffffffffffffffffffffffffffffff\n      and\n      swap1\n      dup1\n      0x01\n      add\n      dup1\n      sload\n      tag_40\n      swap1\n      tag_41\n      jump\t// in\n    tag_40:\n      dup1\n      0x1f\n      add\n      0x20\n      dup1\n      swap2\n      div\n      mul\n      0x20\n      add\n      mload(0x40)\n      swap1\n      dup2\n      add\n      0x40\n      mstore\n      dup1\n      swap3\n      swap2\n      swap1\n      dup2\n      dup2\n      mstore\n      0x20\n      add\n      dup3\n      dup1\n      sload\n      tag_42\n      swap1\n      tag_41\n      jump\t// in\n    tag_42:\n      dup1\n      iszero\n      tag_43\n      jumpi\n      dup1\n      0x1f\n      lt\n      tag_44\n      jumpi\n      0x0100\n      dup1\n      dup4\n      sload\n      div\n      mul\n      dup4\n      mstore\n      swap2\n      0x20\n      add\n      swap2\n      jump(tag_43)\n    tag_44:\n      dup3\n      add\n      swap2\n      swap1\n      0x00\n      mstore\n      keccak256(0x00, 0x20)\n      swap1\n    tag_45:\n      dup2\n      sload\n      dup2\n      mstore\n      swap1\n      0x01\n      add\n      swap1\n      0x20\n      add\n      dup1\n      dup4\n      gt\n      tag_45\n      jumpi\n      dup3\n      swap1\n      sub\n      0x1f\n      and\n      dup3\n      add\n      swap2\n    tag_43:\n      pop\n      pop\n      pop\n      pop\n      pop\n      swap1\n      dup1\n      0x02\n      add\n      dup1\n      sload\n      tag_46\n      swap1\n      tag_41\n      jump\t// in\n    tag_46:\n      dup1\n      0x1f\n      add\n      0x20\n      dup1\n      swap2\n      div\n      mul\n      0x20\n      add\n      mload(0x40)\n      swap1\n      dup2\n      add\n      0x40\n      mstore\n      dup1\n      swap3\n      swap2\n      swap1\n      dup2\n      dup2\n      mstore\n      0x20\n      add\n      dup3\n      dup1\n      sload\n      tag_47\n      swap1\n      tag_41\n      jump\t// in\n    tag_47:\n      dup1\n      iszero\n      tag_48\n      jumpi\n      dup1\n      0x1f\n      lt\n      tag_49\n      jumpi\n      0x0100\n      dup1\n      dup4\n      sload\n      div\n      mul\n      dup4\n      mstore\n      swap2\n      0x20\n      add\n      swap2\n      jump(tag_48)\n    tag_49:\n      dup3\n      add\n      swap2\n      swap1\n      0x00\n      mstore\n      keccak256(0x00, 0x20)\n      swap1\n    tag_50:\n      dup2\n      sload\n      dup2\n      mstore\n      swap1\n      0x01\n      add\n      swap1\n      0x20\n      add\n      dup1\n      dup4\n      gt\n      tag_50\n      jumpi\n      dup3\n      swap1\n      sub\n      0x1f\n      and\n      dup3\n      add\n      swap2\n    tag_48:\n      pop\n      pop\n      pop\n      pop\n      pop\n      swap1\n      dup1\n      0x03\n      add\n      dup1\n      sload\n      tag_51\n      swap1\n      tag_41\n      jump\t// in\n    tag_51:\n      dup1\n      0x1f\n      add\n      0x20\n      dup1\n      swap2\n      div\n      mul\n      0x20\n      add\n      mload(0x40)\n      swap1\n      dup2\n      add\n      0x40\n      mstore\n      dup1\n      swap3\n      swap2\n      swap1\n      dup2\n      dup2\n      mstore\n      0x20\n      add\n      dup3\n      dup1\n      sload\n      tag_52\n      swap1\n      tag_41\n      jump\t// in\n    tag_52:\n      dup1\n      iszero\n      tag_53\n      jumpi\n      dup1\n      0x1f\n      lt\n      tag_54\n      jumpi\n      0x0100\n      dup1\n      dup4\n      sload\n      div\n      mul\n      dup4\n      mstore\n      swap2\n      0x20\n      add\n      swap2\n      jump(tag_53)\n    tag_54:\n      dup3\n      add\n      swap2\n      swap1\n      0x00\n      mstore\n      keccak256(0x00, 0x20)\n      swap1\n    tag_55:\n      dup2\n      sload\n      dup2\n      mstore\n      swap1\n      0x01\n      add\n      swap1\n      0x20\n      add\n      dup1\n      dup4\n      gt\n      tag_55\n      jumpi\n      dup3\n      swap1\n      sub\n      0x1f\n      and\n      dup3\n      add\n      swap2\n    tag_53:\n      pop\n      pop\n      pop\n      pop\n      pop\n      swap1\n      dup1\n      0x04\n      add\n      sload\n      swap1\n      dup1\n      0x05\n      add\n      sload\n      swap1\n      pop\n      dup7\n      jump\t// out\n    tag_30:\n      dup3\n      dup1\n      sload\n      tag_56\n      swap1\n      tag_41\n      jump\t// in\n    tag_56:\n      swap1\n      0x00\n      mstore\n      keccak256(0x00, 0x20)\n      swap1\n      0x1f\n      add\n      0x20\n      swap1\n      div\n      dup2\n      add\n      swap3\n      dup3\n      tag_58\n      jumpi\n      0x00\n      dup6\n      sstore\n      jump(tag_57)\n    tag_58:\n      dup3\n      0x1f\n      lt\n      tag_59\n      jumpi\n      dup1\n      mload\n      not(0xff)\n      and\n      dup4\n      dup1\n      add\n      or\n      dup6\n      sstore\n      jump(tag_57)\n    tag_59:\n      dup3\n      dup1\n      add\n      0x01\n      add\n      dup6\n      sstore\n      dup3\n      iszero\n      tag_57\n      jumpi\n      swap2\n      dup3\n      add\n    tag_60:\n      dup3\n      dup2\n      gt\n      iszero\n      tag_61\n      jumpi\n      dup3\n      mload\n      dup3\n      sstore\n      swap2\n      0x20\n      add\n      swap2\n      swap1\n      0x01\n      add\n      swap1\n      jump(tag_60)\n    tag_61:\n    tag_57:\n      pop\n      swap1\n      pop\n      tag_62\n      swap2\n      swap1\n      tag_63\n      jump\t// in\n    tag_62:\n      pop\n      swap1\n      jump\t// out\n    tag_63:\n    tag_64:\n      dup1\n      dup3\n      gt\n      iszero\n      tag_65\n      jumpi\n      0x00\n      dup2\n      0x00\n      swap1\n      sstore\n      pop\n      0x01\n      add\n      jump(tag_64)\n    tag_65:\n      pop\n      swap1\n      jump\t// out\n        /* \"#utility.yul\":7:419   */\n    tag_67:\n        /* \"#utility.yul\":85:90   */\n      0x00\n        /* \"#utility.yul\":110:176   */\n      tag_69\n        /* \"#utility.yul\":126:175   */\n      tag_70\n        /* \"#utility.yul\":168:174   */\n      dup5\n        /* \"#utility.yul\":126:175   */\n      tag_71\n      jump\t// in\n    tag_70:\n        /* \"#utility.yul\":110:176   */\n      tag_72\n      jump\t// in\n    tag_69:\n        /* \"#utility.yul\":101:176   */\n      swap1\n      pop\n        /* \"#utility.yul\":199:205   */\n      dup3\n        /* \"#utility.yul\":192:197   */\n      dup2\n        /* \"#utility.yul\":185:206   */\n      mstore\n        /* \"#utility.yul\":237:241   */\n      0x20\n        /* \"#utility.yul\":230:235   */\n      dup2\n        /* \"#utility.yul\":226:242   */\n      add\n        /* \"#utility.yul\":275:278   */\n      dup5\n        /* \"#utility.yul\":266:272   */\n      dup5\n        /* \"#utility.yul\":261:264   */\n      dup5\n        /* \"#utility.yul\":257:273   */\n      add\n        /* \"#utility.yul\":254:279   */\n      gt\n        /* \"#utility.yul\":251:363   */\n      iszero\n      tag_73\n      jumpi\n        /* \"#utility.yul\":282:361   */\n      tag_74\n      tag_75\n      jump\t// in\n    tag_74:\n        /* \"#utility.yul\":251:363   */\n    tag_73:\n        /* \"#utility.yul\":372:413   */\n      tag_76\n        /* \"#utility.yul\":406:412   */\n      dup5\n        /* \"#utility.yul\":401:404   */\n      dup3\n        /* \"#utility.yul\":396:399   */\n      dup6\n        /* \"#utility.yul\":372:413   */\n      tag_77\n      jump\t// in\n    tag_76:\n        /* \"#utility.yul\":91:419   */\n      pop\n        /* \"#utility.yul\":7:419   */\n      swap4\n      swap3\n      pop\n      pop\n      pop\n      jump\t// out\n        /* \"#utility.yul\":425:564   */\n    tag_78:\n        /* \"#utility.yul\":471:476   */\n      0x00\n        /* \"#utility.yul\":509:515   */\n      dup2\n        /* \"#utility.yul\":496:516   */\n      calldataload\n        /* \"#utility.yul\":487:516   */\n      swap1\n      pop\n        /* \"#utility.yul\":525:558   */\n      tag_80\n        /* \"#utility.yul\":552:557   */\n      dup2\n        /* \"#utility.yul\":525:558   */\n      tag_81\n      jump\t// in\n    tag_80:\n        /* \"#utility.yul\":425:564   */\n      swap3\n      swap2\n      pop\n      pop\n      jump\t// out\n        /* \"#utility.yul\":584:924   */\n    tag_82:\n        /* \"#utility.yul\":640:645   */\n      0x00\n        /* \"#utility.yul\":689:692   */\n      dup3\n        /* \"#utility.yul\":682:686   */\n      0x1f\n        /* \"#utility.yul\":674:680   */\n      dup4\n        /* \"#utility.yul\":670:687   */\n      add\n        /* \"#utility.yul\":666:693   */\n      slt\n        /* \"#utility.yul\":656:778   */\n      tag_84\n      jumpi\n        /* \"#utility.yul\":697:776   */\n      tag_85\n      tag_86\n      jump\t// in\n    tag_85:\n        /* \"#utility.yul\":656:778   */\n    tag_84:\n        /* \"#utility.yul\":814:820   */\n      dup2\n        /* \"#utility.yul\":801:821   */\n      calldataload\n        /* \"#utility.yul\":839:918   */\n      tag_87\n        /* \"#utility.yul\":914:917   */\n      dup5\n        /* \"#utility.yul\":906:912   */\n      dup3\n        /* \"#utility.yul\":899:903   */\n      0x20\n        /* \"#utility.yul\":891:897   */\n      dup7\n        /* \"#utility.yul\":887:904   */\n      add\n        /* \"#utility.yul\":839:918   */\n      tag_67\n      jump\t// in\n    tag_87:\n        /* \"#utility.yul\":830:918   */\n      swap2\n      pop\n        /* \"#utility.yul\":646:924   */\n      pop\n        /* \"#utility.yul\":584:924   */\n      swap3\n      swap2\n      pop\n      pop\n      jump\t// out\n        /* \"#utility.yul\":930:1069   */\n    tag_88:\n        /* \"#utility.yul\":976:981   */\n      0x00\n        /* \"#utility.yul\":1014:1020   */\n      dup2\n        /* \"#utility.yul\":1001:1021   */\n      calldataload\n        /* \"#utility.yul\":992:1021   */\n      swap1\n      pop\n        /* \"#utility.yul\":1030:1063   */\n      tag_90\n        /* \"#utility.yul\":1057:1062   */\n      dup2\n        /* \"#utility.yul\":1030:1063   */\n      tag_91\n      jump\t// in\n    tag_90:\n        /* \"#utility.yul\":930:1069   */\n      swap3\n      swap2\n      pop\n      pop\n      jump\t// out\n        /* \"#utility.yul\":1075:1404   */\n    tag_8:\n        /* \"#utility.yul\":1134:1140   */\n      0x00\n        /* \"#utility.yul\":1183:1185   */\n      0x20\n        /* \"#utility.yul\":1171:1180   */\n      dup3\n        /* \"#utility.yul\":1162:1169   */\n      dup5\n        /* \"#utility.yul\":1158:1181   */\n      sub\n        /* \"#utility.yul\":1154:1186   */\n      slt\n        /* \"#utility.yul\":1151:1270   */\n      iszero\n      tag_93\n      jumpi\n        /* \"#utility.yul\":1189:1268   */\n      tag_94\n      tag_95\n      jump\t// in\n    tag_94:\n        /* \"#utility.yul\":1151:1270   */\n    tag_93:\n        /* \"#utility.yul\":1309:1310   */\n      0x00\n        /* \"#utility.yul\":1334:1387   */\n      tag_96\n        /* \"#utility.yul\":1379:1386   */\n      dup5\n        /* \"#utility.yul\":1370:1376   */\n      dup3\n        /* \"#utility.yul\":1359:1368   */\n      dup6\n        /* \"#utility.yul\":1355:1377   */\n      add\n        /* \"#utility.yul\":1334:1387   */\n      tag_78\n      jump\t// in\n    tag_96:\n        /* \"#utility.yul\":1324:1387   */\n      swap2\n      pop\n        /* \"#utility.yul\":1280:1397   */\n      pop\n        /* \"#utility.yul\":1075:1404   */\n      swap3\n      swap2\n      pop\n      pop\n      jump\t// out\n        /* \"#utility.yul\":1410:2569   */\n    tag_14:\n        /* \"#utility.yul\":1517:1523   */\n      0x00\n        /* \"#utility.yul\":1525:1531   */\n      dup1\n        /* \"#utility.yul\":1533:1539   */\n      0x00\n        /* \"#utility.yul\":1582:1584   */\n      0x60\n        /* \"#utility.yul\":1570:1579   */\n      dup5\n        /* \"#utility.yul\":1561:1568   */\n      dup7\n        /* \"#utility.yul\":1557:1580   */\n      sub\n        /* \"#utility.yul\":1553:1585   */\n      slt\n        /* \"#utility.yul\":1550:1669   */\n      iszero\n      tag_98\n      jumpi\n        /* \"#utility.yul\":1588:1667   */\n      tag_99\n      tag_95\n      jump\t// in\n    tag_99:\n        /* \"#utility.yul\":1550:1669   */\n    tag_98:\n        /* \"#utility.yul\":1736:1737   */\n      0x00\n        /* \"#utility.yul\":1725:1734   */\n      dup5\n        /* \"#utility.yul\":1721:1738   */\n      add\n        /* \"#utility.yul\":1708:1739   */\n      calldataload\n        /* \"#utility.yul\":1766:1784   */\n      0xffffffffffffffff\n        /* \"#utility.yul\":1758:1764   */\n      dup2\n        /* \"#utility.yul\":1755:1785   */\n      gt\n        /* \"#utility.yul\":1752:1869   */\n      iszero\n      tag_100\n      jumpi\n        /* \"#utility.yul\":1788:1867   */\n      tag_101\n      tag_102\n      jump\t// in\n    tag_101:\n        /* \"#utility.yul\":1752:1869   */\n    tag_100:\n        /* \"#utility.yul\":1893:1956   */\n      tag_103\n        /* \"#utility.yul\":1948:1955   */\n      dup7\n        /* \"#utility.yul\":1939:1945   */\n      dup3\n        /* \"#utility.yul\":1928:1937   */\n      dup8\n        /* \"#utility.yul\":1924:1946   */\n      add\n        /* \"#utility.yul\":1893:1956   */\n      tag_82\n      jump\t// in\n    tag_103:\n        /* \"#utility.yul\":1883:1956   */\n      swap4\n      pop\n        /* \"#utility.yul\":1679:1966   */\n      pop\n        /* \"#utility.yul\":2033:2035   */\n      0x20\n        /* \"#utility.yul\":2022:2031   */\n      dup5\n        /* \"#utility.yul\":2018:2036   */\n      add\n        /* \"#utility.yul\":2005:2037   */\n      calldataload\n        /* \"#utility.yul\":2064:2082   */\n      0xffffffffffffffff\n        /* \"#utility.yul\":2056:2062   */\n      dup2\n        /* \"#utility.yul\":2053:2083   */\n      gt\n        /* \"#utility.yul\":2050:2167   */\n      iszero\n      tag_104\n      jumpi\n        /* \"#utility.yul\":2086:2165   */\n      tag_105\n      tag_102\n      jump\t// in\n    tag_105:\n        /* \"#utility.yul\":2050:2167   */\n    tag_104:\n        /* \"#utility.yul\":2191:2254   */\n      tag_106\n        /* \"#utility.yul\":2246:2253   */\n      dup7\n        /* \"#utility.yul\":2237:2243   */\n      dup3\n        /* \"#utility.yul\":2226:2235   */\n      dup8\n        /* \"#utility.yul\":2222:2244   */\n      add\n        /* \"#utility.yul\":2191:2254   */\n      tag_82\n      jump\t// in\n    tag_106:\n        /* \"#utility.yul\":2181:2254   */\n      swap3\n      pop\n        /* \"#utility.yul\":1976:2264   */\n      pop\n        /* \"#utility.yul\":2331:2333   */\n      0x40\n        /* \"#utility.yul\":2320:2329   */\n      dup5\n        /* \"#utility.yul\":2316:2334   */\n      add\n        /* \"#utility.yul\":2303:2335   */\n      calldataload\n        /* \"#utility.yul\":2362:2380   */\n      0xffffffffffffffff\n        /* \"#utility.yul\":2354:2360   */\n      dup2\n        /* \"#utility.yul\":2351:2381   */\n      gt\n        /* \"#utility.yul\":2348:2465   */\n      iszero\n      tag_107\n      jumpi\n        /* \"#utility.yul\":2384:2463   */\n      tag_108\n      tag_102\n      jump\t// in\n    tag_108:\n        /* \"#utility.yul\":2348:2465   */\n    tag_107:\n        /* \"#utility.yul\":2489:2552   */\n      tag_109\n        /* \"#utility.yul\":2544:2551   */\n      dup7\n        /* \"#utility.yul\":2535:2541   */\n      dup3\n        /* \"#utility.yul\":2524:2533   */\n      dup8\n        /* \"#utility.yul\":2520:2542   */\n      add\n        /* \"#utility.yul\":2489:2552   */\n      tag_82\n      jump\t// in\n    tag_109:\n        /* \"#utility.yul\":2479:2552   */\n      swap2\n      pop\n        /* \"#utility.yul\":2274:2562   */\n      pop\n        /* \"#utility.yul\":1410:2569   */\n      swap3\n      pop\n      swap3\n      pop\n      swap3\n      jump\t// out\n        /* \"#utility.yul\":2575:2904   */\n    tag_19:\n        /* \"#utility.yul\":2634:2640   */\n      0x00\n        /* \"#utility.yul\":2683:2685   */\n      0x20\n        /* \"#utility.yul\":2671:2680   */\n      dup3\n        /* \"#utility.yul\":2662:2669   */\n      dup5\n        /* \"#utility.yul\":2658:2681   */\n      sub\n        /* \"#utility.yul\":2654:2686   */\n      slt\n        /* \"#utility.yul\":2651:2770   */\n      iszero\n      tag_111\n      jumpi\n        /* \"#utility.yul\":2689:2768   */\n      tag_112\n      tag_95\n      jump\t// in\n    tag_112:\n        /* \"#utility.yul\":2651:2770   */\n    tag_111:\n        /* \"#utility.yul\":2809:2810   */\n      0x00\n        /* \"#utility.yul\":2834:2887   */\n      tag_113\n        /* \"#utility.yul\":2879:2886   */\n      dup5\n        /* \"#utility.yul\":2870:2876   */\n      dup3\n        /* \"#utility.yul\":2859:2868   */\n      dup6\n        /* \"#utility.yul\":2855:2877   */\n      add\n        /* \"#utility.yul\":2834:2887   */\n      tag_88\n      jump\t// in\n    tag_113:\n        /* \"#utility.yul\":2824:2887   */\n      swap2\n      pop\n        /* \"#utility.yul\":2780:2897   */\n      pop\n        /* \"#utility.yul\":2575:2904   */\n      swap3\n      swap2\n      pop\n      pop\n      jump\t// out\n        /* \"#utility.yul\":2910:3028   */\n    tag_114:\n        /* \"#utility.yul\":2997:3021   */\n      tag_116\n        /* \"#utility.yul\":3015:3020   */\n      dup2\n        /* \"#utility.yul\":2997:3021   */\n      tag_117\n      jump\t// in\n    tag_116:\n        /* \"#utility.yul\":2992:2995   */\n      dup3\n        /* \"#utility.yul\":2985:3022   */\n      mstore\n        /* \"#utility.yul\":2910:3028   */\n      pop\n      pop\n      jump\t// out\n        /* \"#utility.yul\":3034:3398   */\n    tag_118:\n        /* \"#utility.yul\":3122:3125   */\n      0x00\n        /* \"#utility.yul\":3150:3189   */\n      tag_120\n        /* \"#utility.yul\":3183:3188   */\n      dup3\n        /* \"#utility.yul\":3150:3189   */\n      tag_121\n      jump\t// in\n    tag_120:\n        /* \"#utility.yul\":3205:3276   */\n      tag_122\n        /* \"#utility.yul\":3269:3275   */\n      dup2\n        /* \"#utility.yul\":3264:3267   */\n      dup6\n        /* \"#utility.yul\":3205:3276   */\n      tag_123\n      jump\t// in\n    tag_122:\n        /* \"#utility.yul\":3198:3276   */\n      swap4\n      pop\n        /* \"#utility.yul\":3285:3337   */\n      tag_124\n        /* \"#utility.yul\":3330:3336   */\n      dup2\n        /* \"#utility.yul\":3325:3328   */\n      dup6\n        /* \"#utility.yul\":3318:3322   */\n      0x20\n        /* \"#utility.yul\":3311:3316   */\n      dup7\n        /* \"#utility.yul\":3307:3323   */\n      add\n        /* \"#utility.yul\":3285:3337   */\n      tag_125\n      jump\t// in\n    tag_124:\n        /* \"#utility.yul\":3362:3391   */\n      tag_126\n        /* \"#utility.yul\":3384:3390   */\n      dup2\n        /* \"#utility.yul\":3362:3391   */\n      tag_127\n      jump\t// in\n    tag_126:\n        /* \"#utility.yul\":3357:3360   */\n      dup5\n        /* \"#utility.yul\":3353:3392   */\n      add\n        /* \"#utility.yul\":3346:3392   */\n      swap2\n      pop\n        /* \"#utility.yul\":3126:3398   */\n      pop\n        /* \"#utility.yul\":3034:3398   */\n      swap3\n      swap2\n      pop\n      pop\n      jump\t// out\n        /* \"#utility.yul\":3404:3770   */\n    tag_128:\n        /* \"#utility.yul\":3546:3549   */\n      0x00\n        /* \"#utility.yul\":3567:3634   */\n      tag_130\n        /* \"#utility.yul\":3631:3633   */\n      0x28\n        /* \"#utility.yul\":3626:3629   */\n      dup4\n        /* \"#utility.yul\":3567:3634   */\n      tag_123\n      jump\t// in\n    tag_130:\n        /* \"#utility.yul\":3560:3634   */\n      swap2\n      pop\n        /* \"#utility.yul\":3643:3736   */\n      tag_131\n        /* \"#utility.yul\":3732:3735   */\n      dup3\n        /* \"#utility.yul\":3643:3736   */\n      tag_132\n      jump\t// in\n    tag_131:\n        /* \"#utility.yul\":3761:3763   */\n      0x40\n        /* \"#utility.yul\":3756:3759   */\n      dup3\n        /* \"#utility.yul\":3752:3764   */\n      add\n        /* \"#utility.yul\":3745:3764   */\n      swap1\n      pop\n        /* \"#utility.yul\":3404:3770   */\n      swap2\n      swap1\n      pop\n      jump\t// out\n        /* \"#utility.yul\":3776:3894   */\n    tag_133:\n        /* \"#utility.yul\":3863:3887   */\n      tag_135\n        /* \"#utility.yul\":3881:3886   */\n      dup2\n        /* \"#utility.yul\":3863:3887   */\n      tag_136\n      jump\t// in\n    tag_135:\n        /* \"#utility.yul\":3858:3861   */\n      dup3\n        /* \"#utility.yul\":3851:3888   */\n      mstore\n        /* \"#utility.yul\":3776:3894   */\n      pop\n      pop\n      jump\t// out\n        /* \"#utility.yul\":3900:4948   */\n    tag_22:\n        /* \"#utility.yul\":4193:4197   */\n      0x00\n        /* \"#utility.yul\":4231:4234   */\n      0xc0\n        /* \"#utility.yul\":4220:4229   */\n      dup3\n        /* \"#utility.yul\":4216:4235   */\n      add\n        /* \"#utility.yul\":4208:4235   */\n      swap1\n      pop\n        /* \"#utility.yul\":4245:4316   */\n      tag_138\n        /* \"#utility.yul\":4313:4314   */\n      0x00\n        /* \"#utility.yul\":4302:4311   */\n      dup4\n        /* \"#utility.yul\":4298:4315   */\n      add\n        /* \"#utility.yul\":4289:4295   */\n      dup10\n        /* \"#utility.yul\":4245:4316   */\n      tag_114\n      jump\t// in\n    tag_138:\n        /* \"#utility.yul\":4363:4372   */\n      dup2\n        /* \"#utility.yul\":4357:4361   */\n      dup2\n        /* \"#utility.yul\":4353:4373   */\n      sub\n        /* \"#utility.yul\":4348:4350   */\n      0x20\n        /* \"#utility.yul\":4337:4346   */\n      dup4\n        /* \"#utility.yul\":4333:4351   */\n      add\n        /* \"#utility.yul\":4326:4374   */\n      mstore\n        /* \"#utility.yul\":4391:4469   */\n      tag_139\n        /* \"#utility.yul\":4464:4468   */\n      dup2\n        /* \"#utility.yul\":4455:4461   */\n      dup9\n        /* \"#utility.yul\":4391:4469   */\n      tag_118\n      jump\t// in\n    tag_139:\n        /* \"#utility.yul\":4383:4469   */\n      swap1\n      pop\n        /* \"#utility.yul\":4516:4525   */\n      dup2\n        /* \"#utility.yul\":4510:4514   */\n      dup2\n        /* \"#utility.yul\":4506:4526   */\n      sub\n        /* \"#utility.yul\":4501:4503   */\n      0x40\n        /* \"#utility.yul\":4490:4499   */\n      dup4\n        /* \"#utility.yul\":4486:4504   */\n      add\n        /* \"#utility.yul\":4479:4527   */\n      mstore\n        /* \"#utility.yul\":4544:4622   */\n      tag_140\n        /* \"#utility.yul\":4617:4621   */\n      dup2\n        /* \"#utility.yul\":4608:4614   */\n      dup8\n        /* \"#utility.yul\":4544:4622   */\n      tag_118\n      jump\t// in\n    tag_140:\n        /* \"#utility.yul\":4536:4622   */\n      swap1\n      pop\n        /* \"#utility.yul\":4669:4678   */\n      dup2\n        /* \"#utility.yul\":4663:4667   */\n      dup2\n        /* \"#utility.yul\":4659:4679   */\n      sub\n        /* \"#utility.yul\":4654:4656   */\n      0x60\n        /* \"#utility.yul\":4643:4652   */\n      dup4\n        /* \"#utility.yul\":4639:4657   */\n      add\n        /* \"#utility.yul\":4632:4680   */\n      mstore\n        /* \"#utility.yul\":4697:4775   */\n      tag_141\n        /* \"#utility.yul\":4770:4774   */\n      dup2\n        /* \"#utility.yul\":4761:4767   */\n      dup7\n        /* \"#utility.yul\":4697:4775   */\n      tag_118\n      jump\t// in\n    tag_141:\n        /* \"#utility.yul\":4689:4775   */\n      swap1\n      pop\n        /* \"#utility.yul\":4785:4858   */\n      tag_142\n        /* \"#utility.yul\":4853:4856   */\n      0x80\n        /* \"#utility.yul\":4842:4851   */\n      dup4\n        /* \"#utility.yul\":4838:4857   */\n      add\n        /* \"#utility.yul\":4829:4835   */\n      dup6\n        /* \"#utility.yul\":4785:4858   */\n      tag_133\n      jump\t// in\n    tag_142:\n        /* \"#utility.yul\":4868:4941   */\n      tag_143\n        /* \"#utility.yul\":4936:4939   */\n      0xa0\n        /* \"#utility.yul\":4925:4934   */\n      dup4\n        /* \"#utility.yul\":4921:4940   */\n      add\n        /* \"#utility.yul\":4912:4918   */\n      dup5\n        /* \"#utility.yul\":4868:4941   */\n      tag_133\n      jump\t// in\n    tag_143:\n        /* \"#utility.yul\":3900:4948   */\n      swap8\n      swap7\n      pop\n      pop\n      pop\n      pop\n      pop\n      pop\n      pop\n      jump\t// out\n        /* \"#utility.yul\":4954:5373   */\n    tag_26:\n        /* \"#utility.yul\":5120:5124   */\n      0x00\n        /* \"#utility.yul\":5158:5160   */\n      0x20\n        /* \"#utility.yul\":5147:5156   */\n      dup3\n        /* \"#utility.yul\":5143:5161   */\n      add\n        /* \"#utility.yul\":5135:5161   */\n      swap1\n      pop\n        /* \"#utility.yul\":5207:5216   */\n      dup2\n        /* \"#utility.yul\":5201:5205   */\n      dup2\n        /* \"#utility.yul\":5197:5217   */\n      sub\n        /* \"#utility.yul\":5193:5194   */\n      0x00\n        /* \"#utility.yul\":5182:5191   */\n      dup4\n        /* \"#utility.yul\":5178:5195   */\n      add\n        /* \"#utility.yul\":5171:5218   */\n      mstore\n        /* \"#utility.yul\":5235:5366   */\n      tag_145\n        /* \"#utility.yul\":5361:5365   */\n      dup2\n        /* \"#utility.yul\":5235:5366   */\n      tag_128\n      jump\t// in\n    tag_145:\n        /* \"#utility.yul\":5227:5366   */\n      swap1\n      pop\n        /* \"#utility.yul\":4954:5373   */\n      swap2\n      swap1\n      pop\n      jump\t// out\n        /* \"#utility.yul\":5379:5601   */\n    tag_11:\n        /* \"#utility.yul\":5472:5476   */\n      0x00\n        /* \"#utility.yul\":5510:5512   */\n      0x20\n        /* \"#utility.yul\":5499:5508   */\n      dup3\n        /* \"#utility.yul\":5495:5513   */\n      add\n        /* \"#utility.yul\":5487:5513   */\n      swap1\n      pop\n        /* \"#utility.yul\":5523:5594   */\n      tag_147\n        /* \"#utility.yul\":5591:5592   */\n      0x00\n        /* \"#utility.yul\":5580:5589   */\n      dup4\n        /* \"#utility.yul\":5576:5593   */\n      add\n        /* \"#utility.yul\":5567:5573   */\n      dup5\n        /* \"#utility.yul\":5523:5594   */\n      tag_133\n      jump\t// in\n    tag_147:\n        /* \"#utility.yul\":5379:5601   */\n      swap3\n      swap2\n      pop\n      pop\n      jump\t// out\n        /* \"#utility.yul\":5607:5736   */\n    tag_72:\n        /* \"#utility.yul\":5641:5647   */\n      0x00\n        /* \"#utility.yul\":5668:5688   */\n      tag_149\n      tag_150\n      jump\t// in\n    tag_149:\n        /* \"#utility.yul\":5658:5688   */\n      swap1\n      pop\n        /* \"#utility.yul\":5697:5730   */\n      tag_151\n        /* \"#utility.yul\":5725:5729   */\n      dup3\n        /* \"#utility.yul\":5717:5723   */\n      dup3\n        /* \"#utility.yul\":5697:5730   */\n      tag_152\n      jump\t// in\n    tag_151:\n        /* \"#utility.yul\":5607:5736   */\n      swap2\n      swap1\n      pop\n      jump\t// out\n        /* \"#utility.yul\":5742:5817   */\n    tag_150:\n        /* \"#utility.yul\":5775:5781   */\n      0x00\n        /* \"#utility.yul\":5808:5810   */\n      0x40\n        /* \"#utility.yul\":5802:5811   */\n      mload\n        /* \"#utility.yul\":5792:5811   */\n      swap1\n      pop\n        /* \"#utility.yul\":5742:5817   */\n      swap1\n      jump\t// out\n        /* \"#utility.yul\":5823:6131   */\n    tag_71:\n        /* \"#utility.yul\":5885:5889   */\n      0x00\n        /* \"#utility.yul\":5975:5993   */\n      0xffffffffffffffff\n        /* \"#utility.yul\":5967:5973   */\n      dup3\n        /* \"#utility.yul\":5964:5994   */\n      gt\n        /* \"#utility.yul\":5961:6017   */\n      iszero\n      tag_155\n      jumpi\n        /* \"#utility.yul\":5997:6015   */\n      tag_156\n      tag_157\n      jump\t// in\n    tag_156:\n        /* \"#utility.yul\":5961:6017   */\n    tag_155:\n        /* \"#utility.yul\":6035:6064   */\n      tag_158\n        /* \"#utility.yul\":6057:6063   */\n      dup3\n        /* \"#utility.yul\":6035:6064   */\n      tag_127\n      jump\t// in\n    tag_158:\n        /* \"#utility.yul\":6027:6064   */\n      swap1\n      pop\n        /* \"#utility.yul\":6119:6123   */\n      0x20\n        /* \"#utility.yul\":6113:6117   */\n      dup2\n        /* \"#utility.yul\":6109:6124   */\n      add\n        /* \"#utility.yul\":6101:6124   */\n      swap1\n      pop\n        /* \"#utility.yul\":5823:6131   */\n      swap2\n      swap1\n      pop\n      jump\t// out\n        /* \"#utility.yul\":6137:6236   */\n    tag_121:\n        /* \"#utility.yul\":6189:6195   */\n      0x00\n        /* \"#utility.yul\":6223:6228   */\n      dup2\n        /* \"#utility.yul\":6217:6229   */\n      mload\n        /* \"#utility.yul\":6207:6229   */\n      swap1\n      pop\n        /* \"#utility.yul\":6137:6236   */\n      swap2\n      swap1\n      pop\n      jump\t// out\n        /* \"#utility.yul\":6242:6411   */\n    tag_123:\n        /* \"#utility.yul\":6326:6337   */\n      0x00\n        /* \"#utility.yul\":6360:6366   */\n      dup3\n        /* \"#utility.yul\":6355:6358   */\n      dup3\n        /* \"#utility.yul\":6348:6367   */\n      mstore\n        /* \"#utility.yul\":6400:6404   */\n      0x20\n        /* \"#utility.yul\":6395:6398   */\n      dup3\n        /* \"#utility.yul\":6391:6405   */\n      add\n        /* \"#utility.yul\":6376:6405   */\n      swap1\n      pop\n        /* \"#utility.yul\":6242:6411   */\n      swap3\n      swap2\n      pop\n      pop\n      jump\t// out\n        /* \"#utility.yul\":6417:6608   */\n    tag_37:\n        /* \"#utility.yul\":6457:6461   */\n      0x00\n        /* \"#utility.yul\":6477:6497   */\n      tag_162\n        /* \"#utility.yul\":6495:6496   */\n      dup3\n        /* \"#utility.yul\":6477:6497   */\n      tag_136\n      jump\t// in\n    tag_162:\n        /* \"#utility.yul\":6472:6497   */\n      swap2\n      pop\n        /* \"#utility.yul\":6511:6531   */\n      tag_163\n        /* \"#utility.yul\":6529:6530   */\n      dup4\n        /* \"#utility.yul\":6511:6531   */\n      tag_136\n      jump\t// in\n    tag_163:\n        /* \"#utility.yul\":6506:6531   */\n      swap3\n      pop\n        /* \"#utility.yul\":6550:6551   */\n      dup3\n        /* \"#utility.yul\":6547:6548   */\n      dup3\n        /* \"#utility.yul\":6544:6552   */\n      lt\n        /* \"#utility.yul\":6541:6575   */\n      iszero\n      tag_164\n      jumpi\n        /* \"#utility.yul\":6555:6573   */\n      tag_165\n      tag_166\n      jump\t// in\n    tag_165:\n        /* \"#utility.yul\":6541:6575   */\n    tag_164:\n        /* \"#utility.yul\":6600:6601   */\n      dup3\n        /* \"#utility.yul\":6597:6598   */\n      dup3\n        /* \"#utility.yul\":6593:6602   */\n      sub\n        /* \"#utility.yul\":6585:6602   */\n      swap1\n      pop\n        /* \"#utility.yul\":6417:6608   */\n      swap3\n      swap2\n      pop\n      pop\n      jump\t// out\n        /* \"#utility.yul\":6614:6710   */\n    tag_117:\n        /* \"#utility.yul\":6651:6658   */\n      0x00\n        /* \"#utility.yul\":6680:6704   */\n      tag_168\n        /* \"#utility.yul\":6698:6703   */\n      dup3\n        /* \"#utility.yul\":6680:6704   */\n      tag_169\n      jump\t// in\n    tag_168:\n        /* \"#utility.yul\":6669:6704   */\n      swap1\n      pop\n        /* \"#utility.yul\":6614:6710   */\n      swap2\n      swap1\n      pop\n      jump\t// out\n        /* \"#utility.yul\":6716:6842   */\n    tag_169:\n        /* \"#utility.yul\":6753:6760   */\n      0x00\n        /* \"#utility.yul\":6793:6835   */\n      0xffffffffffffffffffffffffffffffffffffffff\n        /* \"#utility.yul\":6786:6791   */\n      dup3\n        /* \"#utility.yul\":6782:6836   */\n      and\n        /* \"#utility.yul\":6771:6836   */\n      swap1\n      pop\n        /* \"#utility.yul\":6716:6842   */\n      swap2\n      swap1\n      pop\n      jump\t// out\n        /* \"#utility.yul\":6848:6925   */\n    tag_136:\n        /* \"#utility.yul\":6885:6892   */\n      0x00\n        /* \"#utility.yul\":6914:6919   */\n      dup2\n        /* \"#utility.yul\":6903:6919   */\n      swap1\n      pop\n        /* \"#utility.yul\":6848:6925   */\n      swap2\n      swap1\n      pop\n      jump\t// out\n        /* \"#utility.yul\":6931:7085   */\n    tag_77:\n        /* \"#utility.yul\":7015:7021   */\n      dup3\n        /* \"#utility.yul\":7010:7013   */\n      dup2\n        /* \"#utility.yul\":7005:7008   */\n      dup4\n        /* \"#utility.yul\":6992:7022   */\n      calldatacopy\n        /* \"#utility.yul\":7077:7078   */\n      0x00\n        /* \"#utility.yul\":7068:7074   */\n      dup4\n        /* \"#utility.yul\":7063:7066   */\n      dup4\n        /* \"#utility.yul\":7059:7075   */\n      add\n        /* \"#utility.yul\":7052:7079   */\n      mstore\n        /* \"#utility.yul\":6931:7085   */\n      pop\n      pop\n      pop\n      jump\t// out\n        /* \"#utility.yul\":7091:7398   */\n    tag_125:\n        /* \"#utility.yul\":7159:7160   */\n      0x00\n        /* \"#utility.yul\":7169:7282   */\n    tag_174:\n        /* \"#utility.yul\":7183:7189   */\n      dup4\n        /* \"#utility.yul\":7180:7181   */\n      dup2\n        /* \"#utility.yul\":7177:7190   */\n      lt\n        /* \"#utility.yul\":7169:7282   */\n      iszero\n      tag_176\n      jumpi\n        /* \"#utility.yul\":7268:7269   */\n      dup1\n        /* \"#utility.yul\":7263:7266   */\n      dup3\n        /* \"#utility.yul\":7259:7270   */\n      add\n        /* \"#utility.yul\":7253:7271   */\n      mload\n        /* \"#utility.yul\":7249:7250   */\n      dup2\n        /* \"#utility.yul\":7244:7247   */\n      dup5\n        /* \"#utility.yul\":7240:7251   */\n      add\n        /* \"#utility.yul\":7233:7272   */\n      mstore\n        /* \"#utility.yul\":7205:7207   */\n      0x20\n        /* \"#utility.yul\":7202:7203   */\n      dup2\n        /* \"#utility.yul\":7198:7208   */\n      add\n        /* \"#utility.yul\":7193:7208   */\n      swap1\n      pop\n        /* \"#utility.yul\":7169:7282   */\n      jump(tag_174)\n    tag_176:\n        /* \"#utility.yul\":7300:7306   */\n      dup4\n        /* \"#utility.yul\":7297:7298   */\n      dup2\n        /* \"#utility.yul\":7294:7307   */\n      gt\n        /* \"#utility.yul\":7291:7392   */\n      iszero\n      tag_177\n      jumpi\n        /* \"#utility.yul\":7380:7381   */\n      0x00\n        /* \"#utility.yul\":7371:7377   */\n      dup5\n        /* \"#utility.yul\":7366:7369   */\n      dup5\n        /* \"#utility.yul\":7362:7378   */\n      add\n        /* \"#utility.yul\":7355:7382   */\n      mstore\n        /* \"#utility.yul\":7291:7392   */\n    tag_177:\n        /* \"#utility.yul\":7140:7398   */\n      pop\n        /* \"#utility.yul\":7091:7398   */\n      pop\n      pop\n      pop\n      jump\t// out\n        /* \"#utility.yul\":7404:7724   */\n    tag_41:\n        /* \"#utility.yul\":7448:7454   */\n      0x00\n        /* \"#utility.yul\":7485:7486   */\n      0x02\n        /* \"#utility.yul\":7479:7483   */\n      dup3\n        /* \"#utility.yul\":7475:7487   */\n      div\n        /* \"#utility.yul\":7465:7487   */\n      swap1\n      pop\n        /* \"#utility.yul\":7532:7533   */\n      0x01\n        /* \"#utility.yul\":7526:7530   */\n      dup3\n        /* \"#utility.yul\":7522:7534   */\n      and\n        /* \"#utility.yul\":7553:7571   */\n      dup1\n        /* \"#utility.yul\":7543:7624   */\n      tag_179\n      jumpi\n        /* \"#utility.yul\":7609:7613   */\n      0x7f\n        /* \"#utility.yul\":7601:7607   */\n      dup3\n        /* \"#utility.yul\":7597:7614   */\n      and\n        /* \"#utility.yul\":7587:7614   */\n      swap2\n      pop\n        /* \"#utility.yul\":7543:7624   */\n    tag_179:\n        /* \"#utility.yul\":7671:7673   */\n      0x20\n        /* \"#utility.yul\":7663:7669   */\n      dup3\n        /* \"#utility.yul\":7660:7674   */\n      lt\n        /* \"#utility.yul\":7640:7658   */\n      dup2\n        /* \"#utility.yul\":7637:7675   */\n      eq\n        /* \"#utility.yul\":7634:7718   */\n      iszero\n      tag_180\n      jumpi\n        /* \"#utility.yul\":7690:7708   */\n      tag_181\n      tag_182\n      jump\t// in\n    tag_181:\n        /* \"#utility.yul\":7634:7718   */\n    tag_180:\n        /* \"#utility.yul\":7455:7724   */\n      pop\n        /* \"#utility.yul\":7404:7724   */\n      swap2\n      swap1\n      pop\n      jump\t// out\n        /* \"#utility.yul\":7730:8011   */\n    tag_152:\n        /* \"#utility.yul\":7813:7840   */\n      tag_184\n        /* \"#utility.yul\":7835:7839   */\n      dup3\n        /* \"#utility.yul\":7813:7840   */\n      tag_127\n      jump\t// in\n    tag_184:\n        /* \"#utility.yul\":7805:7811   */\n      dup2\n        /* \"#utility.yul\":7801:7841   */\n      add\n        /* \"#utility.yul\":7943:7949   */\n      dup2\n        /* \"#utility.yul\":7931:7941   */\n      dup2\n        /* \"#utility.yul\":7928:7950   */\n      lt\n        /* \"#utility.yul\":7907:7925   */\n      0xffffffffffffffff\n        /* \"#utility.yul\":7895:7905   */\n      dup3\n        /* \"#utility.yul\":7892:7926   */\n      gt\n        /* \"#utility.yul\":7889:7951   */\n      or\n        /* \"#utility.yul\":7886:7974   */\n      iszero\n      tag_185\n      jumpi\n        /* \"#utility.yul\":7954:7972   */\n      tag_186\n      tag_157\n      jump\t// in\n    tag_186:\n        /* \"#utility.yul\":7886:7974   */\n    tag_185:\n        /* \"#utility.yul\":7994:8004   */\n      dup1\n        /* \"#utility.yul\":7990:7992   */\n      0x40\n        /* \"#utility.yul\":7983:8005   */\n      mstore\n        /* \"#utility.yul\":7773:8011   */\n      pop\n        /* \"#utility.yul\":7730:8011   */\n      pop\n      pop\n      jump\t// out\n        /* \"#utility.yul\":8017:8250   */\n    tag_34:\n        /* \"#utility.yul\":8056:8059   */\n      0x00\n        /* \"#utility.yul\":8079:8103   */\n      tag_188\n        /* \"#utility.yul\":8097:8102   */\n      dup3\n        /* \"#utility.yul\":8079:8103   */\n      tag_136\n      jump\t// in\n    tag_188:\n        /* \"#utility.yul\":8070:8103   */\n      swap2\n      pop\n        /* \"#utility.yul\":8125:8191   */\n      0xffffffffffffffffffffffffffffffffffffffffffffffffffffffffffffffff\n        /* \"#utility.yul\":8118:8123   */\n      dup3\n        /* \"#utility.yul\":8115:8192   */\n      eq\n        /* \"#utility.yul\":8112:8215   */\n      iszero\n      tag_189\n      jumpi\n        /* \"#utility.yul\":8195:8213   */\n      tag_190\n      tag_166\n      jump\t// in\n    tag_190:\n        /* \"#utility.yul\":8112:8215   */\n    tag_189:\n        /* \"#utility.yul\":8242:8243   */\n      0x01\n        /* \"#utility.yul\":8235:8240   */\n      dup3\n        /* \"#utility.yul\":8231:8244   */\n      add\n        /* \"#utility.yul\":8224:8244   */\n      swap1\n      pop\n        /* \"#utility.yul\":8017:8250   */\n      swap2\n      swap1\n      pop\n      jump\t// out\n        /* \"#utility.yul\":8256:8436   */\n    tag_166:\n        /* \"#utility.yul\":8304:8381   */\n      0x4e487b7100000000000000000000000000000000000000000000000000000000\n        /* \"#utility.yul\":8301:8302   */\n      0x00\n        /* \"#utility.yul\":8294:8382   */\n      mstore\n        /* \"#utility.yul\":8401:8405   */\n      0x11\n        /* \"#utility.yul\":8398:8399   */\n      0x04\n        /* \"#utility.yul\":8391:8406   */\n      mstore\n        /* \"#utility.yul\":8425:8429   */\n      0x24\n        /* \"#utility.yul\":8422:8423   */\n      0x00\n        /* \"#utility.yul\":8415:8430   */\n      revert\n        /* \"#utility.yul\":8442:8622   */\n    tag_182:\n        /* \"#utility.yul\":8490:8567   */\n      0x4e487b7100000000000000000000000000000000000000000000000000000000\n        /* \"#utility.yul\":8487:8488   */\n      0x00\n        /* \"#utility.yul\":8480:8568   */\n      mstore\n        /* \"#utility.yul\":8587:8591   */\n      0x22\n        /* \"#utility.yul\":8584:8585   */\n      0x04\n        /* \"#utility.yul\":8577:8592   */\n      mstore\n        /* \"#utility.yul\":8611:8615   */\n      0x24\n        /* \"#utility.yul\":8608:8609   */\n      0x00\n        /* \"#utility.yul\":8601:8616   */\n      revert\n        /* \"#utility.yul\":8628:8808   */\n    tag_157:\n        /* \"#utility.yul\":8676:8753   */\n      0x4e487b7100000000000000000000000000000000000000000000000000000000\n        /* \"#utility.yul\":8673:8674   */\n      0x00\n        /* \"#utility.yul\":8666:8754   */\n      mstore\n        /* \"#utility.yul\":8773:8777   */\n      0x41\n        /* \"#utility.yul\":8770:8771   */\n      0x04\n        /* \"#utility.yul\":8763:8778   */\n      mstore\n        /* \"#utility.yul\":8797:8801   */\n      0x24\n        /* \"#utility.yul\":8794:8795   */\n      0x00\n        /* \"#utility.yul\":8787:8802   */\n      revert\n        /* \"#utility.yul\":8814:8931   */\n    tag_86:\n        /* \"#utility.yul\":8923:8924   */\n      0x00\n        /* \"#utility.yul\":8920:8921   */\n      dup1\n        /* \"#utility.yul\":8913:8925   */\n      revert\n        /* \"#utility.yul\":8937:9054   */\n    tag_75:\n        /* \"#utility.yul\":9046:9047   */\n      0x00\n        /* \"#utility.yul\":9043:9044   */\n      dup1\n        /* \"#utility.yul\":9036:9048   */\n      revert\n        /* \"#utility.yul\":9060:9177   */\n    tag_102:\n        /* \"#utility.yul\":9169:9170   */\n      0x00\n        /* \"#utility.yul\":9166:9167   */\n      dup1\n        /* \"#utility.yul\":9159:9171   */\n      revert\n        /* \"#utility.yul\":9183:9300   */\n    tag_95:\n        /* \"#utility.yul\":9292:9293   */\n      0x00\n        /* \"#utility.yul\":9289:9290   */\n      dup1\n        /* \"#utility.yul\":9282:9294   */\n      revert\n        /* \"#utility.yul\":9306:9408   */\n    tag_127:\n        /* \"#utility.yul\":9347:9353   */\n      0x00\n        /* \"#utility.yul\":9398:9400   */\n      0x1f\n        /* \"#utility.yul\":9394:9401   */\n      not\n        /* \"#utility.yul\":9389:9391   */\n      0x1f\n        /* \"#utility.yul\":9382:9387   */\n      dup4\n        /* \"#utility.yul\":9378:9392   */\n      add\n        /* \"#utility.yul\":9374:9402   */\n      and\n        /* \"#utility.yul\":9364:9402   */\n      swap1\n      pop\n        /* \"#utility.yul\":9306:9408   */\n      swap2\n      swap1\n      pop\n      jump\t// out\n        /* \"#utility.yul\":9414:9641   */\n    tag_132:\n        /* \"#utility.yul\":9554:9588   */\n      0x536f6c6f2073652070756564652074656e657220756e20636f63686520706f72\n        /* \"#utility.yul\":9550:9551   */\n      0x00\n        /* \"#utility.yul\":9542:9548   */\n      dup3\n        /* \"#utility.yul\":9538:9552   */\n      add\n        /* \"#utility.yul\":9531:9589   */\n      mstore\n        /* \"#utility.yul\":9623:9633   */\n      0x20706572736f6e61000000000000000000000000000000000000000000000000\n        /* \"#utility.yul\":9618:9620   */\n      0x20\n        /* \"#utility.yul\":9610:9616   */\n      dup3\n        /* \"#utility.yul\":9606:9621   */\n      add\n        /* \"#utility.yul\":9599:9634   */\n      mstore\n        /* \"#utility.yul\":9414:9641   */\n      pop\n      jump\t// out\n        /* \"#utility.yul\":9647:9769   */\n    tag_81:\n        /* \"#utility.yul\":9720:9744   */\n      tag_201\n        /* \"#utility.yul\":9738:9743   */\n      dup2\n        /* \"#utility.yul\":9720:9744   */\n      tag_117\n      jump\t// in\n    tag_201:\n        /* \"#utility.yul\":9713:9718   */\n      dup2\n        /* \"#utility.yul\":9710:9745   */\n      eq\n        /* \"#utility.yul\":9700:9763   */\n      tag_202\n      jumpi\n        /* \"#utility.yul\":9759:9760   */\n      0x00\n        /* \"#utility.yul\":9756:9757   */\n      dup1\n        /* \"#utility.yul\":9749:9761   */\n      revert\n        /* \"#utility.yul\":9700:9763   */\n    tag_202:\n        /* \"#utility.yul\":9647:9769   */\n      pop\n      jump\t// out\n        /* \"#utility.yul\":9775:9897   */\n    tag_91:\n        /* \"#utility.yul\":9848:9872   */\n      tag_204\n        /* \"#utility.yul\":9866:9871   */\n      dup2\n        /* \"#utility.yul\":9848:9872   */\n      tag_136\n      jump\t// in\n    tag_204:\n        /* \"#utility.yul\":9841:9846   */\n      dup2\n        /* \"#utility.yul\":9838:9873   */\n      eq\n        /* \"#utility.yul\":9828:9891   */\n      tag_205\n      jumpi\n        /* \"#utility.yul\":9887:9888   */\n      0x00\n        /* \"#utility.yul\":9884:9885   */\n      dup1\n        /* \"#utility.yul\":9877:9889   */\n      revert\n        /* \"#utility.yul\":9828:9891   */\n    tag_205:\n        /* \"#utility.yul\":9775:9897   */\n      pop\n      jump\t// out\n\n    auxdata: 0xa2646970667358221220be15a4182583973194765fa65964f5b092488457c0319c0305041c6955547d9e64736f6c63430008070033\n}\n",
				"bytecode": {
					"linkReferences": {},
					"object": "60806040526000805534801561001457600080fd5b50610bc1806100246000396000f3fe608060405234801561001057600080fd5b50600436106100415760003560e01c80631c6743e4146100465780632458c54414610076578063d735573d146100a6575b600080fd5b610060600480360381019061005b9190610660565b6100db565b60405161006d9190610871565b60405180910390f35b610090600480360381019061008b919061068d565b6100f3565b60405161009d9190610871565b60405180910390f35b6100c060048036038101906100bb9190610734565b61031f565b6040516100d2969594939291906107db565b60405180910390f35b60026020528060005260406000206000915090505481565b60006001600260003373ffffffffffffffffffffffffffffffffffffffff1673ffffffffffffffffffffffffffffffffffffffff1681526020019081526020016000205410610177576040517f08c379a000000000000000000000000000000000000000000000000000000000815260040161016e90610851565b60405180910390fd5b60016040518060c001604052803373ffffffffffffffffffffffffffffffffffffffff168152602001868152602001858152602001848152602001600081526020016000815250908060018154018082558091505060019003906000526020600020906006020160009091909190915060008201518160000160006101000a81548173ffffffffffffffffffffffffffffffffffffffff021916908373ffffffffffffffffffffffffffffffffffffffff160217905550602082015181600101908051906020019061024a929190610523565b506040820151816002019080519060200190610267929190610523565b506060820151816003019080519060200190610284929190610523565b506080820151816004015560a082015181600501555050600260003373ffffffffffffffffffffffffffffffffffffffff1673ffffffffffffffffffffffffffffffffffffffff16815260200190815260200160002060008154809291906102eb90610a13565b919050555060008081548092919061030290610a13565b9190505550600160005461031691906108fe565b90509392505050565b6001818154811061032f57600080fd5b90600052602060002090600602016000915090508060000160009054906101000a900473ffffffffffffffffffffffffffffffffffffffff1690806001018054610378906109b0565b80601f01602080910402602001604051908101604052809291908181526020018280546103a4906109b0565b80156103f15780601f106103c6576101008083540402835291602001916103f1565b820191906000526020600020905b8154815290600101906020018083116103d457829003601f168201915b505050505090806002018054610406906109b0565b80601f0160208091040260200160405190810160405280929190818152602001828054610432906109b0565b801561047f5780601f106104545761010080835404028352916020019161047f565b820191906000526020600020905b81548152906001019060200180831161046257829003601f168201915b505050505090806003018054610494906109b0565b80601f01602080910402602001604051908101604052809291908181526020018280546104c0906109b0565b801561050d5780601f106104e25761010080835404028352916020019161050d565b820191906000526020600020905b8154815290600101906020018083116104f057829003601f168201915b5050505050908060040154908060050154905086565b82805461052f906109b0565b90600052602060002090601f0160209004810192826105515760008555610598565b82601f1061056a57805160ff1916838001178555610598565b82800160010185558215610598579182015b8281111561059757825182559160200191906001019061057c565b5b5090506105a591906105a9565b5090565b5b808211156105c25760008160009055506001016105aa565b5090565b60006105d96105d4846108b1565b61088c565b9050828152602081018484840111156105f5576105f4610aee565b5b61060084828561096e565b509392505050565b60008135905061061781610b5d565b92915050565b600082601f83011261063257610631610ae9565b5b81356106428482602086016105c6565b91505092915050565b60008135905061065a81610b74565b92915050565b60006020828403121561067657610675610af8565b5b600061068484828501610608565b91505092915050565b6000806000606084860312156106a6576106a5610af8565b5b600084013567ffffffffffffffff8111156106c4576106c3610af3565b5b6106d08682870161061d565b935050602084013567ffffffffffffffff8111156106f1576106f0610af3565b5b6106fd8682870161061d565b925050604084013567ffffffffffffffff81111561071e5761071d610af3565b5b61072a8682870161061d565b9150509250925092565b60006020828403121561074a57610749610af8565b5b60006107588482850161064b565b91505092915050565b61076a81610932565b82525050565b600061077b826108e2565b61078581856108ed565b935061079581856020860161097d565b61079e81610afd565b840191505092915050565b60006107b66028836108ed565b91506107c182610b0e565b604082019050919050565b6107d581610964565b82525050565b600060c0820190506107f06000830189610761565b81810360208301526108028188610770565b905081810360408301526108168187610770565b9050818103606083015261082a8186610770565b905061083960808301856107cc565b61084660a08301846107cc565b979650505050505050565b6000602082019050818103600083015261086a816107a9565b9050919050565b600060208201905061088660008301846107cc565b92915050565b60006108966108a7565b90506108a282826109e2565b919050565b6000604051905090565b600067ffffffffffffffff8211156108cc576108cb610aba565b5b6108d582610afd565b9050602081019050919050565b600081519050919050565b600082825260208201905092915050565b600061090982610964565b915061091483610964565b92508282101561092757610926610a5c565b5b828203905092915050565b600061093d82610944565b9050919050565b600073ffffffffffffffffffffffffffffffffffffffff82169050919050565b6000819050919050565b82818337600083830152505050565b60005b8381101561099b578082015181840152602081019050610980565b838111156109aa576000848401525b50505050565b600060028204905060018216806109c857607f821691505b602082108114156109dc576109db610a8b565b5b50919050565b6109eb82610afd565b810181811067ffffffffffffffff82111715610a0a57610a09610aba565b5b80604052505050565b6000610a1e82610964565b91507fffffffffffffffffffffffffffffffffffffffffffffffffffffffffffffffff821415610a5157610a50610a5c565b5b600182019050919050565b7f4e487b7100000000000000000000000000000000000000000000000000000000600052601160045260246000fd5b7f4e487b7100000000000000000000000000000000000000000000000000000000600052602260045260246000fd5b7f4e487b7100000000000000000000000000000000000000000000000000000000600052604160045260246000fd5b600080fd5b600080fd5b600080fd5b600080fd5b6000601f19601f8301169050919050565b7f536f6c6f2073652070756564652074656e657220756e20636f63686520706f7260008201527f20706572736f6e61000000000000000000000000000000000000000000000000602082015250565b610b6681610932565b8114610b7157600080fd5b50565b610b7d81610964565b8114610b8857600080fd5b5056fea2646970667358221220be15a4182583973194765fa65964f5b092488457c0319c0305041c6955547d9e64736f6c63430008070033",
					"opcodes": "PUSH1 0x80 PUSH1 0x40 MSTORE PUSH1 0x0 DUP1 SSTORE CALLVALUE DUP1 ISZERO PUSH2 0x14 JUMPI PUSH1 0x0 DUP1 REVERT JUMPDEST POP PUSH2 0xBC1 DUP1 PUSH2 0x24 PUSH1 0x0 CODECOPY PUSH1 0x0 RETURN INVALID PUSH1 0x80 PUSH1 0x40 MSTORE CALLVALUE DUP1 ISZERO PUSH2 0x10 JUMPI PUSH1 0x0 DUP1 REVERT JUMPDEST POP PUSH1 0x4 CALLDATASIZE LT PUSH2 0x41 JUMPI PUSH1 0x0 CALLDATALOAD PUSH1 0xE0 SHR DUP1 PUSH4 0x1C6743E4 EQ PUSH2 0x46 JUMPI DUP1 PUSH4 0x2458C544 EQ PUSH2 0x76 JUMPI DUP1 PUSH4 0xD735573D EQ PUSH2 0xA6 JUMPI JUMPDEST PUSH1 0x0 DUP1 REVERT JUMPDEST PUSH2 0x60 PUSH1 0x4 DUP1 CALLDATASIZE SUB DUP2 ADD SWAP1 PUSH2 0x5B SWAP2 SWAP1 PUSH2 0x660 JUMP JUMPDEST PUSH2 0xDB JUMP JUMPDEST PUSH1 0x40 MLOAD PUSH2 0x6D SWAP2 SWAP1 PUSH2 0x871 JUMP JUMPDEST PUSH1 0x40 MLOAD DUP1 SWAP2 SUB SWAP1 RETURN JUMPDEST PUSH2 0x90 PUSH1 0x4 DUP1 CALLDATASIZE SUB DUP2 ADD SWAP1 PUSH2 0x8B SWAP2 SWAP1 PUSH2 0x68D JUMP JUMPDEST PUSH2 0xF3 JUMP JUMPDEST PUSH1 0x40 MLOAD PUSH2 0x9D SWAP2 SWAP1 PUSH2 0x871 JUMP JUMPDEST PUSH1 0x40 MLOAD DUP1 SWAP2 SUB SWAP1 RETURN JUMPDEST PUSH2 0xC0 PUSH1 0x4 DUP1 CALLDATASIZE SUB DUP2 ADD SWAP1 PUSH2 0xBB SWAP2 SWAP1 PUSH2 0x734 JUMP JUMPDEST PUSH2 0x31F JUMP JUMPDEST PUSH1 0x40 MLOAD PUSH2 0xD2 SWAP7 SWAP6 SWAP5 SWAP4 SWAP3 SWAP2 SWAP1 PUSH2 0x7DB JUMP JUMPDEST PUSH1 0x40 MLOAD DUP1 SWAP2 SUB SWAP1 RETURN JUMPDEST PUSH1 0x2 PUSH1 0x20 MSTORE DUP1 PUSH1 0x0 MSTORE PUSH1 0x40 PUSH1 0x0 KECCAK256 PUSH1 0x0 SWAP2 POP SWAP1 POP SLOAD DUP2 JUMP JUMPDEST PUSH1 0x0 PUSH1 0x1 PUSH1 0x2 PUSH1 0x0 CALLER PUSH20 0xFFFFFFFFFFFFFFFFFFFFFFFFFFFFFFFFFFFFFFFF AND PUSH20 0xFFFFFFFFFFFFFFFFFFFFFFFFFFFFFFFFFFFFFFFF AND DUP2 MSTORE PUSH1 0x20 ADD SWAP1 DUP2 MSTORE PUSH1 0x20 ADD PUSH1 0x0 KECCAK256 SLOAD LT PUSH2 0x177 JUMPI PUSH1 0x40 MLOAD PUSH32 0x8C379A000000000000000000000000000000000000000000000000000000000 DUP2 MSTORE PUSH1 0x4 ADD PUSH2 0x16E SWAP1 PUSH2 0x851 JUMP JUMPDEST PUSH1 0x40 MLOAD DUP1 SWAP2 SUB SWAP1 REVERT JUMPDEST PUSH1 0x1 PUSH1 0x40 MLOAD DUP1 PUSH1 0xC0 ADD PUSH1 0x40 MSTORE DUP1 CALLER PUSH20 0xFFFFFFFFFFFFFFFFFFFFFFFFFFFFFFFFFFFFFFFF AND DUP2 MSTORE PUSH1 0x20 ADD DUP7 DUP2 MSTORE PUSH1 0x20 ADD DUP6 DUP2 MSTORE PUSH1 0x20 ADD DUP5 DUP2 MSTORE PUSH1 0x20 ADD PUSH1 0x0 DUP2 MSTORE PUSH1 0x20 ADD PUSH1 0x0 DUP2 MSTORE POP SWAP1 DUP1 PUSH1 0x1 DUP2 SLOAD ADD DUP1 DUP3 SSTORE DUP1 SWAP2 POP POP PUSH1 0x1 SWAP1 SUB SWAP1 PUSH1 0x0 MSTORE PUSH1 0x20 PUSH1 0x0 KECCAK256 SWAP1 PUSH1 0x6 MUL ADD PUSH1 0x0 SWAP1 SWAP2 SWAP1 SWAP2 SWAP1 SWAP2 POP PUSH1 0x0 DUP3 ADD MLOAD DUP2 PUSH1 0x0 ADD PUSH1 0x0 PUSH2 0x100 EXP DUP2 SLOAD DUP2 PUSH20 0xFFFFFFFFFFFFFFFFFFFFFFFFFFFFFFFFFFFFFFFF MUL NOT AND SWAP1 DUP4 PUSH20 0xFFFFFFFFFFFFFFFFFFFFFFFFFFFFFFFFFFFFFFFF AND MUL OR SWAP1 SSTORE POP PUSH1 0x20 DUP3 ADD MLOAD DUP2 PUSH1 0x1 ADD SWAP1 DUP1 MLOAD SWAP1 PUSH1 0x20 ADD SWAP1 PUSH2 0x24A SWAP3 SWAP2 SWAP1 PUSH2 0x523 JUMP JUMPDEST POP PUSH1 0x40 DUP3 ADD MLOAD DUP2 PUSH1 0x2 ADD SWAP1 DUP1 MLOAD SWAP1 PUSH1 0x20 ADD SWAP1 PUSH2 0x267 SWAP3 SWAP2 SWAP1 PUSH2 0x523 JUMP JUMPDEST POP PUSH1 0x60 DUP3 ADD MLOAD DUP2 PUSH1 0x3 ADD SWAP1 DUP1 MLOAD SWAP1 PUSH1 0x20 ADD SWAP1 PUSH2 0x284 SWAP3 SWAP2 SWAP1 PUSH2 0x523 JUMP JUMPDEST POP PUSH1 0x80 DUP3 ADD MLOAD DUP2 PUSH1 0x4 ADD SSTORE PUSH1 0xA0 DUP3 ADD MLOAD DUP2 PUSH1 0x5 ADD SSTORE POP POP PUSH1 0x2 PUSH1 0x0 CALLER PUSH20 0xFFFFFFFFFFFFFFFFFFFFFFFFFFFFFFFFFFFFFFFF AND PUSH20 0xFFFFFFFFFFFFFFFFFFFFFFFFFFFFFFFFFFFFFFFF AND DUP2 MSTORE PUSH1 0x20 ADD SWAP1 DUP2 MSTORE PUSH1 0x20 ADD PUSH1 0x0 KECCAK256 PUSH1 0x0 DUP2 SLOAD DUP1 SWAP3 SWAP2 SWAP1 PUSH2 0x2EB SWAP1 PUSH2 0xA13 JUMP JUMPDEST SWAP2 SWAP1 POP SSTORE POP PUSH1 0x0 DUP1 DUP2 SLOAD DUP1 SWAP3 SWAP2 SWAP1 PUSH2 0x302 SWAP1 PUSH2 0xA13 JUMP JUMPDEST SWAP2 SWAP1 POP SSTORE POP PUSH1 0x1 PUSH1 0x0 SLOAD PUSH2 0x316 SWAP2 SWAP1 PUSH2 0x8FE JUMP JUMPDEST SWAP1 POP SWAP4 SWAP3 POP POP POP JUMP JUMPDEST PUSH1 0x1 DUP2 DUP2 SLOAD DUP2 LT PUSH2 0x32F JUMPI PUSH1 0x0 DUP1 REVERT JUMPDEST SWAP1 PUSH1 0x0 MSTORE PUSH1 0x20 PUSH1 0x0 KECCAK256 SWAP1 PUSH1 0x6 MUL ADD PUSH1 0x0 SWAP2 POP SWAP1 POP DUP1 PUSH1 0x0 ADD PUSH1 0x0 SWAP1 SLOAD SWAP1 PUSH2 0x100 EXP SWAP1 DIV PUSH20 0xFFFFFFFFFFFFFFFFFFFFFFFFFFFFFFFFFFFFFFFF AND SWAP1 DUP1 PUSH1 0x1 ADD DUP1 SLOAD PUSH2 0x378 SWAP1 PUSH2 0x9B0 JUMP JUMPDEST DUP1 PUSH1 0x1F ADD PUSH1 0x20 DUP1 SWAP2 DIV MUL PUSH1 0x20 ADD PUSH1 0x40 MLOAD SWAP1 DUP2 ADD PUSH1 0x40 MSTORE DUP1 SWAP3 SWAP2 SWAP1 DUP2 DUP2 MSTORE PUSH1 0x20 ADD DUP3 DUP1 SLOAD PUSH2 0x3A4 SWAP1 PUSH2 0x9B0 JUMP JUMPDEST DUP1 ISZERO PUSH2 0x3F1 JUMPI DUP1 PUSH1 0x1F LT PUSH2 0x3C6 JUMPI PUSH2 0x100 DUP1 DUP4 SLOAD DIV MUL DUP4 MSTORE SWAP2 PUSH1 0x20 ADD SWAP2 PUSH2 0x3F1 JUMP JUMPDEST DUP3 ADD SWAP2 SWAP1 PUSH1 0x0 MSTORE PUSH1 0x20 PUSH1 0x0 KECCAK256 SWAP1 JUMPDEST DUP2 SLOAD DUP2 MSTORE SWAP1 PUSH1 0x1 ADD SWAP1 PUSH1 0x20 ADD DUP1 DUP4 GT PUSH2 0x3D4 JUMPI DUP3 SWAP1 SUB PUSH1 0x1F AND DUP3 ADD SWAP2 JUMPDEST POP POP POP POP POP SWAP1 DUP1 PUSH1 0x2 ADD DUP1 SLOAD PUSH2 0x406 SWAP1 PUSH2 0x9B0 JUMP JUMPDEST DUP1 PUSH1 0x1F ADD PUSH1 0x20 DUP1 SWAP2 DIV MUL PUSH1 0x20 ADD PUSH1 0x40 MLOAD SWAP1 DUP2 ADD PUSH1 0x40 MSTORE DUP1 SWAP3 SWAP2 SWAP1 DUP2 DUP2 MSTORE PUSH1 0x20 ADD DUP3 DUP1 SLOAD PUSH2 0x432 SWAP1 PUSH2 0x9B0 JUMP JUMPDEST DUP1 ISZERO PUSH2 0x47F JUMPI DUP1 PUSH1 0x1F LT PUSH2 0x454 JUMPI PUSH2 0x100 DUP1 DUP4 SLOAD DIV MUL DUP4 MSTORE SWAP2 PUSH1 0x20 ADD SWAP2 PUSH2 0x47F JUMP JUMPDEST DUP3 ADD SWAP2 SWAP1 PUSH1 0x0 MSTORE PUSH1 0x20 PUSH1 0x0 KECCAK256 SWAP1 JUMPDEST DUP2 SLOAD DUP2 MSTORE SWAP1 PUSH1 0x1 ADD SWAP1 PUSH1 0x20 ADD DUP1 DUP4 GT PUSH2 0x462 JUMPI DUP3 SWAP1 SUB PUSH1 0x1F AND DUP3 ADD SWAP2 JUMPDEST POP POP POP POP POP SWAP1 DUP1 PUSH1 0x3 ADD DUP1 SLOAD PUSH2 0x494 SWAP1 PUSH2 0x9B0 JUMP JUMPDEST DUP1 PUSH1 0x1F ADD PUSH1 0x20 DUP1 SWAP2 DIV MUL PUSH1 0x20 ADD PUSH1 0x40 MLOAD SWAP1 DUP2 ADD PUSH1 0x40 MSTORE DUP1 SWAP3 SWAP2 SWAP1 DUP2 DUP2 MSTORE PUSH1 0x20 ADD DUP3 DUP1 SLOAD PUSH2 0x4C0 SWAP1 PUSH2 0x9B0 JUMP JUMPDEST DUP1 ISZERO PUSH2 0x50D JUMPI DUP1 PUSH1 0x1F LT PUSH2 0x4E2 JUMPI PUSH2 0x100 DUP1 DUP4 SLOAD DIV MUL DUP4 MSTORE SWAP2 PUSH1 0x20 ADD SWAP2 PUSH2 0x50D JUMP JUMPDEST DUP3 ADD SWAP2 SWAP1 PUSH1 0x0 MSTORE PUSH1 0x20 PUSH1 0x0 KECCAK256 SWAP1 JUMPDEST DUP2 SLOAD DUP2 MSTORE SWAP1 PUSH1 0x1 ADD SWAP1 PUSH1 0x20 ADD DUP1 DUP4 GT PUSH2 0x4F0 JUMPI DUP3 SWAP1 SUB PUSH1 0x1F AND DUP3 ADD SWAP2 JUMPDEST POP POP POP POP POP SWAP1 DUP1 PUSH1 0x4 ADD SLOAD SWAP1 DUP1 PUSH1 0x5 ADD SLOAD SWAP1 POP DUP7 JUMP JUMPDEST DUP3 DUP1 SLOAD PUSH2 0x52F SWAP1 PUSH2 0x9B0 JUMP JUMPDEST SWAP1 PUSH1 0x0 MSTORE PUSH1 0x20 PUSH1 0x0 KECCAK256 SWAP1 PUSH1 0x1F ADD PUSH1 0x20 SWAP1 DIV DUP2 ADD SWAP3 DUP3 PUSH2 0x551 JUMPI PUSH1 0x0 DUP6 SSTORE PUSH2 0x598 JUMP JUMPDEST DUP3 PUSH1 0x1F LT PUSH2 0x56A JUMPI DUP1 MLOAD PUSH1 0xFF NOT AND DUP4 DUP1 ADD OR DUP6 SSTORE PUSH2 0x598 JUMP JUMPDEST DUP3 DUP1 ADD PUSH1 0x1 ADD DUP6 SSTORE DUP3 ISZERO PUSH2 0x598 JUMPI SWAP2 DUP3 ADD JUMPDEST DUP3 DUP2 GT ISZERO PUSH2 0x597 JUMPI DUP3 MLOAD DUP3 SSTORE SWAP2 PUSH1 0x20 ADD SWAP2 SWAP1 PUSH1 0x1 ADD SWAP1 PUSH2 0x57C JUMP JUMPDEST JUMPDEST POP SWAP1 POP PUSH2 0x5A5 SWAP2 SWAP1 PUSH2 0x5A9 JUMP JUMPDEST POP SWAP1 JUMP JUMPDEST JUMPDEST DUP1 DUP3 GT ISZERO PUSH2 0x5C2 JUMPI PUSH1 0x0 DUP2 PUSH1 0x0 SWAP1 SSTORE POP PUSH1 0x1 ADD PUSH2 0x5AA JUMP JUMPDEST POP SWAP1 JUMP JUMPDEST PUSH1 0x0 PUSH2 0x5D9 PUSH2 0x5D4 DUP5 PUSH2 0x8B1 JUMP JUMPDEST PUSH2 0x88C JUMP JUMPDEST SWAP1 POP DUP3 DUP2 MSTORE PUSH1 0x20 DUP2 ADD DUP5 DUP5 DUP5 ADD GT ISZERO PUSH2 0x5F5 JUMPI PUSH2 0x5F4 PUSH2 0xAEE JUMP JUMPDEST JUMPDEST PUSH2 0x600 DUP5 DUP3 DUP6 PUSH2 0x96E JUMP JUMPDEST POP SWAP4 SWAP3 POP POP POP JUMP JUMPDEST PUSH1 0x0 DUP2 CALLDATALOAD SWAP1 POP PUSH2 0x617 DUP2 PUSH2 0xB5D JUMP JUMPDEST SWAP3 SWAP2 POP POP JUMP JUMPDEST PUSH1 0x0 DUP3 PUSH1 0x1F DUP4 ADD SLT PUSH2 0x632 JUMPI PUSH2 0x631 PUSH2 0xAE9 JUMP JUMPDEST JUMPDEST DUP2 CALLDATALOAD PUSH2 0x642 DUP5 DUP3 PUSH1 0x20 DUP7 ADD PUSH2 0x5C6 JUMP JUMPDEST SWAP2 POP POP SWAP3 SWAP2 POP POP JUMP JUMPDEST PUSH1 0x0 DUP2 CALLDATALOAD SWAP1 POP PUSH2 0x65A DUP2 PUSH2 0xB74 JUMP JUMPDEST SWAP3 SWAP2 POP POP JUMP JUMPDEST PUSH1 0x0 PUSH1 0x20 DUP3 DUP5 SUB SLT ISZERO PUSH2 0x676 JUMPI PUSH2 0x675 PUSH2 0xAF8 JUMP JUMPDEST JUMPDEST PUSH1 0x0 PUSH2 0x684 DUP5 DUP3 DUP6 ADD PUSH2 0x608 JUMP JUMPDEST SWAP2 POP POP SWAP3 SWAP2 POP POP JUMP JUMPDEST PUSH1 0x0 DUP1 PUSH1 0x0 PUSH1 0x60 DUP5 DUP7 SUB SLT ISZERO PUSH2 0x6A6 JUMPI PUSH2 0x6A5 PUSH2 0xAF8 JUMP JUMPDEST JUMPDEST PUSH1 0x0 DUP5 ADD CALLDATALOAD PUSH8 0xFFFFFFFFFFFFFFFF DUP2 GT ISZERO PUSH2 0x6C4 JUMPI PUSH2 0x6C3 PUSH2 0xAF3 JUMP JUMPDEST JUMPDEST PUSH2 0x6D0 DUP7 DUP3 DUP8 ADD PUSH2 0x61D JUMP JUMPDEST SWAP4 POP POP PUSH1 0x20 DUP5 ADD CALLDATALOAD PUSH8 0xFFFFFFFFFFFFFFFF DUP2 GT ISZERO PUSH2 0x6F1 JUMPI PUSH2 0x6F0 PUSH2 0xAF3 JUMP JUMPDEST JUMPDEST PUSH2 0x6FD DUP7 DUP3 DUP8 ADD PUSH2 0x61D JUMP JUMPDEST SWAP3 POP POP PUSH1 0x40 DUP5 ADD CALLDATALOAD PUSH8 0xFFFFFFFFFFFFFFFF DUP2 GT ISZERO PUSH2 0x71E JUMPI PUSH2 0x71D PUSH2 0xAF3 JUMP JUMPDEST JUMPDEST PUSH2 0x72A DUP7 DUP3 DUP8 ADD PUSH2 0x61D JUMP JUMPDEST SWAP2 POP POP SWAP3 POP SWAP3 POP SWAP3 JUMP JUMPDEST PUSH1 0x0 PUSH1 0x20 DUP3 DUP5 SUB SLT ISZERO PUSH2 0x74A JUMPI PUSH2 0x749 PUSH2 0xAF8 JUMP JUMPDEST JUMPDEST PUSH1 0x0 PUSH2 0x758 DUP5 DUP3 DUP6 ADD PUSH2 0x64B JUMP JUMPDEST SWAP2 POP POP SWAP3 SWAP2 POP POP JUMP JUMPDEST PUSH2 0x76A DUP2 PUSH2 0x932 JUMP JUMPDEST DUP3 MSTORE POP POP JUMP JUMPDEST PUSH1 0x0 PUSH2 0x77B DUP3 PUSH2 0x8E2 JUMP JUMPDEST PUSH2 0x785 DUP2 DUP6 PUSH2 0x8ED JUMP JUMPDEST SWAP4 POP PUSH2 0x795 DUP2 DUP6 PUSH1 0x20 DUP7 ADD PUSH2 0x97D JUMP JUMPDEST PUSH2 0x79E DUP2 PUSH2 0xAFD JUMP JUMPDEST DUP5 ADD SWAP2 POP POP SWAP3 SWAP2 POP POP JUMP JUMPDEST PUSH1 0x0 PUSH2 0x7B6 PUSH1 0x28 DUP4 PUSH2 0x8ED JUMP JUMPDEST SWAP2 POP PUSH2 0x7C1 DUP3 PUSH2 0xB0E JUMP JUMPDEST PUSH1 0x40 DUP3 ADD SWAP1 POP SWAP2 SWAP1 POP JUMP JUMPDEST PUSH2 0x7D5 DUP2 PUSH2 0x964 JUMP JUMPDEST DUP3 MSTORE POP POP JUMP JUMPDEST PUSH1 0x0 PUSH1 0xC0 DUP3 ADD SWAP1 POP PUSH2 0x7F0 PUSH1 0x0 DUP4 ADD DUP10 PUSH2 0x761 JUMP JUMPDEST DUP2 DUP2 SUB PUSH1 0x20 DUP4 ADD MSTORE PUSH2 0x802 DUP2 DUP9 PUSH2 0x770 JUMP JUMPDEST SWAP1 POP DUP2 DUP2 SUB PUSH1 0x40 DUP4 ADD MSTORE PUSH2 0x816 DUP2 DUP8 PUSH2 0x770 JUMP JUMPDEST SWAP1 POP DUP2 DUP2 SUB PUSH1 0x60 DUP4 ADD MSTORE PUSH2 0x82A DUP2 DUP7 PUSH2 0x770 JUMP JUMPDEST SWAP1 POP PUSH2 0x839 PUSH1 0x80 DUP4 ADD DUP6 PUSH2 0x7CC JUMP JUMPDEST PUSH2 0x846 PUSH1 0xA0 DUP4 ADD DUP5 PUSH2 0x7CC JUMP JUMPDEST SWAP8 SWAP7 POP POP POP POP POP POP POP JUMP JUMPDEST PUSH1 0x0 PUSH1 0x20 DUP3 ADD SWAP1 POP DUP2 DUP2 SUB PUSH1 0x0 DUP4 ADD MSTORE PUSH2 0x86A DUP2 PUSH2 0x7A9 JUMP JUMPDEST SWAP1 POP SWAP2 SWAP1 POP JUMP JUMPDEST PUSH1 0x0 PUSH1 0x20 DUP3 ADD SWAP1 POP PUSH2 0x886 PUSH1 0x0 DUP4 ADD DUP5 PUSH2 0x7CC JUMP JUMPDEST SWAP3 SWAP2 POP POP JUMP JUMPDEST PUSH1 0x0 PUSH2 0x896 PUSH2 0x8A7 JUMP JUMPDEST SWAP1 POP PUSH2 0x8A2 DUP3 DUP3 PUSH2 0x9E2 JUMP JUMPDEST SWAP2 SWAP1 POP JUMP JUMPDEST PUSH1 0x0 PUSH1 0x40 MLOAD SWAP1 POP SWAP1 JUMP JUMPDEST PUSH1 0x0 PUSH8 0xFFFFFFFFFFFFFFFF DUP3 GT ISZERO PUSH2 0x8CC JUMPI PUSH2 0x8CB PUSH2 0xABA JUMP JUMPDEST JUMPDEST PUSH2 0x8D5 DUP3 PUSH2 0xAFD JUMP JUMPDEST SWAP1 POP PUSH1 0x20 DUP2 ADD SWAP1 POP SWAP2 SWAP1 POP JUMP JUMPDEST PUSH1 0x0 DUP2 MLOAD SWAP1 POP SWAP2 SWAP1 POP JUMP JUMPDEST PUSH1 0x0 DUP3 DUP3 MSTORE PUSH1 0x20 DUP3 ADD SWAP1 POP SWAP3 SWAP2 POP POP JUMP JUMPDEST PUSH1 0x0 PUSH2 0x909 DUP3 PUSH2 0x964 JUMP JUMPDEST SWAP2 POP PUSH2 0x914 DUP4 PUSH2 0x964 JUMP JUMPDEST SWAP3 POP DUP3 DUP3 LT ISZERO PUSH2 0x927 JUMPI PUSH2 0x926 PUSH2 0xA5C JUMP JUMPDEST JUMPDEST DUP3 DUP3 SUB SWAP1 POP SWAP3 SWAP2 POP POP JUMP JUMPDEST PUSH1 0x0 PUSH2 0x93D DUP3 PUSH2 0x944 JUMP JUMPDEST SWAP1 POP SWAP2 SWAP1 POP JUMP JUMPDEST PUSH1 0x0 PUSH20 0xFFFFFFFFFFFFFFFFFFFFFFFFFFFFFFFFFFFFFFFF DUP3 AND SWAP1 POP SWAP2 SWAP1 POP JUMP JUMPDEST PUSH1 0x0 DUP2 SWAP1 POP SWAP2 SWAP1 POP JUMP JUMPDEST DUP3 DUP2 DUP4 CALLDATACOPY PUSH1 0x0 DUP4 DUP4 ADD MSTORE POP POP POP JUMP JUMPDEST PUSH1 0x0 JUMPDEST DUP4 DUP2 LT ISZERO PUSH2 0x99B JUMPI DUP1 DUP3 ADD MLOAD DUP2 DUP5 ADD MSTORE PUSH1 0x20 DUP2 ADD SWAP1 POP PUSH2 0x980 JUMP JUMPDEST DUP4 DUP2 GT ISZERO PUSH2 0x9AA JUMPI PUSH1 0x0 DUP5 DUP5 ADD MSTORE JUMPDEST POP POP POP POP JUMP JUMPDEST PUSH1 0x0 PUSH1 0x2 DUP3 DIV SWAP1 POP PUSH1 0x1 DUP3 AND DUP1 PUSH2 0x9C8 JUMPI PUSH1 0x7F DUP3 AND SWAP2 POP JUMPDEST PUSH1 0x20 DUP3 LT DUP2 EQ ISZERO PUSH2 0x9DC JUMPI PUSH2 0x9DB PUSH2 0xA8B JUMP JUMPDEST JUMPDEST POP SWAP2 SWAP1 POP JUMP JUMPDEST PUSH2 0x9EB DUP3 PUSH2 0xAFD JUMP JUMPDEST DUP2 ADD DUP2 DUP2 LT PUSH8 0xFFFFFFFFFFFFFFFF DUP3 GT OR ISZERO PUSH2 0xA0A JUMPI PUSH2 0xA09 PUSH2 0xABA JUMP JUMPDEST JUMPDEST DUP1 PUSH1 0x40 MSTORE POP POP POP JUMP JUMPDEST PUSH1 0x0 PUSH2 0xA1E DUP3 PUSH2 0x964 JUMP JUMPDEST SWAP2 POP PUSH32 0xFFFFFFFFFFFFFFFFFFFFFFFFFFFFFFFFFFFFFFFFFFFFFFFFFFFFFFFFFFFFFFFF DUP3 EQ ISZERO PUSH2 0xA51 JUMPI PUSH2 0xA50 PUSH2 0xA5C JUMP JUMPDEST JUMPDEST PUSH1 0x1 DUP3 ADD SWAP1 POP SWAP2 SWAP1 POP JUMP JUMPDEST PUSH32 0x4E487B7100000000000000000000000000000000000000000000000000000000 PUSH1 0x0 MSTORE PUSH1 0x11 PUSH1 0x4 MSTORE PUSH1 0x24 PUSH1 0x0 REVERT JUMPDEST PUSH32 0x4E487B7100000000000000000000000000000000000000000000000000000000 PUSH1 0x0 MSTORE PUSH1 0x22 PUSH1 0x4 MSTORE PUSH1 0x24 PUSH1 0x0 REVERT JUMPDEST PUSH32 0x4E487B7100000000000000000000000000000000000000000000000000000000 PUSH1 0x0 MSTORE PUSH1 0x41 PUSH1 0x4 MSTORE PUSH1 0x24 PUSH1 0x0 REVERT JUMPDEST PUSH1 0x0 DUP1 REVERT JUMPDEST PUSH1 0x0 DUP1 REVERT JUMPDEST PUSH1 0x0 DUP1 REVERT JUMPDEST PUSH1 0x0 DUP1 REVERT JUMPDEST PUSH1 0x0 PUSH1 0x1F NOT PUSH1 0x1F DUP4 ADD AND SWAP1 POP SWAP2 SWAP1 POP JUMP JUMPDEST PUSH32 0x536F6C6F2073652070756564652074656E657220756E20636F63686520706F72 PUSH1 0x0 DUP3 ADD MSTORE PUSH32 0x20706572736F6E61000000000000000000000000000000000000000000000000 PUSH1 0x20 DUP3 ADD MSTORE POP JUMP JUMPDEST PUSH2 0xB66 DUP2 PUSH2 0x932 JUMP JUMPDEST DUP2 EQ PUSH2 0xB71 JUMPI PUSH1 0x0 DUP1 REVERT JUMPDEST POP JUMP JUMPDEST PUSH2 0xB7D DUP2 PUSH2 0x964 JUMP JUMPDEST DUP2 EQ PUSH2 0xB88 JUMPI PUSH1 0x0 DUP1 REVERT JUMPDEST POP JUMP INVALID LOG2 PUSH5 0x6970667358 0x22 SLT KECCAK256 0xBE ISZERO LOG4 XOR 0x25 DUP4 SWAP8 BALANCE SWAP5 PUSH23 0x5FA65964F5B092488457C0319C0305041C6955547D9E64 PUSH20 0x6F6C634300080700330000000000000000000000 "
				},
				"gasEstimates": {
					"creation": {
						"codeDepositCost": "601800",
						"executionCost": "5644",
						"totalCost": "607444"
					},
					"external": {
						"anadirCoche(string,string,string)": "infinite",
						"listaCoches(uint256)": "infinite",
						"numeroCochesPersona(address)": "2792"
					}
				},
				"methodIdentifiers": {
					"anadirCoche(string,string,string)": "2458c544",
					"listaCoches(uint256)": "d735573d",
					"numeroCochesPersona(address)": "1c6743e4"
				}
			},
			"storageLayout": {
				"storage": [
					{
						"astId": 17,
						"contract": "contracts/CarreraCoches/Coche.sol:Coche",
						"label": "contador",
						"offset": 0,
						"slot": "0",
						"type": "t_uint256"
					},
					{
						"astId": 21,
						"contract": "contracts/CarreraCoches/Coche.sol:Coche",
						"label": "listaCoches",
						"offset": 0,
						"slot": "1",
						"type": "t_array(t_struct(Coche)14_storage)dyn_storage"
					},
					{
						"astId": 25,
						"contract": "contracts/CarreraCoches/Coche.sol:Coche",
						"label": "numeroCochesPersona",
						"offset": 0,
						"slot": "2",
						"type": "t_mapping(t_address,t_uint256)"
					}
				],
				"types": {
					"t_address": {
						"encoding": "inplace",
						"label": "address",
						"numberOfBytes": "20"
					},
					"t_array(t_struct(Coche)14_storage)dyn_storage": {
						"base": "t_struct(Coche)14_storage",
						"encoding": "dynamic_array",
						"label": "struct Coche.Coche[]",
						"numberOfBytes": "32"
					},
					"t_mapping(t_address,t_uint256)": {
						"encoding": "mapping",
						"key": "t_address",
						"label": "mapping(address => uint256)",
						"numberOfBytes": "32",
						"value": "t_uint256"
					},
					"t_string_storage": {
						"encoding": "bytes",
						"label": "string",
						"numberOfBytes": "32"
					},
					"t_struct(Coche)14_storage": {
						"encoding": "inplace",
						"label": "struct Coche.Coche",
						"members": [
							{
								"astId": 3,
								"contract": "contracts/CarreraCoches/Coche.sol:Coche",
								"label": "idPiloto",
								"offset": 0,
								"slot": "0",
								"type": "t_address"
							},
							{
								"astId": 5,
								"contract": "contracts/CarreraCoches/Coche.sol:Coche",
								"label": "modelo",
								"offset": 0,
								"slot": "1",
								"type": "t_string_storage"
							},
							{
								"astId": 7,
								"contract": "contracts/CarreraCoches/Coche.sol:Coche",
								"label": "marca",
								"offset": 0,
								"slot": "2",
								"type": "t_string_storage"
							},
							{
								"astId": 9,
								"contract": "contracts/CarreraCoches/Coche.sol:Coche",
								"label": "nombrePiloto",
								"offset": 0,
								"slot": "3",
								"type": "t_string_storage"
							},
							{
								"astId": 11,
								"contract": "contracts/CarreraCoches/Coche.sol:Coche",
								"label": "carrerasGanadas",
								"offset": 0,
								"slot": "4",
								"type": "t_uint256"
							},
							{
								"astId": 13,
								"contract": "contracts/CarreraCoches/Coche.sol:Coche",
								"label": "carrerasTotales",
								"offset": 0,
								"slot": "5",
								"type": "t_uint256"
							}
						],
						"numberOfBytes": "192"
					},
					"t_uint256": {
						"encoding": "inplace",
						"label": "uint256",
						"numberOfBytes": "32"
					}
				}
			},
			"userdoc": {
				"kind": "user",
				"methods": {},
				"version": 1
			}
		}
	}
}