{
	"contracts/CarreraCoches/principal.sol": {
		"CarreraCoches": {
			"abi": [
				{
					"anonymous": false,
					"inputs": [
						{
							"indexed": true,
							"internalType": "address",
							"name": "previousOwner",
							"type": "address"
						},
						{
							"indexed": true,
							"internalType": "address",
							"name": "newOwner",
							"type": "address"
						}
					],
					"name": "OwnershipTransferred",
					"type": "event"
				},
				{
					"anonymous": false,
					"inputs": [
						{
							"indexed": false,
							"internalType": "string",
							"name": "mo",
							"type": "string"
						},
						{
							"indexed": false,
							"internalType": "string",
							"name": "ma",
							"type": "string"
						},
						{
							"indexed": false,
							"internalType": "uint32",
							"name": "niv",
							"type": "uint32"
						},
						{
							"indexed": false,
							"internalType": "uint256",
							"name": "carrGan",
							"type": "uint256"
						},
						{
							"indexed": false,
							"internalType": "uint256",
							"name": "carrTot",
							"type": "uint256"
						}
					],
					"name": "cochePropietario",
					"type": "event"
				},
				{
					"anonymous": false,
					"inputs": [
						{
							"indexed": false,
							"internalType": "uint256",
							"name": "compr",
							"type": "uint256"
						}
					],
					"name": "comprobar",
					"type": "event"
				},
				{
					"anonymous": false,
					"inputs": [
						{
							"indexed": false,
							"internalType": "string",
							"name": "ms",
							"type": "string"
						}
					],
					"name": "confirmacionDepositoLleno",
					"type": "event"
				},
				{
					"anonymous": false,
					"inputs": [
						{
							"indexed": false,
							"internalType": "string",
							"name": "ms",
							"type": "string"
						},
						{
							"indexed": false,
							"internalType": "uint256",
							"name": "res",
							"type": "uint256"
						}
					],
					"name": "mostrarResultado",
					"type": "event"
				},
				{
					"inputs": [
						{
							"internalType": "uint256",
							"name": "dineroApostar",
							"type": "uint256"
						}
					],
					"name": "Apostar",
					"outputs": [
						{
							"internalType": "string",
							"name": "",
							"type": "string"
						}
					],
					"stateMutability": "payable",
					"type": "function"
				},
				{
					"inputs": [],
					"name": "_owner",
					"outputs": [
						{
							"internalType": "address",
							"name": "",
							"type": "address"
						}
					],
					"stateMutability": "view",
					"type": "function"
				},
				{
					"inputs": [
						{
							"internalType": "string",
							"name": "_modelo",
							"type": "string"
						},
						{
							"internalType": "string",
							"name": "_marca",
							"type": "string"
						},
						{
							"internalType": "string",
							"name": "_nombrePiloto",
							"type": "string"
						}
					],
					"name": "anadirCoche",
					"outputs": [
						{
							"internalType": "uint256",
							"name": "",
							"type": "uint256"
						}
					],
					"stateMutability": "nonpayable",
					"type": "function"
				},
				{
					"inputs": [
						{
							"internalType": "uint256",
							"name": "_coche",
							"type": "uint256"
						},
						{
							"internalType": "string",
							"name": "_newModelo",
							"type": "string"
						},
						{
							"internalType": "string",
							"name": "_newMarca",
							"type": "string"
						}
					],
					"name": "cambiarCoche",
					"outputs": [],
					"stateMutability": "nonpayable",
					"type": "function"
				},
				{
					"inputs": [
						{
							"internalType": "uint256",
							"name": "",
							"type": "uint256"
						}
					],
					"name": "cocheDePropietario",
					"outputs": [
						{
							"internalType": "address",
							"name": "",
							"type": "address"
						}
					],
					"stateMutability": "view",
					"type": "function"
				},
				{
					"inputs": [
						{
							"internalType": "address",
							"name": "_address",
							"type": "address"
						},
						{
							"internalType": "string",
							"name": "_newModelo",
							"type": "string"
						},
						{
							"internalType": "string",
							"name": "_newMarca",
							"type": "string"
						}
					],
					"name": "comprarCoche",
					"outputs": [
						{
							"internalType": "string",
							"name": "",
							"type": "string"
						}
					],
					"stateMutability": "payable",
					"type": "function"
				},
				{
					"inputs": [
						{
							"internalType": "uint256",
							"name": "",
							"type": "uint256"
						}
					],
					"name": "listaCoches",
					"outputs": [
						{
							"internalType": "address",
							"name": "idPiloto",
							"type": "address"
						},
						{
							"internalType": "string",
							"name": "modelo",
							"type": "string"
						},
						{
							"internalType": "string",
							"name": "marca",
							"type": "string"
						},
						{
							"internalType": "string",
							"name": "nombrePiloto",
							"type": "string"
						},
						{
							"internalType": "uint256",
							"name": "carrerasGanadas",
							"type": "uint256"
						},
						{
							"internalType": "uint256",
							"name": "carrerasTotales",
							"type": "uint256"
						},
						{
							"internalType": "uint256",
							"name": "tiempoEspera",
							"type": "uint256"
						},
						{
							"internalType": "uint32",
							"name": "nivel",
							"type": "uint32"
						}
					],
					"stateMutability": "view",
					"type": "function"
				},
				{
					"inputs": [
						{
							"internalType": "address",
							"name": "",
							"type": "address"
						}
					],
					"name": "numeroCochesPersona",
					"outputs": [
						{
							"internalType": "uint256",
							"name": "",
							"type": "uint256"
						}
					],
					"stateMutability": "view",
					"type": "function"
				},
				{
					"inputs": [],
					"name": "owner",
					"outputs": [
						{
							"internalType": "address",
							"name": "",
							"type": "address"
						}
					],
					"stateMutability": "view",
					"type": "function"
				},
				{
					"inputs": [],
					"name": "renounceOwnership",
					"outputs": [],
					"stateMutability": "nonpayable",
					"type": "function"
				},
				{
					"inputs": [
						{
							"internalType": "address",
							"name": "_propietario",
							"type": "address"
						}
					],
					"name": "subirDeNivel",
					"outputs": [
						{
							"internalType": "string",
							"name": "",
							"type": "string"
						}
					],
					"stateMutability": "payable",
					"type": "function"
				},
				{
					"inputs": [
						{
							"internalType": "address",
							"name": "newOwner",
							"type": "address"
						}
					],
					"name": "transferOwnership",
					"outputs": [],
					"stateMutability": "nonpayable",
					"type": "function"
				},
				{
					"inputs": [
						{
							"internalType": "address",
							"name": "_propietario",
							"type": "address"
						}
					],
					"name": "verCochePropietario",
					"outputs": [],
					"stateMutability": "nonpayable",
					"type": "function"
				}
			],
			"devdoc": {
				"kind": "dev",
				"methods": {
					"owner()": {
						"details": "Returns the address of the current owner."
					},
					"renounceOwnership()": {
						"details": "Leaves the contract without owner. It will not be possible to call `onlyOwner` functions anymore. Can only be called by the current owner. NOTE: Renouncing ownership will leave the contract without an owner, thereby removing any functionality that is only available to the owner."
					},
					"transferOwnership(address)": {
						"details": "Transfers ownership of the contract to a new account (`newOwner`). Can only be called by the current owner."
					}
				},
				"version": 1
			},
			"evm": {
				"assembly": "    /* \"contracts/CarreraCoches/principal.sol\":54:7897  contract CarreraCoches is Ownable {\r... */\n  mstore(0x40, 0x80)\n    /* \"contracts/CarreraCoches/principal.sol\":370:371  0 */\n  0x00\n    /* \"contracts/CarreraCoches/principal.sol\":353:371  uint randNonce = 0 */\n  0x01\n  sstore\n    /* \"contracts/CarreraCoches/principal.sol\":494:495  0 */\n  0x00\n    /* \"contracts/CarreraCoches/principal.sol\":478:495  uint contador = 0 */\n  0x02\n  sstore\n    /* \"contracts/CarreraCoches/principal.sol\":518:528  60 seconds */\n  0x3c\n    /* \"contracts/CarreraCoches/principal.sol\":502:528  uint cooldown = 60 seconds */\n  0x03\n  sstore\n    /* \"contracts/CarreraCoches/principal.sol\":553:560  1 ether */\n  0x0de0b6b3a7640000\n    /* \"contracts/CarreraCoches/principal.sol\":535:560  uint subirNivel = 1 ether */\n  0x04\n  sstore\n    /* \"contracts/CarreraCoches/principal.sol\":588:595  2 ether */\n  0x1bc16d674ec80000\n    /* \"contracts/CarreraCoches/principal.sol\":567:595  uint cambiarCocheV = 2 ether */\n  0x05\n  sstore\n    /* \"contracts/CarreraCoches/principal.sol\":54:7897  contract CarreraCoches is Ownable {\r... */\n  callvalue\n  dup1\n  iszero\n  tag_1\n  jumpi\n  0x00\n  dup1\n  revert\ntag_1:\n  pop\n    /* \"contracts/CarreraCoches/ownable.sol\":947:979  _transferOwnership(_msgSender()) */\n  tag_4\n    /* \"contracts/CarreraCoches/ownable.sol\":966:978  _msgSender() */\n  tag_5\n    /* \"contracts/CarreraCoches/ownable.sol\":966:976  _msgSender */\n  shl(0x20, tag_6)\n    /* \"contracts/CarreraCoches/ownable.sol\":966:978  _msgSender() */\n  0x20\n  shr\n  jump\t// in\ntag_5:\n    /* \"contracts/CarreraCoches/ownable.sol\":947:965  _transferOwnership */\n  shl(0x20, tag_7)\n    /* \"contracts/CarreraCoches/ownable.sol\":947:979  _transferOwnership(_msgSender()) */\n  0x20\n  shr\n  jump\t// in\ntag_4:\n    /* \"contracts/CarreraCoches/principal.sol\":54:7897  contract CarreraCoches is Ownable {\r... */\n  jump(tag_8)\n    /* \"contracts/CarreraCoches/utils/Context.sol\":656:754  function _msgSender() internal view virtual returns (address) {\r... */\ntag_6:\n    /* \"contracts/CarreraCoches/utils/Context.sol\":709:716  address */\n  0x00\n    /* \"contracts/CarreraCoches/utils/Context.sol\":736:746  msg.sender */\n  caller\n    /* \"contracts/CarreraCoches/utils/Context.sol\":729:746  return msg.sender */\n  swap1\n  pop\n    /* \"contracts/CarreraCoches/utils/Context.sol\":656:754  function _msgSender() internal view virtual returns (address) {\r... */\n  swap1\n  jump\t// out\n    /* \"contracts/CarreraCoches/ownable.sol\":2338:2529  function _transferOwnership(address newOwner) internal virtual {\r... */\ntag_7:\n    /* \"contracts/CarreraCoches/ownable.sol\":2412:2428  address oldOwner */\n  0x00\n    /* \"contracts/CarreraCoches/ownable.sol\":2431:2437  _owner */\n  dup1\n  0x00\n  swap1\n  sload\n  swap1\n  0x0100\n  exp\n  swap1\n  div\n  0xffffffffffffffffffffffffffffffffffffffff\n  and\n    /* \"contracts/CarreraCoches/ownable.sol\":2412:2437  address oldOwner = _owner */\n  swap1\n  pop\n    /* \"contracts/CarreraCoches/ownable.sol\":2457:2465  newOwner */\n  dup2\n    /* \"contracts/CarreraCoches/ownable.sol\":2448:2454  _owner */\n  0x00\n  dup1\n    /* \"contracts/CarreraCoches/ownable.sol\":2448:2465  _owner = newOwner */\n  0x0100\n  exp\n  dup2\n  sload\n  dup2\n  0xffffffffffffffffffffffffffffffffffffffff\n  mul\n  not\n  and\n  swap1\n  dup4\n  0xffffffffffffffffffffffffffffffffffffffff\n  and\n  mul\n  or\n  swap1\n  sstore\n  pop\n    /* \"contracts/CarreraCoches/ownable.sol\":2512:2520  newOwner */\n  dup2\n    /* \"contracts/CarreraCoches/ownable.sol\":2481:2521  OwnershipTransferred(oldOwner, newOwner) */\n  0xffffffffffffffffffffffffffffffffffffffff\n  and\n    /* \"contracts/CarreraCoches/ownable.sol\":2502:2510  oldOwner */\n  dup2\n    /* \"contracts/CarreraCoches/ownable.sol\":2481:2521  OwnershipTransferred(oldOwner, newOwner) */\n  0xffffffffffffffffffffffffffffffffffffffff\n  and\n  0x8be0079c531659141344cd1fd0a4f28419497f9722a3daafe3b4186f6b6457e0\n  mload(0x40)\n  mload(0x40)\n  dup1\n  swap2\n  sub\n  swap1\n  log3\n    /* \"contracts/CarreraCoches/ownable.sol\":2401:2529  {\r... */\n  pop\n    /* \"contracts/CarreraCoches/ownable.sol\":2338:2529  function _transferOwnership(address newOwner) internal virtual {\r... */\n  pop\n  jump\t// out\n    /* \"contracts/CarreraCoches/principal.sol\":54:7897  contract CarreraCoches is Ownable {\r... */\ntag_8:\n  dataSize(sub_0)\n  dup1\n  dataOffset(sub_0)\n  0x00\n  codecopy\n  0x00\n  return\nstop\n\nsub_0: assembly {\n        /* \"contracts/CarreraCoches/principal.sol\":54:7897  contract CarreraCoches is Ownable {\r... */\n      mstore(0x40, 0x80)\n      jumpi(tag_1, lt(calldatasize, 0x04))\n      shr(0xe0, calldataload(0x00))\n      dup1\n      0x715018a6\n      gt\n      tag_15\n      jumpi\n      dup1\n      0xb2bdfa7b\n      gt\n      tag_16\n      jumpi\n      dup1\n      0xb2bdfa7b\n      eq\n      tag_11\n      jumpi\n      dup1\n      0xd735573d\n      eq\n      tag_12\n      jumpi\n      dup1\n      0xe172fca8\n      eq\n      tag_13\n      jumpi\n      dup1\n      0xf2fde38b\n      eq\n      tag_14\n      jumpi\n      jump(tag_1)\n    tag_16:\n      dup1\n      0x715018a6\n      eq\n      tag_8\n      jumpi\n      dup1\n      0x858b0554\n      eq\n      tag_9\n      jumpi\n      dup1\n      0x8da5cb5b\n      eq\n      tag_10\n      jumpi\n      jump(tag_1)\n    tag_15:\n      dup1\n      0x049a5f65\n      eq\n      tag_2\n      jumpi\n      dup1\n      0x1c6743e4\n      eq\n      tag_3\n      jumpi\n      dup1\n      0x2458c544\n      eq\n      tag_4\n      jumpi\n      dup1\n      0x6a7d1816\n      eq\n      tag_5\n      jumpi\n      dup1\n      0x6b6f0494\n      eq\n      tag_6\n      jumpi\n      dup1\n      0x6ba2cdf4\n      eq\n      tag_7\n      jumpi\n    tag_1:\n      0x00\n      dup1\n      revert\n        /* \"contracts/CarreraCoches/principal.sol\":3873:4335  function comprarCoche(address _address, string memory _newModelo, string memory _newMarca) external payable returns(string memory) {\r... */\n    tag_2:\n      tag_17\n      0x04\n      dup1\n      calldatasize\n      sub\n      dup2\n      add\n      swap1\n      tag_18\n      swap2\n      swap1\n      tag_19\n      jump\t// in\n    tag_18:\n      tag_20\n      jump\t// in\n    tag_17:\n      mload(0x40)\n      tag_21\n      swap2\n      swap1\n      tag_22\n      jump\t// in\n    tag_21:\n      mload(0x40)\n      dup1\n      swap2\n      sub\n      swap1\n      return\n        /* \"contracts/CarreraCoches/principal.sol\":929:981  mapping (address => uint) public numeroCochesPersona */\n    tag_3:\n      callvalue\n      dup1\n      iszero\n      tag_23\n      jumpi\n      0x00\n      dup1\n      revert\n    tag_23:\n      pop\n      tag_24\n      0x04\n      dup1\n      calldatasize\n      sub\n      dup2\n      add\n      swap1\n      tag_25\n      swap2\n      swap1\n      tag_26\n      jump\t// in\n    tag_25:\n      tag_27\n      jump\t// in\n    tag_24:\n      mload(0x40)\n      tag_28\n      swap2\n      swap1\n      tag_29\n      jump\t// in\n    tag_28:\n      mload(0x40)\n      dup1\n      swap2\n      sub\n      swap1\n      return\n        /* \"contracts/CarreraCoches/principal.sol\":1777:2217  function anadirCoche(string memory _modelo, string memory _marca, string memory _nombrePiloto) public restriccion returns (uint) {\r... */\n    tag_4:\n      callvalue\n      dup1\n      iszero\n      tag_30\n      jumpi\n      0x00\n      dup1\n      revert\n    tag_30:\n      pop\n      tag_31\n      0x04\n      dup1\n      calldatasize\n      sub\n      dup2\n      add\n      swap1\n      tag_32\n      swap2\n      swap1\n      tag_33\n      jump\t// in\n    tag_32:\n      tag_34\n      jump\t// in\n    tag_31:\n      mload(0x40)\n      tag_35\n      swap2\n      swap1\n      tag_29\n      jump\t// in\n    tag_35:\n      mload(0x40)\n      dup1\n      swap2\n      sub\n      swap1\n      return\n        /* \"contracts/CarreraCoches/principal.sol\":2586:2945  function subirDeNivel(address _propietario) external payable returns(string memory) {\r... */\n    tag_5:\n      tag_36\n      0x04\n      dup1\n      calldatasize\n      sub\n      dup2\n      add\n      swap1\n      tag_37\n      swap2\n      swap1\n      tag_26\n      jump\t// in\n    tag_37:\n      tag_38\n      jump\t// in\n    tag_36:\n      mload(0x40)\n      tag_39\n      swap2\n      swap1\n      tag_22\n      jump\t// in\n    tag_39:\n      mload(0x40)\n      dup1\n      swap2\n      sub\n      swap1\n      return\n        /* \"contracts/CarreraCoches/principal.sol\":4393:7739  function Apostar(uint dineroApostar) public payable returns(string memory) {\r... */\n    tag_6:\n      tag_40\n      0x04\n      dup1\n      calldatasize\n      sub\n      dup2\n      add\n      swap1\n      tag_41\n      swap2\n      swap1\n      tag_42\n      jump\t// in\n    tag_41:\n      tag_43\n      jump\t// in\n    tag_40:\n      mload(0x40)\n      tag_44\n      swap2\n      swap1\n      tag_22\n      jump\t// in\n    tag_44:\n      mload(0x40)\n      dup1\n      swap2\n      sub\n      swap1\n      return\n        /* \"contracts/CarreraCoches/principal.sol\":3506:3792  function cambiarCoche(uint _coche, string memory _newModelo, string memory _newMarca) external nivelAlcanzado(10, _coche) {\r... */\n    tag_7:\n      callvalue\n      dup1\n      iszero\n      tag_45\n      jumpi\n      0x00\n      dup1\n      revert\n    tag_45:\n      pop\n      tag_46\n      0x04\n      dup1\n      calldatasize\n      sub\n      dup2\n      add\n      swap1\n      tag_47\n      swap2\n      swap1\n      tag_48\n      jump\t// in\n    tag_47:\n      tag_49\n      jump\t// in\n    tag_46:\n      stop\n        /* \"contracts/CarreraCoches/ownable.sol\":1719:1822  function renounceOwnership() public virtual onlyOwner {\r... */\n    tag_8:\n      callvalue\n      dup1\n      iszero\n      tag_50\n      jumpi\n      0x00\n      dup1\n      revert\n    tag_50:\n      pop\n      tag_51\n      tag_52\n      jump\t// in\n    tag_51:\n      stop\n        /* \"contracts/CarreraCoches/principal.sol\":871:922  mapping (uint => address) public cocheDePropietario */\n    tag_9:\n      callvalue\n      dup1\n      iszero\n      tag_53\n      jumpi\n      0x00\n      dup1\n      revert\n    tag_53:\n      pop\n      tag_54\n      0x04\n      dup1\n      calldatasize\n      sub\n      dup2\n      add\n      swap1\n      tag_55\n      swap2\n      swap1\n      tag_42\n      jump\t// in\n    tag_55:\n      tag_56\n      jump\t// in\n    tag_54:\n      mload(0x40)\n      tag_57\n      swap2\n      swap1\n      tag_58\n      jump\t// in\n    tag_57:\n      mload(0x40)\n      dup1\n      swap2\n      sub\n      swap1\n      return\n        /* \"contracts/CarreraCoches/ownable.sol\":1068:1155  function owner() public view virtual returns (address) {\r... */\n    tag_10:\n      callvalue\n      dup1\n      iszero\n      tag_59\n      jumpi\n      0x00\n      dup1\n      revert\n    tag_59:\n      pop\n      tag_60\n      tag_61\n      jump\t// in\n    tag_60:\n      mload(0x40)\n      tag_62\n      swap2\n      swap1\n      tag_58\n      jump\t// in\n    tag_62:\n      mload(0x40)\n      dup1\n      swap2\n      sub\n      swap1\n      return\n        /* \"contracts/CarreraCoches/ownable.sol\":701:722  address public _owner */\n    tag_11:\n      callvalue\n      dup1\n      iszero\n      tag_63\n      jumpi\n      0x00\n      dup1\n      revert\n    tag_63:\n      pop\n      tag_64\n      tag_65\n      jump\t// in\n    tag_64:\n      mload(0x40)\n      tag_66\n      swap2\n      swap1\n      tag_58\n      jump\t// in\n    tag_66:\n      mload(0x40)\n      dup1\n      swap2\n      sub\n      swap1\n      return\n        /* \"contracts/CarreraCoches/principal.sol\":604:630  Coche[] public listaCoches */\n    tag_12:\n      callvalue\n      dup1\n      iszero\n      tag_67\n      jumpi\n      0x00\n      dup1\n      revert\n    tag_67:\n      pop\n      tag_68\n      0x04\n      dup1\n      calldatasize\n      sub\n      dup2\n      add\n      swap1\n      tag_69\n      swap2\n      swap1\n      tag_42\n      jump\t// in\n    tag_69:\n      tag_70\n      jump\t// in\n    tag_68:\n      mload(0x40)\n      tag_71\n      swap9\n      swap8\n      swap7\n      swap6\n      swap5\n      swap4\n      swap3\n      swap2\n      swap1\n      tag_72\n      jump\t// in\n    tag_71:\n      mload(0x40)\n      dup1\n      swap2\n      sub\n      swap1\n      return\n        /* \"contracts/CarreraCoches/principal.sol\":2989:3365  function verCochePropietario(address _propietario) external {\r... */\n    tag_13:\n      callvalue\n      dup1\n      iszero\n      tag_73\n      jumpi\n      0x00\n      dup1\n      revert\n    tag_73:\n      pop\n      tag_74\n      0x04\n      dup1\n      calldatasize\n      sub\n      dup2\n      add\n      swap1\n      tag_75\n      swap2\n      swap1\n      tag_26\n      jump\t// in\n    tag_75:\n      tag_76\n      jump\t// in\n    tag_74:\n      stop\n        /* \"contracts/CarreraCoches/ownable.sol\":1977:2178  function transferOwnership(address newOwner) public virtual onlyOwner {\r... */\n    tag_14:\n      callvalue\n      dup1\n      iszero\n      tag_77\n      jumpi\n      0x00\n      dup1\n      revert\n    tag_77:\n      pop\n      tag_78\n      0x04\n      dup1\n      calldatasize\n      sub\n      dup2\n      add\n      swap1\n      tag_79\n      swap2\n      swap1\n      tag_26\n      jump\t// in\n    tag_79:\n      tag_80\n      jump\t// in\n    tag_78:\n      stop\n        /* \"contracts/CarreraCoches/principal.sol\":3873:4335  function comprarCoche(address _address, string memory _newModelo, string memory _newMarca) external payable returns(string memory) {\r... */\n    tag_20:\n        /* \"contracts/CarreraCoches/principal.sol\":3989:4002  string memory */\n      0x60\n        /* \"contracts/CarreraCoches/principal.sol\":4035:4043  _address */\n      dup4\n        /* \"contracts/CarreraCoches/principal.sol\":4023:4043  msg.sender==_address */\n      0xffffffffffffffffffffffffffffffffffffffff\n      and\n        /* \"contracts/CarreraCoches/principal.sol\":4023:4033  msg.sender */\n      caller\n        /* \"contracts/CarreraCoches/principal.sol\":4023:4043  msg.sender==_address */\n      0xffffffffffffffffffffffffffffffffffffffff\n      and\n      eq\n        /* \"contracts/CarreraCoches/principal.sol\":4015:4044  require(msg.sender==_address) */\n      tag_82\n      jumpi\n      0x00\n      dup1\n      revert\n    tag_82:\n        /* \"contracts/CarreraCoches/principal.sol\":4074:4087  cambiarCocheV */\n      sload(0x05)\n        /* \"contracts/CarreraCoches/principal.sol\":4063:4072  msg.value */\n      callvalue\n        /* \"contracts/CarreraCoches/principal.sol\":4063:4087  msg.value==cambiarCocheV */\n      eq\n        /* \"contracts/CarreraCoches/principal.sol\":4055:4088  require(msg.value==cambiarCocheV) */\n      tag_83\n      jumpi\n      0x00\n      dup1\n      revert\n    tag_83:\n        /* \"contracts/CarreraCoches/principal.sol\":4103:4109  uint i */\n      0x00\n        /* \"contracts/CarreraCoches/principal.sol\":4099:4328  for(uint i = 0; i < listaCoches.length; i++){\r... */\n    tag_84:\n        /* \"contracts/CarreraCoches/principal.sol\":4119:4130  listaCoches */\n      0x06\n        /* \"contracts/CarreraCoches/principal.sol\":4119:4137  listaCoches.length */\n      dup1\n      sload\n      swap1\n      pop\n        /* \"contracts/CarreraCoches/principal.sol\":4115:4116  i */\n      dup2\n        /* \"contracts/CarreraCoches/principal.sol\":4115:4137  i < listaCoches.length */\n      lt\n        /* \"contracts/CarreraCoches/principal.sol\":4099:4328  for(uint i = 0; i < listaCoches.length; i++){\r... */\n      iszero\n      tag_85\n      jumpi\n        /* \"contracts/CarreraCoches/principal.sol\":4186:4196  msg.sender */\n      caller\n        /* \"contracts/CarreraCoches/principal.sol\":4161:4196  listaCoches[i].idPiloto==msg.sender */\n      0xffffffffffffffffffffffffffffffffffffffff\n      and\n        /* \"contracts/CarreraCoches/principal.sol\":4161:4172  listaCoches */\n      0x06\n        /* \"contracts/CarreraCoches/principal.sol\":4173:4174  i */\n      dup3\n        /* \"contracts/CarreraCoches/principal.sol\":4161:4175  listaCoches[i] */\n      dup2\n      sload\n      dup2\n      lt\n      tag_87\n      jumpi\n      tag_88\n      tag_89\n      jump\t// in\n    tag_88:\n    tag_87:\n      swap1\n      0x00\n      mstore\n      keccak256(0x00, 0x20)\n      swap1\n      0x08\n      mul\n      add\n        /* \"contracts/CarreraCoches/principal.sol\":4161:4184  listaCoches[i].idPiloto */\n      0x00\n      add\n      0x00\n      swap1\n      sload\n      swap1\n      0x0100\n      exp\n      swap1\n      div\n      0xffffffffffffffffffffffffffffffffffffffff\n      and\n        /* \"contracts/CarreraCoches/principal.sol\":4161:4196  listaCoches[i].idPiloto==msg.sender */\n      0xffffffffffffffffffffffffffffffffffffffff\n      and\n      eq\n        /* \"contracts/CarreraCoches/principal.sol\":4158:4317  if(listaCoches[i].idPiloto==msg.sender){\r... */\n      iszero\n      tag_91\n      jumpi\n        /* \"contracts/CarreraCoches/principal.sol\":4240:4250  _newModelo */\n      dup4\n        /* \"contracts/CarreraCoches/principal.sol\":4216:4227  listaCoches */\n      0x06\n        /* \"contracts/CarreraCoches/principal.sol\":4228:4229  i */\n      dup3\n        /* \"contracts/CarreraCoches/principal.sol\":4216:4230  listaCoches[i] */\n      dup2\n      sload\n      dup2\n      lt\n      tag_92\n      jumpi\n      tag_93\n      tag_89\n      jump\t// in\n    tag_93:\n    tag_92:\n      swap1\n      0x00\n      mstore\n      keccak256(0x00, 0x20)\n      swap1\n      0x08\n      mul\n      add\n        /* \"contracts/CarreraCoches/principal.sol\":4216:4237  listaCoches[i].modelo */\n      0x01\n      add\n        /* \"contracts/CarreraCoches/principal.sol\":4216:4250  listaCoches[i].modelo = _newModelo */\n      swap1\n      dup1\n      mload\n      swap1\n      0x20\n      add\n      swap1\n      tag_95\n      swap3\n      swap2\n      swap1\n      tag_96\n      jump\t// in\n    tag_95:\n      pop\n        /* \"contracts/CarreraCoches/principal.sol\":4292:4301  _newMarca */\n      dup3\n        /* \"contracts/CarreraCoches/principal.sol\":4269:4280  listaCoches */\n      0x06\n        /* \"contracts/CarreraCoches/principal.sol\":4281:4282  i */\n      dup3\n        /* \"contracts/CarreraCoches/principal.sol\":4269:4283  listaCoches[i] */\n      dup2\n      sload\n      dup2\n      lt\n      tag_97\n      jumpi\n      tag_98\n      tag_89\n      jump\t// in\n    tag_98:\n    tag_97:\n      swap1\n      0x00\n      mstore\n      keccak256(0x00, 0x20)\n      swap1\n      0x08\n      mul\n      add\n        /* \"contracts/CarreraCoches/principal.sol\":4269:4289  listaCoches[i].marca */\n      0x02\n      add\n        /* \"contracts/CarreraCoches/principal.sol\":4269:4301  listaCoches[i].marca = _newMarca */\n      swap1\n      dup1\n      mload\n      swap1\n      0x20\n      add\n      swap1\n      tag_100\n      swap3\n      swap2\n      swap1\n      tag_96\n      jump\t// in\n    tag_100:\n      pop\n        /* \"contracts/CarreraCoches/principal.sol\":4158:4317  if(listaCoches[i].idPiloto==msg.sender){\r... */\n    tag_91:\n        /* \"contracts/CarreraCoches/principal.sol\":4139:4142  i++ */\n      dup1\n      dup1\n      tag_101\n      swap1\n      tag_102\n      jump\t// in\n    tag_101:\n      swap2\n      pop\n      pop\n        /* \"contracts/CarreraCoches/principal.sol\":4099:4328  for(uint i = 0; i < listaCoches.length; i++){\r... */\n      jump(tag_84)\n    tag_85:\n      pop\n        /* \"contracts/CarreraCoches/principal.sol\":3873:4335  function comprarCoche(address _address, string memory _newModelo, string memory _newMarca) external payable returns(string memory) {\r... */\n      swap4\n      swap3\n      pop\n      pop\n      pop\n      jump\t// out\n        /* \"contracts/CarreraCoches/principal.sol\":929:981  mapping (address => uint) public numeroCochesPersona */\n    tag_27:\n      mstore(0x20, 0x08)\n      dup1\n      0x00\n      mstore\n      keccak256(0x00, 0x40)\n      0x00\n      swap2\n      pop\n      swap1\n      pop\n      sload\n      dup2\n      jump\t// out\n        /* \"contracts/CarreraCoches/principal.sol\":1777:2217  function anadirCoche(string memory _modelo, string memory _marca, string memory _nombrePiloto) public restriccion returns (uint) {\r... */\n    tag_34:\n        /* \"contracts/CarreraCoches/principal.sol\":1900:1904  uint */\n      0x00\n        /* \"contracts/CarreraCoches/principal.sol\":1113:1114  1 */\n      0x01\n        /* \"contracts/CarreraCoches/principal.sol\":1079:1098  numeroCochesPersona */\n      0x08\n        /* \"contracts/CarreraCoches/principal.sol\":1079:1110  numeroCochesPersona[msg.sender] */\n      0x00\n        /* \"contracts/CarreraCoches/principal.sol\":1099:1109  msg.sender */\n      caller\n        /* \"contracts/CarreraCoches/principal.sol\":1079:1110  numeroCochesPersona[msg.sender] */\n      0xffffffffffffffffffffffffffffffffffffffff\n      and\n      0xffffffffffffffffffffffffffffffffffffffff\n      and\n      dup2\n      mstore\n      0x20\n      add\n      swap1\n      dup2\n      mstore\n      0x20\n      add\n      0x00\n      keccak256\n      sload\n        /* \"contracts/CarreraCoches/principal.sol\":1079:1114  numeroCochesPersona[msg.sender] < 1 */\n      lt\n        /* \"contracts/CarreraCoches/principal.sol\":1071:1159  require(numeroCochesPersona[msg.sender] < 1, \"Solo se puede tener un coche por persona\") */\n      tag_104\n      jumpi\n      mload(0x40)\n      0x08c379a000000000000000000000000000000000000000000000000000000000\n      dup2\n      mstore\n      0x04\n      add\n      tag_105\n      swap1\n      tag_106\n      jump\t// in\n    tag_105:\n      mload(0x40)\n      dup1\n      swap2\n      sub\n      swap1\n      revert\n    tag_104:\n        /* \"contracts/CarreraCoches/principal.sol\":1917:1928  listaCoches */\n      0x06\n        /* \"contracts/CarreraCoches/principal.sol\":1934:2028  Coche(msg.sender, _modelo, _marca, _nombrePiloto, 0, 0, uint32(block.timestamp + cooldown), 1) */\n      mload(0x40)\n      dup1\n      0x0100\n      add\n      0x40\n      mstore\n      dup1\n        /* \"contracts/CarreraCoches/principal.sol\":1940:1950  msg.sender */\n      caller\n        /* \"contracts/CarreraCoches/principal.sol\":1934:2028  Coche(msg.sender, _modelo, _marca, _nombrePiloto, 0, 0, uint32(block.timestamp + cooldown), 1) */\n      0xffffffffffffffffffffffffffffffffffffffff\n      and\n      dup2\n      mstore\n      0x20\n      add\n        /* \"contracts/CarreraCoches/principal.sol\":1952:1959  _modelo */\n      dup7\n        /* \"contracts/CarreraCoches/principal.sol\":1934:2028  Coche(msg.sender, _modelo, _marca, _nombrePiloto, 0, 0, uint32(block.timestamp + cooldown), 1) */\n      dup2\n      mstore\n      0x20\n      add\n        /* \"contracts/CarreraCoches/principal.sol\":1961:1967  _marca */\n      dup6\n        /* \"contracts/CarreraCoches/principal.sol\":1934:2028  Coche(msg.sender, _modelo, _marca, _nombrePiloto, 0, 0, uint32(block.timestamp + cooldown), 1) */\n      dup2\n      mstore\n      0x20\n      add\n        /* \"contracts/CarreraCoches/principal.sol\":1969:1982  _nombrePiloto */\n      dup5\n        /* \"contracts/CarreraCoches/principal.sol\":1934:2028  Coche(msg.sender, _modelo, _marca, _nombrePiloto, 0, 0, uint32(block.timestamp + cooldown), 1) */\n      dup2\n      mstore\n      0x20\n      add\n        /* \"contracts/CarreraCoches/principal.sol\":1984:1985  0 */\n      0x00\n        /* \"contracts/CarreraCoches/principal.sol\":1934:2028  Coche(msg.sender, _modelo, _marca, _nombrePiloto, 0, 0, uint32(block.timestamp + cooldown), 1) */\n      dup2\n      mstore\n      0x20\n      add\n        /* \"contracts/CarreraCoches/principal.sol\":1987:1988  0 */\n      0x00\n        /* \"contracts/CarreraCoches/principal.sol\":1934:2028  Coche(msg.sender, _modelo, _marca, _nombrePiloto, 0, 0, uint32(block.timestamp + cooldown), 1) */\n      dup2\n      mstore\n      0x20\n      add\n        /* \"contracts/CarreraCoches/principal.sol\":2015:2023  cooldown */\n      sload(0x03)\n        /* \"contracts/CarreraCoches/principal.sol\":1997:2012  block.timestamp */\n      timestamp\n        /* \"contracts/CarreraCoches/principal.sol\":1997:2023  block.timestamp + cooldown */\n      tag_108\n      swap2\n      swap1\n      tag_109\n      jump\t// in\n    tag_108:\n        /* \"contracts/CarreraCoches/principal.sol\":1934:2028  Coche(msg.sender, _modelo, _marca, _nombrePiloto, 0, 0, uint32(block.timestamp + cooldown), 1) */\n      0xffffffff\n      and\n      dup2\n      mstore\n      0x20\n      add\n        /* \"contracts/CarreraCoches/principal.sol\":2026:2027  1 */\n      0x01\n        /* \"contracts/CarreraCoches/principal.sol\":1934:2028  Coche(msg.sender, _modelo, _marca, _nombrePiloto, 0, 0, uint32(block.timestamp + cooldown), 1) */\n      0xffffffff\n      and\n      dup2\n      mstore\n      pop\n        /* \"contracts/CarreraCoches/principal.sol\":1917:2029  listaCoches.push(Coche(msg.sender, _modelo, _marca, _nombrePiloto, 0, 0, uint32(block.timestamp + cooldown), 1)) */\n      swap1\n      dup1\n      0x01\n      dup2\n      sload\n      add\n      dup1\n      dup3\n      sstore\n      dup1\n      swap2\n      pop\n      pop\n      0x01\n      swap1\n      sub\n      swap1\n      0x00\n      mstore\n      keccak256(0x00, 0x20)\n      swap1\n      0x08\n      mul\n      add\n      0x00\n      swap1\n      swap2\n      swap1\n      swap2\n      swap1\n      swap2\n      pop\n      0x00\n      dup3\n      add\n      mload\n      dup2\n      0x00\n      add\n      exp(0x0100, 0x00)\n      dup2\n      sload\n      dup2\n      0xffffffffffffffffffffffffffffffffffffffff\n      mul\n      not\n      and\n      swap1\n      dup4\n      0xffffffffffffffffffffffffffffffffffffffff\n      and\n      mul\n      or\n      swap1\n      sstore\n      pop\n      0x20\n      dup3\n      add\n      mload\n      dup2\n      0x01\n      add\n      swap1\n      dup1\n      mload\n      swap1\n      0x20\n      add\n      swap1\n      tag_111\n      swap3\n      swap2\n      swap1\n      tag_96\n      jump\t// in\n    tag_111:\n      pop\n      0x40\n      dup3\n      add\n      mload\n      dup2\n      0x02\n      add\n      swap1\n      dup1\n      mload\n      swap1\n      0x20\n      add\n      swap1\n      tag_112\n      swap3\n      swap2\n      swap1\n      tag_96\n      jump\t// in\n    tag_112:\n      pop\n      0x60\n      dup3\n      add\n      mload\n      dup2\n      0x03\n      add\n      swap1\n      dup1\n      mload\n      swap1\n      0x20\n      add\n      swap1\n      tag_113\n      swap3\n      swap2\n      swap1\n      tag_96\n      jump\t// in\n    tag_113:\n      pop\n      0x80\n      dup3\n      add\n      mload\n      dup2\n      0x04\n      add\n      sstore\n      0xa0\n      dup3\n      add\n      mload\n      dup2\n      0x05\n      add\n      sstore\n      0xc0\n      dup3\n      add\n      mload\n      dup2\n      0x06\n      add\n      sstore\n      0xe0\n      dup3\n      add\n      mload\n      dup2\n      0x07\n      add\n      exp(0x0100, 0x00)\n      dup2\n      sload\n      dup2\n      0xffffffff\n      mul\n      not\n      and\n      swap1\n      dup4\n      0xffffffff\n      and\n      mul\n      or\n      swap1\n      sstore\n      pop\n      pop\n      pop\n        /* \"contracts/CarreraCoches/principal.sol\":2040:2047  uint id */\n      0x00\n        /* \"contracts/CarreraCoches/principal.sol\":2050:2061  listaCoches */\n      0x06\n        /* \"contracts/CarreraCoches/principal.sol\":2050:2068  listaCoches.length */\n      dup1\n      sload\n      swap1\n      pop\n        /* \"contracts/CarreraCoches/principal.sol\":2040:2068  uint id = listaCoches.length */\n      swap1\n      pop\n        /* \"contracts/CarreraCoches/principal.sol\":2104:2114  msg.sender */\n      caller\n        /* \"contracts/CarreraCoches/principal.sol\":2079:2097  cocheDePropietario */\n      0x07\n        /* \"contracts/CarreraCoches/principal.sol\":2079:2101  cocheDePropietario[id] */\n      0x00\n        /* \"contracts/CarreraCoches/principal.sol\":2098:2100  id */\n      dup4\n        /* \"contracts/CarreraCoches/principal.sol\":2079:2101  cocheDePropietario[id] */\n      dup2\n      mstore\n      0x20\n      add\n      swap1\n      dup2\n      mstore\n      0x20\n      add\n      0x00\n      keccak256\n      0x00\n        /* \"contracts/CarreraCoches/principal.sol\":2079:2114  cocheDePropietario[id] = msg.sender */\n      0x0100\n      exp\n      dup2\n      sload\n      dup2\n      0xffffffffffffffffffffffffffffffffffffffff\n      mul\n      not\n      and\n      swap1\n      dup4\n      0xffffffffffffffffffffffffffffffffffffffff\n      and\n      mul\n      or\n      swap1\n      sstore\n      pop\n        /* \"contracts/CarreraCoches/principal.sol\":2125:2144  numeroCochesPersona */\n      0x08\n        /* \"contracts/CarreraCoches/principal.sol\":2125:2156  numeroCochesPersona[msg.sender] */\n      0x00\n        /* \"contracts/CarreraCoches/principal.sol\":2145:2155  msg.sender */\n      caller\n        /* \"contracts/CarreraCoches/principal.sol\":2125:2156  numeroCochesPersona[msg.sender] */\n      0xffffffffffffffffffffffffffffffffffffffff\n      and\n      0xffffffffffffffffffffffffffffffffffffffff\n      and\n      dup2\n      mstore\n      0x20\n      add\n      swap1\n      dup2\n      mstore\n      0x20\n      add\n      0x00\n      keccak256\n      0x00\n        /* \"contracts/CarreraCoches/principal.sol\":2125:2158  numeroCochesPersona[msg.sender]++ */\n      dup2\n      sload\n      dup1\n      swap3\n      swap2\n      swap1\n      tag_114\n      swap1\n      tag_102\n      jump\t// in\n    tag_114:\n      swap2\n      swap1\n      pop\n      sstore\n      pop\n        /* \"contracts/CarreraCoches/principal.sol\":2169:2177  contador */\n      0x02\n      0x00\n        /* \"contracts/CarreraCoches/principal.sol\":2169:2179  contador++ */\n      dup2\n      sload\n      dup1\n      swap3\n      swap2\n      swap1\n      tag_115\n      swap1\n      tag_102\n      jump\t// in\n    tag_115:\n      swap2\n      swap1\n      pop\n      sstore\n      pop\n        /* \"contracts/CarreraCoches/principal.sol\":2208:2209  1 */\n      0x01\n        /* \"contracts/CarreraCoches/principal.sol\":2197:2205  contador */\n      sload(0x02)\n        /* \"contracts/CarreraCoches/principal.sol\":2197:2209  contador - 1 */\n      tag_116\n      swap2\n      swap1\n      tag_117\n      jump\t// in\n    tag_116:\n        /* \"contracts/CarreraCoches/principal.sol\":2190:2209  return contador - 1 */\n      swap2\n      pop\n      pop\n        /* \"contracts/CarreraCoches/principal.sol\":1777:2217  function anadirCoche(string memory _modelo, string memory _marca, string memory _nombrePiloto) public restriccion returns (uint) {\r... */\n      swap4\n      swap3\n      pop\n      pop\n      pop\n      jump\t// out\n        /* \"contracts/CarreraCoches/principal.sol\":2586:2945  function subirDeNivel(address _propietario) external payable returns(string memory) {\r... */\n    tag_38:\n        /* \"contracts/CarreraCoches/principal.sol\":2655:2668  string memory */\n      0x60\n        /* \"contracts/CarreraCoches/principal.sol\":2700:2710  subirNivel */\n      sload(0x04)\n        /* \"contracts/CarreraCoches/principal.sol\":2689:2698  msg.value */\n      callvalue\n        /* \"contracts/CarreraCoches/principal.sol\":2689:2710  msg.value==subirNivel */\n      eq\n        /* \"contracts/CarreraCoches/principal.sol\":2681:2711  require(msg.value==subirNivel) */\n      tag_119\n      jumpi\n      0x00\n      dup1\n      revert\n    tag_119:\n        /* \"contracts/CarreraCoches/principal.sol\":2726:2732  uint i */\n      0x00\n        /* \"contracts/CarreraCoches/principal.sol\":2722:2938  for(uint i = 0; i < listaCoches.length; i++){\r... */\n    tag_120:\n        /* \"contracts/CarreraCoches/principal.sol\":2742:2753  listaCoches */\n      0x06\n        /* \"contracts/CarreraCoches/principal.sol\":2742:2760  listaCoches.length */\n      dup1\n      sload\n      swap1\n      pop\n        /* \"contracts/CarreraCoches/principal.sol\":2738:2739  i */\n      dup2\n        /* \"contracts/CarreraCoches/principal.sol\":2738:2760  i < listaCoches.length */\n      lt\n        /* \"contracts/CarreraCoches/principal.sol\":2722:2938  for(uint i = 0; i < listaCoches.length; i++){\r... */\n      iszero\n      tag_121\n      jumpi\n        /* \"contracts/CarreraCoches/principal.sol\":2811:2823  _propietario */\n      dup3\n        /* \"contracts/CarreraCoches/principal.sol\":2784:2823  listaCoches[i].idPiloto == _propietario */\n      0xffffffffffffffffffffffffffffffffffffffff\n      and\n        /* \"contracts/CarreraCoches/principal.sol\":2784:2795  listaCoches */\n      0x06\n        /* \"contracts/CarreraCoches/principal.sol\":2796:2797  i */\n      dup3\n        /* \"contracts/CarreraCoches/principal.sol\":2784:2798  listaCoches[i] */\n      dup2\n      sload\n      dup2\n      lt\n      tag_123\n      jumpi\n      tag_124\n      tag_89\n      jump\t// in\n    tag_124:\n    tag_123:\n      swap1\n      0x00\n      mstore\n      keccak256(0x00, 0x20)\n      swap1\n      0x08\n      mul\n      add\n        /* \"contracts/CarreraCoches/principal.sol\":2784:2807  listaCoches[i].idPiloto */\n      0x00\n      add\n      0x00\n      swap1\n      sload\n      swap1\n      0x0100\n      exp\n      swap1\n      div\n      0xffffffffffffffffffffffffffffffffffffffff\n      and\n        /* \"contracts/CarreraCoches/principal.sol\":2784:2823  listaCoches[i].idPiloto == _propietario */\n      0xffffffffffffffffffffffffffffffffffffffff\n      and\n      eq\n        /* \"contracts/CarreraCoches/principal.sol\":2781:2927  if(listaCoches[i].idPiloto == _propietario){\r... */\n      iszero\n      tag_126\n      jumpi\n        /* \"contracts/CarreraCoches/principal.sol\":2843:2854  listaCoches */\n      0x06\n        /* \"contracts/CarreraCoches/principal.sol\":2855:2856  i */\n      dup2\n        /* \"contracts/CarreraCoches/principal.sol\":2843:2857  listaCoches[i] */\n      dup2\n      sload\n      dup2\n      lt\n      tag_127\n      jumpi\n      tag_128\n      tag_89\n      jump\t// in\n    tag_128:\n    tag_127:\n      swap1\n      0x00\n      mstore\n      keccak256(0x00, 0x20)\n      swap1\n      0x08\n      mul\n      add\n        /* \"contracts/CarreraCoches/principal.sol\":2843:2863  listaCoches[i].nivel */\n      0x07\n      add\n      0x00\n        /* \"contracts/CarreraCoches/principal.sol\":2843:2865  listaCoches[i].nivel++ */\n      dup2\n      dup2\n      swap1\n      sload\n      swap1\n      0x0100\n      exp\n      swap1\n      div\n      0xffffffff\n      and\n      dup1\n      swap3\n      swap2\n      swap1\n      tag_130\n      swap1\n      tag_131\n      jump\t// in\n    tag_130:\n      swap2\n      swap1\n      0x0100\n      exp\n      dup2\n      sload\n      dup2\n      0xffffffff\n      mul\n      not\n      and\n      swap1\n      dup4\n      0xffffffff\n      and\n      mul\n      or\n      swap1\n      sstore\n      pop\n      pop\n        /* \"contracts/CarreraCoches/principal.sol\":2884:2911  return \"Ha subido de nivel\" */\n      mload(0x40)\n      dup1\n      0x40\n      add\n      0x40\n      mstore\n      dup1\n      0x12\n      dup2\n      mstore\n      0x20\n      add\n      0x48612073756269646f206465206e6976656c0000000000000000000000000000\n      dup2\n      mstore\n      pop\n      swap2\n      pop\n      pop\n      jump(tag_118)\n        /* \"contracts/CarreraCoches/principal.sol\":2781:2927  if(listaCoches[i].idPiloto == _propietario){\r... */\n    tag_126:\n        /* \"contracts/CarreraCoches/principal.sol\":2762:2765  i++ */\n      dup1\n      dup1\n      tag_132\n      swap1\n      tag_102\n      jump\t// in\n    tag_132:\n      swap2\n      pop\n      pop\n        /* \"contracts/CarreraCoches/principal.sol\":2722:2938  for(uint i = 0; i < listaCoches.length; i++){\r... */\n      jump(tag_120)\n    tag_121:\n      pop\n        /* \"contracts/CarreraCoches/principal.sol\":2586:2945  function subirDeNivel(address _propietario) external payable returns(string memory) {\r... */\n    tag_118:\n      swap2\n      swap1\n      pop\n      jump\t// out\n        /* \"contracts/CarreraCoches/principal.sol\":4393:7739  function Apostar(uint dineroApostar) public payable returns(string memory) {\r... */\n    tag_43:\n        /* \"contracts/CarreraCoches/principal.sol\":4453:4466  string memory */\n      0x60\n        /* \"contracts/CarreraCoches/principal.sol\":4512:4513  1 */\n      0x01\n        /* \"contracts/CarreraCoches/principal.sol\":4490:4501  listaCoches */\n      0x06\n        /* \"contracts/CarreraCoches/principal.sol\":4490:4508  listaCoches.length */\n      dup1\n      sload\n      swap1\n      pop\n        /* \"contracts/CarreraCoches/principal.sol\":4490:4513  listaCoches.length <= 1 */\n      gt\n        /* \"contracts/CarreraCoches/principal.sol\":4487:7733  if(listaCoches.length <= 1){\r... */\n      tag_134\n      jumpi\n        /* \"contracts/CarreraCoches/principal.sol\":4533:4612  confirmacionDepositoLleno(\"No hay coches suficientes para iniciar una carrera\") */\n      0x6158fc8f21c8cc73ddf920956cc75d0e8a48b4fc85817a0ba89eb3b6d2a75441\n      mload(0x40)\n      tag_135\n      swap1\n      tag_136\n      jump\t// in\n    tag_135:\n      mload(0x40)\n      dup1\n      swap2\n      sub\n      swap1\n      log1\n        /* \"contracts/CarreraCoches/principal.sol\":4487:7733  if(listaCoches.length <= 1){\r... */\n      jump(tag_137)\n    tag_134:\n        /* \"contracts/CarreraCoches/principal.sol\":4663:4676  dineroApostar */\n      dup2\n        /* \"contracts/CarreraCoches/principal.sol\":4650:4659  msg.value */\n      callvalue\n        /* \"contracts/CarreraCoches/principal.sol\":4650:4676  msg.value == dineroApostar */\n      eq\n        /* \"contracts/CarreraCoches/principal.sol\":4642:4677  require(msg.value == dineroApostar) */\n      tag_138\n      jumpi\n      0x00\n      dup1\n      revert\n    tag_138:\n        /* \"contracts/CarreraCoches/principal.sol\":4692:4701  randNonce */\n      0x01\n      0x00\n        /* \"contracts/CarreraCoches/principal.sol\":4692:4703  randNonce++ */\n      dup2\n      sload\n      dup1\n      swap3\n      swap2\n      swap1\n      tag_139\n      swap1\n      tag_102\n      jump\t// in\n    tag_139:\n      swap2\n      swap1\n      pop\n      sstore\n      pop\n        /* \"contracts/CarreraCoches/principal.sol\":4758:4771  uint256 rival */\n      0x00\n        /* \"contracts/CarreraCoches/principal.sol\":4861:4872  listaCoches */\n      0x06\n        /* \"contracts/CarreraCoches/principal.sol\":4861:4879  listaCoches.length */\n      dup1\n      sload\n      swap1\n      pop\n        /* \"contracts/CarreraCoches/principal.sol\":4809:4824  block.timestamp */\n      timestamp\n        /* \"contracts/CarreraCoches/principal.sol\":4826:4837  listaCoches */\n      0x06\n        /* \"contracts/CarreraCoches/principal.sol\":4826:4844  listaCoches.length */\n      dup1\n      sload\n      swap1\n      pop\n        /* \"contracts/CarreraCoches/principal.sol\":4846:4855  randNonce */\n      sload(0x01)\n        /* \"contracts/CarreraCoches/principal.sol\":4792:4856  abi.encodePacked(block.timestamp, listaCoches.length, randNonce) */\n      add(0x20, mload(0x40))\n      tag_140\n      swap4\n      swap3\n      swap2\n      swap1\n      tag_141\n      jump\t// in\n    tag_140:\n      mload(0x40)\n      0x20\n      dup2\n      dup4\n      sub\n      sub\n      dup2\n      mstore\n      swap1\n      0x40\n      mstore\n        /* \"contracts/CarreraCoches/principal.sol\":4782:4857  keccak256(abi.encodePacked(block.timestamp, listaCoches.length, randNonce)) */\n      dup1\n      mload\n      swap1\n      0x20\n      add\n      keccak256\n        /* \"contracts/CarreraCoches/principal.sol\":4774:4858  uint256(keccak256(abi.encodePacked(block.timestamp, listaCoches.length, randNonce))) */\n      0x00\n      shr\n        /* \"contracts/CarreraCoches/principal.sol\":4774:4879  uint256(keccak256(abi.encodePacked(block.timestamp, listaCoches.length, randNonce))) % listaCoches.length */\n      tag_142\n      swap2\n      swap1\n      tag_143\n      jump\t// in\n    tag_142:\n        /* \"contracts/CarreraCoches/principal.sol\":4758:4879  uint256 rival = uint256(keccak256(abi.encodePacked(block.timestamp, listaCoches.length, randNonce))) % listaCoches.length */\n      swap1\n      pop\n        /* \"contracts/CarreraCoches/principal.sol\":4894:4914  address addressRival */\n      0x00\n        /* \"contracts/CarreraCoches/principal.sol\":4917:4935  cocheDePropietario */\n      0x07\n        /* \"contracts/CarreraCoches/principal.sol\":4917:4942  cocheDePropietario[rival] */\n      0x00\n        /* \"contracts/CarreraCoches/principal.sol\":4936:4941  rival */\n      dup4\n        /* \"contracts/CarreraCoches/principal.sol\":4917:4942  cocheDePropietario[rival] */\n      dup2\n      mstore\n      0x20\n      add\n      swap1\n      dup2\n      mstore\n      0x20\n      add\n      0x00\n      keccak256\n      0x00\n      swap1\n      sload\n      swap1\n      0x0100\n      exp\n      swap1\n      div\n      0xffffffffffffffffffffffffffffffffffffffff\n      and\n        /* \"contracts/CarreraCoches/principal.sol\":4894:4942  address addressRival = cocheDePropietario[rival] */\n      swap1\n      pop\n        /* \"contracts/CarreraCoches/principal.sol\":4993:5002  randNonce */\n      0x01\n      0x00\n        /* \"contracts/CarreraCoches/principal.sol\":4993:5004  randNonce++ */\n      dup2\n      sload\n      dup1\n      swap3\n      swap2\n      swap1\n      tag_144\n      swap1\n      tag_102\n      jump\t// in\n    tag_144:\n      swap2\n      swap1\n      pop\n      sstore\n      pop\n        /* \"contracts/CarreraCoches/principal.sol\":5019:5030  uint numero */\n      0x00\n        /* \"contracts/CarreraCoches/principal.sol\":5033:5036  100 */\n      0x64\n        /* \"contracts/CarreraCoches/principal.sol\":5019:5036  uint numero = 100 */\n      swap1\n      pop\n        /* \"contracts/CarreraCoches/principal.sol\":5051:5066  uint256 ganador */\n      0x00\n        /* \"contracts/CarreraCoches/principal.sol\":5144:5150  numero */\n      dup2\n        /* \"contracts/CarreraCoches/principal.sol\":5104:5119  block.timestamp */\n      timestamp\n        /* \"contracts/CarreraCoches/principal.sol\":5121:5127  numero */\n      dup4\n        /* \"contracts/CarreraCoches/principal.sol\":5129:5138  randNonce */\n      sload(0x01)\n        /* \"contracts/CarreraCoches/principal.sol\":5087:5139  abi.encodePacked(block.timestamp, numero, randNonce) */\n      add(0x20, mload(0x40))\n      tag_145\n      swap4\n      swap3\n      swap2\n      swap1\n      tag_141\n      jump\t// in\n    tag_145:\n      mload(0x40)\n      0x20\n      dup2\n      dup4\n      sub\n      sub\n      dup2\n      mstore\n      swap1\n      0x40\n      mstore\n        /* \"contracts/CarreraCoches/principal.sol\":5077:5140  keccak256(abi.encodePacked(block.timestamp, numero, randNonce)) */\n      dup1\n      mload\n      swap1\n      0x20\n      add\n      keccak256\n        /* \"contracts/CarreraCoches/principal.sol\":5069:5141  uint256(keccak256(abi.encodePacked(block.timestamp, numero, randNonce))) */\n      0x00\n      shr\n        /* \"contracts/CarreraCoches/principal.sol\":5069:5150  uint256(keccak256(abi.encodePacked(block.timestamp, numero, randNonce))) % numero */\n      tag_146\n      swap2\n      swap1\n      tag_143\n      jump\t// in\n    tag_146:\n        /* \"contracts/CarreraCoches/principal.sol\":5051:5150  uint256 ganador = uint256(keccak256(abi.encodePacked(block.timestamp, numero, randNonce))) % numero */\n      swap1\n      pop\n        /* \"contracts/CarreraCoches/principal.sol\":5171:5177  uint i */\n      0x00\n        /* \"contracts/CarreraCoches/principal.sol\":5167:7722  for(uint i = 0; i < listaCoches.length; i++){\r... */\n    tag_147:\n        /* \"contracts/CarreraCoches/principal.sol\":5187:5198  listaCoches */\n      0x06\n        /* \"contracts/CarreraCoches/principal.sol\":5187:5205  listaCoches.length */\n      dup1\n      sload\n      swap1\n      pop\n        /* \"contracts/CarreraCoches/principal.sol\":5183:5184  i */\n      dup2\n        /* \"contracts/CarreraCoches/principal.sol\":5183:5205  i < listaCoches.length */\n      lt\n        /* \"contracts/CarreraCoches/principal.sol\":5167:7722  for(uint i = 0; i < listaCoches.length; i++){\r... */\n      iszero\n      tag_148\n      jumpi\n        /* \"contracts/CarreraCoches/principal.sol\":5284:5295  listaCoches */\n      0x06\n        /* \"contracts/CarreraCoches/principal.sol\":5296:5297  i */\n      dup2\n        /* \"contracts/CarreraCoches/principal.sol\":5284:5298  listaCoches[i] */\n      dup2\n      sload\n      dup2\n      lt\n      tag_150\n      jumpi\n      tag_151\n      tag_89\n      jump\t// in\n    tag_151:\n    tag_150:\n      swap1\n      0x00\n      mstore\n      keccak256(0x00, 0x20)\n      swap1\n      0x08\n      mul\n      add\n        /* \"contracts/CarreraCoches/principal.sol\":5284:5307  listaCoches[i].idPiloto */\n      0x00\n      add\n      0x00\n      swap1\n      sload\n      swap1\n      0x0100\n      exp\n      swap1\n      div\n      0xffffffffffffffffffffffffffffffffffffffff\n      and\n        /* \"contracts/CarreraCoches/principal.sol\":5270:5307  msg.sender == listaCoches[i].idPiloto */\n      0xffffffffffffffffffffffffffffffffffffffff\n      and\n        /* \"contracts/CarreraCoches/principal.sol\":5270:5280  msg.sender */\n      caller\n        /* \"contracts/CarreraCoches/principal.sol\":5270:5307  msg.sender == listaCoches[i].idPiloto */\n      0xffffffffffffffffffffffffffffffffffffffff\n      and\n      eq\n        /* \"contracts/CarreraCoches/principal.sol\":5266:7689  if (msg.sender == listaCoches[i].idPiloto) {\r... */\n      iszero\n      tag_153\n      jumpi\n        /* \"contracts/CarreraCoches/principal.sol\":5340:5370  _depositoLleno(listaCoches[i]) */\n      tag_154\n        /* \"contracts/CarreraCoches/principal.sol\":5355:5366  listaCoches */\n      0x06\n        /* \"contracts/CarreraCoches/principal.sol\":5367:5368  i */\n      dup3\n        /* \"contracts/CarreraCoches/principal.sol\":5355:5369  listaCoches[i] */\n      dup2\n      sload\n      dup2\n      lt\n      tag_155\n      jumpi\n      tag_156\n      tag_89\n      jump\t// in\n    tag_156:\n    tag_155:\n      swap1\n      0x00\n      mstore\n      keccak256(0x00, 0x20)\n      swap1\n      0x08\n      mul\n      add\n        /* \"contracts/CarreraCoches/principal.sol\":5340:5354  _depositoLleno */\n      tag_158\n        /* \"contracts/CarreraCoches/principal.sol\":5340:5370  _depositoLleno(listaCoches[i]) */\n      jump\t// in\n    tag_154:\n        /* \"contracts/CarreraCoches/principal.sol\":5332:5371  require(_depositoLleno(listaCoches[i])) */\n      tag_159\n      jumpi\n      0x00\n      dup1\n      revert\n    tag_159:\n        /* \"contracts/CarreraCoches/principal.sol\":5394:5405  listaCoches */\n      0x06\n        /* \"contracts/CarreraCoches/principal.sol\":5406:5407  i */\n      dup2\n        /* \"contracts/CarreraCoches/principal.sol\":5394:5408  listaCoches[i] */\n      dup2\n      sload\n      dup2\n      lt\n      tag_160\n      jumpi\n      tag_161\n      tag_89\n      jump\t// in\n    tag_161:\n    tag_160:\n      swap1\n      0x00\n      mstore\n      keccak256(0x00, 0x20)\n      swap1\n      0x08\n      mul\n      add\n        /* \"contracts/CarreraCoches/principal.sol\":5394:5424  listaCoches[i].carrerasTotales */\n      0x05\n      add\n      0x00\n        /* \"contracts/CarreraCoches/principal.sol\":5394:5426  listaCoches[i].carrerasTotales++ */\n      dup2\n      sload\n      dup1\n      swap3\n      swap2\n      swap1\n      tag_163\n      swap1\n      tag_102\n      jump\t// in\n    tag_163:\n      swap2\n      swap1\n      pop\n      sstore\n      pop\n        /* \"contracts/CarreraCoches/principal.sol\":5449:5460  listaCoches */\n      0x06\n        /* \"contracts/CarreraCoches/principal.sol\":5461:5466  rival */\n      dup6\n        /* \"contracts/CarreraCoches/principal.sol\":5449:5467  listaCoches[rival] */\n      dup2\n      sload\n      dup2\n      lt\n      tag_164\n      jumpi\n      tag_165\n      tag_89\n      jump\t// in\n    tag_165:\n    tag_164:\n      swap1\n      0x00\n      mstore\n      keccak256(0x00, 0x20)\n      swap1\n      0x08\n      mul\n      add\n        /* \"contracts/CarreraCoches/principal.sol\":5449:5483  listaCoches[rival].carrerasTotales */\n      0x05\n      add\n      0x00\n        /* \"contracts/CarreraCoches/principal.sol\":5449:5485  listaCoches[rival].carrerasTotales++ */\n      dup2\n      sload\n      dup1\n      swap3\n      swap2\n      swap1\n      tag_167\n      swap1\n      tag_102\n      jump\t// in\n    tag_167:\n      swap2\n      swap1\n      pop\n      sstore\n      pop\n        /* \"contracts/CarreraCoches/principal.sol\":5508:5535  _repostando(listaCoches[i]) */\n      tag_168\n        /* \"contracts/CarreraCoches/principal.sol\":5520:5531  listaCoches */\n      0x06\n        /* \"contracts/CarreraCoches/principal.sol\":5532:5533  i */\n      dup3\n        /* \"contracts/CarreraCoches/principal.sol\":5520:5534  listaCoches[i] */\n      dup2\n      sload\n      dup2\n      lt\n      tag_169\n      jumpi\n      tag_170\n      tag_89\n      jump\t// in\n    tag_170:\n    tag_169:\n      swap1\n      0x00\n      mstore\n      keccak256(0x00, 0x20)\n      swap1\n      0x08\n      mul\n      add\n        /* \"contracts/CarreraCoches/principal.sol\":5508:5519  _repostando */\n      tag_172\n        /* \"contracts/CarreraCoches/principal.sol\":5508:5535  _repostando(listaCoches[i]) */\n      jump\t// in\n    tag_168:\n        /* \"contracts/CarreraCoches/principal.sol\":5588:5599  listaCoches */\n      0x06\n        /* \"contracts/CarreraCoches/principal.sol\":5600:5601  i */\n      dup2\n        /* \"contracts/CarreraCoches/principal.sol\":5588:5602  listaCoches[i] */\n      dup2\n      sload\n      dup2\n      lt\n      tag_173\n      jumpi\n      tag_174\n      tag_89\n      jump\t// in\n    tag_174:\n    tag_173:\n      swap1\n      0x00\n      mstore\n      keccak256(0x00, 0x20)\n      swap1\n      0x08\n      mul\n      add\n        /* \"contracts/CarreraCoches/principal.sol\":5588:5608  listaCoches[i].nivel */\n      0x07\n      add\n      0x00\n      swap1\n      sload\n      swap1\n      0x0100\n      exp\n      swap1\n      div\n      0xffffffff\n      and\n        /* \"contracts/CarreraCoches/principal.sol\":5561:5608  listaCoches[rival].nivel < listaCoches[i].nivel */\n      0xffffffff\n      and\n        /* \"contracts/CarreraCoches/principal.sol\":5561:5572  listaCoches */\n      0x06\n        /* \"contracts/CarreraCoches/principal.sol\":5573:5578  rival */\n      dup7\n        /* \"contracts/CarreraCoches/principal.sol\":5561:5579  listaCoches[rival] */\n      dup2\n      sload\n      dup2\n      lt\n      tag_176\n      jumpi\n      tag_177\n      tag_89\n      jump\t// in\n    tag_177:\n    tag_176:\n      swap1\n      0x00\n      mstore\n      keccak256(0x00, 0x20)\n      swap1\n      0x08\n      mul\n      add\n        /* \"contracts/CarreraCoches/principal.sol\":5561:5585  listaCoches[rival].nivel */\n      0x07\n      add\n      0x00\n      swap1\n      sload\n      swap1\n      0x0100\n      exp\n      swap1\n      div\n      0xffffffff\n      and\n        /* \"contracts/CarreraCoches/principal.sol\":5561:5608  listaCoches[rival].nivel < listaCoches[i].nivel */\n      0xffffffff\n      and\n      lt\n        /* \"contracts/CarreraCoches/principal.sol\":5558:7666  if(listaCoches[rival].nivel < listaCoches[i].nivel){\r... */\n      iszero\n      tag_179\n      jumpi\n        /* \"contracts/CarreraCoches/principal.sol\":5648:5650  60 */\n      0x3c\n        /* \"contracts/CarreraCoches/principal.sol\":5639:5646  ganador */\n      dup3\n        /* \"contracts/CarreraCoches/principal.sol\":5639:5650  ganador<=60 */\n      gt\n        /* \"contracts/CarreraCoches/principal.sol\":5636:6209  if(ganador<=60){\r... */\n      tag_180\n      jumpi\n        /* \"contracts/CarreraCoches/principal.sol\":5682:5691  balance() */\n      tag_181\n        /* \"contracts/CarreraCoches/principal.sol\":5682:5689  balance */\n      tag_182\n        /* \"contracts/CarreraCoches/principal.sol\":5682:5691  balance() */\n      jump\t// in\n    tag_181:\n        /* \"contracts/CarreraCoches/principal.sol\":5722:5733  listaCoches */\n      0x06\n        /* \"contracts/CarreraCoches/principal.sol\":5734:5735  i */\n      dup2\n        /* \"contracts/CarreraCoches/principal.sol\":5722:5736  listaCoches[i] */\n      dup2\n      sload\n      dup2\n      lt\n      tag_183\n      jumpi\n      tag_184\n      tag_89\n      jump\t// in\n    tag_184:\n    tag_183:\n      swap1\n      0x00\n      mstore\n      keccak256(0x00, 0x20)\n      swap1\n      0x08\n      mul\n      add\n        /* \"contracts/CarreraCoches/principal.sol\":5722:5752  listaCoches[i].carrerasGanadas */\n      0x04\n      add\n      0x00\n        /* \"contracts/CarreraCoches/principal.sol\":5722:5754  listaCoches[i].carrerasGanadas++ */\n      dup2\n      sload\n      dup1\n      swap3\n      swap2\n      swap1\n      tag_186\n      swap1\n      tag_102\n      jump\t// in\n    tag_186:\n      swap2\n      swap1\n      pop\n      sstore\n      pop\n        /* \"contracts/CarreraCoches/principal.sol\":5785:5796  listaCoches */\n      0x06\n        /* \"contracts/CarreraCoches/principal.sol\":5797:5798  i */\n      dup2\n        /* \"contracts/CarreraCoches/principal.sol\":5785:5799  listaCoches[i] */\n      dup2\n      sload\n      dup2\n      lt\n      tag_187\n      jumpi\n      tag_188\n      tag_89\n      jump\t// in\n    tag_188:\n    tag_187:\n      swap1\n      0x00\n      mstore\n      keccak256(0x00, 0x20)\n      swap1\n      0x08\n      mul\n      add\n        /* \"contracts/CarreraCoches/principal.sol\":5785:5805  listaCoches[i].nivel */\n      0x07\n      add\n      0x00\n        /* \"contracts/CarreraCoches/principal.sol\":5785:5807  listaCoches[i].nivel++ */\n      dup2\n      dup2\n      swap1\n      sload\n      swap1\n      0x0100\n      exp\n      swap1\n      div\n      0xffffffff\n      and\n      dup1\n      swap3\n      swap2\n      swap1\n      tag_190\n      swap1\n      tag_131\n      jump\t// in\n    tag_190:\n      swap2\n      swap1\n      0x0100\n      exp\n      dup2\n      sload\n      dup2\n      0xffffffff\n      mul\n      not\n      and\n      swap1\n      dup4\n      0xffffffff\n      and\n      mul\n      or\n      swap1\n      sstore\n      pop\n      pop\n        /* \"contracts/CarreraCoches/principal.sol\":5838:5857  return \"Has ganado\" */\n      mload(0x40)\n      dup1\n      0x40\n      add\n      0x40\n      mstore\n      dup1\n      0x0a\n      dup2\n      mstore\n      0x20\n      add\n      0x4861732067616e61646f00000000000000000000000000000000000000000000\n      dup2\n      mstore\n      pop\n      swap6\n      pop\n      pop\n      pop\n      pop\n      pop\n      pop\n      jump(tag_133)\n        /* \"contracts/CarreraCoches/principal.sol\":5636:6209  if(ganador<=60){\r... */\n    tag_180:\n        /* \"contracts/CarreraCoches/principal.sol\":6011:6061  confirmacionDepositoLleno(\"El coche ganador es: \") */\n      0x6158fc8f21c8cc73ddf920956cc75d0e8a48b4fc85817a0ba89eb3b6d2a75441\n      mload(0x40)\n      tag_192\n      swap1\n      tag_193\n      jump\t// in\n    tag_192:\n      mload(0x40)\n      dup1\n      swap2\n      sub\n      swap1\n      log1\n        /* \"contracts/CarreraCoches/principal.sol\":6092:6096  this */\n      address\n        /* \"contracts/CarreraCoches/principal.sol\":6092:6116  this.verCochePropietario */\n      0xffffffffffffffffffffffffffffffffffffffff\n      and\n      0xe172fca8\n        /* \"contracts/CarreraCoches/principal.sol\":6117:6129  addressRival */\n      dup6\n        /* \"contracts/CarreraCoches/principal.sol\":6092:6130  this.verCochePropietario(addressRival) */\n      mload(0x40)\n      dup3\n      0xffffffff\n      and\n      0xe0\n      shl\n      dup2\n      mstore\n      0x04\n      add\n      tag_194\n      swap2\n      swap1\n      tag_58\n      jump\t// in\n    tag_194:\n      0x00\n      mload(0x40)\n      dup1\n      dup4\n      sub\n      dup2\n      0x00\n      dup8\n      dup1\n      extcodesize\n      iszero\n      dup1\n      iszero\n      tag_195\n      jumpi\n      0x00\n      dup1\n      revert\n    tag_195:\n      pop\n      gas\n      call\n      iszero\n      dup1\n      iszero\n      tag_197\n      jumpi\n      returndatasize\n      0x00\n      dup1\n      returndatacopy\n      revert(0x00, returndatasize)\n    tag_197:\n      pop\n      pop\n      pop\n      pop\n        /* \"contracts/CarreraCoches/principal.sol\":6161:6181  return \"Has perdido\" */\n      mload(0x40)\n      dup1\n      0x40\n      add\n      0x40\n      mstore\n      dup1\n      0x0b\n      dup2\n      mstore\n      0x20\n      add\n      0x486173207065726469646f000000000000000000000000000000000000000000\n      dup2\n      mstore\n      pop\n      swap6\n      pop\n      pop\n      pop\n      pop\n      pop\n      pop\n      jump(tag_133)\n        /* \"contracts/CarreraCoches/principal.sol\":5558:7666  if(listaCoches[rival].nivel < listaCoches[i].nivel){\r... */\n    tag_179:\n        /* \"contracts/CarreraCoches/principal.sol\":6272:6283  listaCoches */\n      0x06\n        /* \"contracts/CarreraCoches/principal.sol\":6284:6285  i */\n      dup2\n        /* \"contracts/CarreraCoches/principal.sol\":6272:6286  listaCoches[i] */\n      dup2\n      sload\n      dup2\n      lt\n      tag_199\n      jumpi\n      tag_200\n      tag_89\n      jump\t// in\n    tag_200:\n    tag_199:\n      swap1\n      0x00\n      mstore\n      keccak256(0x00, 0x20)\n      swap1\n      0x08\n      mul\n      add\n        /* \"contracts/CarreraCoches/principal.sol\":6272:6292  listaCoches[i].nivel */\n      0x07\n      add\n      0x00\n      swap1\n      sload\n      swap1\n      0x0100\n      exp\n      swap1\n      div\n      0xffffffff\n      and\n        /* \"contracts/CarreraCoches/principal.sol\":6244:6292  listaCoches[rival].nivel == listaCoches[i].nivel */\n      0xffffffff\n      and\n        /* \"contracts/CarreraCoches/principal.sol\":6244:6255  listaCoches */\n      0x06\n        /* \"contracts/CarreraCoches/principal.sol\":6256:6261  rival */\n      dup7\n        /* \"contracts/CarreraCoches/principal.sol\":6244:6262  listaCoches[rival] */\n      dup2\n      sload\n      dup2\n      lt\n      tag_202\n      jumpi\n      tag_203\n      tag_89\n      jump\t// in\n    tag_203:\n    tag_202:\n      swap1\n      0x00\n      mstore\n      keccak256(0x00, 0x20)\n      swap1\n      0x08\n      mul\n      add\n        /* \"contracts/CarreraCoches/principal.sol\":6244:6268  listaCoches[rival].nivel */\n      0x07\n      add\n      0x00\n      swap1\n      sload\n      swap1\n      0x0100\n      exp\n      swap1\n      div\n      0xffffffff\n      and\n        /* \"contracts/CarreraCoches/principal.sol\":6244:6292  listaCoches[rival].nivel == listaCoches[i].nivel */\n      0xffffffff\n      and\n      eq\n        /* \"contracts/CarreraCoches/principal.sol\":6241:7666  if(listaCoches[rival].nivel == listaCoches[i].nivel){\r... */\n      iszero\n      tag_205\n      jumpi\n        /* \"contracts/CarreraCoches/principal.sol\":6332:6334  50 */\n      0x32\n        /* \"contracts/CarreraCoches/principal.sol\":6323:6330  ganador */\n      dup3\n        /* \"contracts/CarreraCoches/principal.sol\":6323:6334  ganador<=50 */\n      gt\n        /* \"contracts/CarreraCoches/principal.sol\":6320:6895  if(ganador<=50){\r... */\n      tag_206\n      jumpi\n        /* \"contracts/CarreraCoches/principal.sol\":6366:6375  balance() */\n      tag_207\n        /* \"contracts/CarreraCoches/principal.sol\":6366:6373  balance */\n      tag_182\n        /* \"contracts/CarreraCoches/principal.sol\":6366:6375  balance() */\n      jump\t// in\n    tag_207:\n        /* \"contracts/CarreraCoches/principal.sol\":6406:6417  listaCoches */\n      0x06\n        /* \"contracts/CarreraCoches/principal.sol\":6418:6419  i */\n      dup2\n        /* \"contracts/CarreraCoches/principal.sol\":6406:6420  listaCoches[i] */\n      dup2\n      sload\n      dup2\n      lt\n      tag_208\n      jumpi\n      tag_209\n      tag_89\n      jump\t// in\n    tag_209:\n    tag_208:\n      swap1\n      0x00\n      mstore\n      keccak256(0x00, 0x20)\n      swap1\n      0x08\n      mul\n      add\n        /* \"contracts/CarreraCoches/principal.sol\":6406:6436  listaCoches[i].carrerasGanadas */\n      0x04\n      add\n      0x00\n        /* \"contracts/CarreraCoches/principal.sol\":6406:6438  listaCoches[i].carrerasGanadas++ */\n      dup2\n      sload\n      dup1\n      swap3\n      swap2\n      swap1\n      tag_211\n      swap1\n      tag_102\n      jump\t// in\n    tag_211:\n      swap2\n      swap1\n      pop\n      sstore\n      pop\n        /* \"contracts/CarreraCoches/principal.sol\":6469:6480  listaCoches */\n      0x06\n        /* \"contracts/CarreraCoches/principal.sol\":6481:6482  i */\n      dup2\n        /* \"contracts/CarreraCoches/principal.sol\":6469:6483  listaCoches[i] */\n      dup2\n      sload\n      dup2\n      lt\n      tag_212\n      jumpi\n      tag_213\n      tag_89\n      jump\t// in\n    tag_213:\n    tag_212:\n      swap1\n      0x00\n      mstore\n      keccak256(0x00, 0x20)\n      swap1\n      0x08\n      mul\n      add\n        /* \"contracts/CarreraCoches/principal.sol\":6469:6489  listaCoches[i].nivel */\n      0x07\n      add\n      0x00\n        /* \"contracts/CarreraCoches/principal.sol\":6469:6491  listaCoches[i].nivel++ */\n      dup2\n      dup2\n      swap1\n      sload\n      swap1\n      0x0100\n      exp\n      swap1\n      div\n      0xffffffff\n      and\n      dup1\n      swap3\n      swap2\n      swap1\n      tag_215\n      swap1\n      tag_131\n      jump\t// in\n    tag_215:\n      swap2\n      swap1\n      0x0100\n      exp\n      dup2\n      sload\n      dup2\n      0xffffffff\n      mul\n      not\n      and\n      swap1\n      dup4\n      0xffffffff\n      and\n      mul\n      or\n      swap1\n      sstore\n      pop\n      pop\n        /* \"contracts/CarreraCoches/principal.sol\":6522:6541  return \"Has ganado\" */\n      mload(0x40)\n      dup1\n      0x40\n      add\n      0x40\n      mstore\n      dup1\n      0x0a\n      dup2\n      mstore\n      0x20\n      add\n      0x4861732067616e61646f00000000000000000000000000000000000000000000\n      dup2\n      mstore\n      pop\n      swap6\n      pop\n      pop\n      pop\n      pop\n      pop\n      pop\n      jump(tag_133)\n        /* \"contracts/CarreraCoches/principal.sol\":6320:6895  if(ganador<=50){\r... */\n    tag_206:\n        /* \"contracts/CarreraCoches/principal.sol\":6697:6747  confirmacionDepositoLleno(\"El coche ganador es: \") */\n      0x6158fc8f21c8cc73ddf920956cc75d0e8a48b4fc85817a0ba89eb3b6d2a75441\n      mload(0x40)\n      tag_217\n      swap1\n      tag_193\n      jump\t// in\n    tag_217:\n      mload(0x40)\n      dup1\n      swap2\n      sub\n      swap1\n      log1\n        /* \"contracts/CarreraCoches/principal.sol\":6778:6782  this */\n      address\n        /* \"contracts/CarreraCoches/principal.sol\":6778:6802  this.verCochePropietario */\n      0xffffffffffffffffffffffffffffffffffffffff\n      and\n      0xe172fca8\n        /* \"contracts/CarreraCoches/principal.sol\":6803:6815  addressRival */\n      dup6\n        /* \"contracts/CarreraCoches/principal.sol\":6778:6816  this.verCochePropietario(addressRival) */\n      mload(0x40)\n      dup3\n      0xffffffff\n      and\n      0xe0\n      shl\n      dup2\n      mstore\n      0x04\n      add\n      tag_218\n      swap2\n      swap1\n      tag_58\n      jump\t// in\n    tag_218:\n      0x00\n      mload(0x40)\n      dup1\n      dup4\n      sub\n      dup2\n      0x00\n      dup8\n      dup1\n      extcodesize\n      iszero\n      dup1\n      iszero\n      tag_219\n      jumpi\n      0x00\n      dup1\n      revert\n    tag_219:\n      pop\n      gas\n      call\n      iszero\n      dup1\n      iszero\n      tag_221\n      jumpi\n      returndatasize\n      0x00\n      dup1\n      returndatacopy\n      revert(0x00, returndatasize)\n    tag_221:\n      pop\n      pop\n      pop\n      pop\n        /* \"contracts/CarreraCoches/principal.sol\":6847:6867  return \"Has perdido\" */\n      mload(0x40)\n      dup1\n      0x40\n      add\n      0x40\n      mstore\n      dup1\n      0x0b\n      dup2\n      mstore\n      0x20\n      add\n      0x486173207065726469646f000000000000000000000000000000000000000000\n      dup2\n      mstore\n      pop\n      swap6\n      pop\n      pop\n      pop\n      pop\n      pop\n      pop\n      jump(tag_133)\n        /* \"contracts/CarreraCoches/principal.sol\":6241:7666  if(listaCoches[rival].nivel == listaCoches[i].nivel){\r... */\n    tag_205:\n        /* \"contracts/CarreraCoches/principal.sol\":6962:6964  40 */\n      0x28\n        /* \"contracts/CarreraCoches/principal.sol\":6953:6960  ganador */\n      dup3\n        /* \"contracts/CarreraCoches/principal.sol\":6953:6964  ganador<=40 */\n      gt\n        /* \"contracts/CarreraCoches/principal.sol\":6950:7642  if(ganador<=40){\r... */\n      tag_223\n      jumpi\n        /* \"contracts/CarreraCoches/principal.sol\":6996:7005  balance() */\n      tag_224\n        /* \"contracts/CarreraCoches/principal.sol\":6996:7003  balance */\n      tag_182\n        /* \"contracts/CarreraCoches/principal.sol\":6996:7005  balance() */\n      jump\t// in\n    tag_224:\n        /* \"contracts/CarreraCoches/principal.sol\":7036:7047  listaCoches */\n      0x06\n        /* \"contracts/CarreraCoches/principal.sol\":7048:7049  i */\n      dup2\n        /* \"contracts/CarreraCoches/principal.sol\":7036:7050  listaCoches[i] */\n      dup2\n      sload\n      dup2\n      lt\n      tag_225\n      jumpi\n      tag_226\n      tag_89\n      jump\t// in\n    tag_226:\n    tag_225:\n      swap1\n      0x00\n      mstore\n      keccak256(0x00, 0x20)\n      swap1\n      0x08\n      mul\n      add\n        /* \"contracts/CarreraCoches/principal.sol\":7036:7066  listaCoches[i].carrerasGanadas */\n      0x04\n      add\n      0x00\n        /* \"contracts/CarreraCoches/principal.sol\":7036:7068  listaCoches[i].carrerasGanadas++ */\n      dup2\n      sload\n      dup1\n      swap3\n      swap2\n      swap1\n      tag_228\n      swap1\n      tag_102\n      jump\t// in\n    tag_228:\n      swap2\n      swap1\n      pop\n      sstore\n      pop\n        /* \"contracts/CarreraCoches/principal.sol\":7099:7110  listaCoches */\n      0x06\n        /* \"contracts/CarreraCoches/principal.sol\":7111:7112  i */\n      dup2\n        /* \"contracts/CarreraCoches/principal.sol\":7099:7113  listaCoches[i] */\n      dup2\n      sload\n      dup2\n      lt\n      tag_229\n      jumpi\n      tag_230\n      tag_89\n      jump\t// in\n    tag_230:\n    tag_229:\n      swap1\n      0x00\n      mstore\n      keccak256(0x00, 0x20)\n      swap1\n      0x08\n      mul\n      add\n        /* \"contracts/CarreraCoches/principal.sol\":7099:7119  listaCoches[i].nivel */\n      0x07\n      add\n      0x00\n        /* \"contracts/CarreraCoches/principal.sol\":7099:7121  listaCoches[i].nivel++ */\n      dup2\n      dup2\n      swap1\n      sload\n      swap1\n      0x0100\n      exp\n      swap1\n      div\n      0xffffffff\n      and\n      dup1\n      swap3\n      swap2\n      swap1\n      tag_232\n      swap1\n      tag_131\n      jump\t// in\n    tag_232:\n      swap2\n      swap1\n      0x0100\n      exp\n      dup2\n      sload\n      dup2\n      0xffffffff\n      mul\n      not\n      and\n      swap1\n      dup4\n      0xffffffff\n      and\n      mul\n      or\n      swap1\n      sstore\n      pop\n      pop\n        /* \"contracts/CarreraCoches/principal.sol\":7152:7171  return \"Has ganado\" */\n      mload(0x40)\n      dup1\n      0x40\n      add\n      0x40\n      mstore\n      dup1\n      0x0a\n      dup2\n      mstore\n      0x20\n      add\n      0x4861732067616e61646f00000000000000000000000000000000000000000000\n      dup2\n      mstore\n      pop\n      swap6\n      pop\n      pop\n      pop\n      pop\n      pop\n      pop\n      jump(tag_133)\n        /* \"contracts/CarreraCoches/principal.sol\":6950:7642  if(ganador<=40){\r... */\n    tag_223:\n        /* \"contracts/CarreraCoches/principal.sol\":7239:7289  confirmacionDepositoLleno(\"El coche ganador es: \") */\n      0x6158fc8f21c8cc73ddf920956cc75d0e8a48b4fc85817a0ba89eb3b6d2a75441\n      mload(0x40)\n      tag_234\n      swap1\n      tag_193\n      jump\t// in\n    tag_234:\n      mload(0x40)\n      dup1\n      swap2\n      sub\n      swap1\n      log1\n        /* \"contracts/CarreraCoches/principal.sol\":7320:7324  this */\n      address\n        /* \"contracts/CarreraCoches/principal.sol\":7320:7344  this.verCochePropietario */\n      0xffffffffffffffffffffffffffffffffffffffff\n      and\n      0xe172fca8\n        /* \"contracts/CarreraCoches/principal.sol\":7345:7357  addressRival */\n      dup6\n        /* \"contracts/CarreraCoches/principal.sol\":7320:7358  this.verCochePropietario(addressRival) */\n      mload(0x40)\n      dup3\n      0xffffffff\n      and\n      0xe0\n      shl\n      dup2\n      mstore\n      0x04\n      add\n      tag_235\n      swap2\n      swap1\n      tag_58\n      jump\t// in\n    tag_235:\n      0x00\n      mload(0x40)\n      dup1\n      dup4\n      sub\n      dup2\n      0x00\n      dup8\n      dup1\n      extcodesize\n      iszero\n      dup1\n      iszero\n      tag_236\n      jumpi\n      0x00\n      dup1\n      revert\n    tag_236:\n      pop\n      gas\n      call\n      iszero\n      dup1\n      iszero\n      tag_238\n      jumpi\n      returndatasize\n      0x00\n      dup1\n      returndatacopy\n      revert(0x00, returndatasize)\n    tag_238:\n      pop\n      pop\n      pop\n      pop\n        /* \"contracts/CarreraCoches/principal.sol\":7594:7614  return \"Has perdido\" */\n      mload(0x40)\n      dup1\n      0x40\n      add\n      0x40\n      mstore\n      dup1\n      0x0b\n      dup2\n      mstore\n      0x20\n      add\n      0x486173207065726469646f000000000000000000000000000000000000000000\n      dup2\n      mstore\n      pop\n      swap6\n      pop\n      pop\n      pop\n      pop\n      pop\n      pop\n      jump(tag_133)\n        /* \"contracts/CarreraCoches/principal.sol\":5266:7689  if (msg.sender == listaCoches[i].idPiloto) {\r... */\n    tag_153:\n        /* \"contracts/CarreraCoches/principal.sol\":5207:5210  i++ */\n      dup1\n      dup1\n      tag_239\n      swap1\n      tag_102\n      jump\t// in\n    tag_239:\n      swap2\n      pop\n      pop\n        /* \"contracts/CarreraCoches/principal.sol\":5167:7722  for(uint i = 0; i < listaCoches.length; i++){\r... */\n      jump(tag_147)\n    tag_148:\n      pop\n        /* \"contracts/CarreraCoches/principal.sol\":4627:7733  {\r... */\n      pop\n      pop\n      pop\n      pop\n        /* \"contracts/CarreraCoches/principal.sol\":4487:7733  if(listaCoches.length <= 1){\r... */\n    tag_137:\n        /* \"contracts/CarreraCoches/principal.sol\":4393:7739  function Apostar(uint dineroApostar) public payable returns(string memory) {\r... */\n    tag_133:\n      swap2\n      swap1\n      pop\n      jump\t// out\n        /* \"contracts/CarreraCoches/principal.sol\":3506:3792  function cambiarCoche(uint _coche, string memory _newModelo, string memory _newMarca) external nivelAlcanzado(10, _coche) {\r... */\n    tag_49:\n        /* \"contracts/CarreraCoches/principal.sol\":3616:3618  10 */\n      0x0a\n        /* \"contracts/CarreraCoches/principal.sol\":3620:3626  _coche */\n      dup4\n        /* \"contracts/CarreraCoches/principal.sol\":3471:3477  _nivel */\n      dup2\n        /* \"contracts/CarreraCoches/principal.sol\":3442:3453  listaCoches */\n      0x06\n        /* \"contracts/CarreraCoches/principal.sol\":3454:3460  _coche */\n      dup3\n        /* \"contracts/CarreraCoches/principal.sol\":3442:3461  listaCoches[_coche] */\n      dup2\n      sload\n      dup2\n      lt\n      tag_241\n      jumpi\n      tag_242\n      tag_89\n      jump\t// in\n    tag_242:\n    tag_241:\n      swap1\n      0x00\n      mstore\n      keccak256(0x00, 0x20)\n      swap1\n      0x08\n      mul\n      add\n        /* \"contracts/CarreraCoches/principal.sol\":3442:3467  listaCoches[_coche].nivel */\n      0x07\n      add\n      0x00\n      swap1\n      sload\n      swap1\n      0x0100\n      exp\n      swap1\n      div\n      0xffffffff\n      and\n        /* \"contracts/CarreraCoches/principal.sol\":3442:3477  listaCoches[_coche].nivel >= _nivel */\n      0xffffffff\n      and\n      lt\n      iszero\n        /* \"contracts/CarreraCoches/principal.sol\":3434:3478  require(listaCoches[_coche].nivel >= _nivel) */\n      tag_244\n      jumpi\n      0x00\n      dup1\n      revert\n    tag_244:\n        /* \"contracts/CarreraCoches/principal.sol\":3659:3677  cocheDePropietario */\n      0x07\n        /* \"contracts/CarreraCoches/principal.sol\":3659:3685  cocheDePropietario[_coche] */\n      0x00\n        /* \"contracts/CarreraCoches/principal.sol\":3678:3684  _coche */\n      dup7\n        /* \"contracts/CarreraCoches/principal.sol\":3659:3685  cocheDePropietario[_coche] */\n      dup2\n      mstore\n      0x20\n      add\n      swap1\n      dup2\n      mstore\n      0x20\n      add\n      0x00\n      keccak256\n      0x00\n      swap1\n      sload\n      swap1\n      0x0100\n      exp\n      swap1\n      div\n      0xffffffffffffffffffffffffffffffffffffffff\n      and\n        /* \"contracts/CarreraCoches/principal.sol\":3647:3685  msg.sender==cocheDePropietario[_coche] */\n      0xffffffffffffffffffffffffffffffffffffffff\n      and\n        /* \"contracts/CarreraCoches/principal.sol\":3647:3657  msg.sender */\n      caller\n        /* \"contracts/CarreraCoches/principal.sol\":3647:3685  msg.sender==cocheDePropietario[_coche] */\n      0xffffffffffffffffffffffffffffffffffffffff\n      and\n      eq\n        /* \"contracts/CarreraCoches/principal.sol\":3639:3686  require(msg.sender==cocheDePropietario[_coche]) */\n      tag_246\n      jumpi\n      0x00\n      dup1\n      revert\n    tag_246:\n        /* \"contracts/CarreraCoches/principal.sol\":3726:3736  _newModelo */\n      dup4\n        /* \"contracts/CarreraCoches/principal.sol\":3697:3708  listaCoches */\n      0x06\n        /* \"contracts/CarreraCoches/principal.sol\":3709:3715  _coche */\n      dup7\n        /* \"contracts/CarreraCoches/principal.sol\":3697:3716  listaCoches[_coche] */\n      dup2\n      sload\n      dup2\n      lt\n      tag_247\n      jumpi\n      tag_248\n      tag_89\n      jump\t// in\n    tag_248:\n    tag_247:\n      swap1\n      0x00\n      mstore\n      keccak256(0x00, 0x20)\n      swap1\n      0x08\n      mul\n      add\n        /* \"contracts/CarreraCoches/principal.sol\":3697:3723  listaCoches[_coche].modelo */\n      0x01\n      add\n        /* \"contracts/CarreraCoches/principal.sol\":3697:3736  listaCoches[_coche].modelo = _newModelo */\n      swap1\n      dup1\n      mload\n      swap1\n      0x20\n      add\n      swap1\n      tag_250\n      swap3\n      swap2\n      swap1\n      tag_96\n      jump\t// in\n    tag_250:\n      pop\n        /* \"contracts/CarreraCoches/principal.sol\":3775:3784  _newMarca */\n      dup3\n        /* \"contracts/CarreraCoches/principal.sol\":3747:3758  listaCoches */\n      0x06\n        /* \"contracts/CarreraCoches/principal.sol\":3759:3765  _coche */\n      dup7\n        /* \"contracts/CarreraCoches/principal.sol\":3747:3766  listaCoches[_coche] */\n      dup2\n      sload\n      dup2\n      lt\n      tag_251\n      jumpi\n      tag_252\n      tag_89\n      jump\t// in\n    tag_252:\n    tag_251:\n      swap1\n      0x00\n      mstore\n      keccak256(0x00, 0x20)\n      swap1\n      0x08\n      mul\n      add\n        /* \"contracts/CarreraCoches/principal.sol\":3747:3772  listaCoches[_coche].marca */\n      0x02\n      add\n        /* \"contracts/CarreraCoches/principal.sol\":3747:3784  listaCoches[_coche].marca = _newMarca */\n      swap1\n      dup1\n      mload\n      swap1\n      0x20\n      add\n      swap1\n      tag_254\n      swap3\n      swap2\n      swap1\n      tag_96\n      jump\t// in\n    tag_254:\n      pop\n        /* \"contracts/CarreraCoches/principal.sol\":3506:3792  function cambiarCoche(uint _coche, string memory _newModelo, string memory _newMarca) external nivelAlcanzado(10, _coche) {\r... */\n      pop\n      pop\n      pop\n      pop\n      pop\n      jump\t// out\n        /* \"contracts/CarreraCoches/ownable.sol\":1719:1822  function renounceOwnership() public virtual onlyOwner {\r... */\n    tag_52:\n        /* \"contracts/CarreraCoches/ownable.sol\":1299:1311  _msgSender() */\n      tag_256\n        /* \"contracts/CarreraCoches/ownable.sol\":1299:1309  _msgSender */\n      tag_257\n        /* \"contracts/CarreraCoches/ownable.sol\":1299:1311  _msgSender() */\n      jump\t// in\n    tag_256:\n        /* \"contracts/CarreraCoches/ownable.sol\":1288:1311  owner() == _msgSender() */\n      0xffffffffffffffffffffffffffffffffffffffff\n      and\n        /* \"contracts/CarreraCoches/ownable.sol\":1288:1295  owner() */\n      tag_258\n        /* \"contracts/CarreraCoches/ownable.sol\":1288:1293  owner */\n      tag_61\n        /* \"contracts/CarreraCoches/ownable.sol\":1288:1295  owner() */\n      jump\t// in\n    tag_258:\n        /* \"contracts/CarreraCoches/ownable.sol\":1288:1311  owner() == _msgSender() */\n      0xffffffffffffffffffffffffffffffffffffffff\n      and\n      eq\n        /* \"contracts/CarreraCoches/ownable.sol\":1280:1348  require(owner() == _msgSender(), \"Ownable: caller is not the owner\") */\n      tag_259\n      jumpi\n      mload(0x40)\n      0x08c379a000000000000000000000000000000000000000000000000000000000\n      dup2\n      mstore\n      0x04\n      add\n      tag_260\n      swap1\n      tag_261\n      jump\t// in\n    tag_260:\n      mload(0x40)\n      dup1\n      swap2\n      sub\n      swap1\n      revert\n    tag_259:\n        /* \"contracts/CarreraCoches/ownable.sol\":1784:1814  _transferOwnership(address(0)) */\n      tag_263\n        /* \"contracts/CarreraCoches/ownable.sol\":1811:1812  0 */\n      0x00\n        /* \"contracts/CarreraCoches/ownable.sol\":1784:1802  _transferOwnership */\n      tag_264\n        /* \"contracts/CarreraCoches/ownable.sol\":1784:1814  _transferOwnership(address(0)) */\n      jump\t// in\n    tag_263:\n        /* \"contracts/CarreraCoches/ownable.sol\":1719:1822  function renounceOwnership() public virtual onlyOwner {\r... */\n      jump\t// out\n        /* \"contracts/CarreraCoches/principal.sol\":871:922  mapping (uint => address) public cocheDePropietario */\n    tag_56:\n      mstore(0x20, 0x07)\n      dup1\n      0x00\n      mstore\n      keccak256(0x00, 0x40)\n      0x00\n      swap2\n      pop\n      sload\n      swap1\n      0x0100\n      exp\n      swap1\n      div\n      0xffffffffffffffffffffffffffffffffffffffff\n      and\n      dup2\n      jump\t// out\n        /* \"contracts/CarreraCoches/ownable.sol\":1068:1155  function owner() public view virtual returns (address) {\r... */\n    tag_61:\n        /* \"contracts/CarreraCoches/ownable.sol\":1114:1121  address */\n      0x00\n        /* \"contracts/CarreraCoches/ownable.sol\":1141:1147  _owner */\n      dup1\n      0x00\n      swap1\n      sload\n      swap1\n      0x0100\n      exp\n      swap1\n      div\n      0xffffffffffffffffffffffffffffffffffffffff\n      and\n        /* \"contracts/CarreraCoches/ownable.sol\":1134:1147  return _owner */\n      swap1\n      pop\n        /* \"contracts/CarreraCoches/ownable.sol\":1068:1155  function owner() public view virtual returns (address) {\r... */\n      swap1\n      jump\t// out\n        /* \"contracts/CarreraCoches/ownable.sol\":701:722  address public _owner */\n    tag_65:\n      0x00\n      dup1\n      sload\n      swap1\n      0x0100\n      exp\n      swap1\n      div\n      0xffffffffffffffffffffffffffffffffffffffff\n      and\n      dup2\n      jump\t// out\n        /* \"contracts/CarreraCoches/principal.sol\":604:630  Coche[] public listaCoches */\n    tag_70:\n      0x06\n      dup2\n      dup2\n      sload\n      dup2\n      lt\n      tag_266\n      jumpi\n      0x00\n      dup1\n      revert\n    tag_266:\n      swap1\n      0x00\n      mstore\n      keccak256(0x00, 0x20)\n      swap1\n      0x08\n      mul\n      add\n      0x00\n      swap2\n      pop\n      swap1\n      pop\n      dup1\n      0x00\n      add\n      0x00\n      swap1\n      sload\n      swap1\n      0x0100\n      exp\n      swap1\n      div\n      0xffffffffffffffffffffffffffffffffffffffff\n      and\n      swap1\n      dup1\n      0x01\n      add\n      dup1\n      sload\n      tag_268\n      swap1\n      tag_269\n      jump\t// in\n    tag_268:\n      dup1\n      0x1f\n      add\n      0x20\n      dup1\n      swap2\n      div\n      mul\n      0x20\n      add\n      mload(0x40)\n      swap1\n      dup2\n      add\n      0x40\n      mstore\n      dup1\n      swap3\n      swap2\n      swap1\n      dup2\n      dup2\n      mstore\n      0x20\n      add\n      dup3\n      dup1\n      sload\n      tag_270\n      swap1\n      tag_269\n      jump\t// in\n    tag_270:\n      dup1\n      iszero\n      tag_271\n      jumpi\n      dup1\n      0x1f\n      lt\n      tag_272\n      jumpi\n      0x0100\n      dup1\n      dup4\n      sload\n      div\n      mul\n      dup4\n      mstore\n      swap2\n      0x20\n      add\n      swap2\n      jump(tag_271)\n    tag_272:\n      dup3\n      add\n      swap2\n      swap1\n      0x00\n      mstore\n      keccak256(0x00, 0x20)\n      swap1\n    tag_273:\n      dup2\n      sload\n      dup2\n      mstore\n      swap1\n      0x01\n      add\n      swap1\n      0x20\n      add\n      dup1\n      dup4\n      gt\n      tag_273\n      jumpi\n      dup3\n      swap1\n      sub\n      0x1f\n      and\n      dup3\n      add\n      swap2\n    tag_271:\n      pop\n      pop\n      pop\n      pop\n      pop\n      swap1\n      dup1\n      0x02\n      add\n      dup1\n      sload\n      tag_274\n      swap1\n      tag_269\n      jump\t// in\n    tag_274:\n      dup1\n      0x1f\n      add\n      0x20\n      dup1\n      swap2\n      div\n      mul\n      0x20\n      add\n      mload(0x40)\n      swap1\n      dup2\n      add\n      0x40\n      mstore\n      dup1\n      swap3\n      swap2\n      swap1\n      dup2\n      dup2\n      mstore\n      0x20\n      add\n      dup3\n      dup1\n      sload\n      tag_275\n      swap1\n      tag_269\n      jump\t// in\n    tag_275:\n      dup1\n      iszero\n      tag_276\n      jumpi\n      dup1\n      0x1f\n      lt\n      tag_277\n      jumpi\n      0x0100\n      dup1\n      dup4\n      sload\n      div\n      mul\n      dup4\n      mstore\n      swap2\n      0x20\n      add\n      swap2\n      jump(tag_276)\n    tag_277:\n      dup3\n      add\n      swap2\n      swap1\n      0x00\n      mstore\n      keccak256(0x00, 0x20)\n      swap1\n    tag_278:\n      dup2\n      sload\n      dup2\n      mstore\n      swap1\n      0x01\n      add\n      swap1\n      0x20\n      add\n      dup1\n      dup4\n      gt\n      tag_278\n      jumpi\n      dup3\n      swap1\n      sub\n      0x1f\n      and\n      dup3\n      add\n      swap2\n    tag_276:\n      pop\n      pop\n      pop\n      pop\n      pop\n      swap1\n      dup1\n      0x03\n      add\n      dup1\n      sload\n      tag_279\n      swap1\n      tag_269\n      jump\t// in\n    tag_279:\n      dup1\n      0x1f\n      add\n      0x20\n      dup1\n      swap2\n      div\n      mul\n      0x20\n      add\n      mload(0x40)\n      swap1\n      dup2\n      add\n      0x40\n      mstore\n      dup1\n      swap3\n      swap2\n      swap1\n      dup2\n      dup2\n      mstore\n      0x20\n      add\n      dup3\n      dup1\n      sload\n      tag_280\n      swap1\n      tag_269\n      jump\t// in\n    tag_280:\n      dup1\n      iszero\n      tag_281\n      jumpi\n      dup1\n      0x1f\n      lt\n      tag_282\n      jumpi\n      0x0100\n      dup1\n      dup4\n      sload\n      div\n      mul\n      dup4\n      mstore\n      swap2\n      0x20\n      add\n      swap2\n      jump(tag_281)\n    tag_282:\n      dup3\n      add\n      swap2\n      swap1\n      0x00\n      mstore\n      keccak256(0x00, 0x20)\n      swap1\n    tag_283:\n      dup2\n      sload\n      dup2\n      mstore\n      swap1\n      0x01\n      add\n      swap1\n      0x20\n      add\n      dup1\n      dup4\n      gt\n      tag_283\n      jumpi\n      dup3\n      swap1\n      sub\n      0x1f\n      and\n      dup3\n      add\n      swap2\n    tag_281:\n      pop\n      pop\n      pop\n      pop\n      pop\n      swap1\n      dup1\n      0x04\n      add\n      sload\n      swap1\n      dup1\n      0x05\n      add\n      sload\n      swap1\n      dup1\n      0x06\n      add\n      sload\n      swap1\n      dup1\n      0x07\n      add\n      0x00\n      swap1\n      sload\n      swap1\n      0x0100\n      exp\n      swap1\n      div\n      0xffffffff\n      and\n      swap1\n      pop\n      dup9\n      jump\t// out\n        /* \"contracts/CarreraCoches/principal.sol\":2989:3365  function verCochePropietario(address _propietario) external {\r... */\n    tag_76:\n        /* \"contracts/CarreraCoches/principal.sol\":3064:3070  uint i */\n      0x00\n        /* \"contracts/CarreraCoches/principal.sol\":3060:3358  for(uint i = 0; i < listaCoches.length; i++){\r... */\n    tag_285:\n        /* \"contracts/CarreraCoches/principal.sol\":3080:3091  listaCoches */\n      0x06\n        /* \"contracts/CarreraCoches/principal.sol\":3080:3098  listaCoches.length */\n      dup1\n      sload\n      swap1\n      pop\n        /* \"contracts/CarreraCoches/principal.sol\":3076:3077  i */\n      dup2\n        /* \"contracts/CarreraCoches/principal.sol\":3076:3098  i < listaCoches.length */\n      lt\n        /* \"contracts/CarreraCoches/principal.sol\":3060:3358  for(uint i = 0; i < listaCoches.length; i++){\r... */\n      iszero\n      tag_286\n      jumpi\n        /* \"contracts/CarreraCoches/principal.sol\":3147:3159  _propietario */\n      dup2\n        /* \"contracts/CarreraCoches/principal.sol\":3122:3159  listaCoches[i].idPiloto==_propietario */\n      0xffffffffffffffffffffffffffffffffffffffff\n      and\n        /* \"contracts/CarreraCoches/principal.sol\":3122:3133  listaCoches */\n      0x06\n        /* \"contracts/CarreraCoches/principal.sol\":3134:3135  i */\n      dup3\n        /* \"contracts/CarreraCoches/principal.sol\":3122:3136  listaCoches[i] */\n      dup2\n      sload\n      dup2\n      lt\n      tag_288\n      jumpi\n      tag_289\n      tag_89\n      jump\t// in\n    tag_289:\n    tag_288:\n      swap1\n      0x00\n      mstore\n      keccak256(0x00, 0x20)\n      swap1\n      0x08\n      mul\n      add\n        /* \"contracts/CarreraCoches/principal.sol\":3122:3145  listaCoches[i].idPiloto */\n      0x00\n      add\n      0x00\n      swap1\n      sload\n      swap1\n      0x0100\n      exp\n      swap1\n      div\n      0xffffffffffffffffffffffffffffffffffffffff\n      and\n        /* \"contracts/CarreraCoches/principal.sol\":3122:3159  listaCoches[i].idPiloto==_propietario */\n      0xffffffffffffffffffffffffffffffffffffffff\n      and\n      eq\n        /* \"contracts/CarreraCoches/principal.sol\":3119:3347  if(listaCoches[i].idPiloto==_propietario){\r... */\n      iszero\n      tag_291\n      jumpi\n        /* \"contracts/CarreraCoches/principal.sol\":3184:3331  cochePropietario(listaCoches[i].marca, listaCoches[i].modelo, listaCoches[i].nivel, listaCoches[i].carrerasGanadas, listaCoches[i].carrerasTotales) */\n      0x20fdb8ab571bfbab79104bea84f9c31cb79c5ae45b5f515c1d6c8393e0028350\n        /* \"contracts/CarreraCoches/principal.sol\":3201:3212  listaCoches */\n      0x06\n        /* \"contracts/CarreraCoches/principal.sol\":3213:3214  i */\n      dup3\n        /* \"contracts/CarreraCoches/principal.sol\":3201:3215  listaCoches[i] */\n      dup2\n      sload\n      dup2\n      lt\n      tag_292\n      jumpi\n      tag_293\n      tag_89\n      jump\t// in\n    tag_293:\n    tag_292:\n      swap1\n      0x00\n      mstore\n      keccak256(0x00, 0x20)\n      swap1\n      0x08\n      mul\n      add\n        /* \"contracts/CarreraCoches/principal.sol\":3201:3221  listaCoches[i].marca */\n      0x02\n      add\n        /* \"contracts/CarreraCoches/principal.sol\":3223:3234  listaCoches */\n      0x06\n        /* \"contracts/CarreraCoches/principal.sol\":3235:3236  i */\n      dup4\n        /* \"contracts/CarreraCoches/principal.sol\":3223:3237  listaCoches[i] */\n      dup2\n      sload\n      dup2\n      lt\n      tag_295\n      jumpi\n      tag_296\n      tag_89\n      jump\t// in\n    tag_296:\n    tag_295:\n      swap1\n      0x00\n      mstore\n      keccak256(0x00, 0x20)\n      swap1\n      0x08\n      mul\n      add\n        /* \"contracts/CarreraCoches/principal.sol\":3223:3244  listaCoches[i].modelo */\n      0x01\n      add\n        /* \"contracts/CarreraCoches/principal.sol\":3246:3257  listaCoches */\n      0x06\n        /* \"contracts/CarreraCoches/principal.sol\":3258:3259  i */\n      dup5\n        /* \"contracts/CarreraCoches/principal.sol\":3246:3260  listaCoches[i] */\n      dup2\n      sload\n      dup2\n      lt\n      tag_298\n      jumpi\n      tag_299\n      tag_89\n      jump\t// in\n    tag_299:\n    tag_298:\n      swap1\n      0x00\n      mstore\n      keccak256(0x00, 0x20)\n      swap1\n      0x08\n      mul\n      add\n        /* \"contracts/CarreraCoches/principal.sol\":3246:3266  listaCoches[i].nivel */\n      0x07\n      add\n      0x00\n      swap1\n      sload\n      swap1\n      0x0100\n      exp\n      swap1\n      div\n      0xffffffff\n      and\n        /* \"contracts/CarreraCoches/principal.sol\":3268:3279  listaCoches */\n      0x06\n        /* \"contracts/CarreraCoches/principal.sol\":3280:3281  i */\n      dup6\n        /* \"contracts/CarreraCoches/principal.sol\":3268:3282  listaCoches[i] */\n      dup2\n      sload\n      dup2\n      lt\n      tag_301\n      jumpi\n      tag_302\n      tag_89\n      jump\t// in\n    tag_302:\n    tag_301:\n      swap1\n      0x00\n      mstore\n      keccak256(0x00, 0x20)\n      swap1\n      0x08\n      mul\n      add\n        /* \"contracts/CarreraCoches/principal.sol\":3268:3298  listaCoches[i].carrerasGanadas */\n      0x04\n      add\n      sload\n        /* \"contracts/CarreraCoches/principal.sol\":3300:3311  listaCoches */\n      0x06\n        /* \"contracts/CarreraCoches/principal.sol\":3312:3313  i */\n      dup7\n        /* \"contracts/CarreraCoches/principal.sol\":3300:3314  listaCoches[i] */\n      dup2\n      sload\n      dup2\n      lt\n      tag_304\n      jumpi\n      tag_305\n      tag_89\n      jump\t// in\n    tag_305:\n    tag_304:\n      swap1\n      0x00\n      mstore\n      keccak256(0x00, 0x20)\n      swap1\n      0x08\n      mul\n      add\n        /* \"contracts/CarreraCoches/principal.sol\":3300:3330  listaCoches[i].carrerasTotales */\n      0x05\n      add\n      sload\n        /* \"contracts/CarreraCoches/principal.sol\":3184:3331  cochePropietario(listaCoches[i].marca, listaCoches[i].modelo, listaCoches[i].nivel, listaCoches[i].carrerasGanadas, listaCoches[i].carrerasTotales) */\n      mload(0x40)\n      tag_307\n      swap6\n      swap5\n      swap4\n      swap3\n      swap2\n      swap1\n      tag_308\n      jump\t// in\n    tag_307:\n      mload(0x40)\n      dup1\n      swap2\n      sub\n      swap1\n      log1\n        /* \"contracts/CarreraCoches/principal.sol\":3119:3347  if(listaCoches[i].idPiloto==_propietario){\r... */\n    tag_291:\n        /* \"contracts/CarreraCoches/principal.sol\":3100:3103  i++ */\n      dup1\n      dup1\n      tag_309\n      swap1\n      tag_102\n      jump\t// in\n    tag_309:\n      swap2\n      pop\n      pop\n        /* \"contracts/CarreraCoches/principal.sol\":3060:3358  for(uint i = 0; i < listaCoches.length; i++){\r... */\n      jump(tag_285)\n    tag_286:\n      pop\n        /* \"contracts/CarreraCoches/principal.sol\":2989:3365  function verCochePropietario(address _propietario) external {\r... */\n      pop\n      jump\t// out\n        /* \"contracts/CarreraCoches/ownable.sol\":1977:2178  function transferOwnership(address newOwner) public virtual onlyOwner {\r... */\n    tag_80:\n        /* \"contracts/CarreraCoches/ownable.sol\":1299:1311  _msgSender() */\n      tag_311\n        /* \"contracts/CarreraCoches/ownable.sol\":1299:1309  _msgSender */\n      tag_257\n        /* \"contracts/CarreraCoches/ownable.sol\":1299:1311  _msgSender() */\n      jump\t// in\n    tag_311:\n        /* \"contracts/CarreraCoches/ownable.sol\":1288:1311  owner() == _msgSender() */\n      0xffffffffffffffffffffffffffffffffffffffff\n      and\n        /* \"contracts/CarreraCoches/ownable.sol\":1288:1295  owner() */\n      tag_312\n        /* \"contracts/CarreraCoches/ownable.sol\":1288:1293  owner */\n      tag_61\n        /* \"contracts/CarreraCoches/ownable.sol\":1288:1295  owner() */\n      jump\t// in\n    tag_312:\n        /* \"contracts/CarreraCoches/ownable.sol\":1288:1311  owner() == _msgSender() */\n      0xffffffffffffffffffffffffffffffffffffffff\n      and\n      eq\n        /* \"contracts/CarreraCoches/ownable.sol\":1280:1348  require(owner() == _msgSender(), \"Ownable: caller is not the owner\") */\n      tag_313\n      jumpi\n      mload(0x40)\n      0x08c379a000000000000000000000000000000000000000000000000000000000\n      dup2\n      mstore\n      0x04\n      add\n      tag_314\n      swap1\n      tag_261\n      jump\t// in\n    tag_314:\n      mload(0x40)\n      dup1\n      swap2\n      sub\n      swap1\n      revert\n    tag_313:\n        /* \"contracts/CarreraCoches/ownable.sol\":2086:2087  0 */\n      0x00\n        /* \"contracts/CarreraCoches/ownable.sol\":2066:2088  newOwner != address(0) */\n      0xffffffffffffffffffffffffffffffffffffffff\n      and\n        /* \"contracts/CarreraCoches/ownable.sol\":2066:2074  newOwner */\n      dup2\n        /* \"contracts/CarreraCoches/ownable.sol\":2066:2088  newOwner != address(0) */\n      0xffffffffffffffffffffffffffffffffffffffff\n      and\n      eq\n      iszero\n        /* \"contracts/CarreraCoches/ownable.sol\":2058:2131  require(newOwner != address(0), \"Ownable: new owner is the zero address\") */\n      tag_316\n      jumpi\n      mload(0x40)\n      0x08c379a000000000000000000000000000000000000000000000000000000000\n      dup2\n      mstore\n      0x04\n      add\n      tag_317\n      swap1\n      tag_318\n      jump\t// in\n    tag_317:\n      mload(0x40)\n      dup1\n      swap2\n      sub\n      swap1\n      revert\n    tag_316:\n        /* \"contracts/CarreraCoches/ownable.sol\":2142:2170  _transferOwnership(newOwner) */\n      tag_319\n        /* \"contracts/CarreraCoches/ownable.sol\":2161:2169  newOwner */\n      dup2\n        /* \"contracts/CarreraCoches/ownable.sol\":2142:2160  _transferOwnership */\n      tag_264\n        /* \"contracts/CarreraCoches/ownable.sol\":2142:2170  _transferOwnership(newOwner) */\n      jump\t// in\n    tag_319:\n        /* \"contracts/CarreraCoches/ownable.sol\":1977:2178  function transferOwnership(address newOwner) public virtual onlyOwner {\r... */\n      pop\n      jump\t// out\n        /* \"contracts/CarreraCoches/principal.sol\":2398:2537  function _depositoLleno(Coche storage _coche) internal view returns (bool) {\r... */\n    tag_158:\n        /* \"contracts/CarreraCoches/principal.sol\":2467:2471  bool */\n      0x00\n        /* \"contracts/CarreraCoches/principal.sol\":2514:2529  block.timestamp */\n      timestamp\n        /* \"contracts/CarreraCoches/principal.sol\":2491:2497  _coche */\n      dup3\n        /* \"contracts/CarreraCoches/principal.sol\":2491:2510  _coche.tiempoEspera */\n      0x06\n      add\n      sload\n        /* \"contracts/CarreraCoches/principal.sol\":2491:2529  _coche.tiempoEspera <= block.timestamp */\n      gt\n      iszero\n        /* \"contracts/CarreraCoches/principal.sol\":2484:2529  return _coche.tiempoEspera <= block.timestamp */\n      swap1\n      pop\n        /* \"contracts/CarreraCoches/principal.sol\":2398:2537  function _depositoLleno(Coche storage _coche) internal view returns (bool) {\r... */\n      swap2\n      swap1\n      pop\n      jump\t// out\n        /* \"contracts/CarreraCoches/principal.sol\":2245:2372  function _repostando(Coche storage _coche) internal {\r... */\n    tag_172:\n        /* \"contracts/CarreraCoches/principal.sol\":2355:2363  cooldown */\n      sload(0x03)\n        /* \"contracts/CarreraCoches/principal.sol\":2337:2352  block.timestamp */\n      timestamp\n        /* \"contracts/CarreraCoches/principal.sol\":2337:2363  block.timestamp + cooldown */\n      tag_322\n      swap2\n      swap1\n      tag_109\n      jump\t// in\n    tag_322:\n        /* \"contracts/CarreraCoches/principal.sol\":2308:2364  _coche.tiempoEspera = uint32(block.timestamp + cooldown) */\n      0xffffffff\n      and\n        /* \"contracts/CarreraCoches/principal.sol\":2308:2314  _coche */\n      dup2\n        /* \"contracts/CarreraCoches/principal.sol\":2308:2327  _coche.tiempoEspera */\n      0x06\n      add\n        /* \"contracts/CarreraCoches/principal.sol\":2308:2364  _coche.tiempoEspera = uint32(block.timestamp + cooldown) */\n      dup2\n      swap1\n      sstore\n      pop\n        /* \"contracts/CarreraCoches/principal.sol\":2245:2372  function _repostando(Coche storage _coche) internal {\r... */\n      pop\n      jump\t// out\n        /* \"contracts/CarreraCoches/principal.sol\":7796:7894  function balance() private {\r... */\n    tag_182:\n        /* \"contracts/CarreraCoches/principal.sol\":7843:7853  msg.sender */\n      caller\n        /* \"contracts/CarreraCoches/principal.sol\":7834:7863  payable (msg.sender).transfer */\n      0xffffffffffffffffffffffffffffffffffffffff\n      and\n        /* \"contracts/CarreraCoches/principal.sol\":7834:7886  payable (msg.sender).transfer(address(this).balance) */\n      0x08fc\n        /* \"contracts/CarreraCoches/principal.sol\":7864:7885  address(this).balance */\n      selfbalance\n        /* \"contracts/CarreraCoches/principal.sol\":7834:7886  payable (msg.sender).transfer(address(this).balance) */\n      swap1\n      dup2\n      iszero\n      mul\n      swap1\n      mload(0x40)\n      0x00\n      mload(0x40)\n      dup1\n      dup4\n      sub\n      dup2\n      dup6\n      dup9\n      dup9\n      call\n      swap4\n      pop\n      pop\n      pop\n      pop\n      iszero\n      dup1\n      iszero\n      tag_325\n      jumpi\n      returndatasize\n      0x00\n      dup1\n      returndatacopy\n      revert(0x00, returndatasize)\n    tag_325:\n      pop\n        /* \"contracts/CarreraCoches/principal.sol\":7796:7894  function balance() private {\r... */\n      jump\t// out\n        /* \"contracts/CarreraCoches/utils/Context.sol\":656:754  function _msgSender() internal view virtual returns (address) {\r... */\n    tag_257:\n        /* \"contracts/CarreraCoches/utils/Context.sol\":709:716  address */\n      0x00\n        /* \"contracts/CarreraCoches/utils/Context.sol\":736:746  msg.sender */\n      caller\n        /* \"contracts/CarreraCoches/utils/Context.sol\":729:746  return msg.sender */\n      swap1\n      pop\n        /* \"contracts/CarreraCoches/utils/Context.sol\":656:754  function _msgSender() internal view virtual returns (address) {\r... */\n      swap1\n      jump\t// out\n        /* \"contracts/CarreraCoches/ownable.sol\":2338:2529  function _transferOwnership(address newOwner) internal virtual {\r... */\n    tag_264:\n        /* \"contracts/CarreraCoches/ownable.sol\":2412:2428  address oldOwner */\n      0x00\n        /* \"contracts/CarreraCoches/ownable.sol\":2431:2437  _owner */\n      dup1\n      0x00\n      swap1\n      sload\n      swap1\n      0x0100\n      exp\n      swap1\n      div\n      0xffffffffffffffffffffffffffffffffffffffff\n      and\n        /* \"contracts/CarreraCoches/ownable.sol\":2412:2437  address oldOwner = _owner */\n      swap1\n      pop\n        /* \"contracts/CarreraCoches/ownable.sol\":2457:2465  newOwner */\n      dup2\n        /* \"contracts/CarreraCoches/ownable.sol\":2448:2454  _owner */\n      0x00\n      dup1\n        /* \"contracts/CarreraCoches/ownable.sol\":2448:2465  _owner = newOwner */\n      0x0100\n      exp\n      dup2\n      sload\n      dup2\n      0xffffffffffffffffffffffffffffffffffffffff\n      mul\n      not\n      and\n      swap1\n      dup4\n      0xffffffffffffffffffffffffffffffffffffffff\n      and\n      mul\n      or\n      swap1\n      sstore\n      pop\n        /* \"contracts/CarreraCoches/ownable.sol\":2512:2520  newOwner */\n      dup2\n        /* \"contracts/CarreraCoches/ownable.sol\":2481:2521  OwnershipTransferred(oldOwner, newOwner) */\n      0xffffffffffffffffffffffffffffffffffffffff\n      and\n        /* \"contracts/CarreraCoches/ownable.sol\":2502:2510  oldOwner */\n      dup2\n        /* \"contracts/CarreraCoches/ownable.sol\":2481:2521  OwnershipTransferred(oldOwner, newOwner) */\n      0xffffffffffffffffffffffffffffffffffffffff\n      and\n      0x8be0079c531659141344cd1fd0a4f28419497f9722a3daafe3b4186f6b6457e0\n      mload(0x40)\n      mload(0x40)\n      dup1\n      swap2\n      sub\n      swap1\n      log3\n        /* \"contracts/CarreraCoches/ownable.sol\":2401:2529  {\r... */\n      pop\n        /* \"contracts/CarreraCoches/ownable.sol\":2338:2529  function _transferOwnership(address newOwner) internal virtual {\r... */\n      pop\n      jump\t// out\n    tag_96:\n      dup3\n      dup1\n      sload\n      tag_328\n      swap1\n      tag_269\n      jump\t// in\n    tag_328:\n      swap1\n      0x00\n      mstore\n      keccak256(0x00, 0x20)\n      swap1\n      0x1f\n      add\n      0x20\n      swap1\n      div\n      dup2\n      add\n      swap3\n      dup3\n      tag_330\n      jumpi\n      0x00\n      dup6\n      sstore\n      jump(tag_329)\n    tag_330:\n      dup3\n      0x1f\n      lt\n      tag_331\n      jumpi\n      dup1\n      mload\n      not(0xff)\n      and\n      dup4\n      dup1\n      add\n      or\n      dup6\n      sstore\n      jump(tag_329)\n    tag_331:\n      dup3\n      dup1\n      add\n      0x01\n      add\n      dup6\n      sstore\n      dup3\n      iszero\n      tag_329\n      jumpi\n      swap2\n      dup3\n      add\n    tag_332:\n      dup3\n      dup2\n      gt\n      iszero\n      tag_333\n      jumpi\n      dup3\n      mload\n      dup3\n      sstore\n      swap2\n      0x20\n      add\n      swap2\n      swap1\n      0x01\n      add\n      swap1\n      jump(tag_332)\n    tag_333:\n    tag_329:\n      pop\n      swap1\n      pop\n      tag_334\n      swap2\n      swap1\n      tag_335\n      jump\t// in\n    tag_334:\n      pop\n      swap1\n      jump\t// out\n    tag_335:\n    tag_336:\n      dup1\n      dup3\n      gt\n      iszero\n      tag_337\n      jumpi\n      0x00\n      dup2\n      0x00\n      swap1\n      sstore\n      pop\n      0x01\n      add\n      jump(tag_336)\n    tag_337:\n      pop\n      swap1\n      jump\t// out\n        /* \"#utility.yul\":7:419   */\n    tag_339:\n        /* \"#utility.yul\":85:90   */\n      0x00\n        /* \"#utility.yul\":110:176   */\n      tag_341\n        /* \"#utility.yul\":126:175   */\n      tag_342\n        /* \"#utility.yul\":168:174   */\n      dup5\n        /* \"#utility.yul\":126:175   */\n      tag_343\n      jump\t// in\n    tag_342:\n        /* \"#utility.yul\":110:176   */\n      tag_344\n      jump\t// in\n    tag_341:\n        /* \"#utility.yul\":101:176   */\n      swap1\n      pop\n        /* \"#utility.yul\":199:205   */\n      dup3\n        /* \"#utility.yul\":192:197   */\n      dup2\n        /* \"#utility.yul\":185:206   */\n      mstore\n        /* \"#utility.yul\":237:241   */\n      0x20\n        /* \"#utility.yul\":230:235   */\n      dup2\n        /* \"#utility.yul\":226:242   */\n      add\n        /* \"#utility.yul\":275:278   */\n      dup5\n        /* \"#utility.yul\":266:272   */\n      dup5\n        /* \"#utility.yul\":261:264   */\n      dup5\n        /* \"#utility.yul\":257:273   */\n      add\n        /* \"#utility.yul\":254:279   */\n      gt\n        /* \"#utility.yul\":251:363   */\n      iszero\n      tag_345\n      jumpi\n        /* \"#utility.yul\":282:361   */\n      tag_346\n      tag_347\n      jump\t// in\n    tag_346:\n        /* \"#utility.yul\":251:363   */\n    tag_345:\n        /* \"#utility.yul\":372:413   */\n      tag_348\n        /* \"#utility.yul\":406:412   */\n      dup5\n        /* \"#utility.yul\":401:404   */\n      dup3\n        /* \"#utility.yul\":396:399   */\n      dup6\n        /* \"#utility.yul\":372:413   */\n      tag_349\n      jump\t// in\n    tag_348:\n        /* \"#utility.yul\":91:419   */\n      pop\n        /* \"#utility.yul\":7:419   */\n      swap4\n      swap3\n      pop\n      pop\n      pop\n      jump\t// out\n        /* \"#utility.yul\":425:564   */\n    tag_350:\n        /* \"#utility.yul\":471:476   */\n      0x00\n        /* \"#utility.yul\":509:515   */\n      dup2\n        /* \"#utility.yul\":496:516   */\n      calldataload\n        /* \"#utility.yul\":487:516   */\n      swap1\n      pop\n        /* \"#utility.yul\":525:558   */\n      tag_352\n        /* \"#utility.yul\":552:557   */\n      dup2\n        /* \"#utility.yul\":525:558   */\n      tag_353\n      jump\t// in\n    tag_352:\n        /* \"#utility.yul\":425:564   */\n      swap3\n      swap2\n      pop\n      pop\n      jump\t// out\n        /* \"#utility.yul\":584:924   */\n    tag_354:\n        /* \"#utility.yul\":640:645   */\n      0x00\n        /* \"#utility.yul\":689:692   */\n      dup3\n        /* \"#utility.yul\":682:686   */\n      0x1f\n        /* \"#utility.yul\":674:680   */\n      dup4\n        /* \"#utility.yul\":670:687   */\n      add\n        /* \"#utility.yul\":666:693   */\n      slt\n        /* \"#utility.yul\":656:778   */\n      tag_356\n      jumpi\n        /* \"#utility.yul\":697:776   */\n      tag_357\n      tag_358\n      jump\t// in\n    tag_357:\n        /* \"#utility.yul\":656:778   */\n    tag_356:\n        /* \"#utility.yul\":814:820   */\n      dup2\n        /* \"#utility.yul\":801:821   */\n      calldataload\n        /* \"#utility.yul\":839:918   */\n      tag_359\n        /* \"#utility.yul\":914:917   */\n      dup5\n        /* \"#utility.yul\":906:912   */\n      dup3\n        /* \"#utility.yul\":899:903   */\n      0x20\n        /* \"#utility.yul\":891:897   */\n      dup7\n        /* \"#utility.yul\":887:904   */\n      add\n        /* \"#utility.yul\":839:918   */\n      tag_339\n      jump\t// in\n    tag_359:\n        /* \"#utility.yul\":830:918   */\n      swap2\n      pop\n        /* \"#utility.yul\":646:924   */\n      pop\n        /* \"#utility.yul\":584:924   */\n      swap3\n      swap2\n      pop\n      pop\n      jump\t// out\n        /* \"#utility.yul\":930:1069   */\n    tag_360:\n        /* \"#utility.yul\":976:981   */\n      0x00\n        /* \"#utility.yul\":1014:1020   */\n      dup2\n        /* \"#utility.yul\":1001:1021   */\n      calldataload\n        /* \"#utility.yul\":992:1021   */\n      swap1\n      pop\n        /* \"#utility.yul\":1030:1063   */\n      tag_362\n        /* \"#utility.yul\":1057:1062   */\n      dup2\n        /* \"#utility.yul\":1030:1063   */\n      tag_363\n      jump\t// in\n    tag_362:\n        /* \"#utility.yul\":930:1069   */\n      swap3\n      swap2\n      pop\n      pop\n      jump\t// out\n        /* \"#utility.yul\":1075:1404   */\n    tag_26:\n        /* \"#utility.yul\":1134:1140   */\n      0x00\n        /* \"#utility.yul\":1183:1185   */\n      0x20\n        /* \"#utility.yul\":1171:1180   */\n      dup3\n        /* \"#utility.yul\":1162:1169   */\n      dup5\n        /* \"#utility.yul\":1158:1181   */\n      sub\n        /* \"#utility.yul\":1154:1186   */\n      slt\n        /* \"#utility.yul\":1151:1270   */\n      iszero\n      tag_365\n      jumpi\n        /* \"#utility.yul\":1189:1268   */\n      tag_366\n      tag_367\n      jump\t// in\n    tag_366:\n        /* \"#utility.yul\":1151:1270   */\n    tag_365:\n        /* \"#utility.yul\":1309:1310   */\n      0x00\n        /* \"#utility.yul\":1334:1387   */\n      tag_368\n        /* \"#utility.yul\":1379:1386   */\n      dup5\n        /* \"#utility.yul\":1370:1376   */\n      dup3\n        /* \"#utility.yul\":1359:1368   */\n      dup6\n        /* \"#utility.yul\":1355:1377   */\n      add\n        /* \"#utility.yul\":1334:1387   */\n      tag_350\n      jump\t// in\n    tag_368:\n        /* \"#utility.yul\":1324:1387   */\n      swap2\n      pop\n        /* \"#utility.yul\":1280:1397   */\n      pop\n        /* \"#utility.yul\":1075:1404   */\n      swap3\n      swap2\n      pop\n      pop\n      jump\t// out\n        /* \"#utility.yul\":1410:2389   */\n    tag_19:\n        /* \"#utility.yul\":1507:1513   */\n      0x00\n        /* \"#utility.yul\":1515:1521   */\n      dup1\n        /* \"#utility.yul\":1523:1529   */\n      0x00\n        /* \"#utility.yul\":1572:1574   */\n      0x60\n        /* \"#utility.yul\":1560:1569   */\n      dup5\n        /* \"#utility.yul\":1551:1558   */\n      dup7\n        /* \"#utility.yul\":1547:1570   */\n      sub\n        /* \"#utility.yul\":1543:1575   */\n      slt\n        /* \"#utility.yul\":1540:1659   */\n      iszero\n      tag_370\n      jumpi\n        /* \"#utility.yul\":1578:1657   */\n      tag_371\n      tag_367\n      jump\t// in\n    tag_371:\n        /* \"#utility.yul\":1540:1659   */\n    tag_370:\n        /* \"#utility.yul\":1698:1699   */\n      0x00\n        /* \"#utility.yul\":1723:1776   */\n      tag_372\n        /* \"#utility.yul\":1768:1775   */\n      dup7\n        /* \"#utility.yul\":1759:1765   */\n      dup3\n        /* \"#utility.yul\":1748:1757   */\n      dup8\n        /* \"#utility.yul\":1744:1766   */\n      add\n        /* \"#utility.yul\":1723:1776   */\n      tag_350\n      jump\t// in\n    tag_372:\n        /* \"#utility.yul\":1713:1776   */\n      swap4\n      pop\n        /* \"#utility.yul\":1669:1786   */\n      pop\n        /* \"#utility.yul\":1853:1855   */\n      0x20\n        /* \"#utility.yul\":1842:1851   */\n      dup5\n        /* \"#utility.yul\":1838:1856   */\n      add\n        /* \"#utility.yul\":1825:1857   */\n      calldataload\n        /* \"#utility.yul\":1884:1902   */\n      0xffffffffffffffff\n        /* \"#utility.yul\":1876:1882   */\n      dup2\n        /* \"#utility.yul\":1873:1903   */\n      gt\n        /* \"#utility.yul\":1870:1987   */\n      iszero\n      tag_373\n      jumpi\n        /* \"#utility.yul\":1906:1985   */\n      tag_374\n      tag_375\n      jump\t// in\n    tag_374:\n        /* \"#utility.yul\":1870:1987   */\n    tag_373:\n        /* \"#utility.yul\":2011:2074   */\n      tag_376\n        /* \"#utility.yul\":2066:2073   */\n      dup7\n        /* \"#utility.yul\":2057:2063   */\n      dup3\n        /* \"#utility.yul\":2046:2055   */\n      dup8\n        /* \"#utility.yul\":2042:2064   */\n      add\n        /* \"#utility.yul\":2011:2074   */\n      tag_354\n      jump\t// in\n    tag_376:\n        /* \"#utility.yul\":2001:2074   */\n      swap3\n      pop\n        /* \"#utility.yul\":1796:2084   */\n      pop\n        /* \"#utility.yul\":2151:2153   */\n      0x40\n        /* \"#utility.yul\":2140:2149   */\n      dup5\n        /* \"#utility.yul\":2136:2154   */\n      add\n        /* \"#utility.yul\":2123:2155   */\n      calldataload\n        /* \"#utility.yul\":2182:2200   */\n      0xffffffffffffffff\n        /* \"#utility.yul\":2174:2180   */\n      dup2\n        /* \"#utility.yul\":2171:2201   */\n      gt\n        /* \"#utility.yul\":2168:2285   */\n      iszero\n      tag_377\n      jumpi\n        /* \"#utility.yul\":2204:2283   */\n      tag_378\n      tag_375\n      jump\t// in\n    tag_378:\n        /* \"#utility.yul\":2168:2285   */\n    tag_377:\n        /* \"#utility.yul\":2309:2372   */\n      tag_379\n        /* \"#utility.yul\":2364:2371   */\n      dup7\n        /* \"#utility.yul\":2355:2361   */\n      dup3\n        /* \"#utility.yul\":2344:2353   */\n      dup8\n        /* \"#utility.yul\":2340:2362   */\n      add\n        /* \"#utility.yul\":2309:2372   */\n      tag_354\n      jump\t// in\n    tag_379:\n        /* \"#utility.yul\":2299:2372   */\n      swap2\n      pop\n        /* \"#utility.yul\":2094:2382   */\n      pop\n        /* \"#utility.yul\":1410:2389   */\n      swap3\n      pop\n      swap3\n      pop\n      swap3\n      jump\t// out\n        /* \"#utility.yul\":2395:3554   */\n    tag_33:\n        /* \"#utility.yul\":2502:2508   */\n      0x00\n        /* \"#utility.yul\":2510:2516   */\n      dup1\n        /* \"#utility.yul\":2518:2524   */\n      0x00\n        /* \"#utility.yul\":2567:2569   */\n      0x60\n        /* \"#utility.yul\":2555:2564   */\n      dup5\n        /* \"#utility.yul\":2546:2553   */\n      dup7\n        /* \"#utility.yul\":2542:2565   */\n      sub\n        /* \"#utility.yul\":2538:2570   */\n      slt\n        /* \"#utility.yul\":2535:2654   */\n      iszero\n      tag_381\n      jumpi\n        /* \"#utility.yul\":2573:2652   */\n      tag_382\n      tag_367\n      jump\t// in\n    tag_382:\n        /* \"#utility.yul\":2535:2654   */\n    tag_381:\n        /* \"#utility.yul\":2721:2722   */\n      0x00\n        /* \"#utility.yul\":2710:2719   */\n      dup5\n        /* \"#utility.yul\":2706:2723   */\n      add\n        /* \"#utility.yul\":2693:2724   */\n      calldataload\n        /* \"#utility.yul\":2751:2769   */\n      0xffffffffffffffff\n        /* \"#utility.yul\":2743:2749   */\n      dup2\n        /* \"#utility.yul\":2740:2770   */\n      gt\n        /* \"#utility.yul\":2737:2854   */\n      iszero\n      tag_383\n      jumpi\n        /* \"#utility.yul\":2773:2852   */\n      tag_384\n      tag_375\n      jump\t// in\n    tag_384:\n        /* \"#utility.yul\":2737:2854   */\n    tag_383:\n        /* \"#utility.yul\":2878:2941   */\n      tag_385\n        /* \"#utility.yul\":2933:2940   */\n      dup7\n        /* \"#utility.yul\":2924:2930   */\n      dup3\n        /* \"#utility.yul\":2913:2922   */\n      dup8\n        /* \"#utility.yul\":2909:2931   */\n      add\n        /* \"#utility.yul\":2878:2941   */\n      tag_354\n      jump\t// in\n    tag_385:\n        /* \"#utility.yul\":2868:2941   */\n      swap4\n      pop\n        /* \"#utility.yul\":2664:2951   */\n      pop\n        /* \"#utility.yul\":3018:3020   */\n      0x20\n        /* \"#utility.yul\":3007:3016   */\n      dup5\n        /* \"#utility.yul\":3003:3021   */\n      add\n        /* \"#utility.yul\":2990:3022   */\n      calldataload\n        /* \"#utility.yul\":3049:3067   */\n      0xffffffffffffffff\n        /* \"#utility.yul\":3041:3047   */\n      dup2\n        /* \"#utility.yul\":3038:3068   */\n      gt\n        /* \"#utility.yul\":3035:3152   */\n      iszero\n      tag_386\n      jumpi\n        /* \"#utility.yul\":3071:3150   */\n      tag_387\n      tag_375\n      jump\t// in\n    tag_387:\n        /* \"#utility.yul\":3035:3152   */\n    tag_386:\n        /* \"#utility.yul\":3176:3239   */\n      tag_388\n        /* \"#utility.yul\":3231:3238   */\n      dup7\n        /* \"#utility.yul\":3222:3228   */\n      dup3\n        /* \"#utility.yul\":3211:3220   */\n      dup8\n        /* \"#utility.yul\":3207:3229   */\n      add\n        /* \"#utility.yul\":3176:3239   */\n      tag_354\n      jump\t// in\n    tag_388:\n        /* \"#utility.yul\":3166:3239   */\n      swap3\n      pop\n        /* \"#utility.yul\":2961:3249   */\n      pop\n        /* \"#utility.yul\":3316:3318   */\n      0x40\n        /* \"#utility.yul\":3305:3314   */\n      dup5\n        /* \"#utility.yul\":3301:3319   */\n      add\n        /* \"#utility.yul\":3288:3320   */\n      calldataload\n        /* \"#utility.yul\":3347:3365   */\n      0xffffffffffffffff\n        /* \"#utility.yul\":3339:3345   */\n      dup2\n        /* \"#utility.yul\":3336:3366   */\n      gt\n        /* \"#utility.yul\":3333:3450   */\n      iszero\n      tag_389\n      jumpi\n        /* \"#utility.yul\":3369:3448   */\n      tag_390\n      tag_375\n      jump\t// in\n    tag_390:\n        /* \"#utility.yul\":3333:3450   */\n    tag_389:\n        /* \"#utility.yul\":3474:3537   */\n      tag_391\n        /* \"#utility.yul\":3529:3536   */\n      dup7\n        /* \"#utility.yul\":3520:3526   */\n      dup3\n        /* \"#utility.yul\":3509:3518   */\n      dup8\n        /* \"#utility.yul\":3505:3527   */\n      add\n        /* \"#utility.yul\":3474:3537   */\n      tag_354\n      jump\t// in\n    tag_391:\n        /* \"#utility.yul\":3464:3537   */\n      swap2\n      pop\n        /* \"#utility.yul\":3259:3547   */\n      pop\n        /* \"#utility.yul\":2395:3554   */\n      swap3\n      pop\n      swap3\n      pop\n      swap3\n      jump\t// out\n        /* \"#utility.yul\":3560:3889   */\n    tag_42:\n        /* \"#utility.yul\":3619:3625   */\n      0x00\n        /* \"#utility.yul\":3668:3670   */\n      0x20\n        /* \"#utility.yul\":3656:3665   */\n      dup3\n        /* \"#utility.yul\":3647:3654   */\n      dup5\n        /* \"#utility.yul\":3643:3666   */\n      sub\n        /* \"#utility.yul\":3639:3671   */\n      slt\n        /* \"#utility.yul\":3636:3755   */\n      iszero\n      tag_393\n      jumpi\n        /* \"#utility.yul\":3674:3753   */\n      tag_394\n      tag_367\n      jump\t// in\n    tag_394:\n        /* \"#utility.yul\":3636:3755   */\n    tag_393:\n        /* \"#utility.yul\":3794:3795   */\n      0x00\n        /* \"#utility.yul\":3819:3872   */\n      tag_395\n        /* \"#utility.yul\":3864:3871   */\n      dup5\n        /* \"#utility.yul\":3855:3861   */\n      dup3\n        /* \"#utility.yul\":3844:3853   */\n      dup6\n        /* \"#utility.yul\":3840:3862   */\n      add\n        /* \"#utility.yul\":3819:3872   */\n      tag_360\n      jump\t// in\n    tag_395:\n        /* \"#utility.yul\":3809:3872   */\n      swap2\n      pop\n        /* \"#utility.yul\":3765:3882   */\n      pop\n        /* \"#utility.yul\":3560:3889   */\n      swap3\n      swap2\n      pop\n      pop\n      jump\t// out\n        /* \"#utility.yul\":3895:4874   */\n    tag_48:\n        /* \"#utility.yul\":3992:3998   */\n      0x00\n        /* \"#utility.yul\":4000:4006   */\n      dup1\n        /* \"#utility.yul\":4008:4014   */\n      0x00\n        /* \"#utility.yul\":4057:4059   */\n      0x60\n        /* \"#utility.yul\":4045:4054   */\n      dup5\n        /* \"#utility.yul\":4036:4043   */\n      dup7\n        /* \"#utility.yul\":4032:4055   */\n      sub\n        /* \"#utility.yul\":4028:4060   */\n      slt\n        /* \"#utility.yul\":4025:4144   */\n      iszero\n      tag_397\n      jumpi\n        /* \"#utility.yul\":4063:4142   */\n      tag_398\n      tag_367\n      jump\t// in\n    tag_398:\n        /* \"#utility.yul\":4025:4144   */\n    tag_397:\n        /* \"#utility.yul\":4183:4184   */\n      0x00\n        /* \"#utility.yul\":4208:4261   */\n      tag_399\n        /* \"#utility.yul\":4253:4260   */\n      dup7\n        /* \"#utility.yul\":4244:4250   */\n      dup3\n        /* \"#utility.yul\":4233:4242   */\n      dup8\n        /* \"#utility.yul\":4229:4251   */\n      add\n        /* \"#utility.yul\":4208:4261   */\n      tag_360\n      jump\t// in\n    tag_399:\n        /* \"#utility.yul\":4198:4261   */\n      swap4\n      pop\n        /* \"#utility.yul\":4154:4271   */\n      pop\n        /* \"#utility.yul\":4338:4340   */\n      0x20\n        /* \"#utility.yul\":4327:4336   */\n      dup5\n        /* \"#utility.yul\":4323:4341   */\n      add\n        /* \"#utility.yul\":4310:4342   */\n      calldataload\n        /* \"#utility.yul\":4369:4387   */\n      0xffffffffffffffff\n        /* \"#utility.yul\":4361:4367   */\n      dup2\n        /* \"#utility.yul\":4358:4388   */\n      gt\n        /* \"#utility.yul\":4355:4472   */\n      iszero\n      tag_400\n      jumpi\n        /* \"#utility.yul\":4391:4470   */\n      tag_401\n      tag_375\n      jump\t// in\n    tag_401:\n        /* \"#utility.yul\":4355:4472   */\n    tag_400:\n        /* \"#utility.yul\":4496:4559   */\n      tag_402\n        /* \"#utility.yul\":4551:4558   */\n      dup7\n        /* \"#utility.yul\":4542:4548   */\n      dup3\n        /* \"#utility.yul\":4531:4540   */\n      dup8\n        /* \"#utility.yul\":4527:4549   */\n      add\n        /* \"#utility.yul\":4496:4559   */\n      tag_354\n      jump\t// in\n    tag_402:\n        /* \"#utility.yul\":4486:4559   */\n      swap3\n      pop\n        /* \"#utility.yul\":4281:4569   */\n      pop\n        /* \"#utility.yul\":4636:4638   */\n      0x40\n        /* \"#utility.yul\":4625:4634   */\n      dup5\n        /* \"#utility.yul\":4621:4639   */\n      add\n        /* \"#utility.yul\":4608:4640   */\n      calldataload\n        /* \"#utility.yul\":4667:4685   */\n      0xffffffffffffffff\n        /* \"#utility.yul\":4659:4665   */\n      dup2\n        /* \"#utility.yul\":4656:4686   */\n      gt\n        /* \"#utility.yul\":4653:4770   */\n      iszero\n      tag_403\n      jumpi\n        /* \"#utility.yul\":4689:4768   */\n      tag_404\n      tag_375\n      jump\t// in\n    tag_404:\n        /* \"#utility.yul\":4653:4770   */\n    tag_403:\n        /* \"#utility.yul\":4794:4857   */\n      tag_405\n        /* \"#utility.yul\":4849:4856   */\n      dup7\n        /* \"#utility.yul\":4840:4846   */\n      dup3\n        /* \"#utility.yul\":4829:4838   */\n      dup8\n        /* \"#utility.yul\":4825:4847   */\n      add\n        /* \"#utility.yul\":4794:4857   */\n      tag_354\n      jump\t// in\n    tag_405:\n        /* \"#utility.yul\":4784:4857   */\n      swap2\n      pop\n        /* \"#utility.yul\":4579:4867   */\n      pop\n        /* \"#utility.yul\":3895:4874   */\n      swap3\n      pop\n      swap3\n      pop\n      swap3\n      jump\t// out\n        /* \"#utility.yul\":4880:4998   */\n    tag_406:\n        /* \"#utility.yul\":4967:4991   */\n      tag_408\n        /* \"#utility.yul\":4985:4990   */\n      dup2\n        /* \"#utility.yul\":4967:4991   */\n      tag_409\n      jump\t// in\n    tag_408:\n        /* \"#utility.yul\":4962:4965   */\n      dup3\n        /* \"#utility.yul\":4955:4992   */\n      mstore\n        /* \"#utility.yul\":4880:4998   */\n      pop\n      pop\n      jump\t// out\n        /* \"#utility.yul\":5004:5368   */\n    tag_410:\n        /* \"#utility.yul\":5092:5095   */\n      0x00\n        /* \"#utility.yul\":5120:5159   */\n      tag_412\n        /* \"#utility.yul\":5153:5158   */\n      dup3\n        /* \"#utility.yul\":5120:5159   */\n      tag_413\n      jump\t// in\n    tag_412:\n        /* \"#utility.yul\":5175:5246   */\n      tag_414\n        /* \"#utility.yul\":5239:5245   */\n      dup2\n        /* \"#utility.yul\":5234:5237   */\n      dup6\n        /* \"#utility.yul\":5175:5246   */\n      tag_415\n      jump\t// in\n    tag_414:\n        /* \"#utility.yul\":5168:5246   */\n      swap4\n      pop\n        /* \"#utility.yul\":5255:5307   */\n      tag_416\n        /* \"#utility.yul\":5300:5306   */\n      dup2\n        /* \"#utility.yul\":5295:5298   */\n      dup6\n        /* \"#utility.yul\":5288:5292   */\n      0x20\n        /* \"#utility.yul\":5281:5286   */\n      dup7\n        /* \"#utility.yul\":5277:5293   */\n      add\n        /* \"#utility.yul\":5255:5307   */\n      tag_417\n      jump\t// in\n    tag_416:\n        /* \"#utility.yul\":5332:5361   */\n      tag_418\n        /* \"#utility.yul\":5354:5360   */\n      dup2\n        /* \"#utility.yul\":5332:5361   */\n      tag_419\n      jump\t// in\n    tag_418:\n        /* \"#utility.yul\":5327:5330   */\n      dup5\n        /* \"#utility.yul\":5323:5362   */\n      add\n        /* \"#utility.yul\":5316:5362   */\n      swap2\n      pop\n        /* \"#utility.yul\":5096:5368   */\n      pop\n        /* \"#utility.yul\":5004:5368   */\n      swap3\n      swap2\n      pop\n      pop\n      jump\t// out\n        /* \"#utility.yul\":5398:6200   */\n    tag_420:\n        /* \"#utility.yul\":5483:5486   */\n      0x00\n        /* \"#utility.yul\":5520:5525   */\n      dup2\n        /* \"#utility.yul\":5514:5526   */\n      sload\n        /* \"#utility.yul\":5549:5585   */\n      tag_422\n        /* \"#utility.yul\":5575:5584   */\n      dup2\n        /* \"#utility.yul\":5549:5585   */\n      tag_269\n      jump\t// in\n    tag_422:\n        /* \"#utility.yul\":5601:5672   */\n      tag_423\n        /* \"#utility.yul\":5665:5671   */\n      dup2\n        /* \"#utility.yul\":5660:5663   */\n      dup7\n        /* \"#utility.yul\":5601:5672   */\n      tag_415\n      jump\t// in\n    tag_423:\n        /* \"#utility.yul\":5594:5672   */\n      swap5\n      pop\n        /* \"#utility.yul\":5703:5704   */\n      0x01\n        /* \"#utility.yul\":5692:5701   */\n      dup3\n        /* \"#utility.yul\":5688:5705   */\n      and\n        /* \"#utility.yul\":5719:5720   */\n      0x00\n        /* \"#utility.yul\":5714:5849   */\n      dup2\n      eq\n      tag_425\n      jumpi\n        /* \"#utility.yul\":5863:5864   */\n      0x01\n        /* \"#utility.yul\":5858:6194   */\n      dup2\n      eq\n      tag_426\n      jumpi\n        /* \"#utility.yul\":5681:6194   */\n      jump(tag_424)\n        /* \"#utility.yul\":5714:5849   */\n    tag_425:\n        /* \"#utility.yul\":5798:5802   */\n      0xff\n        /* \"#utility.yul\":5794:5803   */\n      not\n        /* \"#utility.yul\":5783:5792   */\n      dup4\n        /* \"#utility.yul\":5779:5804   */\n      and\n        /* \"#utility.yul\":5774:5777   */\n      dup7\n        /* \"#utility.yul\":5767:5805   */\n      mstore\n        /* \"#utility.yul\":5834:5838   */\n      0x20\n        /* \"#utility.yul\":5829:5832   */\n      dup7\n        /* \"#utility.yul\":5825:5839   */\n      add\n        /* \"#utility.yul\":5818:5839   */\n      swap4\n      pop\n        /* \"#utility.yul\":5714:5849   */\n      jump(tag_424)\n        /* \"#utility.yul\":5858:6194   */\n    tag_426:\n        /* \"#utility.yul\":5925:5963   */\n      tag_427\n        /* \"#utility.yul\":5957:5962   */\n      dup6\n        /* \"#utility.yul\":5925:5963   */\n      tag_428\n      jump\t// in\n    tag_427:\n        /* \"#utility.yul\":5985:5986   */\n      0x00\n        /* \"#utility.yul\":5999:6153   */\n    tag_429:\n        /* \"#utility.yul\":6013:6019   */\n      dup4\n        /* \"#utility.yul\":6010:6011   */\n      dup2\n        /* \"#utility.yul\":6007:6020   */\n      lt\n        /* \"#utility.yul\":5999:6153   */\n      iszero\n      tag_431\n      jumpi\n        /* \"#utility.yul\":6087:6094   */\n      dup2\n        /* \"#utility.yul\":6081:6095   */\n      sload\n        /* \"#utility.yul\":6077:6078   */\n      dup2\n        /* \"#utility.yul\":6072:6075   */\n      dup10\n        /* \"#utility.yul\":6068:6079   */\n      add\n        /* \"#utility.yul\":6061:6096   */\n      mstore\n        /* \"#utility.yul\":6137:6138   */\n      0x01\n        /* \"#utility.yul\":6128:6135   */\n      dup3\n        /* \"#utility.yul\":6124:6139   */\n      add\n        /* \"#utility.yul\":6113:6139   */\n      swap2\n      pop\n        /* \"#utility.yul\":6035:6039   */\n      0x20\n        /* \"#utility.yul\":6032:6033   */\n      dup2\n        /* \"#utility.yul\":6028:6040   */\n      add\n        /* \"#utility.yul\":6023:6040   */\n      swap1\n      pop\n        /* \"#utility.yul\":5999:6153   */\n      jump(tag_429)\n    tag_431:\n        /* \"#utility.yul\":6182:6183   */\n      dup1\n        /* \"#utility.yul\":6177:6180   */\n      dup9\n        /* \"#utility.yul\":6173:6184   */\n      add\n        /* \"#utility.yul\":6166:6184   */\n      swap6\n      pop\n        /* \"#utility.yul\":5865:6194   */\n      pop\n      pop\n        /* \"#utility.yul\":5681:6194   */\n    tag_424:\n      pop\n        /* \"#utility.yul\":5487:6200   */\n      pop\n      pop\n        /* \"#utility.yul\":5398:6200   */\n      swap3\n      swap2\n      pop\n      pop\n      jump\t// out\n        /* \"#utility.yul\":6206:6572   */\n    tag_432:\n        /* \"#utility.yul\":6348:6351   */\n      0x00\n        /* \"#utility.yul\":6369:6436   */\n      tag_434\n        /* \"#utility.yul\":6433:6435   */\n      0x28\n        /* \"#utility.yul\":6428:6431   */\n      dup4\n        /* \"#utility.yul\":6369:6436   */\n      tag_415\n      jump\t// in\n    tag_434:\n        /* \"#utility.yul\":6362:6436   */\n      swap2\n      pop\n        /* \"#utility.yul\":6445:6538   */\n      tag_435\n        /* \"#utility.yul\":6534:6537   */\n      dup3\n        /* \"#utility.yul\":6445:6538   */\n      tag_436\n      jump\t// in\n    tag_435:\n        /* \"#utility.yul\":6563:6565   */\n      0x40\n        /* \"#utility.yul\":6558:6561   */\n      dup3\n        /* \"#utility.yul\":6554:6566   */\n      add\n        /* \"#utility.yul\":6547:6566   */\n      swap1\n      pop\n        /* \"#utility.yul\":6206:6572   */\n      swap2\n      swap1\n      pop\n      jump\t// out\n        /* \"#utility.yul\":6578:6944   */\n    tag_437:\n        /* \"#utility.yul\":6720:6723   */\n      0x00\n        /* \"#utility.yul\":6741:6808   */\n      tag_439\n        /* \"#utility.yul\":6805:6807   */\n      0x26\n        /* \"#utility.yul\":6800:6803   */\n      dup4\n        /* \"#utility.yul\":6741:6808   */\n      tag_415\n      jump\t// in\n    tag_439:\n        /* \"#utility.yul\":6734:6808   */\n      swap2\n      pop\n        /* \"#utility.yul\":6817:6910   */\n      tag_440\n        /* \"#utility.yul\":6906:6909   */\n      dup3\n        /* \"#utility.yul\":6817:6910   */\n      tag_441\n      jump\t// in\n    tag_440:\n        /* \"#utility.yul\":6935:6937   */\n      0x40\n        /* \"#utility.yul\":6930:6933   */\n      dup3\n        /* \"#utility.yul\":6926:6938   */\n      add\n        /* \"#utility.yul\":6919:6938   */\n      swap1\n      pop\n        /* \"#utility.yul\":6578:6944   */\n      swap2\n      swap1\n      pop\n      jump\t// out\n        /* \"#utility.yul\":6950:7316   */\n    tag_442:\n        /* \"#utility.yul\":7092:7095   */\n      0x00\n        /* \"#utility.yul\":7113:7180   */\n      tag_444\n        /* \"#utility.yul\":7177:7179   */\n      0x32\n        /* \"#utility.yul\":7172:7175   */\n      dup4\n        /* \"#utility.yul\":7113:7180   */\n      tag_415\n      jump\t// in\n    tag_444:\n        /* \"#utility.yul\":7106:7180   */\n      swap2\n      pop\n        /* \"#utility.yul\":7189:7282   */\n      tag_445\n        /* \"#utility.yul\":7278:7281   */\n      dup3\n        /* \"#utility.yul\":7189:7282   */\n      tag_446\n      jump\t// in\n    tag_445:\n        /* \"#utility.yul\":7307:7309   */\n      0x40\n        /* \"#utility.yul\":7302:7305   */\n      dup3\n        /* \"#utility.yul\":7298:7310   */\n      add\n        /* \"#utility.yul\":7291:7310   */\n      swap1\n      pop\n        /* \"#utility.yul\":6950:7316   */\n      swap2\n      swap1\n      pop\n      jump\t// out\n        /* \"#utility.yul\":7322:7688   */\n    tag_447:\n        /* \"#utility.yul\":7464:7467   */\n      0x00\n        /* \"#utility.yul\":7485:7552   */\n      tag_449\n        /* \"#utility.yul\":7549:7551   */\n      0x20\n        /* \"#utility.yul\":7544:7547   */\n      dup4\n        /* \"#utility.yul\":7485:7552   */\n      tag_415\n      jump\t// in\n    tag_449:\n        /* \"#utility.yul\":7478:7552   */\n      swap2\n      pop\n        /* \"#utility.yul\":7561:7654   */\n      tag_450\n        /* \"#utility.yul\":7650:7653   */\n      dup3\n        /* \"#utility.yul\":7561:7654   */\n      tag_451\n      jump\t// in\n    tag_450:\n        /* \"#utility.yul\":7679:7681   */\n      0x20\n        /* \"#utility.yul\":7674:7677   */\n      dup3\n        /* \"#utility.yul\":7670:7682   */\n      add\n        /* \"#utility.yul\":7663:7682   */\n      swap1\n      pop\n        /* \"#utility.yul\":7322:7688   */\n      swap2\n      swap1\n      pop\n      jump\t// out\n        /* \"#utility.yul\":7694:8060   */\n    tag_452:\n        /* \"#utility.yul\":7836:7839   */\n      0x00\n        /* \"#utility.yul\":7857:7924   */\n      tag_454\n        /* \"#utility.yul\":7921:7923   */\n      0x15\n        /* \"#utility.yul\":7916:7919   */\n      dup4\n        /* \"#utility.yul\":7857:7924   */\n      tag_415\n      jump\t// in\n    tag_454:\n        /* \"#utility.yul\":7850:7924   */\n      swap2\n      pop\n        /* \"#utility.yul\":7933:8026   */\n      tag_455\n        /* \"#utility.yul\":8022:8025   */\n      dup3\n        /* \"#utility.yul\":7933:8026   */\n      tag_456\n      jump\t// in\n    tag_455:\n        /* \"#utility.yul\":8051:8053   */\n      0x20\n        /* \"#utility.yul\":8046:8049   */\n      dup3\n        /* \"#utility.yul\":8042:8054   */\n      add\n        /* \"#utility.yul\":8035:8054   */\n      swap1\n      pop\n        /* \"#utility.yul\":7694:8060   */\n      swap2\n      swap1\n      pop\n      jump\t// out\n        /* \"#utility.yul\":8066:8184   */\n    tag_457:\n        /* \"#utility.yul\":8153:8177   */\n      tag_459\n        /* \"#utility.yul\":8171:8176   */\n      dup2\n        /* \"#utility.yul\":8153:8177   */\n      tag_460\n      jump\t// in\n    tag_459:\n        /* \"#utility.yul\":8148:8151   */\n      dup3\n        /* \"#utility.yul\":8141:8178   */\n      mstore\n        /* \"#utility.yul\":8066:8184   */\n      pop\n      pop\n      jump\t// out\n        /* \"#utility.yul\":8190:8347   */\n    tag_461:\n        /* \"#utility.yul\":8295:8340   */\n      tag_463\n        /* \"#utility.yul\":8315:8339   */\n      tag_464\n        /* \"#utility.yul\":8333:8338   */\n      dup3\n        /* \"#utility.yul\":8315:8339   */\n      tag_460\n      jump\t// in\n    tag_464:\n        /* \"#utility.yul\":8295:8340   */\n      tag_465\n      jump\t// in\n    tag_463:\n        /* \"#utility.yul\":8290:8293   */\n      dup3\n        /* \"#utility.yul\":8283:8341   */\n      mstore\n        /* \"#utility.yul\":8190:8347   */\n      pop\n      pop\n      jump\t// out\n        /* \"#utility.yul\":8353:8468   */\n    tag_466:\n        /* \"#utility.yul\":8438:8461   */\n      tag_468\n        /* \"#utility.yul\":8455:8460   */\n      dup2\n        /* \"#utility.yul\":8438:8461   */\n      tag_469\n      jump\t// in\n    tag_468:\n        /* \"#utility.yul\":8433:8436   */\n      dup3\n        /* \"#utility.yul\":8426:8462   */\n      mstore\n        /* \"#utility.yul\":8353:8468   */\n      pop\n      pop\n      jump\t// out\n        /* \"#utility.yul\":8474:9012   */\n    tag_141:\n        /* \"#utility.yul\":8642:8645   */\n      0x00\n        /* \"#utility.yul\":8657:8732   */\n      tag_471\n        /* \"#utility.yul\":8728:8731   */\n      dup3\n        /* \"#utility.yul\":8719:8725   */\n      dup7\n        /* \"#utility.yul\":8657:8732   */\n      tag_461\n      jump\t// in\n    tag_471:\n        /* \"#utility.yul\":8757:8759   */\n      0x20\n        /* \"#utility.yul\":8752:8755   */\n      dup3\n        /* \"#utility.yul\":8748:8760   */\n      add\n        /* \"#utility.yul\":8741:8760   */\n      swap2\n      pop\n        /* \"#utility.yul\":8770:8845   */\n      tag_472\n        /* \"#utility.yul\":8841:8844   */\n      dup3\n        /* \"#utility.yul\":8832:8838   */\n      dup6\n        /* \"#utility.yul\":8770:8845   */\n      tag_461\n      jump\t// in\n    tag_472:\n        /* \"#utility.yul\":8870:8872   */\n      0x20\n        /* \"#utility.yul\":8865:8868   */\n      dup3\n        /* \"#utility.yul\":8861:8873   */\n      add\n        /* \"#utility.yul\":8854:8873   */\n      swap2\n      pop\n        /* \"#utility.yul\":8883:8958   */\n      tag_473\n        /* \"#utility.yul\":8954:8957   */\n      dup3\n        /* \"#utility.yul\":8945:8951   */\n      dup5\n        /* \"#utility.yul\":8883:8958   */\n      tag_461\n      jump\t// in\n    tag_473:\n        /* \"#utility.yul\":8983:8985   */\n      0x20\n        /* \"#utility.yul\":8978:8981   */\n      dup3\n        /* \"#utility.yul\":8974:8986   */\n      add\n        /* \"#utility.yul\":8967:8986   */\n      swap2\n      pop\n        /* \"#utility.yul\":9003:9006   */\n      dup2\n        /* \"#utility.yul\":8996:9006   */\n      swap1\n      pop\n        /* \"#utility.yul\":8474:9012   */\n      swap5\n      swap4\n      pop\n      pop\n      pop\n      pop\n      jump\t// out\n        /* \"#utility.yul\":9018:9240   */\n    tag_58:\n        /* \"#utility.yul\":9111:9115   */\n      0x00\n        /* \"#utility.yul\":9149:9151   */\n      0x20\n        /* \"#utility.yul\":9138:9147   */\n      dup3\n        /* \"#utility.yul\":9134:9152   */\n      add\n        /* \"#utility.yul\":9126:9152   */\n      swap1\n      pop\n        /* \"#utility.yul\":9162:9233   */\n      tag_475\n        /* \"#utility.yul\":9230:9231   */\n      0x00\n        /* \"#utility.yul\":9219:9228   */\n      dup4\n        /* \"#utility.yul\":9215:9232   */\n      add\n        /* \"#utility.yul\":9206:9212   */\n      dup5\n        /* \"#utility.yul\":9162:9233   */\n      tag_406\n      jump\t// in\n    tag_475:\n        /* \"#utility.yul\":9018:9240   */\n      swap3\n      swap2\n      pop\n      pop\n      jump\t// out\n        /* \"#utility.yul\":9246:10512   */\n    tag_72:\n        /* \"#utility.yul\":9593:9597   */\n      0x00\n        /* \"#utility.yul\":9631:9634   */\n      0x0100\n        /* \"#utility.yul\":9620:9629   */\n      dup3\n        /* \"#utility.yul\":9616:9635   */\n      add\n        /* \"#utility.yul\":9608:9635   */\n      swap1\n      pop\n        /* \"#utility.yul\":9645:9716   */\n      tag_477\n        /* \"#utility.yul\":9713:9714   */\n      0x00\n        /* \"#utility.yul\":9702:9711   */\n      dup4\n        /* \"#utility.yul\":9698:9715   */\n      add\n        /* \"#utility.yul\":9689:9695   */\n      dup12\n        /* \"#utility.yul\":9645:9716   */\n      tag_406\n      jump\t// in\n    tag_477:\n        /* \"#utility.yul\":9763:9772   */\n      dup2\n        /* \"#utility.yul\":9757:9761   */\n      dup2\n        /* \"#utility.yul\":9753:9773   */\n      sub\n        /* \"#utility.yul\":9748:9750   */\n      0x20\n        /* \"#utility.yul\":9737:9746   */\n      dup4\n        /* \"#utility.yul\":9733:9751   */\n      add\n        /* \"#utility.yul\":9726:9774   */\n      mstore\n        /* \"#utility.yul\":9791:9869   */\n      tag_478\n        /* \"#utility.yul\":9864:9868   */\n      dup2\n        /* \"#utility.yul\":9855:9861   */\n      dup11\n        /* \"#utility.yul\":9791:9869   */\n      tag_410\n      jump\t// in\n    tag_478:\n        /* \"#utility.yul\":9783:9869   */\n      swap1\n      pop\n        /* \"#utility.yul\":9916:9925   */\n      dup2\n        /* \"#utility.yul\":9910:9914   */\n      dup2\n        /* \"#utility.yul\":9906:9926   */\n      sub\n        /* \"#utility.yul\":9901:9903   */\n      0x40\n        /* \"#utility.yul\":9890:9899   */\n      dup4\n        /* \"#utility.yul\":9886:9904   */\n      add\n        /* \"#utility.yul\":9879:9927   */\n      mstore\n        /* \"#utility.yul\":9944:10022   */\n      tag_479\n        /* \"#utility.yul\":10017:10021   */\n      dup2\n        /* \"#utility.yul\":10008:10014   */\n      dup10\n        /* \"#utility.yul\":9944:10022   */\n      tag_410\n      jump\t// in\n    tag_479:\n        /* \"#utility.yul\":9936:10022   */\n      swap1\n      pop\n        /* \"#utility.yul\":10069:10078   */\n      dup2\n        /* \"#utility.yul\":10063:10067   */\n      dup2\n        /* \"#utility.yul\":10059:10079   */\n      sub\n        /* \"#utility.yul\":10054:10056   */\n      0x60\n        /* \"#utility.yul\":10043:10052   */\n      dup4\n        /* \"#utility.yul\":10039:10057   */\n      add\n        /* \"#utility.yul\":10032:10080   */\n      mstore\n        /* \"#utility.yul\":10097:10175   */\n      tag_480\n        /* \"#utility.yul\":10170:10174   */\n      dup2\n        /* \"#utility.yul\":10161:10167   */\n      dup9\n        /* \"#utility.yul\":10097:10175   */\n      tag_410\n      jump\t// in\n    tag_480:\n        /* \"#utility.yul\":10089:10175   */\n      swap1\n      pop\n        /* \"#utility.yul\":10185:10258   */\n      tag_481\n        /* \"#utility.yul\":10253:10256   */\n      0x80\n        /* \"#utility.yul\":10242:10251   */\n      dup4\n        /* \"#utility.yul\":10238:10257   */\n      add\n        /* \"#utility.yul\":10229:10235   */\n      dup8\n        /* \"#utility.yul\":10185:10258   */\n      tag_457\n      jump\t// in\n    tag_481:\n        /* \"#utility.yul\":10268:10341   */\n      tag_482\n        /* \"#utility.yul\":10336:10339   */\n      0xa0\n        /* \"#utility.yul\":10325:10334   */\n      dup4\n        /* \"#utility.yul\":10321:10340   */\n      add\n        /* \"#utility.yul\":10312:10318   */\n      dup7\n        /* \"#utility.yul\":10268:10341   */\n      tag_457\n      jump\t// in\n    tag_482:\n        /* \"#utility.yul\":10351:10424   */\n      tag_483\n        /* \"#utility.yul\":10419:10422   */\n      0xc0\n        /* \"#utility.yul\":10408:10417   */\n      dup4\n        /* \"#utility.yul\":10404:10423   */\n      add\n        /* \"#utility.yul\":10395:10401   */\n      dup6\n        /* \"#utility.yul\":10351:10424   */\n      tag_457\n      jump\t// in\n    tag_483:\n        /* \"#utility.yul\":10434:10505   */\n      tag_484\n        /* \"#utility.yul\":10500:10503   */\n      0xe0\n        /* \"#utility.yul\":10489:10498   */\n      dup4\n        /* \"#utility.yul\":10485:10504   */\n      add\n        /* \"#utility.yul\":10476:10482   */\n      dup5\n        /* \"#utility.yul\":10434:10505   */\n      tag_466\n      jump\t// in\n    tag_484:\n        /* \"#utility.yul\":9246:10512   */\n      swap10\n      swap9\n      pop\n      pop\n      pop\n      pop\n      pop\n      pop\n      pop\n      pop\n      pop\n      jump\t// out\n        /* \"#utility.yul\":10518:10831   */\n    tag_22:\n        /* \"#utility.yul\":10631:10635   */\n      0x00\n        /* \"#utility.yul\":10669:10671   */\n      0x20\n        /* \"#utility.yul\":10658:10667   */\n      dup3\n        /* \"#utility.yul\":10654:10672   */\n      add\n        /* \"#utility.yul\":10646:10672   */\n      swap1\n      pop\n        /* \"#utility.yul\":10718:10727   */\n      dup2\n        /* \"#utility.yul\":10712:10716   */\n      dup2\n        /* \"#utility.yul\":10708:10728   */\n      sub\n        /* \"#utility.yul\":10704:10705   */\n      0x00\n        /* \"#utility.yul\":10693:10702   */\n      dup4\n        /* \"#utility.yul\":10689:10706   */\n      add\n        /* \"#utility.yul\":10682:10729   */\n      mstore\n        /* \"#utility.yul\":10746:10824   */\n      tag_486\n        /* \"#utility.yul\":10819:10823   */\n      dup2\n        /* \"#utility.yul\":10810:10816   */\n      dup5\n        /* \"#utility.yul\":10746:10824   */\n      tag_410\n      jump\t// in\n    tag_486:\n        /* \"#utility.yul\":10738:10824   */\n      swap1\n      pop\n        /* \"#utility.yul\":10518:10831   */\n      swap3\n      swap2\n      pop\n      pop\n      jump\t// out\n        /* \"#utility.yul\":10837:11667   */\n    tag_308:\n        /* \"#utility.yul\":11074:11078   */\n      0x00\n        /* \"#utility.yul\":11112:11115   */\n      0xa0\n        /* \"#utility.yul\":11101:11110   */\n      dup3\n        /* \"#utility.yul\":11097:11116   */\n      add\n        /* \"#utility.yul\":11089:11116   */\n      swap1\n      pop\n        /* \"#utility.yul\":11162:11171   */\n      dup2\n        /* \"#utility.yul\":11156:11160   */\n      dup2\n        /* \"#utility.yul\":11152:11172   */\n      sub\n        /* \"#utility.yul\":11148:11149   */\n      0x00\n        /* \"#utility.yul\":11137:11146   */\n      dup4\n        /* \"#utility.yul\":11133:11150   */\n      add\n        /* \"#utility.yul\":11126:11173   */\n      mstore\n        /* \"#utility.yul\":11190:11265   */\n      tag_488\n        /* \"#utility.yul\":11260:11264   */\n      dup2\n        /* \"#utility.yul\":11251:11257   */\n      dup9\n        /* \"#utility.yul\":11190:11265   */\n      tag_420\n      jump\t// in\n    tag_488:\n        /* \"#utility.yul\":11182:11265   */\n      swap1\n      pop\n        /* \"#utility.yul\":11312:11321   */\n      dup2\n        /* \"#utility.yul\":11306:11310   */\n      dup2\n        /* \"#utility.yul\":11302:11322   */\n      sub\n        /* \"#utility.yul\":11297:11299   */\n      0x20\n        /* \"#utility.yul\":11286:11295   */\n      dup4\n        /* \"#utility.yul\":11282:11300   */\n      add\n        /* \"#utility.yul\":11275:11323   */\n      mstore\n        /* \"#utility.yul\":11340:11415   */\n      tag_489\n        /* \"#utility.yul\":11410:11414   */\n      dup2\n        /* \"#utility.yul\":11401:11407   */\n      dup8\n        /* \"#utility.yul\":11340:11415   */\n      tag_420\n      jump\t// in\n    tag_489:\n        /* \"#utility.yul\":11332:11415   */\n      swap1\n      pop\n        /* \"#utility.yul\":11425:11495   */\n      tag_490\n        /* \"#utility.yul\":11491:11493   */\n      0x40\n        /* \"#utility.yul\":11480:11489   */\n      dup4\n        /* \"#utility.yul\":11476:11494   */\n      add\n        /* \"#utility.yul\":11467:11473   */\n      dup7\n        /* \"#utility.yul\":11425:11495   */\n      tag_466\n      jump\t// in\n    tag_490:\n        /* \"#utility.yul\":11505:11577   */\n      tag_491\n        /* \"#utility.yul\":11573:11575   */\n      0x60\n        /* \"#utility.yul\":11562:11571   */\n      dup4\n        /* \"#utility.yul\":11558:11576   */\n      add\n        /* \"#utility.yul\":11549:11555   */\n      dup6\n        /* \"#utility.yul\":11505:11577   */\n      tag_457\n      jump\t// in\n    tag_491:\n        /* \"#utility.yul\":11587:11660   */\n      tag_492\n        /* \"#utility.yul\":11655:11658   */\n      0x80\n        /* \"#utility.yul\":11644:11653   */\n      dup4\n        /* \"#utility.yul\":11640:11659   */\n      add\n        /* \"#utility.yul\":11631:11637   */\n      dup5\n        /* \"#utility.yul\":11587:11660   */\n      tag_457\n      jump\t// in\n    tag_492:\n        /* \"#utility.yul\":10837:11667   */\n      swap7\n      swap6\n      pop\n      pop\n      pop\n      pop\n      pop\n      pop\n      jump\t// out\n        /* \"#utility.yul\":11673:12092   */\n    tag_106:\n        /* \"#utility.yul\":11839:11843   */\n      0x00\n        /* \"#utility.yul\":11877:11879   */\n      0x20\n        /* \"#utility.yul\":11866:11875   */\n      dup3\n        /* \"#utility.yul\":11862:11880   */\n      add\n        /* \"#utility.yul\":11854:11880   */\n      swap1\n      pop\n        /* \"#utility.yul\":11926:11935   */\n      dup2\n        /* \"#utility.yul\":11920:11924   */\n      dup2\n        /* \"#utility.yul\":11916:11936   */\n      sub\n        /* \"#utility.yul\":11912:11913   */\n      0x00\n        /* \"#utility.yul\":11901:11910   */\n      dup4\n        /* \"#utility.yul\":11897:11914   */\n      add\n        /* \"#utility.yul\":11890:11937   */\n      mstore\n        /* \"#utility.yul\":11954:12085   */\n      tag_494\n        /* \"#utility.yul\":12080:12084   */\n      dup2\n        /* \"#utility.yul\":11954:12085   */\n      tag_432\n      jump\t// in\n    tag_494:\n        /* \"#utility.yul\":11946:12085   */\n      swap1\n      pop\n        /* \"#utility.yul\":11673:12092   */\n      swap2\n      swap1\n      pop\n      jump\t// out\n        /* \"#utility.yul\":12098:12517   */\n    tag_318:\n        /* \"#utility.yul\":12264:12268   */\n      0x00\n        /* \"#utility.yul\":12302:12304   */\n      0x20\n        /* \"#utility.yul\":12291:12300   */\n      dup3\n        /* \"#utility.yul\":12287:12305   */\n      add\n        /* \"#utility.yul\":12279:12305   */\n      swap1\n      pop\n        /* \"#utility.yul\":12351:12360   */\n      dup2\n        /* \"#utility.yul\":12345:12349   */\n      dup2\n        /* \"#utility.yul\":12341:12361   */\n      sub\n        /* \"#utility.yul\":12337:12338   */\n      0x00\n        /* \"#utility.yul\":12326:12335   */\n      dup4\n        /* \"#utility.yul\":12322:12339   */\n      add\n        /* \"#utility.yul\":12315:12362   */\n      mstore\n        /* \"#utility.yul\":12379:12510   */\n      tag_496\n        /* \"#utility.yul\":12505:12509   */\n      dup2\n        /* \"#utility.yul\":12379:12510   */\n      tag_437\n      jump\t// in\n    tag_496:\n        /* \"#utility.yul\":12371:12510   */\n      swap1\n      pop\n        /* \"#utility.yul\":12098:12517   */\n      swap2\n      swap1\n      pop\n      jump\t// out\n        /* \"#utility.yul\":12523:12942   */\n    tag_136:\n        /* \"#utility.yul\":12689:12693   */\n      0x00\n        /* \"#utility.yul\":12727:12729   */\n      0x20\n        /* \"#utility.yul\":12716:12725   */\n      dup3\n        /* \"#utility.yul\":12712:12730   */\n      add\n        /* \"#utility.yul\":12704:12730   */\n      swap1\n      pop\n        /* \"#utility.yul\":12776:12785   */\n      dup2\n        /* \"#utility.yul\":12770:12774   */\n      dup2\n        /* \"#utility.yul\":12766:12786   */\n      sub\n        /* \"#utility.yul\":12762:12763   */\n      0x00\n        /* \"#utility.yul\":12751:12760   */\n      dup4\n        /* \"#utility.yul\":12747:12764   */\n      add\n        /* \"#utility.yul\":12740:12787   */\n      mstore\n        /* \"#utility.yul\":12804:12935   */\n      tag_498\n        /* \"#utility.yul\":12930:12934   */\n      dup2\n        /* \"#utility.yul\":12804:12935   */\n      tag_442\n      jump\t// in\n    tag_498:\n        /* \"#utility.yul\":12796:12935   */\n      swap1\n      pop\n        /* \"#utility.yul\":12523:12942   */\n      swap2\n      swap1\n      pop\n      jump\t// out\n        /* \"#utility.yul\":12948:13367   */\n    tag_261:\n        /* \"#utility.yul\":13114:13118   */\n      0x00\n        /* \"#utility.yul\":13152:13154   */\n      0x20\n        /* \"#utility.yul\":13141:13150   */\n      dup3\n        /* \"#utility.yul\":13137:13155   */\n      add\n        /* \"#utility.yul\":13129:13155   */\n      swap1\n      pop\n        /* \"#utility.yul\":13201:13210   */\n      dup2\n        /* \"#utility.yul\":13195:13199   */\n      dup2\n        /* \"#utility.yul\":13191:13211   */\n      sub\n        /* \"#utility.yul\":13187:13188   */\n      0x00\n        /* \"#utility.yul\":13176:13185   */\n      dup4\n        /* \"#utility.yul\":13172:13189   */\n      add\n        /* \"#utility.yul\":13165:13212   */\n      mstore\n        /* \"#utility.yul\":13229:13360   */\n      tag_500\n        /* \"#utility.yul\":13355:13359   */\n      dup2\n        /* \"#utility.yul\":13229:13360   */\n      tag_447\n      jump\t// in\n    tag_500:\n        /* \"#utility.yul\":13221:13360   */\n      swap1\n      pop\n        /* \"#utility.yul\":12948:13367   */\n      swap2\n      swap1\n      pop\n      jump\t// out\n        /* \"#utility.yul\":13373:13792   */\n    tag_193:\n        /* \"#utility.yul\":13539:13543   */\n      0x00\n        /* \"#utility.yul\":13577:13579   */\n      0x20\n        /* \"#utility.yul\":13566:13575   */\n      dup3\n        /* \"#utility.yul\":13562:13580   */\n      add\n        /* \"#utility.yul\":13554:13580   */\n      swap1\n      pop\n        /* \"#utility.yul\":13626:13635   */\n      dup2\n        /* \"#utility.yul\":13620:13624   */\n      dup2\n        /* \"#utility.yul\":13616:13636   */\n      sub\n        /* \"#utility.yul\":13612:13613   */\n      0x00\n        /* \"#utility.yul\":13601:13610   */\n      dup4\n        /* \"#utility.yul\":13597:13614   */\n      add\n        /* \"#utility.yul\":13590:13637   */\n      mstore\n        /* \"#utility.yul\":13654:13785   */\n      tag_502\n        /* \"#utility.yul\":13780:13784   */\n      dup2\n        /* \"#utility.yul\":13654:13785   */\n      tag_452\n      jump\t// in\n    tag_502:\n        /* \"#utility.yul\":13646:13785   */\n      swap1\n      pop\n        /* \"#utility.yul\":13373:13792   */\n      swap2\n      swap1\n      pop\n      jump\t// out\n        /* \"#utility.yul\":13798:14020   */\n    tag_29:\n        /* \"#utility.yul\":13891:13895   */\n      0x00\n        /* \"#utility.yul\":13929:13931   */\n      0x20\n        /* \"#utility.yul\":13918:13927   */\n      dup3\n        /* \"#utility.yul\":13914:13932   */\n      add\n        /* \"#utility.yul\":13906:13932   */\n      swap1\n      pop\n        /* \"#utility.yul\":13942:14013   */\n      tag_504\n        /* \"#utility.yul\":14010:14011   */\n      0x00\n        /* \"#utility.yul\":13999:14008   */\n      dup4\n        /* \"#utility.yul\":13995:14012   */\n      add\n        /* \"#utility.yul\":13986:13992   */\n      dup5\n        /* \"#utility.yul\":13942:14013   */\n      tag_457\n      jump\t// in\n    tag_504:\n        /* \"#utility.yul\":13798:14020   */\n      swap3\n      swap2\n      pop\n      pop\n      jump\t// out\n        /* \"#utility.yul\":14026:14155   */\n    tag_344:\n        /* \"#utility.yul\":14060:14066   */\n      0x00\n        /* \"#utility.yul\":14087:14107   */\n      tag_506\n      tag_507\n      jump\t// in\n    tag_506:\n        /* \"#utility.yul\":14077:14107   */\n      swap1\n      pop\n        /* \"#utility.yul\":14116:14149   */\n      tag_508\n        /* \"#utility.yul\":14144:14148   */\n      dup3\n        /* \"#utility.yul\":14136:14142   */\n      dup3\n        /* \"#utility.yul\":14116:14149   */\n      tag_509\n      jump\t// in\n    tag_508:\n        /* \"#utility.yul\":14026:14155   */\n      swap2\n      swap1\n      pop\n      jump\t// out\n        /* \"#utility.yul\":14161:14236   */\n    tag_507:\n        /* \"#utility.yul\":14194:14200   */\n      0x00\n        /* \"#utility.yul\":14227:14229   */\n      0x40\n        /* \"#utility.yul\":14221:14230   */\n      mload\n        /* \"#utility.yul\":14211:14230   */\n      swap1\n      pop\n        /* \"#utility.yul\":14161:14236   */\n      swap1\n      jump\t// out\n        /* \"#utility.yul\":14242:14550   */\n    tag_343:\n        /* \"#utility.yul\":14304:14308   */\n      0x00\n        /* \"#utility.yul\":14394:14412   */\n      0xffffffffffffffff\n        /* \"#utility.yul\":14386:14392   */\n      dup3\n        /* \"#utility.yul\":14383:14413   */\n      gt\n        /* \"#utility.yul\":14380:14436   */\n      iszero\n      tag_512\n      jumpi\n        /* \"#utility.yul\":14416:14434   */\n      tag_513\n      tag_514\n      jump\t// in\n    tag_513:\n        /* \"#utility.yul\":14380:14436   */\n    tag_512:\n        /* \"#utility.yul\":14454:14483   */\n      tag_515\n        /* \"#utility.yul\":14476:14482   */\n      dup3\n        /* \"#utility.yul\":14454:14483   */\n      tag_419\n      jump\t// in\n    tag_515:\n        /* \"#utility.yul\":14446:14483   */\n      swap1\n      pop\n        /* \"#utility.yul\":14538:14542   */\n      0x20\n        /* \"#utility.yul\":14532:14536   */\n      dup2\n        /* \"#utility.yul\":14528:14543   */\n      add\n        /* \"#utility.yul\":14520:14543   */\n      swap1\n      pop\n        /* \"#utility.yul\":14242:14550   */\n      swap2\n      swap1\n      pop\n      jump\t// out\n        /* \"#utility.yul\":14556:14697   */\n    tag_428:\n        /* \"#utility.yul\":14605:14609   */\n      0x00\n        /* \"#utility.yul\":14628:14631   */\n      dup2\n        /* \"#utility.yul\":14620:14631   */\n      swap1\n      pop\n        /* \"#utility.yul\":14651:14654   */\n      dup2\n        /* \"#utility.yul\":14648:14649   */\n      0x00\n        /* \"#utility.yul\":14641:14655   */\n      mstore\n        /* \"#utility.yul\":14685:14689   */\n      0x20\n        /* \"#utility.yul\":14682:14683   */\n      0x00\n        /* \"#utility.yul\":14672:14690   */\n      keccak256\n        /* \"#utility.yul\":14664:14690   */\n      swap1\n      pop\n        /* \"#utility.yul\":14556:14697   */\n      swap2\n      swap1\n      pop\n      jump\t// out\n        /* \"#utility.yul\":14703:14802   */\n    tag_413:\n        /* \"#utility.yul\":14755:14761   */\n      0x00\n        /* \"#utility.yul\":14789:14794   */\n      dup2\n        /* \"#utility.yul\":14783:14795   */\n      mload\n        /* \"#utility.yul\":14773:14795   */\n      swap1\n      pop\n        /* \"#utility.yul\":14703:14802   */\n      swap2\n      swap1\n      pop\n      jump\t// out\n        /* \"#utility.yul\":14808:14977   */\n    tag_415:\n        /* \"#utility.yul\":14892:14903   */\n      0x00\n        /* \"#utility.yul\":14926:14932   */\n      dup3\n        /* \"#utility.yul\":14921:14924   */\n      dup3\n        /* \"#utility.yul\":14914:14933   */\n      mstore\n        /* \"#utility.yul\":14966:14970   */\n      0x20\n        /* \"#utility.yul\":14961:14964   */\n      dup3\n        /* \"#utility.yul\":14957:14971   */\n      add\n        /* \"#utility.yul\":14942:14971   */\n      swap1\n      pop\n        /* \"#utility.yul\":14808:14977   */\n      swap3\n      swap2\n      pop\n      pop\n      jump\t// out\n        /* \"#utility.yul\":14983:15288   */\n    tag_109:\n        /* \"#utility.yul\":15023:15026   */\n      0x00\n        /* \"#utility.yul\":15042:15062   */\n      tag_520\n        /* \"#utility.yul\":15060:15061   */\n      dup3\n        /* \"#utility.yul\":15042:15062   */\n      tag_460\n      jump\t// in\n    tag_520:\n        /* \"#utility.yul\":15037:15062   */\n      swap2\n      pop\n        /* \"#utility.yul\":15076:15096   */\n      tag_521\n        /* \"#utility.yul\":15094:15095   */\n      dup4\n        /* \"#utility.yul\":15076:15096   */\n      tag_460\n      jump\t// in\n    tag_521:\n        /* \"#utility.yul\":15071:15096   */\n      swap3\n      pop\n        /* \"#utility.yul\":15230:15231   */\n      dup3\n        /* \"#utility.yul\":15162:15228   */\n      0xffffffffffffffffffffffffffffffffffffffffffffffffffffffffffffffff\n        /* \"#utility.yul\":15158:15232   */\n      sub\n        /* \"#utility.yul\":15155:15156   */\n      dup3\n        /* \"#utility.yul\":15152:15233   */\n      gt\n        /* \"#utility.yul\":15149:15256   */\n      iszero\n      tag_522\n      jumpi\n        /* \"#utility.yul\":15236:15254   */\n      tag_523\n      tag_524\n      jump\t// in\n    tag_523:\n        /* \"#utility.yul\":15149:15256   */\n    tag_522:\n        /* \"#utility.yul\":15280:15281   */\n      dup3\n        /* \"#utility.yul\":15277:15278   */\n      dup3\n        /* \"#utility.yul\":15273:15282   */\n      add\n        /* \"#utility.yul\":15266:15282   */\n      swap1\n      pop\n        /* \"#utility.yul\":14983:15288   */\n      swap3\n      swap2\n      pop\n      pop\n      jump\t// out\n        /* \"#utility.yul\":15294:15485   */\n    tag_117:\n        /* \"#utility.yul\":15334:15338   */\n      0x00\n        /* \"#utility.yul\":15354:15374   */\n      tag_526\n        /* \"#utility.yul\":15372:15373   */\n      dup3\n        /* \"#utility.yul\":15354:15374   */\n      tag_460\n      jump\t// in\n    tag_526:\n        /* \"#utility.yul\":15349:15374   */\n      swap2\n      pop\n        /* \"#utility.yul\":15388:15408   */\n      tag_527\n        /* \"#utility.yul\":15406:15407   */\n      dup4\n        /* \"#utility.yul\":15388:15408   */\n      tag_460\n      jump\t// in\n    tag_527:\n        /* \"#utility.yul\":15383:15408   */\n      swap3\n      pop\n        /* \"#utility.yul\":15427:15428   */\n      dup3\n        /* \"#utility.yul\":15424:15425   */\n      dup3\n        /* \"#utility.yul\":15421:15429   */\n      lt\n        /* \"#utility.yul\":15418:15452   */\n      iszero\n      tag_528\n      jumpi\n        /* \"#utility.yul\":15432:15450   */\n      tag_529\n      tag_524\n      jump\t// in\n    tag_529:\n        /* \"#utility.yul\":15418:15452   */\n    tag_528:\n        /* \"#utility.yul\":15477:15478   */\n      dup3\n        /* \"#utility.yul\":15474:15475   */\n      dup3\n        /* \"#utility.yul\":15470:15479   */\n      sub\n        /* \"#utility.yul\":15462:15479   */\n      swap1\n      pop\n        /* \"#utility.yul\":15294:15485   */\n      swap3\n      swap2\n      pop\n      pop\n      jump\t// out\n        /* \"#utility.yul\":15491:15587   */\n    tag_409:\n        /* \"#utility.yul\":15528:15535   */\n      0x00\n        /* \"#utility.yul\":15557:15581   */\n      tag_531\n        /* \"#utility.yul\":15575:15580   */\n      dup3\n        /* \"#utility.yul\":15557:15581   */\n      tag_532\n      jump\t// in\n    tag_531:\n        /* \"#utility.yul\":15546:15581   */\n      swap1\n      pop\n        /* \"#utility.yul\":15491:15587   */\n      swap2\n      swap1\n      pop\n      jump\t// out\n        /* \"#utility.yul\":15593:15719   */\n    tag_532:\n        /* \"#utility.yul\":15630:15637   */\n      0x00\n        /* \"#utility.yul\":15670:15712   */\n      0xffffffffffffffffffffffffffffffffffffffff\n        /* \"#utility.yul\":15663:15668   */\n      dup3\n        /* \"#utility.yul\":15659:15713   */\n      and\n        /* \"#utility.yul\":15648:15713   */\n      swap1\n      pop\n        /* \"#utility.yul\":15593:15719   */\n      swap2\n      swap1\n      pop\n      jump\t// out\n        /* \"#utility.yul\":15725:15802   */\n    tag_460:\n        /* \"#utility.yul\":15762:15769   */\n      0x00\n        /* \"#utility.yul\":15791:15796   */\n      dup2\n        /* \"#utility.yul\":15780:15796   */\n      swap1\n      pop\n        /* \"#utility.yul\":15725:15802   */\n      swap2\n      swap1\n      pop\n      jump\t// out\n        /* \"#utility.yul\":15808:15901   */\n    tag_469:\n        /* \"#utility.yul\":15844:15851   */\n      0x00\n        /* \"#utility.yul\":15884:15894   */\n      0xffffffff\n        /* \"#utility.yul\":15877:15882   */\n      dup3\n        /* \"#utility.yul\":15873:15895   */\n      and\n        /* \"#utility.yul\":15862:15895   */\n      swap1\n      pop\n        /* \"#utility.yul\":15808:15901   */\n      swap2\n      swap1\n      pop\n      jump\t// out\n        /* \"#utility.yul\":15907:16061   */\n    tag_349:\n        /* \"#utility.yul\":15991:15997   */\n      dup3\n        /* \"#utility.yul\":15986:15989   */\n      dup2\n        /* \"#utility.yul\":15981:15984   */\n      dup4\n        /* \"#utility.yul\":15968:15998   */\n      calldatacopy\n        /* \"#utility.yul\":16053:16054   */\n      0x00\n        /* \"#utility.yul\":16044:16050   */\n      dup4\n        /* \"#utility.yul\":16039:16042   */\n      dup4\n        /* \"#utility.yul\":16035:16051   */\n      add\n        /* \"#utility.yul\":16028:16055   */\n      mstore\n        /* \"#utility.yul\":15907:16061   */\n      pop\n      pop\n      pop\n      jump\t// out\n        /* \"#utility.yul\":16067:16374   */\n    tag_417:\n        /* \"#utility.yul\":16135:16136   */\n      0x00\n        /* \"#utility.yul\":16145:16258   */\n    tag_538:\n        /* \"#utility.yul\":16159:16165   */\n      dup4\n        /* \"#utility.yul\":16156:16157   */\n      dup2\n        /* \"#utility.yul\":16153:16166   */\n      lt\n        /* \"#utility.yul\":16145:16258   */\n      iszero\n      tag_540\n      jumpi\n        /* \"#utility.yul\":16244:16245   */\n      dup1\n        /* \"#utility.yul\":16239:16242   */\n      dup3\n        /* \"#utility.yul\":16235:16246   */\n      add\n        /* \"#utility.yul\":16229:16247   */\n      mload\n        /* \"#utility.yul\":16225:16226   */\n      dup2\n        /* \"#utility.yul\":16220:16223   */\n      dup5\n        /* \"#utility.yul\":16216:16227   */\n      add\n        /* \"#utility.yul\":16209:16248   */\n      mstore\n        /* \"#utility.yul\":16181:16183   */\n      0x20\n        /* \"#utility.yul\":16178:16179   */\n      dup2\n        /* \"#utility.yul\":16174:16184   */\n      add\n        /* \"#utility.yul\":16169:16184   */\n      swap1\n      pop\n        /* \"#utility.yul\":16145:16258   */\n      jump(tag_538)\n    tag_540:\n        /* \"#utility.yul\":16276:16282   */\n      dup4\n        /* \"#utility.yul\":16273:16274   */\n      dup2\n        /* \"#utility.yul\":16270:16283   */\n      gt\n        /* \"#utility.yul\":16267:16368   */\n      iszero\n      tag_541\n      jumpi\n        /* \"#utility.yul\":16356:16357   */\n      0x00\n        /* \"#utility.yul\":16347:16353   */\n      dup5\n        /* \"#utility.yul\":16342:16345   */\n      dup5\n        /* \"#utility.yul\":16338:16354   */\n      add\n        /* \"#utility.yul\":16331:16358   */\n      mstore\n        /* \"#utility.yul\":16267:16368   */\n    tag_541:\n        /* \"#utility.yul\":16116:16374   */\n      pop\n        /* \"#utility.yul\":16067:16374   */\n      pop\n      pop\n      pop\n      jump\t// out\n        /* \"#utility.yul\":16380:16700   */\n    tag_269:\n        /* \"#utility.yul\":16424:16430   */\n      0x00\n        /* \"#utility.yul\":16461:16462   */\n      0x02\n        /* \"#utility.yul\":16455:16459   */\n      dup3\n        /* \"#utility.yul\":16451:16463   */\n      div\n        /* \"#utility.yul\":16441:16463   */\n      swap1\n      pop\n        /* \"#utility.yul\":16508:16509   */\n      0x01\n        /* \"#utility.yul\":16502:16506   */\n      dup3\n        /* \"#utility.yul\":16498:16510   */\n      and\n        /* \"#utility.yul\":16529:16547   */\n      dup1\n        /* \"#utility.yul\":16519:16600   */\n      tag_543\n      jumpi\n        /* \"#utility.yul\":16585:16589   */\n      0x7f\n        /* \"#utility.yul\":16577:16583   */\n      dup3\n        /* \"#utility.yul\":16573:16590   */\n      and\n        /* \"#utility.yul\":16563:16590   */\n      swap2\n      pop\n        /* \"#utility.yul\":16519:16600   */\n    tag_543:\n        /* \"#utility.yul\":16647:16649   */\n      0x20\n        /* \"#utility.yul\":16639:16645   */\n      dup3\n        /* \"#utility.yul\":16636:16650   */\n      lt\n        /* \"#utility.yul\":16616:16634   */\n      dup2\n        /* \"#utility.yul\":16613:16651   */\n      eq\n        /* \"#utility.yul\":16610:16694   */\n      iszero\n      tag_544\n      jumpi\n        /* \"#utility.yul\":16666:16684   */\n      tag_545\n      tag_546\n      jump\t// in\n    tag_545:\n        /* \"#utility.yul\":16610:16694   */\n    tag_544:\n        /* \"#utility.yul\":16431:16700   */\n      pop\n        /* \"#utility.yul\":16380:16700   */\n      swap2\n      swap1\n      pop\n      jump\t// out\n        /* \"#utility.yul\":16706:16987   */\n    tag_509:\n        /* \"#utility.yul\":16789:16816   */\n      tag_548\n        /* \"#utility.yul\":16811:16815   */\n      dup3\n        /* \"#utility.yul\":16789:16816   */\n      tag_419\n      jump\t// in\n    tag_548:\n        /* \"#utility.yul\":16781:16787   */\n      dup2\n        /* \"#utility.yul\":16777:16817   */\n      add\n        /* \"#utility.yul\":16919:16925   */\n      dup2\n        /* \"#utility.yul\":16907:16917   */\n      dup2\n        /* \"#utility.yul\":16904:16926   */\n      lt\n        /* \"#utility.yul\":16883:16901   */\n      0xffffffffffffffff\n        /* \"#utility.yul\":16871:16881   */\n      dup3\n        /* \"#utility.yul\":16868:16902   */\n      gt\n        /* \"#utility.yul\":16865:16927   */\n      or\n        /* \"#utility.yul\":16862:16950   */\n      iszero\n      tag_549\n      jumpi\n        /* \"#utility.yul\":16930:16948   */\n      tag_550\n      tag_514\n      jump\t// in\n    tag_550:\n        /* \"#utility.yul\":16862:16950   */\n    tag_549:\n        /* \"#utility.yul\":16970:16980   */\n      dup1\n        /* \"#utility.yul\":16966:16968   */\n      0x40\n        /* \"#utility.yul\":16959:16981   */\n      mstore\n        /* \"#utility.yul\":16749:16987   */\n      pop\n        /* \"#utility.yul\":16706:16987   */\n      pop\n      pop\n      jump\t// out\n        /* \"#utility.yul\":16993:17226   */\n    tag_102:\n        /* \"#utility.yul\":17032:17035   */\n      0x00\n        /* \"#utility.yul\":17055:17079   */\n      tag_552\n        /* \"#utility.yul\":17073:17078   */\n      dup3\n        /* \"#utility.yul\":17055:17079   */\n      tag_460\n      jump\t// in\n    tag_552:\n        /* \"#utility.yul\":17046:17079   */\n      swap2\n      pop\n        /* \"#utility.yul\":17101:17167   */\n      0xffffffffffffffffffffffffffffffffffffffffffffffffffffffffffffffff\n        /* \"#utility.yul\":17094:17099   */\n      dup3\n        /* \"#utility.yul\":17091:17168   */\n      eq\n        /* \"#utility.yul\":17088:17191   */\n      iszero\n      tag_553\n      jumpi\n        /* \"#utility.yul\":17171:17189   */\n      tag_554\n      tag_524\n      jump\t// in\n    tag_554:\n        /* \"#utility.yul\":17088:17191   */\n    tag_553:\n        /* \"#utility.yul\":17218:17219   */\n      0x01\n        /* \"#utility.yul\":17211:17216   */\n      dup3\n        /* \"#utility.yul\":17207:17220   */\n      add\n        /* \"#utility.yul\":17200:17220   */\n      swap1\n      pop\n        /* \"#utility.yul\":16993:17226   */\n      swap2\n      swap1\n      pop\n      jump\t// out\n        /* \"#utility.yul\":17232:17407   */\n    tag_131:\n        /* \"#utility.yul\":17270:17273   */\n      0x00\n        /* \"#utility.yul\":17293:17316   */\n      tag_556\n        /* \"#utility.yul\":17310:17315   */\n      dup3\n        /* \"#utility.yul\":17293:17316   */\n      tag_469\n      jump\t// in\n    tag_556:\n        /* \"#utility.yul\":17284:17316   */\n      swap2\n      pop\n        /* \"#utility.yul\":17338:17348   */\n      0xffffffff\n        /* \"#utility.yul\":17331:17336   */\n      dup3\n        /* \"#utility.yul\":17328:17349   */\n      eq\n        /* \"#utility.yul\":17325:17372   */\n      iszero\n      tag_557\n      jumpi\n        /* \"#utility.yul\":17352:17370   */\n      tag_558\n      tag_524\n      jump\t// in\n    tag_558:\n        /* \"#utility.yul\":17325:17372   */\n    tag_557:\n        /* \"#utility.yul\":17399:17400   */\n      0x01\n        /* \"#utility.yul\":17392:17397   */\n      dup3\n        /* \"#utility.yul\":17388:17401   */\n      add\n        /* \"#utility.yul\":17381:17401   */\n      swap1\n      pop\n        /* \"#utility.yul\":17232:17407   */\n      swap2\n      swap1\n      pop\n      jump\t// out\n        /* \"#utility.yul\":17413:17492   */\n    tag_465:\n        /* \"#utility.yul\":17452:17459   */\n      0x00\n        /* \"#utility.yul\":17481:17486   */\n      dup2\n        /* \"#utility.yul\":17470:17486   */\n      swap1\n      pop\n        /* \"#utility.yul\":17413:17492   */\n      swap2\n      swap1\n      pop\n      jump\t// out\n        /* \"#utility.yul\":17498:17674   */\n    tag_143:\n        /* \"#utility.yul\":17530:17531   */\n      0x00\n        /* \"#utility.yul\":17547:17567   */\n      tag_561\n        /* \"#utility.yul\":17565:17566   */\n      dup3\n        /* \"#utility.yul\":17547:17567   */\n      tag_460\n      jump\t// in\n    tag_561:\n        /* \"#utility.yul\":17542:17567   */\n      swap2\n      pop\n        /* \"#utility.yul\":17581:17601   */\n      tag_562\n        /* \"#utility.yul\":17599:17600   */\n      dup4\n        /* \"#utility.yul\":17581:17601   */\n      tag_460\n      jump\t// in\n    tag_562:\n        /* \"#utility.yul\":17576:17601   */\n      swap3\n      pop\n        /* \"#utility.yul\":17620:17621   */\n      dup3\n        /* \"#utility.yul\":17610:17645   */\n      tag_563\n      jumpi\n        /* \"#utility.yul\":17625:17643   */\n      tag_564\n      tag_565\n      jump\t// in\n    tag_564:\n        /* \"#utility.yul\":17610:17645   */\n    tag_563:\n        /* \"#utility.yul\":17666:17667   */\n      dup3\n        /* \"#utility.yul\":17663:17664   */\n      dup3\n        /* \"#utility.yul\":17659:17668   */\n      mod\n        /* \"#utility.yul\":17654:17668   */\n      swap1\n      pop\n        /* \"#utility.yul\":17498:17674   */\n      swap3\n      swap2\n      pop\n      pop\n      jump\t// out\n        /* \"#utility.yul\":17680:17860   */\n    tag_524:\n        /* \"#utility.yul\":17728:17805   */\n      0x4e487b7100000000000000000000000000000000000000000000000000000000\n        /* \"#utility.yul\":17725:17726   */\n      0x00\n        /* \"#utility.yul\":17718:17806   */\n      mstore\n        /* \"#utility.yul\":17825:17829   */\n      0x11\n        /* \"#utility.yul\":17822:17823   */\n      0x04\n        /* \"#utility.yul\":17815:17830   */\n      mstore\n        /* \"#utility.yul\":17849:17853   */\n      0x24\n        /* \"#utility.yul\":17846:17847   */\n      0x00\n        /* \"#utility.yul\":17839:17854   */\n      revert\n        /* \"#utility.yul\":17866:18046   */\n    tag_565:\n        /* \"#utility.yul\":17914:17991   */\n      0x4e487b7100000000000000000000000000000000000000000000000000000000\n        /* \"#utility.yul\":17911:17912   */\n      0x00\n        /* \"#utility.yul\":17904:17992   */\n      mstore\n        /* \"#utility.yul\":18011:18015   */\n      0x12\n        /* \"#utility.yul\":18008:18009   */\n      0x04\n        /* \"#utility.yul\":18001:18016   */\n      mstore\n        /* \"#utility.yul\":18035:18039   */\n      0x24\n        /* \"#utility.yul\":18032:18033   */\n      0x00\n        /* \"#utility.yul\":18025:18040   */\n      revert\n        /* \"#utility.yul\":18052:18232   */\n    tag_546:\n        /* \"#utility.yul\":18100:18177   */\n      0x4e487b7100000000000000000000000000000000000000000000000000000000\n        /* \"#utility.yul\":18097:18098   */\n      0x00\n        /* \"#utility.yul\":18090:18178   */\n      mstore\n        /* \"#utility.yul\":18197:18201   */\n      0x22\n        /* \"#utility.yul\":18194:18195   */\n      0x04\n        /* \"#utility.yul\":18187:18202   */\n      mstore\n        /* \"#utility.yul\":18221:18225   */\n      0x24\n        /* \"#utility.yul\":18218:18219   */\n      0x00\n        /* \"#utility.yul\":18211:18226   */\n      revert\n        /* \"#utility.yul\":18238:18418   */\n    tag_89:\n        /* \"#utility.yul\":18286:18363   */\n      0x4e487b7100000000000000000000000000000000000000000000000000000000\n        /* \"#utility.yul\":18283:18284   */\n      0x00\n        /* \"#utility.yul\":18276:18364   */\n      mstore\n        /* \"#utility.yul\":18383:18387   */\n      0x32\n        /* \"#utility.yul\":18380:18381   */\n      0x04\n        /* \"#utility.yul\":18373:18388   */\n      mstore\n        /* \"#utility.yul\":18407:18411   */\n      0x24\n        /* \"#utility.yul\":18404:18405   */\n      0x00\n        /* \"#utility.yul\":18397:18412   */\n      revert\n        /* \"#utility.yul\":18424:18604   */\n    tag_514:\n        /* \"#utility.yul\":18472:18549   */\n      0x4e487b7100000000000000000000000000000000000000000000000000000000\n        /* \"#utility.yul\":18469:18470   */\n      0x00\n        /* \"#utility.yul\":18462:18550   */\n      mstore\n        /* \"#utility.yul\":18569:18573   */\n      0x41\n        /* \"#utility.yul\":18566:18567   */\n      0x04\n        /* \"#utility.yul\":18559:18574   */\n      mstore\n        /* \"#utility.yul\":18593:18597   */\n      0x24\n        /* \"#utility.yul\":18590:18591   */\n      0x00\n        /* \"#utility.yul\":18583:18598   */\n      revert\n        /* \"#utility.yul\":18610:18727   */\n    tag_358:\n        /* \"#utility.yul\":18719:18720   */\n      0x00\n        /* \"#utility.yul\":18716:18717   */\n      dup1\n        /* \"#utility.yul\":18709:18721   */\n      revert\n        /* \"#utility.yul\":18733:18850   */\n    tag_347:\n        /* \"#utility.yul\":18842:18843   */\n      0x00\n        /* \"#utility.yul\":18839:18840   */\n      dup1\n        /* \"#utility.yul\":18832:18844   */\n      revert\n        /* \"#utility.yul\":18856:18973   */\n    tag_375:\n        /* \"#utility.yul\":18965:18966   */\n      0x00\n        /* \"#utility.yul\":18962:18963   */\n      dup1\n        /* \"#utility.yul\":18955:18967   */\n      revert\n        /* \"#utility.yul\":18979:19096   */\n    tag_367:\n        /* \"#utility.yul\":19088:19089   */\n      0x00\n        /* \"#utility.yul\":19085:19086   */\n      dup1\n        /* \"#utility.yul\":19078:19090   */\n      revert\n        /* \"#utility.yul\":19102:19204   */\n    tag_419:\n        /* \"#utility.yul\":19143:19149   */\n      0x00\n        /* \"#utility.yul\":19194:19196   */\n      0x1f\n        /* \"#utility.yul\":19190:19197   */\n      not\n        /* \"#utility.yul\":19185:19187   */\n      0x1f\n        /* \"#utility.yul\":19178:19183   */\n      dup4\n        /* \"#utility.yul\":19174:19188   */\n      add\n        /* \"#utility.yul\":19170:19198   */\n      and\n        /* \"#utility.yul\":19160:19198   */\n      swap1\n      pop\n        /* \"#utility.yul\":19102:19204   */\n      swap2\n      swap1\n      pop\n      jump\t// out\n        /* \"#utility.yul\":19210:19437   */\n    tag_436:\n        /* \"#utility.yul\":19350:19384   */\n      0x536f6c6f2073652070756564652074656e657220756e20636f63686520706f72\n        /* \"#utility.yul\":19346:19347   */\n      0x00\n        /* \"#utility.yul\":19338:19344   */\n      dup3\n        /* \"#utility.yul\":19334:19348   */\n      add\n        /* \"#utility.yul\":19327:19385   */\n      mstore\n        /* \"#utility.yul\":19419:19429   */\n      0x20706572736f6e61000000000000000000000000000000000000000000000000\n        /* \"#utility.yul\":19414:19416   */\n      0x20\n        /* \"#utility.yul\":19406:19412   */\n      dup3\n        /* \"#utility.yul\":19402:19417   */\n      add\n        /* \"#utility.yul\":19395:19430   */\n      mstore\n        /* \"#utility.yul\":19210:19437   */\n      pop\n      jump\t// out\n        /* \"#utility.yul\":19443:19668   */\n    tag_441:\n        /* \"#utility.yul\":19583:19617   */\n      0x4f776e61626c653a206e6577206f776e657220697320746865207a65726f2061\n        /* \"#utility.yul\":19579:19580   */\n      0x00\n        /* \"#utility.yul\":19571:19577   */\n      dup3\n        /* \"#utility.yul\":19567:19581   */\n      add\n        /* \"#utility.yul\":19560:19618   */\n      mstore\n        /* \"#utility.yul\":19652:19660   */\n      0x6464726573730000000000000000000000000000000000000000000000000000\n        /* \"#utility.yul\":19647:19649   */\n      0x20\n        /* \"#utility.yul\":19639:19645   */\n      dup3\n        /* \"#utility.yul\":19635:19650   */\n      add\n        /* \"#utility.yul\":19628:19661   */\n      mstore\n        /* \"#utility.yul\":19443:19668   */\n      pop\n      jump\t// out\n        /* \"#utility.yul\":19674:19911   */\n    tag_446:\n        /* \"#utility.yul\":19814:19848   */\n      0x4e6f2068617920636f6368657320737566696369656e74657320706172612069\n        /* \"#utility.yul\":19810:19811   */\n      0x00\n        /* \"#utility.yul\":19802:19808   */\n      dup3\n        /* \"#utility.yul\":19798:19812   */\n      add\n        /* \"#utility.yul\":19791:19849   */\n      mstore\n        /* \"#utility.yul\":19883:19903   */\n      0x6e696369617220756e6120636172726572610000000000000000000000000000\n        /* \"#utility.yul\":19878:19880   */\n      0x20\n        /* \"#utility.yul\":19870:19876   */\n      dup3\n        /* \"#utility.yul\":19866:19881   */\n      add\n        /* \"#utility.yul\":19859:19904   */\n      mstore\n        /* \"#utility.yul\":19674:19911   */\n      pop\n      jump\t// out\n        /* \"#utility.yul\":19917:20099   */\n    tag_451:\n        /* \"#utility.yul\":20057:20091   */\n      0x4f776e61626c653a2063616c6c6572206973206e6f7420746865206f776e6572\n        /* \"#utility.yul\":20053:20054   */\n      0x00\n        /* \"#utility.yul\":20045:20051   */\n      dup3\n        /* \"#utility.yul\":20041:20055   */\n      add\n        /* \"#utility.yul\":20034:20092   */\n      mstore\n        /* \"#utility.yul\":19917:20099   */\n      pop\n      jump\t// out\n        /* \"#utility.yul\":20105:20276   */\n    tag_456:\n        /* \"#utility.yul\":20245:20268   */\n      0x456c20636f6368652067616e61646f722065733a200000000000000000000000\n        /* \"#utility.yul\":20241:20242   */\n      0x00\n        /* \"#utility.yul\":20233:20239   */\n      dup3\n        /* \"#utility.yul\":20229:20243   */\n      add\n        /* \"#utility.yul\":20222:20269   */\n      mstore\n        /* \"#utility.yul\":20105:20276   */\n      pop\n      jump\t// out\n        /* \"#utility.yul\":20282:20404   */\n    tag_353:\n        /* \"#utility.yul\":20355:20379   */\n      tag_582\n        /* \"#utility.yul\":20373:20378   */\n      dup2\n        /* \"#utility.yul\":20355:20379   */\n      tag_409\n      jump\t// in\n    tag_582:\n        /* \"#utility.yul\":20348:20353   */\n      dup2\n        /* \"#utility.yul\":20345:20380   */\n      eq\n        /* \"#utility.yul\":20335:20398   */\n      tag_583\n      jumpi\n        /* \"#utility.yul\":20394:20395   */\n      0x00\n        /* \"#utility.yul\":20391:20392   */\n      dup1\n        /* \"#utility.yul\":20384:20396   */\n      revert\n        /* \"#utility.yul\":20335:20398   */\n    tag_583:\n        /* \"#utility.yul\":20282:20404   */\n      pop\n      jump\t// out\n        /* \"#utility.yul\":20410:20532   */\n    tag_363:\n        /* \"#utility.yul\":20483:20507   */\n      tag_585\n        /* \"#utility.yul\":20501:20506   */\n      dup2\n        /* \"#utility.yul\":20483:20507   */\n      tag_460\n      jump\t// in\n    tag_585:\n        /* \"#utility.yul\":20476:20481   */\n      dup2\n        /* \"#utility.yul\":20473:20508   */\n      eq\n        /* \"#utility.yul\":20463:20526   */\n      tag_586\n      jumpi\n        /* \"#utility.yul\":20522:20523   */\n      0x00\n        /* \"#utility.yul\":20519:20520   */\n      dup1\n        /* \"#utility.yul\":20512:20524   */\n      revert\n        /* \"#utility.yul\":20463:20526   */\n    tag_586:\n        /* \"#utility.yul\":20410:20532   */\n      pop\n      jump\t// out\n\n    auxdata: 0xa2646970667358221220be4dc2b678fae38f8045d412195a2420624092bf0bba7b71f16946dd3cb00b1264736f6c63430008070033\n}\n",
				"bytecode": {
					"linkReferences": {},
					"object": "608060405260006001556000600255603c600355670de0b6b3a7640000600455671bc16d674ec800006005553480156200003857600080fd5b50620000596200004d6200005f60201b60201c565b6200006760201b60201c565b6200012b565b600033905090565b60008060009054906101000a900473ffffffffffffffffffffffffffffffffffffffff169050816000806101000a81548173ffffffffffffffffffffffffffffffffffffffff021916908373ffffffffffffffffffffffffffffffffffffffff1602179055508173ffffffffffffffffffffffffffffffffffffffff168173ffffffffffffffffffffffffffffffffffffffff167f8be0079c531659141344cd1fd0a4f28419497f9722a3daafe3b4186f6b6457e060405160405180910390a35050565b6126f1806200013b6000396000f3fe6080604052600436106100c25760003560e01c8063715018a61161007f578063b2bdfa7b11610059578063b2bdfa7b14610279578063d735573d146102a4578063e172fca8146102e8578063f2fde38b14610311576100c2565b8063715018a6146101fa578063858b0554146102115780638da5cb5b1461024e576100c2565b8063049a5f65146100c75780631c6743e4146100f75780632458c544146101345780636a7d1816146101715780636b6f0494146101a15780636ba2cdf4146101d1575b600080fd5b6100e160048036038101906100dc9190611bcc565b61033a565b6040516100ee919061204d565b60405180910390f35b34801561010357600080fd5b5061011e60048036038101906101199190611b9f565b61049b565b60405161012b9190612170565b60405180910390f35b34801561014057600080fd5b5061015b60048036038101906101569190611c57565b6104b3565b6040516101689190612170565b60405180910390f35b61018b60048036038101906101869190611b9f565b610795565b604051610198919061204d565b60405180910390f35b6101bb60048036038101906101b69190611cfe565b6108ea565b6040516101c8919061204d565b60405180910390f35b3480156101dd57600080fd5b506101f860048036038101906101f39190611d2b565b611225565b005b34801561020657600080fd5b5061020f611356565b005b34801561021d57600080fd5b5061023860048036038101906102339190611cfe565b6113de565b6040516102459190611f9f565b60405180910390f35b34801561025a57600080fd5b50610263611411565b6040516102709190611f9f565b60405180910390f35b34801561028557600080fd5b5061028e61143a565b60405161029b9190611f9f565b60405180910390f35b3480156102b057600080fd5b506102cb60048036038101906102c69190611cfe565b61145e565b6040516102df989796959493929190611fba565b60405180910390f35b3480156102f457600080fd5b5061030f600480360381019061030a9190611b9f565b61167e565b005b34801561031d57600080fd5b5061033860048036038101906103339190611b9f565b611825565b005b60608373ffffffffffffffffffffffffffffffffffffffff163373ffffffffffffffffffffffffffffffffffffffff161461037457600080fd5b600554341461038257600080fd5b60005b600680549050811015610493573373ffffffffffffffffffffffffffffffffffffffff16600682815481106103bd576103bc6124cb565b5b906000526020600020906008020160000160009054906101000a900473ffffffffffffffffffffffffffffffffffffffff1673ffffffffffffffffffffffffffffffffffffffff1614156104805783600682815481106104205761041f6124cb565b5b90600052602060002090600802016001019080519060200190610444929190611a62565b50826006828154811061045a576104596124cb565b5b9060005260206000209060080201600201908051906020019061047e929190611a62565b505b808061048b9061238d565b915050610385565b509392505050565b60086020528060005260406000206000915090505481565b60006001600860003373ffffffffffffffffffffffffffffffffffffffff1673ffffffffffffffffffffffffffffffffffffffff1681526020019081526020016000205410610537576040517f08c379a000000000000000000000000000000000000000000000000000000000815260040161052e906120d0565b60405180910390fd5b60066040518061010001604052803373ffffffffffffffffffffffffffffffffffffffff16815260200186815260200185815260200184815260200160008152602001600081526020016003544261058f9190612212565b63ffffffff168152602001600163ffffffff16815250908060018154018082558091505060019003906000526020600020906008020160009091909190915060008201518160000160006101000a81548173ffffffffffffffffffffffffffffffffffffffff021916908373ffffffffffffffffffffffffffffffffffffffff1602179055506020820151816001019080519060200190610631929190611a62565b50604082015181600201908051906020019061064e929190611a62565b50606082015181600301908051906020019061066b929190611a62565b506080820151816004015560a0820151816005015560c0820151816006015560e08201518160070160006101000a81548163ffffffff021916908363ffffffff160217905550505060006006805490509050336007600083815260200190815260200160002060006101000a81548173ffffffffffffffffffffffffffffffffffffffff021916908373ffffffffffffffffffffffffffffffffffffffff160217905550600860003373ffffffffffffffffffffffffffffffffffffffff1673ffffffffffffffffffffffffffffffffffffffff168152602001908152602001600020600081548092919061075f9061238d565b9190505550600260008154809291906107779061238d565b9190505550600160025461078b9190612268565b9150509392505050565b606060045434146107a557600080fd5b60005b6006805490508110156108e3578273ffffffffffffffffffffffffffffffffffffffff16600682815481106107e0576107df6124cb565b5b906000526020600020906008020160000160009054906101000a900473ffffffffffffffffffffffffffffffffffffffff1673ffffffffffffffffffffffffffffffffffffffff1614156108d05760068181548110610842576108416124cb565b5b9060005260206000209060080201600701600081819054906101000a900463ffffffff1680929190610873906123d6565b91906101000a81548163ffffffff021916908363ffffffff160217905550506040518060400160405280601281526020017f48612073756269646f206465206e6976656c00000000000000000000000000008152509150506108e5565b80806108db9061238d565b9150506107a8565b505b919050565b6060600160068054905011610933577f6158fc8f21c8cc73ddf920956cc75d0e8a48b4fc85817a0ba89eb3b6d2a7544160405161092690612110565b60405180910390a161121f565b81341461093f57600080fd5b600160008154809291906109529061238d565b919050555060006006805490504260068054905060015460405160200161097b93929190611f62565b6040516020818303038152906040528051906020012060001c61099e919061240d565b905060006007600083815260200190815260200160002060009054906101000a900473ffffffffffffffffffffffffffffffffffffffff169050600160008154809291906109eb9061238d565b91905055506000606490506000814283600154604051602001610a1093929190611f62565b6040516020818303038152906040528051906020012060001c610a33919061240d565b905060005b6006805490508110156112195760068181548110610a5957610a586124cb565b5b906000526020600020906008020160000160009054906101000a900473ffffffffffffffffffffffffffffffffffffffff1673ffffffffffffffffffffffffffffffffffffffff163373ffffffffffffffffffffffffffffffffffffffff16141561120657610ae860068281548110610ad557610ad46124cb565b5b906000526020600020906008020161191d565b610af157600080fd5b60068181548110610b0557610b046124cb565b5b90600052602060002090600802016005016000815480929190610b279061238d565b919050555060068581548110610b4057610b3f6124cb565b5b90600052602060002090600802016005016000815480929190610b629061238d565b9190505550610b9160068281548110610b7e57610b7d6124cb565b5b906000526020600020906008020161192e565b60068181548110610ba557610ba46124cb565b5b906000526020600020906008020160070160009054906101000a900463ffffffff1663ffffffff1660068681548110610be157610be06124cb565b5b906000526020600020906008020160070160009054906101000a900463ffffffff1663ffffffff161015610de257603c8211610d0057610c1f61194d565b60068181548110610c3357610c326124cb565b5b90600052602060002090600802016004016000815480929190610c559061238d565b919050555060068181548110610c6e57610c6d6124cb565b5b9060005260206000209060080201600701600081819054906101000a900463ffffffff1680929190610c9f906123d6565b91906101000a81548163ffffffff021916908363ffffffff160217905550506040518060400160405280600a81526020017f4861732067616e61646f0000000000000000000000000000000000000000000081525095505050505050611220565b7f6158fc8f21c8cc73ddf920956cc75d0e8a48b4fc85817a0ba89eb3b6d2a75441604051610d2d90612150565b60405180910390a13073ffffffffffffffffffffffffffffffffffffffff1663e172fca8856040518263ffffffff1660e01b8152600401610d6e9190611f9f565b600060405180830381600087803b158015610d8857600080fd5b505af1158015610d9c573d6000803e3d6000fd5b505050506040518060400160405280600b81526020017f486173207065726469646f00000000000000000000000000000000000000000081525095505050505050611220565b60068181548110610df657610df56124cb565b5b906000526020600020906008020160070160009054906101000a900463ffffffff1663ffffffff1660068681548110610e3257610e316124cb565b5b906000526020600020906008020160070160009054906101000a900463ffffffff1663ffffffff1614156110335760328211610f5157610e7061194d565b60068181548110610e8457610e836124cb565b5b90600052602060002090600802016004016000815480929190610ea69061238d565b919050555060068181548110610ebf57610ebe6124cb565b5b9060005260206000209060080201600701600081819054906101000a900463ffffffff1680929190610ef0906123d6565b91906101000a81548163ffffffff021916908363ffffffff160217905550506040518060400160405280600a81526020017f4861732067616e61646f0000000000000000000000000000000000000000000081525095505050505050611220565b7f6158fc8f21c8cc73ddf920956cc75d0e8a48b4fc85817a0ba89eb3b6d2a75441604051610f7e90612150565b60405180910390a13073ffffffffffffffffffffffffffffffffffffffff1663e172fca8856040518263ffffffff1660e01b8152600401610fbf9190611f9f565b600060405180830381600087803b158015610fd957600080fd5b505af1158015610fed573d6000803e3d6000fd5b505050506040518060400160405280600b81526020017f486173207065726469646f00000000000000000000000000000000000000000081525095505050505050611220565b602882116111245761104361194d565b60068181548110611057576110566124cb565b5b906000526020600020906008020160040160008154809291906110799061238d565b919050555060068181548110611092576110916124cb565b5b9060005260206000209060080201600701600081819054906101000a900463ffffffff16809291906110c3906123d6565b91906101000a81548163ffffffff021916908363ffffffff160217905550506040518060400160405280600a81526020017f4861732067616e61646f0000000000000000000000000000000000000000000081525095505050505050611220565b7f6158fc8f21c8cc73ddf920956cc75d0e8a48b4fc85817a0ba89eb3b6d2a7544160405161115190612150565b60405180910390a13073ffffffffffffffffffffffffffffffffffffffff1663e172fca8856040518263ffffffff1660e01b81526004016111929190611f9f565b600060405180830381600087803b1580156111ac57600080fd5b505af11580156111c0573d6000803e3d6000fd5b505050506040518060400160405280600b81526020017f486173207065726469646f00000000000000000000000000000000000000000081525095505050505050611220565b80806112119061238d565b915050610a38565b50505050505b5b919050565b600a83816006828154811061123d5761123c6124cb565b5b906000526020600020906008020160070160009054906101000a900463ffffffff1663ffffffff16101561127057600080fd5b6007600086815260200190815260200160002060009054906101000a900473ffffffffffffffffffffffffffffffffffffffff1673ffffffffffffffffffffffffffffffffffffffff163373ffffffffffffffffffffffffffffffffffffffff16146112db57600080fd5b83600686815481106112f0576112ef6124cb565b5b90600052602060002090600802016001019080519060200190611314929190611a62565b50826006868154811061132a576113296124cb565b5b9060005260206000209060080201600201908051906020019061134e929190611a62565b505050505050565b61135e611996565b73ffffffffffffffffffffffffffffffffffffffff1661137c611411565b73ffffffffffffffffffffffffffffffffffffffff16146113d2576040517f08c379a00000000000000000000000000000000000000000000000000000000081526004016113c990612130565b60405180910390fd5b6113dc600061199e565b565b60076020528060005260406000206000915054906101000a900473ffffffffffffffffffffffffffffffffffffffff1681565b60008060009054906101000a900473ffffffffffffffffffffffffffffffffffffffff16905090565b60008054906101000a900473ffffffffffffffffffffffffffffffffffffffff1681565b6006818154811061146e57600080fd5b90600052602060002090600802016000915090508060000160009054906101000a900473ffffffffffffffffffffffffffffffffffffffff16908060010180546114b79061232a565b80601f01602080910402602001604051908101604052809291908181526020018280546114e39061232a565b80156115305780601f1061150557610100808354040283529160200191611530565b820191906000526020600020905b81548152906001019060200180831161151357829003601f168201915b5050505050908060020180546115459061232a565b80601f01602080910402602001604051908101604052809291908181526020018280546115719061232a565b80156115be5780601f10611593576101008083540402835291602001916115be565b820191906000526020600020905b8154815290600101906020018083116115a157829003601f168201915b5050505050908060030180546115d39061232a565b80601f01602080910402602001604051908101604052809291908181526020018280546115ff9061232a565b801561164c5780601f106116215761010080835404028352916020019161164c565b820191906000526020600020905b81548152906001019060200180831161162f57829003601f168201915b5050505050908060040154908060050154908060060154908060070160009054906101000a900463ffffffff16905088565b60005b600680549050811015611821578173ffffffffffffffffffffffffffffffffffffffff16600682815481106116b9576116b86124cb565b5b906000526020600020906008020160000160009054906101000a900473ffffffffffffffffffffffffffffffffffffffff1673ffffffffffffffffffffffffffffffffffffffff16141561180e577f20fdb8ab571bfbab79104bea84f9c31cb79c5ae45b5f515c1d6c8393e00283506006828154811061173c5761173b6124cb565b5b906000526020600020906008020160020160068381548110611761576117606124cb565b5b906000526020600020906008020160010160068481548110611786576117856124cb565b5b906000526020600020906008020160070160009054906101000a900463ffffffff16600685815481106117bc576117bb6124cb565b5b906000526020600020906008020160040154600686815481106117e2576117e16124cb565b5b90600052602060002090600802016005015460405161180595949392919061206f565b60405180910390a15b80806118199061238d565b915050611681565b5050565b61182d611996565b73ffffffffffffffffffffffffffffffffffffffff1661184b611411565b73ffffffffffffffffffffffffffffffffffffffff16146118a1576040517f08c379a000000000000000000000000000000000000000000000000000000000815260040161189890612130565b60405180910390fd5b600073ffffffffffffffffffffffffffffffffffffffff168173ffffffffffffffffffffffffffffffffffffffff161415611911576040517f08c379a0000000000000000000000000000000000000000000000000000000008152600401611908906120f0565b60405180910390fd5b61191a8161199e565b50565b600042826006015411159050919050565b6003544261193c9190612212565b63ffffffff16816006018190555050565b3373ffffffffffffffffffffffffffffffffffffffff166108fc479081150290604051600060405180830381858888f19350505050158015611993573d6000803e3d6000fd5b50565b600033905090565b60008060009054906101000a900473ffffffffffffffffffffffffffffffffffffffff169050816000806101000a81548173ffffffffffffffffffffffffffffffffffffffff021916908373ffffffffffffffffffffffffffffffffffffffff1602179055508173ffffffffffffffffffffffffffffffffffffffff168173ffffffffffffffffffffffffffffffffffffffff167f8be0079c531659141344cd1fd0a4f28419497f9722a3daafe3b4186f6b6457e060405160405180910390a35050565b828054611a6e9061232a565b90600052602060002090601f016020900481019282611a905760008555611ad7565b82601f10611aa957805160ff1916838001178555611ad7565b82800160010185558215611ad7579182015b82811115611ad6578251825591602001919060010190611abb565b5b509050611ae49190611ae8565b5090565b5b80821115611b01576000816000905550600101611ae9565b5090565b6000611b18611b13846121b0565b61218b565b905082815260208101848484011115611b3457611b3361252e565b5b611b3f8482856122e8565b509392505050565b600081359050611b568161268d565b92915050565b600082601f830112611b7157611b70612529565b5b8135611b81848260208601611b05565b91505092915050565b600081359050611b99816126a4565b92915050565b600060208284031215611bb557611bb4612538565b5b6000611bc384828501611b47565b91505092915050565b600080600060608486031215611be557611be4612538565b5b6000611bf386828701611b47565b935050602084013567ffffffffffffffff811115611c1457611c13612533565b5b611c2086828701611b5c565b925050604084013567ffffffffffffffff811115611c4157611c40612533565b5b611c4d86828701611b5c565b9150509250925092565b600080600060608486031215611c7057611c6f612538565b5b600084013567ffffffffffffffff811115611c8e57611c8d612533565b5b611c9a86828701611b5c565b935050602084013567ffffffffffffffff811115611cbb57611cba612533565b5b611cc786828701611b5c565b925050604084013567ffffffffffffffff811115611ce857611ce7612533565b5b611cf486828701611b5c565b9150509250925092565b600060208284031215611d1457611d13612538565b5b6000611d2284828501611b8a565b91505092915050565b600080600060608486031215611d4457611d43612538565b5b6000611d5286828701611b8a565b935050602084013567ffffffffffffffff811115611d7357611d72612533565b5b611d7f86828701611b5c565b925050604084013567ffffffffffffffff811115611da057611d9f612533565b5b611dac86828701611b5c565b9150509250925092565b611dbf8161229c565b82525050565b6000611dd0826121f6565b611dda8185612201565b9350611dea8185602086016122f7565b611df38161253d565b840191505092915050565b60008154611e0b8161232a565b611e158186612201565b94506001821660008114611e305760018114611e4257611e75565b60ff1983168652602086019350611e75565b611e4b856121e1565b60005b83811015611e6d57815481890152600182019150602081019050611e4e565b808801955050505b50505092915050565b6000611e8b602883612201565b9150611e968261254e565b604082019050919050565b6000611eae602683612201565b9150611eb98261259d565b604082019050919050565b6000611ed1603283612201565b9150611edc826125ec565b604082019050919050565b6000611ef4602083612201565b9150611eff8261263b565b602082019050919050565b6000611f17601583612201565b9150611f2282612664565b602082019050919050565b611f36816122ce565b82525050565b611f4d611f48826122ce565b612403565b82525050565b611f5c816122d8565b82525050565b6000611f6e8286611f3c565b602082019150611f7e8285611f3c565b602082019150611f8e8284611f3c565b602082019150819050949350505050565b6000602082019050611fb46000830184611db6565b92915050565b600061010082019050611fd0600083018b611db6565b8181036020830152611fe2818a611dc5565b90508181036040830152611ff68189611dc5565b9050818103606083015261200a8188611dc5565b90506120196080830187611f2d565b61202660a0830186611f2d565b61203360c0830185611f2d565b61204060e0830184611f53565b9998505050505050505050565b600060208201905081810360008301526120678184611dc5565b905092915050565b600060a08201905081810360008301526120898188611dfe565b9050818103602083015261209d8187611dfe565b90506120ac6040830186611f53565b6120b96060830185611f2d565b6120c66080830184611f2d565b9695505050505050565b600060208201905081810360008301526120e981611e7e565b9050919050565b6000602082019050818103600083015261210981611ea1565b9050919050565b6000602082019050818103600083015261212981611ec4565b9050919050565b6000602082019050818103600083015261214981611ee7565b9050919050565b6000602082019050818103600083015261216981611f0a565b9050919050565b60006020820190506121856000830184611f2d565b92915050565b60006121956121a6565b90506121a1828261235c565b919050565b6000604051905090565b600067ffffffffffffffff8211156121cb576121ca6124fa565b5b6121d48261253d565b9050602081019050919050565b60008190508160005260206000209050919050565b600081519050919050565b600082825260208201905092915050565b600061221d826122ce565b9150612228836122ce565b9250827fffffffffffffffffffffffffffffffffffffffffffffffffffffffffffffffff0382111561225d5761225c61243e565b5b828201905092915050565b6000612273826122ce565b915061227e836122ce565b9250828210156122915761229061243e565b5b828203905092915050565b60006122a7826122ae565b9050919050565b600073ffffffffffffffffffffffffffffffffffffffff82169050919050565b6000819050919050565b600063ffffffff82169050919050565b82818337600083830152505050565b60005b838110156123155780820151818401526020810190506122fa565b83811115612324576000848401525b50505050565b6000600282049050600182168061234257607f821691505b602082108114156123565761235561249c565b5b50919050565b6123658261253d565b810181811067ffffffffffffffff82111715612384576123836124fa565b5b80604052505050565b6000612398826122ce565b91507fffffffffffffffffffffffffffffffffffffffffffffffffffffffffffffffff8214156123cb576123ca61243e565b5b600182019050919050565b60006123e1826122d8565b915063ffffffff8214156123f8576123f761243e565b5b600182019050919050565b6000819050919050565b6000612418826122ce565b9150612423836122ce565b9250826124335761243261246d565b5b828206905092915050565b7f4e487b7100000000000000000000000000000000000000000000000000000000600052601160045260246000fd5b7f4e487b7100000000000000000000000000000000000000000000000000000000600052601260045260246000fd5b7f4e487b7100000000000000000000000000000000000000000000000000000000600052602260045260246000fd5b7f4e487b7100000000000000000000000000000000000000000000000000000000600052603260045260246000fd5b7f4e487b7100000000000000000000000000000000000000000000000000000000600052604160045260246000fd5b600080fd5b600080fd5b600080fd5b600080fd5b6000601f19601f8301169050919050565b7f536f6c6f2073652070756564652074656e657220756e20636f63686520706f7260008201527f20706572736f6e61000000000000000000000000000000000000000000000000602082015250565b7f4f776e61626c653a206e6577206f776e657220697320746865207a65726f206160008201527f6464726573730000000000000000000000000000000000000000000000000000602082015250565b7f4e6f2068617920636f6368657320737566696369656e7465732070617261206960008201527f6e696369617220756e6120636172726572610000000000000000000000000000602082015250565b7f4f776e61626c653a2063616c6c6572206973206e6f7420746865206f776e6572600082015250565b7f456c20636f6368652067616e61646f722065733a200000000000000000000000600082015250565b6126968161229c565b81146126a157600080fd5b50565b6126ad816122ce565b81146126b857600080fd5b5056fea2646970667358221220be4dc2b678fae38f8045d412195a2420624092bf0bba7b71f16946dd3cb00b1264736f6c63430008070033",
					"opcodes": "PUSH1 0x80 PUSH1 0x40 MSTORE PUSH1 0x0 PUSH1 0x1 SSTORE PUSH1 0x0 PUSH1 0x2 SSTORE PUSH1 0x3C PUSH1 0x3 SSTORE PUSH8 0xDE0B6B3A7640000 PUSH1 0x4 SSTORE PUSH8 0x1BC16D674EC80000 PUSH1 0x5 SSTORE CALLVALUE DUP1 ISZERO PUSH3 0x38 JUMPI PUSH1 0x0 DUP1 REVERT JUMPDEST POP PUSH3 0x59 PUSH3 0x4D PUSH3 0x5F PUSH1 0x20 SHL PUSH1 0x20 SHR JUMP JUMPDEST PUSH3 0x67 PUSH1 0x20 SHL PUSH1 0x20 SHR JUMP JUMPDEST PUSH3 0x12B JUMP JUMPDEST PUSH1 0x0 CALLER SWAP1 POP SWAP1 JUMP JUMPDEST PUSH1 0x0 DUP1 PUSH1 0x0 SWAP1 SLOAD SWAP1 PUSH2 0x100 EXP SWAP1 DIV PUSH20 0xFFFFFFFFFFFFFFFFFFFFFFFFFFFFFFFFFFFFFFFF AND SWAP1 POP DUP2 PUSH1 0x0 DUP1 PUSH2 0x100 EXP DUP2 SLOAD DUP2 PUSH20 0xFFFFFFFFFFFFFFFFFFFFFFFFFFFFFFFFFFFFFFFF MUL NOT AND SWAP1 DUP4 PUSH20 0xFFFFFFFFFFFFFFFFFFFFFFFFFFFFFFFFFFFFFFFF AND MUL OR SWAP1 SSTORE POP DUP2 PUSH20 0xFFFFFFFFFFFFFFFFFFFFFFFFFFFFFFFFFFFFFFFF AND DUP2 PUSH20 0xFFFFFFFFFFFFFFFFFFFFFFFFFFFFFFFFFFFFFFFF AND PUSH32 0x8BE0079C531659141344CD1FD0A4F28419497F9722A3DAAFE3B4186F6B6457E0 PUSH1 0x40 MLOAD PUSH1 0x40 MLOAD DUP1 SWAP2 SUB SWAP1 LOG3 POP POP JUMP JUMPDEST PUSH2 0x26F1 DUP1 PUSH3 0x13B PUSH1 0x0 CODECOPY PUSH1 0x0 RETURN INVALID PUSH1 0x80 PUSH1 0x40 MSTORE PUSH1 0x4 CALLDATASIZE LT PUSH2 0xC2 JUMPI PUSH1 0x0 CALLDATALOAD PUSH1 0xE0 SHR DUP1 PUSH4 0x715018A6 GT PUSH2 0x7F JUMPI DUP1 PUSH4 0xB2BDFA7B GT PUSH2 0x59 JUMPI DUP1 PUSH4 0xB2BDFA7B EQ PUSH2 0x279 JUMPI DUP1 PUSH4 0xD735573D EQ PUSH2 0x2A4 JUMPI DUP1 PUSH4 0xE172FCA8 EQ PUSH2 0x2E8 JUMPI DUP1 PUSH4 0xF2FDE38B EQ PUSH2 0x311 JUMPI PUSH2 0xC2 JUMP JUMPDEST DUP1 PUSH4 0x715018A6 EQ PUSH2 0x1FA JUMPI DUP1 PUSH4 0x858B0554 EQ PUSH2 0x211 JUMPI DUP1 PUSH4 0x8DA5CB5B EQ PUSH2 0x24E JUMPI PUSH2 0xC2 JUMP JUMPDEST DUP1 PUSH4 0x49A5F65 EQ PUSH2 0xC7 JUMPI DUP1 PUSH4 0x1C6743E4 EQ PUSH2 0xF7 JUMPI DUP1 PUSH4 0x2458C544 EQ PUSH2 0x134 JUMPI DUP1 PUSH4 0x6A7D1816 EQ PUSH2 0x171 JUMPI DUP1 PUSH4 0x6B6F0494 EQ PUSH2 0x1A1 JUMPI DUP1 PUSH4 0x6BA2CDF4 EQ PUSH2 0x1D1 JUMPI JUMPDEST PUSH1 0x0 DUP1 REVERT JUMPDEST PUSH2 0xE1 PUSH1 0x4 DUP1 CALLDATASIZE SUB DUP2 ADD SWAP1 PUSH2 0xDC SWAP2 SWAP1 PUSH2 0x1BCC JUMP JUMPDEST PUSH2 0x33A JUMP JUMPDEST PUSH1 0x40 MLOAD PUSH2 0xEE SWAP2 SWAP1 PUSH2 0x204D JUMP JUMPDEST PUSH1 0x40 MLOAD DUP1 SWAP2 SUB SWAP1 RETURN JUMPDEST CALLVALUE DUP1 ISZERO PUSH2 0x103 JUMPI PUSH1 0x0 DUP1 REVERT JUMPDEST POP PUSH2 0x11E PUSH1 0x4 DUP1 CALLDATASIZE SUB DUP2 ADD SWAP1 PUSH2 0x119 SWAP2 SWAP1 PUSH2 0x1B9F JUMP JUMPDEST PUSH2 0x49B JUMP JUMPDEST PUSH1 0x40 MLOAD PUSH2 0x12B SWAP2 SWAP1 PUSH2 0x2170 JUMP JUMPDEST PUSH1 0x40 MLOAD DUP1 SWAP2 SUB SWAP1 RETURN JUMPDEST CALLVALUE DUP1 ISZERO PUSH2 0x140 JUMPI PUSH1 0x0 DUP1 REVERT JUMPDEST POP PUSH2 0x15B PUSH1 0x4 DUP1 CALLDATASIZE SUB DUP2 ADD SWAP1 PUSH2 0x156 SWAP2 SWAP1 PUSH2 0x1C57 JUMP JUMPDEST PUSH2 0x4B3 JUMP JUMPDEST PUSH1 0x40 MLOAD PUSH2 0x168 SWAP2 SWAP1 PUSH2 0x2170 JUMP JUMPDEST PUSH1 0x40 MLOAD DUP1 SWAP2 SUB SWAP1 RETURN JUMPDEST PUSH2 0x18B PUSH1 0x4 DUP1 CALLDATASIZE SUB DUP2 ADD SWAP1 PUSH2 0x186 SWAP2 SWAP1 PUSH2 0x1B9F JUMP JUMPDEST PUSH2 0x795 JUMP JUMPDEST PUSH1 0x40 MLOAD PUSH2 0x198 SWAP2 SWAP1 PUSH2 0x204D JUMP JUMPDEST PUSH1 0x40 MLOAD DUP1 SWAP2 SUB SWAP1 RETURN JUMPDEST PUSH2 0x1BB PUSH1 0x4 DUP1 CALLDATASIZE SUB DUP2 ADD SWAP1 PUSH2 0x1B6 SWAP2 SWAP1 PUSH2 0x1CFE JUMP JUMPDEST PUSH2 0x8EA JUMP JUMPDEST PUSH1 0x40 MLOAD PUSH2 0x1C8 SWAP2 SWAP1 PUSH2 0x204D JUMP JUMPDEST PUSH1 0x40 MLOAD DUP1 SWAP2 SUB SWAP1 RETURN JUMPDEST CALLVALUE DUP1 ISZERO PUSH2 0x1DD JUMPI PUSH1 0x0 DUP1 REVERT JUMPDEST POP PUSH2 0x1F8 PUSH1 0x4 DUP1 CALLDATASIZE SUB DUP2 ADD SWAP1 PUSH2 0x1F3 SWAP2 SWAP1 PUSH2 0x1D2B JUMP JUMPDEST PUSH2 0x1225 JUMP JUMPDEST STOP JUMPDEST CALLVALUE DUP1 ISZERO PUSH2 0x206 JUMPI PUSH1 0x0 DUP1 REVERT JUMPDEST POP PUSH2 0x20F PUSH2 0x1356 JUMP JUMPDEST STOP JUMPDEST CALLVALUE DUP1 ISZERO PUSH2 0x21D JUMPI PUSH1 0x0 DUP1 REVERT JUMPDEST POP PUSH2 0x238 PUSH1 0x4 DUP1 CALLDATASIZE SUB DUP2 ADD SWAP1 PUSH2 0x233 SWAP2 SWAP1 PUSH2 0x1CFE JUMP JUMPDEST PUSH2 0x13DE JUMP JUMPDEST PUSH1 0x40 MLOAD PUSH2 0x245 SWAP2 SWAP1 PUSH2 0x1F9F JUMP JUMPDEST PUSH1 0x40 MLOAD DUP1 SWAP2 SUB SWAP1 RETURN JUMPDEST CALLVALUE DUP1 ISZERO PUSH2 0x25A JUMPI PUSH1 0x0 DUP1 REVERT JUMPDEST POP PUSH2 0x263 PUSH2 0x1411 JUMP JUMPDEST PUSH1 0x40 MLOAD PUSH2 0x270 SWAP2 SWAP1 PUSH2 0x1F9F JUMP JUMPDEST PUSH1 0x40 MLOAD DUP1 SWAP2 SUB SWAP1 RETURN JUMPDEST CALLVALUE DUP1 ISZERO PUSH2 0x285 JUMPI PUSH1 0x0 DUP1 REVERT JUMPDEST POP PUSH2 0x28E PUSH2 0x143A JUMP JUMPDEST PUSH1 0x40 MLOAD PUSH2 0x29B SWAP2 SWAP1 PUSH2 0x1F9F JUMP JUMPDEST PUSH1 0x40 MLOAD DUP1 SWAP2 SUB SWAP1 RETURN JUMPDEST CALLVALUE DUP1 ISZERO PUSH2 0x2B0 JUMPI PUSH1 0x0 DUP1 REVERT JUMPDEST POP PUSH2 0x2CB PUSH1 0x4 DUP1 CALLDATASIZE SUB DUP2 ADD SWAP1 PUSH2 0x2C6 SWAP2 SWAP1 PUSH2 0x1CFE JUMP JUMPDEST PUSH2 0x145E JUMP JUMPDEST PUSH1 0x40 MLOAD PUSH2 0x2DF SWAP9 SWAP8 SWAP7 SWAP6 SWAP5 SWAP4 SWAP3 SWAP2 SWAP1 PUSH2 0x1FBA JUMP JUMPDEST PUSH1 0x40 MLOAD DUP1 SWAP2 SUB SWAP1 RETURN JUMPDEST CALLVALUE DUP1 ISZERO PUSH2 0x2F4 JUMPI PUSH1 0x0 DUP1 REVERT JUMPDEST POP PUSH2 0x30F PUSH1 0x4 DUP1 CALLDATASIZE SUB DUP2 ADD SWAP1 PUSH2 0x30A SWAP2 SWAP1 PUSH2 0x1B9F JUMP JUMPDEST PUSH2 0x167E JUMP JUMPDEST STOP JUMPDEST CALLVALUE DUP1 ISZERO PUSH2 0x31D JUMPI PUSH1 0x0 DUP1 REVERT JUMPDEST POP PUSH2 0x338 PUSH1 0x4 DUP1 CALLDATASIZE SUB DUP2 ADD SWAP1 PUSH2 0x333 SWAP2 SWAP1 PUSH2 0x1B9F JUMP JUMPDEST PUSH2 0x1825 JUMP JUMPDEST STOP JUMPDEST PUSH1 0x60 DUP4 PUSH20 0xFFFFFFFFFFFFFFFFFFFFFFFFFFFFFFFFFFFFFFFF AND CALLER PUSH20 0xFFFFFFFFFFFFFFFFFFFFFFFFFFFFFFFFFFFFFFFF AND EQ PUSH2 0x374 JUMPI PUSH1 0x0 DUP1 REVERT JUMPDEST PUSH1 0x5 SLOAD CALLVALUE EQ PUSH2 0x382 JUMPI PUSH1 0x0 DUP1 REVERT JUMPDEST PUSH1 0x0 JUMPDEST PUSH1 0x6 DUP1 SLOAD SWAP1 POP DUP2 LT ISZERO PUSH2 0x493 JUMPI CALLER PUSH20 0xFFFFFFFFFFFFFFFFFFFFFFFFFFFFFFFFFFFFFFFF AND PUSH1 0x6 DUP3 DUP2 SLOAD DUP2 LT PUSH2 0x3BD JUMPI PUSH2 0x3BC PUSH2 0x24CB JUMP JUMPDEST JUMPDEST SWAP1 PUSH1 0x0 MSTORE PUSH1 0x20 PUSH1 0x0 KECCAK256 SWAP1 PUSH1 0x8 MUL ADD PUSH1 0x0 ADD PUSH1 0x0 SWAP1 SLOAD SWAP1 PUSH2 0x100 EXP SWAP1 DIV PUSH20 0xFFFFFFFFFFFFFFFFFFFFFFFFFFFFFFFFFFFFFFFF AND PUSH20 0xFFFFFFFFFFFFFFFFFFFFFFFFFFFFFFFFFFFFFFFF AND EQ ISZERO PUSH2 0x480 JUMPI DUP4 PUSH1 0x6 DUP3 DUP2 SLOAD DUP2 LT PUSH2 0x420 JUMPI PUSH2 0x41F PUSH2 0x24CB JUMP JUMPDEST JUMPDEST SWAP1 PUSH1 0x0 MSTORE PUSH1 0x20 PUSH1 0x0 KECCAK256 SWAP1 PUSH1 0x8 MUL ADD PUSH1 0x1 ADD SWAP1 DUP1 MLOAD SWAP1 PUSH1 0x20 ADD SWAP1 PUSH2 0x444 SWAP3 SWAP2 SWAP1 PUSH2 0x1A62 JUMP JUMPDEST POP DUP3 PUSH1 0x6 DUP3 DUP2 SLOAD DUP2 LT PUSH2 0x45A JUMPI PUSH2 0x459 PUSH2 0x24CB JUMP JUMPDEST JUMPDEST SWAP1 PUSH1 0x0 MSTORE PUSH1 0x20 PUSH1 0x0 KECCAK256 SWAP1 PUSH1 0x8 MUL ADD PUSH1 0x2 ADD SWAP1 DUP1 MLOAD SWAP1 PUSH1 0x20 ADD SWAP1 PUSH2 0x47E SWAP3 SWAP2 SWAP1 PUSH2 0x1A62 JUMP JUMPDEST POP JUMPDEST DUP1 DUP1 PUSH2 0x48B SWAP1 PUSH2 0x238D JUMP JUMPDEST SWAP2 POP POP PUSH2 0x385 JUMP JUMPDEST POP SWAP4 SWAP3 POP POP POP JUMP JUMPDEST PUSH1 0x8 PUSH1 0x20 MSTORE DUP1 PUSH1 0x0 MSTORE PUSH1 0x40 PUSH1 0x0 KECCAK256 PUSH1 0x0 SWAP2 POP SWAP1 POP SLOAD DUP2 JUMP JUMPDEST PUSH1 0x0 PUSH1 0x1 PUSH1 0x8 PUSH1 0x0 CALLER PUSH20 0xFFFFFFFFFFFFFFFFFFFFFFFFFFFFFFFFFFFFFFFF AND PUSH20 0xFFFFFFFFFFFFFFFFFFFFFFFFFFFFFFFFFFFFFFFF AND DUP2 MSTORE PUSH1 0x20 ADD SWAP1 DUP2 MSTORE PUSH1 0x20 ADD PUSH1 0x0 KECCAK256 SLOAD LT PUSH2 0x537 JUMPI PUSH1 0x40 MLOAD PUSH32 0x8C379A000000000000000000000000000000000000000000000000000000000 DUP2 MSTORE PUSH1 0x4 ADD PUSH2 0x52E SWAP1 PUSH2 0x20D0 JUMP JUMPDEST PUSH1 0x40 MLOAD DUP1 SWAP2 SUB SWAP1 REVERT JUMPDEST PUSH1 0x6 PUSH1 0x40 MLOAD DUP1 PUSH2 0x100 ADD PUSH1 0x40 MSTORE DUP1 CALLER PUSH20 0xFFFFFFFFFFFFFFFFFFFFFFFFFFFFFFFFFFFFFFFF AND DUP2 MSTORE PUSH1 0x20 ADD DUP7 DUP2 MSTORE PUSH1 0x20 ADD DUP6 DUP2 MSTORE PUSH1 0x20 ADD DUP5 DUP2 MSTORE PUSH1 0x20 ADD PUSH1 0x0 DUP2 MSTORE PUSH1 0x20 ADD PUSH1 0x0 DUP2 MSTORE PUSH1 0x20 ADD PUSH1 0x3 SLOAD TIMESTAMP PUSH2 0x58F SWAP2 SWAP1 PUSH2 0x2212 JUMP JUMPDEST PUSH4 0xFFFFFFFF AND DUP2 MSTORE PUSH1 0x20 ADD PUSH1 0x1 PUSH4 0xFFFFFFFF AND DUP2 MSTORE POP SWAP1 DUP1 PUSH1 0x1 DUP2 SLOAD ADD DUP1 DUP3 SSTORE DUP1 SWAP2 POP POP PUSH1 0x1 SWAP1 SUB SWAP1 PUSH1 0x0 MSTORE PUSH1 0x20 PUSH1 0x0 KECCAK256 SWAP1 PUSH1 0x8 MUL ADD PUSH1 0x0 SWAP1 SWAP2 SWAP1 SWAP2 SWAP1 SWAP2 POP PUSH1 0x0 DUP3 ADD MLOAD DUP2 PUSH1 0x0 ADD PUSH1 0x0 PUSH2 0x100 EXP DUP2 SLOAD DUP2 PUSH20 0xFFFFFFFFFFFFFFFFFFFFFFFFFFFFFFFFFFFFFFFF MUL NOT AND SWAP1 DUP4 PUSH20 0xFFFFFFFFFFFFFFFFFFFFFFFFFFFFFFFFFFFFFFFF AND MUL OR SWAP1 SSTORE POP PUSH1 0x20 DUP3 ADD MLOAD DUP2 PUSH1 0x1 ADD SWAP1 DUP1 MLOAD SWAP1 PUSH1 0x20 ADD SWAP1 PUSH2 0x631 SWAP3 SWAP2 SWAP1 PUSH2 0x1A62 JUMP JUMPDEST POP PUSH1 0x40 DUP3 ADD MLOAD DUP2 PUSH1 0x2 ADD SWAP1 DUP1 MLOAD SWAP1 PUSH1 0x20 ADD SWAP1 PUSH2 0x64E SWAP3 SWAP2 SWAP1 PUSH2 0x1A62 JUMP JUMPDEST POP PUSH1 0x60 DUP3 ADD MLOAD DUP2 PUSH1 0x3 ADD SWAP1 DUP1 MLOAD SWAP1 PUSH1 0x20 ADD SWAP1 PUSH2 0x66B SWAP3 SWAP2 SWAP1 PUSH2 0x1A62 JUMP JUMPDEST POP PUSH1 0x80 DUP3 ADD MLOAD DUP2 PUSH1 0x4 ADD SSTORE PUSH1 0xA0 DUP3 ADD MLOAD DUP2 PUSH1 0x5 ADD SSTORE PUSH1 0xC0 DUP3 ADD MLOAD DUP2 PUSH1 0x6 ADD SSTORE PUSH1 0xE0 DUP3 ADD MLOAD DUP2 PUSH1 0x7 ADD PUSH1 0x0 PUSH2 0x100 EXP DUP2 SLOAD DUP2 PUSH4 0xFFFFFFFF MUL NOT AND SWAP1 DUP4 PUSH4 0xFFFFFFFF AND MUL OR SWAP1 SSTORE POP POP POP PUSH1 0x0 PUSH1 0x6 DUP1 SLOAD SWAP1 POP SWAP1 POP CALLER PUSH1 0x7 PUSH1 0x0 DUP4 DUP2 MSTORE PUSH1 0x20 ADD SWAP1 DUP2 MSTORE PUSH1 0x20 ADD PUSH1 0x0 KECCAK256 PUSH1 0x0 PUSH2 0x100 EXP DUP2 SLOAD DUP2 PUSH20 0xFFFFFFFFFFFFFFFFFFFFFFFFFFFFFFFFFFFFFFFF MUL NOT AND SWAP1 DUP4 PUSH20 0xFFFFFFFFFFFFFFFFFFFFFFFFFFFFFFFFFFFFFFFF AND MUL OR SWAP1 SSTORE POP PUSH1 0x8 PUSH1 0x0 CALLER PUSH20 0xFFFFFFFFFFFFFFFFFFFFFFFFFFFFFFFFFFFFFFFF AND PUSH20 0xFFFFFFFFFFFFFFFFFFFFFFFFFFFFFFFFFFFFFFFF AND DUP2 MSTORE PUSH1 0x20 ADD SWAP1 DUP2 MSTORE PUSH1 0x20 ADD PUSH1 0x0 KECCAK256 PUSH1 0x0 DUP2 SLOAD DUP1 SWAP3 SWAP2 SWAP1 PUSH2 0x75F SWAP1 PUSH2 0x238D JUMP JUMPDEST SWAP2 SWAP1 POP SSTORE POP PUSH1 0x2 PUSH1 0x0 DUP2 SLOAD DUP1 SWAP3 SWAP2 SWAP1 PUSH2 0x777 SWAP1 PUSH2 0x238D JUMP JUMPDEST SWAP2 SWAP1 POP SSTORE POP PUSH1 0x1 PUSH1 0x2 SLOAD PUSH2 0x78B SWAP2 SWAP1 PUSH2 0x2268 JUMP JUMPDEST SWAP2 POP POP SWAP4 SWAP3 POP POP POP JUMP JUMPDEST PUSH1 0x60 PUSH1 0x4 SLOAD CALLVALUE EQ PUSH2 0x7A5 JUMPI PUSH1 0x0 DUP1 REVERT JUMPDEST PUSH1 0x0 JUMPDEST PUSH1 0x6 DUP1 SLOAD SWAP1 POP DUP2 LT ISZERO PUSH2 0x8E3 JUMPI DUP3 PUSH20 0xFFFFFFFFFFFFFFFFFFFFFFFFFFFFFFFFFFFFFFFF AND PUSH1 0x6 DUP3 DUP2 SLOAD DUP2 LT PUSH2 0x7E0 JUMPI PUSH2 0x7DF PUSH2 0x24CB JUMP JUMPDEST JUMPDEST SWAP1 PUSH1 0x0 MSTORE PUSH1 0x20 PUSH1 0x0 KECCAK256 SWAP1 PUSH1 0x8 MUL ADD PUSH1 0x0 ADD PUSH1 0x0 SWAP1 SLOAD SWAP1 PUSH2 0x100 EXP SWAP1 DIV PUSH20 0xFFFFFFFFFFFFFFFFFFFFFFFFFFFFFFFFFFFFFFFF AND PUSH20 0xFFFFFFFFFFFFFFFFFFFFFFFFFFFFFFFFFFFFFFFF AND EQ ISZERO PUSH2 0x8D0 JUMPI PUSH1 0x6 DUP2 DUP2 SLOAD DUP2 LT PUSH2 0x842 JUMPI PUSH2 0x841 PUSH2 0x24CB JUMP JUMPDEST JUMPDEST SWAP1 PUSH1 0x0 MSTORE PUSH1 0x20 PUSH1 0x0 KECCAK256 SWAP1 PUSH1 0x8 MUL ADD PUSH1 0x7 ADD PUSH1 0x0 DUP2 DUP2 SWAP1 SLOAD SWAP1 PUSH2 0x100 EXP SWAP1 DIV PUSH4 0xFFFFFFFF AND DUP1 SWAP3 SWAP2 SWAP1 PUSH2 0x873 SWAP1 PUSH2 0x23D6 JUMP JUMPDEST SWAP2 SWAP1 PUSH2 0x100 EXP DUP2 SLOAD DUP2 PUSH4 0xFFFFFFFF MUL NOT AND SWAP1 DUP4 PUSH4 0xFFFFFFFF AND MUL OR SWAP1 SSTORE POP POP PUSH1 0x40 MLOAD DUP1 PUSH1 0x40 ADD PUSH1 0x40 MSTORE DUP1 PUSH1 0x12 DUP2 MSTORE PUSH1 0x20 ADD PUSH32 0x48612073756269646F206465206E6976656C0000000000000000000000000000 DUP2 MSTORE POP SWAP2 POP POP PUSH2 0x8E5 JUMP JUMPDEST DUP1 DUP1 PUSH2 0x8DB SWAP1 PUSH2 0x238D JUMP JUMPDEST SWAP2 POP POP PUSH2 0x7A8 JUMP JUMPDEST POP JUMPDEST SWAP2 SWAP1 POP JUMP JUMPDEST PUSH1 0x60 PUSH1 0x1 PUSH1 0x6 DUP1 SLOAD SWAP1 POP GT PUSH2 0x933 JUMPI PUSH32 0x6158FC8F21C8CC73DDF920956CC75D0E8A48B4FC85817A0BA89EB3B6D2A75441 PUSH1 0x40 MLOAD PUSH2 0x926 SWAP1 PUSH2 0x2110 JUMP JUMPDEST PUSH1 0x40 MLOAD DUP1 SWAP2 SUB SWAP1 LOG1 PUSH2 0x121F JUMP JUMPDEST DUP2 CALLVALUE EQ PUSH2 0x93F JUMPI PUSH1 0x0 DUP1 REVERT JUMPDEST PUSH1 0x1 PUSH1 0x0 DUP2 SLOAD DUP1 SWAP3 SWAP2 SWAP1 PUSH2 0x952 SWAP1 PUSH2 0x238D JUMP JUMPDEST SWAP2 SWAP1 POP SSTORE POP PUSH1 0x0 PUSH1 0x6 DUP1 SLOAD SWAP1 POP TIMESTAMP PUSH1 0x6 DUP1 SLOAD SWAP1 POP PUSH1 0x1 SLOAD PUSH1 0x40 MLOAD PUSH1 0x20 ADD PUSH2 0x97B SWAP4 SWAP3 SWAP2 SWAP1 PUSH2 0x1F62 JUMP JUMPDEST PUSH1 0x40 MLOAD PUSH1 0x20 DUP2 DUP4 SUB SUB DUP2 MSTORE SWAP1 PUSH1 0x40 MSTORE DUP1 MLOAD SWAP1 PUSH1 0x20 ADD KECCAK256 PUSH1 0x0 SHR PUSH2 0x99E SWAP2 SWAP1 PUSH2 0x240D JUMP JUMPDEST SWAP1 POP PUSH1 0x0 PUSH1 0x7 PUSH1 0x0 DUP4 DUP2 MSTORE PUSH1 0x20 ADD SWAP1 DUP2 MSTORE PUSH1 0x20 ADD PUSH1 0x0 KECCAK256 PUSH1 0x0 SWAP1 SLOAD SWAP1 PUSH2 0x100 EXP SWAP1 DIV PUSH20 0xFFFFFFFFFFFFFFFFFFFFFFFFFFFFFFFFFFFFFFFF AND SWAP1 POP PUSH1 0x1 PUSH1 0x0 DUP2 SLOAD DUP1 SWAP3 SWAP2 SWAP1 PUSH2 0x9EB SWAP1 PUSH2 0x238D JUMP JUMPDEST SWAP2 SWAP1 POP SSTORE POP PUSH1 0x0 PUSH1 0x64 SWAP1 POP PUSH1 0x0 DUP2 TIMESTAMP DUP4 PUSH1 0x1 SLOAD PUSH1 0x40 MLOAD PUSH1 0x20 ADD PUSH2 0xA10 SWAP4 SWAP3 SWAP2 SWAP1 PUSH2 0x1F62 JUMP JUMPDEST PUSH1 0x40 MLOAD PUSH1 0x20 DUP2 DUP4 SUB SUB DUP2 MSTORE SWAP1 PUSH1 0x40 MSTORE DUP1 MLOAD SWAP1 PUSH1 0x20 ADD KECCAK256 PUSH1 0x0 SHR PUSH2 0xA33 SWAP2 SWAP1 PUSH2 0x240D JUMP JUMPDEST SWAP1 POP PUSH1 0x0 JUMPDEST PUSH1 0x6 DUP1 SLOAD SWAP1 POP DUP2 LT ISZERO PUSH2 0x1219 JUMPI PUSH1 0x6 DUP2 DUP2 SLOAD DUP2 LT PUSH2 0xA59 JUMPI PUSH2 0xA58 PUSH2 0x24CB JUMP JUMPDEST JUMPDEST SWAP1 PUSH1 0x0 MSTORE PUSH1 0x20 PUSH1 0x0 KECCAK256 SWAP1 PUSH1 0x8 MUL ADD PUSH1 0x0 ADD PUSH1 0x0 SWAP1 SLOAD SWAP1 PUSH2 0x100 EXP SWAP1 DIV PUSH20 0xFFFFFFFFFFFFFFFFFFFFFFFFFFFFFFFFFFFFFFFF AND PUSH20 0xFFFFFFFFFFFFFFFFFFFFFFFFFFFFFFFFFFFFFFFF AND CALLER PUSH20 0xFFFFFFFFFFFFFFFFFFFFFFFFFFFFFFFFFFFFFFFF AND EQ ISZERO PUSH2 0x1206 JUMPI PUSH2 0xAE8 PUSH1 0x6 DUP3 DUP2 SLOAD DUP2 LT PUSH2 0xAD5 JUMPI PUSH2 0xAD4 PUSH2 0x24CB JUMP JUMPDEST JUMPDEST SWAP1 PUSH1 0x0 MSTORE PUSH1 0x20 PUSH1 0x0 KECCAK256 SWAP1 PUSH1 0x8 MUL ADD PUSH2 0x191D JUMP JUMPDEST PUSH2 0xAF1 JUMPI PUSH1 0x0 DUP1 REVERT JUMPDEST PUSH1 0x6 DUP2 DUP2 SLOAD DUP2 LT PUSH2 0xB05 JUMPI PUSH2 0xB04 PUSH2 0x24CB JUMP JUMPDEST JUMPDEST SWAP1 PUSH1 0x0 MSTORE PUSH1 0x20 PUSH1 0x0 KECCAK256 SWAP1 PUSH1 0x8 MUL ADD PUSH1 0x5 ADD PUSH1 0x0 DUP2 SLOAD DUP1 SWAP3 SWAP2 SWAP1 PUSH2 0xB27 SWAP1 PUSH2 0x238D JUMP JUMPDEST SWAP2 SWAP1 POP SSTORE POP PUSH1 0x6 DUP6 DUP2 SLOAD DUP2 LT PUSH2 0xB40 JUMPI PUSH2 0xB3F PUSH2 0x24CB JUMP JUMPDEST JUMPDEST SWAP1 PUSH1 0x0 MSTORE PUSH1 0x20 PUSH1 0x0 KECCAK256 SWAP1 PUSH1 0x8 MUL ADD PUSH1 0x5 ADD PUSH1 0x0 DUP2 SLOAD DUP1 SWAP3 SWAP2 SWAP1 PUSH2 0xB62 SWAP1 PUSH2 0x238D JUMP JUMPDEST SWAP2 SWAP1 POP SSTORE POP PUSH2 0xB91 PUSH1 0x6 DUP3 DUP2 SLOAD DUP2 LT PUSH2 0xB7E JUMPI PUSH2 0xB7D PUSH2 0x24CB JUMP JUMPDEST JUMPDEST SWAP1 PUSH1 0x0 MSTORE PUSH1 0x20 PUSH1 0x0 KECCAK256 SWAP1 PUSH1 0x8 MUL ADD PUSH2 0x192E JUMP JUMPDEST PUSH1 0x6 DUP2 DUP2 SLOAD DUP2 LT PUSH2 0xBA5 JUMPI PUSH2 0xBA4 PUSH2 0x24CB JUMP JUMPDEST JUMPDEST SWAP1 PUSH1 0x0 MSTORE PUSH1 0x20 PUSH1 0x0 KECCAK256 SWAP1 PUSH1 0x8 MUL ADD PUSH1 0x7 ADD PUSH1 0x0 SWAP1 SLOAD SWAP1 PUSH2 0x100 EXP SWAP1 DIV PUSH4 0xFFFFFFFF AND PUSH4 0xFFFFFFFF AND PUSH1 0x6 DUP7 DUP2 SLOAD DUP2 LT PUSH2 0xBE1 JUMPI PUSH2 0xBE0 PUSH2 0x24CB JUMP JUMPDEST JUMPDEST SWAP1 PUSH1 0x0 MSTORE PUSH1 0x20 PUSH1 0x0 KECCAK256 SWAP1 PUSH1 0x8 MUL ADD PUSH1 0x7 ADD PUSH1 0x0 SWAP1 SLOAD SWAP1 PUSH2 0x100 EXP SWAP1 DIV PUSH4 0xFFFFFFFF AND PUSH4 0xFFFFFFFF AND LT ISZERO PUSH2 0xDE2 JUMPI PUSH1 0x3C DUP3 GT PUSH2 0xD00 JUMPI PUSH2 0xC1F PUSH2 0x194D JUMP JUMPDEST PUSH1 0x6 DUP2 DUP2 SLOAD DUP2 LT PUSH2 0xC33 JUMPI PUSH2 0xC32 PUSH2 0x24CB JUMP JUMPDEST JUMPDEST SWAP1 PUSH1 0x0 MSTORE PUSH1 0x20 PUSH1 0x0 KECCAK256 SWAP1 PUSH1 0x8 MUL ADD PUSH1 0x4 ADD PUSH1 0x0 DUP2 SLOAD DUP1 SWAP3 SWAP2 SWAP1 PUSH2 0xC55 SWAP1 PUSH2 0x238D JUMP JUMPDEST SWAP2 SWAP1 POP SSTORE POP PUSH1 0x6 DUP2 DUP2 SLOAD DUP2 LT PUSH2 0xC6E JUMPI PUSH2 0xC6D PUSH2 0x24CB JUMP JUMPDEST JUMPDEST SWAP1 PUSH1 0x0 MSTORE PUSH1 0x20 PUSH1 0x0 KECCAK256 SWAP1 PUSH1 0x8 MUL ADD PUSH1 0x7 ADD PUSH1 0x0 DUP2 DUP2 SWAP1 SLOAD SWAP1 PUSH2 0x100 EXP SWAP1 DIV PUSH4 0xFFFFFFFF AND DUP1 SWAP3 SWAP2 SWAP1 PUSH2 0xC9F SWAP1 PUSH2 0x23D6 JUMP JUMPDEST SWAP2 SWAP1 PUSH2 0x100 EXP DUP2 SLOAD DUP2 PUSH4 0xFFFFFFFF MUL NOT AND SWAP1 DUP4 PUSH4 0xFFFFFFFF AND MUL OR SWAP1 SSTORE POP POP PUSH1 0x40 MLOAD DUP1 PUSH1 0x40 ADD PUSH1 0x40 MSTORE DUP1 PUSH1 0xA DUP2 MSTORE PUSH1 0x20 ADD PUSH32 0x4861732067616E61646F00000000000000000000000000000000000000000000 DUP2 MSTORE POP SWAP6 POP POP POP POP POP POP PUSH2 0x1220 JUMP JUMPDEST PUSH32 0x6158FC8F21C8CC73DDF920956CC75D0E8A48B4FC85817A0BA89EB3B6D2A75441 PUSH1 0x40 MLOAD PUSH2 0xD2D SWAP1 PUSH2 0x2150 JUMP JUMPDEST PUSH1 0x40 MLOAD DUP1 SWAP2 SUB SWAP1 LOG1 ADDRESS PUSH20 0xFFFFFFFFFFFFFFFFFFFFFFFFFFFFFFFFFFFFFFFF AND PUSH4 0xE172FCA8 DUP6 PUSH1 0x40 MLOAD DUP3 PUSH4 0xFFFFFFFF AND PUSH1 0xE0 SHL DUP2 MSTORE PUSH1 0x4 ADD PUSH2 0xD6E SWAP2 SWAP1 PUSH2 0x1F9F JUMP JUMPDEST PUSH1 0x0 PUSH1 0x40 MLOAD DUP1 DUP4 SUB DUP2 PUSH1 0x0 DUP8 DUP1 EXTCODESIZE ISZERO DUP1 ISZERO PUSH2 0xD88 JUMPI PUSH1 0x0 DUP1 REVERT JUMPDEST POP GAS CALL ISZERO DUP1 ISZERO PUSH2 0xD9C JUMPI RETURNDATASIZE PUSH1 0x0 DUP1 RETURNDATACOPY RETURNDATASIZE PUSH1 0x0 REVERT JUMPDEST POP POP POP POP PUSH1 0x40 MLOAD DUP1 PUSH1 0x40 ADD PUSH1 0x40 MSTORE DUP1 PUSH1 0xB DUP2 MSTORE PUSH1 0x20 ADD PUSH32 0x486173207065726469646F000000000000000000000000000000000000000000 DUP2 MSTORE POP SWAP6 POP POP POP POP POP POP PUSH2 0x1220 JUMP JUMPDEST PUSH1 0x6 DUP2 DUP2 SLOAD DUP2 LT PUSH2 0xDF6 JUMPI PUSH2 0xDF5 PUSH2 0x24CB JUMP JUMPDEST JUMPDEST SWAP1 PUSH1 0x0 MSTORE PUSH1 0x20 PUSH1 0x0 KECCAK256 SWAP1 PUSH1 0x8 MUL ADD PUSH1 0x7 ADD PUSH1 0x0 SWAP1 SLOAD SWAP1 PUSH2 0x100 EXP SWAP1 DIV PUSH4 0xFFFFFFFF AND PUSH4 0xFFFFFFFF AND PUSH1 0x6 DUP7 DUP2 SLOAD DUP2 LT PUSH2 0xE32 JUMPI PUSH2 0xE31 PUSH2 0x24CB JUMP JUMPDEST JUMPDEST SWAP1 PUSH1 0x0 MSTORE PUSH1 0x20 PUSH1 0x0 KECCAK256 SWAP1 PUSH1 0x8 MUL ADD PUSH1 0x7 ADD PUSH1 0x0 SWAP1 SLOAD SWAP1 PUSH2 0x100 EXP SWAP1 DIV PUSH4 0xFFFFFFFF AND PUSH4 0xFFFFFFFF AND EQ ISZERO PUSH2 0x1033 JUMPI PUSH1 0x32 DUP3 GT PUSH2 0xF51 JUMPI PUSH2 0xE70 PUSH2 0x194D JUMP JUMPDEST PUSH1 0x6 DUP2 DUP2 SLOAD DUP2 LT PUSH2 0xE84 JUMPI PUSH2 0xE83 PUSH2 0x24CB JUMP JUMPDEST JUMPDEST SWAP1 PUSH1 0x0 MSTORE PUSH1 0x20 PUSH1 0x0 KECCAK256 SWAP1 PUSH1 0x8 MUL ADD PUSH1 0x4 ADD PUSH1 0x0 DUP2 SLOAD DUP1 SWAP3 SWAP2 SWAP1 PUSH2 0xEA6 SWAP1 PUSH2 0x238D JUMP JUMPDEST SWAP2 SWAP1 POP SSTORE POP PUSH1 0x6 DUP2 DUP2 SLOAD DUP2 LT PUSH2 0xEBF JUMPI PUSH2 0xEBE PUSH2 0x24CB JUMP JUMPDEST JUMPDEST SWAP1 PUSH1 0x0 MSTORE PUSH1 0x20 PUSH1 0x0 KECCAK256 SWAP1 PUSH1 0x8 MUL ADD PUSH1 0x7 ADD PUSH1 0x0 DUP2 DUP2 SWAP1 SLOAD SWAP1 PUSH2 0x100 EXP SWAP1 DIV PUSH4 0xFFFFFFFF AND DUP1 SWAP3 SWAP2 SWAP1 PUSH2 0xEF0 SWAP1 PUSH2 0x23D6 JUMP JUMPDEST SWAP2 SWAP1 PUSH2 0x100 EXP DUP2 SLOAD DUP2 PUSH4 0xFFFFFFFF MUL NOT AND SWAP1 DUP4 PUSH4 0xFFFFFFFF AND MUL OR SWAP1 SSTORE POP POP PUSH1 0x40 MLOAD DUP1 PUSH1 0x40 ADD PUSH1 0x40 MSTORE DUP1 PUSH1 0xA DUP2 MSTORE PUSH1 0x20 ADD PUSH32 0x4861732067616E61646F00000000000000000000000000000000000000000000 DUP2 MSTORE POP SWAP6 POP POP POP POP POP POP PUSH2 0x1220 JUMP JUMPDEST PUSH32 0x6158FC8F21C8CC73DDF920956CC75D0E8A48B4FC85817A0BA89EB3B6D2A75441 PUSH1 0x40 MLOAD PUSH2 0xF7E SWAP1 PUSH2 0x2150 JUMP JUMPDEST PUSH1 0x40 MLOAD DUP1 SWAP2 SUB SWAP1 LOG1 ADDRESS PUSH20 0xFFFFFFFFFFFFFFFFFFFFFFFFFFFFFFFFFFFFFFFF AND PUSH4 0xE172FCA8 DUP6 PUSH1 0x40 MLOAD DUP3 PUSH4 0xFFFFFFFF AND PUSH1 0xE0 SHL DUP2 MSTORE PUSH1 0x4 ADD PUSH2 0xFBF SWAP2 SWAP1 PUSH2 0x1F9F JUMP JUMPDEST PUSH1 0x0 PUSH1 0x40 MLOAD DUP1 DUP4 SUB DUP2 PUSH1 0x0 DUP8 DUP1 EXTCODESIZE ISZERO DUP1 ISZERO PUSH2 0xFD9 JUMPI PUSH1 0x0 DUP1 REVERT JUMPDEST POP GAS CALL ISZERO DUP1 ISZERO PUSH2 0xFED JUMPI RETURNDATASIZE PUSH1 0x0 DUP1 RETURNDATACOPY RETURNDATASIZE PUSH1 0x0 REVERT JUMPDEST POP POP POP POP PUSH1 0x40 MLOAD DUP1 PUSH1 0x40 ADD PUSH1 0x40 MSTORE DUP1 PUSH1 0xB DUP2 MSTORE PUSH1 0x20 ADD PUSH32 0x486173207065726469646F000000000000000000000000000000000000000000 DUP2 MSTORE POP SWAP6 POP POP POP POP POP POP PUSH2 0x1220 JUMP JUMPDEST PUSH1 0x28 DUP3 GT PUSH2 0x1124 JUMPI PUSH2 0x1043 PUSH2 0x194D JUMP JUMPDEST PUSH1 0x6 DUP2 DUP2 SLOAD DUP2 LT PUSH2 0x1057 JUMPI PUSH2 0x1056 PUSH2 0x24CB JUMP JUMPDEST JUMPDEST SWAP1 PUSH1 0x0 MSTORE PUSH1 0x20 PUSH1 0x0 KECCAK256 SWAP1 PUSH1 0x8 MUL ADD PUSH1 0x4 ADD PUSH1 0x0 DUP2 SLOAD DUP1 SWAP3 SWAP2 SWAP1 PUSH2 0x1079 SWAP1 PUSH2 0x238D JUMP JUMPDEST SWAP2 SWAP1 POP SSTORE POP PUSH1 0x6 DUP2 DUP2 SLOAD DUP2 LT PUSH2 0x1092 JUMPI PUSH2 0x1091 PUSH2 0x24CB JUMP JUMPDEST JUMPDEST SWAP1 PUSH1 0x0 MSTORE PUSH1 0x20 PUSH1 0x0 KECCAK256 SWAP1 PUSH1 0x8 MUL ADD PUSH1 0x7 ADD PUSH1 0x0 DUP2 DUP2 SWAP1 SLOAD SWAP1 PUSH2 0x100 EXP SWAP1 DIV PUSH4 0xFFFFFFFF AND DUP1 SWAP3 SWAP2 SWAP1 PUSH2 0x10C3 SWAP1 PUSH2 0x23D6 JUMP JUMPDEST SWAP2 SWAP1 PUSH2 0x100 EXP DUP2 SLOAD DUP2 PUSH4 0xFFFFFFFF MUL NOT AND SWAP1 DUP4 PUSH4 0xFFFFFFFF AND MUL OR SWAP1 SSTORE POP POP PUSH1 0x40 MLOAD DUP1 PUSH1 0x40 ADD PUSH1 0x40 MSTORE DUP1 PUSH1 0xA DUP2 MSTORE PUSH1 0x20 ADD PUSH32 0x4861732067616E61646F00000000000000000000000000000000000000000000 DUP2 MSTORE POP SWAP6 POP POP POP POP POP POP PUSH2 0x1220 JUMP JUMPDEST PUSH32 0x6158FC8F21C8CC73DDF920956CC75D0E8A48B4FC85817A0BA89EB3B6D2A75441 PUSH1 0x40 MLOAD PUSH2 0x1151 SWAP1 PUSH2 0x2150 JUMP JUMPDEST PUSH1 0x40 MLOAD DUP1 SWAP2 SUB SWAP1 LOG1 ADDRESS PUSH20 0xFFFFFFFFFFFFFFFFFFFFFFFFFFFFFFFFFFFFFFFF AND PUSH4 0xE172FCA8 DUP6 PUSH1 0x40 MLOAD DUP3 PUSH4 0xFFFFFFFF AND PUSH1 0xE0 SHL DUP2 MSTORE PUSH1 0x4 ADD PUSH2 0x1192 SWAP2 SWAP1 PUSH2 0x1F9F JUMP JUMPDEST PUSH1 0x0 PUSH1 0x40 MLOAD DUP1 DUP4 SUB DUP2 PUSH1 0x0 DUP8 DUP1 EXTCODESIZE ISZERO DUP1 ISZERO PUSH2 0x11AC JUMPI PUSH1 0x0 DUP1 REVERT JUMPDEST POP GAS CALL ISZERO DUP1 ISZERO PUSH2 0x11C0 JUMPI RETURNDATASIZE PUSH1 0x0 DUP1 RETURNDATACOPY RETURNDATASIZE PUSH1 0x0 REVERT JUMPDEST POP POP POP POP PUSH1 0x40 MLOAD DUP1 PUSH1 0x40 ADD PUSH1 0x40 MSTORE DUP1 PUSH1 0xB DUP2 MSTORE PUSH1 0x20 ADD PUSH32 0x486173207065726469646F000000000000000000000000000000000000000000 DUP2 MSTORE POP SWAP6 POP POP POP POP POP POP PUSH2 0x1220 JUMP JUMPDEST DUP1 DUP1 PUSH2 0x1211 SWAP1 PUSH2 0x238D JUMP JUMPDEST SWAP2 POP POP PUSH2 0xA38 JUMP JUMPDEST POP POP POP POP POP JUMPDEST JUMPDEST SWAP2 SWAP1 POP JUMP JUMPDEST PUSH1 0xA DUP4 DUP2 PUSH1 0x6 DUP3 DUP2 SLOAD DUP2 LT PUSH2 0x123D JUMPI PUSH2 0x123C PUSH2 0x24CB JUMP JUMPDEST JUMPDEST SWAP1 PUSH1 0x0 MSTORE PUSH1 0x20 PUSH1 0x0 KECCAK256 SWAP1 PUSH1 0x8 MUL ADD PUSH1 0x7 ADD PUSH1 0x0 SWAP1 SLOAD SWAP1 PUSH2 0x100 EXP SWAP1 DIV PUSH4 0xFFFFFFFF AND PUSH4 0xFFFFFFFF AND LT ISZERO PUSH2 0x1270 JUMPI PUSH1 0x0 DUP1 REVERT JUMPDEST PUSH1 0x7 PUSH1 0x0 DUP7 DUP2 MSTORE PUSH1 0x20 ADD SWAP1 DUP2 MSTORE PUSH1 0x20 ADD PUSH1 0x0 KECCAK256 PUSH1 0x0 SWAP1 SLOAD SWAP1 PUSH2 0x100 EXP SWAP1 DIV PUSH20 0xFFFFFFFFFFFFFFFFFFFFFFFFFFFFFFFFFFFFFFFF AND PUSH20 0xFFFFFFFFFFFFFFFFFFFFFFFFFFFFFFFFFFFFFFFF AND CALLER PUSH20 0xFFFFFFFFFFFFFFFFFFFFFFFFFFFFFFFFFFFFFFFF AND EQ PUSH2 0x12DB JUMPI PUSH1 0x0 DUP1 REVERT JUMPDEST DUP4 PUSH1 0x6 DUP7 DUP2 SLOAD DUP2 LT PUSH2 0x12F0 JUMPI PUSH2 0x12EF PUSH2 0x24CB JUMP JUMPDEST JUMPDEST SWAP1 PUSH1 0x0 MSTORE PUSH1 0x20 PUSH1 0x0 KECCAK256 SWAP1 PUSH1 0x8 MUL ADD PUSH1 0x1 ADD SWAP1 DUP1 MLOAD SWAP1 PUSH1 0x20 ADD SWAP1 PUSH2 0x1314 SWAP3 SWAP2 SWAP1 PUSH2 0x1A62 JUMP JUMPDEST POP DUP3 PUSH1 0x6 DUP7 DUP2 SLOAD DUP2 LT PUSH2 0x132A JUMPI PUSH2 0x1329 PUSH2 0x24CB JUMP JUMPDEST JUMPDEST SWAP1 PUSH1 0x0 MSTORE PUSH1 0x20 PUSH1 0x0 KECCAK256 SWAP1 PUSH1 0x8 MUL ADD PUSH1 0x2 ADD SWAP1 DUP1 MLOAD SWAP1 PUSH1 0x20 ADD SWAP1 PUSH2 0x134E SWAP3 SWAP2 SWAP1 PUSH2 0x1A62 JUMP JUMPDEST POP POP POP POP POP POP JUMP JUMPDEST PUSH2 0x135E PUSH2 0x1996 JUMP JUMPDEST PUSH20 0xFFFFFFFFFFFFFFFFFFFFFFFFFFFFFFFFFFFFFFFF AND PUSH2 0x137C PUSH2 0x1411 JUMP JUMPDEST PUSH20 0xFFFFFFFFFFFFFFFFFFFFFFFFFFFFFFFFFFFFFFFF AND EQ PUSH2 0x13D2 JUMPI PUSH1 0x40 MLOAD PUSH32 0x8C379A000000000000000000000000000000000000000000000000000000000 DUP2 MSTORE PUSH1 0x4 ADD PUSH2 0x13C9 SWAP1 PUSH2 0x2130 JUMP JUMPDEST PUSH1 0x40 MLOAD DUP1 SWAP2 SUB SWAP1 REVERT JUMPDEST PUSH2 0x13DC PUSH1 0x0 PUSH2 0x199E JUMP JUMPDEST JUMP JUMPDEST PUSH1 0x7 PUSH1 0x20 MSTORE DUP1 PUSH1 0x0 MSTORE PUSH1 0x40 PUSH1 0x0 KECCAK256 PUSH1 0x0 SWAP2 POP SLOAD SWAP1 PUSH2 0x100 EXP SWAP1 DIV PUSH20 0xFFFFFFFFFFFFFFFFFFFFFFFFFFFFFFFFFFFFFFFF AND DUP2 JUMP JUMPDEST PUSH1 0x0 DUP1 PUSH1 0x0 SWAP1 SLOAD SWAP1 PUSH2 0x100 EXP SWAP1 DIV PUSH20 0xFFFFFFFFFFFFFFFFFFFFFFFFFFFFFFFFFFFFFFFF AND SWAP1 POP SWAP1 JUMP JUMPDEST PUSH1 0x0 DUP1 SLOAD SWAP1 PUSH2 0x100 EXP SWAP1 DIV PUSH20 0xFFFFFFFFFFFFFFFFFFFFFFFFFFFFFFFFFFFFFFFF AND DUP2 JUMP JUMPDEST PUSH1 0x6 DUP2 DUP2 SLOAD DUP2 LT PUSH2 0x146E JUMPI PUSH1 0x0 DUP1 REVERT JUMPDEST SWAP1 PUSH1 0x0 MSTORE PUSH1 0x20 PUSH1 0x0 KECCAK256 SWAP1 PUSH1 0x8 MUL ADD PUSH1 0x0 SWAP2 POP SWAP1 POP DUP1 PUSH1 0x0 ADD PUSH1 0x0 SWAP1 SLOAD SWAP1 PUSH2 0x100 EXP SWAP1 DIV PUSH20 0xFFFFFFFFFFFFFFFFFFFFFFFFFFFFFFFFFFFFFFFF AND SWAP1 DUP1 PUSH1 0x1 ADD DUP1 SLOAD PUSH2 0x14B7 SWAP1 PUSH2 0x232A JUMP JUMPDEST DUP1 PUSH1 0x1F ADD PUSH1 0x20 DUP1 SWAP2 DIV MUL PUSH1 0x20 ADD PUSH1 0x40 MLOAD SWAP1 DUP2 ADD PUSH1 0x40 MSTORE DUP1 SWAP3 SWAP2 SWAP1 DUP2 DUP2 MSTORE PUSH1 0x20 ADD DUP3 DUP1 SLOAD PUSH2 0x14E3 SWAP1 PUSH2 0x232A JUMP JUMPDEST DUP1 ISZERO PUSH2 0x1530 JUMPI DUP1 PUSH1 0x1F LT PUSH2 0x1505 JUMPI PUSH2 0x100 DUP1 DUP4 SLOAD DIV MUL DUP4 MSTORE SWAP2 PUSH1 0x20 ADD SWAP2 PUSH2 0x1530 JUMP JUMPDEST DUP3 ADD SWAP2 SWAP1 PUSH1 0x0 MSTORE PUSH1 0x20 PUSH1 0x0 KECCAK256 SWAP1 JUMPDEST DUP2 SLOAD DUP2 MSTORE SWAP1 PUSH1 0x1 ADD SWAP1 PUSH1 0x20 ADD DUP1 DUP4 GT PUSH2 0x1513 JUMPI DUP3 SWAP1 SUB PUSH1 0x1F AND DUP3 ADD SWAP2 JUMPDEST POP POP POP POP POP SWAP1 DUP1 PUSH1 0x2 ADD DUP1 SLOAD PUSH2 0x1545 SWAP1 PUSH2 0x232A JUMP JUMPDEST DUP1 PUSH1 0x1F ADD PUSH1 0x20 DUP1 SWAP2 DIV MUL PUSH1 0x20 ADD PUSH1 0x40 MLOAD SWAP1 DUP2 ADD PUSH1 0x40 MSTORE DUP1 SWAP3 SWAP2 SWAP1 DUP2 DUP2 MSTORE PUSH1 0x20 ADD DUP3 DUP1 SLOAD PUSH2 0x1571 SWAP1 PUSH2 0x232A JUMP JUMPDEST DUP1 ISZERO PUSH2 0x15BE JUMPI DUP1 PUSH1 0x1F LT PUSH2 0x1593 JUMPI PUSH2 0x100 DUP1 DUP4 SLOAD DIV MUL DUP4 MSTORE SWAP2 PUSH1 0x20 ADD SWAP2 PUSH2 0x15BE JUMP JUMPDEST DUP3 ADD SWAP2 SWAP1 PUSH1 0x0 MSTORE PUSH1 0x20 PUSH1 0x0 KECCAK256 SWAP1 JUMPDEST DUP2 SLOAD DUP2 MSTORE SWAP1 PUSH1 0x1 ADD SWAP1 PUSH1 0x20 ADD DUP1 DUP4 GT PUSH2 0x15A1 JUMPI DUP3 SWAP1 SUB PUSH1 0x1F AND DUP3 ADD SWAP2 JUMPDEST POP POP POP POP POP SWAP1 DUP1 PUSH1 0x3 ADD DUP1 SLOAD PUSH2 0x15D3 SWAP1 PUSH2 0x232A JUMP JUMPDEST DUP1 PUSH1 0x1F ADD PUSH1 0x20 DUP1 SWAP2 DIV MUL PUSH1 0x20 ADD PUSH1 0x40 MLOAD SWAP1 DUP2 ADD PUSH1 0x40 MSTORE DUP1 SWAP3 SWAP2 SWAP1 DUP2 DUP2 MSTORE PUSH1 0x20 ADD DUP3 DUP1 SLOAD PUSH2 0x15FF SWAP1 PUSH2 0x232A JUMP JUMPDEST DUP1 ISZERO PUSH2 0x164C JUMPI DUP1 PUSH1 0x1F LT PUSH2 0x1621 JUMPI PUSH2 0x100 DUP1 DUP4 SLOAD DIV MUL DUP4 MSTORE SWAP2 PUSH1 0x20 ADD SWAP2 PUSH2 0x164C JUMP JUMPDEST DUP3 ADD SWAP2 SWAP1 PUSH1 0x0 MSTORE PUSH1 0x20 PUSH1 0x0 KECCAK256 SWAP1 JUMPDEST DUP2 SLOAD DUP2 MSTORE SWAP1 PUSH1 0x1 ADD SWAP1 PUSH1 0x20 ADD DUP1 DUP4 GT PUSH2 0x162F JUMPI DUP3 SWAP1 SUB PUSH1 0x1F AND DUP3 ADD SWAP2 JUMPDEST POP POP POP POP POP SWAP1 DUP1 PUSH1 0x4 ADD SLOAD SWAP1 DUP1 PUSH1 0x5 ADD SLOAD SWAP1 DUP1 PUSH1 0x6 ADD SLOAD SWAP1 DUP1 PUSH1 0x7 ADD PUSH1 0x0 SWAP1 SLOAD SWAP1 PUSH2 0x100 EXP SWAP1 DIV PUSH4 0xFFFFFFFF AND SWAP1 POP DUP9 JUMP JUMPDEST PUSH1 0x0 JUMPDEST PUSH1 0x6 DUP1 SLOAD SWAP1 POP DUP2 LT ISZERO PUSH2 0x1821 JUMPI DUP2 PUSH20 0xFFFFFFFFFFFFFFFFFFFFFFFFFFFFFFFFFFFFFFFF AND PUSH1 0x6 DUP3 DUP2 SLOAD DUP2 LT PUSH2 0x16B9 JUMPI PUSH2 0x16B8 PUSH2 0x24CB JUMP JUMPDEST JUMPDEST SWAP1 PUSH1 0x0 MSTORE PUSH1 0x20 PUSH1 0x0 KECCAK256 SWAP1 PUSH1 0x8 MUL ADD PUSH1 0x0 ADD PUSH1 0x0 SWAP1 SLOAD SWAP1 PUSH2 0x100 EXP SWAP1 DIV PUSH20 0xFFFFFFFFFFFFFFFFFFFFFFFFFFFFFFFFFFFFFFFF AND PUSH20 0xFFFFFFFFFFFFFFFFFFFFFFFFFFFFFFFFFFFFFFFF AND EQ ISZERO PUSH2 0x180E JUMPI PUSH32 0x20FDB8AB571BFBAB79104BEA84F9C31CB79C5AE45B5F515C1D6C8393E0028350 PUSH1 0x6 DUP3 DUP2 SLOAD DUP2 LT PUSH2 0x173C JUMPI PUSH2 0x173B PUSH2 0x24CB JUMP JUMPDEST JUMPDEST SWAP1 PUSH1 0x0 MSTORE PUSH1 0x20 PUSH1 0x0 KECCAK256 SWAP1 PUSH1 0x8 MUL ADD PUSH1 0x2 ADD PUSH1 0x6 DUP4 DUP2 SLOAD DUP2 LT PUSH2 0x1761 JUMPI PUSH2 0x1760 PUSH2 0x24CB JUMP JUMPDEST JUMPDEST SWAP1 PUSH1 0x0 MSTORE PUSH1 0x20 PUSH1 0x0 KECCAK256 SWAP1 PUSH1 0x8 MUL ADD PUSH1 0x1 ADD PUSH1 0x6 DUP5 DUP2 SLOAD DUP2 LT PUSH2 0x1786 JUMPI PUSH2 0x1785 PUSH2 0x24CB JUMP JUMPDEST JUMPDEST SWAP1 PUSH1 0x0 MSTORE PUSH1 0x20 PUSH1 0x0 KECCAK256 SWAP1 PUSH1 0x8 MUL ADD PUSH1 0x7 ADD PUSH1 0x0 SWAP1 SLOAD SWAP1 PUSH2 0x100 EXP SWAP1 DIV PUSH4 0xFFFFFFFF AND PUSH1 0x6 DUP6 DUP2 SLOAD DUP2 LT PUSH2 0x17BC JUMPI PUSH2 0x17BB PUSH2 0x24CB JUMP JUMPDEST JUMPDEST SWAP1 PUSH1 0x0 MSTORE PUSH1 0x20 PUSH1 0x0 KECCAK256 SWAP1 PUSH1 0x8 MUL ADD PUSH1 0x4 ADD SLOAD PUSH1 0x6 DUP7 DUP2 SLOAD DUP2 LT PUSH2 0x17E2 JUMPI PUSH2 0x17E1 PUSH2 0x24CB JUMP JUMPDEST JUMPDEST SWAP1 PUSH1 0x0 MSTORE PUSH1 0x20 PUSH1 0x0 KECCAK256 SWAP1 PUSH1 0x8 MUL ADD PUSH1 0x5 ADD SLOAD PUSH1 0x40 MLOAD PUSH2 0x1805 SWAP6 SWAP5 SWAP4 SWAP3 SWAP2 SWAP1 PUSH2 0x206F JUMP JUMPDEST PUSH1 0x40 MLOAD DUP1 SWAP2 SUB SWAP1 LOG1 JUMPDEST DUP1 DUP1 PUSH2 0x1819 SWAP1 PUSH2 0x238D JUMP JUMPDEST SWAP2 POP POP PUSH2 0x1681 JUMP JUMPDEST POP POP JUMP JUMPDEST PUSH2 0x182D PUSH2 0x1996 JUMP JUMPDEST PUSH20 0xFFFFFFFFFFFFFFFFFFFFFFFFFFFFFFFFFFFFFFFF AND PUSH2 0x184B PUSH2 0x1411 JUMP JUMPDEST PUSH20 0xFFFFFFFFFFFFFFFFFFFFFFFFFFFFFFFFFFFFFFFF AND EQ PUSH2 0x18A1 JUMPI PUSH1 0x40 MLOAD PUSH32 0x8C379A000000000000000000000000000000000000000000000000000000000 DUP2 MSTORE PUSH1 0x4 ADD PUSH2 0x1898 SWAP1 PUSH2 0x2130 JUMP JUMPDEST PUSH1 0x40 MLOAD DUP1 SWAP2 SUB SWAP1 REVERT JUMPDEST PUSH1 0x0 PUSH20 0xFFFFFFFFFFFFFFFFFFFFFFFFFFFFFFFFFFFFFFFF AND DUP2 PUSH20 0xFFFFFFFFFFFFFFFFFFFFFFFFFFFFFFFFFFFFFFFF AND EQ ISZERO PUSH2 0x1911 JUMPI PUSH1 0x40 MLOAD PUSH32 0x8C379A000000000000000000000000000000000000000000000000000000000 DUP2 MSTORE PUSH1 0x4 ADD PUSH2 0x1908 SWAP1 PUSH2 0x20F0 JUMP JUMPDEST PUSH1 0x40 MLOAD DUP1 SWAP2 SUB SWAP1 REVERT JUMPDEST PUSH2 0x191A DUP2 PUSH2 0x199E JUMP JUMPDEST POP JUMP JUMPDEST PUSH1 0x0 TIMESTAMP DUP3 PUSH1 0x6 ADD SLOAD GT ISZERO SWAP1 POP SWAP2 SWAP1 POP JUMP JUMPDEST PUSH1 0x3 SLOAD TIMESTAMP PUSH2 0x193C SWAP2 SWAP1 PUSH2 0x2212 JUMP JUMPDEST PUSH4 0xFFFFFFFF AND DUP2 PUSH1 0x6 ADD DUP2 SWAP1 SSTORE POP POP JUMP JUMPDEST CALLER PUSH20 0xFFFFFFFFFFFFFFFFFFFFFFFFFFFFFFFFFFFFFFFF AND PUSH2 0x8FC SELFBALANCE SWAP1 DUP2 ISZERO MUL SWAP1 PUSH1 0x40 MLOAD PUSH1 0x0 PUSH1 0x40 MLOAD DUP1 DUP4 SUB DUP2 DUP6 DUP9 DUP9 CALL SWAP4 POP POP POP POP ISZERO DUP1 ISZERO PUSH2 0x1993 JUMPI RETURNDATASIZE PUSH1 0x0 DUP1 RETURNDATACOPY RETURNDATASIZE PUSH1 0x0 REVERT JUMPDEST POP JUMP JUMPDEST PUSH1 0x0 CALLER SWAP1 POP SWAP1 JUMP JUMPDEST PUSH1 0x0 DUP1 PUSH1 0x0 SWAP1 SLOAD SWAP1 PUSH2 0x100 EXP SWAP1 DIV PUSH20 0xFFFFFFFFFFFFFFFFFFFFFFFFFFFFFFFFFFFFFFFF AND SWAP1 POP DUP2 PUSH1 0x0 DUP1 PUSH2 0x100 EXP DUP2 SLOAD DUP2 PUSH20 0xFFFFFFFFFFFFFFFFFFFFFFFFFFFFFFFFFFFFFFFF MUL NOT AND SWAP1 DUP4 PUSH20 0xFFFFFFFFFFFFFFFFFFFFFFFFFFFFFFFFFFFFFFFF AND MUL OR SWAP1 SSTORE POP DUP2 PUSH20 0xFFFFFFFFFFFFFFFFFFFFFFFFFFFFFFFFFFFFFFFF AND DUP2 PUSH20 0xFFFFFFFFFFFFFFFFFFFFFFFFFFFFFFFFFFFFFFFF AND PUSH32 0x8BE0079C531659141344CD1FD0A4F28419497F9722A3DAAFE3B4186F6B6457E0 PUSH1 0x40 MLOAD PUSH1 0x40 MLOAD DUP1 SWAP2 SUB SWAP1 LOG3 POP POP JUMP JUMPDEST DUP3 DUP1 SLOAD PUSH2 0x1A6E SWAP1 PUSH2 0x232A JUMP JUMPDEST SWAP1 PUSH1 0x0 MSTORE PUSH1 0x20 PUSH1 0x0 KECCAK256 SWAP1 PUSH1 0x1F ADD PUSH1 0x20 SWAP1 DIV DUP2 ADD SWAP3 DUP3 PUSH2 0x1A90 JUMPI PUSH1 0x0 DUP6 SSTORE PUSH2 0x1AD7 JUMP JUMPDEST DUP3 PUSH1 0x1F LT PUSH2 0x1AA9 JUMPI DUP1 MLOAD PUSH1 0xFF NOT AND DUP4 DUP1 ADD OR DUP6 SSTORE PUSH2 0x1AD7 JUMP JUMPDEST DUP3 DUP1 ADD PUSH1 0x1 ADD DUP6 SSTORE DUP3 ISZERO PUSH2 0x1AD7 JUMPI SWAP2 DUP3 ADD JUMPDEST DUP3 DUP2 GT ISZERO PUSH2 0x1AD6 JUMPI DUP3 MLOAD DUP3 SSTORE SWAP2 PUSH1 0x20 ADD SWAP2 SWAP1 PUSH1 0x1 ADD SWAP1 PUSH2 0x1ABB JUMP JUMPDEST JUMPDEST POP SWAP1 POP PUSH2 0x1AE4 SWAP2 SWAP1 PUSH2 0x1AE8 JUMP JUMPDEST POP SWAP1 JUMP JUMPDEST JUMPDEST DUP1 DUP3 GT ISZERO PUSH2 0x1B01 JUMPI PUSH1 0x0 DUP2 PUSH1 0x0 SWAP1 SSTORE POP PUSH1 0x1 ADD PUSH2 0x1AE9 JUMP JUMPDEST POP SWAP1 JUMP JUMPDEST PUSH1 0x0 PUSH2 0x1B18 PUSH2 0x1B13 DUP5 PUSH2 0x21B0 JUMP JUMPDEST PUSH2 0x218B JUMP JUMPDEST SWAP1 POP DUP3 DUP2 MSTORE PUSH1 0x20 DUP2 ADD DUP5 DUP5 DUP5 ADD GT ISZERO PUSH2 0x1B34 JUMPI PUSH2 0x1B33 PUSH2 0x252E JUMP JUMPDEST JUMPDEST PUSH2 0x1B3F DUP5 DUP3 DUP6 PUSH2 0x22E8 JUMP JUMPDEST POP SWAP4 SWAP3 POP POP POP JUMP JUMPDEST PUSH1 0x0 DUP2 CALLDATALOAD SWAP1 POP PUSH2 0x1B56 DUP2 PUSH2 0x268D JUMP JUMPDEST SWAP3 SWAP2 POP POP JUMP JUMPDEST PUSH1 0x0 DUP3 PUSH1 0x1F DUP4 ADD SLT PUSH2 0x1B71 JUMPI PUSH2 0x1B70 PUSH2 0x2529 JUMP JUMPDEST JUMPDEST DUP2 CALLDATALOAD PUSH2 0x1B81 DUP5 DUP3 PUSH1 0x20 DUP7 ADD PUSH2 0x1B05 JUMP JUMPDEST SWAP2 POP POP SWAP3 SWAP2 POP POP JUMP JUMPDEST PUSH1 0x0 DUP2 CALLDATALOAD SWAP1 POP PUSH2 0x1B99 DUP2 PUSH2 0x26A4 JUMP JUMPDEST SWAP3 SWAP2 POP POP JUMP JUMPDEST PUSH1 0x0 PUSH1 0x20 DUP3 DUP5 SUB SLT ISZERO PUSH2 0x1BB5 JUMPI PUSH2 0x1BB4 PUSH2 0x2538 JUMP JUMPDEST JUMPDEST PUSH1 0x0 PUSH2 0x1BC3 DUP5 DUP3 DUP6 ADD PUSH2 0x1B47 JUMP JUMPDEST SWAP2 POP POP SWAP3 SWAP2 POP POP JUMP JUMPDEST PUSH1 0x0 DUP1 PUSH1 0x0 PUSH1 0x60 DUP5 DUP7 SUB SLT ISZERO PUSH2 0x1BE5 JUMPI PUSH2 0x1BE4 PUSH2 0x2538 JUMP JUMPDEST JUMPDEST PUSH1 0x0 PUSH2 0x1BF3 DUP7 DUP3 DUP8 ADD PUSH2 0x1B47 JUMP JUMPDEST SWAP4 POP POP PUSH1 0x20 DUP5 ADD CALLDATALOAD PUSH8 0xFFFFFFFFFFFFFFFF DUP2 GT ISZERO PUSH2 0x1C14 JUMPI PUSH2 0x1C13 PUSH2 0x2533 JUMP JUMPDEST JUMPDEST PUSH2 0x1C20 DUP7 DUP3 DUP8 ADD PUSH2 0x1B5C JUMP JUMPDEST SWAP3 POP POP PUSH1 0x40 DUP5 ADD CALLDATALOAD PUSH8 0xFFFFFFFFFFFFFFFF DUP2 GT ISZERO PUSH2 0x1C41 JUMPI PUSH2 0x1C40 PUSH2 0x2533 JUMP JUMPDEST JUMPDEST PUSH2 0x1C4D DUP7 DUP3 DUP8 ADD PUSH2 0x1B5C JUMP JUMPDEST SWAP2 POP POP SWAP3 POP SWAP3 POP SWAP3 JUMP JUMPDEST PUSH1 0x0 DUP1 PUSH1 0x0 PUSH1 0x60 DUP5 DUP7 SUB SLT ISZERO PUSH2 0x1C70 JUMPI PUSH2 0x1C6F PUSH2 0x2538 JUMP JUMPDEST JUMPDEST PUSH1 0x0 DUP5 ADD CALLDATALOAD PUSH8 0xFFFFFFFFFFFFFFFF DUP2 GT ISZERO PUSH2 0x1C8E JUMPI PUSH2 0x1C8D PUSH2 0x2533 JUMP JUMPDEST JUMPDEST PUSH2 0x1C9A DUP7 DUP3 DUP8 ADD PUSH2 0x1B5C JUMP JUMPDEST SWAP4 POP POP PUSH1 0x20 DUP5 ADD CALLDATALOAD PUSH8 0xFFFFFFFFFFFFFFFF DUP2 GT ISZERO PUSH2 0x1CBB JUMPI PUSH2 0x1CBA PUSH2 0x2533 JUMP JUMPDEST JUMPDEST PUSH2 0x1CC7 DUP7 DUP3 DUP8 ADD PUSH2 0x1B5C JUMP JUMPDEST SWAP3 POP POP PUSH1 0x40 DUP5 ADD CALLDATALOAD PUSH8 0xFFFFFFFFFFFFFFFF DUP2 GT ISZERO PUSH2 0x1CE8 JUMPI PUSH2 0x1CE7 PUSH2 0x2533 JUMP JUMPDEST JUMPDEST PUSH2 0x1CF4 DUP7 DUP3 DUP8 ADD PUSH2 0x1B5C JUMP JUMPDEST SWAP2 POP POP SWAP3 POP SWAP3 POP SWAP3 JUMP JUMPDEST PUSH1 0x0 PUSH1 0x20 DUP3 DUP5 SUB SLT ISZERO PUSH2 0x1D14 JUMPI PUSH2 0x1D13 PUSH2 0x2538 JUMP JUMPDEST JUMPDEST PUSH1 0x0 PUSH2 0x1D22 DUP5 DUP3 DUP6 ADD PUSH2 0x1B8A JUMP JUMPDEST SWAP2 POP POP SWAP3 SWAP2 POP POP JUMP JUMPDEST PUSH1 0x0 DUP1 PUSH1 0x0 PUSH1 0x60 DUP5 DUP7 SUB SLT ISZERO PUSH2 0x1D44 JUMPI PUSH2 0x1D43 PUSH2 0x2538 JUMP JUMPDEST JUMPDEST PUSH1 0x0 PUSH2 0x1D52 DUP7 DUP3 DUP8 ADD PUSH2 0x1B8A JUMP JUMPDEST SWAP4 POP POP PUSH1 0x20 DUP5 ADD CALLDATALOAD PUSH8 0xFFFFFFFFFFFFFFFF DUP2 GT ISZERO PUSH2 0x1D73 JUMPI PUSH2 0x1D72 PUSH2 0x2533 JUMP JUMPDEST JUMPDEST PUSH2 0x1D7F DUP7 DUP3 DUP8 ADD PUSH2 0x1B5C JUMP JUMPDEST SWAP3 POP POP PUSH1 0x40 DUP5 ADD CALLDATALOAD PUSH8 0xFFFFFFFFFFFFFFFF DUP2 GT ISZERO PUSH2 0x1DA0 JUMPI PUSH2 0x1D9F PUSH2 0x2533 JUMP JUMPDEST JUMPDEST PUSH2 0x1DAC DUP7 DUP3 DUP8 ADD PUSH2 0x1B5C JUMP JUMPDEST SWAP2 POP POP SWAP3 POP SWAP3 POP SWAP3 JUMP JUMPDEST PUSH2 0x1DBF DUP2 PUSH2 0x229C JUMP JUMPDEST DUP3 MSTORE POP POP JUMP JUMPDEST PUSH1 0x0 PUSH2 0x1DD0 DUP3 PUSH2 0x21F6 JUMP JUMPDEST PUSH2 0x1DDA DUP2 DUP6 PUSH2 0x2201 JUMP JUMPDEST SWAP4 POP PUSH2 0x1DEA DUP2 DUP6 PUSH1 0x20 DUP7 ADD PUSH2 0x22F7 JUMP JUMPDEST PUSH2 0x1DF3 DUP2 PUSH2 0x253D JUMP JUMPDEST DUP5 ADD SWAP2 POP POP SWAP3 SWAP2 POP POP JUMP JUMPDEST PUSH1 0x0 DUP2 SLOAD PUSH2 0x1E0B DUP2 PUSH2 0x232A JUMP JUMPDEST PUSH2 0x1E15 DUP2 DUP7 PUSH2 0x2201 JUMP JUMPDEST SWAP5 POP PUSH1 0x1 DUP3 AND PUSH1 0x0 DUP2 EQ PUSH2 0x1E30 JUMPI PUSH1 0x1 DUP2 EQ PUSH2 0x1E42 JUMPI PUSH2 0x1E75 JUMP JUMPDEST PUSH1 0xFF NOT DUP4 AND DUP7 MSTORE PUSH1 0x20 DUP7 ADD SWAP4 POP PUSH2 0x1E75 JUMP JUMPDEST PUSH2 0x1E4B DUP6 PUSH2 0x21E1 JUMP JUMPDEST PUSH1 0x0 JUMPDEST DUP4 DUP2 LT ISZERO PUSH2 0x1E6D JUMPI DUP2 SLOAD DUP2 DUP10 ADD MSTORE PUSH1 0x1 DUP3 ADD SWAP2 POP PUSH1 0x20 DUP2 ADD SWAP1 POP PUSH2 0x1E4E JUMP JUMPDEST DUP1 DUP9 ADD SWAP6 POP POP POP JUMPDEST POP POP POP SWAP3 SWAP2 POP POP JUMP JUMPDEST PUSH1 0x0 PUSH2 0x1E8B PUSH1 0x28 DUP4 PUSH2 0x2201 JUMP JUMPDEST SWAP2 POP PUSH2 0x1E96 DUP3 PUSH2 0x254E JUMP JUMPDEST PUSH1 0x40 DUP3 ADD SWAP1 POP SWAP2 SWAP1 POP JUMP JUMPDEST PUSH1 0x0 PUSH2 0x1EAE PUSH1 0x26 DUP4 PUSH2 0x2201 JUMP JUMPDEST SWAP2 POP PUSH2 0x1EB9 DUP3 PUSH2 0x259D JUMP JUMPDEST PUSH1 0x40 DUP3 ADD SWAP1 POP SWAP2 SWAP1 POP JUMP JUMPDEST PUSH1 0x0 PUSH2 0x1ED1 PUSH1 0x32 DUP4 PUSH2 0x2201 JUMP JUMPDEST SWAP2 POP PUSH2 0x1EDC DUP3 PUSH2 0x25EC JUMP JUMPDEST PUSH1 0x40 DUP3 ADD SWAP1 POP SWAP2 SWAP1 POP JUMP JUMPDEST PUSH1 0x0 PUSH2 0x1EF4 PUSH1 0x20 DUP4 PUSH2 0x2201 JUMP JUMPDEST SWAP2 POP PUSH2 0x1EFF DUP3 PUSH2 0x263B JUMP JUMPDEST PUSH1 0x20 DUP3 ADD SWAP1 POP SWAP2 SWAP1 POP JUMP JUMPDEST PUSH1 0x0 PUSH2 0x1F17 PUSH1 0x15 DUP4 PUSH2 0x2201 JUMP JUMPDEST SWAP2 POP PUSH2 0x1F22 DUP3 PUSH2 0x2664 JUMP JUMPDEST PUSH1 0x20 DUP3 ADD SWAP1 POP SWAP2 SWAP1 POP JUMP JUMPDEST PUSH2 0x1F36 DUP2 PUSH2 0x22CE JUMP JUMPDEST DUP3 MSTORE POP POP JUMP JUMPDEST PUSH2 0x1F4D PUSH2 0x1F48 DUP3 PUSH2 0x22CE JUMP JUMPDEST PUSH2 0x2403 JUMP JUMPDEST DUP3 MSTORE POP POP JUMP JUMPDEST PUSH2 0x1F5C DUP2 PUSH2 0x22D8 JUMP JUMPDEST DUP3 MSTORE POP POP JUMP JUMPDEST PUSH1 0x0 PUSH2 0x1F6E DUP3 DUP7 PUSH2 0x1F3C JUMP JUMPDEST PUSH1 0x20 DUP3 ADD SWAP2 POP PUSH2 0x1F7E DUP3 DUP6 PUSH2 0x1F3C JUMP JUMPDEST PUSH1 0x20 DUP3 ADD SWAP2 POP PUSH2 0x1F8E DUP3 DUP5 PUSH2 0x1F3C JUMP JUMPDEST PUSH1 0x20 DUP3 ADD SWAP2 POP DUP2 SWAP1 POP SWAP5 SWAP4 POP POP POP POP JUMP JUMPDEST PUSH1 0x0 PUSH1 0x20 DUP3 ADD SWAP1 POP PUSH2 0x1FB4 PUSH1 0x0 DUP4 ADD DUP5 PUSH2 0x1DB6 JUMP JUMPDEST SWAP3 SWAP2 POP POP JUMP JUMPDEST PUSH1 0x0 PUSH2 0x100 DUP3 ADD SWAP1 POP PUSH2 0x1FD0 PUSH1 0x0 DUP4 ADD DUP12 PUSH2 0x1DB6 JUMP JUMPDEST DUP2 DUP2 SUB PUSH1 0x20 DUP4 ADD MSTORE PUSH2 0x1FE2 DUP2 DUP11 PUSH2 0x1DC5 JUMP JUMPDEST SWAP1 POP DUP2 DUP2 SUB PUSH1 0x40 DUP4 ADD MSTORE PUSH2 0x1FF6 DUP2 DUP10 PUSH2 0x1DC5 JUMP JUMPDEST SWAP1 POP DUP2 DUP2 SUB PUSH1 0x60 DUP4 ADD MSTORE PUSH2 0x200A DUP2 DUP9 PUSH2 0x1DC5 JUMP JUMPDEST SWAP1 POP PUSH2 0x2019 PUSH1 0x80 DUP4 ADD DUP8 PUSH2 0x1F2D JUMP JUMPDEST PUSH2 0x2026 PUSH1 0xA0 DUP4 ADD DUP7 PUSH2 0x1F2D JUMP JUMPDEST PUSH2 0x2033 PUSH1 0xC0 DUP4 ADD DUP6 PUSH2 0x1F2D JUMP JUMPDEST PUSH2 0x2040 PUSH1 0xE0 DUP4 ADD DUP5 PUSH2 0x1F53 JUMP JUMPDEST SWAP10 SWAP9 POP POP POP POP POP POP POP POP POP JUMP JUMPDEST PUSH1 0x0 PUSH1 0x20 DUP3 ADD SWAP1 POP DUP2 DUP2 SUB PUSH1 0x0 DUP4 ADD MSTORE PUSH2 0x2067 DUP2 DUP5 PUSH2 0x1DC5 JUMP JUMPDEST SWAP1 POP SWAP3 SWAP2 POP POP JUMP JUMPDEST PUSH1 0x0 PUSH1 0xA0 DUP3 ADD SWAP1 POP DUP2 DUP2 SUB PUSH1 0x0 DUP4 ADD MSTORE PUSH2 0x2089 DUP2 DUP9 PUSH2 0x1DFE JUMP JUMPDEST SWAP1 POP DUP2 DUP2 SUB PUSH1 0x20 DUP4 ADD MSTORE PUSH2 0x209D DUP2 DUP8 PUSH2 0x1DFE JUMP JUMPDEST SWAP1 POP PUSH2 0x20AC PUSH1 0x40 DUP4 ADD DUP7 PUSH2 0x1F53 JUMP JUMPDEST PUSH2 0x20B9 PUSH1 0x60 DUP4 ADD DUP6 PUSH2 0x1F2D JUMP JUMPDEST PUSH2 0x20C6 PUSH1 0x80 DUP4 ADD DUP5 PUSH2 0x1F2D JUMP JUMPDEST SWAP7 SWAP6 POP POP POP POP POP POP JUMP JUMPDEST PUSH1 0x0 PUSH1 0x20 DUP3 ADD SWAP1 POP DUP2 DUP2 SUB PUSH1 0x0 DUP4 ADD MSTORE PUSH2 0x20E9 DUP2 PUSH2 0x1E7E JUMP JUMPDEST SWAP1 POP SWAP2 SWAP1 POP JUMP JUMPDEST PUSH1 0x0 PUSH1 0x20 DUP3 ADD SWAP1 POP DUP2 DUP2 SUB PUSH1 0x0 DUP4 ADD MSTORE PUSH2 0x2109 DUP2 PUSH2 0x1EA1 JUMP JUMPDEST SWAP1 POP SWAP2 SWAP1 POP JUMP JUMPDEST PUSH1 0x0 PUSH1 0x20 DUP3 ADD SWAP1 POP DUP2 DUP2 SUB PUSH1 0x0 DUP4 ADD MSTORE PUSH2 0x2129 DUP2 PUSH2 0x1EC4 JUMP JUMPDEST SWAP1 POP SWAP2 SWAP1 POP JUMP JUMPDEST PUSH1 0x0 PUSH1 0x20 DUP3 ADD SWAP1 POP DUP2 DUP2 SUB PUSH1 0x0 DUP4 ADD MSTORE PUSH2 0x2149 DUP2 PUSH2 0x1EE7 JUMP JUMPDEST SWAP1 POP SWAP2 SWAP1 POP JUMP JUMPDEST PUSH1 0x0 PUSH1 0x20 DUP3 ADD SWAP1 POP DUP2 DUP2 SUB PUSH1 0x0 DUP4 ADD MSTORE PUSH2 0x2169 DUP2 PUSH2 0x1F0A JUMP JUMPDEST SWAP1 POP SWAP2 SWAP1 POP JUMP JUMPDEST PUSH1 0x0 PUSH1 0x20 DUP3 ADD SWAP1 POP PUSH2 0x2185 PUSH1 0x0 DUP4 ADD DUP5 PUSH2 0x1F2D JUMP JUMPDEST SWAP3 SWAP2 POP POP JUMP JUMPDEST PUSH1 0x0 PUSH2 0x2195 PUSH2 0x21A6 JUMP JUMPDEST SWAP1 POP PUSH2 0x21A1 DUP3 DUP3 PUSH2 0x235C JUMP JUMPDEST SWAP2 SWAP1 POP JUMP JUMPDEST PUSH1 0x0 PUSH1 0x40 MLOAD SWAP1 POP SWAP1 JUMP JUMPDEST PUSH1 0x0 PUSH8 0xFFFFFFFFFFFFFFFF DUP3 GT ISZERO PUSH2 0x21CB JUMPI PUSH2 0x21CA PUSH2 0x24FA JUMP JUMPDEST JUMPDEST PUSH2 0x21D4 DUP3 PUSH2 0x253D JUMP JUMPDEST SWAP1 POP PUSH1 0x20 DUP2 ADD SWAP1 POP SWAP2 SWAP1 POP JUMP JUMPDEST PUSH1 0x0 DUP2 SWAP1 POP DUP2 PUSH1 0x0 MSTORE PUSH1 0x20 PUSH1 0x0 KECCAK256 SWAP1 POP SWAP2 SWAP1 POP JUMP JUMPDEST PUSH1 0x0 DUP2 MLOAD SWAP1 POP SWAP2 SWAP1 POP JUMP JUMPDEST PUSH1 0x0 DUP3 DUP3 MSTORE PUSH1 0x20 DUP3 ADD SWAP1 POP SWAP3 SWAP2 POP POP JUMP JUMPDEST PUSH1 0x0 PUSH2 0x221D DUP3 PUSH2 0x22CE JUMP JUMPDEST SWAP2 POP PUSH2 0x2228 DUP4 PUSH2 0x22CE JUMP JUMPDEST SWAP3 POP DUP3 PUSH32 0xFFFFFFFFFFFFFFFFFFFFFFFFFFFFFFFFFFFFFFFFFFFFFFFFFFFFFFFFFFFFFFFF SUB DUP3 GT ISZERO PUSH2 0x225D JUMPI PUSH2 0x225C PUSH2 0x243E JUMP JUMPDEST JUMPDEST DUP3 DUP3 ADD SWAP1 POP SWAP3 SWAP2 POP POP JUMP JUMPDEST PUSH1 0x0 PUSH2 0x2273 DUP3 PUSH2 0x22CE JUMP JUMPDEST SWAP2 POP PUSH2 0x227E DUP4 PUSH2 0x22CE JUMP JUMPDEST SWAP3 POP DUP3 DUP3 LT ISZERO PUSH2 0x2291 JUMPI PUSH2 0x2290 PUSH2 0x243E JUMP JUMPDEST JUMPDEST DUP3 DUP3 SUB SWAP1 POP SWAP3 SWAP2 POP POP JUMP JUMPDEST PUSH1 0x0 PUSH2 0x22A7 DUP3 PUSH2 0x22AE JUMP JUMPDEST SWAP1 POP SWAP2 SWAP1 POP JUMP JUMPDEST PUSH1 0x0 PUSH20 0xFFFFFFFFFFFFFFFFFFFFFFFFFFFFFFFFFFFFFFFF DUP3 AND SWAP1 POP SWAP2 SWAP1 POP JUMP JUMPDEST PUSH1 0x0 DUP2 SWAP1 POP SWAP2 SWAP1 POP JUMP JUMPDEST PUSH1 0x0 PUSH4 0xFFFFFFFF DUP3 AND SWAP1 POP SWAP2 SWAP1 POP JUMP JUMPDEST DUP3 DUP2 DUP4 CALLDATACOPY PUSH1 0x0 DUP4 DUP4 ADD MSTORE POP POP POP JUMP JUMPDEST PUSH1 0x0 JUMPDEST DUP4 DUP2 LT ISZERO PUSH2 0x2315 JUMPI DUP1 DUP3 ADD MLOAD DUP2 DUP5 ADD MSTORE PUSH1 0x20 DUP2 ADD SWAP1 POP PUSH2 0x22FA JUMP JUMPDEST DUP4 DUP2 GT ISZERO PUSH2 0x2324 JUMPI PUSH1 0x0 DUP5 DUP5 ADD MSTORE JUMPDEST POP POP POP POP JUMP JUMPDEST PUSH1 0x0 PUSH1 0x2 DUP3 DIV SWAP1 POP PUSH1 0x1 DUP3 AND DUP1 PUSH2 0x2342 JUMPI PUSH1 0x7F DUP3 AND SWAP2 POP JUMPDEST PUSH1 0x20 DUP3 LT DUP2 EQ ISZERO PUSH2 0x2356 JUMPI PUSH2 0x2355 PUSH2 0x249C JUMP JUMPDEST JUMPDEST POP SWAP2 SWAP1 POP JUMP JUMPDEST PUSH2 0x2365 DUP3 PUSH2 0x253D JUMP JUMPDEST DUP2 ADD DUP2 DUP2 LT PUSH8 0xFFFFFFFFFFFFFFFF DUP3 GT OR ISZERO PUSH2 0x2384 JUMPI PUSH2 0x2383 PUSH2 0x24FA JUMP JUMPDEST JUMPDEST DUP1 PUSH1 0x40 MSTORE POP POP POP JUMP JUMPDEST PUSH1 0x0 PUSH2 0x2398 DUP3 PUSH2 0x22CE JUMP JUMPDEST SWAP2 POP PUSH32 0xFFFFFFFFFFFFFFFFFFFFFFFFFFFFFFFFFFFFFFFFFFFFFFFFFFFFFFFFFFFFFFFF DUP3 EQ ISZERO PUSH2 0x23CB JUMPI PUSH2 0x23CA PUSH2 0x243E JUMP JUMPDEST JUMPDEST PUSH1 0x1 DUP3 ADD SWAP1 POP SWAP2 SWAP1 POP JUMP JUMPDEST PUSH1 0x0 PUSH2 0x23E1 DUP3 PUSH2 0x22D8 JUMP JUMPDEST SWAP2 POP PUSH4 0xFFFFFFFF DUP3 EQ ISZERO PUSH2 0x23F8 JUMPI PUSH2 0x23F7 PUSH2 0x243E JUMP JUMPDEST JUMPDEST PUSH1 0x1 DUP3 ADD SWAP1 POP SWAP2 SWAP1 POP JUMP JUMPDEST PUSH1 0x0 DUP2 SWAP1 POP SWAP2 SWAP1 POP JUMP JUMPDEST PUSH1 0x0 PUSH2 0x2418 DUP3 PUSH2 0x22CE JUMP JUMPDEST SWAP2 POP PUSH2 0x2423 DUP4 PUSH2 0x22CE JUMP JUMPDEST SWAP3 POP DUP3 PUSH2 0x2433 JUMPI PUSH2 0x2432 PUSH2 0x246D JUMP JUMPDEST JUMPDEST DUP3 DUP3 MOD SWAP1 POP SWAP3 SWAP2 POP POP JUMP JUMPDEST PUSH32 0x4E487B7100000000000000000000000000000000000000000000000000000000 PUSH1 0x0 MSTORE PUSH1 0x11 PUSH1 0x4 MSTORE PUSH1 0x24 PUSH1 0x0 REVERT JUMPDEST PUSH32 0x4E487B7100000000000000000000000000000000000000000000000000000000 PUSH1 0x0 MSTORE PUSH1 0x12 PUSH1 0x4 MSTORE PUSH1 0x24 PUSH1 0x0 REVERT JUMPDEST PUSH32 0x4E487B7100000000000000000000000000000000000000000000000000000000 PUSH1 0x0 MSTORE PUSH1 0x22 PUSH1 0x4 MSTORE PUSH1 0x24 PUSH1 0x0 REVERT JUMPDEST PUSH32 0x4E487B7100000000000000000000000000000000000000000000000000000000 PUSH1 0x0 MSTORE PUSH1 0x32 PUSH1 0x4 MSTORE PUSH1 0x24 PUSH1 0x0 REVERT JUMPDEST PUSH32 0x4E487B7100000000000000000000000000000000000000000000000000000000 PUSH1 0x0 MSTORE PUSH1 0x41 PUSH1 0x4 MSTORE PUSH1 0x24 PUSH1 0x0 REVERT JUMPDEST PUSH1 0x0 DUP1 REVERT JUMPDEST PUSH1 0x0 DUP1 REVERT JUMPDEST PUSH1 0x0 DUP1 REVERT JUMPDEST PUSH1 0x0 DUP1 REVERT JUMPDEST PUSH1 0x0 PUSH1 0x1F NOT PUSH1 0x1F DUP4 ADD AND SWAP1 POP SWAP2 SWAP1 POP JUMP JUMPDEST PUSH32 0x536F6C6F2073652070756564652074656E657220756E20636F63686520706F72 PUSH1 0x0 DUP3 ADD MSTORE PUSH32 0x20706572736F6E61000000000000000000000000000000000000000000000000 PUSH1 0x20 DUP3 ADD MSTORE POP JUMP JUMPDEST PUSH32 0x4F776E61626C653A206E6577206F776E657220697320746865207A65726F2061 PUSH1 0x0 DUP3 ADD MSTORE PUSH32 0x6464726573730000000000000000000000000000000000000000000000000000 PUSH1 0x20 DUP3 ADD MSTORE POP JUMP JUMPDEST PUSH32 0x4E6F2068617920636F6368657320737566696369656E74657320706172612069 PUSH1 0x0 DUP3 ADD MSTORE PUSH32 0x6E696369617220756E6120636172726572610000000000000000000000000000 PUSH1 0x20 DUP3 ADD MSTORE POP JUMP JUMPDEST PUSH32 0x4F776E61626C653A2063616C6C6572206973206E6F7420746865206F776E6572 PUSH1 0x0 DUP3 ADD MSTORE POP JUMP JUMPDEST PUSH32 0x456C20636F6368652067616E61646F722065733A200000000000000000000000 PUSH1 0x0 DUP3 ADD MSTORE POP JUMP JUMPDEST PUSH2 0x2696 DUP2 PUSH2 0x229C JUMP JUMPDEST DUP2 EQ PUSH2 0x26A1 JUMPI PUSH1 0x0 DUP1 REVERT JUMPDEST POP JUMP JUMPDEST PUSH2 0x26AD DUP2 PUSH2 0x22CE JUMP JUMPDEST DUP2 EQ PUSH2 0x26B8 JUMPI PUSH1 0x0 DUP1 REVERT JUMPDEST POP JUMP INVALID LOG2 PUSH5 0x6970667358 0x22 SLT KECCAK256 0xBE 0x4D 0xC2 0xB6 PUSH25 0xFAE38F8045D412195A2420624092BF0BBA7B71F16946DD3CB0 SIGNEXTEND SLT PUSH5 0x736F6C6343 STOP ADDMOD SMOD STOP CALLER "
				},
				"gasEstimates": {
					"creation": {
						"codeDepositCost": "1993800",
						"executionCost": "infinite",
						"totalCost": "infinite"
					},
					"external": {
						"Apostar(uint256)": "infinite",
						"_owner()": "2533",
						"anadirCoche(string,string,string)": "infinite",
						"cambiarCoche(uint256,string,string)": "infinite",
						"cocheDePropietario(uint256)": "2884",
						"comprarCoche(address,string,string)": "infinite",
						"listaCoches(uint256)": "infinite",
						"numeroCochesPersona(address)": "2837",
						"owner()": "2589",
						"renounceOwnership()": "30397",
						"subirDeNivel(address)": "infinite",
						"transferOwnership(address)": "30811",
						"verCochePropietario(address)": "infinite"
					},
					"internal": {
						"_depositoLleno(struct CarreraCoches.Coche storage pointer)": "2142",
						"_repostando(struct CarreraCoches.Coche storage pointer)": "infinite",
						"balance()": "infinite",
						"numAleatorio(uint256)": "infinite"
					}
				},
				"methodIdentifiers": {
					"Apostar(uint256)": "6b6f0494",
					"_owner()": "b2bdfa7b",
					"anadirCoche(string,string,string)": "2458c544",
					"cambiarCoche(uint256,string,string)": "6ba2cdf4",
					"cocheDePropietario(uint256)": "858b0554",
					"comprarCoche(address,string,string)": "049a5f65",
					"listaCoches(uint256)": "d735573d",
					"numeroCochesPersona(address)": "1c6743e4",
					"owner()": "8da5cb5b",
					"renounceOwnership()": "715018a6",
					"subirDeNivel(address)": "6a7d1816",
					"transferOwnership(address)": "f2fde38b",
					"verCochePropietario(address)": "e172fca8"
				}
			},
			"storageLayout": {
				"storage": [
					{
						"astId": 7,
						"contract": "contracts/CarreraCoches/principal.sol:CarreraCoches",
						"label": "_owner",
						"offset": 0,
						"slot": "0",
						"type": "t_address"
					},
					{
						"astId": 129,
						"contract": "contracts/CarreraCoches/principal.sol:CarreraCoches",
						"label": "randNonce",
						"offset": 0,
						"slot": "1",
						"type": "t_uint256"
					},
					{
						"astId": 132,
						"contract": "contracts/CarreraCoches/principal.sol:CarreraCoches",
						"label": "contador",
						"offset": 0,
						"slot": "2",
						"type": "t_uint256"
					},
					{
						"astId": 135,
						"contract": "contracts/CarreraCoches/principal.sol:CarreraCoches",
						"label": "cooldown",
						"offset": 0,
						"slot": "3",
						"type": "t_uint256"
					},
					{
						"astId": 138,
						"contract": "contracts/CarreraCoches/principal.sol:CarreraCoches",
						"label": "subirNivel",
						"offset": 0,
						"slot": "4",
						"type": "t_uint256"
					},
					{
						"astId": 141,
						"contract": "contracts/CarreraCoches/principal.sol:CarreraCoches",
						"label": "cambiarCocheV",
						"offset": 0,
						"slot": "5",
						"type": "t_uint256"
					},
					{
						"astId": 145,
						"contract": "contracts/CarreraCoches/principal.sol:CarreraCoches",
						"label": "listaCoches",
						"offset": 0,
						"slot": "6",
						"type": "t_array(t_struct(Coche)126_storage)dyn_storage"
					},
					{
						"astId": 175,
						"contract": "contracts/CarreraCoches/principal.sol:CarreraCoches",
						"label": "cocheDePropietario",
						"offset": 0,
						"slot": "7",
						"type": "t_mapping(t_uint256,t_address)"
					},
					{
						"astId": 179,
						"contract": "contracts/CarreraCoches/principal.sol:CarreraCoches",
						"label": "numeroCochesPersona",
						"offset": 0,
						"slot": "8",
						"type": "t_mapping(t_address,t_uint256)"
					}
				],
				"types": {
					"t_address": {
						"encoding": "inplace",
						"label": "address",
						"numberOfBytes": "20"
					},
					"t_array(t_struct(Coche)126_storage)dyn_storage": {
						"base": "t_struct(Coche)126_storage",
						"encoding": "dynamic_array",
						"label": "struct CarreraCoches.Coche[]",
						"numberOfBytes": "32"
					},
					"t_mapping(t_address,t_uint256)": {
						"encoding": "mapping",
						"key": "t_address",
						"label": "mapping(address => uint256)",
						"numberOfBytes": "32",
						"value": "t_uint256"
					},
					"t_mapping(t_uint256,t_address)": {
						"encoding": "mapping",
						"key": "t_uint256",
						"label": "mapping(uint256 => address)",
						"numberOfBytes": "32",
						"value": "t_address"
					},
					"t_string_storage": {
						"encoding": "bytes",
						"label": "string",
						"numberOfBytes": "32"
					},
					"t_struct(Coche)126_storage": {
						"encoding": "inplace",
						"label": "struct CarreraCoches.Coche",
						"members": [
							{
								"astId": 111,
								"contract": "contracts/CarreraCoches/principal.sol:CarreraCoches",
								"label": "idPiloto",
								"offset": 0,
								"slot": "0",
								"type": "t_address"
							},
							{
								"astId": 113,
								"contract": "contracts/CarreraCoches/principal.sol:CarreraCoches",
								"label": "modelo",
								"offset": 0,
								"slot": "1",
								"type": "t_string_storage"
							},
							{
								"astId": 115,
								"contract": "contracts/CarreraCoches/principal.sol:CarreraCoches",
								"label": "marca",
								"offset": 0,
								"slot": "2",
								"type": "t_string_storage"
							},
							{
								"astId": 117,
								"contract": "contracts/CarreraCoches/principal.sol:CarreraCoches",
								"label": "nombrePiloto",
								"offset": 0,
								"slot": "3",
								"type": "t_string_storage"
							},
							{
								"astId": 119,
								"contract": "contracts/CarreraCoches/principal.sol:CarreraCoches",
								"label": "carrerasGanadas",
								"offset": 0,
								"slot": "4",
								"type": "t_uint256"
							},
							{
								"astId": 121,
								"contract": "contracts/CarreraCoches/principal.sol:CarreraCoches",
								"label": "carrerasTotales",
								"offset": 0,
								"slot": "5",
								"type": "t_uint256"
							},
							{
								"astId": 123,
								"contract": "contracts/CarreraCoches/principal.sol:CarreraCoches",
								"label": "tiempoEspera",
								"offset": 0,
								"slot": "6",
								"type": "t_uint256"
							},
							{
								"astId": 125,
								"contract": "contracts/CarreraCoches/principal.sol:CarreraCoches",
								"label": "nivel",
								"offset": 0,
								"slot": "7",
								"type": "t_uint32"
							}
						],
						"numberOfBytes": "256"
					},
					"t_uint256": {
						"encoding": "inplace",
						"label": "uint256",
						"numberOfBytes": "32"
					},
					"t_uint32": {
						"encoding": "inplace",
						"label": "uint32",
						"numberOfBytes": "4"
					}
				}
			},
			"userdoc": {
				"kind": "user",
				"methods": {},
				"version": 1
			}
		}
	}
}