{
	"contracts/CarreraCoches/principal.sol": {
		"CarreraCoches": {
			"abi": [
				{
					"anonymous": false,
					"inputs": [
						{
							"indexed": true,
							"internalType": "address",
							"name": "previousOwner",
							"type": "address"
						},
						{
							"indexed": true,
							"internalType": "address",
							"name": "newOwner",
							"type": "address"
						}
					],
					"name": "OwnershipTransferred",
					"type": "event"
				},
				{
					"anonymous": false,
					"inputs": [
						{
							"indexed": false,
							"internalType": "string",
							"name": "mo",
							"type": "string"
						},
						{
							"indexed": false,
							"internalType": "string",
							"name": "ma",
							"type": "string"
						},
						{
							"indexed": false,
							"internalType": "uint32",
							"name": "niv",
							"type": "uint32"
						},
						{
							"indexed": false,
							"internalType": "uint256",
							"name": "carrGan",
							"type": "uint256"
						}
					],
					"name": "cochePropietario",
					"type": "event"
				},
				{
					"anonymous": false,
					"inputs": [
						{
							"indexed": false,
							"internalType": "uint256",
							"name": "compr",
							"type": "uint256"
						}
					],
					"name": "comprobar",
					"type": "event"
				},
				{
					"anonymous": false,
					"inputs": [
						{
							"indexed": false,
							"internalType": "string",
							"name": "ms",
							"type": "string"
						}
					],
					"name": "confirmacionDepositoLleno",
					"type": "event"
				},
				{
					"anonymous": false,
					"inputs": [
						{
							"indexed": false,
							"internalType": "string",
							"name": "ms",
							"type": "string"
						},
						{
							"indexed": false,
							"internalType": "uint256",
							"name": "res",
							"type": "uint256"
						}
					],
					"name": "mostrarResultado",
					"type": "event"
				},
				{
					"inputs": [
						{
							"internalType": "uint256",
							"name": "dineroApostar",
							"type": "uint256"
						}
					],
					"name": "Apostar",
					"outputs": [
						{
							"internalType": "string",
							"name": "",
							"type": "string"
						}
					],
					"stateMutability": "payable",
					"type": "function"
				},
				{
					"inputs": [],
					"name": "_owner",
					"outputs": [
						{
							"internalType": "address",
							"name": "",
							"type": "address"
						}
					],
					"stateMutability": "view",
					"type": "function"
				},
				{
					"inputs": [
						{
							"internalType": "string",
							"name": "_modelo",
							"type": "string"
						},
						{
							"internalType": "string",
							"name": "_marca",
							"type": "string"
						},
						{
							"internalType": "string",
							"name": "_nombrePiloto",
							"type": "string"
						}
					],
					"name": "anadirCoche",
					"outputs": [
						{
							"internalType": "uint256",
							"name": "",
							"type": "uint256"
						}
					],
					"stateMutability": "nonpayable",
					"type": "function"
				},
				{
					"inputs": [
						{
							"internalType": "uint256",
							"name": "",
							"type": "uint256"
						}
					],
					"name": "cocheDePropietario",
					"outputs": [
						{
							"internalType": "address",
							"name": "",
							"type": "address"
						}
					],
					"stateMutability": "view",
					"type": "function"
				},
				{
					"inputs": [
						{
							"internalType": "uint256",
							"name": "",
							"type": "uint256"
						}
					],
					"name": "listaCoches",
					"outputs": [
						{
							"internalType": "address",
							"name": "idPiloto",
							"type": "address"
						},
						{
							"internalType": "string",
							"name": "modelo",
							"type": "string"
						},
						{
							"internalType": "string",
							"name": "marca",
							"type": "string"
						},
						{
							"internalType": "string",
							"name": "nombrePiloto",
							"type": "string"
						},
						{
							"internalType": "uint256",
							"name": "carrerasGanadas",
							"type": "uint256"
						},
						{
							"internalType": "uint256",
							"name": "carrerasTotales",
							"type": "uint256"
						},
						{
							"internalType": "uint256",
							"name": "tiempoEspera",
							"type": "uint256"
						},
						{
							"internalType": "uint32",
							"name": "nivel",
							"type": "uint32"
						}
					],
					"stateMutability": "view",
					"type": "function"
				},
				{
					"inputs": [
						{
							"internalType": "address",
							"name": "",
							"type": "address"
						}
					],
					"name": "numeroCochesPersona",
					"outputs": [
						{
							"internalType": "uint256",
							"name": "",
							"type": "uint256"
						}
					],
					"stateMutability": "view",
					"type": "function"
				},
				{
					"inputs": [],
					"name": "owner",
					"outputs": [
						{
							"internalType": "address",
							"name": "",
							"type": "address"
						}
					],
					"stateMutability": "view",
					"type": "function"
				},
				{
					"inputs": [],
					"name": "renounceOwnership",
					"outputs": [],
					"stateMutability": "nonpayable",
					"type": "function"
				},
				{
					"inputs": [],
					"name": "retirarDinero",
					"outputs": [],
					"stateMutability": "nonpayable",
					"type": "function"
				},
				{
					"inputs": [
						{
							"internalType": "address",
							"name": "_propietario",
							"type": "address"
						}
					],
					"name": "subirDeNivel",
					"outputs": [
						{
							"internalType": "string",
							"name": "",
							"type": "string"
						}
					],
					"stateMutability": "payable",
					"type": "function"
				},
				{
					"inputs": [
						{
							"internalType": "address",
							"name": "newOwner",
							"type": "address"
						}
					],
					"name": "transferOwnership",
					"outputs": [],
					"stateMutability": "nonpayable",
					"type": "function"
				},
				{
					"inputs": [
						{
							"internalType": "address",
							"name": "_propietario",
							"type": "address"
						}
					],
					"name": "verCochePropietario",
					"outputs": [],
					"stateMutability": "nonpayable",
					"type": "function"
				}
			],
			"devdoc": {
				"kind": "dev",
				"methods": {
					"owner()": {
						"details": "Returns the address of the current owner."
					},
					"renounceOwnership()": {
						"details": "Leaves the contract without owner. It will not be possible to call `onlyOwner` functions anymore. Can only be called by the current owner. NOTE: Renouncing ownership will leave the contract without an owner, thereby removing any functionality that is only available to the owner."
					},
					"transferOwnership(address)": {
						"details": "Transfers ownership of the contract to a new account (`newOwner`). Can only be called by the current owner."
					}
				},
				"version": 1
			},
			"evm": {
				"assembly": "    /* \"contracts/CarreraCoches/principal.sol\":54:4812  contract CarreraCoches is Ownable {\r... */\n  mstore(0x40, 0x80)\n    /* \"contracts/CarreraCoches/principal.sol\":370:371  0 */\n  0x00\n    /* \"contracts/CarreraCoches/principal.sol\":353:371  uint randNonce = 0 */\n  0x01\n  sstore\n    /* \"contracts/CarreraCoches/principal.sol\":494:495  0 */\n  0x00\n    /* \"contracts/CarreraCoches/principal.sol\":478:495  uint contador = 0 */\n  0x02\n  sstore\n    /* \"contracts/CarreraCoches/principal.sol\":518:528  60 seconds */\n  0x3c\n    /* \"contracts/CarreraCoches/principal.sol\":502:528  uint cooldown = 60 seconds */\n  0x03\n  sstore\n    /* \"contracts/CarreraCoches/principal.sol\":553:560  1 ether */\n  0x0de0b6b3a7640000\n    /* \"contracts/CarreraCoches/principal.sol\":535:560  uint subirNivel = 1 ether */\n  0x04\n  sstore\n    /* \"contracts/CarreraCoches/principal.sol\":54:4812  contract CarreraCoches is Ownable {\r... */\n  callvalue\n  dup1\n  iszero\n  tag_1\n  jumpi\n  0x00\n  dup1\n  revert\ntag_1:\n  pop\n    /* \"contracts/CarreraCoches/ownable.sol\":947:979  _transferOwnership(_msgSender()) */\n  tag_4\n    /* \"contracts/CarreraCoches/ownable.sol\":966:978  _msgSender() */\n  tag_5\n    /* \"contracts/CarreraCoches/ownable.sol\":966:976  _msgSender */\n  shl(0x20, tag_6)\n    /* \"contracts/CarreraCoches/ownable.sol\":966:978  _msgSender() */\n  0x20\n  shr\n  jump\t// in\ntag_5:\n    /* \"contracts/CarreraCoches/ownable.sol\":947:965  _transferOwnership */\n  shl(0x20, tag_7)\n    /* \"contracts/CarreraCoches/ownable.sol\":947:979  _transferOwnership(_msgSender()) */\n  0x20\n  shr\n  jump\t// in\ntag_4:\n    /* \"contracts/CarreraCoches/principal.sol\":54:4812  contract CarreraCoches is Ownable {\r... */\n  jump(tag_8)\n    /* \"contracts/CarreraCoches/utils/Context.sol\":656:754  function _msgSender() internal view virtual returns (address) {\r... */\ntag_6:\n    /* \"contracts/CarreraCoches/utils/Context.sol\":709:716  address */\n  0x00\n    /* \"contracts/CarreraCoches/utils/Context.sol\":736:746  msg.sender */\n  caller\n    /* \"contracts/CarreraCoches/utils/Context.sol\":729:746  return msg.sender */\n  swap1\n  pop\n    /* \"contracts/CarreraCoches/utils/Context.sol\":656:754  function _msgSender() internal view virtual returns (address) {\r... */\n  swap1\n  jump\t// out\n    /* \"contracts/CarreraCoches/ownable.sol\":2338:2529  function _transferOwnership(address newOwner) internal virtual {\r... */\ntag_7:\n    /* \"contracts/CarreraCoches/ownable.sol\":2412:2428  address oldOwner */\n  0x00\n    /* \"contracts/CarreraCoches/ownable.sol\":2431:2437  _owner */\n  dup1\n  0x00\n  swap1\n  sload\n  swap1\n  0x0100\n  exp\n  swap1\n  div\n  0xffffffffffffffffffffffffffffffffffffffff\n  and\n    /* \"contracts/CarreraCoches/ownable.sol\":2412:2437  address oldOwner = _owner */\n  swap1\n  pop\n    /* \"contracts/CarreraCoches/ownable.sol\":2457:2465  newOwner */\n  dup2\n    /* \"contracts/CarreraCoches/ownable.sol\":2448:2454  _owner */\n  0x00\n  dup1\n    /* \"contracts/CarreraCoches/ownable.sol\":2448:2465  _owner = newOwner */\n  0x0100\n  exp\n  dup2\n  sload\n  dup2\n  0xffffffffffffffffffffffffffffffffffffffff\n  mul\n  not\n  and\n  swap1\n  dup4\n  0xffffffffffffffffffffffffffffffffffffffff\n  and\n  mul\n  or\n  swap1\n  sstore\n  pop\n    /* \"contracts/CarreraCoches/ownable.sol\":2512:2520  newOwner */\n  dup2\n    /* \"contracts/CarreraCoches/ownable.sol\":2481:2521  OwnershipTransferred(oldOwner, newOwner) */\n  0xffffffffffffffffffffffffffffffffffffffff\n  and\n    /* \"contracts/CarreraCoches/ownable.sol\":2502:2510  oldOwner */\n  dup2\n    /* \"contracts/CarreraCoches/ownable.sol\":2481:2521  OwnershipTransferred(oldOwner, newOwner) */\n  0xffffffffffffffffffffffffffffffffffffffff\n  and\n  0x8be0079c531659141344cd1fd0a4f28419497f9722a3daafe3b4186f6b6457e0\n  mload(0x40)\n  mload(0x40)\n  dup1\n  swap2\n  sub\n  swap1\n  log3\n    /* \"contracts/CarreraCoches/ownable.sol\":2401:2529  {\r... */\n  pop\n    /* \"contracts/CarreraCoches/ownable.sol\":2338:2529  function _transferOwnership(address newOwner) internal virtual {\r... */\n  pop\n  jump\t// out\n    /* \"contracts/CarreraCoches/principal.sol\":54:4812  contract CarreraCoches is Ownable {\r... */\ntag_8:\n  dataSize(sub_0)\n  dup1\n  dataOffset(sub_0)\n  0x00\n  codecopy\n  0x00\n  return\nstop\n\nsub_0: assembly {\n        /* \"contracts/CarreraCoches/principal.sol\":54:4812  contract CarreraCoches is Ownable {\r... */\n      mstore(0x40, 0x80)\n      jumpi(tag_1, lt(calldatasize, 0x04))\n      shr(0xe0, calldataload(0x00))\n      dup1\n      0x858b0554\n      gt\n      tag_14\n      jumpi\n      dup1\n      0x858b0554\n      eq\n      tag_8\n      jumpi\n      dup1\n      0x8da5cb5b\n      eq\n      tag_9\n      jumpi\n      dup1\n      0xb2bdfa7b\n      eq\n      tag_10\n      jumpi\n      dup1\n      0xd735573d\n      eq\n      tag_11\n      jumpi\n      dup1\n      0xe172fca8\n      eq\n      tag_12\n      jumpi\n      dup1\n      0xf2fde38b\n      eq\n      tag_13\n      jumpi\n      jump(tag_1)\n    tag_14:\n      dup1\n      0x1bfdc150\n      eq\n      tag_2\n      jumpi\n      dup1\n      0x1c6743e4\n      eq\n      tag_3\n      jumpi\n      dup1\n      0x2458c544\n      eq\n      tag_4\n      jumpi\n      dup1\n      0x6a7d1816\n      eq\n      tag_5\n      jumpi\n      dup1\n      0x6b6f0494\n      eq\n      tag_6\n      jumpi\n      dup1\n      0x715018a6\n      eq\n      tag_7\n      jumpi\n    tag_1:\n      0x00\n      dup1\n      revert\n        /* \"contracts/CarreraCoches/principal.sol\":4694:4809  function retirarDinero() external onlyOwner {\r... */\n    tag_2:\n      callvalue\n      dup1\n      iszero\n      tag_15\n      jumpi\n      0x00\n      dup1\n      revert\n    tag_15:\n      pop\n      tag_16\n      tag_17\n      jump\t// in\n    tag_16:\n      stop\n        /* \"contracts/CarreraCoches/principal.sol\":874:926  mapping (address => uint) public numeroCochesPersona */\n    tag_3:\n      callvalue\n      dup1\n      iszero\n      tag_18\n      jumpi\n      0x00\n      dup1\n      revert\n    tag_18:\n      pop\n      tag_19\n      0x04\n      dup1\n      calldatasize\n      sub\n      dup2\n      add\n      swap1\n      tag_20\n      swap2\n      swap1\n      tag_21\n      jump\t// in\n    tag_20:\n      tag_22\n      jump\t// in\n    tag_19:\n      mload(0x40)\n      tag_23\n      swap2\n      swap1\n      tag_24\n      jump\t// in\n    tag_23:\n      mload(0x40)\n      dup1\n      swap2\n      sub\n      swap1\n      return\n        /* \"contracts/CarreraCoches/principal.sol\":1370:1810  function anadirCoche(string memory _modelo, string memory _marca, string memory _nombrePiloto) public restriccion returns (uint) {\r... */\n    tag_4:\n      callvalue\n      dup1\n      iszero\n      tag_25\n      jumpi\n      0x00\n      dup1\n      revert\n    tag_25:\n      pop\n      tag_26\n      0x04\n      dup1\n      calldatasize\n      sub\n      dup2\n      add\n      swap1\n      tag_27\n      swap2\n      swap1\n      tag_28\n      jump\t// in\n    tag_27:\n      tag_29\n      jump\t// in\n    tag_26:\n      mload(0x40)\n      tag_30\n      swap2\n      swap1\n      tag_24\n      jump\t// in\n    tag_30:\n      mload(0x40)\n      dup1\n      swap2\n      sub\n      swap1\n      return\n        /* \"contracts/CarreraCoches/principal.sol\":2138:2497  function subirDeNivel(address _propietario) external payable returns(string memory) {\r... */\n    tag_5:\n      tag_31\n      0x04\n      dup1\n      calldatasize\n      sub\n      dup2\n      add\n      swap1\n      tag_32\n      swap2\n      swap1\n      tag_21\n      jump\t// in\n    tag_32:\n      tag_33\n      jump\t// in\n    tag_31:\n      mload(0x40)\n      tag_34\n      swap2\n      swap1\n      tag_35\n      jump\t// in\n    tag_34:\n      mload(0x40)\n      dup1\n      swap2\n      sub\n      swap1\n      return\n        /* \"contracts/CarreraCoches/principal.sol\":3188:4421  function Apostar(uint dineroApostar) public payable returns(string memory) {\r... */\n    tag_6:\n      tag_36\n      0x04\n      dup1\n      calldatasize\n      sub\n      dup2\n      add\n      swap1\n      tag_37\n      swap2\n      swap1\n      tag_38\n      jump\t// in\n    tag_37:\n      tag_39\n      jump\t// in\n    tag_36:\n      mload(0x40)\n      tag_40\n      swap2\n      swap1\n      tag_35\n      jump\t// in\n    tag_40:\n      mload(0x40)\n      dup1\n      swap2\n      sub\n      swap1\n      return\n        /* \"contracts/CarreraCoches/ownable.sol\":1719:1822  function renounceOwnership() public virtual onlyOwner {\r... */\n    tag_7:\n      callvalue\n      dup1\n      iszero\n      tag_41\n      jumpi\n      0x00\n      dup1\n      revert\n    tag_41:\n      pop\n      tag_42\n      tag_43\n      jump\t// in\n    tag_42:\n      stop\n        /* \"contracts/CarreraCoches/principal.sol\":816:867  mapping (uint => address) public cocheDePropietario */\n    tag_8:\n      callvalue\n      dup1\n      iszero\n      tag_44\n      jumpi\n      0x00\n      dup1\n      revert\n    tag_44:\n      pop\n      tag_45\n      0x04\n      dup1\n      calldatasize\n      sub\n      dup2\n      add\n      swap1\n      tag_46\n      swap2\n      swap1\n      tag_38\n      jump\t// in\n    tag_46:\n      tag_47\n      jump\t// in\n    tag_45:\n      mload(0x40)\n      tag_48\n      swap2\n      swap1\n      tag_49\n      jump\t// in\n    tag_48:\n      mload(0x40)\n      dup1\n      swap2\n      sub\n      swap1\n      return\n        /* \"contracts/CarreraCoches/ownable.sol\":1068:1155  function owner() public view virtual returns (address) {\r... */\n    tag_9:\n      callvalue\n      dup1\n      iszero\n      tag_50\n      jumpi\n      0x00\n      dup1\n      revert\n    tag_50:\n      pop\n      tag_51\n      tag_52\n      jump\t// in\n    tag_51:\n      mload(0x40)\n      tag_53\n      swap2\n      swap1\n      tag_49\n      jump\t// in\n    tag_53:\n      mload(0x40)\n      dup1\n      swap2\n      sub\n      swap1\n      return\n        /* \"contracts/CarreraCoches/ownable.sol\":701:722  address public _owner */\n    tag_10:\n      callvalue\n      dup1\n      iszero\n      tag_54\n      jumpi\n      0x00\n      dup1\n      revert\n    tag_54:\n      pop\n      tag_55\n      tag_56\n      jump\t// in\n    tag_55:\n      mload(0x40)\n      tag_57\n      swap2\n      swap1\n      tag_49\n      jump\t// in\n    tag_57:\n      mload(0x40)\n      dup1\n      swap2\n      sub\n      swap1\n      return\n        /* \"contracts/CarreraCoches/principal.sol\":569:595  Coche[] public listaCoches */\n    tag_11:\n      callvalue\n      dup1\n      iszero\n      tag_58\n      jumpi\n      0x00\n      dup1\n      revert\n    tag_58:\n      pop\n      tag_59\n      0x04\n      dup1\n      calldatasize\n      sub\n      dup2\n      add\n      swap1\n      tag_60\n      swap2\n      swap1\n      tag_38\n      jump\t// in\n    tag_60:\n      tag_61\n      jump\t// in\n    tag_59:\n      mload(0x40)\n      tag_62\n      swap9\n      swap8\n      swap7\n      swap6\n      swap5\n      swap4\n      swap3\n      swap2\n      swap1\n      tag_63\n      jump\t// in\n    tag_62:\n      mload(0x40)\n      dup1\n      swap2\n      sub\n      swap1\n      return\n        /* \"contracts/CarreraCoches/principal.sol\":2507:2851  function verCochePropietario(address _propietario) external {\r... */\n    tag_12:\n      callvalue\n      dup1\n      iszero\n      tag_64\n      jumpi\n      0x00\n      dup1\n      revert\n    tag_64:\n      pop\n      tag_65\n      0x04\n      dup1\n      calldatasize\n      sub\n      dup2\n      add\n      swap1\n      tag_66\n      swap2\n      swap1\n      tag_21\n      jump\t// in\n    tag_66:\n      tag_67\n      jump\t// in\n    tag_65:\n      stop\n        /* \"contracts/CarreraCoches/ownable.sol\":1977:2178  function transferOwnership(address newOwner) public virtual onlyOwner {\r... */\n    tag_13:\n      callvalue\n      dup1\n      iszero\n      tag_68\n      jumpi\n      0x00\n      dup1\n      revert\n    tag_68:\n      pop\n      tag_69\n      0x04\n      dup1\n      calldatasize\n      sub\n      dup2\n      add\n      swap1\n      tag_70\n      swap2\n      swap1\n      tag_21\n      jump\t// in\n    tag_70:\n      tag_71\n      jump\t// in\n    tag_69:\n      stop\n        /* \"contracts/CarreraCoches/principal.sol\":4694:4809  function retirarDinero() external onlyOwner {\r... */\n    tag_17:\n        /* \"contracts/CarreraCoches/ownable.sol\":1299:1311  _msgSender() */\n      tag_73\n        /* \"contracts/CarreraCoches/ownable.sol\":1299:1309  _msgSender */\n      tag_74\n        /* \"contracts/CarreraCoches/ownable.sol\":1299:1311  _msgSender() */\n      jump\t// in\n    tag_73:\n        /* \"contracts/CarreraCoches/ownable.sol\":1288:1311  owner() == _msgSender() */\n      0xffffffffffffffffffffffffffffffffffffffff\n      and\n        /* \"contracts/CarreraCoches/ownable.sol\":1288:1295  owner() */\n      tag_75\n        /* \"contracts/CarreraCoches/ownable.sol\":1288:1293  owner */\n      tag_52\n        /* \"contracts/CarreraCoches/ownable.sol\":1288:1295  owner() */\n      jump\t// in\n    tag_75:\n        /* \"contracts/CarreraCoches/ownable.sol\":1288:1311  owner() == _msgSender() */\n      0xffffffffffffffffffffffffffffffffffffffff\n      and\n      eq\n        /* \"contracts/CarreraCoches/ownable.sol\":1280:1348  require(owner() == _msgSender(), \"Ownable: caller is not the owner\") */\n      tag_76\n      jumpi\n      mload(0x40)\n      0x08c379a000000000000000000000000000000000000000000000000000000000\n      dup2\n      mstore\n      0x04\n      add\n      tag_77\n      swap1\n      tag_78\n      jump\t// in\n    tag_77:\n      mload(0x40)\n      dup1\n      swap2\n      sub\n      swap1\n      revert\n    tag_76:\n        /* \"contracts/CarreraCoches/principal.sol\":4758:4768  msg.sender */\n      caller\n        /* \"contracts/CarreraCoches/principal.sol\":4749:4778  payable (msg.sender).transfer */\n      0xffffffffffffffffffffffffffffffffffffffff\n      and\n        /* \"contracts/CarreraCoches/principal.sol\":4749:4801  payable (msg.sender).transfer(address(this).balance) */\n      0x08fc\n        /* \"contracts/CarreraCoches/principal.sol\":4779:4800  address(this).balance */\n      selfbalance\n        /* \"contracts/CarreraCoches/principal.sol\":4749:4801  payable (msg.sender).transfer(address(this).balance) */\n      swap1\n      dup2\n      iszero\n      mul\n      swap1\n      mload(0x40)\n      0x00\n      mload(0x40)\n      dup1\n      dup4\n      sub\n      dup2\n      dup6\n      dup9\n      dup9\n      call\n      swap4\n      pop\n      pop\n      pop\n      pop\n      iszero\n      dup1\n      iszero\n      tag_81\n      jumpi\n      returndatasize\n      0x00\n      dup1\n      returndatacopy\n      revert(0x00, returndatasize)\n    tag_81:\n      pop\n        /* \"contracts/CarreraCoches/principal.sol\":4694:4809  function retirarDinero() external onlyOwner {\r... */\n      jump\t// out\n        /* \"contracts/CarreraCoches/principal.sol\":874:926  mapping (address => uint) public numeroCochesPersona */\n    tag_22:\n      mstore(0x20, 0x07)\n      dup1\n      0x00\n      mstore\n      keccak256(0x00, 0x40)\n      0x00\n      swap2\n      pop\n      swap1\n      pop\n      sload\n      dup2\n      jump\t// out\n        /* \"contracts/CarreraCoches/principal.sol\":1370:1810  function anadirCoche(string memory _modelo, string memory _marca, string memory _nombrePiloto) public restriccion returns (uint) {\r... */\n    tag_29:\n        /* \"contracts/CarreraCoches/principal.sol\":1493:1497  uint */\n      0x00\n        /* \"contracts/CarreraCoches/principal.sol\":1058:1059  1 */\n      0x01\n        /* \"contracts/CarreraCoches/principal.sol\":1024:1043  numeroCochesPersona */\n      0x07\n        /* \"contracts/CarreraCoches/principal.sol\":1024:1055  numeroCochesPersona[msg.sender] */\n      0x00\n        /* \"contracts/CarreraCoches/principal.sol\":1044:1054  msg.sender */\n      caller\n        /* \"contracts/CarreraCoches/principal.sol\":1024:1055  numeroCochesPersona[msg.sender] */\n      0xffffffffffffffffffffffffffffffffffffffff\n      and\n      0xffffffffffffffffffffffffffffffffffffffff\n      and\n      dup2\n      mstore\n      0x20\n      add\n      swap1\n      dup2\n      mstore\n      0x20\n      add\n      0x00\n      keccak256\n      sload\n        /* \"contracts/CarreraCoches/principal.sol\":1024:1059  numeroCochesPersona[msg.sender] < 1 */\n      lt\n        /* \"contracts/CarreraCoches/principal.sol\":1016:1104  require(numeroCochesPersona[msg.sender] < 1, \"Solo se puede tener un coche por persona\") */\n      tag_83\n      jumpi\n      mload(0x40)\n      0x08c379a000000000000000000000000000000000000000000000000000000000\n      dup2\n      mstore\n      0x04\n      add\n      tag_84\n      swap1\n      tag_85\n      jump\t// in\n    tag_84:\n      mload(0x40)\n      dup1\n      swap2\n      sub\n      swap1\n      revert\n    tag_83:\n        /* \"contracts/CarreraCoches/principal.sol\":1510:1521  listaCoches */\n      0x05\n        /* \"contracts/CarreraCoches/principal.sol\":1527:1621  Coche(msg.sender, _modelo, _marca, _nombrePiloto, 0, 0, uint32(block.timestamp + cooldown), 0) */\n      mload(0x40)\n      dup1\n      0x0100\n      add\n      0x40\n      mstore\n      dup1\n        /* \"contracts/CarreraCoches/principal.sol\":1533:1543  msg.sender */\n      caller\n        /* \"contracts/CarreraCoches/principal.sol\":1527:1621  Coche(msg.sender, _modelo, _marca, _nombrePiloto, 0, 0, uint32(block.timestamp + cooldown), 0) */\n      0xffffffffffffffffffffffffffffffffffffffff\n      and\n      dup2\n      mstore\n      0x20\n      add\n        /* \"contracts/CarreraCoches/principal.sol\":1545:1552  _modelo */\n      dup7\n        /* \"contracts/CarreraCoches/principal.sol\":1527:1621  Coche(msg.sender, _modelo, _marca, _nombrePiloto, 0, 0, uint32(block.timestamp + cooldown), 0) */\n      dup2\n      mstore\n      0x20\n      add\n        /* \"contracts/CarreraCoches/principal.sol\":1554:1560  _marca */\n      dup6\n        /* \"contracts/CarreraCoches/principal.sol\":1527:1621  Coche(msg.sender, _modelo, _marca, _nombrePiloto, 0, 0, uint32(block.timestamp + cooldown), 0) */\n      dup2\n      mstore\n      0x20\n      add\n        /* \"contracts/CarreraCoches/principal.sol\":1562:1575  _nombrePiloto */\n      dup5\n        /* \"contracts/CarreraCoches/principal.sol\":1527:1621  Coche(msg.sender, _modelo, _marca, _nombrePiloto, 0, 0, uint32(block.timestamp + cooldown), 0) */\n      dup2\n      mstore\n      0x20\n      add\n        /* \"contracts/CarreraCoches/principal.sol\":1577:1578  0 */\n      0x00\n        /* \"contracts/CarreraCoches/principal.sol\":1527:1621  Coche(msg.sender, _modelo, _marca, _nombrePiloto, 0, 0, uint32(block.timestamp + cooldown), 0) */\n      dup2\n      mstore\n      0x20\n      add\n        /* \"contracts/CarreraCoches/principal.sol\":1580:1581  0 */\n      0x00\n        /* \"contracts/CarreraCoches/principal.sol\":1527:1621  Coche(msg.sender, _modelo, _marca, _nombrePiloto, 0, 0, uint32(block.timestamp + cooldown), 0) */\n      dup2\n      mstore\n      0x20\n      add\n        /* \"contracts/CarreraCoches/principal.sol\":1608:1616  cooldown */\n      sload(0x03)\n        /* \"contracts/CarreraCoches/principal.sol\":1590:1605  block.timestamp */\n      timestamp\n        /* \"contracts/CarreraCoches/principal.sol\":1590:1616  block.timestamp + cooldown */\n      tag_87\n      swap2\n      swap1\n      tag_88\n      jump\t// in\n    tag_87:\n        /* \"contracts/CarreraCoches/principal.sol\":1527:1621  Coche(msg.sender, _modelo, _marca, _nombrePiloto, 0, 0, uint32(block.timestamp + cooldown), 0) */\n      0xffffffff\n      and\n      dup2\n      mstore\n      0x20\n      add\n        /* \"contracts/CarreraCoches/principal.sol\":1619:1620  0 */\n      0x00\n        /* \"contracts/CarreraCoches/principal.sol\":1527:1621  Coche(msg.sender, _modelo, _marca, _nombrePiloto, 0, 0, uint32(block.timestamp + cooldown), 0) */\n      0xffffffff\n      and\n      dup2\n      mstore\n      pop\n        /* \"contracts/CarreraCoches/principal.sol\":1510:1622  listaCoches.push(Coche(msg.sender, _modelo, _marca, _nombrePiloto, 0, 0, uint32(block.timestamp + cooldown), 0)) */\n      swap1\n      dup1\n      0x01\n      dup2\n      sload\n      add\n      dup1\n      dup3\n      sstore\n      dup1\n      swap2\n      pop\n      pop\n      0x01\n      swap1\n      sub\n      swap1\n      0x00\n      mstore\n      keccak256(0x00, 0x20)\n      swap1\n      0x08\n      mul\n      add\n      0x00\n      swap1\n      swap2\n      swap1\n      swap2\n      swap1\n      swap2\n      pop\n      0x00\n      dup3\n      add\n      mload\n      dup2\n      0x00\n      add\n      exp(0x0100, 0x00)\n      dup2\n      sload\n      dup2\n      0xffffffffffffffffffffffffffffffffffffffff\n      mul\n      not\n      and\n      swap1\n      dup4\n      0xffffffffffffffffffffffffffffffffffffffff\n      and\n      mul\n      or\n      swap1\n      sstore\n      pop\n      0x20\n      dup3\n      add\n      mload\n      dup2\n      0x01\n      add\n      swap1\n      dup1\n      mload\n      swap1\n      0x20\n      add\n      swap1\n      tag_90\n      swap3\n      swap2\n      swap1\n      tag_91\n      jump\t// in\n    tag_90:\n      pop\n      0x40\n      dup3\n      add\n      mload\n      dup2\n      0x02\n      add\n      swap1\n      dup1\n      mload\n      swap1\n      0x20\n      add\n      swap1\n      tag_92\n      swap3\n      swap2\n      swap1\n      tag_91\n      jump\t// in\n    tag_92:\n      pop\n      0x60\n      dup3\n      add\n      mload\n      dup2\n      0x03\n      add\n      swap1\n      dup1\n      mload\n      swap1\n      0x20\n      add\n      swap1\n      tag_93\n      swap3\n      swap2\n      swap1\n      tag_91\n      jump\t// in\n    tag_93:\n      pop\n      0x80\n      dup3\n      add\n      mload\n      dup2\n      0x04\n      add\n      sstore\n      0xa0\n      dup3\n      add\n      mload\n      dup2\n      0x05\n      add\n      sstore\n      0xc0\n      dup3\n      add\n      mload\n      dup2\n      0x06\n      add\n      sstore\n      0xe0\n      dup3\n      add\n      mload\n      dup2\n      0x07\n      add\n      exp(0x0100, 0x00)\n      dup2\n      sload\n      dup2\n      0xffffffff\n      mul\n      not\n      and\n      swap1\n      dup4\n      0xffffffff\n      and\n      mul\n      or\n      swap1\n      sstore\n      pop\n      pop\n      pop\n        /* \"contracts/CarreraCoches/principal.sol\":1633:1640  uint id */\n      0x00\n        /* \"contracts/CarreraCoches/principal.sol\":1643:1654  listaCoches */\n      0x05\n        /* \"contracts/CarreraCoches/principal.sol\":1643:1661  listaCoches.length */\n      dup1\n      sload\n      swap1\n      pop\n        /* \"contracts/CarreraCoches/principal.sol\":1633:1661  uint id = listaCoches.length */\n      swap1\n      pop\n        /* \"contracts/CarreraCoches/principal.sol\":1697:1707  msg.sender */\n      caller\n        /* \"contracts/CarreraCoches/principal.sol\":1672:1690  cocheDePropietario */\n      0x06\n        /* \"contracts/CarreraCoches/principal.sol\":1672:1694  cocheDePropietario[id] */\n      0x00\n        /* \"contracts/CarreraCoches/principal.sol\":1691:1693  id */\n      dup4\n        /* \"contracts/CarreraCoches/principal.sol\":1672:1694  cocheDePropietario[id] */\n      dup2\n      mstore\n      0x20\n      add\n      swap1\n      dup2\n      mstore\n      0x20\n      add\n      0x00\n      keccak256\n      0x00\n        /* \"contracts/CarreraCoches/principal.sol\":1672:1707  cocheDePropietario[id] = msg.sender */\n      0x0100\n      exp\n      dup2\n      sload\n      dup2\n      0xffffffffffffffffffffffffffffffffffffffff\n      mul\n      not\n      and\n      swap1\n      dup4\n      0xffffffffffffffffffffffffffffffffffffffff\n      and\n      mul\n      or\n      swap1\n      sstore\n      pop\n        /* \"contracts/CarreraCoches/principal.sol\":1718:1737  numeroCochesPersona */\n      0x07\n        /* \"contracts/CarreraCoches/principal.sol\":1718:1749  numeroCochesPersona[msg.sender] */\n      0x00\n        /* \"contracts/CarreraCoches/principal.sol\":1738:1748  msg.sender */\n      caller\n        /* \"contracts/CarreraCoches/principal.sol\":1718:1749  numeroCochesPersona[msg.sender] */\n      0xffffffffffffffffffffffffffffffffffffffff\n      and\n      0xffffffffffffffffffffffffffffffffffffffff\n      and\n      dup2\n      mstore\n      0x20\n      add\n      swap1\n      dup2\n      mstore\n      0x20\n      add\n      0x00\n      keccak256\n      0x00\n        /* \"contracts/CarreraCoches/principal.sol\":1718:1751  numeroCochesPersona[msg.sender]++ */\n      dup2\n      sload\n      dup1\n      swap3\n      swap2\n      swap1\n      tag_94\n      swap1\n      tag_95\n      jump\t// in\n    tag_94:\n      swap2\n      swap1\n      pop\n      sstore\n      pop\n        /* \"contracts/CarreraCoches/principal.sol\":1762:1770  contador */\n      0x02\n      0x00\n        /* \"contracts/CarreraCoches/principal.sol\":1762:1772  contador++ */\n      dup2\n      sload\n      dup1\n      swap3\n      swap2\n      swap1\n      tag_96\n      swap1\n      tag_95\n      jump\t// in\n    tag_96:\n      swap2\n      swap1\n      pop\n      sstore\n      pop\n        /* \"contracts/CarreraCoches/principal.sol\":1801:1802  1 */\n      0x01\n        /* \"contracts/CarreraCoches/principal.sol\":1790:1798  contador */\n      sload(0x02)\n        /* \"contracts/CarreraCoches/principal.sol\":1790:1802  contador - 1 */\n      tag_97\n      swap2\n      swap1\n      tag_98\n      jump\t// in\n    tag_97:\n        /* \"contracts/CarreraCoches/principal.sol\":1783:1802  return contador - 1 */\n      swap2\n      pop\n      pop\n        /* \"contracts/CarreraCoches/principal.sol\":1370:1810  function anadirCoche(string memory _modelo, string memory _marca, string memory _nombrePiloto) public restriccion returns (uint) {\r... */\n      swap4\n      swap3\n      pop\n      pop\n      pop\n      jump\t// out\n        /* \"contracts/CarreraCoches/principal.sol\":2138:2497  function subirDeNivel(address _propietario) external payable returns(string memory) {\r... */\n    tag_33:\n        /* \"contracts/CarreraCoches/principal.sol\":2207:2220  string memory */\n      0x60\n        /* \"contracts/CarreraCoches/principal.sol\":2252:2262  subirNivel */\n      sload(0x04)\n        /* \"contracts/CarreraCoches/principal.sol\":2241:2250  msg.value */\n      callvalue\n        /* \"contracts/CarreraCoches/principal.sol\":2241:2262  msg.value==subirNivel */\n      eq\n        /* \"contracts/CarreraCoches/principal.sol\":2233:2263  require(msg.value==subirNivel) */\n      tag_100\n      jumpi\n      0x00\n      dup1\n      revert\n    tag_100:\n        /* \"contracts/CarreraCoches/principal.sol\":2278:2284  uint i */\n      0x00\n        /* \"contracts/CarreraCoches/principal.sol\":2274:2490  for(uint i = 0; i < listaCoches.length; i++){\r... */\n    tag_101:\n        /* \"contracts/CarreraCoches/principal.sol\":2294:2305  listaCoches */\n      0x05\n        /* \"contracts/CarreraCoches/principal.sol\":2294:2312  listaCoches.length */\n      dup1\n      sload\n      swap1\n      pop\n        /* \"contracts/CarreraCoches/principal.sol\":2290:2291  i */\n      dup2\n        /* \"contracts/CarreraCoches/principal.sol\":2290:2312  i < listaCoches.length */\n      lt\n        /* \"contracts/CarreraCoches/principal.sol\":2274:2490  for(uint i = 0; i < listaCoches.length; i++){\r... */\n      iszero\n      tag_102\n      jumpi\n        /* \"contracts/CarreraCoches/principal.sol\":2363:2375  _propietario */\n      dup3\n        /* \"contracts/CarreraCoches/principal.sol\":2336:2375  listaCoches[i].idPiloto == _propietario */\n      0xffffffffffffffffffffffffffffffffffffffff\n      and\n        /* \"contracts/CarreraCoches/principal.sol\":2336:2347  listaCoches */\n      0x05\n        /* \"contracts/CarreraCoches/principal.sol\":2348:2349  i */\n      dup3\n        /* \"contracts/CarreraCoches/principal.sol\":2336:2350  listaCoches[i] */\n      dup2\n      sload\n      dup2\n      lt\n      tag_104\n      jumpi\n      tag_105\n      tag_106\n      jump\t// in\n    tag_105:\n    tag_104:\n      swap1\n      0x00\n      mstore\n      keccak256(0x00, 0x20)\n      swap1\n      0x08\n      mul\n      add\n        /* \"contracts/CarreraCoches/principal.sol\":2336:2359  listaCoches[i].idPiloto */\n      0x00\n      add\n      0x00\n      swap1\n      sload\n      swap1\n      0x0100\n      exp\n      swap1\n      div\n      0xffffffffffffffffffffffffffffffffffffffff\n      and\n        /* \"contracts/CarreraCoches/principal.sol\":2336:2375  listaCoches[i].idPiloto == _propietario */\n      0xffffffffffffffffffffffffffffffffffffffff\n      and\n      eq\n        /* \"contracts/CarreraCoches/principal.sol\":2333:2479  if(listaCoches[i].idPiloto == _propietario){\r... */\n      iszero\n      tag_108\n      jumpi\n        /* \"contracts/CarreraCoches/principal.sol\":2395:2406  listaCoches */\n      0x05\n        /* \"contracts/CarreraCoches/principal.sol\":2407:2408  i */\n      dup2\n        /* \"contracts/CarreraCoches/principal.sol\":2395:2409  listaCoches[i] */\n      dup2\n      sload\n      dup2\n      lt\n      tag_109\n      jumpi\n      tag_110\n      tag_106\n      jump\t// in\n    tag_110:\n    tag_109:\n      swap1\n      0x00\n      mstore\n      keccak256(0x00, 0x20)\n      swap1\n      0x08\n      mul\n      add\n        /* \"contracts/CarreraCoches/principal.sol\":2395:2415  listaCoches[i].nivel */\n      0x07\n      add\n      0x00\n        /* \"contracts/CarreraCoches/principal.sol\":2395:2417  listaCoches[i].nivel++ */\n      dup2\n      dup2\n      swap1\n      sload\n      swap1\n      0x0100\n      exp\n      swap1\n      div\n      0xffffffff\n      and\n      dup1\n      swap3\n      swap2\n      swap1\n      tag_112\n      swap1\n      tag_113\n      jump\t// in\n    tag_112:\n      swap2\n      swap1\n      0x0100\n      exp\n      dup2\n      sload\n      dup2\n      0xffffffff\n      mul\n      not\n      and\n      swap1\n      dup4\n      0xffffffff\n      and\n      mul\n      or\n      swap1\n      sstore\n      pop\n      pop\n        /* \"contracts/CarreraCoches/principal.sol\":2436:2463  return \"Ha subido de nivel\" */\n      mload(0x40)\n      dup1\n      0x40\n      add\n      0x40\n      mstore\n      dup1\n      0x12\n      dup2\n      mstore\n      0x20\n      add\n      0x48612073756269646f206465206e6976656c0000000000000000000000000000\n      dup2\n      mstore\n      pop\n      swap2\n      pop\n      pop\n      jump(tag_99)\n        /* \"contracts/CarreraCoches/principal.sol\":2333:2479  if(listaCoches[i].idPiloto == _propietario){\r... */\n    tag_108:\n        /* \"contracts/CarreraCoches/principal.sol\":2314:2317  i++ */\n      dup1\n      dup1\n      tag_114\n      swap1\n      tag_95\n      jump\t// in\n    tag_114:\n      swap2\n      pop\n      pop\n        /* \"contracts/CarreraCoches/principal.sol\":2274:2490  for(uint i = 0; i < listaCoches.length; i++){\r... */\n      jump(tag_101)\n    tag_102:\n      pop\n        /* \"contracts/CarreraCoches/principal.sol\":2138:2497  function subirDeNivel(address _propietario) external payable returns(string memory) {\r... */\n    tag_99:\n      swap2\n      swap1\n      pop\n      jump\t// out\n        /* \"contracts/CarreraCoches/principal.sol\":3188:4421  function Apostar(uint dineroApostar) public payable returns(string memory) {\r... */\n    tag_39:\n        /* \"contracts/CarreraCoches/principal.sol\":3248:3261  string memory */\n      0x60\n        /* \"contracts/CarreraCoches/principal.sol\":3294:3307  dineroApostar */\n      dup2\n        /* \"contracts/CarreraCoches/principal.sol\":3281:3290  msg.value */\n      callvalue\n        /* \"contracts/CarreraCoches/principal.sol\":3281:3307  msg.value == dineroApostar */\n      eq\n        /* \"contracts/CarreraCoches/principal.sol\":3273:3308  require(msg.value == dineroApostar) */\n      tag_116\n      jumpi\n      0x00\n      dup1\n      revert\n    tag_116:\n        /* \"contracts/CarreraCoches/principal.sol\":3329:3338  randNonce */\n      0x01\n      0x00\n        /* \"contracts/CarreraCoches/principal.sol\":3329:3340  randNonce++ */\n      dup2\n      sload\n      dup1\n      swap3\n      swap2\n      swap1\n      tag_117\n      swap1\n      tag_95\n      jump\t// in\n    tag_117:\n      swap2\n      swap1\n      pop\n      sstore\n      pop\n        /* \"contracts/CarreraCoches/principal.sol\":3387:3400  uint256 rival */\n      0x00\n        /* \"contracts/CarreraCoches/principal.sol\":3490:3501  listaCoches */\n      0x05\n        /* \"contracts/CarreraCoches/principal.sol\":3490:3508  listaCoches.length */\n      dup1\n      sload\n      swap1\n      pop\n        /* \"contracts/CarreraCoches/principal.sol\":3438:3453  block.timestamp */\n      timestamp\n        /* \"contracts/CarreraCoches/principal.sol\":3455:3466  listaCoches */\n      0x05\n        /* \"contracts/CarreraCoches/principal.sol\":3455:3473  listaCoches.length */\n      dup1\n      sload\n      swap1\n      pop\n        /* \"contracts/CarreraCoches/principal.sol\":3475:3484  randNonce */\n      sload(0x01)\n        /* \"contracts/CarreraCoches/principal.sol\":3421:3485  abi.encodePacked(block.timestamp, listaCoches.length, randNonce) */\n      add(0x20, mload(0x40))\n      tag_118\n      swap4\n      swap3\n      swap2\n      swap1\n      tag_119\n      jump\t// in\n    tag_118:\n      mload(0x40)\n      0x20\n      dup2\n      dup4\n      sub\n      sub\n      dup2\n      mstore\n      swap1\n      0x40\n      mstore\n        /* \"contracts/CarreraCoches/principal.sol\":3411:3486  keccak256(abi.encodePacked(block.timestamp, listaCoches.length, randNonce)) */\n      dup1\n      mload\n      swap1\n      0x20\n      add\n      keccak256\n        /* \"contracts/CarreraCoches/principal.sol\":3403:3487  uint256(keccak256(abi.encodePacked(block.timestamp, listaCoches.length, randNonce))) */\n      0x00\n      shr\n        /* \"contracts/CarreraCoches/principal.sol\":3403:3508  uint256(keccak256(abi.encodePacked(block.timestamp, listaCoches.length, randNonce))) % listaCoches.length */\n      tag_120\n      swap2\n      swap1\n      tag_121\n      jump\t// in\n    tag_120:\n        /* \"contracts/CarreraCoches/principal.sol\":3387:3508  uint256 rival = uint256(keccak256(abi.encodePacked(block.timestamp, listaCoches.length, randNonce))) % listaCoches.length */\n      swap1\n      pop\n        /* \"contracts/CarreraCoches/principal.sol\":3551:3560  randNonce */\n      0x01\n      0x00\n        /* \"contracts/CarreraCoches/principal.sol\":3551:3562  randNonce++ */\n      dup2\n      sload\n      dup1\n      swap3\n      swap2\n      swap1\n      tag_122\n      swap1\n      tag_95\n      jump\t// in\n    tag_122:\n      swap2\n      swap1\n      pop\n      sstore\n      pop\n        /* \"contracts/CarreraCoches/principal.sol\":3573:3584  uint numero */\n      0x00\n        /* \"contracts/CarreraCoches/principal.sol\":3587:3588  2 */\n      0x02\n        /* \"contracts/CarreraCoches/principal.sol\":3573:3588  uint numero = 2 */\n      swap1\n      pop\n        /* \"contracts/CarreraCoches/principal.sol\":3599:3614  uint256 ganador */\n      0x00\n        /* \"contracts/CarreraCoches/principal.sol\":3692:3698  numero */\n      dup2\n        /* \"contracts/CarreraCoches/principal.sol\":3652:3667  block.timestamp */\n      timestamp\n        /* \"contracts/CarreraCoches/principal.sol\":3669:3675  numero */\n      dup4\n        /* \"contracts/CarreraCoches/principal.sol\":3677:3686  randNonce */\n      sload(0x01)\n        /* \"contracts/CarreraCoches/principal.sol\":3635:3687  abi.encodePacked(block.timestamp, numero, randNonce) */\n      add(0x20, mload(0x40))\n      tag_123\n      swap4\n      swap3\n      swap2\n      swap1\n      tag_119\n      jump\t// in\n    tag_123:\n      mload(0x40)\n      0x20\n      dup2\n      dup4\n      sub\n      sub\n      dup2\n      mstore\n      swap1\n      0x40\n      mstore\n        /* \"contracts/CarreraCoches/principal.sol\":3625:3688  keccak256(abi.encodePacked(block.timestamp, numero, randNonce)) */\n      dup1\n      mload\n      swap1\n      0x20\n      add\n      keccak256\n        /* \"contracts/CarreraCoches/principal.sol\":3617:3689  uint256(keccak256(abi.encodePacked(block.timestamp, numero, randNonce))) */\n      0x00\n      shr\n        /* \"contracts/CarreraCoches/principal.sol\":3617:3698  uint256(keccak256(abi.encodePacked(block.timestamp, numero, randNonce))) % numero */\n      tag_124\n      swap2\n      swap1\n      tag_121\n      jump\t// in\n    tag_124:\n        /* \"contracts/CarreraCoches/principal.sol\":3599:3698  uint256 ganador = uint256(keccak256(abi.encodePacked(block.timestamp, numero, randNonce))) % numero */\n      swap1\n      pop\n        /* \"contracts/CarreraCoches/principal.sol\":3715:3721  uint i */\n      0x00\n        /* \"contracts/CarreraCoches/principal.sol\":3711:4415  for(uint i = 0; i < listaCoches.length; i++){\r... */\n    tag_125:\n        /* \"contracts/CarreraCoches/principal.sol\":3731:3742  listaCoches */\n      0x05\n        /* \"contracts/CarreraCoches/principal.sol\":3731:3749  listaCoches.length */\n      dup1\n      sload\n      swap1\n      pop\n        /* \"contracts/CarreraCoches/principal.sol\":3727:3728  i */\n      dup2\n        /* \"contracts/CarreraCoches/principal.sol\":3727:3749  i < listaCoches.length */\n      lt\n        /* \"contracts/CarreraCoches/principal.sol\":3711:4415  for(uint i = 0; i < listaCoches.length; i++){\r... */\n      iszero\n      tag_126\n      jumpi\n        /* \"contracts/CarreraCoches/principal.sol\":3891:3902  listaCoches */\n      0x05\n        /* \"contracts/CarreraCoches/principal.sol\":3903:3904  i */\n      dup2\n        /* \"contracts/CarreraCoches/principal.sol\":3891:3905  listaCoches[i] */\n      dup2\n      sload\n      dup2\n      lt\n      tag_128\n      jumpi\n      tag_129\n      tag_106\n      jump\t// in\n    tag_129:\n    tag_128:\n      swap1\n      0x00\n      mstore\n      keccak256(0x00, 0x20)\n      swap1\n      0x08\n      mul\n      add\n        /* \"contracts/CarreraCoches/principal.sol\":3891:3914  listaCoches[i].idPiloto */\n      0x00\n      add\n      0x00\n      swap1\n      sload\n      swap1\n      0x0100\n      exp\n      swap1\n      div\n      0xffffffffffffffffffffffffffffffffffffffff\n      and\n        /* \"contracts/CarreraCoches/principal.sol\":3877:3914  msg.sender == listaCoches[i].idPiloto */\n      0xffffffffffffffffffffffffffffffffffffffff\n      and\n        /* \"contracts/CarreraCoches/principal.sol\":3877:3887  msg.sender */\n      caller\n        /* \"contracts/CarreraCoches/principal.sol\":3877:3914  msg.sender == listaCoches[i].idPiloto */\n      0xffffffffffffffffffffffffffffffffffffffff\n      and\n      eq\n        /* \"contracts/CarreraCoches/principal.sol\":3873:4404  if (msg.sender == listaCoches[i].idPiloto) {\r... */\n      iszero\n      tag_131\n      jumpi\n        /* \"contracts/CarreraCoches/principal.sol\":3949:3950  0 */\n      0x00\n        /* \"contracts/CarreraCoches/principal.sol\":3938:3945  ganador */\n      dup3\n        /* \"contracts/CarreraCoches/principal.sol\":3938:3950  ganador == 0 */\n      eq\n        /* \"contracts/CarreraCoches/principal.sol\":3935:4288  if(ganador == 0){\r... */\n      iszero\n      tag_132\n      jumpi\n        /* \"contracts/CarreraCoches/principal.sol\":3974:3983  balance() */\n      tag_133\n        /* \"contracts/CarreraCoches/principal.sol\":3974:3981  balance */\n      tag_134\n        /* \"contracts/CarreraCoches/principal.sol\":3974:3983  balance() */\n      jump\t// in\n    tag_133:\n        /* \"contracts/CarreraCoches/principal.sol\":4006:4025  return \"Has ganado\" */\n      mload(0x40)\n      dup1\n      0x40\n      add\n      0x40\n      mstore\n      dup1\n      0x0a\n      dup2\n      mstore\n      0x20\n      add\n      0x4861732067616e61646f00000000000000000000000000000000000000000000\n      dup2\n      mstore\n      pop\n      swap5\n      pop\n      pop\n      pop\n      pop\n      pop\n      jump(tag_115)\n        /* \"contracts/CarreraCoches/principal.sol\":3935:4288  if(ganador == 0){\r... */\n    tag_132:\n        /* \"contracts/CarreraCoches/principal.sol\":4177:4225  mostrarResultado(\"El coche ganador es: \", rival) */\n      0xa28482eec3136a2461c6c30c08f71ba279c6c51a2d9c7bea4e50d6d2632f3896\n        /* \"contracts/CarreraCoches/principal.sol\":4219:4224  rival */\n      dup5\n        /* \"contracts/CarreraCoches/principal.sol\":4177:4225  mostrarResultado(\"El coche ganador es: \", rival) */\n      mload(0x40)\n      tag_144\n      swap2\n      swap1\n      tag_145\n      jump\t// in\n    tag_144:\n      mload(0x40)\n      dup1\n      swap2\n      sub\n      swap1\n      log1\n        /* \"contracts/CarreraCoches/principal.sol\":4248:4268  return \"Has perdido\" */\n      mload(0x40)\n      dup1\n      0x40\n      add\n      0x40\n      mstore\n      dup1\n      0x0b\n      dup2\n      mstore\n      0x20\n      add\n      0x486173207065726469646f000000000000000000000000000000000000000000\n      dup2\n      mstore\n      pop\n      swap5\n      pop\n      pop\n      pop\n      pop\n      pop\n      jump(tag_115)\n        /* \"contracts/CarreraCoches/principal.sol\":3873:4404  if (msg.sender == listaCoches[i].idPiloto) {\r... */\n    tag_131:\n        /* \"contracts/CarreraCoches/principal.sol\":3751:3754  i++ */\n      dup1\n      dup1\n      tag_155\n      swap1\n      tag_95\n      jump\t// in\n    tag_155:\n      swap2\n      pop\n      pop\n        /* \"contracts/CarreraCoches/principal.sol\":3711:4415  for(uint i = 0; i < listaCoches.length; i++){\r... */\n      jump(tag_125)\n    tag_126:\n      pop\n        /* \"contracts/CarreraCoches/principal.sol\":3263:4421  {\r... */\n      pop\n      pop\n      pop\n        /* \"contracts/CarreraCoches/principal.sol\":3188:4421  function Apostar(uint dineroApostar) public payable returns(string memory) {\r... */\n    tag_115:\n      swap2\n      swap1\n      pop\n      jump\t// out\n        /* \"contracts/CarreraCoches/ownable.sol\":1719:1822  function renounceOwnership() public virtual onlyOwner {\r... */\n    tag_43:\n        /* \"contracts/CarreraCoches/ownable.sol\":1299:1311  _msgSender() */\n      tag_157\n        /* \"contracts/CarreraCoches/ownable.sol\":1299:1309  _msgSender */\n      tag_74\n        /* \"contracts/CarreraCoches/ownable.sol\":1299:1311  _msgSender() */\n      jump\t// in\n    tag_157:\n        /* \"contracts/CarreraCoches/ownable.sol\":1288:1311  owner() == _msgSender() */\n      0xffffffffffffffffffffffffffffffffffffffff\n      and\n        /* \"contracts/CarreraCoches/ownable.sol\":1288:1295  owner() */\n      tag_158\n        /* \"contracts/CarreraCoches/ownable.sol\":1288:1293  owner */\n      tag_52\n        /* \"contracts/CarreraCoches/ownable.sol\":1288:1295  owner() */\n      jump\t// in\n    tag_158:\n        /* \"contracts/CarreraCoches/ownable.sol\":1288:1311  owner() == _msgSender() */\n      0xffffffffffffffffffffffffffffffffffffffff\n      and\n      eq\n        /* \"contracts/CarreraCoches/ownable.sol\":1280:1348  require(owner() == _msgSender(), \"Ownable: caller is not the owner\") */\n      tag_159\n      jumpi\n      mload(0x40)\n      0x08c379a000000000000000000000000000000000000000000000000000000000\n      dup2\n      mstore\n      0x04\n      add\n      tag_160\n      swap1\n      tag_78\n      jump\t// in\n    tag_160:\n      mload(0x40)\n      dup1\n      swap2\n      sub\n      swap1\n      revert\n    tag_159:\n        /* \"contracts/CarreraCoches/ownable.sol\":1784:1814  _transferOwnership(address(0)) */\n      tag_162\n        /* \"contracts/CarreraCoches/ownable.sol\":1811:1812  0 */\n      0x00\n        /* \"contracts/CarreraCoches/ownable.sol\":1784:1802  _transferOwnership */\n      tag_163\n        /* \"contracts/CarreraCoches/ownable.sol\":1784:1814  _transferOwnership(address(0)) */\n      jump\t// in\n    tag_162:\n        /* \"contracts/CarreraCoches/ownable.sol\":1719:1822  function renounceOwnership() public virtual onlyOwner {\r... */\n      jump\t// out\n        /* \"contracts/CarreraCoches/principal.sol\":816:867  mapping (uint => address) public cocheDePropietario */\n    tag_47:\n      mstore(0x20, 0x06)\n      dup1\n      0x00\n      mstore\n      keccak256(0x00, 0x40)\n      0x00\n      swap2\n      pop\n      sload\n      swap1\n      0x0100\n      exp\n      swap1\n      div\n      0xffffffffffffffffffffffffffffffffffffffff\n      and\n      dup2\n      jump\t// out\n        /* \"contracts/CarreraCoches/ownable.sol\":1068:1155  function owner() public view virtual returns (address) {\r... */\n    tag_52:\n        /* \"contracts/CarreraCoches/ownable.sol\":1114:1121  address */\n      0x00\n        /* \"contracts/CarreraCoches/ownable.sol\":1141:1147  _owner */\n      dup1\n      0x00\n      swap1\n      sload\n      swap1\n      0x0100\n      exp\n      swap1\n      div\n      0xffffffffffffffffffffffffffffffffffffffff\n      and\n        /* \"contracts/CarreraCoches/ownable.sol\":1134:1147  return _owner */\n      swap1\n      pop\n        /* \"contracts/CarreraCoches/ownable.sol\":1068:1155  function owner() public view virtual returns (address) {\r... */\n      swap1\n      jump\t// out\n        /* \"contracts/CarreraCoches/ownable.sol\":701:722  address public _owner */\n    tag_56:\n      0x00\n      dup1\n      sload\n      swap1\n      0x0100\n      exp\n      swap1\n      div\n      0xffffffffffffffffffffffffffffffffffffffff\n      and\n      dup2\n      jump\t// out\n        /* \"contracts/CarreraCoches/principal.sol\":569:595  Coche[] public listaCoches */\n    tag_61:\n      0x05\n      dup2\n      dup2\n      sload\n      dup2\n      lt\n      tag_165\n      jumpi\n      0x00\n      dup1\n      revert\n    tag_165:\n      swap1\n      0x00\n      mstore\n      keccak256(0x00, 0x20)\n      swap1\n      0x08\n      mul\n      add\n      0x00\n      swap2\n      pop\n      swap1\n      pop\n      dup1\n      0x00\n      add\n      0x00\n      swap1\n      sload\n      swap1\n      0x0100\n      exp\n      swap1\n      div\n      0xffffffffffffffffffffffffffffffffffffffff\n      and\n      swap1\n      dup1\n      0x01\n      add\n      dup1\n      sload\n      tag_167\n      swap1\n      tag_168\n      jump\t// in\n    tag_167:\n      dup1\n      0x1f\n      add\n      0x20\n      dup1\n      swap2\n      div\n      mul\n      0x20\n      add\n      mload(0x40)\n      swap1\n      dup2\n      add\n      0x40\n      mstore\n      dup1\n      swap3\n      swap2\n      swap1\n      dup2\n      dup2\n      mstore\n      0x20\n      add\n      dup3\n      dup1\n      sload\n      tag_169\n      swap1\n      tag_168\n      jump\t// in\n    tag_169:\n      dup1\n      iszero\n      tag_170\n      jumpi\n      dup1\n      0x1f\n      lt\n      tag_171\n      jumpi\n      0x0100\n      dup1\n      dup4\n      sload\n      div\n      mul\n      dup4\n      mstore\n      swap2\n      0x20\n      add\n      swap2\n      jump(tag_170)\n    tag_171:\n      dup3\n      add\n      swap2\n      swap1\n      0x00\n      mstore\n      keccak256(0x00, 0x20)\n      swap1\n    tag_172:\n      dup2\n      sload\n      dup2\n      mstore\n      swap1\n      0x01\n      add\n      swap1\n      0x20\n      add\n      dup1\n      dup4\n      gt\n      tag_172\n      jumpi\n      dup3\n      swap1\n      sub\n      0x1f\n      and\n      dup3\n      add\n      swap2\n    tag_170:\n      pop\n      pop\n      pop\n      pop\n      pop\n      swap1\n      dup1\n      0x02\n      add\n      dup1\n      sload\n      tag_173\n      swap1\n      tag_168\n      jump\t// in\n    tag_173:\n      dup1\n      0x1f\n      add\n      0x20\n      dup1\n      swap2\n      div\n      mul\n      0x20\n      add\n      mload(0x40)\n      swap1\n      dup2\n      add\n      0x40\n      mstore\n      dup1\n      swap3\n      swap2\n      swap1\n      dup2\n      dup2\n      mstore\n      0x20\n      add\n      dup3\n      dup1\n      sload\n      tag_174\n      swap1\n      tag_168\n      jump\t// in\n    tag_174:\n      dup1\n      iszero\n      tag_175\n      jumpi\n      dup1\n      0x1f\n      lt\n      tag_176\n      jumpi\n      0x0100\n      dup1\n      dup4\n      sload\n      div\n      mul\n      dup4\n      mstore\n      swap2\n      0x20\n      add\n      swap2\n      jump(tag_175)\n    tag_176:\n      dup3\n      add\n      swap2\n      swap1\n      0x00\n      mstore\n      keccak256(0x00, 0x20)\n      swap1\n    tag_177:\n      dup2\n      sload\n      dup2\n      mstore\n      swap1\n      0x01\n      add\n      swap1\n      0x20\n      add\n      dup1\n      dup4\n      gt\n      tag_177\n      jumpi\n      dup3\n      swap1\n      sub\n      0x1f\n      and\n      dup3\n      add\n      swap2\n    tag_175:\n      pop\n      pop\n      pop\n      pop\n      pop\n      swap1\n      dup1\n      0x03\n      add\n      dup1\n      sload\n      tag_178\n      swap1\n      tag_168\n      jump\t// in\n    tag_178:\n      dup1\n      0x1f\n      add\n      0x20\n      dup1\n      swap2\n      div\n      mul\n      0x20\n      add\n      mload(0x40)\n      swap1\n      dup2\n      add\n      0x40\n      mstore\n      dup1\n      swap3\n      swap2\n      swap1\n      dup2\n      dup2\n      mstore\n      0x20\n      add\n      dup3\n      dup1\n      sload\n      tag_179\n      swap1\n      tag_168\n      jump\t// in\n    tag_179:\n      dup1\n      iszero\n      tag_180\n      jumpi\n      dup1\n      0x1f\n      lt\n      tag_181\n      jumpi\n      0x0100\n      dup1\n      dup4\n      sload\n      div\n      mul\n      dup4\n      mstore\n      swap2\n      0x20\n      add\n      swap2\n      jump(tag_180)\n    tag_181:\n      dup3\n      add\n      swap2\n      swap1\n      0x00\n      mstore\n      keccak256(0x00, 0x20)\n      swap1\n    tag_182:\n      dup2\n      sload\n      dup2\n      mstore\n      swap1\n      0x01\n      add\n      swap1\n      0x20\n      add\n      dup1\n      dup4\n      gt\n      tag_182\n      jumpi\n      dup3\n      swap1\n      sub\n      0x1f\n      and\n      dup3\n      add\n      swap2\n    tag_180:\n      pop\n      pop\n      pop\n      pop\n      pop\n      swap1\n      dup1\n      0x04\n      add\n      sload\n      swap1\n      dup1\n      0x05\n      add\n      sload\n      swap1\n      dup1\n      0x06\n      add\n      sload\n      swap1\n      dup1\n      0x07\n      add\n      0x00\n      swap1\n      sload\n      swap1\n      0x0100\n      exp\n      swap1\n      div\n      0xffffffff\n      and\n      swap1\n      pop\n      dup9\n      jump\t// out\n        /* \"contracts/CarreraCoches/principal.sol\":2507:2851  function verCochePropietario(address _propietario) external {\r... */\n    tag_67:\n        /* \"contracts/CarreraCoches/principal.sol\":2582:2588  uint i */\n      0x00\n        /* \"contracts/CarreraCoches/principal.sol\":2578:2844  for(uint i = 0; i < listaCoches.length; i++){\r... */\n    tag_184:\n        /* \"contracts/CarreraCoches/principal.sol\":2598:2609  listaCoches */\n      0x05\n        /* \"contracts/CarreraCoches/principal.sol\":2598:2616  listaCoches.length */\n      dup1\n      sload\n      swap1\n      pop\n        /* \"contracts/CarreraCoches/principal.sol\":2594:2595  i */\n      dup2\n        /* \"contracts/CarreraCoches/principal.sol\":2594:2616  i < listaCoches.length */\n      lt\n        /* \"contracts/CarreraCoches/principal.sol\":2578:2844  for(uint i = 0; i < listaCoches.length; i++){\r... */\n      iszero\n      tag_185\n      jumpi\n        /* \"contracts/CarreraCoches/principal.sol\":2665:2677  _propietario */\n      dup2\n        /* \"contracts/CarreraCoches/principal.sol\":2640:2677  listaCoches[i].idPiloto==_propietario */\n      0xffffffffffffffffffffffffffffffffffffffff\n      and\n        /* \"contracts/CarreraCoches/principal.sol\":2640:2651  listaCoches */\n      0x05\n        /* \"contracts/CarreraCoches/principal.sol\":2652:2653  i */\n      dup3\n        /* \"contracts/CarreraCoches/principal.sol\":2640:2654  listaCoches[i] */\n      dup2\n      sload\n      dup2\n      lt\n      tag_187\n      jumpi\n      tag_188\n      tag_106\n      jump\t// in\n    tag_188:\n    tag_187:\n      swap1\n      0x00\n      mstore\n      keccak256(0x00, 0x20)\n      swap1\n      0x08\n      mul\n      add\n        /* \"contracts/CarreraCoches/principal.sol\":2640:2663  listaCoches[i].idPiloto */\n      0x00\n      add\n      0x00\n      swap1\n      sload\n      swap1\n      0x0100\n      exp\n      swap1\n      div\n      0xffffffffffffffffffffffffffffffffffffffff\n      and\n        /* \"contracts/CarreraCoches/principal.sol\":2640:2677  listaCoches[i].idPiloto==_propietario */\n      0xffffffffffffffffffffffffffffffffffffffff\n      and\n      eq\n        /* \"contracts/CarreraCoches/principal.sol\":2637:2833  if(listaCoches[i].idPiloto==_propietario){\r... */\n      iszero\n      tag_190\n      jumpi\n        /* \"contracts/CarreraCoches/principal.sol\":2702:2817  cochePropietario(listaCoches[i].marca, listaCoches[i].modelo, listaCoches[i].nivel, listaCoches[i].carrerasGanadas) */\n      0x18c2885dbbffc4e127da047b869295b42d8d5ee97848f7f117b062e88f34a9e6\n        /* \"contracts/CarreraCoches/principal.sol\":2719:2730  listaCoches */\n      0x05\n        /* \"contracts/CarreraCoches/principal.sol\":2731:2732  i */\n      dup3\n        /* \"contracts/CarreraCoches/principal.sol\":2719:2733  listaCoches[i] */\n      dup2\n      sload\n      dup2\n      lt\n      tag_191\n      jumpi\n      tag_192\n      tag_106\n      jump\t// in\n    tag_192:\n    tag_191:\n      swap1\n      0x00\n      mstore\n      keccak256(0x00, 0x20)\n      swap1\n      0x08\n      mul\n      add\n        /* \"contracts/CarreraCoches/principal.sol\":2719:2739  listaCoches[i].marca */\n      0x02\n      add\n        /* \"contracts/CarreraCoches/principal.sol\":2741:2752  listaCoches */\n      0x05\n        /* \"contracts/CarreraCoches/principal.sol\":2753:2754  i */\n      dup4\n        /* \"contracts/CarreraCoches/principal.sol\":2741:2755  listaCoches[i] */\n      dup2\n      sload\n      dup2\n      lt\n      tag_194\n      jumpi\n      tag_195\n      tag_106\n      jump\t// in\n    tag_195:\n    tag_194:\n      swap1\n      0x00\n      mstore\n      keccak256(0x00, 0x20)\n      swap1\n      0x08\n      mul\n      add\n        /* \"contracts/CarreraCoches/principal.sol\":2741:2762  listaCoches[i].modelo */\n      0x01\n      add\n        /* \"contracts/CarreraCoches/principal.sol\":2764:2775  listaCoches */\n      0x05\n        /* \"contracts/CarreraCoches/principal.sol\":2776:2777  i */\n      dup5\n        /* \"contracts/CarreraCoches/principal.sol\":2764:2778  listaCoches[i] */\n      dup2\n      sload\n      dup2\n      lt\n      tag_197\n      jumpi\n      tag_198\n      tag_106\n      jump\t// in\n    tag_198:\n    tag_197:\n      swap1\n      0x00\n      mstore\n      keccak256(0x00, 0x20)\n      swap1\n      0x08\n      mul\n      add\n        /* \"contracts/CarreraCoches/principal.sol\":2764:2784  listaCoches[i].nivel */\n      0x07\n      add\n      0x00\n      swap1\n      sload\n      swap1\n      0x0100\n      exp\n      swap1\n      div\n      0xffffffff\n      and\n        /* \"contracts/CarreraCoches/principal.sol\":2786:2797  listaCoches */\n      0x05\n        /* \"contracts/CarreraCoches/principal.sol\":2798:2799  i */\n      dup6\n        /* \"contracts/CarreraCoches/principal.sol\":2786:2800  listaCoches[i] */\n      dup2\n      sload\n      dup2\n      lt\n      tag_200\n      jumpi\n      tag_201\n      tag_106\n      jump\t// in\n    tag_201:\n    tag_200:\n      swap1\n      0x00\n      mstore\n      keccak256(0x00, 0x20)\n      swap1\n      0x08\n      mul\n      add\n        /* \"contracts/CarreraCoches/principal.sol\":2786:2816  listaCoches[i].carrerasGanadas */\n      0x04\n      add\n      sload\n        /* \"contracts/CarreraCoches/principal.sol\":2702:2817  cochePropietario(listaCoches[i].marca, listaCoches[i].modelo, listaCoches[i].nivel, listaCoches[i].carrerasGanadas) */\n      mload(0x40)\n      tag_203\n      swap5\n      swap4\n      swap3\n      swap2\n      swap1\n      tag_204\n      jump\t// in\n    tag_203:\n      mload(0x40)\n      dup1\n      swap2\n      sub\n      swap1\n      log1\n        /* \"contracts/CarreraCoches/principal.sol\":2637:2833  if(listaCoches[i].idPiloto==_propietario){\r... */\n    tag_190:\n        /* \"contracts/CarreraCoches/principal.sol\":2618:2621  i++ */\n      dup1\n      dup1\n      tag_205\n      swap1\n      tag_95\n      jump\t// in\n    tag_205:\n      swap2\n      pop\n      pop\n        /* \"contracts/CarreraCoches/principal.sol\":2578:2844  for(uint i = 0; i < listaCoches.length; i++){\r... */\n      jump(tag_184)\n    tag_185:\n      pop\n        /* \"contracts/CarreraCoches/principal.sol\":2507:2851  function verCochePropietario(address _propietario) external {\r... */\n      pop\n      jump\t// out\n        /* \"contracts/CarreraCoches/ownable.sol\":1977:2178  function transferOwnership(address newOwner) public virtual onlyOwner {\r... */\n    tag_71:\n        /* \"contracts/CarreraCoches/ownable.sol\":1299:1311  _msgSender() */\n      tag_207\n        /* \"contracts/CarreraCoches/ownable.sol\":1299:1309  _msgSender */\n      tag_74\n        /* \"contracts/CarreraCoches/ownable.sol\":1299:1311  _msgSender() */\n      jump\t// in\n    tag_207:\n        /* \"contracts/CarreraCoches/ownable.sol\":1288:1311  owner() == _msgSender() */\n      0xffffffffffffffffffffffffffffffffffffffff\n      and\n        /* \"contracts/CarreraCoches/ownable.sol\":1288:1295  owner() */\n      tag_208\n        /* \"contracts/CarreraCoches/ownable.sol\":1288:1293  owner */\n      tag_52\n        /* \"contracts/CarreraCoches/ownable.sol\":1288:1295  owner() */\n      jump\t// in\n    tag_208:\n        /* \"contracts/CarreraCoches/ownable.sol\":1288:1311  owner() == _msgSender() */\n      0xffffffffffffffffffffffffffffffffffffffff\n      and\n      eq\n        /* \"contracts/CarreraCoches/ownable.sol\":1280:1348  require(owner() == _msgSender(), \"Ownable: caller is not the owner\") */\n      tag_209\n      jumpi\n      mload(0x40)\n      0x08c379a000000000000000000000000000000000000000000000000000000000\n      dup2\n      mstore\n      0x04\n      add\n      tag_210\n      swap1\n      tag_78\n      jump\t// in\n    tag_210:\n      mload(0x40)\n      dup1\n      swap2\n      sub\n      swap1\n      revert\n    tag_209:\n        /* \"contracts/CarreraCoches/ownable.sol\":2086:2087  0 */\n      0x00\n        /* \"contracts/CarreraCoches/ownable.sol\":2066:2088  newOwner != address(0) */\n      0xffffffffffffffffffffffffffffffffffffffff\n      and\n        /* \"contracts/CarreraCoches/ownable.sol\":2066:2074  newOwner */\n      dup2\n        /* \"contracts/CarreraCoches/ownable.sol\":2066:2088  newOwner != address(0) */\n      0xffffffffffffffffffffffffffffffffffffffff\n      and\n      eq\n      iszero\n        /* \"contracts/CarreraCoches/ownable.sol\":2058:2131  require(newOwner != address(0), \"Ownable: new owner is the zero address\") */\n      tag_212\n      jumpi\n      mload(0x40)\n      0x08c379a000000000000000000000000000000000000000000000000000000000\n      dup2\n      mstore\n      0x04\n      add\n      tag_213\n      swap1\n      tag_214\n      jump\t// in\n    tag_213:\n      mload(0x40)\n      dup1\n      swap2\n      sub\n      swap1\n      revert\n    tag_212:\n        /* \"contracts/CarreraCoches/ownable.sol\":2142:2170  _transferOwnership(newOwner) */\n      tag_215\n        /* \"contracts/CarreraCoches/ownable.sol\":2161:2169  newOwner */\n      dup2\n        /* \"contracts/CarreraCoches/ownable.sol\":2142:2160  _transferOwnership */\n      tag_163\n        /* \"contracts/CarreraCoches/ownable.sol\":2142:2170  _transferOwnership(newOwner) */\n      jump\t// in\n    tag_215:\n        /* \"contracts/CarreraCoches/ownable.sol\":1977:2178  function transferOwnership(address newOwner) public virtual onlyOwner {\r... */\n      pop\n      jump\t// out\n        /* \"contracts/CarreraCoches/utils/Context.sol\":656:754  function _msgSender() internal view virtual returns (address) {\r... */\n    tag_74:\n        /* \"contracts/CarreraCoches/utils/Context.sol\":709:716  address */\n      0x00\n        /* \"contracts/CarreraCoches/utils/Context.sol\":736:746  msg.sender */\n      caller\n        /* \"contracts/CarreraCoches/utils/Context.sol\":729:746  return msg.sender */\n      swap1\n      pop\n        /* \"contracts/CarreraCoches/utils/Context.sol\":656:754  function _msgSender() internal view virtual returns (address) {\r... */\n      swap1\n      jump\t// out\n        /* \"contracts/CarreraCoches/principal.sol\":4478:4657  function balance() private {\r... */\n    tag_134:\n        /* \"contracts/CarreraCoches/principal.sol\":4525:4535  msg.sender */\n      caller\n        /* \"contracts/CarreraCoches/principal.sol\":4516:4545  payable (msg.sender).transfer */\n      0xffffffffffffffffffffffffffffffffffffffff\n      and\n        /* \"contracts/CarreraCoches/principal.sol\":4516:4572  payable (msg.sender).transfer((address(this).balance)*2) */\n      0x08fc\n        /* \"contracts/CarreraCoches/principal.sol\":4570:4571  2 */\n      0x02\n        /* \"contracts/CarreraCoches/principal.sol\":4547:4568  address(this).balance */\n      selfbalance\n        /* \"contracts/CarreraCoches/principal.sol\":4546:4571  (address(this).balance)*2 */\n      tag_218\n      swap2\n      swap1\n      tag_219\n      jump\t// in\n    tag_218:\n        /* \"contracts/CarreraCoches/principal.sol\":4516:4572  payable (msg.sender).transfer((address(this).balance)*2) */\n      swap1\n      dup2\n      iszero\n      mul\n      swap1\n      mload(0x40)\n      0x00\n      mload(0x40)\n      dup1\n      dup4\n      sub\n      dup2\n      dup6\n      dup9\n      dup9\n      call\n      swap4\n      pop\n      pop\n      pop\n      pop\n      iszero\n      dup1\n      iszero\n      tag_221\n      jumpi\n      returndatasize\n      0x00\n      dup1\n      returndatacopy\n      revert(0x00, returndatasize)\n    tag_221:\n      pop\n        /* \"contracts/CarreraCoches/principal.sol\":4588:4649  mostrarResultado(\"Has ganado: \", ((address(this).balance)*2)) */\n      0xa28482eec3136a2461c6c30c08f71ba279c6c51a2d9c7bea4e50d6d2632f3896\n        /* \"contracts/CarreraCoches/principal.sol\":4646:4647  2 */\n      0x02\n        /* \"contracts/CarreraCoches/principal.sol\":4623:4644  address(this).balance */\n      selfbalance\n        /* \"contracts/CarreraCoches/principal.sol\":4622:4647  (address(this).balance)*2 */\n      tag_222\n      swap2\n      swap1\n      tag_219\n      jump\t// in\n    tag_222:\n        /* \"contracts/CarreraCoches/principal.sol\":4588:4649  mostrarResultado(\"Has ganado: \", ((address(this).balance)*2)) */\n      mload(0x40)\n      tag_223\n      swap2\n      swap1\n      tag_224\n      jump\t// in\n    tag_223:\n      mload(0x40)\n      dup1\n      swap2\n      sub\n      swap1\n      log1\n        /* \"contracts/CarreraCoches/principal.sol\":4478:4657  function balance() private {\r... */\n      jump\t// out\n        /* \"contracts/CarreraCoches/ownable.sol\":2338:2529  function _transferOwnership(address newOwner) internal virtual {\r... */\n    tag_163:\n        /* \"contracts/CarreraCoches/ownable.sol\":2412:2428  address oldOwner */\n      0x00\n        /* \"contracts/CarreraCoches/ownable.sol\":2431:2437  _owner */\n      dup1\n      0x00\n      swap1\n      sload\n      swap1\n      0x0100\n      exp\n      swap1\n      div\n      0xffffffffffffffffffffffffffffffffffffffff\n      and\n        /* \"contracts/CarreraCoches/ownable.sol\":2412:2437  address oldOwner = _owner */\n      swap1\n      pop\n        /* \"contracts/CarreraCoches/ownable.sol\":2457:2465  newOwner */\n      dup2\n        /* \"contracts/CarreraCoches/ownable.sol\":2448:2454  _owner */\n      0x00\n      dup1\n        /* \"contracts/CarreraCoches/ownable.sol\":2448:2465  _owner = newOwner */\n      0x0100\n      exp\n      dup2\n      sload\n      dup2\n      0xffffffffffffffffffffffffffffffffffffffff\n      mul\n      not\n      and\n      swap1\n      dup4\n      0xffffffffffffffffffffffffffffffffffffffff\n      and\n      mul\n      or\n      swap1\n      sstore\n      pop\n        /* \"contracts/CarreraCoches/ownable.sol\":2512:2520  newOwner */\n      dup2\n        /* \"contracts/CarreraCoches/ownable.sol\":2481:2521  OwnershipTransferred(oldOwner, newOwner) */\n      0xffffffffffffffffffffffffffffffffffffffff\n      and\n        /* \"contracts/CarreraCoches/ownable.sol\":2502:2510  oldOwner */\n      dup2\n        /* \"contracts/CarreraCoches/ownable.sol\":2481:2521  OwnershipTransferred(oldOwner, newOwner) */\n      0xffffffffffffffffffffffffffffffffffffffff\n      and\n      0x8be0079c531659141344cd1fd0a4f28419497f9722a3daafe3b4186f6b6457e0\n      mload(0x40)\n      mload(0x40)\n      dup1\n      swap2\n      sub\n      swap1\n      log3\n        /* \"contracts/CarreraCoches/ownable.sol\":2401:2529  {\r... */\n      pop\n        /* \"contracts/CarreraCoches/ownable.sol\":2338:2529  function _transferOwnership(address newOwner) internal virtual {\r... */\n      pop\n      jump\t// out\n    tag_91:\n      dup3\n      dup1\n      sload\n      tag_228\n      swap1\n      tag_168\n      jump\t// in\n    tag_228:\n      swap1\n      0x00\n      mstore\n      keccak256(0x00, 0x20)\n      swap1\n      0x1f\n      add\n      0x20\n      swap1\n      div\n      dup2\n      add\n      swap3\n      dup3\n      tag_230\n      jumpi\n      0x00\n      dup6\n      sstore\n      jump(tag_229)\n    tag_230:\n      dup3\n      0x1f\n      lt\n      tag_231\n      jumpi\n      dup1\n      mload\n      not(0xff)\n      and\n      dup4\n      dup1\n      add\n      or\n      dup6\n      sstore\n      jump(tag_229)\n    tag_231:\n      dup3\n      dup1\n      add\n      0x01\n      add\n      dup6\n      sstore\n      dup3\n      iszero\n      tag_229\n      jumpi\n      swap2\n      dup3\n      add\n    tag_232:\n      dup3\n      dup2\n      gt\n      iszero\n      tag_233\n      jumpi\n      dup3\n      mload\n      dup3\n      sstore\n      swap2\n      0x20\n      add\n      swap2\n      swap1\n      0x01\n      add\n      swap1\n      jump(tag_232)\n    tag_233:\n    tag_229:\n      pop\n      swap1\n      pop\n      tag_234\n      swap2\n      swap1\n      tag_235\n      jump\t// in\n    tag_234:\n      pop\n      swap1\n      jump\t// out\n    tag_235:\n    tag_236:\n      dup1\n      dup3\n      gt\n      iszero\n      tag_237\n      jumpi\n      0x00\n      dup2\n      0x00\n      swap1\n      sstore\n      pop\n      0x01\n      add\n      jump(tag_236)\n    tag_237:\n      pop\n      swap1\n      jump\t// out\n        /* \"#utility.yul\":7:419   */\n    tag_239:\n        /* \"#utility.yul\":85:90   */\n      0x00\n        /* \"#utility.yul\":110:176   */\n      tag_241\n        /* \"#utility.yul\":126:175   */\n      tag_242\n        /* \"#utility.yul\":168:174   */\n      dup5\n        /* \"#utility.yul\":126:175   */\n      tag_243\n      jump\t// in\n    tag_242:\n        /* \"#utility.yul\":110:176   */\n      tag_244\n      jump\t// in\n    tag_241:\n        /* \"#utility.yul\":101:176   */\n      swap1\n      pop\n        /* \"#utility.yul\":199:205   */\n      dup3\n        /* \"#utility.yul\":192:197   */\n      dup2\n        /* \"#utility.yul\":185:206   */\n      mstore\n        /* \"#utility.yul\":237:241   */\n      0x20\n        /* \"#utility.yul\":230:235   */\n      dup2\n        /* \"#utility.yul\":226:242   */\n      add\n        /* \"#utility.yul\":275:278   */\n      dup5\n        /* \"#utility.yul\":266:272   */\n      dup5\n        /* \"#utility.yul\":261:264   */\n      dup5\n        /* \"#utility.yul\":257:273   */\n      add\n        /* \"#utility.yul\":254:279   */\n      gt\n        /* \"#utility.yul\":251:363   */\n      iszero\n      tag_245\n      jumpi\n        /* \"#utility.yul\":282:361   */\n      tag_246\n      tag_247\n      jump\t// in\n    tag_246:\n        /* \"#utility.yul\":251:363   */\n    tag_245:\n        /* \"#utility.yul\":372:413   */\n      tag_248\n        /* \"#utility.yul\":406:412   */\n      dup5\n        /* \"#utility.yul\":401:404   */\n      dup3\n        /* \"#utility.yul\":396:399   */\n      dup6\n        /* \"#utility.yul\":372:413   */\n      tag_249\n      jump\t// in\n    tag_248:\n        /* \"#utility.yul\":91:419   */\n      pop\n        /* \"#utility.yul\":7:419   */\n      swap4\n      swap3\n      pop\n      pop\n      pop\n      jump\t// out\n        /* \"#utility.yul\":425:564   */\n    tag_250:\n        /* \"#utility.yul\":471:476   */\n      0x00\n        /* \"#utility.yul\":509:515   */\n      dup2\n        /* \"#utility.yul\":496:516   */\n      calldataload\n        /* \"#utility.yul\":487:516   */\n      swap1\n      pop\n        /* \"#utility.yul\":525:558   */\n      tag_252\n        /* \"#utility.yul\":552:557   */\n      dup2\n        /* \"#utility.yul\":525:558   */\n      tag_253\n      jump\t// in\n    tag_252:\n        /* \"#utility.yul\":425:564   */\n      swap3\n      swap2\n      pop\n      pop\n      jump\t// out\n        /* \"#utility.yul\":584:924   */\n    tag_254:\n        /* \"#utility.yul\":640:645   */\n      0x00\n        /* \"#utility.yul\":689:692   */\n      dup3\n        /* \"#utility.yul\":682:686   */\n      0x1f\n        /* \"#utility.yul\":674:680   */\n      dup4\n        /* \"#utility.yul\":670:687   */\n      add\n        /* \"#utility.yul\":666:693   */\n      slt\n        /* \"#utility.yul\":656:778   */\n      tag_256\n      jumpi\n        /* \"#utility.yul\":697:776   */\n      tag_257\n      tag_258\n      jump\t// in\n    tag_257:\n        /* \"#utility.yul\":656:778   */\n    tag_256:\n        /* \"#utility.yul\":814:820   */\n      dup2\n        /* \"#utility.yul\":801:821   */\n      calldataload\n        /* \"#utility.yul\":839:918   */\n      tag_259\n        /* \"#utility.yul\":914:917   */\n      dup5\n        /* \"#utility.yul\":906:912   */\n      dup3\n        /* \"#utility.yul\":899:903   */\n      0x20\n        /* \"#utility.yul\":891:897   */\n      dup7\n        /* \"#utility.yul\":887:904   */\n      add\n        /* \"#utility.yul\":839:918   */\n      tag_239\n      jump\t// in\n    tag_259:\n        /* \"#utility.yul\":830:918   */\n      swap2\n      pop\n        /* \"#utility.yul\":646:924   */\n      pop\n        /* \"#utility.yul\":584:924   */\n      swap3\n      swap2\n      pop\n      pop\n      jump\t// out\n        /* \"#utility.yul\":930:1069   */\n    tag_260:\n        /* \"#utility.yul\":976:981   */\n      0x00\n        /* \"#utility.yul\":1014:1020   */\n      dup2\n        /* \"#utility.yul\":1001:1021   */\n      calldataload\n        /* \"#utility.yul\":992:1021   */\n      swap1\n      pop\n        /* \"#utility.yul\":1030:1063   */\n      tag_262\n        /* \"#utility.yul\":1057:1062   */\n      dup2\n        /* \"#utility.yul\":1030:1063   */\n      tag_263\n      jump\t// in\n    tag_262:\n        /* \"#utility.yul\":930:1069   */\n      swap3\n      swap2\n      pop\n      pop\n      jump\t// out\n        /* \"#utility.yul\":1075:1404   */\n    tag_21:\n        /* \"#utility.yul\":1134:1140   */\n      0x00\n        /* \"#utility.yul\":1183:1185   */\n      0x20\n        /* \"#utility.yul\":1171:1180   */\n      dup3\n        /* \"#utility.yul\":1162:1169   */\n      dup5\n        /* \"#utility.yul\":1158:1181   */\n      sub\n        /* \"#utility.yul\":1154:1186   */\n      slt\n        /* \"#utility.yul\":1151:1270   */\n      iszero\n      tag_265\n      jumpi\n        /* \"#utility.yul\":1189:1268   */\n      tag_266\n      tag_267\n      jump\t// in\n    tag_266:\n        /* \"#utility.yul\":1151:1270   */\n    tag_265:\n        /* \"#utility.yul\":1309:1310   */\n      0x00\n        /* \"#utility.yul\":1334:1387   */\n      tag_268\n        /* \"#utility.yul\":1379:1386   */\n      dup5\n        /* \"#utility.yul\":1370:1376   */\n      dup3\n        /* \"#utility.yul\":1359:1368   */\n      dup6\n        /* \"#utility.yul\":1355:1377   */\n      add\n        /* \"#utility.yul\":1334:1387   */\n      tag_250\n      jump\t// in\n    tag_268:\n        /* \"#utility.yul\":1324:1387   */\n      swap2\n      pop\n        /* \"#utility.yul\":1280:1397   */\n      pop\n        /* \"#utility.yul\":1075:1404   */\n      swap3\n      swap2\n      pop\n      pop\n      jump\t// out\n        /* \"#utility.yul\":1410:2569   */\n    tag_28:\n        /* \"#utility.yul\":1517:1523   */\n      0x00\n        /* \"#utility.yul\":1525:1531   */\n      dup1\n        /* \"#utility.yul\":1533:1539   */\n      0x00\n        /* \"#utility.yul\":1582:1584   */\n      0x60\n        /* \"#utility.yul\":1570:1579   */\n      dup5\n        /* \"#utility.yul\":1561:1568   */\n      dup7\n        /* \"#utility.yul\":1557:1580   */\n      sub\n        /* \"#utility.yul\":1553:1585   */\n      slt\n        /* \"#utility.yul\":1550:1669   */\n      iszero\n      tag_270\n      jumpi\n        /* \"#utility.yul\":1588:1667   */\n      tag_271\n      tag_267\n      jump\t// in\n    tag_271:\n        /* \"#utility.yul\":1550:1669   */\n    tag_270:\n        /* \"#utility.yul\":1736:1737   */\n      0x00\n        /* \"#utility.yul\":1725:1734   */\n      dup5\n        /* \"#utility.yul\":1721:1738   */\n      add\n        /* \"#utility.yul\":1708:1739   */\n      calldataload\n        /* \"#utility.yul\":1766:1784   */\n      0xffffffffffffffff\n        /* \"#utility.yul\":1758:1764   */\n      dup2\n        /* \"#utility.yul\":1755:1785   */\n      gt\n        /* \"#utility.yul\":1752:1869   */\n      iszero\n      tag_272\n      jumpi\n        /* \"#utility.yul\":1788:1867   */\n      tag_273\n      tag_274\n      jump\t// in\n    tag_273:\n        /* \"#utility.yul\":1752:1869   */\n    tag_272:\n        /* \"#utility.yul\":1893:1956   */\n      tag_275\n        /* \"#utility.yul\":1948:1955   */\n      dup7\n        /* \"#utility.yul\":1939:1945   */\n      dup3\n        /* \"#utility.yul\":1928:1937   */\n      dup8\n        /* \"#utility.yul\":1924:1946   */\n      add\n        /* \"#utility.yul\":1893:1956   */\n      tag_254\n      jump\t// in\n    tag_275:\n        /* \"#utility.yul\":1883:1956   */\n      swap4\n      pop\n        /* \"#utility.yul\":1679:1966   */\n      pop\n        /* \"#utility.yul\":2033:2035   */\n      0x20\n        /* \"#utility.yul\":2022:2031   */\n      dup5\n        /* \"#utility.yul\":2018:2036   */\n      add\n        /* \"#utility.yul\":2005:2037   */\n      calldataload\n        /* \"#utility.yul\":2064:2082   */\n      0xffffffffffffffff\n        /* \"#utility.yul\":2056:2062   */\n      dup2\n        /* \"#utility.yul\":2053:2083   */\n      gt\n        /* \"#utility.yul\":2050:2167   */\n      iszero\n      tag_276\n      jumpi\n        /* \"#utility.yul\":2086:2165   */\n      tag_277\n      tag_274\n      jump\t// in\n    tag_277:\n        /* \"#utility.yul\":2050:2167   */\n    tag_276:\n        /* \"#utility.yul\":2191:2254   */\n      tag_278\n        /* \"#utility.yul\":2246:2253   */\n      dup7\n        /* \"#utility.yul\":2237:2243   */\n      dup3\n        /* \"#utility.yul\":2226:2235   */\n      dup8\n        /* \"#utility.yul\":2222:2244   */\n      add\n        /* \"#utility.yul\":2191:2254   */\n      tag_254\n      jump\t// in\n    tag_278:\n        /* \"#utility.yul\":2181:2254   */\n      swap3\n      pop\n        /* \"#utility.yul\":1976:2264   */\n      pop\n        /* \"#utility.yul\":2331:2333   */\n      0x40\n        /* \"#utility.yul\":2320:2329   */\n      dup5\n        /* \"#utility.yul\":2316:2334   */\n      add\n        /* \"#utility.yul\":2303:2335   */\n      calldataload\n        /* \"#utility.yul\":2362:2380   */\n      0xffffffffffffffff\n        /* \"#utility.yul\":2354:2360   */\n      dup2\n        /* \"#utility.yul\":2351:2381   */\n      gt\n        /* \"#utility.yul\":2348:2465   */\n      iszero\n      tag_279\n      jumpi\n        /* \"#utility.yul\":2384:2463   */\n      tag_280\n      tag_274\n      jump\t// in\n    tag_280:\n        /* \"#utility.yul\":2348:2465   */\n    tag_279:\n        /* \"#utility.yul\":2489:2552   */\n      tag_281\n        /* \"#utility.yul\":2544:2551   */\n      dup7\n        /* \"#utility.yul\":2535:2541   */\n      dup3\n        /* \"#utility.yul\":2524:2533   */\n      dup8\n        /* \"#utility.yul\":2520:2542   */\n      add\n        /* \"#utility.yul\":2489:2552   */\n      tag_254\n      jump\t// in\n    tag_281:\n        /* \"#utility.yul\":2479:2552   */\n      swap2\n      pop\n        /* \"#utility.yul\":2274:2562   */\n      pop\n        /* \"#utility.yul\":1410:2569   */\n      swap3\n      pop\n      swap3\n      pop\n      swap3\n      jump\t// out\n        /* \"#utility.yul\":2575:2904   */\n    tag_38:\n        /* \"#utility.yul\":2634:2640   */\n      0x00\n        /* \"#utility.yul\":2683:2685   */\n      0x20\n        /* \"#utility.yul\":2671:2680   */\n      dup3\n        /* \"#utility.yul\":2662:2669   */\n      dup5\n        /* \"#utility.yul\":2658:2681   */\n      sub\n        /* \"#utility.yul\":2654:2686   */\n      slt\n        /* \"#utility.yul\":2651:2770   */\n      iszero\n      tag_283\n      jumpi\n        /* \"#utility.yul\":2689:2768   */\n      tag_284\n      tag_267\n      jump\t// in\n    tag_284:\n        /* \"#utility.yul\":2651:2770   */\n    tag_283:\n        /* \"#utility.yul\":2809:2810   */\n      0x00\n        /* \"#utility.yul\":2834:2887   */\n      tag_285\n        /* \"#utility.yul\":2879:2886   */\n      dup5\n        /* \"#utility.yul\":2870:2876   */\n      dup3\n        /* \"#utility.yul\":2859:2868   */\n      dup6\n        /* \"#utility.yul\":2855:2877   */\n      add\n        /* \"#utility.yul\":2834:2887   */\n      tag_260\n      jump\t// in\n    tag_285:\n        /* \"#utility.yul\":2824:2887   */\n      swap2\n      pop\n        /* \"#utility.yul\":2780:2897   */\n      pop\n        /* \"#utility.yul\":2575:2904   */\n      swap3\n      swap2\n      pop\n      pop\n      jump\t// out\n        /* \"#utility.yul\":2910:3028   */\n    tag_286:\n        /* \"#utility.yul\":2997:3021   */\n      tag_288\n        /* \"#utility.yul\":3015:3020   */\n      dup2\n        /* \"#utility.yul\":2997:3021   */\n      tag_289\n      jump\t// in\n    tag_288:\n        /* \"#utility.yul\":2992:2995   */\n      dup3\n        /* \"#utility.yul\":2985:3022   */\n      mstore\n        /* \"#utility.yul\":2910:3028   */\n      pop\n      pop\n      jump\t// out\n        /* \"#utility.yul\":3034:3398   */\n    tag_290:\n        /* \"#utility.yul\":3122:3125   */\n      0x00\n        /* \"#utility.yul\":3150:3189   */\n      tag_292\n        /* \"#utility.yul\":3183:3188   */\n      dup3\n        /* \"#utility.yul\":3150:3189   */\n      tag_293\n      jump\t// in\n    tag_292:\n        /* \"#utility.yul\":3205:3276   */\n      tag_294\n        /* \"#utility.yul\":3269:3275   */\n      dup2\n        /* \"#utility.yul\":3264:3267   */\n      dup6\n        /* \"#utility.yul\":3205:3276   */\n      tag_295\n      jump\t// in\n    tag_294:\n        /* \"#utility.yul\":3198:3276   */\n      swap4\n      pop\n        /* \"#utility.yul\":3285:3337   */\n      tag_296\n        /* \"#utility.yul\":3330:3336   */\n      dup2\n        /* \"#utility.yul\":3325:3328   */\n      dup6\n        /* \"#utility.yul\":3318:3322   */\n      0x20\n        /* \"#utility.yul\":3311:3316   */\n      dup7\n        /* \"#utility.yul\":3307:3323   */\n      add\n        /* \"#utility.yul\":3285:3337   */\n      tag_297\n      jump\t// in\n    tag_296:\n        /* \"#utility.yul\":3362:3391   */\n      tag_298\n        /* \"#utility.yul\":3384:3390   */\n      dup2\n        /* \"#utility.yul\":3362:3391   */\n      tag_299\n      jump\t// in\n    tag_298:\n        /* \"#utility.yul\":3357:3360   */\n      dup5\n        /* \"#utility.yul\":3353:3392   */\n      add\n        /* \"#utility.yul\":3346:3392   */\n      swap2\n      pop\n        /* \"#utility.yul\":3126:3398   */\n      pop\n        /* \"#utility.yul\":3034:3398   */\n      swap3\n      swap2\n      pop\n      pop\n      jump\t// out\n        /* \"#utility.yul\":3428:4230   */\n    tag_300:\n        /* \"#utility.yul\":3513:3516   */\n      0x00\n        /* \"#utility.yul\":3550:3555   */\n      dup2\n        /* \"#utility.yul\":3544:3556   */\n      sload\n        /* \"#utility.yul\":3579:3615   */\n      tag_302\n        /* \"#utility.yul\":3605:3614   */\n      dup2\n        /* \"#utility.yul\":3579:3615   */\n      tag_168\n      jump\t// in\n    tag_302:\n        /* \"#utility.yul\":3631:3702   */\n      tag_303\n        /* \"#utility.yul\":3695:3701   */\n      dup2\n        /* \"#utility.yul\":3690:3693   */\n      dup7\n        /* \"#utility.yul\":3631:3702   */\n      tag_295\n      jump\t// in\n    tag_303:\n        /* \"#utility.yul\":3624:3702   */\n      swap5\n      pop\n        /* \"#utility.yul\":3733:3734   */\n      0x01\n        /* \"#utility.yul\":3722:3731   */\n      dup3\n        /* \"#utility.yul\":3718:3735   */\n      and\n        /* \"#utility.yul\":3749:3750   */\n      0x00\n        /* \"#utility.yul\":3744:3879   */\n      dup2\n      eq\n      tag_305\n      jumpi\n        /* \"#utility.yul\":3893:3894   */\n      0x01\n        /* \"#utility.yul\":3888:4224   */\n      dup2\n      eq\n      tag_306\n      jumpi\n        /* \"#utility.yul\":3711:4224   */\n      jump(tag_304)\n        /* \"#utility.yul\":3744:3879   */\n    tag_305:\n        /* \"#utility.yul\":3828:3832   */\n      0xff\n        /* \"#utility.yul\":3824:3833   */\n      not\n        /* \"#utility.yul\":3813:3822   */\n      dup4\n        /* \"#utility.yul\":3809:3834   */\n      and\n        /* \"#utility.yul\":3804:3807   */\n      dup7\n        /* \"#utility.yul\":3797:3835   */\n      mstore\n        /* \"#utility.yul\":3864:3868   */\n      0x20\n        /* \"#utility.yul\":3859:3862   */\n      dup7\n        /* \"#utility.yul\":3855:3869   */\n      add\n        /* \"#utility.yul\":3848:3869   */\n      swap4\n      pop\n        /* \"#utility.yul\":3744:3879   */\n      jump(tag_304)\n        /* \"#utility.yul\":3888:4224   */\n    tag_306:\n        /* \"#utility.yul\":3955:3993   */\n      tag_307\n        /* \"#utility.yul\":3987:3992   */\n      dup6\n        /* \"#utility.yul\":3955:3993   */\n      tag_308\n      jump\t// in\n    tag_307:\n        /* \"#utility.yul\":4015:4016   */\n      0x00\n        /* \"#utility.yul\":4029:4183   */\n    tag_309:\n        /* \"#utility.yul\":4043:4049   */\n      dup4\n        /* \"#utility.yul\":4040:4041   */\n      dup2\n        /* \"#utility.yul\":4037:4050   */\n      lt\n        /* \"#utility.yul\":4029:4183   */\n      iszero\n      tag_311\n      jumpi\n        /* \"#utility.yul\":4117:4124   */\n      dup2\n        /* \"#utility.yul\":4111:4125   */\n      sload\n        /* \"#utility.yul\":4107:4108   */\n      dup2\n        /* \"#utility.yul\":4102:4105   */\n      dup10\n        /* \"#utility.yul\":4098:4109   */\n      add\n        /* \"#utility.yul\":4091:4126   */\n      mstore\n        /* \"#utility.yul\":4167:4168   */\n      0x01\n        /* \"#utility.yul\":4158:4165   */\n      dup3\n        /* \"#utility.yul\":4154:4169   */\n      add\n        /* \"#utility.yul\":4143:4169   */\n      swap2\n      pop\n        /* \"#utility.yul\":4065:4069   */\n      0x20\n        /* \"#utility.yul\":4062:4063   */\n      dup2\n        /* \"#utility.yul\":4058:4070   */\n      add\n        /* \"#utility.yul\":4053:4070   */\n      swap1\n      pop\n        /* \"#utility.yul\":4029:4183   */\n      jump(tag_309)\n    tag_311:\n        /* \"#utility.yul\":4212:4213   */\n      dup1\n        /* \"#utility.yul\":4207:4210   */\n      dup9\n        /* \"#utility.yul\":4203:4214   */\n      add\n        /* \"#utility.yul\":4196:4214   */\n      swap6\n      pop\n        /* \"#utility.yul\":3895:4224   */\n      pop\n      pop\n        /* \"#utility.yul\":3711:4224   */\n    tag_304:\n      pop\n        /* \"#utility.yul\":3517:4230   */\n      pop\n      pop\n        /* \"#utility.yul\":3428:4230   */\n      swap3\n      swap2\n      pop\n      pop\n      jump\t// out\n        /* \"#utility.yul\":4236:4602   */\n    tag_312:\n        /* \"#utility.yul\":4378:4381   */\n      0x00\n        /* \"#utility.yul\":4399:4466   */\n      tag_314\n        /* \"#utility.yul\":4463:4465   */\n      0x28\n        /* \"#utility.yul\":4458:4461   */\n      dup4\n        /* \"#utility.yul\":4399:4466   */\n      tag_295\n      jump\t// in\n    tag_314:\n        /* \"#utility.yul\":4392:4466   */\n      swap2\n      pop\n        /* \"#utility.yul\":4475:4568   */\n      tag_315\n        /* \"#utility.yul\":4564:4567   */\n      dup3\n        /* \"#utility.yul\":4475:4568   */\n      tag_316\n      jump\t// in\n    tag_315:\n        /* \"#utility.yul\":4593:4595   */\n      0x40\n        /* \"#utility.yul\":4588:4591   */\n      dup3\n        /* \"#utility.yul\":4584:4596   */\n      add\n        /* \"#utility.yul\":4577:4596   */\n      swap1\n      pop\n        /* \"#utility.yul\":4236:4602   */\n      swap2\n      swap1\n      pop\n      jump\t// out\n        /* \"#utility.yul\":4608:4974   */\n    tag_317:\n        /* \"#utility.yul\":4750:4753   */\n      0x00\n        /* \"#utility.yul\":4771:4838   */\n      tag_319\n        /* \"#utility.yul\":4835:4837   */\n      0x26\n        /* \"#utility.yul\":4830:4833   */\n      dup4\n        /* \"#utility.yul\":4771:4838   */\n      tag_295\n      jump\t// in\n    tag_319:\n        /* \"#utility.yul\":4764:4838   */\n      swap2\n      pop\n        /* \"#utility.yul\":4847:4940   */\n      tag_320\n        /* \"#utility.yul\":4936:4939   */\n      dup3\n        /* \"#utility.yul\":4847:4940   */\n      tag_321\n      jump\t// in\n    tag_320:\n        /* \"#utility.yul\":4965:4967   */\n      0x40\n        /* \"#utility.yul\":4960:4963   */\n      dup3\n        /* \"#utility.yul\":4956:4968   */\n      add\n        /* \"#utility.yul\":4949:4968   */\n      swap1\n      pop\n        /* \"#utility.yul\":4608:4974   */\n      swap2\n      swap1\n      pop\n      jump\t// out\n        /* \"#utility.yul\":4980:5346   */\n    tag_322:\n        /* \"#utility.yul\":5122:5125   */\n      0x00\n        /* \"#utility.yul\":5143:5210   */\n      tag_324\n        /* \"#utility.yul\":5207:5209   */\n      0x0c\n        /* \"#utility.yul\":5202:5205   */\n      dup4\n        /* \"#utility.yul\":5143:5210   */\n      tag_295\n      jump\t// in\n    tag_324:\n        /* \"#utility.yul\":5136:5210   */\n      swap2\n      pop\n        /* \"#utility.yul\":5219:5312   */\n      tag_325\n        /* \"#utility.yul\":5308:5311   */\n      dup3\n        /* \"#utility.yul\":5219:5312   */\n      tag_326\n      jump\t// in\n    tag_325:\n        /* \"#utility.yul\":5337:5339   */\n      0x20\n        /* \"#utility.yul\":5332:5335   */\n      dup3\n        /* \"#utility.yul\":5328:5340   */\n      add\n        /* \"#utility.yul\":5321:5340   */\n      swap1\n      pop\n        /* \"#utility.yul\":4980:5346   */\n      swap2\n      swap1\n      pop\n      jump\t// out\n        /* \"#utility.yul\":5352:5718   */\n    tag_327:\n        /* \"#utility.yul\":5494:5497   */\n      0x00\n        /* \"#utility.yul\":5515:5582   */\n      tag_329\n        /* \"#utility.yul\":5579:5581   */\n      0x20\n        /* \"#utility.yul\":5574:5577   */\n      dup4\n        /* \"#utility.yul\":5515:5582   */\n      tag_295\n      jump\t// in\n    tag_329:\n        /* \"#utility.yul\":5508:5582   */\n      swap2\n      pop\n        /* \"#utility.yul\":5591:5684   */\n      tag_330\n        /* \"#utility.yul\":5680:5683   */\n      dup3\n        /* \"#utility.yul\":5591:5684   */\n      tag_331\n      jump\t// in\n    tag_330:\n        /* \"#utility.yul\":5709:5711   */\n      0x20\n        /* \"#utility.yul\":5704:5707   */\n      dup3\n        /* \"#utility.yul\":5700:5712   */\n      add\n        /* \"#utility.yul\":5693:5712   */\n      swap1\n      pop\n        /* \"#utility.yul\":5352:5718   */\n      swap2\n      swap1\n      pop\n      jump\t// out\n        /* \"#utility.yul\":5724:6090   */\n    tag_332:\n        /* \"#utility.yul\":5866:5869   */\n      0x00\n        /* \"#utility.yul\":5887:5954   */\n      tag_334\n        /* \"#utility.yul\":5951:5953   */\n      0x15\n        /* \"#utility.yul\":5946:5949   */\n      dup4\n        /* \"#utility.yul\":5887:5954   */\n      tag_295\n      jump\t// in\n    tag_334:\n        /* \"#utility.yul\":5880:5954   */\n      swap2\n      pop\n        /* \"#utility.yul\":5963:6056   */\n      tag_335\n        /* \"#utility.yul\":6052:6055   */\n      dup3\n        /* \"#utility.yul\":5963:6056   */\n      tag_336\n      jump\t// in\n    tag_335:\n        /* \"#utility.yul\":6081:6083   */\n      0x20\n        /* \"#utility.yul\":6076:6079   */\n      dup3\n        /* \"#utility.yul\":6072:6084   */\n      add\n        /* \"#utility.yul\":6065:6084   */\n      swap1\n      pop\n        /* \"#utility.yul\":5724:6090   */\n      swap2\n      swap1\n      pop\n      jump\t// out\n        /* \"#utility.yul\":6096:6214   */\n    tag_337:\n        /* \"#utility.yul\":6183:6207   */\n      tag_339\n        /* \"#utility.yul\":6201:6206   */\n      dup2\n        /* \"#utility.yul\":6183:6207   */\n      tag_340\n      jump\t// in\n    tag_339:\n        /* \"#utility.yul\":6178:6181   */\n      dup3\n        /* \"#utility.yul\":6171:6208   */\n      mstore\n        /* \"#utility.yul\":6096:6214   */\n      pop\n      pop\n      jump\t// out\n        /* \"#utility.yul\":6220:6377   */\n    tag_341:\n        /* \"#utility.yul\":6325:6370   */\n      tag_343\n        /* \"#utility.yul\":6345:6369   */\n      tag_344\n        /* \"#utility.yul\":6363:6368   */\n      dup3\n        /* \"#utility.yul\":6345:6369   */\n      tag_340\n      jump\t// in\n    tag_344:\n        /* \"#utility.yul\":6325:6370   */\n      tag_345\n      jump\t// in\n    tag_343:\n        /* \"#utility.yul\":6320:6323   */\n      dup3\n        /* \"#utility.yul\":6313:6371   */\n      mstore\n        /* \"#utility.yul\":6220:6377   */\n      pop\n      pop\n      jump\t// out\n        /* \"#utility.yul\":6383:6498   */\n    tag_346:\n        /* \"#utility.yul\":6468:6491   */\n      tag_348\n        /* \"#utility.yul\":6485:6490   */\n      dup2\n        /* \"#utility.yul\":6468:6491   */\n      tag_349\n      jump\t// in\n    tag_348:\n        /* \"#utility.yul\":6463:6466   */\n      dup3\n        /* \"#utility.yul\":6456:6492   */\n      mstore\n        /* \"#utility.yul\":6383:6498   */\n      pop\n      pop\n      jump\t// out\n        /* \"#utility.yul\":6504:7042   */\n    tag_119:\n        /* \"#utility.yul\":6672:6675   */\n      0x00\n        /* \"#utility.yul\":6687:6762   */\n      tag_351\n        /* \"#utility.yul\":6758:6761   */\n      dup3\n        /* \"#utility.yul\":6749:6755   */\n      dup7\n        /* \"#utility.yul\":6687:6762   */\n      tag_341\n      jump\t// in\n    tag_351:\n        /* \"#utility.yul\":6787:6789   */\n      0x20\n        /* \"#utility.yul\":6782:6785   */\n      dup3\n        /* \"#utility.yul\":6778:6790   */\n      add\n        /* \"#utility.yul\":6771:6790   */\n      swap2\n      pop\n        /* \"#utility.yul\":6800:6875   */\n      tag_352\n        /* \"#utility.yul\":6871:6874   */\n      dup3\n        /* \"#utility.yul\":6862:6868   */\n      dup6\n        /* \"#utility.yul\":6800:6875   */\n      tag_341\n      jump\t// in\n    tag_352:\n        /* \"#utility.yul\":6900:6902   */\n      0x20\n        /* \"#utility.yul\":6895:6898   */\n      dup3\n        /* \"#utility.yul\":6891:6903   */\n      add\n        /* \"#utility.yul\":6884:6903   */\n      swap2\n      pop\n        /* \"#utility.yul\":6913:6988   */\n      tag_353\n        /* \"#utility.yul\":6984:6987   */\n      dup3\n        /* \"#utility.yul\":6975:6981   */\n      dup5\n        /* \"#utility.yul\":6913:6988   */\n      tag_341\n      jump\t// in\n    tag_353:\n        /* \"#utility.yul\":7013:7015   */\n      0x20\n        /* \"#utility.yul\":7008:7011   */\n      dup3\n        /* \"#utility.yul\":7004:7016   */\n      add\n        /* \"#utility.yul\":6997:7016   */\n      swap2\n      pop\n        /* \"#utility.yul\":7033:7036   */\n      dup2\n        /* \"#utility.yul\":7026:7036   */\n      swap1\n      pop\n        /* \"#utility.yul\":6504:7042   */\n      swap5\n      swap4\n      pop\n      pop\n      pop\n      pop\n      jump\t// out\n        /* \"#utility.yul\":7048:7270   */\n    tag_49:\n        /* \"#utility.yul\":7141:7145   */\n      0x00\n        /* \"#utility.yul\":7179:7181   */\n      0x20\n        /* \"#utility.yul\":7168:7177   */\n      dup3\n        /* \"#utility.yul\":7164:7182   */\n      add\n        /* \"#utility.yul\":7156:7182   */\n      swap1\n      pop\n        /* \"#utility.yul\":7192:7263   */\n      tag_355\n        /* \"#utility.yul\":7260:7261   */\n      0x00\n        /* \"#utility.yul\":7249:7258   */\n      dup4\n        /* \"#utility.yul\":7245:7262   */\n      add\n        /* \"#utility.yul\":7236:7242   */\n      dup5\n        /* \"#utility.yul\":7192:7263   */\n      tag_286\n      jump\t// in\n    tag_355:\n        /* \"#utility.yul\":7048:7270   */\n      swap3\n      swap2\n      pop\n      pop\n      jump\t// out\n        /* \"#utility.yul\":7276:8542   */\n    tag_63:\n        /* \"#utility.yul\":7623:7627   */\n      0x00\n        /* \"#utility.yul\":7661:7664   */\n      0x0100\n        /* \"#utility.yul\":7650:7659   */\n      dup3\n        /* \"#utility.yul\":7646:7665   */\n      add\n        /* \"#utility.yul\":7638:7665   */\n      swap1\n      pop\n        /* \"#utility.yul\":7675:7746   */\n      tag_357\n        /* \"#utility.yul\":7743:7744   */\n      0x00\n        /* \"#utility.yul\":7732:7741   */\n      dup4\n        /* \"#utility.yul\":7728:7745   */\n      add\n        /* \"#utility.yul\":7719:7725   */\n      dup12\n        /* \"#utility.yul\":7675:7746   */\n      tag_286\n      jump\t// in\n    tag_357:\n        /* \"#utility.yul\":7793:7802   */\n      dup2\n        /* \"#utility.yul\":7787:7791   */\n      dup2\n        /* \"#utility.yul\":7783:7803   */\n      sub\n        /* \"#utility.yul\":7778:7780   */\n      0x20\n        /* \"#utility.yul\":7767:7776   */\n      dup4\n        /* \"#utility.yul\":7763:7781   */\n      add\n        /* \"#utility.yul\":7756:7804   */\n      mstore\n        /* \"#utility.yul\":7821:7899   */\n      tag_358\n        /* \"#utility.yul\":7894:7898   */\n      dup2\n        /* \"#utility.yul\":7885:7891   */\n      dup11\n        /* \"#utility.yul\":7821:7899   */\n      tag_290\n      jump\t// in\n    tag_358:\n        /* \"#utility.yul\":7813:7899   */\n      swap1\n      pop\n        /* \"#utility.yul\":7946:7955   */\n      dup2\n        /* \"#utility.yul\":7940:7944   */\n      dup2\n        /* \"#utility.yul\":7936:7956   */\n      sub\n        /* \"#utility.yul\":7931:7933   */\n      0x40\n        /* \"#utility.yul\":7920:7929   */\n      dup4\n        /* \"#utility.yul\":7916:7934   */\n      add\n        /* \"#utility.yul\":7909:7957   */\n      mstore\n        /* \"#utility.yul\":7974:8052   */\n      tag_359\n        /* \"#utility.yul\":8047:8051   */\n      dup2\n        /* \"#utility.yul\":8038:8044   */\n      dup10\n        /* \"#utility.yul\":7974:8052   */\n      tag_290\n      jump\t// in\n    tag_359:\n        /* \"#utility.yul\":7966:8052   */\n      swap1\n      pop\n        /* \"#utility.yul\":8099:8108   */\n      dup2\n        /* \"#utility.yul\":8093:8097   */\n      dup2\n        /* \"#utility.yul\":8089:8109   */\n      sub\n        /* \"#utility.yul\":8084:8086   */\n      0x60\n        /* \"#utility.yul\":8073:8082   */\n      dup4\n        /* \"#utility.yul\":8069:8087   */\n      add\n        /* \"#utility.yul\":8062:8110   */\n      mstore\n        /* \"#utility.yul\":8127:8205   */\n      tag_360\n        /* \"#utility.yul\":8200:8204   */\n      dup2\n        /* \"#utility.yul\":8191:8197   */\n      dup9\n        /* \"#utility.yul\":8127:8205   */\n      tag_290\n      jump\t// in\n    tag_360:\n        /* \"#utility.yul\":8119:8205   */\n      swap1\n      pop\n        /* \"#utility.yul\":8215:8288   */\n      tag_361\n        /* \"#utility.yul\":8283:8286   */\n      0x80\n        /* \"#utility.yul\":8272:8281   */\n      dup4\n        /* \"#utility.yul\":8268:8287   */\n      add\n        /* \"#utility.yul\":8259:8265   */\n      dup8\n        /* \"#utility.yul\":8215:8288   */\n      tag_337\n      jump\t// in\n    tag_361:\n        /* \"#utility.yul\":8298:8371   */\n      tag_362\n        /* \"#utility.yul\":8366:8369   */\n      0xa0\n        /* \"#utility.yul\":8355:8364   */\n      dup4\n        /* \"#utility.yul\":8351:8370   */\n      add\n        /* \"#utility.yul\":8342:8348   */\n      dup7\n        /* \"#utility.yul\":8298:8371   */\n      tag_337\n      jump\t// in\n    tag_362:\n        /* \"#utility.yul\":8381:8454   */\n      tag_363\n        /* \"#utility.yul\":8449:8452   */\n      0xc0\n        /* \"#utility.yul\":8438:8447   */\n      dup4\n        /* \"#utility.yul\":8434:8453   */\n      add\n        /* \"#utility.yul\":8425:8431   */\n      dup6\n        /* \"#utility.yul\":8381:8454   */\n      tag_337\n      jump\t// in\n    tag_363:\n        /* \"#utility.yul\":8464:8535   */\n      tag_364\n        /* \"#utility.yul\":8530:8533   */\n      0xe0\n        /* \"#utility.yul\":8519:8528   */\n      dup4\n        /* \"#utility.yul\":8515:8534   */\n      add\n        /* \"#utility.yul\":8506:8512   */\n      dup5\n        /* \"#utility.yul\":8464:8535   */\n      tag_346\n      jump\t// in\n    tag_364:\n        /* \"#utility.yul\":7276:8542   */\n      swap10\n      swap9\n      pop\n      pop\n      pop\n      pop\n      pop\n      pop\n      pop\n      pop\n      pop\n      jump\t// out\n        /* \"#utility.yul\":8548:8861   */\n    tag_35:\n        /* \"#utility.yul\":8661:8665   */\n      0x00\n        /* \"#utility.yul\":8699:8701   */\n      0x20\n        /* \"#utility.yul\":8688:8697   */\n      dup3\n        /* \"#utility.yul\":8684:8702   */\n      add\n        /* \"#utility.yul\":8676:8702   */\n      swap1\n      pop\n        /* \"#utility.yul\":8748:8757   */\n      dup2\n        /* \"#utility.yul\":8742:8746   */\n      dup2\n        /* \"#utility.yul\":8738:8758   */\n      sub\n        /* \"#utility.yul\":8734:8735   */\n      0x00\n        /* \"#utility.yul\":8723:8732   */\n      dup4\n        /* \"#utility.yul\":8719:8736   */\n      add\n        /* \"#utility.yul\":8712:8759   */\n      mstore\n        /* \"#utility.yul\":8776:8854   */\n      tag_366\n        /* \"#utility.yul\":8849:8853   */\n      dup2\n        /* \"#utility.yul\":8840:8846   */\n      dup5\n        /* \"#utility.yul\":8776:8854   */\n      tag_290\n      jump\t// in\n    tag_366:\n        /* \"#utility.yul\":8768:8854   */\n      swap1\n      pop\n        /* \"#utility.yul\":8548:8861   */\n      swap3\n      swap2\n      pop\n      pop\n      jump\t// out\n        /* \"#utility.yul\":8867:9586   */\n    tag_204:\n        /* \"#utility.yul\":9076:9080   */\n      0x00\n        /* \"#utility.yul\":9114:9117   */\n      0x80\n        /* \"#utility.yul\":9103:9112   */\n      dup3\n        /* \"#utility.yul\":9099:9118   */\n      add\n        /* \"#utility.yul\":9091:9118   */\n      swap1\n      pop\n        /* \"#utility.yul\":9164:9173   */\n      dup2\n        /* \"#utility.yul\":9158:9162   */\n      dup2\n        /* \"#utility.yul\":9154:9174   */\n      sub\n        /* \"#utility.yul\":9150:9151   */\n      0x00\n        /* \"#utility.yul\":9139:9148   */\n      dup4\n        /* \"#utility.yul\":9135:9152   */\n      add\n        /* \"#utility.yul\":9128:9175   */\n      mstore\n        /* \"#utility.yul\":9192:9267   */\n      tag_368\n        /* \"#utility.yul\":9262:9266   */\n      dup2\n        /* \"#utility.yul\":9253:9259   */\n      dup8\n        /* \"#utility.yul\":9192:9267   */\n      tag_300\n      jump\t// in\n    tag_368:\n        /* \"#utility.yul\":9184:9267   */\n      swap1\n      pop\n        /* \"#utility.yul\":9314:9323   */\n      dup2\n        /* \"#utility.yul\":9308:9312   */\n      dup2\n        /* \"#utility.yul\":9304:9324   */\n      sub\n        /* \"#utility.yul\":9299:9301   */\n      0x20\n        /* \"#utility.yul\":9288:9297   */\n      dup4\n        /* \"#utility.yul\":9284:9302   */\n      add\n        /* \"#utility.yul\":9277:9325   */\n      mstore\n        /* \"#utility.yul\":9342:9417   */\n      tag_369\n        /* \"#utility.yul\":9412:9416   */\n      dup2\n        /* \"#utility.yul\":9403:9409   */\n      dup7\n        /* \"#utility.yul\":9342:9417   */\n      tag_300\n      jump\t// in\n    tag_369:\n        /* \"#utility.yul\":9334:9417   */\n      swap1\n      pop\n        /* \"#utility.yul\":9427:9497   */\n      tag_370\n        /* \"#utility.yul\":9493:9495   */\n      0x40\n        /* \"#utility.yul\":9482:9491   */\n      dup4\n        /* \"#utility.yul\":9478:9496   */\n      add\n        /* \"#utility.yul\":9469:9475   */\n      dup6\n        /* \"#utility.yul\":9427:9497   */\n      tag_346\n      jump\t// in\n    tag_370:\n        /* \"#utility.yul\":9507:9579   */\n      tag_371\n        /* \"#utility.yul\":9575:9577   */\n      0x60\n        /* \"#utility.yul\":9564:9573   */\n      dup4\n        /* \"#utility.yul\":9560:9578   */\n      add\n        /* \"#utility.yul\":9551:9557   */\n      dup5\n        /* \"#utility.yul\":9507:9579   */\n      tag_337\n      jump\t// in\n    tag_371:\n        /* \"#utility.yul\":8867:9586   */\n      swap6\n      swap5\n      pop\n      pop\n      pop\n      pop\n      pop\n      jump\t// out\n        /* \"#utility.yul\":9592:10011   */\n    tag_85:\n        /* \"#utility.yul\":9758:9762   */\n      0x00\n        /* \"#utility.yul\":9796:9798   */\n      0x20\n        /* \"#utility.yul\":9785:9794   */\n      dup3\n        /* \"#utility.yul\":9781:9799   */\n      add\n        /* \"#utility.yul\":9773:9799   */\n      swap1\n      pop\n        /* \"#utility.yul\":9845:9854   */\n      dup2\n        /* \"#utility.yul\":9839:9843   */\n      dup2\n        /* \"#utility.yul\":9835:9855   */\n      sub\n        /* \"#utility.yul\":9831:9832   */\n      0x00\n        /* \"#utility.yul\":9820:9829   */\n      dup4\n        /* \"#utility.yul\":9816:9833   */\n      add\n        /* \"#utility.yul\":9809:9856   */\n      mstore\n        /* \"#utility.yul\":9873:10004   */\n      tag_373\n        /* \"#utility.yul\":9999:10003   */\n      dup2\n        /* \"#utility.yul\":9873:10004   */\n      tag_312\n      jump\t// in\n    tag_373:\n        /* \"#utility.yul\":9865:10004   */\n      swap1\n      pop\n        /* \"#utility.yul\":9592:10011   */\n      swap2\n      swap1\n      pop\n      jump\t// out\n        /* \"#utility.yul\":10017:10436   */\n    tag_214:\n        /* \"#utility.yul\":10183:10187   */\n      0x00\n        /* \"#utility.yul\":10221:10223   */\n      0x20\n        /* \"#utility.yul\":10210:10219   */\n      dup3\n        /* \"#utility.yul\":10206:10224   */\n      add\n        /* \"#utility.yul\":10198:10224   */\n      swap1\n      pop\n        /* \"#utility.yul\":10270:10279   */\n      dup2\n        /* \"#utility.yul\":10264:10268   */\n      dup2\n        /* \"#utility.yul\":10260:10280   */\n      sub\n        /* \"#utility.yul\":10256:10257   */\n      0x00\n        /* \"#utility.yul\":10245:10254   */\n      dup4\n        /* \"#utility.yul\":10241:10258   */\n      add\n        /* \"#utility.yul\":10234:10281   */\n      mstore\n        /* \"#utility.yul\":10298:10429   */\n      tag_375\n        /* \"#utility.yul\":10424:10428   */\n      dup2\n        /* \"#utility.yul\":10298:10429   */\n      tag_317\n      jump\t// in\n    tag_375:\n        /* \"#utility.yul\":10290:10429   */\n      swap1\n      pop\n        /* \"#utility.yul\":10017:10436   */\n      swap2\n      swap1\n      pop\n      jump\t// out\n        /* \"#utility.yul\":10442:10971   */\n    tag_224:\n        /* \"#utility.yul\":10636:10640   */\n      0x00\n        /* \"#utility.yul\":10674:10676   */\n      0x40\n        /* \"#utility.yul\":10663:10672   */\n      dup3\n        /* \"#utility.yul\":10659:10677   */\n      add\n        /* \"#utility.yul\":10651:10677   */\n      swap1\n      pop\n        /* \"#utility.yul\":10723:10732   */\n      dup2\n        /* \"#utility.yul\":10717:10721   */\n      dup2\n        /* \"#utility.yul\":10713:10733   */\n      sub\n        /* \"#utility.yul\":10709:10710   */\n      0x00\n        /* \"#utility.yul\":10698:10707   */\n      dup4\n        /* \"#utility.yul\":10694:10711   */\n      add\n        /* \"#utility.yul\":10687:10734   */\n      mstore\n        /* \"#utility.yul\":10751:10882   */\n      tag_377\n        /* \"#utility.yul\":10877:10881   */\n      dup2\n        /* \"#utility.yul\":10751:10882   */\n      tag_322\n      jump\t// in\n    tag_377:\n        /* \"#utility.yul\":10743:10882   */\n      swap1\n      pop\n        /* \"#utility.yul\":10892:10964   */\n      tag_378\n        /* \"#utility.yul\":10960:10962   */\n      0x20\n        /* \"#utility.yul\":10949:10958   */\n      dup4\n        /* \"#utility.yul\":10945:10963   */\n      add\n        /* \"#utility.yul\":10936:10942   */\n      dup5\n        /* \"#utility.yul\":10892:10964   */\n      tag_337\n      jump\t// in\n    tag_378:\n        /* \"#utility.yul\":10442:10971   */\n      swap3\n      swap2\n      pop\n      pop\n      jump\t// out\n        /* \"#utility.yul\":10977:11396   */\n    tag_78:\n        /* \"#utility.yul\":11143:11147   */\n      0x00\n        /* \"#utility.yul\":11181:11183   */\n      0x20\n        /* \"#utility.yul\":11170:11179   */\n      dup3\n        /* \"#utility.yul\":11166:11184   */\n      add\n        /* \"#utility.yul\":11158:11184   */\n      swap1\n      pop\n        /* \"#utility.yul\":11230:11239   */\n      dup2\n        /* \"#utility.yul\":11224:11228   */\n      dup2\n        /* \"#utility.yul\":11220:11240   */\n      sub\n        /* \"#utility.yul\":11216:11217   */\n      0x00\n        /* \"#utility.yul\":11205:11214   */\n      dup4\n        /* \"#utility.yul\":11201:11218   */\n      add\n        /* \"#utility.yul\":11194:11241   */\n      mstore\n        /* \"#utility.yul\":11258:11389   */\n      tag_380\n        /* \"#utility.yul\":11384:11388   */\n      dup2\n        /* \"#utility.yul\":11258:11389   */\n      tag_327\n      jump\t// in\n    tag_380:\n        /* \"#utility.yul\":11250:11389   */\n      swap1\n      pop\n        /* \"#utility.yul\":10977:11396   */\n      swap2\n      swap1\n      pop\n      jump\t// out\n        /* \"#utility.yul\":11402:11931   */\n    tag_145:\n        /* \"#utility.yul\":11596:11600   */\n      0x00\n        /* \"#utility.yul\":11634:11636   */\n      0x40\n        /* \"#utility.yul\":11623:11632   */\n      dup3\n        /* \"#utility.yul\":11619:11637   */\n      add\n        /* \"#utility.yul\":11611:11637   */\n      swap1\n      pop\n        /* \"#utility.yul\":11683:11692   */\n      dup2\n        /* \"#utility.yul\":11677:11681   */\n      dup2\n        /* \"#utility.yul\":11673:11693   */\n      sub\n        /* \"#utility.yul\":11669:11670   */\n      0x00\n        /* \"#utility.yul\":11658:11667   */\n      dup4\n        /* \"#utility.yul\":11654:11671   */\n      add\n        /* \"#utility.yul\":11647:11694   */\n      mstore\n        /* \"#utility.yul\":11711:11842   */\n      tag_382\n        /* \"#utility.yul\":11837:11841   */\n      dup2\n        /* \"#utility.yul\":11711:11842   */\n      tag_332\n      jump\t// in\n    tag_382:\n        /* \"#utility.yul\":11703:11842   */\n      swap1\n      pop\n        /* \"#utility.yul\":11852:11924   */\n      tag_383\n        /* \"#utility.yul\":11920:11922   */\n      0x20\n        /* \"#utility.yul\":11909:11918   */\n      dup4\n        /* \"#utility.yul\":11905:11923   */\n      add\n        /* \"#utility.yul\":11896:11902   */\n      dup5\n        /* \"#utility.yul\":11852:11924   */\n      tag_337\n      jump\t// in\n    tag_383:\n        /* \"#utility.yul\":11402:11931   */\n      swap3\n      swap2\n      pop\n      pop\n      jump\t// out\n        /* \"#utility.yul\":11937:12159   */\n    tag_24:\n        /* \"#utility.yul\":12030:12034   */\n      0x00\n        /* \"#utility.yul\":12068:12070   */\n      0x20\n        /* \"#utility.yul\":12057:12066   */\n      dup3\n        /* \"#utility.yul\":12053:12071   */\n      add\n        /* \"#utility.yul\":12045:12071   */\n      swap1\n      pop\n        /* \"#utility.yul\":12081:12152   */\n      tag_385\n        /* \"#utility.yul\":12149:12150   */\n      0x00\n        /* \"#utility.yul\":12138:12147   */\n      dup4\n        /* \"#utility.yul\":12134:12151   */\n      add\n        /* \"#utility.yul\":12125:12131   */\n      dup5\n        /* \"#utility.yul\":12081:12152   */\n      tag_337\n      jump\t// in\n    tag_385:\n        /* \"#utility.yul\":11937:12159   */\n      swap3\n      swap2\n      pop\n      pop\n      jump\t// out\n        /* \"#utility.yul\":12165:12294   */\n    tag_244:\n        /* \"#utility.yul\":12199:12205   */\n      0x00\n        /* \"#utility.yul\":12226:12246   */\n      tag_387\n      tag_388\n      jump\t// in\n    tag_387:\n        /* \"#utility.yul\":12216:12246   */\n      swap1\n      pop\n        /* \"#utility.yul\":12255:12288   */\n      tag_389\n        /* \"#utility.yul\":12283:12287   */\n      dup3\n        /* \"#utility.yul\":12275:12281   */\n      dup3\n        /* \"#utility.yul\":12255:12288   */\n      tag_390\n      jump\t// in\n    tag_389:\n        /* \"#utility.yul\":12165:12294   */\n      swap2\n      swap1\n      pop\n      jump\t// out\n        /* \"#utility.yul\":12300:12375   */\n    tag_388:\n        /* \"#utility.yul\":12333:12339   */\n      0x00\n        /* \"#utility.yul\":12366:12368   */\n      0x40\n        /* \"#utility.yul\":12360:12369   */\n      mload\n        /* \"#utility.yul\":12350:12369   */\n      swap1\n      pop\n        /* \"#utility.yul\":12300:12375   */\n      swap1\n      jump\t// out\n        /* \"#utility.yul\":12381:12689   */\n    tag_243:\n        /* \"#utility.yul\":12443:12447   */\n      0x00\n        /* \"#utility.yul\":12533:12551   */\n      0xffffffffffffffff\n        /* \"#utility.yul\":12525:12531   */\n      dup3\n        /* \"#utility.yul\":12522:12552   */\n      gt\n        /* \"#utility.yul\":12519:12575   */\n      iszero\n      tag_393\n      jumpi\n        /* \"#utility.yul\":12555:12573   */\n      tag_394\n      tag_395\n      jump\t// in\n    tag_394:\n        /* \"#utility.yul\":12519:12575   */\n    tag_393:\n        /* \"#utility.yul\":12593:12622   */\n      tag_396\n        /* \"#utility.yul\":12615:12621   */\n      dup3\n        /* \"#utility.yul\":12593:12622   */\n      tag_299\n      jump\t// in\n    tag_396:\n        /* \"#utility.yul\":12585:12622   */\n      swap1\n      pop\n        /* \"#utility.yul\":12677:12681   */\n      0x20\n        /* \"#utility.yul\":12671:12675   */\n      dup2\n        /* \"#utility.yul\":12667:12682   */\n      add\n        /* \"#utility.yul\":12659:12682   */\n      swap1\n      pop\n        /* \"#utility.yul\":12381:12689   */\n      swap2\n      swap1\n      pop\n      jump\t// out\n        /* \"#utility.yul\":12695:12836   */\n    tag_308:\n        /* \"#utility.yul\":12744:12748   */\n      0x00\n        /* \"#utility.yul\":12767:12770   */\n      dup2\n        /* \"#utility.yul\":12759:12770   */\n      swap1\n      pop\n        /* \"#utility.yul\":12790:12793   */\n      dup2\n        /* \"#utility.yul\":12787:12788   */\n      0x00\n        /* \"#utility.yul\":12780:12794   */\n      mstore\n        /* \"#utility.yul\":12824:12828   */\n      0x20\n        /* \"#utility.yul\":12821:12822   */\n      0x00\n        /* \"#utility.yul\":12811:12829   */\n      keccak256\n        /* \"#utility.yul\":12803:12829   */\n      swap1\n      pop\n        /* \"#utility.yul\":12695:12836   */\n      swap2\n      swap1\n      pop\n      jump\t// out\n        /* \"#utility.yul\":12842:12941   */\n    tag_293:\n        /* \"#utility.yul\":12894:12900   */\n      0x00\n        /* \"#utility.yul\":12928:12933   */\n      dup2\n        /* \"#utility.yul\":12922:12934   */\n      mload\n        /* \"#utility.yul\":12912:12934   */\n      swap1\n      pop\n        /* \"#utility.yul\":12842:12941   */\n      swap2\n      swap1\n      pop\n      jump\t// out\n        /* \"#utility.yul\":12947:13116   */\n    tag_295:\n        /* \"#utility.yul\":13031:13042   */\n      0x00\n        /* \"#utility.yul\":13065:13071   */\n      dup3\n        /* \"#utility.yul\":13060:13063   */\n      dup3\n        /* \"#utility.yul\":13053:13072   */\n      mstore\n        /* \"#utility.yul\":13105:13109   */\n      0x20\n        /* \"#utility.yul\":13100:13103   */\n      dup3\n        /* \"#utility.yul\":13096:13110   */\n      add\n        /* \"#utility.yul\":13081:13110   */\n      swap1\n      pop\n        /* \"#utility.yul\":12947:13116   */\n      swap3\n      swap2\n      pop\n      pop\n      jump\t// out\n        /* \"#utility.yul\":13122:13427   */\n    tag_88:\n        /* \"#utility.yul\":13162:13165   */\n      0x00\n        /* \"#utility.yul\":13181:13201   */\n      tag_401\n        /* \"#utility.yul\":13199:13200   */\n      dup3\n        /* \"#utility.yul\":13181:13201   */\n      tag_340\n      jump\t// in\n    tag_401:\n        /* \"#utility.yul\":13176:13201   */\n      swap2\n      pop\n        /* \"#utility.yul\":13215:13235   */\n      tag_402\n        /* \"#utility.yul\":13233:13234   */\n      dup4\n        /* \"#utility.yul\":13215:13235   */\n      tag_340\n      jump\t// in\n    tag_402:\n        /* \"#utility.yul\":13210:13235   */\n      swap3\n      pop\n        /* \"#utility.yul\":13369:13370   */\n      dup3\n        /* \"#utility.yul\":13301:13367   */\n      0xffffffffffffffffffffffffffffffffffffffffffffffffffffffffffffffff\n        /* \"#utility.yul\":13297:13371   */\n      sub\n        /* \"#utility.yul\":13294:13295   */\n      dup3\n        /* \"#utility.yul\":13291:13372   */\n      gt\n        /* \"#utility.yul\":13288:13395   */\n      iszero\n      tag_403\n      jumpi\n        /* \"#utility.yul\":13375:13393   */\n      tag_404\n      tag_405\n      jump\t// in\n    tag_404:\n        /* \"#utility.yul\":13288:13395   */\n    tag_403:\n        /* \"#utility.yul\":13419:13420   */\n      dup3\n        /* \"#utility.yul\":13416:13417   */\n      dup3\n        /* \"#utility.yul\":13412:13421   */\n      add\n        /* \"#utility.yul\":13405:13421   */\n      swap1\n      pop\n        /* \"#utility.yul\":13122:13427   */\n      swap3\n      swap2\n      pop\n      pop\n      jump\t// out\n        /* \"#utility.yul\":13433:13781   */\n    tag_219:\n        /* \"#utility.yul\":13473:13480   */\n      0x00\n        /* \"#utility.yul\":13496:13516   */\n      tag_407\n        /* \"#utility.yul\":13514:13515   */\n      dup3\n        /* \"#utility.yul\":13496:13516   */\n      tag_340\n      jump\t// in\n    tag_407:\n        /* \"#utility.yul\":13491:13516   */\n      swap2\n      pop\n        /* \"#utility.yul\":13530:13550   */\n      tag_408\n        /* \"#utility.yul\":13548:13549   */\n      dup4\n        /* \"#utility.yul\":13530:13550   */\n      tag_340\n      jump\t// in\n    tag_408:\n        /* \"#utility.yul\":13525:13550   */\n      swap3\n      pop\n        /* \"#utility.yul\":13718:13719   */\n      dup2\n        /* \"#utility.yul\":13650:13716   */\n      0xffffffffffffffffffffffffffffffffffffffffffffffffffffffffffffffff\n        /* \"#utility.yul\":13646:13720   */\n      div\n        /* \"#utility.yul\":13643:13644   */\n      dup4\n        /* \"#utility.yul\":13640:13721   */\n      gt\n        /* \"#utility.yul\":13635:13636   */\n      dup3\n        /* \"#utility.yul\":13628:13637   */\n      iszero\n        /* \"#utility.yul\":13621:13638   */\n      iszero\n        /* \"#utility.yul\":13617:13722   */\n      and\n        /* \"#utility.yul\":13614:13745   */\n      iszero\n      tag_409\n      jumpi\n        /* \"#utility.yul\":13725:13743   */\n      tag_410\n      tag_405\n      jump\t// in\n    tag_410:\n        /* \"#utility.yul\":13614:13745   */\n    tag_409:\n        /* \"#utility.yul\":13773:13774   */\n      dup3\n        /* \"#utility.yul\":13770:13771   */\n      dup3\n        /* \"#utility.yul\":13766:13775   */\n      mul\n        /* \"#utility.yul\":13755:13775   */\n      swap1\n      pop\n        /* \"#utility.yul\":13433:13781   */\n      swap3\n      swap2\n      pop\n      pop\n      jump\t// out\n        /* \"#utility.yul\":13787:13978   */\n    tag_98:\n        /* \"#utility.yul\":13827:13831   */\n      0x00\n        /* \"#utility.yul\":13847:13867   */\n      tag_412\n        /* \"#utility.yul\":13865:13866   */\n      dup3\n        /* \"#utility.yul\":13847:13867   */\n      tag_340\n      jump\t// in\n    tag_412:\n        /* \"#utility.yul\":13842:13867   */\n      swap2\n      pop\n        /* \"#utility.yul\":13881:13901   */\n      tag_413\n        /* \"#utility.yul\":13899:13900   */\n      dup4\n        /* \"#utility.yul\":13881:13901   */\n      tag_340\n      jump\t// in\n    tag_413:\n        /* \"#utility.yul\":13876:13901   */\n      swap3\n      pop\n        /* \"#utility.yul\":13920:13921   */\n      dup3\n        /* \"#utility.yul\":13917:13918   */\n      dup3\n        /* \"#utility.yul\":13914:13922   */\n      lt\n        /* \"#utility.yul\":13911:13945   */\n      iszero\n      tag_414\n      jumpi\n        /* \"#utility.yul\":13925:13943   */\n      tag_415\n      tag_405\n      jump\t// in\n    tag_415:\n        /* \"#utility.yul\":13911:13945   */\n    tag_414:\n        /* \"#utility.yul\":13970:13971   */\n      dup3\n        /* \"#utility.yul\":13967:13968   */\n      dup3\n        /* \"#utility.yul\":13963:13972   */\n      sub\n        /* \"#utility.yul\":13955:13972   */\n      swap1\n      pop\n        /* \"#utility.yul\":13787:13978   */\n      swap3\n      swap2\n      pop\n      pop\n      jump\t// out\n        /* \"#utility.yul\":13984:14080   */\n    tag_289:\n        /* \"#utility.yul\":14021:14028   */\n      0x00\n        /* \"#utility.yul\":14050:14074   */\n      tag_417\n        /* \"#utility.yul\":14068:14073   */\n      dup3\n        /* \"#utility.yul\":14050:14074   */\n      tag_418\n      jump\t// in\n    tag_417:\n        /* \"#utility.yul\":14039:14074   */\n      swap1\n      pop\n        /* \"#utility.yul\":13984:14080   */\n      swap2\n      swap1\n      pop\n      jump\t// out\n        /* \"#utility.yul\":14086:14212   */\n    tag_418:\n        /* \"#utility.yul\":14123:14130   */\n      0x00\n        /* \"#utility.yul\":14163:14205   */\n      0xffffffffffffffffffffffffffffffffffffffff\n        /* \"#utility.yul\":14156:14161   */\n      dup3\n        /* \"#utility.yul\":14152:14206   */\n      and\n        /* \"#utility.yul\":14141:14206   */\n      swap1\n      pop\n        /* \"#utility.yul\":14086:14212   */\n      swap2\n      swap1\n      pop\n      jump\t// out\n        /* \"#utility.yul\":14218:14295   */\n    tag_340:\n        /* \"#utility.yul\":14255:14262   */\n      0x00\n        /* \"#utility.yul\":14284:14289   */\n      dup2\n        /* \"#utility.yul\":14273:14289   */\n      swap1\n      pop\n        /* \"#utility.yul\":14218:14295   */\n      swap2\n      swap1\n      pop\n      jump\t// out\n        /* \"#utility.yul\":14301:14394   */\n    tag_349:\n        /* \"#utility.yul\":14337:14344   */\n      0x00\n        /* \"#utility.yul\":14377:14387   */\n      0xffffffff\n        /* \"#utility.yul\":14370:14375   */\n      dup3\n        /* \"#utility.yul\":14366:14388   */\n      and\n        /* \"#utility.yul\":14355:14388   */\n      swap1\n      pop\n        /* \"#utility.yul\":14301:14394   */\n      swap2\n      swap1\n      pop\n      jump\t// out\n        /* \"#utility.yul\":14400:14554   */\n    tag_249:\n        /* \"#utility.yul\":14484:14490   */\n      dup3\n        /* \"#utility.yul\":14479:14482   */\n      dup2\n        /* \"#utility.yul\":14474:14477   */\n      dup4\n        /* \"#utility.yul\":14461:14491   */\n      calldatacopy\n        /* \"#utility.yul\":14546:14547   */\n      0x00\n        /* \"#utility.yul\":14537:14543   */\n      dup4\n        /* \"#utility.yul\":14532:14535   */\n      dup4\n        /* \"#utility.yul\":14528:14544   */\n      add\n        /* \"#utility.yul\":14521:14548   */\n      mstore\n        /* \"#utility.yul\":14400:14554   */\n      pop\n      pop\n      pop\n      jump\t// out\n        /* \"#utility.yul\":14560:14867   */\n    tag_297:\n        /* \"#utility.yul\":14628:14629   */\n      0x00\n        /* \"#utility.yul\":14638:14751   */\n    tag_424:\n        /* \"#utility.yul\":14652:14658   */\n      dup4\n        /* \"#utility.yul\":14649:14650   */\n      dup2\n        /* \"#utility.yul\":14646:14659   */\n      lt\n        /* \"#utility.yul\":14638:14751   */\n      iszero\n      tag_426\n      jumpi\n        /* \"#utility.yul\":14737:14738   */\n      dup1\n        /* \"#utility.yul\":14732:14735   */\n      dup3\n        /* \"#utility.yul\":14728:14739   */\n      add\n        /* \"#utility.yul\":14722:14740   */\n      mload\n        /* \"#utility.yul\":14718:14719   */\n      dup2\n        /* \"#utility.yul\":14713:14716   */\n      dup5\n        /* \"#utility.yul\":14709:14720   */\n      add\n        /* \"#utility.yul\":14702:14741   */\n      mstore\n        /* \"#utility.yul\":14674:14676   */\n      0x20\n        /* \"#utility.yul\":14671:14672   */\n      dup2\n        /* \"#utility.yul\":14667:14677   */\n      add\n        /* \"#utility.yul\":14662:14677   */\n      swap1\n      pop\n        /* \"#utility.yul\":14638:14751   */\n      jump(tag_424)\n    tag_426:\n        /* \"#utility.yul\":14769:14775   */\n      dup4\n        /* \"#utility.yul\":14766:14767   */\n      dup2\n        /* \"#utility.yul\":14763:14776   */\n      gt\n        /* \"#utility.yul\":14760:14861   */\n      iszero\n      tag_427\n      jumpi\n        /* \"#utility.yul\":14849:14850   */\n      0x00\n        /* \"#utility.yul\":14840:14846   */\n      dup5\n        /* \"#utility.yul\":14835:14838   */\n      dup5\n        /* \"#utility.yul\":14831:14847   */\n      add\n        /* \"#utility.yul\":14824:14851   */\n      mstore\n        /* \"#utility.yul\":14760:14861   */\n    tag_427:\n        /* \"#utility.yul\":14609:14867   */\n      pop\n        /* \"#utility.yul\":14560:14867   */\n      pop\n      pop\n      pop\n      jump\t// out\n        /* \"#utility.yul\":14873:15193   */\n    tag_168:\n        /* \"#utility.yul\":14917:14923   */\n      0x00\n        /* \"#utility.yul\":14954:14955   */\n      0x02\n        /* \"#utility.yul\":14948:14952   */\n      dup3\n        /* \"#utility.yul\":14944:14956   */\n      div\n        /* \"#utility.yul\":14934:14956   */\n      swap1\n      pop\n        /* \"#utility.yul\":15001:15002   */\n      0x01\n        /* \"#utility.yul\":14995:14999   */\n      dup3\n        /* \"#utility.yul\":14991:15003   */\n      and\n        /* \"#utility.yul\":15022:15040   */\n      dup1\n        /* \"#utility.yul\":15012:15093   */\n      tag_429\n      jumpi\n        /* \"#utility.yul\":15078:15082   */\n      0x7f\n        /* \"#utility.yul\":15070:15076   */\n      dup3\n        /* \"#utility.yul\":15066:15083   */\n      and\n        /* \"#utility.yul\":15056:15083   */\n      swap2\n      pop\n        /* \"#utility.yul\":15012:15093   */\n    tag_429:\n        /* \"#utility.yul\":15140:15142   */\n      0x20\n        /* \"#utility.yul\":15132:15138   */\n      dup3\n        /* \"#utility.yul\":15129:15143   */\n      lt\n        /* \"#utility.yul\":15109:15127   */\n      dup2\n        /* \"#utility.yul\":15106:15144   */\n      eq\n        /* \"#utility.yul\":15103:15187   */\n      iszero\n      tag_430\n      jumpi\n        /* \"#utility.yul\":15159:15177   */\n      tag_431\n      tag_432\n      jump\t// in\n    tag_431:\n        /* \"#utility.yul\":15103:15187   */\n    tag_430:\n        /* \"#utility.yul\":14924:15193   */\n      pop\n        /* \"#utility.yul\":14873:15193   */\n      swap2\n      swap1\n      pop\n      jump\t// out\n        /* \"#utility.yul\":15199:15480   */\n    tag_390:\n        /* \"#utility.yul\":15282:15309   */\n      tag_434\n        /* \"#utility.yul\":15304:15308   */\n      dup3\n        /* \"#utility.yul\":15282:15309   */\n      tag_299\n      jump\t// in\n    tag_434:\n        /* \"#utility.yul\":15274:15280   */\n      dup2\n        /* \"#utility.yul\":15270:15310   */\n      add\n        /* \"#utility.yul\":15412:15418   */\n      dup2\n        /* \"#utility.yul\":15400:15410   */\n      dup2\n        /* \"#utility.yul\":15397:15419   */\n      lt\n        /* \"#utility.yul\":15376:15394   */\n      0xffffffffffffffff\n        /* \"#utility.yul\":15364:15374   */\n      dup3\n        /* \"#utility.yul\":15361:15395   */\n      gt\n        /* \"#utility.yul\":15358:15420   */\n      or\n        /* \"#utility.yul\":15355:15443   */\n      iszero\n      tag_435\n      jumpi\n        /* \"#utility.yul\":15423:15441   */\n      tag_436\n      tag_395\n      jump\t// in\n    tag_436:\n        /* \"#utility.yul\":15355:15443   */\n    tag_435:\n        /* \"#utility.yul\":15463:15473   */\n      dup1\n        /* \"#utility.yul\":15459:15461   */\n      0x40\n        /* \"#utility.yul\":15452:15474   */\n      mstore\n        /* \"#utility.yul\":15242:15480   */\n      pop\n        /* \"#utility.yul\":15199:15480   */\n      pop\n      pop\n      jump\t// out\n        /* \"#utility.yul\":15486:15719   */\n    tag_95:\n        /* \"#utility.yul\":15525:15528   */\n      0x00\n        /* \"#utility.yul\":15548:15572   */\n      tag_438\n        /* \"#utility.yul\":15566:15571   */\n      dup3\n        /* \"#utility.yul\":15548:15572   */\n      tag_340\n      jump\t// in\n    tag_438:\n        /* \"#utility.yul\":15539:15572   */\n      swap2\n      pop\n        /* \"#utility.yul\":15594:15660   */\n      0xffffffffffffffffffffffffffffffffffffffffffffffffffffffffffffffff\n        /* \"#utility.yul\":15587:15592   */\n      dup3\n        /* \"#utility.yul\":15584:15661   */\n      eq\n        /* \"#utility.yul\":15581:15684   */\n      iszero\n      tag_439\n      jumpi\n        /* \"#utility.yul\":15664:15682   */\n      tag_440\n      tag_405\n      jump\t// in\n    tag_440:\n        /* \"#utility.yul\":15581:15684   */\n    tag_439:\n        /* \"#utility.yul\":15711:15712   */\n      0x01\n        /* \"#utility.yul\":15704:15709   */\n      dup3\n        /* \"#utility.yul\":15700:15713   */\n      add\n        /* \"#utility.yul\":15693:15713   */\n      swap1\n      pop\n        /* \"#utility.yul\":15486:15719   */\n      swap2\n      swap1\n      pop\n      jump\t// out\n        /* \"#utility.yul\":15725:15900   */\n    tag_113:\n        /* \"#utility.yul\":15763:15766   */\n      0x00\n        /* \"#utility.yul\":15786:15809   */\n      tag_442\n        /* \"#utility.yul\":15803:15808   */\n      dup3\n        /* \"#utility.yul\":15786:15809   */\n      tag_349\n      jump\t// in\n    tag_442:\n        /* \"#utility.yul\":15777:15809   */\n      swap2\n      pop\n        /* \"#utility.yul\":15831:15841   */\n      0xffffffff\n        /* \"#utility.yul\":15824:15829   */\n      dup3\n        /* \"#utility.yul\":15821:15842   */\n      eq\n        /* \"#utility.yul\":15818:15865   */\n      iszero\n      tag_443\n      jumpi\n        /* \"#utility.yul\":15845:15863   */\n      tag_444\n      tag_405\n      jump\t// in\n    tag_444:\n        /* \"#utility.yul\":15818:15865   */\n    tag_443:\n        /* \"#utility.yul\":15892:15893   */\n      0x01\n        /* \"#utility.yul\":15885:15890   */\n      dup3\n        /* \"#utility.yul\":15881:15894   */\n      add\n        /* \"#utility.yul\":15874:15894   */\n      swap1\n      pop\n        /* \"#utility.yul\":15725:15900   */\n      swap2\n      swap1\n      pop\n      jump\t// out\n        /* \"#utility.yul\":15906:15985   */\n    tag_345:\n        /* \"#utility.yul\":15945:15952   */\n      0x00\n        /* \"#utility.yul\":15974:15979   */\n      dup2\n        /* \"#utility.yul\":15963:15979   */\n      swap1\n      pop\n        /* \"#utility.yul\":15906:15985   */\n      swap2\n      swap1\n      pop\n      jump\t// out\n        /* \"#utility.yul\":15991:16167   */\n    tag_121:\n        /* \"#utility.yul\":16023:16024   */\n      0x00\n        /* \"#utility.yul\":16040:16060   */\n      tag_447\n        /* \"#utility.yul\":16058:16059   */\n      dup3\n        /* \"#utility.yul\":16040:16060   */\n      tag_340\n      jump\t// in\n    tag_447:\n        /* \"#utility.yul\":16035:16060   */\n      swap2\n      pop\n        /* \"#utility.yul\":16074:16094   */\n      tag_448\n        /* \"#utility.yul\":16092:16093   */\n      dup4\n        /* \"#utility.yul\":16074:16094   */\n      tag_340\n      jump\t// in\n    tag_448:\n        /* \"#utility.yul\":16069:16094   */\n      swap3\n      pop\n        /* \"#utility.yul\":16113:16114   */\n      dup3\n        /* \"#utility.yul\":16103:16138   */\n      tag_449\n      jumpi\n        /* \"#utility.yul\":16118:16136   */\n      tag_450\n      tag_451\n      jump\t// in\n    tag_450:\n        /* \"#utility.yul\":16103:16138   */\n    tag_449:\n        /* \"#utility.yul\":16159:16160   */\n      dup3\n        /* \"#utility.yul\":16156:16157   */\n      dup3\n        /* \"#utility.yul\":16152:16161   */\n      mod\n        /* \"#utility.yul\":16147:16161   */\n      swap1\n      pop\n        /* \"#utility.yul\":15991:16167   */\n      swap3\n      swap2\n      pop\n      pop\n      jump\t// out\n        /* \"#utility.yul\":16173:16353   */\n    tag_405:\n        /* \"#utility.yul\":16221:16298   */\n      0x4e487b7100000000000000000000000000000000000000000000000000000000\n        /* \"#utility.yul\":16218:16219   */\n      0x00\n        /* \"#utility.yul\":16211:16299   */\n      mstore\n        /* \"#utility.yul\":16318:16322   */\n      0x11\n        /* \"#utility.yul\":16315:16316   */\n      0x04\n        /* \"#utility.yul\":16308:16323   */\n      mstore\n        /* \"#utility.yul\":16342:16346   */\n      0x24\n        /* \"#utility.yul\":16339:16340   */\n      0x00\n        /* \"#utility.yul\":16332:16347   */\n      revert\n        /* \"#utility.yul\":16359:16539   */\n    tag_451:\n        /* \"#utility.yul\":16407:16484   */\n      0x4e487b7100000000000000000000000000000000000000000000000000000000\n        /* \"#utility.yul\":16404:16405   */\n      0x00\n        /* \"#utility.yul\":16397:16485   */\n      mstore\n        /* \"#utility.yul\":16504:16508   */\n      0x12\n        /* \"#utility.yul\":16501:16502   */\n      0x04\n        /* \"#utility.yul\":16494:16509   */\n      mstore\n        /* \"#utility.yul\":16528:16532   */\n      0x24\n        /* \"#utility.yul\":16525:16526   */\n      0x00\n        /* \"#utility.yul\":16518:16533   */\n      revert\n        /* \"#utility.yul\":16545:16725   */\n    tag_432:\n        /* \"#utility.yul\":16593:16670   */\n      0x4e487b7100000000000000000000000000000000000000000000000000000000\n        /* \"#utility.yul\":16590:16591   */\n      0x00\n        /* \"#utility.yul\":16583:16671   */\n      mstore\n        /* \"#utility.yul\":16690:16694   */\n      0x22\n        /* \"#utility.yul\":16687:16688   */\n      0x04\n        /* \"#utility.yul\":16680:16695   */\n      mstore\n        /* \"#utility.yul\":16714:16718   */\n      0x24\n        /* \"#utility.yul\":16711:16712   */\n      0x00\n        /* \"#utility.yul\":16704:16719   */\n      revert\n        /* \"#utility.yul\":16731:16911   */\n    tag_106:\n        /* \"#utility.yul\":16779:16856   */\n      0x4e487b7100000000000000000000000000000000000000000000000000000000\n        /* \"#utility.yul\":16776:16777   */\n      0x00\n        /* \"#utility.yul\":16769:16857   */\n      mstore\n        /* \"#utility.yul\":16876:16880   */\n      0x32\n        /* \"#utility.yul\":16873:16874   */\n      0x04\n        /* \"#utility.yul\":16866:16881   */\n      mstore\n        /* \"#utility.yul\":16900:16904   */\n      0x24\n        /* \"#utility.yul\":16897:16898   */\n      0x00\n        /* \"#utility.yul\":16890:16905   */\n      revert\n        /* \"#utility.yul\":16917:17097   */\n    tag_395:\n        /* \"#utility.yul\":16965:17042   */\n      0x4e487b7100000000000000000000000000000000000000000000000000000000\n        /* \"#utility.yul\":16962:16963   */\n      0x00\n        /* \"#utility.yul\":16955:17043   */\n      mstore\n        /* \"#utility.yul\":17062:17066   */\n      0x41\n        /* \"#utility.yul\":17059:17060   */\n      0x04\n        /* \"#utility.yul\":17052:17067   */\n      mstore\n        /* \"#utility.yul\":17086:17090   */\n      0x24\n        /* \"#utility.yul\":17083:17084   */\n      0x00\n        /* \"#utility.yul\":17076:17091   */\n      revert\n        /* \"#utility.yul\":17103:17220   */\n    tag_258:\n        /* \"#utility.yul\":17212:17213   */\n      0x00\n        /* \"#utility.yul\":17209:17210   */\n      dup1\n        /* \"#utility.yul\":17202:17214   */\n      revert\n        /* \"#utility.yul\":17226:17343   */\n    tag_247:\n        /* \"#utility.yul\":17335:17336   */\n      0x00\n        /* \"#utility.yul\":17332:17333   */\n      dup1\n        /* \"#utility.yul\":17325:17337   */\n      revert\n        /* \"#utility.yul\":17349:17466   */\n    tag_274:\n        /* \"#utility.yul\":17458:17459   */\n      0x00\n        /* \"#utility.yul\":17455:17456   */\n      dup1\n        /* \"#utility.yul\":17448:17460   */\n      revert\n        /* \"#utility.yul\":17472:17589   */\n    tag_267:\n        /* \"#utility.yul\":17581:17582   */\n      0x00\n        /* \"#utility.yul\":17578:17579   */\n      dup1\n        /* \"#utility.yul\":17571:17583   */\n      revert\n        /* \"#utility.yul\":17595:17697   */\n    tag_299:\n        /* \"#utility.yul\":17636:17642   */\n      0x00\n        /* \"#utility.yul\":17687:17689   */\n      0x1f\n        /* \"#utility.yul\":17683:17690   */\n      not\n        /* \"#utility.yul\":17678:17680   */\n      0x1f\n        /* \"#utility.yul\":17671:17676   */\n      dup4\n        /* \"#utility.yul\":17667:17681   */\n      add\n        /* \"#utility.yul\":17663:17691   */\n      and\n        /* \"#utility.yul\":17653:17691   */\n      swap1\n      pop\n        /* \"#utility.yul\":17595:17697   */\n      swap2\n      swap1\n      pop\n      jump\t// out\n        /* \"#utility.yul\":17703:17930   */\n    tag_316:\n        /* \"#utility.yul\":17843:17877   */\n      0x536f6c6f2073652070756564652074656e657220756e20636f63686520706f72\n        /* \"#utility.yul\":17839:17840   */\n      0x00\n        /* \"#utility.yul\":17831:17837   */\n      dup3\n        /* \"#utility.yul\":17827:17841   */\n      add\n        /* \"#utility.yul\":17820:17878   */\n      mstore\n        /* \"#utility.yul\":17912:17922   */\n      0x20706572736f6e61000000000000000000000000000000000000000000000000\n        /* \"#utility.yul\":17907:17909   */\n      0x20\n        /* \"#utility.yul\":17899:17905   */\n      dup3\n        /* \"#utility.yul\":17895:17910   */\n      add\n        /* \"#utility.yul\":17888:17923   */\n      mstore\n        /* \"#utility.yul\":17703:17930   */\n      pop\n      jump\t// out\n        /* \"#utility.yul\":17936:18161   */\n    tag_321:\n        /* \"#utility.yul\":18076:18110   */\n      0x4f776e61626c653a206e6577206f776e657220697320746865207a65726f2061\n        /* \"#utility.yul\":18072:18073   */\n      0x00\n        /* \"#utility.yul\":18064:18070   */\n      dup3\n        /* \"#utility.yul\":18060:18074   */\n      add\n        /* \"#utility.yul\":18053:18111   */\n      mstore\n        /* \"#utility.yul\":18145:18153   */\n      0x6464726573730000000000000000000000000000000000000000000000000000\n        /* \"#utility.yul\":18140:18142   */\n      0x20\n        /* \"#utility.yul\":18132:18138   */\n      dup3\n        /* \"#utility.yul\":18128:18143   */\n      add\n        /* \"#utility.yul\":18121:18154   */\n      mstore\n        /* \"#utility.yul\":17936:18161   */\n      pop\n      jump\t// out\n        /* \"#utility.yul\":18167:18329   */\n    tag_326:\n        /* \"#utility.yul\":18307:18321   */\n      0x4861732067616e61646f3a200000000000000000000000000000000000000000\n        /* \"#utility.yul\":18303:18304   */\n      0x00\n        /* \"#utility.yul\":18295:18301   */\n      dup3\n        /* \"#utility.yul\":18291:18305   */\n      add\n        /* \"#utility.yul\":18284:18322   */\n      mstore\n        /* \"#utility.yul\":18167:18329   */\n      pop\n      jump\t// out\n        /* \"#utility.yul\":18335:18517   */\n    tag_331:\n        /* \"#utility.yul\":18475:18509   */\n      0x4f776e61626c653a2063616c6c6572206973206e6f7420746865206f776e6572\n        /* \"#utility.yul\":18471:18472   */\n      0x00\n        /* \"#utility.yul\":18463:18469   */\n      dup3\n        /* \"#utility.yul\":18459:18473   */\n      add\n        /* \"#utility.yul\":18452:18510   */\n      mstore\n        /* \"#utility.yul\":18335:18517   */\n      pop\n      jump\t// out\n        /* \"#utility.yul\":18523:18694   */\n    tag_336:\n        /* \"#utility.yul\":18663:18686   */\n      0x456c20636f6368652067616e61646f722065733a200000000000000000000000\n        /* \"#utility.yul\":18659:18660   */\n      0x00\n        /* \"#utility.yul\":18651:18657   */\n      dup3\n        /* \"#utility.yul\":18647:18661   */\n      add\n        /* \"#utility.yul\":18640:18687   */\n      mstore\n        /* \"#utility.yul\":18523:18694   */\n      pop\n      jump\t// out\n        /* \"#utility.yul\":18700:18822   */\n    tag_253:\n        /* \"#utility.yul\":18773:18797   */\n      tag_468\n        /* \"#utility.yul\":18791:18796   */\n      dup2\n        /* \"#utility.yul\":18773:18797   */\n      tag_289\n      jump\t// in\n    tag_468:\n        /* \"#utility.yul\":18766:18771   */\n      dup2\n        /* \"#utility.yul\":18763:18798   */\n      eq\n        /* \"#utility.yul\":18753:18816   */\n      tag_469\n      jumpi\n        /* \"#utility.yul\":18812:18813   */\n      0x00\n        /* \"#utility.yul\":18809:18810   */\n      dup1\n        /* \"#utility.yul\":18802:18814   */\n      revert\n        /* \"#utility.yul\":18753:18816   */\n    tag_469:\n        /* \"#utility.yul\":18700:18822   */\n      pop\n      jump\t// out\n        /* \"#utility.yul\":18828:18950   */\n    tag_263:\n        /* \"#utility.yul\":18901:18925   */\n      tag_471\n        /* \"#utility.yul\":18919:18924   */\n      dup2\n        /* \"#utility.yul\":18901:18925   */\n      tag_340\n      jump\t// in\n    tag_471:\n        /* \"#utility.yul\":18894:18899   */\n      dup2\n        /* \"#utility.yul\":18891:18926   */\n      eq\n        /* \"#utility.yul\":18881:18944   */\n      tag_472\n      jumpi\n        /* \"#utility.yul\":18940:18941   */\n      0x00\n        /* \"#utility.yul\":18937:18938   */\n      dup1\n        /* \"#utility.yul\":18930:18942   */\n      revert\n        /* \"#utility.yul\":18881:18944   */\n    tag_472:\n        /* \"#utility.yul\":18828:18950   */\n      pop\n      jump\t// out\n\n    auxdata: 0xa264697066735822122043b148808333f34e173afc5fb9e7d9fd4485032a394730bcbefd3eec8e586a1b64736f6c63430008070033\n}\n",
				"bytecode": {
					"linkReferences": {},
					"object": "608060405260006001556000600255603c600355670de0b6b3a764000060045534801561002b57600080fd5b5061004861003d61004d60201b60201c565b61005560201b60201c565b610119565b600033905090565b60008060009054906101000a900473ffffffffffffffffffffffffffffffffffffffff169050816000806101000a81548173ffffffffffffffffffffffffffffffffffffffff021916908373ffffffffffffffffffffffffffffffffffffffff1602179055508173ffffffffffffffffffffffffffffffffffffffff168173ffffffffffffffffffffffffffffffffffffffff167f8be0079c531659141344cd1fd0a4f28419497f9722a3daafe3b4186f6b6457e060405160405180910390a35050565b611cec806101286000396000f3fe6080604052600436106100a75760003560e01c8063858b055411610064578063858b0554146101b45780638da5cb5b146101f1578063b2bdfa7b1461021c578063d735573d14610247578063e172fca81461028b578063f2fde38b146102b4576100a7565b80631bfdc150146100ac5780631c6743e4146100c35780632458c544146101005780636a7d18161461013d5780636b6f04941461016d578063715018a61461019d575b600080fd5b3480156100b857600080fd5b506100c16102dd565b005b3480156100cf57600080fd5b506100ea60048036038101906100e5919061126e565b6103a2565b6040516100f79190611737565b60405180910390f35b34801561010c57600080fd5b506101276004803603810190610122919061129b565b6103ba565b6040516101349190611737565b60405180910390f35b6101576004803603810190610152919061126e565b61069c565b6040516101649190611606565b60405180910390f35b61018760048036038101906101829190611342565b6107f1565b6040516101949190611606565b60405180910390f35b3480156101a957600080fd5b506101b2610a2d565b005b3480156101c057600080fd5b506101db60048036038101906101d69190611342565b610ab5565b6040516101e89190611558565b60405180910390f35b3480156101fd57600080fd5b50610206610ae8565b6040516102139190611558565b60405180910390f35b34801561022857600080fd5b50610231610b11565b60405161023e9190611558565b60405180910390f35b34801561025357600080fd5b5061026e60048036038101906102699190611342565b610b35565b604051610282989796959493929190611573565b60405180910390f35b34801561029757600080fd5b506102b260048036038101906102ad919061126e565b610d55565b005b3480156102c057600080fd5b506102db60048036038101906102d6919061126e565b610ed5565b005b6102e5610fcd565b73ffffffffffffffffffffffffffffffffffffffff16610303610ae8565b73ffffffffffffffffffffffffffffffffffffffff1614610359576040517f08c379a0000000000000000000000000000000000000000000000000000000008152600401610350906116e9565b60405180910390fd5b3373ffffffffffffffffffffffffffffffffffffffff166108fc479081150290604051600060405180830381858888f1935050505015801561039f573d6000803e3d6000fd5b50565b60076020528060005260406000206000915090505481565b60006001600760003373ffffffffffffffffffffffffffffffffffffffff1673ffffffffffffffffffffffffffffffffffffffff168152602001908152602001600020541061043e576040517f08c379a00000000000000000000000000000000000000000000000000000000081526004016104359061167b565b60405180910390fd5b60056040518061010001604052803373ffffffffffffffffffffffffffffffffffffffff16815260200186815260200185815260200184815260200160008152602001600081526020016003544261049691906117d9565b63ffffffff168152602001600063ffffffff16815250908060018154018082558091505060019003906000526020600020906008020160009091909190915060008201518160000160006101000a81548173ffffffffffffffffffffffffffffffffffffffff021916908373ffffffffffffffffffffffffffffffffffffffff1602179055506020820151816001019080519060200190610538929190611131565b506040820151816002019080519060200190610555929190611131565b506060820151816003019080519060200190610572929190611131565b506080820151816004015560a0820151816005015560c0820151816006015560e08201518160070160006101000a81548163ffffffff021916908363ffffffff160217905550505060006005805490509050336006600083815260200190815260200160002060006101000a81548173ffffffffffffffffffffffffffffffffffffffff021916908373ffffffffffffffffffffffffffffffffffffffff160217905550600760003373ffffffffffffffffffffffffffffffffffffffff1673ffffffffffffffffffffffffffffffffffffffff1681526020019081526020016000206000815480929190610666906119ae565b91905055506002600081548092919061067e906119ae565b919050555060016002546106929190611889565b9150509392505050565b606060045434146106ac57600080fd5b60005b6005805490508110156107ea578273ffffffffffffffffffffffffffffffffffffffff16600582815481106106e7576106e6611aec565b5b906000526020600020906008020160000160009054906101000a900473ffffffffffffffffffffffffffffffffffffffff1673ffffffffffffffffffffffffffffffffffffffff1614156107d7576005818154811061074957610748611aec565b5b9060005260206000209060080201600701600081819054906101000a900463ffffffff168092919061077a906119f7565b91906101000a81548163ffffffff021916908363ffffffff160217905550506040518060400160405280601281526020017f48612073756269646f206465206e6976656c00000000000000000000000000008152509150506107ec565b80806107e2906119ae565b9150506106af565b505b919050565b60608134146107ff57600080fd5b60016000815480929190610812906119ae565b919050555060006005805490504260058054905060015460405160200161083b9392919061151b565b6040516020818303038152906040528051906020012060001c61085e9190611a2e565b905060016000815480929190610873906119ae565b919050555060006002905060008142836001546040516020016108989392919061151b565b6040516020818303038152906040528051906020012060001c6108bb9190611a2e565b905060005b600580549050811015610a2357600581815481106108e1576108e0611aec565b5b906000526020600020906008020160000160009054906101000a900473ffffffffffffffffffffffffffffffffffffffff1673ffffffffffffffffffffffffffffffffffffffff163373ffffffffffffffffffffffffffffffffffffffff161415610a1057600082141561099857610957610fd5565b6040518060400160405280600a81526020017f4861732067616e61646f00000000000000000000000000000000000000000000815250945050505050610a28565b7fa28482eec3136a2461c6c30c08f71ba279c6c51a2d9c7bea4e50d6d2632f3896846040516109c79190611709565b60405180910390a16040518060400160405280600b81526020017f486173207065726469646f000000000000000000000000000000000000000000815250945050505050610a28565b8080610a1b906119ae565b9150506108c0565b505050505b919050565b610a35610fcd565b73ffffffffffffffffffffffffffffffffffffffff16610a53610ae8565b73ffffffffffffffffffffffffffffffffffffffff1614610aa9576040517f08c379a0000000000000000000000000000000000000000000000000000000008152600401610aa0906116e9565b60405180910390fd5b610ab3600061106d565b565b60066020528060005260406000206000915054906101000a900473ffffffffffffffffffffffffffffffffffffffff1681565b60008060009054906101000a900473ffffffffffffffffffffffffffffffffffffffff16905090565b60008054906101000a900473ffffffffffffffffffffffffffffffffffffffff1681565b60058181548110610b4557600080fd5b90600052602060002090600802016000915090508060000160009054906101000a900473ffffffffffffffffffffffffffffffffffffffff1690806001018054610b8e9061194b565b80601f0160208091040260200160405190810160405280929190818152602001828054610bba9061194b565b8015610c075780601f10610bdc57610100808354040283529160200191610c07565b820191906000526020600020905b815481529060010190602001808311610bea57829003601f168201915b505050505090806002018054610c1c9061194b565b80601f0160208091040260200160405190810160405280929190818152602001828054610c489061194b565b8015610c955780601f10610c6a57610100808354040283529160200191610c95565b820191906000526020600020905b815481529060010190602001808311610c7857829003601f168201915b505050505090806003018054610caa9061194b565b80601f0160208091040260200160405190810160405280929190818152602001828054610cd69061194b565b8015610d235780601f10610cf857610100808354040283529160200191610d23565b820191906000526020600020905b815481529060010190602001808311610d0657829003601f168201915b5050505050908060040154908060050154908060060154908060070160009054906101000a900463ffffffff16905088565b60005b600580549050811015610ed1578173ffffffffffffffffffffffffffffffffffffffff1660058281548110610d9057610d8f611aec565b5b906000526020600020906008020160000160009054906101000a900473ffffffffffffffffffffffffffffffffffffffff1673ffffffffffffffffffffffffffffffffffffffff161415610ebe577f18c2885dbbffc4e127da047b869295b42d8d5ee97848f7f117b062e88f34a9e660058281548110610e1357610e12611aec565b5b906000526020600020906008020160020160058381548110610e3857610e37611aec565b5b906000526020600020906008020160010160058481548110610e5d57610e5c611aec565b5b906000526020600020906008020160070160009054906101000a900463ffffffff1660058581548110610e9357610e92611aec565b5b906000526020600020906008020160040154604051610eb59493929190611628565b60405180910390a15b8080610ec9906119ae565b915050610d58565b5050565b610edd610fcd565b73ffffffffffffffffffffffffffffffffffffffff16610efb610ae8565b73ffffffffffffffffffffffffffffffffffffffff1614610f51576040517f08c379a0000000000000000000000000000000000000000000000000000000008152600401610f48906116e9565b60405180910390fd5b600073ffffffffffffffffffffffffffffffffffffffff168173ffffffffffffffffffffffffffffffffffffffff161415610fc1576040517f08c379a0000000000000000000000000000000000000000000000000000000008152600401610fb89061169b565b60405180910390fd5b610fca8161106d565b50565b600033905090565b3373ffffffffffffffffffffffffffffffffffffffff166108fc600247610ffc919061182f565b9081150290604051600060405180830381858888f19350505050158015611027573d6000803e3d6000fd5b507fa28482eec3136a2461c6c30c08f71ba279c6c51a2d9c7bea4e50d6d2632f3896600247611056919061182f565b60405161106391906116bb565b60405180910390a1565b60008060009054906101000a900473ffffffffffffffffffffffffffffffffffffffff169050816000806101000a81548173ffffffffffffffffffffffffffffffffffffffff021916908373ffffffffffffffffffffffffffffffffffffffff1602179055508173ffffffffffffffffffffffffffffffffffffffff168173ffffffffffffffffffffffffffffffffffffffff167f8be0079c531659141344cd1fd0a4f28419497f9722a3daafe3b4186f6b6457e060405160405180910390a35050565b82805461113d9061194b565b90600052602060002090601f01602090048101928261115f57600085556111a6565b82601f1061117857805160ff19168380011785556111a6565b828001600101855582156111a6579182015b828111156111a557825182559160200191906001019061118a565b5b5090506111b391906111b7565b5090565b5b808211156111d05760008160009055506001016111b8565b5090565b60006111e76111e284611777565b611752565b90508281526020810184848401111561120357611202611b4f565b5b61120e848285611909565b509392505050565b60008135905061122581611c88565b92915050565b600082601f8301126112405761123f611b4a565b5b81356112508482602086016111d4565b91505092915050565b60008135905061126881611c9f565b92915050565b60006020828403121561128457611283611b59565b5b600061129284828501611216565b91505092915050565b6000806000606084860312156112b4576112b3611b59565b5b600084013567ffffffffffffffff8111156112d2576112d1611b54565b5b6112de8682870161122b565b935050602084013567ffffffffffffffff8111156112ff576112fe611b54565b5b61130b8682870161122b565b925050604084013567ffffffffffffffff81111561132c5761132b611b54565b5b6113388682870161122b565b9150509250925092565b60006020828403121561135857611357611b59565b5b600061136684828501611259565b91505092915050565b611378816118bd565b82525050565b6000611389826117bd565b61139381856117c8565b93506113a3818560208601611918565b6113ac81611b5e565b840191505092915050565b600081546113c48161194b565b6113ce81866117c8565b945060018216600081146113e957600181146113fb5761142e565b60ff198316865260208601935061142e565b611404856117a8565b60005b8381101561142657815481890152600182019150602081019050611407565b808801955050505b50505092915050565b60006114446028836117c8565b915061144f82611b6f565b604082019050919050565b60006114676026836117c8565b915061147282611bbe565b604082019050919050565b600061148a600c836117c8565b915061149582611c0d565b602082019050919050565b60006114ad6020836117c8565b91506114b882611c36565b602082019050919050565b60006114d06015836117c8565b91506114db82611c5f565b602082019050919050565b6114ef816118ef565b82525050565b611506611501826118ef565b611a24565b82525050565b611515816118f9565b82525050565b600061152782866114f5565b60208201915061153782856114f5565b60208201915061154782846114f5565b602082019150819050949350505050565b600060208201905061156d600083018461136f565b92915050565b600061010082019050611589600083018b61136f565b818103602083015261159b818a61137e565b905081810360408301526115af818961137e565b905081810360608301526115c3818861137e565b90506115d260808301876114e6565b6115df60a08301866114e6565b6115ec60c08301856114e6565b6115f960e083018461150c565b9998505050505050505050565b60006020820190508181036000830152611620818461137e565b905092915050565b6000608082019050818103600083015261164281876113b7565b9050818103602083015261165681866113b7565b9050611665604083018561150c565b61167260608301846114e6565b95945050505050565b6000602082019050818103600083015261169481611437565b9050919050565b600060208201905081810360008301526116b48161145a565b9050919050565b600060408201905081810360008301526116d48161147d565b90506116e360208301846114e6565b92915050565b60006020820190508181036000830152611702816114a0565b9050919050565b60006040820190508181036000830152611722816114c3565b905061173160208301846114e6565b92915050565b600060208201905061174c60008301846114e6565b92915050565b600061175c61176d565b9050611768828261197d565b919050565b6000604051905090565b600067ffffffffffffffff82111561179257611791611b1b565b5b61179b82611b5e565b9050602081019050919050565b60008190508160005260206000209050919050565b600081519050919050565b600082825260208201905092915050565b60006117e4826118ef565b91506117ef836118ef565b9250827fffffffffffffffffffffffffffffffffffffffffffffffffffffffffffffffff0382111561182457611823611a5f565b5b828201905092915050565b600061183a826118ef565b9150611845836118ef565b9250817fffffffffffffffffffffffffffffffffffffffffffffffffffffffffffffffff048311821515161561187e5761187d611a5f565b5b828202905092915050565b6000611894826118ef565b915061189f836118ef565b9250828210156118b2576118b1611a5f565b5b828203905092915050565b60006118c8826118cf565b9050919050565b600073ffffffffffffffffffffffffffffffffffffffff82169050919050565b6000819050919050565b600063ffffffff82169050919050565b82818337600083830152505050565b60005b8381101561193657808201518184015260208101905061191b565b83811115611945576000848401525b50505050565b6000600282049050600182168061196357607f821691505b6020821081141561197757611976611abd565b5b50919050565b61198682611b5e565b810181811067ffffffffffffffff821117156119a5576119a4611b1b565b5b80604052505050565b60006119b9826118ef565b91507fffffffffffffffffffffffffffffffffffffffffffffffffffffffffffffffff8214156119ec576119eb611a5f565b5b600182019050919050565b6000611a02826118f9565b915063ffffffff821415611a1957611a18611a5f565b5b600182019050919050565b6000819050919050565b6000611a39826118ef565b9150611a44836118ef565b925082611a5457611a53611a8e565b5b828206905092915050565b7f4e487b7100000000000000000000000000000000000000000000000000000000600052601160045260246000fd5b7f4e487b7100000000000000000000000000000000000000000000000000000000600052601260045260246000fd5b7f4e487b7100000000000000000000000000000000000000000000000000000000600052602260045260246000fd5b7f4e487b7100000000000000000000000000000000000000000000000000000000600052603260045260246000fd5b7f4e487b7100000000000000000000000000000000000000000000000000000000600052604160045260246000fd5b600080fd5b600080fd5b600080fd5b600080fd5b6000601f19601f8301169050919050565b7f536f6c6f2073652070756564652074656e657220756e20636f63686520706f7260008201527f20706572736f6e61000000000000000000000000000000000000000000000000602082015250565b7f4f776e61626c653a206e6577206f776e657220697320746865207a65726f206160008201527f6464726573730000000000000000000000000000000000000000000000000000602082015250565b7f4861732067616e61646f3a200000000000000000000000000000000000000000600082015250565b7f4f776e61626c653a2063616c6c6572206973206e6f7420746865206f776e6572600082015250565b7f456c20636f6368652067616e61646f722065733a200000000000000000000000600082015250565b611c91816118bd565b8114611c9c57600080fd5b50565b611ca8816118ef565b8114611cb357600080fd5b5056fea264697066735822122043b148808333f34e173afc5fb9e7d9fd4485032a394730bcbefd3eec8e586a1b64736f6c63430008070033",
					"opcodes": "PUSH1 0x80 PUSH1 0x40 MSTORE PUSH1 0x0 PUSH1 0x1 SSTORE PUSH1 0x0 PUSH1 0x2 SSTORE PUSH1 0x3C PUSH1 0x3 SSTORE PUSH8 0xDE0B6B3A7640000 PUSH1 0x4 SSTORE CALLVALUE DUP1 ISZERO PUSH2 0x2B JUMPI PUSH1 0x0 DUP1 REVERT JUMPDEST POP PUSH2 0x48 PUSH2 0x3D PUSH2 0x4D PUSH1 0x20 SHL PUSH1 0x20 SHR JUMP JUMPDEST PUSH2 0x55 PUSH1 0x20 SHL PUSH1 0x20 SHR JUMP JUMPDEST PUSH2 0x119 JUMP JUMPDEST PUSH1 0x0 CALLER SWAP1 POP SWAP1 JUMP JUMPDEST PUSH1 0x0 DUP1 PUSH1 0x0 SWAP1 SLOAD SWAP1 PUSH2 0x100 EXP SWAP1 DIV PUSH20 0xFFFFFFFFFFFFFFFFFFFFFFFFFFFFFFFFFFFFFFFF AND SWAP1 POP DUP2 PUSH1 0x0 DUP1 PUSH2 0x100 EXP DUP2 SLOAD DUP2 PUSH20 0xFFFFFFFFFFFFFFFFFFFFFFFFFFFFFFFFFFFFFFFF MUL NOT AND SWAP1 DUP4 PUSH20 0xFFFFFFFFFFFFFFFFFFFFFFFFFFFFFFFFFFFFFFFF AND MUL OR SWAP1 SSTORE POP DUP2 PUSH20 0xFFFFFFFFFFFFFFFFFFFFFFFFFFFFFFFFFFFFFFFF AND DUP2 PUSH20 0xFFFFFFFFFFFFFFFFFFFFFFFFFFFFFFFFFFFFFFFF AND PUSH32 0x8BE0079C531659141344CD1FD0A4F28419497F9722A3DAAFE3B4186F6B6457E0 PUSH1 0x40 MLOAD PUSH1 0x40 MLOAD DUP1 SWAP2 SUB SWAP1 LOG3 POP POP JUMP JUMPDEST PUSH2 0x1CEC DUP1 PUSH2 0x128 PUSH1 0x0 CODECOPY PUSH1 0x0 RETURN INVALID PUSH1 0x80 PUSH1 0x40 MSTORE PUSH1 0x4 CALLDATASIZE LT PUSH2 0xA7 JUMPI PUSH1 0x0 CALLDATALOAD PUSH1 0xE0 SHR DUP1 PUSH4 0x858B0554 GT PUSH2 0x64 JUMPI DUP1 PUSH4 0x858B0554 EQ PUSH2 0x1B4 JUMPI DUP1 PUSH4 0x8DA5CB5B EQ PUSH2 0x1F1 JUMPI DUP1 PUSH4 0xB2BDFA7B EQ PUSH2 0x21C JUMPI DUP1 PUSH4 0xD735573D EQ PUSH2 0x247 JUMPI DUP1 PUSH4 0xE172FCA8 EQ PUSH2 0x28B JUMPI DUP1 PUSH4 0xF2FDE38B EQ PUSH2 0x2B4 JUMPI PUSH2 0xA7 JUMP JUMPDEST DUP1 PUSH4 0x1BFDC150 EQ PUSH2 0xAC JUMPI DUP1 PUSH4 0x1C6743E4 EQ PUSH2 0xC3 JUMPI DUP1 PUSH4 0x2458C544 EQ PUSH2 0x100 JUMPI DUP1 PUSH4 0x6A7D1816 EQ PUSH2 0x13D JUMPI DUP1 PUSH4 0x6B6F0494 EQ PUSH2 0x16D JUMPI DUP1 PUSH4 0x715018A6 EQ PUSH2 0x19D JUMPI JUMPDEST PUSH1 0x0 DUP1 REVERT JUMPDEST CALLVALUE DUP1 ISZERO PUSH2 0xB8 JUMPI PUSH1 0x0 DUP1 REVERT JUMPDEST POP PUSH2 0xC1 PUSH2 0x2DD JUMP JUMPDEST STOP JUMPDEST CALLVALUE DUP1 ISZERO PUSH2 0xCF JUMPI PUSH1 0x0 DUP1 REVERT JUMPDEST POP PUSH2 0xEA PUSH1 0x4 DUP1 CALLDATASIZE SUB DUP2 ADD SWAP1 PUSH2 0xE5 SWAP2 SWAP1 PUSH2 0x126E JUMP JUMPDEST PUSH2 0x3A2 JUMP JUMPDEST PUSH1 0x40 MLOAD PUSH2 0xF7 SWAP2 SWAP1 PUSH2 0x1737 JUMP JUMPDEST PUSH1 0x40 MLOAD DUP1 SWAP2 SUB SWAP1 RETURN JUMPDEST CALLVALUE DUP1 ISZERO PUSH2 0x10C JUMPI PUSH1 0x0 DUP1 REVERT JUMPDEST POP PUSH2 0x127 PUSH1 0x4 DUP1 CALLDATASIZE SUB DUP2 ADD SWAP1 PUSH2 0x122 SWAP2 SWAP1 PUSH2 0x129B JUMP JUMPDEST PUSH2 0x3BA JUMP JUMPDEST PUSH1 0x40 MLOAD PUSH2 0x134 SWAP2 SWAP1 PUSH2 0x1737 JUMP JUMPDEST PUSH1 0x40 MLOAD DUP1 SWAP2 SUB SWAP1 RETURN JUMPDEST PUSH2 0x157 PUSH1 0x4 DUP1 CALLDATASIZE SUB DUP2 ADD SWAP1 PUSH2 0x152 SWAP2 SWAP1 PUSH2 0x126E JUMP JUMPDEST PUSH2 0x69C JUMP JUMPDEST PUSH1 0x40 MLOAD PUSH2 0x164 SWAP2 SWAP1 PUSH2 0x1606 JUMP JUMPDEST PUSH1 0x40 MLOAD DUP1 SWAP2 SUB SWAP1 RETURN JUMPDEST PUSH2 0x187 PUSH1 0x4 DUP1 CALLDATASIZE SUB DUP2 ADD SWAP1 PUSH2 0x182 SWAP2 SWAP1 PUSH2 0x1342 JUMP JUMPDEST PUSH2 0x7F1 JUMP JUMPDEST PUSH1 0x40 MLOAD PUSH2 0x194 SWAP2 SWAP1 PUSH2 0x1606 JUMP JUMPDEST PUSH1 0x40 MLOAD DUP1 SWAP2 SUB SWAP1 RETURN JUMPDEST CALLVALUE DUP1 ISZERO PUSH2 0x1A9 JUMPI PUSH1 0x0 DUP1 REVERT JUMPDEST POP PUSH2 0x1B2 PUSH2 0xA2D JUMP JUMPDEST STOP JUMPDEST CALLVALUE DUP1 ISZERO PUSH2 0x1C0 JUMPI PUSH1 0x0 DUP1 REVERT JUMPDEST POP PUSH2 0x1DB PUSH1 0x4 DUP1 CALLDATASIZE SUB DUP2 ADD SWAP1 PUSH2 0x1D6 SWAP2 SWAP1 PUSH2 0x1342 JUMP JUMPDEST PUSH2 0xAB5 JUMP JUMPDEST PUSH1 0x40 MLOAD PUSH2 0x1E8 SWAP2 SWAP1 PUSH2 0x1558 JUMP JUMPDEST PUSH1 0x40 MLOAD DUP1 SWAP2 SUB SWAP1 RETURN JUMPDEST CALLVALUE DUP1 ISZERO PUSH2 0x1FD JUMPI PUSH1 0x0 DUP1 REVERT JUMPDEST POP PUSH2 0x206 PUSH2 0xAE8 JUMP JUMPDEST PUSH1 0x40 MLOAD PUSH2 0x213 SWAP2 SWAP1 PUSH2 0x1558 JUMP JUMPDEST PUSH1 0x40 MLOAD DUP1 SWAP2 SUB SWAP1 RETURN JUMPDEST CALLVALUE DUP1 ISZERO PUSH2 0x228 JUMPI PUSH1 0x0 DUP1 REVERT JUMPDEST POP PUSH2 0x231 PUSH2 0xB11 JUMP JUMPDEST PUSH1 0x40 MLOAD PUSH2 0x23E SWAP2 SWAP1 PUSH2 0x1558 JUMP JUMPDEST PUSH1 0x40 MLOAD DUP1 SWAP2 SUB SWAP1 RETURN JUMPDEST CALLVALUE DUP1 ISZERO PUSH2 0x253 JUMPI PUSH1 0x0 DUP1 REVERT JUMPDEST POP PUSH2 0x26E PUSH1 0x4 DUP1 CALLDATASIZE SUB DUP2 ADD SWAP1 PUSH2 0x269 SWAP2 SWAP1 PUSH2 0x1342 JUMP JUMPDEST PUSH2 0xB35 JUMP JUMPDEST PUSH1 0x40 MLOAD PUSH2 0x282 SWAP9 SWAP8 SWAP7 SWAP6 SWAP5 SWAP4 SWAP3 SWAP2 SWAP1 PUSH2 0x1573 JUMP JUMPDEST PUSH1 0x40 MLOAD DUP1 SWAP2 SUB SWAP1 RETURN JUMPDEST CALLVALUE DUP1 ISZERO PUSH2 0x297 JUMPI PUSH1 0x0 DUP1 REVERT JUMPDEST POP PUSH2 0x2B2 PUSH1 0x4 DUP1 CALLDATASIZE SUB DUP2 ADD SWAP1 PUSH2 0x2AD SWAP2 SWAP1 PUSH2 0x126E JUMP JUMPDEST PUSH2 0xD55 JUMP JUMPDEST STOP JUMPDEST CALLVALUE DUP1 ISZERO PUSH2 0x2C0 JUMPI PUSH1 0x0 DUP1 REVERT JUMPDEST POP PUSH2 0x2DB PUSH1 0x4 DUP1 CALLDATASIZE SUB DUP2 ADD SWAP1 PUSH2 0x2D6 SWAP2 SWAP1 PUSH2 0x126E JUMP JUMPDEST PUSH2 0xED5 JUMP JUMPDEST STOP JUMPDEST PUSH2 0x2E5 PUSH2 0xFCD JUMP JUMPDEST PUSH20 0xFFFFFFFFFFFFFFFFFFFFFFFFFFFFFFFFFFFFFFFF AND PUSH2 0x303 PUSH2 0xAE8 JUMP JUMPDEST PUSH20 0xFFFFFFFFFFFFFFFFFFFFFFFFFFFFFFFFFFFFFFFF AND EQ PUSH2 0x359 JUMPI PUSH1 0x40 MLOAD PUSH32 0x8C379A000000000000000000000000000000000000000000000000000000000 DUP2 MSTORE PUSH1 0x4 ADD PUSH2 0x350 SWAP1 PUSH2 0x16E9 JUMP JUMPDEST PUSH1 0x40 MLOAD DUP1 SWAP2 SUB SWAP1 REVERT JUMPDEST CALLER PUSH20 0xFFFFFFFFFFFFFFFFFFFFFFFFFFFFFFFFFFFFFFFF AND PUSH2 0x8FC SELFBALANCE SWAP1 DUP2 ISZERO MUL SWAP1 PUSH1 0x40 MLOAD PUSH1 0x0 PUSH1 0x40 MLOAD DUP1 DUP4 SUB DUP2 DUP6 DUP9 DUP9 CALL SWAP4 POP POP POP POP ISZERO DUP1 ISZERO PUSH2 0x39F JUMPI RETURNDATASIZE PUSH1 0x0 DUP1 RETURNDATACOPY RETURNDATASIZE PUSH1 0x0 REVERT JUMPDEST POP JUMP JUMPDEST PUSH1 0x7 PUSH1 0x20 MSTORE DUP1 PUSH1 0x0 MSTORE PUSH1 0x40 PUSH1 0x0 KECCAK256 PUSH1 0x0 SWAP2 POP SWAP1 POP SLOAD DUP2 JUMP JUMPDEST PUSH1 0x0 PUSH1 0x1 PUSH1 0x7 PUSH1 0x0 CALLER PUSH20 0xFFFFFFFFFFFFFFFFFFFFFFFFFFFFFFFFFFFFFFFF AND PUSH20 0xFFFFFFFFFFFFFFFFFFFFFFFFFFFFFFFFFFFFFFFF AND DUP2 MSTORE PUSH1 0x20 ADD SWAP1 DUP2 MSTORE PUSH1 0x20 ADD PUSH1 0x0 KECCAK256 SLOAD LT PUSH2 0x43E JUMPI PUSH1 0x40 MLOAD PUSH32 0x8C379A000000000000000000000000000000000000000000000000000000000 DUP2 MSTORE PUSH1 0x4 ADD PUSH2 0x435 SWAP1 PUSH2 0x167B JUMP JUMPDEST PUSH1 0x40 MLOAD DUP1 SWAP2 SUB SWAP1 REVERT JUMPDEST PUSH1 0x5 PUSH1 0x40 MLOAD DUP1 PUSH2 0x100 ADD PUSH1 0x40 MSTORE DUP1 CALLER PUSH20 0xFFFFFFFFFFFFFFFFFFFFFFFFFFFFFFFFFFFFFFFF AND DUP2 MSTORE PUSH1 0x20 ADD DUP7 DUP2 MSTORE PUSH1 0x20 ADD DUP6 DUP2 MSTORE PUSH1 0x20 ADD DUP5 DUP2 MSTORE PUSH1 0x20 ADD PUSH1 0x0 DUP2 MSTORE PUSH1 0x20 ADD PUSH1 0x0 DUP2 MSTORE PUSH1 0x20 ADD PUSH1 0x3 SLOAD TIMESTAMP PUSH2 0x496 SWAP2 SWAP1 PUSH2 0x17D9 JUMP JUMPDEST PUSH4 0xFFFFFFFF AND DUP2 MSTORE PUSH1 0x20 ADD PUSH1 0x0 PUSH4 0xFFFFFFFF AND DUP2 MSTORE POP SWAP1 DUP1 PUSH1 0x1 DUP2 SLOAD ADD DUP1 DUP3 SSTORE DUP1 SWAP2 POP POP PUSH1 0x1 SWAP1 SUB SWAP1 PUSH1 0x0 MSTORE PUSH1 0x20 PUSH1 0x0 KECCAK256 SWAP1 PUSH1 0x8 MUL ADD PUSH1 0x0 SWAP1 SWAP2 SWAP1 SWAP2 SWAP1 SWAP2 POP PUSH1 0x0 DUP3 ADD MLOAD DUP2 PUSH1 0x0 ADD PUSH1 0x0 PUSH2 0x100 EXP DUP2 SLOAD DUP2 PUSH20 0xFFFFFFFFFFFFFFFFFFFFFFFFFFFFFFFFFFFFFFFF MUL NOT AND SWAP1 DUP4 PUSH20 0xFFFFFFFFFFFFFFFFFFFFFFFFFFFFFFFFFFFFFFFF AND MUL OR SWAP1 SSTORE POP PUSH1 0x20 DUP3 ADD MLOAD DUP2 PUSH1 0x1 ADD SWAP1 DUP1 MLOAD SWAP1 PUSH1 0x20 ADD SWAP1 PUSH2 0x538 SWAP3 SWAP2 SWAP1 PUSH2 0x1131 JUMP JUMPDEST POP PUSH1 0x40 DUP3 ADD MLOAD DUP2 PUSH1 0x2 ADD SWAP1 DUP1 MLOAD SWAP1 PUSH1 0x20 ADD SWAP1 PUSH2 0x555 SWAP3 SWAP2 SWAP1 PUSH2 0x1131 JUMP JUMPDEST POP PUSH1 0x60 DUP3 ADD MLOAD DUP2 PUSH1 0x3 ADD SWAP1 DUP1 MLOAD SWAP1 PUSH1 0x20 ADD SWAP1 PUSH2 0x572 SWAP3 SWAP2 SWAP1 PUSH2 0x1131 JUMP JUMPDEST POP PUSH1 0x80 DUP3 ADD MLOAD DUP2 PUSH1 0x4 ADD SSTORE PUSH1 0xA0 DUP3 ADD MLOAD DUP2 PUSH1 0x5 ADD SSTORE PUSH1 0xC0 DUP3 ADD MLOAD DUP2 PUSH1 0x6 ADD SSTORE PUSH1 0xE0 DUP3 ADD MLOAD DUP2 PUSH1 0x7 ADD PUSH1 0x0 PUSH2 0x100 EXP DUP2 SLOAD DUP2 PUSH4 0xFFFFFFFF MUL NOT AND SWAP1 DUP4 PUSH4 0xFFFFFFFF AND MUL OR SWAP1 SSTORE POP POP POP PUSH1 0x0 PUSH1 0x5 DUP1 SLOAD SWAP1 POP SWAP1 POP CALLER PUSH1 0x6 PUSH1 0x0 DUP4 DUP2 MSTORE PUSH1 0x20 ADD SWAP1 DUP2 MSTORE PUSH1 0x20 ADD PUSH1 0x0 KECCAK256 PUSH1 0x0 PUSH2 0x100 EXP DUP2 SLOAD DUP2 PUSH20 0xFFFFFFFFFFFFFFFFFFFFFFFFFFFFFFFFFFFFFFFF MUL NOT AND SWAP1 DUP4 PUSH20 0xFFFFFFFFFFFFFFFFFFFFFFFFFFFFFFFFFFFFFFFF AND MUL OR SWAP1 SSTORE POP PUSH1 0x7 PUSH1 0x0 CALLER PUSH20 0xFFFFFFFFFFFFFFFFFFFFFFFFFFFFFFFFFFFFFFFF AND PUSH20 0xFFFFFFFFFFFFFFFFFFFFFFFFFFFFFFFFFFFFFFFF AND DUP2 MSTORE PUSH1 0x20 ADD SWAP1 DUP2 MSTORE PUSH1 0x20 ADD PUSH1 0x0 KECCAK256 PUSH1 0x0 DUP2 SLOAD DUP1 SWAP3 SWAP2 SWAP1 PUSH2 0x666 SWAP1 PUSH2 0x19AE JUMP JUMPDEST SWAP2 SWAP1 POP SSTORE POP PUSH1 0x2 PUSH1 0x0 DUP2 SLOAD DUP1 SWAP3 SWAP2 SWAP1 PUSH2 0x67E SWAP1 PUSH2 0x19AE JUMP JUMPDEST SWAP2 SWAP1 POP SSTORE POP PUSH1 0x1 PUSH1 0x2 SLOAD PUSH2 0x692 SWAP2 SWAP1 PUSH2 0x1889 JUMP JUMPDEST SWAP2 POP POP SWAP4 SWAP3 POP POP POP JUMP JUMPDEST PUSH1 0x60 PUSH1 0x4 SLOAD CALLVALUE EQ PUSH2 0x6AC JUMPI PUSH1 0x0 DUP1 REVERT JUMPDEST PUSH1 0x0 JUMPDEST PUSH1 0x5 DUP1 SLOAD SWAP1 POP DUP2 LT ISZERO PUSH2 0x7EA JUMPI DUP3 PUSH20 0xFFFFFFFFFFFFFFFFFFFFFFFFFFFFFFFFFFFFFFFF AND PUSH1 0x5 DUP3 DUP2 SLOAD DUP2 LT PUSH2 0x6E7 JUMPI PUSH2 0x6E6 PUSH2 0x1AEC JUMP JUMPDEST JUMPDEST SWAP1 PUSH1 0x0 MSTORE PUSH1 0x20 PUSH1 0x0 KECCAK256 SWAP1 PUSH1 0x8 MUL ADD PUSH1 0x0 ADD PUSH1 0x0 SWAP1 SLOAD SWAP1 PUSH2 0x100 EXP SWAP1 DIV PUSH20 0xFFFFFFFFFFFFFFFFFFFFFFFFFFFFFFFFFFFFFFFF AND PUSH20 0xFFFFFFFFFFFFFFFFFFFFFFFFFFFFFFFFFFFFFFFF AND EQ ISZERO PUSH2 0x7D7 JUMPI PUSH1 0x5 DUP2 DUP2 SLOAD DUP2 LT PUSH2 0x749 JUMPI PUSH2 0x748 PUSH2 0x1AEC JUMP JUMPDEST JUMPDEST SWAP1 PUSH1 0x0 MSTORE PUSH1 0x20 PUSH1 0x0 KECCAK256 SWAP1 PUSH1 0x8 MUL ADD PUSH1 0x7 ADD PUSH1 0x0 DUP2 DUP2 SWAP1 SLOAD SWAP1 PUSH2 0x100 EXP SWAP1 DIV PUSH4 0xFFFFFFFF AND DUP1 SWAP3 SWAP2 SWAP1 PUSH2 0x77A SWAP1 PUSH2 0x19F7 JUMP JUMPDEST SWAP2 SWAP1 PUSH2 0x100 EXP DUP2 SLOAD DUP2 PUSH4 0xFFFFFFFF MUL NOT AND SWAP1 DUP4 PUSH4 0xFFFFFFFF AND MUL OR SWAP1 SSTORE POP POP PUSH1 0x40 MLOAD DUP1 PUSH1 0x40 ADD PUSH1 0x40 MSTORE DUP1 PUSH1 0x12 DUP2 MSTORE PUSH1 0x20 ADD PUSH32 0x48612073756269646F206465206E6976656C0000000000000000000000000000 DUP2 MSTORE POP SWAP2 POP POP PUSH2 0x7EC JUMP JUMPDEST DUP1 DUP1 PUSH2 0x7E2 SWAP1 PUSH2 0x19AE JUMP JUMPDEST SWAP2 POP POP PUSH2 0x6AF JUMP JUMPDEST POP JUMPDEST SWAP2 SWAP1 POP JUMP JUMPDEST PUSH1 0x60 DUP2 CALLVALUE EQ PUSH2 0x7FF JUMPI PUSH1 0x0 DUP1 REVERT JUMPDEST PUSH1 0x1 PUSH1 0x0 DUP2 SLOAD DUP1 SWAP3 SWAP2 SWAP1 PUSH2 0x812 SWAP1 PUSH2 0x19AE JUMP JUMPDEST SWAP2 SWAP1 POP SSTORE POP PUSH1 0x0 PUSH1 0x5 DUP1 SLOAD SWAP1 POP TIMESTAMP PUSH1 0x5 DUP1 SLOAD SWAP1 POP PUSH1 0x1 SLOAD PUSH1 0x40 MLOAD PUSH1 0x20 ADD PUSH2 0x83B SWAP4 SWAP3 SWAP2 SWAP1 PUSH2 0x151B JUMP JUMPDEST PUSH1 0x40 MLOAD PUSH1 0x20 DUP2 DUP4 SUB SUB DUP2 MSTORE SWAP1 PUSH1 0x40 MSTORE DUP1 MLOAD SWAP1 PUSH1 0x20 ADD KECCAK256 PUSH1 0x0 SHR PUSH2 0x85E SWAP2 SWAP1 PUSH2 0x1A2E JUMP JUMPDEST SWAP1 POP PUSH1 0x1 PUSH1 0x0 DUP2 SLOAD DUP1 SWAP3 SWAP2 SWAP1 PUSH2 0x873 SWAP1 PUSH2 0x19AE JUMP JUMPDEST SWAP2 SWAP1 POP SSTORE POP PUSH1 0x0 PUSH1 0x2 SWAP1 POP PUSH1 0x0 DUP2 TIMESTAMP DUP4 PUSH1 0x1 SLOAD PUSH1 0x40 MLOAD PUSH1 0x20 ADD PUSH2 0x898 SWAP4 SWAP3 SWAP2 SWAP1 PUSH2 0x151B JUMP JUMPDEST PUSH1 0x40 MLOAD PUSH1 0x20 DUP2 DUP4 SUB SUB DUP2 MSTORE SWAP1 PUSH1 0x40 MSTORE DUP1 MLOAD SWAP1 PUSH1 0x20 ADD KECCAK256 PUSH1 0x0 SHR PUSH2 0x8BB SWAP2 SWAP1 PUSH2 0x1A2E JUMP JUMPDEST SWAP1 POP PUSH1 0x0 JUMPDEST PUSH1 0x5 DUP1 SLOAD SWAP1 POP DUP2 LT ISZERO PUSH2 0xA23 JUMPI PUSH1 0x5 DUP2 DUP2 SLOAD DUP2 LT PUSH2 0x8E1 JUMPI PUSH2 0x8E0 PUSH2 0x1AEC JUMP JUMPDEST JUMPDEST SWAP1 PUSH1 0x0 MSTORE PUSH1 0x20 PUSH1 0x0 KECCAK256 SWAP1 PUSH1 0x8 MUL ADD PUSH1 0x0 ADD PUSH1 0x0 SWAP1 SLOAD SWAP1 PUSH2 0x100 EXP SWAP1 DIV PUSH20 0xFFFFFFFFFFFFFFFFFFFFFFFFFFFFFFFFFFFFFFFF AND PUSH20 0xFFFFFFFFFFFFFFFFFFFFFFFFFFFFFFFFFFFFFFFF AND CALLER PUSH20 0xFFFFFFFFFFFFFFFFFFFFFFFFFFFFFFFFFFFFFFFF AND EQ ISZERO PUSH2 0xA10 JUMPI PUSH1 0x0 DUP3 EQ ISZERO PUSH2 0x998 JUMPI PUSH2 0x957 PUSH2 0xFD5 JUMP JUMPDEST PUSH1 0x40 MLOAD DUP1 PUSH1 0x40 ADD PUSH1 0x40 MSTORE DUP1 PUSH1 0xA DUP2 MSTORE PUSH1 0x20 ADD PUSH32 0x4861732067616E61646F00000000000000000000000000000000000000000000 DUP2 MSTORE POP SWAP5 POP POP POP POP POP PUSH2 0xA28 JUMP JUMPDEST PUSH32 0xA28482EEC3136A2461C6C30C08F71BA279C6C51A2D9C7BEA4E50D6D2632F3896 DUP5 PUSH1 0x40 MLOAD PUSH2 0x9C7 SWAP2 SWAP1 PUSH2 0x1709 JUMP JUMPDEST PUSH1 0x40 MLOAD DUP1 SWAP2 SUB SWAP1 LOG1 PUSH1 0x40 MLOAD DUP1 PUSH1 0x40 ADD PUSH1 0x40 MSTORE DUP1 PUSH1 0xB DUP2 MSTORE PUSH1 0x20 ADD PUSH32 0x486173207065726469646F000000000000000000000000000000000000000000 DUP2 MSTORE POP SWAP5 POP POP POP POP POP PUSH2 0xA28 JUMP JUMPDEST DUP1 DUP1 PUSH2 0xA1B SWAP1 PUSH2 0x19AE JUMP JUMPDEST SWAP2 POP POP PUSH2 0x8C0 JUMP JUMPDEST POP POP POP POP JUMPDEST SWAP2 SWAP1 POP JUMP JUMPDEST PUSH2 0xA35 PUSH2 0xFCD JUMP JUMPDEST PUSH20 0xFFFFFFFFFFFFFFFFFFFFFFFFFFFFFFFFFFFFFFFF AND PUSH2 0xA53 PUSH2 0xAE8 JUMP JUMPDEST PUSH20 0xFFFFFFFFFFFFFFFFFFFFFFFFFFFFFFFFFFFFFFFF AND EQ PUSH2 0xAA9 JUMPI PUSH1 0x40 MLOAD PUSH32 0x8C379A000000000000000000000000000000000000000000000000000000000 DUP2 MSTORE PUSH1 0x4 ADD PUSH2 0xAA0 SWAP1 PUSH2 0x16E9 JUMP JUMPDEST PUSH1 0x40 MLOAD DUP1 SWAP2 SUB SWAP1 REVERT JUMPDEST PUSH2 0xAB3 PUSH1 0x0 PUSH2 0x106D JUMP JUMPDEST JUMP JUMPDEST PUSH1 0x6 PUSH1 0x20 MSTORE DUP1 PUSH1 0x0 MSTORE PUSH1 0x40 PUSH1 0x0 KECCAK256 PUSH1 0x0 SWAP2 POP SLOAD SWAP1 PUSH2 0x100 EXP SWAP1 DIV PUSH20 0xFFFFFFFFFFFFFFFFFFFFFFFFFFFFFFFFFFFFFFFF AND DUP2 JUMP JUMPDEST PUSH1 0x0 DUP1 PUSH1 0x0 SWAP1 SLOAD SWAP1 PUSH2 0x100 EXP SWAP1 DIV PUSH20 0xFFFFFFFFFFFFFFFFFFFFFFFFFFFFFFFFFFFFFFFF AND SWAP1 POP SWAP1 JUMP JUMPDEST PUSH1 0x0 DUP1 SLOAD SWAP1 PUSH2 0x100 EXP SWAP1 DIV PUSH20 0xFFFFFFFFFFFFFFFFFFFFFFFFFFFFFFFFFFFFFFFF AND DUP2 JUMP JUMPDEST PUSH1 0x5 DUP2 DUP2 SLOAD DUP2 LT PUSH2 0xB45 JUMPI PUSH1 0x0 DUP1 REVERT JUMPDEST SWAP1 PUSH1 0x0 MSTORE PUSH1 0x20 PUSH1 0x0 KECCAK256 SWAP1 PUSH1 0x8 MUL ADD PUSH1 0x0 SWAP2 POP SWAP1 POP DUP1 PUSH1 0x0 ADD PUSH1 0x0 SWAP1 SLOAD SWAP1 PUSH2 0x100 EXP SWAP1 DIV PUSH20 0xFFFFFFFFFFFFFFFFFFFFFFFFFFFFFFFFFFFFFFFF AND SWAP1 DUP1 PUSH1 0x1 ADD DUP1 SLOAD PUSH2 0xB8E SWAP1 PUSH2 0x194B JUMP JUMPDEST DUP1 PUSH1 0x1F ADD PUSH1 0x20 DUP1 SWAP2 DIV MUL PUSH1 0x20 ADD PUSH1 0x40 MLOAD SWAP1 DUP2 ADD PUSH1 0x40 MSTORE DUP1 SWAP3 SWAP2 SWAP1 DUP2 DUP2 MSTORE PUSH1 0x20 ADD DUP3 DUP1 SLOAD PUSH2 0xBBA SWAP1 PUSH2 0x194B JUMP JUMPDEST DUP1 ISZERO PUSH2 0xC07 JUMPI DUP1 PUSH1 0x1F LT PUSH2 0xBDC JUMPI PUSH2 0x100 DUP1 DUP4 SLOAD DIV MUL DUP4 MSTORE SWAP2 PUSH1 0x20 ADD SWAP2 PUSH2 0xC07 JUMP JUMPDEST DUP3 ADD SWAP2 SWAP1 PUSH1 0x0 MSTORE PUSH1 0x20 PUSH1 0x0 KECCAK256 SWAP1 JUMPDEST DUP2 SLOAD DUP2 MSTORE SWAP1 PUSH1 0x1 ADD SWAP1 PUSH1 0x20 ADD DUP1 DUP4 GT PUSH2 0xBEA JUMPI DUP3 SWAP1 SUB PUSH1 0x1F AND DUP3 ADD SWAP2 JUMPDEST POP POP POP POP POP SWAP1 DUP1 PUSH1 0x2 ADD DUP1 SLOAD PUSH2 0xC1C SWAP1 PUSH2 0x194B JUMP JUMPDEST DUP1 PUSH1 0x1F ADD PUSH1 0x20 DUP1 SWAP2 DIV MUL PUSH1 0x20 ADD PUSH1 0x40 MLOAD SWAP1 DUP2 ADD PUSH1 0x40 MSTORE DUP1 SWAP3 SWAP2 SWAP1 DUP2 DUP2 MSTORE PUSH1 0x20 ADD DUP3 DUP1 SLOAD PUSH2 0xC48 SWAP1 PUSH2 0x194B JUMP JUMPDEST DUP1 ISZERO PUSH2 0xC95 JUMPI DUP1 PUSH1 0x1F LT PUSH2 0xC6A JUMPI PUSH2 0x100 DUP1 DUP4 SLOAD DIV MUL DUP4 MSTORE SWAP2 PUSH1 0x20 ADD SWAP2 PUSH2 0xC95 JUMP JUMPDEST DUP3 ADD SWAP2 SWAP1 PUSH1 0x0 MSTORE PUSH1 0x20 PUSH1 0x0 KECCAK256 SWAP1 JUMPDEST DUP2 SLOAD DUP2 MSTORE SWAP1 PUSH1 0x1 ADD SWAP1 PUSH1 0x20 ADD DUP1 DUP4 GT PUSH2 0xC78 JUMPI DUP3 SWAP1 SUB PUSH1 0x1F AND DUP3 ADD SWAP2 JUMPDEST POP POP POP POP POP SWAP1 DUP1 PUSH1 0x3 ADD DUP1 SLOAD PUSH2 0xCAA SWAP1 PUSH2 0x194B JUMP JUMPDEST DUP1 PUSH1 0x1F ADD PUSH1 0x20 DUP1 SWAP2 DIV MUL PUSH1 0x20 ADD PUSH1 0x40 MLOAD SWAP1 DUP2 ADD PUSH1 0x40 MSTORE DUP1 SWAP3 SWAP2 SWAP1 DUP2 DUP2 MSTORE PUSH1 0x20 ADD DUP3 DUP1 SLOAD PUSH2 0xCD6 SWAP1 PUSH2 0x194B JUMP JUMPDEST DUP1 ISZERO PUSH2 0xD23 JUMPI DUP1 PUSH1 0x1F LT PUSH2 0xCF8 JUMPI PUSH2 0x100 DUP1 DUP4 SLOAD DIV MUL DUP4 MSTORE SWAP2 PUSH1 0x20 ADD SWAP2 PUSH2 0xD23 JUMP JUMPDEST DUP3 ADD SWAP2 SWAP1 PUSH1 0x0 MSTORE PUSH1 0x20 PUSH1 0x0 KECCAK256 SWAP1 JUMPDEST DUP2 SLOAD DUP2 MSTORE SWAP1 PUSH1 0x1 ADD SWAP1 PUSH1 0x20 ADD DUP1 DUP4 GT PUSH2 0xD06 JUMPI DUP3 SWAP1 SUB PUSH1 0x1F AND DUP3 ADD SWAP2 JUMPDEST POP POP POP POP POP SWAP1 DUP1 PUSH1 0x4 ADD SLOAD SWAP1 DUP1 PUSH1 0x5 ADD SLOAD SWAP1 DUP1 PUSH1 0x6 ADD SLOAD SWAP1 DUP1 PUSH1 0x7 ADD PUSH1 0x0 SWAP1 SLOAD SWAP1 PUSH2 0x100 EXP SWAP1 DIV PUSH4 0xFFFFFFFF AND SWAP1 POP DUP9 JUMP JUMPDEST PUSH1 0x0 JUMPDEST PUSH1 0x5 DUP1 SLOAD SWAP1 POP DUP2 LT ISZERO PUSH2 0xED1 JUMPI DUP2 PUSH20 0xFFFFFFFFFFFFFFFFFFFFFFFFFFFFFFFFFFFFFFFF AND PUSH1 0x5 DUP3 DUP2 SLOAD DUP2 LT PUSH2 0xD90 JUMPI PUSH2 0xD8F PUSH2 0x1AEC JUMP JUMPDEST JUMPDEST SWAP1 PUSH1 0x0 MSTORE PUSH1 0x20 PUSH1 0x0 KECCAK256 SWAP1 PUSH1 0x8 MUL ADD PUSH1 0x0 ADD PUSH1 0x0 SWAP1 SLOAD SWAP1 PUSH2 0x100 EXP SWAP1 DIV PUSH20 0xFFFFFFFFFFFFFFFFFFFFFFFFFFFFFFFFFFFFFFFF AND PUSH20 0xFFFFFFFFFFFFFFFFFFFFFFFFFFFFFFFFFFFFFFFF AND EQ ISZERO PUSH2 0xEBE JUMPI PUSH32 0x18C2885DBBFFC4E127DA047B869295B42D8D5EE97848F7F117B062E88F34A9E6 PUSH1 0x5 DUP3 DUP2 SLOAD DUP2 LT PUSH2 0xE13 JUMPI PUSH2 0xE12 PUSH2 0x1AEC JUMP JUMPDEST JUMPDEST SWAP1 PUSH1 0x0 MSTORE PUSH1 0x20 PUSH1 0x0 KECCAK256 SWAP1 PUSH1 0x8 MUL ADD PUSH1 0x2 ADD PUSH1 0x5 DUP4 DUP2 SLOAD DUP2 LT PUSH2 0xE38 JUMPI PUSH2 0xE37 PUSH2 0x1AEC JUMP JUMPDEST JUMPDEST SWAP1 PUSH1 0x0 MSTORE PUSH1 0x20 PUSH1 0x0 KECCAK256 SWAP1 PUSH1 0x8 MUL ADD PUSH1 0x1 ADD PUSH1 0x5 DUP5 DUP2 SLOAD DUP2 LT PUSH2 0xE5D JUMPI PUSH2 0xE5C PUSH2 0x1AEC JUMP JUMPDEST JUMPDEST SWAP1 PUSH1 0x0 MSTORE PUSH1 0x20 PUSH1 0x0 KECCAK256 SWAP1 PUSH1 0x8 MUL ADD PUSH1 0x7 ADD PUSH1 0x0 SWAP1 SLOAD SWAP1 PUSH2 0x100 EXP SWAP1 DIV PUSH4 0xFFFFFFFF AND PUSH1 0x5 DUP6 DUP2 SLOAD DUP2 LT PUSH2 0xE93 JUMPI PUSH2 0xE92 PUSH2 0x1AEC JUMP JUMPDEST JUMPDEST SWAP1 PUSH1 0x0 MSTORE PUSH1 0x20 PUSH1 0x0 KECCAK256 SWAP1 PUSH1 0x8 MUL ADD PUSH1 0x4 ADD SLOAD PUSH1 0x40 MLOAD PUSH2 0xEB5 SWAP5 SWAP4 SWAP3 SWAP2 SWAP1 PUSH2 0x1628 JUMP JUMPDEST PUSH1 0x40 MLOAD DUP1 SWAP2 SUB SWAP1 LOG1 JUMPDEST DUP1 DUP1 PUSH2 0xEC9 SWAP1 PUSH2 0x19AE JUMP JUMPDEST SWAP2 POP POP PUSH2 0xD58 JUMP JUMPDEST POP POP JUMP JUMPDEST PUSH2 0xEDD PUSH2 0xFCD JUMP JUMPDEST PUSH20 0xFFFFFFFFFFFFFFFFFFFFFFFFFFFFFFFFFFFFFFFF AND PUSH2 0xEFB PUSH2 0xAE8 JUMP JUMPDEST PUSH20 0xFFFFFFFFFFFFFFFFFFFFFFFFFFFFFFFFFFFFFFFF AND EQ PUSH2 0xF51 JUMPI PUSH1 0x40 MLOAD PUSH32 0x8C379A000000000000000000000000000000000000000000000000000000000 DUP2 MSTORE PUSH1 0x4 ADD PUSH2 0xF48 SWAP1 PUSH2 0x16E9 JUMP JUMPDEST PUSH1 0x40 MLOAD DUP1 SWAP2 SUB SWAP1 REVERT JUMPDEST PUSH1 0x0 PUSH20 0xFFFFFFFFFFFFFFFFFFFFFFFFFFFFFFFFFFFFFFFF AND DUP2 PUSH20 0xFFFFFFFFFFFFFFFFFFFFFFFFFFFFFFFFFFFFFFFF AND EQ ISZERO PUSH2 0xFC1 JUMPI PUSH1 0x40 MLOAD PUSH32 0x8C379A000000000000000000000000000000000000000000000000000000000 DUP2 MSTORE PUSH1 0x4 ADD PUSH2 0xFB8 SWAP1 PUSH2 0x169B JUMP JUMPDEST PUSH1 0x40 MLOAD DUP1 SWAP2 SUB SWAP1 REVERT JUMPDEST PUSH2 0xFCA DUP2 PUSH2 0x106D JUMP JUMPDEST POP JUMP JUMPDEST PUSH1 0x0 CALLER SWAP1 POP SWAP1 JUMP JUMPDEST CALLER PUSH20 0xFFFFFFFFFFFFFFFFFFFFFFFFFFFFFFFFFFFFFFFF AND PUSH2 0x8FC PUSH1 0x2 SELFBALANCE PUSH2 0xFFC SWAP2 SWAP1 PUSH2 0x182F JUMP JUMPDEST SWAP1 DUP2 ISZERO MUL SWAP1 PUSH1 0x40 MLOAD PUSH1 0x0 PUSH1 0x40 MLOAD DUP1 DUP4 SUB DUP2 DUP6 DUP9 DUP9 CALL SWAP4 POP POP POP POP ISZERO DUP1 ISZERO PUSH2 0x1027 JUMPI RETURNDATASIZE PUSH1 0x0 DUP1 RETURNDATACOPY RETURNDATASIZE PUSH1 0x0 REVERT JUMPDEST POP PUSH32 0xA28482EEC3136A2461C6C30C08F71BA279C6C51A2D9C7BEA4E50D6D2632F3896 PUSH1 0x2 SELFBALANCE PUSH2 0x1056 SWAP2 SWAP1 PUSH2 0x182F JUMP JUMPDEST PUSH1 0x40 MLOAD PUSH2 0x1063 SWAP2 SWAP1 PUSH2 0x16BB JUMP JUMPDEST PUSH1 0x40 MLOAD DUP1 SWAP2 SUB SWAP1 LOG1 JUMP JUMPDEST PUSH1 0x0 DUP1 PUSH1 0x0 SWAP1 SLOAD SWAP1 PUSH2 0x100 EXP SWAP1 DIV PUSH20 0xFFFFFFFFFFFFFFFFFFFFFFFFFFFFFFFFFFFFFFFF AND SWAP1 POP DUP2 PUSH1 0x0 DUP1 PUSH2 0x100 EXP DUP2 SLOAD DUP2 PUSH20 0xFFFFFFFFFFFFFFFFFFFFFFFFFFFFFFFFFFFFFFFF MUL NOT AND SWAP1 DUP4 PUSH20 0xFFFFFFFFFFFFFFFFFFFFFFFFFFFFFFFFFFFFFFFF AND MUL OR SWAP1 SSTORE POP DUP2 PUSH20 0xFFFFFFFFFFFFFFFFFFFFFFFFFFFFFFFFFFFFFFFF AND DUP2 PUSH20 0xFFFFFFFFFFFFFFFFFFFFFFFFFFFFFFFFFFFFFFFF AND PUSH32 0x8BE0079C531659141344CD1FD0A4F28419497F9722A3DAAFE3B4186F6B6457E0 PUSH1 0x40 MLOAD PUSH1 0x40 MLOAD DUP1 SWAP2 SUB SWAP1 LOG3 POP POP JUMP JUMPDEST DUP3 DUP1 SLOAD PUSH2 0x113D SWAP1 PUSH2 0x194B JUMP JUMPDEST SWAP1 PUSH1 0x0 MSTORE PUSH1 0x20 PUSH1 0x0 KECCAK256 SWAP1 PUSH1 0x1F ADD PUSH1 0x20 SWAP1 DIV DUP2 ADD SWAP3 DUP3 PUSH2 0x115F JUMPI PUSH1 0x0 DUP6 SSTORE PUSH2 0x11A6 JUMP JUMPDEST DUP3 PUSH1 0x1F LT PUSH2 0x1178 JUMPI DUP1 MLOAD PUSH1 0xFF NOT AND DUP4 DUP1 ADD OR DUP6 SSTORE PUSH2 0x11A6 JUMP JUMPDEST DUP3 DUP1 ADD PUSH1 0x1 ADD DUP6 SSTORE DUP3 ISZERO PUSH2 0x11A6 JUMPI SWAP2 DUP3 ADD JUMPDEST DUP3 DUP2 GT ISZERO PUSH2 0x11A5 JUMPI DUP3 MLOAD DUP3 SSTORE SWAP2 PUSH1 0x20 ADD SWAP2 SWAP1 PUSH1 0x1 ADD SWAP1 PUSH2 0x118A JUMP JUMPDEST JUMPDEST POP SWAP1 POP PUSH2 0x11B3 SWAP2 SWAP1 PUSH2 0x11B7 JUMP JUMPDEST POP SWAP1 JUMP JUMPDEST JUMPDEST DUP1 DUP3 GT ISZERO PUSH2 0x11D0 JUMPI PUSH1 0x0 DUP2 PUSH1 0x0 SWAP1 SSTORE POP PUSH1 0x1 ADD PUSH2 0x11B8 JUMP JUMPDEST POP SWAP1 JUMP JUMPDEST PUSH1 0x0 PUSH2 0x11E7 PUSH2 0x11E2 DUP5 PUSH2 0x1777 JUMP JUMPDEST PUSH2 0x1752 JUMP JUMPDEST SWAP1 POP DUP3 DUP2 MSTORE PUSH1 0x20 DUP2 ADD DUP5 DUP5 DUP5 ADD GT ISZERO PUSH2 0x1203 JUMPI PUSH2 0x1202 PUSH2 0x1B4F JUMP JUMPDEST JUMPDEST PUSH2 0x120E DUP5 DUP3 DUP6 PUSH2 0x1909 JUMP JUMPDEST POP SWAP4 SWAP3 POP POP POP JUMP JUMPDEST PUSH1 0x0 DUP2 CALLDATALOAD SWAP1 POP PUSH2 0x1225 DUP2 PUSH2 0x1C88 JUMP JUMPDEST SWAP3 SWAP2 POP POP JUMP JUMPDEST PUSH1 0x0 DUP3 PUSH1 0x1F DUP4 ADD SLT PUSH2 0x1240 JUMPI PUSH2 0x123F PUSH2 0x1B4A JUMP JUMPDEST JUMPDEST DUP2 CALLDATALOAD PUSH2 0x1250 DUP5 DUP3 PUSH1 0x20 DUP7 ADD PUSH2 0x11D4 JUMP JUMPDEST SWAP2 POP POP SWAP3 SWAP2 POP POP JUMP JUMPDEST PUSH1 0x0 DUP2 CALLDATALOAD SWAP1 POP PUSH2 0x1268 DUP2 PUSH2 0x1C9F JUMP JUMPDEST SWAP3 SWAP2 POP POP JUMP JUMPDEST PUSH1 0x0 PUSH1 0x20 DUP3 DUP5 SUB SLT ISZERO PUSH2 0x1284 JUMPI PUSH2 0x1283 PUSH2 0x1B59 JUMP JUMPDEST JUMPDEST PUSH1 0x0 PUSH2 0x1292 DUP5 DUP3 DUP6 ADD PUSH2 0x1216 JUMP JUMPDEST SWAP2 POP POP SWAP3 SWAP2 POP POP JUMP JUMPDEST PUSH1 0x0 DUP1 PUSH1 0x0 PUSH1 0x60 DUP5 DUP7 SUB SLT ISZERO PUSH2 0x12B4 JUMPI PUSH2 0x12B3 PUSH2 0x1B59 JUMP JUMPDEST JUMPDEST PUSH1 0x0 DUP5 ADD CALLDATALOAD PUSH8 0xFFFFFFFFFFFFFFFF DUP2 GT ISZERO PUSH2 0x12D2 JUMPI PUSH2 0x12D1 PUSH2 0x1B54 JUMP JUMPDEST JUMPDEST PUSH2 0x12DE DUP7 DUP3 DUP8 ADD PUSH2 0x122B JUMP JUMPDEST SWAP4 POP POP PUSH1 0x20 DUP5 ADD CALLDATALOAD PUSH8 0xFFFFFFFFFFFFFFFF DUP2 GT ISZERO PUSH2 0x12FF JUMPI PUSH2 0x12FE PUSH2 0x1B54 JUMP JUMPDEST JUMPDEST PUSH2 0x130B DUP7 DUP3 DUP8 ADD PUSH2 0x122B JUMP JUMPDEST SWAP3 POP POP PUSH1 0x40 DUP5 ADD CALLDATALOAD PUSH8 0xFFFFFFFFFFFFFFFF DUP2 GT ISZERO PUSH2 0x132C JUMPI PUSH2 0x132B PUSH2 0x1B54 JUMP JUMPDEST JUMPDEST PUSH2 0x1338 DUP7 DUP3 DUP8 ADD PUSH2 0x122B JUMP JUMPDEST SWAP2 POP POP SWAP3 POP SWAP3 POP SWAP3 JUMP JUMPDEST PUSH1 0x0 PUSH1 0x20 DUP3 DUP5 SUB SLT ISZERO PUSH2 0x1358 JUMPI PUSH2 0x1357 PUSH2 0x1B59 JUMP JUMPDEST JUMPDEST PUSH1 0x0 PUSH2 0x1366 DUP5 DUP3 DUP6 ADD PUSH2 0x1259 JUMP JUMPDEST SWAP2 POP POP SWAP3 SWAP2 POP POP JUMP JUMPDEST PUSH2 0x1378 DUP2 PUSH2 0x18BD JUMP JUMPDEST DUP3 MSTORE POP POP JUMP JUMPDEST PUSH1 0x0 PUSH2 0x1389 DUP3 PUSH2 0x17BD JUMP JUMPDEST PUSH2 0x1393 DUP2 DUP6 PUSH2 0x17C8 JUMP JUMPDEST SWAP4 POP PUSH2 0x13A3 DUP2 DUP6 PUSH1 0x20 DUP7 ADD PUSH2 0x1918 JUMP JUMPDEST PUSH2 0x13AC DUP2 PUSH2 0x1B5E JUMP JUMPDEST DUP5 ADD SWAP2 POP POP SWAP3 SWAP2 POP POP JUMP JUMPDEST PUSH1 0x0 DUP2 SLOAD PUSH2 0x13C4 DUP2 PUSH2 0x194B JUMP JUMPDEST PUSH2 0x13CE DUP2 DUP7 PUSH2 0x17C8 JUMP JUMPDEST SWAP5 POP PUSH1 0x1 DUP3 AND PUSH1 0x0 DUP2 EQ PUSH2 0x13E9 JUMPI PUSH1 0x1 DUP2 EQ PUSH2 0x13FB JUMPI PUSH2 0x142E JUMP JUMPDEST PUSH1 0xFF NOT DUP4 AND DUP7 MSTORE PUSH1 0x20 DUP7 ADD SWAP4 POP PUSH2 0x142E JUMP JUMPDEST PUSH2 0x1404 DUP6 PUSH2 0x17A8 JUMP JUMPDEST PUSH1 0x0 JUMPDEST DUP4 DUP2 LT ISZERO PUSH2 0x1426 JUMPI DUP2 SLOAD DUP2 DUP10 ADD MSTORE PUSH1 0x1 DUP3 ADD SWAP2 POP PUSH1 0x20 DUP2 ADD SWAP1 POP PUSH2 0x1407 JUMP JUMPDEST DUP1 DUP9 ADD SWAP6 POP POP POP JUMPDEST POP POP POP SWAP3 SWAP2 POP POP JUMP JUMPDEST PUSH1 0x0 PUSH2 0x1444 PUSH1 0x28 DUP4 PUSH2 0x17C8 JUMP JUMPDEST SWAP2 POP PUSH2 0x144F DUP3 PUSH2 0x1B6F JUMP JUMPDEST PUSH1 0x40 DUP3 ADD SWAP1 POP SWAP2 SWAP1 POP JUMP JUMPDEST PUSH1 0x0 PUSH2 0x1467 PUSH1 0x26 DUP4 PUSH2 0x17C8 JUMP JUMPDEST SWAP2 POP PUSH2 0x1472 DUP3 PUSH2 0x1BBE JUMP JUMPDEST PUSH1 0x40 DUP3 ADD SWAP1 POP SWAP2 SWAP1 POP JUMP JUMPDEST PUSH1 0x0 PUSH2 0x148A PUSH1 0xC DUP4 PUSH2 0x17C8 JUMP JUMPDEST SWAP2 POP PUSH2 0x1495 DUP3 PUSH2 0x1C0D JUMP JUMPDEST PUSH1 0x20 DUP3 ADD SWAP1 POP SWAP2 SWAP1 POP JUMP JUMPDEST PUSH1 0x0 PUSH2 0x14AD PUSH1 0x20 DUP4 PUSH2 0x17C8 JUMP JUMPDEST SWAP2 POP PUSH2 0x14B8 DUP3 PUSH2 0x1C36 JUMP JUMPDEST PUSH1 0x20 DUP3 ADD SWAP1 POP SWAP2 SWAP1 POP JUMP JUMPDEST PUSH1 0x0 PUSH2 0x14D0 PUSH1 0x15 DUP4 PUSH2 0x17C8 JUMP JUMPDEST SWAP2 POP PUSH2 0x14DB DUP3 PUSH2 0x1C5F JUMP JUMPDEST PUSH1 0x20 DUP3 ADD SWAP1 POP SWAP2 SWAP1 POP JUMP JUMPDEST PUSH2 0x14EF DUP2 PUSH2 0x18EF JUMP JUMPDEST DUP3 MSTORE POP POP JUMP JUMPDEST PUSH2 0x1506 PUSH2 0x1501 DUP3 PUSH2 0x18EF JUMP JUMPDEST PUSH2 0x1A24 JUMP JUMPDEST DUP3 MSTORE POP POP JUMP JUMPDEST PUSH2 0x1515 DUP2 PUSH2 0x18F9 JUMP JUMPDEST DUP3 MSTORE POP POP JUMP JUMPDEST PUSH1 0x0 PUSH2 0x1527 DUP3 DUP7 PUSH2 0x14F5 JUMP JUMPDEST PUSH1 0x20 DUP3 ADD SWAP2 POP PUSH2 0x1537 DUP3 DUP6 PUSH2 0x14F5 JUMP JUMPDEST PUSH1 0x20 DUP3 ADD SWAP2 POP PUSH2 0x1547 DUP3 DUP5 PUSH2 0x14F5 JUMP JUMPDEST PUSH1 0x20 DUP3 ADD SWAP2 POP DUP2 SWAP1 POP SWAP5 SWAP4 POP POP POP POP JUMP JUMPDEST PUSH1 0x0 PUSH1 0x20 DUP3 ADD SWAP1 POP PUSH2 0x156D PUSH1 0x0 DUP4 ADD DUP5 PUSH2 0x136F JUMP JUMPDEST SWAP3 SWAP2 POP POP JUMP JUMPDEST PUSH1 0x0 PUSH2 0x100 DUP3 ADD SWAP1 POP PUSH2 0x1589 PUSH1 0x0 DUP4 ADD DUP12 PUSH2 0x136F JUMP JUMPDEST DUP2 DUP2 SUB PUSH1 0x20 DUP4 ADD MSTORE PUSH2 0x159B DUP2 DUP11 PUSH2 0x137E JUMP JUMPDEST SWAP1 POP DUP2 DUP2 SUB PUSH1 0x40 DUP4 ADD MSTORE PUSH2 0x15AF DUP2 DUP10 PUSH2 0x137E JUMP JUMPDEST SWAP1 POP DUP2 DUP2 SUB PUSH1 0x60 DUP4 ADD MSTORE PUSH2 0x15C3 DUP2 DUP9 PUSH2 0x137E JUMP JUMPDEST SWAP1 POP PUSH2 0x15D2 PUSH1 0x80 DUP4 ADD DUP8 PUSH2 0x14E6 JUMP JUMPDEST PUSH2 0x15DF PUSH1 0xA0 DUP4 ADD DUP7 PUSH2 0x14E6 JUMP JUMPDEST PUSH2 0x15EC PUSH1 0xC0 DUP4 ADD DUP6 PUSH2 0x14E6 JUMP JUMPDEST PUSH2 0x15F9 PUSH1 0xE0 DUP4 ADD DUP5 PUSH2 0x150C JUMP JUMPDEST SWAP10 SWAP9 POP POP POP POP POP POP POP POP POP JUMP JUMPDEST PUSH1 0x0 PUSH1 0x20 DUP3 ADD SWAP1 POP DUP2 DUP2 SUB PUSH1 0x0 DUP4 ADD MSTORE PUSH2 0x1620 DUP2 DUP5 PUSH2 0x137E JUMP JUMPDEST SWAP1 POP SWAP3 SWAP2 POP POP JUMP JUMPDEST PUSH1 0x0 PUSH1 0x80 DUP3 ADD SWAP1 POP DUP2 DUP2 SUB PUSH1 0x0 DUP4 ADD MSTORE PUSH2 0x1642 DUP2 DUP8 PUSH2 0x13B7 JUMP JUMPDEST SWAP1 POP DUP2 DUP2 SUB PUSH1 0x20 DUP4 ADD MSTORE PUSH2 0x1656 DUP2 DUP7 PUSH2 0x13B7 JUMP JUMPDEST SWAP1 POP PUSH2 0x1665 PUSH1 0x40 DUP4 ADD DUP6 PUSH2 0x150C JUMP JUMPDEST PUSH2 0x1672 PUSH1 0x60 DUP4 ADD DUP5 PUSH2 0x14E6 JUMP JUMPDEST SWAP6 SWAP5 POP POP POP POP POP JUMP JUMPDEST PUSH1 0x0 PUSH1 0x20 DUP3 ADD SWAP1 POP DUP2 DUP2 SUB PUSH1 0x0 DUP4 ADD MSTORE PUSH2 0x1694 DUP2 PUSH2 0x1437 JUMP JUMPDEST SWAP1 POP SWAP2 SWAP1 POP JUMP JUMPDEST PUSH1 0x0 PUSH1 0x20 DUP3 ADD SWAP1 POP DUP2 DUP2 SUB PUSH1 0x0 DUP4 ADD MSTORE PUSH2 0x16B4 DUP2 PUSH2 0x145A JUMP JUMPDEST SWAP1 POP SWAP2 SWAP1 POP JUMP JUMPDEST PUSH1 0x0 PUSH1 0x40 DUP3 ADD SWAP1 POP DUP2 DUP2 SUB PUSH1 0x0 DUP4 ADD MSTORE PUSH2 0x16D4 DUP2 PUSH2 0x147D JUMP JUMPDEST SWAP1 POP PUSH2 0x16E3 PUSH1 0x20 DUP4 ADD DUP5 PUSH2 0x14E6 JUMP JUMPDEST SWAP3 SWAP2 POP POP JUMP JUMPDEST PUSH1 0x0 PUSH1 0x20 DUP3 ADD SWAP1 POP DUP2 DUP2 SUB PUSH1 0x0 DUP4 ADD MSTORE PUSH2 0x1702 DUP2 PUSH2 0x14A0 JUMP JUMPDEST SWAP1 POP SWAP2 SWAP1 POP JUMP JUMPDEST PUSH1 0x0 PUSH1 0x40 DUP3 ADD SWAP1 POP DUP2 DUP2 SUB PUSH1 0x0 DUP4 ADD MSTORE PUSH2 0x1722 DUP2 PUSH2 0x14C3 JUMP JUMPDEST SWAP1 POP PUSH2 0x1731 PUSH1 0x20 DUP4 ADD DUP5 PUSH2 0x14E6 JUMP JUMPDEST SWAP3 SWAP2 POP POP JUMP JUMPDEST PUSH1 0x0 PUSH1 0x20 DUP3 ADD SWAP1 POP PUSH2 0x174C PUSH1 0x0 DUP4 ADD DUP5 PUSH2 0x14E6 JUMP JUMPDEST SWAP3 SWAP2 POP POP JUMP JUMPDEST PUSH1 0x0 PUSH2 0x175C PUSH2 0x176D JUMP JUMPDEST SWAP1 POP PUSH2 0x1768 DUP3 DUP3 PUSH2 0x197D JUMP JUMPDEST SWAP2 SWAP1 POP JUMP JUMPDEST PUSH1 0x0 PUSH1 0x40 MLOAD SWAP1 POP SWAP1 JUMP JUMPDEST PUSH1 0x0 PUSH8 0xFFFFFFFFFFFFFFFF DUP3 GT ISZERO PUSH2 0x1792 JUMPI PUSH2 0x1791 PUSH2 0x1B1B JUMP JUMPDEST JUMPDEST PUSH2 0x179B DUP3 PUSH2 0x1B5E JUMP JUMPDEST SWAP1 POP PUSH1 0x20 DUP2 ADD SWAP1 POP SWAP2 SWAP1 POP JUMP JUMPDEST PUSH1 0x0 DUP2 SWAP1 POP DUP2 PUSH1 0x0 MSTORE PUSH1 0x20 PUSH1 0x0 KECCAK256 SWAP1 POP SWAP2 SWAP1 POP JUMP JUMPDEST PUSH1 0x0 DUP2 MLOAD SWAP1 POP SWAP2 SWAP1 POP JUMP JUMPDEST PUSH1 0x0 DUP3 DUP3 MSTORE PUSH1 0x20 DUP3 ADD SWAP1 POP SWAP3 SWAP2 POP POP JUMP JUMPDEST PUSH1 0x0 PUSH2 0x17E4 DUP3 PUSH2 0x18EF JUMP JUMPDEST SWAP2 POP PUSH2 0x17EF DUP4 PUSH2 0x18EF JUMP JUMPDEST SWAP3 POP DUP3 PUSH32 0xFFFFFFFFFFFFFFFFFFFFFFFFFFFFFFFFFFFFFFFFFFFFFFFFFFFFFFFFFFFFFFFF SUB DUP3 GT ISZERO PUSH2 0x1824 JUMPI PUSH2 0x1823 PUSH2 0x1A5F JUMP JUMPDEST JUMPDEST DUP3 DUP3 ADD SWAP1 POP SWAP3 SWAP2 POP POP JUMP JUMPDEST PUSH1 0x0 PUSH2 0x183A DUP3 PUSH2 0x18EF JUMP JUMPDEST SWAP2 POP PUSH2 0x1845 DUP4 PUSH2 0x18EF JUMP JUMPDEST SWAP3 POP DUP2 PUSH32 0xFFFFFFFFFFFFFFFFFFFFFFFFFFFFFFFFFFFFFFFFFFFFFFFFFFFFFFFFFFFFFFFF DIV DUP4 GT DUP3 ISZERO ISZERO AND ISZERO PUSH2 0x187E JUMPI PUSH2 0x187D PUSH2 0x1A5F JUMP JUMPDEST JUMPDEST DUP3 DUP3 MUL SWAP1 POP SWAP3 SWAP2 POP POP JUMP JUMPDEST PUSH1 0x0 PUSH2 0x1894 DUP3 PUSH2 0x18EF JUMP JUMPDEST SWAP2 POP PUSH2 0x189F DUP4 PUSH2 0x18EF JUMP JUMPDEST SWAP3 POP DUP3 DUP3 LT ISZERO PUSH2 0x18B2 JUMPI PUSH2 0x18B1 PUSH2 0x1A5F JUMP JUMPDEST JUMPDEST DUP3 DUP3 SUB SWAP1 POP SWAP3 SWAP2 POP POP JUMP JUMPDEST PUSH1 0x0 PUSH2 0x18C8 DUP3 PUSH2 0x18CF JUMP JUMPDEST SWAP1 POP SWAP2 SWAP1 POP JUMP JUMPDEST PUSH1 0x0 PUSH20 0xFFFFFFFFFFFFFFFFFFFFFFFFFFFFFFFFFFFFFFFF DUP3 AND SWAP1 POP SWAP2 SWAP1 POP JUMP JUMPDEST PUSH1 0x0 DUP2 SWAP1 POP SWAP2 SWAP1 POP JUMP JUMPDEST PUSH1 0x0 PUSH4 0xFFFFFFFF DUP3 AND SWAP1 POP SWAP2 SWAP1 POP JUMP JUMPDEST DUP3 DUP2 DUP4 CALLDATACOPY PUSH1 0x0 DUP4 DUP4 ADD MSTORE POP POP POP JUMP JUMPDEST PUSH1 0x0 JUMPDEST DUP4 DUP2 LT ISZERO PUSH2 0x1936 JUMPI DUP1 DUP3 ADD MLOAD DUP2 DUP5 ADD MSTORE PUSH1 0x20 DUP2 ADD SWAP1 POP PUSH2 0x191B JUMP JUMPDEST DUP4 DUP2 GT ISZERO PUSH2 0x1945 JUMPI PUSH1 0x0 DUP5 DUP5 ADD MSTORE JUMPDEST POP POP POP POP JUMP JUMPDEST PUSH1 0x0 PUSH1 0x2 DUP3 DIV SWAP1 POP PUSH1 0x1 DUP3 AND DUP1 PUSH2 0x1963 JUMPI PUSH1 0x7F DUP3 AND SWAP2 POP JUMPDEST PUSH1 0x20 DUP3 LT DUP2 EQ ISZERO PUSH2 0x1977 JUMPI PUSH2 0x1976 PUSH2 0x1ABD JUMP JUMPDEST JUMPDEST POP SWAP2 SWAP1 POP JUMP JUMPDEST PUSH2 0x1986 DUP3 PUSH2 0x1B5E JUMP JUMPDEST DUP2 ADD DUP2 DUP2 LT PUSH8 0xFFFFFFFFFFFFFFFF DUP3 GT OR ISZERO PUSH2 0x19A5 JUMPI PUSH2 0x19A4 PUSH2 0x1B1B JUMP JUMPDEST JUMPDEST DUP1 PUSH1 0x40 MSTORE POP POP POP JUMP JUMPDEST PUSH1 0x0 PUSH2 0x19B9 DUP3 PUSH2 0x18EF JUMP JUMPDEST SWAP2 POP PUSH32 0xFFFFFFFFFFFFFFFFFFFFFFFFFFFFFFFFFFFFFFFFFFFFFFFFFFFFFFFFFFFFFFFF DUP3 EQ ISZERO PUSH2 0x19EC JUMPI PUSH2 0x19EB PUSH2 0x1A5F JUMP JUMPDEST JUMPDEST PUSH1 0x1 DUP3 ADD SWAP1 POP SWAP2 SWAP1 POP JUMP JUMPDEST PUSH1 0x0 PUSH2 0x1A02 DUP3 PUSH2 0x18F9 JUMP JUMPDEST SWAP2 POP PUSH4 0xFFFFFFFF DUP3 EQ ISZERO PUSH2 0x1A19 JUMPI PUSH2 0x1A18 PUSH2 0x1A5F JUMP JUMPDEST JUMPDEST PUSH1 0x1 DUP3 ADD SWAP1 POP SWAP2 SWAP1 POP JUMP JUMPDEST PUSH1 0x0 DUP2 SWAP1 POP SWAP2 SWAP1 POP JUMP JUMPDEST PUSH1 0x0 PUSH2 0x1A39 DUP3 PUSH2 0x18EF JUMP JUMPDEST SWAP2 POP PUSH2 0x1A44 DUP4 PUSH2 0x18EF JUMP JUMPDEST SWAP3 POP DUP3 PUSH2 0x1A54 JUMPI PUSH2 0x1A53 PUSH2 0x1A8E JUMP JUMPDEST JUMPDEST DUP3 DUP3 MOD SWAP1 POP SWAP3 SWAP2 POP POP JUMP JUMPDEST PUSH32 0x4E487B7100000000000000000000000000000000000000000000000000000000 PUSH1 0x0 MSTORE PUSH1 0x11 PUSH1 0x4 MSTORE PUSH1 0x24 PUSH1 0x0 REVERT JUMPDEST PUSH32 0x4E487B7100000000000000000000000000000000000000000000000000000000 PUSH1 0x0 MSTORE PUSH1 0x12 PUSH1 0x4 MSTORE PUSH1 0x24 PUSH1 0x0 REVERT JUMPDEST PUSH32 0x4E487B7100000000000000000000000000000000000000000000000000000000 PUSH1 0x0 MSTORE PUSH1 0x22 PUSH1 0x4 MSTORE PUSH1 0x24 PUSH1 0x0 REVERT JUMPDEST PUSH32 0x4E487B7100000000000000000000000000000000000000000000000000000000 PUSH1 0x0 MSTORE PUSH1 0x32 PUSH1 0x4 MSTORE PUSH1 0x24 PUSH1 0x0 REVERT JUMPDEST PUSH32 0x4E487B7100000000000000000000000000000000000000000000000000000000 PUSH1 0x0 MSTORE PUSH1 0x41 PUSH1 0x4 MSTORE PUSH1 0x24 PUSH1 0x0 REVERT JUMPDEST PUSH1 0x0 DUP1 REVERT JUMPDEST PUSH1 0x0 DUP1 REVERT JUMPDEST PUSH1 0x0 DUP1 REVERT JUMPDEST PUSH1 0x0 DUP1 REVERT JUMPDEST PUSH1 0x0 PUSH1 0x1F NOT PUSH1 0x1F DUP4 ADD AND SWAP1 POP SWAP2 SWAP1 POP JUMP JUMPDEST PUSH32 0x536F6C6F2073652070756564652074656E657220756E20636F63686520706F72 PUSH1 0x0 DUP3 ADD MSTORE PUSH32 0x20706572736F6E61000000000000000000000000000000000000000000000000 PUSH1 0x20 DUP3 ADD MSTORE POP JUMP JUMPDEST PUSH32 0x4F776E61626C653A206E6577206F776E657220697320746865207A65726F2061 PUSH1 0x0 DUP3 ADD MSTORE PUSH32 0x6464726573730000000000000000000000000000000000000000000000000000 PUSH1 0x20 DUP3 ADD MSTORE POP JUMP JUMPDEST PUSH32 0x4861732067616E61646F3A200000000000000000000000000000000000000000 PUSH1 0x0 DUP3 ADD MSTORE POP JUMP JUMPDEST PUSH32 0x4F776E61626C653A2063616C6C6572206973206E6F7420746865206F776E6572 PUSH1 0x0 DUP3 ADD MSTORE POP JUMP JUMPDEST PUSH32 0x456C20636F6368652067616E61646F722065733A200000000000000000000000 PUSH1 0x0 DUP3 ADD MSTORE POP JUMP JUMPDEST PUSH2 0x1C91 DUP2 PUSH2 0x18BD JUMP JUMPDEST DUP2 EQ PUSH2 0x1C9C JUMPI PUSH1 0x0 DUP1 REVERT JUMPDEST POP JUMP JUMPDEST PUSH2 0x1CA8 DUP2 PUSH2 0x18EF JUMP JUMPDEST DUP2 EQ PUSH2 0x1CB3 JUMPI PUSH1 0x0 DUP1 REVERT JUMPDEST POP JUMP INVALID LOG2 PUSH5 0x6970667358 0x22 SLT KECCAK256 NUMBER 0xB1 BASEFEE DUP1 DUP4 CALLER RETURN 0x4E OR GASPRICE 0xFC 0x5F 0xB9 0xE7 0xD9 REVERT DIFFICULTY DUP6 SUB 0x2A CODECOPY SELFBALANCE ADDRESS 0xBC 0xBE REVERT RETURNDATACOPY 0xEC DUP15 PC PUSH11 0x1B64736F6C634300080700 CALLER "
				},
				"gasEstimates": {
					"creation": {
						"codeDepositCost": "1480800",
						"executionCost": "infinite",
						"totalCost": "infinite"
					},
					"external": {
						"Apostar(uint256)": "infinite",
						"_owner()": "2555",
						"anadirCoche(string,string,string)": "infinite",
						"cocheDePropietario(uint256)": "2839",
						"listaCoches(uint256)": "infinite",
						"numeroCochesPersona(address)": "2837",
						"owner()": "2544",
						"renounceOwnership()": "30485",
						"retirarDinero()": "infinite",
						"subirDeNivel(address)": "infinite",
						"transferOwnership(address)": "30833",
						"verCochePropietario(address)": "infinite"
					},
					"internal": {
						"_depositoLleno(struct CarreraCoches.Coche storage pointer)": "infinite",
						"_repostando(struct CarreraCoches.Coche storage pointer)": "infinite",
						"balance()": "infinite",
						"numAleatorio(uint256)": "infinite"
					}
				},
				"methodIdentifiers": {
					"Apostar(uint256)": "6b6f0494",
					"_owner()": "b2bdfa7b",
					"anadirCoche(string,string,string)": "2458c544",
					"cocheDePropietario(uint256)": "858b0554",
					"listaCoches(uint256)": "d735573d",
					"numeroCochesPersona(address)": "1c6743e4",
					"owner()": "8da5cb5b",
					"renounceOwnership()": "715018a6",
					"retirarDinero()": "1bfdc150",
					"subirDeNivel(address)": "6a7d1816",
					"transferOwnership(address)": "f2fde38b",
					"verCochePropietario(address)": "e172fca8"
				}
			},
			"storageLayout": {
				"storage": [
					{
						"astId": 7,
						"contract": "contracts/CarreraCoches/principal.sol:CarreraCoches",
						"label": "_owner",
						"offset": 0,
						"slot": "0",
						"type": "t_address"
					},
					{
						"astId": 129,
						"contract": "contracts/CarreraCoches/principal.sol:CarreraCoches",
						"label": "randNonce",
						"offset": 0,
						"slot": "1",
						"type": "t_uint256"
					},
					{
						"astId": 132,
						"contract": "contracts/CarreraCoches/principal.sol:CarreraCoches",
						"label": "contador",
						"offset": 0,
						"slot": "2",
						"type": "t_uint256"
					},
					{
						"astId": 135,
						"contract": "contracts/CarreraCoches/principal.sol:CarreraCoches",
						"label": "cooldown",
						"offset": 0,
						"slot": "3",
						"type": "t_uint256"
					},
					{
						"astId": 138,
						"contract": "contracts/CarreraCoches/principal.sol:CarreraCoches",
						"label": "subirNivel",
						"offset": 0,
						"slot": "4",
						"type": "t_uint256"
					},
					{
						"astId": 142,
						"contract": "contracts/CarreraCoches/principal.sol:CarreraCoches",
						"label": "listaCoches",
						"offset": 0,
						"slot": "5",
						"type": "t_array(t_struct(Coche)126_storage)dyn_storage"
					},
					{
						"astId": 170,
						"contract": "contracts/CarreraCoches/principal.sol:CarreraCoches",
						"label": "cocheDePropietario",
						"offset": 0,
						"slot": "6",
						"type": "t_mapping(t_uint256,t_address)"
					},
					{
						"astId": 174,
						"contract": "contracts/CarreraCoches/principal.sol:CarreraCoches",
						"label": "numeroCochesPersona",
						"offset": 0,
						"slot": "7",
						"type": "t_mapping(t_address,t_uint256)"
					}
				],
				"types": {
					"t_address": {
						"encoding": "inplace",
						"label": "address",
						"numberOfBytes": "20"
					},
					"t_array(t_struct(Coche)126_storage)dyn_storage": {
						"base": "t_struct(Coche)126_storage",
						"encoding": "dynamic_array",
						"label": "struct CarreraCoches.Coche[]",
						"numberOfBytes": "32"
					},
					"t_mapping(t_address,t_uint256)": {
						"encoding": "mapping",
						"key": "t_address",
						"label": "mapping(address => uint256)",
						"numberOfBytes": "32",
						"value": "t_uint256"
					},
					"t_mapping(t_uint256,t_address)": {
						"encoding": "mapping",
						"key": "t_uint256",
						"label": "mapping(uint256 => address)",
						"numberOfBytes": "32",
						"value": "t_address"
					},
					"t_string_storage": {
						"encoding": "bytes",
						"label": "string",
						"numberOfBytes": "32"
					},
					"t_struct(Coche)126_storage": {
						"encoding": "inplace",
						"label": "struct CarreraCoches.Coche",
						"members": [
							{
								"astId": 111,
								"contract": "contracts/CarreraCoches/principal.sol:CarreraCoches",
								"label": "idPiloto",
								"offset": 0,
								"slot": "0",
								"type": "t_address"
							},
							{
								"astId": 113,
								"contract": "contracts/CarreraCoches/principal.sol:CarreraCoches",
								"label": "modelo",
								"offset": 0,
								"slot": "1",
								"type": "t_string_storage"
							},
							{
								"astId": 115,
								"contract": "contracts/CarreraCoches/principal.sol:CarreraCoches",
								"label": "marca",
								"offset": 0,
								"slot": "2",
								"type": "t_string_storage"
							},
							{
								"astId": 117,
								"contract": "contracts/CarreraCoches/principal.sol:CarreraCoches",
								"label": "nombrePiloto",
								"offset": 0,
								"slot": "3",
								"type": "t_string_storage"
							},
							{
								"astId": 119,
								"contract": "contracts/CarreraCoches/principal.sol:CarreraCoches",
								"label": "carrerasGanadas",
								"offset": 0,
								"slot": "4",
								"type": "t_uint256"
							},
							{
								"astId": 121,
								"contract": "contracts/CarreraCoches/principal.sol:CarreraCoches",
								"label": "carrerasTotales",
								"offset": 0,
								"slot": "5",
								"type": "t_uint256"
							},
							{
								"astId": 123,
								"contract": "contracts/CarreraCoches/principal.sol:CarreraCoches",
								"label": "tiempoEspera",
								"offset": 0,
								"slot": "6",
								"type": "t_uint256"
							},
							{
								"astId": 125,
								"contract": "contracts/CarreraCoches/principal.sol:CarreraCoches",
								"label": "nivel",
								"offset": 0,
								"slot": "7",
								"type": "t_uint32"
							}
						],
						"numberOfBytes": "256"
					},
					"t_uint256": {
						"encoding": "inplace",
						"label": "uint256",
						"numberOfBytes": "32"
					},
					"t_uint32": {
						"encoding": "inplace",
						"label": "uint32",
						"numberOfBytes": "4"
					}
				}
			},
			"userdoc": {
				"kind": "user",
				"methods": {},
				"version": 1
			}
		}
	}
}