{
	"contracts/CarreraCoches/principal.sol": {
		"CarreraCoches": {
			"abi": [
				{
					"anonymous": false,
					"inputs": [
						{
							"indexed": true,
							"internalType": "address",
							"name": "previousOwner",
							"type": "address"
						},
						{
							"indexed": true,
							"internalType": "address",
							"name": "newOwner",
							"type": "address"
						}
					],
					"name": "OwnershipTransferred",
					"type": "event"
				},
				{
					"anonymous": false,
					"inputs": [
						{
							"indexed": false,
							"internalType": "string",
							"name": "mo",
							"type": "string"
						},
						{
							"indexed": false,
							"internalType": "string",
							"name": "ma",
							"type": "string"
						},
						{
							"indexed": false,
							"internalType": "uint32",
							"name": "niv",
							"type": "uint32"
						},
						{
							"indexed": false,
							"internalType": "uint256",
							"name": "carrGan",
							"type": "uint256"
						}
					],
					"name": "cochePropietario",
					"type": "event"
				},
				{
					"anonymous": false,
					"inputs": [
						{
							"indexed": false,
							"internalType": "uint256",
							"name": "compr",
							"type": "uint256"
						}
					],
					"name": "comprobar",
					"type": "event"
				},
				{
					"anonymous": false,
					"inputs": [
						{
							"indexed": false,
							"internalType": "string",
							"name": "ms",
							"type": "string"
						}
					],
					"name": "confirmacionDepositoLleno",
					"type": "event"
				},
				{
					"anonymous": false,
					"inputs": [
						{
							"indexed": false,
							"internalType": "string",
							"name": "ms",
							"type": "string"
						},
						{
							"indexed": false,
							"internalType": "uint256",
							"name": "res",
							"type": "uint256"
						}
					],
					"name": "mostrarResultado",
					"type": "event"
				},
				{
					"inputs": [
						{
							"internalType": "uint256",
							"name": "dineroApostar",
							"type": "uint256"
						}
					],
					"name": "Apostar",
					"outputs": [
						{
							"internalType": "string",
							"name": "",
							"type": "string"
						}
					],
					"stateMutability": "payable",
					"type": "function"
				},
				{
					"inputs": [],
					"name": "_owner",
					"outputs": [
						{
							"internalType": "address",
							"name": "",
							"type": "address"
						}
					],
					"stateMutability": "view",
					"type": "function"
				},
				{
					"inputs": [
						{
							"internalType": "string",
							"name": "_modelo",
							"type": "string"
						},
						{
							"internalType": "string",
							"name": "_marca",
							"type": "string"
						},
						{
							"internalType": "string",
							"name": "_nombrePiloto",
							"type": "string"
						}
					],
					"name": "anadirCoche",
					"outputs": [
						{
							"internalType": "uint256",
							"name": "",
							"type": "uint256"
						}
					],
					"stateMutability": "nonpayable",
					"type": "function"
				},
				{
					"inputs": [
						{
							"internalType": "uint256",
							"name": "",
							"type": "uint256"
						}
					],
					"name": "cocheDePropietario",
					"outputs": [
						{
							"internalType": "address",
							"name": "",
							"type": "address"
						}
					],
					"stateMutability": "view",
					"type": "function"
				},
				{
					"inputs": [
						{
							"internalType": "uint256",
							"name": "_coche",
							"type": "uint256"
						},
						{
							"internalType": "string",
							"name": "_newModelo",
							"type": "string"
						},
						{
							"internalType": "string",
							"name": "_newMarca",
							"type": "string"
						}
					],
					"name": "comprarCoche",
					"outputs": [
						{
							"internalType": "string",
							"name": "",
							"type": "string"
						}
					],
					"stateMutability": "payable",
					"type": "function"
				},
				{
					"inputs": [
						{
							"internalType": "uint256",
							"name": "",
							"type": "uint256"
						}
					],
					"name": "listaCoches",
					"outputs": [
						{
							"internalType": "address",
							"name": "idPiloto",
							"type": "address"
						},
						{
							"internalType": "string",
							"name": "modelo",
							"type": "string"
						},
						{
							"internalType": "string",
							"name": "marca",
							"type": "string"
						},
						{
							"internalType": "string",
							"name": "nombrePiloto",
							"type": "string"
						},
						{
							"internalType": "uint256",
							"name": "carrerasGanadas",
							"type": "uint256"
						},
						{
							"internalType": "uint256",
							"name": "carrerasTotales",
							"type": "uint256"
						},
						{
							"internalType": "uint256",
							"name": "tiempoEspera",
							"type": "uint256"
						},
						{
							"internalType": "uint32",
							"name": "nivel",
							"type": "uint32"
						}
					],
					"stateMutability": "view",
					"type": "function"
				},
				{
					"inputs": [
						{
							"internalType": "address",
							"name": "",
							"type": "address"
						}
					],
					"name": "numeroCochesPersona",
					"outputs": [
						{
							"internalType": "uint256",
							"name": "",
							"type": "uint256"
						}
					],
					"stateMutability": "view",
					"type": "function"
				},
				{
					"inputs": [],
					"name": "owner",
					"outputs": [
						{
							"internalType": "address",
							"name": "",
							"type": "address"
						}
					],
					"stateMutability": "view",
					"type": "function"
				},
				{
					"inputs": [],
					"name": "renounceOwnership",
					"outputs": [],
					"stateMutability": "nonpayable",
					"type": "function"
				},
				{
					"inputs": [],
					"name": "retirarDinero",
					"outputs": [],
					"stateMutability": "nonpayable",
					"type": "function"
				},
				{
					"inputs": [
						{
							"internalType": "address",
							"name": "_propietario",
							"type": "address"
						}
					],
					"name": "subirDeNivel",
					"outputs": [
						{
							"internalType": "string",
							"name": "",
							"type": "string"
						}
					],
					"stateMutability": "payable",
					"type": "function"
				},
				{
					"inputs": [
						{
							"internalType": "address",
							"name": "newOwner",
							"type": "address"
						}
					],
					"name": "transferOwnership",
					"outputs": [],
					"stateMutability": "nonpayable",
					"type": "function"
				},
				{
					"inputs": [
						{
							"internalType": "address",
							"name": "_propietario",
							"type": "address"
						}
					],
					"name": "verCochePropietario",
					"outputs": [],
					"stateMutability": "nonpayable",
					"type": "function"
				}
			],
			"devdoc": {
				"kind": "dev",
				"methods": {
					"owner()": {
						"details": "Returns the address of the current owner."
					},
					"renounceOwnership()": {
						"details": "Leaves the contract without owner. It will not be possible to call `onlyOwner` functions anymore. Can only be called by the current owner. NOTE: Renouncing ownership will leave the contract without an owner, thereby removing any functionality that is only available to the owner."
					},
					"transferOwnership(address)": {
						"details": "Transfers ownership of the contract to a new account (`newOwner`). Can only be called by the current owner."
					}
				},
				"version": 1
			},
			"evm": {
				"assembly": "    /* \"contracts/CarreraCoches/principal.sol\":54:5268  contract CarreraCoches is Ownable {\r... */\n  mstore(0x40, 0x80)\n    /* \"contracts/CarreraCoches/principal.sol\":370:371  0 */\n  0x00\n    /* \"contracts/CarreraCoches/principal.sol\":353:371  uint randNonce = 0 */\n  0x01\n  sstore\n    /* \"contracts/CarreraCoches/principal.sol\":494:495  0 */\n  0x00\n    /* \"contracts/CarreraCoches/principal.sol\":478:495  uint contador = 0 */\n  0x02\n  sstore\n    /* \"contracts/CarreraCoches/principal.sol\":518:528  60 seconds */\n  0x3c\n    /* \"contracts/CarreraCoches/principal.sol\":502:528  uint cooldown = 60 seconds */\n  0x03\n  sstore\n    /* \"contracts/CarreraCoches/principal.sol\":553:560  1 ether */\n  0x0de0b6b3a7640000\n    /* \"contracts/CarreraCoches/principal.sol\":535:560  uint subirNivel = 1 ether */\n  0x04\n  sstore\n    /* \"contracts/CarreraCoches/principal.sol\":588:595  1 ether */\n  0x0de0b6b3a7640000\n    /* \"contracts/CarreraCoches/principal.sol\":567:595  uint cambiarCocheV = 1 ether */\n  0x05\n  sstore\n    /* \"contracts/CarreraCoches/principal.sol\":54:5268  contract CarreraCoches is Ownable {\r... */\n  callvalue\n  dup1\n  iszero\n  tag_1\n  jumpi\n  0x00\n  dup1\n  revert\ntag_1:\n  pop\n    /* \"contracts/CarreraCoches/ownable.sol\":947:979  _transferOwnership(_msgSender()) */\n  tag_4\n    /* \"contracts/CarreraCoches/ownable.sol\":966:978  _msgSender() */\n  tag_5\n    /* \"contracts/CarreraCoches/ownable.sol\":966:976  _msgSender */\n  shl(0x20, tag_6)\n    /* \"contracts/CarreraCoches/ownable.sol\":966:978  _msgSender() */\n  0x20\n  shr\n  jump\t// in\ntag_5:\n    /* \"contracts/CarreraCoches/ownable.sol\":947:965  _transferOwnership */\n  shl(0x20, tag_7)\n    /* \"contracts/CarreraCoches/ownable.sol\":947:979  _transferOwnership(_msgSender()) */\n  0x20\n  shr\n  jump\t// in\ntag_4:\n    /* \"contracts/CarreraCoches/principal.sol\":54:5268  contract CarreraCoches is Ownable {\r... */\n  jump(tag_8)\n    /* \"contracts/CarreraCoches/utils/Context.sol\":656:754  function _msgSender() internal view virtual returns (address) {\r... */\ntag_6:\n    /* \"contracts/CarreraCoches/utils/Context.sol\":709:716  address */\n  0x00\n    /* \"contracts/CarreraCoches/utils/Context.sol\":736:746  msg.sender */\n  caller\n    /* \"contracts/CarreraCoches/utils/Context.sol\":729:746  return msg.sender */\n  swap1\n  pop\n    /* \"contracts/CarreraCoches/utils/Context.sol\":656:754  function _msgSender() internal view virtual returns (address) {\r... */\n  swap1\n  jump\t// out\n    /* \"contracts/CarreraCoches/ownable.sol\":2338:2529  function _transferOwnership(address newOwner) internal virtual {\r... */\ntag_7:\n    /* \"contracts/CarreraCoches/ownable.sol\":2412:2428  address oldOwner */\n  0x00\n    /* \"contracts/CarreraCoches/ownable.sol\":2431:2437  _owner */\n  dup1\n  0x00\n  swap1\n  sload\n  swap1\n  0x0100\n  exp\n  swap1\n  div\n  0xffffffffffffffffffffffffffffffffffffffff\n  and\n    /* \"contracts/CarreraCoches/ownable.sol\":2412:2437  address oldOwner = _owner */\n  swap1\n  pop\n    /* \"contracts/CarreraCoches/ownable.sol\":2457:2465  newOwner */\n  dup2\n    /* \"contracts/CarreraCoches/ownable.sol\":2448:2454  _owner */\n  0x00\n  dup1\n    /* \"contracts/CarreraCoches/ownable.sol\":2448:2465  _owner = newOwner */\n  0x0100\n  exp\n  dup2\n  sload\n  dup2\n  0xffffffffffffffffffffffffffffffffffffffff\n  mul\n  not\n  and\n  swap1\n  dup4\n  0xffffffffffffffffffffffffffffffffffffffff\n  and\n  mul\n  or\n  swap1\n  sstore\n  pop\n    /* \"contracts/CarreraCoches/ownable.sol\":2512:2520  newOwner */\n  dup2\n    /* \"contracts/CarreraCoches/ownable.sol\":2481:2521  OwnershipTransferred(oldOwner, newOwner) */\n  0xffffffffffffffffffffffffffffffffffffffff\n  and\n    /* \"contracts/CarreraCoches/ownable.sol\":2502:2510  oldOwner */\n  dup2\n    /* \"contracts/CarreraCoches/ownable.sol\":2481:2521  OwnershipTransferred(oldOwner, newOwner) */\n  0xffffffffffffffffffffffffffffffffffffffff\n  and\n  0x8be0079c531659141344cd1fd0a4f28419497f9722a3daafe3b4186f6b6457e0\n  mload(0x40)\n  mload(0x40)\n  dup1\n  swap2\n  sub\n  swap1\n  log3\n    /* \"contracts/CarreraCoches/ownable.sol\":2401:2529  {\r... */\n  pop\n    /* \"contracts/CarreraCoches/ownable.sol\":2338:2529  function _transferOwnership(address newOwner) internal virtual {\r... */\n  pop\n  jump\t// out\n    /* \"contracts/CarreraCoches/principal.sol\":54:5268  contract CarreraCoches is Ownable {\r... */\ntag_8:\n  dataSize(sub_0)\n  dup1\n  dataOffset(sub_0)\n  0x00\n  codecopy\n  0x00\n  return\nstop\n\nsub_0: assembly {\n        /* \"contracts/CarreraCoches/principal.sol\":54:5268  contract CarreraCoches is Ownable {\r... */\n      mstore(0x40, 0x80)\n      jumpi(tag_1, lt(calldatasize, 0x04))\n      shr(0xe0, calldataload(0x00))\n      dup1\n      0x715018a6\n      gt\n      tag_15\n      jumpi\n      dup1\n      0xb2bdfa7b\n      gt\n      tag_16\n      jumpi\n      dup1\n      0xb2bdfa7b\n      eq\n      tag_11\n      jumpi\n      dup1\n      0xd735573d\n      eq\n      tag_12\n      jumpi\n      dup1\n      0xe172fca8\n      eq\n      tag_13\n      jumpi\n      dup1\n      0xf2fde38b\n      eq\n      tag_14\n      jumpi\n      jump(tag_1)\n    tag_16:\n      dup1\n      0x715018a6\n      eq\n      tag_8\n      jumpi\n      dup1\n      0x858b0554\n      eq\n      tag_9\n      jumpi\n      dup1\n      0x8da5cb5b\n      eq\n      tag_10\n      jumpi\n      jump(tag_1)\n    tag_15:\n      dup1\n      0x1bfdc150\n      eq\n      tag_2\n      jumpi\n      dup1\n      0x1c6743e4\n      eq\n      tag_3\n      jumpi\n      dup1\n      0x2458c544\n      eq\n      tag_4\n      jumpi\n      dup1\n      0x36163e45\n      eq\n      tag_5\n      jumpi\n      dup1\n      0x6a7d1816\n      eq\n      tag_6\n      jumpi\n      dup1\n      0x6b6f0494\n      eq\n      tag_7\n      jumpi\n    tag_1:\n      0x00\n      dup1\n      revert\n        /* \"contracts/CarreraCoches/principal.sol\":5150:5265  function retirarDinero() external onlyOwner {\r... */\n    tag_2:\n      callvalue\n      dup1\n      iszero\n      tag_17\n      jumpi\n      0x00\n      dup1\n      revert\n    tag_17:\n      pop\n      tag_18\n      tag_19\n      jump\t// in\n    tag_18:\n      stop\n        /* \"contracts/CarreraCoches/principal.sol\":909:961  mapping (address => uint) public numeroCochesPersona */\n    tag_3:\n      callvalue\n      dup1\n      iszero\n      tag_20\n      jumpi\n      0x00\n      dup1\n      revert\n    tag_20:\n      pop\n      tag_21\n      0x04\n      dup1\n      calldatasize\n      sub\n      dup2\n      add\n      swap1\n      tag_22\n      swap2\n      swap1\n      tag_23\n      jump\t// in\n    tag_22:\n      tag_24\n      jump\t// in\n    tag_21:\n      mload(0x40)\n      tag_25\n      swap2\n      swap1\n      tag_26\n      jump\t// in\n    tag_25:\n      mload(0x40)\n      dup1\n      swap2\n      sub\n      swap1\n      return\n        /* \"contracts/CarreraCoches/principal.sol\":1526:1966  function anadirCoche(string memory _modelo, string memory _marca, string memory _nombrePiloto) public restriccion returns (uint) {\r... */\n    tag_4:\n      callvalue\n      dup1\n      iszero\n      tag_27\n      jumpi\n      0x00\n      dup1\n      revert\n    tag_27:\n      pop\n      tag_28\n      0x04\n      dup1\n      calldatasize\n      sub\n      dup2\n      add\n      swap1\n      tag_29\n      swap2\n      swap1\n      tag_30\n      jump\t// in\n    tag_29:\n      tag_31\n      jump\t// in\n    tag_28:\n      mload(0x40)\n      tag_32\n      swap2\n      swap1\n      tag_26\n      jump\t// in\n    tag_32:\n      mload(0x40)\n      dup1\n      swap2\n      sub\n      swap1\n      return\n        /* \"contracts/CarreraCoches/principal.sol\":3015:3349  function comprarCoche(uint _coche, string memory _newModelo, string memory _newMarca) external payable returns(string memory) {\r... */\n    tag_5:\n      tag_33\n      0x04\n      dup1\n      calldatasize\n      sub\n      dup2\n      add\n      swap1\n      tag_34\n      swap2\n      swap1\n      tag_35\n      jump\t// in\n    tag_34:\n      tag_36\n      jump\t// in\n    tag_33:\n      mload(0x40)\n      tag_37\n      swap2\n      swap1\n      tag_38\n      jump\t// in\n    tag_37:\n      mload(0x40)\n      dup1\n      swap2\n      sub\n      swap1\n      return\n        /* \"contracts/CarreraCoches/principal.sol\":2294:2653  function subirDeNivel(address _propietario) external payable returns(string memory) {\r... */\n    tag_6:\n      tag_39\n      0x04\n      dup1\n      calldatasize\n      sub\n      dup2\n      add\n      swap1\n      tag_40\n      swap2\n      swap1\n      tag_23\n      jump\t// in\n    tag_40:\n      tag_41\n      jump\t// in\n    tag_39:\n      mload(0x40)\n      tag_42\n      swap2\n      swap1\n      tag_38\n      jump\t// in\n    tag_42:\n      mload(0x40)\n      dup1\n      swap2\n      sub\n      swap1\n      return\n        /* \"contracts/CarreraCoches/principal.sol\":3686:4958  function Apostar(uint dineroApostar) public payable returns(string memory) {\r... */\n    tag_7:\n      tag_43\n      0x04\n      dup1\n      calldatasize\n      sub\n      dup2\n      add\n      swap1\n      tag_44\n      swap2\n      swap1\n      tag_45\n      jump\t// in\n    tag_44:\n      tag_46\n      jump\t// in\n    tag_43:\n      mload(0x40)\n      tag_47\n      swap2\n      swap1\n      tag_38\n      jump\t// in\n    tag_47:\n      mload(0x40)\n      dup1\n      swap2\n      sub\n      swap1\n      return\n        /* \"contracts/CarreraCoches/ownable.sol\":1719:1822  function renounceOwnership() public virtual onlyOwner {\r... */\n    tag_8:\n      callvalue\n      dup1\n      iszero\n      tag_48\n      jumpi\n      0x00\n      dup1\n      revert\n    tag_48:\n      pop\n      tag_49\n      tag_50\n      jump\t// in\n    tag_49:\n      stop\n        /* \"contracts/CarreraCoches/principal.sol\":851:902  mapping (uint => address) public cocheDePropietario */\n    tag_9:\n      callvalue\n      dup1\n      iszero\n      tag_51\n      jumpi\n      0x00\n      dup1\n      revert\n    tag_51:\n      pop\n      tag_52\n      0x04\n      dup1\n      calldatasize\n      sub\n      dup2\n      add\n      swap1\n      tag_53\n      swap2\n      swap1\n      tag_45\n      jump\t// in\n    tag_53:\n      tag_54\n      jump\t// in\n    tag_52:\n      mload(0x40)\n      tag_55\n      swap2\n      swap1\n      tag_56\n      jump\t// in\n    tag_55:\n      mload(0x40)\n      dup1\n      swap2\n      sub\n      swap1\n      return\n        /* \"contracts/CarreraCoches/ownable.sol\":1068:1155  function owner() public view virtual returns (address) {\r... */\n    tag_10:\n      callvalue\n      dup1\n      iszero\n      tag_57\n      jumpi\n      0x00\n      dup1\n      revert\n    tag_57:\n      pop\n      tag_58\n      tag_59\n      jump\t// in\n    tag_58:\n      mload(0x40)\n      tag_60\n      swap2\n      swap1\n      tag_56\n      jump\t// in\n    tag_60:\n      mload(0x40)\n      dup1\n      swap2\n      sub\n      swap1\n      return\n        /* \"contracts/CarreraCoches/ownable.sol\":701:722  address public _owner */\n    tag_11:\n      callvalue\n      dup1\n      iszero\n      tag_61\n      jumpi\n      0x00\n      dup1\n      revert\n    tag_61:\n      pop\n      tag_62\n      tag_63\n      jump\t// in\n    tag_62:\n      mload(0x40)\n      tag_64\n      swap2\n      swap1\n      tag_56\n      jump\t// in\n    tag_64:\n      mload(0x40)\n      dup1\n      swap2\n      sub\n      swap1\n      return\n        /* \"contracts/CarreraCoches/principal.sol\":604:630  Coche[] public listaCoches */\n    tag_12:\n      callvalue\n      dup1\n      iszero\n      tag_65\n      jumpi\n      0x00\n      dup1\n      revert\n    tag_65:\n      pop\n      tag_66\n      0x04\n      dup1\n      calldatasize\n      sub\n      dup2\n      add\n      swap1\n      tag_67\n      swap2\n      swap1\n      tag_45\n      jump\t// in\n    tag_67:\n      tag_68\n      jump\t// in\n    tag_66:\n      mload(0x40)\n      tag_69\n      swap9\n      swap8\n      swap7\n      swap6\n      swap5\n      swap4\n      swap3\n      swap2\n      swap1\n      tag_70\n      jump\t// in\n    tag_69:\n      mload(0x40)\n      dup1\n      swap2\n      sub\n      swap1\n      return\n        /* \"contracts/CarreraCoches/principal.sol\":2661:3005  function verCochePropietario(address _propietario) external {\r... */\n    tag_13:\n      callvalue\n      dup1\n      iszero\n      tag_71\n      jumpi\n      0x00\n      dup1\n      revert\n    tag_71:\n      pop\n      tag_72\n      0x04\n      dup1\n      calldatasize\n      sub\n      dup2\n      add\n      swap1\n      tag_73\n      swap2\n      swap1\n      tag_23\n      jump\t// in\n    tag_73:\n      tag_74\n      jump\t// in\n    tag_72:\n      stop\n        /* \"contracts/CarreraCoches/ownable.sol\":1977:2178  function transferOwnership(address newOwner) public virtual onlyOwner {\r... */\n    tag_14:\n      callvalue\n      dup1\n      iszero\n      tag_75\n      jumpi\n      0x00\n      dup1\n      revert\n    tag_75:\n      pop\n      tag_76\n      0x04\n      dup1\n      calldatasize\n      sub\n      dup2\n      add\n      swap1\n      tag_77\n      swap2\n      swap1\n      tag_23\n      jump\t// in\n    tag_77:\n      tag_78\n      jump\t// in\n    tag_76:\n      stop\n        /* \"contracts/CarreraCoches/principal.sol\":5150:5265  function retirarDinero() external onlyOwner {\r... */\n    tag_19:\n        /* \"contracts/CarreraCoches/ownable.sol\":1299:1311  _msgSender() */\n      tag_80\n        /* \"contracts/CarreraCoches/ownable.sol\":1299:1309  _msgSender */\n      tag_81\n        /* \"contracts/CarreraCoches/ownable.sol\":1299:1311  _msgSender() */\n      jump\t// in\n    tag_80:\n        /* \"contracts/CarreraCoches/ownable.sol\":1288:1311  owner() == _msgSender() */\n      0xffffffffffffffffffffffffffffffffffffffff\n      and\n        /* \"contracts/CarreraCoches/ownable.sol\":1288:1295  owner() */\n      tag_82\n        /* \"contracts/CarreraCoches/ownable.sol\":1288:1293  owner */\n      tag_59\n        /* \"contracts/CarreraCoches/ownable.sol\":1288:1295  owner() */\n      jump\t// in\n    tag_82:\n        /* \"contracts/CarreraCoches/ownable.sol\":1288:1311  owner() == _msgSender() */\n      0xffffffffffffffffffffffffffffffffffffffff\n      and\n      eq\n        /* \"contracts/CarreraCoches/ownable.sol\":1280:1348  require(owner() == _msgSender(), \"Ownable: caller is not the owner\") */\n      tag_83\n      jumpi\n      mload(0x40)\n      0x08c379a000000000000000000000000000000000000000000000000000000000\n      dup2\n      mstore\n      0x04\n      add\n      tag_84\n      swap1\n      tag_85\n      jump\t// in\n    tag_84:\n      mload(0x40)\n      dup1\n      swap2\n      sub\n      swap1\n      revert\n    tag_83:\n        /* \"contracts/CarreraCoches/principal.sol\":5214:5224  msg.sender */\n      caller\n        /* \"contracts/CarreraCoches/principal.sol\":5205:5234  payable (msg.sender).transfer */\n      0xffffffffffffffffffffffffffffffffffffffff\n      and\n        /* \"contracts/CarreraCoches/principal.sol\":5205:5257  payable (msg.sender).transfer(address(this).balance) */\n      0x08fc\n        /* \"contracts/CarreraCoches/principal.sol\":5235:5256  address(this).balance */\n      selfbalance\n        /* \"contracts/CarreraCoches/principal.sol\":5205:5257  payable (msg.sender).transfer(address(this).balance) */\n      swap1\n      dup2\n      iszero\n      mul\n      swap1\n      mload(0x40)\n      0x00\n      mload(0x40)\n      dup1\n      dup4\n      sub\n      dup2\n      dup6\n      dup9\n      dup9\n      call\n      swap4\n      pop\n      pop\n      pop\n      pop\n      iszero\n      dup1\n      iszero\n      tag_88\n      jumpi\n      returndatasize\n      0x00\n      dup1\n      returndatacopy\n      revert(0x00, returndatasize)\n    tag_88:\n      pop\n        /* \"contracts/CarreraCoches/principal.sol\":5150:5265  function retirarDinero() external onlyOwner {\r... */\n      jump\t// out\n        /* \"contracts/CarreraCoches/principal.sol\":909:961  mapping (address => uint) public numeroCochesPersona */\n    tag_24:\n      mstore(0x20, 0x08)\n      dup1\n      0x00\n      mstore\n      keccak256(0x00, 0x40)\n      0x00\n      swap2\n      pop\n      swap1\n      pop\n      sload\n      dup2\n      jump\t// out\n        /* \"contracts/CarreraCoches/principal.sol\":1526:1966  function anadirCoche(string memory _modelo, string memory _marca, string memory _nombrePiloto) public restriccion returns (uint) {\r... */\n    tag_31:\n        /* \"contracts/CarreraCoches/principal.sol\":1649:1653  uint */\n      0x00\n        /* \"contracts/CarreraCoches/principal.sol\":1093:1094  1 */\n      0x01\n        /* \"contracts/CarreraCoches/principal.sol\":1059:1078  numeroCochesPersona */\n      0x08\n        /* \"contracts/CarreraCoches/principal.sol\":1059:1090  numeroCochesPersona[msg.sender] */\n      0x00\n        /* \"contracts/CarreraCoches/principal.sol\":1079:1089  msg.sender */\n      caller\n        /* \"contracts/CarreraCoches/principal.sol\":1059:1090  numeroCochesPersona[msg.sender] */\n      0xffffffffffffffffffffffffffffffffffffffff\n      and\n      0xffffffffffffffffffffffffffffffffffffffff\n      and\n      dup2\n      mstore\n      0x20\n      add\n      swap1\n      dup2\n      mstore\n      0x20\n      add\n      0x00\n      keccak256\n      sload\n        /* \"contracts/CarreraCoches/principal.sol\":1059:1094  numeroCochesPersona[msg.sender] < 1 */\n      lt\n        /* \"contracts/CarreraCoches/principal.sol\":1051:1139  require(numeroCochesPersona[msg.sender] < 1, \"Solo se puede tener un coche por persona\") */\n      tag_90\n      jumpi\n      mload(0x40)\n      0x08c379a000000000000000000000000000000000000000000000000000000000\n      dup2\n      mstore\n      0x04\n      add\n      tag_91\n      swap1\n      tag_92\n      jump\t// in\n    tag_91:\n      mload(0x40)\n      dup1\n      swap2\n      sub\n      swap1\n      revert\n    tag_90:\n        /* \"contracts/CarreraCoches/principal.sol\":1666:1677  listaCoches */\n      0x06\n        /* \"contracts/CarreraCoches/principal.sol\":1683:1777  Coche(msg.sender, _modelo, _marca, _nombrePiloto, 0, 0, uint32(block.timestamp + cooldown), 0) */\n      mload(0x40)\n      dup1\n      0x0100\n      add\n      0x40\n      mstore\n      dup1\n        /* \"contracts/CarreraCoches/principal.sol\":1689:1699  msg.sender */\n      caller\n        /* \"contracts/CarreraCoches/principal.sol\":1683:1777  Coche(msg.sender, _modelo, _marca, _nombrePiloto, 0, 0, uint32(block.timestamp + cooldown), 0) */\n      0xffffffffffffffffffffffffffffffffffffffff\n      and\n      dup2\n      mstore\n      0x20\n      add\n        /* \"contracts/CarreraCoches/principal.sol\":1701:1708  _modelo */\n      dup7\n        /* \"contracts/CarreraCoches/principal.sol\":1683:1777  Coche(msg.sender, _modelo, _marca, _nombrePiloto, 0, 0, uint32(block.timestamp + cooldown), 0) */\n      dup2\n      mstore\n      0x20\n      add\n        /* \"contracts/CarreraCoches/principal.sol\":1710:1716  _marca */\n      dup6\n        /* \"contracts/CarreraCoches/principal.sol\":1683:1777  Coche(msg.sender, _modelo, _marca, _nombrePiloto, 0, 0, uint32(block.timestamp + cooldown), 0) */\n      dup2\n      mstore\n      0x20\n      add\n        /* \"contracts/CarreraCoches/principal.sol\":1718:1731  _nombrePiloto */\n      dup5\n        /* \"contracts/CarreraCoches/principal.sol\":1683:1777  Coche(msg.sender, _modelo, _marca, _nombrePiloto, 0, 0, uint32(block.timestamp + cooldown), 0) */\n      dup2\n      mstore\n      0x20\n      add\n        /* \"contracts/CarreraCoches/principal.sol\":1733:1734  0 */\n      0x00\n        /* \"contracts/CarreraCoches/principal.sol\":1683:1777  Coche(msg.sender, _modelo, _marca, _nombrePiloto, 0, 0, uint32(block.timestamp + cooldown), 0) */\n      dup2\n      mstore\n      0x20\n      add\n        /* \"contracts/CarreraCoches/principal.sol\":1736:1737  0 */\n      0x00\n        /* \"contracts/CarreraCoches/principal.sol\":1683:1777  Coche(msg.sender, _modelo, _marca, _nombrePiloto, 0, 0, uint32(block.timestamp + cooldown), 0) */\n      dup2\n      mstore\n      0x20\n      add\n        /* \"contracts/CarreraCoches/principal.sol\":1764:1772  cooldown */\n      sload(0x03)\n        /* \"contracts/CarreraCoches/principal.sol\":1746:1761  block.timestamp */\n      timestamp\n        /* \"contracts/CarreraCoches/principal.sol\":1746:1772  block.timestamp + cooldown */\n      tag_94\n      swap2\n      swap1\n      tag_95\n      jump\t// in\n    tag_94:\n        /* \"contracts/CarreraCoches/principal.sol\":1683:1777  Coche(msg.sender, _modelo, _marca, _nombrePiloto, 0, 0, uint32(block.timestamp + cooldown), 0) */\n      0xffffffff\n      and\n      dup2\n      mstore\n      0x20\n      add\n        /* \"contracts/CarreraCoches/principal.sol\":1775:1776  0 */\n      0x00\n        /* \"contracts/CarreraCoches/principal.sol\":1683:1777  Coche(msg.sender, _modelo, _marca, _nombrePiloto, 0, 0, uint32(block.timestamp + cooldown), 0) */\n      0xffffffff\n      and\n      dup2\n      mstore\n      pop\n        /* \"contracts/CarreraCoches/principal.sol\":1666:1778  listaCoches.push(Coche(msg.sender, _modelo, _marca, _nombrePiloto, 0, 0, uint32(block.timestamp + cooldown), 0)) */\n      swap1\n      dup1\n      0x01\n      dup2\n      sload\n      add\n      dup1\n      dup3\n      sstore\n      dup1\n      swap2\n      pop\n      pop\n      0x01\n      swap1\n      sub\n      swap1\n      0x00\n      mstore\n      keccak256(0x00, 0x20)\n      swap1\n      0x08\n      mul\n      add\n      0x00\n      swap1\n      swap2\n      swap1\n      swap2\n      swap1\n      swap2\n      pop\n      0x00\n      dup3\n      add\n      mload\n      dup2\n      0x00\n      add\n      exp(0x0100, 0x00)\n      dup2\n      sload\n      dup2\n      0xffffffffffffffffffffffffffffffffffffffff\n      mul\n      not\n      and\n      swap1\n      dup4\n      0xffffffffffffffffffffffffffffffffffffffff\n      and\n      mul\n      or\n      swap1\n      sstore\n      pop\n      0x20\n      dup3\n      add\n      mload\n      dup2\n      0x01\n      add\n      swap1\n      dup1\n      mload\n      swap1\n      0x20\n      add\n      swap1\n      tag_97\n      swap3\n      swap2\n      swap1\n      tag_98\n      jump\t// in\n    tag_97:\n      pop\n      0x40\n      dup3\n      add\n      mload\n      dup2\n      0x02\n      add\n      swap1\n      dup1\n      mload\n      swap1\n      0x20\n      add\n      swap1\n      tag_99\n      swap3\n      swap2\n      swap1\n      tag_98\n      jump\t// in\n    tag_99:\n      pop\n      0x60\n      dup3\n      add\n      mload\n      dup2\n      0x03\n      add\n      swap1\n      dup1\n      mload\n      swap1\n      0x20\n      add\n      swap1\n      tag_100\n      swap3\n      swap2\n      swap1\n      tag_98\n      jump\t// in\n    tag_100:\n      pop\n      0x80\n      dup3\n      add\n      mload\n      dup2\n      0x04\n      add\n      sstore\n      0xa0\n      dup3\n      add\n      mload\n      dup2\n      0x05\n      add\n      sstore\n      0xc0\n      dup3\n      add\n      mload\n      dup2\n      0x06\n      add\n      sstore\n      0xe0\n      dup3\n      add\n      mload\n      dup2\n      0x07\n      add\n      exp(0x0100, 0x00)\n      dup2\n      sload\n      dup2\n      0xffffffff\n      mul\n      not\n      and\n      swap1\n      dup4\n      0xffffffff\n      and\n      mul\n      or\n      swap1\n      sstore\n      pop\n      pop\n      pop\n        /* \"contracts/CarreraCoches/principal.sol\":1789:1796  uint id */\n      0x00\n        /* \"contracts/CarreraCoches/principal.sol\":1799:1810  listaCoches */\n      0x06\n        /* \"contracts/CarreraCoches/principal.sol\":1799:1817  listaCoches.length */\n      dup1\n      sload\n      swap1\n      pop\n        /* \"contracts/CarreraCoches/principal.sol\":1789:1817  uint id = listaCoches.length */\n      swap1\n      pop\n        /* \"contracts/CarreraCoches/principal.sol\":1853:1863  msg.sender */\n      caller\n        /* \"contracts/CarreraCoches/principal.sol\":1828:1846  cocheDePropietario */\n      0x07\n        /* \"contracts/CarreraCoches/principal.sol\":1828:1850  cocheDePropietario[id] */\n      0x00\n        /* \"contracts/CarreraCoches/principal.sol\":1847:1849  id */\n      dup4\n        /* \"contracts/CarreraCoches/principal.sol\":1828:1850  cocheDePropietario[id] */\n      dup2\n      mstore\n      0x20\n      add\n      swap1\n      dup2\n      mstore\n      0x20\n      add\n      0x00\n      keccak256\n      0x00\n        /* \"contracts/CarreraCoches/principal.sol\":1828:1863  cocheDePropietario[id] = msg.sender */\n      0x0100\n      exp\n      dup2\n      sload\n      dup2\n      0xffffffffffffffffffffffffffffffffffffffff\n      mul\n      not\n      and\n      swap1\n      dup4\n      0xffffffffffffffffffffffffffffffffffffffff\n      and\n      mul\n      or\n      swap1\n      sstore\n      pop\n        /* \"contracts/CarreraCoches/principal.sol\":1874:1893  numeroCochesPersona */\n      0x08\n        /* \"contracts/CarreraCoches/principal.sol\":1874:1905  numeroCochesPersona[msg.sender] */\n      0x00\n        /* \"contracts/CarreraCoches/principal.sol\":1894:1904  msg.sender */\n      caller\n        /* \"contracts/CarreraCoches/principal.sol\":1874:1905  numeroCochesPersona[msg.sender] */\n      0xffffffffffffffffffffffffffffffffffffffff\n      and\n      0xffffffffffffffffffffffffffffffffffffffff\n      and\n      dup2\n      mstore\n      0x20\n      add\n      swap1\n      dup2\n      mstore\n      0x20\n      add\n      0x00\n      keccak256\n      0x00\n        /* \"contracts/CarreraCoches/principal.sol\":1874:1907  numeroCochesPersona[msg.sender]++ */\n      dup2\n      sload\n      dup1\n      swap3\n      swap2\n      swap1\n      tag_101\n      swap1\n      tag_102\n      jump\t// in\n    tag_101:\n      swap2\n      swap1\n      pop\n      sstore\n      pop\n        /* \"contracts/CarreraCoches/principal.sol\":1918:1926  contador */\n      0x02\n      0x00\n        /* \"contracts/CarreraCoches/principal.sol\":1918:1928  contador++ */\n      dup2\n      sload\n      dup1\n      swap3\n      swap2\n      swap1\n      tag_103\n      swap1\n      tag_102\n      jump\t// in\n    tag_103:\n      swap2\n      swap1\n      pop\n      sstore\n      pop\n        /* \"contracts/CarreraCoches/principal.sol\":1957:1958  1 */\n      0x01\n        /* \"contracts/CarreraCoches/principal.sol\":1946:1954  contador */\n      sload(0x02)\n        /* \"contracts/CarreraCoches/principal.sol\":1946:1958  contador - 1 */\n      tag_104\n      swap2\n      swap1\n      tag_105\n      jump\t// in\n    tag_104:\n        /* \"contracts/CarreraCoches/principal.sol\":1939:1958  return contador - 1 */\n      swap2\n      pop\n      pop\n        /* \"contracts/CarreraCoches/principal.sol\":1526:1966  function anadirCoche(string memory _modelo, string memory _marca, string memory _nombrePiloto) public restriccion returns (uint) {\r... */\n      swap4\n      swap3\n      pop\n      pop\n      pop\n      jump\t// out\n        /* \"contracts/CarreraCoches/principal.sol\":3015:3349  function comprarCoche(uint _coche, string memory _newModelo, string memory _newMarca) external payable returns(string memory) {\r... */\n    tag_36:\n        /* \"contracts/CarreraCoches/principal.sol\":3126:3139  string memory */\n      0x60\n        /* \"contracts/CarreraCoches/principal.sol\":3172:3190  cocheDePropietario */\n      0x07\n        /* \"contracts/CarreraCoches/principal.sol\":3172:3198  cocheDePropietario[_coche] */\n      0x00\n        /* \"contracts/CarreraCoches/principal.sol\":3191:3197  _coche */\n      dup6\n        /* \"contracts/CarreraCoches/principal.sol\":3172:3198  cocheDePropietario[_coche] */\n      dup2\n      mstore\n      0x20\n      add\n      swap1\n      dup2\n      mstore\n      0x20\n      add\n      0x00\n      keccak256\n      0x00\n      swap1\n      sload\n      swap1\n      0x0100\n      exp\n      swap1\n      div\n      0xffffffffffffffffffffffffffffffffffffffff\n      and\n        /* \"contracts/CarreraCoches/principal.sol\":3160:3198  msg.sender==cocheDePropietario[_coche] */\n      0xffffffffffffffffffffffffffffffffffffffff\n      and\n        /* \"contracts/CarreraCoches/principal.sol\":3160:3170  msg.sender */\n      caller\n        /* \"contracts/CarreraCoches/principal.sol\":3160:3198  msg.sender==cocheDePropietario[_coche] */\n      0xffffffffffffffffffffffffffffffffffffffff\n      and\n      eq\n        /* \"contracts/CarreraCoches/principal.sol\":3152:3199  require(msg.sender==cocheDePropietario[_coche]) */\n      tag_107\n      jumpi\n      0x00\n      dup1\n      revert\n    tag_107:\n        /* \"contracts/CarreraCoches/principal.sol\":3229:3242  cambiarCocheV */\n      sload(0x05)\n        /* \"contracts/CarreraCoches/principal.sol\":3218:3227  msg.value */\n      callvalue\n        /* \"contracts/CarreraCoches/principal.sol\":3218:3242  msg.value==cambiarCocheV */\n      eq\n        /* \"contracts/CarreraCoches/principal.sol\":3210:3243  require(msg.value==cambiarCocheV) */\n      tag_108\n      jumpi\n      0x00\n      dup1\n      revert\n    tag_108:\n        /* \"contracts/CarreraCoches/principal.sol\":3283:3293  _newModelo */\n      dup3\n        /* \"contracts/CarreraCoches/principal.sol\":3254:3265  listaCoches */\n      0x06\n        /* \"contracts/CarreraCoches/principal.sol\":3266:3272  _coche */\n      dup6\n        /* \"contracts/CarreraCoches/principal.sol\":3254:3273  listaCoches[_coche] */\n      dup2\n      sload\n      dup2\n      lt\n      tag_109\n      jumpi\n      tag_110\n      tag_111\n      jump\t// in\n    tag_110:\n    tag_109:\n      swap1\n      0x00\n      mstore\n      keccak256(0x00, 0x20)\n      swap1\n      0x08\n      mul\n      add\n        /* \"contracts/CarreraCoches/principal.sol\":3254:3280  listaCoches[_coche].modelo */\n      0x01\n      add\n        /* \"contracts/CarreraCoches/principal.sol\":3254:3293  listaCoches[_coche].modelo = _newModelo */\n      swap1\n      dup1\n      mload\n      swap1\n      0x20\n      add\n      swap1\n      tag_113\n      swap3\n      swap2\n      swap1\n      tag_98\n      jump\t// in\n    tag_113:\n      pop\n        /* \"contracts/CarreraCoches/principal.sol\":3332:3341  _newMarca */\n      dup2\n        /* \"contracts/CarreraCoches/principal.sol\":3304:3315  listaCoches */\n      0x06\n        /* \"contracts/CarreraCoches/principal.sol\":3316:3322  _coche */\n      dup6\n        /* \"contracts/CarreraCoches/principal.sol\":3304:3323  listaCoches[_coche] */\n      dup2\n      sload\n      dup2\n      lt\n      tag_114\n      jumpi\n      tag_115\n      tag_111\n      jump\t// in\n    tag_115:\n    tag_114:\n      swap1\n      0x00\n      mstore\n      keccak256(0x00, 0x20)\n      swap1\n      0x08\n      mul\n      add\n        /* \"contracts/CarreraCoches/principal.sol\":3304:3329  listaCoches[_coche].marca */\n      0x02\n      add\n        /* \"contracts/CarreraCoches/principal.sol\":3304:3341  listaCoches[_coche].marca = _newMarca */\n      swap1\n      dup1\n      mload\n      swap1\n      0x20\n      add\n      swap1\n      tag_117\n      swap3\n      swap2\n      swap1\n      tag_98\n      jump\t// in\n    tag_117:\n      pop\n        /* \"contracts/CarreraCoches/principal.sol\":3015:3349  function comprarCoche(uint _coche, string memory _newModelo, string memory _newMarca) external payable returns(string memory) {\r... */\n      swap4\n      swap3\n      pop\n      pop\n      pop\n      jump\t// out\n        /* \"contracts/CarreraCoches/principal.sol\":2294:2653  function subirDeNivel(address _propietario) external payable returns(string memory) {\r... */\n    tag_41:\n        /* \"contracts/CarreraCoches/principal.sol\":2363:2376  string memory */\n      0x60\n        /* \"contracts/CarreraCoches/principal.sol\":2408:2418  subirNivel */\n      sload(0x04)\n        /* \"contracts/CarreraCoches/principal.sol\":2397:2406  msg.value */\n      callvalue\n        /* \"contracts/CarreraCoches/principal.sol\":2397:2418  msg.value==subirNivel */\n      eq\n        /* \"contracts/CarreraCoches/principal.sol\":2389:2419  require(msg.value==subirNivel) */\n      tag_119\n      jumpi\n      0x00\n      dup1\n      revert\n    tag_119:\n        /* \"contracts/CarreraCoches/principal.sol\":2434:2440  uint i */\n      0x00\n        /* \"contracts/CarreraCoches/principal.sol\":2430:2646  for(uint i = 0; i < listaCoches.length; i++){\r... */\n    tag_120:\n        /* \"contracts/CarreraCoches/principal.sol\":2450:2461  listaCoches */\n      0x06\n        /* \"contracts/CarreraCoches/principal.sol\":2450:2468  listaCoches.length */\n      dup1\n      sload\n      swap1\n      pop\n        /* \"contracts/CarreraCoches/principal.sol\":2446:2447  i */\n      dup2\n        /* \"contracts/CarreraCoches/principal.sol\":2446:2468  i < listaCoches.length */\n      lt\n        /* \"contracts/CarreraCoches/principal.sol\":2430:2646  for(uint i = 0; i < listaCoches.length; i++){\r... */\n      iszero\n      tag_121\n      jumpi\n        /* \"contracts/CarreraCoches/principal.sol\":2519:2531  _propietario */\n      dup3\n        /* \"contracts/CarreraCoches/principal.sol\":2492:2531  listaCoches[i].idPiloto == _propietario */\n      0xffffffffffffffffffffffffffffffffffffffff\n      and\n        /* \"contracts/CarreraCoches/principal.sol\":2492:2503  listaCoches */\n      0x06\n        /* \"contracts/CarreraCoches/principal.sol\":2504:2505  i */\n      dup3\n        /* \"contracts/CarreraCoches/principal.sol\":2492:2506  listaCoches[i] */\n      dup2\n      sload\n      dup2\n      lt\n      tag_123\n      jumpi\n      tag_124\n      tag_111\n      jump\t// in\n    tag_124:\n    tag_123:\n      swap1\n      0x00\n      mstore\n      keccak256(0x00, 0x20)\n      swap1\n      0x08\n      mul\n      add\n        /* \"contracts/CarreraCoches/principal.sol\":2492:2515  listaCoches[i].idPiloto */\n      0x00\n      add\n      0x00\n      swap1\n      sload\n      swap1\n      0x0100\n      exp\n      swap1\n      div\n      0xffffffffffffffffffffffffffffffffffffffff\n      and\n        /* \"contracts/CarreraCoches/principal.sol\":2492:2531  listaCoches[i].idPiloto == _propietario */\n      0xffffffffffffffffffffffffffffffffffffffff\n      and\n      eq\n        /* \"contracts/CarreraCoches/principal.sol\":2489:2635  if(listaCoches[i].idPiloto == _propietario){\r... */\n      iszero\n      tag_126\n      jumpi\n        /* \"contracts/CarreraCoches/principal.sol\":2551:2562  listaCoches */\n      0x06\n        /* \"contracts/CarreraCoches/principal.sol\":2563:2564  i */\n      dup2\n        /* \"contracts/CarreraCoches/principal.sol\":2551:2565  listaCoches[i] */\n      dup2\n      sload\n      dup2\n      lt\n      tag_127\n      jumpi\n      tag_128\n      tag_111\n      jump\t// in\n    tag_128:\n    tag_127:\n      swap1\n      0x00\n      mstore\n      keccak256(0x00, 0x20)\n      swap1\n      0x08\n      mul\n      add\n        /* \"contracts/CarreraCoches/principal.sol\":2551:2571  listaCoches[i].nivel */\n      0x07\n      add\n      0x00\n        /* \"contracts/CarreraCoches/principal.sol\":2551:2573  listaCoches[i].nivel++ */\n      dup2\n      dup2\n      swap1\n      sload\n      swap1\n      0x0100\n      exp\n      swap1\n      div\n      0xffffffff\n      and\n      dup1\n      swap3\n      swap2\n      swap1\n      tag_130\n      swap1\n      tag_131\n      jump\t// in\n    tag_130:\n      swap2\n      swap1\n      0x0100\n      exp\n      dup2\n      sload\n      dup2\n      0xffffffff\n      mul\n      not\n      and\n      swap1\n      dup4\n      0xffffffff\n      and\n      mul\n      or\n      swap1\n      sstore\n      pop\n      pop\n        /* \"contracts/CarreraCoches/principal.sol\":2592:2619  return \"Ha subido de nivel\" */\n      mload(0x40)\n      dup1\n      0x40\n      add\n      0x40\n      mstore\n      dup1\n      0x12\n      dup2\n      mstore\n      0x20\n      add\n      0x48612073756269646f206465206e6976656c0000000000000000000000000000\n      dup2\n      mstore\n      pop\n      swap2\n      pop\n      pop\n      jump(tag_118)\n        /* \"contracts/CarreraCoches/principal.sol\":2489:2635  if(listaCoches[i].idPiloto == _propietario){\r... */\n    tag_126:\n        /* \"contracts/CarreraCoches/principal.sol\":2470:2473  i++ */\n      dup1\n      dup1\n      tag_132\n      swap1\n      tag_102\n      jump\t// in\n    tag_132:\n      swap2\n      pop\n      pop\n        /* \"contracts/CarreraCoches/principal.sol\":2430:2646  for(uint i = 0; i < listaCoches.length; i++){\r... */\n      jump(tag_120)\n    tag_121:\n      pop\n        /* \"contracts/CarreraCoches/principal.sol\":2294:2653  function subirDeNivel(address _propietario) external payable returns(string memory) {\r... */\n    tag_118:\n      swap2\n      swap1\n      pop\n      jump\t// out\n        /* \"contracts/CarreraCoches/principal.sol\":3686:4958  function Apostar(uint dineroApostar) public payable returns(string memory) {\r... */\n    tag_46:\n        /* \"contracts/CarreraCoches/principal.sol\":3746:3759  string memory */\n      0x60\n        /* \"contracts/CarreraCoches/principal.sol\":3792:3805  dineroApostar */\n      dup2\n        /* \"contracts/CarreraCoches/principal.sol\":3779:3788  msg.value */\n      callvalue\n        /* \"contracts/CarreraCoches/principal.sol\":3779:3805  msg.value == dineroApostar */\n      eq\n        /* \"contracts/CarreraCoches/principal.sol\":3771:3806  require(msg.value == dineroApostar) */\n      tag_134\n      jumpi\n      0x00\n      dup1\n      revert\n    tag_134:\n        /* \"contracts/CarreraCoches/principal.sol\":3827:3836  randNonce */\n      0x01\n      0x00\n        /* \"contracts/CarreraCoches/principal.sol\":3827:3838  randNonce++ */\n      dup2\n      sload\n      dup1\n      swap3\n      swap2\n      swap1\n      tag_135\n      swap1\n      tag_102\n      jump\t// in\n    tag_135:\n      swap2\n      swap1\n      pop\n      sstore\n      pop\n        /* \"contracts/CarreraCoches/principal.sol\":3885:3898  uint256 rival */\n      0x00\n        /* \"contracts/CarreraCoches/principal.sol\":3988:3999  listaCoches */\n      0x06\n        /* \"contracts/CarreraCoches/principal.sol\":3988:4006  listaCoches.length */\n      dup1\n      sload\n      swap1\n      pop\n        /* \"contracts/CarreraCoches/principal.sol\":3936:3951  block.timestamp */\n      timestamp\n        /* \"contracts/CarreraCoches/principal.sol\":3953:3964  listaCoches */\n      0x06\n        /* \"contracts/CarreraCoches/principal.sol\":3953:3971  listaCoches.length */\n      dup1\n      sload\n      swap1\n      pop\n        /* \"contracts/CarreraCoches/principal.sol\":3973:3982  randNonce */\n      sload(0x01)\n        /* \"contracts/CarreraCoches/principal.sol\":3919:3983  abi.encodePacked(block.timestamp, listaCoches.length, randNonce) */\n      add(0x20, mload(0x40))\n      tag_136\n      swap4\n      swap3\n      swap2\n      swap1\n      tag_137\n      jump\t// in\n    tag_136:\n      mload(0x40)\n      0x20\n      dup2\n      dup4\n      sub\n      sub\n      dup2\n      mstore\n      swap1\n      0x40\n      mstore\n        /* \"contracts/CarreraCoches/principal.sol\":3909:3984  keccak256(abi.encodePacked(block.timestamp, listaCoches.length, randNonce)) */\n      dup1\n      mload\n      swap1\n      0x20\n      add\n      keccak256\n        /* \"contracts/CarreraCoches/principal.sol\":3901:3985  uint256(keccak256(abi.encodePacked(block.timestamp, listaCoches.length, randNonce))) */\n      0x00\n      shr\n        /* \"contracts/CarreraCoches/principal.sol\":3901:4006  uint256(keccak256(abi.encodePacked(block.timestamp, listaCoches.length, randNonce))) % listaCoches.length */\n      tag_138\n      swap2\n      swap1\n      tag_139\n      jump\t// in\n    tag_138:\n        /* \"contracts/CarreraCoches/principal.sol\":3885:4006  uint256 rival = uint256(keccak256(abi.encodePacked(block.timestamp, listaCoches.length, randNonce))) % listaCoches.length */\n      swap1\n      pop\n        /* \"contracts/CarreraCoches/principal.sol\":4049:4058  randNonce */\n      0x01\n      0x00\n        /* \"contracts/CarreraCoches/principal.sol\":4049:4060  randNonce++ */\n      dup2\n      sload\n      dup1\n      swap3\n      swap2\n      swap1\n      tag_140\n      swap1\n      tag_102\n      jump\t// in\n    tag_140:\n      swap2\n      swap1\n      pop\n      sstore\n      pop\n        /* \"contracts/CarreraCoches/principal.sol\":4071:4082  uint numero */\n      0x00\n        /* \"contracts/CarreraCoches/principal.sol\":4085:4086  2 */\n      0x02\n        /* \"contracts/CarreraCoches/principal.sol\":4071:4086  uint numero = 2 */\n      swap1\n      pop\n        /* \"contracts/CarreraCoches/principal.sol\":4097:4112  uint256 ganador */\n      0x00\n        /* \"contracts/CarreraCoches/principal.sol\":4190:4196  numero */\n      dup2\n        /* \"contracts/CarreraCoches/principal.sol\":4150:4165  block.timestamp */\n      timestamp\n        /* \"contracts/CarreraCoches/principal.sol\":4167:4173  numero */\n      dup4\n        /* \"contracts/CarreraCoches/principal.sol\":4175:4184  randNonce */\n      sload(0x01)\n        /* \"contracts/CarreraCoches/principal.sol\":4133:4185  abi.encodePacked(block.timestamp, numero, randNonce) */\n      add(0x20, mload(0x40))\n      tag_141\n      swap4\n      swap3\n      swap2\n      swap1\n      tag_137\n      jump\t// in\n    tag_141:\n      mload(0x40)\n      0x20\n      dup2\n      dup4\n      sub\n      sub\n      dup2\n      mstore\n      swap1\n      0x40\n      mstore\n        /* \"contracts/CarreraCoches/principal.sol\":4123:4186  keccak256(abi.encodePacked(block.timestamp, numero, randNonce)) */\n      dup1\n      mload\n      swap1\n      0x20\n      add\n      keccak256\n        /* \"contracts/CarreraCoches/principal.sol\":4115:4187  uint256(keccak256(abi.encodePacked(block.timestamp, numero, randNonce))) */\n      0x00\n      shr\n        /* \"contracts/CarreraCoches/principal.sol\":4115:4196  uint256(keccak256(abi.encodePacked(block.timestamp, numero, randNonce))) % numero */\n      tag_142\n      swap2\n      swap1\n      tag_139\n      jump\t// in\n    tag_142:\n        /* \"contracts/CarreraCoches/principal.sol\":4097:4196  uint256 ganador = uint256(keccak256(abi.encodePacked(block.timestamp, numero, randNonce))) % numero */\n      swap1\n      pop\n        /* \"contracts/CarreraCoches/principal.sol\":4213:4219  uint i */\n      0x00\n        /* \"contracts/CarreraCoches/principal.sol\":4209:4952  for(uint i = 0; i < listaCoches.length; i++){\r... */\n    tag_143:\n        /* \"contracts/CarreraCoches/principal.sol\":4229:4240  listaCoches */\n      0x06\n        /* \"contracts/CarreraCoches/principal.sol\":4229:4247  listaCoches.length */\n      dup1\n      sload\n      swap1\n      pop\n        /* \"contracts/CarreraCoches/principal.sol\":4225:4226  i */\n      dup2\n        /* \"contracts/CarreraCoches/principal.sol\":4225:4247  i < listaCoches.length */\n      lt\n        /* \"contracts/CarreraCoches/principal.sol\":4209:4952  for(uint i = 0; i < listaCoches.length; i++){\r... */\n      iszero\n      tag_144\n      jumpi\n        /* \"contracts/CarreraCoches/principal.sol\":4356:4367  listaCoches */\n      0x06\n        /* \"contracts/CarreraCoches/principal.sol\":4368:4369  i */\n      dup2\n        /* \"contracts/CarreraCoches/principal.sol\":4356:4370  listaCoches[i] */\n      dup2\n      sload\n      dup2\n      lt\n      tag_146\n      jumpi\n      tag_147\n      tag_111\n      jump\t// in\n    tag_147:\n    tag_146:\n      swap1\n      0x00\n      mstore\n      keccak256(0x00, 0x20)\n      swap1\n      0x08\n      mul\n      add\n        /* \"contracts/CarreraCoches/principal.sol\":4356:4379  listaCoches[i].idPiloto */\n      0x00\n      add\n      0x00\n      swap1\n      sload\n      swap1\n      0x0100\n      exp\n      swap1\n      div\n      0xffffffffffffffffffffffffffffffffffffffff\n      and\n        /* \"contracts/CarreraCoches/principal.sol\":4342:4379  msg.sender == listaCoches[i].idPiloto */\n      0xffffffffffffffffffffffffffffffffffffffff\n      and\n        /* \"contracts/CarreraCoches/principal.sol\":4342:4352  msg.sender */\n      caller\n        /* \"contracts/CarreraCoches/principal.sol\":4342:4379  msg.sender == listaCoches[i].idPiloto */\n      0xffffffffffffffffffffffffffffffffffffffff\n      and\n      eq\n        /* \"contracts/CarreraCoches/principal.sol\":4338:4941  if (msg.sender == listaCoches[i].idPiloto) {\r... */\n      iszero\n      tag_149\n      jumpi\n        /* \"contracts/CarreraCoches/principal.sol\":4414:4415  0 */\n      0x00\n        /* \"contracts/CarreraCoches/principal.sol\":4403:4410  ganador */\n      dup3\n        /* \"contracts/CarreraCoches/principal.sol\":4403:4415  ganador == 0 */\n      eq\n        /* \"contracts/CarreraCoches/principal.sol\":4400:4825  if(ganador == 0){\r... */\n      iszero\n      tag_150\n      jumpi\n        /* \"contracts/CarreraCoches/principal.sol\":4439:4448  balance() */\n      tag_151\n        /* \"contracts/CarreraCoches/principal.sol\":4439:4446  balance */\n      tag_152\n        /* \"contracts/CarreraCoches/principal.sol\":4439:4448  balance() */\n      jump\t// in\n    tag_151:\n        /* \"contracts/CarreraCoches/principal.sol\":4471:4482  listaCoches */\n      0x06\n        /* \"contracts/CarreraCoches/principal.sol\":4483:4484  i */\n      dup2\n        /* \"contracts/CarreraCoches/principal.sol\":4471:4485  listaCoches[i] */\n      dup2\n      sload\n      dup2\n      lt\n      tag_153\n      jumpi\n      tag_154\n      tag_111\n      jump\t// in\n    tag_154:\n    tag_153:\n      swap1\n      0x00\n      mstore\n      keccak256(0x00, 0x20)\n      swap1\n      0x08\n      mul\n      add\n        /* \"contracts/CarreraCoches/principal.sol\":4471:4501  listaCoches[i].carrerasGanadas */\n      0x04\n      add\n      0x00\n        /* \"contracts/CarreraCoches/principal.sol\":4471:4503  listaCoches[i].carrerasGanadas++ */\n      dup2\n      sload\n      dup1\n      swap3\n      swap2\n      swap1\n      tag_156\n      swap1\n      tag_102\n      jump\t// in\n    tag_156:\n      swap2\n      swap1\n      pop\n      sstore\n      pop\n        /* \"contracts/CarreraCoches/principal.sol\":4526:4537  listaCoches */\n      0x06\n        /* \"contracts/CarreraCoches/principal.sol\":4538:4539  i */\n      dup2\n        /* \"contracts/CarreraCoches/principal.sol\":4526:4540  listaCoches[i] */\n      dup2\n      sload\n      dup2\n      lt\n      tag_157\n      jumpi\n      tag_158\n      tag_111\n      jump\t// in\n    tag_158:\n    tag_157:\n      swap1\n      0x00\n      mstore\n      keccak256(0x00, 0x20)\n      swap1\n      0x08\n      mul\n      add\n        /* \"contracts/CarreraCoches/principal.sol\":4526:4546  listaCoches[i].nivel */\n      0x07\n      add\n      0x00\n        /* \"contracts/CarreraCoches/principal.sol\":4526:4548  listaCoches[i].nivel++ */\n      dup2\n      dup2\n      swap1\n      sload\n      swap1\n      0x0100\n      exp\n      swap1\n      div\n      0xffffffff\n      and\n      dup1\n      swap3\n      swap2\n      swap1\n      tag_160\n      swap1\n      tag_131\n      jump\t// in\n    tag_160:\n      swap2\n      swap1\n      0x0100\n      exp\n      dup2\n      sload\n      dup2\n      0xffffffff\n      mul\n      not\n      and\n      swap1\n      dup4\n      0xffffffff\n      and\n      mul\n      or\n      swap1\n      sstore\n      pop\n      pop\n        /* \"contracts/CarreraCoches/principal.sol\":4571:4590  return \"Has ganado\" */\n      mload(0x40)\n      dup1\n      0x40\n      add\n      0x40\n      mstore\n      dup1\n      0x0a\n      dup2\n      mstore\n      0x20\n      add\n      0x4861732067616e61646f00000000000000000000000000000000000000000000\n      dup2\n      mstore\n      pop\n      swap5\n      pop\n      pop\n      pop\n      pop\n      pop\n      jump(tag_133)\n        /* \"contracts/CarreraCoches/principal.sol\":4400:4825  if(ganador == 0){\r... */\n    tag_150:\n        /* \"contracts/CarreraCoches/principal.sol\":4714:4762  mostrarResultado(\"El coche ganador es: \", rival) */\n      0xa28482eec3136a2461c6c30c08f71ba279c6c51a2d9c7bea4e50d6d2632f3896\n        /* \"contracts/CarreraCoches/principal.sol\":4756:4761  rival */\n      dup5\n        /* \"contracts/CarreraCoches/principal.sol\":4714:4762  mostrarResultado(\"El coche ganador es: \", rival) */\n      mload(0x40)\n      tag_162\n      swap2\n      swap1\n      tag_163\n      jump\t// in\n    tag_162:\n      mload(0x40)\n      dup1\n      swap2\n      sub\n      swap1\n      log1\n        /* \"contracts/CarreraCoches/principal.sol\":4785:4805  return \"Has perdido\" */\n      mload(0x40)\n      dup1\n      0x40\n      add\n      0x40\n      mstore\n      dup1\n      0x0b\n      dup2\n      mstore\n      0x20\n      add\n      0x486173207065726469646f000000000000000000000000000000000000000000\n      dup2\n      mstore\n      pop\n      swap5\n      pop\n      pop\n      pop\n      pop\n      pop\n      jump(tag_133)\n        /* \"contracts/CarreraCoches/principal.sol\":4338:4941  if (msg.sender == listaCoches[i].idPiloto) {\r... */\n    tag_149:\n        /* \"contracts/CarreraCoches/principal.sol\":4249:4252  i++ */\n      dup1\n      dup1\n      tag_173\n      swap1\n      tag_102\n      jump\t// in\n    tag_173:\n      swap2\n      pop\n      pop\n        /* \"contracts/CarreraCoches/principal.sol\":4209:4952  for(uint i = 0; i < listaCoches.length; i++){\r... */\n      jump(tag_143)\n    tag_144:\n      pop\n        /* \"contracts/CarreraCoches/principal.sol\":3761:4958  {\r... */\n      pop\n      pop\n      pop\n        /* \"contracts/CarreraCoches/principal.sol\":3686:4958  function Apostar(uint dineroApostar) public payable returns(string memory) {\r... */\n    tag_133:\n      swap2\n      swap1\n      pop\n      jump\t// out\n        /* \"contracts/CarreraCoches/ownable.sol\":1719:1822  function renounceOwnership() public virtual onlyOwner {\r... */\n    tag_50:\n        /* \"contracts/CarreraCoches/ownable.sol\":1299:1311  _msgSender() */\n      tag_175\n        /* \"contracts/CarreraCoches/ownable.sol\":1299:1309  _msgSender */\n      tag_81\n        /* \"contracts/CarreraCoches/ownable.sol\":1299:1311  _msgSender() */\n      jump\t// in\n    tag_175:\n        /* \"contracts/CarreraCoches/ownable.sol\":1288:1311  owner() == _msgSender() */\n      0xffffffffffffffffffffffffffffffffffffffff\n      and\n        /* \"contracts/CarreraCoches/ownable.sol\":1288:1295  owner() */\n      tag_176\n        /* \"contracts/CarreraCoches/ownable.sol\":1288:1293  owner */\n      tag_59\n        /* \"contracts/CarreraCoches/ownable.sol\":1288:1295  owner() */\n      jump\t// in\n    tag_176:\n        /* \"contracts/CarreraCoches/ownable.sol\":1288:1311  owner() == _msgSender() */\n      0xffffffffffffffffffffffffffffffffffffffff\n      and\n      eq\n        /* \"contracts/CarreraCoches/ownable.sol\":1280:1348  require(owner() == _msgSender(), \"Ownable: caller is not the owner\") */\n      tag_177\n      jumpi\n      mload(0x40)\n      0x08c379a000000000000000000000000000000000000000000000000000000000\n      dup2\n      mstore\n      0x04\n      add\n      tag_178\n      swap1\n      tag_85\n      jump\t// in\n    tag_178:\n      mload(0x40)\n      dup1\n      swap2\n      sub\n      swap1\n      revert\n    tag_177:\n        /* \"contracts/CarreraCoches/ownable.sol\":1784:1814  _transferOwnership(address(0)) */\n      tag_180\n        /* \"contracts/CarreraCoches/ownable.sol\":1811:1812  0 */\n      0x00\n        /* \"contracts/CarreraCoches/ownable.sol\":1784:1802  _transferOwnership */\n      tag_181\n        /* \"contracts/CarreraCoches/ownable.sol\":1784:1814  _transferOwnership(address(0)) */\n      jump\t// in\n    tag_180:\n        /* \"contracts/CarreraCoches/ownable.sol\":1719:1822  function renounceOwnership() public virtual onlyOwner {\r... */\n      jump\t// out\n        /* \"contracts/CarreraCoches/principal.sol\":851:902  mapping (uint => address) public cocheDePropietario */\n    tag_54:\n      mstore(0x20, 0x07)\n      dup1\n      0x00\n      mstore\n      keccak256(0x00, 0x40)\n      0x00\n      swap2\n      pop\n      sload\n      swap1\n      0x0100\n      exp\n      swap1\n      div\n      0xffffffffffffffffffffffffffffffffffffffff\n      and\n      dup2\n      jump\t// out\n        /* \"contracts/CarreraCoches/ownable.sol\":1068:1155  function owner() public view virtual returns (address) {\r... */\n    tag_59:\n        /* \"contracts/CarreraCoches/ownable.sol\":1114:1121  address */\n      0x00\n        /* \"contracts/CarreraCoches/ownable.sol\":1141:1147  _owner */\n      dup1\n      0x00\n      swap1\n      sload\n      swap1\n      0x0100\n      exp\n      swap1\n      div\n      0xffffffffffffffffffffffffffffffffffffffff\n      and\n        /* \"contracts/CarreraCoches/ownable.sol\":1134:1147  return _owner */\n      swap1\n      pop\n        /* \"contracts/CarreraCoches/ownable.sol\":1068:1155  function owner() public view virtual returns (address) {\r... */\n      swap1\n      jump\t// out\n        /* \"contracts/CarreraCoches/ownable.sol\":701:722  address public _owner */\n    tag_63:\n      0x00\n      dup1\n      sload\n      swap1\n      0x0100\n      exp\n      swap1\n      div\n      0xffffffffffffffffffffffffffffffffffffffff\n      and\n      dup2\n      jump\t// out\n        /* \"contracts/CarreraCoches/principal.sol\":604:630  Coche[] public listaCoches */\n    tag_68:\n      0x06\n      dup2\n      dup2\n      sload\n      dup2\n      lt\n      tag_183\n      jumpi\n      0x00\n      dup1\n      revert\n    tag_183:\n      swap1\n      0x00\n      mstore\n      keccak256(0x00, 0x20)\n      swap1\n      0x08\n      mul\n      add\n      0x00\n      swap2\n      pop\n      swap1\n      pop\n      dup1\n      0x00\n      add\n      0x00\n      swap1\n      sload\n      swap1\n      0x0100\n      exp\n      swap1\n      div\n      0xffffffffffffffffffffffffffffffffffffffff\n      and\n      swap1\n      dup1\n      0x01\n      add\n      dup1\n      sload\n      tag_185\n      swap1\n      tag_186\n      jump\t// in\n    tag_185:\n      dup1\n      0x1f\n      add\n      0x20\n      dup1\n      swap2\n      div\n      mul\n      0x20\n      add\n      mload(0x40)\n      swap1\n      dup2\n      add\n      0x40\n      mstore\n      dup1\n      swap3\n      swap2\n      swap1\n      dup2\n      dup2\n      mstore\n      0x20\n      add\n      dup3\n      dup1\n      sload\n      tag_187\n      swap1\n      tag_186\n      jump\t// in\n    tag_187:\n      dup1\n      iszero\n      tag_188\n      jumpi\n      dup1\n      0x1f\n      lt\n      tag_189\n      jumpi\n      0x0100\n      dup1\n      dup4\n      sload\n      div\n      mul\n      dup4\n      mstore\n      swap2\n      0x20\n      add\n      swap2\n      jump(tag_188)\n    tag_189:\n      dup3\n      add\n      swap2\n      swap1\n      0x00\n      mstore\n      keccak256(0x00, 0x20)\n      swap1\n    tag_190:\n      dup2\n      sload\n      dup2\n      mstore\n      swap1\n      0x01\n      add\n      swap1\n      0x20\n      add\n      dup1\n      dup4\n      gt\n      tag_190\n      jumpi\n      dup3\n      swap1\n      sub\n      0x1f\n      and\n      dup3\n      add\n      swap2\n    tag_188:\n      pop\n      pop\n      pop\n      pop\n      pop\n      swap1\n      dup1\n      0x02\n      add\n      dup1\n      sload\n      tag_191\n      swap1\n      tag_186\n      jump\t// in\n    tag_191:\n      dup1\n      0x1f\n      add\n      0x20\n      dup1\n      swap2\n      div\n      mul\n      0x20\n      add\n      mload(0x40)\n      swap1\n      dup2\n      add\n      0x40\n      mstore\n      dup1\n      swap3\n      swap2\n      swap1\n      dup2\n      dup2\n      mstore\n      0x20\n      add\n      dup3\n      dup1\n      sload\n      tag_192\n      swap1\n      tag_186\n      jump\t// in\n    tag_192:\n      dup1\n      iszero\n      tag_193\n      jumpi\n      dup1\n      0x1f\n      lt\n      tag_194\n      jumpi\n      0x0100\n      dup1\n      dup4\n      sload\n      div\n      mul\n      dup4\n      mstore\n      swap2\n      0x20\n      add\n      swap2\n      jump(tag_193)\n    tag_194:\n      dup3\n      add\n      swap2\n      swap1\n      0x00\n      mstore\n      keccak256(0x00, 0x20)\n      swap1\n    tag_195:\n      dup2\n      sload\n      dup2\n      mstore\n      swap1\n      0x01\n      add\n      swap1\n      0x20\n      add\n      dup1\n      dup4\n      gt\n      tag_195\n      jumpi\n      dup3\n      swap1\n      sub\n      0x1f\n      and\n      dup3\n      add\n      swap2\n    tag_193:\n      pop\n      pop\n      pop\n      pop\n      pop\n      swap1\n      dup1\n      0x03\n      add\n      dup1\n      sload\n      tag_196\n      swap1\n      tag_186\n      jump\t// in\n    tag_196:\n      dup1\n      0x1f\n      add\n      0x20\n      dup1\n      swap2\n      div\n      mul\n      0x20\n      add\n      mload(0x40)\n      swap1\n      dup2\n      add\n      0x40\n      mstore\n      dup1\n      swap3\n      swap2\n      swap1\n      dup2\n      dup2\n      mstore\n      0x20\n      add\n      dup3\n      dup1\n      sload\n      tag_197\n      swap1\n      tag_186\n      jump\t// in\n    tag_197:\n      dup1\n      iszero\n      tag_198\n      jumpi\n      dup1\n      0x1f\n      lt\n      tag_199\n      jumpi\n      0x0100\n      dup1\n      dup4\n      sload\n      div\n      mul\n      dup4\n      mstore\n      swap2\n      0x20\n      add\n      swap2\n      jump(tag_198)\n    tag_199:\n      dup3\n      add\n      swap2\n      swap1\n      0x00\n      mstore\n      keccak256(0x00, 0x20)\n      swap1\n    tag_200:\n      dup2\n      sload\n      dup2\n      mstore\n      swap1\n      0x01\n      add\n      swap1\n      0x20\n      add\n      dup1\n      dup4\n      gt\n      tag_200\n      jumpi\n      dup3\n      swap1\n      sub\n      0x1f\n      and\n      dup3\n      add\n      swap2\n    tag_198:\n      pop\n      pop\n      pop\n      pop\n      pop\n      swap1\n      dup1\n      0x04\n      add\n      sload\n      swap1\n      dup1\n      0x05\n      add\n      sload\n      swap1\n      dup1\n      0x06\n      add\n      sload\n      swap1\n      dup1\n      0x07\n      add\n      0x00\n      swap1\n      sload\n      swap1\n      0x0100\n      exp\n      swap1\n      div\n      0xffffffff\n      and\n      swap1\n      pop\n      dup9\n      jump\t// out\n        /* \"contracts/CarreraCoches/principal.sol\":2661:3005  function verCochePropietario(address _propietario) external {\r... */\n    tag_74:\n        /* \"contracts/CarreraCoches/principal.sol\":2736:2742  uint i */\n      0x00\n        /* \"contracts/CarreraCoches/principal.sol\":2732:2998  for(uint i = 0; i < listaCoches.length; i++){\r... */\n    tag_202:\n        /* \"contracts/CarreraCoches/principal.sol\":2752:2763  listaCoches */\n      0x06\n        /* \"contracts/CarreraCoches/principal.sol\":2752:2770  listaCoches.length */\n      dup1\n      sload\n      swap1\n      pop\n        /* \"contracts/CarreraCoches/principal.sol\":2748:2749  i */\n      dup2\n        /* \"contracts/CarreraCoches/principal.sol\":2748:2770  i < listaCoches.length */\n      lt\n        /* \"contracts/CarreraCoches/principal.sol\":2732:2998  for(uint i = 0; i < listaCoches.length; i++){\r... */\n      iszero\n      tag_203\n      jumpi\n        /* \"contracts/CarreraCoches/principal.sol\":2819:2831  _propietario */\n      dup2\n        /* \"contracts/CarreraCoches/principal.sol\":2794:2831  listaCoches[i].idPiloto==_propietario */\n      0xffffffffffffffffffffffffffffffffffffffff\n      and\n        /* \"contracts/CarreraCoches/principal.sol\":2794:2805  listaCoches */\n      0x06\n        /* \"contracts/CarreraCoches/principal.sol\":2806:2807  i */\n      dup3\n        /* \"contracts/CarreraCoches/principal.sol\":2794:2808  listaCoches[i] */\n      dup2\n      sload\n      dup2\n      lt\n      tag_205\n      jumpi\n      tag_206\n      tag_111\n      jump\t// in\n    tag_206:\n    tag_205:\n      swap1\n      0x00\n      mstore\n      keccak256(0x00, 0x20)\n      swap1\n      0x08\n      mul\n      add\n        /* \"contracts/CarreraCoches/principal.sol\":2794:2817  listaCoches[i].idPiloto */\n      0x00\n      add\n      0x00\n      swap1\n      sload\n      swap1\n      0x0100\n      exp\n      swap1\n      div\n      0xffffffffffffffffffffffffffffffffffffffff\n      and\n        /* \"contracts/CarreraCoches/principal.sol\":2794:2831  listaCoches[i].idPiloto==_propietario */\n      0xffffffffffffffffffffffffffffffffffffffff\n      and\n      eq\n        /* \"contracts/CarreraCoches/principal.sol\":2791:2987  if(listaCoches[i].idPiloto==_propietario){\r... */\n      iszero\n      tag_208\n      jumpi\n        /* \"contracts/CarreraCoches/principal.sol\":2856:2971  cochePropietario(listaCoches[i].marca, listaCoches[i].modelo, listaCoches[i].nivel, listaCoches[i].carrerasGanadas) */\n      0x18c2885dbbffc4e127da047b869295b42d8d5ee97848f7f117b062e88f34a9e6\n        /* \"contracts/CarreraCoches/principal.sol\":2873:2884  listaCoches */\n      0x06\n        /* \"contracts/CarreraCoches/principal.sol\":2885:2886  i */\n      dup3\n        /* \"contracts/CarreraCoches/principal.sol\":2873:2887  listaCoches[i] */\n      dup2\n      sload\n      dup2\n      lt\n      tag_209\n      jumpi\n      tag_210\n      tag_111\n      jump\t// in\n    tag_210:\n    tag_209:\n      swap1\n      0x00\n      mstore\n      keccak256(0x00, 0x20)\n      swap1\n      0x08\n      mul\n      add\n        /* \"contracts/CarreraCoches/principal.sol\":2873:2893  listaCoches[i].marca */\n      0x02\n      add\n        /* \"contracts/CarreraCoches/principal.sol\":2895:2906  listaCoches */\n      0x06\n        /* \"contracts/CarreraCoches/principal.sol\":2907:2908  i */\n      dup4\n        /* \"contracts/CarreraCoches/principal.sol\":2895:2909  listaCoches[i] */\n      dup2\n      sload\n      dup2\n      lt\n      tag_212\n      jumpi\n      tag_213\n      tag_111\n      jump\t// in\n    tag_213:\n    tag_212:\n      swap1\n      0x00\n      mstore\n      keccak256(0x00, 0x20)\n      swap1\n      0x08\n      mul\n      add\n        /* \"contracts/CarreraCoches/principal.sol\":2895:2916  listaCoches[i].modelo */\n      0x01\n      add\n        /* \"contracts/CarreraCoches/principal.sol\":2918:2929  listaCoches */\n      0x06\n        /* \"contracts/CarreraCoches/principal.sol\":2930:2931  i */\n      dup5\n        /* \"contracts/CarreraCoches/principal.sol\":2918:2932  listaCoches[i] */\n      dup2\n      sload\n      dup2\n      lt\n      tag_215\n      jumpi\n      tag_216\n      tag_111\n      jump\t// in\n    tag_216:\n    tag_215:\n      swap1\n      0x00\n      mstore\n      keccak256(0x00, 0x20)\n      swap1\n      0x08\n      mul\n      add\n        /* \"contracts/CarreraCoches/principal.sol\":2918:2938  listaCoches[i].nivel */\n      0x07\n      add\n      0x00\n      swap1\n      sload\n      swap1\n      0x0100\n      exp\n      swap1\n      div\n      0xffffffff\n      and\n        /* \"contracts/CarreraCoches/principal.sol\":2940:2951  listaCoches */\n      0x06\n        /* \"contracts/CarreraCoches/principal.sol\":2952:2953  i */\n      dup6\n        /* \"contracts/CarreraCoches/principal.sol\":2940:2954  listaCoches[i] */\n      dup2\n      sload\n      dup2\n      lt\n      tag_218\n      jumpi\n      tag_219\n      tag_111\n      jump\t// in\n    tag_219:\n    tag_218:\n      swap1\n      0x00\n      mstore\n      keccak256(0x00, 0x20)\n      swap1\n      0x08\n      mul\n      add\n        /* \"contracts/CarreraCoches/principal.sol\":2940:2970  listaCoches[i].carrerasGanadas */\n      0x04\n      add\n      sload\n        /* \"contracts/CarreraCoches/principal.sol\":2856:2971  cochePropietario(listaCoches[i].marca, listaCoches[i].modelo, listaCoches[i].nivel, listaCoches[i].carrerasGanadas) */\n      mload(0x40)\n      tag_221\n      swap5\n      swap4\n      swap3\n      swap2\n      swap1\n      tag_222\n      jump\t// in\n    tag_221:\n      mload(0x40)\n      dup1\n      swap2\n      sub\n      swap1\n      log1\n        /* \"contracts/CarreraCoches/principal.sol\":2791:2987  if(listaCoches[i].idPiloto==_propietario){\r... */\n    tag_208:\n        /* \"contracts/CarreraCoches/principal.sol\":2772:2775  i++ */\n      dup1\n      dup1\n      tag_223\n      swap1\n      tag_102\n      jump\t// in\n    tag_223:\n      swap2\n      pop\n      pop\n        /* \"contracts/CarreraCoches/principal.sol\":2732:2998  for(uint i = 0; i < listaCoches.length; i++){\r... */\n      jump(tag_202)\n    tag_203:\n      pop\n        /* \"contracts/CarreraCoches/principal.sol\":2661:3005  function verCochePropietario(address _propietario) external {\r... */\n      pop\n      jump\t// out\n        /* \"contracts/CarreraCoches/ownable.sol\":1977:2178  function transferOwnership(address newOwner) public virtual onlyOwner {\r... */\n    tag_78:\n        /* \"contracts/CarreraCoches/ownable.sol\":1299:1311  _msgSender() */\n      tag_225\n        /* \"contracts/CarreraCoches/ownable.sol\":1299:1309  _msgSender */\n      tag_81\n        /* \"contracts/CarreraCoches/ownable.sol\":1299:1311  _msgSender() */\n      jump\t// in\n    tag_225:\n        /* \"contracts/CarreraCoches/ownable.sol\":1288:1311  owner() == _msgSender() */\n      0xffffffffffffffffffffffffffffffffffffffff\n      and\n        /* \"contracts/CarreraCoches/ownable.sol\":1288:1295  owner() */\n      tag_226\n        /* \"contracts/CarreraCoches/ownable.sol\":1288:1293  owner */\n      tag_59\n        /* \"contracts/CarreraCoches/ownable.sol\":1288:1295  owner() */\n      jump\t// in\n    tag_226:\n        /* \"contracts/CarreraCoches/ownable.sol\":1288:1311  owner() == _msgSender() */\n      0xffffffffffffffffffffffffffffffffffffffff\n      and\n      eq\n        /* \"contracts/CarreraCoches/ownable.sol\":1280:1348  require(owner() == _msgSender(), \"Ownable: caller is not the owner\") */\n      tag_227\n      jumpi\n      mload(0x40)\n      0x08c379a000000000000000000000000000000000000000000000000000000000\n      dup2\n      mstore\n      0x04\n      add\n      tag_228\n      swap1\n      tag_85\n      jump\t// in\n    tag_228:\n      mload(0x40)\n      dup1\n      swap2\n      sub\n      swap1\n      revert\n    tag_227:\n        /* \"contracts/CarreraCoches/ownable.sol\":2086:2087  0 */\n      0x00\n        /* \"contracts/CarreraCoches/ownable.sol\":2066:2088  newOwner != address(0) */\n      0xffffffffffffffffffffffffffffffffffffffff\n      and\n        /* \"contracts/CarreraCoches/ownable.sol\":2066:2074  newOwner */\n      dup2\n        /* \"contracts/CarreraCoches/ownable.sol\":2066:2088  newOwner != address(0) */\n      0xffffffffffffffffffffffffffffffffffffffff\n      and\n      eq\n      iszero\n        /* \"contracts/CarreraCoches/ownable.sol\":2058:2131  require(newOwner != address(0), \"Ownable: new owner is the zero address\") */\n      tag_230\n      jumpi\n      mload(0x40)\n      0x08c379a000000000000000000000000000000000000000000000000000000000\n      dup2\n      mstore\n      0x04\n      add\n      tag_231\n      swap1\n      tag_232\n      jump\t// in\n    tag_231:\n      mload(0x40)\n      dup1\n      swap2\n      sub\n      swap1\n      revert\n    tag_230:\n        /* \"contracts/CarreraCoches/ownable.sol\":2142:2170  _transferOwnership(newOwner) */\n      tag_233\n        /* \"contracts/CarreraCoches/ownable.sol\":2161:2169  newOwner */\n      dup2\n        /* \"contracts/CarreraCoches/ownable.sol\":2142:2160  _transferOwnership */\n      tag_181\n        /* \"contracts/CarreraCoches/ownable.sol\":2142:2170  _transferOwnership(newOwner) */\n      jump\t// in\n    tag_233:\n        /* \"contracts/CarreraCoches/ownable.sol\":1977:2178  function transferOwnership(address newOwner) public virtual onlyOwner {\r... */\n      pop\n      jump\t// out\n        /* \"contracts/CarreraCoches/utils/Context.sol\":656:754  function _msgSender() internal view virtual returns (address) {\r... */\n    tag_81:\n        /* \"contracts/CarreraCoches/utils/Context.sol\":709:716  address */\n      0x00\n        /* \"contracts/CarreraCoches/utils/Context.sol\":736:746  msg.sender */\n      caller\n        /* \"contracts/CarreraCoches/utils/Context.sol\":729:746  return msg.sender */\n      swap1\n      pop\n        /* \"contracts/CarreraCoches/utils/Context.sol\":656:754  function _msgSender() internal view virtual returns (address) {\r... */\n      swap1\n      jump\t// out\n        /* \"contracts/CarreraCoches/principal.sol\":5015:5113  function balance() private {\r... */\n    tag_152:\n        /* \"contracts/CarreraCoches/principal.sol\":5062:5072  msg.sender */\n      caller\n        /* \"contracts/CarreraCoches/principal.sol\":5053:5082  payable (msg.sender).transfer */\n      0xffffffffffffffffffffffffffffffffffffffff\n      and\n        /* \"contracts/CarreraCoches/principal.sol\":5053:5105  payable (msg.sender).transfer(address(this).balance) */\n      0x08fc\n        /* \"contracts/CarreraCoches/principal.sol\":5083:5104  address(this).balance */\n      selfbalance\n        /* \"contracts/CarreraCoches/principal.sol\":5053:5105  payable (msg.sender).transfer(address(this).balance) */\n      swap1\n      dup2\n      iszero\n      mul\n      swap1\n      mload(0x40)\n      0x00\n      mload(0x40)\n      dup1\n      dup4\n      sub\n      dup2\n      dup6\n      dup9\n      dup9\n      call\n      swap4\n      pop\n      pop\n      pop\n      pop\n      iszero\n      dup1\n      iszero\n      tag_237\n      jumpi\n      returndatasize\n      0x00\n      dup1\n      returndatacopy\n      revert(0x00, returndatasize)\n    tag_237:\n      pop\n        /* \"contracts/CarreraCoches/principal.sol\":5015:5113  function balance() private {\r... */\n      jump\t// out\n        /* \"contracts/CarreraCoches/ownable.sol\":2338:2529  function _transferOwnership(address newOwner) internal virtual {\r... */\n    tag_181:\n        /* \"contracts/CarreraCoches/ownable.sol\":2412:2428  address oldOwner */\n      0x00\n        /* \"contracts/CarreraCoches/ownable.sol\":2431:2437  _owner */\n      dup1\n      0x00\n      swap1\n      sload\n      swap1\n      0x0100\n      exp\n      swap1\n      div\n      0xffffffffffffffffffffffffffffffffffffffff\n      and\n        /* \"contracts/CarreraCoches/ownable.sol\":2412:2437  address oldOwner = _owner */\n      swap1\n      pop\n        /* \"contracts/CarreraCoches/ownable.sol\":2457:2465  newOwner */\n      dup2\n        /* \"contracts/CarreraCoches/ownable.sol\":2448:2454  _owner */\n      0x00\n      dup1\n        /* \"contracts/CarreraCoches/ownable.sol\":2448:2465  _owner = newOwner */\n      0x0100\n      exp\n      dup2\n      sload\n      dup2\n      0xffffffffffffffffffffffffffffffffffffffff\n      mul\n      not\n      and\n      swap1\n      dup4\n      0xffffffffffffffffffffffffffffffffffffffff\n      and\n      mul\n      or\n      swap1\n      sstore\n      pop\n        /* \"contracts/CarreraCoches/ownable.sol\":2512:2520  newOwner */\n      dup2\n        /* \"contracts/CarreraCoches/ownable.sol\":2481:2521  OwnershipTransferred(oldOwner, newOwner) */\n      0xffffffffffffffffffffffffffffffffffffffff\n      and\n        /* \"contracts/CarreraCoches/ownable.sol\":2502:2510  oldOwner */\n      dup2\n        /* \"contracts/CarreraCoches/ownable.sol\":2481:2521  OwnershipTransferred(oldOwner, newOwner) */\n      0xffffffffffffffffffffffffffffffffffffffff\n      and\n      0x8be0079c531659141344cd1fd0a4f28419497f9722a3daafe3b4186f6b6457e0\n      mload(0x40)\n      mload(0x40)\n      dup1\n      swap2\n      sub\n      swap1\n      log3\n        /* \"contracts/CarreraCoches/ownable.sol\":2401:2529  {\r... */\n      pop\n        /* \"contracts/CarreraCoches/ownable.sol\":2338:2529  function _transferOwnership(address newOwner) internal virtual {\r... */\n      pop\n      jump\t// out\n    tag_98:\n      dup3\n      dup1\n      sload\n      tag_241\n      swap1\n      tag_186\n      jump\t// in\n    tag_241:\n      swap1\n      0x00\n      mstore\n      keccak256(0x00, 0x20)\n      swap1\n      0x1f\n      add\n      0x20\n      swap1\n      div\n      dup2\n      add\n      swap3\n      dup3\n      tag_243\n      jumpi\n      0x00\n      dup6\n      sstore\n      jump(tag_242)\n    tag_243:\n      dup3\n      0x1f\n      lt\n      tag_244\n      jumpi\n      dup1\n      mload\n      not(0xff)\n      and\n      dup4\n      dup1\n      add\n      or\n      dup6\n      sstore\n      jump(tag_242)\n    tag_244:\n      dup3\n      dup1\n      add\n      0x01\n      add\n      dup6\n      sstore\n      dup3\n      iszero\n      tag_242\n      jumpi\n      swap2\n      dup3\n      add\n    tag_245:\n      dup3\n      dup2\n      gt\n      iszero\n      tag_246\n      jumpi\n      dup3\n      mload\n      dup3\n      sstore\n      swap2\n      0x20\n      add\n      swap2\n      swap1\n      0x01\n      add\n      swap1\n      jump(tag_245)\n    tag_246:\n    tag_242:\n      pop\n      swap1\n      pop\n      tag_247\n      swap2\n      swap1\n      tag_248\n      jump\t// in\n    tag_247:\n      pop\n      swap1\n      jump\t// out\n    tag_248:\n    tag_249:\n      dup1\n      dup3\n      gt\n      iszero\n      tag_250\n      jumpi\n      0x00\n      dup2\n      0x00\n      swap1\n      sstore\n      pop\n      0x01\n      add\n      jump(tag_249)\n    tag_250:\n      pop\n      swap1\n      jump\t// out\n        /* \"#utility.yul\":7:419   */\n    tag_252:\n        /* \"#utility.yul\":85:90   */\n      0x00\n        /* \"#utility.yul\":110:176   */\n      tag_254\n        /* \"#utility.yul\":126:175   */\n      tag_255\n        /* \"#utility.yul\":168:174   */\n      dup5\n        /* \"#utility.yul\":126:175   */\n      tag_256\n      jump\t// in\n    tag_255:\n        /* \"#utility.yul\":110:176   */\n      tag_257\n      jump\t// in\n    tag_254:\n        /* \"#utility.yul\":101:176   */\n      swap1\n      pop\n        /* \"#utility.yul\":199:205   */\n      dup3\n        /* \"#utility.yul\":192:197   */\n      dup2\n        /* \"#utility.yul\":185:206   */\n      mstore\n        /* \"#utility.yul\":237:241   */\n      0x20\n        /* \"#utility.yul\":230:235   */\n      dup2\n        /* \"#utility.yul\":226:242   */\n      add\n        /* \"#utility.yul\":275:278   */\n      dup5\n        /* \"#utility.yul\":266:272   */\n      dup5\n        /* \"#utility.yul\":261:264   */\n      dup5\n        /* \"#utility.yul\":257:273   */\n      add\n        /* \"#utility.yul\":254:279   */\n      gt\n        /* \"#utility.yul\":251:363   */\n      iszero\n      tag_258\n      jumpi\n        /* \"#utility.yul\":282:361   */\n      tag_259\n      tag_260\n      jump\t// in\n    tag_259:\n        /* \"#utility.yul\":251:363   */\n    tag_258:\n        /* \"#utility.yul\":372:413   */\n      tag_261\n        /* \"#utility.yul\":406:412   */\n      dup5\n        /* \"#utility.yul\":401:404   */\n      dup3\n        /* \"#utility.yul\":396:399   */\n      dup6\n        /* \"#utility.yul\":372:413   */\n      tag_262\n      jump\t// in\n    tag_261:\n        /* \"#utility.yul\":91:419   */\n      pop\n        /* \"#utility.yul\":7:419   */\n      swap4\n      swap3\n      pop\n      pop\n      pop\n      jump\t// out\n        /* \"#utility.yul\":425:564   */\n    tag_263:\n        /* \"#utility.yul\":471:476   */\n      0x00\n        /* \"#utility.yul\":509:515   */\n      dup2\n        /* \"#utility.yul\":496:516   */\n      calldataload\n        /* \"#utility.yul\":487:516   */\n      swap1\n      pop\n        /* \"#utility.yul\":525:558   */\n      tag_265\n        /* \"#utility.yul\":552:557   */\n      dup2\n        /* \"#utility.yul\":525:558   */\n      tag_266\n      jump\t// in\n    tag_265:\n        /* \"#utility.yul\":425:564   */\n      swap3\n      swap2\n      pop\n      pop\n      jump\t// out\n        /* \"#utility.yul\":584:924   */\n    tag_267:\n        /* \"#utility.yul\":640:645   */\n      0x00\n        /* \"#utility.yul\":689:692   */\n      dup3\n        /* \"#utility.yul\":682:686   */\n      0x1f\n        /* \"#utility.yul\":674:680   */\n      dup4\n        /* \"#utility.yul\":670:687   */\n      add\n        /* \"#utility.yul\":666:693   */\n      slt\n        /* \"#utility.yul\":656:778   */\n      tag_269\n      jumpi\n        /* \"#utility.yul\":697:776   */\n      tag_270\n      tag_271\n      jump\t// in\n    tag_270:\n        /* \"#utility.yul\":656:778   */\n    tag_269:\n        /* \"#utility.yul\":814:820   */\n      dup2\n        /* \"#utility.yul\":801:821   */\n      calldataload\n        /* \"#utility.yul\":839:918   */\n      tag_272\n        /* \"#utility.yul\":914:917   */\n      dup5\n        /* \"#utility.yul\":906:912   */\n      dup3\n        /* \"#utility.yul\":899:903   */\n      0x20\n        /* \"#utility.yul\":891:897   */\n      dup7\n        /* \"#utility.yul\":887:904   */\n      add\n        /* \"#utility.yul\":839:918   */\n      tag_252\n      jump\t// in\n    tag_272:\n        /* \"#utility.yul\":830:918   */\n      swap2\n      pop\n        /* \"#utility.yul\":646:924   */\n      pop\n        /* \"#utility.yul\":584:924   */\n      swap3\n      swap2\n      pop\n      pop\n      jump\t// out\n        /* \"#utility.yul\":930:1069   */\n    tag_273:\n        /* \"#utility.yul\":976:981   */\n      0x00\n        /* \"#utility.yul\":1014:1020   */\n      dup2\n        /* \"#utility.yul\":1001:1021   */\n      calldataload\n        /* \"#utility.yul\":992:1021   */\n      swap1\n      pop\n        /* \"#utility.yul\":1030:1063   */\n      tag_275\n        /* \"#utility.yul\":1057:1062   */\n      dup2\n        /* \"#utility.yul\":1030:1063   */\n      tag_276\n      jump\t// in\n    tag_275:\n        /* \"#utility.yul\":930:1069   */\n      swap3\n      swap2\n      pop\n      pop\n      jump\t// out\n        /* \"#utility.yul\":1075:1404   */\n    tag_23:\n        /* \"#utility.yul\":1134:1140   */\n      0x00\n        /* \"#utility.yul\":1183:1185   */\n      0x20\n        /* \"#utility.yul\":1171:1180   */\n      dup3\n        /* \"#utility.yul\":1162:1169   */\n      dup5\n        /* \"#utility.yul\":1158:1181   */\n      sub\n        /* \"#utility.yul\":1154:1186   */\n      slt\n        /* \"#utility.yul\":1151:1270   */\n      iszero\n      tag_278\n      jumpi\n        /* \"#utility.yul\":1189:1268   */\n      tag_279\n      tag_280\n      jump\t// in\n    tag_279:\n        /* \"#utility.yul\":1151:1270   */\n    tag_278:\n        /* \"#utility.yul\":1309:1310   */\n      0x00\n        /* \"#utility.yul\":1334:1387   */\n      tag_281\n        /* \"#utility.yul\":1379:1386   */\n      dup5\n        /* \"#utility.yul\":1370:1376   */\n      dup3\n        /* \"#utility.yul\":1359:1368   */\n      dup6\n        /* \"#utility.yul\":1355:1377   */\n      add\n        /* \"#utility.yul\":1334:1387   */\n      tag_263\n      jump\t// in\n    tag_281:\n        /* \"#utility.yul\":1324:1387   */\n      swap2\n      pop\n        /* \"#utility.yul\":1280:1397   */\n      pop\n        /* \"#utility.yul\":1075:1404   */\n      swap3\n      swap2\n      pop\n      pop\n      jump\t// out\n        /* \"#utility.yul\":1410:2569   */\n    tag_30:\n        /* \"#utility.yul\":1517:1523   */\n      0x00\n        /* \"#utility.yul\":1525:1531   */\n      dup1\n        /* \"#utility.yul\":1533:1539   */\n      0x00\n        /* \"#utility.yul\":1582:1584   */\n      0x60\n        /* \"#utility.yul\":1570:1579   */\n      dup5\n        /* \"#utility.yul\":1561:1568   */\n      dup7\n        /* \"#utility.yul\":1557:1580   */\n      sub\n        /* \"#utility.yul\":1553:1585   */\n      slt\n        /* \"#utility.yul\":1550:1669   */\n      iszero\n      tag_283\n      jumpi\n        /* \"#utility.yul\":1588:1667   */\n      tag_284\n      tag_280\n      jump\t// in\n    tag_284:\n        /* \"#utility.yul\":1550:1669   */\n    tag_283:\n        /* \"#utility.yul\":1736:1737   */\n      0x00\n        /* \"#utility.yul\":1725:1734   */\n      dup5\n        /* \"#utility.yul\":1721:1738   */\n      add\n        /* \"#utility.yul\":1708:1739   */\n      calldataload\n        /* \"#utility.yul\":1766:1784   */\n      0xffffffffffffffff\n        /* \"#utility.yul\":1758:1764   */\n      dup2\n        /* \"#utility.yul\":1755:1785   */\n      gt\n        /* \"#utility.yul\":1752:1869   */\n      iszero\n      tag_285\n      jumpi\n        /* \"#utility.yul\":1788:1867   */\n      tag_286\n      tag_287\n      jump\t// in\n    tag_286:\n        /* \"#utility.yul\":1752:1869   */\n    tag_285:\n        /* \"#utility.yul\":1893:1956   */\n      tag_288\n        /* \"#utility.yul\":1948:1955   */\n      dup7\n        /* \"#utility.yul\":1939:1945   */\n      dup3\n        /* \"#utility.yul\":1928:1937   */\n      dup8\n        /* \"#utility.yul\":1924:1946   */\n      add\n        /* \"#utility.yul\":1893:1956   */\n      tag_267\n      jump\t// in\n    tag_288:\n        /* \"#utility.yul\":1883:1956   */\n      swap4\n      pop\n        /* \"#utility.yul\":1679:1966   */\n      pop\n        /* \"#utility.yul\":2033:2035   */\n      0x20\n        /* \"#utility.yul\":2022:2031   */\n      dup5\n        /* \"#utility.yul\":2018:2036   */\n      add\n        /* \"#utility.yul\":2005:2037   */\n      calldataload\n        /* \"#utility.yul\":2064:2082   */\n      0xffffffffffffffff\n        /* \"#utility.yul\":2056:2062   */\n      dup2\n        /* \"#utility.yul\":2053:2083   */\n      gt\n        /* \"#utility.yul\":2050:2167   */\n      iszero\n      tag_289\n      jumpi\n        /* \"#utility.yul\":2086:2165   */\n      tag_290\n      tag_287\n      jump\t// in\n    tag_290:\n        /* \"#utility.yul\":2050:2167   */\n    tag_289:\n        /* \"#utility.yul\":2191:2254   */\n      tag_291\n        /* \"#utility.yul\":2246:2253   */\n      dup7\n        /* \"#utility.yul\":2237:2243   */\n      dup3\n        /* \"#utility.yul\":2226:2235   */\n      dup8\n        /* \"#utility.yul\":2222:2244   */\n      add\n        /* \"#utility.yul\":2191:2254   */\n      tag_267\n      jump\t// in\n    tag_291:\n        /* \"#utility.yul\":2181:2254   */\n      swap3\n      pop\n        /* \"#utility.yul\":1976:2264   */\n      pop\n        /* \"#utility.yul\":2331:2333   */\n      0x40\n        /* \"#utility.yul\":2320:2329   */\n      dup5\n        /* \"#utility.yul\":2316:2334   */\n      add\n        /* \"#utility.yul\":2303:2335   */\n      calldataload\n        /* \"#utility.yul\":2362:2380   */\n      0xffffffffffffffff\n        /* \"#utility.yul\":2354:2360   */\n      dup2\n        /* \"#utility.yul\":2351:2381   */\n      gt\n        /* \"#utility.yul\":2348:2465   */\n      iszero\n      tag_292\n      jumpi\n        /* \"#utility.yul\":2384:2463   */\n      tag_293\n      tag_287\n      jump\t// in\n    tag_293:\n        /* \"#utility.yul\":2348:2465   */\n    tag_292:\n        /* \"#utility.yul\":2489:2552   */\n      tag_294\n        /* \"#utility.yul\":2544:2551   */\n      dup7\n        /* \"#utility.yul\":2535:2541   */\n      dup3\n        /* \"#utility.yul\":2524:2533   */\n      dup8\n        /* \"#utility.yul\":2520:2542   */\n      add\n        /* \"#utility.yul\":2489:2552   */\n      tag_267\n      jump\t// in\n    tag_294:\n        /* \"#utility.yul\":2479:2552   */\n      swap2\n      pop\n        /* \"#utility.yul\":2274:2562   */\n      pop\n        /* \"#utility.yul\":1410:2569   */\n      swap3\n      pop\n      swap3\n      pop\n      swap3\n      jump\t// out\n        /* \"#utility.yul\":2575:2904   */\n    tag_45:\n        /* \"#utility.yul\":2634:2640   */\n      0x00\n        /* \"#utility.yul\":2683:2685   */\n      0x20\n        /* \"#utility.yul\":2671:2680   */\n      dup3\n        /* \"#utility.yul\":2662:2669   */\n      dup5\n        /* \"#utility.yul\":2658:2681   */\n      sub\n        /* \"#utility.yul\":2654:2686   */\n      slt\n        /* \"#utility.yul\":2651:2770   */\n      iszero\n      tag_296\n      jumpi\n        /* \"#utility.yul\":2689:2768   */\n      tag_297\n      tag_280\n      jump\t// in\n    tag_297:\n        /* \"#utility.yul\":2651:2770   */\n    tag_296:\n        /* \"#utility.yul\":2809:2810   */\n      0x00\n        /* \"#utility.yul\":2834:2887   */\n      tag_298\n        /* \"#utility.yul\":2879:2886   */\n      dup5\n        /* \"#utility.yul\":2870:2876   */\n      dup3\n        /* \"#utility.yul\":2859:2868   */\n      dup6\n        /* \"#utility.yul\":2855:2877   */\n      add\n        /* \"#utility.yul\":2834:2887   */\n      tag_273\n      jump\t// in\n    tag_298:\n        /* \"#utility.yul\":2824:2887   */\n      swap2\n      pop\n        /* \"#utility.yul\":2780:2897   */\n      pop\n        /* \"#utility.yul\":2575:2904   */\n      swap3\n      swap2\n      pop\n      pop\n      jump\t// out\n        /* \"#utility.yul\":2910:3889   */\n    tag_35:\n        /* \"#utility.yul\":3007:3013   */\n      0x00\n        /* \"#utility.yul\":3015:3021   */\n      dup1\n        /* \"#utility.yul\":3023:3029   */\n      0x00\n        /* \"#utility.yul\":3072:3074   */\n      0x60\n        /* \"#utility.yul\":3060:3069   */\n      dup5\n        /* \"#utility.yul\":3051:3058   */\n      dup7\n        /* \"#utility.yul\":3047:3070   */\n      sub\n        /* \"#utility.yul\":3043:3075   */\n      slt\n        /* \"#utility.yul\":3040:3159   */\n      iszero\n      tag_300\n      jumpi\n        /* \"#utility.yul\":3078:3157   */\n      tag_301\n      tag_280\n      jump\t// in\n    tag_301:\n        /* \"#utility.yul\":3040:3159   */\n    tag_300:\n        /* \"#utility.yul\":3198:3199   */\n      0x00\n        /* \"#utility.yul\":3223:3276   */\n      tag_302\n        /* \"#utility.yul\":3268:3275   */\n      dup7\n        /* \"#utility.yul\":3259:3265   */\n      dup3\n        /* \"#utility.yul\":3248:3257   */\n      dup8\n        /* \"#utility.yul\":3244:3266   */\n      add\n        /* \"#utility.yul\":3223:3276   */\n      tag_273\n      jump\t// in\n    tag_302:\n        /* \"#utility.yul\":3213:3276   */\n      swap4\n      pop\n        /* \"#utility.yul\":3169:3286   */\n      pop\n        /* \"#utility.yul\":3353:3355   */\n      0x20\n        /* \"#utility.yul\":3342:3351   */\n      dup5\n        /* \"#utility.yul\":3338:3356   */\n      add\n        /* \"#utility.yul\":3325:3357   */\n      calldataload\n        /* \"#utility.yul\":3384:3402   */\n      0xffffffffffffffff\n        /* \"#utility.yul\":3376:3382   */\n      dup2\n        /* \"#utility.yul\":3373:3403   */\n      gt\n        /* \"#utility.yul\":3370:3487   */\n      iszero\n      tag_303\n      jumpi\n        /* \"#utility.yul\":3406:3485   */\n      tag_304\n      tag_287\n      jump\t// in\n    tag_304:\n        /* \"#utility.yul\":3370:3487   */\n    tag_303:\n        /* \"#utility.yul\":3511:3574   */\n      tag_305\n        /* \"#utility.yul\":3566:3573   */\n      dup7\n        /* \"#utility.yul\":3557:3563   */\n      dup3\n        /* \"#utility.yul\":3546:3555   */\n      dup8\n        /* \"#utility.yul\":3542:3564   */\n      add\n        /* \"#utility.yul\":3511:3574   */\n      tag_267\n      jump\t// in\n    tag_305:\n        /* \"#utility.yul\":3501:3574   */\n      swap3\n      pop\n        /* \"#utility.yul\":3296:3584   */\n      pop\n        /* \"#utility.yul\":3651:3653   */\n      0x40\n        /* \"#utility.yul\":3640:3649   */\n      dup5\n        /* \"#utility.yul\":3636:3654   */\n      add\n        /* \"#utility.yul\":3623:3655   */\n      calldataload\n        /* \"#utility.yul\":3682:3700   */\n      0xffffffffffffffff\n        /* \"#utility.yul\":3674:3680   */\n      dup2\n        /* \"#utility.yul\":3671:3701   */\n      gt\n        /* \"#utility.yul\":3668:3785   */\n      iszero\n      tag_306\n      jumpi\n        /* \"#utility.yul\":3704:3783   */\n      tag_307\n      tag_287\n      jump\t// in\n    tag_307:\n        /* \"#utility.yul\":3668:3785   */\n    tag_306:\n        /* \"#utility.yul\":3809:3872   */\n      tag_308\n        /* \"#utility.yul\":3864:3871   */\n      dup7\n        /* \"#utility.yul\":3855:3861   */\n      dup3\n        /* \"#utility.yul\":3844:3853   */\n      dup8\n        /* \"#utility.yul\":3840:3862   */\n      add\n        /* \"#utility.yul\":3809:3872   */\n      tag_267\n      jump\t// in\n    tag_308:\n        /* \"#utility.yul\":3799:3872   */\n      swap2\n      pop\n        /* \"#utility.yul\":3594:3882   */\n      pop\n        /* \"#utility.yul\":2910:3889   */\n      swap3\n      pop\n      swap3\n      pop\n      swap3\n      jump\t// out\n        /* \"#utility.yul\":3895:4013   */\n    tag_309:\n        /* \"#utility.yul\":3982:4006   */\n      tag_311\n        /* \"#utility.yul\":4000:4005   */\n      dup2\n        /* \"#utility.yul\":3982:4006   */\n      tag_312\n      jump\t// in\n    tag_311:\n        /* \"#utility.yul\":3977:3980   */\n      dup3\n        /* \"#utility.yul\":3970:4007   */\n      mstore\n        /* \"#utility.yul\":3895:4013   */\n      pop\n      pop\n      jump\t// out\n        /* \"#utility.yul\":4019:4383   */\n    tag_313:\n        /* \"#utility.yul\":4107:4110   */\n      0x00\n        /* \"#utility.yul\":4135:4174   */\n      tag_315\n        /* \"#utility.yul\":4168:4173   */\n      dup3\n        /* \"#utility.yul\":4135:4174   */\n      tag_316\n      jump\t// in\n    tag_315:\n        /* \"#utility.yul\":4190:4261   */\n      tag_317\n        /* \"#utility.yul\":4254:4260   */\n      dup2\n        /* \"#utility.yul\":4249:4252   */\n      dup6\n        /* \"#utility.yul\":4190:4261   */\n      tag_318\n      jump\t// in\n    tag_317:\n        /* \"#utility.yul\":4183:4261   */\n      swap4\n      pop\n        /* \"#utility.yul\":4270:4322   */\n      tag_319\n        /* \"#utility.yul\":4315:4321   */\n      dup2\n        /* \"#utility.yul\":4310:4313   */\n      dup6\n        /* \"#utility.yul\":4303:4307   */\n      0x20\n        /* \"#utility.yul\":4296:4301   */\n      dup7\n        /* \"#utility.yul\":4292:4308   */\n      add\n        /* \"#utility.yul\":4270:4322   */\n      tag_320\n      jump\t// in\n    tag_319:\n        /* \"#utility.yul\":4347:4376   */\n      tag_321\n        /* \"#utility.yul\":4369:4375   */\n      dup2\n        /* \"#utility.yul\":4347:4376   */\n      tag_322\n      jump\t// in\n    tag_321:\n        /* \"#utility.yul\":4342:4345   */\n      dup5\n        /* \"#utility.yul\":4338:4377   */\n      add\n        /* \"#utility.yul\":4331:4377   */\n      swap2\n      pop\n        /* \"#utility.yul\":4111:4383   */\n      pop\n        /* \"#utility.yul\":4019:4383   */\n      swap3\n      swap2\n      pop\n      pop\n      jump\t// out\n        /* \"#utility.yul\":4413:5215   */\n    tag_323:\n        /* \"#utility.yul\":4498:4501   */\n      0x00\n        /* \"#utility.yul\":4535:4540   */\n      dup2\n        /* \"#utility.yul\":4529:4541   */\n      sload\n        /* \"#utility.yul\":4564:4600   */\n      tag_325\n        /* \"#utility.yul\":4590:4599   */\n      dup2\n        /* \"#utility.yul\":4564:4600   */\n      tag_186\n      jump\t// in\n    tag_325:\n        /* \"#utility.yul\":4616:4687   */\n      tag_326\n        /* \"#utility.yul\":4680:4686   */\n      dup2\n        /* \"#utility.yul\":4675:4678   */\n      dup7\n        /* \"#utility.yul\":4616:4687   */\n      tag_318\n      jump\t// in\n    tag_326:\n        /* \"#utility.yul\":4609:4687   */\n      swap5\n      pop\n        /* \"#utility.yul\":4718:4719   */\n      0x01\n        /* \"#utility.yul\":4707:4716   */\n      dup3\n        /* \"#utility.yul\":4703:4720   */\n      and\n        /* \"#utility.yul\":4734:4735   */\n      0x00\n        /* \"#utility.yul\":4729:4864   */\n      dup2\n      eq\n      tag_328\n      jumpi\n        /* \"#utility.yul\":4878:4879   */\n      0x01\n        /* \"#utility.yul\":4873:5209   */\n      dup2\n      eq\n      tag_329\n      jumpi\n        /* \"#utility.yul\":4696:5209   */\n      jump(tag_327)\n        /* \"#utility.yul\":4729:4864   */\n    tag_328:\n        /* \"#utility.yul\":4813:4817   */\n      0xff\n        /* \"#utility.yul\":4809:4818   */\n      not\n        /* \"#utility.yul\":4798:4807   */\n      dup4\n        /* \"#utility.yul\":4794:4819   */\n      and\n        /* \"#utility.yul\":4789:4792   */\n      dup7\n        /* \"#utility.yul\":4782:4820   */\n      mstore\n        /* \"#utility.yul\":4849:4853   */\n      0x20\n        /* \"#utility.yul\":4844:4847   */\n      dup7\n        /* \"#utility.yul\":4840:4854   */\n      add\n        /* \"#utility.yul\":4833:4854   */\n      swap4\n      pop\n        /* \"#utility.yul\":4729:4864   */\n      jump(tag_327)\n        /* \"#utility.yul\":4873:5209   */\n    tag_329:\n        /* \"#utility.yul\":4940:4978   */\n      tag_330\n        /* \"#utility.yul\":4972:4977   */\n      dup6\n        /* \"#utility.yul\":4940:4978   */\n      tag_331\n      jump\t// in\n    tag_330:\n        /* \"#utility.yul\":5000:5001   */\n      0x00\n        /* \"#utility.yul\":5014:5168   */\n    tag_332:\n        /* \"#utility.yul\":5028:5034   */\n      dup4\n        /* \"#utility.yul\":5025:5026   */\n      dup2\n        /* \"#utility.yul\":5022:5035   */\n      lt\n        /* \"#utility.yul\":5014:5168   */\n      iszero\n      tag_334\n      jumpi\n        /* \"#utility.yul\":5102:5109   */\n      dup2\n        /* \"#utility.yul\":5096:5110   */\n      sload\n        /* \"#utility.yul\":5092:5093   */\n      dup2\n        /* \"#utility.yul\":5087:5090   */\n      dup10\n        /* \"#utility.yul\":5083:5094   */\n      add\n        /* \"#utility.yul\":5076:5111   */\n      mstore\n        /* \"#utility.yul\":5152:5153   */\n      0x01\n        /* \"#utility.yul\":5143:5150   */\n      dup3\n        /* \"#utility.yul\":5139:5154   */\n      add\n        /* \"#utility.yul\":5128:5154   */\n      swap2\n      pop\n        /* \"#utility.yul\":5050:5054   */\n      0x20\n        /* \"#utility.yul\":5047:5048   */\n      dup2\n        /* \"#utility.yul\":5043:5055   */\n      add\n        /* \"#utility.yul\":5038:5055   */\n      swap1\n      pop\n        /* \"#utility.yul\":5014:5168   */\n      jump(tag_332)\n    tag_334:\n        /* \"#utility.yul\":5197:5198   */\n      dup1\n        /* \"#utility.yul\":5192:5195   */\n      dup9\n        /* \"#utility.yul\":5188:5199   */\n      add\n        /* \"#utility.yul\":5181:5199   */\n      swap6\n      pop\n        /* \"#utility.yul\":4880:5209   */\n      pop\n      pop\n        /* \"#utility.yul\":4696:5209   */\n    tag_327:\n      pop\n        /* \"#utility.yul\":4502:5215   */\n      pop\n      pop\n        /* \"#utility.yul\":4413:5215   */\n      swap3\n      swap2\n      pop\n      pop\n      jump\t// out\n        /* \"#utility.yul\":5221:5587   */\n    tag_335:\n        /* \"#utility.yul\":5363:5366   */\n      0x00\n        /* \"#utility.yul\":5384:5451   */\n      tag_337\n        /* \"#utility.yul\":5448:5450   */\n      0x28\n        /* \"#utility.yul\":5443:5446   */\n      dup4\n        /* \"#utility.yul\":5384:5451   */\n      tag_318\n      jump\t// in\n    tag_337:\n        /* \"#utility.yul\":5377:5451   */\n      swap2\n      pop\n        /* \"#utility.yul\":5460:5553   */\n      tag_338\n        /* \"#utility.yul\":5549:5552   */\n      dup3\n        /* \"#utility.yul\":5460:5553   */\n      tag_339\n      jump\t// in\n    tag_338:\n        /* \"#utility.yul\":5578:5580   */\n      0x40\n        /* \"#utility.yul\":5573:5576   */\n      dup3\n        /* \"#utility.yul\":5569:5581   */\n      add\n        /* \"#utility.yul\":5562:5581   */\n      swap1\n      pop\n        /* \"#utility.yul\":5221:5587   */\n      swap2\n      swap1\n      pop\n      jump\t// out\n        /* \"#utility.yul\":5593:5959   */\n    tag_340:\n        /* \"#utility.yul\":5735:5738   */\n      0x00\n        /* \"#utility.yul\":5756:5823   */\n      tag_342\n        /* \"#utility.yul\":5820:5822   */\n      0x26\n        /* \"#utility.yul\":5815:5818   */\n      dup4\n        /* \"#utility.yul\":5756:5823   */\n      tag_318\n      jump\t// in\n    tag_342:\n        /* \"#utility.yul\":5749:5823   */\n      swap2\n      pop\n        /* \"#utility.yul\":5832:5925   */\n      tag_343\n        /* \"#utility.yul\":5921:5924   */\n      dup3\n        /* \"#utility.yul\":5832:5925   */\n      tag_344\n      jump\t// in\n    tag_343:\n        /* \"#utility.yul\":5950:5952   */\n      0x40\n        /* \"#utility.yul\":5945:5948   */\n      dup3\n        /* \"#utility.yul\":5941:5953   */\n      add\n        /* \"#utility.yul\":5934:5953   */\n      swap1\n      pop\n        /* \"#utility.yul\":5593:5959   */\n      swap2\n      swap1\n      pop\n      jump\t// out\n        /* \"#utility.yul\":5965:6331   */\n    tag_345:\n        /* \"#utility.yul\":6107:6110   */\n      0x00\n        /* \"#utility.yul\":6128:6195   */\n      tag_347\n        /* \"#utility.yul\":6192:6194   */\n      0x20\n        /* \"#utility.yul\":6187:6190   */\n      dup4\n        /* \"#utility.yul\":6128:6195   */\n      tag_318\n      jump\t// in\n    tag_347:\n        /* \"#utility.yul\":6121:6195   */\n      swap2\n      pop\n        /* \"#utility.yul\":6204:6297   */\n      tag_348\n        /* \"#utility.yul\":6293:6296   */\n      dup3\n        /* \"#utility.yul\":6204:6297   */\n      tag_349\n      jump\t// in\n    tag_348:\n        /* \"#utility.yul\":6322:6324   */\n      0x20\n        /* \"#utility.yul\":6317:6320   */\n      dup3\n        /* \"#utility.yul\":6313:6325   */\n      add\n        /* \"#utility.yul\":6306:6325   */\n      swap1\n      pop\n        /* \"#utility.yul\":5965:6331   */\n      swap2\n      swap1\n      pop\n      jump\t// out\n        /* \"#utility.yul\":6337:6703   */\n    tag_350:\n        /* \"#utility.yul\":6479:6482   */\n      0x00\n        /* \"#utility.yul\":6500:6567   */\n      tag_352\n        /* \"#utility.yul\":6564:6566   */\n      0x15\n        /* \"#utility.yul\":6559:6562   */\n      dup4\n        /* \"#utility.yul\":6500:6567   */\n      tag_318\n      jump\t// in\n    tag_352:\n        /* \"#utility.yul\":6493:6567   */\n      swap2\n      pop\n        /* \"#utility.yul\":6576:6669   */\n      tag_353\n        /* \"#utility.yul\":6665:6668   */\n      dup3\n        /* \"#utility.yul\":6576:6669   */\n      tag_354\n      jump\t// in\n    tag_353:\n        /* \"#utility.yul\":6694:6696   */\n      0x20\n        /* \"#utility.yul\":6689:6692   */\n      dup3\n        /* \"#utility.yul\":6685:6697   */\n      add\n        /* \"#utility.yul\":6678:6697   */\n      swap1\n      pop\n        /* \"#utility.yul\":6337:6703   */\n      swap2\n      swap1\n      pop\n      jump\t// out\n        /* \"#utility.yul\":6709:6827   */\n    tag_355:\n        /* \"#utility.yul\":6796:6820   */\n      tag_357\n        /* \"#utility.yul\":6814:6819   */\n      dup2\n        /* \"#utility.yul\":6796:6820   */\n      tag_358\n      jump\t// in\n    tag_357:\n        /* \"#utility.yul\":6791:6794   */\n      dup3\n        /* \"#utility.yul\":6784:6821   */\n      mstore\n        /* \"#utility.yul\":6709:6827   */\n      pop\n      pop\n      jump\t// out\n        /* \"#utility.yul\":6833:6990   */\n    tag_359:\n        /* \"#utility.yul\":6938:6983   */\n      tag_361\n        /* \"#utility.yul\":6958:6982   */\n      tag_362\n        /* \"#utility.yul\":6976:6981   */\n      dup3\n        /* \"#utility.yul\":6958:6982   */\n      tag_358\n      jump\t// in\n    tag_362:\n        /* \"#utility.yul\":6938:6983   */\n      tag_363\n      jump\t// in\n    tag_361:\n        /* \"#utility.yul\":6933:6936   */\n      dup3\n        /* \"#utility.yul\":6926:6984   */\n      mstore\n        /* \"#utility.yul\":6833:6990   */\n      pop\n      pop\n      jump\t// out\n        /* \"#utility.yul\":6996:7111   */\n    tag_364:\n        /* \"#utility.yul\":7081:7104   */\n      tag_366\n        /* \"#utility.yul\":7098:7103   */\n      dup2\n        /* \"#utility.yul\":7081:7104   */\n      tag_367\n      jump\t// in\n    tag_366:\n        /* \"#utility.yul\":7076:7079   */\n      dup3\n        /* \"#utility.yul\":7069:7105   */\n      mstore\n        /* \"#utility.yul\":6996:7111   */\n      pop\n      pop\n      jump\t// out\n        /* \"#utility.yul\":7117:7655   */\n    tag_137:\n        /* \"#utility.yul\":7285:7288   */\n      0x00\n        /* \"#utility.yul\":7300:7375   */\n      tag_369\n        /* \"#utility.yul\":7371:7374   */\n      dup3\n        /* \"#utility.yul\":7362:7368   */\n      dup7\n        /* \"#utility.yul\":7300:7375   */\n      tag_359\n      jump\t// in\n    tag_369:\n        /* \"#utility.yul\":7400:7402   */\n      0x20\n        /* \"#utility.yul\":7395:7398   */\n      dup3\n        /* \"#utility.yul\":7391:7403   */\n      add\n        /* \"#utility.yul\":7384:7403   */\n      swap2\n      pop\n        /* \"#utility.yul\":7413:7488   */\n      tag_370\n        /* \"#utility.yul\":7484:7487   */\n      dup3\n        /* \"#utility.yul\":7475:7481   */\n      dup6\n        /* \"#utility.yul\":7413:7488   */\n      tag_359\n      jump\t// in\n    tag_370:\n        /* \"#utility.yul\":7513:7515   */\n      0x20\n        /* \"#utility.yul\":7508:7511   */\n      dup3\n        /* \"#utility.yul\":7504:7516   */\n      add\n        /* \"#utility.yul\":7497:7516   */\n      swap2\n      pop\n        /* \"#utility.yul\":7526:7601   */\n      tag_371\n        /* \"#utility.yul\":7597:7600   */\n      dup3\n        /* \"#utility.yul\":7588:7594   */\n      dup5\n        /* \"#utility.yul\":7526:7601   */\n      tag_359\n      jump\t// in\n    tag_371:\n        /* \"#utility.yul\":7626:7628   */\n      0x20\n        /* \"#utility.yul\":7621:7624   */\n      dup3\n        /* \"#utility.yul\":7617:7629   */\n      add\n        /* \"#utility.yul\":7610:7629   */\n      swap2\n      pop\n        /* \"#utility.yul\":7646:7649   */\n      dup2\n        /* \"#utility.yul\":7639:7649   */\n      swap1\n      pop\n        /* \"#utility.yul\":7117:7655   */\n      swap5\n      swap4\n      pop\n      pop\n      pop\n      pop\n      jump\t// out\n        /* \"#utility.yul\":7661:7883   */\n    tag_56:\n        /* \"#utility.yul\":7754:7758   */\n      0x00\n        /* \"#utility.yul\":7792:7794   */\n      0x20\n        /* \"#utility.yul\":7781:7790   */\n      dup3\n        /* \"#utility.yul\":7777:7795   */\n      add\n        /* \"#utility.yul\":7769:7795   */\n      swap1\n      pop\n        /* \"#utility.yul\":7805:7876   */\n      tag_373\n        /* \"#utility.yul\":7873:7874   */\n      0x00\n        /* \"#utility.yul\":7862:7871   */\n      dup4\n        /* \"#utility.yul\":7858:7875   */\n      add\n        /* \"#utility.yul\":7849:7855   */\n      dup5\n        /* \"#utility.yul\":7805:7876   */\n      tag_309\n      jump\t// in\n    tag_373:\n        /* \"#utility.yul\":7661:7883   */\n      swap3\n      swap2\n      pop\n      pop\n      jump\t// out\n        /* \"#utility.yul\":7889:9155   */\n    tag_70:\n        /* \"#utility.yul\":8236:8240   */\n      0x00\n        /* \"#utility.yul\":8274:8277   */\n      0x0100\n        /* \"#utility.yul\":8263:8272   */\n      dup3\n        /* \"#utility.yul\":8259:8278   */\n      add\n        /* \"#utility.yul\":8251:8278   */\n      swap1\n      pop\n        /* \"#utility.yul\":8288:8359   */\n      tag_375\n        /* \"#utility.yul\":8356:8357   */\n      0x00\n        /* \"#utility.yul\":8345:8354   */\n      dup4\n        /* \"#utility.yul\":8341:8358   */\n      add\n        /* \"#utility.yul\":8332:8338   */\n      dup12\n        /* \"#utility.yul\":8288:8359   */\n      tag_309\n      jump\t// in\n    tag_375:\n        /* \"#utility.yul\":8406:8415   */\n      dup2\n        /* \"#utility.yul\":8400:8404   */\n      dup2\n        /* \"#utility.yul\":8396:8416   */\n      sub\n        /* \"#utility.yul\":8391:8393   */\n      0x20\n        /* \"#utility.yul\":8380:8389   */\n      dup4\n        /* \"#utility.yul\":8376:8394   */\n      add\n        /* \"#utility.yul\":8369:8417   */\n      mstore\n        /* \"#utility.yul\":8434:8512   */\n      tag_376\n        /* \"#utility.yul\":8507:8511   */\n      dup2\n        /* \"#utility.yul\":8498:8504   */\n      dup11\n        /* \"#utility.yul\":8434:8512   */\n      tag_313\n      jump\t// in\n    tag_376:\n        /* \"#utility.yul\":8426:8512   */\n      swap1\n      pop\n        /* \"#utility.yul\":8559:8568   */\n      dup2\n        /* \"#utility.yul\":8553:8557   */\n      dup2\n        /* \"#utility.yul\":8549:8569   */\n      sub\n        /* \"#utility.yul\":8544:8546   */\n      0x40\n        /* \"#utility.yul\":8533:8542   */\n      dup4\n        /* \"#utility.yul\":8529:8547   */\n      add\n        /* \"#utility.yul\":8522:8570   */\n      mstore\n        /* \"#utility.yul\":8587:8665   */\n      tag_377\n        /* \"#utility.yul\":8660:8664   */\n      dup2\n        /* \"#utility.yul\":8651:8657   */\n      dup10\n        /* \"#utility.yul\":8587:8665   */\n      tag_313\n      jump\t// in\n    tag_377:\n        /* \"#utility.yul\":8579:8665   */\n      swap1\n      pop\n        /* \"#utility.yul\":8712:8721   */\n      dup2\n        /* \"#utility.yul\":8706:8710   */\n      dup2\n        /* \"#utility.yul\":8702:8722   */\n      sub\n        /* \"#utility.yul\":8697:8699   */\n      0x60\n        /* \"#utility.yul\":8686:8695   */\n      dup4\n        /* \"#utility.yul\":8682:8700   */\n      add\n        /* \"#utility.yul\":8675:8723   */\n      mstore\n        /* \"#utility.yul\":8740:8818   */\n      tag_378\n        /* \"#utility.yul\":8813:8817   */\n      dup2\n        /* \"#utility.yul\":8804:8810   */\n      dup9\n        /* \"#utility.yul\":8740:8818   */\n      tag_313\n      jump\t// in\n    tag_378:\n        /* \"#utility.yul\":8732:8818   */\n      swap1\n      pop\n        /* \"#utility.yul\":8828:8901   */\n      tag_379\n        /* \"#utility.yul\":8896:8899   */\n      0x80\n        /* \"#utility.yul\":8885:8894   */\n      dup4\n        /* \"#utility.yul\":8881:8900   */\n      add\n        /* \"#utility.yul\":8872:8878   */\n      dup8\n        /* \"#utility.yul\":8828:8901   */\n      tag_355\n      jump\t// in\n    tag_379:\n        /* \"#utility.yul\":8911:8984   */\n      tag_380\n        /* \"#utility.yul\":8979:8982   */\n      0xa0\n        /* \"#utility.yul\":8968:8977   */\n      dup4\n        /* \"#utility.yul\":8964:8983   */\n      add\n        /* \"#utility.yul\":8955:8961   */\n      dup7\n        /* \"#utility.yul\":8911:8984   */\n      tag_355\n      jump\t// in\n    tag_380:\n        /* \"#utility.yul\":8994:9067   */\n      tag_381\n        /* \"#utility.yul\":9062:9065   */\n      0xc0\n        /* \"#utility.yul\":9051:9060   */\n      dup4\n        /* \"#utility.yul\":9047:9066   */\n      add\n        /* \"#utility.yul\":9038:9044   */\n      dup6\n        /* \"#utility.yul\":8994:9067   */\n      tag_355\n      jump\t// in\n    tag_381:\n        /* \"#utility.yul\":9077:9148   */\n      tag_382\n        /* \"#utility.yul\":9143:9146   */\n      0xe0\n        /* \"#utility.yul\":9132:9141   */\n      dup4\n        /* \"#utility.yul\":9128:9147   */\n      add\n        /* \"#utility.yul\":9119:9125   */\n      dup5\n        /* \"#utility.yul\":9077:9148   */\n      tag_364\n      jump\t// in\n    tag_382:\n        /* \"#utility.yul\":7889:9155   */\n      swap10\n      swap9\n      pop\n      pop\n      pop\n      pop\n      pop\n      pop\n      pop\n      pop\n      pop\n      jump\t// out\n        /* \"#utility.yul\":9161:9474   */\n    tag_38:\n        /* \"#utility.yul\":9274:9278   */\n      0x00\n        /* \"#utility.yul\":9312:9314   */\n      0x20\n        /* \"#utility.yul\":9301:9310   */\n      dup3\n        /* \"#utility.yul\":9297:9315   */\n      add\n        /* \"#utility.yul\":9289:9315   */\n      swap1\n      pop\n        /* \"#utility.yul\":9361:9370   */\n      dup2\n        /* \"#utility.yul\":9355:9359   */\n      dup2\n        /* \"#utility.yul\":9351:9371   */\n      sub\n        /* \"#utility.yul\":9347:9348   */\n      0x00\n        /* \"#utility.yul\":9336:9345   */\n      dup4\n        /* \"#utility.yul\":9332:9349   */\n      add\n        /* \"#utility.yul\":9325:9372   */\n      mstore\n        /* \"#utility.yul\":9389:9467   */\n      tag_384\n        /* \"#utility.yul\":9462:9466   */\n      dup2\n        /* \"#utility.yul\":9453:9459   */\n      dup5\n        /* \"#utility.yul\":9389:9467   */\n      tag_313\n      jump\t// in\n    tag_384:\n        /* \"#utility.yul\":9381:9467   */\n      swap1\n      pop\n        /* \"#utility.yul\":9161:9474   */\n      swap3\n      swap2\n      pop\n      pop\n      jump\t// out\n        /* \"#utility.yul\":9480:10199   */\n    tag_222:\n        /* \"#utility.yul\":9689:9693   */\n      0x00\n        /* \"#utility.yul\":9727:9730   */\n      0x80\n        /* \"#utility.yul\":9716:9725   */\n      dup3\n        /* \"#utility.yul\":9712:9731   */\n      add\n        /* \"#utility.yul\":9704:9731   */\n      swap1\n      pop\n        /* \"#utility.yul\":9777:9786   */\n      dup2\n        /* \"#utility.yul\":9771:9775   */\n      dup2\n        /* \"#utility.yul\":9767:9787   */\n      sub\n        /* \"#utility.yul\":9763:9764   */\n      0x00\n        /* \"#utility.yul\":9752:9761   */\n      dup4\n        /* \"#utility.yul\":9748:9765   */\n      add\n        /* \"#utility.yul\":9741:9788   */\n      mstore\n        /* \"#utility.yul\":9805:9880   */\n      tag_386\n        /* \"#utility.yul\":9875:9879   */\n      dup2\n        /* \"#utility.yul\":9866:9872   */\n      dup8\n        /* \"#utility.yul\":9805:9880   */\n      tag_323\n      jump\t// in\n    tag_386:\n        /* \"#utility.yul\":9797:9880   */\n      swap1\n      pop\n        /* \"#utility.yul\":9927:9936   */\n      dup2\n        /* \"#utility.yul\":9921:9925   */\n      dup2\n        /* \"#utility.yul\":9917:9937   */\n      sub\n        /* \"#utility.yul\":9912:9914   */\n      0x20\n        /* \"#utility.yul\":9901:9910   */\n      dup4\n        /* \"#utility.yul\":9897:9915   */\n      add\n        /* \"#utility.yul\":9890:9938   */\n      mstore\n        /* \"#utility.yul\":9955:10030   */\n      tag_387\n        /* \"#utility.yul\":10025:10029   */\n      dup2\n        /* \"#utility.yul\":10016:10022   */\n      dup7\n        /* \"#utility.yul\":9955:10030   */\n      tag_323\n      jump\t// in\n    tag_387:\n        /* \"#utility.yul\":9947:10030   */\n      swap1\n      pop\n        /* \"#utility.yul\":10040:10110   */\n      tag_388\n        /* \"#utility.yul\":10106:10108   */\n      0x40\n        /* \"#utility.yul\":10095:10104   */\n      dup4\n        /* \"#utility.yul\":10091:10109   */\n      add\n        /* \"#utility.yul\":10082:10088   */\n      dup6\n        /* \"#utility.yul\":10040:10110   */\n      tag_364\n      jump\t// in\n    tag_388:\n        /* \"#utility.yul\":10120:10192   */\n      tag_389\n        /* \"#utility.yul\":10188:10190   */\n      0x60\n        /* \"#utility.yul\":10177:10186   */\n      dup4\n        /* \"#utility.yul\":10173:10191   */\n      add\n        /* \"#utility.yul\":10164:10170   */\n      dup5\n        /* \"#utility.yul\":10120:10192   */\n      tag_355\n      jump\t// in\n    tag_389:\n        /* \"#utility.yul\":9480:10199   */\n      swap6\n      swap5\n      pop\n      pop\n      pop\n      pop\n      pop\n      jump\t// out\n        /* \"#utility.yul\":10205:10624   */\n    tag_92:\n        /* \"#utility.yul\":10371:10375   */\n      0x00\n        /* \"#utility.yul\":10409:10411   */\n      0x20\n        /* \"#utility.yul\":10398:10407   */\n      dup3\n        /* \"#utility.yul\":10394:10412   */\n      add\n        /* \"#utility.yul\":10386:10412   */\n      swap1\n      pop\n        /* \"#utility.yul\":10458:10467   */\n      dup2\n        /* \"#utility.yul\":10452:10456   */\n      dup2\n        /* \"#utility.yul\":10448:10468   */\n      sub\n        /* \"#utility.yul\":10444:10445   */\n      0x00\n        /* \"#utility.yul\":10433:10442   */\n      dup4\n        /* \"#utility.yul\":10429:10446   */\n      add\n        /* \"#utility.yul\":10422:10469   */\n      mstore\n        /* \"#utility.yul\":10486:10617   */\n      tag_391\n        /* \"#utility.yul\":10612:10616   */\n      dup2\n        /* \"#utility.yul\":10486:10617   */\n      tag_335\n      jump\t// in\n    tag_391:\n        /* \"#utility.yul\":10478:10617   */\n      swap1\n      pop\n        /* \"#utility.yul\":10205:10624   */\n      swap2\n      swap1\n      pop\n      jump\t// out\n        /* \"#utility.yul\":10630:11049   */\n    tag_232:\n        /* \"#utility.yul\":10796:10800   */\n      0x00\n        /* \"#utility.yul\":10834:10836   */\n      0x20\n        /* \"#utility.yul\":10823:10832   */\n      dup3\n        /* \"#utility.yul\":10819:10837   */\n      add\n        /* \"#utility.yul\":10811:10837   */\n      swap1\n      pop\n        /* \"#utility.yul\":10883:10892   */\n      dup2\n        /* \"#utility.yul\":10877:10881   */\n      dup2\n        /* \"#utility.yul\":10873:10893   */\n      sub\n        /* \"#utility.yul\":10869:10870   */\n      0x00\n        /* \"#utility.yul\":10858:10867   */\n      dup4\n        /* \"#utility.yul\":10854:10871   */\n      add\n        /* \"#utility.yul\":10847:10894   */\n      mstore\n        /* \"#utility.yul\":10911:11042   */\n      tag_393\n        /* \"#utility.yul\":11037:11041   */\n      dup2\n        /* \"#utility.yul\":10911:11042   */\n      tag_340\n      jump\t// in\n    tag_393:\n        /* \"#utility.yul\":10903:11042   */\n      swap1\n      pop\n        /* \"#utility.yul\":10630:11049   */\n      swap2\n      swap1\n      pop\n      jump\t// out\n        /* \"#utility.yul\":11055:11474   */\n    tag_85:\n        /* \"#utility.yul\":11221:11225   */\n      0x00\n        /* \"#utility.yul\":11259:11261   */\n      0x20\n        /* \"#utility.yul\":11248:11257   */\n      dup3\n        /* \"#utility.yul\":11244:11262   */\n      add\n        /* \"#utility.yul\":11236:11262   */\n      swap1\n      pop\n        /* \"#utility.yul\":11308:11317   */\n      dup2\n        /* \"#utility.yul\":11302:11306   */\n      dup2\n        /* \"#utility.yul\":11298:11318   */\n      sub\n        /* \"#utility.yul\":11294:11295   */\n      0x00\n        /* \"#utility.yul\":11283:11292   */\n      dup4\n        /* \"#utility.yul\":11279:11296   */\n      add\n        /* \"#utility.yul\":11272:11319   */\n      mstore\n        /* \"#utility.yul\":11336:11467   */\n      tag_395\n        /* \"#utility.yul\":11462:11466   */\n      dup2\n        /* \"#utility.yul\":11336:11467   */\n      tag_345\n      jump\t// in\n    tag_395:\n        /* \"#utility.yul\":11328:11467   */\n      swap1\n      pop\n        /* \"#utility.yul\":11055:11474   */\n      swap2\n      swap1\n      pop\n      jump\t// out\n        /* \"#utility.yul\":11480:12009   */\n    tag_163:\n        /* \"#utility.yul\":11674:11678   */\n      0x00\n        /* \"#utility.yul\":11712:11714   */\n      0x40\n        /* \"#utility.yul\":11701:11710   */\n      dup3\n        /* \"#utility.yul\":11697:11715   */\n      add\n        /* \"#utility.yul\":11689:11715   */\n      swap1\n      pop\n        /* \"#utility.yul\":11761:11770   */\n      dup2\n        /* \"#utility.yul\":11755:11759   */\n      dup2\n        /* \"#utility.yul\":11751:11771   */\n      sub\n        /* \"#utility.yul\":11747:11748   */\n      0x00\n        /* \"#utility.yul\":11736:11745   */\n      dup4\n        /* \"#utility.yul\":11732:11749   */\n      add\n        /* \"#utility.yul\":11725:11772   */\n      mstore\n        /* \"#utility.yul\":11789:11920   */\n      tag_397\n        /* \"#utility.yul\":11915:11919   */\n      dup2\n        /* \"#utility.yul\":11789:11920   */\n      tag_350\n      jump\t// in\n    tag_397:\n        /* \"#utility.yul\":11781:11920   */\n      swap1\n      pop\n        /* \"#utility.yul\":11930:12002   */\n      tag_398\n        /* \"#utility.yul\":11998:12000   */\n      0x20\n        /* \"#utility.yul\":11987:11996   */\n      dup4\n        /* \"#utility.yul\":11983:12001   */\n      add\n        /* \"#utility.yul\":11974:11980   */\n      dup5\n        /* \"#utility.yul\":11930:12002   */\n      tag_355\n      jump\t// in\n    tag_398:\n        /* \"#utility.yul\":11480:12009   */\n      swap3\n      swap2\n      pop\n      pop\n      jump\t// out\n        /* \"#utility.yul\":12015:12237   */\n    tag_26:\n        /* \"#utility.yul\":12108:12112   */\n      0x00\n        /* \"#utility.yul\":12146:12148   */\n      0x20\n        /* \"#utility.yul\":12135:12144   */\n      dup3\n        /* \"#utility.yul\":12131:12149   */\n      add\n        /* \"#utility.yul\":12123:12149   */\n      swap1\n      pop\n        /* \"#utility.yul\":12159:12230   */\n      tag_400\n        /* \"#utility.yul\":12227:12228   */\n      0x00\n        /* \"#utility.yul\":12216:12225   */\n      dup4\n        /* \"#utility.yul\":12212:12229   */\n      add\n        /* \"#utility.yul\":12203:12209   */\n      dup5\n        /* \"#utility.yul\":12159:12230   */\n      tag_355\n      jump\t// in\n    tag_400:\n        /* \"#utility.yul\":12015:12237   */\n      swap3\n      swap2\n      pop\n      pop\n      jump\t// out\n        /* \"#utility.yul\":12243:12372   */\n    tag_257:\n        /* \"#utility.yul\":12277:12283   */\n      0x00\n        /* \"#utility.yul\":12304:12324   */\n      tag_402\n      tag_403\n      jump\t// in\n    tag_402:\n        /* \"#utility.yul\":12294:12324   */\n      swap1\n      pop\n        /* \"#utility.yul\":12333:12366   */\n      tag_404\n        /* \"#utility.yul\":12361:12365   */\n      dup3\n        /* \"#utility.yul\":12353:12359   */\n      dup3\n        /* \"#utility.yul\":12333:12366   */\n      tag_405\n      jump\t// in\n    tag_404:\n        /* \"#utility.yul\":12243:12372   */\n      swap2\n      swap1\n      pop\n      jump\t// out\n        /* \"#utility.yul\":12378:12453   */\n    tag_403:\n        /* \"#utility.yul\":12411:12417   */\n      0x00\n        /* \"#utility.yul\":12444:12446   */\n      0x40\n        /* \"#utility.yul\":12438:12447   */\n      mload\n        /* \"#utility.yul\":12428:12447   */\n      swap1\n      pop\n        /* \"#utility.yul\":12378:12453   */\n      swap1\n      jump\t// out\n        /* \"#utility.yul\":12459:12767   */\n    tag_256:\n        /* \"#utility.yul\":12521:12525   */\n      0x00\n        /* \"#utility.yul\":12611:12629   */\n      0xffffffffffffffff\n        /* \"#utility.yul\":12603:12609   */\n      dup3\n        /* \"#utility.yul\":12600:12630   */\n      gt\n        /* \"#utility.yul\":12597:12653   */\n      iszero\n      tag_408\n      jumpi\n        /* \"#utility.yul\":12633:12651   */\n      tag_409\n      tag_410\n      jump\t// in\n    tag_409:\n        /* \"#utility.yul\":12597:12653   */\n    tag_408:\n        /* \"#utility.yul\":12671:12700   */\n      tag_411\n        /* \"#utility.yul\":12693:12699   */\n      dup3\n        /* \"#utility.yul\":12671:12700   */\n      tag_322\n      jump\t// in\n    tag_411:\n        /* \"#utility.yul\":12663:12700   */\n      swap1\n      pop\n        /* \"#utility.yul\":12755:12759   */\n      0x20\n        /* \"#utility.yul\":12749:12753   */\n      dup2\n        /* \"#utility.yul\":12745:12760   */\n      add\n        /* \"#utility.yul\":12737:12760   */\n      swap1\n      pop\n        /* \"#utility.yul\":12459:12767   */\n      swap2\n      swap1\n      pop\n      jump\t// out\n        /* \"#utility.yul\":12773:12914   */\n    tag_331:\n        /* \"#utility.yul\":12822:12826   */\n      0x00\n        /* \"#utility.yul\":12845:12848   */\n      dup2\n        /* \"#utility.yul\":12837:12848   */\n      swap1\n      pop\n        /* \"#utility.yul\":12868:12871   */\n      dup2\n        /* \"#utility.yul\":12865:12866   */\n      0x00\n        /* \"#utility.yul\":12858:12872   */\n      mstore\n        /* \"#utility.yul\":12902:12906   */\n      0x20\n        /* \"#utility.yul\":12899:12900   */\n      0x00\n        /* \"#utility.yul\":12889:12907   */\n      keccak256\n        /* \"#utility.yul\":12881:12907   */\n      swap1\n      pop\n        /* \"#utility.yul\":12773:12914   */\n      swap2\n      swap1\n      pop\n      jump\t// out\n        /* \"#utility.yul\":12920:13019   */\n    tag_316:\n        /* \"#utility.yul\":12972:12978   */\n      0x00\n        /* \"#utility.yul\":13006:13011   */\n      dup2\n        /* \"#utility.yul\":13000:13012   */\n      mload\n        /* \"#utility.yul\":12990:13012   */\n      swap1\n      pop\n        /* \"#utility.yul\":12920:13019   */\n      swap2\n      swap1\n      pop\n      jump\t// out\n        /* \"#utility.yul\":13025:13194   */\n    tag_318:\n        /* \"#utility.yul\":13109:13120   */\n      0x00\n        /* \"#utility.yul\":13143:13149   */\n      dup3\n        /* \"#utility.yul\":13138:13141   */\n      dup3\n        /* \"#utility.yul\":13131:13150   */\n      mstore\n        /* \"#utility.yul\":13183:13187   */\n      0x20\n        /* \"#utility.yul\":13178:13181   */\n      dup3\n        /* \"#utility.yul\":13174:13188   */\n      add\n        /* \"#utility.yul\":13159:13188   */\n      swap1\n      pop\n        /* \"#utility.yul\":13025:13194   */\n      swap3\n      swap2\n      pop\n      pop\n      jump\t// out\n        /* \"#utility.yul\":13200:13505   */\n    tag_95:\n        /* \"#utility.yul\":13240:13243   */\n      0x00\n        /* \"#utility.yul\":13259:13279   */\n      tag_416\n        /* \"#utility.yul\":13277:13278   */\n      dup3\n        /* \"#utility.yul\":13259:13279   */\n      tag_358\n      jump\t// in\n    tag_416:\n        /* \"#utility.yul\":13254:13279   */\n      swap2\n      pop\n        /* \"#utility.yul\":13293:13313   */\n      tag_417\n        /* \"#utility.yul\":13311:13312   */\n      dup4\n        /* \"#utility.yul\":13293:13313   */\n      tag_358\n      jump\t// in\n    tag_417:\n        /* \"#utility.yul\":13288:13313   */\n      swap3\n      pop\n        /* \"#utility.yul\":13447:13448   */\n      dup3\n        /* \"#utility.yul\":13379:13445   */\n      0xffffffffffffffffffffffffffffffffffffffffffffffffffffffffffffffff\n        /* \"#utility.yul\":13375:13449   */\n      sub\n        /* \"#utility.yul\":13372:13373   */\n      dup3\n        /* \"#utility.yul\":13369:13450   */\n      gt\n        /* \"#utility.yul\":13366:13473   */\n      iszero\n      tag_418\n      jumpi\n        /* \"#utility.yul\":13453:13471   */\n      tag_419\n      tag_420\n      jump\t// in\n    tag_419:\n        /* \"#utility.yul\":13366:13473   */\n    tag_418:\n        /* \"#utility.yul\":13497:13498   */\n      dup3\n        /* \"#utility.yul\":13494:13495   */\n      dup3\n        /* \"#utility.yul\":13490:13499   */\n      add\n        /* \"#utility.yul\":13483:13499   */\n      swap1\n      pop\n        /* \"#utility.yul\":13200:13505   */\n      swap3\n      swap2\n      pop\n      pop\n      jump\t// out\n        /* \"#utility.yul\":13511:13702   */\n    tag_105:\n        /* \"#utility.yul\":13551:13555   */\n      0x00\n        /* \"#utility.yul\":13571:13591   */\n      tag_422\n        /* \"#utility.yul\":13589:13590   */\n      dup3\n        /* \"#utility.yul\":13571:13591   */\n      tag_358\n      jump\t// in\n    tag_422:\n        /* \"#utility.yul\":13566:13591   */\n      swap2\n      pop\n        /* \"#utility.yul\":13605:13625   */\n      tag_423\n        /* \"#utility.yul\":13623:13624   */\n      dup4\n        /* \"#utility.yul\":13605:13625   */\n      tag_358\n      jump\t// in\n    tag_423:\n        /* \"#utility.yul\":13600:13625   */\n      swap3\n      pop\n        /* \"#utility.yul\":13644:13645   */\n      dup3\n        /* \"#utility.yul\":13641:13642   */\n      dup3\n        /* \"#utility.yul\":13638:13646   */\n      lt\n        /* \"#utility.yul\":13635:13669   */\n      iszero\n      tag_424\n      jumpi\n        /* \"#utility.yul\":13649:13667   */\n      tag_425\n      tag_420\n      jump\t// in\n    tag_425:\n        /* \"#utility.yul\":13635:13669   */\n    tag_424:\n        /* \"#utility.yul\":13694:13695   */\n      dup3\n        /* \"#utility.yul\":13691:13692   */\n      dup3\n        /* \"#utility.yul\":13687:13696   */\n      sub\n        /* \"#utility.yul\":13679:13696   */\n      swap1\n      pop\n        /* \"#utility.yul\":13511:13702   */\n      swap3\n      swap2\n      pop\n      pop\n      jump\t// out\n        /* \"#utility.yul\":13708:13804   */\n    tag_312:\n        /* \"#utility.yul\":13745:13752   */\n      0x00\n        /* \"#utility.yul\":13774:13798   */\n      tag_427\n        /* \"#utility.yul\":13792:13797   */\n      dup3\n        /* \"#utility.yul\":13774:13798   */\n      tag_428\n      jump\t// in\n    tag_427:\n        /* \"#utility.yul\":13763:13798   */\n      swap1\n      pop\n        /* \"#utility.yul\":13708:13804   */\n      swap2\n      swap1\n      pop\n      jump\t// out\n        /* \"#utility.yul\":13810:13936   */\n    tag_428:\n        /* \"#utility.yul\":13847:13854   */\n      0x00\n        /* \"#utility.yul\":13887:13929   */\n      0xffffffffffffffffffffffffffffffffffffffff\n        /* \"#utility.yul\":13880:13885   */\n      dup3\n        /* \"#utility.yul\":13876:13930   */\n      and\n        /* \"#utility.yul\":13865:13930   */\n      swap1\n      pop\n        /* \"#utility.yul\":13810:13936   */\n      swap2\n      swap1\n      pop\n      jump\t// out\n        /* \"#utility.yul\":13942:14019   */\n    tag_358:\n        /* \"#utility.yul\":13979:13986   */\n      0x00\n        /* \"#utility.yul\":14008:14013   */\n      dup2\n        /* \"#utility.yul\":13997:14013   */\n      swap1\n      pop\n        /* \"#utility.yul\":13942:14019   */\n      swap2\n      swap1\n      pop\n      jump\t// out\n        /* \"#utility.yul\":14025:14118   */\n    tag_367:\n        /* \"#utility.yul\":14061:14068   */\n      0x00\n        /* \"#utility.yul\":14101:14111   */\n      0xffffffff\n        /* \"#utility.yul\":14094:14099   */\n      dup3\n        /* \"#utility.yul\":14090:14112   */\n      and\n        /* \"#utility.yul\":14079:14112   */\n      swap1\n      pop\n        /* \"#utility.yul\":14025:14118   */\n      swap2\n      swap1\n      pop\n      jump\t// out\n        /* \"#utility.yul\":14124:14278   */\n    tag_262:\n        /* \"#utility.yul\":14208:14214   */\n      dup3\n        /* \"#utility.yul\":14203:14206   */\n      dup2\n        /* \"#utility.yul\":14198:14201   */\n      dup4\n        /* \"#utility.yul\":14185:14215   */\n      calldatacopy\n        /* \"#utility.yul\":14270:14271   */\n      0x00\n        /* \"#utility.yul\":14261:14267   */\n      dup4\n        /* \"#utility.yul\":14256:14259   */\n      dup4\n        /* \"#utility.yul\":14252:14268   */\n      add\n        /* \"#utility.yul\":14245:14272   */\n      mstore\n        /* \"#utility.yul\":14124:14278   */\n      pop\n      pop\n      pop\n      jump\t// out\n        /* \"#utility.yul\":14284:14591   */\n    tag_320:\n        /* \"#utility.yul\":14352:14353   */\n      0x00\n        /* \"#utility.yul\":14362:14475   */\n    tag_434:\n        /* \"#utility.yul\":14376:14382   */\n      dup4\n        /* \"#utility.yul\":14373:14374   */\n      dup2\n        /* \"#utility.yul\":14370:14383   */\n      lt\n        /* \"#utility.yul\":14362:14475   */\n      iszero\n      tag_436\n      jumpi\n        /* \"#utility.yul\":14461:14462   */\n      dup1\n        /* \"#utility.yul\":14456:14459   */\n      dup3\n        /* \"#utility.yul\":14452:14463   */\n      add\n        /* \"#utility.yul\":14446:14464   */\n      mload\n        /* \"#utility.yul\":14442:14443   */\n      dup2\n        /* \"#utility.yul\":14437:14440   */\n      dup5\n        /* \"#utility.yul\":14433:14444   */\n      add\n        /* \"#utility.yul\":14426:14465   */\n      mstore\n        /* \"#utility.yul\":14398:14400   */\n      0x20\n        /* \"#utility.yul\":14395:14396   */\n      dup2\n        /* \"#utility.yul\":14391:14401   */\n      add\n        /* \"#utility.yul\":14386:14401   */\n      swap1\n      pop\n        /* \"#utility.yul\":14362:14475   */\n      jump(tag_434)\n    tag_436:\n        /* \"#utility.yul\":14493:14499   */\n      dup4\n        /* \"#utility.yul\":14490:14491   */\n      dup2\n        /* \"#utility.yul\":14487:14500   */\n      gt\n        /* \"#utility.yul\":14484:14585   */\n      iszero\n      tag_437\n      jumpi\n        /* \"#utility.yul\":14573:14574   */\n      0x00\n        /* \"#utility.yul\":14564:14570   */\n      dup5\n        /* \"#utility.yul\":14559:14562   */\n      dup5\n        /* \"#utility.yul\":14555:14571   */\n      add\n        /* \"#utility.yul\":14548:14575   */\n      mstore\n        /* \"#utility.yul\":14484:14585   */\n    tag_437:\n        /* \"#utility.yul\":14333:14591   */\n      pop\n        /* \"#utility.yul\":14284:14591   */\n      pop\n      pop\n      pop\n      jump\t// out\n        /* \"#utility.yul\":14597:14917   */\n    tag_186:\n        /* \"#utility.yul\":14641:14647   */\n      0x00\n        /* \"#utility.yul\":14678:14679   */\n      0x02\n        /* \"#utility.yul\":14672:14676   */\n      dup3\n        /* \"#utility.yul\":14668:14680   */\n      div\n        /* \"#utility.yul\":14658:14680   */\n      swap1\n      pop\n        /* \"#utility.yul\":14725:14726   */\n      0x01\n        /* \"#utility.yul\":14719:14723   */\n      dup3\n        /* \"#utility.yul\":14715:14727   */\n      and\n        /* \"#utility.yul\":14746:14764   */\n      dup1\n        /* \"#utility.yul\":14736:14817   */\n      tag_439\n      jumpi\n        /* \"#utility.yul\":14802:14806   */\n      0x7f\n        /* \"#utility.yul\":14794:14800   */\n      dup3\n        /* \"#utility.yul\":14790:14807   */\n      and\n        /* \"#utility.yul\":14780:14807   */\n      swap2\n      pop\n        /* \"#utility.yul\":14736:14817   */\n    tag_439:\n        /* \"#utility.yul\":14864:14866   */\n      0x20\n        /* \"#utility.yul\":14856:14862   */\n      dup3\n        /* \"#utility.yul\":14853:14867   */\n      lt\n        /* \"#utility.yul\":14833:14851   */\n      dup2\n        /* \"#utility.yul\":14830:14868   */\n      eq\n        /* \"#utility.yul\":14827:14911   */\n      iszero\n      tag_440\n      jumpi\n        /* \"#utility.yul\":14883:14901   */\n      tag_441\n      tag_442\n      jump\t// in\n    tag_441:\n        /* \"#utility.yul\":14827:14911   */\n    tag_440:\n        /* \"#utility.yul\":14648:14917   */\n      pop\n        /* \"#utility.yul\":14597:14917   */\n      swap2\n      swap1\n      pop\n      jump\t// out\n        /* \"#utility.yul\":14923:15204   */\n    tag_405:\n        /* \"#utility.yul\":15006:15033   */\n      tag_444\n        /* \"#utility.yul\":15028:15032   */\n      dup3\n        /* \"#utility.yul\":15006:15033   */\n      tag_322\n      jump\t// in\n    tag_444:\n        /* \"#utility.yul\":14998:15004   */\n      dup2\n        /* \"#utility.yul\":14994:15034   */\n      add\n        /* \"#utility.yul\":15136:15142   */\n      dup2\n        /* \"#utility.yul\":15124:15134   */\n      dup2\n        /* \"#utility.yul\":15121:15143   */\n      lt\n        /* \"#utility.yul\":15100:15118   */\n      0xffffffffffffffff\n        /* \"#utility.yul\":15088:15098   */\n      dup3\n        /* \"#utility.yul\":15085:15119   */\n      gt\n        /* \"#utility.yul\":15082:15144   */\n      or\n        /* \"#utility.yul\":15079:15167   */\n      iszero\n      tag_445\n      jumpi\n        /* \"#utility.yul\":15147:15165   */\n      tag_446\n      tag_410\n      jump\t// in\n    tag_446:\n        /* \"#utility.yul\":15079:15167   */\n    tag_445:\n        /* \"#utility.yul\":15187:15197   */\n      dup1\n        /* \"#utility.yul\":15183:15185   */\n      0x40\n        /* \"#utility.yul\":15176:15198   */\n      mstore\n        /* \"#utility.yul\":14966:15204   */\n      pop\n        /* \"#utility.yul\":14923:15204   */\n      pop\n      pop\n      jump\t// out\n        /* \"#utility.yul\":15210:15443   */\n    tag_102:\n        /* \"#utility.yul\":15249:15252   */\n      0x00\n        /* \"#utility.yul\":15272:15296   */\n      tag_448\n        /* \"#utility.yul\":15290:15295   */\n      dup3\n        /* \"#utility.yul\":15272:15296   */\n      tag_358\n      jump\t// in\n    tag_448:\n        /* \"#utility.yul\":15263:15296   */\n      swap2\n      pop\n        /* \"#utility.yul\":15318:15384   */\n      0xffffffffffffffffffffffffffffffffffffffffffffffffffffffffffffffff\n        /* \"#utility.yul\":15311:15316   */\n      dup3\n        /* \"#utility.yul\":15308:15385   */\n      eq\n        /* \"#utility.yul\":15305:15408   */\n      iszero\n      tag_449\n      jumpi\n        /* \"#utility.yul\":15388:15406   */\n      tag_450\n      tag_420\n      jump\t// in\n    tag_450:\n        /* \"#utility.yul\":15305:15408   */\n    tag_449:\n        /* \"#utility.yul\":15435:15436   */\n      0x01\n        /* \"#utility.yul\":15428:15433   */\n      dup3\n        /* \"#utility.yul\":15424:15437   */\n      add\n        /* \"#utility.yul\":15417:15437   */\n      swap1\n      pop\n        /* \"#utility.yul\":15210:15443   */\n      swap2\n      swap1\n      pop\n      jump\t// out\n        /* \"#utility.yul\":15449:15624   */\n    tag_131:\n        /* \"#utility.yul\":15487:15490   */\n      0x00\n        /* \"#utility.yul\":15510:15533   */\n      tag_452\n        /* \"#utility.yul\":15527:15532   */\n      dup3\n        /* \"#utility.yul\":15510:15533   */\n      tag_367\n      jump\t// in\n    tag_452:\n        /* \"#utility.yul\":15501:15533   */\n      swap2\n      pop\n        /* \"#utility.yul\":15555:15565   */\n      0xffffffff\n        /* \"#utility.yul\":15548:15553   */\n      dup3\n        /* \"#utility.yul\":15545:15566   */\n      eq\n        /* \"#utility.yul\":15542:15589   */\n      iszero\n      tag_453\n      jumpi\n        /* \"#utility.yul\":15569:15587   */\n      tag_454\n      tag_420\n      jump\t// in\n    tag_454:\n        /* \"#utility.yul\":15542:15589   */\n    tag_453:\n        /* \"#utility.yul\":15616:15617   */\n      0x01\n        /* \"#utility.yul\":15609:15614   */\n      dup3\n        /* \"#utility.yul\":15605:15618   */\n      add\n        /* \"#utility.yul\":15598:15618   */\n      swap1\n      pop\n        /* \"#utility.yul\":15449:15624   */\n      swap2\n      swap1\n      pop\n      jump\t// out\n        /* \"#utility.yul\":15630:15709   */\n    tag_363:\n        /* \"#utility.yul\":15669:15676   */\n      0x00\n        /* \"#utility.yul\":15698:15703   */\n      dup2\n        /* \"#utility.yul\":15687:15703   */\n      swap1\n      pop\n        /* \"#utility.yul\":15630:15709   */\n      swap2\n      swap1\n      pop\n      jump\t// out\n        /* \"#utility.yul\":15715:15891   */\n    tag_139:\n        /* \"#utility.yul\":15747:15748   */\n      0x00\n        /* \"#utility.yul\":15764:15784   */\n      tag_457\n        /* \"#utility.yul\":15782:15783   */\n      dup3\n        /* \"#utility.yul\":15764:15784   */\n      tag_358\n      jump\t// in\n    tag_457:\n        /* \"#utility.yul\":15759:15784   */\n      swap2\n      pop\n        /* \"#utility.yul\":15798:15818   */\n      tag_458\n        /* \"#utility.yul\":15816:15817   */\n      dup4\n        /* \"#utility.yul\":15798:15818   */\n      tag_358\n      jump\t// in\n    tag_458:\n        /* \"#utility.yul\":15793:15818   */\n      swap3\n      pop\n        /* \"#utility.yul\":15837:15838   */\n      dup3\n        /* \"#utility.yul\":15827:15862   */\n      tag_459\n      jumpi\n        /* \"#utility.yul\":15842:15860   */\n      tag_460\n      tag_461\n      jump\t// in\n    tag_460:\n        /* \"#utility.yul\":15827:15862   */\n    tag_459:\n        /* \"#utility.yul\":15883:15884   */\n      dup3\n        /* \"#utility.yul\":15880:15881   */\n      dup3\n        /* \"#utility.yul\":15876:15885   */\n      mod\n        /* \"#utility.yul\":15871:15885   */\n      swap1\n      pop\n        /* \"#utility.yul\":15715:15891   */\n      swap3\n      swap2\n      pop\n      pop\n      jump\t// out\n        /* \"#utility.yul\":15897:16077   */\n    tag_420:\n        /* \"#utility.yul\":15945:16022   */\n      0x4e487b7100000000000000000000000000000000000000000000000000000000\n        /* \"#utility.yul\":15942:15943   */\n      0x00\n        /* \"#utility.yul\":15935:16023   */\n      mstore\n        /* \"#utility.yul\":16042:16046   */\n      0x11\n        /* \"#utility.yul\":16039:16040   */\n      0x04\n        /* \"#utility.yul\":16032:16047   */\n      mstore\n        /* \"#utility.yul\":16066:16070   */\n      0x24\n        /* \"#utility.yul\":16063:16064   */\n      0x00\n        /* \"#utility.yul\":16056:16071   */\n      revert\n        /* \"#utility.yul\":16083:16263   */\n    tag_461:\n        /* \"#utility.yul\":16131:16208   */\n      0x4e487b7100000000000000000000000000000000000000000000000000000000\n        /* \"#utility.yul\":16128:16129   */\n      0x00\n        /* \"#utility.yul\":16121:16209   */\n      mstore\n        /* \"#utility.yul\":16228:16232   */\n      0x12\n        /* \"#utility.yul\":16225:16226   */\n      0x04\n        /* \"#utility.yul\":16218:16233   */\n      mstore\n        /* \"#utility.yul\":16252:16256   */\n      0x24\n        /* \"#utility.yul\":16249:16250   */\n      0x00\n        /* \"#utility.yul\":16242:16257   */\n      revert\n        /* \"#utility.yul\":16269:16449   */\n    tag_442:\n        /* \"#utility.yul\":16317:16394   */\n      0x4e487b7100000000000000000000000000000000000000000000000000000000\n        /* \"#utility.yul\":16314:16315   */\n      0x00\n        /* \"#utility.yul\":16307:16395   */\n      mstore\n        /* \"#utility.yul\":16414:16418   */\n      0x22\n        /* \"#utility.yul\":16411:16412   */\n      0x04\n        /* \"#utility.yul\":16404:16419   */\n      mstore\n        /* \"#utility.yul\":16438:16442   */\n      0x24\n        /* \"#utility.yul\":16435:16436   */\n      0x00\n        /* \"#utility.yul\":16428:16443   */\n      revert\n        /* \"#utility.yul\":16455:16635   */\n    tag_111:\n        /* \"#utility.yul\":16503:16580   */\n      0x4e487b7100000000000000000000000000000000000000000000000000000000\n        /* \"#utility.yul\":16500:16501   */\n      0x00\n        /* \"#utility.yul\":16493:16581   */\n      mstore\n        /* \"#utility.yul\":16600:16604   */\n      0x32\n        /* \"#utility.yul\":16597:16598   */\n      0x04\n        /* \"#utility.yul\":16590:16605   */\n      mstore\n        /* \"#utility.yul\":16624:16628   */\n      0x24\n        /* \"#utility.yul\":16621:16622   */\n      0x00\n        /* \"#utility.yul\":16614:16629   */\n      revert\n        /* \"#utility.yul\":16641:16821   */\n    tag_410:\n        /* \"#utility.yul\":16689:16766   */\n      0x4e487b7100000000000000000000000000000000000000000000000000000000\n        /* \"#utility.yul\":16686:16687   */\n      0x00\n        /* \"#utility.yul\":16679:16767   */\n      mstore\n        /* \"#utility.yul\":16786:16790   */\n      0x41\n        /* \"#utility.yul\":16783:16784   */\n      0x04\n        /* \"#utility.yul\":16776:16791   */\n      mstore\n        /* \"#utility.yul\":16810:16814   */\n      0x24\n        /* \"#utility.yul\":16807:16808   */\n      0x00\n        /* \"#utility.yul\":16800:16815   */\n      revert\n        /* \"#utility.yul\":16827:16944   */\n    tag_271:\n        /* \"#utility.yul\":16936:16937   */\n      0x00\n        /* \"#utility.yul\":16933:16934   */\n      dup1\n        /* \"#utility.yul\":16926:16938   */\n      revert\n        /* \"#utility.yul\":16950:17067   */\n    tag_260:\n        /* \"#utility.yul\":17059:17060   */\n      0x00\n        /* \"#utility.yul\":17056:17057   */\n      dup1\n        /* \"#utility.yul\":17049:17061   */\n      revert\n        /* \"#utility.yul\":17073:17190   */\n    tag_287:\n        /* \"#utility.yul\":17182:17183   */\n      0x00\n        /* \"#utility.yul\":17179:17180   */\n      dup1\n        /* \"#utility.yul\":17172:17184   */\n      revert\n        /* \"#utility.yul\":17196:17313   */\n    tag_280:\n        /* \"#utility.yul\":17305:17306   */\n      0x00\n        /* \"#utility.yul\":17302:17303   */\n      dup1\n        /* \"#utility.yul\":17295:17307   */\n      revert\n        /* \"#utility.yul\":17319:17421   */\n    tag_322:\n        /* \"#utility.yul\":17360:17366   */\n      0x00\n        /* \"#utility.yul\":17411:17413   */\n      0x1f\n        /* \"#utility.yul\":17407:17414   */\n      not\n        /* \"#utility.yul\":17402:17404   */\n      0x1f\n        /* \"#utility.yul\":17395:17400   */\n      dup4\n        /* \"#utility.yul\":17391:17405   */\n      add\n        /* \"#utility.yul\":17387:17415   */\n      and\n        /* \"#utility.yul\":17377:17415   */\n      swap1\n      pop\n        /* \"#utility.yul\":17319:17421   */\n      swap2\n      swap1\n      pop\n      jump\t// out\n        /* \"#utility.yul\":17427:17654   */\n    tag_339:\n        /* \"#utility.yul\":17567:17601   */\n      0x536f6c6f2073652070756564652074656e657220756e20636f63686520706f72\n        /* \"#utility.yul\":17563:17564   */\n      0x00\n        /* \"#utility.yul\":17555:17561   */\n      dup3\n        /* \"#utility.yul\":17551:17565   */\n      add\n        /* \"#utility.yul\":17544:17602   */\n      mstore\n        /* \"#utility.yul\":17636:17646   */\n      0x20706572736f6e61000000000000000000000000000000000000000000000000\n        /* \"#utility.yul\":17631:17633   */\n      0x20\n        /* \"#utility.yul\":17623:17629   */\n      dup3\n        /* \"#utility.yul\":17619:17634   */\n      add\n        /* \"#utility.yul\":17612:17647   */\n      mstore\n        /* \"#utility.yul\":17427:17654   */\n      pop\n      jump\t// out\n        /* \"#utility.yul\":17660:17885   */\n    tag_344:\n        /* \"#utility.yul\":17800:17834   */\n      0x4f776e61626c653a206e6577206f776e657220697320746865207a65726f2061\n        /* \"#utility.yul\":17796:17797   */\n      0x00\n        /* \"#utility.yul\":17788:17794   */\n      dup3\n        /* \"#utility.yul\":17784:17798   */\n      add\n        /* \"#utility.yul\":17777:17835   */\n      mstore\n        /* \"#utility.yul\":17869:17877   */\n      0x6464726573730000000000000000000000000000000000000000000000000000\n        /* \"#utility.yul\":17864:17866   */\n      0x20\n        /* \"#utility.yul\":17856:17862   */\n      dup3\n        /* \"#utility.yul\":17852:17867   */\n      add\n        /* \"#utility.yul\":17845:17878   */\n      mstore\n        /* \"#utility.yul\":17660:17885   */\n      pop\n      jump\t// out\n        /* \"#utility.yul\":17891:18073   */\n    tag_349:\n        /* \"#utility.yul\":18031:18065   */\n      0x4f776e61626c653a2063616c6c6572206973206e6f7420746865206f776e6572\n        /* \"#utility.yul\":18027:18028   */\n      0x00\n        /* \"#utility.yul\":18019:18025   */\n      dup3\n        /* \"#utility.yul\":18015:18029   */\n      add\n        /* \"#utility.yul\":18008:18066   */\n      mstore\n        /* \"#utility.yul\":17891:18073   */\n      pop\n      jump\t// out\n        /* \"#utility.yul\":18079:18250   */\n    tag_354:\n        /* \"#utility.yul\":18219:18242   */\n      0x456c20636f6368652067616e61646f722065733a200000000000000000000000\n        /* \"#utility.yul\":18215:18216   */\n      0x00\n        /* \"#utility.yul\":18207:18213   */\n      dup3\n        /* \"#utility.yul\":18203:18217   */\n      add\n        /* \"#utility.yul\":18196:18243   */\n      mstore\n        /* \"#utility.yul\":18079:18250   */\n      pop\n      jump\t// out\n        /* \"#utility.yul\":18256:18378   */\n    tag_266:\n        /* \"#utility.yul\":18329:18353   */\n      tag_477\n        /* \"#utility.yul\":18347:18352   */\n      dup2\n        /* \"#utility.yul\":18329:18353   */\n      tag_312\n      jump\t// in\n    tag_477:\n        /* \"#utility.yul\":18322:18327   */\n      dup2\n        /* \"#utility.yul\":18319:18354   */\n      eq\n        /* \"#utility.yul\":18309:18372   */\n      tag_478\n      jumpi\n        /* \"#utility.yul\":18368:18369   */\n      0x00\n        /* \"#utility.yul\":18365:18366   */\n      dup1\n        /* \"#utility.yul\":18358:18370   */\n      revert\n        /* \"#utility.yul\":18309:18372   */\n    tag_478:\n        /* \"#utility.yul\":18256:18378   */\n      pop\n      jump\t// out\n        /* \"#utility.yul\":18384:18506   */\n    tag_276:\n        /* \"#utility.yul\":18457:18481   */\n      tag_480\n        /* \"#utility.yul\":18475:18480   */\n      dup2\n        /* \"#utility.yul\":18457:18481   */\n      tag_358\n      jump\t// in\n    tag_480:\n        /* \"#utility.yul\":18450:18455   */\n      dup2\n        /* \"#utility.yul\":18447:18482   */\n      eq\n        /* \"#utility.yul\":18437:18500   */\n      tag_481\n      jumpi\n        /* \"#utility.yul\":18496:18497   */\n      0x00\n        /* \"#utility.yul\":18493:18494   */\n      dup1\n        /* \"#utility.yul\":18486:18498   */\n      revert\n        /* \"#utility.yul\":18437:18500   */\n    tag_481:\n        /* \"#utility.yul\":18384:18506   */\n      pop\n      jump\t// out\n\n    auxdata: 0xa2646970667358221220c469b046abfd8182a9a7adc1f4fc92134bbd94c3fb539e83e3b682ff4b4fbc7864736f6c63430008070033\n}\n",
				"bytecode": {
					"linkReferences": {},
					"object": "608060405260006001556000600255603c600355670de0b6b3a7640000600455670de0b6b3a764000060055534801561003757600080fd5b5061005461004961005960201b60201c565b61006160201b60201c565b610125565b600033905090565b60008060009054906101000a900473ffffffffffffffffffffffffffffffffffffffff169050816000806101000a81548173ffffffffffffffffffffffffffffffffffffffff021916908373ffffffffffffffffffffffffffffffffffffffff1602179055508173ffffffffffffffffffffffffffffffffffffffff168173ffffffffffffffffffffffffffffffffffffffff167f8be0079c531659141344cd1fd0a4f28419497f9722a3daafe3b4186f6b6457e060405160405180910390a35050565b611e34806101346000396000f3fe6080604052600436106100c25760003560e01c8063715018a61161007f578063b2bdfa7b11610059578063b2bdfa7b14610267578063d735573d14610292578063e172fca8146102d6578063f2fde38b146102ff576100c2565b8063715018a6146101e8578063858b0554146101ff5780638da5cb5b1461023c576100c2565b80631bfdc150146100c75780631c6743e4146100de5780632458c5441461011b57806336163e45146101585780636a7d1816146101885780636b6f0494146101b8575b600080fd5b3480156100d357600080fd5b506100dc610328565b005b3480156100ea57600080fd5b50610105600480360381019061010091906113ff565b6103ed565b6040516101129190611902565b60405180910390f35b34801561012757600080fd5b50610142600480360381019061013d919061142c565b610405565b60405161014f9190611902565b60405180910390f35b610172600480360381019061016d9190611500565b6106e7565b60405161017f91906117ff565b60405180910390f35b6101a2600480360381019061019d91906113ff565b6107dd565b6040516101af91906117ff565b60405180910390f35b6101d260048036038101906101cd91906114d3565b610932565b6040516101df91906117ff565b60405180910390f35b3480156101f457600080fd5b506101fd610c0d565b005b34801561020b57600080fd5b50610226600480360381019061022191906114d3565b610c95565b6040516102339190611751565b60405180910390f35b34801561024857600080fd5b50610251610cc8565b60405161025e9190611751565b60405180910390f35b34801561027357600080fd5b5061027c610cf1565b6040516102899190611751565b60405180910390f35b34801561029e57600080fd5b506102b960048036038101906102b491906114d3565b610d15565b6040516102cd98979695949392919061176c565b60405180910390f35b3480156102e257600080fd5b506102fd60048036038101906102f891906113ff565b610f35565b005b34801561030b57600080fd5b50610326600480360381019061032191906113ff565b6110b5565b005b6103306111ad565b73ffffffffffffffffffffffffffffffffffffffff1661034e610cc8565b73ffffffffffffffffffffffffffffffffffffffff16146103a4576040517f08c379a000000000000000000000000000000000000000000000000000000000815260040161039b906118b4565b60405180910390fd5b3373ffffffffffffffffffffffffffffffffffffffff166108fc479081150290604051600060405180830381858888f193505050501580156103ea573d6000803e3d6000fd5b50565b60086020528060005260406000206000915090505481565b60006001600860003373ffffffffffffffffffffffffffffffffffffffff1673ffffffffffffffffffffffffffffffffffffffff1681526020019081526020016000205410610489576040517f08c379a000000000000000000000000000000000000000000000000000000000815260040161048090611874565b60405180910390fd5b60066040518061010001604052803373ffffffffffffffffffffffffffffffffffffffff1681526020018681526020018581526020018481526020016000815260200160008152602001600354426104e191906119a4565b63ffffffff168152602001600063ffffffff16815250908060018154018082558091505060019003906000526020600020906008020160009091909190915060008201518160000160006101000a81548173ffffffffffffffffffffffffffffffffffffffff021916908373ffffffffffffffffffffffffffffffffffffffff16021790555060208201518160010190805190602001906105839291906112c2565b5060408201518160020190805190602001906105a09291906112c2565b5060608201518160030190805190602001906105bd9291906112c2565b506080820151816004015560a0820151816005015560c0820151816006015560e08201518160070160006101000a81548163ffffffff021916908363ffffffff160217905550505060006006805490509050336007600083815260200190815260200160002060006101000a81548173ffffffffffffffffffffffffffffffffffffffff021916908373ffffffffffffffffffffffffffffffffffffffff160217905550600860003373ffffffffffffffffffffffffffffffffffffffff1673ffffffffffffffffffffffffffffffffffffffff16815260200190815260200160002060008154809291906106b190611b1f565b9190505550600260008154809291906106c990611b1f565b919050555060016002546106dd91906119fa565b9150509392505050565b60606007600085815260200190815260200160002060009054906101000a900473ffffffffffffffffffffffffffffffffffffffff1673ffffffffffffffffffffffffffffffffffffffff163373ffffffffffffffffffffffffffffffffffffffff161461075457600080fd5b600554341461076257600080fd5b826006858154811061077757610776611c5d565b5b9060005260206000209060080201600101908051906020019061079b9291906112c2565b5081600685815481106107b1576107b0611c5d565b5b906000526020600020906008020160020190805190602001906107d59291906112c2565b509392505050565b606060045434146107ed57600080fd5b60005b60068054905081101561092b578273ffffffffffffffffffffffffffffffffffffffff166006828154811061082857610827611c5d565b5b906000526020600020906008020160000160009054906101000a900473ffffffffffffffffffffffffffffffffffffffff1673ffffffffffffffffffffffffffffffffffffffff161415610918576006818154811061088a57610889611c5d565b5b9060005260206000209060080201600701600081819054906101000a900463ffffffff16809291906108bb90611b68565b91906101000a81548163ffffffff021916908363ffffffff160217905550506040518060400160405280601281526020017f48612073756269646f206465206e6976656c000000000000000000000000000081525091505061092d565b808061092390611b1f565b9150506107f0565b505b919050565b606081341461094057600080fd5b6001600081548092919061095390611b1f565b919050555060006006805490504260068054905060015460405160200161097c93929190611714565b6040516020818303038152906040528051906020012060001c61099f9190611b9f565b9050600160008154809291906109b490611b1f565b919050555060006002905060008142836001546040516020016109d993929190611714565b6040516020818303038152906040528051906020012060001c6109fc9190611b9f565b905060005b600680549050811015610c035760068181548110610a2257610a21611c5d565b5b906000526020600020906008020160000160009054906101000a900473ffffffffffffffffffffffffffffffffffffffff1673ffffffffffffffffffffffffffffffffffffffff163373ffffffffffffffffffffffffffffffffffffffff161415610bf0576000821415610b7857610a986111b5565b60068181548110610aac57610aab611c5d565b5b90600052602060002090600802016004016000815480929190610ace90611b1f565b919050555060068181548110610ae757610ae6611c5d565b5b9060005260206000209060080201600701600081819054906101000a900463ffffffff1680929190610b1890611b68565b91906101000a81548163ffffffff021916908363ffffffff160217905550506040518060400160405280600a81526020017f4861732067616e61646f00000000000000000000000000000000000000000000815250945050505050610c08565b7fa28482eec3136a2461c6c30c08f71ba279c6c51a2d9c7bea4e50d6d2632f389684604051610ba791906118d4565b60405180910390a16040518060400160405280600b81526020017f486173207065726469646f000000000000000000000000000000000000000000815250945050505050610c08565b8080610bfb90611b1f565b915050610a01565b505050505b919050565b610c156111ad565b73ffffffffffffffffffffffffffffffffffffffff16610c33610cc8565b73ffffffffffffffffffffffffffffffffffffffff1614610c89576040517f08c379a0000000000000000000000000000000000000000000000000000000008152600401610c80906118b4565b60405180910390fd5b610c9360006111fe565b565b60076020528060005260406000206000915054906101000a900473ffffffffffffffffffffffffffffffffffffffff1681565b60008060009054906101000a900473ffffffffffffffffffffffffffffffffffffffff16905090565b60008054906101000a900473ffffffffffffffffffffffffffffffffffffffff1681565b60068181548110610d2557600080fd5b90600052602060002090600802016000915090508060000160009054906101000a900473ffffffffffffffffffffffffffffffffffffffff1690806001018054610d6e90611abc565b80601f0160208091040260200160405190810160405280929190818152602001828054610d9a90611abc565b8015610de75780601f10610dbc57610100808354040283529160200191610de7565b820191906000526020600020905b815481529060010190602001808311610dca57829003601f168201915b505050505090806002018054610dfc90611abc565b80601f0160208091040260200160405190810160405280929190818152602001828054610e2890611abc565b8015610e755780601f10610e4a57610100808354040283529160200191610e75565b820191906000526020600020905b815481529060010190602001808311610e5857829003601f168201915b505050505090806003018054610e8a90611abc565b80601f0160208091040260200160405190810160405280929190818152602001828054610eb690611abc565b8015610f035780601f10610ed857610100808354040283529160200191610f03565b820191906000526020600020905b815481529060010190602001808311610ee657829003601f168201915b5050505050908060040154908060050154908060060154908060070160009054906101000a900463ffffffff16905088565b60005b6006805490508110156110b1578173ffffffffffffffffffffffffffffffffffffffff1660068281548110610f7057610f6f611c5d565b5b906000526020600020906008020160000160009054906101000a900473ffffffffffffffffffffffffffffffffffffffff1673ffffffffffffffffffffffffffffffffffffffff16141561109e577f18c2885dbbffc4e127da047b869295b42d8d5ee97848f7f117b062e88f34a9e660068281548110610ff357610ff2611c5d565b5b90600052602060002090600802016002016006838154811061101857611017611c5d565b5b90600052602060002090600802016001016006848154811061103d5761103c611c5d565b5b906000526020600020906008020160070160009054906101000a900463ffffffff166006858154811061107357611072611c5d565b5b9060005260206000209060080201600401546040516110959493929190611821565b60405180910390a15b80806110a990611b1f565b915050610f38565b5050565b6110bd6111ad565b73ffffffffffffffffffffffffffffffffffffffff166110db610cc8565b73ffffffffffffffffffffffffffffffffffffffff1614611131576040517f08c379a0000000000000000000000000000000000000000000000000000000008152600401611128906118b4565b60405180910390fd5b600073ffffffffffffffffffffffffffffffffffffffff168173ffffffffffffffffffffffffffffffffffffffff1614156111a1576040517f08c379a000000000000000000000000000000000000000000000000000000000815260040161119890611894565b60405180910390fd5b6111aa816111fe565b50565b600033905090565b3373ffffffffffffffffffffffffffffffffffffffff166108fc479081150290604051600060405180830381858888f193505050501580156111fb573d6000803e3d6000fd5b50565b60008060009054906101000a900473ffffffffffffffffffffffffffffffffffffffff169050816000806101000a81548173ffffffffffffffffffffffffffffffffffffffff021916908373ffffffffffffffffffffffffffffffffffffffff1602179055508173ffffffffffffffffffffffffffffffffffffffff168173ffffffffffffffffffffffffffffffffffffffff167f8be0079c531659141344cd1fd0a4f28419497f9722a3daafe3b4186f6b6457e060405160405180910390a35050565b8280546112ce90611abc565b90600052602060002090601f0160209004810192826112f05760008555611337565b82601f1061130957805160ff1916838001178555611337565b82800160010185558215611337579182015b8281111561133657825182559160200191906001019061131b565b5b5090506113449190611348565b5090565b5b80821115611361576000816000905550600101611349565b5090565b600061137861137384611942565b61191d565b90508281526020810184848401111561139457611393611cc0565b5b61139f848285611a7a565b509392505050565b6000813590506113b681611dd0565b92915050565b600082601f8301126113d1576113d0611cbb565b5b81356113e1848260208601611365565b91505092915050565b6000813590506113f981611de7565b92915050565b60006020828403121561141557611414611cca565b5b6000611423848285016113a7565b91505092915050565b60008060006060848603121561144557611444611cca565b5b600084013567ffffffffffffffff81111561146357611462611cc5565b5b61146f868287016113bc565b935050602084013567ffffffffffffffff8111156114905761148f611cc5565b5b61149c868287016113bc565b925050604084013567ffffffffffffffff8111156114bd576114bc611cc5565b5b6114c9868287016113bc565b9150509250925092565b6000602082840312156114e9576114e8611cca565b5b60006114f7848285016113ea565b91505092915050565b60008060006060848603121561151957611518611cca565b5b6000611527868287016113ea565b935050602084013567ffffffffffffffff81111561154857611547611cc5565b5b611554868287016113bc565b925050604084013567ffffffffffffffff81111561157557611574611cc5565b5b611581868287016113bc565b9150509250925092565b61159481611a2e565b82525050565b60006115a582611988565b6115af8185611993565b93506115bf818560208601611a89565b6115c881611ccf565b840191505092915050565b600081546115e081611abc565b6115ea8186611993565b9450600182166000811461160557600181146116175761164a565b60ff198316865260208601935061164a565b61162085611973565b60005b8381101561164257815481890152600182019150602081019050611623565b808801955050505b50505092915050565b6000611660602883611993565b915061166b82611ce0565b604082019050919050565b6000611683602683611993565b915061168e82611d2f565b604082019050919050565b60006116a6602083611993565b91506116b182611d7e565b602082019050919050565b60006116c9601583611993565b91506116d482611da7565b602082019050919050565b6116e881611a60565b82525050565b6116ff6116fa82611a60565b611b95565b82525050565b61170e81611a6a565b82525050565b600061172082866116ee565b60208201915061173082856116ee565b60208201915061174082846116ee565b602082019150819050949350505050565b6000602082019050611766600083018461158b565b92915050565b600061010082019050611782600083018b61158b565b8181036020830152611794818a61159a565b905081810360408301526117a8818961159a565b905081810360608301526117bc818861159a565b90506117cb60808301876116df565b6117d860a08301866116df565b6117e560c08301856116df565b6117f260e0830184611705565b9998505050505050505050565b60006020820190508181036000830152611819818461159a565b905092915050565b6000608082019050818103600083015261183b81876115d3565b9050818103602083015261184f81866115d3565b905061185e6040830185611705565b61186b60608301846116df565b95945050505050565b6000602082019050818103600083015261188d81611653565b9050919050565b600060208201905081810360008301526118ad81611676565b9050919050565b600060208201905081810360008301526118cd81611699565b9050919050565b600060408201905081810360008301526118ed816116bc565b90506118fc60208301846116df565b92915050565b600060208201905061191760008301846116df565b92915050565b6000611927611938565b90506119338282611aee565b919050565b6000604051905090565b600067ffffffffffffffff82111561195d5761195c611c8c565b5b61196682611ccf565b9050602081019050919050565b60008190508160005260206000209050919050565b600081519050919050565b600082825260208201905092915050565b60006119af82611a60565b91506119ba83611a60565b9250827fffffffffffffffffffffffffffffffffffffffffffffffffffffffffffffffff038211156119ef576119ee611bd0565b5b828201905092915050565b6000611a0582611a60565b9150611a1083611a60565b925082821015611a2357611a22611bd0565b5b828203905092915050565b6000611a3982611a40565b9050919050565b600073ffffffffffffffffffffffffffffffffffffffff82169050919050565b6000819050919050565b600063ffffffff82169050919050565b82818337600083830152505050565b60005b83811015611aa7578082015181840152602081019050611a8c565b83811115611ab6576000848401525b50505050565b60006002820490506001821680611ad457607f821691505b60208210811415611ae857611ae7611c2e565b5b50919050565b611af782611ccf565b810181811067ffffffffffffffff82111715611b1657611b15611c8c565b5b80604052505050565b6000611b2a82611a60565b91507fffffffffffffffffffffffffffffffffffffffffffffffffffffffffffffffff821415611b5d57611b5c611bd0565b5b600182019050919050565b6000611b7382611a6a565b915063ffffffff821415611b8a57611b89611bd0565b5b600182019050919050565b6000819050919050565b6000611baa82611a60565b9150611bb583611a60565b925082611bc557611bc4611bff565b5b828206905092915050565b7f4e487b7100000000000000000000000000000000000000000000000000000000600052601160045260246000fd5b7f4e487b7100000000000000000000000000000000000000000000000000000000600052601260045260246000fd5b7f4e487b7100000000000000000000000000000000000000000000000000000000600052602260045260246000fd5b7f4e487b7100000000000000000000000000000000000000000000000000000000600052603260045260246000fd5b7f4e487b7100000000000000000000000000000000000000000000000000000000600052604160045260246000fd5b600080fd5b600080fd5b600080fd5b600080fd5b6000601f19601f8301169050919050565b7f536f6c6f2073652070756564652074656e657220756e20636f63686520706f7260008201527f20706572736f6e61000000000000000000000000000000000000000000000000602082015250565b7f4f776e61626c653a206e6577206f776e657220697320746865207a65726f206160008201527f6464726573730000000000000000000000000000000000000000000000000000602082015250565b7f4f776e61626c653a2063616c6c6572206973206e6f7420746865206f776e6572600082015250565b7f456c20636f6368652067616e61646f722065733a200000000000000000000000600082015250565b611dd981611a2e565b8114611de457600080fd5b50565b611df081611a60565b8114611dfb57600080fd5b5056fea2646970667358221220c469b046abfd8182a9a7adc1f4fc92134bbd94c3fb539e83e3b682ff4b4fbc7864736f6c63430008070033",
					"opcodes": "PUSH1 0x80 PUSH1 0x40 MSTORE PUSH1 0x0 PUSH1 0x1 SSTORE PUSH1 0x0 PUSH1 0x2 SSTORE PUSH1 0x3C PUSH1 0x3 SSTORE PUSH8 0xDE0B6B3A7640000 PUSH1 0x4 SSTORE PUSH8 0xDE0B6B3A7640000 PUSH1 0x5 SSTORE CALLVALUE DUP1 ISZERO PUSH2 0x37 JUMPI PUSH1 0x0 DUP1 REVERT JUMPDEST POP PUSH2 0x54 PUSH2 0x49 PUSH2 0x59 PUSH1 0x20 SHL PUSH1 0x20 SHR JUMP JUMPDEST PUSH2 0x61 PUSH1 0x20 SHL PUSH1 0x20 SHR JUMP JUMPDEST PUSH2 0x125 JUMP JUMPDEST PUSH1 0x0 CALLER SWAP1 POP SWAP1 JUMP JUMPDEST PUSH1 0x0 DUP1 PUSH1 0x0 SWAP1 SLOAD SWAP1 PUSH2 0x100 EXP SWAP1 DIV PUSH20 0xFFFFFFFFFFFFFFFFFFFFFFFFFFFFFFFFFFFFFFFF AND SWAP1 POP DUP2 PUSH1 0x0 DUP1 PUSH2 0x100 EXP DUP2 SLOAD DUP2 PUSH20 0xFFFFFFFFFFFFFFFFFFFFFFFFFFFFFFFFFFFFFFFF MUL NOT AND SWAP1 DUP4 PUSH20 0xFFFFFFFFFFFFFFFFFFFFFFFFFFFFFFFFFFFFFFFF AND MUL OR SWAP1 SSTORE POP DUP2 PUSH20 0xFFFFFFFFFFFFFFFFFFFFFFFFFFFFFFFFFFFFFFFF AND DUP2 PUSH20 0xFFFFFFFFFFFFFFFFFFFFFFFFFFFFFFFFFFFFFFFF AND PUSH32 0x8BE0079C531659141344CD1FD0A4F28419497F9722A3DAAFE3B4186F6B6457E0 PUSH1 0x40 MLOAD PUSH1 0x40 MLOAD DUP1 SWAP2 SUB SWAP1 LOG3 POP POP JUMP JUMPDEST PUSH2 0x1E34 DUP1 PUSH2 0x134 PUSH1 0x0 CODECOPY PUSH1 0x0 RETURN INVALID PUSH1 0x80 PUSH1 0x40 MSTORE PUSH1 0x4 CALLDATASIZE LT PUSH2 0xC2 JUMPI PUSH1 0x0 CALLDATALOAD PUSH1 0xE0 SHR DUP1 PUSH4 0x715018A6 GT PUSH2 0x7F JUMPI DUP1 PUSH4 0xB2BDFA7B GT PUSH2 0x59 JUMPI DUP1 PUSH4 0xB2BDFA7B EQ PUSH2 0x267 JUMPI DUP1 PUSH4 0xD735573D EQ PUSH2 0x292 JUMPI DUP1 PUSH4 0xE172FCA8 EQ PUSH2 0x2D6 JUMPI DUP1 PUSH4 0xF2FDE38B EQ PUSH2 0x2FF JUMPI PUSH2 0xC2 JUMP JUMPDEST DUP1 PUSH4 0x715018A6 EQ PUSH2 0x1E8 JUMPI DUP1 PUSH4 0x858B0554 EQ PUSH2 0x1FF JUMPI DUP1 PUSH4 0x8DA5CB5B EQ PUSH2 0x23C JUMPI PUSH2 0xC2 JUMP JUMPDEST DUP1 PUSH4 0x1BFDC150 EQ PUSH2 0xC7 JUMPI DUP1 PUSH4 0x1C6743E4 EQ PUSH2 0xDE JUMPI DUP1 PUSH4 0x2458C544 EQ PUSH2 0x11B JUMPI DUP1 PUSH4 0x36163E45 EQ PUSH2 0x158 JUMPI DUP1 PUSH4 0x6A7D1816 EQ PUSH2 0x188 JUMPI DUP1 PUSH4 0x6B6F0494 EQ PUSH2 0x1B8 JUMPI JUMPDEST PUSH1 0x0 DUP1 REVERT JUMPDEST CALLVALUE DUP1 ISZERO PUSH2 0xD3 JUMPI PUSH1 0x0 DUP1 REVERT JUMPDEST POP PUSH2 0xDC PUSH2 0x328 JUMP JUMPDEST STOP JUMPDEST CALLVALUE DUP1 ISZERO PUSH2 0xEA JUMPI PUSH1 0x0 DUP1 REVERT JUMPDEST POP PUSH2 0x105 PUSH1 0x4 DUP1 CALLDATASIZE SUB DUP2 ADD SWAP1 PUSH2 0x100 SWAP2 SWAP1 PUSH2 0x13FF JUMP JUMPDEST PUSH2 0x3ED JUMP JUMPDEST PUSH1 0x40 MLOAD PUSH2 0x112 SWAP2 SWAP1 PUSH2 0x1902 JUMP JUMPDEST PUSH1 0x40 MLOAD DUP1 SWAP2 SUB SWAP1 RETURN JUMPDEST CALLVALUE DUP1 ISZERO PUSH2 0x127 JUMPI PUSH1 0x0 DUP1 REVERT JUMPDEST POP PUSH2 0x142 PUSH1 0x4 DUP1 CALLDATASIZE SUB DUP2 ADD SWAP1 PUSH2 0x13D SWAP2 SWAP1 PUSH2 0x142C JUMP JUMPDEST PUSH2 0x405 JUMP JUMPDEST PUSH1 0x40 MLOAD PUSH2 0x14F SWAP2 SWAP1 PUSH2 0x1902 JUMP JUMPDEST PUSH1 0x40 MLOAD DUP1 SWAP2 SUB SWAP1 RETURN JUMPDEST PUSH2 0x172 PUSH1 0x4 DUP1 CALLDATASIZE SUB DUP2 ADD SWAP1 PUSH2 0x16D SWAP2 SWAP1 PUSH2 0x1500 JUMP JUMPDEST PUSH2 0x6E7 JUMP JUMPDEST PUSH1 0x40 MLOAD PUSH2 0x17F SWAP2 SWAP1 PUSH2 0x17FF JUMP JUMPDEST PUSH1 0x40 MLOAD DUP1 SWAP2 SUB SWAP1 RETURN JUMPDEST PUSH2 0x1A2 PUSH1 0x4 DUP1 CALLDATASIZE SUB DUP2 ADD SWAP1 PUSH2 0x19D SWAP2 SWAP1 PUSH2 0x13FF JUMP JUMPDEST PUSH2 0x7DD JUMP JUMPDEST PUSH1 0x40 MLOAD PUSH2 0x1AF SWAP2 SWAP1 PUSH2 0x17FF JUMP JUMPDEST PUSH1 0x40 MLOAD DUP1 SWAP2 SUB SWAP1 RETURN JUMPDEST PUSH2 0x1D2 PUSH1 0x4 DUP1 CALLDATASIZE SUB DUP2 ADD SWAP1 PUSH2 0x1CD SWAP2 SWAP1 PUSH2 0x14D3 JUMP JUMPDEST PUSH2 0x932 JUMP JUMPDEST PUSH1 0x40 MLOAD PUSH2 0x1DF SWAP2 SWAP1 PUSH2 0x17FF JUMP JUMPDEST PUSH1 0x40 MLOAD DUP1 SWAP2 SUB SWAP1 RETURN JUMPDEST CALLVALUE DUP1 ISZERO PUSH2 0x1F4 JUMPI PUSH1 0x0 DUP1 REVERT JUMPDEST POP PUSH2 0x1FD PUSH2 0xC0D JUMP JUMPDEST STOP JUMPDEST CALLVALUE DUP1 ISZERO PUSH2 0x20B JUMPI PUSH1 0x0 DUP1 REVERT JUMPDEST POP PUSH2 0x226 PUSH1 0x4 DUP1 CALLDATASIZE SUB DUP2 ADD SWAP1 PUSH2 0x221 SWAP2 SWAP1 PUSH2 0x14D3 JUMP JUMPDEST PUSH2 0xC95 JUMP JUMPDEST PUSH1 0x40 MLOAD PUSH2 0x233 SWAP2 SWAP1 PUSH2 0x1751 JUMP JUMPDEST PUSH1 0x40 MLOAD DUP1 SWAP2 SUB SWAP1 RETURN JUMPDEST CALLVALUE DUP1 ISZERO PUSH2 0x248 JUMPI PUSH1 0x0 DUP1 REVERT JUMPDEST POP PUSH2 0x251 PUSH2 0xCC8 JUMP JUMPDEST PUSH1 0x40 MLOAD PUSH2 0x25E SWAP2 SWAP1 PUSH2 0x1751 JUMP JUMPDEST PUSH1 0x40 MLOAD DUP1 SWAP2 SUB SWAP1 RETURN JUMPDEST CALLVALUE DUP1 ISZERO PUSH2 0x273 JUMPI PUSH1 0x0 DUP1 REVERT JUMPDEST POP PUSH2 0x27C PUSH2 0xCF1 JUMP JUMPDEST PUSH1 0x40 MLOAD PUSH2 0x289 SWAP2 SWAP1 PUSH2 0x1751 JUMP JUMPDEST PUSH1 0x40 MLOAD DUP1 SWAP2 SUB SWAP1 RETURN JUMPDEST CALLVALUE DUP1 ISZERO PUSH2 0x29E JUMPI PUSH1 0x0 DUP1 REVERT JUMPDEST POP PUSH2 0x2B9 PUSH1 0x4 DUP1 CALLDATASIZE SUB DUP2 ADD SWAP1 PUSH2 0x2B4 SWAP2 SWAP1 PUSH2 0x14D3 JUMP JUMPDEST PUSH2 0xD15 JUMP JUMPDEST PUSH1 0x40 MLOAD PUSH2 0x2CD SWAP9 SWAP8 SWAP7 SWAP6 SWAP5 SWAP4 SWAP3 SWAP2 SWAP1 PUSH2 0x176C JUMP JUMPDEST PUSH1 0x40 MLOAD DUP1 SWAP2 SUB SWAP1 RETURN JUMPDEST CALLVALUE DUP1 ISZERO PUSH2 0x2E2 JUMPI PUSH1 0x0 DUP1 REVERT JUMPDEST POP PUSH2 0x2FD PUSH1 0x4 DUP1 CALLDATASIZE SUB DUP2 ADD SWAP1 PUSH2 0x2F8 SWAP2 SWAP1 PUSH2 0x13FF JUMP JUMPDEST PUSH2 0xF35 JUMP JUMPDEST STOP JUMPDEST CALLVALUE DUP1 ISZERO PUSH2 0x30B JUMPI PUSH1 0x0 DUP1 REVERT JUMPDEST POP PUSH2 0x326 PUSH1 0x4 DUP1 CALLDATASIZE SUB DUP2 ADD SWAP1 PUSH2 0x321 SWAP2 SWAP1 PUSH2 0x13FF JUMP JUMPDEST PUSH2 0x10B5 JUMP JUMPDEST STOP JUMPDEST PUSH2 0x330 PUSH2 0x11AD JUMP JUMPDEST PUSH20 0xFFFFFFFFFFFFFFFFFFFFFFFFFFFFFFFFFFFFFFFF AND PUSH2 0x34E PUSH2 0xCC8 JUMP JUMPDEST PUSH20 0xFFFFFFFFFFFFFFFFFFFFFFFFFFFFFFFFFFFFFFFF AND EQ PUSH2 0x3A4 JUMPI PUSH1 0x40 MLOAD PUSH32 0x8C379A000000000000000000000000000000000000000000000000000000000 DUP2 MSTORE PUSH1 0x4 ADD PUSH2 0x39B SWAP1 PUSH2 0x18B4 JUMP JUMPDEST PUSH1 0x40 MLOAD DUP1 SWAP2 SUB SWAP1 REVERT JUMPDEST CALLER PUSH20 0xFFFFFFFFFFFFFFFFFFFFFFFFFFFFFFFFFFFFFFFF AND PUSH2 0x8FC SELFBALANCE SWAP1 DUP2 ISZERO MUL SWAP1 PUSH1 0x40 MLOAD PUSH1 0x0 PUSH1 0x40 MLOAD DUP1 DUP4 SUB DUP2 DUP6 DUP9 DUP9 CALL SWAP4 POP POP POP POP ISZERO DUP1 ISZERO PUSH2 0x3EA JUMPI RETURNDATASIZE PUSH1 0x0 DUP1 RETURNDATACOPY RETURNDATASIZE PUSH1 0x0 REVERT JUMPDEST POP JUMP JUMPDEST PUSH1 0x8 PUSH1 0x20 MSTORE DUP1 PUSH1 0x0 MSTORE PUSH1 0x40 PUSH1 0x0 KECCAK256 PUSH1 0x0 SWAP2 POP SWAP1 POP SLOAD DUP2 JUMP JUMPDEST PUSH1 0x0 PUSH1 0x1 PUSH1 0x8 PUSH1 0x0 CALLER PUSH20 0xFFFFFFFFFFFFFFFFFFFFFFFFFFFFFFFFFFFFFFFF AND PUSH20 0xFFFFFFFFFFFFFFFFFFFFFFFFFFFFFFFFFFFFFFFF AND DUP2 MSTORE PUSH1 0x20 ADD SWAP1 DUP2 MSTORE PUSH1 0x20 ADD PUSH1 0x0 KECCAK256 SLOAD LT PUSH2 0x489 JUMPI PUSH1 0x40 MLOAD PUSH32 0x8C379A000000000000000000000000000000000000000000000000000000000 DUP2 MSTORE PUSH1 0x4 ADD PUSH2 0x480 SWAP1 PUSH2 0x1874 JUMP JUMPDEST PUSH1 0x40 MLOAD DUP1 SWAP2 SUB SWAP1 REVERT JUMPDEST PUSH1 0x6 PUSH1 0x40 MLOAD DUP1 PUSH2 0x100 ADD PUSH1 0x40 MSTORE DUP1 CALLER PUSH20 0xFFFFFFFFFFFFFFFFFFFFFFFFFFFFFFFFFFFFFFFF AND DUP2 MSTORE PUSH1 0x20 ADD DUP7 DUP2 MSTORE PUSH1 0x20 ADD DUP6 DUP2 MSTORE PUSH1 0x20 ADD DUP5 DUP2 MSTORE PUSH1 0x20 ADD PUSH1 0x0 DUP2 MSTORE PUSH1 0x20 ADD PUSH1 0x0 DUP2 MSTORE PUSH1 0x20 ADD PUSH1 0x3 SLOAD TIMESTAMP PUSH2 0x4E1 SWAP2 SWAP1 PUSH2 0x19A4 JUMP JUMPDEST PUSH4 0xFFFFFFFF AND DUP2 MSTORE PUSH1 0x20 ADD PUSH1 0x0 PUSH4 0xFFFFFFFF AND DUP2 MSTORE POP SWAP1 DUP1 PUSH1 0x1 DUP2 SLOAD ADD DUP1 DUP3 SSTORE DUP1 SWAP2 POP POP PUSH1 0x1 SWAP1 SUB SWAP1 PUSH1 0x0 MSTORE PUSH1 0x20 PUSH1 0x0 KECCAK256 SWAP1 PUSH1 0x8 MUL ADD PUSH1 0x0 SWAP1 SWAP2 SWAP1 SWAP2 SWAP1 SWAP2 POP PUSH1 0x0 DUP3 ADD MLOAD DUP2 PUSH1 0x0 ADD PUSH1 0x0 PUSH2 0x100 EXP DUP2 SLOAD DUP2 PUSH20 0xFFFFFFFFFFFFFFFFFFFFFFFFFFFFFFFFFFFFFFFF MUL NOT AND SWAP1 DUP4 PUSH20 0xFFFFFFFFFFFFFFFFFFFFFFFFFFFFFFFFFFFFFFFF AND MUL OR SWAP1 SSTORE POP PUSH1 0x20 DUP3 ADD MLOAD DUP2 PUSH1 0x1 ADD SWAP1 DUP1 MLOAD SWAP1 PUSH1 0x20 ADD SWAP1 PUSH2 0x583 SWAP3 SWAP2 SWAP1 PUSH2 0x12C2 JUMP JUMPDEST POP PUSH1 0x40 DUP3 ADD MLOAD DUP2 PUSH1 0x2 ADD SWAP1 DUP1 MLOAD SWAP1 PUSH1 0x20 ADD SWAP1 PUSH2 0x5A0 SWAP3 SWAP2 SWAP1 PUSH2 0x12C2 JUMP JUMPDEST POP PUSH1 0x60 DUP3 ADD MLOAD DUP2 PUSH1 0x3 ADD SWAP1 DUP1 MLOAD SWAP1 PUSH1 0x20 ADD SWAP1 PUSH2 0x5BD SWAP3 SWAP2 SWAP1 PUSH2 0x12C2 JUMP JUMPDEST POP PUSH1 0x80 DUP3 ADD MLOAD DUP2 PUSH1 0x4 ADD SSTORE PUSH1 0xA0 DUP3 ADD MLOAD DUP2 PUSH1 0x5 ADD SSTORE PUSH1 0xC0 DUP3 ADD MLOAD DUP2 PUSH1 0x6 ADD SSTORE PUSH1 0xE0 DUP3 ADD MLOAD DUP2 PUSH1 0x7 ADD PUSH1 0x0 PUSH2 0x100 EXP DUP2 SLOAD DUP2 PUSH4 0xFFFFFFFF MUL NOT AND SWAP1 DUP4 PUSH4 0xFFFFFFFF AND MUL OR SWAP1 SSTORE POP POP POP PUSH1 0x0 PUSH1 0x6 DUP1 SLOAD SWAP1 POP SWAP1 POP CALLER PUSH1 0x7 PUSH1 0x0 DUP4 DUP2 MSTORE PUSH1 0x20 ADD SWAP1 DUP2 MSTORE PUSH1 0x20 ADD PUSH1 0x0 KECCAK256 PUSH1 0x0 PUSH2 0x100 EXP DUP2 SLOAD DUP2 PUSH20 0xFFFFFFFFFFFFFFFFFFFFFFFFFFFFFFFFFFFFFFFF MUL NOT AND SWAP1 DUP4 PUSH20 0xFFFFFFFFFFFFFFFFFFFFFFFFFFFFFFFFFFFFFFFF AND MUL OR SWAP1 SSTORE POP PUSH1 0x8 PUSH1 0x0 CALLER PUSH20 0xFFFFFFFFFFFFFFFFFFFFFFFFFFFFFFFFFFFFFFFF AND PUSH20 0xFFFFFFFFFFFFFFFFFFFFFFFFFFFFFFFFFFFFFFFF AND DUP2 MSTORE PUSH1 0x20 ADD SWAP1 DUP2 MSTORE PUSH1 0x20 ADD PUSH1 0x0 KECCAK256 PUSH1 0x0 DUP2 SLOAD DUP1 SWAP3 SWAP2 SWAP1 PUSH2 0x6B1 SWAP1 PUSH2 0x1B1F JUMP JUMPDEST SWAP2 SWAP1 POP SSTORE POP PUSH1 0x2 PUSH1 0x0 DUP2 SLOAD DUP1 SWAP3 SWAP2 SWAP1 PUSH2 0x6C9 SWAP1 PUSH2 0x1B1F JUMP JUMPDEST SWAP2 SWAP1 POP SSTORE POP PUSH1 0x1 PUSH1 0x2 SLOAD PUSH2 0x6DD SWAP2 SWAP1 PUSH2 0x19FA JUMP JUMPDEST SWAP2 POP POP SWAP4 SWAP3 POP POP POP JUMP JUMPDEST PUSH1 0x60 PUSH1 0x7 PUSH1 0x0 DUP6 DUP2 MSTORE PUSH1 0x20 ADD SWAP1 DUP2 MSTORE PUSH1 0x20 ADD PUSH1 0x0 KECCAK256 PUSH1 0x0 SWAP1 SLOAD SWAP1 PUSH2 0x100 EXP SWAP1 DIV PUSH20 0xFFFFFFFFFFFFFFFFFFFFFFFFFFFFFFFFFFFFFFFF AND PUSH20 0xFFFFFFFFFFFFFFFFFFFFFFFFFFFFFFFFFFFFFFFF AND CALLER PUSH20 0xFFFFFFFFFFFFFFFFFFFFFFFFFFFFFFFFFFFFFFFF AND EQ PUSH2 0x754 JUMPI PUSH1 0x0 DUP1 REVERT JUMPDEST PUSH1 0x5 SLOAD CALLVALUE EQ PUSH2 0x762 JUMPI PUSH1 0x0 DUP1 REVERT JUMPDEST DUP3 PUSH1 0x6 DUP6 DUP2 SLOAD DUP2 LT PUSH2 0x777 JUMPI PUSH2 0x776 PUSH2 0x1C5D JUMP JUMPDEST JUMPDEST SWAP1 PUSH1 0x0 MSTORE PUSH1 0x20 PUSH1 0x0 KECCAK256 SWAP1 PUSH1 0x8 MUL ADD PUSH1 0x1 ADD SWAP1 DUP1 MLOAD SWAP1 PUSH1 0x20 ADD SWAP1 PUSH2 0x79B SWAP3 SWAP2 SWAP1 PUSH2 0x12C2 JUMP JUMPDEST POP DUP2 PUSH1 0x6 DUP6 DUP2 SLOAD DUP2 LT PUSH2 0x7B1 JUMPI PUSH2 0x7B0 PUSH2 0x1C5D JUMP JUMPDEST JUMPDEST SWAP1 PUSH1 0x0 MSTORE PUSH1 0x20 PUSH1 0x0 KECCAK256 SWAP1 PUSH1 0x8 MUL ADD PUSH1 0x2 ADD SWAP1 DUP1 MLOAD SWAP1 PUSH1 0x20 ADD SWAP1 PUSH2 0x7D5 SWAP3 SWAP2 SWAP1 PUSH2 0x12C2 JUMP JUMPDEST POP SWAP4 SWAP3 POP POP POP JUMP JUMPDEST PUSH1 0x60 PUSH1 0x4 SLOAD CALLVALUE EQ PUSH2 0x7ED JUMPI PUSH1 0x0 DUP1 REVERT JUMPDEST PUSH1 0x0 JUMPDEST PUSH1 0x6 DUP1 SLOAD SWAP1 POP DUP2 LT ISZERO PUSH2 0x92B JUMPI DUP3 PUSH20 0xFFFFFFFFFFFFFFFFFFFFFFFFFFFFFFFFFFFFFFFF AND PUSH1 0x6 DUP3 DUP2 SLOAD DUP2 LT PUSH2 0x828 JUMPI PUSH2 0x827 PUSH2 0x1C5D JUMP JUMPDEST JUMPDEST SWAP1 PUSH1 0x0 MSTORE PUSH1 0x20 PUSH1 0x0 KECCAK256 SWAP1 PUSH1 0x8 MUL ADD PUSH1 0x0 ADD PUSH1 0x0 SWAP1 SLOAD SWAP1 PUSH2 0x100 EXP SWAP1 DIV PUSH20 0xFFFFFFFFFFFFFFFFFFFFFFFFFFFFFFFFFFFFFFFF AND PUSH20 0xFFFFFFFFFFFFFFFFFFFFFFFFFFFFFFFFFFFFFFFF AND EQ ISZERO PUSH2 0x918 JUMPI PUSH1 0x6 DUP2 DUP2 SLOAD DUP2 LT PUSH2 0x88A JUMPI PUSH2 0x889 PUSH2 0x1C5D JUMP JUMPDEST JUMPDEST SWAP1 PUSH1 0x0 MSTORE PUSH1 0x20 PUSH1 0x0 KECCAK256 SWAP1 PUSH1 0x8 MUL ADD PUSH1 0x7 ADD PUSH1 0x0 DUP2 DUP2 SWAP1 SLOAD SWAP1 PUSH2 0x100 EXP SWAP1 DIV PUSH4 0xFFFFFFFF AND DUP1 SWAP3 SWAP2 SWAP1 PUSH2 0x8BB SWAP1 PUSH2 0x1B68 JUMP JUMPDEST SWAP2 SWAP1 PUSH2 0x100 EXP DUP2 SLOAD DUP2 PUSH4 0xFFFFFFFF MUL NOT AND SWAP1 DUP4 PUSH4 0xFFFFFFFF AND MUL OR SWAP1 SSTORE POP POP PUSH1 0x40 MLOAD DUP1 PUSH1 0x40 ADD PUSH1 0x40 MSTORE DUP1 PUSH1 0x12 DUP2 MSTORE PUSH1 0x20 ADD PUSH32 0x48612073756269646F206465206E6976656C0000000000000000000000000000 DUP2 MSTORE POP SWAP2 POP POP PUSH2 0x92D JUMP JUMPDEST DUP1 DUP1 PUSH2 0x923 SWAP1 PUSH2 0x1B1F JUMP JUMPDEST SWAP2 POP POP PUSH2 0x7F0 JUMP JUMPDEST POP JUMPDEST SWAP2 SWAP1 POP JUMP JUMPDEST PUSH1 0x60 DUP2 CALLVALUE EQ PUSH2 0x940 JUMPI PUSH1 0x0 DUP1 REVERT JUMPDEST PUSH1 0x1 PUSH1 0x0 DUP2 SLOAD DUP1 SWAP3 SWAP2 SWAP1 PUSH2 0x953 SWAP1 PUSH2 0x1B1F JUMP JUMPDEST SWAP2 SWAP1 POP SSTORE POP PUSH1 0x0 PUSH1 0x6 DUP1 SLOAD SWAP1 POP TIMESTAMP PUSH1 0x6 DUP1 SLOAD SWAP1 POP PUSH1 0x1 SLOAD PUSH1 0x40 MLOAD PUSH1 0x20 ADD PUSH2 0x97C SWAP4 SWAP3 SWAP2 SWAP1 PUSH2 0x1714 JUMP JUMPDEST PUSH1 0x40 MLOAD PUSH1 0x20 DUP2 DUP4 SUB SUB DUP2 MSTORE SWAP1 PUSH1 0x40 MSTORE DUP1 MLOAD SWAP1 PUSH1 0x20 ADD KECCAK256 PUSH1 0x0 SHR PUSH2 0x99F SWAP2 SWAP1 PUSH2 0x1B9F JUMP JUMPDEST SWAP1 POP PUSH1 0x1 PUSH1 0x0 DUP2 SLOAD DUP1 SWAP3 SWAP2 SWAP1 PUSH2 0x9B4 SWAP1 PUSH2 0x1B1F JUMP JUMPDEST SWAP2 SWAP1 POP SSTORE POP PUSH1 0x0 PUSH1 0x2 SWAP1 POP PUSH1 0x0 DUP2 TIMESTAMP DUP4 PUSH1 0x1 SLOAD PUSH1 0x40 MLOAD PUSH1 0x20 ADD PUSH2 0x9D9 SWAP4 SWAP3 SWAP2 SWAP1 PUSH2 0x1714 JUMP JUMPDEST PUSH1 0x40 MLOAD PUSH1 0x20 DUP2 DUP4 SUB SUB DUP2 MSTORE SWAP1 PUSH1 0x40 MSTORE DUP1 MLOAD SWAP1 PUSH1 0x20 ADD KECCAK256 PUSH1 0x0 SHR PUSH2 0x9FC SWAP2 SWAP1 PUSH2 0x1B9F JUMP JUMPDEST SWAP1 POP PUSH1 0x0 JUMPDEST PUSH1 0x6 DUP1 SLOAD SWAP1 POP DUP2 LT ISZERO PUSH2 0xC03 JUMPI PUSH1 0x6 DUP2 DUP2 SLOAD DUP2 LT PUSH2 0xA22 JUMPI PUSH2 0xA21 PUSH2 0x1C5D JUMP JUMPDEST JUMPDEST SWAP1 PUSH1 0x0 MSTORE PUSH1 0x20 PUSH1 0x0 KECCAK256 SWAP1 PUSH1 0x8 MUL ADD PUSH1 0x0 ADD PUSH1 0x0 SWAP1 SLOAD SWAP1 PUSH2 0x100 EXP SWAP1 DIV PUSH20 0xFFFFFFFFFFFFFFFFFFFFFFFFFFFFFFFFFFFFFFFF AND PUSH20 0xFFFFFFFFFFFFFFFFFFFFFFFFFFFFFFFFFFFFFFFF AND CALLER PUSH20 0xFFFFFFFFFFFFFFFFFFFFFFFFFFFFFFFFFFFFFFFF AND EQ ISZERO PUSH2 0xBF0 JUMPI PUSH1 0x0 DUP3 EQ ISZERO PUSH2 0xB78 JUMPI PUSH2 0xA98 PUSH2 0x11B5 JUMP JUMPDEST PUSH1 0x6 DUP2 DUP2 SLOAD DUP2 LT PUSH2 0xAAC JUMPI PUSH2 0xAAB PUSH2 0x1C5D JUMP JUMPDEST JUMPDEST SWAP1 PUSH1 0x0 MSTORE PUSH1 0x20 PUSH1 0x0 KECCAK256 SWAP1 PUSH1 0x8 MUL ADD PUSH1 0x4 ADD PUSH1 0x0 DUP2 SLOAD DUP1 SWAP3 SWAP2 SWAP1 PUSH2 0xACE SWAP1 PUSH2 0x1B1F JUMP JUMPDEST SWAP2 SWAP1 POP SSTORE POP PUSH1 0x6 DUP2 DUP2 SLOAD DUP2 LT PUSH2 0xAE7 JUMPI PUSH2 0xAE6 PUSH2 0x1C5D JUMP JUMPDEST JUMPDEST SWAP1 PUSH1 0x0 MSTORE PUSH1 0x20 PUSH1 0x0 KECCAK256 SWAP1 PUSH1 0x8 MUL ADD PUSH1 0x7 ADD PUSH1 0x0 DUP2 DUP2 SWAP1 SLOAD SWAP1 PUSH2 0x100 EXP SWAP1 DIV PUSH4 0xFFFFFFFF AND DUP1 SWAP3 SWAP2 SWAP1 PUSH2 0xB18 SWAP1 PUSH2 0x1B68 JUMP JUMPDEST SWAP2 SWAP1 PUSH2 0x100 EXP DUP2 SLOAD DUP2 PUSH4 0xFFFFFFFF MUL NOT AND SWAP1 DUP4 PUSH4 0xFFFFFFFF AND MUL OR SWAP1 SSTORE POP POP PUSH1 0x40 MLOAD DUP1 PUSH1 0x40 ADD PUSH1 0x40 MSTORE DUP1 PUSH1 0xA DUP2 MSTORE PUSH1 0x20 ADD PUSH32 0x4861732067616E61646F00000000000000000000000000000000000000000000 DUP2 MSTORE POP SWAP5 POP POP POP POP POP PUSH2 0xC08 JUMP JUMPDEST PUSH32 0xA28482EEC3136A2461C6C30C08F71BA279C6C51A2D9C7BEA4E50D6D2632F3896 DUP5 PUSH1 0x40 MLOAD PUSH2 0xBA7 SWAP2 SWAP1 PUSH2 0x18D4 JUMP JUMPDEST PUSH1 0x40 MLOAD DUP1 SWAP2 SUB SWAP1 LOG1 PUSH1 0x40 MLOAD DUP1 PUSH1 0x40 ADD PUSH1 0x40 MSTORE DUP1 PUSH1 0xB DUP2 MSTORE PUSH1 0x20 ADD PUSH32 0x486173207065726469646F000000000000000000000000000000000000000000 DUP2 MSTORE POP SWAP5 POP POP POP POP POP PUSH2 0xC08 JUMP JUMPDEST DUP1 DUP1 PUSH2 0xBFB SWAP1 PUSH2 0x1B1F JUMP JUMPDEST SWAP2 POP POP PUSH2 0xA01 JUMP JUMPDEST POP POP POP POP JUMPDEST SWAP2 SWAP1 POP JUMP JUMPDEST PUSH2 0xC15 PUSH2 0x11AD JUMP JUMPDEST PUSH20 0xFFFFFFFFFFFFFFFFFFFFFFFFFFFFFFFFFFFFFFFF AND PUSH2 0xC33 PUSH2 0xCC8 JUMP JUMPDEST PUSH20 0xFFFFFFFFFFFFFFFFFFFFFFFFFFFFFFFFFFFFFFFF AND EQ PUSH2 0xC89 JUMPI PUSH1 0x40 MLOAD PUSH32 0x8C379A000000000000000000000000000000000000000000000000000000000 DUP2 MSTORE PUSH1 0x4 ADD PUSH2 0xC80 SWAP1 PUSH2 0x18B4 JUMP JUMPDEST PUSH1 0x40 MLOAD DUP1 SWAP2 SUB SWAP1 REVERT JUMPDEST PUSH2 0xC93 PUSH1 0x0 PUSH2 0x11FE JUMP JUMPDEST JUMP JUMPDEST PUSH1 0x7 PUSH1 0x20 MSTORE DUP1 PUSH1 0x0 MSTORE PUSH1 0x40 PUSH1 0x0 KECCAK256 PUSH1 0x0 SWAP2 POP SLOAD SWAP1 PUSH2 0x100 EXP SWAP1 DIV PUSH20 0xFFFFFFFFFFFFFFFFFFFFFFFFFFFFFFFFFFFFFFFF AND DUP2 JUMP JUMPDEST PUSH1 0x0 DUP1 PUSH1 0x0 SWAP1 SLOAD SWAP1 PUSH2 0x100 EXP SWAP1 DIV PUSH20 0xFFFFFFFFFFFFFFFFFFFFFFFFFFFFFFFFFFFFFFFF AND SWAP1 POP SWAP1 JUMP JUMPDEST PUSH1 0x0 DUP1 SLOAD SWAP1 PUSH2 0x100 EXP SWAP1 DIV PUSH20 0xFFFFFFFFFFFFFFFFFFFFFFFFFFFFFFFFFFFFFFFF AND DUP2 JUMP JUMPDEST PUSH1 0x6 DUP2 DUP2 SLOAD DUP2 LT PUSH2 0xD25 JUMPI PUSH1 0x0 DUP1 REVERT JUMPDEST SWAP1 PUSH1 0x0 MSTORE PUSH1 0x20 PUSH1 0x0 KECCAK256 SWAP1 PUSH1 0x8 MUL ADD PUSH1 0x0 SWAP2 POP SWAP1 POP DUP1 PUSH1 0x0 ADD PUSH1 0x0 SWAP1 SLOAD SWAP1 PUSH2 0x100 EXP SWAP1 DIV PUSH20 0xFFFFFFFFFFFFFFFFFFFFFFFFFFFFFFFFFFFFFFFF AND SWAP1 DUP1 PUSH1 0x1 ADD DUP1 SLOAD PUSH2 0xD6E SWAP1 PUSH2 0x1ABC JUMP JUMPDEST DUP1 PUSH1 0x1F ADD PUSH1 0x20 DUP1 SWAP2 DIV MUL PUSH1 0x20 ADD PUSH1 0x40 MLOAD SWAP1 DUP2 ADD PUSH1 0x40 MSTORE DUP1 SWAP3 SWAP2 SWAP1 DUP2 DUP2 MSTORE PUSH1 0x20 ADD DUP3 DUP1 SLOAD PUSH2 0xD9A SWAP1 PUSH2 0x1ABC JUMP JUMPDEST DUP1 ISZERO PUSH2 0xDE7 JUMPI DUP1 PUSH1 0x1F LT PUSH2 0xDBC JUMPI PUSH2 0x100 DUP1 DUP4 SLOAD DIV MUL DUP4 MSTORE SWAP2 PUSH1 0x20 ADD SWAP2 PUSH2 0xDE7 JUMP JUMPDEST DUP3 ADD SWAP2 SWAP1 PUSH1 0x0 MSTORE PUSH1 0x20 PUSH1 0x0 KECCAK256 SWAP1 JUMPDEST DUP2 SLOAD DUP2 MSTORE SWAP1 PUSH1 0x1 ADD SWAP1 PUSH1 0x20 ADD DUP1 DUP4 GT PUSH2 0xDCA JUMPI DUP3 SWAP1 SUB PUSH1 0x1F AND DUP3 ADD SWAP2 JUMPDEST POP POP POP POP POP SWAP1 DUP1 PUSH1 0x2 ADD DUP1 SLOAD PUSH2 0xDFC SWAP1 PUSH2 0x1ABC JUMP JUMPDEST DUP1 PUSH1 0x1F ADD PUSH1 0x20 DUP1 SWAP2 DIV MUL PUSH1 0x20 ADD PUSH1 0x40 MLOAD SWAP1 DUP2 ADD PUSH1 0x40 MSTORE DUP1 SWAP3 SWAP2 SWAP1 DUP2 DUP2 MSTORE PUSH1 0x20 ADD DUP3 DUP1 SLOAD PUSH2 0xE28 SWAP1 PUSH2 0x1ABC JUMP JUMPDEST DUP1 ISZERO PUSH2 0xE75 JUMPI DUP1 PUSH1 0x1F LT PUSH2 0xE4A JUMPI PUSH2 0x100 DUP1 DUP4 SLOAD DIV MUL DUP4 MSTORE SWAP2 PUSH1 0x20 ADD SWAP2 PUSH2 0xE75 JUMP JUMPDEST DUP3 ADD SWAP2 SWAP1 PUSH1 0x0 MSTORE PUSH1 0x20 PUSH1 0x0 KECCAK256 SWAP1 JUMPDEST DUP2 SLOAD DUP2 MSTORE SWAP1 PUSH1 0x1 ADD SWAP1 PUSH1 0x20 ADD DUP1 DUP4 GT PUSH2 0xE58 JUMPI DUP3 SWAP1 SUB PUSH1 0x1F AND DUP3 ADD SWAP2 JUMPDEST POP POP POP POP POP SWAP1 DUP1 PUSH1 0x3 ADD DUP1 SLOAD PUSH2 0xE8A SWAP1 PUSH2 0x1ABC JUMP JUMPDEST DUP1 PUSH1 0x1F ADD PUSH1 0x20 DUP1 SWAP2 DIV MUL PUSH1 0x20 ADD PUSH1 0x40 MLOAD SWAP1 DUP2 ADD PUSH1 0x40 MSTORE DUP1 SWAP3 SWAP2 SWAP1 DUP2 DUP2 MSTORE PUSH1 0x20 ADD DUP3 DUP1 SLOAD PUSH2 0xEB6 SWAP1 PUSH2 0x1ABC JUMP JUMPDEST DUP1 ISZERO PUSH2 0xF03 JUMPI DUP1 PUSH1 0x1F LT PUSH2 0xED8 JUMPI PUSH2 0x100 DUP1 DUP4 SLOAD DIV MUL DUP4 MSTORE SWAP2 PUSH1 0x20 ADD SWAP2 PUSH2 0xF03 JUMP JUMPDEST DUP3 ADD SWAP2 SWAP1 PUSH1 0x0 MSTORE PUSH1 0x20 PUSH1 0x0 KECCAK256 SWAP1 JUMPDEST DUP2 SLOAD DUP2 MSTORE SWAP1 PUSH1 0x1 ADD SWAP1 PUSH1 0x20 ADD DUP1 DUP4 GT PUSH2 0xEE6 JUMPI DUP3 SWAP1 SUB PUSH1 0x1F AND DUP3 ADD SWAP2 JUMPDEST POP POP POP POP POP SWAP1 DUP1 PUSH1 0x4 ADD SLOAD SWAP1 DUP1 PUSH1 0x5 ADD SLOAD SWAP1 DUP1 PUSH1 0x6 ADD SLOAD SWAP1 DUP1 PUSH1 0x7 ADD PUSH1 0x0 SWAP1 SLOAD SWAP1 PUSH2 0x100 EXP SWAP1 DIV PUSH4 0xFFFFFFFF AND SWAP1 POP DUP9 JUMP JUMPDEST PUSH1 0x0 JUMPDEST PUSH1 0x6 DUP1 SLOAD SWAP1 POP DUP2 LT ISZERO PUSH2 0x10B1 JUMPI DUP2 PUSH20 0xFFFFFFFFFFFFFFFFFFFFFFFFFFFFFFFFFFFFFFFF AND PUSH1 0x6 DUP3 DUP2 SLOAD DUP2 LT PUSH2 0xF70 JUMPI PUSH2 0xF6F PUSH2 0x1C5D JUMP JUMPDEST JUMPDEST SWAP1 PUSH1 0x0 MSTORE PUSH1 0x20 PUSH1 0x0 KECCAK256 SWAP1 PUSH1 0x8 MUL ADD PUSH1 0x0 ADD PUSH1 0x0 SWAP1 SLOAD SWAP1 PUSH2 0x100 EXP SWAP1 DIV PUSH20 0xFFFFFFFFFFFFFFFFFFFFFFFFFFFFFFFFFFFFFFFF AND PUSH20 0xFFFFFFFFFFFFFFFFFFFFFFFFFFFFFFFFFFFFFFFF AND EQ ISZERO PUSH2 0x109E JUMPI PUSH32 0x18C2885DBBFFC4E127DA047B869295B42D8D5EE97848F7F117B062E88F34A9E6 PUSH1 0x6 DUP3 DUP2 SLOAD DUP2 LT PUSH2 0xFF3 JUMPI PUSH2 0xFF2 PUSH2 0x1C5D JUMP JUMPDEST JUMPDEST SWAP1 PUSH1 0x0 MSTORE PUSH1 0x20 PUSH1 0x0 KECCAK256 SWAP1 PUSH1 0x8 MUL ADD PUSH1 0x2 ADD PUSH1 0x6 DUP4 DUP2 SLOAD DUP2 LT PUSH2 0x1018 JUMPI PUSH2 0x1017 PUSH2 0x1C5D JUMP JUMPDEST JUMPDEST SWAP1 PUSH1 0x0 MSTORE PUSH1 0x20 PUSH1 0x0 KECCAK256 SWAP1 PUSH1 0x8 MUL ADD PUSH1 0x1 ADD PUSH1 0x6 DUP5 DUP2 SLOAD DUP2 LT PUSH2 0x103D JUMPI PUSH2 0x103C PUSH2 0x1C5D JUMP JUMPDEST JUMPDEST SWAP1 PUSH1 0x0 MSTORE PUSH1 0x20 PUSH1 0x0 KECCAK256 SWAP1 PUSH1 0x8 MUL ADD PUSH1 0x7 ADD PUSH1 0x0 SWAP1 SLOAD SWAP1 PUSH2 0x100 EXP SWAP1 DIV PUSH4 0xFFFFFFFF AND PUSH1 0x6 DUP6 DUP2 SLOAD DUP2 LT PUSH2 0x1073 JUMPI PUSH2 0x1072 PUSH2 0x1C5D JUMP JUMPDEST JUMPDEST SWAP1 PUSH1 0x0 MSTORE PUSH1 0x20 PUSH1 0x0 KECCAK256 SWAP1 PUSH1 0x8 MUL ADD PUSH1 0x4 ADD SLOAD PUSH1 0x40 MLOAD PUSH2 0x1095 SWAP5 SWAP4 SWAP3 SWAP2 SWAP1 PUSH2 0x1821 JUMP JUMPDEST PUSH1 0x40 MLOAD DUP1 SWAP2 SUB SWAP1 LOG1 JUMPDEST DUP1 DUP1 PUSH2 0x10A9 SWAP1 PUSH2 0x1B1F JUMP JUMPDEST SWAP2 POP POP PUSH2 0xF38 JUMP JUMPDEST POP POP JUMP JUMPDEST PUSH2 0x10BD PUSH2 0x11AD JUMP JUMPDEST PUSH20 0xFFFFFFFFFFFFFFFFFFFFFFFFFFFFFFFFFFFFFFFF AND PUSH2 0x10DB PUSH2 0xCC8 JUMP JUMPDEST PUSH20 0xFFFFFFFFFFFFFFFFFFFFFFFFFFFFFFFFFFFFFFFF AND EQ PUSH2 0x1131 JUMPI PUSH1 0x40 MLOAD PUSH32 0x8C379A000000000000000000000000000000000000000000000000000000000 DUP2 MSTORE PUSH1 0x4 ADD PUSH2 0x1128 SWAP1 PUSH2 0x18B4 JUMP JUMPDEST PUSH1 0x40 MLOAD DUP1 SWAP2 SUB SWAP1 REVERT JUMPDEST PUSH1 0x0 PUSH20 0xFFFFFFFFFFFFFFFFFFFFFFFFFFFFFFFFFFFFFFFF AND DUP2 PUSH20 0xFFFFFFFFFFFFFFFFFFFFFFFFFFFFFFFFFFFFFFFF AND EQ ISZERO PUSH2 0x11A1 JUMPI PUSH1 0x40 MLOAD PUSH32 0x8C379A000000000000000000000000000000000000000000000000000000000 DUP2 MSTORE PUSH1 0x4 ADD PUSH2 0x1198 SWAP1 PUSH2 0x1894 JUMP JUMPDEST PUSH1 0x40 MLOAD DUP1 SWAP2 SUB SWAP1 REVERT JUMPDEST PUSH2 0x11AA DUP2 PUSH2 0x11FE JUMP JUMPDEST POP JUMP JUMPDEST PUSH1 0x0 CALLER SWAP1 POP SWAP1 JUMP JUMPDEST CALLER PUSH20 0xFFFFFFFFFFFFFFFFFFFFFFFFFFFFFFFFFFFFFFFF AND PUSH2 0x8FC SELFBALANCE SWAP1 DUP2 ISZERO MUL SWAP1 PUSH1 0x40 MLOAD PUSH1 0x0 PUSH1 0x40 MLOAD DUP1 DUP4 SUB DUP2 DUP6 DUP9 DUP9 CALL SWAP4 POP POP POP POP ISZERO DUP1 ISZERO PUSH2 0x11FB JUMPI RETURNDATASIZE PUSH1 0x0 DUP1 RETURNDATACOPY RETURNDATASIZE PUSH1 0x0 REVERT JUMPDEST POP JUMP JUMPDEST PUSH1 0x0 DUP1 PUSH1 0x0 SWAP1 SLOAD SWAP1 PUSH2 0x100 EXP SWAP1 DIV PUSH20 0xFFFFFFFFFFFFFFFFFFFFFFFFFFFFFFFFFFFFFFFF AND SWAP1 POP DUP2 PUSH1 0x0 DUP1 PUSH2 0x100 EXP DUP2 SLOAD DUP2 PUSH20 0xFFFFFFFFFFFFFFFFFFFFFFFFFFFFFFFFFFFFFFFF MUL NOT AND SWAP1 DUP4 PUSH20 0xFFFFFFFFFFFFFFFFFFFFFFFFFFFFFFFFFFFFFFFF AND MUL OR SWAP1 SSTORE POP DUP2 PUSH20 0xFFFFFFFFFFFFFFFFFFFFFFFFFFFFFFFFFFFFFFFF AND DUP2 PUSH20 0xFFFFFFFFFFFFFFFFFFFFFFFFFFFFFFFFFFFFFFFF AND PUSH32 0x8BE0079C531659141344CD1FD0A4F28419497F9722A3DAAFE3B4186F6B6457E0 PUSH1 0x40 MLOAD PUSH1 0x40 MLOAD DUP1 SWAP2 SUB SWAP1 LOG3 POP POP JUMP JUMPDEST DUP3 DUP1 SLOAD PUSH2 0x12CE SWAP1 PUSH2 0x1ABC JUMP JUMPDEST SWAP1 PUSH1 0x0 MSTORE PUSH1 0x20 PUSH1 0x0 KECCAK256 SWAP1 PUSH1 0x1F ADD PUSH1 0x20 SWAP1 DIV DUP2 ADD SWAP3 DUP3 PUSH2 0x12F0 JUMPI PUSH1 0x0 DUP6 SSTORE PUSH2 0x1337 JUMP JUMPDEST DUP3 PUSH1 0x1F LT PUSH2 0x1309 JUMPI DUP1 MLOAD PUSH1 0xFF NOT AND DUP4 DUP1 ADD OR DUP6 SSTORE PUSH2 0x1337 JUMP JUMPDEST DUP3 DUP1 ADD PUSH1 0x1 ADD DUP6 SSTORE DUP3 ISZERO PUSH2 0x1337 JUMPI SWAP2 DUP3 ADD JUMPDEST DUP3 DUP2 GT ISZERO PUSH2 0x1336 JUMPI DUP3 MLOAD DUP3 SSTORE SWAP2 PUSH1 0x20 ADD SWAP2 SWAP1 PUSH1 0x1 ADD SWAP1 PUSH2 0x131B JUMP JUMPDEST JUMPDEST POP SWAP1 POP PUSH2 0x1344 SWAP2 SWAP1 PUSH2 0x1348 JUMP JUMPDEST POP SWAP1 JUMP JUMPDEST JUMPDEST DUP1 DUP3 GT ISZERO PUSH2 0x1361 JUMPI PUSH1 0x0 DUP2 PUSH1 0x0 SWAP1 SSTORE POP PUSH1 0x1 ADD PUSH2 0x1349 JUMP JUMPDEST POP SWAP1 JUMP JUMPDEST PUSH1 0x0 PUSH2 0x1378 PUSH2 0x1373 DUP5 PUSH2 0x1942 JUMP JUMPDEST PUSH2 0x191D JUMP JUMPDEST SWAP1 POP DUP3 DUP2 MSTORE PUSH1 0x20 DUP2 ADD DUP5 DUP5 DUP5 ADD GT ISZERO PUSH2 0x1394 JUMPI PUSH2 0x1393 PUSH2 0x1CC0 JUMP JUMPDEST JUMPDEST PUSH2 0x139F DUP5 DUP3 DUP6 PUSH2 0x1A7A JUMP JUMPDEST POP SWAP4 SWAP3 POP POP POP JUMP JUMPDEST PUSH1 0x0 DUP2 CALLDATALOAD SWAP1 POP PUSH2 0x13B6 DUP2 PUSH2 0x1DD0 JUMP JUMPDEST SWAP3 SWAP2 POP POP JUMP JUMPDEST PUSH1 0x0 DUP3 PUSH1 0x1F DUP4 ADD SLT PUSH2 0x13D1 JUMPI PUSH2 0x13D0 PUSH2 0x1CBB JUMP JUMPDEST JUMPDEST DUP2 CALLDATALOAD PUSH2 0x13E1 DUP5 DUP3 PUSH1 0x20 DUP7 ADD PUSH2 0x1365 JUMP JUMPDEST SWAP2 POP POP SWAP3 SWAP2 POP POP JUMP JUMPDEST PUSH1 0x0 DUP2 CALLDATALOAD SWAP1 POP PUSH2 0x13F9 DUP2 PUSH2 0x1DE7 JUMP JUMPDEST SWAP3 SWAP2 POP POP JUMP JUMPDEST PUSH1 0x0 PUSH1 0x20 DUP3 DUP5 SUB SLT ISZERO PUSH2 0x1415 JUMPI PUSH2 0x1414 PUSH2 0x1CCA JUMP JUMPDEST JUMPDEST PUSH1 0x0 PUSH2 0x1423 DUP5 DUP3 DUP6 ADD PUSH2 0x13A7 JUMP JUMPDEST SWAP2 POP POP SWAP3 SWAP2 POP POP JUMP JUMPDEST PUSH1 0x0 DUP1 PUSH1 0x0 PUSH1 0x60 DUP5 DUP7 SUB SLT ISZERO PUSH2 0x1445 JUMPI PUSH2 0x1444 PUSH2 0x1CCA JUMP JUMPDEST JUMPDEST PUSH1 0x0 DUP5 ADD CALLDATALOAD PUSH8 0xFFFFFFFFFFFFFFFF DUP2 GT ISZERO PUSH2 0x1463 JUMPI PUSH2 0x1462 PUSH2 0x1CC5 JUMP JUMPDEST JUMPDEST PUSH2 0x146F DUP7 DUP3 DUP8 ADD PUSH2 0x13BC JUMP JUMPDEST SWAP4 POP POP PUSH1 0x20 DUP5 ADD CALLDATALOAD PUSH8 0xFFFFFFFFFFFFFFFF DUP2 GT ISZERO PUSH2 0x1490 JUMPI PUSH2 0x148F PUSH2 0x1CC5 JUMP JUMPDEST JUMPDEST PUSH2 0x149C DUP7 DUP3 DUP8 ADD PUSH2 0x13BC JUMP JUMPDEST SWAP3 POP POP PUSH1 0x40 DUP5 ADD CALLDATALOAD PUSH8 0xFFFFFFFFFFFFFFFF DUP2 GT ISZERO PUSH2 0x14BD JUMPI PUSH2 0x14BC PUSH2 0x1CC5 JUMP JUMPDEST JUMPDEST PUSH2 0x14C9 DUP7 DUP3 DUP8 ADD PUSH2 0x13BC JUMP JUMPDEST SWAP2 POP POP SWAP3 POP SWAP3 POP SWAP3 JUMP JUMPDEST PUSH1 0x0 PUSH1 0x20 DUP3 DUP5 SUB SLT ISZERO PUSH2 0x14E9 JUMPI PUSH2 0x14E8 PUSH2 0x1CCA JUMP JUMPDEST JUMPDEST PUSH1 0x0 PUSH2 0x14F7 DUP5 DUP3 DUP6 ADD PUSH2 0x13EA JUMP JUMPDEST SWAP2 POP POP SWAP3 SWAP2 POP POP JUMP JUMPDEST PUSH1 0x0 DUP1 PUSH1 0x0 PUSH1 0x60 DUP5 DUP7 SUB SLT ISZERO PUSH2 0x1519 JUMPI PUSH2 0x1518 PUSH2 0x1CCA JUMP JUMPDEST JUMPDEST PUSH1 0x0 PUSH2 0x1527 DUP7 DUP3 DUP8 ADD PUSH2 0x13EA JUMP JUMPDEST SWAP4 POP POP PUSH1 0x20 DUP5 ADD CALLDATALOAD PUSH8 0xFFFFFFFFFFFFFFFF DUP2 GT ISZERO PUSH2 0x1548 JUMPI PUSH2 0x1547 PUSH2 0x1CC5 JUMP JUMPDEST JUMPDEST PUSH2 0x1554 DUP7 DUP3 DUP8 ADD PUSH2 0x13BC JUMP JUMPDEST SWAP3 POP POP PUSH1 0x40 DUP5 ADD CALLDATALOAD PUSH8 0xFFFFFFFFFFFFFFFF DUP2 GT ISZERO PUSH2 0x1575 JUMPI PUSH2 0x1574 PUSH2 0x1CC5 JUMP JUMPDEST JUMPDEST PUSH2 0x1581 DUP7 DUP3 DUP8 ADD PUSH2 0x13BC JUMP JUMPDEST SWAP2 POP POP SWAP3 POP SWAP3 POP SWAP3 JUMP JUMPDEST PUSH2 0x1594 DUP2 PUSH2 0x1A2E JUMP JUMPDEST DUP3 MSTORE POP POP JUMP JUMPDEST PUSH1 0x0 PUSH2 0x15A5 DUP3 PUSH2 0x1988 JUMP JUMPDEST PUSH2 0x15AF DUP2 DUP6 PUSH2 0x1993 JUMP JUMPDEST SWAP4 POP PUSH2 0x15BF DUP2 DUP6 PUSH1 0x20 DUP7 ADD PUSH2 0x1A89 JUMP JUMPDEST PUSH2 0x15C8 DUP2 PUSH2 0x1CCF JUMP JUMPDEST DUP5 ADD SWAP2 POP POP SWAP3 SWAP2 POP POP JUMP JUMPDEST PUSH1 0x0 DUP2 SLOAD PUSH2 0x15E0 DUP2 PUSH2 0x1ABC JUMP JUMPDEST PUSH2 0x15EA DUP2 DUP7 PUSH2 0x1993 JUMP JUMPDEST SWAP5 POP PUSH1 0x1 DUP3 AND PUSH1 0x0 DUP2 EQ PUSH2 0x1605 JUMPI PUSH1 0x1 DUP2 EQ PUSH2 0x1617 JUMPI PUSH2 0x164A JUMP JUMPDEST PUSH1 0xFF NOT DUP4 AND DUP7 MSTORE PUSH1 0x20 DUP7 ADD SWAP4 POP PUSH2 0x164A JUMP JUMPDEST PUSH2 0x1620 DUP6 PUSH2 0x1973 JUMP JUMPDEST PUSH1 0x0 JUMPDEST DUP4 DUP2 LT ISZERO PUSH2 0x1642 JUMPI DUP2 SLOAD DUP2 DUP10 ADD MSTORE PUSH1 0x1 DUP3 ADD SWAP2 POP PUSH1 0x20 DUP2 ADD SWAP1 POP PUSH2 0x1623 JUMP JUMPDEST DUP1 DUP9 ADD SWAP6 POP POP POP JUMPDEST POP POP POP SWAP3 SWAP2 POP POP JUMP JUMPDEST PUSH1 0x0 PUSH2 0x1660 PUSH1 0x28 DUP4 PUSH2 0x1993 JUMP JUMPDEST SWAP2 POP PUSH2 0x166B DUP3 PUSH2 0x1CE0 JUMP JUMPDEST PUSH1 0x40 DUP3 ADD SWAP1 POP SWAP2 SWAP1 POP JUMP JUMPDEST PUSH1 0x0 PUSH2 0x1683 PUSH1 0x26 DUP4 PUSH2 0x1993 JUMP JUMPDEST SWAP2 POP PUSH2 0x168E DUP3 PUSH2 0x1D2F JUMP JUMPDEST PUSH1 0x40 DUP3 ADD SWAP1 POP SWAP2 SWAP1 POP JUMP JUMPDEST PUSH1 0x0 PUSH2 0x16A6 PUSH1 0x20 DUP4 PUSH2 0x1993 JUMP JUMPDEST SWAP2 POP PUSH2 0x16B1 DUP3 PUSH2 0x1D7E JUMP JUMPDEST PUSH1 0x20 DUP3 ADD SWAP1 POP SWAP2 SWAP1 POP JUMP JUMPDEST PUSH1 0x0 PUSH2 0x16C9 PUSH1 0x15 DUP4 PUSH2 0x1993 JUMP JUMPDEST SWAP2 POP PUSH2 0x16D4 DUP3 PUSH2 0x1DA7 JUMP JUMPDEST PUSH1 0x20 DUP3 ADD SWAP1 POP SWAP2 SWAP1 POP JUMP JUMPDEST PUSH2 0x16E8 DUP2 PUSH2 0x1A60 JUMP JUMPDEST DUP3 MSTORE POP POP JUMP JUMPDEST PUSH2 0x16FF PUSH2 0x16FA DUP3 PUSH2 0x1A60 JUMP JUMPDEST PUSH2 0x1B95 JUMP JUMPDEST DUP3 MSTORE POP POP JUMP JUMPDEST PUSH2 0x170E DUP2 PUSH2 0x1A6A JUMP JUMPDEST DUP3 MSTORE POP POP JUMP JUMPDEST PUSH1 0x0 PUSH2 0x1720 DUP3 DUP7 PUSH2 0x16EE JUMP JUMPDEST PUSH1 0x20 DUP3 ADD SWAP2 POP PUSH2 0x1730 DUP3 DUP6 PUSH2 0x16EE JUMP JUMPDEST PUSH1 0x20 DUP3 ADD SWAP2 POP PUSH2 0x1740 DUP3 DUP5 PUSH2 0x16EE JUMP JUMPDEST PUSH1 0x20 DUP3 ADD SWAP2 POP DUP2 SWAP1 POP SWAP5 SWAP4 POP POP POP POP JUMP JUMPDEST PUSH1 0x0 PUSH1 0x20 DUP3 ADD SWAP1 POP PUSH2 0x1766 PUSH1 0x0 DUP4 ADD DUP5 PUSH2 0x158B JUMP JUMPDEST SWAP3 SWAP2 POP POP JUMP JUMPDEST PUSH1 0x0 PUSH2 0x100 DUP3 ADD SWAP1 POP PUSH2 0x1782 PUSH1 0x0 DUP4 ADD DUP12 PUSH2 0x158B JUMP JUMPDEST DUP2 DUP2 SUB PUSH1 0x20 DUP4 ADD MSTORE PUSH2 0x1794 DUP2 DUP11 PUSH2 0x159A JUMP JUMPDEST SWAP1 POP DUP2 DUP2 SUB PUSH1 0x40 DUP4 ADD MSTORE PUSH2 0x17A8 DUP2 DUP10 PUSH2 0x159A JUMP JUMPDEST SWAP1 POP DUP2 DUP2 SUB PUSH1 0x60 DUP4 ADD MSTORE PUSH2 0x17BC DUP2 DUP9 PUSH2 0x159A JUMP JUMPDEST SWAP1 POP PUSH2 0x17CB PUSH1 0x80 DUP4 ADD DUP8 PUSH2 0x16DF JUMP JUMPDEST PUSH2 0x17D8 PUSH1 0xA0 DUP4 ADD DUP7 PUSH2 0x16DF JUMP JUMPDEST PUSH2 0x17E5 PUSH1 0xC0 DUP4 ADD DUP6 PUSH2 0x16DF JUMP JUMPDEST PUSH2 0x17F2 PUSH1 0xE0 DUP4 ADD DUP5 PUSH2 0x1705 JUMP JUMPDEST SWAP10 SWAP9 POP POP POP POP POP POP POP POP POP JUMP JUMPDEST PUSH1 0x0 PUSH1 0x20 DUP3 ADD SWAP1 POP DUP2 DUP2 SUB PUSH1 0x0 DUP4 ADD MSTORE PUSH2 0x1819 DUP2 DUP5 PUSH2 0x159A JUMP JUMPDEST SWAP1 POP SWAP3 SWAP2 POP POP JUMP JUMPDEST PUSH1 0x0 PUSH1 0x80 DUP3 ADD SWAP1 POP DUP2 DUP2 SUB PUSH1 0x0 DUP4 ADD MSTORE PUSH2 0x183B DUP2 DUP8 PUSH2 0x15D3 JUMP JUMPDEST SWAP1 POP DUP2 DUP2 SUB PUSH1 0x20 DUP4 ADD MSTORE PUSH2 0x184F DUP2 DUP7 PUSH2 0x15D3 JUMP JUMPDEST SWAP1 POP PUSH2 0x185E PUSH1 0x40 DUP4 ADD DUP6 PUSH2 0x1705 JUMP JUMPDEST PUSH2 0x186B PUSH1 0x60 DUP4 ADD DUP5 PUSH2 0x16DF JUMP JUMPDEST SWAP6 SWAP5 POP POP POP POP POP JUMP JUMPDEST PUSH1 0x0 PUSH1 0x20 DUP3 ADD SWAP1 POP DUP2 DUP2 SUB PUSH1 0x0 DUP4 ADD MSTORE PUSH2 0x188D DUP2 PUSH2 0x1653 JUMP JUMPDEST SWAP1 POP SWAP2 SWAP1 POP JUMP JUMPDEST PUSH1 0x0 PUSH1 0x20 DUP3 ADD SWAP1 POP DUP2 DUP2 SUB PUSH1 0x0 DUP4 ADD MSTORE PUSH2 0x18AD DUP2 PUSH2 0x1676 JUMP JUMPDEST SWAP1 POP SWAP2 SWAP1 POP JUMP JUMPDEST PUSH1 0x0 PUSH1 0x20 DUP3 ADD SWAP1 POP DUP2 DUP2 SUB PUSH1 0x0 DUP4 ADD MSTORE PUSH2 0x18CD DUP2 PUSH2 0x1699 JUMP JUMPDEST SWAP1 POP SWAP2 SWAP1 POP JUMP JUMPDEST PUSH1 0x0 PUSH1 0x40 DUP3 ADD SWAP1 POP DUP2 DUP2 SUB PUSH1 0x0 DUP4 ADD MSTORE PUSH2 0x18ED DUP2 PUSH2 0x16BC JUMP JUMPDEST SWAP1 POP PUSH2 0x18FC PUSH1 0x20 DUP4 ADD DUP5 PUSH2 0x16DF JUMP JUMPDEST SWAP3 SWAP2 POP POP JUMP JUMPDEST PUSH1 0x0 PUSH1 0x20 DUP3 ADD SWAP1 POP PUSH2 0x1917 PUSH1 0x0 DUP4 ADD DUP5 PUSH2 0x16DF JUMP JUMPDEST SWAP3 SWAP2 POP POP JUMP JUMPDEST PUSH1 0x0 PUSH2 0x1927 PUSH2 0x1938 JUMP JUMPDEST SWAP1 POP PUSH2 0x1933 DUP3 DUP3 PUSH2 0x1AEE JUMP JUMPDEST SWAP2 SWAP1 POP JUMP JUMPDEST PUSH1 0x0 PUSH1 0x40 MLOAD SWAP1 POP SWAP1 JUMP JUMPDEST PUSH1 0x0 PUSH8 0xFFFFFFFFFFFFFFFF DUP3 GT ISZERO PUSH2 0x195D JUMPI PUSH2 0x195C PUSH2 0x1C8C JUMP JUMPDEST JUMPDEST PUSH2 0x1966 DUP3 PUSH2 0x1CCF JUMP JUMPDEST SWAP1 POP PUSH1 0x20 DUP2 ADD SWAP1 POP SWAP2 SWAP1 POP JUMP JUMPDEST PUSH1 0x0 DUP2 SWAP1 POP DUP2 PUSH1 0x0 MSTORE PUSH1 0x20 PUSH1 0x0 KECCAK256 SWAP1 POP SWAP2 SWAP1 POP JUMP JUMPDEST PUSH1 0x0 DUP2 MLOAD SWAP1 POP SWAP2 SWAP1 POP JUMP JUMPDEST PUSH1 0x0 DUP3 DUP3 MSTORE PUSH1 0x20 DUP3 ADD SWAP1 POP SWAP3 SWAP2 POP POP JUMP JUMPDEST PUSH1 0x0 PUSH2 0x19AF DUP3 PUSH2 0x1A60 JUMP JUMPDEST SWAP2 POP PUSH2 0x19BA DUP4 PUSH2 0x1A60 JUMP JUMPDEST SWAP3 POP DUP3 PUSH32 0xFFFFFFFFFFFFFFFFFFFFFFFFFFFFFFFFFFFFFFFFFFFFFFFFFFFFFFFFFFFFFFFF SUB DUP3 GT ISZERO PUSH2 0x19EF JUMPI PUSH2 0x19EE PUSH2 0x1BD0 JUMP JUMPDEST JUMPDEST DUP3 DUP3 ADD SWAP1 POP SWAP3 SWAP2 POP POP JUMP JUMPDEST PUSH1 0x0 PUSH2 0x1A05 DUP3 PUSH2 0x1A60 JUMP JUMPDEST SWAP2 POP PUSH2 0x1A10 DUP4 PUSH2 0x1A60 JUMP JUMPDEST SWAP3 POP DUP3 DUP3 LT ISZERO PUSH2 0x1A23 JUMPI PUSH2 0x1A22 PUSH2 0x1BD0 JUMP JUMPDEST JUMPDEST DUP3 DUP3 SUB SWAP1 POP SWAP3 SWAP2 POP POP JUMP JUMPDEST PUSH1 0x0 PUSH2 0x1A39 DUP3 PUSH2 0x1A40 JUMP JUMPDEST SWAP1 POP SWAP2 SWAP1 POP JUMP JUMPDEST PUSH1 0x0 PUSH20 0xFFFFFFFFFFFFFFFFFFFFFFFFFFFFFFFFFFFFFFFF DUP3 AND SWAP1 POP SWAP2 SWAP1 POP JUMP JUMPDEST PUSH1 0x0 DUP2 SWAP1 POP SWAP2 SWAP1 POP JUMP JUMPDEST PUSH1 0x0 PUSH4 0xFFFFFFFF DUP3 AND SWAP1 POP SWAP2 SWAP1 POP JUMP JUMPDEST DUP3 DUP2 DUP4 CALLDATACOPY PUSH1 0x0 DUP4 DUP4 ADD MSTORE POP POP POP JUMP JUMPDEST PUSH1 0x0 JUMPDEST DUP4 DUP2 LT ISZERO PUSH2 0x1AA7 JUMPI DUP1 DUP3 ADD MLOAD DUP2 DUP5 ADD MSTORE PUSH1 0x20 DUP2 ADD SWAP1 POP PUSH2 0x1A8C JUMP JUMPDEST DUP4 DUP2 GT ISZERO PUSH2 0x1AB6 JUMPI PUSH1 0x0 DUP5 DUP5 ADD MSTORE JUMPDEST POP POP POP POP JUMP JUMPDEST PUSH1 0x0 PUSH1 0x2 DUP3 DIV SWAP1 POP PUSH1 0x1 DUP3 AND DUP1 PUSH2 0x1AD4 JUMPI PUSH1 0x7F DUP3 AND SWAP2 POP JUMPDEST PUSH1 0x20 DUP3 LT DUP2 EQ ISZERO PUSH2 0x1AE8 JUMPI PUSH2 0x1AE7 PUSH2 0x1C2E JUMP JUMPDEST JUMPDEST POP SWAP2 SWAP1 POP JUMP JUMPDEST PUSH2 0x1AF7 DUP3 PUSH2 0x1CCF JUMP JUMPDEST DUP2 ADD DUP2 DUP2 LT PUSH8 0xFFFFFFFFFFFFFFFF DUP3 GT OR ISZERO PUSH2 0x1B16 JUMPI PUSH2 0x1B15 PUSH2 0x1C8C JUMP JUMPDEST JUMPDEST DUP1 PUSH1 0x40 MSTORE POP POP POP JUMP JUMPDEST PUSH1 0x0 PUSH2 0x1B2A DUP3 PUSH2 0x1A60 JUMP JUMPDEST SWAP2 POP PUSH32 0xFFFFFFFFFFFFFFFFFFFFFFFFFFFFFFFFFFFFFFFFFFFFFFFFFFFFFFFFFFFFFFFF DUP3 EQ ISZERO PUSH2 0x1B5D JUMPI PUSH2 0x1B5C PUSH2 0x1BD0 JUMP JUMPDEST JUMPDEST PUSH1 0x1 DUP3 ADD SWAP1 POP SWAP2 SWAP1 POP JUMP JUMPDEST PUSH1 0x0 PUSH2 0x1B73 DUP3 PUSH2 0x1A6A JUMP JUMPDEST SWAP2 POP PUSH4 0xFFFFFFFF DUP3 EQ ISZERO PUSH2 0x1B8A JUMPI PUSH2 0x1B89 PUSH2 0x1BD0 JUMP JUMPDEST JUMPDEST PUSH1 0x1 DUP3 ADD SWAP1 POP SWAP2 SWAP1 POP JUMP JUMPDEST PUSH1 0x0 DUP2 SWAP1 POP SWAP2 SWAP1 POP JUMP JUMPDEST PUSH1 0x0 PUSH2 0x1BAA DUP3 PUSH2 0x1A60 JUMP JUMPDEST SWAP2 POP PUSH2 0x1BB5 DUP4 PUSH2 0x1A60 JUMP JUMPDEST SWAP3 POP DUP3 PUSH2 0x1BC5 JUMPI PUSH2 0x1BC4 PUSH2 0x1BFF JUMP JUMPDEST JUMPDEST DUP3 DUP3 MOD SWAP1 POP SWAP3 SWAP2 POP POP JUMP JUMPDEST PUSH32 0x4E487B7100000000000000000000000000000000000000000000000000000000 PUSH1 0x0 MSTORE PUSH1 0x11 PUSH1 0x4 MSTORE PUSH1 0x24 PUSH1 0x0 REVERT JUMPDEST PUSH32 0x4E487B7100000000000000000000000000000000000000000000000000000000 PUSH1 0x0 MSTORE PUSH1 0x12 PUSH1 0x4 MSTORE PUSH1 0x24 PUSH1 0x0 REVERT JUMPDEST PUSH32 0x4E487B7100000000000000000000000000000000000000000000000000000000 PUSH1 0x0 MSTORE PUSH1 0x22 PUSH1 0x4 MSTORE PUSH1 0x24 PUSH1 0x0 REVERT JUMPDEST PUSH32 0x4E487B7100000000000000000000000000000000000000000000000000000000 PUSH1 0x0 MSTORE PUSH1 0x32 PUSH1 0x4 MSTORE PUSH1 0x24 PUSH1 0x0 REVERT JUMPDEST PUSH32 0x4E487B7100000000000000000000000000000000000000000000000000000000 PUSH1 0x0 MSTORE PUSH1 0x41 PUSH1 0x4 MSTORE PUSH1 0x24 PUSH1 0x0 REVERT JUMPDEST PUSH1 0x0 DUP1 REVERT JUMPDEST PUSH1 0x0 DUP1 REVERT JUMPDEST PUSH1 0x0 DUP1 REVERT JUMPDEST PUSH1 0x0 DUP1 REVERT JUMPDEST PUSH1 0x0 PUSH1 0x1F NOT PUSH1 0x1F DUP4 ADD AND SWAP1 POP SWAP2 SWAP1 POP JUMP JUMPDEST PUSH32 0x536F6C6F2073652070756564652074656E657220756E20636F63686520706F72 PUSH1 0x0 DUP3 ADD MSTORE PUSH32 0x20706572736F6E61000000000000000000000000000000000000000000000000 PUSH1 0x20 DUP3 ADD MSTORE POP JUMP JUMPDEST PUSH32 0x4F776E61626C653A206E6577206F776E657220697320746865207A65726F2061 PUSH1 0x0 DUP3 ADD MSTORE PUSH32 0x6464726573730000000000000000000000000000000000000000000000000000 PUSH1 0x20 DUP3 ADD MSTORE POP JUMP JUMPDEST PUSH32 0x4F776E61626C653A2063616C6C6572206973206E6F7420746865206F776E6572 PUSH1 0x0 DUP3 ADD MSTORE POP JUMP JUMPDEST PUSH32 0x456C20636F6368652067616E61646F722065733A200000000000000000000000 PUSH1 0x0 DUP3 ADD MSTORE POP JUMP JUMPDEST PUSH2 0x1DD9 DUP2 PUSH2 0x1A2E JUMP JUMPDEST DUP2 EQ PUSH2 0x1DE4 JUMPI PUSH1 0x0 DUP1 REVERT JUMPDEST POP JUMP JUMPDEST PUSH2 0x1DF0 DUP2 PUSH2 0x1A60 JUMP JUMPDEST DUP2 EQ PUSH2 0x1DFB JUMPI PUSH1 0x0 DUP1 REVERT JUMPDEST POP JUMP INVALID LOG2 PUSH5 0x6970667358 0x22 SLT KECCAK256 0xC4 PUSH10 0xB046ABFD8182A9A7ADC1 DELEGATECALL 0xFC SWAP3 SGT 0x4B 0xBD SWAP5 0xC3 0xFB MSTORE8 SWAP15 DUP4 0xE3 0xB6 DUP3 SELFDESTRUCT 0x4B 0x4F 0xBC PUSH25 0x64736F6C634300080700330000000000000000000000000000 "
				},
				"gasEstimates": {
					"creation": {
						"codeDepositCost": "1546400",
						"executionCost": "infinite",
						"totalCost": "infinite"
					},
					"external": {
						"Apostar(uint256)": "infinite",
						"_owner()": "2533",
						"anadirCoche(string,string,string)": "infinite",
						"cocheDePropietario(uint256)": "2884",
						"comprarCoche(uint256,string,string)": "infinite",
						"listaCoches(uint256)": "infinite",
						"numeroCochesPersona(address)": "2837",
						"owner()": "2589",
						"renounceOwnership()": "30397",
						"retirarDinero()": "infinite",
						"subirDeNivel(address)": "infinite",
						"transferOwnership(address)": "30811",
						"verCochePropietario(address)": "infinite"
					},
					"internal": {
						"_depositoLleno(struct CarreraCoches.Coche storage pointer)": "infinite",
						"_repostando(struct CarreraCoches.Coche storage pointer)": "infinite",
						"balance()": "infinite",
						"numAleatorio(uint256)": "infinite"
					}
				},
				"methodIdentifiers": {
					"Apostar(uint256)": "6b6f0494",
					"_owner()": "b2bdfa7b",
					"anadirCoche(string,string,string)": "2458c544",
					"cocheDePropietario(uint256)": "858b0554",
					"comprarCoche(uint256,string,string)": "36163e45",
					"listaCoches(uint256)": "d735573d",
					"numeroCochesPersona(address)": "1c6743e4",
					"owner()": "8da5cb5b",
					"renounceOwnership()": "715018a6",
					"retirarDinero()": "1bfdc150",
					"subirDeNivel(address)": "6a7d1816",
					"transferOwnership(address)": "f2fde38b",
					"verCochePropietario(address)": "e172fca8"
				}
			},
			"storageLayout": {
				"storage": [
					{
						"astId": 7,
						"contract": "contracts/CarreraCoches/principal.sol:CarreraCoches",
						"label": "_owner",
						"offset": 0,
						"slot": "0",
						"type": "t_address"
					},
					{
						"astId": 129,
						"contract": "contracts/CarreraCoches/principal.sol:CarreraCoches",
						"label": "randNonce",
						"offset": 0,
						"slot": "1",
						"type": "t_uint256"
					},
					{
						"astId": 132,
						"contract": "contracts/CarreraCoches/principal.sol:CarreraCoches",
						"label": "contador",
						"offset": 0,
						"slot": "2",
						"type": "t_uint256"
					},
					{
						"astId": 135,
						"contract": "contracts/CarreraCoches/principal.sol:CarreraCoches",
						"label": "cooldown",
						"offset": 0,
						"slot": "3",
						"type": "t_uint256"
					},
					{
						"astId": 138,
						"contract": "contracts/CarreraCoches/principal.sol:CarreraCoches",
						"label": "subirNivel",
						"offset": 0,
						"slot": "4",
						"type": "t_uint256"
					},
					{
						"astId": 141,
						"contract": "contracts/CarreraCoches/principal.sol:CarreraCoches",
						"label": "cambiarCocheV",
						"offset": 0,
						"slot": "5",
						"type": "t_uint256"
					},
					{
						"astId": 145,
						"contract": "contracts/CarreraCoches/principal.sol:CarreraCoches",
						"label": "listaCoches",
						"offset": 0,
						"slot": "6",
						"type": "t_array(t_struct(Coche)126_storage)dyn_storage"
					},
					{
						"astId": 173,
						"contract": "contracts/CarreraCoches/principal.sol:CarreraCoches",
						"label": "cocheDePropietario",
						"offset": 0,
						"slot": "7",
						"type": "t_mapping(t_uint256,t_address)"
					},
					{
						"astId": 177,
						"contract": "contracts/CarreraCoches/principal.sol:CarreraCoches",
						"label": "numeroCochesPersona",
						"offset": 0,
						"slot": "8",
						"type": "t_mapping(t_address,t_uint256)"
					}
				],
				"types": {
					"t_address": {
						"encoding": "inplace",
						"label": "address",
						"numberOfBytes": "20"
					},
					"t_array(t_struct(Coche)126_storage)dyn_storage": {
						"base": "t_struct(Coche)126_storage",
						"encoding": "dynamic_array",
						"label": "struct CarreraCoches.Coche[]",
						"numberOfBytes": "32"
					},
					"t_mapping(t_address,t_uint256)": {
						"encoding": "mapping",
						"key": "t_address",
						"label": "mapping(address => uint256)",
						"numberOfBytes": "32",
						"value": "t_uint256"
					},
					"t_mapping(t_uint256,t_address)": {
						"encoding": "mapping",
						"key": "t_uint256",
						"label": "mapping(uint256 => address)",
						"numberOfBytes": "32",
						"value": "t_address"
					},
					"t_string_storage": {
						"encoding": "bytes",
						"label": "string",
						"numberOfBytes": "32"
					},
					"t_struct(Coche)126_storage": {
						"encoding": "inplace",
						"label": "struct CarreraCoches.Coche",
						"members": [
							{
								"astId": 111,
								"contract": "contracts/CarreraCoches/principal.sol:CarreraCoches",
								"label": "idPiloto",
								"offset": 0,
								"slot": "0",
								"type": "t_address"
							},
							{
								"astId": 113,
								"contract": "contracts/CarreraCoches/principal.sol:CarreraCoches",
								"label": "modelo",
								"offset": 0,
								"slot": "1",
								"type": "t_string_storage"
							},
							{
								"astId": 115,
								"contract": "contracts/CarreraCoches/principal.sol:CarreraCoches",
								"label": "marca",
								"offset": 0,
								"slot": "2",
								"type": "t_string_storage"
							},
							{
								"astId": 117,
								"contract": "contracts/CarreraCoches/principal.sol:CarreraCoches",
								"label": "nombrePiloto",
								"offset": 0,
								"slot": "3",
								"type": "t_string_storage"
							},
							{
								"astId": 119,
								"contract": "contracts/CarreraCoches/principal.sol:CarreraCoches",
								"label": "carrerasGanadas",
								"offset": 0,
								"slot": "4",
								"type": "t_uint256"
							},
							{
								"astId": 121,
								"contract": "contracts/CarreraCoches/principal.sol:CarreraCoches",
								"label": "carrerasTotales",
								"offset": 0,
								"slot": "5",
								"type": "t_uint256"
							},
							{
								"astId": 123,
								"contract": "contracts/CarreraCoches/principal.sol:CarreraCoches",
								"label": "tiempoEspera",
								"offset": 0,
								"slot": "6",
								"type": "t_uint256"
							},
							{
								"astId": 125,
								"contract": "contracts/CarreraCoches/principal.sol:CarreraCoches",
								"label": "nivel",
								"offset": 0,
								"slot": "7",
								"type": "t_uint32"
							}
						],
						"numberOfBytes": "256"
					},
					"t_uint256": {
						"encoding": "inplace",
						"label": "uint256",
						"numberOfBytes": "32"
					},
					"t_uint32": {
						"encoding": "inplace",
						"label": "uint32",
						"numberOfBytes": "4"
					}
				}
			},
			"userdoc": {
				"kind": "user",
				"methods": {},
				"version": 1
			}
		}
	}
}