{
	"contracts/CarreraCoches/coches.sol": {
		"Coche": {
			"abi": [
				{
					"inputs": [
						{
							"internalType": "uint256",
							"name": "",
							"type": "uint256"
						}
					],
					"name": "listaCoches",
					"outputs": [
						{
							"internalType": "string",
							"name": "modelo",
							"type": "string"
						},
						{
							"internalType": "string",
							"name": "marca",
							"type": "string"
						},
						{
							"internalType": "uint256",
							"name": "carrerasGanadas",
							"type": "uint256"
						},
						{
							"internalType": "uint256",
							"name": "carrerasTotales",
							"type": "uint256"
						},
						{
							"internalType": "uint256",
							"name": "tiempoEspera",
							"type": "uint256"
						},
						{
							"internalType": "uint32",
							"name": "nivel",
							"type": "uint32"
						}
					],
					"stateMutability": "view",
					"type": "function"
				}
			],
			"devdoc": {
				"kind": "dev",
				"methods": {},
				"version": 1
			},
			"evm": {
				"assembly": "    /* \"contracts/CarreraCoches/coches.sol\":27:267  contract Coche {\r... */\n  mstore(0x40, 0x80)\n  callvalue\n  dup1\n  iszero\n  tag_1\n  jumpi\n  0x00\n  dup1\n  revert\ntag_1:\n  pop\n  dataSize(sub_0)\n  dup1\n  dataOffset(sub_0)\n  0x00\n  codecopy\n  0x00\n  return\nstop\n\nsub_0: assembly {\n        /* \"contracts/CarreraCoches/coches.sol\":27:267  contract Coche {\r... */\n      mstore(0x40, 0x80)\n      callvalue\n      dup1\n      iszero\n      tag_1\n      jumpi\n      0x00\n      dup1\n      revert\n    tag_1:\n      pop\n      jumpi(tag_2, lt(calldatasize, 0x04))\n      shr(0xe0, calldataload(0x00))\n      dup1\n      0xd735573d\n      eq\n      tag_3\n      jumpi\n    tag_2:\n      0x00\n      dup1\n      revert\n        /* \"contracts/CarreraCoches/coches.sol\":237:263  Coche[] public listaCoches */\n    tag_3:\n      tag_4\n      0x04\n      dup1\n      calldatasize\n      sub\n      dup2\n      add\n      swap1\n      tag_5\n      swap2\n      swap1\n      tag_6\n      jump\t// in\n    tag_5:\n      tag_7\n      jump\t// in\n    tag_4:\n      mload(0x40)\n      tag_8\n      swap7\n      swap6\n      swap5\n      swap4\n      swap3\n      swap2\n      swap1\n      tag_9\n      jump\t// in\n    tag_8:\n      mload(0x40)\n      dup1\n      swap2\n      sub\n      swap1\n      return\n    tag_7:\n      0x00\n      dup2\n      dup2\n      sload\n      dup2\n      lt\n      tag_10\n      jumpi\n      0x00\n      dup1\n      revert\n    tag_10:\n      swap1\n      0x00\n      mstore\n      keccak256(0x00, 0x20)\n      swap1\n      0x06\n      mul\n      add\n      0x00\n      swap2\n      pop\n      swap1\n      pop\n      dup1\n      0x00\n      add\n      dup1\n      sload\n      tag_12\n      swap1\n      tag_13\n      jump\t// in\n    tag_12:\n      dup1\n      0x1f\n      add\n      0x20\n      dup1\n      swap2\n      div\n      mul\n      0x20\n      add\n      mload(0x40)\n      swap1\n      dup2\n      add\n      0x40\n      mstore\n      dup1\n      swap3\n      swap2\n      swap1\n      dup2\n      dup2\n      mstore\n      0x20\n      add\n      dup3\n      dup1\n      sload\n      tag_14\n      swap1\n      tag_13\n      jump\t// in\n    tag_14:\n      dup1\n      iszero\n      tag_15\n      jumpi\n      dup1\n      0x1f\n      lt\n      tag_16\n      jumpi\n      0x0100\n      dup1\n      dup4\n      sload\n      div\n      mul\n      dup4\n      mstore\n      swap2\n      0x20\n      add\n      swap2\n      jump(tag_15)\n    tag_16:\n      dup3\n      add\n      swap2\n      swap1\n      0x00\n      mstore\n      keccak256(0x00, 0x20)\n      swap1\n    tag_17:\n      dup2\n      sload\n      dup2\n      mstore\n      swap1\n      0x01\n      add\n      swap1\n      0x20\n      add\n      dup1\n      dup4\n      gt\n      tag_17\n      jumpi\n      dup3\n      swap1\n      sub\n      0x1f\n      and\n      dup3\n      add\n      swap2\n    tag_15:\n      pop\n      pop\n      pop\n      pop\n      pop\n      swap1\n      dup1\n      0x01\n      add\n      dup1\n      sload\n      tag_18\n      swap1\n      tag_13\n      jump\t// in\n    tag_18:\n      dup1\n      0x1f\n      add\n      0x20\n      dup1\n      swap2\n      div\n      mul\n      0x20\n      add\n      mload(0x40)\n      swap1\n      dup2\n      add\n      0x40\n      mstore\n      dup1\n      swap3\n      swap2\n      swap1\n      dup2\n      dup2\n      mstore\n      0x20\n      add\n      dup3\n      dup1\n      sload\n      tag_19\n      swap1\n      tag_13\n      jump\t// in\n    tag_19:\n      dup1\n      iszero\n      tag_20\n      jumpi\n      dup1\n      0x1f\n      lt\n      tag_21\n      jumpi\n      0x0100\n      dup1\n      dup4\n      sload\n      div\n      mul\n      dup4\n      mstore\n      swap2\n      0x20\n      add\n      swap2\n      jump(tag_20)\n    tag_21:\n      dup3\n      add\n      swap2\n      swap1\n      0x00\n      mstore\n      keccak256(0x00, 0x20)\n      swap1\n    tag_22:\n      dup2\n      sload\n      dup2\n      mstore\n      swap1\n      0x01\n      add\n      swap1\n      0x20\n      add\n      dup1\n      dup4\n      gt\n      tag_22\n      jumpi\n      dup3\n      swap1\n      sub\n      0x1f\n      and\n      dup3\n      add\n      swap2\n    tag_20:\n      pop\n      pop\n      pop\n      pop\n      pop\n      swap1\n      dup1\n      0x02\n      add\n      sload\n      swap1\n      dup1\n      0x03\n      add\n      sload\n      swap1\n      dup1\n      0x04\n      add\n      sload\n      swap1\n      dup1\n      0x05\n      add\n      0x00\n      swap1\n      sload\n      swap1\n      0x0100\n      exp\n      swap1\n      div\n      0xffffffff\n      and\n      swap1\n      pop\n      dup7\n      jump\t// out\n        /* \"#utility.yul\":7:146   */\n    tag_24:\n        /* \"#utility.yul\":53:58   */\n      0x00\n        /* \"#utility.yul\":91:97   */\n      dup2\n        /* \"#utility.yul\":78:98   */\n      calldataload\n        /* \"#utility.yul\":69:98   */\n      swap1\n      pop\n        /* \"#utility.yul\":107:140   */\n      tag_26\n        /* \"#utility.yul\":134:139   */\n      dup2\n        /* \"#utility.yul\":107:140   */\n      tag_27\n      jump\t// in\n    tag_26:\n        /* \"#utility.yul\":7:146   */\n      swap3\n      swap2\n      pop\n      pop\n      jump\t// out\n        /* \"#utility.yul\":152:481   */\n    tag_6:\n        /* \"#utility.yul\":211:217   */\n      0x00\n        /* \"#utility.yul\":260:262   */\n      0x20\n        /* \"#utility.yul\":248:257   */\n      dup3\n        /* \"#utility.yul\":239:246   */\n      dup5\n        /* \"#utility.yul\":235:258   */\n      sub\n        /* \"#utility.yul\":231:263   */\n      slt\n        /* \"#utility.yul\":228:347   */\n      iszero\n      tag_29\n      jumpi\n        /* \"#utility.yul\":266:345   */\n      tag_30\n      tag_31\n      jump\t// in\n    tag_30:\n        /* \"#utility.yul\":228:347   */\n    tag_29:\n        /* \"#utility.yul\":386:387   */\n      0x00\n        /* \"#utility.yul\":411:464   */\n      tag_32\n        /* \"#utility.yul\":456:463   */\n      dup5\n        /* \"#utility.yul\":447:453   */\n      dup3\n        /* \"#utility.yul\":436:445   */\n      dup6\n        /* \"#utility.yul\":432:454   */\n      add\n        /* \"#utility.yul\":411:464   */\n      tag_24\n      jump\t// in\n    tag_32:\n        /* \"#utility.yul\":401:464   */\n      swap2\n      pop\n        /* \"#utility.yul\":357:474   */\n      pop\n        /* \"#utility.yul\":152:481   */\n      swap3\n      swap2\n      pop\n      pop\n      jump\t// out\n        /* \"#utility.yul\":487:851   */\n    tag_33:\n        /* \"#utility.yul\":575:578   */\n      0x00\n        /* \"#utility.yul\":603:642   */\n      tag_35\n        /* \"#utility.yul\":636:641   */\n      dup3\n        /* \"#utility.yul\":603:642   */\n      tag_36\n      jump\t// in\n    tag_35:\n        /* \"#utility.yul\":658:729   */\n      tag_37\n        /* \"#utility.yul\":722:728   */\n      dup2\n        /* \"#utility.yul\":717:720   */\n      dup6\n        /* \"#utility.yul\":658:729   */\n      tag_38\n      jump\t// in\n    tag_37:\n        /* \"#utility.yul\":651:729   */\n      swap4\n      pop\n        /* \"#utility.yul\":738:790   */\n      tag_39\n        /* \"#utility.yul\":783:789   */\n      dup2\n        /* \"#utility.yul\":778:781   */\n      dup6\n        /* \"#utility.yul\":771:775   */\n      0x20\n        /* \"#utility.yul\":764:769   */\n      dup7\n        /* \"#utility.yul\":760:776   */\n      add\n        /* \"#utility.yul\":738:790   */\n      tag_40\n      jump\t// in\n    tag_39:\n        /* \"#utility.yul\":815:844   */\n      tag_41\n        /* \"#utility.yul\":837:843   */\n      dup2\n        /* \"#utility.yul\":815:844   */\n      tag_42\n      jump\t// in\n    tag_41:\n        /* \"#utility.yul\":810:813   */\n      dup5\n        /* \"#utility.yul\":806:845   */\n      add\n        /* \"#utility.yul\":799:845   */\n      swap2\n      pop\n        /* \"#utility.yul\":579:851   */\n      pop\n        /* \"#utility.yul\":487:851   */\n      swap3\n      swap2\n      pop\n      pop\n      jump\t// out\n        /* \"#utility.yul\":857:975   */\n    tag_43:\n        /* \"#utility.yul\":944:968   */\n      tag_45\n        /* \"#utility.yul\":962:967   */\n      dup2\n        /* \"#utility.yul\":944:968   */\n      tag_46\n      jump\t// in\n    tag_45:\n        /* \"#utility.yul\":939:942   */\n      dup3\n        /* \"#utility.yul\":932:969   */\n      mstore\n        /* \"#utility.yul\":857:975   */\n      pop\n      pop\n      jump\t// out\n        /* \"#utility.yul\":981:1096   */\n    tag_47:\n        /* \"#utility.yul\":1066:1089   */\n      tag_49\n        /* \"#utility.yul\":1083:1088   */\n      dup2\n        /* \"#utility.yul\":1066:1089   */\n      tag_50\n      jump\t// in\n    tag_49:\n        /* \"#utility.yul\":1061:1064   */\n      dup3\n        /* \"#utility.yul\":1054:1090   */\n      mstore\n        /* \"#utility.yul\":981:1096   */\n      pop\n      pop\n      jump\t// out\n        /* \"#utility.yul\":1102:2055   */\n    tag_9:\n        /* \"#utility.yul\":1373:1377   */\n      0x00\n        /* \"#utility.yul\":1411:1414   */\n      0xc0\n        /* \"#utility.yul\":1400:1409   */\n      dup3\n        /* \"#utility.yul\":1396:1415   */\n      add\n        /* \"#utility.yul\":1388:1415   */\n      swap1\n      pop\n        /* \"#utility.yul\":1461:1470   */\n      dup2\n        /* \"#utility.yul\":1455:1459   */\n      dup2\n        /* \"#utility.yul\":1451:1471   */\n      sub\n        /* \"#utility.yul\":1447:1448   */\n      0x00\n        /* \"#utility.yul\":1436:1445   */\n      dup4\n        /* \"#utility.yul\":1432:1449   */\n      add\n        /* \"#utility.yul\":1425:1472   */\n      mstore\n        /* \"#utility.yul\":1489:1567   */\n      tag_52\n        /* \"#utility.yul\":1562:1566   */\n      dup2\n        /* \"#utility.yul\":1553:1559   */\n      dup10\n        /* \"#utility.yul\":1489:1567   */\n      tag_33\n      jump\t// in\n    tag_52:\n        /* \"#utility.yul\":1481:1567   */\n      swap1\n      pop\n        /* \"#utility.yul\":1614:1623   */\n      dup2\n        /* \"#utility.yul\":1608:1612   */\n      dup2\n        /* \"#utility.yul\":1604:1624   */\n      sub\n        /* \"#utility.yul\":1599:1601   */\n      0x20\n        /* \"#utility.yul\":1588:1597   */\n      dup4\n        /* \"#utility.yul\":1584:1602   */\n      add\n        /* \"#utility.yul\":1577:1625   */\n      mstore\n        /* \"#utility.yul\":1642:1720   */\n      tag_53\n        /* \"#utility.yul\":1715:1719   */\n      dup2\n        /* \"#utility.yul\":1706:1712   */\n      dup9\n        /* \"#utility.yul\":1642:1720   */\n      tag_33\n      jump\t// in\n    tag_53:\n        /* \"#utility.yul\":1634:1720   */\n      swap1\n      pop\n        /* \"#utility.yul\":1730:1802   */\n      tag_54\n        /* \"#utility.yul\":1798:1800   */\n      0x40\n        /* \"#utility.yul\":1787:1796   */\n      dup4\n        /* \"#utility.yul\":1783:1801   */\n      add\n        /* \"#utility.yul\":1774:1780   */\n      dup8\n        /* \"#utility.yul\":1730:1802   */\n      tag_43\n      jump\t// in\n    tag_54:\n        /* \"#utility.yul\":1812:1884   */\n      tag_55\n        /* \"#utility.yul\":1880:1882   */\n      0x60\n        /* \"#utility.yul\":1869:1878   */\n      dup4\n        /* \"#utility.yul\":1865:1883   */\n      add\n        /* \"#utility.yul\":1856:1862   */\n      dup7\n        /* \"#utility.yul\":1812:1884   */\n      tag_43\n      jump\t// in\n    tag_55:\n        /* \"#utility.yul\":1894:1967   */\n      tag_56\n        /* \"#utility.yul\":1962:1965   */\n      0x80\n        /* \"#utility.yul\":1951:1960   */\n      dup4\n        /* \"#utility.yul\":1947:1966   */\n      add\n        /* \"#utility.yul\":1938:1944   */\n      dup6\n        /* \"#utility.yul\":1894:1967   */\n      tag_43\n      jump\t// in\n    tag_56:\n        /* \"#utility.yul\":1977:2048   */\n      tag_57\n        /* \"#utility.yul\":2043:2046   */\n      0xa0\n        /* \"#utility.yul\":2032:2041   */\n      dup4\n        /* \"#utility.yul\":2028:2047   */\n      add\n        /* \"#utility.yul\":2019:2025   */\n      dup5\n        /* \"#utility.yul\":1977:2048   */\n      tag_47\n      jump\t// in\n    tag_57:\n        /* \"#utility.yul\":1102:2055   */\n      swap8\n      swap7\n      pop\n      pop\n      pop\n      pop\n      pop\n      pop\n      pop\n      jump\t// out\n        /* \"#utility.yul\":2142:2241   */\n    tag_36:\n        /* \"#utility.yul\":2194:2200   */\n      0x00\n        /* \"#utility.yul\":2228:2233   */\n      dup2\n        /* \"#utility.yul\":2222:2234   */\n      mload\n        /* \"#utility.yul\":2212:2234   */\n      swap1\n      pop\n        /* \"#utility.yul\":2142:2241   */\n      swap2\n      swap1\n      pop\n      jump\t// out\n        /* \"#utility.yul\":2247:2416   */\n    tag_38:\n        /* \"#utility.yul\":2331:2342   */\n      0x00\n        /* \"#utility.yul\":2365:2371   */\n      dup3\n        /* \"#utility.yul\":2360:2363   */\n      dup3\n        /* \"#utility.yul\":2353:2372   */\n      mstore\n        /* \"#utility.yul\":2405:2409   */\n      0x20\n        /* \"#utility.yul\":2400:2403   */\n      dup3\n        /* \"#utility.yul\":2396:2410   */\n      add\n        /* \"#utility.yul\":2381:2410   */\n      swap1\n      pop\n        /* \"#utility.yul\":2247:2416   */\n      swap3\n      swap2\n      pop\n      pop\n      jump\t// out\n        /* \"#utility.yul\":2422:2499   */\n    tag_46:\n        /* \"#utility.yul\":2459:2466   */\n      0x00\n        /* \"#utility.yul\":2488:2493   */\n      dup2\n        /* \"#utility.yul\":2477:2493   */\n      swap1\n      pop\n        /* \"#utility.yul\":2422:2499   */\n      swap2\n      swap1\n      pop\n      jump\t// out\n        /* \"#utility.yul\":2505:2598   */\n    tag_50:\n        /* \"#utility.yul\":2541:2548   */\n      0x00\n        /* \"#utility.yul\":2581:2591   */\n      0xffffffff\n        /* \"#utility.yul\":2574:2579   */\n      dup3\n        /* \"#utility.yul\":2570:2592   */\n      and\n        /* \"#utility.yul\":2559:2592   */\n      swap1\n      pop\n        /* \"#utility.yul\":2505:2598   */\n      swap2\n      swap1\n      pop\n      jump\t// out\n        /* \"#utility.yul\":2604:2911   */\n    tag_40:\n        /* \"#utility.yul\":2672:2673   */\n      0x00\n        /* \"#utility.yul\":2682:2795   */\n    tag_65:\n        /* \"#utility.yul\":2696:2702   */\n      dup4\n        /* \"#utility.yul\":2693:2694   */\n      dup2\n        /* \"#utility.yul\":2690:2703   */\n      lt\n        /* \"#utility.yul\":2682:2795   */\n      iszero\n      tag_67\n      jumpi\n        /* \"#utility.yul\":2781:2782   */\n      dup1\n        /* \"#utility.yul\":2776:2779   */\n      dup3\n        /* \"#utility.yul\":2772:2783   */\n      add\n        /* \"#utility.yul\":2766:2784   */\n      mload\n        /* \"#utility.yul\":2762:2763   */\n      dup2\n        /* \"#utility.yul\":2757:2760   */\n      dup5\n        /* \"#utility.yul\":2753:2764   */\n      add\n        /* \"#utility.yul\":2746:2785   */\n      mstore\n        /* \"#utility.yul\":2718:2720   */\n      0x20\n        /* \"#utility.yul\":2715:2716   */\n      dup2\n        /* \"#utility.yul\":2711:2721   */\n      add\n        /* \"#utility.yul\":2706:2721   */\n      swap1\n      pop\n        /* \"#utility.yul\":2682:2795   */\n      jump(tag_65)\n    tag_67:\n        /* \"#utility.yul\":2813:2819   */\n      dup4\n        /* \"#utility.yul\":2810:2811   */\n      dup2\n        /* \"#utility.yul\":2807:2820   */\n      gt\n        /* \"#utility.yul\":2804:2905   */\n      iszero\n      tag_68\n      jumpi\n        /* \"#utility.yul\":2893:2894   */\n      0x00\n        /* \"#utility.yul\":2884:2890   */\n      dup5\n        /* \"#utility.yul\":2879:2882   */\n      dup5\n        /* \"#utility.yul\":2875:2891   */\n      add\n        /* \"#utility.yul\":2868:2895   */\n      mstore\n        /* \"#utility.yul\":2804:2905   */\n    tag_68:\n        /* \"#utility.yul\":2653:2911   */\n      pop\n        /* \"#utility.yul\":2604:2911   */\n      pop\n      pop\n      pop\n      jump\t// out\n        /* \"#utility.yul\":2917:3237   */\n    tag_13:\n        /* \"#utility.yul\":2961:2967   */\n      0x00\n        /* \"#utility.yul\":2998:2999   */\n      0x02\n        /* \"#utility.yul\":2992:2996   */\n      dup3\n        /* \"#utility.yul\":2988:3000   */\n      div\n        /* \"#utility.yul\":2978:3000   */\n      swap1\n      pop\n        /* \"#utility.yul\":3045:3046   */\n      0x01\n        /* \"#utility.yul\":3039:3043   */\n      dup3\n        /* \"#utility.yul\":3035:3047   */\n      and\n        /* \"#utility.yul\":3066:3084   */\n      dup1\n        /* \"#utility.yul\":3056:3137   */\n      tag_70\n      jumpi\n        /* \"#utility.yul\":3122:3126   */\n      0x7f\n        /* \"#utility.yul\":3114:3120   */\n      dup3\n        /* \"#utility.yul\":3110:3127   */\n      and\n        /* \"#utility.yul\":3100:3127   */\n      swap2\n      pop\n        /* \"#utility.yul\":3056:3137   */\n    tag_70:\n        /* \"#utility.yul\":3184:3186   */\n      0x20\n        /* \"#utility.yul\":3176:3182   */\n      dup3\n        /* \"#utility.yul\":3173:3187   */\n      lt\n        /* \"#utility.yul\":3153:3171   */\n      dup2\n        /* \"#utility.yul\":3150:3188   */\n      eq\n        /* \"#utility.yul\":3147:3231   */\n      iszero\n      tag_71\n      jumpi\n        /* \"#utility.yul\":3203:3221   */\n      tag_72\n      tag_73\n      jump\t// in\n    tag_72:\n        /* \"#utility.yul\":3147:3231   */\n    tag_71:\n        /* \"#utility.yul\":2968:3237   */\n      pop\n        /* \"#utility.yul\":2917:3237   */\n      swap2\n      swap1\n      pop\n      jump\t// out\n        /* \"#utility.yul\":3243:3423   */\n    tag_73:\n        /* \"#utility.yul\":3291:3368   */\n      0x4e487b7100000000000000000000000000000000000000000000000000000000\n        /* \"#utility.yul\":3288:3289   */\n      0x00\n        /* \"#utility.yul\":3281:3369   */\n      mstore\n        /* \"#utility.yul\":3388:3392   */\n      0x22\n        /* \"#utility.yul\":3385:3386   */\n      0x04\n        /* \"#utility.yul\":3378:3393   */\n      mstore\n        /* \"#utility.yul\":3412:3416   */\n      0x24\n        /* \"#utility.yul\":3409:3410   */\n      0x00\n        /* \"#utility.yul\":3402:3417   */\n      revert\n        /* \"#utility.yul\":3552:3669   */\n    tag_31:\n        /* \"#utility.yul\":3661:3662   */\n      0x00\n        /* \"#utility.yul\":3658:3659   */\n      dup1\n        /* \"#utility.yul\":3651:3663   */\n      revert\n        /* \"#utility.yul\":3675:3777   */\n    tag_42:\n        /* \"#utility.yul\":3716:3722   */\n      0x00\n        /* \"#utility.yul\":3767:3769   */\n      0x1f\n        /* \"#utility.yul\":3763:3770   */\n      not\n        /* \"#utility.yul\":3758:3760   */\n      0x1f\n        /* \"#utility.yul\":3751:3756   */\n      dup4\n        /* \"#utility.yul\":3747:3761   */\n      add\n        /* \"#utility.yul\":3743:3771   */\n      and\n        /* \"#utility.yul\":3733:3771   */\n      swap1\n      pop\n        /* \"#utility.yul\":3675:3777   */\n      swap2\n      swap1\n      pop\n      jump\t// out\n        /* \"#utility.yul\":3783:3905   */\n    tag_27:\n        /* \"#utility.yul\":3856:3880   */\n      tag_80\n        /* \"#utility.yul\":3874:3879   */\n      dup2\n        /* \"#utility.yul\":3856:3880   */\n      tag_46\n      jump\t// in\n    tag_80:\n        /* \"#utility.yul\":3849:3854   */\n      dup2\n        /* \"#utility.yul\":3846:3881   */\n      eq\n        /* \"#utility.yul\":3836:3899   */\n      tag_81\n      jumpi\n        /* \"#utility.yul\":3895:3896   */\n      0x00\n        /* \"#utility.yul\":3892:3893   */\n      dup1\n        /* \"#utility.yul\":3885:3897   */\n      revert\n        /* \"#utility.yul\":3836:3899   */\n    tag_81:\n        /* \"#utility.yul\":3783:3905   */\n      pop\n      jump\t// out\n\n    auxdata: 0xa2646970667358221220ef6151bb281afdfd96664d7eb0f48525a8bc96e3d0a57ed17ed262ab50e4bb5964736f6c63430008070033\n}\n",
				"bytecode": {
					"linkReferences": {},
					"object": "608060405234801561001057600080fd5b50610406806100206000396000f3fe608060405234801561001057600080fd5b506004361061002b5760003560e01c8063d735573d14610030575b600080fd5b61004a600480360381019061004591906101e6565b610065565b60405161005c9695949392919061026a565b60405180910390f35b6000818154811061007557600080fd5b906000526020600020906006020160009150905080600001805461009890610342565b80601f01602080910402602001604051908101604052809291908181526020018280546100c490610342565b80156101115780601f106100e657610100808354040283529160200191610111565b820191906000526020600020905b8154815290600101906020018083116100f457829003601f168201915b50505050509080600101805461012690610342565b80601f016020809104026020016040519081016040528092919081815260200182805461015290610342565b801561019f5780601f106101745761010080835404028352916020019161019f565b820191906000526020600020905b81548152906001019060200180831161018257829003601f168201915b5050505050908060020154908060030154908060040154908060050160009054906101000a900463ffffffff16905086565b6000813590506101e0816103b9565b92915050565b6000602082840312156101fc576101fb6103a3565b5b600061020a848285016101d1565b91505092915050565b600061021e826102d9565b61022881856102e4565b935061023881856020860161030f565b610241816103a8565b840191505092915050565b610255816102f5565b82525050565b610264816102ff565b82525050565b600060c08201905081810360008301526102848189610213565b905081810360208301526102988188610213565b90506102a7604083018761024c565b6102b4606083018661024c565b6102c1608083018561024c565b6102ce60a083018461025b565b979650505050505050565b600081519050919050565b600082825260208201905092915050565b6000819050919050565b600063ffffffff82169050919050565b60005b8381101561032d578082015181840152602081019050610312565b8381111561033c576000848401525b50505050565b6000600282049050600182168061035a57607f821691505b6020821081141561036e5761036d610374565b5b50919050565b7f4e487b7100000000000000000000000000000000000000000000000000000000600052602260045260246000fd5b600080fd5b6000601f19601f8301169050919050565b6103c2816102f5565b81146103cd57600080fd5b5056fea2646970667358221220ef6151bb281afdfd96664d7eb0f48525a8bc96e3d0a57ed17ed262ab50e4bb5964736f6c63430008070033",
					"opcodes": "PUSH1 0x80 PUSH1 0x40 MSTORE CALLVALUE DUP1 ISZERO PUSH2 0x10 JUMPI PUSH1 0x0 DUP1 REVERT JUMPDEST POP PUSH2 0x406 DUP1 PUSH2 0x20 PUSH1 0x0 CODECOPY PUSH1 0x0 RETURN INVALID PUSH1 0x80 PUSH1 0x40 MSTORE CALLVALUE DUP1 ISZERO PUSH2 0x10 JUMPI PUSH1 0x0 DUP1 REVERT JUMPDEST POP PUSH1 0x4 CALLDATASIZE LT PUSH2 0x2B JUMPI PUSH1 0x0 CALLDATALOAD PUSH1 0xE0 SHR DUP1 PUSH4 0xD735573D EQ PUSH2 0x30 JUMPI JUMPDEST PUSH1 0x0 DUP1 REVERT JUMPDEST PUSH2 0x4A PUSH1 0x4 DUP1 CALLDATASIZE SUB DUP2 ADD SWAP1 PUSH2 0x45 SWAP2 SWAP1 PUSH2 0x1E6 JUMP JUMPDEST PUSH2 0x65 JUMP JUMPDEST PUSH1 0x40 MLOAD PUSH2 0x5C SWAP7 SWAP6 SWAP5 SWAP4 SWAP3 SWAP2 SWAP1 PUSH2 0x26A JUMP JUMPDEST PUSH1 0x40 MLOAD DUP1 SWAP2 SUB SWAP1 RETURN JUMPDEST PUSH1 0x0 DUP2 DUP2 SLOAD DUP2 LT PUSH2 0x75 JUMPI PUSH1 0x0 DUP1 REVERT JUMPDEST SWAP1 PUSH1 0x0 MSTORE PUSH1 0x20 PUSH1 0x0 KECCAK256 SWAP1 PUSH1 0x6 MUL ADD PUSH1 0x0 SWAP2 POP SWAP1 POP DUP1 PUSH1 0x0 ADD DUP1 SLOAD PUSH2 0x98 SWAP1 PUSH2 0x342 JUMP JUMPDEST DUP1 PUSH1 0x1F ADD PUSH1 0x20 DUP1 SWAP2 DIV MUL PUSH1 0x20 ADD PUSH1 0x40 MLOAD SWAP1 DUP2 ADD PUSH1 0x40 MSTORE DUP1 SWAP3 SWAP2 SWAP1 DUP2 DUP2 MSTORE PUSH1 0x20 ADD DUP3 DUP1 SLOAD PUSH2 0xC4 SWAP1 PUSH2 0x342 JUMP JUMPDEST DUP1 ISZERO PUSH2 0x111 JUMPI DUP1 PUSH1 0x1F LT PUSH2 0xE6 JUMPI PUSH2 0x100 DUP1 DUP4 SLOAD DIV MUL DUP4 MSTORE SWAP2 PUSH1 0x20 ADD SWAP2 PUSH2 0x111 JUMP JUMPDEST DUP3 ADD SWAP2 SWAP1 PUSH1 0x0 MSTORE PUSH1 0x20 PUSH1 0x0 KECCAK256 SWAP1 JUMPDEST DUP2 SLOAD DUP2 MSTORE SWAP1 PUSH1 0x1 ADD SWAP1 PUSH1 0x20 ADD DUP1 DUP4 GT PUSH2 0xF4 JUMPI DUP3 SWAP1 SUB PUSH1 0x1F AND DUP3 ADD SWAP2 JUMPDEST POP POP POP POP POP SWAP1 DUP1 PUSH1 0x1 ADD DUP1 SLOAD PUSH2 0x126 SWAP1 PUSH2 0x342 JUMP JUMPDEST DUP1 PUSH1 0x1F ADD PUSH1 0x20 DUP1 SWAP2 DIV MUL PUSH1 0x20 ADD PUSH1 0x40 MLOAD SWAP1 DUP2 ADD PUSH1 0x40 MSTORE DUP1 SWAP3 SWAP2 SWAP1 DUP2 DUP2 MSTORE PUSH1 0x20 ADD DUP3 DUP1 SLOAD PUSH2 0x152 SWAP1 PUSH2 0x342 JUMP JUMPDEST DUP1 ISZERO PUSH2 0x19F JUMPI DUP1 PUSH1 0x1F LT PUSH2 0x174 JUMPI PUSH2 0x100 DUP1 DUP4 SLOAD DIV MUL DUP4 MSTORE SWAP2 PUSH1 0x20 ADD SWAP2 PUSH2 0x19F JUMP JUMPDEST DUP3 ADD SWAP2 SWAP1 PUSH1 0x0 MSTORE PUSH1 0x20 PUSH1 0x0 KECCAK256 SWAP1 JUMPDEST DUP2 SLOAD DUP2 MSTORE SWAP1 PUSH1 0x1 ADD SWAP1 PUSH1 0x20 ADD DUP1 DUP4 GT PUSH2 0x182 JUMPI DUP3 SWAP1 SUB PUSH1 0x1F AND DUP3 ADD SWAP2 JUMPDEST POP POP POP POP POP SWAP1 DUP1 PUSH1 0x2 ADD SLOAD SWAP1 DUP1 PUSH1 0x3 ADD SLOAD SWAP1 DUP1 PUSH1 0x4 ADD SLOAD SWAP1 DUP1 PUSH1 0x5 ADD PUSH1 0x0 SWAP1 SLOAD SWAP1 PUSH2 0x100 EXP SWAP1 DIV PUSH4 0xFFFFFFFF AND SWAP1 POP DUP7 JUMP JUMPDEST PUSH1 0x0 DUP2 CALLDATALOAD SWAP1 POP PUSH2 0x1E0 DUP2 PUSH2 0x3B9 JUMP JUMPDEST SWAP3 SWAP2 POP POP JUMP JUMPDEST PUSH1 0x0 PUSH1 0x20 DUP3 DUP5 SUB SLT ISZERO PUSH2 0x1FC JUMPI PUSH2 0x1FB PUSH2 0x3A3 JUMP JUMPDEST JUMPDEST PUSH1 0x0 PUSH2 0x20A DUP5 DUP3 DUP6 ADD PUSH2 0x1D1 JUMP JUMPDEST SWAP2 POP POP SWAP3 SWAP2 POP POP JUMP JUMPDEST PUSH1 0x0 PUSH2 0x21E DUP3 PUSH2 0x2D9 JUMP JUMPDEST PUSH2 0x228 DUP2 DUP6 PUSH2 0x2E4 JUMP JUMPDEST SWAP4 POP PUSH2 0x238 DUP2 DUP6 PUSH1 0x20 DUP7 ADD PUSH2 0x30F JUMP JUMPDEST PUSH2 0x241 DUP2 PUSH2 0x3A8 JUMP JUMPDEST DUP5 ADD SWAP2 POP POP SWAP3 SWAP2 POP POP JUMP JUMPDEST PUSH2 0x255 DUP2 PUSH2 0x2F5 JUMP JUMPDEST DUP3 MSTORE POP POP JUMP JUMPDEST PUSH2 0x264 DUP2 PUSH2 0x2FF JUMP JUMPDEST DUP3 MSTORE POP POP JUMP JUMPDEST PUSH1 0x0 PUSH1 0xC0 DUP3 ADD SWAP1 POP DUP2 DUP2 SUB PUSH1 0x0 DUP4 ADD MSTORE PUSH2 0x284 DUP2 DUP10 PUSH2 0x213 JUMP JUMPDEST SWAP1 POP DUP2 DUP2 SUB PUSH1 0x20 DUP4 ADD MSTORE PUSH2 0x298 DUP2 DUP9 PUSH2 0x213 JUMP JUMPDEST SWAP1 POP PUSH2 0x2A7 PUSH1 0x40 DUP4 ADD DUP8 PUSH2 0x24C JUMP JUMPDEST PUSH2 0x2B4 PUSH1 0x60 DUP4 ADD DUP7 PUSH2 0x24C JUMP JUMPDEST PUSH2 0x2C1 PUSH1 0x80 DUP4 ADD DUP6 PUSH2 0x24C JUMP JUMPDEST PUSH2 0x2CE PUSH1 0xA0 DUP4 ADD DUP5 PUSH2 0x25B JUMP JUMPDEST SWAP8 SWAP7 POP POP POP POP POP POP POP JUMP JUMPDEST PUSH1 0x0 DUP2 MLOAD SWAP1 POP SWAP2 SWAP1 POP JUMP JUMPDEST PUSH1 0x0 DUP3 DUP3 MSTORE PUSH1 0x20 DUP3 ADD SWAP1 POP SWAP3 SWAP2 POP POP JUMP JUMPDEST PUSH1 0x0 DUP2 SWAP1 POP SWAP2 SWAP1 POP JUMP JUMPDEST PUSH1 0x0 PUSH4 0xFFFFFFFF DUP3 AND SWAP1 POP SWAP2 SWAP1 POP JUMP JUMPDEST PUSH1 0x0 JUMPDEST DUP4 DUP2 LT ISZERO PUSH2 0x32D JUMPI DUP1 DUP3 ADD MLOAD DUP2 DUP5 ADD MSTORE PUSH1 0x20 DUP2 ADD SWAP1 POP PUSH2 0x312 JUMP JUMPDEST DUP4 DUP2 GT ISZERO PUSH2 0x33C JUMPI PUSH1 0x0 DUP5 DUP5 ADD MSTORE JUMPDEST POP POP POP POP JUMP JUMPDEST PUSH1 0x0 PUSH1 0x2 DUP3 DIV SWAP1 POP PUSH1 0x1 DUP3 AND DUP1 PUSH2 0x35A JUMPI PUSH1 0x7F DUP3 AND SWAP2 POP JUMPDEST PUSH1 0x20 DUP3 LT DUP2 EQ ISZERO PUSH2 0x36E JUMPI PUSH2 0x36D PUSH2 0x374 JUMP JUMPDEST JUMPDEST POP SWAP2 SWAP1 POP JUMP JUMPDEST PUSH32 0x4E487B7100000000000000000000000000000000000000000000000000000000 PUSH1 0x0 MSTORE PUSH1 0x22 PUSH1 0x4 MSTORE PUSH1 0x24 PUSH1 0x0 REVERT JUMPDEST PUSH1 0x0 DUP1 REVERT JUMPDEST PUSH1 0x0 PUSH1 0x1F NOT PUSH1 0x1F DUP4 ADD AND SWAP1 POP SWAP2 SWAP1 POP JUMP JUMPDEST PUSH2 0x3C2 DUP2 PUSH2 0x2F5 JUMP JUMPDEST DUP2 EQ PUSH2 0x3CD JUMPI PUSH1 0x0 DUP1 REVERT JUMPDEST POP JUMP INVALID LOG2 PUSH5 0x6970667358 0x22 SLT KECCAK256 0xEF PUSH2 0x51BB 0x28 BYTE REVERT REVERT SWAP7 PUSH7 0x4D7EB0F48525A8 0xBC SWAP7 0xE3 0xD0 0xA5 PUSH31 0xD17ED262AB50E4BB5964736F6C634300080700330000000000000000000000 "
				},
				"gasEstimates": {
					"creation": {
						"codeDepositCost": "206000",
						"executionCost": "251",
						"totalCost": "206251"
					},
					"external": {
						"listaCoches(uint256)": "infinite"
					}
				},
				"methodIdentifiers": {
					"listaCoches(uint256)": "d735573d"
				}
			},
			"storageLayout": {
				"storage": [
					{
						"astId": 18,
						"contract": "contracts/CarreraCoches/coches.sol:Coche",
						"label": "listaCoches",
						"offset": 0,
						"slot": "0",
						"type": "t_array(t_struct(Coche)14_storage)dyn_storage"
					}
				],
				"types": {
					"t_array(t_struct(Coche)14_storage)dyn_storage": {
						"base": "t_struct(Coche)14_storage",
						"encoding": "dynamic_array",
						"label": "struct Coche.Coche[]",
						"numberOfBytes": "32"
					},
					"t_string_storage": {
						"encoding": "bytes",
						"label": "string",
						"numberOfBytes": "32"
					},
					"t_struct(Coche)14_storage": {
						"encoding": "inplace",
						"label": "struct Coche.Coche",
						"members": [
							{
								"astId": 3,
								"contract": "contracts/CarreraCoches/coches.sol:Coche",
								"label": "modelo",
								"offset": 0,
								"slot": "0",
								"type": "t_string_storage"
							},
							{
								"astId": 5,
								"contract": "contracts/CarreraCoches/coches.sol:Coche",
								"label": "marca",
								"offset": 0,
								"slot": "1",
								"type": "t_string_storage"
							},
							{
								"astId": 7,
								"contract": "contracts/CarreraCoches/coches.sol:Coche",
								"label": "carrerasGanadas",
								"offset": 0,
								"slot": "2",
								"type": "t_uint256"
							},
							{
								"astId": 9,
								"contract": "contracts/CarreraCoches/coches.sol:Coche",
								"label": "carrerasTotales",
								"offset": 0,
								"slot": "3",
								"type": "t_uint256"
							},
							{
								"astId": 11,
								"contract": "contracts/CarreraCoches/coches.sol:Coche",
								"label": "tiempoEspera",
								"offset": 0,
								"slot": "4",
								"type": "t_uint256"
							},
							{
								"astId": 13,
								"contract": "contracts/CarreraCoches/coches.sol:Coche",
								"label": "nivel",
								"offset": 0,
								"slot": "5",
								"type": "t_uint32"
							}
						],
						"numberOfBytes": "192"
					},
					"t_uint256": {
						"encoding": "inplace",
						"label": "uint256",
						"numberOfBytes": "32"
					},
					"t_uint32": {
						"encoding": "inplace",
						"label": "uint32",
						"numberOfBytes": "4"
					}
				}
			},
			"userdoc": {
				"kind": "user",
				"methods": {},
				"version": 1
			}
		}
	}
}