{
	"contracts/CarreraCoches/cocheToken.sol": {
		"CocheToken": {
			"abi": [
				{
					"anonymous": false,
					"inputs": [
						{
							"indexed": true,
							"internalType": "address",
							"name": "_owner",
							"type": "address"
						},
						{
							"indexed": true,
							"internalType": "address",
							"name": "_approved",
							"type": "address"
						},
						{
							"indexed": false,
							"internalType": "uint256",
							"name": "_tokenId",
							"type": "uint256"
						}
					],
					"name": "Approval",
					"type": "event"
				},
				{
					"anonymous": false,
					"inputs": [
						{
							"indexed": true,
							"internalType": "address",
							"name": "previousOwner",
							"type": "address"
						},
						{
							"indexed": true,
							"internalType": "address",
							"name": "newOwner",
							"type": "address"
						}
					],
					"name": "OwnershipTransferred",
					"type": "event"
				},
				{
					"anonymous": false,
					"inputs": [
						{
							"indexed": true,
							"internalType": "address",
							"name": "_from",
							"type": "address"
						},
						{
							"indexed": true,
							"internalType": "address",
							"name": "_to",
							"type": "address"
						},
						{
							"indexed": false,
							"internalType": "uint256",
							"name": "_tokenId",
							"type": "uint256"
						}
					],
					"name": "Transfer",
					"type": "event"
				},
				{
					"anonymous": false,
					"inputs": [
						{
							"indexed": false,
							"internalType": "string",
							"name": "mo",
							"type": "string"
						},
						{
							"indexed": false,
							"internalType": "string",
							"name": "ma",
							"type": "string"
						},
						{
							"indexed": false,
							"internalType": "uint32",
							"name": "niv",
							"type": "uint32"
						},
						{
							"indexed": false,
							"internalType": "uint256",
							"name": "carrGan",
							"type": "uint256"
						}
					],
					"name": "cochePropietario",
					"type": "event"
				},
				{
					"anonymous": false,
					"inputs": [
						{
							"indexed": false,
							"internalType": "uint256",
							"name": "compr",
							"type": "uint256"
						}
					],
					"name": "comprobar",
					"type": "event"
				},
				{
					"anonymous": false,
					"inputs": [
						{
							"indexed": false,
							"internalType": "string",
							"name": "ms",
							"type": "string"
						}
					],
					"name": "confirmacionDepositoLleno",
					"type": "event"
				},
				{
					"anonymous": false,
					"inputs": [
						{
							"indexed": false,
							"internalType": "string",
							"name": "ms",
							"type": "string"
						},
						{
							"indexed": false,
							"internalType": "uint256",
							"name": "res",
							"type": "uint256"
						}
					],
					"name": "mostrarResultado",
					"type": "event"
				},
				{
					"inputs": [
						{
							"internalType": "uint256",
							"name": "dineroApostar",
							"type": "uint256"
						}
					],
					"name": "Apostar",
					"outputs": [
						{
							"internalType": "string",
							"name": "",
							"type": "string"
						}
					],
					"stateMutability": "payable",
					"type": "function"
				},
				{
					"inputs": [],
					"name": "_owner",
					"outputs": [
						{
							"internalType": "address",
							"name": "",
							"type": "address"
						}
					],
					"stateMutability": "view",
					"type": "function"
				},
				{
					"inputs": [
						{
							"internalType": "string",
							"name": "_modelo",
							"type": "string"
						},
						{
							"internalType": "string",
							"name": "_marca",
							"type": "string"
						},
						{
							"internalType": "string",
							"name": "_nombrePiloto",
							"type": "string"
						}
					],
					"name": "anadirCoche",
					"outputs": [
						{
							"internalType": "uint256",
							"name": "",
							"type": "uint256"
						}
					],
					"stateMutability": "nonpayable",
					"type": "function"
				},
				{
					"inputs": [
						{
							"internalType": "address",
							"name": "_to",
							"type": "address"
						},
						{
							"internalType": "uint256",
							"name": "_tokenId",
							"type": "uint256"
						}
					],
					"name": "approve",
					"outputs": [],
					"stateMutability": "nonpayable",
					"type": "function"
				},
				{
					"inputs": [
						{
							"internalType": "address",
							"name": "_owner",
							"type": "address"
						}
					],
					"name": "balanceOf",
					"outputs": [
						{
							"internalType": "uint256",
							"name": "_balance",
							"type": "uint256"
						}
					],
					"stateMutability": "view",
					"type": "function"
				},
				{
					"inputs": [
						{
							"internalType": "uint256",
							"name": "",
							"type": "uint256"
						}
					],
					"name": "cocheDePropietario",
					"outputs": [
						{
							"internalType": "address",
							"name": "",
							"type": "address"
						}
					],
					"stateMutability": "view",
					"type": "function"
				},
				{
					"inputs": [
						{
							"internalType": "uint256",
							"name": "",
							"type": "uint256"
						}
					],
					"name": "listaCoches",
					"outputs": [
						{
							"internalType": "address",
							"name": "idPiloto",
							"type": "address"
						},
						{
							"internalType": "string",
							"name": "modelo",
							"type": "string"
						},
						{
							"internalType": "string",
							"name": "marca",
							"type": "string"
						},
						{
							"internalType": "string",
							"name": "nombrePiloto",
							"type": "string"
						},
						{
							"internalType": "uint256",
							"name": "carrerasGanadas",
							"type": "uint256"
						},
						{
							"internalType": "uint256",
							"name": "carrerasTotales",
							"type": "uint256"
						},
						{
							"internalType": "uint256",
							"name": "tiempoEspera",
							"type": "uint256"
						},
						{
							"internalType": "uint32",
							"name": "nivel",
							"type": "uint32"
						}
					],
					"stateMutability": "view",
					"type": "function"
				},
				{
					"inputs": [
						{
							"internalType": "address",
							"name": "",
							"type": "address"
						}
					],
					"name": "numeroCochesPersona",
					"outputs": [
						{
							"internalType": "uint256",
							"name": "",
							"type": "uint256"
						}
					],
					"stateMutability": "view",
					"type": "function"
				},
				{
					"inputs": [],
					"name": "owner",
					"outputs": [
						{
							"internalType": "address",
							"name": "",
							"type": "address"
						}
					],
					"stateMutability": "view",
					"type": "function"
				},
				{
					"inputs": [
						{
							"internalType": "uint256",
							"name": "_tokenId",
							"type": "uint256"
						}
					],
					"name": "ownerOf",
					"outputs": [
						{
							"internalType": "address",
							"name": "_owner",
							"type": "address"
						}
					],
					"stateMutability": "view",
					"type": "function"
				},
				{
					"inputs": [],
					"name": "renounceOwnership",
					"outputs": [],
					"stateMutability": "nonpayable",
					"type": "function"
				},
				{
					"inputs": [],
					"name": "retirarDinero",
					"outputs": [],
					"stateMutability": "nonpayable",
					"type": "function"
				},
				{
					"inputs": [
						{
							"internalType": "address",
							"name": "_propietario",
							"type": "address"
						}
					],
					"name": "subirDeNivel",
					"outputs": [
						{
							"internalType": "string",
							"name": "",
							"type": "string"
						}
					],
					"stateMutability": "payable",
					"type": "function"
				},
				{
					"inputs": [
						{
							"internalType": "uint256",
							"name": "_tokenId",
							"type": "uint256"
						}
					],
					"name": "takeOwnership",
					"outputs": [],
					"stateMutability": "nonpayable",
					"type": "function"
				},
				{
					"inputs": [
						{
							"internalType": "address",
							"name": "_to",
							"type": "address"
						},
						{
							"internalType": "uint256",
							"name": "_tokenId",
							"type": "uint256"
						}
					],
					"name": "transfer",
					"outputs": [],
					"stateMutability": "nonpayable",
					"type": "function"
				},
				{
					"inputs": [
						{
							"internalType": "address",
							"name": "newOwner",
							"type": "address"
						}
					],
					"name": "transferOwnership",
					"outputs": [],
					"stateMutability": "nonpayable",
					"type": "function"
				},
				{
					"inputs": [
						{
							"internalType": "address",
							"name": "_propietario",
							"type": "address"
						}
					],
					"name": "verCochePropietario",
					"outputs": [],
					"stateMutability": "nonpayable",
					"type": "function"
				}
			],
			"devdoc": {
				"kind": "dev",
				"methods": {
					"owner()": {
						"details": "Returns the address of the current owner."
					},
					"renounceOwnership()": {
						"details": "Leaves the contract without owner. It will not be possible to call `onlyOwner` functions anymore. Can only be called by the current owner. NOTE: Renouncing ownership will leave the contract without an owner, thereby removing any functionality that is only available to the owner."
					},
					"transferOwnership(address)": {
						"details": "Transfers ownership of the contract to a new account (`newOwner`). Can only be called by the current owner."
					}
				},
				"version": 1
			},
			"evm": {
				"assembly": "    /* \"contracts/CarreraCoches/cocheToken.sol\":80:753  contract CocheToken is CarreraCoches, ERC721 {\r... */\n  mstore(0x40, 0x80)\n    /* \"contracts/CarreraCoches/principal.sol\":370:371  0 */\n  0x00\n    /* \"contracts/CarreraCoches/principal.sol\":353:371  uint randNonce = 0 */\n  0x01\n  sstore\n    /* \"contracts/CarreraCoches/principal.sol\":494:495  0 */\n  0x00\n    /* \"contracts/CarreraCoches/principal.sol\":478:495  uint contador = 0 */\n  0x02\n  sstore\n    /* \"contracts/CarreraCoches/principal.sol\":518:528  60 seconds */\n  0x3c\n    /* \"contracts/CarreraCoches/principal.sol\":502:528  uint cooldown = 60 seconds */\n  0x03\n  sstore\n    /* \"contracts/CarreraCoches/principal.sol\":553:560  1 ether */\n  0x0de0b6b3a7640000\n    /* \"contracts/CarreraCoches/principal.sol\":535:560  uint subirNivel = 1 ether */\n  0x04\n  sstore\n    /* \"contracts/CarreraCoches/cocheToken.sol\":80:753  contract CocheToken is CarreraCoches, ERC721 {\r... */\n  callvalue\n  dup1\n  iszero\n  tag_1\n  jumpi\n  0x00\n  dup1\n  revert\ntag_1:\n  pop\n    /* \"contracts/CarreraCoches/ownable.sol\":947:979  _transferOwnership(_msgSender()) */\n  tag_4\n    /* \"contracts/CarreraCoches/ownable.sol\":966:978  _msgSender() */\n  tag_5\n    /* \"contracts/CarreraCoches/ownable.sol\":966:976  _msgSender */\n  shl(0x20, tag_6)\n    /* \"contracts/CarreraCoches/ownable.sol\":966:978  _msgSender() */\n  0x20\n  shr\n  jump\t// in\ntag_5:\n    /* \"contracts/CarreraCoches/ownable.sol\":947:965  _transferOwnership */\n  shl(0x20, tag_7)\n    /* \"contracts/CarreraCoches/ownable.sol\":947:979  _transferOwnership(_msgSender()) */\n  0x20\n  shr\n  jump\t// in\ntag_4:\n    /* \"contracts/CarreraCoches/cocheToken.sol\":80:753  contract CocheToken is CarreraCoches, ERC721 {\r... */\n  jump(tag_8)\n    /* \"contracts/CarreraCoches/utils/Context.sol\":656:754  function _msgSender() internal view virtual returns (address) {\r... */\ntag_6:\n    /* \"contracts/CarreraCoches/utils/Context.sol\":709:716  address */\n  0x00\n    /* \"contracts/CarreraCoches/utils/Context.sol\":736:746  msg.sender */\n  caller\n    /* \"contracts/CarreraCoches/utils/Context.sol\":729:746  return msg.sender */\n  swap1\n  pop\n    /* \"contracts/CarreraCoches/utils/Context.sol\":656:754  function _msgSender() internal view virtual returns (address) {\r... */\n  swap1\n  jump\t// out\n    /* \"contracts/CarreraCoches/ownable.sol\":2338:2529  function _transferOwnership(address newOwner) internal virtual {\r... */\ntag_7:\n    /* \"contracts/CarreraCoches/ownable.sol\":2412:2428  address oldOwner */\n  0x00\n    /* \"contracts/CarreraCoches/ownable.sol\":2431:2437  _owner */\n  dup1\n  0x00\n  swap1\n  sload\n  swap1\n  0x0100\n  exp\n  swap1\n  div\n  0xffffffffffffffffffffffffffffffffffffffff\n  and\n    /* \"contracts/CarreraCoches/ownable.sol\":2412:2437  address oldOwner = _owner */\n  swap1\n  pop\n    /* \"contracts/CarreraCoches/ownable.sol\":2457:2465  newOwner */\n  dup2\n    /* \"contracts/CarreraCoches/ownable.sol\":2448:2454  _owner */\n  0x00\n  dup1\n    /* \"contracts/CarreraCoches/ownable.sol\":2448:2465  _owner = newOwner */\n  0x0100\n  exp\n  dup2\n  sload\n  dup2\n  0xffffffffffffffffffffffffffffffffffffffff\n  mul\n  not\n  and\n  swap1\n  dup4\n  0xffffffffffffffffffffffffffffffffffffffff\n  and\n  mul\n  or\n  swap1\n  sstore\n  pop\n    /* \"contracts/CarreraCoches/ownable.sol\":2512:2520  newOwner */\n  dup2\n    /* \"contracts/CarreraCoches/ownable.sol\":2481:2521  OwnershipTransferred(oldOwner, newOwner) */\n  0xffffffffffffffffffffffffffffffffffffffff\n  and\n    /* \"contracts/CarreraCoches/ownable.sol\":2502:2510  oldOwner */\n  dup2\n    /* \"contracts/CarreraCoches/ownable.sol\":2481:2521  OwnershipTransferred(oldOwner, newOwner) */\n  0xffffffffffffffffffffffffffffffffffffffff\n  and\n  0x8be0079c531659141344cd1fd0a4f28419497f9722a3daafe3b4186f6b6457e0\n  mload(0x40)\n  mload(0x40)\n  dup1\n  swap2\n  sub\n  swap1\n  log3\n    /* \"contracts/CarreraCoches/ownable.sol\":2401:2529  {\r... */\n  pop\n    /* \"contracts/CarreraCoches/ownable.sol\":2338:2529  function _transferOwnership(address newOwner) internal virtual {\r... */\n  pop\n  jump\t// out\n    /* \"contracts/CarreraCoches/cocheToken.sol\":80:753  contract CocheToken is CarreraCoches, ERC721 {\r... */\ntag_8:\n  dataSize(sub_0)\n  dup1\n  dataOffset(sub_0)\n  0x00\n  codecopy\n  0x00\n  return\nstop\n\nsub_0: assembly {\n        /* \"contracts/CarreraCoches/cocheToken.sol\":80:753  contract CocheToken is CarreraCoches, ERC721 {\r... */\n      mstore(0x40, 0x80)\n      jumpi(tag_1, lt(calldatasize, 0x04))\n      shr(0xe0, calldataload(0x00))\n      dup1\n      0x715018a6\n      gt\n      tag_19\n      jumpi\n      dup1\n      0xb2bdfa7b\n      gt\n      tag_20\n      jumpi\n      dup1\n      0xb2bdfa7b\n      eq\n      tag_14\n      jumpi\n      dup1\n      0xb2e6ceeb\n      eq\n      tag_15\n      jumpi\n      dup1\n      0xd735573d\n      eq\n      tag_16\n      jumpi\n      dup1\n      0xe172fca8\n      eq\n      tag_17\n      jumpi\n      dup1\n      0xf2fde38b\n      eq\n      tag_18\n      jumpi\n      jump(tag_1)\n    tag_20:\n      dup1\n      0x715018a6\n      eq\n      tag_10\n      jumpi\n      dup1\n      0x858b0554\n      eq\n      tag_11\n      jumpi\n      dup1\n      0x8da5cb5b\n      eq\n      tag_12\n      jumpi\n      dup1\n      0xa9059cbb\n      eq\n      tag_13\n      jumpi\n      jump(tag_1)\n    tag_19:\n      dup1\n      0x6352211e\n      gt\n      tag_21\n      jumpi\n      dup1\n      0x6352211e\n      eq\n      tag_6\n      jumpi\n      dup1\n      0x6a7d1816\n      eq\n      tag_7\n      jumpi\n      dup1\n      0x6b6f0494\n      eq\n      tag_8\n      jumpi\n      dup1\n      0x70a08231\n      eq\n      tag_9\n      jumpi\n      jump(tag_1)\n    tag_21:\n      dup1\n      0x095ea7b3\n      eq\n      tag_2\n      jumpi\n      dup1\n      0x1bfdc150\n      eq\n      tag_3\n      jumpi\n      dup1\n      0x1c6743e4\n      eq\n      tag_4\n      jumpi\n      dup1\n      0x2458c544\n      eq\n      tag_5\n      jumpi\n    tag_1:\n      0x00\n      dup1\n      revert\n        /* \"contracts/CarreraCoches/cocheToken.sol\":599:673  function approve(address _to, uint256 _tokenId) public override {\r... */\n    tag_2:\n      callvalue\n      dup1\n      iszero\n      tag_22\n      jumpi\n      0x00\n      dup1\n      revert\n    tag_22:\n      pop\n      tag_23\n      0x04\n      dup1\n      calldatasize\n      sub\n      dup2\n      add\n      swap1\n      tag_24\n      swap2\n      swap1\n      tag_25\n      jump\t// in\n    tag_24:\n      tag_26\n      jump\t// in\n    tag_23:\n      stop\n        /* \"contracts/CarreraCoches/principal.sol\":4852:4967  function retirarDinero() external onlyOwner {\r... */\n    tag_3:\n      callvalue\n      dup1\n      iszero\n      tag_27\n      jumpi\n      0x00\n      dup1\n      revert\n    tag_27:\n      pop\n      tag_28\n      tag_29\n      jump\t// in\n    tag_28:\n      stop\n        /* \"contracts/CarreraCoches/principal.sol\":874:926  mapping (address => uint) public numeroCochesPersona */\n    tag_4:\n      callvalue\n      dup1\n      iszero\n      tag_30\n      jumpi\n      0x00\n      dup1\n      revert\n    tag_30:\n      pop\n      tag_31\n      0x04\n      dup1\n      calldatasize\n      sub\n      dup2\n      add\n      swap1\n      tag_32\n      swap2\n      swap1\n      tag_33\n      jump\t// in\n    tag_32:\n      tag_34\n      jump\t// in\n    tag_31:\n      mload(0x40)\n      tag_35\n      swap2\n      swap1\n      tag_36\n      jump\t// in\n    tag_35:\n      mload(0x40)\n      dup1\n      swap2\n      sub\n      swap1\n      return\n        /* \"contracts/CarreraCoches/principal.sol\":1506:1946  function anadirCoche(string memory _modelo, string memory _marca, string memory _nombrePiloto) public restriccion returns (uint) {\r... */\n    tag_5:\n      callvalue\n      dup1\n      iszero\n      tag_37\n      jumpi\n      0x00\n      dup1\n      revert\n    tag_37:\n      pop\n      tag_38\n      0x04\n      dup1\n      calldatasize\n      sub\n      dup2\n      add\n      swap1\n      tag_39\n      swap2\n      swap1\n      tag_40\n      jump\t// in\n    tag_39:\n      tag_41\n      jump\t// in\n    tag_38:\n      mload(0x40)\n      tag_42\n      swap2\n      swap1\n      tag_36\n      jump\t// in\n    tag_42:\n      mload(0x40)\n      dup1\n      swap2\n      sub\n      swap1\n      return\n        /* \"contracts/CarreraCoches/cocheToken.sol\":282:417  function ownerOf(uint256 _tokenId) public override view returns (address _owner) {\r... */\n    tag_6:\n      callvalue\n      dup1\n      iszero\n      tag_43\n      jumpi\n      0x00\n      dup1\n      revert\n    tag_43:\n      pop\n      tag_44\n      0x04\n      dup1\n      calldatasize\n      sub\n      dup2\n      add\n      swap1\n      tag_45\n      swap2\n      swap1\n      tag_46\n      jump\t// in\n    tag_45:\n      tag_47\n      jump\t// in\n    tag_44:\n      mload(0x40)\n      tag_48\n      swap2\n      swap1\n      tag_49\n      jump\t// in\n    tag_48:\n      mload(0x40)\n      dup1\n      swap2\n      sub\n      swap1\n      return\n        /* \"contracts/CarreraCoches/principal.sol\":2274:2633  function subirDeNivel(address _propietario) external payable returns(string memory) {\r... */\n    tag_7:\n      tag_50\n      0x04\n      dup1\n      calldatasize\n      sub\n      dup2\n      add\n      swap1\n      tag_51\n      swap2\n      swap1\n      tag_33\n      jump\t// in\n    tag_51:\n      tag_52\n      jump\t// in\n    tag_50:\n      mload(0x40)\n      tag_53\n      swap2\n      swap1\n      tag_54\n      jump\t// in\n    tag_53:\n      mload(0x40)\n      dup1\n      swap2\n      sub\n      swap1\n      return\n        /* \"contracts/CarreraCoches/principal.sol\":3324:4579  function Apostar(uint dineroApostar) public payable returns(string memory) {\r... */\n    tag_8:\n      tag_55\n      0x04\n      dup1\n      calldatasize\n      sub\n      dup2\n      add\n      swap1\n      tag_56\n      swap2\n      swap1\n      tag_46\n      jump\t// in\n    tag_56:\n      tag_57\n      jump\t// in\n    tag_55:\n      mload(0x40)\n      tag_58\n      swap2\n      swap1\n      tag_54\n      jump\t// in\n    tag_58:\n      mload(0x40)\n      dup1\n      swap2\n      sub\n      swap1\n      return\n        /* \"contracts/CarreraCoches/cocheToken.sol\":138:274  function balanceOf(address _owner) public override view returns (uint256 _balance) {\r... */\n    tag_9:\n      callvalue\n      dup1\n      iszero\n      tag_59\n      jumpi\n      0x00\n      dup1\n      revert\n    tag_59:\n      pop\n      tag_60\n      0x04\n      dup1\n      calldatasize\n      sub\n      dup2\n      add\n      swap1\n      tag_61\n      swap2\n      swap1\n      tag_33\n      jump\t// in\n    tag_61:\n      tag_62\n      jump\t// in\n    tag_60:\n      mload(0x40)\n      tag_63\n      swap2\n      swap1\n      tag_36\n      jump\t// in\n    tag_63:\n      mload(0x40)\n      dup1\n      swap2\n      sub\n      swap1\n      return\n        /* \"contracts/CarreraCoches/ownable.sol\":1719:1822  function renounceOwnership() public virtual onlyOwner {\r... */\n    tag_10:\n      callvalue\n      dup1\n      iszero\n      tag_64\n      jumpi\n      0x00\n      dup1\n      revert\n    tag_64:\n      pop\n      tag_65\n      tag_66\n      jump\t// in\n    tag_65:\n      stop\n        /* \"contracts/CarreraCoches/principal.sol\":816:867  mapping (uint => address) public cocheDePropietario */\n    tag_11:\n      callvalue\n      dup1\n      iszero\n      tag_67\n      jumpi\n      0x00\n      dup1\n      revert\n    tag_67:\n      pop\n      tag_68\n      0x04\n      dup1\n      calldatasize\n      sub\n      dup2\n      add\n      swap1\n      tag_69\n      swap2\n      swap1\n      tag_46\n      jump\t// in\n    tag_69:\n      tag_70\n      jump\t// in\n    tag_68:\n      mload(0x40)\n      tag_71\n      swap2\n      swap1\n      tag_49\n      jump\t// in\n    tag_71:\n      mload(0x40)\n      dup1\n      swap2\n      sub\n      swap1\n      return\n        /* \"contracts/CarreraCoches/ownable.sol\":1068:1155  function owner() public view virtual returns (address) {\r... */\n    tag_12:\n      callvalue\n      dup1\n      iszero\n      tag_72\n      jumpi\n      0x00\n      dup1\n      revert\n    tag_72:\n      pop\n      tag_73\n      tag_74\n      jump\t// in\n    tag_73:\n      mload(0x40)\n      tag_75\n      swap2\n      swap1\n      tag_49\n      jump\t// in\n    tag_75:\n      mload(0x40)\n      dup1\n      swap2\n      sub\n      swap1\n      return\n        /* \"contracts/CarreraCoches/cocheToken.sol\":516:591  function transfer(address _to, uint256 _tokenId) public override {\r... */\n    tag_13:\n      callvalue\n      dup1\n      iszero\n      tag_76\n      jumpi\n      0x00\n      dup1\n      revert\n    tag_76:\n      pop\n      tag_77\n      0x04\n      dup1\n      calldatasize\n      sub\n      dup2\n      add\n      swap1\n      tag_78\n      swap2\n      swap1\n      tag_25\n      jump\t// in\n    tag_78:\n      tag_79\n      jump\t// in\n    tag_77:\n      stop\n        /* \"contracts/CarreraCoches/ownable.sol\":701:722  address public _owner */\n    tag_14:\n      callvalue\n      dup1\n      iszero\n      tag_80\n      jumpi\n      0x00\n      dup1\n      revert\n    tag_80:\n      pop\n      tag_81\n      tag_82\n      jump\t// in\n    tag_81:\n      mload(0x40)\n      tag_83\n      swap2\n      swap1\n      tag_49\n      jump\t// in\n    tag_83:\n      mload(0x40)\n      dup1\n      swap2\n      sub\n      swap1\n      return\n        /* \"contracts/CarreraCoches/cocheToken.sol\":681:748  function takeOwnership(uint256 _tokenId) public override {\r... */\n    tag_15:\n      callvalue\n      dup1\n      iszero\n      tag_84\n      jumpi\n      0x00\n      dup1\n      revert\n    tag_84:\n      pop\n      tag_85\n      0x04\n      dup1\n      calldatasize\n      sub\n      dup2\n      add\n      swap1\n      tag_86\n      swap2\n      swap1\n      tag_46\n      jump\t// in\n    tag_86:\n      tag_87\n      jump\t// in\n    tag_85:\n      stop\n        /* \"contracts/CarreraCoches/principal.sol\":569:595  Coche[] public listaCoches */\n    tag_16:\n      callvalue\n      dup1\n      iszero\n      tag_88\n      jumpi\n      0x00\n      dup1\n      revert\n    tag_88:\n      pop\n      tag_89\n      0x04\n      dup1\n      calldatasize\n      sub\n      dup2\n      add\n      swap1\n      tag_90\n      swap2\n      swap1\n      tag_46\n      jump\t// in\n    tag_90:\n      tag_91\n      jump\t// in\n    tag_89:\n      mload(0x40)\n      tag_92\n      swap9\n      swap8\n      swap7\n      swap6\n      swap5\n      swap4\n      swap3\n      swap2\n      swap1\n      tag_93\n      jump\t// in\n    tag_92:\n      mload(0x40)\n      dup1\n      swap2\n      sub\n      swap1\n      return\n        /* \"contracts/CarreraCoches/principal.sol\":2643:2987  function verCochePropietario(address _propietario) external {\r... */\n    tag_17:\n      callvalue\n      dup1\n      iszero\n      tag_94\n      jumpi\n      0x00\n      dup1\n      revert\n    tag_94:\n      pop\n      tag_95\n      0x04\n      dup1\n      calldatasize\n      sub\n      dup2\n      add\n      swap1\n      tag_96\n      swap2\n      swap1\n      tag_33\n      jump\t// in\n    tag_96:\n      tag_97\n      jump\t// in\n    tag_95:\n      stop\n        /* \"contracts/CarreraCoches/ownable.sol\":1977:2178  function transferOwnership(address newOwner) public virtual onlyOwner {\r... */\n    tag_18:\n      callvalue\n      dup1\n      iszero\n      tag_98\n      jumpi\n      0x00\n      dup1\n      revert\n    tag_98:\n      pop\n      tag_99\n      0x04\n      dup1\n      calldatasize\n      sub\n      dup2\n      add\n      swap1\n      tag_100\n      swap2\n      swap1\n      tag_33\n      jump\t// in\n    tag_100:\n      tag_101\n      jump\t// in\n    tag_99:\n      stop\n        /* \"contracts/CarreraCoches/cocheToken.sol\":599:673  function approve(address _to, uint256 _tokenId) public override {\r... */\n    tag_26:\n      pop\n      pop\n      jump\t// out\n        /* \"contracts/CarreraCoches/principal.sol\":4852:4967  function retirarDinero() external onlyOwner {\r... */\n    tag_29:\n        /* \"contracts/CarreraCoches/ownable.sol\":1299:1311  _msgSender() */\n      tag_104\n        /* \"contracts/CarreraCoches/ownable.sol\":1299:1309  _msgSender */\n      tag_105\n        /* \"contracts/CarreraCoches/ownable.sol\":1299:1311  _msgSender() */\n      jump\t// in\n    tag_104:\n        /* \"contracts/CarreraCoches/ownable.sol\":1288:1311  owner() == _msgSender() */\n      0xffffffffffffffffffffffffffffffffffffffff\n      and\n        /* \"contracts/CarreraCoches/ownable.sol\":1288:1295  owner() */\n      tag_106\n        /* \"contracts/CarreraCoches/ownable.sol\":1288:1293  owner */\n      tag_74\n        /* \"contracts/CarreraCoches/ownable.sol\":1288:1295  owner() */\n      jump\t// in\n    tag_106:\n        /* \"contracts/CarreraCoches/ownable.sol\":1288:1311  owner() == _msgSender() */\n      0xffffffffffffffffffffffffffffffffffffffff\n      and\n      eq\n        /* \"contracts/CarreraCoches/ownable.sol\":1280:1348  require(owner() == _msgSender(), \"Ownable: caller is not the owner\") */\n      tag_107\n      jumpi\n      mload(0x40)\n      0x08c379a000000000000000000000000000000000000000000000000000000000\n      dup2\n      mstore\n      0x04\n      add\n      tag_108\n      swap1\n      tag_109\n      jump\t// in\n    tag_108:\n      mload(0x40)\n      dup1\n      swap2\n      sub\n      swap1\n      revert\n    tag_107:\n        /* \"contracts/CarreraCoches/principal.sol\":4916:4926  msg.sender */\n      caller\n        /* \"contracts/CarreraCoches/principal.sol\":4907:4936  payable (msg.sender).transfer */\n      0xffffffffffffffffffffffffffffffffffffffff\n      and\n        /* \"contracts/CarreraCoches/principal.sol\":4907:4959  payable (msg.sender).transfer(address(this).balance) */\n      0x08fc\n        /* \"contracts/CarreraCoches/principal.sol\":4937:4958  address(this).balance */\n      selfbalance\n        /* \"contracts/CarreraCoches/principal.sol\":4907:4959  payable (msg.sender).transfer(address(this).balance) */\n      swap1\n      dup2\n      iszero\n      mul\n      swap1\n      mload(0x40)\n      0x00\n      mload(0x40)\n      dup1\n      dup4\n      sub\n      dup2\n      dup6\n      dup9\n      dup9\n      call\n      swap4\n      pop\n      pop\n      pop\n      pop\n      iszero\n      dup1\n      iszero\n      tag_112\n      jumpi\n      returndatasize\n      0x00\n      dup1\n      returndatacopy\n      revert(0x00, returndatasize)\n    tag_112:\n      pop\n        /* \"contracts/CarreraCoches/principal.sol\":4852:4967  function retirarDinero() external onlyOwner {\r... */\n      jump\t// out\n        /* \"contracts/CarreraCoches/principal.sol\":874:926  mapping (address => uint) public numeroCochesPersona */\n    tag_34:\n      mstore(0x20, 0x07)\n      dup1\n      0x00\n      mstore\n      keccak256(0x00, 0x40)\n      0x00\n      swap2\n      pop\n      swap1\n      pop\n      sload\n      dup2\n      jump\t// out\n        /* \"contracts/CarreraCoches/principal.sol\":1506:1946  function anadirCoche(string memory _modelo, string memory _marca, string memory _nombrePiloto) public restriccion returns (uint) {\r... */\n    tag_41:\n        /* \"contracts/CarreraCoches/principal.sol\":1629:1633  uint */\n      0x00\n        /* \"contracts/CarreraCoches/principal.sol\":1058:1059  1 */\n      0x01\n        /* \"contracts/CarreraCoches/principal.sol\":1024:1043  numeroCochesPersona */\n      0x07\n        /* \"contracts/CarreraCoches/principal.sol\":1024:1055  numeroCochesPersona[msg.sender] */\n      0x00\n        /* \"contracts/CarreraCoches/principal.sol\":1044:1054  msg.sender */\n      caller\n        /* \"contracts/CarreraCoches/principal.sol\":1024:1055  numeroCochesPersona[msg.sender] */\n      0xffffffffffffffffffffffffffffffffffffffff\n      and\n      0xffffffffffffffffffffffffffffffffffffffff\n      and\n      dup2\n      mstore\n      0x20\n      add\n      swap1\n      dup2\n      mstore\n      0x20\n      add\n      0x00\n      keccak256\n      sload\n        /* \"contracts/CarreraCoches/principal.sol\":1024:1059  numeroCochesPersona[msg.sender] < 1 */\n      lt\n        /* \"contracts/CarreraCoches/principal.sol\":1016:1104  require(numeroCochesPersona[msg.sender] < 1, \"Solo se puede tener un coche por persona\") */\n      tag_114\n      jumpi\n      mload(0x40)\n      0x08c379a000000000000000000000000000000000000000000000000000000000\n      dup2\n      mstore\n      0x04\n      add\n      tag_115\n      swap1\n      tag_116\n      jump\t// in\n    tag_115:\n      mload(0x40)\n      dup1\n      swap2\n      sub\n      swap1\n      revert\n    tag_114:\n        /* \"contracts/CarreraCoches/principal.sol\":1646:1657  listaCoches */\n      0x05\n        /* \"contracts/CarreraCoches/principal.sol\":1663:1757  Coche(msg.sender, _modelo, _marca, _nombrePiloto, 0, 0, uint32(block.timestamp + cooldown), 0) */\n      mload(0x40)\n      dup1\n      0x0100\n      add\n      0x40\n      mstore\n      dup1\n        /* \"contracts/CarreraCoches/principal.sol\":1669:1679  msg.sender */\n      caller\n        /* \"contracts/CarreraCoches/principal.sol\":1663:1757  Coche(msg.sender, _modelo, _marca, _nombrePiloto, 0, 0, uint32(block.timestamp + cooldown), 0) */\n      0xffffffffffffffffffffffffffffffffffffffff\n      and\n      dup2\n      mstore\n      0x20\n      add\n        /* \"contracts/CarreraCoches/principal.sol\":1681:1688  _modelo */\n      dup7\n        /* \"contracts/CarreraCoches/principal.sol\":1663:1757  Coche(msg.sender, _modelo, _marca, _nombrePiloto, 0, 0, uint32(block.timestamp + cooldown), 0) */\n      dup2\n      mstore\n      0x20\n      add\n        /* \"contracts/CarreraCoches/principal.sol\":1690:1696  _marca */\n      dup6\n        /* \"contracts/CarreraCoches/principal.sol\":1663:1757  Coche(msg.sender, _modelo, _marca, _nombrePiloto, 0, 0, uint32(block.timestamp + cooldown), 0) */\n      dup2\n      mstore\n      0x20\n      add\n        /* \"contracts/CarreraCoches/principal.sol\":1698:1711  _nombrePiloto */\n      dup5\n        /* \"contracts/CarreraCoches/principal.sol\":1663:1757  Coche(msg.sender, _modelo, _marca, _nombrePiloto, 0, 0, uint32(block.timestamp + cooldown), 0) */\n      dup2\n      mstore\n      0x20\n      add\n        /* \"contracts/CarreraCoches/principal.sol\":1713:1714  0 */\n      0x00\n        /* \"contracts/CarreraCoches/principal.sol\":1663:1757  Coche(msg.sender, _modelo, _marca, _nombrePiloto, 0, 0, uint32(block.timestamp + cooldown), 0) */\n      dup2\n      mstore\n      0x20\n      add\n        /* \"contracts/CarreraCoches/principal.sol\":1716:1717  0 */\n      0x00\n        /* \"contracts/CarreraCoches/principal.sol\":1663:1757  Coche(msg.sender, _modelo, _marca, _nombrePiloto, 0, 0, uint32(block.timestamp + cooldown), 0) */\n      dup2\n      mstore\n      0x20\n      add\n        /* \"contracts/CarreraCoches/principal.sol\":1744:1752  cooldown */\n      sload(0x03)\n        /* \"contracts/CarreraCoches/principal.sol\":1726:1741  block.timestamp */\n      timestamp\n        /* \"contracts/CarreraCoches/principal.sol\":1726:1752  block.timestamp + cooldown */\n      tag_118\n      swap2\n      swap1\n      tag_119\n      jump\t// in\n    tag_118:\n        /* \"contracts/CarreraCoches/principal.sol\":1663:1757  Coche(msg.sender, _modelo, _marca, _nombrePiloto, 0, 0, uint32(block.timestamp + cooldown), 0) */\n      0xffffffff\n      and\n      dup2\n      mstore\n      0x20\n      add\n        /* \"contracts/CarreraCoches/principal.sol\":1755:1756  0 */\n      0x00\n        /* \"contracts/CarreraCoches/principal.sol\":1663:1757  Coche(msg.sender, _modelo, _marca, _nombrePiloto, 0, 0, uint32(block.timestamp + cooldown), 0) */\n      0xffffffff\n      and\n      dup2\n      mstore\n      pop\n        /* \"contracts/CarreraCoches/principal.sol\":1646:1758  listaCoches.push(Coche(msg.sender, _modelo, _marca, _nombrePiloto, 0, 0, uint32(block.timestamp + cooldown), 0)) */\n      swap1\n      dup1\n      0x01\n      dup2\n      sload\n      add\n      dup1\n      dup3\n      sstore\n      dup1\n      swap2\n      pop\n      pop\n      0x01\n      swap1\n      sub\n      swap1\n      0x00\n      mstore\n      keccak256(0x00, 0x20)\n      swap1\n      0x08\n      mul\n      add\n      0x00\n      swap1\n      swap2\n      swap1\n      swap2\n      swap1\n      swap2\n      pop\n      0x00\n      dup3\n      add\n      mload\n      dup2\n      0x00\n      add\n      exp(0x0100, 0x00)\n      dup2\n      sload\n      dup2\n      0xffffffffffffffffffffffffffffffffffffffff\n      mul\n      not\n      and\n      swap1\n      dup4\n      0xffffffffffffffffffffffffffffffffffffffff\n      and\n      mul\n      or\n      swap1\n      sstore\n      pop\n      0x20\n      dup3\n      add\n      mload\n      dup2\n      0x01\n      add\n      swap1\n      dup1\n      mload\n      swap1\n      0x20\n      add\n      swap1\n      tag_121\n      swap3\n      swap2\n      swap1\n      tag_122\n      jump\t// in\n    tag_121:\n      pop\n      0x40\n      dup3\n      add\n      mload\n      dup2\n      0x02\n      add\n      swap1\n      dup1\n      mload\n      swap1\n      0x20\n      add\n      swap1\n      tag_123\n      swap3\n      swap2\n      swap1\n      tag_122\n      jump\t// in\n    tag_123:\n      pop\n      0x60\n      dup3\n      add\n      mload\n      dup2\n      0x03\n      add\n      swap1\n      dup1\n      mload\n      swap1\n      0x20\n      add\n      swap1\n      tag_124\n      swap3\n      swap2\n      swap1\n      tag_122\n      jump\t// in\n    tag_124:\n      pop\n      0x80\n      dup3\n      add\n      mload\n      dup2\n      0x04\n      add\n      sstore\n      0xa0\n      dup3\n      add\n      mload\n      dup2\n      0x05\n      add\n      sstore\n      0xc0\n      dup3\n      add\n      mload\n      dup2\n      0x06\n      add\n      sstore\n      0xe0\n      dup3\n      add\n      mload\n      dup2\n      0x07\n      add\n      exp(0x0100, 0x00)\n      dup2\n      sload\n      dup2\n      0xffffffff\n      mul\n      not\n      and\n      swap1\n      dup4\n      0xffffffff\n      and\n      mul\n      or\n      swap1\n      sstore\n      pop\n      pop\n      pop\n        /* \"contracts/CarreraCoches/principal.sol\":1769:1776  uint id */\n      0x00\n        /* \"contracts/CarreraCoches/principal.sol\":1779:1790  listaCoches */\n      0x05\n        /* \"contracts/CarreraCoches/principal.sol\":1779:1797  listaCoches.length */\n      dup1\n      sload\n      swap1\n      pop\n        /* \"contracts/CarreraCoches/principal.sol\":1769:1797  uint id = listaCoches.length */\n      swap1\n      pop\n        /* \"contracts/CarreraCoches/principal.sol\":1833:1843  msg.sender */\n      caller\n        /* \"contracts/CarreraCoches/principal.sol\":1808:1826  cocheDePropietario */\n      0x06\n        /* \"contracts/CarreraCoches/principal.sol\":1808:1830  cocheDePropietario[id] */\n      0x00\n        /* \"contracts/CarreraCoches/principal.sol\":1827:1829  id */\n      dup4\n        /* \"contracts/CarreraCoches/principal.sol\":1808:1830  cocheDePropietario[id] */\n      dup2\n      mstore\n      0x20\n      add\n      swap1\n      dup2\n      mstore\n      0x20\n      add\n      0x00\n      keccak256\n      0x00\n        /* \"contracts/CarreraCoches/principal.sol\":1808:1843  cocheDePropietario[id] = msg.sender */\n      0x0100\n      exp\n      dup2\n      sload\n      dup2\n      0xffffffffffffffffffffffffffffffffffffffff\n      mul\n      not\n      and\n      swap1\n      dup4\n      0xffffffffffffffffffffffffffffffffffffffff\n      and\n      mul\n      or\n      swap1\n      sstore\n      pop\n        /* \"contracts/CarreraCoches/principal.sol\":1854:1873  numeroCochesPersona */\n      0x07\n        /* \"contracts/CarreraCoches/principal.sol\":1854:1885  numeroCochesPersona[msg.sender] */\n      0x00\n        /* \"contracts/CarreraCoches/principal.sol\":1874:1884  msg.sender */\n      caller\n        /* \"contracts/CarreraCoches/principal.sol\":1854:1885  numeroCochesPersona[msg.sender] */\n      0xffffffffffffffffffffffffffffffffffffffff\n      and\n      0xffffffffffffffffffffffffffffffffffffffff\n      and\n      dup2\n      mstore\n      0x20\n      add\n      swap1\n      dup2\n      mstore\n      0x20\n      add\n      0x00\n      keccak256\n      0x00\n        /* \"contracts/CarreraCoches/principal.sol\":1854:1887  numeroCochesPersona[msg.sender]++ */\n      dup2\n      sload\n      dup1\n      swap3\n      swap2\n      swap1\n      tag_125\n      swap1\n      tag_126\n      jump\t// in\n    tag_125:\n      swap2\n      swap1\n      pop\n      sstore\n      pop\n        /* \"contracts/CarreraCoches/principal.sol\":1898:1906  contador */\n      0x02\n      0x00\n        /* \"contracts/CarreraCoches/principal.sol\":1898:1908  contador++ */\n      dup2\n      sload\n      dup1\n      swap3\n      swap2\n      swap1\n      tag_127\n      swap1\n      tag_126\n      jump\t// in\n    tag_127:\n      swap2\n      swap1\n      pop\n      sstore\n      pop\n        /* \"contracts/CarreraCoches/principal.sol\":1937:1938  1 */\n      0x01\n        /* \"contracts/CarreraCoches/principal.sol\":1926:1934  contador */\n      sload(0x02)\n        /* \"contracts/CarreraCoches/principal.sol\":1926:1938  contador - 1 */\n      tag_128\n      swap2\n      swap1\n      tag_129\n      jump\t// in\n    tag_128:\n        /* \"contracts/CarreraCoches/principal.sol\":1919:1938  return contador - 1 */\n      swap2\n      pop\n      pop\n        /* \"contracts/CarreraCoches/principal.sol\":1506:1946  function anadirCoche(string memory _modelo, string memory _marca, string memory _nombrePiloto) public restriccion returns (uint) {\r... */\n      swap4\n      swap3\n      pop\n      pop\n      pop\n      jump\t// out\n        /* \"contracts/CarreraCoches/cocheToken.sol\":282:417  function ownerOf(uint256 _tokenId) public override view returns (address _owner) {\r... */\n    tag_47:\n        /* \"contracts/CarreraCoches/cocheToken.sol\":347:361  address _owner */\n      0x00\n        /* \"contracts/CarreraCoches/cocheToken.sol\":381:399  cocheDePropietario */\n      0x06\n        /* \"contracts/CarreraCoches/cocheToken.sol\":381:409  cocheDePropietario[_tokenId] */\n      0x00\n        /* \"contracts/CarreraCoches/cocheToken.sol\":400:408  _tokenId */\n      dup4\n        /* \"contracts/CarreraCoches/cocheToken.sol\":381:409  cocheDePropietario[_tokenId] */\n      dup2\n      mstore\n      0x20\n      add\n      swap1\n      dup2\n      mstore\n      0x20\n      add\n      0x00\n      keccak256\n      0x00\n      swap1\n      sload\n      swap1\n      0x0100\n      exp\n      swap1\n      div\n      0xffffffffffffffffffffffffffffffffffffffff\n      and\n        /* \"contracts/CarreraCoches/cocheToken.sol\":374:409  return cocheDePropietario[_tokenId] */\n      swap1\n      pop\n        /* \"contracts/CarreraCoches/cocheToken.sol\":282:417  function ownerOf(uint256 _tokenId) public override view returns (address _owner) {\r... */\n      swap2\n      swap1\n      pop\n      jump\t// out\n        /* \"contracts/CarreraCoches/principal.sol\":2274:2633  function subirDeNivel(address _propietario) external payable returns(string memory) {\r... */\n    tag_52:\n        /* \"contracts/CarreraCoches/principal.sol\":2343:2356  string memory */\n      0x60\n        /* \"contracts/CarreraCoches/principal.sol\":2388:2398  subirNivel */\n      sload(0x04)\n        /* \"contracts/CarreraCoches/principal.sol\":2377:2386  msg.value */\n      callvalue\n        /* \"contracts/CarreraCoches/principal.sol\":2377:2398  msg.value==subirNivel */\n      eq\n        /* \"contracts/CarreraCoches/principal.sol\":2369:2399  require(msg.value==subirNivel) */\n      tag_132\n      jumpi\n      0x00\n      dup1\n      revert\n    tag_132:\n        /* \"contracts/CarreraCoches/principal.sol\":2414:2420  uint i */\n      0x00\n        /* \"contracts/CarreraCoches/principal.sol\":2410:2626  for(uint i = 0; i < listaCoches.length; i++){\r... */\n    tag_133:\n        /* \"contracts/CarreraCoches/principal.sol\":2430:2441  listaCoches */\n      0x05\n        /* \"contracts/CarreraCoches/principal.sol\":2430:2448  listaCoches.length */\n      dup1\n      sload\n      swap1\n      pop\n        /* \"contracts/CarreraCoches/principal.sol\":2426:2427  i */\n      dup2\n        /* \"contracts/CarreraCoches/principal.sol\":2426:2448  i < listaCoches.length */\n      lt\n        /* \"contracts/CarreraCoches/principal.sol\":2410:2626  for(uint i = 0; i < listaCoches.length; i++){\r... */\n      iszero\n      tag_134\n      jumpi\n        /* \"contracts/CarreraCoches/principal.sol\":2499:2511  _propietario */\n      dup3\n        /* \"contracts/CarreraCoches/principal.sol\":2472:2511  listaCoches[i].idPiloto == _propietario */\n      0xffffffffffffffffffffffffffffffffffffffff\n      and\n        /* \"contracts/CarreraCoches/principal.sol\":2472:2483  listaCoches */\n      0x05\n        /* \"contracts/CarreraCoches/principal.sol\":2484:2485  i */\n      dup3\n        /* \"contracts/CarreraCoches/principal.sol\":2472:2486  listaCoches[i] */\n      dup2\n      sload\n      dup2\n      lt\n      tag_136\n      jumpi\n      tag_137\n      tag_138\n      jump\t// in\n    tag_137:\n    tag_136:\n      swap1\n      0x00\n      mstore\n      keccak256(0x00, 0x20)\n      swap1\n      0x08\n      mul\n      add\n        /* \"contracts/CarreraCoches/principal.sol\":2472:2495  listaCoches[i].idPiloto */\n      0x00\n      add\n      0x00\n      swap1\n      sload\n      swap1\n      0x0100\n      exp\n      swap1\n      div\n      0xffffffffffffffffffffffffffffffffffffffff\n      and\n        /* \"contracts/CarreraCoches/principal.sol\":2472:2511  listaCoches[i].idPiloto == _propietario */\n      0xffffffffffffffffffffffffffffffffffffffff\n      and\n      eq\n        /* \"contracts/CarreraCoches/principal.sol\":2469:2615  if(listaCoches[i].idPiloto == _propietario){\r... */\n      iszero\n      tag_140\n      jumpi\n        /* \"contracts/CarreraCoches/principal.sol\":2531:2542  listaCoches */\n      0x05\n        /* \"contracts/CarreraCoches/principal.sol\":2543:2544  i */\n      dup2\n        /* \"contracts/CarreraCoches/principal.sol\":2531:2545  listaCoches[i] */\n      dup2\n      sload\n      dup2\n      lt\n      tag_141\n      jumpi\n      tag_142\n      tag_138\n      jump\t// in\n    tag_142:\n    tag_141:\n      swap1\n      0x00\n      mstore\n      keccak256(0x00, 0x20)\n      swap1\n      0x08\n      mul\n      add\n        /* \"contracts/CarreraCoches/principal.sol\":2531:2551  listaCoches[i].nivel */\n      0x07\n      add\n      0x00\n        /* \"contracts/CarreraCoches/principal.sol\":2531:2553  listaCoches[i].nivel++ */\n      dup2\n      dup2\n      swap1\n      sload\n      swap1\n      0x0100\n      exp\n      swap1\n      div\n      0xffffffff\n      and\n      dup1\n      swap3\n      swap2\n      swap1\n      tag_144\n      swap1\n      tag_145\n      jump\t// in\n    tag_144:\n      swap2\n      swap1\n      0x0100\n      exp\n      dup2\n      sload\n      dup2\n      0xffffffff\n      mul\n      not\n      and\n      swap1\n      dup4\n      0xffffffff\n      and\n      mul\n      or\n      swap1\n      sstore\n      pop\n      pop\n        /* \"contracts/CarreraCoches/principal.sol\":2572:2599  return \"Ha subido de nivel\" */\n      mload(0x40)\n      dup1\n      0x40\n      add\n      0x40\n      mstore\n      dup1\n      0x12\n      dup2\n      mstore\n      0x20\n      add\n      0x48612073756269646f206465206e6976656c0000000000000000000000000000\n      dup2\n      mstore\n      pop\n      swap2\n      pop\n      pop\n      jump(tag_131)\n        /* \"contracts/CarreraCoches/principal.sol\":2469:2615  if(listaCoches[i].idPiloto == _propietario){\r... */\n    tag_140:\n        /* \"contracts/CarreraCoches/principal.sol\":2450:2453  i++ */\n      dup1\n      dup1\n      tag_146\n      swap1\n      tag_126\n      jump\t// in\n    tag_146:\n      swap2\n      pop\n      pop\n        /* \"contracts/CarreraCoches/principal.sol\":2410:2626  for(uint i = 0; i < listaCoches.length; i++){\r... */\n      jump(tag_133)\n    tag_134:\n      pop\n        /* \"contracts/CarreraCoches/principal.sol\":2274:2633  function subirDeNivel(address _propietario) external payable returns(string memory) {\r... */\n    tag_131:\n      swap2\n      swap1\n      pop\n      jump\t// out\n        /* \"contracts/CarreraCoches/principal.sol\":3324:4579  function Apostar(uint dineroApostar) public payable returns(string memory) {\r... */\n    tag_57:\n        /* \"contracts/CarreraCoches/principal.sol\":3384:3397  string memory */\n      0x60\n        /* \"contracts/CarreraCoches/principal.sol\":3430:3443  dineroApostar */\n      dup2\n        /* \"contracts/CarreraCoches/principal.sol\":3417:3426  msg.value */\n      callvalue\n        /* \"contracts/CarreraCoches/principal.sol\":3417:3443  msg.value == dineroApostar */\n      eq\n        /* \"contracts/CarreraCoches/principal.sol\":3409:3444  require(msg.value == dineroApostar) */\n      tag_148\n      jumpi\n      0x00\n      dup1\n      revert\n    tag_148:\n        /* \"contracts/CarreraCoches/principal.sol\":3465:3474  randNonce */\n      0x01\n      0x00\n        /* \"contracts/CarreraCoches/principal.sol\":3465:3476  randNonce++ */\n      dup2\n      sload\n      dup1\n      swap3\n      swap2\n      swap1\n      tag_149\n      swap1\n      tag_126\n      jump\t// in\n    tag_149:\n      swap2\n      swap1\n      pop\n      sstore\n      pop\n        /* \"contracts/CarreraCoches/principal.sol\":3523:3536  uint256 rival */\n      0x00\n        /* \"contracts/CarreraCoches/principal.sol\":3626:3637  listaCoches */\n      0x05\n        /* \"contracts/CarreraCoches/principal.sol\":3626:3644  listaCoches.length */\n      dup1\n      sload\n      swap1\n      pop\n        /* \"contracts/CarreraCoches/principal.sol\":3574:3589  block.timestamp */\n      timestamp\n        /* \"contracts/CarreraCoches/principal.sol\":3591:3602  listaCoches */\n      0x05\n        /* \"contracts/CarreraCoches/principal.sol\":3591:3609  listaCoches.length */\n      dup1\n      sload\n      swap1\n      pop\n        /* \"contracts/CarreraCoches/principal.sol\":3611:3620  randNonce */\n      sload(0x01)\n        /* \"contracts/CarreraCoches/principal.sol\":3557:3621  abi.encodePacked(block.timestamp, listaCoches.length, randNonce) */\n      add(0x20, mload(0x40))\n      tag_150\n      swap4\n      swap3\n      swap2\n      swap1\n      tag_151\n      jump\t// in\n    tag_150:\n      mload(0x40)\n      0x20\n      dup2\n      dup4\n      sub\n      sub\n      dup2\n      mstore\n      swap1\n      0x40\n      mstore\n        /* \"contracts/CarreraCoches/principal.sol\":3547:3622  keccak256(abi.encodePacked(block.timestamp, listaCoches.length, randNonce)) */\n      dup1\n      mload\n      swap1\n      0x20\n      add\n      keccak256\n        /* \"contracts/CarreraCoches/principal.sol\":3539:3623  uint256(keccak256(abi.encodePacked(block.timestamp, listaCoches.length, randNonce))) */\n      0x00\n      shr\n        /* \"contracts/CarreraCoches/principal.sol\":3539:3644  uint256(keccak256(abi.encodePacked(block.timestamp, listaCoches.length, randNonce))) % listaCoches.length */\n      tag_152\n      swap2\n      swap1\n      tag_153\n      jump\t// in\n    tag_152:\n        /* \"contracts/CarreraCoches/principal.sol\":3523:3644  uint256 rival = uint256(keccak256(abi.encodePacked(block.timestamp, listaCoches.length, randNonce))) % listaCoches.length */\n      swap1\n      pop\n        /* \"contracts/CarreraCoches/principal.sol\":3687:3696  randNonce */\n      0x01\n      0x00\n        /* \"contracts/CarreraCoches/principal.sol\":3687:3698  randNonce++ */\n      dup2\n      sload\n      dup1\n      swap3\n      swap2\n      swap1\n      tag_154\n      swap1\n      tag_126\n      jump\t// in\n    tag_154:\n      swap2\n      swap1\n      pop\n      sstore\n      pop\n        /* \"contracts/CarreraCoches/principal.sol\":3709:3720  uint numero */\n      0x00\n        /* \"contracts/CarreraCoches/principal.sol\":3723:3724  2 */\n      0x02\n        /* \"contracts/CarreraCoches/principal.sol\":3709:3724  uint numero = 2 */\n      swap1\n      pop\n        /* \"contracts/CarreraCoches/principal.sol\":3735:3750  uint256 ganador */\n      0x00\n        /* \"contracts/CarreraCoches/principal.sol\":3828:3834  numero */\n      dup2\n        /* \"contracts/CarreraCoches/principal.sol\":3788:3803  block.timestamp */\n      timestamp\n        /* \"contracts/CarreraCoches/principal.sol\":3805:3811  numero */\n      dup4\n        /* \"contracts/CarreraCoches/principal.sol\":3813:3822  randNonce */\n      sload(0x01)\n        /* \"contracts/CarreraCoches/principal.sol\":3771:3823  abi.encodePacked(block.timestamp, numero, randNonce) */\n      add(0x20, mload(0x40))\n      tag_155\n      swap4\n      swap3\n      swap2\n      swap1\n      tag_151\n      jump\t// in\n    tag_155:\n      mload(0x40)\n      0x20\n      dup2\n      dup4\n      sub\n      sub\n      dup2\n      mstore\n      swap1\n      0x40\n      mstore\n        /* \"contracts/CarreraCoches/principal.sol\":3761:3824  keccak256(abi.encodePacked(block.timestamp, numero, randNonce)) */\n      dup1\n      mload\n      swap1\n      0x20\n      add\n      keccak256\n        /* \"contracts/CarreraCoches/principal.sol\":3753:3825  uint256(keccak256(abi.encodePacked(block.timestamp, numero, randNonce))) */\n      0x00\n      shr\n        /* \"contracts/CarreraCoches/principal.sol\":3753:3834  uint256(keccak256(abi.encodePacked(block.timestamp, numero, randNonce))) % numero */\n      tag_156\n      swap2\n      swap1\n      tag_153\n      jump\t// in\n    tag_156:\n        /* \"contracts/CarreraCoches/principal.sol\":3735:3834  uint256 ganador = uint256(keccak256(abi.encodePacked(block.timestamp, numero, randNonce))) % numero */\n      swap1\n      pop\n        /* \"contracts/CarreraCoches/principal.sol\":3851:3857  uint i */\n      0x00\n        /* \"contracts/CarreraCoches/principal.sol\":3847:4573  for(uint i = 0; i < listaCoches.length; i++){\r... */\n    tag_157:\n        /* \"contracts/CarreraCoches/principal.sol\":3867:3878  listaCoches */\n      0x05\n        /* \"contracts/CarreraCoches/principal.sol\":3867:3885  listaCoches.length */\n      dup1\n      sload\n      swap1\n      pop\n        /* \"contracts/CarreraCoches/principal.sol\":3863:3864  i */\n      dup2\n        /* \"contracts/CarreraCoches/principal.sol\":3863:3885  i < listaCoches.length */\n      lt\n        /* \"contracts/CarreraCoches/principal.sol\":3847:4573  for(uint i = 0; i < listaCoches.length; i++){\r... */\n      iszero\n      tag_158\n      jumpi\n        /* \"contracts/CarreraCoches/principal.sol\":4027:4038  listaCoches */\n      0x05\n        /* \"contracts/CarreraCoches/principal.sol\":4039:4040  i */\n      dup2\n        /* \"contracts/CarreraCoches/principal.sol\":4027:4041  listaCoches[i] */\n      dup2\n      sload\n      dup2\n      lt\n      tag_160\n      jumpi\n      tag_161\n      tag_138\n      jump\t// in\n    tag_161:\n    tag_160:\n      swap1\n      0x00\n      mstore\n      keccak256(0x00, 0x20)\n      swap1\n      0x08\n      mul\n      add\n        /* \"contracts/CarreraCoches/principal.sol\":4027:4050  listaCoches[i].idPiloto */\n      0x00\n      add\n      0x00\n      swap1\n      sload\n      swap1\n      0x0100\n      exp\n      swap1\n      div\n      0xffffffffffffffffffffffffffffffffffffffff\n      and\n        /* \"contracts/CarreraCoches/principal.sol\":4013:4050  msg.sender == listaCoches[i].idPiloto */\n      0xffffffffffffffffffffffffffffffffffffffff\n      and\n        /* \"contracts/CarreraCoches/principal.sol\":4013:4023  msg.sender */\n      caller\n        /* \"contracts/CarreraCoches/principal.sol\":4013:4050  msg.sender == listaCoches[i].idPiloto */\n      0xffffffffffffffffffffffffffffffffffffffff\n      and\n      eq\n        /* \"contracts/CarreraCoches/principal.sol\":4009:4562  if (msg.sender == listaCoches[i].idPiloto) {\r... */\n      iszero\n      tag_163\n      jumpi\n        /* \"contracts/CarreraCoches/principal.sol\":4085:4086  0 */\n      0x00\n        /* \"contracts/CarreraCoches/principal.sol\":4074:4081  ganador */\n      dup3\n        /* \"contracts/CarreraCoches/principal.sol\":4074:4086  ganador == 0 */\n      eq\n        /* \"contracts/CarreraCoches/principal.sol\":4071:4446  if(ganador == 0){\r... */\n      iszero\n      tag_164\n      jumpi\n        /* \"contracts/CarreraCoches/principal.sol\":4110:4119  balance() */\n      tag_165\n        /* \"contracts/CarreraCoches/principal.sol\":4110:4117  balance */\n      tag_166\n        /* \"contracts/CarreraCoches/principal.sol\":4110:4119  balance() */\n      jump\t// in\n    tag_165:\n        /* \"contracts/CarreraCoches/principal.sol\":4142:4153  listaCoches */\n      0x05\n        /* \"contracts/CarreraCoches/principal.sol\":4154:4155  i */\n      dup2\n        /* \"contracts/CarreraCoches/principal.sol\":4142:4156  listaCoches[i] */\n      dup2\n      sload\n      dup2\n      lt\n      tag_167\n      jumpi\n      tag_168\n      tag_138\n      jump\t// in\n    tag_168:\n    tag_167:\n      swap1\n      0x00\n      mstore\n      keccak256(0x00, 0x20)\n      swap1\n      0x08\n      mul\n      add\n        /* \"contracts/CarreraCoches/principal.sol\":4142:4172  listaCoches[i].carrerasGanadas */\n      0x04\n      add\n      0x00\n        /* \"contracts/CarreraCoches/principal.sol\":4142:4174  listaCoches[i].carrerasGanadas++ */\n      dup2\n      sload\n      dup1\n      swap3\n      swap2\n      swap1\n      tag_170\n      swap1\n      tag_126\n      jump\t// in\n    tag_170:\n      swap2\n      swap1\n      pop\n      sstore\n      pop\n        /* \"contracts/CarreraCoches/principal.sol\":4197:4208  listaCoches */\n      0x05\n        /* \"contracts/CarreraCoches/principal.sol\":4209:4210  i */\n      dup2\n        /* \"contracts/CarreraCoches/principal.sol\":4197:4211  listaCoches[i] */\n      dup2\n      sload\n      dup2\n      lt\n      tag_171\n      jumpi\n      tag_172\n      tag_138\n      jump\t// in\n    tag_172:\n    tag_171:\n      swap1\n      0x00\n      mstore\n      keccak256(0x00, 0x20)\n      swap1\n      0x08\n      mul\n      add\n        /* \"contracts/CarreraCoches/principal.sol\":4197:4217  listaCoches[i].nivel */\n      0x07\n      add\n      0x00\n        /* \"contracts/CarreraCoches/principal.sol\":4197:4219  listaCoches[i].nivel++ */\n      dup2\n      dup2\n      swap1\n      sload\n      swap1\n      0x0100\n      exp\n      swap1\n      div\n      0xffffffff\n      and\n      dup1\n      swap3\n      swap2\n      swap1\n      tag_174\n      swap1\n      tag_145\n      jump\t// in\n    tag_174:\n      swap2\n      swap1\n      0x0100\n      exp\n      dup2\n      sload\n      dup2\n      0xffffffff\n      mul\n      not\n      and\n      swap1\n      dup4\n      0xffffffff\n      and\n      mul\n      or\n      swap1\n      sstore\n      pop\n      pop\n        /* \"contracts/CarreraCoches/principal.sol\":4242:4261  return \"Has ganado\" */\n      mload(0x40)\n      dup1\n      0x40\n      add\n      0x40\n      mstore\n      dup1\n      0x0a\n      dup2\n      mstore\n      0x20\n      add\n      0x4861732067616e61646f00000000000000000000000000000000000000000000\n      dup2\n      mstore\n      pop\n      swap5\n      pop\n      pop\n      pop\n      pop\n      pop\n      jump(tag_147)\n        /* \"contracts/CarreraCoches/principal.sol\":4071:4446  if(ganador == 0){\r... */\n    tag_164:\n        /* \"contracts/CarreraCoches/principal.sol\":4335:4383  mostrarResultado(\"El coche ganador es: \", rival) */\n      0xa28482eec3136a2461c6c30c08f71ba279c6c51a2d9c7bea4e50d6d2632f3896\n        /* \"contracts/CarreraCoches/principal.sol\":4377:4382  rival */\n      dup5\n        /* \"contracts/CarreraCoches/principal.sol\":4335:4383  mostrarResultado(\"El coche ganador es: \", rival) */\n      mload(0x40)\n      tag_176\n      swap2\n      swap1\n      tag_177\n      jump\t// in\n    tag_176:\n      mload(0x40)\n      dup1\n      swap2\n      sub\n      swap1\n      log1\n        /* \"contracts/CarreraCoches/principal.sol\":4406:4426  return \"Has perdido\" */\n      mload(0x40)\n      dup1\n      0x40\n      add\n      0x40\n      mstore\n      dup1\n      0x0b\n      dup2\n      mstore\n      0x20\n      add\n      0x486173207065726469646f000000000000000000000000000000000000000000\n      dup2\n      mstore\n      pop\n      swap5\n      pop\n      pop\n      pop\n      pop\n      pop\n      jump(tag_147)\n        /* \"contracts/CarreraCoches/principal.sol\":4009:4562  if (msg.sender == listaCoches[i].idPiloto) {\r... */\n    tag_163:\n        /* \"contracts/CarreraCoches/principal.sol\":3887:3890  i++ */\n      dup1\n      dup1\n      tag_187\n      swap1\n      tag_126\n      jump\t// in\n    tag_187:\n      swap2\n      pop\n      pop\n        /* \"contracts/CarreraCoches/principal.sol\":3847:4573  for(uint i = 0; i < listaCoches.length; i++){\r... */\n      jump(tag_157)\n    tag_158:\n      pop\n        /* \"contracts/CarreraCoches/principal.sol\":3399:4579  {\r... */\n      pop\n      pop\n      pop\n        /* \"contracts/CarreraCoches/principal.sol\":3324:4579  function Apostar(uint dineroApostar) public payable returns(string memory) {\r... */\n    tag_147:\n      swap2\n      swap1\n      pop\n      jump\t// out\n        /* \"contracts/CarreraCoches/cocheToken.sol\":138:274  function balanceOf(address _owner) public override view returns (uint256 _balance) {\r... */\n    tag_62:\n        /* \"contracts/CarreraCoches/cocheToken.sol\":203:219  uint256 _balance */\n      0x00\n        /* \"contracts/CarreraCoches/cocheToken.sol\":239:258  numeroCochesPersona */\n      0x07\n        /* \"contracts/CarreraCoches/cocheToken.sol\":239:266  numeroCochesPersona[_owner] */\n      0x00\n        /* \"contracts/CarreraCoches/cocheToken.sol\":259:265  _owner */\n      dup4\n        /* \"contracts/CarreraCoches/cocheToken.sol\":239:266  numeroCochesPersona[_owner] */\n      0xffffffffffffffffffffffffffffffffffffffff\n      and\n      0xffffffffffffffffffffffffffffffffffffffff\n      and\n      dup2\n      mstore\n      0x20\n      add\n      swap1\n      dup2\n      mstore\n      0x20\n      add\n      0x00\n      keccak256\n      sload\n        /* \"contracts/CarreraCoches/cocheToken.sol\":232:266  return numeroCochesPersona[_owner] */\n      swap1\n      pop\n        /* \"contracts/CarreraCoches/cocheToken.sol\":138:274  function balanceOf(address _owner) public override view returns (uint256 _balance) {\r... */\n      swap2\n      swap1\n      pop\n      jump\t// out\n        /* \"contracts/CarreraCoches/ownable.sol\":1719:1822  function renounceOwnership() public virtual onlyOwner {\r... */\n    tag_66:\n        /* \"contracts/CarreraCoches/ownable.sol\":1299:1311  _msgSender() */\n      tag_190\n        /* \"contracts/CarreraCoches/ownable.sol\":1299:1309  _msgSender */\n      tag_105\n        /* \"contracts/CarreraCoches/ownable.sol\":1299:1311  _msgSender() */\n      jump\t// in\n    tag_190:\n        /* \"contracts/CarreraCoches/ownable.sol\":1288:1311  owner() == _msgSender() */\n      0xffffffffffffffffffffffffffffffffffffffff\n      and\n        /* \"contracts/CarreraCoches/ownable.sol\":1288:1295  owner() */\n      tag_191\n        /* \"contracts/CarreraCoches/ownable.sol\":1288:1293  owner */\n      tag_74\n        /* \"contracts/CarreraCoches/ownable.sol\":1288:1295  owner() */\n      jump\t// in\n    tag_191:\n        /* \"contracts/CarreraCoches/ownable.sol\":1288:1311  owner() == _msgSender() */\n      0xffffffffffffffffffffffffffffffffffffffff\n      and\n      eq\n        /* \"contracts/CarreraCoches/ownable.sol\":1280:1348  require(owner() == _msgSender(), \"Ownable: caller is not the owner\") */\n      tag_192\n      jumpi\n      mload(0x40)\n      0x08c379a000000000000000000000000000000000000000000000000000000000\n      dup2\n      mstore\n      0x04\n      add\n      tag_193\n      swap1\n      tag_109\n      jump\t// in\n    tag_193:\n      mload(0x40)\n      dup1\n      swap2\n      sub\n      swap1\n      revert\n    tag_192:\n        /* \"contracts/CarreraCoches/ownable.sol\":1784:1814  _transferOwnership(address(0)) */\n      tag_195\n        /* \"contracts/CarreraCoches/ownable.sol\":1811:1812  0 */\n      0x00\n        /* \"contracts/CarreraCoches/ownable.sol\":1784:1802  _transferOwnership */\n      tag_196\n        /* \"contracts/CarreraCoches/ownable.sol\":1784:1814  _transferOwnership(address(0)) */\n      jump\t// in\n    tag_195:\n        /* \"contracts/CarreraCoches/ownable.sol\":1719:1822  function renounceOwnership() public virtual onlyOwner {\r... */\n      jump\t// out\n        /* \"contracts/CarreraCoches/principal.sol\":816:867  mapping (uint => address) public cocheDePropietario */\n    tag_70:\n      mstore(0x20, 0x06)\n      dup1\n      0x00\n      mstore\n      keccak256(0x00, 0x40)\n      0x00\n      swap2\n      pop\n      sload\n      swap1\n      0x0100\n      exp\n      swap1\n      div\n      0xffffffffffffffffffffffffffffffffffffffff\n      and\n      dup2\n      jump\t// out\n        /* \"contracts/CarreraCoches/ownable.sol\":1068:1155  function owner() public view virtual returns (address) {\r... */\n    tag_74:\n        /* \"contracts/CarreraCoches/ownable.sol\":1114:1121  address */\n      0x00\n        /* \"contracts/CarreraCoches/ownable.sol\":1141:1147  _owner */\n      dup1\n      0x00\n      swap1\n      sload\n      swap1\n      0x0100\n      exp\n      swap1\n      div\n      0xffffffffffffffffffffffffffffffffffffffff\n      and\n        /* \"contracts/CarreraCoches/ownable.sol\":1134:1147  return _owner */\n      swap1\n      pop\n        /* \"contracts/CarreraCoches/ownable.sol\":1068:1155  function owner() public view virtual returns (address) {\r... */\n      swap1\n      jump\t// out\n        /* \"contracts/CarreraCoches/cocheToken.sol\":516:591  function transfer(address _to, uint256 _tokenId) public override {\r... */\n    tag_79:\n      pop\n      pop\n      jump\t// out\n        /* \"contracts/CarreraCoches/ownable.sol\":701:722  address public _owner */\n    tag_82:\n      0x00\n      dup1\n      sload\n      swap1\n      0x0100\n      exp\n      swap1\n      div\n      0xffffffffffffffffffffffffffffffffffffffff\n      and\n      dup2\n      jump\t// out\n        /* \"contracts/CarreraCoches/cocheToken.sol\":681:748  function takeOwnership(uint256 _tokenId) public override {\r... */\n    tag_87:\n      pop\n      jump\t// out\n        /* \"contracts/CarreraCoches/principal.sol\":569:595  Coche[] public listaCoches */\n    tag_91:\n      0x05\n      dup2\n      dup2\n      sload\n      dup2\n      lt\n      tag_200\n      jumpi\n      0x00\n      dup1\n      revert\n    tag_200:\n      swap1\n      0x00\n      mstore\n      keccak256(0x00, 0x20)\n      swap1\n      0x08\n      mul\n      add\n      0x00\n      swap2\n      pop\n      swap1\n      pop\n      dup1\n      0x00\n      add\n      0x00\n      swap1\n      sload\n      swap1\n      0x0100\n      exp\n      swap1\n      div\n      0xffffffffffffffffffffffffffffffffffffffff\n      and\n      swap1\n      dup1\n      0x01\n      add\n      dup1\n      sload\n      tag_202\n      swap1\n      tag_203\n      jump\t// in\n    tag_202:\n      dup1\n      0x1f\n      add\n      0x20\n      dup1\n      swap2\n      div\n      mul\n      0x20\n      add\n      mload(0x40)\n      swap1\n      dup2\n      add\n      0x40\n      mstore\n      dup1\n      swap3\n      swap2\n      swap1\n      dup2\n      dup2\n      mstore\n      0x20\n      add\n      dup3\n      dup1\n      sload\n      tag_204\n      swap1\n      tag_203\n      jump\t// in\n    tag_204:\n      dup1\n      iszero\n      tag_205\n      jumpi\n      dup1\n      0x1f\n      lt\n      tag_206\n      jumpi\n      0x0100\n      dup1\n      dup4\n      sload\n      div\n      mul\n      dup4\n      mstore\n      swap2\n      0x20\n      add\n      swap2\n      jump(tag_205)\n    tag_206:\n      dup3\n      add\n      swap2\n      swap1\n      0x00\n      mstore\n      keccak256(0x00, 0x20)\n      swap1\n    tag_207:\n      dup2\n      sload\n      dup2\n      mstore\n      swap1\n      0x01\n      add\n      swap1\n      0x20\n      add\n      dup1\n      dup4\n      gt\n      tag_207\n      jumpi\n      dup3\n      swap1\n      sub\n      0x1f\n      and\n      dup3\n      add\n      swap2\n    tag_205:\n      pop\n      pop\n      pop\n      pop\n      pop\n      swap1\n      dup1\n      0x02\n      add\n      dup1\n      sload\n      tag_208\n      swap1\n      tag_203\n      jump\t// in\n    tag_208:\n      dup1\n      0x1f\n      add\n      0x20\n      dup1\n      swap2\n      div\n      mul\n      0x20\n      add\n      mload(0x40)\n      swap1\n      dup2\n      add\n      0x40\n      mstore\n      dup1\n      swap3\n      swap2\n      swap1\n      dup2\n      dup2\n      mstore\n      0x20\n      add\n      dup3\n      dup1\n      sload\n      tag_209\n      swap1\n      tag_203\n      jump\t// in\n    tag_209:\n      dup1\n      iszero\n      tag_210\n      jumpi\n      dup1\n      0x1f\n      lt\n      tag_211\n      jumpi\n      0x0100\n      dup1\n      dup4\n      sload\n      div\n      mul\n      dup4\n      mstore\n      swap2\n      0x20\n      add\n      swap2\n      jump(tag_210)\n    tag_211:\n      dup3\n      add\n      swap2\n      swap1\n      0x00\n      mstore\n      keccak256(0x00, 0x20)\n      swap1\n    tag_212:\n      dup2\n      sload\n      dup2\n      mstore\n      swap1\n      0x01\n      add\n      swap1\n      0x20\n      add\n      dup1\n      dup4\n      gt\n      tag_212\n      jumpi\n      dup3\n      swap1\n      sub\n      0x1f\n      and\n      dup3\n      add\n      swap2\n    tag_210:\n      pop\n      pop\n      pop\n      pop\n      pop\n      swap1\n      dup1\n      0x03\n      add\n      dup1\n      sload\n      tag_213\n      swap1\n      tag_203\n      jump\t// in\n    tag_213:\n      dup1\n      0x1f\n      add\n      0x20\n      dup1\n      swap2\n      div\n      mul\n      0x20\n      add\n      mload(0x40)\n      swap1\n      dup2\n      add\n      0x40\n      mstore\n      dup1\n      swap3\n      swap2\n      swap1\n      dup2\n      dup2\n      mstore\n      0x20\n      add\n      dup3\n      dup1\n      sload\n      tag_214\n      swap1\n      tag_203\n      jump\t// in\n    tag_214:\n      dup1\n      iszero\n      tag_215\n      jumpi\n      dup1\n      0x1f\n      lt\n      tag_216\n      jumpi\n      0x0100\n      dup1\n      dup4\n      sload\n      div\n      mul\n      dup4\n      mstore\n      swap2\n      0x20\n      add\n      swap2\n      jump(tag_215)\n    tag_216:\n      dup3\n      add\n      swap2\n      swap1\n      0x00\n      mstore\n      keccak256(0x00, 0x20)\n      swap1\n    tag_217:\n      dup2\n      sload\n      dup2\n      mstore\n      swap1\n      0x01\n      add\n      swap1\n      0x20\n      add\n      dup1\n      dup4\n      gt\n      tag_217\n      jumpi\n      dup3\n      swap1\n      sub\n      0x1f\n      and\n      dup3\n      add\n      swap2\n    tag_215:\n      pop\n      pop\n      pop\n      pop\n      pop\n      swap1\n      dup1\n      0x04\n      add\n      sload\n      swap1\n      dup1\n      0x05\n      add\n      sload\n      swap1\n      dup1\n      0x06\n      add\n      sload\n      swap1\n      dup1\n      0x07\n      add\n      0x00\n      swap1\n      sload\n      swap1\n      0x0100\n      exp\n      swap1\n      div\n      0xffffffff\n      and\n      swap1\n      pop\n      dup9\n      jump\t// out\n        /* \"contracts/CarreraCoches/principal.sol\":2643:2987  function verCochePropietario(address _propietario) external {\r... */\n    tag_97:\n        /* \"contracts/CarreraCoches/principal.sol\":2718:2724  uint i */\n      0x00\n        /* \"contracts/CarreraCoches/principal.sol\":2714:2980  for(uint i = 0; i < listaCoches.length; i++){\r... */\n    tag_219:\n        /* \"contracts/CarreraCoches/principal.sol\":2734:2745  listaCoches */\n      0x05\n        /* \"contracts/CarreraCoches/principal.sol\":2734:2752  listaCoches.length */\n      dup1\n      sload\n      swap1\n      pop\n        /* \"contracts/CarreraCoches/principal.sol\":2730:2731  i */\n      dup2\n        /* \"contracts/CarreraCoches/principal.sol\":2730:2752  i < listaCoches.length */\n      lt\n        /* \"contracts/CarreraCoches/principal.sol\":2714:2980  for(uint i = 0; i < listaCoches.length; i++){\r... */\n      iszero\n      tag_220\n      jumpi\n        /* \"contracts/CarreraCoches/principal.sol\":2801:2813  _propietario */\n      dup2\n        /* \"contracts/CarreraCoches/principal.sol\":2776:2813  listaCoches[i].idPiloto==_propietario */\n      0xffffffffffffffffffffffffffffffffffffffff\n      and\n        /* \"contracts/CarreraCoches/principal.sol\":2776:2787  listaCoches */\n      0x05\n        /* \"contracts/CarreraCoches/principal.sol\":2788:2789  i */\n      dup3\n        /* \"contracts/CarreraCoches/principal.sol\":2776:2790  listaCoches[i] */\n      dup2\n      sload\n      dup2\n      lt\n      tag_222\n      jumpi\n      tag_223\n      tag_138\n      jump\t// in\n    tag_223:\n    tag_222:\n      swap1\n      0x00\n      mstore\n      keccak256(0x00, 0x20)\n      swap1\n      0x08\n      mul\n      add\n        /* \"contracts/CarreraCoches/principal.sol\":2776:2799  listaCoches[i].idPiloto */\n      0x00\n      add\n      0x00\n      swap1\n      sload\n      swap1\n      0x0100\n      exp\n      swap1\n      div\n      0xffffffffffffffffffffffffffffffffffffffff\n      and\n        /* \"contracts/CarreraCoches/principal.sol\":2776:2813  listaCoches[i].idPiloto==_propietario */\n      0xffffffffffffffffffffffffffffffffffffffff\n      and\n      eq\n        /* \"contracts/CarreraCoches/principal.sol\":2773:2969  if(listaCoches[i].idPiloto==_propietario){\r... */\n      iszero\n      tag_225\n      jumpi\n        /* \"contracts/CarreraCoches/principal.sol\":2838:2953  cochePropietario(listaCoches[i].marca, listaCoches[i].modelo, listaCoches[i].nivel, listaCoches[i].carrerasGanadas) */\n      0x18c2885dbbffc4e127da047b869295b42d8d5ee97848f7f117b062e88f34a9e6\n        /* \"contracts/CarreraCoches/principal.sol\":2855:2866  listaCoches */\n      0x05\n        /* \"contracts/CarreraCoches/principal.sol\":2867:2868  i */\n      dup3\n        /* \"contracts/CarreraCoches/principal.sol\":2855:2869  listaCoches[i] */\n      dup2\n      sload\n      dup2\n      lt\n      tag_226\n      jumpi\n      tag_227\n      tag_138\n      jump\t// in\n    tag_227:\n    tag_226:\n      swap1\n      0x00\n      mstore\n      keccak256(0x00, 0x20)\n      swap1\n      0x08\n      mul\n      add\n        /* \"contracts/CarreraCoches/principal.sol\":2855:2875  listaCoches[i].marca */\n      0x02\n      add\n        /* \"contracts/CarreraCoches/principal.sol\":2877:2888  listaCoches */\n      0x05\n        /* \"contracts/CarreraCoches/principal.sol\":2889:2890  i */\n      dup4\n        /* \"contracts/CarreraCoches/principal.sol\":2877:2891  listaCoches[i] */\n      dup2\n      sload\n      dup2\n      lt\n      tag_229\n      jumpi\n      tag_230\n      tag_138\n      jump\t// in\n    tag_230:\n    tag_229:\n      swap1\n      0x00\n      mstore\n      keccak256(0x00, 0x20)\n      swap1\n      0x08\n      mul\n      add\n        /* \"contracts/CarreraCoches/principal.sol\":2877:2898  listaCoches[i].modelo */\n      0x01\n      add\n        /* \"contracts/CarreraCoches/principal.sol\":2900:2911  listaCoches */\n      0x05\n        /* \"contracts/CarreraCoches/principal.sol\":2912:2913  i */\n      dup5\n        /* \"contracts/CarreraCoches/principal.sol\":2900:2914  listaCoches[i] */\n      dup2\n      sload\n      dup2\n      lt\n      tag_232\n      jumpi\n      tag_233\n      tag_138\n      jump\t// in\n    tag_233:\n    tag_232:\n      swap1\n      0x00\n      mstore\n      keccak256(0x00, 0x20)\n      swap1\n      0x08\n      mul\n      add\n        /* \"contracts/CarreraCoches/principal.sol\":2900:2920  listaCoches[i].nivel */\n      0x07\n      add\n      0x00\n      swap1\n      sload\n      swap1\n      0x0100\n      exp\n      swap1\n      div\n      0xffffffff\n      and\n        /* \"contracts/CarreraCoches/principal.sol\":2922:2933  listaCoches */\n      0x05\n        /* \"contracts/CarreraCoches/principal.sol\":2934:2935  i */\n      dup6\n        /* \"contracts/CarreraCoches/principal.sol\":2922:2936  listaCoches[i] */\n      dup2\n      sload\n      dup2\n      lt\n      tag_235\n      jumpi\n      tag_236\n      tag_138\n      jump\t// in\n    tag_236:\n    tag_235:\n      swap1\n      0x00\n      mstore\n      keccak256(0x00, 0x20)\n      swap1\n      0x08\n      mul\n      add\n        /* \"contracts/CarreraCoches/principal.sol\":2922:2952  listaCoches[i].carrerasGanadas */\n      0x04\n      add\n      sload\n        /* \"contracts/CarreraCoches/principal.sol\":2838:2953  cochePropietario(listaCoches[i].marca, listaCoches[i].modelo, listaCoches[i].nivel, listaCoches[i].carrerasGanadas) */\n      mload(0x40)\n      tag_238\n      swap5\n      swap4\n      swap3\n      swap2\n      swap1\n      tag_239\n      jump\t// in\n    tag_238:\n      mload(0x40)\n      dup1\n      swap2\n      sub\n      swap1\n      log1\n        /* \"contracts/CarreraCoches/principal.sol\":2773:2969  if(listaCoches[i].idPiloto==_propietario){\r... */\n    tag_225:\n        /* \"contracts/CarreraCoches/principal.sol\":2754:2757  i++ */\n      dup1\n      dup1\n      tag_240\n      swap1\n      tag_126\n      jump\t// in\n    tag_240:\n      swap2\n      pop\n      pop\n        /* \"contracts/CarreraCoches/principal.sol\":2714:2980  for(uint i = 0; i < listaCoches.length; i++){\r... */\n      jump(tag_219)\n    tag_220:\n      pop\n        /* \"contracts/CarreraCoches/principal.sol\":2643:2987  function verCochePropietario(address _propietario) external {\r... */\n      pop\n      jump\t// out\n        /* \"contracts/CarreraCoches/ownable.sol\":1977:2178  function transferOwnership(address newOwner) public virtual onlyOwner {\r... */\n    tag_101:\n        /* \"contracts/CarreraCoches/ownable.sol\":1299:1311  _msgSender() */\n      tag_242\n        /* \"contracts/CarreraCoches/ownable.sol\":1299:1309  _msgSender */\n      tag_105\n        /* \"contracts/CarreraCoches/ownable.sol\":1299:1311  _msgSender() */\n      jump\t// in\n    tag_242:\n        /* \"contracts/CarreraCoches/ownable.sol\":1288:1311  owner() == _msgSender() */\n      0xffffffffffffffffffffffffffffffffffffffff\n      and\n        /* \"contracts/CarreraCoches/ownable.sol\":1288:1295  owner() */\n      tag_243\n        /* \"contracts/CarreraCoches/ownable.sol\":1288:1293  owner */\n      tag_74\n        /* \"contracts/CarreraCoches/ownable.sol\":1288:1295  owner() */\n      jump\t// in\n    tag_243:\n        /* \"contracts/CarreraCoches/ownable.sol\":1288:1311  owner() == _msgSender() */\n      0xffffffffffffffffffffffffffffffffffffffff\n      and\n      eq\n        /* \"contracts/CarreraCoches/ownable.sol\":1280:1348  require(owner() == _msgSender(), \"Ownable: caller is not the owner\") */\n      tag_244\n      jumpi\n      mload(0x40)\n      0x08c379a000000000000000000000000000000000000000000000000000000000\n      dup2\n      mstore\n      0x04\n      add\n      tag_245\n      swap1\n      tag_109\n      jump\t// in\n    tag_245:\n      mload(0x40)\n      dup1\n      swap2\n      sub\n      swap1\n      revert\n    tag_244:\n        /* \"contracts/CarreraCoches/ownable.sol\":2086:2087  0 */\n      0x00\n        /* \"contracts/CarreraCoches/ownable.sol\":2066:2088  newOwner != address(0) */\n      0xffffffffffffffffffffffffffffffffffffffff\n      and\n        /* \"contracts/CarreraCoches/ownable.sol\":2066:2074  newOwner */\n      dup2\n        /* \"contracts/CarreraCoches/ownable.sol\":2066:2088  newOwner != address(0) */\n      0xffffffffffffffffffffffffffffffffffffffff\n      and\n      eq\n      iszero\n        /* \"contracts/CarreraCoches/ownable.sol\":2058:2131  require(newOwner != address(0), \"Ownable: new owner is the zero address\") */\n      tag_247\n      jumpi\n      mload(0x40)\n      0x08c379a000000000000000000000000000000000000000000000000000000000\n      dup2\n      mstore\n      0x04\n      add\n      tag_248\n      swap1\n      tag_249\n      jump\t// in\n    tag_248:\n      mload(0x40)\n      dup1\n      swap2\n      sub\n      swap1\n      revert\n    tag_247:\n        /* \"contracts/CarreraCoches/ownable.sol\":2142:2170  _transferOwnership(newOwner) */\n      tag_250\n        /* \"contracts/CarreraCoches/ownable.sol\":2161:2169  newOwner */\n      dup2\n        /* \"contracts/CarreraCoches/ownable.sol\":2142:2160  _transferOwnership */\n      tag_196\n        /* \"contracts/CarreraCoches/ownable.sol\":2142:2170  _transferOwnership(newOwner) */\n      jump\t// in\n    tag_250:\n        /* \"contracts/CarreraCoches/ownable.sol\":1977:2178  function transferOwnership(address newOwner) public virtual onlyOwner {\r... */\n      pop\n      jump\t// out\n        /* \"contracts/CarreraCoches/utils/Context.sol\":656:754  function _msgSender() internal view virtual returns (address) {\r... */\n    tag_105:\n        /* \"contracts/CarreraCoches/utils/Context.sol\":709:716  address */\n      0x00\n        /* \"contracts/CarreraCoches/utils/Context.sol\":736:746  msg.sender */\n      caller\n        /* \"contracts/CarreraCoches/utils/Context.sol\":729:746  return msg.sender */\n      swap1\n      pop\n        /* \"contracts/CarreraCoches/utils/Context.sol\":656:754  function _msgSender() internal view virtual returns (address) {\r... */\n      swap1\n      jump\t// out\n        /* \"contracts/CarreraCoches/principal.sol\":4636:4815  function balance() private {\r... */\n    tag_166:\n        /* \"contracts/CarreraCoches/principal.sol\":4683:4693  msg.sender */\n      caller\n        /* \"contracts/CarreraCoches/principal.sol\":4674:4703  payable (msg.sender).transfer */\n      0xffffffffffffffffffffffffffffffffffffffff\n      and\n        /* \"contracts/CarreraCoches/principal.sol\":4674:4730  payable (msg.sender).transfer((address(this).balance)*2) */\n      0x08fc\n        /* \"contracts/CarreraCoches/principal.sol\":4728:4729  2 */\n      0x02\n        /* \"contracts/CarreraCoches/principal.sol\":4705:4726  address(this).balance */\n      selfbalance\n        /* \"contracts/CarreraCoches/principal.sol\":4704:4729  (address(this).balance)*2 */\n      tag_253\n      swap2\n      swap1\n      tag_254\n      jump\t// in\n    tag_253:\n        /* \"contracts/CarreraCoches/principal.sol\":4674:4730  payable (msg.sender).transfer((address(this).balance)*2) */\n      swap1\n      dup2\n      iszero\n      mul\n      swap1\n      mload(0x40)\n      0x00\n      mload(0x40)\n      dup1\n      dup4\n      sub\n      dup2\n      dup6\n      dup9\n      dup9\n      call\n      swap4\n      pop\n      pop\n      pop\n      pop\n      iszero\n      dup1\n      iszero\n      tag_256\n      jumpi\n      returndatasize\n      0x00\n      dup1\n      returndatacopy\n      revert(0x00, returndatasize)\n    tag_256:\n      pop\n        /* \"contracts/CarreraCoches/principal.sol\":4746:4807  mostrarResultado(\"Has ganado: \", ((address(this).balance)*2)) */\n      0xa28482eec3136a2461c6c30c08f71ba279c6c51a2d9c7bea4e50d6d2632f3896\n        /* \"contracts/CarreraCoches/principal.sol\":4804:4805  2 */\n      0x02\n        /* \"contracts/CarreraCoches/principal.sol\":4781:4802  address(this).balance */\n      selfbalance\n        /* \"contracts/CarreraCoches/principal.sol\":4780:4805  (address(this).balance)*2 */\n      tag_257\n      swap2\n      swap1\n      tag_254\n      jump\t// in\n    tag_257:\n        /* \"contracts/CarreraCoches/principal.sol\":4746:4807  mostrarResultado(\"Has ganado: \", ((address(this).balance)*2)) */\n      mload(0x40)\n      tag_258\n      swap2\n      swap1\n      tag_259\n      jump\t// in\n    tag_258:\n      mload(0x40)\n      dup1\n      swap2\n      sub\n      swap1\n      log1\n        /* \"contracts/CarreraCoches/principal.sol\":4636:4815  function balance() private {\r... */\n      jump\t// out\n        /* \"contracts/CarreraCoches/ownable.sol\":2338:2529  function _transferOwnership(address newOwner) internal virtual {\r... */\n    tag_196:\n        /* \"contracts/CarreraCoches/ownable.sol\":2412:2428  address oldOwner */\n      0x00\n        /* \"contracts/CarreraCoches/ownable.sol\":2431:2437  _owner */\n      dup1\n      0x00\n      swap1\n      sload\n      swap1\n      0x0100\n      exp\n      swap1\n      div\n      0xffffffffffffffffffffffffffffffffffffffff\n      and\n        /* \"contracts/CarreraCoches/ownable.sol\":2412:2437  address oldOwner = _owner */\n      swap1\n      pop\n        /* \"contracts/CarreraCoches/ownable.sol\":2457:2465  newOwner */\n      dup2\n        /* \"contracts/CarreraCoches/ownable.sol\":2448:2454  _owner */\n      0x00\n      dup1\n        /* \"contracts/CarreraCoches/ownable.sol\":2448:2465  _owner = newOwner */\n      0x0100\n      exp\n      dup2\n      sload\n      dup2\n      0xffffffffffffffffffffffffffffffffffffffff\n      mul\n      not\n      and\n      swap1\n      dup4\n      0xffffffffffffffffffffffffffffffffffffffff\n      and\n      mul\n      or\n      swap1\n      sstore\n      pop\n        /* \"contracts/CarreraCoches/ownable.sol\":2512:2520  newOwner */\n      dup2\n        /* \"contracts/CarreraCoches/ownable.sol\":2481:2521  OwnershipTransferred(oldOwner, newOwner) */\n      0xffffffffffffffffffffffffffffffffffffffff\n      and\n        /* \"contracts/CarreraCoches/ownable.sol\":2502:2510  oldOwner */\n      dup2\n        /* \"contracts/CarreraCoches/ownable.sol\":2481:2521  OwnershipTransferred(oldOwner, newOwner) */\n      0xffffffffffffffffffffffffffffffffffffffff\n      and\n      0x8be0079c531659141344cd1fd0a4f28419497f9722a3daafe3b4186f6b6457e0\n      mload(0x40)\n      mload(0x40)\n      dup1\n      swap2\n      sub\n      swap1\n      log3\n        /* \"contracts/CarreraCoches/ownable.sol\":2401:2529  {\r... */\n      pop\n        /* \"contracts/CarreraCoches/ownable.sol\":2338:2529  function _transferOwnership(address newOwner) internal virtual {\r... */\n      pop\n      jump\t// out\n    tag_122:\n      dup3\n      dup1\n      sload\n      tag_263\n      swap1\n      tag_203\n      jump\t// in\n    tag_263:\n      swap1\n      0x00\n      mstore\n      keccak256(0x00, 0x20)\n      swap1\n      0x1f\n      add\n      0x20\n      swap1\n      div\n      dup2\n      add\n      swap3\n      dup3\n      tag_265\n      jumpi\n      0x00\n      dup6\n      sstore\n      jump(tag_264)\n    tag_265:\n      dup3\n      0x1f\n      lt\n      tag_266\n      jumpi\n      dup1\n      mload\n      not(0xff)\n      and\n      dup4\n      dup1\n      add\n      or\n      dup6\n      sstore\n      jump(tag_264)\n    tag_266:\n      dup3\n      dup1\n      add\n      0x01\n      add\n      dup6\n      sstore\n      dup3\n      iszero\n      tag_264\n      jumpi\n      swap2\n      dup3\n      add\n    tag_267:\n      dup3\n      dup2\n      gt\n      iszero\n      tag_268\n      jumpi\n      dup3\n      mload\n      dup3\n      sstore\n      swap2\n      0x20\n      add\n      swap2\n      swap1\n      0x01\n      add\n      swap1\n      jump(tag_267)\n    tag_268:\n    tag_264:\n      pop\n      swap1\n      pop\n      tag_269\n      swap2\n      swap1\n      tag_270\n      jump\t// in\n    tag_269:\n      pop\n      swap1\n      jump\t// out\n    tag_270:\n    tag_271:\n      dup1\n      dup3\n      gt\n      iszero\n      tag_272\n      jumpi\n      0x00\n      dup2\n      0x00\n      swap1\n      sstore\n      pop\n      0x01\n      add\n      jump(tag_271)\n    tag_272:\n      pop\n      swap1\n      jump\t// out\n        /* \"#utility.yul\":7:419   */\n    tag_274:\n        /* \"#utility.yul\":85:90   */\n      0x00\n        /* \"#utility.yul\":110:176   */\n      tag_276\n        /* \"#utility.yul\":126:175   */\n      tag_277\n        /* \"#utility.yul\":168:174   */\n      dup5\n        /* \"#utility.yul\":126:175   */\n      tag_278\n      jump\t// in\n    tag_277:\n        /* \"#utility.yul\":110:176   */\n      tag_279\n      jump\t// in\n    tag_276:\n        /* \"#utility.yul\":101:176   */\n      swap1\n      pop\n        /* \"#utility.yul\":199:205   */\n      dup3\n        /* \"#utility.yul\":192:197   */\n      dup2\n        /* \"#utility.yul\":185:206   */\n      mstore\n        /* \"#utility.yul\":237:241   */\n      0x20\n        /* \"#utility.yul\":230:235   */\n      dup2\n        /* \"#utility.yul\":226:242   */\n      add\n        /* \"#utility.yul\":275:278   */\n      dup5\n        /* \"#utility.yul\":266:272   */\n      dup5\n        /* \"#utility.yul\":261:264   */\n      dup5\n        /* \"#utility.yul\":257:273   */\n      add\n        /* \"#utility.yul\":254:279   */\n      gt\n        /* \"#utility.yul\":251:363   */\n      iszero\n      tag_280\n      jumpi\n        /* \"#utility.yul\":282:361   */\n      tag_281\n      tag_282\n      jump\t// in\n    tag_281:\n        /* \"#utility.yul\":251:363   */\n    tag_280:\n        /* \"#utility.yul\":372:413   */\n      tag_283\n        /* \"#utility.yul\":406:412   */\n      dup5\n        /* \"#utility.yul\":401:404   */\n      dup3\n        /* \"#utility.yul\":396:399   */\n      dup6\n        /* \"#utility.yul\":372:413   */\n      tag_284\n      jump\t// in\n    tag_283:\n        /* \"#utility.yul\":91:419   */\n      pop\n        /* \"#utility.yul\":7:419   */\n      swap4\n      swap3\n      pop\n      pop\n      pop\n      jump\t// out\n        /* \"#utility.yul\":425:564   */\n    tag_285:\n        /* \"#utility.yul\":471:476   */\n      0x00\n        /* \"#utility.yul\":509:515   */\n      dup2\n        /* \"#utility.yul\":496:516   */\n      calldataload\n        /* \"#utility.yul\":487:516   */\n      swap1\n      pop\n        /* \"#utility.yul\":525:558   */\n      tag_287\n        /* \"#utility.yul\":552:557   */\n      dup2\n        /* \"#utility.yul\":525:558   */\n      tag_288\n      jump\t// in\n    tag_287:\n        /* \"#utility.yul\":425:564   */\n      swap3\n      swap2\n      pop\n      pop\n      jump\t// out\n        /* \"#utility.yul\":584:924   */\n    tag_289:\n        /* \"#utility.yul\":640:645   */\n      0x00\n        /* \"#utility.yul\":689:692   */\n      dup3\n        /* \"#utility.yul\":682:686   */\n      0x1f\n        /* \"#utility.yul\":674:680   */\n      dup4\n        /* \"#utility.yul\":670:687   */\n      add\n        /* \"#utility.yul\":666:693   */\n      slt\n        /* \"#utility.yul\":656:778   */\n      tag_291\n      jumpi\n        /* \"#utility.yul\":697:776   */\n      tag_292\n      tag_293\n      jump\t// in\n    tag_292:\n        /* \"#utility.yul\":656:778   */\n    tag_291:\n        /* \"#utility.yul\":814:820   */\n      dup2\n        /* \"#utility.yul\":801:821   */\n      calldataload\n        /* \"#utility.yul\":839:918   */\n      tag_294\n        /* \"#utility.yul\":914:917   */\n      dup5\n        /* \"#utility.yul\":906:912   */\n      dup3\n        /* \"#utility.yul\":899:903   */\n      0x20\n        /* \"#utility.yul\":891:897   */\n      dup7\n        /* \"#utility.yul\":887:904   */\n      add\n        /* \"#utility.yul\":839:918   */\n      tag_274\n      jump\t// in\n    tag_294:\n        /* \"#utility.yul\":830:918   */\n      swap2\n      pop\n        /* \"#utility.yul\":646:924   */\n      pop\n        /* \"#utility.yul\":584:924   */\n      swap3\n      swap2\n      pop\n      pop\n      jump\t// out\n        /* \"#utility.yul\":930:1069   */\n    tag_295:\n        /* \"#utility.yul\":976:981   */\n      0x00\n        /* \"#utility.yul\":1014:1020   */\n      dup2\n        /* \"#utility.yul\":1001:1021   */\n      calldataload\n        /* \"#utility.yul\":992:1021   */\n      swap1\n      pop\n        /* \"#utility.yul\":1030:1063   */\n      tag_297\n        /* \"#utility.yul\":1057:1062   */\n      dup2\n        /* \"#utility.yul\":1030:1063   */\n      tag_298\n      jump\t// in\n    tag_297:\n        /* \"#utility.yul\":930:1069   */\n      swap3\n      swap2\n      pop\n      pop\n      jump\t// out\n        /* \"#utility.yul\":1075:1404   */\n    tag_33:\n        /* \"#utility.yul\":1134:1140   */\n      0x00\n        /* \"#utility.yul\":1183:1185   */\n      0x20\n        /* \"#utility.yul\":1171:1180   */\n      dup3\n        /* \"#utility.yul\":1162:1169   */\n      dup5\n        /* \"#utility.yul\":1158:1181   */\n      sub\n        /* \"#utility.yul\":1154:1186   */\n      slt\n        /* \"#utility.yul\":1151:1270   */\n      iszero\n      tag_300\n      jumpi\n        /* \"#utility.yul\":1189:1268   */\n      tag_301\n      tag_302\n      jump\t// in\n    tag_301:\n        /* \"#utility.yul\":1151:1270   */\n    tag_300:\n        /* \"#utility.yul\":1309:1310   */\n      0x00\n        /* \"#utility.yul\":1334:1387   */\n      tag_303\n        /* \"#utility.yul\":1379:1386   */\n      dup5\n        /* \"#utility.yul\":1370:1376   */\n      dup3\n        /* \"#utility.yul\":1359:1368   */\n      dup6\n        /* \"#utility.yul\":1355:1377   */\n      add\n        /* \"#utility.yul\":1334:1387   */\n      tag_285\n      jump\t// in\n    tag_303:\n        /* \"#utility.yul\":1324:1387   */\n      swap2\n      pop\n        /* \"#utility.yul\":1280:1397   */\n      pop\n        /* \"#utility.yul\":1075:1404   */\n      swap3\n      swap2\n      pop\n      pop\n      jump\t// out\n        /* \"#utility.yul\":1410:1884   */\n    tag_25:\n        /* \"#utility.yul\":1478:1484   */\n      0x00\n        /* \"#utility.yul\":1486:1492   */\n      dup1\n        /* \"#utility.yul\":1535:1537   */\n      0x40\n        /* \"#utility.yul\":1523:1532   */\n      dup4\n        /* \"#utility.yul\":1514:1521   */\n      dup6\n        /* \"#utility.yul\":1510:1533   */\n      sub\n        /* \"#utility.yul\":1506:1538   */\n      slt\n        /* \"#utility.yul\":1503:1622   */\n      iszero\n      tag_305\n      jumpi\n        /* \"#utility.yul\":1541:1620   */\n      tag_306\n      tag_302\n      jump\t// in\n    tag_306:\n        /* \"#utility.yul\":1503:1622   */\n    tag_305:\n        /* \"#utility.yul\":1661:1662   */\n      0x00\n        /* \"#utility.yul\":1686:1739   */\n      tag_307\n        /* \"#utility.yul\":1731:1738   */\n      dup6\n        /* \"#utility.yul\":1722:1728   */\n      dup3\n        /* \"#utility.yul\":1711:1720   */\n      dup7\n        /* \"#utility.yul\":1707:1729   */\n      add\n        /* \"#utility.yul\":1686:1739   */\n      tag_285\n      jump\t// in\n    tag_307:\n        /* \"#utility.yul\":1676:1739   */\n      swap3\n      pop\n        /* \"#utility.yul\":1632:1749   */\n      pop\n        /* \"#utility.yul\":1788:1790   */\n      0x20\n        /* \"#utility.yul\":1814:1867   */\n      tag_308\n        /* \"#utility.yul\":1859:1866   */\n      dup6\n        /* \"#utility.yul\":1850:1856   */\n      dup3\n        /* \"#utility.yul\":1839:1848   */\n      dup7\n        /* \"#utility.yul\":1835:1857   */\n      add\n        /* \"#utility.yul\":1814:1867   */\n      tag_295\n      jump\t// in\n    tag_308:\n        /* \"#utility.yul\":1804:1867   */\n      swap2\n      pop\n        /* \"#utility.yul\":1759:1877   */\n      pop\n        /* \"#utility.yul\":1410:1884   */\n      swap3\n      pop\n      swap3\n      swap1\n      pop\n      jump\t// out\n        /* \"#utility.yul\":1890:3049   */\n    tag_40:\n        /* \"#utility.yul\":1997:2003   */\n      0x00\n        /* \"#utility.yul\":2005:2011   */\n      dup1\n        /* \"#utility.yul\":2013:2019   */\n      0x00\n        /* \"#utility.yul\":2062:2064   */\n      0x60\n        /* \"#utility.yul\":2050:2059   */\n      dup5\n        /* \"#utility.yul\":2041:2048   */\n      dup7\n        /* \"#utility.yul\":2037:2060   */\n      sub\n        /* \"#utility.yul\":2033:2065   */\n      slt\n        /* \"#utility.yul\":2030:2149   */\n      iszero\n      tag_310\n      jumpi\n        /* \"#utility.yul\":2068:2147   */\n      tag_311\n      tag_302\n      jump\t// in\n    tag_311:\n        /* \"#utility.yul\":2030:2149   */\n    tag_310:\n        /* \"#utility.yul\":2216:2217   */\n      0x00\n        /* \"#utility.yul\":2205:2214   */\n      dup5\n        /* \"#utility.yul\":2201:2218   */\n      add\n        /* \"#utility.yul\":2188:2219   */\n      calldataload\n        /* \"#utility.yul\":2246:2264   */\n      0xffffffffffffffff\n        /* \"#utility.yul\":2238:2244   */\n      dup2\n        /* \"#utility.yul\":2235:2265   */\n      gt\n        /* \"#utility.yul\":2232:2349   */\n      iszero\n      tag_312\n      jumpi\n        /* \"#utility.yul\":2268:2347   */\n      tag_313\n      tag_314\n      jump\t// in\n    tag_313:\n        /* \"#utility.yul\":2232:2349   */\n    tag_312:\n        /* \"#utility.yul\":2373:2436   */\n      tag_315\n        /* \"#utility.yul\":2428:2435   */\n      dup7\n        /* \"#utility.yul\":2419:2425   */\n      dup3\n        /* \"#utility.yul\":2408:2417   */\n      dup8\n        /* \"#utility.yul\":2404:2426   */\n      add\n        /* \"#utility.yul\":2373:2436   */\n      tag_289\n      jump\t// in\n    tag_315:\n        /* \"#utility.yul\":2363:2436   */\n      swap4\n      pop\n        /* \"#utility.yul\":2159:2446   */\n      pop\n        /* \"#utility.yul\":2513:2515   */\n      0x20\n        /* \"#utility.yul\":2502:2511   */\n      dup5\n        /* \"#utility.yul\":2498:2516   */\n      add\n        /* \"#utility.yul\":2485:2517   */\n      calldataload\n        /* \"#utility.yul\":2544:2562   */\n      0xffffffffffffffff\n        /* \"#utility.yul\":2536:2542   */\n      dup2\n        /* \"#utility.yul\":2533:2563   */\n      gt\n        /* \"#utility.yul\":2530:2647   */\n      iszero\n      tag_316\n      jumpi\n        /* \"#utility.yul\":2566:2645   */\n      tag_317\n      tag_314\n      jump\t// in\n    tag_317:\n        /* \"#utility.yul\":2530:2647   */\n    tag_316:\n        /* \"#utility.yul\":2671:2734   */\n      tag_318\n        /* \"#utility.yul\":2726:2733   */\n      dup7\n        /* \"#utility.yul\":2717:2723   */\n      dup3\n        /* \"#utility.yul\":2706:2715   */\n      dup8\n        /* \"#utility.yul\":2702:2724   */\n      add\n        /* \"#utility.yul\":2671:2734   */\n      tag_289\n      jump\t// in\n    tag_318:\n        /* \"#utility.yul\":2661:2734   */\n      swap3\n      pop\n        /* \"#utility.yul\":2456:2744   */\n      pop\n        /* \"#utility.yul\":2811:2813   */\n      0x40\n        /* \"#utility.yul\":2800:2809   */\n      dup5\n        /* \"#utility.yul\":2796:2814   */\n      add\n        /* \"#utility.yul\":2783:2815   */\n      calldataload\n        /* \"#utility.yul\":2842:2860   */\n      0xffffffffffffffff\n        /* \"#utility.yul\":2834:2840   */\n      dup2\n        /* \"#utility.yul\":2831:2861   */\n      gt\n        /* \"#utility.yul\":2828:2945   */\n      iszero\n      tag_319\n      jumpi\n        /* \"#utility.yul\":2864:2943   */\n      tag_320\n      tag_314\n      jump\t// in\n    tag_320:\n        /* \"#utility.yul\":2828:2945   */\n    tag_319:\n        /* \"#utility.yul\":2969:3032   */\n      tag_321\n        /* \"#utility.yul\":3024:3031   */\n      dup7\n        /* \"#utility.yul\":3015:3021   */\n      dup3\n        /* \"#utility.yul\":3004:3013   */\n      dup8\n        /* \"#utility.yul\":3000:3022   */\n      add\n        /* \"#utility.yul\":2969:3032   */\n      tag_289\n      jump\t// in\n    tag_321:\n        /* \"#utility.yul\":2959:3032   */\n      swap2\n      pop\n        /* \"#utility.yul\":2754:3042   */\n      pop\n        /* \"#utility.yul\":1890:3049   */\n      swap3\n      pop\n      swap3\n      pop\n      swap3\n      jump\t// out\n        /* \"#utility.yul\":3055:3384   */\n    tag_46:\n        /* \"#utility.yul\":3114:3120   */\n      0x00\n        /* \"#utility.yul\":3163:3165   */\n      0x20\n        /* \"#utility.yul\":3151:3160   */\n      dup3\n        /* \"#utility.yul\":3142:3149   */\n      dup5\n        /* \"#utility.yul\":3138:3161   */\n      sub\n        /* \"#utility.yul\":3134:3166   */\n      slt\n        /* \"#utility.yul\":3131:3250   */\n      iszero\n      tag_323\n      jumpi\n        /* \"#utility.yul\":3169:3248   */\n      tag_324\n      tag_302\n      jump\t// in\n    tag_324:\n        /* \"#utility.yul\":3131:3250   */\n    tag_323:\n        /* \"#utility.yul\":3289:3290   */\n      0x00\n        /* \"#utility.yul\":3314:3367   */\n      tag_325\n        /* \"#utility.yul\":3359:3366   */\n      dup5\n        /* \"#utility.yul\":3350:3356   */\n      dup3\n        /* \"#utility.yul\":3339:3348   */\n      dup6\n        /* \"#utility.yul\":3335:3357   */\n      add\n        /* \"#utility.yul\":3314:3367   */\n      tag_295\n      jump\t// in\n    tag_325:\n        /* \"#utility.yul\":3304:3367   */\n      swap2\n      pop\n        /* \"#utility.yul\":3260:3377   */\n      pop\n        /* \"#utility.yul\":3055:3384   */\n      swap3\n      swap2\n      pop\n      pop\n      jump\t// out\n        /* \"#utility.yul\":3390:3508   */\n    tag_326:\n        /* \"#utility.yul\":3477:3501   */\n      tag_328\n        /* \"#utility.yul\":3495:3500   */\n      dup2\n        /* \"#utility.yul\":3477:3501   */\n      tag_329\n      jump\t// in\n    tag_328:\n        /* \"#utility.yul\":3472:3475   */\n      dup3\n        /* \"#utility.yul\":3465:3502   */\n      mstore\n        /* \"#utility.yul\":3390:3508   */\n      pop\n      pop\n      jump\t// out\n        /* \"#utility.yul\":3514:3878   */\n    tag_330:\n        /* \"#utility.yul\":3602:3605   */\n      0x00\n        /* \"#utility.yul\":3630:3669   */\n      tag_332\n        /* \"#utility.yul\":3663:3668   */\n      dup3\n        /* \"#utility.yul\":3630:3669   */\n      tag_333\n      jump\t// in\n    tag_332:\n        /* \"#utility.yul\":3685:3756   */\n      tag_334\n        /* \"#utility.yul\":3749:3755   */\n      dup2\n        /* \"#utility.yul\":3744:3747   */\n      dup6\n        /* \"#utility.yul\":3685:3756   */\n      tag_335\n      jump\t// in\n    tag_334:\n        /* \"#utility.yul\":3678:3756   */\n      swap4\n      pop\n        /* \"#utility.yul\":3765:3817   */\n      tag_336\n        /* \"#utility.yul\":3810:3816   */\n      dup2\n        /* \"#utility.yul\":3805:3808   */\n      dup6\n        /* \"#utility.yul\":3798:3802   */\n      0x20\n        /* \"#utility.yul\":3791:3796   */\n      dup7\n        /* \"#utility.yul\":3787:3803   */\n      add\n        /* \"#utility.yul\":3765:3817   */\n      tag_337\n      jump\t// in\n    tag_336:\n        /* \"#utility.yul\":3842:3871   */\n      tag_338\n        /* \"#utility.yul\":3864:3870   */\n      dup2\n        /* \"#utility.yul\":3842:3871   */\n      tag_339\n      jump\t// in\n    tag_338:\n        /* \"#utility.yul\":3837:3840   */\n      dup5\n        /* \"#utility.yul\":3833:3872   */\n      add\n        /* \"#utility.yul\":3826:3872   */\n      swap2\n      pop\n        /* \"#utility.yul\":3606:3878   */\n      pop\n        /* \"#utility.yul\":3514:3878   */\n      swap3\n      swap2\n      pop\n      pop\n      jump\t// out\n        /* \"#utility.yul\":3908:4710   */\n    tag_340:\n        /* \"#utility.yul\":3993:3996   */\n      0x00\n        /* \"#utility.yul\":4030:4035   */\n      dup2\n        /* \"#utility.yul\":4024:4036   */\n      sload\n        /* \"#utility.yul\":4059:4095   */\n      tag_342\n        /* \"#utility.yul\":4085:4094   */\n      dup2\n        /* \"#utility.yul\":4059:4095   */\n      tag_203\n      jump\t// in\n    tag_342:\n        /* \"#utility.yul\":4111:4182   */\n      tag_343\n        /* \"#utility.yul\":4175:4181   */\n      dup2\n        /* \"#utility.yul\":4170:4173   */\n      dup7\n        /* \"#utility.yul\":4111:4182   */\n      tag_335\n      jump\t// in\n    tag_343:\n        /* \"#utility.yul\":4104:4182   */\n      swap5\n      pop\n        /* \"#utility.yul\":4213:4214   */\n      0x01\n        /* \"#utility.yul\":4202:4211   */\n      dup3\n        /* \"#utility.yul\":4198:4215   */\n      and\n        /* \"#utility.yul\":4229:4230   */\n      0x00\n        /* \"#utility.yul\":4224:4359   */\n      dup2\n      eq\n      tag_345\n      jumpi\n        /* \"#utility.yul\":4373:4374   */\n      0x01\n        /* \"#utility.yul\":4368:4704   */\n      dup2\n      eq\n      tag_346\n      jumpi\n        /* \"#utility.yul\":4191:4704   */\n      jump(tag_344)\n        /* \"#utility.yul\":4224:4359   */\n    tag_345:\n        /* \"#utility.yul\":4308:4312   */\n      0xff\n        /* \"#utility.yul\":4304:4313   */\n      not\n        /* \"#utility.yul\":4293:4302   */\n      dup4\n        /* \"#utility.yul\":4289:4314   */\n      and\n        /* \"#utility.yul\":4284:4287   */\n      dup7\n        /* \"#utility.yul\":4277:4315   */\n      mstore\n        /* \"#utility.yul\":4344:4348   */\n      0x20\n        /* \"#utility.yul\":4339:4342   */\n      dup7\n        /* \"#utility.yul\":4335:4349   */\n      add\n        /* \"#utility.yul\":4328:4349   */\n      swap4\n      pop\n        /* \"#utility.yul\":4224:4359   */\n      jump(tag_344)\n        /* \"#utility.yul\":4368:4704   */\n    tag_346:\n        /* \"#utility.yul\":4435:4473   */\n      tag_347\n        /* \"#utility.yul\":4467:4472   */\n      dup6\n        /* \"#utility.yul\":4435:4473   */\n      tag_348\n      jump\t// in\n    tag_347:\n        /* \"#utility.yul\":4495:4496   */\n      0x00\n        /* \"#utility.yul\":4509:4663   */\n    tag_349:\n        /* \"#utility.yul\":4523:4529   */\n      dup4\n        /* \"#utility.yul\":4520:4521   */\n      dup2\n        /* \"#utility.yul\":4517:4530   */\n      lt\n        /* \"#utility.yul\":4509:4663   */\n      iszero\n      tag_351\n      jumpi\n        /* \"#utility.yul\":4597:4604   */\n      dup2\n        /* \"#utility.yul\":4591:4605   */\n      sload\n        /* \"#utility.yul\":4587:4588   */\n      dup2\n        /* \"#utility.yul\":4582:4585   */\n      dup10\n        /* \"#utility.yul\":4578:4589   */\n      add\n        /* \"#utility.yul\":4571:4606   */\n      mstore\n        /* \"#utility.yul\":4647:4648   */\n      0x01\n        /* \"#utility.yul\":4638:4645   */\n      dup3\n        /* \"#utility.yul\":4634:4649   */\n      add\n        /* \"#utility.yul\":4623:4649   */\n      swap2\n      pop\n        /* \"#utility.yul\":4545:4549   */\n      0x20\n        /* \"#utility.yul\":4542:4543   */\n      dup2\n        /* \"#utility.yul\":4538:4550   */\n      add\n        /* \"#utility.yul\":4533:4550   */\n      swap1\n      pop\n        /* \"#utility.yul\":4509:4663   */\n      jump(tag_349)\n    tag_351:\n        /* \"#utility.yul\":4692:4693   */\n      dup1\n        /* \"#utility.yul\":4687:4690   */\n      dup9\n        /* \"#utility.yul\":4683:4694   */\n      add\n        /* \"#utility.yul\":4676:4694   */\n      swap6\n      pop\n        /* \"#utility.yul\":4375:4704   */\n      pop\n      pop\n        /* \"#utility.yul\":4191:4704   */\n    tag_344:\n      pop\n        /* \"#utility.yul\":3997:4710   */\n      pop\n      pop\n        /* \"#utility.yul\":3908:4710   */\n      swap3\n      swap2\n      pop\n      pop\n      jump\t// out\n        /* \"#utility.yul\":4716:5082   */\n    tag_352:\n        /* \"#utility.yul\":4858:4861   */\n      0x00\n        /* \"#utility.yul\":4879:4946   */\n      tag_354\n        /* \"#utility.yul\":4943:4945   */\n      0x28\n        /* \"#utility.yul\":4938:4941   */\n      dup4\n        /* \"#utility.yul\":4879:4946   */\n      tag_335\n      jump\t// in\n    tag_354:\n        /* \"#utility.yul\":4872:4946   */\n      swap2\n      pop\n        /* \"#utility.yul\":4955:5048   */\n      tag_355\n        /* \"#utility.yul\":5044:5047   */\n      dup3\n        /* \"#utility.yul\":4955:5048   */\n      tag_356\n      jump\t// in\n    tag_355:\n        /* \"#utility.yul\":5073:5075   */\n      0x40\n        /* \"#utility.yul\":5068:5071   */\n      dup3\n        /* \"#utility.yul\":5064:5076   */\n      add\n        /* \"#utility.yul\":5057:5076   */\n      swap1\n      pop\n        /* \"#utility.yul\":4716:5082   */\n      swap2\n      swap1\n      pop\n      jump\t// out\n        /* \"#utility.yul\":5088:5454   */\n    tag_357:\n        /* \"#utility.yul\":5230:5233   */\n      0x00\n        /* \"#utility.yul\":5251:5318   */\n      tag_359\n        /* \"#utility.yul\":5315:5317   */\n      0x26\n        /* \"#utility.yul\":5310:5313   */\n      dup4\n        /* \"#utility.yul\":5251:5318   */\n      tag_335\n      jump\t// in\n    tag_359:\n        /* \"#utility.yul\":5244:5318   */\n      swap2\n      pop\n        /* \"#utility.yul\":5327:5420   */\n      tag_360\n        /* \"#utility.yul\":5416:5419   */\n      dup3\n        /* \"#utility.yul\":5327:5420   */\n      tag_361\n      jump\t// in\n    tag_360:\n        /* \"#utility.yul\":5445:5447   */\n      0x40\n        /* \"#utility.yul\":5440:5443   */\n      dup3\n        /* \"#utility.yul\":5436:5448   */\n      add\n        /* \"#utility.yul\":5429:5448   */\n      swap1\n      pop\n        /* \"#utility.yul\":5088:5454   */\n      swap2\n      swap1\n      pop\n      jump\t// out\n        /* \"#utility.yul\":5460:5826   */\n    tag_362:\n        /* \"#utility.yul\":5602:5605   */\n      0x00\n        /* \"#utility.yul\":5623:5690   */\n      tag_364\n        /* \"#utility.yul\":5687:5689   */\n      0x0c\n        /* \"#utility.yul\":5682:5685   */\n      dup4\n        /* \"#utility.yul\":5623:5690   */\n      tag_335\n      jump\t// in\n    tag_364:\n        /* \"#utility.yul\":5616:5690   */\n      swap2\n      pop\n        /* \"#utility.yul\":5699:5792   */\n      tag_365\n        /* \"#utility.yul\":5788:5791   */\n      dup3\n        /* \"#utility.yul\":5699:5792   */\n      tag_366\n      jump\t// in\n    tag_365:\n        /* \"#utility.yul\":5817:5819   */\n      0x20\n        /* \"#utility.yul\":5812:5815   */\n      dup3\n        /* \"#utility.yul\":5808:5820   */\n      add\n        /* \"#utility.yul\":5801:5820   */\n      swap1\n      pop\n        /* \"#utility.yul\":5460:5826   */\n      swap2\n      swap1\n      pop\n      jump\t// out\n        /* \"#utility.yul\":5832:6198   */\n    tag_367:\n        /* \"#utility.yul\":5974:5977   */\n      0x00\n        /* \"#utility.yul\":5995:6062   */\n      tag_369\n        /* \"#utility.yul\":6059:6061   */\n      0x20\n        /* \"#utility.yul\":6054:6057   */\n      dup4\n        /* \"#utility.yul\":5995:6062   */\n      tag_335\n      jump\t// in\n    tag_369:\n        /* \"#utility.yul\":5988:6062   */\n      swap2\n      pop\n        /* \"#utility.yul\":6071:6164   */\n      tag_370\n        /* \"#utility.yul\":6160:6163   */\n      dup3\n        /* \"#utility.yul\":6071:6164   */\n      tag_371\n      jump\t// in\n    tag_370:\n        /* \"#utility.yul\":6189:6191   */\n      0x20\n        /* \"#utility.yul\":6184:6187   */\n      dup3\n        /* \"#utility.yul\":6180:6192   */\n      add\n        /* \"#utility.yul\":6173:6192   */\n      swap1\n      pop\n        /* \"#utility.yul\":5832:6198   */\n      swap2\n      swap1\n      pop\n      jump\t// out\n        /* \"#utility.yul\":6204:6570   */\n    tag_372:\n        /* \"#utility.yul\":6346:6349   */\n      0x00\n        /* \"#utility.yul\":6367:6434   */\n      tag_374\n        /* \"#utility.yul\":6431:6433   */\n      0x15\n        /* \"#utility.yul\":6426:6429   */\n      dup4\n        /* \"#utility.yul\":6367:6434   */\n      tag_335\n      jump\t// in\n    tag_374:\n        /* \"#utility.yul\":6360:6434   */\n      swap2\n      pop\n        /* \"#utility.yul\":6443:6536   */\n      tag_375\n        /* \"#utility.yul\":6532:6535   */\n      dup3\n        /* \"#utility.yul\":6443:6536   */\n      tag_376\n      jump\t// in\n    tag_375:\n        /* \"#utility.yul\":6561:6563   */\n      0x20\n        /* \"#utility.yul\":6556:6559   */\n      dup3\n        /* \"#utility.yul\":6552:6564   */\n      add\n        /* \"#utility.yul\":6545:6564   */\n      swap1\n      pop\n        /* \"#utility.yul\":6204:6570   */\n      swap2\n      swap1\n      pop\n      jump\t// out\n        /* \"#utility.yul\":6576:6694   */\n    tag_377:\n        /* \"#utility.yul\":6663:6687   */\n      tag_379\n        /* \"#utility.yul\":6681:6686   */\n      dup2\n        /* \"#utility.yul\":6663:6687   */\n      tag_380\n      jump\t// in\n    tag_379:\n        /* \"#utility.yul\":6658:6661   */\n      dup3\n        /* \"#utility.yul\":6651:6688   */\n      mstore\n        /* \"#utility.yul\":6576:6694   */\n      pop\n      pop\n      jump\t// out\n        /* \"#utility.yul\":6700:6857   */\n    tag_381:\n        /* \"#utility.yul\":6805:6850   */\n      tag_383\n        /* \"#utility.yul\":6825:6849   */\n      tag_384\n        /* \"#utility.yul\":6843:6848   */\n      dup3\n        /* \"#utility.yul\":6825:6849   */\n      tag_380\n      jump\t// in\n    tag_384:\n        /* \"#utility.yul\":6805:6850   */\n      tag_385\n      jump\t// in\n    tag_383:\n        /* \"#utility.yul\":6800:6803   */\n      dup3\n        /* \"#utility.yul\":6793:6851   */\n      mstore\n        /* \"#utility.yul\":6700:6857   */\n      pop\n      pop\n      jump\t// out\n        /* \"#utility.yul\":6863:6978   */\n    tag_386:\n        /* \"#utility.yul\":6948:6971   */\n      tag_388\n        /* \"#utility.yul\":6965:6970   */\n      dup2\n        /* \"#utility.yul\":6948:6971   */\n      tag_389\n      jump\t// in\n    tag_388:\n        /* \"#utility.yul\":6943:6946   */\n      dup3\n        /* \"#utility.yul\":6936:6972   */\n      mstore\n        /* \"#utility.yul\":6863:6978   */\n      pop\n      pop\n      jump\t// out\n        /* \"#utility.yul\":6984:7522   */\n    tag_151:\n        /* \"#utility.yul\":7152:7155   */\n      0x00\n        /* \"#utility.yul\":7167:7242   */\n      tag_391\n        /* \"#utility.yul\":7238:7241   */\n      dup3\n        /* \"#utility.yul\":7229:7235   */\n      dup7\n        /* \"#utility.yul\":7167:7242   */\n      tag_381\n      jump\t// in\n    tag_391:\n        /* \"#utility.yul\":7267:7269   */\n      0x20\n        /* \"#utility.yul\":7262:7265   */\n      dup3\n        /* \"#utility.yul\":7258:7270   */\n      add\n        /* \"#utility.yul\":7251:7270   */\n      swap2\n      pop\n        /* \"#utility.yul\":7280:7355   */\n      tag_392\n        /* \"#utility.yul\":7351:7354   */\n      dup3\n        /* \"#utility.yul\":7342:7348   */\n      dup6\n        /* \"#utility.yul\":7280:7355   */\n      tag_381\n      jump\t// in\n    tag_392:\n        /* \"#utility.yul\":7380:7382   */\n      0x20\n        /* \"#utility.yul\":7375:7378   */\n      dup3\n        /* \"#utility.yul\":7371:7383   */\n      add\n        /* \"#utility.yul\":7364:7383   */\n      swap2\n      pop\n        /* \"#utility.yul\":7393:7468   */\n      tag_393\n        /* \"#utility.yul\":7464:7467   */\n      dup3\n        /* \"#utility.yul\":7455:7461   */\n      dup5\n        /* \"#utility.yul\":7393:7468   */\n      tag_381\n      jump\t// in\n    tag_393:\n        /* \"#utility.yul\":7493:7495   */\n      0x20\n        /* \"#utility.yul\":7488:7491   */\n      dup3\n        /* \"#utility.yul\":7484:7496   */\n      add\n        /* \"#utility.yul\":7477:7496   */\n      swap2\n      pop\n        /* \"#utility.yul\":7513:7516   */\n      dup2\n        /* \"#utility.yul\":7506:7516   */\n      swap1\n      pop\n        /* \"#utility.yul\":6984:7522   */\n      swap5\n      swap4\n      pop\n      pop\n      pop\n      pop\n      jump\t// out\n        /* \"#utility.yul\":7528:7750   */\n    tag_49:\n        /* \"#utility.yul\":7621:7625   */\n      0x00\n        /* \"#utility.yul\":7659:7661   */\n      0x20\n        /* \"#utility.yul\":7648:7657   */\n      dup3\n        /* \"#utility.yul\":7644:7662   */\n      add\n        /* \"#utility.yul\":7636:7662   */\n      swap1\n      pop\n        /* \"#utility.yul\":7672:7743   */\n      tag_395\n        /* \"#utility.yul\":7740:7741   */\n      0x00\n        /* \"#utility.yul\":7729:7738   */\n      dup4\n        /* \"#utility.yul\":7725:7742   */\n      add\n        /* \"#utility.yul\":7716:7722   */\n      dup5\n        /* \"#utility.yul\":7672:7743   */\n      tag_326\n      jump\t// in\n    tag_395:\n        /* \"#utility.yul\":7528:7750   */\n      swap3\n      swap2\n      pop\n      pop\n      jump\t// out\n        /* \"#utility.yul\":7756:9022   */\n    tag_93:\n        /* \"#utility.yul\":8103:8107   */\n      0x00\n        /* \"#utility.yul\":8141:8144   */\n      0x0100\n        /* \"#utility.yul\":8130:8139   */\n      dup3\n        /* \"#utility.yul\":8126:8145   */\n      add\n        /* \"#utility.yul\":8118:8145   */\n      swap1\n      pop\n        /* \"#utility.yul\":8155:8226   */\n      tag_397\n        /* \"#utility.yul\":8223:8224   */\n      0x00\n        /* \"#utility.yul\":8212:8221   */\n      dup4\n        /* \"#utility.yul\":8208:8225   */\n      add\n        /* \"#utility.yul\":8199:8205   */\n      dup12\n        /* \"#utility.yul\":8155:8226   */\n      tag_326\n      jump\t// in\n    tag_397:\n        /* \"#utility.yul\":8273:8282   */\n      dup2\n        /* \"#utility.yul\":8267:8271   */\n      dup2\n        /* \"#utility.yul\":8263:8283   */\n      sub\n        /* \"#utility.yul\":8258:8260   */\n      0x20\n        /* \"#utility.yul\":8247:8256   */\n      dup4\n        /* \"#utility.yul\":8243:8261   */\n      add\n        /* \"#utility.yul\":8236:8284   */\n      mstore\n        /* \"#utility.yul\":8301:8379   */\n      tag_398\n        /* \"#utility.yul\":8374:8378   */\n      dup2\n        /* \"#utility.yul\":8365:8371   */\n      dup11\n        /* \"#utility.yul\":8301:8379   */\n      tag_330\n      jump\t// in\n    tag_398:\n        /* \"#utility.yul\":8293:8379   */\n      swap1\n      pop\n        /* \"#utility.yul\":8426:8435   */\n      dup2\n        /* \"#utility.yul\":8420:8424   */\n      dup2\n        /* \"#utility.yul\":8416:8436   */\n      sub\n        /* \"#utility.yul\":8411:8413   */\n      0x40\n        /* \"#utility.yul\":8400:8409   */\n      dup4\n        /* \"#utility.yul\":8396:8414   */\n      add\n        /* \"#utility.yul\":8389:8437   */\n      mstore\n        /* \"#utility.yul\":8454:8532   */\n      tag_399\n        /* \"#utility.yul\":8527:8531   */\n      dup2\n        /* \"#utility.yul\":8518:8524   */\n      dup10\n        /* \"#utility.yul\":8454:8532   */\n      tag_330\n      jump\t// in\n    tag_399:\n        /* \"#utility.yul\":8446:8532   */\n      swap1\n      pop\n        /* \"#utility.yul\":8579:8588   */\n      dup2\n        /* \"#utility.yul\":8573:8577   */\n      dup2\n        /* \"#utility.yul\":8569:8589   */\n      sub\n        /* \"#utility.yul\":8564:8566   */\n      0x60\n        /* \"#utility.yul\":8553:8562   */\n      dup4\n        /* \"#utility.yul\":8549:8567   */\n      add\n        /* \"#utility.yul\":8542:8590   */\n      mstore\n        /* \"#utility.yul\":8607:8685   */\n      tag_400\n        /* \"#utility.yul\":8680:8684   */\n      dup2\n        /* \"#utility.yul\":8671:8677   */\n      dup9\n        /* \"#utility.yul\":8607:8685   */\n      tag_330\n      jump\t// in\n    tag_400:\n        /* \"#utility.yul\":8599:8685   */\n      swap1\n      pop\n        /* \"#utility.yul\":8695:8768   */\n      tag_401\n        /* \"#utility.yul\":8763:8766   */\n      0x80\n        /* \"#utility.yul\":8752:8761   */\n      dup4\n        /* \"#utility.yul\":8748:8767   */\n      add\n        /* \"#utility.yul\":8739:8745   */\n      dup8\n        /* \"#utility.yul\":8695:8768   */\n      tag_377\n      jump\t// in\n    tag_401:\n        /* \"#utility.yul\":8778:8851   */\n      tag_402\n        /* \"#utility.yul\":8846:8849   */\n      0xa0\n        /* \"#utility.yul\":8835:8844   */\n      dup4\n        /* \"#utility.yul\":8831:8850   */\n      add\n        /* \"#utility.yul\":8822:8828   */\n      dup7\n        /* \"#utility.yul\":8778:8851   */\n      tag_377\n      jump\t// in\n    tag_402:\n        /* \"#utility.yul\":8861:8934   */\n      tag_403\n        /* \"#utility.yul\":8929:8932   */\n      0xc0\n        /* \"#utility.yul\":8918:8927   */\n      dup4\n        /* \"#utility.yul\":8914:8933   */\n      add\n        /* \"#utility.yul\":8905:8911   */\n      dup6\n        /* \"#utility.yul\":8861:8934   */\n      tag_377\n      jump\t// in\n    tag_403:\n        /* \"#utility.yul\":8944:9015   */\n      tag_404\n        /* \"#utility.yul\":9010:9013   */\n      0xe0\n        /* \"#utility.yul\":8999:9008   */\n      dup4\n        /* \"#utility.yul\":8995:9014   */\n      add\n        /* \"#utility.yul\":8986:8992   */\n      dup5\n        /* \"#utility.yul\":8944:9015   */\n      tag_386\n      jump\t// in\n    tag_404:\n        /* \"#utility.yul\":7756:9022   */\n      swap10\n      swap9\n      pop\n      pop\n      pop\n      pop\n      pop\n      pop\n      pop\n      pop\n      pop\n      jump\t// out\n        /* \"#utility.yul\":9028:9341   */\n    tag_54:\n        /* \"#utility.yul\":9141:9145   */\n      0x00\n        /* \"#utility.yul\":9179:9181   */\n      0x20\n        /* \"#utility.yul\":9168:9177   */\n      dup3\n        /* \"#utility.yul\":9164:9182   */\n      add\n        /* \"#utility.yul\":9156:9182   */\n      swap1\n      pop\n        /* \"#utility.yul\":9228:9237   */\n      dup2\n        /* \"#utility.yul\":9222:9226   */\n      dup2\n        /* \"#utility.yul\":9218:9238   */\n      sub\n        /* \"#utility.yul\":9214:9215   */\n      0x00\n        /* \"#utility.yul\":9203:9212   */\n      dup4\n        /* \"#utility.yul\":9199:9216   */\n      add\n        /* \"#utility.yul\":9192:9239   */\n      mstore\n        /* \"#utility.yul\":9256:9334   */\n      tag_406\n        /* \"#utility.yul\":9329:9333   */\n      dup2\n        /* \"#utility.yul\":9320:9326   */\n      dup5\n        /* \"#utility.yul\":9256:9334   */\n      tag_330\n      jump\t// in\n    tag_406:\n        /* \"#utility.yul\":9248:9334   */\n      swap1\n      pop\n        /* \"#utility.yul\":9028:9341   */\n      swap3\n      swap2\n      pop\n      pop\n      jump\t// out\n        /* \"#utility.yul\":9347:10066   */\n    tag_239:\n        /* \"#utility.yul\":9556:9560   */\n      0x00\n        /* \"#utility.yul\":9594:9597   */\n      0x80\n        /* \"#utility.yul\":9583:9592   */\n      dup3\n        /* \"#utility.yul\":9579:9598   */\n      add\n        /* \"#utility.yul\":9571:9598   */\n      swap1\n      pop\n        /* \"#utility.yul\":9644:9653   */\n      dup2\n        /* \"#utility.yul\":9638:9642   */\n      dup2\n        /* \"#utility.yul\":9634:9654   */\n      sub\n        /* \"#utility.yul\":9630:9631   */\n      0x00\n        /* \"#utility.yul\":9619:9628   */\n      dup4\n        /* \"#utility.yul\":9615:9632   */\n      add\n        /* \"#utility.yul\":9608:9655   */\n      mstore\n        /* \"#utility.yul\":9672:9747   */\n      tag_408\n        /* \"#utility.yul\":9742:9746   */\n      dup2\n        /* \"#utility.yul\":9733:9739   */\n      dup8\n        /* \"#utility.yul\":9672:9747   */\n      tag_340\n      jump\t// in\n    tag_408:\n        /* \"#utility.yul\":9664:9747   */\n      swap1\n      pop\n        /* \"#utility.yul\":9794:9803   */\n      dup2\n        /* \"#utility.yul\":9788:9792   */\n      dup2\n        /* \"#utility.yul\":9784:9804   */\n      sub\n        /* \"#utility.yul\":9779:9781   */\n      0x20\n        /* \"#utility.yul\":9768:9777   */\n      dup4\n        /* \"#utility.yul\":9764:9782   */\n      add\n        /* \"#utility.yul\":9757:9805   */\n      mstore\n        /* \"#utility.yul\":9822:9897   */\n      tag_409\n        /* \"#utility.yul\":9892:9896   */\n      dup2\n        /* \"#utility.yul\":9883:9889   */\n      dup7\n        /* \"#utility.yul\":9822:9897   */\n      tag_340\n      jump\t// in\n    tag_409:\n        /* \"#utility.yul\":9814:9897   */\n      swap1\n      pop\n        /* \"#utility.yul\":9907:9977   */\n      tag_410\n        /* \"#utility.yul\":9973:9975   */\n      0x40\n        /* \"#utility.yul\":9962:9971   */\n      dup4\n        /* \"#utility.yul\":9958:9976   */\n      add\n        /* \"#utility.yul\":9949:9955   */\n      dup6\n        /* \"#utility.yul\":9907:9977   */\n      tag_386\n      jump\t// in\n    tag_410:\n        /* \"#utility.yul\":9987:10059   */\n      tag_411\n        /* \"#utility.yul\":10055:10057   */\n      0x60\n        /* \"#utility.yul\":10044:10053   */\n      dup4\n        /* \"#utility.yul\":10040:10058   */\n      add\n        /* \"#utility.yul\":10031:10037   */\n      dup5\n        /* \"#utility.yul\":9987:10059   */\n      tag_377\n      jump\t// in\n    tag_411:\n        /* \"#utility.yul\":9347:10066   */\n      swap6\n      swap5\n      pop\n      pop\n      pop\n      pop\n      pop\n      jump\t// out\n        /* \"#utility.yul\":10072:10491   */\n    tag_116:\n        /* \"#utility.yul\":10238:10242   */\n      0x00\n        /* \"#utility.yul\":10276:10278   */\n      0x20\n        /* \"#utility.yul\":10265:10274   */\n      dup3\n        /* \"#utility.yul\":10261:10279   */\n      add\n        /* \"#utility.yul\":10253:10279   */\n      swap1\n      pop\n        /* \"#utility.yul\":10325:10334   */\n      dup2\n        /* \"#utility.yul\":10319:10323   */\n      dup2\n        /* \"#utility.yul\":10315:10335   */\n      sub\n        /* \"#utility.yul\":10311:10312   */\n      0x00\n        /* \"#utility.yul\":10300:10309   */\n      dup4\n        /* \"#utility.yul\":10296:10313   */\n      add\n        /* \"#utility.yul\":10289:10336   */\n      mstore\n        /* \"#utility.yul\":10353:10484   */\n      tag_413\n        /* \"#utility.yul\":10479:10483   */\n      dup2\n        /* \"#utility.yul\":10353:10484   */\n      tag_352\n      jump\t// in\n    tag_413:\n        /* \"#utility.yul\":10345:10484   */\n      swap1\n      pop\n        /* \"#utility.yul\":10072:10491   */\n      swap2\n      swap1\n      pop\n      jump\t// out\n        /* \"#utility.yul\":10497:10916   */\n    tag_249:\n        /* \"#utility.yul\":10663:10667   */\n      0x00\n        /* \"#utility.yul\":10701:10703   */\n      0x20\n        /* \"#utility.yul\":10690:10699   */\n      dup3\n        /* \"#utility.yul\":10686:10704   */\n      add\n        /* \"#utility.yul\":10678:10704   */\n      swap1\n      pop\n        /* \"#utility.yul\":10750:10759   */\n      dup2\n        /* \"#utility.yul\":10744:10748   */\n      dup2\n        /* \"#utility.yul\":10740:10760   */\n      sub\n        /* \"#utility.yul\":10736:10737   */\n      0x00\n        /* \"#utility.yul\":10725:10734   */\n      dup4\n        /* \"#utility.yul\":10721:10738   */\n      add\n        /* \"#utility.yul\":10714:10761   */\n      mstore\n        /* \"#utility.yul\":10778:10909   */\n      tag_415\n        /* \"#utility.yul\":10904:10908   */\n      dup2\n        /* \"#utility.yul\":10778:10909   */\n      tag_357\n      jump\t// in\n    tag_415:\n        /* \"#utility.yul\":10770:10909   */\n      swap1\n      pop\n        /* \"#utility.yul\":10497:10916   */\n      swap2\n      swap1\n      pop\n      jump\t// out\n        /* \"#utility.yul\":10922:11451   */\n    tag_259:\n        /* \"#utility.yul\":11116:11120   */\n      0x00\n        /* \"#utility.yul\":11154:11156   */\n      0x40\n        /* \"#utility.yul\":11143:11152   */\n      dup3\n        /* \"#utility.yul\":11139:11157   */\n      add\n        /* \"#utility.yul\":11131:11157   */\n      swap1\n      pop\n        /* \"#utility.yul\":11203:11212   */\n      dup2\n        /* \"#utility.yul\":11197:11201   */\n      dup2\n        /* \"#utility.yul\":11193:11213   */\n      sub\n        /* \"#utility.yul\":11189:11190   */\n      0x00\n        /* \"#utility.yul\":11178:11187   */\n      dup4\n        /* \"#utility.yul\":11174:11191   */\n      add\n        /* \"#utility.yul\":11167:11214   */\n      mstore\n        /* \"#utility.yul\":11231:11362   */\n      tag_417\n        /* \"#utility.yul\":11357:11361   */\n      dup2\n        /* \"#utility.yul\":11231:11362   */\n      tag_362\n      jump\t// in\n    tag_417:\n        /* \"#utility.yul\":11223:11362   */\n      swap1\n      pop\n        /* \"#utility.yul\":11372:11444   */\n      tag_418\n        /* \"#utility.yul\":11440:11442   */\n      0x20\n        /* \"#utility.yul\":11429:11438   */\n      dup4\n        /* \"#utility.yul\":11425:11443   */\n      add\n        /* \"#utility.yul\":11416:11422   */\n      dup5\n        /* \"#utility.yul\":11372:11444   */\n      tag_377\n      jump\t// in\n    tag_418:\n        /* \"#utility.yul\":10922:11451   */\n      swap3\n      swap2\n      pop\n      pop\n      jump\t// out\n        /* \"#utility.yul\":11457:11876   */\n    tag_109:\n        /* \"#utility.yul\":11623:11627   */\n      0x00\n        /* \"#utility.yul\":11661:11663   */\n      0x20\n        /* \"#utility.yul\":11650:11659   */\n      dup3\n        /* \"#utility.yul\":11646:11664   */\n      add\n        /* \"#utility.yul\":11638:11664   */\n      swap1\n      pop\n        /* \"#utility.yul\":11710:11719   */\n      dup2\n        /* \"#utility.yul\":11704:11708   */\n      dup2\n        /* \"#utility.yul\":11700:11720   */\n      sub\n        /* \"#utility.yul\":11696:11697   */\n      0x00\n        /* \"#utility.yul\":11685:11694   */\n      dup4\n        /* \"#utility.yul\":11681:11698   */\n      add\n        /* \"#utility.yul\":11674:11721   */\n      mstore\n        /* \"#utility.yul\":11738:11869   */\n      tag_420\n        /* \"#utility.yul\":11864:11868   */\n      dup2\n        /* \"#utility.yul\":11738:11869   */\n      tag_367\n      jump\t// in\n    tag_420:\n        /* \"#utility.yul\":11730:11869   */\n      swap1\n      pop\n        /* \"#utility.yul\":11457:11876   */\n      swap2\n      swap1\n      pop\n      jump\t// out\n        /* \"#utility.yul\":11882:12411   */\n    tag_177:\n        /* \"#utility.yul\":12076:12080   */\n      0x00\n        /* \"#utility.yul\":12114:12116   */\n      0x40\n        /* \"#utility.yul\":12103:12112   */\n      dup3\n        /* \"#utility.yul\":12099:12117   */\n      add\n        /* \"#utility.yul\":12091:12117   */\n      swap1\n      pop\n        /* \"#utility.yul\":12163:12172   */\n      dup2\n        /* \"#utility.yul\":12157:12161   */\n      dup2\n        /* \"#utility.yul\":12153:12173   */\n      sub\n        /* \"#utility.yul\":12149:12150   */\n      0x00\n        /* \"#utility.yul\":12138:12147   */\n      dup4\n        /* \"#utility.yul\":12134:12151   */\n      add\n        /* \"#utility.yul\":12127:12174   */\n      mstore\n        /* \"#utility.yul\":12191:12322   */\n      tag_422\n        /* \"#utility.yul\":12317:12321   */\n      dup2\n        /* \"#utility.yul\":12191:12322   */\n      tag_372\n      jump\t// in\n    tag_422:\n        /* \"#utility.yul\":12183:12322   */\n      swap1\n      pop\n        /* \"#utility.yul\":12332:12404   */\n      tag_423\n        /* \"#utility.yul\":12400:12402   */\n      0x20\n        /* \"#utility.yul\":12389:12398   */\n      dup4\n        /* \"#utility.yul\":12385:12403   */\n      add\n        /* \"#utility.yul\":12376:12382   */\n      dup5\n        /* \"#utility.yul\":12332:12404   */\n      tag_377\n      jump\t// in\n    tag_423:\n        /* \"#utility.yul\":11882:12411   */\n      swap3\n      swap2\n      pop\n      pop\n      jump\t// out\n        /* \"#utility.yul\":12417:12639   */\n    tag_36:\n        /* \"#utility.yul\":12510:12514   */\n      0x00\n        /* \"#utility.yul\":12548:12550   */\n      0x20\n        /* \"#utility.yul\":12537:12546   */\n      dup3\n        /* \"#utility.yul\":12533:12551   */\n      add\n        /* \"#utility.yul\":12525:12551   */\n      swap1\n      pop\n        /* \"#utility.yul\":12561:12632   */\n      tag_425\n        /* \"#utility.yul\":12629:12630   */\n      0x00\n        /* \"#utility.yul\":12618:12627   */\n      dup4\n        /* \"#utility.yul\":12614:12631   */\n      add\n        /* \"#utility.yul\":12605:12611   */\n      dup5\n        /* \"#utility.yul\":12561:12632   */\n      tag_377\n      jump\t// in\n    tag_425:\n        /* \"#utility.yul\":12417:12639   */\n      swap3\n      swap2\n      pop\n      pop\n      jump\t// out\n        /* \"#utility.yul\":12645:12774   */\n    tag_279:\n        /* \"#utility.yul\":12679:12685   */\n      0x00\n        /* \"#utility.yul\":12706:12726   */\n      tag_427\n      tag_428\n      jump\t// in\n    tag_427:\n        /* \"#utility.yul\":12696:12726   */\n      swap1\n      pop\n        /* \"#utility.yul\":12735:12768   */\n      tag_429\n        /* \"#utility.yul\":12763:12767   */\n      dup3\n        /* \"#utility.yul\":12755:12761   */\n      dup3\n        /* \"#utility.yul\":12735:12768   */\n      tag_430\n      jump\t// in\n    tag_429:\n        /* \"#utility.yul\":12645:12774   */\n      swap2\n      swap1\n      pop\n      jump\t// out\n        /* \"#utility.yul\":12780:12855   */\n    tag_428:\n        /* \"#utility.yul\":12813:12819   */\n      0x00\n        /* \"#utility.yul\":12846:12848   */\n      0x40\n        /* \"#utility.yul\":12840:12849   */\n      mload\n        /* \"#utility.yul\":12830:12849   */\n      swap1\n      pop\n        /* \"#utility.yul\":12780:12855   */\n      swap1\n      jump\t// out\n        /* \"#utility.yul\":12861:13169   */\n    tag_278:\n        /* \"#utility.yul\":12923:12927   */\n      0x00\n        /* \"#utility.yul\":13013:13031   */\n      0xffffffffffffffff\n        /* \"#utility.yul\":13005:13011   */\n      dup3\n        /* \"#utility.yul\":13002:13032   */\n      gt\n        /* \"#utility.yul\":12999:13055   */\n      iszero\n      tag_433\n      jumpi\n        /* \"#utility.yul\":13035:13053   */\n      tag_434\n      tag_435\n      jump\t// in\n    tag_434:\n        /* \"#utility.yul\":12999:13055   */\n    tag_433:\n        /* \"#utility.yul\":13073:13102   */\n      tag_436\n        /* \"#utility.yul\":13095:13101   */\n      dup3\n        /* \"#utility.yul\":13073:13102   */\n      tag_339\n      jump\t// in\n    tag_436:\n        /* \"#utility.yul\":13065:13102   */\n      swap1\n      pop\n        /* \"#utility.yul\":13157:13161   */\n      0x20\n        /* \"#utility.yul\":13151:13155   */\n      dup2\n        /* \"#utility.yul\":13147:13162   */\n      add\n        /* \"#utility.yul\":13139:13162   */\n      swap1\n      pop\n        /* \"#utility.yul\":12861:13169   */\n      swap2\n      swap1\n      pop\n      jump\t// out\n        /* \"#utility.yul\":13175:13316   */\n    tag_348:\n        /* \"#utility.yul\":13224:13228   */\n      0x00\n        /* \"#utility.yul\":13247:13250   */\n      dup2\n        /* \"#utility.yul\":13239:13250   */\n      swap1\n      pop\n        /* \"#utility.yul\":13270:13273   */\n      dup2\n        /* \"#utility.yul\":13267:13268   */\n      0x00\n        /* \"#utility.yul\":13260:13274   */\n      mstore\n        /* \"#utility.yul\":13304:13308   */\n      0x20\n        /* \"#utility.yul\":13301:13302   */\n      0x00\n        /* \"#utility.yul\":13291:13309   */\n      keccak256\n        /* \"#utility.yul\":13283:13309   */\n      swap1\n      pop\n        /* \"#utility.yul\":13175:13316   */\n      swap2\n      swap1\n      pop\n      jump\t// out\n        /* \"#utility.yul\":13322:13421   */\n    tag_333:\n        /* \"#utility.yul\":13374:13380   */\n      0x00\n        /* \"#utility.yul\":13408:13413   */\n      dup2\n        /* \"#utility.yul\":13402:13414   */\n      mload\n        /* \"#utility.yul\":13392:13414   */\n      swap1\n      pop\n        /* \"#utility.yul\":13322:13421   */\n      swap2\n      swap1\n      pop\n      jump\t// out\n        /* \"#utility.yul\":13427:13596   */\n    tag_335:\n        /* \"#utility.yul\":13511:13522   */\n      0x00\n        /* \"#utility.yul\":13545:13551   */\n      dup3\n        /* \"#utility.yul\":13540:13543   */\n      dup3\n        /* \"#utility.yul\":13533:13552   */\n      mstore\n        /* \"#utility.yul\":13585:13589   */\n      0x20\n        /* \"#utility.yul\":13580:13583   */\n      dup3\n        /* \"#utility.yul\":13576:13590   */\n      add\n        /* \"#utility.yul\":13561:13590   */\n      swap1\n      pop\n        /* \"#utility.yul\":13427:13596   */\n      swap3\n      swap2\n      pop\n      pop\n      jump\t// out\n        /* \"#utility.yul\":13602:13907   */\n    tag_119:\n        /* \"#utility.yul\":13642:13645   */\n      0x00\n        /* \"#utility.yul\":13661:13681   */\n      tag_441\n        /* \"#utility.yul\":13679:13680   */\n      dup3\n        /* \"#utility.yul\":13661:13681   */\n      tag_380\n      jump\t// in\n    tag_441:\n        /* \"#utility.yul\":13656:13681   */\n      swap2\n      pop\n        /* \"#utility.yul\":13695:13715   */\n      tag_442\n        /* \"#utility.yul\":13713:13714   */\n      dup4\n        /* \"#utility.yul\":13695:13715   */\n      tag_380\n      jump\t// in\n    tag_442:\n        /* \"#utility.yul\":13690:13715   */\n      swap3\n      pop\n        /* \"#utility.yul\":13849:13850   */\n      dup3\n        /* \"#utility.yul\":13781:13847   */\n      0xffffffffffffffffffffffffffffffffffffffffffffffffffffffffffffffff\n        /* \"#utility.yul\":13777:13851   */\n      sub\n        /* \"#utility.yul\":13774:13775   */\n      dup3\n        /* \"#utility.yul\":13771:13852   */\n      gt\n        /* \"#utility.yul\":13768:13875   */\n      iszero\n      tag_443\n      jumpi\n        /* \"#utility.yul\":13855:13873   */\n      tag_444\n      tag_445\n      jump\t// in\n    tag_444:\n        /* \"#utility.yul\":13768:13875   */\n    tag_443:\n        /* \"#utility.yul\":13899:13900   */\n      dup3\n        /* \"#utility.yul\":13896:13897   */\n      dup3\n        /* \"#utility.yul\":13892:13901   */\n      add\n        /* \"#utility.yul\":13885:13901   */\n      swap1\n      pop\n        /* \"#utility.yul\":13602:13907   */\n      swap3\n      swap2\n      pop\n      pop\n      jump\t// out\n        /* \"#utility.yul\":13913:14261   */\n    tag_254:\n        /* \"#utility.yul\":13953:13960   */\n      0x00\n        /* \"#utility.yul\":13976:13996   */\n      tag_447\n        /* \"#utility.yul\":13994:13995   */\n      dup3\n        /* \"#utility.yul\":13976:13996   */\n      tag_380\n      jump\t// in\n    tag_447:\n        /* \"#utility.yul\":13971:13996   */\n      swap2\n      pop\n        /* \"#utility.yul\":14010:14030   */\n      tag_448\n        /* \"#utility.yul\":14028:14029   */\n      dup4\n        /* \"#utility.yul\":14010:14030   */\n      tag_380\n      jump\t// in\n    tag_448:\n        /* \"#utility.yul\":14005:14030   */\n      swap3\n      pop\n        /* \"#utility.yul\":14198:14199   */\n      dup2\n        /* \"#utility.yul\":14130:14196   */\n      0xffffffffffffffffffffffffffffffffffffffffffffffffffffffffffffffff\n        /* \"#utility.yul\":14126:14200   */\n      div\n        /* \"#utility.yul\":14123:14124   */\n      dup4\n        /* \"#utility.yul\":14120:14201   */\n      gt\n        /* \"#utility.yul\":14115:14116   */\n      dup3\n        /* \"#utility.yul\":14108:14117   */\n      iszero\n        /* \"#utility.yul\":14101:14118   */\n      iszero\n        /* \"#utility.yul\":14097:14202   */\n      and\n        /* \"#utility.yul\":14094:14225   */\n      iszero\n      tag_449\n      jumpi\n        /* \"#utility.yul\":14205:14223   */\n      tag_450\n      tag_445\n      jump\t// in\n    tag_450:\n        /* \"#utility.yul\":14094:14225   */\n    tag_449:\n        /* \"#utility.yul\":14253:14254   */\n      dup3\n        /* \"#utility.yul\":14250:14251   */\n      dup3\n        /* \"#utility.yul\":14246:14255   */\n      mul\n        /* \"#utility.yul\":14235:14255   */\n      swap1\n      pop\n        /* \"#utility.yul\":13913:14261   */\n      swap3\n      swap2\n      pop\n      pop\n      jump\t// out\n        /* \"#utility.yul\":14267:14458   */\n    tag_129:\n        /* \"#utility.yul\":14307:14311   */\n      0x00\n        /* \"#utility.yul\":14327:14347   */\n      tag_452\n        /* \"#utility.yul\":14345:14346   */\n      dup3\n        /* \"#utility.yul\":14327:14347   */\n      tag_380\n      jump\t// in\n    tag_452:\n        /* \"#utility.yul\":14322:14347   */\n      swap2\n      pop\n        /* \"#utility.yul\":14361:14381   */\n      tag_453\n        /* \"#utility.yul\":14379:14380   */\n      dup4\n        /* \"#utility.yul\":14361:14381   */\n      tag_380\n      jump\t// in\n    tag_453:\n        /* \"#utility.yul\":14356:14381   */\n      swap3\n      pop\n        /* \"#utility.yul\":14400:14401   */\n      dup3\n        /* \"#utility.yul\":14397:14398   */\n      dup3\n        /* \"#utility.yul\":14394:14402   */\n      lt\n        /* \"#utility.yul\":14391:14425   */\n      iszero\n      tag_454\n      jumpi\n        /* \"#utility.yul\":14405:14423   */\n      tag_455\n      tag_445\n      jump\t// in\n    tag_455:\n        /* \"#utility.yul\":14391:14425   */\n    tag_454:\n        /* \"#utility.yul\":14450:14451   */\n      dup3\n        /* \"#utility.yul\":14447:14448   */\n      dup3\n        /* \"#utility.yul\":14443:14452   */\n      sub\n        /* \"#utility.yul\":14435:14452   */\n      swap1\n      pop\n        /* \"#utility.yul\":14267:14458   */\n      swap3\n      swap2\n      pop\n      pop\n      jump\t// out\n        /* \"#utility.yul\":14464:14560   */\n    tag_329:\n        /* \"#utility.yul\":14501:14508   */\n      0x00\n        /* \"#utility.yul\":14530:14554   */\n      tag_457\n        /* \"#utility.yul\":14548:14553   */\n      dup3\n        /* \"#utility.yul\":14530:14554   */\n      tag_458\n      jump\t// in\n    tag_457:\n        /* \"#utility.yul\":14519:14554   */\n      swap1\n      pop\n        /* \"#utility.yul\":14464:14560   */\n      swap2\n      swap1\n      pop\n      jump\t// out\n        /* \"#utility.yul\":14566:14692   */\n    tag_458:\n        /* \"#utility.yul\":14603:14610   */\n      0x00\n        /* \"#utility.yul\":14643:14685   */\n      0xffffffffffffffffffffffffffffffffffffffff\n        /* \"#utility.yul\":14636:14641   */\n      dup3\n        /* \"#utility.yul\":14632:14686   */\n      and\n        /* \"#utility.yul\":14621:14686   */\n      swap1\n      pop\n        /* \"#utility.yul\":14566:14692   */\n      swap2\n      swap1\n      pop\n      jump\t// out\n        /* \"#utility.yul\":14698:14775   */\n    tag_380:\n        /* \"#utility.yul\":14735:14742   */\n      0x00\n        /* \"#utility.yul\":14764:14769   */\n      dup2\n        /* \"#utility.yul\":14753:14769   */\n      swap1\n      pop\n        /* \"#utility.yul\":14698:14775   */\n      swap2\n      swap1\n      pop\n      jump\t// out\n        /* \"#utility.yul\":14781:14874   */\n    tag_389:\n        /* \"#utility.yul\":14817:14824   */\n      0x00\n        /* \"#utility.yul\":14857:14867   */\n      0xffffffff\n        /* \"#utility.yul\":14850:14855   */\n      dup3\n        /* \"#utility.yul\":14846:14868   */\n      and\n        /* \"#utility.yul\":14835:14868   */\n      swap1\n      pop\n        /* \"#utility.yul\":14781:14874   */\n      swap2\n      swap1\n      pop\n      jump\t// out\n        /* \"#utility.yul\":14880:15034   */\n    tag_284:\n        /* \"#utility.yul\":14964:14970   */\n      dup3\n        /* \"#utility.yul\":14959:14962   */\n      dup2\n        /* \"#utility.yul\":14954:14957   */\n      dup4\n        /* \"#utility.yul\":14941:14971   */\n      calldatacopy\n        /* \"#utility.yul\":15026:15027   */\n      0x00\n        /* \"#utility.yul\":15017:15023   */\n      dup4\n        /* \"#utility.yul\":15012:15015   */\n      dup4\n        /* \"#utility.yul\":15008:15024   */\n      add\n        /* \"#utility.yul\":15001:15028   */\n      mstore\n        /* \"#utility.yul\":14880:15034   */\n      pop\n      pop\n      pop\n      jump\t// out\n        /* \"#utility.yul\":15040:15347   */\n    tag_337:\n        /* \"#utility.yul\":15108:15109   */\n      0x00\n        /* \"#utility.yul\":15118:15231   */\n    tag_464:\n        /* \"#utility.yul\":15132:15138   */\n      dup4\n        /* \"#utility.yul\":15129:15130   */\n      dup2\n        /* \"#utility.yul\":15126:15139   */\n      lt\n        /* \"#utility.yul\":15118:15231   */\n      iszero\n      tag_466\n      jumpi\n        /* \"#utility.yul\":15217:15218   */\n      dup1\n        /* \"#utility.yul\":15212:15215   */\n      dup3\n        /* \"#utility.yul\":15208:15219   */\n      add\n        /* \"#utility.yul\":15202:15220   */\n      mload\n        /* \"#utility.yul\":15198:15199   */\n      dup2\n        /* \"#utility.yul\":15193:15196   */\n      dup5\n        /* \"#utility.yul\":15189:15200   */\n      add\n        /* \"#utility.yul\":15182:15221   */\n      mstore\n        /* \"#utility.yul\":15154:15156   */\n      0x20\n        /* \"#utility.yul\":15151:15152   */\n      dup2\n        /* \"#utility.yul\":15147:15157   */\n      add\n        /* \"#utility.yul\":15142:15157   */\n      swap1\n      pop\n        /* \"#utility.yul\":15118:15231   */\n      jump(tag_464)\n    tag_466:\n        /* \"#utility.yul\":15249:15255   */\n      dup4\n        /* \"#utility.yul\":15246:15247   */\n      dup2\n        /* \"#utility.yul\":15243:15256   */\n      gt\n        /* \"#utility.yul\":15240:15341   */\n      iszero\n      tag_467\n      jumpi\n        /* \"#utility.yul\":15329:15330   */\n      0x00\n        /* \"#utility.yul\":15320:15326   */\n      dup5\n        /* \"#utility.yul\":15315:15318   */\n      dup5\n        /* \"#utility.yul\":15311:15327   */\n      add\n        /* \"#utility.yul\":15304:15331   */\n      mstore\n        /* \"#utility.yul\":15240:15341   */\n    tag_467:\n        /* \"#utility.yul\":15089:15347   */\n      pop\n        /* \"#utility.yul\":15040:15347   */\n      pop\n      pop\n      pop\n      jump\t// out\n        /* \"#utility.yul\":15353:15673   */\n    tag_203:\n        /* \"#utility.yul\":15397:15403   */\n      0x00\n        /* \"#utility.yul\":15434:15435   */\n      0x02\n        /* \"#utility.yul\":15428:15432   */\n      dup3\n        /* \"#utility.yul\":15424:15436   */\n      div\n        /* \"#utility.yul\":15414:15436   */\n      swap1\n      pop\n        /* \"#utility.yul\":15481:15482   */\n      0x01\n        /* \"#utility.yul\":15475:15479   */\n      dup3\n        /* \"#utility.yul\":15471:15483   */\n      and\n        /* \"#utility.yul\":15502:15520   */\n      dup1\n        /* \"#utility.yul\":15492:15573   */\n      tag_469\n      jumpi\n        /* \"#utility.yul\":15558:15562   */\n      0x7f\n        /* \"#utility.yul\":15550:15556   */\n      dup3\n        /* \"#utility.yul\":15546:15563   */\n      and\n        /* \"#utility.yul\":15536:15563   */\n      swap2\n      pop\n        /* \"#utility.yul\":15492:15573   */\n    tag_469:\n        /* \"#utility.yul\":15620:15622   */\n      0x20\n        /* \"#utility.yul\":15612:15618   */\n      dup3\n        /* \"#utility.yul\":15609:15623   */\n      lt\n        /* \"#utility.yul\":15589:15607   */\n      dup2\n        /* \"#utility.yul\":15586:15624   */\n      eq\n        /* \"#utility.yul\":15583:15667   */\n      iszero\n      tag_470\n      jumpi\n        /* \"#utility.yul\":15639:15657   */\n      tag_471\n      tag_472\n      jump\t// in\n    tag_471:\n        /* \"#utility.yul\":15583:15667   */\n    tag_470:\n        /* \"#utility.yul\":15404:15673   */\n      pop\n        /* \"#utility.yul\":15353:15673   */\n      swap2\n      swap1\n      pop\n      jump\t// out\n        /* \"#utility.yul\":15679:15960   */\n    tag_430:\n        /* \"#utility.yul\":15762:15789   */\n      tag_474\n        /* \"#utility.yul\":15784:15788   */\n      dup3\n        /* \"#utility.yul\":15762:15789   */\n      tag_339\n      jump\t// in\n    tag_474:\n        /* \"#utility.yul\":15754:15760   */\n      dup2\n        /* \"#utility.yul\":15750:15790   */\n      add\n        /* \"#utility.yul\":15892:15898   */\n      dup2\n        /* \"#utility.yul\":15880:15890   */\n      dup2\n        /* \"#utility.yul\":15877:15899   */\n      lt\n        /* \"#utility.yul\":15856:15874   */\n      0xffffffffffffffff\n        /* \"#utility.yul\":15844:15854   */\n      dup3\n        /* \"#utility.yul\":15841:15875   */\n      gt\n        /* \"#utility.yul\":15838:15900   */\n      or\n        /* \"#utility.yul\":15835:15923   */\n      iszero\n      tag_475\n      jumpi\n        /* \"#utility.yul\":15903:15921   */\n      tag_476\n      tag_435\n      jump\t// in\n    tag_476:\n        /* \"#utility.yul\":15835:15923   */\n    tag_475:\n        /* \"#utility.yul\":15943:15953   */\n      dup1\n        /* \"#utility.yul\":15939:15941   */\n      0x40\n        /* \"#utility.yul\":15932:15954   */\n      mstore\n        /* \"#utility.yul\":15722:15960   */\n      pop\n        /* \"#utility.yul\":15679:15960   */\n      pop\n      pop\n      jump\t// out\n        /* \"#utility.yul\":15966:16199   */\n    tag_126:\n        /* \"#utility.yul\":16005:16008   */\n      0x00\n        /* \"#utility.yul\":16028:16052   */\n      tag_478\n        /* \"#utility.yul\":16046:16051   */\n      dup3\n        /* \"#utility.yul\":16028:16052   */\n      tag_380\n      jump\t// in\n    tag_478:\n        /* \"#utility.yul\":16019:16052   */\n      swap2\n      pop\n        /* \"#utility.yul\":16074:16140   */\n      0xffffffffffffffffffffffffffffffffffffffffffffffffffffffffffffffff\n        /* \"#utility.yul\":16067:16072   */\n      dup3\n        /* \"#utility.yul\":16064:16141   */\n      eq\n        /* \"#utility.yul\":16061:16164   */\n      iszero\n      tag_479\n      jumpi\n        /* \"#utility.yul\":16144:16162   */\n      tag_480\n      tag_445\n      jump\t// in\n    tag_480:\n        /* \"#utility.yul\":16061:16164   */\n    tag_479:\n        /* \"#utility.yul\":16191:16192   */\n      0x01\n        /* \"#utility.yul\":16184:16189   */\n      dup3\n        /* \"#utility.yul\":16180:16193   */\n      add\n        /* \"#utility.yul\":16173:16193   */\n      swap1\n      pop\n        /* \"#utility.yul\":15966:16199   */\n      swap2\n      swap1\n      pop\n      jump\t// out\n        /* \"#utility.yul\":16205:16380   */\n    tag_145:\n        /* \"#utility.yul\":16243:16246   */\n      0x00\n        /* \"#utility.yul\":16266:16289   */\n      tag_482\n        /* \"#utility.yul\":16283:16288   */\n      dup3\n        /* \"#utility.yul\":16266:16289   */\n      tag_389\n      jump\t// in\n    tag_482:\n        /* \"#utility.yul\":16257:16289   */\n      swap2\n      pop\n        /* \"#utility.yul\":16311:16321   */\n      0xffffffff\n        /* \"#utility.yul\":16304:16309   */\n      dup3\n        /* \"#utility.yul\":16301:16322   */\n      eq\n        /* \"#utility.yul\":16298:16345   */\n      iszero\n      tag_483\n      jumpi\n        /* \"#utility.yul\":16325:16343   */\n      tag_484\n      tag_445\n      jump\t// in\n    tag_484:\n        /* \"#utility.yul\":16298:16345   */\n    tag_483:\n        /* \"#utility.yul\":16372:16373   */\n      0x01\n        /* \"#utility.yul\":16365:16370   */\n      dup3\n        /* \"#utility.yul\":16361:16374   */\n      add\n        /* \"#utility.yul\":16354:16374   */\n      swap1\n      pop\n        /* \"#utility.yul\":16205:16380   */\n      swap2\n      swap1\n      pop\n      jump\t// out\n        /* \"#utility.yul\":16386:16465   */\n    tag_385:\n        /* \"#utility.yul\":16425:16432   */\n      0x00\n        /* \"#utility.yul\":16454:16459   */\n      dup2\n        /* \"#utility.yul\":16443:16459   */\n      swap1\n      pop\n        /* \"#utility.yul\":16386:16465   */\n      swap2\n      swap1\n      pop\n      jump\t// out\n        /* \"#utility.yul\":16471:16647   */\n    tag_153:\n        /* \"#utility.yul\":16503:16504   */\n      0x00\n        /* \"#utility.yul\":16520:16540   */\n      tag_487\n        /* \"#utility.yul\":16538:16539   */\n      dup3\n        /* \"#utility.yul\":16520:16540   */\n      tag_380\n      jump\t// in\n    tag_487:\n        /* \"#utility.yul\":16515:16540   */\n      swap2\n      pop\n        /* \"#utility.yul\":16554:16574   */\n      tag_488\n        /* \"#utility.yul\":16572:16573   */\n      dup4\n        /* \"#utility.yul\":16554:16574   */\n      tag_380\n      jump\t// in\n    tag_488:\n        /* \"#utility.yul\":16549:16574   */\n      swap3\n      pop\n        /* \"#utility.yul\":16593:16594   */\n      dup3\n        /* \"#utility.yul\":16583:16618   */\n      tag_489\n      jumpi\n        /* \"#utility.yul\":16598:16616   */\n      tag_490\n      tag_491\n      jump\t// in\n    tag_490:\n        /* \"#utility.yul\":16583:16618   */\n    tag_489:\n        /* \"#utility.yul\":16639:16640   */\n      dup3\n        /* \"#utility.yul\":16636:16637   */\n      dup3\n        /* \"#utility.yul\":16632:16641   */\n      mod\n        /* \"#utility.yul\":16627:16641   */\n      swap1\n      pop\n        /* \"#utility.yul\":16471:16647   */\n      swap3\n      swap2\n      pop\n      pop\n      jump\t// out\n        /* \"#utility.yul\":16653:16833   */\n    tag_445:\n        /* \"#utility.yul\":16701:16778   */\n      0x4e487b7100000000000000000000000000000000000000000000000000000000\n        /* \"#utility.yul\":16698:16699   */\n      0x00\n        /* \"#utility.yul\":16691:16779   */\n      mstore\n        /* \"#utility.yul\":16798:16802   */\n      0x11\n        /* \"#utility.yul\":16795:16796   */\n      0x04\n        /* \"#utility.yul\":16788:16803   */\n      mstore\n        /* \"#utility.yul\":16822:16826   */\n      0x24\n        /* \"#utility.yul\":16819:16820   */\n      0x00\n        /* \"#utility.yul\":16812:16827   */\n      revert\n        /* \"#utility.yul\":16839:17019   */\n    tag_491:\n        /* \"#utility.yul\":16887:16964   */\n      0x4e487b7100000000000000000000000000000000000000000000000000000000\n        /* \"#utility.yul\":16884:16885   */\n      0x00\n        /* \"#utility.yul\":16877:16965   */\n      mstore\n        /* \"#utility.yul\":16984:16988   */\n      0x12\n        /* \"#utility.yul\":16981:16982   */\n      0x04\n        /* \"#utility.yul\":16974:16989   */\n      mstore\n        /* \"#utility.yul\":17008:17012   */\n      0x24\n        /* \"#utility.yul\":17005:17006   */\n      0x00\n        /* \"#utility.yul\":16998:17013   */\n      revert\n        /* \"#utility.yul\":17025:17205   */\n    tag_472:\n        /* \"#utility.yul\":17073:17150   */\n      0x4e487b7100000000000000000000000000000000000000000000000000000000\n        /* \"#utility.yul\":17070:17071   */\n      0x00\n        /* \"#utility.yul\":17063:17151   */\n      mstore\n        /* \"#utility.yul\":17170:17174   */\n      0x22\n        /* \"#utility.yul\":17167:17168   */\n      0x04\n        /* \"#utility.yul\":17160:17175   */\n      mstore\n        /* \"#utility.yul\":17194:17198   */\n      0x24\n        /* \"#utility.yul\":17191:17192   */\n      0x00\n        /* \"#utility.yul\":17184:17199   */\n      revert\n        /* \"#utility.yul\":17211:17391   */\n    tag_138:\n        /* \"#utility.yul\":17259:17336   */\n      0x4e487b7100000000000000000000000000000000000000000000000000000000\n        /* \"#utility.yul\":17256:17257   */\n      0x00\n        /* \"#utility.yul\":17249:17337   */\n      mstore\n        /* \"#utility.yul\":17356:17360   */\n      0x32\n        /* \"#utility.yul\":17353:17354   */\n      0x04\n        /* \"#utility.yul\":17346:17361   */\n      mstore\n        /* \"#utility.yul\":17380:17384   */\n      0x24\n        /* \"#utility.yul\":17377:17378   */\n      0x00\n        /* \"#utility.yul\":17370:17385   */\n      revert\n        /* \"#utility.yul\":17397:17577   */\n    tag_435:\n        /* \"#utility.yul\":17445:17522   */\n      0x4e487b7100000000000000000000000000000000000000000000000000000000\n        /* \"#utility.yul\":17442:17443   */\n      0x00\n        /* \"#utility.yul\":17435:17523   */\n      mstore\n        /* \"#utility.yul\":17542:17546   */\n      0x41\n        /* \"#utility.yul\":17539:17540   */\n      0x04\n        /* \"#utility.yul\":17532:17547   */\n      mstore\n        /* \"#utility.yul\":17566:17570   */\n      0x24\n        /* \"#utility.yul\":17563:17564   */\n      0x00\n        /* \"#utility.yul\":17556:17571   */\n      revert\n        /* \"#utility.yul\":17583:17700   */\n    tag_293:\n        /* \"#utility.yul\":17692:17693   */\n      0x00\n        /* \"#utility.yul\":17689:17690   */\n      dup1\n        /* \"#utility.yul\":17682:17694   */\n      revert\n        /* \"#utility.yul\":17706:17823   */\n    tag_282:\n        /* \"#utility.yul\":17815:17816   */\n      0x00\n        /* \"#utility.yul\":17812:17813   */\n      dup1\n        /* \"#utility.yul\":17805:17817   */\n      revert\n        /* \"#utility.yul\":17829:17946   */\n    tag_314:\n        /* \"#utility.yul\":17938:17939   */\n      0x00\n        /* \"#utility.yul\":17935:17936   */\n      dup1\n        /* \"#utility.yul\":17928:17940   */\n      revert\n        /* \"#utility.yul\":17952:18069   */\n    tag_302:\n        /* \"#utility.yul\":18061:18062   */\n      0x00\n        /* \"#utility.yul\":18058:18059   */\n      dup1\n        /* \"#utility.yul\":18051:18063   */\n      revert\n        /* \"#utility.yul\":18075:18177   */\n    tag_339:\n        /* \"#utility.yul\":18116:18122   */\n      0x00\n        /* \"#utility.yul\":18167:18169   */\n      0x1f\n        /* \"#utility.yul\":18163:18170   */\n      not\n        /* \"#utility.yul\":18158:18160   */\n      0x1f\n        /* \"#utility.yul\":18151:18156   */\n      dup4\n        /* \"#utility.yul\":18147:18161   */\n      add\n        /* \"#utility.yul\":18143:18171   */\n      and\n        /* \"#utility.yul\":18133:18171   */\n      swap1\n      pop\n        /* \"#utility.yul\":18075:18177   */\n      swap2\n      swap1\n      pop\n      jump\t// out\n        /* \"#utility.yul\":18183:18410   */\n    tag_356:\n        /* \"#utility.yul\":18323:18357   */\n      0x536f6c6f2073652070756564652074656e657220756e20636f63686520706f72\n        /* \"#utility.yul\":18319:18320   */\n      0x00\n        /* \"#utility.yul\":18311:18317   */\n      dup3\n        /* \"#utility.yul\":18307:18321   */\n      add\n        /* \"#utility.yul\":18300:18358   */\n      mstore\n        /* \"#utility.yul\":18392:18402   */\n      0x20706572736f6e61000000000000000000000000000000000000000000000000\n        /* \"#utility.yul\":18387:18389   */\n      0x20\n        /* \"#utility.yul\":18379:18385   */\n      dup3\n        /* \"#utility.yul\":18375:18390   */\n      add\n        /* \"#utility.yul\":18368:18403   */\n      mstore\n        /* \"#utility.yul\":18183:18410   */\n      pop\n      jump\t// out\n        /* \"#utility.yul\":18416:18641   */\n    tag_361:\n        /* \"#utility.yul\":18556:18590   */\n      0x4f776e61626c653a206e6577206f776e657220697320746865207a65726f2061\n        /* \"#utility.yul\":18552:18553   */\n      0x00\n        /* \"#utility.yul\":18544:18550   */\n      dup3\n        /* \"#utility.yul\":18540:18554   */\n      add\n        /* \"#utility.yul\":18533:18591   */\n      mstore\n        /* \"#utility.yul\":18625:18633   */\n      0x6464726573730000000000000000000000000000000000000000000000000000\n        /* \"#utility.yul\":18620:18622   */\n      0x20\n        /* \"#utility.yul\":18612:18618   */\n      dup3\n        /* \"#utility.yul\":18608:18623   */\n      add\n        /* \"#utility.yul\":18601:18634   */\n      mstore\n        /* \"#utility.yul\":18416:18641   */\n      pop\n      jump\t// out\n        /* \"#utility.yul\":18647:18809   */\n    tag_366:\n        /* \"#utility.yul\":18787:18801   */\n      0x4861732067616e61646f3a200000000000000000000000000000000000000000\n        /* \"#utility.yul\":18783:18784   */\n      0x00\n        /* \"#utility.yul\":18775:18781   */\n      dup3\n        /* \"#utility.yul\":18771:18785   */\n      add\n        /* \"#utility.yul\":18764:18802   */\n      mstore\n        /* \"#utility.yul\":18647:18809   */\n      pop\n      jump\t// out\n        /* \"#utility.yul\":18815:18997   */\n    tag_371:\n        /* \"#utility.yul\":18955:18989   */\n      0x4f776e61626c653a2063616c6c6572206973206e6f7420746865206f776e6572\n        /* \"#utility.yul\":18951:18952   */\n      0x00\n        /* \"#utility.yul\":18943:18949   */\n      dup3\n        /* \"#utility.yul\":18939:18953   */\n      add\n        /* \"#utility.yul\":18932:18990   */\n      mstore\n        /* \"#utility.yul\":18815:18997   */\n      pop\n      jump\t// out\n        /* \"#utility.yul\":19003:19174   */\n    tag_376:\n        /* \"#utility.yul\":19143:19166   */\n      0x456c20636f6368652067616e61646f722065733a200000000000000000000000\n        /* \"#utility.yul\":19139:19140   */\n      0x00\n        /* \"#utility.yul\":19131:19137   */\n      dup3\n        /* \"#utility.yul\":19127:19141   */\n      add\n        /* \"#utility.yul\":19120:19167   */\n      mstore\n        /* \"#utility.yul\":19003:19174   */\n      pop\n      jump\t// out\n        /* \"#utility.yul\":19180:19302   */\n    tag_288:\n        /* \"#utility.yul\":19253:19277   */\n      tag_508\n        /* \"#utility.yul\":19271:19276   */\n      dup2\n        /* \"#utility.yul\":19253:19277   */\n      tag_329\n      jump\t// in\n    tag_508:\n        /* \"#utility.yul\":19246:19251   */\n      dup2\n        /* \"#utility.yul\":19243:19278   */\n      eq\n        /* \"#utility.yul\":19233:19296   */\n      tag_509\n      jumpi\n        /* \"#utility.yul\":19292:19293   */\n      0x00\n        /* \"#utility.yul\":19289:19290   */\n      dup1\n        /* \"#utility.yul\":19282:19294   */\n      revert\n        /* \"#utility.yul\":19233:19296   */\n    tag_509:\n        /* \"#utility.yul\":19180:19302   */\n      pop\n      jump\t// out\n        /* \"#utility.yul\":19308:19430   */\n    tag_298:\n        /* \"#utility.yul\":19381:19405   */\n      tag_511\n        /* \"#utility.yul\":19399:19404   */\n      dup2\n        /* \"#utility.yul\":19381:19405   */\n      tag_380\n      jump\t// in\n    tag_511:\n        /* \"#utility.yul\":19374:19379   */\n      dup2\n        /* \"#utility.yul\":19371:19406   */\n      eq\n        /* \"#utility.yul\":19361:19424   */\n      tag_512\n      jumpi\n        /* \"#utility.yul\":19420:19421   */\n      0x00\n        /* \"#utility.yul\":19417:19418   */\n      dup1\n        /* \"#utility.yul\":19410:19422   */\n      revert\n        /* \"#utility.yul\":19361:19424   */\n    tag_512:\n        /* \"#utility.yul\":19308:19430   */\n      pop\n      jump\t// out\n\n    auxdata: 0xa26469706673582212208770910c7f8c65ddc0b250945a3259ff897b71deb4d2382ceae367c95a401cf364736f6c63430008070033\n}\n",
				"bytecode": {
					"linkReferences": {},
					"object": "608060405260006001556000600255603c600355670de0b6b3a764000060045534801561002b57600080fd5b5061004861003d61004d60201b60201c565b61005560201b60201c565b610119565b600033905090565b60008060009054906101000a900473ffffffffffffffffffffffffffffffffffffffff169050816000806101000a81548173ffffffffffffffffffffffffffffffffffffffff021916908373ffffffffffffffffffffffffffffffffffffffff1602179055508173ffffffffffffffffffffffffffffffffffffffff168173ffffffffffffffffffffffffffffffffffffffff167f8be0079c531659141344cd1fd0a4f28419497f9722a3daafe3b4186f6b6457e060405160405180910390a35050565b611fa8806101286000396000f3fe6080604052600436106100fe5760003560e01c8063715018a611610095578063b2bdfa7b11610064578063b2bdfa7b1461033f578063b2e6ceeb1461036a578063d735573d14610393578063e172fca8146103d7578063f2fde38b14610400576100fe565b8063715018a614610297578063858b0554146102ae5780638da5cb5b146102eb578063a9059cbb14610316576100fe565b80636352211e116100d15780636352211e146101bd5780636a7d1816146101fa5780636b6f04941461022a57806370a082311461025a576100fe565b8063095ea7b3146101035780631bfdc1501461012c5780631c6743e4146101435780632458c54414610180575b600080fd5b34801561010f57600080fd5b5061012a60048036038101906101259190611517565b610429565b005b34801561013857600080fd5b5061014161042d565b005b34801561014f57600080fd5b5061016a600480360381019061016591906114ea565b6104f2565b60405161017791906119f3565b60405180910390f35b34801561018c57600080fd5b506101a760048036038101906101a29190611557565b61050a565b6040516101b491906119f3565b60405180910390f35b3480156101c957600080fd5b506101e460048036038101906101df91906115fe565b6107ec565b6040516101f19190611814565b60405180910390f35b610214600480360381019061020f91906114ea565b610829565b60405161022191906118c2565b60405180910390f35b610244600480360381019061023f91906115fe565b61097e565b60405161025191906118c2565b60405180910390f35b34801561026657600080fd5b50610281600480360381019061027c91906114ea565b610c59565b60405161028e91906119f3565b60405180910390f35b3480156102a357600080fd5b506102ac610ca2565b005b3480156102ba57600080fd5b506102d560048036038101906102d091906115fe565b610d2a565b6040516102e29190611814565b60405180910390f35b3480156102f757600080fd5b50610300610d5d565b60405161030d9190611814565b60405180910390f35b34801561032257600080fd5b5061033d60048036038101906103389190611517565b610d86565b005b34801561034b57600080fd5b50610354610d8a565b6040516103619190611814565b60405180910390f35b34801561037657600080fd5b50610391600480360381019061038c91906115fe565b610dae565b005b34801561039f57600080fd5b506103ba60048036038101906103b591906115fe565b610db1565b6040516103ce98979695949392919061182f565b60405180910390f35b3480156103e357600080fd5b506103fe60048036038101906103f991906114ea565b610fd1565b005b34801561040c57600080fd5b50610427600480360381019061042291906114ea565b611151565b005b5050565b610435611249565b73ffffffffffffffffffffffffffffffffffffffff16610453610d5d565b73ffffffffffffffffffffffffffffffffffffffff16146104a9576040517f08c379a00000000000000000000000000000000000000000000000000000000081526004016104a0906119a5565b60405180910390fd5b3373ffffffffffffffffffffffffffffffffffffffff166108fc479081150290604051600060405180830381858888f193505050501580156104ef573d6000803e3d6000fd5b50565b60076020528060005260406000206000915090505481565b60006001600760003373ffffffffffffffffffffffffffffffffffffffff1673ffffffffffffffffffffffffffffffffffffffff168152602001908152602001600020541061058e576040517f08c379a000000000000000000000000000000000000000000000000000000000815260040161058590611937565b60405180910390fd5b60056040518061010001604052803373ffffffffffffffffffffffffffffffffffffffff1681526020018681526020018581526020018481526020016000815260200160008152602001600354426105e69190611a95565b63ffffffff168152602001600063ffffffff16815250908060018154018082558091505060019003906000526020600020906008020160009091909190915060008201518160000160006101000a81548173ffffffffffffffffffffffffffffffffffffffff021916908373ffffffffffffffffffffffffffffffffffffffff16021790555060208201518160010190805190602001906106889291906113ad565b5060408201518160020190805190602001906106a59291906113ad565b5060608201518160030190805190602001906106c29291906113ad565b506080820151816004015560a0820151816005015560c0820151816006015560e08201518160070160006101000a81548163ffffffff021916908363ffffffff160217905550505060006005805490509050336006600083815260200190815260200160002060006101000a81548173ffffffffffffffffffffffffffffffffffffffff021916908373ffffffffffffffffffffffffffffffffffffffff160217905550600760003373ffffffffffffffffffffffffffffffffffffffff1673ffffffffffffffffffffffffffffffffffffffff16815260200190815260200160002060008154809291906107b690611c6a565b9190505550600260008154809291906107ce90611c6a565b919050555060016002546107e29190611b45565b9150509392505050565b60006006600083815260200190815260200160002060009054906101000a900473ffffffffffffffffffffffffffffffffffffffff169050919050565b6060600454341461083957600080fd5b60005b600580549050811015610977578273ffffffffffffffffffffffffffffffffffffffff166005828154811061087457610873611da8565b5b906000526020600020906008020160000160009054906101000a900473ffffffffffffffffffffffffffffffffffffffff1673ffffffffffffffffffffffffffffffffffffffff16141561096457600581815481106108d6576108d5611da8565b5b9060005260206000209060080201600701600081819054906101000a900463ffffffff168092919061090790611cb3565b91906101000a81548163ffffffff021916908363ffffffff160217905550506040518060400160405280601281526020017f48612073756269646f206465206e6976656c0000000000000000000000000000815250915050610979565b808061096f90611c6a565b91505061083c565b505b919050565b606081341461098c57600080fd5b6001600081548092919061099f90611c6a565b91905055506000600580549050426005805490506001546040516020016109c8939291906117d7565b6040516020818303038152906040528051906020012060001c6109eb9190611cea565b905060016000815480929190610a0090611c6a565b91905055506000600290506000814283600154604051602001610a25939291906117d7565b6040516020818303038152906040528051906020012060001c610a489190611cea565b905060005b600580549050811015610c4f5760058181548110610a6e57610a6d611da8565b5b906000526020600020906008020160000160009054906101000a900473ffffffffffffffffffffffffffffffffffffffff1673ffffffffffffffffffffffffffffffffffffffff163373ffffffffffffffffffffffffffffffffffffffff161415610c3c576000821415610bc457610ae4611251565b60058181548110610af857610af7611da8565b5b90600052602060002090600802016004016000815480929190610b1a90611c6a565b919050555060058181548110610b3357610b32611da8565b5b9060005260206000209060080201600701600081819054906101000a900463ffffffff1680929190610b6490611cb3565b91906101000a81548163ffffffff021916908363ffffffff160217905550506040518060400160405280600a81526020017f4861732067616e61646f00000000000000000000000000000000000000000000815250945050505050610c54565b7fa28482eec3136a2461c6c30c08f71ba279c6c51a2d9c7bea4e50d6d2632f389684604051610bf391906119c5565b60405180910390a16040518060400160405280600b81526020017f486173207065726469646f000000000000000000000000000000000000000000815250945050505050610c54565b8080610c4790611c6a565b915050610a4d565b505050505b919050565b6000600760008373ffffffffffffffffffffffffffffffffffffffff1673ffffffffffffffffffffffffffffffffffffffff168152602001908152602001600020549050919050565b610caa611249565b73ffffffffffffffffffffffffffffffffffffffff16610cc8610d5d565b73ffffffffffffffffffffffffffffffffffffffff1614610d1e576040517f08c379a0000000000000000000000000000000000000000000000000000000008152600401610d15906119a5565b60405180910390fd5b610d2860006112e9565b565b60066020528060005260406000206000915054906101000a900473ffffffffffffffffffffffffffffffffffffffff1681565b60008060009054906101000a900473ffffffffffffffffffffffffffffffffffffffff16905090565b5050565b60008054906101000a900473ffffffffffffffffffffffffffffffffffffffff1681565b50565b60058181548110610dc157600080fd5b90600052602060002090600802016000915090508060000160009054906101000a900473ffffffffffffffffffffffffffffffffffffffff1690806001018054610e0a90611c07565b80601f0160208091040260200160405190810160405280929190818152602001828054610e3690611c07565b8015610e835780601f10610e5857610100808354040283529160200191610e83565b820191906000526020600020905b815481529060010190602001808311610e6657829003601f168201915b505050505090806002018054610e9890611c07565b80601f0160208091040260200160405190810160405280929190818152602001828054610ec490611c07565b8015610f115780601f10610ee657610100808354040283529160200191610f11565b820191906000526020600020905b815481529060010190602001808311610ef457829003601f168201915b505050505090806003018054610f2690611c07565b80601f0160208091040260200160405190810160405280929190818152602001828054610f5290611c07565b8015610f9f5780601f10610f7457610100808354040283529160200191610f9f565b820191906000526020600020905b815481529060010190602001808311610f8257829003601f168201915b5050505050908060040154908060050154908060060154908060070160009054906101000a900463ffffffff16905088565b60005b60058054905081101561114d578173ffffffffffffffffffffffffffffffffffffffff166005828154811061100c5761100b611da8565b5b906000526020600020906008020160000160009054906101000a900473ffffffffffffffffffffffffffffffffffffffff1673ffffffffffffffffffffffffffffffffffffffff16141561113a577f18c2885dbbffc4e127da047b869295b42d8d5ee97848f7f117b062e88f34a9e66005828154811061108f5761108e611da8565b5b9060005260206000209060080201600201600583815481106110b4576110b3611da8565b5b9060005260206000209060080201600101600584815481106110d9576110d8611da8565b5b906000526020600020906008020160070160009054906101000a900463ffffffff166005858154811061110f5761110e611da8565b5b90600052602060002090600802016004015460405161113194939291906118e4565b60405180910390a15b808061114590611c6a565b915050610fd4565b5050565b611159611249565b73ffffffffffffffffffffffffffffffffffffffff16611177610d5d565b73ffffffffffffffffffffffffffffffffffffffff16146111cd576040517f08c379a00000000000000000000000000000000000000000000000000000000081526004016111c4906119a5565b60405180910390fd5b600073ffffffffffffffffffffffffffffffffffffffff168173ffffffffffffffffffffffffffffffffffffffff16141561123d576040517f08c379a000000000000000000000000000000000000000000000000000000000815260040161123490611957565b60405180910390fd5b611246816112e9565b50565b600033905090565b3373ffffffffffffffffffffffffffffffffffffffff166108fc6002476112789190611aeb565b9081150290604051600060405180830381858888f193505050501580156112a3573d6000803e3d6000fd5b507fa28482eec3136a2461c6c30c08f71ba279c6c51a2d9c7bea4e50d6d2632f38966002476112d29190611aeb565b6040516112df9190611977565b60405180910390a1565b60008060009054906101000a900473ffffffffffffffffffffffffffffffffffffffff169050816000806101000a81548173ffffffffffffffffffffffffffffffffffffffff021916908373ffffffffffffffffffffffffffffffffffffffff1602179055508173ffffffffffffffffffffffffffffffffffffffff168173ffffffffffffffffffffffffffffffffffffffff167f8be0079c531659141344cd1fd0a4f28419497f9722a3daafe3b4186f6b6457e060405160405180910390a35050565b8280546113b990611c07565b90600052602060002090601f0160209004810192826113db5760008555611422565b82601f106113f457805160ff1916838001178555611422565b82800160010185558215611422579182015b82811115611421578251825591602001919060010190611406565b5b50905061142f9190611433565b5090565b5b8082111561144c576000816000905550600101611434565b5090565b600061146361145e84611a33565b611a0e565b90508281526020810184848401111561147f5761147e611e0b565b5b61148a848285611bc5565b509392505050565b6000813590506114a181611f44565b92915050565b600082601f8301126114bc576114bb611e06565b5b81356114cc848260208601611450565b91505092915050565b6000813590506114e481611f5b565b92915050565b600060208284031215611500576114ff611e15565b5b600061150e84828501611492565b91505092915050565b6000806040838503121561152e5761152d611e15565b5b600061153c85828601611492565b925050602061154d858286016114d5565b9150509250929050565b6000806000606084860312156115705761156f611e15565b5b600084013567ffffffffffffffff81111561158e5761158d611e10565b5b61159a868287016114a7565b935050602084013567ffffffffffffffff8111156115bb576115ba611e10565b5b6115c7868287016114a7565b925050604084013567ffffffffffffffff8111156115e8576115e7611e10565b5b6115f4868287016114a7565b9150509250925092565b60006020828403121561161457611613611e15565b5b6000611622848285016114d5565b91505092915050565b61163481611b79565b82525050565b600061164582611a79565b61164f8185611a84565b935061165f818560208601611bd4565b61166881611e1a565b840191505092915050565b6000815461168081611c07565b61168a8186611a84565b945060018216600081146116a557600181146116b7576116ea565b60ff19831686526020860193506116ea565b6116c085611a64565b60005b838110156116e2578154818901526001820191506020810190506116c3565b808801955050505b50505092915050565b6000611700602883611a84565b915061170b82611e2b565b604082019050919050565b6000611723602683611a84565b915061172e82611e7a565b604082019050919050565b6000611746600c83611a84565b915061175182611ec9565b602082019050919050565b6000611769602083611a84565b915061177482611ef2565b602082019050919050565b600061178c601583611a84565b915061179782611f1b565b602082019050919050565b6117ab81611bab565b82525050565b6117c26117bd82611bab565b611ce0565b82525050565b6117d181611bb5565b82525050565b60006117e382866117b1565b6020820191506117f382856117b1565b60208201915061180382846117b1565b602082019150819050949350505050565b6000602082019050611829600083018461162b565b92915050565b600061010082019050611845600083018b61162b565b8181036020830152611857818a61163a565b9050818103604083015261186b818961163a565b9050818103606083015261187f818861163a565b905061188e60808301876117a2565b61189b60a08301866117a2565b6118a860c08301856117a2565b6118b560e08301846117c8565b9998505050505050505050565b600060208201905081810360008301526118dc818461163a565b905092915050565b600060808201905081810360008301526118fe8187611673565b905081810360208301526119128186611673565b905061192160408301856117c8565b61192e60608301846117a2565b95945050505050565b60006020820190508181036000830152611950816116f3565b9050919050565b6000602082019050818103600083015261197081611716565b9050919050565b6000604082019050818103600083015261199081611739565b905061199f60208301846117a2565b92915050565b600060208201905081810360008301526119be8161175c565b9050919050565b600060408201905081810360008301526119de8161177f565b90506119ed60208301846117a2565b92915050565b6000602082019050611a0860008301846117a2565b92915050565b6000611a18611a29565b9050611a248282611c39565b919050565b6000604051905090565b600067ffffffffffffffff821115611a4e57611a4d611dd7565b5b611a5782611e1a565b9050602081019050919050565b60008190508160005260206000209050919050565b600081519050919050565b600082825260208201905092915050565b6000611aa082611bab565b9150611aab83611bab565b9250827fffffffffffffffffffffffffffffffffffffffffffffffffffffffffffffffff03821115611ae057611adf611d1b565b5b828201905092915050565b6000611af682611bab565b9150611b0183611bab565b9250817fffffffffffffffffffffffffffffffffffffffffffffffffffffffffffffffff0483118215151615611b3a57611b39611d1b565b5b828202905092915050565b6000611b5082611bab565b9150611b5b83611bab565b925082821015611b6e57611b6d611d1b565b5b828203905092915050565b6000611b8482611b8b565b9050919050565b600073ffffffffffffffffffffffffffffffffffffffff82169050919050565b6000819050919050565b600063ffffffff82169050919050565b82818337600083830152505050565b60005b83811015611bf2578082015181840152602081019050611bd7565b83811115611c01576000848401525b50505050565b60006002820490506001821680611c1f57607f821691505b60208210811415611c3357611c32611d79565b5b50919050565b611c4282611e1a565b810181811067ffffffffffffffff82111715611c6157611c60611dd7565b5b80604052505050565b6000611c7582611bab565b91507fffffffffffffffffffffffffffffffffffffffffffffffffffffffffffffffff821415611ca857611ca7611d1b565b5b600182019050919050565b6000611cbe82611bb5565b915063ffffffff821415611cd557611cd4611d1b565b5b600182019050919050565b6000819050919050565b6000611cf582611bab565b9150611d0083611bab565b925082611d1057611d0f611d4a565b5b828206905092915050565b7f4e487b7100000000000000000000000000000000000000000000000000000000600052601160045260246000fd5b7f4e487b7100000000000000000000000000000000000000000000000000000000600052601260045260246000fd5b7f4e487b7100000000000000000000000000000000000000000000000000000000600052602260045260246000fd5b7f4e487b7100000000000000000000000000000000000000000000000000000000600052603260045260246000fd5b7f4e487b7100000000000000000000000000000000000000000000000000000000600052604160045260246000fd5b600080fd5b600080fd5b600080fd5b600080fd5b6000601f19601f8301169050919050565b7f536f6c6f2073652070756564652074656e657220756e20636f63686520706f7260008201527f20706572736f6e61000000000000000000000000000000000000000000000000602082015250565b7f4f776e61626c653a206e6577206f776e657220697320746865207a65726f206160008201527f6464726573730000000000000000000000000000000000000000000000000000602082015250565b7f4861732067616e61646f3a200000000000000000000000000000000000000000600082015250565b7f4f776e61626c653a2063616c6c6572206973206e6f7420746865206f776e6572600082015250565b7f456c20636f6368652067616e61646f722065733a200000000000000000000000600082015250565b611f4d81611b79565b8114611f5857600080fd5b50565b611f6481611bab565b8114611f6f57600080fd5b5056fea26469706673582212208770910c7f8c65ddc0b250945a3259ff897b71deb4d2382ceae367c95a401cf364736f6c63430008070033",
					"opcodes": "PUSH1 0x80 PUSH1 0x40 MSTORE PUSH1 0x0 PUSH1 0x1 SSTORE PUSH1 0x0 PUSH1 0x2 SSTORE PUSH1 0x3C PUSH1 0x3 SSTORE PUSH8 0xDE0B6B3A7640000 PUSH1 0x4 SSTORE CALLVALUE DUP1 ISZERO PUSH2 0x2B JUMPI PUSH1 0x0 DUP1 REVERT JUMPDEST POP PUSH2 0x48 PUSH2 0x3D PUSH2 0x4D PUSH1 0x20 SHL PUSH1 0x20 SHR JUMP JUMPDEST PUSH2 0x55 PUSH1 0x20 SHL PUSH1 0x20 SHR JUMP JUMPDEST PUSH2 0x119 JUMP JUMPDEST PUSH1 0x0 CALLER SWAP1 POP SWAP1 JUMP JUMPDEST PUSH1 0x0 DUP1 PUSH1 0x0 SWAP1 SLOAD SWAP1 PUSH2 0x100 EXP SWAP1 DIV PUSH20 0xFFFFFFFFFFFFFFFFFFFFFFFFFFFFFFFFFFFFFFFF AND SWAP1 POP DUP2 PUSH1 0x0 DUP1 PUSH2 0x100 EXP DUP2 SLOAD DUP2 PUSH20 0xFFFFFFFFFFFFFFFFFFFFFFFFFFFFFFFFFFFFFFFF MUL NOT AND SWAP1 DUP4 PUSH20 0xFFFFFFFFFFFFFFFFFFFFFFFFFFFFFFFFFFFFFFFF AND MUL OR SWAP1 SSTORE POP DUP2 PUSH20 0xFFFFFFFFFFFFFFFFFFFFFFFFFFFFFFFFFFFFFFFF AND DUP2 PUSH20 0xFFFFFFFFFFFFFFFFFFFFFFFFFFFFFFFFFFFFFFFF AND PUSH32 0x8BE0079C531659141344CD1FD0A4F28419497F9722A3DAAFE3B4186F6B6457E0 PUSH1 0x40 MLOAD PUSH1 0x40 MLOAD DUP1 SWAP2 SUB SWAP1 LOG3 POP POP JUMP JUMPDEST PUSH2 0x1FA8 DUP1 PUSH2 0x128 PUSH1 0x0 CODECOPY PUSH1 0x0 RETURN INVALID PUSH1 0x80 PUSH1 0x40 MSTORE PUSH1 0x4 CALLDATASIZE LT PUSH2 0xFE JUMPI PUSH1 0x0 CALLDATALOAD PUSH1 0xE0 SHR DUP1 PUSH4 0x715018A6 GT PUSH2 0x95 JUMPI DUP1 PUSH4 0xB2BDFA7B GT PUSH2 0x64 JUMPI DUP1 PUSH4 0xB2BDFA7B EQ PUSH2 0x33F JUMPI DUP1 PUSH4 0xB2E6CEEB EQ PUSH2 0x36A JUMPI DUP1 PUSH4 0xD735573D EQ PUSH2 0x393 JUMPI DUP1 PUSH4 0xE172FCA8 EQ PUSH2 0x3D7 JUMPI DUP1 PUSH4 0xF2FDE38B EQ PUSH2 0x400 JUMPI PUSH2 0xFE JUMP JUMPDEST DUP1 PUSH4 0x715018A6 EQ PUSH2 0x297 JUMPI DUP1 PUSH4 0x858B0554 EQ PUSH2 0x2AE JUMPI DUP1 PUSH4 0x8DA5CB5B EQ PUSH2 0x2EB JUMPI DUP1 PUSH4 0xA9059CBB EQ PUSH2 0x316 JUMPI PUSH2 0xFE JUMP JUMPDEST DUP1 PUSH4 0x6352211E GT PUSH2 0xD1 JUMPI DUP1 PUSH4 0x6352211E EQ PUSH2 0x1BD JUMPI DUP1 PUSH4 0x6A7D1816 EQ PUSH2 0x1FA JUMPI DUP1 PUSH4 0x6B6F0494 EQ PUSH2 0x22A JUMPI DUP1 PUSH4 0x70A08231 EQ PUSH2 0x25A JUMPI PUSH2 0xFE JUMP JUMPDEST DUP1 PUSH4 0x95EA7B3 EQ PUSH2 0x103 JUMPI DUP1 PUSH4 0x1BFDC150 EQ PUSH2 0x12C JUMPI DUP1 PUSH4 0x1C6743E4 EQ PUSH2 0x143 JUMPI DUP1 PUSH4 0x2458C544 EQ PUSH2 0x180 JUMPI JUMPDEST PUSH1 0x0 DUP1 REVERT JUMPDEST CALLVALUE DUP1 ISZERO PUSH2 0x10F JUMPI PUSH1 0x0 DUP1 REVERT JUMPDEST POP PUSH2 0x12A PUSH1 0x4 DUP1 CALLDATASIZE SUB DUP2 ADD SWAP1 PUSH2 0x125 SWAP2 SWAP1 PUSH2 0x1517 JUMP JUMPDEST PUSH2 0x429 JUMP JUMPDEST STOP JUMPDEST CALLVALUE DUP1 ISZERO PUSH2 0x138 JUMPI PUSH1 0x0 DUP1 REVERT JUMPDEST POP PUSH2 0x141 PUSH2 0x42D JUMP JUMPDEST STOP JUMPDEST CALLVALUE DUP1 ISZERO PUSH2 0x14F JUMPI PUSH1 0x0 DUP1 REVERT JUMPDEST POP PUSH2 0x16A PUSH1 0x4 DUP1 CALLDATASIZE SUB DUP2 ADD SWAP1 PUSH2 0x165 SWAP2 SWAP1 PUSH2 0x14EA JUMP JUMPDEST PUSH2 0x4F2 JUMP JUMPDEST PUSH1 0x40 MLOAD PUSH2 0x177 SWAP2 SWAP1 PUSH2 0x19F3 JUMP JUMPDEST PUSH1 0x40 MLOAD DUP1 SWAP2 SUB SWAP1 RETURN JUMPDEST CALLVALUE DUP1 ISZERO PUSH2 0x18C JUMPI PUSH1 0x0 DUP1 REVERT JUMPDEST POP PUSH2 0x1A7 PUSH1 0x4 DUP1 CALLDATASIZE SUB DUP2 ADD SWAP1 PUSH2 0x1A2 SWAP2 SWAP1 PUSH2 0x1557 JUMP JUMPDEST PUSH2 0x50A JUMP JUMPDEST PUSH1 0x40 MLOAD PUSH2 0x1B4 SWAP2 SWAP1 PUSH2 0x19F3 JUMP JUMPDEST PUSH1 0x40 MLOAD DUP1 SWAP2 SUB SWAP1 RETURN JUMPDEST CALLVALUE DUP1 ISZERO PUSH2 0x1C9 JUMPI PUSH1 0x0 DUP1 REVERT JUMPDEST POP PUSH2 0x1E4 PUSH1 0x4 DUP1 CALLDATASIZE SUB DUP2 ADD SWAP1 PUSH2 0x1DF SWAP2 SWAP1 PUSH2 0x15FE JUMP JUMPDEST PUSH2 0x7EC JUMP JUMPDEST PUSH1 0x40 MLOAD PUSH2 0x1F1 SWAP2 SWAP1 PUSH2 0x1814 JUMP JUMPDEST PUSH1 0x40 MLOAD DUP1 SWAP2 SUB SWAP1 RETURN JUMPDEST PUSH2 0x214 PUSH1 0x4 DUP1 CALLDATASIZE SUB DUP2 ADD SWAP1 PUSH2 0x20F SWAP2 SWAP1 PUSH2 0x14EA JUMP JUMPDEST PUSH2 0x829 JUMP JUMPDEST PUSH1 0x40 MLOAD PUSH2 0x221 SWAP2 SWAP1 PUSH2 0x18C2 JUMP JUMPDEST PUSH1 0x40 MLOAD DUP1 SWAP2 SUB SWAP1 RETURN JUMPDEST PUSH2 0x244 PUSH1 0x4 DUP1 CALLDATASIZE SUB DUP2 ADD SWAP1 PUSH2 0x23F SWAP2 SWAP1 PUSH2 0x15FE JUMP JUMPDEST PUSH2 0x97E JUMP JUMPDEST PUSH1 0x40 MLOAD PUSH2 0x251 SWAP2 SWAP1 PUSH2 0x18C2 JUMP JUMPDEST PUSH1 0x40 MLOAD DUP1 SWAP2 SUB SWAP1 RETURN JUMPDEST CALLVALUE DUP1 ISZERO PUSH2 0x266 JUMPI PUSH1 0x0 DUP1 REVERT JUMPDEST POP PUSH2 0x281 PUSH1 0x4 DUP1 CALLDATASIZE SUB DUP2 ADD SWAP1 PUSH2 0x27C SWAP2 SWAP1 PUSH2 0x14EA JUMP JUMPDEST PUSH2 0xC59 JUMP JUMPDEST PUSH1 0x40 MLOAD PUSH2 0x28E SWAP2 SWAP1 PUSH2 0x19F3 JUMP JUMPDEST PUSH1 0x40 MLOAD DUP1 SWAP2 SUB SWAP1 RETURN JUMPDEST CALLVALUE DUP1 ISZERO PUSH2 0x2A3 JUMPI PUSH1 0x0 DUP1 REVERT JUMPDEST POP PUSH2 0x2AC PUSH2 0xCA2 JUMP JUMPDEST STOP JUMPDEST CALLVALUE DUP1 ISZERO PUSH2 0x2BA JUMPI PUSH1 0x0 DUP1 REVERT JUMPDEST POP PUSH2 0x2D5 PUSH1 0x4 DUP1 CALLDATASIZE SUB DUP2 ADD SWAP1 PUSH2 0x2D0 SWAP2 SWAP1 PUSH2 0x15FE JUMP JUMPDEST PUSH2 0xD2A JUMP JUMPDEST PUSH1 0x40 MLOAD PUSH2 0x2E2 SWAP2 SWAP1 PUSH2 0x1814 JUMP JUMPDEST PUSH1 0x40 MLOAD DUP1 SWAP2 SUB SWAP1 RETURN JUMPDEST CALLVALUE DUP1 ISZERO PUSH2 0x2F7 JUMPI PUSH1 0x0 DUP1 REVERT JUMPDEST POP PUSH2 0x300 PUSH2 0xD5D JUMP JUMPDEST PUSH1 0x40 MLOAD PUSH2 0x30D SWAP2 SWAP1 PUSH2 0x1814 JUMP JUMPDEST PUSH1 0x40 MLOAD DUP1 SWAP2 SUB SWAP1 RETURN JUMPDEST CALLVALUE DUP1 ISZERO PUSH2 0x322 JUMPI PUSH1 0x0 DUP1 REVERT JUMPDEST POP PUSH2 0x33D PUSH1 0x4 DUP1 CALLDATASIZE SUB DUP2 ADD SWAP1 PUSH2 0x338 SWAP2 SWAP1 PUSH2 0x1517 JUMP JUMPDEST PUSH2 0xD86 JUMP JUMPDEST STOP JUMPDEST CALLVALUE DUP1 ISZERO PUSH2 0x34B JUMPI PUSH1 0x0 DUP1 REVERT JUMPDEST POP PUSH2 0x354 PUSH2 0xD8A JUMP JUMPDEST PUSH1 0x40 MLOAD PUSH2 0x361 SWAP2 SWAP1 PUSH2 0x1814 JUMP JUMPDEST PUSH1 0x40 MLOAD DUP1 SWAP2 SUB SWAP1 RETURN JUMPDEST CALLVALUE DUP1 ISZERO PUSH2 0x376 JUMPI PUSH1 0x0 DUP1 REVERT JUMPDEST POP PUSH2 0x391 PUSH1 0x4 DUP1 CALLDATASIZE SUB DUP2 ADD SWAP1 PUSH2 0x38C SWAP2 SWAP1 PUSH2 0x15FE JUMP JUMPDEST PUSH2 0xDAE JUMP JUMPDEST STOP JUMPDEST CALLVALUE DUP1 ISZERO PUSH2 0x39F JUMPI PUSH1 0x0 DUP1 REVERT JUMPDEST POP PUSH2 0x3BA PUSH1 0x4 DUP1 CALLDATASIZE SUB DUP2 ADD SWAP1 PUSH2 0x3B5 SWAP2 SWAP1 PUSH2 0x15FE JUMP JUMPDEST PUSH2 0xDB1 JUMP JUMPDEST PUSH1 0x40 MLOAD PUSH2 0x3CE SWAP9 SWAP8 SWAP7 SWAP6 SWAP5 SWAP4 SWAP3 SWAP2 SWAP1 PUSH2 0x182F JUMP JUMPDEST PUSH1 0x40 MLOAD DUP1 SWAP2 SUB SWAP1 RETURN JUMPDEST CALLVALUE DUP1 ISZERO PUSH2 0x3E3 JUMPI PUSH1 0x0 DUP1 REVERT JUMPDEST POP PUSH2 0x3FE PUSH1 0x4 DUP1 CALLDATASIZE SUB DUP2 ADD SWAP1 PUSH2 0x3F9 SWAP2 SWAP1 PUSH2 0x14EA JUMP JUMPDEST PUSH2 0xFD1 JUMP JUMPDEST STOP JUMPDEST CALLVALUE DUP1 ISZERO PUSH2 0x40C JUMPI PUSH1 0x0 DUP1 REVERT JUMPDEST POP PUSH2 0x427 PUSH1 0x4 DUP1 CALLDATASIZE SUB DUP2 ADD SWAP1 PUSH2 0x422 SWAP2 SWAP1 PUSH2 0x14EA JUMP JUMPDEST PUSH2 0x1151 JUMP JUMPDEST STOP JUMPDEST POP POP JUMP JUMPDEST PUSH2 0x435 PUSH2 0x1249 JUMP JUMPDEST PUSH20 0xFFFFFFFFFFFFFFFFFFFFFFFFFFFFFFFFFFFFFFFF AND PUSH2 0x453 PUSH2 0xD5D JUMP JUMPDEST PUSH20 0xFFFFFFFFFFFFFFFFFFFFFFFFFFFFFFFFFFFFFFFF AND EQ PUSH2 0x4A9 JUMPI PUSH1 0x40 MLOAD PUSH32 0x8C379A000000000000000000000000000000000000000000000000000000000 DUP2 MSTORE PUSH1 0x4 ADD PUSH2 0x4A0 SWAP1 PUSH2 0x19A5 JUMP JUMPDEST PUSH1 0x40 MLOAD DUP1 SWAP2 SUB SWAP1 REVERT JUMPDEST CALLER PUSH20 0xFFFFFFFFFFFFFFFFFFFFFFFFFFFFFFFFFFFFFFFF AND PUSH2 0x8FC SELFBALANCE SWAP1 DUP2 ISZERO MUL SWAP1 PUSH1 0x40 MLOAD PUSH1 0x0 PUSH1 0x40 MLOAD DUP1 DUP4 SUB DUP2 DUP6 DUP9 DUP9 CALL SWAP4 POP POP POP POP ISZERO DUP1 ISZERO PUSH2 0x4EF JUMPI RETURNDATASIZE PUSH1 0x0 DUP1 RETURNDATACOPY RETURNDATASIZE PUSH1 0x0 REVERT JUMPDEST POP JUMP JUMPDEST PUSH1 0x7 PUSH1 0x20 MSTORE DUP1 PUSH1 0x0 MSTORE PUSH1 0x40 PUSH1 0x0 KECCAK256 PUSH1 0x0 SWAP2 POP SWAP1 POP SLOAD DUP2 JUMP JUMPDEST PUSH1 0x0 PUSH1 0x1 PUSH1 0x7 PUSH1 0x0 CALLER PUSH20 0xFFFFFFFFFFFFFFFFFFFFFFFFFFFFFFFFFFFFFFFF AND PUSH20 0xFFFFFFFFFFFFFFFFFFFFFFFFFFFFFFFFFFFFFFFF AND DUP2 MSTORE PUSH1 0x20 ADD SWAP1 DUP2 MSTORE PUSH1 0x20 ADD PUSH1 0x0 KECCAK256 SLOAD LT PUSH2 0x58E JUMPI PUSH1 0x40 MLOAD PUSH32 0x8C379A000000000000000000000000000000000000000000000000000000000 DUP2 MSTORE PUSH1 0x4 ADD PUSH2 0x585 SWAP1 PUSH2 0x1937 JUMP JUMPDEST PUSH1 0x40 MLOAD DUP1 SWAP2 SUB SWAP1 REVERT JUMPDEST PUSH1 0x5 PUSH1 0x40 MLOAD DUP1 PUSH2 0x100 ADD PUSH1 0x40 MSTORE DUP1 CALLER PUSH20 0xFFFFFFFFFFFFFFFFFFFFFFFFFFFFFFFFFFFFFFFF AND DUP2 MSTORE PUSH1 0x20 ADD DUP7 DUP2 MSTORE PUSH1 0x20 ADD DUP6 DUP2 MSTORE PUSH1 0x20 ADD DUP5 DUP2 MSTORE PUSH1 0x20 ADD PUSH1 0x0 DUP2 MSTORE PUSH1 0x20 ADD PUSH1 0x0 DUP2 MSTORE PUSH1 0x20 ADD PUSH1 0x3 SLOAD TIMESTAMP PUSH2 0x5E6 SWAP2 SWAP1 PUSH2 0x1A95 JUMP JUMPDEST PUSH4 0xFFFFFFFF AND DUP2 MSTORE PUSH1 0x20 ADD PUSH1 0x0 PUSH4 0xFFFFFFFF AND DUP2 MSTORE POP SWAP1 DUP1 PUSH1 0x1 DUP2 SLOAD ADD DUP1 DUP3 SSTORE DUP1 SWAP2 POP POP PUSH1 0x1 SWAP1 SUB SWAP1 PUSH1 0x0 MSTORE PUSH1 0x20 PUSH1 0x0 KECCAK256 SWAP1 PUSH1 0x8 MUL ADD PUSH1 0x0 SWAP1 SWAP2 SWAP1 SWAP2 SWAP1 SWAP2 POP PUSH1 0x0 DUP3 ADD MLOAD DUP2 PUSH1 0x0 ADD PUSH1 0x0 PUSH2 0x100 EXP DUP2 SLOAD DUP2 PUSH20 0xFFFFFFFFFFFFFFFFFFFFFFFFFFFFFFFFFFFFFFFF MUL NOT AND SWAP1 DUP4 PUSH20 0xFFFFFFFFFFFFFFFFFFFFFFFFFFFFFFFFFFFFFFFF AND MUL OR SWAP1 SSTORE POP PUSH1 0x20 DUP3 ADD MLOAD DUP2 PUSH1 0x1 ADD SWAP1 DUP1 MLOAD SWAP1 PUSH1 0x20 ADD SWAP1 PUSH2 0x688 SWAP3 SWAP2 SWAP1 PUSH2 0x13AD JUMP JUMPDEST POP PUSH1 0x40 DUP3 ADD MLOAD DUP2 PUSH1 0x2 ADD SWAP1 DUP1 MLOAD SWAP1 PUSH1 0x20 ADD SWAP1 PUSH2 0x6A5 SWAP3 SWAP2 SWAP1 PUSH2 0x13AD JUMP JUMPDEST POP PUSH1 0x60 DUP3 ADD MLOAD DUP2 PUSH1 0x3 ADD SWAP1 DUP1 MLOAD SWAP1 PUSH1 0x20 ADD SWAP1 PUSH2 0x6C2 SWAP3 SWAP2 SWAP1 PUSH2 0x13AD JUMP JUMPDEST POP PUSH1 0x80 DUP3 ADD MLOAD DUP2 PUSH1 0x4 ADD SSTORE PUSH1 0xA0 DUP3 ADD MLOAD DUP2 PUSH1 0x5 ADD SSTORE PUSH1 0xC0 DUP3 ADD MLOAD DUP2 PUSH1 0x6 ADD SSTORE PUSH1 0xE0 DUP3 ADD MLOAD DUP2 PUSH1 0x7 ADD PUSH1 0x0 PUSH2 0x100 EXP DUP2 SLOAD DUP2 PUSH4 0xFFFFFFFF MUL NOT AND SWAP1 DUP4 PUSH4 0xFFFFFFFF AND MUL OR SWAP1 SSTORE POP POP POP PUSH1 0x0 PUSH1 0x5 DUP1 SLOAD SWAP1 POP SWAP1 POP CALLER PUSH1 0x6 PUSH1 0x0 DUP4 DUP2 MSTORE PUSH1 0x20 ADD SWAP1 DUP2 MSTORE PUSH1 0x20 ADD PUSH1 0x0 KECCAK256 PUSH1 0x0 PUSH2 0x100 EXP DUP2 SLOAD DUP2 PUSH20 0xFFFFFFFFFFFFFFFFFFFFFFFFFFFFFFFFFFFFFFFF MUL NOT AND SWAP1 DUP4 PUSH20 0xFFFFFFFFFFFFFFFFFFFFFFFFFFFFFFFFFFFFFFFF AND MUL OR SWAP1 SSTORE POP PUSH1 0x7 PUSH1 0x0 CALLER PUSH20 0xFFFFFFFFFFFFFFFFFFFFFFFFFFFFFFFFFFFFFFFF AND PUSH20 0xFFFFFFFFFFFFFFFFFFFFFFFFFFFFFFFFFFFFFFFF AND DUP2 MSTORE PUSH1 0x20 ADD SWAP1 DUP2 MSTORE PUSH1 0x20 ADD PUSH1 0x0 KECCAK256 PUSH1 0x0 DUP2 SLOAD DUP1 SWAP3 SWAP2 SWAP1 PUSH2 0x7B6 SWAP1 PUSH2 0x1C6A JUMP JUMPDEST SWAP2 SWAP1 POP SSTORE POP PUSH1 0x2 PUSH1 0x0 DUP2 SLOAD DUP1 SWAP3 SWAP2 SWAP1 PUSH2 0x7CE SWAP1 PUSH2 0x1C6A JUMP JUMPDEST SWAP2 SWAP1 POP SSTORE POP PUSH1 0x1 PUSH1 0x2 SLOAD PUSH2 0x7E2 SWAP2 SWAP1 PUSH2 0x1B45 JUMP JUMPDEST SWAP2 POP POP SWAP4 SWAP3 POP POP POP JUMP JUMPDEST PUSH1 0x0 PUSH1 0x6 PUSH1 0x0 DUP4 DUP2 MSTORE PUSH1 0x20 ADD SWAP1 DUP2 MSTORE PUSH1 0x20 ADD PUSH1 0x0 KECCAK256 PUSH1 0x0 SWAP1 SLOAD SWAP1 PUSH2 0x100 EXP SWAP1 DIV PUSH20 0xFFFFFFFFFFFFFFFFFFFFFFFFFFFFFFFFFFFFFFFF AND SWAP1 POP SWAP2 SWAP1 POP JUMP JUMPDEST PUSH1 0x60 PUSH1 0x4 SLOAD CALLVALUE EQ PUSH2 0x839 JUMPI PUSH1 0x0 DUP1 REVERT JUMPDEST PUSH1 0x0 JUMPDEST PUSH1 0x5 DUP1 SLOAD SWAP1 POP DUP2 LT ISZERO PUSH2 0x977 JUMPI DUP3 PUSH20 0xFFFFFFFFFFFFFFFFFFFFFFFFFFFFFFFFFFFFFFFF AND PUSH1 0x5 DUP3 DUP2 SLOAD DUP2 LT PUSH2 0x874 JUMPI PUSH2 0x873 PUSH2 0x1DA8 JUMP JUMPDEST JUMPDEST SWAP1 PUSH1 0x0 MSTORE PUSH1 0x20 PUSH1 0x0 KECCAK256 SWAP1 PUSH1 0x8 MUL ADD PUSH1 0x0 ADD PUSH1 0x0 SWAP1 SLOAD SWAP1 PUSH2 0x100 EXP SWAP1 DIV PUSH20 0xFFFFFFFFFFFFFFFFFFFFFFFFFFFFFFFFFFFFFFFF AND PUSH20 0xFFFFFFFFFFFFFFFFFFFFFFFFFFFFFFFFFFFFFFFF AND EQ ISZERO PUSH2 0x964 JUMPI PUSH1 0x5 DUP2 DUP2 SLOAD DUP2 LT PUSH2 0x8D6 JUMPI PUSH2 0x8D5 PUSH2 0x1DA8 JUMP JUMPDEST JUMPDEST SWAP1 PUSH1 0x0 MSTORE PUSH1 0x20 PUSH1 0x0 KECCAK256 SWAP1 PUSH1 0x8 MUL ADD PUSH1 0x7 ADD PUSH1 0x0 DUP2 DUP2 SWAP1 SLOAD SWAP1 PUSH2 0x100 EXP SWAP1 DIV PUSH4 0xFFFFFFFF AND DUP1 SWAP3 SWAP2 SWAP1 PUSH2 0x907 SWAP1 PUSH2 0x1CB3 JUMP JUMPDEST SWAP2 SWAP1 PUSH2 0x100 EXP DUP2 SLOAD DUP2 PUSH4 0xFFFFFFFF MUL NOT AND SWAP1 DUP4 PUSH4 0xFFFFFFFF AND MUL OR SWAP1 SSTORE POP POP PUSH1 0x40 MLOAD DUP1 PUSH1 0x40 ADD PUSH1 0x40 MSTORE DUP1 PUSH1 0x12 DUP2 MSTORE PUSH1 0x20 ADD PUSH32 0x48612073756269646F206465206E6976656C0000000000000000000000000000 DUP2 MSTORE POP SWAP2 POP POP PUSH2 0x979 JUMP JUMPDEST DUP1 DUP1 PUSH2 0x96F SWAP1 PUSH2 0x1C6A JUMP JUMPDEST SWAP2 POP POP PUSH2 0x83C JUMP JUMPDEST POP JUMPDEST SWAP2 SWAP1 POP JUMP JUMPDEST PUSH1 0x60 DUP2 CALLVALUE EQ PUSH2 0x98C JUMPI PUSH1 0x0 DUP1 REVERT JUMPDEST PUSH1 0x1 PUSH1 0x0 DUP2 SLOAD DUP1 SWAP3 SWAP2 SWAP1 PUSH2 0x99F SWAP1 PUSH2 0x1C6A JUMP JUMPDEST SWAP2 SWAP1 POP SSTORE POP PUSH1 0x0 PUSH1 0x5 DUP1 SLOAD SWAP1 POP TIMESTAMP PUSH1 0x5 DUP1 SLOAD SWAP1 POP PUSH1 0x1 SLOAD PUSH1 0x40 MLOAD PUSH1 0x20 ADD PUSH2 0x9C8 SWAP4 SWAP3 SWAP2 SWAP1 PUSH2 0x17D7 JUMP JUMPDEST PUSH1 0x40 MLOAD PUSH1 0x20 DUP2 DUP4 SUB SUB DUP2 MSTORE SWAP1 PUSH1 0x40 MSTORE DUP1 MLOAD SWAP1 PUSH1 0x20 ADD KECCAK256 PUSH1 0x0 SHR PUSH2 0x9EB SWAP2 SWAP1 PUSH2 0x1CEA JUMP JUMPDEST SWAP1 POP PUSH1 0x1 PUSH1 0x0 DUP2 SLOAD DUP1 SWAP3 SWAP2 SWAP1 PUSH2 0xA00 SWAP1 PUSH2 0x1C6A JUMP JUMPDEST SWAP2 SWAP1 POP SSTORE POP PUSH1 0x0 PUSH1 0x2 SWAP1 POP PUSH1 0x0 DUP2 TIMESTAMP DUP4 PUSH1 0x1 SLOAD PUSH1 0x40 MLOAD PUSH1 0x20 ADD PUSH2 0xA25 SWAP4 SWAP3 SWAP2 SWAP1 PUSH2 0x17D7 JUMP JUMPDEST PUSH1 0x40 MLOAD PUSH1 0x20 DUP2 DUP4 SUB SUB DUP2 MSTORE SWAP1 PUSH1 0x40 MSTORE DUP1 MLOAD SWAP1 PUSH1 0x20 ADD KECCAK256 PUSH1 0x0 SHR PUSH2 0xA48 SWAP2 SWAP1 PUSH2 0x1CEA JUMP JUMPDEST SWAP1 POP PUSH1 0x0 JUMPDEST PUSH1 0x5 DUP1 SLOAD SWAP1 POP DUP2 LT ISZERO PUSH2 0xC4F JUMPI PUSH1 0x5 DUP2 DUP2 SLOAD DUP2 LT PUSH2 0xA6E JUMPI PUSH2 0xA6D PUSH2 0x1DA8 JUMP JUMPDEST JUMPDEST SWAP1 PUSH1 0x0 MSTORE PUSH1 0x20 PUSH1 0x0 KECCAK256 SWAP1 PUSH1 0x8 MUL ADD PUSH1 0x0 ADD PUSH1 0x0 SWAP1 SLOAD SWAP1 PUSH2 0x100 EXP SWAP1 DIV PUSH20 0xFFFFFFFFFFFFFFFFFFFFFFFFFFFFFFFFFFFFFFFF AND PUSH20 0xFFFFFFFFFFFFFFFFFFFFFFFFFFFFFFFFFFFFFFFF AND CALLER PUSH20 0xFFFFFFFFFFFFFFFFFFFFFFFFFFFFFFFFFFFFFFFF AND EQ ISZERO PUSH2 0xC3C JUMPI PUSH1 0x0 DUP3 EQ ISZERO PUSH2 0xBC4 JUMPI PUSH2 0xAE4 PUSH2 0x1251 JUMP JUMPDEST PUSH1 0x5 DUP2 DUP2 SLOAD DUP2 LT PUSH2 0xAF8 JUMPI PUSH2 0xAF7 PUSH2 0x1DA8 JUMP JUMPDEST JUMPDEST SWAP1 PUSH1 0x0 MSTORE PUSH1 0x20 PUSH1 0x0 KECCAK256 SWAP1 PUSH1 0x8 MUL ADD PUSH1 0x4 ADD PUSH1 0x0 DUP2 SLOAD DUP1 SWAP3 SWAP2 SWAP1 PUSH2 0xB1A SWAP1 PUSH2 0x1C6A JUMP JUMPDEST SWAP2 SWAP1 POP SSTORE POP PUSH1 0x5 DUP2 DUP2 SLOAD DUP2 LT PUSH2 0xB33 JUMPI PUSH2 0xB32 PUSH2 0x1DA8 JUMP JUMPDEST JUMPDEST SWAP1 PUSH1 0x0 MSTORE PUSH1 0x20 PUSH1 0x0 KECCAK256 SWAP1 PUSH1 0x8 MUL ADD PUSH1 0x7 ADD PUSH1 0x0 DUP2 DUP2 SWAP1 SLOAD SWAP1 PUSH2 0x100 EXP SWAP1 DIV PUSH4 0xFFFFFFFF AND DUP1 SWAP3 SWAP2 SWAP1 PUSH2 0xB64 SWAP1 PUSH2 0x1CB3 JUMP JUMPDEST SWAP2 SWAP1 PUSH2 0x100 EXP DUP2 SLOAD DUP2 PUSH4 0xFFFFFFFF MUL NOT AND SWAP1 DUP4 PUSH4 0xFFFFFFFF AND MUL OR SWAP1 SSTORE POP POP PUSH1 0x40 MLOAD DUP1 PUSH1 0x40 ADD PUSH1 0x40 MSTORE DUP1 PUSH1 0xA DUP2 MSTORE PUSH1 0x20 ADD PUSH32 0x4861732067616E61646F00000000000000000000000000000000000000000000 DUP2 MSTORE POP SWAP5 POP POP POP POP POP PUSH2 0xC54 JUMP JUMPDEST PUSH32 0xA28482EEC3136A2461C6C30C08F71BA279C6C51A2D9C7BEA4E50D6D2632F3896 DUP5 PUSH1 0x40 MLOAD PUSH2 0xBF3 SWAP2 SWAP1 PUSH2 0x19C5 JUMP JUMPDEST PUSH1 0x40 MLOAD DUP1 SWAP2 SUB SWAP1 LOG1 PUSH1 0x40 MLOAD DUP1 PUSH1 0x40 ADD PUSH1 0x40 MSTORE DUP1 PUSH1 0xB DUP2 MSTORE PUSH1 0x20 ADD PUSH32 0x486173207065726469646F000000000000000000000000000000000000000000 DUP2 MSTORE POP SWAP5 POP POP POP POP POP PUSH2 0xC54 JUMP JUMPDEST DUP1 DUP1 PUSH2 0xC47 SWAP1 PUSH2 0x1C6A JUMP JUMPDEST SWAP2 POP POP PUSH2 0xA4D JUMP JUMPDEST POP POP POP POP JUMPDEST SWAP2 SWAP1 POP JUMP JUMPDEST PUSH1 0x0 PUSH1 0x7 PUSH1 0x0 DUP4 PUSH20 0xFFFFFFFFFFFFFFFFFFFFFFFFFFFFFFFFFFFFFFFF AND PUSH20 0xFFFFFFFFFFFFFFFFFFFFFFFFFFFFFFFFFFFFFFFF AND DUP2 MSTORE PUSH1 0x20 ADD SWAP1 DUP2 MSTORE PUSH1 0x20 ADD PUSH1 0x0 KECCAK256 SLOAD SWAP1 POP SWAP2 SWAP1 POP JUMP JUMPDEST PUSH2 0xCAA PUSH2 0x1249 JUMP JUMPDEST PUSH20 0xFFFFFFFFFFFFFFFFFFFFFFFFFFFFFFFFFFFFFFFF AND PUSH2 0xCC8 PUSH2 0xD5D JUMP JUMPDEST PUSH20 0xFFFFFFFFFFFFFFFFFFFFFFFFFFFFFFFFFFFFFFFF AND EQ PUSH2 0xD1E JUMPI PUSH1 0x40 MLOAD PUSH32 0x8C379A000000000000000000000000000000000000000000000000000000000 DUP2 MSTORE PUSH1 0x4 ADD PUSH2 0xD15 SWAP1 PUSH2 0x19A5 JUMP JUMPDEST PUSH1 0x40 MLOAD DUP1 SWAP2 SUB SWAP1 REVERT JUMPDEST PUSH2 0xD28 PUSH1 0x0 PUSH2 0x12E9 JUMP JUMPDEST JUMP JUMPDEST PUSH1 0x6 PUSH1 0x20 MSTORE DUP1 PUSH1 0x0 MSTORE PUSH1 0x40 PUSH1 0x0 KECCAK256 PUSH1 0x0 SWAP2 POP SLOAD SWAP1 PUSH2 0x100 EXP SWAP1 DIV PUSH20 0xFFFFFFFFFFFFFFFFFFFFFFFFFFFFFFFFFFFFFFFF AND DUP2 JUMP JUMPDEST PUSH1 0x0 DUP1 PUSH1 0x0 SWAP1 SLOAD SWAP1 PUSH2 0x100 EXP SWAP1 DIV PUSH20 0xFFFFFFFFFFFFFFFFFFFFFFFFFFFFFFFFFFFFFFFF AND SWAP1 POP SWAP1 JUMP JUMPDEST POP POP JUMP JUMPDEST PUSH1 0x0 DUP1 SLOAD SWAP1 PUSH2 0x100 EXP SWAP1 DIV PUSH20 0xFFFFFFFFFFFFFFFFFFFFFFFFFFFFFFFFFFFFFFFF AND DUP2 JUMP JUMPDEST POP JUMP JUMPDEST PUSH1 0x5 DUP2 DUP2 SLOAD DUP2 LT PUSH2 0xDC1 JUMPI PUSH1 0x0 DUP1 REVERT JUMPDEST SWAP1 PUSH1 0x0 MSTORE PUSH1 0x20 PUSH1 0x0 KECCAK256 SWAP1 PUSH1 0x8 MUL ADD PUSH1 0x0 SWAP2 POP SWAP1 POP DUP1 PUSH1 0x0 ADD PUSH1 0x0 SWAP1 SLOAD SWAP1 PUSH2 0x100 EXP SWAP1 DIV PUSH20 0xFFFFFFFFFFFFFFFFFFFFFFFFFFFFFFFFFFFFFFFF AND SWAP1 DUP1 PUSH1 0x1 ADD DUP1 SLOAD PUSH2 0xE0A SWAP1 PUSH2 0x1C07 JUMP JUMPDEST DUP1 PUSH1 0x1F ADD PUSH1 0x20 DUP1 SWAP2 DIV MUL PUSH1 0x20 ADD PUSH1 0x40 MLOAD SWAP1 DUP2 ADD PUSH1 0x40 MSTORE DUP1 SWAP3 SWAP2 SWAP1 DUP2 DUP2 MSTORE PUSH1 0x20 ADD DUP3 DUP1 SLOAD PUSH2 0xE36 SWAP1 PUSH2 0x1C07 JUMP JUMPDEST DUP1 ISZERO PUSH2 0xE83 JUMPI DUP1 PUSH1 0x1F LT PUSH2 0xE58 JUMPI PUSH2 0x100 DUP1 DUP4 SLOAD DIV MUL DUP4 MSTORE SWAP2 PUSH1 0x20 ADD SWAP2 PUSH2 0xE83 JUMP JUMPDEST DUP3 ADD SWAP2 SWAP1 PUSH1 0x0 MSTORE PUSH1 0x20 PUSH1 0x0 KECCAK256 SWAP1 JUMPDEST DUP2 SLOAD DUP2 MSTORE SWAP1 PUSH1 0x1 ADD SWAP1 PUSH1 0x20 ADD DUP1 DUP4 GT PUSH2 0xE66 JUMPI DUP3 SWAP1 SUB PUSH1 0x1F AND DUP3 ADD SWAP2 JUMPDEST POP POP POP POP POP SWAP1 DUP1 PUSH1 0x2 ADD DUP1 SLOAD PUSH2 0xE98 SWAP1 PUSH2 0x1C07 JUMP JUMPDEST DUP1 PUSH1 0x1F ADD PUSH1 0x20 DUP1 SWAP2 DIV MUL PUSH1 0x20 ADD PUSH1 0x40 MLOAD SWAP1 DUP2 ADD PUSH1 0x40 MSTORE DUP1 SWAP3 SWAP2 SWAP1 DUP2 DUP2 MSTORE PUSH1 0x20 ADD DUP3 DUP1 SLOAD PUSH2 0xEC4 SWAP1 PUSH2 0x1C07 JUMP JUMPDEST DUP1 ISZERO PUSH2 0xF11 JUMPI DUP1 PUSH1 0x1F LT PUSH2 0xEE6 JUMPI PUSH2 0x100 DUP1 DUP4 SLOAD DIV MUL DUP4 MSTORE SWAP2 PUSH1 0x20 ADD SWAP2 PUSH2 0xF11 JUMP JUMPDEST DUP3 ADD SWAP2 SWAP1 PUSH1 0x0 MSTORE PUSH1 0x20 PUSH1 0x0 KECCAK256 SWAP1 JUMPDEST DUP2 SLOAD DUP2 MSTORE SWAP1 PUSH1 0x1 ADD SWAP1 PUSH1 0x20 ADD DUP1 DUP4 GT PUSH2 0xEF4 JUMPI DUP3 SWAP1 SUB PUSH1 0x1F AND DUP3 ADD SWAP2 JUMPDEST POP POP POP POP POP SWAP1 DUP1 PUSH1 0x3 ADD DUP1 SLOAD PUSH2 0xF26 SWAP1 PUSH2 0x1C07 JUMP JUMPDEST DUP1 PUSH1 0x1F ADD PUSH1 0x20 DUP1 SWAP2 DIV MUL PUSH1 0x20 ADD PUSH1 0x40 MLOAD SWAP1 DUP2 ADD PUSH1 0x40 MSTORE DUP1 SWAP3 SWAP2 SWAP1 DUP2 DUP2 MSTORE PUSH1 0x20 ADD DUP3 DUP1 SLOAD PUSH2 0xF52 SWAP1 PUSH2 0x1C07 JUMP JUMPDEST DUP1 ISZERO PUSH2 0xF9F JUMPI DUP1 PUSH1 0x1F LT PUSH2 0xF74 JUMPI PUSH2 0x100 DUP1 DUP4 SLOAD DIV MUL DUP4 MSTORE SWAP2 PUSH1 0x20 ADD SWAP2 PUSH2 0xF9F JUMP JUMPDEST DUP3 ADD SWAP2 SWAP1 PUSH1 0x0 MSTORE PUSH1 0x20 PUSH1 0x0 KECCAK256 SWAP1 JUMPDEST DUP2 SLOAD DUP2 MSTORE SWAP1 PUSH1 0x1 ADD SWAP1 PUSH1 0x20 ADD DUP1 DUP4 GT PUSH2 0xF82 JUMPI DUP3 SWAP1 SUB PUSH1 0x1F AND DUP3 ADD SWAP2 JUMPDEST POP POP POP POP POP SWAP1 DUP1 PUSH1 0x4 ADD SLOAD SWAP1 DUP1 PUSH1 0x5 ADD SLOAD SWAP1 DUP1 PUSH1 0x6 ADD SLOAD SWAP1 DUP1 PUSH1 0x7 ADD PUSH1 0x0 SWAP1 SLOAD SWAP1 PUSH2 0x100 EXP SWAP1 DIV PUSH4 0xFFFFFFFF AND SWAP1 POP DUP9 JUMP JUMPDEST PUSH1 0x0 JUMPDEST PUSH1 0x5 DUP1 SLOAD SWAP1 POP DUP2 LT ISZERO PUSH2 0x114D JUMPI DUP2 PUSH20 0xFFFFFFFFFFFFFFFFFFFFFFFFFFFFFFFFFFFFFFFF AND PUSH1 0x5 DUP3 DUP2 SLOAD DUP2 LT PUSH2 0x100C JUMPI PUSH2 0x100B PUSH2 0x1DA8 JUMP JUMPDEST JUMPDEST SWAP1 PUSH1 0x0 MSTORE PUSH1 0x20 PUSH1 0x0 KECCAK256 SWAP1 PUSH1 0x8 MUL ADD PUSH1 0x0 ADD PUSH1 0x0 SWAP1 SLOAD SWAP1 PUSH2 0x100 EXP SWAP1 DIV PUSH20 0xFFFFFFFFFFFFFFFFFFFFFFFFFFFFFFFFFFFFFFFF AND PUSH20 0xFFFFFFFFFFFFFFFFFFFFFFFFFFFFFFFFFFFFFFFF AND EQ ISZERO PUSH2 0x113A JUMPI PUSH32 0x18C2885DBBFFC4E127DA047B869295B42D8D5EE97848F7F117B062E88F34A9E6 PUSH1 0x5 DUP3 DUP2 SLOAD DUP2 LT PUSH2 0x108F JUMPI PUSH2 0x108E PUSH2 0x1DA8 JUMP JUMPDEST JUMPDEST SWAP1 PUSH1 0x0 MSTORE PUSH1 0x20 PUSH1 0x0 KECCAK256 SWAP1 PUSH1 0x8 MUL ADD PUSH1 0x2 ADD PUSH1 0x5 DUP4 DUP2 SLOAD DUP2 LT PUSH2 0x10B4 JUMPI PUSH2 0x10B3 PUSH2 0x1DA8 JUMP JUMPDEST JUMPDEST SWAP1 PUSH1 0x0 MSTORE PUSH1 0x20 PUSH1 0x0 KECCAK256 SWAP1 PUSH1 0x8 MUL ADD PUSH1 0x1 ADD PUSH1 0x5 DUP5 DUP2 SLOAD DUP2 LT PUSH2 0x10D9 JUMPI PUSH2 0x10D8 PUSH2 0x1DA8 JUMP JUMPDEST JUMPDEST SWAP1 PUSH1 0x0 MSTORE PUSH1 0x20 PUSH1 0x0 KECCAK256 SWAP1 PUSH1 0x8 MUL ADD PUSH1 0x7 ADD PUSH1 0x0 SWAP1 SLOAD SWAP1 PUSH2 0x100 EXP SWAP1 DIV PUSH4 0xFFFFFFFF AND PUSH1 0x5 DUP6 DUP2 SLOAD DUP2 LT PUSH2 0x110F JUMPI PUSH2 0x110E PUSH2 0x1DA8 JUMP JUMPDEST JUMPDEST SWAP1 PUSH1 0x0 MSTORE PUSH1 0x20 PUSH1 0x0 KECCAK256 SWAP1 PUSH1 0x8 MUL ADD PUSH1 0x4 ADD SLOAD PUSH1 0x40 MLOAD PUSH2 0x1131 SWAP5 SWAP4 SWAP3 SWAP2 SWAP1 PUSH2 0x18E4 JUMP JUMPDEST PUSH1 0x40 MLOAD DUP1 SWAP2 SUB SWAP1 LOG1 JUMPDEST DUP1 DUP1 PUSH2 0x1145 SWAP1 PUSH2 0x1C6A JUMP JUMPDEST SWAP2 POP POP PUSH2 0xFD4 JUMP JUMPDEST POP POP JUMP JUMPDEST PUSH2 0x1159 PUSH2 0x1249 JUMP JUMPDEST PUSH20 0xFFFFFFFFFFFFFFFFFFFFFFFFFFFFFFFFFFFFFFFF AND PUSH2 0x1177 PUSH2 0xD5D JUMP JUMPDEST PUSH20 0xFFFFFFFFFFFFFFFFFFFFFFFFFFFFFFFFFFFFFFFF AND EQ PUSH2 0x11CD JUMPI PUSH1 0x40 MLOAD PUSH32 0x8C379A000000000000000000000000000000000000000000000000000000000 DUP2 MSTORE PUSH1 0x4 ADD PUSH2 0x11C4 SWAP1 PUSH2 0x19A5 JUMP JUMPDEST PUSH1 0x40 MLOAD DUP1 SWAP2 SUB SWAP1 REVERT JUMPDEST PUSH1 0x0 PUSH20 0xFFFFFFFFFFFFFFFFFFFFFFFFFFFFFFFFFFFFFFFF AND DUP2 PUSH20 0xFFFFFFFFFFFFFFFFFFFFFFFFFFFFFFFFFFFFFFFF AND EQ ISZERO PUSH2 0x123D JUMPI PUSH1 0x40 MLOAD PUSH32 0x8C379A000000000000000000000000000000000000000000000000000000000 DUP2 MSTORE PUSH1 0x4 ADD PUSH2 0x1234 SWAP1 PUSH2 0x1957 JUMP JUMPDEST PUSH1 0x40 MLOAD DUP1 SWAP2 SUB SWAP1 REVERT JUMPDEST PUSH2 0x1246 DUP2 PUSH2 0x12E9 JUMP JUMPDEST POP JUMP JUMPDEST PUSH1 0x0 CALLER SWAP1 POP SWAP1 JUMP JUMPDEST CALLER PUSH20 0xFFFFFFFFFFFFFFFFFFFFFFFFFFFFFFFFFFFFFFFF AND PUSH2 0x8FC PUSH1 0x2 SELFBALANCE PUSH2 0x1278 SWAP2 SWAP1 PUSH2 0x1AEB JUMP JUMPDEST SWAP1 DUP2 ISZERO MUL SWAP1 PUSH1 0x40 MLOAD PUSH1 0x0 PUSH1 0x40 MLOAD DUP1 DUP4 SUB DUP2 DUP6 DUP9 DUP9 CALL SWAP4 POP POP POP POP ISZERO DUP1 ISZERO PUSH2 0x12A3 JUMPI RETURNDATASIZE PUSH1 0x0 DUP1 RETURNDATACOPY RETURNDATASIZE PUSH1 0x0 REVERT JUMPDEST POP PUSH32 0xA28482EEC3136A2461C6C30C08F71BA279C6C51A2D9C7BEA4E50D6D2632F3896 PUSH1 0x2 SELFBALANCE PUSH2 0x12D2 SWAP2 SWAP1 PUSH2 0x1AEB JUMP JUMPDEST PUSH1 0x40 MLOAD PUSH2 0x12DF SWAP2 SWAP1 PUSH2 0x1977 JUMP JUMPDEST PUSH1 0x40 MLOAD DUP1 SWAP2 SUB SWAP1 LOG1 JUMP JUMPDEST PUSH1 0x0 DUP1 PUSH1 0x0 SWAP1 SLOAD SWAP1 PUSH2 0x100 EXP SWAP1 DIV PUSH20 0xFFFFFFFFFFFFFFFFFFFFFFFFFFFFFFFFFFFFFFFF AND SWAP1 POP DUP2 PUSH1 0x0 DUP1 PUSH2 0x100 EXP DUP2 SLOAD DUP2 PUSH20 0xFFFFFFFFFFFFFFFFFFFFFFFFFFFFFFFFFFFFFFFF MUL NOT AND SWAP1 DUP4 PUSH20 0xFFFFFFFFFFFFFFFFFFFFFFFFFFFFFFFFFFFFFFFF AND MUL OR SWAP1 SSTORE POP DUP2 PUSH20 0xFFFFFFFFFFFFFFFFFFFFFFFFFFFFFFFFFFFFFFFF AND DUP2 PUSH20 0xFFFFFFFFFFFFFFFFFFFFFFFFFFFFFFFFFFFFFFFF AND PUSH32 0x8BE0079C531659141344CD1FD0A4F28419497F9722A3DAAFE3B4186F6B6457E0 PUSH1 0x40 MLOAD PUSH1 0x40 MLOAD DUP1 SWAP2 SUB SWAP1 LOG3 POP POP JUMP JUMPDEST DUP3 DUP1 SLOAD PUSH2 0x13B9 SWAP1 PUSH2 0x1C07 JUMP JUMPDEST SWAP1 PUSH1 0x0 MSTORE PUSH1 0x20 PUSH1 0x0 KECCAK256 SWAP1 PUSH1 0x1F ADD PUSH1 0x20 SWAP1 DIV DUP2 ADD SWAP3 DUP3 PUSH2 0x13DB JUMPI PUSH1 0x0 DUP6 SSTORE PUSH2 0x1422 JUMP JUMPDEST DUP3 PUSH1 0x1F LT PUSH2 0x13F4 JUMPI DUP1 MLOAD PUSH1 0xFF NOT AND DUP4 DUP1 ADD OR DUP6 SSTORE PUSH2 0x1422 JUMP JUMPDEST DUP3 DUP1 ADD PUSH1 0x1 ADD DUP6 SSTORE DUP3 ISZERO PUSH2 0x1422 JUMPI SWAP2 DUP3 ADD JUMPDEST DUP3 DUP2 GT ISZERO PUSH2 0x1421 JUMPI DUP3 MLOAD DUP3 SSTORE SWAP2 PUSH1 0x20 ADD SWAP2 SWAP1 PUSH1 0x1 ADD SWAP1 PUSH2 0x1406 JUMP JUMPDEST JUMPDEST POP SWAP1 POP PUSH2 0x142F SWAP2 SWAP1 PUSH2 0x1433 JUMP JUMPDEST POP SWAP1 JUMP JUMPDEST JUMPDEST DUP1 DUP3 GT ISZERO PUSH2 0x144C JUMPI PUSH1 0x0 DUP2 PUSH1 0x0 SWAP1 SSTORE POP PUSH1 0x1 ADD PUSH2 0x1434 JUMP JUMPDEST POP SWAP1 JUMP JUMPDEST PUSH1 0x0 PUSH2 0x1463 PUSH2 0x145E DUP5 PUSH2 0x1A33 JUMP JUMPDEST PUSH2 0x1A0E JUMP JUMPDEST SWAP1 POP DUP3 DUP2 MSTORE PUSH1 0x20 DUP2 ADD DUP5 DUP5 DUP5 ADD GT ISZERO PUSH2 0x147F JUMPI PUSH2 0x147E PUSH2 0x1E0B JUMP JUMPDEST JUMPDEST PUSH2 0x148A DUP5 DUP3 DUP6 PUSH2 0x1BC5 JUMP JUMPDEST POP SWAP4 SWAP3 POP POP POP JUMP JUMPDEST PUSH1 0x0 DUP2 CALLDATALOAD SWAP1 POP PUSH2 0x14A1 DUP2 PUSH2 0x1F44 JUMP JUMPDEST SWAP3 SWAP2 POP POP JUMP JUMPDEST PUSH1 0x0 DUP3 PUSH1 0x1F DUP4 ADD SLT PUSH2 0x14BC JUMPI PUSH2 0x14BB PUSH2 0x1E06 JUMP JUMPDEST JUMPDEST DUP2 CALLDATALOAD PUSH2 0x14CC DUP5 DUP3 PUSH1 0x20 DUP7 ADD PUSH2 0x1450 JUMP JUMPDEST SWAP2 POP POP SWAP3 SWAP2 POP POP JUMP JUMPDEST PUSH1 0x0 DUP2 CALLDATALOAD SWAP1 POP PUSH2 0x14E4 DUP2 PUSH2 0x1F5B JUMP JUMPDEST SWAP3 SWAP2 POP POP JUMP JUMPDEST PUSH1 0x0 PUSH1 0x20 DUP3 DUP5 SUB SLT ISZERO PUSH2 0x1500 JUMPI PUSH2 0x14FF PUSH2 0x1E15 JUMP JUMPDEST JUMPDEST PUSH1 0x0 PUSH2 0x150E DUP5 DUP3 DUP6 ADD PUSH2 0x1492 JUMP JUMPDEST SWAP2 POP POP SWAP3 SWAP2 POP POP JUMP JUMPDEST PUSH1 0x0 DUP1 PUSH1 0x40 DUP4 DUP6 SUB SLT ISZERO PUSH2 0x152E JUMPI PUSH2 0x152D PUSH2 0x1E15 JUMP JUMPDEST JUMPDEST PUSH1 0x0 PUSH2 0x153C DUP6 DUP3 DUP7 ADD PUSH2 0x1492 JUMP JUMPDEST SWAP3 POP POP PUSH1 0x20 PUSH2 0x154D DUP6 DUP3 DUP7 ADD PUSH2 0x14D5 JUMP JUMPDEST SWAP2 POP POP SWAP3 POP SWAP3 SWAP1 POP JUMP JUMPDEST PUSH1 0x0 DUP1 PUSH1 0x0 PUSH1 0x60 DUP5 DUP7 SUB SLT ISZERO PUSH2 0x1570 JUMPI PUSH2 0x156F PUSH2 0x1E15 JUMP JUMPDEST JUMPDEST PUSH1 0x0 DUP5 ADD CALLDATALOAD PUSH8 0xFFFFFFFFFFFFFFFF DUP2 GT ISZERO PUSH2 0x158E JUMPI PUSH2 0x158D PUSH2 0x1E10 JUMP JUMPDEST JUMPDEST PUSH2 0x159A DUP7 DUP3 DUP8 ADD PUSH2 0x14A7 JUMP JUMPDEST SWAP4 POP POP PUSH1 0x20 DUP5 ADD CALLDATALOAD PUSH8 0xFFFFFFFFFFFFFFFF DUP2 GT ISZERO PUSH2 0x15BB JUMPI PUSH2 0x15BA PUSH2 0x1E10 JUMP JUMPDEST JUMPDEST PUSH2 0x15C7 DUP7 DUP3 DUP8 ADD PUSH2 0x14A7 JUMP JUMPDEST SWAP3 POP POP PUSH1 0x40 DUP5 ADD CALLDATALOAD PUSH8 0xFFFFFFFFFFFFFFFF DUP2 GT ISZERO PUSH2 0x15E8 JUMPI PUSH2 0x15E7 PUSH2 0x1E10 JUMP JUMPDEST JUMPDEST PUSH2 0x15F4 DUP7 DUP3 DUP8 ADD PUSH2 0x14A7 JUMP JUMPDEST SWAP2 POP POP SWAP3 POP SWAP3 POP SWAP3 JUMP JUMPDEST PUSH1 0x0 PUSH1 0x20 DUP3 DUP5 SUB SLT ISZERO PUSH2 0x1614 JUMPI PUSH2 0x1613 PUSH2 0x1E15 JUMP JUMPDEST JUMPDEST PUSH1 0x0 PUSH2 0x1622 DUP5 DUP3 DUP6 ADD PUSH2 0x14D5 JUMP JUMPDEST SWAP2 POP POP SWAP3 SWAP2 POP POP JUMP JUMPDEST PUSH2 0x1634 DUP2 PUSH2 0x1B79 JUMP JUMPDEST DUP3 MSTORE POP POP JUMP JUMPDEST PUSH1 0x0 PUSH2 0x1645 DUP3 PUSH2 0x1A79 JUMP JUMPDEST PUSH2 0x164F DUP2 DUP6 PUSH2 0x1A84 JUMP JUMPDEST SWAP4 POP PUSH2 0x165F DUP2 DUP6 PUSH1 0x20 DUP7 ADD PUSH2 0x1BD4 JUMP JUMPDEST PUSH2 0x1668 DUP2 PUSH2 0x1E1A JUMP JUMPDEST DUP5 ADD SWAP2 POP POP SWAP3 SWAP2 POP POP JUMP JUMPDEST PUSH1 0x0 DUP2 SLOAD PUSH2 0x1680 DUP2 PUSH2 0x1C07 JUMP JUMPDEST PUSH2 0x168A DUP2 DUP7 PUSH2 0x1A84 JUMP JUMPDEST SWAP5 POP PUSH1 0x1 DUP3 AND PUSH1 0x0 DUP2 EQ PUSH2 0x16A5 JUMPI PUSH1 0x1 DUP2 EQ PUSH2 0x16B7 JUMPI PUSH2 0x16EA JUMP JUMPDEST PUSH1 0xFF NOT DUP4 AND DUP7 MSTORE PUSH1 0x20 DUP7 ADD SWAP4 POP PUSH2 0x16EA JUMP JUMPDEST PUSH2 0x16C0 DUP6 PUSH2 0x1A64 JUMP JUMPDEST PUSH1 0x0 JUMPDEST DUP4 DUP2 LT ISZERO PUSH2 0x16E2 JUMPI DUP2 SLOAD DUP2 DUP10 ADD MSTORE PUSH1 0x1 DUP3 ADD SWAP2 POP PUSH1 0x20 DUP2 ADD SWAP1 POP PUSH2 0x16C3 JUMP JUMPDEST DUP1 DUP9 ADD SWAP6 POP POP POP JUMPDEST POP POP POP SWAP3 SWAP2 POP POP JUMP JUMPDEST PUSH1 0x0 PUSH2 0x1700 PUSH1 0x28 DUP4 PUSH2 0x1A84 JUMP JUMPDEST SWAP2 POP PUSH2 0x170B DUP3 PUSH2 0x1E2B JUMP JUMPDEST PUSH1 0x40 DUP3 ADD SWAP1 POP SWAP2 SWAP1 POP JUMP JUMPDEST PUSH1 0x0 PUSH2 0x1723 PUSH1 0x26 DUP4 PUSH2 0x1A84 JUMP JUMPDEST SWAP2 POP PUSH2 0x172E DUP3 PUSH2 0x1E7A JUMP JUMPDEST PUSH1 0x40 DUP3 ADD SWAP1 POP SWAP2 SWAP1 POP JUMP JUMPDEST PUSH1 0x0 PUSH2 0x1746 PUSH1 0xC DUP4 PUSH2 0x1A84 JUMP JUMPDEST SWAP2 POP PUSH2 0x1751 DUP3 PUSH2 0x1EC9 JUMP JUMPDEST PUSH1 0x20 DUP3 ADD SWAP1 POP SWAP2 SWAP1 POP JUMP JUMPDEST PUSH1 0x0 PUSH2 0x1769 PUSH1 0x20 DUP4 PUSH2 0x1A84 JUMP JUMPDEST SWAP2 POP PUSH2 0x1774 DUP3 PUSH2 0x1EF2 JUMP JUMPDEST PUSH1 0x20 DUP3 ADD SWAP1 POP SWAP2 SWAP1 POP JUMP JUMPDEST PUSH1 0x0 PUSH2 0x178C PUSH1 0x15 DUP4 PUSH2 0x1A84 JUMP JUMPDEST SWAP2 POP PUSH2 0x1797 DUP3 PUSH2 0x1F1B JUMP JUMPDEST PUSH1 0x20 DUP3 ADD SWAP1 POP SWAP2 SWAP1 POP JUMP JUMPDEST PUSH2 0x17AB DUP2 PUSH2 0x1BAB JUMP JUMPDEST DUP3 MSTORE POP POP JUMP JUMPDEST PUSH2 0x17C2 PUSH2 0x17BD DUP3 PUSH2 0x1BAB JUMP JUMPDEST PUSH2 0x1CE0 JUMP JUMPDEST DUP3 MSTORE POP POP JUMP JUMPDEST PUSH2 0x17D1 DUP2 PUSH2 0x1BB5 JUMP JUMPDEST DUP3 MSTORE POP POP JUMP JUMPDEST PUSH1 0x0 PUSH2 0x17E3 DUP3 DUP7 PUSH2 0x17B1 JUMP JUMPDEST PUSH1 0x20 DUP3 ADD SWAP2 POP PUSH2 0x17F3 DUP3 DUP6 PUSH2 0x17B1 JUMP JUMPDEST PUSH1 0x20 DUP3 ADD SWAP2 POP PUSH2 0x1803 DUP3 DUP5 PUSH2 0x17B1 JUMP JUMPDEST PUSH1 0x20 DUP3 ADD SWAP2 POP DUP2 SWAP1 POP SWAP5 SWAP4 POP POP POP POP JUMP JUMPDEST PUSH1 0x0 PUSH1 0x20 DUP3 ADD SWAP1 POP PUSH2 0x1829 PUSH1 0x0 DUP4 ADD DUP5 PUSH2 0x162B JUMP JUMPDEST SWAP3 SWAP2 POP POP JUMP JUMPDEST PUSH1 0x0 PUSH2 0x100 DUP3 ADD SWAP1 POP PUSH2 0x1845 PUSH1 0x0 DUP4 ADD DUP12 PUSH2 0x162B JUMP JUMPDEST DUP2 DUP2 SUB PUSH1 0x20 DUP4 ADD MSTORE PUSH2 0x1857 DUP2 DUP11 PUSH2 0x163A JUMP JUMPDEST SWAP1 POP DUP2 DUP2 SUB PUSH1 0x40 DUP4 ADD MSTORE PUSH2 0x186B DUP2 DUP10 PUSH2 0x163A JUMP JUMPDEST SWAP1 POP DUP2 DUP2 SUB PUSH1 0x60 DUP4 ADD MSTORE PUSH2 0x187F DUP2 DUP9 PUSH2 0x163A JUMP JUMPDEST SWAP1 POP PUSH2 0x188E PUSH1 0x80 DUP4 ADD DUP8 PUSH2 0x17A2 JUMP JUMPDEST PUSH2 0x189B PUSH1 0xA0 DUP4 ADD DUP7 PUSH2 0x17A2 JUMP JUMPDEST PUSH2 0x18A8 PUSH1 0xC0 DUP4 ADD DUP6 PUSH2 0x17A2 JUMP JUMPDEST PUSH2 0x18B5 PUSH1 0xE0 DUP4 ADD DUP5 PUSH2 0x17C8 JUMP JUMPDEST SWAP10 SWAP9 POP POP POP POP POP POP POP POP POP JUMP JUMPDEST PUSH1 0x0 PUSH1 0x20 DUP3 ADD SWAP1 POP DUP2 DUP2 SUB PUSH1 0x0 DUP4 ADD MSTORE PUSH2 0x18DC DUP2 DUP5 PUSH2 0x163A JUMP JUMPDEST SWAP1 POP SWAP3 SWAP2 POP POP JUMP JUMPDEST PUSH1 0x0 PUSH1 0x80 DUP3 ADD SWAP1 POP DUP2 DUP2 SUB PUSH1 0x0 DUP4 ADD MSTORE PUSH2 0x18FE DUP2 DUP8 PUSH2 0x1673 JUMP JUMPDEST SWAP1 POP DUP2 DUP2 SUB PUSH1 0x20 DUP4 ADD MSTORE PUSH2 0x1912 DUP2 DUP7 PUSH2 0x1673 JUMP JUMPDEST SWAP1 POP PUSH2 0x1921 PUSH1 0x40 DUP4 ADD DUP6 PUSH2 0x17C8 JUMP JUMPDEST PUSH2 0x192E PUSH1 0x60 DUP4 ADD DUP5 PUSH2 0x17A2 JUMP JUMPDEST SWAP6 SWAP5 POP POP POP POP POP JUMP JUMPDEST PUSH1 0x0 PUSH1 0x20 DUP3 ADD SWAP1 POP DUP2 DUP2 SUB PUSH1 0x0 DUP4 ADD MSTORE PUSH2 0x1950 DUP2 PUSH2 0x16F3 JUMP JUMPDEST SWAP1 POP SWAP2 SWAP1 POP JUMP JUMPDEST PUSH1 0x0 PUSH1 0x20 DUP3 ADD SWAP1 POP DUP2 DUP2 SUB PUSH1 0x0 DUP4 ADD MSTORE PUSH2 0x1970 DUP2 PUSH2 0x1716 JUMP JUMPDEST SWAP1 POP SWAP2 SWAP1 POP JUMP JUMPDEST PUSH1 0x0 PUSH1 0x40 DUP3 ADD SWAP1 POP DUP2 DUP2 SUB PUSH1 0x0 DUP4 ADD MSTORE PUSH2 0x1990 DUP2 PUSH2 0x1739 JUMP JUMPDEST SWAP1 POP PUSH2 0x199F PUSH1 0x20 DUP4 ADD DUP5 PUSH2 0x17A2 JUMP JUMPDEST SWAP3 SWAP2 POP POP JUMP JUMPDEST PUSH1 0x0 PUSH1 0x20 DUP3 ADD SWAP1 POP DUP2 DUP2 SUB PUSH1 0x0 DUP4 ADD MSTORE PUSH2 0x19BE DUP2 PUSH2 0x175C JUMP JUMPDEST SWAP1 POP SWAP2 SWAP1 POP JUMP JUMPDEST PUSH1 0x0 PUSH1 0x40 DUP3 ADD SWAP1 POP DUP2 DUP2 SUB PUSH1 0x0 DUP4 ADD MSTORE PUSH2 0x19DE DUP2 PUSH2 0x177F JUMP JUMPDEST SWAP1 POP PUSH2 0x19ED PUSH1 0x20 DUP4 ADD DUP5 PUSH2 0x17A2 JUMP JUMPDEST SWAP3 SWAP2 POP POP JUMP JUMPDEST PUSH1 0x0 PUSH1 0x20 DUP3 ADD SWAP1 POP PUSH2 0x1A08 PUSH1 0x0 DUP4 ADD DUP5 PUSH2 0x17A2 JUMP JUMPDEST SWAP3 SWAP2 POP POP JUMP JUMPDEST PUSH1 0x0 PUSH2 0x1A18 PUSH2 0x1A29 JUMP JUMPDEST SWAP1 POP PUSH2 0x1A24 DUP3 DUP3 PUSH2 0x1C39 JUMP JUMPDEST SWAP2 SWAP1 POP JUMP JUMPDEST PUSH1 0x0 PUSH1 0x40 MLOAD SWAP1 POP SWAP1 JUMP JUMPDEST PUSH1 0x0 PUSH8 0xFFFFFFFFFFFFFFFF DUP3 GT ISZERO PUSH2 0x1A4E JUMPI PUSH2 0x1A4D PUSH2 0x1DD7 JUMP JUMPDEST JUMPDEST PUSH2 0x1A57 DUP3 PUSH2 0x1E1A JUMP JUMPDEST SWAP1 POP PUSH1 0x20 DUP2 ADD SWAP1 POP SWAP2 SWAP1 POP JUMP JUMPDEST PUSH1 0x0 DUP2 SWAP1 POP DUP2 PUSH1 0x0 MSTORE PUSH1 0x20 PUSH1 0x0 KECCAK256 SWAP1 POP SWAP2 SWAP1 POP JUMP JUMPDEST PUSH1 0x0 DUP2 MLOAD SWAP1 POP SWAP2 SWAP1 POP JUMP JUMPDEST PUSH1 0x0 DUP3 DUP3 MSTORE PUSH1 0x20 DUP3 ADD SWAP1 POP SWAP3 SWAP2 POP POP JUMP JUMPDEST PUSH1 0x0 PUSH2 0x1AA0 DUP3 PUSH2 0x1BAB JUMP JUMPDEST SWAP2 POP PUSH2 0x1AAB DUP4 PUSH2 0x1BAB JUMP JUMPDEST SWAP3 POP DUP3 PUSH32 0xFFFFFFFFFFFFFFFFFFFFFFFFFFFFFFFFFFFFFFFFFFFFFFFFFFFFFFFFFFFFFFFF SUB DUP3 GT ISZERO PUSH2 0x1AE0 JUMPI PUSH2 0x1ADF PUSH2 0x1D1B JUMP JUMPDEST JUMPDEST DUP3 DUP3 ADD SWAP1 POP SWAP3 SWAP2 POP POP JUMP JUMPDEST PUSH1 0x0 PUSH2 0x1AF6 DUP3 PUSH2 0x1BAB JUMP JUMPDEST SWAP2 POP PUSH2 0x1B01 DUP4 PUSH2 0x1BAB JUMP JUMPDEST SWAP3 POP DUP2 PUSH32 0xFFFFFFFFFFFFFFFFFFFFFFFFFFFFFFFFFFFFFFFFFFFFFFFFFFFFFFFFFFFFFFFF DIV DUP4 GT DUP3 ISZERO ISZERO AND ISZERO PUSH2 0x1B3A JUMPI PUSH2 0x1B39 PUSH2 0x1D1B JUMP JUMPDEST JUMPDEST DUP3 DUP3 MUL SWAP1 POP SWAP3 SWAP2 POP POP JUMP JUMPDEST PUSH1 0x0 PUSH2 0x1B50 DUP3 PUSH2 0x1BAB JUMP JUMPDEST SWAP2 POP PUSH2 0x1B5B DUP4 PUSH2 0x1BAB JUMP JUMPDEST SWAP3 POP DUP3 DUP3 LT ISZERO PUSH2 0x1B6E JUMPI PUSH2 0x1B6D PUSH2 0x1D1B JUMP JUMPDEST JUMPDEST DUP3 DUP3 SUB SWAP1 POP SWAP3 SWAP2 POP POP JUMP JUMPDEST PUSH1 0x0 PUSH2 0x1B84 DUP3 PUSH2 0x1B8B JUMP JUMPDEST SWAP1 POP SWAP2 SWAP1 POP JUMP JUMPDEST PUSH1 0x0 PUSH20 0xFFFFFFFFFFFFFFFFFFFFFFFFFFFFFFFFFFFFFFFF DUP3 AND SWAP1 POP SWAP2 SWAP1 POP JUMP JUMPDEST PUSH1 0x0 DUP2 SWAP1 POP SWAP2 SWAP1 POP JUMP JUMPDEST PUSH1 0x0 PUSH4 0xFFFFFFFF DUP3 AND SWAP1 POP SWAP2 SWAP1 POP JUMP JUMPDEST DUP3 DUP2 DUP4 CALLDATACOPY PUSH1 0x0 DUP4 DUP4 ADD MSTORE POP POP POP JUMP JUMPDEST PUSH1 0x0 JUMPDEST DUP4 DUP2 LT ISZERO PUSH2 0x1BF2 JUMPI DUP1 DUP3 ADD MLOAD DUP2 DUP5 ADD MSTORE PUSH1 0x20 DUP2 ADD SWAP1 POP PUSH2 0x1BD7 JUMP JUMPDEST DUP4 DUP2 GT ISZERO PUSH2 0x1C01 JUMPI PUSH1 0x0 DUP5 DUP5 ADD MSTORE JUMPDEST POP POP POP POP JUMP JUMPDEST PUSH1 0x0 PUSH1 0x2 DUP3 DIV SWAP1 POP PUSH1 0x1 DUP3 AND DUP1 PUSH2 0x1C1F JUMPI PUSH1 0x7F DUP3 AND SWAP2 POP JUMPDEST PUSH1 0x20 DUP3 LT DUP2 EQ ISZERO PUSH2 0x1C33 JUMPI PUSH2 0x1C32 PUSH2 0x1D79 JUMP JUMPDEST JUMPDEST POP SWAP2 SWAP1 POP JUMP JUMPDEST PUSH2 0x1C42 DUP3 PUSH2 0x1E1A JUMP JUMPDEST DUP2 ADD DUP2 DUP2 LT PUSH8 0xFFFFFFFFFFFFFFFF DUP3 GT OR ISZERO PUSH2 0x1C61 JUMPI PUSH2 0x1C60 PUSH2 0x1DD7 JUMP JUMPDEST JUMPDEST DUP1 PUSH1 0x40 MSTORE POP POP POP JUMP JUMPDEST PUSH1 0x0 PUSH2 0x1C75 DUP3 PUSH2 0x1BAB JUMP JUMPDEST SWAP2 POP PUSH32 0xFFFFFFFFFFFFFFFFFFFFFFFFFFFFFFFFFFFFFFFFFFFFFFFFFFFFFFFFFFFFFFFF DUP3 EQ ISZERO PUSH2 0x1CA8 JUMPI PUSH2 0x1CA7 PUSH2 0x1D1B JUMP JUMPDEST JUMPDEST PUSH1 0x1 DUP3 ADD SWAP1 POP SWAP2 SWAP1 POP JUMP JUMPDEST PUSH1 0x0 PUSH2 0x1CBE DUP3 PUSH2 0x1BB5 JUMP JUMPDEST SWAP2 POP PUSH4 0xFFFFFFFF DUP3 EQ ISZERO PUSH2 0x1CD5 JUMPI PUSH2 0x1CD4 PUSH2 0x1D1B JUMP JUMPDEST JUMPDEST PUSH1 0x1 DUP3 ADD SWAP1 POP SWAP2 SWAP1 POP JUMP JUMPDEST PUSH1 0x0 DUP2 SWAP1 POP SWAP2 SWAP1 POP JUMP JUMPDEST PUSH1 0x0 PUSH2 0x1CF5 DUP3 PUSH2 0x1BAB JUMP JUMPDEST SWAP2 POP PUSH2 0x1D00 DUP4 PUSH2 0x1BAB JUMP JUMPDEST SWAP3 POP DUP3 PUSH2 0x1D10 JUMPI PUSH2 0x1D0F PUSH2 0x1D4A JUMP JUMPDEST JUMPDEST DUP3 DUP3 MOD SWAP1 POP SWAP3 SWAP2 POP POP JUMP JUMPDEST PUSH32 0x4E487B7100000000000000000000000000000000000000000000000000000000 PUSH1 0x0 MSTORE PUSH1 0x11 PUSH1 0x4 MSTORE PUSH1 0x24 PUSH1 0x0 REVERT JUMPDEST PUSH32 0x4E487B7100000000000000000000000000000000000000000000000000000000 PUSH1 0x0 MSTORE PUSH1 0x12 PUSH1 0x4 MSTORE PUSH1 0x24 PUSH1 0x0 REVERT JUMPDEST PUSH32 0x4E487B7100000000000000000000000000000000000000000000000000000000 PUSH1 0x0 MSTORE PUSH1 0x22 PUSH1 0x4 MSTORE PUSH1 0x24 PUSH1 0x0 REVERT JUMPDEST PUSH32 0x4E487B7100000000000000000000000000000000000000000000000000000000 PUSH1 0x0 MSTORE PUSH1 0x32 PUSH1 0x4 MSTORE PUSH1 0x24 PUSH1 0x0 REVERT JUMPDEST PUSH32 0x4E487B7100000000000000000000000000000000000000000000000000000000 PUSH1 0x0 MSTORE PUSH1 0x41 PUSH1 0x4 MSTORE PUSH1 0x24 PUSH1 0x0 REVERT JUMPDEST PUSH1 0x0 DUP1 REVERT JUMPDEST PUSH1 0x0 DUP1 REVERT JUMPDEST PUSH1 0x0 DUP1 REVERT JUMPDEST PUSH1 0x0 DUP1 REVERT JUMPDEST PUSH1 0x0 PUSH1 0x1F NOT PUSH1 0x1F DUP4 ADD AND SWAP1 POP SWAP2 SWAP1 POP JUMP JUMPDEST PUSH32 0x536F6C6F2073652070756564652074656E657220756E20636F63686520706F72 PUSH1 0x0 DUP3 ADD MSTORE PUSH32 0x20706572736F6E61000000000000000000000000000000000000000000000000 PUSH1 0x20 DUP3 ADD MSTORE POP JUMP JUMPDEST PUSH32 0x4F776E61626C653A206E6577206F776E657220697320746865207A65726F2061 PUSH1 0x0 DUP3 ADD MSTORE PUSH32 0x6464726573730000000000000000000000000000000000000000000000000000 PUSH1 0x20 DUP3 ADD MSTORE POP JUMP JUMPDEST PUSH32 0x4861732067616E61646F3A200000000000000000000000000000000000000000 PUSH1 0x0 DUP3 ADD MSTORE POP JUMP JUMPDEST PUSH32 0x4F776E61626C653A2063616C6C6572206973206E6F7420746865206F776E6572 PUSH1 0x0 DUP3 ADD MSTORE POP JUMP JUMPDEST PUSH32 0x456C20636F6368652067616E61646F722065733A200000000000000000000000 PUSH1 0x0 DUP3 ADD MSTORE POP JUMP JUMPDEST PUSH2 0x1F4D DUP2 PUSH2 0x1B79 JUMP JUMPDEST DUP2 EQ PUSH2 0x1F58 JUMPI PUSH1 0x0 DUP1 REVERT JUMPDEST POP JUMP JUMPDEST PUSH2 0x1F64 DUP2 PUSH2 0x1BAB JUMP JUMPDEST DUP2 EQ PUSH2 0x1F6F JUMPI PUSH1 0x0 DUP1 REVERT JUMPDEST POP JUMP INVALID LOG2 PUSH5 0x6970667358 0x22 SLT KECCAK256 DUP8 PUSH17 0x910C7F8C65DDC0B250945A3259FF897B71 0xDE 0xB4 0xD2 CODESIZE 0x2C 0xEA 0xE3 PUSH8 0xC95A401CF364736F PUSH13 0x63430008070033000000000000 "
				},
				"gasEstimates": {
					"creation": {
						"codeDepositCost": "1620800",
						"executionCost": "infinite",
						"totalCost": "infinite"
					},
					"external": {
						"Apostar(uint256)": "infinite",
						"_owner()": "2533",
						"anadirCoche(string,string,string)": "infinite",
						"approve(address,uint256)": "652",
						"balanceOf(address)": "2930",
						"cocheDePropietario(uint256)": "2884",
						"listaCoches(uint256)": "infinite",
						"numeroCochesPersona(address)": "2882",
						"owner()": "2589",
						"ownerOf(uint256)": "2888",
						"renounceOwnership()": "30397",
						"retirarDinero()": "infinite",
						"subirDeNivel(address)": "infinite",
						"takeOwnership(uint256)": "450",
						"transfer(address,uint256)": "717",
						"transferOwnership(address)": "30833",
						"verCochePropietario(address)": "infinite"
					},
					"internal": {
						"_transfer(address,address,uint256)": "infinite"
					}
				},
				"methodIdentifiers": {
					"Apostar(uint256)": "6b6f0494",
					"_owner()": "b2bdfa7b",
					"anadirCoche(string,string,string)": "2458c544",
					"approve(address,uint256)": "095ea7b3",
					"balanceOf(address)": "70a08231",
					"cocheDePropietario(uint256)": "858b0554",
					"listaCoches(uint256)": "d735573d",
					"numeroCochesPersona(address)": "1c6743e4",
					"owner()": "8da5cb5b",
					"ownerOf(uint256)": "6352211e",
					"renounceOwnership()": "715018a6",
					"retirarDinero()": "1bfdc150",
					"subirDeNivel(address)": "6a7d1816",
					"takeOwnership(uint256)": "b2e6ceeb",
					"transfer(address,uint256)": "a9059cbb",
					"transferOwnership(address)": "f2fde38b",
					"verCochePropietario(address)": "e172fca8"
				}
			},
			"storageLayout": {
				"storage": [
					{
						"astId": 129,
						"contract": "contracts/CarreraCoches/cocheToken.sol:CocheToken",
						"label": "_owner",
						"offset": 0,
						"slot": "0",
						"type": "t_address"
					},
					{
						"astId": 251,
						"contract": "contracts/CarreraCoches/cocheToken.sol:CocheToken",
						"label": "randNonce",
						"offset": 0,
						"slot": "1",
						"type": "t_uint256"
					},
					{
						"astId": 254,
						"contract": "contracts/CarreraCoches/cocheToken.sol:CocheToken",
						"label": "contador",
						"offset": 0,
						"slot": "2",
						"type": "t_uint256"
					},
					{
						"astId": 257,
						"contract": "contracts/CarreraCoches/cocheToken.sol:CocheToken",
						"label": "cooldown",
						"offset": 0,
						"slot": "3",
						"type": "t_uint256"
					},
					{
						"astId": 260,
						"contract": "contracts/CarreraCoches/cocheToken.sol:CocheToken",
						"label": "subirNivel",
						"offset": 0,
						"slot": "4",
						"type": "t_uint256"
					},
					{
						"astId": 264,
						"contract": "contracts/CarreraCoches/cocheToken.sol:CocheToken",
						"label": "listaCoches",
						"offset": 0,
						"slot": "5",
						"type": "t_array(t_struct(Coche)248_storage)dyn_storage"
					},
					{
						"astId": 292,
						"contract": "contracts/CarreraCoches/cocheToken.sol:CocheToken",
						"label": "cocheDePropietario",
						"offset": 0,
						"slot": "6",
						"type": "t_mapping(t_uint256,t_address)"
					},
					{
						"astId": 296,
						"contract": "contracts/CarreraCoches/cocheToken.sol:CocheToken",
						"label": "numeroCochesPersona",
						"offset": 0,
						"slot": "7",
						"type": "t_mapping(t_address,t_uint256)"
					}
				],
				"types": {
					"t_address": {
						"encoding": "inplace",
						"label": "address",
						"numberOfBytes": "20"
					},
					"t_array(t_struct(Coche)248_storage)dyn_storage": {
						"base": "t_struct(Coche)248_storage",
						"encoding": "dynamic_array",
						"label": "struct CarreraCoches.Coche[]",
						"numberOfBytes": "32"
					},
					"t_mapping(t_address,t_uint256)": {
						"encoding": "mapping",
						"key": "t_address",
						"label": "mapping(address => uint256)",
						"numberOfBytes": "32",
						"value": "t_uint256"
					},
					"t_mapping(t_uint256,t_address)": {
						"encoding": "mapping",
						"key": "t_uint256",
						"label": "mapping(uint256 => address)",
						"numberOfBytes": "32",
						"value": "t_address"
					},
					"t_string_storage": {
						"encoding": "bytes",
						"label": "string",
						"numberOfBytes": "32"
					},
					"t_struct(Coche)248_storage": {
						"encoding": "inplace",
						"label": "struct CarreraCoches.Coche",
						"members": [
							{
								"astId": 233,
								"contract": "contracts/CarreraCoches/cocheToken.sol:CocheToken",
								"label": "idPiloto",
								"offset": 0,
								"slot": "0",
								"type": "t_address"
							},
							{
								"astId": 235,
								"contract": "contracts/CarreraCoches/cocheToken.sol:CocheToken",
								"label": "modelo",
								"offset": 0,
								"slot": "1",
								"type": "t_string_storage"
							},
							{
								"astId": 237,
								"contract": "contracts/CarreraCoches/cocheToken.sol:CocheToken",
								"label": "marca",
								"offset": 0,
								"slot": "2",
								"type": "t_string_storage"
							},
							{
								"astId": 239,
								"contract": "contracts/CarreraCoches/cocheToken.sol:CocheToken",
								"label": "nombrePiloto",
								"offset": 0,
								"slot": "3",
								"type": "t_string_storage"
							},
							{
								"astId": 241,
								"contract": "contracts/CarreraCoches/cocheToken.sol:CocheToken",
								"label": "carrerasGanadas",
								"offset": 0,
								"slot": "4",
								"type": "t_uint256"
							},
							{
								"astId": 243,
								"contract": "contracts/CarreraCoches/cocheToken.sol:CocheToken",
								"label": "carrerasTotales",
								"offset": 0,
								"slot": "5",
								"type": "t_uint256"
							},
							{
								"astId": 245,
								"contract": "contracts/CarreraCoches/cocheToken.sol:CocheToken",
								"label": "tiempoEspera",
								"offset": 0,
								"slot": "6",
								"type": "t_uint256"
							},
							{
								"astId": 247,
								"contract": "contracts/CarreraCoches/cocheToken.sol:CocheToken",
								"label": "nivel",
								"offset": 0,
								"slot": "7",
								"type": "t_uint32"
							}
						],
						"numberOfBytes": "256"
					},
					"t_uint256": {
						"encoding": "inplace",
						"label": "uint256",
						"numberOfBytes": "32"
					},
					"t_uint32": {
						"encoding": "inplace",
						"label": "uint32",
						"numberOfBytes": "4"
					}
				}
			},
			"userdoc": {
				"kind": "user",
				"methods": {},
				"version": 1
			}
		}
	}
}