{
	"contracts/CarreraCoches/principal.sol": {
		"CarreraCoches": {
			"abi": [
				{
					"anonymous": false,
					"inputs": [
						{
							"indexed": true,
							"internalType": "address",
							"name": "previousOwner",
							"type": "address"
						},
						{
							"indexed": true,
							"internalType": "address",
							"name": "newOwner",
							"type": "address"
						}
					],
					"name": "OwnershipTransferred",
					"type": "event"
				},
				{
					"anonymous": false,
					"inputs": [
						{
							"indexed": false,
							"internalType": "string",
							"name": "mo",
							"type": "string"
						},
						{
							"indexed": false,
							"internalType": "string",
							"name": "ma",
							"type": "string"
						}
					],
					"name": "cochePropietario",
					"type": "event"
				},
				{
					"anonymous": false,
					"inputs": [
						{
							"indexed": false,
							"internalType": "uint256",
							"name": "compr",
							"type": "uint256"
						}
					],
					"name": "comprobar",
					"type": "event"
				},
				{
					"anonymous": false,
					"inputs": [
						{
							"indexed": false,
							"internalType": "string",
							"name": "ms",
							"type": "string"
						}
					],
					"name": "confirmacionDepositoLleno",
					"type": "event"
				},
				{
					"anonymous": false,
					"inputs": [
						{
							"indexed": false,
							"internalType": "string",
							"name": "ms",
							"type": "string"
						},
						{
							"indexed": false,
							"internalType": "uint256",
							"name": "res",
							"type": "uint256"
						}
					],
					"name": "mostrarResultado",
					"type": "event"
				},
				{
					"inputs": [
						{
							"internalType": "uint256",
							"name": "dineroApostar",
							"type": "uint256"
						}
					],
					"name": "Apostar",
					"outputs": [
						{
							"internalType": "string",
							"name": "",
							"type": "string"
						}
					],
					"stateMutability": "payable",
					"type": "function"
				},
				{
					"inputs": [
						{
							"internalType": "string",
							"name": "_modelo",
							"type": "string"
						},
						{
							"internalType": "string",
							"name": "_marca",
							"type": "string"
						},
						{
							"internalType": "string",
							"name": "_nombrePiloto",
							"type": "string"
						}
					],
					"name": "anadirCoche",
					"outputs": [
						{
							"internalType": "uint256",
							"name": "",
							"type": "uint256"
						}
					],
					"stateMutability": "nonpayable",
					"type": "function"
				},
				{
					"inputs": [
						{
							"internalType": "uint256",
							"name": "",
							"type": "uint256"
						}
					],
					"name": "cocheDePropietario",
					"outputs": [
						{
							"internalType": "address",
							"name": "",
							"type": "address"
						}
					],
					"stateMutability": "view",
					"type": "function"
				},
				{
					"inputs": [
						{
							"internalType": "uint256",
							"name": "",
							"type": "uint256"
						}
					],
					"name": "listaCoches",
					"outputs": [
						{
							"internalType": "address",
							"name": "idPiloto",
							"type": "address"
						},
						{
							"internalType": "string",
							"name": "modelo",
							"type": "string"
						},
						{
							"internalType": "string",
							"name": "marca",
							"type": "string"
						},
						{
							"internalType": "string",
							"name": "nombrePiloto",
							"type": "string"
						},
						{
							"internalType": "uint256",
							"name": "carrerasGanadas",
							"type": "uint256"
						},
						{
							"internalType": "uint256",
							"name": "carrerasTotales",
							"type": "uint256"
						},
						{
							"internalType": "uint256",
							"name": "tiempoEspera",
							"type": "uint256"
						},
						{
							"internalType": "uint32",
							"name": "nivel",
							"type": "uint32"
						}
					],
					"stateMutability": "view",
					"type": "function"
				},
				{
					"inputs": [
						{
							"internalType": "address",
							"name": "",
							"type": "address"
						}
					],
					"name": "numeroCochesPersona",
					"outputs": [
						{
							"internalType": "uint256",
							"name": "",
							"type": "uint256"
						}
					],
					"stateMutability": "view",
					"type": "function"
				},
				{
					"inputs": [],
					"name": "owner",
					"outputs": [
						{
							"internalType": "address",
							"name": "",
							"type": "address"
						}
					],
					"stateMutability": "view",
					"type": "function"
				},
				{
					"inputs": [],
					"name": "renounceOwnership",
					"outputs": [],
					"stateMutability": "nonpayable",
					"type": "function"
				},
				{
					"inputs": [
						{
							"internalType": "address",
							"name": "newOwner",
							"type": "address"
						}
					],
					"name": "transferOwnership",
					"outputs": [],
					"stateMutability": "nonpayable",
					"type": "function"
				},
				{
					"inputs": [
						{
							"internalType": "address",
							"name": "_propietario",
							"type": "address"
						}
					],
					"name": "verCochePropietario",
					"outputs": [
						{
							"internalType": "uint256[]",
							"name": "",
							"type": "uint256[]"
						}
					],
					"stateMutability": "nonpayable",
					"type": "function"
				}
			],
			"devdoc": {
				"kind": "dev",
				"methods": {
					"owner()": {
						"details": "Returns the address of the current owner."
					},
					"renounceOwnership()": {
						"details": "Leaves the contract without owner. It will not be possible to call `onlyOwner` functions anymore. Can only be called by the current owner. NOTE: Renouncing ownership will leave the contract without an owner, thereby removing any functionality that is only available to the owner."
					},
					"transferOwnership(address)": {
						"details": "Transfers ownership of the contract to a new account (`newOwner`). Can only be called by the current owner."
					}
				},
				"version": 1
			},
			"evm": {
				"assembly": "    /* \"contracts/CarreraCoches/principal.sol\":54:3945  contract CarreraCoches is Ownable {\r... */\n  mstore(0x40, 0x80)\n    /* \"contracts/CarreraCoches/principal.sol\":370:371  0 */\n  0x00\n    /* \"contracts/CarreraCoches/principal.sol\":353:371  uint randNonce = 0 */\n  0x01\n  sstore\n    /* \"contracts/CarreraCoches/principal.sol\":494:495  0 */\n  0x00\n    /* \"contracts/CarreraCoches/principal.sol\":478:495  uint contador = 0 */\n  0x02\n  sstore\n    /* \"contracts/CarreraCoches/principal.sol\":518:528  60 seconds */\n  0x3c\n    /* \"contracts/CarreraCoches/principal.sol\":502:528  uint cooldown = 60 seconds */\n  0x03\n  sstore\n    /* \"contracts/CarreraCoches/principal.sol\":54:3945  contract CarreraCoches is Ownable {\r... */\n  callvalue\n  dup1\n  iszero\n  tag_1\n  jumpi\n  0x00\n  dup1\n  revert\ntag_1:\n  pop\n    /* \"contracts/CarreraCoches/ownable.sol\":948:980  _transferOwnership(_msgSender()) */\n  tag_4\n    /* \"contracts/CarreraCoches/ownable.sol\":967:979  _msgSender() */\n  tag_5\n    /* \"contracts/CarreraCoches/ownable.sol\":967:977  _msgSender */\n  shl(0x20, tag_6)\n    /* \"contracts/CarreraCoches/ownable.sol\":967:979  _msgSender() */\n  0x20\n  shr\n  jump\t// in\ntag_5:\n    /* \"contracts/CarreraCoches/ownable.sol\":948:966  _transferOwnership */\n  shl(0x20, tag_7)\n    /* \"contracts/CarreraCoches/ownable.sol\":948:980  _transferOwnership(_msgSender()) */\n  0x20\n  shr\n  jump\t// in\ntag_4:\n    /* \"contracts/CarreraCoches/principal.sol\":54:3945  contract CarreraCoches is Ownable {\r... */\n  jump(tag_8)\n    /* \"contracts/CarreraCoches/utils/Context.sol\":656:754  function _msgSender() internal view virtual returns (address) {\r... */\ntag_6:\n    /* \"contracts/CarreraCoches/utils/Context.sol\":709:716  address */\n  0x00\n    /* \"contracts/CarreraCoches/utils/Context.sol\":736:746  msg.sender */\n  caller\n    /* \"contracts/CarreraCoches/utils/Context.sol\":729:746  return msg.sender */\n  swap1\n  pop\n    /* \"contracts/CarreraCoches/utils/Context.sol\":656:754  function _msgSender() internal view virtual returns (address) {\r... */\n  swap1\n  jump\t// out\n    /* \"contracts/CarreraCoches/ownable.sol\":2339:2530  function _transferOwnership(address newOwner) internal virtual {\r... */\ntag_7:\n    /* \"contracts/CarreraCoches/ownable.sol\":2413:2429  address oldOwner */\n  0x00\n    /* \"contracts/CarreraCoches/ownable.sol\":2432:2438  _owner */\n  dup1\n  0x00\n  swap1\n  sload\n  swap1\n  0x0100\n  exp\n  swap1\n  div\n  0xffffffffffffffffffffffffffffffffffffffff\n  and\n    /* \"contracts/CarreraCoches/ownable.sol\":2413:2438  address oldOwner = _owner */\n  swap1\n  pop\n    /* \"contracts/CarreraCoches/ownable.sol\":2458:2466  newOwner */\n  dup2\n    /* \"contracts/CarreraCoches/ownable.sol\":2449:2455  _owner */\n  0x00\n  dup1\n    /* \"contracts/CarreraCoches/ownable.sol\":2449:2466  _owner = newOwner */\n  0x0100\n  exp\n  dup2\n  sload\n  dup2\n  0xffffffffffffffffffffffffffffffffffffffff\n  mul\n  not\n  and\n  swap1\n  dup4\n  0xffffffffffffffffffffffffffffffffffffffff\n  and\n  mul\n  or\n  swap1\n  sstore\n  pop\n    /* \"contracts/CarreraCoches/ownable.sol\":2513:2521  newOwner */\n  dup2\n    /* \"contracts/CarreraCoches/ownable.sol\":2482:2522  OwnershipTransferred(oldOwner, newOwner) */\n  0xffffffffffffffffffffffffffffffffffffffff\n  and\n    /* \"contracts/CarreraCoches/ownable.sol\":2503:2511  oldOwner */\n  dup2\n    /* \"contracts/CarreraCoches/ownable.sol\":2482:2522  OwnershipTransferred(oldOwner, newOwner) */\n  0xffffffffffffffffffffffffffffffffffffffff\n  and\n  0x8be0079c531659141344cd1fd0a4f28419497f9722a3daafe3b4186f6b6457e0\n  mload(0x40)\n  mload(0x40)\n  dup1\n  swap2\n  sub\n  swap1\n  log3\n    /* \"contracts/CarreraCoches/ownable.sol\":2402:2530  {\r... */\n  pop\n    /* \"contracts/CarreraCoches/ownable.sol\":2339:2530  function _transferOwnership(address newOwner) internal virtual {\r... */\n  pop\n  jump\t// out\n    /* \"contracts/CarreraCoches/principal.sol\":54:3945  contract CarreraCoches is Ownable {\r... */\ntag_8:\n  dataSize(sub_0)\n  dup1\n  dataOffset(sub_0)\n  0x00\n  codecopy\n  0x00\n  return\nstop\n\nsub_0: assembly {\n        /* \"contracts/CarreraCoches/principal.sol\":54:3945  contract CarreraCoches is Ownable {\r... */\n      mstore(0x40, 0x80)\n      jumpi(tag_1, lt(calldatasize, 0x04))\n      shr(0xe0, calldataload(0x00))\n      dup1\n      0x858b0554\n      gt\n      tag_11\n      jumpi\n      dup1\n      0x858b0554\n      eq\n      tag_6\n      jumpi\n      dup1\n      0x8da5cb5b\n      eq\n      tag_7\n      jumpi\n      dup1\n      0xd735573d\n      eq\n      tag_8\n      jumpi\n      dup1\n      0xe172fca8\n      eq\n      tag_9\n      jumpi\n      dup1\n      0xf2fde38b\n      eq\n      tag_10\n      jumpi\n      jump(tag_1)\n    tag_11:\n      dup1\n      0x1c6743e4\n      eq\n      tag_2\n      jumpi\n      dup1\n      0x2458c544\n      eq\n      tag_3\n      jumpi\n      dup1\n      0x6b6f0494\n      eq\n      tag_4\n      jumpi\n      dup1\n      0x715018a6\n      eq\n      tag_5\n      jumpi\n    tag_1:\n      0x00\n      dup1\n      revert\n        /* \"contracts/CarreraCoches/principal.sol\":816:868  mapping (address => uint) public numeroCochesPersona */\n    tag_2:\n      callvalue\n      dup1\n      iszero\n      tag_12\n      jumpi\n      0x00\n      dup1\n      revert\n    tag_12:\n      pop\n      tag_13\n      0x04\n      dup1\n      calldatasize\n      sub\n      dup2\n      add\n      swap1\n      tag_14\n      swap2\n      swap1\n      tag_15\n      jump\t// in\n    tag_14:\n      tag_16\n      jump\t// in\n    tag_13:\n      mload(0x40)\n      tag_17\n      swap2\n      swap1\n      tag_18\n      jump\t// in\n    tag_17:\n      mload(0x40)\n      dup1\n      swap2\n      sub\n      swap1\n      return\n        /* \"contracts/CarreraCoches/principal.sol\":1111:1551  function anadirCoche(string memory _modelo, string memory _marca, string memory _nombrePiloto) public restriccion returns (uint) {\r... */\n    tag_3:\n      callvalue\n      dup1\n      iszero\n      tag_19\n      jumpi\n      0x00\n      dup1\n      revert\n    tag_19:\n      pop\n      tag_20\n      0x04\n      dup1\n      calldatasize\n      sub\n      dup2\n      add\n      swap1\n      tag_21\n      swap2\n      swap1\n      tag_22\n      jump\t// in\n    tag_21:\n      tag_23\n      jump\t// in\n    tag_20:\n      mload(0x40)\n      tag_24\n      swap2\n      swap1\n      tag_18\n      jump\t// in\n    tag_24:\n      mload(0x40)\n      dup1\n      swap2\n      sub\n      swap1\n      return\n        /* \"contracts/CarreraCoches/principal.sol\":2530:3706  function Apostar(uint dineroApostar) public payable returns(string memory) {\r... */\n    tag_4:\n      tag_25\n      0x04\n      dup1\n      calldatasize\n      sub\n      dup2\n      add\n      swap1\n      tag_26\n      swap2\n      swap1\n      tag_27\n      jump\t// in\n    tag_26:\n      tag_28\n      jump\t// in\n    tag_25:\n      mload(0x40)\n      tag_29\n      swap2\n      swap1\n      tag_30\n      jump\t// in\n    tag_29:\n      mload(0x40)\n      dup1\n      swap2\n      sub\n      swap1\n      return\n        /* \"contracts/CarreraCoches/ownable.sol\":1720:1823  function renounceOwnership() public virtual onlyOwner {\r... */\n    tag_5:\n      callvalue\n      dup1\n      iszero\n      tag_31\n      jumpi\n      0x00\n      dup1\n      revert\n    tag_31:\n      pop\n      tag_32\n      tag_33\n      jump\t// in\n    tag_32:\n      stop\n        /* \"contracts/CarreraCoches/principal.sol\":758:809  mapping (uint => address) public cocheDePropietario */\n    tag_6:\n      callvalue\n      dup1\n      iszero\n      tag_34\n      jumpi\n      0x00\n      dup1\n      revert\n    tag_34:\n      pop\n      tag_35\n      0x04\n      dup1\n      calldatasize\n      sub\n      dup2\n      add\n      swap1\n      tag_36\n      swap2\n      swap1\n      tag_27\n      jump\t// in\n    tag_36:\n      tag_37\n      jump\t// in\n    tag_35:\n      mload(0x40)\n      tag_38\n      swap2\n      swap1\n      tag_39\n      jump\t// in\n    tag_38:\n      mload(0x40)\n      dup1\n      swap2\n      sub\n      swap1\n      return\n        /* \"contracts/CarreraCoches/ownable.sol\":1069:1156  function owner() public view virtual returns (address) {\r... */\n    tag_7:\n      callvalue\n      dup1\n      iszero\n      tag_40\n      jumpi\n      0x00\n      dup1\n      revert\n    tag_40:\n      pop\n      tag_41\n      tag_42\n      jump\t// in\n    tag_41:\n      mload(0x40)\n      tag_43\n      swap2\n      swap1\n      tag_39\n      jump\t// in\n    tag_43:\n      mload(0x40)\n      dup1\n      swap2\n      sub\n      swap1\n      return\n        /* \"contracts/CarreraCoches/principal.sol\":537:563  Coche[] public listaCoches */\n    tag_8:\n      callvalue\n      dup1\n      iszero\n      tag_44\n      jumpi\n      0x00\n      dup1\n      revert\n    tag_44:\n      pop\n      tag_45\n      0x04\n      dup1\n      calldatasize\n      sub\n      dup2\n      add\n      swap1\n      tag_46\n      swap2\n      swap1\n      tag_27\n      jump\t// in\n    tag_46:\n      tag_47\n      jump\t// in\n    tag_45:\n      mload(0x40)\n      tag_48\n      swap9\n      swap8\n      swap7\n      swap6\n      swap5\n      swap4\n      swap3\n      swap2\n      swap1\n      tag_49\n      jump\t// in\n    tag_48:\n      mload(0x40)\n      dup1\n      swap2\n      sub\n      swap1\n      return\n        /* \"contracts/CarreraCoches/principal.sol\":1883:2193  function verCochePropietario(address _propietario) external returns(uint[] memory){\r... */\n    tag_9:\n      callvalue\n      dup1\n      iszero\n      tag_50\n      jumpi\n      0x00\n      dup1\n      revert\n    tag_50:\n      pop\n      tag_51\n      0x04\n      dup1\n      calldatasize\n      sub\n      dup2\n      add\n      swap1\n      tag_52\n      swap2\n      swap1\n      tag_15\n      jump\t// in\n    tag_52:\n      tag_53\n      jump\t// in\n    tag_51:\n      mload(0x40)\n      tag_54\n      swap2\n      swap1\n      tag_55\n      jump\t// in\n    tag_54:\n      mload(0x40)\n      dup1\n      swap2\n      sub\n      swap1\n      return\n        /* \"contracts/CarreraCoches/ownable.sol\":1978:2179  function transferOwnership(address newOwner) public virtual onlyOwner {\r... */\n    tag_10:\n      callvalue\n      dup1\n      iszero\n      tag_56\n      jumpi\n      0x00\n      dup1\n      revert\n    tag_56:\n      pop\n      tag_57\n      0x04\n      dup1\n      calldatasize\n      sub\n      dup2\n      add\n      swap1\n      tag_58\n      swap2\n      swap1\n      tag_15\n      jump\t// in\n    tag_58:\n      tag_59\n      jump\t// in\n    tag_57:\n      stop\n        /* \"contracts/CarreraCoches/principal.sol\":816:868  mapping (address => uint) public numeroCochesPersona */\n    tag_16:\n      mstore(0x20, 0x06)\n      dup1\n      0x00\n      mstore\n      keccak256(0x00, 0x40)\n      0x00\n      swap2\n      pop\n      swap1\n      pop\n      sload\n      dup2\n      jump\t// out\n        /* \"contracts/CarreraCoches/principal.sol\":1111:1551  function anadirCoche(string memory _modelo, string memory _marca, string memory _nombrePiloto) public restriccion returns (uint) {\r... */\n    tag_23:\n        /* \"contracts/CarreraCoches/principal.sol\":1234:1238  uint */\n      0x00\n        /* \"contracts/CarreraCoches/principal.sol\":1000:1001  1 */\n      0x01\n        /* \"contracts/CarreraCoches/principal.sol\":966:985  numeroCochesPersona */\n      0x06\n        /* \"contracts/CarreraCoches/principal.sol\":966:997  numeroCochesPersona[msg.sender] */\n      0x00\n        /* \"contracts/CarreraCoches/principal.sol\":986:996  msg.sender */\n      caller\n        /* \"contracts/CarreraCoches/principal.sol\":966:997  numeroCochesPersona[msg.sender] */\n      0xffffffffffffffffffffffffffffffffffffffff\n      and\n      0xffffffffffffffffffffffffffffffffffffffff\n      and\n      dup2\n      mstore\n      0x20\n      add\n      swap1\n      dup2\n      mstore\n      0x20\n      add\n      0x00\n      keccak256\n      sload\n        /* \"contracts/CarreraCoches/principal.sol\":966:1001  numeroCochesPersona[msg.sender] < 1 */\n      lt\n        /* \"contracts/CarreraCoches/principal.sol\":958:1046  require(numeroCochesPersona[msg.sender] < 1, \"Solo se puede tener un coche por persona\") */\n      tag_61\n      jumpi\n      mload(0x40)\n      0x08c379a000000000000000000000000000000000000000000000000000000000\n      dup2\n      mstore\n      0x04\n      add\n      tag_62\n      swap1\n      tag_63\n      jump\t// in\n    tag_62:\n      mload(0x40)\n      dup1\n      swap2\n      sub\n      swap1\n      revert\n    tag_61:\n        /* \"contracts/CarreraCoches/principal.sol\":1251:1262  listaCoches */\n      0x04\n        /* \"contracts/CarreraCoches/principal.sol\":1268:1362  Coche(msg.sender, _modelo, _marca, _nombrePiloto, 0, 0, uint32(block.timestamp + cooldown), 0) */\n      mload(0x40)\n      dup1\n      0x0100\n      add\n      0x40\n      mstore\n      dup1\n        /* \"contracts/CarreraCoches/principal.sol\":1274:1284  msg.sender */\n      caller\n        /* \"contracts/CarreraCoches/principal.sol\":1268:1362  Coche(msg.sender, _modelo, _marca, _nombrePiloto, 0, 0, uint32(block.timestamp + cooldown), 0) */\n      0xffffffffffffffffffffffffffffffffffffffff\n      and\n      dup2\n      mstore\n      0x20\n      add\n        /* \"contracts/CarreraCoches/principal.sol\":1286:1293  _modelo */\n      dup7\n        /* \"contracts/CarreraCoches/principal.sol\":1268:1362  Coche(msg.sender, _modelo, _marca, _nombrePiloto, 0, 0, uint32(block.timestamp + cooldown), 0) */\n      dup2\n      mstore\n      0x20\n      add\n        /* \"contracts/CarreraCoches/principal.sol\":1295:1301  _marca */\n      dup6\n        /* \"contracts/CarreraCoches/principal.sol\":1268:1362  Coche(msg.sender, _modelo, _marca, _nombrePiloto, 0, 0, uint32(block.timestamp + cooldown), 0) */\n      dup2\n      mstore\n      0x20\n      add\n        /* \"contracts/CarreraCoches/principal.sol\":1303:1316  _nombrePiloto */\n      dup5\n        /* \"contracts/CarreraCoches/principal.sol\":1268:1362  Coche(msg.sender, _modelo, _marca, _nombrePiloto, 0, 0, uint32(block.timestamp + cooldown), 0) */\n      dup2\n      mstore\n      0x20\n      add\n        /* \"contracts/CarreraCoches/principal.sol\":1318:1319  0 */\n      0x00\n        /* \"contracts/CarreraCoches/principal.sol\":1268:1362  Coche(msg.sender, _modelo, _marca, _nombrePiloto, 0, 0, uint32(block.timestamp + cooldown), 0) */\n      dup2\n      mstore\n      0x20\n      add\n        /* \"contracts/CarreraCoches/principal.sol\":1321:1322  0 */\n      0x00\n        /* \"contracts/CarreraCoches/principal.sol\":1268:1362  Coche(msg.sender, _modelo, _marca, _nombrePiloto, 0, 0, uint32(block.timestamp + cooldown), 0) */\n      dup2\n      mstore\n      0x20\n      add\n        /* \"contracts/CarreraCoches/principal.sol\":1349:1357  cooldown */\n      sload(0x03)\n        /* \"contracts/CarreraCoches/principal.sol\":1331:1346  block.timestamp */\n      timestamp\n        /* \"contracts/CarreraCoches/principal.sol\":1331:1357  block.timestamp + cooldown */\n      tag_65\n      swap2\n      swap1\n      tag_66\n      jump\t// in\n    tag_65:\n        /* \"contracts/CarreraCoches/principal.sol\":1268:1362  Coche(msg.sender, _modelo, _marca, _nombrePiloto, 0, 0, uint32(block.timestamp + cooldown), 0) */\n      0xffffffff\n      and\n      dup2\n      mstore\n      0x20\n      add\n        /* \"contracts/CarreraCoches/principal.sol\":1360:1361  0 */\n      0x00\n        /* \"contracts/CarreraCoches/principal.sol\":1268:1362  Coche(msg.sender, _modelo, _marca, _nombrePiloto, 0, 0, uint32(block.timestamp + cooldown), 0) */\n      0xffffffff\n      and\n      dup2\n      mstore\n      pop\n        /* \"contracts/CarreraCoches/principal.sol\":1251:1363  listaCoches.push(Coche(msg.sender, _modelo, _marca, _nombrePiloto, 0, 0, uint32(block.timestamp + cooldown), 0)) */\n      swap1\n      dup1\n      0x01\n      dup2\n      sload\n      add\n      dup1\n      dup3\n      sstore\n      dup1\n      swap2\n      pop\n      pop\n      0x01\n      swap1\n      sub\n      swap1\n      0x00\n      mstore\n      keccak256(0x00, 0x20)\n      swap1\n      0x08\n      mul\n      add\n      0x00\n      swap1\n      swap2\n      swap1\n      swap2\n      swap1\n      swap2\n      pop\n      0x00\n      dup3\n      add\n      mload\n      dup2\n      0x00\n      add\n      exp(0x0100, 0x00)\n      dup2\n      sload\n      dup2\n      0xffffffffffffffffffffffffffffffffffffffff\n      mul\n      not\n      and\n      swap1\n      dup4\n      0xffffffffffffffffffffffffffffffffffffffff\n      and\n      mul\n      or\n      swap1\n      sstore\n      pop\n      0x20\n      dup3\n      add\n      mload\n      dup2\n      0x01\n      add\n      swap1\n      dup1\n      mload\n      swap1\n      0x20\n      add\n      swap1\n      tag_68\n      swap3\n      swap2\n      swap1\n      tag_69\n      jump\t// in\n    tag_68:\n      pop\n      0x40\n      dup3\n      add\n      mload\n      dup2\n      0x02\n      add\n      swap1\n      dup1\n      mload\n      swap1\n      0x20\n      add\n      swap1\n      tag_70\n      swap3\n      swap2\n      swap1\n      tag_69\n      jump\t// in\n    tag_70:\n      pop\n      0x60\n      dup3\n      add\n      mload\n      dup2\n      0x03\n      add\n      swap1\n      dup1\n      mload\n      swap1\n      0x20\n      add\n      swap1\n      tag_71\n      swap3\n      swap2\n      swap1\n      tag_69\n      jump\t// in\n    tag_71:\n      pop\n      0x80\n      dup3\n      add\n      mload\n      dup2\n      0x04\n      add\n      sstore\n      0xa0\n      dup3\n      add\n      mload\n      dup2\n      0x05\n      add\n      sstore\n      0xc0\n      dup3\n      add\n      mload\n      dup2\n      0x06\n      add\n      sstore\n      0xe0\n      dup3\n      add\n      mload\n      dup2\n      0x07\n      add\n      exp(0x0100, 0x00)\n      dup2\n      sload\n      dup2\n      0xffffffff\n      mul\n      not\n      and\n      swap1\n      dup4\n      0xffffffff\n      and\n      mul\n      or\n      swap1\n      sstore\n      pop\n      pop\n      pop\n        /* \"contracts/CarreraCoches/principal.sol\":1374:1381  uint id */\n      0x00\n        /* \"contracts/CarreraCoches/principal.sol\":1384:1395  listaCoches */\n      0x04\n        /* \"contracts/CarreraCoches/principal.sol\":1384:1402  listaCoches.length */\n      dup1\n      sload\n      swap1\n      pop\n        /* \"contracts/CarreraCoches/principal.sol\":1374:1402  uint id = listaCoches.length */\n      swap1\n      pop\n        /* \"contracts/CarreraCoches/principal.sol\":1438:1448  msg.sender */\n      caller\n        /* \"contracts/CarreraCoches/principal.sol\":1413:1431  cocheDePropietario */\n      0x05\n        /* \"contracts/CarreraCoches/principal.sol\":1413:1435  cocheDePropietario[id] */\n      0x00\n        /* \"contracts/CarreraCoches/principal.sol\":1432:1434  id */\n      dup4\n        /* \"contracts/CarreraCoches/principal.sol\":1413:1435  cocheDePropietario[id] */\n      dup2\n      mstore\n      0x20\n      add\n      swap1\n      dup2\n      mstore\n      0x20\n      add\n      0x00\n      keccak256\n      0x00\n        /* \"contracts/CarreraCoches/principal.sol\":1413:1448  cocheDePropietario[id] = msg.sender */\n      0x0100\n      exp\n      dup2\n      sload\n      dup2\n      0xffffffffffffffffffffffffffffffffffffffff\n      mul\n      not\n      and\n      swap1\n      dup4\n      0xffffffffffffffffffffffffffffffffffffffff\n      and\n      mul\n      or\n      swap1\n      sstore\n      pop\n        /* \"contracts/CarreraCoches/principal.sol\":1459:1478  numeroCochesPersona */\n      0x06\n        /* \"contracts/CarreraCoches/principal.sol\":1459:1490  numeroCochesPersona[msg.sender] */\n      0x00\n        /* \"contracts/CarreraCoches/principal.sol\":1479:1489  msg.sender */\n      caller\n        /* \"contracts/CarreraCoches/principal.sol\":1459:1490  numeroCochesPersona[msg.sender] */\n      0xffffffffffffffffffffffffffffffffffffffff\n      and\n      0xffffffffffffffffffffffffffffffffffffffff\n      and\n      dup2\n      mstore\n      0x20\n      add\n      swap1\n      dup2\n      mstore\n      0x20\n      add\n      0x00\n      keccak256\n      0x00\n        /* \"contracts/CarreraCoches/principal.sol\":1459:1492  numeroCochesPersona[msg.sender]++ */\n      dup2\n      sload\n      dup1\n      swap3\n      swap2\n      swap1\n      tag_72\n      swap1\n      tag_73\n      jump\t// in\n    tag_72:\n      swap2\n      swap1\n      pop\n      sstore\n      pop\n        /* \"contracts/CarreraCoches/principal.sol\":1503:1511  contador */\n      0x02\n      0x00\n        /* \"contracts/CarreraCoches/principal.sol\":1503:1513  contador++ */\n      dup2\n      sload\n      dup1\n      swap3\n      swap2\n      swap1\n      tag_74\n      swap1\n      tag_73\n      jump\t// in\n    tag_74:\n      swap2\n      swap1\n      pop\n      sstore\n      pop\n        /* \"contracts/CarreraCoches/principal.sol\":1542:1543  1 */\n      0x01\n        /* \"contracts/CarreraCoches/principal.sol\":1531:1539  contador */\n      sload(0x02)\n        /* \"contracts/CarreraCoches/principal.sol\":1531:1543  contador - 1 */\n      tag_75\n      swap2\n      swap1\n      tag_76\n      jump\t// in\n    tag_75:\n        /* \"contracts/CarreraCoches/principal.sol\":1524:1543  return contador - 1 */\n      swap2\n      pop\n      pop\n        /* \"contracts/CarreraCoches/principal.sol\":1111:1551  function anadirCoche(string memory _modelo, string memory _marca, string memory _nombrePiloto) public restriccion returns (uint) {\r... */\n      swap4\n      swap3\n      pop\n      pop\n      pop\n      jump\t// out\n        /* \"contracts/CarreraCoches/principal.sol\":2530:3706  function Apostar(uint dineroApostar) public payable returns(string memory) {\r... */\n    tag_28:\n        /* \"contracts/CarreraCoches/principal.sol\":2590:2603  string memory */\n      0x60\n        /* \"contracts/CarreraCoches/principal.sol\":2636:2649  dineroApostar */\n      dup2\n        /* \"contracts/CarreraCoches/principal.sol\":2623:2632  msg.value */\n      callvalue\n        /* \"contracts/CarreraCoches/principal.sol\":2623:2649  msg.value == dineroApostar */\n      eq\n        /* \"contracts/CarreraCoches/principal.sol\":2615:2650  require(msg.value == dineroApostar) */\n      tag_78\n      jumpi\n      0x00\n      dup1\n      revert\n    tag_78:\n        /* \"contracts/CarreraCoches/principal.sol\":2671:2680  randNonce */\n      0x01\n      0x00\n        /* \"contracts/CarreraCoches/principal.sol\":2671:2682  randNonce++ */\n      dup2\n      sload\n      dup1\n      swap3\n      swap2\n      swap1\n      tag_79\n      swap1\n      tag_73\n      jump\t// in\n    tag_79:\n      swap2\n      swap1\n      pop\n      sstore\n      pop\n        /* \"contracts/CarreraCoches/principal.sol\":2729:2742  uint256 rival */\n      0x00\n        /* \"contracts/CarreraCoches/principal.sol\":2832:2843  listaCoches */\n      0x04\n        /* \"contracts/CarreraCoches/principal.sol\":2832:2850  listaCoches.length */\n      dup1\n      sload\n      swap1\n      pop\n        /* \"contracts/CarreraCoches/principal.sol\":2780:2795  block.timestamp */\n      timestamp\n        /* \"contracts/CarreraCoches/principal.sol\":2797:2808  listaCoches */\n      0x04\n        /* \"contracts/CarreraCoches/principal.sol\":2797:2815  listaCoches.length */\n      dup1\n      sload\n      swap1\n      pop\n        /* \"contracts/CarreraCoches/principal.sol\":2817:2826  randNonce */\n      sload(0x01)\n        /* \"contracts/CarreraCoches/principal.sol\":2763:2827  abi.encodePacked(block.timestamp, listaCoches.length, randNonce) */\n      add(0x20, mload(0x40))\n      tag_80\n      swap4\n      swap3\n      swap2\n      swap1\n      tag_81\n      jump\t// in\n    tag_80:\n      mload(0x40)\n      0x20\n      dup2\n      dup4\n      sub\n      sub\n      dup2\n      mstore\n      swap1\n      0x40\n      mstore\n        /* \"contracts/CarreraCoches/principal.sol\":2753:2828  keccak256(abi.encodePacked(block.timestamp, listaCoches.length, randNonce)) */\n      dup1\n      mload\n      swap1\n      0x20\n      add\n      keccak256\n        /* \"contracts/CarreraCoches/principal.sol\":2745:2829  uint256(keccak256(abi.encodePacked(block.timestamp, listaCoches.length, randNonce))) */\n      0x00\n      shr\n        /* \"contracts/CarreraCoches/principal.sol\":2745:2850  uint256(keccak256(abi.encodePacked(block.timestamp, listaCoches.length, randNonce))) % listaCoches.length */\n      tag_82\n      swap2\n      swap1\n      tag_83\n      jump\t// in\n    tag_82:\n        /* \"contracts/CarreraCoches/principal.sol\":2729:2850  uint256 rival = uint256(keccak256(abi.encodePacked(block.timestamp, listaCoches.length, randNonce))) % listaCoches.length */\n      swap1\n      pop\n        /* \"contracts/CarreraCoches/principal.sol\":2893:2902  randNonce */\n      0x01\n      0x00\n        /* \"contracts/CarreraCoches/principal.sol\":2893:2904  randNonce++ */\n      dup2\n      sload\n      dup1\n      swap3\n      swap2\n      swap1\n      tag_84\n      swap1\n      tag_73\n      jump\t// in\n    tag_84:\n      swap2\n      swap1\n      pop\n      sstore\n      pop\n        /* \"contracts/CarreraCoches/principal.sol\":2915:2926  uint numero */\n      0x00\n        /* \"contracts/CarreraCoches/principal.sol\":2929:2930  2 */\n      0x02\n        /* \"contracts/CarreraCoches/principal.sol\":2915:2930  uint numero = 2 */\n      swap1\n      pop\n        /* \"contracts/CarreraCoches/principal.sol\":2941:2956  uint256 ganador */\n      0x00\n        /* \"contracts/CarreraCoches/principal.sol\":3034:3040  numero */\n      dup2\n        /* \"contracts/CarreraCoches/principal.sol\":2994:3009  block.timestamp */\n      timestamp\n        /* \"contracts/CarreraCoches/principal.sol\":3011:3017  numero */\n      dup4\n        /* \"contracts/CarreraCoches/principal.sol\":3019:3028  randNonce */\n      sload(0x01)\n        /* \"contracts/CarreraCoches/principal.sol\":2977:3029  abi.encodePacked(block.timestamp, numero, randNonce) */\n      add(0x20, mload(0x40))\n      tag_85\n      swap4\n      swap3\n      swap2\n      swap1\n      tag_81\n      jump\t// in\n    tag_85:\n      mload(0x40)\n      0x20\n      dup2\n      dup4\n      sub\n      sub\n      dup2\n      mstore\n      swap1\n      0x40\n      mstore\n        /* \"contracts/CarreraCoches/principal.sol\":2967:3030  keccak256(abi.encodePacked(block.timestamp, numero, randNonce)) */\n      dup1\n      mload\n      swap1\n      0x20\n      add\n      keccak256\n        /* \"contracts/CarreraCoches/principal.sol\":2959:3031  uint256(keccak256(abi.encodePacked(block.timestamp, numero, randNonce))) */\n      0x00\n      shr\n        /* \"contracts/CarreraCoches/principal.sol\":2959:3040  uint256(keccak256(abi.encodePacked(block.timestamp, numero, randNonce))) % numero */\n      tag_86\n      swap2\n      swap1\n      tag_83\n      jump\t// in\n    tag_86:\n        /* \"contracts/CarreraCoches/principal.sol\":2941:3040  uint256 ganador = uint256(keccak256(abi.encodePacked(block.timestamp, numero, randNonce))) % numero */\n      swap1\n      pop\n        /* \"contracts/CarreraCoches/principal.sol\":3057:3063  uint i */\n      0x00\n        /* \"contracts/CarreraCoches/principal.sol\":3053:3700  for(uint i = 0; i < listaCoches.length; i++){\r... */\n    tag_87:\n        /* \"contracts/CarreraCoches/principal.sol\":3073:3084  listaCoches */\n      0x04\n        /* \"contracts/CarreraCoches/principal.sol\":3073:3091  listaCoches.length */\n      dup1\n      sload\n      swap1\n      pop\n        /* \"contracts/CarreraCoches/principal.sol\":3069:3070  i */\n      dup2\n        /* \"contracts/CarreraCoches/principal.sol\":3069:3091  i < listaCoches.length */\n      lt\n        /* \"contracts/CarreraCoches/principal.sol\":3053:3700  for(uint i = 0; i < listaCoches.length; i++){\r... */\n      iszero\n      tag_88\n      jumpi\n        /* \"contracts/CarreraCoches/principal.sol\":3233:3244  listaCoches */\n      0x04\n        /* \"contracts/CarreraCoches/principal.sol\":3245:3246  i */\n      dup2\n        /* \"contracts/CarreraCoches/principal.sol\":3233:3247  listaCoches[i] */\n      dup2\n      sload\n      dup2\n      lt\n      tag_90\n      jumpi\n      tag_91\n      tag_92\n      jump\t// in\n    tag_91:\n    tag_90:\n      swap1\n      0x00\n      mstore\n      keccak256(0x00, 0x20)\n      swap1\n      0x08\n      mul\n      add\n        /* \"contracts/CarreraCoches/principal.sol\":3233:3256  listaCoches[i].idPiloto */\n      0x00\n      add\n      0x00\n      swap1\n      sload\n      swap1\n      0x0100\n      exp\n      swap1\n      div\n      0xffffffffffffffffffffffffffffffffffffffff\n      and\n        /* \"contracts/CarreraCoches/principal.sol\":3219:3256  msg.sender == listaCoches[i].idPiloto */\n      0xffffffffffffffffffffffffffffffffffffffff\n      and\n        /* \"contracts/CarreraCoches/principal.sol\":3219:3229  msg.sender */\n      caller\n        /* \"contracts/CarreraCoches/principal.sol\":3219:3256  msg.sender == listaCoches[i].idPiloto */\n      0xffffffffffffffffffffffffffffffffffffffff\n      and\n      eq\n        /* \"contracts/CarreraCoches/principal.sol\":3215:3689  if (msg.sender == listaCoches[i].idPiloto) {\r... */\n      iszero\n      tag_94\n      jumpi\n        /* \"contracts/CarreraCoches/principal.sol\":3291:3292  0 */\n      0x00\n        /* \"contracts/CarreraCoches/principal.sol\":3280:3287  ganador */\n      dup3\n        /* \"contracts/CarreraCoches/principal.sol\":3280:3292  ganador == 0 */\n      eq\n        /* \"contracts/CarreraCoches/principal.sol\":3277:3585  if(ganador == 0){\r... */\n      iszero\n      tag_95\n      jumpi\n        /* \"contracts/CarreraCoches/principal.sol\":3316:3325  balance() */\n      tag_96\n        /* \"contracts/CarreraCoches/principal.sol\":3316:3323  balance */\n      tag_97\n        /* \"contracts/CarreraCoches/principal.sol\":3316:3325  balance() */\n      jump\t// in\n    tag_96:\n        /* \"contracts/CarreraCoches/principal.sol\":3348:3367  return \"Has ganado\" */\n      mload(0x40)\n      dup1\n      0x40\n      add\n      0x40\n      mstore\n      dup1\n      0x0a\n      dup2\n      mstore\n      0x20\n      add\n      0x4861732067616e61646f00000000000000000000000000000000000000000000\n      dup2\n      mstore\n      pop\n      swap5\n      pop\n      pop\n      pop\n      pop\n      pop\n      jump(tag_77)\n        /* \"contracts/CarreraCoches/principal.sol\":3277:3585  if(ganador == 0){\r... */\n    tag_95:\n        /* \"contracts/CarreraCoches/principal.sol\":3474:3522  mostrarResultado(\"El coche ganador es: \", rival) */\n      0xa28482eec3136a2461c6c30c08f71ba279c6c51a2d9c7bea4e50d6d2632f3896\n        /* \"contracts/CarreraCoches/principal.sol\":3516:3521  rival */\n      dup5\n        /* \"contracts/CarreraCoches/principal.sol\":3474:3522  mostrarResultado(\"El coche ganador es: \", rival) */\n      mload(0x40)\n      tag_103\n      swap2\n      swap1\n      tag_104\n      jump\t// in\n    tag_103:\n      mload(0x40)\n      dup1\n      swap2\n      sub\n      swap1\n      log1\n        /* \"contracts/CarreraCoches/principal.sol\":3545:3565  return \"Has perdido\" */\n      mload(0x40)\n      dup1\n      0x40\n      add\n      0x40\n      mstore\n      dup1\n      0x0b\n      dup2\n      mstore\n      0x20\n      add\n      0x486173207065726469646f000000000000000000000000000000000000000000\n      dup2\n      mstore\n      pop\n      swap5\n      pop\n      pop\n      pop\n      pop\n      pop\n      jump(tag_77)\n        /* \"contracts/CarreraCoches/principal.sol\":3215:3689  if (msg.sender == listaCoches[i].idPiloto) {\r... */\n    tag_94:\n        /* \"contracts/CarreraCoches/principal.sol\":3093:3096  i++ */\n      dup1\n      dup1\n      tag_114\n      swap1\n      tag_73\n      jump\t// in\n    tag_114:\n      swap2\n      pop\n      pop\n        /* \"contracts/CarreraCoches/principal.sol\":3053:3700  for(uint i = 0; i < listaCoches.length; i++){\r... */\n      jump(tag_87)\n    tag_88:\n      pop\n        /* \"contracts/CarreraCoches/principal.sol\":2605:3706  {\r... */\n      pop\n      pop\n      pop\n        /* \"contracts/CarreraCoches/principal.sol\":2530:3706  function Apostar(uint dineroApostar) public payable returns(string memory) {\r... */\n    tag_77:\n      swap2\n      swap1\n      pop\n      jump\t// out\n        /* \"contracts/CarreraCoches/ownable.sol\":1720:1823  function renounceOwnership() public virtual onlyOwner {\r... */\n    tag_33:\n        /* \"contracts/CarreraCoches/ownable.sol\":1300:1312  _msgSender() */\n      tag_116\n        /* \"contracts/CarreraCoches/ownable.sol\":1300:1310  _msgSender */\n      tag_117\n        /* \"contracts/CarreraCoches/ownable.sol\":1300:1312  _msgSender() */\n      jump\t// in\n    tag_116:\n        /* \"contracts/CarreraCoches/ownable.sol\":1289:1312  owner() == _msgSender() */\n      0xffffffffffffffffffffffffffffffffffffffff\n      and\n        /* \"contracts/CarreraCoches/ownable.sol\":1289:1296  owner() */\n      tag_118\n        /* \"contracts/CarreraCoches/ownable.sol\":1289:1294  owner */\n      tag_42\n        /* \"contracts/CarreraCoches/ownable.sol\":1289:1296  owner() */\n      jump\t// in\n    tag_118:\n        /* \"contracts/CarreraCoches/ownable.sol\":1289:1312  owner() == _msgSender() */\n      0xffffffffffffffffffffffffffffffffffffffff\n      and\n      eq\n        /* \"contracts/CarreraCoches/ownable.sol\":1281:1349  require(owner() == _msgSender(), \"Ownable: caller is not the owner\") */\n      tag_119\n      jumpi\n      mload(0x40)\n      0x08c379a000000000000000000000000000000000000000000000000000000000\n      dup2\n      mstore\n      0x04\n      add\n      tag_120\n      swap1\n      tag_121\n      jump\t// in\n    tag_120:\n      mload(0x40)\n      dup1\n      swap2\n      sub\n      swap1\n      revert\n    tag_119:\n        /* \"contracts/CarreraCoches/ownable.sol\":1785:1815  _transferOwnership(address(0)) */\n      tag_123\n        /* \"contracts/CarreraCoches/ownable.sol\":1812:1813  0 */\n      0x00\n        /* \"contracts/CarreraCoches/ownable.sol\":1785:1803  _transferOwnership */\n      tag_124\n        /* \"contracts/CarreraCoches/ownable.sol\":1785:1815  _transferOwnership(address(0)) */\n      jump\t// in\n    tag_123:\n        /* \"contracts/CarreraCoches/ownable.sol\":1720:1823  function renounceOwnership() public virtual onlyOwner {\r... */\n      jump\t// out\n        /* \"contracts/CarreraCoches/principal.sol\":758:809  mapping (uint => address) public cocheDePropietario */\n    tag_37:\n      mstore(0x20, 0x05)\n      dup1\n      0x00\n      mstore\n      keccak256(0x00, 0x40)\n      0x00\n      swap2\n      pop\n      sload\n      swap1\n      0x0100\n      exp\n      swap1\n      div\n      0xffffffffffffffffffffffffffffffffffffffff\n      and\n      dup2\n      jump\t// out\n        /* \"contracts/CarreraCoches/ownable.sol\":1069:1156  function owner() public view virtual returns (address) {\r... */\n    tag_42:\n        /* \"contracts/CarreraCoches/ownable.sol\":1115:1122  address */\n      0x00\n        /* \"contracts/CarreraCoches/ownable.sol\":1142:1148  _owner */\n      dup1\n      0x00\n      swap1\n      sload\n      swap1\n      0x0100\n      exp\n      swap1\n      div\n      0xffffffffffffffffffffffffffffffffffffffff\n      and\n        /* \"contracts/CarreraCoches/ownable.sol\":1135:1148  return _owner */\n      swap1\n      pop\n        /* \"contracts/CarreraCoches/ownable.sol\":1069:1156  function owner() public view virtual returns (address) {\r... */\n      swap1\n      jump\t// out\n        /* \"contracts/CarreraCoches/principal.sol\":537:563  Coche[] public listaCoches */\n    tag_47:\n      0x04\n      dup2\n      dup2\n      sload\n      dup2\n      lt\n      tag_126\n      jumpi\n      0x00\n      dup1\n      revert\n    tag_126:\n      swap1\n      0x00\n      mstore\n      keccak256(0x00, 0x20)\n      swap1\n      0x08\n      mul\n      add\n      0x00\n      swap2\n      pop\n      swap1\n      pop\n      dup1\n      0x00\n      add\n      0x00\n      swap1\n      sload\n      swap1\n      0x0100\n      exp\n      swap1\n      div\n      0xffffffffffffffffffffffffffffffffffffffff\n      and\n      swap1\n      dup1\n      0x01\n      add\n      dup1\n      sload\n      tag_128\n      swap1\n      tag_129\n      jump\t// in\n    tag_128:\n      dup1\n      0x1f\n      add\n      0x20\n      dup1\n      swap2\n      div\n      mul\n      0x20\n      add\n      mload(0x40)\n      swap1\n      dup2\n      add\n      0x40\n      mstore\n      dup1\n      swap3\n      swap2\n      swap1\n      dup2\n      dup2\n      mstore\n      0x20\n      add\n      dup3\n      dup1\n      sload\n      tag_130\n      swap1\n      tag_129\n      jump\t// in\n    tag_130:\n      dup1\n      iszero\n      tag_131\n      jumpi\n      dup1\n      0x1f\n      lt\n      tag_132\n      jumpi\n      0x0100\n      dup1\n      dup4\n      sload\n      div\n      mul\n      dup4\n      mstore\n      swap2\n      0x20\n      add\n      swap2\n      jump(tag_131)\n    tag_132:\n      dup3\n      add\n      swap2\n      swap1\n      0x00\n      mstore\n      keccak256(0x00, 0x20)\n      swap1\n    tag_133:\n      dup2\n      sload\n      dup2\n      mstore\n      swap1\n      0x01\n      add\n      swap1\n      0x20\n      add\n      dup1\n      dup4\n      gt\n      tag_133\n      jumpi\n      dup3\n      swap1\n      sub\n      0x1f\n      and\n      dup3\n      add\n      swap2\n    tag_131:\n      pop\n      pop\n      pop\n      pop\n      pop\n      swap1\n      dup1\n      0x02\n      add\n      dup1\n      sload\n      tag_134\n      swap1\n      tag_129\n      jump\t// in\n    tag_134:\n      dup1\n      0x1f\n      add\n      0x20\n      dup1\n      swap2\n      div\n      mul\n      0x20\n      add\n      mload(0x40)\n      swap1\n      dup2\n      add\n      0x40\n      mstore\n      dup1\n      swap3\n      swap2\n      swap1\n      dup2\n      dup2\n      mstore\n      0x20\n      add\n      dup3\n      dup1\n      sload\n      tag_135\n      swap1\n      tag_129\n      jump\t// in\n    tag_135:\n      dup1\n      iszero\n      tag_136\n      jumpi\n      dup1\n      0x1f\n      lt\n      tag_137\n      jumpi\n      0x0100\n      dup1\n      dup4\n      sload\n      div\n      mul\n      dup4\n      mstore\n      swap2\n      0x20\n      add\n      swap2\n      jump(tag_136)\n    tag_137:\n      dup3\n      add\n      swap2\n      swap1\n      0x00\n      mstore\n      keccak256(0x00, 0x20)\n      swap1\n    tag_138:\n      dup2\n      sload\n      dup2\n      mstore\n      swap1\n      0x01\n      add\n      swap1\n      0x20\n      add\n      dup1\n      dup4\n      gt\n      tag_138\n      jumpi\n      dup3\n      swap1\n      sub\n      0x1f\n      and\n      dup3\n      add\n      swap2\n    tag_136:\n      pop\n      pop\n      pop\n      pop\n      pop\n      swap1\n      dup1\n      0x03\n      add\n      dup1\n      sload\n      tag_139\n      swap1\n      tag_129\n      jump\t// in\n    tag_139:\n      dup1\n      0x1f\n      add\n      0x20\n      dup1\n      swap2\n      div\n      mul\n      0x20\n      add\n      mload(0x40)\n      swap1\n      dup2\n      add\n      0x40\n      mstore\n      dup1\n      swap3\n      swap2\n      swap1\n      dup2\n      dup2\n      mstore\n      0x20\n      add\n      dup3\n      dup1\n      sload\n      tag_140\n      swap1\n      tag_129\n      jump\t// in\n    tag_140:\n      dup1\n      iszero\n      tag_141\n      jumpi\n      dup1\n      0x1f\n      lt\n      tag_142\n      jumpi\n      0x0100\n      dup1\n      dup4\n      sload\n      div\n      mul\n      dup4\n      mstore\n      swap2\n      0x20\n      add\n      swap2\n      jump(tag_141)\n    tag_142:\n      dup3\n      add\n      swap2\n      swap1\n      0x00\n      mstore\n      keccak256(0x00, 0x20)\n      swap1\n    tag_143:\n      dup2\n      sload\n      dup2\n      mstore\n      swap1\n      0x01\n      add\n      swap1\n      0x20\n      add\n      dup1\n      dup4\n      gt\n      tag_143\n      jumpi\n      dup3\n      swap1\n      sub\n      0x1f\n      and\n      dup3\n      add\n      swap2\n    tag_141:\n      pop\n      pop\n      pop\n      pop\n      pop\n      swap1\n      dup1\n      0x04\n      add\n      sload\n      swap1\n      dup1\n      0x05\n      add\n      sload\n      swap1\n      dup1\n      0x06\n      add\n      sload\n      swap1\n      dup1\n      0x07\n      add\n      0x00\n      swap1\n      sload\n      swap1\n      0x0100\n      exp\n      swap1\n      div\n      0xffffffff\n      and\n      swap1\n      pop\n      dup9\n      jump\t// out\n        /* \"contracts/CarreraCoches/principal.sol\":1883:2193  function verCochePropietario(address _propietario) external returns(uint[] memory){\r... */\n    tag_53:\n        /* \"contracts/CarreraCoches/principal.sol\":1951:1964  uint[] memory */\n      0x60\n        /* \"contracts/CarreraCoches/principal.sol\":1980:1986  uint i */\n      0x00\n        /* \"contracts/CarreraCoches/principal.sol\":1976:2186  for(uint i = 0; i < listaCoches.length; i++){\r... */\n    tag_145:\n        /* \"contracts/CarreraCoches/principal.sol\":1996:2007  listaCoches */\n      0x04\n        /* \"contracts/CarreraCoches/principal.sol\":1996:2014  listaCoches.length */\n      dup1\n      sload\n      swap1\n      pop\n        /* \"contracts/CarreraCoches/principal.sol\":1992:1993  i */\n      dup2\n        /* \"contracts/CarreraCoches/principal.sol\":1992:2014  i < listaCoches.length */\n      lt\n        /* \"contracts/CarreraCoches/principal.sol\":1976:2186  for(uint i = 0; i < listaCoches.length; i++){\r... */\n      iszero\n      tag_146\n      jumpi\n        /* \"contracts/CarreraCoches/principal.sol\":2061:2073  _propietario */\n      dup3\n        /* \"contracts/CarreraCoches/principal.sol\":2038:2073  cocheDePropietario[i]==_propietario */\n      0xffffffffffffffffffffffffffffffffffffffff\n      and\n        /* \"contracts/CarreraCoches/principal.sol\":2038:2056  cocheDePropietario */\n      0x05\n        /* \"contracts/CarreraCoches/principal.sol\":2038:2059  cocheDePropietario[i] */\n      0x00\n        /* \"contracts/CarreraCoches/principal.sol\":2057:2058  i */\n      dup4\n        /* \"contracts/CarreraCoches/principal.sol\":2038:2059  cocheDePropietario[i] */\n      dup2\n      mstore\n      0x20\n      add\n      swap1\n      dup2\n      mstore\n      0x20\n      add\n      0x00\n      keccak256\n      0x00\n      swap1\n      sload\n      swap1\n      0x0100\n      exp\n      swap1\n      div\n      0xffffffffffffffffffffffffffffffffffffffff\n      and\n        /* \"contracts/CarreraCoches/principal.sol\":2038:2073  cocheDePropietario[i]==_propietario */\n      0xffffffffffffffffffffffffffffffffffffffff\n      and\n      eq\n        /* \"contracts/CarreraCoches/principal.sol\":2035:2175  if(cocheDePropietario[i]==_propietario){\r... */\n      iszero\n      tag_148\n      jumpi\n        /* \"contracts/CarreraCoches/principal.sol\":2098:2159  cochePropietario(listaCoches[i].marca, listaCoches[i].modelo) */\n      0x96408510f58a52b0cfe536e046b25664fa36d8122620ec608c1767b45aa4f03c\n        /* \"contracts/CarreraCoches/principal.sol\":2115:2126  listaCoches */\n      0x04\n        /* \"contracts/CarreraCoches/principal.sol\":2127:2128  i */\n      dup3\n        /* \"contracts/CarreraCoches/principal.sol\":2115:2129  listaCoches[i] */\n      dup2\n      sload\n      dup2\n      lt\n      tag_149\n      jumpi\n      tag_150\n      tag_92\n      jump\t// in\n    tag_150:\n    tag_149:\n      swap1\n      0x00\n      mstore\n      keccak256(0x00, 0x20)\n      swap1\n      0x08\n      mul\n      add\n        /* \"contracts/CarreraCoches/principal.sol\":2115:2135  listaCoches[i].marca */\n      0x02\n      add\n        /* \"contracts/CarreraCoches/principal.sol\":2137:2148  listaCoches */\n      0x04\n        /* \"contracts/CarreraCoches/principal.sol\":2149:2150  i */\n      dup4\n        /* \"contracts/CarreraCoches/principal.sol\":2137:2151  listaCoches[i] */\n      dup2\n      sload\n      dup2\n      lt\n      tag_152\n      jumpi\n      tag_153\n      tag_92\n      jump\t// in\n    tag_153:\n    tag_152:\n      swap1\n      0x00\n      mstore\n      keccak256(0x00, 0x20)\n      swap1\n      0x08\n      mul\n      add\n        /* \"contracts/CarreraCoches/principal.sol\":2137:2158  listaCoches[i].modelo */\n      0x01\n      add\n        /* \"contracts/CarreraCoches/principal.sol\":2098:2159  cochePropietario(listaCoches[i].marca, listaCoches[i].modelo) */\n      mload(0x40)\n      tag_155\n      swap3\n      swap2\n      swap1\n      tag_156\n      jump\t// in\n    tag_155:\n      mload(0x40)\n      dup1\n      swap2\n      sub\n      swap1\n      log1\n        /* \"contracts/CarreraCoches/principal.sol\":2035:2175  if(cocheDePropietario[i]==_propietario){\r... */\n    tag_148:\n        /* \"contracts/CarreraCoches/principal.sol\":2016:2019  i++ */\n      dup1\n      dup1\n      tag_157\n      swap1\n      tag_73\n      jump\t// in\n    tag_157:\n      swap2\n      pop\n      pop\n        /* \"contracts/CarreraCoches/principal.sol\":1976:2186  for(uint i = 0; i < listaCoches.length; i++){\r... */\n      jump(tag_145)\n    tag_146:\n      pop\n        /* \"contracts/CarreraCoches/principal.sol\":1883:2193  function verCochePropietario(address _propietario) external returns(uint[] memory){\r... */\n      swap2\n      swap1\n      pop\n      jump\t// out\n        /* \"contracts/CarreraCoches/ownable.sol\":1978:2179  function transferOwnership(address newOwner) public virtual onlyOwner {\r... */\n    tag_59:\n        /* \"contracts/CarreraCoches/ownable.sol\":1300:1312  _msgSender() */\n      tag_159\n        /* \"contracts/CarreraCoches/ownable.sol\":1300:1310  _msgSender */\n      tag_117\n        /* \"contracts/CarreraCoches/ownable.sol\":1300:1312  _msgSender() */\n      jump\t// in\n    tag_159:\n        /* \"contracts/CarreraCoches/ownable.sol\":1289:1312  owner() == _msgSender() */\n      0xffffffffffffffffffffffffffffffffffffffff\n      and\n        /* \"contracts/CarreraCoches/ownable.sol\":1289:1296  owner() */\n      tag_160\n        /* \"contracts/CarreraCoches/ownable.sol\":1289:1294  owner */\n      tag_42\n        /* \"contracts/CarreraCoches/ownable.sol\":1289:1296  owner() */\n      jump\t// in\n    tag_160:\n        /* \"contracts/CarreraCoches/ownable.sol\":1289:1312  owner() == _msgSender() */\n      0xffffffffffffffffffffffffffffffffffffffff\n      and\n      eq\n        /* \"contracts/CarreraCoches/ownable.sol\":1281:1349  require(owner() == _msgSender(), \"Ownable: caller is not the owner\") */\n      tag_161\n      jumpi\n      mload(0x40)\n      0x08c379a000000000000000000000000000000000000000000000000000000000\n      dup2\n      mstore\n      0x04\n      add\n      tag_162\n      swap1\n      tag_121\n      jump\t// in\n    tag_162:\n      mload(0x40)\n      dup1\n      swap2\n      sub\n      swap1\n      revert\n    tag_161:\n        /* \"contracts/CarreraCoches/ownable.sol\":2087:2088  0 */\n      0x00\n        /* \"contracts/CarreraCoches/ownable.sol\":2067:2089  newOwner != address(0) */\n      0xffffffffffffffffffffffffffffffffffffffff\n      and\n        /* \"contracts/CarreraCoches/ownable.sol\":2067:2075  newOwner */\n      dup2\n        /* \"contracts/CarreraCoches/ownable.sol\":2067:2089  newOwner != address(0) */\n      0xffffffffffffffffffffffffffffffffffffffff\n      and\n      eq\n      iszero\n        /* \"contracts/CarreraCoches/ownable.sol\":2059:2132  require(newOwner != address(0), \"Ownable: new owner is the zero address\") */\n      tag_164\n      jumpi\n      mload(0x40)\n      0x08c379a000000000000000000000000000000000000000000000000000000000\n      dup2\n      mstore\n      0x04\n      add\n      tag_165\n      swap1\n      tag_166\n      jump\t// in\n    tag_165:\n      mload(0x40)\n      dup1\n      swap2\n      sub\n      swap1\n      revert\n    tag_164:\n        /* \"contracts/CarreraCoches/ownable.sol\":2143:2171  _transferOwnership(newOwner) */\n      tag_167\n        /* \"contracts/CarreraCoches/ownable.sol\":2162:2170  newOwner */\n      dup2\n        /* \"contracts/CarreraCoches/ownable.sol\":2143:2161  _transferOwnership */\n      tag_124\n        /* \"contracts/CarreraCoches/ownable.sol\":2143:2171  _transferOwnership(newOwner) */\n      jump\t// in\n    tag_167:\n        /* \"contracts/CarreraCoches/ownable.sol\":1978:2179  function transferOwnership(address newOwner) public virtual onlyOwner {\r... */\n      pop\n      jump\t// out\n        /* \"contracts/CarreraCoches/principal.sol\":3763:3942  function balance() private {\r... */\n    tag_97:\n        /* \"contracts/CarreraCoches/principal.sol\":3810:3820  msg.sender */\n      caller\n        /* \"contracts/CarreraCoches/principal.sol\":3801:3830  payable (msg.sender).transfer */\n      0xffffffffffffffffffffffffffffffffffffffff\n      and\n        /* \"contracts/CarreraCoches/principal.sol\":3801:3857  payable (msg.sender).transfer((address(this).balance)*2) */\n      0x08fc\n        /* \"contracts/CarreraCoches/principal.sol\":3855:3856  2 */\n      0x02\n        /* \"contracts/CarreraCoches/principal.sol\":3832:3853  address(this).balance */\n      selfbalance\n        /* \"contracts/CarreraCoches/principal.sol\":3831:3856  (address(this).balance)*2 */\n      tag_169\n      swap2\n      swap1\n      tag_170\n      jump\t// in\n    tag_169:\n        /* \"contracts/CarreraCoches/principal.sol\":3801:3857  payable (msg.sender).transfer((address(this).balance)*2) */\n      swap1\n      dup2\n      iszero\n      mul\n      swap1\n      mload(0x40)\n      0x00\n      mload(0x40)\n      dup1\n      dup4\n      sub\n      dup2\n      dup6\n      dup9\n      dup9\n      call\n      swap4\n      pop\n      pop\n      pop\n      pop\n      iszero\n      dup1\n      iszero\n      tag_172\n      jumpi\n      returndatasize\n      0x00\n      dup1\n      returndatacopy\n      revert(0x00, returndatasize)\n    tag_172:\n      pop\n        /* \"contracts/CarreraCoches/principal.sol\":3873:3934  mostrarResultado(\"Has ganado: \", ((address(this).balance)*2)) */\n      0xa28482eec3136a2461c6c30c08f71ba279c6c51a2d9c7bea4e50d6d2632f3896\n        /* \"contracts/CarreraCoches/principal.sol\":3931:3932  2 */\n      0x02\n        /* \"contracts/CarreraCoches/principal.sol\":3908:3929  address(this).balance */\n      selfbalance\n        /* \"contracts/CarreraCoches/principal.sol\":3907:3932  (address(this).balance)*2 */\n      tag_173\n      swap2\n      swap1\n      tag_170\n      jump\t// in\n    tag_173:\n        /* \"contracts/CarreraCoches/principal.sol\":3873:3934  mostrarResultado(\"Has ganado: \", ((address(this).balance)*2)) */\n      mload(0x40)\n      tag_174\n      swap2\n      swap1\n      tag_175\n      jump\t// in\n    tag_174:\n      mload(0x40)\n      dup1\n      swap2\n      sub\n      swap1\n      log1\n        /* \"contracts/CarreraCoches/principal.sol\":3763:3942  function balance() private {\r... */\n      jump\t// out\n        /* \"contracts/CarreraCoches/utils/Context.sol\":656:754  function _msgSender() internal view virtual returns (address) {\r... */\n    tag_117:\n        /* \"contracts/CarreraCoches/utils/Context.sol\":709:716  address */\n      0x00\n        /* \"contracts/CarreraCoches/utils/Context.sol\":736:746  msg.sender */\n      caller\n        /* \"contracts/CarreraCoches/utils/Context.sol\":729:746  return msg.sender */\n      swap1\n      pop\n        /* \"contracts/CarreraCoches/utils/Context.sol\":656:754  function _msgSender() internal view virtual returns (address) {\r... */\n      swap1\n      jump\t// out\n        /* \"contracts/CarreraCoches/ownable.sol\":2339:2530  function _transferOwnership(address newOwner) internal virtual {\r... */\n    tag_124:\n        /* \"contracts/CarreraCoches/ownable.sol\":2413:2429  address oldOwner */\n      0x00\n        /* \"contracts/CarreraCoches/ownable.sol\":2432:2438  _owner */\n      dup1\n      0x00\n      swap1\n      sload\n      swap1\n      0x0100\n      exp\n      swap1\n      div\n      0xffffffffffffffffffffffffffffffffffffffff\n      and\n        /* \"contracts/CarreraCoches/ownable.sol\":2413:2438  address oldOwner = _owner */\n      swap1\n      pop\n        /* \"contracts/CarreraCoches/ownable.sol\":2458:2466  newOwner */\n      dup2\n        /* \"contracts/CarreraCoches/ownable.sol\":2449:2455  _owner */\n      0x00\n      dup1\n        /* \"contracts/CarreraCoches/ownable.sol\":2449:2466  _owner = newOwner */\n      0x0100\n      exp\n      dup2\n      sload\n      dup2\n      0xffffffffffffffffffffffffffffffffffffffff\n      mul\n      not\n      and\n      swap1\n      dup4\n      0xffffffffffffffffffffffffffffffffffffffff\n      and\n      mul\n      or\n      swap1\n      sstore\n      pop\n        /* \"contracts/CarreraCoches/ownable.sol\":2513:2521  newOwner */\n      dup2\n        /* \"contracts/CarreraCoches/ownable.sol\":2482:2522  OwnershipTransferred(oldOwner, newOwner) */\n      0xffffffffffffffffffffffffffffffffffffffff\n      and\n        /* \"contracts/CarreraCoches/ownable.sol\":2503:2511  oldOwner */\n      dup2\n        /* \"contracts/CarreraCoches/ownable.sol\":2482:2522  OwnershipTransferred(oldOwner, newOwner) */\n      0xffffffffffffffffffffffffffffffffffffffff\n      and\n      0x8be0079c531659141344cd1fd0a4f28419497f9722a3daafe3b4186f6b6457e0\n      mload(0x40)\n      mload(0x40)\n      dup1\n      swap2\n      sub\n      swap1\n      log3\n        /* \"contracts/CarreraCoches/ownable.sol\":2402:2530  {\r... */\n      pop\n        /* \"contracts/CarreraCoches/ownable.sol\":2339:2530  function _transferOwnership(address newOwner) internal virtual {\r... */\n      pop\n      jump\t// out\n    tag_69:\n      dup3\n      dup1\n      sload\n      tag_180\n      swap1\n      tag_129\n      jump\t// in\n    tag_180:\n      swap1\n      0x00\n      mstore\n      keccak256(0x00, 0x20)\n      swap1\n      0x1f\n      add\n      0x20\n      swap1\n      div\n      dup2\n      add\n      swap3\n      dup3\n      tag_182\n      jumpi\n      0x00\n      dup6\n      sstore\n      jump(tag_181)\n    tag_182:\n      dup3\n      0x1f\n      lt\n      tag_183\n      jumpi\n      dup1\n      mload\n      not(0xff)\n      and\n      dup4\n      dup1\n      add\n      or\n      dup6\n      sstore\n      jump(tag_181)\n    tag_183:\n      dup3\n      dup1\n      add\n      0x01\n      add\n      dup6\n      sstore\n      dup3\n      iszero\n      tag_181\n      jumpi\n      swap2\n      dup3\n      add\n    tag_184:\n      dup3\n      dup2\n      gt\n      iszero\n      tag_185\n      jumpi\n      dup3\n      mload\n      dup3\n      sstore\n      swap2\n      0x20\n      add\n      swap2\n      swap1\n      0x01\n      add\n      swap1\n      jump(tag_184)\n    tag_185:\n    tag_181:\n      pop\n      swap1\n      pop\n      tag_186\n      swap2\n      swap1\n      tag_187\n      jump\t// in\n    tag_186:\n      pop\n      swap1\n      jump\t// out\n    tag_187:\n    tag_188:\n      dup1\n      dup3\n      gt\n      iszero\n      tag_189\n      jumpi\n      0x00\n      dup2\n      0x00\n      swap1\n      sstore\n      pop\n      0x01\n      add\n      jump(tag_188)\n    tag_189:\n      pop\n      swap1\n      jump\t// out\n        /* \"#utility.yul\":7:419   */\n    tag_191:\n        /* \"#utility.yul\":85:90   */\n      0x00\n        /* \"#utility.yul\":110:176   */\n      tag_193\n        /* \"#utility.yul\":126:175   */\n      tag_194\n        /* \"#utility.yul\":168:174   */\n      dup5\n        /* \"#utility.yul\":126:175   */\n      tag_195\n      jump\t// in\n    tag_194:\n        /* \"#utility.yul\":110:176   */\n      tag_196\n      jump\t// in\n    tag_193:\n        /* \"#utility.yul\":101:176   */\n      swap1\n      pop\n        /* \"#utility.yul\":199:205   */\n      dup3\n        /* \"#utility.yul\":192:197   */\n      dup2\n        /* \"#utility.yul\":185:206   */\n      mstore\n        /* \"#utility.yul\":237:241   */\n      0x20\n        /* \"#utility.yul\":230:235   */\n      dup2\n        /* \"#utility.yul\":226:242   */\n      add\n        /* \"#utility.yul\":275:278   */\n      dup5\n        /* \"#utility.yul\":266:272   */\n      dup5\n        /* \"#utility.yul\":261:264   */\n      dup5\n        /* \"#utility.yul\":257:273   */\n      add\n        /* \"#utility.yul\":254:279   */\n      gt\n        /* \"#utility.yul\":251:363   */\n      iszero\n      tag_197\n      jumpi\n        /* \"#utility.yul\":282:361   */\n      tag_198\n      tag_199\n      jump\t// in\n    tag_198:\n        /* \"#utility.yul\":251:363   */\n    tag_197:\n        /* \"#utility.yul\":372:413   */\n      tag_200\n        /* \"#utility.yul\":406:412   */\n      dup5\n        /* \"#utility.yul\":401:404   */\n      dup3\n        /* \"#utility.yul\":396:399   */\n      dup6\n        /* \"#utility.yul\":372:413   */\n      tag_201\n      jump\t// in\n    tag_200:\n        /* \"#utility.yul\":91:419   */\n      pop\n        /* \"#utility.yul\":7:419   */\n      swap4\n      swap3\n      pop\n      pop\n      pop\n      jump\t// out\n        /* \"#utility.yul\":425:564   */\n    tag_202:\n        /* \"#utility.yul\":471:476   */\n      0x00\n        /* \"#utility.yul\":509:515   */\n      dup2\n        /* \"#utility.yul\":496:516   */\n      calldataload\n        /* \"#utility.yul\":487:516   */\n      swap1\n      pop\n        /* \"#utility.yul\":525:558   */\n      tag_204\n        /* \"#utility.yul\":552:557   */\n      dup2\n        /* \"#utility.yul\":525:558   */\n      tag_205\n      jump\t// in\n    tag_204:\n        /* \"#utility.yul\":425:564   */\n      swap3\n      swap2\n      pop\n      pop\n      jump\t// out\n        /* \"#utility.yul\":584:924   */\n    tag_206:\n        /* \"#utility.yul\":640:645   */\n      0x00\n        /* \"#utility.yul\":689:692   */\n      dup3\n        /* \"#utility.yul\":682:686   */\n      0x1f\n        /* \"#utility.yul\":674:680   */\n      dup4\n        /* \"#utility.yul\":670:687   */\n      add\n        /* \"#utility.yul\":666:693   */\n      slt\n        /* \"#utility.yul\":656:778   */\n      tag_208\n      jumpi\n        /* \"#utility.yul\":697:776   */\n      tag_209\n      tag_210\n      jump\t// in\n    tag_209:\n        /* \"#utility.yul\":656:778   */\n    tag_208:\n        /* \"#utility.yul\":814:820   */\n      dup2\n        /* \"#utility.yul\":801:821   */\n      calldataload\n        /* \"#utility.yul\":839:918   */\n      tag_211\n        /* \"#utility.yul\":914:917   */\n      dup5\n        /* \"#utility.yul\":906:912   */\n      dup3\n        /* \"#utility.yul\":899:903   */\n      0x20\n        /* \"#utility.yul\":891:897   */\n      dup7\n        /* \"#utility.yul\":887:904   */\n      add\n        /* \"#utility.yul\":839:918   */\n      tag_191\n      jump\t// in\n    tag_211:\n        /* \"#utility.yul\":830:918   */\n      swap2\n      pop\n        /* \"#utility.yul\":646:924   */\n      pop\n        /* \"#utility.yul\":584:924   */\n      swap3\n      swap2\n      pop\n      pop\n      jump\t// out\n        /* \"#utility.yul\":930:1069   */\n    tag_212:\n        /* \"#utility.yul\":976:981   */\n      0x00\n        /* \"#utility.yul\":1014:1020   */\n      dup2\n        /* \"#utility.yul\":1001:1021   */\n      calldataload\n        /* \"#utility.yul\":992:1021   */\n      swap1\n      pop\n        /* \"#utility.yul\":1030:1063   */\n      tag_214\n        /* \"#utility.yul\":1057:1062   */\n      dup2\n        /* \"#utility.yul\":1030:1063   */\n      tag_215\n      jump\t// in\n    tag_214:\n        /* \"#utility.yul\":930:1069   */\n      swap3\n      swap2\n      pop\n      pop\n      jump\t// out\n        /* \"#utility.yul\":1075:1404   */\n    tag_15:\n        /* \"#utility.yul\":1134:1140   */\n      0x00\n        /* \"#utility.yul\":1183:1185   */\n      0x20\n        /* \"#utility.yul\":1171:1180   */\n      dup3\n        /* \"#utility.yul\":1162:1169   */\n      dup5\n        /* \"#utility.yul\":1158:1181   */\n      sub\n        /* \"#utility.yul\":1154:1186   */\n      slt\n        /* \"#utility.yul\":1151:1270   */\n      iszero\n      tag_217\n      jumpi\n        /* \"#utility.yul\":1189:1268   */\n      tag_218\n      tag_219\n      jump\t// in\n    tag_218:\n        /* \"#utility.yul\":1151:1270   */\n    tag_217:\n        /* \"#utility.yul\":1309:1310   */\n      0x00\n        /* \"#utility.yul\":1334:1387   */\n      tag_220\n        /* \"#utility.yul\":1379:1386   */\n      dup5\n        /* \"#utility.yul\":1370:1376   */\n      dup3\n        /* \"#utility.yul\":1359:1368   */\n      dup6\n        /* \"#utility.yul\":1355:1377   */\n      add\n        /* \"#utility.yul\":1334:1387   */\n      tag_202\n      jump\t// in\n    tag_220:\n        /* \"#utility.yul\":1324:1387   */\n      swap2\n      pop\n        /* \"#utility.yul\":1280:1397   */\n      pop\n        /* \"#utility.yul\":1075:1404   */\n      swap3\n      swap2\n      pop\n      pop\n      jump\t// out\n        /* \"#utility.yul\":1410:2569   */\n    tag_22:\n        /* \"#utility.yul\":1517:1523   */\n      0x00\n        /* \"#utility.yul\":1525:1531   */\n      dup1\n        /* \"#utility.yul\":1533:1539   */\n      0x00\n        /* \"#utility.yul\":1582:1584   */\n      0x60\n        /* \"#utility.yul\":1570:1579   */\n      dup5\n        /* \"#utility.yul\":1561:1568   */\n      dup7\n        /* \"#utility.yul\":1557:1580   */\n      sub\n        /* \"#utility.yul\":1553:1585   */\n      slt\n        /* \"#utility.yul\":1550:1669   */\n      iszero\n      tag_222\n      jumpi\n        /* \"#utility.yul\":1588:1667   */\n      tag_223\n      tag_219\n      jump\t// in\n    tag_223:\n        /* \"#utility.yul\":1550:1669   */\n    tag_222:\n        /* \"#utility.yul\":1736:1737   */\n      0x00\n        /* \"#utility.yul\":1725:1734   */\n      dup5\n        /* \"#utility.yul\":1721:1738   */\n      add\n        /* \"#utility.yul\":1708:1739   */\n      calldataload\n        /* \"#utility.yul\":1766:1784   */\n      0xffffffffffffffff\n        /* \"#utility.yul\":1758:1764   */\n      dup2\n        /* \"#utility.yul\":1755:1785   */\n      gt\n        /* \"#utility.yul\":1752:1869   */\n      iszero\n      tag_224\n      jumpi\n        /* \"#utility.yul\":1788:1867   */\n      tag_225\n      tag_226\n      jump\t// in\n    tag_225:\n        /* \"#utility.yul\":1752:1869   */\n    tag_224:\n        /* \"#utility.yul\":1893:1956   */\n      tag_227\n        /* \"#utility.yul\":1948:1955   */\n      dup7\n        /* \"#utility.yul\":1939:1945   */\n      dup3\n        /* \"#utility.yul\":1928:1937   */\n      dup8\n        /* \"#utility.yul\":1924:1946   */\n      add\n        /* \"#utility.yul\":1893:1956   */\n      tag_206\n      jump\t// in\n    tag_227:\n        /* \"#utility.yul\":1883:1956   */\n      swap4\n      pop\n        /* \"#utility.yul\":1679:1966   */\n      pop\n        /* \"#utility.yul\":2033:2035   */\n      0x20\n        /* \"#utility.yul\":2022:2031   */\n      dup5\n        /* \"#utility.yul\":2018:2036   */\n      add\n        /* \"#utility.yul\":2005:2037   */\n      calldataload\n        /* \"#utility.yul\":2064:2082   */\n      0xffffffffffffffff\n        /* \"#utility.yul\":2056:2062   */\n      dup2\n        /* \"#utility.yul\":2053:2083   */\n      gt\n        /* \"#utility.yul\":2050:2167   */\n      iszero\n      tag_228\n      jumpi\n        /* \"#utility.yul\":2086:2165   */\n      tag_229\n      tag_226\n      jump\t// in\n    tag_229:\n        /* \"#utility.yul\":2050:2167   */\n    tag_228:\n        /* \"#utility.yul\":2191:2254   */\n      tag_230\n        /* \"#utility.yul\":2246:2253   */\n      dup7\n        /* \"#utility.yul\":2237:2243   */\n      dup3\n        /* \"#utility.yul\":2226:2235   */\n      dup8\n        /* \"#utility.yul\":2222:2244   */\n      add\n        /* \"#utility.yul\":2191:2254   */\n      tag_206\n      jump\t// in\n    tag_230:\n        /* \"#utility.yul\":2181:2254   */\n      swap3\n      pop\n        /* \"#utility.yul\":1976:2264   */\n      pop\n        /* \"#utility.yul\":2331:2333   */\n      0x40\n        /* \"#utility.yul\":2320:2329   */\n      dup5\n        /* \"#utility.yul\":2316:2334   */\n      add\n        /* \"#utility.yul\":2303:2335   */\n      calldataload\n        /* \"#utility.yul\":2362:2380   */\n      0xffffffffffffffff\n        /* \"#utility.yul\":2354:2360   */\n      dup2\n        /* \"#utility.yul\":2351:2381   */\n      gt\n        /* \"#utility.yul\":2348:2465   */\n      iszero\n      tag_231\n      jumpi\n        /* \"#utility.yul\":2384:2463   */\n      tag_232\n      tag_226\n      jump\t// in\n    tag_232:\n        /* \"#utility.yul\":2348:2465   */\n    tag_231:\n        /* \"#utility.yul\":2489:2552   */\n      tag_233\n        /* \"#utility.yul\":2544:2551   */\n      dup7\n        /* \"#utility.yul\":2535:2541   */\n      dup3\n        /* \"#utility.yul\":2524:2533   */\n      dup8\n        /* \"#utility.yul\":2520:2542   */\n      add\n        /* \"#utility.yul\":2489:2552   */\n      tag_206\n      jump\t// in\n    tag_233:\n        /* \"#utility.yul\":2479:2552   */\n      swap2\n      pop\n        /* \"#utility.yul\":2274:2562   */\n      pop\n        /* \"#utility.yul\":1410:2569   */\n      swap3\n      pop\n      swap3\n      pop\n      swap3\n      jump\t// out\n        /* \"#utility.yul\":2575:2904   */\n    tag_27:\n        /* \"#utility.yul\":2634:2640   */\n      0x00\n        /* \"#utility.yul\":2683:2685   */\n      0x20\n        /* \"#utility.yul\":2671:2680   */\n      dup3\n        /* \"#utility.yul\":2662:2669   */\n      dup5\n        /* \"#utility.yul\":2658:2681   */\n      sub\n        /* \"#utility.yul\":2654:2686   */\n      slt\n        /* \"#utility.yul\":2651:2770   */\n      iszero\n      tag_235\n      jumpi\n        /* \"#utility.yul\":2689:2768   */\n      tag_236\n      tag_219\n      jump\t// in\n    tag_236:\n        /* \"#utility.yul\":2651:2770   */\n    tag_235:\n        /* \"#utility.yul\":2809:2810   */\n      0x00\n        /* \"#utility.yul\":2834:2887   */\n      tag_237\n        /* \"#utility.yul\":2879:2886   */\n      dup5\n        /* \"#utility.yul\":2870:2876   */\n      dup3\n        /* \"#utility.yul\":2859:2868   */\n      dup6\n        /* \"#utility.yul\":2855:2877   */\n      add\n        /* \"#utility.yul\":2834:2887   */\n      tag_212\n      jump\t// in\n    tag_237:\n        /* \"#utility.yul\":2824:2887   */\n      swap2\n      pop\n        /* \"#utility.yul\":2780:2897   */\n      pop\n        /* \"#utility.yul\":2575:2904   */\n      swap3\n      swap2\n      pop\n      pop\n      jump\t// out\n        /* \"#utility.yul\":2910:3089   */\n    tag_238:\n        /* \"#utility.yul\":2979:2989   */\n      0x00\n        /* \"#utility.yul\":3000:3046   */\n      tag_240\n        /* \"#utility.yul\":3042:3045   */\n      dup4\n        /* \"#utility.yul\":3034:3040   */\n      dup4\n        /* \"#utility.yul\":3000:3046   */\n      tag_241\n      jump\t// in\n    tag_240:\n        /* \"#utility.yul\":3078:3082   */\n      0x20\n        /* \"#utility.yul\":3073:3076   */\n      dup4\n        /* \"#utility.yul\":3069:3083   */\n      add\n        /* \"#utility.yul\":3055:3083   */\n      swap1\n      pop\n        /* \"#utility.yul\":2910:3089   */\n      swap3\n      swap2\n      pop\n      pop\n      jump\t// out\n        /* \"#utility.yul\":3095:3213   */\n    tag_242:\n        /* \"#utility.yul\":3182:3206   */\n      tag_244\n        /* \"#utility.yul\":3200:3205   */\n      dup2\n        /* \"#utility.yul\":3182:3206   */\n      tag_245\n      jump\t// in\n    tag_244:\n        /* \"#utility.yul\":3177:3180   */\n      dup3\n        /* \"#utility.yul\":3170:3207   */\n      mstore\n        /* \"#utility.yul\":3095:3213   */\n      pop\n      pop\n      jump\t// out\n        /* \"#utility.yul\":3249:3981   */\n    tag_246:\n        /* \"#utility.yul\":3368:3371   */\n      0x00\n        /* \"#utility.yul\":3397:3451   */\n      tag_248\n        /* \"#utility.yul\":3445:3450   */\n      dup3\n        /* \"#utility.yul\":3397:3451   */\n      tag_249\n      jump\t// in\n    tag_248:\n        /* \"#utility.yul\":3467:3553   */\n      tag_250\n        /* \"#utility.yul\":3546:3552   */\n      dup2\n        /* \"#utility.yul\":3541:3544   */\n      dup6\n        /* \"#utility.yul\":3467:3553   */\n      tag_251\n      jump\t// in\n    tag_250:\n        /* \"#utility.yul\":3460:3553   */\n      swap4\n      pop\n        /* \"#utility.yul\":3577:3633   */\n      tag_252\n        /* \"#utility.yul\":3627:3632   */\n      dup4\n        /* \"#utility.yul\":3577:3633   */\n      tag_253\n      jump\t// in\n    tag_252:\n        /* \"#utility.yul\":3656:3663   */\n      dup1\n        /* \"#utility.yul\":3687:3688   */\n      0x00\n        /* \"#utility.yul\":3672:3956   */\n    tag_254:\n        /* \"#utility.yul\":3697:3703   */\n      dup4\n        /* \"#utility.yul\":3694:3695   */\n      dup2\n        /* \"#utility.yul\":3691:3704   */\n      lt\n        /* \"#utility.yul\":3672:3956   */\n      iszero\n      tag_256\n      jumpi\n        /* \"#utility.yul\":3773:3779   */\n      dup2\n        /* \"#utility.yul\":3767:3780   */\n      mload\n        /* \"#utility.yul\":3800:3863   */\n      tag_257\n        /* \"#utility.yul\":3859:3862   */\n      dup9\n        /* \"#utility.yul\":3844:3857   */\n      dup3\n        /* \"#utility.yul\":3800:3863   */\n      tag_238\n      jump\t// in\n    tag_257:\n        /* \"#utility.yul\":3793:3863   */\n      swap8\n      pop\n        /* \"#utility.yul\":3886:3946   */\n      tag_258\n        /* \"#utility.yul\":3939:3945   */\n      dup4\n        /* \"#utility.yul\":3886:3946   */\n      tag_259\n      jump\t// in\n    tag_258:\n        /* \"#utility.yul\":3876:3946   */\n      swap3\n      pop\n        /* \"#utility.yul\":3732:3956   */\n      pop\n        /* \"#utility.yul\":3719:3720   */\n      0x01\n        /* \"#utility.yul\":3716:3717   */\n      dup2\n        /* \"#utility.yul\":3712:3721   */\n      add\n        /* \"#utility.yul\":3707:3721   */\n      swap1\n      pop\n        /* \"#utility.yul\":3672:3956   */\n      jump(tag_254)\n    tag_256:\n        /* \"#utility.yul\":3676:3690   */\n      pop\n        /* \"#utility.yul\":3972:3975   */\n      dup6\n        /* \"#utility.yul\":3965:3975   */\n      swap4\n      pop\n        /* \"#utility.yul\":3373:3981   */\n      pop\n      pop\n      pop\n        /* \"#utility.yul\":3249:3981   */\n      swap3\n      swap2\n      pop\n      pop\n      jump\t// out\n        /* \"#utility.yul\":3987:4351   */\n    tag_260:\n        /* \"#utility.yul\":4075:4078   */\n      0x00\n        /* \"#utility.yul\":4103:4142   */\n      tag_262\n        /* \"#utility.yul\":4136:4141   */\n      dup3\n        /* \"#utility.yul\":4103:4142   */\n      tag_263\n      jump\t// in\n    tag_262:\n        /* \"#utility.yul\":4158:4229   */\n      tag_264\n        /* \"#utility.yul\":4222:4228   */\n      dup2\n        /* \"#utility.yul\":4217:4220   */\n      dup6\n        /* \"#utility.yul\":4158:4229   */\n      tag_265\n      jump\t// in\n    tag_264:\n        /* \"#utility.yul\":4151:4229   */\n      swap4\n      pop\n        /* \"#utility.yul\":4238:4290   */\n      tag_266\n        /* \"#utility.yul\":4283:4289   */\n      dup2\n        /* \"#utility.yul\":4278:4281   */\n      dup6\n        /* \"#utility.yul\":4271:4275   */\n      0x20\n        /* \"#utility.yul\":4264:4269   */\n      dup7\n        /* \"#utility.yul\":4260:4276   */\n      add\n        /* \"#utility.yul\":4238:4290   */\n      tag_267\n      jump\t// in\n    tag_266:\n        /* \"#utility.yul\":4315:4344   */\n      tag_268\n        /* \"#utility.yul\":4337:4343   */\n      dup2\n        /* \"#utility.yul\":4315:4344   */\n      tag_269\n      jump\t// in\n    tag_268:\n        /* \"#utility.yul\":4310:4313   */\n      dup5\n        /* \"#utility.yul\":4306:4345   */\n      add\n        /* \"#utility.yul\":4299:4345   */\n      swap2\n      pop\n        /* \"#utility.yul\":4079:4351   */\n      pop\n        /* \"#utility.yul\":3987:4351   */\n      swap3\n      swap2\n      pop\n      pop\n      jump\t// out\n        /* \"#utility.yul\":4381:5183   */\n    tag_270:\n        /* \"#utility.yul\":4466:4469   */\n      0x00\n        /* \"#utility.yul\":4503:4508   */\n      dup2\n        /* \"#utility.yul\":4497:4509   */\n      sload\n        /* \"#utility.yul\":4532:4568   */\n      tag_272\n        /* \"#utility.yul\":4558:4567   */\n      dup2\n        /* \"#utility.yul\":4532:4568   */\n      tag_129\n      jump\t// in\n    tag_272:\n        /* \"#utility.yul\":4584:4655   */\n      tag_273\n        /* \"#utility.yul\":4648:4654   */\n      dup2\n        /* \"#utility.yul\":4643:4646   */\n      dup7\n        /* \"#utility.yul\":4584:4655   */\n      tag_265\n      jump\t// in\n    tag_273:\n        /* \"#utility.yul\":4577:4655   */\n      swap5\n      pop\n        /* \"#utility.yul\":4686:4687   */\n      0x01\n        /* \"#utility.yul\":4675:4684   */\n      dup3\n        /* \"#utility.yul\":4671:4688   */\n      and\n        /* \"#utility.yul\":4702:4703   */\n      0x00\n        /* \"#utility.yul\":4697:4832   */\n      dup2\n      eq\n      tag_275\n      jumpi\n        /* \"#utility.yul\":4846:4847   */\n      0x01\n        /* \"#utility.yul\":4841:5177   */\n      dup2\n      eq\n      tag_276\n      jumpi\n        /* \"#utility.yul\":4664:5177   */\n      jump(tag_274)\n        /* \"#utility.yul\":4697:4832   */\n    tag_275:\n        /* \"#utility.yul\":4781:4785   */\n      0xff\n        /* \"#utility.yul\":4777:4786   */\n      not\n        /* \"#utility.yul\":4766:4775   */\n      dup4\n        /* \"#utility.yul\":4762:4787   */\n      and\n        /* \"#utility.yul\":4757:4760   */\n      dup7\n        /* \"#utility.yul\":4750:4788   */\n      mstore\n        /* \"#utility.yul\":4817:4821   */\n      0x20\n        /* \"#utility.yul\":4812:4815   */\n      dup7\n        /* \"#utility.yul\":4808:4822   */\n      add\n        /* \"#utility.yul\":4801:4822   */\n      swap4\n      pop\n        /* \"#utility.yul\":4697:4832   */\n      jump(tag_274)\n        /* \"#utility.yul\":4841:5177   */\n    tag_276:\n        /* \"#utility.yul\":4908:4946   */\n      tag_277\n        /* \"#utility.yul\":4940:4945   */\n      dup6\n        /* \"#utility.yul\":4908:4946   */\n      tag_278\n      jump\t// in\n    tag_277:\n        /* \"#utility.yul\":4968:4969   */\n      0x00\n        /* \"#utility.yul\":4982:5136   */\n    tag_279:\n        /* \"#utility.yul\":4996:5002   */\n      dup4\n        /* \"#utility.yul\":4993:4994   */\n      dup2\n        /* \"#utility.yul\":4990:5003   */\n      lt\n        /* \"#utility.yul\":4982:5136   */\n      iszero\n      tag_281\n      jumpi\n        /* \"#utility.yul\":5070:5077   */\n      dup2\n        /* \"#utility.yul\":5064:5078   */\n      sload\n        /* \"#utility.yul\":5060:5061   */\n      dup2\n        /* \"#utility.yul\":5055:5058   */\n      dup10\n        /* \"#utility.yul\":5051:5062   */\n      add\n        /* \"#utility.yul\":5044:5079   */\n      mstore\n        /* \"#utility.yul\":5120:5121   */\n      0x01\n        /* \"#utility.yul\":5111:5118   */\n      dup3\n        /* \"#utility.yul\":5107:5122   */\n      add\n        /* \"#utility.yul\":5096:5122   */\n      swap2\n      pop\n        /* \"#utility.yul\":5018:5022   */\n      0x20\n        /* \"#utility.yul\":5015:5016   */\n      dup2\n        /* \"#utility.yul\":5011:5023   */\n      add\n        /* \"#utility.yul\":5006:5023   */\n      swap1\n      pop\n        /* \"#utility.yul\":4982:5136   */\n      jump(tag_279)\n    tag_281:\n        /* \"#utility.yul\":5165:5166   */\n      dup1\n        /* \"#utility.yul\":5160:5163   */\n      dup9\n        /* \"#utility.yul\":5156:5167   */\n      add\n        /* \"#utility.yul\":5149:5167   */\n      swap6\n      pop\n        /* \"#utility.yul\":4848:5177   */\n      pop\n      pop\n        /* \"#utility.yul\":4664:5177   */\n    tag_274:\n      pop\n        /* \"#utility.yul\":4470:5183   */\n      pop\n      pop\n        /* \"#utility.yul\":4381:5183   */\n      swap3\n      swap2\n      pop\n      pop\n      jump\t// out\n        /* \"#utility.yul\":5189:5555   */\n    tag_282:\n        /* \"#utility.yul\":5331:5334   */\n      0x00\n        /* \"#utility.yul\":5352:5419   */\n      tag_284\n        /* \"#utility.yul\":5416:5418   */\n      0x28\n        /* \"#utility.yul\":5411:5414   */\n      dup4\n        /* \"#utility.yul\":5352:5419   */\n      tag_265\n      jump\t// in\n    tag_284:\n        /* \"#utility.yul\":5345:5419   */\n      swap2\n      pop\n        /* \"#utility.yul\":5428:5521   */\n      tag_285\n        /* \"#utility.yul\":5517:5520   */\n      dup3\n        /* \"#utility.yul\":5428:5521   */\n      tag_286\n      jump\t// in\n    tag_285:\n        /* \"#utility.yul\":5546:5548   */\n      0x40\n        /* \"#utility.yul\":5541:5544   */\n      dup3\n        /* \"#utility.yul\":5537:5549   */\n      add\n        /* \"#utility.yul\":5530:5549   */\n      swap1\n      pop\n        /* \"#utility.yul\":5189:5555   */\n      swap2\n      swap1\n      pop\n      jump\t// out\n        /* \"#utility.yul\":5561:5927   */\n    tag_287:\n        /* \"#utility.yul\":5703:5706   */\n      0x00\n        /* \"#utility.yul\":5724:5791   */\n      tag_289\n        /* \"#utility.yul\":5788:5790   */\n      0x26\n        /* \"#utility.yul\":5783:5786   */\n      dup4\n        /* \"#utility.yul\":5724:5791   */\n      tag_265\n      jump\t// in\n    tag_289:\n        /* \"#utility.yul\":5717:5791   */\n      swap2\n      pop\n        /* \"#utility.yul\":5800:5893   */\n      tag_290\n        /* \"#utility.yul\":5889:5892   */\n      dup3\n        /* \"#utility.yul\":5800:5893   */\n      tag_291\n      jump\t// in\n    tag_290:\n        /* \"#utility.yul\":5918:5920   */\n      0x40\n        /* \"#utility.yul\":5913:5916   */\n      dup3\n        /* \"#utility.yul\":5909:5921   */\n      add\n        /* \"#utility.yul\":5902:5921   */\n      swap1\n      pop\n        /* \"#utility.yul\":5561:5927   */\n      swap2\n      swap1\n      pop\n      jump\t// out\n        /* \"#utility.yul\":5933:6299   */\n    tag_292:\n        /* \"#utility.yul\":6075:6078   */\n      0x00\n        /* \"#utility.yul\":6096:6163   */\n      tag_294\n        /* \"#utility.yul\":6160:6162   */\n      0x0c\n        /* \"#utility.yul\":6155:6158   */\n      dup4\n        /* \"#utility.yul\":6096:6163   */\n      tag_265\n      jump\t// in\n    tag_294:\n        /* \"#utility.yul\":6089:6163   */\n      swap2\n      pop\n        /* \"#utility.yul\":6172:6265   */\n      tag_295\n        /* \"#utility.yul\":6261:6264   */\n      dup3\n        /* \"#utility.yul\":6172:6265   */\n      tag_296\n      jump\t// in\n    tag_295:\n        /* \"#utility.yul\":6290:6292   */\n      0x20\n        /* \"#utility.yul\":6285:6288   */\n      dup3\n        /* \"#utility.yul\":6281:6293   */\n      add\n        /* \"#utility.yul\":6274:6293   */\n      swap1\n      pop\n        /* \"#utility.yul\":5933:6299   */\n      swap2\n      swap1\n      pop\n      jump\t// out\n        /* \"#utility.yul\":6305:6671   */\n    tag_297:\n        /* \"#utility.yul\":6447:6450   */\n      0x00\n        /* \"#utility.yul\":6468:6535   */\n      tag_299\n        /* \"#utility.yul\":6532:6534   */\n      0x20\n        /* \"#utility.yul\":6527:6530   */\n      dup4\n        /* \"#utility.yul\":6468:6535   */\n      tag_265\n      jump\t// in\n    tag_299:\n        /* \"#utility.yul\":6461:6535   */\n      swap2\n      pop\n        /* \"#utility.yul\":6544:6637   */\n      tag_300\n        /* \"#utility.yul\":6633:6636   */\n      dup3\n        /* \"#utility.yul\":6544:6637   */\n      tag_301\n      jump\t// in\n    tag_300:\n        /* \"#utility.yul\":6662:6664   */\n      0x20\n        /* \"#utility.yul\":6657:6660   */\n      dup3\n        /* \"#utility.yul\":6653:6665   */\n      add\n        /* \"#utility.yul\":6646:6665   */\n      swap1\n      pop\n        /* \"#utility.yul\":6305:6671   */\n      swap2\n      swap1\n      pop\n      jump\t// out\n        /* \"#utility.yul\":6677:7043   */\n    tag_302:\n        /* \"#utility.yul\":6819:6822   */\n      0x00\n        /* \"#utility.yul\":6840:6907   */\n      tag_304\n        /* \"#utility.yul\":6904:6906   */\n      0x15\n        /* \"#utility.yul\":6899:6902   */\n      dup4\n        /* \"#utility.yul\":6840:6907   */\n      tag_265\n      jump\t// in\n    tag_304:\n        /* \"#utility.yul\":6833:6907   */\n      swap2\n      pop\n        /* \"#utility.yul\":6916:7009   */\n      tag_305\n        /* \"#utility.yul\":7005:7008   */\n      dup3\n        /* \"#utility.yul\":6916:7009   */\n      tag_306\n      jump\t// in\n    tag_305:\n        /* \"#utility.yul\":7034:7036   */\n      0x20\n        /* \"#utility.yul\":7029:7032   */\n      dup3\n        /* \"#utility.yul\":7025:7037   */\n      add\n        /* \"#utility.yul\":7018:7037   */\n      swap1\n      pop\n        /* \"#utility.yul\":6677:7043   */\n      swap2\n      swap1\n      pop\n      jump\t// out\n        /* \"#utility.yul\":7049:7157   */\n    tag_241:\n        /* \"#utility.yul\":7126:7150   */\n      tag_308\n        /* \"#utility.yul\":7144:7149   */\n      dup2\n        /* \"#utility.yul\":7126:7150   */\n      tag_309\n      jump\t// in\n    tag_308:\n        /* \"#utility.yul\":7121:7124   */\n      dup3\n        /* \"#utility.yul\":7114:7151   */\n      mstore\n        /* \"#utility.yul\":7049:7157   */\n      pop\n      pop\n      jump\t// out\n        /* \"#utility.yul\":7163:7281   */\n    tag_310:\n        /* \"#utility.yul\":7250:7274   */\n      tag_312\n        /* \"#utility.yul\":7268:7273   */\n      dup2\n        /* \"#utility.yul\":7250:7274   */\n      tag_309\n      jump\t// in\n    tag_312:\n        /* \"#utility.yul\":7245:7248   */\n      dup3\n        /* \"#utility.yul\":7238:7275   */\n      mstore\n        /* \"#utility.yul\":7163:7281   */\n      pop\n      pop\n      jump\t// out\n        /* \"#utility.yul\":7287:7444   */\n    tag_313:\n        /* \"#utility.yul\":7392:7437   */\n      tag_315\n        /* \"#utility.yul\":7412:7436   */\n      tag_316\n        /* \"#utility.yul\":7430:7435   */\n      dup3\n        /* \"#utility.yul\":7412:7436   */\n      tag_309\n      jump\t// in\n    tag_316:\n        /* \"#utility.yul\":7392:7437   */\n      tag_317\n      jump\t// in\n    tag_315:\n        /* \"#utility.yul\":7387:7390   */\n      dup3\n        /* \"#utility.yul\":7380:7438   */\n      mstore\n        /* \"#utility.yul\":7287:7444   */\n      pop\n      pop\n      jump\t// out\n        /* \"#utility.yul\":7450:7565   */\n    tag_318:\n        /* \"#utility.yul\":7535:7558   */\n      tag_320\n        /* \"#utility.yul\":7552:7557   */\n      dup2\n        /* \"#utility.yul\":7535:7558   */\n      tag_321\n      jump\t// in\n    tag_320:\n        /* \"#utility.yul\":7530:7533   */\n      dup3\n        /* \"#utility.yul\":7523:7559   */\n      mstore\n        /* \"#utility.yul\":7450:7565   */\n      pop\n      pop\n      jump\t// out\n        /* \"#utility.yul\":7571:8109   */\n    tag_81:\n        /* \"#utility.yul\":7739:7742   */\n      0x00\n        /* \"#utility.yul\":7754:7829   */\n      tag_323\n        /* \"#utility.yul\":7825:7828   */\n      dup3\n        /* \"#utility.yul\":7816:7822   */\n      dup7\n        /* \"#utility.yul\":7754:7829   */\n      tag_313\n      jump\t// in\n    tag_323:\n        /* \"#utility.yul\":7854:7856   */\n      0x20\n        /* \"#utility.yul\":7849:7852   */\n      dup3\n        /* \"#utility.yul\":7845:7857   */\n      add\n        /* \"#utility.yul\":7838:7857   */\n      swap2\n      pop\n        /* \"#utility.yul\":7867:7942   */\n      tag_324\n        /* \"#utility.yul\":7938:7941   */\n      dup3\n        /* \"#utility.yul\":7929:7935   */\n      dup6\n        /* \"#utility.yul\":7867:7942   */\n      tag_313\n      jump\t// in\n    tag_324:\n        /* \"#utility.yul\":7967:7969   */\n      0x20\n        /* \"#utility.yul\":7962:7965   */\n      dup3\n        /* \"#utility.yul\":7958:7970   */\n      add\n        /* \"#utility.yul\":7951:7970   */\n      swap2\n      pop\n        /* \"#utility.yul\":7980:8055   */\n      tag_325\n        /* \"#utility.yul\":8051:8054   */\n      dup3\n        /* \"#utility.yul\":8042:8048   */\n      dup5\n        /* \"#utility.yul\":7980:8055   */\n      tag_313\n      jump\t// in\n    tag_325:\n        /* \"#utility.yul\":8080:8082   */\n      0x20\n        /* \"#utility.yul\":8075:8078   */\n      dup3\n        /* \"#utility.yul\":8071:8083   */\n      add\n        /* \"#utility.yul\":8064:8083   */\n      swap2\n      pop\n        /* \"#utility.yul\":8100:8103   */\n      dup2\n        /* \"#utility.yul\":8093:8103   */\n      swap1\n      pop\n        /* \"#utility.yul\":7571:8109   */\n      swap5\n      swap4\n      pop\n      pop\n      pop\n      pop\n      jump\t// out\n        /* \"#utility.yul\":8115:8337   */\n    tag_39:\n        /* \"#utility.yul\":8208:8212   */\n      0x00\n        /* \"#utility.yul\":8246:8248   */\n      0x20\n        /* \"#utility.yul\":8235:8244   */\n      dup3\n        /* \"#utility.yul\":8231:8249   */\n      add\n        /* \"#utility.yul\":8223:8249   */\n      swap1\n      pop\n        /* \"#utility.yul\":8259:8330   */\n      tag_327\n        /* \"#utility.yul\":8327:8328   */\n      0x00\n        /* \"#utility.yul\":8316:8325   */\n      dup4\n        /* \"#utility.yul\":8312:8329   */\n      add\n        /* \"#utility.yul\":8303:8309   */\n      dup5\n        /* \"#utility.yul\":8259:8330   */\n      tag_242\n      jump\t// in\n    tag_327:\n        /* \"#utility.yul\":8115:8337   */\n      swap3\n      swap2\n      pop\n      pop\n      jump\t// out\n        /* \"#utility.yul\":8343:9609   */\n    tag_49:\n        /* \"#utility.yul\":8690:8694   */\n      0x00\n        /* \"#utility.yul\":8728:8731   */\n      0x0100\n        /* \"#utility.yul\":8717:8726   */\n      dup3\n        /* \"#utility.yul\":8713:8732   */\n      add\n        /* \"#utility.yul\":8705:8732   */\n      swap1\n      pop\n        /* \"#utility.yul\":8742:8813   */\n      tag_329\n        /* \"#utility.yul\":8810:8811   */\n      0x00\n        /* \"#utility.yul\":8799:8808   */\n      dup4\n        /* \"#utility.yul\":8795:8812   */\n      add\n        /* \"#utility.yul\":8786:8792   */\n      dup12\n        /* \"#utility.yul\":8742:8813   */\n      tag_242\n      jump\t// in\n    tag_329:\n        /* \"#utility.yul\":8860:8869   */\n      dup2\n        /* \"#utility.yul\":8854:8858   */\n      dup2\n        /* \"#utility.yul\":8850:8870   */\n      sub\n        /* \"#utility.yul\":8845:8847   */\n      0x20\n        /* \"#utility.yul\":8834:8843   */\n      dup4\n        /* \"#utility.yul\":8830:8848   */\n      add\n        /* \"#utility.yul\":8823:8871   */\n      mstore\n        /* \"#utility.yul\":8888:8966   */\n      tag_330\n        /* \"#utility.yul\":8961:8965   */\n      dup2\n        /* \"#utility.yul\":8952:8958   */\n      dup11\n        /* \"#utility.yul\":8888:8966   */\n      tag_260\n      jump\t// in\n    tag_330:\n        /* \"#utility.yul\":8880:8966   */\n      swap1\n      pop\n        /* \"#utility.yul\":9013:9022   */\n      dup2\n        /* \"#utility.yul\":9007:9011   */\n      dup2\n        /* \"#utility.yul\":9003:9023   */\n      sub\n        /* \"#utility.yul\":8998:9000   */\n      0x40\n        /* \"#utility.yul\":8987:8996   */\n      dup4\n        /* \"#utility.yul\":8983:9001   */\n      add\n        /* \"#utility.yul\":8976:9024   */\n      mstore\n        /* \"#utility.yul\":9041:9119   */\n      tag_331\n        /* \"#utility.yul\":9114:9118   */\n      dup2\n        /* \"#utility.yul\":9105:9111   */\n      dup10\n        /* \"#utility.yul\":9041:9119   */\n      tag_260\n      jump\t// in\n    tag_331:\n        /* \"#utility.yul\":9033:9119   */\n      swap1\n      pop\n        /* \"#utility.yul\":9166:9175   */\n      dup2\n        /* \"#utility.yul\":9160:9164   */\n      dup2\n        /* \"#utility.yul\":9156:9176   */\n      sub\n        /* \"#utility.yul\":9151:9153   */\n      0x60\n        /* \"#utility.yul\":9140:9149   */\n      dup4\n        /* \"#utility.yul\":9136:9154   */\n      add\n        /* \"#utility.yul\":9129:9177   */\n      mstore\n        /* \"#utility.yul\":9194:9272   */\n      tag_332\n        /* \"#utility.yul\":9267:9271   */\n      dup2\n        /* \"#utility.yul\":9258:9264   */\n      dup9\n        /* \"#utility.yul\":9194:9272   */\n      tag_260\n      jump\t// in\n    tag_332:\n        /* \"#utility.yul\":9186:9272   */\n      swap1\n      pop\n        /* \"#utility.yul\":9282:9355   */\n      tag_333\n        /* \"#utility.yul\":9350:9353   */\n      0x80\n        /* \"#utility.yul\":9339:9348   */\n      dup4\n        /* \"#utility.yul\":9335:9354   */\n      add\n        /* \"#utility.yul\":9326:9332   */\n      dup8\n        /* \"#utility.yul\":9282:9355   */\n      tag_310\n      jump\t// in\n    tag_333:\n        /* \"#utility.yul\":9365:9438   */\n      tag_334\n        /* \"#utility.yul\":9433:9436   */\n      0xa0\n        /* \"#utility.yul\":9422:9431   */\n      dup4\n        /* \"#utility.yul\":9418:9437   */\n      add\n        /* \"#utility.yul\":9409:9415   */\n      dup7\n        /* \"#utility.yul\":9365:9438   */\n      tag_310\n      jump\t// in\n    tag_334:\n        /* \"#utility.yul\":9448:9521   */\n      tag_335\n        /* \"#utility.yul\":9516:9519   */\n      0xc0\n        /* \"#utility.yul\":9505:9514   */\n      dup4\n        /* \"#utility.yul\":9501:9520   */\n      add\n        /* \"#utility.yul\":9492:9498   */\n      dup6\n        /* \"#utility.yul\":9448:9521   */\n      tag_310\n      jump\t// in\n    tag_335:\n        /* \"#utility.yul\":9531:9602   */\n      tag_336\n        /* \"#utility.yul\":9597:9600   */\n      0xe0\n        /* \"#utility.yul\":9586:9595   */\n      dup4\n        /* \"#utility.yul\":9582:9601   */\n      add\n        /* \"#utility.yul\":9573:9579   */\n      dup5\n        /* \"#utility.yul\":9531:9602   */\n      tag_318\n      jump\t// in\n    tag_336:\n        /* \"#utility.yul\":8343:9609   */\n      swap10\n      swap9\n      pop\n      pop\n      pop\n      pop\n      pop\n      pop\n      pop\n      pop\n      pop\n      jump\t// out\n        /* \"#utility.yul\":9615:9988   */\n    tag_55:\n        /* \"#utility.yul\":9758:9762   */\n      0x00\n        /* \"#utility.yul\":9796:9798   */\n      0x20\n        /* \"#utility.yul\":9785:9794   */\n      dup3\n        /* \"#utility.yul\":9781:9799   */\n      add\n        /* \"#utility.yul\":9773:9799   */\n      swap1\n      pop\n        /* \"#utility.yul\":9845:9854   */\n      dup2\n        /* \"#utility.yul\":9839:9843   */\n      dup2\n        /* \"#utility.yul\":9835:9855   */\n      sub\n        /* \"#utility.yul\":9831:9832   */\n      0x00\n        /* \"#utility.yul\":9820:9829   */\n      dup4\n        /* \"#utility.yul\":9816:9833   */\n      add\n        /* \"#utility.yul\":9809:9856   */\n      mstore\n        /* \"#utility.yul\":9873:9981   */\n      tag_338\n        /* \"#utility.yul\":9976:9980   */\n      dup2\n        /* \"#utility.yul\":9967:9973   */\n      dup5\n        /* \"#utility.yul\":9873:9981   */\n      tag_246\n      jump\t// in\n    tag_338:\n        /* \"#utility.yul\":9865:9981   */\n      swap1\n      pop\n        /* \"#utility.yul\":9615:9988   */\n      swap3\n      swap2\n      pop\n      pop\n      jump\t// out\n        /* \"#utility.yul\":9994:10307   */\n    tag_30:\n        /* \"#utility.yul\":10107:10111   */\n      0x00\n        /* \"#utility.yul\":10145:10147   */\n      0x20\n        /* \"#utility.yul\":10134:10143   */\n      dup3\n        /* \"#utility.yul\":10130:10148   */\n      add\n        /* \"#utility.yul\":10122:10148   */\n      swap1\n      pop\n        /* \"#utility.yul\":10194:10203   */\n      dup2\n        /* \"#utility.yul\":10188:10192   */\n      dup2\n        /* \"#utility.yul\":10184:10204   */\n      sub\n        /* \"#utility.yul\":10180:10181   */\n      0x00\n        /* \"#utility.yul\":10169:10178   */\n      dup4\n        /* \"#utility.yul\":10165:10182   */\n      add\n        /* \"#utility.yul\":10158:10205   */\n      mstore\n        /* \"#utility.yul\":10222:10300   */\n      tag_340\n        /* \"#utility.yul\":10295:10299   */\n      dup2\n        /* \"#utility.yul\":10286:10292   */\n      dup5\n        /* \"#utility.yul\":10222:10300   */\n      tag_260\n      jump\t// in\n    tag_340:\n        /* \"#utility.yul\":10214:10300   */\n      swap1\n      pop\n        /* \"#utility.yul\":9994:10307   */\n      swap3\n      swap2\n      pop\n      pop\n      jump\t// out\n        /* \"#utility.yul\":10313:10815   */\n    tag_156:\n        /* \"#utility.yul\":10468:10472   */\n      0x00\n        /* \"#utility.yul\":10506:10508   */\n      0x40\n        /* \"#utility.yul\":10495:10504   */\n      dup3\n        /* \"#utility.yul\":10491:10509   */\n      add\n        /* \"#utility.yul\":10483:10509   */\n      swap1\n      pop\n        /* \"#utility.yul\":10555:10564   */\n      dup2\n        /* \"#utility.yul\":10549:10553   */\n      dup2\n        /* \"#utility.yul\":10545:10565   */\n      sub\n        /* \"#utility.yul\":10541:10542   */\n      0x00\n        /* \"#utility.yul\":10530:10539   */\n      dup4\n        /* \"#utility.yul\":10526:10543   */\n      add\n        /* \"#utility.yul\":10519:10566   */\n      mstore\n        /* \"#utility.yul\":10583:10658   */\n      tag_342\n        /* \"#utility.yul\":10653:10657   */\n      dup2\n        /* \"#utility.yul\":10644:10650   */\n      dup6\n        /* \"#utility.yul\":10583:10658   */\n      tag_270\n      jump\t// in\n    tag_342:\n        /* \"#utility.yul\":10575:10658   */\n      swap1\n      pop\n        /* \"#utility.yul\":10705:10714   */\n      dup2\n        /* \"#utility.yul\":10699:10703   */\n      dup2\n        /* \"#utility.yul\":10695:10715   */\n      sub\n        /* \"#utility.yul\":10690:10692   */\n      0x20\n        /* \"#utility.yul\":10679:10688   */\n      dup4\n        /* \"#utility.yul\":10675:10693   */\n      add\n        /* \"#utility.yul\":10668:10716   */\n      mstore\n        /* \"#utility.yul\":10733:10808   */\n      tag_343\n        /* \"#utility.yul\":10803:10807   */\n      dup2\n        /* \"#utility.yul\":10794:10800   */\n      dup5\n        /* \"#utility.yul\":10733:10808   */\n      tag_270\n      jump\t// in\n    tag_343:\n        /* \"#utility.yul\":10725:10808   */\n      swap1\n      pop\n        /* \"#utility.yul\":10313:10815   */\n      swap4\n      swap3\n      pop\n      pop\n      pop\n      jump\t// out\n        /* \"#utility.yul\":10821:11240   */\n    tag_63:\n        /* \"#utility.yul\":10987:10991   */\n      0x00\n        /* \"#utility.yul\":11025:11027   */\n      0x20\n        /* \"#utility.yul\":11014:11023   */\n      dup3\n        /* \"#utility.yul\":11010:11028   */\n      add\n        /* \"#utility.yul\":11002:11028   */\n      swap1\n      pop\n        /* \"#utility.yul\":11074:11083   */\n      dup2\n        /* \"#utility.yul\":11068:11072   */\n      dup2\n        /* \"#utility.yul\":11064:11084   */\n      sub\n        /* \"#utility.yul\":11060:11061   */\n      0x00\n        /* \"#utility.yul\":11049:11058   */\n      dup4\n        /* \"#utility.yul\":11045:11062   */\n      add\n        /* \"#utility.yul\":11038:11085   */\n      mstore\n        /* \"#utility.yul\":11102:11233   */\n      tag_345\n        /* \"#utility.yul\":11228:11232   */\n      dup2\n        /* \"#utility.yul\":11102:11233   */\n      tag_282\n      jump\t// in\n    tag_345:\n        /* \"#utility.yul\":11094:11233   */\n      swap1\n      pop\n        /* \"#utility.yul\":10821:11240   */\n      swap2\n      swap1\n      pop\n      jump\t// out\n        /* \"#utility.yul\":11246:11665   */\n    tag_166:\n        /* \"#utility.yul\":11412:11416   */\n      0x00\n        /* \"#utility.yul\":11450:11452   */\n      0x20\n        /* \"#utility.yul\":11439:11448   */\n      dup3\n        /* \"#utility.yul\":11435:11453   */\n      add\n        /* \"#utility.yul\":11427:11453   */\n      swap1\n      pop\n        /* \"#utility.yul\":11499:11508   */\n      dup2\n        /* \"#utility.yul\":11493:11497   */\n      dup2\n        /* \"#utility.yul\":11489:11509   */\n      sub\n        /* \"#utility.yul\":11485:11486   */\n      0x00\n        /* \"#utility.yul\":11474:11483   */\n      dup4\n        /* \"#utility.yul\":11470:11487   */\n      add\n        /* \"#utility.yul\":11463:11510   */\n      mstore\n        /* \"#utility.yul\":11527:11658   */\n      tag_347\n        /* \"#utility.yul\":11653:11657   */\n      dup2\n        /* \"#utility.yul\":11527:11658   */\n      tag_287\n      jump\t// in\n    tag_347:\n        /* \"#utility.yul\":11519:11658   */\n      swap1\n      pop\n        /* \"#utility.yul\":11246:11665   */\n      swap2\n      swap1\n      pop\n      jump\t// out\n        /* \"#utility.yul\":11671:12200   */\n    tag_175:\n        /* \"#utility.yul\":11865:11869   */\n      0x00\n        /* \"#utility.yul\":11903:11905   */\n      0x40\n        /* \"#utility.yul\":11892:11901   */\n      dup3\n        /* \"#utility.yul\":11888:11906   */\n      add\n        /* \"#utility.yul\":11880:11906   */\n      swap1\n      pop\n        /* \"#utility.yul\":11952:11961   */\n      dup2\n        /* \"#utility.yul\":11946:11950   */\n      dup2\n        /* \"#utility.yul\":11942:11962   */\n      sub\n        /* \"#utility.yul\":11938:11939   */\n      0x00\n        /* \"#utility.yul\":11927:11936   */\n      dup4\n        /* \"#utility.yul\":11923:11940   */\n      add\n        /* \"#utility.yul\":11916:11963   */\n      mstore\n        /* \"#utility.yul\":11980:12111   */\n      tag_349\n        /* \"#utility.yul\":12106:12110   */\n      dup2\n        /* \"#utility.yul\":11980:12111   */\n      tag_292\n      jump\t// in\n    tag_349:\n        /* \"#utility.yul\":11972:12111   */\n      swap1\n      pop\n        /* \"#utility.yul\":12121:12193   */\n      tag_350\n        /* \"#utility.yul\":12189:12191   */\n      0x20\n        /* \"#utility.yul\":12178:12187   */\n      dup4\n        /* \"#utility.yul\":12174:12192   */\n      add\n        /* \"#utility.yul\":12165:12171   */\n      dup5\n        /* \"#utility.yul\":12121:12193   */\n      tag_310\n      jump\t// in\n    tag_350:\n        /* \"#utility.yul\":11671:12200   */\n      swap3\n      swap2\n      pop\n      pop\n      jump\t// out\n        /* \"#utility.yul\":12206:12625   */\n    tag_121:\n        /* \"#utility.yul\":12372:12376   */\n      0x00\n        /* \"#utility.yul\":12410:12412   */\n      0x20\n        /* \"#utility.yul\":12399:12408   */\n      dup3\n        /* \"#utility.yul\":12395:12413   */\n      add\n        /* \"#utility.yul\":12387:12413   */\n      swap1\n      pop\n        /* \"#utility.yul\":12459:12468   */\n      dup2\n        /* \"#utility.yul\":12453:12457   */\n      dup2\n        /* \"#utility.yul\":12449:12469   */\n      sub\n        /* \"#utility.yul\":12445:12446   */\n      0x00\n        /* \"#utility.yul\":12434:12443   */\n      dup4\n        /* \"#utility.yul\":12430:12447   */\n      add\n        /* \"#utility.yul\":12423:12470   */\n      mstore\n        /* \"#utility.yul\":12487:12618   */\n      tag_352\n        /* \"#utility.yul\":12613:12617   */\n      dup2\n        /* \"#utility.yul\":12487:12618   */\n      tag_297\n      jump\t// in\n    tag_352:\n        /* \"#utility.yul\":12479:12618   */\n      swap1\n      pop\n        /* \"#utility.yul\":12206:12625   */\n      swap2\n      swap1\n      pop\n      jump\t// out\n        /* \"#utility.yul\":12631:13160   */\n    tag_104:\n        /* \"#utility.yul\":12825:12829   */\n      0x00\n        /* \"#utility.yul\":12863:12865   */\n      0x40\n        /* \"#utility.yul\":12852:12861   */\n      dup3\n        /* \"#utility.yul\":12848:12866   */\n      add\n        /* \"#utility.yul\":12840:12866   */\n      swap1\n      pop\n        /* \"#utility.yul\":12912:12921   */\n      dup2\n        /* \"#utility.yul\":12906:12910   */\n      dup2\n        /* \"#utility.yul\":12902:12922   */\n      sub\n        /* \"#utility.yul\":12898:12899   */\n      0x00\n        /* \"#utility.yul\":12887:12896   */\n      dup4\n        /* \"#utility.yul\":12883:12900   */\n      add\n        /* \"#utility.yul\":12876:12923   */\n      mstore\n        /* \"#utility.yul\":12940:13071   */\n      tag_354\n        /* \"#utility.yul\":13066:13070   */\n      dup2\n        /* \"#utility.yul\":12940:13071   */\n      tag_302\n      jump\t// in\n    tag_354:\n        /* \"#utility.yul\":12932:13071   */\n      swap1\n      pop\n        /* \"#utility.yul\":13081:13153   */\n      tag_355\n        /* \"#utility.yul\":13149:13151   */\n      0x20\n        /* \"#utility.yul\":13138:13147   */\n      dup4\n        /* \"#utility.yul\":13134:13152   */\n      add\n        /* \"#utility.yul\":13125:13131   */\n      dup5\n        /* \"#utility.yul\":13081:13153   */\n      tag_310\n      jump\t// in\n    tag_355:\n        /* \"#utility.yul\":12631:13160   */\n      swap3\n      swap2\n      pop\n      pop\n      jump\t// out\n        /* \"#utility.yul\":13166:13388   */\n    tag_18:\n        /* \"#utility.yul\":13259:13263   */\n      0x00\n        /* \"#utility.yul\":13297:13299   */\n      0x20\n        /* \"#utility.yul\":13286:13295   */\n      dup3\n        /* \"#utility.yul\":13282:13300   */\n      add\n        /* \"#utility.yul\":13274:13300   */\n      swap1\n      pop\n        /* \"#utility.yul\":13310:13381   */\n      tag_357\n        /* \"#utility.yul\":13378:13379   */\n      0x00\n        /* \"#utility.yul\":13367:13376   */\n      dup4\n        /* \"#utility.yul\":13363:13380   */\n      add\n        /* \"#utility.yul\":13354:13360   */\n      dup5\n        /* \"#utility.yul\":13310:13381   */\n      tag_310\n      jump\t// in\n    tag_357:\n        /* \"#utility.yul\":13166:13388   */\n      swap3\n      swap2\n      pop\n      pop\n      jump\t// out\n        /* \"#utility.yul\":13394:13523   */\n    tag_196:\n        /* \"#utility.yul\":13428:13434   */\n      0x00\n        /* \"#utility.yul\":13455:13475   */\n      tag_359\n      tag_360\n      jump\t// in\n    tag_359:\n        /* \"#utility.yul\":13445:13475   */\n      swap1\n      pop\n        /* \"#utility.yul\":13484:13517   */\n      tag_361\n        /* \"#utility.yul\":13512:13516   */\n      dup3\n        /* \"#utility.yul\":13504:13510   */\n      dup3\n        /* \"#utility.yul\":13484:13517   */\n      tag_362\n      jump\t// in\n    tag_361:\n        /* \"#utility.yul\":13394:13523   */\n      swap2\n      swap1\n      pop\n      jump\t// out\n        /* \"#utility.yul\":13529:13604   */\n    tag_360:\n        /* \"#utility.yul\":13562:13568   */\n      0x00\n        /* \"#utility.yul\":13595:13597   */\n      0x40\n        /* \"#utility.yul\":13589:13598   */\n      mload\n        /* \"#utility.yul\":13579:13598   */\n      swap1\n      pop\n        /* \"#utility.yul\":13529:13604   */\n      swap1\n      jump\t// out\n        /* \"#utility.yul\":13610:13918   */\n    tag_195:\n        /* \"#utility.yul\":13672:13676   */\n      0x00\n        /* \"#utility.yul\":13762:13780   */\n      0xffffffffffffffff\n        /* \"#utility.yul\":13754:13760   */\n      dup3\n        /* \"#utility.yul\":13751:13781   */\n      gt\n        /* \"#utility.yul\":13748:13804   */\n      iszero\n      tag_365\n      jumpi\n        /* \"#utility.yul\":13784:13802   */\n      tag_366\n      tag_367\n      jump\t// in\n    tag_366:\n        /* \"#utility.yul\":13748:13804   */\n    tag_365:\n        /* \"#utility.yul\":13822:13851   */\n      tag_368\n        /* \"#utility.yul\":13844:13850   */\n      dup3\n        /* \"#utility.yul\":13822:13851   */\n      tag_269\n      jump\t// in\n    tag_368:\n        /* \"#utility.yul\":13814:13851   */\n      swap1\n      pop\n        /* \"#utility.yul\":13906:13910   */\n      0x20\n        /* \"#utility.yul\":13900:13904   */\n      dup2\n        /* \"#utility.yul\":13896:13911   */\n      add\n        /* \"#utility.yul\":13888:13911   */\n      swap1\n      pop\n        /* \"#utility.yul\":13610:13918   */\n      swap2\n      swap1\n      pop\n      jump\t// out\n        /* \"#utility.yul\":13924:14056   */\n    tag_253:\n        /* \"#utility.yul\":13991:13995   */\n      0x00\n        /* \"#utility.yul\":14014:14017   */\n      dup2\n        /* \"#utility.yul\":14006:14017   */\n      swap1\n      pop\n        /* \"#utility.yul\":14044:14048   */\n      0x20\n        /* \"#utility.yul\":14039:14042   */\n      dup3\n        /* \"#utility.yul\":14035:14049   */\n      add\n        /* \"#utility.yul\":14027:14049   */\n      swap1\n      pop\n        /* \"#utility.yul\":13924:14056   */\n      swap2\n      swap1\n      pop\n      jump\t// out\n        /* \"#utility.yul\":14062:14203   */\n    tag_278:\n        /* \"#utility.yul\":14111:14115   */\n      0x00\n        /* \"#utility.yul\":14134:14137   */\n      dup2\n        /* \"#utility.yul\":14126:14137   */\n      swap1\n      pop\n        /* \"#utility.yul\":14157:14160   */\n      dup2\n        /* \"#utility.yul\":14154:14155   */\n      0x00\n        /* \"#utility.yul\":14147:14161   */\n      mstore\n        /* \"#utility.yul\":14191:14195   */\n      0x20\n        /* \"#utility.yul\":14188:14189   */\n      0x00\n        /* \"#utility.yul\":14178:14196   */\n      keccak256\n        /* \"#utility.yul\":14170:14196   */\n      swap1\n      pop\n        /* \"#utility.yul\":14062:14203   */\n      swap2\n      swap1\n      pop\n      jump\t// out\n        /* \"#utility.yul\":14209:14323   */\n    tag_249:\n        /* \"#utility.yul\":14276:14282   */\n      0x00\n        /* \"#utility.yul\":14310:14315   */\n      dup2\n        /* \"#utility.yul\":14304:14316   */\n      mload\n        /* \"#utility.yul\":14294:14316   */\n      swap1\n      pop\n        /* \"#utility.yul\":14209:14323   */\n      swap2\n      swap1\n      pop\n      jump\t// out\n        /* \"#utility.yul\":14329:14428   */\n    tag_263:\n        /* \"#utility.yul\":14381:14387   */\n      0x00\n        /* \"#utility.yul\":14415:14420   */\n      dup2\n        /* \"#utility.yul\":14409:14421   */\n      mload\n        /* \"#utility.yul\":14399:14421   */\n      swap1\n      pop\n        /* \"#utility.yul\":14329:14428   */\n      swap2\n      swap1\n      pop\n      jump\t// out\n        /* \"#utility.yul\":14434:14547   */\n    tag_259:\n        /* \"#utility.yul\":14504:14508   */\n      0x00\n        /* \"#utility.yul\":14536:14540   */\n      0x20\n        /* \"#utility.yul\":14531:14534   */\n      dup3\n        /* \"#utility.yul\":14527:14541   */\n      add\n        /* \"#utility.yul\":14519:14541   */\n      swap1\n      pop\n        /* \"#utility.yul\":14434:14547   */\n      swap2\n      swap1\n      pop\n      jump\t// out\n        /* \"#utility.yul\":14553:14737   */\n    tag_251:\n        /* \"#utility.yul\":14652:14663   */\n      0x00\n        /* \"#utility.yul\":14686:14692   */\n      dup3\n        /* \"#utility.yul\":14681:14684   */\n      dup3\n        /* \"#utility.yul\":14674:14693   */\n      mstore\n        /* \"#utility.yul\":14726:14730   */\n      0x20\n        /* \"#utility.yul\":14721:14724   */\n      dup3\n        /* \"#utility.yul\":14717:14731   */\n      add\n        /* \"#utility.yul\":14702:14731   */\n      swap1\n      pop\n        /* \"#utility.yul\":14553:14737   */\n      swap3\n      swap2\n      pop\n      pop\n      jump\t// out\n        /* \"#utility.yul\":14743:14912   */\n    tag_265:\n        /* \"#utility.yul\":14827:14838   */\n      0x00\n        /* \"#utility.yul\":14861:14867   */\n      dup3\n        /* \"#utility.yul\":14856:14859   */\n      dup3\n        /* \"#utility.yul\":14849:14868   */\n      mstore\n        /* \"#utility.yul\":14901:14905   */\n      0x20\n        /* \"#utility.yul\":14896:14899   */\n      dup3\n        /* \"#utility.yul\":14892:14906   */\n      add\n        /* \"#utility.yul\":14877:14906   */\n      swap1\n      pop\n        /* \"#utility.yul\":14743:14912   */\n      swap3\n      swap2\n      pop\n      pop\n      jump\t// out\n        /* \"#utility.yul\":14918:15223   */\n    tag_66:\n        /* \"#utility.yul\":14958:14961   */\n      0x00\n        /* \"#utility.yul\":14977:14997   */\n      tag_377\n        /* \"#utility.yul\":14995:14996   */\n      dup3\n        /* \"#utility.yul\":14977:14997   */\n      tag_309\n      jump\t// in\n    tag_377:\n        /* \"#utility.yul\":14972:14997   */\n      swap2\n      pop\n        /* \"#utility.yul\":15011:15031   */\n      tag_378\n        /* \"#utility.yul\":15029:15030   */\n      dup4\n        /* \"#utility.yul\":15011:15031   */\n      tag_309\n      jump\t// in\n    tag_378:\n        /* \"#utility.yul\":15006:15031   */\n      swap3\n      pop\n        /* \"#utility.yul\":15165:15166   */\n      dup3\n        /* \"#utility.yul\":15097:15163   */\n      0xffffffffffffffffffffffffffffffffffffffffffffffffffffffffffffffff\n        /* \"#utility.yul\":15093:15167   */\n      sub\n        /* \"#utility.yul\":15090:15091   */\n      dup3\n        /* \"#utility.yul\":15087:15168   */\n      gt\n        /* \"#utility.yul\":15084:15191   */\n      iszero\n      tag_379\n      jumpi\n        /* \"#utility.yul\":15171:15189   */\n      tag_380\n      tag_381\n      jump\t// in\n    tag_380:\n        /* \"#utility.yul\":15084:15191   */\n    tag_379:\n        /* \"#utility.yul\":15215:15216   */\n      dup3\n        /* \"#utility.yul\":15212:15213   */\n      dup3\n        /* \"#utility.yul\":15208:15217   */\n      add\n        /* \"#utility.yul\":15201:15217   */\n      swap1\n      pop\n        /* \"#utility.yul\":14918:15223   */\n      swap3\n      swap2\n      pop\n      pop\n      jump\t// out\n        /* \"#utility.yul\":15229:15577   */\n    tag_170:\n        /* \"#utility.yul\":15269:15276   */\n      0x00\n        /* \"#utility.yul\":15292:15312   */\n      tag_383\n        /* \"#utility.yul\":15310:15311   */\n      dup3\n        /* \"#utility.yul\":15292:15312   */\n      tag_309\n      jump\t// in\n    tag_383:\n        /* \"#utility.yul\":15287:15312   */\n      swap2\n      pop\n        /* \"#utility.yul\":15326:15346   */\n      tag_384\n        /* \"#utility.yul\":15344:15345   */\n      dup4\n        /* \"#utility.yul\":15326:15346   */\n      tag_309\n      jump\t// in\n    tag_384:\n        /* \"#utility.yul\":15321:15346   */\n      swap3\n      pop\n        /* \"#utility.yul\":15514:15515   */\n      dup2\n        /* \"#utility.yul\":15446:15512   */\n      0xffffffffffffffffffffffffffffffffffffffffffffffffffffffffffffffff\n        /* \"#utility.yul\":15442:15516   */\n      div\n        /* \"#utility.yul\":15439:15440   */\n      dup4\n        /* \"#utility.yul\":15436:15517   */\n      gt\n        /* \"#utility.yul\":15431:15432   */\n      dup3\n        /* \"#utility.yul\":15424:15433   */\n      iszero\n        /* \"#utility.yul\":15417:15434   */\n      iszero\n        /* \"#utility.yul\":15413:15518   */\n      and\n        /* \"#utility.yul\":15410:15541   */\n      iszero\n      tag_385\n      jumpi\n        /* \"#utility.yul\":15521:15539   */\n      tag_386\n      tag_381\n      jump\t// in\n    tag_386:\n        /* \"#utility.yul\":15410:15541   */\n    tag_385:\n        /* \"#utility.yul\":15569:15570   */\n      dup3\n        /* \"#utility.yul\":15566:15567   */\n      dup3\n        /* \"#utility.yul\":15562:15571   */\n      mul\n        /* \"#utility.yul\":15551:15571   */\n      swap1\n      pop\n        /* \"#utility.yul\":15229:15577   */\n      swap3\n      swap2\n      pop\n      pop\n      jump\t// out\n        /* \"#utility.yul\":15583:15774   */\n    tag_76:\n        /* \"#utility.yul\":15623:15627   */\n      0x00\n        /* \"#utility.yul\":15643:15663   */\n      tag_388\n        /* \"#utility.yul\":15661:15662   */\n      dup3\n        /* \"#utility.yul\":15643:15663   */\n      tag_309\n      jump\t// in\n    tag_388:\n        /* \"#utility.yul\":15638:15663   */\n      swap2\n      pop\n        /* \"#utility.yul\":15677:15697   */\n      tag_389\n        /* \"#utility.yul\":15695:15696   */\n      dup4\n        /* \"#utility.yul\":15677:15697   */\n      tag_309\n      jump\t// in\n    tag_389:\n        /* \"#utility.yul\":15672:15697   */\n      swap3\n      pop\n        /* \"#utility.yul\":15716:15717   */\n      dup3\n        /* \"#utility.yul\":15713:15714   */\n      dup3\n        /* \"#utility.yul\":15710:15718   */\n      lt\n        /* \"#utility.yul\":15707:15741   */\n      iszero\n      tag_390\n      jumpi\n        /* \"#utility.yul\":15721:15739   */\n      tag_391\n      tag_381\n      jump\t// in\n    tag_391:\n        /* \"#utility.yul\":15707:15741   */\n    tag_390:\n        /* \"#utility.yul\":15766:15767   */\n      dup3\n        /* \"#utility.yul\":15763:15764   */\n      dup3\n        /* \"#utility.yul\":15759:15768   */\n      sub\n        /* \"#utility.yul\":15751:15768   */\n      swap1\n      pop\n        /* \"#utility.yul\":15583:15774   */\n      swap3\n      swap2\n      pop\n      pop\n      jump\t// out\n        /* \"#utility.yul\":15780:15876   */\n    tag_245:\n        /* \"#utility.yul\":15817:15824   */\n      0x00\n        /* \"#utility.yul\":15846:15870   */\n      tag_393\n        /* \"#utility.yul\":15864:15869   */\n      dup3\n        /* \"#utility.yul\":15846:15870   */\n      tag_394\n      jump\t// in\n    tag_393:\n        /* \"#utility.yul\":15835:15870   */\n      swap1\n      pop\n        /* \"#utility.yul\":15780:15876   */\n      swap2\n      swap1\n      pop\n      jump\t// out\n        /* \"#utility.yul\":15882:16008   */\n    tag_394:\n        /* \"#utility.yul\":15919:15926   */\n      0x00\n        /* \"#utility.yul\":15959:16001   */\n      0xffffffffffffffffffffffffffffffffffffffff\n        /* \"#utility.yul\":15952:15957   */\n      dup3\n        /* \"#utility.yul\":15948:16002   */\n      and\n        /* \"#utility.yul\":15937:16002   */\n      swap1\n      pop\n        /* \"#utility.yul\":15882:16008   */\n      swap2\n      swap1\n      pop\n      jump\t// out\n        /* \"#utility.yul\":16014:16091   */\n    tag_309:\n        /* \"#utility.yul\":16051:16058   */\n      0x00\n        /* \"#utility.yul\":16080:16085   */\n      dup2\n        /* \"#utility.yul\":16069:16085   */\n      swap1\n      pop\n        /* \"#utility.yul\":16014:16091   */\n      swap2\n      swap1\n      pop\n      jump\t// out\n        /* \"#utility.yul\":16097:16190   */\n    tag_321:\n        /* \"#utility.yul\":16133:16140   */\n      0x00\n        /* \"#utility.yul\":16173:16183   */\n      0xffffffff\n        /* \"#utility.yul\":16166:16171   */\n      dup3\n        /* \"#utility.yul\":16162:16184   */\n      and\n        /* \"#utility.yul\":16151:16184   */\n      swap1\n      pop\n        /* \"#utility.yul\":16097:16190   */\n      swap2\n      swap1\n      pop\n      jump\t// out\n        /* \"#utility.yul\":16196:16350   */\n    tag_201:\n        /* \"#utility.yul\":16280:16286   */\n      dup3\n        /* \"#utility.yul\":16275:16278   */\n      dup2\n        /* \"#utility.yul\":16270:16273   */\n      dup4\n        /* \"#utility.yul\":16257:16287   */\n      calldatacopy\n        /* \"#utility.yul\":16342:16343   */\n      0x00\n        /* \"#utility.yul\":16333:16339   */\n      dup4\n        /* \"#utility.yul\":16328:16331   */\n      dup4\n        /* \"#utility.yul\":16324:16340   */\n      add\n        /* \"#utility.yul\":16317:16344   */\n      mstore\n        /* \"#utility.yul\":16196:16350   */\n      pop\n      pop\n      pop\n      jump\t// out\n        /* \"#utility.yul\":16356:16663   */\n    tag_267:\n        /* \"#utility.yul\":16424:16425   */\n      0x00\n        /* \"#utility.yul\":16434:16547   */\n    tag_400:\n        /* \"#utility.yul\":16448:16454   */\n      dup4\n        /* \"#utility.yul\":16445:16446   */\n      dup2\n        /* \"#utility.yul\":16442:16455   */\n      lt\n        /* \"#utility.yul\":16434:16547   */\n      iszero\n      tag_402\n      jumpi\n        /* \"#utility.yul\":16533:16534   */\n      dup1\n        /* \"#utility.yul\":16528:16531   */\n      dup3\n        /* \"#utility.yul\":16524:16535   */\n      add\n        /* \"#utility.yul\":16518:16536   */\n      mload\n        /* \"#utility.yul\":16514:16515   */\n      dup2\n        /* \"#utility.yul\":16509:16512   */\n      dup5\n        /* \"#utility.yul\":16505:16516   */\n      add\n        /* \"#utility.yul\":16498:16537   */\n      mstore\n        /* \"#utility.yul\":16470:16472   */\n      0x20\n        /* \"#utility.yul\":16467:16468   */\n      dup2\n        /* \"#utility.yul\":16463:16473   */\n      add\n        /* \"#utility.yul\":16458:16473   */\n      swap1\n      pop\n        /* \"#utility.yul\":16434:16547   */\n      jump(tag_400)\n    tag_402:\n        /* \"#utility.yul\":16565:16571   */\n      dup4\n        /* \"#utility.yul\":16562:16563   */\n      dup2\n        /* \"#utility.yul\":16559:16572   */\n      gt\n        /* \"#utility.yul\":16556:16657   */\n      iszero\n      tag_403\n      jumpi\n        /* \"#utility.yul\":16645:16646   */\n      0x00\n        /* \"#utility.yul\":16636:16642   */\n      dup5\n        /* \"#utility.yul\":16631:16634   */\n      dup5\n        /* \"#utility.yul\":16627:16643   */\n      add\n        /* \"#utility.yul\":16620:16647   */\n      mstore\n        /* \"#utility.yul\":16556:16657   */\n    tag_403:\n        /* \"#utility.yul\":16405:16663   */\n      pop\n        /* \"#utility.yul\":16356:16663   */\n      pop\n      pop\n      pop\n      jump\t// out\n        /* \"#utility.yul\":16669:16989   */\n    tag_129:\n        /* \"#utility.yul\":16713:16719   */\n      0x00\n        /* \"#utility.yul\":16750:16751   */\n      0x02\n        /* \"#utility.yul\":16744:16748   */\n      dup3\n        /* \"#utility.yul\":16740:16752   */\n      div\n        /* \"#utility.yul\":16730:16752   */\n      swap1\n      pop\n        /* \"#utility.yul\":16797:16798   */\n      0x01\n        /* \"#utility.yul\":16791:16795   */\n      dup3\n        /* \"#utility.yul\":16787:16799   */\n      and\n        /* \"#utility.yul\":16818:16836   */\n      dup1\n        /* \"#utility.yul\":16808:16889   */\n      tag_405\n      jumpi\n        /* \"#utility.yul\":16874:16878   */\n      0x7f\n        /* \"#utility.yul\":16866:16872   */\n      dup3\n        /* \"#utility.yul\":16862:16879   */\n      and\n        /* \"#utility.yul\":16852:16879   */\n      swap2\n      pop\n        /* \"#utility.yul\":16808:16889   */\n    tag_405:\n        /* \"#utility.yul\":16936:16938   */\n      0x20\n        /* \"#utility.yul\":16928:16934   */\n      dup3\n        /* \"#utility.yul\":16925:16939   */\n      lt\n        /* \"#utility.yul\":16905:16923   */\n      dup2\n        /* \"#utility.yul\":16902:16940   */\n      eq\n        /* \"#utility.yul\":16899:16983   */\n      iszero\n      tag_406\n      jumpi\n        /* \"#utility.yul\":16955:16973   */\n      tag_407\n      tag_408\n      jump\t// in\n    tag_407:\n        /* \"#utility.yul\":16899:16983   */\n    tag_406:\n        /* \"#utility.yul\":16720:16989   */\n      pop\n        /* \"#utility.yul\":16669:16989   */\n      swap2\n      swap1\n      pop\n      jump\t// out\n        /* \"#utility.yul\":16995:17276   */\n    tag_362:\n        /* \"#utility.yul\":17078:17105   */\n      tag_410\n        /* \"#utility.yul\":17100:17104   */\n      dup3\n        /* \"#utility.yul\":17078:17105   */\n      tag_269\n      jump\t// in\n    tag_410:\n        /* \"#utility.yul\":17070:17076   */\n      dup2\n        /* \"#utility.yul\":17066:17106   */\n      add\n        /* \"#utility.yul\":17208:17214   */\n      dup2\n        /* \"#utility.yul\":17196:17206   */\n      dup2\n        /* \"#utility.yul\":17193:17215   */\n      lt\n        /* \"#utility.yul\":17172:17190   */\n      0xffffffffffffffff\n        /* \"#utility.yul\":17160:17170   */\n      dup3\n        /* \"#utility.yul\":17157:17191   */\n      gt\n        /* \"#utility.yul\":17154:17216   */\n      or\n        /* \"#utility.yul\":17151:17239   */\n      iszero\n      tag_411\n      jumpi\n        /* \"#utility.yul\":17219:17237   */\n      tag_412\n      tag_367\n      jump\t// in\n    tag_412:\n        /* \"#utility.yul\":17151:17239   */\n    tag_411:\n        /* \"#utility.yul\":17259:17269   */\n      dup1\n        /* \"#utility.yul\":17255:17257   */\n      0x40\n        /* \"#utility.yul\":17248:17270   */\n      mstore\n        /* \"#utility.yul\":17038:17276   */\n      pop\n        /* \"#utility.yul\":16995:17276   */\n      pop\n      pop\n      jump\t// out\n        /* \"#utility.yul\":17282:17515   */\n    tag_73:\n        /* \"#utility.yul\":17321:17324   */\n      0x00\n        /* \"#utility.yul\":17344:17368   */\n      tag_414\n        /* \"#utility.yul\":17362:17367   */\n      dup3\n        /* \"#utility.yul\":17344:17368   */\n      tag_309\n      jump\t// in\n    tag_414:\n        /* \"#utility.yul\":17335:17368   */\n      swap2\n      pop\n        /* \"#utility.yul\":17390:17456   */\n      0xffffffffffffffffffffffffffffffffffffffffffffffffffffffffffffffff\n        /* \"#utility.yul\":17383:17388   */\n      dup3\n        /* \"#utility.yul\":17380:17457   */\n      eq\n        /* \"#utility.yul\":17377:17480   */\n      iszero\n      tag_415\n      jumpi\n        /* \"#utility.yul\":17460:17478   */\n      tag_416\n      tag_381\n      jump\t// in\n    tag_416:\n        /* \"#utility.yul\":17377:17480   */\n    tag_415:\n        /* \"#utility.yul\":17507:17508   */\n      0x01\n        /* \"#utility.yul\":17500:17505   */\n      dup3\n        /* \"#utility.yul\":17496:17509   */\n      add\n        /* \"#utility.yul\":17489:17509   */\n      swap1\n      pop\n        /* \"#utility.yul\":17282:17515   */\n      swap2\n      swap1\n      pop\n      jump\t// out\n        /* \"#utility.yul\":17521:17600   */\n    tag_317:\n        /* \"#utility.yul\":17560:17567   */\n      0x00\n        /* \"#utility.yul\":17589:17594   */\n      dup2\n        /* \"#utility.yul\":17578:17594   */\n      swap1\n      pop\n        /* \"#utility.yul\":17521:17600   */\n      swap2\n      swap1\n      pop\n      jump\t// out\n        /* \"#utility.yul\":17606:17782   */\n    tag_83:\n        /* \"#utility.yul\":17638:17639   */\n      0x00\n        /* \"#utility.yul\":17655:17675   */\n      tag_419\n        /* \"#utility.yul\":17673:17674   */\n      dup3\n        /* \"#utility.yul\":17655:17675   */\n      tag_309\n      jump\t// in\n    tag_419:\n        /* \"#utility.yul\":17650:17675   */\n      swap2\n      pop\n        /* \"#utility.yul\":17689:17709   */\n      tag_420\n        /* \"#utility.yul\":17707:17708   */\n      dup4\n        /* \"#utility.yul\":17689:17709   */\n      tag_309\n      jump\t// in\n    tag_420:\n        /* \"#utility.yul\":17684:17709   */\n      swap3\n      pop\n        /* \"#utility.yul\":17728:17729   */\n      dup3\n        /* \"#utility.yul\":17718:17753   */\n      tag_421\n      jumpi\n        /* \"#utility.yul\":17733:17751   */\n      tag_422\n      tag_423\n      jump\t// in\n    tag_422:\n        /* \"#utility.yul\":17718:17753   */\n    tag_421:\n        /* \"#utility.yul\":17774:17775   */\n      dup3\n        /* \"#utility.yul\":17771:17772   */\n      dup3\n        /* \"#utility.yul\":17767:17776   */\n      mod\n        /* \"#utility.yul\":17762:17776   */\n      swap1\n      pop\n        /* \"#utility.yul\":17606:17782   */\n      swap3\n      swap2\n      pop\n      pop\n      jump\t// out\n        /* \"#utility.yul\":17788:17968   */\n    tag_381:\n        /* \"#utility.yul\":17836:17913   */\n      0x4e487b7100000000000000000000000000000000000000000000000000000000\n        /* \"#utility.yul\":17833:17834   */\n      0x00\n        /* \"#utility.yul\":17826:17914   */\n      mstore\n        /* \"#utility.yul\":17933:17937   */\n      0x11\n        /* \"#utility.yul\":17930:17931   */\n      0x04\n        /* \"#utility.yul\":17923:17938   */\n      mstore\n        /* \"#utility.yul\":17957:17961   */\n      0x24\n        /* \"#utility.yul\":17954:17955   */\n      0x00\n        /* \"#utility.yul\":17947:17962   */\n      revert\n        /* \"#utility.yul\":17974:18154   */\n    tag_423:\n        /* \"#utility.yul\":18022:18099   */\n      0x4e487b7100000000000000000000000000000000000000000000000000000000\n        /* \"#utility.yul\":18019:18020   */\n      0x00\n        /* \"#utility.yul\":18012:18100   */\n      mstore\n        /* \"#utility.yul\":18119:18123   */\n      0x12\n        /* \"#utility.yul\":18116:18117   */\n      0x04\n        /* \"#utility.yul\":18109:18124   */\n      mstore\n        /* \"#utility.yul\":18143:18147   */\n      0x24\n        /* \"#utility.yul\":18140:18141   */\n      0x00\n        /* \"#utility.yul\":18133:18148   */\n      revert\n        /* \"#utility.yul\":18160:18340   */\n    tag_408:\n        /* \"#utility.yul\":18208:18285   */\n      0x4e487b7100000000000000000000000000000000000000000000000000000000\n        /* \"#utility.yul\":18205:18206   */\n      0x00\n        /* \"#utility.yul\":18198:18286   */\n      mstore\n        /* \"#utility.yul\":18305:18309   */\n      0x22\n        /* \"#utility.yul\":18302:18303   */\n      0x04\n        /* \"#utility.yul\":18295:18310   */\n      mstore\n        /* \"#utility.yul\":18329:18333   */\n      0x24\n        /* \"#utility.yul\":18326:18327   */\n      0x00\n        /* \"#utility.yul\":18319:18334   */\n      revert\n        /* \"#utility.yul\":18346:18526   */\n    tag_92:\n        /* \"#utility.yul\":18394:18471   */\n      0x4e487b7100000000000000000000000000000000000000000000000000000000\n        /* \"#utility.yul\":18391:18392   */\n      0x00\n        /* \"#utility.yul\":18384:18472   */\n      mstore\n        /* \"#utility.yul\":18491:18495   */\n      0x32\n        /* \"#utility.yul\":18488:18489   */\n      0x04\n        /* \"#utility.yul\":18481:18496   */\n      mstore\n        /* \"#utility.yul\":18515:18519   */\n      0x24\n        /* \"#utility.yul\":18512:18513   */\n      0x00\n        /* \"#utility.yul\":18505:18520   */\n      revert\n        /* \"#utility.yul\":18532:18712   */\n    tag_367:\n        /* \"#utility.yul\":18580:18657   */\n      0x4e487b7100000000000000000000000000000000000000000000000000000000\n        /* \"#utility.yul\":18577:18578   */\n      0x00\n        /* \"#utility.yul\":18570:18658   */\n      mstore\n        /* \"#utility.yul\":18677:18681   */\n      0x41\n        /* \"#utility.yul\":18674:18675   */\n      0x04\n        /* \"#utility.yul\":18667:18682   */\n      mstore\n        /* \"#utility.yul\":18701:18705   */\n      0x24\n        /* \"#utility.yul\":18698:18699   */\n      0x00\n        /* \"#utility.yul\":18691:18706   */\n      revert\n        /* \"#utility.yul\":18718:18835   */\n    tag_210:\n        /* \"#utility.yul\":18827:18828   */\n      0x00\n        /* \"#utility.yul\":18824:18825   */\n      dup1\n        /* \"#utility.yul\":18817:18829   */\n      revert\n        /* \"#utility.yul\":18841:18958   */\n    tag_199:\n        /* \"#utility.yul\":18950:18951   */\n      0x00\n        /* \"#utility.yul\":18947:18948   */\n      dup1\n        /* \"#utility.yul\":18940:18952   */\n      revert\n        /* \"#utility.yul\":18964:19081   */\n    tag_226:\n        /* \"#utility.yul\":19073:19074   */\n      0x00\n        /* \"#utility.yul\":19070:19071   */\n      dup1\n        /* \"#utility.yul\":19063:19075   */\n      revert\n        /* \"#utility.yul\":19087:19204   */\n    tag_219:\n        /* \"#utility.yul\":19196:19197   */\n      0x00\n        /* \"#utility.yul\":19193:19194   */\n      dup1\n        /* \"#utility.yul\":19186:19198   */\n      revert\n        /* \"#utility.yul\":19210:19312   */\n    tag_269:\n        /* \"#utility.yul\":19251:19257   */\n      0x00\n        /* \"#utility.yul\":19302:19304   */\n      0x1f\n        /* \"#utility.yul\":19298:19305   */\n      not\n        /* \"#utility.yul\":19293:19295   */\n      0x1f\n        /* \"#utility.yul\":19286:19291   */\n      dup4\n        /* \"#utility.yul\":19282:19296   */\n      add\n        /* \"#utility.yul\":19278:19306   */\n      and\n        /* \"#utility.yul\":19268:19306   */\n      swap1\n      pop\n        /* \"#utility.yul\":19210:19312   */\n      swap2\n      swap1\n      pop\n      jump\t// out\n        /* \"#utility.yul\":19318:19545   */\n    tag_286:\n        /* \"#utility.yul\":19458:19492   */\n      0x536f6c6f2073652070756564652074656e657220756e20636f63686520706f72\n        /* \"#utility.yul\":19454:19455   */\n      0x00\n        /* \"#utility.yul\":19446:19452   */\n      dup3\n        /* \"#utility.yul\":19442:19456   */\n      add\n        /* \"#utility.yul\":19435:19493   */\n      mstore\n        /* \"#utility.yul\":19527:19537   */\n      0x20706572736f6e61000000000000000000000000000000000000000000000000\n        /* \"#utility.yul\":19522:19524   */\n      0x20\n        /* \"#utility.yul\":19514:19520   */\n      dup3\n        /* \"#utility.yul\":19510:19525   */\n      add\n        /* \"#utility.yul\":19503:19538   */\n      mstore\n        /* \"#utility.yul\":19318:19545   */\n      pop\n      jump\t// out\n        /* \"#utility.yul\":19551:19776   */\n    tag_291:\n        /* \"#utility.yul\":19691:19725   */\n      0x4f776e61626c653a206e6577206f776e657220697320746865207a65726f2061\n        /* \"#utility.yul\":19687:19688   */\n      0x00\n        /* \"#utility.yul\":19679:19685   */\n      dup3\n        /* \"#utility.yul\":19675:19689   */\n      add\n        /* \"#utility.yul\":19668:19726   */\n      mstore\n        /* \"#utility.yul\":19760:19768   */\n      0x6464726573730000000000000000000000000000000000000000000000000000\n        /* \"#utility.yul\":19755:19757   */\n      0x20\n        /* \"#utility.yul\":19747:19753   */\n      dup3\n        /* \"#utility.yul\":19743:19758   */\n      add\n        /* \"#utility.yul\":19736:19769   */\n      mstore\n        /* \"#utility.yul\":19551:19776   */\n      pop\n      jump\t// out\n        /* \"#utility.yul\":19782:19944   */\n    tag_296:\n        /* \"#utility.yul\":19922:19936   */\n      0x4861732067616e61646f3a200000000000000000000000000000000000000000\n        /* \"#utility.yul\":19918:19919   */\n      0x00\n        /* \"#utility.yul\":19910:19916   */\n      dup3\n        /* \"#utility.yul\":19906:19920   */\n      add\n        /* \"#utility.yul\":19899:19937   */\n      mstore\n        /* \"#utility.yul\":19782:19944   */\n      pop\n      jump\t// out\n        /* \"#utility.yul\":19950:20132   */\n    tag_301:\n        /* \"#utility.yul\":20090:20124   */\n      0x4f776e61626c653a2063616c6c6572206973206e6f7420746865206f776e6572\n        /* \"#utility.yul\":20086:20087   */\n      0x00\n        /* \"#utility.yul\":20078:20084   */\n      dup3\n        /* \"#utility.yul\":20074:20088   */\n      add\n        /* \"#utility.yul\":20067:20125   */\n      mstore\n        /* \"#utility.yul\":19950:20132   */\n      pop\n      jump\t// out\n        /* \"#utility.yul\":20138:20309   */\n    tag_306:\n        /* \"#utility.yul\":20278:20301   */\n      0x456c20636f6368652067616e61646f722065733a200000000000000000000000\n        /* \"#utility.yul\":20274:20275   */\n      0x00\n        /* \"#utility.yul\":20266:20272   */\n      dup3\n        /* \"#utility.yul\":20262:20276   */\n      add\n        /* \"#utility.yul\":20255:20302   */\n      mstore\n        /* \"#utility.yul\":20138:20309   */\n      pop\n      jump\t// out\n        /* \"#utility.yul\":20315:20437   */\n    tag_205:\n        /* \"#utility.yul\":20388:20412   */\n      tag_440\n        /* \"#utility.yul\":20406:20411   */\n      dup2\n        /* \"#utility.yul\":20388:20412   */\n      tag_245\n      jump\t// in\n    tag_440:\n        /* \"#utility.yul\":20381:20386   */\n      dup2\n        /* \"#utility.yul\":20378:20413   */\n      eq\n        /* \"#utility.yul\":20368:20431   */\n      tag_441\n      jumpi\n        /* \"#utility.yul\":20427:20428   */\n      0x00\n        /* \"#utility.yul\":20424:20425   */\n      dup1\n        /* \"#utility.yul\":20417:20429   */\n      revert\n        /* \"#utility.yul\":20368:20431   */\n    tag_441:\n        /* \"#utility.yul\":20315:20437   */\n      pop\n      jump\t// out\n        /* \"#utility.yul\":20443:20565   */\n    tag_215:\n        /* \"#utility.yul\":20516:20540   */\n      tag_443\n        /* \"#utility.yul\":20534:20539   */\n      dup2\n        /* \"#utility.yul\":20516:20540   */\n      tag_309\n      jump\t// in\n    tag_443:\n        /* \"#utility.yul\":20509:20514   */\n      dup2\n        /* \"#utility.yul\":20506:20541   */\n      eq\n        /* \"#utility.yul\":20496:20559   */\n      tag_444\n      jumpi\n        /* \"#utility.yul\":20555:20556   */\n      0x00\n        /* \"#utility.yul\":20552:20553   */\n      dup1\n        /* \"#utility.yul\":20545:20557   */\n      revert\n        /* \"#utility.yul\":20496:20559   */\n    tag_444:\n        /* \"#utility.yul\":20443:20565   */\n      pop\n      jump\t// out\n\n    auxdata: 0xa2646970667358221220d08eadc39bbc48ca1865d038b7725a2d6a31e631ebc3f2d43a86df46e65e169564736f6c63430008070033\n}\n",
				"bytecode": {
					"linkReferences": {},
					"object": "608060405260006001556000600255603c60035534801561001f57600080fd5b5061003c61003161004160201b60201c565b61004960201b60201c565b61010d565b600033905090565b60008060009054906101000a900473ffffffffffffffffffffffffffffffffffffffff169050816000806101000a81548173ffffffffffffffffffffffffffffffffffffffff021916908373ffffffffffffffffffffffffffffffffffffffff1602179055508173ffffffffffffffffffffffffffffffffffffffff168173ffffffffffffffffffffffffffffffffffffffff167f8be0079c531659141344cd1fd0a4f28419497f9722a3daafe3b4186f6b6457e060405160405180910390a35050565b611a5a8061011c6000396000f3fe6080604052600436106100865760003560e01c8063858b055411610059578063858b05541461014c5780638da5cb5b14610189578063d735573d146101b4578063e172fca8146101f8578063f2fde38b1461023557610086565b80631c6743e41461008b5780632458c544146100c85780636b6f049414610105578063715018a614610135575b600080fd5b34801561009757600080fd5b506100b260048036038101906100ad9190610f45565b61025e565b6040516100bf9190611499565b60405180910390f35b3480156100d457600080fd5b506100ef60048036038101906100ea9190610f72565b610276565b6040516100fc9190611499565b60405180910390f35b61011f600480360381019061011a9190611019565b610558565b60405161012c9190611384565b60405180910390f35b34801561014157600080fd5b5061014a610794565b005b34801561015857600080fd5b50610173600480360381019061016e9190611019565b61081c565b60405161018091906112b4565b60405180910390f35b34801561019557600080fd5b5061019e61084f565b6040516101ab91906112b4565b60405180910390f35b3480156101c057600080fd5b506101db60048036038101906101d69190611019565b610878565b6040516101ef9897969594939291906112cf565b60405180910390f35b34801561020457600080fd5b5061021f600480360381019061021a9190610f45565b610a98565b60405161022c9190611362565b60405180910390f35b34801561024157600080fd5b5061025c60048036038101906102579190610f45565b610bac565b005b60066020528060005260406000206000915090505481565b60006001600660003373ffffffffffffffffffffffffffffffffffffffff1673ffffffffffffffffffffffffffffffffffffffff16815260200190815260200160002054106102fa576040517f08c379a00000000000000000000000000000000000000000000000000000000081526004016102f1906113dd565b60405180910390fd5b60046040518061010001604052803373ffffffffffffffffffffffffffffffffffffffff1681526020018681526020018581526020018481526020016000815260200160008152602001600354426103529190611574565b63ffffffff168152602001600063ffffffff16815250908060018154018082558091505060019003906000526020600020906008020160009091909190915060008201518160000160006101000a81548173ffffffffffffffffffffffffffffffffffffffff021916908373ffffffffffffffffffffffffffffffffffffffff16021790555060208201518160010190805190602001906103f4929190610e08565b506040820151816002019080519060200190610411929190610e08565b50606082015181600301908051906020019061042e929190610e08565b506080820151816004015560a0820151816005015560c0820151816006015560e08201518160070160006101000a81548163ffffffff021916908363ffffffff160217905550505060006004805490509050336005600083815260200190815260200160002060006101000a81548173ffffffffffffffffffffffffffffffffffffffff021916908373ffffffffffffffffffffffffffffffffffffffff160217905550600660003373ffffffffffffffffffffffffffffffffffffffff1673ffffffffffffffffffffffffffffffffffffffff168152602001908152602001600020600081548092919061052290611749565b91905055506002600081548092919061053a90611749565b9190505550600160025461054e9190611624565b9150509392505050565b606081341461056657600080fd5b6001600081548092919061057990611749565b91905055506000600480549050426004805490506001546040516020016105a293929190611277565b6040516020818303038152906040528051906020012060001c6105c5919061179c565b9050600160008154809291906105da90611749565b919050555060006002905060008142836001546040516020016105ff93929190611277565b6040516020818303038152906040528051906020012060001c610622919061179c565b905060005b60048054905081101561078a57600481815481106106485761064761185a565b5b906000526020600020906008020160000160009054906101000a900473ffffffffffffffffffffffffffffffffffffffff1673ffffffffffffffffffffffffffffffffffffffff163373ffffffffffffffffffffffffffffffffffffffff1614156107775760008214156106ff576106be610ca4565b6040518060400160405280600a81526020017f4861732067616e61646f0000000000000000000000000000000000000000000081525094505050505061078f565b7fa28482eec3136a2461c6c30c08f71ba279c6c51a2d9c7bea4e50d6d2632f38968460405161072e919061146b565b60405180910390a16040518060400160405280600b81526020017f486173207065726469646f00000000000000000000000000000000000000000081525094505050505061078f565b808061078290611749565b915050610627565b505050505b919050565b61079c610d3c565b73ffffffffffffffffffffffffffffffffffffffff166107ba61084f565b73ffffffffffffffffffffffffffffffffffffffff1614610810576040517f08c379a00000000000000000000000000000000000000000000000000000000081526004016108079061144b565b60405180910390fd5b61081a6000610d44565b565b60056020528060005260406000206000915054906101000a900473ffffffffffffffffffffffffffffffffffffffff1681565b60008060009054906101000a900473ffffffffffffffffffffffffffffffffffffffff16905090565b6004818154811061088857600080fd5b90600052602060002090600802016000915090508060000160009054906101000a900473ffffffffffffffffffffffffffffffffffffffff16908060010180546108d1906116e6565b80601f01602080910402602001604051908101604052809291908181526020018280546108fd906116e6565b801561094a5780601f1061091f5761010080835404028352916020019161094a565b820191906000526020600020905b81548152906001019060200180831161092d57829003601f168201915b50505050509080600201805461095f906116e6565b80601f016020809104026020016040519081016040528092919081815260200182805461098b906116e6565b80156109d85780601f106109ad576101008083540402835291602001916109d8565b820191906000526020600020905b8154815290600101906020018083116109bb57829003601f168201915b5050505050908060030180546109ed906116e6565b80601f0160208091040260200160405190810160405280929190818152602001828054610a19906116e6565b8015610a665780601f10610a3b57610100808354040283529160200191610a66565b820191906000526020600020905b815481529060010190602001808311610a4957829003601f168201915b5050505050908060040154908060050154908060060154908060070160009054906101000a900463ffffffff16905088565b606060005b600480549050811015610ba6578273ffffffffffffffffffffffffffffffffffffffff166005600083815260200190815260200160002060009054906101000a900473ffffffffffffffffffffffffffffffffffffffff1673ffffffffffffffffffffffffffffffffffffffff161415610b93577f96408510f58a52b0cfe536e046b25664fa36d8122620ec608c1767b45aa4f03c60048281548110610b4657610b4561185a565b5b906000526020600020906008020160020160048381548110610b6b57610b6a61185a565b5b9060005260206000209060080201600101604051610b8a9291906113a6565b60405180910390a15b8080610b9e90611749565b915050610a9d565b50919050565b610bb4610d3c565b73ffffffffffffffffffffffffffffffffffffffff16610bd261084f565b73ffffffffffffffffffffffffffffffffffffffff1614610c28576040517f08c379a0000000000000000000000000000000000000000000000000000000008152600401610c1f9061144b565b60405180910390fd5b600073ffffffffffffffffffffffffffffffffffffffff168173ffffffffffffffffffffffffffffffffffffffff161415610c98576040517f08c379a0000000000000000000000000000000000000000000000000000000008152600401610c8f906113fd565b60405180910390fd5b610ca181610d44565b50565b3373ffffffffffffffffffffffffffffffffffffffff166108fc600247610ccb91906115ca565b9081150290604051600060405180830381858888f19350505050158015610cf6573d6000803e3d6000fd5b507fa28482eec3136a2461c6c30c08f71ba279c6c51a2d9c7bea4e50d6d2632f3896600247610d2591906115ca565b604051610d32919061141d565b60405180910390a1565b600033905090565b60008060009054906101000a900473ffffffffffffffffffffffffffffffffffffffff169050816000806101000a81548173ffffffffffffffffffffffffffffffffffffffff021916908373ffffffffffffffffffffffffffffffffffffffff1602179055508173ffffffffffffffffffffffffffffffffffffffff168173ffffffffffffffffffffffffffffffffffffffff167f8be0079c531659141344cd1fd0a4f28419497f9722a3daafe3b4186f6b6457e060405160405180910390a35050565b828054610e14906116e6565b90600052602060002090601f016020900481019282610e365760008555610e7d565b82601f10610e4f57805160ff1916838001178555610e7d565b82800160010185558215610e7d579182015b82811115610e7c578251825591602001919060010190610e61565b5b509050610e8a9190610e8e565b5090565b5b80821115610ea7576000816000905550600101610e8f565b5090565b6000610ebe610eb9846114d9565b6114b4565b905082815260208101848484011115610eda57610ed96118bd565b5b610ee58482856116a4565b509392505050565b600081359050610efc816119f6565b92915050565b600082601f830112610f1757610f166118b8565b5b8135610f27848260208601610eab565b91505092915050565b600081359050610f3f81611a0d565b92915050565b600060208284031215610f5b57610f5a6118c7565b5b6000610f6984828501610eed565b91505092915050565b600080600060608486031215610f8b57610f8a6118c7565b5b600084013567ffffffffffffffff811115610fa957610fa86118c2565b5b610fb586828701610f02565b935050602084013567ffffffffffffffff811115610fd657610fd56118c2565b5b610fe286828701610f02565b925050604084013567ffffffffffffffff811115611003576110026118c2565b5b61100f86828701610f02565b9150509250925092565b60006020828403121561102f5761102e6118c7565b5b600061103d84828501610f30565b91505092915050565b60006110528383611233565b60208301905092915050565b61106781611658565b82525050565b60006110788261152f565b6110828185611552565b935061108d8361150a565b8060005b838110156110be5781516110a58882611046565b97506110b083611545565b925050600181019050611091565b5085935050505092915050565b60006110d68261153a565b6110e08185611563565b93506110f08185602086016116b3565b6110f9816118cc565b840191505092915050565b60008154611111816116e6565b61111b8186611563565b9450600182166000811461113657600181146111485761117b565b60ff198316865260208601935061117b565b6111518561151a565b60005b8381101561117357815481890152600182019150602081019050611154565b808801955050505b50505092915050565b6000611191602883611563565b915061119c826118dd565b604082019050919050565b60006111b4602683611563565b91506111bf8261192c565b604082019050919050565b60006111d7600c83611563565b91506111e28261197b565b602082019050919050565b60006111fa602083611563565b9150611205826119a4565b602082019050919050565b600061121d601583611563565b9150611228826119cd565b602082019050919050565b61123c8161168a565b82525050565b61124b8161168a565b82525050565b61126261125d8261168a565b611792565b82525050565b61127181611694565b82525050565b60006112838286611251565b6020820191506112938285611251565b6020820191506112a38284611251565b602082019150819050949350505050565b60006020820190506112c9600083018461105e565b92915050565b6000610100820190506112e5600083018b61105e565b81810360208301526112f7818a6110cb565b9050818103604083015261130b81896110cb565b9050818103606083015261131f81886110cb565b905061132e6080830187611242565b61133b60a0830186611242565b61134860c0830185611242565b61135560e0830184611268565b9998505050505050505050565b6000602082019050818103600083015261137c818461106d565b905092915050565b6000602082019050818103600083015261139e81846110cb565b905092915050565b600060408201905081810360008301526113c08185611104565b905081810360208301526113d48184611104565b90509392505050565b600060208201905081810360008301526113f681611184565b9050919050565b60006020820190508181036000830152611416816111a7565b9050919050565b60006040820190508181036000830152611436816111ca565b90506114456020830184611242565b92915050565b60006020820190508181036000830152611464816111ed565b9050919050565b6000604082019050818103600083015261148481611210565b90506114936020830184611242565b92915050565b60006020820190506114ae6000830184611242565b92915050565b60006114be6114cf565b90506114ca8282611718565b919050565b6000604051905090565b600067ffffffffffffffff8211156114f4576114f3611889565b5b6114fd826118cc565b9050602081019050919050565b6000819050602082019050919050565b60008190508160005260206000209050919050565b600081519050919050565b600081519050919050565b6000602082019050919050565b600082825260208201905092915050565b600082825260208201905092915050565b600061157f8261168a565b915061158a8361168a565b9250827fffffffffffffffffffffffffffffffffffffffffffffffffffffffffffffffff038211156115bf576115be6117cd565b5b828201905092915050565b60006115d58261168a565b91506115e08361168a565b9250817fffffffffffffffffffffffffffffffffffffffffffffffffffffffffffffffff0483118215151615611619576116186117cd565b5b828202905092915050565b600061162f8261168a565b915061163a8361168a565b92508282101561164d5761164c6117cd565b5b828203905092915050565b60006116638261166a565b9050919050565b600073ffffffffffffffffffffffffffffffffffffffff82169050919050565b6000819050919050565b600063ffffffff82169050919050565b82818337600083830152505050565b60005b838110156116d15780820151818401526020810190506116b6565b838111156116e0576000848401525b50505050565b600060028204905060018216806116fe57607f821691505b602082108114156117125761171161182b565b5b50919050565b611721826118cc565b810181811067ffffffffffffffff821117156117405761173f611889565b5b80604052505050565b60006117548261168a565b91507fffffffffffffffffffffffffffffffffffffffffffffffffffffffffffffffff821415611787576117866117cd565b5b600182019050919050565b6000819050919050565b60006117a78261168a565b91506117b28361168a565b9250826117c2576117c16117fc565b5b828206905092915050565b7f4e487b7100000000000000000000000000000000000000000000000000000000600052601160045260246000fd5b7f4e487b7100000000000000000000000000000000000000000000000000000000600052601260045260246000fd5b7f4e487b7100000000000000000000000000000000000000000000000000000000600052602260045260246000fd5b7f4e487b7100000000000000000000000000000000000000000000000000000000600052603260045260246000fd5b7f4e487b7100000000000000000000000000000000000000000000000000000000600052604160045260246000fd5b600080fd5b600080fd5b600080fd5b600080fd5b6000601f19601f8301169050919050565b7f536f6c6f2073652070756564652074656e657220756e20636f63686520706f7260008201527f20706572736f6e61000000000000000000000000000000000000000000000000602082015250565b7f4f776e61626c653a206e6577206f776e657220697320746865207a65726f206160008201527f6464726573730000000000000000000000000000000000000000000000000000602082015250565b7f4861732067616e61646f3a200000000000000000000000000000000000000000600082015250565b7f4f776e61626c653a2063616c6c6572206973206e6f7420746865206f776e6572600082015250565b7f456c20636f6368652067616e61646f722065733a200000000000000000000000600082015250565b6119ff81611658565b8114611a0a57600080fd5b50565b611a168161168a565b8114611a2157600080fd5b5056fea2646970667358221220d08eadc39bbc48ca1865d038b7725a2d6a31e631ebc3f2d43a86df46e65e169564736f6c63430008070033",
					"opcodes": "PUSH1 0x80 PUSH1 0x40 MSTORE PUSH1 0x0 PUSH1 0x1 SSTORE PUSH1 0x0 PUSH1 0x2 SSTORE PUSH1 0x3C PUSH1 0x3 SSTORE CALLVALUE DUP1 ISZERO PUSH2 0x1F JUMPI PUSH1 0x0 DUP1 REVERT JUMPDEST POP PUSH2 0x3C PUSH2 0x31 PUSH2 0x41 PUSH1 0x20 SHL PUSH1 0x20 SHR JUMP JUMPDEST PUSH2 0x49 PUSH1 0x20 SHL PUSH1 0x20 SHR JUMP JUMPDEST PUSH2 0x10D JUMP JUMPDEST PUSH1 0x0 CALLER SWAP1 POP SWAP1 JUMP JUMPDEST PUSH1 0x0 DUP1 PUSH1 0x0 SWAP1 SLOAD SWAP1 PUSH2 0x100 EXP SWAP1 DIV PUSH20 0xFFFFFFFFFFFFFFFFFFFFFFFFFFFFFFFFFFFFFFFF AND SWAP1 POP DUP2 PUSH1 0x0 DUP1 PUSH2 0x100 EXP DUP2 SLOAD DUP2 PUSH20 0xFFFFFFFFFFFFFFFFFFFFFFFFFFFFFFFFFFFFFFFF MUL NOT AND SWAP1 DUP4 PUSH20 0xFFFFFFFFFFFFFFFFFFFFFFFFFFFFFFFFFFFFFFFF AND MUL OR SWAP1 SSTORE POP DUP2 PUSH20 0xFFFFFFFFFFFFFFFFFFFFFFFFFFFFFFFFFFFFFFFF AND DUP2 PUSH20 0xFFFFFFFFFFFFFFFFFFFFFFFFFFFFFFFFFFFFFFFF AND PUSH32 0x8BE0079C531659141344CD1FD0A4F28419497F9722A3DAAFE3B4186F6B6457E0 PUSH1 0x40 MLOAD PUSH1 0x40 MLOAD DUP1 SWAP2 SUB SWAP1 LOG3 POP POP JUMP JUMPDEST PUSH2 0x1A5A DUP1 PUSH2 0x11C PUSH1 0x0 CODECOPY PUSH1 0x0 RETURN INVALID PUSH1 0x80 PUSH1 0x40 MSTORE PUSH1 0x4 CALLDATASIZE LT PUSH2 0x86 JUMPI PUSH1 0x0 CALLDATALOAD PUSH1 0xE0 SHR DUP1 PUSH4 0x858B0554 GT PUSH2 0x59 JUMPI DUP1 PUSH4 0x858B0554 EQ PUSH2 0x14C JUMPI DUP1 PUSH4 0x8DA5CB5B EQ PUSH2 0x189 JUMPI DUP1 PUSH4 0xD735573D EQ PUSH2 0x1B4 JUMPI DUP1 PUSH4 0xE172FCA8 EQ PUSH2 0x1F8 JUMPI DUP1 PUSH4 0xF2FDE38B EQ PUSH2 0x235 JUMPI PUSH2 0x86 JUMP JUMPDEST DUP1 PUSH4 0x1C6743E4 EQ PUSH2 0x8B JUMPI DUP1 PUSH4 0x2458C544 EQ PUSH2 0xC8 JUMPI DUP1 PUSH4 0x6B6F0494 EQ PUSH2 0x105 JUMPI DUP1 PUSH4 0x715018A6 EQ PUSH2 0x135 JUMPI JUMPDEST PUSH1 0x0 DUP1 REVERT JUMPDEST CALLVALUE DUP1 ISZERO PUSH2 0x97 JUMPI PUSH1 0x0 DUP1 REVERT JUMPDEST POP PUSH2 0xB2 PUSH1 0x4 DUP1 CALLDATASIZE SUB DUP2 ADD SWAP1 PUSH2 0xAD SWAP2 SWAP1 PUSH2 0xF45 JUMP JUMPDEST PUSH2 0x25E JUMP JUMPDEST PUSH1 0x40 MLOAD PUSH2 0xBF SWAP2 SWAP1 PUSH2 0x1499 JUMP JUMPDEST PUSH1 0x40 MLOAD DUP1 SWAP2 SUB SWAP1 RETURN JUMPDEST CALLVALUE DUP1 ISZERO PUSH2 0xD4 JUMPI PUSH1 0x0 DUP1 REVERT JUMPDEST POP PUSH2 0xEF PUSH1 0x4 DUP1 CALLDATASIZE SUB DUP2 ADD SWAP1 PUSH2 0xEA SWAP2 SWAP1 PUSH2 0xF72 JUMP JUMPDEST PUSH2 0x276 JUMP JUMPDEST PUSH1 0x40 MLOAD PUSH2 0xFC SWAP2 SWAP1 PUSH2 0x1499 JUMP JUMPDEST PUSH1 0x40 MLOAD DUP1 SWAP2 SUB SWAP1 RETURN JUMPDEST PUSH2 0x11F PUSH1 0x4 DUP1 CALLDATASIZE SUB DUP2 ADD SWAP1 PUSH2 0x11A SWAP2 SWAP1 PUSH2 0x1019 JUMP JUMPDEST PUSH2 0x558 JUMP JUMPDEST PUSH1 0x40 MLOAD PUSH2 0x12C SWAP2 SWAP1 PUSH2 0x1384 JUMP JUMPDEST PUSH1 0x40 MLOAD DUP1 SWAP2 SUB SWAP1 RETURN JUMPDEST CALLVALUE DUP1 ISZERO PUSH2 0x141 JUMPI PUSH1 0x0 DUP1 REVERT JUMPDEST POP PUSH2 0x14A PUSH2 0x794 JUMP JUMPDEST STOP JUMPDEST CALLVALUE DUP1 ISZERO PUSH2 0x158 JUMPI PUSH1 0x0 DUP1 REVERT JUMPDEST POP PUSH2 0x173 PUSH1 0x4 DUP1 CALLDATASIZE SUB DUP2 ADD SWAP1 PUSH2 0x16E SWAP2 SWAP1 PUSH2 0x1019 JUMP JUMPDEST PUSH2 0x81C JUMP JUMPDEST PUSH1 0x40 MLOAD PUSH2 0x180 SWAP2 SWAP1 PUSH2 0x12B4 JUMP JUMPDEST PUSH1 0x40 MLOAD DUP1 SWAP2 SUB SWAP1 RETURN JUMPDEST CALLVALUE DUP1 ISZERO PUSH2 0x195 JUMPI PUSH1 0x0 DUP1 REVERT JUMPDEST POP PUSH2 0x19E PUSH2 0x84F JUMP JUMPDEST PUSH1 0x40 MLOAD PUSH2 0x1AB SWAP2 SWAP1 PUSH2 0x12B4 JUMP JUMPDEST PUSH1 0x40 MLOAD DUP1 SWAP2 SUB SWAP1 RETURN JUMPDEST CALLVALUE DUP1 ISZERO PUSH2 0x1C0 JUMPI PUSH1 0x0 DUP1 REVERT JUMPDEST POP PUSH2 0x1DB PUSH1 0x4 DUP1 CALLDATASIZE SUB DUP2 ADD SWAP1 PUSH2 0x1D6 SWAP2 SWAP1 PUSH2 0x1019 JUMP JUMPDEST PUSH2 0x878 JUMP JUMPDEST PUSH1 0x40 MLOAD PUSH2 0x1EF SWAP9 SWAP8 SWAP7 SWAP6 SWAP5 SWAP4 SWAP3 SWAP2 SWAP1 PUSH2 0x12CF JUMP JUMPDEST PUSH1 0x40 MLOAD DUP1 SWAP2 SUB SWAP1 RETURN JUMPDEST CALLVALUE DUP1 ISZERO PUSH2 0x204 JUMPI PUSH1 0x0 DUP1 REVERT JUMPDEST POP PUSH2 0x21F PUSH1 0x4 DUP1 CALLDATASIZE SUB DUP2 ADD SWAP1 PUSH2 0x21A SWAP2 SWAP1 PUSH2 0xF45 JUMP JUMPDEST PUSH2 0xA98 JUMP JUMPDEST PUSH1 0x40 MLOAD PUSH2 0x22C SWAP2 SWAP1 PUSH2 0x1362 JUMP JUMPDEST PUSH1 0x40 MLOAD DUP1 SWAP2 SUB SWAP1 RETURN JUMPDEST CALLVALUE DUP1 ISZERO PUSH2 0x241 JUMPI PUSH1 0x0 DUP1 REVERT JUMPDEST POP PUSH2 0x25C PUSH1 0x4 DUP1 CALLDATASIZE SUB DUP2 ADD SWAP1 PUSH2 0x257 SWAP2 SWAP1 PUSH2 0xF45 JUMP JUMPDEST PUSH2 0xBAC JUMP JUMPDEST STOP JUMPDEST PUSH1 0x6 PUSH1 0x20 MSTORE DUP1 PUSH1 0x0 MSTORE PUSH1 0x40 PUSH1 0x0 KECCAK256 PUSH1 0x0 SWAP2 POP SWAP1 POP SLOAD DUP2 JUMP JUMPDEST PUSH1 0x0 PUSH1 0x1 PUSH1 0x6 PUSH1 0x0 CALLER PUSH20 0xFFFFFFFFFFFFFFFFFFFFFFFFFFFFFFFFFFFFFFFF AND PUSH20 0xFFFFFFFFFFFFFFFFFFFFFFFFFFFFFFFFFFFFFFFF AND DUP2 MSTORE PUSH1 0x20 ADD SWAP1 DUP2 MSTORE PUSH1 0x20 ADD PUSH1 0x0 KECCAK256 SLOAD LT PUSH2 0x2FA JUMPI PUSH1 0x40 MLOAD PUSH32 0x8C379A000000000000000000000000000000000000000000000000000000000 DUP2 MSTORE PUSH1 0x4 ADD PUSH2 0x2F1 SWAP1 PUSH2 0x13DD JUMP JUMPDEST PUSH1 0x40 MLOAD DUP1 SWAP2 SUB SWAP1 REVERT JUMPDEST PUSH1 0x4 PUSH1 0x40 MLOAD DUP1 PUSH2 0x100 ADD PUSH1 0x40 MSTORE DUP1 CALLER PUSH20 0xFFFFFFFFFFFFFFFFFFFFFFFFFFFFFFFFFFFFFFFF AND DUP2 MSTORE PUSH1 0x20 ADD DUP7 DUP2 MSTORE PUSH1 0x20 ADD DUP6 DUP2 MSTORE PUSH1 0x20 ADD DUP5 DUP2 MSTORE PUSH1 0x20 ADD PUSH1 0x0 DUP2 MSTORE PUSH1 0x20 ADD PUSH1 0x0 DUP2 MSTORE PUSH1 0x20 ADD PUSH1 0x3 SLOAD TIMESTAMP PUSH2 0x352 SWAP2 SWAP1 PUSH2 0x1574 JUMP JUMPDEST PUSH4 0xFFFFFFFF AND DUP2 MSTORE PUSH1 0x20 ADD PUSH1 0x0 PUSH4 0xFFFFFFFF AND DUP2 MSTORE POP SWAP1 DUP1 PUSH1 0x1 DUP2 SLOAD ADD DUP1 DUP3 SSTORE DUP1 SWAP2 POP POP PUSH1 0x1 SWAP1 SUB SWAP1 PUSH1 0x0 MSTORE PUSH1 0x20 PUSH1 0x0 KECCAK256 SWAP1 PUSH1 0x8 MUL ADD PUSH1 0x0 SWAP1 SWAP2 SWAP1 SWAP2 SWAP1 SWAP2 POP PUSH1 0x0 DUP3 ADD MLOAD DUP2 PUSH1 0x0 ADD PUSH1 0x0 PUSH2 0x100 EXP DUP2 SLOAD DUP2 PUSH20 0xFFFFFFFFFFFFFFFFFFFFFFFFFFFFFFFFFFFFFFFF MUL NOT AND SWAP1 DUP4 PUSH20 0xFFFFFFFFFFFFFFFFFFFFFFFFFFFFFFFFFFFFFFFF AND MUL OR SWAP1 SSTORE POP PUSH1 0x20 DUP3 ADD MLOAD DUP2 PUSH1 0x1 ADD SWAP1 DUP1 MLOAD SWAP1 PUSH1 0x20 ADD SWAP1 PUSH2 0x3F4 SWAP3 SWAP2 SWAP1 PUSH2 0xE08 JUMP JUMPDEST POP PUSH1 0x40 DUP3 ADD MLOAD DUP2 PUSH1 0x2 ADD SWAP1 DUP1 MLOAD SWAP1 PUSH1 0x20 ADD SWAP1 PUSH2 0x411 SWAP3 SWAP2 SWAP1 PUSH2 0xE08 JUMP JUMPDEST POP PUSH1 0x60 DUP3 ADD MLOAD DUP2 PUSH1 0x3 ADD SWAP1 DUP1 MLOAD SWAP1 PUSH1 0x20 ADD SWAP1 PUSH2 0x42E SWAP3 SWAP2 SWAP1 PUSH2 0xE08 JUMP JUMPDEST POP PUSH1 0x80 DUP3 ADD MLOAD DUP2 PUSH1 0x4 ADD SSTORE PUSH1 0xA0 DUP3 ADD MLOAD DUP2 PUSH1 0x5 ADD SSTORE PUSH1 0xC0 DUP3 ADD MLOAD DUP2 PUSH1 0x6 ADD SSTORE PUSH1 0xE0 DUP3 ADD MLOAD DUP2 PUSH1 0x7 ADD PUSH1 0x0 PUSH2 0x100 EXP DUP2 SLOAD DUP2 PUSH4 0xFFFFFFFF MUL NOT AND SWAP1 DUP4 PUSH4 0xFFFFFFFF AND MUL OR SWAP1 SSTORE POP POP POP PUSH1 0x0 PUSH1 0x4 DUP1 SLOAD SWAP1 POP SWAP1 POP CALLER PUSH1 0x5 PUSH1 0x0 DUP4 DUP2 MSTORE PUSH1 0x20 ADD SWAP1 DUP2 MSTORE PUSH1 0x20 ADD PUSH1 0x0 KECCAK256 PUSH1 0x0 PUSH2 0x100 EXP DUP2 SLOAD DUP2 PUSH20 0xFFFFFFFFFFFFFFFFFFFFFFFFFFFFFFFFFFFFFFFF MUL NOT AND SWAP1 DUP4 PUSH20 0xFFFFFFFFFFFFFFFFFFFFFFFFFFFFFFFFFFFFFFFF AND MUL OR SWAP1 SSTORE POP PUSH1 0x6 PUSH1 0x0 CALLER PUSH20 0xFFFFFFFFFFFFFFFFFFFFFFFFFFFFFFFFFFFFFFFF AND PUSH20 0xFFFFFFFFFFFFFFFFFFFFFFFFFFFFFFFFFFFFFFFF AND DUP2 MSTORE PUSH1 0x20 ADD SWAP1 DUP2 MSTORE PUSH1 0x20 ADD PUSH1 0x0 KECCAK256 PUSH1 0x0 DUP2 SLOAD DUP1 SWAP3 SWAP2 SWAP1 PUSH2 0x522 SWAP1 PUSH2 0x1749 JUMP JUMPDEST SWAP2 SWAP1 POP SSTORE POP PUSH1 0x2 PUSH1 0x0 DUP2 SLOAD DUP1 SWAP3 SWAP2 SWAP1 PUSH2 0x53A SWAP1 PUSH2 0x1749 JUMP JUMPDEST SWAP2 SWAP1 POP SSTORE POP PUSH1 0x1 PUSH1 0x2 SLOAD PUSH2 0x54E SWAP2 SWAP1 PUSH2 0x1624 JUMP JUMPDEST SWAP2 POP POP SWAP4 SWAP3 POP POP POP JUMP JUMPDEST PUSH1 0x60 DUP2 CALLVALUE EQ PUSH2 0x566 JUMPI PUSH1 0x0 DUP1 REVERT JUMPDEST PUSH1 0x1 PUSH1 0x0 DUP2 SLOAD DUP1 SWAP3 SWAP2 SWAP1 PUSH2 0x579 SWAP1 PUSH2 0x1749 JUMP JUMPDEST SWAP2 SWAP1 POP SSTORE POP PUSH1 0x0 PUSH1 0x4 DUP1 SLOAD SWAP1 POP TIMESTAMP PUSH1 0x4 DUP1 SLOAD SWAP1 POP PUSH1 0x1 SLOAD PUSH1 0x40 MLOAD PUSH1 0x20 ADD PUSH2 0x5A2 SWAP4 SWAP3 SWAP2 SWAP1 PUSH2 0x1277 JUMP JUMPDEST PUSH1 0x40 MLOAD PUSH1 0x20 DUP2 DUP4 SUB SUB DUP2 MSTORE SWAP1 PUSH1 0x40 MSTORE DUP1 MLOAD SWAP1 PUSH1 0x20 ADD KECCAK256 PUSH1 0x0 SHR PUSH2 0x5C5 SWAP2 SWAP1 PUSH2 0x179C JUMP JUMPDEST SWAP1 POP PUSH1 0x1 PUSH1 0x0 DUP2 SLOAD DUP1 SWAP3 SWAP2 SWAP1 PUSH2 0x5DA SWAP1 PUSH2 0x1749 JUMP JUMPDEST SWAP2 SWAP1 POP SSTORE POP PUSH1 0x0 PUSH1 0x2 SWAP1 POP PUSH1 0x0 DUP2 TIMESTAMP DUP4 PUSH1 0x1 SLOAD PUSH1 0x40 MLOAD PUSH1 0x20 ADD PUSH2 0x5FF SWAP4 SWAP3 SWAP2 SWAP1 PUSH2 0x1277 JUMP JUMPDEST PUSH1 0x40 MLOAD PUSH1 0x20 DUP2 DUP4 SUB SUB DUP2 MSTORE SWAP1 PUSH1 0x40 MSTORE DUP1 MLOAD SWAP1 PUSH1 0x20 ADD KECCAK256 PUSH1 0x0 SHR PUSH2 0x622 SWAP2 SWAP1 PUSH2 0x179C JUMP JUMPDEST SWAP1 POP PUSH1 0x0 JUMPDEST PUSH1 0x4 DUP1 SLOAD SWAP1 POP DUP2 LT ISZERO PUSH2 0x78A JUMPI PUSH1 0x4 DUP2 DUP2 SLOAD DUP2 LT PUSH2 0x648 JUMPI PUSH2 0x647 PUSH2 0x185A JUMP JUMPDEST JUMPDEST SWAP1 PUSH1 0x0 MSTORE PUSH1 0x20 PUSH1 0x0 KECCAK256 SWAP1 PUSH1 0x8 MUL ADD PUSH1 0x0 ADD PUSH1 0x0 SWAP1 SLOAD SWAP1 PUSH2 0x100 EXP SWAP1 DIV PUSH20 0xFFFFFFFFFFFFFFFFFFFFFFFFFFFFFFFFFFFFFFFF AND PUSH20 0xFFFFFFFFFFFFFFFFFFFFFFFFFFFFFFFFFFFFFFFF AND CALLER PUSH20 0xFFFFFFFFFFFFFFFFFFFFFFFFFFFFFFFFFFFFFFFF AND EQ ISZERO PUSH2 0x777 JUMPI PUSH1 0x0 DUP3 EQ ISZERO PUSH2 0x6FF JUMPI PUSH2 0x6BE PUSH2 0xCA4 JUMP JUMPDEST PUSH1 0x40 MLOAD DUP1 PUSH1 0x40 ADD PUSH1 0x40 MSTORE DUP1 PUSH1 0xA DUP2 MSTORE PUSH1 0x20 ADD PUSH32 0x4861732067616E61646F00000000000000000000000000000000000000000000 DUP2 MSTORE POP SWAP5 POP POP POP POP POP PUSH2 0x78F JUMP JUMPDEST PUSH32 0xA28482EEC3136A2461C6C30C08F71BA279C6C51A2D9C7BEA4E50D6D2632F3896 DUP5 PUSH1 0x40 MLOAD PUSH2 0x72E SWAP2 SWAP1 PUSH2 0x146B JUMP JUMPDEST PUSH1 0x40 MLOAD DUP1 SWAP2 SUB SWAP1 LOG1 PUSH1 0x40 MLOAD DUP1 PUSH1 0x40 ADD PUSH1 0x40 MSTORE DUP1 PUSH1 0xB DUP2 MSTORE PUSH1 0x20 ADD PUSH32 0x486173207065726469646F000000000000000000000000000000000000000000 DUP2 MSTORE POP SWAP5 POP POP POP POP POP PUSH2 0x78F JUMP JUMPDEST DUP1 DUP1 PUSH2 0x782 SWAP1 PUSH2 0x1749 JUMP JUMPDEST SWAP2 POP POP PUSH2 0x627 JUMP JUMPDEST POP POP POP POP JUMPDEST SWAP2 SWAP1 POP JUMP JUMPDEST PUSH2 0x79C PUSH2 0xD3C JUMP JUMPDEST PUSH20 0xFFFFFFFFFFFFFFFFFFFFFFFFFFFFFFFFFFFFFFFF AND PUSH2 0x7BA PUSH2 0x84F JUMP JUMPDEST PUSH20 0xFFFFFFFFFFFFFFFFFFFFFFFFFFFFFFFFFFFFFFFF AND EQ PUSH2 0x810 JUMPI PUSH1 0x40 MLOAD PUSH32 0x8C379A000000000000000000000000000000000000000000000000000000000 DUP2 MSTORE PUSH1 0x4 ADD PUSH2 0x807 SWAP1 PUSH2 0x144B JUMP JUMPDEST PUSH1 0x40 MLOAD DUP1 SWAP2 SUB SWAP1 REVERT JUMPDEST PUSH2 0x81A PUSH1 0x0 PUSH2 0xD44 JUMP JUMPDEST JUMP JUMPDEST PUSH1 0x5 PUSH1 0x20 MSTORE DUP1 PUSH1 0x0 MSTORE PUSH1 0x40 PUSH1 0x0 KECCAK256 PUSH1 0x0 SWAP2 POP SLOAD SWAP1 PUSH2 0x100 EXP SWAP1 DIV PUSH20 0xFFFFFFFFFFFFFFFFFFFFFFFFFFFFFFFFFFFFFFFF AND DUP2 JUMP JUMPDEST PUSH1 0x0 DUP1 PUSH1 0x0 SWAP1 SLOAD SWAP1 PUSH2 0x100 EXP SWAP1 DIV PUSH20 0xFFFFFFFFFFFFFFFFFFFFFFFFFFFFFFFFFFFFFFFF AND SWAP1 POP SWAP1 JUMP JUMPDEST PUSH1 0x4 DUP2 DUP2 SLOAD DUP2 LT PUSH2 0x888 JUMPI PUSH1 0x0 DUP1 REVERT JUMPDEST SWAP1 PUSH1 0x0 MSTORE PUSH1 0x20 PUSH1 0x0 KECCAK256 SWAP1 PUSH1 0x8 MUL ADD PUSH1 0x0 SWAP2 POP SWAP1 POP DUP1 PUSH1 0x0 ADD PUSH1 0x0 SWAP1 SLOAD SWAP1 PUSH2 0x100 EXP SWAP1 DIV PUSH20 0xFFFFFFFFFFFFFFFFFFFFFFFFFFFFFFFFFFFFFFFF AND SWAP1 DUP1 PUSH1 0x1 ADD DUP1 SLOAD PUSH2 0x8D1 SWAP1 PUSH2 0x16E6 JUMP JUMPDEST DUP1 PUSH1 0x1F ADD PUSH1 0x20 DUP1 SWAP2 DIV MUL PUSH1 0x20 ADD PUSH1 0x40 MLOAD SWAP1 DUP2 ADD PUSH1 0x40 MSTORE DUP1 SWAP3 SWAP2 SWAP1 DUP2 DUP2 MSTORE PUSH1 0x20 ADD DUP3 DUP1 SLOAD PUSH2 0x8FD SWAP1 PUSH2 0x16E6 JUMP JUMPDEST DUP1 ISZERO PUSH2 0x94A JUMPI DUP1 PUSH1 0x1F LT PUSH2 0x91F JUMPI PUSH2 0x100 DUP1 DUP4 SLOAD DIV MUL DUP4 MSTORE SWAP2 PUSH1 0x20 ADD SWAP2 PUSH2 0x94A JUMP JUMPDEST DUP3 ADD SWAP2 SWAP1 PUSH1 0x0 MSTORE PUSH1 0x20 PUSH1 0x0 KECCAK256 SWAP1 JUMPDEST DUP2 SLOAD DUP2 MSTORE SWAP1 PUSH1 0x1 ADD SWAP1 PUSH1 0x20 ADD DUP1 DUP4 GT PUSH2 0x92D JUMPI DUP3 SWAP1 SUB PUSH1 0x1F AND DUP3 ADD SWAP2 JUMPDEST POP POP POP POP POP SWAP1 DUP1 PUSH1 0x2 ADD DUP1 SLOAD PUSH2 0x95F SWAP1 PUSH2 0x16E6 JUMP JUMPDEST DUP1 PUSH1 0x1F ADD PUSH1 0x20 DUP1 SWAP2 DIV MUL PUSH1 0x20 ADD PUSH1 0x40 MLOAD SWAP1 DUP2 ADD PUSH1 0x40 MSTORE DUP1 SWAP3 SWAP2 SWAP1 DUP2 DUP2 MSTORE PUSH1 0x20 ADD DUP3 DUP1 SLOAD PUSH2 0x98B SWAP1 PUSH2 0x16E6 JUMP JUMPDEST DUP1 ISZERO PUSH2 0x9D8 JUMPI DUP1 PUSH1 0x1F LT PUSH2 0x9AD JUMPI PUSH2 0x100 DUP1 DUP4 SLOAD DIV MUL DUP4 MSTORE SWAP2 PUSH1 0x20 ADD SWAP2 PUSH2 0x9D8 JUMP JUMPDEST DUP3 ADD SWAP2 SWAP1 PUSH1 0x0 MSTORE PUSH1 0x20 PUSH1 0x0 KECCAK256 SWAP1 JUMPDEST DUP2 SLOAD DUP2 MSTORE SWAP1 PUSH1 0x1 ADD SWAP1 PUSH1 0x20 ADD DUP1 DUP4 GT PUSH2 0x9BB JUMPI DUP3 SWAP1 SUB PUSH1 0x1F AND DUP3 ADD SWAP2 JUMPDEST POP POP POP POP POP SWAP1 DUP1 PUSH1 0x3 ADD DUP1 SLOAD PUSH2 0x9ED SWAP1 PUSH2 0x16E6 JUMP JUMPDEST DUP1 PUSH1 0x1F ADD PUSH1 0x20 DUP1 SWAP2 DIV MUL PUSH1 0x20 ADD PUSH1 0x40 MLOAD SWAP1 DUP2 ADD PUSH1 0x40 MSTORE DUP1 SWAP3 SWAP2 SWAP1 DUP2 DUP2 MSTORE PUSH1 0x20 ADD DUP3 DUP1 SLOAD PUSH2 0xA19 SWAP1 PUSH2 0x16E6 JUMP JUMPDEST DUP1 ISZERO PUSH2 0xA66 JUMPI DUP1 PUSH1 0x1F LT PUSH2 0xA3B JUMPI PUSH2 0x100 DUP1 DUP4 SLOAD DIV MUL DUP4 MSTORE SWAP2 PUSH1 0x20 ADD SWAP2 PUSH2 0xA66 JUMP JUMPDEST DUP3 ADD SWAP2 SWAP1 PUSH1 0x0 MSTORE PUSH1 0x20 PUSH1 0x0 KECCAK256 SWAP1 JUMPDEST DUP2 SLOAD DUP2 MSTORE SWAP1 PUSH1 0x1 ADD SWAP1 PUSH1 0x20 ADD DUP1 DUP4 GT PUSH2 0xA49 JUMPI DUP3 SWAP1 SUB PUSH1 0x1F AND DUP3 ADD SWAP2 JUMPDEST POP POP POP POP POP SWAP1 DUP1 PUSH1 0x4 ADD SLOAD SWAP1 DUP1 PUSH1 0x5 ADD SLOAD SWAP1 DUP1 PUSH1 0x6 ADD SLOAD SWAP1 DUP1 PUSH1 0x7 ADD PUSH1 0x0 SWAP1 SLOAD SWAP1 PUSH2 0x100 EXP SWAP1 DIV PUSH4 0xFFFFFFFF AND SWAP1 POP DUP9 JUMP JUMPDEST PUSH1 0x60 PUSH1 0x0 JUMPDEST PUSH1 0x4 DUP1 SLOAD SWAP1 POP DUP2 LT ISZERO PUSH2 0xBA6 JUMPI DUP3 PUSH20 0xFFFFFFFFFFFFFFFFFFFFFFFFFFFFFFFFFFFFFFFF AND PUSH1 0x5 PUSH1 0x0 DUP4 DUP2 MSTORE PUSH1 0x20 ADD SWAP1 DUP2 MSTORE PUSH1 0x20 ADD PUSH1 0x0 KECCAK256 PUSH1 0x0 SWAP1 SLOAD SWAP1 PUSH2 0x100 EXP SWAP1 DIV PUSH20 0xFFFFFFFFFFFFFFFFFFFFFFFFFFFFFFFFFFFFFFFF AND PUSH20 0xFFFFFFFFFFFFFFFFFFFFFFFFFFFFFFFFFFFFFFFF AND EQ ISZERO PUSH2 0xB93 JUMPI PUSH32 0x96408510F58A52B0CFE536E046B25664FA36D8122620EC608C1767B45AA4F03C PUSH1 0x4 DUP3 DUP2 SLOAD DUP2 LT PUSH2 0xB46 JUMPI PUSH2 0xB45 PUSH2 0x185A JUMP JUMPDEST JUMPDEST SWAP1 PUSH1 0x0 MSTORE PUSH1 0x20 PUSH1 0x0 KECCAK256 SWAP1 PUSH1 0x8 MUL ADD PUSH1 0x2 ADD PUSH1 0x4 DUP4 DUP2 SLOAD DUP2 LT PUSH2 0xB6B JUMPI PUSH2 0xB6A PUSH2 0x185A JUMP JUMPDEST JUMPDEST SWAP1 PUSH1 0x0 MSTORE PUSH1 0x20 PUSH1 0x0 KECCAK256 SWAP1 PUSH1 0x8 MUL ADD PUSH1 0x1 ADD PUSH1 0x40 MLOAD PUSH2 0xB8A SWAP3 SWAP2 SWAP1 PUSH2 0x13A6 JUMP JUMPDEST PUSH1 0x40 MLOAD DUP1 SWAP2 SUB SWAP1 LOG1 JUMPDEST DUP1 DUP1 PUSH2 0xB9E SWAP1 PUSH2 0x1749 JUMP JUMPDEST SWAP2 POP POP PUSH2 0xA9D JUMP JUMPDEST POP SWAP2 SWAP1 POP JUMP JUMPDEST PUSH2 0xBB4 PUSH2 0xD3C JUMP JUMPDEST PUSH20 0xFFFFFFFFFFFFFFFFFFFFFFFFFFFFFFFFFFFFFFFF AND PUSH2 0xBD2 PUSH2 0x84F JUMP JUMPDEST PUSH20 0xFFFFFFFFFFFFFFFFFFFFFFFFFFFFFFFFFFFFFFFF AND EQ PUSH2 0xC28 JUMPI PUSH1 0x40 MLOAD PUSH32 0x8C379A000000000000000000000000000000000000000000000000000000000 DUP2 MSTORE PUSH1 0x4 ADD PUSH2 0xC1F SWAP1 PUSH2 0x144B JUMP JUMPDEST PUSH1 0x40 MLOAD DUP1 SWAP2 SUB SWAP1 REVERT JUMPDEST PUSH1 0x0 PUSH20 0xFFFFFFFFFFFFFFFFFFFFFFFFFFFFFFFFFFFFFFFF AND DUP2 PUSH20 0xFFFFFFFFFFFFFFFFFFFFFFFFFFFFFFFFFFFFFFFF AND EQ ISZERO PUSH2 0xC98 JUMPI PUSH1 0x40 MLOAD PUSH32 0x8C379A000000000000000000000000000000000000000000000000000000000 DUP2 MSTORE PUSH1 0x4 ADD PUSH2 0xC8F SWAP1 PUSH2 0x13FD JUMP JUMPDEST PUSH1 0x40 MLOAD DUP1 SWAP2 SUB SWAP1 REVERT JUMPDEST PUSH2 0xCA1 DUP2 PUSH2 0xD44 JUMP JUMPDEST POP JUMP JUMPDEST CALLER PUSH20 0xFFFFFFFFFFFFFFFFFFFFFFFFFFFFFFFFFFFFFFFF AND PUSH2 0x8FC PUSH1 0x2 SELFBALANCE PUSH2 0xCCB SWAP2 SWAP1 PUSH2 0x15CA JUMP JUMPDEST SWAP1 DUP2 ISZERO MUL SWAP1 PUSH1 0x40 MLOAD PUSH1 0x0 PUSH1 0x40 MLOAD DUP1 DUP4 SUB DUP2 DUP6 DUP9 DUP9 CALL SWAP4 POP POP POP POP ISZERO DUP1 ISZERO PUSH2 0xCF6 JUMPI RETURNDATASIZE PUSH1 0x0 DUP1 RETURNDATACOPY RETURNDATASIZE PUSH1 0x0 REVERT JUMPDEST POP PUSH32 0xA28482EEC3136A2461C6C30C08F71BA279C6C51A2D9C7BEA4E50D6D2632F3896 PUSH1 0x2 SELFBALANCE PUSH2 0xD25 SWAP2 SWAP1 PUSH2 0x15CA JUMP JUMPDEST PUSH1 0x40 MLOAD PUSH2 0xD32 SWAP2 SWAP1 PUSH2 0x141D JUMP JUMPDEST PUSH1 0x40 MLOAD DUP1 SWAP2 SUB SWAP1 LOG1 JUMP JUMPDEST PUSH1 0x0 CALLER SWAP1 POP SWAP1 JUMP JUMPDEST PUSH1 0x0 DUP1 PUSH1 0x0 SWAP1 SLOAD SWAP1 PUSH2 0x100 EXP SWAP1 DIV PUSH20 0xFFFFFFFFFFFFFFFFFFFFFFFFFFFFFFFFFFFFFFFF AND SWAP1 POP DUP2 PUSH1 0x0 DUP1 PUSH2 0x100 EXP DUP2 SLOAD DUP2 PUSH20 0xFFFFFFFFFFFFFFFFFFFFFFFFFFFFFFFFFFFFFFFF MUL NOT AND SWAP1 DUP4 PUSH20 0xFFFFFFFFFFFFFFFFFFFFFFFFFFFFFFFFFFFFFFFF AND MUL OR SWAP1 SSTORE POP DUP2 PUSH20 0xFFFFFFFFFFFFFFFFFFFFFFFFFFFFFFFFFFFFFFFF AND DUP2 PUSH20 0xFFFFFFFFFFFFFFFFFFFFFFFFFFFFFFFFFFFFFFFF AND PUSH32 0x8BE0079C531659141344CD1FD0A4F28419497F9722A3DAAFE3B4186F6B6457E0 PUSH1 0x40 MLOAD PUSH1 0x40 MLOAD DUP1 SWAP2 SUB SWAP1 LOG3 POP POP JUMP JUMPDEST DUP3 DUP1 SLOAD PUSH2 0xE14 SWAP1 PUSH2 0x16E6 JUMP JUMPDEST SWAP1 PUSH1 0x0 MSTORE PUSH1 0x20 PUSH1 0x0 KECCAK256 SWAP1 PUSH1 0x1F ADD PUSH1 0x20 SWAP1 DIV DUP2 ADD SWAP3 DUP3 PUSH2 0xE36 JUMPI PUSH1 0x0 DUP6 SSTORE PUSH2 0xE7D JUMP JUMPDEST DUP3 PUSH1 0x1F LT PUSH2 0xE4F JUMPI DUP1 MLOAD PUSH1 0xFF NOT AND DUP4 DUP1 ADD OR DUP6 SSTORE PUSH2 0xE7D JUMP JUMPDEST DUP3 DUP1 ADD PUSH1 0x1 ADD DUP6 SSTORE DUP3 ISZERO PUSH2 0xE7D JUMPI SWAP2 DUP3 ADD JUMPDEST DUP3 DUP2 GT ISZERO PUSH2 0xE7C JUMPI DUP3 MLOAD DUP3 SSTORE SWAP2 PUSH1 0x20 ADD SWAP2 SWAP1 PUSH1 0x1 ADD SWAP1 PUSH2 0xE61 JUMP JUMPDEST JUMPDEST POP SWAP1 POP PUSH2 0xE8A SWAP2 SWAP1 PUSH2 0xE8E JUMP JUMPDEST POP SWAP1 JUMP JUMPDEST JUMPDEST DUP1 DUP3 GT ISZERO PUSH2 0xEA7 JUMPI PUSH1 0x0 DUP2 PUSH1 0x0 SWAP1 SSTORE POP PUSH1 0x1 ADD PUSH2 0xE8F JUMP JUMPDEST POP SWAP1 JUMP JUMPDEST PUSH1 0x0 PUSH2 0xEBE PUSH2 0xEB9 DUP5 PUSH2 0x14D9 JUMP JUMPDEST PUSH2 0x14B4 JUMP JUMPDEST SWAP1 POP DUP3 DUP2 MSTORE PUSH1 0x20 DUP2 ADD DUP5 DUP5 DUP5 ADD GT ISZERO PUSH2 0xEDA JUMPI PUSH2 0xED9 PUSH2 0x18BD JUMP JUMPDEST JUMPDEST PUSH2 0xEE5 DUP5 DUP3 DUP6 PUSH2 0x16A4 JUMP JUMPDEST POP SWAP4 SWAP3 POP POP POP JUMP JUMPDEST PUSH1 0x0 DUP2 CALLDATALOAD SWAP1 POP PUSH2 0xEFC DUP2 PUSH2 0x19F6 JUMP JUMPDEST SWAP3 SWAP2 POP POP JUMP JUMPDEST PUSH1 0x0 DUP3 PUSH1 0x1F DUP4 ADD SLT PUSH2 0xF17 JUMPI PUSH2 0xF16 PUSH2 0x18B8 JUMP JUMPDEST JUMPDEST DUP2 CALLDATALOAD PUSH2 0xF27 DUP5 DUP3 PUSH1 0x20 DUP7 ADD PUSH2 0xEAB JUMP JUMPDEST SWAP2 POP POP SWAP3 SWAP2 POP POP JUMP JUMPDEST PUSH1 0x0 DUP2 CALLDATALOAD SWAP1 POP PUSH2 0xF3F DUP2 PUSH2 0x1A0D JUMP JUMPDEST SWAP3 SWAP2 POP POP JUMP JUMPDEST PUSH1 0x0 PUSH1 0x20 DUP3 DUP5 SUB SLT ISZERO PUSH2 0xF5B JUMPI PUSH2 0xF5A PUSH2 0x18C7 JUMP JUMPDEST JUMPDEST PUSH1 0x0 PUSH2 0xF69 DUP5 DUP3 DUP6 ADD PUSH2 0xEED JUMP JUMPDEST SWAP2 POP POP SWAP3 SWAP2 POP POP JUMP JUMPDEST PUSH1 0x0 DUP1 PUSH1 0x0 PUSH1 0x60 DUP5 DUP7 SUB SLT ISZERO PUSH2 0xF8B JUMPI PUSH2 0xF8A PUSH2 0x18C7 JUMP JUMPDEST JUMPDEST PUSH1 0x0 DUP5 ADD CALLDATALOAD PUSH8 0xFFFFFFFFFFFFFFFF DUP2 GT ISZERO PUSH2 0xFA9 JUMPI PUSH2 0xFA8 PUSH2 0x18C2 JUMP JUMPDEST JUMPDEST PUSH2 0xFB5 DUP7 DUP3 DUP8 ADD PUSH2 0xF02 JUMP JUMPDEST SWAP4 POP POP PUSH1 0x20 DUP5 ADD CALLDATALOAD PUSH8 0xFFFFFFFFFFFFFFFF DUP2 GT ISZERO PUSH2 0xFD6 JUMPI PUSH2 0xFD5 PUSH2 0x18C2 JUMP JUMPDEST JUMPDEST PUSH2 0xFE2 DUP7 DUP3 DUP8 ADD PUSH2 0xF02 JUMP JUMPDEST SWAP3 POP POP PUSH1 0x40 DUP5 ADD CALLDATALOAD PUSH8 0xFFFFFFFFFFFFFFFF DUP2 GT ISZERO PUSH2 0x1003 JUMPI PUSH2 0x1002 PUSH2 0x18C2 JUMP JUMPDEST JUMPDEST PUSH2 0x100F DUP7 DUP3 DUP8 ADD PUSH2 0xF02 JUMP JUMPDEST SWAP2 POP POP SWAP3 POP SWAP3 POP SWAP3 JUMP JUMPDEST PUSH1 0x0 PUSH1 0x20 DUP3 DUP5 SUB SLT ISZERO PUSH2 0x102F JUMPI PUSH2 0x102E PUSH2 0x18C7 JUMP JUMPDEST JUMPDEST PUSH1 0x0 PUSH2 0x103D DUP5 DUP3 DUP6 ADD PUSH2 0xF30 JUMP JUMPDEST SWAP2 POP POP SWAP3 SWAP2 POP POP JUMP JUMPDEST PUSH1 0x0 PUSH2 0x1052 DUP4 DUP4 PUSH2 0x1233 JUMP JUMPDEST PUSH1 0x20 DUP4 ADD SWAP1 POP SWAP3 SWAP2 POP POP JUMP JUMPDEST PUSH2 0x1067 DUP2 PUSH2 0x1658 JUMP JUMPDEST DUP3 MSTORE POP POP JUMP JUMPDEST PUSH1 0x0 PUSH2 0x1078 DUP3 PUSH2 0x152F JUMP JUMPDEST PUSH2 0x1082 DUP2 DUP6 PUSH2 0x1552 JUMP JUMPDEST SWAP4 POP PUSH2 0x108D DUP4 PUSH2 0x150A JUMP JUMPDEST DUP1 PUSH1 0x0 JUMPDEST DUP4 DUP2 LT ISZERO PUSH2 0x10BE JUMPI DUP2 MLOAD PUSH2 0x10A5 DUP9 DUP3 PUSH2 0x1046 JUMP JUMPDEST SWAP8 POP PUSH2 0x10B0 DUP4 PUSH2 0x1545 JUMP JUMPDEST SWAP3 POP POP PUSH1 0x1 DUP2 ADD SWAP1 POP PUSH2 0x1091 JUMP JUMPDEST POP DUP6 SWAP4 POP POP POP POP SWAP3 SWAP2 POP POP JUMP JUMPDEST PUSH1 0x0 PUSH2 0x10D6 DUP3 PUSH2 0x153A JUMP JUMPDEST PUSH2 0x10E0 DUP2 DUP6 PUSH2 0x1563 JUMP JUMPDEST SWAP4 POP PUSH2 0x10F0 DUP2 DUP6 PUSH1 0x20 DUP7 ADD PUSH2 0x16B3 JUMP JUMPDEST PUSH2 0x10F9 DUP2 PUSH2 0x18CC JUMP JUMPDEST DUP5 ADD SWAP2 POP POP SWAP3 SWAP2 POP POP JUMP JUMPDEST PUSH1 0x0 DUP2 SLOAD PUSH2 0x1111 DUP2 PUSH2 0x16E6 JUMP JUMPDEST PUSH2 0x111B DUP2 DUP7 PUSH2 0x1563 JUMP JUMPDEST SWAP5 POP PUSH1 0x1 DUP3 AND PUSH1 0x0 DUP2 EQ PUSH2 0x1136 JUMPI PUSH1 0x1 DUP2 EQ PUSH2 0x1148 JUMPI PUSH2 0x117B JUMP JUMPDEST PUSH1 0xFF NOT DUP4 AND DUP7 MSTORE PUSH1 0x20 DUP7 ADD SWAP4 POP PUSH2 0x117B JUMP JUMPDEST PUSH2 0x1151 DUP6 PUSH2 0x151A JUMP JUMPDEST PUSH1 0x0 JUMPDEST DUP4 DUP2 LT ISZERO PUSH2 0x1173 JUMPI DUP2 SLOAD DUP2 DUP10 ADD MSTORE PUSH1 0x1 DUP3 ADD SWAP2 POP PUSH1 0x20 DUP2 ADD SWAP1 POP PUSH2 0x1154 JUMP JUMPDEST DUP1 DUP9 ADD SWAP6 POP POP POP JUMPDEST POP POP POP SWAP3 SWAP2 POP POP JUMP JUMPDEST PUSH1 0x0 PUSH2 0x1191 PUSH1 0x28 DUP4 PUSH2 0x1563 JUMP JUMPDEST SWAP2 POP PUSH2 0x119C DUP3 PUSH2 0x18DD JUMP JUMPDEST PUSH1 0x40 DUP3 ADD SWAP1 POP SWAP2 SWAP1 POP JUMP JUMPDEST PUSH1 0x0 PUSH2 0x11B4 PUSH1 0x26 DUP4 PUSH2 0x1563 JUMP JUMPDEST SWAP2 POP PUSH2 0x11BF DUP3 PUSH2 0x192C JUMP JUMPDEST PUSH1 0x40 DUP3 ADD SWAP1 POP SWAP2 SWAP1 POP JUMP JUMPDEST PUSH1 0x0 PUSH2 0x11D7 PUSH1 0xC DUP4 PUSH2 0x1563 JUMP JUMPDEST SWAP2 POP PUSH2 0x11E2 DUP3 PUSH2 0x197B JUMP JUMPDEST PUSH1 0x20 DUP3 ADD SWAP1 POP SWAP2 SWAP1 POP JUMP JUMPDEST PUSH1 0x0 PUSH2 0x11FA PUSH1 0x20 DUP4 PUSH2 0x1563 JUMP JUMPDEST SWAP2 POP PUSH2 0x1205 DUP3 PUSH2 0x19A4 JUMP JUMPDEST PUSH1 0x20 DUP3 ADD SWAP1 POP SWAP2 SWAP1 POP JUMP JUMPDEST PUSH1 0x0 PUSH2 0x121D PUSH1 0x15 DUP4 PUSH2 0x1563 JUMP JUMPDEST SWAP2 POP PUSH2 0x1228 DUP3 PUSH2 0x19CD JUMP JUMPDEST PUSH1 0x20 DUP3 ADD SWAP1 POP SWAP2 SWAP1 POP JUMP JUMPDEST PUSH2 0x123C DUP2 PUSH2 0x168A JUMP JUMPDEST DUP3 MSTORE POP POP JUMP JUMPDEST PUSH2 0x124B DUP2 PUSH2 0x168A JUMP JUMPDEST DUP3 MSTORE POP POP JUMP JUMPDEST PUSH2 0x1262 PUSH2 0x125D DUP3 PUSH2 0x168A JUMP JUMPDEST PUSH2 0x1792 JUMP JUMPDEST DUP3 MSTORE POP POP JUMP JUMPDEST PUSH2 0x1271 DUP2 PUSH2 0x1694 JUMP JUMPDEST DUP3 MSTORE POP POP JUMP JUMPDEST PUSH1 0x0 PUSH2 0x1283 DUP3 DUP7 PUSH2 0x1251 JUMP JUMPDEST PUSH1 0x20 DUP3 ADD SWAP2 POP PUSH2 0x1293 DUP3 DUP6 PUSH2 0x1251 JUMP JUMPDEST PUSH1 0x20 DUP3 ADD SWAP2 POP PUSH2 0x12A3 DUP3 DUP5 PUSH2 0x1251 JUMP JUMPDEST PUSH1 0x20 DUP3 ADD SWAP2 POP DUP2 SWAP1 POP SWAP5 SWAP4 POP POP POP POP JUMP JUMPDEST PUSH1 0x0 PUSH1 0x20 DUP3 ADD SWAP1 POP PUSH2 0x12C9 PUSH1 0x0 DUP4 ADD DUP5 PUSH2 0x105E JUMP JUMPDEST SWAP3 SWAP2 POP POP JUMP JUMPDEST PUSH1 0x0 PUSH2 0x100 DUP3 ADD SWAP1 POP PUSH2 0x12E5 PUSH1 0x0 DUP4 ADD DUP12 PUSH2 0x105E JUMP JUMPDEST DUP2 DUP2 SUB PUSH1 0x20 DUP4 ADD MSTORE PUSH2 0x12F7 DUP2 DUP11 PUSH2 0x10CB JUMP JUMPDEST SWAP1 POP DUP2 DUP2 SUB PUSH1 0x40 DUP4 ADD MSTORE PUSH2 0x130B DUP2 DUP10 PUSH2 0x10CB JUMP JUMPDEST SWAP1 POP DUP2 DUP2 SUB PUSH1 0x60 DUP4 ADD MSTORE PUSH2 0x131F DUP2 DUP9 PUSH2 0x10CB JUMP JUMPDEST SWAP1 POP PUSH2 0x132E PUSH1 0x80 DUP4 ADD DUP8 PUSH2 0x1242 JUMP JUMPDEST PUSH2 0x133B PUSH1 0xA0 DUP4 ADD DUP7 PUSH2 0x1242 JUMP JUMPDEST PUSH2 0x1348 PUSH1 0xC0 DUP4 ADD DUP6 PUSH2 0x1242 JUMP JUMPDEST PUSH2 0x1355 PUSH1 0xE0 DUP4 ADD DUP5 PUSH2 0x1268 JUMP JUMPDEST SWAP10 SWAP9 POP POP POP POP POP POP POP POP POP JUMP JUMPDEST PUSH1 0x0 PUSH1 0x20 DUP3 ADD SWAP1 POP DUP2 DUP2 SUB PUSH1 0x0 DUP4 ADD MSTORE PUSH2 0x137C DUP2 DUP5 PUSH2 0x106D JUMP JUMPDEST SWAP1 POP SWAP3 SWAP2 POP POP JUMP JUMPDEST PUSH1 0x0 PUSH1 0x20 DUP3 ADD SWAP1 POP DUP2 DUP2 SUB PUSH1 0x0 DUP4 ADD MSTORE PUSH2 0x139E DUP2 DUP5 PUSH2 0x10CB JUMP JUMPDEST SWAP1 POP SWAP3 SWAP2 POP POP JUMP JUMPDEST PUSH1 0x0 PUSH1 0x40 DUP3 ADD SWAP1 POP DUP2 DUP2 SUB PUSH1 0x0 DUP4 ADD MSTORE PUSH2 0x13C0 DUP2 DUP6 PUSH2 0x1104 JUMP JUMPDEST SWAP1 POP DUP2 DUP2 SUB PUSH1 0x20 DUP4 ADD MSTORE PUSH2 0x13D4 DUP2 DUP5 PUSH2 0x1104 JUMP JUMPDEST SWAP1 POP SWAP4 SWAP3 POP POP POP JUMP JUMPDEST PUSH1 0x0 PUSH1 0x20 DUP3 ADD SWAP1 POP DUP2 DUP2 SUB PUSH1 0x0 DUP4 ADD MSTORE PUSH2 0x13F6 DUP2 PUSH2 0x1184 JUMP JUMPDEST SWAP1 POP SWAP2 SWAP1 POP JUMP JUMPDEST PUSH1 0x0 PUSH1 0x20 DUP3 ADD SWAP1 POP DUP2 DUP2 SUB PUSH1 0x0 DUP4 ADD MSTORE PUSH2 0x1416 DUP2 PUSH2 0x11A7 JUMP JUMPDEST SWAP1 POP SWAP2 SWAP1 POP JUMP JUMPDEST PUSH1 0x0 PUSH1 0x40 DUP3 ADD SWAP1 POP DUP2 DUP2 SUB PUSH1 0x0 DUP4 ADD MSTORE PUSH2 0x1436 DUP2 PUSH2 0x11CA JUMP JUMPDEST SWAP1 POP PUSH2 0x1445 PUSH1 0x20 DUP4 ADD DUP5 PUSH2 0x1242 JUMP JUMPDEST SWAP3 SWAP2 POP POP JUMP JUMPDEST PUSH1 0x0 PUSH1 0x20 DUP3 ADD SWAP1 POP DUP2 DUP2 SUB PUSH1 0x0 DUP4 ADD MSTORE PUSH2 0x1464 DUP2 PUSH2 0x11ED JUMP JUMPDEST SWAP1 POP SWAP2 SWAP1 POP JUMP JUMPDEST PUSH1 0x0 PUSH1 0x40 DUP3 ADD SWAP1 POP DUP2 DUP2 SUB PUSH1 0x0 DUP4 ADD MSTORE PUSH2 0x1484 DUP2 PUSH2 0x1210 JUMP JUMPDEST SWAP1 POP PUSH2 0x1493 PUSH1 0x20 DUP4 ADD DUP5 PUSH2 0x1242 JUMP JUMPDEST SWAP3 SWAP2 POP POP JUMP JUMPDEST PUSH1 0x0 PUSH1 0x20 DUP3 ADD SWAP1 POP PUSH2 0x14AE PUSH1 0x0 DUP4 ADD DUP5 PUSH2 0x1242 JUMP JUMPDEST SWAP3 SWAP2 POP POP JUMP JUMPDEST PUSH1 0x0 PUSH2 0x14BE PUSH2 0x14CF JUMP JUMPDEST SWAP1 POP PUSH2 0x14CA DUP3 DUP3 PUSH2 0x1718 JUMP JUMPDEST SWAP2 SWAP1 POP JUMP JUMPDEST PUSH1 0x0 PUSH1 0x40 MLOAD SWAP1 POP SWAP1 JUMP JUMPDEST PUSH1 0x0 PUSH8 0xFFFFFFFFFFFFFFFF DUP3 GT ISZERO PUSH2 0x14F4 JUMPI PUSH2 0x14F3 PUSH2 0x1889 JUMP JUMPDEST JUMPDEST PUSH2 0x14FD DUP3 PUSH2 0x18CC JUMP JUMPDEST SWAP1 POP PUSH1 0x20 DUP2 ADD SWAP1 POP SWAP2 SWAP1 POP JUMP JUMPDEST PUSH1 0x0 DUP2 SWAP1 POP PUSH1 0x20 DUP3 ADD SWAP1 POP SWAP2 SWAP1 POP JUMP JUMPDEST PUSH1 0x0 DUP2 SWAP1 POP DUP2 PUSH1 0x0 MSTORE PUSH1 0x20 PUSH1 0x0 KECCAK256 SWAP1 POP SWAP2 SWAP1 POP JUMP JUMPDEST PUSH1 0x0 DUP2 MLOAD SWAP1 POP SWAP2 SWAP1 POP JUMP JUMPDEST PUSH1 0x0 DUP2 MLOAD SWAP1 POP SWAP2 SWAP1 POP JUMP JUMPDEST PUSH1 0x0 PUSH1 0x20 DUP3 ADD SWAP1 POP SWAP2 SWAP1 POP JUMP JUMPDEST PUSH1 0x0 DUP3 DUP3 MSTORE PUSH1 0x20 DUP3 ADD SWAP1 POP SWAP3 SWAP2 POP POP JUMP JUMPDEST PUSH1 0x0 DUP3 DUP3 MSTORE PUSH1 0x20 DUP3 ADD SWAP1 POP SWAP3 SWAP2 POP POP JUMP JUMPDEST PUSH1 0x0 PUSH2 0x157F DUP3 PUSH2 0x168A JUMP JUMPDEST SWAP2 POP PUSH2 0x158A DUP4 PUSH2 0x168A JUMP JUMPDEST SWAP3 POP DUP3 PUSH32 0xFFFFFFFFFFFFFFFFFFFFFFFFFFFFFFFFFFFFFFFFFFFFFFFFFFFFFFFFFFFFFFFF SUB DUP3 GT ISZERO PUSH2 0x15BF JUMPI PUSH2 0x15BE PUSH2 0x17CD JUMP JUMPDEST JUMPDEST DUP3 DUP3 ADD SWAP1 POP SWAP3 SWAP2 POP POP JUMP JUMPDEST PUSH1 0x0 PUSH2 0x15D5 DUP3 PUSH2 0x168A JUMP JUMPDEST SWAP2 POP PUSH2 0x15E0 DUP4 PUSH2 0x168A JUMP JUMPDEST SWAP3 POP DUP2 PUSH32 0xFFFFFFFFFFFFFFFFFFFFFFFFFFFFFFFFFFFFFFFFFFFFFFFFFFFFFFFFFFFFFFFF DIV DUP4 GT DUP3 ISZERO ISZERO AND ISZERO PUSH2 0x1619 JUMPI PUSH2 0x1618 PUSH2 0x17CD JUMP JUMPDEST JUMPDEST DUP3 DUP3 MUL SWAP1 POP SWAP3 SWAP2 POP POP JUMP JUMPDEST PUSH1 0x0 PUSH2 0x162F DUP3 PUSH2 0x168A JUMP JUMPDEST SWAP2 POP PUSH2 0x163A DUP4 PUSH2 0x168A JUMP JUMPDEST SWAP3 POP DUP3 DUP3 LT ISZERO PUSH2 0x164D JUMPI PUSH2 0x164C PUSH2 0x17CD JUMP JUMPDEST JUMPDEST DUP3 DUP3 SUB SWAP1 POP SWAP3 SWAP2 POP POP JUMP JUMPDEST PUSH1 0x0 PUSH2 0x1663 DUP3 PUSH2 0x166A JUMP JUMPDEST SWAP1 POP SWAP2 SWAP1 POP JUMP JUMPDEST PUSH1 0x0 PUSH20 0xFFFFFFFFFFFFFFFFFFFFFFFFFFFFFFFFFFFFFFFF DUP3 AND SWAP1 POP SWAP2 SWAP1 POP JUMP JUMPDEST PUSH1 0x0 DUP2 SWAP1 POP SWAP2 SWAP1 POP JUMP JUMPDEST PUSH1 0x0 PUSH4 0xFFFFFFFF DUP3 AND SWAP1 POP SWAP2 SWAP1 POP JUMP JUMPDEST DUP3 DUP2 DUP4 CALLDATACOPY PUSH1 0x0 DUP4 DUP4 ADD MSTORE POP POP POP JUMP JUMPDEST PUSH1 0x0 JUMPDEST DUP4 DUP2 LT ISZERO PUSH2 0x16D1 JUMPI DUP1 DUP3 ADD MLOAD DUP2 DUP5 ADD MSTORE PUSH1 0x20 DUP2 ADD SWAP1 POP PUSH2 0x16B6 JUMP JUMPDEST DUP4 DUP2 GT ISZERO PUSH2 0x16E0 JUMPI PUSH1 0x0 DUP5 DUP5 ADD MSTORE JUMPDEST POP POP POP POP JUMP JUMPDEST PUSH1 0x0 PUSH1 0x2 DUP3 DIV SWAP1 POP PUSH1 0x1 DUP3 AND DUP1 PUSH2 0x16FE JUMPI PUSH1 0x7F DUP3 AND SWAP2 POP JUMPDEST PUSH1 0x20 DUP3 LT DUP2 EQ ISZERO PUSH2 0x1712 JUMPI PUSH2 0x1711 PUSH2 0x182B JUMP JUMPDEST JUMPDEST POP SWAP2 SWAP1 POP JUMP JUMPDEST PUSH2 0x1721 DUP3 PUSH2 0x18CC JUMP JUMPDEST DUP2 ADD DUP2 DUP2 LT PUSH8 0xFFFFFFFFFFFFFFFF DUP3 GT OR ISZERO PUSH2 0x1740 JUMPI PUSH2 0x173F PUSH2 0x1889 JUMP JUMPDEST JUMPDEST DUP1 PUSH1 0x40 MSTORE POP POP POP JUMP JUMPDEST PUSH1 0x0 PUSH2 0x1754 DUP3 PUSH2 0x168A JUMP JUMPDEST SWAP2 POP PUSH32 0xFFFFFFFFFFFFFFFFFFFFFFFFFFFFFFFFFFFFFFFFFFFFFFFFFFFFFFFFFFFFFFFF DUP3 EQ ISZERO PUSH2 0x1787 JUMPI PUSH2 0x1786 PUSH2 0x17CD JUMP JUMPDEST JUMPDEST PUSH1 0x1 DUP3 ADD SWAP1 POP SWAP2 SWAP1 POP JUMP JUMPDEST PUSH1 0x0 DUP2 SWAP1 POP SWAP2 SWAP1 POP JUMP JUMPDEST PUSH1 0x0 PUSH2 0x17A7 DUP3 PUSH2 0x168A JUMP JUMPDEST SWAP2 POP PUSH2 0x17B2 DUP4 PUSH2 0x168A JUMP JUMPDEST SWAP3 POP DUP3 PUSH2 0x17C2 JUMPI PUSH2 0x17C1 PUSH2 0x17FC JUMP JUMPDEST JUMPDEST DUP3 DUP3 MOD SWAP1 POP SWAP3 SWAP2 POP POP JUMP JUMPDEST PUSH32 0x4E487B7100000000000000000000000000000000000000000000000000000000 PUSH1 0x0 MSTORE PUSH1 0x11 PUSH1 0x4 MSTORE PUSH1 0x24 PUSH1 0x0 REVERT JUMPDEST PUSH32 0x4E487B7100000000000000000000000000000000000000000000000000000000 PUSH1 0x0 MSTORE PUSH1 0x12 PUSH1 0x4 MSTORE PUSH1 0x24 PUSH1 0x0 REVERT JUMPDEST PUSH32 0x4E487B7100000000000000000000000000000000000000000000000000000000 PUSH1 0x0 MSTORE PUSH1 0x22 PUSH1 0x4 MSTORE PUSH1 0x24 PUSH1 0x0 REVERT JUMPDEST PUSH32 0x4E487B7100000000000000000000000000000000000000000000000000000000 PUSH1 0x0 MSTORE PUSH1 0x32 PUSH1 0x4 MSTORE PUSH1 0x24 PUSH1 0x0 REVERT JUMPDEST PUSH32 0x4E487B7100000000000000000000000000000000000000000000000000000000 PUSH1 0x0 MSTORE PUSH1 0x41 PUSH1 0x4 MSTORE PUSH1 0x24 PUSH1 0x0 REVERT JUMPDEST PUSH1 0x0 DUP1 REVERT JUMPDEST PUSH1 0x0 DUP1 REVERT JUMPDEST PUSH1 0x0 DUP1 REVERT JUMPDEST PUSH1 0x0 DUP1 REVERT JUMPDEST PUSH1 0x0 PUSH1 0x1F NOT PUSH1 0x1F DUP4 ADD AND SWAP1 POP SWAP2 SWAP1 POP JUMP JUMPDEST PUSH32 0x536F6C6F2073652070756564652074656E657220756E20636F63686520706F72 PUSH1 0x0 DUP3 ADD MSTORE PUSH32 0x20706572736F6E61000000000000000000000000000000000000000000000000 PUSH1 0x20 DUP3 ADD MSTORE POP JUMP JUMPDEST PUSH32 0x4F776E61626C653A206E6577206F776E657220697320746865207A65726F2061 PUSH1 0x0 DUP3 ADD MSTORE PUSH32 0x6464726573730000000000000000000000000000000000000000000000000000 PUSH1 0x20 DUP3 ADD MSTORE POP JUMP JUMPDEST PUSH32 0x4861732067616E61646F3A200000000000000000000000000000000000000000 PUSH1 0x0 DUP3 ADD MSTORE POP JUMP JUMPDEST PUSH32 0x4F776E61626C653A2063616C6C6572206973206E6F7420746865206F776E6572 PUSH1 0x0 DUP3 ADD MSTORE POP JUMP JUMPDEST PUSH32 0x456C20636F6368652067616E61646F722065733A200000000000000000000000 PUSH1 0x0 DUP3 ADD MSTORE POP JUMP JUMPDEST PUSH2 0x19FF DUP2 PUSH2 0x1658 JUMP JUMPDEST DUP2 EQ PUSH2 0x1A0A JUMPI PUSH1 0x0 DUP1 REVERT JUMPDEST POP JUMP JUMPDEST PUSH2 0x1A16 DUP2 PUSH2 0x168A JUMP JUMPDEST DUP2 EQ PUSH2 0x1A21 JUMPI PUSH1 0x0 DUP1 REVERT JUMPDEST POP JUMP INVALID LOG2 PUSH5 0x6970667358 0x22 SLT KECCAK256 0xD0 DUP15 0xAD 0xC3 SWAP12 0xBC BASEFEE 0xCA XOR PUSH6 0xD038B7725A2D PUSH11 0x31E631EBC3F2D43A86DF46 0xE6 0x5E AND SWAP6 PUSH5 0x736F6C6343 STOP ADDMOD SMOD STOP CALLER "
				},
				"gasEstimates": {
					"creation": {
						"codeDepositCost": "1349200",
						"executionCost": "infinite",
						"totalCost": "infinite"
					},
					"external": {
						"Apostar(uint256)": "infinite",
						"anadirCoche(string,string,string)": "infinite",
						"cocheDePropietario(uint256)": "2839",
						"listaCoches(uint256)": "infinite",
						"numeroCochesPersona(address)": "2815",
						"owner()": "2544",
						"renounceOwnership()": "30441",
						"transferOwnership(address)": "30811",
						"verCochePropietario(address)": "infinite"
					},
					"internal": {
						"_depositoLleno(struct CarreraCoches.Coche storage pointer)": "infinite",
						"_repostando(struct CarreraCoches.Coche storage pointer)": "infinite",
						"balance()": "infinite"
					}
				},
				"methodIdentifiers": {
					"Apostar(uint256)": "6b6f0494",
					"anadirCoche(string,string,string)": "2458c544",
					"cocheDePropietario(uint256)": "858b0554",
					"listaCoches(uint256)": "d735573d",
					"numeroCochesPersona(address)": "1c6743e4",
					"owner()": "8da5cb5b",
					"renounceOwnership()": "715018a6",
					"transferOwnership(address)": "f2fde38b",
					"verCochePropietario(address)": "e172fca8"
				}
			},
			"storageLayout": {
				"storage": [
					{
						"astId": 7,
						"contract": "contracts/CarreraCoches/principal.sol:CarreraCoches",
						"label": "_owner",
						"offset": 0,
						"slot": "0",
						"type": "t_address"
					},
					{
						"astId": 129,
						"contract": "contracts/CarreraCoches/principal.sol:CarreraCoches",
						"label": "randNonce",
						"offset": 0,
						"slot": "1",
						"type": "t_uint256"
					},
					{
						"astId": 132,
						"contract": "contracts/CarreraCoches/principal.sol:CarreraCoches",
						"label": "contador",
						"offset": 0,
						"slot": "2",
						"type": "t_uint256"
					},
					{
						"astId": 135,
						"contract": "contracts/CarreraCoches/principal.sol:CarreraCoches",
						"label": "cooldown",
						"offset": 0,
						"slot": "3",
						"type": "t_uint256"
					},
					{
						"astId": 139,
						"contract": "contracts/CarreraCoches/principal.sol:CarreraCoches",
						"label": "listaCoches",
						"offset": 0,
						"slot": "4",
						"type": "t_array(t_struct(Coche)126_storage)dyn_storage"
					},
					{
						"astId": 163,
						"contract": "contracts/CarreraCoches/principal.sol:CarreraCoches",
						"label": "cocheDePropietario",
						"offset": 0,
						"slot": "5",
						"type": "t_mapping(t_uint256,t_address)"
					},
					{
						"astId": 167,
						"contract": "contracts/CarreraCoches/principal.sol:CarreraCoches",
						"label": "numeroCochesPersona",
						"offset": 0,
						"slot": "6",
						"type": "t_mapping(t_address,t_uint256)"
					}
				],
				"types": {
					"t_address": {
						"encoding": "inplace",
						"label": "address",
						"numberOfBytes": "20"
					},
					"t_array(t_struct(Coche)126_storage)dyn_storage": {
						"base": "t_struct(Coche)126_storage",
						"encoding": "dynamic_array",
						"label": "struct CarreraCoches.Coche[]",
						"numberOfBytes": "32"
					},
					"t_mapping(t_address,t_uint256)": {
						"encoding": "mapping",
						"key": "t_address",
						"label": "mapping(address => uint256)",
						"numberOfBytes": "32",
						"value": "t_uint256"
					},
					"t_mapping(t_uint256,t_address)": {
						"encoding": "mapping",
						"key": "t_uint256",
						"label": "mapping(uint256 => address)",
						"numberOfBytes": "32",
						"value": "t_address"
					},
					"t_string_storage": {
						"encoding": "bytes",
						"label": "string",
						"numberOfBytes": "32"
					},
					"t_struct(Coche)126_storage": {
						"encoding": "inplace",
						"label": "struct CarreraCoches.Coche",
						"members": [
							{
								"astId": 111,
								"contract": "contracts/CarreraCoches/principal.sol:CarreraCoches",
								"label": "idPiloto",
								"offset": 0,
								"slot": "0",
								"type": "t_address"
							},
							{
								"astId": 113,
								"contract": "contracts/CarreraCoches/principal.sol:CarreraCoches",
								"label": "modelo",
								"offset": 0,
								"slot": "1",
								"type": "t_string_storage"
							},
							{
								"astId": 115,
								"contract": "contracts/CarreraCoches/principal.sol:CarreraCoches",
								"label": "marca",
								"offset": 0,
								"slot": "2",
								"type": "t_string_storage"
							},
							{
								"astId": 117,
								"contract": "contracts/CarreraCoches/principal.sol:CarreraCoches",
								"label": "nombrePiloto",
								"offset": 0,
								"slot": "3",
								"type": "t_string_storage"
							},
							{
								"astId": 119,
								"contract": "contracts/CarreraCoches/principal.sol:CarreraCoches",
								"label": "carrerasGanadas",
								"offset": 0,
								"slot": "4",
								"type": "t_uint256"
							},
							{
								"astId": 121,
								"contract": "contracts/CarreraCoches/principal.sol:CarreraCoches",
								"label": "carrerasTotales",
								"offset": 0,
								"slot": "5",
								"type": "t_uint256"
							},
							{
								"astId": 123,
								"contract": "contracts/CarreraCoches/principal.sol:CarreraCoches",
								"label": "tiempoEspera",
								"offset": 0,
								"slot": "6",
								"type": "t_uint256"
							},
							{
								"astId": 125,
								"contract": "contracts/CarreraCoches/principal.sol:CarreraCoches",
								"label": "nivel",
								"offset": 0,
								"slot": "7",
								"type": "t_uint32"
							}
						],
						"numberOfBytes": "256"
					},
					"t_uint256": {
						"encoding": "inplace",
						"label": "uint256",
						"numberOfBytes": "32"
					},
					"t_uint32": {
						"encoding": "inplace",
						"label": "uint32",
						"numberOfBytes": "4"
					}
				}
			},
			"userdoc": {
				"kind": "user",
				"methods": {},
				"version": 1
			}
		}
	}
}