{
	"contracts/CarreraCoches/cocheToken.sol": {
		"CocheToken": {
			"abi": [
				{
					"anonymous": false,
					"inputs": [
						{
							"indexed": true,
							"internalType": "address",
							"name": "_owner",
							"type": "address"
						},
						{
							"indexed": true,
							"internalType": "address",
							"name": "_approved",
							"type": "address"
						},
						{
							"indexed": false,
							"internalType": "uint256",
							"name": "_tokenId",
							"type": "uint256"
						}
					],
					"name": "Approval",
					"type": "event"
				},
				{
					"anonymous": false,
					"inputs": [
						{
							"indexed": true,
							"internalType": "address",
							"name": "previousOwner",
							"type": "address"
						},
						{
							"indexed": true,
							"internalType": "address",
							"name": "newOwner",
							"type": "address"
						}
					],
					"name": "OwnershipTransferred",
					"type": "event"
				},
				{
					"anonymous": false,
					"inputs": [
						{
							"indexed": true,
							"internalType": "address",
							"name": "_from",
							"type": "address"
						},
						{
							"indexed": true,
							"internalType": "address",
							"name": "_to",
							"type": "address"
						},
						{
							"indexed": false,
							"internalType": "uint256",
							"name": "_tokenId",
							"type": "uint256"
						}
					],
					"name": "Transfer",
					"type": "event"
				},
				{
					"anonymous": false,
					"inputs": [
						{
							"indexed": false,
							"internalType": "string",
							"name": "mo",
							"type": "string"
						},
						{
							"indexed": false,
							"internalType": "string",
							"name": "ma",
							"type": "string"
						},
						{
							"indexed": false,
							"internalType": "uint32",
							"name": "niv",
							"type": "uint32"
						},
						{
							"indexed": false,
							"internalType": "uint256",
							"name": "carrGan",
							"type": "uint256"
						},
						{
							"indexed": false,
							"internalType": "uint256",
							"name": "carrTot",
							"type": "uint256"
						}
					],
					"name": "cochePropietario",
					"type": "event"
				},
				{
					"anonymous": false,
					"inputs": [
						{
							"indexed": false,
							"internalType": "uint256",
							"name": "compr",
							"type": "uint256"
						}
					],
					"name": "comprobar",
					"type": "event"
				},
				{
					"anonymous": false,
					"inputs": [
						{
							"indexed": false,
							"internalType": "string",
							"name": "ms",
							"type": "string"
						}
					],
					"name": "confirmacionDepositoLleno",
					"type": "event"
				},
				{
					"anonymous": false,
					"inputs": [
						{
							"indexed": false,
							"internalType": "string",
							"name": "ms",
							"type": "string"
						},
						{
							"indexed": false,
							"internalType": "uint256",
							"name": "res",
							"type": "uint256"
						}
					],
					"name": "mostrarResultado",
					"type": "event"
				},
				{
					"inputs": [
						{
							"internalType": "uint256",
							"name": "dineroApostar",
							"type": "uint256"
						}
					],
					"name": "Apostar",
					"outputs": [
						{
							"internalType": "string",
							"name": "",
							"type": "string"
						}
					],
					"stateMutability": "payable",
					"type": "function"
				},
				{
					"inputs": [],
					"name": "_owner",
					"outputs": [
						{
							"internalType": "address",
							"name": "",
							"type": "address"
						}
					],
					"stateMutability": "view",
					"type": "function"
				},
				{
					"inputs": [
						{
							"internalType": "string",
							"name": "_modelo",
							"type": "string"
						},
						{
							"internalType": "string",
							"name": "_marca",
							"type": "string"
						},
						{
							"internalType": "string",
							"name": "_nombrePiloto",
							"type": "string"
						}
					],
					"name": "anadirCoche",
					"outputs": [
						{
							"internalType": "uint256",
							"name": "",
							"type": "uint256"
						}
					],
					"stateMutability": "nonpayable",
					"type": "function"
				},
				{
					"inputs": [
						{
							"internalType": "address",
							"name": "_to",
							"type": "address"
						},
						{
							"internalType": "uint256",
							"name": "_tokenId",
							"type": "uint256"
						}
					],
					"name": "approve",
					"outputs": [],
					"stateMutability": "nonpayable",
					"type": "function"
				},
				{
					"inputs": [
						{
							"internalType": "address",
							"name": "_owner",
							"type": "address"
						}
					],
					"name": "balanceOf",
					"outputs": [
						{
							"internalType": "uint256",
							"name": "_balance",
							"type": "uint256"
						}
					],
					"stateMutability": "view",
					"type": "function"
				},
				{
					"inputs": [
						{
							"internalType": "address",
							"name": "_from",
							"type": "address"
						}
					],
					"name": "borrarCoche",
					"outputs": [],
					"stateMutability": "nonpayable",
					"type": "function"
				},
				{
					"inputs": [
						{
							"internalType": "uint256",
							"name": "",
							"type": "uint256"
						}
					],
					"name": "cocheDePropietario",
					"outputs": [
						{
							"internalType": "address",
							"name": "",
							"type": "address"
						}
					],
					"stateMutability": "view",
					"type": "function"
				},
				{
					"inputs": [
						{
							"internalType": "address",
							"name": "_address",
							"type": "address"
						},
						{
							"internalType": "string",
							"name": "_newModelo",
							"type": "string"
						},
						{
							"internalType": "string",
							"name": "_newMarca",
							"type": "string"
						}
					],
					"name": "comprarCoche",
					"outputs": [
						{
							"internalType": "string",
							"name": "",
							"type": "string"
						}
					],
					"stateMutability": "payable",
					"type": "function"
				},
				{
					"inputs": [
						{
							"internalType": "uint256",
							"name": "",
							"type": "uint256"
						}
					],
					"name": "listaCoches",
					"outputs": [
						{
							"internalType": "address",
							"name": "idPiloto",
							"type": "address"
						},
						{
							"internalType": "string",
							"name": "modelo",
							"type": "string"
						},
						{
							"internalType": "string",
							"name": "marca",
							"type": "string"
						},
						{
							"internalType": "string",
							"name": "nombrePiloto",
							"type": "string"
						},
						{
							"internalType": "uint256",
							"name": "carrerasGanadas",
							"type": "uint256"
						},
						{
							"internalType": "uint256",
							"name": "carrerasTotales",
							"type": "uint256"
						},
						{
							"internalType": "uint256",
							"name": "tiempoEspera",
							"type": "uint256"
						},
						{
							"internalType": "uint32",
							"name": "nivel",
							"type": "uint32"
						}
					],
					"stateMutability": "view",
					"type": "function"
				},
				{
					"inputs": [
						{
							"internalType": "address",
							"name": "",
							"type": "address"
						}
					],
					"name": "numeroCochesPersona",
					"outputs": [
						{
							"internalType": "uint256",
							"name": "",
							"type": "uint256"
						}
					],
					"stateMutability": "view",
					"type": "function"
				},
				{
					"inputs": [],
					"name": "owner",
					"outputs": [
						{
							"internalType": "address",
							"name": "",
							"type": "address"
						}
					],
					"stateMutability": "view",
					"type": "function"
				},
				{
					"inputs": [
						{
							"internalType": "uint256",
							"name": "_tokenId",
							"type": "uint256"
						}
					],
					"name": "ownerOf",
					"outputs": [
						{
							"internalType": "address",
							"name": "_owner",
							"type": "address"
						}
					],
					"stateMutability": "view",
					"type": "function"
				},
				{
					"inputs": [],
					"name": "renounceOwnership",
					"outputs": [],
					"stateMutability": "nonpayable",
					"type": "function"
				},
				{
					"inputs": [
						{
							"internalType": "address",
							"name": "_propietario",
							"type": "address"
						}
					],
					"name": "subirDeNivel",
					"outputs": [
						{
							"internalType": "string",
							"name": "",
							"type": "string"
						}
					],
					"stateMutability": "payable",
					"type": "function"
				},
				{
					"inputs": [
						{
							"internalType": "uint256",
							"name": "_tokenId",
							"type": "uint256"
						}
					],
					"name": "takeOwnership",
					"outputs": [],
					"stateMutability": "nonpayable",
					"type": "function"
				},
				{
					"inputs": [
						{
							"internalType": "address",
							"name": "_to",
							"type": "address"
						},
						{
							"internalType": "uint256",
							"name": "_tokenId",
							"type": "uint256"
						}
					],
					"name": "transfer",
					"outputs": [],
					"stateMutability": "nonpayable",
					"type": "function"
				},
				{
					"inputs": [
						{
							"internalType": "address",
							"name": "newOwner",
							"type": "address"
						}
					],
					"name": "transferOwnership",
					"outputs": [],
					"stateMutability": "nonpayable",
					"type": "function"
				},
				{
					"inputs": [
						{
							"internalType": "address",
							"name": "_propietario",
							"type": "address"
						}
					],
					"name": "verCochePropietario",
					"outputs": [],
					"stateMutability": "nonpayable",
					"type": "function"
				}
			],
			"devdoc": {
				"kind": "dev",
				"methods": {
					"owner()": {
						"details": "Returns the address of the current owner."
					},
					"renounceOwnership()": {
						"details": "Leaves the contract without owner. It will not be possible to call `onlyOwner` functions anymore. Can only be called by the current owner. NOTE: Renouncing ownership will leave the contract without an owner, thereby removing any functionality that is only available to the owner."
					},
					"transferOwnership(address)": {
						"details": "Transfers ownership of the contract to a new account (`newOwner`). Can only be called by the current owner."
					}
				},
				"version": 1
			},
			"evm": {
				"assembly": "    /* \"contracts/CarreraCoches/cocheToken.sol\":80:3352  contract CocheToken is CarreraCoches, ERC721 {\r... */\n  mstore(0x40, 0x80)\n    /* \"contracts/CarreraCoches/principal.sol\":518:519  0 */\n  0x00\n    /* \"contracts/CarreraCoches/principal.sol\":501:519  uint randNonce = 0 */\n  0x01\n  sstore\n    /* \"contracts/CarreraCoches/principal.sol\":642:643  0 */\n  0x00\n    /* \"contracts/CarreraCoches/principal.sol\":626:643  uint contador = 0 */\n  0x02\n  sstore\n    /* \"contracts/CarreraCoches/principal.sol\":666:676  60 seconds */\n  0x3c\n    /* \"contracts/CarreraCoches/principal.sol\":650:676  uint cooldown = 60 seconds */\n  0x03\n  sstore\n    /* \"contracts/CarreraCoches/principal.sol\":701:708  1 ether */\n  0x0de0b6b3a7640000\n    /* \"contracts/CarreraCoches/principal.sol\":683:708  uint subirNivel = 1 ether */\n  0x04\n  sstore\n    /* \"contracts/CarreraCoches/principal.sol\":736:743  2 ether */\n  0x1bc16d674ec80000\n    /* \"contracts/CarreraCoches/principal.sol\":715:743  uint cambiarCocheV = 2 ether */\n  0x05\n  sstore\n    /* \"contracts/CarreraCoches/cocheToken.sol\":80:3352  contract CocheToken is CarreraCoches, ERC721 {\r... */\n  callvalue\n  dup1\n  iszero\n  tag_1\n  jumpi\n  0x00\n  dup1\n  revert\ntag_1:\n  pop\n    /* \"contracts/CarreraCoches/ownable.sol\":947:979  _transferOwnership(_msgSender()) */\n  tag_4\n    /* \"contracts/CarreraCoches/ownable.sol\":966:978  _msgSender() */\n  tag_5\n    /* \"contracts/CarreraCoches/ownable.sol\":966:976  _msgSender */\n  shl(0x20, tag_6)\n    /* \"contracts/CarreraCoches/ownable.sol\":966:978  _msgSender() */\n  0x20\n  shr\n  jump\t// in\ntag_5:\n    /* \"contracts/CarreraCoches/ownable.sol\":947:965  _transferOwnership */\n  shl(0x20, tag_7)\n    /* \"contracts/CarreraCoches/ownable.sol\":947:979  _transferOwnership(_msgSender()) */\n  0x20\n  shr\n  jump\t// in\ntag_4:\n    /* \"contracts/CarreraCoches/cocheToken.sol\":80:3352  contract CocheToken is CarreraCoches, ERC721 {\r... */\n  jump(tag_8)\n    /* \"contracts/CarreraCoches/utils/Context.sol\":656:754  function _msgSender() internal view virtual returns (address) {\r... */\ntag_6:\n    /* \"contracts/CarreraCoches/utils/Context.sol\":709:716  address */\n  0x00\n    /* \"contracts/CarreraCoches/utils/Context.sol\":736:746  msg.sender */\n  caller\n    /* \"contracts/CarreraCoches/utils/Context.sol\":729:746  return msg.sender */\n  swap1\n  pop\n    /* \"contracts/CarreraCoches/utils/Context.sol\":656:754  function _msgSender() internal view virtual returns (address) {\r... */\n  swap1\n  jump\t// out\n    /* \"contracts/CarreraCoches/ownable.sol\":2338:2529  function _transferOwnership(address newOwner) internal virtual {\r... */\ntag_7:\n    /* \"contracts/CarreraCoches/ownable.sol\":2412:2428  address oldOwner */\n  0x00\n    /* \"contracts/CarreraCoches/ownable.sol\":2431:2437  _owner */\n  dup1\n  0x00\n  swap1\n  sload\n  swap1\n  0x0100\n  exp\n  swap1\n  div\n  0xffffffffffffffffffffffffffffffffffffffff\n  and\n    /* \"contracts/CarreraCoches/ownable.sol\":2412:2437  address oldOwner = _owner */\n  swap1\n  pop\n    /* \"contracts/CarreraCoches/ownable.sol\":2457:2465  newOwner */\n  dup2\n    /* \"contracts/CarreraCoches/ownable.sol\":2448:2454  _owner */\n  0x00\n  dup1\n    /* \"contracts/CarreraCoches/ownable.sol\":2448:2465  _owner = newOwner */\n  0x0100\n  exp\n  dup2\n  sload\n  dup2\n  0xffffffffffffffffffffffffffffffffffffffff\n  mul\n  not\n  and\n  swap1\n  dup4\n  0xffffffffffffffffffffffffffffffffffffffff\n  and\n  mul\n  or\n  swap1\n  sstore\n  pop\n    /* \"contracts/CarreraCoches/ownable.sol\":2512:2520  newOwner */\n  dup2\n    /* \"contracts/CarreraCoches/ownable.sol\":2481:2521  OwnershipTransferred(oldOwner, newOwner) */\n  0xffffffffffffffffffffffffffffffffffffffff\n  and\n    /* \"contracts/CarreraCoches/ownable.sol\":2502:2510  oldOwner */\n  dup2\n    /* \"contracts/CarreraCoches/ownable.sol\":2481:2521  OwnershipTransferred(oldOwner, newOwner) */\n  0xffffffffffffffffffffffffffffffffffffffff\n  and\n  0x8be0079c531659141344cd1fd0a4f28419497f9722a3daafe3b4186f6b6457e0\n  mload(0x40)\n  mload(0x40)\n  dup1\n  swap2\n  sub\n  swap1\n  log3\n    /* \"contracts/CarreraCoches/ownable.sol\":2401:2529  {\r... */\n  pop\n    /* \"contracts/CarreraCoches/ownable.sol\":2338:2529  function _transferOwnership(address newOwner) internal virtual {\r... */\n  pop\n  jump\t// out\n    /* \"contracts/CarreraCoches/cocheToken.sol\":80:3352  contract CocheToken is CarreraCoches, ERC721 {\r... */\ntag_8:\n  dataSize(sub_0)\n  dup1\n  dataOffset(sub_0)\n  0x00\n  codecopy\n  0x00\n  return\nstop\n\nsub_0: assembly {\n        /* \"contracts/CarreraCoches/cocheToken.sol\":80:3352  contract CocheToken is CarreraCoches, ERC721 {\r... */\n      mstore(0x40, 0x80)\n      jumpi(tag_1, lt(calldatasize, 0x04))\n      shr(0xe0, calldataload(0x00))\n      dup1\n      0x715018a6\n      gt\n      tag_20\n      jumpi\n      dup1\n      0xb2bdfa7b\n      gt\n      tag_21\n      jumpi\n      dup1\n      0xb2bdfa7b\n      eq\n      tag_15\n      jumpi\n      dup1\n      0xb2e6ceeb\n      eq\n      tag_16\n      jumpi\n      dup1\n      0xd735573d\n      eq\n      tag_17\n      jumpi\n      dup1\n      0xe172fca8\n      eq\n      tag_18\n      jumpi\n      dup1\n      0xf2fde38b\n      eq\n      tag_19\n      jumpi\n      jump(tag_1)\n    tag_21:\n      dup1\n      0x715018a6\n      eq\n      tag_11\n      jumpi\n      dup1\n      0x858b0554\n      eq\n      tag_12\n      jumpi\n      dup1\n      0x8da5cb5b\n      eq\n      tag_13\n      jumpi\n      dup1\n      0xa9059cbb\n      eq\n      tag_14\n      jumpi\n      jump(tag_1)\n    tag_20:\n      dup1\n      0x2458c544\n      gt\n      tag_22\n      jumpi\n      dup1\n      0x2458c544\n      eq\n      tag_6\n      jumpi\n      dup1\n      0x6352211e\n      eq\n      tag_7\n      jumpi\n      dup1\n      0x6a7d1816\n      eq\n      tag_8\n      jumpi\n      dup1\n      0x6b6f0494\n      eq\n      tag_9\n      jumpi\n      dup1\n      0x70a08231\n      eq\n      tag_10\n      jumpi\n      jump(tag_1)\n    tag_22:\n      dup1\n      0x049a5f65\n      eq\n      tag_2\n      jumpi\n      dup1\n      0x095ea7b3\n      eq\n      tag_3\n      jumpi\n      dup1\n      0x17bde7a9\n      eq\n      tag_4\n      jumpi\n      dup1\n      0x1c6743e4\n      eq\n      tag_5\n      jumpi\n    tag_1:\n      0x00\n      dup1\n      revert\n        /* \"contracts/CarreraCoches/principal.sol\":3372:3834  function comprarCoche(address _address, string memory _newModelo, string memory _newMarca) external payable returns(string memory) {\r... */\n    tag_2:\n      tag_23\n      0x04\n      dup1\n      calldatasize\n      sub\n      dup2\n      add\n      swap1\n      tag_24\n      swap2\n      swap1\n      tag_25\n      jump\t// in\n    tag_24:\n      tag_26\n      jump\t// in\n    tag_23:\n      mload(0x40)\n      tag_27\n      swap2\n      swap1\n      tag_28\n      jump\t// in\n    tag_27:\n      mload(0x40)\n      dup1\n      swap2\n      sub\n      swap1\n      return\n        /* \"contracts/CarreraCoches/cocheToken.sol\":918:1112  function approve(address _to, uint256 _tokenId) public override onlyOwnerOf(_tokenId) {\r... */\n    tag_3:\n      callvalue\n      dup1\n      iszero\n      tag_29\n      jumpi\n      0x00\n      dup1\n      revert\n    tag_29:\n      pop\n      tag_30\n      0x04\n      dup1\n      calldatasize\n      sub\n      dup2\n      add\n      swap1\n      tag_31\n      swap2\n      swap1\n      tag_32\n      jump\t// in\n    tag_31:\n      tag_33\n      jump\t// in\n    tag_30:\n      stop\n        /* \"contracts/CarreraCoches/cocheToken.sol\":1364:1583  function borrarCoche(address _from) public {\r... */\n    tag_4:\n      callvalue\n      dup1\n      iszero\n      tag_34\n      jumpi\n      0x00\n      dup1\n      revert\n    tag_34:\n      pop\n      tag_35\n      0x04\n      dup1\n      calldatasize\n      sub\n      dup2\n      add\n      swap1\n      tag_36\n      swap2\n      swap1\n      tag_37\n      jump\t// in\n    tag_36:\n      tag_38\n      jump\t// in\n    tag_35:\n      stop\n        /* \"contracts/CarreraCoches/principal.sol\":1077:1129  mapping (address => uint) public numeroCochesPersona */\n    tag_5:\n      callvalue\n      dup1\n      iszero\n      tag_39\n      jumpi\n      0x00\n      dup1\n      revert\n    tag_39:\n      pop\n      tag_40\n      0x04\n      dup1\n      calldatasize\n      sub\n      dup2\n      add\n      swap1\n      tag_41\n      swap2\n      swap1\n      tag_37\n      jump\t// in\n    tag_41:\n      tag_42\n      jump\t// in\n    tag_40:\n      mload(0x40)\n      tag_43\n      swap2\n      swap1\n      tag_44\n      jump\t// in\n    tag_43:\n      mload(0x40)\n      dup1\n      swap2\n      sub\n      swap1\n      return\n        /* \"contracts/CarreraCoches/principal.sol\":1701:2141  function anadirCoche(string memory _modelo, string memory _marca, string memory _nombrePiloto) public restriccion returns (uint) {\r... */\n    tag_6:\n      callvalue\n      dup1\n      iszero\n      tag_45\n      jumpi\n      0x00\n      dup1\n      revert\n    tag_45:\n      pop\n      tag_46\n      0x04\n      dup1\n      calldatasize\n      sub\n      dup2\n      add\n      swap1\n      tag_47\n      swap2\n      swap1\n      tag_48\n      jump\t// in\n    tag_47:\n      tag_49\n      jump\t// in\n    tag_46:\n      mload(0x40)\n      tag_50\n      swap2\n      swap1\n      tag_44\n      jump\t// in\n    tag_50:\n      mload(0x40)\n      dup1\n      swap2\n      sub\n      swap1\n      return\n        /* \"contracts/CarreraCoches/cocheToken.sol\":339:474  function ownerOf(uint256 _tokenId) public override view returns (address _owner) {\r... */\n    tag_7:\n      callvalue\n      dup1\n      iszero\n      tag_51\n      jumpi\n      0x00\n      dup1\n      revert\n    tag_51:\n      pop\n      tag_52\n      0x04\n      dup1\n      calldatasize\n      sub\n      dup2\n      add\n      swap1\n      tag_53\n      swap2\n      swap1\n      tag_54\n      jump\t// in\n    tag_53:\n      tag_55\n      jump\t// in\n    tag_52:\n      mload(0x40)\n      tag_56\n      swap2\n      swap1\n      tag_57\n      jump\t// in\n    tag_56:\n      mload(0x40)\n      dup1\n      swap2\n      sub\n      swap1\n      return\n        /* \"contracts/CarreraCoches/principal.sol\":2510:2869  function subirDeNivel(address _propietario) external payable returns(string memory) {\r... */\n    tag_8:\n      tag_58\n      0x04\n      dup1\n      calldatasize\n      sub\n      dup2\n      add\n      swap1\n      tag_59\n      swap2\n      swap1\n      tag_37\n      jump\t// in\n    tag_59:\n      tag_60\n      jump\t// in\n    tag_58:\n      mload(0x40)\n      tag_61\n      swap2\n      swap1\n      tag_28\n      jump\t// in\n    tag_61:\n      mload(0x40)\n      dup1\n      swap2\n      sub\n      swap1\n      return\n        /* \"contracts/CarreraCoches/principal.sol\":3892:7238  function Apostar(uint dineroApostar) public payable returns(string memory) {\r... */\n    tag_9:\n      tag_62\n      0x04\n      dup1\n      calldatasize\n      sub\n      dup2\n      add\n      swap1\n      tag_63\n      swap2\n      swap1\n      tag_54\n      jump\t// in\n    tag_63:\n      tag_64\n      jump\t// in\n    tag_62:\n      mload(0x40)\n      tag_65\n      swap2\n      swap1\n      tag_28\n      jump\t// in\n    tag_65:\n      mload(0x40)\n      dup1\n      swap2\n      sub\n      swap1\n      return\n        /* \"contracts/CarreraCoches/cocheToken.sol\":195:331  function balanceOf(address _owner) public override view returns (uint256 _balance) {\r... */\n    tag_10:\n      callvalue\n      dup1\n      iszero\n      tag_66\n      jumpi\n      0x00\n      dup1\n      revert\n    tag_66:\n      pop\n      tag_67\n      0x04\n      dup1\n      calldatasize\n      sub\n      dup2\n      add\n      swap1\n      tag_68\n      swap2\n      swap1\n      tag_37\n      jump\t// in\n    tag_68:\n      tag_69\n      jump\t// in\n    tag_67:\n      mload(0x40)\n      tag_70\n      swap2\n      swap1\n      tag_44\n      jump\t// in\n    tag_70:\n      mload(0x40)\n      dup1\n      swap2\n      sub\n      swap1\n      return\n        /* \"contracts/CarreraCoches/ownable.sol\":1719:1822  function renounceOwnership() public virtual onlyOwner {\r... */\n    tag_11:\n      callvalue\n      dup1\n      iszero\n      tag_71\n      jumpi\n      0x00\n      dup1\n      revert\n    tag_71:\n      pop\n      tag_72\n      tag_73\n      jump\t// in\n    tag_72:\n      stop\n        /* \"contracts/CarreraCoches/principal.sol\":1019:1070  mapping (uint => address) public cocheDePropietario */\n    tag_12:\n      callvalue\n      dup1\n      iszero\n      tag_74\n      jumpi\n      0x00\n      dup1\n      revert\n    tag_74:\n      pop\n      tag_75\n      0x04\n      dup1\n      calldatasize\n      sub\n      dup2\n      add\n      swap1\n      tag_76\n      swap2\n      swap1\n      tag_54\n      jump\t// in\n    tag_76:\n      tag_77\n      jump\t// in\n    tag_75:\n      mload(0x40)\n      tag_78\n      swap2\n      swap1\n      tag_57\n      jump\t// in\n    tag_78:\n      mload(0x40)\n      dup1\n      swap2\n      sub\n      swap1\n      return\n        /* \"contracts/CarreraCoches/ownable.sol\":1068:1155  function owner() public view virtual returns (address) {\r... */\n    tag_13:\n      callvalue\n      dup1\n      iszero\n      tag_79\n      jumpi\n      0x00\n      dup1\n      revert\n    tag_79:\n      pop\n      tag_80\n      tag_81\n      jump\t// in\n    tag_80:\n      mload(0x40)\n      tag_82\n      swap2\n      swap1\n      tag_57\n      jump\t// in\n    tag_82:\n      mload(0x40)\n      dup1\n      swap2\n      sub\n      swap1\n      return\n        /* \"contracts/CarreraCoches/cocheToken.sol\":768:910  function transfer(address _to, uint256 _tokenId) public override onlyOwnerOf(_tokenId) {\r... */\n    tag_14:\n      callvalue\n      dup1\n      iszero\n      tag_83\n      jumpi\n      0x00\n      dup1\n      revert\n    tag_83:\n      pop\n      tag_84\n      0x04\n      dup1\n      calldatasize\n      sub\n      dup2\n      add\n      swap1\n      tag_85\n      swap2\n      swap1\n      tag_32\n      jump\t// in\n    tag_85:\n      tag_86\n      jump\t// in\n    tag_84:\n      stop\n        /* \"contracts/CarreraCoches/ownable.sol\":701:722  address public _owner */\n    tag_15:\n      callvalue\n      dup1\n      iszero\n      tag_87\n      jumpi\n      0x00\n      dup1\n      revert\n    tag_87:\n      pop\n      tag_88\n      tag_89\n      jump\t// in\n    tag_88:\n      mload(0x40)\n      tag_90\n      swap2\n      swap1\n      tag_57\n      jump\t// in\n    tag_90:\n      mload(0x40)\n      dup1\n      swap2\n      sub\n      swap1\n      return\n        /* \"contracts/CarreraCoches/cocheToken.sol\":1120:1356  function takeOwnership(uint256 _tokenId) public override {\r... */\n    tag_16:\n      callvalue\n      dup1\n      iszero\n      tag_91\n      jumpi\n      0x00\n      dup1\n      revert\n    tag_91:\n      pop\n      tag_92\n      0x04\n      dup1\n      calldatasize\n      sub\n      dup2\n      add\n      swap1\n      tag_93\n      swap2\n      swap1\n      tag_54\n      jump\t// in\n    tag_93:\n      tag_94\n      jump\t// in\n    tag_92:\n      stop\n        /* \"contracts/CarreraCoches/principal.sol\":752:778  Coche[] public listaCoches */\n    tag_17:\n      callvalue\n      dup1\n      iszero\n      tag_95\n      jumpi\n      0x00\n      dup1\n      revert\n    tag_95:\n      pop\n      tag_96\n      0x04\n      dup1\n      calldatasize\n      sub\n      dup2\n      add\n      swap1\n      tag_97\n      swap2\n      swap1\n      tag_54\n      jump\t// in\n    tag_97:\n      tag_98\n      jump\t// in\n    tag_96:\n      mload(0x40)\n      tag_99\n      swap9\n      swap8\n      swap7\n      swap6\n      swap5\n      swap4\n      swap3\n      swap2\n      swap1\n      tag_100\n      jump\t// in\n    tag_99:\n      mload(0x40)\n      dup1\n      swap2\n      sub\n      swap1\n      return\n        /* \"contracts/CarreraCoches/principal.sol\":2913:3289  function verCochePropietario(address _propietario) external {\r... */\n    tag_18:\n      callvalue\n      dup1\n      iszero\n      tag_101\n      jumpi\n      0x00\n      dup1\n      revert\n    tag_101:\n      pop\n      tag_102\n      0x04\n      dup1\n      calldatasize\n      sub\n      dup2\n      add\n      swap1\n      tag_103\n      swap2\n      swap1\n      tag_37\n      jump\t// in\n    tag_103:\n      tag_104\n      jump\t// in\n    tag_102:\n      stop\n        /* \"contracts/CarreraCoches/ownable.sol\":1977:2178  function transferOwnership(address newOwner) public virtual onlyOwner {\r... */\n    tag_19:\n      callvalue\n      dup1\n      iszero\n      tag_105\n      jumpi\n      0x00\n      dup1\n      revert\n    tag_105:\n      pop\n      tag_106\n      0x04\n      dup1\n      calldatasize\n      sub\n      dup2\n      add\n      swap1\n      tag_107\n      swap2\n      swap1\n      tag_37\n      jump\t// in\n    tag_107:\n      tag_108\n      jump\t// in\n    tag_106:\n      stop\n        /* \"contracts/CarreraCoches/principal.sol\":3372:3834  function comprarCoche(address _address, string memory _newModelo, string memory _newMarca) external payable returns(string memory) {\r... */\n    tag_26:\n        /* \"contracts/CarreraCoches/principal.sol\":3488:3501  string memory */\n      0x60\n        /* \"contracts/CarreraCoches/principal.sol\":3534:3542  _address */\n      dup4\n        /* \"contracts/CarreraCoches/principal.sol\":3522:3542  msg.sender==_address */\n      0xffffffffffffffffffffffffffffffffffffffff\n      and\n        /* \"contracts/CarreraCoches/principal.sol\":3522:3532  msg.sender */\n      caller\n        /* \"contracts/CarreraCoches/principal.sol\":3522:3542  msg.sender==_address */\n      0xffffffffffffffffffffffffffffffffffffffff\n      and\n      eq\n        /* \"contracts/CarreraCoches/principal.sol\":3514:3543  require(msg.sender==_address) */\n      tag_110\n      jumpi\n      0x00\n      dup1\n      revert\n    tag_110:\n        /* \"contracts/CarreraCoches/principal.sol\":3573:3586  cambiarCocheV */\n      sload(0x05)\n        /* \"contracts/CarreraCoches/principal.sol\":3562:3571  msg.value */\n      callvalue\n        /* \"contracts/CarreraCoches/principal.sol\":3562:3586  msg.value==cambiarCocheV */\n      eq\n        /* \"contracts/CarreraCoches/principal.sol\":3554:3587  require(msg.value==cambiarCocheV) */\n      tag_111\n      jumpi\n      0x00\n      dup1\n      revert\n    tag_111:\n        /* \"contracts/CarreraCoches/principal.sol\":3602:3608  uint i */\n      0x00\n        /* \"contracts/CarreraCoches/principal.sol\":3598:3827  for(uint i = 0; i < listaCoches.length; i++){\r... */\n    tag_112:\n        /* \"contracts/CarreraCoches/principal.sol\":3618:3629  listaCoches */\n      0x06\n        /* \"contracts/CarreraCoches/principal.sol\":3618:3636  listaCoches.length */\n      dup1\n      sload\n      swap1\n      pop\n        /* \"contracts/CarreraCoches/principal.sol\":3614:3615  i */\n      dup2\n        /* \"contracts/CarreraCoches/principal.sol\":3614:3636  i < listaCoches.length */\n      lt\n        /* \"contracts/CarreraCoches/principal.sol\":3598:3827  for(uint i = 0; i < listaCoches.length; i++){\r... */\n      iszero\n      tag_113\n      jumpi\n        /* \"contracts/CarreraCoches/principal.sol\":3685:3695  msg.sender */\n      caller\n        /* \"contracts/CarreraCoches/principal.sol\":3660:3695  listaCoches[i].idPiloto==msg.sender */\n      0xffffffffffffffffffffffffffffffffffffffff\n      and\n        /* \"contracts/CarreraCoches/principal.sol\":3660:3671  listaCoches */\n      0x06\n        /* \"contracts/CarreraCoches/principal.sol\":3672:3673  i */\n      dup3\n        /* \"contracts/CarreraCoches/principal.sol\":3660:3674  listaCoches[i] */\n      dup2\n      sload\n      dup2\n      lt\n      tag_115\n      jumpi\n      tag_116\n      tag_117\n      jump\t// in\n    tag_116:\n    tag_115:\n      swap1\n      0x00\n      mstore\n      keccak256(0x00, 0x20)\n      swap1\n      0x08\n      mul\n      add\n        /* \"contracts/CarreraCoches/principal.sol\":3660:3683  listaCoches[i].idPiloto */\n      0x00\n      add\n      0x00\n      swap1\n      sload\n      swap1\n      0x0100\n      exp\n      swap1\n      div\n      0xffffffffffffffffffffffffffffffffffffffff\n      and\n        /* \"contracts/CarreraCoches/principal.sol\":3660:3695  listaCoches[i].idPiloto==msg.sender */\n      0xffffffffffffffffffffffffffffffffffffffff\n      and\n      eq\n        /* \"contracts/CarreraCoches/principal.sol\":3657:3816  if(listaCoches[i].idPiloto==msg.sender){\r... */\n      iszero\n      tag_119\n      jumpi\n        /* \"contracts/CarreraCoches/principal.sol\":3739:3749  _newModelo */\n      dup4\n        /* \"contracts/CarreraCoches/principal.sol\":3715:3726  listaCoches */\n      0x06\n        /* \"contracts/CarreraCoches/principal.sol\":3727:3728  i */\n      dup3\n        /* \"contracts/CarreraCoches/principal.sol\":3715:3729  listaCoches[i] */\n      dup2\n      sload\n      dup2\n      lt\n      tag_120\n      jumpi\n      tag_121\n      tag_117\n      jump\t// in\n    tag_121:\n    tag_120:\n      swap1\n      0x00\n      mstore\n      keccak256(0x00, 0x20)\n      swap1\n      0x08\n      mul\n      add\n        /* \"contracts/CarreraCoches/principal.sol\":3715:3736  listaCoches[i].modelo */\n      0x01\n      add\n        /* \"contracts/CarreraCoches/principal.sol\":3715:3749  listaCoches[i].modelo = _newModelo */\n      swap1\n      dup1\n      mload\n      swap1\n      0x20\n      add\n      swap1\n      tag_123\n      swap3\n      swap2\n      swap1\n      tag_124\n      jump\t// in\n    tag_123:\n      pop\n        /* \"contracts/CarreraCoches/principal.sol\":3791:3800  _newMarca */\n      dup3\n        /* \"contracts/CarreraCoches/principal.sol\":3768:3779  listaCoches */\n      0x06\n        /* \"contracts/CarreraCoches/principal.sol\":3780:3781  i */\n      dup3\n        /* \"contracts/CarreraCoches/principal.sol\":3768:3782  listaCoches[i] */\n      dup2\n      sload\n      dup2\n      lt\n      tag_125\n      jumpi\n      tag_126\n      tag_117\n      jump\t// in\n    tag_126:\n    tag_125:\n      swap1\n      0x00\n      mstore\n      keccak256(0x00, 0x20)\n      swap1\n      0x08\n      mul\n      add\n        /* \"contracts/CarreraCoches/principal.sol\":3768:3788  listaCoches[i].marca */\n      0x02\n      add\n        /* \"contracts/CarreraCoches/principal.sol\":3768:3800  listaCoches[i].marca = _newMarca */\n      swap1\n      dup1\n      mload\n      swap1\n      0x20\n      add\n      swap1\n      tag_128\n      swap3\n      swap2\n      swap1\n      tag_124\n      jump\t// in\n    tag_128:\n      pop\n        /* \"contracts/CarreraCoches/principal.sol\":3657:3816  if(listaCoches[i].idPiloto==msg.sender){\r... */\n    tag_119:\n        /* \"contracts/CarreraCoches/principal.sol\":3638:3641  i++ */\n      dup1\n      dup1\n      tag_129\n      swap1\n      tag_130\n      jump\t// in\n    tag_129:\n      swap2\n      pop\n      pop\n        /* \"contracts/CarreraCoches/principal.sol\":3598:3827  for(uint i = 0; i < listaCoches.length; i++){\r... */\n      jump(tag_112)\n    tag_113:\n      pop\n        /* \"contracts/CarreraCoches/principal.sol\":3372:3834  function comprarCoche(address _address, string memory _newModelo, string memory _newMarca) external payable returns(string memory) {\r... */\n      swap4\n      swap3\n      pop\n      pop\n      pop\n      jump\t// out\n        /* \"contracts/CarreraCoches/cocheToken.sol\":918:1112  function approve(address _to, uint256 _tokenId) public override onlyOwnerOf(_tokenId) {\r... */\n    tag_33:\n        /* \"contracts/CarreraCoches/cocheToken.sol\":994:1002  _tokenId */\n      dup1\n        /* \"contracts/CarreraCoches/principal.sol\":1401:1419  cocheDePropietario */\n      0x07\n        /* \"contracts/CarreraCoches/principal.sol\":1401:1427  cocheDePropietario[_coche] */\n      0x00\n        /* \"contracts/CarreraCoches/principal.sol\":1420:1426  _coche */\n      dup3\n        /* \"contracts/CarreraCoches/principal.sol\":1401:1427  cocheDePropietario[_coche] */\n      dup2\n      mstore\n      0x20\n      add\n      swap1\n      dup2\n      mstore\n      0x20\n      add\n      0x00\n      keccak256\n      0x00\n      swap1\n      sload\n      swap1\n      0x0100\n      exp\n      swap1\n      div\n      0xffffffffffffffffffffffffffffffffffffffff\n      and\n        /* \"contracts/CarreraCoches/principal.sol\":1387:1427  msg.sender == cocheDePropietario[_coche] */\n      0xffffffffffffffffffffffffffffffffffffffff\n      and\n        /* \"contracts/CarreraCoches/principal.sol\":1387:1397  msg.sender */\n      caller\n        /* \"contracts/CarreraCoches/principal.sol\":1387:1427  msg.sender == cocheDePropietario[_coche] */\n      0xffffffffffffffffffffffffffffffffffffffff\n      and\n      eq\n        /* \"contracts/CarreraCoches/principal.sol\":1379:1428  require(msg.sender == cocheDePropietario[_coche]) */\n      tag_132\n      jumpi\n      0x00\n      dup1\n      revert\n    tag_132:\n        /* \"contracts/CarreraCoches/cocheToken.sol\":1050:1053  _to */\n      dup3\n        /* \"contracts/CarreraCoches/cocheToken.sol\":1015:1037  confirmarTransferencia */\n      0x09\n        /* \"contracts/CarreraCoches/cocheToken.sol\":1015:1047  confirmarTransferencia[_tokenId] */\n      0x00\n        /* \"contracts/CarreraCoches/cocheToken.sol\":1038:1046  _tokenId */\n      dup5\n        /* \"contracts/CarreraCoches/cocheToken.sol\":1015:1047  confirmarTransferencia[_tokenId] */\n      dup2\n      mstore\n      0x20\n      add\n      swap1\n      dup2\n      mstore\n      0x20\n      add\n      0x00\n      keccak256\n      0x00\n        /* \"contracts/CarreraCoches/cocheToken.sol\":1015:1053  confirmarTransferencia[_tokenId] = _to */\n      0x0100\n      exp\n      dup2\n      sload\n      dup2\n      0xffffffffffffffffffffffffffffffffffffffff\n      mul\n      not\n      and\n      swap1\n      dup4\n      0xffffffffffffffffffffffffffffffffffffffff\n      and\n      mul\n      or\n      swap1\n      sstore\n      pop\n        /* \"contracts/CarreraCoches/cocheToken.sol\":1090:1093  _to */\n      dup3\n        /* \"contracts/CarreraCoches/cocheToken.sol\":1069:1104  Approval(msg.sender, _to, _tokenId) */\n      0xffffffffffffffffffffffffffffffffffffffff\n      and\n        /* \"contracts/CarreraCoches/cocheToken.sol\":1078:1088  msg.sender */\n      caller\n        /* \"contracts/CarreraCoches/cocheToken.sol\":1069:1104  Approval(msg.sender, _to, _tokenId) */\n      0xffffffffffffffffffffffffffffffffffffffff\n      and\n      0x8c5be1e5ebec7d5bd14f71427d1e84f3dd0314c0f7b2291e5b200ac8c7c3b925\n        /* \"contracts/CarreraCoches/cocheToken.sol\":1095:1103  _tokenId */\n      dup5\n        /* \"contracts/CarreraCoches/cocheToken.sol\":1069:1104  Approval(msg.sender, _to, _tokenId) */\n      mload(0x40)\n      tag_134\n      swap2\n      swap1\n      tag_44\n      jump\t// in\n    tag_134:\n      mload(0x40)\n      dup1\n      swap2\n      sub\n      swap1\n      log3\n        /* \"contracts/CarreraCoches/cocheToken.sol\":918:1112  function approve(address _to, uint256 _tokenId) public override onlyOwnerOf(_tokenId) {\r... */\n      pop\n      pop\n      pop\n      jump\t// out\n        /* \"contracts/CarreraCoches/cocheToken.sol\":1364:1583  function borrarCoche(address _from) public {\r... */\n    tag_38:\n        /* \"contracts/CarreraCoches/cocheToken.sol\":1422:1428  uint i */\n      0x00\n        /* \"contracts/CarreraCoches/cocheToken.sol\":1418:1576  for(uint i = 0; i < listaCoches.length; i++){\r... */\n    tag_136:\n        /* \"contracts/CarreraCoches/cocheToken.sol\":1438:1449  listaCoches */\n      0x06\n        /* \"contracts/CarreraCoches/cocheToken.sol\":1438:1456  listaCoches.length */\n      dup1\n      sload\n      swap1\n      pop\n        /* \"contracts/CarreraCoches/cocheToken.sol\":1434:1435  i */\n      dup2\n        /* \"contracts/CarreraCoches/cocheToken.sol\":1434:1456  i < listaCoches.length */\n      lt\n        /* \"contracts/CarreraCoches/cocheToken.sol\":1418:1576  for(uint i = 0; i < listaCoches.length; i++){\r... */\n      iszero\n      tag_137\n      jumpi\n        /* \"contracts/CarreraCoches/cocheToken.sol\":1507:1512  _from */\n      dup2\n        /* \"contracts/CarreraCoches/cocheToken.sol\":1480:1512  listaCoches[i].idPiloto == _from */\n      0xffffffffffffffffffffffffffffffffffffffff\n      and\n        /* \"contracts/CarreraCoches/cocheToken.sol\":1480:1491  listaCoches */\n      0x06\n        /* \"contracts/CarreraCoches/cocheToken.sol\":1492:1493  i */\n      dup3\n        /* \"contracts/CarreraCoches/cocheToken.sol\":1480:1494  listaCoches[i] */\n      dup2\n      sload\n      dup2\n      lt\n      tag_139\n      jumpi\n      tag_140\n      tag_117\n      jump\t// in\n    tag_140:\n    tag_139:\n      swap1\n      0x00\n      mstore\n      keccak256(0x00, 0x20)\n      swap1\n      0x08\n      mul\n      add\n        /* \"contracts/CarreraCoches/cocheToken.sol\":1480:1503  listaCoches[i].idPiloto */\n      0x00\n      add\n      0x00\n      swap1\n      sload\n      swap1\n      0x0100\n      exp\n      swap1\n      div\n      0xffffffffffffffffffffffffffffffffffffffff\n      and\n        /* \"contracts/CarreraCoches/cocheToken.sol\":1480:1512  listaCoches[i].idPiloto == _from */\n      0xffffffffffffffffffffffffffffffffffffffff\n      and\n      eq\n        /* \"contracts/CarreraCoches/cocheToken.sol\":1477:1565  if(listaCoches[i].idPiloto == _from){\r... */\n      iszero\n      tag_142\n      jumpi\n        /* \"contracts/CarreraCoches/cocheToken.sol\":1532:1543  listaCoches */\n      0x06\n        /* \"contracts/CarreraCoches/cocheToken.sol\":1532:1549  listaCoches.pop() */\n      dup1\n      sload\n      dup1\n      tag_143\n      jumpi\n      tag_144\n      tag_145\n      jump\t// in\n    tag_144:\n    tag_143:\n      0x01\n      swap1\n      sub\n      dup2\n      dup2\n      swap1\n      0x00\n      mstore\n      keccak256(0x00, 0x20)\n      swap1\n      0x08\n      mul\n      add\n      0x00\n      dup1\n      dup3\n      add\n      exp(0x0100, 0x00)\n      dup2\n      sload\n      swap1\n      0xffffffffffffffffffffffffffffffffffffffff\n      mul\n      not\n      and\n      swap1\n      sstore\n      0x01\n      dup3\n      add\n      0x00\n      tag_147\n      swap2\n      swap1\n      tag_148\n      jump\t// in\n    tag_147:\n      0x02\n      dup3\n      add\n      0x00\n      tag_149\n      swap2\n      swap1\n      tag_148\n      jump\t// in\n    tag_149:\n      0x03\n      dup3\n      add\n      0x00\n      tag_150\n      swap2\n      swap1\n      tag_148\n      jump\t// in\n    tag_150:\n      0x04\n      dup3\n      add\n      0x00\n      swap1\n      sstore\n      0x05\n      dup3\n      add\n      0x00\n      swap1\n      sstore\n      0x06\n      dup3\n      add\n      0x00\n      swap1\n      sstore\n      0x07\n      dup3\n      add\n      exp(0x0100, 0x00)\n      dup2\n      sload\n      swap1\n      0xffffffff\n      mul\n      not\n      and\n      swap1\n      sstore\n      pop\n      pop\n      swap1\n      sstore\n        /* \"contracts/CarreraCoches/cocheToken.sol\":1477:1565  if(listaCoches[i].idPiloto == _from){\r... */\n    tag_142:\n        /* \"contracts/CarreraCoches/cocheToken.sol\":1458:1461  i++ */\n      dup1\n      dup1\n      tag_151\n      swap1\n      tag_130\n      jump\t// in\n    tag_151:\n      swap2\n      pop\n      pop\n        /* \"contracts/CarreraCoches/cocheToken.sol\":1418:1576  for(uint i = 0; i < listaCoches.length; i++){\r... */\n      jump(tag_136)\n    tag_137:\n      pop\n        /* \"contracts/CarreraCoches/cocheToken.sol\":1364:1583  function borrarCoche(address _from) public {\r... */\n      pop\n      jump\t// out\n        /* \"contracts/CarreraCoches/principal.sol\":1077:1129  mapping (address => uint) public numeroCochesPersona */\n    tag_42:\n      mstore(0x20, 0x08)\n      dup1\n      0x00\n      mstore\n      keccak256(0x00, 0x40)\n      0x00\n      swap2\n      pop\n      swap1\n      pop\n      sload\n      dup2\n      jump\t// out\n        /* \"contracts/CarreraCoches/principal.sol\":1701:2141  function anadirCoche(string memory _modelo, string memory _marca, string memory _nombrePiloto) public restriccion returns (uint) {\r... */\n    tag_49:\n        /* \"contracts/CarreraCoches/principal.sol\":1824:1828  uint */\n      0x00\n        /* \"contracts/CarreraCoches/principal.sol\":1261:1262  1 */\n      0x01\n        /* \"contracts/CarreraCoches/principal.sol\":1227:1246  numeroCochesPersona */\n      0x08\n        /* \"contracts/CarreraCoches/principal.sol\":1227:1258  numeroCochesPersona[msg.sender] */\n      0x00\n        /* \"contracts/CarreraCoches/principal.sol\":1247:1257  msg.sender */\n      caller\n        /* \"contracts/CarreraCoches/principal.sol\":1227:1258  numeroCochesPersona[msg.sender] */\n      0xffffffffffffffffffffffffffffffffffffffff\n      and\n      0xffffffffffffffffffffffffffffffffffffffff\n      and\n      dup2\n      mstore\n      0x20\n      add\n      swap1\n      dup2\n      mstore\n      0x20\n      add\n      0x00\n      keccak256\n      sload\n        /* \"contracts/CarreraCoches/principal.sol\":1227:1262  numeroCochesPersona[msg.sender] < 1 */\n      lt\n        /* \"contracts/CarreraCoches/principal.sol\":1219:1307  require(numeroCochesPersona[msg.sender] < 1, \"Solo se puede tener un coche por persona\") */\n      tag_153\n      jumpi\n      mload(0x40)\n      0x08c379a000000000000000000000000000000000000000000000000000000000\n      dup2\n      mstore\n      0x04\n      add\n      tag_154\n      swap1\n      tag_155\n      jump\t// in\n    tag_154:\n      mload(0x40)\n      dup1\n      swap2\n      sub\n      swap1\n      revert\n    tag_153:\n        /* \"contracts/CarreraCoches/principal.sol\":1841:1852  listaCoches */\n      0x06\n        /* \"contracts/CarreraCoches/principal.sol\":1858:1952  Coche(msg.sender, _modelo, _marca, _nombrePiloto, 0, 0, uint32(block.timestamp + cooldown), 1) */\n      mload(0x40)\n      dup1\n      0x0100\n      add\n      0x40\n      mstore\n      dup1\n        /* \"contracts/CarreraCoches/principal.sol\":1864:1874  msg.sender */\n      caller\n        /* \"contracts/CarreraCoches/principal.sol\":1858:1952  Coche(msg.sender, _modelo, _marca, _nombrePiloto, 0, 0, uint32(block.timestamp + cooldown), 1) */\n      0xffffffffffffffffffffffffffffffffffffffff\n      and\n      dup2\n      mstore\n      0x20\n      add\n        /* \"contracts/CarreraCoches/principal.sol\":1876:1883  _modelo */\n      dup7\n        /* \"contracts/CarreraCoches/principal.sol\":1858:1952  Coche(msg.sender, _modelo, _marca, _nombrePiloto, 0, 0, uint32(block.timestamp + cooldown), 1) */\n      dup2\n      mstore\n      0x20\n      add\n        /* \"contracts/CarreraCoches/principal.sol\":1885:1891  _marca */\n      dup6\n        /* \"contracts/CarreraCoches/principal.sol\":1858:1952  Coche(msg.sender, _modelo, _marca, _nombrePiloto, 0, 0, uint32(block.timestamp + cooldown), 1) */\n      dup2\n      mstore\n      0x20\n      add\n        /* \"contracts/CarreraCoches/principal.sol\":1893:1906  _nombrePiloto */\n      dup5\n        /* \"contracts/CarreraCoches/principal.sol\":1858:1952  Coche(msg.sender, _modelo, _marca, _nombrePiloto, 0, 0, uint32(block.timestamp + cooldown), 1) */\n      dup2\n      mstore\n      0x20\n      add\n        /* \"contracts/CarreraCoches/principal.sol\":1908:1909  0 */\n      0x00\n        /* \"contracts/CarreraCoches/principal.sol\":1858:1952  Coche(msg.sender, _modelo, _marca, _nombrePiloto, 0, 0, uint32(block.timestamp + cooldown), 1) */\n      dup2\n      mstore\n      0x20\n      add\n        /* \"contracts/CarreraCoches/principal.sol\":1911:1912  0 */\n      0x00\n        /* \"contracts/CarreraCoches/principal.sol\":1858:1952  Coche(msg.sender, _modelo, _marca, _nombrePiloto, 0, 0, uint32(block.timestamp + cooldown), 1) */\n      dup2\n      mstore\n      0x20\n      add\n        /* \"contracts/CarreraCoches/principal.sol\":1939:1947  cooldown */\n      sload(0x03)\n        /* \"contracts/CarreraCoches/principal.sol\":1921:1936  block.timestamp */\n      timestamp\n        /* \"contracts/CarreraCoches/principal.sol\":1921:1947  block.timestamp + cooldown */\n      tag_157\n      swap2\n      swap1\n      tag_158\n      jump\t// in\n    tag_157:\n        /* \"contracts/CarreraCoches/principal.sol\":1858:1952  Coche(msg.sender, _modelo, _marca, _nombrePiloto, 0, 0, uint32(block.timestamp + cooldown), 1) */\n      0xffffffff\n      and\n      dup2\n      mstore\n      0x20\n      add\n        /* \"contracts/CarreraCoches/principal.sol\":1950:1951  1 */\n      0x01\n        /* \"contracts/CarreraCoches/principal.sol\":1858:1952  Coche(msg.sender, _modelo, _marca, _nombrePiloto, 0, 0, uint32(block.timestamp + cooldown), 1) */\n      0xffffffff\n      and\n      dup2\n      mstore\n      pop\n        /* \"contracts/CarreraCoches/principal.sol\":1841:1953  listaCoches.push(Coche(msg.sender, _modelo, _marca, _nombrePiloto, 0, 0, uint32(block.timestamp + cooldown), 1)) */\n      swap1\n      dup1\n      0x01\n      dup2\n      sload\n      add\n      dup1\n      dup3\n      sstore\n      dup1\n      swap2\n      pop\n      pop\n      0x01\n      swap1\n      sub\n      swap1\n      0x00\n      mstore\n      keccak256(0x00, 0x20)\n      swap1\n      0x08\n      mul\n      add\n      0x00\n      swap1\n      swap2\n      swap1\n      swap2\n      swap1\n      swap2\n      pop\n      0x00\n      dup3\n      add\n      mload\n      dup2\n      0x00\n      add\n      exp(0x0100, 0x00)\n      dup2\n      sload\n      dup2\n      0xffffffffffffffffffffffffffffffffffffffff\n      mul\n      not\n      and\n      swap1\n      dup4\n      0xffffffffffffffffffffffffffffffffffffffff\n      and\n      mul\n      or\n      swap1\n      sstore\n      pop\n      0x20\n      dup3\n      add\n      mload\n      dup2\n      0x01\n      add\n      swap1\n      dup1\n      mload\n      swap1\n      0x20\n      add\n      swap1\n      tag_160\n      swap3\n      swap2\n      swap1\n      tag_124\n      jump\t// in\n    tag_160:\n      pop\n      0x40\n      dup3\n      add\n      mload\n      dup2\n      0x02\n      add\n      swap1\n      dup1\n      mload\n      swap1\n      0x20\n      add\n      swap1\n      tag_161\n      swap3\n      swap2\n      swap1\n      tag_124\n      jump\t// in\n    tag_161:\n      pop\n      0x60\n      dup3\n      add\n      mload\n      dup2\n      0x03\n      add\n      swap1\n      dup1\n      mload\n      swap1\n      0x20\n      add\n      swap1\n      tag_162\n      swap3\n      swap2\n      swap1\n      tag_124\n      jump\t// in\n    tag_162:\n      pop\n      0x80\n      dup3\n      add\n      mload\n      dup2\n      0x04\n      add\n      sstore\n      0xa0\n      dup3\n      add\n      mload\n      dup2\n      0x05\n      add\n      sstore\n      0xc0\n      dup3\n      add\n      mload\n      dup2\n      0x06\n      add\n      sstore\n      0xe0\n      dup3\n      add\n      mload\n      dup2\n      0x07\n      add\n      exp(0x0100, 0x00)\n      dup2\n      sload\n      dup2\n      0xffffffff\n      mul\n      not\n      and\n      swap1\n      dup4\n      0xffffffff\n      and\n      mul\n      or\n      swap1\n      sstore\n      pop\n      pop\n      pop\n        /* \"contracts/CarreraCoches/principal.sol\":1964:1971  uint id */\n      0x00\n        /* \"contracts/CarreraCoches/principal.sol\":1974:1985  listaCoches */\n      0x06\n        /* \"contracts/CarreraCoches/principal.sol\":1974:1992  listaCoches.length */\n      dup1\n      sload\n      swap1\n      pop\n        /* \"contracts/CarreraCoches/principal.sol\":1964:1992  uint id = listaCoches.length */\n      swap1\n      pop\n        /* \"contracts/CarreraCoches/principal.sol\":2028:2038  msg.sender */\n      caller\n        /* \"contracts/CarreraCoches/principal.sol\":2003:2021  cocheDePropietario */\n      0x07\n        /* \"contracts/CarreraCoches/principal.sol\":2003:2025  cocheDePropietario[id] */\n      0x00\n        /* \"contracts/CarreraCoches/principal.sol\":2022:2024  id */\n      dup4\n        /* \"contracts/CarreraCoches/principal.sol\":2003:2025  cocheDePropietario[id] */\n      dup2\n      mstore\n      0x20\n      add\n      swap1\n      dup2\n      mstore\n      0x20\n      add\n      0x00\n      keccak256\n      0x00\n        /* \"contracts/CarreraCoches/principal.sol\":2003:2038  cocheDePropietario[id] = msg.sender */\n      0x0100\n      exp\n      dup2\n      sload\n      dup2\n      0xffffffffffffffffffffffffffffffffffffffff\n      mul\n      not\n      and\n      swap1\n      dup4\n      0xffffffffffffffffffffffffffffffffffffffff\n      and\n      mul\n      or\n      swap1\n      sstore\n      pop\n        /* \"contracts/CarreraCoches/principal.sol\":2049:2068  numeroCochesPersona */\n      0x08\n        /* \"contracts/CarreraCoches/principal.sol\":2049:2080  numeroCochesPersona[msg.sender] */\n      0x00\n        /* \"contracts/CarreraCoches/principal.sol\":2069:2079  msg.sender */\n      caller\n        /* \"contracts/CarreraCoches/principal.sol\":2049:2080  numeroCochesPersona[msg.sender] */\n      0xffffffffffffffffffffffffffffffffffffffff\n      and\n      0xffffffffffffffffffffffffffffffffffffffff\n      and\n      dup2\n      mstore\n      0x20\n      add\n      swap1\n      dup2\n      mstore\n      0x20\n      add\n      0x00\n      keccak256\n      0x00\n        /* \"contracts/CarreraCoches/principal.sol\":2049:2082  numeroCochesPersona[msg.sender]++ */\n      dup2\n      sload\n      dup1\n      swap3\n      swap2\n      swap1\n      tag_163\n      swap1\n      tag_130\n      jump\t// in\n    tag_163:\n      swap2\n      swap1\n      pop\n      sstore\n      pop\n        /* \"contracts/CarreraCoches/principal.sol\":2093:2101  contador */\n      0x02\n      0x00\n        /* \"contracts/CarreraCoches/principal.sol\":2093:2103  contador++ */\n      dup2\n      sload\n      dup1\n      swap3\n      swap2\n      swap1\n      tag_164\n      swap1\n      tag_130\n      jump\t// in\n    tag_164:\n      swap2\n      swap1\n      pop\n      sstore\n      pop\n        /* \"contracts/CarreraCoches/principal.sol\":2132:2133  1 */\n      0x01\n        /* \"contracts/CarreraCoches/principal.sol\":2121:2129  contador */\n      sload(0x02)\n        /* \"contracts/CarreraCoches/principal.sol\":2121:2133  contador - 1 */\n      tag_165\n      swap2\n      swap1\n      tag_166\n      jump\t// in\n    tag_165:\n        /* \"contracts/CarreraCoches/principal.sol\":2114:2133  return contador - 1 */\n      swap2\n      pop\n      pop\n        /* \"contracts/CarreraCoches/principal.sol\":1701:2141  function anadirCoche(string memory _modelo, string memory _marca, string memory _nombrePiloto) public restriccion returns (uint) {\r... */\n      swap4\n      swap3\n      pop\n      pop\n      pop\n      jump\t// out\n        /* \"contracts/CarreraCoches/cocheToken.sol\":339:474  function ownerOf(uint256 _tokenId) public override view returns (address _owner) {\r... */\n    tag_55:\n        /* \"contracts/CarreraCoches/cocheToken.sol\":404:418  address _owner */\n      0x00\n        /* \"contracts/CarreraCoches/cocheToken.sol\":438:456  cocheDePropietario */\n      0x07\n        /* \"contracts/CarreraCoches/cocheToken.sol\":438:466  cocheDePropietario[_tokenId] */\n      0x00\n        /* \"contracts/CarreraCoches/cocheToken.sol\":457:465  _tokenId */\n      dup4\n        /* \"contracts/CarreraCoches/cocheToken.sol\":438:466  cocheDePropietario[_tokenId] */\n      dup2\n      mstore\n      0x20\n      add\n      swap1\n      dup2\n      mstore\n      0x20\n      add\n      0x00\n      keccak256\n      0x00\n      swap1\n      sload\n      swap1\n      0x0100\n      exp\n      swap1\n      div\n      0xffffffffffffffffffffffffffffffffffffffff\n      and\n        /* \"contracts/CarreraCoches/cocheToken.sol\":431:466  return cocheDePropietario[_tokenId] */\n      swap1\n      pop\n        /* \"contracts/CarreraCoches/cocheToken.sol\":339:474  function ownerOf(uint256 _tokenId) public override view returns (address _owner) {\r... */\n      swap2\n      swap1\n      pop\n      jump\t// out\n        /* \"contracts/CarreraCoches/principal.sol\":2510:2869  function subirDeNivel(address _propietario) external payable returns(string memory) {\r... */\n    tag_60:\n        /* \"contracts/CarreraCoches/principal.sol\":2579:2592  string memory */\n      0x60\n        /* \"contracts/CarreraCoches/principal.sol\":2624:2634  subirNivel */\n      sload(0x04)\n        /* \"contracts/CarreraCoches/principal.sol\":2613:2622  msg.value */\n      callvalue\n        /* \"contracts/CarreraCoches/principal.sol\":2613:2634  msg.value==subirNivel */\n      eq\n        /* \"contracts/CarreraCoches/principal.sol\":2605:2635  require(msg.value==subirNivel) */\n      tag_169\n      jumpi\n      0x00\n      dup1\n      revert\n    tag_169:\n        /* \"contracts/CarreraCoches/principal.sol\":2650:2656  uint i */\n      0x00\n        /* \"contracts/CarreraCoches/principal.sol\":2646:2862  for(uint i = 0; i < listaCoches.length; i++){\r... */\n    tag_170:\n        /* \"contracts/CarreraCoches/principal.sol\":2666:2677  listaCoches */\n      0x06\n        /* \"contracts/CarreraCoches/principal.sol\":2666:2684  listaCoches.length */\n      dup1\n      sload\n      swap1\n      pop\n        /* \"contracts/CarreraCoches/principal.sol\":2662:2663  i */\n      dup2\n        /* \"contracts/CarreraCoches/principal.sol\":2662:2684  i < listaCoches.length */\n      lt\n        /* \"contracts/CarreraCoches/principal.sol\":2646:2862  for(uint i = 0; i < listaCoches.length; i++){\r... */\n      iszero\n      tag_171\n      jumpi\n        /* \"contracts/CarreraCoches/principal.sol\":2735:2747  _propietario */\n      dup3\n        /* \"contracts/CarreraCoches/principal.sol\":2708:2747  listaCoches[i].idPiloto == _propietario */\n      0xffffffffffffffffffffffffffffffffffffffff\n      and\n        /* \"contracts/CarreraCoches/principal.sol\":2708:2719  listaCoches */\n      0x06\n        /* \"contracts/CarreraCoches/principal.sol\":2720:2721  i */\n      dup3\n        /* \"contracts/CarreraCoches/principal.sol\":2708:2722  listaCoches[i] */\n      dup2\n      sload\n      dup2\n      lt\n      tag_173\n      jumpi\n      tag_174\n      tag_117\n      jump\t// in\n    tag_174:\n    tag_173:\n      swap1\n      0x00\n      mstore\n      keccak256(0x00, 0x20)\n      swap1\n      0x08\n      mul\n      add\n        /* \"contracts/CarreraCoches/principal.sol\":2708:2731  listaCoches[i].idPiloto */\n      0x00\n      add\n      0x00\n      swap1\n      sload\n      swap1\n      0x0100\n      exp\n      swap1\n      div\n      0xffffffffffffffffffffffffffffffffffffffff\n      and\n        /* \"contracts/CarreraCoches/principal.sol\":2708:2747  listaCoches[i].idPiloto == _propietario */\n      0xffffffffffffffffffffffffffffffffffffffff\n      and\n      eq\n        /* \"contracts/CarreraCoches/principal.sol\":2705:2851  if(listaCoches[i].idPiloto == _propietario){\r... */\n      iszero\n      tag_176\n      jumpi\n        /* \"contracts/CarreraCoches/principal.sol\":2767:2778  listaCoches */\n      0x06\n        /* \"contracts/CarreraCoches/principal.sol\":2779:2780  i */\n      dup2\n        /* \"contracts/CarreraCoches/principal.sol\":2767:2781  listaCoches[i] */\n      dup2\n      sload\n      dup2\n      lt\n      tag_177\n      jumpi\n      tag_178\n      tag_117\n      jump\t// in\n    tag_178:\n    tag_177:\n      swap1\n      0x00\n      mstore\n      keccak256(0x00, 0x20)\n      swap1\n      0x08\n      mul\n      add\n        /* \"contracts/CarreraCoches/principal.sol\":2767:2787  listaCoches[i].nivel */\n      0x07\n      add\n      0x00\n        /* \"contracts/CarreraCoches/principal.sol\":2767:2789  listaCoches[i].nivel++ */\n      dup2\n      dup2\n      swap1\n      sload\n      swap1\n      0x0100\n      exp\n      swap1\n      div\n      0xffffffff\n      and\n      dup1\n      swap3\n      swap2\n      swap1\n      tag_180\n      swap1\n      tag_181\n      jump\t// in\n    tag_180:\n      swap2\n      swap1\n      0x0100\n      exp\n      dup2\n      sload\n      dup2\n      0xffffffff\n      mul\n      not\n      and\n      swap1\n      dup4\n      0xffffffff\n      and\n      mul\n      or\n      swap1\n      sstore\n      pop\n      pop\n        /* \"contracts/CarreraCoches/principal.sol\":2808:2835  return \"Ha subido de nivel\" */\n      mload(0x40)\n      dup1\n      0x40\n      add\n      0x40\n      mstore\n      dup1\n      0x12\n      dup2\n      mstore\n      0x20\n      add\n      0x48612073756269646f206465206e6976656c0000000000000000000000000000\n      dup2\n      mstore\n      pop\n      swap2\n      pop\n      pop\n      jump(tag_168)\n        /* \"contracts/CarreraCoches/principal.sol\":2705:2851  if(listaCoches[i].idPiloto == _propietario){\r... */\n    tag_176:\n        /* \"contracts/CarreraCoches/principal.sol\":2686:2689  i++ */\n      dup1\n      dup1\n      tag_182\n      swap1\n      tag_130\n      jump\t// in\n    tag_182:\n      swap2\n      pop\n      pop\n        /* \"contracts/CarreraCoches/principal.sol\":2646:2862  for(uint i = 0; i < listaCoches.length; i++){\r... */\n      jump(tag_170)\n    tag_171:\n      pop\n        /* \"contracts/CarreraCoches/principal.sol\":2510:2869  function subirDeNivel(address _propietario) external payable returns(string memory) {\r... */\n    tag_168:\n      swap2\n      swap1\n      pop\n      jump\t// out\n        /* \"contracts/CarreraCoches/principal.sol\":3892:7238  function Apostar(uint dineroApostar) public payable returns(string memory) {\r... */\n    tag_64:\n        /* \"contracts/CarreraCoches/principal.sol\":3952:3965  string memory */\n      0x60\n        /* \"contracts/CarreraCoches/principal.sol\":4011:4012  1 */\n      0x01\n        /* \"contracts/CarreraCoches/principal.sol\":3989:4000  listaCoches */\n      0x06\n        /* \"contracts/CarreraCoches/principal.sol\":3989:4007  listaCoches.length */\n      dup1\n      sload\n      swap1\n      pop\n        /* \"contracts/CarreraCoches/principal.sol\":3989:4012  listaCoches.length <= 1 */\n      gt\n        /* \"contracts/CarreraCoches/principal.sol\":3986:7232  if(listaCoches.length <= 1){\r... */\n      tag_184\n      jumpi\n        /* \"contracts/CarreraCoches/principal.sol\":4032:4111  confirmacionDepositoLleno(\"No hay coches suficientes para iniciar una carrera\") */\n      0x6158fc8f21c8cc73ddf920956cc75d0e8a48b4fc85817a0ba89eb3b6d2a75441\n      mload(0x40)\n      tag_185\n      swap1\n      tag_186\n      jump\t// in\n    tag_185:\n      mload(0x40)\n      dup1\n      swap2\n      sub\n      swap1\n      log1\n        /* \"contracts/CarreraCoches/principal.sol\":3986:7232  if(listaCoches.length <= 1){\r... */\n      jump(tag_187)\n    tag_184:\n        /* \"contracts/CarreraCoches/principal.sol\":4162:4175  dineroApostar */\n      dup2\n        /* \"contracts/CarreraCoches/principal.sol\":4149:4158  msg.value */\n      callvalue\n        /* \"contracts/CarreraCoches/principal.sol\":4149:4175  msg.value == dineroApostar */\n      eq\n        /* \"contracts/CarreraCoches/principal.sol\":4141:4176  require(msg.value == dineroApostar) */\n      tag_188\n      jumpi\n      0x00\n      dup1\n      revert\n    tag_188:\n        /* \"contracts/CarreraCoches/principal.sol\":4191:4200  randNonce */\n      0x01\n      0x00\n        /* \"contracts/CarreraCoches/principal.sol\":4191:4202  randNonce++ */\n      dup2\n      sload\n      dup1\n      swap3\n      swap2\n      swap1\n      tag_189\n      swap1\n      tag_130\n      jump\t// in\n    tag_189:\n      swap2\n      swap1\n      pop\n      sstore\n      pop\n        /* \"contracts/CarreraCoches/principal.sol\":4257:4270  uint256 rival */\n      0x00\n        /* \"contracts/CarreraCoches/principal.sol\":4360:4371  listaCoches */\n      0x06\n        /* \"contracts/CarreraCoches/principal.sol\":4360:4378  listaCoches.length */\n      dup1\n      sload\n      swap1\n      pop\n        /* \"contracts/CarreraCoches/principal.sol\":4308:4323  block.timestamp */\n      timestamp\n        /* \"contracts/CarreraCoches/principal.sol\":4325:4336  listaCoches */\n      0x06\n        /* \"contracts/CarreraCoches/principal.sol\":4325:4343  listaCoches.length */\n      dup1\n      sload\n      swap1\n      pop\n        /* \"contracts/CarreraCoches/principal.sol\":4345:4354  randNonce */\n      sload(0x01)\n        /* \"contracts/CarreraCoches/principal.sol\":4291:4355  abi.encodePacked(block.timestamp, listaCoches.length, randNonce) */\n      add(0x20, mload(0x40))\n      tag_190\n      swap4\n      swap3\n      swap2\n      swap1\n      tag_191\n      jump\t// in\n    tag_190:\n      mload(0x40)\n      0x20\n      dup2\n      dup4\n      sub\n      sub\n      dup2\n      mstore\n      swap1\n      0x40\n      mstore\n        /* \"contracts/CarreraCoches/principal.sol\":4281:4356  keccak256(abi.encodePacked(block.timestamp, listaCoches.length, randNonce)) */\n      dup1\n      mload\n      swap1\n      0x20\n      add\n      keccak256\n        /* \"contracts/CarreraCoches/principal.sol\":4273:4357  uint256(keccak256(abi.encodePacked(block.timestamp, listaCoches.length, randNonce))) */\n      0x00\n      shr\n        /* \"contracts/CarreraCoches/principal.sol\":4273:4378  uint256(keccak256(abi.encodePacked(block.timestamp, listaCoches.length, randNonce))) % listaCoches.length */\n      tag_192\n      swap2\n      swap1\n      tag_193\n      jump\t// in\n    tag_192:\n        /* \"contracts/CarreraCoches/principal.sol\":4257:4378  uint256 rival = uint256(keccak256(abi.encodePacked(block.timestamp, listaCoches.length, randNonce))) % listaCoches.length */\n      swap1\n      pop\n        /* \"contracts/CarreraCoches/principal.sol\":4393:4413  address addressRival */\n      0x00\n        /* \"contracts/CarreraCoches/principal.sol\":4416:4434  cocheDePropietario */\n      0x07\n        /* \"contracts/CarreraCoches/principal.sol\":4416:4441  cocheDePropietario[rival] */\n      0x00\n        /* \"contracts/CarreraCoches/principal.sol\":4435:4440  rival */\n      dup4\n        /* \"contracts/CarreraCoches/principal.sol\":4416:4441  cocheDePropietario[rival] */\n      dup2\n      mstore\n      0x20\n      add\n      swap1\n      dup2\n      mstore\n      0x20\n      add\n      0x00\n      keccak256\n      0x00\n      swap1\n      sload\n      swap1\n      0x0100\n      exp\n      swap1\n      div\n      0xffffffffffffffffffffffffffffffffffffffff\n      and\n        /* \"contracts/CarreraCoches/principal.sol\":4393:4441  address addressRival = cocheDePropietario[rival] */\n      swap1\n      pop\n        /* \"contracts/CarreraCoches/principal.sol\":4492:4501  randNonce */\n      0x01\n      0x00\n        /* \"contracts/CarreraCoches/principal.sol\":4492:4503  randNonce++ */\n      dup2\n      sload\n      dup1\n      swap3\n      swap2\n      swap1\n      tag_194\n      swap1\n      tag_130\n      jump\t// in\n    tag_194:\n      swap2\n      swap1\n      pop\n      sstore\n      pop\n        /* \"contracts/CarreraCoches/principal.sol\":4518:4529  uint numero */\n      0x00\n        /* \"contracts/CarreraCoches/principal.sol\":4532:4535  100 */\n      0x64\n        /* \"contracts/CarreraCoches/principal.sol\":4518:4535  uint numero = 100 */\n      swap1\n      pop\n        /* \"contracts/CarreraCoches/principal.sol\":4550:4565  uint256 ganador */\n      0x00\n        /* \"contracts/CarreraCoches/principal.sol\":4643:4649  numero */\n      dup2\n        /* \"contracts/CarreraCoches/principal.sol\":4603:4618  block.timestamp */\n      timestamp\n        /* \"contracts/CarreraCoches/principal.sol\":4620:4626  numero */\n      dup4\n        /* \"contracts/CarreraCoches/principal.sol\":4628:4637  randNonce */\n      sload(0x01)\n        /* \"contracts/CarreraCoches/principal.sol\":4586:4638  abi.encodePacked(block.timestamp, numero, randNonce) */\n      add(0x20, mload(0x40))\n      tag_195\n      swap4\n      swap3\n      swap2\n      swap1\n      tag_191\n      jump\t// in\n    tag_195:\n      mload(0x40)\n      0x20\n      dup2\n      dup4\n      sub\n      sub\n      dup2\n      mstore\n      swap1\n      0x40\n      mstore\n        /* \"contracts/CarreraCoches/principal.sol\":4576:4639  keccak256(abi.encodePacked(block.timestamp, numero, randNonce)) */\n      dup1\n      mload\n      swap1\n      0x20\n      add\n      keccak256\n        /* \"contracts/CarreraCoches/principal.sol\":4568:4640  uint256(keccak256(abi.encodePacked(block.timestamp, numero, randNonce))) */\n      0x00\n      shr\n        /* \"contracts/CarreraCoches/principal.sol\":4568:4649  uint256(keccak256(abi.encodePacked(block.timestamp, numero, randNonce))) % numero */\n      tag_196\n      swap2\n      swap1\n      tag_193\n      jump\t// in\n    tag_196:\n        /* \"contracts/CarreraCoches/principal.sol\":4550:4649  uint256 ganador = uint256(keccak256(abi.encodePacked(block.timestamp, numero, randNonce))) % numero */\n      swap1\n      pop\n        /* \"contracts/CarreraCoches/principal.sol\":4670:4676  uint i */\n      0x00\n        /* \"contracts/CarreraCoches/principal.sol\":4666:7221  for(uint i = 0; i < listaCoches.length; i++){\r... */\n    tag_197:\n        /* \"contracts/CarreraCoches/principal.sol\":4686:4697  listaCoches */\n      0x06\n        /* \"contracts/CarreraCoches/principal.sol\":4686:4704  listaCoches.length */\n      dup1\n      sload\n      swap1\n      pop\n        /* \"contracts/CarreraCoches/principal.sol\":4682:4683  i */\n      dup2\n        /* \"contracts/CarreraCoches/principal.sol\":4682:4704  i < listaCoches.length */\n      lt\n        /* \"contracts/CarreraCoches/principal.sol\":4666:7221  for(uint i = 0; i < listaCoches.length; i++){\r... */\n      iszero\n      tag_198\n      jumpi\n        /* \"contracts/CarreraCoches/principal.sol\":4783:4794  listaCoches */\n      0x06\n        /* \"contracts/CarreraCoches/principal.sol\":4795:4796  i */\n      dup2\n        /* \"contracts/CarreraCoches/principal.sol\":4783:4797  listaCoches[i] */\n      dup2\n      sload\n      dup2\n      lt\n      tag_200\n      jumpi\n      tag_201\n      tag_117\n      jump\t// in\n    tag_201:\n    tag_200:\n      swap1\n      0x00\n      mstore\n      keccak256(0x00, 0x20)\n      swap1\n      0x08\n      mul\n      add\n        /* \"contracts/CarreraCoches/principal.sol\":4783:4806  listaCoches[i].idPiloto */\n      0x00\n      add\n      0x00\n      swap1\n      sload\n      swap1\n      0x0100\n      exp\n      swap1\n      div\n      0xffffffffffffffffffffffffffffffffffffffff\n      and\n        /* \"contracts/CarreraCoches/principal.sol\":4769:4806  msg.sender == listaCoches[i].idPiloto */\n      0xffffffffffffffffffffffffffffffffffffffff\n      and\n        /* \"contracts/CarreraCoches/principal.sol\":4769:4779  msg.sender */\n      caller\n        /* \"contracts/CarreraCoches/principal.sol\":4769:4806  msg.sender == listaCoches[i].idPiloto */\n      0xffffffffffffffffffffffffffffffffffffffff\n      and\n      eq\n        /* \"contracts/CarreraCoches/principal.sol\":4765:7188  if (msg.sender == listaCoches[i].idPiloto) {\r... */\n      iszero\n      tag_203\n      jumpi\n        /* \"contracts/CarreraCoches/principal.sol\":4839:4869  _depositoLleno(listaCoches[i]) */\n      tag_204\n        /* \"contracts/CarreraCoches/principal.sol\":4854:4865  listaCoches */\n      0x06\n        /* \"contracts/CarreraCoches/principal.sol\":4866:4867  i */\n      dup3\n        /* \"contracts/CarreraCoches/principal.sol\":4854:4868  listaCoches[i] */\n      dup2\n      sload\n      dup2\n      lt\n      tag_205\n      jumpi\n      tag_206\n      tag_117\n      jump\t// in\n    tag_206:\n    tag_205:\n      swap1\n      0x00\n      mstore\n      keccak256(0x00, 0x20)\n      swap1\n      0x08\n      mul\n      add\n        /* \"contracts/CarreraCoches/principal.sol\":4839:4853  _depositoLleno */\n      tag_208\n        /* \"contracts/CarreraCoches/principal.sol\":4839:4869  _depositoLleno(listaCoches[i]) */\n      jump\t// in\n    tag_204:\n        /* \"contracts/CarreraCoches/principal.sol\":4831:4870  require(_depositoLleno(listaCoches[i])) */\n      tag_209\n      jumpi\n      0x00\n      dup1\n      revert\n    tag_209:\n        /* \"contracts/CarreraCoches/principal.sol\":4893:4904  listaCoches */\n      0x06\n        /* \"contracts/CarreraCoches/principal.sol\":4905:4906  i */\n      dup2\n        /* \"contracts/CarreraCoches/principal.sol\":4893:4907  listaCoches[i] */\n      dup2\n      sload\n      dup2\n      lt\n      tag_210\n      jumpi\n      tag_211\n      tag_117\n      jump\t// in\n    tag_211:\n    tag_210:\n      swap1\n      0x00\n      mstore\n      keccak256(0x00, 0x20)\n      swap1\n      0x08\n      mul\n      add\n        /* \"contracts/CarreraCoches/principal.sol\":4893:4923  listaCoches[i].carrerasTotales */\n      0x05\n      add\n      0x00\n        /* \"contracts/CarreraCoches/principal.sol\":4893:4925  listaCoches[i].carrerasTotales++ */\n      dup2\n      sload\n      dup1\n      swap3\n      swap2\n      swap1\n      tag_213\n      swap1\n      tag_130\n      jump\t// in\n    tag_213:\n      swap2\n      swap1\n      pop\n      sstore\n      pop\n        /* \"contracts/CarreraCoches/principal.sol\":4948:4959  listaCoches */\n      0x06\n        /* \"contracts/CarreraCoches/principal.sol\":4960:4965  rival */\n      dup6\n        /* \"contracts/CarreraCoches/principal.sol\":4948:4966  listaCoches[rival] */\n      dup2\n      sload\n      dup2\n      lt\n      tag_214\n      jumpi\n      tag_215\n      tag_117\n      jump\t// in\n    tag_215:\n    tag_214:\n      swap1\n      0x00\n      mstore\n      keccak256(0x00, 0x20)\n      swap1\n      0x08\n      mul\n      add\n        /* \"contracts/CarreraCoches/principal.sol\":4948:4982  listaCoches[rival].carrerasTotales */\n      0x05\n      add\n      0x00\n        /* \"contracts/CarreraCoches/principal.sol\":4948:4984  listaCoches[rival].carrerasTotales++ */\n      dup2\n      sload\n      dup1\n      swap3\n      swap2\n      swap1\n      tag_217\n      swap1\n      tag_130\n      jump\t// in\n    tag_217:\n      swap2\n      swap1\n      pop\n      sstore\n      pop\n        /* \"contracts/CarreraCoches/principal.sol\":5007:5034  _repostando(listaCoches[i]) */\n      tag_218\n        /* \"contracts/CarreraCoches/principal.sol\":5019:5030  listaCoches */\n      0x06\n        /* \"contracts/CarreraCoches/principal.sol\":5031:5032  i */\n      dup3\n        /* \"contracts/CarreraCoches/principal.sol\":5019:5033  listaCoches[i] */\n      dup2\n      sload\n      dup2\n      lt\n      tag_219\n      jumpi\n      tag_220\n      tag_117\n      jump\t// in\n    tag_220:\n    tag_219:\n      swap1\n      0x00\n      mstore\n      keccak256(0x00, 0x20)\n      swap1\n      0x08\n      mul\n      add\n        /* \"contracts/CarreraCoches/principal.sol\":5007:5018  _repostando */\n      tag_222\n        /* \"contracts/CarreraCoches/principal.sol\":5007:5034  _repostando(listaCoches[i]) */\n      jump\t// in\n    tag_218:\n        /* \"contracts/CarreraCoches/principal.sol\":5087:5098  listaCoches */\n      0x06\n        /* \"contracts/CarreraCoches/principal.sol\":5099:5100  i */\n      dup2\n        /* \"contracts/CarreraCoches/principal.sol\":5087:5101  listaCoches[i] */\n      dup2\n      sload\n      dup2\n      lt\n      tag_223\n      jumpi\n      tag_224\n      tag_117\n      jump\t// in\n    tag_224:\n    tag_223:\n      swap1\n      0x00\n      mstore\n      keccak256(0x00, 0x20)\n      swap1\n      0x08\n      mul\n      add\n        /* \"contracts/CarreraCoches/principal.sol\":5087:5107  listaCoches[i].nivel */\n      0x07\n      add\n      0x00\n      swap1\n      sload\n      swap1\n      0x0100\n      exp\n      swap1\n      div\n      0xffffffff\n      and\n        /* \"contracts/CarreraCoches/principal.sol\":5060:5107  listaCoches[rival].nivel < listaCoches[i].nivel */\n      0xffffffff\n      and\n        /* \"contracts/CarreraCoches/principal.sol\":5060:5071  listaCoches */\n      0x06\n        /* \"contracts/CarreraCoches/principal.sol\":5072:5077  rival */\n      dup7\n        /* \"contracts/CarreraCoches/principal.sol\":5060:5078  listaCoches[rival] */\n      dup2\n      sload\n      dup2\n      lt\n      tag_226\n      jumpi\n      tag_227\n      tag_117\n      jump\t// in\n    tag_227:\n    tag_226:\n      swap1\n      0x00\n      mstore\n      keccak256(0x00, 0x20)\n      swap1\n      0x08\n      mul\n      add\n        /* \"contracts/CarreraCoches/principal.sol\":5060:5084  listaCoches[rival].nivel */\n      0x07\n      add\n      0x00\n      swap1\n      sload\n      swap1\n      0x0100\n      exp\n      swap1\n      div\n      0xffffffff\n      and\n        /* \"contracts/CarreraCoches/principal.sol\":5060:5107  listaCoches[rival].nivel < listaCoches[i].nivel */\n      0xffffffff\n      and\n      lt\n        /* \"contracts/CarreraCoches/principal.sol\":5057:7165  if(listaCoches[rival].nivel < listaCoches[i].nivel){\r... */\n      iszero\n      tag_229\n      jumpi\n        /* \"contracts/CarreraCoches/principal.sol\":5147:5149  60 */\n      0x3c\n        /* \"contracts/CarreraCoches/principal.sol\":5138:5145  ganador */\n      dup3\n        /* \"contracts/CarreraCoches/principal.sol\":5138:5149  ganador<=60 */\n      gt\n        /* \"contracts/CarreraCoches/principal.sol\":5135:5708  if(ganador<=60){\r... */\n      tag_230\n      jumpi\n        /* \"contracts/CarreraCoches/principal.sol\":5181:5190  balance() */\n      tag_231\n        /* \"contracts/CarreraCoches/principal.sol\":5181:5188  balance */\n      tag_232\n        /* \"contracts/CarreraCoches/principal.sol\":5181:5190  balance() */\n      jump\t// in\n    tag_231:\n        /* \"contracts/CarreraCoches/principal.sol\":5221:5232  listaCoches */\n      0x06\n        /* \"contracts/CarreraCoches/principal.sol\":5233:5234  i */\n      dup2\n        /* \"contracts/CarreraCoches/principal.sol\":5221:5235  listaCoches[i] */\n      dup2\n      sload\n      dup2\n      lt\n      tag_233\n      jumpi\n      tag_234\n      tag_117\n      jump\t// in\n    tag_234:\n    tag_233:\n      swap1\n      0x00\n      mstore\n      keccak256(0x00, 0x20)\n      swap1\n      0x08\n      mul\n      add\n        /* \"contracts/CarreraCoches/principal.sol\":5221:5251  listaCoches[i].carrerasGanadas */\n      0x04\n      add\n      0x00\n        /* \"contracts/CarreraCoches/principal.sol\":5221:5253  listaCoches[i].carrerasGanadas++ */\n      dup2\n      sload\n      dup1\n      swap3\n      swap2\n      swap1\n      tag_236\n      swap1\n      tag_130\n      jump\t// in\n    tag_236:\n      swap2\n      swap1\n      pop\n      sstore\n      pop\n        /* \"contracts/CarreraCoches/principal.sol\":5284:5295  listaCoches */\n      0x06\n        /* \"contracts/CarreraCoches/principal.sol\":5296:5297  i */\n      dup2\n        /* \"contracts/CarreraCoches/principal.sol\":5284:5298  listaCoches[i] */\n      dup2\n      sload\n      dup2\n      lt\n      tag_237\n      jumpi\n      tag_238\n      tag_117\n      jump\t// in\n    tag_238:\n    tag_237:\n      swap1\n      0x00\n      mstore\n      keccak256(0x00, 0x20)\n      swap1\n      0x08\n      mul\n      add\n        /* \"contracts/CarreraCoches/principal.sol\":5284:5304  listaCoches[i].nivel */\n      0x07\n      add\n      0x00\n        /* \"contracts/CarreraCoches/principal.sol\":5284:5306  listaCoches[i].nivel++ */\n      dup2\n      dup2\n      swap1\n      sload\n      swap1\n      0x0100\n      exp\n      swap1\n      div\n      0xffffffff\n      and\n      dup1\n      swap3\n      swap2\n      swap1\n      tag_240\n      swap1\n      tag_181\n      jump\t// in\n    tag_240:\n      swap2\n      swap1\n      0x0100\n      exp\n      dup2\n      sload\n      dup2\n      0xffffffff\n      mul\n      not\n      and\n      swap1\n      dup4\n      0xffffffff\n      and\n      mul\n      or\n      swap1\n      sstore\n      pop\n      pop\n        /* \"contracts/CarreraCoches/principal.sol\":5337:5356  return \"Has ganado\" */\n      mload(0x40)\n      dup1\n      0x40\n      add\n      0x40\n      mstore\n      dup1\n      0x0a\n      dup2\n      mstore\n      0x20\n      add\n      0x4861732067616e61646f00000000000000000000000000000000000000000000\n      dup2\n      mstore\n      pop\n      swap6\n      pop\n      pop\n      pop\n      pop\n      pop\n      pop\n      jump(tag_183)\n        /* \"contracts/CarreraCoches/principal.sol\":5135:5708  if(ganador<=60){\r... */\n    tag_230:\n        /* \"contracts/CarreraCoches/principal.sol\":5510:5560  confirmacionDepositoLleno(\"El coche ganador es: \") */\n      0x6158fc8f21c8cc73ddf920956cc75d0e8a48b4fc85817a0ba89eb3b6d2a75441\n      mload(0x40)\n      tag_242\n      swap1\n      tag_243\n      jump\t// in\n    tag_242:\n      mload(0x40)\n      dup1\n      swap2\n      sub\n      swap1\n      log1\n        /* \"contracts/CarreraCoches/principal.sol\":5591:5595  this */\n      address\n        /* \"contracts/CarreraCoches/principal.sol\":5591:5615  this.verCochePropietario */\n      0xffffffffffffffffffffffffffffffffffffffff\n      and\n      0xe172fca8\n        /* \"contracts/CarreraCoches/principal.sol\":5616:5628  addressRival */\n      dup6\n        /* \"contracts/CarreraCoches/principal.sol\":5591:5629  this.verCochePropietario(addressRival) */\n      mload(0x40)\n      dup3\n      0xffffffff\n      and\n      0xe0\n      shl\n      dup2\n      mstore\n      0x04\n      add\n      tag_244\n      swap2\n      swap1\n      tag_57\n      jump\t// in\n    tag_244:\n      0x00\n      mload(0x40)\n      dup1\n      dup4\n      sub\n      dup2\n      0x00\n      dup8\n      dup1\n      extcodesize\n      iszero\n      dup1\n      iszero\n      tag_245\n      jumpi\n      0x00\n      dup1\n      revert\n    tag_245:\n      pop\n      gas\n      call\n      iszero\n      dup1\n      iszero\n      tag_247\n      jumpi\n      returndatasize\n      0x00\n      dup1\n      returndatacopy\n      revert(0x00, returndatasize)\n    tag_247:\n      pop\n      pop\n      pop\n      pop\n        /* \"contracts/CarreraCoches/principal.sol\":5660:5680  return \"Has perdido\" */\n      mload(0x40)\n      dup1\n      0x40\n      add\n      0x40\n      mstore\n      dup1\n      0x0b\n      dup2\n      mstore\n      0x20\n      add\n      0x486173207065726469646f000000000000000000000000000000000000000000\n      dup2\n      mstore\n      pop\n      swap6\n      pop\n      pop\n      pop\n      pop\n      pop\n      pop\n      jump(tag_183)\n        /* \"contracts/CarreraCoches/principal.sol\":5057:7165  if(listaCoches[rival].nivel < listaCoches[i].nivel){\r... */\n    tag_229:\n        /* \"contracts/CarreraCoches/principal.sol\":5771:5782  listaCoches */\n      0x06\n        /* \"contracts/CarreraCoches/principal.sol\":5783:5784  i */\n      dup2\n        /* \"contracts/CarreraCoches/principal.sol\":5771:5785  listaCoches[i] */\n      dup2\n      sload\n      dup2\n      lt\n      tag_249\n      jumpi\n      tag_250\n      tag_117\n      jump\t// in\n    tag_250:\n    tag_249:\n      swap1\n      0x00\n      mstore\n      keccak256(0x00, 0x20)\n      swap1\n      0x08\n      mul\n      add\n        /* \"contracts/CarreraCoches/principal.sol\":5771:5791  listaCoches[i].nivel */\n      0x07\n      add\n      0x00\n      swap1\n      sload\n      swap1\n      0x0100\n      exp\n      swap1\n      div\n      0xffffffff\n      and\n        /* \"contracts/CarreraCoches/principal.sol\":5743:5791  listaCoches[rival].nivel == listaCoches[i].nivel */\n      0xffffffff\n      and\n        /* \"contracts/CarreraCoches/principal.sol\":5743:5754  listaCoches */\n      0x06\n        /* \"contracts/CarreraCoches/principal.sol\":5755:5760  rival */\n      dup7\n        /* \"contracts/CarreraCoches/principal.sol\":5743:5761  listaCoches[rival] */\n      dup2\n      sload\n      dup2\n      lt\n      tag_252\n      jumpi\n      tag_253\n      tag_117\n      jump\t// in\n    tag_253:\n    tag_252:\n      swap1\n      0x00\n      mstore\n      keccak256(0x00, 0x20)\n      swap1\n      0x08\n      mul\n      add\n        /* \"contracts/CarreraCoches/principal.sol\":5743:5767  listaCoches[rival].nivel */\n      0x07\n      add\n      0x00\n      swap1\n      sload\n      swap1\n      0x0100\n      exp\n      swap1\n      div\n      0xffffffff\n      and\n        /* \"contracts/CarreraCoches/principal.sol\":5743:5791  listaCoches[rival].nivel == listaCoches[i].nivel */\n      0xffffffff\n      and\n      eq\n        /* \"contracts/CarreraCoches/principal.sol\":5740:7165  if(listaCoches[rival].nivel == listaCoches[i].nivel){\r... */\n      iszero\n      tag_255\n      jumpi\n        /* \"contracts/CarreraCoches/principal.sol\":5831:5833  50 */\n      0x32\n        /* \"contracts/CarreraCoches/principal.sol\":5822:5829  ganador */\n      dup3\n        /* \"contracts/CarreraCoches/principal.sol\":5822:5833  ganador<=50 */\n      gt\n        /* \"contracts/CarreraCoches/principal.sol\":5819:6394  if(ganador<=50){\r... */\n      tag_256\n      jumpi\n        /* \"contracts/CarreraCoches/principal.sol\":5865:5874  balance() */\n      tag_257\n        /* \"contracts/CarreraCoches/principal.sol\":5865:5872  balance */\n      tag_232\n        /* \"contracts/CarreraCoches/principal.sol\":5865:5874  balance() */\n      jump\t// in\n    tag_257:\n        /* \"contracts/CarreraCoches/principal.sol\":5905:5916  listaCoches */\n      0x06\n        /* \"contracts/CarreraCoches/principal.sol\":5917:5918  i */\n      dup2\n        /* \"contracts/CarreraCoches/principal.sol\":5905:5919  listaCoches[i] */\n      dup2\n      sload\n      dup2\n      lt\n      tag_258\n      jumpi\n      tag_259\n      tag_117\n      jump\t// in\n    tag_259:\n    tag_258:\n      swap1\n      0x00\n      mstore\n      keccak256(0x00, 0x20)\n      swap1\n      0x08\n      mul\n      add\n        /* \"contracts/CarreraCoches/principal.sol\":5905:5935  listaCoches[i].carrerasGanadas */\n      0x04\n      add\n      0x00\n        /* \"contracts/CarreraCoches/principal.sol\":5905:5937  listaCoches[i].carrerasGanadas++ */\n      dup2\n      sload\n      dup1\n      swap3\n      swap2\n      swap1\n      tag_261\n      swap1\n      tag_130\n      jump\t// in\n    tag_261:\n      swap2\n      swap1\n      pop\n      sstore\n      pop\n        /* \"contracts/CarreraCoches/principal.sol\":5968:5979  listaCoches */\n      0x06\n        /* \"contracts/CarreraCoches/principal.sol\":5980:5981  i */\n      dup2\n        /* \"contracts/CarreraCoches/principal.sol\":5968:5982  listaCoches[i] */\n      dup2\n      sload\n      dup2\n      lt\n      tag_262\n      jumpi\n      tag_263\n      tag_117\n      jump\t// in\n    tag_263:\n    tag_262:\n      swap1\n      0x00\n      mstore\n      keccak256(0x00, 0x20)\n      swap1\n      0x08\n      mul\n      add\n        /* \"contracts/CarreraCoches/principal.sol\":5968:5988  listaCoches[i].nivel */\n      0x07\n      add\n      0x00\n        /* \"contracts/CarreraCoches/principal.sol\":5968:5990  listaCoches[i].nivel++ */\n      dup2\n      dup2\n      swap1\n      sload\n      swap1\n      0x0100\n      exp\n      swap1\n      div\n      0xffffffff\n      and\n      dup1\n      swap3\n      swap2\n      swap1\n      tag_265\n      swap1\n      tag_181\n      jump\t// in\n    tag_265:\n      swap2\n      swap1\n      0x0100\n      exp\n      dup2\n      sload\n      dup2\n      0xffffffff\n      mul\n      not\n      and\n      swap1\n      dup4\n      0xffffffff\n      and\n      mul\n      or\n      swap1\n      sstore\n      pop\n      pop\n        /* \"contracts/CarreraCoches/principal.sol\":6021:6040  return \"Has ganado\" */\n      mload(0x40)\n      dup1\n      0x40\n      add\n      0x40\n      mstore\n      dup1\n      0x0a\n      dup2\n      mstore\n      0x20\n      add\n      0x4861732067616e61646f00000000000000000000000000000000000000000000\n      dup2\n      mstore\n      pop\n      swap6\n      pop\n      pop\n      pop\n      pop\n      pop\n      pop\n      jump(tag_183)\n        /* \"contracts/CarreraCoches/principal.sol\":5819:6394  if(ganador<=50){\r... */\n    tag_256:\n        /* \"contracts/CarreraCoches/principal.sol\":6196:6246  confirmacionDepositoLleno(\"El coche ganador es: \") */\n      0x6158fc8f21c8cc73ddf920956cc75d0e8a48b4fc85817a0ba89eb3b6d2a75441\n      mload(0x40)\n      tag_267\n      swap1\n      tag_243\n      jump\t// in\n    tag_267:\n      mload(0x40)\n      dup1\n      swap2\n      sub\n      swap1\n      log1\n        /* \"contracts/CarreraCoches/principal.sol\":6277:6281  this */\n      address\n        /* \"contracts/CarreraCoches/principal.sol\":6277:6301  this.verCochePropietario */\n      0xffffffffffffffffffffffffffffffffffffffff\n      and\n      0xe172fca8\n        /* \"contracts/CarreraCoches/principal.sol\":6302:6314  addressRival */\n      dup6\n        /* \"contracts/CarreraCoches/principal.sol\":6277:6315  this.verCochePropietario(addressRival) */\n      mload(0x40)\n      dup3\n      0xffffffff\n      and\n      0xe0\n      shl\n      dup2\n      mstore\n      0x04\n      add\n      tag_268\n      swap2\n      swap1\n      tag_57\n      jump\t// in\n    tag_268:\n      0x00\n      mload(0x40)\n      dup1\n      dup4\n      sub\n      dup2\n      0x00\n      dup8\n      dup1\n      extcodesize\n      iszero\n      dup1\n      iszero\n      tag_269\n      jumpi\n      0x00\n      dup1\n      revert\n    tag_269:\n      pop\n      gas\n      call\n      iszero\n      dup1\n      iszero\n      tag_271\n      jumpi\n      returndatasize\n      0x00\n      dup1\n      returndatacopy\n      revert(0x00, returndatasize)\n    tag_271:\n      pop\n      pop\n      pop\n      pop\n        /* \"contracts/CarreraCoches/principal.sol\":6346:6366  return \"Has perdido\" */\n      mload(0x40)\n      dup1\n      0x40\n      add\n      0x40\n      mstore\n      dup1\n      0x0b\n      dup2\n      mstore\n      0x20\n      add\n      0x486173207065726469646f000000000000000000000000000000000000000000\n      dup2\n      mstore\n      pop\n      swap6\n      pop\n      pop\n      pop\n      pop\n      pop\n      pop\n      jump(tag_183)\n        /* \"contracts/CarreraCoches/principal.sol\":5740:7165  if(listaCoches[rival].nivel == listaCoches[i].nivel){\r... */\n    tag_255:\n        /* \"contracts/CarreraCoches/principal.sol\":6461:6463  40 */\n      0x28\n        /* \"contracts/CarreraCoches/principal.sol\":6452:6459  ganador */\n      dup3\n        /* \"contracts/CarreraCoches/principal.sol\":6452:6463  ganador<=40 */\n      gt\n        /* \"contracts/CarreraCoches/principal.sol\":6449:7141  if(ganador<=40){\r... */\n      tag_273\n      jumpi\n        /* \"contracts/CarreraCoches/principal.sol\":6495:6504  balance() */\n      tag_274\n        /* \"contracts/CarreraCoches/principal.sol\":6495:6502  balance */\n      tag_232\n        /* \"contracts/CarreraCoches/principal.sol\":6495:6504  balance() */\n      jump\t// in\n    tag_274:\n        /* \"contracts/CarreraCoches/principal.sol\":6535:6546  listaCoches */\n      0x06\n        /* \"contracts/CarreraCoches/principal.sol\":6547:6548  i */\n      dup2\n        /* \"contracts/CarreraCoches/principal.sol\":6535:6549  listaCoches[i] */\n      dup2\n      sload\n      dup2\n      lt\n      tag_275\n      jumpi\n      tag_276\n      tag_117\n      jump\t// in\n    tag_276:\n    tag_275:\n      swap1\n      0x00\n      mstore\n      keccak256(0x00, 0x20)\n      swap1\n      0x08\n      mul\n      add\n        /* \"contracts/CarreraCoches/principal.sol\":6535:6565  listaCoches[i].carrerasGanadas */\n      0x04\n      add\n      0x00\n        /* \"contracts/CarreraCoches/principal.sol\":6535:6567  listaCoches[i].carrerasGanadas++ */\n      dup2\n      sload\n      dup1\n      swap3\n      swap2\n      swap1\n      tag_278\n      swap1\n      tag_130\n      jump\t// in\n    tag_278:\n      swap2\n      swap1\n      pop\n      sstore\n      pop\n        /* \"contracts/CarreraCoches/principal.sol\":6598:6609  listaCoches */\n      0x06\n        /* \"contracts/CarreraCoches/principal.sol\":6610:6611  i */\n      dup2\n        /* \"contracts/CarreraCoches/principal.sol\":6598:6612  listaCoches[i] */\n      dup2\n      sload\n      dup2\n      lt\n      tag_279\n      jumpi\n      tag_280\n      tag_117\n      jump\t// in\n    tag_280:\n    tag_279:\n      swap1\n      0x00\n      mstore\n      keccak256(0x00, 0x20)\n      swap1\n      0x08\n      mul\n      add\n        /* \"contracts/CarreraCoches/principal.sol\":6598:6618  listaCoches[i].nivel */\n      0x07\n      add\n      0x00\n        /* \"contracts/CarreraCoches/principal.sol\":6598:6620  listaCoches[i].nivel++ */\n      dup2\n      dup2\n      swap1\n      sload\n      swap1\n      0x0100\n      exp\n      swap1\n      div\n      0xffffffff\n      and\n      dup1\n      swap3\n      swap2\n      swap1\n      tag_282\n      swap1\n      tag_181\n      jump\t// in\n    tag_282:\n      swap2\n      swap1\n      0x0100\n      exp\n      dup2\n      sload\n      dup2\n      0xffffffff\n      mul\n      not\n      and\n      swap1\n      dup4\n      0xffffffff\n      and\n      mul\n      or\n      swap1\n      sstore\n      pop\n      pop\n        /* \"contracts/CarreraCoches/principal.sol\":6651:6670  return \"Has ganado\" */\n      mload(0x40)\n      dup1\n      0x40\n      add\n      0x40\n      mstore\n      dup1\n      0x0a\n      dup2\n      mstore\n      0x20\n      add\n      0x4861732067616e61646f00000000000000000000000000000000000000000000\n      dup2\n      mstore\n      pop\n      swap6\n      pop\n      pop\n      pop\n      pop\n      pop\n      pop\n      jump(tag_183)\n        /* \"contracts/CarreraCoches/principal.sol\":6449:7141  if(ganador<=40){\r... */\n    tag_273:\n        /* \"contracts/CarreraCoches/principal.sol\":6738:6788  confirmacionDepositoLleno(\"El coche ganador es: \") */\n      0x6158fc8f21c8cc73ddf920956cc75d0e8a48b4fc85817a0ba89eb3b6d2a75441\n      mload(0x40)\n      tag_284\n      swap1\n      tag_243\n      jump\t// in\n    tag_284:\n      mload(0x40)\n      dup1\n      swap2\n      sub\n      swap1\n      log1\n        /* \"contracts/CarreraCoches/principal.sol\":6819:6823  this */\n      address\n        /* \"contracts/CarreraCoches/principal.sol\":6819:6843  this.verCochePropietario */\n      0xffffffffffffffffffffffffffffffffffffffff\n      and\n      0xe172fca8\n        /* \"contracts/CarreraCoches/principal.sol\":6844:6856  addressRival */\n      dup6\n        /* \"contracts/CarreraCoches/principal.sol\":6819:6857  this.verCochePropietario(addressRival) */\n      mload(0x40)\n      dup3\n      0xffffffff\n      and\n      0xe0\n      shl\n      dup2\n      mstore\n      0x04\n      add\n      tag_285\n      swap2\n      swap1\n      tag_57\n      jump\t// in\n    tag_285:\n      0x00\n      mload(0x40)\n      dup1\n      dup4\n      sub\n      dup2\n      0x00\n      dup8\n      dup1\n      extcodesize\n      iszero\n      dup1\n      iszero\n      tag_286\n      jumpi\n      0x00\n      dup1\n      revert\n    tag_286:\n      pop\n      gas\n      call\n      iszero\n      dup1\n      iszero\n      tag_288\n      jumpi\n      returndatasize\n      0x00\n      dup1\n      returndatacopy\n      revert(0x00, returndatasize)\n    tag_288:\n      pop\n      pop\n      pop\n      pop\n        /* \"contracts/CarreraCoches/principal.sol\":7093:7113  return \"Has perdido\" */\n      mload(0x40)\n      dup1\n      0x40\n      add\n      0x40\n      mstore\n      dup1\n      0x0b\n      dup2\n      mstore\n      0x20\n      add\n      0x486173207065726469646f000000000000000000000000000000000000000000\n      dup2\n      mstore\n      pop\n      swap6\n      pop\n      pop\n      pop\n      pop\n      pop\n      pop\n      jump(tag_183)\n        /* \"contracts/CarreraCoches/principal.sol\":4765:7188  if (msg.sender == listaCoches[i].idPiloto) {\r... */\n    tag_203:\n        /* \"contracts/CarreraCoches/principal.sol\":4706:4709  i++ */\n      dup1\n      dup1\n      tag_289\n      swap1\n      tag_130\n      jump\t// in\n    tag_289:\n      swap2\n      pop\n      pop\n        /* \"contracts/CarreraCoches/principal.sol\":4666:7221  for(uint i = 0; i < listaCoches.length; i++){\r... */\n      jump(tag_197)\n    tag_198:\n      pop\n        /* \"contracts/CarreraCoches/principal.sol\":4126:7232  {\r... */\n      pop\n      pop\n      pop\n      pop\n        /* \"contracts/CarreraCoches/principal.sol\":3986:7232  if(listaCoches.length <= 1){\r... */\n    tag_187:\n        /* \"contracts/CarreraCoches/principal.sol\":3892:7238  function Apostar(uint dineroApostar) public payable returns(string memory) {\r... */\n    tag_183:\n      swap2\n      swap1\n      pop\n      jump\t// out\n        /* \"contracts/CarreraCoches/cocheToken.sol\":195:331  function balanceOf(address _owner) public override view returns (uint256 _balance) {\r... */\n    tag_69:\n        /* \"contracts/CarreraCoches/cocheToken.sol\":260:276  uint256 _balance */\n      0x00\n        /* \"contracts/CarreraCoches/cocheToken.sol\":296:315  numeroCochesPersona */\n      0x08\n        /* \"contracts/CarreraCoches/cocheToken.sol\":296:323  numeroCochesPersona[_owner] */\n      0x00\n        /* \"contracts/CarreraCoches/cocheToken.sol\":316:322  _owner */\n      dup4\n        /* \"contracts/CarreraCoches/cocheToken.sol\":296:323  numeroCochesPersona[_owner] */\n      0xffffffffffffffffffffffffffffffffffffffff\n      and\n      0xffffffffffffffffffffffffffffffffffffffff\n      and\n      dup2\n      mstore\n      0x20\n      add\n      swap1\n      dup2\n      mstore\n      0x20\n      add\n      0x00\n      keccak256\n      sload\n        /* \"contracts/CarreraCoches/cocheToken.sol\":289:323  return numeroCochesPersona[_owner] */\n      swap1\n      pop\n        /* \"contracts/CarreraCoches/cocheToken.sol\":195:331  function balanceOf(address _owner) public override view returns (uint256 _balance) {\r... */\n      swap2\n      swap1\n      pop\n      jump\t// out\n        /* \"contracts/CarreraCoches/ownable.sol\":1719:1822  function renounceOwnership() public virtual onlyOwner {\r... */\n    tag_73:\n        /* \"contracts/CarreraCoches/ownable.sol\":1299:1311  _msgSender() */\n      tag_292\n        /* \"contracts/CarreraCoches/ownable.sol\":1299:1309  _msgSender */\n      tag_293\n        /* \"contracts/CarreraCoches/ownable.sol\":1299:1311  _msgSender() */\n      jump\t// in\n    tag_292:\n        /* \"contracts/CarreraCoches/ownable.sol\":1288:1311  owner() == _msgSender() */\n      0xffffffffffffffffffffffffffffffffffffffff\n      and\n        /* \"contracts/CarreraCoches/ownable.sol\":1288:1295  owner() */\n      tag_294\n        /* \"contracts/CarreraCoches/ownable.sol\":1288:1293  owner */\n      tag_81\n        /* \"contracts/CarreraCoches/ownable.sol\":1288:1295  owner() */\n      jump\t// in\n    tag_294:\n        /* \"contracts/CarreraCoches/ownable.sol\":1288:1311  owner() == _msgSender() */\n      0xffffffffffffffffffffffffffffffffffffffff\n      and\n      eq\n        /* \"contracts/CarreraCoches/ownable.sol\":1280:1348  require(owner() == _msgSender(), \"Ownable: caller is not the owner\") */\n      tag_295\n      jumpi\n      mload(0x40)\n      0x08c379a000000000000000000000000000000000000000000000000000000000\n      dup2\n      mstore\n      0x04\n      add\n      tag_296\n      swap1\n      tag_297\n      jump\t// in\n    tag_296:\n      mload(0x40)\n      dup1\n      swap2\n      sub\n      swap1\n      revert\n    tag_295:\n        /* \"contracts/CarreraCoches/ownable.sol\":1784:1814  _transferOwnership(address(0)) */\n      tag_299\n        /* \"contracts/CarreraCoches/ownable.sol\":1811:1812  0 */\n      0x00\n        /* \"contracts/CarreraCoches/ownable.sol\":1784:1802  _transferOwnership */\n      tag_300\n        /* \"contracts/CarreraCoches/ownable.sol\":1784:1814  _transferOwnership(address(0)) */\n      jump\t// in\n    tag_299:\n        /* \"contracts/CarreraCoches/ownable.sol\":1719:1822  function renounceOwnership() public virtual onlyOwner {\r... */\n      jump\t// out\n        /* \"contracts/CarreraCoches/principal.sol\":1019:1070  mapping (uint => address) public cocheDePropietario */\n    tag_77:\n      mstore(0x20, 0x07)\n      dup1\n      0x00\n      mstore\n      keccak256(0x00, 0x40)\n      0x00\n      swap2\n      pop\n      sload\n      swap1\n      0x0100\n      exp\n      swap1\n      div\n      0xffffffffffffffffffffffffffffffffffffffff\n      and\n      dup2\n      jump\t// out\n        /* \"contracts/CarreraCoches/ownable.sol\":1068:1155  function owner() public view virtual returns (address) {\r... */\n    tag_81:\n        /* \"contracts/CarreraCoches/ownable.sol\":1114:1121  address */\n      0x00\n        /* \"contracts/CarreraCoches/ownable.sol\":1141:1147  _owner */\n      dup1\n      0x00\n      swap1\n      sload\n      swap1\n      0x0100\n      exp\n      swap1\n      div\n      0xffffffffffffffffffffffffffffffffffffffff\n      and\n        /* \"contracts/CarreraCoches/ownable.sol\":1134:1147  return _owner */\n      swap1\n      pop\n        /* \"contracts/CarreraCoches/ownable.sol\":1068:1155  function owner() public view virtual returns (address) {\r... */\n      swap1\n      jump\t// out\n        /* \"contracts/CarreraCoches/cocheToken.sol\":768:910  function transfer(address _to, uint256 _tokenId) public override onlyOwnerOf(_tokenId) {\r... */\n    tag_86:\n        /* \"contracts/CarreraCoches/cocheToken.sol\":845:853  _tokenId */\n      dup1\n        /* \"contracts/CarreraCoches/principal.sol\":1401:1419  cocheDePropietario */\n      0x07\n        /* \"contracts/CarreraCoches/principal.sol\":1401:1427  cocheDePropietario[_coche] */\n      0x00\n        /* \"contracts/CarreraCoches/principal.sol\":1420:1426  _coche */\n      dup3\n        /* \"contracts/CarreraCoches/principal.sol\":1401:1427  cocheDePropietario[_coche] */\n      dup2\n      mstore\n      0x20\n      add\n      swap1\n      dup2\n      mstore\n      0x20\n      add\n      0x00\n      keccak256\n      0x00\n      swap1\n      sload\n      swap1\n      0x0100\n      exp\n      swap1\n      div\n      0xffffffffffffffffffffffffffffffffffffffff\n      and\n        /* \"contracts/CarreraCoches/principal.sol\":1387:1427  msg.sender == cocheDePropietario[_coche] */\n      0xffffffffffffffffffffffffffffffffffffffff\n      and\n        /* \"contracts/CarreraCoches/principal.sol\":1387:1397  msg.sender */\n      caller\n        /* \"contracts/CarreraCoches/principal.sol\":1387:1427  msg.sender == cocheDePropietario[_coche] */\n      0xffffffffffffffffffffffffffffffffffffffff\n      and\n      eq\n        /* \"contracts/CarreraCoches/principal.sol\":1379:1428  require(msg.sender == cocheDePropietario[_coche]) */\n      tag_303\n      jumpi\n      0x00\n      dup1\n      revert\n    tag_303:\n        /* \"contracts/CarreraCoches/cocheToken.sol\":866:902  _transfer(msg.sender, _to, _tokenId) */\n      tag_305\n        /* \"contracts/CarreraCoches/cocheToken.sol\":876:886  msg.sender */\n      caller\n        /* \"contracts/CarreraCoches/cocheToken.sol\":888:891  _to */\n      dup5\n        /* \"contracts/CarreraCoches/cocheToken.sol\":893:901  _tokenId */\n      dup5\n        /* \"contracts/CarreraCoches/cocheToken.sol\":866:875  _transfer */\n      tag_306\n        /* \"contracts/CarreraCoches/cocheToken.sol\":866:902  _transfer(msg.sender, _to, _tokenId) */\n      jump\t// in\n    tag_305:\n        /* \"contracts/CarreraCoches/cocheToken.sol\":768:910  function transfer(address _to, uint256 _tokenId) public override onlyOwnerOf(_tokenId) {\r... */\n      pop\n      pop\n      pop\n      jump\t// out\n        /* \"contracts/CarreraCoches/ownable.sol\":701:722  address public _owner */\n    tag_89:\n      0x00\n      dup1\n      sload\n      swap1\n      0x0100\n      exp\n      swap1\n      div\n      0xffffffffffffffffffffffffffffffffffffffff\n      and\n      dup2\n      jump\t// out\n        /* \"contracts/CarreraCoches/cocheToken.sol\":1120:1356  function takeOwnership(uint256 _tokenId) public override {\r... */\n    tag_94:\n        /* \"contracts/CarreraCoches/cocheToken.sol\":1232:1242  msg.sender */\n      caller\n        /* \"contracts/CarreraCoches/cocheToken.sol\":1196:1242  confirmarTransferencia[_tokenId] == msg.sender */\n      0xffffffffffffffffffffffffffffffffffffffff\n      and\n        /* \"contracts/CarreraCoches/cocheToken.sol\":1196:1218  confirmarTransferencia */\n      0x09\n        /* \"contracts/CarreraCoches/cocheToken.sol\":1196:1228  confirmarTransferencia[_tokenId] */\n      0x00\n        /* \"contracts/CarreraCoches/cocheToken.sol\":1219:1227  _tokenId */\n      dup4\n        /* \"contracts/CarreraCoches/cocheToken.sol\":1196:1228  confirmarTransferencia[_tokenId] */\n      dup2\n      mstore\n      0x20\n      add\n      swap1\n      dup2\n      mstore\n      0x20\n      add\n      0x00\n      keccak256\n      0x00\n      swap1\n      sload\n      swap1\n      0x0100\n      exp\n      swap1\n      div\n      0xffffffffffffffffffffffffffffffffffffffff\n      and\n        /* \"contracts/CarreraCoches/cocheToken.sol\":1196:1242  confirmarTransferencia[_tokenId] == msg.sender */\n      0xffffffffffffffffffffffffffffffffffffffff\n      and\n      eq\n        /* \"contracts/CarreraCoches/cocheToken.sol\":1188:1243  require(confirmarTransferencia[_tokenId] == msg.sender) */\n      tag_308\n      jumpi\n      0x00\n      dup1\n      revert\n    tag_308:\n        /* \"contracts/CarreraCoches/cocheToken.sol\":1254:1273  address propietario */\n      0x00\n        /* \"contracts/CarreraCoches/cocheToken.sol\":1276:1293  ownerOf(_tokenId) */\n      tag_309\n        /* \"contracts/CarreraCoches/cocheToken.sol\":1284:1292  _tokenId */\n      dup3\n        /* \"contracts/CarreraCoches/cocheToken.sol\":1276:1283  ownerOf */\n      tag_55\n        /* \"contracts/CarreraCoches/cocheToken.sol\":1276:1293  ownerOf(_tokenId) */\n      jump\t// in\n    tag_309:\n        /* \"contracts/CarreraCoches/cocheToken.sol\":1254:1293  address propietario = ownerOf(_tokenId) */\n      swap1\n      pop\n        /* \"contracts/CarreraCoches/cocheToken.sol\":1304:1348  _transfer(propietario, msg.sender, _tokenId) */\n      tag_310\n        /* \"contracts/CarreraCoches/cocheToken.sol\":1314:1325  propietario */\n      dup2\n        /* \"contracts/CarreraCoches/cocheToken.sol\":1327:1337  msg.sender */\n      caller\n        /* \"contracts/CarreraCoches/cocheToken.sol\":1339:1347  _tokenId */\n      dup5\n        /* \"contracts/CarreraCoches/cocheToken.sol\":1304:1313  _transfer */\n      tag_306\n        /* \"contracts/CarreraCoches/cocheToken.sol\":1304:1348  _transfer(propietario, msg.sender, _tokenId) */\n      jump\t// in\n    tag_310:\n        /* \"contracts/CarreraCoches/cocheToken.sol\":1177:1356  {\r... */\n      pop\n        /* \"contracts/CarreraCoches/cocheToken.sol\":1120:1356  function takeOwnership(uint256 _tokenId) public override {\r... */\n      pop\n      jump\t// out\n        /* \"contracts/CarreraCoches/principal.sol\":752:778  Coche[] public listaCoches */\n    tag_98:\n      0x06\n      dup2\n      dup2\n      sload\n      dup2\n      lt\n      tag_311\n      jumpi\n      0x00\n      dup1\n      revert\n    tag_311:\n      swap1\n      0x00\n      mstore\n      keccak256(0x00, 0x20)\n      swap1\n      0x08\n      mul\n      add\n      0x00\n      swap2\n      pop\n      swap1\n      pop\n      dup1\n      0x00\n      add\n      0x00\n      swap1\n      sload\n      swap1\n      0x0100\n      exp\n      swap1\n      div\n      0xffffffffffffffffffffffffffffffffffffffff\n      and\n      swap1\n      dup1\n      0x01\n      add\n      dup1\n      sload\n      tag_313\n      swap1\n      tag_314\n      jump\t// in\n    tag_313:\n      dup1\n      0x1f\n      add\n      0x20\n      dup1\n      swap2\n      div\n      mul\n      0x20\n      add\n      mload(0x40)\n      swap1\n      dup2\n      add\n      0x40\n      mstore\n      dup1\n      swap3\n      swap2\n      swap1\n      dup2\n      dup2\n      mstore\n      0x20\n      add\n      dup3\n      dup1\n      sload\n      tag_315\n      swap1\n      tag_314\n      jump\t// in\n    tag_315:\n      dup1\n      iszero\n      tag_316\n      jumpi\n      dup1\n      0x1f\n      lt\n      tag_317\n      jumpi\n      0x0100\n      dup1\n      dup4\n      sload\n      div\n      mul\n      dup4\n      mstore\n      swap2\n      0x20\n      add\n      swap2\n      jump(tag_316)\n    tag_317:\n      dup3\n      add\n      swap2\n      swap1\n      0x00\n      mstore\n      keccak256(0x00, 0x20)\n      swap1\n    tag_318:\n      dup2\n      sload\n      dup2\n      mstore\n      swap1\n      0x01\n      add\n      swap1\n      0x20\n      add\n      dup1\n      dup4\n      gt\n      tag_318\n      jumpi\n      dup3\n      swap1\n      sub\n      0x1f\n      and\n      dup3\n      add\n      swap2\n    tag_316:\n      pop\n      pop\n      pop\n      pop\n      pop\n      swap1\n      dup1\n      0x02\n      add\n      dup1\n      sload\n      tag_319\n      swap1\n      tag_314\n      jump\t// in\n    tag_319:\n      dup1\n      0x1f\n      add\n      0x20\n      dup1\n      swap2\n      div\n      mul\n      0x20\n      add\n      mload(0x40)\n      swap1\n      dup2\n      add\n      0x40\n      mstore\n      dup1\n      swap3\n      swap2\n      swap1\n      dup2\n      dup2\n      mstore\n      0x20\n      add\n      dup3\n      dup1\n      sload\n      tag_320\n      swap1\n      tag_314\n      jump\t// in\n    tag_320:\n      dup1\n      iszero\n      tag_321\n      jumpi\n      dup1\n      0x1f\n      lt\n      tag_322\n      jumpi\n      0x0100\n      dup1\n      dup4\n      sload\n      div\n      mul\n      dup4\n      mstore\n      swap2\n      0x20\n      add\n      swap2\n      jump(tag_321)\n    tag_322:\n      dup3\n      add\n      swap2\n      swap1\n      0x00\n      mstore\n      keccak256(0x00, 0x20)\n      swap1\n    tag_323:\n      dup2\n      sload\n      dup2\n      mstore\n      swap1\n      0x01\n      add\n      swap1\n      0x20\n      add\n      dup1\n      dup4\n      gt\n      tag_323\n      jumpi\n      dup3\n      swap1\n      sub\n      0x1f\n      and\n      dup3\n      add\n      swap2\n    tag_321:\n      pop\n      pop\n      pop\n      pop\n      pop\n      swap1\n      dup1\n      0x03\n      add\n      dup1\n      sload\n      tag_324\n      swap1\n      tag_314\n      jump\t// in\n    tag_324:\n      dup1\n      0x1f\n      add\n      0x20\n      dup1\n      swap2\n      div\n      mul\n      0x20\n      add\n      mload(0x40)\n      swap1\n      dup2\n      add\n      0x40\n      mstore\n      dup1\n      swap3\n      swap2\n      swap1\n      dup2\n      dup2\n      mstore\n      0x20\n      add\n      dup3\n      dup1\n      sload\n      tag_325\n      swap1\n      tag_314\n      jump\t// in\n    tag_325:\n      dup1\n      iszero\n      tag_326\n      jumpi\n      dup1\n      0x1f\n      lt\n      tag_327\n      jumpi\n      0x0100\n      dup1\n      dup4\n      sload\n      div\n      mul\n      dup4\n      mstore\n      swap2\n      0x20\n      add\n      swap2\n      jump(tag_326)\n    tag_327:\n      dup3\n      add\n      swap2\n      swap1\n      0x00\n      mstore\n      keccak256(0x00, 0x20)\n      swap1\n    tag_328:\n      dup2\n      sload\n      dup2\n      mstore\n      swap1\n      0x01\n      add\n      swap1\n      0x20\n      add\n      dup1\n      dup4\n      gt\n      tag_328\n      jumpi\n      dup3\n      swap1\n      sub\n      0x1f\n      and\n      dup3\n      add\n      swap2\n    tag_326:\n      pop\n      pop\n      pop\n      pop\n      pop\n      swap1\n      dup1\n      0x04\n      add\n      sload\n      swap1\n      dup1\n      0x05\n      add\n      sload\n      swap1\n      dup1\n      0x06\n      add\n      sload\n      swap1\n      dup1\n      0x07\n      add\n      0x00\n      swap1\n      sload\n      swap1\n      0x0100\n      exp\n      swap1\n      div\n      0xffffffff\n      and\n      swap1\n      pop\n      dup9\n      jump\t// out\n        /* \"contracts/CarreraCoches/principal.sol\":2913:3289  function verCochePropietario(address _propietario) external {\r... */\n    tag_104:\n        /* \"contracts/CarreraCoches/principal.sol\":2988:2994  uint i */\n      0x00\n        /* \"contracts/CarreraCoches/principal.sol\":2984:3282  for(uint i = 0; i < listaCoches.length; i++){\r... */\n    tag_330:\n        /* \"contracts/CarreraCoches/principal.sol\":3004:3015  listaCoches */\n      0x06\n        /* \"contracts/CarreraCoches/principal.sol\":3004:3022  listaCoches.length */\n      dup1\n      sload\n      swap1\n      pop\n        /* \"contracts/CarreraCoches/principal.sol\":3000:3001  i */\n      dup2\n        /* \"contracts/CarreraCoches/principal.sol\":3000:3022  i < listaCoches.length */\n      lt\n        /* \"contracts/CarreraCoches/principal.sol\":2984:3282  for(uint i = 0; i < listaCoches.length; i++){\r... */\n      iszero\n      tag_331\n      jumpi\n        /* \"contracts/CarreraCoches/principal.sol\":3071:3083  _propietario */\n      dup2\n        /* \"contracts/CarreraCoches/principal.sol\":3046:3083  listaCoches[i].idPiloto==_propietario */\n      0xffffffffffffffffffffffffffffffffffffffff\n      and\n        /* \"contracts/CarreraCoches/principal.sol\":3046:3057  listaCoches */\n      0x06\n        /* \"contracts/CarreraCoches/principal.sol\":3058:3059  i */\n      dup3\n        /* \"contracts/CarreraCoches/principal.sol\":3046:3060  listaCoches[i] */\n      dup2\n      sload\n      dup2\n      lt\n      tag_333\n      jumpi\n      tag_334\n      tag_117\n      jump\t// in\n    tag_334:\n    tag_333:\n      swap1\n      0x00\n      mstore\n      keccak256(0x00, 0x20)\n      swap1\n      0x08\n      mul\n      add\n        /* \"contracts/CarreraCoches/principal.sol\":3046:3069  listaCoches[i].idPiloto */\n      0x00\n      add\n      0x00\n      swap1\n      sload\n      swap1\n      0x0100\n      exp\n      swap1\n      div\n      0xffffffffffffffffffffffffffffffffffffffff\n      and\n        /* \"contracts/CarreraCoches/principal.sol\":3046:3083  listaCoches[i].idPiloto==_propietario */\n      0xffffffffffffffffffffffffffffffffffffffff\n      and\n      eq\n        /* \"contracts/CarreraCoches/principal.sol\":3043:3271  if(listaCoches[i].idPiloto==_propietario){\r... */\n      iszero\n      tag_336\n      jumpi\n        /* \"contracts/CarreraCoches/principal.sol\":3108:3255  cochePropietario(listaCoches[i].marca, listaCoches[i].modelo, listaCoches[i].nivel, listaCoches[i].carrerasGanadas, listaCoches[i].carrerasTotales) */\n      0x20fdb8ab571bfbab79104bea84f9c31cb79c5ae45b5f515c1d6c8393e0028350\n        /* \"contracts/CarreraCoches/principal.sol\":3125:3136  listaCoches */\n      0x06\n        /* \"contracts/CarreraCoches/principal.sol\":3137:3138  i */\n      dup3\n        /* \"contracts/CarreraCoches/principal.sol\":3125:3139  listaCoches[i] */\n      dup2\n      sload\n      dup2\n      lt\n      tag_337\n      jumpi\n      tag_338\n      tag_117\n      jump\t// in\n    tag_338:\n    tag_337:\n      swap1\n      0x00\n      mstore\n      keccak256(0x00, 0x20)\n      swap1\n      0x08\n      mul\n      add\n        /* \"contracts/CarreraCoches/principal.sol\":3125:3145  listaCoches[i].marca */\n      0x02\n      add\n        /* \"contracts/CarreraCoches/principal.sol\":3147:3158  listaCoches */\n      0x06\n        /* \"contracts/CarreraCoches/principal.sol\":3159:3160  i */\n      dup4\n        /* \"contracts/CarreraCoches/principal.sol\":3147:3161  listaCoches[i] */\n      dup2\n      sload\n      dup2\n      lt\n      tag_340\n      jumpi\n      tag_341\n      tag_117\n      jump\t// in\n    tag_341:\n    tag_340:\n      swap1\n      0x00\n      mstore\n      keccak256(0x00, 0x20)\n      swap1\n      0x08\n      mul\n      add\n        /* \"contracts/CarreraCoches/principal.sol\":3147:3168  listaCoches[i].modelo */\n      0x01\n      add\n        /* \"contracts/CarreraCoches/principal.sol\":3170:3181  listaCoches */\n      0x06\n        /* \"contracts/CarreraCoches/principal.sol\":3182:3183  i */\n      dup5\n        /* \"contracts/CarreraCoches/principal.sol\":3170:3184  listaCoches[i] */\n      dup2\n      sload\n      dup2\n      lt\n      tag_343\n      jumpi\n      tag_344\n      tag_117\n      jump\t// in\n    tag_344:\n    tag_343:\n      swap1\n      0x00\n      mstore\n      keccak256(0x00, 0x20)\n      swap1\n      0x08\n      mul\n      add\n        /* \"contracts/CarreraCoches/principal.sol\":3170:3190  listaCoches[i].nivel */\n      0x07\n      add\n      0x00\n      swap1\n      sload\n      swap1\n      0x0100\n      exp\n      swap1\n      div\n      0xffffffff\n      and\n        /* \"contracts/CarreraCoches/principal.sol\":3192:3203  listaCoches */\n      0x06\n        /* \"contracts/CarreraCoches/principal.sol\":3204:3205  i */\n      dup6\n        /* \"contracts/CarreraCoches/principal.sol\":3192:3206  listaCoches[i] */\n      dup2\n      sload\n      dup2\n      lt\n      tag_346\n      jumpi\n      tag_347\n      tag_117\n      jump\t// in\n    tag_347:\n    tag_346:\n      swap1\n      0x00\n      mstore\n      keccak256(0x00, 0x20)\n      swap1\n      0x08\n      mul\n      add\n        /* \"contracts/CarreraCoches/principal.sol\":3192:3222  listaCoches[i].carrerasGanadas */\n      0x04\n      add\n      sload\n        /* \"contracts/CarreraCoches/principal.sol\":3224:3235  listaCoches */\n      0x06\n        /* \"contracts/CarreraCoches/principal.sol\":3236:3237  i */\n      dup7\n        /* \"contracts/CarreraCoches/principal.sol\":3224:3238  listaCoches[i] */\n      dup2\n      sload\n      dup2\n      lt\n      tag_349\n      jumpi\n      tag_350\n      tag_117\n      jump\t// in\n    tag_350:\n    tag_349:\n      swap1\n      0x00\n      mstore\n      keccak256(0x00, 0x20)\n      swap1\n      0x08\n      mul\n      add\n        /* \"contracts/CarreraCoches/principal.sol\":3224:3254  listaCoches[i].carrerasTotales */\n      0x05\n      add\n      sload\n        /* \"contracts/CarreraCoches/principal.sol\":3108:3255  cochePropietario(listaCoches[i].marca, listaCoches[i].modelo, listaCoches[i].nivel, listaCoches[i].carrerasGanadas, listaCoches[i].carrerasTotales) */\n      mload(0x40)\n      tag_352\n      swap6\n      swap5\n      swap4\n      swap3\n      swap2\n      swap1\n      tag_353\n      jump\t// in\n    tag_352:\n      mload(0x40)\n      dup1\n      swap2\n      sub\n      swap1\n      log1\n        /* \"contracts/CarreraCoches/principal.sol\":3043:3271  if(listaCoches[i].idPiloto==_propietario){\r... */\n    tag_336:\n        /* \"contracts/CarreraCoches/principal.sol\":3024:3027  i++ */\n      dup1\n      dup1\n      tag_354\n      swap1\n      tag_130\n      jump\t// in\n    tag_354:\n      swap2\n      pop\n      pop\n        /* \"contracts/CarreraCoches/principal.sol\":2984:3282  for(uint i = 0; i < listaCoches.length; i++){\r... */\n      jump(tag_330)\n    tag_331:\n      pop\n        /* \"contracts/CarreraCoches/principal.sol\":2913:3289  function verCochePropietario(address _propietario) external {\r... */\n      pop\n      jump\t// out\n        /* \"contracts/CarreraCoches/ownable.sol\":1977:2178  function transferOwnership(address newOwner) public virtual onlyOwner {\r... */\n    tag_108:\n        /* \"contracts/CarreraCoches/ownable.sol\":1299:1311  _msgSender() */\n      tag_356\n        /* \"contracts/CarreraCoches/ownable.sol\":1299:1309  _msgSender */\n      tag_293\n        /* \"contracts/CarreraCoches/ownable.sol\":1299:1311  _msgSender() */\n      jump\t// in\n    tag_356:\n        /* \"contracts/CarreraCoches/ownable.sol\":1288:1311  owner() == _msgSender() */\n      0xffffffffffffffffffffffffffffffffffffffff\n      and\n        /* \"contracts/CarreraCoches/ownable.sol\":1288:1295  owner() */\n      tag_357\n        /* \"contracts/CarreraCoches/ownable.sol\":1288:1293  owner */\n      tag_81\n        /* \"contracts/CarreraCoches/ownable.sol\":1288:1295  owner() */\n      jump\t// in\n    tag_357:\n        /* \"contracts/CarreraCoches/ownable.sol\":1288:1311  owner() == _msgSender() */\n      0xffffffffffffffffffffffffffffffffffffffff\n      and\n      eq\n        /* \"contracts/CarreraCoches/ownable.sol\":1280:1348  require(owner() == _msgSender(), \"Ownable: caller is not the owner\") */\n      tag_358\n      jumpi\n      mload(0x40)\n      0x08c379a000000000000000000000000000000000000000000000000000000000\n      dup2\n      mstore\n      0x04\n      add\n      tag_359\n      swap1\n      tag_297\n      jump\t// in\n    tag_359:\n      mload(0x40)\n      dup1\n      swap2\n      sub\n      swap1\n      revert\n    tag_358:\n        /* \"contracts/CarreraCoches/ownable.sol\":2086:2087  0 */\n      0x00\n        /* \"contracts/CarreraCoches/ownable.sol\":2066:2088  newOwner != address(0) */\n      0xffffffffffffffffffffffffffffffffffffffff\n      and\n        /* \"contracts/CarreraCoches/ownable.sol\":2066:2074  newOwner */\n      dup2\n        /* \"contracts/CarreraCoches/ownable.sol\":2066:2088  newOwner != address(0) */\n      0xffffffffffffffffffffffffffffffffffffffff\n      and\n      eq\n      iszero\n        /* \"contracts/CarreraCoches/ownable.sol\":2058:2131  require(newOwner != address(0), \"Ownable: new owner is the zero address\") */\n      tag_361\n      jumpi\n      mload(0x40)\n      0x08c379a000000000000000000000000000000000000000000000000000000000\n      dup2\n      mstore\n      0x04\n      add\n      tag_362\n      swap1\n      tag_363\n      jump\t// in\n    tag_362:\n      mload(0x40)\n      dup1\n      swap2\n      sub\n      swap1\n      revert\n    tag_361:\n        /* \"contracts/CarreraCoches/ownable.sol\":2142:2170  _transferOwnership(newOwner) */\n      tag_364\n        /* \"contracts/CarreraCoches/ownable.sol\":2161:2169  newOwner */\n      dup2\n        /* \"contracts/CarreraCoches/ownable.sol\":2142:2160  _transferOwnership */\n      tag_300\n        /* \"contracts/CarreraCoches/ownable.sol\":2142:2170  _transferOwnership(newOwner) */\n      jump\t// in\n    tag_364:\n        /* \"contracts/CarreraCoches/ownable.sol\":1977:2178  function transferOwnership(address newOwner) public virtual onlyOwner {\r... */\n      pop\n      jump\t// out\n        /* \"contracts/CarreraCoches/principal.sol\":2322:2461  function _depositoLleno(Coche storage _coche) internal view returns (bool) {\r... */\n    tag_208:\n        /* \"contracts/CarreraCoches/principal.sol\":2391:2395  bool */\n      0x00\n        /* \"contracts/CarreraCoches/principal.sol\":2438:2453  block.timestamp */\n      timestamp\n        /* \"contracts/CarreraCoches/principal.sol\":2415:2421  _coche */\n      dup3\n        /* \"contracts/CarreraCoches/principal.sol\":2415:2434  _coche.tiempoEspera */\n      0x06\n      add\n      sload\n        /* \"contracts/CarreraCoches/principal.sol\":2415:2453  _coche.tiempoEspera <= block.timestamp */\n      gt\n      iszero\n        /* \"contracts/CarreraCoches/principal.sol\":2408:2453  return _coche.tiempoEspera <= block.timestamp */\n      swap1\n      pop\n        /* \"contracts/CarreraCoches/principal.sol\":2322:2461  function _depositoLleno(Coche storage _coche) internal view returns (bool) {\r... */\n      swap2\n      swap1\n      pop\n      jump\t// out\n        /* \"contracts/CarreraCoches/principal.sol\":2169:2296  function _repostando(Coche storage _coche) internal {\r... */\n    tag_222:\n        /* \"contracts/CarreraCoches/principal.sol\":2279:2287  cooldown */\n      sload(0x03)\n        /* \"contracts/CarreraCoches/principal.sol\":2261:2276  block.timestamp */\n      timestamp\n        /* \"contracts/CarreraCoches/principal.sol\":2261:2287  block.timestamp + cooldown */\n      tag_367\n      swap2\n      swap1\n      tag_158\n      jump\t// in\n    tag_367:\n        /* \"contracts/CarreraCoches/principal.sol\":2232:2288  _coche.tiempoEspera = uint32(block.timestamp + cooldown) */\n      0xffffffff\n      and\n        /* \"contracts/CarreraCoches/principal.sol\":2232:2238  _coche */\n      dup2\n        /* \"contracts/CarreraCoches/principal.sol\":2232:2251  _coche.tiempoEspera */\n      0x06\n      add\n        /* \"contracts/CarreraCoches/principal.sol\":2232:2288  _coche.tiempoEspera = uint32(block.timestamp + cooldown) */\n      dup2\n      swap1\n      sstore\n      pop\n        /* \"contracts/CarreraCoches/principal.sol\":2169:2296  function _repostando(Coche storage _coche) internal {\r... */\n      pop\n      jump\t// out\n        /* \"contracts/CarreraCoches/principal.sol\":7295:7393  function balance() private {\r... */\n    tag_232:\n        /* \"contracts/CarreraCoches/principal.sol\":7342:7352  msg.sender */\n      caller\n        /* \"contracts/CarreraCoches/principal.sol\":7333:7362  payable (msg.sender).transfer */\n      0xffffffffffffffffffffffffffffffffffffffff\n      and\n        /* \"contracts/CarreraCoches/principal.sol\":7333:7385  payable (msg.sender).transfer(address(this).balance) */\n      0x08fc\n        /* \"contracts/CarreraCoches/principal.sol\":7363:7384  address(this).balance */\n      selfbalance\n        /* \"contracts/CarreraCoches/principal.sol\":7333:7385  payable (msg.sender).transfer(address(this).balance) */\n      swap1\n      dup2\n      iszero\n      mul\n      swap1\n      mload(0x40)\n      0x00\n      mload(0x40)\n      dup1\n      dup4\n      sub\n      dup2\n      dup6\n      dup9\n      dup9\n      call\n      swap4\n      pop\n      pop\n      pop\n      pop\n      iszero\n      dup1\n      iszero\n      tag_370\n      jumpi\n      returndatasize\n      0x00\n      dup1\n      returndatacopy\n      revert(0x00, returndatasize)\n    tag_370:\n      pop\n        /* \"contracts/CarreraCoches/principal.sol\":7295:7393  function balance() private {\r... */\n      jump\t// out\n        /* \"contracts/CarreraCoches/utils/Context.sol\":656:754  function _msgSender() internal view virtual returns (address) {\r... */\n    tag_293:\n        /* \"contracts/CarreraCoches/utils/Context.sol\":709:716  address */\n      0x00\n        /* \"contracts/CarreraCoches/utils/Context.sol\":736:746  msg.sender */\n      caller\n        /* \"contracts/CarreraCoches/utils/Context.sol\":729:746  return msg.sender */\n      swap1\n      pop\n        /* \"contracts/CarreraCoches/utils/Context.sol\":656:754  function _msgSender() internal view virtual returns (address) {\r... */\n      swap1\n      jump\t// out\n        /* \"contracts/CarreraCoches/ownable.sol\":2338:2529  function _transferOwnership(address newOwner) internal virtual {\r... */\n    tag_300:\n        /* \"contracts/CarreraCoches/ownable.sol\":2412:2428  address oldOwner */\n      0x00\n        /* \"contracts/CarreraCoches/ownable.sol\":2431:2437  _owner */\n      dup1\n      0x00\n      swap1\n      sload\n      swap1\n      0x0100\n      exp\n      swap1\n      div\n      0xffffffffffffffffffffffffffffffffffffffff\n      and\n        /* \"contracts/CarreraCoches/ownable.sol\":2412:2437  address oldOwner = _owner */\n      swap1\n      pop\n        /* \"contracts/CarreraCoches/ownable.sol\":2457:2465  newOwner */\n      dup2\n        /* \"contracts/CarreraCoches/ownable.sol\":2448:2454  _owner */\n      0x00\n      dup1\n        /* \"contracts/CarreraCoches/ownable.sol\":2448:2465  _owner = newOwner */\n      0x0100\n      exp\n      dup2\n      sload\n      dup2\n      0xffffffffffffffffffffffffffffffffffffffff\n      mul\n      not\n      and\n      swap1\n      dup4\n      0xffffffffffffffffffffffffffffffffffffffff\n      and\n      mul\n      or\n      swap1\n      sstore\n      pop\n        /* \"contracts/CarreraCoches/ownable.sol\":2512:2520  newOwner */\n      dup2\n        /* \"contracts/CarreraCoches/ownable.sol\":2481:2521  OwnershipTransferred(oldOwner, newOwner) */\n      0xffffffffffffffffffffffffffffffffffffffff\n      and\n        /* \"contracts/CarreraCoches/ownable.sol\":2502:2510  oldOwner */\n      dup2\n        /* \"contracts/CarreraCoches/ownable.sol\":2481:2521  OwnershipTransferred(oldOwner, newOwner) */\n      0xffffffffffffffffffffffffffffffffffffffff\n      and\n      0x8be0079c531659141344cd1fd0a4f28419497f9722a3daafe3b4186f6b6457e0\n      mload(0x40)\n      mload(0x40)\n      dup1\n      swap2\n      sub\n      swap1\n      log3\n        /* \"contracts/CarreraCoches/ownable.sol\":2401:2529  {\r... */\n      pop\n        /* \"contracts/CarreraCoches/ownable.sol\":2338:2529  function _transferOwnership(address newOwner) internal virtual {\r... */\n      pop\n      jump\t// out\n        /* \"contracts/CarreraCoches/cocheToken.sol\":482:760  function _transfer(address _from, address _to, uint256 _tokenId) private {\r... */\n    tag_306:\n        /* \"contracts/CarreraCoches/cocheToken.sol\":566:585  numeroCochesPersona */\n      0x08\n        /* \"contracts/CarreraCoches/cocheToken.sol\":566:590  numeroCochesPersona[_to] */\n      0x00\n        /* \"contracts/CarreraCoches/cocheToken.sol\":586:589  _to */\n      dup4\n        /* \"contracts/CarreraCoches/cocheToken.sol\":566:590  numeroCochesPersona[_to] */\n      0xffffffffffffffffffffffffffffffffffffffff\n      and\n      0xffffffffffffffffffffffffffffffffffffffff\n      and\n      dup2\n      mstore\n      0x20\n      add\n      swap1\n      dup2\n      mstore\n      0x20\n      add\n      0x00\n      keccak256\n      0x00\n        /* \"contracts/CarreraCoches/cocheToken.sol\":566:592  numeroCochesPersona[_to]++ */\n      dup2\n      sload\n      dup1\n      swap3\n      swap2\n      swap1\n      tag_374\n      swap1\n      tag_130\n      jump\t// in\n    tag_374:\n      swap2\n      swap1\n      pop\n      sstore\n      pop\n        /* \"contracts/CarreraCoches/cocheToken.sol\":603:622  numeroCochesPersona */\n      0x08\n        /* \"contracts/CarreraCoches/cocheToken.sol\":603:629  numeroCochesPersona[_from] */\n      0x00\n        /* \"contracts/CarreraCoches/cocheToken.sol\":623:628  _from */\n      dup5\n        /* \"contracts/CarreraCoches/cocheToken.sol\":603:629  numeroCochesPersona[_from] */\n      0xffffffffffffffffffffffffffffffffffffffff\n      and\n      0xffffffffffffffffffffffffffffffffffffffff\n      and\n      dup2\n      mstore\n      0x20\n      add\n      swap1\n      dup2\n      mstore\n      0x20\n      add\n      0x00\n      keccak256\n      0x00\n        /* \"contracts/CarreraCoches/cocheToken.sol\":603:631  numeroCochesPersona[_from]-- */\n      dup2\n      sload\n      dup1\n      swap3\n      swap2\n      swap1\n      tag_375\n      swap1\n      tag_376\n      jump\t// in\n    tag_375:\n      swap2\n      swap1\n      pop\n      sstore\n      pop\n        /* \"contracts/CarreraCoches/cocheToken.sol\":674:677  _to */\n      dup2\n        /* \"contracts/CarreraCoches/cocheToken.sol\":642:677  cocheDePropietario[_tokenId] == _to */\n      0xffffffffffffffffffffffffffffffffffffffff\n      and\n        /* \"contracts/CarreraCoches/cocheToken.sol\":642:660  cocheDePropietario */\n      0x07\n        /* \"contracts/CarreraCoches/cocheToken.sol\":642:670  cocheDePropietario[_tokenId] */\n      0x00\n        /* \"contracts/CarreraCoches/cocheToken.sol\":661:669  _tokenId */\n      dup4\n        /* \"contracts/CarreraCoches/cocheToken.sol\":642:670  cocheDePropietario[_tokenId] */\n      dup2\n      mstore\n      0x20\n      add\n      swap1\n      dup2\n      mstore\n      0x20\n      add\n      0x00\n      keccak256\n      0x00\n      swap1\n      sload\n      swap1\n      0x0100\n      exp\n      swap1\n      pop\n      pop\n        /* \"contracts/CarreraCoches/cocheToken.sol\":642:677  cocheDePropietario[_tokenId] == _to */\n      pop\n        /* \"contracts/CarreraCoches/cocheToken.sol\":709:712  _to */\n      dup2\n        /* \"contracts/CarreraCoches/cocheToken.sol\":693:723  Transfer(_from, _to, _tokenId) */\n      0xffffffffffffffffffffffffffffffffffffffff\n      and\n        /* \"contracts/CarreraCoches/cocheToken.sol\":702:707  _from */\n      dup4\n        /* \"contracts/CarreraCoches/cocheToken.sol\":693:723  Transfer(_from, _to, _tokenId) */\n      0xffffffffffffffffffffffffffffffffffffffff\n      and\n      0xddf252ad1be2c89b69c2b068fc378daa952ba7f163c4a11628f55a4df523b3ef\n        /* \"contracts/CarreraCoches/cocheToken.sol\":714:722  _tokenId */\n      dup4\n        /* \"contracts/CarreraCoches/cocheToken.sol\":693:723  Transfer(_from, _to, _tokenId) */\n      mload(0x40)\n      tag_377\n      swap2\n      swap1\n      tag_44\n      jump\t// in\n    tag_377:\n      mload(0x40)\n      dup1\n      swap2\n      sub\n      swap1\n      log3\n        /* \"contracts/CarreraCoches/cocheToken.sol\":734:752  borrarCoche(_from) */\n      tag_378\n        /* \"contracts/CarreraCoches/cocheToken.sol\":746:751  _from */\n      dup4\n        /* \"contracts/CarreraCoches/cocheToken.sol\":734:745  borrarCoche */\n      tag_38\n        /* \"contracts/CarreraCoches/cocheToken.sol\":734:752  borrarCoche(_from) */\n      jump\t// in\n    tag_378:\n        /* \"contracts/CarreraCoches/cocheToken.sol\":482:760  function _transfer(address _from, address _to, uint256 _tokenId) private {\r... */\n      pop\n      pop\n      pop\n      jump\t// out\n    tag_124:\n      dup3\n      dup1\n      sload\n      tag_379\n      swap1\n      tag_314\n      jump\t// in\n    tag_379:\n      swap1\n      0x00\n      mstore\n      keccak256(0x00, 0x20)\n      swap1\n      0x1f\n      add\n      0x20\n      swap1\n      div\n      dup2\n      add\n      swap3\n      dup3\n      tag_381\n      jumpi\n      0x00\n      dup6\n      sstore\n      jump(tag_380)\n    tag_381:\n      dup3\n      0x1f\n      lt\n      tag_382\n      jumpi\n      dup1\n      mload\n      not(0xff)\n      and\n      dup4\n      dup1\n      add\n      or\n      dup6\n      sstore\n      jump(tag_380)\n    tag_382:\n      dup3\n      dup1\n      add\n      0x01\n      add\n      dup6\n      sstore\n      dup3\n      iszero\n      tag_380\n      jumpi\n      swap2\n      dup3\n      add\n    tag_383:\n      dup3\n      dup2\n      gt\n      iszero\n      tag_384\n      jumpi\n      dup3\n      mload\n      dup3\n      sstore\n      swap2\n      0x20\n      add\n      swap2\n      swap1\n      0x01\n      add\n      swap1\n      jump(tag_383)\n    tag_384:\n    tag_380:\n      pop\n      swap1\n      pop\n      tag_385\n      swap2\n      swap1\n      tag_386\n      jump\t// in\n    tag_385:\n      pop\n      swap1\n      jump\t// out\n    tag_148:\n      pop\n      dup1\n      sload\n      tag_387\n      swap1\n      tag_314\n      jump\t// in\n    tag_387:\n      0x00\n      dup3\n      sstore\n      dup1\n      0x1f\n      lt\n      tag_389\n      jumpi\n      pop\n      jump(tag_388)\n    tag_389:\n      0x1f\n      add\n      0x20\n      swap1\n      div\n      swap1\n      0x00\n      mstore\n      keccak256(0x00, 0x20)\n      swap1\n      dup2\n      add\n      swap1\n      tag_390\n      swap2\n      swap1\n      tag_386\n      jump\t// in\n    tag_390:\n    tag_388:\n      pop\n      jump\t// out\n    tag_386:\n    tag_391:\n      dup1\n      dup3\n      gt\n      iszero\n      tag_392\n      jumpi\n      0x00\n      dup2\n      0x00\n      swap1\n      sstore\n      pop\n      0x01\n      add\n      jump(tag_391)\n    tag_392:\n      pop\n      swap1\n      jump\t// out\n        /* \"#utility.yul\":7:419   */\n    tag_394:\n        /* \"#utility.yul\":85:90   */\n      0x00\n        /* \"#utility.yul\":110:176   */\n      tag_396\n        /* \"#utility.yul\":126:175   */\n      tag_397\n        /* \"#utility.yul\":168:174   */\n      dup5\n        /* \"#utility.yul\":126:175   */\n      tag_398\n      jump\t// in\n    tag_397:\n        /* \"#utility.yul\":110:176   */\n      tag_399\n      jump\t// in\n    tag_396:\n        /* \"#utility.yul\":101:176   */\n      swap1\n      pop\n        /* \"#utility.yul\":199:205   */\n      dup3\n        /* \"#utility.yul\":192:197   */\n      dup2\n        /* \"#utility.yul\":185:206   */\n      mstore\n        /* \"#utility.yul\":237:241   */\n      0x20\n        /* \"#utility.yul\":230:235   */\n      dup2\n        /* \"#utility.yul\":226:242   */\n      add\n        /* \"#utility.yul\":275:278   */\n      dup5\n        /* \"#utility.yul\":266:272   */\n      dup5\n        /* \"#utility.yul\":261:264   */\n      dup5\n        /* \"#utility.yul\":257:273   */\n      add\n        /* \"#utility.yul\":254:279   */\n      gt\n        /* \"#utility.yul\":251:363   */\n      iszero\n      tag_400\n      jumpi\n        /* \"#utility.yul\":282:361   */\n      tag_401\n      tag_402\n      jump\t// in\n    tag_401:\n        /* \"#utility.yul\":251:363   */\n    tag_400:\n        /* \"#utility.yul\":372:413   */\n      tag_403\n        /* \"#utility.yul\":406:412   */\n      dup5\n        /* \"#utility.yul\":401:404   */\n      dup3\n        /* \"#utility.yul\":396:399   */\n      dup6\n        /* \"#utility.yul\":372:413   */\n      tag_404\n      jump\t// in\n    tag_403:\n        /* \"#utility.yul\":91:419   */\n      pop\n        /* \"#utility.yul\":7:419   */\n      swap4\n      swap3\n      pop\n      pop\n      pop\n      jump\t// out\n        /* \"#utility.yul\":425:564   */\n    tag_405:\n        /* \"#utility.yul\":471:476   */\n      0x00\n        /* \"#utility.yul\":509:515   */\n      dup2\n        /* \"#utility.yul\":496:516   */\n      calldataload\n        /* \"#utility.yul\":487:516   */\n      swap1\n      pop\n        /* \"#utility.yul\":525:558   */\n      tag_407\n        /* \"#utility.yul\":552:557   */\n      dup2\n        /* \"#utility.yul\":525:558   */\n      tag_408\n      jump\t// in\n    tag_407:\n        /* \"#utility.yul\":425:564   */\n      swap3\n      swap2\n      pop\n      pop\n      jump\t// out\n        /* \"#utility.yul\":584:924   */\n    tag_409:\n        /* \"#utility.yul\":640:645   */\n      0x00\n        /* \"#utility.yul\":689:692   */\n      dup3\n        /* \"#utility.yul\":682:686   */\n      0x1f\n        /* \"#utility.yul\":674:680   */\n      dup4\n        /* \"#utility.yul\":670:687   */\n      add\n        /* \"#utility.yul\":666:693   */\n      slt\n        /* \"#utility.yul\":656:778   */\n      tag_411\n      jumpi\n        /* \"#utility.yul\":697:776   */\n      tag_412\n      tag_413\n      jump\t// in\n    tag_412:\n        /* \"#utility.yul\":656:778   */\n    tag_411:\n        /* \"#utility.yul\":814:820   */\n      dup2\n        /* \"#utility.yul\":801:821   */\n      calldataload\n        /* \"#utility.yul\":839:918   */\n      tag_414\n        /* \"#utility.yul\":914:917   */\n      dup5\n        /* \"#utility.yul\":906:912   */\n      dup3\n        /* \"#utility.yul\":899:903   */\n      0x20\n        /* \"#utility.yul\":891:897   */\n      dup7\n        /* \"#utility.yul\":887:904   */\n      add\n        /* \"#utility.yul\":839:918   */\n      tag_394\n      jump\t// in\n    tag_414:\n        /* \"#utility.yul\":830:918   */\n      swap2\n      pop\n        /* \"#utility.yul\":646:924   */\n      pop\n        /* \"#utility.yul\":584:924   */\n      swap3\n      swap2\n      pop\n      pop\n      jump\t// out\n        /* \"#utility.yul\":930:1069   */\n    tag_415:\n        /* \"#utility.yul\":976:981   */\n      0x00\n        /* \"#utility.yul\":1014:1020   */\n      dup2\n        /* \"#utility.yul\":1001:1021   */\n      calldataload\n        /* \"#utility.yul\":992:1021   */\n      swap1\n      pop\n        /* \"#utility.yul\":1030:1063   */\n      tag_417\n        /* \"#utility.yul\":1057:1062   */\n      dup2\n        /* \"#utility.yul\":1030:1063   */\n      tag_418\n      jump\t// in\n    tag_417:\n        /* \"#utility.yul\":930:1069   */\n      swap3\n      swap2\n      pop\n      pop\n      jump\t// out\n        /* \"#utility.yul\":1075:1404   */\n    tag_37:\n        /* \"#utility.yul\":1134:1140   */\n      0x00\n        /* \"#utility.yul\":1183:1185   */\n      0x20\n        /* \"#utility.yul\":1171:1180   */\n      dup3\n        /* \"#utility.yul\":1162:1169   */\n      dup5\n        /* \"#utility.yul\":1158:1181   */\n      sub\n        /* \"#utility.yul\":1154:1186   */\n      slt\n        /* \"#utility.yul\":1151:1270   */\n      iszero\n      tag_420\n      jumpi\n        /* \"#utility.yul\":1189:1268   */\n      tag_421\n      tag_422\n      jump\t// in\n    tag_421:\n        /* \"#utility.yul\":1151:1270   */\n    tag_420:\n        /* \"#utility.yul\":1309:1310   */\n      0x00\n        /* \"#utility.yul\":1334:1387   */\n      tag_423\n        /* \"#utility.yul\":1379:1386   */\n      dup5\n        /* \"#utility.yul\":1370:1376   */\n      dup3\n        /* \"#utility.yul\":1359:1368   */\n      dup6\n        /* \"#utility.yul\":1355:1377   */\n      add\n        /* \"#utility.yul\":1334:1387   */\n      tag_405\n      jump\t// in\n    tag_423:\n        /* \"#utility.yul\":1324:1387   */\n      swap2\n      pop\n        /* \"#utility.yul\":1280:1397   */\n      pop\n        /* \"#utility.yul\":1075:1404   */\n      swap3\n      swap2\n      pop\n      pop\n      jump\t// out\n        /* \"#utility.yul\":1410:2389   */\n    tag_25:\n        /* \"#utility.yul\":1507:1513   */\n      0x00\n        /* \"#utility.yul\":1515:1521   */\n      dup1\n        /* \"#utility.yul\":1523:1529   */\n      0x00\n        /* \"#utility.yul\":1572:1574   */\n      0x60\n        /* \"#utility.yul\":1560:1569   */\n      dup5\n        /* \"#utility.yul\":1551:1558   */\n      dup7\n        /* \"#utility.yul\":1547:1570   */\n      sub\n        /* \"#utility.yul\":1543:1575   */\n      slt\n        /* \"#utility.yul\":1540:1659   */\n      iszero\n      tag_425\n      jumpi\n        /* \"#utility.yul\":1578:1657   */\n      tag_426\n      tag_422\n      jump\t// in\n    tag_426:\n        /* \"#utility.yul\":1540:1659   */\n    tag_425:\n        /* \"#utility.yul\":1698:1699   */\n      0x00\n        /* \"#utility.yul\":1723:1776   */\n      tag_427\n        /* \"#utility.yul\":1768:1775   */\n      dup7\n        /* \"#utility.yul\":1759:1765   */\n      dup3\n        /* \"#utility.yul\":1748:1757   */\n      dup8\n        /* \"#utility.yul\":1744:1766   */\n      add\n        /* \"#utility.yul\":1723:1776   */\n      tag_405\n      jump\t// in\n    tag_427:\n        /* \"#utility.yul\":1713:1776   */\n      swap4\n      pop\n        /* \"#utility.yul\":1669:1786   */\n      pop\n        /* \"#utility.yul\":1853:1855   */\n      0x20\n        /* \"#utility.yul\":1842:1851   */\n      dup5\n        /* \"#utility.yul\":1838:1856   */\n      add\n        /* \"#utility.yul\":1825:1857   */\n      calldataload\n        /* \"#utility.yul\":1884:1902   */\n      0xffffffffffffffff\n        /* \"#utility.yul\":1876:1882   */\n      dup2\n        /* \"#utility.yul\":1873:1903   */\n      gt\n        /* \"#utility.yul\":1870:1987   */\n      iszero\n      tag_428\n      jumpi\n        /* \"#utility.yul\":1906:1985   */\n      tag_429\n      tag_430\n      jump\t// in\n    tag_429:\n        /* \"#utility.yul\":1870:1987   */\n    tag_428:\n        /* \"#utility.yul\":2011:2074   */\n      tag_431\n        /* \"#utility.yul\":2066:2073   */\n      dup7\n        /* \"#utility.yul\":2057:2063   */\n      dup3\n        /* \"#utility.yul\":2046:2055   */\n      dup8\n        /* \"#utility.yul\":2042:2064   */\n      add\n        /* \"#utility.yul\":2011:2074   */\n      tag_409\n      jump\t// in\n    tag_431:\n        /* \"#utility.yul\":2001:2074   */\n      swap3\n      pop\n        /* \"#utility.yul\":1796:2084   */\n      pop\n        /* \"#utility.yul\":2151:2153   */\n      0x40\n        /* \"#utility.yul\":2140:2149   */\n      dup5\n        /* \"#utility.yul\":2136:2154   */\n      add\n        /* \"#utility.yul\":2123:2155   */\n      calldataload\n        /* \"#utility.yul\":2182:2200   */\n      0xffffffffffffffff\n        /* \"#utility.yul\":2174:2180   */\n      dup2\n        /* \"#utility.yul\":2171:2201   */\n      gt\n        /* \"#utility.yul\":2168:2285   */\n      iszero\n      tag_432\n      jumpi\n        /* \"#utility.yul\":2204:2283   */\n      tag_433\n      tag_430\n      jump\t// in\n    tag_433:\n        /* \"#utility.yul\":2168:2285   */\n    tag_432:\n        /* \"#utility.yul\":2309:2372   */\n      tag_434\n        /* \"#utility.yul\":2364:2371   */\n      dup7\n        /* \"#utility.yul\":2355:2361   */\n      dup3\n        /* \"#utility.yul\":2344:2353   */\n      dup8\n        /* \"#utility.yul\":2340:2362   */\n      add\n        /* \"#utility.yul\":2309:2372   */\n      tag_409\n      jump\t// in\n    tag_434:\n        /* \"#utility.yul\":2299:2372   */\n      swap2\n      pop\n        /* \"#utility.yul\":2094:2382   */\n      pop\n        /* \"#utility.yul\":1410:2389   */\n      swap3\n      pop\n      swap3\n      pop\n      swap3\n      jump\t// out\n        /* \"#utility.yul\":2395:2869   */\n    tag_32:\n        /* \"#utility.yul\":2463:2469   */\n      0x00\n        /* \"#utility.yul\":2471:2477   */\n      dup1\n        /* \"#utility.yul\":2520:2522   */\n      0x40\n        /* \"#utility.yul\":2508:2517   */\n      dup4\n        /* \"#utility.yul\":2499:2506   */\n      dup6\n        /* \"#utility.yul\":2495:2518   */\n      sub\n        /* \"#utility.yul\":2491:2523   */\n      slt\n        /* \"#utility.yul\":2488:2607   */\n      iszero\n      tag_436\n      jumpi\n        /* \"#utility.yul\":2526:2605   */\n      tag_437\n      tag_422\n      jump\t// in\n    tag_437:\n        /* \"#utility.yul\":2488:2607   */\n    tag_436:\n        /* \"#utility.yul\":2646:2647   */\n      0x00\n        /* \"#utility.yul\":2671:2724   */\n      tag_438\n        /* \"#utility.yul\":2716:2723   */\n      dup6\n        /* \"#utility.yul\":2707:2713   */\n      dup3\n        /* \"#utility.yul\":2696:2705   */\n      dup7\n        /* \"#utility.yul\":2692:2714   */\n      add\n        /* \"#utility.yul\":2671:2724   */\n      tag_405\n      jump\t// in\n    tag_438:\n        /* \"#utility.yul\":2661:2724   */\n      swap3\n      pop\n        /* \"#utility.yul\":2617:2734   */\n      pop\n        /* \"#utility.yul\":2773:2775   */\n      0x20\n        /* \"#utility.yul\":2799:2852   */\n      tag_439\n        /* \"#utility.yul\":2844:2851   */\n      dup6\n        /* \"#utility.yul\":2835:2841   */\n      dup3\n        /* \"#utility.yul\":2824:2833   */\n      dup7\n        /* \"#utility.yul\":2820:2842   */\n      add\n        /* \"#utility.yul\":2799:2852   */\n      tag_415\n      jump\t// in\n    tag_439:\n        /* \"#utility.yul\":2789:2852   */\n      swap2\n      pop\n        /* \"#utility.yul\":2744:2862   */\n      pop\n        /* \"#utility.yul\":2395:2869   */\n      swap3\n      pop\n      swap3\n      swap1\n      pop\n      jump\t// out\n        /* \"#utility.yul\":2875:4034   */\n    tag_48:\n        /* \"#utility.yul\":2982:2988   */\n      0x00\n        /* \"#utility.yul\":2990:2996   */\n      dup1\n        /* \"#utility.yul\":2998:3004   */\n      0x00\n        /* \"#utility.yul\":3047:3049   */\n      0x60\n        /* \"#utility.yul\":3035:3044   */\n      dup5\n        /* \"#utility.yul\":3026:3033   */\n      dup7\n        /* \"#utility.yul\":3022:3045   */\n      sub\n        /* \"#utility.yul\":3018:3050   */\n      slt\n        /* \"#utility.yul\":3015:3134   */\n      iszero\n      tag_441\n      jumpi\n        /* \"#utility.yul\":3053:3132   */\n      tag_442\n      tag_422\n      jump\t// in\n    tag_442:\n        /* \"#utility.yul\":3015:3134   */\n    tag_441:\n        /* \"#utility.yul\":3201:3202   */\n      0x00\n        /* \"#utility.yul\":3190:3199   */\n      dup5\n        /* \"#utility.yul\":3186:3203   */\n      add\n        /* \"#utility.yul\":3173:3204   */\n      calldataload\n        /* \"#utility.yul\":3231:3249   */\n      0xffffffffffffffff\n        /* \"#utility.yul\":3223:3229   */\n      dup2\n        /* \"#utility.yul\":3220:3250   */\n      gt\n        /* \"#utility.yul\":3217:3334   */\n      iszero\n      tag_443\n      jumpi\n        /* \"#utility.yul\":3253:3332   */\n      tag_444\n      tag_430\n      jump\t// in\n    tag_444:\n        /* \"#utility.yul\":3217:3334   */\n    tag_443:\n        /* \"#utility.yul\":3358:3421   */\n      tag_445\n        /* \"#utility.yul\":3413:3420   */\n      dup7\n        /* \"#utility.yul\":3404:3410   */\n      dup3\n        /* \"#utility.yul\":3393:3402   */\n      dup8\n        /* \"#utility.yul\":3389:3411   */\n      add\n        /* \"#utility.yul\":3358:3421   */\n      tag_409\n      jump\t// in\n    tag_445:\n        /* \"#utility.yul\":3348:3421   */\n      swap4\n      pop\n        /* \"#utility.yul\":3144:3431   */\n      pop\n        /* \"#utility.yul\":3498:3500   */\n      0x20\n        /* \"#utility.yul\":3487:3496   */\n      dup5\n        /* \"#utility.yul\":3483:3501   */\n      add\n        /* \"#utility.yul\":3470:3502   */\n      calldataload\n        /* \"#utility.yul\":3529:3547   */\n      0xffffffffffffffff\n        /* \"#utility.yul\":3521:3527   */\n      dup2\n        /* \"#utility.yul\":3518:3548   */\n      gt\n        /* \"#utility.yul\":3515:3632   */\n      iszero\n      tag_446\n      jumpi\n        /* \"#utility.yul\":3551:3630   */\n      tag_447\n      tag_430\n      jump\t// in\n    tag_447:\n        /* \"#utility.yul\":3515:3632   */\n    tag_446:\n        /* \"#utility.yul\":3656:3719   */\n      tag_448\n        /* \"#utility.yul\":3711:3718   */\n      dup7\n        /* \"#utility.yul\":3702:3708   */\n      dup3\n        /* \"#utility.yul\":3691:3700   */\n      dup8\n        /* \"#utility.yul\":3687:3709   */\n      add\n        /* \"#utility.yul\":3656:3719   */\n      tag_409\n      jump\t// in\n    tag_448:\n        /* \"#utility.yul\":3646:3719   */\n      swap3\n      pop\n        /* \"#utility.yul\":3441:3729   */\n      pop\n        /* \"#utility.yul\":3796:3798   */\n      0x40\n        /* \"#utility.yul\":3785:3794   */\n      dup5\n        /* \"#utility.yul\":3781:3799   */\n      add\n        /* \"#utility.yul\":3768:3800   */\n      calldataload\n        /* \"#utility.yul\":3827:3845   */\n      0xffffffffffffffff\n        /* \"#utility.yul\":3819:3825   */\n      dup2\n        /* \"#utility.yul\":3816:3846   */\n      gt\n        /* \"#utility.yul\":3813:3930   */\n      iszero\n      tag_449\n      jumpi\n        /* \"#utility.yul\":3849:3928   */\n      tag_450\n      tag_430\n      jump\t// in\n    tag_450:\n        /* \"#utility.yul\":3813:3930   */\n    tag_449:\n        /* \"#utility.yul\":3954:4017   */\n      tag_451\n        /* \"#utility.yul\":4009:4016   */\n      dup7\n        /* \"#utility.yul\":4000:4006   */\n      dup3\n        /* \"#utility.yul\":3989:3998   */\n      dup8\n        /* \"#utility.yul\":3985:4007   */\n      add\n        /* \"#utility.yul\":3954:4017   */\n      tag_409\n      jump\t// in\n    tag_451:\n        /* \"#utility.yul\":3944:4017   */\n      swap2\n      pop\n        /* \"#utility.yul\":3739:4027   */\n      pop\n        /* \"#utility.yul\":2875:4034   */\n      swap3\n      pop\n      swap3\n      pop\n      swap3\n      jump\t// out\n        /* \"#utility.yul\":4040:4369   */\n    tag_54:\n        /* \"#utility.yul\":4099:4105   */\n      0x00\n        /* \"#utility.yul\":4148:4150   */\n      0x20\n        /* \"#utility.yul\":4136:4145   */\n      dup3\n        /* \"#utility.yul\":4127:4134   */\n      dup5\n        /* \"#utility.yul\":4123:4146   */\n      sub\n        /* \"#utility.yul\":4119:4151   */\n      slt\n        /* \"#utility.yul\":4116:4235   */\n      iszero\n      tag_453\n      jumpi\n        /* \"#utility.yul\":4154:4233   */\n      tag_454\n      tag_422\n      jump\t// in\n    tag_454:\n        /* \"#utility.yul\":4116:4235   */\n    tag_453:\n        /* \"#utility.yul\":4274:4275   */\n      0x00\n        /* \"#utility.yul\":4299:4352   */\n      tag_455\n        /* \"#utility.yul\":4344:4351   */\n      dup5\n        /* \"#utility.yul\":4335:4341   */\n      dup3\n        /* \"#utility.yul\":4324:4333   */\n      dup6\n        /* \"#utility.yul\":4320:4342   */\n      add\n        /* \"#utility.yul\":4299:4352   */\n      tag_415\n      jump\t// in\n    tag_455:\n        /* \"#utility.yul\":4289:4352   */\n      swap2\n      pop\n        /* \"#utility.yul\":4245:4362   */\n      pop\n        /* \"#utility.yul\":4040:4369   */\n      swap3\n      swap2\n      pop\n      pop\n      jump\t// out\n        /* \"#utility.yul\":4375:4493   */\n    tag_456:\n        /* \"#utility.yul\":4462:4486   */\n      tag_458\n        /* \"#utility.yul\":4480:4485   */\n      dup2\n        /* \"#utility.yul\":4462:4486   */\n      tag_459\n      jump\t// in\n    tag_458:\n        /* \"#utility.yul\":4457:4460   */\n      dup3\n        /* \"#utility.yul\":4450:4487   */\n      mstore\n        /* \"#utility.yul\":4375:4493   */\n      pop\n      pop\n      jump\t// out\n        /* \"#utility.yul\":4499:4863   */\n    tag_460:\n        /* \"#utility.yul\":4587:4590   */\n      0x00\n        /* \"#utility.yul\":4615:4654   */\n      tag_462\n        /* \"#utility.yul\":4648:4653   */\n      dup3\n        /* \"#utility.yul\":4615:4654   */\n      tag_463\n      jump\t// in\n    tag_462:\n        /* \"#utility.yul\":4670:4741   */\n      tag_464\n        /* \"#utility.yul\":4734:4740   */\n      dup2\n        /* \"#utility.yul\":4729:4732   */\n      dup6\n        /* \"#utility.yul\":4670:4741   */\n      tag_465\n      jump\t// in\n    tag_464:\n        /* \"#utility.yul\":4663:4741   */\n      swap4\n      pop\n        /* \"#utility.yul\":4750:4802   */\n      tag_466\n        /* \"#utility.yul\":4795:4801   */\n      dup2\n        /* \"#utility.yul\":4790:4793   */\n      dup6\n        /* \"#utility.yul\":4783:4787   */\n      0x20\n        /* \"#utility.yul\":4776:4781   */\n      dup7\n        /* \"#utility.yul\":4772:4788   */\n      add\n        /* \"#utility.yul\":4750:4802   */\n      tag_467\n      jump\t// in\n    tag_466:\n        /* \"#utility.yul\":4827:4856   */\n      tag_468\n        /* \"#utility.yul\":4849:4855   */\n      dup2\n        /* \"#utility.yul\":4827:4856   */\n      tag_469\n      jump\t// in\n    tag_468:\n        /* \"#utility.yul\":4822:4825   */\n      dup5\n        /* \"#utility.yul\":4818:4857   */\n      add\n        /* \"#utility.yul\":4811:4857   */\n      swap2\n      pop\n        /* \"#utility.yul\":4591:4863   */\n      pop\n        /* \"#utility.yul\":4499:4863   */\n      swap3\n      swap2\n      pop\n      pop\n      jump\t// out\n        /* \"#utility.yul\":4893:5695   */\n    tag_470:\n        /* \"#utility.yul\":4978:4981   */\n      0x00\n        /* \"#utility.yul\":5015:5020   */\n      dup2\n        /* \"#utility.yul\":5009:5021   */\n      sload\n        /* \"#utility.yul\":5044:5080   */\n      tag_472\n        /* \"#utility.yul\":5070:5079   */\n      dup2\n        /* \"#utility.yul\":5044:5080   */\n      tag_314\n      jump\t// in\n    tag_472:\n        /* \"#utility.yul\":5096:5167   */\n      tag_473\n        /* \"#utility.yul\":5160:5166   */\n      dup2\n        /* \"#utility.yul\":5155:5158   */\n      dup7\n        /* \"#utility.yul\":5096:5167   */\n      tag_465\n      jump\t// in\n    tag_473:\n        /* \"#utility.yul\":5089:5167   */\n      swap5\n      pop\n        /* \"#utility.yul\":5198:5199   */\n      0x01\n        /* \"#utility.yul\":5187:5196   */\n      dup3\n        /* \"#utility.yul\":5183:5200   */\n      and\n        /* \"#utility.yul\":5214:5215   */\n      0x00\n        /* \"#utility.yul\":5209:5344   */\n      dup2\n      eq\n      tag_475\n      jumpi\n        /* \"#utility.yul\":5358:5359   */\n      0x01\n        /* \"#utility.yul\":5353:5689   */\n      dup2\n      eq\n      tag_476\n      jumpi\n        /* \"#utility.yul\":5176:5689   */\n      jump(tag_474)\n        /* \"#utility.yul\":5209:5344   */\n    tag_475:\n        /* \"#utility.yul\":5293:5297   */\n      0xff\n        /* \"#utility.yul\":5289:5298   */\n      not\n        /* \"#utility.yul\":5278:5287   */\n      dup4\n        /* \"#utility.yul\":5274:5299   */\n      and\n        /* \"#utility.yul\":5269:5272   */\n      dup7\n        /* \"#utility.yul\":5262:5300   */\n      mstore\n        /* \"#utility.yul\":5329:5333   */\n      0x20\n        /* \"#utility.yul\":5324:5327   */\n      dup7\n        /* \"#utility.yul\":5320:5334   */\n      add\n        /* \"#utility.yul\":5313:5334   */\n      swap4\n      pop\n        /* \"#utility.yul\":5209:5344   */\n      jump(tag_474)\n        /* \"#utility.yul\":5353:5689   */\n    tag_476:\n        /* \"#utility.yul\":5420:5458   */\n      tag_477\n        /* \"#utility.yul\":5452:5457   */\n      dup6\n        /* \"#utility.yul\":5420:5458   */\n      tag_478\n      jump\t// in\n    tag_477:\n        /* \"#utility.yul\":5480:5481   */\n      0x00\n        /* \"#utility.yul\":5494:5648   */\n    tag_479:\n        /* \"#utility.yul\":5508:5514   */\n      dup4\n        /* \"#utility.yul\":5505:5506   */\n      dup2\n        /* \"#utility.yul\":5502:5515   */\n      lt\n        /* \"#utility.yul\":5494:5648   */\n      iszero\n      tag_481\n      jumpi\n        /* \"#utility.yul\":5582:5589   */\n      dup2\n        /* \"#utility.yul\":5576:5590   */\n      sload\n        /* \"#utility.yul\":5572:5573   */\n      dup2\n        /* \"#utility.yul\":5567:5570   */\n      dup10\n        /* \"#utility.yul\":5563:5574   */\n      add\n        /* \"#utility.yul\":5556:5591   */\n      mstore\n        /* \"#utility.yul\":5632:5633   */\n      0x01\n        /* \"#utility.yul\":5623:5630   */\n      dup3\n        /* \"#utility.yul\":5619:5634   */\n      add\n        /* \"#utility.yul\":5608:5634   */\n      swap2\n      pop\n        /* \"#utility.yul\":5530:5534   */\n      0x20\n        /* \"#utility.yul\":5527:5528   */\n      dup2\n        /* \"#utility.yul\":5523:5535   */\n      add\n        /* \"#utility.yul\":5518:5535   */\n      swap1\n      pop\n        /* \"#utility.yul\":5494:5648   */\n      jump(tag_479)\n    tag_481:\n        /* \"#utility.yul\":5677:5678   */\n      dup1\n        /* \"#utility.yul\":5672:5675   */\n      dup9\n        /* \"#utility.yul\":5668:5679   */\n      add\n        /* \"#utility.yul\":5661:5679   */\n      swap6\n      pop\n        /* \"#utility.yul\":5360:5689   */\n      pop\n      pop\n        /* \"#utility.yul\":5176:5689   */\n    tag_474:\n      pop\n        /* \"#utility.yul\":4982:5695   */\n      pop\n      pop\n        /* \"#utility.yul\":4893:5695   */\n      swap3\n      swap2\n      pop\n      pop\n      jump\t// out\n        /* \"#utility.yul\":5701:6067   */\n    tag_482:\n        /* \"#utility.yul\":5843:5846   */\n      0x00\n        /* \"#utility.yul\":5864:5931   */\n      tag_484\n        /* \"#utility.yul\":5928:5930   */\n      0x28\n        /* \"#utility.yul\":5923:5926   */\n      dup4\n        /* \"#utility.yul\":5864:5931   */\n      tag_465\n      jump\t// in\n    tag_484:\n        /* \"#utility.yul\":5857:5931   */\n      swap2\n      pop\n        /* \"#utility.yul\":5940:6033   */\n      tag_485\n        /* \"#utility.yul\":6029:6032   */\n      dup3\n        /* \"#utility.yul\":5940:6033   */\n      tag_486\n      jump\t// in\n    tag_485:\n        /* \"#utility.yul\":6058:6060   */\n      0x40\n        /* \"#utility.yul\":6053:6056   */\n      dup3\n        /* \"#utility.yul\":6049:6061   */\n      add\n        /* \"#utility.yul\":6042:6061   */\n      swap1\n      pop\n        /* \"#utility.yul\":5701:6067   */\n      swap2\n      swap1\n      pop\n      jump\t// out\n        /* \"#utility.yul\":6073:6439   */\n    tag_487:\n        /* \"#utility.yul\":6215:6218   */\n      0x00\n        /* \"#utility.yul\":6236:6303   */\n      tag_489\n        /* \"#utility.yul\":6300:6302   */\n      0x26\n        /* \"#utility.yul\":6295:6298   */\n      dup4\n        /* \"#utility.yul\":6236:6303   */\n      tag_465\n      jump\t// in\n    tag_489:\n        /* \"#utility.yul\":6229:6303   */\n      swap2\n      pop\n        /* \"#utility.yul\":6312:6405   */\n      tag_490\n        /* \"#utility.yul\":6401:6404   */\n      dup3\n        /* \"#utility.yul\":6312:6405   */\n      tag_491\n      jump\t// in\n    tag_490:\n        /* \"#utility.yul\":6430:6432   */\n      0x40\n        /* \"#utility.yul\":6425:6428   */\n      dup3\n        /* \"#utility.yul\":6421:6433   */\n      add\n        /* \"#utility.yul\":6414:6433   */\n      swap1\n      pop\n        /* \"#utility.yul\":6073:6439   */\n      swap2\n      swap1\n      pop\n      jump\t// out\n        /* \"#utility.yul\":6445:6811   */\n    tag_492:\n        /* \"#utility.yul\":6587:6590   */\n      0x00\n        /* \"#utility.yul\":6608:6675   */\n      tag_494\n        /* \"#utility.yul\":6672:6674   */\n      0x32\n        /* \"#utility.yul\":6667:6670   */\n      dup4\n        /* \"#utility.yul\":6608:6675   */\n      tag_465\n      jump\t// in\n    tag_494:\n        /* \"#utility.yul\":6601:6675   */\n      swap2\n      pop\n        /* \"#utility.yul\":6684:6777   */\n      tag_495\n        /* \"#utility.yul\":6773:6776   */\n      dup3\n        /* \"#utility.yul\":6684:6777   */\n      tag_496\n      jump\t// in\n    tag_495:\n        /* \"#utility.yul\":6802:6804   */\n      0x40\n        /* \"#utility.yul\":6797:6800   */\n      dup3\n        /* \"#utility.yul\":6793:6805   */\n      add\n        /* \"#utility.yul\":6786:6805   */\n      swap1\n      pop\n        /* \"#utility.yul\":6445:6811   */\n      swap2\n      swap1\n      pop\n      jump\t// out\n        /* \"#utility.yul\":6817:7183   */\n    tag_497:\n        /* \"#utility.yul\":6959:6962   */\n      0x00\n        /* \"#utility.yul\":6980:7047   */\n      tag_499\n        /* \"#utility.yul\":7044:7046   */\n      0x20\n        /* \"#utility.yul\":7039:7042   */\n      dup4\n        /* \"#utility.yul\":6980:7047   */\n      tag_465\n      jump\t// in\n    tag_499:\n        /* \"#utility.yul\":6973:7047   */\n      swap2\n      pop\n        /* \"#utility.yul\":7056:7149   */\n      tag_500\n        /* \"#utility.yul\":7145:7148   */\n      dup3\n        /* \"#utility.yul\":7056:7149   */\n      tag_501\n      jump\t// in\n    tag_500:\n        /* \"#utility.yul\":7174:7176   */\n      0x20\n        /* \"#utility.yul\":7169:7172   */\n      dup3\n        /* \"#utility.yul\":7165:7177   */\n      add\n        /* \"#utility.yul\":7158:7177   */\n      swap1\n      pop\n        /* \"#utility.yul\":6817:7183   */\n      swap2\n      swap1\n      pop\n      jump\t// out\n        /* \"#utility.yul\":7189:7555   */\n    tag_502:\n        /* \"#utility.yul\":7331:7334   */\n      0x00\n        /* \"#utility.yul\":7352:7419   */\n      tag_504\n        /* \"#utility.yul\":7416:7418   */\n      0x15\n        /* \"#utility.yul\":7411:7414   */\n      dup4\n        /* \"#utility.yul\":7352:7419   */\n      tag_465\n      jump\t// in\n    tag_504:\n        /* \"#utility.yul\":7345:7419   */\n      swap2\n      pop\n        /* \"#utility.yul\":7428:7521   */\n      tag_505\n        /* \"#utility.yul\":7517:7520   */\n      dup3\n        /* \"#utility.yul\":7428:7521   */\n      tag_506\n      jump\t// in\n    tag_505:\n        /* \"#utility.yul\":7546:7548   */\n      0x20\n        /* \"#utility.yul\":7541:7544   */\n      dup3\n        /* \"#utility.yul\":7537:7549   */\n      add\n        /* \"#utility.yul\":7530:7549   */\n      swap1\n      pop\n        /* \"#utility.yul\":7189:7555   */\n      swap2\n      swap1\n      pop\n      jump\t// out\n        /* \"#utility.yul\":7561:7679   */\n    tag_507:\n        /* \"#utility.yul\":7648:7672   */\n      tag_509\n        /* \"#utility.yul\":7666:7671   */\n      dup2\n        /* \"#utility.yul\":7648:7672   */\n      tag_510\n      jump\t// in\n    tag_509:\n        /* \"#utility.yul\":7643:7646   */\n      dup3\n        /* \"#utility.yul\":7636:7673   */\n      mstore\n        /* \"#utility.yul\":7561:7679   */\n      pop\n      pop\n      jump\t// out\n        /* \"#utility.yul\":7685:7842   */\n    tag_511:\n        /* \"#utility.yul\":7790:7835   */\n      tag_513\n        /* \"#utility.yul\":7810:7834   */\n      tag_514\n        /* \"#utility.yul\":7828:7833   */\n      dup3\n        /* \"#utility.yul\":7810:7834   */\n      tag_510\n      jump\t// in\n    tag_514:\n        /* \"#utility.yul\":7790:7835   */\n      tag_515\n      jump\t// in\n    tag_513:\n        /* \"#utility.yul\":7785:7788   */\n      dup3\n        /* \"#utility.yul\":7778:7836   */\n      mstore\n        /* \"#utility.yul\":7685:7842   */\n      pop\n      pop\n      jump\t// out\n        /* \"#utility.yul\":7848:7963   */\n    tag_516:\n        /* \"#utility.yul\":7933:7956   */\n      tag_518\n        /* \"#utility.yul\":7950:7955   */\n      dup2\n        /* \"#utility.yul\":7933:7956   */\n      tag_519\n      jump\t// in\n    tag_518:\n        /* \"#utility.yul\":7928:7931   */\n      dup3\n        /* \"#utility.yul\":7921:7957   */\n      mstore\n        /* \"#utility.yul\":7848:7963   */\n      pop\n      pop\n      jump\t// out\n        /* \"#utility.yul\":7969:8507   */\n    tag_191:\n        /* \"#utility.yul\":8137:8140   */\n      0x00\n        /* \"#utility.yul\":8152:8227   */\n      tag_521\n        /* \"#utility.yul\":8223:8226   */\n      dup3\n        /* \"#utility.yul\":8214:8220   */\n      dup7\n        /* \"#utility.yul\":8152:8227   */\n      tag_511\n      jump\t// in\n    tag_521:\n        /* \"#utility.yul\":8252:8254   */\n      0x20\n        /* \"#utility.yul\":8247:8250   */\n      dup3\n        /* \"#utility.yul\":8243:8255   */\n      add\n        /* \"#utility.yul\":8236:8255   */\n      swap2\n      pop\n        /* \"#utility.yul\":8265:8340   */\n      tag_522\n        /* \"#utility.yul\":8336:8339   */\n      dup3\n        /* \"#utility.yul\":8327:8333   */\n      dup6\n        /* \"#utility.yul\":8265:8340   */\n      tag_511\n      jump\t// in\n    tag_522:\n        /* \"#utility.yul\":8365:8367   */\n      0x20\n        /* \"#utility.yul\":8360:8363   */\n      dup3\n        /* \"#utility.yul\":8356:8368   */\n      add\n        /* \"#utility.yul\":8349:8368   */\n      swap2\n      pop\n        /* \"#utility.yul\":8378:8453   */\n      tag_523\n        /* \"#utility.yul\":8449:8452   */\n      dup3\n        /* \"#utility.yul\":8440:8446   */\n      dup5\n        /* \"#utility.yul\":8378:8453   */\n      tag_511\n      jump\t// in\n    tag_523:\n        /* \"#utility.yul\":8478:8480   */\n      0x20\n        /* \"#utility.yul\":8473:8476   */\n      dup3\n        /* \"#utility.yul\":8469:8481   */\n      add\n        /* \"#utility.yul\":8462:8481   */\n      swap2\n      pop\n        /* \"#utility.yul\":8498:8501   */\n      dup2\n        /* \"#utility.yul\":8491:8501   */\n      swap1\n      pop\n        /* \"#utility.yul\":7969:8507   */\n      swap5\n      swap4\n      pop\n      pop\n      pop\n      pop\n      jump\t// out\n        /* \"#utility.yul\":8513:8735   */\n    tag_57:\n        /* \"#utility.yul\":8606:8610   */\n      0x00\n        /* \"#utility.yul\":8644:8646   */\n      0x20\n        /* \"#utility.yul\":8633:8642   */\n      dup3\n        /* \"#utility.yul\":8629:8647   */\n      add\n        /* \"#utility.yul\":8621:8647   */\n      swap1\n      pop\n        /* \"#utility.yul\":8657:8728   */\n      tag_525\n        /* \"#utility.yul\":8725:8726   */\n      0x00\n        /* \"#utility.yul\":8714:8723   */\n      dup4\n        /* \"#utility.yul\":8710:8727   */\n      add\n        /* \"#utility.yul\":8701:8707   */\n      dup5\n        /* \"#utility.yul\":8657:8728   */\n      tag_456\n      jump\t// in\n    tag_525:\n        /* \"#utility.yul\":8513:8735   */\n      swap3\n      swap2\n      pop\n      pop\n      jump\t// out\n        /* \"#utility.yul\":8741:10007   */\n    tag_100:\n        /* \"#utility.yul\":9088:9092   */\n      0x00\n        /* \"#utility.yul\":9126:9129   */\n      0x0100\n        /* \"#utility.yul\":9115:9124   */\n      dup3\n        /* \"#utility.yul\":9111:9130   */\n      add\n        /* \"#utility.yul\":9103:9130   */\n      swap1\n      pop\n        /* \"#utility.yul\":9140:9211   */\n      tag_527\n        /* \"#utility.yul\":9208:9209   */\n      0x00\n        /* \"#utility.yul\":9197:9206   */\n      dup4\n        /* \"#utility.yul\":9193:9210   */\n      add\n        /* \"#utility.yul\":9184:9190   */\n      dup12\n        /* \"#utility.yul\":9140:9211   */\n      tag_456\n      jump\t// in\n    tag_527:\n        /* \"#utility.yul\":9258:9267   */\n      dup2\n        /* \"#utility.yul\":9252:9256   */\n      dup2\n        /* \"#utility.yul\":9248:9268   */\n      sub\n        /* \"#utility.yul\":9243:9245   */\n      0x20\n        /* \"#utility.yul\":9232:9241   */\n      dup4\n        /* \"#utility.yul\":9228:9246   */\n      add\n        /* \"#utility.yul\":9221:9269   */\n      mstore\n        /* \"#utility.yul\":9286:9364   */\n      tag_528\n        /* \"#utility.yul\":9359:9363   */\n      dup2\n        /* \"#utility.yul\":9350:9356   */\n      dup11\n        /* \"#utility.yul\":9286:9364   */\n      tag_460\n      jump\t// in\n    tag_528:\n        /* \"#utility.yul\":9278:9364   */\n      swap1\n      pop\n        /* \"#utility.yul\":9411:9420   */\n      dup2\n        /* \"#utility.yul\":9405:9409   */\n      dup2\n        /* \"#utility.yul\":9401:9421   */\n      sub\n        /* \"#utility.yul\":9396:9398   */\n      0x40\n        /* \"#utility.yul\":9385:9394   */\n      dup4\n        /* \"#utility.yul\":9381:9399   */\n      add\n        /* \"#utility.yul\":9374:9422   */\n      mstore\n        /* \"#utility.yul\":9439:9517   */\n      tag_529\n        /* \"#utility.yul\":9512:9516   */\n      dup2\n        /* \"#utility.yul\":9503:9509   */\n      dup10\n        /* \"#utility.yul\":9439:9517   */\n      tag_460\n      jump\t// in\n    tag_529:\n        /* \"#utility.yul\":9431:9517   */\n      swap1\n      pop\n        /* \"#utility.yul\":9564:9573   */\n      dup2\n        /* \"#utility.yul\":9558:9562   */\n      dup2\n        /* \"#utility.yul\":9554:9574   */\n      sub\n        /* \"#utility.yul\":9549:9551   */\n      0x60\n        /* \"#utility.yul\":9538:9547   */\n      dup4\n        /* \"#utility.yul\":9534:9552   */\n      add\n        /* \"#utility.yul\":9527:9575   */\n      mstore\n        /* \"#utility.yul\":9592:9670   */\n      tag_530\n        /* \"#utility.yul\":9665:9669   */\n      dup2\n        /* \"#utility.yul\":9656:9662   */\n      dup9\n        /* \"#utility.yul\":9592:9670   */\n      tag_460\n      jump\t// in\n    tag_530:\n        /* \"#utility.yul\":9584:9670   */\n      swap1\n      pop\n        /* \"#utility.yul\":9680:9753   */\n      tag_531\n        /* \"#utility.yul\":9748:9751   */\n      0x80\n        /* \"#utility.yul\":9737:9746   */\n      dup4\n        /* \"#utility.yul\":9733:9752   */\n      add\n        /* \"#utility.yul\":9724:9730   */\n      dup8\n        /* \"#utility.yul\":9680:9753   */\n      tag_507\n      jump\t// in\n    tag_531:\n        /* \"#utility.yul\":9763:9836   */\n      tag_532\n        /* \"#utility.yul\":9831:9834   */\n      0xa0\n        /* \"#utility.yul\":9820:9829   */\n      dup4\n        /* \"#utility.yul\":9816:9835   */\n      add\n        /* \"#utility.yul\":9807:9813   */\n      dup7\n        /* \"#utility.yul\":9763:9836   */\n      tag_507\n      jump\t// in\n    tag_532:\n        /* \"#utility.yul\":9846:9919   */\n      tag_533\n        /* \"#utility.yul\":9914:9917   */\n      0xc0\n        /* \"#utility.yul\":9903:9912   */\n      dup4\n        /* \"#utility.yul\":9899:9918   */\n      add\n        /* \"#utility.yul\":9890:9896   */\n      dup6\n        /* \"#utility.yul\":9846:9919   */\n      tag_507\n      jump\t// in\n    tag_533:\n        /* \"#utility.yul\":9929:10000   */\n      tag_534\n        /* \"#utility.yul\":9995:9998   */\n      0xe0\n        /* \"#utility.yul\":9984:9993   */\n      dup4\n        /* \"#utility.yul\":9980:9999   */\n      add\n        /* \"#utility.yul\":9971:9977   */\n      dup5\n        /* \"#utility.yul\":9929:10000   */\n      tag_516\n      jump\t// in\n    tag_534:\n        /* \"#utility.yul\":8741:10007   */\n      swap10\n      swap9\n      pop\n      pop\n      pop\n      pop\n      pop\n      pop\n      pop\n      pop\n      pop\n      jump\t// out\n        /* \"#utility.yul\":10013:10326   */\n    tag_28:\n        /* \"#utility.yul\":10126:10130   */\n      0x00\n        /* \"#utility.yul\":10164:10166   */\n      0x20\n        /* \"#utility.yul\":10153:10162   */\n      dup3\n        /* \"#utility.yul\":10149:10167   */\n      add\n        /* \"#utility.yul\":10141:10167   */\n      swap1\n      pop\n        /* \"#utility.yul\":10213:10222   */\n      dup2\n        /* \"#utility.yul\":10207:10211   */\n      dup2\n        /* \"#utility.yul\":10203:10223   */\n      sub\n        /* \"#utility.yul\":10199:10200   */\n      0x00\n        /* \"#utility.yul\":10188:10197   */\n      dup4\n        /* \"#utility.yul\":10184:10201   */\n      add\n        /* \"#utility.yul\":10177:10224   */\n      mstore\n        /* \"#utility.yul\":10241:10319   */\n      tag_536\n        /* \"#utility.yul\":10314:10318   */\n      dup2\n        /* \"#utility.yul\":10305:10311   */\n      dup5\n        /* \"#utility.yul\":10241:10319   */\n      tag_460\n      jump\t// in\n    tag_536:\n        /* \"#utility.yul\":10233:10319   */\n      swap1\n      pop\n        /* \"#utility.yul\":10013:10326   */\n      swap3\n      swap2\n      pop\n      pop\n      jump\t// out\n        /* \"#utility.yul\":10332:11162   */\n    tag_353:\n        /* \"#utility.yul\":10569:10573   */\n      0x00\n        /* \"#utility.yul\":10607:10610   */\n      0xa0\n        /* \"#utility.yul\":10596:10605   */\n      dup3\n        /* \"#utility.yul\":10592:10611   */\n      add\n        /* \"#utility.yul\":10584:10611   */\n      swap1\n      pop\n        /* \"#utility.yul\":10657:10666   */\n      dup2\n        /* \"#utility.yul\":10651:10655   */\n      dup2\n        /* \"#utility.yul\":10647:10667   */\n      sub\n        /* \"#utility.yul\":10643:10644   */\n      0x00\n        /* \"#utility.yul\":10632:10641   */\n      dup4\n        /* \"#utility.yul\":10628:10645   */\n      add\n        /* \"#utility.yul\":10621:10668   */\n      mstore\n        /* \"#utility.yul\":10685:10760   */\n      tag_538\n        /* \"#utility.yul\":10755:10759   */\n      dup2\n        /* \"#utility.yul\":10746:10752   */\n      dup9\n        /* \"#utility.yul\":10685:10760   */\n      tag_470\n      jump\t// in\n    tag_538:\n        /* \"#utility.yul\":10677:10760   */\n      swap1\n      pop\n        /* \"#utility.yul\":10807:10816   */\n      dup2\n        /* \"#utility.yul\":10801:10805   */\n      dup2\n        /* \"#utility.yul\":10797:10817   */\n      sub\n        /* \"#utility.yul\":10792:10794   */\n      0x20\n        /* \"#utility.yul\":10781:10790   */\n      dup4\n        /* \"#utility.yul\":10777:10795   */\n      add\n        /* \"#utility.yul\":10770:10818   */\n      mstore\n        /* \"#utility.yul\":10835:10910   */\n      tag_539\n        /* \"#utility.yul\":10905:10909   */\n      dup2\n        /* \"#utility.yul\":10896:10902   */\n      dup8\n        /* \"#utility.yul\":10835:10910   */\n      tag_470\n      jump\t// in\n    tag_539:\n        /* \"#utility.yul\":10827:10910   */\n      swap1\n      pop\n        /* \"#utility.yul\":10920:10990   */\n      tag_540\n        /* \"#utility.yul\":10986:10988   */\n      0x40\n        /* \"#utility.yul\":10975:10984   */\n      dup4\n        /* \"#utility.yul\":10971:10989   */\n      add\n        /* \"#utility.yul\":10962:10968   */\n      dup7\n        /* \"#utility.yul\":10920:10990   */\n      tag_516\n      jump\t// in\n    tag_540:\n        /* \"#utility.yul\":11000:11072   */\n      tag_541\n        /* \"#utility.yul\":11068:11070   */\n      0x60\n        /* \"#utility.yul\":11057:11066   */\n      dup4\n        /* \"#utility.yul\":11053:11071   */\n      add\n        /* \"#utility.yul\":11044:11050   */\n      dup6\n        /* \"#utility.yul\":11000:11072   */\n      tag_507\n      jump\t// in\n    tag_541:\n        /* \"#utility.yul\":11082:11155   */\n      tag_542\n        /* \"#utility.yul\":11150:11153   */\n      0x80\n        /* \"#utility.yul\":11139:11148   */\n      dup4\n        /* \"#utility.yul\":11135:11154   */\n      add\n        /* \"#utility.yul\":11126:11132   */\n      dup5\n        /* \"#utility.yul\":11082:11155   */\n      tag_507\n      jump\t// in\n    tag_542:\n        /* \"#utility.yul\":10332:11162   */\n      swap7\n      swap6\n      pop\n      pop\n      pop\n      pop\n      pop\n      pop\n      jump\t// out\n        /* \"#utility.yul\":11168:11587   */\n    tag_155:\n        /* \"#utility.yul\":11334:11338   */\n      0x00\n        /* \"#utility.yul\":11372:11374   */\n      0x20\n        /* \"#utility.yul\":11361:11370   */\n      dup3\n        /* \"#utility.yul\":11357:11375   */\n      add\n        /* \"#utility.yul\":11349:11375   */\n      swap1\n      pop\n        /* \"#utility.yul\":11421:11430   */\n      dup2\n        /* \"#utility.yul\":11415:11419   */\n      dup2\n        /* \"#utility.yul\":11411:11431   */\n      sub\n        /* \"#utility.yul\":11407:11408   */\n      0x00\n        /* \"#utility.yul\":11396:11405   */\n      dup4\n        /* \"#utility.yul\":11392:11409   */\n      add\n        /* \"#utility.yul\":11385:11432   */\n      mstore\n        /* \"#utility.yul\":11449:11580   */\n      tag_544\n        /* \"#utility.yul\":11575:11579   */\n      dup2\n        /* \"#utility.yul\":11449:11580   */\n      tag_482\n      jump\t// in\n    tag_544:\n        /* \"#utility.yul\":11441:11580   */\n      swap1\n      pop\n        /* \"#utility.yul\":11168:11587   */\n      swap2\n      swap1\n      pop\n      jump\t// out\n        /* \"#utility.yul\":11593:12012   */\n    tag_363:\n        /* \"#utility.yul\":11759:11763   */\n      0x00\n        /* \"#utility.yul\":11797:11799   */\n      0x20\n        /* \"#utility.yul\":11786:11795   */\n      dup3\n        /* \"#utility.yul\":11782:11800   */\n      add\n        /* \"#utility.yul\":11774:11800   */\n      swap1\n      pop\n        /* \"#utility.yul\":11846:11855   */\n      dup2\n        /* \"#utility.yul\":11840:11844   */\n      dup2\n        /* \"#utility.yul\":11836:11856   */\n      sub\n        /* \"#utility.yul\":11832:11833   */\n      0x00\n        /* \"#utility.yul\":11821:11830   */\n      dup4\n        /* \"#utility.yul\":11817:11834   */\n      add\n        /* \"#utility.yul\":11810:11857   */\n      mstore\n        /* \"#utility.yul\":11874:12005   */\n      tag_546\n        /* \"#utility.yul\":12000:12004   */\n      dup2\n        /* \"#utility.yul\":11874:12005   */\n      tag_487\n      jump\t// in\n    tag_546:\n        /* \"#utility.yul\":11866:12005   */\n      swap1\n      pop\n        /* \"#utility.yul\":11593:12012   */\n      swap2\n      swap1\n      pop\n      jump\t// out\n        /* \"#utility.yul\":12018:12437   */\n    tag_186:\n        /* \"#utility.yul\":12184:12188   */\n      0x00\n        /* \"#utility.yul\":12222:12224   */\n      0x20\n        /* \"#utility.yul\":12211:12220   */\n      dup3\n        /* \"#utility.yul\":12207:12225   */\n      add\n        /* \"#utility.yul\":12199:12225   */\n      swap1\n      pop\n        /* \"#utility.yul\":12271:12280   */\n      dup2\n        /* \"#utility.yul\":12265:12269   */\n      dup2\n        /* \"#utility.yul\":12261:12281   */\n      sub\n        /* \"#utility.yul\":12257:12258   */\n      0x00\n        /* \"#utility.yul\":12246:12255   */\n      dup4\n        /* \"#utility.yul\":12242:12259   */\n      add\n        /* \"#utility.yul\":12235:12282   */\n      mstore\n        /* \"#utility.yul\":12299:12430   */\n      tag_548\n        /* \"#utility.yul\":12425:12429   */\n      dup2\n        /* \"#utility.yul\":12299:12430   */\n      tag_492\n      jump\t// in\n    tag_548:\n        /* \"#utility.yul\":12291:12430   */\n      swap1\n      pop\n        /* \"#utility.yul\":12018:12437   */\n      swap2\n      swap1\n      pop\n      jump\t// out\n        /* \"#utility.yul\":12443:12862   */\n    tag_297:\n        /* \"#utility.yul\":12609:12613   */\n      0x00\n        /* \"#utility.yul\":12647:12649   */\n      0x20\n        /* \"#utility.yul\":12636:12645   */\n      dup3\n        /* \"#utility.yul\":12632:12650   */\n      add\n        /* \"#utility.yul\":12624:12650   */\n      swap1\n      pop\n        /* \"#utility.yul\":12696:12705   */\n      dup2\n        /* \"#utility.yul\":12690:12694   */\n      dup2\n        /* \"#utility.yul\":12686:12706   */\n      sub\n        /* \"#utility.yul\":12682:12683   */\n      0x00\n        /* \"#utility.yul\":12671:12680   */\n      dup4\n        /* \"#utility.yul\":12667:12684   */\n      add\n        /* \"#utility.yul\":12660:12707   */\n      mstore\n        /* \"#utility.yul\":12724:12855   */\n      tag_550\n        /* \"#utility.yul\":12850:12854   */\n      dup2\n        /* \"#utility.yul\":12724:12855   */\n      tag_497\n      jump\t// in\n    tag_550:\n        /* \"#utility.yul\":12716:12855   */\n      swap1\n      pop\n        /* \"#utility.yul\":12443:12862   */\n      swap2\n      swap1\n      pop\n      jump\t// out\n        /* \"#utility.yul\":12868:13287   */\n    tag_243:\n        /* \"#utility.yul\":13034:13038   */\n      0x00\n        /* \"#utility.yul\":13072:13074   */\n      0x20\n        /* \"#utility.yul\":13061:13070   */\n      dup3\n        /* \"#utility.yul\":13057:13075   */\n      add\n        /* \"#utility.yul\":13049:13075   */\n      swap1\n      pop\n        /* \"#utility.yul\":13121:13130   */\n      dup2\n        /* \"#utility.yul\":13115:13119   */\n      dup2\n        /* \"#utility.yul\":13111:13131   */\n      sub\n        /* \"#utility.yul\":13107:13108   */\n      0x00\n        /* \"#utility.yul\":13096:13105   */\n      dup4\n        /* \"#utility.yul\":13092:13109   */\n      add\n        /* \"#utility.yul\":13085:13132   */\n      mstore\n        /* \"#utility.yul\":13149:13280   */\n      tag_552\n        /* \"#utility.yul\":13275:13279   */\n      dup2\n        /* \"#utility.yul\":13149:13280   */\n      tag_502\n      jump\t// in\n    tag_552:\n        /* \"#utility.yul\":13141:13280   */\n      swap1\n      pop\n        /* \"#utility.yul\":12868:13287   */\n      swap2\n      swap1\n      pop\n      jump\t// out\n        /* \"#utility.yul\":13293:13515   */\n    tag_44:\n        /* \"#utility.yul\":13386:13390   */\n      0x00\n        /* \"#utility.yul\":13424:13426   */\n      0x20\n        /* \"#utility.yul\":13413:13422   */\n      dup3\n        /* \"#utility.yul\":13409:13427   */\n      add\n        /* \"#utility.yul\":13401:13427   */\n      swap1\n      pop\n        /* \"#utility.yul\":13437:13508   */\n      tag_554\n        /* \"#utility.yul\":13505:13506   */\n      0x00\n        /* \"#utility.yul\":13494:13503   */\n      dup4\n        /* \"#utility.yul\":13490:13507   */\n      add\n        /* \"#utility.yul\":13481:13487   */\n      dup5\n        /* \"#utility.yul\":13437:13508   */\n      tag_507\n      jump\t// in\n    tag_554:\n        /* \"#utility.yul\":13293:13515   */\n      swap3\n      swap2\n      pop\n      pop\n      jump\t// out\n        /* \"#utility.yul\":13521:13650   */\n    tag_399:\n        /* \"#utility.yul\":13555:13561   */\n      0x00\n        /* \"#utility.yul\":13582:13602   */\n      tag_556\n      tag_557\n      jump\t// in\n    tag_556:\n        /* \"#utility.yul\":13572:13602   */\n      swap1\n      pop\n        /* \"#utility.yul\":13611:13644   */\n      tag_558\n        /* \"#utility.yul\":13639:13643   */\n      dup3\n        /* \"#utility.yul\":13631:13637   */\n      dup3\n        /* \"#utility.yul\":13611:13644   */\n      tag_559\n      jump\t// in\n    tag_558:\n        /* \"#utility.yul\":13521:13650   */\n      swap2\n      swap1\n      pop\n      jump\t// out\n        /* \"#utility.yul\":13656:13731   */\n    tag_557:\n        /* \"#utility.yul\":13689:13695   */\n      0x00\n        /* \"#utility.yul\":13722:13724   */\n      0x40\n        /* \"#utility.yul\":13716:13725   */\n      mload\n        /* \"#utility.yul\":13706:13725   */\n      swap1\n      pop\n        /* \"#utility.yul\":13656:13731   */\n      swap1\n      jump\t// out\n        /* \"#utility.yul\":13737:14045   */\n    tag_398:\n        /* \"#utility.yul\":13799:13803   */\n      0x00\n        /* \"#utility.yul\":13889:13907   */\n      0xffffffffffffffff\n        /* \"#utility.yul\":13881:13887   */\n      dup3\n        /* \"#utility.yul\":13878:13908   */\n      gt\n        /* \"#utility.yul\":13875:13931   */\n      iszero\n      tag_562\n      jumpi\n        /* \"#utility.yul\":13911:13929   */\n      tag_563\n      tag_564\n      jump\t// in\n    tag_563:\n        /* \"#utility.yul\":13875:13931   */\n    tag_562:\n        /* \"#utility.yul\":13949:13978   */\n      tag_565\n        /* \"#utility.yul\":13971:13977   */\n      dup3\n        /* \"#utility.yul\":13949:13978   */\n      tag_469\n      jump\t// in\n    tag_565:\n        /* \"#utility.yul\":13941:13978   */\n      swap1\n      pop\n        /* \"#utility.yul\":14033:14037   */\n      0x20\n        /* \"#utility.yul\":14027:14031   */\n      dup2\n        /* \"#utility.yul\":14023:14038   */\n      add\n        /* \"#utility.yul\":14015:14038   */\n      swap1\n      pop\n        /* \"#utility.yul\":13737:14045   */\n      swap2\n      swap1\n      pop\n      jump\t// out\n        /* \"#utility.yul\":14051:14192   */\n    tag_478:\n        /* \"#utility.yul\":14100:14104   */\n      0x00\n        /* \"#utility.yul\":14123:14126   */\n      dup2\n        /* \"#utility.yul\":14115:14126   */\n      swap1\n      pop\n        /* \"#utility.yul\":14146:14149   */\n      dup2\n        /* \"#utility.yul\":14143:14144   */\n      0x00\n        /* \"#utility.yul\":14136:14150   */\n      mstore\n        /* \"#utility.yul\":14180:14184   */\n      0x20\n        /* \"#utility.yul\":14177:14178   */\n      0x00\n        /* \"#utility.yul\":14167:14185   */\n      keccak256\n        /* \"#utility.yul\":14159:14185   */\n      swap1\n      pop\n        /* \"#utility.yul\":14051:14192   */\n      swap2\n      swap1\n      pop\n      jump\t// out\n        /* \"#utility.yul\":14198:14297   */\n    tag_463:\n        /* \"#utility.yul\":14250:14256   */\n      0x00\n        /* \"#utility.yul\":14284:14289   */\n      dup2\n        /* \"#utility.yul\":14278:14290   */\n      mload\n        /* \"#utility.yul\":14268:14290   */\n      swap1\n      pop\n        /* \"#utility.yul\":14198:14297   */\n      swap2\n      swap1\n      pop\n      jump\t// out\n        /* \"#utility.yul\":14303:14472   */\n    tag_465:\n        /* \"#utility.yul\":14387:14398   */\n      0x00\n        /* \"#utility.yul\":14421:14427   */\n      dup3\n        /* \"#utility.yul\":14416:14419   */\n      dup3\n        /* \"#utility.yul\":14409:14428   */\n      mstore\n        /* \"#utility.yul\":14461:14465   */\n      0x20\n        /* \"#utility.yul\":14456:14459   */\n      dup3\n        /* \"#utility.yul\":14452:14466   */\n      add\n        /* \"#utility.yul\":14437:14466   */\n      swap1\n      pop\n        /* \"#utility.yul\":14303:14472   */\n      swap3\n      swap2\n      pop\n      pop\n      jump\t// out\n        /* \"#utility.yul\":14478:14783   */\n    tag_158:\n        /* \"#utility.yul\":14518:14521   */\n      0x00\n        /* \"#utility.yul\":14537:14557   */\n      tag_570\n        /* \"#utility.yul\":14555:14556   */\n      dup3\n        /* \"#utility.yul\":14537:14557   */\n      tag_510\n      jump\t// in\n    tag_570:\n        /* \"#utility.yul\":14532:14557   */\n      swap2\n      pop\n        /* \"#utility.yul\":14571:14591   */\n      tag_571\n        /* \"#utility.yul\":14589:14590   */\n      dup4\n        /* \"#utility.yul\":14571:14591   */\n      tag_510\n      jump\t// in\n    tag_571:\n        /* \"#utility.yul\":14566:14591   */\n      swap3\n      pop\n        /* \"#utility.yul\":14725:14726   */\n      dup3\n        /* \"#utility.yul\":14657:14723   */\n      0xffffffffffffffffffffffffffffffffffffffffffffffffffffffffffffffff\n        /* \"#utility.yul\":14653:14727   */\n      sub\n        /* \"#utility.yul\":14650:14651   */\n      dup3\n        /* \"#utility.yul\":14647:14728   */\n      gt\n        /* \"#utility.yul\":14644:14751   */\n      iszero\n      tag_572\n      jumpi\n        /* \"#utility.yul\":14731:14749   */\n      tag_573\n      tag_574\n      jump\t// in\n    tag_573:\n        /* \"#utility.yul\":14644:14751   */\n    tag_572:\n        /* \"#utility.yul\":14775:14776   */\n      dup3\n        /* \"#utility.yul\":14772:14773   */\n      dup3\n        /* \"#utility.yul\":14768:14777   */\n      add\n        /* \"#utility.yul\":14761:14777   */\n      swap1\n      pop\n        /* \"#utility.yul\":14478:14783   */\n      swap3\n      swap2\n      pop\n      pop\n      jump\t// out\n        /* \"#utility.yul\":14789:14980   */\n    tag_166:\n        /* \"#utility.yul\":14829:14833   */\n      0x00\n        /* \"#utility.yul\":14849:14869   */\n      tag_576\n        /* \"#utility.yul\":14867:14868   */\n      dup3\n        /* \"#utility.yul\":14849:14869   */\n      tag_510\n      jump\t// in\n    tag_576:\n        /* \"#utility.yul\":14844:14869   */\n      swap2\n      pop\n        /* \"#utility.yul\":14883:14903   */\n      tag_577\n        /* \"#utility.yul\":14901:14902   */\n      dup4\n        /* \"#utility.yul\":14883:14903   */\n      tag_510\n      jump\t// in\n    tag_577:\n        /* \"#utility.yul\":14878:14903   */\n      swap3\n      pop\n        /* \"#utility.yul\":14922:14923   */\n      dup3\n        /* \"#utility.yul\":14919:14920   */\n      dup3\n        /* \"#utility.yul\":14916:14924   */\n      lt\n        /* \"#utility.yul\":14913:14947   */\n      iszero\n      tag_578\n      jumpi\n        /* \"#utility.yul\":14927:14945   */\n      tag_579\n      tag_574\n      jump\t// in\n    tag_579:\n        /* \"#utility.yul\":14913:14947   */\n    tag_578:\n        /* \"#utility.yul\":14972:14973   */\n      dup3\n        /* \"#utility.yul\":14969:14970   */\n      dup3\n        /* \"#utility.yul\":14965:14974   */\n      sub\n        /* \"#utility.yul\":14957:14974   */\n      swap1\n      pop\n        /* \"#utility.yul\":14789:14980   */\n      swap3\n      swap2\n      pop\n      pop\n      jump\t// out\n        /* \"#utility.yul\":14986:15082   */\n    tag_459:\n        /* \"#utility.yul\":15023:15030   */\n      0x00\n        /* \"#utility.yul\":15052:15076   */\n      tag_581\n        /* \"#utility.yul\":15070:15075   */\n      dup3\n        /* \"#utility.yul\":15052:15076   */\n      tag_582\n      jump\t// in\n    tag_581:\n        /* \"#utility.yul\":15041:15076   */\n      swap1\n      pop\n        /* \"#utility.yul\":14986:15082   */\n      swap2\n      swap1\n      pop\n      jump\t// out\n        /* \"#utility.yul\":15088:15214   */\n    tag_582:\n        /* \"#utility.yul\":15125:15132   */\n      0x00\n        /* \"#utility.yul\":15165:15207   */\n      0xffffffffffffffffffffffffffffffffffffffff\n        /* \"#utility.yul\":15158:15163   */\n      dup3\n        /* \"#utility.yul\":15154:15208   */\n      and\n        /* \"#utility.yul\":15143:15208   */\n      swap1\n      pop\n        /* \"#utility.yul\":15088:15214   */\n      swap2\n      swap1\n      pop\n      jump\t// out\n        /* \"#utility.yul\":15220:15297   */\n    tag_510:\n        /* \"#utility.yul\":15257:15264   */\n      0x00\n        /* \"#utility.yul\":15286:15291   */\n      dup2\n        /* \"#utility.yul\":15275:15291   */\n      swap1\n      pop\n        /* \"#utility.yul\":15220:15297   */\n      swap2\n      swap1\n      pop\n      jump\t// out\n        /* \"#utility.yul\":15303:15396   */\n    tag_519:\n        /* \"#utility.yul\":15339:15346   */\n      0x00\n        /* \"#utility.yul\":15379:15389   */\n      0xffffffff\n        /* \"#utility.yul\":15372:15377   */\n      dup3\n        /* \"#utility.yul\":15368:15390   */\n      and\n        /* \"#utility.yul\":15357:15390   */\n      swap1\n      pop\n        /* \"#utility.yul\":15303:15396   */\n      swap2\n      swap1\n      pop\n      jump\t// out\n        /* \"#utility.yul\":15402:15556   */\n    tag_404:\n        /* \"#utility.yul\":15486:15492   */\n      dup3\n        /* \"#utility.yul\":15481:15484   */\n      dup2\n        /* \"#utility.yul\":15476:15479   */\n      dup4\n        /* \"#utility.yul\":15463:15493   */\n      calldatacopy\n        /* \"#utility.yul\":15548:15549   */\n      0x00\n        /* \"#utility.yul\":15539:15545   */\n      dup4\n        /* \"#utility.yul\":15534:15537   */\n      dup4\n        /* \"#utility.yul\":15530:15546   */\n      add\n        /* \"#utility.yul\":15523:15550   */\n      mstore\n        /* \"#utility.yul\":15402:15556   */\n      pop\n      pop\n      pop\n      jump\t// out\n        /* \"#utility.yul\":15562:15869   */\n    tag_467:\n        /* \"#utility.yul\":15630:15631   */\n      0x00\n        /* \"#utility.yul\":15640:15753   */\n    tag_588:\n        /* \"#utility.yul\":15654:15660   */\n      dup4\n        /* \"#utility.yul\":15651:15652   */\n      dup2\n        /* \"#utility.yul\":15648:15661   */\n      lt\n        /* \"#utility.yul\":15640:15753   */\n      iszero\n      tag_590\n      jumpi\n        /* \"#utility.yul\":15739:15740   */\n      dup1\n        /* \"#utility.yul\":15734:15737   */\n      dup3\n        /* \"#utility.yul\":15730:15741   */\n      add\n        /* \"#utility.yul\":15724:15742   */\n      mload\n        /* \"#utility.yul\":15720:15721   */\n      dup2\n        /* \"#utility.yul\":15715:15718   */\n      dup5\n        /* \"#utility.yul\":15711:15722   */\n      add\n        /* \"#utility.yul\":15704:15743   */\n      mstore\n        /* \"#utility.yul\":15676:15678   */\n      0x20\n        /* \"#utility.yul\":15673:15674   */\n      dup2\n        /* \"#utility.yul\":15669:15679   */\n      add\n        /* \"#utility.yul\":15664:15679   */\n      swap1\n      pop\n        /* \"#utility.yul\":15640:15753   */\n      jump(tag_588)\n    tag_590:\n        /* \"#utility.yul\":15771:15777   */\n      dup4\n        /* \"#utility.yul\":15768:15769   */\n      dup2\n        /* \"#utility.yul\":15765:15778   */\n      gt\n        /* \"#utility.yul\":15762:15863   */\n      iszero\n      tag_591\n      jumpi\n        /* \"#utility.yul\":15851:15852   */\n      0x00\n        /* \"#utility.yul\":15842:15848   */\n      dup5\n        /* \"#utility.yul\":15837:15840   */\n      dup5\n        /* \"#utility.yul\":15833:15849   */\n      add\n        /* \"#utility.yul\":15826:15853   */\n      mstore\n        /* \"#utility.yul\":15762:15863   */\n    tag_591:\n        /* \"#utility.yul\":15611:15869   */\n      pop\n        /* \"#utility.yul\":15562:15869   */\n      pop\n      pop\n      pop\n      jump\t// out\n        /* \"#utility.yul\":15875:16046   */\n    tag_376:\n        /* \"#utility.yul\":15914:15917   */\n      0x00\n        /* \"#utility.yul\":15937:15961   */\n      tag_593\n        /* \"#utility.yul\":15955:15960   */\n      dup3\n        /* \"#utility.yul\":15937:15961   */\n      tag_510\n      jump\t// in\n    tag_593:\n        /* \"#utility.yul\":15928:15961   */\n      swap2\n      pop\n        /* \"#utility.yul\":15983:15987   */\n      0x00\n        /* \"#utility.yul\":15976:15981   */\n      dup3\n        /* \"#utility.yul\":15973:15988   */\n      eq\n        /* \"#utility.yul\":15970:16011   */\n      iszero\n      tag_594\n      jumpi\n        /* \"#utility.yul\":15991:16009   */\n      tag_595\n      tag_574\n      jump\t// in\n    tag_595:\n        /* \"#utility.yul\":15970:16011   */\n    tag_594:\n        /* \"#utility.yul\":16038:16039   */\n      0x01\n        /* \"#utility.yul\":16031:16036   */\n      dup3\n        /* \"#utility.yul\":16027:16040   */\n      sub\n        /* \"#utility.yul\":16020:16040   */\n      swap1\n      pop\n        /* \"#utility.yul\":15875:16046   */\n      swap2\n      swap1\n      pop\n      jump\t// out\n        /* \"#utility.yul\":16052:16372   */\n    tag_314:\n        /* \"#utility.yul\":16096:16102   */\n      0x00\n        /* \"#utility.yul\":16133:16134   */\n      0x02\n        /* \"#utility.yul\":16127:16131   */\n      dup3\n        /* \"#utility.yul\":16123:16135   */\n      div\n        /* \"#utility.yul\":16113:16135   */\n      swap1\n      pop\n        /* \"#utility.yul\":16180:16181   */\n      0x01\n        /* \"#utility.yul\":16174:16178   */\n      dup3\n        /* \"#utility.yul\":16170:16182   */\n      and\n        /* \"#utility.yul\":16201:16219   */\n      dup1\n        /* \"#utility.yul\":16191:16272   */\n      tag_597\n      jumpi\n        /* \"#utility.yul\":16257:16261   */\n      0x7f\n        /* \"#utility.yul\":16249:16255   */\n      dup3\n        /* \"#utility.yul\":16245:16262   */\n      and\n        /* \"#utility.yul\":16235:16262   */\n      swap2\n      pop\n        /* \"#utility.yul\":16191:16272   */\n    tag_597:\n        /* \"#utility.yul\":16319:16321   */\n      0x20\n        /* \"#utility.yul\":16311:16317   */\n      dup3\n        /* \"#utility.yul\":16308:16322   */\n      lt\n        /* \"#utility.yul\":16288:16306   */\n      dup2\n        /* \"#utility.yul\":16285:16323   */\n      eq\n        /* \"#utility.yul\":16282:16366   */\n      iszero\n      tag_598\n      jumpi\n        /* \"#utility.yul\":16338:16356   */\n      tag_599\n      tag_600\n      jump\t// in\n    tag_599:\n        /* \"#utility.yul\":16282:16366   */\n    tag_598:\n        /* \"#utility.yul\":16103:16372   */\n      pop\n        /* \"#utility.yul\":16052:16372   */\n      swap2\n      swap1\n      pop\n      jump\t// out\n        /* \"#utility.yul\":16378:16659   */\n    tag_559:\n        /* \"#utility.yul\":16461:16488   */\n      tag_602\n        /* \"#utility.yul\":16483:16487   */\n      dup3\n        /* \"#utility.yul\":16461:16488   */\n      tag_469\n      jump\t// in\n    tag_602:\n        /* \"#utility.yul\":16453:16459   */\n      dup2\n        /* \"#utility.yul\":16449:16489   */\n      add\n        /* \"#utility.yul\":16591:16597   */\n      dup2\n        /* \"#utility.yul\":16579:16589   */\n      dup2\n        /* \"#utility.yul\":16576:16598   */\n      lt\n        /* \"#utility.yul\":16555:16573   */\n      0xffffffffffffffff\n        /* \"#utility.yul\":16543:16553   */\n      dup3\n        /* \"#utility.yul\":16540:16574   */\n      gt\n        /* \"#utility.yul\":16537:16599   */\n      or\n        /* \"#utility.yul\":16534:16622   */\n      iszero\n      tag_603\n      jumpi\n        /* \"#utility.yul\":16602:16620   */\n      tag_604\n      tag_564\n      jump\t// in\n    tag_604:\n        /* \"#utility.yul\":16534:16622   */\n    tag_603:\n        /* \"#utility.yul\":16642:16652   */\n      dup1\n        /* \"#utility.yul\":16638:16640   */\n      0x40\n        /* \"#utility.yul\":16631:16653   */\n      mstore\n        /* \"#utility.yul\":16421:16659   */\n      pop\n        /* \"#utility.yul\":16378:16659   */\n      pop\n      pop\n      jump\t// out\n        /* \"#utility.yul\":16665:16898   */\n    tag_130:\n        /* \"#utility.yul\":16704:16707   */\n      0x00\n        /* \"#utility.yul\":16727:16751   */\n      tag_606\n        /* \"#utility.yul\":16745:16750   */\n      dup3\n        /* \"#utility.yul\":16727:16751   */\n      tag_510\n      jump\t// in\n    tag_606:\n        /* \"#utility.yul\":16718:16751   */\n      swap2\n      pop\n        /* \"#utility.yul\":16773:16839   */\n      0xffffffffffffffffffffffffffffffffffffffffffffffffffffffffffffffff\n        /* \"#utility.yul\":16766:16771   */\n      dup3\n        /* \"#utility.yul\":16763:16840   */\n      eq\n        /* \"#utility.yul\":16760:16863   */\n      iszero\n      tag_607\n      jumpi\n        /* \"#utility.yul\":16843:16861   */\n      tag_608\n      tag_574\n      jump\t// in\n    tag_608:\n        /* \"#utility.yul\":16760:16863   */\n    tag_607:\n        /* \"#utility.yul\":16890:16891   */\n      0x01\n        /* \"#utility.yul\":16883:16888   */\n      dup3\n        /* \"#utility.yul\":16879:16892   */\n      add\n        /* \"#utility.yul\":16872:16892   */\n      swap1\n      pop\n        /* \"#utility.yul\":16665:16898   */\n      swap2\n      swap1\n      pop\n      jump\t// out\n        /* \"#utility.yul\":16904:17079   */\n    tag_181:\n        /* \"#utility.yul\":16942:16945   */\n      0x00\n        /* \"#utility.yul\":16965:16988   */\n      tag_610\n        /* \"#utility.yul\":16982:16987   */\n      dup3\n        /* \"#utility.yul\":16965:16988   */\n      tag_519\n      jump\t// in\n    tag_610:\n        /* \"#utility.yul\":16956:16988   */\n      swap2\n      pop\n        /* \"#utility.yul\":17010:17020   */\n      0xffffffff\n        /* \"#utility.yul\":17003:17008   */\n      dup3\n        /* \"#utility.yul\":17000:17021   */\n      eq\n        /* \"#utility.yul\":16997:17044   */\n      iszero\n      tag_611\n      jumpi\n        /* \"#utility.yul\":17024:17042   */\n      tag_612\n      tag_574\n      jump\t// in\n    tag_612:\n        /* \"#utility.yul\":16997:17044   */\n    tag_611:\n        /* \"#utility.yul\":17071:17072   */\n      0x01\n        /* \"#utility.yul\":17064:17069   */\n      dup3\n        /* \"#utility.yul\":17060:17073   */\n      add\n        /* \"#utility.yul\":17053:17073   */\n      swap1\n      pop\n        /* \"#utility.yul\":16904:17079   */\n      swap2\n      swap1\n      pop\n      jump\t// out\n        /* \"#utility.yul\":17085:17164   */\n    tag_515:\n        /* \"#utility.yul\":17124:17131   */\n      0x00\n        /* \"#utility.yul\":17153:17158   */\n      dup2\n        /* \"#utility.yul\":17142:17158   */\n      swap1\n      pop\n        /* \"#utility.yul\":17085:17164   */\n      swap2\n      swap1\n      pop\n      jump\t// out\n        /* \"#utility.yul\":17170:17346   */\n    tag_193:\n        /* \"#utility.yul\":17202:17203   */\n      0x00\n        /* \"#utility.yul\":17219:17239   */\n      tag_615\n        /* \"#utility.yul\":17237:17238   */\n      dup3\n        /* \"#utility.yul\":17219:17239   */\n      tag_510\n      jump\t// in\n    tag_615:\n        /* \"#utility.yul\":17214:17239   */\n      swap2\n      pop\n        /* \"#utility.yul\":17253:17273   */\n      tag_616\n        /* \"#utility.yul\":17271:17272   */\n      dup4\n        /* \"#utility.yul\":17253:17273   */\n      tag_510\n      jump\t// in\n    tag_616:\n        /* \"#utility.yul\":17248:17273   */\n      swap3\n      pop\n        /* \"#utility.yul\":17292:17293   */\n      dup3\n        /* \"#utility.yul\":17282:17317   */\n      tag_617\n      jumpi\n        /* \"#utility.yul\":17297:17315   */\n      tag_618\n      tag_619\n      jump\t// in\n    tag_618:\n        /* \"#utility.yul\":17282:17317   */\n    tag_617:\n        /* \"#utility.yul\":17338:17339   */\n      dup3\n        /* \"#utility.yul\":17335:17336   */\n      dup3\n        /* \"#utility.yul\":17331:17340   */\n      mod\n        /* \"#utility.yul\":17326:17340   */\n      swap1\n      pop\n        /* \"#utility.yul\":17170:17346   */\n      swap3\n      swap2\n      pop\n      pop\n      jump\t// out\n        /* \"#utility.yul\":17352:17532   */\n    tag_574:\n        /* \"#utility.yul\":17400:17477   */\n      0x4e487b7100000000000000000000000000000000000000000000000000000000\n        /* \"#utility.yul\":17397:17398   */\n      0x00\n        /* \"#utility.yul\":17390:17478   */\n      mstore\n        /* \"#utility.yul\":17497:17501   */\n      0x11\n        /* \"#utility.yul\":17494:17495   */\n      0x04\n        /* \"#utility.yul\":17487:17502   */\n      mstore\n        /* \"#utility.yul\":17521:17525   */\n      0x24\n        /* \"#utility.yul\":17518:17519   */\n      0x00\n        /* \"#utility.yul\":17511:17526   */\n      revert\n        /* \"#utility.yul\":17538:17718   */\n    tag_619:\n        /* \"#utility.yul\":17586:17663   */\n      0x4e487b7100000000000000000000000000000000000000000000000000000000\n        /* \"#utility.yul\":17583:17584   */\n      0x00\n        /* \"#utility.yul\":17576:17664   */\n      mstore\n        /* \"#utility.yul\":17683:17687   */\n      0x12\n        /* \"#utility.yul\":17680:17681   */\n      0x04\n        /* \"#utility.yul\":17673:17688   */\n      mstore\n        /* \"#utility.yul\":17707:17711   */\n      0x24\n        /* \"#utility.yul\":17704:17705   */\n      0x00\n        /* \"#utility.yul\":17697:17712   */\n      revert\n        /* \"#utility.yul\":17724:17904   */\n    tag_600:\n        /* \"#utility.yul\":17772:17849   */\n      0x4e487b7100000000000000000000000000000000000000000000000000000000\n        /* \"#utility.yul\":17769:17770   */\n      0x00\n        /* \"#utility.yul\":17762:17850   */\n      mstore\n        /* \"#utility.yul\":17869:17873   */\n      0x22\n        /* \"#utility.yul\":17866:17867   */\n      0x04\n        /* \"#utility.yul\":17859:17874   */\n      mstore\n        /* \"#utility.yul\":17893:17897   */\n      0x24\n        /* \"#utility.yul\":17890:17891   */\n      0x00\n        /* \"#utility.yul\":17883:17898   */\n      revert\n        /* \"#utility.yul\":17910:18090   */\n    tag_145:\n        /* \"#utility.yul\":17958:18035   */\n      0x4e487b7100000000000000000000000000000000000000000000000000000000\n        /* \"#utility.yul\":17955:17956   */\n      0x00\n        /* \"#utility.yul\":17948:18036   */\n      mstore\n        /* \"#utility.yul\":18055:18059   */\n      0x31\n        /* \"#utility.yul\":18052:18053   */\n      0x04\n        /* \"#utility.yul\":18045:18060   */\n      mstore\n        /* \"#utility.yul\":18079:18083   */\n      0x24\n        /* \"#utility.yul\":18076:18077   */\n      0x00\n        /* \"#utility.yul\":18069:18084   */\n      revert\n        /* \"#utility.yul\":18096:18276   */\n    tag_117:\n        /* \"#utility.yul\":18144:18221   */\n      0x4e487b7100000000000000000000000000000000000000000000000000000000\n        /* \"#utility.yul\":18141:18142   */\n      0x00\n        /* \"#utility.yul\":18134:18222   */\n      mstore\n        /* \"#utility.yul\":18241:18245   */\n      0x32\n        /* \"#utility.yul\":18238:18239   */\n      0x04\n        /* \"#utility.yul\":18231:18246   */\n      mstore\n        /* \"#utility.yul\":18265:18269   */\n      0x24\n        /* \"#utility.yul\":18262:18263   */\n      0x00\n        /* \"#utility.yul\":18255:18270   */\n      revert\n        /* \"#utility.yul\":18282:18462   */\n    tag_564:\n        /* \"#utility.yul\":18330:18407   */\n      0x4e487b7100000000000000000000000000000000000000000000000000000000\n        /* \"#utility.yul\":18327:18328   */\n      0x00\n        /* \"#utility.yul\":18320:18408   */\n      mstore\n        /* \"#utility.yul\":18427:18431   */\n      0x41\n        /* \"#utility.yul\":18424:18425   */\n      0x04\n        /* \"#utility.yul\":18417:18432   */\n      mstore\n        /* \"#utility.yul\":18451:18455   */\n      0x24\n        /* \"#utility.yul\":18448:18449   */\n      0x00\n        /* \"#utility.yul\":18441:18456   */\n      revert\n        /* \"#utility.yul\":18468:18585   */\n    tag_413:\n        /* \"#utility.yul\":18577:18578   */\n      0x00\n        /* \"#utility.yul\":18574:18575   */\n      dup1\n        /* \"#utility.yul\":18567:18579   */\n      revert\n        /* \"#utility.yul\":18591:18708   */\n    tag_402:\n        /* \"#utility.yul\":18700:18701   */\n      0x00\n        /* \"#utility.yul\":18697:18698   */\n      dup1\n        /* \"#utility.yul\":18690:18702   */\n      revert\n        /* \"#utility.yul\":18714:18831   */\n    tag_430:\n        /* \"#utility.yul\":18823:18824   */\n      0x00\n        /* \"#utility.yul\":18820:18821   */\n      dup1\n        /* \"#utility.yul\":18813:18825   */\n      revert\n        /* \"#utility.yul\":18837:18954   */\n    tag_422:\n        /* \"#utility.yul\":18946:18947   */\n      0x00\n        /* \"#utility.yul\":18943:18944   */\n      dup1\n        /* \"#utility.yul\":18936:18948   */\n      revert\n        /* \"#utility.yul\":18960:19062   */\n    tag_469:\n        /* \"#utility.yul\":19001:19007   */\n      0x00\n        /* \"#utility.yul\":19052:19054   */\n      0x1f\n        /* \"#utility.yul\":19048:19055   */\n      not\n        /* \"#utility.yul\":19043:19045   */\n      0x1f\n        /* \"#utility.yul\":19036:19041   */\n      dup4\n        /* \"#utility.yul\":19032:19046   */\n      add\n        /* \"#utility.yul\":19028:19056   */\n      and\n        /* \"#utility.yul\":19018:19056   */\n      swap1\n      pop\n        /* \"#utility.yul\":18960:19062   */\n      swap2\n      swap1\n      pop\n      jump\t// out\n        /* \"#utility.yul\":19068:19295   */\n    tag_486:\n        /* \"#utility.yul\":19208:19242   */\n      0x536f6c6f2073652070756564652074656e657220756e20636f63686520706f72\n        /* \"#utility.yul\":19204:19205   */\n      0x00\n        /* \"#utility.yul\":19196:19202   */\n      dup3\n        /* \"#utility.yul\":19192:19206   */\n      add\n        /* \"#utility.yul\":19185:19243   */\n      mstore\n        /* \"#utility.yul\":19277:19287   */\n      0x20706572736f6e61000000000000000000000000000000000000000000000000\n        /* \"#utility.yul\":19272:19274   */\n      0x20\n        /* \"#utility.yul\":19264:19270   */\n      dup3\n        /* \"#utility.yul\":19260:19275   */\n      add\n        /* \"#utility.yul\":19253:19288   */\n      mstore\n        /* \"#utility.yul\":19068:19295   */\n      pop\n      jump\t// out\n        /* \"#utility.yul\":19301:19526   */\n    tag_491:\n        /* \"#utility.yul\":19441:19475   */\n      0x4f776e61626c653a206e6577206f776e657220697320746865207a65726f2061\n        /* \"#utility.yul\":19437:19438   */\n      0x00\n        /* \"#utility.yul\":19429:19435   */\n      dup3\n        /* \"#utility.yul\":19425:19439   */\n      add\n        /* \"#utility.yul\":19418:19476   */\n      mstore\n        /* \"#utility.yul\":19510:19518   */\n      0x6464726573730000000000000000000000000000000000000000000000000000\n        /* \"#utility.yul\":19505:19507   */\n      0x20\n        /* \"#utility.yul\":19497:19503   */\n      dup3\n        /* \"#utility.yul\":19493:19508   */\n      add\n        /* \"#utility.yul\":19486:19519   */\n      mstore\n        /* \"#utility.yul\":19301:19526   */\n      pop\n      jump\t// out\n        /* \"#utility.yul\":19532:19769   */\n    tag_496:\n        /* \"#utility.yul\":19672:19706   */\n      0x4e6f2068617920636f6368657320737566696369656e74657320706172612069\n        /* \"#utility.yul\":19668:19669   */\n      0x00\n        /* \"#utility.yul\":19660:19666   */\n      dup3\n        /* \"#utility.yul\":19656:19670   */\n      add\n        /* \"#utility.yul\":19649:19707   */\n      mstore\n        /* \"#utility.yul\":19741:19761   */\n      0x6e696369617220756e6120636172726572610000000000000000000000000000\n        /* \"#utility.yul\":19736:19738   */\n      0x20\n        /* \"#utility.yul\":19728:19734   */\n      dup3\n        /* \"#utility.yul\":19724:19739   */\n      add\n        /* \"#utility.yul\":19717:19762   */\n      mstore\n        /* \"#utility.yul\":19532:19769   */\n      pop\n      jump\t// out\n        /* \"#utility.yul\":19775:19957   */\n    tag_501:\n        /* \"#utility.yul\":19915:19949   */\n      0x4f776e61626c653a2063616c6c6572206973206e6f7420746865206f776e6572\n        /* \"#utility.yul\":19911:19912   */\n      0x00\n        /* \"#utility.yul\":19903:19909   */\n      dup3\n        /* \"#utility.yul\":19899:19913   */\n      add\n        /* \"#utility.yul\":19892:19950   */\n      mstore\n        /* \"#utility.yul\":19775:19957   */\n      pop\n      jump\t// out\n        /* \"#utility.yul\":19963:20134   */\n    tag_506:\n        /* \"#utility.yul\":20103:20126   */\n      0x456c20636f6368652067616e61646f722065733a200000000000000000000000\n        /* \"#utility.yul\":20099:20100   */\n      0x00\n        /* \"#utility.yul\":20091:20097   */\n      dup3\n        /* \"#utility.yul\":20087:20101   */\n      add\n        /* \"#utility.yul\":20080:20127   */\n      mstore\n        /* \"#utility.yul\":19963:20134   */\n      pop\n      jump\t// out\n        /* \"#utility.yul\":20140:20262   */\n    tag_408:\n        /* \"#utility.yul\":20213:20237   */\n      tag_637\n        /* \"#utility.yul\":20231:20236   */\n      dup2\n        /* \"#utility.yul\":20213:20237   */\n      tag_459\n      jump\t// in\n    tag_637:\n        /* \"#utility.yul\":20206:20211   */\n      dup2\n        /* \"#utility.yul\":20203:20238   */\n      eq\n        /* \"#utility.yul\":20193:20256   */\n      tag_638\n      jumpi\n        /* \"#utility.yul\":20252:20253   */\n      0x00\n        /* \"#utility.yul\":20249:20250   */\n      dup1\n        /* \"#utility.yul\":20242:20254   */\n      revert\n        /* \"#utility.yul\":20193:20256   */\n    tag_638:\n        /* \"#utility.yul\":20140:20262   */\n      pop\n      jump\t// out\n        /* \"#utility.yul\":20268:20390   */\n    tag_418:\n        /* \"#utility.yul\":20341:20365   */\n      tag_640\n        /* \"#utility.yul\":20359:20364   */\n      dup2\n        /* \"#utility.yul\":20341:20365   */\n      tag_510\n      jump\t// in\n    tag_640:\n        /* \"#utility.yul\":20334:20339   */\n      dup2\n        /* \"#utility.yul\":20331:20366   */\n      eq\n        /* \"#utility.yul\":20321:20384   */\n      tag_641\n      jumpi\n        /* \"#utility.yul\":20380:20381   */\n      0x00\n        /* \"#utility.yul\":20377:20378   */\n      dup1\n        /* \"#utility.yul\":20370:20382   */\n      revert\n        /* \"#utility.yul\":20321:20384   */\n    tag_641:\n        /* \"#utility.yul\":20268:20390   */\n      pop\n      jump\t// out\n\n    auxdata: 0xa2646970667358221220bc511e28eec391fe4e02bd53705cded85e884040580b430bfafab9fa68fd32e964736f6c63430008070033\n}\n",
				"bytecode": {
					"linkReferences": {},
					"object": "608060405260006001556000600255603c600355670de0b6b3a7640000600455671bc16d674ec800006005553480156200003857600080fd5b50620000596200004d6200005f60201b60201c565b6200006760201b60201c565b6200012b565b600033905090565b60008060009054906101000a900473ffffffffffffffffffffffffffffffffffffffff169050816000806101000a81548173ffffffffffffffffffffffffffffffffffffffff021916908373ffffffffffffffffffffffffffffffffffffffff1602179055508173ffffffffffffffffffffffffffffffffffffffff168173ffffffffffffffffffffffffffffffffffffffff167f8be0079c531659141344cd1fd0a4f28419497f9722a3daafe3b4186f6b6457e060405160405180910390a35050565b612ca1806200013b6000396000f3fe6080604052600436106101095760003560e01c8063715018a611610095578063b2bdfa7b11610064578063b2bdfa7b1461038c578063b2e6ceeb146103b7578063d735573d146103e0578063e172fca814610424578063f2fde38b1461044d57610109565b8063715018a6146102e4578063858b0554146102fb5780638da5cb5b14610338578063a9059cbb1461036357610109565b80632458c544116100dc5780632458c544146101cd5780636352211e1461020a5780636a7d1816146102475780636b6f04941461027757806370a08231146102a757610109565b8063049a5f651461010e578063095ea7b31461013e57806317bde7a9146101675780631c6743e414610190575b600080fd5b6101286004803603810190610123919061216e565b610476565b60405161013591906125a4565b60405180910390f35b34801561014a57600080fd5b50610165600480360381019061016091906121f9565b6105d7565b005b34801561017357600080fd5b5061018e60048036038101906101899190612141565b6106ff565b005b34801561019c57600080fd5b506101b760048036038101906101b29190612141565b610851565b6040516101c491906126c7565b60405180910390f35b3480156101d957600080fd5b506101f460048036038101906101ef9190612239565b610869565b60405161020191906126c7565b60405180910390f35b34801561021657600080fd5b50610231600480360381019061022c91906122e0565b610b4b565b60405161023e91906124f6565b60405180910390f35b610261600480360381019061025c9190612141565b610b88565b60405161026e91906125a4565b60405180910390f35b610291600480360381019061028c91906122e0565b610cdd565b60405161029e91906125a4565b60405180910390f35b3480156102b357600080fd5b506102ce60048036038101906102c99190612141565b611618565b6040516102db91906126c7565b60405180910390f35b3480156102f057600080fd5b506102f9611661565b005b34801561030757600080fd5b50610322600480360381019061031d91906122e0565b6116e9565b60405161032f91906124f6565b60405180910390f35b34801561034457600080fd5b5061034d61171c565b60405161035a91906124f6565b60405180910390f35b34801561036f57600080fd5b5061038a600480360381019061038591906121f9565b611745565b005b34801561039857600080fd5b506103a16117c1565b6040516103ae91906124f6565b60405180910390f35b3480156103c357600080fd5b506103de60048036038101906103d991906122e0565b6117e5565b005b3480156103ec57600080fd5b50610407600480360381019061040291906122e0565b61186c565b60405161041b989796959493929190612511565b60405180910390f35b34801561043057600080fd5b5061044b60048036038101906104469190612141565b611a8c565b005b34801561045957600080fd5b50610474600480360381019061046f9190612141565b611c33565b005b60608373ffffffffffffffffffffffffffffffffffffffff163373ffffffffffffffffffffffffffffffffffffffff16146104b057600080fd5b60055434146104be57600080fd5b60005b6006805490508110156105cf573373ffffffffffffffffffffffffffffffffffffffff16600682815481106104f9576104f8612a7b565b5b906000526020600020906008020160000160009054906101000a900473ffffffffffffffffffffffffffffffffffffffff1673ffffffffffffffffffffffffffffffffffffffff1614156105bc57836006828154811061055c5761055b612a7b565b5b90600052602060002090600802016001019080519060200190610580929190611fc4565b50826006828154811061059657610595612a7b565b5b906000526020600020906008020160020190805190602001906105ba929190611fc4565b505b80806105c79061290e565b9150506104c1565b509392505050565b806007600082815260200190815260200160002060009054906101000a900473ffffffffffffffffffffffffffffffffffffffff1673ffffffffffffffffffffffffffffffffffffffff163373ffffffffffffffffffffffffffffffffffffffff161461064357600080fd5b826009600084815260200190815260200160002060006101000a81548173ffffffffffffffffffffffffffffffffffffffff021916908373ffffffffffffffffffffffffffffffffffffffff1602179055508273ffffffffffffffffffffffffffffffffffffffff163373ffffffffffffffffffffffffffffffffffffffff167f8c5be1e5ebec7d5bd14f71427d1e84f3dd0314c0f7b2291e5b200ac8c7c3b925846040516106f291906126c7565b60405180910390a3505050565b60005b60068054905081101561084d578173ffffffffffffffffffffffffffffffffffffffff166006828154811061073a57610739612a7b565b5b906000526020600020906008020160000160009054906101000a900473ffffffffffffffffffffffffffffffffffffffff1673ffffffffffffffffffffffffffffffffffffffff16141561083a57600680548061079a57610799612a4c565b5b6001900381819060005260206000209060080201600080820160006101000a81549073ffffffffffffffffffffffffffffffffffffffff02191690556001820160006107e6919061204a565b6002820160006107f6919061204a565b600382016000610806919061204a565b6004820160009055600582016000905560068201600090556007820160006101000a81549063ffffffff0219169055505090555b80806108459061290e565b915050610702565b5050565b60086020528060005260406000206000915090505481565b60006001600860003373ffffffffffffffffffffffffffffffffffffffff1673ffffffffffffffffffffffffffffffffffffffff16815260200190815260200160002054106108ed576040517f08c379a00000000000000000000000000000000000000000000000000000000081526004016108e490612627565b60405180910390fd5b60066040518061010001604052803373ffffffffffffffffffffffffffffffffffffffff1681526020018681526020018581526020018481526020016000815260200160008152602001600354426109459190612769565b63ffffffff168152602001600163ffffffff16815250908060018154018082558091505060019003906000526020600020906008020160009091909190915060008201518160000160006101000a81548173ffffffffffffffffffffffffffffffffffffffff021916908373ffffffffffffffffffffffffffffffffffffffff16021790555060208201518160010190805190602001906109e7929190611fc4565b506040820151816002019080519060200190610a04929190611fc4565b506060820151816003019080519060200190610a21929190611fc4565b506080820151816004015560a0820151816005015560c0820151816006015560e08201518160070160006101000a81548163ffffffff021916908363ffffffff160217905550505060006006805490509050336007600083815260200190815260200160002060006101000a81548173ffffffffffffffffffffffffffffffffffffffff021916908373ffffffffffffffffffffffffffffffffffffffff160217905550600860003373ffffffffffffffffffffffffffffffffffffffff1673ffffffffffffffffffffffffffffffffffffffff1681526020019081526020016000206000815480929190610b159061290e565b919050555060026000815480929190610b2d9061290e565b91905055506001600254610b4191906127bf565b9150509392505050565b60006007600083815260200190815260200160002060009054906101000a900473ffffffffffffffffffffffffffffffffffffffff169050919050565b60606004543414610b9857600080fd5b60005b600680549050811015610cd6578273ffffffffffffffffffffffffffffffffffffffff1660068281548110610bd357610bd2612a7b565b5b906000526020600020906008020160000160009054906101000a900473ffffffffffffffffffffffffffffffffffffffff1673ffffffffffffffffffffffffffffffffffffffff161415610cc35760068181548110610c3557610c34612a7b565b5b9060005260206000209060080201600701600081819054906101000a900463ffffffff1680929190610c6690612957565b91906101000a81548163ffffffff021916908363ffffffff160217905550506040518060400160405280601281526020017f48612073756269646f206465206e6976656c0000000000000000000000000000815250915050610cd8565b8080610cce9061290e565b915050610b9b565b505b919050565b6060600160068054905011610d26577f6158fc8f21c8cc73ddf920956cc75d0e8a48b4fc85817a0ba89eb3b6d2a75441604051610d1990612667565b60405180910390a1611612565b813414610d3257600080fd5b60016000815480929190610d459061290e565b9190505550600060068054905042600680549050600154604051602001610d6e939291906124b9565b6040516020818303038152906040528051906020012060001c610d91919061298e565b905060006007600083815260200190815260200160002060009054906101000a900473ffffffffffffffffffffffffffffffffffffffff16905060016000815480929190610dde9061290e565b91905055506000606490506000814283600154604051602001610e03939291906124b9565b6040516020818303038152906040528051906020012060001c610e26919061298e565b905060005b60068054905081101561160c5760068181548110610e4c57610e4b612a7b565b5b906000526020600020906008020160000160009054906101000a900473ffffffffffffffffffffffffffffffffffffffff1673ffffffffffffffffffffffffffffffffffffffff163373ffffffffffffffffffffffffffffffffffffffff1614156115f957610edb60068281548110610ec857610ec7612a7b565b5b9060005260206000209060080201611d2b565b610ee457600080fd5b60068181548110610ef857610ef7612a7b565b5b90600052602060002090600802016005016000815480929190610f1a9061290e565b919050555060068581548110610f3357610f32612a7b565b5b90600052602060002090600802016005016000815480929190610f559061290e565b9190505550610f8460068281548110610f7157610f70612a7b565b5b9060005260206000209060080201611d3c565b60068181548110610f9857610f97612a7b565b5b906000526020600020906008020160070160009054906101000a900463ffffffff1663ffffffff1660068681548110610fd457610fd3612a7b565b5b906000526020600020906008020160070160009054906101000a900463ffffffff1663ffffffff1610156111d557603c82116110f357611012611d5b565b6006818154811061102657611025612a7b565b5b906000526020600020906008020160040160008154809291906110489061290e565b91905055506006818154811061106157611060612a7b565b5b9060005260206000209060080201600701600081819054906101000a900463ffffffff168092919061109290612957565b91906101000a81548163ffffffff021916908363ffffffff160217905550506040518060400160405280600a81526020017f4861732067616e61646f0000000000000000000000000000000000000000000081525095505050505050611613565b7f6158fc8f21c8cc73ddf920956cc75d0e8a48b4fc85817a0ba89eb3b6d2a75441604051611120906126a7565b60405180910390a13073ffffffffffffffffffffffffffffffffffffffff1663e172fca8856040518263ffffffff1660e01b815260040161116191906124f6565b600060405180830381600087803b15801561117b57600080fd5b505af115801561118f573d6000803e3d6000fd5b505050506040518060400160405280600b81526020017f486173207065726469646f00000000000000000000000000000000000000000081525095505050505050611613565b600681815481106111e9576111e8612a7b565b5b906000526020600020906008020160070160009054906101000a900463ffffffff1663ffffffff166006868154811061122557611224612a7b565b5b906000526020600020906008020160070160009054906101000a900463ffffffff1663ffffffff161415611426576032821161134457611263611d5b565b6006818154811061127757611276612a7b565b5b906000526020600020906008020160040160008154809291906112999061290e565b9190505550600681815481106112b2576112b1612a7b565b5b9060005260206000209060080201600701600081819054906101000a900463ffffffff16809291906112e390612957565b91906101000a81548163ffffffff021916908363ffffffff160217905550506040518060400160405280600a81526020017f4861732067616e61646f0000000000000000000000000000000000000000000081525095505050505050611613565b7f6158fc8f21c8cc73ddf920956cc75d0e8a48b4fc85817a0ba89eb3b6d2a75441604051611371906126a7565b60405180910390a13073ffffffffffffffffffffffffffffffffffffffff1663e172fca8856040518263ffffffff1660e01b81526004016113b291906124f6565b600060405180830381600087803b1580156113cc57600080fd5b505af11580156113e0573d6000803e3d6000fd5b505050506040518060400160405280600b81526020017f486173207065726469646f00000000000000000000000000000000000000000081525095505050505050611613565b6028821161151757611436611d5b565b6006818154811061144a57611449612a7b565b5b9060005260206000209060080201600401600081548092919061146c9061290e565b91905055506006818154811061148557611484612a7b565b5b9060005260206000209060080201600701600081819054906101000a900463ffffffff16809291906114b690612957565b91906101000a81548163ffffffff021916908363ffffffff160217905550506040518060400160405280600a81526020017f4861732067616e61646f0000000000000000000000000000000000000000000081525095505050505050611613565b7f6158fc8f21c8cc73ddf920956cc75d0e8a48b4fc85817a0ba89eb3b6d2a75441604051611544906126a7565b60405180910390a13073ffffffffffffffffffffffffffffffffffffffff1663e172fca8856040518263ffffffff1660e01b815260040161158591906124f6565b600060405180830381600087803b15801561159f57600080fd5b505af11580156115b3573d6000803e3d6000fd5b505050506040518060400160405280600b81526020017f486173207065726469646f00000000000000000000000000000000000000000081525095505050505050611613565b80806116049061290e565b915050610e2b565b50505050505b5b919050565b6000600860008373ffffffffffffffffffffffffffffffffffffffff1673ffffffffffffffffffffffffffffffffffffffff168152602001908152602001600020549050919050565b611669611da4565b73ffffffffffffffffffffffffffffffffffffffff1661168761171c565b73ffffffffffffffffffffffffffffffffffffffff16146116dd576040517f08c379a00000000000000000000000000000000000000000000000000000000081526004016116d490612687565b60405180910390fd5b6116e76000611dac565b565b60076020528060005260406000206000915054906101000a900473ffffffffffffffffffffffffffffffffffffffff1681565b60008060009054906101000a900473ffffffffffffffffffffffffffffffffffffffff16905090565b806007600082815260200190815260200160002060009054906101000a900473ffffffffffffffffffffffffffffffffffffffff1673ffffffffffffffffffffffffffffffffffffffff163373ffffffffffffffffffffffffffffffffffffffff16146117b157600080fd5b6117bc338484611e70565b505050565b60008054906101000a900473ffffffffffffffffffffffffffffffffffffffff1681565b3373ffffffffffffffffffffffffffffffffffffffff166009600083815260200190815260200160002060009054906101000a900473ffffffffffffffffffffffffffffffffffffffff1673ffffffffffffffffffffffffffffffffffffffff161461185057600080fd5b600061185b82610b4b565b9050611868813384611e70565b5050565b6006818154811061187c57600080fd5b90600052602060002090600802016000915090508060000160009054906101000a900473ffffffffffffffffffffffffffffffffffffffff16908060010180546118c5906128ab565b80601f01602080910402602001604051908101604052809291908181526020018280546118f1906128ab565b801561193e5780601f106119135761010080835404028352916020019161193e565b820191906000526020600020905b81548152906001019060200180831161192157829003601f168201915b505050505090806002018054611953906128ab565b80601f016020809104026020016040519081016040528092919081815260200182805461197f906128ab565b80156119cc5780601f106119a1576101008083540402835291602001916119cc565b820191906000526020600020905b8154815290600101906020018083116119af57829003601f168201915b5050505050908060030180546119e1906128ab565b80601f0160208091040260200160405190810160405280929190818152602001828054611a0d906128ab565b8015611a5a5780601f10611a2f57610100808354040283529160200191611a5a565b820191906000526020600020905b815481529060010190602001808311611a3d57829003601f168201915b5050505050908060040154908060050154908060060154908060070160009054906101000a900463ffffffff16905088565b60005b600680549050811015611c2f578173ffffffffffffffffffffffffffffffffffffffff1660068281548110611ac757611ac6612a7b565b5b906000526020600020906008020160000160009054906101000a900473ffffffffffffffffffffffffffffffffffffffff1673ffffffffffffffffffffffffffffffffffffffff161415611c1c577f20fdb8ab571bfbab79104bea84f9c31cb79c5ae45b5f515c1d6c8393e002835060068281548110611b4a57611b49612a7b565b5b906000526020600020906008020160020160068381548110611b6f57611b6e612a7b565b5b906000526020600020906008020160010160068481548110611b9457611b93612a7b565b5b906000526020600020906008020160070160009054906101000a900463ffffffff1660068581548110611bca57611bc9612a7b565b5b90600052602060002090600802016004015460068681548110611bf057611bef612a7b565b5b906000526020600020906008020160050154604051611c139594939291906125c6565b60405180910390a15b8080611c279061290e565b915050611a8f565b5050565b611c3b611da4565b73ffffffffffffffffffffffffffffffffffffffff16611c5961171c565b73ffffffffffffffffffffffffffffffffffffffff1614611caf576040517f08c379a0000000000000000000000000000000000000000000000000000000008152600401611ca690612687565b60405180910390fd5b600073ffffffffffffffffffffffffffffffffffffffff168173ffffffffffffffffffffffffffffffffffffffff161415611d1f576040517f08c379a0000000000000000000000000000000000000000000000000000000008152600401611d1690612647565b60405180910390fd5b611d2881611dac565b50565b600042826006015411159050919050565b60035442611d4a9190612769565b63ffffffff16816006018190555050565b3373ffffffffffffffffffffffffffffffffffffffff166108fc479081150290604051600060405180830381858888f19350505050158015611da1573d6000803e3d6000fd5b50565b600033905090565b60008060009054906101000a900473ffffffffffffffffffffffffffffffffffffffff169050816000806101000a81548173ffffffffffffffffffffffffffffffffffffffff021916908373ffffffffffffffffffffffffffffffffffffffff1602179055508173ffffffffffffffffffffffffffffffffffffffff168173ffffffffffffffffffffffffffffffffffffffff167f8be0079c531659141344cd1fd0a4f28419497f9722a3daafe3b4186f6b6457e060405160405180910390a35050565b600860008373ffffffffffffffffffffffffffffffffffffffff1673ffffffffffffffffffffffffffffffffffffffff1681526020019081526020016000206000815480929190611ec09061290e565b9190505550600860008473ffffffffffffffffffffffffffffffffffffffff1673ffffffffffffffffffffffffffffffffffffffff1681526020019081526020016000206000815480929190611f1590612881565b91905055508173ffffffffffffffffffffffffffffffffffffffff166007600083815260200190815260200160002060009054906101000a905050508173ffffffffffffffffffffffffffffffffffffffff168373ffffffffffffffffffffffffffffffffffffffff167fddf252ad1be2c89b69c2b068fc378daa952ba7f163c4a11628f55a4df523b3ef83604051611fae91906126c7565b60405180910390a3611fbf836106ff565b505050565b828054611fd0906128ab565b90600052602060002090601f016020900481019282611ff25760008555612039565b82601f1061200b57805160ff1916838001178555612039565b82800160010185558215612039579182015b8281111561203857825182559160200191906001019061201d565b5b509050612046919061208a565b5090565b508054612056906128ab565b6000825580601f106120685750612087565b601f016020900490600052602060002090810190612086919061208a565b5b50565b5b808211156120a357600081600090555060010161208b565b5090565b60006120ba6120b584612707565b6126e2565b9050828152602081018484840111156120d6576120d5612ade565b5b6120e184828561283f565b509392505050565b6000813590506120f881612c3d565b92915050565b600082601f83011261211357612112612ad9565b5b81356121238482602086016120a7565b91505092915050565b60008135905061213b81612c54565b92915050565b60006020828403121561215757612156612ae8565b5b6000612165848285016120e9565b91505092915050565b60008060006060848603121561218757612186612ae8565b5b6000612195868287016120e9565b935050602084013567ffffffffffffffff8111156121b6576121b5612ae3565b5b6121c2868287016120fe565b925050604084013567ffffffffffffffff8111156121e3576121e2612ae3565b5b6121ef868287016120fe565b9150509250925092565b600080604083850312156122105761220f612ae8565b5b600061221e858286016120e9565b925050602061222f8582860161212c565b9150509250929050565b60008060006060848603121561225257612251612ae8565b5b600084013567ffffffffffffffff8111156122705761226f612ae3565b5b61227c868287016120fe565b935050602084013567ffffffffffffffff81111561229d5761229c612ae3565b5b6122a9868287016120fe565b925050604084013567ffffffffffffffff8111156122ca576122c9612ae3565b5b6122d6868287016120fe565b9150509250925092565b6000602082840312156122f6576122f5612ae8565b5b60006123048482850161212c565b91505092915050565b612316816127f3565b82525050565b60006123278261274d565b6123318185612758565b935061234181856020860161284e565b61234a81612aed565b840191505092915050565b60008154612362816128ab565b61236c8186612758565b945060018216600081146123875760018114612399576123cc565b60ff19831686526020860193506123cc565b6123a285612738565b60005b838110156123c4578154818901526001820191506020810190506123a5565b808801955050505b50505092915050565b60006123e2602883612758565b91506123ed82612afe565b604082019050919050565b6000612405602683612758565b915061241082612b4d565b604082019050919050565b6000612428603283612758565b915061243382612b9c565b604082019050919050565b600061244b602083612758565b915061245682612beb565b602082019050919050565b600061246e601583612758565b915061247982612c14565b602082019050919050565b61248d81612825565b82525050565b6124a461249f82612825565b612984565b82525050565b6124b38161282f565b82525050565b60006124c58286612493565b6020820191506124d58285612493565b6020820191506124e58284612493565b602082019150819050949350505050565b600060208201905061250b600083018461230d565b92915050565b600061010082019050612527600083018b61230d565b8181036020830152612539818a61231c565b9050818103604083015261254d818961231c565b90508181036060830152612561818861231c565b90506125706080830187612484565b61257d60a0830186612484565b61258a60c0830185612484565b61259760e08301846124aa565b9998505050505050505050565b600060208201905081810360008301526125be818461231c565b905092915050565b600060a08201905081810360008301526125e08188612355565b905081810360208301526125f48187612355565b905061260360408301866124aa565b6126106060830185612484565b61261d6080830184612484565b9695505050505050565b60006020820190508181036000830152612640816123d5565b9050919050565b60006020820190508181036000830152612660816123f8565b9050919050565b600060208201905081810360008301526126808161241b565b9050919050565b600060208201905081810360008301526126a08161243e565b9050919050565b600060208201905081810360008301526126c081612461565b9050919050565b60006020820190506126dc6000830184612484565b92915050565b60006126ec6126fd565b90506126f882826128dd565b919050565b6000604051905090565b600067ffffffffffffffff82111561272257612721612aaa565b5b61272b82612aed565b9050602081019050919050565b60008190508160005260206000209050919050565b600081519050919050565b600082825260208201905092915050565b600061277482612825565b915061277f83612825565b9250827fffffffffffffffffffffffffffffffffffffffffffffffffffffffffffffffff038211156127b4576127b36129bf565b5b828201905092915050565b60006127ca82612825565b91506127d583612825565b9250828210156127e8576127e76129bf565b5b828203905092915050565b60006127fe82612805565b9050919050565b600073ffffffffffffffffffffffffffffffffffffffff82169050919050565b6000819050919050565b600063ffffffff82169050919050565b82818337600083830152505050565b60005b8381101561286c578082015181840152602081019050612851565b8381111561287b576000848401525b50505050565b600061288c82612825565b915060008214156128a05761289f6129bf565b5b600182039050919050565b600060028204905060018216806128c357607f821691505b602082108114156128d7576128d6612a1d565b5b50919050565b6128e682612aed565b810181811067ffffffffffffffff8211171561290557612904612aaa565b5b80604052505050565b600061291982612825565b91507fffffffffffffffffffffffffffffffffffffffffffffffffffffffffffffffff82141561294c5761294b6129bf565b5b600182019050919050565b60006129628261282f565b915063ffffffff821415612979576129786129bf565b5b600182019050919050565b6000819050919050565b600061299982612825565b91506129a483612825565b9250826129b4576129b36129ee565b5b828206905092915050565b7f4e487b7100000000000000000000000000000000000000000000000000000000600052601160045260246000fd5b7f4e487b7100000000000000000000000000000000000000000000000000000000600052601260045260246000fd5b7f4e487b7100000000000000000000000000000000000000000000000000000000600052602260045260246000fd5b7f4e487b7100000000000000000000000000000000000000000000000000000000600052603160045260246000fd5b7f4e487b7100000000000000000000000000000000000000000000000000000000600052603260045260246000fd5b7f4e487b7100000000000000000000000000000000000000000000000000000000600052604160045260246000fd5b600080fd5b600080fd5b600080fd5b600080fd5b6000601f19601f8301169050919050565b7f536f6c6f2073652070756564652074656e657220756e20636f63686520706f7260008201527f20706572736f6e61000000000000000000000000000000000000000000000000602082015250565b7f4f776e61626c653a206e6577206f776e657220697320746865207a65726f206160008201527f6464726573730000000000000000000000000000000000000000000000000000602082015250565b7f4e6f2068617920636f6368657320737566696369656e7465732070617261206960008201527f6e696369617220756e6120636172726572610000000000000000000000000000602082015250565b7f4f776e61626c653a2063616c6c6572206973206e6f7420746865206f776e6572600082015250565b7f456c20636f6368652067616e61646f722065733a200000000000000000000000600082015250565b612c46816127f3565b8114612c5157600080fd5b50565b612c5d81612825565b8114612c6857600080fd5b5056fea2646970667358221220bc511e28eec391fe4e02bd53705cded85e884040580b430bfafab9fa68fd32e964736f6c63430008070033",
					"opcodes": "PUSH1 0x80 PUSH1 0x40 MSTORE PUSH1 0x0 PUSH1 0x1 SSTORE PUSH1 0x0 PUSH1 0x2 SSTORE PUSH1 0x3C PUSH1 0x3 SSTORE PUSH8 0xDE0B6B3A7640000 PUSH1 0x4 SSTORE PUSH8 0x1BC16D674EC80000 PUSH1 0x5 SSTORE CALLVALUE DUP1 ISZERO PUSH3 0x38 JUMPI PUSH1 0x0 DUP1 REVERT JUMPDEST POP PUSH3 0x59 PUSH3 0x4D PUSH3 0x5F PUSH1 0x20 SHL PUSH1 0x20 SHR JUMP JUMPDEST PUSH3 0x67 PUSH1 0x20 SHL PUSH1 0x20 SHR JUMP JUMPDEST PUSH3 0x12B JUMP JUMPDEST PUSH1 0x0 CALLER SWAP1 POP SWAP1 JUMP JUMPDEST PUSH1 0x0 DUP1 PUSH1 0x0 SWAP1 SLOAD SWAP1 PUSH2 0x100 EXP SWAP1 DIV PUSH20 0xFFFFFFFFFFFFFFFFFFFFFFFFFFFFFFFFFFFFFFFF AND SWAP1 POP DUP2 PUSH1 0x0 DUP1 PUSH2 0x100 EXP DUP2 SLOAD DUP2 PUSH20 0xFFFFFFFFFFFFFFFFFFFFFFFFFFFFFFFFFFFFFFFF MUL NOT AND SWAP1 DUP4 PUSH20 0xFFFFFFFFFFFFFFFFFFFFFFFFFFFFFFFFFFFFFFFF AND MUL OR SWAP1 SSTORE POP DUP2 PUSH20 0xFFFFFFFFFFFFFFFFFFFFFFFFFFFFFFFFFFFFFFFF AND DUP2 PUSH20 0xFFFFFFFFFFFFFFFFFFFFFFFFFFFFFFFFFFFFFFFF AND PUSH32 0x8BE0079C531659141344CD1FD0A4F28419497F9722A3DAAFE3B4186F6B6457E0 PUSH1 0x40 MLOAD PUSH1 0x40 MLOAD DUP1 SWAP2 SUB SWAP1 LOG3 POP POP JUMP JUMPDEST PUSH2 0x2CA1 DUP1 PUSH3 0x13B PUSH1 0x0 CODECOPY PUSH1 0x0 RETURN INVALID PUSH1 0x80 PUSH1 0x40 MSTORE PUSH1 0x4 CALLDATASIZE LT PUSH2 0x109 JUMPI PUSH1 0x0 CALLDATALOAD PUSH1 0xE0 SHR DUP1 PUSH4 0x715018A6 GT PUSH2 0x95 JUMPI DUP1 PUSH4 0xB2BDFA7B GT PUSH2 0x64 JUMPI DUP1 PUSH4 0xB2BDFA7B EQ PUSH2 0x38C JUMPI DUP1 PUSH4 0xB2E6CEEB EQ PUSH2 0x3B7 JUMPI DUP1 PUSH4 0xD735573D EQ PUSH2 0x3E0 JUMPI DUP1 PUSH4 0xE172FCA8 EQ PUSH2 0x424 JUMPI DUP1 PUSH4 0xF2FDE38B EQ PUSH2 0x44D JUMPI PUSH2 0x109 JUMP JUMPDEST DUP1 PUSH4 0x715018A6 EQ PUSH2 0x2E4 JUMPI DUP1 PUSH4 0x858B0554 EQ PUSH2 0x2FB JUMPI DUP1 PUSH4 0x8DA5CB5B EQ PUSH2 0x338 JUMPI DUP1 PUSH4 0xA9059CBB EQ PUSH2 0x363 JUMPI PUSH2 0x109 JUMP JUMPDEST DUP1 PUSH4 0x2458C544 GT PUSH2 0xDC JUMPI DUP1 PUSH4 0x2458C544 EQ PUSH2 0x1CD JUMPI DUP1 PUSH4 0x6352211E EQ PUSH2 0x20A JUMPI DUP1 PUSH4 0x6A7D1816 EQ PUSH2 0x247 JUMPI DUP1 PUSH4 0x6B6F0494 EQ PUSH2 0x277 JUMPI DUP1 PUSH4 0x70A08231 EQ PUSH2 0x2A7 JUMPI PUSH2 0x109 JUMP JUMPDEST DUP1 PUSH4 0x49A5F65 EQ PUSH2 0x10E JUMPI DUP1 PUSH4 0x95EA7B3 EQ PUSH2 0x13E JUMPI DUP1 PUSH4 0x17BDE7A9 EQ PUSH2 0x167 JUMPI DUP1 PUSH4 0x1C6743E4 EQ PUSH2 0x190 JUMPI JUMPDEST PUSH1 0x0 DUP1 REVERT JUMPDEST PUSH2 0x128 PUSH1 0x4 DUP1 CALLDATASIZE SUB DUP2 ADD SWAP1 PUSH2 0x123 SWAP2 SWAP1 PUSH2 0x216E JUMP JUMPDEST PUSH2 0x476 JUMP JUMPDEST PUSH1 0x40 MLOAD PUSH2 0x135 SWAP2 SWAP1 PUSH2 0x25A4 JUMP JUMPDEST PUSH1 0x40 MLOAD DUP1 SWAP2 SUB SWAP1 RETURN JUMPDEST CALLVALUE DUP1 ISZERO PUSH2 0x14A JUMPI PUSH1 0x0 DUP1 REVERT JUMPDEST POP PUSH2 0x165 PUSH1 0x4 DUP1 CALLDATASIZE SUB DUP2 ADD SWAP1 PUSH2 0x160 SWAP2 SWAP1 PUSH2 0x21F9 JUMP JUMPDEST PUSH2 0x5D7 JUMP JUMPDEST STOP JUMPDEST CALLVALUE DUP1 ISZERO PUSH2 0x173 JUMPI PUSH1 0x0 DUP1 REVERT JUMPDEST POP PUSH2 0x18E PUSH1 0x4 DUP1 CALLDATASIZE SUB DUP2 ADD SWAP1 PUSH2 0x189 SWAP2 SWAP1 PUSH2 0x2141 JUMP JUMPDEST PUSH2 0x6FF JUMP JUMPDEST STOP JUMPDEST CALLVALUE DUP1 ISZERO PUSH2 0x19C JUMPI PUSH1 0x0 DUP1 REVERT JUMPDEST POP PUSH2 0x1B7 PUSH1 0x4 DUP1 CALLDATASIZE SUB DUP2 ADD SWAP1 PUSH2 0x1B2 SWAP2 SWAP1 PUSH2 0x2141 JUMP JUMPDEST PUSH2 0x851 JUMP JUMPDEST PUSH1 0x40 MLOAD PUSH2 0x1C4 SWAP2 SWAP1 PUSH2 0x26C7 JUMP JUMPDEST PUSH1 0x40 MLOAD DUP1 SWAP2 SUB SWAP1 RETURN JUMPDEST CALLVALUE DUP1 ISZERO PUSH2 0x1D9 JUMPI PUSH1 0x0 DUP1 REVERT JUMPDEST POP PUSH2 0x1F4 PUSH1 0x4 DUP1 CALLDATASIZE SUB DUP2 ADD SWAP1 PUSH2 0x1EF SWAP2 SWAP1 PUSH2 0x2239 JUMP JUMPDEST PUSH2 0x869 JUMP JUMPDEST PUSH1 0x40 MLOAD PUSH2 0x201 SWAP2 SWAP1 PUSH2 0x26C7 JUMP JUMPDEST PUSH1 0x40 MLOAD DUP1 SWAP2 SUB SWAP1 RETURN JUMPDEST CALLVALUE DUP1 ISZERO PUSH2 0x216 JUMPI PUSH1 0x0 DUP1 REVERT JUMPDEST POP PUSH2 0x231 PUSH1 0x4 DUP1 CALLDATASIZE SUB DUP2 ADD SWAP1 PUSH2 0x22C SWAP2 SWAP1 PUSH2 0x22E0 JUMP JUMPDEST PUSH2 0xB4B JUMP JUMPDEST PUSH1 0x40 MLOAD PUSH2 0x23E SWAP2 SWAP1 PUSH2 0x24F6 JUMP JUMPDEST PUSH1 0x40 MLOAD DUP1 SWAP2 SUB SWAP1 RETURN JUMPDEST PUSH2 0x261 PUSH1 0x4 DUP1 CALLDATASIZE SUB DUP2 ADD SWAP1 PUSH2 0x25C SWAP2 SWAP1 PUSH2 0x2141 JUMP JUMPDEST PUSH2 0xB88 JUMP JUMPDEST PUSH1 0x40 MLOAD PUSH2 0x26E SWAP2 SWAP1 PUSH2 0x25A4 JUMP JUMPDEST PUSH1 0x40 MLOAD DUP1 SWAP2 SUB SWAP1 RETURN JUMPDEST PUSH2 0x291 PUSH1 0x4 DUP1 CALLDATASIZE SUB DUP2 ADD SWAP1 PUSH2 0x28C SWAP2 SWAP1 PUSH2 0x22E0 JUMP JUMPDEST PUSH2 0xCDD JUMP JUMPDEST PUSH1 0x40 MLOAD PUSH2 0x29E SWAP2 SWAP1 PUSH2 0x25A4 JUMP JUMPDEST PUSH1 0x40 MLOAD DUP1 SWAP2 SUB SWAP1 RETURN JUMPDEST CALLVALUE DUP1 ISZERO PUSH2 0x2B3 JUMPI PUSH1 0x0 DUP1 REVERT JUMPDEST POP PUSH2 0x2CE PUSH1 0x4 DUP1 CALLDATASIZE SUB DUP2 ADD SWAP1 PUSH2 0x2C9 SWAP2 SWAP1 PUSH2 0x2141 JUMP JUMPDEST PUSH2 0x1618 JUMP JUMPDEST PUSH1 0x40 MLOAD PUSH2 0x2DB SWAP2 SWAP1 PUSH2 0x26C7 JUMP JUMPDEST PUSH1 0x40 MLOAD DUP1 SWAP2 SUB SWAP1 RETURN JUMPDEST CALLVALUE DUP1 ISZERO PUSH2 0x2F0 JUMPI PUSH1 0x0 DUP1 REVERT JUMPDEST POP PUSH2 0x2F9 PUSH2 0x1661 JUMP JUMPDEST STOP JUMPDEST CALLVALUE DUP1 ISZERO PUSH2 0x307 JUMPI PUSH1 0x0 DUP1 REVERT JUMPDEST POP PUSH2 0x322 PUSH1 0x4 DUP1 CALLDATASIZE SUB DUP2 ADD SWAP1 PUSH2 0x31D SWAP2 SWAP1 PUSH2 0x22E0 JUMP JUMPDEST PUSH2 0x16E9 JUMP JUMPDEST PUSH1 0x40 MLOAD PUSH2 0x32F SWAP2 SWAP1 PUSH2 0x24F6 JUMP JUMPDEST PUSH1 0x40 MLOAD DUP1 SWAP2 SUB SWAP1 RETURN JUMPDEST CALLVALUE DUP1 ISZERO PUSH2 0x344 JUMPI PUSH1 0x0 DUP1 REVERT JUMPDEST POP PUSH2 0x34D PUSH2 0x171C JUMP JUMPDEST PUSH1 0x40 MLOAD PUSH2 0x35A SWAP2 SWAP1 PUSH2 0x24F6 JUMP JUMPDEST PUSH1 0x40 MLOAD DUP1 SWAP2 SUB SWAP1 RETURN JUMPDEST CALLVALUE DUP1 ISZERO PUSH2 0x36F JUMPI PUSH1 0x0 DUP1 REVERT JUMPDEST POP PUSH2 0x38A PUSH1 0x4 DUP1 CALLDATASIZE SUB DUP2 ADD SWAP1 PUSH2 0x385 SWAP2 SWAP1 PUSH2 0x21F9 JUMP JUMPDEST PUSH2 0x1745 JUMP JUMPDEST STOP JUMPDEST CALLVALUE DUP1 ISZERO PUSH2 0x398 JUMPI PUSH1 0x0 DUP1 REVERT JUMPDEST POP PUSH2 0x3A1 PUSH2 0x17C1 JUMP JUMPDEST PUSH1 0x40 MLOAD PUSH2 0x3AE SWAP2 SWAP1 PUSH2 0x24F6 JUMP JUMPDEST PUSH1 0x40 MLOAD DUP1 SWAP2 SUB SWAP1 RETURN JUMPDEST CALLVALUE DUP1 ISZERO PUSH2 0x3C3 JUMPI PUSH1 0x0 DUP1 REVERT JUMPDEST POP PUSH2 0x3DE PUSH1 0x4 DUP1 CALLDATASIZE SUB DUP2 ADD SWAP1 PUSH2 0x3D9 SWAP2 SWAP1 PUSH2 0x22E0 JUMP JUMPDEST PUSH2 0x17E5 JUMP JUMPDEST STOP JUMPDEST CALLVALUE DUP1 ISZERO PUSH2 0x3EC JUMPI PUSH1 0x0 DUP1 REVERT JUMPDEST POP PUSH2 0x407 PUSH1 0x4 DUP1 CALLDATASIZE SUB DUP2 ADD SWAP1 PUSH2 0x402 SWAP2 SWAP1 PUSH2 0x22E0 JUMP JUMPDEST PUSH2 0x186C JUMP JUMPDEST PUSH1 0x40 MLOAD PUSH2 0x41B SWAP9 SWAP8 SWAP7 SWAP6 SWAP5 SWAP4 SWAP3 SWAP2 SWAP1 PUSH2 0x2511 JUMP JUMPDEST PUSH1 0x40 MLOAD DUP1 SWAP2 SUB SWAP1 RETURN JUMPDEST CALLVALUE DUP1 ISZERO PUSH2 0x430 JUMPI PUSH1 0x0 DUP1 REVERT JUMPDEST POP PUSH2 0x44B PUSH1 0x4 DUP1 CALLDATASIZE SUB DUP2 ADD SWAP1 PUSH2 0x446 SWAP2 SWAP1 PUSH2 0x2141 JUMP JUMPDEST PUSH2 0x1A8C JUMP JUMPDEST STOP JUMPDEST CALLVALUE DUP1 ISZERO PUSH2 0x459 JUMPI PUSH1 0x0 DUP1 REVERT JUMPDEST POP PUSH2 0x474 PUSH1 0x4 DUP1 CALLDATASIZE SUB DUP2 ADD SWAP1 PUSH2 0x46F SWAP2 SWAP1 PUSH2 0x2141 JUMP JUMPDEST PUSH2 0x1C33 JUMP JUMPDEST STOP JUMPDEST PUSH1 0x60 DUP4 PUSH20 0xFFFFFFFFFFFFFFFFFFFFFFFFFFFFFFFFFFFFFFFF AND CALLER PUSH20 0xFFFFFFFFFFFFFFFFFFFFFFFFFFFFFFFFFFFFFFFF AND EQ PUSH2 0x4B0 JUMPI PUSH1 0x0 DUP1 REVERT JUMPDEST PUSH1 0x5 SLOAD CALLVALUE EQ PUSH2 0x4BE JUMPI PUSH1 0x0 DUP1 REVERT JUMPDEST PUSH1 0x0 JUMPDEST PUSH1 0x6 DUP1 SLOAD SWAP1 POP DUP2 LT ISZERO PUSH2 0x5CF JUMPI CALLER PUSH20 0xFFFFFFFFFFFFFFFFFFFFFFFFFFFFFFFFFFFFFFFF AND PUSH1 0x6 DUP3 DUP2 SLOAD DUP2 LT PUSH2 0x4F9 JUMPI PUSH2 0x4F8 PUSH2 0x2A7B JUMP JUMPDEST JUMPDEST SWAP1 PUSH1 0x0 MSTORE PUSH1 0x20 PUSH1 0x0 KECCAK256 SWAP1 PUSH1 0x8 MUL ADD PUSH1 0x0 ADD PUSH1 0x0 SWAP1 SLOAD SWAP1 PUSH2 0x100 EXP SWAP1 DIV PUSH20 0xFFFFFFFFFFFFFFFFFFFFFFFFFFFFFFFFFFFFFFFF AND PUSH20 0xFFFFFFFFFFFFFFFFFFFFFFFFFFFFFFFFFFFFFFFF AND EQ ISZERO PUSH2 0x5BC JUMPI DUP4 PUSH1 0x6 DUP3 DUP2 SLOAD DUP2 LT PUSH2 0x55C JUMPI PUSH2 0x55B PUSH2 0x2A7B JUMP JUMPDEST JUMPDEST SWAP1 PUSH1 0x0 MSTORE PUSH1 0x20 PUSH1 0x0 KECCAK256 SWAP1 PUSH1 0x8 MUL ADD PUSH1 0x1 ADD SWAP1 DUP1 MLOAD SWAP1 PUSH1 0x20 ADD SWAP1 PUSH2 0x580 SWAP3 SWAP2 SWAP1 PUSH2 0x1FC4 JUMP JUMPDEST POP DUP3 PUSH1 0x6 DUP3 DUP2 SLOAD DUP2 LT PUSH2 0x596 JUMPI PUSH2 0x595 PUSH2 0x2A7B JUMP JUMPDEST JUMPDEST SWAP1 PUSH1 0x0 MSTORE PUSH1 0x20 PUSH1 0x0 KECCAK256 SWAP1 PUSH1 0x8 MUL ADD PUSH1 0x2 ADD SWAP1 DUP1 MLOAD SWAP1 PUSH1 0x20 ADD SWAP1 PUSH2 0x5BA SWAP3 SWAP2 SWAP1 PUSH2 0x1FC4 JUMP JUMPDEST POP JUMPDEST DUP1 DUP1 PUSH2 0x5C7 SWAP1 PUSH2 0x290E JUMP JUMPDEST SWAP2 POP POP PUSH2 0x4C1 JUMP JUMPDEST POP SWAP4 SWAP3 POP POP POP JUMP JUMPDEST DUP1 PUSH1 0x7 PUSH1 0x0 DUP3 DUP2 MSTORE PUSH1 0x20 ADD SWAP1 DUP2 MSTORE PUSH1 0x20 ADD PUSH1 0x0 KECCAK256 PUSH1 0x0 SWAP1 SLOAD SWAP1 PUSH2 0x100 EXP SWAP1 DIV PUSH20 0xFFFFFFFFFFFFFFFFFFFFFFFFFFFFFFFFFFFFFFFF AND PUSH20 0xFFFFFFFFFFFFFFFFFFFFFFFFFFFFFFFFFFFFFFFF AND CALLER PUSH20 0xFFFFFFFFFFFFFFFFFFFFFFFFFFFFFFFFFFFFFFFF AND EQ PUSH2 0x643 JUMPI PUSH1 0x0 DUP1 REVERT JUMPDEST DUP3 PUSH1 0x9 PUSH1 0x0 DUP5 DUP2 MSTORE PUSH1 0x20 ADD SWAP1 DUP2 MSTORE PUSH1 0x20 ADD PUSH1 0x0 KECCAK256 PUSH1 0x0 PUSH2 0x100 EXP DUP2 SLOAD DUP2 PUSH20 0xFFFFFFFFFFFFFFFFFFFFFFFFFFFFFFFFFFFFFFFF MUL NOT AND SWAP1 DUP4 PUSH20 0xFFFFFFFFFFFFFFFFFFFFFFFFFFFFFFFFFFFFFFFF AND MUL OR SWAP1 SSTORE POP DUP3 PUSH20 0xFFFFFFFFFFFFFFFFFFFFFFFFFFFFFFFFFFFFFFFF AND CALLER PUSH20 0xFFFFFFFFFFFFFFFFFFFFFFFFFFFFFFFFFFFFFFFF AND PUSH32 0x8C5BE1E5EBEC7D5BD14F71427D1E84F3DD0314C0F7B2291E5B200AC8C7C3B925 DUP5 PUSH1 0x40 MLOAD PUSH2 0x6F2 SWAP2 SWAP1 PUSH2 0x26C7 JUMP JUMPDEST PUSH1 0x40 MLOAD DUP1 SWAP2 SUB SWAP1 LOG3 POP POP POP JUMP JUMPDEST PUSH1 0x0 JUMPDEST PUSH1 0x6 DUP1 SLOAD SWAP1 POP DUP2 LT ISZERO PUSH2 0x84D JUMPI DUP2 PUSH20 0xFFFFFFFFFFFFFFFFFFFFFFFFFFFFFFFFFFFFFFFF AND PUSH1 0x6 DUP3 DUP2 SLOAD DUP2 LT PUSH2 0x73A JUMPI PUSH2 0x739 PUSH2 0x2A7B JUMP JUMPDEST JUMPDEST SWAP1 PUSH1 0x0 MSTORE PUSH1 0x20 PUSH1 0x0 KECCAK256 SWAP1 PUSH1 0x8 MUL ADD PUSH1 0x0 ADD PUSH1 0x0 SWAP1 SLOAD SWAP1 PUSH2 0x100 EXP SWAP1 DIV PUSH20 0xFFFFFFFFFFFFFFFFFFFFFFFFFFFFFFFFFFFFFFFF AND PUSH20 0xFFFFFFFFFFFFFFFFFFFFFFFFFFFFFFFFFFFFFFFF AND EQ ISZERO PUSH2 0x83A JUMPI PUSH1 0x6 DUP1 SLOAD DUP1 PUSH2 0x79A JUMPI PUSH2 0x799 PUSH2 0x2A4C JUMP JUMPDEST JUMPDEST PUSH1 0x1 SWAP1 SUB DUP2 DUP2 SWAP1 PUSH1 0x0 MSTORE PUSH1 0x20 PUSH1 0x0 KECCAK256 SWAP1 PUSH1 0x8 MUL ADD PUSH1 0x0 DUP1 DUP3 ADD PUSH1 0x0 PUSH2 0x100 EXP DUP2 SLOAD SWAP1 PUSH20 0xFFFFFFFFFFFFFFFFFFFFFFFFFFFFFFFFFFFFFFFF MUL NOT AND SWAP1 SSTORE PUSH1 0x1 DUP3 ADD PUSH1 0x0 PUSH2 0x7E6 SWAP2 SWAP1 PUSH2 0x204A JUMP JUMPDEST PUSH1 0x2 DUP3 ADD PUSH1 0x0 PUSH2 0x7F6 SWAP2 SWAP1 PUSH2 0x204A JUMP JUMPDEST PUSH1 0x3 DUP3 ADD PUSH1 0x0 PUSH2 0x806 SWAP2 SWAP1 PUSH2 0x204A JUMP JUMPDEST PUSH1 0x4 DUP3 ADD PUSH1 0x0 SWAP1 SSTORE PUSH1 0x5 DUP3 ADD PUSH1 0x0 SWAP1 SSTORE PUSH1 0x6 DUP3 ADD PUSH1 0x0 SWAP1 SSTORE PUSH1 0x7 DUP3 ADD PUSH1 0x0 PUSH2 0x100 EXP DUP2 SLOAD SWAP1 PUSH4 0xFFFFFFFF MUL NOT AND SWAP1 SSTORE POP POP SWAP1 SSTORE JUMPDEST DUP1 DUP1 PUSH2 0x845 SWAP1 PUSH2 0x290E JUMP JUMPDEST SWAP2 POP POP PUSH2 0x702 JUMP JUMPDEST POP POP JUMP JUMPDEST PUSH1 0x8 PUSH1 0x20 MSTORE DUP1 PUSH1 0x0 MSTORE PUSH1 0x40 PUSH1 0x0 KECCAK256 PUSH1 0x0 SWAP2 POP SWAP1 POP SLOAD DUP2 JUMP JUMPDEST PUSH1 0x0 PUSH1 0x1 PUSH1 0x8 PUSH1 0x0 CALLER PUSH20 0xFFFFFFFFFFFFFFFFFFFFFFFFFFFFFFFFFFFFFFFF AND PUSH20 0xFFFFFFFFFFFFFFFFFFFFFFFFFFFFFFFFFFFFFFFF AND DUP2 MSTORE PUSH1 0x20 ADD SWAP1 DUP2 MSTORE PUSH1 0x20 ADD PUSH1 0x0 KECCAK256 SLOAD LT PUSH2 0x8ED JUMPI PUSH1 0x40 MLOAD PUSH32 0x8C379A000000000000000000000000000000000000000000000000000000000 DUP2 MSTORE PUSH1 0x4 ADD PUSH2 0x8E4 SWAP1 PUSH2 0x2627 JUMP JUMPDEST PUSH1 0x40 MLOAD DUP1 SWAP2 SUB SWAP1 REVERT JUMPDEST PUSH1 0x6 PUSH1 0x40 MLOAD DUP1 PUSH2 0x100 ADD PUSH1 0x40 MSTORE DUP1 CALLER PUSH20 0xFFFFFFFFFFFFFFFFFFFFFFFFFFFFFFFFFFFFFFFF AND DUP2 MSTORE PUSH1 0x20 ADD DUP7 DUP2 MSTORE PUSH1 0x20 ADD DUP6 DUP2 MSTORE PUSH1 0x20 ADD DUP5 DUP2 MSTORE PUSH1 0x20 ADD PUSH1 0x0 DUP2 MSTORE PUSH1 0x20 ADD PUSH1 0x0 DUP2 MSTORE PUSH1 0x20 ADD PUSH1 0x3 SLOAD TIMESTAMP PUSH2 0x945 SWAP2 SWAP1 PUSH2 0x2769 JUMP JUMPDEST PUSH4 0xFFFFFFFF AND DUP2 MSTORE PUSH1 0x20 ADD PUSH1 0x1 PUSH4 0xFFFFFFFF AND DUP2 MSTORE POP SWAP1 DUP1 PUSH1 0x1 DUP2 SLOAD ADD DUP1 DUP3 SSTORE DUP1 SWAP2 POP POP PUSH1 0x1 SWAP1 SUB SWAP1 PUSH1 0x0 MSTORE PUSH1 0x20 PUSH1 0x0 KECCAK256 SWAP1 PUSH1 0x8 MUL ADD PUSH1 0x0 SWAP1 SWAP2 SWAP1 SWAP2 SWAP1 SWAP2 POP PUSH1 0x0 DUP3 ADD MLOAD DUP2 PUSH1 0x0 ADD PUSH1 0x0 PUSH2 0x100 EXP DUP2 SLOAD DUP2 PUSH20 0xFFFFFFFFFFFFFFFFFFFFFFFFFFFFFFFFFFFFFFFF MUL NOT AND SWAP1 DUP4 PUSH20 0xFFFFFFFFFFFFFFFFFFFFFFFFFFFFFFFFFFFFFFFF AND MUL OR SWAP1 SSTORE POP PUSH1 0x20 DUP3 ADD MLOAD DUP2 PUSH1 0x1 ADD SWAP1 DUP1 MLOAD SWAP1 PUSH1 0x20 ADD SWAP1 PUSH2 0x9E7 SWAP3 SWAP2 SWAP1 PUSH2 0x1FC4 JUMP JUMPDEST POP PUSH1 0x40 DUP3 ADD MLOAD DUP2 PUSH1 0x2 ADD SWAP1 DUP1 MLOAD SWAP1 PUSH1 0x20 ADD SWAP1 PUSH2 0xA04 SWAP3 SWAP2 SWAP1 PUSH2 0x1FC4 JUMP JUMPDEST POP PUSH1 0x60 DUP3 ADD MLOAD DUP2 PUSH1 0x3 ADD SWAP1 DUP1 MLOAD SWAP1 PUSH1 0x20 ADD SWAP1 PUSH2 0xA21 SWAP3 SWAP2 SWAP1 PUSH2 0x1FC4 JUMP JUMPDEST POP PUSH1 0x80 DUP3 ADD MLOAD DUP2 PUSH1 0x4 ADD SSTORE PUSH1 0xA0 DUP3 ADD MLOAD DUP2 PUSH1 0x5 ADD SSTORE PUSH1 0xC0 DUP3 ADD MLOAD DUP2 PUSH1 0x6 ADD SSTORE PUSH1 0xE0 DUP3 ADD MLOAD DUP2 PUSH1 0x7 ADD PUSH1 0x0 PUSH2 0x100 EXP DUP2 SLOAD DUP2 PUSH4 0xFFFFFFFF MUL NOT AND SWAP1 DUP4 PUSH4 0xFFFFFFFF AND MUL OR SWAP1 SSTORE POP POP POP PUSH1 0x0 PUSH1 0x6 DUP1 SLOAD SWAP1 POP SWAP1 POP CALLER PUSH1 0x7 PUSH1 0x0 DUP4 DUP2 MSTORE PUSH1 0x20 ADD SWAP1 DUP2 MSTORE PUSH1 0x20 ADD PUSH1 0x0 KECCAK256 PUSH1 0x0 PUSH2 0x100 EXP DUP2 SLOAD DUP2 PUSH20 0xFFFFFFFFFFFFFFFFFFFFFFFFFFFFFFFFFFFFFFFF MUL NOT AND SWAP1 DUP4 PUSH20 0xFFFFFFFFFFFFFFFFFFFFFFFFFFFFFFFFFFFFFFFF AND MUL OR SWAP1 SSTORE POP PUSH1 0x8 PUSH1 0x0 CALLER PUSH20 0xFFFFFFFFFFFFFFFFFFFFFFFFFFFFFFFFFFFFFFFF AND PUSH20 0xFFFFFFFFFFFFFFFFFFFFFFFFFFFFFFFFFFFFFFFF AND DUP2 MSTORE PUSH1 0x20 ADD SWAP1 DUP2 MSTORE PUSH1 0x20 ADD PUSH1 0x0 KECCAK256 PUSH1 0x0 DUP2 SLOAD DUP1 SWAP3 SWAP2 SWAP1 PUSH2 0xB15 SWAP1 PUSH2 0x290E JUMP JUMPDEST SWAP2 SWAP1 POP SSTORE POP PUSH1 0x2 PUSH1 0x0 DUP2 SLOAD DUP1 SWAP3 SWAP2 SWAP1 PUSH2 0xB2D SWAP1 PUSH2 0x290E JUMP JUMPDEST SWAP2 SWAP1 POP SSTORE POP PUSH1 0x1 PUSH1 0x2 SLOAD PUSH2 0xB41 SWAP2 SWAP1 PUSH2 0x27BF JUMP JUMPDEST SWAP2 POP POP SWAP4 SWAP3 POP POP POP JUMP JUMPDEST PUSH1 0x0 PUSH1 0x7 PUSH1 0x0 DUP4 DUP2 MSTORE PUSH1 0x20 ADD SWAP1 DUP2 MSTORE PUSH1 0x20 ADD PUSH1 0x0 KECCAK256 PUSH1 0x0 SWAP1 SLOAD SWAP1 PUSH2 0x100 EXP SWAP1 DIV PUSH20 0xFFFFFFFFFFFFFFFFFFFFFFFFFFFFFFFFFFFFFFFF AND SWAP1 POP SWAP2 SWAP1 POP JUMP JUMPDEST PUSH1 0x60 PUSH1 0x4 SLOAD CALLVALUE EQ PUSH2 0xB98 JUMPI PUSH1 0x0 DUP1 REVERT JUMPDEST PUSH1 0x0 JUMPDEST PUSH1 0x6 DUP1 SLOAD SWAP1 POP DUP2 LT ISZERO PUSH2 0xCD6 JUMPI DUP3 PUSH20 0xFFFFFFFFFFFFFFFFFFFFFFFFFFFFFFFFFFFFFFFF AND PUSH1 0x6 DUP3 DUP2 SLOAD DUP2 LT PUSH2 0xBD3 JUMPI PUSH2 0xBD2 PUSH2 0x2A7B JUMP JUMPDEST JUMPDEST SWAP1 PUSH1 0x0 MSTORE PUSH1 0x20 PUSH1 0x0 KECCAK256 SWAP1 PUSH1 0x8 MUL ADD PUSH1 0x0 ADD PUSH1 0x0 SWAP1 SLOAD SWAP1 PUSH2 0x100 EXP SWAP1 DIV PUSH20 0xFFFFFFFFFFFFFFFFFFFFFFFFFFFFFFFFFFFFFFFF AND PUSH20 0xFFFFFFFFFFFFFFFFFFFFFFFFFFFFFFFFFFFFFFFF AND EQ ISZERO PUSH2 0xCC3 JUMPI PUSH1 0x6 DUP2 DUP2 SLOAD DUP2 LT PUSH2 0xC35 JUMPI PUSH2 0xC34 PUSH2 0x2A7B JUMP JUMPDEST JUMPDEST SWAP1 PUSH1 0x0 MSTORE PUSH1 0x20 PUSH1 0x0 KECCAK256 SWAP1 PUSH1 0x8 MUL ADD PUSH1 0x7 ADD PUSH1 0x0 DUP2 DUP2 SWAP1 SLOAD SWAP1 PUSH2 0x100 EXP SWAP1 DIV PUSH4 0xFFFFFFFF AND DUP1 SWAP3 SWAP2 SWAP1 PUSH2 0xC66 SWAP1 PUSH2 0x2957 JUMP JUMPDEST SWAP2 SWAP1 PUSH2 0x100 EXP DUP2 SLOAD DUP2 PUSH4 0xFFFFFFFF MUL NOT AND SWAP1 DUP4 PUSH4 0xFFFFFFFF AND MUL OR SWAP1 SSTORE POP POP PUSH1 0x40 MLOAD DUP1 PUSH1 0x40 ADD PUSH1 0x40 MSTORE DUP1 PUSH1 0x12 DUP2 MSTORE PUSH1 0x20 ADD PUSH32 0x48612073756269646F206465206E6976656C0000000000000000000000000000 DUP2 MSTORE POP SWAP2 POP POP PUSH2 0xCD8 JUMP JUMPDEST DUP1 DUP1 PUSH2 0xCCE SWAP1 PUSH2 0x290E JUMP JUMPDEST SWAP2 POP POP PUSH2 0xB9B JUMP JUMPDEST POP JUMPDEST SWAP2 SWAP1 POP JUMP JUMPDEST PUSH1 0x60 PUSH1 0x1 PUSH1 0x6 DUP1 SLOAD SWAP1 POP GT PUSH2 0xD26 JUMPI PUSH32 0x6158FC8F21C8CC73DDF920956CC75D0E8A48B4FC85817A0BA89EB3B6D2A75441 PUSH1 0x40 MLOAD PUSH2 0xD19 SWAP1 PUSH2 0x2667 JUMP JUMPDEST PUSH1 0x40 MLOAD DUP1 SWAP2 SUB SWAP1 LOG1 PUSH2 0x1612 JUMP JUMPDEST DUP2 CALLVALUE EQ PUSH2 0xD32 JUMPI PUSH1 0x0 DUP1 REVERT JUMPDEST PUSH1 0x1 PUSH1 0x0 DUP2 SLOAD DUP1 SWAP3 SWAP2 SWAP1 PUSH2 0xD45 SWAP1 PUSH2 0x290E JUMP JUMPDEST SWAP2 SWAP1 POP SSTORE POP PUSH1 0x0 PUSH1 0x6 DUP1 SLOAD SWAP1 POP TIMESTAMP PUSH1 0x6 DUP1 SLOAD SWAP1 POP PUSH1 0x1 SLOAD PUSH1 0x40 MLOAD PUSH1 0x20 ADD PUSH2 0xD6E SWAP4 SWAP3 SWAP2 SWAP1 PUSH2 0x24B9 JUMP JUMPDEST PUSH1 0x40 MLOAD PUSH1 0x20 DUP2 DUP4 SUB SUB DUP2 MSTORE SWAP1 PUSH1 0x40 MSTORE DUP1 MLOAD SWAP1 PUSH1 0x20 ADD KECCAK256 PUSH1 0x0 SHR PUSH2 0xD91 SWAP2 SWAP1 PUSH2 0x298E JUMP JUMPDEST SWAP1 POP PUSH1 0x0 PUSH1 0x7 PUSH1 0x0 DUP4 DUP2 MSTORE PUSH1 0x20 ADD SWAP1 DUP2 MSTORE PUSH1 0x20 ADD PUSH1 0x0 KECCAK256 PUSH1 0x0 SWAP1 SLOAD SWAP1 PUSH2 0x100 EXP SWAP1 DIV PUSH20 0xFFFFFFFFFFFFFFFFFFFFFFFFFFFFFFFFFFFFFFFF AND SWAP1 POP PUSH1 0x1 PUSH1 0x0 DUP2 SLOAD DUP1 SWAP3 SWAP2 SWAP1 PUSH2 0xDDE SWAP1 PUSH2 0x290E JUMP JUMPDEST SWAP2 SWAP1 POP SSTORE POP PUSH1 0x0 PUSH1 0x64 SWAP1 POP PUSH1 0x0 DUP2 TIMESTAMP DUP4 PUSH1 0x1 SLOAD PUSH1 0x40 MLOAD PUSH1 0x20 ADD PUSH2 0xE03 SWAP4 SWAP3 SWAP2 SWAP1 PUSH2 0x24B9 JUMP JUMPDEST PUSH1 0x40 MLOAD PUSH1 0x20 DUP2 DUP4 SUB SUB DUP2 MSTORE SWAP1 PUSH1 0x40 MSTORE DUP1 MLOAD SWAP1 PUSH1 0x20 ADD KECCAK256 PUSH1 0x0 SHR PUSH2 0xE26 SWAP2 SWAP1 PUSH2 0x298E JUMP JUMPDEST SWAP1 POP PUSH1 0x0 JUMPDEST PUSH1 0x6 DUP1 SLOAD SWAP1 POP DUP2 LT ISZERO PUSH2 0x160C JUMPI PUSH1 0x6 DUP2 DUP2 SLOAD DUP2 LT PUSH2 0xE4C JUMPI PUSH2 0xE4B PUSH2 0x2A7B JUMP JUMPDEST JUMPDEST SWAP1 PUSH1 0x0 MSTORE PUSH1 0x20 PUSH1 0x0 KECCAK256 SWAP1 PUSH1 0x8 MUL ADD PUSH1 0x0 ADD PUSH1 0x0 SWAP1 SLOAD SWAP1 PUSH2 0x100 EXP SWAP1 DIV PUSH20 0xFFFFFFFFFFFFFFFFFFFFFFFFFFFFFFFFFFFFFFFF AND PUSH20 0xFFFFFFFFFFFFFFFFFFFFFFFFFFFFFFFFFFFFFFFF AND CALLER PUSH20 0xFFFFFFFFFFFFFFFFFFFFFFFFFFFFFFFFFFFFFFFF AND EQ ISZERO PUSH2 0x15F9 JUMPI PUSH2 0xEDB PUSH1 0x6 DUP3 DUP2 SLOAD DUP2 LT PUSH2 0xEC8 JUMPI PUSH2 0xEC7 PUSH2 0x2A7B JUMP JUMPDEST JUMPDEST SWAP1 PUSH1 0x0 MSTORE PUSH1 0x20 PUSH1 0x0 KECCAK256 SWAP1 PUSH1 0x8 MUL ADD PUSH2 0x1D2B JUMP JUMPDEST PUSH2 0xEE4 JUMPI PUSH1 0x0 DUP1 REVERT JUMPDEST PUSH1 0x6 DUP2 DUP2 SLOAD DUP2 LT PUSH2 0xEF8 JUMPI PUSH2 0xEF7 PUSH2 0x2A7B JUMP JUMPDEST JUMPDEST SWAP1 PUSH1 0x0 MSTORE PUSH1 0x20 PUSH1 0x0 KECCAK256 SWAP1 PUSH1 0x8 MUL ADD PUSH1 0x5 ADD PUSH1 0x0 DUP2 SLOAD DUP1 SWAP3 SWAP2 SWAP1 PUSH2 0xF1A SWAP1 PUSH2 0x290E JUMP JUMPDEST SWAP2 SWAP1 POP SSTORE POP PUSH1 0x6 DUP6 DUP2 SLOAD DUP2 LT PUSH2 0xF33 JUMPI PUSH2 0xF32 PUSH2 0x2A7B JUMP JUMPDEST JUMPDEST SWAP1 PUSH1 0x0 MSTORE PUSH1 0x20 PUSH1 0x0 KECCAK256 SWAP1 PUSH1 0x8 MUL ADD PUSH1 0x5 ADD PUSH1 0x0 DUP2 SLOAD DUP1 SWAP3 SWAP2 SWAP1 PUSH2 0xF55 SWAP1 PUSH2 0x290E JUMP JUMPDEST SWAP2 SWAP1 POP SSTORE POP PUSH2 0xF84 PUSH1 0x6 DUP3 DUP2 SLOAD DUP2 LT PUSH2 0xF71 JUMPI PUSH2 0xF70 PUSH2 0x2A7B JUMP JUMPDEST JUMPDEST SWAP1 PUSH1 0x0 MSTORE PUSH1 0x20 PUSH1 0x0 KECCAK256 SWAP1 PUSH1 0x8 MUL ADD PUSH2 0x1D3C JUMP JUMPDEST PUSH1 0x6 DUP2 DUP2 SLOAD DUP2 LT PUSH2 0xF98 JUMPI PUSH2 0xF97 PUSH2 0x2A7B JUMP JUMPDEST JUMPDEST SWAP1 PUSH1 0x0 MSTORE PUSH1 0x20 PUSH1 0x0 KECCAK256 SWAP1 PUSH1 0x8 MUL ADD PUSH1 0x7 ADD PUSH1 0x0 SWAP1 SLOAD SWAP1 PUSH2 0x100 EXP SWAP1 DIV PUSH4 0xFFFFFFFF AND PUSH4 0xFFFFFFFF AND PUSH1 0x6 DUP7 DUP2 SLOAD DUP2 LT PUSH2 0xFD4 JUMPI PUSH2 0xFD3 PUSH2 0x2A7B JUMP JUMPDEST JUMPDEST SWAP1 PUSH1 0x0 MSTORE PUSH1 0x20 PUSH1 0x0 KECCAK256 SWAP1 PUSH1 0x8 MUL ADD PUSH1 0x7 ADD PUSH1 0x0 SWAP1 SLOAD SWAP1 PUSH2 0x100 EXP SWAP1 DIV PUSH4 0xFFFFFFFF AND PUSH4 0xFFFFFFFF AND LT ISZERO PUSH2 0x11D5 JUMPI PUSH1 0x3C DUP3 GT PUSH2 0x10F3 JUMPI PUSH2 0x1012 PUSH2 0x1D5B JUMP JUMPDEST PUSH1 0x6 DUP2 DUP2 SLOAD DUP2 LT PUSH2 0x1026 JUMPI PUSH2 0x1025 PUSH2 0x2A7B JUMP JUMPDEST JUMPDEST SWAP1 PUSH1 0x0 MSTORE PUSH1 0x20 PUSH1 0x0 KECCAK256 SWAP1 PUSH1 0x8 MUL ADD PUSH1 0x4 ADD PUSH1 0x0 DUP2 SLOAD DUP1 SWAP3 SWAP2 SWAP1 PUSH2 0x1048 SWAP1 PUSH2 0x290E JUMP JUMPDEST SWAP2 SWAP1 POP SSTORE POP PUSH1 0x6 DUP2 DUP2 SLOAD DUP2 LT PUSH2 0x1061 JUMPI PUSH2 0x1060 PUSH2 0x2A7B JUMP JUMPDEST JUMPDEST SWAP1 PUSH1 0x0 MSTORE PUSH1 0x20 PUSH1 0x0 KECCAK256 SWAP1 PUSH1 0x8 MUL ADD PUSH1 0x7 ADD PUSH1 0x0 DUP2 DUP2 SWAP1 SLOAD SWAP1 PUSH2 0x100 EXP SWAP1 DIV PUSH4 0xFFFFFFFF AND DUP1 SWAP3 SWAP2 SWAP1 PUSH2 0x1092 SWAP1 PUSH2 0x2957 JUMP JUMPDEST SWAP2 SWAP1 PUSH2 0x100 EXP DUP2 SLOAD DUP2 PUSH4 0xFFFFFFFF MUL NOT AND SWAP1 DUP4 PUSH4 0xFFFFFFFF AND MUL OR SWAP1 SSTORE POP POP PUSH1 0x40 MLOAD DUP1 PUSH1 0x40 ADD PUSH1 0x40 MSTORE DUP1 PUSH1 0xA DUP2 MSTORE PUSH1 0x20 ADD PUSH32 0x4861732067616E61646F00000000000000000000000000000000000000000000 DUP2 MSTORE POP SWAP6 POP POP POP POP POP POP PUSH2 0x1613 JUMP JUMPDEST PUSH32 0x6158FC8F21C8CC73DDF920956CC75D0E8A48B4FC85817A0BA89EB3B6D2A75441 PUSH1 0x40 MLOAD PUSH2 0x1120 SWAP1 PUSH2 0x26A7 JUMP JUMPDEST PUSH1 0x40 MLOAD DUP1 SWAP2 SUB SWAP1 LOG1 ADDRESS PUSH20 0xFFFFFFFFFFFFFFFFFFFFFFFFFFFFFFFFFFFFFFFF AND PUSH4 0xE172FCA8 DUP6 PUSH1 0x40 MLOAD DUP3 PUSH4 0xFFFFFFFF AND PUSH1 0xE0 SHL DUP2 MSTORE PUSH1 0x4 ADD PUSH2 0x1161 SWAP2 SWAP1 PUSH2 0x24F6 JUMP JUMPDEST PUSH1 0x0 PUSH1 0x40 MLOAD DUP1 DUP4 SUB DUP2 PUSH1 0x0 DUP8 DUP1 EXTCODESIZE ISZERO DUP1 ISZERO PUSH2 0x117B JUMPI PUSH1 0x0 DUP1 REVERT JUMPDEST POP GAS CALL ISZERO DUP1 ISZERO PUSH2 0x118F JUMPI RETURNDATASIZE PUSH1 0x0 DUP1 RETURNDATACOPY RETURNDATASIZE PUSH1 0x0 REVERT JUMPDEST POP POP POP POP PUSH1 0x40 MLOAD DUP1 PUSH1 0x40 ADD PUSH1 0x40 MSTORE DUP1 PUSH1 0xB DUP2 MSTORE PUSH1 0x20 ADD PUSH32 0x486173207065726469646F000000000000000000000000000000000000000000 DUP2 MSTORE POP SWAP6 POP POP POP POP POP POP PUSH2 0x1613 JUMP JUMPDEST PUSH1 0x6 DUP2 DUP2 SLOAD DUP2 LT PUSH2 0x11E9 JUMPI PUSH2 0x11E8 PUSH2 0x2A7B JUMP JUMPDEST JUMPDEST SWAP1 PUSH1 0x0 MSTORE PUSH1 0x20 PUSH1 0x0 KECCAK256 SWAP1 PUSH1 0x8 MUL ADD PUSH1 0x7 ADD PUSH1 0x0 SWAP1 SLOAD SWAP1 PUSH2 0x100 EXP SWAP1 DIV PUSH4 0xFFFFFFFF AND PUSH4 0xFFFFFFFF AND PUSH1 0x6 DUP7 DUP2 SLOAD DUP2 LT PUSH2 0x1225 JUMPI PUSH2 0x1224 PUSH2 0x2A7B JUMP JUMPDEST JUMPDEST SWAP1 PUSH1 0x0 MSTORE PUSH1 0x20 PUSH1 0x0 KECCAK256 SWAP1 PUSH1 0x8 MUL ADD PUSH1 0x7 ADD PUSH1 0x0 SWAP1 SLOAD SWAP1 PUSH2 0x100 EXP SWAP1 DIV PUSH4 0xFFFFFFFF AND PUSH4 0xFFFFFFFF AND EQ ISZERO PUSH2 0x1426 JUMPI PUSH1 0x32 DUP3 GT PUSH2 0x1344 JUMPI PUSH2 0x1263 PUSH2 0x1D5B JUMP JUMPDEST PUSH1 0x6 DUP2 DUP2 SLOAD DUP2 LT PUSH2 0x1277 JUMPI PUSH2 0x1276 PUSH2 0x2A7B JUMP JUMPDEST JUMPDEST SWAP1 PUSH1 0x0 MSTORE PUSH1 0x20 PUSH1 0x0 KECCAK256 SWAP1 PUSH1 0x8 MUL ADD PUSH1 0x4 ADD PUSH1 0x0 DUP2 SLOAD DUP1 SWAP3 SWAP2 SWAP1 PUSH2 0x1299 SWAP1 PUSH2 0x290E JUMP JUMPDEST SWAP2 SWAP1 POP SSTORE POP PUSH1 0x6 DUP2 DUP2 SLOAD DUP2 LT PUSH2 0x12B2 JUMPI PUSH2 0x12B1 PUSH2 0x2A7B JUMP JUMPDEST JUMPDEST SWAP1 PUSH1 0x0 MSTORE PUSH1 0x20 PUSH1 0x0 KECCAK256 SWAP1 PUSH1 0x8 MUL ADD PUSH1 0x7 ADD PUSH1 0x0 DUP2 DUP2 SWAP1 SLOAD SWAP1 PUSH2 0x100 EXP SWAP1 DIV PUSH4 0xFFFFFFFF AND DUP1 SWAP3 SWAP2 SWAP1 PUSH2 0x12E3 SWAP1 PUSH2 0x2957 JUMP JUMPDEST SWAP2 SWAP1 PUSH2 0x100 EXP DUP2 SLOAD DUP2 PUSH4 0xFFFFFFFF MUL NOT AND SWAP1 DUP4 PUSH4 0xFFFFFFFF AND MUL OR SWAP1 SSTORE POP POP PUSH1 0x40 MLOAD DUP1 PUSH1 0x40 ADD PUSH1 0x40 MSTORE DUP1 PUSH1 0xA DUP2 MSTORE PUSH1 0x20 ADD PUSH32 0x4861732067616E61646F00000000000000000000000000000000000000000000 DUP2 MSTORE POP SWAP6 POP POP POP POP POP POP PUSH2 0x1613 JUMP JUMPDEST PUSH32 0x6158FC8F21C8CC73DDF920956CC75D0E8A48B4FC85817A0BA89EB3B6D2A75441 PUSH1 0x40 MLOAD PUSH2 0x1371 SWAP1 PUSH2 0x26A7 JUMP JUMPDEST PUSH1 0x40 MLOAD DUP1 SWAP2 SUB SWAP1 LOG1 ADDRESS PUSH20 0xFFFFFFFFFFFFFFFFFFFFFFFFFFFFFFFFFFFFFFFF AND PUSH4 0xE172FCA8 DUP6 PUSH1 0x40 MLOAD DUP3 PUSH4 0xFFFFFFFF AND PUSH1 0xE0 SHL DUP2 MSTORE PUSH1 0x4 ADD PUSH2 0x13B2 SWAP2 SWAP1 PUSH2 0x24F6 JUMP JUMPDEST PUSH1 0x0 PUSH1 0x40 MLOAD DUP1 DUP4 SUB DUP2 PUSH1 0x0 DUP8 DUP1 EXTCODESIZE ISZERO DUP1 ISZERO PUSH2 0x13CC JUMPI PUSH1 0x0 DUP1 REVERT JUMPDEST POP GAS CALL ISZERO DUP1 ISZERO PUSH2 0x13E0 JUMPI RETURNDATASIZE PUSH1 0x0 DUP1 RETURNDATACOPY RETURNDATASIZE PUSH1 0x0 REVERT JUMPDEST POP POP POP POP PUSH1 0x40 MLOAD DUP1 PUSH1 0x40 ADD PUSH1 0x40 MSTORE DUP1 PUSH1 0xB DUP2 MSTORE PUSH1 0x20 ADD PUSH32 0x486173207065726469646F000000000000000000000000000000000000000000 DUP2 MSTORE POP SWAP6 POP POP POP POP POP POP PUSH2 0x1613 JUMP JUMPDEST PUSH1 0x28 DUP3 GT PUSH2 0x1517 JUMPI PUSH2 0x1436 PUSH2 0x1D5B JUMP JUMPDEST PUSH1 0x6 DUP2 DUP2 SLOAD DUP2 LT PUSH2 0x144A JUMPI PUSH2 0x1449 PUSH2 0x2A7B JUMP JUMPDEST JUMPDEST SWAP1 PUSH1 0x0 MSTORE PUSH1 0x20 PUSH1 0x0 KECCAK256 SWAP1 PUSH1 0x8 MUL ADD PUSH1 0x4 ADD PUSH1 0x0 DUP2 SLOAD DUP1 SWAP3 SWAP2 SWAP1 PUSH2 0x146C SWAP1 PUSH2 0x290E JUMP JUMPDEST SWAP2 SWAP1 POP SSTORE POP PUSH1 0x6 DUP2 DUP2 SLOAD DUP2 LT PUSH2 0x1485 JUMPI PUSH2 0x1484 PUSH2 0x2A7B JUMP JUMPDEST JUMPDEST SWAP1 PUSH1 0x0 MSTORE PUSH1 0x20 PUSH1 0x0 KECCAK256 SWAP1 PUSH1 0x8 MUL ADD PUSH1 0x7 ADD PUSH1 0x0 DUP2 DUP2 SWAP1 SLOAD SWAP1 PUSH2 0x100 EXP SWAP1 DIV PUSH4 0xFFFFFFFF AND DUP1 SWAP3 SWAP2 SWAP1 PUSH2 0x14B6 SWAP1 PUSH2 0x2957 JUMP JUMPDEST SWAP2 SWAP1 PUSH2 0x100 EXP DUP2 SLOAD DUP2 PUSH4 0xFFFFFFFF MUL NOT AND SWAP1 DUP4 PUSH4 0xFFFFFFFF AND MUL OR SWAP1 SSTORE POP POP PUSH1 0x40 MLOAD DUP1 PUSH1 0x40 ADD PUSH1 0x40 MSTORE DUP1 PUSH1 0xA DUP2 MSTORE PUSH1 0x20 ADD PUSH32 0x4861732067616E61646F00000000000000000000000000000000000000000000 DUP2 MSTORE POP SWAP6 POP POP POP POP POP POP PUSH2 0x1613 JUMP JUMPDEST PUSH32 0x6158FC8F21C8CC73DDF920956CC75D0E8A48B4FC85817A0BA89EB3B6D2A75441 PUSH1 0x40 MLOAD PUSH2 0x1544 SWAP1 PUSH2 0x26A7 JUMP JUMPDEST PUSH1 0x40 MLOAD DUP1 SWAP2 SUB SWAP1 LOG1 ADDRESS PUSH20 0xFFFFFFFFFFFFFFFFFFFFFFFFFFFFFFFFFFFFFFFF AND PUSH4 0xE172FCA8 DUP6 PUSH1 0x40 MLOAD DUP3 PUSH4 0xFFFFFFFF AND PUSH1 0xE0 SHL DUP2 MSTORE PUSH1 0x4 ADD PUSH2 0x1585 SWAP2 SWAP1 PUSH2 0x24F6 JUMP JUMPDEST PUSH1 0x0 PUSH1 0x40 MLOAD DUP1 DUP4 SUB DUP2 PUSH1 0x0 DUP8 DUP1 EXTCODESIZE ISZERO DUP1 ISZERO PUSH2 0x159F JUMPI PUSH1 0x0 DUP1 REVERT JUMPDEST POP GAS CALL ISZERO DUP1 ISZERO PUSH2 0x15B3 JUMPI RETURNDATASIZE PUSH1 0x0 DUP1 RETURNDATACOPY RETURNDATASIZE PUSH1 0x0 REVERT JUMPDEST POP POP POP POP PUSH1 0x40 MLOAD DUP1 PUSH1 0x40 ADD PUSH1 0x40 MSTORE DUP1 PUSH1 0xB DUP2 MSTORE PUSH1 0x20 ADD PUSH32 0x486173207065726469646F000000000000000000000000000000000000000000 DUP2 MSTORE POP SWAP6 POP POP POP POP POP POP PUSH2 0x1613 JUMP JUMPDEST DUP1 DUP1 PUSH2 0x1604 SWAP1 PUSH2 0x290E JUMP JUMPDEST SWAP2 POP POP PUSH2 0xE2B JUMP JUMPDEST POP POP POP POP POP JUMPDEST JUMPDEST SWAP2 SWAP1 POP JUMP JUMPDEST PUSH1 0x0 PUSH1 0x8 PUSH1 0x0 DUP4 PUSH20 0xFFFFFFFFFFFFFFFFFFFFFFFFFFFFFFFFFFFFFFFF AND PUSH20 0xFFFFFFFFFFFFFFFFFFFFFFFFFFFFFFFFFFFFFFFF AND DUP2 MSTORE PUSH1 0x20 ADD SWAP1 DUP2 MSTORE PUSH1 0x20 ADD PUSH1 0x0 KECCAK256 SLOAD SWAP1 POP SWAP2 SWAP1 POP JUMP JUMPDEST PUSH2 0x1669 PUSH2 0x1DA4 JUMP JUMPDEST PUSH20 0xFFFFFFFFFFFFFFFFFFFFFFFFFFFFFFFFFFFFFFFF AND PUSH2 0x1687 PUSH2 0x171C JUMP JUMPDEST PUSH20 0xFFFFFFFFFFFFFFFFFFFFFFFFFFFFFFFFFFFFFFFF AND EQ PUSH2 0x16DD JUMPI PUSH1 0x40 MLOAD PUSH32 0x8C379A000000000000000000000000000000000000000000000000000000000 DUP2 MSTORE PUSH1 0x4 ADD PUSH2 0x16D4 SWAP1 PUSH2 0x2687 JUMP JUMPDEST PUSH1 0x40 MLOAD DUP1 SWAP2 SUB SWAP1 REVERT JUMPDEST PUSH2 0x16E7 PUSH1 0x0 PUSH2 0x1DAC JUMP JUMPDEST JUMP JUMPDEST PUSH1 0x7 PUSH1 0x20 MSTORE DUP1 PUSH1 0x0 MSTORE PUSH1 0x40 PUSH1 0x0 KECCAK256 PUSH1 0x0 SWAP2 POP SLOAD SWAP1 PUSH2 0x100 EXP SWAP1 DIV PUSH20 0xFFFFFFFFFFFFFFFFFFFFFFFFFFFFFFFFFFFFFFFF AND DUP2 JUMP JUMPDEST PUSH1 0x0 DUP1 PUSH1 0x0 SWAP1 SLOAD SWAP1 PUSH2 0x100 EXP SWAP1 DIV PUSH20 0xFFFFFFFFFFFFFFFFFFFFFFFFFFFFFFFFFFFFFFFF AND SWAP1 POP SWAP1 JUMP JUMPDEST DUP1 PUSH1 0x7 PUSH1 0x0 DUP3 DUP2 MSTORE PUSH1 0x20 ADD SWAP1 DUP2 MSTORE PUSH1 0x20 ADD PUSH1 0x0 KECCAK256 PUSH1 0x0 SWAP1 SLOAD SWAP1 PUSH2 0x100 EXP SWAP1 DIV PUSH20 0xFFFFFFFFFFFFFFFFFFFFFFFFFFFFFFFFFFFFFFFF AND PUSH20 0xFFFFFFFFFFFFFFFFFFFFFFFFFFFFFFFFFFFFFFFF AND CALLER PUSH20 0xFFFFFFFFFFFFFFFFFFFFFFFFFFFFFFFFFFFFFFFF AND EQ PUSH2 0x17B1 JUMPI PUSH1 0x0 DUP1 REVERT JUMPDEST PUSH2 0x17BC CALLER DUP5 DUP5 PUSH2 0x1E70 JUMP JUMPDEST POP POP POP JUMP JUMPDEST PUSH1 0x0 DUP1 SLOAD SWAP1 PUSH2 0x100 EXP SWAP1 DIV PUSH20 0xFFFFFFFFFFFFFFFFFFFFFFFFFFFFFFFFFFFFFFFF AND DUP2 JUMP JUMPDEST CALLER PUSH20 0xFFFFFFFFFFFFFFFFFFFFFFFFFFFFFFFFFFFFFFFF AND PUSH1 0x9 PUSH1 0x0 DUP4 DUP2 MSTORE PUSH1 0x20 ADD SWAP1 DUP2 MSTORE PUSH1 0x20 ADD PUSH1 0x0 KECCAK256 PUSH1 0x0 SWAP1 SLOAD SWAP1 PUSH2 0x100 EXP SWAP1 DIV PUSH20 0xFFFFFFFFFFFFFFFFFFFFFFFFFFFFFFFFFFFFFFFF AND PUSH20 0xFFFFFFFFFFFFFFFFFFFFFFFFFFFFFFFFFFFFFFFF AND EQ PUSH2 0x1850 JUMPI PUSH1 0x0 DUP1 REVERT JUMPDEST PUSH1 0x0 PUSH2 0x185B DUP3 PUSH2 0xB4B JUMP JUMPDEST SWAP1 POP PUSH2 0x1868 DUP2 CALLER DUP5 PUSH2 0x1E70 JUMP JUMPDEST POP POP JUMP JUMPDEST PUSH1 0x6 DUP2 DUP2 SLOAD DUP2 LT PUSH2 0x187C JUMPI PUSH1 0x0 DUP1 REVERT JUMPDEST SWAP1 PUSH1 0x0 MSTORE PUSH1 0x20 PUSH1 0x0 KECCAK256 SWAP1 PUSH1 0x8 MUL ADD PUSH1 0x0 SWAP2 POP SWAP1 POP DUP1 PUSH1 0x0 ADD PUSH1 0x0 SWAP1 SLOAD SWAP1 PUSH2 0x100 EXP SWAP1 DIV PUSH20 0xFFFFFFFFFFFFFFFFFFFFFFFFFFFFFFFFFFFFFFFF AND SWAP1 DUP1 PUSH1 0x1 ADD DUP1 SLOAD PUSH2 0x18C5 SWAP1 PUSH2 0x28AB JUMP JUMPDEST DUP1 PUSH1 0x1F ADD PUSH1 0x20 DUP1 SWAP2 DIV MUL PUSH1 0x20 ADD PUSH1 0x40 MLOAD SWAP1 DUP2 ADD PUSH1 0x40 MSTORE DUP1 SWAP3 SWAP2 SWAP1 DUP2 DUP2 MSTORE PUSH1 0x20 ADD DUP3 DUP1 SLOAD PUSH2 0x18F1 SWAP1 PUSH2 0x28AB JUMP JUMPDEST DUP1 ISZERO PUSH2 0x193E JUMPI DUP1 PUSH1 0x1F LT PUSH2 0x1913 JUMPI PUSH2 0x100 DUP1 DUP4 SLOAD DIV MUL DUP4 MSTORE SWAP2 PUSH1 0x20 ADD SWAP2 PUSH2 0x193E JUMP JUMPDEST DUP3 ADD SWAP2 SWAP1 PUSH1 0x0 MSTORE PUSH1 0x20 PUSH1 0x0 KECCAK256 SWAP1 JUMPDEST DUP2 SLOAD DUP2 MSTORE SWAP1 PUSH1 0x1 ADD SWAP1 PUSH1 0x20 ADD DUP1 DUP4 GT PUSH2 0x1921 JUMPI DUP3 SWAP1 SUB PUSH1 0x1F AND DUP3 ADD SWAP2 JUMPDEST POP POP POP POP POP SWAP1 DUP1 PUSH1 0x2 ADD DUP1 SLOAD PUSH2 0x1953 SWAP1 PUSH2 0x28AB JUMP JUMPDEST DUP1 PUSH1 0x1F ADD PUSH1 0x20 DUP1 SWAP2 DIV MUL PUSH1 0x20 ADD PUSH1 0x40 MLOAD SWAP1 DUP2 ADD PUSH1 0x40 MSTORE DUP1 SWAP3 SWAP2 SWAP1 DUP2 DUP2 MSTORE PUSH1 0x20 ADD DUP3 DUP1 SLOAD PUSH2 0x197F SWAP1 PUSH2 0x28AB JUMP JUMPDEST DUP1 ISZERO PUSH2 0x19CC JUMPI DUP1 PUSH1 0x1F LT PUSH2 0x19A1 JUMPI PUSH2 0x100 DUP1 DUP4 SLOAD DIV MUL DUP4 MSTORE SWAP2 PUSH1 0x20 ADD SWAP2 PUSH2 0x19CC JUMP JUMPDEST DUP3 ADD SWAP2 SWAP1 PUSH1 0x0 MSTORE PUSH1 0x20 PUSH1 0x0 KECCAK256 SWAP1 JUMPDEST DUP2 SLOAD DUP2 MSTORE SWAP1 PUSH1 0x1 ADD SWAP1 PUSH1 0x20 ADD DUP1 DUP4 GT PUSH2 0x19AF JUMPI DUP3 SWAP1 SUB PUSH1 0x1F AND DUP3 ADD SWAP2 JUMPDEST POP POP POP POP POP SWAP1 DUP1 PUSH1 0x3 ADD DUP1 SLOAD PUSH2 0x19E1 SWAP1 PUSH2 0x28AB JUMP JUMPDEST DUP1 PUSH1 0x1F ADD PUSH1 0x20 DUP1 SWAP2 DIV MUL PUSH1 0x20 ADD PUSH1 0x40 MLOAD SWAP1 DUP2 ADD PUSH1 0x40 MSTORE DUP1 SWAP3 SWAP2 SWAP1 DUP2 DUP2 MSTORE PUSH1 0x20 ADD DUP3 DUP1 SLOAD PUSH2 0x1A0D SWAP1 PUSH2 0x28AB JUMP JUMPDEST DUP1 ISZERO PUSH2 0x1A5A JUMPI DUP1 PUSH1 0x1F LT PUSH2 0x1A2F JUMPI PUSH2 0x100 DUP1 DUP4 SLOAD DIV MUL DUP4 MSTORE SWAP2 PUSH1 0x20 ADD SWAP2 PUSH2 0x1A5A JUMP JUMPDEST DUP3 ADD SWAP2 SWAP1 PUSH1 0x0 MSTORE PUSH1 0x20 PUSH1 0x0 KECCAK256 SWAP1 JUMPDEST DUP2 SLOAD DUP2 MSTORE SWAP1 PUSH1 0x1 ADD SWAP1 PUSH1 0x20 ADD DUP1 DUP4 GT PUSH2 0x1A3D JUMPI DUP3 SWAP1 SUB PUSH1 0x1F AND DUP3 ADD SWAP2 JUMPDEST POP POP POP POP POP SWAP1 DUP1 PUSH1 0x4 ADD SLOAD SWAP1 DUP1 PUSH1 0x5 ADD SLOAD SWAP1 DUP1 PUSH1 0x6 ADD SLOAD SWAP1 DUP1 PUSH1 0x7 ADD PUSH1 0x0 SWAP1 SLOAD SWAP1 PUSH2 0x100 EXP SWAP1 DIV PUSH4 0xFFFFFFFF AND SWAP1 POP DUP9 JUMP JUMPDEST PUSH1 0x0 JUMPDEST PUSH1 0x6 DUP1 SLOAD SWAP1 POP DUP2 LT ISZERO PUSH2 0x1C2F JUMPI DUP2 PUSH20 0xFFFFFFFFFFFFFFFFFFFFFFFFFFFFFFFFFFFFFFFF AND PUSH1 0x6 DUP3 DUP2 SLOAD DUP2 LT PUSH2 0x1AC7 JUMPI PUSH2 0x1AC6 PUSH2 0x2A7B JUMP JUMPDEST JUMPDEST SWAP1 PUSH1 0x0 MSTORE PUSH1 0x20 PUSH1 0x0 KECCAK256 SWAP1 PUSH1 0x8 MUL ADD PUSH1 0x0 ADD PUSH1 0x0 SWAP1 SLOAD SWAP1 PUSH2 0x100 EXP SWAP1 DIV PUSH20 0xFFFFFFFFFFFFFFFFFFFFFFFFFFFFFFFFFFFFFFFF AND PUSH20 0xFFFFFFFFFFFFFFFFFFFFFFFFFFFFFFFFFFFFFFFF AND EQ ISZERO PUSH2 0x1C1C JUMPI PUSH32 0x20FDB8AB571BFBAB79104BEA84F9C31CB79C5AE45B5F515C1D6C8393E0028350 PUSH1 0x6 DUP3 DUP2 SLOAD DUP2 LT PUSH2 0x1B4A JUMPI PUSH2 0x1B49 PUSH2 0x2A7B JUMP JUMPDEST JUMPDEST SWAP1 PUSH1 0x0 MSTORE PUSH1 0x20 PUSH1 0x0 KECCAK256 SWAP1 PUSH1 0x8 MUL ADD PUSH1 0x2 ADD PUSH1 0x6 DUP4 DUP2 SLOAD DUP2 LT PUSH2 0x1B6F JUMPI PUSH2 0x1B6E PUSH2 0x2A7B JUMP JUMPDEST JUMPDEST SWAP1 PUSH1 0x0 MSTORE PUSH1 0x20 PUSH1 0x0 KECCAK256 SWAP1 PUSH1 0x8 MUL ADD PUSH1 0x1 ADD PUSH1 0x6 DUP5 DUP2 SLOAD DUP2 LT PUSH2 0x1B94 JUMPI PUSH2 0x1B93 PUSH2 0x2A7B JUMP JUMPDEST JUMPDEST SWAP1 PUSH1 0x0 MSTORE PUSH1 0x20 PUSH1 0x0 KECCAK256 SWAP1 PUSH1 0x8 MUL ADD PUSH1 0x7 ADD PUSH1 0x0 SWAP1 SLOAD SWAP1 PUSH2 0x100 EXP SWAP1 DIV PUSH4 0xFFFFFFFF AND PUSH1 0x6 DUP6 DUP2 SLOAD DUP2 LT PUSH2 0x1BCA JUMPI PUSH2 0x1BC9 PUSH2 0x2A7B JUMP JUMPDEST JUMPDEST SWAP1 PUSH1 0x0 MSTORE PUSH1 0x20 PUSH1 0x0 KECCAK256 SWAP1 PUSH1 0x8 MUL ADD PUSH1 0x4 ADD SLOAD PUSH1 0x6 DUP7 DUP2 SLOAD DUP2 LT PUSH2 0x1BF0 JUMPI PUSH2 0x1BEF PUSH2 0x2A7B JUMP JUMPDEST JUMPDEST SWAP1 PUSH1 0x0 MSTORE PUSH1 0x20 PUSH1 0x0 KECCAK256 SWAP1 PUSH1 0x8 MUL ADD PUSH1 0x5 ADD SLOAD PUSH1 0x40 MLOAD PUSH2 0x1C13 SWAP6 SWAP5 SWAP4 SWAP3 SWAP2 SWAP1 PUSH2 0x25C6 JUMP JUMPDEST PUSH1 0x40 MLOAD DUP1 SWAP2 SUB SWAP1 LOG1 JUMPDEST DUP1 DUP1 PUSH2 0x1C27 SWAP1 PUSH2 0x290E JUMP JUMPDEST SWAP2 POP POP PUSH2 0x1A8F JUMP JUMPDEST POP POP JUMP JUMPDEST PUSH2 0x1C3B PUSH2 0x1DA4 JUMP JUMPDEST PUSH20 0xFFFFFFFFFFFFFFFFFFFFFFFFFFFFFFFFFFFFFFFF AND PUSH2 0x1C59 PUSH2 0x171C JUMP JUMPDEST PUSH20 0xFFFFFFFFFFFFFFFFFFFFFFFFFFFFFFFFFFFFFFFF AND EQ PUSH2 0x1CAF JUMPI PUSH1 0x40 MLOAD PUSH32 0x8C379A000000000000000000000000000000000000000000000000000000000 DUP2 MSTORE PUSH1 0x4 ADD PUSH2 0x1CA6 SWAP1 PUSH2 0x2687 JUMP JUMPDEST PUSH1 0x40 MLOAD DUP1 SWAP2 SUB SWAP1 REVERT JUMPDEST PUSH1 0x0 PUSH20 0xFFFFFFFFFFFFFFFFFFFFFFFFFFFFFFFFFFFFFFFF AND DUP2 PUSH20 0xFFFFFFFFFFFFFFFFFFFFFFFFFFFFFFFFFFFFFFFF AND EQ ISZERO PUSH2 0x1D1F JUMPI PUSH1 0x40 MLOAD PUSH32 0x8C379A000000000000000000000000000000000000000000000000000000000 DUP2 MSTORE PUSH1 0x4 ADD PUSH2 0x1D16 SWAP1 PUSH2 0x2647 JUMP JUMPDEST PUSH1 0x40 MLOAD DUP1 SWAP2 SUB SWAP1 REVERT JUMPDEST PUSH2 0x1D28 DUP2 PUSH2 0x1DAC JUMP JUMPDEST POP JUMP JUMPDEST PUSH1 0x0 TIMESTAMP DUP3 PUSH1 0x6 ADD SLOAD GT ISZERO SWAP1 POP SWAP2 SWAP1 POP JUMP JUMPDEST PUSH1 0x3 SLOAD TIMESTAMP PUSH2 0x1D4A SWAP2 SWAP1 PUSH2 0x2769 JUMP JUMPDEST PUSH4 0xFFFFFFFF AND DUP2 PUSH1 0x6 ADD DUP2 SWAP1 SSTORE POP POP JUMP JUMPDEST CALLER PUSH20 0xFFFFFFFFFFFFFFFFFFFFFFFFFFFFFFFFFFFFFFFF AND PUSH2 0x8FC SELFBALANCE SWAP1 DUP2 ISZERO MUL SWAP1 PUSH1 0x40 MLOAD PUSH1 0x0 PUSH1 0x40 MLOAD DUP1 DUP4 SUB DUP2 DUP6 DUP9 DUP9 CALL SWAP4 POP POP POP POP ISZERO DUP1 ISZERO PUSH2 0x1DA1 JUMPI RETURNDATASIZE PUSH1 0x0 DUP1 RETURNDATACOPY RETURNDATASIZE PUSH1 0x0 REVERT JUMPDEST POP JUMP JUMPDEST PUSH1 0x0 CALLER SWAP1 POP SWAP1 JUMP JUMPDEST PUSH1 0x0 DUP1 PUSH1 0x0 SWAP1 SLOAD SWAP1 PUSH2 0x100 EXP SWAP1 DIV PUSH20 0xFFFFFFFFFFFFFFFFFFFFFFFFFFFFFFFFFFFFFFFF AND SWAP1 POP DUP2 PUSH1 0x0 DUP1 PUSH2 0x100 EXP DUP2 SLOAD DUP2 PUSH20 0xFFFFFFFFFFFFFFFFFFFFFFFFFFFFFFFFFFFFFFFF MUL NOT AND SWAP1 DUP4 PUSH20 0xFFFFFFFFFFFFFFFFFFFFFFFFFFFFFFFFFFFFFFFF AND MUL OR SWAP1 SSTORE POP DUP2 PUSH20 0xFFFFFFFFFFFFFFFFFFFFFFFFFFFFFFFFFFFFFFFF AND DUP2 PUSH20 0xFFFFFFFFFFFFFFFFFFFFFFFFFFFFFFFFFFFFFFFF AND PUSH32 0x8BE0079C531659141344CD1FD0A4F28419497F9722A3DAAFE3B4186F6B6457E0 PUSH1 0x40 MLOAD PUSH1 0x40 MLOAD DUP1 SWAP2 SUB SWAP1 LOG3 POP POP JUMP JUMPDEST PUSH1 0x8 PUSH1 0x0 DUP4 PUSH20 0xFFFFFFFFFFFFFFFFFFFFFFFFFFFFFFFFFFFFFFFF AND PUSH20 0xFFFFFFFFFFFFFFFFFFFFFFFFFFFFFFFFFFFFFFFF AND DUP2 MSTORE PUSH1 0x20 ADD SWAP1 DUP2 MSTORE PUSH1 0x20 ADD PUSH1 0x0 KECCAK256 PUSH1 0x0 DUP2 SLOAD DUP1 SWAP3 SWAP2 SWAP1 PUSH2 0x1EC0 SWAP1 PUSH2 0x290E JUMP JUMPDEST SWAP2 SWAP1 POP SSTORE POP PUSH1 0x8 PUSH1 0x0 DUP5 PUSH20 0xFFFFFFFFFFFFFFFFFFFFFFFFFFFFFFFFFFFFFFFF AND PUSH20 0xFFFFFFFFFFFFFFFFFFFFFFFFFFFFFFFFFFFFFFFF AND DUP2 MSTORE PUSH1 0x20 ADD SWAP1 DUP2 MSTORE PUSH1 0x20 ADD PUSH1 0x0 KECCAK256 PUSH1 0x0 DUP2 SLOAD DUP1 SWAP3 SWAP2 SWAP1 PUSH2 0x1F15 SWAP1 PUSH2 0x2881 JUMP JUMPDEST SWAP2 SWAP1 POP SSTORE POP DUP2 PUSH20 0xFFFFFFFFFFFFFFFFFFFFFFFFFFFFFFFFFFFFFFFF AND PUSH1 0x7 PUSH1 0x0 DUP4 DUP2 MSTORE PUSH1 0x20 ADD SWAP1 DUP2 MSTORE PUSH1 0x20 ADD PUSH1 0x0 KECCAK256 PUSH1 0x0 SWAP1 SLOAD SWAP1 PUSH2 0x100 EXP SWAP1 POP POP POP DUP2 PUSH20 0xFFFFFFFFFFFFFFFFFFFFFFFFFFFFFFFFFFFFFFFF AND DUP4 PUSH20 0xFFFFFFFFFFFFFFFFFFFFFFFFFFFFFFFFFFFFFFFF AND PUSH32 0xDDF252AD1BE2C89B69C2B068FC378DAA952BA7F163C4A11628F55A4DF523B3EF DUP4 PUSH1 0x40 MLOAD PUSH2 0x1FAE SWAP2 SWAP1 PUSH2 0x26C7 JUMP JUMPDEST PUSH1 0x40 MLOAD DUP1 SWAP2 SUB SWAP1 LOG3 PUSH2 0x1FBF DUP4 PUSH2 0x6FF JUMP JUMPDEST POP POP POP JUMP JUMPDEST DUP3 DUP1 SLOAD PUSH2 0x1FD0 SWAP1 PUSH2 0x28AB JUMP JUMPDEST SWAP1 PUSH1 0x0 MSTORE PUSH1 0x20 PUSH1 0x0 KECCAK256 SWAP1 PUSH1 0x1F ADD PUSH1 0x20 SWAP1 DIV DUP2 ADD SWAP3 DUP3 PUSH2 0x1FF2 JUMPI PUSH1 0x0 DUP6 SSTORE PUSH2 0x2039 JUMP JUMPDEST DUP3 PUSH1 0x1F LT PUSH2 0x200B JUMPI DUP1 MLOAD PUSH1 0xFF NOT AND DUP4 DUP1 ADD OR DUP6 SSTORE PUSH2 0x2039 JUMP JUMPDEST DUP3 DUP1 ADD PUSH1 0x1 ADD DUP6 SSTORE DUP3 ISZERO PUSH2 0x2039 JUMPI SWAP2 DUP3 ADD JUMPDEST DUP3 DUP2 GT ISZERO PUSH2 0x2038 JUMPI DUP3 MLOAD DUP3 SSTORE SWAP2 PUSH1 0x20 ADD SWAP2 SWAP1 PUSH1 0x1 ADD SWAP1 PUSH2 0x201D JUMP JUMPDEST JUMPDEST POP SWAP1 POP PUSH2 0x2046 SWAP2 SWAP1 PUSH2 0x208A JUMP JUMPDEST POP SWAP1 JUMP JUMPDEST POP DUP1 SLOAD PUSH2 0x2056 SWAP1 PUSH2 0x28AB JUMP JUMPDEST PUSH1 0x0 DUP3 SSTORE DUP1 PUSH1 0x1F LT PUSH2 0x2068 JUMPI POP PUSH2 0x2087 JUMP JUMPDEST PUSH1 0x1F ADD PUSH1 0x20 SWAP1 DIV SWAP1 PUSH1 0x0 MSTORE PUSH1 0x20 PUSH1 0x0 KECCAK256 SWAP1 DUP2 ADD SWAP1 PUSH2 0x2086 SWAP2 SWAP1 PUSH2 0x208A JUMP JUMPDEST JUMPDEST POP JUMP JUMPDEST JUMPDEST DUP1 DUP3 GT ISZERO PUSH2 0x20A3 JUMPI PUSH1 0x0 DUP2 PUSH1 0x0 SWAP1 SSTORE POP PUSH1 0x1 ADD PUSH2 0x208B JUMP JUMPDEST POP SWAP1 JUMP JUMPDEST PUSH1 0x0 PUSH2 0x20BA PUSH2 0x20B5 DUP5 PUSH2 0x2707 JUMP JUMPDEST PUSH2 0x26E2 JUMP JUMPDEST SWAP1 POP DUP3 DUP2 MSTORE PUSH1 0x20 DUP2 ADD DUP5 DUP5 DUP5 ADD GT ISZERO PUSH2 0x20D6 JUMPI PUSH2 0x20D5 PUSH2 0x2ADE JUMP JUMPDEST JUMPDEST PUSH2 0x20E1 DUP5 DUP3 DUP6 PUSH2 0x283F JUMP JUMPDEST POP SWAP4 SWAP3 POP POP POP JUMP JUMPDEST PUSH1 0x0 DUP2 CALLDATALOAD SWAP1 POP PUSH2 0x20F8 DUP2 PUSH2 0x2C3D JUMP JUMPDEST SWAP3 SWAP2 POP POP JUMP JUMPDEST PUSH1 0x0 DUP3 PUSH1 0x1F DUP4 ADD SLT PUSH2 0x2113 JUMPI PUSH2 0x2112 PUSH2 0x2AD9 JUMP JUMPDEST JUMPDEST DUP2 CALLDATALOAD PUSH2 0x2123 DUP5 DUP3 PUSH1 0x20 DUP7 ADD PUSH2 0x20A7 JUMP JUMPDEST SWAP2 POP POP SWAP3 SWAP2 POP POP JUMP JUMPDEST PUSH1 0x0 DUP2 CALLDATALOAD SWAP1 POP PUSH2 0x213B DUP2 PUSH2 0x2C54 JUMP JUMPDEST SWAP3 SWAP2 POP POP JUMP JUMPDEST PUSH1 0x0 PUSH1 0x20 DUP3 DUP5 SUB SLT ISZERO PUSH2 0x2157 JUMPI PUSH2 0x2156 PUSH2 0x2AE8 JUMP JUMPDEST JUMPDEST PUSH1 0x0 PUSH2 0x2165 DUP5 DUP3 DUP6 ADD PUSH2 0x20E9 JUMP JUMPDEST SWAP2 POP POP SWAP3 SWAP2 POP POP JUMP JUMPDEST PUSH1 0x0 DUP1 PUSH1 0x0 PUSH1 0x60 DUP5 DUP7 SUB SLT ISZERO PUSH2 0x2187 JUMPI PUSH2 0x2186 PUSH2 0x2AE8 JUMP JUMPDEST JUMPDEST PUSH1 0x0 PUSH2 0x2195 DUP7 DUP3 DUP8 ADD PUSH2 0x20E9 JUMP JUMPDEST SWAP4 POP POP PUSH1 0x20 DUP5 ADD CALLDATALOAD PUSH8 0xFFFFFFFFFFFFFFFF DUP2 GT ISZERO PUSH2 0x21B6 JUMPI PUSH2 0x21B5 PUSH2 0x2AE3 JUMP JUMPDEST JUMPDEST PUSH2 0x21C2 DUP7 DUP3 DUP8 ADD PUSH2 0x20FE JUMP JUMPDEST SWAP3 POP POP PUSH1 0x40 DUP5 ADD CALLDATALOAD PUSH8 0xFFFFFFFFFFFFFFFF DUP2 GT ISZERO PUSH2 0x21E3 JUMPI PUSH2 0x21E2 PUSH2 0x2AE3 JUMP JUMPDEST JUMPDEST PUSH2 0x21EF DUP7 DUP3 DUP8 ADD PUSH2 0x20FE JUMP JUMPDEST SWAP2 POP POP SWAP3 POP SWAP3 POP SWAP3 JUMP JUMPDEST PUSH1 0x0 DUP1 PUSH1 0x40 DUP4 DUP6 SUB SLT ISZERO PUSH2 0x2210 JUMPI PUSH2 0x220F PUSH2 0x2AE8 JUMP JUMPDEST JUMPDEST PUSH1 0x0 PUSH2 0x221E DUP6 DUP3 DUP7 ADD PUSH2 0x20E9 JUMP JUMPDEST SWAP3 POP POP PUSH1 0x20 PUSH2 0x222F DUP6 DUP3 DUP7 ADD PUSH2 0x212C JUMP JUMPDEST SWAP2 POP POP SWAP3 POP SWAP3 SWAP1 POP JUMP JUMPDEST PUSH1 0x0 DUP1 PUSH1 0x0 PUSH1 0x60 DUP5 DUP7 SUB SLT ISZERO PUSH2 0x2252 JUMPI PUSH2 0x2251 PUSH2 0x2AE8 JUMP JUMPDEST JUMPDEST PUSH1 0x0 DUP5 ADD CALLDATALOAD PUSH8 0xFFFFFFFFFFFFFFFF DUP2 GT ISZERO PUSH2 0x2270 JUMPI PUSH2 0x226F PUSH2 0x2AE3 JUMP JUMPDEST JUMPDEST PUSH2 0x227C DUP7 DUP3 DUP8 ADD PUSH2 0x20FE JUMP JUMPDEST SWAP4 POP POP PUSH1 0x20 DUP5 ADD CALLDATALOAD PUSH8 0xFFFFFFFFFFFFFFFF DUP2 GT ISZERO PUSH2 0x229D JUMPI PUSH2 0x229C PUSH2 0x2AE3 JUMP JUMPDEST JUMPDEST PUSH2 0x22A9 DUP7 DUP3 DUP8 ADD PUSH2 0x20FE JUMP JUMPDEST SWAP3 POP POP PUSH1 0x40 DUP5 ADD CALLDATALOAD PUSH8 0xFFFFFFFFFFFFFFFF DUP2 GT ISZERO PUSH2 0x22CA JUMPI PUSH2 0x22C9 PUSH2 0x2AE3 JUMP JUMPDEST JUMPDEST PUSH2 0x22D6 DUP7 DUP3 DUP8 ADD PUSH2 0x20FE JUMP JUMPDEST SWAP2 POP POP SWAP3 POP SWAP3 POP SWAP3 JUMP JUMPDEST PUSH1 0x0 PUSH1 0x20 DUP3 DUP5 SUB SLT ISZERO PUSH2 0x22F6 JUMPI PUSH2 0x22F5 PUSH2 0x2AE8 JUMP JUMPDEST JUMPDEST PUSH1 0x0 PUSH2 0x2304 DUP5 DUP3 DUP6 ADD PUSH2 0x212C JUMP JUMPDEST SWAP2 POP POP SWAP3 SWAP2 POP POP JUMP JUMPDEST PUSH2 0x2316 DUP2 PUSH2 0x27F3 JUMP JUMPDEST DUP3 MSTORE POP POP JUMP JUMPDEST PUSH1 0x0 PUSH2 0x2327 DUP3 PUSH2 0x274D JUMP JUMPDEST PUSH2 0x2331 DUP2 DUP6 PUSH2 0x2758 JUMP JUMPDEST SWAP4 POP PUSH2 0x2341 DUP2 DUP6 PUSH1 0x20 DUP7 ADD PUSH2 0x284E JUMP JUMPDEST PUSH2 0x234A DUP2 PUSH2 0x2AED JUMP JUMPDEST DUP5 ADD SWAP2 POP POP SWAP3 SWAP2 POP POP JUMP JUMPDEST PUSH1 0x0 DUP2 SLOAD PUSH2 0x2362 DUP2 PUSH2 0x28AB JUMP JUMPDEST PUSH2 0x236C DUP2 DUP7 PUSH2 0x2758 JUMP JUMPDEST SWAP5 POP PUSH1 0x1 DUP3 AND PUSH1 0x0 DUP2 EQ PUSH2 0x2387 JUMPI PUSH1 0x1 DUP2 EQ PUSH2 0x2399 JUMPI PUSH2 0x23CC JUMP JUMPDEST PUSH1 0xFF NOT DUP4 AND DUP7 MSTORE PUSH1 0x20 DUP7 ADD SWAP4 POP PUSH2 0x23CC JUMP JUMPDEST PUSH2 0x23A2 DUP6 PUSH2 0x2738 JUMP JUMPDEST PUSH1 0x0 JUMPDEST DUP4 DUP2 LT ISZERO PUSH2 0x23C4 JUMPI DUP2 SLOAD DUP2 DUP10 ADD MSTORE PUSH1 0x1 DUP3 ADD SWAP2 POP PUSH1 0x20 DUP2 ADD SWAP1 POP PUSH2 0x23A5 JUMP JUMPDEST DUP1 DUP9 ADD SWAP6 POP POP POP JUMPDEST POP POP POP SWAP3 SWAP2 POP POP JUMP JUMPDEST PUSH1 0x0 PUSH2 0x23E2 PUSH1 0x28 DUP4 PUSH2 0x2758 JUMP JUMPDEST SWAP2 POP PUSH2 0x23ED DUP3 PUSH2 0x2AFE JUMP JUMPDEST PUSH1 0x40 DUP3 ADD SWAP1 POP SWAP2 SWAP1 POP JUMP JUMPDEST PUSH1 0x0 PUSH2 0x2405 PUSH1 0x26 DUP4 PUSH2 0x2758 JUMP JUMPDEST SWAP2 POP PUSH2 0x2410 DUP3 PUSH2 0x2B4D JUMP JUMPDEST PUSH1 0x40 DUP3 ADD SWAP1 POP SWAP2 SWAP1 POP JUMP JUMPDEST PUSH1 0x0 PUSH2 0x2428 PUSH1 0x32 DUP4 PUSH2 0x2758 JUMP JUMPDEST SWAP2 POP PUSH2 0x2433 DUP3 PUSH2 0x2B9C JUMP JUMPDEST PUSH1 0x40 DUP3 ADD SWAP1 POP SWAP2 SWAP1 POP JUMP JUMPDEST PUSH1 0x0 PUSH2 0x244B PUSH1 0x20 DUP4 PUSH2 0x2758 JUMP JUMPDEST SWAP2 POP PUSH2 0x2456 DUP3 PUSH2 0x2BEB JUMP JUMPDEST PUSH1 0x20 DUP3 ADD SWAP1 POP SWAP2 SWAP1 POP JUMP JUMPDEST PUSH1 0x0 PUSH2 0x246E PUSH1 0x15 DUP4 PUSH2 0x2758 JUMP JUMPDEST SWAP2 POP PUSH2 0x2479 DUP3 PUSH2 0x2C14 JUMP JUMPDEST PUSH1 0x20 DUP3 ADD SWAP1 POP SWAP2 SWAP1 POP JUMP JUMPDEST PUSH2 0x248D DUP2 PUSH2 0x2825 JUMP JUMPDEST DUP3 MSTORE POP POP JUMP JUMPDEST PUSH2 0x24A4 PUSH2 0x249F DUP3 PUSH2 0x2825 JUMP JUMPDEST PUSH2 0x2984 JUMP JUMPDEST DUP3 MSTORE POP POP JUMP JUMPDEST PUSH2 0x24B3 DUP2 PUSH2 0x282F JUMP JUMPDEST DUP3 MSTORE POP POP JUMP JUMPDEST PUSH1 0x0 PUSH2 0x24C5 DUP3 DUP7 PUSH2 0x2493 JUMP JUMPDEST PUSH1 0x20 DUP3 ADD SWAP2 POP PUSH2 0x24D5 DUP3 DUP6 PUSH2 0x2493 JUMP JUMPDEST PUSH1 0x20 DUP3 ADD SWAP2 POP PUSH2 0x24E5 DUP3 DUP5 PUSH2 0x2493 JUMP JUMPDEST PUSH1 0x20 DUP3 ADD SWAP2 POP DUP2 SWAP1 POP SWAP5 SWAP4 POP POP POP POP JUMP JUMPDEST PUSH1 0x0 PUSH1 0x20 DUP3 ADD SWAP1 POP PUSH2 0x250B PUSH1 0x0 DUP4 ADD DUP5 PUSH2 0x230D JUMP JUMPDEST SWAP3 SWAP2 POP POP JUMP JUMPDEST PUSH1 0x0 PUSH2 0x100 DUP3 ADD SWAP1 POP PUSH2 0x2527 PUSH1 0x0 DUP4 ADD DUP12 PUSH2 0x230D JUMP JUMPDEST DUP2 DUP2 SUB PUSH1 0x20 DUP4 ADD MSTORE PUSH2 0x2539 DUP2 DUP11 PUSH2 0x231C JUMP JUMPDEST SWAP1 POP DUP2 DUP2 SUB PUSH1 0x40 DUP4 ADD MSTORE PUSH2 0x254D DUP2 DUP10 PUSH2 0x231C JUMP JUMPDEST SWAP1 POP DUP2 DUP2 SUB PUSH1 0x60 DUP4 ADD MSTORE PUSH2 0x2561 DUP2 DUP9 PUSH2 0x231C JUMP JUMPDEST SWAP1 POP PUSH2 0x2570 PUSH1 0x80 DUP4 ADD DUP8 PUSH2 0x2484 JUMP JUMPDEST PUSH2 0x257D PUSH1 0xA0 DUP4 ADD DUP7 PUSH2 0x2484 JUMP JUMPDEST PUSH2 0x258A PUSH1 0xC0 DUP4 ADD DUP6 PUSH2 0x2484 JUMP JUMPDEST PUSH2 0x2597 PUSH1 0xE0 DUP4 ADD DUP5 PUSH2 0x24AA JUMP JUMPDEST SWAP10 SWAP9 POP POP POP POP POP POP POP POP POP JUMP JUMPDEST PUSH1 0x0 PUSH1 0x20 DUP3 ADD SWAP1 POP DUP2 DUP2 SUB PUSH1 0x0 DUP4 ADD MSTORE PUSH2 0x25BE DUP2 DUP5 PUSH2 0x231C JUMP JUMPDEST SWAP1 POP SWAP3 SWAP2 POP POP JUMP JUMPDEST PUSH1 0x0 PUSH1 0xA0 DUP3 ADD SWAP1 POP DUP2 DUP2 SUB PUSH1 0x0 DUP4 ADD MSTORE PUSH2 0x25E0 DUP2 DUP9 PUSH2 0x2355 JUMP JUMPDEST SWAP1 POP DUP2 DUP2 SUB PUSH1 0x20 DUP4 ADD MSTORE PUSH2 0x25F4 DUP2 DUP8 PUSH2 0x2355 JUMP JUMPDEST SWAP1 POP PUSH2 0x2603 PUSH1 0x40 DUP4 ADD DUP7 PUSH2 0x24AA JUMP JUMPDEST PUSH2 0x2610 PUSH1 0x60 DUP4 ADD DUP6 PUSH2 0x2484 JUMP JUMPDEST PUSH2 0x261D PUSH1 0x80 DUP4 ADD DUP5 PUSH2 0x2484 JUMP JUMPDEST SWAP7 SWAP6 POP POP POP POP POP POP JUMP JUMPDEST PUSH1 0x0 PUSH1 0x20 DUP3 ADD SWAP1 POP DUP2 DUP2 SUB PUSH1 0x0 DUP4 ADD MSTORE PUSH2 0x2640 DUP2 PUSH2 0x23D5 JUMP JUMPDEST SWAP1 POP SWAP2 SWAP1 POP JUMP JUMPDEST PUSH1 0x0 PUSH1 0x20 DUP3 ADD SWAP1 POP DUP2 DUP2 SUB PUSH1 0x0 DUP4 ADD MSTORE PUSH2 0x2660 DUP2 PUSH2 0x23F8 JUMP JUMPDEST SWAP1 POP SWAP2 SWAP1 POP JUMP JUMPDEST PUSH1 0x0 PUSH1 0x20 DUP3 ADD SWAP1 POP DUP2 DUP2 SUB PUSH1 0x0 DUP4 ADD MSTORE PUSH2 0x2680 DUP2 PUSH2 0x241B JUMP JUMPDEST SWAP1 POP SWAP2 SWAP1 POP JUMP JUMPDEST PUSH1 0x0 PUSH1 0x20 DUP3 ADD SWAP1 POP DUP2 DUP2 SUB PUSH1 0x0 DUP4 ADD MSTORE PUSH2 0x26A0 DUP2 PUSH2 0x243E JUMP JUMPDEST SWAP1 POP SWAP2 SWAP1 POP JUMP JUMPDEST PUSH1 0x0 PUSH1 0x20 DUP3 ADD SWAP1 POP DUP2 DUP2 SUB PUSH1 0x0 DUP4 ADD MSTORE PUSH2 0x26C0 DUP2 PUSH2 0x2461 JUMP JUMPDEST SWAP1 POP SWAP2 SWAP1 POP JUMP JUMPDEST PUSH1 0x0 PUSH1 0x20 DUP3 ADD SWAP1 POP PUSH2 0x26DC PUSH1 0x0 DUP4 ADD DUP5 PUSH2 0x2484 JUMP JUMPDEST SWAP3 SWAP2 POP POP JUMP JUMPDEST PUSH1 0x0 PUSH2 0x26EC PUSH2 0x26FD JUMP JUMPDEST SWAP1 POP PUSH2 0x26F8 DUP3 DUP3 PUSH2 0x28DD JUMP JUMPDEST SWAP2 SWAP1 POP JUMP JUMPDEST PUSH1 0x0 PUSH1 0x40 MLOAD SWAP1 POP SWAP1 JUMP JUMPDEST PUSH1 0x0 PUSH8 0xFFFFFFFFFFFFFFFF DUP3 GT ISZERO PUSH2 0x2722 JUMPI PUSH2 0x2721 PUSH2 0x2AAA JUMP JUMPDEST JUMPDEST PUSH2 0x272B DUP3 PUSH2 0x2AED JUMP JUMPDEST SWAP1 POP PUSH1 0x20 DUP2 ADD SWAP1 POP SWAP2 SWAP1 POP JUMP JUMPDEST PUSH1 0x0 DUP2 SWAP1 POP DUP2 PUSH1 0x0 MSTORE PUSH1 0x20 PUSH1 0x0 KECCAK256 SWAP1 POP SWAP2 SWAP1 POP JUMP JUMPDEST PUSH1 0x0 DUP2 MLOAD SWAP1 POP SWAP2 SWAP1 POP JUMP JUMPDEST PUSH1 0x0 DUP3 DUP3 MSTORE PUSH1 0x20 DUP3 ADD SWAP1 POP SWAP3 SWAP2 POP POP JUMP JUMPDEST PUSH1 0x0 PUSH2 0x2774 DUP3 PUSH2 0x2825 JUMP JUMPDEST SWAP2 POP PUSH2 0x277F DUP4 PUSH2 0x2825 JUMP JUMPDEST SWAP3 POP DUP3 PUSH32 0xFFFFFFFFFFFFFFFFFFFFFFFFFFFFFFFFFFFFFFFFFFFFFFFFFFFFFFFFFFFFFFFF SUB DUP3 GT ISZERO PUSH2 0x27B4 JUMPI PUSH2 0x27B3 PUSH2 0x29BF JUMP JUMPDEST JUMPDEST DUP3 DUP3 ADD SWAP1 POP SWAP3 SWAP2 POP POP JUMP JUMPDEST PUSH1 0x0 PUSH2 0x27CA DUP3 PUSH2 0x2825 JUMP JUMPDEST SWAP2 POP PUSH2 0x27D5 DUP4 PUSH2 0x2825 JUMP JUMPDEST SWAP3 POP DUP3 DUP3 LT ISZERO PUSH2 0x27E8 JUMPI PUSH2 0x27E7 PUSH2 0x29BF JUMP JUMPDEST JUMPDEST DUP3 DUP3 SUB SWAP1 POP SWAP3 SWAP2 POP POP JUMP JUMPDEST PUSH1 0x0 PUSH2 0x27FE DUP3 PUSH2 0x2805 JUMP JUMPDEST SWAP1 POP SWAP2 SWAP1 POP JUMP JUMPDEST PUSH1 0x0 PUSH20 0xFFFFFFFFFFFFFFFFFFFFFFFFFFFFFFFFFFFFFFFF DUP3 AND SWAP1 POP SWAP2 SWAP1 POP JUMP JUMPDEST PUSH1 0x0 DUP2 SWAP1 POP SWAP2 SWAP1 POP JUMP JUMPDEST PUSH1 0x0 PUSH4 0xFFFFFFFF DUP3 AND SWAP1 POP SWAP2 SWAP1 POP JUMP JUMPDEST DUP3 DUP2 DUP4 CALLDATACOPY PUSH1 0x0 DUP4 DUP4 ADD MSTORE POP POP POP JUMP JUMPDEST PUSH1 0x0 JUMPDEST DUP4 DUP2 LT ISZERO PUSH2 0x286C JUMPI DUP1 DUP3 ADD MLOAD DUP2 DUP5 ADD MSTORE PUSH1 0x20 DUP2 ADD SWAP1 POP PUSH2 0x2851 JUMP JUMPDEST DUP4 DUP2 GT ISZERO PUSH2 0x287B JUMPI PUSH1 0x0 DUP5 DUP5 ADD MSTORE JUMPDEST POP POP POP POP JUMP JUMPDEST PUSH1 0x0 PUSH2 0x288C DUP3 PUSH2 0x2825 JUMP JUMPDEST SWAP2 POP PUSH1 0x0 DUP3 EQ ISZERO PUSH2 0x28A0 JUMPI PUSH2 0x289F PUSH2 0x29BF JUMP JUMPDEST JUMPDEST PUSH1 0x1 DUP3 SUB SWAP1 POP SWAP2 SWAP1 POP JUMP JUMPDEST PUSH1 0x0 PUSH1 0x2 DUP3 DIV SWAP1 POP PUSH1 0x1 DUP3 AND DUP1 PUSH2 0x28C3 JUMPI PUSH1 0x7F DUP3 AND SWAP2 POP JUMPDEST PUSH1 0x20 DUP3 LT DUP2 EQ ISZERO PUSH2 0x28D7 JUMPI PUSH2 0x28D6 PUSH2 0x2A1D JUMP JUMPDEST JUMPDEST POP SWAP2 SWAP1 POP JUMP JUMPDEST PUSH2 0x28E6 DUP3 PUSH2 0x2AED JUMP JUMPDEST DUP2 ADD DUP2 DUP2 LT PUSH8 0xFFFFFFFFFFFFFFFF DUP3 GT OR ISZERO PUSH2 0x2905 JUMPI PUSH2 0x2904 PUSH2 0x2AAA JUMP JUMPDEST JUMPDEST DUP1 PUSH1 0x40 MSTORE POP POP POP JUMP JUMPDEST PUSH1 0x0 PUSH2 0x2919 DUP3 PUSH2 0x2825 JUMP JUMPDEST SWAP2 POP PUSH32 0xFFFFFFFFFFFFFFFFFFFFFFFFFFFFFFFFFFFFFFFFFFFFFFFFFFFFFFFFFFFFFFFF DUP3 EQ ISZERO PUSH2 0x294C JUMPI PUSH2 0x294B PUSH2 0x29BF JUMP JUMPDEST JUMPDEST PUSH1 0x1 DUP3 ADD SWAP1 POP SWAP2 SWAP1 POP JUMP JUMPDEST PUSH1 0x0 PUSH2 0x2962 DUP3 PUSH2 0x282F JUMP JUMPDEST SWAP2 POP PUSH4 0xFFFFFFFF DUP3 EQ ISZERO PUSH2 0x2979 JUMPI PUSH2 0x2978 PUSH2 0x29BF JUMP JUMPDEST JUMPDEST PUSH1 0x1 DUP3 ADD SWAP1 POP SWAP2 SWAP1 POP JUMP JUMPDEST PUSH1 0x0 DUP2 SWAP1 POP SWAP2 SWAP1 POP JUMP JUMPDEST PUSH1 0x0 PUSH2 0x2999 DUP3 PUSH2 0x2825 JUMP JUMPDEST SWAP2 POP PUSH2 0x29A4 DUP4 PUSH2 0x2825 JUMP JUMPDEST SWAP3 POP DUP3 PUSH2 0x29B4 JUMPI PUSH2 0x29B3 PUSH2 0x29EE JUMP JUMPDEST JUMPDEST DUP3 DUP3 MOD SWAP1 POP SWAP3 SWAP2 POP POP JUMP JUMPDEST PUSH32 0x4E487B7100000000000000000000000000000000000000000000000000000000 PUSH1 0x0 MSTORE PUSH1 0x11 PUSH1 0x4 MSTORE PUSH1 0x24 PUSH1 0x0 REVERT JUMPDEST PUSH32 0x4E487B7100000000000000000000000000000000000000000000000000000000 PUSH1 0x0 MSTORE PUSH1 0x12 PUSH1 0x4 MSTORE PUSH1 0x24 PUSH1 0x0 REVERT JUMPDEST PUSH32 0x4E487B7100000000000000000000000000000000000000000000000000000000 PUSH1 0x0 MSTORE PUSH1 0x22 PUSH1 0x4 MSTORE PUSH1 0x24 PUSH1 0x0 REVERT JUMPDEST PUSH32 0x4E487B7100000000000000000000000000000000000000000000000000000000 PUSH1 0x0 MSTORE PUSH1 0x31 PUSH1 0x4 MSTORE PUSH1 0x24 PUSH1 0x0 REVERT JUMPDEST PUSH32 0x4E487B7100000000000000000000000000000000000000000000000000000000 PUSH1 0x0 MSTORE PUSH1 0x32 PUSH1 0x4 MSTORE PUSH1 0x24 PUSH1 0x0 REVERT JUMPDEST PUSH32 0x4E487B7100000000000000000000000000000000000000000000000000000000 PUSH1 0x0 MSTORE PUSH1 0x41 PUSH1 0x4 MSTORE PUSH1 0x24 PUSH1 0x0 REVERT JUMPDEST PUSH1 0x0 DUP1 REVERT JUMPDEST PUSH1 0x0 DUP1 REVERT JUMPDEST PUSH1 0x0 DUP1 REVERT JUMPDEST PUSH1 0x0 DUP1 REVERT JUMPDEST PUSH1 0x0 PUSH1 0x1F NOT PUSH1 0x1F DUP4 ADD AND SWAP1 POP SWAP2 SWAP1 POP JUMP JUMPDEST PUSH32 0x536F6C6F2073652070756564652074656E657220756E20636F63686520706F72 PUSH1 0x0 DUP3 ADD MSTORE PUSH32 0x20706572736F6E61000000000000000000000000000000000000000000000000 PUSH1 0x20 DUP3 ADD MSTORE POP JUMP JUMPDEST PUSH32 0x4F776E61626C653A206E6577206F776E657220697320746865207A65726F2061 PUSH1 0x0 DUP3 ADD MSTORE PUSH32 0x6464726573730000000000000000000000000000000000000000000000000000 PUSH1 0x20 DUP3 ADD MSTORE POP JUMP JUMPDEST PUSH32 0x4E6F2068617920636F6368657320737566696369656E74657320706172612069 PUSH1 0x0 DUP3 ADD MSTORE PUSH32 0x6E696369617220756E6120636172726572610000000000000000000000000000 PUSH1 0x20 DUP3 ADD MSTORE POP JUMP JUMPDEST PUSH32 0x4F776E61626C653A2063616C6C6572206973206E6F7420746865206F776E6572 PUSH1 0x0 DUP3 ADD MSTORE POP JUMP JUMPDEST PUSH32 0x456C20636F6368652067616E61646F722065733A200000000000000000000000 PUSH1 0x0 DUP3 ADD MSTORE POP JUMP JUMPDEST PUSH2 0x2C46 DUP2 PUSH2 0x27F3 JUMP JUMPDEST DUP2 EQ PUSH2 0x2C51 JUMPI PUSH1 0x0 DUP1 REVERT JUMPDEST POP JUMP JUMPDEST PUSH2 0x2C5D DUP2 PUSH2 0x2825 JUMP JUMPDEST DUP2 EQ PUSH2 0x2C68 JUMPI PUSH1 0x0 DUP1 REVERT JUMPDEST POP JUMP INVALID LOG2 PUSH5 0x6970667358 0x22 SLT KECCAK256 0xBC MLOAD 0x1E 0x28 0xEE 0xC3 SWAP2 INVALID 0x4E MUL 0xBD MSTORE8 PUSH17 0x5CDED85E884040580B430BFAFAB9FA68FD ORIGIN 0xE9 PUSH5 0x736F6C6343 STOP ADDMOD SMOD STOP CALLER "
				},
				"gasEstimates": {
					"creation": {
						"codeDepositCost": "2285000",
						"executionCost": "infinite",
						"totalCost": "infinite"
					},
					"external": {
						"Apostar(uint256)": "infinite",
						"_owner()": "2533",
						"anadirCoche(string,string,string)": "infinite",
						"approve(address,uint256)": "infinite",
						"balanceOf(address)": "2952",
						"borrarCoche(address)": "infinite",
						"cocheDePropietario(uint256)": "2884",
						"comprarCoche(address,string,string)": "infinite",
						"listaCoches(uint256)": "infinite",
						"numeroCochesPersona(address)": "2904",
						"owner()": "2589",
						"ownerOf(uint256)": "2910",
						"renounceOwnership()": "30397",
						"subirDeNivel(address)": "infinite",
						"takeOwnership(uint256)": "infinite",
						"transfer(address,uint256)": "infinite",
						"transferOwnership(address)": "30833",
						"verCochePropietario(address)": "infinite"
					},
					"internal": {
						"_transfer(address,address,uint256)": "infinite"
					}
				},
				"methodIdentifiers": {
					"Apostar(uint256)": "6b6f0494",
					"_owner()": "b2bdfa7b",
					"anadirCoche(string,string,string)": "2458c544",
					"approve(address,uint256)": "095ea7b3",
					"balanceOf(address)": "70a08231",
					"borrarCoche(address)": "17bde7a9",
					"cocheDePropietario(uint256)": "858b0554",
					"comprarCoche(address,string,string)": "049a5f65",
					"listaCoches(uint256)": "d735573d",
					"numeroCochesPersona(address)": "1c6743e4",
					"owner()": "8da5cb5b",
					"ownerOf(uint256)": "6352211e",
					"renounceOwnership()": "715018a6",
					"subirDeNivel(address)": "6a7d1816",
					"takeOwnership(uint256)": "b2e6ceeb",
					"transfer(address,uint256)": "a9059cbb",
					"transferOwnership(address)": "f2fde38b",
					"verCochePropietario(address)": "e172fca8"
				}
			},
			"storageLayout": {
				"storage": [
					{
						"astId": 239,
						"contract": "contracts/CarreraCoches/cocheToken.sol:CocheToken",
						"label": "_owner",
						"offset": 0,
						"slot": "0",
						"type": "t_address"
					},
					{
						"astId": 361,
						"contract": "contracts/CarreraCoches/cocheToken.sol:CocheToken",
						"label": "randNonce",
						"offset": 0,
						"slot": "1",
						"type": "t_uint256"
					},
					{
						"astId": 364,
						"contract": "contracts/CarreraCoches/cocheToken.sol:CocheToken",
						"label": "contador",
						"offset": 0,
						"slot": "2",
						"type": "t_uint256"
					},
					{
						"astId": 367,
						"contract": "contracts/CarreraCoches/cocheToken.sol:CocheToken",
						"label": "cooldown",
						"offset": 0,
						"slot": "3",
						"type": "t_uint256"
					},
					{
						"astId": 370,
						"contract": "contracts/CarreraCoches/cocheToken.sol:CocheToken",
						"label": "subirNivel",
						"offset": 0,
						"slot": "4",
						"type": "t_uint256"
					},
					{
						"astId": 373,
						"contract": "contracts/CarreraCoches/cocheToken.sol:CocheToken",
						"label": "cambiarCocheV",
						"offset": 0,
						"slot": "5",
						"type": "t_uint256"
					},
					{
						"astId": 377,
						"contract": "contracts/CarreraCoches/cocheToken.sol:CocheToken",
						"label": "listaCoches",
						"offset": 0,
						"slot": "6",
						"type": "t_array(t_struct(Coche)358_storage)dyn_storage"
					},
					{
						"astId": 407,
						"contract": "contracts/CarreraCoches/cocheToken.sol:CocheToken",
						"label": "cocheDePropietario",
						"offset": 0,
						"slot": "7",
						"type": "t_mapping(t_uint256,t_address)"
					},
					{
						"astId": 411,
						"contract": "contracts/CarreraCoches/cocheToken.sol:CocheToken",
						"label": "numeroCochesPersona",
						"offset": 0,
						"slot": "8",
						"type": "t_mapping(t_address,t_uint256)"
					},
					{
						"astId": 11,
						"contract": "contracts/CarreraCoches/cocheToken.sol:CocheToken",
						"label": "confirmarTransferencia",
						"offset": 0,
						"slot": "9",
						"type": "t_mapping(t_uint256,t_address)"
					}
				],
				"types": {
					"t_address": {
						"encoding": "inplace",
						"label": "address",
						"numberOfBytes": "20"
					},
					"t_array(t_struct(Coche)358_storage)dyn_storage": {
						"base": "t_struct(Coche)358_storage",
						"encoding": "dynamic_array",
						"label": "struct CarreraCoches.Coche[]",
						"numberOfBytes": "32"
					},
					"t_mapping(t_address,t_uint256)": {
						"encoding": "mapping",
						"key": "t_address",
						"label": "mapping(address => uint256)",
						"numberOfBytes": "32",
						"value": "t_uint256"
					},
					"t_mapping(t_uint256,t_address)": {
						"encoding": "mapping",
						"key": "t_uint256",
						"label": "mapping(uint256 => address)",
						"numberOfBytes": "32",
						"value": "t_address"
					},
					"t_string_storage": {
						"encoding": "bytes",
						"label": "string",
						"numberOfBytes": "32"
					},
					"t_struct(Coche)358_storage": {
						"encoding": "inplace",
						"label": "struct CarreraCoches.Coche",
						"members": [
							{
								"astId": 343,
								"contract": "contracts/CarreraCoches/cocheToken.sol:CocheToken",
								"label": "idPiloto",
								"offset": 0,
								"slot": "0",
								"type": "t_address"
							},
							{
								"astId": 345,
								"contract": "contracts/CarreraCoches/cocheToken.sol:CocheToken",
								"label": "modelo",
								"offset": 0,
								"slot": "1",
								"type": "t_string_storage"
							},
							{
								"astId": 347,
								"contract": "contracts/CarreraCoches/cocheToken.sol:CocheToken",
								"label": "marca",
								"offset": 0,
								"slot": "2",
								"type": "t_string_storage"
							},
							{
								"astId": 349,
								"contract": "contracts/CarreraCoches/cocheToken.sol:CocheToken",
								"label": "nombrePiloto",
								"offset": 0,
								"slot": "3",
								"type": "t_string_storage"
							},
							{
								"astId": 351,
								"contract": "contracts/CarreraCoches/cocheToken.sol:CocheToken",
								"label": "carrerasGanadas",
								"offset": 0,
								"slot": "4",
								"type": "t_uint256"
							},
							{
								"astId": 353,
								"contract": "contracts/CarreraCoches/cocheToken.sol:CocheToken",
								"label": "carrerasTotales",
								"offset": 0,
								"slot": "5",
								"type": "t_uint256"
							},
							{
								"astId": 355,
								"contract": "contracts/CarreraCoches/cocheToken.sol:CocheToken",
								"label": "tiempoEspera",
								"offset": 0,
								"slot": "6",
								"type": "t_uint256"
							},
							{
								"astId": 357,
								"contract": "contracts/CarreraCoches/cocheToken.sol:CocheToken",
								"label": "nivel",
								"offset": 0,
								"slot": "7",
								"type": "t_uint32"
							}
						],
						"numberOfBytes": "256"
					},
					"t_uint256": {
						"encoding": "inplace",
						"label": "uint256",
						"numberOfBytes": "32"
					},
					"t_uint32": {
						"encoding": "inplace",
						"label": "uint32",
						"numberOfBytes": "4"
					}
				}
			},
			"userdoc": {
				"kind": "user",
				"methods": {},
				"version": 1
			}
		}
	}
}