{
	"contracts/CarreraCoches/principal.sol": {
		"CarreraCoches": {
			"abi": [
				{
					"anonymous": false,
					"inputs": [
						{
							"indexed": true,
							"internalType": "address",
							"name": "previousOwner",
							"type": "address"
						},
						{
							"indexed": true,
							"internalType": "address",
							"name": "newOwner",
							"type": "address"
						}
					],
					"name": "OwnershipTransferred",
					"type": "event"
				},
				{
					"anonymous": false,
					"inputs": [
						{
							"indexed": false,
							"internalType": "string",
							"name": "mo",
							"type": "string"
						},
						{
							"indexed": false,
							"internalType": "string",
							"name": "ma",
							"type": "string"
						},
						{
							"indexed": false,
							"internalType": "uint32",
							"name": "niv",
							"type": "uint32"
						},
						{
							"indexed": false,
							"internalType": "uint256",
							"name": "carrGan",
							"type": "uint256"
						}
					],
					"name": "cochePropietario",
					"type": "event"
				},
				{
					"anonymous": false,
					"inputs": [
						{
							"indexed": false,
							"internalType": "uint256",
							"name": "compr",
							"type": "uint256"
						}
					],
					"name": "comprobar",
					"type": "event"
				},
				{
					"anonymous": false,
					"inputs": [
						{
							"indexed": false,
							"internalType": "string",
							"name": "ms",
							"type": "string"
						}
					],
					"name": "confirmacionDepositoLleno",
					"type": "event"
				},
				{
					"anonymous": false,
					"inputs": [
						{
							"indexed": false,
							"internalType": "string",
							"name": "ms",
							"type": "string"
						},
						{
							"indexed": false,
							"internalType": "uint256",
							"name": "res",
							"type": "uint256"
						}
					],
					"name": "mostrarResultado",
					"type": "event"
				},
				{
					"inputs": [
						{
							"internalType": "uint256",
							"name": "dineroApostar",
							"type": "uint256"
						}
					],
					"name": "Apostar",
					"outputs": [
						{
							"internalType": "string",
							"name": "",
							"type": "string"
						}
					],
					"stateMutability": "payable",
					"type": "function"
				},
				{
					"inputs": [],
					"name": "_owner",
					"outputs": [
						{
							"internalType": "address",
							"name": "",
							"type": "address"
						}
					],
					"stateMutability": "view",
					"type": "function"
				},
				{
					"inputs": [
						{
							"internalType": "string",
							"name": "_modelo",
							"type": "string"
						},
						{
							"internalType": "string",
							"name": "_marca",
							"type": "string"
						},
						{
							"internalType": "string",
							"name": "_nombrePiloto",
							"type": "string"
						}
					],
					"name": "anadirCoche",
					"outputs": [
						{
							"internalType": "uint256",
							"name": "",
							"type": "uint256"
						}
					],
					"stateMutability": "nonpayable",
					"type": "function"
				},
				{
					"inputs": [
						{
							"internalType": "uint256",
							"name": "",
							"type": "uint256"
						}
					],
					"name": "cocheDePropietario",
					"outputs": [
						{
							"internalType": "address",
							"name": "",
							"type": "address"
						}
					],
					"stateMutability": "view",
					"type": "function"
				},
				{
					"inputs": [
						{
							"internalType": "uint256",
							"name": "",
							"type": "uint256"
						}
					],
					"name": "listaCoches",
					"outputs": [
						{
							"internalType": "address",
							"name": "idPiloto",
							"type": "address"
						},
						{
							"internalType": "string",
							"name": "modelo",
							"type": "string"
						},
						{
							"internalType": "string",
							"name": "marca",
							"type": "string"
						},
						{
							"internalType": "string",
							"name": "nombrePiloto",
							"type": "string"
						},
						{
							"internalType": "uint256",
							"name": "carrerasGanadas",
							"type": "uint256"
						},
						{
							"internalType": "uint256",
							"name": "carrerasTotales",
							"type": "uint256"
						},
						{
							"internalType": "uint256",
							"name": "tiempoEspera",
							"type": "uint256"
						},
						{
							"internalType": "uint32",
							"name": "nivel",
							"type": "uint32"
						}
					],
					"stateMutability": "view",
					"type": "function"
				},
				{
					"inputs": [
						{
							"internalType": "address",
							"name": "",
							"type": "address"
						}
					],
					"name": "numeroCochesPersona",
					"outputs": [
						{
							"internalType": "uint256",
							"name": "",
							"type": "uint256"
						}
					],
					"stateMutability": "view",
					"type": "function"
				},
				{
					"inputs": [],
					"name": "owner",
					"outputs": [
						{
							"internalType": "address",
							"name": "",
							"type": "address"
						}
					],
					"stateMutability": "view",
					"type": "function"
				},
				{
					"inputs": [],
					"name": "renounceOwnership",
					"outputs": [],
					"stateMutability": "nonpayable",
					"type": "function"
				},
				{
					"inputs": [],
					"name": "retirarDinero",
					"outputs": [],
					"stateMutability": "nonpayable",
					"type": "function"
				},
				{
					"inputs": [
						{
							"internalType": "address",
							"name": "_propietario",
							"type": "address"
						}
					],
					"name": "subirDeNivel",
					"outputs": [
						{
							"internalType": "string",
							"name": "",
							"type": "string"
						}
					],
					"stateMutability": "payable",
					"type": "function"
				},
				{
					"inputs": [
						{
							"internalType": "address",
							"name": "newOwner",
							"type": "address"
						}
					],
					"name": "transferOwnership",
					"outputs": [],
					"stateMutability": "nonpayable",
					"type": "function"
				},
				{
					"inputs": [
						{
							"internalType": "address",
							"name": "_propietario",
							"type": "address"
						}
					],
					"name": "verCochePropietario",
					"outputs": [],
					"stateMutability": "nonpayable",
					"type": "function"
				}
			],
			"devdoc": {
				"kind": "dev",
				"methods": {
					"owner()": {
						"details": "Returns the address of the current owner."
					},
					"renounceOwnership()": {
						"details": "Leaves the contract without owner. It will not be possible to call `onlyOwner` functions anymore. Can only be called by the current owner. NOTE: Renouncing ownership will leave the contract without an owner, thereby removing any functionality that is only available to the owner."
					},
					"transferOwnership(address)": {
						"details": "Transfers ownership of the contract to a new account (`newOwner`). Can only be called by the current owner."
					}
				},
				"version": 1
			},
			"evm": {
				"assembly": "    /* \"contracts/CarreraCoches/principal.sol\":54:4841  contract CarreraCoches is Ownable {\r... */\n  mstore(0x40, 0x80)\n    /* \"contracts/CarreraCoches/principal.sol\":370:371  0 */\n  0x00\n    /* \"contracts/CarreraCoches/principal.sol\":353:371  uint randNonce = 0 */\n  0x01\n  sstore\n    /* \"contracts/CarreraCoches/principal.sol\":494:495  0 */\n  0x00\n    /* \"contracts/CarreraCoches/principal.sol\":478:495  uint contador = 0 */\n  0x02\n  sstore\n    /* \"contracts/CarreraCoches/principal.sol\":518:528  60 seconds */\n  0x3c\n    /* \"contracts/CarreraCoches/principal.sol\":502:528  uint cooldown = 60 seconds */\n  0x03\n  sstore\n    /* \"contracts/CarreraCoches/principal.sol\":553:560  1 ether */\n  0x0de0b6b3a7640000\n    /* \"contracts/CarreraCoches/principal.sol\":535:560  uint subirNivel = 1 ether */\n  0x04\n  sstore\n    /* \"contracts/CarreraCoches/principal.sol\":54:4841  contract CarreraCoches is Ownable {\r... */\n  callvalue\n  dup1\n  iszero\n  tag_1\n  jumpi\n  0x00\n  dup1\n  revert\ntag_1:\n  pop\n    /* \"contracts/CarreraCoches/ownable.sol\":947:979  _transferOwnership(_msgSender()) */\n  tag_4\n    /* \"contracts/CarreraCoches/ownable.sol\":966:978  _msgSender() */\n  tag_5\n    /* \"contracts/CarreraCoches/ownable.sol\":966:976  _msgSender */\n  shl(0x20, tag_6)\n    /* \"contracts/CarreraCoches/ownable.sol\":966:978  _msgSender() */\n  0x20\n  shr\n  jump\t// in\ntag_5:\n    /* \"contracts/CarreraCoches/ownable.sol\":947:965  _transferOwnership */\n  shl(0x20, tag_7)\n    /* \"contracts/CarreraCoches/ownable.sol\":947:979  _transferOwnership(_msgSender()) */\n  0x20\n  shr\n  jump\t// in\ntag_4:\n    /* \"contracts/CarreraCoches/principal.sol\":54:4841  contract CarreraCoches is Ownable {\r... */\n  jump(tag_8)\n    /* \"contracts/CarreraCoches/utils/Context.sol\":656:754  function _msgSender() internal view virtual returns (address) {\r... */\ntag_6:\n    /* \"contracts/CarreraCoches/utils/Context.sol\":709:716  address */\n  0x00\n    /* \"contracts/CarreraCoches/utils/Context.sol\":736:746  msg.sender */\n  caller\n    /* \"contracts/CarreraCoches/utils/Context.sol\":729:746  return msg.sender */\n  swap1\n  pop\n    /* \"contracts/CarreraCoches/utils/Context.sol\":656:754  function _msgSender() internal view virtual returns (address) {\r... */\n  swap1\n  jump\t// out\n    /* \"contracts/CarreraCoches/ownable.sol\":2338:2529  function _transferOwnership(address newOwner) internal virtual {\r... */\ntag_7:\n    /* \"contracts/CarreraCoches/ownable.sol\":2412:2428  address oldOwner */\n  0x00\n    /* \"contracts/CarreraCoches/ownable.sol\":2431:2437  _owner */\n  dup1\n  0x00\n  swap1\n  sload\n  swap1\n  0x0100\n  exp\n  swap1\n  div\n  0xffffffffffffffffffffffffffffffffffffffff\n  and\n    /* \"contracts/CarreraCoches/ownable.sol\":2412:2437  address oldOwner = _owner */\n  swap1\n  pop\n    /* \"contracts/CarreraCoches/ownable.sol\":2457:2465  newOwner */\n  dup2\n    /* \"contracts/CarreraCoches/ownable.sol\":2448:2454  _owner */\n  0x00\n  dup1\n    /* \"contracts/CarreraCoches/ownable.sol\":2448:2465  _owner = newOwner */\n  0x0100\n  exp\n  dup2\n  sload\n  dup2\n  0xffffffffffffffffffffffffffffffffffffffff\n  mul\n  not\n  and\n  swap1\n  dup4\n  0xffffffffffffffffffffffffffffffffffffffff\n  and\n  mul\n  or\n  swap1\n  sstore\n  pop\n    /* \"contracts/CarreraCoches/ownable.sol\":2512:2520  newOwner */\n  dup2\n    /* \"contracts/CarreraCoches/ownable.sol\":2481:2521  OwnershipTransferred(oldOwner, newOwner) */\n  0xffffffffffffffffffffffffffffffffffffffff\n  and\n    /* \"contracts/CarreraCoches/ownable.sol\":2502:2510  oldOwner */\n  dup2\n    /* \"contracts/CarreraCoches/ownable.sol\":2481:2521  OwnershipTransferred(oldOwner, newOwner) */\n  0xffffffffffffffffffffffffffffffffffffffff\n  and\n  0x8be0079c531659141344cd1fd0a4f28419497f9722a3daafe3b4186f6b6457e0\n  mload(0x40)\n  mload(0x40)\n  dup1\n  swap2\n  sub\n  swap1\n  log3\n    /* \"contracts/CarreraCoches/ownable.sol\":2401:2529  {\r... */\n  pop\n    /* \"contracts/CarreraCoches/ownable.sol\":2338:2529  function _transferOwnership(address newOwner) internal virtual {\r... */\n  pop\n  jump\t// out\n    /* \"contracts/CarreraCoches/principal.sol\":54:4841  contract CarreraCoches is Ownable {\r... */\ntag_8:\n  dataSize(sub_0)\n  dup1\n  dataOffset(sub_0)\n  0x00\n  codecopy\n  0x00\n  return\nstop\n\nsub_0: assembly {\n        /* \"contracts/CarreraCoches/principal.sol\":54:4841  contract CarreraCoches is Ownable {\r... */\n      mstore(0x40, 0x80)\n      jumpi(tag_1, lt(calldatasize, 0x04))\n      shr(0xe0, calldataload(0x00))\n      dup1\n      0x858b0554\n      gt\n      tag_14\n      jumpi\n      dup1\n      0x858b0554\n      eq\n      tag_8\n      jumpi\n      dup1\n      0x8da5cb5b\n      eq\n      tag_9\n      jumpi\n      dup1\n      0xb2bdfa7b\n      eq\n      tag_10\n      jumpi\n      dup1\n      0xd735573d\n      eq\n      tag_11\n      jumpi\n      dup1\n      0xe172fca8\n      eq\n      tag_12\n      jumpi\n      dup1\n      0xf2fde38b\n      eq\n      tag_13\n      jumpi\n      jump(tag_1)\n    tag_14:\n      dup1\n      0x1bfdc150\n      eq\n      tag_2\n      jumpi\n      dup1\n      0x1c6743e4\n      eq\n      tag_3\n      jumpi\n      dup1\n      0x2458c544\n      eq\n      tag_4\n      jumpi\n      dup1\n      0x6a7d1816\n      eq\n      tag_5\n      jumpi\n      dup1\n      0x6b6f0494\n      eq\n      tag_6\n      jumpi\n      dup1\n      0x715018a6\n      eq\n      tag_7\n      jumpi\n    tag_1:\n      0x00\n      dup1\n      revert\n        /* \"contracts/CarreraCoches/principal.sol\":4723:4838  function retirarDinero() external onlyOwner {\r... */\n    tag_2:\n      callvalue\n      dup1\n      iszero\n      tag_15\n      jumpi\n      0x00\n      dup1\n      revert\n    tag_15:\n      pop\n      tag_16\n      tag_17\n      jump\t// in\n    tag_16:\n      stop\n        /* \"contracts/CarreraCoches/principal.sol\":874:926  mapping (address => uint) public numeroCochesPersona */\n    tag_3:\n      callvalue\n      dup1\n      iszero\n      tag_18\n      jumpi\n      0x00\n      dup1\n      revert\n    tag_18:\n      pop\n      tag_19\n      0x04\n      dup1\n      calldatasize\n      sub\n      dup2\n      add\n      swap1\n      tag_20\n      swap2\n      swap1\n      tag_21\n      jump\t// in\n    tag_20:\n      tag_22\n      jump\t// in\n    tag_19:\n      mload(0x40)\n      tag_23\n      swap2\n      swap1\n      tag_24\n      jump\t// in\n    tag_23:\n      mload(0x40)\n      dup1\n      swap2\n      sub\n      swap1\n      return\n        /* \"contracts/CarreraCoches/principal.sol\":1491:1931  function anadirCoche(string memory _modelo, string memory _marca, string memory _nombrePiloto) public restriccion returns (uint) {\r... */\n    tag_4:\n      callvalue\n      dup1\n      iszero\n      tag_25\n      jumpi\n      0x00\n      dup1\n      revert\n    tag_25:\n      pop\n      tag_26\n      0x04\n      dup1\n      calldatasize\n      sub\n      dup2\n      add\n      swap1\n      tag_27\n      swap2\n      swap1\n      tag_28\n      jump\t// in\n    tag_27:\n      tag_29\n      jump\t// in\n    tag_26:\n      mload(0x40)\n      tag_30\n      swap2\n      swap1\n      tag_24\n      jump\t// in\n    tag_30:\n      mload(0x40)\n      dup1\n      swap2\n      sub\n      swap1\n      return\n        /* \"contracts/CarreraCoches/principal.sol\":2259:2618  function subirDeNivel(address _propietario) external payable returns(string memory) {\r... */\n    tag_5:\n      tag_31\n      0x04\n      dup1\n      calldatasize\n      sub\n      dup2\n      add\n      swap1\n      tag_32\n      swap2\n      swap1\n      tag_21\n      jump\t// in\n    tag_32:\n      tag_33\n      jump\t// in\n    tag_31:\n      mload(0x40)\n      tag_34\n      swap2\n      swap1\n      tag_35\n      jump\t// in\n    tag_34:\n      mload(0x40)\n      dup1\n      swap2\n      sub\n      swap1\n      return\n        /* \"contracts/CarreraCoches/principal.sol\":3309:4531  function Apostar(uint dineroApostar) public payable returns(string memory) {\r... */\n    tag_6:\n      tag_36\n      0x04\n      dup1\n      calldatasize\n      sub\n      dup2\n      add\n      swap1\n      tag_37\n      swap2\n      swap1\n      tag_38\n      jump\t// in\n    tag_37:\n      tag_39\n      jump\t// in\n    tag_36:\n      mload(0x40)\n      tag_40\n      swap2\n      swap1\n      tag_35\n      jump\t// in\n    tag_40:\n      mload(0x40)\n      dup1\n      swap2\n      sub\n      swap1\n      return\n        /* \"contracts/CarreraCoches/ownable.sol\":1719:1822  function renounceOwnership() public virtual onlyOwner {\r... */\n    tag_7:\n      callvalue\n      dup1\n      iszero\n      tag_41\n      jumpi\n      0x00\n      dup1\n      revert\n    tag_41:\n      pop\n      tag_42\n      tag_43\n      jump\t// in\n    tag_42:\n      stop\n        /* \"contracts/CarreraCoches/principal.sol\":816:867  mapping (uint => address) public cocheDePropietario */\n    tag_8:\n      callvalue\n      dup1\n      iszero\n      tag_44\n      jumpi\n      0x00\n      dup1\n      revert\n    tag_44:\n      pop\n      tag_45\n      0x04\n      dup1\n      calldatasize\n      sub\n      dup2\n      add\n      swap1\n      tag_46\n      swap2\n      swap1\n      tag_38\n      jump\t// in\n    tag_46:\n      tag_47\n      jump\t// in\n    tag_45:\n      mload(0x40)\n      tag_48\n      swap2\n      swap1\n      tag_49\n      jump\t// in\n    tag_48:\n      mload(0x40)\n      dup1\n      swap2\n      sub\n      swap1\n      return\n        /* \"contracts/CarreraCoches/ownable.sol\":1068:1155  function owner() public view virtual returns (address) {\r... */\n    tag_9:\n      callvalue\n      dup1\n      iszero\n      tag_50\n      jumpi\n      0x00\n      dup1\n      revert\n    tag_50:\n      pop\n      tag_51\n      tag_52\n      jump\t// in\n    tag_51:\n      mload(0x40)\n      tag_53\n      swap2\n      swap1\n      tag_49\n      jump\t// in\n    tag_53:\n      mload(0x40)\n      dup1\n      swap2\n      sub\n      swap1\n      return\n        /* \"contracts/CarreraCoches/ownable.sol\":701:722  address public _owner */\n    tag_10:\n      callvalue\n      dup1\n      iszero\n      tag_54\n      jumpi\n      0x00\n      dup1\n      revert\n    tag_54:\n      pop\n      tag_55\n      tag_56\n      jump\t// in\n    tag_55:\n      mload(0x40)\n      tag_57\n      swap2\n      swap1\n      tag_49\n      jump\t// in\n    tag_57:\n      mload(0x40)\n      dup1\n      swap2\n      sub\n      swap1\n      return\n        /* \"contracts/CarreraCoches/principal.sol\":569:595  Coche[] public listaCoches */\n    tag_11:\n      callvalue\n      dup1\n      iszero\n      tag_58\n      jumpi\n      0x00\n      dup1\n      revert\n    tag_58:\n      pop\n      tag_59\n      0x04\n      dup1\n      calldatasize\n      sub\n      dup2\n      add\n      swap1\n      tag_60\n      swap2\n      swap1\n      tag_38\n      jump\t// in\n    tag_60:\n      tag_61\n      jump\t// in\n    tag_59:\n      mload(0x40)\n      tag_62\n      swap9\n      swap8\n      swap7\n      swap6\n      swap5\n      swap4\n      swap3\n      swap2\n      swap1\n      tag_63\n      jump\t// in\n    tag_62:\n      mload(0x40)\n      dup1\n      swap2\n      sub\n      swap1\n      return\n        /* \"contracts/CarreraCoches/principal.sol\":2628:2972  function verCochePropietario(address _propietario) external {\r... */\n    tag_12:\n      callvalue\n      dup1\n      iszero\n      tag_64\n      jumpi\n      0x00\n      dup1\n      revert\n    tag_64:\n      pop\n      tag_65\n      0x04\n      dup1\n      calldatasize\n      sub\n      dup2\n      add\n      swap1\n      tag_66\n      swap2\n      swap1\n      tag_21\n      jump\t// in\n    tag_66:\n      tag_67\n      jump\t// in\n    tag_65:\n      stop\n        /* \"contracts/CarreraCoches/ownable.sol\":1977:2178  function transferOwnership(address newOwner) public virtual onlyOwner {\r... */\n    tag_13:\n      callvalue\n      dup1\n      iszero\n      tag_68\n      jumpi\n      0x00\n      dup1\n      revert\n    tag_68:\n      pop\n      tag_69\n      0x04\n      dup1\n      calldatasize\n      sub\n      dup2\n      add\n      swap1\n      tag_70\n      swap2\n      swap1\n      tag_21\n      jump\t// in\n    tag_70:\n      tag_71\n      jump\t// in\n    tag_69:\n      stop\n        /* \"contracts/CarreraCoches/principal.sol\":4723:4838  function retirarDinero() external onlyOwner {\r... */\n    tag_17:\n        /* \"contracts/CarreraCoches/ownable.sol\":1299:1311  _msgSender() */\n      tag_73\n        /* \"contracts/CarreraCoches/ownable.sol\":1299:1309  _msgSender */\n      tag_74\n        /* \"contracts/CarreraCoches/ownable.sol\":1299:1311  _msgSender() */\n      jump\t// in\n    tag_73:\n        /* \"contracts/CarreraCoches/ownable.sol\":1288:1311  owner() == _msgSender() */\n      0xffffffffffffffffffffffffffffffffffffffff\n      and\n        /* \"contracts/CarreraCoches/ownable.sol\":1288:1295  owner() */\n      tag_75\n        /* \"contracts/CarreraCoches/ownable.sol\":1288:1293  owner */\n      tag_52\n        /* \"contracts/CarreraCoches/ownable.sol\":1288:1295  owner() */\n      jump\t// in\n    tag_75:\n        /* \"contracts/CarreraCoches/ownable.sol\":1288:1311  owner() == _msgSender() */\n      0xffffffffffffffffffffffffffffffffffffffff\n      and\n      eq\n        /* \"contracts/CarreraCoches/ownable.sol\":1280:1348  require(owner() == _msgSender(), \"Ownable: caller is not the owner\") */\n      tag_76\n      jumpi\n      mload(0x40)\n      0x08c379a000000000000000000000000000000000000000000000000000000000\n      dup2\n      mstore\n      0x04\n      add\n      tag_77\n      swap1\n      tag_78\n      jump\t// in\n    tag_77:\n      mload(0x40)\n      dup1\n      swap2\n      sub\n      swap1\n      revert\n    tag_76:\n        /* \"contracts/CarreraCoches/principal.sol\":4787:4797  msg.sender */\n      caller\n        /* \"contracts/CarreraCoches/principal.sol\":4778:4807  payable (msg.sender).transfer */\n      0xffffffffffffffffffffffffffffffffffffffff\n      and\n        /* \"contracts/CarreraCoches/principal.sol\":4778:4830  payable (msg.sender).transfer(address(this).balance) */\n      0x08fc\n        /* \"contracts/CarreraCoches/principal.sol\":4808:4829  address(this).balance */\n      selfbalance\n        /* \"contracts/CarreraCoches/principal.sol\":4778:4830  payable (msg.sender).transfer(address(this).balance) */\n      swap1\n      dup2\n      iszero\n      mul\n      swap1\n      mload(0x40)\n      0x00\n      mload(0x40)\n      dup1\n      dup4\n      sub\n      dup2\n      dup6\n      dup9\n      dup9\n      call\n      swap4\n      pop\n      pop\n      pop\n      pop\n      iszero\n      dup1\n      iszero\n      tag_81\n      jumpi\n      returndatasize\n      0x00\n      dup1\n      returndatacopy\n      revert(0x00, returndatasize)\n    tag_81:\n      pop\n        /* \"contracts/CarreraCoches/principal.sol\":4723:4838  function retirarDinero() external onlyOwner {\r... */\n      jump\t// out\n        /* \"contracts/CarreraCoches/principal.sol\":874:926  mapping (address => uint) public numeroCochesPersona */\n    tag_22:\n      mstore(0x20, 0x07)\n      dup1\n      0x00\n      mstore\n      keccak256(0x00, 0x40)\n      0x00\n      swap2\n      pop\n      swap1\n      pop\n      sload\n      dup2\n      jump\t// out\n        /* \"contracts/CarreraCoches/principal.sol\":1491:1931  function anadirCoche(string memory _modelo, string memory _marca, string memory _nombrePiloto) public restriccion returns (uint) {\r... */\n    tag_29:\n        /* \"contracts/CarreraCoches/principal.sol\":1614:1618  uint */\n      0x00\n        /* \"contracts/CarreraCoches/principal.sol\":1058:1059  1 */\n      0x01\n        /* \"contracts/CarreraCoches/principal.sol\":1024:1043  numeroCochesPersona */\n      0x07\n        /* \"contracts/CarreraCoches/principal.sol\":1024:1055  numeroCochesPersona[msg.sender] */\n      0x00\n        /* \"contracts/CarreraCoches/principal.sol\":1044:1054  msg.sender */\n      caller\n        /* \"contracts/CarreraCoches/principal.sol\":1024:1055  numeroCochesPersona[msg.sender] */\n      0xffffffffffffffffffffffffffffffffffffffff\n      and\n      0xffffffffffffffffffffffffffffffffffffffff\n      and\n      dup2\n      mstore\n      0x20\n      add\n      swap1\n      dup2\n      mstore\n      0x20\n      add\n      0x00\n      keccak256\n      sload\n        /* \"contracts/CarreraCoches/principal.sol\":1024:1059  numeroCochesPersona[msg.sender] < 1 */\n      lt\n        /* \"contracts/CarreraCoches/principal.sol\":1016:1104  require(numeroCochesPersona[msg.sender] < 1, \"Solo se puede tener un coche por persona\") */\n      tag_83\n      jumpi\n      mload(0x40)\n      0x08c379a000000000000000000000000000000000000000000000000000000000\n      dup2\n      mstore\n      0x04\n      add\n      tag_84\n      swap1\n      tag_85\n      jump\t// in\n    tag_84:\n      mload(0x40)\n      dup1\n      swap2\n      sub\n      swap1\n      revert\n    tag_83:\n        /* \"contracts/CarreraCoches/principal.sol\":1631:1642  listaCoches */\n      0x05\n        /* \"contracts/CarreraCoches/principal.sol\":1648:1742  Coche(msg.sender, _modelo, _marca, _nombrePiloto, 0, 0, uint32(block.timestamp + cooldown), 0) */\n      mload(0x40)\n      dup1\n      0x0100\n      add\n      0x40\n      mstore\n      dup1\n        /* \"contracts/CarreraCoches/principal.sol\":1654:1664  msg.sender */\n      caller\n        /* \"contracts/CarreraCoches/principal.sol\":1648:1742  Coche(msg.sender, _modelo, _marca, _nombrePiloto, 0, 0, uint32(block.timestamp + cooldown), 0) */\n      0xffffffffffffffffffffffffffffffffffffffff\n      and\n      dup2\n      mstore\n      0x20\n      add\n        /* \"contracts/CarreraCoches/principal.sol\":1666:1673  _modelo */\n      dup7\n        /* \"contracts/CarreraCoches/principal.sol\":1648:1742  Coche(msg.sender, _modelo, _marca, _nombrePiloto, 0, 0, uint32(block.timestamp + cooldown), 0) */\n      dup2\n      mstore\n      0x20\n      add\n        /* \"contracts/CarreraCoches/principal.sol\":1675:1681  _marca */\n      dup6\n        /* \"contracts/CarreraCoches/principal.sol\":1648:1742  Coche(msg.sender, _modelo, _marca, _nombrePiloto, 0, 0, uint32(block.timestamp + cooldown), 0) */\n      dup2\n      mstore\n      0x20\n      add\n        /* \"contracts/CarreraCoches/principal.sol\":1683:1696  _nombrePiloto */\n      dup5\n        /* \"contracts/CarreraCoches/principal.sol\":1648:1742  Coche(msg.sender, _modelo, _marca, _nombrePiloto, 0, 0, uint32(block.timestamp + cooldown), 0) */\n      dup2\n      mstore\n      0x20\n      add\n        /* \"contracts/CarreraCoches/principal.sol\":1698:1699  0 */\n      0x00\n        /* \"contracts/CarreraCoches/principal.sol\":1648:1742  Coche(msg.sender, _modelo, _marca, _nombrePiloto, 0, 0, uint32(block.timestamp + cooldown), 0) */\n      dup2\n      mstore\n      0x20\n      add\n        /* \"contracts/CarreraCoches/principal.sol\":1701:1702  0 */\n      0x00\n        /* \"contracts/CarreraCoches/principal.sol\":1648:1742  Coche(msg.sender, _modelo, _marca, _nombrePiloto, 0, 0, uint32(block.timestamp + cooldown), 0) */\n      dup2\n      mstore\n      0x20\n      add\n        /* \"contracts/CarreraCoches/principal.sol\":1729:1737  cooldown */\n      sload(0x03)\n        /* \"contracts/CarreraCoches/principal.sol\":1711:1726  block.timestamp */\n      timestamp\n        /* \"contracts/CarreraCoches/principal.sol\":1711:1737  block.timestamp + cooldown */\n      tag_87\n      swap2\n      swap1\n      tag_88\n      jump\t// in\n    tag_87:\n        /* \"contracts/CarreraCoches/principal.sol\":1648:1742  Coche(msg.sender, _modelo, _marca, _nombrePiloto, 0, 0, uint32(block.timestamp + cooldown), 0) */\n      0xffffffff\n      and\n      dup2\n      mstore\n      0x20\n      add\n        /* \"contracts/CarreraCoches/principal.sol\":1740:1741  0 */\n      0x00\n        /* \"contracts/CarreraCoches/principal.sol\":1648:1742  Coche(msg.sender, _modelo, _marca, _nombrePiloto, 0, 0, uint32(block.timestamp + cooldown), 0) */\n      0xffffffff\n      and\n      dup2\n      mstore\n      pop\n        /* \"contracts/CarreraCoches/principal.sol\":1631:1743  listaCoches.push(Coche(msg.sender, _modelo, _marca, _nombrePiloto, 0, 0, uint32(block.timestamp + cooldown), 0)) */\n      swap1\n      dup1\n      0x01\n      dup2\n      sload\n      add\n      dup1\n      dup3\n      sstore\n      dup1\n      swap2\n      pop\n      pop\n      0x01\n      swap1\n      sub\n      swap1\n      0x00\n      mstore\n      keccak256(0x00, 0x20)\n      swap1\n      0x08\n      mul\n      add\n      0x00\n      swap1\n      swap2\n      swap1\n      swap2\n      swap1\n      swap2\n      pop\n      0x00\n      dup3\n      add\n      mload\n      dup2\n      0x00\n      add\n      exp(0x0100, 0x00)\n      dup2\n      sload\n      dup2\n      0xffffffffffffffffffffffffffffffffffffffff\n      mul\n      not\n      and\n      swap1\n      dup4\n      0xffffffffffffffffffffffffffffffffffffffff\n      and\n      mul\n      or\n      swap1\n      sstore\n      pop\n      0x20\n      dup3\n      add\n      mload\n      dup2\n      0x01\n      add\n      swap1\n      dup1\n      mload\n      swap1\n      0x20\n      add\n      swap1\n      tag_90\n      swap3\n      swap2\n      swap1\n      tag_91\n      jump\t// in\n    tag_90:\n      pop\n      0x40\n      dup3\n      add\n      mload\n      dup2\n      0x02\n      add\n      swap1\n      dup1\n      mload\n      swap1\n      0x20\n      add\n      swap1\n      tag_92\n      swap3\n      swap2\n      swap1\n      tag_91\n      jump\t// in\n    tag_92:\n      pop\n      0x60\n      dup3\n      add\n      mload\n      dup2\n      0x03\n      add\n      swap1\n      dup1\n      mload\n      swap1\n      0x20\n      add\n      swap1\n      tag_93\n      swap3\n      swap2\n      swap1\n      tag_91\n      jump\t// in\n    tag_93:\n      pop\n      0x80\n      dup3\n      add\n      mload\n      dup2\n      0x04\n      add\n      sstore\n      0xa0\n      dup3\n      add\n      mload\n      dup2\n      0x05\n      add\n      sstore\n      0xc0\n      dup3\n      add\n      mload\n      dup2\n      0x06\n      add\n      sstore\n      0xe0\n      dup3\n      add\n      mload\n      dup2\n      0x07\n      add\n      exp(0x0100, 0x00)\n      dup2\n      sload\n      dup2\n      0xffffffff\n      mul\n      not\n      and\n      swap1\n      dup4\n      0xffffffff\n      and\n      mul\n      or\n      swap1\n      sstore\n      pop\n      pop\n      pop\n        /* \"contracts/CarreraCoches/principal.sol\":1754:1761  uint id */\n      0x00\n        /* \"contracts/CarreraCoches/principal.sol\":1764:1775  listaCoches */\n      0x05\n        /* \"contracts/CarreraCoches/principal.sol\":1764:1782  listaCoches.length */\n      dup1\n      sload\n      swap1\n      pop\n        /* \"contracts/CarreraCoches/principal.sol\":1754:1782  uint id = listaCoches.length */\n      swap1\n      pop\n        /* \"contracts/CarreraCoches/principal.sol\":1818:1828  msg.sender */\n      caller\n        /* \"contracts/CarreraCoches/principal.sol\":1793:1811  cocheDePropietario */\n      0x06\n        /* \"contracts/CarreraCoches/principal.sol\":1793:1815  cocheDePropietario[id] */\n      0x00\n        /* \"contracts/CarreraCoches/principal.sol\":1812:1814  id */\n      dup4\n        /* \"contracts/CarreraCoches/principal.sol\":1793:1815  cocheDePropietario[id] */\n      dup2\n      mstore\n      0x20\n      add\n      swap1\n      dup2\n      mstore\n      0x20\n      add\n      0x00\n      keccak256\n      0x00\n        /* \"contracts/CarreraCoches/principal.sol\":1793:1828  cocheDePropietario[id] = msg.sender */\n      0x0100\n      exp\n      dup2\n      sload\n      dup2\n      0xffffffffffffffffffffffffffffffffffffffff\n      mul\n      not\n      and\n      swap1\n      dup4\n      0xffffffffffffffffffffffffffffffffffffffff\n      and\n      mul\n      or\n      swap1\n      sstore\n      pop\n        /* \"contracts/CarreraCoches/principal.sol\":1839:1858  numeroCochesPersona */\n      0x07\n        /* \"contracts/CarreraCoches/principal.sol\":1839:1870  numeroCochesPersona[msg.sender] */\n      0x00\n        /* \"contracts/CarreraCoches/principal.sol\":1859:1869  msg.sender */\n      caller\n        /* \"contracts/CarreraCoches/principal.sol\":1839:1870  numeroCochesPersona[msg.sender] */\n      0xffffffffffffffffffffffffffffffffffffffff\n      and\n      0xffffffffffffffffffffffffffffffffffffffff\n      and\n      dup2\n      mstore\n      0x20\n      add\n      swap1\n      dup2\n      mstore\n      0x20\n      add\n      0x00\n      keccak256\n      0x00\n        /* \"contracts/CarreraCoches/principal.sol\":1839:1872  numeroCochesPersona[msg.sender]++ */\n      dup2\n      sload\n      dup1\n      swap3\n      swap2\n      swap1\n      tag_94\n      swap1\n      tag_95\n      jump\t// in\n    tag_94:\n      swap2\n      swap1\n      pop\n      sstore\n      pop\n        /* \"contracts/CarreraCoches/principal.sol\":1883:1891  contador */\n      0x02\n      0x00\n        /* \"contracts/CarreraCoches/principal.sol\":1883:1893  contador++ */\n      dup2\n      sload\n      dup1\n      swap3\n      swap2\n      swap1\n      tag_96\n      swap1\n      tag_95\n      jump\t// in\n    tag_96:\n      swap2\n      swap1\n      pop\n      sstore\n      pop\n        /* \"contracts/CarreraCoches/principal.sol\":1922:1923  1 */\n      0x01\n        /* \"contracts/CarreraCoches/principal.sol\":1911:1919  contador */\n      sload(0x02)\n        /* \"contracts/CarreraCoches/principal.sol\":1911:1923  contador - 1 */\n      tag_97\n      swap2\n      swap1\n      tag_98\n      jump\t// in\n    tag_97:\n        /* \"contracts/CarreraCoches/principal.sol\":1904:1923  return contador - 1 */\n      swap2\n      pop\n      pop\n        /* \"contracts/CarreraCoches/principal.sol\":1491:1931  function anadirCoche(string memory _modelo, string memory _marca, string memory _nombrePiloto) public restriccion returns (uint) {\r... */\n      swap4\n      swap3\n      pop\n      pop\n      pop\n      jump\t// out\n        /* \"contracts/CarreraCoches/principal.sol\":2259:2618  function subirDeNivel(address _propietario) external payable returns(string memory) {\r... */\n    tag_33:\n        /* \"contracts/CarreraCoches/principal.sol\":2328:2341  string memory */\n      0x60\n        /* \"contracts/CarreraCoches/principal.sol\":2373:2383  subirNivel */\n      sload(0x04)\n        /* \"contracts/CarreraCoches/principal.sol\":2362:2371  msg.value */\n      callvalue\n        /* \"contracts/CarreraCoches/principal.sol\":2362:2383  msg.value==subirNivel */\n      eq\n        /* \"contracts/CarreraCoches/principal.sol\":2354:2384  require(msg.value==subirNivel) */\n      tag_100\n      jumpi\n      0x00\n      dup1\n      revert\n    tag_100:\n        /* \"contracts/CarreraCoches/principal.sol\":2399:2405  uint i */\n      0x00\n        /* \"contracts/CarreraCoches/principal.sol\":2395:2611  for(uint i = 0; i < listaCoches.length; i++){\r... */\n    tag_101:\n        /* \"contracts/CarreraCoches/principal.sol\":2415:2426  listaCoches */\n      0x05\n        /* \"contracts/CarreraCoches/principal.sol\":2415:2433  listaCoches.length */\n      dup1\n      sload\n      swap1\n      pop\n        /* \"contracts/CarreraCoches/principal.sol\":2411:2412  i */\n      dup2\n        /* \"contracts/CarreraCoches/principal.sol\":2411:2433  i < listaCoches.length */\n      lt\n        /* \"contracts/CarreraCoches/principal.sol\":2395:2611  for(uint i = 0; i < listaCoches.length; i++){\r... */\n      iszero\n      tag_102\n      jumpi\n        /* \"contracts/CarreraCoches/principal.sol\":2484:2496  _propietario */\n      dup3\n        /* \"contracts/CarreraCoches/principal.sol\":2457:2496  listaCoches[i].idPiloto == _propietario */\n      0xffffffffffffffffffffffffffffffffffffffff\n      and\n        /* \"contracts/CarreraCoches/principal.sol\":2457:2468  listaCoches */\n      0x05\n        /* \"contracts/CarreraCoches/principal.sol\":2469:2470  i */\n      dup3\n        /* \"contracts/CarreraCoches/principal.sol\":2457:2471  listaCoches[i] */\n      dup2\n      sload\n      dup2\n      lt\n      tag_104\n      jumpi\n      tag_105\n      tag_106\n      jump\t// in\n    tag_105:\n    tag_104:\n      swap1\n      0x00\n      mstore\n      keccak256(0x00, 0x20)\n      swap1\n      0x08\n      mul\n      add\n        /* \"contracts/CarreraCoches/principal.sol\":2457:2480  listaCoches[i].idPiloto */\n      0x00\n      add\n      0x00\n      swap1\n      sload\n      swap1\n      0x0100\n      exp\n      swap1\n      div\n      0xffffffffffffffffffffffffffffffffffffffff\n      and\n        /* \"contracts/CarreraCoches/principal.sol\":2457:2496  listaCoches[i].idPiloto == _propietario */\n      0xffffffffffffffffffffffffffffffffffffffff\n      and\n      eq\n        /* \"contracts/CarreraCoches/principal.sol\":2454:2600  if(listaCoches[i].idPiloto == _propietario){\r... */\n      iszero\n      tag_108\n      jumpi\n        /* \"contracts/CarreraCoches/principal.sol\":2516:2527  listaCoches */\n      0x05\n        /* \"contracts/CarreraCoches/principal.sol\":2528:2529  i */\n      dup2\n        /* \"contracts/CarreraCoches/principal.sol\":2516:2530  listaCoches[i] */\n      dup2\n      sload\n      dup2\n      lt\n      tag_109\n      jumpi\n      tag_110\n      tag_106\n      jump\t// in\n    tag_110:\n    tag_109:\n      swap1\n      0x00\n      mstore\n      keccak256(0x00, 0x20)\n      swap1\n      0x08\n      mul\n      add\n        /* \"contracts/CarreraCoches/principal.sol\":2516:2536  listaCoches[i].nivel */\n      0x07\n      add\n      0x00\n        /* \"contracts/CarreraCoches/principal.sol\":2516:2538  listaCoches[i].nivel++ */\n      dup2\n      dup2\n      swap1\n      sload\n      swap1\n      0x0100\n      exp\n      swap1\n      div\n      0xffffffff\n      and\n      dup1\n      swap3\n      swap2\n      swap1\n      tag_112\n      swap1\n      tag_113\n      jump\t// in\n    tag_112:\n      swap2\n      swap1\n      0x0100\n      exp\n      dup2\n      sload\n      dup2\n      0xffffffff\n      mul\n      not\n      and\n      swap1\n      dup4\n      0xffffffff\n      and\n      mul\n      or\n      swap1\n      sstore\n      pop\n      pop\n        /* \"contracts/CarreraCoches/principal.sol\":2557:2584  return \"Ha subido de nivel\" */\n      mload(0x40)\n      dup1\n      0x40\n      add\n      0x40\n      mstore\n      dup1\n      0x12\n      dup2\n      mstore\n      0x20\n      add\n      0x48612073756269646f206465206e6976656c0000000000000000000000000000\n      dup2\n      mstore\n      pop\n      swap2\n      pop\n      pop\n      jump(tag_99)\n        /* \"contracts/CarreraCoches/principal.sol\":2454:2600  if(listaCoches[i].idPiloto == _propietario){\r... */\n    tag_108:\n        /* \"contracts/CarreraCoches/principal.sol\":2435:2438  i++ */\n      dup1\n      dup1\n      tag_114\n      swap1\n      tag_95\n      jump\t// in\n    tag_114:\n      swap2\n      pop\n      pop\n        /* \"contracts/CarreraCoches/principal.sol\":2395:2611  for(uint i = 0; i < listaCoches.length; i++){\r... */\n      jump(tag_101)\n    tag_102:\n      pop\n        /* \"contracts/CarreraCoches/principal.sol\":2259:2618  function subirDeNivel(address _propietario) external payable returns(string memory) {\r... */\n    tag_99:\n      swap2\n      swap1\n      pop\n      jump\t// out\n        /* \"contracts/CarreraCoches/principal.sol\":3309:4531  function Apostar(uint dineroApostar) public payable returns(string memory) {\r... */\n    tag_39:\n        /* \"contracts/CarreraCoches/principal.sol\":3369:3382  string memory */\n      0x60\n        /* \"contracts/CarreraCoches/principal.sol\":3415:3428  dineroApostar */\n      dup2\n        /* \"contracts/CarreraCoches/principal.sol\":3402:3411  msg.value */\n      callvalue\n        /* \"contracts/CarreraCoches/principal.sol\":3402:3428  msg.value == dineroApostar */\n      eq\n        /* \"contracts/CarreraCoches/principal.sol\":3394:3429  require(msg.value == dineroApostar) */\n      tag_116\n      jumpi\n      0x00\n      dup1\n      revert\n    tag_116:\n        /* \"contracts/CarreraCoches/principal.sol\":3450:3459  randNonce */\n      0x01\n      0x00\n        /* \"contracts/CarreraCoches/principal.sol\":3450:3461  randNonce++ */\n      dup2\n      sload\n      dup1\n      swap3\n      swap2\n      swap1\n      tag_117\n      swap1\n      tag_95\n      jump\t// in\n    tag_117:\n      swap2\n      swap1\n      pop\n      sstore\n      pop\n        /* \"contracts/CarreraCoches/principal.sol\":3508:3521  uint256 rival */\n      0x00\n        /* \"contracts/CarreraCoches/principal.sol\":3611:3622  listaCoches */\n      0x05\n        /* \"contracts/CarreraCoches/principal.sol\":3611:3629  listaCoches.length */\n      dup1\n      sload\n      swap1\n      pop\n        /* \"contracts/CarreraCoches/principal.sol\":3559:3574  block.timestamp */\n      timestamp\n        /* \"contracts/CarreraCoches/principal.sol\":3576:3587  listaCoches */\n      0x05\n        /* \"contracts/CarreraCoches/principal.sol\":3576:3594  listaCoches.length */\n      dup1\n      sload\n      swap1\n      pop\n        /* \"contracts/CarreraCoches/principal.sol\":3596:3605  randNonce */\n      sload(0x01)\n        /* \"contracts/CarreraCoches/principal.sol\":3542:3606  abi.encodePacked(block.timestamp, listaCoches.length, randNonce) */\n      add(0x20, mload(0x40))\n      tag_118\n      swap4\n      swap3\n      swap2\n      swap1\n      tag_119\n      jump\t// in\n    tag_118:\n      mload(0x40)\n      0x20\n      dup2\n      dup4\n      sub\n      sub\n      dup2\n      mstore\n      swap1\n      0x40\n      mstore\n        /* \"contracts/CarreraCoches/principal.sol\":3532:3607  keccak256(abi.encodePacked(block.timestamp, listaCoches.length, randNonce)) */\n      dup1\n      mload\n      swap1\n      0x20\n      add\n      keccak256\n        /* \"contracts/CarreraCoches/principal.sol\":3524:3608  uint256(keccak256(abi.encodePacked(block.timestamp, listaCoches.length, randNonce))) */\n      0x00\n      shr\n        /* \"contracts/CarreraCoches/principal.sol\":3524:3629  uint256(keccak256(abi.encodePacked(block.timestamp, listaCoches.length, randNonce))) % listaCoches.length */\n      tag_120\n      swap2\n      swap1\n      tag_121\n      jump\t// in\n    tag_120:\n        /* \"contracts/CarreraCoches/principal.sol\":3508:3629  uint256 rival = uint256(keccak256(abi.encodePacked(block.timestamp, listaCoches.length, randNonce))) % listaCoches.length */\n      swap1\n      pop\n        /* \"contracts/CarreraCoches/principal.sol\":3672:3681  randNonce */\n      0x01\n      0x00\n        /* \"contracts/CarreraCoches/principal.sol\":3672:3683  randNonce++ */\n      dup2\n      sload\n      dup1\n      swap3\n      swap2\n      swap1\n      tag_122\n      swap1\n      tag_95\n      jump\t// in\n    tag_122:\n      swap2\n      swap1\n      pop\n      sstore\n      pop\n        /* \"contracts/CarreraCoches/principal.sol\":3694:3705  uint numero */\n      0x00\n        /* \"contracts/CarreraCoches/principal.sol\":3708:3709  2 */\n      0x02\n        /* \"contracts/CarreraCoches/principal.sol\":3694:3709  uint numero = 2 */\n      swap1\n      pop\n        /* \"contracts/CarreraCoches/principal.sol\":3720:3735  uint256 ganador */\n      0x00\n        /* \"contracts/CarreraCoches/principal.sol\":3813:3819  numero */\n      dup2\n        /* \"contracts/CarreraCoches/principal.sol\":3773:3788  block.timestamp */\n      timestamp\n        /* \"contracts/CarreraCoches/principal.sol\":3790:3796  numero */\n      dup4\n        /* \"contracts/CarreraCoches/principal.sol\":3798:3807  randNonce */\n      sload(0x01)\n        /* \"contracts/CarreraCoches/principal.sol\":3756:3808  abi.encodePacked(block.timestamp, numero, randNonce) */\n      add(0x20, mload(0x40))\n      tag_123\n      swap4\n      swap3\n      swap2\n      swap1\n      tag_119\n      jump\t// in\n    tag_123:\n      mload(0x40)\n      0x20\n      dup2\n      dup4\n      sub\n      sub\n      dup2\n      mstore\n      swap1\n      0x40\n      mstore\n        /* \"contracts/CarreraCoches/principal.sol\":3746:3809  keccak256(abi.encodePacked(block.timestamp, numero, randNonce)) */\n      dup1\n      mload\n      swap1\n      0x20\n      add\n      keccak256\n        /* \"contracts/CarreraCoches/principal.sol\":3738:3810  uint256(keccak256(abi.encodePacked(block.timestamp, numero, randNonce))) */\n      0x00\n      shr\n        /* \"contracts/CarreraCoches/principal.sol\":3738:3819  uint256(keccak256(abi.encodePacked(block.timestamp, numero, randNonce))) % numero */\n      tag_124\n      swap2\n      swap1\n      tag_121\n      jump\t// in\n    tag_124:\n        /* \"contracts/CarreraCoches/principal.sol\":3720:3819  uint256 ganador = uint256(keccak256(abi.encodePacked(block.timestamp, numero, randNonce))) % numero */\n      swap1\n      pop\n        /* \"contracts/CarreraCoches/principal.sol\":3836:3842  uint i */\n      0x00\n        /* \"contracts/CarreraCoches/principal.sol\":3832:4525  for(uint i = 0; i < listaCoches.length; i++){\r... */\n    tag_125:\n        /* \"contracts/CarreraCoches/principal.sol\":3852:3863  listaCoches */\n      0x05\n        /* \"contracts/CarreraCoches/principal.sol\":3852:3870  listaCoches.length */\n      dup1\n      sload\n      swap1\n      pop\n        /* \"contracts/CarreraCoches/principal.sol\":3848:3849  i */\n      dup2\n        /* \"contracts/CarreraCoches/principal.sol\":3848:3870  i < listaCoches.length */\n      lt\n        /* \"contracts/CarreraCoches/principal.sol\":3832:4525  for(uint i = 0; i < listaCoches.length; i++){\r... */\n      iszero\n      tag_126\n      jumpi\n        /* \"contracts/CarreraCoches/principal.sol\":3979:3990  listaCoches */\n      0x05\n        /* \"contracts/CarreraCoches/principal.sol\":3991:3992  i */\n      dup2\n        /* \"contracts/CarreraCoches/principal.sol\":3979:3993  listaCoches[i] */\n      dup2\n      sload\n      dup2\n      lt\n      tag_128\n      jumpi\n      tag_129\n      tag_106\n      jump\t// in\n    tag_129:\n    tag_128:\n      swap1\n      0x00\n      mstore\n      keccak256(0x00, 0x20)\n      swap1\n      0x08\n      mul\n      add\n        /* \"contracts/CarreraCoches/principal.sol\":3979:4002  listaCoches[i].idPiloto */\n      0x00\n      add\n      0x00\n      swap1\n      sload\n      swap1\n      0x0100\n      exp\n      swap1\n      div\n      0xffffffffffffffffffffffffffffffffffffffff\n      and\n        /* \"contracts/CarreraCoches/principal.sol\":3965:4002  msg.sender == listaCoches[i].idPiloto */\n      0xffffffffffffffffffffffffffffffffffffffff\n      and\n        /* \"contracts/CarreraCoches/principal.sol\":3965:3975  msg.sender */\n      caller\n        /* \"contracts/CarreraCoches/principal.sol\":3965:4002  msg.sender == listaCoches[i].idPiloto */\n      0xffffffffffffffffffffffffffffffffffffffff\n      and\n      eq\n        /* \"contracts/CarreraCoches/principal.sol\":3961:4514  if (msg.sender == listaCoches[i].idPiloto) {\r... */\n      iszero\n      tag_131\n      jumpi\n        /* \"contracts/CarreraCoches/principal.sol\":4037:4038  0 */\n      0x00\n        /* \"contracts/CarreraCoches/principal.sol\":4026:4033  ganador */\n      dup3\n        /* \"contracts/CarreraCoches/principal.sol\":4026:4038  ganador == 0 */\n      eq\n        /* \"contracts/CarreraCoches/principal.sol\":4023:4398  if(ganador == 0){\r... */\n      iszero\n      tag_132\n      jumpi\n        /* \"contracts/CarreraCoches/principal.sol\":4062:4071  balance() */\n      tag_133\n        /* \"contracts/CarreraCoches/principal.sol\":4062:4069  balance */\n      tag_134\n        /* \"contracts/CarreraCoches/principal.sol\":4062:4071  balance() */\n      jump\t// in\n    tag_133:\n        /* \"contracts/CarreraCoches/principal.sol\":4094:4105  listaCoches */\n      0x05\n        /* \"contracts/CarreraCoches/principal.sol\":4106:4107  i */\n      dup2\n        /* \"contracts/CarreraCoches/principal.sol\":4094:4108  listaCoches[i] */\n      dup2\n      sload\n      dup2\n      lt\n      tag_135\n      jumpi\n      tag_136\n      tag_106\n      jump\t// in\n    tag_136:\n    tag_135:\n      swap1\n      0x00\n      mstore\n      keccak256(0x00, 0x20)\n      swap1\n      0x08\n      mul\n      add\n        /* \"contracts/CarreraCoches/principal.sol\":4094:4124  listaCoches[i].carrerasGanadas */\n      0x04\n      add\n      0x00\n        /* \"contracts/CarreraCoches/principal.sol\":4094:4126  listaCoches[i].carrerasGanadas++ */\n      dup2\n      sload\n      dup1\n      swap3\n      swap2\n      swap1\n      tag_138\n      swap1\n      tag_95\n      jump\t// in\n    tag_138:\n      swap2\n      swap1\n      pop\n      sstore\n      pop\n        /* \"contracts/CarreraCoches/principal.sol\":4149:4160  listaCoches */\n      0x05\n        /* \"contracts/CarreraCoches/principal.sol\":4161:4162  i */\n      dup2\n        /* \"contracts/CarreraCoches/principal.sol\":4149:4163  listaCoches[i] */\n      dup2\n      sload\n      dup2\n      lt\n      tag_139\n      jumpi\n      tag_140\n      tag_106\n      jump\t// in\n    tag_140:\n    tag_139:\n      swap1\n      0x00\n      mstore\n      keccak256(0x00, 0x20)\n      swap1\n      0x08\n      mul\n      add\n        /* \"contracts/CarreraCoches/principal.sol\":4149:4169  listaCoches[i].nivel */\n      0x07\n      add\n      0x00\n        /* \"contracts/CarreraCoches/principal.sol\":4149:4171  listaCoches[i].nivel++ */\n      dup2\n      dup2\n      swap1\n      sload\n      swap1\n      0x0100\n      exp\n      swap1\n      div\n      0xffffffff\n      and\n      dup1\n      swap3\n      swap2\n      swap1\n      tag_142\n      swap1\n      tag_113\n      jump\t// in\n    tag_142:\n      swap2\n      swap1\n      0x0100\n      exp\n      dup2\n      sload\n      dup2\n      0xffffffff\n      mul\n      not\n      and\n      swap1\n      dup4\n      0xffffffff\n      and\n      mul\n      or\n      swap1\n      sstore\n      pop\n      pop\n        /* \"contracts/CarreraCoches/principal.sol\":4194:4213  return \"Has ganado\" */\n      mload(0x40)\n      dup1\n      0x40\n      add\n      0x40\n      mstore\n      dup1\n      0x0a\n      dup2\n      mstore\n      0x20\n      add\n      0x4861732067616e61646f00000000000000000000000000000000000000000000\n      dup2\n      mstore\n      pop\n      swap5\n      pop\n      pop\n      pop\n      pop\n      pop\n      jump(tag_115)\n        /* \"contracts/CarreraCoches/principal.sol\":4023:4398  if(ganador == 0){\r... */\n    tag_132:\n        /* \"contracts/CarreraCoches/principal.sol\":4287:4335  mostrarResultado(\"El coche ganador es: \", rival) */\n      0xa28482eec3136a2461c6c30c08f71ba279c6c51a2d9c7bea4e50d6d2632f3896\n        /* \"contracts/CarreraCoches/principal.sol\":4329:4334  rival */\n      dup5\n        /* \"contracts/CarreraCoches/principal.sol\":4287:4335  mostrarResultado(\"El coche ganador es: \", rival) */\n      mload(0x40)\n      tag_144\n      swap2\n      swap1\n      tag_145\n      jump\t// in\n    tag_144:\n      mload(0x40)\n      dup1\n      swap2\n      sub\n      swap1\n      log1\n        /* \"contracts/CarreraCoches/principal.sol\":4358:4378  return \"Has perdido\" */\n      mload(0x40)\n      dup1\n      0x40\n      add\n      0x40\n      mstore\n      dup1\n      0x0b\n      dup2\n      mstore\n      0x20\n      add\n      0x486173207065726469646f000000000000000000000000000000000000000000\n      dup2\n      mstore\n      pop\n      swap5\n      pop\n      pop\n      pop\n      pop\n      pop\n      jump(tag_115)\n        /* \"contracts/CarreraCoches/principal.sol\":3961:4514  if (msg.sender == listaCoches[i].idPiloto) {\r... */\n    tag_131:\n        /* \"contracts/CarreraCoches/principal.sol\":3872:3875  i++ */\n      dup1\n      dup1\n      tag_155\n      swap1\n      tag_95\n      jump\t// in\n    tag_155:\n      swap2\n      pop\n      pop\n        /* \"contracts/CarreraCoches/principal.sol\":3832:4525  for(uint i = 0; i < listaCoches.length; i++){\r... */\n      jump(tag_125)\n    tag_126:\n      pop\n        /* \"contracts/CarreraCoches/principal.sol\":3384:4531  {\r... */\n      pop\n      pop\n      pop\n        /* \"contracts/CarreraCoches/principal.sol\":3309:4531  function Apostar(uint dineroApostar) public payable returns(string memory) {\r... */\n    tag_115:\n      swap2\n      swap1\n      pop\n      jump\t// out\n        /* \"contracts/CarreraCoches/ownable.sol\":1719:1822  function renounceOwnership() public virtual onlyOwner {\r... */\n    tag_43:\n        /* \"contracts/CarreraCoches/ownable.sol\":1299:1311  _msgSender() */\n      tag_157\n        /* \"contracts/CarreraCoches/ownable.sol\":1299:1309  _msgSender */\n      tag_74\n        /* \"contracts/CarreraCoches/ownable.sol\":1299:1311  _msgSender() */\n      jump\t// in\n    tag_157:\n        /* \"contracts/CarreraCoches/ownable.sol\":1288:1311  owner() == _msgSender() */\n      0xffffffffffffffffffffffffffffffffffffffff\n      and\n        /* \"contracts/CarreraCoches/ownable.sol\":1288:1295  owner() */\n      tag_158\n        /* \"contracts/CarreraCoches/ownable.sol\":1288:1293  owner */\n      tag_52\n        /* \"contracts/CarreraCoches/ownable.sol\":1288:1295  owner() */\n      jump\t// in\n    tag_158:\n        /* \"contracts/CarreraCoches/ownable.sol\":1288:1311  owner() == _msgSender() */\n      0xffffffffffffffffffffffffffffffffffffffff\n      and\n      eq\n        /* \"contracts/CarreraCoches/ownable.sol\":1280:1348  require(owner() == _msgSender(), \"Ownable: caller is not the owner\") */\n      tag_159\n      jumpi\n      mload(0x40)\n      0x08c379a000000000000000000000000000000000000000000000000000000000\n      dup2\n      mstore\n      0x04\n      add\n      tag_160\n      swap1\n      tag_78\n      jump\t// in\n    tag_160:\n      mload(0x40)\n      dup1\n      swap2\n      sub\n      swap1\n      revert\n    tag_159:\n        /* \"contracts/CarreraCoches/ownable.sol\":1784:1814  _transferOwnership(address(0)) */\n      tag_162\n        /* \"contracts/CarreraCoches/ownable.sol\":1811:1812  0 */\n      0x00\n        /* \"contracts/CarreraCoches/ownable.sol\":1784:1802  _transferOwnership */\n      tag_163\n        /* \"contracts/CarreraCoches/ownable.sol\":1784:1814  _transferOwnership(address(0)) */\n      jump\t// in\n    tag_162:\n        /* \"contracts/CarreraCoches/ownable.sol\":1719:1822  function renounceOwnership() public virtual onlyOwner {\r... */\n      jump\t// out\n        /* \"contracts/CarreraCoches/principal.sol\":816:867  mapping (uint => address) public cocheDePropietario */\n    tag_47:\n      mstore(0x20, 0x06)\n      dup1\n      0x00\n      mstore\n      keccak256(0x00, 0x40)\n      0x00\n      swap2\n      pop\n      sload\n      swap1\n      0x0100\n      exp\n      swap1\n      div\n      0xffffffffffffffffffffffffffffffffffffffff\n      and\n      dup2\n      jump\t// out\n        /* \"contracts/CarreraCoches/ownable.sol\":1068:1155  function owner() public view virtual returns (address) {\r... */\n    tag_52:\n        /* \"contracts/CarreraCoches/ownable.sol\":1114:1121  address */\n      0x00\n        /* \"contracts/CarreraCoches/ownable.sol\":1141:1147  _owner */\n      dup1\n      0x00\n      swap1\n      sload\n      swap1\n      0x0100\n      exp\n      swap1\n      div\n      0xffffffffffffffffffffffffffffffffffffffff\n      and\n        /* \"contracts/CarreraCoches/ownable.sol\":1134:1147  return _owner */\n      swap1\n      pop\n        /* \"contracts/CarreraCoches/ownable.sol\":1068:1155  function owner() public view virtual returns (address) {\r... */\n      swap1\n      jump\t// out\n        /* \"contracts/CarreraCoches/ownable.sol\":701:722  address public _owner */\n    tag_56:\n      0x00\n      dup1\n      sload\n      swap1\n      0x0100\n      exp\n      swap1\n      div\n      0xffffffffffffffffffffffffffffffffffffffff\n      and\n      dup2\n      jump\t// out\n        /* \"contracts/CarreraCoches/principal.sol\":569:595  Coche[] public listaCoches */\n    tag_61:\n      0x05\n      dup2\n      dup2\n      sload\n      dup2\n      lt\n      tag_165\n      jumpi\n      0x00\n      dup1\n      revert\n    tag_165:\n      swap1\n      0x00\n      mstore\n      keccak256(0x00, 0x20)\n      swap1\n      0x08\n      mul\n      add\n      0x00\n      swap2\n      pop\n      swap1\n      pop\n      dup1\n      0x00\n      add\n      0x00\n      swap1\n      sload\n      swap1\n      0x0100\n      exp\n      swap1\n      div\n      0xffffffffffffffffffffffffffffffffffffffff\n      and\n      swap1\n      dup1\n      0x01\n      add\n      dup1\n      sload\n      tag_167\n      swap1\n      tag_168\n      jump\t// in\n    tag_167:\n      dup1\n      0x1f\n      add\n      0x20\n      dup1\n      swap2\n      div\n      mul\n      0x20\n      add\n      mload(0x40)\n      swap1\n      dup2\n      add\n      0x40\n      mstore\n      dup1\n      swap3\n      swap2\n      swap1\n      dup2\n      dup2\n      mstore\n      0x20\n      add\n      dup3\n      dup1\n      sload\n      tag_169\n      swap1\n      tag_168\n      jump\t// in\n    tag_169:\n      dup1\n      iszero\n      tag_170\n      jumpi\n      dup1\n      0x1f\n      lt\n      tag_171\n      jumpi\n      0x0100\n      dup1\n      dup4\n      sload\n      div\n      mul\n      dup4\n      mstore\n      swap2\n      0x20\n      add\n      swap2\n      jump(tag_170)\n    tag_171:\n      dup3\n      add\n      swap2\n      swap1\n      0x00\n      mstore\n      keccak256(0x00, 0x20)\n      swap1\n    tag_172:\n      dup2\n      sload\n      dup2\n      mstore\n      swap1\n      0x01\n      add\n      swap1\n      0x20\n      add\n      dup1\n      dup4\n      gt\n      tag_172\n      jumpi\n      dup3\n      swap1\n      sub\n      0x1f\n      and\n      dup3\n      add\n      swap2\n    tag_170:\n      pop\n      pop\n      pop\n      pop\n      pop\n      swap1\n      dup1\n      0x02\n      add\n      dup1\n      sload\n      tag_173\n      swap1\n      tag_168\n      jump\t// in\n    tag_173:\n      dup1\n      0x1f\n      add\n      0x20\n      dup1\n      swap2\n      div\n      mul\n      0x20\n      add\n      mload(0x40)\n      swap1\n      dup2\n      add\n      0x40\n      mstore\n      dup1\n      swap3\n      swap2\n      swap1\n      dup2\n      dup2\n      mstore\n      0x20\n      add\n      dup3\n      dup1\n      sload\n      tag_174\n      swap1\n      tag_168\n      jump\t// in\n    tag_174:\n      dup1\n      iszero\n      tag_175\n      jumpi\n      dup1\n      0x1f\n      lt\n      tag_176\n      jumpi\n      0x0100\n      dup1\n      dup4\n      sload\n      div\n      mul\n      dup4\n      mstore\n      swap2\n      0x20\n      add\n      swap2\n      jump(tag_175)\n    tag_176:\n      dup3\n      add\n      swap2\n      swap1\n      0x00\n      mstore\n      keccak256(0x00, 0x20)\n      swap1\n    tag_177:\n      dup2\n      sload\n      dup2\n      mstore\n      swap1\n      0x01\n      add\n      swap1\n      0x20\n      add\n      dup1\n      dup4\n      gt\n      tag_177\n      jumpi\n      dup3\n      swap1\n      sub\n      0x1f\n      and\n      dup3\n      add\n      swap2\n    tag_175:\n      pop\n      pop\n      pop\n      pop\n      pop\n      swap1\n      dup1\n      0x03\n      add\n      dup1\n      sload\n      tag_178\n      swap1\n      tag_168\n      jump\t// in\n    tag_178:\n      dup1\n      0x1f\n      add\n      0x20\n      dup1\n      swap2\n      div\n      mul\n      0x20\n      add\n      mload(0x40)\n      swap1\n      dup2\n      add\n      0x40\n      mstore\n      dup1\n      swap3\n      swap2\n      swap1\n      dup2\n      dup2\n      mstore\n      0x20\n      add\n      dup3\n      dup1\n      sload\n      tag_179\n      swap1\n      tag_168\n      jump\t// in\n    tag_179:\n      dup1\n      iszero\n      tag_180\n      jumpi\n      dup1\n      0x1f\n      lt\n      tag_181\n      jumpi\n      0x0100\n      dup1\n      dup4\n      sload\n      div\n      mul\n      dup4\n      mstore\n      swap2\n      0x20\n      add\n      swap2\n      jump(tag_180)\n    tag_181:\n      dup3\n      add\n      swap2\n      swap1\n      0x00\n      mstore\n      keccak256(0x00, 0x20)\n      swap1\n    tag_182:\n      dup2\n      sload\n      dup2\n      mstore\n      swap1\n      0x01\n      add\n      swap1\n      0x20\n      add\n      dup1\n      dup4\n      gt\n      tag_182\n      jumpi\n      dup3\n      swap1\n      sub\n      0x1f\n      and\n      dup3\n      add\n      swap2\n    tag_180:\n      pop\n      pop\n      pop\n      pop\n      pop\n      swap1\n      dup1\n      0x04\n      add\n      sload\n      swap1\n      dup1\n      0x05\n      add\n      sload\n      swap1\n      dup1\n      0x06\n      add\n      sload\n      swap1\n      dup1\n      0x07\n      add\n      0x00\n      swap1\n      sload\n      swap1\n      0x0100\n      exp\n      swap1\n      div\n      0xffffffff\n      and\n      swap1\n      pop\n      dup9\n      jump\t// out\n        /* \"contracts/CarreraCoches/principal.sol\":2628:2972  function verCochePropietario(address _propietario) external {\r... */\n    tag_67:\n        /* \"contracts/CarreraCoches/principal.sol\":2703:2709  uint i */\n      0x00\n        /* \"contracts/CarreraCoches/principal.sol\":2699:2965  for(uint i = 0; i < listaCoches.length; i++){\r... */\n    tag_184:\n        /* \"contracts/CarreraCoches/principal.sol\":2719:2730  listaCoches */\n      0x05\n        /* \"contracts/CarreraCoches/principal.sol\":2719:2737  listaCoches.length */\n      dup1\n      sload\n      swap1\n      pop\n        /* \"contracts/CarreraCoches/principal.sol\":2715:2716  i */\n      dup2\n        /* \"contracts/CarreraCoches/principal.sol\":2715:2737  i < listaCoches.length */\n      lt\n        /* \"contracts/CarreraCoches/principal.sol\":2699:2965  for(uint i = 0; i < listaCoches.length; i++){\r... */\n      iszero\n      tag_185\n      jumpi\n        /* \"contracts/CarreraCoches/principal.sol\":2786:2798  _propietario */\n      dup2\n        /* \"contracts/CarreraCoches/principal.sol\":2761:2798  listaCoches[i].idPiloto==_propietario */\n      0xffffffffffffffffffffffffffffffffffffffff\n      and\n        /* \"contracts/CarreraCoches/principal.sol\":2761:2772  listaCoches */\n      0x05\n        /* \"contracts/CarreraCoches/principal.sol\":2773:2774  i */\n      dup3\n        /* \"contracts/CarreraCoches/principal.sol\":2761:2775  listaCoches[i] */\n      dup2\n      sload\n      dup2\n      lt\n      tag_187\n      jumpi\n      tag_188\n      tag_106\n      jump\t// in\n    tag_188:\n    tag_187:\n      swap1\n      0x00\n      mstore\n      keccak256(0x00, 0x20)\n      swap1\n      0x08\n      mul\n      add\n        /* \"contracts/CarreraCoches/principal.sol\":2761:2784  listaCoches[i].idPiloto */\n      0x00\n      add\n      0x00\n      swap1\n      sload\n      swap1\n      0x0100\n      exp\n      swap1\n      div\n      0xffffffffffffffffffffffffffffffffffffffff\n      and\n        /* \"contracts/CarreraCoches/principal.sol\":2761:2798  listaCoches[i].idPiloto==_propietario */\n      0xffffffffffffffffffffffffffffffffffffffff\n      and\n      eq\n        /* \"contracts/CarreraCoches/principal.sol\":2758:2954  if(listaCoches[i].idPiloto==_propietario){\r... */\n      iszero\n      tag_190\n      jumpi\n        /* \"contracts/CarreraCoches/principal.sol\":2823:2938  cochePropietario(listaCoches[i].marca, listaCoches[i].modelo, listaCoches[i].nivel, listaCoches[i].carrerasGanadas) */\n      0x18c2885dbbffc4e127da047b869295b42d8d5ee97848f7f117b062e88f34a9e6\n        /* \"contracts/CarreraCoches/principal.sol\":2840:2851  listaCoches */\n      0x05\n        /* \"contracts/CarreraCoches/principal.sol\":2852:2853  i */\n      dup3\n        /* \"contracts/CarreraCoches/principal.sol\":2840:2854  listaCoches[i] */\n      dup2\n      sload\n      dup2\n      lt\n      tag_191\n      jumpi\n      tag_192\n      tag_106\n      jump\t// in\n    tag_192:\n    tag_191:\n      swap1\n      0x00\n      mstore\n      keccak256(0x00, 0x20)\n      swap1\n      0x08\n      mul\n      add\n        /* \"contracts/CarreraCoches/principal.sol\":2840:2860  listaCoches[i].marca */\n      0x02\n      add\n        /* \"contracts/CarreraCoches/principal.sol\":2862:2873  listaCoches */\n      0x05\n        /* \"contracts/CarreraCoches/principal.sol\":2874:2875  i */\n      dup4\n        /* \"contracts/CarreraCoches/principal.sol\":2862:2876  listaCoches[i] */\n      dup2\n      sload\n      dup2\n      lt\n      tag_194\n      jumpi\n      tag_195\n      tag_106\n      jump\t// in\n    tag_195:\n    tag_194:\n      swap1\n      0x00\n      mstore\n      keccak256(0x00, 0x20)\n      swap1\n      0x08\n      mul\n      add\n        /* \"contracts/CarreraCoches/principal.sol\":2862:2883  listaCoches[i].modelo */\n      0x01\n      add\n        /* \"contracts/CarreraCoches/principal.sol\":2885:2896  listaCoches */\n      0x05\n        /* \"contracts/CarreraCoches/principal.sol\":2897:2898  i */\n      dup5\n        /* \"contracts/CarreraCoches/principal.sol\":2885:2899  listaCoches[i] */\n      dup2\n      sload\n      dup2\n      lt\n      tag_197\n      jumpi\n      tag_198\n      tag_106\n      jump\t// in\n    tag_198:\n    tag_197:\n      swap1\n      0x00\n      mstore\n      keccak256(0x00, 0x20)\n      swap1\n      0x08\n      mul\n      add\n        /* \"contracts/CarreraCoches/principal.sol\":2885:2905  listaCoches[i].nivel */\n      0x07\n      add\n      0x00\n      swap1\n      sload\n      swap1\n      0x0100\n      exp\n      swap1\n      div\n      0xffffffff\n      and\n        /* \"contracts/CarreraCoches/principal.sol\":2907:2918  listaCoches */\n      0x05\n        /* \"contracts/CarreraCoches/principal.sol\":2919:2920  i */\n      dup6\n        /* \"contracts/CarreraCoches/principal.sol\":2907:2921  listaCoches[i] */\n      dup2\n      sload\n      dup2\n      lt\n      tag_200\n      jumpi\n      tag_201\n      tag_106\n      jump\t// in\n    tag_201:\n    tag_200:\n      swap1\n      0x00\n      mstore\n      keccak256(0x00, 0x20)\n      swap1\n      0x08\n      mul\n      add\n        /* \"contracts/CarreraCoches/principal.sol\":2907:2937  listaCoches[i].carrerasGanadas */\n      0x04\n      add\n      sload\n        /* \"contracts/CarreraCoches/principal.sol\":2823:2938  cochePropietario(listaCoches[i].marca, listaCoches[i].modelo, listaCoches[i].nivel, listaCoches[i].carrerasGanadas) */\n      mload(0x40)\n      tag_203\n      swap5\n      swap4\n      swap3\n      swap2\n      swap1\n      tag_204\n      jump\t// in\n    tag_203:\n      mload(0x40)\n      dup1\n      swap2\n      sub\n      swap1\n      log1\n        /* \"contracts/CarreraCoches/principal.sol\":2758:2954  if(listaCoches[i].idPiloto==_propietario){\r... */\n    tag_190:\n        /* \"contracts/CarreraCoches/principal.sol\":2739:2742  i++ */\n      dup1\n      dup1\n      tag_205\n      swap1\n      tag_95\n      jump\t// in\n    tag_205:\n      swap2\n      pop\n      pop\n        /* \"contracts/CarreraCoches/principal.sol\":2699:2965  for(uint i = 0; i < listaCoches.length; i++){\r... */\n      jump(tag_184)\n    tag_185:\n      pop\n        /* \"contracts/CarreraCoches/principal.sol\":2628:2972  function verCochePropietario(address _propietario) external {\r... */\n      pop\n      jump\t// out\n        /* \"contracts/CarreraCoches/ownable.sol\":1977:2178  function transferOwnership(address newOwner) public virtual onlyOwner {\r... */\n    tag_71:\n        /* \"contracts/CarreraCoches/ownable.sol\":1299:1311  _msgSender() */\n      tag_207\n        /* \"contracts/CarreraCoches/ownable.sol\":1299:1309  _msgSender */\n      tag_74\n        /* \"contracts/CarreraCoches/ownable.sol\":1299:1311  _msgSender() */\n      jump\t// in\n    tag_207:\n        /* \"contracts/CarreraCoches/ownable.sol\":1288:1311  owner() == _msgSender() */\n      0xffffffffffffffffffffffffffffffffffffffff\n      and\n        /* \"contracts/CarreraCoches/ownable.sol\":1288:1295  owner() */\n      tag_208\n        /* \"contracts/CarreraCoches/ownable.sol\":1288:1293  owner */\n      tag_52\n        /* \"contracts/CarreraCoches/ownable.sol\":1288:1295  owner() */\n      jump\t// in\n    tag_208:\n        /* \"contracts/CarreraCoches/ownable.sol\":1288:1311  owner() == _msgSender() */\n      0xffffffffffffffffffffffffffffffffffffffff\n      and\n      eq\n        /* \"contracts/CarreraCoches/ownable.sol\":1280:1348  require(owner() == _msgSender(), \"Ownable: caller is not the owner\") */\n      tag_209\n      jumpi\n      mload(0x40)\n      0x08c379a000000000000000000000000000000000000000000000000000000000\n      dup2\n      mstore\n      0x04\n      add\n      tag_210\n      swap1\n      tag_78\n      jump\t// in\n    tag_210:\n      mload(0x40)\n      dup1\n      swap2\n      sub\n      swap1\n      revert\n    tag_209:\n        /* \"contracts/CarreraCoches/ownable.sol\":2086:2087  0 */\n      0x00\n        /* \"contracts/CarreraCoches/ownable.sol\":2066:2088  newOwner != address(0) */\n      0xffffffffffffffffffffffffffffffffffffffff\n      and\n        /* \"contracts/CarreraCoches/ownable.sol\":2066:2074  newOwner */\n      dup2\n        /* \"contracts/CarreraCoches/ownable.sol\":2066:2088  newOwner != address(0) */\n      0xffffffffffffffffffffffffffffffffffffffff\n      and\n      eq\n      iszero\n        /* \"contracts/CarreraCoches/ownable.sol\":2058:2131  require(newOwner != address(0), \"Ownable: new owner is the zero address\") */\n      tag_212\n      jumpi\n      mload(0x40)\n      0x08c379a000000000000000000000000000000000000000000000000000000000\n      dup2\n      mstore\n      0x04\n      add\n      tag_213\n      swap1\n      tag_214\n      jump\t// in\n    tag_213:\n      mload(0x40)\n      dup1\n      swap2\n      sub\n      swap1\n      revert\n    tag_212:\n        /* \"contracts/CarreraCoches/ownable.sol\":2142:2170  _transferOwnership(newOwner) */\n      tag_215\n        /* \"contracts/CarreraCoches/ownable.sol\":2161:2169  newOwner */\n      dup2\n        /* \"contracts/CarreraCoches/ownable.sol\":2142:2160  _transferOwnership */\n      tag_163\n        /* \"contracts/CarreraCoches/ownable.sol\":2142:2170  _transferOwnership(newOwner) */\n      jump\t// in\n    tag_215:\n        /* \"contracts/CarreraCoches/ownable.sol\":1977:2178  function transferOwnership(address newOwner) public virtual onlyOwner {\r... */\n      pop\n      jump\t// out\n        /* \"contracts/CarreraCoches/utils/Context.sol\":656:754  function _msgSender() internal view virtual returns (address) {\r... */\n    tag_74:\n        /* \"contracts/CarreraCoches/utils/Context.sol\":709:716  address */\n      0x00\n        /* \"contracts/CarreraCoches/utils/Context.sol\":736:746  msg.sender */\n      caller\n        /* \"contracts/CarreraCoches/utils/Context.sol\":729:746  return msg.sender */\n      swap1\n      pop\n        /* \"contracts/CarreraCoches/utils/Context.sol\":656:754  function _msgSender() internal view virtual returns (address) {\r... */\n      swap1\n      jump\t// out\n        /* \"contracts/CarreraCoches/principal.sol\":4588:4686  function balance() private {\r... */\n    tag_134:\n        /* \"contracts/CarreraCoches/principal.sol\":4635:4645  msg.sender */\n      caller\n        /* \"contracts/CarreraCoches/principal.sol\":4626:4655  payable (msg.sender).transfer */\n      0xffffffffffffffffffffffffffffffffffffffff\n      and\n        /* \"contracts/CarreraCoches/principal.sol\":4626:4678  payable (msg.sender).transfer(address(this).balance) */\n      0x08fc\n        /* \"contracts/CarreraCoches/principal.sol\":4656:4677  address(this).balance */\n      selfbalance\n        /* \"contracts/CarreraCoches/principal.sol\":4626:4678  payable (msg.sender).transfer(address(this).balance) */\n      swap1\n      dup2\n      iszero\n      mul\n      swap1\n      mload(0x40)\n      0x00\n      mload(0x40)\n      dup1\n      dup4\n      sub\n      dup2\n      dup6\n      dup9\n      dup9\n      call\n      swap4\n      pop\n      pop\n      pop\n      pop\n      iszero\n      dup1\n      iszero\n      tag_219\n      jumpi\n      returndatasize\n      0x00\n      dup1\n      returndatacopy\n      revert(0x00, returndatasize)\n    tag_219:\n      pop\n        /* \"contracts/CarreraCoches/principal.sol\":4588:4686  function balance() private {\r... */\n      jump\t// out\n        /* \"contracts/CarreraCoches/ownable.sol\":2338:2529  function _transferOwnership(address newOwner) internal virtual {\r... */\n    tag_163:\n        /* \"contracts/CarreraCoches/ownable.sol\":2412:2428  address oldOwner */\n      0x00\n        /* \"contracts/CarreraCoches/ownable.sol\":2431:2437  _owner */\n      dup1\n      0x00\n      swap1\n      sload\n      swap1\n      0x0100\n      exp\n      swap1\n      div\n      0xffffffffffffffffffffffffffffffffffffffff\n      and\n        /* \"contracts/CarreraCoches/ownable.sol\":2412:2437  address oldOwner = _owner */\n      swap1\n      pop\n        /* \"contracts/CarreraCoches/ownable.sol\":2457:2465  newOwner */\n      dup2\n        /* \"contracts/CarreraCoches/ownable.sol\":2448:2454  _owner */\n      0x00\n      dup1\n        /* \"contracts/CarreraCoches/ownable.sol\":2448:2465  _owner = newOwner */\n      0x0100\n      exp\n      dup2\n      sload\n      dup2\n      0xffffffffffffffffffffffffffffffffffffffff\n      mul\n      not\n      and\n      swap1\n      dup4\n      0xffffffffffffffffffffffffffffffffffffffff\n      and\n      mul\n      or\n      swap1\n      sstore\n      pop\n        /* \"contracts/CarreraCoches/ownable.sol\":2512:2520  newOwner */\n      dup2\n        /* \"contracts/CarreraCoches/ownable.sol\":2481:2521  OwnershipTransferred(oldOwner, newOwner) */\n      0xffffffffffffffffffffffffffffffffffffffff\n      and\n        /* \"contracts/CarreraCoches/ownable.sol\":2502:2510  oldOwner */\n      dup2\n        /* \"contracts/CarreraCoches/ownable.sol\":2481:2521  OwnershipTransferred(oldOwner, newOwner) */\n      0xffffffffffffffffffffffffffffffffffffffff\n      and\n      0x8be0079c531659141344cd1fd0a4f28419497f9722a3daafe3b4186f6b6457e0\n      mload(0x40)\n      mload(0x40)\n      dup1\n      swap2\n      sub\n      swap1\n      log3\n        /* \"contracts/CarreraCoches/ownable.sol\":2401:2529  {\r... */\n      pop\n        /* \"contracts/CarreraCoches/ownable.sol\":2338:2529  function _transferOwnership(address newOwner) internal virtual {\r... */\n      pop\n      jump\t// out\n    tag_91:\n      dup3\n      dup1\n      sload\n      tag_223\n      swap1\n      tag_168\n      jump\t// in\n    tag_223:\n      swap1\n      0x00\n      mstore\n      keccak256(0x00, 0x20)\n      swap1\n      0x1f\n      add\n      0x20\n      swap1\n      div\n      dup2\n      add\n      swap3\n      dup3\n      tag_225\n      jumpi\n      0x00\n      dup6\n      sstore\n      jump(tag_224)\n    tag_225:\n      dup3\n      0x1f\n      lt\n      tag_226\n      jumpi\n      dup1\n      mload\n      not(0xff)\n      and\n      dup4\n      dup1\n      add\n      or\n      dup6\n      sstore\n      jump(tag_224)\n    tag_226:\n      dup3\n      dup1\n      add\n      0x01\n      add\n      dup6\n      sstore\n      dup3\n      iszero\n      tag_224\n      jumpi\n      swap2\n      dup3\n      add\n    tag_227:\n      dup3\n      dup2\n      gt\n      iszero\n      tag_228\n      jumpi\n      dup3\n      mload\n      dup3\n      sstore\n      swap2\n      0x20\n      add\n      swap2\n      swap1\n      0x01\n      add\n      swap1\n      jump(tag_227)\n    tag_228:\n    tag_224:\n      pop\n      swap1\n      pop\n      tag_229\n      swap2\n      swap1\n      tag_230\n      jump\t// in\n    tag_229:\n      pop\n      swap1\n      jump\t// out\n    tag_230:\n    tag_231:\n      dup1\n      dup3\n      gt\n      iszero\n      tag_232\n      jumpi\n      0x00\n      dup2\n      0x00\n      swap1\n      sstore\n      pop\n      0x01\n      add\n      jump(tag_231)\n    tag_232:\n      pop\n      swap1\n      jump\t// out\n        /* \"#utility.yul\":7:419   */\n    tag_234:\n        /* \"#utility.yul\":85:90   */\n      0x00\n        /* \"#utility.yul\":110:176   */\n      tag_236\n        /* \"#utility.yul\":126:175   */\n      tag_237\n        /* \"#utility.yul\":168:174   */\n      dup5\n        /* \"#utility.yul\":126:175   */\n      tag_238\n      jump\t// in\n    tag_237:\n        /* \"#utility.yul\":110:176   */\n      tag_239\n      jump\t// in\n    tag_236:\n        /* \"#utility.yul\":101:176   */\n      swap1\n      pop\n        /* \"#utility.yul\":199:205   */\n      dup3\n        /* \"#utility.yul\":192:197   */\n      dup2\n        /* \"#utility.yul\":185:206   */\n      mstore\n        /* \"#utility.yul\":237:241   */\n      0x20\n        /* \"#utility.yul\":230:235   */\n      dup2\n        /* \"#utility.yul\":226:242   */\n      add\n        /* \"#utility.yul\":275:278   */\n      dup5\n        /* \"#utility.yul\":266:272   */\n      dup5\n        /* \"#utility.yul\":261:264   */\n      dup5\n        /* \"#utility.yul\":257:273   */\n      add\n        /* \"#utility.yul\":254:279   */\n      gt\n        /* \"#utility.yul\":251:363   */\n      iszero\n      tag_240\n      jumpi\n        /* \"#utility.yul\":282:361   */\n      tag_241\n      tag_242\n      jump\t// in\n    tag_241:\n        /* \"#utility.yul\":251:363   */\n    tag_240:\n        /* \"#utility.yul\":372:413   */\n      tag_243\n        /* \"#utility.yul\":406:412   */\n      dup5\n        /* \"#utility.yul\":401:404   */\n      dup3\n        /* \"#utility.yul\":396:399   */\n      dup6\n        /* \"#utility.yul\":372:413   */\n      tag_244\n      jump\t// in\n    tag_243:\n        /* \"#utility.yul\":91:419   */\n      pop\n        /* \"#utility.yul\":7:419   */\n      swap4\n      swap3\n      pop\n      pop\n      pop\n      jump\t// out\n        /* \"#utility.yul\":425:564   */\n    tag_245:\n        /* \"#utility.yul\":471:476   */\n      0x00\n        /* \"#utility.yul\":509:515   */\n      dup2\n        /* \"#utility.yul\":496:516   */\n      calldataload\n        /* \"#utility.yul\":487:516   */\n      swap1\n      pop\n        /* \"#utility.yul\":525:558   */\n      tag_247\n        /* \"#utility.yul\":552:557   */\n      dup2\n        /* \"#utility.yul\":525:558   */\n      tag_248\n      jump\t// in\n    tag_247:\n        /* \"#utility.yul\":425:564   */\n      swap3\n      swap2\n      pop\n      pop\n      jump\t// out\n        /* \"#utility.yul\":584:924   */\n    tag_249:\n        /* \"#utility.yul\":640:645   */\n      0x00\n        /* \"#utility.yul\":689:692   */\n      dup3\n        /* \"#utility.yul\":682:686   */\n      0x1f\n        /* \"#utility.yul\":674:680   */\n      dup4\n        /* \"#utility.yul\":670:687   */\n      add\n        /* \"#utility.yul\":666:693   */\n      slt\n        /* \"#utility.yul\":656:778   */\n      tag_251\n      jumpi\n        /* \"#utility.yul\":697:776   */\n      tag_252\n      tag_253\n      jump\t// in\n    tag_252:\n        /* \"#utility.yul\":656:778   */\n    tag_251:\n        /* \"#utility.yul\":814:820   */\n      dup2\n        /* \"#utility.yul\":801:821   */\n      calldataload\n        /* \"#utility.yul\":839:918   */\n      tag_254\n        /* \"#utility.yul\":914:917   */\n      dup5\n        /* \"#utility.yul\":906:912   */\n      dup3\n        /* \"#utility.yul\":899:903   */\n      0x20\n        /* \"#utility.yul\":891:897   */\n      dup7\n        /* \"#utility.yul\":887:904   */\n      add\n        /* \"#utility.yul\":839:918   */\n      tag_234\n      jump\t// in\n    tag_254:\n        /* \"#utility.yul\":830:918   */\n      swap2\n      pop\n        /* \"#utility.yul\":646:924   */\n      pop\n        /* \"#utility.yul\":584:924   */\n      swap3\n      swap2\n      pop\n      pop\n      jump\t// out\n        /* \"#utility.yul\":930:1069   */\n    tag_255:\n        /* \"#utility.yul\":976:981   */\n      0x00\n        /* \"#utility.yul\":1014:1020   */\n      dup2\n        /* \"#utility.yul\":1001:1021   */\n      calldataload\n        /* \"#utility.yul\":992:1021   */\n      swap1\n      pop\n        /* \"#utility.yul\":1030:1063   */\n      tag_257\n        /* \"#utility.yul\":1057:1062   */\n      dup2\n        /* \"#utility.yul\":1030:1063   */\n      tag_258\n      jump\t// in\n    tag_257:\n        /* \"#utility.yul\":930:1069   */\n      swap3\n      swap2\n      pop\n      pop\n      jump\t// out\n        /* \"#utility.yul\":1075:1404   */\n    tag_21:\n        /* \"#utility.yul\":1134:1140   */\n      0x00\n        /* \"#utility.yul\":1183:1185   */\n      0x20\n        /* \"#utility.yul\":1171:1180   */\n      dup3\n        /* \"#utility.yul\":1162:1169   */\n      dup5\n        /* \"#utility.yul\":1158:1181   */\n      sub\n        /* \"#utility.yul\":1154:1186   */\n      slt\n        /* \"#utility.yul\":1151:1270   */\n      iszero\n      tag_260\n      jumpi\n        /* \"#utility.yul\":1189:1268   */\n      tag_261\n      tag_262\n      jump\t// in\n    tag_261:\n        /* \"#utility.yul\":1151:1270   */\n    tag_260:\n        /* \"#utility.yul\":1309:1310   */\n      0x00\n        /* \"#utility.yul\":1334:1387   */\n      tag_263\n        /* \"#utility.yul\":1379:1386   */\n      dup5\n        /* \"#utility.yul\":1370:1376   */\n      dup3\n        /* \"#utility.yul\":1359:1368   */\n      dup6\n        /* \"#utility.yul\":1355:1377   */\n      add\n        /* \"#utility.yul\":1334:1387   */\n      tag_245\n      jump\t// in\n    tag_263:\n        /* \"#utility.yul\":1324:1387   */\n      swap2\n      pop\n        /* \"#utility.yul\":1280:1397   */\n      pop\n        /* \"#utility.yul\":1075:1404   */\n      swap3\n      swap2\n      pop\n      pop\n      jump\t// out\n        /* \"#utility.yul\":1410:2569   */\n    tag_28:\n        /* \"#utility.yul\":1517:1523   */\n      0x00\n        /* \"#utility.yul\":1525:1531   */\n      dup1\n        /* \"#utility.yul\":1533:1539   */\n      0x00\n        /* \"#utility.yul\":1582:1584   */\n      0x60\n        /* \"#utility.yul\":1570:1579   */\n      dup5\n        /* \"#utility.yul\":1561:1568   */\n      dup7\n        /* \"#utility.yul\":1557:1580   */\n      sub\n        /* \"#utility.yul\":1553:1585   */\n      slt\n        /* \"#utility.yul\":1550:1669   */\n      iszero\n      tag_265\n      jumpi\n        /* \"#utility.yul\":1588:1667   */\n      tag_266\n      tag_262\n      jump\t// in\n    tag_266:\n        /* \"#utility.yul\":1550:1669   */\n    tag_265:\n        /* \"#utility.yul\":1736:1737   */\n      0x00\n        /* \"#utility.yul\":1725:1734   */\n      dup5\n        /* \"#utility.yul\":1721:1738   */\n      add\n        /* \"#utility.yul\":1708:1739   */\n      calldataload\n        /* \"#utility.yul\":1766:1784   */\n      0xffffffffffffffff\n        /* \"#utility.yul\":1758:1764   */\n      dup2\n        /* \"#utility.yul\":1755:1785   */\n      gt\n        /* \"#utility.yul\":1752:1869   */\n      iszero\n      tag_267\n      jumpi\n        /* \"#utility.yul\":1788:1867   */\n      tag_268\n      tag_269\n      jump\t// in\n    tag_268:\n        /* \"#utility.yul\":1752:1869   */\n    tag_267:\n        /* \"#utility.yul\":1893:1956   */\n      tag_270\n        /* \"#utility.yul\":1948:1955   */\n      dup7\n        /* \"#utility.yul\":1939:1945   */\n      dup3\n        /* \"#utility.yul\":1928:1937   */\n      dup8\n        /* \"#utility.yul\":1924:1946   */\n      add\n        /* \"#utility.yul\":1893:1956   */\n      tag_249\n      jump\t// in\n    tag_270:\n        /* \"#utility.yul\":1883:1956   */\n      swap4\n      pop\n        /* \"#utility.yul\":1679:1966   */\n      pop\n        /* \"#utility.yul\":2033:2035   */\n      0x20\n        /* \"#utility.yul\":2022:2031   */\n      dup5\n        /* \"#utility.yul\":2018:2036   */\n      add\n        /* \"#utility.yul\":2005:2037   */\n      calldataload\n        /* \"#utility.yul\":2064:2082   */\n      0xffffffffffffffff\n        /* \"#utility.yul\":2056:2062   */\n      dup2\n        /* \"#utility.yul\":2053:2083   */\n      gt\n        /* \"#utility.yul\":2050:2167   */\n      iszero\n      tag_271\n      jumpi\n        /* \"#utility.yul\":2086:2165   */\n      tag_272\n      tag_269\n      jump\t// in\n    tag_272:\n        /* \"#utility.yul\":2050:2167   */\n    tag_271:\n        /* \"#utility.yul\":2191:2254   */\n      tag_273\n        /* \"#utility.yul\":2246:2253   */\n      dup7\n        /* \"#utility.yul\":2237:2243   */\n      dup3\n        /* \"#utility.yul\":2226:2235   */\n      dup8\n        /* \"#utility.yul\":2222:2244   */\n      add\n        /* \"#utility.yul\":2191:2254   */\n      tag_249\n      jump\t// in\n    tag_273:\n        /* \"#utility.yul\":2181:2254   */\n      swap3\n      pop\n        /* \"#utility.yul\":1976:2264   */\n      pop\n        /* \"#utility.yul\":2331:2333   */\n      0x40\n        /* \"#utility.yul\":2320:2329   */\n      dup5\n        /* \"#utility.yul\":2316:2334   */\n      add\n        /* \"#utility.yul\":2303:2335   */\n      calldataload\n        /* \"#utility.yul\":2362:2380   */\n      0xffffffffffffffff\n        /* \"#utility.yul\":2354:2360   */\n      dup2\n        /* \"#utility.yul\":2351:2381   */\n      gt\n        /* \"#utility.yul\":2348:2465   */\n      iszero\n      tag_274\n      jumpi\n        /* \"#utility.yul\":2384:2463   */\n      tag_275\n      tag_269\n      jump\t// in\n    tag_275:\n        /* \"#utility.yul\":2348:2465   */\n    tag_274:\n        /* \"#utility.yul\":2489:2552   */\n      tag_276\n        /* \"#utility.yul\":2544:2551   */\n      dup7\n        /* \"#utility.yul\":2535:2541   */\n      dup3\n        /* \"#utility.yul\":2524:2533   */\n      dup8\n        /* \"#utility.yul\":2520:2542   */\n      add\n        /* \"#utility.yul\":2489:2552   */\n      tag_249\n      jump\t// in\n    tag_276:\n        /* \"#utility.yul\":2479:2552   */\n      swap2\n      pop\n        /* \"#utility.yul\":2274:2562   */\n      pop\n        /* \"#utility.yul\":1410:2569   */\n      swap3\n      pop\n      swap3\n      pop\n      swap3\n      jump\t// out\n        /* \"#utility.yul\":2575:2904   */\n    tag_38:\n        /* \"#utility.yul\":2634:2640   */\n      0x00\n        /* \"#utility.yul\":2683:2685   */\n      0x20\n        /* \"#utility.yul\":2671:2680   */\n      dup3\n        /* \"#utility.yul\":2662:2669   */\n      dup5\n        /* \"#utility.yul\":2658:2681   */\n      sub\n        /* \"#utility.yul\":2654:2686   */\n      slt\n        /* \"#utility.yul\":2651:2770   */\n      iszero\n      tag_278\n      jumpi\n        /* \"#utility.yul\":2689:2768   */\n      tag_279\n      tag_262\n      jump\t// in\n    tag_279:\n        /* \"#utility.yul\":2651:2770   */\n    tag_278:\n        /* \"#utility.yul\":2809:2810   */\n      0x00\n        /* \"#utility.yul\":2834:2887   */\n      tag_280\n        /* \"#utility.yul\":2879:2886   */\n      dup5\n        /* \"#utility.yul\":2870:2876   */\n      dup3\n        /* \"#utility.yul\":2859:2868   */\n      dup6\n        /* \"#utility.yul\":2855:2877   */\n      add\n        /* \"#utility.yul\":2834:2887   */\n      tag_255\n      jump\t// in\n    tag_280:\n        /* \"#utility.yul\":2824:2887   */\n      swap2\n      pop\n        /* \"#utility.yul\":2780:2897   */\n      pop\n        /* \"#utility.yul\":2575:2904   */\n      swap3\n      swap2\n      pop\n      pop\n      jump\t// out\n        /* \"#utility.yul\":2910:3028   */\n    tag_281:\n        /* \"#utility.yul\":2997:3021   */\n      tag_283\n        /* \"#utility.yul\":3015:3020   */\n      dup2\n        /* \"#utility.yul\":2997:3021   */\n      tag_284\n      jump\t// in\n    tag_283:\n        /* \"#utility.yul\":2992:2995   */\n      dup3\n        /* \"#utility.yul\":2985:3022   */\n      mstore\n        /* \"#utility.yul\":2910:3028   */\n      pop\n      pop\n      jump\t// out\n        /* \"#utility.yul\":3034:3398   */\n    tag_285:\n        /* \"#utility.yul\":3122:3125   */\n      0x00\n        /* \"#utility.yul\":3150:3189   */\n      tag_287\n        /* \"#utility.yul\":3183:3188   */\n      dup3\n        /* \"#utility.yul\":3150:3189   */\n      tag_288\n      jump\t// in\n    tag_287:\n        /* \"#utility.yul\":3205:3276   */\n      tag_289\n        /* \"#utility.yul\":3269:3275   */\n      dup2\n        /* \"#utility.yul\":3264:3267   */\n      dup6\n        /* \"#utility.yul\":3205:3276   */\n      tag_290\n      jump\t// in\n    tag_289:\n        /* \"#utility.yul\":3198:3276   */\n      swap4\n      pop\n        /* \"#utility.yul\":3285:3337   */\n      tag_291\n        /* \"#utility.yul\":3330:3336   */\n      dup2\n        /* \"#utility.yul\":3325:3328   */\n      dup6\n        /* \"#utility.yul\":3318:3322   */\n      0x20\n        /* \"#utility.yul\":3311:3316   */\n      dup7\n        /* \"#utility.yul\":3307:3323   */\n      add\n        /* \"#utility.yul\":3285:3337   */\n      tag_292\n      jump\t// in\n    tag_291:\n        /* \"#utility.yul\":3362:3391   */\n      tag_293\n        /* \"#utility.yul\":3384:3390   */\n      dup2\n        /* \"#utility.yul\":3362:3391   */\n      tag_294\n      jump\t// in\n    tag_293:\n        /* \"#utility.yul\":3357:3360   */\n      dup5\n        /* \"#utility.yul\":3353:3392   */\n      add\n        /* \"#utility.yul\":3346:3392   */\n      swap2\n      pop\n        /* \"#utility.yul\":3126:3398   */\n      pop\n        /* \"#utility.yul\":3034:3398   */\n      swap3\n      swap2\n      pop\n      pop\n      jump\t// out\n        /* \"#utility.yul\":3428:4230   */\n    tag_295:\n        /* \"#utility.yul\":3513:3516   */\n      0x00\n        /* \"#utility.yul\":3550:3555   */\n      dup2\n        /* \"#utility.yul\":3544:3556   */\n      sload\n        /* \"#utility.yul\":3579:3615   */\n      tag_297\n        /* \"#utility.yul\":3605:3614   */\n      dup2\n        /* \"#utility.yul\":3579:3615   */\n      tag_168\n      jump\t// in\n    tag_297:\n        /* \"#utility.yul\":3631:3702   */\n      tag_298\n        /* \"#utility.yul\":3695:3701   */\n      dup2\n        /* \"#utility.yul\":3690:3693   */\n      dup7\n        /* \"#utility.yul\":3631:3702   */\n      tag_290\n      jump\t// in\n    tag_298:\n        /* \"#utility.yul\":3624:3702   */\n      swap5\n      pop\n        /* \"#utility.yul\":3733:3734   */\n      0x01\n        /* \"#utility.yul\":3722:3731   */\n      dup3\n        /* \"#utility.yul\":3718:3735   */\n      and\n        /* \"#utility.yul\":3749:3750   */\n      0x00\n        /* \"#utility.yul\":3744:3879   */\n      dup2\n      eq\n      tag_300\n      jumpi\n        /* \"#utility.yul\":3893:3894   */\n      0x01\n        /* \"#utility.yul\":3888:4224   */\n      dup2\n      eq\n      tag_301\n      jumpi\n        /* \"#utility.yul\":3711:4224   */\n      jump(tag_299)\n        /* \"#utility.yul\":3744:3879   */\n    tag_300:\n        /* \"#utility.yul\":3828:3832   */\n      0xff\n        /* \"#utility.yul\":3824:3833   */\n      not\n        /* \"#utility.yul\":3813:3822   */\n      dup4\n        /* \"#utility.yul\":3809:3834   */\n      and\n        /* \"#utility.yul\":3804:3807   */\n      dup7\n        /* \"#utility.yul\":3797:3835   */\n      mstore\n        /* \"#utility.yul\":3864:3868   */\n      0x20\n        /* \"#utility.yul\":3859:3862   */\n      dup7\n        /* \"#utility.yul\":3855:3869   */\n      add\n        /* \"#utility.yul\":3848:3869   */\n      swap4\n      pop\n        /* \"#utility.yul\":3744:3879   */\n      jump(tag_299)\n        /* \"#utility.yul\":3888:4224   */\n    tag_301:\n        /* \"#utility.yul\":3955:3993   */\n      tag_302\n        /* \"#utility.yul\":3987:3992   */\n      dup6\n        /* \"#utility.yul\":3955:3993   */\n      tag_303\n      jump\t// in\n    tag_302:\n        /* \"#utility.yul\":4015:4016   */\n      0x00\n        /* \"#utility.yul\":4029:4183   */\n    tag_304:\n        /* \"#utility.yul\":4043:4049   */\n      dup4\n        /* \"#utility.yul\":4040:4041   */\n      dup2\n        /* \"#utility.yul\":4037:4050   */\n      lt\n        /* \"#utility.yul\":4029:4183   */\n      iszero\n      tag_306\n      jumpi\n        /* \"#utility.yul\":4117:4124   */\n      dup2\n        /* \"#utility.yul\":4111:4125   */\n      sload\n        /* \"#utility.yul\":4107:4108   */\n      dup2\n        /* \"#utility.yul\":4102:4105   */\n      dup10\n        /* \"#utility.yul\":4098:4109   */\n      add\n        /* \"#utility.yul\":4091:4126   */\n      mstore\n        /* \"#utility.yul\":4167:4168   */\n      0x01\n        /* \"#utility.yul\":4158:4165   */\n      dup3\n        /* \"#utility.yul\":4154:4169   */\n      add\n        /* \"#utility.yul\":4143:4169   */\n      swap2\n      pop\n        /* \"#utility.yul\":4065:4069   */\n      0x20\n        /* \"#utility.yul\":4062:4063   */\n      dup2\n        /* \"#utility.yul\":4058:4070   */\n      add\n        /* \"#utility.yul\":4053:4070   */\n      swap1\n      pop\n        /* \"#utility.yul\":4029:4183   */\n      jump(tag_304)\n    tag_306:\n        /* \"#utility.yul\":4212:4213   */\n      dup1\n        /* \"#utility.yul\":4207:4210   */\n      dup9\n        /* \"#utility.yul\":4203:4214   */\n      add\n        /* \"#utility.yul\":4196:4214   */\n      swap6\n      pop\n        /* \"#utility.yul\":3895:4224   */\n      pop\n      pop\n        /* \"#utility.yul\":3711:4224   */\n    tag_299:\n      pop\n        /* \"#utility.yul\":3517:4230   */\n      pop\n      pop\n        /* \"#utility.yul\":3428:4230   */\n      swap3\n      swap2\n      pop\n      pop\n      jump\t// out\n        /* \"#utility.yul\":4236:4602   */\n    tag_307:\n        /* \"#utility.yul\":4378:4381   */\n      0x00\n        /* \"#utility.yul\":4399:4466   */\n      tag_309\n        /* \"#utility.yul\":4463:4465   */\n      0x28\n        /* \"#utility.yul\":4458:4461   */\n      dup4\n        /* \"#utility.yul\":4399:4466   */\n      tag_290\n      jump\t// in\n    tag_309:\n        /* \"#utility.yul\":4392:4466   */\n      swap2\n      pop\n        /* \"#utility.yul\":4475:4568   */\n      tag_310\n        /* \"#utility.yul\":4564:4567   */\n      dup3\n        /* \"#utility.yul\":4475:4568   */\n      tag_311\n      jump\t// in\n    tag_310:\n        /* \"#utility.yul\":4593:4595   */\n      0x40\n        /* \"#utility.yul\":4588:4591   */\n      dup3\n        /* \"#utility.yul\":4584:4596   */\n      add\n        /* \"#utility.yul\":4577:4596   */\n      swap1\n      pop\n        /* \"#utility.yul\":4236:4602   */\n      swap2\n      swap1\n      pop\n      jump\t// out\n        /* \"#utility.yul\":4608:4974   */\n    tag_312:\n        /* \"#utility.yul\":4750:4753   */\n      0x00\n        /* \"#utility.yul\":4771:4838   */\n      tag_314\n        /* \"#utility.yul\":4835:4837   */\n      0x26\n        /* \"#utility.yul\":4830:4833   */\n      dup4\n        /* \"#utility.yul\":4771:4838   */\n      tag_290\n      jump\t// in\n    tag_314:\n        /* \"#utility.yul\":4764:4838   */\n      swap2\n      pop\n        /* \"#utility.yul\":4847:4940   */\n      tag_315\n        /* \"#utility.yul\":4936:4939   */\n      dup3\n        /* \"#utility.yul\":4847:4940   */\n      tag_316\n      jump\t// in\n    tag_315:\n        /* \"#utility.yul\":4965:4967   */\n      0x40\n        /* \"#utility.yul\":4960:4963   */\n      dup3\n        /* \"#utility.yul\":4956:4968   */\n      add\n        /* \"#utility.yul\":4949:4968   */\n      swap1\n      pop\n        /* \"#utility.yul\":4608:4974   */\n      swap2\n      swap1\n      pop\n      jump\t// out\n        /* \"#utility.yul\":4980:5346   */\n    tag_317:\n        /* \"#utility.yul\":5122:5125   */\n      0x00\n        /* \"#utility.yul\":5143:5210   */\n      tag_319\n        /* \"#utility.yul\":5207:5209   */\n      0x20\n        /* \"#utility.yul\":5202:5205   */\n      dup4\n        /* \"#utility.yul\":5143:5210   */\n      tag_290\n      jump\t// in\n    tag_319:\n        /* \"#utility.yul\":5136:5210   */\n      swap2\n      pop\n        /* \"#utility.yul\":5219:5312   */\n      tag_320\n        /* \"#utility.yul\":5308:5311   */\n      dup3\n        /* \"#utility.yul\":5219:5312   */\n      tag_321\n      jump\t// in\n    tag_320:\n        /* \"#utility.yul\":5337:5339   */\n      0x20\n        /* \"#utility.yul\":5332:5335   */\n      dup3\n        /* \"#utility.yul\":5328:5340   */\n      add\n        /* \"#utility.yul\":5321:5340   */\n      swap1\n      pop\n        /* \"#utility.yul\":4980:5346   */\n      swap2\n      swap1\n      pop\n      jump\t// out\n        /* \"#utility.yul\":5352:5718   */\n    tag_322:\n        /* \"#utility.yul\":5494:5497   */\n      0x00\n        /* \"#utility.yul\":5515:5582   */\n      tag_324\n        /* \"#utility.yul\":5579:5581   */\n      0x15\n        /* \"#utility.yul\":5574:5577   */\n      dup4\n        /* \"#utility.yul\":5515:5582   */\n      tag_290\n      jump\t// in\n    tag_324:\n        /* \"#utility.yul\":5508:5582   */\n      swap2\n      pop\n        /* \"#utility.yul\":5591:5684   */\n      tag_325\n        /* \"#utility.yul\":5680:5683   */\n      dup3\n        /* \"#utility.yul\":5591:5684   */\n      tag_326\n      jump\t// in\n    tag_325:\n        /* \"#utility.yul\":5709:5711   */\n      0x20\n        /* \"#utility.yul\":5704:5707   */\n      dup3\n        /* \"#utility.yul\":5700:5712   */\n      add\n        /* \"#utility.yul\":5693:5712   */\n      swap1\n      pop\n        /* \"#utility.yul\":5352:5718   */\n      swap2\n      swap1\n      pop\n      jump\t// out\n        /* \"#utility.yul\":5724:5842   */\n    tag_327:\n        /* \"#utility.yul\":5811:5835   */\n      tag_329\n        /* \"#utility.yul\":5829:5834   */\n      dup2\n        /* \"#utility.yul\":5811:5835   */\n      tag_330\n      jump\t// in\n    tag_329:\n        /* \"#utility.yul\":5806:5809   */\n      dup3\n        /* \"#utility.yul\":5799:5836   */\n      mstore\n        /* \"#utility.yul\":5724:5842   */\n      pop\n      pop\n      jump\t// out\n        /* \"#utility.yul\":5848:6005   */\n    tag_331:\n        /* \"#utility.yul\":5953:5998   */\n      tag_333\n        /* \"#utility.yul\":5973:5997   */\n      tag_334\n        /* \"#utility.yul\":5991:5996   */\n      dup3\n        /* \"#utility.yul\":5973:5997   */\n      tag_330\n      jump\t// in\n    tag_334:\n        /* \"#utility.yul\":5953:5998   */\n      tag_335\n      jump\t// in\n    tag_333:\n        /* \"#utility.yul\":5948:5951   */\n      dup3\n        /* \"#utility.yul\":5941:5999   */\n      mstore\n        /* \"#utility.yul\":5848:6005   */\n      pop\n      pop\n      jump\t// out\n        /* \"#utility.yul\":6011:6126   */\n    tag_336:\n        /* \"#utility.yul\":6096:6119   */\n      tag_338\n        /* \"#utility.yul\":6113:6118   */\n      dup2\n        /* \"#utility.yul\":6096:6119   */\n      tag_339\n      jump\t// in\n    tag_338:\n        /* \"#utility.yul\":6091:6094   */\n      dup3\n        /* \"#utility.yul\":6084:6120   */\n      mstore\n        /* \"#utility.yul\":6011:6126   */\n      pop\n      pop\n      jump\t// out\n        /* \"#utility.yul\":6132:6670   */\n    tag_119:\n        /* \"#utility.yul\":6300:6303   */\n      0x00\n        /* \"#utility.yul\":6315:6390   */\n      tag_341\n        /* \"#utility.yul\":6386:6389   */\n      dup3\n        /* \"#utility.yul\":6377:6383   */\n      dup7\n        /* \"#utility.yul\":6315:6390   */\n      tag_331\n      jump\t// in\n    tag_341:\n        /* \"#utility.yul\":6415:6417   */\n      0x20\n        /* \"#utility.yul\":6410:6413   */\n      dup3\n        /* \"#utility.yul\":6406:6418   */\n      add\n        /* \"#utility.yul\":6399:6418   */\n      swap2\n      pop\n        /* \"#utility.yul\":6428:6503   */\n      tag_342\n        /* \"#utility.yul\":6499:6502   */\n      dup3\n        /* \"#utility.yul\":6490:6496   */\n      dup6\n        /* \"#utility.yul\":6428:6503   */\n      tag_331\n      jump\t// in\n    tag_342:\n        /* \"#utility.yul\":6528:6530   */\n      0x20\n        /* \"#utility.yul\":6523:6526   */\n      dup3\n        /* \"#utility.yul\":6519:6531   */\n      add\n        /* \"#utility.yul\":6512:6531   */\n      swap2\n      pop\n        /* \"#utility.yul\":6541:6616   */\n      tag_343\n        /* \"#utility.yul\":6612:6615   */\n      dup3\n        /* \"#utility.yul\":6603:6609   */\n      dup5\n        /* \"#utility.yul\":6541:6616   */\n      tag_331\n      jump\t// in\n    tag_343:\n        /* \"#utility.yul\":6641:6643   */\n      0x20\n        /* \"#utility.yul\":6636:6639   */\n      dup3\n        /* \"#utility.yul\":6632:6644   */\n      add\n        /* \"#utility.yul\":6625:6644   */\n      swap2\n      pop\n        /* \"#utility.yul\":6661:6664   */\n      dup2\n        /* \"#utility.yul\":6654:6664   */\n      swap1\n      pop\n        /* \"#utility.yul\":6132:6670   */\n      swap5\n      swap4\n      pop\n      pop\n      pop\n      pop\n      jump\t// out\n        /* \"#utility.yul\":6676:6898   */\n    tag_49:\n        /* \"#utility.yul\":6769:6773   */\n      0x00\n        /* \"#utility.yul\":6807:6809   */\n      0x20\n        /* \"#utility.yul\":6796:6805   */\n      dup3\n        /* \"#utility.yul\":6792:6810   */\n      add\n        /* \"#utility.yul\":6784:6810   */\n      swap1\n      pop\n        /* \"#utility.yul\":6820:6891   */\n      tag_345\n        /* \"#utility.yul\":6888:6889   */\n      0x00\n        /* \"#utility.yul\":6877:6886   */\n      dup4\n        /* \"#utility.yul\":6873:6890   */\n      add\n        /* \"#utility.yul\":6864:6870   */\n      dup5\n        /* \"#utility.yul\":6820:6891   */\n      tag_281\n      jump\t// in\n    tag_345:\n        /* \"#utility.yul\":6676:6898   */\n      swap3\n      swap2\n      pop\n      pop\n      jump\t// out\n        /* \"#utility.yul\":6904:8170   */\n    tag_63:\n        /* \"#utility.yul\":7251:7255   */\n      0x00\n        /* \"#utility.yul\":7289:7292   */\n      0x0100\n        /* \"#utility.yul\":7278:7287   */\n      dup3\n        /* \"#utility.yul\":7274:7293   */\n      add\n        /* \"#utility.yul\":7266:7293   */\n      swap1\n      pop\n        /* \"#utility.yul\":7303:7374   */\n      tag_347\n        /* \"#utility.yul\":7371:7372   */\n      0x00\n        /* \"#utility.yul\":7360:7369   */\n      dup4\n        /* \"#utility.yul\":7356:7373   */\n      add\n        /* \"#utility.yul\":7347:7353   */\n      dup12\n        /* \"#utility.yul\":7303:7374   */\n      tag_281\n      jump\t// in\n    tag_347:\n        /* \"#utility.yul\":7421:7430   */\n      dup2\n        /* \"#utility.yul\":7415:7419   */\n      dup2\n        /* \"#utility.yul\":7411:7431   */\n      sub\n        /* \"#utility.yul\":7406:7408   */\n      0x20\n        /* \"#utility.yul\":7395:7404   */\n      dup4\n        /* \"#utility.yul\":7391:7409   */\n      add\n        /* \"#utility.yul\":7384:7432   */\n      mstore\n        /* \"#utility.yul\":7449:7527   */\n      tag_348\n        /* \"#utility.yul\":7522:7526   */\n      dup2\n        /* \"#utility.yul\":7513:7519   */\n      dup11\n        /* \"#utility.yul\":7449:7527   */\n      tag_285\n      jump\t// in\n    tag_348:\n        /* \"#utility.yul\":7441:7527   */\n      swap1\n      pop\n        /* \"#utility.yul\":7574:7583   */\n      dup2\n        /* \"#utility.yul\":7568:7572   */\n      dup2\n        /* \"#utility.yul\":7564:7584   */\n      sub\n        /* \"#utility.yul\":7559:7561   */\n      0x40\n        /* \"#utility.yul\":7548:7557   */\n      dup4\n        /* \"#utility.yul\":7544:7562   */\n      add\n        /* \"#utility.yul\":7537:7585   */\n      mstore\n        /* \"#utility.yul\":7602:7680   */\n      tag_349\n        /* \"#utility.yul\":7675:7679   */\n      dup2\n        /* \"#utility.yul\":7666:7672   */\n      dup10\n        /* \"#utility.yul\":7602:7680   */\n      tag_285\n      jump\t// in\n    tag_349:\n        /* \"#utility.yul\":7594:7680   */\n      swap1\n      pop\n        /* \"#utility.yul\":7727:7736   */\n      dup2\n        /* \"#utility.yul\":7721:7725   */\n      dup2\n        /* \"#utility.yul\":7717:7737   */\n      sub\n        /* \"#utility.yul\":7712:7714   */\n      0x60\n        /* \"#utility.yul\":7701:7710   */\n      dup4\n        /* \"#utility.yul\":7697:7715   */\n      add\n        /* \"#utility.yul\":7690:7738   */\n      mstore\n        /* \"#utility.yul\":7755:7833   */\n      tag_350\n        /* \"#utility.yul\":7828:7832   */\n      dup2\n        /* \"#utility.yul\":7819:7825   */\n      dup9\n        /* \"#utility.yul\":7755:7833   */\n      tag_285\n      jump\t// in\n    tag_350:\n        /* \"#utility.yul\":7747:7833   */\n      swap1\n      pop\n        /* \"#utility.yul\":7843:7916   */\n      tag_351\n        /* \"#utility.yul\":7911:7914   */\n      0x80\n        /* \"#utility.yul\":7900:7909   */\n      dup4\n        /* \"#utility.yul\":7896:7915   */\n      add\n        /* \"#utility.yul\":7887:7893   */\n      dup8\n        /* \"#utility.yul\":7843:7916   */\n      tag_327\n      jump\t// in\n    tag_351:\n        /* \"#utility.yul\":7926:7999   */\n      tag_352\n        /* \"#utility.yul\":7994:7997   */\n      0xa0\n        /* \"#utility.yul\":7983:7992   */\n      dup4\n        /* \"#utility.yul\":7979:7998   */\n      add\n        /* \"#utility.yul\":7970:7976   */\n      dup7\n        /* \"#utility.yul\":7926:7999   */\n      tag_327\n      jump\t// in\n    tag_352:\n        /* \"#utility.yul\":8009:8082   */\n      tag_353\n        /* \"#utility.yul\":8077:8080   */\n      0xc0\n        /* \"#utility.yul\":8066:8075   */\n      dup4\n        /* \"#utility.yul\":8062:8081   */\n      add\n        /* \"#utility.yul\":8053:8059   */\n      dup6\n        /* \"#utility.yul\":8009:8082   */\n      tag_327\n      jump\t// in\n    tag_353:\n        /* \"#utility.yul\":8092:8163   */\n      tag_354\n        /* \"#utility.yul\":8158:8161   */\n      0xe0\n        /* \"#utility.yul\":8147:8156   */\n      dup4\n        /* \"#utility.yul\":8143:8162   */\n      add\n        /* \"#utility.yul\":8134:8140   */\n      dup5\n        /* \"#utility.yul\":8092:8163   */\n      tag_336\n      jump\t// in\n    tag_354:\n        /* \"#utility.yul\":6904:8170   */\n      swap10\n      swap9\n      pop\n      pop\n      pop\n      pop\n      pop\n      pop\n      pop\n      pop\n      pop\n      jump\t// out\n        /* \"#utility.yul\":8176:8489   */\n    tag_35:\n        /* \"#utility.yul\":8289:8293   */\n      0x00\n        /* \"#utility.yul\":8327:8329   */\n      0x20\n        /* \"#utility.yul\":8316:8325   */\n      dup3\n        /* \"#utility.yul\":8312:8330   */\n      add\n        /* \"#utility.yul\":8304:8330   */\n      swap1\n      pop\n        /* \"#utility.yul\":8376:8385   */\n      dup2\n        /* \"#utility.yul\":8370:8374   */\n      dup2\n        /* \"#utility.yul\":8366:8386   */\n      sub\n        /* \"#utility.yul\":8362:8363   */\n      0x00\n        /* \"#utility.yul\":8351:8360   */\n      dup4\n        /* \"#utility.yul\":8347:8364   */\n      add\n        /* \"#utility.yul\":8340:8387   */\n      mstore\n        /* \"#utility.yul\":8404:8482   */\n      tag_356\n        /* \"#utility.yul\":8477:8481   */\n      dup2\n        /* \"#utility.yul\":8468:8474   */\n      dup5\n        /* \"#utility.yul\":8404:8482   */\n      tag_285\n      jump\t// in\n    tag_356:\n        /* \"#utility.yul\":8396:8482   */\n      swap1\n      pop\n        /* \"#utility.yul\":8176:8489   */\n      swap3\n      swap2\n      pop\n      pop\n      jump\t// out\n        /* \"#utility.yul\":8495:9214   */\n    tag_204:\n        /* \"#utility.yul\":8704:8708   */\n      0x00\n        /* \"#utility.yul\":8742:8745   */\n      0x80\n        /* \"#utility.yul\":8731:8740   */\n      dup3\n        /* \"#utility.yul\":8727:8746   */\n      add\n        /* \"#utility.yul\":8719:8746   */\n      swap1\n      pop\n        /* \"#utility.yul\":8792:8801   */\n      dup2\n        /* \"#utility.yul\":8786:8790   */\n      dup2\n        /* \"#utility.yul\":8782:8802   */\n      sub\n        /* \"#utility.yul\":8778:8779   */\n      0x00\n        /* \"#utility.yul\":8767:8776   */\n      dup4\n        /* \"#utility.yul\":8763:8780   */\n      add\n        /* \"#utility.yul\":8756:8803   */\n      mstore\n        /* \"#utility.yul\":8820:8895   */\n      tag_358\n        /* \"#utility.yul\":8890:8894   */\n      dup2\n        /* \"#utility.yul\":8881:8887   */\n      dup8\n        /* \"#utility.yul\":8820:8895   */\n      tag_295\n      jump\t// in\n    tag_358:\n        /* \"#utility.yul\":8812:8895   */\n      swap1\n      pop\n        /* \"#utility.yul\":8942:8951   */\n      dup2\n        /* \"#utility.yul\":8936:8940   */\n      dup2\n        /* \"#utility.yul\":8932:8952   */\n      sub\n        /* \"#utility.yul\":8927:8929   */\n      0x20\n        /* \"#utility.yul\":8916:8925   */\n      dup4\n        /* \"#utility.yul\":8912:8930   */\n      add\n        /* \"#utility.yul\":8905:8953   */\n      mstore\n        /* \"#utility.yul\":8970:9045   */\n      tag_359\n        /* \"#utility.yul\":9040:9044   */\n      dup2\n        /* \"#utility.yul\":9031:9037   */\n      dup7\n        /* \"#utility.yul\":8970:9045   */\n      tag_295\n      jump\t// in\n    tag_359:\n        /* \"#utility.yul\":8962:9045   */\n      swap1\n      pop\n        /* \"#utility.yul\":9055:9125   */\n      tag_360\n        /* \"#utility.yul\":9121:9123   */\n      0x40\n        /* \"#utility.yul\":9110:9119   */\n      dup4\n        /* \"#utility.yul\":9106:9124   */\n      add\n        /* \"#utility.yul\":9097:9103   */\n      dup6\n        /* \"#utility.yul\":9055:9125   */\n      tag_336\n      jump\t// in\n    tag_360:\n        /* \"#utility.yul\":9135:9207   */\n      tag_361\n        /* \"#utility.yul\":9203:9205   */\n      0x60\n        /* \"#utility.yul\":9192:9201   */\n      dup4\n        /* \"#utility.yul\":9188:9206   */\n      add\n        /* \"#utility.yul\":9179:9185   */\n      dup5\n        /* \"#utility.yul\":9135:9207   */\n      tag_327\n      jump\t// in\n    tag_361:\n        /* \"#utility.yul\":8495:9214   */\n      swap6\n      swap5\n      pop\n      pop\n      pop\n      pop\n      pop\n      jump\t// out\n        /* \"#utility.yul\":9220:9639   */\n    tag_85:\n        /* \"#utility.yul\":9386:9390   */\n      0x00\n        /* \"#utility.yul\":9424:9426   */\n      0x20\n        /* \"#utility.yul\":9413:9422   */\n      dup3\n        /* \"#utility.yul\":9409:9427   */\n      add\n        /* \"#utility.yul\":9401:9427   */\n      swap1\n      pop\n        /* \"#utility.yul\":9473:9482   */\n      dup2\n        /* \"#utility.yul\":9467:9471   */\n      dup2\n        /* \"#utility.yul\":9463:9483   */\n      sub\n        /* \"#utility.yul\":9459:9460   */\n      0x00\n        /* \"#utility.yul\":9448:9457   */\n      dup4\n        /* \"#utility.yul\":9444:9461   */\n      add\n        /* \"#utility.yul\":9437:9484   */\n      mstore\n        /* \"#utility.yul\":9501:9632   */\n      tag_363\n        /* \"#utility.yul\":9627:9631   */\n      dup2\n        /* \"#utility.yul\":9501:9632   */\n      tag_307\n      jump\t// in\n    tag_363:\n        /* \"#utility.yul\":9493:9632   */\n      swap1\n      pop\n        /* \"#utility.yul\":9220:9639   */\n      swap2\n      swap1\n      pop\n      jump\t// out\n        /* \"#utility.yul\":9645:10064   */\n    tag_214:\n        /* \"#utility.yul\":9811:9815   */\n      0x00\n        /* \"#utility.yul\":9849:9851   */\n      0x20\n        /* \"#utility.yul\":9838:9847   */\n      dup3\n        /* \"#utility.yul\":9834:9852   */\n      add\n        /* \"#utility.yul\":9826:9852   */\n      swap1\n      pop\n        /* \"#utility.yul\":9898:9907   */\n      dup2\n        /* \"#utility.yul\":9892:9896   */\n      dup2\n        /* \"#utility.yul\":9888:9908   */\n      sub\n        /* \"#utility.yul\":9884:9885   */\n      0x00\n        /* \"#utility.yul\":9873:9882   */\n      dup4\n        /* \"#utility.yul\":9869:9886   */\n      add\n        /* \"#utility.yul\":9862:9909   */\n      mstore\n        /* \"#utility.yul\":9926:10057   */\n      tag_365\n        /* \"#utility.yul\":10052:10056   */\n      dup2\n        /* \"#utility.yul\":9926:10057   */\n      tag_312\n      jump\t// in\n    tag_365:\n        /* \"#utility.yul\":9918:10057   */\n      swap1\n      pop\n        /* \"#utility.yul\":9645:10064   */\n      swap2\n      swap1\n      pop\n      jump\t// out\n        /* \"#utility.yul\":10070:10489   */\n    tag_78:\n        /* \"#utility.yul\":10236:10240   */\n      0x00\n        /* \"#utility.yul\":10274:10276   */\n      0x20\n        /* \"#utility.yul\":10263:10272   */\n      dup3\n        /* \"#utility.yul\":10259:10277   */\n      add\n        /* \"#utility.yul\":10251:10277   */\n      swap1\n      pop\n        /* \"#utility.yul\":10323:10332   */\n      dup2\n        /* \"#utility.yul\":10317:10321   */\n      dup2\n        /* \"#utility.yul\":10313:10333   */\n      sub\n        /* \"#utility.yul\":10309:10310   */\n      0x00\n        /* \"#utility.yul\":10298:10307   */\n      dup4\n        /* \"#utility.yul\":10294:10311   */\n      add\n        /* \"#utility.yul\":10287:10334   */\n      mstore\n        /* \"#utility.yul\":10351:10482   */\n      tag_367\n        /* \"#utility.yul\":10477:10481   */\n      dup2\n        /* \"#utility.yul\":10351:10482   */\n      tag_317\n      jump\t// in\n    tag_367:\n        /* \"#utility.yul\":10343:10482   */\n      swap1\n      pop\n        /* \"#utility.yul\":10070:10489   */\n      swap2\n      swap1\n      pop\n      jump\t// out\n        /* \"#utility.yul\":10495:11024   */\n    tag_145:\n        /* \"#utility.yul\":10689:10693   */\n      0x00\n        /* \"#utility.yul\":10727:10729   */\n      0x40\n        /* \"#utility.yul\":10716:10725   */\n      dup3\n        /* \"#utility.yul\":10712:10730   */\n      add\n        /* \"#utility.yul\":10704:10730   */\n      swap1\n      pop\n        /* \"#utility.yul\":10776:10785   */\n      dup2\n        /* \"#utility.yul\":10770:10774   */\n      dup2\n        /* \"#utility.yul\":10766:10786   */\n      sub\n        /* \"#utility.yul\":10762:10763   */\n      0x00\n        /* \"#utility.yul\":10751:10760   */\n      dup4\n        /* \"#utility.yul\":10747:10764   */\n      add\n        /* \"#utility.yul\":10740:10787   */\n      mstore\n        /* \"#utility.yul\":10804:10935   */\n      tag_369\n        /* \"#utility.yul\":10930:10934   */\n      dup2\n        /* \"#utility.yul\":10804:10935   */\n      tag_322\n      jump\t// in\n    tag_369:\n        /* \"#utility.yul\":10796:10935   */\n      swap1\n      pop\n        /* \"#utility.yul\":10945:11017   */\n      tag_370\n        /* \"#utility.yul\":11013:11015   */\n      0x20\n        /* \"#utility.yul\":11002:11011   */\n      dup4\n        /* \"#utility.yul\":10998:11016   */\n      add\n        /* \"#utility.yul\":10989:10995   */\n      dup5\n        /* \"#utility.yul\":10945:11017   */\n      tag_327\n      jump\t// in\n    tag_370:\n        /* \"#utility.yul\":10495:11024   */\n      swap3\n      swap2\n      pop\n      pop\n      jump\t// out\n        /* \"#utility.yul\":11030:11252   */\n    tag_24:\n        /* \"#utility.yul\":11123:11127   */\n      0x00\n        /* \"#utility.yul\":11161:11163   */\n      0x20\n        /* \"#utility.yul\":11150:11159   */\n      dup3\n        /* \"#utility.yul\":11146:11164   */\n      add\n        /* \"#utility.yul\":11138:11164   */\n      swap1\n      pop\n        /* \"#utility.yul\":11174:11245   */\n      tag_372\n        /* \"#utility.yul\":11242:11243   */\n      0x00\n        /* \"#utility.yul\":11231:11240   */\n      dup4\n        /* \"#utility.yul\":11227:11244   */\n      add\n        /* \"#utility.yul\":11218:11224   */\n      dup5\n        /* \"#utility.yul\":11174:11245   */\n      tag_327\n      jump\t// in\n    tag_372:\n        /* \"#utility.yul\":11030:11252   */\n      swap3\n      swap2\n      pop\n      pop\n      jump\t// out\n        /* \"#utility.yul\":11258:11387   */\n    tag_239:\n        /* \"#utility.yul\":11292:11298   */\n      0x00\n        /* \"#utility.yul\":11319:11339   */\n      tag_374\n      tag_375\n      jump\t// in\n    tag_374:\n        /* \"#utility.yul\":11309:11339   */\n      swap1\n      pop\n        /* \"#utility.yul\":11348:11381   */\n      tag_376\n        /* \"#utility.yul\":11376:11380   */\n      dup3\n        /* \"#utility.yul\":11368:11374   */\n      dup3\n        /* \"#utility.yul\":11348:11381   */\n      tag_377\n      jump\t// in\n    tag_376:\n        /* \"#utility.yul\":11258:11387   */\n      swap2\n      swap1\n      pop\n      jump\t// out\n        /* \"#utility.yul\":11393:11468   */\n    tag_375:\n        /* \"#utility.yul\":11426:11432   */\n      0x00\n        /* \"#utility.yul\":11459:11461   */\n      0x40\n        /* \"#utility.yul\":11453:11462   */\n      mload\n        /* \"#utility.yul\":11443:11462   */\n      swap1\n      pop\n        /* \"#utility.yul\":11393:11468   */\n      swap1\n      jump\t// out\n        /* \"#utility.yul\":11474:11782   */\n    tag_238:\n        /* \"#utility.yul\":11536:11540   */\n      0x00\n        /* \"#utility.yul\":11626:11644   */\n      0xffffffffffffffff\n        /* \"#utility.yul\":11618:11624   */\n      dup3\n        /* \"#utility.yul\":11615:11645   */\n      gt\n        /* \"#utility.yul\":11612:11668   */\n      iszero\n      tag_380\n      jumpi\n        /* \"#utility.yul\":11648:11666   */\n      tag_381\n      tag_382\n      jump\t// in\n    tag_381:\n        /* \"#utility.yul\":11612:11668   */\n    tag_380:\n        /* \"#utility.yul\":11686:11715   */\n      tag_383\n        /* \"#utility.yul\":11708:11714   */\n      dup3\n        /* \"#utility.yul\":11686:11715   */\n      tag_294\n      jump\t// in\n    tag_383:\n        /* \"#utility.yul\":11678:11715   */\n      swap1\n      pop\n        /* \"#utility.yul\":11770:11774   */\n      0x20\n        /* \"#utility.yul\":11764:11768   */\n      dup2\n        /* \"#utility.yul\":11760:11775   */\n      add\n        /* \"#utility.yul\":11752:11775   */\n      swap1\n      pop\n        /* \"#utility.yul\":11474:11782   */\n      swap2\n      swap1\n      pop\n      jump\t// out\n        /* \"#utility.yul\":11788:11929   */\n    tag_303:\n        /* \"#utility.yul\":11837:11841   */\n      0x00\n        /* \"#utility.yul\":11860:11863   */\n      dup2\n        /* \"#utility.yul\":11852:11863   */\n      swap1\n      pop\n        /* \"#utility.yul\":11883:11886   */\n      dup2\n        /* \"#utility.yul\":11880:11881   */\n      0x00\n        /* \"#utility.yul\":11873:11887   */\n      mstore\n        /* \"#utility.yul\":11917:11921   */\n      0x20\n        /* \"#utility.yul\":11914:11915   */\n      0x00\n        /* \"#utility.yul\":11904:11922   */\n      keccak256\n        /* \"#utility.yul\":11896:11922   */\n      swap1\n      pop\n        /* \"#utility.yul\":11788:11929   */\n      swap2\n      swap1\n      pop\n      jump\t// out\n        /* \"#utility.yul\":11935:12034   */\n    tag_288:\n        /* \"#utility.yul\":11987:11993   */\n      0x00\n        /* \"#utility.yul\":12021:12026   */\n      dup2\n        /* \"#utility.yul\":12015:12027   */\n      mload\n        /* \"#utility.yul\":12005:12027   */\n      swap1\n      pop\n        /* \"#utility.yul\":11935:12034   */\n      swap2\n      swap1\n      pop\n      jump\t// out\n        /* \"#utility.yul\":12040:12209   */\n    tag_290:\n        /* \"#utility.yul\":12124:12135   */\n      0x00\n        /* \"#utility.yul\":12158:12164   */\n      dup3\n        /* \"#utility.yul\":12153:12156   */\n      dup3\n        /* \"#utility.yul\":12146:12165   */\n      mstore\n        /* \"#utility.yul\":12198:12202   */\n      0x20\n        /* \"#utility.yul\":12193:12196   */\n      dup3\n        /* \"#utility.yul\":12189:12203   */\n      add\n        /* \"#utility.yul\":12174:12203   */\n      swap1\n      pop\n        /* \"#utility.yul\":12040:12209   */\n      swap3\n      swap2\n      pop\n      pop\n      jump\t// out\n        /* \"#utility.yul\":12215:12520   */\n    tag_88:\n        /* \"#utility.yul\":12255:12258   */\n      0x00\n        /* \"#utility.yul\":12274:12294   */\n      tag_388\n        /* \"#utility.yul\":12292:12293   */\n      dup3\n        /* \"#utility.yul\":12274:12294   */\n      tag_330\n      jump\t// in\n    tag_388:\n        /* \"#utility.yul\":12269:12294   */\n      swap2\n      pop\n        /* \"#utility.yul\":12308:12328   */\n      tag_389\n        /* \"#utility.yul\":12326:12327   */\n      dup4\n        /* \"#utility.yul\":12308:12328   */\n      tag_330\n      jump\t// in\n    tag_389:\n        /* \"#utility.yul\":12303:12328   */\n      swap3\n      pop\n        /* \"#utility.yul\":12462:12463   */\n      dup3\n        /* \"#utility.yul\":12394:12460   */\n      0xffffffffffffffffffffffffffffffffffffffffffffffffffffffffffffffff\n        /* \"#utility.yul\":12390:12464   */\n      sub\n        /* \"#utility.yul\":12387:12388   */\n      dup3\n        /* \"#utility.yul\":12384:12465   */\n      gt\n        /* \"#utility.yul\":12381:12488   */\n      iszero\n      tag_390\n      jumpi\n        /* \"#utility.yul\":12468:12486   */\n      tag_391\n      tag_392\n      jump\t// in\n    tag_391:\n        /* \"#utility.yul\":12381:12488   */\n    tag_390:\n        /* \"#utility.yul\":12512:12513   */\n      dup3\n        /* \"#utility.yul\":12509:12510   */\n      dup3\n        /* \"#utility.yul\":12505:12514   */\n      add\n        /* \"#utility.yul\":12498:12514   */\n      swap1\n      pop\n        /* \"#utility.yul\":12215:12520   */\n      swap3\n      swap2\n      pop\n      pop\n      jump\t// out\n        /* \"#utility.yul\":12526:12717   */\n    tag_98:\n        /* \"#utility.yul\":12566:12570   */\n      0x00\n        /* \"#utility.yul\":12586:12606   */\n      tag_394\n        /* \"#utility.yul\":12604:12605   */\n      dup3\n        /* \"#utility.yul\":12586:12606   */\n      tag_330\n      jump\t// in\n    tag_394:\n        /* \"#utility.yul\":12581:12606   */\n      swap2\n      pop\n        /* \"#utility.yul\":12620:12640   */\n      tag_395\n        /* \"#utility.yul\":12638:12639   */\n      dup4\n        /* \"#utility.yul\":12620:12640   */\n      tag_330\n      jump\t// in\n    tag_395:\n        /* \"#utility.yul\":12615:12640   */\n      swap3\n      pop\n        /* \"#utility.yul\":12659:12660   */\n      dup3\n        /* \"#utility.yul\":12656:12657   */\n      dup3\n        /* \"#utility.yul\":12653:12661   */\n      lt\n        /* \"#utility.yul\":12650:12684   */\n      iszero\n      tag_396\n      jumpi\n        /* \"#utility.yul\":12664:12682   */\n      tag_397\n      tag_392\n      jump\t// in\n    tag_397:\n        /* \"#utility.yul\":12650:12684   */\n    tag_396:\n        /* \"#utility.yul\":12709:12710   */\n      dup3\n        /* \"#utility.yul\":12706:12707   */\n      dup3\n        /* \"#utility.yul\":12702:12711   */\n      sub\n        /* \"#utility.yul\":12694:12711   */\n      swap1\n      pop\n        /* \"#utility.yul\":12526:12717   */\n      swap3\n      swap2\n      pop\n      pop\n      jump\t// out\n        /* \"#utility.yul\":12723:12819   */\n    tag_284:\n        /* \"#utility.yul\":12760:12767   */\n      0x00\n        /* \"#utility.yul\":12789:12813   */\n      tag_399\n        /* \"#utility.yul\":12807:12812   */\n      dup3\n        /* \"#utility.yul\":12789:12813   */\n      tag_400\n      jump\t// in\n    tag_399:\n        /* \"#utility.yul\":12778:12813   */\n      swap1\n      pop\n        /* \"#utility.yul\":12723:12819   */\n      swap2\n      swap1\n      pop\n      jump\t// out\n        /* \"#utility.yul\":12825:12951   */\n    tag_400:\n        /* \"#utility.yul\":12862:12869   */\n      0x00\n        /* \"#utility.yul\":12902:12944   */\n      0xffffffffffffffffffffffffffffffffffffffff\n        /* \"#utility.yul\":12895:12900   */\n      dup3\n        /* \"#utility.yul\":12891:12945   */\n      and\n        /* \"#utility.yul\":12880:12945   */\n      swap1\n      pop\n        /* \"#utility.yul\":12825:12951   */\n      swap2\n      swap1\n      pop\n      jump\t// out\n        /* \"#utility.yul\":12957:13034   */\n    tag_330:\n        /* \"#utility.yul\":12994:13001   */\n      0x00\n        /* \"#utility.yul\":13023:13028   */\n      dup2\n        /* \"#utility.yul\":13012:13028   */\n      swap1\n      pop\n        /* \"#utility.yul\":12957:13034   */\n      swap2\n      swap1\n      pop\n      jump\t// out\n        /* \"#utility.yul\":13040:13133   */\n    tag_339:\n        /* \"#utility.yul\":13076:13083   */\n      0x00\n        /* \"#utility.yul\":13116:13126   */\n      0xffffffff\n        /* \"#utility.yul\":13109:13114   */\n      dup3\n        /* \"#utility.yul\":13105:13127   */\n      and\n        /* \"#utility.yul\":13094:13127   */\n      swap1\n      pop\n        /* \"#utility.yul\":13040:13133   */\n      swap2\n      swap1\n      pop\n      jump\t// out\n        /* \"#utility.yul\":13139:13293   */\n    tag_244:\n        /* \"#utility.yul\":13223:13229   */\n      dup3\n        /* \"#utility.yul\":13218:13221   */\n      dup2\n        /* \"#utility.yul\":13213:13216   */\n      dup4\n        /* \"#utility.yul\":13200:13230   */\n      calldatacopy\n        /* \"#utility.yul\":13285:13286   */\n      0x00\n        /* \"#utility.yul\":13276:13282   */\n      dup4\n        /* \"#utility.yul\":13271:13274   */\n      dup4\n        /* \"#utility.yul\":13267:13283   */\n      add\n        /* \"#utility.yul\":13260:13287   */\n      mstore\n        /* \"#utility.yul\":13139:13293   */\n      pop\n      pop\n      pop\n      jump\t// out\n        /* \"#utility.yul\":13299:13606   */\n    tag_292:\n        /* \"#utility.yul\":13367:13368   */\n      0x00\n        /* \"#utility.yul\":13377:13490   */\n    tag_406:\n        /* \"#utility.yul\":13391:13397   */\n      dup4\n        /* \"#utility.yul\":13388:13389   */\n      dup2\n        /* \"#utility.yul\":13385:13398   */\n      lt\n        /* \"#utility.yul\":13377:13490   */\n      iszero\n      tag_408\n      jumpi\n        /* \"#utility.yul\":13476:13477   */\n      dup1\n        /* \"#utility.yul\":13471:13474   */\n      dup3\n        /* \"#utility.yul\":13467:13478   */\n      add\n        /* \"#utility.yul\":13461:13479   */\n      mload\n        /* \"#utility.yul\":13457:13458   */\n      dup2\n        /* \"#utility.yul\":13452:13455   */\n      dup5\n        /* \"#utility.yul\":13448:13459   */\n      add\n        /* \"#utility.yul\":13441:13480   */\n      mstore\n        /* \"#utility.yul\":13413:13415   */\n      0x20\n        /* \"#utility.yul\":13410:13411   */\n      dup2\n        /* \"#utility.yul\":13406:13416   */\n      add\n        /* \"#utility.yul\":13401:13416   */\n      swap1\n      pop\n        /* \"#utility.yul\":13377:13490   */\n      jump(tag_406)\n    tag_408:\n        /* \"#utility.yul\":13508:13514   */\n      dup4\n        /* \"#utility.yul\":13505:13506   */\n      dup2\n        /* \"#utility.yul\":13502:13515   */\n      gt\n        /* \"#utility.yul\":13499:13600   */\n      iszero\n      tag_409\n      jumpi\n        /* \"#utility.yul\":13588:13589   */\n      0x00\n        /* \"#utility.yul\":13579:13585   */\n      dup5\n        /* \"#utility.yul\":13574:13577   */\n      dup5\n        /* \"#utility.yul\":13570:13586   */\n      add\n        /* \"#utility.yul\":13563:13590   */\n      mstore\n        /* \"#utility.yul\":13499:13600   */\n    tag_409:\n        /* \"#utility.yul\":13348:13606   */\n      pop\n        /* \"#utility.yul\":13299:13606   */\n      pop\n      pop\n      pop\n      jump\t// out\n        /* \"#utility.yul\":13612:13932   */\n    tag_168:\n        /* \"#utility.yul\":13656:13662   */\n      0x00\n        /* \"#utility.yul\":13693:13694   */\n      0x02\n        /* \"#utility.yul\":13687:13691   */\n      dup3\n        /* \"#utility.yul\":13683:13695   */\n      div\n        /* \"#utility.yul\":13673:13695   */\n      swap1\n      pop\n        /* \"#utility.yul\":13740:13741   */\n      0x01\n        /* \"#utility.yul\":13734:13738   */\n      dup3\n        /* \"#utility.yul\":13730:13742   */\n      and\n        /* \"#utility.yul\":13761:13779   */\n      dup1\n        /* \"#utility.yul\":13751:13832   */\n      tag_411\n      jumpi\n        /* \"#utility.yul\":13817:13821   */\n      0x7f\n        /* \"#utility.yul\":13809:13815   */\n      dup3\n        /* \"#utility.yul\":13805:13822   */\n      and\n        /* \"#utility.yul\":13795:13822   */\n      swap2\n      pop\n        /* \"#utility.yul\":13751:13832   */\n    tag_411:\n        /* \"#utility.yul\":13879:13881   */\n      0x20\n        /* \"#utility.yul\":13871:13877   */\n      dup3\n        /* \"#utility.yul\":13868:13882   */\n      lt\n        /* \"#utility.yul\":13848:13866   */\n      dup2\n        /* \"#utility.yul\":13845:13883   */\n      eq\n        /* \"#utility.yul\":13842:13926   */\n      iszero\n      tag_412\n      jumpi\n        /* \"#utility.yul\":13898:13916   */\n      tag_413\n      tag_414\n      jump\t// in\n    tag_413:\n        /* \"#utility.yul\":13842:13926   */\n    tag_412:\n        /* \"#utility.yul\":13663:13932   */\n      pop\n        /* \"#utility.yul\":13612:13932   */\n      swap2\n      swap1\n      pop\n      jump\t// out\n        /* \"#utility.yul\":13938:14219   */\n    tag_377:\n        /* \"#utility.yul\":14021:14048   */\n      tag_416\n        /* \"#utility.yul\":14043:14047   */\n      dup3\n        /* \"#utility.yul\":14021:14048   */\n      tag_294\n      jump\t// in\n    tag_416:\n        /* \"#utility.yul\":14013:14019   */\n      dup2\n        /* \"#utility.yul\":14009:14049   */\n      add\n        /* \"#utility.yul\":14151:14157   */\n      dup2\n        /* \"#utility.yul\":14139:14149   */\n      dup2\n        /* \"#utility.yul\":14136:14158   */\n      lt\n        /* \"#utility.yul\":14115:14133   */\n      0xffffffffffffffff\n        /* \"#utility.yul\":14103:14113   */\n      dup3\n        /* \"#utility.yul\":14100:14134   */\n      gt\n        /* \"#utility.yul\":14097:14159   */\n      or\n        /* \"#utility.yul\":14094:14182   */\n      iszero\n      tag_417\n      jumpi\n        /* \"#utility.yul\":14162:14180   */\n      tag_418\n      tag_382\n      jump\t// in\n    tag_418:\n        /* \"#utility.yul\":14094:14182   */\n    tag_417:\n        /* \"#utility.yul\":14202:14212   */\n      dup1\n        /* \"#utility.yul\":14198:14200   */\n      0x40\n        /* \"#utility.yul\":14191:14213   */\n      mstore\n        /* \"#utility.yul\":13981:14219   */\n      pop\n        /* \"#utility.yul\":13938:14219   */\n      pop\n      pop\n      jump\t// out\n        /* \"#utility.yul\":14225:14458   */\n    tag_95:\n        /* \"#utility.yul\":14264:14267   */\n      0x00\n        /* \"#utility.yul\":14287:14311   */\n      tag_420\n        /* \"#utility.yul\":14305:14310   */\n      dup3\n        /* \"#utility.yul\":14287:14311   */\n      tag_330\n      jump\t// in\n    tag_420:\n        /* \"#utility.yul\":14278:14311   */\n      swap2\n      pop\n        /* \"#utility.yul\":14333:14399   */\n      0xffffffffffffffffffffffffffffffffffffffffffffffffffffffffffffffff\n        /* \"#utility.yul\":14326:14331   */\n      dup3\n        /* \"#utility.yul\":14323:14400   */\n      eq\n        /* \"#utility.yul\":14320:14423   */\n      iszero\n      tag_421\n      jumpi\n        /* \"#utility.yul\":14403:14421   */\n      tag_422\n      tag_392\n      jump\t// in\n    tag_422:\n        /* \"#utility.yul\":14320:14423   */\n    tag_421:\n        /* \"#utility.yul\":14450:14451   */\n      0x01\n        /* \"#utility.yul\":14443:14448   */\n      dup3\n        /* \"#utility.yul\":14439:14452   */\n      add\n        /* \"#utility.yul\":14432:14452   */\n      swap1\n      pop\n        /* \"#utility.yul\":14225:14458   */\n      swap2\n      swap1\n      pop\n      jump\t// out\n        /* \"#utility.yul\":14464:14639   */\n    tag_113:\n        /* \"#utility.yul\":14502:14505   */\n      0x00\n        /* \"#utility.yul\":14525:14548   */\n      tag_424\n        /* \"#utility.yul\":14542:14547   */\n      dup3\n        /* \"#utility.yul\":14525:14548   */\n      tag_339\n      jump\t// in\n    tag_424:\n        /* \"#utility.yul\":14516:14548   */\n      swap2\n      pop\n        /* \"#utility.yul\":14570:14580   */\n      0xffffffff\n        /* \"#utility.yul\":14563:14568   */\n      dup3\n        /* \"#utility.yul\":14560:14581   */\n      eq\n        /* \"#utility.yul\":14557:14604   */\n      iszero\n      tag_425\n      jumpi\n        /* \"#utility.yul\":14584:14602   */\n      tag_426\n      tag_392\n      jump\t// in\n    tag_426:\n        /* \"#utility.yul\":14557:14604   */\n    tag_425:\n        /* \"#utility.yul\":14631:14632   */\n      0x01\n        /* \"#utility.yul\":14624:14629   */\n      dup3\n        /* \"#utility.yul\":14620:14633   */\n      add\n        /* \"#utility.yul\":14613:14633   */\n      swap1\n      pop\n        /* \"#utility.yul\":14464:14639   */\n      swap2\n      swap1\n      pop\n      jump\t// out\n        /* \"#utility.yul\":14645:14724   */\n    tag_335:\n        /* \"#utility.yul\":14684:14691   */\n      0x00\n        /* \"#utility.yul\":14713:14718   */\n      dup2\n        /* \"#utility.yul\":14702:14718   */\n      swap1\n      pop\n        /* \"#utility.yul\":14645:14724   */\n      swap2\n      swap1\n      pop\n      jump\t// out\n        /* \"#utility.yul\":14730:14906   */\n    tag_121:\n        /* \"#utility.yul\":14762:14763   */\n      0x00\n        /* \"#utility.yul\":14779:14799   */\n      tag_429\n        /* \"#utility.yul\":14797:14798   */\n      dup3\n        /* \"#utility.yul\":14779:14799   */\n      tag_330\n      jump\t// in\n    tag_429:\n        /* \"#utility.yul\":14774:14799   */\n      swap2\n      pop\n        /* \"#utility.yul\":14813:14833   */\n      tag_430\n        /* \"#utility.yul\":14831:14832   */\n      dup4\n        /* \"#utility.yul\":14813:14833   */\n      tag_330\n      jump\t// in\n    tag_430:\n        /* \"#utility.yul\":14808:14833   */\n      swap3\n      pop\n        /* \"#utility.yul\":14852:14853   */\n      dup3\n        /* \"#utility.yul\":14842:14877   */\n      tag_431\n      jumpi\n        /* \"#utility.yul\":14857:14875   */\n      tag_432\n      tag_433\n      jump\t// in\n    tag_432:\n        /* \"#utility.yul\":14842:14877   */\n    tag_431:\n        /* \"#utility.yul\":14898:14899   */\n      dup3\n        /* \"#utility.yul\":14895:14896   */\n      dup3\n        /* \"#utility.yul\":14891:14900   */\n      mod\n        /* \"#utility.yul\":14886:14900   */\n      swap1\n      pop\n        /* \"#utility.yul\":14730:14906   */\n      swap3\n      swap2\n      pop\n      pop\n      jump\t// out\n        /* \"#utility.yul\":14912:15092   */\n    tag_392:\n        /* \"#utility.yul\":14960:15037   */\n      0x4e487b7100000000000000000000000000000000000000000000000000000000\n        /* \"#utility.yul\":14957:14958   */\n      0x00\n        /* \"#utility.yul\":14950:15038   */\n      mstore\n        /* \"#utility.yul\":15057:15061   */\n      0x11\n        /* \"#utility.yul\":15054:15055   */\n      0x04\n        /* \"#utility.yul\":15047:15062   */\n      mstore\n        /* \"#utility.yul\":15081:15085   */\n      0x24\n        /* \"#utility.yul\":15078:15079   */\n      0x00\n        /* \"#utility.yul\":15071:15086   */\n      revert\n        /* \"#utility.yul\":15098:15278   */\n    tag_433:\n        /* \"#utility.yul\":15146:15223   */\n      0x4e487b7100000000000000000000000000000000000000000000000000000000\n        /* \"#utility.yul\":15143:15144   */\n      0x00\n        /* \"#utility.yul\":15136:15224   */\n      mstore\n        /* \"#utility.yul\":15243:15247   */\n      0x12\n        /* \"#utility.yul\":15240:15241   */\n      0x04\n        /* \"#utility.yul\":15233:15248   */\n      mstore\n        /* \"#utility.yul\":15267:15271   */\n      0x24\n        /* \"#utility.yul\":15264:15265   */\n      0x00\n        /* \"#utility.yul\":15257:15272   */\n      revert\n        /* \"#utility.yul\":15284:15464   */\n    tag_414:\n        /* \"#utility.yul\":15332:15409   */\n      0x4e487b7100000000000000000000000000000000000000000000000000000000\n        /* \"#utility.yul\":15329:15330   */\n      0x00\n        /* \"#utility.yul\":15322:15410   */\n      mstore\n        /* \"#utility.yul\":15429:15433   */\n      0x22\n        /* \"#utility.yul\":15426:15427   */\n      0x04\n        /* \"#utility.yul\":15419:15434   */\n      mstore\n        /* \"#utility.yul\":15453:15457   */\n      0x24\n        /* \"#utility.yul\":15450:15451   */\n      0x00\n        /* \"#utility.yul\":15443:15458   */\n      revert\n        /* \"#utility.yul\":15470:15650   */\n    tag_106:\n        /* \"#utility.yul\":15518:15595   */\n      0x4e487b7100000000000000000000000000000000000000000000000000000000\n        /* \"#utility.yul\":15515:15516   */\n      0x00\n        /* \"#utility.yul\":15508:15596   */\n      mstore\n        /* \"#utility.yul\":15615:15619   */\n      0x32\n        /* \"#utility.yul\":15612:15613   */\n      0x04\n        /* \"#utility.yul\":15605:15620   */\n      mstore\n        /* \"#utility.yul\":15639:15643   */\n      0x24\n        /* \"#utility.yul\":15636:15637   */\n      0x00\n        /* \"#utility.yul\":15629:15644   */\n      revert\n        /* \"#utility.yul\":15656:15836   */\n    tag_382:\n        /* \"#utility.yul\":15704:15781   */\n      0x4e487b7100000000000000000000000000000000000000000000000000000000\n        /* \"#utility.yul\":15701:15702   */\n      0x00\n        /* \"#utility.yul\":15694:15782   */\n      mstore\n        /* \"#utility.yul\":15801:15805   */\n      0x41\n        /* \"#utility.yul\":15798:15799   */\n      0x04\n        /* \"#utility.yul\":15791:15806   */\n      mstore\n        /* \"#utility.yul\":15825:15829   */\n      0x24\n        /* \"#utility.yul\":15822:15823   */\n      0x00\n        /* \"#utility.yul\":15815:15830   */\n      revert\n        /* \"#utility.yul\":15842:15959   */\n    tag_253:\n        /* \"#utility.yul\":15951:15952   */\n      0x00\n        /* \"#utility.yul\":15948:15949   */\n      dup1\n        /* \"#utility.yul\":15941:15953   */\n      revert\n        /* \"#utility.yul\":15965:16082   */\n    tag_242:\n        /* \"#utility.yul\":16074:16075   */\n      0x00\n        /* \"#utility.yul\":16071:16072   */\n      dup1\n        /* \"#utility.yul\":16064:16076   */\n      revert\n        /* \"#utility.yul\":16088:16205   */\n    tag_269:\n        /* \"#utility.yul\":16197:16198   */\n      0x00\n        /* \"#utility.yul\":16194:16195   */\n      dup1\n        /* \"#utility.yul\":16187:16199   */\n      revert\n        /* \"#utility.yul\":16211:16328   */\n    tag_262:\n        /* \"#utility.yul\":16320:16321   */\n      0x00\n        /* \"#utility.yul\":16317:16318   */\n      dup1\n        /* \"#utility.yul\":16310:16322   */\n      revert\n        /* \"#utility.yul\":16334:16436   */\n    tag_294:\n        /* \"#utility.yul\":16375:16381   */\n      0x00\n        /* \"#utility.yul\":16426:16428   */\n      0x1f\n        /* \"#utility.yul\":16422:16429   */\n      not\n        /* \"#utility.yul\":16417:16419   */\n      0x1f\n        /* \"#utility.yul\":16410:16415   */\n      dup4\n        /* \"#utility.yul\":16406:16420   */\n      add\n        /* \"#utility.yul\":16402:16430   */\n      and\n        /* \"#utility.yul\":16392:16430   */\n      swap1\n      pop\n        /* \"#utility.yul\":16334:16436   */\n      swap2\n      swap1\n      pop\n      jump\t// out\n        /* \"#utility.yul\":16442:16669   */\n    tag_311:\n        /* \"#utility.yul\":16582:16616   */\n      0x536f6c6f2073652070756564652074656e657220756e20636f63686520706f72\n        /* \"#utility.yul\":16578:16579   */\n      0x00\n        /* \"#utility.yul\":16570:16576   */\n      dup3\n        /* \"#utility.yul\":16566:16580   */\n      add\n        /* \"#utility.yul\":16559:16617   */\n      mstore\n        /* \"#utility.yul\":16651:16661   */\n      0x20706572736f6e61000000000000000000000000000000000000000000000000\n        /* \"#utility.yul\":16646:16648   */\n      0x20\n        /* \"#utility.yul\":16638:16644   */\n      dup3\n        /* \"#utility.yul\":16634:16649   */\n      add\n        /* \"#utility.yul\":16627:16662   */\n      mstore\n        /* \"#utility.yul\":16442:16669   */\n      pop\n      jump\t// out\n        /* \"#utility.yul\":16675:16900   */\n    tag_316:\n        /* \"#utility.yul\":16815:16849   */\n      0x4f776e61626c653a206e6577206f776e657220697320746865207a65726f2061\n        /* \"#utility.yul\":16811:16812   */\n      0x00\n        /* \"#utility.yul\":16803:16809   */\n      dup3\n        /* \"#utility.yul\":16799:16813   */\n      add\n        /* \"#utility.yul\":16792:16850   */\n      mstore\n        /* \"#utility.yul\":16884:16892   */\n      0x6464726573730000000000000000000000000000000000000000000000000000\n        /* \"#utility.yul\":16879:16881   */\n      0x20\n        /* \"#utility.yul\":16871:16877   */\n      dup3\n        /* \"#utility.yul\":16867:16882   */\n      add\n        /* \"#utility.yul\":16860:16893   */\n      mstore\n        /* \"#utility.yul\":16675:16900   */\n      pop\n      jump\t// out\n        /* \"#utility.yul\":16906:17088   */\n    tag_321:\n        /* \"#utility.yul\":17046:17080   */\n      0x4f776e61626c653a2063616c6c6572206973206e6f7420746865206f776e6572\n        /* \"#utility.yul\":17042:17043   */\n      0x00\n        /* \"#utility.yul\":17034:17040   */\n      dup3\n        /* \"#utility.yul\":17030:17044   */\n      add\n        /* \"#utility.yul\":17023:17081   */\n      mstore\n        /* \"#utility.yul\":16906:17088   */\n      pop\n      jump\t// out\n        /* \"#utility.yul\":17094:17265   */\n    tag_326:\n        /* \"#utility.yul\":17234:17257   */\n      0x456c20636f6368652067616e61646f722065733a200000000000000000000000\n        /* \"#utility.yul\":17230:17231   */\n      0x00\n        /* \"#utility.yul\":17222:17228   */\n      dup3\n        /* \"#utility.yul\":17218:17232   */\n      add\n        /* \"#utility.yul\":17211:17258   */\n      mstore\n        /* \"#utility.yul\":17094:17265   */\n      pop\n      jump\t// out\n        /* \"#utility.yul\":17271:17393   */\n    tag_248:\n        /* \"#utility.yul\":17344:17368   */\n      tag_449\n        /* \"#utility.yul\":17362:17367   */\n      dup2\n        /* \"#utility.yul\":17344:17368   */\n      tag_284\n      jump\t// in\n    tag_449:\n        /* \"#utility.yul\":17337:17342   */\n      dup2\n        /* \"#utility.yul\":17334:17369   */\n      eq\n        /* \"#utility.yul\":17324:17387   */\n      tag_450\n      jumpi\n        /* \"#utility.yul\":17383:17384   */\n      0x00\n        /* \"#utility.yul\":17380:17381   */\n      dup1\n        /* \"#utility.yul\":17373:17385   */\n      revert\n        /* \"#utility.yul\":17324:17387   */\n    tag_450:\n        /* \"#utility.yul\":17271:17393   */\n      pop\n      jump\t// out\n        /* \"#utility.yul\":17399:17521   */\n    tag_258:\n        /* \"#utility.yul\":17472:17496   */\n      tag_452\n        /* \"#utility.yul\":17490:17495   */\n      dup2\n        /* \"#utility.yul\":17472:17496   */\n      tag_330\n      jump\t// in\n    tag_452:\n        /* \"#utility.yul\":17465:17470   */\n      dup2\n        /* \"#utility.yul\":17462:17497   */\n      eq\n        /* \"#utility.yul\":17452:17515   */\n      tag_453\n      jumpi\n        /* \"#utility.yul\":17511:17512   */\n      0x00\n        /* \"#utility.yul\":17508:17509   */\n      dup1\n        /* \"#utility.yul\":17501:17513   */\n      revert\n        /* \"#utility.yul\":17452:17515   */\n    tag_453:\n        /* \"#utility.yul\":17399:17521   */\n      pop\n      jump\t// out\n\n    auxdata: 0xa26469706673582212205e9575d768884c8376b12e3264b8c171d83a65f9bf8796219c1db27448dee6f064736f6c63430008070033\n}\n",
				"bytecode": {
					"linkReferences": {},
					"object": "608060405260006001556000600255603c600355670de0b6b3a764000060045534801561002b57600080fd5b5061004861003d61004d60201b60201c565b61005560201b60201c565b610119565b600033905090565b60008060009054906101000a900473ffffffffffffffffffffffffffffffffffffffff169050816000806101000a81548173ffffffffffffffffffffffffffffffffffffffff021916908373ffffffffffffffffffffffffffffffffffffffff1602179055508173ffffffffffffffffffffffffffffffffffffffff168173ffffffffffffffffffffffffffffffffffffffff167f8be0079c531659141344cd1fd0a4f28419497f9722a3daafe3b4186f6b6457e060405160405180910390a35050565b611c68806101286000396000f3fe6080604052600436106100a75760003560e01c8063858b055411610064578063858b0554146101b45780638da5cb5b146101f1578063b2bdfa7b1461021c578063d735573d14610247578063e172fca81461028b578063f2fde38b146102b4576100a7565b80631bfdc150146100ac5780631c6743e4146100c35780632458c544146101005780636a7d18161461013d5780636b6f04941461016d578063715018a61461019d575b600080fd5b3480156100b857600080fd5b506100c16102dd565b005b3480156100cf57600080fd5b506100ea60048036038101906100e591906112be565b6103a2565b6040516100f79190611736565b60405180910390f35b34801561010c57600080fd5b50610127600480360381019061012291906112eb565b6103ba565b6040516101349190611736565b60405180910390f35b610157600480360381019061015291906112be565b61069c565b6040516101649190611633565b60405180910390f35b61018760048036038101906101829190611392565b6107f1565b6040516101949190611633565b60405180910390f35b3480156101a957600080fd5b506101b2610acc565b005b3480156101c057600080fd5b506101db60048036038101906101d69190611392565b610b54565b6040516101e89190611585565b60405180910390f35b3480156101fd57600080fd5b50610206610b87565b6040516102139190611585565b60405180910390f35b34801561022857600080fd5b50610231610bb0565b60405161023e9190611585565b60405180910390f35b34801561025357600080fd5b5061026e60048036038101906102699190611392565b610bd4565b6040516102829897969594939291906115a0565b60405180910390f35b34801561029757600080fd5b506102b260048036038101906102ad91906112be565b610df4565b005b3480156102c057600080fd5b506102db60048036038101906102d691906112be565b610f74565b005b6102e561106c565b73ffffffffffffffffffffffffffffffffffffffff16610303610b87565b73ffffffffffffffffffffffffffffffffffffffff1614610359576040517f08c379a0000000000000000000000000000000000000000000000000000000008152600401610350906116e8565b60405180910390fd5b3373ffffffffffffffffffffffffffffffffffffffff166108fc479081150290604051600060405180830381858888f1935050505015801561039f573d6000803e3d6000fd5b50565b60076020528060005260406000206000915090505481565b60006001600760003373ffffffffffffffffffffffffffffffffffffffff1673ffffffffffffffffffffffffffffffffffffffff168152602001908152602001600020541061043e576040517f08c379a0000000000000000000000000000000000000000000000000000000008152600401610435906116a8565b60405180910390fd5b60056040518061010001604052803373ffffffffffffffffffffffffffffffffffffffff16815260200186815260200185815260200184815260200160008152602001600081526020016003544261049691906117d8565b63ffffffff168152602001600063ffffffff16815250908060018154018082558091505060019003906000526020600020906008020160009091909190915060008201518160000160006101000a81548173ffffffffffffffffffffffffffffffffffffffff021916908373ffffffffffffffffffffffffffffffffffffffff1602179055506020820151816001019080519060200190610538929190611181565b506040820151816002019080519060200190610555929190611181565b506060820151816003019080519060200190610572929190611181565b506080820151816004015560a0820151816005015560c0820151816006015560e08201518160070160006101000a81548163ffffffff021916908363ffffffff160217905550505060006005805490509050336006600083815260200190815260200160002060006101000a81548173ffffffffffffffffffffffffffffffffffffffff021916908373ffffffffffffffffffffffffffffffffffffffff160217905550600760003373ffffffffffffffffffffffffffffffffffffffff1673ffffffffffffffffffffffffffffffffffffffff168152602001908152602001600020600081548092919061066690611953565b91905055506002600081548092919061067e90611953565b91905055506001600254610692919061182e565b9150509392505050565b606060045434146106ac57600080fd5b60005b6005805490508110156107ea578273ffffffffffffffffffffffffffffffffffffffff16600582815481106106e7576106e6611a91565b5b906000526020600020906008020160000160009054906101000a900473ffffffffffffffffffffffffffffffffffffffff1673ffffffffffffffffffffffffffffffffffffffff1614156107d7576005818154811061074957610748611a91565b5b9060005260206000209060080201600701600081819054906101000a900463ffffffff168092919061077a9061199c565b91906101000a81548163ffffffff021916908363ffffffff160217905550506040518060400160405280601281526020017f48612073756269646f206465206e6976656c00000000000000000000000000008152509150506107ec565b80806107e290611953565b9150506106af565b505b919050565b60608134146107ff57600080fd5b6001600081548092919061081290611953565b919050555060006005805490504260058054905060015460405160200161083b93929190611548565b6040516020818303038152906040528051906020012060001c61085e91906119d3565b90506001600081548092919061087390611953565b9190505550600060029050600081428360015460405160200161089893929190611548565b6040516020818303038152906040528051906020012060001c6108bb91906119d3565b905060005b600580549050811015610ac257600581815481106108e1576108e0611a91565b5b906000526020600020906008020160000160009054906101000a900473ffffffffffffffffffffffffffffffffffffffff1673ffffffffffffffffffffffffffffffffffffffff163373ffffffffffffffffffffffffffffffffffffffff161415610aaf576000821415610a3757610957611074565b6005818154811061096b5761096a611a91565b5b9060005260206000209060080201600401600081548092919061098d90611953565b9190505550600581815481106109a6576109a5611a91565b5b9060005260206000209060080201600701600081819054906101000a900463ffffffff16809291906109d79061199c565b91906101000a81548163ffffffff021916908363ffffffff160217905550506040518060400160405280600a81526020017f4861732067616e61646f00000000000000000000000000000000000000000000815250945050505050610ac7565b7fa28482eec3136a2461c6c30c08f71ba279c6c51a2d9c7bea4e50d6d2632f389684604051610a669190611708565b60405180910390a16040518060400160405280600b81526020017f486173207065726469646f000000000000000000000000000000000000000000815250945050505050610ac7565b8080610aba90611953565b9150506108c0565b505050505b919050565b610ad461106c565b73ffffffffffffffffffffffffffffffffffffffff16610af2610b87565b73ffffffffffffffffffffffffffffffffffffffff1614610b48576040517f08c379a0000000000000000000000000000000000000000000000000000000008152600401610b3f906116e8565b60405180910390fd5b610b5260006110bd565b565b60066020528060005260406000206000915054906101000a900473ffffffffffffffffffffffffffffffffffffffff1681565b60008060009054906101000a900473ffffffffffffffffffffffffffffffffffffffff16905090565b60008054906101000a900473ffffffffffffffffffffffffffffffffffffffff1681565b60058181548110610be457600080fd5b90600052602060002090600802016000915090508060000160009054906101000a900473ffffffffffffffffffffffffffffffffffffffff1690806001018054610c2d906118f0565b80601f0160208091040260200160405190810160405280929190818152602001828054610c59906118f0565b8015610ca65780601f10610c7b57610100808354040283529160200191610ca6565b820191906000526020600020905b815481529060010190602001808311610c8957829003601f168201915b505050505090806002018054610cbb906118f0565b80601f0160208091040260200160405190810160405280929190818152602001828054610ce7906118f0565b8015610d345780601f10610d0957610100808354040283529160200191610d34565b820191906000526020600020905b815481529060010190602001808311610d1757829003601f168201915b505050505090806003018054610d49906118f0565b80601f0160208091040260200160405190810160405280929190818152602001828054610d75906118f0565b8015610dc25780601f10610d9757610100808354040283529160200191610dc2565b820191906000526020600020905b815481529060010190602001808311610da557829003601f168201915b5050505050908060040154908060050154908060060154908060070160009054906101000a900463ffffffff16905088565b60005b600580549050811015610f70578173ffffffffffffffffffffffffffffffffffffffff1660058281548110610e2f57610e2e611a91565b5b906000526020600020906008020160000160009054906101000a900473ffffffffffffffffffffffffffffffffffffffff1673ffffffffffffffffffffffffffffffffffffffff161415610f5d577f18c2885dbbffc4e127da047b869295b42d8d5ee97848f7f117b062e88f34a9e660058281548110610eb257610eb1611a91565b5b906000526020600020906008020160020160058381548110610ed757610ed6611a91565b5b906000526020600020906008020160010160058481548110610efc57610efb611a91565b5b906000526020600020906008020160070160009054906101000a900463ffffffff1660058581548110610f3257610f31611a91565b5b906000526020600020906008020160040154604051610f549493929190611655565b60405180910390a15b8080610f6890611953565b915050610df7565b5050565b610f7c61106c565b73ffffffffffffffffffffffffffffffffffffffff16610f9a610b87565b73ffffffffffffffffffffffffffffffffffffffff1614610ff0576040517f08c379a0000000000000000000000000000000000000000000000000000000008152600401610fe7906116e8565b60405180910390fd5b600073ffffffffffffffffffffffffffffffffffffffff168173ffffffffffffffffffffffffffffffffffffffff161415611060576040517f08c379a0000000000000000000000000000000000000000000000000000000008152600401611057906116c8565b60405180910390fd5b611069816110bd565b50565b600033905090565b3373ffffffffffffffffffffffffffffffffffffffff166108fc479081150290604051600060405180830381858888f193505050501580156110ba573d6000803e3d6000fd5b50565b60008060009054906101000a900473ffffffffffffffffffffffffffffffffffffffff169050816000806101000a81548173ffffffffffffffffffffffffffffffffffffffff021916908373ffffffffffffffffffffffffffffffffffffffff1602179055508173ffffffffffffffffffffffffffffffffffffffff168173ffffffffffffffffffffffffffffffffffffffff167f8be0079c531659141344cd1fd0a4f28419497f9722a3daafe3b4186f6b6457e060405160405180910390a35050565b82805461118d906118f0565b90600052602060002090601f0160209004810192826111af57600085556111f6565b82601f106111c857805160ff19168380011785556111f6565b828001600101855582156111f6579182015b828111156111f55782518255916020019190600101906111da565b5b5090506112039190611207565b5090565b5b80821115611220576000816000905550600101611208565b5090565b600061123761123284611776565b611751565b90508281526020810184848401111561125357611252611af4565b5b61125e8482856118ae565b509392505050565b60008135905061127581611c04565b92915050565b600082601f8301126112905761128f611aef565b5b81356112a0848260208601611224565b91505092915050565b6000813590506112b881611c1b565b92915050565b6000602082840312156112d4576112d3611afe565b5b60006112e284828501611266565b91505092915050565b60008060006060848603121561130457611303611afe565b5b600084013567ffffffffffffffff81111561132257611321611af9565b5b61132e8682870161127b565b935050602084013567ffffffffffffffff81111561134f5761134e611af9565b5b61135b8682870161127b565b925050604084013567ffffffffffffffff81111561137c5761137b611af9565b5b6113888682870161127b565b9150509250925092565b6000602082840312156113a8576113a7611afe565b5b60006113b6848285016112a9565b91505092915050565b6113c881611862565b82525050565b60006113d9826117bc565b6113e381856117c7565b93506113f38185602086016118bd565b6113fc81611b03565b840191505092915050565b60008154611414816118f0565b61141e81866117c7565b94506001821660008114611439576001811461144b5761147e565b60ff198316865260208601935061147e565b611454856117a7565b60005b8381101561147657815481890152600182019150602081019050611457565b808801955050505b50505092915050565b60006114946028836117c7565b915061149f82611b14565b604082019050919050565b60006114b76026836117c7565b91506114c282611b63565b604082019050919050565b60006114da6020836117c7565b91506114e582611bb2565b602082019050919050565b60006114fd6015836117c7565b915061150882611bdb565b602082019050919050565b61151c81611894565b82525050565b61153361152e82611894565b6119c9565b82525050565b6115428161189e565b82525050565b60006115548286611522565b6020820191506115648285611522565b6020820191506115748284611522565b602082019150819050949350505050565b600060208201905061159a60008301846113bf565b92915050565b6000610100820190506115b6600083018b6113bf565b81810360208301526115c8818a6113ce565b905081810360408301526115dc81896113ce565b905081810360608301526115f081886113ce565b90506115ff6080830187611513565b61160c60a0830186611513565b61161960c0830185611513565b61162660e0830184611539565b9998505050505050505050565b6000602082019050818103600083015261164d81846113ce565b905092915050565b6000608082019050818103600083015261166f8187611407565b905081810360208301526116838186611407565b90506116926040830185611539565b61169f6060830184611513565b95945050505050565b600060208201905081810360008301526116c181611487565b9050919050565b600060208201905081810360008301526116e1816114aa565b9050919050565b60006020820190508181036000830152611701816114cd565b9050919050565b60006040820190508181036000830152611721816114f0565b90506117306020830184611513565b92915050565b600060208201905061174b6000830184611513565b92915050565b600061175b61176c565b90506117678282611922565b919050565b6000604051905090565b600067ffffffffffffffff82111561179157611790611ac0565b5b61179a82611b03565b9050602081019050919050565b60008190508160005260206000209050919050565b600081519050919050565b600082825260208201905092915050565b60006117e382611894565b91506117ee83611894565b9250827fffffffffffffffffffffffffffffffffffffffffffffffffffffffffffffffff0382111561182357611822611a04565b5b828201905092915050565b600061183982611894565b915061184483611894565b92508282101561185757611856611a04565b5b828203905092915050565b600061186d82611874565b9050919050565b600073ffffffffffffffffffffffffffffffffffffffff82169050919050565b6000819050919050565b600063ffffffff82169050919050565b82818337600083830152505050565b60005b838110156118db5780820151818401526020810190506118c0565b838111156118ea576000848401525b50505050565b6000600282049050600182168061190857607f821691505b6020821081141561191c5761191b611a62565b5b50919050565b61192b82611b03565b810181811067ffffffffffffffff8211171561194a57611949611ac0565b5b80604052505050565b600061195e82611894565b91507fffffffffffffffffffffffffffffffffffffffffffffffffffffffffffffffff82141561199157611990611a04565b5b600182019050919050565b60006119a78261189e565b915063ffffffff8214156119be576119bd611a04565b5b600182019050919050565b6000819050919050565b60006119de82611894565b91506119e983611894565b9250826119f9576119f8611a33565b5b828206905092915050565b7f4e487b7100000000000000000000000000000000000000000000000000000000600052601160045260246000fd5b7f4e487b7100000000000000000000000000000000000000000000000000000000600052601260045260246000fd5b7f4e487b7100000000000000000000000000000000000000000000000000000000600052602260045260246000fd5b7f4e487b7100000000000000000000000000000000000000000000000000000000600052603260045260246000fd5b7f4e487b7100000000000000000000000000000000000000000000000000000000600052604160045260246000fd5b600080fd5b600080fd5b600080fd5b600080fd5b6000601f19601f8301169050919050565b7f536f6c6f2073652070756564652074656e657220756e20636f63686520706f7260008201527f20706572736f6e61000000000000000000000000000000000000000000000000602082015250565b7f4f776e61626c653a206e6577206f776e657220697320746865207a65726f206160008201527f6464726573730000000000000000000000000000000000000000000000000000602082015250565b7f4f776e61626c653a2063616c6c6572206973206e6f7420746865206f776e6572600082015250565b7f456c20636f6368652067616e61646f722065733a200000000000000000000000600082015250565b611c0d81611862565b8114611c1857600080fd5b50565b611c2481611894565b8114611c2f57600080fd5b5056fea26469706673582212205e9575d768884c8376b12e3264b8c171d83a65f9bf8796219c1db27448dee6f064736f6c63430008070033",
					"opcodes": "PUSH1 0x80 PUSH1 0x40 MSTORE PUSH1 0x0 PUSH1 0x1 SSTORE PUSH1 0x0 PUSH1 0x2 SSTORE PUSH1 0x3C PUSH1 0x3 SSTORE PUSH8 0xDE0B6B3A7640000 PUSH1 0x4 SSTORE CALLVALUE DUP1 ISZERO PUSH2 0x2B JUMPI PUSH1 0x0 DUP1 REVERT JUMPDEST POP PUSH2 0x48 PUSH2 0x3D PUSH2 0x4D PUSH1 0x20 SHL PUSH1 0x20 SHR JUMP JUMPDEST PUSH2 0x55 PUSH1 0x20 SHL PUSH1 0x20 SHR JUMP JUMPDEST PUSH2 0x119 JUMP JUMPDEST PUSH1 0x0 CALLER SWAP1 POP SWAP1 JUMP JUMPDEST PUSH1 0x0 DUP1 PUSH1 0x0 SWAP1 SLOAD SWAP1 PUSH2 0x100 EXP SWAP1 DIV PUSH20 0xFFFFFFFFFFFFFFFFFFFFFFFFFFFFFFFFFFFFFFFF AND SWAP1 POP DUP2 PUSH1 0x0 DUP1 PUSH2 0x100 EXP DUP2 SLOAD DUP2 PUSH20 0xFFFFFFFFFFFFFFFFFFFFFFFFFFFFFFFFFFFFFFFF MUL NOT AND SWAP1 DUP4 PUSH20 0xFFFFFFFFFFFFFFFFFFFFFFFFFFFFFFFFFFFFFFFF AND MUL OR SWAP1 SSTORE POP DUP2 PUSH20 0xFFFFFFFFFFFFFFFFFFFFFFFFFFFFFFFFFFFFFFFF AND DUP2 PUSH20 0xFFFFFFFFFFFFFFFFFFFFFFFFFFFFFFFFFFFFFFFF AND PUSH32 0x8BE0079C531659141344CD1FD0A4F28419497F9722A3DAAFE3B4186F6B6457E0 PUSH1 0x40 MLOAD PUSH1 0x40 MLOAD DUP1 SWAP2 SUB SWAP1 LOG3 POP POP JUMP JUMPDEST PUSH2 0x1C68 DUP1 PUSH2 0x128 PUSH1 0x0 CODECOPY PUSH1 0x0 RETURN INVALID PUSH1 0x80 PUSH1 0x40 MSTORE PUSH1 0x4 CALLDATASIZE LT PUSH2 0xA7 JUMPI PUSH1 0x0 CALLDATALOAD PUSH1 0xE0 SHR DUP1 PUSH4 0x858B0554 GT PUSH2 0x64 JUMPI DUP1 PUSH4 0x858B0554 EQ PUSH2 0x1B4 JUMPI DUP1 PUSH4 0x8DA5CB5B EQ PUSH2 0x1F1 JUMPI DUP1 PUSH4 0xB2BDFA7B EQ PUSH2 0x21C JUMPI DUP1 PUSH4 0xD735573D EQ PUSH2 0x247 JUMPI DUP1 PUSH4 0xE172FCA8 EQ PUSH2 0x28B JUMPI DUP1 PUSH4 0xF2FDE38B EQ PUSH2 0x2B4 JUMPI PUSH2 0xA7 JUMP JUMPDEST DUP1 PUSH4 0x1BFDC150 EQ PUSH2 0xAC JUMPI DUP1 PUSH4 0x1C6743E4 EQ PUSH2 0xC3 JUMPI DUP1 PUSH4 0x2458C544 EQ PUSH2 0x100 JUMPI DUP1 PUSH4 0x6A7D1816 EQ PUSH2 0x13D JUMPI DUP1 PUSH4 0x6B6F0494 EQ PUSH2 0x16D JUMPI DUP1 PUSH4 0x715018A6 EQ PUSH2 0x19D JUMPI JUMPDEST PUSH1 0x0 DUP1 REVERT JUMPDEST CALLVALUE DUP1 ISZERO PUSH2 0xB8 JUMPI PUSH1 0x0 DUP1 REVERT JUMPDEST POP PUSH2 0xC1 PUSH2 0x2DD JUMP JUMPDEST STOP JUMPDEST CALLVALUE DUP1 ISZERO PUSH2 0xCF JUMPI PUSH1 0x0 DUP1 REVERT JUMPDEST POP PUSH2 0xEA PUSH1 0x4 DUP1 CALLDATASIZE SUB DUP2 ADD SWAP1 PUSH2 0xE5 SWAP2 SWAP1 PUSH2 0x12BE JUMP JUMPDEST PUSH2 0x3A2 JUMP JUMPDEST PUSH1 0x40 MLOAD PUSH2 0xF7 SWAP2 SWAP1 PUSH2 0x1736 JUMP JUMPDEST PUSH1 0x40 MLOAD DUP1 SWAP2 SUB SWAP1 RETURN JUMPDEST CALLVALUE DUP1 ISZERO PUSH2 0x10C JUMPI PUSH1 0x0 DUP1 REVERT JUMPDEST POP PUSH2 0x127 PUSH1 0x4 DUP1 CALLDATASIZE SUB DUP2 ADD SWAP1 PUSH2 0x122 SWAP2 SWAP1 PUSH2 0x12EB JUMP JUMPDEST PUSH2 0x3BA JUMP JUMPDEST PUSH1 0x40 MLOAD PUSH2 0x134 SWAP2 SWAP1 PUSH2 0x1736 JUMP JUMPDEST PUSH1 0x40 MLOAD DUP1 SWAP2 SUB SWAP1 RETURN JUMPDEST PUSH2 0x157 PUSH1 0x4 DUP1 CALLDATASIZE SUB DUP2 ADD SWAP1 PUSH2 0x152 SWAP2 SWAP1 PUSH2 0x12BE JUMP JUMPDEST PUSH2 0x69C JUMP JUMPDEST PUSH1 0x40 MLOAD PUSH2 0x164 SWAP2 SWAP1 PUSH2 0x1633 JUMP JUMPDEST PUSH1 0x40 MLOAD DUP1 SWAP2 SUB SWAP1 RETURN JUMPDEST PUSH2 0x187 PUSH1 0x4 DUP1 CALLDATASIZE SUB DUP2 ADD SWAP1 PUSH2 0x182 SWAP2 SWAP1 PUSH2 0x1392 JUMP JUMPDEST PUSH2 0x7F1 JUMP JUMPDEST PUSH1 0x40 MLOAD PUSH2 0x194 SWAP2 SWAP1 PUSH2 0x1633 JUMP JUMPDEST PUSH1 0x40 MLOAD DUP1 SWAP2 SUB SWAP1 RETURN JUMPDEST CALLVALUE DUP1 ISZERO PUSH2 0x1A9 JUMPI PUSH1 0x0 DUP1 REVERT JUMPDEST POP PUSH2 0x1B2 PUSH2 0xACC JUMP JUMPDEST STOP JUMPDEST CALLVALUE DUP1 ISZERO PUSH2 0x1C0 JUMPI PUSH1 0x0 DUP1 REVERT JUMPDEST POP PUSH2 0x1DB PUSH1 0x4 DUP1 CALLDATASIZE SUB DUP2 ADD SWAP1 PUSH2 0x1D6 SWAP2 SWAP1 PUSH2 0x1392 JUMP JUMPDEST PUSH2 0xB54 JUMP JUMPDEST PUSH1 0x40 MLOAD PUSH2 0x1E8 SWAP2 SWAP1 PUSH2 0x1585 JUMP JUMPDEST PUSH1 0x40 MLOAD DUP1 SWAP2 SUB SWAP1 RETURN JUMPDEST CALLVALUE DUP1 ISZERO PUSH2 0x1FD JUMPI PUSH1 0x0 DUP1 REVERT JUMPDEST POP PUSH2 0x206 PUSH2 0xB87 JUMP JUMPDEST PUSH1 0x40 MLOAD PUSH2 0x213 SWAP2 SWAP1 PUSH2 0x1585 JUMP JUMPDEST PUSH1 0x40 MLOAD DUP1 SWAP2 SUB SWAP1 RETURN JUMPDEST CALLVALUE DUP1 ISZERO PUSH2 0x228 JUMPI PUSH1 0x0 DUP1 REVERT JUMPDEST POP PUSH2 0x231 PUSH2 0xBB0 JUMP JUMPDEST PUSH1 0x40 MLOAD PUSH2 0x23E SWAP2 SWAP1 PUSH2 0x1585 JUMP JUMPDEST PUSH1 0x40 MLOAD DUP1 SWAP2 SUB SWAP1 RETURN JUMPDEST CALLVALUE DUP1 ISZERO PUSH2 0x253 JUMPI PUSH1 0x0 DUP1 REVERT JUMPDEST POP PUSH2 0x26E PUSH1 0x4 DUP1 CALLDATASIZE SUB DUP2 ADD SWAP1 PUSH2 0x269 SWAP2 SWAP1 PUSH2 0x1392 JUMP JUMPDEST PUSH2 0xBD4 JUMP JUMPDEST PUSH1 0x40 MLOAD PUSH2 0x282 SWAP9 SWAP8 SWAP7 SWAP6 SWAP5 SWAP4 SWAP3 SWAP2 SWAP1 PUSH2 0x15A0 JUMP JUMPDEST PUSH1 0x40 MLOAD DUP1 SWAP2 SUB SWAP1 RETURN JUMPDEST CALLVALUE DUP1 ISZERO PUSH2 0x297 JUMPI PUSH1 0x0 DUP1 REVERT JUMPDEST POP PUSH2 0x2B2 PUSH1 0x4 DUP1 CALLDATASIZE SUB DUP2 ADD SWAP1 PUSH2 0x2AD SWAP2 SWAP1 PUSH2 0x12BE JUMP JUMPDEST PUSH2 0xDF4 JUMP JUMPDEST STOP JUMPDEST CALLVALUE DUP1 ISZERO PUSH2 0x2C0 JUMPI PUSH1 0x0 DUP1 REVERT JUMPDEST POP PUSH2 0x2DB PUSH1 0x4 DUP1 CALLDATASIZE SUB DUP2 ADD SWAP1 PUSH2 0x2D6 SWAP2 SWAP1 PUSH2 0x12BE JUMP JUMPDEST PUSH2 0xF74 JUMP JUMPDEST STOP JUMPDEST PUSH2 0x2E5 PUSH2 0x106C JUMP JUMPDEST PUSH20 0xFFFFFFFFFFFFFFFFFFFFFFFFFFFFFFFFFFFFFFFF AND PUSH2 0x303 PUSH2 0xB87 JUMP JUMPDEST PUSH20 0xFFFFFFFFFFFFFFFFFFFFFFFFFFFFFFFFFFFFFFFF AND EQ PUSH2 0x359 JUMPI PUSH1 0x40 MLOAD PUSH32 0x8C379A000000000000000000000000000000000000000000000000000000000 DUP2 MSTORE PUSH1 0x4 ADD PUSH2 0x350 SWAP1 PUSH2 0x16E8 JUMP JUMPDEST PUSH1 0x40 MLOAD DUP1 SWAP2 SUB SWAP1 REVERT JUMPDEST CALLER PUSH20 0xFFFFFFFFFFFFFFFFFFFFFFFFFFFFFFFFFFFFFFFF AND PUSH2 0x8FC SELFBALANCE SWAP1 DUP2 ISZERO MUL SWAP1 PUSH1 0x40 MLOAD PUSH1 0x0 PUSH1 0x40 MLOAD DUP1 DUP4 SUB DUP2 DUP6 DUP9 DUP9 CALL SWAP4 POP POP POP POP ISZERO DUP1 ISZERO PUSH2 0x39F JUMPI RETURNDATASIZE PUSH1 0x0 DUP1 RETURNDATACOPY RETURNDATASIZE PUSH1 0x0 REVERT JUMPDEST POP JUMP JUMPDEST PUSH1 0x7 PUSH1 0x20 MSTORE DUP1 PUSH1 0x0 MSTORE PUSH1 0x40 PUSH1 0x0 KECCAK256 PUSH1 0x0 SWAP2 POP SWAP1 POP SLOAD DUP2 JUMP JUMPDEST PUSH1 0x0 PUSH1 0x1 PUSH1 0x7 PUSH1 0x0 CALLER PUSH20 0xFFFFFFFFFFFFFFFFFFFFFFFFFFFFFFFFFFFFFFFF AND PUSH20 0xFFFFFFFFFFFFFFFFFFFFFFFFFFFFFFFFFFFFFFFF AND DUP2 MSTORE PUSH1 0x20 ADD SWAP1 DUP2 MSTORE PUSH1 0x20 ADD PUSH1 0x0 KECCAK256 SLOAD LT PUSH2 0x43E JUMPI PUSH1 0x40 MLOAD PUSH32 0x8C379A000000000000000000000000000000000000000000000000000000000 DUP2 MSTORE PUSH1 0x4 ADD PUSH2 0x435 SWAP1 PUSH2 0x16A8 JUMP JUMPDEST PUSH1 0x40 MLOAD DUP1 SWAP2 SUB SWAP1 REVERT JUMPDEST PUSH1 0x5 PUSH1 0x40 MLOAD DUP1 PUSH2 0x100 ADD PUSH1 0x40 MSTORE DUP1 CALLER PUSH20 0xFFFFFFFFFFFFFFFFFFFFFFFFFFFFFFFFFFFFFFFF AND DUP2 MSTORE PUSH1 0x20 ADD DUP7 DUP2 MSTORE PUSH1 0x20 ADD DUP6 DUP2 MSTORE PUSH1 0x20 ADD DUP5 DUP2 MSTORE PUSH1 0x20 ADD PUSH1 0x0 DUP2 MSTORE PUSH1 0x20 ADD PUSH1 0x0 DUP2 MSTORE PUSH1 0x20 ADD PUSH1 0x3 SLOAD TIMESTAMP PUSH2 0x496 SWAP2 SWAP1 PUSH2 0x17D8 JUMP JUMPDEST PUSH4 0xFFFFFFFF AND DUP2 MSTORE PUSH1 0x20 ADD PUSH1 0x0 PUSH4 0xFFFFFFFF AND DUP2 MSTORE POP SWAP1 DUP1 PUSH1 0x1 DUP2 SLOAD ADD DUP1 DUP3 SSTORE DUP1 SWAP2 POP POP PUSH1 0x1 SWAP1 SUB SWAP1 PUSH1 0x0 MSTORE PUSH1 0x20 PUSH1 0x0 KECCAK256 SWAP1 PUSH1 0x8 MUL ADD PUSH1 0x0 SWAP1 SWAP2 SWAP1 SWAP2 SWAP1 SWAP2 POP PUSH1 0x0 DUP3 ADD MLOAD DUP2 PUSH1 0x0 ADD PUSH1 0x0 PUSH2 0x100 EXP DUP2 SLOAD DUP2 PUSH20 0xFFFFFFFFFFFFFFFFFFFFFFFFFFFFFFFFFFFFFFFF MUL NOT AND SWAP1 DUP4 PUSH20 0xFFFFFFFFFFFFFFFFFFFFFFFFFFFFFFFFFFFFFFFF AND MUL OR SWAP1 SSTORE POP PUSH1 0x20 DUP3 ADD MLOAD DUP2 PUSH1 0x1 ADD SWAP1 DUP1 MLOAD SWAP1 PUSH1 0x20 ADD SWAP1 PUSH2 0x538 SWAP3 SWAP2 SWAP1 PUSH2 0x1181 JUMP JUMPDEST POP PUSH1 0x40 DUP3 ADD MLOAD DUP2 PUSH1 0x2 ADD SWAP1 DUP1 MLOAD SWAP1 PUSH1 0x20 ADD SWAP1 PUSH2 0x555 SWAP3 SWAP2 SWAP1 PUSH2 0x1181 JUMP JUMPDEST POP PUSH1 0x60 DUP3 ADD MLOAD DUP2 PUSH1 0x3 ADD SWAP1 DUP1 MLOAD SWAP1 PUSH1 0x20 ADD SWAP1 PUSH2 0x572 SWAP3 SWAP2 SWAP1 PUSH2 0x1181 JUMP JUMPDEST POP PUSH1 0x80 DUP3 ADD MLOAD DUP2 PUSH1 0x4 ADD SSTORE PUSH1 0xA0 DUP3 ADD MLOAD DUP2 PUSH1 0x5 ADD SSTORE PUSH1 0xC0 DUP3 ADD MLOAD DUP2 PUSH1 0x6 ADD SSTORE PUSH1 0xE0 DUP3 ADD MLOAD DUP2 PUSH1 0x7 ADD PUSH1 0x0 PUSH2 0x100 EXP DUP2 SLOAD DUP2 PUSH4 0xFFFFFFFF MUL NOT AND SWAP1 DUP4 PUSH4 0xFFFFFFFF AND MUL OR SWAP1 SSTORE POP POP POP PUSH1 0x0 PUSH1 0x5 DUP1 SLOAD SWAP1 POP SWAP1 POP CALLER PUSH1 0x6 PUSH1 0x0 DUP4 DUP2 MSTORE PUSH1 0x20 ADD SWAP1 DUP2 MSTORE PUSH1 0x20 ADD PUSH1 0x0 KECCAK256 PUSH1 0x0 PUSH2 0x100 EXP DUP2 SLOAD DUP2 PUSH20 0xFFFFFFFFFFFFFFFFFFFFFFFFFFFFFFFFFFFFFFFF MUL NOT AND SWAP1 DUP4 PUSH20 0xFFFFFFFFFFFFFFFFFFFFFFFFFFFFFFFFFFFFFFFF AND MUL OR SWAP1 SSTORE POP PUSH1 0x7 PUSH1 0x0 CALLER PUSH20 0xFFFFFFFFFFFFFFFFFFFFFFFFFFFFFFFFFFFFFFFF AND PUSH20 0xFFFFFFFFFFFFFFFFFFFFFFFFFFFFFFFFFFFFFFFF AND DUP2 MSTORE PUSH1 0x20 ADD SWAP1 DUP2 MSTORE PUSH1 0x20 ADD PUSH1 0x0 KECCAK256 PUSH1 0x0 DUP2 SLOAD DUP1 SWAP3 SWAP2 SWAP1 PUSH2 0x666 SWAP1 PUSH2 0x1953 JUMP JUMPDEST SWAP2 SWAP1 POP SSTORE POP PUSH1 0x2 PUSH1 0x0 DUP2 SLOAD DUP1 SWAP3 SWAP2 SWAP1 PUSH2 0x67E SWAP1 PUSH2 0x1953 JUMP JUMPDEST SWAP2 SWAP1 POP SSTORE POP PUSH1 0x1 PUSH1 0x2 SLOAD PUSH2 0x692 SWAP2 SWAP1 PUSH2 0x182E JUMP JUMPDEST SWAP2 POP POP SWAP4 SWAP3 POP POP POP JUMP JUMPDEST PUSH1 0x60 PUSH1 0x4 SLOAD CALLVALUE EQ PUSH2 0x6AC JUMPI PUSH1 0x0 DUP1 REVERT JUMPDEST PUSH1 0x0 JUMPDEST PUSH1 0x5 DUP1 SLOAD SWAP1 POP DUP2 LT ISZERO PUSH2 0x7EA JUMPI DUP3 PUSH20 0xFFFFFFFFFFFFFFFFFFFFFFFFFFFFFFFFFFFFFFFF AND PUSH1 0x5 DUP3 DUP2 SLOAD DUP2 LT PUSH2 0x6E7 JUMPI PUSH2 0x6E6 PUSH2 0x1A91 JUMP JUMPDEST JUMPDEST SWAP1 PUSH1 0x0 MSTORE PUSH1 0x20 PUSH1 0x0 KECCAK256 SWAP1 PUSH1 0x8 MUL ADD PUSH1 0x0 ADD PUSH1 0x0 SWAP1 SLOAD SWAP1 PUSH2 0x100 EXP SWAP1 DIV PUSH20 0xFFFFFFFFFFFFFFFFFFFFFFFFFFFFFFFFFFFFFFFF AND PUSH20 0xFFFFFFFFFFFFFFFFFFFFFFFFFFFFFFFFFFFFFFFF AND EQ ISZERO PUSH2 0x7D7 JUMPI PUSH1 0x5 DUP2 DUP2 SLOAD DUP2 LT PUSH2 0x749 JUMPI PUSH2 0x748 PUSH2 0x1A91 JUMP JUMPDEST JUMPDEST SWAP1 PUSH1 0x0 MSTORE PUSH1 0x20 PUSH1 0x0 KECCAK256 SWAP1 PUSH1 0x8 MUL ADD PUSH1 0x7 ADD PUSH1 0x0 DUP2 DUP2 SWAP1 SLOAD SWAP1 PUSH2 0x100 EXP SWAP1 DIV PUSH4 0xFFFFFFFF AND DUP1 SWAP3 SWAP2 SWAP1 PUSH2 0x77A SWAP1 PUSH2 0x199C JUMP JUMPDEST SWAP2 SWAP1 PUSH2 0x100 EXP DUP2 SLOAD DUP2 PUSH4 0xFFFFFFFF MUL NOT AND SWAP1 DUP4 PUSH4 0xFFFFFFFF AND MUL OR SWAP1 SSTORE POP POP PUSH1 0x40 MLOAD DUP1 PUSH1 0x40 ADD PUSH1 0x40 MSTORE DUP1 PUSH1 0x12 DUP2 MSTORE PUSH1 0x20 ADD PUSH32 0x48612073756269646F206465206E6976656C0000000000000000000000000000 DUP2 MSTORE POP SWAP2 POP POP PUSH2 0x7EC JUMP JUMPDEST DUP1 DUP1 PUSH2 0x7E2 SWAP1 PUSH2 0x1953 JUMP JUMPDEST SWAP2 POP POP PUSH2 0x6AF JUMP JUMPDEST POP JUMPDEST SWAP2 SWAP1 POP JUMP JUMPDEST PUSH1 0x60 DUP2 CALLVALUE EQ PUSH2 0x7FF JUMPI PUSH1 0x0 DUP1 REVERT JUMPDEST PUSH1 0x1 PUSH1 0x0 DUP2 SLOAD DUP1 SWAP3 SWAP2 SWAP1 PUSH2 0x812 SWAP1 PUSH2 0x1953 JUMP JUMPDEST SWAP2 SWAP1 POP SSTORE POP PUSH1 0x0 PUSH1 0x5 DUP1 SLOAD SWAP1 POP TIMESTAMP PUSH1 0x5 DUP1 SLOAD SWAP1 POP PUSH1 0x1 SLOAD PUSH1 0x40 MLOAD PUSH1 0x20 ADD PUSH2 0x83B SWAP4 SWAP3 SWAP2 SWAP1 PUSH2 0x1548 JUMP JUMPDEST PUSH1 0x40 MLOAD PUSH1 0x20 DUP2 DUP4 SUB SUB DUP2 MSTORE SWAP1 PUSH1 0x40 MSTORE DUP1 MLOAD SWAP1 PUSH1 0x20 ADD KECCAK256 PUSH1 0x0 SHR PUSH2 0x85E SWAP2 SWAP1 PUSH2 0x19D3 JUMP JUMPDEST SWAP1 POP PUSH1 0x1 PUSH1 0x0 DUP2 SLOAD DUP1 SWAP3 SWAP2 SWAP1 PUSH2 0x873 SWAP1 PUSH2 0x1953 JUMP JUMPDEST SWAP2 SWAP1 POP SSTORE POP PUSH1 0x0 PUSH1 0x2 SWAP1 POP PUSH1 0x0 DUP2 TIMESTAMP DUP4 PUSH1 0x1 SLOAD PUSH1 0x40 MLOAD PUSH1 0x20 ADD PUSH2 0x898 SWAP4 SWAP3 SWAP2 SWAP1 PUSH2 0x1548 JUMP JUMPDEST PUSH1 0x40 MLOAD PUSH1 0x20 DUP2 DUP4 SUB SUB DUP2 MSTORE SWAP1 PUSH1 0x40 MSTORE DUP1 MLOAD SWAP1 PUSH1 0x20 ADD KECCAK256 PUSH1 0x0 SHR PUSH2 0x8BB SWAP2 SWAP1 PUSH2 0x19D3 JUMP JUMPDEST SWAP1 POP PUSH1 0x0 JUMPDEST PUSH1 0x5 DUP1 SLOAD SWAP1 POP DUP2 LT ISZERO PUSH2 0xAC2 JUMPI PUSH1 0x5 DUP2 DUP2 SLOAD DUP2 LT PUSH2 0x8E1 JUMPI PUSH2 0x8E0 PUSH2 0x1A91 JUMP JUMPDEST JUMPDEST SWAP1 PUSH1 0x0 MSTORE PUSH1 0x20 PUSH1 0x0 KECCAK256 SWAP1 PUSH1 0x8 MUL ADD PUSH1 0x0 ADD PUSH1 0x0 SWAP1 SLOAD SWAP1 PUSH2 0x100 EXP SWAP1 DIV PUSH20 0xFFFFFFFFFFFFFFFFFFFFFFFFFFFFFFFFFFFFFFFF AND PUSH20 0xFFFFFFFFFFFFFFFFFFFFFFFFFFFFFFFFFFFFFFFF AND CALLER PUSH20 0xFFFFFFFFFFFFFFFFFFFFFFFFFFFFFFFFFFFFFFFF AND EQ ISZERO PUSH2 0xAAF JUMPI PUSH1 0x0 DUP3 EQ ISZERO PUSH2 0xA37 JUMPI PUSH2 0x957 PUSH2 0x1074 JUMP JUMPDEST PUSH1 0x5 DUP2 DUP2 SLOAD DUP2 LT PUSH2 0x96B JUMPI PUSH2 0x96A PUSH2 0x1A91 JUMP JUMPDEST JUMPDEST SWAP1 PUSH1 0x0 MSTORE PUSH1 0x20 PUSH1 0x0 KECCAK256 SWAP1 PUSH1 0x8 MUL ADD PUSH1 0x4 ADD PUSH1 0x0 DUP2 SLOAD DUP1 SWAP3 SWAP2 SWAP1 PUSH2 0x98D SWAP1 PUSH2 0x1953 JUMP JUMPDEST SWAP2 SWAP1 POP SSTORE POP PUSH1 0x5 DUP2 DUP2 SLOAD DUP2 LT PUSH2 0x9A6 JUMPI PUSH2 0x9A5 PUSH2 0x1A91 JUMP JUMPDEST JUMPDEST SWAP1 PUSH1 0x0 MSTORE PUSH1 0x20 PUSH1 0x0 KECCAK256 SWAP1 PUSH1 0x8 MUL ADD PUSH1 0x7 ADD PUSH1 0x0 DUP2 DUP2 SWAP1 SLOAD SWAP1 PUSH2 0x100 EXP SWAP1 DIV PUSH4 0xFFFFFFFF AND DUP1 SWAP3 SWAP2 SWAP1 PUSH2 0x9D7 SWAP1 PUSH2 0x199C JUMP JUMPDEST SWAP2 SWAP1 PUSH2 0x100 EXP DUP2 SLOAD DUP2 PUSH4 0xFFFFFFFF MUL NOT AND SWAP1 DUP4 PUSH4 0xFFFFFFFF AND MUL OR SWAP1 SSTORE POP POP PUSH1 0x40 MLOAD DUP1 PUSH1 0x40 ADD PUSH1 0x40 MSTORE DUP1 PUSH1 0xA DUP2 MSTORE PUSH1 0x20 ADD PUSH32 0x4861732067616E61646F00000000000000000000000000000000000000000000 DUP2 MSTORE POP SWAP5 POP POP POP POP POP PUSH2 0xAC7 JUMP JUMPDEST PUSH32 0xA28482EEC3136A2461C6C30C08F71BA279C6C51A2D9C7BEA4E50D6D2632F3896 DUP5 PUSH1 0x40 MLOAD PUSH2 0xA66 SWAP2 SWAP1 PUSH2 0x1708 JUMP JUMPDEST PUSH1 0x40 MLOAD DUP1 SWAP2 SUB SWAP1 LOG1 PUSH1 0x40 MLOAD DUP1 PUSH1 0x40 ADD PUSH1 0x40 MSTORE DUP1 PUSH1 0xB DUP2 MSTORE PUSH1 0x20 ADD PUSH32 0x486173207065726469646F000000000000000000000000000000000000000000 DUP2 MSTORE POP SWAP5 POP POP POP POP POP PUSH2 0xAC7 JUMP JUMPDEST DUP1 DUP1 PUSH2 0xABA SWAP1 PUSH2 0x1953 JUMP JUMPDEST SWAP2 POP POP PUSH2 0x8C0 JUMP JUMPDEST POP POP POP POP JUMPDEST SWAP2 SWAP1 POP JUMP JUMPDEST PUSH2 0xAD4 PUSH2 0x106C JUMP JUMPDEST PUSH20 0xFFFFFFFFFFFFFFFFFFFFFFFFFFFFFFFFFFFFFFFF AND PUSH2 0xAF2 PUSH2 0xB87 JUMP JUMPDEST PUSH20 0xFFFFFFFFFFFFFFFFFFFFFFFFFFFFFFFFFFFFFFFF AND EQ PUSH2 0xB48 JUMPI PUSH1 0x40 MLOAD PUSH32 0x8C379A000000000000000000000000000000000000000000000000000000000 DUP2 MSTORE PUSH1 0x4 ADD PUSH2 0xB3F SWAP1 PUSH2 0x16E8 JUMP JUMPDEST PUSH1 0x40 MLOAD DUP1 SWAP2 SUB SWAP1 REVERT JUMPDEST PUSH2 0xB52 PUSH1 0x0 PUSH2 0x10BD JUMP JUMPDEST JUMP JUMPDEST PUSH1 0x6 PUSH1 0x20 MSTORE DUP1 PUSH1 0x0 MSTORE PUSH1 0x40 PUSH1 0x0 KECCAK256 PUSH1 0x0 SWAP2 POP SLOAD SWAP1 PUSH2 0x100 EXP SWAP1 DIV PUSH20 0xFFFFFFFFFFFFFFFFFFFFFFFFFFFFFFFFFFFFFFFF AND DUP2 JUMP JUMPDEST PUSH1 0x0 DUP1 PUSH1 0x0 SWAP1 SLOAD SWAP1 PUSH2 0x100 EXP SWAP1 DIV PUSH20 0xFFFFFFFFFFFFFFFFFFFFFFFFFFFFFFFFFFFFFFFF AND SWAP1 POP SWAP1 JUMP JUMPDEST PUSH1 0x0 DUP1 SLOAD SWAP1 PUSH2 0x100 EXP SWAP1 DIV PUSH20 0xFFFFFFFFFFFFFFFFFFFFFFFFFFFFFFFFFFFFFFFF AND DUP2 JUMP JUMPDEST PUSH1 0x5 DUP2 DUP2 SLOAD DUP2 LT PUSH2 0xBE4 JUMPI PUSH1 0x0 DUP1 REVERT JUMPDEST SWAP1 PUSH1 0x0 MSTORE PUSH1 0x20 PUSH1 0x0 KECCAK256 SWAP1 PUSH1 0x8 MUL ADD PUSH1 0x0 SWAP2 POP SWAP1 POP DUP1 PUSH1 0x0 ADD PUSH1 0x0 SWAP1 SLOAD SWAP1 PUSH2 0x100 EXP SWAP1 DIV PUSH20 0xFFFFFFFFFFFFFFFFFFFFFFFFFFFFFFFFFFFFFFFF AND SWAP1 DUP1 PUSH1 0x1 ADD DUP1 SLOAD PUSH2 0xC2D SWAP1 PUSH2 0x18F0 JUMP JUMPDEST DUP1 PUSH1 0x1F ADD PUSH1 0x20 DUP1 SWAP2 DIV MUL PUSH1 0x20 ADD PUSH1 0x40 MLOAD SWAP1 DUP2 ADD PUSH1 0x40 MSTORE DUP1 SWAP3 SWAP2 SWAP1 DUP2 DUP2 MSTORE PUSH1 0x20 ADD DUP3 DUP1 SLOAD PUSH2 0xC59 SWAP1 PUSH2 0x18F0 JUMP JUMPDEST DUP1 ISZERO PUSH2 0xCA6 JUMPI DUP1 PUSH1 0x1F LT PUSH2 0xC7B JUMPI PUSH2 0x100 DUP1 DUP4 SLOAD DIV MUL DUP4 MSTORE SWAP2 PUSH1 0x20 ADD SWAP2 PUSH2 0xCA6 JUMP JUMPDEST DUP3 ADD SWAP2 SWAP1 PUSH1 0x0 MSTORE PUSH1 0x20 PUSH1 0x0 KECCAK256 SWAP1 JUMPDEST DUP2 SLOAD DUP2 MSTORE SWAP1 PUSH1 0x1 ADD SWAP1 PUSH1 0x20 ADD DUP1 DUP4 GT PUSH2 0xC89 JUMPI DUP3 SWAP1 SUB PUSH1 0x1F AND DUP3 ADD SWAP2 JUMPDEST POP POP POP POP POP SWAP1 DUP1 PUSH1 0x2 ADD DUP1 SLOAD PUSH2 0xCBB SWAP1 PUSH2 0x18F0 JUMP JUMPDEST DUP1 PUSH1 0x1F ADD PUSH1 0x20 DUP1 SWAP2 DIV MUL PUSH1 0x20 ADD PUSH1 0x40 MLOAD SWAP1 DUP2 ADD PUSH1 0x40 MSTORE DUP1 SWAP3 SWAP2 SWAP1 DUP2 DUP2 MSTORE PUSH1 0x20 ADD DUP3 DUP1 SLOAD PUSH2 0xCE7 SWAP1 PUSH2 0x18F0 JUMP JUMPDEST DUP1 ISZERO PUSH2 0xD34 JUMPI DUP1 PUSH1 0x1F LT PUSH2 0xD09 JUMPI PUSH2 0x100 DUP1 DUP4 SLOAD DIV MUL DUP4 MSTORE SWAP2 PUSH1 0x20 ADD SWAP2 PUSH2 0xD34 JUMP JUMPDEST DUP3 ADD SWAP2 SWAP1 PUSH1 0x0 MSTORE PUSH1 0x20 PUSH1 0x0 KECCAK256 SWAP1 JUMPDEST DUP2 SLOAD DUP2 MSTORE SWAP1 PUSH1 0x1 ADD SWAP1 PUSH1 0x20 ADD DUP1 DUP4 GT PUSH2 0xD17 JUMPI DUP3 SWAP1 SUB PUSH1 0x1F AND DUP3 ADD SWAP2 JUMPDEST POP POP POP POP POP SWAP1 DUP1 PUSH1 0x3 ADD DUP1 SLOAD PUSH2 0xD49 SWAP1 PUSH2 0x18F0 JUMP JUMPDEST DUP1 PUSH1 0x1F ADD PUSH1 0x20 DUP1 SWAP2 DIV MUL PUSH1 0x20 ADD PUSH1 0x40 MLOAD SWAP1 DUP2 ADD PUSH1 0x40 MSTORE DUP1 SWAP3 SWAP2 SWAP1 DUP2 DUP2 MSTORE PUSH1 0x20 ADD DUP3 DUP1 SLOAD PUSH2 0xD75 SWAP1 PUSH2 0x18F0 JUMP JUMPDEST DUP1 ISZERO PUSH2 0xDC2 JUMPI DUP1 PUSH1 0x1F LT PUSH2 0xD97 JUMPI PUSH2 0x100 DUP1 DUP4 SLOAD DIV MUL DUP4 MSTORE SWAP2 PUSH1 0x20 ADD SWAP2 PUSH2 0xDC2 JUMP JUMPDEST DUP3 ADD SWAP2 SWAP1 PUSH1 0x0 MSTORE PUSH1 0x20 PUSH1 0x0 KECCAK256 SWAP1 JUMPDEST DUP2 SLOAD DUP2 MSTORE SWAP1 PUSH1 0x1 ADD SWAP1 PUSH1 0x20 ADD DUP1 DUP4 GT PUSH2 0xDA5 JUMPI DUP3 SWAP1 SUB PUSH1 0x1F AND DUP3 ADD SWAP2 JUMPDEST POP POP POP POP POP SWAP1 DUP1 PUSH1 0x4 ADD SLOAD SWAP1 DUP1 PUSH1 0x5 ADD SLOAD SWAP1 DUP1 PUSH1 0x6 ADD SLOAD SWAP1 DUP1 PUSH1 0x7 ADD PUSH1 0x0 SWAP1 SLOAD SWAP1 PUSH2 0x100 EXP SWAP1 DIV PUSH4 0xFFFFFFFF AND SWAP1 POP DUP9 JUMP JUMPDEST PUSH1 0x0 JUMPDEST PUSH1 0x5 DUP1 SLOAD SWAP1 POP DUP2 LT ISZERO PUSH2 0xF70 JUMPI DUP2 PUSH20 0xFFFFFFFFFFFFFFFFFFFFFFFFFFFFFFFFFFFFFFFF AND PUSH1 0x5 DUP3 DUP2 SLOAD DUP2 LT PUSH2 0xE2F JUMPI PUSH2 0xE2E PUSH2 0x1A91 JUMP JUMPDEST JUMPDEST SWAP1 PUSH1 0x0 MSTORE PUSH1 0x20 PUSH1 0x0 KECCAK256 SWAP1 PUSH1 0x8 MUL ADD PUSH1 0x0 ADD PUSH1 0x0 SWAP1 SLOAD SWAP1 PUSH2 0x100 EXP SWAP1 DIV PUSH20 0xFFFFFFFFFFFFFFFFFFFFFFFFFFFFFFFFFFFFFFFF AND PUSH20 0xFFFFFFFFFFFFFFFFFFFFFFFFFFFFFFFFFFFFFFFF AND EQ ISZERO PUSH2 0xF5D JUMPI PUSH32 0x18C2885DBBFFC4E127DA047B869295B42D8D5EE97848F7F117B062E88F34A9E6 PUSH1 0x5 DUP3 DUP2 SLOAD DUP2 LT PUSH2 0xEB2 JUMPI PUSH2 0xEB1 PUSH2 0x1A91 JUMP JUMPDEST JUMPDEST SWAP1 PUSH1 0x0 MSTORE PUSH1 0x20 PUSH1 0x0 KECCAK256 SWAP1 PUSH1 0x8 MUL ADD PUSH1 0x2 ADD PUSH1 0x5 DUP4 DUP2 SLOAD DUP2 LT PUSH2 0xED7 JUMPI PUSH2 0xED6 PUSH2 0x1A91 JUMP JUMPDEST JUMPDEST SWAP1 PUSH1 0x0 MSTORE PUSH1 0x20 PUSH1 0x0 KECCAK256 SWAP1 PUSH1 0x8 MUL ADD PUSH1 0x1 ADD PUSH1 0x5 DUP5 DUP2 SLOAD DUP2 LT PUSH2 0xEFC JUMPI PUSH2 0xEFB PUSH2 0x1A91 JUMP JUMPDEST JUMPDEST SWAP1 PUSH1 0x0 MSTORE PUSH1 0x20 PUSH1 0x0 KECCAK256 SWAP1 PUSH1 0x8 MUL ADD PUSH1 0x7 ADD PUSH1 0x0 SWAP1 SLOAD SWAP1 PUSH2 0x100 EXP SWAP1 DIV PUSH4 0xFFFFFFFF AND PUSH1 0x5 DUP6 DUP2 SLOAD DUP2 LT PUSH2 0xF32 JUMPI PUSH2 0xF31 PUSH2 0x1A91 JUMP JUMPDEST JUMPDEST SWAP1 PUSH1 0x0 MSTORE PUSH1 0x20 PUSH1 0x0 KECCAK256 SWAP1 PUSH1 0x8 MUL ADD PUSH1 0x4 ADD SLOAD PUSH1 0x40 MLOAD PUSH2 0xF54 SWAP5 SWAP4 SWAP3 SWAP2 SWAP1 PUSH2 0x1655 JUMP JUMPDEST PUSH1 0x40 MLOAD DUP1 SWAP2 SUB SWAP1 LOG1 JUMPDEST DUP1 DUP1 PUSH2 0xF68 SWAP1 PUSH2 0x1953 JUMP JUMPDEST SWAP2 POP POP PUSH2 0xDF7 JUMP JUMPDEST POP POP JUMP JUMPDEST PUSH2 0xF7C PUSH2 0x106C JUMP JUMPDEST PUSH20 0xFFFFFFFFFFFFFFFFFFFFFFFFFFFFFFFFFFFFFFFF AND PUSH2 0xF9A PUSH2 0xB87 JUMP JUMPDEST PUSH20 0xFFFFFFFFFFFFFFFFFFFFFFFFFFFFFFFFFFFFFFFF AND EQ PUSH2 0xFF0 JUMPI PUSH1 0x40 MLOAD PUSH32 0x8C379A000000000000000000000000000000000000000000000000000000000 DUP2 MSTORE PUSH1 0x4 ADD PUSH2 0xFE7 SWAP1 PUSH2 0x16E8 JUMP JUMPDEST PUSH1 0x40 MLOAD DUP1 SWAP2 SUB SWAP1 REVERT JUMPDEST PUSH1 0x0 PUSH20 0xFFFFFFFFFFFFFFFFFFFFFFFFFFFFFFFFFFFFFFFF AND DUP2 PUSH20 0xFFFFFFFFFFFFFFFFFFFFFFFFFFFFFFFFFFFFFFFF AND EQ ISZERO PUSH2 0x1060 JUMPI PUSH1 0x40 MLOAD PUSH32 0x8C379A000000000000000000000000000000000000000000000000000000000 DUP2 MSTORE PUSH1 0x4 ADD PUSH2 0x1057 SWAP1 PUSH2 0x16C8 JUMP JUMPDEST PUSH1 0x40 MLOAD DUP1 SWAP2 SUB SWAP1 REVERT JUMPDEST PUSH2 0x1069 DUP2 PUSH2 0x10BD JUMP JUMPDEST POP JUMP JUMPDEST PUSH1 0x0 CALLER SWAP1 POP SWAP1 JUMP JUMPDEST CALLER PUSH20 0xFFFFFFFFFFFFFFFFFFFFFFFFFFFFFFFFFFFFFFFF AND PUSH2 0x8FC SELFBALANCE SWAP1 DUP2 ISZERO MUL SWAP1 PUSH1 0x40 MLOAD PUSH1 0x0 PUSH1 0x40 MLOAD DUP1 DUP4 SUB DUP2 DUP6 DUP9 DUP9 CALL SWAP4 POP POP POP POP ISZERO DUP1 ISZERO PUSH2 0x10BA JUMPI RETURNDATASIZE PUSH1 0x0 DUP1 RETURNDATACOPY RETURNDATASIZE PUSH1 0x0 REVERT JUMPDEST POP JUMP JUMPDEST PUSH1 0x0 DUP1 PUSH1 0x0 SWAP1 SLOAD SWAP1 PUSH2 0x100 EXP SWAP1 DIV PUSH20 0xFFFFFFFFFFFFFFFFFFFFFFFFFFFFFFFFFFFFFFFF AND SWAP1 POP DUP2 PUSH1 0x0 DUP1 PUSH2 0x100 EXP DUP2 SLOAD DUP2 PUSH20 0xFFFFFFFFFFFFFFFFFFFFFFFFFFFFFFFFFFFFFFFF MUL NOT AND SWAP1 DUP4 PUSH20 0xFFFFFFFFFFFFFFFFFFFFFFFFFFFFFFFFFFFFFFFF AND MUL OR SWAP1 SSTORE POP DUP2 PUSH20 0xFFFFFFFFFFFFFFFFFFFFFFFFFFFFFFFFFFFFFFFF AND DUP2 PUSH20 0xFFFFFFFFFFFFFFFFFFFFFFFFFFFFFFFFFFFFFFFF AND PUSH32 0x8BE0079C531659141344CD1FD0A4F28419497F9722A3DAAFE3B4186F6B6457E0 PUSH1 0x40 MLOAD PUSH1 0x40 MLOAD DUP1 SWAP2 SUB SWAP1 LOG3 POP POP JUMP JUMPDEST DUP3 DUP1 SLOAD PUSH2 0x118D SWAP1 PUSH2 0x18F0 JUMP JUMPDEST SWAP1 PUSH1 0x0 MSTORE PUSH1 0x20 PUSH1 0x0 KECCAK256 SWAP1 PUSH1 0x1F ADD PUSH1 0x20 SWAP1 DIV DUP2 ADD SWAP3 DUP3 PUSH2 0x11AF JUMPI PUSH1 0x0 DUP6 SSTORE PUSH2 0x11F6 JUMP JUMPDEST DUP3 PUSH1 0x1F LT PUSH2 0x11C8 JUMPI DUP1 MLOAD PUSH1 0xFF NOT AND DUP4 DUP1 ADD OR DUP6 SSTORE PUSH2 0x11F6 JUMP JUMPDEST DUP3 DUP1 ADD PUSH1 0x1 ADD DUP6 SSTORE DUP3 ISZERO PUSH2 0x11F6 JUMPI SWAP2 DUP3 ADD JUMPDEST DUP3 DUP2 GT ISZERO PUSH2 0x11F5 JUMPI DUP3 MLOAD DUP3 SSTORE SWAP2 PUSH1 0x20 ADD SWAP2 SWAP1 PUSH1 0x1 ADD SWAP1 PUSH2 0x11DA JUMP JUMPDEST JUMPDEST POP SWAP1 POP PUSH2 0x1203 SWAP2 SWAP1 PUSH2 0x1207 JUMP JUMPDEST POP SWAP1 JUMP JUMPDEST JUMPDEST DUP1 DUP3 GT ISZERO PUSH2 0x1220 JUMPI PUSH1 0x0 DUP2 PUSH1 0x0 SWAP1 SSTORE POP PUSH1 0x1 ADD PUSH2 0x1208 JUMP JUMPDEST POP SWAP1 JUMP JUMPDEST PUSH1 0x0 PUSH2 0x1237 PUSH2 0x1232 DUP5 PUSH2 0x1776 JUMP JUMPDEST PUSH2 0x1751 JUMP JUMPDEST SWAP1 POP DUP3 DUP2 MSTORE PUSH1 0x20 DUP2 ADD DUP5 DUP5 DUP5 ADD GT ISZERO PUSH2 0x1253 JUMPI PUSH2 0x1252 PUSH2 0x1AF4 JUMP JUMPDEST JUMPDEST PUSH2 0x125E DUP5 DUP3 DUP6 PUSH2 0x18AE JUMP JUMPDEST POP SWAP4 SWAP3 POP POP POP JUMP JUMPDEST PUSH1 0x0 DUP2 CALLDATALOAD SWAP1 POP PUSH2 0x1275 DUP2 PUSH2 0x1C04 JUMP JUMPDEST SWAP3 SWAP2 POP POP JUMP JUMPDEST PUSH1 0x0 DUP3 PUSH1 0x1F DUP4 ADD SLT PUSH2 0x1290 JUMPI PUSH2 0x128F PUSH2 0x1AEF JUMP JUMPDEST JUMPDEST DUP2 CALLDATALOAD PUSH2 0x12A0 DUP5 DUP3 PUSH1 0x20 DUP7 ADD PUSH2 0x1224 JUMP JUMPDEST SWAP2 POP POP SWAP3 SWAP2 POP POP JUMP JUMPDEST PUSH1 0x0 DUP2 CALLDATALOAD SWAP1 POP PUSH2 0x12B8 DUP2 PUSH2 0x1C1B JUMP JUMPDEST SWAP3 SWAP2 POP POP JUMP JUMPDEST PUSH1 0x0 PUSH1 0x20 DUP3 DUP5 SUB SLT ISZERO PUSH2 0x12D4 JUMPI PUSH2 0x12D3 PUSH2 0x1AFE JUMP JUMPDEST JUMPDEST PUSH1 0x0 PUSH2 0x12E2 DUP5 DUP3 DUP6 ADD PUSH2 0x1266 JUMP JUMPDEST SWAP2 POP POP SWAP3 SWAP2 POP POP JUMP JUMPDEST PUSH1 0x0 DUP1 PUSH1 0x0 PUSH1 0x60 DUP5 DUP7 SUB SLT ISZERO PUSH2 0x1304 JUMPI PUSH2 0x1303 PUSH2 0x1AFE JUMP JUMPDEST JUMPDEST PUSH1 0x0 DUP5 ADD CALLDATALOAD PUSH8 0xFFFFFFFFFFFFFFFF DUP2 GT ISZERO PUSH2 0x1322 JUMPI PUSH2 0x1321 PUSH2 0x1AF9 JUMP JUMPDEST JUMPDEST PUSH2 0x132E DUP7 DUP3 DUP8 ADD PUSH2 0x127B JUMP JUMPDEST SWAP4 POP POP PUSH1 0x20 DUP5 ADD CALLDATALOAD PUSH8 0xFFFFFFFFFFFFFFFF DUP2 GT ISZERO PUSH2 0x134F JUMPI PUSH2 0x134E PUSH2 0x1AF9 JUMP JUMPDEST JUMPDEST PUSH2 0x135B DUP7 DUP3 DUP8 ADD PUSH2 0x127B JUMP JUMPDEST SWAP3 POP POP PUSH1 0x40 DUP5 ADD CALLDATALOAD PUSH8 0xFFFFFFFFFFFFFFFF DUP2 GT ISZERO PUSH2 0x137C JUMPI PUSH2 0x137B PUSH2 0x1AF9 JUMP JUMPDEST JUMPDEST PUSH2 0x1388 DUP7 DUP3 DUP8 ADD PUSH2 0x127B JUMP JUMPDEST SWAP2 POP POP SWAP3 POP SWAP3 POP SWAP3 JUMP JUMPDEST PUSH1 0x0 PUSH1 0x20 DUP3 DUP5 SUB SLT ISZERO PUSH2 0x13A8 JUMPI PUSH2 0x13A7 PUSH2 0x1AFE JUMP JUMPDEST JUMPDEST PUSH1 0x0 PUSH2 0x13B6 DUP5 DUP3 DUP6 ADD PUSH2 0x12A9 JUMP JUMPDEST SWAP2 POP POP SWAP3 SWAP2 POP POP JUMP JUMPDEST PUSH2 0x13C8 DUP2 PUSH2 0x1862 JUMP JUMPDEST DUP3 MSTORE POP POP JUMP JUMPDEST PUSH1 0x0 PUSH2 0x13D9 DUP3 PUSH2 0x17BC JUMP JUMPDEST PUSH2 0x13E3 DUP2 DUP6 PUSH2 0x17C7 JUMP JUMPDEST SWAP4 POP PUSH2 0x13F3 DUP2 DUP6 PUSH1 0x20 DUP7 ADD PUSH2 0x18BD JUMP JUMPDEST PUSH2 0x13FC DUP2 PUSH2 0x1B03 JUMP JUMPDEST DUP5 ADD SWAP2 POP POP SWAP3 SWAP2 POP POP JUMP JUMPDEST PUSH1 0x0 DUP2 SLOAD PUSH2 0x1414 DUP2 PUSH2 0x18F0 JUMP JUMPDEST PUSH2 0x141E DUP2 DUP7 PUSH2 0x17C7 JUMP JUMPDEST SWAP5 POP PUSH1 0x1 DUP3 AND PUSH1 0x0 DUP2 EQ PUSH2 0x1439 JUMPI PUSH1 0x1 DUP2 EQ PUSH2 0x144B JUMPI PUSH2 0x147E JUMP JUMPDEST PUSH1 0xFF NOT DUP4 AND DUP7 MSTORE PUSH1 0x20 DUP7 ADD SWAP4 POP PUSH2 0x147E JUMP JUMPDEST PUSH2 0x1454 DUP6 PUSH2 0x17A7 JUMP JUMPDEST PUSH1 0x0 JUMPDEST DUP4 DUP2 LT ISZERO PUSH2 0x1476 JUMPI DUP2 SLOAD DUP2 DUP10 ADD MSTORE PUSH1 0x1 DUP3 ADD SWAP2 POP PUSH1 0x20 DUP2 ADD SWAP1 POP PUSH2 0x1457 JUMP JUMPDEST DUP1 DUP9 ADD SWAP6 POP POP POP JUMPDEST POP POP POP SWAP3 SWAP2 POP POP JUMP JUMPDEST PUSH1 0x0 PUSH2 0x1494 PUSH1 0x28 DUP4 PUSH2 0x17C7 JUMP JUMPDEST SWAP2 POP PUSH2 0x149F DUP3 PUSH2 0x1B14 JUMP JUMPDEST PUSH1 0x40 DUP3 ADD SWAP1 POP SWAP2 SWAP1 POP JUMP JUMPDEST PUSH1 0x0 PUSH2 0x14B7 PUSH1 0x26 DUP4 PUSH2 0x17C7 JUMP JUMPDEST SWAP2 POP PUSH2 0x14C2 DUP3 PUSH2 0x1B63 JUMP JUMPDEST PUSH1 0x40 DUP3 ADD SWAP1 POP SWAP2 SWAP1 POP JUMP JUMPDEST PUSH1 0x0 PUSH2 0x14DA PUSH1 0x20 DUP4 PUSH2 0x17C7 JUMP JUMPDEST SWAP2 POP PUSH2 0x14E5 DUP3 PUSH2 0x1BB2 JUMP JUMPDEST PUSH1 0x20 DUP3 ADD SWAP1 POP SWAP2 SWAP1 POP JUMP JUMPDEST PUSH1 0x0 PUSH2 0x14FD PUSH1 0x15 DUP4 PUSH2 0x17C7 JUMP JUMPDEST SWAP2 POP PUSH2 0x1508 DUP3 PUSH2 0x1BDB JUMP JUMPDEST PUSH1 0x20 DUP3 ADD SWAP1 POP SWAP2 SWAP1 POP JUMP JUMPDEST PUSH2 0x151C DUP2 PUSH2 0x1894 JUMP JUMPDEST DUP3 MSTORE POP POP JUMP JUMPDEST PUSH2 0x1533 PUSH2 0x152E DUP3 PUSH2 0x1894 JUMP JUMPDEST PUSH2 0x19C9 JUMP JUMPDEST DUP3 MSTORE POP POP JUMP JUMPDEST PUSH2 0x1542 DUP2 PUSH2 0x189E JUMP JUMPDEST DUP3 MSTORE POP POP JUMP JUMPDEST PUSH1 0x0 PUSH2 0x1554 DUP3 DUP7 PUSH2 0x1522 JUMP JUMPDEST PUSH1 0x20 DUP3 ADD SWAP2 POP PUSH2 0x1564 DUP3 DUP6 PUSH2 0x1522 JUMP JUMPDEST PUSH1 0x20 DUP3 ADD SWAP2 POP PUSH2 0x1574 DUP3 DUP5 PUSH2 0x1522 JUMP JUMPDEST PUSH1 0x20 DUP3 ADD SWAP2 POP DUP2 SWAP1 POP SWAP5 SWAP4 POP POP POP POP JUMP JUMPDEST PUSH1 0x0 PUSH1 0x20 DUP3 ADD SWAP1 POP PUSH2 0x159A PUSH1 0x0 DUP4 ADD DUP5 PUSH2 0x13BF JUMP JUMPDEST SWAP3 SWAP2 POP POP JUMP JUMPDEST PUSH1 0x0 PUSH2 0x100 DUP3 ADD SWAP1 POP PUSH2 0x15B6 PUSH1 0x0 DUP4 ADD DUP12 PUSH2 0x13BF JUMP JUMPDEST DUP2 DUP2 SUB PUSH1 0x20 DUP4 ADD MSTORE PUSH2 0x15C8 DUP2 DUP11 PUSH2 0x13CE JUMP JUMPDEST SWAP1 POP DUP2 DUP2 SUB PUSH1 0x40 DUP4 ADD MSTORE PUSH2 0x15DC DUP2 DUP10 PUSH2 0x13CE JUMP JUMPDEST SWAP1 POP DUP2 DUP2 SUB PUSH1 0x60 DUP4 ADD MSTORE PUSH2 0x15F0 DUP2 DUP9 PUSH2 0x13CE JUMP JUMPDEST SWAP1 POP PUSH2 0x15FF PUSH1 0x80 DUP4 ADD DUP8 PUSH2 0x1513 JUMP JUMPDEST PUSH2 0x160C PUSH1 0xA0 DUP4 ADD DUP7 PUSH2 0x1513 JUMP JUMPDEST PUSH2 0x1619 PUSH1 0xC0 DUP4 ADD DUP6 PUSH2 0x1513 JUMP JUMPDEST PUSH2 0x1626 PUSH1 0xE0 DUP4 ADD DUP5 PUSH2 0x1539 JUMP JUMPDEST SWAP10 SWAP9 POP POP POP POP POP POP POP POP POP JUMP JUMPDEST PUSH1 0x0 PUSH1 0x20 DUP3 ADD SWAP1 POP DUP2 DUP2 SUB PUSH1 0x0 DUP4 ADD MSTORE PUSH2 0x164D DUP2 DUP5 PUSH2 0x13CE JUMP JUMPDEST SWAP1 POP SWAP3 SWAP2 POP POP JUMP JUMPDEST PUSH1 0x0 PUSH1 0x80 DUP3 ADD SWAP1 POP DUP2 DUP2 SUB PUSH1 0x0 DUP4 ADD MSTORE PUSH2 0x166F DUP2 DUP8 PUSH2 0x1407 JUMP JUMPDEST SWAP1 POP DUP2 DUP2 SUB PUSH1 0x20 DUP4 ADD MSTORE PUSH2 0x1683 DUP2 DUP7 PUSH2 0x1407 JUMP JUMPDEST SWAP1 POP PUSH2 0x1692 PUSH1 0x40 DUP4 ADD DUP6 PUSH2 0x1539 JUMP JUMPDEST PUSH2 0x169F PUSH1 0x60 DUP4 ADD DUP5 PUSH2 0x1513 JUMP JUMPDEST SWAP6 SWAP5 POP POP POP POP POP JUMP JUMPDEST PUSH1 0x0 PUSH1 0x20 DUP3 ADD SWAP1 POP DUP2 DUP2 SUB PUSH1 0x0 DUP4 ADD MSTORE PUSH2 0x16C1 DUP2 PUSH2 0x1487 JUMP JUMPDEST SWAP1 POP SWAP2 SWAP1 POP JUMP JUMPDEST PUSH1 0x0 PUSH1 0x20 DUP3 ADD SWAP1 POP DUP2 DUP2 SUB PUSH1 0x0 DUP4 ADD MSTORE PUSH2 0x16E1 DUP2 PUSH2 0x14AA JUMP JUMPDEST SWAP1 POP SWAP2 SWAP1 POP JUMP JUMPDEST PUSH1 0x0 PUSH1 0x20 DUP3 ADD SWAP1 POP DUP2 DUP2 SUB PUSH1 0x0 DUP4 ADD MSTORE PUSH2 0x1701 DUP2 PUSH2 0x14CD JUMP JUMPDEST SWAP1 POP SWAP2 SWAP1 POP JUMP JUMPDEST PUSH1 0x0 PUSH1 0x40 DUP3 ADD SWAP1 POP DUP2 DUP2 SUB PUSH1 0x0 DUP4 ADD MSTORE PUSH2 0x1721 DUP2 PUSH2 0x14F0 JUMP JUMPDEST SWAP1 POP PUSH2 0x1730 PUSH1 0x20 DUP4 ADD DUP5 PUSH2 0x1513 JUMP JUMPDEST SWAP3 SWAP2 POP POP JUMP JUMPDEST PUSH1 0x0 PUSH1 0x20 DUP3 ADD SWAP1 POP PUSH2 0x174B PUSH1 0x0 DUP4 ADD DUP5 PUSH2 0x1513 JUMP JUMPDEST SWAP3 SWAP2 POP POP JUMP JUMPDEST PUSH1 0x0 PUSH2 0x175B PUSH2 0x176C JUMP JUMPDEST SWAP1 POP PUSH2 0x1767 DUP3 DUP3 PUSH2 0x1922 JUMP JUMPDEST SWAP2 SWAP1 POP JUMP JUMPDEST PUSH1 0x0 PUSH1 0x40 MLOAD SWAP1 POP SWAP1 JUMP JUMPDEST PUSH1 0x0 PUSH8 0xFFFFFFFFFFFFFFFF DUP3 GT ISZERO PUSH2 0x1791 JUMPI PUSH2 0x1790 PUSH2 0x1AC0 JUMP JUMPDEST JUMPDEST PUSH2 0x179A DUP3 PUSH2 0x1B03 JUMP JUMPDEST SWAP1 POP PUSH1 0x20 DUP2 ADD SWAP1 POP SWAP2 SWAP1 POP JUMP JUMPDEST PUSH1 0x0 DUP2 SWAP1 POP DUP2 PUSH1 0x0 MSTORE PUSH1 0x20 PUSH1 0x0 KECCAK256 SWAP1 POP SWAP2 SWAP1 POP JUMP JUMPDEST PUSH1 0x0 DUP2 MLOAD SWAP1 POP SWAP2 SWAP1 POP JUMP JUMPDEST PUSH1 0x0 DUP3 DUP3 MSTORE PUSH1 0x20 DUP3 ADD SWAP1 POP SWAP3 SWAP2 POP POP JUMP JUMPDEST PUSH1 0x0 PUSH2 0x17E3 DUP3 PUSH2 0x1894 JUMP JUMPDEST SWAP2 POP PUSH2 0x17EE DUP4 PUSH2 0x1894 JUMP JUMPDEST SWAP3 POP DUP3 PUSH32 0xFFFFFFFFFFFFFFFFFFFFFFFFFFFFFFFFFFFFFFFFFFFFFFFFFFFFFFFFFFFFFFFF SUB DUP3 GT ISZERO PUSH2 0x1823 JUMPI PUSH2 0x1822 PUSH2 0x1A04 JUMP JUMPDEST JUMPDEST DUP3 DUP3 ADD SWAP1 POP SWAP3 SWAP2 POP POP JUMP JUMPDEST PUSH1 0x0 PUSH2 0x1839 DUP3 PUSH2 0x1894 JUMP JUMPDEST SWAP2 POP PUSH2 0x1844 DUP4 PUSH2 0x1894 JUMP JUMPDEST SWAP3 POP DUP3 DUP3 LT ISZERO PUSH2 0x1857 JUMPI PUSH2 0x1856 PUSH2 0x1A04 JUMP JUMPDEST JUMPDEST DUP3 DUP3 SUB SWAP1 POP SWAP3 SWAP2 POP POP JUMP JUMPDEST PUSH1 0x0 PUSH2 0x186D DUP3 PUSH2 0x1874 JUMP JUMPDEST SWAP1 POP SWAP2 SWAP1 POP JUMP JUMPDEST PUSH1 0x0 PUSH20 0xFFFFFFFFFFFFFFFFFFFFFFFFFFFFFFFFFFFFFFFF DUP3 AND SWAP1 POP SWAP2 SWAP1 POP JUMP JUMPDEST PUSH1 0x0 DUP2 SWAP1 POP SWAP2 SWAP1 POP JUMP JUMPDEST PUSH1 0x0 PUSH4 0xFFFFFFFF DUP3 AND SWAP1 POP SWAP2 SWAP1 POP JUMP JUMPDEST DUP3 DUP2 DUP4 CALLDATACOPY PUSH1 0x0 DUP4 DUP4 ADD MSTORE POP POP POP JUMP JUMPDEST PUSH1 0x0 JUMPDEST DUP4 DUP2 LT ISZERO PUSH2 0x18DB JUMPI DUP1 DUP3 ADD MLOAD DUP2 DUP5 ADD MSTORE PUSH1 0x20 DUP2 ADD SWAP1 POP PUSH2 0x18C0 JUMP JUMPDEST DUP4 DUP2 GT ISZERO PUSH2 0x18EA JUMPI PUSH1 0x0 DUP5 DUP5 ADD MSTORE JUMPDEST POP POP POP POP JUMP JUMPDEST PUSH1 0x0 PUSH1 0x2 DUP3 DIV SWAP1 POP PUSH1 0x1 DUP3 AND DUP1 PUSH2 0x1908 JUMPI PUSH1 0x7F DUP3 AND SWAP2 POP JUMPDEST PUSH1 0x20 DUP3 LT DUP2 EQ ISZERO PUSH2 0x191C JUMPI PUSH2 0x191B PUSH2 0x1A62 JUMP JUMPDEST JUMPDEST POP SWAP2 SWAP1 POP JUMP JUMPDEST PUSH2 0x192B DUP3 PUSH2 0x1B03 JUMP JUMPDEST DUP2 ADD DUP2 DUP2 LT PUSH8 0xFFFFFFFFFFFFFFFF DUP3 GT OR ISZERO PUSH2 0x194A JUMPI PUSH2 0x1949 PUSH2 0x1AC0 JUMP JUMPDEST JUMPDEST DUP1 PUSH1 0x40 MSTORE POP POP POP JUMP JUMPDEST PUSH1 0x0 PUSH2 0x195E DUP3 PUSH2 0x1894 JUMP JUMPDEST SWAP2 POP PUSH32 0xFFFFFFFFFFFFFFFFFFFFFFFFFFFFFFFFFFFFFFFFFFFFFFFFFFFFFFFFFFFFFFFF DUP3 EQ ISZERO PUSH2 0x1991 JUMPI PUSH2 0x1990 PUSH2 0x1A04 JUMP JUMPDEST JUMPDEST PUSH1 0x1 DUP3 ADD SWAP1 POP SWAP2 SWAP1 POP JUMP JUMPDEST PUSH1 0x0 PUSH2 0x19A7 DUP3 PUSH2 0x189E JUMP JUMPDEST SWAP2 POP PUSH4 0xFFFFFFFF DUP3 EQ ISZERO PUSH2 0x19BE JUMPI PUSH2 0x19BD PUSH2 0x1A04 JUMP JUMPDEST JUMPDEST PUSH1 0x1 DUP3 ADD SWAP1 POP SWAP2 SWAP1 POP JUMP JUMPDEST PUSH1 0x0 DUP2 SWAP1 POP SWAP2 SWAP1 POP JUMP JUMPDEST PUSH1 0x0 PUSH2 0x19DE DUP3 PUSH2 0x1894 JUMP JUMPDEST SWAP2 POP PUSH2 0x19E9 DUP4 PUSH2 0x1894 JUMP JUMPDEST SWAP3 POP DUP3 PUSH2 0x19F9 JUMPI PUSH2 0x19F8 PUSH2 0x1A33 JUMP JUMPDEST JUMPDEST DUP3 DUP3 MOD SWAP1 POP SWAP3 SWAP2 POP POP JUMP JUMPDEST PUSH32 0x4E487B7100000000000000000000000000000000000000000000000000000000 PUSH1 0x0 MSTORE PUSH1 0x11 PUSH1 0x4 MSTORE PUSH1 0x24 PUSH1 0x0 REVERT JUMPDEST PUSH32 0x4E487B7100000000000000000000000000000000000000000000000000000000 PUSH1 0x0 MSTORE PUSH1 0x12 PUSH1 0x4 MSTORE PUSH1 0x24 PUSH1 0x0 REVERT JUMPDEST PUSH32 0x4E487B7100000000000000000000000000000000000000000000000000000000 PUSH1 0x0 MSTORE PUSH1 0x22 PUSH1 0x4 MSTORE PUSH1 0x24 PUSH1 0x0 REVERT JUMPDEST PUSH32 0x4E487B7100000000000000000000000000000000000000000000000000000000 PUSH1 0x0 MSTORE PUSH1 0x32 PUSH1 0x4 MSTORE PUSH1 0x24 PUSH1 0x0 REVERT JUMPDEST PUSH32 0x4E487B7100000000000000000000000000000000000000000000000000000000 PUSH1 0x0 MSTORE PUSH1 0x41 PUSH1 0x4 MSTORE PUSH1 0x24 PUSH1 0x0 REVERT JUMPDEST PUSH1 0x0 DUP1 REVERT JUMPDEST PUSH1 0x0 DUP1 REVERT JUMPDEST PUSH1 0x0 DUP1 REVERT JUMPDEST PUSH1 0x0 DUP1 REVERT JUMPDEST PUSH1 0x0 PUSH1 0x1F NOT PUSH1 0x1F DUP4 ADD AND SWAP1 POP SWAP2 SWAP1 POP JUMP JUMPDEST PUSH32 0x536F6C6F2073652070756564652074656E657220756E20636F63686520706F72 PUSH1 0x0 DUP3 ADD MSTORE PUSH32 0x20706572736F6E61000000000000000000000000000000000000000000000000 PUSH1 0x20 DUP3 ADD MSTORE POP JUMP JUMPDEST PUSH32 0x4F776E61626C653A206E6577206F776E657220697320746865207A65726F2061 PUSH1 0x0 DUP3 ADD MSTORE PUSH32 0x6464726573730000000000000000000000000000000000000000000000000000 PUSH1 0x20 DUP3 ADD MSTORE POP JUMP JUMPDEST PUSH32 0x4F776E61626C653A2063616C6C6572206973206E6F7420746865206F776E6572 PUSH1 0x0 DUP3 ADD MSTORE POP JUMP JUMPDEST PUSH32 0x456C20636F6368652067616E61646F722065733A200000000000000000000000 PUSH1 0x0 DUP3 ADD MSTORE POP JUMP JUMPDEST PUSH2 0x1C0D DUP2 PUSH2 0x1862 JUMP JUMPDEST DUP2 EQ PUSH2 0x1C18 JUMPI PUSH1 0x0 DUP1 REVERT JUMPDEST POP JUMP JUMPDEST PUSH2 0x1C24 DUP2 PUSH2 0x1894 JUMP JUMPDEST DUP2 EQ PUSH2 0x1C2F JUMPI PUSH1 0x0 DUP1 REVERT JUMPDEST POP JUMP INVALID LOG2 PUSH5 0x6970667358 0x22 SLT KECCAK256 0x5E SWAP6 PUSH22 0xD768884C8376B12E3264B8C171D83A65F9BF8796219C SAR 0xB2 PUSH21 0x48DEE6F064736F6C63430008070033000000000000 "
				},
				"gasEstimates": {
					"creation": {
						"codeDepositCost": "1454400",
						"executionCost": "infinite",
						"totalCost": "infinite"
					},
					"external": {
						"Apostar(uint256)": "infinite",
						"_owner()": "2555",
						"anadirCoche(string,string,string)": "infinite",
						"cocheDePropietario(uint256)": "2839",
						"listaCoches(uint256)": "infinite",
						"numeroCochesPersona(address)": "2837",
						"owner()": "2544",
						"renounceOwnership()": "30485",
						"retirarDinero()": "infinite",
						"subirDeNivel(address)": "infinite",
						"transferOwnership(address)": "30833",
						"verCochePropietario(address)": "infinite"
					},
					"internal": {
						"_depositoLleno(struct CarreraCoches.Coche storage pointer)": "infinite",
						"_repostando(struct CarreraCoches.Coche storage pointer)": "infinite",
						"balance()": "infinite",
						"numAleatorio(uint256)": "infinite"
					}
				},
				"methodIdentifiers": {
					"Apostar(uint256)": "6b6f0494",
					"_owner()": "b2bdfa7b",
					"anadirCoche(string,string,string)": "2458c544",
					"cocheDePropietario(uint256)": "858b0554",
					"listaCoches(uint256)": "d735573d",
					"numeroCochesPersona(address)": "1c6743e4",
					"owner()": "8da5cb5b",
					"renounceOwnership()": "715018a6",
					"retirarDinero()": "1bfdc150",
					"subirDeNivel(address)": "6a7d1816",
					"transferOwnership(address)": "f2fde38b",
					"verCochePropietario(address)": "e172fca8"
				}
			},
			"storageLayout": {
				"storage": [
					{
						"astId": 7,
						"contract": "contracts/CarreraCoches/principal.sol:CarreraCoches",
						"label": "_owner",
						"offset": 0,
						"slot": "0",
						"type": "t_address"
					},
					{
						"astId": 129,
						"contract": "contracts/CarreraCoches/principal.sol:CarreraCoches",
						"label": "randNonce",
						"offset": 0,
						"slot": "1",
						"type": "t_uint256"
					},
					{
						"astId": 132,
						"contract": "contracts/CarreraCoches/principal.sol:CarreraCoches",
						"label": "contador",
						"offset": 0,
						"slot": "2",
						"type": "t_uint256"
					},
					{
						"astId": 135,
						"contract": "contracts/CarreraCoches/principal.sol:CarreraCoches",
						"label": "cooldown",
						"offset": 0,
						"slot": "3",
						"type": "t_uint256"
					},
					{
						"astId": 138,
						"contract": "contracts/CarreraCoches/principal.sol:CarreraCoches",
						"label": "subirNivel",
						"offset": 0,
						"slot": "4",
						"type": "t_uint256"
					},
					{
						"astId": 142,
						"contract": "contracts/CarreraCoches/principal.sol:CarreraCoches",
						"label": "listaCoches",
						"offset": 0,
						"slot": "5",
						"type": "t_array(t_struct(Coche)126_storage)dyn_storage"
					},
					{
						"astId": 170,
						"contract": "contracts/CarreraCoches/principal.sol:CarreraCoches",
						"label": "cocheDePropietario",
						"offset": 0,
						"slot": "6",
						"type": "t_mapping(t_uint256,t_address)"
					},
					{
						"astId": 174,
						"contract": "contracts/CarreraCoches/principal.sol:CarreraCoches",
						"label": "numeroCochesPersona",
						"offset": 0,
						"slot": "7",
						"type": "t_mapping(t_address,t_uint256)"
					}
				],
				"types": {
					"t_address": {
						"encoding": "inplace",
						"label": "address",
						"numberOfBytes": "20"
					},
					"t_array(t_struct(Coche)126_storage)dyn_storage": {
						"base": "t_struct(Coche)126_storage",
						"encoding": "dynamic_array",
						"label": "struct CarreraCoches.Coche[]",
						"numberOfBytes": "32"
					},
					"t_mapping(t_address,t_uint256)": {
						"encoding": "mapping",
						"key": "t_address",
						"label": "mapping(address => uint256)",
						"numberOfBytes": "32",
						"value": "t_uint256"
					},
					"t_mapping(t_uint256,t_address)": {
						"encoding": "mapping",
						"key": "t_uint256",
						"label": "mapping(uint256 => address)",
						"numberOfBytes": "32",
						"value": "t_address"
					},
					"t_string_storage": {
						"encoding": "bytes",
						"label": "string",
						"numberOfBytes": "32"
					},
					"t_struct(Coche)126_storage": {
						"encoding": "inplace",
						"label": "struct CarreraCoches.Coche",
						"members": [
							{
								"astId": 111,
								"contract": "contracts/CarreraCoches/principal.sol:CarreraCoches",
								"label": "idPiloto",
								"offset": 0,
								"slot": "0",
								"type": "t_address"
							},
							{
								"astId": 113,
								"contract": "contracts/CarreraCoches/principal.sol:CarreraCoches",
								"label": "modelo",
								"offset": 0,
								"slot": "1",
								"type": "t_string_storage"
							},
							{
								"astId": 115,
								"contract": "contracts/CarreraCoches/principal.sol:CarreraCoches",
								"label": "marca",
								"offset": 0,
								"slot": "2",
								"type": "t_string_storage"
							},
							{
								"astId": 117,
								"contract": "contracts/CarreraCoches/principal.sol:CarreraCoches",
								"label": "nombrePiloto",
								"offset": 0,
								"slot": "3",
								"type": "t_string_storage"
							},
							{
								"astId": 119,
								"contract": "contracts/CarreraCoches/principal.sol:CarreraCoches",
								"label": "carrerasGanadas",
								"offset": 0,
								"slot": "4",
								"type": "t_uint256"
							},
							{
								"astId": 121,
								"contract": "contracts/CarreraCoches/principal.sol:CarreraCoches",
								"label": "carrerasTotales",
								"offset": 0,
								"slot": "5",
								"type": "t_uint256"
							},
							{
								"astId": 123,
								"contract": "contracts/CarreraCoches/principal.sol:CarreraCoches",
								"label": "tiempoEspera",
								"offset": 0,
								"slot": "6",
								"type": "t_uint256"
							},
							{
								"astId": 125,
								"contract": "contracts/CarreraCoches/principal.sol:CarreraCoches",
								"label": "nivel",
								"offset": 0,
								"slot": "7",
								"type": "t_uint32"
							}
						],
						"numberOfBytes": "256"
					},
					"t_uint256": {
						"encoding": "inplace",
						"label": "uint256",
						"numberOfBytes": "32"
					},
					"t_uint32": {
						"encoding": "inplace",
						"label": "uint32",
						"numberOfBytes": "4"
					}
				}
			},
			"userdoc": {
				"kind": "user",
				"methods": {},
				"version": 1
			}
		}
	}
}