{
	"contracts/CarreraCoches/main.sol": {
		"CarreraCoches": {
			"abi": [
				{
					"anonymous": false,
					"inputs": [
						{
							"indexed": true,
							"internalType": "address",
							"name": "previousOwner",
							"type": "address"
						},
						{
							"indexed": true,
							"internalType": "address",
							"name": "newOwner",
							"type": "address"
						}
					],
					"name": "OwnershipTransferred",
					"type": "event"
				},
				{
					"anonymous": false,
					"inputs": [
						{
							"indexed": false,
							"internalType": "string",
							"name": "ms",
							"type": "string"
						},
						{
							"indexed": false,
							"internalType": "uint256",
							"name": "res",
							"type": "uint256"
						}
					],
					"name": "mostrarResultado",
					"type": "event"
				},
				{
					"inputs": [
						{
							"internalType": "uint256",
							"name": "dineroApostar",
							"type": "uint256"
						}
					],
					"name": "Apostar",
					"outputs": [
						{
							"internalType": "string",
							"name": "",
							"type": "string"
						}
					],
					"stateMutability": "payable",
					"type": "function"
				},
				{
					"inputs": [
						{
							"internalType": "string",
							"name": "_modelo",
							"type": "string"
						},
						{
							"internalType": "string",
							"name": "_marca",
							"type": "string"
						},
						{
							"internalType": "string",
							"name": "_nombrePiloto",
							"type": "string"
						}
					],
					"name": "anadirCoche",
					"outputs": [
						{
							"internalType": "uint256",
							"name": "",
							"type": "uint256"
						}
					],
					"stateMutability": "nonpayable",
					"type": "function"
				},
				{
					"inputs": [
						{
							"internalType": "uint256",
							"name": "dineroApostar",
							"type": "uint256"
						}
					],
					"name": "carrera",
					"outputs": [
						{
							"internalType": "string",
							"name": "",
							"type": "string"
						}
					],
					"stateMutability": "payable",
					"type": "function"
				},
				{
					"inputs": [
						{
							"internalType": "uint256",
							"name": "",
							"type": "uint256"
						}
					],
					"name": "listaCoches",
					"outputs": [
						{
							"internalType": "address",
							"name": "idPiloto",
							"type": "address"
						},
						{
							"internalType": "string",
							"name": "modelo",
							"type": "string"
						},
						{
							"internalType": "string",
							"name": "marca",
							"type": "string"
						},
						{
							"internalType": "string",
							"name": "nombrePiloto",
							"type": "string"
						},
						{
							"internalType": "uint256",
							"name": "carrerasGanadas",
							"type": "uint256"
						},
						{
							"internalType": "uint256",
							"name": "carrerasTotales",
							"type": "uint256"
						},
						{
							"internalType": "uint256",
							"name": "tiempoEspera",
							"type": "uint256"
						}
					],
					"stateMutability": "view",
					"type": "function"
				},
				{
					"inputs": [],
					"name": "numeroAleatorio",
					"outputs": [
						{
							"internalType": "uint256",
							"name": "",
							"type": "uint256"
						}
					],
					"stateMutability": "nonpayable",
					"type": "function"
				},
				{
					"inputs": [
						{
							"internalType": "address",
							"name": "",
							"type": "address"
						}
					],
					"name": "numeroCochesPersona",
					"outputs": [
						{
							"internalType": "uint256",
							"name": "",
							"type": "uint256"
						}
					],
					"stateMutability": "view",
					"type": "function"
				},
				{
					"inputs": [],
					"name": "owner",
					"outputs": [
						{
							"internalType": "address",
							"name": "",
							"type": "address"
						}
					],
					"stateMutability": "view",
					"type": "function"
				},
				{
					"inputs": [],
					"name": "renounceOwnership",
					"outputs": [],
					"stateMutability": "nonpayable",
					"type": "function"
				},
				{
					"inputs": [
						{
							"internalType": "address",
							"name": "newOwner",
							"type": "address"
						}
					],
					"name": "transferOwnership",
					"outputs": [],
					"stateMutability": "nonpayable",
					"type": "function"
				}
			],
			"devdoc": {
				"kind": "dev",
				"methods": {
					"owner()": {
						"details": "Returns the address of the current owner."
					},
					"renounceOwnership()": {
						"details": "Leaves the contract without owner. It will not be possible to call `onlyOwner` functions anymore. Can only be called by the current owner. NOTE: Renouncing ownership will leave the contract without an owner, thereby removing any functionality that is only available to the owner."
					},
					"transferOwnership(address)": {
						"details": "Transfers ownership of the contract to a new account (`newOwner`). Can only be called by the current owner."
					}
				},
				"version": 1
			},
			"evm": {
				"assembly": "    /* \"contracts/CarreraCoches/main.sol\":54:3906  contract CarreraCoches is Ownable {\r... */\n  mstore(0x40, 0x80)\n    /* \"contracts/CarreraCoches/main.sol\":347:348  0 */\n  0x00\n    /* \"contracts/CarreraCoches/main.sol\":330:348  uint randNonce = 0 */\n  0x01\n  sstore\n    /* \"contracts/CarreraCoches/main.sol\":471:472  0 */\n  0x00\n    /* \"contracts/CarreraCoches/main.sol\":455:472  uint contador = 0 */\n  0x02\n  sstore\n    /* \"contracts/CarreraCoches/main.sol\":495:505  60 seconds */\n  0x3c\n    /* \"contracts/CarreraCoches/main.sol\":479:505  uint cooldown = 60 seconds */\n  0x03\n  sstore\n    /* \"contracts/CarreraCoches/main.sol\":54:3906  contract CarreraCoches is Ownable {\r... */\n  callvalue\n  dup1\n  iszero\n  tag_1\n  jumpi\n  0x00\n  dup1\n  revert\ntag_1:\n  pop\n    /* \"contracts/CarreraCoches/ownable.sol\":948:980  _transferOwnership(_msgSender()) */\n  tag_4\n    /* \"contracts/CarreraCoches/ownable.sol\":967:979  _msgSender() */\n  tag_5\n    /* \"contracts/CarreraCoches/ownable.sol\":967:977  _msgSender */\n  shl(0x20, tag_6)\n    /* \"contracts/CarreraCoches/ownable.sol\":967:979  _msgSender() */\n  0x20\n  shr\n  jump\t// in\ntag_5:\n    /* \"contracts/CarreraCoches/ownable.sol\":948:966  _transferOwnership */\n  shl(0x20, tag_7)\n    /* \"contracts/CarreraCoches/ownable.sol\":948:980  _transferOwnership(_msgSender()) */\n  0x20\n  shr\n  jump\t// in\ntag_4:\n    /* \"contracts/CarreraCoches/main.sol\":54:3906  contract CarreraCoches is Ownable {\r... */\n  jump(tag_8)\n    /* \"contracts/CarreraCoches/utils/Context.sol\":656:754  function _msgSender() internal view virtual returns (address) {\r... */\ntag_6:\n    /* \"contracts/CarreraCoches/utils/Context.sol\":709:716  address */\n  0x00\n    /* \"contracts/CarreraCoches/utils/Context.sol\":736:746  msg.sender */\n  caller\n    /* \"contracts/CarreraCoches/utils/Context.sol\":729:746  return msg.sender */\n  swap1\n  pop\n    /* \"contracts/CarreraCoches/utils/Context.sol\":656:754  function _msgSender() internal view virtual returns (address) {\r... */\n  swap1\n  jump\t// out\n    /* \"contracts/CarreraCoches/ownable.sol\":2339:2530  function _transferOwnership(address newOwner) internal virtual {\r... */\ntag_7:\n    /* \"contracts/CarreraCoches/ownable.sol\":2413:2429  address oldOwner */\n  0x00\n    /* \"contracts/CarreraCoches/ownable.sol\":2432:2438  _owner */\n  dup1\n  0x00\n  swap1\n  sload\n  swap1\n  0x0100\n  exp\n  swap1\n  div\n  0xffffffffffffffffffffffffffffffffffffffff\n  and\n    /* \"contracts/CarreraCoches/ownable.sol\":2413:2438  address oldOwner = _owner */\n  swap1\n  pop\n    /* \"contracts/CarreraCoches/ownable.sol\":2458:2466  newOwner */\n  dup2\n    /* \"contracts/CarreraCoches/ownable.sol\":2449:2455  _owner */\n  0x00\n  dup1\n    /* \"contracts/CarreraCoches/ownable.sol\":2449:2466  _owner = newOwner */\n  0x0100\n  exp\n  dup2\n  sload\n  dup2\n  0xffffffffffffffffffffffffffffffffffffffff\n  mul\n  not\n  and\n  swap1\n  dup4\n  0xffffffffffffffffffffffffffffffffffffffff\n  and\n  mul\n  or\n  swap1\n  sstore\n  pop\n    /* \"contracts/CarreraCoches/ownable.sol\":2513:2521  newOwner */\n  dup2\n    /* \"contracts/CarreraCoches/ownable.sol\":2482:2522  OwnershipTransferred(oldOwner, newOwner) */\n  0xffffffffffffffffffffffffffffffffffffffff\n  and\n    /* \"contracts/CarreraCoches/ownable.sol\":2503:2511  oldOwner */\n  dup2\n    /* \"contracts/CarreraCoches/ownable.sol\":2482:2522  OwnershipTransferred(oldOwner, newOwner) */\n  0xffffffffffffffffffffffffffffffffffffffff\n  and\n  0x8be0079c531659141344cd1fd0a4f28419497f9722a3daafe3b4186f6b6457e0\n  mload(0x40)\n  mload(0x40)\n  dup1\n  swap2\n  sub\n  swap1\n  log3\n    /* \"contracts/CarreraCoches/ownable.sol\":2402:2530  {\r... */\n  pop\n    /* \"contracts/CarreraCoches/ownable.sol\":2339:2530  function _transferOwnership(address newOwner) internal virtual {\r... */\n  pop\n  jump\t// out\n    /* \"contracts/CarreraCoches/main.sol\":54:3906  contract CarreraCoches is Ownable {\r... */\ntag_8:\n  dataSize(sub_0)\n  dup1\n  dataOffset(sub_0)\n  0x00\n  codecopy\n  0x00\n  return\nstop\n\nsub_0: assembly {\n        /* \"contracts/CarreraCoches/main.sol\":54:3906  contract CarreraCoches is Ownable {\r... */\n      mstore(0x40, 0x80)\n      jumpi(tag_1, lt(calldatasize, 0x04))\n      shr(0xe0, calldataload(0x00))\n      dup1\n      0x715018a6\n      gt\n      tag_11\n      jumpi\n      dup1\n      0x715018a6\n      eq\n      tag_6\n      jumpi\n      dup1\n      0x8da5cb5b\n      eq\n      tag_7\n      jumpi\n      dup1\n      0xd735573d\n      eq\n      tag_8\n      jumpi\n      dup1\n      0xf1413763\n      eq\n      tag_9\n      jumpi\n      dup1\n      0xf2fde38b\n      eq\n      tag_10\n      jumpi\n      jump(tag_1)\n    tag_11:\n      dup1\n      0x12a1c2ca\n      eq\n      tag_2\n      jumpi\n      dup1\n      0x1c6743e4\n      eq\n      tag_3\n      jumpi\n      dup1\n      0x2458c544\n      eq\n      tag_4\n      jumpi\n      dup1\n      0x6b6f0494\n      eq\n      tag_5\n      jumpi\n    tag_1:\n      0x00\n      dup1\n      revert\n        /* \"contracts/CarreraCoches/main.sol\":1807:2796  function carrera(uint dineroApostar) payable public returns(string memory) {\r... */\n    tag_2:\n      tag_12\n      0x04\n      dup1\n      calldatasize\n      sub\n      dup2\n      add\n      swap1\n      tag_13\n      swap2\n      swap1\n      tag_14\n      jump\t// in\n    tag_13:\n      tag_15\n      jump\t// in\n    tag_12:\n      mload(0x40)\n      tag_16\n      swap2\n      swap1\n      tag_17\n      jump\t// in\n    tag_16:\n      mload(0x40)\n      dup1\n      swap2\n      sub\n      swap1\n      return\n        /* \"contracts/CarreraCoches/main.sol\":601:653  mapping (address => uint) public numeroCochesPersona */\n    tag_3:\n      callvalue\n      dup1\n      iszero\n      tag_18\n      jumpi\n      0x00\n      dup1\n      revert\n    tag_18:\n      pop\n      tag_19\n      0x04\n      dup1\n      calldatasize\n      sub\n      dup2\n      add\n      swap1\n      tag_20\n      swap2\n      swap1\n      tag_21\n      jump\t// in\n    tag_20:\n      tag_22\n      jump\t// in\n    tag_19:\n      mload(0x40)\n      tag_23\n      swap2\n      swap1\n      tag_24\n      jump\t// in\n    tag_23:\n      mload(0x40)\n      dup1\n      swap2\n      sub\n      swap1\n      return\n        /* \"contracts/CarreraCoches/main.sol\":896:1248  function anadirCoche(string memory _modelo, string memory _marca, string memory _nombrePiloto) public restriccion returns (uint) {\r... */\n    tag_4:\n      callvalue\n      dup1\n      iszero\n      tag_25\n      jumpi\n      0x00\n      dup1\n      revert\n    tag_25:\n      pop\n      tag_26\n      0x04\n      dup1\n      calldatasize\n      sub\n      dup2\n      add\n      swap1\n      tag_27\n      swap2\n      swap1\n      tag_28\n      jump\t// in\n    tag_27:\n      tag_29\n      jump\t// in\n    tag_26:\n      mload(0x40)\n      tag_30\n      swap2\n      swap1\n      tag_24\n      jump\t// in\n    tag_30:\n      mload(0x40)\n      dup1\n      swap2\n      sub\n      swap1\n      return\n        /* \"contracts/CarreraCoches/main.sol\":2915:3748  function Apostar(uint dineroApostar) payable public returns(string memory) {\r... */\n    tag_5:\n      tag_31\n      0x04\n      dup1\n      calldatasize\n      sub\n      dup2\n      add\n      swap1\n      tag_32\n      swap2\n      swap1\n      tag_14\n      jump\t// in\n    tag_32:\n      tag_33\n      jump\t// in\n    tag_31:\n      mload(0x40)\n      tag_34\n      swap2\n      swap1\n      tag_17\n      jump\t// in\n    tag_34:\n      mload(0x40)\n      dup1\n      swap2\n      sub\n      swap1\n      return\n        /* \"contracts/CarreraCoches/ownable.sol\":1720:1823  function renounceOwnership() public virtual onlyOwner {\r... */\n    tag_6:\n      callvalue\n      dup1\n      iszero\n      tag_35\n      jumpi\n      0x00\n      dup1\n      revert\n    tag_35:\n      pop\n      tag_36\n      tag_37\n      jump\t// in\n    tag_36:\n      stop\n        /* \"contracts/CarreraCoches/ownable.sol\":1069:1156  function owner() public view virtual returns (address) {\r... */\n    tag_7:\n      callvalue\n      dup1\n      iszero\n      tag_38\n      jumpi\n      0x00\n      dup1\n      revert\n    tag_38:\n      pop\n      tag_39\n      tag_40\n      jump\t// in\n    tag_39:\n      mload(0x40)\n      tag_41\n      swap2\n      swap1\n      tag_42\n      jump\t// in\n    tag_41:\n      mload(0x40)\n      dup1\n      swap2\n      sub\n      swap1\n      return\n        /* \"contracts/CarreraCoches/main.sol\":514:540  Coche[] public listaCoches */\n    tag_8:\n      callvalue\n      dup1\n      iszero\n      tag_43\n      jumpi\n      0x00\n      dup1\n      revert\n    tag_43:\n      pop\n      tag_44\n      0x04\n      dup1\n      calldatasize\n      sub\n      dup2\n      add\n      swap1\n      tag_45\n      swap2\n      swap1\n      tag_14\n      jump\t// in\n    tag_45:\n      tag_46\n      jump\t// in\n    tag_44:\n      mload(0x40)\n      tag_47\n      swap8\n      swap7\n      swap6\n      swap5\n      swap4\n      swap3\n      swap2\n      swap1\n      tag_48\n      jump\t// in\n    tag_47:\n      mload(0x40)\n      dup1\n      swap2\n      sub\n      swap1\n      return\n        /* \"contracts/CarreraCoches/main.sol\":1578:1797  function numeroAleatorio() public returns (uint256) {\r... */\n    tag_9:\n      callvalue\n      dup1\n      iszero\n      tag_49\n      jumpi\n      0x00\n      dup1\n      revert\n    tag_49:\n      pop\n      tag_50\n      tag_51\n      jump\t// in\n    tag_50:\n      mload(0x40)\n      tag_52\n      swap2\n      swap1\n      tag_24\n      jump\t// in\n    tag_52:\n      mload(0x40)\n      dup1\n      swap2\n      sub\n      swap1\n      return\n        /* \"contracts/CarreraCoches/ownable.sol\":1978:2179  function transferOwnership(address newOwner) public virtual onlyOwner {\r... */\n    tag_10:\n      callvalue\n      dup1\n      iszero\n      tag_53\n      jumpi\n      0x00\n      dup1\n      revert\n    tag_53:\n      pop\n      tag_54\n      0x04\n      dup1\n      calldatasize\n      sub\n      dup2\n      add\n      swap1\n      tag_55\n      swap2\n      swap1\n      tag_21\n      jump\t// in\n    tag_55:\n      tag_56\n      jump\t// in\n    tag_54:\n      stop\n        /* \"contracts/CarreraCoches/main.sol\":1807:2796  function carrera(uint dineroApostar) payable public returns(string memory) {\r... */\n    tag_15:\n        /* \"contracts/CarreraCoches/main.sol\":1867:1880  string memory */\n      0x60\n        /* \"contracts/CarreraCoches/main.sol\":1914:1927  dineroApostar */\n      dup2\n        /* \"contracts/CarreraCoches/main.sol\":1901:1910  msg.value */\n      callvalue\n        /* \"contracts/CarreraCoches/main.sol\":1901:1927  msg.value == dineroApostar */\n      eq\n        /* \"contracts/CarreraCoches/main.sol\":1893:1928  require(msg.value == dineroApostar) */\n      tag_58\n      jumpi\n      0x00\n      dup1\n      revert\n    tag_58:\n        /* \"contracts/CarreraCoches/main.sol\":1949:1958  randNonce */\n      0x01\n      0x00\n        /* \"contracts/CarreraCoches/main.sol\":1949:1960  randNonce++ */\n      dup2\n      sload\n      dup1\n      swap3\n      swap2\n      swap1\n      tag_59\n      swap1\n      tag_60\n      jump\t// in\n    tag_59:\n      swap2\n      swap1\n      pop\n      sstore\n      pop\n        /* \"contracts/CarreraCoches/main.sol\":2007:2020  uint256 rival */\n      0x00\n        /* \"contracts/CarreraCoches/main.sol\":2110:2121  listaCoches */\n      0x04\n        /* \"contracts/CarreraCoches/main.sol\":2110:2128  listaCoches.length */\n      dup1\n      sload\n      swap1\n      pop\n        /* \"contracts/CarreraCoches/main.sol\":2058:2073  block.timestamp */\n      timestamp\n        /* \"contracts/CarreraCoches/main.sol\":2075:2086  listaCoches */\n      0x04\n        /* \"contracts/CarreraCoches/main.sol\":2075:2093  listaCoches.length */\n      dup1\n      sload\n      swap1\n      pop\n        /* \"contracts/CarreraCoches/main.sol\":2095:2104  randNonce */\n      sload(0x01)\n        /* \"contracts/CarreraCoches/main.sol\":2041:2105  abi.encodePacked(block.timestamp, listaCoches.length, randNonce) */\n      add(0x20, mload(0x40))\n      tag_61\n      swap4\n      swap3\n      swap2\n      swap1\n      tag_62\n      jump\t// in\n    tag_61:\n      mload(0x40)\n      0x20\n      dup2\n      dup4\n      sub\n      sub\n      dup2\n      mstore\n      swap1\n      0x40\n      mstore\n        /* \"contracts/CarreraCoches/main.sol\":2031:2106  keccak256(abi.encodePacked(block.timestamp, listaCoches.length, randNonce)) */\n      dup1\n      mload\n      swap1\n      0x20\n      add\n      keccak256\n        /* \"contracts/CarreraCoches/main.sol\":2023:2107  uint256(keccak256(abi.encodePacked(block.timestamp, listaCoches.length, randNonce))) */\n      0x00\n      shr\n        /* \"contracts/CarreraCoches/main.sol\":2023:2128  uint256(keccak256(abi.encodePacked(block.timestamp, listaCoches.length, randNonce))) % listaCoches.length */\n      tag_63\n      swap2\n      swap1\n      tag_64\n      jump\t// in\n    tag_63:\n        /* \"contracts/CarreraCoches/main.sol\":2007:2128  uint256 rival = uint256(keccak256(abi.encodePacked(block.timestamp, listaCoches.length, randNonce))) % listaCoches.length */\n      swap1\n      pop\n        /* \"contracts/CarreraCoches/main.sol\":2171:2182  uint numero */\n      0x00\n        /* \"contracts/CarreraCoches/main.sol\":2185:2186  2 */\n      0x02\n        /* \"contracts/CarreraCoches/main.sol\":2171:2186  uint numero = 2 */\n      swap1\n      pop\n        /* \"contracts/CarreraCoches/main.sol\":2197:2212  uint256 ganador */\n      0x00\n        /* \"contracts/CarreraCoches/main.sol\":2290:2296  numero */\n      dup2\n        /* \"contracts/CarreraCoches/main.sol\":2250:2265  block.timestamp */\n      timestamp\n        /* \"contracts/CarreraCoches/main.sol\":2267:2273  numero */\n      dup4\n        /* \"contracts/CarreraCoches/main.sol\":2275:2284  randNonce */\n      sload(0x01)\n        /* \"contracts/CarreraCoches/main.sol\":2233:2285  abi.encodePacked(block.timestamp, numero, randNonce) */\n      add(0x20, mload(0x40))\n      tag_65\n      swap4\n      swap3\n      swap2\n      swap1\n      tag_62\n      jump\t// in\n    tag_65:\n      mload(0x40)\n      0x20\n      dup2\n      dup4\n      sub\n      sub\n      dup2\n      mstore\n      swap1\n      0x40\n      mstore\n        /* \"contracts/CarreraCoches/main.sol\":2223:2286  keccak256(abi.encodePacked(block.timestamp, numero, randNonce)) */\n      dup1\n      mload\n      swap1\n      0x20\n      add\n      keccak256\n        /* \"contracts/CarreraCoches/main.sol\":2215:2287  uint256(keccak256(abi.encodePacked(block.timestamp, numero, randNonce))) */\n      0x00\n      shr\n        /* \"contracts/CarreraCoches/main.sol\":2215:2296  uint256(keccak256(abi.encodePacked(block.timestamp, numero, randNonce))) % numero */\n      tag_66\n      swap2\n      swap1\n      tag_64\n      jump\t// in\n    tag_66:\n        /* \"contracts/CarreraCoches/main.sol\":2197:2296  uint256 ganador = uint256(keccak256(abi.encodePacked(block.timestamp, numero, randNonce))) % numero */\n      swap1\n      pop\n        /* \"contracts/CarreraCoches/main.sol\":2313:2319  uint i */\n      0x00\n        /* \"contracts/CarreraCoches/main.sol\":2309:2779  for(uint i = 0; i < listaCoches.length; i++){\r... */\n    tag_67:\n        /* \"contracts/CarreraCoches/main.sol\":2329:2340  listaCoches */\n      0x04\n        /* \"contracts/CarreraCoches/main.sol\":2329:2347  listaCoches.length */\n      dup1\n      sload\n      swap1\n      pop\n        /* \"contracts/CarreraCoches/main.sol\":2325:2326  i */\n      dup2\n        /* \"contracts/CarreraCoches/main.sol\":2325:2347  i < listaCoches.length */\n      lt\n        /* \"contracts/CarreraCoches/main.sol\":2309:2779  for(uint i = 0; i < listaCoches.length; i++){\r... */\n      iszero\n      tag_68\n      jumpi\n        /* \"contracts/CarreraCoches/main.sol\":2376:2406  _depositoLleno(listaCoches[i]) */\n      tag_70\n        /* \"contracts/CarreraCoches/main.sol\":2391:2402  listaCoches */\n      0x04\n        /* \"contracts/CarreraCoches/main.sol\":2403:2404  i */\n      dup3\n        /* \"contracts/CarreraCoches/main.sol\":2391:2405  listaCoches[i] */\n      dup2\n      sload\n      dup2\n      lt\n      tag_71\n      jumpi\n      tag_72\n      tag_73\n      jump\t// in\n    tag_72:\n    tag_71:\n      swap1\n      0x00\n      mstore\n      keccak256(0x00, 0x20)\n      swap1\n      0x07\n      mul\n      add\n        /* \"contracts/CarreraCoches/main.sol\":2376:2390  _depositoLleno */\n      tag_75\n        /* \"contracts/CarreraCoches/main.sol\":2376:2406  _depositoLleno(listaCoches[i]) */\n      jump\t// in\n    tag_70:\n        /* \"contracts/CarreraCoches/main.sol\":2368:2407  require(_depositoLleno(listaCoches[i])) */\n      tag_76\n      jumpi\n      0x00\n      dup1\n      revert\n    tag_76:\n        /* \"contracts/CarreraCoches/main.sol\":2440:2451  listaCoches */\n      0x04\n        /* \"contracts/CarreraCoches/main.sol\":2452:2453  i */\n      dup2\n        /* \"contracts/CarreraCoches/main.sol\":2440:2454  listaCoches[i] */\n      dup2\n      sload\n      dup2\n      lt\n      tag_77\n      jumpi\n      tag_78\n      tag_73\n      jump\t// in\n    tag_78:\n    tag_77:\n      swap1\n      0x00\n      mstore\n      keccak256(0x00, 0x20)\n      swap1\n      0x07\n      mul\n      add\n        /* \"contracts/CarreraCoches/main.sol\":2440:2463  listaCoches[i].idPiloto */\n      0x00\n      add\n      0x00\n      swap1\n      sload\n      swap1\n      0x0100\n      exp\n      swap1\n      div\n      0xffffffffffffffffffffffffffffffffffffffff\n      and\n        /* \"contracts/CarreraCoches/main.sol\":2426:2463  msg.sender == listaCoches[i].idPiloto */\n      0xffffffffffffffffffffffffffffffffffffffff\n      and\n        /* \"contracts/CarreraCoches/main.sol\":2426:2436  msg.sender */\n      caller\n        /* \"contracts/CarreraCoches/main.sol\":2426:2463  msg.sender == listaCoches[i].idPiloto */\n      0xffffffffffffffffffffffffffffffffffffffff\n      and\n      eq\n        /* \"contracts/CarreraCoches/main.sol\":2422:2768  if (msg.sender == listaCoches[i].idPiloto) {\r... */\n      iszero\n      tag_80\n      jumpi\n        /* \"contracts/CarreraCoches/main.sol\":2498:2499  0 */\n      0x00\n        /* \"contracts/CarreraCoches/main.sol\":2487:2494  ganador */\n      dup3\n        /* \"contracts/CarreraCoches/main.sol\":2487:2499  ganador == 0 */\n      eq\n        /* \"contracts/CarreraCoches/main.sol\":2484:2664  if(ganador == 0){\r... */\n      iszero\n      tag_81\n      jumpi\n        /* \"contracts/CarreraCoches/main.sol\":2519:2538  return \"Has ganado\" */\n      mload(0x40)\n      dup1\n      0x40\n      add\n      0x40\n      mstore\n      dup1\n      0x0a\n      dup2\n      mstore\n      0x20\n      add\n      0x4861732067616e61646f00000000000000000000000000000000000000000000\n      dup2\n      mstore\n      pop\n      swap5\n      pop\n      pop\n      pop\n      pop\n      pop\n      jump(tag_57)\n        /* \"contracts/CarreraCoches/main.sol\":2484:2664  if(ganador == 0){\r... */\n    tag_81:\n        /* \"contracts/CarreraCoches/main.sol\":2628:2648  return \"Has perdido\" */\n      mload(0x40)\n      dup1\n      0x40\n      add\n      0x40\n      mstore\n      dup1\n      0x0b\n      dup2\n      mstore\n      0x20\n      add\n      0x486173207065726469646f000000000000000000000000000000000000000000\n      dup2\n      mstore\n      pop\n      swap5\n      pop\n      pop\n      pop\n      pop\n      pop\n      jump(tag_57)\n        /* \"contracts/CarreraCoches/main.sol\":2422:2768  if (msg.sender == listaCoches[i].idPiloto) {\r... */\n    tag_80:\n        /* \"contracts/CarreraCoches/main.sol\":2349:2352  i++ */\n      dup1\n      dup1\n      tag_96\n      swap1\n      tag_60\n      jump\t// in\n    tag_96:\n      swap2\n      pop\n      pop\n        /* \"contracts/CarreraCoches/main.sol\":2309:2779  for(uint i = 0; i < listaCoches.length; i++){\r... */\n      jump(tag_67)\n    tag_68:\n      pop\n        /* \"contracts/CarreraCoches/main.sol\":1882:2796  {\r... */\n      pop\n      pop\n      pop\n        /* \"contracts/CarreraCoches/main.sol\":1807:2796  function carrera(uint dineroApostar) payable public returns(string memory) {\r... */\n    tag_57:\n      swap2\n      swap1\n      pop\n      jump\t// out\n        /* \"contracts/CarreraCoches/main.sol\":601:653  mapping (address => uint) public numeroCochesPersona */\n    tag_22:\n      mstore(0x20, 0x05)\n      dup1\n      0x00\n      mstore\n      keccak256(0x00, 0x40)\n      0x00\n      swap2\n      pop\n      swap1\n      pop\n      sload\n      dup2\n      jump\t// out\n        /* \"contracts/CarreraCoches/main.sol\":896:1248  function anadirCoche(string memory _modelo, string memory _marca, string memory _nombrePiloto) public restriccion returns (uint) {\r... */\n    tag_29:\n        /* \"contracts/CarreraCoches/main.sol\":1019:1023  uint */\n      0x00\n        /* \"contracts/CarreraCoches/main.sol\":785:786  1 */\n      0x01\n        /* \"contracts/CarreraCoches/main.sol\":751:770  numeroCochesPersona */\n      0x05\n        /* \"contracts/CarreraCoches/main.sol\":751:782  numeroCochesPersona[msg.sender] */\n      0x00\n        /* \"contracts/CarreraCoches/main.sol\":771:781  msg.sender */\n      caller\n        /* \"contracts/CarreraCoches/main.sol\":751:782  numeroCochesPersona[msg.sender] */\n      0xffffffffffffffffffffffffffffffffffffffff\n      and\n      0xffffffffffffffffffffffffffffffffffffffff\n      and\n      dup2\n      mstore\n      0x20\n      add\n      swap1\n      dup2\n      mstore\n      0x20\n      add\n      0x00\n      keccak256\n      sload\n        /* \"contracts/CarreraCoches/main.sol\":751:786  numeroCochesPersona[msg.sender] < 1 */\n      lt\n        /* \"contracts/CarreraCoches/main.sol\":743:831  require(numeroCochesPersona[msg.sender] < 1, \"Solo se puede tener un coche por persona\") */\n      tag_98\n      jumpi\n      mload(0x40)\n      0x08c379a000000000000000000000000000000000000000000000000000000000\n      dup2\n      mstore\n      0x04\n      add\n      tag_99\n      swap1\n      tag_100\n      jump\t// in\n    tag_99:\n      mload(0x40)\n      dup1\n      swap2\n      sub\n      swap1\n      revert\n    tag_98:\n        /* \"contracts/CarreraCoches/main.sol\":1036:1047  listaCoches */\n      0x04\n        /* \"contracts/CarreraCoches/main.sol\":1053:1144  Coche(msg.sender, _modelo, _marca, _nombrePiloto, 0, 0, uint32(block.timestamp + cooldown)) */\n      mload(0x40)\n      dup1\n      0xe0\n      add\n      0x40\n      mstore\n      dup1\n        /* \"contracts/CarreraCoches/main.sol\":1059:1069  msg.sender */\n      caller\n        /* \"contracts/CarreraCoches/main.sol\":1053:1144  Coche(msg.sender, _modelo, _marca, _nombrePiloto, 0, 0, uint32(block.timestamp + cooldown)) */\n      0xffffffffffffffffffffffffffffffffffffffff\n      and\n      dup2\n      mstore\n      0x20\n      add\n        /* \"contracts/CarreraCoches/main.sol\":1071:1078  _modelo */\n      dup7\n        /* \"contracts/CarreraCoches/main.sol\":1053:1144  Coche(msg.sender, _modelo, _marca, _nombrePiloto, 0, 0, uint32(block.timestamp + cooldown)) */\n      dup2\n      mstore\n      0x20\n      add\n        /* \"contracts/CarreraCoches/main.sol\":1080:1086  _marca */\n      dup6\n        /* \"contracts/CarreraCoches/main.sol\":1053:1144  Coche(msg.sender, _modelo, _marca, _nombrePiloto, 0, 0, uint32(block.timestamp + cooldown)) */\n      dup2\n      mstore\n      0x20\n      add\n        /* \"contracts/CarreraCoches/main.sol\":1088:1101  _nombrePiloto */\n      dup5\n        /* \"contracts/CarreraCoches/main.sol\":1053:1144  Coche(msg.sender, _modelo, _marca, _nombrePiloto, 0, 0, uint32(block.timestamp + cooldown)) */\n      dup2\n      mstore\n      0x20\n      add\n        /* \"contracts/CarreraCoches/main.sol\":1103:1104  0 */\n      0x00\n        /* \"contracts/CarreraCoches/main.sol\":1053:1144  Coche(msg.sender, _modelo, _marca, _nombrePiloto, 0, 0, uint32(block.timestamp + cooldown)) */\n      dup2\n      mstore\n      0x20\n      add\n        /* \"contracts/CarreraCoches/main.sol\":1106:1107  0 */\n      0x00\n        /* \"contracts/CarreraCoches/main.sol\":1053:1144  Coche(msg.sender, _modelo, _marca, _nombrePiloto, 0, 0, uint32(block.timestamp + cooldown)) */\n      dup2\n      mstore\n      0x20\n      add\n        /* \"contracts/CarreraCoches/main.sol\":1134:1142  cooldown */\n      sload(0x03)\n        /* \"contracts/CarreraCoches/main.sol\":1116:1131  block.timestamp */\n      timestamp\n        /* \"contracts/CarreraCoches/main.sol\":1116:1142  block.timestamp + cooldown */\n      tag_102\n      swap2\n      swap1\n      tag_103\n      jump\t// in\n    tag_102:\n        /* \"contracts/CarreraCoches/main.sol\":1053:1144  Coche(msg.sender, _modelo, _marca, _nombrePiloto, 0, 0, uint32(block.timestamp + cooldown)) */\n      0xffffffff\n      and\n      dup2\n      mstore\n      pop\n        /* \"contracts/CarreraCoches/main.sol\":1036:1145  listaCoches.push(Coche(msg.sender, _modelo, _marca, _nombrePiloto, 0, 0, uint32(block.timestamp + cooldown))) */\n      swap1\n      dup1\n      0x01\n      dup2\n      sload\n      add\n      dup1\n      dup3\n      sstore\n      dup1\n      swap2\n      pop\n      pop\n      0x01\n      swap1\n      sub\n      swap1\n      0x00\n      mstore\n      keccak256(0x00, 0x20)\n      swap1\n      0x07\n      mul\n      add\n      0x00\n      swap1\n      swap2\n      swap1\n      swap2\n      swap1\n      swap2\n      pop\n      0x00\n      dup3\n      add\n      mload\n      dup2\n      0x00\n      add\n      exp(0x0100, 0x00)\n      dup2\n      sload\n      dup2\n      0xffffffffffffffffffffffffffffffffffffffff\n      mul\n      not\n      and\n      swap1\n      dup4\n      0xffffffffffffffffffffffffffffffffffffffff\n      and\n      mul\n      or\n      swap1\n      sstore\n      pop\n      0x20\n      dup3\n      add\n      mload\n      dup2\n      0x01\n      add\n      swap1\n      dup1\n      mload\n      swap1\n      0x20\n      add\n      swap1\n      tag_105\n      swap3\n      swap2\n      swap1\n      tag_106\n      jump\t// in\n    tag_105:\n      pop\n      0x40\n      dup3\n      add\n      mload\n      dup2\n      0x02\n      add\n      swap1\n      dup1\n      mload\n      swap1\n      0x20\n      add\n      swap1\n      tag_107\n      swap3\n      swap2\n      swap1\n      tag_106\n      jump\t// in\n    tag_107:\n      pop\n      0x60\n      dup3\n      add\n      mload\n      dup2\n      0x03\n      add\n      swap1\n      dup1\n      mload\n      swap1\n      0x20\n      add\n      swap1\n      tag_108\n      swap3\n      swap2\n      swap1\n      tag_106\n      jump\t// in\n    tag_108:\n      pop\n      0x80\n      dup3\n      add\n      mload\n      dup2\n      0x04\n      add\n      sstore\n      0xa0\n      dup3\n      add\n      mload\n      dup2\n      0x05\n      add\n      sstore\n      0xc0\n      dup3\n      add\n      mload\n      dup2\n      0x06\n      add\n      sstore\n      pop\n      pop\n        /* \"contracts/CarreraCoches/main.sol\":1156:1175  numeroCochesPersona */\n      0x05\n        /* \"contracts/CarreraCoches/main.sol\":1156:1187  numeroCochesPersona[msg.sender] */\n      0x00\n        /* \"contracts/CarreraCoches/main.sol\":1176:1186  msg.sender */\n      caller\n        /* \"contracts/CarreraCoches/main.sol\":1156:1187  numeroCochesPersona[msg.sender] */\n      0xffffffffffffffffffffffffffffffffffffffff\n      and\n      0xffffffffffffffffffffffffffffffffffffffff\n      and\n      dup2\n      mstore\n      0x20\n      add\n      swap1\n      dup2\n      mstore\n      0x20\n      add\n      0x00\n      keccak256\n      0x00\n        /* \"contracts/CarreraCoches/main.sol\":1156:1189  numeroCochesPersona[msg.sender]++ */\n      dup2\n      sload\n      dup1\n      swap3\n      swap2\n      swap1\n      tag_109\n      swap1\n      tag_60\n      jump\t// in\n    tag_109:\n      swap2\n      swap1\n      pop\n      sstore\n      pop\n        /* \"contracts/CarreraCoches/main.sol\":1200:1208  contador */\n      0x02\n      0x00\n        /* \"contracts/CarreraCoches/main.sol\":1200:1210  contador++ */\n      dup2\n      sload\n      dup1\n      swap3\n      swap2\n      swap1\n      tag_110\n      swap1\n      tag_60\n      jump\t// in\n    tag_110:\n      swap2\n      swap1\n      pop\n      sstore\n      pop\n        /* \"contracts/CarreraCoches/main.sol\":1239:1240  1 */\n      0x01\n        /* \"contracts/CarreraCoches/main.sol\":1228:1236  contador */\n      sload(0x02)\n        /* \"contracts/CarreraCoches/main.sol\":1228:1240  contador - 1 */\n      tag_111\n      swap2\n      swap1\n      tag_112\n      jump\t// in\n    tag_111:\n        /* \"contracts/CarreraCoches/main.sol\":1221:1240  return contador - 1 */\n      swap1\n      pop\n        /* \"contracts/CarreraCoches/main.sol\":896:1248  function anadirCoche(string memory _modelo, string memory _marca, string memory _nombrePiloto) public restriccion returns (uint) {\r... */\n      swap4\n      swap3\n      pop\n      pop\n      pop\n      jump\t// out\n        /* \"contracts/CarreraCoches/main.sol\":2915:3748  function Apostar(uint dineroApostar) payable public returns(string memory) {\r... */\n    tag_33:\n        /* \"contracts/CarreraCoches/main.sol\":2975:2988  string memory */\n      0x60\n        /* \"contracts/CarreraCoches/main.sol\":3021:3034  dineroApostar */\n      dup2\n        /* \"contracts/CarreraCoches/main.sol\":3008:3017  msg.value */\n      callvalue\n        /* \"contracts/CarreraCoches/main.sol\":3008:3034  msg.value == dineroApostar */\n      eq\n        /* \"contracts/CarreraCoches/main.sol\":3000:3035  require(msg.value == dineroApostar) */\n      tag_114\n      jumpi\n      0x00\n      dup1\n      revert\n    tag_114:\n        /* \"contracts/CarreraCoches/main.sol\":3046:3055  randNonce */\n      0x01\n      0x00\n        /* \"contracts/CarreraCoches/main.sol\":3046:3057  randNonce++ */\n      dup2\n      sload\n      dup1\n      swap3\n      swap2\n      swap1\n      tag_115\n      swap1\n      tag_60\n      jump\t// in\n    tag_115:\n      swap2\n      swap1\n      pop\n      sstore\n      pop\n        /* \"contracts/CarreraCoches/main.sol\":3068:3082  uint256 result */\n      0x00\n        /* \"contracts/CarreraCoches/main.sol\":3172:3183  listaCoches */\n      0x04\n        /* \"contracts/CarreraCoches/main.sol\":3172:3190  listaCoches.length */\n      dup1\n      sload\n      swap1\n      pop\n        /* \"contracts/CarreraCoches/main.sol\":3120:3135  block.timestamp */\n      timestamp\n        /* \"contracts/CarreraCoches/main.sol\":3137:3148  listaCoches */\n      0x04\n        /* \"contracts/CarreraCoches/main.sol\":3137:3155  listaCoches.length */\n      dup1\n      sload\n      swap1\n      pop\n        /* \"contracts/CarreraCoches/main.sol\":3157:3166  randNonce */\n      sload(0x01)\n        /* \"contracts/CarreraCoches/main.sol\":3103:3167  abi.encodePacked(block.timestamp, listaCoches.length, randNonce) */\n      add(0x20, mload(0x40))\n      tag_116\n      swap4\n      swap3\n      swap2\n      swap1\n      tag_62\n      jump\t// in\n    tag_116:\n      mload(0x40)\n      0x20\n      dup2\n      dup4\n      sub\n      sub\n      dup2\n      mstore\n      swap1\n      0x40\n      mstore\n        /* \"contracts/CarreraCoches/main.sol\":3093:3168  keccak256(abi.encodePacked(block.timestamp, listaCoches.length, randNonce)) */\n      dup1\n      mload\n      swap1\n      0x20\n      add\n      keccak256\n        /* \"contracts/CarreraCoches/main.sol\":3085:3169  uint256(keccak256(abi.encodePacked(block.timestamp, listaCoches.length, randNonce))) */\n      0x00\n      shr\n        /* \"contracts/CarreraCoches/main.sol\":3085:3190  uint256(keccak256(abi.encodePacked(block.timestamp, listaCoches.length, randNonce))) % listaCoches.length */\n      tag_117\n      swap2\n      swap1\n      tag_64\n      jump\t// in\n    tag_117:\n        /* \"contracts/CarreraCoches/main.sol\":3068:3190  uint256 result = uint256(keccak256(abi.encodePacked(block.timestamp, listaCoches.length, randNonce))) % listaCoches.length */\n      swap1\n      pop\n        /* \"contracts/CarreraCoches/main.sol\":3216:3225  uint256 i */\n      0x00\n        /* \"contracts/CarreraCoches/main.sol\":3211:3718  for (uint256 i = 0; i < listaCoches.length; i++) {\r... */\n    tag_118:\n        /* \"contracts/CarreraCoches/main.sol\":3235:3246  listaCoches */\n      0x04\n        /* \"contracts/CarreraCoches/main.sol\":3235:3253  listaCoches.length */\n      dup1\n      sload\n      swap1\n      pop\n        /* \"contracts/CarreraCoches/main.sol\":3231:3232  i */\n      dup2\n        /* \"contracts/CarreraCoches/main.sol\":3231:3253  i < listaCoches.length */\n      lt\n        /* \"contracts/CarreraCoches/main.sol\":3211:3718  for (uint256 i = 0; i < listaCoches.length; i++) {\r... */\n      iszero\n      tag_119\n      jumpi\n        /* \"contracts/CarreraCoches/main.sol\":3289:3290  i */\n      dup1\n        /* \"contracts/CarreraCoches/main.sol\":3279:3285  result */\n      dup3\n        /* \"contracts/CarreraCoches/main.sol\":3279:3290  result == i */\n      eq\n        /* \"contracts/CarreraCoches/main.sol\":3275:3660  if (result == i) {\r... */\n      iszero\n      tag_121\n      jumpi\n        /* \"contracts/CarreraCoches/main.sol\":3329:3340  listaCoches */\n      0x04\n        /* \"contracts/CarreraCoches/main.sol\":3341:3342  i */\n      dup2\n        /* \"contracts/CarreraCoches/main.sol\":3329:3343  listaCoches[i] */\n      dup2\n      sload\n      dup2\n      lt\n      tag_122\n      jumpi\n      tag_123\n      tag_73\n      jump\t// in\n    tag_123:\n    tag_122:\n      swap1\n      0x00\n      mstore\n      keccak256(0x00, 0x20)\n      swap1\n      0x07\n      mul\n      add\n        /* \"contracts/CarreraCoches/main.sol\":3329:3352  listaCoches[i].idPiloto */\n      0x00\n      add\n      0x00\n      swap1\n      sload\n      swap1\n      0x0100\n      exp\n      swap1\n      div\n      0xffffffffffffffffffffffffffffffffffffffff\n      and\n        /* \"contracts/CarreraCoches/main.sol\":3315:3352  msg.sender == listaCoches[i].idPiloto */\n      0xffffffffffffffffffffffffffffffffffffffff\n      and\n        /* \"contracts/CarreraCoches/main.sol\":3315:3325  msg.sender */\n      caller\n        /* \"contracts/CarreraCoches/main.sol\":3315:3352  msg.sender == listaCoches[i].idPiloto */\n      0xffffffffffffffffffffffffffffffffffffffff\n      and\n      eq\n        /* \"contracts/CarreraCoches/main.sol\":3311:3594  if (msg.sender == listaCoches[i].idPiloto) {\r... */\n      iszero\n      tag_125\n      jumpi\n        /* \"contracts/CarreraCoches/main.sol\":3377:3386  balance() */\n      tag_126\n        /* \"contracts/CarreraCoches/main.sol\":3377:3384  balance */\n      tag_127\n        /* \"contracts/CarreraCoches/main.sol\":3377:3386  balance() */\n      jump\t// in\n    tag_126:\n        /* \"contracts/CarreraCoches/main.sol\":3409:3428  return \"Has ganado\" */\n      mload(0x40)\n      dup1\n      0x40\n      add\n      0x40\n      mstore\n      dup1\n      0x0a\n      dup2\n      mstore\n      0x20\n      add\n      0x4861732067616e61646f00000000000000000000000000000000000000000000\n      dup2\n      mstore\n      pop\n      swap3\n      pop\n      pop\n      pop\n      jump(tag_113)\n        /* \"contracts/CarreraCoches/main.sol\":3311:3594  if (msg.sender == listaCoches[i].idPiloto) {\r... */\n    tag_125:\n        /* \"contracts/CarreraCoches/main.sol\":3482:3531  mostrarResultado(\"El coche ganador es: \", result) */\n      0xa28482eec3136a2461c6c30c08f71ba279c6c51a2d9c7bea4e50d6d2632f3896\n        /* \"contracts/CarreraCoches/main.sol\":3524:3530  result */\n      dup3\n        /* \"contracts/CarreraCoches/main.sol\":3482:3531  mostrarResultado(\"El coche ganador es: \", result) */\n      mload(0x40)\n      tag_129\n      swap2\n      swap1\n      tag_130\n      jump\t// in\n    tag_129:\n      mload(0x40)\n      dup1\n      swap2\n      sub\n      swap1\n      log1\n        /* \"contracts/CarreraCoches/main.sol\":3554:3574  return \"Has perdido\" */\n      mload(0x40)\n      dup1\n      0x40\n      add\n      0x40\n      mstore\n      dup1\n      0x0b\n      dup2\n      mstore\n      0x20\n      add\n      0x486173207065726469646f000000000000000000000000000000000000000000\n      dup2\n      mstore\n      pop\n      swap3\n      pop\n      pop\n      pop\n      jump(tag_113)\n        /* \"contracts/CarreraCoches/main.sol\":3275:3660  if (result == i) {\r... */\n    tag_121:\n        /* \"contracts/CarreraCoches/main.sol\":3674:3685  listaCoches */\n      0x04\n        /* \"contracts/CarreraCoches/main.sol\":3686:3687  i */\n      dup2\n        /* \"contracts/CarreraCoches/main.sol\":3674:3688  listaCoches[i] */\n      dup2\n      sload\n      dup2\n      lt\n      tag_135\n      jumpi\n      tag_136\n      tag_73\n      jump\t// in\n    tag_136:\n    tag_135:\n      swap1\n      0x00\n      mstore\n      keccak256(0x00, 0x20)\n      swap1\n      0x07\n      mul\n      add\n        /* \"contracts/CarreraCoches/main.sol\":3674:3704  listaCoches[i].carrerasTotales */\n      0x05\n      add\n      0x00\n        /* \"contracts/CarreraCoches/main.sol\":3674:3706  listaCoches[i].carrerasTotales++ */\n      dup2\n      sload\n      dup1\n      swap3\n      swap2\n      swap1\n      tag_138\n      swap1\n      tag_60\n      jump\t// in\n    tag_138:\n      swap2\n      swap1\n      pop\n      sstore\n      pop\n        /* \"contracts/CarreraCoches/main.sol\":3255:3258  i++ */\n      dup1\n      dup1\n      tag_139\n      swap1\n      tag_60\n      jump\t// in\n    tag_139:\n      swap2\n      pop\n      pop\n        /* \"contracts/CarreraCoches/main.sol\":3211:3718  for (uint256 i = 0; i < listaCoches.length; i++) {\r... */\n      jump(tag_118)\n    tag_119:\n      pop\n        /* \"contracts/CarreraCoches/main.sol\":2990:3748  {\r... */\n      pop\n        /* \"contracts/CarreraCoches/main.sol\":2915:3748  function Apostar(uint dineroApostar) payable public returns(string memory) {\r... */\n    tag_113:\n      swap2\n      swap1\n      pop\n      jump\t// out\n        /* \"contracts/CarreraCoches/ownable.sol\":1720:1823  function renounceOwnership() public virtual onlyOwner {\r... */\n    tag_37:\n        /* \"contracts/CarreraCoches/ownable.sol\":1300:1312  _msgSender() */\n      tag_141\n        /* \"contracts/CarreraCoches/ownable.sol\":1300:1310  _msgSender */\n      tag_142\n        /* \"contracts/CarreraCoches/ownable.sol\":1300:1312  _msgSender() */\n      jump\t// in\n    tag_141:\n        /* \"contracts/CarreraCoches/ownable.sol\":1289:1312  owner() == _msgSender() */\n      0xffffffffffffffffffffffffffffffffffffffff\n      and\n        /* \"contracts/CarreraCoches/ownable.sol\":1289:1296  owner() */\n      tag_143\n        /* \"contracts/CarreraCoches/ownable.sol\":1289:1294  owner */\n      tag_40\n        /* \"contracts/CarreraCoches/ownable.sol\":1289:1296  owner() */\n      jump\t// in\n    tag_143:\n        /* \"contracts/CarreraCoches/ownable.sol\":1289:1312  owner() == _msgSender() */\n      0xffffffffffffffffffffffffffffffffffffffff\n      and\n      eq\n        /* \"contracts/CarreraCoches/ownable.sol\":1281:1349  require(owner() == _msgSender(), \"Ownable: caller is not the owner\") */\n      tag_144\n      jumpi\n      mload(0x40)\n      0x08c379a000000000000000000000000000000000000000000000000000000000\n      dup2\n      mstore\n      0x04\n      add\n      tag_145\n      swap1\n      tag_146\n      jump\t// in\n    tag_145:\n      mload(0x40)\n      dup1\n      swap2\n      sub\n      swap1\n      revert\n    tag_144:\n        /* \"contracts/CarreraCoches/ownable.sol\":1785:1815  _transferOwnership(address(0)) */\n      tag_148\n        /* \"contracts/CarreraCoches/ownable.sol\":1812:1813  0 */\n      0x00\n        /* \"contracts/CarreraCoches/ownable.sol\":1785:1803  _transferOwnership */\n      tag_149\n        /* \"contracts/CarreraCoches/ownable.sol\":1785:1815  _transferOwnership(address(0)) */\n      jump\t// in\n    tag_148:\n        /* \"contracts/CarreraCoches/ownable.sol\":1720:1823  function renounceOwnership() public virtual onlyOwner {\r... */\n      jump\t// out\n        /* \"contracts/CarreraCoches/ownable.sol\":1069:1156  function owner() public view virtual returns (address) {\r... */\n    tag_40:\n        /* \"contracts/CarreraCoches/ownable.sol\":1115:1122  address */\n      0x00\n        /* \"contracts/CarreraCoches/ownable.sol\":1142:1148  _owner */\n      dup1\n      0x00\n      swap1\n      sload\n      swap1\n      0x0100\n      exp\n      swap1\n      div\n      0xffffffffffffffffffffffffffffffffffffffff\n      and\n        /* \"contracts/CarreraCoches/ownable.sol\":1135:1148  return _owner */\n      swap1\n      pop\n        /* \"contracts/CarreraCoches/ownable.sol\":1069:1156  function owner() public view virtual returns (address) {\r... */\n      swap1\n      jump\t// out\n        /* \"contracts/CarreraCoches/main.sol\":514:540  Coche[] public listaCoches */\n    tag_46:\n      0x04\n      dup2\n      dup2\n      sload\n      dup2\n      lt\n      tag_151\n      jumpi\n      0x00\n      dup1\n      revert\n    tag_151:\n      swap1\n      0x00\n      mstore\n      keccak256(0x00, 0x20)\n      swap1\n      0x07\n      mul\n      add\n      0x00\n      swap2\n      pop\n      swap1\n      pop\n      dup1\n      0x00\n      add\n      0x00\n      swap1\n      sload\n      swap1\n      0x0100\n      exp\n      swap1\n      div\n      0xffffffffffffffffffffffffffffffffffffffff\n      and\n      swap1\n      dup1\n      0x01\n      add\n      dup1\n      sload\n      tag_153\n      swap1\n      tag_154\n      jump\t// in\n    tag_153:\n      dup1\n      0x1f\n      add\n      0x20\n      dup1\n      swap2\n      div\n      mul\n      0x20\n      add\n      mload(0x40)\n      swap1\n      dup2\n      add\n      0x40\n      mstore\n      dup1\n      swap3\n      swap2\n      swap1\n      dup2\n      dup2\n      mstore\n      0x20\n      add\n      dup3\n      dup1\n      sload\n      tag_155\n      swap1\n      tag_154\n      jump\t// in\n    tag_155:\n      dup1\n      iszero\n      tag_156\n      jumpi\n      dup1\n      0x1f\n      lt\n      tag_157\n      jumpi\n      0x0100\n      dup1\n      dup4\n      sload\n      div\n      mul\n      dup4\n      mstore\n      swap2\n      0x20\n      add\n      swap2\n      jump(tag_156)\n    tag_157:\n      dup3\n      add\n      swap2\n      swap1\n      0x00\n      mstore\n      keccak256(0x00, 0x20)\n      swap1\n    tag_158:\n      dup2\n      sload\n      dup2\n      mstore\n      swap1\n      0x01\n      add\n      swap1\n      0x20\n      add\n      dup1\n      dup4\n      gt\n      tag_158\n      jumpi\n      dup3\n      swap1\n      sub\n      0x1f\n      and\n      dup3\n      add\n      swap2\n    tag_156:\n      pop\n      pop\n      pop\n      pop\n      pop\n      swap1\n      dup1\n      0x02\n      add\n      dup1\n      sload\n      tag_159\n      swap1\n      tag_154\n      jump\t// in\n    tag_159:\n      dup1\n      0x1f\n      add\n      0x20\n      dup1\n      swap2\n      div\n      mul\n      0x20\n      add\n      mload(0x40)\n      swap1\n      dup2\n      add\n      0x40\n      mstore\n      dup1\n      swap3\n      swap2\n      swap1\n      dup2\n      dup2\n      mstore\n      0x20\n      add\n      dup3\n      dup1\n      sload\n      tag_160\n      swap1\n      tag_154\n      jump\t// in\n    tag_160:\n      dup1\n      iszero\n      tag_161\n      jumpi\n      dup1\n      0x1f\n      lt\n      tag_162\n      jumpi\n      0x0100\n      dup1\n      dup4\n      sload\n      div\n      mul\n      dup4\n      mstore\n      swap2\n      0x20\n      add\n      swap2\n      jump(tag_161)\n    tag_162:\n      dup3\n      add\n      swap2\n      swap1\n      0x00\n      mstore\n      keccak256(0x00, 0x20)\n      swap1\n    tag_163:\n      dup2\n      sload\n      dup2\n      mstore\n      swap1\n      0x01\n      add\n      swap1\n      0x20\n      add\n      dup1\n      dup4\n      gt\n      tag_163\n      jumpi\n      dup3\n      swap1\n      sub\n      0x1f\n      and\n      dup3\n      add\n      swap2\n    tag_161:\n      pop\n      pop\n      pop\n      pop\n      pop\n      swap1\n      dup1\n      0x03\n      add\n      dup1\n      sload\n      tag_164\n      swap1\n      tag_154\n      jump\t// in\n    tag_164:\n      dup1\n      0x1f\n      add\n      0x20\n      dup1\n      swap2\n      div\n      mul\n      0x20\n      add\n      mload(0x40)\n      swap1\n      dup2\n      add\n      0x40\n      mstore\n      dup1\n      swap3\n      swap2\n      swap1\n      dup2\n      dup2\n      mstore\n      0x20\n      add\n      dup3\n      dup1\n      sload\n      tag_165\n      swap1\n      tag_154\n      jump\t// in\n    tag_165:\n      dup1\n      iszero\n      tag_166\n      jumpi\n      dup1\n      0x1f\n      lt\n      tag_167\n      jumpi\n      0x0100\n      dup1\n      dup4\n      sload\n      div\n      mul\n      dup4\n      mstore\n      swap2\n      0x20\n      add\n      swap2\n      jump(tag_166)\n    tag_167:\n      dup3\n      add\n      swap2\n      swap1\n      0x00\n      mstore\n      keccak256(0x00, 0x20)\n      swap1\n    tag_168:\n      dup2\n      sload\n      dup2\n      mstore\n      swap1\n      0x01\n      add\n      swap1\n      0x20\n      add\n      dup1\n      dup4\n      gt\n      tag_168\n      jumpi\n      dup3\n      swap1\n      sub\n      0x1f\n      and\n      dup3\n      add\n      swap2\n    tag_166:\n      pop\n      pop\n      pop\n      pop\n      pop\n      swap1\n      dup1\n      0x04\n      add\n      sload\n      swap1\n      dup1\n      0x05\n      add\n      sload\n      swap1\n      dup1\n      0x06\n      add\n      sload\n      swap1\n      pop\n      dup8\n      jump\t// out\n        /* \"contracts/CarreraCoches/main.sol\":1578:1797  function numeroAleatorio() public returns (uint256) {\r... */\n    tag_51:\n        /* \"contracts/CarreraCoches/main.sol\":1621:1628  uint256 */\n      0x00\n        /* \"contracts/CarreraCoches/main.sol\":1641:1652  uint numero */\n      dup1\n        /* \"contracts/CarreraCoches/main.sol\":1655:1656  2 */\n      0x02\n        /* \"contracts/CarreraCoches/main.sol\":1641:1656  uint numero = 2 */\n      swap1\n      pop\n        /* \"contracts/CarreraCoches/main.sol\":1667:1681  uint256 result */\n      0x00\n        /* \"contracts/CarreraCoches/main.sol\":1759:1765  numero */\n      dup2\n        /* \"contracts/CarreraCoches/main.sol\":1719:1734  block.timestamp */\n      timestamp\n        /* \"contracts/CarreraCoches/main.sol\":1736:1742  numero */\n      dup4\n        /* \"contracts/CarreraCoches/main.sol\":1744:1753  randNonce */\n      sload(0x01)\n        /* \"contracts/CarreraCoches/main.sol\":1702:1754  abi.encodePacked(block.timestamp, numero, randNonce) */\n      add(0x20, mload(0x40))\n      tag_170\n      swap4\n      swap3\n      swap2\n      swap1\n      tag_62\n      jump\t// in\n    tag_170:\n      mload(0x40)\n      0x20\n      dup2\n      dup4\n      sub\n      sub\n      dup2\n      mstore\n      swap1\n      0x40\n      mstore\n        /* \"contracts/CarreraCoches/main.sol\":1692:1755  keccak256(abi.encodePacked(block.timestamp, numero, randNonce)) */\n      dup1\n      mload\n      swap1\n      0x20\n      add\n      keccak256\n        /* \"contracts/CarreraCoches/main.sol\":1684:1756  uint256(keccak256(abi.encodePacked(block.timestamp, numero, randNonce))) */\n      0x00\n      shr\n        /* \"contracts/CarreraCoches/main.sol\":1684:1765  uint256(keccak256(abi.encodePacked(block.timestamp, numero, randNonce))) % numero */\n      tag_171\n      swap2\n      swap1\n      tag_64\n      jump\t// in\n    tag_171:\n        /* \"contracts/CarreraCoches/main.sol\":1667:1765  uint256 result = uint256(keccak256(abi.encodePacked(block.timestamp, numero, randNonce))) % numero */\n      swap1\n      pop\n        /* \"contracts/CarreraCoches/main.sol\":1783:1789  result */\n      dup1\n        /* \"contracts/CarreraCoches/main.sol\":1776:1789  return result */\n      swap3\n      pop\n      pop\n      pop\n        /* \"contracts/CarreraCoches/main.sol\":1578:1797  function numeroAleatorio() public returns (uint256) {\r... */\n      swap1\n      jump\t// out\n        /* \"contracts/CarreraCoches/ownable.sol\":1978:2179  function transferOwnership(address newOwner) public virtual onlyOwner {\r... */\n    tag_56:\n        /* \"contracts/CarreraCoches/ownable.sol\":1300:1312  _msgSender() */\n      tag_173\n        /* \"contracts/CarreraCoches/ownable.sol\":1300:1310  _msgSender */\n      tag_142\n        /* \"contracts/CarreraCoches/ownable.sol\":1300:1312  _msgSender() */\n      jump\t// in\n    tag_173:\n        /* \"contracts/CarreraCoches/ownable.sol\":1289:1312  owner() == _msgSender() */\n      0xffffffffffffffffffffffffffffffffffffffff\n      and\n        /* \"contracts/CarreraCoches/ownable.sol\":1289:1296  owner() */\n      tag_174\n        /* \"contracts/CarreraCoches/ownable.sol\":1289:1294  owner */\n      tag_40\n        /* \"contracts/CarreraCoches/ownable.sol\":1289:1296  owner() */\n      jump\t// in\n    tag_174:\n        /* \"contracts/CarreraCoches/ownable.sol\":1289:1312  owner() == _msgSender() */\n      0xffffffffffffffffffffffffffffffffffffffff\n      and\n      eq\n        /* \"contracts/CarreraCoches/ownable.sol\":1281:1349  require(owner() == _msgSender(), \"Ownable: caller is not the owner\") */\n      tag_175\n      jumpi\n      mload(0x40)\n      0x08c379a000000000000000000000000000000000000000000000000000000000\n      dup2\n      mstore\n      0x04\n      add\n      tag_176\n      swap1\n      tag_146\n      jump\t// in\n    tag_176:\n      mload(0x40)\n      dup1\n      swap2\n      sub\n      swap1\n      revert\n    tag_175:\n        /* \"contracts/CarreraCoches/ownable.sol\":2087:2088  0 */\n      0x00\n        /* \"contracts/CarreraCoches/ownable.sol\":2067:2089  newOwner != address(0) */\n      0xffffffffffffffffffffffffffffffffffffffff\n      and\n        /* \"contracts/CarreraCoches/ownable.sol\":2067:2075  newOwner */\n      dup2\n        /* \"contracts/CarreraCoches/ownable.sol\":2067:2089  newOwner != address(0) */\n      0xffffffffffffffffffffffffffffffffffffffff\n      and\n      eq\n      iszero\n        /* \"contracts/CarreraCoches/ownable.sol\":2059:2132  require(newOwner != address(0), \"Ownable: new owner is the zero address\") */\n      tag_178\n      jumpi\n      mload(0x40)\n      0x08c379a000000000000000000000000000000000000000000000000000000000\n      dup2\n      mstore\n      0x04\n      add\n      tag_179\n      swap1\n      tag_180\n      jump\t// in\n    tag_179:\n      mload(0x40)\n      dup1\n      swap2\n      sub\n      swap1\n      revert\n    tag_178:\n        /* \"contracts/CarreraCoches/ownable.sol\":2143:2171  _transferOwnership(newOwner) */\n      tag_181\n        /* \"contracts/CarreraCoches/ownable.sol\":2162:2170  newOwner */\n      dup2\n        /* \"contracts/CarreraCoches/ownable.sol\":2143:2161  _transferOwnership */\n      tag_149\n        /* \"contracts/CarreraCoches/ownable.sol\":2143:2171  _transferOwnership(newOwner) */\n      jump\t// in\n    tag_181:\n        /* \"contracts/CarreraCoches/ownable.sol\":1978:2179  function transferOwnership(address newOwner) public virtual onlyOwner {\r... */\n      pop\n      jump\t// out\n        /* \"contracts/CarreraCoches/main.sol\":1429:1568  function _depositoLleno(Coche storage _coche) internal view returns (bool) {\r... */\n    tag_75:\n        /* \"contracts/CarreraCoches/main.sol\":1498:1502  bool */\n      0x00\n        /* \"contracts/CarreraCoches/main.sol\":1545:1560  block.timestamp */\n      timestamp\n        /* \"contracts/CarreraCoches/main.sol\":1522:1528  _coche */\n      dup3\n        /* \"contracts/CarreraCoches/main.sol\":1522:1541  _coche.tiempoEspera */\n      0x06\n      add\n      sload\n        /* \"contracts/CarreraCoches/main.sol\":1522:1560  _coche.tiempoEspera <= block.timestamp */\n      gt\n      iszero\n        /* \"contracts/CarreraCoches/main.sol\":1515:1560  return _coche.tiempoEspera <= block.timestamp */\n      swap1\n      pop\n        /* \"contracts/CarreraCoches/main.sol\":1429:1568  function _depositoLleno(Coche storage _coche) internal view returns (bool) {\r... */\n      swap2\n      swap1\n      pop\n      jump\t// out\n        /* \"contracts/CarreraCoches/main.sol\":3805:3903  function balance() private {\r... */\n    tag_127:\n        /* \"contracts/CarreraCoches/main.sol\":3852:3862  msg.sender */\n      caller\n        /* \"contracts/CarreraCoches/main.sol\":3843:3872  payable (msg.sender).transfer */\n      0xffffffffffffffffffffffffffffffffffffffff\n      and\n        /* \"contracts/CarreraCoches/main.sol\":3843:3895  payable (msg.sender).transfer(address(this).balance) */\n      0x08fc\n        /* \"contracts/CarreraCoches/main.sol\":3873:3894  address(this).balance */\n      selfbalance\n        /* \"contracts/CarreraCoches/main.sol\":3843:3895  payable (msg.sender).transfer(address(this).balance) */\n      swap1\n      dup2\n      iszero\n      mul\n      swap1\n      mload(0x40)\n      0x00\n      mload(0x40)\n      dup1\n      dup4\n      sub\n      dup2\n      dup6\n      dup9\n      dup9\n      call\n      swap4\n      pop\n      pop\n      pop\n      pop\n      iszero\n      dup1\n      iszero\n      tag_187\n      jumpi\n      returndatasize\n      0x00\n      dup1\n      returndatacopy\n      revert(0x00, returndatasize)\n    tag_187:\n      pop\n        /* \"contracts/CarreraCoches/main.sol\":3805:3903  function balance() private {\r... */\n      jump\t// out\n        /* \"contracts/CarreraCoches/utils/Context.sol\":656:754  function _msgSender() internal view virtual returns (address) {\r... */\n    tag_142:\n        /* \"contracts/CarreraCoches/utils/Context.sol\":709:716  address */\n      0x00\n        /* \"contracts/CarreraCoches/utils/Context.sol\":736:746  msg.sender */\n      caller\n        /* \"contracts/CarreraCoches/utils/Context.sol\":729:746  return msg.sender */\n      swap1\n      pop\n        /* \"contracts/CarreraCoches/utils/Context.sol\":656:754  function _msgSender() internal view virtual returns (address) {\r... */\n      swap1\n      jump\t// out\n        /* \"contracts/CarreraCoches/ownable.sol\":2339:2530  function _transferOwnership(address newOwner) internal virtual {\r... */\n    tag_149:\n        /* \"contracts/CarreraCoches/ownable.sol\":2413:2429  address oldOwner */\n      0x00\n        /* \"contracts/CarreraCoches/ownable.sol\":2432:2438  _owner */\n      dup1\n      0x00\n      swap1\n      sload\n      swap1\n      0x0100\n      exp\n      swap1\n      div\n      0xffffffffffffffffffffffffffffffffffffffff\n      and\n        /* \"contracts/CarreraCoches/ownable.sol\":2413:2438  address oldOwner = _owner */\n      swap1\n      pop\n        /* \"contracts/CarreraCoches/ownable.sol\":2458:2466  newOwner */\n      dup2\n        /* \"contracts/CarreraCoches/ownable.sol\":2449:2455  _owner */\n      0x00\n      dup1\n        /* \"contracts/CarreraCoches/ownable.sol\":2449:2466  _owner = newOwner */\n      0x0100\n      exp\n      dup2\n      sload\n      dup2\n      0xffffffffffffffffffffffffffffffffffffffff\n      mul\n      not\n      and\n      swap1\n      dup4\n      0xffffffffffffffffffffffffffffffffffffffff\n      and\n      mul\n      or\n      swap1\n      sstore\n      pop\n        /* \"contracts/CarreraCoches/ownable.sol\":2513:2521  newOwner */\n      dup2\n        /* \"contracts/CarreraCoches/ownable.sol\":2482:2522  OwnershipTransferred(oldOwner, newOwner) */\n      0xffffffffffffffffffffffffffffffffffffffff\n      and\n        /* \"contracts/CarreraCoches/ownable.sol\":2503:2511  oldOwner */\n      dup2\n        /* \"contracts/CarreraCoches/ownable.sol\":2482:2522  OwnershipTransferred(oldOwner, newOwner) */\n      0xffffffffffffffffffffffffffffffffffffffff\n      and\n      0x8be0079c531659141344cd1fd0a4f28419497f9722a3daafe3b4186f6b6457e0\n      mload(0x40)\n      mload(0x40)\n      dup1\n      swap2\n      sub\n      swap1\n      log3\n        /* \"contracts/CarreraCoches/ownable.sol\":2402:2530  {\r... */\n      pop\n        /* \"contracts/CarreraCoches/ownable.sol\":2339:2530  function _transferOwnership(address newOwner) internal virtual {\r... */\n      pop\n      jump\t// out\n    tag_106:\n      dup3\n      dup1\n      sload\n      tag_190\n      swap1\n      tag_154\n      jump\t// in\n    tag_190:\n      swap1\n      0x00\n      mstore\n      keccak256(0x00, 0x20)\n      swap1\n      0x1f\n      add\n      0x20\n      swap1\n      div\n      dup2\n      add\n      swap3\n      dup3\n      tag_192\n      jumpi\n      0x00\n      dup6\n      sstore\n      jump(tag_191)\n    tag_192:\n      dup3\n      0x1f\n      lt\n      tag_193\n      jumpi\n      dup1\n      mload\n      not(0xff)\n      and\n      dup4\n      dup1\n      add\n      or\n      dup6\n      sstore\n      jump(tag_191)\n    tag_193:\n      dup3\n      dup1\n      add\n      0x01\n      add\n      dup6\n      sstore\n      dup3\n      iszero\n      tag_191\n      jumpi\n      swap2\n      dup3\n      add\n    tag_194:\n      dup3\n      dup2\n      gt\n      iszero\n      tag_195\n      jumpi\n      dup3\n      mload\n      dup3\n      sstore\n      swap2\n      0x20\n      add\n      swap2\n      swap1\n      0x01\n      add\n      swap1\n      jump(tag_194)\n    tag_195:\n    tag_191:\n      pop\n      swap1\n      pop\n      tag_196\n      swap2\n      swap1\n      tag_197\n      jump\t// in\n    tag_196:\n      pop\n      swap1\n      jump\t// out\n    tag_197:\n    tag_198:\n      dup1\n      dup3\n      gt\n      iszero\n      tag_199\n      jumpi\n      0x00\n      dup2\n      0x00\n      swap1\n      sstore\n      pop\n      0x01\n      add\n      jump(tag_198)\n    tag_199:\n      pop\n      swap1\n      jump\t// out\n        /* \"#utility.yul\":7:419   */\n    tag_201:\n        /* \"#utility.yul\":85:90   */\n      0x00\n        /* \"#utility.yul\":110:176   */\n      tag_203\n        /* \"#utility.yul\":126:175   */\n      tag_204\n        /* \"#utility.yul\":168:174   */\n      dup5\n        /* \"#utility.yul\":126:175   */\n      tag_205\n      jump\t// in\n    tag_204:\n        /* \"#utility.yul\":110:176   */\n      tag_206\n      jump\t// in\n    tag_203:\n        /* \"#utility.yul\":101:176   */\n      swap1\n      pop\n        /* \"#utility.yul\":199:205   */\n      dup3\n        /* \"#utility.yul\":192:197   */\n      dup2\n        /* \"#utility.yul\":185:206   */\n      mstore\n        /* \"#utility.yul\":237:241   */\n      0x20\n        /* \"#utility.yul\":230:235   */\n      dup2\n        /* \"#utility.yul\":226:242   */\n      add\n        /* \"#utility.yul\":275:278   */\n      dup5\n        /* \"#utility.yul\":266:272   */\n      dup5\n        /* \"#utility.yul\":261:264   */\n      dup5\n        /* \"#utility.yul\":257:273   */\n      add\n        /* \"#utility.yul\":254:279   */\n      gt\n        /* \"#utility.yul\":251:363   */\n      iszero\n      tag_207\n      jumpi\n        /* \"#utility.yul\":282:361   */\n      tag_208\n      tag_209\n      jump\t// in\n    tag_208:\n        /* \"#utility.yul\":251:363   */\n    tag_207:\n        /* \"#utility.yul\":372:413   */\n      tag_210\n        /* \"#utility.yul\":406:412   */\n      dup5\n        /* \"#utility.yul\":401:404   */\n      dup3\n        /* \"#utility.yul\":396:399   */\n      dup6\n        /* \"#utility.yul\":372:413   */\n      tag_211\n      jump\t// in\n    tag_210:\n        /* \"#utility.yul\":91:419   */\n      pop\n        /* \"#utility.yul\":7:419   */\n      swap4\n      swap3\n      pop\n      pop\n      pop\n      jump\t// out\n        /* \"#utility.yul\":425:564   */\n    tag_212:\n        /* \"#utility.yul\":471:476   */\n      0x00\n        /* \"#utility.yul\":509:515   */\n      dup2\n        /* \"#utility.yul\":496:516   */\n      calldataload\n        /* \"#utility.yul\":487:516   */\n      swap1\n      pop\n        /* \"#utility.yul\":525:558   */\n      tag_214\n        /* \"#utility.yul\":552:557   */\n      dup2\n        /* \"#utility.yul\":525:558   */\n      tag_215\n      jump\t// in\n    tag_214:\n        /* \"#utility.yul\":425:564   */\n      swap3\n      swap2\n      pop\n      pop\n      jump\t// out\n        /* \"#utility.yul\":584:924   */\n    tag_216:\n        /* \"#utility.yul\":640:645   */\n      0x00\n        /* \"#utility.yul\":689:692   */\n      dup3\n        /* \"#utility.yul\":682:686   */\n      0x1f\n        /* \"#utility.yul\":674:680   */\n      dup4\n        /* \"#utility.yul\":670:687   */\n      add\n        /* \"#utility.yul\":666:693   */\n      slt\n        /* \"#utility.yul\":656:778   */\n      tag_218\n      jumpi\n        /* \"#utility.yul\":697:776   */\n      tag_219\n      tag_220\n      jump\t// in\n    tag_219:\n        /* \"#utility.yul\":656:778   */\n    tag_218:\n        /* \"#utility.yul\":814:820   */\n      dup2\n        /* \"#utility.yul\":801:821   */\n      calldataload\n        /* \"#utility.yul\":839:918   */\n      tag_221\n        /* \"#utility.yul\":914:917   */\n      dup5\n        /* \"#utility.yul\":906:912   */\n      dup3\n        /* \"#utility.yul\":899:903   */\n      0x20\n        /* \"#utility.yul\":891:897   */\n      dup7\n        /* \"#utility.yul\":887:904   */\n      add\n        /* \"#utility.yul\":839:918   */\n      tag_201\n      jump\t// in\n    tag_221:\n        /* \"#utility.yul\":830:918   */\n      swap2\n      pop\n        /* \"#utility.yul\":646:924   */\n      pop\n        /* \"#utility.yul\":584:924   */\n      swap3\n      swap2\n      pop\n      pop\n      jump\t// out\n        /* \"#utility.yul\":930:1069   */\n    tag_222:\n        /* \"#utility.yul\":976:981   */\n      0x00\n        /* \"#utility.yul\":1014:1020   */\n      dup2\n        /* \"#utility.yul\":1001:1021   */\n      calldataload\n        /* \"#utility.yul\":992:1021   */\n      swap1\n      pop\n        /* \"#utility.yul\":1030:1063   */\n      tag_224\n        /* \"#utility.yul\":1057:1062   */\n      dup2\n        /* \"#utility.yul\":1030:1063   */\n      tag_225\n      jump\t// in\n    tag_224:\n        /* \"#utility.yul\":930:1069   */\n      swap3\n      swap2\n      pop\n      pop\n      jump\t// out\n        /* \"#utility.yul\":1075:1404   */\n    tag_21:\n        /* \"#utility.yul\":1134:1140   */\n      0x00\n        /* \"#utility.yul\":1183:1185   */\n      0x20\n        /* \"#utility.yul\":1171:1180   */\n      dup3\n        /* \"#utility.yul\":1162:1169   */\n      dup5\n        /* \"#utility.yul\":1158:1181   */\n      sub\n        /* \"#utility.yul\":1154:1186   */\n      slt\n        /* \"#utility.yul\":1151:1270   */\n      iszero\n      tag_227\n      jumpi\n        /* \"#utility.yul\":1189:1268   */\n      tag_228\n      tag_229\n      jump\t// in\n    tag_228:\n        /* \"#utility.yul\":1151:1270   */\n    tag_227:\n        /* \"#utility.yul\":1309:1310   */\n      0x00\n        /* \"#utility.yul\":1334:1387   */\n      tag_230\n        /* \"#utility.yul\":1379:1386   */\n      dup5\n        /* \"#utility.yul\":1370:1376   */\n      dup3\n        /* \"#utility.yul\":1359:1368   */\n      dup6\n        /* \"#utility.yul\":1355:1377   */\n      add\n        /* \"#utility.yul\":1334:1387   */\n      tag_212\n      jump\t// in\n    tag_230:\n        /* \"#utility.yul\":1324:1387   */\n      swap2\n      pop\n        /* \"#utility.yul\":1280:1397   */\n      pop\n        /* \"#utility.yul\":1075:1404   */\n      swap3\n      swap2\n      pop\n      pop\n      jump\t// out\n        /* \"#utility.yul\":1410:2569   */\n    tag_28:\n        /* \"#utility.yul\":1517:1523   */\n      0x00\n        /* \"#utility.yul\":1525:1531   */\n      dup1\n        /* \"#utility.yul\":1533:1539   */\n      0x00\n        /* \"#utility.yul\":1582:1584   */\n      0x60\n        /* \"#utility.yul\":1570:1579   */\n      dup5\n        /* \"#utility.yul\":1561:1568   */\n      dup7\n        /* \"#utility.yul\":1557:1580   */\n      sub\n        /* \"#utility.yul\":1553:1585   */\n      slt\n        /* \"#utility.yul\":1550:1669   */\n      iszero\n      tag_232\n      jumpi\n        /* \"#utility.yul\":1588:1667   */\n      tag_233\n      tag_229\n      jump\t// in\n    tag_233:\n        /* \"#utility.yul\":1550:1669   */\n    tag_232:\n        /* \"#utility.yul\":1736:1737   */\n      0x00\n        /* \"#utility.yul\":1725:1734   */\n      dup5\n        /* \"#utility.yul\":1721:1738   */\n      add\n        /* \"#utility.yul\":1708:1739   */\n      calldataload\n        /* \"#utility.yul\":1766:1784   */\n      0xffffffffffffffff\n        /* \"#utility.yul\":1758:1764   */\n      dup2\n        /* \"#utility.yul\":1755:1785   */\n      gt\n        /* \"#utility.yul\":1752:1869   */\n      iszero\n      tag_234\n      jumpi\n        /* \"#utility.yul\":1788:1867   */\n      tag_235\n      tag_236\n      jump\t// in\n    tag_235:\n        /* \"#utility.yul\":1752:1869   */\n    tag_234:\n        /* \"#utility.yul\":1893:1956   */\n      tag_237\n        /* \"#utility.yul\":1948:1955   */\n      dup7\n        /* \"#utility.yul\":1939:1945   */\n      dup3\n        /* \"#utility.yul\":1928:1937   */\n      dup8\n        /* \"#utility.yul\":1924:1946   */\n      add\n        /* \"#utility.yul\":1893:1956   */\n      tag_216\n      jump\t// in\n    tag_237:\n        /* \"#utility.yul\":1883:1956   */\n      swap4\n      pop\n        /* \"#utility.yul\":1679:1966   */\n      pop\n        /* \"#utility.yul\":2033:2035   */\n      0x20\n        /* \"#utility.yul\":2022:2031   */\n      dup5\n        /* \"#utility.yul\":2018:2036   */\n      add\n        /* \"#utility.yul\":2005:2037   */\n      calldataload\n        /* \"#utility.yul\":2064:2082   */\n      0xffffffffffffffff\n        /* \"#utility.yul\":2056:2062   */\n      dup2\n        /* \"#utility.yul\":2053:2083   */\n      gt\n        /* \"#utility.yul\":2050:2167   */\n      iszero\n      tag_238\n      jumpi\n        /* \"#utility.yul\":2086:2165   */\n      tag_239\n      tag_236\n      jump\t// in\n    tag_239:\n        /* \"#utility.yul\":2050:2167   */\n    tag_238:\n        /* \"#utility.yul\":2191:2254   */\n      tag_240\n        /* \"#utility.yul\":2246:2253   */\n      dup7\n        /* \"#utility.yul\":2237:2243   */\n      dup3\n        /* \"#utility.yul\":2226:2235   */\n      dup8\n        /* \"#utility.yul\":2222:2244   */\n      add\n        /* \"#utility.yul\":2191:2254   */\n      tag_216\n      jump\t// in\n    tag_240:\n        /* \"#utility.yul\":2181:2254   */\n      swap3\n      pop\n        /* \"#utility.yul\":1976:2264   */\n      pop\n        /* \"#utility.yul\":2331:2333   */\n      0x40\n        /* \"#utility.yul\":2320:2329   */\n      dup5\n        /* \"#utility.yul\":2316:2334   */\n      add\n        /* \"#utility.yul\":2303:2335   */\n      calldataload\n        /* \"#utility.yul\":2362:2380   */\n      0xffffffffffffffff\n        /* \"#utility.yul\":2354:2360   */\n      dup2\n        /* \"#utility.yul\":2351:2381   */\n      gt\n        /* \"#utility.yul\":2348:2465   */\n      iszero\n      tag_241\n      jumpi\n        /* \"#utility.yul\":2384:2463   */\n      tag_242\n      tag_236\n      jump\t// in\n    tag_242:\n        /* \"#utility.yul\":2348:2465   */\n    tag_241:\n        /* \"#utility.yul\":2489:2552   */\n      tag_243\n        /* \"#utility.yul\":2544:2551   */\n      dup7\n        /* \"#utility.yul\":2535:2541   */\n      dup3\n        /* \"#utility.yul\":2524:2533   */\n      dup8\n        /* \"#utility.yul\":2520:2542   */\n      add\n        /* \"#utility.yul\":2489:2552   */\n      tag_216\n      jump\t// in\n    tag_243:\n        /* \"#utility.yul\":2479:2552   */\n      swap2\n      pop\n        /* \"#utility.yul\":2274:2562   */\n      pop\n        /* \"#utility.yul\":1410:2569   */\n      swap3\n      pop\n      swap3\n      pop\n      swap3\n      jump\t// out\n        /* \"#utility.yul\":2575:2904   */\n    tag_14:\n        /* \"#utility.yul\":2634:2640   */\n      0x00\n        /* \"#utility.yul\":2683:2685   */\n      0x20\n        /* \"#utility.yul\":2671:2680   */\n      dup3\n        /* \"#utility.yul\":2662:2669   */\n      dup5\n        /* \"#utility.yul\":2658:2681   */\n      sub\n        /* \"#utility.yul\":2654:2686   */\n      slt\n        /* \"#utility.yul\":2651:2770   */\n      iszero\n      tag_245\n      jumpi\n        /* \"#utility.yul\":2689:2768   */\n      tag_246\n      tag_229\n      jump\t// in\n    tag_246:\n        /* \"#utility.yul\":2651:2770   */\n    tag_245:\n        /* \"#utility.yul\":2809:2810   */\n      0x00\n        /* \"#utility.yul\":2834:2887   */\n      tag_247\n        /* \"#utility.yul\":2879:2886   */\n      dup5\n        /* \"#utility.yul\":2870:2876   */\n      dup3\n        /* \"#utility.yul\":2859:2868   */\n      dup6\n        /* \"#utility.yul\":2855:2877   */\n      add\n        /* \"#utility.yul\":2834:2887   */\n      tag_222\n      jump\t// in\n    tag_247:\n        /* \"#utility.yul\":2824:2887   */\n      swap2\n      pop\n        /* \"#utility.yul\":2780:2897   */\n      pop\n        /* \"#utility.yul\":2575:2904   */\n      swap3\n      swap2\n      pop\n      pop\n      jump\t// out\n        /* \"#utility.yul\":2910:3028   */\n    tag_248:\n        /* \"#utility.yul\":2997:3021   */\n      tag_250\n        /* \"#utility.yul\":3015:3020   */\n      dup2\n        /* \"#utility.yul\":2997:3021   */\n      tag_251\n      jump\t// in\n    tag_250:\n        /* \"#utility.yul\":2992:2995   */\n      dup3\n        /* \"#utility.yul\":2985:3022   */\n      mstore\n        /* \"#utility.yul\":2910:3028   */\n      pop\n      pop\n      jump\t// out\n        /* \"#utility.yul\":3034:3398   */\n    tag_252:\n        /* \"#utility.yul\":3122:3125   */\n      0x00\n        /* \"#utility.yul\":3150:3189   */\n      tag_254\n        /* \"#utility.yul\":3183:3188   */\n      dup3\n        /* \"#utility.yul\":3150:3189   */\n      tag_255\n      jump\t// in\n    tag_254:\n        /* \"#utility.yul\":3205:3276   */\n      tag_256\n        /* \"#utility.yul\":3269:3275   */\n      dup2\n        /* \"#utility.yul\":3264:3267   */\n      dup6\n        /* \"#utility.yul\":3205:3276   */\n      tag_257\n      jump\t// in\n    tag_256:\n        /* \"#utility.yul\":3198:3276   */\n      swap4\n      pop\n        /* \"#utility.yul\":3285:3337   */\n      tag_258\n        /* \"#utility.yul\":3330:3336   */\n      dup2\n        /* \"#utility.yul\":3325:3328   */\n      dup6\n        /* \"#utility.yul\":3318:3322   */\n      0x20\n        /* \"#utility.yul\":3311:3316   */\n      dup7\n        /* \"#utility.yul\":3307:3323   */\n      add\n        /* \"#utility.yul\":3285:3337   */\n      tag_259\n      jump\t// in\n    tag_258:\n        /* \"#utility.yul\":3362:3391   */\n      tag_260\n        /* \"#utility.yul\":3384:3390   */\n      dup2\n        /* \"#utility.yul\":3362:3391   */\n      tag_261\n      jump\t// in\n    tag_260:\n        /* \"#utility.yul\":3357:3360   */\n      dup5\n        /* \"#utility.yul\":3353:3392   */\n      add\n        /* \"#utility.yul\":3346:3392   */\n      swap2\n      pop\n        /* \"#utility.yul\":3126:3398   */\n      pop\n        /* \"#utility.yul\":3034:3398   */\n      swap3\n      swap2\n      pop\n      pop\n      jump\t// out\n        /* \"#utility.yul\":3404:3770   */\n    tag_262:\n        /* \"#utility.yul\":3546:3549   */\n      0x00\n        /* \"#utility.yul\":3567:3634   */\n      tag_264\n        /* \"#utility.yul\":3631:3633   */\n      0x28\n        /* \"#utility.yul\":3626:3629   */\n      dup4\n        /* \"#utility.yul\":3567:3634   */\n      tag_257\n      jump\t// in\n    tag_264:\n        /* \"#utility.yul\":3560:3634   */\n      swap2\n      pop\n        /* \"#utility.yul\":3643:3736   */\n      tag_265\n        /* \"#utility.yul\":3732:3735   */\n      dup3\n        /* \"#utility.yul\":3643:3736   */\n      tag_266\n      jump\t// in\n    tag_265:\n        /* \"#utility.yul\":3761:3763   */\n      0x40\n        /* \"#utility.yul\":3756:3759   */\n      dup3\n        /* \"#utility.yul\":3752:3764   */\n      add\n        /* \"#utility.yul\":3745:3764   */\n      swap1\n      pop\n        /* \"#utility.yul\":3404:3770   */\n      swap2\n      swap1\n      pop\n      jump\t// out\n        /* \"#utility.yul\":3776:4142   */\n    tag_267:\n        /* \"#utility.yul\":3918:3921   */\n      0x00\n        /* \"#utility.yul\":3939:4006   */\n      tag_269\n        /* \"#utility.yul\":4003:4005   */\n      0x26\n        /* \"#utility.yul\":3998:4001   */\n      dup4\n        /* \"#utility.yul\":3939:4006   */\n      tag_257\n      jump\t// in\n    tag_269:\n        /* \"#utility.yul\":3932:4006   */\n      swap2\n      pop\n        /* \"#utility.yul\":4015:4108   */\n      tag_270\n        /* \"#utility.yul\":4104:4107   */\n      dup3\n        /* \"#utility.yul\":4015:4108   */\n      tag_271\n      jump\t// in\n    tag_270:\n        /* \"#utility.yul\":4133:4135   */\n      0x40\n        /* \"#utility.yul\":4128:4131   */\n      dup3\n        /* \"#utility.yul\":4124:4136   */\n      add\n        /* \"#utility.yul\":4117:4136   */\n      swap1\n      pop\n        /* \"#utility.yul\":3776:4142   */\n      swap2\n      swap1\n      pop\n      jump\t// out\n        /* \"#utility.yul\":4148:4514   */\n    tag_272:\n        /* \"#utility.yul\":4290:4293   */\n      0x00\n        /* \"#utility.yul\":4311:4378   */\n      tag_274\n        /* \"#utility.yul\":4375:4377   */\n      0x20\n        /* \"#utility.yul\":4370:4373   */\n      dup4\n        /* \"#utility.yul\":4311:4378   */\n      tag_257\n      jump\t// in\n    tag_274:\n        /* \"#utility.yul\":4304:4378   */\n      swap2\n      pop\n        /* \"#utility.yul\":4387:4480   */\n      tag_275\n        /* \"#utility.yul\":4476:4479   */\n      dup3\n        /* \"#utility.yul\":4387:4480   */\n      tag_276\n      jump\t// in\n    tag_275:\n        /* \"#utility.yul\":4505:4507   */\n      0x20\n        /* \"#utility.yul\":4500:4503   */\n      dup3\n        /* \"#utility.yul\":4496:4508   */\n      add\n        /* \"#utility.yul\":4489:4508   */\n      swap1\n      pop\n        /* \"#utility.yul\":4148:4514   */\n      swap2\n      swap1\n      pop\n      jump\t// out\n        /* \"#utility.yul\":4520:4886   */\n    tag_277:\n        /* \"#utility.yul\":4662:4665   */\n      0x00\n        /* \"#utility.yul\":4683:4750   */\n      tag_279\n        /* \"#utility.yul\":4747:4749   */\n      0x15\n        /* \"#utility.yul\":4742:4745   */\n      dup4\n        /* \"#utility.yul\":4683:4750   */\n      tag_257\n      jump\t// in\n    tag_279:\n        /* \"#utility.yul\":4676:4750   */\n      swap2\n      pop\n        /* \"#utility.yul\":4759:4852   */\n      tag_280\n        /* \"#utility.yul\":4848:4851   */\n      dup3\n        /* \"#utility.yul\":4759:4852   */\n      tag_281\n      jump\t// in\n    tag_280:\n        /* \"#utility.yul\":4877:4879   */\n      0x20\n        /* \"#utility.yul\":4872:4875   */\n      dup3\n        /* \"#utility.yul\":4868:4880   */\n      add\n        /* \"#utility.yul\":4861:4880   */\n      swap1\n      pop\n        /* \"#utility.yul\":4520:4886   */\n      swap2\n      swap1\n      pop\n      jump\t// out\n        /* \"#utility.yul\":4892:5010   */\n    tag_282:\n        /* \"#utility.yul\":4979:5003   */\n      tag_284\n        /* \"#utility.yul\":4997:5002   */\n      dup2\n        /* \"#utility.yul\":4979:5003   */\n      tag_285\n      jump\t// in\n    tag_284:\n        /* \"#utility.yul\":4974:4977   */\n      dup3\n        /* \"#utility.yul\":4967:5004   */\n      mstore\n        /* \"#utility.yul\":4892:5010   */\n      pop\n      pop\n      jump\t// out\n        /* \"#utility.yul\":5016:5173   */\n    tag_286:\n        /* \"#utility.yul\":5121:5166   */\n      tag_288\n        /* \"#utility.yul\":5141:5165   */\n      tag_289\n        /* \"#utility.yul\":5159:5164   */\n      dup3\n        /* \"#utility.yul\":5141:5165   */\n      tag_285\n      jump\t// in\n    tag_289:\n        /* \"#utility.yul\":5121:5166   */\n      tag_290\n      jump\t// in\n    tag_288:\n        /* \"#utility.yul\":5116:5119   */\n      dup3\n        /* \"#utility.yul\":5109:5167   */\n      mstore\n        /* \"#utility.yul\":5016:5173   */\n      pop\n      pop\n      jump\t// out\n        /* \"#utility.yul\":5179:5717   */\n    tag_62:\n        /* \"#utility.yul\":5347:5350   */\n      0x00\n        /* \"#utility.yul\":5362:5437   */\n      tag_292\n        /* \"#utility.yul\":5433:5436   */\n      dup3\n        /* \"#utility.yul\":5424:5430   */\n      dup7\n        /* \"#utility.yul\":5362:5437   */\n      tag_286\n      jump\t// in\n    tag_292:\n        /* \"#utility.yul\":5462:5464   */\n      0x20\n        /* \"#utility.yul\":5457:5460   */\n      dup3\n        /* \"#utility.yul\":5453:5465   */\n      add\n        /* \"#utility.yul\":5446:5465   */\n      swap2\n      pop\n        /* \"#utility.yul\":5475:5550   */\n      tag_293\n        /* \"#utility.yul\":5546:5549   */\n      dup3\n        /* \"#utility.yul\":5537:5543   */\n      dup6\n        /* \"#utility.yul\":5475:5550   */\n      tag_286\n      jump\t// in\n    tag_293:\n        /* \"#utility.yul\":5575:5577   */\n      0x20\n        /* \"#utility.yul\":5570:5573   */\n      dup3\n        /* \"#utility.yul\":5566:5578   */\n      add\n        /* \"#utility.yul\":5559:5578   */\n      swap2\n      pop\n        /* \"#utility.yul\":5588:5663   */\n      tag_294\n        /* \"#utility.yul\":5659:5662   */\n      dup3\n        /* \"#utility.yul\":5650:5656   */\n      dup5\n        /* \"#utility.yul\":5588:5663   */\n      tag_286\n      jump\t// in\n    tag_294:\n        /* \"#utility.yul\":5688:5690   */\n      0x20\n        /* \"#utility.yul\":5683:5686   */\n      dup3\n        /* \"#utility.yul\":5679:5691   */\n      add\n        /* \"#utility.yul\":5672:5691   */\n      swap2\n      pop\n        /* \"#utility.yul\":5708:5711   */\n      dup2\n        /* \"#utility.yul\":5701:5711   */\n      swap1\n      pop\n        /* \"#utility.yul\":5179:5717   */\n      swap5\n      swap4\n      pop\n      pop\n      pop\n      pop\n      jump\t// out\n        /* \"#utility.yul\":5723:5945   */\n    tag_42:\n        /* \"#utility.yul\":5816:5820   */\n      0x00\n        /* \"#utility.yul\":5854:5856   */\n      0x20\n        /* \"#utility.yul\":5843:5852   */\n      dup3\n        /* \"#utility.yul\":5839:5857   */\n      add\n        /* \"#utility.yul\":5831:5857   */\n      swap1\n      pop\n        /* \"#utility.yul\":5867:5938   */\n      tag_296\n        /* \"#utility.yul\":5935:5936   */\n      0x00\n        /* \"#utility.yul\":5924:5933   */\n      dup4\n        /* \"#utility.yul\":5920:5937   */\n      add\n        /* \"#utility.yul\":5911:5917   */\n      dup5\n        /* \"#utility.yul\":5867:5938   */\n      tag_248\n      jump\t// in\n    tag_296:\n        /* \"#utility.yul\":5723:5945   */\n      swap3\n      swap2\n      pop\n      pop\n      jump\t// out\n        /* \"#utility.yul\":5951:7110   */\n    tag_48:\n        /* \"#utility.yul\":6272:6276   */\n      0x00\n        /* \"#utility.yul\":6310:6313   */\n      0xe0\n        /* \"#utility.yul\":6299:6308   */\n      dup3\n        /* \"#utility.yul\":6295:6314   */\n      add\n        /* \"#utility.yul\":6287:6314   */\n      swap1\n      pop\n        /* \"#utility.yul\":6324:6395   */\n      tag_298\n        /* \"#utility.yul\":6392:6393   */\n      0x00\n        /* \"#utility.yul\":6381:6390   */\n      dup4\n        /* \"#utility.yul\":6377:6394   */\n      add\n        /* \"#utility.yul\":6368:6374   */\n      dup11\n        /* \"#utility.yul\":6324:6395   */\n      tag_248\n      jump\t// in\n    tag_298:\n        /* \"#utility.yul\":6442:6451   */\n      dup2\n        /* \"#utility.yul\":6436:6440   */\n      dup2\n        /* \"#utility.yul\":6432:6452   */\n      sub\n        /* \"#utility.yul\":6427:6429   */\n      0x20\n        /* \"#utility.yul\":6416:6425   */\n      dup4\n        /* \"#utility.yul\":6412:6430   */\n      add\n        /* \"#utility.yul\":6405:6453   */\n      mstore\n        /* \"#utility.yul\":6470:6548   */\n      tag_299\n        /* \"#utility.yul\":6543:6547   */\n      dup2\n        /* \"#utility.yul\":6534:6540   */\n      dup10\n        /* \"#utility.yul\":6470:6548   */\n      tag_252\n      jump\t// in\n    tag_299:\n        /* \"#utility.yul\":6462:6548   */\n      swap1\n      pop\n        /* \"#utility.yul\":6595:6604   */\n      dup2\n        /* \"#utility.yul\":6589:6593   */\n      dup2\n        /* \"#utility.yul\":6585:6605   */\n      sub\n        /* \"#utility.yul\":6580:6582   */\n      0x40\n        /* \"#utility.yul\":6569:6578   */\n      dup4\n        /* \"#utility.yul\":6565:6583   */\n      add\n        /* \"#utility.yul\":6558:6606   */\n      mstore\n        /* \"#utility.yul\":6623:6701   */\n      tag_300\n        /* \"#utility.yul\":6696:6700   */\n      dup2\n        /* \"#utility.yul\":6687:6693   */\n      dup9\n        /* \"#utility.yul\":6623:6701   */\n      tag_252\n      jump\t// in\n    tag_300:\n        /* \"#utility.yul\":6615:6701   */\n      swap1\n      pop\n        /* \"#utility.yul\":6748:6757   */\n      dup2\n        /* \"#utility.yul\":6742:6746   */\n      dup2\n        /* \"#utility.yul\":6738:6758   */\n      sub\n        /* \"#utility.yul\":6733:6735   */\n      0x60\n        /* \"#utility.yul\":6722:6731   */\n      dup4\n        /* \"#utility.yul\":6718:6736   */\n      add\n        /* \"#utility.yul\":6711:6759   */\n      mstore\n        /* \"#utility.yul\":6776:6854   */\n      tag_301\n        /* \"#utility.yul\":6849:6853   */\n      dup2\n        /* \"#utility.yul\":6840:6846   */\n      dup8\n        /* \"#utility.yul\":6776:6854   */\n      tag_252\n      jump\t// in\n    tag_301:\n        /* \"#utility.yul\":6768:6854   */\n      swap1\n      pop\n        /* \"#utility.yul\":6864:6937   */\n      tag_302\n        /* \"#utility.yul\":6932:6935   */\n      0x80\n        /* \"#utility.yul\":6921:6930   */\n      dup4\n        /* \"#utility.yul\":6917:6936   */\n      add\n        /* \"#utility.yul\":6908:6914   */\n      dup7\n        /* \"#utility.yul\":6864:6937   */\n      tag_282\n      jump\t// in\n    tag_302:\n        /* \"#utility.yul\":6947:7020   */\n      tag_303\n        /* \"#utility.yul\":7015:7018   */\n      0xa0\n        /* \"#utility.yul\":7004:7013   */\n      dup4\n        /* \"#utility.yul\":7000:7019   */\n      add\n        /* \"#utility.yul\":6991:6997   */\n      dup6\n        /* \"#utility.yul\":6947:7020   */\n      tag_282\n      jump\t// in\n    tag_303:\n        /* \"#utility.yul\":7030:7103   */\n      tag_304\n        /* \"#utility.yul\":7098:7101   */\n      0xc0\n        /* \"#utility.yul\":7087:7096   */\n      dup4\n        /* \"#utility.yul\":7083:7102   */\n      add\n        /* \"#utility.yul\":7074:7080   */\n      dup5\n        /* \"#utility.yul\":7030:7103   */\n      tag_282\n      jump\t// in\n    tag_304:\n        /* \"#utility.yul\":5951:7110   */\n      swap9\n      swap8\n      pop\n      pop\n      pop\n      pop\n      pop\n      pop\n      pop\n      pop\n      jump\t// out\n        /* \"#utility.yul\":7116:7429   */\n    tag_17:\n        /* \"#utility.yul\":7229:7233   */\n      0x00\n        /* \"#utility.yul\":7267:7269   */\n      0x20\n        /* \"#utility.yul\":7256:7265   */\n      dup3\n        /* \"#utility.yul\":7252:7270   */\n      add\n        /* \"#utility.yul\":7244:7270   */\n      swap1\n      pop\n        /* \"#utility.yul\":7316:7325   */\n      dup2\n        /* \"#utility.yul\":7310:7314   */\n      dup2\n        /* \"#utility.yul\":7306:7326   */\n      sub\n        /* \"#utility.yul\":7302:7303   */\n      0x00\n        /* \"#utility.yul\":7291:7300   */\n      dup4\n        /* \"#utility.yul\":7287:7304   */\n      add\n        /* \"#utility.yul\":7280:7327   */\n      mstore\n        /* \"#utility.yul\":7344:7422   */\n      tag_306\n        /* \"#utility.yul\":7417:7421   */\n      dup2\n        /* \"#utility.yul\":7408:7414   */\n      dup5\n        /* \"#utility.yul\":7344:7422   */\n      tag_252\n      jump\t// in\n    tag_306:\n        /* \"#utility.yul\":7336:7422   */\n      swap1\n      pop\n        /* \"#utility.yul\":7116:7429   */\n      swap3\n      swap2\n      pop\n      pop\n      jump\t// out\n        /* \"#utility.yul\":7435:7854   */\n    tag_100:\n        /* \"#utility.yul\":7601:7605   */\n      0x00\n        /* \"#utility.yul\":7639:7641   */\n      0x20\n        /* \"#utility.yul\":7628:7637   */\n      dup3\n        /* \"#utility.yul\":7624:7642   */\n      add\n        /* \"#utility.yul\":7616:7642   */\n      swap1\n      pop\n        /* \"#utility.yul\":7688:7697   */\n      dup2\n        /* \"#utility.yul\":7682:7686   */\n      dup2\n        /* \"#utility.yul\":7678:7698   */\n      sub\n        /* \"#utility.yul\":7674:7675   */\n      0x00\n        /* \"#utility.yul\":7663:7672   */\n      dup4\n        /* \"#utility.yul\":7659:7676   */\n      add\n        /* \"#utility.yul\":7652:7699   */\n      mstore\n        /* \"#utility.yul\":7716:7847   */\n      tag_308\n        /* \"#utility.yul\":7842:7846   */\n      dup2\n        /* \"#utility.yul\":7716:7847   */\n      tag_262\n      jump\t// in\n    tag_308:\n        /* \"#utility.yul\":7708:7847   */\n      swap1\n      pop\n        /* \"#utility.yul\":7435:7854   */\n      swap2\n      swap1\n      pop\n      jump\t// out\n        /* \"#utility.yul\":7860:8279   */\n    tag_180:\n        /* \"#utility.yul\":8026:8030   */\n      0x00\n        /* \"#utility.yul\":8064:8066   */\n      0x20\n        /* \"#utility.yul\":8053:8062   */\n      dup3\n        /* \"#utility.yul\":8049:8067   */\n      add\n        /* \"#utility.yul\":8041:8067   */\n      swap1\n      pop\n        /* \"#utility.yul\":8113:8122   */\n      dup2\n        /* \"#utility.yul\":8107:8111   */\n      dup2\n        /* \"#utility.yul\":8103:8123   */\n      sub\n        /* \"#utility.yul\":8099:8100   */\n      0x00\n        /* \"#utility.yul\":8088:8097   */\n      dup4\n        /* \"#utility.yul\":8084:8101   */\n      add\n        /* \"#utility.yul\":8077:8124   */\n      mstore\n        /* \"#utility.yul\":8141:8272   */\n      tag_310\n        /* \"#utility.yul\":8267:8271   */\n      dup2\n        /* \"#utility.yul\":8141:8272   */\n      tag_267\n      jump\t// in\n    tag_310:\n        /* \"#utility.yul\":8133:8272   */\n      swap1\n      pop\n        /* \"#utility.yul\":7860:8279   */\n      swap2\n      swap1\n      pop\n      jump\t// out\n        /* \"#utility.yul\":8285:8704   */\n    tag_146:\n        /* \"#utility.yul\":8451:8455   */\n      0x00\n        /* \"#utility.yul\":8489:8491   */\n      0x20\n        /* \"#utility.yul\":8478:8487   */\n      dup3\n        /* \"#utility.yul\":8474:8492   */\n      add\n        /* \"#utility.yul\":8466:8492   */\n      swap1\n      pop\n        /* \"#utility.yul\":8538:8547   */\n      dup2\n        /* \"#utility.yul\":8532:8536   */\n      dup2\n        /* \"#utility.yul\":8528:8548   */\n      sub\n        /* \"#utility.yul\":8524:8525   */\n      0x00\n        /* \"#utility.yul\":8513:8522   */\n      dup4\n        /* \"#utility.yul\":8509:8526   */\n      add\n        /* \"#utility.yul\":8502:8549   */\n      mstore\n        /* \"#utility.yul\":8566:8697   */\n      tag_312\n        /* \"#utility.yul\":8692:8696   */\n      dup2\n        /* \"#utility.yul\":8566:8697   */\n      tag_272\n      jump\t// in\n    tag_312:\n        /* \"#utility.yul\":8558:8697   */\n      swap1\n      pop\n        /* \"#utility.yul\":8285:8704   */\n      swap2\n      swap1\n      pop\n      jump\t// out\n        /* \"#utility.yul\":8710:9239   */\n    tag_130:\n        /* \"#utility.yul\":8904:8908   */\n      0x00\n        /* \"#utility.yul\":8942:8944   */\n      0x40\n        /* \"#utility.yul\":8931:8940   */\n      dup3\n        /* \"#utility.yul\":8927:8945   */\n      add\n        /* \"#utility.yul\":8919:8945   */\n      swap1\n      pop\n        /* \"#utility.yul\":8991:9000   */\n      dup2\n        /* \"#utility.yul\":8985:8989   */\n      dup2\n        /* \"#utility.yul\":8981:9001   */\n      sub\n        /* \"#utility.yul\":8977:8978   */\n      0x00\n        /* \"#utility.yul\":8966:8975   */\n      dup4\n        /* \"#utility.yul\":8962:8979   */\n      add\n        /* \"#utility.yul\":8955:9002   */\n      mstore\n        /* \"#utility.yul\":9019:9150   */\n      tag_314\n        /* \"#utility.yul\":9145:9149   */\n      dup2\n        /* \"#utility.yul\":9019:9150   */\n      tag_277\n      jump\t// in\n    tag_314:\n        /* \"#utility.yul\":9011:9150   */\n      swap1\n      pop\n        /* \"#utility.yul\":9160:9232   */\n      tag_315\n        /* \"#utility.yul\":9228:9230   */\n      0x20\n        /* \"#utility.yul\":9217:9226   */\n      dup4\n        /* \"#utility.yul\":9213:9231   */\n      add\n        /* \"#utility.yul\":9204:9210   */\n      dup5\n        /* \"#utility.yul\":9160:9232   */\n      tag_282\n      jump\t// in\n    tag_315:\n        /* \"#utility.yul\":8710:9239   */\n      swap3\n      swap2\n      pop\n      pop\n      jump\t// out\n        /* \"#utility.yul\":9245:9467   */\n    tag_24:\n        /* \"#utility.yul\":9338:9342   */\n      0x00\n        /* \"#utility.yul\":9376:9378   */\n      0x20\n        /* \"#utility.yul\":9365:9374   */\n      dup3\n        /* \"#utility.yul\":9361:9379   */\n      add\n        /* \"#utility.yul\":9353:9379   */\n      swap1\n      pop\n        /* \"#utility.yul\":9389:9460   */\n      tag_317\n        /* \"#utility.yul\":9457:9458   */\n      0x00\n        /* \"#utility.yul\":9446:9455   */\n      dup4\n        /* \"#utility.yul\":9442:9459   */\n      add\n        /* \"#utility.yul\":9433:9439   */\n      dup5\n        /* \"#utility.yul\":9389:9460   */\n      tag_282\n      jump\t// in\n    tag_317:\n        /* \"#utility.yul\":9245:9467   */\n      swap3\n      swap2\n      pop\n      pop\n      jump\t// out\n        /* \"#utility.yul\":9473:9602   */\n    tag_206:\n        /* \"#utility.yul\":9507:9513   */\n      0x00\n        /* \"#utility.yul\":9534:9554   */\n      tag_319\n      tag_320\n      jump\t// in\n    tag_319:\n        /* \"#utility.yul\":9524:9554   */\n      swap1\n      pop\n        /* \"#utility.yul\":9563:9596   */\n      tag_321\n        /* \"#utility.yul\":9591:9595   */\n      dup3\n        /* \"#utility.yul\":9583:9589   */\n      dup3\n        /* \"#utility.yul\":9563:9596   */\n      tag_322\n      jump\t// in\n    tag_321:\n        /* \"#utility.yul\":9473:9602   */\n      swap2\n      swap1\n      pop\n      jump\t// out\n        /* \"#utility.yul\":9608:9683   */\n    tag_320:\n        /* \"#utility.yul\":9641:9647   */\n      0x00\n        /* \"#utility.yul\":9674:9676   */\n      0x40\n        /* \"#utility.yul\":9668:9677   */\n      mload\n        /* \"#utility.yul\":9658:9677   */\n      swap1\n      pop\n        /* \"#utility.yul\":9608:9683   */\n      swap1\n      jump\t// out\n        /* \"#utility.yul\":9689:9997   */\n    tag_205:\n        /* \"#utility.yul\":9751:9755   */\n      0x00\n        /* \"#utility.yul\":9841:9859   */\n      0xffffffffffffffff\n        /* \"#utility.yul\":9833:9839   */\n      dup3\n        /* \"#utility.yul\":9830:9860   */\n      gt\n        /* \"#utility.yul\":9827:9883   */\n      iszero\n      tag_325\n      jumpi\n        /* \"#utility.yul\":9863:9881   */\n      tag_326\n      tag_327\n      jump\t// in\n    tag_326:\n        /* \"#utility.yul\":9827:9883   */\n    tag_325:\n        /* \"#utility.yul\":9901:9930   */\n      tag_328\n        /* \"#utility.yul\":9923:9929   */\n      dup3\n        /* \"#utility.yul\":9901:9930   */\n      tag_261\n      jump\t// in\n    tag_328:\n        /* \"#utility.yul\":9893:9930   */\n      swap1\n      pop\n        /* \"#utility.yul\":9985:9989   */\n      0x20\n        /* \"#utility.yul\":9979:9983   */\n      dup2\n        /* \"#utility.yul\":9975:9990   */\n      add\n        /* \"#utility.yul\":9967:9990   */\n      swap1\n      pop\n        /* \"#utility.yul\":9689:9997   */\n      swap2\n      swap1\n      pop\n      jump\t// out\n        /* \"#utility.yul\":10003:10102   */\n    tag_255:\n        /* \"#utility.yul\":10055:10061   */\n      0x00\n        /* \"#utility.yul\":10089:10094   */\n      dup2\n        /* \"#utility.yul\":10083:10095   */\n      mload\n        /* \"#utility.yul\":10073:10095   */\n      swap1\n      pop\n        /* \"#utility.yul\":10003:10102   */\n      swap2\n      swap1\n      pop\n      jump\t// out\n        /* \"#utility.yul\":10108:10277   */\n    tag_257:\n        /* \"#utility.yul\":10192:10203   */\n      0x00\n        /* \"#utility.yul\":10226:10232   */\n      dup3\n        /* \"#utility.yul\":10221:10224   */\n      dup3\n        /* \"#utility.yul\":10214:10233   */\n      mstore\n        /* \"#utility.yul\":10266:10270   */\n      0x20\n        /* \"#utility.yul\":10261:10264   */\n      dup3\n        /* \"#utility.yul\":10257:10271   */\n      add\n        /* \"#utility.yul\":10242:10271   */\n      swap1\n      pop\n        /* \"#utility.yul\":10108:10277   */\n      swap3\n      swap2\n      pop\n      pop\n      jump\t// out\n        /* \"#utility.yul\":10283:10588   */\n    tag_103:\n        /* \"#utility.yul\":10323:10326   */\n      0x00\n        /* \"#utility.yul\":10342:10362   */\n      tag_332\n        /* \"#utility.yul\":10360:10361   */\n      dup3\n        /* \"#utility.yul\":10342:10362   */\n      tag_285\n      jump\t// in\n    tag_332:\n        /* \"#utility.yul\":10337:10362   */\n      swap2\n      pop\n        /* \"#utility.yul\":10376:10396   */\n      tag_333\n        /* \"#utility.yul\":10394:10395   */\n      dup4\n        /* \"#utility.yul\":10376:10396   */\n      tag_285\n      jump\t// in\n    tag_333:\n        /* \"#utility.yul\":10371:10396   */\n      swap3\n      pop\n        /* \"#utility.yul\":10530:10531   */\n      dup3\n        /* \"#utility.yul\":10462:10528   */\n      0xffffffffffffffffffffffffffffffffffffffffffffffffffffffffffffffff\n        /* \"#utility.yul\":10458:10532   */\n      sub\n        /* \"#utility.yul\":10455:10456   */\n      dup3\n        /* \"#utility.yul\":10452:10533   */\n      gt\n        /* \"#utility.yul\":10449:10556   */\n      iszero\n      tag_334\n      jumpi\n        /* \"#utility.yul\":10536:10554   */\n      tag_335\n      tag_336\n      jump\t// in\n    tag_335:\n        /* \"#utility.yul\":10449:10556   */\n    tag_334:\n        /* \"#utility.yul\":10580:10581   */\n      dup3\n        /* \"#utility.yul\":10577:10578   */\n      dup3\n        /* \"#utility.yul\":10573:10582   */\n      add\n        /* \"#utility.yul\":10566:10582   */\n      swap1\n      pop\n        /* \"#utility.yul\":10283:10588   */\n      swap3\n      swap2\n      pop\n      pop\n      jump\t// out\n        /* \"#utility.yul\":10594:10785   */\n    tag_112:\n        /* \"#utility.yul\":10634:10638   */\n      0x00\n        /* \"#utility.yul\":10654:10674   */\n      tag_338\n        /* \"#utility.yul\":10672:10673   */\n      dup3\n        /* \"#utility.yul\":10654:10674   */\n      tag_285\n      jump\t// in\n    tag_338:\n        /* \"#utility.yul\":10649:10674   */\n      swap2\n      pop\n        /* \"#utility.yul\":10688:10708   */\n      tag_339\n        /* \"#utility.yul\":10706:10707   */\n      dup4\n        /* \"#utility.yul\":10688:10708   */\n      tag_285\n      jump\t// in\n    tag_339:\n        /* \"#utility.yul\":10683:10708   */\n      swap3\n      pop\n        /* \"#utility.yul\":10727:10728   */\n      dup3\n        /* \"#utility.yul\":10724:10725   */\n      dup3\n        /* \"#utility.yul\":10721:10729   */\n      lt\n        /* \"#utility.yul\":10718:10752   */\n      iszero\n      tag_340\n      jumpi\n        /* \"#utility.yul\":10732:10750   */\n      tag_341\n      tag_336\n      jump\t// in\n    tag_341:\n        /* \"#utility.yul\":10718:10752   */\n    tag_340:\n        /* \"#utility.yul\":10777:10778   */\n      dup3\n        /* \"#utility.yul\":10774:10775   */\n      dup3\n        /* \"#utility.yul\":10770:10779   */\n      sub\n        /* \"#utility.yul\":10762:10779   */\n      swap1\n      pop\n        /* \"#utility.yul\":10594:10785   */\n      swap3\n      swap2\n      pop\n      pop\n      jump\t// out\n        /* \"#utility.yul\":10791:10887   */\n    tag_251:\n        /* \"#utility.yul\":10828:10835   */\n      0x00\n        /* \"#utility.yul\":10857:10881   */\n      tag_343\n        /* \"#utility.yul\":10875:10880   */\n      dup3\n        /* \"#utility.yul\":10857:10881   */\n      tag_344\n      jump\t// in\n    tag_343:\n        /* \"#utility.yul\":10846:10881   */\n      swap1\n      pop\n        /* \"#utility.yul\":10791:10887   */\n      swap2\n      swap1\n      pop\n      jump\t// out\n        /* \"#utility.yul\":10893:11019   */\n    tag_344:\n        /* \"#utility.yul\":10930:10937   */\n      0x00\n        /* \"#utility.yul\":10970:11012   */\n      0xffffffffffffffffffffffffffffffffffffffff\n        /* \"#utility.yul\":10963:10968   */\n      dup3\n        /* \"#utility.yul\":10959:11013   */\n      and\n        /* \"#utility.yul\":10948:11013   */\n      swap1\n      pop\n        /* \"#utility.yul\":10893:11019   */\n      swap2\n      swap1\n      pop\n      jump\t// out\n        /* \"#utility.yul\":11025:11102   */\n    tag_285:\n        /* \"#utility.yul\":11062:11069   */\n      0x00\n        /* \"#utility.yul\":11091:11096   */\n      dup2\n        /* \"#utility.yul\":11080:11096   */\n      swap1\n      pop\n        /* \"#utility.yul\":11025:11102   */\n      swap2\n      swap1\n      pop\n      jump\t// out\n        /* \"#utility.yul\":11108:11262   */\n    tag_211:\n        /* \"#utility.yul\":11192:11198   */\n      dup3\n        /* \"#utility.yul\":11187:11190   */\n      dup2\n        /* \"#utility.yul\":11182:11185   */\n      dup4\n        /* \"#utility.yul\":11169:11199   */\n      calldatacopy\n        /* \"#utility.yul\":11254:11255   */\n      0x00\n        /* \"#utility.yul\":11245:11251   */\n      dup4\n        /* \"#utility.yul\":11240:11243   */\n      dup4\n        /* \"#utility.yul\":11236:11252   */\n      add\n        /* \"#utility.yul\":11229:11256   */\n      mstore\n        /* \"#utility.yul\":11108:11262   */\n      pop\n      pop\n      pop\n      jump\t// out\n        /* \"#utility.yul\":11268:11575   */\n    tag_259:\n        /* \"#utility.yul\":11336:11337   */\n      0x00\n        /* \"#utility.yul\":11346:11459   */\n    tag_349:\n        /* \"#utility.yul\":11360:11366   */\n      dup4\n        /* \"#utility.yul\":11357:11358   */\n      dup2\n        /* \"#utility.yul\":11354:11367   */\n      lt\n        /* \"#utility.yul\":11346:11459   */\n      iszero\n      tag_351\n      jumpi\n        /* \"#utility.yul\":11445:11446   */\n      dup1\n        /* \"#utility.yul\":11440:11443   */\n      dup3\n        /* \"#utility.yul\":11436:11447   */\n      add\n        /* \"#utility.yul\":11430:11448   */\n      mload\n        /* \"#utility.yul\":11426:11427   */\n      dup2\n        /* \"#utility.yul\":11421:11424   */\n      dup5\n        /* \"#utility.yul\":11417:11428   */\n      add\n        /* \"#utility.yul\":11410:11449   */\n      mstore\n        /* \"#utility.yul\":11382:11384   */\n      0x20\n        /* \"#utility.yul\":11379:11380   */\n      dup2\n        /* \"#utility.yul\":11375:11385   */\n      add\n        /* \"#utility.yul\":11370:11385   */\n      swap1\n      pop\n        /* \"#utility.yul\":11346:11459   */\n      jump(tag_349)\n    tag_351:\n        /* \"#utility.yul\":11477:11483   */\n      dup4\n        /* \"#utility.yul\":11474:11475   */\n      dup2\n        /* \"#utility.yul\":11471:11484   */\n      gt\n        /* \"#utility.yul\":11468:11569   */\n      iszero\n      tag_352\n      jumpi\n        /* \"#utility.yul\":11557:11558   */\n      0x00\n        /* \"#utility.yul\":11548:11554   */\n      dup5\n        /* \"#utility.yul\":11543:11546   */\n      dup5\n        /* \"#utility.yul\":11539:11555   */\n      add\n        /* \"#utility.yul\":11532:11559   */\n      mstore\n        /* \"#utility.yul\":11468:11569   */\n    tag_352:\n        /* \"#utility.yul\":11317:11575   */\n      pop\n        /* \"#utility.yul\":11268:11575   */\n      pop\n      pop\n      pop\n      jump\t// out\n        /* \"#utility.yul\":11581:11901   */\n    tag_154:\n        /* \"#utility.yul\":11625:11631   */\n      0x00\n        /* \"#utility.yul\":11662:11663   */\n      0x02\n        /* \"#utility.yul\":11656:11660   */\n      dup3\n        /* \"#utility.yul\":11652:11664   */\n      div\n        /* \"#utility.yul\":11642:11664   */\n      swap1\n      pop\n        /* \"#utility.yul\":11709:11710   */\n      0x01\n        /* \"#utility.yul\":11703:11707   */\n      dup3\n        /* \"#utility.yul\":11699:11711   */\n      and\n        /* \"#utility.yul\":11730:11748   */\n      dup1\n        /* \"#utility.yul\":11720:11801   */\n      tag_354\n      jumpi\n        /* \"#utility.yul\":11786:11790   */\n      0x7f\n        /* \"#utility.yul\":11778:11784   */\n      dup3\n        /* \"#utility.yul\":11774:11791   */\n      and\n        /* \"#utility.yul\":11764:11791   */\n      swap2\n      pop\n        /* \"#utility.yul\":11720:11801   */\n    tag_354:\n        /* \"#utility.yul\":11848:11850   */\n      0x20\n        /* \"#utility.yul\":11840:11846   */\n      dup3\n        /* \"#utility.yul\":11837:11851   */\n      lt\n        /* \"#utility.yul\":11817:11835   */\n      dup2\n        /* \"#utility.yul\":11814:11852   */\n      eq\n        /* \"#utility.yul\":11811:11895   */\n      iszero\n      tag_355\n      jumpi\n        /* \"#utility.yul\":11867:11885   */\n      tag_356\n      tag_357\n      jump\t// in\n    tag_356:\n        /* \"#utility.yul\":11811:11895   */\n    tag_355:\n        /* \"#utility.yul\":11632:11901   */\n      pop\n        /* \"#utility.yul\":11581:11901   */\n      swap2\n      swap1\n      pop\n      jump\t// out\n        /* \"#utility.yul\":11907:12188   */\n    tag_322:\n        /* \"#utility.yul\":11990:12017   */\n      tag_359\n        /* \"#utility.yul\":12012:12016   */\n      dup3\n        /* \"#utility.yul\":11990:12017   */\n      tag_261\n      jump\t// in\n    tag_359:\n        /* \"#utility.yul\":11982:11988   */\n      dup2\n        /* \"#utility.yul\":11978:12018   */\n      add\n        /* \"#utility.yul\":12120:12126   */\n      dup2\n        /* \"#utility.yul\":12108:12118   */\n      dup2\n        /* \"#utility.yul\":12105:12127   */\n      lt\n        /* \"#utility.yul\":12084:12102   */\n      0xffffffffffffffff\n        /* \"#utility.yul\":12072:12082   */\n      dup3\n        /* \"#utility.yul\":12069:12103   */\n      gt\n        /* \"#utility.yul\":12066:12128   */\n      or\n        /* \"#utility.yul\":12063:12151   */\n      iszero\n      tag_360\n      jumpi\n        /* \"#utility.yul\":12131:12149   */\n      tag_361\n      tag_327\n      jump\t// in\n    tag_361:\n        /* \"#utility.yul\":12063:12151   */\n    tag_360:\n        /* \"#utility.yul\":12171:12181   */\n      dup1\n        /* \"#utility.yul\":12167:12169   */\n      0x40\n        /* \"#utility.yul\":12160:12182   */\n      mstore\n        /* \"#utility.yul\":11950:12188   */\n      pop\n        /* \"#utility.yul\":11907:12188   */\n      pop\n      pop\n      jump\t// out\n        /* \"#utility.yul\":12194:12427   */\n    tag_60:\n        /* \"#utility.yul\":12233:12236   */\n      0x00\n        /* \"#utility.yul\":12256:12280   */\n      tag_363\n        /* \"#utility.yul\":12274:12279   */\n      dup3\n        /* \"#utility.yul\":12256:12280   */\n      tag_285\n      jump\t// in\n    tag_363:\n        /* \"#utility.yul\":12247:12280   */\n      swap2\n      pop\n        /* \"#utility.yul\":12302:12368   */\n      0xffffffffffffffffffffffffffffffffffffffffffffffffffffffffffffffff\n        /* \"#utility.yul\":12295:12300   */\n      dup3\n        /* \"#utility.yul\":12292:12369   */\n      eq\n        /* \"#utility.yul\":12289:12392   */\n      iszero\n      tag_364\n      jumpi\n        /* \"#utility.yul\":12372:12390   */\n      tag_365\n      tag_336\n      jump\t// in\n    tag_365:\n        /* \"#utility.yul\":12289:12392   */\n    tag_364:\n        /* \"#utility.yul\":12419:12420   */\n      0x01\n        /* \"#utility.yul\":12412:12417   */\n      dup3\n        /* \"#utility.yul\":12408:12421   */\n      add\n        /* \"#utility.yul\":12401:12421   */\n      swap1\n      pop\n        /* \"#utility.yul\":12194:12427   */\n      swap2\n      swap1\n      pop\n      jump\t// out\n        /* \"#utility.yul\":12433:12512   */\n    tag_290:\n        /* \"#utility.yul\":12472:12479   */\n      0x00\n        /* \"#utility.yul\":12501:12506   */\n      dup2\n        /* \"#utility.yul\":12490:12506   */\n      swap1\n      pop\n        /* \"#utility.yul\":12433:12512   */\n      swap2\n      swap1\n      pop\n      jump\t// out\n        /* \"#utility.yul\":12518:12694   */\n    tag_64:\n        /* \"#utility.yul\":12550:12551   */\n      0x00\n        /* \"#utility.yul\":12567:12587   */\n      tag_368\n        /* \"#utility.yul\":12585:12586   */\n      dup3\n        /* \"#utility.yul\":12567:12587   */\n      tag_285\n      jump\t// in\n    tag_368:\n        /* \"#utility.yul\":12562:12587   */\n      swap2\n      pop\n        /* \"#utility.yul\":12601:12621   */\n      tag_369\n        /* \"#utility.yul\":12619:12620   */\n      dup4\n        /* \"#utility.yul\":12601:12621   */\n      tag_285\n      jump\t// in\n    tag_369:\n        /* \"#utility.yul\":12596:12621   */\n      swap3\n      pop\n        /* \"#utility.yul\":12640:12641   */\n      dup3\n        /* \"#utility.yul\":12630:12665   */\n      tag_370\n      jumpi\n        /* \"#utility.yul\":12645:12663   */\n      tag_371\n      tag_372\n      jump\t// in\n    tag_371:\n        /* \"#utility.yul\":12630:12665   */\n    tag_370:\n        /* \"#utility.yul\":12686:12687   */\n      dup3\n        /* \"#utility.yul\":12683:12684   */\n      dup3\n        /* \"#utility.yul\":12679:12688   */\n      mod\n        /* \"#utility.yul\":12674:12688   */\n      swap1\n      pop\n        /* \"#utility.yul\":12518:12694   */\n      swap3\n      swap2\n      pop\n      pop\n      jump\t// out\n        /* \"#utility.yul\":12700:12880   */\n    tag_336:\n        /* \"#utility.yul\":12748:12825   */\n      0x4e487b7100000000000000000000000000000000000000000000000000000000\n        /* \"#utility.yul\":12745:12746   */\n      0x00\n        /* \"#utility.yul\":12738:12826   */\n      mstore\n        /* \"#utility.yul\":12845:12849   */\n      0x11\n        /* \"#utility.yul\":12842:12843   */\n      0x04\n        /* \"#utility.yul\":12835:12850   */\n      mstore\n        /* \"#utility.yul\":12869:12873   */\n      0x24\n        /* \"#utility.yul\":12866:12867   */\n      0x00\n        /* \"#utility.yul\":12859:12874   */\n      revert\n        /* \"#utility.yul\":12886:13066   */\n    tag_372:\n        /* \"#utility.yul\":12934:13011   */\n      0x4e487b7100000000000000000000000000000000000000000000000000000000\n        /* \"#utility.yul\":12931:12932   */\n      0x00\n        /* \"#utility.yul\":12924:13012   */\n      mstore\n        /* \"#utility.yul\":13031:13035   */\n      0x12\n        /* \"#utility.yul\":13028:13029   */\n      0x04\n        /* \"#utility.yul\":13021:13036   */\n      mstore\n        /* \"#utility.yul\":13055:13059   */\n      0x24\n        /* \"#utility.yul\":13052:13053   */\n      0x00\n        /* \"#utility.yul\":13045:13060   */\n      revert\n        /* \"#utility.yul\":13072:13252   */\n    tag_357:\n        /* \"#utility.yul\":13120:13197   */\n      0x4e487b7100000000000000000000000000000000000000000000000000000000\n        /* \"#utility.yul\":13117:13118   */\n      0x00\n        /* \"#utility.yul\":13110:13198   */\n      mstore\n        /* \"#utility.yul\":13217:13221   */\n      0x22\n        /* \"#utility.yul\":13214:13215   */\n      0x04\n        /* \"#utility.yul\":13207:13222   */\n      mstore\n        /* \"#utility.yul\":13241:13245   */\n      0x24\n        /* \"#utility.yul\":13238:13239   */\n      0x00\n        /* \"#utility.yul\":13231:13246   */\n      revert\n        /* \"#utility.yul\":13258:13438   */\n    tag_73:\n        /* \"#utility.yul\":13306:13383   */\n      0x4e487b7100000000000000000000000000000000000000000000000000000000\n        /* \"#utility.yul\":13303:13304   */\n      0x00\n        /* \"#utility.yul\":13296:13384   */\n      mstore\n        /* \"#utility.yul\":13403:13407   */\n      0x32\n        /* \"#utility.yul\":13400:13401   */\n      0x04\n        /* \"#utility.yul\":13393:13408   */\n      mstore\n        /* \"#utility.yul\":13427:13431   */\n      0x24\n        /* \"#utility.yul\":13424:13425   */\n      0x00\n        /* \"#utility.yul\":13417:13432   */\n      revert\n        /* \"#utility.yul\":13444:13624   */\n    tag_327:\n        /* \"#utility.yul\":13492:13569   */\n      0x4e487b7100000000000000000000000000000000000000000000000000000000\n        /* \"#utility.yul\":13489:13490   */\n      0x00\n        /* \"#utility.yul\":13482:13570   */\n      mstore\n        /* \"#utility.yul\":13589:13593   */\n      0x41\n        /* \"#utility.yul\":13586:13587   */\n      0x04\n        /* \"#utility.yul\":13579:13594   */\n      mstore\n        /* \"#utility.yul\":13613:13617   */\n      0x24\n        /* \"#utility.yul\":13610:13611   */\n      0x00\n        /* \"#utility.yul\":13603:13618   */\n      revert\n        /* \"#utility.yul\":13630:13747   */\n    tag_220:\n        /* \"#utility.yul\":13739:13740   */\n      0x00\n        /* \"#utility.yul\":13736:13737   */\n      dup1\n        /* \"#utility.yul\":13729:13741   */\n      revert\n        /* \"#utility.yul\":13753:13870   */\n    tag_209:\n        /* \"#utility.yul\":13862:13863   */\n      0x00\n        /* \"#utility.yul\":13859:13860   */\n      dup1\n        /* \"#utility.yul\":13852:13864   */\n      revert\n        /* \"#utility.yul\":13876:13993   */\n    tag_236:\n        /* \"#utility.yul\":13985:13986   */\n      0x00\n        /* \"#utility.yul\":13982:13983   */\n      dup1\n        /* \"#utility.yul\":13975:13987   */\n      revert\n        /* \"#utility.yul\":13999:14116   */\n    tag_229:\n        /* \"#utility.yul\":14108:14109   */\n      0x00\n        /* \"#utility.yul\":14105:14106   */\n      dup1\n        /* \"#utility.yul\":14098:14110   */\n      revert\n        /* \"#utility.yul\":14122:14224   */\n    tag_261:\n        /* \"#utility.yul\":14163:14169   */\n      0x00\n        /* \"#utility.yul\":14214:14216   */\n      0x1f\n        /* \"#utility.yul\":14210:14217   */\n      not\n        /* \"#utility.yul\":14205:14207   */\n      0x1f\n        /* \"#utility.yul\":14198:14203   */\n      dup4\n        /* \"#utility.yul\":14194:14208   */\n      add\n        /* \"#utility.yul\":14190:14218   */\n      and\n        /* \"#utility.yul\":14180:14218   */\n      swap1\n      pop\n        /* \"#utility.yul\":14122:14224   */\n      swap2\n      swap1\n      pop\n      jump\t// out\n        /* \"#utility.yul\":14230:14457   */\n    tag_266:\n        /* \"#utility.yul\":14370:14404   */\n      0x536f6c6f2073652070756564652074656e657220756e20636f63686520706f72\n        /* \"#utility.yul\":14366:14367   */\n      0x00\n        /* \"#utility.yul\":14358:14364   */\n      dup3\n        /* \"#utility.yul\":14354:14368   */\n      add\n        /* \"#utility.yul\":14347:14405   */\n      mstore\n        /* \"#utility.yul\":14439:14449   */\n      0x20706572736f6e61000000000000000000000000000000000000000000000000\n        /* \"#utility.yul\":14434:14436   */\n      0x20\n        /* \"#utility.yul\":14426:14432   */\n      dup3\n        /* \"#utility.yul\":14422:14437   */\n      add\n        /* \"#utility.yul\":14415:14450   */\n      mstore\n        /* \"#utility.yul\":14230:14457   */\n      pop\n      jump\t// out\n        /* \"#utility.yul\":14463:14688   */\n    tag_271:\n        /* \"#utility.yul\":14603:14637   */\n      0x4f776e61626c653a206e6577206f776e657220697320746865207a65726f2061\n        /* \"#utility.yul\":14599:14600   */\n      0x00\n        /* \"#utility.yul\":14591:14597   */\n      dup3\n        /* \"#utility.yul\":14587:14601   */\n      add\n        /* \"#utility.yul\":14580:14638   */\n      mstore\n        /* \"#utility.yul\":14672:14680   */\n      0x6464726573730000000000000000000000000000000000000000000000000000\n        /* \"#utility.yul\":14667:14669   */\n      0x20\n        /* \"#utility.yul\":14659:14665   */\n      dup3\n        /* \"#utility.yul\":14655:14670   */\n      add\n        /* \"#utility.yul\":14648:14681   */\n      mstore\n        /* \"#utility.yul\":14463:14688   */\n      pop\n      jump\t// out\n        /* \"#utility.yul\":14694:14876   */\n    tag_276:\n        /* \"#utility.yul\":14834:14868   */\n      0x4f776e61626c653a2063616c6c6572206973206e6f7420746865206f776e6572\n        /* \"#utility.yul\":14830:14831   */\n      0x00\n        /* \"#utility.yul\":14822:14828   */\n      dup3\n        /* \"#utility.yul\":14818:14832   */\n      add\n        /* \"#utility.yul\":14811:14869   */\n      mstore\n        /* \"#utility.yul\":14694:14876   */\n      pop\n      jump\t// out\n        /* \"#utility.yul\":14882:15053   */\n    tag_281:\n        /* \"#utility.yul\":15022:15045   */\n      0x456c20636f6368652067616e61646f722065733a200000000000000000000000\n        /* \"#utility.yul\":15018:15019   */\n      0x00\n        /* \"#utility.yul\":15010:15016   */\n      dup3\n        /* \"#utility.yul\":15006:15020   */\n      add\n        /* \"#utility.yul\":14999:15046   */\n      mstore\n        /* \"#utility.yul\":14882:15053   */\n      pop\n      jump\t// out\n        /* \"#utility.yul\":15059:15181   */\n    tag_215:\n        /* \"#utility.yul\":15132:15156   */\n      tag_388\n        /* \"#utility.yul\":15150:15155   */\n      dup2\n        /* \"#utility.yul\":15132:15156   */\n      tag_251\n      jump\t// in\n    tag_388:\n        /* \"#utility.yul\":15125:15130   */\n      dup2\n        /* \"#utility.yul\":15122:15157   */\n      eq\n        /* \"#utility.yul\":15112:15175   */\n      tag_389\n      jumpi\n        /* \"#utility.yul\":15171:15172   */\n      0x00\n        /* \"#utility.yul\":15168:15169   */\n      dup1\n        /* \"#utility.yul\":15161:15173   */\n      revert\n        /* \"#utility.yul\":15112:15175   */\n    tag_389:\n        /* \"#utility.yul\":15059:15181   */\n      pop\n      jump\t// out\n        /* \"#utility.yul\":15187:15309   */\n    tag_225:\n        /* \"#utility.yul\":15260:15284   */\n      tag_391\n        /* \"#utility.yul\":15278:15283   */\n      dup2\n        /* \"#utility.yul\":15260:15284   */\n      tag_285\n      jump\t// in\n    tag_391:\n        /* \"#utility.yul\":15253:15258   */\n      dup2\n        /* \"#utility.yul\":15250:15285   */\n      eq\n        /* \"#utility.yul\":15240:15303   */\n      tag_392\n      jumpi\n        /* \"#utility.yul\":15299:15300   */\n      0x00\n        /* \"#utility.yul\":15296:15297   */\n      dup1\n        /* \"#utility.yul\":15289:15301   */\n      revert\n        /* \"#utility.yul\":15240:15303   */\n    tag_392:\n        /* \"#utility.yul\":15187:15309   */\n      pop\n      jump\t// out\n\n    auxdata: 0xa2646970667358221220611e1cfaab3b48aed62488242879d50196b64c6ba284c2abaf95c29e21fceab964736f6c63430008070033\n}\n",
				"bytecode": {
					"linkReferences": {},
					"object": "608060405260006001556000600255603c60035534801561001f57600080fd5b5061003c61003161004160201b60201c565b61004960201b60201c565b61010d565b600033905090565b60008060009054906101000a900473ffffffffffffffffffffffffffffffffffffffff169050816000806101000a81548173ffffffffffffffffffffffffffffffffffffffff021916908373ffffffffffffffffffffffffffffffffffffffff1602179055508173ffffffffffffffffffffffffffffffffffffffff168173ffffffffffffffffffffffffffffffffffffffff167f8be0079c531659141344cd1fd0a4f28419497f9722a3daafe3b4186f6b6457e060405160405180910390a35050565b61179c8061011c6000396000f3fe6080604052600436106100865760003560e01c8063715018a611610059578063715018a6146101655780638da5cb5b1461017c578063d735573d146101a7578063f1413763146101ea578063f2fde38b1461021557610086565b806312a1c2ca1461008b5780631c6743e4146100bb5780632458c544146100f85780636b6f049414610135575b600080fd5b6100a560048036038101906100a09190611009565b61023e565b6040516100b2919061120c565b60405180910390f35b3480156100c757600080fd5b506100e260048036038101906100dd9190610f35565b610456565b6040516100ef91906112bc565b60405180910390f35b34801561010457600080fd5b5061011f600480360381019061011a9190610f62565b61046e565b60405161012c91906112bc565b60405180910390f35b61014f600480360381019061014a9190611009565b6106be565b60405161015c919061120c565b60405180910390f35b34801561017157600080fd5b5061017a6108d1565b005b34801561018857600080fd5b50610191610959565b60405161019e919061116d565b60405180910390f35b3480156101b357600080fd5b506101ce60048036038101906101c99190611009565b610982565b6040516101e19796959493929190611188565b60405180910390f35b3480156101f657600080fd5b506101ff610b8c565b60405161020c91906112bc565b60405180910390f35b34801561022157600080fd5b5061023c60048036038101906102379190610f35565b610bda565b005b606081341461024c57600080fd5b6001600081548092919061025f906114b4565b919050555060006004805490504260048054905060015460405160200161028893929190611130565b6040516020818303038152906040528051906020012060001c6102ab9190611507565b905060006002905060008142836001546040516020016102cd93929190611130565b6040516020818303038152906040528051906020012060001c6102f09190611507565b905060005b60048054905081101561044c5761032c60048281548110610319576103186115c5565b5b9060005260206000209060070201610cd2565b61033557600080fd5b60048181548110610349576103486115c5565b5b906000526020600020906007020160000160009054906101000a900473ffffffffffffffffffffffffffffffffffffffff1673ffffffffffffffffffffffffffffffffffffffff163373ffffffffffffffffffffffffffffffffffffffff1614156104395760008214156103f8576040518060400160405280600a81526020017f4861732067616e61646f00000000000000000000000000000000000000000000815250945050505050610451565b6040518060400160405280600b81526020017f486173207065726469646f000000000000000000000000000000000000000000815250945050505050610451565b8080610444906114b4565b9150506102f5565b505050505b919050565b60056020528060005260406000206000915090505481565b60006001600560003373ffffffffffffffffffffffffffffffffffffffff1673ffffffffffffffffffffffffffffffffffffffff16815260200190815260200160002054106104f2576040517f08c379a00000000000000000000000000000000000000000000000000000000081526004016104e99061122e565b60405180910390fd5b60046040518060e001604052803373ffffffffffffffffffffffffffffffffffffffff1681526020018681526020018581526020018481526020016000815260200160008152602001600354426105499190611349565b63ffffffff16815250908060018154018082558091505060019003906000526020600020906007020160009091909190915060008201518160000160006101000a81548173ffffffffffffffffffffffffffffffffffffffff021916908373ffffffffffffffffffffffffffffffffffffffff16021790555060208201518160010190805190602001906105de929190610df8565b5060408201518160020190805190602001906105fb929190610df8565b506060820151816003019080519060200190610618929190610df8565b506080820151816004015560a0820151816005015560c082015181600601555050600560003373ffffffffffffffffffffffffffffffffffffffff1673ffffffffffffffffffffffffffffffffffffffff1681526020019081526020016000206000815480929190610689906114b4565b9190505550600260008154809291906106a1906114b4565b919050555060016002546106b5919061139f565b90509392505050565b60608134146106cc57600080fd5b600160008154809291906106df906114b4565b919050555060006004805490504260048054905060015460405160200161070893929190611130565b6040516020818303038152906040528051906020012060001c61072b9190611507565b905060005b6004805490508110156108c9578082141561087b5760048181548110610759576107586115c5565b5b906000526020600020906007020160000160009054906101000a900473ffffffffffffffffffffffffffffffffffffffff1673ffffffffffffffffffffffffffffffffffffffff163373ffffffffffffffffffffffffffffffffffffffff161415610805576107c6610ce3565b6040518060400160405280600a81526020017f4861732067616e61646f00000000000000000000000000000000000000000000815250925050506108cc565b7fa28482eec3136a2461c6c30c08f71ba279c6c51a2d9c7bea4e50d6d2632f389682604051610834919061128e565b60405180910390a16040518060400160405280600b81526020017f486173207065726469646f000000000000000000000000000000000000000000815250925050506108cc565b6004818154811061088f5761088e6115c5565b5b906000526020600020906007020160050160008154809291906108b1906114b4565b919050555080806108c1906114b4565b915050610730565b50505b919050565b6108d9610d2c565b73ffffffffffffffffffffffffffffffffffffffff166108f7610959565b73ffffffffffffffffffffffffffffffffffffffff161461094d576040517f08c379a00000000000000000000000000000000000000000000000000000000081526004016109449061126e565b60405180910390fd5b6109576000610d34565b565b60008060009054906101000a900473ffffffffffffffffffffffffffffffffffffffff16905090565b6004818154811061099257600080fd5b90600052602060002090600702016000915090508060000160009054906101000a900473ffffffffffffffffffffffffffffffffffffffff16908060010180546109db90611451565b80601f0160208091040260200160405190810160405280929190818152602001828054610a0790611451565b8015610a545780601f10610a2957610100808354040283529160200191610a54565b820191906000526020600020905b815481529060010190602001808311610a3757829003601f168201915b505050505090806002018054610a6990611451565b80601f0160208091040260200160405190810160405280929190818152602001828054610a9590611451565b8015610ae25780601f10610ab757610100808354040283529160200191610ae2565b820191906000526020600020905b815481529060010190602001808311610ac557829003601f168201915b505050505090806003018054610af790611451565b80601f0160208091040260200160405190810160405280929190818152602001828054610b2390611451565b8015610b705780601f10610b4557610100808354040283529160200191610b70565b820191906000526020600020905b815481529060010190602001808311610b5357829003601f168201915b5050505050908060040154908060050154908060060154905087565b600080600290506000814283600154604051602001610bad93929190611130565b6040516020818303038152906040528051906020012060001c610bd09190611507565b9050809250505090565b610be2610d2c565b73ffffffffffffffffffffffffffffffffffffffff16610c00610959565b73ffffffffffffffffffffffffffffffffffffffff1614610c56576040517f08c379a0000000000000000000000000000000000000000000000000000000008152600401610c4d9061126e565b60405180910390fd5b600073ffffffffffffffffffffffffffffffffffffffff168173ffffffffffffffffffffffffffffffffffffffff161415610cc6576040517f08c379a0000000000000000000000000000000000000000000000000000000008152600401610cbd9061124e565b60405180910390fd5b610ccf81610d34565b50565b600042826006015411159050919050565b3373ffffffffffffffffffffffffffffffffffffffff166108fc479081150290604051600060405180830381858888f19350505050158015610d29573d6000803e3d6000fd5b50565b600033905090565b60008060009054906101000a900473ffffffffffffffffffffffffffffffffffffffff169050816000806101000a81548173ffffffffffffffffffffffffffffffffffffffff021916908373ffffffffffffffffffffffffffffffffffffffff1602179055508173ffffffffffffffffffffffffffffffffffffffff168173ffffffffffffffffffffffffffffffffffffffff167f8be0079c531659141344cd1fd0a4f28419497f9722a3daafe3b4186f6b6457e060405160405180910390a35050565b828054610e0490611451565b90600052602060002090601f016020900481019282610e265760008555610e6d565b82601f10610e3f57805160ff1916838001178555610e6d565b82800160010185558215610e6d579182015b82811115610e6c578251825591602001919060010190610e51565b5b509050610e7a9190610e7e565b5090565b5b80821115610e97576000816000905550600101610e7f565b5090565b6000610eae610ea9846112fc565b6112d7565b905082815260208101848484011115610eca57610ec9611628565b5b610ed584828561140f565b509392505050565b600081359050610eec81611738565b92915050565b600082601f830112610f0757610f06611623565b5b8135610f17848260208601610e9b565b91505092915050565b600081359050610f2f8161174f565b92915050565b600060208284031215610f4b57610f4a611632565b5b6000610f5984828501610edd565b91505092915050565b600080600060608486031215610f7b57610f7a611632565b5b600084013567ffffffffffffffff811115610f9957610f9861162d565b5b610fa586828701610ef2565b935050602084013567ffffffffffffffff811115610fc657610fc561162d565b5b610fd286828701610ef2565b925050604084013567ffffffffffffffff811115610ff357610ff261162d565b5b610fff86828701610ef2565b9150509250925092565b60006020828403121561101f5761101e611632565b5b600061102d84828501610f20565b91505092915050565b61103f816113d3565b82525050565b60006110508261132d565b61105a8185611338565b935061106a81856020860161141e565b61107381611637565b840191505092915050565b600061108b602883611338565b915061109682611648565b604082019050919050565b60006110ae602683611338565b91506110b982611697565b604082019050919050565b60006110d1602083611338565b91506110dc826116e6565b602082019050919050565b60006110f4601583611338565b91506110ff8261170f565b602082019050919050565b61111381611405565b82525050565b61112a61112582611405565b6114fd565b82525050565b600061113c8286611119565b60208201915061114c8285611119565b60208201915061115c8284611119565b602082019150819050949350505050565b60006020820190506111826000830184611036565b92915050565b600060e08201905061119d600083018a611036565b81810360208301526111af8189611045565b905081810360408301526111c38188611045565b905081810360608301526111d78187611045565b90506111e6608083018661110a565b6111f360a083018561110a565b61120060c083018461110a565b98975050505050505050565b600060208201905081810360008301526112268184611045565b905092915050565b600060208201905081810360008301526112478161107e565b9050919050565b60006020820190508181036000830152611267816110a1565b9050919050565b60006020820190508181036000830152611287816110c4565b9050919050565b600060408201905081810360008301526112a7816110e7565b90506112b6602083018461110a565b92915050565b60006020820190506112d1600083018461110a565b92915050565b60006112e16112f2565b90506112ed8282611483565b919050565b6000604051905090565b600067ffffffffffffffff821115611317576113166115f4565b5b61132082611637565b9050602081019050919050565b600081519050919050565b600082825260208201905092915050565b600061135482611405565b915061135f83611405565b9250827fffffffffffffffffffffffffffffffffffffffffffffffffffffffffffffffff0382111561139457611393611538565b5b828201905092915050565b60006113aa82611405565b91506113b583611405565b9250828210156113c8576113c7611538565b5b828203905092915050565b60006113de826113e5565b9050919050565b600073ffffffffffffffffffffffffffffffffffffffff82169050919050565b6000819050919050565b82818337600083830152505050565b60005b8381101561143c578082015181840152602081019050611421565b8381111561144b576000848401525b50505050565b6000600282049050600182168061146957607f821691505b6020821081141561147d5761147c611596565b5b50919050565b61148c82611637565b810181811067ffffffffffffffff821117156114ab576114aa6115f4565b5b80604052505050565b60006114bf82611405565b91507fffffffffffffffffffffffffffffffffffffffffffffffffffffffffffffffff8214156114f2576114f1611538565b5b600182019050919050565b6000819050919050565b600061151282611405565b915061151d83611405565b92508261152d5761152c611567565b5b828206905092915050565b7f4e487b7100000000000000000000000000000000000000000000000000000000600052601160045260246000fd5b7f4e487b7100000000000000000000000000000000000000000000000000000000600052601260045260246000fd5b7f4e487b7100000000000000000000000000000000000000000000000000000000600052602260045260246000fd5b7f4e487b7100000000000000000000000000000000000000000000000000000000600052603260045260246000fd5b7f4e487b7100000000000000000000000000000000000000000000000000000000600052604160045260246000fd5b600080fd5b600080fd5b600080fd5b600080fd5b6000601f19601f8301169050919050565b7f536f6c6f2073652070756564652074656e657220756e20636f63686520706f7260008201527f20706572736f6e61000000000000000000000000000000000000000000000000602082015250565b7f4f776e61626c653a206e6577206f776e657220697320746865207a65726f206160008201527f6464726573730000000000000000000000000000000000000000000000000000602082015250565b7f4f776e61626c653a2063616c6c6572206973206e6f7420746865206f776e6572600082015250565b7f456c20636f6368652067616e61646f722065733a200000000000000000000000600082015250565b611741816113d3565b811461174c57600080fd5b50565b61175881611405565b811461176357600080fd5b5056fea2646970667358221220611e1cfaab3b48aed62488242879d50196b64c6ba284c2abaf95c29e21fceab964736f6c63430008070033",
					"opcodes": "PUSH1 0x80 PUSH1 0x40 MSTORE PUSH1 0x0 PUSH1 0x1 SSTORE PUSH1 0x0 PUSH1 0x2 SSTORE PUSH1 0x3C PUSH1 0x3 SSTORE CALLVALUE DUP1 ISZERO PUSH2 0x1F JUMPI PUSH1 0x0 DUP1 REVERT JUMPDEST POP PUSH2 0x3C PUSH2 0x31 PUSH2 0x41 PUSH1 0x20 SHL PUSH1 0x20 SHR JUMP JUMPDEST PUSH2 0x49 PUSH1 0x20 SHL PUSH1 0x20 SHR JUMP JUMPDEST PUSH2 0x10D JUMP JUMPDEST PUSH1 0x0 CALLER SWAP1 POP SWAP1 JUMP JUMPDEST PUSH1 0x0 DUP1 PUSH1 0x0 SWAP1 SLOAD SWAP1 PUSH2 0x100 EXP SWAP1 DIV PUSH20 0xFFFFFFFFFFFFFFFFFFFFFFFFFFFFFFFFFFFFFFFF AND SWAP1 POP DUP2 PUSH1 0x0 DUP1 PUSH2 0x100 EXP DUP2 SLOAD DUP2 PUSH20 0xFFFFFFFFFFFFFFFFFFFFFFFFFFFFFFFFFFFFFFFF MUL NOT AND SWAP1 DUP4 PUSH20 0xFFFFFFFFFFFFFFFFFFFFFFFFFFFFFFFFFFFFFFFF AND MUL OR SWAP1 SSTORE POP DUP2 PUSH20 0xFFFFFFFFFFFFFFFFFFFFFFFFFFFFFFFFFFFFFFFF AND DUP2 PUSH20 0xFFFFFFFFFFFFFFFFFFFFFFFFFFFFFFFFFFFFFFFF AND PUSH32 0x8BE0079C531659141344CD1FD0A4F28419497F9722A3DAAFE3B4186F6B6457E0 PUSH1 0x40 MLOAD PUSH1 0x40 MLOAD DUP1 SWAP2 SUB SWAP1 LOG3 POP POP JUMP JUMPDEST PUSH2 0x179C DUP1 PUSH2 0x11C PUSH1 0x0 CODECOPY PUSH1 0x0 RETURN INVALID PUSH1 0x80 PUSH1 0x40 MSTORE PUSH1 0x4 CALLDATASIZE LT PUSH2 0x86 JUMPI PUSH1 0x0 CALLDATALOAD PUSH1 0xE0 SHR DUP1 PUSH4 0x715018A6 GT PUSH2 0x59 JUMPI DUP1 PUSH4 0x715018A6 EQ PUSH2 0x165 JUMPI DUP1 PUSH4 0x8DA5CB5B EQ PUSH2 0x17C JUMPI DUP1 PUSH4 0xD735573D EQ PUSH2 0x1A7 JUMPI DUP1 PUSH4 0xF1413763 EQ PUSH2 0x1EA JUMPI DUP1 PUSH4 0xF2FDE38B EQ PUSH2 0x215 JUMPI PUSH2 0x86 JUMP JUMPDEST DUP1 PUSH4 0x12A1C2CA EQ PUSH2 0x8B JUMPI DUP1 PUSH4 0x1C6743E4 EQ PUSH2 0xBB JUMPI DUP1 PUSH4 0x2458C544 EQ PUSH2 0xF8 JUMPI DUP1 PUSH4 0x6B6F0494 EQ PUSH2 0x135 JUMPI JUMPDEST PUSH1 0x0 DUP1 REVERT JUMPDEST PUSH2 0xA5 PUSH1 0x4 DUP1 CALLDATASIZE SUB DUP2 ADD SWAP1 PUSH2 0xA0 SWAP2 SWAP1 PUSH2 0x1009 JUMP JUMPDEST PUSH2 0x23E JUMP JUMPDEST PUSH1 0x40 MLOAD PUSH2 0xB2 SWAP2 SWAP1 PUSH2 0x120C JUMP JUMPDEST PUSH1 0x40 MLOAD DUP1 SWAP2 SUB SWAP1 RETURN JUMPDEST CALLVALUE DUP1 ISZERO PUSH2 0xC7 JUMPI PUSH1 0x0 DUP1 REVERT JUMPDEST POP PUSH2 0xE2 PUSH1 0x4 DUP1 CALLDATASIZE SUB DUP2 ADD SWAP1 PUSH2 0xDD SWAP2 SWAP1 PUSH2 0xF35 JUMP JUMPDEST PUSH2 0x456 JUMP JUMPDEST PUSH1 0x40 MLOAD PUSH2 0xEF SWAP2 SWAP1 PUSH2 0x12BC JUMP JUMPDEST PUSH1 0x40 MLOAD DUP1 SWAP2 SUB SWAP1 RETURN JUMPDEST CALLVALUE DUP1 ISZERO PUSH2 0x104 JUMPI PUSH1 0x0 DUP1 REVERT JUMPDEST POP PUSH2 0x11F PUSH1 0x4 DUP1 CALLDATASIZE SUB DUP2 ADD SWAP1 PUSH2 0x11A SWAP2 SWAP1 PUSH2 0xF62 JUMP JUMPDEST PUSH2 0x46E JUMP JUMPDEST PUSH1 0x40 MLOAD PUSH2 0x12C SWAP2 SWAP1 PUSH2 0x12BC JUMP JUMPDEST PUSH1 0x40 MLOAD DUP1 SWAP2 SUB SWAP1 RETURN JUMPDEST PUSH2 0x14F PUSH1 0x4 DUP1 CALLDATASIZE SUB DUP2 ADD SWAP1 PUSH2 0x14A SWAP2 SWAP1 PUSH2 0x1009 JUMP JUMPDEST PUSH2 0x6BE JUMP JUMPDEST PUSH1 0x40 MLOAD PUSH2 0x15C SWAP2 SWAP1 PUSH2 0x120C JUMP JUMPDEST PUSH1 0x40 MLOAD DUP1 SWAP2 SUB SWAP1 RETURN JUMPDEST CALLVALUE DUP1 ISZERO PUSH2 0x171 JUMPI PUSH1 0x0 DUP1 REVERT JUMPDEST POP PUSH2 0x17A PUSH2 0x8D1 JUMP JUMPDEST STOP JUMPDEST CALLVALUE DUP1 ISZERO PUSH2 0x188 JUMPI PUSH1 0x0 DUP1 REVERT JUMPDEST POP PUSH2 0x191 PUSH2 0x959 JUMP JUMPDEST PUSH1 0x40 MLOAD PUSH2 0x19E SWAP2 SWAP1 PUSH2 0x116D JUMP JUMPDEST PUSH1 0x40 MLOAD DUP1 SWAP2 SUB SWAP1 RETURN JUMPDEST CALLVALUE DUP1 ISZERO PUSH2 0x1B3 JUMPI PUSH1 0x0 DUP1 REVERT JUMPDEST POP PUSH2 0x1CE PUSH1 0x4 DUP1 CALLDATASIZE SUB DUP2 ADD SWAP1 PUSH2 0x1C9 SWAP2 SWAP1 PUSH2 0x1009 JUMP JUMPDEST PUSH2 0x982 JUMP JUMPDEST PUSH1 0x40 MLOAD PUSH2 0x1E1 SWAP8 SWAP7 SWAP6 SWAP5 SWAP4 SWAP3 SWAP2 SWAP1 PUSH2 0x1188 JUMP JUMPDEST PUSH1 0x40 MLOAD DUP1 SWAP2 SUB SWAP1 RETURN JUMPDEST CALLVALUE DUP1 ISZERO PUSH2 0x1F6 JUMPI PUSH1 0x0 DUP1 REVERT JUMPDEST POP PUSH2 0x1FF PUSH2 0xB8C JUMP JUMPDEST PUSH1 0x40 MLOAD PUSH2 0x20C SWAP2 SWAP1 PUSH2 0x12BC JUMP JUMPDEST PUSH1 0x40 MLOAD DUP1 SWAP2 SUB SWAP1 RETURN JUMPDEST CALLVALUE DUP1 ISZERO PUSH2 0x221 JUMPI PUSH1 0x0 DUP1 REVERT JUMPDEST POP PUSH2 0x23C PUSH1 0x4 DUP1 CALLDATASIZE SUB DUP2 ADD SWAP1 PUSH2 0x237 SWAP2 SWAP1 PUSH2 0xF35 JUMP JUMPDEST PUSH2 0xBDA JUMP JUMPDEST STOP JUMPDEST PUSH1 0x60 DUP2 CALLVALUE EQ PUSH2 0x24C JUMPI PUSH1 0x0 DUP1 REVERT JUMPDEST PUSH1 0x1 PUSH1 0x0 DUP2 SLOAD DUP1 SWAP3 SWAP2 SWAP1 PUSH2 0x25F SWAP1 PUSH2 0x14B4 JUMP JUMPDEST SWAP2 SWAP1 POP SSTORE POP PUSH1 0x0 PUSH1 0x4 DUP1 SLOAD SWAP1 POP TIMESTAMP PUSH1 0x4 DUP1 SLOAD SWAP1 POP PUSH1 0x1 SLOAD PUSH1 0x40 MLOAD PUSH1 0x20 ADD PUSH2 0x288 SWAP4 SWAP3 SWAP2 SWAP1 PUSH2 0x1130 JUMP JUMPDEST PUSH1 0x40 MLOAD PUSH1 0x20 DUP2 DUP4 SUB SUB DUP2 MSTORE SWAP1 PUSH1 0x40 MSTORE DUP1 MLOAD SWAP1 PUSH1 0x20 ADD KECCAK256 PUSH1 0x0 SHR PUSH2 0x2AB SWAP2 SWAP1 PUSH2 0x1507 JUMP JUMPDEST SWAP1 POP PUSH1 0x0 PUSH1 0x2 SWAP1 POP PUSH1 0x0 DUP2 TIMESTAMP DUP4 PUSH1 0x1 SLOAD PUSH1 0x40 MLOAD PUSH1 0x20 ADD PUSH2 0x2CD SWAP4 SWAP3 SWAP2 SWAP1 PUSH2 0x1130 JUMP JUMPDEST PUSH1 0x40 MLOAD PUSH1 0x20 DUP2 DUP4 SUB SUB DUP2 MSTORE SWAP1 PUSH1 0x40 MSTORE DUP1 MLOAD SWAP1 PUSH1 0x20 ADD KECCAK256 PUSH1 0x0 SHR PUSH2 0x2F0 SWAP2 SWAP1 PUSH2 0x1507 JUMP JUMPDEST SWAP1 POP PUSH1 0x0 JUMPDEST PUSH1 0x4 DUP1 SLOAD SWAP1 POP DUP2 LT ISZERO PUSH2 0x44C JUMPI PUSH2 0x32C PUSH1 0x4 DUP3 DUP2 SLOAD DUP2 LT PUSH2 0x319 JUMPI PUSH2 0x318 PUSH2 0x15C5 JUMP JUMPDEST JUMPDEST SWAP1 PUSH1 0x0 MSTORE PUSH1 0x20 PUSH1 0x0 KECCAK256 SWAP1 PUSH1 0x7 MUL ADD PUSH2 0xCD2 JUMP JUMPDEST PUSH2 0x335 JUMPI PUSH1 0x0 DUP1 REVERT JUMPDEST PUSH1 0x4 DUP2 DUP2 SLOAD DUP2 LT PUSH2 0x349 JUMPI PUSH2 0x348 PUSH2 0x15C5 JUMP JUMPDEST JUMPDEST SWAP1 PUSH1 0x0 MSTORE PUSH1 0x20 PUSH1 0x0 KECCAK256 SWAP1 PUSH1 0x7 MUL ADD PUSH1 0x0 ADD PUSH1 0x0 SWAP1 SLOAD SWAP1 PUSH2 0x100 EXP SWAP1 DIV PUSH20 0xFFFFFFFFFFFFFFFFFFFFFFFFFFFFFFFFFFFFFFFF AND PUSH20 0xFFFFFFFFFFFFFFFFFFFFFFFFFFFFFFFFFFFFFFFF AND CALLER PUSH20 0xFFFFFFFFFFFFFFFFFFFFFFFFFFFFFFFFFFFFFFFF AND EQ ISZERO PUSH2 0x439 JUMPI PUSH1 0x0 DUP3 EQ ISZERO PUSH2 0x3F8 JUMPI PUSH1 0x40 MLOAD DUP1 PUSH1 0x40 ADD PUSH1 0x40 MSTORE DUP1 PUSH1 0xA DUP2 MSTORE PUSH1 0x20 ADD PUSH32 0x4861732067616E61646F00000000000000000000000000000000000000000000 DUP2 MSTORE POP SWAP5 POP POP POP POP POP PUSH2 0x451 JUMP JUMPDEST PUSH1 0x40 MLOAD DUP1 PUSH1 0x40 ADD PUSH1 0x40 MSTORE DUP1 PUSH1 0xB DUP2 MSTORE PUSH1 0x20 ADD PUSH32 0x486173207065726469646F000000000000000000000000000000000000000000 DUP2 MSTORE POP SWAP5 POP POP POP POP POP PUSH2 0x451 JUMP JUMPDEST DUP1 DUP1 PUSH2 0x444 SWAP1 PUSH2 0x14B4 JUMP JUMPDEST SWAP2 POP POP PUSH2 0x2F5 JUMP JUMPDEST POP POP POP POP JUMPDEST SWAP2 SWAP1 POP JUMP JUMPDEST PUSH1 0x5 PUSH1 0x20 MSTORE DUP1 PUSH1 0x0 MSTORE PUSH1 0x40 PUSH1 0x0 KECCAK256 PUSH1 0x0 SWAP2 POP SWAP1 POP SLOAD DUP2 JUMP JUMPDEST PUSH1 0x0 PUSH1 0x1 PUSH1 0x5 PUSH1 0x0 CALLER PUSH20 0xFFFFFFFFFFFFFFFFFFFFFFFFFFFFFFFFFFFFFFFF AND PUSH20 0xFFFFFFFFFFFFFFFFFFFFFFFFFFFFFFFFFFFFFFFF AND DUP2 MSTORE PUSH1 0x20 ADD SWAP1 DUP2 MSTORE PUSH1 0x20 ADD PUSH1 0x0 KECCAK256 SLOAD LT PUSH2 0x4F2 JUMPI PUSH1 0x40 MLOAD PUSH32 0x8C379A000000000000000000000000000000000000000000000000000000000 DUP2 MSTORE PUSH1 0x4 ADD PUSH2 0x4E9 SWAP1 PUSH2 0x122E JUMP JUMPDEST PUSH1 0x40 MLOAD DUP1 SWAP2 SUB SWAP1 REVERT JUMPDEST PUSH1 0x4 PUSH1 0x40 MLOAD DUP1 PUSH1 0xE0 ADD PUSH1 0x40 MSTORE DUP1 CALLER PUSH20 0xFFFFFFFFFFFFFFFFFFFFFFFFFFFFFFFFFFFFFFFF AND DUP2 MSTORE PUSH1 0x20 ADD DUP7 DUP2 MSTORE PUSH1 0x20 ADD DUP6 DUP2 MSTORE PUSH1 0x20 ADD DUP5 DUP2 MSTORE PUSH1 0x20 ADD PUSH1 0x0 DUP2 MSTORE PUSH1 0x20 ADD PUSH1 0x0 DUP2 MSTORE PUSH1 0x20 ADD PUSH1 0x3 SLOAD TIMESTAMP PUSH2 0x549 SWAP2 SWAP1 PUSH2 0x1349 JUMP JUMPDEST PUSH4 0xFFFFFFFF AND DUP2 MSTORE POP SWAP1 DUP1 PUSH1 0x1 DUP2 SLOAD ADD DUP1 DUP3 SSTORE DUP1 SWAP2 POP POP PUSH1 0x1 SWAP1 SUB SWAP1 PUSH1 0x0 MSTORE PUSH1 0x20 PUSH1 0x0 KECCAK256 SWAP1 PUSH1 0x7 MUL ADD PUSH1 0x0 SWAP1 SWAP2 SWAP1 SWAP2 SWAP1 SWAP2 POP PUSH1 0x0 DUP3 ADD MLOAD DUP2 PUSH1 0x0 ADD PUSH1 0x0 PUSH2 0x100 EXP DUP2 SLOAD DUP2 PUSH20 0xFFFFFFFFFFFFFFFFFFFFFFFFFFFFFFFFFFFFFFFF MUL NOT AND SWAP1 DUP4 PUSH20 0xFFFFFFFFFFFFFFFFFFFFFFFFFFFFFFFFFFFFFFFF AND MUL OR SWAP1 SSTORE POP PUSH1 0x20 DUP3 ADD MLOAD DUP2 PUSH1 0x1 ADD SWAP1 DUP1 MLOAD SWAP1 PUSH1 0x20 ADD SWAP1 PUSH2 0x5DE SWAP3 SWAP2 SWAP1 PUSH2 0xDF8 JUMP JUMPDEST POP PUSH1 0x40 DUP3 ADD MLOAD DUP2 PUSH1 0x2 ADD SWAP1 DUP1 MLOAD SWAP1 PUSH1 0x20 ADD SWAP1 PUSH2 0x5FB SWAP3 SWAP2 SWAP1 PUSH2 0xDF8 JUMP JUMPDEST POP PUSH1 0x60 DUP3 ADD MLOAD DUP2 PUSH1 0x3 ADD SWAP1 DUP1 MLOAD SWAP1 PUSH1 0x20 ADD SWAP1 PUSH2 0x618 SWAP3 SWAP2 SWAP1 PUSH2 0xDF8 JUMP JUMPDEST POP PUSH1 0x80 DUP3 ADD MLOAD DUP2 PUSH1 0x4 ADD SSTORE PUSH1 0xA0 DUP3 ADD MLOAD DUP2 PUSH1 0x5 ADD SSTORE PUSH1 0xC0 DUP3 ADD MLOAD DUP2 PUSH1 0x6 ADD SSTORE POP POP PUSH1 0x5 PUSH1 0x0 CALLER PUSH20 0xFFFFFFFFFFFFFFFFFFFFFFFFFFFFFFFFFFFFFFFF AND PUSH20 0xFFFFFFFFFFFFFFFFFFFFFFFFFFFFFFFFFFFFFFFF AND DUP2 MSTORE PUSH1 0x20 ADD SWAP1 DUP2 MSTORE PUSH1 0x20 ADD PUSH1 0x0 KECCAK256 PUSH1 0x0 DUP2 SLOAD DUP1 SWAP3 SWAP2 SWAP1 PUSH2 0x689 SWAP1 PUSH2 0x14B4 JUMP JUMPDEST SWAP2 SWAP1 POP SSTORE POP PUSH1 0x2 PUSH1 0x0 DUP2 SLOAD DUP1 SWAP3 SWAP2 SWAP1 PUSH2 0x6A1 SWAP1 PUSH2 0x14B4 JUMP JUMPDEST SWAP2 SWAP1 POP SSTORE POP PUSH1 0x1 PUSH1 0x2 SLOAD PUSH2 0x6B5 SWAP2 SWAP1 PUSH2 0x139F JUMP JUMPDEST SWAP1 POP SWAP4 SWAP3 POP POP POP JUMP JUMPDEST PUSH1 0x60 DUP2 CALLVALUE EQ PUSH2 0x6CC JUMPI PUSH1 0x0 DUP1 REVERT JUMPDEST PUSH1 0x1 PUSH1 0x0 DUP2 SLOAD DUP1 SWAP3 SWAP2 SWAP1 PUSH2 0x6DF SWAP1 PUSH2 0x14B4 JUMP JUMPDEST SWAP2 SWAP1 POP SSTORE POP PUSH1 0x0 PUSH1 0x4 DUP1 SLOAD SWAP1 POP TIMESTAMP PUSH1 0x4 DUP1 SLOAD SWAP1 POP PUSH1 0x1 SLOAD PUSH1 0x40 MLOAD PUSH1 0x20 ADD PUSH2 0x708 SWAP4 SWAP3 SWAP2 SWAP1 PUSH2 0x1130 JUMP JUMPDEST PUSH1 0x40 MLOAD PUSH1 0x20 DUP2 DUP4 SUB SUB DUP2 MSTORE SWAP1 PUSH1 0x40 MSTORE DUP1 MLOAD SWAP1 PUSH1 0x20 ADD KECCAK256 PUSH1 0x0 SHR PUSH2 0x72B SWAP2 SWAP1 PUSH2 0x1507 JUMP JUMPDEST SWAP1 POP PUSH1 0x0 JUMPDEST PUSH1 0x4 DUP1 SLOAD SWAP1 POP DUP2 LT ISZERO PUSH2 0x8C9 JUMPI DUP1 DUP3 EQ ISZERO PUSH2 0x87B JUMPI PUSH1 0x4 DUP2 DUP2 SLOAD DUP2 LT PUSH2 0x759 JUMPI PUSH2 0x758 PUSH2 0x15C5 JUMP JUMPDEST JUMPDEST SWAP1 PUSH1 0x0 MSTORE PUSH1 0x20 PUSH1 0x0 KECCAK256 SWAP1 PUSH1 0x7 MUL ADD PUSH1 0x0 ADD PUSH1 0x0 SWAP1 SLOAD SWAP1 PUSH2 0x100 EXP SWAP1 DIV PUSH20 0xFFFFFFFFFFFFFFFFFFFFFFFFFFFFFFFFFFFFFFFF AND PUSH20 0xFFFFFFFFFFFFFFFFFFFFFFFFFFFFFFFFFFFFFFFF AND CALLER PUSH20 0xFFFFFFFFFFFFFFFFFFFFFFFFFFFFFFFFFFFFFFFF AND EQ ISZERO PUSH2 0x805 JUMPI PUSH2 0x7C6 PUSH2 0xCE3 JUMP JUMPDEST PUSH1 0x40 MLOAD DUP1 PUSH1 0x40 ADD PUSH1 0x40 MSTORE DUP1 PUSH1 0xA DUP2 MSTORE PUSH1 0x20 ADD PUSH32 0x4861732067616E61646F00000000000000000000000000000000000000000000 DUP2 MSTORE POP SWAP3 POP POP POP PUSH2 0x8CC JUMP JUMPDEST PUSH32 0xA28482EEC3136A2461C6C30C08F71BA279C6C51A2D9C7BEA4E50D6D2632F3896 DUP3 PUSH1 0x40 MLOAD PUSH2 0x834 SWAP2 SWAP1 PUSH2 0x128E JUMP JUMPDEST PUSH1 0x40 MLOAD DUP1 SWAP2 SUB SWAP1 LOG1 PUSH1 0x40 MLOAD DUP1 PUSH1 0x40 ADD PUSH1 0x40 MSTORE DUP1 PUSH1 0xB DUP2 MSTORE PUSH1 0x20 ADD PUSH32 0x486173207065726469646F000000000000000000000000000000000000000000 DUP2 MSTORE POP SWAP3 POP POP POP PUSH2 0x8CC JUMP JUMPDEST PUSH1 0x4 DUP2 DUP2 SLOAD DUP2 LT PUSH2 0x88F JUMPI PUSH2 0x88E PUSH2 0x15C5 JUMP JUMPDEST JUMPDEST SWAP1 PUSH1 0x0 MSTORE PUSH1 0x20 PUSH1 0x0 KECCAK256 SWAP1 PUSH1 0x7 MUL ADD PUSH1 0x5 ADD PUSH1 0x0 DUP2 SLOAD DUP1 SWAP3 SWAP2 SWAP1 PUSH2 0x8B1 SWAP1 PUSH2 0x14B4 JUMP JUMPDEST SWAP2 SWAP1 POP SSTORE POP DUP1 DUP1 PUSH2 0x8C1 SWAP1 PUSH2 0x14B4 JUMP JUMPDEST SWAP2 POP POP PUSH2 0x730 JUMP JUMPDEST POP POP JUMPDEST SWAP2 SWAP1 POP JUMP JUMPDEST PUSH2 0x8D9 PUSH2 0xD2C JUMP JUMPDEST PUSH20 0xFFFFFFFFFFFFFFFFFFFFFFFFFFFFFFFFFFFFFFFF AND PUSH2 0x8F7 PUSH2 0x959 JUMP JUMPDEST PUSH20 0xFFFFFFFFFFFFFFFFFFFFFFFFFFFFFFFFFFFFFFFF AND EQ PUSH2 0x94D JUMPI PUSH1 0x40 MLOAD PUSH32 0x8C379A000000000000000000000000000000000000000000000000000000000 DUP2 MSTORE PUSH1 0x4 ADD PUSH2 0x944 SWAP1 PUSH2 0x126E JUMP JUMPDEST PUSH1 0x40 MLOAD DUP1 SWAP2 SUB SWAP1 REVERT JUMPDEST PUSH2 0x957 PUSH1 0x0 PUSH2 0xD34 JUMP JUMPDEST JUMP JUMPDEST PUSH1 0x0 DUP1 PUSH1 0x0 SWAP1 SLOAD SWAP1 PUSH2 0x100 EXP SWAP1 DIV PUSH20 0xFFFFFFFFFFFFFFFFFFFFFFFFFFFFFFFFFFFFFFFF AND SWAP1 POP SWAP1 JUMP JUMPDEST PUSH1 0x4 DUP2 DUP2 SLOAD DUP2 LT PUSH2 0x992 JUMPI PUSH1 0x0 DUP1 REVERT JUMPDEST SWAP1 PUSH1 0x0 MSTORE PUSH1 0x20 PUSH1 0x0 KECCAK256 SWAP1 PUSH1 0x7 MUL ADD PUSH1 0x0 SWAP2 POP SWAP1 POP DUP1 PUSH1 0x0 ADD PUSH1 0x0 SWAP1 SLOAD SWAP1 PUSH2 0x100 EXP SWAP1 DIV PUSH20 0xFFFFFFFFFFFFFFFFFFFFFFFFFFFFFFFFFFFFFFFF AND SWAP1 DUP1 PUSH1 0x1 ADD DUP1 SLOAD PUSH2 0x9DB SWAP1 PUSH2 0x1451 JUMP JUMPDEST DUP1 PUSH1 0x1F ADD PUSH1 0x20 DUP1 SWAP2 DIV MUL PUSH1 0x20 ADD PUSH1 0x40 MLOAD SWAP1 DUP2 ADD PUSH1 0x40 MSTORE DUP1 SWAP3 SWAP2 SWAP1 DUP2 DUP2 MSTORE PUSH1 0x20 ADD DUP3 DUP1 SLOAD PUSH2 0xA07 SWAP1 PUSH2 0x1451 JUMP JUMPDEST DUP1 ISZERO PUSH2 0xA54 JUMPI DUP1 PUSH1 0x1F LT PUSH2 0xA29 JUMPI PUSH2 0x100 DUP1 DUP4 SLOAD DIV MUL DUP4 MSTORE SWAP2 PUSH1 0x20 ADD SWAP2 PUSH2 0xA54 JUMP JUMPDEST DUP3 ADD SWAP2 SWAP1 PUSH1 0x0 MSTORE PUSH1 0x20 PUSH1 0x0 KECCAK256 SWAP1 JUMPDEST DUP2 SLOAD DUP2 MSTORE SWAP1 PUSH1 0x1 ADD SWAP1 PUSH1 0x20 ADD DUP1 DUP4 GT PUSH2 0xA37 JUMPI DUP3 SWAP1 SUB PUSH1 0x1F AND DUP3 ADD SWAP2 JUMPDEST POP POP POP POP POP SWAP1 DUP1 PUSH1 0x2 ADD DUP1 SLOAD PUSH2 0xA69 SWAP1 PUSH2 0x1451 JUMP JUMPDEST DUP1 PUSH1 0x1F ADD PUSH1 0x20 DUP1 SWAP2 DIV MUL PUSH1 0x20 ADD PUSH1 0x40 MLOAD SWAP1 DUP2 ADD PUSH1 0x40 MSTORE DUP1 SWAP3 SWAP2 SWAP1 DUP2 DUP2 MSTORE PUSH1 0x20 ADD DUP3 DUP1 SLOAD PUSH2 0xA95 SWAP1 PUSH2 0x1451 JUMP JUMPDEST DUP1 ISZERO PUSH2 0xAE2 JUMPI DUP1 PUSH1 0x1F LT PUSH2 0xAB7 JUMPI PUSH2 0x100 DUP1 DUP4 SLOAD DIV MUL DUP4 MSTORE SWAP2 PUSH1 0x20 ADD SWAP2 PUSH2 0xAE2 JUMP JUMPDEST DUP3 ADD SWAP2 SWAP1 PUSH1 0x0 MSTORE PUSH1 0x20 PUSH1 0x0 KECCAK256 SWAP1 JUMPDEST DUP2 SLOAD DUP2 MSTORE SWAP1 PUSH1 0x1 ADD SWAP1 PUSH1 0x20 ADD DUP1 DUP4 GT PUSH2 0xAC5 JUMPI DUP3 SWAP1 SUB PUSH1 0x1F AND DUP3 ADD SWAP2 JUMPDEST POP POP POP POP POP SWAP1 DUP1 PUSH1 0x3 ADD DUP1 SLOAD PUSH2 0xAF7 SWAP1 PUSH2 0x1451 JUMP JUMPDEST DUP1 PUSH1 0x1F ADD PUSH1 0x20 DUP1 SWAP2 DIV MUL PUSH1 0x20 ADD PUSH1 0x40 MLOAD SWAP1 DUP2 ADD PUSH1 0x40 MSTORE DUP1 SWAP3 SWAP2 SWAP1 DUP2 DUP2 MSTORE PUSH1 0x20 ADD DUP3 DUP1 SLOAD PUSH2 0xB23 SWAP1 PUSH2 0x1451 JUMP JUMPDEST DUP1 ISZERO PUSH2 0xB70 JUMPI DUP1 PUSH1 0x1F LT PUSH2 0xB45 JUMPI PUSH2 0x100 DUP1 DUP4 SLOAD DIV MUL DUP4 MSTORE SWAP2 PUSH1 0x20 ADD SWAP2 PUSH2 0xB70 JUMP JUMPDEST DUP3 ADD SWAP2 SWAP1 PUSH1 0x0 MSTORE PUSH1 0x20 PUSH1 0x0 KECCAK256 SWAP1 JUMPDEST DUP2 SLOAD DUP2 MSTORE SWAP1 PUSH1 0x1 ADD SWAP1 PUSH1 0x20 ADD DUP1 DUP4 GT PUSH2 0xB53 JUMPI DUP3 SWAP1 SUB PUSH1 0x1F AND DUP3 ADD SWAP2 JUMPDEST POP POP POP POP POP SWAP1 DUP1 PUSH1 0x4 ADD SLOAD SWAP1 DUP1 PUSH1 0x5 ADD SLOAD SWAP1 DUP1 PUSH1 0x6 ADD SLOAD SWAP1 POP DUP8 JUMP JUMPDEST PUSH1 0x0 DUP1 PUSH1 0x2 SWAP1 POP PUSH1 0x0 DUP2 TIMESTAMP DUP4 PUSH1 0x1 SLOAD PUSH1 0x40 MLOAD PUSH1 0x20 ADD PUSH2 0xBAD SWAP4 SWAP3 SWAP2 SWAP1 PUSH2 0x1130 JUMP JUMPDEST PUSH1 0x40 MLOAD PUSH1 0x20 DUP2 DUP4 SUB SUB DUP2 MSTORE SWAP1 PUSH1 0x40 MSTORE DUP1 MLOAD SWAP1 PUSH1 0x20 ADD KECCAK256 PUSH1 0x0 SHR PUSH2 0xBD0 SWAP2 SWAP1 PUSH2 0x1507 JUMP JUMPDEST SWAP1 POP DUP1 SWAP3 POP POP POP SWAP1 JUMP JUMPDEST PUSH2 0xBE2 PUSH2 0xD2C JUMP JUMPDEST PUSH20 0xFFFFFFFFFFFFFFFFFFFFFFFFFFFFFFFFFFFFFFFF AND PUSH2 0xC00 PUSH2 0x959 JUMP JUMPDEST PUSH20 0xFFFFFFFFFFFFFFFFFFFFFFFFFFFFFFFFFFFFFFFF AND EQ PUSH2 0xC56 JUMPI PUSH1 0x40 MLOAD PUSH32 0x8C379A000000000000000000000000000000000000000000000000000000000 DUP2 MSTORE PUSH1 0x4 ADD PUSH2 0xC4D SWAP1 PUSH2 0x126E JUMP JUMPDEST PUSH1 0x40 MLOAD DUP1 SWAP2 SUB SWAP1 REVERT JUMPDEST PUSH1 0x0 PUSH20 0xFFFFFFFFFFFFFFFFFFFFFFFFFFFFFFFFFFFFFFFF AND DUP2 PUSH20 0xFFFFFFFFFFFFFFFFFFFFFFFFFFFFFFFFFFFFFFFF AND EQ ISZERO PUSH2 0xCC6 JUMPI PUSH1 0x40 MLOAD PUSH32 0x8C379A000000000000000000000000000000000000000000000000000000000 DUP2 MSTORE PUSH1 0x4 ADD PUSH2 0xCBD SWAP1 PUSH2 0x124E JUMP JUMPDEST PUSH1 0x40 MLOAD DUP1 SWAP2 SUB SWAP1 REVERT JUMPDEST PUSH2 0xCCF DUP2 PUSH2 0xD34 JUMP JUMPDEST POP JUMP JUMPDEST PUSH1 0x0 TIMESTAMP DUP3 PUSH1 0x6 ADD SLOAD GT ISZERO SWAP1 POP SWAP2 SWAP1 POP JUMP JUMPDEST CALLER PUSH20 0xFFFFFFFFFFFFFFFFFFFFFFFFFFFFFFFFFFFFFFFF AND PUSH2 0x8FC SELFBALANCE SWAP1 DUP2 ISZERO MUL SWAP1 PUSH1 0x40 MLOAD PUSH1 0x0 PUSH1 0x40 MLOAD DUP1 DUP4 SUB DUP2 DUP6 DUP9 DUP9 CALL SWAP4 POP POP POP POP ISZERO DUP1 ISZERO PUSH2 0xD29 JUMPI RETURNDATASIZE PUSH1 0x0 DUP1 RETURNDATACOPY RETURNDATASIZE PUSH1 0x0 REVERT JUMPDEST POP JUMP JUMPDEST PUSH1 0x0 CALLER SWAP1 POP SWAP1 JUMP JUMPDEST PUSH1 0x0 DUP1 PUSH1 0x0 SWAP1 SLOAD SWAP1 PUSH2 0x100 EXP SWAP1 DIV PUSH20 0xFFFFFFFFFFFFFFFFFFFFFFFFFFFFFFFFFFFFFFFF AND SWAP1 POP DUP2 PUSH1 0x0 DUP1 PUSH2 0x100 EXP DUP2 SLOAD DUP2 PUSH20 0xFFFFFFFFFFFFFFFFFFFFFFFFFFFFFFFFFFFFFFFF MUL NOT AND SWAP1 DUP4 PUSH20 0xFFFFFFFFFFFFFFFFFFFFFFFFFFFFFFFFFFFFFFFF AND MUL OR SWAP1 SSTORE POP DUP2 PUSH20 0xFFFFFFFFFFFFFFFFFFFFFFFFFFFFFFFFFFFFFFFF AND DUP2 PUSH20 0xFFFFFFFFFFFFFFFFFFFFFFFFFFFFFFFFFFFFFFFF AND PUSH32 0x8BE0079C531659141344CD1FD0A4F28419497F9722A3DAAFE3B4186F6B6457E0 PUSH1 0x40 MLOAD PUSH1 0x40 MLOAD DUP1 SWAP2 SUB SWAP1 LOG3 POP POP JUMP JUMPDEST DUP3 DUP1 SLOAD PUSH2 0xE04 SWAP1 PUSH2 0x1451 JUMP JUMPDEST SWAP1 PUSH1 0x0 MSTORE PUSH1 0x20 PUSH1 0x0 KECCAK256 SWAP1 PUSH1 0x1F ADD PUSH1 0x20 SWAP1 DIV DUP2 ADD SWAP3 DUP3 PUSH2 0xE26 JUMPI PUSH1 0x0 DUP6 SSTORE PUSH2 0xE6D JUMP JUMPDEST DUP3 PUSH1 0x1F LT PUSH2 0xE3F JUMPI DUP1 MLOAD PUSH1 0xFF NOT AND DUP4 DUP1 ADD OR DUP6 SSTORE PUSH2 0xE6D JUMP JUMPDEST DUP3 DUP1 ADD PUSH1 0x1 ADD DUP6 SSTORE DUP3 ISZERO PUSH2 0xE6D JUMPI SWAP2 DUP3 ADD JUMPDEST DUP3 DUP2 GT ISZERO PUSH2 0xE6C JUMPI DUP3 MLOAD DUP3 SSTORE SWAP2 PUSH1 0x20 ADD SWAP2 SWAP1 PUSH1 0x1 ADD SWAP1 PUSH2 0xE51 JUMP JUMPDEST JUMPDEST POP SWAP1 POP PUSH2 0xE7A SWAP2 SWAP1 PUSH2 0xE7E JUMP JUMPDEST POP SWAP1 JUMP JUMPDEST JUMPDEST DUP1 DUP3 GT ISZERO PUSH2 0xE97 JUMPI PUSH1 0x0 DUP2 PUSH1 0x0 SWAP1 SSTORE POP PUSH1 0x1 ADD PUSH2 0xE7F JUMP JUMPDEST POP SWAP1 JUMP JUMPDEST PUSH1 0x0 PUSH2 0xEAE PUSH2 0xEA9 DUP5 PUSH2 0x12FC JUMP JUMPDEST PUSH2 0x12D7 JUMP JUMPDEST SWAP1 POP DUP3 DUP2 MSTORE PUSH1 0x20 DUP2 ADD DUP5 DUP5 DUP5 ADD GT ISZERO PUSH2 0xECA JUMPI PUSH2 0xEC9 PUSH2 0x1628 JUMP JUMPDEST JUMPDEST PUSH2 0xED5 DUP5 DUP3 DUP6 PUSH2 0x140F JUMP JUMPDEST POP SWAP4 SWAP3 POP POP POP JUMP JUMPDEST PUSH1 0x0 DUP2 CALLDATALOAD SWAP1 POP PUSH2 0xEEC DUP2 PUSH2 0x1738 JUMP JUMPDEST SWAP3 SWAP2 POP POP JUMP JUMPDEST PUSH1 0x0 DUP3 PUSH1 0x1F DUP4 ADD SLT PUSH2 0xF07 JUMPI PUSH2 0xF06 PUSH2 0x1623 JUMP JUMPDEST JUMPDEST DUP2 CALLDATALOAD PUSH2 0xF17 DUP5 DUP3 PUSH1 0x20 DUP7 ADD PUSH2 0xE9B JUMP JUMPDEST SWAP2 POP POP SWAP3 SWAP2 POP POP JUMP JUMPDEST PUSH1 0x0 DUP2 CALLDATALOAD SWAP1 POP PUSH2 0xF2F DUP2 PUSH2 0x174F JUMP JUMPDEST SWAP3 SWAP2 POP POP JUMP JUMPDEST PUSH1 0x0 PUSH1 0x20 DUP3 DUP5 SUB SLT ISZERO PUSH2 0xF4B JUMPI PUSH2 0xF4A PUSH2 0x1632 JUMP JUMPDEST JUMPDEST PUSH1 0x0 PUSH2 0xF59 DUP5 DUP3 DUP6 ADD PUSH2 0xEDD JUMP JUMPDEST SWAP2 POP POP SWAP3 SWAP2 POP POP JUMP JUMPDEST PUSH1 0x0 DUP1 PUSH1 0x0 PUSH1 0x60 DUP5 DUP7 SUB SLT ISZERO PUSH2 0xF7B JUMPI PUSH2 0xF7A PUSH2 0x1632 JUMP JUMPDEST JUMPDEST PUSH1 0x0 DUP5 ADD CALLDATALOAD PUSH8 0xFFFFFFFFFFFFFFFF DUP2 GT ISZERO PUSH2 0xF99 JUMPI PUSH2 0xF98 PUSH2 0x162D JUMP JUMPDEST JUMPDEST PUSH2 0xFA5 DUP7 DUP3 DUP8 ADD PUSH2 0xEF2 JUMP JUMPDEST SWAP4 POP POP PUSH1 0x20 DUP5 ADD CALLDATALOAD PUSH8 0xFFFFFFFFFFFFFFFF DUP2 GT ISZERO PUSH2 0xFC6 JUMPI PUSH2 0xFC5 PUSH2 0x162D JUMP JUMPDEST JUMPDEST PUSH2 0xFD2 DUP7 DUP3 DUP8 ADD PUSH2 0xEF2 JUMP JUMPDEST SWAP3 POP POP PUSH1 0x40 DUP5 ADD CALLDATALOAD PUSH8 0xFFFFFFFFFFFFFFFF DUP2 GT ISZERO PUSH2 0xFF3 JUMPI PUSH2 0xFF2 PUSH2 0x162D JUMP JUMPDEST JUMPDEST PUSH2 0xFFF DUP7 DUP3 DUP8 ADD PUSH2 0xEF2 JUMP JUMPDEST SWAP2 POP POP SWAP3 POP SWAP3 POP SWAP3 JUMP JUMPDEST PUSH1 0x0 PUSH1 0x20 DUP3 DUP5 SUB SLT ISZERO PUSH2 0x101F JUMPI PUSH2 0x101E PUSH2 0x1632 JUMP JUMPDEST JUMPDEST PUSH1 0x0 PUSH2 0x102D DUP5 DUP3 DUP6 ADD PUSH2 0xF20 JUMP JUMPDEST SWAP2 POP POP SWAP3 SWAP2 POP POP JUMP JUMPDEST PUSH2 0x103F DUP2 PUSH2 0x13D3 JUMP JUMPDEST DUP3 MSTORE POP POP JUMP JUMPDEST PUSH1 0x0 PUSH2 0x1050 DUP3 PUSH2 0x132D JUMP JUMPDEST PUSH2 0x105A DUP2 DUP6 PUSH2 0x1338 JUMP JUMPDEST SWAP4 POP PUSH2 0x106A DUP2 DUP6 PUSH1 0x20 DUP7 ADD PUSH2 0x141E JUMP JUMPDEST PUSH2 0x1073 DUP2 PUSH2 0x1637 JUMP JUMPDEST DUP5 ADD SWAP2 POP POP SWAP3 SWAP2 POP POP JUMP JUMPDEST PUSH1 0x0 PUSH2 0x108B PUSH1 0x28 DUP4 PUSH2 0x1338 JUMP JUMPDEST SWAP2 POP PUSH2 0x1096 DUP3 PUSH2 0x1648 JUMP JUMPDEST PUSH1 0x40 DUP3 ADD SWAP1 POP SWAP2 SWAP1 POP JUMP JUMPDEST PUSH1 0x0 PUSH2 0x10AE PUSH1 0x26 DUP4 PUSH2 0x1338 JUMP JUMPDEST SWAP2 POP PUSH2 0x10B9 DUP3 PUSH2 0x1697 JUMP JUMPDEST PUSH1 0x40 DUP3 ADD SWAP1 POP SWAP2 SWAP1 POP JUMP JUMPDEST PUSH1 0x0 PUSH2 0x10D1 PUSH1 0x20 DUP4 PUSH2 0x1338 JUMP JUMPDEST SWAP2 POP PUSH2 0x10DC DUP3 PUSH2 0x16E6 JUMP JUMPDEST PUSH1 0x20 DUP3 ADD SWAP1 POP SWAP2 SWAP1 POP JUMP JUMPDEST PUSH1 0x0 PUSH2 0x10F4 PUSH1 0x15 DUP4 PUSH2 0x1338 JUMP JUMPDEST SWAP2 POP PUSH2 0x10FF DUP3 PUSH2 0x170F JUMP JUMPDEST PUSH1 0x20 DUP3 ADD SWAP1 POP SWAP2 SWAP1 POP JUMP JUMPDEST PUSH2 0x1113 DUP2 PUSH2 0x1405 JUMP JUMPDEST DUP3 MSTORE POP POP JUMP JUMPDEST PUSH2 0x112A PUSH2 0x1125 DUP3 PUSH2 0x1405 JUMP JUMPDEST PUSH2 0x14FD JUMP JUMPDEST DUP3 MSTORE POP POP JUMP JUMPDEST PUSH1 0x0 PUSH2 0x113C DUP3 DUP7 PUSH2 0x1119 JUMP JUMPDEST PUSH1 0x20 DUP3 ADD SWAP2 POP PUSH2 0x114C DUP3 DUP6 PUSH2 0x1119 JUMP JUMPDEST PUSH1 0x20 DUP3 ADD SWAP2 POP PUSH2 0x115C DUP3 DUP5 PUSH2 0x1119 JUMP JUMPDEST PUSH1 0x20 DUP3 ADD SWAP2 POP DUP2 SWAP1 POP SWAP5 SWAP4 POP POP POP POP JUMP JUMPDEST PUSH1 0x0 PUSH1 0x20 DUP3 ADD SWAP1 POP PUSH2 0x1182 PUSH1 0x0 DUP4 ADD DUP5 PUSH2 0x1036 JUMP JUMPDEST SWAP3 SWAP2 POP POP JUMP JUMPDEST PUSH1 0x0 PUSH1 0xE0 DUP3 ADD SWAP1 POP PUSH2 0x119D PUSH1 0x0 DUP4 ADD DUP11 PUSH2 0x1036 JUMP JUMPDEST DUP2 DUP2 SUB PUSH1 0x20 DUP4 ADD MSTORE PUSH2 0x11AF DUP2 DUP10 PUSH2 0x1045 JUMP JUMPDEST SWAP1 POP DUP2 DUP2 SUB PUSH1 0x40 DUP4 ADD MSTORE PUSH2 0x11C3 DUP2 DUP9 PUSH2 0x1045 JUMP JUMPDEST SWAP1 POP DUP2 DUP2 SUB PUSH1 0x60 DUP4 ADD MSTORE PUSH2 0x11D7 DUP2 DUP8 PUSH2 0x1045 JUMP JUMPDEST SWAP1 POP PUSH2 0x11E6 PUSH1 0x80 DUP4 ADD DUP7 PUSH2 0x110A JUMP JUMPDEST PUSH2 0x11F3 PUSH1 0xA0 DUP4 ADD DUP6 PUSH2 0x110A JUMP JUMPDEST PUSH2 0x1200 PUSH1 0xC0 DUP4 ADD DUP5 PUSH2 0x110A JUMP JUMPDEST SWAP9 SWAP8 POP POP POP POP POP POP POP POP JUMP JUMPDEST PUSH1 0x0 PUSH1 0x20 DUP3 ADD SWAP1 POP DUP2 DUP2 SUB PUSH1 0x0 DUP4 ADD MSTORE PUSH2 0x1226 DUP2 DUP5 PUSH2 0x1045 JUMP JUMPDEST SWAP1 POP SWAP3 SWAP2 POP POP JUMP JUMPDEST PUSH1 0x0 PUSH1 0x20 DUP3 ADD SWAP1 POP DUP2 DUP2 SUB PUSH1 0x0 DUP4 ADD MSTORE PUSH2 0x1247 DUP2 PUSH2 0x107E JUMP JUMPDEST SWAP1 POP SWAP2 SWAP1 POP JUMP JUMPDEST PUSH1 0x0 PUSH1 0x20 DUP3 ADD SWAP1 POP DUP2 DUP2 SUB PUSH1 0x0 DUP4 ADD MSTORE PUSH2 0x1267 DUP2 PUSH2 0x10A1 JUMP JUMPDEST SWAP1 POP SWAP2 SWAP1 POP JUMP JUMPDEST PUSH1 0x0 PUSH1 0x20 DUP3 ADD SWAP1 POP DUP2 DUP2 SUB PUSH1 0x0 DUP4 ADD MSTORE PUSH2 0x1287 DUP2 PUSH2 0x10C4 JUMP JUMPDEST SWAP1 POP SWAP2 SWAP1 POP JUMP JUMPDEST PUSH1 0x0 PUSH1 0x40 DUP3 ADD SWAP1 POP DUP2 DUP2 SUB PUSH1 0x0 DUP4 ADD MSTORE PUSH2 0x12A7 DUP2 PUSH2 0x10E7 JUMP JUMPDEST SWAP1 POP PUSH2 0x12B6 PUSH1 0x20 DUP4 ADD DUP5 PUSH2 0x110A JUMP JUMPDEST SWAP3 SWAP2 POP POP JUMP JUMPDEST PUSH1 0x0 PUSH1 0x20 DUP3 ADD SWAP1 POP PUSH2 0x12D1 PUSH1 0x0 DUP4 ADD DUP5 PUSH2 0x110A JUMP JUMPDEST SWAP3 SWAP2 POP POP JUMP JUMPDEST PUSH1 0x0 PUSH2 0x12E1 PUSH2 0x12F2 JUMP JUMPDEST SWAP1 POP PUSH2 0x12ED DUP3 DUP3 PUSH2 0x1483 JUMP JUMPDEST SWAP2 SWAP1 POP JUMP JUMPDEST PUSH1 0x0 PUSH1 0x40 MLOAD SWAP1 POP SWAP1 JUMP JUMPDEST PUSH1 0x0 PUSH8 0xFFFFFFFFFFFFFFFF DUP3 GT ISZERO PUSH2 0x1317 JUMPI PUSH2 0x1316 PUSH2 0x15F4 JUMP JUMPDEST JUMPDEST PUSH2 0x1320 DUP3 PUSH2 0x1637 JUMP JUMPDEST SWAP1 POP PUSH1 0x20 DUP2 ADD SWAP1 POP SWAP2 SWAP1 POP JUMP JUMPDEST PUSH1 0x0 DUP2 MLOAD SWAP1 POP SWAP2 SWAP1 POP JUMP JUMPDEST PUSH1 0x0 DUP3 DUP3 MSTORE PUSH1 0x20 DUP3 ADD SWAP1 POP SWAP3 SWAP2 POP POP JUMP JUMPDEST PUSH1 0x0 PUSH2 0x1354 DUP3 PUSH2 0x1405 JUMP JUMPDEST SWAP2 POP PUSH2 0x135F DUP4 PUSH2 0x1405 JUMP JUMPDEST SWAP3 POP DUP3 PUSH32 0xFFFFFFFFFFFFFFFFFFFFFFFFFFFFFFFFFFFFFFFFFFFFFFFFFFFFFFFFFFFFFFFF SUB DUP3 GT ISZERO PUSH2 0x1394 JUMPI PUSH2 0x1393 PUSH2 0x1538 JUMP JUMPDEST JUMPDEST DUP3 DUP3 ADD SWAP1 POP SWAP3 SWAP2 POP POP JUMP JUMPDEST PUSH1 0x0 PUSH2 0x13AA DUP3 PUSH2 0x1405 JUMP JUMPDEST SWAP2 POP PUSH2 0x13B5 DUP4 PUSH2 0x1405 JUMP JUMPDEST SWAP3 POP DUP3 DUP3 LT ISZERO PUSH2 0x13C8 JUMPI PUSH2 0x13C7 PUSH2 0x1538 JUMP JUMPDEST JUMPDEST DUP3 DUP3 SUB SWAP1 POP SWAP3 SWAP2 POP POP JUMP JUMPDEST PUSH1 0x0 PUSH2 0x13DE DUP3 PUSH2 0x13E5 JUMP JUMPDEST SWAP1 POP SWAP2 SWAP1 POP JUMP JUMPDEST PUSH1 0x0 PUSH20 0xFFFFFFFFFFFFFFFFFFFFFFFFFFFFFFFFFFFFFFFF DUP3 AND SWAP1 POP SWAP2 SWAP1 POP JUMP JUMPDEST PUSH1 0x0 DUP2 SWAP1 POP SWAP2 SWAP1 POP JUMP JUMPDEST DUP3 DUP2 DUP4 CALLDATACOPY PUSH1 0x0 DUP4 DUP4 ADD MSTORE POP POP POP JUMP JUMPDEST PUSH1 0x0 JUMPDEST DUP4 DUP2 LT ISZERO PUSH2 0x143C JUMPI DUP1 DUP3 ADD MLOAD DUP2 DUP5 ADD MSTORE PUSH1 0x20 DUP2 ADD SWAP1 POP PUSH2 0x1421 JUMP JUMPDEST DUP4 DUP2 GT ISZERO PUSH2 0x144B JUMPI PUSH1 0x0 DUP5 DUP5 ADD MSTORE JUMPDEST POP POP POP POP JUMP JUMPDEST PUSH1 0x0 PUSH1 0x2 DUP3 DIV SWAP1 POP PUSH1 0x1 DUP3 AND DUP1 PUSH2 0x1469 JUMPI PUSH1 0x7F DUP3 AND SWAP2 POP JUMPDEST PUSH1 0x20 DUP3 LT DUP2 EQ ISZERO PUSH2 0x147D JUMPI PUSH2 0x147C PUSH2 0x1596 JUMP JUMPDEST JUMPDEST POP SWAP2 SWAP1 POP JUMP JUMPDEST PUSH2 0x148C DUP3 PUSH2 0x1637 JUMP JUMPDEST DUP2 ADD DUP2 DUP2 LT PUSH8 0xFFFFFFFFFFFFFFFF DUP3 GT OR ISZERO PUSH2 0x14AB JUMPI PUSH2 0x14AA PUSH2 0x15F4 JUMP JUMPDEST JUMPDEST DUP1 PUSH1 0x40 MSTORE POP POP POP JUMP JUMPDEST PUSH1 0x0 PUSH2 0x14BF DUP3 PUSH2 0x1405 JUMP JUMPDEST SWAP2 POP PUSH32 0xFFFFFFFFFFFFFFFFFFFFFFFFFFFFFFFFFFFFFFFFFFFFFFFFFFFFFFFFFFFFFFFF DUP3 EQ ISZERO PUSH2 0x14F2 JUMPI PUSH2 0x14F1 PUSH2 0x1538 JUMP JUMPDEST JUMPDEST PUSH1 0x1 DUP3 ADD SWAP1 POP SWAP2 SWAP1 POP JUMP JUMPDEST PUSH1 0x0 DUP2 SWAP1 POP SWAP2 SWAP1 POP JUMP JUMPDEST PUSH1 0x0 PUSH2 0x1512 DUP3 PUSH2 0x1405 JUMP JUMPDEST SWAP2 POP PUSH2 0x151D DUP4 PUSH2 0x1405 JUMP JUMPDEST SWAP3 POP DUP3 PUSH2 0x152D JUMPI PUSH2 0x152C PUSH2 0x1567 JUMP JUMPDEST JUMPDEST DUP3 DUP3 MOD SWAP1 POP SWAP3 SWAP2 POP POP JUMP JUMPDEST PUSH32 0x4E487B7100000000000000000000000000000000000000000000000000000000 PUSH1 0x0 MSTORE PUSH1 0x11 PUSH1 0x4 MSTORE PUSH1 0x24 PUSH1 0x0 REVERT JUMPDEST PUSH32 0x4E487B7100000000000000000000000000000000000000000000000000000000 PUSH1 0x0 MSTORE PUSH1 0x12 PUSH1 0x4 MSTORE PUSH1 0x24 PUSH1 0x0 REVERT JUMPDEST PUSH32 0x4E487B7100000000000000000000000000000000000000000000000000000000 PUSH1 0x0 MSTORE PUSH1 0x22 PUSH1 0x4 MSTORE PUSH1 0x24 PUSH1 0x0 REVERT JUMPDEST PUSH32 0x4E487B7100000000000000000000000000000000000000000000000000000000 PUSH1 0x0 MSTORE PUSH1 0x32 PUSH1 0x4 MSTORE PUSH1 0x24 PUSH1 0x0 REVERT JUMPDEST PUSH32 0x4E487B7100000000000000000000000000000000000000000000000000000000 PUSH1 0x0 MSTORE PUSH1 0x41 PUSH1 0x4 MSTORE PUSH1 0x24 PUSH1 0x0 REVERT JUMPDEST PUSH1 0x0 DUP1 REVERT JUMPDEST PUSH1 0x0 DUP1 REVERT JUMPDEST PUSH1 0x0 DUP1 REVERT JUMPDEST PUSH1 0x0 DUP1 REVERT JUMPDEST PUSH1 0x0 PUSH1 0x1F NOT PUSH1 0x1F DUP4 ADD AND SWAP1 POP SWAP2 SWAP1 POP JUMP JUMPDEST PUSH32 0x536F6C6F2073652070756564652074656E657220756E20636F63686520706F72 PUSH1 0x0 DUP3 ADD MSTORE PUSH32 0x20706572736F6E61000000000000000000000000000000000000000000000000 PUSH1 0x20 DUP3 ADD MSTORE POP JUMP JUMPDEST PUSH32 0x4F776E61626C653A206E6577206F776E657220697320746865207A65726F2061 PUSH1 0x0 DUP3 ADD MSTORE PUSH32 0x6464726573730000000000000000000000000000000000000000000000000000 PUSH1 0x20 DUP3 ADD MSTORE POP JUMP JUMPDEST PUSH32 0x4F776E61626C653A2063616C6C6572206973206E6F7420746865206F776E6572 PUSH1 0x0 DUP3 ADD MSTORE POP JUMP JUMPDEST PUSH32 0x456C20636F6368652067616E61646F722065733A200000000000000000000000 PUSH1 0x0 DUP3 ADD MSTORE POP JUMP JUMPDEST PUSH2 0x1741 DUP2 PUSH2 0x13D3 JUMP JUMPDEST DUP2 EQ PUSH2 0x174C JUMPI PUSH1 0x0 DUP1 REVERT JUMPDEST POP JUMP JUMPDEST PUSH2 0x1758 DUP2 PUSH2 0x1405 JUMP JUMPDEST DUP2 EQ PUSH2 0x1763 JUMPI PUSH1 0x0 DUP1 REVERT JUMPDEST POP JUMP INVALID LOG2 PUSH5 0x6970667358 0x22 SLT KECCAK256 PUSH2 0x1E1C STATICCALL 0xAB EXTCODESIZE BASEFEE 0xAE 0xD6 0x24 DUP9 0x24 0x28 PUSH26 0xD50196B64C6BA284C2ABAF95C29E21FCEAB964736F6C63430008 SMOD STOP CALLER "
				},
				"gasEstimates": {
					"creation": {
						"codeDepositCost": "1208800",
						"executionCost": "infinite",
						"totalCost": "infinite"
					},
					"external": {
						"Apostar(uint256)": "infinite",
						"anadirCoche(string,string,string)": "infinite",
						"carrera(uint256)": "infinite",
						"listaCoches(uint256)": "infinite",
						"numeroAleatorio()": "infinite",
						"numeroCochesPersona(address)": "2837",
						"owner()": "2544",
						"renounceOwnership()": "30374",
						"transferOwnership(address)": "30811"
					},
					"internal": {
						"_depositoLleno(struct CarreraCoches.Coche storage pointer)": "2142",
						"_repostando(struct CarreraCoches.Coche storage pointer)": "infinite",
						"balance()": "infinite"
					}
				},
				"methodIdentifiers": {
					"Apostar(uint256)": "6b6f0494",
					"anadirCoche(string,string,string)": "2458c544",
					"carrera(uint256)": "12a1c2ca",
					"listaCoches(uint256)": "d735573d",
					"numeroAleatorio()": "f1413763",
					"numeroCochesPersona(address)": "1c6743e4",
					"owner()": "8da5cb5b",
					"renounceOwnership()": "715018a6",
					"transferOwnership(address)": "f2fde38b"
				}
			},
			"storageLayout": {
				"storage": [
					{
						"astId": 398,
						"contract": "contracts/CarreraCoches/main.sol:CarreraCoches",
						"label": "_owner",
						"offset": 0,
						"slot": "0",
						"type": "t_address"
					},
					{
						"astId": 22,
						"contract": "contracts/CarreraCoches/main.sol:CarreraCoches",
						"label": "randNonce",
						"offset": 0,
						"slot": "1",
						"type": "t_uint256"
					},
					{
						"astId": 25,
						"contract": "contracts/CarreraCoches/main.sol:CarreraCoches",
						"label": "contador",
						"offset": 0,
						"slot": "2",
						"type": "t_uint256"
					},
					{
						"astId": 28,
						"contract": "contracts/CarreraCoches/main.sol:CarreraCoches",
						"label": "cooldown",
						"offset": 0,
						"slot": "3",
						"type": "t_uint256"
					},
					{
						"astId": 32,
						"contract": "contracts/CarreraCoches/main.sol:CarreraCoches",
						"label": "listaCoches",
						"offset": 0,
						"slot": "4",
						"type": "t_array(t_struct(Coche)19_storage)dyn_storage"
					},
					{
						"astId": 42,
						"contract": "contracts/CarreraCoches/main.sol:CarreraCoches",
						"label": "numeroCochesPersona",
						"offset": 0,
						"slot": "5",
						"type": "t_mapping(t_address,t_uint256)"
					}
				],
				"types": {
					"t_address": {
						"encoding": "inplace",
						"label": "address",
						"numberOfBytes": "20"
					},
					"t_array(t_struct(Coche)19_storage)dyn_storage": {
						"base": "t_struct(Coche)19_storage",
						"encoding": "dynamic_array",
						"label": "struct CarreraCoches.Coche[]",
						"numberOfBytes": "32"
					},
					"t_mapping(t_address,t_uint256)": {
						"encoding": "mapping",
						"key": "t_address",
						"label": "mapping(address => uint256)",
						"numberOfBytes": "32",
						"value": "t_uint256"
					},
					"t_string_storage": {
						"encoding": "bytes",
						"label": "string",
						"numberOfBytes": "32"
					},
					"t_struct(Coche)19_storage": {
						"encoding": "inplace",
						"label": "struct CarreraCoches.Coche",
						"members": [
							{
								"astId": 6,
								"contract": "contracts/CarreraCoches/main.sol:CarreraCoches",
								"label": "idPiloto",
								"offset": 0,
								"slot": "0",
								"type": "t_address"
							},
							{
								"astId": 8,
								"contract": "contracts/CarreraCoches/main.sol:CarreraCoches",
								"label": "modelo",
								"offset": 0,
								"slot": "1",
								"type": "t_string_storage"
							},
							{
								"astId": 10,
								"contract": "contracts/CarreraCoches/main.sol:CarreraCoches",
								"label": "marca",
								"offset": 0,
								"slot": "2",
								"type": "t_string_storage"
							},
							{
								"astId": 12,
								"contract": "contracts/CarreraCoches/main.sol:CarreraCoches",
								"label": "nombrePiloto",
								"offset": 0,
								"slot": "3",
								"type": "t_string_storage"
							},
							{
								"astId": 14,
								"contract": "contracts/CarreraCoches/main.sol:CarreraCoches",
								"label": "carrerasGanadas",
								"offset": 0,
								"slot": "4",
								"type": "t_uint256"
							},
							{
								"astId": 16,
								"contract": "contracts/CarreraCoches/main.sol:CarreraCoches",
								"label": "carrerasTotales",
								"offset": 0,
								"slot": "5",
								"type": "t_uint256"
							},
							{
								"astId": 18,
								"contract": "contracts/CarreraCoches/main.sol:CarreraCoches",
								"label": "tiempoEspera",
								"offset": 0,
								"slot": "6",
								"type": "t_uint256"
							}
						],
						"numberOfBytes": "224"
					},
					"t_uint256": {
						"encoding": "inplace",
						"label": "uint256",
						"numberOfBytes": "32"
					}
				}
			},
			"userdoc": {
				"kind": "user",
				"methods": {},
				"version": 1
			}
		}
	}
}