{
	"contracts/CarreraCoches/main.sol": {
		"CarreraCoches": {
			"abi": [
				{
					"anonymous": false,
					"inputs": [
						{
							"indexed": false,
							"internalType": "string",
							"name": "ms",
							"type": "string"
						},
						{
							"indexed": false,
							"internalType": "uint256",
							"name": "res",
							"type": "uint256"
						}
					],
					"name": "mostrarResultado",
					"type": "event"
				},
				{
					"inputs": [
						{
							"internalType": "uint256",
							"name": "dineroApostar",
							"type": "uint256"
						}
					],
					"name": "Apostar",
					"outputs": [
						{
							"internalType": "string",
							"name": "",
							"type": "string"
						}
					],
					"stateMutability": "payable",
					"type": "function"
				},
				{
					"inputs": [
						{
							"internalType": "string",
							"name": "_modelo",
							"type": "string"
						},
						{
							"internalType": "string",
							"name": "_marca",
							"type": "string"
						},
						{
							"internalType": "string",
							"name": "_nombrePiloto",
							"type": "string"
						}
					],
					"name": "anadirCoche",
					"outputs": [
						{
							"internalType": "uint256",
							"name": "",
							"type": "uint256"
						}
					],
					"stateMutability": "nonpayable",
					"type": "function"
				},
				{
					"inputs": [
						{
							"internalType": "uint256",
							"name": "",
							"type": "uint256"
						}
					],
					"name": "listaCoches",
					"outputs": [
						{
							"internalType": "address",
							"name": "idPiloto",
							"type": "address"
						},
						{
							"internalType": "string",
							"name": "modelo",
							"type": "string"
						},
						{
							"internalType": "string",
							"name": "marca",
							"type": "string"
						},
						{
							"internalType": "string",
							"name": "nombrePiloto",
							"type": "string"
						},
						{
							"internalType": "uint256",
							"name": "carrerasGanadas",
							"type": "uint256"
						},
						{
							"internalType": "uint256",
							"name": "carrerasTotales",
							"type": "uint256"
						}
					],
					"stateMutability": "view",
					"type": "function"
				},
				{
					"inputs": [
						{
							"internalType": "address",
							"name": "",
							"type": "address"
						}
					],
					"name": "numeroCochesPersona",
					"outputs": [
						{
							"internalType": "uint256",
							"name": "",
							"type": "uint256"
						}
					],
					"stateMutability": "view",
					"type": "function"
				}
			],
			"devdoc": {
				"kind": "dev",
				"methods": {},
				"version": 1
			},
			"evm": {
				"assembly": "    /* \"contracts/CarreraCoches/main.sol\":27:2197  contract CarreraCoches {\r... */\n  mstore(0x40, 0x80)\n    /* \"contracts/CarreraCoches/main.sol\":281:282  0 */\n  0x00\n    /* \"contracts/CarreraCoches/main.sol\":264:282  uint randNonce = 0 */\n  dup1\n  sstore\n    /* \"contracts/CarreraCoches/main.sol\":405:406  0 */\n  0x00\n    /* \"contracts/CarreraCoches/main.sol\":389:406  uint contador = 0 */\n  0x01\n  sstore\n    /* \"contracts/CarreraCoches/main.sol\":27:2197  contract CarreraCoches {\r... */\n  callvalue\n  dup1\n  iszero\n  tag_1\n  jumpi\n  0x00\n  dup1\n  revert\ntag_1:\n  pop\n  dataSize(sub_0)\n  dup1\n  dataOffset(sub_0)\n  0x00\n  codecopy\n  0x00\n  return\nstop\n\nsub_0: assembly {\n        /* \"contracts/CarreraCoches/main.sol\":27:2197  contract CarreraCoches {\r... */\n      mstore(0x40, 0x80)\n      jumpi(tag_1, lt(calldatasize, 0x04))\n      shr(0xe0, calldataload(0x00))\n      dup1\n      0x1c6743e4\n      eq\n      tag_2\n      jumpi\n      dup1\n      0x2458c544\n      eq\n      tag_3\n      jumpi\n      dup1\n      0x6b6f0494\n      eq\n      tag_4\n      jumpi\n      dup1\n      0xd735573d\n      eq\n      tag_5\n      jumpi\n    tag_1:\n      0x00\n      dup1\n      revert\n        /* \"contracts/CarreraCoches/main.sol\":502:554  mapping (address => uint) public numeroCochesPersona */\n    tag_2:\n      callvalue\n      dup1\n      iszero\n      tag_6\n      jumpi\n      0x00\n      dup1\n      revert\n    tag_6:\n      pop\n      tag_7\n      0x04\n      dup1\n      calldatasize\n      sub\n      dup2\n      add\n      swap1\n      tag_8\n      swap2\n      swap1\n      tag_9\n      jump\t// in\n    tag_8:\n      tag_10\n      jump\t// in\n    tag_7:\n      mload(0x40)\n      tag_11\n      swap2\n      swap1\n      tag_12\n      jump\t// in\n    tag_11:\n      mload(0x40)\n      dup1\n      swap2\n      sub\n      swap1\n      return\n        /* \"contracts/CarreraCoches/main.sol\":797:1113  function anadirCoche(string memory _modelo, string memory _marca, string memory _nombrePiloto) public restriccion returns (uint) {\r... */\n    tag_3:\n      callvalue\n      dup1\n      iszero\n      tag_13\n      jumpi\n      0x00\n      dup1\n      revert\n    tag_13:\n      pop\n      tag_14\n      0x04\n      dup1\n      calldatasize\n      sub\n      dup2\n      add\n      swap1\n      tag_15\n      swap2\n      swap1\n      tag_16\n      jump\t// in\n    tag_15:\n      tag_17\n      jump\t// in\n    tag_14:\n      mload(0x40)\n      tag_18\n      swap2\n      swap1\n      tag_12\n      jump\t// in\n    tag_18:\n      mload(0x40)\n      dup1\n      swap2\n      sub\n      swap1\n      return\n        /* \"contracts/CarreraCoches/main.sol\":1226:2039  function Apostar(uint dineroApostar) payable public returns(string memory) {\r... */\n    tag_4:\n      tag_19\n      0x04\n      dup1\n      calldatasize\n      sub\n      dup2\n      add\n      swap1\n      tag_20\n      swap2\n      swap1\n      tag_21\n      jump\t// in\n    tag_20:\n      tag_22\n      jump\t// in\n    tag_19:\n      mload(0x40)\n      tag_23\n      swap2\n      swap1\n      tag_24\n      jump\t// in\n    tag_23:\n      mload(0x40)\n      dup1\n      swap2\n      sub\n      swap1\n      return\n        /* \"contracts/CarreraCoches/main.sol\":415:441  Coche[] public listaCoches */\n    tag_5:\n      callvalue\n      dup1\n      iszero\n      tag_25\n      jumpi\n      0x00\n      dup1\n      revert\n    tag_25:\n      pop\n      tag_26\n      0x04\n      dup1\n      calldatasize\n      sub\n      dup2\n      add\n      swap1\n      tag_27\n      swap2\n      swap1\n      tag_21\n      jump\t// in\n    tag_27:\n      tag_28\n      jump\t// in\n    tag_26:\n      mload(0x40)\n      tag_29\n      swap7\n      swap6\n      swap5\n      swap4\n      swap3\n      swap2\n      swap1\n      tag_30\n      jump\t// in\n    tag_29:\n      mload(0x40)\n      dup1\n      swap2\n      sub\n      swap1\n      return\n        /* \"contracts/CarreraCoches/main.sol\":502:554  mapping (address => uint) public numeroCochesPersona */\n    tag_10:\n      mstore(0x20, 0x03)\n      dup1\n      0x00\n      mstore\n      keccak256(0x00, 0x40)\n      0x00\n      swap2\n      pop\n      swap1\n      pop\n      sload\n      dup2\n      jump\t// out\n        /* \"contracts/CarreraCoches/main.sol\":797:1113  function anadirCoche(string memory _modelo, string memory _marca, string memory _nombrePiloto) public restriccion returns (uint) {\r... */\n    tag_17:\n        /* \"contracts/CarreraCoches/main.sol\":920:924  uint */\n      0x00\n        /* \"contracts/CarreraCoches/main.sol\":686:687  1 */\n      0x01\n        /* \"contracts/CarreraCoches/main.sol\":652:671  numeroCochesPersona */\n      0x03\n        /* \"contracts/CarreraCoches/main.sol\":652:683  numeroCochesPersona[msg.sender] */\n      0x00\n        /* \"contracts/CarreraCoches/main.sol\":672:682  msg.sender */\n      caller\n        /* \"contracts/CarreraCoches/main.sol\":652:683  numeroCochesPersona[msg.sender] */\n      0xffffffffffffffffffffffffffffffffffffffff\n      and\n      0xffffffffffffffffffffffffffffffffffffffff\n      and\n      dup2\n      mstore\n      0x20\n      add\n      swap1\n      dup2\n      mstore\n      0x20\n      add\n      0x00\n      keccak256\n      sload\n        /* \"contracts/CarreraCoches/main.sol\":652:687  numeroCochesPersona[msg.sender] < 1 */\n      lt\n        /* \"contracts/CarreraCoches/main.sol\":644:732  require(numeroCochesPersona[msg.sender] < 1, \"Solo se puede tener un coche por persona\") */\n      tag_32\n      jumpi\n      mload(0x40)\n      0x08c379a000000000000000000000000000000000000000000000000000000000\n      dup2\n      mstore\n      0x04\n      add\n      tag_33\n      swap1\n      tag_34\n      jump\t// in\n    tag_33:\n      mload(0x40)\n      dup1\n      swap2\n      sub\n      swap1\n      revert\n    tag_32:\n        /* \"contracts/CarreraCoches/main.sol\":937:948  listaCoches */\n      0x02\n        /* \"contracts/CarreraCoches/main.sol\":954:1009  Coche(msg.sender, _modelo, _marca, _nombrePiloto, 0, 0) */\n      mload(0x40)\n      dup1\n      0xc0\n      add\n      0x40\n      mstore\n      dup1\n        /* \"contracts/CarreraCoches/main.sol\":960:970  msg.sender */\n      caller\n        /* \"contracts/CarreraCoches/main.sol\":954:1009  Coche(msg.sender, _modelo, _marca, _nombrePiloto, 0, 0) */\n      0xffffffffffffffffffffffffffffffffffffffff\n      and\n      dup2\n      mstore\n      0x20\n      add\n        /* \"contracts/CarreraCoches/main.sol\":972:979  _modelo */\n      dup7\n        /* \"contracts/CarreraCoches/main.sol\":954:1009  Coche(msg.sender, _modelo, _marca, _nombrePiloto, 0, 0) */\n      dup2\n      mstore\n      0x20\n      add\n        /* \"contracts/CarreraCoches/main.sol\":981:987  _marca */\n      dup6\n        /* \"contracts/CarreraCoches/main.sol\":954:1009  Coche(msg.sender, _modelo, _marca, _nombrePiloto, 0, 0) */\n      dup2\n      mstore\n      0x20\n      add\n        /* \"contracts/CarreraCoches/main.sol\":989:1002  _nombrePiloto */\n      dup5\n        /* \"contracts/CarreraCoches/main.sol\":954:1009  Coche(msg.sender, _modelo, _marca, _nombrePiloto, 0, 0) */\n      dup2\n      mstore\n      0x20\n      add\n        /* \"contracts/CarreraCoches/main.sol\":1004:1005  0 */\n      0x00\n        /* \"contracts/CarreraCoches/main.sol\":954:1009  Coche(msg.sender, _modelo, _marca, _nombrePiloto, 0, 0) */\n      dup2\n      mstore\n      0x20\n      add\n        /* \"contracts/CarreraCoches/main.sol\":1007:1008  0 */\n      0x00\n        /* \"contracts/CarreraCoches/main.sol\":954:1009  Coche(msg.sender, _modelo, _marca, _nombrePiloto, 0, 0) */\n      dup2\n      mstore\n      pop\n        /* \"contracts/CarreraCoches/main.sol\":937:1010  listaCoches.push(Coche(msg.sender, _modelo, _marca, _nombrePiloto, 0, 0)) */\n      swap1\n      dup1\n      0x01\n      dup2\n      sload\n      add\n      dup1\n      dup3\n      sstore\n      dup1\n      swap2\n      pop\n      pop\n      0x01\n      swap1\n      sub\n      swap1\n      0x00\n      mstore\n      keccak256(0x00, 0x20)\n      swap1\n      0x06\n      mul\n      add\n      0x00\n      swap1\n      swap2\n      swap1\n      swap2\n      swap1\n      swap2\n      pop\n      0x00\n      dup3\n      add\n      mload\n      dup2\n      0x00\n      add\n      exp(0x0100, 0x00)\n      dup2\n      sload\n      dup2\n      0xffffffffffffffffffffffffffffffffffffffff\n      mul\n      not\n      and\n      swap1\n      dup4\n      0xffffffffffffffffffffffffffffffffffffffff\n      and\n      mul\n      or\n      swap1\n      sstore\n      pop\n      0x20\n      dup3\n      add\n      mload\n      dup2\n      0x01\n      add\n      swap1\n      dup1\n      mload\n      swap1\n      0x20\n      add\n      swap1\n      tag_37\n      swap3\n      swap2\n      swap1\n      tag_38\n      jump\t// in\n    tag_37:\n      pop\n      0x40\n      dup3\n      add\n      mload\n      dup2\n      0x02\n      add\n      swap1\n      dup1\n      mload\n      swap1\n      0x20\n      add\n      swap1\n      tag_39\n      swap3\n      swap2\n      swap1\n      tag_38\n      jump\t// in\n    tag_39:\n      pop\n      0x60\n      dup3\n      add\n      mload\n      dup2\n      0x03\n      add\n      swap1\n      dup1\n      mload\n      swap1\n      0x20\n      add\n      swap1\n      tag_40\n      swap3\n      swap2\n      swap1\n      tag_38\n      jump\t// in\n    tag_40:\n      pop\n      0x80\n      dup3\n      add\n      mload\n      dup2\n      0x04\n      add\n      sstore\n      0xa0\n      dup3\n      add\n      mload\n      dup2\n      0x05\n      add\n      sstore\n      pop\n      pop\n        /* \"contracts/CarreraCoches/main.sol\":1021:1040  numeroCochesPersona */\n      0x03\n        /* \"contracts/CarreraCoches/main.sol\":1021:1052  numeroCochesPersona[msg.sender] */\n      0x00\n        /* \"contracts/CarreraCoches/main.sol\":1041:1051  msg.sender */\n      caller\n        /* \"contracts/CarreraCoches/main.sol\":1021:1052  numeroCochesPersona[msg.sender] */\n      0xffffffffffffffffffffffffffffffffffffffff\n      and\n      0xffffffffffffffffffffffffffffffffffffffff\n      and\n      dup2\n      mstore\n      0x20\n      add\n      swap1\n      dup2\n      mstore\n      0x20\n      add\n      0x00\n      keccak256\n      0x00\n        /* \"contracts/CarreraCoches/main.sol\":1021:1054  numeroCochesPersona[msg.sender]++ */\n      dup2\n      sload\n      dup1\n      swap3\n      swap2\n      swap1\n      tag_41\n      swap1\n      tag_42\n      jump\t// in\n    tag_41:\n      swap2\n      swap1\n      pop\n      sstore\n      pop\n        /* \"contracts/CarreraCoches/main.sol\":1065:1073  contador */\n      0x01\n      0x00\n        /* \"contracts/CarreraCoches/main.sol\":1065:1075  contador++ */\n      dup2\n      sload\n      dup1\n      swap3\n      swap2\n      swap1\n      tag_43\n      swap1\n      tag_42\n      jump\t// in\n    tag_43:\n      swap2\n      swap1\n      pop\n      sstore\n      pop\n        /* \"contracts/CarreraCoches/main.sol\":1104:1105  1 */\n      0x01\n        /* \"contracts/CarreraCoches/main.sol\":1093:1101  contador */\n      dup1\n      sload\n        /* \"contracts/CarreraCoches/main.sol\":1093:1105  contador - 1 */\n      tag_44\n      swap2\n      swap1\n      tag_45\n      jump\t// in\n    tag_44:\n        /* \"contracts/CarreraCoches/main.sol\":1086:1105  return contador - 1 */\n      swap1\n      pop\n        /* \"contracts/CarreraCoches/main.sol\":797:1113  function anadirCoche(string memory _modelo, string memory _marca, string memory _nombrePiloto) public restriccion returns (uint) {\r... */\n      swap4\n      swap3\n      pop\n      pop\n      pop\n      jump\t// out\n        /* \"contracts/CarreraCoches/main.sol\":1226:2039  function Apostar(uint dineroApostar) payable public returns(string memory) {\r... */\n    tag_22:\n        /* \"contracts/CarreraCoches/main.sol\":1286:1299  string memory */\n      0x60\n        /* \"contracts/CarreraCoches/main.sol\":1332:1345  dineroApostar */\n      dup2\n        /* \"contracts/CarreraCoches/main.sol\":1319:1328  msg.value */\n      callvalue\n        /* \"contracts/CarreraCoches/main.sol\":1319:1345  msg.value == dineroApostar */\n      eq\n        /* \"contracts/CarreraCoches/main.sol\":1311:1346  require(msg.value == dineroApostar) */\n      tag_47\n      jumpi\n      0x00\n      dup1\n      revert\n    tag_47:\n        /* \"contracts/CarreraCoches/main.sol\":1357:1366  randNonce */\n      0x00\n      dup1\n        /* \"contracts/CarreraCoches/main.sol\":1357:1368  randNonce++ */\n      dup2\n      sload\n      dup1\n      swap3\n      swap2\n      swap1\n      tag_48\n      swap1\n      tag_42\n      jump\t// in\n    tag_48:\n      swap2\n      swap1\n      pop\n      sstore\n      pop\n        /* \"contracts/CarreraCoches/main.sol\":1379:1393  uint256 result */\n      0x00\n        /* \"contracts/CarreraCoches/main.sol\":1483:1494  listaCoches */\n      0x02\n        /* \"contracts/CarreraCoches/main.sol\":1483:1501  listaCoches.length */\n      dup1\n      sload\n      swap1\n      pop\n        /* \"contracts/CarreraCoches/main.sol\":1431:1446  block.timestamp */\n      timestamp\n        /* \"contracts/CarreraCoches/main.sol\":1448:1459  listaCoches */\n      0x02\n        /* \"contracts/CarreraCoches/main.sol\":1448:1466  listaCoches.length */\n      dup1\n      sload\n      swap1\n      pop\n        /* \"contracts/CarreraCoches/main.sol\":1468:1477  randNonce */\n      sload(0x00)\n        /* \"contracts/CarreraCoches/main.sol\":1414:1478  abi.encodePacked(block.timestamp, listaCoches.length, randNonce) */\n      add(0x20, mload(0x40))\n      tag_49\n      swap4\n      swap3\n      swap2\n      swap1\n      tag_50\n      jump\t// in\n    tag_49:\n      mload(0x40)\n      0x20\n      dup2\n      dup4\n      sub\n      sub\n      dup2\n      mstore\n      swap1\n      0x40\n      mstore\n        /* \"contracts/CarreraCoches/main.sol\":1404:1479  keccak256(abi.encodePacked(block.timestamp, listaCoches.length, randNonce)) */\n      dup1\n      mload\n      swap1\n      0x20\n      add\n      keccak256\n        /* \"contracts/CarreraCoches/main.sol\":1396:1480  uint256(keccak256(abi.encodePacked(block.timestamp, listaCoches.length, randNonce))) */\n      0x00\n      shr\n        /* \"contracts/CarreraCoches/main.sol\":1396:1501  uint256(keccak256(abi.encodePacked(block.timestamp, listaCoches.length, randNonce))) % listaCoches.length */\n      tag_51\n      swap2\n      swap1\n      tag_52\n      jump\t// in\n    tag_51:\n        /* \"contracts/CarreraCoches/main.sol\":1379:1501  uint256 result = uint256(keccak256(abi.encodePacked(block.timestamp, listaCoches.length, randNonce))) % listaCoches.length */\n      swap1\n      pop\n        /* \"contracts/CarreraCoches/main.sol\":1527:1536  uint256 i */\n      0x00\n        /* \"contracts/CarreraCoches/main.sol\":1522:2029  for (uint256 i = 0; i < listaCoches.length; i++) {\r... */\n    tag_53:\n        /* \"contracts/CarreraCoches/main.sol\":1546:1557  listaCoches */\n      0x02\n        /* \"contracts/CarreraCoches/main.sol\":1546:1564  listaCoches.length */\n      dup1\n      sload\n      swap1\n      pop\n        /* \"contracts/CarreraCoches/main.sol\":1542:1543  i */\n      dup2\n        /* \"contracts/CarreraCoches/main.sol\":1542:1564  i < listaCoches.length */\n      lt\n        /* \"contracts/CarreraCoches/main.sol\":1522:2029  for (uint256 i = 0; i < listaCoches.length; i++) {\r... */\n      iszero\n      tag_54\n      jumpi\n        /* \"contracts/CarreraCoches/main.sol\":1600:1601  i */\n      dup1\n        /* \"contracts/CarreraCoches/main.sol\":1590:1596  result */\n      dup3\n        /* \"contracts/CarreraCoches/main.sol\":1590:1601  result == i */\n      eq\n        /* \"contracts/CarreraCoches/main.sol\":1586:1971  if (result == i) {\r... */\n      iszero\n      tag_56\n      jumpi\n        /* \"contracts/CarreraCoches/main.sol\":1640:1651  listaCoches */\n      0x02\n        /* \"contracts/CarreraCoches/main.sol\":1652:1653  i */\n      dup2\n        /* \"contracts/CarreraCoches/main.sol\":1640:1654  listaCoches[i] */\n      dup2\n      sload\n      dup2\n      lt\n      tag_57\n      jumpi\n      tag_58\n      tag_59\n      jump\t// in\n    tag_58:\n    tag_57:\n      swap1\n      0x00\n      mstore\n      keccak256(0x00, 0x20)\n      swap1\n      0x06\n      mul\n      add\n        /* \"contracts/CarreraCoches/main.sol\":1640:1663  listaCoches[i].idPiloto */\n      0x00\n      add\n      0x00\n      swap1\n      sload\n      swap1\n      0x0100\n      exp\n      swap1\n      div\n      0xffffffffffffffffffffffffffffffffffffffff\n      and\n        /* \"contracts/CarreraCoches/main.sol\":1626:1663  msg.sender == listaCoches[i].idPiloto */\n      0xffffffffffffffffffffffffffffffffffffffff\n      and\n        /* \"contracts/CarreraCoches/main.sol\":1626:1636  msg.sender */\n      caller\n        /* \"contracts/CarreraCoches/main.sol\":1626:1663  msg.sender == listaCoches[i].idPiloto */\n      0xffffffffffffffffffffffffffffffffffffffff\n      and\n      eq\n        /* \"contracts/CarreraCoches/main.sol\":1622:1905  if (msg.sender == listaCoches[i].idPiloto) {\r... */\n      iszero\n      tag_61\n      jumpi\n        /* \"contracts/CarreraCoches/main.sol\":1688:1697  balance() */\n      tag_62\n        /* \"contracts/CarreraCoches/main.sol\":1688:1695  balance */\n      tag_63\n        /* \"contracts/CarreraCoches/main.sol\":1688:1697  balance() */\n      jump\t// in\n    tag_62:\n        /* \"contracts/CarreraCoches/main.sol\":1720:1739  return \"Has ganado\" */\n      mload(0x40)\n      dup1\n      0x40\n      add\n      0x40\n      mstore\n      dup1\n      0x0a\n      dup2\n      mstore\n      0x20\n      add\n      0x4861732067616e61646f00000000000000000000000000000000000000000000\n      dup2\n      mstore\n      pop\n      swap3\n      pop\n      pop\n      pop\n      jump(tag_46)\n        /* \"contracts/CarreraCoches/main.sol\":1622:1905  if (msg.sender == listaCoches[i].idPiloto) {\r... */\n    tag_61:\n        /* \"contracts/CarreraCoches/main.sol\":1793:1842  mostrarResultado(\"El coche ganador es: \", result) */\n      0xa28482eec3136a2461c6c30c08f71ba279c6c51a2d9c7bea4e50d6d2632f3896\n        /* \"contracts/CarreraCoches/main.sol\":1835:1841  result */\n      dup3\n        /* \"contracts/CarreraCoches/main.sol\":1793:1842  mostrarResultado(\"El coche ganador es: \", result) */\n      mload(0x40)\n      tag_65\n      swap2\n      swap1\n      tag_66\n      jump\t// in\n    tag_65:\n      mload(0x40)\n      dup1\n      swap2\n      sub\n      swap1\n      log1\n        /* \"contracts/CarreraCoches/main.sol\":1865:1885  return \"Has perdido\" */\n      mload(0x40)\n      dup1\n      0x40\n      add\n      0x40\n      mstore\n      dup1\n      0x0b\n      dup2\n      mstore\n      0x20\n      add\n      0x486173207065726469646f000000000000000000000000000000000000000000\n      dup2\n      mstore\n      pop\n      swap3\n      pop\n      pop\n      pop\n      jump(tag_46)\n        /* \"contracts/CarreraCoches/main.sol\":1586:1971  if (result == i) {\r... */\n    tag_56:\n        /* \"contracts/CarreraCoches/main.sol\":1985:1996  listaCoches */\n      0x02\n        /* \"contracts/CarreraCoches/main.sol\":1997:1998  i */\n      dup2\n        /* \"contracts/CarreraCoches/main.sol\":1985:1999  listaCoches[i] */\n      dup2\n      sload\n      dup2\n      lt\n      tag_71\n      jumpi\n      tag_72\n      tag_59\n      jump\t// in\n    tag_72:\n    tag_71:\n      swap1\n      0x00\n      mstore\n      keccak256(0x00, 0x20)\n      swap1\n      0x06\n      mul\n      add\n        /* \"contracts/CarreraCoches/main.sol\":1985:2015  listaCoches[i].carrerasTotales */\n      0x05\n      add\n      0x00\n        /* \"contracts/CarreraCoches/main.sol\":1985:2017  listaCoches[i].carrerasTotales++ */\n      dup2\n      sload\n      dup1\n      swap3\n      swap2\n      swap1\n      tag_74\n      swap1\n      tag_42\n      jump\t// in\n    tag_74:\n      swap2\n      swap1\n      pop\n      sstore\n      pop\n        /* \"contracts/CarreraCoches/main.sol\":1566:1569  i++ */\n      dup1\n      dup1\n      tag_75\n      swap1\n      tag_42\n      jump\t// in\n    tag_75:\n      swap2\n      pop\n      pop\n        /* \"contracts/CarreraCoches/main.sol\":1522:2029  for (uint256 i = 0; i < listaCoches.length; i++) {\r... */\n      jump(tag_53)\n    tag_54:\n      pop\n        /* \"contracts/CarreraCoches/main.sol\":1301:2039  {\r... */\n      pop\n        /* \"contracts/CarreraCoches/main.sol\":1226:2039  function Apostar(uint dineroApostar) payable public returns(string memory) {\r... */\n    tag_46:\n      swap2\n      swap1\n      pop\n      jump\t// out\n        /* \"contracts/CarreraCoches/main.sol\":415:441  Coche[] public listaCoches */\n    tag_28:\n      0x02\n      dup2\n      dup2\n      sload\n      dup2\n      lt\n      tag_76\n      jumpi\n      0x00\n      dup1\n      revert\n    tag_76:\n      swap1\n      0x00\n      mstore\n      keccak256(0x00, 0x20)\n      swap1\n      0x06\n      mul\n      add\n      0x00\n      swap2\n      pop\n      swap1\n      pop\n      dup1\n      0x00\n      add\n      0x00\n      swap1\n      sload\n      swap1\n      0x0100\n      exp\n      swap1\n      div\n      0xffffffffffffffffffffffffffffffffffffffff\n      and\n      swap1\n      dup1\n      0x01\n      add\n      dup1\n      sload\n      tag_78\n      swap1\n      tag_79\n      jump\t// in\n    tag_78:\n      dup1\n      0x1f\n      add\n      0x20\n      dup1\n      swap2\n      div\n      mul\n      0x20\n      add\n      mload(0x40)\n      swap1\n      dup2\n      add\n      0x40\n      mstore\n      dup1\n      swap3\n      swap2\n      swap1\n      dup2\n      dup2\n      mstore\n      0x20\n      add\n      dup3\n      dup1\n      sload\n      tag_80\n      swap1\n      tag_79\n      jump\t// in\n    tag_80:\n      dup1\n      iszero\n      tag_81\n      jumpi\n      dup1\n      0x1f\n      lt\n      tag_82\n      jumpi\n      0x0100\n      dup1\n      dup4\n      sload\n      div\n      mul\n      dup4\n      mstore\n      swap2\n      0x20\n      add\n      swap2\n      jump(tag_81)\n    tag_82:\n      dup3\n      add\n      swap2\n      swap1\n      0x00\n      mstore\n      keccak256(0x00, 0x20)\n      swap1\n    tag_83:\n      dup2\n      sload\n      dup2\n      mstore\n      swap1\n      0x01\n      add\n      swap1\n      0x20\n      add\n      dup1\n      dup4\n      gt\n      tag_83\n      jumpi\n      dup3\n      swap1\n      sub\n      0x1f\n      and\n      dup3\n      add\n      swap2\n    tag_81:\n      pop\n      pop\n      pop\n      pop\n      pop\n      swap1\n      dup1\n      0x02\n      add\n      dup1\n      sload\n      tag_84\n      swap1\n      tag_79\n      jump\t// in\n    tag_84:\n      dup1\n      0x1f\n      add\n      0x20\n      dup1\n      swap2\n      div\n      mul\n      0x20\n      add\n      mload(0x40)\n      swap1\n      dup2\n      add\n      0x40\n      mstore\n      dup1\n      swap3\n      swap2\n      swap1\n      dup2\n      dup2\n      mstore\n      0x20\n      add\n      dup3\n      dup1\n      sload\n      tag_85\n      swap1\n      tag_79\n      jump\t// in\n    tag_85:\n      dup1\n      iszero\n      tag_86\n      jumpi\n      dup1\n      0x1f\n      lt\n      tag_87\n      jumpi\n      0x0100\n      dup1\n      dup4\n      sload\n      div\n      mul\n      dup4\n      mstore\n      swap2\n      0x20\n      add\n      swap2\n      jump(tag_86)\n    tag_87:\n      dup3\n      add\n      swap2\n      swap1\n      0x00\n      mstore\n      keccak256(0x00, 0x20)\n      swap1\n    tag_88:\n      dup2\n      sload\n      dup2\n      mstore\n      swap1\n      0x01\n      add\n      swap1\n      0x20\n      add\n      dup1\n      dup4\n      gt\n      tag_88\n      jumpi\n      dup3\n      swap1\n      sub\n      0x1f\n      and\n      dup3\n      add\n      swap2\n    tag_86:\n      pop\n      pop\n      pop\n      pop\n      pop\n      swap1\n      dup1\n      0x03\n      add\n      dup1\n      sload\n      tag_89\n      swap1\n      tag_79\n      jump\t// in\n    tag_89:\n      dup1\n      0x1f\n      add\n      0x20\n      dup1\n      swap2\n      div\n      mul\n      0x20\n      add\n      mload(0x40)\n      swap1\n      dup2\n      add\n      0x40\n      mstore\n      dup1\n      swap3\n      swap2\n      swap1\n      dup2\n      dup2\n      mstore\n      0x20\n      add\n      dup3\n      dup1\n      sload\n      tag_90\n      swap1\n      tag_79\n      jump\t// in\n    tag_90:\n      dup1\n      iszero\n      tag_91\n      jumpi\n      dup1\n      0x1f\n      lt\n      tag_92\n      jumpi\n      0x0100\n      dup1\n      dup4\n      sload\n      div\n      mul\n      dup4\n      mstore\n      swap2\n      0x20\n      add\n      swap2\n      jump(tag_91)\n    tag_92:\n      dup3\n      add\n      swap2\n      swap1\n      0x00\n      mstore\n      keccak256(0x00, 0x20)\n      swap1\n    tag_93:\n      dup2\n      sload\n      dup2\n      mstore\n      swap1\n      0x01\n      add\n      swap1\n      0x20\n      add\n      dup1\n      dup4\n      gt\n      tag_93\n      jumpi\n      dup3\n      swap1\n      sub\n      0x1f\n      and\n      dup3\n      add\n      swap2\n    tag_91:\n      pop\n      pop\n      pop\n      pop\n      pop\n      swap1\n      dup1\n      0x04\n      add\n      sload\n      swap1\n      dup1\n      0x05\n      add\n      sload\n      swap1\n      pop\n      dup7\n      jump\t// out\n        /* \"contracts/CarreraCoches/main.sol\":2096:2194  function balance() private {\r... */\n    tag_63:\n        /* \"contracts/CarreraCoches/main.sol\":2143:2153  msg.sender */\n      caller\n        /* \"contracts/CarreraCoches/main.sol\":2134:2163  payable (msg.sender).transfer */\n      0xffffffffffffffffffffffffffffffffffffffff\n      and\n        /* \"contracts/CarreraCoches/main.sol\":2134:2186  payable (msg.sender).transfer(address(this).balance) */\n      0x08fc\n        /* \"contracts/CarreraCoches/main.sol\":2164:2185  address(this).balance */\n      selfbalance\n        /* \"contracts/CarreraCoches/main.sol\":2134:2186  payable (msg.sender).transfer(address(this).balance) */\n      swap1\n      dup2\n      iszero\n      mul\n      swap1\n      mload(0x40)\n      0x00\n      mload(0x40)\n      dup1\n      dup4\n      sub\n      dup2\n      dup6\n      dup9\n      dup9\n      call\n      swap4\n      pop\n      pop\n      pop\n      pop\n      iszero\n      dup1\n      iszero\n      tag_96\n      jumpi\n      returndatasize\n      0x00\n      dup1\n      returndatacopy\n      revert(0x00, returndatasize)\n    tag_96:\n      pop\n        /* \"contracts/CarreraCoches/main.sol\":2096:2194  function balance() private {\r... */\n      jump\t// out\n    tag_38:\n      dup3\n      dup1\n      sload\n      tag_97\n      swap1\n      tag_79\n      jump\t// in\n    tag_97:\n      swap1\n      0x00\n      mstore\n      keccak256(0x00, 0x20)\n      swap1\n      0x1f\n      add\n      0x20\n      swap1\n      div\n      dup2\n      add\n      swap3\n      dup3\n      tag_99\n      jumpi\n      0x00\n      dup6\n      sstore\n      jump(tag_98)\n    tag_99:\n      dup3\n      0x1f\n      lt\n      tag_100\n      jumpi\n      dup1\n      mload\n      not(0xff)\n      and\n      dup4\n      dup1\n      add\n      or\n      dup6\n      sstore\n      jump(tag_98)\n    tag_100:\n      dup3\n      dup1\n      add\n      0x01\n      add\n      dup6\n      sstore\n      dup3\n      iszero\n      tag_98\n      jumpi\n      swap2\n      dup3\n      add\n    tag_101:\n      dup3\n      dup2\n      gt\n      iszero\n      tag_102\n      jumpi\n      dup3\n      mload\n      dup3\n      sstore\n      swap2\n      0x20\n      add\n      swap2\n      swap1\n      0x01\n      add\n      swap1\n      jump(tag_101)\n    tag_102:\n    tag_98:\n      pop\n      swap1\n      pop\n      tag_103\n      swap2\n      swap1\n      tag_104\n      jump\t// in\n    tag_103:\n      pop\n      swap1\n      jump\t// out\n    tag_104:\n    tag_105:\n      dup1\n      dup3\n      gt\n      iszero\n      tag_106\n      jumpi\n      0x00\n      dup2\n      0x00\n      swap1\n      sstore\n      pop\n      0x01\n      add\n      jump(tag_105)\n    tag_106:\n      pop\n      swap1\n      jump\t// out\n        /* \"#utility.yul\":7:419   */\n    tag_108:\n        /* \"#utility.yul\":85:90   */\n      0x00\n        /* \"#utility.yul\":110:176   */\n      tag_110\n        /* \"#utility.yul\":126:175   */\n      tag_111\n        /* \"#utility.yul\":168:174   */\n      dup5\n        /* \"#utility.yul\":126:175   */\n      tag_112\n      jump\t// in\n    tag_111:\n        /* \"#utility.yul\":110:176   */\n      tag_113\n      jump\t// in\n    tag_110:\n        /* \"#utility.yul\":101:176   */\n      swap1\n      pop\n        /* \"#utility.yul\":199:205   */\n      dup3\n        /* \"#utility.yul\":192:197   */\n      dup2\n        /* \"#utility.yul\":185:206   */\n      mstore\n        /* \"#utility.yul\":237:241   */\n      0x20\n        /* \"#utility.yul\":230:235   */\n      dup2\n        /* \"#utility.yul\":226:242   */\n      add\n        /* \"#utility.yul\":275:278   */\n      dup5\n        /* \"#utility.yul\":266:272   */\n      dup5\n        /* \"#utility.yul\":261:264   */\n      dup5\n        /* \"#utility.yul\":257:273   */\n      add\n        /* \"#utility.yul\":254:279   */\n      gt\n        /* \"#utility.yul\":251:363   */\n      iszero\n      tag_114\n      jumpi\n        /* \"#utility.yul\":282:361   */\n      tag_115\n      tag_116\n      jump\t// in\n    tag_115:\n        /* \"#utility.yul\":251:363   */\n    tag_114:\n        /* \"#utility.yul\":372:413   */\n      tag_117\n        /* \"#utility.yul\":406:412   */\n      dup5\n        /* \"#utility.yul\":401:404   */\n      dup3\n        /* \"#utility.yul\":396:399   */\n      dup6\n        /* \"#utility.yul\":372:413   */\n      tag_118\n      jump\t// in\n    tag_117:\n        /* \"#utility.yul\":91:419   */\n      pop\n        /* \"#utility.yul\":7:419   */\n      swap4\n      swap3\n      pop\n      pop\n      pop\n      jump\t// out\n        /* \"#utility.yul\":425:564   */\n    tag_119:\n        /* \"#utility.yul\":471:476   */\n      0x00\n        /* \"#utility.yul\":509:515   */\n      dup2\n        /* \"#utility.yul\":496:516   */\n      calldataload\n        /* \"#utility.yul\":487:516   */\n      swap1\n      pop\n        /* \"#utility.yul\":525:558   */\n      tag_121\n        /* \"#utility.yul\":552:557   */\n      dup2\n        /* \"#utility.yul\":525:558   */\n      tag_122\n      jump\t// in\n    tag_121:\n        /* \"#utility.yul\":425:564   */\n      swap3\n      swap2\n      pop\n      pop\n      jump\t// out\n        /* \"#utility.yul\":584:924   */\n    tag_123:\n        /* \"#utility.yul\":640:645   */\n      0x00\n        /* \"#utility.yul\":689:692   */\n      dup3\n        /* \"#utility.yul\":682:686   */\n      0x1f\n        /* \"#utility.yul\":674:680   */\n      dup4\n        /* \"#utility.yul\":670:687   */\n      add\n        /* \"#utility.yul\":666:693   */\n      slt\n        /* \"#utility.yul\":656:778   */\n      tag_125\n      jumpi\n        /* \"#utility.yul\":697:776   */\n      tag_126\n      tag_127\n      jump\t// in\n    tag_126:\n        /* \"#utility.yul\":656:778   */\n    tag_125:\n        /* \"#utility.yul\":814:820   */\n      dup2\n        /* \"#utility.yul\":801:821   */\n      calldataload\n        /* \"#utility.yul\":839:918   */\n      tag_128\n        /* \"#utility.yul\":914:917   */\n      dup5\n        /* \"#utility.yul\":906:912   */\n      dup3\n        /* \"#utility.yul\":899:903   */\n      0x20\n        /* \"#utility.yul\":891:897   */\n      dup7\n        /* \"#utility.yul\":887:904   */\n      add\n        /* \"#utility.yul\":839:918   */\n      tag_108\n      jump\t// in\n    tag_128:\n        /* \"#utility.yul\":830:918   */\n      swap2\n      pop\n        /* \"#utility.yul\":646:924   */\n      pop\n        /* \"#utility.yul\":584:924   */\n      swap3\n      swap2\n      pop\n      pop\n      jump\t// out\n        /* \"#utility.yul\":930:1069   */\n    tag_129:\n        /* \"#utility.yul\":976:981   */\n      0x00\n        /* \"#utility.yul\":1014:1020   */\n      dup2\n        /* \"#utility.yul\":1001:1021   */\n      calldataload\n        /* \"#utility.yul\":992:1021   */\n      swap1\n      pop\n        /* \"#utility.yul\":1030:1063   */\n      tag_131\n        /* \"#utility.yul\":1057:1062   */\n      dup2\n        /* \"#utility.yul\":1030:1063   */\n      tag_132\n      jump\t// in\n    tag_131:\n        /* \"#utility.yul\":930:1069   */\n      swap3\n      swap2\n      pop\n      pop\n      jump\t// out\n        /* \"#utility.yul\":1075:1404   */\n    tag_9:\n        /* \"#utility.yul\":1134:1140   */\n      0x00\n        /* \"#utility.yul\":1183:1185   */\n      0x20\n        /* \"#utility.yul\":1171:1180   */\n      dup3\n        /* \"#utility.yul\":1162:1169   */\n      dup5\n        /* \"#utility.yul\":1158:1181   */\n      sub\n        /* \"#utility.yul\":1154:1186   */\n      slt\n        /* \"#utility.yul\":1151:1270   */\n      iszero\n      tag_134\n      jumpi\n        /* \"#utility.yul\":1189:1268   */\n      tag_135\n      tag_136\n      jump\t// in\n    tag_135:\n        /* \"#utility.yul\":1151:1270   */\n    tag_134:\n        /* \"#utility.yul\":1309:1310   */\n      0x00\n        /* \"#utility.yul\":1334:1387   */\n      tag_137\n        /* \"#utility.yul\":1379:1386   */\n      dup5\n        /* \"#utility.yul\":1370:1376   */\n      dup3\n        /* \"#utility.yul\":1359:1368   */\n      dup6\n        /* \"#utility.yul\":1355:1377   */\n      add\n        /* \"#utility.yul\":1334:1387   */\n      tag_119\n      jump\t// in\n    tag_137:\n        /* \"#utility.yul\":1324:1387   */\n      swap2\n      pop\n        /* \"#utility.yul\":1280:1397   */\n      pop\n        /* \"#utility.yul\":1075:1404   */\n      swap3\n      swap2\n      pop\n      pop\n      jump\t// out\n        /* \"#utility.yul\":1410:2569   */\n    tag_16:\n        /* \"#utility.yul\":1517:1523   */\n      0x00\n        /* \"#utility.yul\":1525:1531   */\n      dup1\n        /* \"#utility.yul\":1533:1539   */\n      0x00\n        /* \"#utility.yul\":1582:1584   */\n      0x60\n        /* \"#utility.yul\":1570:1579   */\n      dup5\n        /* \"#utility.yul\":1561:1568   */\n      dup7\n        /* \"#utility.yul\":1557:1580   */\n      sub\n        /* \"#utility.yul\":1553:1585   */\n      slt\n        /* \"#utility.yul\":1550:1669   */\n      iszero\n      tag_139\n      jumpi\n        /* \"#utility.yul\":1588:1667   */\n      tag_140\n      tag_136\n      jump\t// in\n    tag_140:\n        /* \"#utility.yul\":1550:1669   */\n    tag_139:\n        /* \"#utility.yul\":1736:1737   */\n      0x00\n        /* \"#utility.yul\":1725:1734   */\n      dup5\n        /* \"#utility.yul\":1721:1738   */\n      add\n        /* \"#utility.yul\":1708:1739   */\n      calldataload\n        /* \"#utility.yul\":1766:1784   */\n      0xffffffffffffffff\n        /* \"#utility.yul\":1758:1764   */\n      dup2\n        /* \"#utility.yul\":1755:1785   */\n      gt\n        /* \"#utility.yul\":1752:1869   */\n      iszero\n      tag_141\n      jumpi\n        /* \"#utility.yul\":1788:1867   */\n      tag_142\n      tag_143\n      jump\t// in\n    tag_142:\n        /* \"#utility.yul\":1752:1869   */\n    tag_141:\n        /* \"#utility.yul\":1893:1956   */\n      tag_144\n        /* \"#utility.yul\":1948:1955   */\n      dup7\n        /* \"#utility.yul\":1939:1945   */\n      dup3\n        /* \"#utility.yul\":1928:1937   */\n      dup8\n        /* \"#utility.yul\":1924:1946   */\n      add\n        /* \"#utility.yul\":1893:1956   */\n      tag_123\n      jump\t// in\n    tag_144:\n        /* \"#utility.yul\":1883:1956   */\n      swap4\n      pop\n        /* \"#utility.yul\":1679:1966   */\n      pop\n        /* \"#utility.yul\":2033:2035   */\n      0x20\n        /* \"#utility.yul\":2022:2031   */\n      dup5\n        /* \"#utility.yul\":2018:2036   */\n      add\n        /* \"#utility.yul\":2005:2037   */\n      calldataload\n        /* \"#utility.yul\":2064:2082   */\n      0xffffffffffffffff\n        /* \"#utility.yul\":2056:2062   */\n      dup2\n        /* \"#utility.yul\":2053:2083   */\n      gt\n        /* \"#utility.yul\":2050:2167   */\n      iszero\n      tag_145\n      jumpi\n        /* \"#utility.yul\":2086:2165   */\n      tag_146\n      tag_143\n      jump\t// in\n    tag_146:\n        /* \"#utility.yul\":2050:2167   */\n    tag_145:\n        /* \"#utility.yul\":2191:2254   */\n      tag_147\n        /* \"#utility.yul\":2246:2253   */\n      dup7\n        /* \"#utility.yul\":2237:2243   */\n      dup3\n        /* \"#utility.yul\":2226:2235   */\n      dup8\n        /* \"#utility.yul\":2222:2244   */\n      add\n        /* \"#utility.yul\":2191:2254   */\n      tag_123\n      jump\t// in\n    tag_147:\n        /* \"#utility.yul\":2181:2254   */\n      swap3\n      pop\n        /* \"#utility.yul\":1976:2264   */\n      pop\n        /* \"#utility.yul\":2331:2333   */\n      0x40\n        /* \"#utility.yul\":2320:2329   */\n      dup5\n        /* \"#utility.yul\":2316:2334   */\n      add\n        /* \"#utility.yul\":2303:2335   */\n      calldataload\n        /* \"#utility.yul\":2362:2380   */\n      0xffffffffffffffff\n        /* \"#utility.yul\":2354:2360   */\n      dup2\n        /* \"#utility.yul\":2351:2381   */\n      gt\n        /* \"#utility.yul\":2348:2465   */\n      iszero\n      tag_148\n      jumpi\n        /* \"#utility.yul\":2384:2463   */\n      tag_149\n      tag_143\n      jump\t// in\n    tag_149:\n        /* \"#utility.yul\":2348:2465   */\n    tag_148:\n        /* \"#utility.yul\":2489:2552   */\n      tag_150\n        /* \"#utility.yul\":2544:2551   */\n      dup7\n        /* \"#utility.yul\":2535:2541   */\n      dup3\n        /* \"#utility.yul\":2524:2533   */\n      dup8\n        /* \"#utility.yul\":2520:2542   */\n      add\n        /* \"#utility.yul\":2489:2552   */\n      tag_123\n      jump\t// in\n    tag_150:\n        /* \"#utility.yul\":2479:2552   */\n      swap2\n      pop\n        /* \"#utility.yul\":2274:2562   */\n      pop\n        /* \"#utility.yul\":1410:2569   */\n      swap3\n      pop\n      swap3\n      pop\n      swap3\n      jump\t// out\n        /* \"#utility.yul\":2575:2904   */\n    tag_21:\n        /* \"#utility.yul\":2634:2640   */\n      0x00\n        /* \"#utility.yul\":2683:2685   */\n      0x20\n        /* \"#utility.yul\":2671:2680   */\n      dup3\n        /* \"#utility.yul\":2662:2669   */\n      dup5\n        /* \"#utility.yul\":2658:2681   */\n      sub\n        /* \"#utility.yul\":2654:2686   */\n      slt\n        /* \"#utility.yul\":2651:2770   */\n      iszero\n      tag_152\n      jumpi\n        /* \"#utility.yul\":2689:2768   */\n      tag_153\n      tag_136\n      jump\t// in\n    tag_153:\n        /* \"#utility.yul\":2651:2770   */\n    tag_152:\n        /* \"#utility.yul\":2809:2810   */\n      0x00\n        /* \"#utility.yul\":2834:2887   */\n      tag_154\n        /* \"#utility.yul\":2879:2886   */\n      dup5\n        /* \"#utility.yul\":2870:2876   */\n      dup3\n        /* \"#utility.yul\":2859:2868   */\n      dup6\n        /* \"#utility.yul\":2855:2877   */\n      add\n        /* \"#utility.yul\":2834:2887   */\n      tag_129\n      jump\t// in\n    tag_154:\n        /* \"#utility.yul\":2824:2887   */\n      swap2\n      pop\n        /* \"#utility.yul\":2780:2897   */\n      pop\n        /* \"#utility.yul\":2575:2904   */\n      swap3\n      swap2\n      pop\n      pop\n      jump\t// out\n        /* \"#utility.yul\":2910:3028   */\n    tag_155:\n        /* \"#utility.yul\":2997:3021   */\n      tag_157\n        /* \"#utility.yul\":3015:3020   */\n      dup2\n        /* \"#utility.yul\":2997:3021   */\n      tag_158\n      jump\t// in\n    tag_157:\n        /* \"#utility.yul\":2992:2995   */\n      dup3\n        /* \"#utility.yul\":2985:3022   */\n      mstore\n        /* \"#utility.yul\":2910:3028   */\n      pop\n      pop\n      jump\t// out\n        /* \"#utility.yul\":3034:3398   */\n    tag_159:\n        /* \"#utility.yul\":3122:3125   */\n      0x00\n        /* \"#utility.yul\":3150:3189   */\n      tag_161\n        /* \"#utility.yul\":3183:3188   */\n      dup3\n        /* \"#utility.yul\":3150:3189   */\n      tag_162\n      jump\t// in\n    tag_161:\n        /* \"#utility.yul\":3205:3276   */\n      tag_163\n        /* \"#utility.yul\":3269:3275   */\n      dup2\n        /* \"#utility.yul\":3264:3267   */\n      dup6\n        /* \"#utility.yul\":3205:3276   */\n      tag_164\n      jump\t// in\n    tag_163:\n        /* \"#utility.yul\":3198:3276   */\n      swap4\n      pop\n        /* \"#utility.yul\":3285:3337   */\n      tag_165\n        /* \"#utility.yul\":3330:3336   */\n      dup2\n        /* \"#utility.yul\":3325:3328   */\n      dup6\n        /* \"#utility.yul\":3318:3322   */\n      0x20\n        /* \"#utility.yul\":3311:3316   */\n      dup7\n        /* \"#utility.yul\":3307:3323   */\n      add\n        /* \"#utility.yul\":3285:3337   */\n      tag_166\n      jump\t// in\n    tag_165:\n        /* \"#utility.yul\":3362:3391   */\n      tag_167\n        /* \"#utility.yul\":3384:3390   */\n      dup2\n        /* \"#utility.yul\":3362:3391   */\n      tag_168\n      jump\t// in\n    tag_167:\n        /* \"#utility.yul\":3357:3360   */\n      dup5\n        /* \"#utility.yul\":3353:3392   */\n      add\n        /* \"#utility.yul\":3346:3392   */\n      swap2\n      pop\n        /* \"#utility.yul\":3126:3398   */\n      pop\n        /* \"#utility.yul\":3034:3398   */\n      swap3\n      swap2\n      pop\n      pop\n      jump\t// out\n        /* \"#utility.yul\":3404:3770   */\n    tag_169:\n        /* \"#utility.yul\":3546:3549   */\n      0x00\n        /* \"#utility.yul\":3567:3634   */\n      tag_171\n        /* \"#utility.yul\":3631:3633   */\n      0x28\n        /* \"#utility.yul\":3626:3629   */\n      dup4\n        /* \"#utility.yul\":3567:3634   */\n      tag_164\n      jump\t// in\n    tag_171:\n        /* \"#utility.yul\":3560:3634   */\n      swap2\n      pop\n        /* \"#utility.yul\":3643:3736   */\n      tag_172\n        /* \"#utility.yul\":3732:3735   */\n      dup3\n        /* \"#utility.yul\":3643:3736   */\n      tag_173\n      jump\t// in\n    tag_172:\n        /* \"#utility.yul\":3761:3763   */\n      0x40\n        /* \"#utility.yul\":3756:3759   */\n      dup3\n        /* \"#utility.yul\":3752:3764   */\n      add\n        /* \"#utility.yul\":3745:3764   */\n      swap1\n      pop\n        /* \"#utility.yul\":3404:3770   */\n      swap2\n      swap1\n      pop\n      jump\t// out\n        /* \"#utility.yul\":3776:4142   */\n    tag_174:\n        /* \"#utility.yul\":3918:3921   */\n      0x00\n        /* \"#utility.yul\":3939:4006   */\n      tag_176\n        /* \"#utility.yul\":4003:4005   */\n      0x15\n        /* \"#utility.yul\":3998:4001   */\n      dup4\n        /* \"#utility.yul\":3939:4006   */\n      tag_164\n      jump\t// in\n    tag_176:\n        /* \"#utility.yul\":3932:4006   */\n      swap2\n      pop\n        /* \"#utility.yul\":4015:4108   */\n      tag_177\n        /* \"#utility.yul\":4104:4107   */\n      dup3\n        /* \"#utility.yul\":4015:4108   */\n      tag_178\n      jump\t// in\n    tag_177:\n        /* \"#utility.yul\":4133:4135   */\n      0x20\n        /* \"#utility.yul\":4128:4131   */\n      dup3\n        /* \"#utility.yul\":4124:4136   */\n      add\n        /* \"#utility.yul\":4117:4136   */\n      swap1\n      pop\n        /* \"#utility.yul\":3776:4142   */\n      swap2\n      swap1\n      pop\n      jump\t// out\n        /* \"#utility.yul\":4148:4266   */\n    tag_179:\n        /* \"#utility.yul\":4235:4259   */\n      tag_181\n        /* \"#utility.yul\":4253:4258   */\n      dup2\n        /* \"#utility.yul\":4235:4259   */\n      tag_182\n      jump\t// in\n    tag_181:\n        /* \"#utility.yul\":4230:4233   */\n      dup3\n        /* \"#utility.yul\":4223:4260   */\n      mstore\n        /* \"#utility.yul\":4148:4266   */\n      pop\n      pop\n      jump\t// out\n        /* \"#utility.yul\":4272:4429   */\n    tag_183:\n        /* \"#utility.yul\":4377:4422   */\n      tag_185\n        /* \"#utility.yul\":4397:4421   */\n      tag_186\n        /* \"#utility.yul\":4415:4420   */\n      dup3\n        /* \"#utility.yul\":4397:4421   */\n      tag_182\n      jump\t// in\n    tag_186:\n        /* \"#utility.yul\":4377:4422   */\n      tag_187\n      jump\t// in\n    tag_185:\n        /* \"#utility.yul\":4372:4375   */\n      dup3\n        /* \"#utility.yul\":4365:4423   */\n      mstore\n        /* \"#utility.yul\":4272:4429   */\n      pop\n      pop\n      jump\t// out\n        /* \"#utility.yul\":4435:4973   */\n    tag_50:\n        /* \"#utility.yul\":4603:4606   */\n      0x00\n        /* \"#utility.yul\":4618:4693   */\n      tag_189\n        /* \"#utility.yul\":4689:4692   */\n      dup3\n        /* \"#utility.yul\":4680:4686   */\n      dup7\n        /* \"#utility.yul\":4618:4693   */\n      tag_183\n      jump\t// in\n    tag_189:\n        /* \"#utility.yul\":4718:4720   */\n      0x20\n        /* \"#utility.yul\":4713:4716   */\n      dup3\n        /* \"#utility.yul\":4709:4721   */\n      add\n        /* \"#utility.yul\":4702:4721   */\n      swap2\n      pop\n        /* \"#utility.yul\":4731:4806   */\n      tag_190\n        /* \"#utility.yul\":4802:4805   */\n      dup3\n        /* \"#utility.yul\":4793:4799   */\n      dup6\n        /* \"#utility.yul\":4731:4806   */\n      tag_183\n      jump\t// in\n    tag_190:\n        /* \"#utility.yul\":4831:4833   */\n      0x20\n        /* \"#utility.yul\":4826:4829   */\n      dup3\n        /* \"#utility.yul\":4822:4834   */\n      add\n        /* \"#utility.yul\":4815:4834   */\n      swap2\n      pop\n        /* \"#utility.yul\":4844:4919   */\n      tag_191\n        /* \"#utility.yul\":4915:4918   */\n      dup3\n        /* \"#utility.yul\":4906:4912   */\n      dup5\n        /* \"#utility.yul\":4844:4919   */\n      tag_183\n      jump\t// in\n    tag_191:\n        /* \"#utility.yul\":4944:4946   */\n      0x20\n        /* \"#utility.yul\":4939:4942   */\n      dup3\n        /* \"#utility.yul\":4935:4947   */\n      add\n        /* \"#utility.yul\":4928:4947   */\n      swap2\n      pop\n        /* \"#utility.yul\":4964:4967   */\n      dup2\n        /* \"#utility.yul\":4957:4967   */\n      swap1\n      pop\n        /* \"#utility.yul\":4435:4973   */\n      swap5\n      swap4\n      pop\n      pop\n      pop\n      pop\n      jump\t// out\n        /* \"#utility.yul\":4979:6027   */\n    tag_30:\n        /* \"#utility.yul\":5272:5276   */\n      0x00\n        /* \"#utility.yul\":5310:5313   */\n      0xc0\n        /* \"#utility.yul\":5299:5308   */\n      dup3\n        /* \"#utility.yul\":5295:5314   */\n      add\n        /* \"#utility.yul\":5287:5314   */\n      swap1\n      pop\n        /* \"#utility.yul\":5324:5395   */\n      tag_193\n        /* \"#utility.yul\":5392:5393   */\n      0x00\n        /* \"#utility.yul\":5381:5390   */\n      dup4\n        /* \"#utility.yul\":5377:5394   */\n      add\n        /* \"#utility.yul\":5368:5374   */\n      dup10\n        /* \"#utility.yul\":5324:5395   */\n      tag_155\n      jump\t// in\n    tag_193:\n        /* \"#utility.yul\":5442:5451   */\n      dup2\n        /* \"#utility.yul\":5436:5440   */\n      dup2\n        /* \"#utility.yul\":5432:5452   */\n      sub\n        /* \"#utility.yul\":5427:5429   */\n      0x20\n        /* \"#utility.yul\":5416:5425   */\n      dup4\n        /* \"#utility.yul\":5412:5430   */\n      add\n        /* \"#utility.yul\":5405:5453   */\n      mstore\n        /* \"#utility.yul\":5470:5548   */\n      tag_194\n        /* \"#utility.yul\":5543:5547   */\n      dup2\n        /* \"#utility.yul\":5534:5540   */\n      dup9\n        /* \"#utility.yul\":5470:5548   */\n      tag_159\n      jump\t// in\n    tag_194:\n        /* \"#utility.yul\":5462:5548   */\n      swap1\n      pop\n        /* \"#utility.yul\":5595:5604   */\n      dup2\n        /* \"#utility.yul\":5589:5593   */\n      dup2\n        /* \"#utility.yul\":5585:5605   */\n      sub\n        /* \"#utility.yul\":5580:5582   */\n      0x40\n        /* \"#utility.yul\":5569:5578   */\n      dup4\n        /* \"#utility.yul\":5565:5583   */\n      add\n        /* \"#utility.yul\":5558:5606   */\n      mstore\n        /* \"#utility.yul\":5623:5701   */\n      tag_195\n        /* \"#utility.yul\":5696:5700   */\n      dup2\n        /* \"#utility.yul\":5687:5693   */\n      dup8\n        /* \"#utility.yul\":5623:5701   */\n      tag_159\n      jump\t// in\n    tag_195:\n        /* \"#utility.yul\":5615:5701   */\n      swap1\n      pop\n        /* \"#utility.yul\":5748:5757   */\n      dup2\n        /* \"#utility.yul\":5742:5746   */\n      dup2\n        /* \"#utility.yul\":5738:5758   */\n      sub\n        /* \"#utility.yul\":5733:5735   */\n      0x60\n        /* \"#utility.yul\":5722:5731   */\n      dup4\n        /* \"#utility.yul\":5718:5736   */\n      add\n        /* \"#utility.yul\":5711:5759   */\n      mstore\n        /* \"#utility.yul\":5776:5854   */\n      tag_196\n        /* \"#utility.yul\":5849:5853   */\n      dup2\n        /* \"#utility.yul\":5840:5846   */\n      dup7\n        /* \"#utility.yul\":5776:5854   */\n      tag_159\n      jump\t// in\n    tag_196:\n        /* \"#utility.yul\":5768:5854   */\n      swap1\n      pop\n        /* \"#utility.yul\":5864:5937   */\n      tag_197\n        /* \"#utility.yul\":5932:5935   */\n      0x80\n        /* \"#utility.yul\":5921:5930   */\n      dup4\n        /* \"#utility.yul\":5917:5936   */\n      add\n        /* \"#utility.yul\":5908:5914   */\n      dup6\n        /* \"#utility.yul\":5864:5937   */\n      tag_179\n      jump\t// in\n    tag_197:\n        /* \"#utility.yul\":5947:6020   */\n      tag_198\n        /* \"#utility.yul\":6015:6018   */\n      0xa0\n        /* \"#utility.yul\":6004:6013   */\n      dup4\n        /* \"#utility.yul\":6000:6019   */\n      add\n        /* \"#utility.yul\":5991:5997   */\n      dup5\n        /* \"#utility.yul\":5947:6020   */\n      tag_179\n      jump\t// in\n    tag_198:\n        /* \"#utility.yul\":4979:6027   */\n      swap8\n      swap7\n      pop\n      pop\n      pop\n      pop\n      pop\n      pop\n      pop\n      jump\t// out\n        /* \"#utility.yul\":6033:6346   */\n    tag_24:\n        /* \"#utility.yul\":6146:6150   */\n      0x00\n        /* \"#utility.yul\":6184:6186   */\n      0x20\n        /* \"#utility.yul\":6173:6182   */\n      dup3\n        /* \"#utility.yul\":6169:6187   */\n      add\n        /* \"#utility.yul\":6161:6187   */\n      swap1\n      pop\n        /* \"#utility.yul\":6233:6242   */\n      dup2\n        /* \"#utility.yul\":6227:6231   */\n      dup2\n        /* \"#utility.yul\":6223:6243   */\n      sub\n        /* \"#utility.yul\":6219:6220   */\n      0x00\n        /* \"#utility.yul\":6208:6217   */\n      dup4\n        /* \"#utility.yul\":6204:6221   */\n      add\n        /* \"#utility.yul\":6197:6244   */\n      mstore\n        /* \"#utility.yul\":6261:6339   */\n      tag_200\n        /* \"#utility.yul\":6334:6338   */\n      dup2\n        /* \"#utility.yul\":6325:6331   */\n      dup5\n        /* \"#utility.yul\":6261:6339   */\n      tag_159\n      jump\t// in\n    tag_200:\n        /* \"#utility.yul\":6253:6339   */\n      swap1\n      pop\n        /* \"#utility.yul\":6033:6346   */\n      swap3\n      swap2\n      pop\n      pop\n      jump\t// out\n        /* \"#utility.yul\":6352:6771   */\n    tag_34:\n        /* \"#utility.yul\":6518:6522   */\n      0x00\n        /* \"#utility.yul\":6556:6558   */\n      0x20\n        /* \"#utility.yul\":6545:6554   */\n      dup3\n        /* \"#utility.yul\":6541:6559   */\n      add\n        /* \"#utility.yul\":6533:6559   */\n      swap1\n      pop\n        /* \"#utility.yul\":6605:6614   */\n      dup2\n        /* \"#utility.yul\":6599:6603   */\n      dup2\n        /* \"#utility.yul\":6595:6615   */\n      sub\n        /* \"#utility.yul\":6591:6592   */\n      0x00\n        /* \"#utility.yul\":6580:6589   */\n      dup4\n        /* \"#utility.yul\":6576:6593   */\n      add\n        /* \"#utility.yul\":6569:6616   */\n      mstore\n        /* \"#utility.yul\":6633:6764   */\n      tag_202\n        /* \"#utility.yul\":6759:6763   */\n      dup2\n        /* \"#utility.yul\":6633:6764   */\n      tag_169\n      jump\t// in\n    tag_202:\n        /* \"#utility.yul\":6625:6764   */\n      swap1\n      pop\n        /* \"#utility.yul\":6352:6771   */\n      swap2\n      swap1\n      pop\n      jump\t// out\n        /* \"#utility.yul\":6777:7306   */\n    tag_66:\n        /* \"#utility.yul\":6971:6975   */\n      0x00\n        /* \"#utility.yul\":7009:7011   */\n      0x40\n        /* \"#utility.yul\":6998:7007   */\n      dup3\n        /* \"#utility.yul\":6994:7012   */\n      add\n        /* \"#utility.yul\":6986:7012   */\n      swap1\n      pop\n        /* \"#utility.yul\":7058:7067   */\n      dup2\n        /* \"#utility.yul\":7052:7056   */\n      dup2\n        /* \"#utility.yul\":7048:7068   */\n      sub\n        /* \"#utility.yul\":7044:7045   */\n      0x00\n        /* \"#utility.yul\":7033:7042   */\n      dup4\n        /* \"#utility.yul\":7029:7046   */\n      add\n        /* \"#utility.yul\":7022:7069   */\n      mstore\n        /* \"#utility.yul\":7086:7217   */\n      tag_204\n        /* \"#utility.yul\":7212:7216   */\n      dup2\n        /* \"#utility.yul\":7086:7217   */\n      tag_174\n      jump\t// in\n    tag_204:\n        /* \"#utility.yul\":7078:7217   */\n      swap1\n      pop\n        /* \"#utility.yul\":7227:7299   */\n      tag_205\n        /* \"#utility.yul\":7295:7297   */\n      0x20\n        /* \"#utility.yul\":7284:7293   */\n      dup4\n        /* \"#utility.yul\":7280:7298   */\n      add\n        /* \"#utility.yul\":7271:7277   */\n      dup5\n        /* \"#utility.yul\":7227:7299   */\n      tag_179\n      jump\t// in\n    tag_205:\n        /* \"#utility.yul\":6777:7306   */\n      swap3\n      swap2\n      pop\n      pop\n      jump\t// out\n        /* \"#utility.yul\":7312:7534   */\n    tag_12:\n        /* \"#utility.yul\":7405:7409   */\n      0x00\n        /* \"#utility.yul\":7443:7445   */\n      0x20\n        /* \"#utility.yul\":7432:7441   */\n      dup3\n        /* \"#utility.yul\":7428:7446   */\n      add\n        /* \"#utility.yul\":7420:7446   */\n      swap1\n      pop\n        /* \"#utility.yul\":7456:7527   */\n      tag_207\n        /* \"#utility.yul\":7524:7525   */\n      0x00\n        /* \"#utility.yul\":7513:7522   */\n      dup4\n        /* \"#utility.yul\":7509:7526   */\n      add\n        /* \"#utility.yul\":7500:7506   */\n      dup5\n        /* \"#utility.yul\":7456:7527   */\n      tag_179\n      jump\t// in\n    tag_207:\n        /* \"#utility.yul\":7312:7534   */\n      swap3\n      swap2\n      pop\n      pop\n      jump\t// out\n        /* \"#utility.yul\":7540:7669   */\n    tag_113:\n        /* \"#utility.yul\":7574:7580   */\n      0x00\n        /* \"#utility.yul\":7601:7621   */\n      tag_209\n      tag_210\n      jump\t// in\n    tag_209:\n        /* \"#utility.yul\":7591:7621   */\n      swap1\n      pop\n        /* \"#utility.yul\":7630:7663   */\n      tag_211\n        /* \"#utility.yul\":7658:7662   */\n      dup3\n        /* \"#utility.yul\":7650:7656   */\n      dup3\n        /* \"#utility.yul\":7630:7663   */\n      tag_212\n      jump\t// in\n    tag_211:\n        /* \"#utility.yul\":7540:7669   */\n      swap2\n      swap1\n      pop\n      jump\t// out\n        /* \"#utility.yul\":7675:7750   */\n    tag_210:\n        /* \"#utility.yul\":7708:7714   */\n      0x00\n        /* \"#utility.yul\":7741:7743   */\n      0x40\n        /* \"#utility.yul\":7735:7744   */\n      mload\n        /* \"#utility.yul\":7725:7744   */\n      swap1\n      pop\n        /* \"#utility.yul\":7675:7750   */\n      swap1\n      jump\t// out\n        /* \"#utility.yul\":7756:8064   */\n    tag_112:\n        /* \"#utility.yul\":7818:7822   */\n      0x00\n        /* \"#utility.yul\":7908:7926   */\n      0xffffffffffffffff\n        /* \"#utility.yul\":7900:7906   */\n      dup3\n        /* \"#utility.yul\":7897:7927   */\n      gt\n        /* \"#utility.yul\":7894:7950   */\n      iszero\n      tag_215\n      jumpi\n        /* \"#utility.yul\":7930:7948   */\n      tag_216\n      tag_217\n      jump\t// in\n    tag_216:\n        /* \"#utility.yul\":7894:7950   */\n    tag_215:\n        /* \"#utility.yul\":7968:7997   */\n      tag_218\n        /* \"#utility.yul\":7990:7996   */\n      dup3\n        /* \"#utility.yul\":7968:7997   */\n      tag_168\n      jump\t// in\n    tag_218:\n        /* \"#utility.yul\":7960:7997   */\n      swap1\n      pop\n        /* \"#utility.yul\":8052:8056   */\n      0x20\n        /* \"#utility.yul\":8046:8050   */\n      dup2\n        /* \"#utility.yul\":8042:8057   */\n      add\n        /* \"#utility.yul\":8034:8057   */\n      swap1\n      pop\n        /* \"#utility.yul\":7756:8064   */\n      swap2\n      swap1\n      pop\n      jump\t// out\n        /* \"#utility.yul\":8070:8169   */\n    tag_162:\n        /* \"#utility.yul\":8122:8128   */\n      0x00\n        /* \"#utility.yul\":8156:8161   */\n      dup2\n        /* \"#utility.yul\":8150:8162   */\n      mload\n        /* \"#utility.yul\":8140:8162   */\n      swap1\n      pop\n        /* \"#utility.yul\":8070:8169   */\n      swap2\n      swap1\n      pop\n      jump\t// out\n        /* \"#utility.yul\":8175:8344   */\n    tag_164:\n        /* \"#utility.yul\":8259:8270   */\n      0x00\n        /* \"#utility.yul\":8293:8299   */\n      dup3\n        /* \"#utility.yul\":8288:8291   */\n      dup3\n        /* \"#utility.yul\":8281:8300   */\n      mstore\n        /* \"#utility.yul\":8333:8337   */\n      0x20\n        /* \"#utility.yul\":8328:8331   */\n      dup3\n        /* \"#utility.yul\":8324:8338   */\n      add\n        /* \"#utility.yul\":8309:8338   */\n      swap1\n      pop\n        /* \"#utility.yul\":8175:8344   */\n      swap3\n      swap2\n      pop\n      pop\n      jump\t// out\n        /* \"#utility.yul\":8350:8541   */\n    tag_45:\n        /* \"#utility.yul\":8390:8394   */\n      0x00\n        /* \"#utility.yul\":8410:8430   */\n      tag_222\n        /* \"#utility.yul\":8428:8429   */\n      dup3\n        /* \"#utility.yul\":8410:8430   */\n      tag_182\n      jump\t// in\n    tag_222:\n        /* \"#utility.yul\":8405:8430   */\n      swap2\n      pop\n        /* \"#utility.yul\":8444:8464   */\n      tag_223\n        /* \"#utility.yul\":8462:8463   */\n      dup4\n        /* \"#utility.yul\":8444:8464   */\n      tag_182\n      jump\t// in\n    tag_223:\n        /* \"#utility.yul\":8439:8464   */\n      swap3\n      pop\n        /* \"#utility.yul\":8483:8484   */\n      dup3\n        /* \"#utility.yul\":8480:8481   */\n      dup3\n        /* \"#utility.yul\":8477:8485   */\n      lt\n        /* \"#utility.yul\":8474:8508   */\n      iszero\n      tag_224\n      jumpi\n        /* \"#utility.yul\":8488:8506   */\n      tag_225\n      tag_226\n      jump\t// in\n    tag_225:\n        /* \"#utility.yul\":8474:8508   */\n    tag_224:\n        /* \"#utility.yul\":8533:8534   */\n      dup3\n        /* \"#utility.yul\":8530:8531   */\n      dup3\n        /* \"#utility.yul\":8526:8535   */\n      sub\n        /* \"#utility.yul\":8518:8535   */\n      swap1\n      pop\n        /* \"#utility.yul\":8350:8541   */\n      swap3\n      swap2\n      pop\n      pop\n      jump\t// out\n        /* \"#utility.yul\":8547:8643   */\n    tag_158:\n        /* \"#utility.yul\":8584:8591   */\n      0x00\n        /* \"#utility.yul\":8613:8637   */\n      tag_228\n        /* \"#utility.yul\":8631:8636   */\n      dup3\n        /* \"#utility.yul\":8613:8637   */\n      tag_229\n      jump\t// in\n    tag_228:\n        /* \"#utility.yul\":8602:8637   */\n      swap1\n      pop\n        /* \"#utility.yul\":8547:8643   */\n      swap2\n      swap1\n      pop\n      jump\t// out\n        /* \"#utility.yul\":8649:8775   */\n    tag_229:\n        /* \"#utility.yul\":8686:8693   */\n      0x00\n        /* \"#utility.yul\":8726:8768   */\n      0xffffffffffffffffffffffffffffffffffffffff\n        /* \"#utility.yul\":8719:8724   */\n      dup3\n        /* \"#utility.yul\":8715:8769   */\n      and\n        /* \"#utility.yul\":8704:8769   */\n      swap1\n      pop\n        /* \"#utility.yul\":8649:8775   */\n      swap2\n      swap1\n      pop\n      jump\t// out\n        /* \"#utility.yul\":8781:8858   */\n    tag_182:\n        /* \"#utility.yul\":8818:8825   */\n      0x00\n        /* \"#utility.yul\":8847:8852   */\n      dup2\n        /* \"#utility.yul\":8836:8852   */\n      swap1\n      pop\n        /* \"#utility.yul\":8781:8858   */\n      swap2\n      swap1\n      pop\n      jump\t// out\n        /* \"#utility.yul\":8864:9018   */\n    tag_118:\n        /* \"#utility.yul\":8948:8954   */\n      dup3\n        /* \"#utility.yul\":8943:8946   */\n      dup2\n        /* \"#utility.yul\":8938:8941   */\n      dup4\n        /* \"#utility.yul\":8925:8955   */\n      calldatacopy\n        /* \"#utility.yul\":9010:9011   */\n      0x00\n        /* \"#utility.yul\":9001:9007   */\n      dup4\n        /* \"#utility.yul\":8996:8999   */\n      dup4\n        /* \"#utility.yul\":8992:9008   */\n      add\n        /* \"#utility.yul\":8985:9012   */\n      mstore\n        /* \"#utility.yul\":8864:9018   */\n      pop\n      pop\n      pop\n      jump\t// out\n        /* \"#utility.yul\":9024:9331   */\n    tag_166:\n        /* \"#utility.yul\":9092:9093   */\n      0x00\n        /* \"#utility.yul\":9102:9215   */\n    tag_234:\n        /* \"#utility.yul\":9116:9122   */\n      dup4\n        /* \"#utility.yul\":9113:9114   */\n      dup2\n        /* \"#utility.yul\":9110:9123   */\n      lt\n        /* \"#utility.yul\":9102:9215   */\n      iszero\n      tag_236\n      jumpi\n        /* \"#utility.yul\":9201:9202   */\n      dup1\n        /* \"#utility.yul\":9196:9199   */\n      dup3\n        /* \"#utility.yul\":9192:9203   */\n      add\n        /* \"#utility.yul\":9186:9204   */\n      mload\n        /* \"#utility.yul\":9182:9183   */\n      dup2\n        /* \"#utility.yul\":9177:9180   */\n      dup5\n        /* \"#utility.yul\":9173:9184   */\n      add\n        /* \"#utility.yul\":9166:9205   */\n      mstore\n        /* \"#utility.yul\":9138:9140   */\n      0x20\n        /* \"#utility.yul\":9135:9136   */\n      dup2\n        /* \"#utility.yul\":9131:9141   */\n      add\n        /* \"#utility.yul\":9126:9141   */\n      swap1\n      pop\n        /* \"#utility.yul\":9102:9215   */\n      jump(tag_234)\n    tag_236:\n        /* \"#utility.yul\":9233:9239   */\n      dup4\n        /* \"#utility.yul\":9230:9231   */\n      dup2\n        /* \"#utility.yul\":9227:9240   */\n      gt\n        /* \"#utility.yul\":9224:9325   */\n      iszero\n      tag_237\n      jumpi\n        /* \"#utility.yul\":9313:9314   */\n      0x00\n        /* \"#utility.yul\":9304:9310   */\n      dup5\n        /* \"#utility.yul\":9299:9302   */\n      dup5\n        /* \"#utility.yul\":9295:9311   */\n      add\n        /* \"#utility.yul\":9288:9315   */\n      mstore\n        /* \"#utility.yul\":9224:9325   */\n    tag_237:\n        /* \"#utility.yul\":9073:9331   */\n      pop\n        /* \"#utility.yul\":9024:9331   */\n      pop\n      pop\n      pop\n      jump\t// out\n        /* \"#utility.yul\":9337:9657   */\n    tag_79:\n        /* \"#utility.yul\":9381:9387   */\n      0x00\n        /* \"#utility.yul\":9418:9419   */\n      0x02\n        /* \"#utility.yul\":9412:9416   */\n      dup3\n        /* \"#utility.yul\":9408:9420   */\n      div\n        /* \"#utility.yul\":9398:9420   */\n      swap1\n      pop\n        /* \"#utility.yul\":9465:9466   */\n      0x01\n        /* \"#utility.yul\":9459:9463   */\n      dup3\n        /* \"#utility.yul\":9455:9467   */\n      and\n        /* \"#utility.yul\":9486:9504   */\n      dup1\n        /* \"#utility.yul\":9476:9557   */\n      tag_239\n      jumpi\n        /* \"#utility.yul\":9542:9546   */\n      0x7f\n        /* \"#utility.yul\":9534:9540   */\n      dup3\n        /* \"#utility.yul\":9530:9547   */\n      and\n        /* \"#utility.yul\":9520:9547   */\n      swap2\n      pop\n        /* \"#utility.yul\":9476:9557   */\n    tag_239:\n        /* \"#utility.yul\":9604:9606   */\n      0x20\n        /* \"#utility.yul\":9596:9602   */\n      dup3\n        /* \"#utility.yul\":9593:9607   */\n      lt\n        /* \"#utility.yul\":9573:9591   */\n      dup2\n        /* \"#utility.yul\":9570:9608   */\n      eq\n        /* \"#utility.yul\":9567:9651   */\n      iszero\n      tag_240\n      jumpi\n        /* \"#utility.yul\":9623:9641   */\n      tag_241\n      tag_242\n      jump\t// in\n    tag_241:\n        /* \"#utility.yul\":9567:9651   */\n    tag_240:\n        /* \"#utility.yul\":9388:9657   */\n      pop\n        /* \"#utility.yul\":9337:9657   */\n      swap2\n      swap1\n      pop\n      jump\t// out\n        /* \"#utility.yul\":9663:9944   */\n    tag_212:\n        /* \"#utility.yul\":9746:9773   */\n      tag_244\n        /* \"#utility.yul\":9768:9772   */\n      dup3\n        /* \"#utility.yul\":9746:9773   */\n      tag_168\n      jump\t// in\n    tag_244:\n        /* \"#utility.yul\":9738:9744   */\n      dup2\n        /* \"#utility.yul\":9734:9774   */\n      add\n        /* \"#utility.yul\":9876:9882   */\n      dup2\n        /* \"#utility.yul\":9864:9874   */\n      dup2\n        /* \"#utility.yul\":9861:9883   */\n      lt\n        /* \"#utility.yul\":9840:9858   */\n      0xffffffffffffffff\n        /* \"#utility.yul\":9828:9838   */\n      dup3\n        /* \"#utility.yul\":9825:9859   */\n      gt\n        /* \"#utility.yul\":9822:9884   */\n      or\n        /* \"#utility.yul\":9819:9907   */\n      iszero\n      tag_245\n      jumpi\n        /* \"#utility.yul\":9887:9905   */\n      tag_246\n      tag_217\n      jump\t// in\n    tag_246:\n        /* \"#utility.yul\":9819:9907   */\n    tag_245:\n        /* \"#utility.yul\":9927:9937   */\n      dup1\n        /* \"#utility.yul\":9923:9925   */\n      0x40\n        /* \"#utility.yul\":9916:9938   */\n      mstore\n        /* \"#utility.yul\":9706:9944   */\n      pop\n        /* \"#utility.yul\":9663:9944   */\n      pop\n      pop\n      jump\t// out\n        /* \"#utility.yul\":9950:10183   */\n    tag_42:\n        /* \"#utility.yul\":9989:9992   */\n      0x00\n        /* \"#utility.yul\":10012:10036   */\n      tag_248\n        /* \"#utility.yul\":10030:10035   */\n      dup3\n        /* \"#utility.yul\":10012:10036   */\n      tag_182\n      jump\t// in\n    tag_248:\n        /* \"#utility.yul\":10003:10036   */\n      swap2\n      pop\n        /* \"#utility.yul\":10058:10124   */\n      0xffffffffffffffffffffffffffffffffffffffffffffffffffffffffffffffff\n        /* \"#utility.yul\":10051:10056   */\n      dup3\n        /* \"#utility.yul\":10048:10125   */\n      eq\n        /* \"#utility.yul\":10045:10148   */\n      iszero\n      tag_249\n      jumpi\n        /* \"#utility.yul\":10128:10146   */\n      tag_250\n      tag_226\n      jump\t// in\n    tag_250:\n        /* \"#utility.yul\":10045:10148   */\n    tag_249:\n        /* \"#utility.yul\":10175:10176   */\n      0x01\n        /* \"#utility.yul\":10168:10173   */\n      dup3\n        /* \"#utility.yul\":10164:10177   */\n      add\n        /* \"#utility.yul\":10157:10177   */\n      swap1\n      pop\n        /* \"#utility.yul\":9950:10183   */\n      swap2\n      swap1\n      pop\n      jump\t// out\n        /* \"#utility.yul\":10189:10268   */\n    tag_187:\n        /* \"#utility.yul\":10228:10235   */\n      0x00\n        /* \"#utility.yul\":10257:10262   */\n      dup2\n        /* \"#utility.yul\":10246:10262   */\n      swap1\n      pop\n        /* \"#utility.yul\":10189:10268   */\n      swap2\n      swap1\n      pop\n      jump\t// out\n        /* \"#utility.yul\":10274:10450   */\n    tag_52:\n        /* \"#utility.yul\":10306:10307   */\n      0x00\n        /* \"#utility.yul\":10323:10343   */\n      tag_253\n        /* \"#utility.yul\":10341:10342   */\n      dup3\n        /* \"#utility.yul\":10323:10343   */\n      tag_182\n      jump\t// in\n    tag_253:\n        /* \"#utility.yul\":10318:10343   */\n      swap2\n      pop\n        /* \"#utility.yul\":10357:10377   */\n      tag_254\n        /* \"#utility.yul\":10375:10376   */\n      dup4\n        /* \"#utility.yul\":10357:10377   */\n      tag_182\n      jump\t// in\n    tag_254:\n        /* \"#utility.yul\":10352:10377   */\n      swap3\n      pop\n        /* \"#utility.yul\":10396:10397   */\n      dup3\n        /* \"#utility.yul\":10386:10421   */\n      tag_255\n      jumpi\n        /* \"#utility.yul\":10401:10419   */\n      tag_256\n      tag_257\n      jump\t// in\n    tag_256:\n        /* \"#utility.yul\":10386:10421   */\n    tag_255:\n        /* \"#utility.yul\":10442:10443   */\n      dup3\n        /* \"#utility.yul\":10439:10440   */\n      dup3\n        /* \"#utility.yul\":10435:10444   */\n      mod\n        /* \"#utility.yul\":10430:10444   */\n      swap1\n      pop\n        /* \"#utility.yul\":10274:10450   */\n      swap3\n      swap2\n      pop\n      pop\n      jump\t// out\n        /* \"#utility.yul\":10456:10636   */\n    tag_226:\n        /* \"#utility.yul\":10504:10581   */\n      0x4e487b7100000000000000000000000000000000000000000000000000000000\n        /* \"#utility.yul\":10501:10502   */\n      0x00\n        /* \"#utility.yul\":10494:10582   */\n      mstore\n        /* \"#utility.yul\":10601:10605   */\n      0x11\n        /* \"#utility.yul\":10598:10599   */\n      0x04\n        /* \"#utility.yul\":10591:10606   */\n      mstore\n        /* \"#utility.yul\":10625:10629   */\n      0x24\n        /* \"#utility.yul\":10622:10623   */\n      0x00\n        /* \"#utility.yul\":10615:10630   */\n      revert\n        /* \"#utility.yul\":10642:10822   */\n    tag_257:\n        /* \"#utility.yul\":10690:10767   */\n      0x4e487b7100000000000000000000000000000000000000000000000000000000\n        /* \"#utility.yul\":10687:10688   */\n      0x00\n        /* \"#utility.yul\":10680:10768   */\n      mstore\n        /* \"#utility.yul\":10787:10791   */\n      0x12\n        /* \"#utility.yul\":10784:10785   */\n      0x04\n        /* \"#utility.yul\":10777:10792   */\n      mstore\n        /* \"#utility.yul\":10811:10815   */\n      0x24\n        /* \"#utility.yul\":10808:10809   */\n      0x00\n        /* \"#utility.yul\":10801:10816   */\n      revert\n        /* \"#utility.yul\":10828:11008   */\n    tag_242:\n        /* \"#utility.yul\":10876:10953   */\n      0x4e487b7100000000000000000000000000000000000000000000000000000000\n        /* \"#utility.yul\":10873:10874   */\n      0x00\n        /* \"#utility.yul\":10866:10954   */\n      mstore\n        /* \"#utility.yul\":10973:10977   */\n      0x22\n        /* \"#utility.yul\":10970:10971   */\n      0x04\n        /* \"#utility.yul\":10963:10978   */\n      mstore\n        /* \"#utility.yul\":10997:11001   */\n      0x24\n        /* \"#utility.yul\":10994:10995   */\n      0x00\n        /* \"#utility.yul\":10987:11002   */\n      revert\n        /* \"#utility.yul\":11014:11194   */\n    tag_59:\n        /* \"#utility.yul\":11062:11139   */\n      0x4e487b7100000000000000000000000000000000000000000000000000000000\n        /* \"#utility.yul\":11059:11060   */\n      0x00\n        /* \"#utility.yul\":11052:11140   */\n      mstore\n        /* \"#utility.yul\":11159:11163   */\n      0x32\n        /* \"#utility.yul\":11156:11157   */\n      0x04\n        /* \"#utility.yul\":11149:11164   */\n      mstore\n        /* \"#utility.yul\":11183:11187   */\n      0x24\n        /* \"#utility.yul\":11180:11181   */\n      0x00\n        /* \"#utility.yul\":11173:11188   */\n      revert\n        /* \"#utility.yul\":11200:11380   */\n    tag_217:\n        /* \"#utility.yul\":11248:11325   */\n      0x4e487b7100000000000000000000000000000000000000000000000000000000\n        /* \"#utility.yul\":11245:11246   */\n      0x00\n        /* \"#utility.yul\":11238:11326   */\n      mstore\n        /* \"#utility.yul\":11345:11349   */\n      0x41\n        /* \"#utility.yul\":11342:11343   */\n      0x04\n        /* \"#utility.yul\":11335:11350   */\n      mstore\n        /* \"#utility.yul\":11369:11373   */\n      0x24\n        /* \"#utility.yul\":11366:11367   */\n      0x00\n        /* \"#utility.yul\":11359:11374   */\n      revert\n        /* \"#utility.yul\":11386:11503   */\n    tag_127:\n        /* \"#utility.yul\":11495:11496   */\n      0x00\n        /* \"#utility.yul\":11492:11493   */\n      dup1\n        /* \"#utility.yul\":11485:11497   */\n      revert\n        /* \"#utility.yul\":11509:11626   */\n    tag_116:\n        /* \"#utility.yul\":11618:11619   */\n      0x00\n        /* \"#utility.yul\":11615:11616   */\n      dup1\n        /* \"#utility.yul\":11608:11620   */\n      revert\n        /* \"#utility.yul\":11632:11749   */\n    tag_143:\n        /* \"#utility.yul\":11741:11742   */\n      0x00\n        /* \"#utility.yul\":11738:11739   */\n      dup1\n        /* \"#utility.yul\":11731:11743   */\n      revert\n        /* \"#utility.yul\":11755:11872   */\n    tag_136:\n        /* \"#utility.yul\":11864:11865   */\n      0x00\n        /* \"#utility.yul\":11861:11862   */\n      dup1\n        /* \"#utility.yul\":11854:11866   */\n      revert\n        /* \"#utility.yul\":11878:11980   */\n    tag_168:\n        /* \"#utility.yul\":11919:11925   */\n      0x00\n        /* \"#utility.yul\":11970:11972   */\n      0x1f\n        /* \"#utility.yul\":11966:11973   */\n      not\n        /* \"#utility.yul\":11961:11963   */\n      0x1f\n        /* \"#utility.yul\":11954:11959   */\n      dup4\n        /* \"#utility.yul\":11950:11964   */\n      add\n        /* \"#utility.yul\":11946:11974   */\n      and\n        /* \"#utility.yul\":11936:11974   */\n      swap1\n      pop\n        /* \"#utility.yul\":11878:11980   */\n      swap2\n      swap1\n      pop\n      jump\t// out\n        /* \"#utility.yul\":11986:12213   */\n    tag_173:\n        /* \"#utility.yul\":12126:12160   */\n      0x536f6c6f2073652070756564652074656e657220756e20636f63686520706f72\n        /* \"#utility.yul\":12122:12123   */\n      0x00\n        /* \"#utility.yul\":12114:12120   */\n      dup3\n        /* \"#utility.yul\":12110:12124   */\n      add\n        /* \"#utility.yul\":12103:12161   */\n      mstore\n        /* \"#utility.yul\":12195:12205   */\n      0x20706572736f6e61000000000000000000000000000000000000000000000000\n        /* \"#utility.yul\":12190:12192   */\n      0x20\n        /* \"#utility.yul\":12182:12188   */\n      dup3\n        /* \"#utility.yul\":12178:12193   */\n      add\n        /* \"#utility.yul\":12171:12206   */\n      mstore\n        /* \"#utility.yul\":11986:12213   */\n      pop\n      jump\t// out\n        /* \"#utility.yul\":12219:12390   */\n    tag_178:\n        /* \"#utility.yul\":12359:12382   */\n      0x456c20636f6368652067616e61646f722065733a200000000000000000000000\n        /* \"#utility.yul\":12355:12356   */\n      0x00\n        /* \"#utility.yul\":12347:12353   */\n      dup3\n        /* \"#utility.yul\":12343:12357   */\n      add\n        /* \"#utility.yul\":12336:12383   */\n      mstore\n        /* \"#utility.yul\":12219:12390   */\n      pop\n      jump\t// out\n        /* \"#utility.yul\":12396:12518   */\n    tag_122:\n        /* \"#utility.yul\":12469:12493   */\n      tag_271\n        /* \"#utility.yul\":12487:12492   */\n      dup2\n        /* \"#utility.yul\":12469:12493   */\n      tag_158\n      jump\t// in\n    tag_271:\n        /* \"#utility.yul\":12462:12467   */\n      dup2\n        /* \"#utility.yul\":12459:12494   */\n      eq\n        /* \"#utility.yul\":12449:12512   */\n      tag_272\n      jumpi\n        /* \"#utility.yul\":12508:12509   */\n      0x00\n        /* \"#utility.yul\":12505:12506   */\n      dup1\n        /* \"#utility.yul\":12498:12510   */\n      revert\n        /* \"#utility.yul\":12449:12512   */\n    tag_272:\n        /* \"#utility.yul\":12396:12518   */\n      pop\n      jump\t// out\n        /* \"#utility.yul\":12524:12646   */\n    tag_132:\n        /* \"#utility.yul\":12597:12621   */\n      tag_274\n        /* \"#utility.yul\":12615:12620   */\n      dup2\n        /* \"#utility.yul\":12597:12621   */\n      tag_182\n      jump\t// in\n    tag_274:\n        /* \"#utility.yul\":12590:12595   */\n      dup2\n        /* \"#utility.yul\":12587:12622   */\n      eq\n        /* \"#utility.yul\":12577:12640   */\n      tag_275\n      jumpi\n        /* \"#utility.yul\":12636:12637   */\n      0x00\n        /* \"#utility.yul\":12633:12634   */\n      dup1\n        /* \"#utility.yul\":12626:12638   */\n      revert\n        /* \"#utility.yul\":12577:12640   */\n    tag_275:\n        /* \"#utility.yul\":12524:12646   */\n      pop\n      jump\t// out\n\n    auxdata: 0xa2646970667358221220e31b57bd609c3f5e9bfdea58a4a9418f4f2f7ba6de4d80b8753b5b0b26b0f1e764736f6c63430008070033\n}\n",
				"bytecode": {
					"linkReferences": {},
					"object": "608060405260008055600060015534801561001957600080fd5b50610ffa806100296000396000f3fe60806040526004361061003f5760003560e01c80631c6743e4146100445780632458c544146100815780636b6f0494146100be578063d735573d146100ee575b600080fd5b34801561005057600080fd5b5061006b60048036038101906100669190610910565b610130565b6040516100789190610be8565b60405180910390f35b34801561008d57600080fd5b506100a860048036038101906100a3919061093d565b610148565b6040516100b59190610be8565b60405180910390f35b6100d860048036038101906100d391906109e4565b610374565b6040516100e59190610b78565b60405180910390f35b3480156100fa57600080fd5b50610115600480360381019061011091906109e4565b610586565b60405161012796959493929190610b02565b60405180910390f35b60036020528060005260406000206000915090505481565b60006001600360003373ffffffffffffffffffffffffffffffffffffffff1673ffffffffffffffffffffffffffffffffffffffff16815260200190815260200160002054106101cc576040517f08c379a00000000000000000000000000000000000000000000000000000000081526004016101c390610b9a565b60405180910390fd5b60026040518060c001604052803373ffffffffffffffffffffffffffffffffffffffff168152602001868152602001858152602001848152602001600081526020016000815250908060018154018082558091505060019003906000526020600020906006020160009091909190915060008201518160000160006101000a81548173ffffffffffffffffffffffffffffffffffffffff021916908373ffffffffffffffffffffffffffffffffffffffff160217905550602082015181600101908051906020019061029f9291906107d3565b5060408201518160020190805190602001906102bc9291906107d3565b5060608201518160030190805190602001906102d99291906107d3565b506080820151816004015560a082015181600501555050600360003373ffffffffffffffffffffffffffffffffffffffff1673ffffffffffffffffffffffffffffffffffffffff168152602001908152602001600020600081548092919061034090610d8a565b91905055506001600081548092919061035890610d8a565b91905055506001805461036b9190610c75565b90509392505050565b606081341461038257600080fd5b60008081548092919061039490610d8a565b91905055506000600280549050426002805490506000546040516020016103bd93929190610ac5565b6040516020818303038152906040528051906020012060001c6103e09190610ddd565b905060005b60028054905081101561057e5780821415610530576002818154811061040e5761040d610e9b565b5b906000526020600020906006020160000160009054906101000a900473ffffffffffffffffffffffffffffffffffffffff1673ffffffffffffffffffffffffffffffffffffffff163373ffffffffffffffffffffffffffffffffffffffff1614156104ba5761047b61078a565b6040518060400160405280600a81526020017f4861732067616e61646f0000000000000000000000000000000000000000000081525092505050610581565b7fa28482eec3136a2461c6c30c08f71ba279c6c51a2d9c7bea4e50d6d2632f3896826040516104e99190610bba565b60405180910390a16040518060400160405280600b81526020017f486173207065726469646f00000000000000000000000000000000000000000081525092505050610581565b6002818154811061054457610543610e9b565b5b9060005260206000209060060201600501600081548092919061056690610d8a565b9190505550808061057690610d8a565b9150506103e5565b50505b919050565b6002818154811061059657600080fd5b90600052602060002090600602016000915090508060000160009054906101000a900473ffffffffffffffffffffffffffffffffffffffff16908060010180546105df90610d27565b80601f016020809104026020016040519081016040528092919081815260200182805461060b90610d27565b80156106585780601f1061062d57610100808354040283529160200191610658565b820191906000526020600020905b81548152906001019060200180831161063b57829003601f168201915b50505050509080600201805461066d90610d27565b80601f016020809104026020016040519081016040528092919081815260200182805461069990610d27565b80156106e65780601f106106bb576101008083540402835291602001916106e6565b820191906000526020600020905b8154815290600101906020018083116106c957829003601f168201915b5050505050908060030180546106fb90610d27565b80601f016020809104026020016040519081016040528092919081815260200182805461072790610d27565b80156107745780601f1061074957610100808354040283529160200191610774565b820191906000526020600020905b81548152906001019060200180831161075757829003601f168201915b5050505050908060040154908060050154905086565b3373ffffffffffffffffffffffffffffffffffffffff166108fc479081150290604051600060405180830381858888f193505050501580156107d0573d6000803e3d6000fd5b50565b8280546107df90610d27565b90600052602060002090601f0160209004810192826108015760008555610848565b82601f1061081a57805160ff1916838001178555610848565b82800160010185558215610848579182015b8281111561084757825182559160200191906001019061082c565b5b5090506108559190610859565b5090565b5b8082111561087257600081600090555060010161085a565b5090565b600061088961088484610c28565b610c03565b9050828152602081018484840111156108a5576108a4610efe565b5b6108b0848285610ce5565b509392505050565b6000813590506108c781610f96565b92915050565b600082601f8301126108e2576108e1610ef9565b5b81356108f2848260208601610876565b91505092915050565b60008135905061090a81610fad565b92915050565b60006020828403121561092657610925610f08565b5b6000610934848285016108b8565b91505092915050565b60008060006060848603121561095657610955610f08565b5b600084013567ffffffffffffffff81111561097457610973610f03565b5b610980868287016108cd565b935050602084013567ffffffffffffffff8111156109a1576109a0610f03565b5b6109ad868287016108cd565b925050604084013567ffffffffffffffff8111156109ce576109cd610f03565b5b6109da868287016108cd565b9150509250925092565b6000602082840312156109fa576109f9610f08565b5b6000610a08848285016108fb565b91505092915050565b610a1a81610ca9565b82525050565b6000610a2b82610c59565b610a358185610c64565b9350610a45818560208601610cf4565b610a4e81610f0d565b840191505092915050565b6000610a66602883610c64565b9150610a7182610f1e565b604082019050919050565b6000610a89601583610c64565b9150610a9482610f6d565b602082019050919050565b610aa881610cdb565b82525050565b610abf610aba82610cdb565b610dd3565b82525050565b6000610ad18286610aae565b602082019150610ae18285610aae565b602082019150610af18284610aae565b602082019150819050949350505050565b600060c082019050610b176000830189610a11565b8181036020830152610b298188610a20565b90508181036040830152610b3d8187610a20565b90508181036060830152610b518186610a20565b9050610b606080830185610a9f565b610b6d60a0830184610a9f565b979650505050505050565b60006020820190508181036000830152610b928184610a20565b905092915050565b60006020820190508181036000830152610bb381610a59565b9050919050565b60006040820190508181036000830152610bd381610a7c565b9050610be26020830184610a9f565b92915050565b6000602082019050610bfd6000830184610a9f565b92915050565b6000610c0d610c1e565b9050610c198282610d59565b919050565b6000604051905090565b600067ffffffffffffffff821115610c4357610c42610eca565b5b610c4c82610f0d565b9050602081019050919050565b600081519050919050565b600082825260208201905092915050565b6000610c8082610cdb565b9150610c8b83610cdb565b925082821015610c9e57610c9d610e0e565b5b828203905092915050565b6000610cb482610cbb565b9050919050565b600073ffffffffffffffffffffffffffffffffffffffff82169050919050565b6000819050919050565b82818337600083830152505050565b60005b83811015610d12578082015181840152602081019050610cf7565b83811115610d21576000848401525b50505050565b60006002820490506001821680610d3f57607f821691505b60208210811415610d5357610d52610e6c565b5b50919050565b610d6282610f0d565b810181811067ffffffffffffffff82111715610d8157610d80610eca565b5b80604052505050565b6000610d9582610cdb565b91507fffffffffffffffffffffffffffffffffffffffffffffffffffffffffffffffff821415610dc857610dc7610e0e565b5b600182019050919050565b6000819050919050565b6000610de882610cdb565b9150610df383610cdb565b925082610e0357610e02610e3d565b5b828206905092915050565b7f4e487b7100000000000000000000000000000000000000000000000000000000600052601160045260246000fd5b7f4e487b7100000000000000000000000000000000000000000000000000000000600052601260045260246000fd5b7f4e487b7100000000000000000000000000000000000000000000000000000000600052602260045260246000fd5b7f4e487b7100000000000000000000000000000000000000000000000000000000600052603260045260246000fd5b7f4e487b7100000000000000000000000000000000000000000000000000000000600052604160045260246000fd5b600080fd5b600080fd5b600080fd5b600080fd5b6000601f19601f8301169050919050565b7f536f6c6f2073652070756564652074656e657220756e20636f63686520706f7260008201527f20706572736f6e61000000000000000000000000000000000000000000000000602082015250565b7f456c20636f6368652067616e61646f722065733a200000000000000000000000600082015250565b610f9f81610ca9565b8114610faa57600080fd5b50565b610fb681610cdb565b8114610fc157600080fd5b5056fea2646970667358221220e31b57bd609c3f5e9bfdea58a4a9418f4f2f7ba6de4d80b8753b5b0b26b0f1e764736f6c63430008070033",
					"opcodes": "PUSH1 0x80 PUSH1 0x40 MSTORE PUSH1 0x0 DUP1 SSTORE PUSH1 0x0 PUSH1 0x1 SSTORE CALLVALUE DUP1 ISZERO PUSH2 0x19 JUMPI PUSH1 0x0 DUP1 REVERT JUMPDEST POP PUSH2 0xFFA DUP1 PUSH2 0x29 PUSH1 0x0 CODECOPY PUSH1 0x0 RETURN INVALID PUSH1 0x80 PUSH1 0x40 MSTORE PUSH1 0x4 CALLDATASIZE LT PUSH2 0x3F JUMPI PUSH1 0x0 CALLDATALOAD PUSH1 0xE0 SHR DUP1 PUSH4 0x1C6743E4 EQ PUSH2 0x44 JUMPI DUP1 PUSH4 0x2458C544 EQ PUSH2 0x81 JUMPI DUP1 PUSH4 0x6B6F0494 EQ PUSH2 0xBE JUMPI DUP1 PUSH4 0xD735573D EQ PUSH2 0xEE JUMPI JUMPDEST PUSH1 0x0 DUP1 REVERT JUMPDEST CALLVALUE DUP1 ISZERO PUSH2 0x50 JUMPI PUSH1 0x0 DUP1 REVERT JUMPDEST POP PUSH2 0x6B PUSH1 0x4 DUP1 CALLDATASIZE SUB DUP2 ADD SWAP1 PUSH2 0x66 SWAP2 SWAP1 PUSH2 0x910 JUMP JUMPDEST PUSH2 0x130 JUMP JUMPDEST PUSH1 0x40 MLOAD PUSH2 0x78 SWAP2 SWAP1 PUSH2 0xBE8 JUMP JUMPDEST PUSH1 0x40 MLOAD DUP1 SWAP2 SUB SWAP1 RETURN JUMPDEST CALLVALUE DUP1 ISZERO PUSH2 0x8D JUMPI PUSH1 0x0 DUP1 REVERT JUMPDEST POP PUSH2 0xA8 PUSH1 0x4 DUP1 CALLDATASIZE SUB DUP2 ADD SWAP1 PUSH2 0xA3 SWAP2 SWAP1 PUSH2 0x93D JUMP JUMPDEST PUSH2 0x148 JUMP JUMPDEST PUSH1 0x40 MLOAD PUSH2 0xB5 SWAP2 SWAP1 PUSH2 0xBE8 JUMP JUMPDEST PUSH1 0x40 MLOAD DUP1 SWAP2 SUB SWAP1 RETURN JUMPDEST PUSH2 0xD8 PUSH1 0x4 DUP1 CALLDATASIZE SUB DUP2 ADD SWAP1 PUSH2 0xD3 SWAP2 SWAP1 PUSH2 0x9E4 JUMP JUMPDEST PUSH2 0x374 JUMP JUMPDEST PUSH1 0x40 MLOAD PUSH2 0xE5 SWAP2 SWAP1 PUSH2 0xB78 JUMP JUMPDEST PUSH1 0x40 MLOAD DUP1 SWAP2 SUB SWAP1 RETURN JUMPDEST CALLVALUE DUP1 ISZERO PUSH2 0xFA JUMPI PUSH1 0x0 DUP1 REVERT JUMPDEST POP PUSH2 0x115 PUSH1 0x4 DUP1 CALLDATASIZE SUB DUP2 ADD SWAP1 PUSH2 0x110 SWAP2 SWAP1 PUSH2 0x9E4 JUMP JUMPDEST PUSH2 0x586 JUMP JUMPDEST PUSH1 0x40 MLOAD PUSH2 0x127 SWAP7 SWAP6 SWAP5 SWAP4 SWAP3 SWAP2 SWAP1 PUSH2 0xB02 JUMP JUMPDEST PUSH1 0x40 MLOAD DUP1 SWAP2 SUB SWAP1 RETURN JUMPDEST PUSH1 0x3 PUSH1 0x20 MSTORE DUP1 PUSH1 0x0 MSTORE PUSH1 0x40 PUSH1 0x0 KECCAK256 PUSH1 0x0 SWAP2 POP SWAP1 POP SLOAD DUP2 JUMP JUMPDEST PUSH1 0x0 PUSH1 0x1 PUSH1 0x3 PUSH1 0x0 CALLER PUSH20 0xFFFFFFFFFFFFFFFFFFFFFFFFFFFFFFFFFFFFFFFF AND PUSH20 0xFFFFFFFFFFFFFFFFFFFFFFFFFFFFFFFFFFFFFFFF AND DUP2 MSTORE PUSH1 0x20 ADD SWAP1 DUP2 MSTORE PUSH1 0x20 ADD PUSH1 0x0 KECCAK256 SLOAD LT PUSH2 0x1CC JUMPI PUSH1 0x40 MLOAD PUSH32 0x8C379A000000000000000000000000000000000000000000000000000000000 DUP2 MSTORE PUSH1 0x4 ADD PUSH2 0x1C3 SWAP1 PUSH2 0xB9A JUMP JUMPDEST PUSH1 0x40 MLOAD DUP1 SWAP2 SUB SWAP1 REVERT JUMPDEST PUSH1 0x2 PUSH1 0x40 MLOAD DUP1 PUSH1 0xC0 ADD PUSH1 0x40 MSTORE DUP1 CALLER PUSH20 0xFFFFFFFFFFFFFFFFFFFFFFFFFFFFFFFFFFFFFFFF AND DUP2 MSTORE PUSH1 0x20 ADD DUP7 DUP2 MSTORE PUSH1 0x20 ADD DUP6 DUP2 MSTORE PUSH1 0x20 ADD DUP5 DUP2 MSTORE PUSH1 0x20 ADD PUSH1 0x0 DUP2 MSTORE PUSH1 0x20 ADD PUSH1 0x0 DUP2 MSTORE POP SWAP1 DUP1 PUSH1 0x1 DUP2 SLOAD ADD DUP1 DUP3 SSTORE DUP1 SWAP2 POP POP PUSH1 0x1 SWAP1 SUB SWAP1 PUSH1 0x0 MSTORE PUSH1 0x20 PUSH1 0x0 KECCAK256 SWAP1 PUSH1 0x6 MUL ADD PUSH1 0x0 SWAP1 SWAP2 SWAP1 SWAP2 SWAP1 SWAP2 POP PUSH1 0x0 DUP3 ADD MLOAD DUP2 PUSH1 0x0 ADD PUSH1 0x0 PUSH2 0x100 EXP DUP2 SLOAD DUP2 PUSH20 0xFFFFFFFFFFFFFFFFFFFFFFFFFFFFFFFFFFFFFFFF MUL NOT AND SWAP1 DUP4 PUSH20 0xFFFFFFFFFFFFFFFFFFFFFFFFFFFFFFFFFFFFFFFF AND MUL OR SWAP1 SSTORE POP PUSH1 0x20 DUP3 ADD MLOAD DUP2 PUSH1 0x1 ADD SWAP1 DUP1 MLOAD SWAP1 PUSH1 0x20 ADD SWAP1 PUSH2 0x29F SWAP3 SWAP2 SWAP1 PUSH2 0x7D3 JUMP JUMPDEST POP PUSH1 0x40 DUP3 ADD MLOAD DUP2 PUSH1 0x2 ADD SWAP1 DUP1 MLOAD SWAP1 PUSH1 0x20 ADD SWAP1 PUSH2 0x2BC SWAP3 SWAP2 SWAP1 PUSH2 0x7D3 JUMP JUMPDEST POP PUSH1 0x60 DUP3 ADD MLOAD DUP2 PUSH1 0x3 ADD SWAP1 DUP1 MLOAD SWAP1 PUSH1 0x20 ADD SWAP1 PUSH2 0x2D9 SWAP3 SWAP2 SWAP1 PUSH2 0x7D3 JUMP JUMPDEST POP PUSH1 0x80 DUP3 ADD MLOAD DUP2 PUSH1 0x4 ADD SSTORE PUSH1 0xA0 DUP3 ADD MLOAD DUP2 PUSH1 0x5 ADD SSTORE POP POP PUSH1 0x3 PUSH1 0x0 CALLER PUSH20 0xFFFFFFFFFFFFFFFFFFFFFFFFFFFFFFFFFFFFFFFF AND PUSH20 0xFFFFFFFFFFFFFFFFFFFFFFFFFFFFFFFFFFFFFFFF AND DUP2 MSTORE PUSH1 0x20 ADD SWAP1 DUP2 MSTORE PUSH1 0x20 ADD PUSH1 0x0 KECCAK256 PUSH1 0x0 DUP2 SLOAD DUP1 SWAP3 SWAP2 SWAP1 PUSH2 0x340 SWAP1 PUSH2 0xD8A JUMP JUMPDEST SWAP2 SWAP1 POP SSTORE POP PUSH1 0x1 PUSH1 0x0 DUP2 SLOAD DUP1 SWAP3 SWAP2 SWAP1 PUSH2 0x358 SWAP1 PUSH2 0xD8A JUMP JUMPDEST SWAP2 SWAP1 POP SSTORE POP PUSH1 0x1 DUP1 SLOAD PUSH2 0x36B SWAP2 SWAP1 PUSH2 0xC75 JUMP JUMPDEST SWAP1 POP SWAP4 SWAP3 POP POP POP JUMP JUMPDEST PUSH1 0x60 DUP2 CALLVALUE EQ PUSH2 0x382 JUMPI PUSH1 0x0 DUP1 REVERT JUMPDEST PUSH1 0x0 DUP1 DUP2 SLOAD DUP1 SWAP3 SWAP2 SWAP1 PUSH2 0x394 SWAP1 PUSH2 0xD8A JUMP JUMPDEST SWAP2 SWAP1 POP SSTORE POP PUSH1 0x0 PUSH1 0x2 DUP1 SLOAD SWAP1 POP TIMESTAMP PUSH1 0x2 DUP1 SLOAD SWAP1 POP PUSH1 0x0 SLOAD PUSH1 0x40 MLOAD PUSH1 0x20 ADD PUSH2 0x3BD SWAP4 SWAP3 SWAP2 SWAP1 PUSH2 0xAC5 JUMP JUMPDEST PUSH1 0x40 MLOAD PUSH1 0x20 DUP2 DUP4 SUB SUB DUP2 MSTORE SWAP1 PUSH1 0x40 MSTORE DUP1 MLOAD SWAP1 PUSH1 0x20 ADD KECCAK256 PUSH1 0x0 SHR PUSH2 0x3E0 SWAP2 SWAP1 PUSH2 0xDDD JUMP JUMPDEST SWAP1 POP PUSH1 0x0 JUMPDEST PUSH1 0x2 DUP1 SLOAD SWAP1 POP DUP2 LT ISZERO PUSH2 0x57E JUMPI DUP1 DUP3 EQ ISZERO PUSH2 0x530 JUMPI PUSH1 0x2 DUP2 DUP2 SLOAD DUP2 LT PUSH2 0x40E JUMPI PUSH2 0x40D PUSH2 0xE9B JUMP JUMPDEST JUMPDEST SWAP1 PUSH1 0x0 MSTORE PUSH1 0x20 PUSH1 0x0 KECCAK256 SWAP1 PUSH1 0x6 MUL ADD PUSH1 0x0 ADD PUSH1 0x0 SWAP1 SLOAD SWAP1 PUSH2 0x100 EXP SWAP1 DIV PUSH20 0xFFFFFFFFFFFFFFFFFFFFFFFFFFFFFFFFFFFFFFFF AND PUSH20 0xFFFFFFFFFFFFFFFFFFFFFFFFFFFFFFFFFFFFFFFF AND CALLER PUSH20 0xFFFFFFFFFFFFFFFFFFFFFFFFFFFFFFFFFFFFFFFF AND EQ ISZERO PUSH2 0x4BA JUMPI PUSH2 0x47B PUSH2 0x78A JUMP JUMPDEST PUSH1 0x40 MLOAD DUP1 PUSH1 0x40 ADD PUSH1 0x40 MSTORE DUP1 PUSH1 0xA DUP2 MSTORE PUSH1 0x20 ADD PUSH32 0x4861732067616E61646F00000000000000000000000000000000000000000000 DUP2 MSTORE POP SWAP3 POP POP POP PUSH2 0x581 JUMP JUMPDEST PUSH32 0xA28482EEC3136A2461C6C30C08F71BA279C6C51A2D9C7BEA4E50D6D2632F3896 DUP3 PUSH1 0x40 MLOAD PUSH2 0x4E9 SWAP2 SWAP1 PUSH2 0xBBA JUMP JUMPDEST PUSH1 0x40 MLOAD DUP1 SWAP2 SUB SWAP1 LOG1 PUSH1 0x40 MLOAD DUP1 PUSH1 0x40 ADD PUSH1 0x40 MSTORE DUP1 PUSH1 0xB DUP2 MSTORE PUSH1 0x20 ADD PUSH32 0x486173207065726469646F000000000000000000000000000000000000000000 DUP2 MSTORE POP SWAP3 POP POP POP PUSH2 0x581 JUMP JUMPDEST PUSH1 0x2 DUP2 DUP2 SLOAD DUP2 LT PUSH2 0x544 JUMPI PUSH2 0x543 PUSH2 0xE9B JUMP JUMPDEST JUMPDEST SWAP1 PUSH1 0x0 MSTORE PUSH1 0x20 PUSH1 0x0 KECCAK256 SWAP1 PUSH1 0x6 MUL ADD PUSH1 0x5 ADD PUSH1 0x0 DUP2 SLOAD DUP1 SWAP3 SWAP2 SWAP1 PUSH2 0x566 SWAP1 PUSH2 0xD8A JUMP JUMPDEST SWAP2 SWAP1 POP SSTORE POP DUP1 DUP1 PUSH2 0x576 SWAP1 PUSH2 0xD8A JUMP JUMPDEST SWAP2 POP POP PUSH2 0x3E5 JUMP JUMPDEST POP POP JUMPDEST SWAP2 SWAP1 POP JUMP JUMPDEST PUSH1 0x2 DUP2 DUP2 SLOAD DUP2 LT PUSH2 0x596 JUMPI PUSH1 0x0 DUP1 REVERT JUMPDEST SWAP1 PUSH1 0x0 MSTORE PUSH1 0x20 PUSH1 0x0 KECCAK256 SWAP1 PUSH1 0x6 MUL ADD PUSH1 0x0 SWAP2 POP SWAP1 POP DUP1 PUSH1 0x0 ADD PUSH1 0x0 SWAP1 SLOAD SWAP1 PUSH2 0x100 EXP SWAP1 DIV PUSH20 0xFFFFFFFFFFFFFFFFFFFFFFFFFFFFFFFFFFFFFFFF AND SWAP1 DUP1 PUSH1 0x1 ADD DUP1 SLOAD PUSH2 0x5DF SWAP1 PUSH2 0xD27 JUMP JUMPDEST DUP1 PUSH1 0x1F ADD PUSH1 0x20 DUP1 SWAP2 DIV MUL PUSH1 0x20 ADD PUSH1 0x40 MLOAD SWAP1 DUP2 ADD PUSH1 0x40 MSTORE DUP1 SWAP3 SWAP2 SWAP1 DUP2 DUP2 MSTORE PUSH1 0x20 ADD DUP3 DUP1 SLOAD PUSH2 0x60B SWAP1 PUSH2 0xD27 JUMP JUMPDEST DUP1 ISZERO PUSH2 0x658 JUMPI DUP1 PUSH1 0x1F LT PUSH2 0x62D JUMPI PUSH2 0x100 DUP1 DUP4 SLOAD DIV MUL DUP4 MSTORE SWAP2 PUSH1 0x20 ADD SWAP2 PUSH2 0x658 JUMP JUMPDEST DUP3 ADD SWAP2 SWAP1 PUSH1 0x0 MSTORE PUSH1 0x20 PUSH1 0x0 KECCAK256 SWAP1 JUMPDEST DUP2 SLOAD DUP2 MSTORE SWAP1 PUSH1 0x1 ADD SWAP1 PUSH1 0x20 ADD DUP1 DUP4 GT PUSH2 0x63B JUMPI DUP3 SWAP1 SUB PUSH1 0x1F AND DUP3 ADD SWAP2 JUMPDEST POP POP POP POP POP SWAP1 DUP1 PUSH1 0x2 ADD DUP1 SLOAD PUSH2 0x66D SWAP1 PUSH2 0xD27 JUMP JUMPDEST DUP1 PUSH1 0x1F ADD PUSH1 0x20 DUP1 SWAP2 DIV MUL PUSH1 0x20 ADD PUSH1 0x40 MLOAD SWAP1 DUP2 ADD PUSH1 0x40 MSTORE DUP1 SWAP3 SWAP2 SWAP1 DUP2 DUP2 MSTORE PUSH1 0x20 ADD DUP3 DUP1 SLOAD PUSH2 0x699 SWAP1 PUSH2 0xD27 JUMP JUMPDEST DUP1 ISZERO PUSH2 0x6E6 JUMPI DUP1 PUSH1 0x1F LT PUSH2 0x6BB JUMPI PUSH2 0x100 DUP1 DUP4 SLOAD DIV MUL DUP4 MSTORE SWAP2 PUSH1 0x20 ADD SWAP2 PUSH2 0x6E6 JUMP JUMPDEST DUP3 ADD SWAP2 SWAP1 PUSH1 0x0 MSTORE PUSH1 0x20 PUSH1 0x0 KECCAK256 SWAP1 JUMPDEST DUP2 SLOAD DUP2 MSTORE SWAP1 PUSH1 0x1 ADD SWAP1 PUSH1 0x20 ADD DUP1 DUP4 GT PUSH2 0x6C9 JUMPI DUP3 SWAP1 SUB PUSH1 0x1F AND DUP3 ADD SWAP2 JUMPDEST POP POP POP POP POP SWAP1 DUP1 PUSH1 0x3 ADD DUP1 SLOAD PUSH2 0x6FB SWAP1 PUSH2 0xD27 JUMP JUMPDEST DUP1 PUSH1 0x1F ADD PUSH1 0x20 DUP1 SWAP2 DIV MUL PUSH1 0x20 ADD PUSH1 0x40 MLOAD SWAP1 DUP2 ADD PUSH1 0x40 MSTORE DUP1 SWAP3 SWAP2 SWAP1 DUP2 DUP2 MSTORE PUSH1 0x20 ADD DUP3 DUP1 SLOAD PUSH2 0x727 SWAP1 PUSH2 0xD27 JUMP JUMPDEST DUP1 ISZERO PUSH2 0x774 JUMPI DUP1 PUSH1 0x1F LT PUSH2 0x749 JUMPI PUSH2 0x100 DUP1 DUP4 SLOAD DIV MUL DUP4 MSTORE SWAP2 PUSH1 0x20 ADD SWAP2 PUSH2 0x774 JUMP JUMPDEST DUP3 ADD SWAP2 SWAP1 PUSH1 0x0 MSTORE PUSH1 0x20 PUSH1 0x0 KECCAK256 SWAP1 JUMPDEST DUP2 SLOAD DUP2 MSTORE SWAP1 PUSH1 0x1 ADD SWAP1 PUSH1 0x20 ADD DUP1 DUP4 GT PUSH2 0x757 JUMPI DUP3 SWAP1 SUB PUSH1 0x1F AND DUP3 ADD SWAP2 JUMPDEST POP POP POP POP POP SWAP1 DUP1 PUSH1 0x4 ADD SLOAD SWAP1 DUP1 PUSH1 0x5 ADD SLOAD SWAP1 POP DUP7 JUMP JUMPDEST CALLER PUSH20 0xFFFFFFFFFFFFFFFFFFFFFFFFFFFFFFFFFFFFFFFF AND PUSH2 0x8FC SELFBALANCE SWAP1 DUP2 ISZERO MUL SWAP1 PUSH1 0x40 MLOAD PUSH1 0x0 PUSH1 0x40 MLOAD DUP1 DUP4 SUB DUP2 DUP6 DUP9 DUP9 CALL SWAP4 POP POP POP POP ISZERO DUP1 ISZERO PUSH2 0x7D0 JUMPI RETURNDATASIZE PUSH1 0x0 DUP1 RETURNDATACOPY RETURNDATASIZE PUSH1 0x0 REVERT JUMPDEST POP JUMP JUMPDEST DUP3 DUP1 SLOAD PUSH2 0x7DF SWAP1 PUSH2 0xD27 JUMP JUMPDEST SWAP1 PUSH1 0x0 MSTORE PUSH1 0x20 PUSH1 0x0 KECCAK256 SWAP1 PUSH1 0x1F ADD PUSH1 0x20 SWAP1 DIV DUP2 ADD SWAP3 DUP3 PUSH2 0x801 JUMPI PUSH1 0x0 DUP6 SSTORE PUSH2 0x848 JUMP JUMPDEST DUP3 PUSH1 0x1F LT PUSH2 0x81A JUMPI DUP1 MLOAD PUSH1 0xFF NOT AND DUP4 DUP1 ADD OR DUP6 SSTORE PUSH2 0x848 JUMP JUMPDEST DUP3 DUP1 ADD PUSH1 0x1 ADD DUP6 SSTORE DUP3 ISZERO PUSH2 0x848 JUMPI SWAP2 DUP3 ADD JUMPDEST DUP3 DUP2 GT ISZERO PUSH2 0x847 JUMPI DUP3 MLOAD DUP3 SSTORE SWAP2 PUSH1 0x20 ADD SWAP2 SWAP1 PUSH1 0x1 ADD SWAP1 PUSH2 0x82C JUMP JUMPDEST JUMPDEST POP SWAP1 POP PUSH2 0x855 SWAP2 SWAP1 PUSH2 0x859 JUMP JUMPDEST POP SWAP1 JUMP JUMPDEST JUMPDEST DUP1 DUP3 GT ISZERO PUSH2 0x872 JUMPI PUSH1 0x0 DUP2 PUSH1 0x0 SWAP1 SSTORE POP PUSH1 0x1 ADD PUSH2 0x85A JUMP JUMPDEST POP SWAP1 JUMP JUMPDEST PUSH1 0x0 PUSH2 0x889 PUSH2 0x884 DUP5 PUSH2 0xC28 JUMP JUMPDEST PUSH2 0xC03 JUMP JUMPDEST SWAP1 POP DUP3 DUP2 MSTORE PUSH1 0x20 DUP2 ADD DUP5 DUP5 DUP5 ADD GT ISZERO PUSH2 0x8A5 JUMPI PUSH2 0x8A4 PUSH2 0xEFE JUMP JUMPDEST JUMPDEST PUSH2 0x8B0 DUP5 DUP3 DUP6 PUSH2 0xCE5 JUMP JUMPDEST POP SWAP4 SWAP3 POP POP POP JUMP JUMPDEST PUSH1 0x0 DUP2 CALLDATALOAD SWAP1 POP PUSH2 0x8C7 DUP2 PUSH2 0xF96 JUMP JUMPDEST SWAP3 SWAP2 POP POP JUMP JUMPDEST PUSH1 0x0 DUP3 PUSH1 0x1F DUP4 ADD SLT PUSH2 0x8E2 JUMPI PUSH2 0x8E1 PUSH2 0xEF9 JUMP JUMPDEST JUMPDEST DUP2 CALLDATALOAD PUSH2 0x8F2 DUP5 DUP3 PUSH1 0x20 DUP7 ADD PUSH2 0x876 JUMP JUMPDEST SWAP2 POP POP SWAP3 SWAP2 POP POP JUMP JUMPDEST PUSH1 0x0 DUP2 CALLDATALOAD SWAP1 POP PUSH2 0x90A DUP2 PUSH2 0xFAD JUMP JUMPDEST SWAP3 SWAP2 POP POP JUMP JUMPDEST PUSH1 0x0 PUSH1 0x20 DUP3 DUP5 SUB SLT ISZERO PUSH2 0x926 JUMPI PUSH2 0x925 PUSH2 0xF08 JUMP JUMPDEST JUMPDEST PUSH1 0x0 PUSH2 0x934 DUP5 DUP3 DUP6 ADD PUSH2 0x8B8 JUMP JUMPDEST SWAP2 POP POP SWAP3 SWAP2 POP POP JUMP JUMPDEST PUSH1 0x0 DUP1 PUSH1 0x0 PUSH1 0x60 DUP5 DUP7 SUB SLT ISZERO PUSH2 0x956 JUMPI PUSH2 0x955 PUSH2 0xF08 JUMP JUMPDEST JUMPDEST PUSH1 0x0 DUP5 ADD CALLDATALOAD PUSH8 0xFFFFFFFFFFFFFFFF DUP2 GT ISZERO PUSH2 0x974 JUMPI PUSH2 0x973 PUSH2 0xF03 JUMP JUMPDEST JUMPDEST PUSH2 0x980 DUP7 DUP3 DUP8 ADD PUSH2 0x8CD JUMP JUMPDEST SWAP4 POP POP PUSH1 0x20 DUP5 ADD CALLDATALOAD PUSH8 0xFFFFFFFFFFFFFFFF DUP2 GT ISZERO PUSH2 0x9A1 JUMPI PUSH2 0x9A0 PUSH2 0xF03 JUMP JUMPDEST JUMPDEST PUSH2 0x9AD DUP7 DUP3 DUP8 ADD PUSH2 0x8CD JUMP JUMPDEST SWAP3 POP POP PUSH1 0x40 DUP5 ADD CALLDATALOAD PUSH8 0xFFFFFFFFFFFFFFFF DUP2 GT ISZERO PUSH2 0x9CE JUMPI PUSH2 0x9CD PUSH2 0xF03 JUMP JUMPDEST JUMPDEST PUSH2 0x9DA DUP7 DUP3 DUP8 ADD PUSH2 0x8CD JUMP JUMPDEST SWAP2 POP POP SWAP3 POP SWAP3 POP SWAP3 JUMP JUMPDEST PUSH1 0x0 PUSH1 0x20 DUP3 DUP5 SUB SLT ISZERO PUSH2 0x9FA JUMPI PUSH2 0x9F9 PUSH2 0xF08 JUMP JUMPDEST JUMPDEST PUSH1 0x0 PUSH2 0xA08 DUP5 DUP3 DUP6 ADD PUSH2 0x8FB JUMP JUMPDEST SWAP2 POP POP SWAP3 SWAP2 POP POP JUMP JUMPDEST PUSH2 0xA1A DUP2 PUSH2 0xCA9 JUMP JUMPDEST DUP3 MSTORE POP POP JUMP JUMPDEST PUSH1 0x0 PUSH2 0xA2B DUP3 PUSH2 0xC59 JUMP JUMPDEST PUSH2 0xA35 DUP2 DUP6 PUSH2 0xC64 JUMP JUMPDEST SWAP4 POP PUSH2 0xA45 DUP2 DUP6 PUSH1 0x20 DUP7 ADD PUSH2 0xCF4 JUMP JUMPDEST PUSH2 0xA4E DUP2 PUSH2 0xF0D JUMP JUMPDEST DUP5 ADD SWAP2 POP POP SWAP3 SWAP2 POP POP JUMP JUMPDEST PUSH1 0x0 PUSH2 0xA66 PUSH1 0x28 DUP4 PUSH2 0xC64 JUMP JUMPDEST SWAP2 POP PUSH2 0xA71 DUP3 PUSH2 0xF1E JUMP JUMPDEST PUSH1 0x40 DUP3 ADD SWAP1 POP SWAP2 SWAP1 POP JUMP JUMPDEST PUSH1 0x0 PUSH2 0xA89 PUSH1 0x15 DUP4 PUSH2 0xC64 JUMP JUMPDEST SWAP2 POP PUSH2 0xA94 DUP3 PUSH2 0xF6D JUMP JUMPDEST PUSH1 0x20 DUP3 ADD SWAP1 POP SWAP2 SWAP1 POP JUMP JUMPDEST PUSH2 0xAA8 DUP2 PUSH2 0xCDB JUMP JUMPDEST DUP3 MSTORE POP POP JUMP JUMPDEST PUSH2 0xABF PUSH2 0xABA DUP3 PUSH2 0xCDB JUMP JUMPDEST PUSH2 0xDD3 JUMP JUMPDEST DUP3 MSTORE POP POP JUMP JUMPDEST PUSH1 0x0 PUSH2 0xAD1 DUP3 DUP7 PUSH2 0xAAE JUMP JUMPDEST PUSH1 0x20 DUP3 ADD SWAP2 POP PUSH2 0xAE1 DUP3 DUP6 PUSH2 0xAAE JUMP JUMPDEST PUSH1 0x20 DUP3 ADD SWAP2 POP PUSH2 0xAF1 DUP3 DUP5 PUSH2 0xAAE JUMP JUMPDEST PUSH1 0x20 DUP3 ADD SWAP2 POP DUP2 SWAP1 POP SWAP5 SWAP4 POP POP POP POP JUMP JUMPDEST PUSH1 0x0 PUSH1 0xC0 DUP3 ADD SWAP1 POP PUSH2 0xB17 PUSH1 0x0 DUP4 ADD DUP10 PUSH2 0xA11 JUMP JUMPDEST DUP2 DUP2 SUB PUSH1 0x20 DUP4 ADD MSTORE PUSH2 0xB29 DUP2 DUP9 PUSH2 0xA20 JUMP JUMPDEST SWAP1 POP DUP2 DUP2 SUB PUSH1 0x40 DUP4 ADD MSTORE PUSH2 0xB3D DUP2 DUP8 PUSH2 0xA20 JUMP JUMPDEST SWAP1 POP DUP2 DUP2 SUB PUSH1 0x60 DUP4 ADD MSTORE PUSH2 0xB51 DUP2 DUP7 PUSH2 0xA20 JUMP JUMPDEST SWAP1 POP PUSH2 0xB60 PUSH1 0x80 DUP4 ADD DUP6 PUSH2 0xA9F JUMP JUMPDEST PUSH2 0xB6D PUSH1 0xA0 DUP4 ADD DUP5 PUSH2 0xA9F JUMP JUMPDEST SWAP8 SWAP7 POP POP POP POP POP POP POP JUMP JUMPDEST PUSH1 0x0 PUSH1 0x20 DUP3 ADD SWAP1 POP DUP2 DUP2 SUB PUSH1 0x0 DUP4 ADD MSTORE PUSH2 0xB92 DUP2 DUP5 PUSH2 0xA20 JUMP JUMPDEST SWAP1 POP SWAP3 SWAP2 POP POP JUMP JUMPDEST PUSH1 0x0 PUSH1 0x20 DUP3 ADD SWAP1 POP DUP2 DUP2 SUB PUSH1 0x0 DUP4 ADD MSTORE PUSH2 0xBB3 DUP2 PUSH2 0xA59 JUMP JUMPDEST SWAP1 POP SWAP2 SWAP1 POP JUMP JUMPDEST PUSH1 0x0 PUSH1 0x40 DUP3 ADD SWAP1 POP DUP2 DUP2 SUB PUSH1 0x0 DUP4 ADD MSTORE PUSH2 0xBD3 DUP2 PUSH2 0xA7C JUMP JUMPDEST SWAP1 POP PUSH2 0xBE2 PUSH1 0x20 DUP4 ADD DUP5 PUSH2 0xA9F JUMP JUMPDEST SWAP3 SWAP2 POP POP JUMP JUMPDEST PUSH1 0x0 PUSH1 0x20 DUP3 ADD SWAP1 POP PUSH2 0xBFD PUSH1 0x0 DUP4 ADD DUP5 PUSH2 0xA9F JUMP JUMPDEST SWAP3 SWAP2 POP POP JUMP JUMPDEST PUSH1 0x0 PUSH2 0xC0D PUSH2 0xC1E JUMP JUMPDEST SWAP1 POP PUSH2 0xC19 DUP3 DUP3 PUSH2 0xD59 JUMP JUMPDEST SWAP2 SWAP1 POP JUMP JUMPDEST PUSH1 0x0 PUSH1 0x40 MLOAD SWAP1 POP SWAP1 JUMP JUMPDEST PUSH1 0x0 PUSH8 0xFFFFFFFFFFFFFFFF DUP3 GT ISZERO PUSH2 0xC43 JUMPI PUSH2 0xC42 PUSH2 0xECA JUMP JUMPDEST JUMPDEST PUSH2 0xC4C DUP3 PUSH2 0xF0D JUMP JUMPDEST SWAP1 POP PUSH1 0x20 DUP2 ADD SWAP1 POP SWAP2 SWAP1 POP JUMP JUMPDEST PUSH1 0x0 DUP2 MLOAD SWAP1 POP SWAP2 SWAP1 POP JUMP JUMPDEST PUSH1 0x0 DUP3 DUP3 MSTORE PUSH1 0x20 DUP3 ADD SWAP1 POP SWAP3 SWAP2 POP POP JUMP JUMPDEST PUSH1 0x0 PUSH2 0xC80 DUP3 PUSH2 0xCDB JUMP JUMPDEST SWAP2 POP PUSH2 0xC8B DUP4 PUSH2 0xCDB JUMP JUMPDEST SWAP3 POP DUP3 DUP3 LT ISZERO PUSH2 0xC9E JUMPI PUSH2 0xC9D PUSH2 0xE0E JUMP JUMPDEST JUMPDEST DUP3 DUP3 SUB SWAP1 POP SWAP3 SWAP2 POP POP JUMP JUMPDEST PUSH1 0x0 PUSH2 0xCB4 DUP3 PUSH2 0xCBB JUMP JUMPDEST SWAP1 POP SWAP2 SWAP1 POP JUMP JUMPDEST PUSH1 0x0 PUSH20 0xFFFFFFFFFFFFFFFFFFFFFFFFFFFFFFFFFFFFFFFF DUP3 AND SWAP1 POP SWAP2 SWAP1 POP JUMP JUMPDEST PUSH1 0x0 DUP2 SWAP1 POP SWAP2 SWAP1 POP JUMP JUMPDEST DUP3 DUP2 DUP4 CALLDATACOPY PUSH1 0x0 DUP4 DUP4 ADD MSTORE POP POP POP JUMP JUMPDEST PUSH1 0x0 JUMPDEST DUP4 DUP2 LT ISZERO PUSH2 0xD12 JUMPI DUP1 DUP3 ADD MLOAD DUP2 DUP5 ADD MSTORE PUSH1 0x20 DUP2 ADD SWAP1 POP PUSH2 0xCF7 JUMP JUMPDEST DUP4 DUP2 GT ISZERO PUSH2 0xD21 JUMPI PUSH1 0x0 DUP5 DUP5 ADD MSTORE JUMPDEST POP POP POP POP JUMP JUMPDEST PUSH1 0x0 PUSH1 0x2 DUP3 DIV SWAP1 POP PUSH1 0x1 DUP3 AND DUP1 PUSH2 0xD3F JUMPI PUSH1 0x7F DUP3 AND SWAP2 POP JUMPDEST PUSH1 0x20 DUP3 LT DUP2 EQ ISZERO PUSH2 0xD53 JUMPI PUSH2 0xD52 PUSH2 0xE6C JUMP JUMPDEST JUMPDEST POP SWAP2 SWAP1 POP JUMP JUMPDEST PUSH2 0xD62 DUP3 PUSH2 0xF0D JUMP JUMPDEST DUP2 ADD DUP2 DUP2 LT PUSH8 0xFFFFFFFFFFFFFFFF DUP3 GT OR ISZERO PUSH2 0xD81 JUMPI PUSH2 0xD80 PUSH2 0xECA JUMP JUMPDEST JUMPDEST DUP1 PUSH1 0x40 MSTORE POP POP POP JUMP JUMPDEST PUSH1 0x0 PUSH2 0xD95 DUP3 PUSH2 0xCDB JUMP JUMPDEST SWAP2 POP PUSH32 0xFFFFFFFFFFFFFFFFFFFFFFFFFFFFFFFFFFFFFFFFFFFFFFFFFFFFFFFFFFFFFFFF DUP3 EQ ISZERO PUSH2 0xDC8 JUMPI PUSH2 0xDC7 PUSH2 0xE0E JUMP JUMPDEST JUMPDEST PUSH1 0x1 DUP3 ADD SWAP1 POP SWAP2 SWAP1 POP JUMP JUMPDEST PUSH1 0x0 DUP2 SWAP1 POP SWAP2 SWAP1 POP JUMP JUMPDEST PUSH1 0x0 PUSH2 0xDE8 DUP3 PUSH2 0xCDB JUMP JUMPDEST SWAP2 POP PUSH2 0xDF3 DUP4 PUSH2 0xCDB JUMP JUMPDEST SWAP3 POP DUP3 PUSH2 0xE03 JUMPI PUSH2 0xE02 PUSH2 0xE3D JUMP JUMPDEST JUMPDEST DUP3 DUP3 MOD SWAP1 POP SWAP3 SWAP2 POP POP JUMP JUMPDEST PUSH32 0x4E487B7100000000000000000000000000000000000000000000000000000000 PUSH1 0x0 MSTORE PUSH1 0x11 PUSH1 0x4 MSTORE PUSH1 0x24 PUSH1 0x0 REVERT JUMPDEST PUSH32 0x4E487B7100000000000000000000000000000000000000000000000000000000 PUSH1 0x0 MSTORE PUSH1 0x12 PUSH1 0x4 MSTORE PUSH1 0x24 PUSH1 0x0 REVERT JUMPDEST PUSH32 0x4E487B7100000000000000000000000000000000000000000000000000000000 PUSH1 0x0 MSTORE PUSH1 0x22 PUSH1 0x4 MSTORE PUSH1 0x24 PUSH1 0x0 REVERT JUMPDEST PUSH32 0x4E487B7100000000000000000000000000000000000000000000000000000000 PUSH1 0x0 MSTORE PUSH1 0x32 PUSH1 0x4 MSTORE PUSH1 0x24 PUSH1 0x0 REVERT JUMPDEST PUSH32 0x4E487B7100000000000000000000000000000000000000000000000000000000 PUSH1 0x0 MSTORE PUSH1 0x41 PUSH1 0x4 MSTORE PUSH1 0x24 PUSH1 0x0 REVERT JUMPDEST PUSH1 0x0 DUP1 REVERT JUMPDEST PUSH1 0x0 DUP1 REVERT JUMPDEST PUSH1 0x0 DUP1 REVERT JUMPDEST PUSH1 0x0 DUP1 REVERT JUMPDEST PUSH1 0x0 PUSH1 0x1F NOT PUSH1 0x1F DUP4 ADD AND SWAP1 POP SWAP2 SWAP1 POP JUMP JUMPDEST PUSH32 0x536F6C6F2073652070756564652074656E657220756E20636F63686520706F72 PUSH1 0x0 DUP3 ADD MSTORE PUSH32 0x20706572736F6E61000000000000000000000000000000000000000000000000 PUSH1 0x20 DUP3 ADD MSTORE POP JUMP JUMPDEST PUSH32 0x456C20636F6368652067616E61646F722065733A200000000000000000000000 PUSH1 0x0 DUP3 ADD MSTORE POP JUMP JUMPDEST PUSH2 0xF9F DUP2 PUSH2 0xCA9 JUMP JUMPDEST DUP2 EQ PUSH2 0xFAA JUMPI PUSH1 0x0 DUP1 REVERT JUMPDEST POP JUMP JUMPDEST PUSH2 0xFB6 DUP2 PUSH2 0xCDB JUMP JUMPDEST DUP2 EQ PUSH2 0xFC1 JUMPI PUSH1 0x0 DUP1 REVERT JUMPDEST POP JUMP INVALID LOG2 PUSH5 0x6970667358 0x22 SLT KECCAK256 0xE3 SHL JUMPI 0xBD PUSH1 0x9C EXTCODEHASH 0x5E SWAP12 REVERT 0xEA PC LOG4 0xA9 COINBASE DUP16 0x4F 0x2F PUSH28 0xA6DE4D80B8753B5B0B26B0F1E764736F6C6343000807003300000000 "
				},
				"gasEstimates": {
					"creation": {
						"codeDepositCost": "818000",
						"executionCost": "10863",
						"totalCost": "828863"
					},
					"external": {
						"Apostar(uint256)": "infinite",
						"anadirCoche(string,string,string)": "infinite",
						"listaCoches(uint256)": "infinite",
						"numeroCochesPersona(address)": "2792"
					},
					"internal": {
						"balance()": "infinite"
					}
				},
				"methodIdentifiers": {
					"Apostar(uint256)": "6b6f0494",
					"anadirCoche(string,string,string)": "2458c544",
					"listaCoches(uint256)": "d735573d",
					"numeroCochesPersona(address)": "1c6743e4"
				}
			},
			"storageLayout": {
				"storage": [
					{
						"astId": 17,
						"contract": "contracts/CarreraCoches/main.sol:CarreraCoches",
						"label": "randNonce",
						"offset": 0,
						"slot": "0",
						"type": "t_uint256"
					},
					{
						"astId": 20,
						"contract": "contracts/CarreraCoches/main.sol:CarreraCoches",
						"label": "contador",
						"offset": 0,
						"slot": "1",
						"type": "t_uint256"
					},
					{
						"astId": 24,
						"contract": "contracts/CarreraCoches/main.sol:CarreraCoches",
						"label": "listaCoches",
						"offset": 0,
						"slot": "2",
						"type": "t_array(t_struct(Coche)14_storage)dyn_storage"
					},
					{
						"astId": 34,
						"contract": "contracts/CarreraCoches/main.sol:CarreraCoches",
						"label": "numeroCochesPersona",
						"offset": 0,
						"slot": "3",
						"type": "t_mapping(t_address,t_uint256)"
					}
				],
				"types": {
					"t_address": {
						"encoding": "inplace",
						"label": "address",
						"numberOfBytes": "20"
					},
					"t_array(t_struct(Coche)14_storage)dyn_storage": {
						"base": "t_struct(Coche)14_storage",
						"encoding": "dynamic_array",
						"label": "struct CarreraCoches.Coche[]",
						"numberOfBytes": "32"
					},
					"t_mapping(t_address,t_uint256)": {
						"encoding": "mapping",
						"key": "t_address",
						"label": "mapping(address => uint256)",
						"numberOfBytes": "32",
						"value": "t_uint256"
					},
					"t_string_storage": {
						"encoding": "bytes",
						"label": "string",
						"numberOfBytes": "32"
					},
					"t_struct(Coche)14_storage": {
						"encoding": "inplace",
						"label": "struct CarreraCoches.Coche",
						"members": [
							{
								"astId": 3,
								"contract": "contracts/CarreraCoches/main.sol:CarreraCoches",
								"label": "idPiloto",
								"offset": 0,
								"slot": "0",
								"type": "t_address"
							},
							{
								"astId": 5,
								"contract": "contracts/CarreraCoches/main.sol:CarreraCoches",
								"label": "modelo",
								"offset": 0,
								"slot": "1",
								"type": "t_string_storage"
							},
							{
								"astId": 7,
								"contract": "contracts/CarreraCoches/main.sol:CarreraCoches",
								"label": "marca",
								"offset": 0,
								"slot": "2",
								"type": "t_string_storage"
							},
							{
								"astId": 9,
								"contract": "contracts/CarreraCoches/main.sol:CarreraCoches",
								"label": "nombrePiloto",
								"offset": 0,
								"slot": "3",
								"type": "t_string_storage"
							},
							{
								"astId": 11,
								"contract": "contracts/CarreraCoches/main.sol:CarreraCoches",
								"label": "carrerasGanadas",
								"offset": 0,
								"slot": "4",
								"type": "t_uint256"
							},
							{
								"astId": 13,
								"contract": "contracts/CarreraCoches/main.sol:CarreraCoches",
								"label": "carrerasTotales",
								"offset": 0,
								"slot": "5",
								"type": "t_uint256"
							}
						],
						"numberOfBytes": "192"
					},
					"t_uint256": {
						"encoding": "inplace",
						"label": "uint256",
						"numberOfBytes": "32"
					}
				}
			},
			"userdoc": {
				"kind": "user",
				"methods": {},
				"version": 1
			}
		}
	}
}