{
	"contracts/CarreraCoches/main.sol": {
		"CarreraCoches": {
			"abi": [
				{
					"anonymous": false,
					"inputs": [
						{
							"indexed": true,
							"internalType": "address",
							"name": "previousOwner",
							"type": "address"
						},
						{
							"indexed": true,
							"internalType": "address",
							"name": "newOwner",
							"type": "address"
						}
					],
					"name": "OwnershipTransferred",
					"type": "event"
				},
				{
					"anonymous": false,
					"inputs": [
						{
							"indexed": false,
							"internalType": "uint256",
							"name": "compr",
							"type": "uint256"
						}
					],
					"name": "comprobar",
					"type": "event"
				},
				{
					"anonymous": false,
					"inputs": [
						{
							"indexed": false,
							"internalType": "string",
							"name": "ms",
							"type": "string"
						}
					],
					"name": "confirmacionDepositoLleno",
					"type": "event"
				},
				{
					"anonymous": false,
					"inputs": [
						{
							"indexed": false,
							"internalType": "string",
							"name": "ms",
							"type": "string"
						},
						{
							"indexed": false,
							"internalType": "uint256",
							"name": "res",
							"type": "uint256"
						}
					],
					"name": "mostrarResultado",
					"type": "event"
				},
				{
					"inputs": [
						{
							"internalType": "uint256",
							"name": "dineroApostar",
							"type": "uint256"
						}
					],
					"name": "Apostar",
					"outputs": [
						{
							"internalType": "string",
							"name": "",
							"type": "string"
						}
					],
					"stateMutability": "payable",
					"type": "function"
				},
				{
					"inputs": [
						{
							"internalType": "string",
							"name": "_modelo",
							"type": "string"
						},
						{
							"internalType": "string",
							"name": "_marca",
							"type": "string"
						},
						{
							"internalType": "string",
							"name": "_nombrePiloto",
							"type": "string"
						}
					],
					"name": "anadirCoche",
					"outputs": [
						{
							"internalType": "uint256",
							"name": "",
							"type": "uint256"
						}
					],
					"stateMutability": "nonpayable",
					"type": "function"
				},
				{
					"inputs": [
						{
							"internalType": "uint256",
							"name": "",
							"type": "uint256"
						}
					],
					"name": "listaCoches",
					"outputs": [
						{
							"internalType": "address",
							"name": "idPiloto",
							"type": "address"
						},
						{
							"internalType": "string",
							"name": "modelo",
							"type": "string"
						},
						{
							"internalType": "string",
							"name": "marca",
							"type": "string"
						},
						{
							"internalType": "string",
							"name": "nombrePiloto",
							"type": "string"
						},
						{
							"internalType": "uint256",
							"name": "carrerasGanadas",
							"type": "uint256"
						},
						{
							"internalType": "uint256",
							"name": "carrerasTotales",
							"type": "uint256"
						},
						{
							"internalType": "uint256",
							"name": "tiempoEspera",
							"type": "uint256"
						}
					],
					"stateMutability": "view",
					"type": "function"
				},
				{
					"inputs": [],
					"name": "numeroAleatorio",
					"outputs": [
						{
							"internalType": "uint256",
							"name": "",
							"type": "uint256"
						}
					],
					"stateMutability": "nonpayable",
					"type": "function"
				},
				{
					"inputs": [
						{
							"internalType": "address",
							"name": "",
							"type": "address"
						}
					],
					"name": "numeroCochesPersona",
					"outputs": [
						{
							"internalType": "uint256",
							"name": "",
							"type": "uint256"
						}
					],
					"stateMutability": "view",
					"type": "function"
				},
				{
					"inputs": [],
					"name": "owner",
					"outputs": [
						{
							"internalType": "address",
							"name": "",
							"type": "address"
						}
					],
					"stateMutability": "view",
					"type": "function"
				},
				{
					"inputs": [],
					"name": "renounceOwnership",
					"outputs": [],
					"stateMutability": "nonpayable",
					"type": "function"
				},
				{
					"inputs": [
						{
							"internalType": "address",
							"name": "newOwner",
							"type": "address"
						}
					],
					"name": "transferOwnership",
					"outputs": [],
					"stateMutability": "nonpayable",
					"type": "function"
				}
			],
			"devdoc": {
				"kind": "dev",
				"methods": {
					"owner()": {
						"details": "Returns the address of the current owner."
					},
					"renounceOwnership()": {
						"details": "Leaves the contract without owner. It will not be possible to call `onlyOwner` functions anymore. Can only be called by the current owner. NOTE: Renouncing ownership will leave the contract without an owner, thereby removing any functionality that is only available to the owner."
					},
					"transferOwnership(address)": {
						"details": "Transfers ownership of the contract to a new account (`newOwner`). Can only be called by the current owner."
					}
				},
				"version": 1
			},
			"evm": {
				"assembly": "    /* \"contracts/CarreraCoches/main.sol\":54:3662  contract CarreraCoches is Ownable {\r... */\n  mstore(0x40, 0x80)\n    /* \"contracts/CarreraCoches/main.sol\":347:348  0 */\n  0x00\n    /* \"contracts/CarreraCoches/main.sol\":330:348  uint randNonce = 0 */\n  0x01\n  sstore\n    /* \"contracts/CarreraCoches/main.sol\":471:472  0 */\n  0x00\n    /* \"contracts/CarreraCoches/main.sol\":455:472  uint contador = 0 */\n  0x02\n  sstore\n    /* \"contracts/CarreraCoches/main.sol\":495:505  60 seconds */\n  0x3c\n    /* \"contracts/CarreraCoches/main.sol\":479:505  uint cooldown = 60 seconds */\n  0x03\n  sstore\n    /* \"contracts/CarreraCoches/main.sol\":54:3662  contract CarreraCoches is Ownable {\r... */\n  callvalue\n  dup1\n  iszero\n  tag_1\n  jumpi\n  0x00\n  dup1\n  revert\ntag_1:\n  pop\n    /* \"contracts/CarreraCoches/ownable.sol\":948:980  _transferOwnership(_msgSender()) */\n  tag_4\n    /* \"contracts/CarreraCoches/ownable.sol\":967:979  _msgSender() */\n  tag_5\n    /* \"contracts/CarreraCoches/ownable.sol\":967:977  _msgSender */\n  shl(0x20, tag_6)\n    /* \"contracts/CarreraCoches/ownable.sol\":967:979  _msgSender() */\n  0x20\n  shr\n  jump\t// in\ntag_5:\n    /* \"contracts/CarreraCoches/ownable.sol\":948:966  _transferOwnership */\n  shl(0x20, tag_7)\n    /* \"contracts/CarreraCoches/ownable.sol\":948:980  _transferOwnership(_msgSender()) */\n  0x20\n  shr\n  jump\t// in\ntag_4:\n    /* \"contracts/CarreraCoches/main.sol\":54:3662  contract CarreraCoches is Ownable {\r... */\n  jump(tag_8)\n    /* \"contracts/CarreraCoches/utils/Context.sol\":656:754  function _msgSender() internal view virtual returns (address) {\r... */\ntag_6:\n    /* \"contracts/CarreraCoches/utils/Context.sol\":709:716  address */\n  0x00\n    /* \"contracts/CarreraCoches/utils/Context.sol\":736:746  msg.sender */\n  caller\n    /* \"contracts/CarreraCoches/utils/Context.sol\":729:746  return msg.sender */\n  swap1\n  pop\n    /* \"contracts/CarreraCoches/utils/Context.sol\":656:754  function _msgSender() internal view virtual returns (address) {\r... */\n  swap1\n  jump\t// out\n    /* \"contracts/CarreraCoches/ownable.sol\":2339:2530  function _transferOwnership(address newOwner) internal virtual {\r... */\ntag_7:\n    /* \"contracts/CarreraCoches/ownable.sol\":2413:2429  address oldOwner */\n  0x00\n    /* \"contracts/CarreraCoches/ownable.sol\":2432:2438  _owner */\n  dup1\n  0x00\n  swap1\n  sload\n  swap1\n  0x0100\n  exp\n  swap1\n  div\n  0xffffffffffffffffffffffffffffffffffffffff\n  and\n    /* \"contracts/CarreraCoches/ownable.sol\":2413:2438  address oldOwner = _owner */\n  swap1\n  pop\n    /* \"contracts/CarreraCoches/ownable.sol\":2458:2466  newOwner */\n  dup2\n    /* \"contracts/CarreraCoches/ownable.sol\":2449:2455  _owner */\n  0x00\n  dup1\n    /* \"contracts/CarreraCoches/ownable.sol\":2449:2466  _owner = newOwner */\n  0x0100\n  exp\n  dup2\n  sload\n  dup2\n  0xffffffffffffffffffffffffffffffffffffffff\n  mul\n  not\n  and\n  swap1\n  dup4\n  0xffffffffffffffffffffffffffffffffffffffff\n  and\n  mul\n  or\n  swap1\n  sstore\n  pop\n    /* \"contracts/CarreraCoches/ownable.sol\":2513:2521  newOwner */\n  dup2\n    /* \"contracts/CarreraCoches/ownable.sol\":2482:2522  OwnershipTransferred(oldOwner, newOwner) */\n  0xffffffffffffffffffffffffffffffffffffffff\n  and\n    /* \"contracts/CarreraCoches/ownable.sol\":2503:2511  oldOwner */\n  dup2\n    /* \"contracts/CarreraCoches/ownable.sol\":2482:2522  OwnershipTransferred(oldOwner, newOwner) */\n  0xffffffffffffffffffffffffffffffffffffffff\n  and\n  0x8be0079c531659141344cd1fd0a4f28419497f9722a3daafe3b4186f6b6457e0\n  mload(0x40)\n  mload(0x40)\n  dup1\n  swap2\n  sub\n  swap1\n  log3\n    /* \"contracts/CarreraCoches/ownable.sol\":2402:2530  {\r... */\n  pop\n    /* \"contracts/CarreraCoches/ownable.sol\":2339:2530  function _transferOwnership(address newOwner) internal virtual {\r... */\n  pop\n  jump\t// out\n    /* \"contracts/CarreraCoches/main.sol\":54:3662  contract CarreraCoches is Ownable {\r... */\ntag_8:\n  dataSize(sub_0)\n  dup1\n  dataOffset(sub_0)\n  0x00\n  codecopy\n  0x00\n  return\nstop\n\nsub_0: assembly {\n        /* \"contracts/CarreraCoches/main.sol\":54:3662  contract CarreraCoches is Ownable {\r... */\n      mstore(0x40, 0x80)\n      jumpi(tag_1, lt(calldatasize, 0x04))\n      shr(0xe0, calldataload(0x00))\n      dup1\n      0x8da5cb5b\n      gt\n      tag_10\n      jumpi\n      dup1\n      0x8da5cb5b\n      eq\n      tag_6\n      jumpi\n      dup1\n      0xd735573d\n      eq\n      tag_7\n      jumpi\n      dup1\n      0xf1413763\n      eq\n      tag_8\n      jumpi\n      dup1\n      0xf2fde38b\n      eq\n      tag_9\n      jumpi\n      jump(tag_1)\n    tag_10:\n      dup1\n      0x1c6743e4\n      eq\n      tag_2\n      jumpi\n      dup1\n      0x2458c544\n      eq\n      tag_3\n      jumpi\n      dup1\n      0x6b6f0494\n      eq\n      tag_4\n      jumpi\n      dup1\n      0x715018a6\n      eq\n      tag_5\n      jumpi\n    tag_1:\n      0x00\n      dup1\n      revert\n        /* \"contracts/CarreraCoches/main.sol\":684:736  mapping (address => uint) public numeroCochesPersona */\n    tag_2:\n      callvalue\n      dup1\n      iszero\n      tag_11\n      jumpi\n      0x00\n      dup1\n      revert\n    tag_11:\n      pop\n      tag_12\n      0x04\n      dup1\n      calldatasize\n      sub\n      dup2\n      add\n      swap1\n      tag_13\n      swap2\n      swap1\n      tag_14\n      jump\t// in\n    tag_13:\n      tag_15\n      jump\t// in\n    tag_12:\n      mload(0x40)\n      tag_16\n      swap2\n      swap1\n      tag_17\n      jump\t// in\n    tag_16:\n      mload(0x40)\n      dup1\n      swap2\n      sub\n      swap1\n      return\n        /* \"contracts/CarreraCoches/main.sol\":979:1331  function anadirCoche(string memory _modelo, string memory _marca, string memory _nombrePiloto) public restriccion returns (uint) {\r... */\n    tag_3:\n      callvalue\n      dup1\n      iszero\n      tag_18\n      jumpi\n      0x00\n      dup1\n      revert\n    tag_18:\n      pop\n      tag_19\n      0x04\n      dup1\n      calldatasize\n      sub\n      dup2\n      add\n      swap1\n      tag_20\n      swap2\n      swap1\n      tag_21\n      jump\t// in\n    tag_20:\n      tag_22\n      jump\t// in\n    tag_19:\n      mload(0x40)\n      tag_23\n      swap2\n      swap1\n      tag_17\n      jump\t// in\n    tag_23:\n      mload(0x40)\n      dup1\n      swap2\n      sub\n      swap1\n      return\n        /* \"contracts/CarreraCoches/main.sol\":2217:3423  function Apostar(uint dineroApostar) public payable returns(string memory) {\r... */\n    tag_4:\n      tag_24\n      0x04\n      dup1\n      calldatasize\n      sub\n      dup2\n      add\n      swap1\n      tag_25\n      swap2\n      swap1\n      tag_26\n      jump\t// in\n    tag_25:\n      tag_27\n      jump\t// in\n    tag_24:\n      mload(0x40)\n      tag_28\n      swap2\n      swap1\n      tag_29\n      jump\t// in\n    tag_28:\n      mload(0x40)\n      dup1\n      swap2\n      sub\n      swap1\n      return\n        /* \"contracts/CarreraCoches/ownable.sol\":1720:1823  function renounceOwnership() public virtual onlyOwner {\r... */\n    tag_5:\n      callvalue\n      dup1\n      iszero\n      tag_30\n      jumpi\n      0x00\n      dup1\n      revert\n    tag_30:\n      pop\n      tag_31\n      tag_32\n      jump\t// in\n    tag_31:\n      stop\n        /* \"contracts/CarreraCoches/ownable.sol\":1069:1156  function owner() public view virtual returns (address) {\r... */\n    tag_6:\n      callvalue\n      dup1\n      iszero\n      tag_33\n      jumpi\n      0x00\n      dup1\n      revert\n    tag_33:\n      pop\n      tag_34\n      tag_35\n      jump\t// in\n    tag_34:\n      mload(0x40)\n      tag_36\n      swap2\n      swap1\n      tag_37\n      jump\t// in\n    tag_36:\n      mload(0x40)\n      dup1\n      swap2\n      sub\n      swap1\n      return\n        /* \"contracts/CarreraCoches/main.sol\":514:540  Coche[] public listaCoches */\n    tag_7:\n      callvalue\n      dup1\n      iszero\n      tag_38\n      jumpi\n      0x00\n      dup1\n      revert\n    tag_38:\n      pop\n      tag_39\n      0x04\n      dup1\n      calldatasize\n      sub\n      dup2\n      add\n      swap1\n      tag_40\n      swap2\n      swap1\n      tag_26\n      jump\t// in\n    tag_40:\n      tag_41\n      jump\t// in\n    tag_39:\n      mload(0x40)\n      tag_42\n      swap8\n      swap7\n      swap6\n      swap5\n      swap4\n      swap3\n      swap2\n      swap1\n      tag_43\n      jump\t// in\n    tag_42:\n      mload(0x40)\n      dup1\n      swap2\n      sub\n      swap1\n      return\n        /* \"contracts/CarreraCoches/main.sol\":1661:1880  function numeroAleatorio() public returns (uint256) {\r... */\n    tag_8:\n      callvalue\n      dup1\n      iszero\n      tag_44\n      jumpi\n      0x00\n      dup1\n      revert\n    tag_44:\n      pop\n      tag_45\n      tag_46\n      jump\t// in\n    tag_45:\n      mload(0x40)\n      tag_47\n      swap2\n      swap1\n      tag_17\n      jump\t// in\n    tag_47:\n      mload(0x40)\n      dup1\n      swap2\n      sub\n      swap1\n      return\n        /* \"contracts/CarreraCoches/ownable.sol\":1978:2179  function transferOwnership(address newOwner) public virtual onlyOwner {\r... */\n    tag_9:\n      callvalue\n      dup1\n      iszero\n      tag_48\n      jumpi\n      0x00\n      dup1\n      revert\n    tag_48:\n      pop\n      tag_49\n      0x04\n      dup1\n      calldatasize\n      sub\n      dup2\n      add\n      swap1\n      tag_50\n      swap2\n      swap1\n      tag_14\n      jump\t// in\n    tag_50:\n      tag_51\n      jump\t// in\n    tag_49:\n      stop\n        /* \"contracts/CarreraCoches/main.sol\":684:736  mapping (address => uint) public numeroCochesPersona */\n    tag_15:\n      mstore(0x20, 0x05)\n      dup1\n      0x00\n      mstore\n      keccak256(0x00, 0x40)\n      0x00\n      swap2\n      pop\n      swap1\n      pop\n      sload\n      dup2\n      jump\t// out\n        /* \"contracts/CarreraCoches/main.sol\":979:1331  function anadirCoche(string memory _modelo, string memory _marca, string memory _nombrePiloto) public restriccion returns (uint) {\r... */\n    tag_22:\n        /* \"contracts/CarreraCoches/main.sol\":1102:1106  uint */\n      0x00\n        /* \"contracts/CarreraCoches/main.sol\":868:869  1 */\n      0x01\n        /* \"contracts/CarreraCoches/main.sol\":834:853  numeroCochesPersona */\n      0x05\n        /* \"contracts/CarreraCoches/main.sol\":834:865  numeroCochesPersona[msg.sender] */\n      0x00\n        /* \"contracts/CarreraCoches/main.sol\":854:864  msg.sender */\n      caller\n        /* \"contracts/CarreraCoches/main.sol\":834:865  numeroCochesPersona[msg.sender] */\n      0xffffffffffffffffffffffffffffffffffffffff\n      and\n      0xffffffffffffffffffffffffffffffffffffffff\n      and\n      dup2\n      mstore\n      0x20\n      add\n      swap1\n      dup2\n      mstore\n      0x20\n      add\n      0x00\n      keccak256\n      sload\n        /* \"contracts/CarreraCoches/main.sol\":834:869  numeroCochesPersona[msg.sender] < 1 */\n      lt\n        /* \"contracts/CarreraCoches/main.sol\":826:914  require(numeroCochesPersona[msg.sender] < 1, \"Solo se puede tener un coche por persona\") */\n      tag_53\n      jumpi\n      mload(0x40)\n      0x08c379a000000000000000000000000000000000000000000000000000000000\n      dup2\n      mstore\n      0x04\n      add\n      tag_54\n      swap1\n      tag_55\n      jump\t// in\n    tag_54:\n      mload(0x40)\n      dup1\n      swap2\n      sub\n      swap1\n      revert\n    tag_53:\n        /* \"contracts/CarreraCoches/main.sol\":1119:1130  listaCoches */\n      0x04\n        /* \"contracts/CarreraCoches/main.sol\":1136:1227  Coche(msg.sender, _modelo, _marca, _nombrePiloto, 0, 0, uint32(block.timestamp + cooldown)) */\n      mload(0x40)\n      dup1\n      0xe0\n      add\n      0x40\n      mstore\n      dup1\n        /* \"contracts/CarreraCoches/main.sol\":1142:1152  msg.sender */\n      caller\n        /* \"contracts/CarreraCoches/main.sol\":1136:1227  Coche(msg.sender, _modelo, _marca, _nombrePiloto, 0, 0, uint32(block.timestamp + cooldown)) */\n      0xffffffffffffffffffffffffffffffffffffffff\n      and\n      dup2\n      mstore\n      0x20\n      add\n        /* \"contracts/CarreraCoches/main.sol\":1154:1161  _modelo */\n      dup7\n        /* \"contracts/CarreraCoches/main.sol\":1136:1227  Coche(msg.sender, _modelo, _marca, _nombrePiloto, 0, 0, uint32(block.timestamp + cooldown)) */\n      dup2\n      mstore\n      0x20\n      add\n        /* \"contracts/CarreraCoches/main.sol\":1163:1169  _marca */\n      dup6\n        /* \"contracts/CarreraCoches/main.sol\":1136:1227  Coche(msg.sender, _modelo, _marca, _nombrePiloto, 0, 0, uint32(block.timestamp + cooldown)) */\n      dup2\n      mstore\n      0x20\n      add\n        /* \"contracts/CarreraCoches/main.sol\":1171:1184  _nombrePiloto */\n      dup5\n        /* \"contracts/CarreraCoches/main.sol\":1136:1227  Coche(msg.sender, _modelo, _marca, _nombrePiloto, 0, 0, uint32(block.timestamp + cooldown)) */\n      dup2\n      mstore\n      0x20\n      add\n        /* \"contracts/CarreraCoches/main.sol\":1186:1187  0 */\n      0x00\n        /* \"contracts/CarreraCoches/main.sol\":1136:1227  Coche(msg.sender, _modelo, _marca, _nombrePiloto, 0, 0, uint32(block.timestamp + cooldown)) */\n      dup2\n      mstore\n      0x20\n      add\n        /* \"contracts/CarreraCoches/main.sol\":1189:1190  0 */\n      0x00\n        /* \"contracts/CarreraCoches/main.sol\":1136:1227  Coche(msg.sender, _modelo, _marca, _nombrePiloto, 0, 0, uint32(block.timestamp + cooldown)) */\n      dup2\n      mstore\n      0x20\n      add\n        /* \"contracts/CarreraCoches/main.sol\":1217:1225  cooldown */\n      sload(0x03)\n        /* \"contracts/CarreraCoches/main.sol\":1199:1214  block.timestamp */\n      timestamp\n        /* \"contracts/CarreraCoches/main.sol\":1199:1225  block.timestamp + cooldown */\n      tag_57\n      swap2\n      swap1\n      tag_58\n      jump\t// in\n    tag_57:\n        /* \"contracts/CarreraCoches/main.sol\":1136:1227  Coche(msg.sender, _modelo, _marca, _nombrePiloto, 0, 0, uint32(block.timestamp + cooldown)) */\n      0xffffffff\n      and\n      dup2\n      mstore\n      pop\n        /* \"contracts/CarreraCoches/main.sol\":1119:1228  listaCoches.push(Coche(msg.sender, _modelo, _marca, _nombrePiloto, 0, 0, uint32(block.timestamp + cooldown))) */\n      swap1\n      dup1\n      0x01\n      dup2\n      sload\n      add\n      dup1\n      dup3\n      sstore\n      dup1\n      swap2\n      pop\n      pop\n      0x01\n      swap1\n      sub\n      swap1\n      0x00\n      mstore\n      keccak256(0x00, 0x20)\n      swap1\n      0x07\n      mul\n      add\n      0x00\n      swap1\n      swap2\n      swap1\n      swap2\n      swap1\n      swap2\n      pop\n      0x00\n      dup3\n      add\n      mload\n      dup2\n      0x00\n      add\n      exp(0x0100, 0x00)\n      dup2\n      sload\n      dup2\n      0xffffffffffffffffffffffffffffffffffffffff\n      mul\n      not\n      and\n      swap1\n      dup4\n      0xffffffffffffffffffffffffffffffffffffffff\n      and\n      mul\n      or\n      swap1\n      sstore\n      pop\n      0x20\n      dup3\n      add\n      mload\n      dup2\n      0x01\n      add\n      swap1\n      dup1\n      mload\n      swap1\n      0x20\n      add\n      swap1\n      tag_60\n      swap3\n      swap2\n      swap1\n      tag_61\n      jump\t// in\n    tag_60:\n      pop\n      0x40\n      dup3\n      add\n      mload\n      dup2\n      0x02\n      add\n      swap1\n      dup1\n      mload\n      swap1\n      0x20\n      add\n      swap1\n      tag_62\n      swap3\n      swap2\n      swap1\n      tag_61\n      jump\t// in\n    tag_62:\n      pop\n      0x60\n      dup3\n      add\n      mload\n      dup2\n      0x03\n      add\n      swap1\n      dup1\n      mload\n      swap1\n      0x20\n      add\n      swap1\n      tag_63\n      swap3\n      swap2\n      swap1\n      tag_61\n      jump\t// in\n    tag_63:\n      pop\n      0x80\n      dup3\n      add\n      mload\n      dup2\n      0x04\n      add\n      sstore\n      0xa0\n      dup3\n      add\n      mload\n      dup2\n      0x05\n      add\n      sstore\n      0xc0\n      dup3\n      add\n      mload\n      dup2\n      0x06\n      add\n      sstore\n      pop\n      pop\n        /* \"contracts/CarreraCoches/main.sol\":1239:1258  numeroCochesPersona */\n      0x05\n        /* \"contracts/CarreraCoches/main.sol\":1239:1270  numeroCochesPersona[msg.sender] */\n      0x00\n        /* \"contracts/CarreraCoches/main.sol\":1259:1269  msg.sender */\n      caller\n        /* \"contracts/CarreraCoches/main.sol\":1239:1270  numeroCochesPersona[msg.sender] */\n      0xffffffffffffffffffffffffffffffffffffffff\n      and\n      0xffffffffffffffffffffffffffffffffffffffff\n      and\n      dup2\n      mstore\n      0x20\n      add\n      swap1\n      dup2\n      mstore\n      0x20\n      add\n      0x00\n      keccak256\n      0x00\n        /* \"contracts/CarreraCoches/main.sol\":1239:1272  numeroCochesPersona[msg.sender]++ */\n      dup2\n      sload\n      dup1\n      swap3\n      swap2\n      swap1\n      tag_64\n      swap1\n      tag_65\n      jump\t// in\n    tag_64:\n      swap2\n      swap1\n      pop\n      sstore\n      pop\n        /* \"contracts/CarreraCoches/main.sol\":1283:1291  contador */\n      0x02\n      0x00\n        /* \"contracts/CarreraCoches/main.sol\":1283:1293  contador++ */\n      dup2\n      sload\n      dup1\n      swap3\n      swap2\n      swap1\n      tag_66\n      swap1\n      tag_65\n      jump\t// in\n    tag_66:\n      swap2\n      swap1\n      pop\n      sstore\n      pop\n        /* \"contracts/CarreraCoches/main.sol\":1322:1323  1 */\n      0x01\n        /* \"contracts/CarreraCoches/main.sol\":1311:1319  contador */\n      sload(0x02)\n        /* \"contracts/CarreraCoches/main.sol\":1311:1323  contador - 1 */\n      tag_67\n      swap2\n      swap1\n      tag_68\n      jump\t// in\n    tag_67:\n        /* \"contracts/CarreraCoches/main.sol\":1304:1323  return contador - 1 */\n      swap1\n      pop\n        /* \"contracts/CarreraCoches/main.sol\":979:1331  function anadirCoche(string memory _modelo, string memory _marca, string memory _nombrePiloto) public restriccion returns (uint) {\r... */\n      swap4\n      swap3\n      pop\n      pop\n      pop\n      jump\t// out\n        /* \"contracts/CarreraCoches/main.sol\":2217:3423  function Apostar(uint dineroApostar) public payable returns(string memory) {\r... */\n    tag_27:\n        /* \"contracts/CarreraCoches/main.sol\":2277:2290  string memory */\n      0x60\n        /* \"contracts/CarreraCoches/main.sol\":2323:2336  dineroApostar */\n      dup2\n        /* \"contracts/CarreraCoches/main.sol\":2310:2319  msg.value */\n      callvalue\n        /* \"contracts/CarreraCoches/main.sol\":2310:2336  msg.value == dineroApostar */\n      eq\n        /* \"contracts/CarreraCoches/main.sol\":2302:2337  require(msg.value == dineroApostar) */\n      tag_70\n      jumpi\n      0x00\n      dup1\n      revert\n    tag_70:\n        /* \"contracts/CarreraCoches/main.sol\":2358:2367  randNonce */\n      0x01\n      0x00\n        /* \"contracts/CarreraCoches/main.sol\":2358:2369  randNonce++ */\n      dup2\n      sload\n      dup1\n      swap3\n      swap2\n      swap1\n      tag_71\n      swap1\n      tag_65\n      jump\t// in\n    tag_71:\n      swap2\n      swap1\n      pop\n      sstore\n      pop\n        /* \"contracts/CarreraCoches/main.sol\":2416:2429  uint256 rival */\n      0x00\n        /* \"contracts/CarreraCoches/main.sol\":2519:2530  listaCoches */\n      0x04\n        /* \"contracts/CarreraCoches/main.sol\":2519:2537  listaCoches.length */\n      dup1\n      sload\n      swap1\n      pop\n        /* \"contracts/CarreraCoches/main.sol\":2467:2482  block.timestamp */\n      timestamp\n        /* \"contracts/CarreraCoches/main.sol\":2484:2495  listaCoches */\n      0x04\n        /* \"contracts/CarreraCoches/main.sol\":2484:2502  listaCoches.length */\n      dup1\n      sload\n      swap1\n      pop\n        /* \"contracts/CarreraCoches/main.sol\":2504:2513  randNonce */\n      sload(0x01)\n        /* \"contracts/CarreraCoches/main.sol\":2450:2514  abi.encodePacked(block.timestamp, listaCoches.length, randNonce) */\n      add(0x20, mload(0x40))\n      tag_72\n      swap4\n      swap3\n      swap2\n      swap1\n      tag_73\n      jump\t// in\n    tag_72:\n      mload(0x40)\n      0x20\n      dup2\n      dup4\n      sub\n      sub\n      dup2\n      mstore\n      swap1\n      0x40\n      mstore\n        /* \"contracts/CarreraCoches/main.sol\":2440:2515  keccak256(abi.encodePacked(block.timestamp, listaCoches.length, randNonce)) */\n      dup1\n      mload\n      swap1\n      0x20\n      add\n      keccak256\n        /* \"contracts/CarreraCoches/main.sol\":2432:2516  uint256(keccak256(abi.encodePacked(block.timestamp, listaCoches.length, randNonce))) */\n      0x00\n      shr\n        /* \"contracts/CarreraCoches/main.sol\":2432:2537  uint256(keccak256(abi.encodePacked(block.timestamp, listaCoches.length, randNonce))) % listaCoches.length */\n      tag_74\n      swap2\n      swap1\n      tag_75\n      jump\t// in\n    tag_74:\n        /* \"contracts/CarreraCoches/main.sol\":2416:2537  uint256 rival = uint256(keccak256(abi.encodePacked(block.timestamp, listaCoches.length, randNonce))) % listaCoches.length */\n      swap1\n      pop\n        /* \"contracts/CarreraCoches/main.sol\":2553:2569  comprobar(rival) */\n      0x48084f79a9d1cf0b270d95d8ff3676560f09d91964c5c71ac7707d48f71300e4\n        /* \"contracts/CarreraCoches/main.sol\":2563:2568  rival */\n      dup2\n        /* \"contracts/CarreraCoches/main.sol\":2553:2569  comprobar(rival) */\n      mload(0x40)\n      tag_76\n      swap2\n      swap1\n      tag_17\n      jump\t// in\n    tag_76:\n      mload(0x40)\n      dup1\n      swap2\n      sub\n      swap1\n      log1\n        /* \"contracts/CarreraCoches/main.sol\":2610:2619  randNonce */\n      0x01\n      0x00\n        /* \"contracts/CarreraCoches/main.sol\":2610:2621  randNonce++ */\n      dup2\n      sload\n      dup1\n      swap3\n      swap2\n      swap1\n      tag_77\n      swap1\n      tag_65\n      jump\t// in\n    tag_77:\n      swap2\n      swap1\n      pop\n      sstore\n      pop\n        /* \"contracts/CarreraCoches/main.sol\":2632:2643  uint numero */\n      0x00\n        /* \"contracts/CarreraCoches/main.sol\":2646:2647  2 */\n      0x02\n        /* \"contracts/CarreraCoches/main.sol\":2632:2647  uint numero = 2 */\n      swap1\n      pop\n        /* \"contracts/CarreraCoches/main.sol\":2658:2673  uint256 ganador */\n      0x00\n        /* \"contracts/CarreraCoches/main.sol\":2751:2757  numero */\n      dup2\n        /* \"contracts/CarreraCoches/main.sol\":2711:2726  block.timestamp */\n      timestamp\n        /* \"contracts/CarreraCoches/main.sol\":2728:2734  numero */\n      dup4\n        /* \"contracts/CarreraCoches/main.sol\":2736:2745  randNonce */\n      sload(0x01)\n        /* \"contracts/CarreraCoches/main.sol\":2694:2746  abi.encodePacked(block.timestamp, numero, randNonce) */\n      add(0x20, mload(0x40))\n      tag_78\n      swap4\n      swap3\n      swap2\n      swap1\n      tag_73\n      jump\t// in\n    tag_78:\n      mload(0x40)\n      0x20\n      dup2\n      dup4\n      sub\n      sub\n      dup2\n      mstore\n      swap1\n      0x40\n      mstore\n        /* \"contracts/CarreraCoches/main.sol\":2684:2747  keccak256(abi.encodePacked(block.timestamp, numero, randNonce)) */\n      dup1\n      mload\n      swap1\n      0x20\n      add\n      keccak256\n        /* \"contracts/CarreraCoches/main.sol\":2676:2748  uint256(keccak256(abi.encodePacked(block.timestamp, numero, randNonce))) */\n      0x00\n      shr\n        /* \"contracts/CarreraCoches/main.sol\":2676:2757  uint256(keccak256(abi.encodePacked(block.timestamp, numero, randNonce))) % numero */\n      tag_79\n      swap2\n      swap1\n      tag_75\n      jump\t// in\n    tag_79:\n        /* \"contracts/CarreraCoches/main.sol\":2658:2757  uint256 ganador = uint256(keccak256(abi.encodePacked(block.timestamp, numero, randNonce))) % numero */\n      swap1\n      pop\n        /* \"contracts/CarreraCoches/main.sol\":2774:2780  uint i */\n      0x00\n        /* \"contracts/CarreraCoches/main.sol\":2770:3417  for(uint i = 0; i < listaCoches.length; i++){\r... */\n    tag_80:\n        /* \"contracts/CarreraCoches/main.sol\":2790:2801  listaCoches */\n      0x04\n        /* \"contracts/CarreraCoches/main.sol\":2790:2808  listaCoches.length */\n      dup1\n      sload\n      swap1\n      pop\n        /* \"contracts/CarreraCoches/main.sol\":2786:2787  i */\n      dup2\n        /* \"contracts/CarreraCoches/main.sol\":2786:2808  i < listaCoches.length */\n      lt\n        /* \"contracts/CarreraCoches/main.sol\":2770:3417  for(uint i = 0; i < listaCoches.length; i++){\r... */\n      iszero\n      tag_81\n      jumpi\n        /* \"contracts/CarreraCoches/main.sol\":2950:2961  listaCoches */\n      0x04\n        /* \"contracts/CarreraCoches/main.sol\":2962:2963  i */\n      dup2\n        /* \"contracts/CarreraCoches/main.sol\":2950:2964  listaCoches[i] */\n      dup2\n      sload\n      dup2\n      lt\n      tag_83\n      jumpi\n      tag_84\n      tag_85\n      jump\t// in\n    tag_84:\n    tag_83:\n      swap1\n      0x00\n      mstore\n      keccak256(0x00, 0x20)\n      swap1\n      0x07\n      mul\n      add\n        /* \"contracts/CarreraCoches/main.sol\":2950:2973  listaCoches[i].idPiloto */\n      0x00\n      add\n      0x00\n      swap1\n      sload\n      swap1\n      0x0100\n      exp\n      swap1\n      div\n      0xffffffffffffffffffffffffffffffffffffffff\n      and\n        /* \"contracts/CarreraCoches/main.sol\":2936:2973  msg.sender == listaCoches[i].idPiloto */\n      0xffffffffffffffffffffffffffffffffffffffff\n      and\n        /* \"contracts/CarreraCoches/main.sol\":2936:2946  msg.sender */\n      caller\n        /* \"contracts/CarreraCoches/main.sol\":2936:2973  msg.sender == listaCoches[i].idPiloto */\n      0xffffffffffffffffffffffffffffffffffffffff\n      and\n      eq\n        /* \"contracts/CarreraCoches/main.sol\":2932:3406  if (msg.sender == listaCoches[i].idPiloto) {\r... */\n      iszero\n      tag_87\n      jumpi\n        /* \"contracts/CarreraCoches/main.sol\":3008:3009  0 */\n      0x00\n        /* \"contracts/CarreraCoches/main.sol\":2997:3004  ganador */\n      dup3\n        /* \"contracts/CarreraCoches/main.sol\":2997:3009  ganador == 0 */\n      eq\n        /* \"contracts/CarreraCoches/main.sol\":2994:3302  if(ganador == 0){\r... */\n      iszero\n      tag_88\n      jumpi\n        /* \"contracts/CarreraCoches/main.sol\":3033:3042  balance() */\n      tag_89\n        /* \"contracts/CarreraCoches/main.sol\":3033:3040  balance */\n      tag_90\n        /* \"contracts/CarreraCoches/main.sol\":3033:3042  balance() */\n      jump\t// in\n    tag_89:\n        /* \"contracts/CarreraCoches/main.sol\":3065:3084  return \"Has ganado\" */\n      mload(0x40)\n      dup1\n      0x40\n      add\n      0x40\n      mstore\n      dup1\n      0x0a\n      dup2\n      mstore\n      0x20\n      add\n      0x4861732067616e61646f00000000000000000000000000000000000000000000\n      dup2\n      mstore\n      pop\n      swap5\n      pop\n      pop\n      pop\n      pop\n      pop\n      jump(tag_69)\n        /* \"contracts/CarreraCoches/main.sol\":2994:3302  if(ganador == 0){\r... */\n    tag_88:\n        /* \"contracts/CarreraCoches/main.sol\":3191:3239  mostrarResultado(\"El coche ganador es: \", rival) */\n      0xa28482eec3136a2461c6c30c08f71ba279c6c51a2d9c7bea4e50d6d2632f3896\n        /* \"contracts/CarreraCoches/main.sol\":3233:3238  rival */\n      dup5\n        /* \"contracts/CarreraCoches/main.sol\":3191:3239  mostrarResultado(\"El coche ganador es: \", rival) */\n      mload(0x40)\n      tag_96\n      swap2\n      swap1\n      tag_97\n      jump\t// in\n    tag_96:\n      mload(0x40)\n      dup1\n      swap2\n      sub\n      swap1\n      log1\n        /* \"contracts/CarreraCoches/main.sol\":3262:3282  return \"Has perdido\" */\n      mload(0x40)\n      dup1\n      0x40\n      add\n      0x40\n      mstore\n      dup1\n      0x0b\n      dup2\n      mstore\n      0x20\n      add\n      0x486173207065726469646f000000000000000000000000000000000000000000\n      dup2\n      mstore\n      pop\n      swap5\n      pop\n      pop\n      pop\n      pop\n      pop\n      jump(tag_69)\n        /* \"contracts/CarreraCoches/main.sol\":2932:3406  if (msg.sender == listaCoches[i].idPiloto) {\r... */\n    tag_87:\n        /* \"contracts/CarreraCoches/main.sol\":2810:2813  i++ */\n      dup1\n      dup1\n      tag_107\n      swap1\n      tag_65\n      jump\t// in\n    tag_107:\n      swap2\n      pop\n      pop\n        /* \"contracts/CarreraCoches/main.sol\":2770:3417  for(uint i = 0; i < listaCoches.length; i++){\r... */\n      jump(tag_80)\n    tag_81:\n      pop\n        /* \"contracts/CarreraCoches/main.sol\":2292:3423  {\r... */\n      pop\n      pop\n      pop\n        /* \"contracts/CarreraCoches/main.sol\":2217:3423  function Apostar(uint dineroApostar) public payable returns(string memory) {\r... */\n    tag_69:\n      swap2\n      swap1\n      pop\n      jump\t// out\n        /* \"contracts/CarreraCoches/ownable.sol\":1720:1823  function renounceOwnership() public virtual onlyOwner {\r... */\n    tag_32:\n        /* \"contracts/CarreraCoches/ownable.sol\":1300:1312  _msgSender() */\n      tag_109\n        /* \"contracts/CarreraCoches/ownable.sol\":1300:1310  _msgSender */\n      tag_110\n        /* \"contracts/CarreraCoches/ownable.sol\":1300:1312  _msgSender() */\n      jump\t// in\n    tag_109:\n        /* \"contracts/CarreraCoches/ownable.sol\":1289:1312  owner() == _msgSender() */\n      0xffffffffffffffffffffffffffffffffffffffff\n      and\n        /* \"contracts/CarreraCoches/ownable.sol\":1289:1296  owner() */\n      tag_111\n        /* \"contracts/CarreraCoches/ownable.sol\":1289:1294  owner */\n      tag_35\n        /* \"contracts/CarreraCoches/ownable.sol\":1289:1296  owner() */\n      jump\t// in\n    tag_111:\n        /* \"contracts/CarreraCoches/ownable.sol\":1289:1312  owner() == _msgSender() */\n      0xffffffffffffffffffffffffffffffffffffffff\n      and\n      eq\n        /* \"contracts/CarreraCoches/ownable.sol\":1281:1349  require(owner() == _msgSender(), \"Ownable: caller is not the owner\") */\n      tag_112\n      jumpi\n      mload(0x40)\n      0x08c379a000000000000000000000000000000000000000000000000000000000\n      dup2\n      mstore\n      0x04\n      add\n      tag_113\n      swap1\n      tag_114\n      jump\t// in\n    tag_113:\n      mload(0x40)\n      dup1\n      swap2\n      sub\n      swap1\n      revert\n    tag_112:\n        /* \"contracts/CarreraCoches/ownable.sol\":1785:1815  _transferOwnership(address(0)) */\n      tag_116\n        /* \"contracts/CarreraCoches/ownable.sol\":1812:1813  0 */\n      0x00\n        /* \"contracts/CarreraCoches/ownable.sol\":1785:1803  _transferOwnership */\n      tag_117\n        /* \"contracts/CarreraCoches/ownable.sol\":1785:1815  _transferOwnership(address(0)) */\n      jump\t// in\n    tag_116:\n        /* \"contracts/CarreraCoches/ownable.sol\":1720:1823  function renounceOwnership() public virtual onlyOwner {\r... */\n      jump\t// out\n        /* \"contracts/CarreraCoches/ownable.sol\":1069:1156  function owner() public view virtual returns (address) {\r... */\n    tag_35:\n        /* \"contracts/CarreraCoches/ownable.sol\":1115:1122  address */\n      0x00\n        /* \"contracts/CarreraCoches/ownable.sol\":1142:1148  _owner */\n      dup1\n      0x00\n      swap1\n      sload\n      swap1\n      0x0100\n      exp\n      swap1\n      div\n      0xffffffffffffffffffffffffffffffffffffffff\n      and\n        /* \"contracts/CarreraCoches/ownable.sol\":1135:1148  return _owner */\n      swap1\n      pop\n        /* \"contracts/CarreraCoches/ownable.sol\":1069:1156  function owner() public view virtual returns (address) {\r... */\n      swap1\n      jump\t// out\n        /* \"contracts/CarreraCoches/main.sol\":514:540  Coche[] public listaCoches */\n    tag_41:\n      0x04\n      dup2\n      dup2\n      sload\n      dup2\n      lt\n      tag_119\n      jumpi\n      0x00\n      dup1\n      revert\n    tag_119:\n      swap1\n      0x00\n      mstore\n      keccak256(0x00, 0x20)\n      swap1\n      0x07\n      mul\n      add\n      0x00\n      swap2\n      pop\n      swap1\n      pop\n      dup1\n      0x00\n      add\n      0x00\n      swap1\n      sload\n      swap1\n      0x0100\n      exp\n      swap1\n      div\n      0xffffffffffffffffffffffffffffffffffffffff\n      and\n      swap1\n      dup1\n      0x01\n      add\n      dup1\n      sload\n      tag_121\n      swap1\n      tag_122\n      jump\t// in\n    tag_121:\n      dup1\n      0x1f\n      add\n      0x20\n      dup1\n      swap2\n      div\n      mul\n      0x20\n      add\n      mload(0x40)\n      swap1\n      dup2\n      add\n      0x40\n      mstore\n      dup1\n      swap3\n      swap2\n      swap1\n      dup2\n      dup2\n      mstore\n      0x20\n      add\n      dup3\n      dup1\n      sload\n      tag_123\n      swap1\n      tag_122\n      jump\t// in\n    tag_123:\n      dup1\n      iszero\n      tag_124\n      jumpi\n      dup1\n      0x1f\n      lt\n      tag_125\n      jumpi\n      0x0100\n      dup1\n      dup4\n      sload\n      div\n      mul\n      dup4\n      mstore\n      swap2\n      0x20\n      add\n      swap2\n      jump(tag_124)\n    tag_125:\n      dup3\n      add\n      swap2\n      swap1\n      0x00\n      mstore\n      keccak256(0x00, 0x20)\n      swap1\n    tag_126:\n      dup2\n      sload\n      dup2\n      mstore\n      swap1\n      0x01\n      add\n      swap1\n      0x20\n      add\n      dup1\n      dup4\n      gt\n      tag_126\n      jumpi\n      dup3\n      swap1\n      sub\n      0x1f\n      and\n      dup3\n      add\n      swap2\n    tag_124:\n      pop\n      pop\n      pop\n      pop\n      pop\n      swap1\n      dup1\n      0x02\n      add\n      dup1\n      sload\n      tag_127\n      swap1\n      tag_122\n      jump\t// in\n    tag_127:\n      dup1\n      0x1f\n      add\n      0x20\n      dup1\n      swap2\n      div\n      mul\n      0x20\n      add\n      mload(0x40)\n      swap1\n      dup2\n      add\n      0x40\n      mstore\n      dup1\n      swap3\n      swap2\n      swap1\n      dup2\n      dup2\n      mstore\n      0x20\n      add\n      dup3\n      dup1\n      sload\n      tag_128\n      swap1\n      tag_122\n      jump\t// in\n    tag_128:\n      dup1\n      iszero\n      tag_129\n      jumpi\n      dup1\n      0x1f\n      lt\n      tag_130\n      jumpi\n      0x0100\n      dup1\n      dup4\n      sload\n      div\n      mul\n      dup4\n      mstore\n      swap2\n      0x20\n      add\n      swap2\n      jump(tag_129)\n    tag_130:\n      dup3\n      add\n      swap2\n      swap1\n      0x00\n      mstore\n      keccak256(0x00, 0x20)\n      swap1\n    tag_131:\n      dup2\n      sload\n      dup2\n      mstore\n      swap1\n      0x01\n      add\n      swap1\n      0x20\n      add\n      dup1\n      dup4\n      gt\n      tag_131\n      jumpi\n      dup3\n      swap1\n      sub\n      0x1f\n      and\n      dup3\n      add\n      swap2\n    tag_129:\n      pop\n      pop\n      pop\n      pop\n      pop\n      swap1\n      dup1\n      0x03\n      add\n      dup1\n      sload\n      tag_132\n      swap1\n      tag_122\n      jump\t// in\n    tag_132:\n      dup1\n      0x1f\n      add\n      0x20\n      dup1\n      swap2\n      div\n      mul\n      0x20\n      add\n      mload(0x40)\n      swap1\n      dup2\n      add\n      0x40\n      mstore\n      dup1\n      swap3\n      swap2\n      swap1\n      dup2\n      dup2\n      mstore\n      0x20\n      add\n      dup3\n      dup1\n      sload\n      tag_133\n      swap1\n      tag_122\n      jump\t// in\n    tag_133:\n      dup1\n      iszero\n      tag_134\n      jumpi\n      dup1\n      0x1f\n      lt\n      tag_135\n      jumpi\n      0x0100\n      dup1\n      dup4\n      sload\n      div\n      mul\n      dup4\n      mstore\n      swap2\n      0x20\n      add\n      swap2\n      jump(tag_134)\n    tag_135:\n      dup3\n      add\n      swap2\n      swap1\n      0x00\n      mstore\n      keccak256(0x00, 0x20)\n      swap1\n    tag_136:\n      dup2\n      sload\n      dup2\n      mstore\n      swap1\n      0x01\n      add\n      swap1\n      0x20\n      add\n      dup1\n      dup4\n      gt\n      tag_136\n      jumpi\n      dup3\n      swap1\n      sub\n      0x1f\n      and\n      dup3\n      add\n      swap2\n    tag_134:\n      pop\n      pop\n      pop\n      pop\n      pop\n      swap1\n      dup1\n      0x04\n      add\n      sload\n      swap1\n      dup1\n      0x05\n      add\n      sload\n      swap1\n      dup1\n      0x06\n      add\n      sload\n      swap1\n      pop\n      dup8\n      jump\t// out\n        /* \"contracts/CarreraCoches/main.sol\":1661:1880  function numeroAleatorio() public returns (uint256) {\r... */\n    tag_46:\n        /* \"contracts/CarreraCoches/main.sol\":1704:1711  uint256 */\n      0x00\n        /* \"contracts/CarreraCoches/main.sol\":1724:1735  uint numero */\n      dup1\n        /* \"contracts/CarreraCoches/main.sol\":1738:1739  2 */\n      0x02\n        /* \"contracts/CarreraCoches/main.sol\":1724:1739  uint numero = 2 */\n      swap1\n      pop\n        /* \"contracts/CarreraCoches/main.sol\":1750:1764  uint256 result */\n      0x00\n        /* \"contracts/CarreraCoches/main.sol\":1842:1848  numero */\n      dup2\n        /* \"contracts/CarreraCoches/main.sol\":1802:1817  block.timestamp */\n      timestamp\n        /* \"contracts/CarreraCoches/main.sol\":1819:1825  numero */\n      dup4\n        /* \"contracts/CarreraCoches/main.sol\":1827:1836  randNonce */\n      sload(0x01)\n        /* \"contracts/CarreraCoches/main.sol\":1785:1837  abi.encodePacked(block.timestamp, numero, randNonce) */\n      add(0x20, mload(0x40))\n      tag_138\n      swap4\n      swap3\n      swap2\n      swap1\n      tag_73\n      jump\t// in\n    tag_138:\n      mload(0x40)\n      0x20\n      dup2\n      dup4\n      sub\n      sub\n      dup2\n      mstore\n      swap1\n      0x40\n      mstore\n        /* \"contracts/CarreraCoches/main.sol\":1775:1838  keccak256(abi.encodePacked(block.timestamp, numero, randNonce)) */\n      dup1\n      mload\n      swap1\n      0x20\n      add\n      keccak256\n        /* \"contracts/CarreraCoches/main.sol\":1767:1839  uint256(keccak256(abi.encodePacked(block.timestamp, numero, randNonce))) */\n      0x00\n      shr\n        /* \"contracts/CarreraCoches/main.sol\":1767:1848  uint256(keccak256(abi.encodePacked(block.timestamp, numero, randNonce))) % numero */\n      tag_139\n      swap2\n      swap1\n      tag_75\n      jump\t// in\n    tag_139:\n        /* \"contracts/CarreraCoches/main.sol\":1750:1848  uint256 result = uint256(keccak256(abi.encodePacked(block.timestamp, numero, randNonce))) % numero */\n      swap1\n      pop\n        /* \"contracts/CarreraCoches/main.sol\":1866:1872  result */\n      dup1\n        /* \"contracts/CarreraCoches/main.sol\":1859:1872  return result */\n      swap3\n      pop\n      pop\n      pop\n        /* \"contracts/CarreraCoches/main.sol\":1661:1880  function numeroAleatorio() public returns (uint256) {\r... */\n      swap1\n      jump\t// out\n        /* \"contracts/CarreraCoches/ownable.sol\":1978:2179  function transferOwnership(address newOwner) public virtual onlyOwner {\r... */\n    tag_51:\n        /* \"contracts/CarreraCoches/ownable.sol\":1300:1312  _msgSender() */\n      tag_141\n        /* \"contracts/CarreraCoches/ownable.sol\":1300:1310  _msgSender */\n      tag_110\n        /* \"contracts/CarreraCoches/ownable.sol\":1300:1312  _msgSender() */\n      jump\t// in\n    tag_141:\n        /* \"contracts/CarreraCoches/ownable.sol\":1289:1312  owner() == _msgSender() */\n      0xffffffffffffffffffffffffffffffffffffffff\n      and\n        /* \"contracts/CarreraCoches/ownable.sol\":1289:1296  owner() */\n      tag_142\n        /* \"contracts/CarreraCoches/ownable.sol\":1289:1294  owner */\n      tag_35\n        /* \"contracts/CarreraCoches/ownable.sol\":1289:1296  owner() */\n      jump\t// in\n    tag_142:\n        /* \"contracts/CarreraCoches/ownable.sol\":1289:1312  owner() == _msgSender() */\n      0xffffffffffffffffffffffffffffffffffffffff\n      and\n      eq\n        /* \"contracts/CarreraCoches/ownable.sol\":1281:1349  require(owner() == _msgSender(), \"Ownable: caller is not the owner\") */\n      tag_143\n      jumpi\n      mload(0x40)\n      0x08c379a000000000000000000000000000000000000000000000000000000000\n      dup2\n      mstore\n      0x04\n      add\n      tag_144\n      swap1\n      tag_114\n      jump\t// in\n    tag_144:\n      mload(0x40)\n      dup1\n      swap2\n      sub\n      swap1\n      revert\n    tag_143:\n        /* \"contracts/CarreraCoches/ownable.sol\":2087:2088  0 */\n      0x00\n        /* \"contracts/CarreraCoches/ownable.sol\":2067:2089  newOwner != address(0) */\n      0xffffffffffffffffffffffffffffffffffffffff\n      and\n        /* \"contracts/CarreraCoches/ownable.sol\":2067:2075  newOwner */\n      dup2\n        /* \"contracts/CarreraCoches/ownable.sol\":2067:2089  newOwner != address(0) */\n      0xffffffffffffffffffffffffffffffffffffffff\n      and\n      eq\n      iszero\n        /* \"contracts/CarreraCoches/ownable.sol\":2059:2132  require(newOwner != address(0), \"Ownable: new owner is the zero address\") */\n      tag_146\n      jumpi\n      mload(0x40)\n      0x08c379a000000000000000000000000000000000000000000000000000000000\n      dup2\n      mstore\n      0x04\n      add\n      tag_147\n      swap1\n      tag_148\n      jump\t// in\n    tag_147:\n      mload(0x40)\n      dup1\n      swap2\n      sub\n      swap1\n      revert\n    tag_146:\n        /* \"contracts/CarreraCoches/ownable.sol\":2143:2171  _transferOwnership(newOwner) */\n      tag_149\n        /* \"contracts/CarreraCoches/ownable.sol\":2162:2170  newOwner */\n      dup2\n        /* \"contracts/CarreraCoches/ownable.sol\":2143:2161  _transferOwnership */\n      tag_117\n        /* \"contracts/CarreraCoches/ownable.sol\":2143:2171  _transferOwnership(newOwner) */\n      jump\t// in\n    tag_149:\n        /* \"contracts/CarreraCoches/ownable.sol\":1978:2179  function transferOwnership(address newOwner) public virtual onlyOwner {\r... */\n      pop\n      jump\t// out\n        /* \"contracts/CarreraCoches/main.sol\":3480:3659  function balance() private {\r... */\n    tag_90:\n        /* \"contracts/CarreraCoches/main.sol\":3527:3537  msg.sender */\n      caller\n        /* \"contracts/CarreraCoches/main.sol\":3518:3547  payable (msg.sender).transfer */\n      0xffffffffffffffffffffffffffffffffffffffff\n      and\n        /* \"contracts/CarreraCoches/main.sol\":3518:3574  payable (msg.sender).transfer((address(this).balance)*2) */\n      0x08fc\n        /* \"contracts/CarreraCoches/main.sol\":3572:3573  2 */\n      0x02\n        /* \"contracts/CarreraCoches/main.sol\":3549:3570  address(this).balance */\n      selfbalance\n        /* \"contracts/CarreraCoches/main.sol\":3548:3573  (address(this).balance)*2 */\n      tag_151\n      swap2\n      swap1\n      tag_152\n      jump\t// in\n    tag_151:\n        /* \"contracts/CarreraCoches/main.sol\":3518:3574  payable (msg.sender).transfer((address(this).balance)*2) */\n      swap1\n      dup2\n      iszero\n      mul\n      swap1\n      mload(0x40)\n      0x00\n      mload(0x40)\n      dup1\n      dup4\n      sub\n      dup2\n      dup6\n      dup9\n      dup9\n      call\n      swap4\n      pop\n      pop\n      pop\n      pop\n      iszero\n      dup1\n      iszero\n      tag_154\n      jumpi\n      returndatasize\n      0x00\n      dup1\n      returndatacopy\n      revert(0x00, returndatasize)\n    tag_154:\n      pop\n        /* \"contracts/CarreraCoches/main.sol\":3590:3651  mostrarResultado(\"Has ganado: \", ((address(this).balance)*2)) */\n      0xa28482eec3136a2461c6c30c08f71ba279c6c51a2d9c7bea4e50d6d2632f3896\n        /* \"contracts/CarreraCoches/main.sol\":3648:3649  2 */\n      0x02\n        /* \"contracts/CarreraCoches/main.sol\":3625:3646  address(this).balance */\n      selfbalance\n        /* \"contracts/CarreraCoches/main.sol\":3624:3649  (address(this).balance)*2 */\n      tag_155\n      swap2\n      swap1\n      tag_152\n      jump\t// in\n    tag_155:\n        /* \"contracts/CarreraCoches/main.sol\":3590:3651  mostrarResultado(\"Has ganado: \", ((address(this).balance)*2)) */\n      mload(0x40)\n      tag_156\n      swap2\n      swap1\n      tag_157\n      jump\t// in\n    tag_156:\n      mload(0x40)\n      dup1\n      swap2\n      sub\n      swap1\n      log1\n        /* \"contracts/CarreraCoches/main.sol\":3480:3659  function balance() private {\r... */\n      jump\t// out\n        /* \"contracts/CarreraCoches/utils/Context.sol\":656:754  function _msgSender() internal view virtual returns (address) {\r... */\n    tag_110:\n        /* \"contracts/CarreraCoches/utils/Context.sol\":709:716  address */\n      0x00\n        /* \"contracts/CarreraCoches/utils/Context.sol\":736:746  msg.sender */\n      caller\n        /* \"contracts/CarreraCoches/utils/Context.sol\":729:746  return msg.sender */\n      swap1\n      pop\n        /* \"contracts/CarreraCoches/utils/Context.sol\":656:754  function _msgSender() internal view virtual returns (address) {\r... */\n      swap1\n      jump\t// out\n        /* \"contracts/CarreraCoches/ownable.sol\":2339:2530  function _transferOwnership(address newOwner) internal virtual {\r... */\n    tag_117:\n        /* \"contracts/CarreraCoches/ownable.sol\":2413:2429  address oldOwner */\n      0x00\n        /* \"contracts/CarreraCoches/ownable.sol\":2432:2438  _owner */\n      dup1\n      0x00\n      swap1\n      sload\n      swap1\n      0x0100\n      exp\n      swap1\n      div\n      0xffffffffffffffffffffffffffffffffffffffff\n      and\n        /* \"contracts/CarreraCoches/ownable.sol\":2413:2438  address oldOwner = _owner */\n      swap1\n      pop\n        /* \"contracts/CarreraCoches/ownable.sol\":2458:2466  newOwner */\n      dup2\n        /* \"contracts/CarreraCoches/ownable.sol\":2449:2455  _owner */\n      0x00\n      dup1\n        /* \"contracts/CarreraCoches/ownable.sol\":2449:2466  _owner = newOwner */\n      0x0100\n      exp\n      dup2\n      sload\n      dup2\n      0xffffffffffffffffffffffffffffffffffffffff\n      mul\n      not\n      and\n      swap1\n      dup4\n      0xffffffffffffffffffffffffffffffffffffffff\n      and\n      mul\n      or\n      swap1\n      sstore\n      pop\n        /* \"contracts/CarreraCoches/ownable.sol\":2513:2521  newOwner */\n      dup2\n        /* \"contracts/CarreraCoches/ownable.sol\":2482:2522  OwnershipTransferred(oldOwner, newOwner) */\n      0xffffffffffffffffffffffffffffffffffffffff\n      and\n        /* \"contracts/CarreraCoches/ownable.sol\":2503:2511  oldOwner */\n      dup2\n        /* \"contracts/CarreraCoches/ownable.sol\":2482:2522  OwnershipTransferred(oldOwner, newOwner) */\n      0xffffffffffffffffffffffffffffffffffffffff\n      and\n      0x8be0079c531659141344cd1fd0a4f28419497f9722a3daafe3b4186f6b6457e0\n      mload(0x40)\n      mload(0x40)\n      dup1\n      swap2\n      sub\n      swap1\n      log3\n        /* \"contracts/CarreraCoches/ownable.sol\":2402:2530  {\r... */\n      pop\n        /* \"contracts/CarreraCoches/ownable.sol\":2339:2530  function _transferOwnership(address newOwner) internal virtual {\r... */\n      pop\n      jump\t// out\n    tag_61:\n      dup3\n      dup1\n      sload\n      tag_162\n      swap1\n      tag_122\n      jump\t// in\n    tag_162:\n      swap1\n      0x00\n      mstore\n      keccak256(0x00, 0x20)\n      swap1\n      0x1f\n      add\n      0x20\n      swap1\n      div\n      dup2\n      add\n      swap3\n      dup3\n      tag_164\n      jumpi\n      0x00\n      dup6\n      sstore\n      jump(tag_163)\n    tag_164:\n      dup3\n      0x1f\n      lt\n      tag_165\n      jumpi\n      dup1\n      mload\n      not(0xff)\n      and\n      dup4\n      dup1\n      add\n      or\n      dup6\n      sstore\n      jump(tag_163)\n    tag_165:\n      dup3\n      dup1\n      add\n      0x01\n      add\n      dup6\n      sstore\n      dup3\n      iszero\n      tag_163\n      jumpi\n      swap2\n      dup3\n      add\n    tag_166:\n      dup3\n      dup2\n      gt\n      iszero\n      tag_167\n      jumpi\n      dup3\n      mload\n      dup3\n      sstore\n      swap2\n      0x20\n      add\n      swap2\n      swap1\n      0x01\n      add\n      swap1\n      jump(tag_166)\n    tag_167:\n    tag_163:\n      pop\n      swap1\n      pop\n      tag_168\n      swap2\n      swap1\n      tag_169\n      jump\t// in\n    tag_168:\n      pop\n      swap1\n      jump\t// out\n    tag_169:\n    tag_170:\n      dup1\n      dup3\n      gt\n      iszero\n      tag_171\n      jumpi\n      0x00\n      dup2\n      0x00\n      swap1\n      sstore\n      pop\n      0x01\n      add\n      jump(tag_170)\n    tag_171:\n      pop\n      swap1\n      jump\t// out\n        /* \"#utility.yul\":7:419   */\n    tag_173:\n        /* \"#utility.yul\":85:90   */\n      0x00\n        /* \"#utility.yul\":110:176   */\n      tag_175\n        /* \"#utility.yul\":126:175   */\n      tag_176\n        /* \"#utility.yul\":168:174   */\n      dup5\n        /* \"#utility.yul\":126:175   */\n      tag_177\n      jump\t// in\n    tag_176:\n        /* \"#utility.yul\":110:176   */\n      tag_178\n      jump\t// in\n    tag_175:\n        /* \"#utility.yul\":101:176   */\n      swap1\n      pop\n        /* \"#utility.yul\":199:205   */\n      dup3\n        /* \"#utility.yul\":192:197   */\n      dup2\n        /* \"#utility.yul\":185:206   */\n      mstore\n        /* \"#utility.yul\":237:241   */\n      0x20\n        /* \"#utility.yul\":230:235   */\n      dup2\n        /* \"#utility.yul\":226:242   */\n      add\n        /* \"#utility.yul\":275:278   */\n      dup5\n        /* \"#utility.yul\":266:272   */\n      dup5\n        /* \"#utility.yul\":261:264   */\n      dup5\n        /* \"#utility.yul\":257:273   */\n      add\n        /* \"#utility.yul\":254:279   */\n      gt\n        /* \"#utility.yul\":251:363   */\n      iszero\n      tag_179\n      jumpi\n        /* \"#utility.yul\":282:361   */\n      tag_180\n      tag_181\n      jump\t// in\n    tag_180:\n        /* \"#utility.yul\":251:363   */\n    tag_179:\n        /* \"#utility.yul\":372:413   */\n      tag_182\n        /* \"#utility.yul\":406:412   */\n      dup5\n        /* \"#utility.yul\":401:404   */\n      dup3\n        /* \"#utility.yul\":396:399   */\n      dup6\n        /* \"#utility.yul\":372:413   */\n      tag_183\n      jump\t// in\n    tag_182:\n        /* \"#utility.yul\":91:419   */\n      pop\n        /* \"#utility.yul\":7:419   */\n      swap4\n      swap3\n      pop\n      pop\n      pop\n      jump\t// out\n        /* \"#utility.yul\":425:564   */\n    tag_184:\n        /* \"#utility.yul\":471:476   */\n      0x00\n        /* \"#utility.yul\":509:515   */\n      dup2\n        /* \"#utility.yul\":496:516   */\n      calldataload\n        /* \"#utility.yul\":487:516   */\n      swap1\n      pop\n        /* \"#utility.yul\":525:558   */\n      tag_186\n        /* \"#utility.yul\":552:557   */\n      dup2\n        /* \"#utility.yul\":525:558   */\n      tag_187\n      jump\t// in\n    tag_186:\n        /* \"#utility.yul\":425:564   */\n      swap3\n      swap2\n      pop\n      pop\n      jump\t// out\n        /* \"#utility.yul\":584:924   */\n    tag_188:\n        /* \"#utility.yul\":640:645   */\n      0x00\n        /* \"#utility.yul\":689:692   */\n      dup3\n        /* \"#utility.yul\":682:686   */\n      0x1f\n        /* \"#utility.yul\":674:680   */\n      dup4\n        /* \"#utility.yul\":670:687   */\n      add\n        /* \"#utility.yul\":666:693   */\n      slt\n        /* \"#utility.yul\":656:778   */\n      tag_190\n      jumpi\n        /* \"#utility.yul\":697:776   */\n      tag_191\n      tag_192\n      jump\t// in\n    tag_191:\n        /* \"#utility.yul\":656:778   */\n    tag_190:\n        /* \"#utility.yul\":814:820   */\n      dup2\n        /* \"#utility.yul\":801:821   */\n      calldataload\n        /* \"#utility.yul\":839:918   */\n      tag_193\n        /* \"#utility.yul\":914:917   */\n      dup5\n        /* \"#utility.yul\":906:912   */\n      dup3\n        /* \"#utility.yul\":899:903   */\n      0x20\n        /* \"#utility.yul\":891:897   */\n      dup7\n        /* \"#utility.yul\":887:904   */\n      add\n        /* \"#utility.yul\":839:918   */\n      tag_173\n      jump\t// in\n    tag_193:\n        /* \"#utility.yul\":830:918   */\n      swap2\n      pop\n        /* \"#utility.yul\":646:924   */\n      pop\n        /* \"#utility.yul\":584:924   */\n      swap3\n      swap2\n      pop\n      pop\n      jump\t// out\n        /* \"#utility.yul\":930:1069   */\n    tag_194:\n        /* \"#utility.yul\":976:981   */\n      0x00\n        /* \"#utility.yul\":1014:1020   */\n      dup2\n        /* \"#utility.yul\":1001:1021   */\n      calldataload\n        /* \"#utility.yul\":992:1021   */\n      swap1\n      pop\n        /* \"#utility.yul\":1030:1063   */\n      tag_196\n        /* \"#utility.yul\":1057:1062   */\n      dup2\n        /* \"#utility.yul\":1030:1063   */\n      tag_197\n      jump\t// in\n    tag_196:\n        /* \"#utility.yul\":930:1069   */\n      swap3\n      swap2\n      pop\n      pop\n      jump\t// out\n        /* \"#utility.yul\":1075:1404   */\n    tag_14:\n        /* \"#utility.yul\":1134:1140   */\n      0x00\n        /* \"#utility.yul\":1183:1185   */\n      0x20\n        /* \"#utility.yul\":1171:1180   */\n      dup3\n        /* \"#utility.yul\":1162:1169   */\n      dup5\n        /* \"#utility.yul\":1158:1181   */\n      sub\n        /* \"#utility.yul\":1154:1186   */\n      slt\n        /* \"#utility.yul\":1151:1270   */\n      iszero\n      tag_199\n      jumpi\n        /* \"#utility.yul\":1189:1268   */\n      tag_200\n      tag_201\n      jump\t// in\n    tag_200:\n        /* \"#utility.yul\":1151:1270   */\n    tag_199:\n        /* \"#utility.yul\":1309:1310   */\n      0x00\n        /* \"#utility.yul\":1334:1387   */\n      tag_202\n        /* \"#utility.yul\":1379:1386   */\n      dup5\n        /* \"#utility.yul\":1370:1376   */\n      dup3\n        /* \"#utility.yul\":1359:1368   */\n      dup6\n        /* \"#utility.yul\":1355:1377   */\n      add\n        /* \"#utility.yul\":1334:1387   */\n      tag_184\n      jump\t// in\n    tag_202:\n        /* \"#utility.yul\":1324:1387   */\n      swap2\n      pop\n        /* \"#utility.yul\":1280:1397   */\n      pop\n        /* \"#utility.yul\":1075:1404   */\n      swap3\n      swap2\n      pop\n      pop\n      jump\t// out\n        /* \"#utility.yul\":1410:2569   */\n    tag_21:\n        /* \"#utility.yul\":1517:1523   */\n      0x00\n        /* \"#utility.yul\":1525:1531   */\n      dup1\n        /* \"#utility.yul\":1533:1539   */\n      0x00\n        /* \"#utility.yul\":1582:1584   */\n      0x60\n        /* \"#utility.yul\":1570:1579   */\n      dup5\n        /* \"#utility.yul\":1561:1568   */\n      dup7\n        /* \"#utility.yul\":1557:1580   */\n      sub\n        /* \"#utility.yul\":1553:1585   */\n      slt\n        /* \"#utility.yul\":1550:1669   */\n      iszero\n      tag_204\n      jumpi\n        /* \"#utility.yul\":1588:1667   */\n      tag_205\n      tag_201\n      jump\t// in\n    tag_205:\n        /* \"#utility.yul\":1550:1669   */\n    tag_204:\n        /* \"#utility.yul\":1736:1737   */\n      0x00\n        /* \"#utility.yul\":1725:1734   */\n      dup5\n        /* \"#utility.yul\":1721:1738   */\n      add\n        /* \"#utility.yul\":1708:1739   */\n      calldataload\n        /* \"#utility.yul\":1766:1784   */\n      0xffffffffffffffff\n        /* \"#utility.yul\":1758:1764   */\n      dup2\n        /* \"#utility.yul\":1755:1785   */\n      gt\n        /* \"#utility.yul\":1752:1869   */\n      iszero\n      tag_206\n      jumpi\n        /* \"#utility.yul\":1788:1867   */\n      tag_207\n      tag_208\n      jump\t// in\n    tag_207:\n        /* \"#utility.yul\":1752:1869   */\n    tag_206:\n        /* \"#utility.yul\":1893:1956   */\n      tag_209\n        /* \"#utility.yul\":1948:1955   */\n      dup7\n        /* \"#utility.yul\":1939:1945   */\n      dup3\n        /* \"#utility.yul\":1928:1937   */\n      dup8\n        /* \"#utility.yul\":1924:1946   */\n      add\n        /* \"#utility.yul\":1893:1956   */\n      tag_188\n      jump\t// in\n    tag_209:\n        /* \"#utility.yul\":1883:1956   */\n      swap4\n      pop\n        /* \"#utility.yul\":1679:1966   */\n      pop\n        /* \"#utility.yul\":2033:2035   */\n      0x20\n        /* \"#utility.yul\":2022:2031   */\n      dup5\n        /* \"#utility.yul\":2018:2036   */\n      add\n        /* \"#utility.yul\":2005:2037   */\n      calldataload\n        /* \"#utility.yul\":2064:2082   */\n      0xffffffffffffffff\n        /* \"#utility.yul\":2056:2062   */\n      dup2\n        /* \"#utility.yul\":2053:2083   */\n      gt\n        /* \"#utility.yul\":2050:2167   */\n      iszero\n      tag_210\n      jumpi\n        /* \"#utility.yul\":2086:2165   */\n      tag_211\n      tag_208\n      jump\t// in\n    tag_211:\n        /* \"#utility.yul\":2050:2167   */\n    tag_210:\n        /* \"#utility.yul\":2191:2254   */\n      tag_212\n        /* \"#utility.yul\":2246:2253   */\n      dup7\n        /* \"#utility.yul\":2237:2243   */\n      dup3\n        /* \"#utility.yul\":2226:2235   */\n      dup8\n        /* \"#utility.yul\":2222:2244   */\n      add\n        /* \"#utility.yul\":2191:2254   */\n      tag_188\n      jump\t// in\n    tag_212:\n        /* \"#utility.yul\":2181:2254   */\n      swap3\n      pop\n        /* \"#utility.yul\":1976:2264   */\n      pop\n        /* \"#utility.yul\":2331:2333   */\n      0x40\n        /* \"#utility.yul\":2320:2329   */\n      dup5\n        /* \"#utility.yul\":2316:2334   */\n      add\n        /* \"#utility.yul\":2303:2335   */\n      calldataload\n        /* \"#utility.yul\":2362:2380   */\n      0xffffffffffffffff\n        /* \"#utility.yul\":2354:2360   */\n      dup2\n        /* \"#utility.yul\":2351:2381   */\n      gt\n        /* \"#utility.yul\":2348:2465   */\n      iszero\n      tag_213\n      jumpi\n        /* \"#utility.yul\":2384:2463   */\n      tag_214\n      tag_208\n      jump\t// in\n    tag_214:\n        /* \"#utility.yul\":2348:2465   */\n    tag_213:\n        /* \"#utility.yul\":2489:2552   */\n      tag_215\n        /* \"#utility.yul\":2544:2551   */\n      dup7\n        /* \"#utility.yul\":2535:2541   */\n      dup3\n        /* \"#utility.yul\":2524:2533   */\n      dup8\n        /* \"#utility.yul\":2520:2542   */\n      add\n        /* \"#utility.yul\":2489:2552   */\n      tag_188\n      jump\t// in\n    tag_215:\n        /* \"#utility.yul\":2479:2552   */\n      swap2\n      pop\n        /* \"#utility.yul\":2274:2562   */\n      pop\n        /* \"#utility.yul\":1410:2569   */\n      swap3\n      pop\n      swap3\n      pop\n      swap3\n      jump\t// out\n        /* \"#utility.yul\":2575:2904   */\n    tag_26:\n        /* \"#utility.yul\":2634:2640   */\n      0x00\n        /* \"#utility.yul\":2683:2685   */\n      0x20\n        /* \"#utility.yul\":2671:2680   */\n      dup3\n        /* \"#utility.yul\":2662:2669   */\n      dup5\n        /* \"#utility.yul\":2658:2681   */\n      sub\n        /* \"#utility.yul\":2654:2686   */\n      slt\n        /* \"#utility.yul\":2651:2770   */\n      iszero\n      tag_217\n      jumpi\n        /* \"#utility.yul\":2689:2768   */\n      tag_218\n      tag_201\n      jump\t// in\n    tag_218:\n        /* \"#utility.yul\":2651:2770   */\n    tag_217:\n        /* \"#utility.yul\":2809:2810   */\n      0x00\n        /* \"#utility.yul\":2834:2887   */\n      tag_219\n        /* \"#utility.yul\":2879:2886   */\n      dup5\n        /* \"#utility.yul\":2870:2876   */\n      dup3\n        /* \"#utility.yul\":2859:2868   */\n      dup6\n        /* \"#utility.yul\":2855:2877   */\n      add\n        /* \"#utility.yul\":2834:2887   */\n      tag_194\n      jump\t// in\n    tag_219:\n        /* \"#utility.yul\":2824:2887   */\n      swap2\n      pop\n        /* \"#utility.yul\":2780:2897   */\n      pop\n        /* \"#utility.yul\":2575:2904   */\n      swap3\n      swap2\n      pop\n      pop\n      jump\t// out\n        /* \"#utility.yul\":2910:3028   */\n    tag_220:\n        /* \"#utility.yul\":2997:3021   */\n      tag_222\n        /* \"#utility.yul\":3015:3020   */\n      dup2\n        /* \"#utility.yul\":2997:3021   */\n      tag_223\n      jump\t// in\n    tag_222:\n        /* \"#utility.yul\":2992:2995   */\n      dup3\n        /* \"#utility.yul\":2985:3022   */\n      mstore\n        /* \"#utility.yul\":2910:3028   */\n      pop\n      pop\n      jump\t// out\n        /* \"#utility.yul\":3034:3398   */\n    tag_224:\n        /* \"#utility.yul\":3122:3125   */\n      0x00\n        /* \"#utility.yul\":3150:3189   */\n      tag_226\n        /* \"#utility.yul\":3183:3188   */\n      dup3\n        /* \"#utility.yul\":3150:3189   */\n      tag_227\n      jump\t// in\n    tag_226:\n        /* \"#utility.yul\":3205:3276   */\n      tag_228\n        /* \"#utility.yul\":3269:3275   */\n      dup2\n        /* \"#utility.yul\":3264:3267   */\n      dup6\n        /* \"#utility.yul\":3205:3276   */\n      tag_229\n      jump\t// in\n    tag_228:\n        /* \"#utility.yul\":3198:3276   */\n      swap4\n      pop\n        /* \"#utility.yul\":3285:3337   */\n      tag_230\n        /* \"#utility.yul\":3330:3336   */\n      dup2\n        /* \"#utility.yul\":3325:3328   */\n      dup6\n        /* \"#utility.yul\":3318:3322   */\n      0x20\n        /* \"#utility.yul\":3311:3316   */\n      dup7\n        /* \"#utility.yul\":3307:3323   */\n      add\n        /* \"#utility.yul\":3285:3337   */\n      tag_231\n      jump\t// in\n    tag_230:\n        /* \"#utility.yul\":3362:3391   */\n      tag_232\n        /* \"#utility.yul\":3384:3390   */\n      dup2\n        /* \"#utility.yul\":3362:3391   */\n      tag_233\n      jump\t// in\n    tag_232:\n        /* \"#utility.yul\":3357:3360   */\n      dup5\n        /* \"#utility.yul\":3353:3392   */\n      add\n        /* \"#utility.yul\":3346:3392   */\n      swap2\n      pop\n        /* \"#utility.yul\":3126:3398   */\n      pop\n        /* \"#utility.yul\":3034:3398   */\n      swap3\n      swap2\n      pop\n      pop\n      jump\t// out\n        /* \"#utility.yul\":3404:3770   */\n    tag_234:\n        /* \"#utility.yul\":3546:3549   */\n      0x00\n        /* \"#utility.yul\":3567:3634   */\n      tag_236\n        /* \"#utility.yul\":3631:3633   */\n      0x28\n        /* \"#utility.yul\":3626:3629   */\n      dup4\n        /* \"#utility.yul\":3567:3634   */\n      tag_229\n      jump\t// in\n    tag_236:\n        /* \"#utility.yul\":3560:3634   */\n      swap2\n      pop\n        /* \"#utility.yul\":3643:3736   */\n      tag_237\n        /* \"#utility.yul\":3732:3735   */\n      dup3\n        /* \"#utility.yul\":3643:3736   */\n      tag_238\n      jump\t// in\n    tag_237:\n        /* \"#utility.yul\":3761:3763   */\n      0x40\n        /* \"#utility.yul\":3756:3759   */\n      dup3\n        /* \"#utility.yul\":3752:3764   */\n      add\n        /* \"#utility.yul\":3745:3764   */\n      swap1\n      pop\n        /* \"#utility.yul\":3404:3770   */\n      swap2\n      swap1\n      pop\n      jump\t// out\n        /* \"#utility.yul\":3776:4142   */\n    tag_239:\n        /* \"#utility.yul\":3918:3921   */\n      0x00\n        /* \"#utility.yul\":3939:4006   */\n      tag_241\n        /* \"#utility.yul\":4003:4005   */\n      0x26\n        /* \"#utility.yul\":3998:4001   */\n      dup4\n        /* \"#utility.yul\":3939:4006   */\n      tag_229\n      jump\t// in\n    tag_241:\n        /* \"#utility.yul\":3932:4006   */\n      swap2\n      pop\n        /* \"#utility.yul\":4015:4108   */\n      tag_242\n        /* \"#utility.yul\":4104:4107   */\n      dup3\n        /* \"#utility.yul\":4015:4108   */\n      tag_243\n      jump\t// in\n    tag_242:\n        /* \"#utility.yul\":4133:4135   */\n      0x40\n        /* \"#utility.yul\":4128:4131   */\n      dup3\n        /* \"#utility.yul\":4124:4136   */\n      add\n        /* \"#utility.yul\":4117:4136   */\n      swap1\n      pop\n        /* \"#utility.yul\":3776:4142   */\n      swap2\n      swap1\n      pop\n      jump\t// out\n        /* \"#utility.yul\":4148:4514   */\n    tag_244:\n        /* \"#utility.yul\":4290:4293   */\n      0x00\n        /* \"#utility.yul\":4311:4378   */\n      tag_246\n        /* \"#utility.yul\":4375:4377   */\n      0x0c\n        /* \"#utility.yul\":4370:4373   */\n      dup4\n        /* \"#utility.yul\":4311:4378   */\n      tag_229\n      jump\t// in\n    tag_246:\n        /* \"#utility.yul\":4304:4378   */\n      swap2\n      pop\n        /* \"#utility.yul\":4387:4480   */\n      tag_247\n        /* \"#utility.yul\":4476:4479   */\n      dup3\n        /* \"#utility.yul\":4387:4480   */\n      tag_248\n      jump\t// in\n    tag_247:\n        /* \"#utility.yul\":4505:4507   */\n      0x20\n        /* \"#utility.yul\":4500:4503   */\n      dup3\n        /* \"#utility.yul\":4496:4508   */\n      add\n        /* \"#utility.yul\":4489:4508   */\n      swap1\n      pop\n        /* \"#utility.yul\":4148:4514   */\n      swap2\n      swap1\n      pop\n      jump\t// out\n        /* \"#utility.yul\":4520:4886   */\n    tag_249:\n        /* \"#utility.yul\":4662:4665   */\n      0x00\n        /* \"#utility.yul\":4683:4750   */\n      tag_251\n        /* \"#utility.yul\":4747:4749   */\n      0x20\n        /* \"#utility.yul\":4742:4745   */\n      dup4\n        /* \"#utility.yul\":4683:4750   */\n      tag_229\n      jump\t// in\n    tag_251:\n        /* \"#utility.yul\":4676:4750   */\n      swap2\n      pop\n        /* \"#utility.yul\":4759:4852   */\n      tag_252\n        /* \"#utility.yul\":4848:4851   */\n      dup3\n        /* \"#utility.yul\":4759:4852   */\n      tag_253\n      jump\t// in\n    tag_252:\n        /* \"#utility.yul\":4877:4879   */\n      0x20\n        /* \"#utility.yul\":4872:4875   */\n      dup3\n        /* \"#utility.yul\":4868:4880   */\n      add\n        /* \"#utility.yul\":4861:4880   */\n      swap1\n      pop\n        /* \"#utility.yul\":4520:4886   */\n      swap2\n      swap1\n      pop\n      jump\t// out\n        /* \"#utility.yul\":4892:5258   */\n    tag_254:\n        /* \"#utility.yul\":5034:5037   */\n      0x00\n        /* \"#utility.yul\":5055:5122   */\n      tag_256\n        /* \"#utility.yul\":5119:5121   */\n      0x15\n        /* \"#utility.yul\":5114:5117   */\n      dup4\n        /* \"#utility.yul\":5055:5122   */\n      tag_229\n      jump\t// in\n    tag_256:\n        /* \"#utility.yul\":5048:5122   */\n      swap2\n      pop\n        /* \"#utility.yul\":5131:5224   */\n      tag_257\n        /* \"#utility.yul\":5220:5223   */\n      dup3\n        /* \"#utility.yul\":5131:5224   */\n      tag_258\n      jump\t// in\n    tag_257:\n        /* \"#utility.yul\":5249:5251   */\n      0x20\n        /* \"#utility.yul\":5244:5247   */\n      dup3\n        /* \"#utility.yul\":5240:5252   */\n      add\n        /* \"#utility.yul\":5233:5252   */\n      swap1\n      pop\n        /* \"#utility.yul\":4892:5258   */\n      swap2\n      swap1\n      pop\n      jump\t// out\n        /* \"#utility.yul\":5264:5382   */\n    tag_259:\n        /* \"#utility.yul\":5351:5375   */\n      tag_261\n        /* \"#utility.yul\":5369:5374   */\n      dup2\n        /* \"#utility.yul\":5351:5375   */\n      tag_262\n      jump\t// in\n    tag_261:\n        /* \"#utility.yul\":5346:5349   */\n      dup3\n        /* \"#utility.yul\":5339:5376   */\n      mstore\n        /* \"#utility.yul\":5264:5382   */\n      pop\n      pop\n      jump\t// out\n        /* \"#utility.yul\":5388:5545   */\n    tag_263:\n        /* \"#utility.yul\":5493:5538   */\n      tag_265\n        /* \"#utility.yul\":5513:5537   */\n      tag_266\n        /* \"#utility.yul\":5531:5536   */\n      dup3\n        /* \"#utility.yul\":5513:5537   */\n      tag_262\n      jump\t// in\n    tag_266:\n        /* \"#utility.yul\":5493:5538   */\n      tag_267\n      jump\t// in\n    tag_265:\n        /* \"#utility.yul\":5488:5491   */\n      dup3\n        /* \"#utility.yul\":5481:5539   */\n      mstore\n        /* \"#utility.yul\":5388:5545   */\n      pop\n      pop\n      jump\t// out\n        /* \"#utility.yul\":5551:6089   */\n    tag_73:\n        /* \"#utility.yul\":5719:5722   */\n      0x00\n        /* \"#utility.yul\":5734:5809   */\n      tag_269\n        /* \"#utility.yul\":5805:5808   */\n      dup3\n        /* \"#utility.yul\":5796:5802   */\n      dup7\n        /* \"#utility.yul\":5734:5809   */\n      tag_263\n      jump\t// in\n    tag_269:\n        /* \"#utility.yul\":5834:5836   */\n      0x20\n        /* \"#utility.yul\":5829:5832   */\n      dup3\n        /* \"#utility.yul\":5825:5837   */\n      add\n        /* \"#utility.yul\":5818:5837   */\n      swap2\n      pop\n        /* \"#utility.yul\":5847:5922   */\n      tag_270\n        /* \"#utility.yul\":5918:5921   */\n      dup3\n        /* \"#utility.yul\":5909:5915   */\n      dup6\n        /* \"#utility.yul\":5847:5922   */\n      tag_263\n      jump\t// in\n    tag_270:\n        /* \"#utility.yul\":5947:5949   */\n      0x20\n        /* \"#utility.yul\":5942:5945   */\n      dup3\n        /* \"#utility.yul\":5938:5950   */\n      add\n        /* \"#utility.yul\":5931:5950   */\n      swap2\n      pop\n        /* \"#utility.yul\":5960:6035   */\n      tag_271\n        /* \"#utility.yul\":6031:6034   */\n      dup3\n        /* \"#utility.yul\":6022:6028   */\n      dup5\n        /* \"#utility.yul\":5960:6035   */\n      tag_263\n      jump\t// in\n    tag_271:\n        /* \"#utility.yul\":6060:6062   */\n      0x20\n        /* \"#utility.yul\":6055:6058   */\n      dup3\n        /* \"#utility.yul\":6051:6063   */\n      add\n        /* \"#utility.yul\":6044:6063   */\n      swap2\n      pop\n        /* \"#utility.yul\":6080:6083   */\n      dup2\n        /* \"#utility.yul\":6073:6083   */\n      swap1\n      pop\n        /* \"#utility.yul\":5551:6089   */\n      swap5\n      swap4\n      pop\n      pop\n      pop\n      pop\n      jump\t// out\n        /* \"#utility.yul\":6095:6317   */\n    tag_37:\n        /* \"#utility.yul\":6188:6192   */\n      0x00\n        /* \"#utility.yul\":6226:6228   */\n      0x20\n        /* \"#utility.yul\":6215:6224   */\n      dup3\n        /* \"#utility.yul\":6211:6229   */\n      add\n        /* \"#utility.yul\":6203:6229   */\n      swap1\n      pop\n        /* \"#utility.yul\":6239:6310   */\n      tag_273\n        /* \"#utility.yul\":6307:6308   */\n      0x00\n        /* \"#utility.yul\":6296:6305   */\n      dup4\n        /* \"#utility.yul\":6292:6309   */\n      add\n        /* \"#utility.yul\":6283:6289   */\n      dup5\n        /* \"#utility.yul\":6239:6310   */\n      tag_220\n      jump\t// in\n    tag_273:\n        /* \"#utility.yul\":6095:6317   */\n      swap3\n      swap2\n      pop\n      pop\n      jump\t// out\n        /* \"#utility.yul\":6323:7482   */\n    tag_43:\n        /* \"#utility.yul\":6644:6648   */\n      0x00\n        /* \"#utility.yul\":6682:6685   */\n      0xe0\n        /* \"#utility.yul\":6671:6680   */\n      dup3\n        /* \"#utility.yul\":6667:6686   */\n      add\n        /* \"#utility.yul\":6659:6686   */\n      swap1\n      pop\n        /* \"#utility.yul\":6696:6767   */\n      tag_275\n        /* \"#utility.yul\":6764:6765   */\n      0x00\n        /* \"#utility.yul\":6753:6762   */\n      dup4\n        /* \"#utility.yul\":6749:6766   */\n      add\n        /* \"#utility.yul\":6740:6746   */\n      dup11\n        /* \"#utility.yul\":6696:6767   */\n      tag_220\n      jump\t// in\n    tag_275:\n        /* \"#utility.yul\":6814:6823   */\n      dup2\n        /* \"#utility.yul\":6808:6812   */\n      dup2\n        /* \"#utility.yul\":6804:6824   */\n      sub\n        /* \"#utility.yul\":6799:6801   */\n      0x20\n        /* \"#utility.yul\":6788:6797   */\n      dup4\n        /* \"#utility.yul\":6784:6802   */\n      add\n        /* \"#utility.yul\":6777:6825   */\n      mstore\n        /* \"#utility.yul\":6842:6920   */\n      tag_276\n        /* \"#utility.yul\":6915:6919   */\n      dup2\n        /* \"#utility.yul\":6906:6912   */\n      dup10\n        /* \"#utility.yul\":6842:6920   */\n      tag_224\n      jump\t// in\n    tag_276:\n        /* \"#utility.yul\":6834:6920   */\n      swap1\n      pop\n        /* \"#utility.yul\":6967:6976   */\n      dup2\n        /* \"#utility.yul\":6961:6965   */\n      dup2\n        /* \"#utility.yul\":6957:6977   */\n      sub\n        /* \"#utility.yul\":6952:6954   */\n      0x40\n        /* \"#utility.yul\":6941:6950   */\n      dup4\n        /* \"#utility.yul\":6937:6955   */\n      add\n        /* \"#utility.yul\":6930:6978   */\n      mstore\n        /* \"#utility.yul\":6995:7073   */\n      tag_277\n        /* \"#utility.yul\":7068:7072   */\n      dup2\n        /* \"#utility.yul\":7059:7065   */\n      dup9\n        /* \"#utility.yul\":6995:7073   */\n      tag_224\n      jump\t// in\n    tag_277:\n        /* \"#utility.yul\":6987:7073   */\n      swap1\n      pop\n        /* \"#utility.yul\":7120:7129   */\n      dup2\n        /* \"#utility.yul\":7114:7118   */\n      dup2\n        /* \"#utility.yul\":7110:7130   */\n      sub\n        /* \"#utility.yul\":7105:7107   */\n      0x60\n        /* \"#utility.yul\":7094:7103   */\n      dup4\n        /* \"#utility.yul\":7090:7108   */\n      add\n        /* \"#utility.yul\":7083:7131   */\n      mstore\n        /* \"#utility.yul\":7148:7226   */\n      tag_278\n        /* \"#utility.yul\":7221:7225   */\n      dup2\n        /* \"#utility.yul\":7212:7218   */\n      dup8\n        /* \"#utility.yul\":7148:7226   */\n      tag_224\n      jump\t// in\n    tag_278:\n        /* \"#utility.yul\":7140:7226   */\n      swap1\n      pop\n        /* \"#utility.yul\":7236:7309   */\n      tag_279\n        /* \"#utility.yul\":7304:7307   */\n      0x80\n        /* \"#utility.yul\":7293:7302   */\n      dup4\n        /* \"#utility.yul\":7289:7308   */\n      add\n        /* \"#utility.yul\":7280:7286   */\n      dup7\n        /* \"#utility.yul\":7236:7309   */\n      tag_259\n      jump\t// in\n    tag_279:\n        /* \"#utility.yul\":7319:7392   */\n      tag_280\n        /* \"#utility.yul\":7387:7390   */\n      0xa0\n        /* \"#utility.yul\":7376:7385   */\n      dup4\n        /* \"#utility.yul\":7372:7391   */\n      add\n        /* \"#utility.yul\":7363:7369   */\n      dup6\n        /* \"#utility.yul\":7319:7392   */\n      tag_259\n      jump\t// in\n    tag_280:\n        /* \"#utility.yul\":7402:7475   */\n      tag_281\n        /* \"#utility.yul\":7470:7473   */\n      0xc0\n        /* \"#utility.yul\":7459:7468   */\n      dup4\n        /* \"#utility.yul\":7455:7474   */\n      add\n        /* \"#utility.yul\":7446:7452   */\n      dup5\n        /* \"#utility.yul\":7402:7475   */\n      tag_259\n      jump\t// in\n    tag_281:\n        /* \"#utility.yul\":6323:7482   */\n      swap9\n      swap8\n      pop\n      pop\n      pop\n      pop\n      pop\n      pop\n      pop\n      pop\n      jump\t// out\n        /* \"#utility.yul\":7488:7801   */\n    tag_29:\n        /* \"#utility.yul\":7601:7605   */\n      0x00\n        /* \"#utility.yul\":7639:7641   */\n      0x20\n        /* \"#utility.yul\":7628:7637   */\n      dup3\n        /* \"#utility.yul\":7624:7642   */\n      add\n        /* \"#utility.yul\":7616:7642   */\n      swap1\n      pop\n        /* \"#utility.yul\":7688:7697   */\n      dup2\n        /* \"#utility.yul\":7682:7686   */\n      dup2\n        /* \"#utility.yul\":7678:7698   */\n      sub\n        /* \"#utility.yul\":7674:7675   */\n      0x00\n        /* \"#utility.yul\":7663:7672   */\n      dup4\n        /* \"#utility.yul\":7659:7676   */\n      add\n        /* \"#utility.yul\":7652:7699   */\n      mstore\n        /* \"#utility.yul\":7716:7794   */\n      tag_283\n        /* \"#utility.yul\":7789:7793   */\n      dup2\n        /* \"#utility.yul\":7780:7786   */\n      dup5\n        /* \"#utility.yul\":7716:7794   */\n      tag_224\n      jump\t// in\n    tag_283:\n        /* \"#utility.yul\":7708:7794   */\n      swap1\n      pop\n        /* \"#utility.yul\":7488:7801   */\n      swap3\n      swap2\n      pop\n      pop\n      jump\t// out\n        /* \"#utility.yul\":7807:8226   */\n    tag_55:\n        /* \"#utility.yul\":7973:7977   */\n      0x00\n        /* \"#utility.yul\":8011:8013   */\n      0x20\n        /* \"#utility.yul\":8000:8009   */\n      dup3\n        /* \"#utility.yul\":7996:8014   */\n      add\n        /* \"#utility.yul\":7988:8014   */\n      swap1\n      pop\n        /* \"#utility.yul\":8060:8069   */\n      dup2\n        /* \"#utility.yul\":8054:8058   */\n      dup2\n        /* \"#utility.yul\":8050:8070   */\n      sub\n        /* \"#utility.yul\":8046:8047   */\n      0x00\n        /* \"#utility.yul\":8035:8044   */\n      dup4\n        /* \"#utility.yul\":8031:8048   */\n      add\n        /* \"#utility.yul\":8024:8071   */\n      mstore\n        /* \"#utility.yul\":8088:8219   */\n      tag_285\n        /* \"#utility.yul\":8214:8218   */\n      dup2\n        /* \"#utility.yul\":8088:8219   */\n      tag_234\n      jump\t// in\n    tag_285:\n        /* \"#utility.yul\":8080:8219   */\n      swap1\n      pop\n        /* \"#utility.yul\":7807:8226   */\n      swap2\n      swap1\n      pop\n      jump\t// out\n        /* \"#utility.yul\":8232:8651   */\n    tag_148:\n        /* \"#utility.yul\":8398:8402   */\n      0x00\n        /* \"#utility.yul\":8436:8438   */\n      0x20\n        /* \"#utility.yul\":8425:8434   */\n      dup3\n        /* \"#utility.yul\":8421:8439   */\n      add\n        /* \"#utility.yul\":8413:8439   */\n      swap1\n      pop\n        /* \"#utility.yul\":8485:8494   */\n      dup2\n        /* \"#utility.yul\":8479:8483   */\n      dup2\n        /* \"#utility.yul\":8475:8495   */\n      sub\n        /* \"#utility.yul\":8471:8472   */\n      0x00\n        /* \"#utility.yul\":8460:8469   */\n      dup4\n        /* \"#utility.yul\":8456:8473   */\n      add\n        /* \"#utility.yul\":8449:8496   */\n      mstore\n        /* \"#utility.yul\":8513:8644   */\n      tag_287\n        /* \"#utility.yul\":8639:8643   */\n      dup2\n        /* \"#utility.yul\":8513:8644   */\n      tag_239\n      jump\t// in\n    tag_287:\n        /* \"#utility.yul\":8505:8644   */\n      swap1\n      pop\n        /* \"#utility.yul\":8232:8651   */\n      swap2\n      swap1\n      pop\n      jump\t// out\n        /* \"#utility.yul\":8657:9186   */\n    tag_157:\n        /* \"#utility.yul\":8851:8855   */\n      0x00\n        /* \"#utility.yul\":8889:8891   */\n      0x40\n        /* \"#utility.yul\":8878:8887   */\n      dup3\n        /* \"#utility.yul\":8874:8892   */\n      add\n        /* \"#utility.yul\":8866:8892   */\n      swap1\n      pop\n        /* \"#utility.yul\":8938:8947   */\n      dup2\n        /* \"#utility.yul\":8932:8936   */\n      dup2\n        /* \"#utility.yul\":8928:8948   */\n      sub\n        /* \"#utility.yul\":8924:8925   */\n      0x00\n        /* \"#utility.yul\":8913:8922   */\n      dup4\n        /* \"#utility.yul\":8909:8926   */\n      add\n        /* \"#utility.yul\":8902:8949   */\n      mstore\n        /* \"#utility.yul\":8966:9097   */\n      tag_289\n        /* \"#utility.yul\":9092:9096   */\n      dup2\n        /* \"#utility.yul\":8966:9097   */\n      tag_244\n      jump\t// in\n    tag_289:\n        /* \"#utility.yul\":8958:9097   */\n      swap1\n      pop\n        /* \"#utility.yul\":9107:9179   */\n      tag_290\n        /* \"#utility.yul\":9175:9177   */\n      0x20\n        /* \"#utility.yul\":9164:9173   */\n      dup4\n        /* \"#utility.yul\":9160:9178   */\n      add\n        /* \"#utility.yul\":9151:9157   */\n      dup5\n        /* \"#utility.yul\":9107:9179   */\n      tag_259\n      jump\t// in\n    tag_290:\n        /* \"#utility.yul\":8657:9186   */\n      swap3\n      swap2\n      pop\n      pop\n      jump\t// out\n        /* \"#utility.yul\":9192:9611   */\n    tag_114:\n        /* \"#utility.yul\":9358:9362   */\n      0x00\n        /* \"#utility.yul\":9396:9398   */\n      0x20\n        /* \"#utility.yul\":9385:9394   */\n      dup3\n        /* \"#utility.yul\":9381:9399   */\n      add\n        /* \"#utility.yul\":9373:9399   */\n      swap1\n      pop\n        /* \"#utility.yul\":9445:9454   */\n      dup2\n        /* \"#utility.yul\":9439:9443   */\n      dup2\n        /* \"#utility.yul\":9435:9455   */\n      sub\n        /* \"#utility.yul\":9431:9432   */\n      0x00\n        /* \"#utility.yul\":9420:9429   */\n      dup4\n        /* \"#utility.yul\":9416:9433   */\n      add\n        /* \"#utility.yul\":9409:9456   */\n      mstore\n        /* \"#utility.yul\":9473:9604   */\n      tag_292\n        /* \"#utility.yul\":9599:9603   */\n      dup2\n        /* \"#utility.yul\":9473:9604   */\n      tag_249\n      jump\t// in\n    tag_292:\n        /* \"#utility.yul\":9465:9604   */\n      swap1\n      pop\n        /* \"#utility.yul\":9192:9611   */\n      swap2\n      swap1\n      pop\n      jump\t// out\n        /* \"#utility.yul\":9617:10146   */\n    tag_97:\n        /* \"#utility.yul\":9811:9815   */\n      0x00\n        /* \"#utility.yul\":9849:9851   */\n      0x40\n        /* \"#utility.yul\":9838:9847   */\n      dup3\n        /* \"#utility.yul\":9834:9852   */\n      add\n        /* \"#utility.yul\":9826:9852   */\n      swap1\n      pop\n        /* \"#utility.yul\":9898:9907   */\n      dup2\n        /* \"#utility.yul\":9892:9896   */\n      dup2\n        /* \"#utility.yul\":9888:9908   */\n      sub\n        /* \"#utility.yul\":9884:9885   */\n      0x00\n        /* \"#utility.yul\":9873:9882   */\n      dup4\n        /* \"#utility.yul\":9869:9886   */\n      add\n        /* \"#utility.yul\":9862:9909   */\n      mstore\n        /* \"#utility.yul\":9926:10057   */\n      tag_294\n        /* \"#utility.yul\":10052:10056   */\n      dup2\n        /* \"#utility.yul\":9926:10057   */\n      tag_254\n      jump\t// in\n    tag_294:\n        /* \"#utility.yul\":9918:10057   */\n      swap1\n      pop\n        /* \"#utility.yul\":10067:10139   */\n      tag_295\n        /* \"#utility.yul\":10135:10137   */\n      0x20\n        /* \"#utility.yul\":10124:10133   */\n      dup4\n        /* \"#utility.yul\":10120:10138   */\n      add\n        /* \"#utility.yul\":10111:10117   */\n      dup5\n        /* \"#utility.yul\":10067:10139   */\n      tag_259\n      jump\t// in\n    tag_295:\n        /* \"#utility.yul\":9617:10146   */\n      swap3\n      swap2\n      pop\n      pop\n      jump\t// out\n        /* \"#utility.yul\":10152:10374   */\n    tag_17:\n        /* \"#utility.yul\":10245:10249   */\n      0x00\n        /* \"#utility.yul\":10283:10285   */\n      0x20\n        /* \"#utility.yul\":10272:10281   */\n      dup3\n        /* \"#utility.yul\":10268:10286   */\n      add\n        /* \"#utility.yul\":10260:10286   */\n      swap1\n      pop\n        /* \"#utility.yul\":10296:10367   */\n      tag_297\n        /* \"#utility.yul\":10364:10365   */\n      0x00\n        /* \"#utility.yul\":10353:10362   */\n      dup4\n        /* \"#utility.yul\":10349:10366   */\n      add\n        /* \"#utility.yul\":10340:10346   */\n      dup5\n        /* \"#utility.yul\":10296:10367   */\n      tag_259\n      jump\t// in\n    tag_297:\n        /* \"#utility.yul\":10152:10374   */\n      swap3\n      swap2\n      pop\n      pop\n      jump\t// out\n        /* \"#utility.yul\":10380:10509   */\n    tag_178:\n        /* \"#utility.yul\":10414:10420   */\n      0x00\n        /* \"#utility.yul\":10441:10461   */\n      tag_299\n      tag_300\n      jump\t// in\n    tag_299:\n        /* \"#utility.yul\":10431:10461   */\n      swap1\n      pop\n        /* \"#utility.yul\":10470:10503   */\n      tag_301\n        /* \"#utility.yul\":10498:10502   */\n      dup3\n        /* \"#utility.yul\":10490:10496   */\n      dup3\n        /* \"#utility.yul\":10470:10503   */\n      tag_302\n      jump\t// in\n    tag_301:\n        /* \"#utility.yul\":10380:10509   */\n      swap2\n      swap1\n      pop\n      jump\t// out\n        /* \"#utility.yul\":10515:10590   */\n    tag_300:\n        /* \"#utility.yul\":10548:10554   */\n      0x00\n        /* \"#utility.yul\":10581:10583   */\n      0x40\n        /* \"#utility.yul\":10575:10584   */\n      mload\n        /* \"#utility.yul\":10565:10584   */\n      swap1\n      pop\n        /* \"#utility.yul\":10515:10590   */\n      swap1\n      jump\t// out\n        /* \"#utility.yul\":10596:10904   */\n    tag_177:\n        /* \"#utility.yul\":10658:10662   */\n      0x00\n        /* \"#utility.yul\":10748:10766   */\n      0xffffffffffffffff\n        /* \"#utility.yul\":10740:10746   */\n      dup3\n        /* \"#utility.yul\":10737:10767   */\n      gt\n        /* \"#utility.yul\":10734:10790   */\n      iszero\n      tag_305\n      jumpi\n        /* \"#utility.yul\":10770:10788   */\n      tag_306\n      tag_307\n      jump\t// in\n    tag_306:\n        /* \"#utility.yul\":10734:10790   */\n    tag_305:\n        /* \"#utility.yul\":10808:10837   */\n      tag_308\n        /* \"#utility.yul\":10830:10836   */\n      dup3\n        /* \"#utility.yul\":10808:10837   */\n      tag_233\n      jump\t// in\n    tag_308:\n        /* \"#utility.yul\":10800:10837   */\n      swap1\n      pop\n        /* \"#utility.yul\":10892:10896   */\n      0x20\n        /* \"#utility.yul\":10886:10890   */\n      dup2\n        /* \"#utility.yul\":10882:10897   */\n      add\n        /* \"#utility.yul\":10874:10897   */\n      swap1\n      pop\n        /* \"#utility.yul\":10596:10904   */\n      swap2\n      swap1\n      pop\n      jump\t// out\n        /* \"#utility.yul\":10910:11009   */\n    tag_227:\n        /* \"#utility.yul\":10962:10968   */\n      0x00\n        /* \"#utility.yul\":10996:11001   */\n      dup2\n        /* \"#utility.yul\":10990:11002   */\n      mload\n        /* \"#utility.yul\":10980:11002   */\n      swap1\n      pop\n        /* \"#utility.yul\":10910:11009   */\n      swap2\n      swap1\n      pop\n      jump\t// out\n        /* \"#utility.yul\":11015:11184   */\n    tag_229:\n        /* \"#utility.yul\":11099:11110   */\n      0x00\n        /* \"#utility.yul\":11133:11139   */\n      dup3\n        /* \"#utility.yul\":11128:11131   */\n      dup3\n        /* \"#utility.yul\":11121:11140   */\n      mstore\n        /* \"#utility.yul\":11173:11177   */\n      0x20\n        /* \"#utility.yul\":11168:11171   */\n      dup3\n        /* \"#utility.yul\":11164:11178   */\n      add\n        /* \"#utility.yul\":11149:11178   */\n      swap1\n      pop\n        /* \"#utility.yul\":11015:11184   */\n      swap3\n      swap2\n      pop\n      pop\n      jump\t// out\n        /* \"#utility.yul\":11190:11495   */\n    tag_58:\n        /* \"#utility.yul\":11230:11233   */\n      0x00\n        /* \"#utility.yul\":11249:11269   */\n      tag_312\n        /* \"#utility.yul\":11267:11268   */\n      dup3\n        /* \"#utility.yul\":11249:11269   */\n      tag_262\n      jump\t// in\n    tag_312:\n        /* \"#utility.yul\":11244:11269   */\n      swap2\n      pop\n        /* \"#utility.yul\":11283:11303   */\n      tag_313\n        /* \"#utility.yul\":11301:11302   */\n      dup4\n        /* \"#utility.yul\":11283:11303   */\n      tag_262\n      jump\t// in\n    tag_313:\n        /* \"#utility.yul\":11278:11303   */\n      swap3\n      pop\n        /* \"#utility.yul\":11437:11438   */\n      dup3\n        /* \"#utility.yul\":11369:11435   */\n      0xffffffffffffffffffffffffffffffffffffffffffffffffffffffffffffffff\n        /* \"#utility.yul\":11365:11439   */\n      sub\n        /* \"#utility.yul\":11362:11363   */\n      dup3\n        /* \"#utility.yul\":11359:11440   */\n      gt\n        /* \"#utility.yul\":11356:11463   */\n      iszero\n      tag_314\n      jumpi\n        /* \"#utility.yul\":11443:11461   */\n      tag_315\n      tag_316\n      jump\t// in\n    tag_315:\n        /* \"#utility.yul\":11356:11463   */\n    tag_314:\n        /* \"#utility.yul\":11487:11488   */\n      dup3\n        /* \"#utility.yul\":11484:11485   */\n      dup3\n        /* \"#utility.yul\":11480:11489   */\n      add\n        /* \"#utility.yul\":11473:11489   */\n      swap1\n      pop\n        /* \"#utility.yul\":11190:11495   */\n      swap3\n      swap2\n      pop\n      pop\n      jump\t// out\n        /* \"#utility.yul\":11501:11849   */\n    tag_152:\n        /* \"#utility.yul\":11541:11548   */\n      0x00\n        /* \"#utility.yul\":11564:11584   */\n      tag_318\n        /* \"#utility.yul\":11582:11583   */\n      dup3\n        /* \"#utility.yul\":11564:11584   */\n      tag_262\n      jump\t// in\n    tag_318:\n        /* \"#utility.yul\":11559:11584   */\n      swap2\n      pop\n        /* \"#utility.yul\":11598:11618   */\n      tag_319\n        /* \"#utility.yul\":11616:11617   */\n      dup4\n        /* \"#utility.yul\":11598:11618   */\n      tag_262\n      jump\t// in\n    tag_319:\n        /* \"#utility.yul\":11593:11618   */\n      swap3\n      pop\n        /* \"#utility.yul\":11786:11787   */\n      dup2\n        /* \"#utility.yul\":11718:11784   */\n      0xffffffffffffffffffffffffffffffffffffffffffffffffffffffffffffffff\n        /* \"#utility.yul\":11714:11788   */\n      div\n        /* \"#utility.yul\":11711:11712   */\n      dup4\n        /* \"#utility.yul\":11708:11789   */\n      gt\n        /* \"#utility.yul\":11703:11704   */\n      dup3\n        /* \"#utility.yul\":11696:11705   */\n      iszero\n        /* \"#utility.yul\":11689:11706   */\n      iszero\n        /* \"#utility.yul\":11685:11790   */\n      and\n        /* \"#utility.yul\":11682:11813   */\n      iszero\n      tag_320\n      jumpi\n        /* \"#utility.yul\":11793:11811   */\n      tag_321\n      tag_316\n      jump\t// in\n    tag_321:\n        /* \"#utility.yul\":11682:11813   */\n    tag_320:\n        /* \"#utility.yul\":11841:11842   */\n      dup3\n        /* \"#utility.yul\":11838:11839   */\n      dup3\n        /* \"#utility.yul\":11834:11843   */\n      mul\n        /* \"#utility.yul\":11823:11843   */\n      swap1\n      pop\n        /* \"#utility.yul\":11501:11849   */\n      swap3\n      swap2\n      pop\n      pop\n      jump\t// out\n        /* \"#utility.yul\":11855:12046   */\n    tag_68:\n        /* \"#utility.yul\":11895:11899   */\n      0x00\n        /* \"#utility.yul\":11915:11935   */\n      tag_323\n        /* \"#utility.yul\":11933:11934   */\n      dup3\n        /* \"#utility.yul\":11915:11935   */\n      tag_262\n      jump\t// in\n    tag_323:\n        /* \"#utility.yul\":11910:11935   */\n      swap2\n      pop\n        /* \"#utility.yul\":11949:11969   */\n      tag_324\n        /* \"#utility.yul\":11967:11968   */\n      dup4\n        /* \"#utility.yul\":11949:11969   */\n      tag_262\n      jump\t// in\n    tag_324:\n        /* \"#utility.yul\":11944:11969   */\n      swap3\n      pop\n        /* \"#utility.yul\":11988:11989   */\n      dup3\n        /* \"#utility.yul\":11985:11986   */\n      dup3\n        /* \"#utility.yul\":11982:11990   */\n      lt\n        /* \"#utility.yul\":11979:12013   */\n      iszero\n      tag_325\n      jumpi\n        /* \"#utility.yul\":11993:12011   */\n      tag_326\n      tag_316\n      jump\t// in\n    tag_326:\n        /* \"#utility.yul\":11979:12013   */\n    tag_325:\n        /* \"#utility.yul\":12038:12039   */\n      dup3\n        /* \"#utility.yul\":12035:12036   */\n      dup3\n        /* \"#utility.yul\":12031:12040   */\n      sub\n        /* \"#utility.yul\":12023:12040   */\n      swap1\n      pop\n        /* \"#utility.yul\":11855:12046   */\n      swap3\n      swap2\n      pop\n      pop\n      jump\t// out\n        /* \"#utility.yul\":12052:12148   */\n    tag_223:\n        /* \"#utility.yul\":12089:12096   */\n      0x00\n        /* \"#utility.yul\":12118:12142   */\n      tag_328\n        /* \"#utility.yul\":12136:12141   */\n      dup3\n        /* \"#utility.yul\":12118:12142   */\n      tag_329\n      jump\t// in\n    tag_328:\n        /* \"#utility.yul\":12107:12142   */\n      swap1\n      pop\n        /* \"#utility.yul\":12052:12148   */\n      swap2\n      swap1\n      pop\n      jump\t// out\n        /* \"#utility.yul\":12154:12280   */\n    tag_329:\n        /* \"#utility.yul\":12191:12198   */\n      0x00\n        /* \"#utility.yul\":12231:12273   */\n      0xffffffffffffffffffffffffffffffffffffffff\n        /* \"#utility.yul\":12224:12229   */\n      dup3\n        /* \"#utility.yul\":12220:12274   */\n      and\n        /* \"#utility.yul\":12209:12274   */\n      swap1\n      pop\n        /* \"#utility.yul\":12154:12280   */\n      swap2\n      swap1\n      pop\n      jump\t// out\n        /* \"#utility.yul\":12286:12363   */\n    tag_262:\n        /* \"#utility.yul\":12323:12330   */\n      0x00\n        /* \"#utility.yul\":12352:12357   */\n      dup2\n        /* \"#utility.yul\":12341:12357   */\n      swap1\n      pop\n        /* \"#utility.yul\":12286:12363   */\n      swap2\n      swap1\n      pop\n      jump\t// out\n        /* \"#utility.yul\":12369:12523   */\n    tag_183:\n        /* \"#utility.yul\":12453:12459   */\n      dup3\n        /* \"#utility.yul\":12448:12451   */\n      dup2\n        /* \"#utility.yul\":12443:12446   */\n      dup4\n        /* \"#utility.yul\":12430:12460   */\n      calldatacopy\n        /* \"#utility.yul\":12515:12516   */\n      0x00\n        /* \"#utility.yul\":12506:12512   */\n      dup4\n        /* \"#utility.yul\":12501:12504   */\n      dup4\n        /* \"#utility.yul\":12497:12513   */\n      add\n        /* \"#utility.yul\":12490:12517   */\n      mstore\n        /* \"#utility.yul\":12369:12523   */\n      pop\n      pop\n      pop\n      jump\t// out\n        /* \"#utility.yul\":12529:12836   */\n    tag_231:\n        /* \"#utility.yul\":12597:12598   */\n      0x00\n        /* \"#utility.yul\":12607:12720   */\n    tag_334:\n        /* \"#utility.yul\":12621:12627   */\n      dup4\n        /* \"#utility.yul\":12618:12619   */\n      dup2\n        /* \"#utility.yul\":12615:12628   */\n      lt\n        /* \"#utility.yul\":12607:12720   */\n      iszero\n      tag_336\n      jumpi\n        /* \"#utility.yul\":12706:12707   */\n      dup1\n        /* \"#utility.yul\":12701:12704   */\n      dup3\n        /* \"#utility.yul\":12697:12708   */\n      add\n        /* \"#utility.yul\":12691:12709   */\n      mload\n        /* \"#utility.yul\":12687:12688   */\n      dup2\n        /* \"#utility.yul\":12682:12685   */\n      dup5\n        /* \"#utility.yul\":12678:12689   */\n      add\n        /* \"#utility.yul\":12671:12710   */\n      mstore\n        /* \"#utility.yul\":12643:12645   */\n      0x20\n        /* \"#utility.yul\":12640:12641   */\n      dup2\n        /* \"#utility.yul\":12636:12646   */\n      add\n        /* \"#utility.yul\":12631:12646   */\n      swap1\n      pop\n        /* \"#utility.yul\":12607:12720   */\n      jump(tag_334)\n    tag_336:\n        /* \"#utility.yul\":12738:12744   */\n      dup4\n        /* \"#utility.yul\":12735:12736   */\n      dup2\n        /* \"#utility.yul\":12732:12745   */\n      gt\n        /* \"#utility.yul\":12729:12830   */\n      iszero\n      tag_337\n      jumpi\n        /* \"#utility.yul\":12818:12819   */\n      0x00\n        /* \"#utility.yul\":12809:12815   */\n      dup5\n        /* \"#utility.yul\":12804:12807   */\n      dup5\n        /* \"#utility.yul\":12800:12816   */\n      add\n        /* \"#utility.yul\":12793:12820   */\n      mstore\n        /* \"#utility.yul\":12729:12830   */\n    tag_337:\n        /* \"#utility.yul\":12578:12836   */\n      pop\n        /* \"#utility.yul\":12529:12836   */\n      pop\n      pop\n      pop\n      jump\t// out\n        /* \"#utility.yul\":12842:13162   */\n    tag_122:\n        /* \"#utility.yul\":12886:12892   */\n      0x00\n        /* \"#utility.yul\":12923:12924   */\n      0x02\n        /* \"#utility.yul\":12917:12921   */\n      dup3\n        /* \"#utility.yul\":12913:12925   */\n      div\n        /* \"#utility.yul\":12903:12925   */\n      swap1\n      pop\n        /* \"#utility.yul\":12970:12971   */\n      0x01\n        /* \"#utility.yul\":12964:12968   */\n      dup3\n        /* \"#utility.yul\":12960:12972   */\n      and\n        /* \"#utility.yul\":12991:13009   */\n      dup1\n        /* \"#utility.yul\":12981:13062   */\n      tag_339\n      jumpi\n        /* \"#utility.yul\":13047:13051   */\n      0x7f\n        /* \"#utility.yul\":13039:13045   */\n      dup3\n        /* \"#utility.yul\":13035:13052   */\n      and\n        /* \"#utility.yul\":13025:13052   */\n      swap2\n      pop\n        /* \"#utility.yul\":12981:13062   */\n    tag_339:\n        /* \"#utility.yul\":13109:13111   */\n      0x20\n        /* \"#utility.yul\":13101:13107   */\n      dup3\n        /* \"#utility.yul\":13098:13112   */\n      lt\n        /* \"#utility.yul\":13078:13096   */\n      dup2\n        /* \"#utility.yul\":13075:13113   */\n      eq\n        /* \"#utility.yul\":13072:13156   */\n      iszero\n      tag_340\n      jumpi\n        /* \"#utility.yul\":13128:13146   */\n      tag_341\n      tag_342\n      jump\t// in\n    tag_341:\n        /* \"#utility.yul\":13072:13156   */\n    tag_340:\n        /* \"#utility.yul\":12893:13162   */\n      pop\n        /* \"#utility.yul\":12842:13162   */\n      swap2\n      swap1\n      pop\n      jump\t// out\n        /* \"#utility.yul\":13168:13449   */\n    tag_302:\n        /* \"#utility.yul\":13251:13278   */\n      tag_344\n        /* \"#utility.yul\":13273:13277   */\n      dup3\n        /* \"#utility.yul\":13251:13278   */\n      tag_233\n      jump\t// in\n    tag_344:\n        /* \"#utility.yul\":13243:13249   */\n      dup2\n        /* \"#utility.yul\":13239:13279   */\n      add\n        /* \"#utility.yul\":13381:13387   */\n      dup2\n        /* \"#utility.yul\":13369:13379   */\n      dup2\n        /* \"#utility.yul\":13366:13388   */\n      lt\n        /* \"#utility.yul\":13345:13363   */\n      0xffffffffffffffff\n        /* \"#utility.yul\":13333:13343   */\n      dup3\n        /* \"#utility.yul\":13330:13364   */\n      gt\n        /* \"#utility.yul\":13327:13389   */\n      or\n        /* \"#utility.yul\":13324:13412   */\n      iszero\n      tag_345\n      jumpi\n        /* \"#utility.yul\":13392:13410   */\n      tag_346\n      tag_307\n      jump\t// in\n    tag_346:\n        /* \"#utility.yul\":13324:13412   */\n    tag_345:\n        /* \"#utility.yul\":13432:13442   */\n      dup1\n        /* \"#utility.yul\":13428:13430   */\n      0x40\n        /* \"#utility.yul\":13421:13443   */\n      mstore\n        /* \"#utility.yul\":13211:13449   */\n      pop\n        /* \"#utility.yul\":13168:13449   */\n      pop\n      pop\n      jump\t// out\n        /* \"#utility.yul\":13455:13688   */\n    tag_65:\n        /* \"#utility.yul\":13494:13497   */\n      0x00\n        /* \"#utility.yul\":13517:13541   */\n      tag_348\n        /* \"#utility.yul\":13535:13540   */\n      dup3\n        /* \"#utility.yul\":13517:13541   */\n      tag_262\n      jump\t// in\n    tag_348:\n        /* \"#utility.yul\":13508:13541   */\n      swap2\n      pop\n        /* \"#utility.yul\":13563:13629   */\n      0xffffffffffffffffffffffffffffffffffffffffffffffffffffffffffffffff\n        /* \"#utility.yul\":13556:13561   */\n      dup3\n        /* \"#utility.yul\":13553:13630   */\n      eq\n        /* \"#utility.yul\":13550:13653   */\n      iszero\n      tag_349\n      jumpi\n        /* \"#utility.yul\":13633:13651   */\n      tag_350\n      tag_316\n      jump\t// in\n    tag_350:\n        /* \"#utility.yul\":13550:13653   */\n    tag_349:\n        /* \"#utility.yul\":13680:13681   */\n      0x01\n        /* \"#utility.yul\":13673:13678   */\n      dup3\n        /* \"#utility.yul\":13669:13682   */\n      add\n        /* \"#utility.yul\":13662:13682   */\n      swap1\n      pop\n        /* \"#utility.yul\":13455:13688   */\n      swap2\n      swap1\n      pop\n      jump\t// out\n        /* \"#utility.yul\":13694:13773   */\n    tag_267:\n        /* \"#utility.yul\":13733:13740   */\n      0x00\n        /* \"#utility.yul\":13762:13767   */\n      dup2\n        /* \"#utility.yul\":13751:13767   */\n      swap1\n      pop\n        /* \"#utility.yul\":13694:13773   */\n      swap2\n      swap1\n      pop\n      jump\t// out\n        /* \"#utility.yul\":13779:13955   */\n    tag_75:\n        /* \"#utility.yul\":13811:13812   */\n      0x00\n        /* \"#utility.yul\":13828:13848   */\n      tag_353\n        /* \"#utility.yul\":13846:13847   */\n      dup3\n        /* \"#utility.yul\":13828:13848   */\n      tag_262\n      jump\t// in\n    tag_353:\n        /* \"#utility.yul\":13823:13848   */\n      swap2\n      pop\n        /* \"#utility.yul\":13862:13882   */\n      tag_354\n        /* \"#utility.yul\":13880:13881   */\n      dup4\n        /* \"#utility.yul\":13862:13882   */\n      tag_262\n      jump\t// in\n    tag_354:\n        /* \"#utility.yul\":13857:13882   */\n      swap3\n      pop\n        /* \"#utility.yul\":13901:13902   */\n      dup3\n        /* \"#utility.yul\":13891:13926   */\n      tag_355\n      jumpi\n        /* \"#utility.yul\":13906:13924   */\n      tag_356\n      tag_357\n      jump\t// in\n    tag_356:\n        /* \"#utility.yul\":13891:13926   */\n    tag_355:\n        /* \"#utility.yul\":13947:13948   */\n      dup3\n        /* \"#utility.yul\":13944:13945   */\n      dup3\n        /* \"#utility.yul\":13940:13949   */\n      mod\n        /* \"#utility.yul\":13935:13949   */\n      swap1\n      pop\n        /* \"#utility.yul\":13779:13955   */\n      swap3\n      swap2\n      pop\n      pop\n      jump\t// out\n        /* \"#utility.yul\":13961:14141   */\n    tag_316:\n        /* \"#utility.yul\":14009:14086   */\n      0x4e487b7100000000000000000000000000000000000000000000000000000000\n        /* \"#utility.yul\":14006:14007   */\n      0x00\n        /* \"#utility.yul\":13999:14087   */\n      mstore\n        /* \"#utility.yul\":14106:14110   */\n      0x11\n        /* \"#utility.yul\":14103:14104   */\n      0x04\n        /* \"#utility.yul\":14096:14111   */\n      mstore\n        /* \"#utility.yul\":14130:14134   */\n      0x24\n        /* \"#utility.yul\":14127:14128   */\n      0x00\n        /* \"#utility.yul\":14120:14135   */\n      revert\n        /* \"#utility.yul\":14147:14327   */\n    tag_357:\n        /* \"#utility.yul\":14195:14272   */\n      0x4e487b7100000000000000000000000000000000000000000000000000000000\n        /* \"#utility.yul\":14192:14193   */\n      0x00\n        /* \"#utility.yul\":14185:14273   */\n      mstore\n        /* \"#utility.yul\":14292:14296   */\n      0x12\n        /* \"#utility.yul\":14289:14290   */\n      0x04\n        /* \"#utility.yul\":14282:14297   */\n      mstore\n        /* \"#utility.yul\":14316:14320   */\n      0x24\n        /* \"#utility.yul\":14313:14314   */\n      0x00\n        /* \"#utility.yul\":14306:14321   */\n      revert\n        /* \"#utility.yul\":14333:14513   */\n    tag_342:\n        /* \"#utility.yul\":14381:14458   */\n      0x4e487b7100000000000000000000000000000000000000000000000000000000\n        /* \"#utility.yul\":14378:14379   */\n      0x00\n        /* \"#utility.yul\":14371:14459   */\n      mstore\n        /* \"#utility.yul\":14478:14482   */\n      0x22\n        /* \"#utility.yul\":14475:14476   */\n      0x04\n        /* \"#utility.yul\":14468:14483   */\n      mstore\n        /* \"#utility.yul\":14502:14506   */\n      0x24\n        /* \"#utility.yul\":14499:14500   */\n      0x00\n        /* \"#utility.yul\":14492:14507   */\n      revert\n        /* \"#utility.yul\":14519:14699   */\n    tag_85:\n        /* \"#utility.yul\":14567:14644   */\n      0x4e487b7100000000000000000000000000000000000000000000000000000000\n        /* \"#utility.yul\":14564:14565   */\n      0x00\n        /* \"#utility.yul\":14557:14645   */\n      mstore\n        /* \"#utility.yul\":14664:14668   */\n      0x32\n        /* \"#utility.yul\":14661:14662   */\n      0x04\n        /* \"#utility.yul\":14654:14669   */\n      mstore\n        /* \"#utility.yul\":14688:14692   */\n      0x24\n        /* \"#utility.yul\":14685:14686   */\n      0x00\n        /* \"#utility.yul\":14678:14693   */\n      revert\n        /* \"#utility.yul\":14705:14885   */\n    tag_307:\n        /* \"#utility.yul\":14753:14830   */\n      0x4e487b7100000000000000000000000000000000000000000000000000000000\n        /* \"#utility.yul\":14750:14751   */\n      0x00\n        /* \"#utility.yul\":14743:14831   */\n      mstore\n        /* \"#utility.yul\":14850:14854   */\n      0x41\n        /* \"#utility.yul\":14847:14848   */\n      0x04\n        /* \"#utility.yul\":14840:14855   */\n      mstore\n        /* \"#utility.yul\":14874:14878   */\n      0x24\n        /* \"#utility.yul\":14871:14872   */\n      0x00\n        /* \"#utility.yul\":14864:14879   */\n      revert\n        /* \"#utility.yul\":14891:15008   */\n    tag_192:\n        /* \"#utility.yul\":15000:15001   */\n      0x00\n        /* \"#utility.yul\":14997:14998   */\n      dup1\n        /* \"#utility.yul\":14990:15002   */\n      revert\n        /* \"#utility.yul\":15014:15131   */\n    tag_181:\n        /* \"#utility.yul\":15123:15124   */\n      0x00\n        /* \"#utility.yul\":15120:15121   */\n      dup1\n        /* \"#utility.yul\":15113:15125   */\n      revert\n        /* \"#utility.yul\":15137:15254   */\n    tag_208:\n        /* \"#utility.yul\":15246:15247   */\n      0x00\n        /* \"#utility.yul\":15243:15244   */\n      dup1\n        /* \"#utility.yul\":15236:15248   */\n      revert\n        /* \"#utility.yul\":15260:15377   */\n    tag_201:\n        /* \"#utility.yul\":15369:15370   */\n      0x00\n        /* \"#utility.yul\":15366:15367   */\n      dup1\n        /* \"#utility.yul\":15359:15371   */\n      revert\n        /* \"#utility.yul\":15383:15485   */\n    tag_233:\n        /* \"#utility.yul\":15424:15430   */\n      0x00\n        /* \"#utility.yul\":15475:15477   */\n      0x1f\n        /* \"#utility.yul\":15471:15478   */\n      not\n        /* \"#utility.yul\":15466:15468   */\n      0x1f\n        /* \"#utility.yul\":15459:15464   */\n      dup4\n        /* \"#utility.yul\":15455:15469   */\n      add\n        /* \"#utility.yul\":15451:15479   */\n      and\n        /* \"#utility.yul\":15441:15479   */\n      swap1\n      pop\n        /* \"#utility.yul\":15383:15485   */\n      swap2\n      swap1\n      pop\n      jump\t// out\n        /* \"#utility.yul\":15491:15718   */\n    tag_238:\n        /* \"#utility.yul\":15631:15665   */\n      0x536f6c6f2073652070756564652074656e657220756e20636f63686520706f72\n        /* \"#utility.yul\":15627:15628   */\n      0x00\n        /* \"#utility.yul\":15619:15625   */\n      dup3\n        /* \"#utility.yul\":15615:15629   */\n      add\n        /* \"#utility.yul\":15608:15666   */\n      mstore\n        /* \"#utility.yul\":15700:15710   */\n      0x20706572736f6e61000000000000000000000000000000000000000000000000\n        /* \"#utility.yul\":15695:15697   */\n      0x20\n        /* \"#utility.yul\":15687:15693   */\n      dup3\n        /* \"#utility.yul\":15683:15698   */\n      add\n        /* \"#utility.yul\":15676:15711   */\n      mstore\n        /* \"#utility.yul\":15491:15718   */\n      pop\n      jump\t// out\n        /* \"#utility.yul\":15724:15949   */\n    tag_243:\n        /* \"#utility.yul\":15864:15898   */\n      0x4f776e61626c653a206e6577206f776e657220697320746865207a65726f2061\n        /* \"#utility.yul\":15860:15861   */\n      0x00\n        /* \"#utility.yul\":15852:15858   */\n      dup3\n        /* \"#utility.yul\":15848:15862   */\n      add\n        /* \"#utility.yul\":15841:15899   */\n      mstore\n        /* \"#utility.yul\":15933:15941   */\n      0x6464726573730000000000000000000000000000000000000000000000000000\n        /* \"#utility.yul\":15928:15930   */\n      0x20\n        /* \"#utility.yul\":15920:15926   */\n      dup3\n        /* \"#utility.yul\":15916:15931   */\n      add\n        /* \"#utility.yul\":15909:15942   */\n      mstore\n        /* \"#utility.yul\":15724:15949   */\n      pop\n      jump\t// out\n        /* \"#utility.yul\":15955:16117   */\n    tag_248:\n        /* \"#utility.yul\":16095:16109   */\n      0x4861732067616e61646f3a200000000000000000000000000000000000000000\n        /* \"#utility.yul\":16091:16092   */\n      0x00\n        /* \"#utility.yul\":16083:16089   */\n      dup3\n        /* \"#utility.yul\":16079:16093   */\n      add\n        /* \"#utility.yul\":16072:16110   */\n      mstore\n        /* \"#utility.yul\":15955:16117   */\n      pop\n      jump\t// out\n        /* \"#utility.yul\":16123:16305   */\n    tag_253:\n        /* \"#utility.yul\":16263:16297   */\n      0x4f776e61626c653a2063616c6c6572206973206e6f7420746865206f776e6572\n        /* \"#utility.yul\":16259:16260   */\n      0x00\n        /* \"#utility.yul\":16251:16257   */\n      dup3\n        /* \"#utility.yul\":16247:16261   */\n      add\n        /* \"#utility.yul\":16240:16298   */\n      mstore\n        /* \"#utility.yul\":16123:16305   */\n      pop\n      jump\t// out\n        /* \"#utility.yul\":16311:16482   */\n    tag_258:\n        /* \"#utility.yul\":16451:16474   */\n      0x456c20636f6368652067616e61646f722065733a200000000000000000000000\n        /* \"#utility.yul\":16447:16448   */\n      0x00\n        /* \"#utility.yul\":16439:16445   */\n      dup3\n        /* \"#utility.yul\":16435:16449   */\n      add\n        /* \"#utility.yul\":16428:16475   */\n      mstore\n        /* \"#utility.yul\":16311:16482   */\n      pop\n      jump\t// out\n        /* \"#utility.yul\":16488:16610   */\n    tag_187:\n        /* \"#utility.yul\":16561:16585   */\n      tag_374\n        /* \"#utility.yul\":16579:16584   */\n      dup2\n        /* \"#utility.yul\":16561:16585   */\n      tag_223\n      jump\t// in\n    tag_374:\n        /* \"#utility.yul\":16554:16559   */\n      dup2\n        /* \"#utility.yul\":16551:16586   */\n      eq\n        /* \"#utility.yul\":16541:16604   */\n      tag_375\n      jumpi\n        /* \"#utility.yul\":16600:16601   */\n      0x00\n        /* \"#utility.yul\":16597:16598   */\n      dup1\n        /* \"#utility.yul\":16590:16602   */\n      revert\n        /* \"#utility.yul\":16541:16604   */\n    tag_375:\n        /* \"#utility.yul\":16488:16610   */\n      pop\n      jump\t// out\n        /* \"#utility.yul\":16616:16738   */\n    tag_197:\n        /* \"#utility.yul\":16689:16713   */\n      tag_377\n        /* \"#utility.yul\":16707:16712   */\n      dup2\n        /* \"#utility.yul\":16689:16713   */\n      tag_262\n      jump\t// in\n    tag_377:\n        /* \"#utility.yul\":16682:16687   */\n      dup2\n        /* \"#utility.yul\":16679:16714   */\n      eq\n        /* \"#utility.yul\":16669:16732   */\n      tag_378\n      jumpi\n        /* \"#utility.yul\":16728:16729   */\n      0x00\n        /* \"#utility.yul\":16725:16726   */\n      dup1\n        /* \"#utility.yul\":16718:16730   */\n      revert\n        /* \"#utility.yul\":16669:16732   */\n    tag_378:\n        /* \"#utility.yul\":16616:16738   */\n      pop\n      jump\t// out\n\n    auxdata: 0xa2646970667358221220dca89c0b9698e88917c1db540a55d4e01d5a74d23819914ca0c7aa6717f0c8e364736f6c63430008070033\n}\n",
				"bytecode": {
					"linkReferences": {},
					"object": "608060405260006001556000600255603c60035534801561001f57600080fd5b5061003c61003161004160201b60201c565b61004960201b60201c565b61010d565b600033905090565b60008060009054906101000a900473ffffffffffffffffffffffffffffffffffffffff169050816000806101000a81548173ffffffffffffffffffffffffffffffffffffffff021916908373ffffffffffffffffffffffffffffffffffffffff1602179055508173ffffffffffffffffffffffffffffffffffffffff168173ffffffffffffffffffffffffffffffffffffffff167f8be0079c531659141344cd1fd0a4f28419497f9722a3daafe3b4186f6b6457e060405160405180910390a35050565b6116bb8061011c6000396000f3fe60806040526004361061007b5760003560e01c80638da5cb5b1161004e5780638da5cb5b14610141578063d735573d1461016c578063f1413763146101af578063f2fde38b146101da5761007b565b80631c6743e4146100805780632458c544146100bd5780636b6f0494146100fa578063715018a61461012a575b600080fd5b34801561008c57600080fd5b506100a760048036038101906100a29190610d80565b610203565b6040516100b49190611158565b60405180910390f35b3480156100c957600080fd5b506100e460048036038101906100df9190610dad565b61021b565b6040516100f19190611158565b60405180910390f35b610114600480360381019061010f9190610e54565b61046b565b604051610121919061107a565b60405180910390f35b34801561013657600080fd5b5061013f6106de565b005b34801561014d57600080fd5b50610156610766565b6040516101639190610fdb565b60405180910390f35b34801561017857600080fd5b50610193600480360381019061018e9190610e54565b61078f565b6040516101a69796959493929190610ff6565b60405180910390f35b3480156101bb57600080fd5b506101c4610999565b6040516101d19190611158565b60405180910390f35b3480156101e657600080fd5b5061020160048036038101906101fc9190610d80565b6109e7565b005b60056020528060005260406000206000915090505481565b60006001600560003373ffffffffffffffffffffffffffffffffffffffff1673ffffffffffffffffffffffffffffffffffffffff168152602001908152602001600020541061029f576040517f08c379a00000000000000000000000000000000000000000000000000000000081526004016102969061109c565b60405180910390fd5b60046040518060e001604052803373ffffffffffffffffffffffffffffffffffffffff1681526020018681526020018581526020018481526020016000815260200160008152602001600354426102f691906111e5565b63ffffffff16815250908060018154018082558091505060019003906000526020600020906007020160009091909190915060008201518160000160006101000a81548173ffffffffffffffffffffffffffffffffffffffff021916908373ffffffffffffffffffffffffffffffffffffffff160217905550602082015181600101908051906020019061038b929190610c43565b5060408201518160020190805190602001906103a8929190610c43565b5060608201518160030190805190602001906103c5929190610c43565b506080820151816004015560a0820151816005015560c082015181600601555050600560003373ffffffffffffffffffffffffffffffffffffffff1673ffffffffffffffffffffffffffffffffffffffff1681526020019081526020016000206000815480929190610436906113aa565b91905055506002600081548092919061044e906113aa565b919050555060016002546104629190611295565b90509392505050565b606081341461047957600080fd5b6001600081548092919061048c906113aa565b91905055506000600480549050426004805490506001546040516020016104b593929190610f9e565b6040516020818303038152906040528051906020012060001c6104d891906113fd565b90507f48084f79a9d1cf0b270d95d8ff3676560f09d91964c5c71ac7707d48f71300e4816040516105099190611158565b60405180910390a160016000815480929190610524906113aa565b9190505550600060029050600081428360015460405160200161054993929190610f9e565b6040516020818303038152906040528051906020012060001c61056c91906113fd565b905060005b6004805490508110156106d45760048181548110610592576105916114bb565b5b906000526020600020906007020160000160009054906101000a900473ffffffffffffffffffffffffffffffffffffffff1673ffffffffffffffffffffffffffffffffffffffff163373ffffffffffffffffffffffffffffffffffffffff1614156106c157600082141561064957610608610adf565b6040518060400160405280600a81526020017f4861732067616e61646f000000000000000000000000000000000000000000008152509450505050506106d9565b7fa28482eec3136a2461c6c30c08f71ba279c6c51a2d9c7bea4e50d6d2632f389684604051610678919061112a565b60405180910390a16040518060400160405280600b81526020017f486173207065726469646f0000000000000000000000000000000000000000008152509450505050506106d9565b80806106cc906113aa565b915050610571565b505050505b919050565b6106e6610b77565b73ffffffffffffffffffffffffffffffffffffffff16610704610766565b73ffffffffffffffffffffffffffffffffffffffff161461075a576040517f08c379a00000000000000000000000000000000000000000000000000000000081526004016107519061110a565b60405180910390fd5b6107646000610b7f565b565b60008060009054906101000a900473ffffffffffffffffffffffffffffffffffffffff16905090565b6004818154811061079f57600080fd5b90600052602060002090600702016000915090508060000160009054906101000a900473ffffffffffffffffffffffffffffffffffffffff16908060010180546107e890611347565b80601f016020809104026020016040519081016040528092919081815260200182805461081490611347565b80156108615780601f1061083657610100808354040283529160200191610861565b820191906000526020600020905b81548152906001019060200180831161084457829003601f168201915b50505050509080600201805461087690611347565b80601f01602080910402602001604051908101604052809291908181526020018280546108a290611347565b80156108ef5780601f106108c4576101008083540402835291602001916108ef565b820191906000526020600020905b8154815290600101906020018083116108d257829003601f168201915b50505050509080600301805461090490611347565b80601f016020809104026020016040519081016040528092919081815260200182805461093090611347565b801561097d5780601f106109525761010080835404028352916020019161097d565b820191906000526020600020905b81548152906001019060200180831161096057829003601f168201915b5050505050908060040154908060050154908060060154905087565b6000806002905060008142836001546040516020016109ba93929190610f9e565b6040516020818303038152906040528051906020012060001c6109dd91906113fd565b9050809250505090565b6109ef610b77565b73ffffffffffffffffffffffffffffffffffffffff16610a0d610766565b73ffffffffffffffffffffffffffffffffffffffff1614610a63576040517f08c379a0000000000000000000000000000000000000000000000000000000008152600401610a5a9061110a565b60405180910390fd5b600073ffffffffffffffffffffffffffffffffffffffff168173ffffffffffffffffffffffffffffffffffffffff161415610ad3576040517f08c379a0000000000000000000000000000000000000000000000000000000008152600401610aca906110bc565b60405180910390fd5b610adc81610b7f565b50565b3373ffffffffffffffffffffffffffffffffffffffff166108fc600247610b06919061123b565b9081150290604051600060405180830381858888f19350505050158015610b31573d6000803e3d6000fd5b507fa28482eec3136a2461c6c30c08f71ba279c6c51a2d9c7bea4e50d6d2632f3896600247610b60919061123b565b604051610b6d91906110dc565b60405180910390a1565b600033905090565b60008060009054906101000a900473ffffffffffffffffffffffffffffffffffffffff169050816000806101000a81548173ffffffffffffffffffffffffffffffffffffffff021916908373ffffffffffffffffffffffffffffffffffffffff1602179055508173ffffffffffffffffffffffffffffffffffffffff168173ffffffffffffffffffffffffffffffffffffffff167f8be0079c531659141344cd1fd0a4f28419497f9722a3daafe3b4186f6b6457e060405160405180910390a35050565b828054610c4f90611347565b90600052602060002090601f016020900481019282610c715760008555610cb8565b82601f10610c8a57805160ff1916838001178555610cb8565b82800160010185558215610cb8579182015b82811115610cb7578251825591602001919060010190610c9c565b5b509050610cc59190610cc9565b5090565b5b80821115610ce2576000816000905550600101610cca565b5090565b6000610cf9610cf484611198565b611173565b905082815260208101848484011115610d1557610d1461151e565b5b610d20848285611305565b509392505050565b600081359050610d3781611657565b92915050565b600082601f830112610d5257610d51611519565b5b8135610d62848260208601610ce6565b91505092915050565b600081359050610d7a8161166e565b92915050565b600060208284031215610d9657610d95611528565b5b6000610da484828501610d28565b91505092915050565b600080600060608486031215610dc657610dc5611528565b5b600084013567ffffffffffffffff811115610de457610de3611523565b5b610df086828701610d3d565b935050602084013567ffffffffffffffff811115610e1157610e10611523565b5b610e1d86828701610d3d565b925050604084013567ffffffffffffffff811115610e3e57610e3d611523565b5b610e4a86828701610d3d565b9150509250925092565b600060208284031215610e6a57610e69611528565b5b6000610e7884828501610d6b565b91505092915050565b610e8a816112c9565b82525050565b6000610e9b826111c9565b610ea581856111d4565b9350610eb5818560208601611314565b610ebe8161152d565b840191505092915050565b6000610ed66028836111d4565b9150610ee18261153e565b604082019050919050565b6000610ef96026836111d4565b9150610f048261158d565b604082019050919050565b6000610f1c600c836111d4565b9150610f27826115dc565b602082019050919050565b6000610f3f6020836111d4565b9150610f4a82611605565b602082019050919050565b6000610f626015836111d4565b9150610f6d8261162e565b602082019050919050565b610f81816112fb565b82525050565b610f98610f93826112fb565b6113f3565b82525050565b6000610faa8286610f87565b602082019150610fba8285610f87565b602082019150610fca8284610f87565b602082019150819050949350505050565b6000602082019050610ff06000830184610e81565b92915050565b600060e08201905061100b600083018a610e81565b818103602083015261101d8189610e90565b905081810360408301526110318188610e90565b905081810360608301526110458187610e90565b90506110546080830186610f78565b61106160a0830185610f78565b61106e60c0830184610f78565b98975050505050505050565b600060208201905081810360008301526110948184610e90565b905092915050565b600060208201905081810360008301526110b581610ec9565b9050919050565b600060208201905081810360008301526110d581610eec565b9050919050565b600060408201905081810360008301526110f581610f0f565b90506111046020830184610f78565b92915050565b6000602082019050818103600083015261112381610f32565b9050919050565b6000604082019050818103600083015261114381610f55565b90506111526020830184610f78565b92915050565b600060208201905061116d6000830184610f78565b92915050565b600061117d61118e565b90506111898282611379565b919050565b6000604051905090565b600067ffffffffffffffff8211156111b3576111b26114ea565b5b6111bc8261152d565b9050602081019050919050565b600081519050919050565b600082825260208201905092915050565b60006111f0826112fb565b91506111fb836112fb565b9250827fffffffffffffffffffffffffffffffffffffffffffffffffffffffffffffffff038211156112305761122f61142e565b5b828201905092915050565b6000611246826112fb565b9150611251836112fb565b9250817fffffffffffffffffffffffffffffffffffffffffffffffffffffffffffffffff048311821515161561128a5761128961142e565b5b828202905092915050565b60006112a0826112fb565b91506112ab836112fb565b9250828210156112be576112bd61142e565b5b828203905092915050565b60006112d4826112db565b9050919050565b600073ffffffffffffffffffffffffffffffffffffffff82169050919050565b6000819050919050565b82818337600083830152505050565b60005b83811015611332578082015181840152602081019050611317565b83811115611341576000848401525b50505050565b6000600282049050600182168061135f57607f821691505b602082108114156113735761137261148c565b5b50919050565b6113828261152d565b810181811067ffffffffffffffff821117156113a1576113a06114ea565b5b80604052505050565b60006113b5826112fb565b91507fffffffffffffffffffffffffffffffffffffffffffffffffffffffffffffffff8214156113e8576113e761142e565b5b600182019050919050565b6000819050919050565b6000611408826112fb565b9150611413836112fb565b9250826114235761142261145d565b5b828206905092915050565b7f4e487b7100000000000000000000000000000000000000000000000000000000600052601160045260246000fd5b7f4e487b7100000000000000000000000000000000000000000000000000000000600052601260045260246000fd5b7f4e487b7100000000000000000000000000000000000000000000000000000000600052602260045260246000fd5b7f4e487b7100000000000000000000000000000000000000000000000000000000600052603260045260246000fd5b7f4e487b7100000000000000000000000000000000000000000000000000000000600052604160045260246000fd5b600080fd5b600080fd5b600080fd5b600080fd5b6000601f19601f8301169050919050565b7f536f6c6f2073652070756564652074656e657220756e20636f63686520706f7260008201527f20706572736f6e61000000000000000000000000000000000000000000000000602082015250565b7f4f776e61626c653a206e6577206f776e657220697320746865207a65726f206160008201527f6464726573730000000000000000000000000000000000000000000000000000602082015250565b7f4861732067616e61646f3a200000000000000000000000000000000000000000600082015250565b7f4f776e61626c653a2063616c6c6572206973206e6f7420746865206f776e6572600082015250565b7f456c20636f6368652067616e61646f722065733a200000000000000000000000600082015250565b611660816112c9565b811461166b57600080fd5b50565b611677816112fb565b811461168257600080fd5b5056fea2646970667358221220dca89c0b9698e88917c1db540a55d4e01d5a74d23819914ca0c7aa6717f0c8e364736f6c63430008070033",
					"opcodes": "PUSH1 0x80 PUSH1 0x40 MSTORE PUSH1 0x0 PUSH1 0x1 SSTORE PUSH1 0x0 PUSH1 0x2 SSTORE PUSH1 0x3C PUSH1 0x3 SSTORE CALLVALUE DUP1 ISZERO PUSH2 0x1F JUMPI PUSH1 0x0 DUP1 REVERT JUMPDEST POP PUSH2 0x3C PUSH2 0x31 PUSH2 0x41 PUSH1 0x20 SHL PUSH1 0x20 SHR JUMP JUMPDEST PUSH2 0x49 PUSH1 0x20 SHL PUSH1 0x20 SHR JUMP JUMPDEST PUSH2 0x10D JUMP JUMPDEST PUSH1 0x0 CALLER SWAP1 POP SWAP1 JUMP JUMPDEST PUSH1 0x0 DUP1 PUSH1 0x0 SWAP1 SLOAD SWAP1 PUSH2 0x100 EXP SWAP1 DIV PUSH20 0xFFFFFFFFFFFFFFFFFFFFFFFFFFFFFFFFFFFFFFFF AND SWAP1 POP DUP2 PUSH1 0x0 DUP1 PUSH2 0x100 EXP DUP2 SLOAD DUP2 PUSH20 0xFFFFFFFFFFFFFFFFFFFFFFFFFFFFFFFFFFFFFFFF MUL NOT AND SWAP1 DUP4 PUSH20 0xFFFFFFFFFFFFFFFFFFFFFFFFFFFFFFFFFFFFFFFF AND MUL OR SWAP1 SSTORE POP DUP2 PUSH20 0xFFFFFFFFFFFFFFFFFFFFFFFFFFFFFFFFFFFFFFFF AND DUP2 PUSH20 0xFFFFFFFFFFFFFFFFFFFFFFFFFFFFFFFFFFFFFFFF AND PUSH32 0x8BE0079C531659141344CD1FD0A4F28419497F9722A3DAAFE3B4186F6B6457E0 PUSH1 0x40 MLOAD PUSH1 0x40 MLOAD DUP1 SWAP2 SUB SWAP1 LOG3 POP POP JUMP JUMPDEST PUSH2 0x16BB DUP1 PUSH2 0x11C PUSH1 0x0 CODECOPY PUSH1 0x0 RETURN INVALID PUSH1 0x80 PUSH1 0x40 MSTORE PUSH1 0x4 CALLDATASIZE LT PUSH2 0x7B JUMPI PUSH1 0x0 CALLDATALOAD PUSH1 0xE0 SHR DUP1 PUSH4 0x8DA5CB5B GT PUSH2 0x4E JUMPI DUP1 PUSH4 0x8DA5CB5B EQ PUSH2 0x141 JUMPI DUP1 PUSH4 0xD735573D EQ PUSH2 0x16C JUMPI DUP1 PUSH4 0xF1413763 EQ PUSH2 0x1AF JUMPI DUP1 PUSH4 0xF2FDE38B EQ PUSH2 0x1DA JUMPI PUSH2 0x7B JUMP JUMPDEST DUP1 PUSH4 0x1C6743E4 EQ PUSH2 0x80 JUMPI DUP1 PUSH4 0x2458C544 EQ PUSH2 0xBD JUMPI DUP1 PUSH4 0x6B6F0494 EQ PUSH2 0xFA JUMPI DUP1 PUSH4 0x715018A6 EQ PUSH2 0x12A JUMPI JUMPDEST PUSH1 0x0 DUP1 REVERT JUMPDEST CALLVALUE DUP1 ISZERO PUSH2 0x8C JUMPI PUSH1 0x0 DUP1 REVERT JUMPDEST POP PUSH2 0xA7 PUSH1 0x4 DUP1 CALLDATASIZE SUB DUP2 ADD SWAP1 PUSH2 0xA2 SWAP2 SWAP1 PUSH2 0xD80 JUMP JUMPDEST PUSH2 0x203 JUMP JUMPDEST PUSH1 0x40 MLOAD PUSH2 0xB4 SWAP2 SWAP1 PUSH2 0x1158 JUMP JUMPDEST PUSH1 0x40 MLOAD DUP1 SWAP2 SUB SWAP1 RETURN JUMPDEST CALLVALUE DUP1 ISZERO PUSH2 0xC9 JUMPI PUSH1 0x0 DUP1 REVERT JUMPDEST POP PUSH2 0xE4 PUSH1 0x4 DUP1 CALLDATASIZE SUB DUP2 ADD SWAP1 PUSH2 0xDF SWAP2 SWAP1 PUSH2 0xDAD JUMP JUMPDEST PUSH2 0x21B JUMP JUMPDEST PUSH1 0x40 MLOAD PUSH2 0xF1 SWAP2 SWAP1 PUSH2 0x1158 JUMP JUMPDEST PUSH1 0x40 MLOAD DUP1 SWAP2 SUB SWAP1 RETURN JUMPDEST PUSH2 0x114 PUSH1 0x4 DUP1 CALLDATASIZE SUB DUP2 ADD SWAP1 PUSH2 0x10F SWAP2 SWAP1 PUSH2 0xE54 JUMP JUMPDEST PUSH2 0x46B JUMP JUMPDEST PUSH1 0x40 MLOAD PUSH2 0x121 SWAP2 SWAP1 PUSH2 0x107A JUMP JUMPDEST PUSH1 0x40 MLOAD DUP1 SWAP2 SUB SWAP1 RETURN JUMPDEST CALLVALUE DUP1 ISZERO PUSH2 0x136 JUMPI PUSH1 0x0 DUP1 REVERT JUMPDEST POP PUSH2 0x13F PUSH2 0x6DE JUMP JUMPDEST STOP JUMPDEST CALLVALUE DUP1 ISZERO PUSH2 0x14D JUMPI PUSH1 0x0 DUP1 REVERT JUMPDEST POP PUSH2 0x156 PUSH2 0x766 JUMP JUMPDEST PUSH1 0x40 MLOAD PUSH2 0x163 SWAP2 SWAP1 PUSH2 0xFDB JUMP JUMPDEST PUSH1 0x40 MLOAD DUP1 SWAP2 SUB SWAP1 RETURN JUMPDEST CALLVALUE DUP1 ISZERO PUSH2 0x178 JUMPI PUSH1 0x0 DUP1 REVERT JUMPDEST POP PUSH2 0x193 PUSH1 0x4 DUP1 CALLDATASIZE SUB DUP2 ADD SWAP1 PUSH2 0x18E SWAP2 SWAP1 PUSH2 0xE54 JUMP JUMPDEST PUSH2 0x78F JUMP JUMPDEST PUSH1 0x40 MLOAD PUSH2 0x1A6 SWAP8 SWAP7 SWAP6 SWAP5 SWAP4 SWAP3 SWAP2 SWAP1 PUSH2 0xFF6 JUMP JUMPDEST PUSH1 0x40 MLOAD DUP1 SWAP2 SUB SWAP1 RETURN JUMPDEST CALLVALUE DUP1 ISZERO PUSH2 0x1BB JUMPI PUSH1 0x0 DUP1 REVERT JUMPDEST POP PUSH2 0x1C4 PUSH2 0x999 JUMP JUMPDEST PUSH1 0x40 MLOAD PUSH2 0x1D1 SWAP2 SWAP1 PUSH2 0x1158 JUMP JUMPDEST PUSH1 0x40 MLOAD DUP1 SWAP2 SUB SWAP1 RETURN JUMPDEST CALLVALUE DUP1 ISZERO PUSH2 0x1E6 JUMPI PUSH1 0x0 DUP1 REVERT JUMPDEST POP PUSH2 0x201 PUSH1 0x4 DUP1 CALLDATASIZE SUB DUP2 ADD SWAP1 PUSH2 0x1FC SWAP2 SWAP1 PUSH2 0xD80 JUMP JUMPDEST PUSH2 0x9E7 JUMP JUMPDEST STOP JUMPDEST PUSH1 0x5 PUSH1 0x20 MSTORE DUP1 PUSH1 0x0 MSTORE PUSH1 0x40 PUSH1 0x0 KECCAK256 PUSH1 0x0 SWAP2 POP SWAP1 POP SLOAD DUP2 JUMP JUMPDEST PUSH1 0x0 PUSH1 0x1 PUSH1 0x5 PUSH1 0x0 CALLER PUSH20 0xFFFFFFFFFFFFFFFFFFFFFFFFFFFFFFFFFFFFFFFF AND PUSH20 0xFFFFFFFFFFFFFFFFFFFFFFFFFFFFFFFFFFFFFFFF AND DUP2 MSTORE PUSH1 0x20 ADD SWAP1 DUP2 MSTORE PUSH1 0x20 ADD PUSH1 0x0 KECCAK256 SLOAD LT PUSH2 0x29F JUMPI PUSH1 0x40 MLOAD PUSH32 0x8C379A000000000000000000000000000000000000000000000000000000000 DUP2 MSTORE PUSH1 0x4 ADD PUSH2 0x296 SWAP1 PUSH2 0x109C JUMP JUMPDEST PUSH1 0x40 MLOAD DUP1 SWAP2 SUB SWAP1 REVERT JUMPDEST PUSH1 0x4 PUSH1 0x40 MLOAD DUP1 PUSH1 0xE0 ADD PUSH1 0x40 MSTORE DUP1 CALLER PUSH20 0xFFFFFFFFFFFFFFFFFFFFFFFFFFFFFFFFFFFFFFFF AND DUP2 MSTORE PUSH1 0x20 ADD DUP7 DUP2 MSTORE PUSH1 0x20 ADD DUP6 DUP2 MSTORE PUSH1 0x20 ADD DUP5 DUP2 MSTORE PUSH1 0x20 ADD PUSH1 0x0 DUP2 MSTORE PUSH1 0x20 ADD PUSH1 0x0 DUP2 MSTORE PUSH1 0x20 ADD PUSH1 0x3 SLOAD TIMESTAMP PUSH2 0x2F6 SWAP2 SWAP1 PUSH2 0x11E5 JUMP JUMPDEST PUSH4 0xFFFFFFFF AND DUP2 MSTORE POP SWAP1 DUP1 PUSH1 0x1 DUP2 SLOAD ADD DUP1 DUP3 SSTORE DUP1 SWAP2 POP POP PUSH1 0x1 SWAP1 SUB SWAP1 PUSH1 0x0 MSTORE PUSH1 0x20 PUSH1 0x0 KECCAK256 SWAP1 PUSH1 0x7 MUL ADD PUSH1 0x0 SWAP1 SWAP2 SWAP1 SWAP2 SWAP1 SWAP2 POP PUSH1 0x0 DUP3 ADD MLOAD DUP2 PUSH1 0x0 ADD PUSH1 0x0 PUSH2 0x100 EXP DUP2 SLOAD DUP2 PUSH20 0xFFFFFFFFFFFFFFFFFFFFFFFFFFFFFFFFFFFFFFFF MUL NOT AND SWAP1 DUP4 PUSH20 0xFFFFFFFFFFFFFFFFFFFFFFFFFFFFFFFFFFFFFFFF AND MUL OR SWAP1 SSTORE POP PUSH1 0x20 DUP3 ADD MLOAD DUP2 PUSH1 0x1 ADD SWAP1 DUP1 MLOAD SWAP1 PUSH1 0x20 ADD SWAP1 PUSH2 0x38B SWAP3 SWAP2 SWAP1 PUSH2 0xC43 JUMP JUMPDEST POP PUSH1 0x40 DUP3 ADD MLOAD DUP2 PUSH1 0x2 ADD SWAP1 DUP1 MLOAD SWAP1 PUSH1 0x20 ADD SWAP1 PUSH2 0x3A8 SWAP3 SWAP2 SWAP1 PUSH2 0xC43 JUMP JUMPDEST POP PUSH1 0x60 DUP3 ADD MLOAD DUP2 PUSH1 0x3 ADD SWAP1 DUP1 MLOAD SWAP1 PUSH1 0x20 ADD SWAP1 PUSH2 0x3C5 SWAP3 SWAP2 SWAP1 PUSH2 0xC43 JUMP JUMPDEST POP PUSH1 0x80 DUP3 ADD MLOAD DUP2 PUSH1 0x4 ADD SSTORE PUSH1 0xA0 DUP3 ADD MLOAD DUP2 PUSH1 0x5 ADD SSTORE PUSH1 0xC0 DUP3 ADD MLOAD DUP2 PUSH1 0x6 ADD SSTORE POP POP PUSH1 0x5 PUSH1 0x0 CALLER PUSH20 0xFFFFFFFFFFFFFFFFFFFFFFFFFFFFFFFFFFFFFFFF AND PUSH20 0xFFFFFFFFFFFFFFFFFFFFFFFFFFFFFFFFFFFFFFFF AND DUP2 MSTORE PUSH1 0x20 ADD SWAP1 DUP2 MSTORE PUSH1 0x20 ADD PUSH1 0x0 KECCAK256 PUSH1 0x0 DUP2 SLOAD DUP1 SWAP3 SWAP2 SWAP1 PUSH2 0x436 SWAP1 PUSH2 0x13AA JUMP JUMPDEST SWAP2 SWAP1 POP SSTORE POP PUSH1 0x2 PUSH1 0x0 DUP2 SLOAD DUP1 SWAP3 SWAP2 SWAP1 PUSH2 0x44E SWAP1 PUSH2 0x13AA JUMP JUMPDEST SWAP2 SWAP1 POP SSTORE POP PUSH1 0x1 PUSH1 0x2 SLOAD PUSH2 0x462 SWAP2 SWAP1 PUSH2 0x1295 JUMP JUMPDEST SWAP1 POP SWAP4 SWAP3 POP POP POP JUMP JUMPDEST PUSH1 0x60 DUP2 CALLVALUE EQ PUSH2 0x479 JUMPI PUSH1 0x0 DUP1 REVERT JUMPDEST PUSH1 0x1 PUSH1 0x0 DUP2 SLOAD DUP1 SWAP3 SWAP2 SWAP1 PUSH2 0x48C SWAP1 PUSH2 0x13AA JUMP JUMPDEST SWAP2 SWAP1 POP SSTORE POP PUSH1 0x0 PUSH1 0x4 DUP1 SLOAD SWAP1 POP TIMESTAMP PUSH1 0x4 DUP1 SLOAD SWAP1 POP PUSH1 0x1 SLOAD PUSH1 0x40 MLOAD PUSH1 0x20 ADD PUSH2 0x4B5 SWAP4 SWAP3 SWAP2 SWAP1 PUSH2 0xF9E JUMP JUMPDEST PUSH1 0x40 MLOAD PUSH1 0x20 DUP2 DUP4 SUB SUB DUP2 MSTORE SWAP1 PUSH1 0x40 MSTORE DUP1 MLOAD SWAP1 PUSH1 0x20 ADD KECCAK256 PUSH1 0x0 SHR PUSH2 0x4D8 SWAP2 SWAP1 PUSH2 0x13FD JUMP JUMPDEST SWAP1 POP PUSH32 0x48084F79A9D1CF0B270D95D8FF3676560F09D91964C5C71AC7707D48F71300E4 DUP2 PUSH1 0x40 MLOAD PUSH2 0x509 SWAP2 SWAP1 PUSH2 0x1158 JUMP JUMPDEST PUSH1 0x40 MLOAD DUP1 SWAP2 SUB SWAP1 LOG1 PUSH1 0x1 PUSH1 0x0 DUP2 SLOAD DUP1 SWAP3 SWAP2 SWAP1 PUSH2 0x524 SWAP1 PUSH2 0x13AA JUMP JUMPDEST SWAP2 SWAP1 POP SSTORE POP PUSH1 0x0 PUSH1 0x2 SWAP1 POP PUSH1 0x0 DUP2 TIMESTAMP DUP4 PUSH1 0x1 SLOAD PUSH1 0x40 MLOAD PUSH1 0x20 ADD PUSH2 0x549 SWAP4 SWAP3 SWAP2 SWAP1 PUSH2 0xF9E JUMP JUMPDEST PUSH1 0x40 MLOAD PUSH1 0x20 DUP2 DUP4 SUB SUB DUP2 MSTORE SWAP1 PUSH1 0x40 MSTORE DUP1 MLOAD SWAP1 PUSH1 0x20 ADD KECCAK256 PUSH1 0x0 SHR PUSH2 0x56C SWAP2 SWAP1 PUSH2 0x13FD JUMP JUMPDEST SWAP1 POP PUSH1 0x0 JUMPDEST PUSH1 0x4 DUP1 SLOAD SWAP1 POP DUP2 LT ISZERO PUSH2 0x6D4 JUMPI PUSH1 0x4 DUP2 DUP2 SLOAD DUP2 LT PUSH2 0x592 JUMPI PUSH2 0x591 PUSH2 0x14BB JUMP JUMPDEST JUMPDEST SWAP1 PUSH1 0x0 MSTORE PUSH1 0x20 PUSH1 0x0 KECCAK256 SWAP1 PUSH1 0x7 MUL ADD PUSH1 0x0 ADD PUSH1 0x0 SWAP1 SLOAD SWAP1 PUSH2 0x100 EXP SWAP1 DIV PUSH20 0xFFFFFFFFFFFFFFFFFFFFFFFFFFFFFFFFFFFFFFFF AND PUSH20 0xFFFFFFFFFFFFFFFFFFFFFFFFFFFFFFFFFFFFFFFF AND CALLER PUSH20 0xFFFFFFFFFFFFFFFFFFFFFFFFFFFFFFFFFFFFFFFF AND EQ ISZERO PUSH2 0x6C1 JUMPI PUSH1 0x0 DUP3 EQ ISZERO PUSH2 0x649 JUMPI PUSH2 0x608 PUSH2 0xADF JUMP JUMPDEST PUSH1 0x40 MLOAD DUP1 PUSH1 0x40 ADD PUSH1 0x40 MSTORE DUP1 PUSH1 0xA DUP2 MSTORE PUSH1 0x20 ADD PUSH32 0x4861732067616E61646F00000000000000000000000000000000000000000000 DUP2 MSTORE POP SWAP5 POP POP POP POP POP PUSH2 0x6D9 JUMP JUMPDEST PUSH32 0xA28482EEC3136A2461C6C30C08F71BA279C6C51A2D9C7BEA4E50D6D2632F3896 DUP5 PUSH1 0x40 MLOAD PUSH2 0x678 SWAP2 SWAP1 PUSH2 0x112A JUMP JUMPDEST PUSH1 0x40 MLOAD DUP1 SWAP2 SUB SWAP1 LOG1 PUSH1 0x40 MLOAD DUP1 PUSH1 0x40 ADD PUSH1 0x40 MSTORE DUP1 PUSH1 0xB DUP2 MSTORE PUSH1 0x20 ADD PUSH32 0x486173207065726469646F000000000000000000000000000000000000000000 DUP2 MSTORE POP SWAP5 POP POP POP POP POP PUSH2 0x6D9 JUMP JUMPDEST DUP1 DUP1 PUSH2 0x6CC SWAP1 PUSH2 0x13AA JUMP JUMPDEST SWAP2 POP POP PUSH2 0x571 JUMP JUMPDEST POP POP POP POP JUMPDEST SWAP2 SWAP1 POP JUMP JUMPDEST PUSH2 0x6E6 PUSH2 0xB77 JUMP JUMPDEST PUSH20 0xFFFFFFFFFFFFFFFFFFFFFFFFFFFFFFFFFFFFFFFF AND PUSH2 0x704 PUSH2 0x766 JUMP JUMPDEST PUSH20 0xFFFFFFFFFFFFFFFFFFFFFFFFFFFFFFFFFFFFFFFF AND EQ PUSH2 0x75A JUMPI PUSH1 0x40 MLOAD PUSH32 0x8C379A000000000000000000000000000000000000000000000000000000000 DUP2 MSTORE PUSH1 0x4 ADD PUSH2 0x751 SWAP1 PUSH2 0x110A JUMP JUMPDEST PUSH1 0x40 MLOAD DUP1 SWAP2 SUB SWAP1 REVERT JUMPDEST PUSH2 0x764 PUSH1 0x0 PUSH2 0xB7F JUMP JUMPDEST JUMP JUMPDEST PUSH1 0x0 DUP1 PUSH1 0x0 SWAP1 SLOAD SWAP1 PUSH2 0x100 EXP SWAP1 DIV PUSH20 0xFFFFFFFFFFFFFFFFFFFFFFFFFFFFFFFFFFFFFFFF AND SWAP1 POP SWAP1 JUMP JUMPDEST PUSH1 0x4 DUP2 DUP2 SLOAD DUP2 LT PUSH2 0x79F JUMPI PUSH1 0x0 DUP1 REVERT JUMPDEST SWAP1 PUSH1 0x0 MSTORE PUSH1 0x20 PUSH1 0x0 KECCAK256 SWAP1 PUSH1 0x7 MUL ADD PUSH1 0x0 SWAP2 POP SWAP1 POP DUP1 PUSH1 0x0 ADD PUSH1 0x0 SWAP1 SLOAD SWAP1 PUSH2 0x100 EXP SWAP1 DIV PUSH20 0xFFFFFFFFFFFFFFFFFFFFFFFFFFFFFFFFFFFFFFFF AND SWAP1 DUP1 PUSH1 0x1 ADD DUP1 SLOAD PUSH2 0x7E8 SWAP1 PUSH2 0x1347 JUMP JUMPDEST DUP1 PUSH1 0x1F ADD PUSH1 0x20 DUP1 SWAP2 DIV MUL PUSH1 0x20 ADD PUSH1 0x40 MLOAD SWAP1 DUP2 ADD PUSH1 0x40 MSTORE DUP1 SWAP3 SWAP2 SWAP1 DUP2 DUP2 MSTORE PUSH1 0x20 ADD DUP3 DUP1 SLOAD PUSH2 0x814 SWAP1 PUSH2 0x1347 JUMP JUMPDEST DUP1 ISZERO PUSH2 0x861 JUMPI DUP1 PUSH1 0x1F LT PUSH2 0x836 JUMPI PUSH2 0x100 DUP1 DUP4 SLOAD DIV MUL DUP4 MSTORE SWAP2 PUSH1 0x20 ADD SWAP2 PUSH2 0x861 JUMP JUMPDEST DUP3 ADD SWAP2 SWAP1 PUSH1 0x0 MSTORE PUSH1 0x20 PUSH1 0x0 KECCAK256 SWAP1 JUMPDEST DUP2 SLOAD DUP2 MSTORE SWAP1 PUSH1 0x1 ADD SWAP1 PUSH1 0x20 ADD DUP1 DUP4 GT PUSH2 0x844 JUMPI DUP3 SWAP1 SUB PUSH1 0x1F AND DUP3 ADD SWAP2 JUMPDEST POP POP POP POP POP SWAP1 DUP1 PUSH1 0x2 ADD DUP1 SLOAD PUSH2 0x876 SWAP1 PUSH2 0x1347 JUMP JUMPDEST DUP1 PUSH1 0x1F ADD PUSH1 0x20 DUP1 SWAP2 DIV MUL PUSH1 0x20 ADD PUSH1 0x40 MLOAD SWAP1 DUP2 ADD PUSH1 0x40 MSTORE DUP1 SWAP3 SWAP2 SWAP1 DUP2 DUP2 MSTORE PUSH1 0x20 ADD DUP3 DUP1 SLOAD PUSH2 0x8A2 SWAP1 PUSH2 0x1347 JUMP JUMPDEST DUP1 ISZERO PUSH2 0x8EF JUMPI DUP1 PUSH1 0x1F LT PUSH2 0x8C4 JUMPI PUSH2 0x100 DUP1 DUP4 SLOAD DIV MUL DUP4 MSTORE SWAP2 PUSH1 0x20 ADD SWAP2 PUSH2 0x8EF JUMP JUMPDEST DUP3 ADD SWAP2 SWAP1 PUSH1 0x0 MSTORE PUSH1 0x20 PUSH1 0x0 KECCAK256 SWAP1 JUMPDEST DUP2 SLOAD DUP2 MSTORE SWAP1 PUSH1 0x1 ADD SWAP1 PUSH1 0x20 ADD DUP1 DUP4 GT PUSH2 0x8D2 JUMPI DUP3 SWAP1 SUB PUSH1 0x1F AND DUP3 ADD SWAP2 JUMPDEST POP POP POP POP POP SWAP1 DUP1 PUSH1 0x3 ADD DUP1 SLOAD PUSH2 0x904 SWAP1 PUSH2 0x1347 JUMP JUMPDEST DUP1 PUSH1 0x1F ADD PUSH1 0x20 DUP1 SWAP2 DIV MUL PUSH1 0x20 ADD PUSH1 0x40 MLOAD SWAP1 DUP2 ADD PUSH1 0x40 MSTORE DUP1 SWAP3 SWAP2 SWAP1 DUP2 DUP2 MSTORE PUSH1 0x20 ADD DUP3 DUP1 SLOAD PUSH2 0x930 SWAP1 PUSH2 0x1347 JUMP JUMPDEST DUP1 ISZERO PUSH2 0x97D JUMPI DUP1 PUSH1 0x1F LT PUSH2 0x952 JUMPI PUSH2 0x100 DUP1 DUP4 SLOAD DIV MUL DUP4 MSTORE SWAP2 PUSH1 0x20 ADD SWAP2 PUSH2 0x97D JUMP JUMPDEST DUP3 ADD SWAP2 SWAP1 PUSH1 0x0 MSTORE PUSH1 0x20 PUSH1 0x0 KECCAK256 SWAP1 JUMPDEST DUP2 SLOAD DUP2 MSTORE SWAP1 PUSH1 0x1 ADD SWAP1 PUSH1 0x20 ADD DUP1 DUP4 GT PUSH2 0x960 JUMPI DUP3 SWAP1 SUB PUSH1 0x1F AND DUP3 ADD SWAP2 JUMPDEST POP POP POP POP POP SWAP1 DUP1 PUSH1 0x4 ADD SLOAD SWAP1 DUP1 PUSH1 0x5 ADD SLOAD SWAP1 DUP1 PUSH1 0x6 ADD SLOAD SWAP1 POP DUP8 JUMP JUMPDEST PUSH1 0x0 DUP1 PUSH1 0x2 SWAP1 POP PUSH1 0x0 DUP2 TIMESTAMP DUP4 PUSH1 0x1 SLOAD PUSH1 0x40 MLOAD PUSH1 0x20 ADD PUSH2 0x9BA SWAP4 SWAP3 SWAP2 SWAP1 PUSH2 0xF9E JUMP JUMPDEST PUSH1 0x40 MLOAD PUSH1 0x20 DUP2 DUP4 SUB SUB DUP2 MSTORE SWAP1 PUSH1 0x40 MSTORE DUP1 MLOAD SWAP1 PUSH1 0x20 ADD KECCAK256 PUSH1 0x0 SHR PUSH2 0x9DD SWAP2 SWAP1 PUSH2 0x13FD JUMP JUMPDEST SWAP1 POP DUP1 SWAP3 POP POP POP SWAP1 JUMP JUMPDEST PUSH2 0x9EF PUSH2 0xB77 JUMP JUMPDEST PUSH20 0xFFFFFFFFFFFFFFFFFFFFFFFFFFFFFFFFFFFFFFFF AND PUSH2 0xA0D PUSH2 0x766 JUMP JUMPDEST PUSH20 0xFFFFFFFFFFFFFFFFFFFFFFFFFFFFFFFFFFFFFFFF AND EQ PUSH2 0xA63 JUMPI PUSH1 0x40 MLOAD PUSH32 0x8C379A000000000000000000000000000000000000000000000000000000000 DUP2 MSTORE PUSH1 0x4 ADD PUSH2 0xA5A SWAP1 PUSH2 0x110A JUMP JUMPDEST PUSH1 0x40 MLOAD DUP1 SWAP2 SUB SWAP1 REVERT JUMPDEST PUSH1 0x0 PUSH20 0xFFFFFFFFFFFFFFFFFFFFFFFFFFFFFFFFFFFFFFFF AND DUP2 PUSH20 0xFFFFFFFFFFFFFFFFFFFFFFFFFFFFFFFFFFFFFFFF AND EQ ISZERO PUSH2 0xAD3 JUMPI PUSH1 0x40 MLOAD PUSH32 0x8C379A000000000000000000000000000000000000000000000000000000000 DUP2 MSTORE PUSH1 0x4 ADD PUSH2 0xACA SWAP1 PUSH2 0x10BC JUMP JUMPDEST PUSH1 0x40 MLOAD DUP1 SWAP2 SUB SWAP1 REVERT JUMPDEST PUSH2 0xADC DUP2 PUSH2 0xB7F JUMP JUMPDEST POP JUMP JUMPDEST CALLER PUSH20 0xFFFFFFFFFFFFFFFFFFFFFFFFFFFFFFFFFFFFFFFF AND PUSH2 0x8FC PUSH1 0x2 SELFBALANCE PUSH2 0xB06 SWAP2 SWAP1 PUSH2 0x123B JUMP JUMPDEST SWAP1 DUP2 ISZERO MUL SWAP1 PUSH1 0x40 MLOAD PUSH1 0x0 PUSH1 0x40 MLOAD DUP1 DUP4 SUB DUP2 DUP6 DUP9 DUP9 CALL SWAP4 POP POP POP POP ISZERO DUP1 ISZERO PUSH2 0xB31 JUMPI RETURNDATASIZE PUSH1 0x0 DUP1 RETURNDATACOPY RETURNDATASIZE PUSH1 0x0 REVERT JUMPDEST POP PUSH32 0xA28482EEC3136A2461C6C30C08F71BA279C6C51A2D9C7BEA4E50D6D2632F3896 PUSH1 0x2 SELFBALANCE PUSH2 0xB60 SWAP2 SWAP1 PUSH2 0x123B JUMP JUMPDEST PUSH1 0x40 MLOAD PUSH2 0xB6D SWAP2 SWAP1 PUSH2 0x10DC JUMP JUMPDEST PUSH1 0x40 MLOAD DUP1 SWAP2 SUB SWAP1 LOG1 JUMP JUMPDEST PUSH1 0x0 CALLER SWAP1 POP SWAP1 JUMP JUMPDEST PUSH1 0x0 DUP1 PUSH1 0x0 SWAP1 SLOAD SWAP1 PUSH2 0x100 EXP SWAP1 DIV PUSH20 0xFFFFFFFFFFFFFFFFFFFFFFFFFFFFFFFFFFFFFFFF AND SWAP1 POP DUP2 PUSH1 0x0 DUP1 PUSH2 0x100 EXP DUP2 SLOAD DUP2 PUSH20 0xFFFFFFFFFFFFFFFFFFFFFFFFFFFFFFFFFFFFFFFF MUL NOT AND SWAP1 DUP4 PUSH20 0xFFFFFFFFFFFFFFFFFFFFFFFFFFFFFFFFFFFFFFFF AND MUL OR SWAP1 SSTORE POP DUP2 PUSH20 0xFFFFFFFFFFFFFFFFFFFFFFFFFFFFFFFFFFFFFFFF AND DUP2 PUSH20 0xFFFFFFFFFFFFFFFFFFFFFFFFFFFFFFFFFFFFFFFF AND PUSH32 0x8BE0079C531659141344CD1FD0A4F28419497F9722A3DAAFE3B4186F6B6457E0 PUSH1 0x40 MLOAD PUSH1 0x40 MLOAD DUP1 SWAP2 SUB SWAP1 LOG3 POP POP JUMP JUMPDEST DUP3 DUP1 SLOAD PUSH2 0xC4F SWAP1 PUSH2 0x1347 JUMP JUMPDEST SWAP1 PUSH1 0x0 MSTORE PUSH1 0x20 PUSH1 0x0 KECCAK256 SWAP1 PUSH1 0x1F ADD PUSH1 0x20 SWAP1 DIV DUP2 ADD SWAP3 DUP3 PUSH2 0xC71 JUMPI PUSH1 0x0 DUP6 SSTORE PUSH2 0xCB8 JUMP JUMPDEST DUP3 PUSH1 0x1F LT PUSH2 0xC8A JUMPI DUP1 MLOAD PUSH1 0xFF NOT AND DUP4 DUP1 ADD OR DUP6 SSTORE PUSH2 0xCB8 JUMP JUMPDEST DUP3 DUP1 ADD PUSH1 0x1 ADD DUP6 SSTORE DUP3 ISZERO PUSH2 0xCB8 JUMPI SWAP2 DUP3 ADD JUMPDEST DUP3 DUP2 GT ISZERO PUSH2 0xCB7 JUMPI DUP3 MLOAD DUP3 SSTORE SWAP2 PUSH1 0x20 ADD SWAP2 SWAP1 PUSH1 0x1 ADD SWAP1 PUSH2 0xC9C JUMP JUMPDEST JUMPDEST POP SWAP1 POP PUSH2 0xCC5 SWAP2 SWAP1 PUSH2 0xCC9 JUMP JUMPDEST POP SWAP1 JUMP JUMPDEST JUMPDEST DUP1 DUP3 GT ISZERO PUSH2 0xCE2 JUMPI PUSH1 0x0 DUP2 PUSH1 0x0 SWAP1 SSTORE POP PUSH1 0x1 ADD PUSH2 0xCCA JUMP JUMPDEST POP SWAP1 JUMP JUMPDEST PUSH1 0x0 PUSH2 0xCF9 PUSH2 0xCF4 DUP5 PUSH2 0x1198 JUMP JUMPDEST PUSH2 0x1173 JUMP JUMPDEST SWAP1 POP DUP3 DUP2 MSTORE PUSH1 0x20 DUP2 ADD DUP5 DUP5 DUP5 ADD GT ISZERO PUSH2 0xD15 JUMPI PUSH2 0xD14 PUSH2 0x151E JUMP JUMPDEST JUMPDEST PUSH2 0xD20 DUP5 DUP3 DUP6 PUSH2 0x1305 JUMP JUMPDEST POP SWAP4 SWAP3 POP POP POP JUMP JUMPDEST PUSH1 0x0 DUP2 CALLDATALOAD SWAP1 POP PUSH2 0xD37 DUP2 PUSH2 0x1657 JUMP JUMPDEST SWAP3 SWAP2 POP POP JUMP JUMPDEST PUSH1 0x0 DUP3 PUSH1 0x1F DUP4 ADD SLT PUSH2 0xD52 JUMPI PUSH2 0xD51 PUSH2 0x1519 JUMP JUMPDEST JUMPDEST DUP2 CALLDATALOAD PUSH2 0xD62 DUP5 DUP3 PUSH1 0x20 DUP7 ADD PUSH2 0xCE6 JUMP JUMPDEST SWAP2 POP POP SWAP3 SWAP2 POP POP JUMP JUMPDEST PUSH1 0x0 DUP2 CALLDATALOAD SWAP1 POP PUSH2 0xD7A DUP2 PUSH2 0x166E JUMP JUMPDEST SWAP3 SWAP2 POP POP JUMP JUMPDEST PUSH1 0x0 PUSH1 0x20 DUP3 DUP5 SUB SLT ISZERO PUSH2 0xD96 JUMPI PUSH2 0xD95 PUSH2 0x1528 JUMP JUMPDEST JUMPDEST PUSH1 0x0 PUSH2 0xDA4 DUP5 DUP3 DUP6 ADD PUSH2 0xD28 JUMP JUMPDEST SWAP2 POP POP SWAP3 SWAP2 POP POP JUMP JUMPDEST PUSH1 0x0 DUP1 PUSH1 0x0 PUSH1 0x60 DUP5 DUP7 SUB SLT ISZERO PUSH2 0xDC6 JUMPI PUSH2 0xDC5 PUSH2 0x1528 JUMP JUMPDEST JUMPDEST PUSH1 0x0 DUP5 ADD CALLDATALOAD PUSH8 0xFFFFFFFFFFFFFFFF DUP2 GT ISZERO PUSH2 0xDE4 JUMPI PUSH2 0xDE3 PUSH2 0x1523 JUMP JUMPDEST JUMPDEST PUSH2 0xDF0 DUP7 DUP3 DUP8 ADD PUSH2 0xD3D JUMP JUMPDEST SWAP4 POP POP PUSH1 0x20 DUP5 ADD CALLDATALOAD PUSH8 0xFFFFFFFFFFFFFFFF DUP2 GT ISZERO PUSH2 0xE11 JUMPI PUSH2 0xE10 PUSH2 0x1523 JUMP JUMPDEST JUMPDEST PUSH2 0xE1D DUP7 DUP3 DUP8 ADD PUSH2 0xD3D JUMP JUMPDEST SWAP3 POP POP PUSH1 0x40 DUP5 ADD CALLDATALOAD PUSH8 0xFFFFFFFFFFFFFFFF DUP2 GT ISZERO PUSH2 0xE3E JUMPI PUSH2 0xE3D PUSH2 0x1523 JUMP JUMPDEST JUMPDEST PUSH2 0xE4A DUP7 DUP3 DUP8 ADD PUSH2 0xD3D JUMP JUMPDEST SWAP2 POP POP SWAP3 POP SWAP3 POP SWAP3 JUMP JUMPDEST PUSH1 0x0 PUSH1 0x20 DUP3 DUP5 SUB SLT ISZERO PUSH2 0xE6A JUMPI PUSH2 0xE69 PUSH2 0x1528 JUMP JUMPDEST JUMPDEST PUSH1 0x0 PUSH2 0xE78 DUP5 DUP3 DUP6 ADD PUSH2 0xD6B JUMP JUMPDEST SWAP2 POP POP SWAP3 SWAP2 POP POP JUMP JUMPDEST PUSH2 0xE8A DUP2 PUSH2 0x12C9 JUMP JUMPDEST DUP3 MSTORE POP POP JUMP JUMPDEST PUSH1 0x0 PUSH2 0xE9B DUP3 PUSH2 0x11C9 JUMP JUMPDEST PUSH2 0xEA5 DUP2 DUP6 PUSH2 0x11D4 JUMP JUMPDEST SWAP4 POP PUSH2 0xEB5 DUP2 DUP6 PUSH1 0x20 DUP7 ADD PUSH2 0x1314 JUMP JUMPDEST PUSH2 0xEBE DUP2 PUSH2 0x152D JUMP JUMPDEST DUP5 ADD SWAP2 POP POP SWAP3 SWAP2 POP POP JUMP JUMPDEST PUSH1 0x0 PUSH2 0xED6 PUSH1 0x28 DUP4 PUSH2 0x11D4 JUMP JUMPDEST SWAP2 POP PUSH2 0xEE1 DUP3 PUSH2 0x153E JUMP JUMPDEST PUSH1 0x40 DUP3 ADD SWAP1 POP SWAP2 SWAP1 POP JUMP JUMPDEST PUSH1 0x0 PUSH2 0xEF9 PUSH1 0x26 DUP4 PUSH2 0x11D4 JUMP JUMPDEST SWAP2 POP PUSH2 0xF04 DUP3 PUSH2 0x158D JUMP JUMPDEST PUSH1 0x40 DUP3 ADD SWAP1 POP SWAP2 SWAP1 POP JUMP JUMPDEST PUSH1 0x0 PUSH2 0xF1C PUSH1 0xC DUP4 PUSH2 0x11D4 JUMP JUMPDEST SWAP2 POP PUSH2 0xF27 DUP3 PUSH2 0x15DC JUMP JUMPDEST PUSH1 0x20 DUP3 ADD SWAP1 POP SWAP2 SWAP1 POP JUMP JUMPDEST PUSH1 0x0 PUSH2 0xF3F PUSH1 0x20 DUP4 PUSH2 0x11D4 JUMP JUMPDEST SWAP2 POP PUSH2 0xF4A DUP3 PUSH2 0x1605 JUMP JUMPDEST PUSH1 0x20 DUP3 ADD SWAP1 POP SWAP2 SWAP1 POP JUMP JUMPDEST PUSH1 0x0 PUSH2 0xF62 PUSH1 0x15 DUP4 PUSH2 0x11D4 JUMP JUMPDEST SWAP2 POP PUSH2 0xF6D DUP3 PUSH2 0x162E JUMP JUMPDEST PUSH1 0x20 DUP3 ADD SWAP1 POP SWAP2 SWAP1 POP JUMP JUMPDEST PUSH2 0xF81 DUP2 PUSH2 0x12FB JUMP JUMPDEST DUP3 MSTORE POP POP JUMP JUMPDEST PUSH2 0xF98 PUSH2 0xF93 DUP3 PUSH2 0x12FB JUMP JUMPDEST PUSH2 0x13F3 JUMP JUMPDEST DUP3 MSTORE POP POP JUMP JUMPDEST PUSH1 0x0 PUSH2 0xFAA DUP3 DUP7 PUSH2 0xF87 JUMP JUMPDEST PUSH1 0x20 DUP3 ADD SWAP2 POP PUSH2 0xFBA DUP3 DUP6 PUSH2 0xF87 JUMP JUMPDEST PUSH1 0x20 DUP3 ADD SWAP2 POP PUSH2 0xFCA DUP3 DUP5 PUSH2 0xF87 JUMP JUMPDEST PUSH1 0x20 DUP3 ADD SWAP2 POP DUP2 SWAP1 POP SWAP5 SWAP4 POP POP POP POP JUMP JUMPDEST PUSH1 0x0 PUSH1 0x20 DUP3 ADD SWAP1 POP PUSH2 0xFF0 PUSH1 0x0 DUP4 ADD DUP5 PUSH2 0xE81 JUMP JUMPDEST SWAP3 SWAP2 POP POP JUMP JUMPDEST PUSH1 0x0 PUSH1 0xE0 DUP3 ADD SWAP1 POP PUSH2 0x100B PUSH1 0x0 DUP4 ADD DUP11 PUSH2 0xE81 JUMP JUMPDEST DUP2 DUP2 SUB PUSH1 0x20 DUP4 ADD MSTORE PUSH2 0x101D DUP2 DUP10 PUSH2 0xE90 JUMP JUMPDEST SWAP1 POP DUP2 DUP2 SUB PUSH1 0x40 DUP4 ADD MSTORE PUSH2 0x1031 DUP2 DUP9 PUSH2 0xE90 JUMP JUMPDEST SWAP1 POP DUP2 DUP2 SUB PUSH1 0x60 DUP4 ADD MSTORE PUSH2 0x1045 DUP2 DUP8 PUSH2 0xE90 JUMP JUMPDEST SWAP1 POP PUSH2 0x1054 PUSH1 0x80 DUP4 ADD DUP7 PUSH2 0xF78 JUMP JUMPDEST PUSH2 0x1061 PUSH1 0xA0 DUP4 ADD DUP6 PUSH2 0xF78 JUMP JUMPDEST PUSH2 0x106E PUSH1 0xC0 DUP4 ADD DUP5 PUSH2 0xF78 JUMP JUMPDEST SWAP9 SWAP8 POP POP POP POP POP POP POP POP JUMP JUMPDEST PUSH1 0x0 PUSH1 0x20 DUP3 ADD SWAP1 POP DUP2 DUP2 SUB PUSH1 0x0 DUP4 ADD MSTORE PUSH2 0x1094 DUP2 DUP5 PUSH2 0xE90 JUMP JUMPDEST SWAP1 POP SWAP3 SWAP2 POP POP JUMP JUMPDEST PUSH1 0x0 PUSH1 0x20 DUP3 ADD SWAP1 POP DUP2 DUP2 SUB PUSH1 0x0 DUP4 ADD MSTORE PUSH2 0x10B5 DUP2 PUSH2 0xEC9 JUMP JUMPDEST SWAP1 POP SWAP2 SWAP1 POP JUMP JUMPDEST PUSH1 0x0 PUSH1 0x20 DUP3 ADD SWAP1 POP DUP2 DUP2 SUB PUSH1 0x0 DUP4 ADD MSTORE PUSH2 0x10D5 DUP2 PUSH2 0xEEC JUMP JUMPDEST SWAP1 POP SWAP2 SWAP1 POP JUMP JUMPDEST PUSH1 0x0 PUSH1 0x40 DUP3 ADD SWAP1 POP DUP2 DUP2 SUB PUSH1 0x0 DUP4 ADD MSTORE PUSH2 0x10F5 DUP2 PUSH2 0xF0F JUMP JUMPDEST SWAP1 POP PUSH2 0x1104 PUSH1 0x20 DUP4 ADD DUP5 PUSH2 0xF78 JUMP JUMPDEST SWAP3 SWAP2 POP POP JUMP JUMPDEST PUSH1 0x0 PUSH1 0x20 DUP3 ADD SWAP1 POP DUP2 DUP2 SUB PUSH1 0x0 DUP4 ADD MSTORE PUSH2 0x1123 DUP2 PUSH2 0xF32 JUMP JUMPDEST SWAP1 POP SWAP2 SWAP1 POP JUMP JUMPDEST PUSH1 0x0 PUSH1 0x40 DUP3 ADD SWAP1 POP DUP2 DUP2 SUB PUSH1 0x0 DUP4 ADD MSTORE PUSH2 0x1143 DUP2 PUSH2 0xF55 JUMP JUMPDEST SWAP1 POP PUSH2 0x1152 PUSH1 0x20 DUP4 ADD DUP5 PUSH2 0xF78 JUMP JUMPDEST SWAP3 SWAP2 POP POP JUMP JUMPDEST PUSH1 0x0 PUSH1 0x20 DUP3 ADD SWAP1 POP PUSH2 0x116D PUSH1 0x0 DUP4 ADD DUP5 PUSH2 0xF78 JUMP JUMPDEST SWAP3 SWAP2 POP POP JUMP JUMPDEST PUSH1 0x0 PUSH2 0x117D PUSH2 0x118E JUMP JUMPDEST SWAP1 POP PUSH2 0x1189 DUP3 DUP3 PUSH2 0x1379 JUMP JUMPDEST SWAP2 SWAP1 POP JUMP JUMPDEST PUSH1 0x0 PUSH1 0x40 MLOAD SWAP1 POP SWAP1 JUMP JUMPDEST PUSH1 0x0 PUSH8 0xFFFFFFFFFFFFFFFF DUP3 GT ISZERO PUSH2 0x11B3 JUMPI PUSH2 0x11B2 PUSH2 0x14EA JUMP JUMPDEST JUMPDEST PUSH2 0x11BC DUP3 PUSH2 0x152D JUMP JUMPDEST SWAP1 POP PUSH1 0x20 DUP2 ADD SWAP1 POP SWAP2 SWAP1 POP JUMP JUMPDEST PUSH1 0x0 DUP2 MLOAD SWAP1 POP SWAP2 SWAP1 POP JUMP JUMPDEST PUSH1 0x0 DUP3 DUP3 MSTORE PUSH1 0x20 DUP3 ADD SWAP1 POP SWAP3 SWAP2 POP POP JUMP JUMPDEST PUSH1 0x0 PUSH2 0x11F0 DUP3 PUSH2 0x12FB JUMP JUMPDEST SWAP2 POP PUSH2 0x11FB DUP4 PUSH2 0x12FB JUMP JUMPDEST SWAP3 POP DUP3 PUSH32 0xFFFFFFFFFFFFFFFFFFFFFFFFFFFFFFFFFFFFFFFFFFFFFFFFFFFFFFFFFFFFFFFF SUB DUP3 GT ISZERO PUSH2 0x1230 JUMPI PUSH2 0x122F PUSH2 0x142E JUMP JUMPDEST JUMPDEST DUP3 DUP3 ADD SWAP1 POP SWAP3 SWAP2 POP POP JUMP JUMPDEST PUSH1 0x0 PUSH2 0x1246 DUP3 PUSH2 0x12FB JUMP JUMPDEST SWAP2 POP PUSH2 0x1251 DUP4 PUSH2 0x12FB JUMP JUMPDEST SWAP3 POP DUP2 PUSH32 0xFFFFFFFFFFFFFFFFFFFFFFFFFFFFFFFFFFFFFFFFFFFFFFFFFFFFFFFFFFFFFFFF DIV DUP4 GT DUP3 ISZERO ISZERO AND ISZERO PUSH2 0x128A JUMPI PUSH2 0x1289 PUSH2 0x142E JUMP JUMPDEST JUMPDEST DUP3 DUP3 MUL SWAP1 POP SWAP3 SWAP2 POP POP JUMP JUMPDEST PUSH1 0x0 PUSH2 0x12A0 DUP3 PUSH2 0x12FB JUMP JUMPDEST SWAP2 POP PUSH2 0x12AB DUP4 PUSH2 0x12FB JUMP JUMPDEST SWAP3 POP DUP3 DUP3 LT ISZERO PUSH2 0x12BE JUMPI PUSH2 0x12BD PUSH2 0x142E JUMP JUMPDEST JUMPDEST DUP3 DUP3 SUB SWAP1 POP SWAP3 SWAP2 POP POP JUMP JUMPDEST PUSH1 0x0 PUSH2 0x12D4 DUP3 PUSH2 0x12DB JUMP JUMPDEST SWAP1 POP SWAP2 SWAP1 POP JUMP JUMPDEST PUSH1 0x0 PUSH20 0xFFFFFFFFFFFFFFFFFFFFFFFFFFFFFFFFFFFFFFFF DUP3 AND SWAP1 POP SWAP2 SWAP1 POP JUMP JUMPDEST PUSH1 0x0 DUP2 SWAP1 POP SWAP2 SWAP1 POP JUMP JUMPDEST DUP3 DUP2 DUP4 CALLDATACOPY PUSH1 0x0 DUP4 DUP4 ADD MSTORE POP POP POP JUMP JUMPDEST PUSH1 0x0 JUMPDEST DUP4 DUP2 LT ISZERO PUSH2 0x1332 JUMPI DUP1 DUP3 ADD MLOAD DUP2 DUP5 ADD MSTORE PUSH1 0x20 DUP2 ADD SWAP1 POP PUSH2 0x1317 JUMP JUMPDEST DUP4 DUP2 GT ISZERO PUSH2 0x1341 JUMPI PUSH1 0x0 DUP5 DUP5 ADD MSTORE JUMPDEST POP POP POP POP JUMP JUMPDEST PUSH1 0x0 PUSH1 0x2 DUP3 DIV SWAP1 POP PUSH1 0x1 DUP3 AND DUP1 PUSH2 0x135F JUMPI PUSH1 0x7F DUP3 AND SWAP2 POP JUMPDEST PUSH1 0x20 DUP3 LT DUP2 EQ ISZERO PUSH2 0x1373 JUMPI PUSH2 0x1372 PUSH2 0x148C JUMP JUMPDEST JUMPDEST POP SWAP2 SWAP1 POP JUMP JUMPDEST PUSH2 0x1382 DUP3 PUSH2 0x152D JUMP JUMPDEST DUP2 ADD DUP2 DUP2 LT PUSH8 0xFFFFFFFFFFFFFFFF DUP3 GT OR ISZERO PUSH2 0x13A1 JUMPI PUSH2 0x13A0 PUSH2 0x14EA JUMP JUMPDEST JUMPDEST DUP1 PUSH1 0x40 MSTORE POP POP POP JUMP JUMPDEST PUSH1 0x0 PUSH2 0x13B5 DUP3 PUSH2 0x12FB JUMP JUMPDEST SWAP2 POP PUSH32 0xFFFFFFFFFFFFFFFFFFFFFFFFFFFFFFFFFFFFFFFFFFFFFFFFFFFFFFFFFFFFFFFF DUP3 EQ ISZERO PUSH2 0x13E8 JUMPI PUSH2 0x13E7 PUSH2 0x142E JUMP JUMPDEST JUMPDEST PUSH1 0x1 DUP3 ADD SWAP1 POP SWAP2 SWAP1 POP JUMP JUMPDEST PUSH1 0x0 DUP2 SWAP1 POP SWAP2 SWAP1 POP JUMP JUMPDEST PUSH1 0x0 PUSH2 0x1408 DUP3 PUSH2 0x12FB JUMP JUMPDEST SWAP2 POP PUSH2 0x1413 DUP4 PUSH2 0x12FB JUMP JUMPDEST SWAP3 POP DUP3 PUSH2 0x1423 JUMPI PUSH2 0x1422 PUSH2 0x145D JUMP JUMPDEST JUMPDEST DUP3 DUP3 MOD SWAP1 POP SWAP3 SWAP2 POP POP JUMP JUMPDEST PUSH32 0x4E487B7100000000000000000000000000000000000000000000000000000000 PUSH1 0x0 MSTORE PUSH1 0x11 PUSH1 0x4 MSTORE PUSH1 0x24 PUSH1 0x0 REVERT JUMPDEST PUSH32 0x4E487B7100000000000000000000000000000000000000000000000000000000 PUSH1 0x0 MSTORE PUSH1 0x12 PUSH1 0x4 MSTORE PUSH1 0x24 PUSH1 0x0 REVERT JUMPDEST PUSH32 0x4E487B7100000000000000000000000000000000000000000000000000000000 PUSH1 0x0 MSTORE PUSH1 0x22 PUSH1 0x4 MSTORE PUSH1 0x24 PUSH1 0x0 REVERT JUMPDEST PUSH32 0x4E487B7100000000000000000000000000000000000000000000000000000000 PUSH1 0x0 MSTORE PUSH1 0x32 PUSH1 0x4 MSTORE PUSH1 0x24 PUSH1 0x0 REVERT JUMPDEST PUSH32 0x4E487B7100000000000000000000000000000000000000000000000000000000 PUSH1 0x0 MSTORE PUSH1 0x41 PUSH1 0x4 MSTORE PUSH1 0x24 PUSH1 0x0 REVERT JUMPDEST PUSH1 0x0 DUP1 REVERT JUMPDEST PUSH1 0x0 DUP1 REVERT JUMPDEST PUSH1 0x0 DUP1 REVERT JUMPDEST PUSH1 0x0 DUP1 REVERT JUMPDEST PUSH1 0x0 PUSH1 0x1F NOT PUSH1 0x1F DUP4 ADD AND SWAP1 POP SWAP2 SWAP1 POP JUMP JUMPDEST PUSH32 0x536F6C6F2073652070756564652074656E657220756E20636F63686520706F72 PUSH1 0x0 DUP3 ADD MSTORE PUSH32 0x20706572736F6E61000000000000000000000000000000000000000000000000 PUSH1 0x20 DUP3 ADD MSTORE POP JUMP JUMPDEST PUSH32 0x4F776E61626C653A206E6577206F776E657220697320746865207A65726F2061 PUSH1 0x0 DUP3 ADD MSTORE PUSH32 0x6464726573730000000000000000000000000000000000000000000000000000 PUSH1 0x20 DUP3 ADD MSTORE POP JUMP JUMPDEST PUSH32 0x4861732067616E61646F3A200000000000000000000000000000000000000000 PUSH1 0x0 DUP3 ADD MSTORE POP JUMP JUMPDEST PUSH32 0x4F776E61626C653A2063616C6C6572206973206E6F7420746865206F776E6572 PUSH1 0x0 DUP3 ADD MSTORE POP JUMP JUMPDEST PUSH32 0x456C20636F6368652067616E61646F722065733A200000000000000000000000 PUSH1 0x0 DUP3 ADD MSTORE POP JUMP JUMPDEST PUSH2 0x1660 DUP2 PUSH2 0x12C9 JUMP JUMPDEST DUP2 EQ PUSH2 0x166B JUMPI PUSH1 0x0 DUP1 REVERT JUMPDEST POP JUMP JUMPDEST PUSH2 0x1677 DUP2 PUSH2 0x12FB JUMP JUMPDEST DUP2 EQ PUSH2 0x1682 JUMPI PUSH1 0x0 DUP1 REVERT JUMPDEST POP JUMP INVALID LOG2 PUSH5 0x6970667358 0x22 SLT KECCAK256 0xDC 0xA8 SWAP13 SIGNEXTEND SWAP7 SWAP9 0xE8 DUP10 OR 0xC1 0xDB SLOAD EXP SSTORE 0xD4 0xE0 SAR GAS PUSH21 0xD23819914CA0C7AA6717F0C8E364736F6C63430008 SMOD STOP CALLER "
				},
				"gasEstimates": {
					"creation": {
						"codeDepositCost": "1163800",
						"executionCost": "infinite",
						"totalCost": "infinite"
					},
					"external": {
						"Apostar(uint256)": "infinite",
						"anadirCoche(string,string,string)": "infinite",
						"listaCoches(uint256)": "infinite",
						"numeroAleatorio()": "infinite",
						"numeroCochesPersona(address)": "2815",
						"owner()": "2522",
						"renounceOwnership()": "30441",
						"transferOwnership(address)": "30789"
					},
					"internal": {
						"_depositoLleno(struct CarreraCoches.Coche storage pointer)": "infinite",
						"_repostando(struct CarreraCoches.Coche storage pointer)": "infinite",
						"balance()": "infinite"
					}
				},
				"methodIdentifiers": {
					"Apostar(uint256)": "6b6f0494",
					"anadirCoche(string,string,string)": "2458c544",
					"listaCoches(uint256)": "d735573d",
					"numeroAleatorio()": "f1413763",
					"numeroCochesPersona(address)": "1c6743e4",
					"owner()": "8da5cb5b",
					"renounceOwnership()": "715018a6",
					"transferOwnership(address)": "f2fde38b"
				}
			},
			"storageLayout": {
				"storage": [
					{
						"astId": 340,
						"contract": "contracts/CarreraCoches/main.sol:CarreraCoches",
						"label": "_owner",
						"offset": 0,
						"slot": "0",
						"type": "t_address"
					},
					{
						"astId": 22,
						"contract": "contracts/CarreraCoches/main.sol:CarreraCoches",
						"label": "randNonce",
						"offset": 0,
						"slot": "1",
						"type": "t_uint256"
					},
					{
						"astId": 25,
						"contract": "contracts/CarreraCoches/main.sol:CarreraCoches",
						"label": "contador",
						"offset": 0,
						"slot": "2",
						"type": "t_uint256"
					},
					{
						"astId": 28,
						"contract": "contracts/CarreraCoches/main.sol:CarreraCoches",
						"label": "cooldown",
						"offset": 0,
						"slot": "3",
						"type": "t_uint256"
					},
					{
						"astId": 32,
						"contract": "contracts/CarreraCoches/main.sol:CarreraCoches",
						"label": "listaCoches",
						"offset": 0,
						"slot": "4",
						"type": "t_array(t_struct(Coche)19_storage)dyn_storage"
					},
					{
						"astId": 50,
						"contract": "contracts/CarreraCoches/main.sol:CarreraCoches",
						"label": "numeroCochesPersona",
						"offset": 0,
						"slot": "5",
						"type": "t_mapping(t_address,t_uint256)"
					}
				],
				"types": {
					"t_address": {
						"encoding": "inplace",
						"label": "address",
						"numberOfBytes": "20"
					},
					"t_array(t_struct(Coche)19_storage)dyn_storage": {
						"base": "t_struct(Coche)19_storage",
						"encoding": "dynamic_array",
						"label": "struct CarreraCoches.Coche[]",
						"numberOfBytes": "32"
					},
					"t_mapping(t_address,t_uint256)": {
						"encoding": "mapping",
						"key": "t_address",
						"label": "mapping(address => uint256)",
						"numberOfBytes": "32",
						"value": "t_uint256"
					},
					"t_string_storage": {
						"encoding": "bytes",
						"label": "string",
						"numberOfBytes": "32"
					},
					"t_struct(Coche)19_storage": {
						"encoding": "inplace",
						"label": "struct CarreraCoches.Coche",
						"members": [
							{
								"astId": 6,
								"contract": "contracts/CarreraCoches/main.sol:CarreraCoches",
								"label": "idPiloto",
								"offset": 0,
								"slot": "0",
								"type": "t_address"
							},
							{
								"astId": 8,
								"contract": "contracts/CarreraCoches/main.sol:CarreraCoches",
								"label": "modelo",
								"offset": 0,
								"slot": "1",
								"type": "t_string_storage"
							},
							{
								"astId": 10,
								"contract": "contracts/CarreraCoches/main.sol:CarreraCoches",
								"label": "marca",
								"offset": 0,
								"slot": "2",
								"type": "t_string_storage"
							},
							{
								"astId": 12,
								"contract": "contracts/CarreraCoches/main.sol:CarreraCoches",
								"label": "nombrePiloto",
								"offset": 0,
								"slot": "3",
								"type": "t_string_storage"
							},
							{
								"astId": 14,
								"contract": "contracts/CarreraCoches/main.sol:CarreraCoches",
								"label": "carrerasGanadas",
								"offset": 0,
								"slot": "4",
								"type": "t_uint256"
							},
							{
								"astId": 16,
								"contract": "contracts/CarreraCoches/main.sol:CarreraCoches",
								"label": "carrerasTotales",
								"offset": 0,
								"slot": "5",
								"type": "t_uint256"
							},
							{
								"astId": 18,
								"contract": "contracts/CarreraCoches/main.sol:CarreraCoches",
								"label": "tiempoEspera",
								"offset": 0,
								"slot": "6",
								"type": "t_uint256"
							}
						],
						"numberOfBytes": "224"
					},
					"t_uint256": {
						"encoding": "inplace",
						"label": "uint256",
						"numberOfBytes": "32"
					}
				}
			},
			"userdoc": {
				"kind": "user",
				"methods": {},
				"version": 1
			}
		}
	}
}