{
	"contracts/CarreraCoches/principal.sol": {
		"CarreraCoches": {
			"abi": [
				{
					"anonymous": false,
					"inputs": [
						{
							"indexed": true,
							"internalType": "address",
							"name": "previousOwner",
							"type": "address"
						},
						{
							"indexed": true,
							"internalType": "address",
							"name": "newOwner",
							"type": "address"
						}
					],
					"name": "OwnershipTransferred",
					"type": "event"
				},
				{
					"anonymous": false,
					"inputs": [
						{
							"indexed": false,
							"internalType": "string",
							"name": "mo",
							"type": "string"
						},
						{
							"indexed": false,
							"internalType": "string",
							"name": "ma",
							"type": "string"
						}
					],
					"name": "cochePropietario",
					"type": "event"
				},
				{
					"anonymous": false,
					"inputs": [
						{
							"indexed": false,
							"internalType": "uint256",
							"name": "compr",
							"type": "uint256"
						}
					],
					"name": "comprobar",
					"type": "event"
				},
				{
					"anonymous": false,
					"inputs": [
						{
							"indexed": false,
							"internalType": "string",
							"name": "ms",
							"type": "string"
						}
					],
					"name": "confirmacionDepositoLleno",
					"type": "event"
				},
				{
					"anonymous": false,
					"inputs": [
						{
							"indexed": false,
							"internalType": "string",
							"name": "ms",
							"type": "string"
						},
						{
							"indexed": false,
							"internalType": "uint256",
							"name": "res",
							"type": "uint256"
						}
					],
					"name": "mostrarResultado",
					"type": "event"
				},
				{
					"inputs": [
						{
							"internalType": "uint256",
							"name": "dineroApostar",
							"type": "uint256"
						}
					],
					"name": "Apostar",
					"outputs": [
						{
							"internalType": "string",
							"name": "",
							"type": "string"
						}
					],
					"stateMutability": "payable",
					"type": "function"
				},
				{
					"inputs": [
						{
							"internalType": "string",
							"name": "_modelo",
							"type": "string"
						},
						{
							"internalType": "string",
							"name": "_marca",
							"type": "string"
						},
						{
							"internalType": "string",
							"name": "_nombrePiloto",
							"type": "string"
						}
					],
					"name": "anadirCoche",
					"outputs": [
						{
							"internalType": "uint256",
							"name": "",
							"type": "uint256"
						}
					],
					"stateMutability": "nonpayable",
					"type": "function"
				},
				{
					"inputs": [
						{
							"internalType": "uint256",
							"name": "",
							"type": "uint256"
						}
					],
					"name": "cocheDePropietario",
					"outputs": [
						{
							"internalType": "address",
							"name": "",
							"type": "address"
						}
					],
					"stateMutability": "view",
					"type": "function"
				},
				{
					"inputs": [
						{
							"internalType": "uint256",
							"name": "",
							"type": "uint256"
						}
					],
					"name": "listaCoches",
					"outputs": [
						{
							"internalType": "address",
							"name": "idPiloto",
							"type": "address"
						},
						{
							"internalType": "string",
							"name": "modelo",
							"type": "string"
						},
						{
							"internalType": "string",
							"name": "marca",
							"type": "string"
						},
						{
							"internalType": "string",
							"name": "nombrePiloto",
							"type": "string"
						},
						{
							"internalType": "uint256",
							"name": "carrerasGanadas",
							"type": "uint256"
						},
						{
							"internalType": "uint256",
							"name": "carrerasTotales",
							"type": "uint256"
						},
						{
							"internalType": "uint256",
							"name": "tiempoEspera",
							"type": "uint256"
						},
						{
							"internalType": "uint32",
							"name": "nivel",
							"type": "uint32"
						}
					],
					"stateMutability": "view",
					"type": "function"
				},
				{
					"inputs": [
						{
							"internalType": "address",
							"name": "",
							"type": "address"
						}
					],
					"name": "numeroCochesPersona",
					"outputs": [
						{
							"internalType": "uint256",
							"name": "",
							"type": "uint256"
						}
					],
					"stateMutability": "view",
					"type": "function"
				},
				{
					"inputs": [],
					"name": "owner",
					"outputs": [
						{
							"internalType": "address",
							"name": "",
							"type": "address"
						}
					],
					"stateMutability": "view",
					"type": "function"
				},
				{
					"inputs": [],
					"name": "renounceOwnership",
					"outputs": [],
					"stateMutability": "nonpayable",
					"type": "function"
				},
				{
					"inputs": [
						{
							"internalType": "address",
							"name": "newOwner",
							"type": "address"
						}
					],
					"name": "transferOwnership",
					"outputs": [],
					"stateMutability": "nonpayable",
					"type": "function"
				},
				{
					"inputs": [
						{
							"internalType": "address",
							"name": "_propietario",
							"type": "address"
						}
					],
					"name": "verCochePropietario",
					"outputs": [],
					"stateMutability": "nonpayable",
					"type": "function"
				}
			],
			"devdoc": {
				"kind": "dev",
				"methods": {
					"owner()": {
						"details": "Returns the address of the current owner."
					},
					"renounceOwnership()": {
						"details": "Leaves the contract without owner. It will not be possible to call `onlyOwner` functions anymore. Can only be called by the current owner. NOTE: Renouncing ownership will leave the contract without an owner, thereby removing any functionality that is only available to the owner."
					},
					"transferOwnership(address)": {
						"details": "Transfers ownership of the contract to a new account (`newOwner`). Can only be called by the current owner."
					}
				},
				"version": 1
			},
			"evm": {
				"assembly": "    /* \"contracts/CarreraCoches/principal.sol\":54:3923  contract CarreraCoches is Ownable {\r... */\n  mstore(0x40, 0x80)\n    /* \"contracts/CarreraCoches/principal.sol\":370:371  0 */\n  0x00\n    /* \"contracts/CarreraCoches/principal.sol\":353:371  uint randNonce = 0 */\n  0x01\n  sstore\n    /* \"contracts/CarreraCoches/principal.sol\":494:495  0 */\n  0x00\n    /* \"contracts/CarreraCoches/principal.sol\":478:495  uint contador = 0 */\n  0x02\n  sstore\n    /* \"contracts/CarreraCoches/principal.sol\":518:528  60 seconds */\n  0x3c\n    /* \"contracts/CarreraCoches/principal.sol\":502:528  uint cooldown = 60 seconds */\n  0x03\n  sstore\n    /* \"contracts/CarreraCoches/principal.sol\":54:3923  contract CarreraCoches is Ownable {\r... */\n  callvalue\n  dup1\n  iszero\n  tag_1\n  jumpi\n  0x00\n  dup1\n  revert\ntag_1:\n  pop\n    /* \"contracts/CarreraCoches/ownable.sol\":948:980  _transferOwnership(_msgSender()) */\n  tag_4\n    /* \"contracts/CarreraCoches/ownable.sol\":967:979  _msgSender() */\n  tag_5\n    /* \"contracts/CarreraCoches/ownable.sol\":967:977  _msgSender */\n  shl(0x20, tag_6)\n    /* \"contracts/CarreraCoches/ownable.sol\":967:979  _msgSender() */\n  0x20\n  shr\n  jump\t// in\ntag_5:\n    /* \"contracts/CarreraCoches/ownable.sol\":948:966  _transferOwnership */\n  shl(0x20, tag_7)\n    /* \"contracts/CarreraCoches/ownable.sol\":948:980  _transferOwnership(_msgSender()) */\n  0x20\n  shr\n  jump\t// in\ntag_4:\n    /* \"contracts/CarreraCoches/principal.sol\":54:3923  contract CarreraCoches is Ownable {\r... */\n  jump(tag_8)\n    /* \"contracts/CarreraCoches/utils/Context.sol\":656:754  function _msgSender() internal view virtual returns (address) {\r... */\ntag_6:\n    /* \"contracts/CarreraCoches/utils/Context.sol\":709:716  address */\n  0x00\n    /* \"contracts/CarreraCoches/utils/Context.sol\":736:746  msg.sender */\n  caller\n    /* \"contracts/CarreraCoches/utils/Context.sol\":729:746  return msg.sender */\n  swap1\n  pop\n    /* \"contracts/CarreraCoches/utils/Context.sol\":656:754  function _msgSender() internal view virtual returns (address) {\r... */\n  swap1\n  jump\t// out\n    /* \"contracts/CarreraCoches/ownable.sol\":2339:2530  function _transferOwnership(address newOwner) internal virtual {\r... */\ntag_7:\n    /* \"contracts/CarreraCoches/ownable.sol\":2413:2429  address oldOwner */\n  0x00\n    /* \"contracts/CarreraCoches/ownable.sol\":2432:2438  _owner */\n  dup1\n  0x00\n  swap1\n  sload\n  swap1\n  0x0100\n  exp\n  swap1\n  div\n  0xffffffffffffffffffffffffffffffffffffffff\n  and\n    /* \"contracts/CarreraCoches/ownable.sol\":2413:2438  address oldOwner = _owner */\n  swap1\n  pop\n    /* \"contracts/CarreraCoches/ownable.sol\":2458:2466  newOwner */\n  dup2\n    /* \"contracts/CarreraCoches/ownable.sol\":2449:2455  _owner */\n  0x00\n  dup1\n    /* \"contracts/CarreraCoches/ownable.sol\":2449:2466  _owner = newOwner */\n  0x0100\n  exp\n  dup2\n  sload\n  dup2\n  0xffffffffffffffffffffffffffffffffffffffff\n  mul\n  not\n  and\n  swap1\n  dup4\n  0xffffffffffffffffffffffffffffffffffffffff\n  and\n  mul\n  or\n  swap1\n  sstore\n  pop\n    /* \"contracts/CarreraCoches/ownable.sol\":2513:2521  newOwner */\n  dup2\n    /* \"contracts/CarreraCoches/ownable.sol\":2482:2522  OwnershipTransferred(oldOwner, newOwner) */\n  0xffffffffffffffffffffffffffffffffffffffff\n  and\n    /* \"contracts/CarreraCoches/ownable.sol\":2503:2511  oldOwner */\n  dup2\n    /* \"contracts/CarreraCoches/ownable.sol\":2482:2522  OwnershipTransferred(oldOwner, newOwner) */\n  0xffffffffffffffffffffffffffffffffffffffff\n  and\n  0x8be0079c531659141344cd1fd0a4f28419497f9722a3daafe3b4186f6b6457e0\n  mload(0x40)\n  mload(0x40)\n  dup1\n  swap2\n  sub\n  swap1\n  log3\n    /* \"contracts/CarreraCoches/ownable.sol\":2402:2530  {\r... */\n  pop\n    /* \"contracts/CarreraCoches/ownable.sol\":2339:2530  function _transferOwnership(address newOwner) internal virtual {\r... */\n  pop\n  jump\t// out\n    /* \"contracts/CarreraCoches/principal.sol\":54:3923  contract CarreraCoches is Ownable {\r... */\ntag_8:\n  dataSize(sub_0)\n  dup1\n  dataOffset(sub_0)\n  0x00\n  codecopy\n  0x00\n  return\nstop\n\nsub_0: assembly {\n        /* \"contracts/CarreraCoches/principal.sol\":54:3923  contract CarreraCoches is Ownable {\r... */\n      mstore(0x40, 0x80)\n      jumpi(tag_1, lt(calldatasize, 0x04))\n      shr(0xe0, calldataload(0x00))\n      dup1\n      0x858b0554\n      gt\n      tag_11\n      jumpi\n      dup1\n      0x858b0554\n      eq\n      tag_6\n      jumpi\n      dup1\n      0x8da5cb5b\n      eq\n      tag_7\n      jumpi\n      dup1\n      0xd735573d\n      eq\n      tag_8\n      jumpi\n      dup1\n      0xe172fca8\n      eq\n      tag_9\n      jumpi\n      dup1\n      0xf2fde38b\n      eq\n      tag_10\n      jumpi\n      jump(tag_1)\n    tag_11:\n      dup1\n      0x1c6743e4\n      eq\n      tag_2\n      jumpi\n      dup1\n      0x2458c544\n      eq\n      tag_3\n      jumpi\n      dup1\n      0x6b6f0494\n      eq\n      tag_4\n      jumpi\n      dup1\n      0x715018a6\n      eq\n      tag_5\n      jumpi\n    tag_1:\n      0x00\n      dup1\n      revert\n        /* \"contracts/CarreraCoches/principal.sol\":816:868  mapping (address => uint) public numeroCochesPersona */\n    tag_2:\n      callvalue\n      dup1\n      iszero\n      tag_12\n      jumpi\n      0x00\n      dup1\n      revert\n    tag_12:\n      pop\n      tag_13\n      0x04\n      dup1\n      calldatasize\n      sub\n      dup2\n      add\n      swap1\n      tag_14\n      swap2\n      swap1\n      tag_15\n      jump\t// in\n    tag_14:\n      tag_16\n      jump\t// in\n    tag_13:\n      mload(0x40)\n      tag_17\n      swap2\n      swap1\n      tag_18\n      jump\t// in\n    tag_17:\n      mload(0x40)\n      dup1\n      swap2\n      sub\n      swap1\n      return\n        /* \"contracts/CarreraCoches/principal.sol\":1111:1551  function anadirCoche(string memory _modelo, string memory _marca, string memory _nombrePiloto) public restriccion returns (uint) {\r... */\n    tag_3:\n      callvalue\n      dup1\n      iszero\n      tag_19\n      jumpi\n      0x00\n      dup1\n      revert\n    tag_19:\n      pop\n      tag_20\n      0x04\n      dup1\n      calldatasize\n      sub\n      dup2\n      add\n      swap1\n      tag_21\n      swap2\n      swap1\n      tag_22\n      jump\t// in\n    tag_21:\n      tag_23\n      jump\t// in\n    tag_20:\n      mload(0x40)\n      tag_24\n      swap2\n      swap1\n      tag_18\n      jump\t// in\n    tag_24:\n      mload(0x40)\n      dup1\n      swap2\n      sub\n      swap1\n      return\n        /* \"contracts/CarreraCoches/principal.sol\":2508:3684  function Apostar(uint dineroApostar) public payable returns(string memory) {\r... */\n    tag_4:\n      tag_25\n      0x04\n      dup1\n      calldatasize\n      sub\n      dup2\n      add\n      swap1\n      tag_26\n      swap2\n      swap1\n      tag_27\n      jump\t// in\n    tag_26:\n      tag_28\n      jump\t// in\n    tag_25:\n      mload(0x40)\n      tag_29\n      swap2\n      swap1\n      tag_30\n      jump\t// in\n    tag_29:\n      mload(0x40)\n      dup1\n      swap2\n      sub\n      swap1\n      return\n        /* \"contracts/CarreraCoches/ownable.sol\":1720:1823  function renounceOwnership() public virtual onlyOwner {\r... */\n    tag_5:\n      callvalue\n      dup1\n      iszero\n      tag_31\n      jumpi\n      0x00\n      dup1\n      revert\n    tag_31:\n      pop\n      tag_32\n      tag_33\n      jump\t// in\n    tag_32:\n      stop\n        /* \"contracts/CarreraCoches/principal.sol\":758:809  mapping (uint => address) public cocheDePropietario */\n    tag_6:\n      callvalue\n      dup1\n      iszero\n      tag_34\n      jumpi\n      0x00\n      dup1\n      revert\n    tag_34:\n      pop\n      tag_35\n      0x04\n      dup1\n      calldatasize\n      sub\n      dup2\n      add\n      swap1\n      tag_36\n      swap2\n      swap1\n      tag_27\n      jump\t// in\n    tag_36:\n      tag_37\n      jump\t// in\n    tag_35:\n      mload(0x40)\n      tag_38\n      swap2\n      swap1\n      tag_39\n      jump\t// in\n    tag_38:\n      mload(0x40)\n      dup1\n      swap2\n      sub\n      swap1\n      return\n        /* \"contracts/CarreraCoches/ownable.sol\":1069:1156  function owner() public view virtual returns (address) {\r... */\n    tag_7:\n      callvalue\n      dup1\n      iszero\n      tag_40\n      jumpi\n      0x00\n      dup1\n      revert\n    tag_40:\n      pop\n      tag_41\n      tag_42\n      jump\t// in\n    tag_41:\n      mload(0x40)\n      tag_43\n      swap2\n      swap1\n      tag_39\n      jump\t// in\n    tag_43:\n      mload(0x40)\n      dup1\n      swap2\n      sub\n      swap1\n      return\n        /* \"contracts/CarreraCoches/principal.sol\":537:563  Coche[] public listaCoches */\n    tag_8:\n      callvalue\n      dup1\n      iszero\n      tag_44\n      jumpi\n      0x00\n      dup1\n      revert\n    tag_44:\n      pop\n      tag_45\n      0x04\n      dup1\n      calldatasize\n      sub\n      dup2\n      add\n      swap1\n      tag_46\n      swap2\n      swap1\n      tag_27\n      jump\t// in\n    tag_46:\n      tag_47\n      jump\t// in\n    tag_45:\n      mload(0x40)\n      tag_48\n      swap9\n      swap8\n      swap7\n      swap6\n      swap5\n      swap4\n      swap3\n      swap2\n      swap1\n      tag_49\n      jump\t// in\n    tag_48:\n      mload(0x40)\n      dup1\n      swap2\n      sub\n      swap1\n      return\n        /* \"contracts/CarreraCoches/principal.sol\":1883:2171  function verCochePropietario(address _propietario) external {\r... */\n    tag_9:\n      callvalue\n      dup1\n      iszero\n      tag_50\n      jumpi\n      0x00\n      dup1\n      revert\n    tag_50:\n      pop\n      tag_51\n      0x04\n      dup1\n      calldatasize\n      sub\n      dup2\n      add\n      swap1\n      tag_52\n      swap2\n      swap1\n      tag_15\n      jump\t// in\n    tag_52:\n      tag_53\n      jump\t// in\n    tag_51:\n      stop\n        /* \"contracts/CarreraCoches/ownable.sol\":1978:2179  function transferOwnership(address newOwner) public virtual onlyOwner {\r... */\n    tag_10:\n      callvalue\n      dup1\n      iszero\n      tag_54\n      jumpi\n      0x00\n      dup1\n      revert\n    tag_54:\n      pop\n      tag_55\n      0x04\n      dup1\n      calldatasize\n      sub\n      dup2\n      add\n      swap1\n      tag_56\n      swap2\n      swap1\n      tag_15\n      jump\t// in\n    tag_56:\n      tag_57\n      jump\t// in\n    tag_55:\n      stop\n        /* \"contracts/CarreraCoches/principal.sol\":816:868  mapping (address => uint) public numeroCochesPersona */\n    tag_16:\n      mstore(0x20, 0x06)\n      dup1\n      0x00\n      mstore\n      keccak256(0x00, 0x40)\n      0x00\n      swap2\n      pop\n      swap1\n      pop\n      sload\n      dup2\n      jump\t// out\n        /* \"contracts/CarreraCoches/principal.sol\":1111:1551  function anadirCoche(string memory _modelo, string memory _marca, string memory _nombrePiloto) public restriccion returns (uint) {\r... */\n    tag_23:\n        /* \"contracts/CarreraCoches/principal.sol\":1234:1238  uint */\n      0x00\n        /* \"contracts/CarreraCoches/principal.sol\":1000:1001  1 */\n      0x01\n        /* \"contracts/CarreraCoches/principal.sol\":966:985  numeroCochesPersona */\n      0x06\n        /* \"contracts/CarreraCoches/principal.sol\":966:997  numeroCochesPersona[msg.sender] */\n      0x00\n        /* \"contracts/CarreraCoches/principal.sol\":986:996  msg.sender */\n      caller\n        /* \"contracts/CarreraCoches/principal.sol\":966:997  numeroCochesPersona[msg.sender] */\n      0xffffffffffffffffffffffffffffffffffffffff\n      and\n      0xffffffffffffffffffffffffffffffffffffffff\n      and\n      dup2\n      mstore\n      0x20\n      add\n      swap1\n      dup2\n      mstore\n      0x20\n      add\n      0x00\n      keccak256\n      sload\n        /* \"contracts/CarreraCoches/principal.sol\":966:1001  numeroCochesPersona[msg.sender] < 1 */\n      lt\n        /* \"contracts/CarreraCoches/principal.sol\":958:1046  require(numeroCochesPersona[msg.sender] < 1, \"Solo se puede tener un coche por persona\") */\n      tag_59\n      jumpi\n      mload(0x40)\n      0x08c379a000000000000000000000000000000000000000000000000000000000\n      dup2\n      mstore\n      0x04\n      add\n      tag_60\n      swap1\n      tag_61\n      jump\t// in\n    tag_60:\n      mload(0x40)\n      dup1\n      swap2\n      sub\n      swap1\n      revert\n    tag_59:\n        /* \"contracts/CarreraCoches/principal.sol\":1251:1262  listaCoches */\n      0x04\n        /* \"contracts/CarreraCoches/principal.sol\":1268:1362  Coche(msg.sender, _modelo, _marca, _nombrePiloto, 0, 0, uint32(block.timestamp + cooldown), 0) */\n      mload(0x40)\n      dup1\n      0x0100\n      add\n      0x40\n      mstore\n      dup1\n        /* \"contracts/CarreraCoches/principal.sol\":1274:1284  msg.sender */\n      caller\n        /* \"contracts/CarreraCoches/principal.sol\":1268:1362  Coche(msg.sender, _modelo, _marca, _nombrePiloto, 0, 0, uint32(block.timestamp + cooldown), 0) */\n      0xffffffffffffffffffffffffffffffffffffffff\n      and\n      dup2\n      mstore\n      0x20\n      add\n        /* \"contracts/CarreraCoches/principal.sol\":1286:1293  _modelo */\n      dup7\n        /* \"contracts/CarreraCoches/principal.sol\":1268:1362  Coche(msg.sender, _modelo, _marca, _nombrePiloto, 0, 0, uint32(block.timestamp + cooldown), 0) */\n      dup2\n      mstore\n      0x20\n      add\n        /* \"contracts/CarreraCoches/principal.sol\":1295:1301  _marca */\n      dup6\n        /* \"contracts/CarreraCoches/principal.sol\":1268:1362  Coche(msg.sender, _modelo, _marca, _nombrePiloto, 0, 0, uint32(block.timestamp + cooldown), 0) */\n      dup2\n      mstore\n      0x20\n      add\n        /* \"contracts/CarreraCoches/principal.sol\":1303:1316  _nombrePiloto */\n      dup5\n        /* \"contracts/CarreraCoches/principal.sol\":1268:1362  Coche(msg.sender, _modelo, _marca, _nombrePiloto, 0, 0, uint32(block.timestamp + cooldown), 0) */\n      dup2\n      mstore\n      0x20\n      add\n        /* \"contracts/CarreraCoches/principal.sol\":1318:1319  0 */\n      0x00\n        /* \"contracts/CarreraCoches/principal.sol\":1268:1362  Coche(msg.sender, _modelo, _marca, _nombrePiloto, 0, 0, uint32(block.timestamp + cooldown), 0) */\n      dup2\n      mstore\n      0x20\n      add\n        /* \"contracts/CarreraCoches/principal.sol\":1321:1322  0 */\n      0x00\n        /* \"contracts/CarreraCoches/principal.sol\":1268:1362  Coche(msg.sender, _modelo, _marca, _nombrePiloto, 0, 0, uint32(block.timestamp + cooldown), 0) */\n      dup2\n      mstore\n      0x20\n      add\n        /* \"contracts/CarreraCoches/principal.sol\":1349:1357  cooldown */\n      sload(0x03)\n        /* \"contracts/CarreraCoches/principal.sol\":1331:1346  block.timestamp */\n      timestamp\n        /* \"contracts/CarreraCoches/principal.sol\":1331:1357  block.timestamp + cooldown */\n      tag_63\n      swap2\n      swap1\n      tag_64\n      jump\t// in\n    tag_63:\n        /* \"contracts/CarreraCoches/principal.sol\":1268:1362  Coche(msg.sender, _modelo, _marca, _nombrePiloto, 0, 0, uint32(block.timestamp + cooldown), 0) */\n      0xffffffff\n      and\n      dup2\n      mstore\n      0x20\n      add\n        /* \"contracts/CarreraCoches/principal.sol\":1360:1361  0 */\n      0x00\n        /* \"contracts/CarreraCoches/principal.sol\":1268:1362  Coche(msg.sender, _modelo, _marca, _nombrePiloto, 0, 0, uint32(block.timestamp + cooldown), 0) */\n      0xffffffff\n      and\n      dup2\n      mstore\n      pop\n        /* \"contracts/CarreraCoches/principal.sol\":1251:1363  listaCoches.push(Coche(msg.sender, _modelo, _marca, _nombrePiloto, 0, 0, uint32(block.timestamp + cooldown), 0)) */\n      swap1\n      dup1\n      0x01\n      dup2\n      sload\n      add\n      dup1\n      dup3\n      sstore\n      dup1\n      swap2\n      pop\n      pop\n      0x01\n      swap1\n      sub\n      swap1\n      0x00\n      mstore\n      keccak256(0x00, 0x20)\n      swap1\n      0x08\n      mul\n      add\n      0x00\n      swap1\n      swap2\n      swap1\n      swap2\n      swap1\n      swap2\n      pop\n      0x00\n      dup3\n      add\n      mload\n      dup2\n      0x00\n      add\n      exp(0x0100, 0x00)\n      dup2\n      sload\n      dup2\n      0xffffffffffffffffffffffffffffffffffffffff\n      mul\n      not\n      and\n      swap1\n      dup4\n      0xffffffffffffffffffffffffffffffffffffffff\n      and\n      mul\n      or\n      swap1\n      sstore\n      pop\n      0x20\n      dup3\n      add\n      mload\n      dup2\n      0x01\n      add\n      swap1\n      dup1\n      mload\n      swap1\n      0x20\n      add\n      swap1\n      tag_66\n      swap3\n      swap2\n      swap1\n      tag_67\n      jump\t// in\n    tag_66:\n      pop\n      0x40\n      dup3\n      add\n      mload\n      dup2\n      0x02\n      add\n      swap1\n      dup1\n      mload\n      swap1\n      0x20\n      add\n      swap1\n      tag_68\n      swap3\n      swap2\n      swap1\n      tag_67\n      jump\t// in\n    tag_68:\n      pop\n      0x60\n      dup3\n      add\n      mload\n      dup2\n      0x03\n      add\n      swap1\n      dup1\n      mload\n      swap1\n      0x20\n      add\n      swap1\n      tag_69\n      swap3\n      swap2\n      swap1\n      tag_67\n      jump\t// in\n    tag_69:\n      pop\n      0x80\n      dup3\n      add\n      mload\n      dup2\n      0x04\n      add\n      sstore\n      0xa0\n      dup3\n      add\n      mload\n      dup2\n      0x05\n      add\n      sstore\n      0xc0\n      dup3\n      add\n      mload\n      dup2\n      0x06\n      add\n      sstore\n      0xe0\n      dup3\n      add\n      mload\n      dup2\n      0x07\n      add\n      exp(0x0100, 0x00)\n      dup2\n      sload\n      dup2\n      0xffffffff\n      mul\n      not\n      and\n      swap1\n      dup4\n      0xffffffff\n      and\n      mul\n      or\n      swap1\n      sstore\n      pop\n      pop\n      pop\n        /* \"contracts/CarreraCoches/principal.sol\":1374:1381  uint id */\n      0x00\n        /* \"contracts/CarreraCoches/principal.sol\":1384:1395  listaCoches */\n      0x04\n        /* \"contracts/CarreraCoches/principal.sol\":1384:1402  listaCoches.length */\n      dup1\n      sload\n      swap1\n      pop\n        /* \"contracts/CarreraCoches/principal.sol\":1374:1402  uint id = listaCoches.length */\n      swap1\n      pop\n        /* \"contracts/CarreraCoches/principal.sol\":1438:1448  msg.sender */\n      caller\n        /* \"contracts/CarreraCoches/principal.sol\":1413:1431  cocheDePropietario */\n      0x05\n        /* \"contracts/CarreraCoches/principal.sol\":1413:1435  cocheDePropietario[id] */\n      0x00\n        /* \"contracts/CarreraCoches/principal.sol\":1432:1434  id */\n      dup4\n        /* \"contracts/CarreraCoches/principal.sol\":1413:1435  cocheDePropietario[id] */\n      dup2\n      mstore\n      0x20\n      add\n      swap1\n      dup2\n      mstore\n      0x20\n      add\n      0x00\n      keccak256\n      0x00\n        /* \"contracts/CarreraCoches/principal.sol\":1413:1448  cocheDePropietario[id] = msg.sender */\n      0x0100\n      exp\n      dup2\n      sload\n      dup2\n      0xffffffffffffffffffffffffffffffffffffffff\n      mul\n      not\n      and\n      swap1\n      dup4\n      0xffffffffffffffffffffffffffffffffffffffff\n      and\n      mul\n      or\n      swap1\n      sstore\n      pop\n        /* \"contracts/CarreraCoches/principal.sol\":1459:1478  numeroCochesPersona */\n      0x06\n        /* \"contracts/CarreraCoches/principal.sol\":1459:1490  numeroCochesPersona[msg.sender] */\n      0x00\n        /* \"contracts/CarreraCoches/principal.sol\":1479:1489  msg.sender */\n      caller\n        /* \"contracts/CarreraCoches/principal.sol\":1459:1490  numeroCochesPersona[msg.sender] */\n      0xffffffffffffffffffffffffffffffffffffffff\n      and\n      0xffffffffffffffffffffffffffffffffffffffff\n      and\n      dup2\n      mstore\n      0x20\n      add\n      swap1\n      dup2\n      mstore\n      0x20\n      add\n      0x00\n      keccak256\n      0x00\n        /* \"contracts/CarreraCoches/principal.sol\":1459:1492  numeroCochesPersona[msg.sender]++ */\n      dup2\n      sload\n      dup1\n      swap3\n      swap2\n      swap1\n      tag_70\n      swap1\n      tag_71\n      jump\t// in\n    tag_70:\n      swap2\n      swap1\n      pop\n      sstore\n      pop\n        /* \"contracts/CarreraCoches/principal.sol\":1503:1511  contador */\n      0x02\n      0x00\n        /* \"contracts/CarreraCoches/principal.sol\":1503:1513  contador++ */\n      dup2\n      sload\n      dup1\n      swap3\n      swap2\n      swap1\n      tag_72\n      swap1\n      tag_71\n      jump\t// in\n    tag_72:\n      swap2\n      swap1\n      pop\n      sstore\n      pop\n        /* \"contracts/CarreraCoches/principal.sol\":1542:1543  1 */\n      0x01\n        /* \"contracts/CarreraCoches/principal.sol\":1531:1539  contador */\n      sload(0x02)\n        /* \"contracts/CarreraCoches/principal.sol\":1531:1543  contador - 1 */\n      tag_73\n      swap2\n      swap1\n      tag_74\n      jump\t// in\n    tag_73:\n        /* \"contracts/CarreraCoches/principal.sol\":1524:1543  return contador - 1 */\n      swap2\n      pop\n      pop\n        /* \"contracts/CarreraCoches/principal.sol\":1111:1551  function anadirCoche(string memory _modelo, string memory _marca, string memory _nombrePiloto) public restriccion returns (uint) {\r... */\n      swap4\n      swap3\n      pop\n      pop\n      pop\n      jump\t// out\n        /* \"contracts/CarreraCoches/principal.sol\":2508:3684  function Apostar(uint dineroApostar) public payable returns(string memory) {\r... */\n    tag_28:\n        /* \"contracts/CarreraCoches/principal.sol\":2568:2581  string memory */\n      0x60\n        /* \"contracts/CarreraCoches/principal.sol\":2614:2627  dineroApostar */\n      dup2\n        /* \"contracts/CarreraCoches/principal.sol\":2601:2610  msg.value */\n      callvalue\n        /* \"contracts/CarreraCoches/principal.sol\":2601:2627  msg.value == dineroApostar */\n      eq\n        /* \"contracts/CarreraCoches/principal.sol\":2593:2628  require(msg.value == dineroApostar) */\n      tag_76\n      jumpi\n      0x00\n      dup1\n      revert\n    tag_76:\n        /* \"contracts/CarreraCoches/principal.sol\":2649:2658  randNonce */\n      0x01\n      0x00\n        /* \"contracts/CarreraCoches/principal.sol\":2649:2660  randNonce++ */\n      dup2\n      sload\n      dup1\n      swap3\n      swap2\n      swap1\n      tag_77\n      swap1\n      tag_71\n      jump\t// in\n    tag_77:\n      swap2\n      swap1\n      pop\n      sstore\n      pop\n        /* \"contracts/CarreraCoches/principal.sol\":2707:2720  uint256 rival */\n      0x00\n        /* \"contracts/CarreraCoches/principal.sol\":2810:2821  listaCoches */\n      0x04\n        /* \"contracts/CarreraCoches/principal.sol\":2810:2828  listaCoches.length */\n      dup1\n      sload\n      swap1\n      pop\n        /* \"contracts/CarreraCoches/principal.sol\":2758:2773  block.timestamp */\n      timestamp\n        /* \"contracts/CarreraCoches/principal.sol\":2775:2786  listaCoches */\n      0x04\n        /* \"contracts/CarreraCoches/principal.sol\":2775:2793  listaCoches.length */\n      dup1\n      sload\n      swap1\n      pop\n        /* \"contracts/CarreraCoches/principal.sol\":2795:2804  randNonce */\n      sload(0x01)\n        /* \"contracts/CarreraCoches/principal.sol\":2741:2805  abi.encodePacked(block.timestamp, listaCoches.length, randNonce) */\n      add(0x20, mload(0x40))\n      tag_78\n      swap4\n      swap3\n      swap2\n      swap1\n      tag_79\n      jump\t// in\n    tag_78:\n      mload(0x40)\n      0x20\n      dup2\n      dup4\n      sub\n      sub\n      dup2\n      mstore\n      swap1\n      0x40\n      mstore\n        /* \"contracts/CarreraCoches/principal.sol\":2731:2806  keccak256(abi.encodePacked(block.timestamp, listaCoches.length, randNonce)) */\n      dup1\n      mload\n      swap1\n      0x20\n      add\n      keccak256\n        /* \"contracts/CarreraCoches/principal.sol\":2723:2807  uint256(keccak256(abi.encodePacked(block.timestamp, listaCoches.length, randNonce))) */\n      0x00\n      shr\n        /* \"contracts/CarreraCoches/principal.sol\":2723:2828  uint256(keccak256(abi.encodePacked(block.timestamp, listaCoches.length, randNonce))) % listaCoches.length */\n      tag_80\n      swap2\n      swap1\n      tag_81\n      jump\t// in\n    tag_80:\n        /* \"contracts/CarreraCoches/principal.sol\":2707:2828  uint256 rival = uint256(keccak256(abi.encodePacked(block.timestamp, listaCoches.length, randNonce))) % listaCoches.length */\n      swap1\n      pop\n        /* \"contracts/CarreraCoches/principal.sol\":2871:2880  randNonce */\n      0x01\n      0x00\n        /* \"contracts/CarreraCoches/principal.sol\":2871:2882  randNonce++ */\n      dup2\n      sload\n      dup1\n      swap3\n      swap2\n      swap1\n      tag_82\n      swap1\n      tag_71\n      jump\t// in\n    tag_82:\n      swap2\n      swap1\n      pop\n      sstore\n      pop\n        /* \"contracts/CarreraCoches/principal.sol\":2893:2904  uint numero */\n      0x00\n        /* \"contracts/CarreraCoches/principal.sol\":2907:2908  2 */\n      0x02\n        /* \"contracts/CarreraCoches/principal.sol\":2893:2908  uint numero = 2 */\n      swap1\n      pop\n        /* \"contracts/CarreraCoches/principal.sol\":2919:2934  uint256 ganador */\n      0x00\n        /* \"contracts/CarreraCoches/principal.sol\":3012:3018  numero */\n      dup2\n        /* \"contracts/CarreraCoches/principal.sol\":2972:2987  block.timestamp */\n      timestamp\n        /* \"contracts/CarreraCoches/principal.sol\":2989:2995  numero */\n      dup4\n        /* \"contracts/CarreraCoches/principal.sol\":2997:3006  randNonce */\n      sload(0x01)\n        /* \"contracts/CarreraCoches/principal.sol\":2955:3007  abi.encodePacked(block.timestamp, numero, randNonce) */\n      add(0x20, mload(0x40))\n      tag_83\n      swap4\n      swap3\n      swap2\n      swap1\n      tag_79\n      jump\t// in\n    tag_83:\n      mload(0x40)\n      0x20\n      dup2\n      dup4\n      sub\n      sub\n      dup2\n      mstore\n      swap1\n      0x40\n      mstore\n        /* \"contracts/CarreraCoches/principal.sol\":2945:3008  keccak256(abi.encodePacked(block.timestamp, numero, randNonce)) */\n      dup1\n      mload\n      swap1\n      0x20\n      add\n      keccak256\n        /* \"contracts/CarreraCoches/principal.sol\":2937:3009  uint256(keccak256(abi.encodePacked(block.timestamp, numero, randNonce))) */\n      0x00\n      shr\n        /* \"contracts/CarreraCoches/principal.sol\":2937:3018  uint256(keccak256(abi.encodePacked(block.timestamp, numero, randNonce))) % numero */\n      tag_84\n      swap2\n      swap1\n      tag_81\n      jump\t// in\n    tag_84:\n        /* \"contracts/CarreraCoches/principal.sol\":2919:3018  uint256 ganador = uint256(keccak256(abi.encodePacked(block.timestamp, numero, randNonce))) % numero */\n      swap1\n      pop\n        /* \"contracts/CarreraCoches/principal.sol\":3035:3041  uint i */\n      0x00\n        /* \"contracts/CarreraCoches/principal.sol\":3031:3678  for(uint i = 0; i < listaCoches.length; i++){\r... */\n    tag_85:\n        /* \"contracts/CarreraCoches/principal.sol\":3051:3062  listaCoches */\n      0x04\n        /* \"contracts/CarreraCoches/principal.sol\":3051:3069  listaCoches.length */\n      dup1\n      sload\n      swap1\n      pop\n        /* \"contracts/CarreraCoches/principal.sol\":3047:3048  i */\n      dup2\n        /* \"contracts/CarreraCoches/principal.sol\":3047:3069  i < listaCoches.length */\n      lt\n        /* \"contracts/CarreraCoches/principal.sol\":3031:3678  for(uint i = 0; i < listaCoches.length; i++){\r... */\n      iszero\n      tag_86\n      jumpi\n        /* \"contracts/CarreraCoches/principal.sol\":3211:3222  listaCoches */\n      0x04\n        /* \"contracts/CarreraCoches/principal.sol\":3223:3224  i */\n      dup2\n        /* \"contracts/CarreraCoches/principal.sol\":3211:3225  listaCoches[i] */\n      dup2\n      sload\n      dup2\n      lt\n      tag_88\n      jumpi\n      tag_89\n      tag_90\n      jump\t// in\n    tag_89:\n    tag_88:\n      swap1\n      0x00\n      mstore\n      keccak256(0x00, 0x20)\n      swap1\n      0x08\n      mul\n      add\n        /* \"contracts/CarreraCoches/principal.sol\":3211:3234  listaCoches[i].idPiloto */\n      0x00\n      add\n      0x00\n      swap1\n      sload\n      swap1\n      0x0100\n      exp\n      swap1\n      div\n      0xffffffffffffffffffffffffffffffffffffffff\n      and\n        /* \"contracts/CarreraCoches/principal.sol\":3197:3234  msg.sender == listaCoches[i].idPiloto */\n      0xffffffffffffffffffffffffffffffffffffffff\n      and\n        /* \"contracts/CarreraCoches/principal.sol\":3197:3207  msg.sender */\n      caller\n        /* \"contracts/CarreraCoches/principal.sol\":3197:3234  msg.sender == listaCoches[i].idPiloto */\n      0xffffffffffffffffffffffffffffffffffffffff\n      and\n      eq\n        /* \"contracts/CarreraCoches/principal.sol\":3193:3667  if (msg.sender == listaCoches[i].idPiloto) {\r... */\n      iszero\n      tag_92\n      jumpi\n        /* \"contracts/CarreraCoches/principal.sol\":3269:3270  0 */\n      0x00\n        /* \"contracts/CarreraCoches/principal.sol\":3258:3265  ganador */\n      dup3\n        /* \"contracts/CarreraCoches/principal.sol\":3258:3270  ganador == 0 */\n      eq\n        /* \"contracts/CarreraCoches/principal.sol\":3255:3563  if(ganador == 0){\r... */\n      iszero\n      tag_93\n      jumpi\n        /* \"contracts/CarreraCoches/principal.sol\":3294:3303  balance() */\n      tag_94\n        /* \"contracts/CarreraCoches/principal.sol\":3294:3301  balance */\n      tag_95\n        /* \"contracts/CarreraCoches/principal.sol\":3294:3303  balance() */\n      jump\t// in\n    tag_94:\n        /* \"contracts/CarreraCoches/principal.sol\":3326:3345  return \"Has ganado\" */\n      mload(0x40)\n      dup1\n      0x40\n      add\n      0x40\n      mstore\n      dup1\n      0x0a\n      dup2\n      mstore\n      0x20\n      add\n      0x4861732067616e61646f00000000000000000000000000000000000000000000\n      dup2\n      mstore\n      pop\n      swap5\n      pop\n      pop\n      pop\n      pop\n      pop\n      jump(tag_75)\n        /* \"contracts/CarreraCoches/principal.sol\":3255:3563  if(ganador == 0){\r... */\n    tag_93:\n        /* \"contracts/CarreraCoches/principal.sol\":3452:3500  mostrarResultado(\"El coche ganador es: \", rival) */\n      0xa28482eec3136a2461c6c30c08f71ba279c6c51a2d9c7bea4e50d6d2632f3896\n        /* \"contracts/CarreraCoches/principal.sol\":3494:3499  rival */\n      dup5\n        /* \"contracts/CarreraCoches/principal.sol\":3452:3500  mostrarResultado(\"El coche ganador es: \", rival) */\n      mload(0x40)\n      tag_101\n      swap2\n      swap1\n      tag_102\n      jump\t// in\n    tag_101:\n      mload(0x40)\n      dup1\n      swap2\n      sub\n      swap1\n      log1\n        /* \"contracts/CarreraCoches/principal.sol\":3523:3543  return \"Has perdido\" */\n      mload(0x40)\n      dup1\n      0x40\n      add\n      0x40\n      mstore\n      dup1\n      0x0b\n      dup2\n      mstore\n      0x20\n      add\n      0x486173207065726469646f000000000000000000000000000000000000000000\n      dup2\n      mstore\n      pop\n      swap5\n      pop\n      pop\n      pop\n      pop\n      pop\n      jump(tag_75)\n        /* \"contracts/CarreraCoches/principal.sol\":3193:3667  if (msg.sender == listaCoches[i].idPiloto) {\r... */\n    tag_92:\n        /* \"contracts/CarreraCoches/principal.sol\":3071:3074  i++ */\n      dup1\n      dup1\n      tag_112\n      swap1\n      tag_71\n      jump\t// in\n    tag_112:\n      swap2\n      pop\n      pop\n        /* \"contracts/CarreraCoches/principal.sol\":3031:3678  for(uint i = 0; i < listaCoches.length; i++){\r... */\n      jump(tag_85)\n    tag_86:\n      pop\n        /* \"contracts/CarreraCoches/principal.sol\":2583:3684  {\r... */\n      pop\n      pop\n      pop\n        /* \"contracts/CarreraCoches/principal.sol\":2508:3684  function Apostar(uint dineroApostar) public payable returns(string memory) {\r... */\n    tag_75:\n      swap2\n      swap1\n      pop\n      jump\t// out\n        /* \"contracts/CarreraCoches/ownable.sol\":1720:1823  function renounceOwnership() public virtual onlyOwner {\r... */\n    tag_33:\n        /* \"contracts/CarreraCoches/ownable.sol\":1300:1312  _msgSender() */\n      tag_114\n        /* \"contracts/CarreraCoches/ownable.sol\":1300:1310  _msgSender */\n      tag_115\n        /* \"contracts/CarreraCoches/ownable.sol\":1300:1312  _msgSender() */\n      jump\t// in\n    tag_114:\n        /* \"contracts/CarreraCoches/ownable.sol\":1289:1312  owner() == _msgSender() */\n      0xffffffffffffffffffffffffffffffffffffffff\n      and\n        /* \"contracts/CarreraCoches/ownable.sol\":1289:1296  owner() */\n      tag_116\n        /* \"contracts/CarreraCoches/ownable.sol\":1289:1294  owner */\n      tag_42\n        /* \"contracts/CarreraCoches/ownable.sol\":1289:1296  owner() */\n      jump\t// in\n    tag_116:\n        /* \"contracts/CarreraCoches/ownable.sol\":1289:1312  owner() == _msgSender() */\n      0xffffffffffffffffffffffffffffffffffffffff\n      and\n      eq\n        /* \"contracts/CarreraCoches/ownable.sol\":1281:1349  require(owner() == _msgSender(), \"Ownable: caller is not the owner\") */\n      tag_117\n      jumpi\n      mload(0x40)\n      0x08c379a000000000000000000000000000000000000000000000000000000000\n      dup2\n      mstore\n      0x04\n      add\n      tag_118\n      swap1\n      tag_119\n      jump\t// in\n    tag_118:\n      mload(0x40)\n      dup1\n      swap2\n      sub\n      swap1\n      revert\n    tag_117:\n        /* \"contracts/CarreraCoches/ownable.sol\":1785:1815  _transferOwnership(address(0)) */\n      tag_121\n        /* \"contracts/CarreraCoches/ownable.sol\":1812:1813  0 */\n      0x00\n        /* \"contracts/CarreraCoches/ownable.sol\":1785:1803  _transferOwnership */\n      tag_122\n        /* \"contracts/CarreraCoches/ownable.sol\":1785:1815  _transferOwnership(address(0)) */\n      jump\t// in\n    tag_121:\n        /* \"contracts/CarreraCoches/ownable.sol\":1720:1823  function renounceOwnership() public virtual onlyOwner {\r... */\n      jump\t// out\n        /* \"contracts/CarreraCoches/principal.sol\":758:809  mapping (uint => address) public cocheDePropietario */\n    tag_37:\n      mstore(0x20, 0x05)\n      dup1\n      0x00\n      mstore\n      keccak256(0x00, 0x40)\n      0x00\n      swap2\n      pop\n      sload\n      swap1\n      0x0100\n      exp\n      swap1\n      div\n      0xffffffffffffffffffffffffffffffffffffffff\n      and\n      dup2\n      jump\t// out\n        /* \"contracts/CarreraCoches/ownable.sol\":1069:1156  function owner() public view virtual returns (address) {\r... */\n    tag_42:\n        /* \"contracts/CarreraCoches/ownable.sol\":1115:1122  address */\n      0x00\n        /* \"contracts/CarreraCoches/ownable.sol\":1142:1148  _owner */\n      dup1\n      0x00\n      swap1\n      sload\n      swap1\n      0x0100\n      exp\n      swap1\n      div\n      0xffffffffffffffffffffffffffffffffffffffff\n      and\n        /* \"contracts/CarreraCoches/ownable.sol\":1135:1148  return _owner */\n      swap1\n      pop\n        /* \"contracts/CarreraCoches/ownable.sol\":1069:1156  function owner() public view virtual returns (address) {\r... */\n      swap1\n      jump\t// out\n        /* \"contracts/CarreraCoches/principal.sol\":537:563  Coche[] public listaCoches */\n    tag_47:\n      0x04\n      dup2\n      dup2\n      sload\n      dup2\n      lt\n      tag_124\n      jumpi\n      0x00\n      dup1\n      revert\n    tag_124:\n      swap1\n      0x00\n      mstore\n      keccak256(0x00, 0x20)\n      swap1\n      0x08\n      mul\n      add\n      0x00\n      swap2\n      pop\n      swap1\n      pop\n      dup1\n      0x00\n      add\n      0x00\n      swap1\n      sload\n      swap1\n      0x0100\n      exp\n      swap1\n      div\n      0xffffffffffffffffffffffffffffffffffffffff\n      and\n      swap1\n      dup1\n      0x01\n      add\n      dup1\n      sload\n      tag_126\n      swap1\n      tag_127\n      jump\t// in\n    tag_126:\n      dup1\n      0x1f\n      add\n      0x20\n      dup1\n      swap2\n      div\n      mul\n      0x20\n      add\n      mload(0x40)\n      swap1\n      dup2\n      add\n      0x40\n      mstore\n      dup1\n      swap3\n      swap2\n      swap1\n      dup2\n      dup2\n      mstore\n      0x20\n      add\n      dup3\n      dup1\n      sload\n      tag_128\n      swap1\n      tag_127\n      jump\t// in\n    tag_128:\n      dup1\n      iszero\n      tag_129\n      jumpi\n      dup1\n      0x1f\n      lt\n      tag_130\n      jumpi\n      0x0100\n      dup1\n      dup4\n      sload\n      div\n      mul\n      dup4\n      mstore\n      swap2\n      0x20\n      add\n      swap2\n      jump(tag_129)\n    tag_130:\n      dup3\n      add\n      swap2\n      swap1\n      0x00\n      mstore\n      keccak256(0x00, 0x20)\n      swap1\n    tag_131:\n      dup2\n      sload\n      dup2\n      mstore\n      swap1\n      0x01\n      add\n      swap1\n      0x20\n      add\n      dup1\n      dup4\n      gt\n      tag_131\n      jumpi\n      dup3\n      swap1\n      sub\n      0x1f\n      and\n      dup3\n      add\n      swap2\n    tag_129:\n      pop\n      pop\n      pop\n      pop\n      pop\n      swap1\n      dup1\n      0x02\n      add\n      dup1\n      sload\n      tag_132\n      swap1\n      tag_127\n      jump\t// in\n    tag_132:\n      dup1\n      0x1f\n      add\n      0x20\n      dup1\n      swap2\n      div\n      mul\n      0x20\n      add\n      mload(0x40)\n      swap1\n      dup2\n      add\n      0x40\n      mstore\n      dup1\n      swap3\n      swap2\n      swap1\n      dup2\n      dup2\n      mstore\n      0x20\n      add\n      dup3\n      dup1\n      sload\n      tag_133\n      swap1\n      tag_127\n      jump\t// in\n    tag_133:\n      dup1\n      iszero\n      tag_134\n      jumpi\n      dup1\n      0x1f\n      lt\n      tag_135\n      jumpi\n      0x0100\n      dup1\n      dup4\n      sload\n      div\n      mul\n      dup4\n      mstore\n      swap2\n      0x20\n      add\n      swap2\n      jump(tag_134)\n    tag_135:\n      dup3\n      add\n      swap2\n      swap1\n      0x00\n      mstore\n      keccak256(0x00, 0x20)\n      swap1\n    tag_136:\n      dup2\n      sload\n      dup2\n      mstore\n      swap1\n      0x01\n      add\n      swap1\n      0x20\n      add\n      dup1\n      dup4\n      gt\n      tag_136\n      jumpi\n      dup3\n      swap1\n      sub\n      0x1f\n      and\n      dup3\n      add\n      swap2\n    tag_134:\n      pop\n      pop\n      pop\n      pop\n      pop\n      swap1\n      dup1\n      0x03\n      add\n      dup1\n      sload\n      tag_137\n      swap1\n      tag_127\n      jump\t// in\n    tag_137:\n      dup1\n      0x1f\n      add\n      0x20\n      dup1\n      swap2\n      div\n      mul\n      0x20\n      add\n      mload(0x40)\n      swap1\n      dup2\n      add\n      0x40\n      mstore\n      dup1\n      swap3\n      swap2\n      swap1\n      dup2\n      dup2\n      mstore\n      0x20\n      add\n      dup3\n      dup1\n      sload\n      tag_138\n      swap1\n      tag_127\n      jump\t// in\n    tag_138:\n      dup1\n      iszero\n      tag_139\n      jumpi\n      dup1\n      0x1f\n      lt\n      tag_140\n      jumpi\n      0x0100\n      dup1\n      dup4\n      sload\n      div\n      mul\n      dup4\n      mstore\n      swap2\n      0x20\n      add\n      swap2\n      jump(tag_139)\n    tag_140:\n      dup3\n      add\n      swap2\n      swap1\n      0x00\n      mstore\n      keccak256(0x00, 0x20)\n      swap1\n    tag_141:\n      dup2\n      sload\n      dup2\n      mstore\n      swap1\n      0x01\n      add\n      swap1\n      0x20\n      add\n      dup1\n      dup4\n      gt\n      tag_141\n      jumpi\n      dup3\n      swap1\n      sub\n      0x1f\n      and\n      dup3\n      add\n      swap2\n    tag_139:\n      pop\n      pop\n      pop\n      pop\n      pop\n      swap1\n      dup1\n      0x04\n      add\n      sload\n      swap1\n      dup1\n      0x05\n      add\n      sload\n      swap1\n      dup1\n      0x06\n      add\n      sload\n      swap1\n      dup1\n      0x07\n      add\n      0x00\n      swap1\n      sload\n      swap1\n      0x0100\n      exp\n      swap1\n      div\n      0xffffffff\n      and\n      swap1\n      pop\n      dup9\n      jump\t// out\n        /* \"contracts/CarreraCoches/principal.sol\":1883:2171  function verCochePropietario(address _propietario) external {\r... */\n    tag_53:\n        /* \"contracts/CarreraCoches/principal.sol\":1958:1964  uint i */\n      0x00\n        /* \"contracts/CarreraCoches/principal.sol\":1954:2164  for(uint i = 0; i < listaCoches.length; i++){\r... */\n    tag_143:\n        /* \"contracts/CarreraCoches/principal.sol\":1974:1985  listaCoches */\n      0x04\n        /* \"contracts/CarreraCoches/principal.sol\":1974:1992  listaCoches.length */\n      dup1\n      sload\n      swap1\n      pop\n        /* \"contracts/CarreraCoches/principal.sol\":1970:1971  i */\n      dup2\n        /* \"contracts/CarreraCoches/principal.sol\":1970:1992  i < listaCoches.length */\n      lt\n        /* \"contracts/CarreraCoches/principal.sol\":1954:2164  for(uint i = 0; i < listaCoches.length; i++){\r... */\n      iszero\n      tag_144\n      jumpi\n        /* \"contracts/CarreraCoches/principal.sol\":2039:2051  _propietario */\n      dup2\n        /* \"contracts/CarreraCoches/principal.sol\":2016:2051  cocheDePropietario[i]==_propietario */\n      0xffffffffffffffffffffffffffffffffffffffff\n      and\n        /* \"contracts/CarreraCoches/principal.sol\":2016:2034  cocheDePropietario */\n      0x05\n        /* \"contracts/CarreraCoches/principal.sol\":2016:2037  cocheDePropietario[i] */\n      0x00\n        /* \"contracts/CarreraCoches/principal.sol\":2035:2036  i */\n      dup4\n        /* \"contracts/CarreraCoches/principal.sol\":2016:2037  cocheDePropietario[i] */\n      dup2\n      mstore\n      0x20\n      add\n      swap1\n      dup2\n      mstore\n      0x20\n      add\n      0x00\n      keccak256\n      0x00\n      swap1\n      sload\n      swap1\n      0x0100\n      exp\n      swap1\n      div\n      0xffffffffffffffffffffffffffffffffffffffff\n      and\n        /* \"contracts/CarreraCoches/principal.sol\":2016:2051  cocheDePropietario[i]==_propietario */\n      0xffffffffffffffffffffffffffffffffffffffff\n      and\n      eq\n        /* \"contracts/CarreraCoches/principal.sol\":2013:2153  if(cocheDePropietario[i]==_propietario){\r... */\n      iszero\n      tag_146\n      jumpi\n        /* \"contracts/CarreraCoches/principal.sol\":2076:2137  cochePropietario(listaCoches[i].marca, listaCoches[i].modelo) */\n      0x96408510f58a52b0cfe536e046b25664fa36d8122620ec608c1767b45aa4f03c\n        /* \"contracts/CarreraCoches/principal.sol\":2093:2104  listaCoches */\n      0x04\n        /* \"contracts/CarreraCoches/principal.sol\":2105:2106  i */\n      dup3\n        /* \"contracts/CarreraCoches/principal.sol\":2093:2107  listaCoches[i] */\n      dup2\n      sload\n      dup2\n      lt\n      tag_147\n      jumpi\n      tag_148\n      tag_90\n      jump\t// in\n    tag_148:\n    tag_147:\n      swap1\n      0x00\n      mstore\n      keccak256(0x00, 0x20)\n      swap1\n      0x08\n      mul\n      add\n        /* \"contracts/CarreraCoches/principal.sol\":2093:2113  listaCoches[i].marca */\n      0x02\n      add\n        /* \"contracts/CarreraCoches/principal.sol\":2115:2126  listaCoches */\n      0x04\n        /* \"contracts/CarreraCoches/principal.sol\":2127:2128  i */\n      dup4\n        /* \"contracts/CarreraCoches/principal.sol\":2115:2129  listaCoches[i] */\n      dup2\n      sload\n      dup2\n      lt\n      tag_150\n      jumpi\n      tag_151\n      tag_90\n      jump\t// in\n    tag_151:\n    tag_150:\n      swap1\n      0x00\n      mstore\n      keccak256(0x00, 0x20)\n      swap1\n      0x08\n      mul\n      add\n        /* \"contracts/CarreraCoches/principal.sol\":2115:2136  listaCoches[i].modelo */\n      0x01\n      add\n        /* \"contracts/CarreraCoches/principal.sol\":2076:2137  cochePropietario(listaCoches[i].marca, listaCoches[i].modelo) */\n      mload(0x40)\n      tag_153\n      swap3\n      swap2\n      swap1\n      tag_154\n      jump\t// in\n    tag_153:\n      mload(0x40)\n      dup1\n      swap2\n      sub\n      swap1\n      log1\n        /* \"contracts/CarreraCoches/principal.sol\":2013:2153  if(cocheDePropietario[i]==_propietario){\r... */\n    tag_146:\n        /* \"contracts/CarreraCoches/principal.sol\":1994:1997  i++ */\n      dup1\n      dup1\n      tag_155\n      swap1\n      tag_71\n      jump\t// in\n    tag_155:\n      swap2\n      pop\n      pop\n        /* \"contracts/CarreraCoches/principal.sol\":1954:2164  for(uint i = 0; i < listaCoches.length; i++){\r... */\n      jump(tag_143)\n    tag_144:\n      pop\n        /* \"contracts/CarreraCoches/principal.sol\":1883:2171  function verCochePropietario(address _propietario) external {\r... */\n      pop\n      jump\t// out\n        /* \"contracts/CarreraCoches/ownable.sol\":1978:2179  function transferOwnership(address newOwner) public virtual onlyOwner {\r... */\n    tag_57:\n        /* \"contracts/CarreraCoches/ownable.sol\":1300:1312  _msgSender() */\n      tag_157\n        /* \"contracts/CarreraCoches/ownable.sol\":1300:1310  _msgSender */\n      tag_115\n        /* \"contracts/CarreraCoches/ownable.sol\":1300:1312  _msgSender() */\n      jump\t// in\n    tag_157:\n        /* \"contracts/CarreraCoches/ownable.sol\":1289:1312  owner() == _msgSender() */\n      0xffffffffffffffffffffffffffffffffffffffff\n      and\n        /* \"contracts/CarreraCoches/ownable.sol\":1289:1296  owner() */\n      tag_158\n        /* \"contracts/CarreraCoches/ownable.sol\":1289:1294  owner */\n      tag_42\n        /* \"contracts/CarreraCoches/ownable.sol\":1289:1296  owner() */\n      jump\t// in\n    tag_158:\n        /* \"contracts/CarreraCoches/ownable.sol\":1289:1312  owner() == _msgSender() */\n      0xffffffffffffffffffffffffffffffffffffffff\n      and\n      eq\n        /* \"contracts/CarreraCoches/ownable.sol\":1281:1349  require(owner() == _msgSender(), \"Ownable: caller is not the owner\") */\n      tag_159\n      jumpi\n      mload(0x40)\n      0x08c379a000000000000000000000000000000000000000000000000000000000\n      dup2\n      mstore\n      0x04\n      add\n      tag_160\n      swap1\n      tag_119\n      jump\t// in\n    tag_160:\n      mload(0x40)\n      dup1\n      swap2\n      sub\n      swap1\n      revert\n    tag_159:\n        /* \"contracts/CarreraCoches/ownable.sol\":2087:2088  0 */\n      0x00\n        /* \"contracts/CarreraCoches/ownable.sol\":2067:2089  newOwner != address(0) */\n      0xffffffffffffffffffffffffffffffffffffffff\n      and\n        /* \"contracts/CarreraCoches/ownable.sol\":2067:2075  newOwner */\n      dup2\n        /* \"contracts/CarreraCoches/ownable.sol\":2067:2089  newOwner != address(0) */\n      0xffffffffffffffffffffffffffffffffffffffff\n      and\n      eq\n      iszero\n        /* \"contracts/CarreraCoches/ownable.sol\":2059:2132  require(newOwner != address(0), \"Ownable: new owner is the zero address\") */\n      tag_162\n      jumpi\n      mload(0x40)\n      0x08c379a000000000000000000000000000000000000000000000000000000000\n      dup2\n      mstore\n      0x04\n      add\n      tag_163\n      swap1\n      tag_164\n      jump\t// in\n    tag_163:\n      mload(0x40)\n      dup1\n      swap2\n      sub\n      swap1\n      revert\n    tag_162:\n        /* \"contracts/CarreraCoches/ownable.sol\":2143:2171  _transferOwnership(newOwner) */\n      tag_165\n        /* \"contracts/CarreraCoches/ownable.sol\":2162:2170  newOwner */\n      dup2\n        /* \"contracts/CarreraCoches/ownable.sol\":2143:2161  _transferOwnership */\n      tag_122\n        /* \"contracts/CarreraCoches/ownable.sol\":2143:2171  _transferOwnership(newOwner) */\n      jump\t// in\n    tag_165:\n        /* \"contracts/CarreraCoches/ownable.sol\":1978:2179  function transferOwnership(address newOwner) public virtual onlyOwner {\r... */\n      pop\n      jump\t// out\n        /* \"contracts/CarreraCoches/principal.sol\":3741:3920  function balance() private {\r... */\n    tag_95:\n        /* \"contracts/CarreraCoches/principal.sol\":3788:3798  msg.sender */\n      caller\n        /* \"contracts/CarreraCoches/principal.sol\":3779:3808  payable (msg.sender).transfer */\n      0xffffffffffffffffffffffffffffffffffffffff\n      and\n        /* \"contracts/CarreraCoches/principal.sol\":3779:3835  payable (msg.sender).transfer((address(this).balance)*2) */\n      0x08fc\n        /* \"contracts/CarreraCoches/principal.sol\":3833:3834  2 */\n      0x02\n        /* \"contracts/CarreraCoches/principal.sol\":3810:3831  address(this).balance */\n      selfbalance\n        /* \"contracts/CarreraCoches/principal.sol\":3809:3834  (address(this).balance)*2 */\n      tag_167\n      swap2\n      swap1\n      tag_168\n      jump\t// in\n    tag_167:\n        /* \"contracts/CarreraCoches/principal.sol\":3779:3835  payable (msg.sender).transfer((address(this).balance)*2) */\n      swap1\n      dup2\n      iszero\n      mul\n      swap1\n      mload(0x40)\n      0x00\n      mload(0x40)\n      dup1\n      dup4\n      sub\n      dup2\n      dup6\n      dup9\n      dup9\n      call\n      swap4\n      pop\n      pop\n      pop\n      pop\n      iszero\n      dup1\n      iszero\n      tag_170\n      jumpi\n      returndatasize\n      0x00\n      dup1\n      returndatacopy\n      revert(0x00, returndatasize)\n    tag_170:\n      pop\n        /* \"contracts/CarreraCoches/principal.sol\":3851:3912  mostrarResultado(\"Has ganado: \", ((address(this).balance)*2)) */\n      0xa28482eec3136a2461c6c30c08f71ba279c6c51a2d9c7bea4e50d6d2632f3896\n        /* \"contracts/CarreraCoches/principal.sol\":3909:3910  2 */\n      0x02\n        /* \"contracts/CarreraCoches/principal.sol\":3886:3907  address(this).balance */\n      selfbalance\n        /* \"contracts/CarreraCoches/principal.sol\":3885:3910  (address(this).balance)*2 */\n      tag_171\n      swap2\n      swap1\n      tag_168\n      jump\t// in\n    tag_171:\n        /* \"contracts/CarreraCoches/principal.sol\":3851:3912  mostrarResultado(\"Has ganado: \", ((address(this).balance)*2)) */\n      mload(0x40)\n      tag_172\n      swap2\n      swap1\n      tag_173\n      jump\t// in\n    tag_172:\n      mload(0x40)\n      dup1\n      swap2\n      sub\n      swap1\n      log1\n        /* \"contracts/CarreraCoches/principal.sol\":3741:3920  function balance() private {\r... */\n      jump\t// out\n        /* \"contracts/CarreraCoches/utils/Context.sol\":656:754  function _msgSender() internal view virtual returns (address) {\r... */\n    tag_115:\n        /* \"contracts/CarreraCoches/utils/Context.sol\":709:716  address */\n      0x00\n        /* \"contracts/CarreraCoches/utils/Context.sol\":736:746  msg.sender */\n      caller\n        /* \"contracts/CarreraCoches/utils/Context.sol\":729:746  return msg.sender */\n      swap1\n      pop\n        /* \"contracts/CarreraCoches/utils/Context.sol\":656:754  function _msgSender() internal view virtual returns (address) {\r... */\n      swap1\n      jump\t// out\n        /* \"contracts/CarreraCoches/ownable.sol\":2339:2530  function _transferOwnership(address newOwner) internal virtual {\r... */\n    tag_122:\n        /* \"contracts/CarreraCoches/ownable.sol\":2413:2429  address oldOwner */\n      0x00\n        /* \"contracts/CarreraCoches/ownable.sol\":2432:2438  _owner */\n      dup1\n      0x00\n      swap1\n      sload\n      swap1\n      0x0100\n      exp\n      swap1\n      div\n      0xffffffffffffffffffffffffffffffffffffffff\n      and\n        /* \"contracts/CarreraCoches/ownable.sol\":2413:2438  address oldOwner = _owner */\n      swap1\n      pop\n        /* \"contracts/CarreraCoches/ownable.sol\":2458:2466  newOwner */\n      dup2\n        /* \"contracts/CarreraCoches/ownable.sol\":2449:2455  _owner */\n      0x00\n      dup1\n        /* \"contracts/CarreraCoches/ownable.sol\":2449:2466  _owner = newOwner */\n      0x0100\n      exp\n      dup2\n      sload\n      dup2\n      0xffffffffffffffffffffffffffffffffffffffff\n      mul\n      not\n      and\n      swap1\n      dup4\n      0xffffffffffffffffffffffffffffffffffffffff\n      and\n      mul\n      or\n      swap1\n      sstore\n      pop\n        /* \"contracts/CarreraCoches/ownable.sol\":2513:2521  newOwner */\n      dup2\n        /* \"contracts/CarreraCoches/ownable.sol\":2482:2522  OwnershipTransferred(oldOwner, newOwner) */\n      0xffffffffffffffffffffffffffffffffffffffff\n      and\n        /* \"contracts/CarreraCoches/ownable.sol\":2503:2511  oldOwner */\n      dup2\n        /* \"contracts/CarreraCoches/ownable.sol\":2482:2522  OwnershipTransferred(oldOwner, newOwner) */\n      0xffffffffffffffffffffffffffffffffffffffff\n      and\n      0x8be0079c531659141344cd1fd0a4f28419497f9722a3daafe3b4186f6b6457e0\n      mload(0x40)\n      mload(0x40)\n      dup1\n      swap2\n      sub\n      swap1\n      log3\n        /* \"contracts/CarreraCoches/ownable.sol\":2402:2530  {\r... */\n      pop\n        /* \"contracts/CarreraCoches/ownable.sol\":2339:2530  function _transferOwnership(address newOwner) internal virtual {\r... */\n      pop\n      jump\t// out\n    tag_67:\n      dup3\n      dup1\n      sload\n      tag_178\n      swap1\n      tag_127\n      jump\t// in\n    tag_178:\n      swap1\n      0x00\n      mstore\n      keccak256(0x00, 0x20)\n      swap1\n      0x1f\n      add\n      0x20\n      swap1\n      div\n      dup2\n      add\n      swap3\n      dup3\n      tag_180\n      jumpi\n      0x00\n      dup6\n      sstore\n      jump(tag_179)\n    tag_180:\n      dup3\n      0x1f\n      lt\n      tag_181\n      jumpi\n      dup1\n      mload\n      not(0xff)\n      and\n      dup4\n      dup1\n      add\n      or\n      dup6\n      sstore\n      jump(tag_179)\n    tag_181:\n      dup3\n      dup1\n      add\n      0x01\n      add\n      dup6\n      sstore\n      dup3\n      iszero\n      tag_179\n      jumpi\n      swap2\n      dup3\n      add\n    tag_182:\n      dup3\n      dup2\n      gt\n      iszero\n      tag_183\n      jumpi\n      dup3\n      mload\n      dup3\n      sstore\n      swap2\n      0x20\n      add\n      swap2\n      swap1\n      0x01\n      add\n      swap1\n      jump(tag_182)\n    tag_183:\n    tag_179:\n      pop\n      swap1\n      pop\n      tag_184\n      swap2\n      swap1\n      tag_185\n      jump\t// in\n    tag_184:\n      pop\n      swap1\n      jump\t// out\n    tag_185:\n    tag_186:\n      dup1\n      dup3\n      gt\n      iszero\n      tag_187\n      jumpi\n      0x00\n      dup2\n      0x00\n      swap1\n      sstore\n      pop\n      0x01\n      add\n      jump(tag_186)\n    tag_187:\n      pop\n      swap1\n      jump\t// out\n        /* \"#utility.yul\":7:419   */\n    tag_189:\n        /* \"#utility.yul\":85:90   */\n      0x00\n        /* \"#utility.yul\":110:176   */\n      tag_191\n        /* \"#utility.yul\":126:175   */\n      tag_192\n        /* \"#utility.yul\":168:174   */\n      dup5\n        /* \"#utility.yul\":126:175   */\n      tag_193\n      jump\t// in\n    tag_192:\n        /* \"#utility.yul\":110:176   */\n      tag_194\n      jump\t// in\n    tag_191:\n        /* \"#utility.yul\":101:176   */\n      swap1\n      pop\n        /* \"#utility.yul\":199:205   */\n      dup3\n        /* \"#utility.yul\":192:197   */\n      dup2\n        /* \"#utility.yul\":185:206   */\n      mstore\n        /* \"#utility.yul\":237:241   */\n      0x20\n        /* \"#utility.yul\":230:235   */\n      dup2\n        /* \"#utility.yul\":226:242   */\n      add\n        /* \"#utility.yul\":275:278   */\n      dup5\n        /* \"#utility.yul\":266:272   */\n      dup5\n        /* \"#utility.yul\":261:264   */\n      dup5\n        /* \"#utility.yul\":257:273   */\n      add\n        /* \"#utility.yul\":254:279   */\n      gt\n        /* \"#utility.yul\":251:363   */\n      iszero\n      tag_195\n      jumpi\n        /* \"#utility.yul\":282:361   */\n      tag_196\n      tag_197\n      jump\t// in\n    tag_196:\n        /* \"#utility.yul\":251:363   */\n    tag_195:\n        /* \"#utility.yul\":372:413   */\n      tag_198\n        /* \"#utility.yul\":406:412   */\n      dup5\n        /* \"#utility.yul\":401:404   */\n      dup3\n        /* \"#utility.yul\":396:399   */\n      dup6\n        /* \"#utility.yul\":372:413   */\n      tag_199\n      jump\t// in\n    tag_198:\n        /* \"#utility.yul\":91:419   */\n      pop\n        /* \"#utility.yul\":7:419   */\n      swap4\n      swap3\n      pop\n      pop\n      pop\n      jump\t// out\n        /* \"#utility.yul\":425:564   */\n    tag_200:\n        /* \"#utility.yul\":471:476   */\n      0x00\n        /* \"#utility.yul\":509:515   */\n      dup2\n        /* \"#utility.yul\":496:516   */\n      calldataload\n        /* \"#utility.yul\":487:516   */\n      swap1\n      pop\n        /* \"#utility.yul\":525:558   */\n      tag_202\n        /* \"#utility.yul\":552:557   */\n      dup2\n        /* \"#utility.yul\":525:558   */\n      tag_203\n      jump\t// in\n    tag_202:\n        /* \"#utility.yul\":425:564   */\n      swap3\n      swap2\n      pop\n      pop\n      jump\t// out\n        /* \"#utility.yul\":584:924   */\n    tag_204:\n        /* \"#utility.yul\":640:645   */\n      0x00\n        /* \"#utility.yul\":689:692   */\n      dup3\n        /* \"#utility.yul\":682:686   */\n      0x1f\n        /* \"#utility.yul\":674:680   */\n      dup4\n        /* \"#utility.yul\":670:687   */\n      add\n        /* \"#utility.yul\":666:693   */\n      slt\n        /* \"#utility.yul\":656:778   */\n      tag_206\n      jumpi\n        /* \"#utility.yul\":697:776   */\n      tag_207\n      tag_208\n      jump\t// in\n    tag_207:\n        /* \"#utility.yul\":656:778   */\n    tag_206:\n        /* \"#utility.yul\":814:820   */\n      dup2\n        /* \"#utility.yul\":801:821   */\n      calldataload\n        /* \"#utility.yul\":839:918   */\n      tag_209\n        /* \"#utility.yul\":914:917   */\n      dup5\n        /* \"#utility.yul\":906:912   */\n      dup3\n        /* \"#utility.yul\":899:903   */\n      0x20\n        /* \"#utility.yul\":891:897   */\n      dup7\n        /* \"#utility.yul\":887:904   */\n      add\n        /* \"#utility.yul\":839:918   */\n      tag_189\n      jump\t// in\n    tag_209:\n        /* \"#utility.yul\":830:918   */\n      swap2\n      pop\n        /* \"#utility.yul\":646:924   */\n      pop\n        /* \"#utility.yul\":584:924   */\n      swap3\n      swap2\n      pop\n      pop\n      jump\t// out\n        /* \"#utility.yul\":930:1069   */\n    tag_210:\n        /* \"#utility.yul\":976:981   */\n      0x00\n        /* \"#utility.yul\":1014:1020   */\n      dup2\n        /* \"#utility.yul\":1001:1021   */\n      calldataload\n        /* \"#utility.yul\":992:1021   */\n      swap1\n      pop\n        /* \"#utility.yul\":1030:1063   */\n      tag_212\n        /* \"#utility.yul\":1057:1062   */\n      dup2\n        /* \"#utility.yul\":1030:1063   */\n      tag_213\n      jump\t// in\n    tag_212:\n        /* \"#utility.yul\":930:1069   */\n      swap3\n      swap2\n      pop\n      pop\n      jump\t// out\n        /* \"#utility.yul\":1075:1404   */\n    tag_15:\n        /* \"#utility.yul\":1134:1140   */\n      0x00\n        /* \"#utility.yul\":1183:1185   */\n      0x20\n        /* \"#utility.yul\":1171:1180   */\n      dup3\n        /* \"#utility.yul\":1162:1169   */\n      dup5\n        /* \"#utility.yul\":1158:1181   */\n      sub\n        /* \"#utility.yul\":1154:1186   */\n      slt\n        /* \"#utility.yul\":1151:1270   */\n      iszero\n      tag_215\n      jumpi\n        /* \"#utility.yul\":1189:1268   */\n      tag_216\n      tag_217\n      jump\t// in\n    tag_216:\n        /* \"#utility.yul\":1151:1270   */\n    tag_215:\n        /* \"#utility.yul\":1309:1310   */\n      0x00\n        /* \"#utility.yul\":1334:1387   */\n      tag_218\n        /* \"#utility.yul\":1379:1386   */\n      dup5\n        /* \"#utility.yul\":1370:1376   */\n      dup3\n        /* \"#utility.yul\":1359:1368   */\n      dup6\n        /* \"#utility.yul\":1355:1377   */\n      add\n        /* \"#utility.yul\":1334:1387   */\n      tag_200\n      jump\t// in\n    tag_218:\n        /* \"#utility.yul\":1324:1387   */\n      swap2\n      pop\n        /* \"#utility.yul\":1280:1397   */\n      pop\n        /* \"#utility.yul\":1075:1404   */\n      swap3\n      swap2\n      pop\n      pop\n      jump\t// out\n        /* \"#utility.yul\":1410:2569   */\n    tag_22:\n        /* \"#utility.yul\":1517:1523   */\n      0x00\n        /* \"#utility.yul\":1525:1531   */\n      dup1\n        /* \"#utility.yul\":1533:1539   */\n      0x00\n        /* \"#utility.yul\":1582:1584   */\n      0x60\n        /* \"#utility.yul\":1570:1579   */\n      dup5\n        /* \"#utility.yul\":1561:1568   */\n      dup7\n        /* \"#utility.yul\":1557:1580   */\n      sub\n        /* \"#utility.yul\":1553:1585   */\n      slt\n        /* \"#utility.yul\":1550:1669   */\n      iszero\n      tag_220\n      jumpi\n        /* \"#utility.yul\":1588:1667   */\n      tag_221\n      tag_217\n      jump\t// in\n    tag_221:\n        /* \"#utility.yul\":1550:1669   */\n    tag_220:\n        /* \"#utility.yul\":1736:1737   */\n      0x00\n        /* \"#utility.yul\":1725:1734   */\n      dup5\n        /* \"#utility.yul\":1721:1738   */\n      add\n        /* \"#utility.yul\":1708:1739   */\n      calldataload\n        /* \"#utility.yul\":1766:1784   */\n      0xffffffffffffffff\n        /* \"#utility.yul\":1758:1764   */\n      dup2\n        /* \"#utility.yul\":1755:1785   */\n      gt\n        /* \"#utility.yul\":1752:1869   */\n      iszero\n      tag_222\n      jumpi\n        /* \"#utility.yul\":1788:1867   */\n      tag_223\n      tag_224\n      jump\t// in\n    tag_223:\n        /* \"#utility.yul\":1752:1869   */\n    tag_222:\n        /* \"#utility.yul\":1893:1956   */\n      tag_225\n        /* \"#utility.yul\":1948:1955   */\n      dup7\n        /* \"#utility.yul\":1939:1945   */\n      dup3\n        /* \"#utility.yul\":1928:1937   */\n      dup8\n        /* \"#utility.yul\":1924:1946   */\n      add\n        /* \"#utility.yul\":1893:1956   */\n      tag_204\n      jump\t// in\n    tag_225:\n        /* \"#utility.yul\":1883:1956   */\n      swap4\n      pop\n        /* \"#utility.yul\":1679:1966   */\n      pop\n        /* \"#utility.yul\":2033:2035   */\n      0x20\n        /* \"#utility.yul\":2022:2031   */\n      dup5\n        /* \"#utility.yul\":2018:2036   */\n      add\n        /* \"#utility.yul\":2005:2037   */\n      calldataload\n        /* \"#utility.yul\":2064:2082   */\n      0xffffffffffffffff\n        /* \"#utility.yul\":2056:2062   */\n      dup2\n        /* \"#utility.yul\":2053:2083   */\n      gt\n        /* \"#utility.yul\":2050:2167   */\n      iszero\n      tag_226\n      jumpi\n        /* \"#utility.yul\":2086:2165   */\n      tag_227\n      tag_224\n      jump\t// in\n    tag_227:\n        /* \"#utility.yul\":2050:2167   */\n    tag_226:\n        /* \"#utility.yul\":2191:2254   */\n      tag_228\n        /* \"#utility.yul\":2246:2253   */\n      dup7\n        /* \"#utility.yul\":2237:2243   */\n      dup3\n        /* \"#utility.yul\":2226:2235   */\n      dup8\n        /* \"#utility.yul\":2222:2244   */\n      add\n        /* \"#utility.yul\":2191:2254   */\n      tag_204\n      jump\t// in\n    tag_228:\n        /* \"#utility.yul\":2181:2254   */\n      swap3\n      pop\n        /* \"#utility.yul\":1976:2264   */\n      pop\n        /* \"#utility.yul\":2331:2333   */\n      0x40\n        /* \"#utility.yul\":2320:2329   */\n      dup5\n        /* \"#utility.yul\":2316:2334   */\n      add\n        /* \"#utility.yul\":2303:2335   */\n      calldataload\n        /* \"#utility.yul\":2362:2380   */\n      0xffffffffffffffff\n        /* \"#utility.yul\":2354:2360   */\n      dup2\n        /* \"#utility.yul\":2351:2381   */\n      gt\n        /* \"#utility.yul\":2348:2465   */\n      iszero\n      tag_229\n      jumpi\n        /* \"#utility.yul\":2384:2463   */\n      tag_230\n      tag_224\n      jump\t// in\n    tag_230:\n        /* \"#utility.yul\":2348:2465   */\n    tag_229:\n        /* \"#utility.yul\":2489:2552   */\n      tag_231\n        /* \"#utility.yul\":2544:2551   */\n      dup7\n        /* \"#utility.yul\":2535:2541   */\n      dup3\n        /* \"#utility.yul\":2524:2533   */\n      dup8\n        /* \"#utility.yul\":2520:2542   */\n      add\n        /* \"#utility.yul\":2489:2552   */\n      tag_204\n      jump\t// in\n    tag_231:\n        /* \"#utility.yul\":2479:2552   */\n      swap2\n      pop\n        /* \"#utility.yul\":2274:2562   */\n      pop\n        /* \"#utility.yul\":1410:2569   */\n      swap3\n      pop\n      swap3\n      pop\n      swap3\n      jump\t// out\n        /* \"#utility.yul\":2575:2904   */\n    tag_27:\n        /* \"#utility.yul\":2634:2640   */\n      0x00\n        /* \"#utility.yul\":2683:2685   */\n      0x20\n        /* \"#utility.yul\":2671:2680   */\n      dup3\n        /* \"#utility.yul\":2662:2669   */\n      dup5\n        /* \"#utility.yul\":2658:2681   */\n      sub\n        /* \"#utility.yul\":2654:2686   */\n      slt\n        /* \"#utility.yul\":2651:2770   */\n      iszero\n      tag_233\n      jumpi\n        /* \"#utility.yul\":2689:2768   */\n      tag_234\n      tag_217\n      jump\t// in\n    tag_234:\n        /* \"#utility.yul\":2651:2770   */\n    tag_233:\n        /* \"#utility.yul\":2809:2810   */\n      0x00\n        /* \"#utility.yul\":2834:2887   */\n      tag_235\n        /* \"#utility.yul\":2879:2886   */\n      dup5\n        /* \"#utility.yul\":2870:2876   */\n      dup3\n        /* \"#utility.yul\":2859:2868   */\n      dup6\n        /* \"#utility.yul\":2855:2877   */\n      add\n        /* \"#utility.yul\":2834:2887   */\n      tag_210\n      jump\t// in\n    tag_235:\n        /* \"#utility.yul\":2824:2887   */\n      swap2\n      pop\n        /* \"#utility.yul\":2780:2897   */\n      pop\n        /* \"#utility.yul\":2575:2904   */\n      swap3\n      swap2\n      pop\n      pop\n      jump\t// out\n        /* \"#utility.yul\":2910:3028   */\n    tag_236:\n        /* \"#utility.yul\":2997:3021   */\n      tag_238\n        /* \"#utility.yul\":3015:3020   */\n      dup2\n        /* \"#utility.yul\":2997:3021   */\n      tag_239\n      jump\t// in\n    tag_238:\n        /* \"#utility.yul\":2992:2995   */\n      dup3\n        /* \"#utility.yul\":2985:3022   */\n      mstore\n        /* \"#utility.yul\":2910:3028   */\n      pop\n      pop\n      jump\t// out\n        /* \"#utility.yul\":3034:3398   */\n    tag_240:\n        /* \"#utility.yul\":3122:3125   */\n      0x00\n        /* \"#utility.yul\":3150:3189   */\n      tag_242\n        /* \"#utility.yul\":3183:3188   */\n      dup3\n        /* \"#utility.yul\":3150:3189   */\n      tag_243\n      jump\t// in\n    tag_242:\n        /* \"#utility.yul\":3205:3276   */\n      tag_244\n        /* \"#utility.yul\":3269:3275   */\n      dup2\n        /* \"#utility.yul\":3264:3267   */\n      dup6\n        /* \"#utility.yul\":3205:3276   */\n      tag_245\n      jump\t// in\n    tag_244:\n        /* \"#utility.yul\":3198:3276   */\n      swap4\n      pop\n        /* \"#utility.yul\":3285:3337   */\n      tag_246\n        /* \"#utility.yul\":3330:3336   */\n      dup2\n        /* \"#utility.yul\":3325:3328   */\n      dup6\n        /* \"#utility.yul\":3318:3322   */\n      0x20\n        /* \"#utility.yul\":3311:3316   */\n      dup7\n        /* \"#utility.yul\":3307:3323   */\n      add\n        /* \"#utility.yul\":3285:3337   */\n      tag_247\n      jump\t// in\n    tag_246:\n        /* \"#utility.yul\":3362:3391   */\n      tag_248\n        /* \"#utility.yul\":3384:3390   */\n      dup2\n        /* \"#utility.yul\":3362:3391   */\n      tag_249\n      jump\t// in\n    tag_248:\n        /* \"#utility.yul\":3357:3360   */\n      dup5\n        /* \"#utility.yul\":3353:3392   */\n      add\n        /* \"#utility.yul\":3346:3392   */\n      swap2\n      pop\n        /* \"#utility.yul\":3126:3398   */\n      pop\n        /* \"#utility.yul\":3034:3398   */\n      swap3\n      swap2\n      pop\n      pop\n      jump\t// out\n        /* \"#utility.yul\":3428:4230   */\n    tag_250:\n        /* \"#utility.yul\":3513:3516   */\n      0x00\n        /* \"#utility.yul\":3550:3555   */\n      dup2\n        /* \"#utility.yul\":3544:3556   */\n      sload\n        /* \"#utility.yul\":3579:3615   */\n      tag_252\n        /* \"#utility.yul\":3605:3614   */\n      dup2\n        /* \"#utility.yul\":3579:3615   */\n      tag_127\n      jump\t// in\n    tag_252:\n        /* \"#utility.yul\":3631:3702   */\n      tag_253\n        /* \"#utility.yul\":3695:3701   */\n      dup2\n        /* \"#utility.yul\":3690:3693   */\n      dup7\n        /* \"#utility.yul\":3631:3702   */\n      tag_245\n      jump\t// in\n    tag_253:\n        /* \"#utility.yul\":3624:3702   */\n      swap5\n      pop\n        /* \"#utility.yul\":3733:3734   */\n      0x01\n        /* \"#utility.yul\":3722:3731   */\n      dup3\n        /* \"#utility.yul\":3718:3735   */\n      and\n        /* \"#utility.yul\":3749:3750   */\n      0x00\n        /* \"#utility.yul\":3744:3879   */\n      dup2\n      eq\n      tag_255\n      jumpi\n        /* \"#utility.yul\":3893:3894   */\n      0x01\n        /* \"#utility.yul\":3888:4224   */\n      dup2\n      eq\n      tag_256\n      jumpi\n        /* \"#utility.yul\":3711:4224   */\n      jump(tag_254)\n        /* \"#utility.yul\":3744:3879   */\n    tag_255:\n        /* \"#utility.yul\":3828:3832   */\n      0xff\n        /* \"#utility.yul\":3824:3833   */\n      not\n        /* \"#utility.yul\":3813:3822   */\n      dup4\n        /* \"#utility.yul\":3809:3834   */\n      and\n        /* \"#utility.yul\":3804:3807   */\n      dup7\n        /* \"#utility.yul\":3797:3835   */\n      mstore\n        /* \"#utility.yul\":3864:3868   */\n      0x20\n        /* \"#utility.yul\":3859:3862   */\n      dup7\n        /* \"#utility.yul\":3855:3869   */\n      add\n        /* \"#utility.yul\":3848:3869   */\n      swap4\n      pop\n        /* \"#utility.yul\":3744:3879   */\n      jump(tag_254)\n        /* \"#utility.yul\":3888:4224   */\n    tag_256:\n        /* \"#utility.yul\":3955:3993   */\n      tag_257\n        /* \"#utility.yul\":3987:3992   */\n      dup6\n        /* \"#utility.yul\":3955:3993   */\n      tag_258\n      jump\t// in\n    tag_257:\n        /* \"#utility.yul\":4015:4016   */\n      0x00\n        /* \"#utility.yul\":4029:4183   */\n    tag_259:\n        /* \"#utility.yul\":4043:4049   */\n      dup4\n        /* \"#utility.yul\":4040:4041   */\n      dup2\n        /* \"#utility.yul\":4037:4050   */\n      lt\n        /* \"#utility.yul\":4029:4183   */\n      iszero\n      tag_261\n      jumpi\n        /* \"#utility.yul\":4117:4124   */\n      dup2\n        /* \"#utility.yul\":4111:4125   */\n      sload\n        /* \"#utility.yul\":4107:4108   */\n      dup2\n        /* \"#utility.yul\":4102:4105   */\n      dup10\n        /* \"#utility.yul\":4098:4109   */\n      add\n        /* \"#utility.yul\":4091:4126   */\n      mstore\n        /* \"#utility.yul\":4167:4168   */\n      0x01\n        /* \"#utility.yul\":4158:4165   */\n      dup3\n        /* \"#utility.yul\":4154:4169   */\n      add\n        /* \"#utility.yul\":4143:4169   */\n      swap2\n      pop\n        /* \"#utility.yul\":4065:4069   */\n      0x20\n        /* \"#utility.yul\":4062:4063   */\n      dup2\n        /* \"#utility.yul\":4058:4070   */\n      add\n        /* \"#utility.yul\":4053:4070   */\n      swap1\n      pop\n        /* \"#utility.yul\":4029:4183   */\n      jump(tag_259)\n    tag_261:\n        /* \"#utility.yul\":4212:4213   */\n      dup1\n        /* \"#utility.yul\":4207:4210   */\n      dup9\n        /* \"#utility.yul\":4203:4214   */\n      add\n        /* \"#utility.yul\":4196:4214   */\n      swap6\n      pop\n        /* \"#utility.yul\":3895:4224   */\n      pop\n      pop\n        /* \"#utility.yul\":3711:4224   */\n    tag_254:\n      pop\n        /* \"#utility.yul\":3517:4230   */\n      pop\n      pop\n        /* \"#utility.yul\":3428:4230   */\n      swap3\n      swap2\n      pop\n      pop\n      jump\t// out\n        /* \"#utility.yul\":4236:4602   */\n    tag_262:\n        /* \"#utility.yul\":4378:4381   */\n      0x00\n        /* \"#utility.yul\":4399:4466   */\n      tag_264\n        /* \"#utility.yul\":4463:4465   */\n      0x28\n        /* \"#utility.yul\":4458:4461   */\n      dup4\n        /* \"#utility.yul\":4399:4466   */\n      tag_245\n      jump\t// in\n    tag_264:\n        /* \"#utility.yul\":4392:4466   */\n      swap2\n      pop\n        /* \"#utility.yul\":4475:4568   */\n      tag_265\n        /* \"#utility.yul\":4564:4567   */\n      dup3\n        /* \"#utility.yul\":4475:4568   */\n      tag_266\n      jump\t// in\n    tag_265:\n        /* \"#utility.yul\":4593:4595   */\n      0x40\n        /* \"#utility.yul\":4588:4591   */\n      dup3\n        /* \"#utility.yul\":4584:4596   */\n      add\n        /* \"#utility.yul\":4577:4596   */\n      swap1\n      pop\n        /* \"#utility.yul\":4236:4602   */\n      swap2\n      swap1\n      pop\n      jump\t// out\n        /* \"#utility.yul\":4608:4974   */\n    tag_267:\n        /* \"#utility.yul\":4750:4753   */\n      0x00\n        /* \"#utility.yul\":4771:4838   */\n      tag_269\n        /* \"#utility.yul\":4835:4837   */\n      0x26\n        /* \"#utility.yul\":4830:4833   */\n      dup4\n        /* \"#utility.yul\":4771:4838   */\n      tag_245\n      jump\t// in\n    tag_269:\n        /* \"#utility.yul\":4764:4838   */\n      swap2\n      pop\n        /* \"#utility.yul\":4847:4940   */\n      tag_270\n        /* \"#utility.yul\":4936:4939   */\n      dup3\n        /* \"#utility.yul\":4847:4940   */\n      tag_271\n      jump\t// in\n    tag_270:\n        /* \"#utility.yul\":4965:4967   */\n      0x40\n        /* \"#utility.yul\":4960:4963   */\n      dup3\n        /* \"#utility.yul\":4956:4968   */\n      add\n        /* \"#utility.yul\":4949:4968   */\n      swap1\n      pop\n        /* \"#utility.yul\":4608:4974   */\n      swap2\n      swap1\n      pop\n      jump\t// out\n        /* \"#utility.yul\":4980:5346   */\n    tag_272:\n        /* \"#utility.yul\":5122:5125   */\n      0x00\n        /* \"#utility.yul\":5143:5210   */\n      tag_274\n        /* \"#utility.yul\":5207:5209   */\n      0x0c\n        /* \"#utility.yul\":5202:5205   */\n      dup4\n        /* \"#utility.yul\":5143:5210   */\n      tag_245\n      jump\t// in\n    tag_274:\n        /* \"#utility.yul\":5136:5210   */\n      swap2\n      pop\n        /* \"#utility.yul\":5219:5312   */\n      tag_275\n        /* \"#utility.yul\":5308:5311   */\n      dup3\n        /* \"#utility.yul\":5219:5312   */\n      tag_276\n      jump\t// in\n    tag_275:\n        /* \"#utility.yul\":5337:5339   */\n      0x20\n        /* \"#utility.yul\":5332:5335   */\n      dup3\n        /* \"#utility.yul\":5328:5340   */\n      add\n        /* \"#utility.yul\":5321:5340   */\n      swap1\n      pop\n        /* \"#utility.yul\":4980:5346   */\n      swap2\n      swap1\n      pop\n      jump\t// out\n        /* \"#utility.yul\":5352:5718   */\n    tag_277:\n        /* \"#utility.yul\":5494:5497   */\n      0x00\n        /* \"#utility.yul\":5515:5582   */\n      tag_279\n        /* \"#utility.yul\":5579:5581   */\n      0x20\n        /* \"#utility.yul\":5574:5577   */\n      dup4\n        /* \"#utility.yul\":5515:5582   */\n      tag_245\n      jump\t// in\n    tag_279:\n        /* \"#utility.yul\":5508:5582   */\n      swap2\n      pop\n        /* \"#utility.yul\":5591:5684   */\n      tag_280\n        /* \"#utility.yul\":5680:5683   */\n      dup3\n        /* \"#utility.yul\":5591:5684   */\n      tag_281\n      jump\t// in\n    tag_280:\n        /* \"#utility.yul\":5709:5711   */\n      0x20\n        /* \"#utility.yul\":5704:5707   */\n      dup3\n        /* \"#utility.yul\":5700:5712   */\n      add\n        /* \"#utility.yul\":5693:5712   */\n      swap1\n      pop\n        /* \"#utility.yul\":5352:5718   */\n      swap2\n      swap1\n      pop\n      jump\t// out\n        /* \"#utility.yul\":5724:6090   */\n    tag_282:\n        /* \"#utility.yul\":5866:5869   */\n      0x00\n        /* \"#utility.yul\":5887:5954   */\n      tag_284\n        /* \"#utility.yul\":5951:5953   */\n      0x15\n        /* \"#utility.yul\":5946:5949   */\n      dup4\n        /* \"#utility.yul\":5887:5954   */\n      tag_245\n      jump\t// in\n    tag_284:\n        /* \"#utility.yul\":5880:5954   */\n      swap2\n      pop\n        /* \"#utility.yul\":5963:6056   */\n      tag_285\n        /* \"#utility.yul\":6052:6055   */\n      dup3\n        /* \"#utility.yul\":5963:6056   */\n      tag_286\n      jump\t// in\n    tag_285:\n        /* \"#utility.yul\":6081:6083   */\n      0x20\n        /* \"#utility.yul\":6076:6079   */\n      dup3\n        /* \"#utility.yul\":6072:6084   */\n      add\n        /* \"#utility.yul\":6065:6084   */\n      swap1\n      pop\n        /* \"#utility.yul\":5724:6090   */\n      swap2\n      swap1\n      pop\n      jump\t// out\n        /* \"#utility.yul\":6096:6214   */\n    tag_287:\n        /* \"#utility.yul\":6183:6207   */\n      tag_289\n        /* \"#utility.yul\":6201:6206   */\n      dup2\n        /* \"#utility.yul\":6183:6207   */\n      tag_290\n      jump\t// in\n    tag_289:\n        /* \"#utility.yul\":6178:6181   */\n      dup3\n        /* \"#utility.yul\":6171:6208   */\n      mstore\n        /* \"#utility.yul\":6096:6214   */\n      pop\n      pop\n      jump\t// out\n        /* \"#utility.yul\":6220:6377   */\n    tag_291:\n        /* \"#utility.yul\":6325:6370   */\n      tag_293\n        /* \"#utility.yul\":6345:6369   */\n      tag_294\n        /* \"#utility.yul\":6363:6368   */\n      dup3\n        /* \"#utility.yul\":6345:6369   */\n      tag_290\n      jump\t// in\n    tag_294:\n        /* \"#utility.yul\":6325:6370   */\n      tag_295\n      jump\t// in\n    tag_293:\n        /* \"#utility.yul\":6320:6323   */\n      dup3\n        /* \"#utility.yul\":6313:6371   */\n      mstore\n        /* \"#utility.yul\":6220:6377   */\n      pop\n      pop\n      jump\t// out\n        /* \"#utility.yul\":6383:6498   */\n    tag_296:\n        /* \"#utility.yul\":6468:6491   */\n      tag_298\n        /* \"#utility.yul\":6485:6490   */\n      dup2\n        /* \"#utility.yul\":6468:6491   */\n      tag_299\n      jump\t// in\n    tag_298:\n        /* \"#utility.yul\":6463:6466   */\n      dup3\n        /* \"#utility.yul\":6456:6492   */\n      mstore\n        /* \"#utility.yul\":6383:6498   */\n      pop\n      pop\n      jump\t// out\n        /* \"#utility.yul\":6504:7042   */\n    tag_79:\n        /* \"#utility.yul\":6672:6675   */\n      0x00\n        /* \"#utility.yul\":6687:6762   */\n      tag_301\n        /* \"#utility.yul\":6758:6761   */\n      dup3\n        /* \"#utility.yul\":6749:6755   */\n      dup7\n        /* \"#utility.yul\":6687:6762   */\n      tag_291\n      jump\t// in\n    tag_301:\n        /* \"#utility.yul\":6787:6789   */\n      0x20\n        /* \"#utility.yul\":6782:6785   */\n      dup3\n        /* \"#utility.yul\":6778:6790   */\n      add\n        /* \"#utility.yul\":6771:6790   */\n      swap2\n      pop\n        /* \"#utility.yul\":6800:6875   */\n      tag_302\n        /* \"#utility.yul\":6871:6874   */\n      dup3\n        /* \"#utility.yul\":6862:6868   */\n      dup6\n        /* \"#utility.yul\":6800:6875   */\n      tag_291\n      jump\t// in\n    tag_302:\n        /* \"#utility.yul\":6900:6902   */\n      0x20\n        /* \"#utility.yul\":6895:6898   */\n      dup3\n        /* \"#utility.yul\":6891:6903   */\n      add\n        /* \"#utility.yul\":6884:6903   */\n      swap2\n      pop\n        /* \"#utility.yul\":6913:6988   */\n      tag_303\n        /* \"#utility.yul\":6984:6987   */\n      dup3\n        /* \"#utility.yul\":6975:6981   */\n      dup5\n        /* \"#utility.yul\":6913:6988   */\n      tag_291\n      jump\t// in\n    tag_303:\n        /* \"#utility.yul\":7013:7015   */\n      0x20\n        /* \"#utility.yul\":7008:7011   */\n      dup3\n        /* \"#utility.yul\":7004:7016   */\n      add\n        /* \"#utility.yul\":6997:7016   */\n      swap2\n      pop\n        /* \"#utility.yul\":7033:7036   */\n      dup2\n        /* \"#utility.yul\":7026:7036   */\n      swap1\n      pop\n        /* \"#utility.yul\":6504:7042   */\n      swap5\n      swap4\n      pop\n      pop\n      pop\n      pop\n      jump\t// out\n        /* \"#utility.yul\":7048:7270   */\n    tag_39:\n        /* \"#utility.yul\":7141:7145   */\n      0x00\n        /* \"#utility.yul\":7179:7181   */\n      0x20\n        /* \"#utility.yul\":7168:7177   */\n      dup3\n        /* \"#utility.yul\":7164:7182   */\n      add\n        /* \"#utility.yul\":7156:7182   */\n      swap1\n      pop\n        /* \"#utility.yul\":7192:7263   */\n      tag_305\n        /* \"#utility.yul\":7260:7261   */\n      0x00\n        /* \"#utility.yul\":7249:7258   */\n      dup4\n        /* \"#utility.yul\":7245:7262   */\n      add\n        /* \"#utility.yul\":7236:7242   */\n      dup5\n        /* \"#utility.yul\":7192:7263   */\n      tag_236\n      jump\t// in\n    tag_305:\n        /* \"#utility.yul\":7048:7270   */\n      swap3\n      swap2\n      pop\n      pop\n      jump\t// out\n        /* \"#utility.yul\":7276:8542   */\n    tag_49:\n        /* \"#utility.yul\":7623:7627   */\n      0x00\n        /* \"#utility.yul\":7661:7664   */\n      0x0100\n        /* \"#utility.yul\":7650:7659   */\n      dup3\n        /* \"#utility.yul\":7646:7665   */\n      add\n        /* \"#utility.yul\":7638:7665   */\n      swap1\n      pop\n        /* \"#utility.yul\":7675:7746   */\n      tag_307\n        /* \"#utility.yul\":7743:7744   */\n      0x00\n        /* \"#utility.yul\":7732:7741   */\n      dup4\n        /* \"#utility.yul\":7728:7745   */\n      add\n        /* \"#utility.yul\":7719:7725   */\n      dup12\n        /* \"#utility.yul\":7675:7746   */\n      tag_236\n      jump\t// in\n    tag_307:\n        /* \"#utility.yul\":7793:7802   */\n      dup2\n        /* \"#utility.yul\":7787:7791   */\n      dup2\n        /* \"#utility.yul\":7783:7803   */\n      sub\n        /* \"#utility.yul\":7778:7780   */\n      0x20\n        /* \"#utility.yul\":7767:7776   */\n      dup4\n        /* \"#utility.yul\":7763:7781   */\n      add\n        /* \"#utility.yul\":7756:7804   */\n      mstore\n        /* \"#utility.yul\":7821:7899   */\n      tag_308\n        /* \"#utility.yul\":7894:7898   */\n      dup2\n        /* \"#utility.yul\":7885:7891   */\n      dup11\n        /* \"#utility.yul\":7821:7899   */\n      tag_240\n      jump\t// in\n    tag_308:\n        /* \"#utility.yul\":7813:7899   */\n      swap1\n      pop\n        /* \"#utility.yul\":7946:7955   */\n      dup2\n        /* \"#utility.yul\":7940:7944   */\n      dup2\n        /* \"#utility.yul\":7936:7956   */\n      sub\n        /* \"#utility.yul\":7931:7933   */\n      0x40\n        /* \"#utility.yul\":7920:7929   */\n      dup4\n        /* \"#utility.yul\":7916:7934   */\n      add\n        /* \"#utility.yul\":7909:7957   */\n      mstore\n        /* \"#utility.yul\":7974:8052   */\n      tag_309\n        /* \"#utility.yul\":8047:8051   */\n      dup2\n        /* \"#utility.yul\":8038:8044   */\n      dup10\n        /* \"#utility.yul\":7974:8052   */\n      tag_240\n      jump\t// in\n    tag_309:\n        /* \"#utility.yul\":7966:8052   */\n      swap1\n      pop\n        /* \"#utility.yul\":8099:8108   */\n      dup2\n        /* \"#utility.yul\":8093:8097   */\n      dup2\n        /* \"#utility.yul\":8089:8109   */\n      sub\n        /* \"#utility.yul\":8084:8086   */\n      0x60\n        /* \"#utility.yul\":8073:8082   */\n      dup4\n        /* \"#utility.yul\":8069:8087   */\n      add\n        /* \"#utility.yul\":8062:8110   */\n      mstore\n        /* \"#utility.yul\":8127:8205   */\n      tag_310\n        /* \"#utility.yul\":8200:8204   */\n      dup2\n        /* \"#utility.yul\":8191:8197   */\n      dup9\n        /* \"#utility.yul\":8127:8205   */\n      tag_240\n      jump\t// in\n    tag_310:\n        /* \"#utility.yul\":8119:8205   */\n      swap1\n      pop\n        /* \"#utility.yul\":8215:8288   */\n      tag_311\n        /* \"#utility.yul\":8283:8286   */\n      0x80\n        /* \"#utility.yul\":8272:8281   */\n      dup4\n        /* \"#utility.yul\":8268:8287   */\n      add\n        /* \"#utility.yul\":8259:8265   */\n      dup8\n        /* \"#utility.yul\":8215:8288   */\n      tag_287\n      jump\t// in\n    tag_311:\n        /* \"#utility.yul\":8298:8371   */\n      tag_312\n        /* \"#utility.yul\":8366:8369   */\n      0xa0\n        /* \"#utility.yul\":8355:8364   */\n      dup4\n        /* \"#utility.yul\":8351:8370   */\n      add\n        /* \"#utility.yul\":8342:8348   */\n      dup7\n        /* \"#utility.yul\":8298:8371   */\n      tag_287\n      jump\t// in\n    tag_312:\n        /* \"#utility.yul\":8381:8454   */\n      tag_313\n        /* \"#utility.yul\":8449:8452   */\n      0xc0\n        /* \"#utility.yul\":8438:8447   */\n      dup4\n        /* \"#utility.yul\":8434:8453   */\n      add\n        /* \"#utility.yul\":8425:8431   */\n      dup6\n        /* \"#utility.yul\":8381:8454   */\n      tag_287\n      jump\t// in\n    tag_313:\n        /* \"#utility.yul\":8464:8535   */\n      tag_314\n        /* \"#utility.yul\":8530:8533   */\n      0xe0\n        /* \"#utility.yul\":8519:8528   */\n      dup4\n        /* \"#utility.yul\":8515:8534   */\n      add\n        /* \"#utility.yul\":8506:8512   */\n      dup5\n        /* \"#utility.yul\":8464:8535   */\n      tag_296\n      jump\t// in\n    tag_314:\n        /* \"#utility.yul\":7276:8542   */\n      swap10\n      swap9\n      pop\n      pop\n      pop\n      pop\n      pop\n      pop\n      pop\n      pop\n      pop\n      jump\t// out\n        /* \"#utility.yul\":8548:8861   */\n    tag_30:\n        /* \"#utility.yul\":8661:8665   */\n      0x00\n        /* \"#utility.yul\":8699:8701   */\n      0x20\n        /* \"#utility.yul\":8688:8697   */\n      dup3\n        /* \"#utility.yul\":8684:8702   */\n      add\n        /* \"#utility.yul\":8676:8702   */\n      swap1\n      pop\n        /* \"#utility.yul\":8748:8757   */\n      dup2\n        /* \"#utility.yul\":8742:8746   */\n      dup2\n        /* \"#utility.yul\":8738:8758   */\n      sub\n        /* \"#utility.yul\":8734:8735   */\n      0x00\n        /* \"#utility.yul\":8723:8732   */\n      dup4\n        /* \"#utility.yul\":8719:8736   */\n      add\n        /* \"#utility.yul\":8712:8759   */\n      mstore\n        /* \"#utility.yul\":8776:8854   */\n      tag_316\n        /* \"#utility.yul\":8849:8853   */\n      dup2\n        /* \"#utility.yul\":8840:8846   */\n      dup5\n        /* \"#utility.yul\":8776:8854   */\n      tag_240\n      jump\t// in\n    tag_316:\n        /* \"#utility.yul\":8768:8854   */\n      swap1\n      pop\n        /* \"#utility.yul\":8548:8861   */\n      swap3\n      swap2\n      pop\n      pop\n      jump\t// out\n        /* \"#utility.yul\":8867:9369   */\n    tag_154:\n        /* \"#utility.yul\":9022:9026   */\n      0x00\n        /* \"#utility.yul\":9060:9062   */\n      0x40\n        /* \"#utility.yul\":9049:9058   */\n      dup3\n        /* \"#utility.yul\":9045:9063   */\n      add\n        /* \"#utility.yul\":9037:9063   */\n      swap1\n      pop\n        /* \"#utility.yul\":9109:9118   */\n      dup2\n        /* \"#utility.yul\":9103:9107   */\n      dup2\n        /* \"#utility.yul\":9099:9119   */\n      sub\n        /* \"#utility.yul\":9095:9096   */\n      0x00\n        /* \"#utility.yul\":9084:9093   */\n      dup4\n        /* \"#utility.yul\":9080:9097   */\n      add\n        /* \"#utility.yul\":9073:9120   */\n      mstore\n        /* \"#utility.yul\":9137:9212   */\n      tag_318\n        /* \"#utility.yul\":9207:9211   */\n      dup2\n        /* \"#utility.yul\":9198:9204   */\n      dup6\n        /* \"#utility.yul\":9137:9212   */\n      tag_250\n      jump\t// in\n    tag_318:\n        /* \"#utility.yul\":9129:9212   */\n      swap1\n      pop\n        /* \"#utility.yul\":9259:9268   */\n      dup2\n        /* \"#utility.yul\":9253:9257   */\n      dup2\n        /* \"#utility.yul\":9249:9269   */\n      sub\n        /* \"#utility.yul\":9244:9246   */\n      0x20\n        /* \"#utility.yul\":9233:9242   */\n      dup4\n        /* \"#utility.yul\":9229:9247   */\n      add\n        /* \"#utility.yul\":9222:9270   */\n      mstore\n        /* \"#utility.yul\":9287:9362   */\n      tag_319\n        /* \"#utility.yul\":9357:9361   */\n      dup2\n        /* \"#utility.yul\":9348:9354   */\n      dup5\n        /* \"#utility.yul\":9287:9362   */\n      tag_250\n      jump\t// in\n    tag_319:\n        /* \"#utility.yul\":9279:9362   */\n      swap1\n      pop\n        /* \"#utility.yul\":8867:9369   */\n      swap4\n      swap3\n      pop\n      pop\n      pop\n      jump\t// out\n        /* \"#utility.yul\":9375:9794   */\n    tag_61:\n        /* \"#utility.yul\":9541:9545   */\n      0x00\n        /* \"#utility.yul\":9579:9581   */\n      0x20\n        /* \"#utility.yul\":9568:9577   */\n      dup3\n        /* \"#utility.yul\":9564:9582   */\n      add\n        /* \"#utility.yul\":9556:9582   */\n      swap1\n      pop\n        /* \"#utility.yul\":9628:9637   */\n      dup2\n        /* \"#utility.yul\":9622:9626   */\n      dup2\n        /* \"#utility.yul\":9618:9638   */\n      sub\n        /* \"#utility.yul\":9614:9615   */\n      0x00\n        /* \"#utility.yul\":9603:9612   */\n      dup4\n        /* \"#utility.yul\":9599:9616   */\n      add\n        /* \"#utility.yul\":9592:9639   */\n      mstore\n        /* \"#utility.yul\":9656:9787   */\n      tag_321\n        /* \"#utility.yul\":9782:9786   */\n      dup2\n        /* \"#utility.yul\":9656:9787   */\n      tag_262\n      jump\t// in\n    tag_321:\n        /* \"#utility.yul\":9648:9787   */\n      swap1\n      pop\n        /* \"#utility.yul\":9375:9794   */\n      swap2\n      swap1\n      pop\n      jump\t// out\n        /* \"#utility.yul\":9800:10219   */\n    tag_164:\n        /* \"#utility.yul\":9966:9970   */\n      0x00\n        /* \"#utility.yul\":10004:10006   */\n      0x20\n        /* \"#utility.yul\":9993:10002   */\n      dup3\n        /* \"#utility.yul\":9989:10007   */\n      add\n        /* \"#utility.yul\":9981:10007   */\n      swap1\n      pop\n        /* \"#utility.yul\":10053:10062   */\n      dup2\n        /* \"#utility.yul\":10047:10051   */\n      dup2\n        /* \"#utility.yul\":10043:10063   */\n      sub\n        /* \"#utility.yul\":10039:10040   */\n      0x00\n        /* \"#utility.yul\":10028:10037   */\n      dup4\n        /* \"#utility.yul\":10024:10041   */\n      add\n        /* \"#utility.yul\":10017:10064   */\n      mstore\n        /* \"#utility.yul\":10081:10212   */\n      tag_323\n        /* \"#utility.yul\":10207:10211   */\n      dup2\n        /* \"#utility.yul\":10081:10212   */\n      tag_267\n      jump\t// in\n    tag_323:\n        /* \"#utility.yul\":10073:10212   */\n      swap1\n      pop\n        /* \"#utility.yul\":9800:10219   */\n      swap2\n      swap1\n      pop\n      jump\t// out\n        /* \"#utility.yul\":10225:10754   */\n    tag_173:\n        /* \"#utility.yul\":10419:10423   */\n      0x00\n        /* \"#utility.yul\":10457:10459   */\n      0x40\n        /* \"#utility.yul\":10446:10455   */\n      dup3\n        /* \"#utility.yul\":10442:10460   */\n      add\n        /* \"#utility.yul\":10434:10460   */\n      swap1\n      pop\n        /* \"#utility.yul\":10506:10515   */\n      dup2\n        /* \"#utility.yul\":10500:10504   */\n      dup2\n        /* \"#utility.yul\":10496:10516   */\n      sub\n        /* \"#utility.yul\":10492:10493   */\n      0x00\n        /* \"#utility.yul\":10481:10490   */\n      dup4\n        /* \"#utility.yul\":10477:10494   */\n      add\n        /* \"#utility.yul\":10470:10517   */\n      mstore\n        /* \"#utility.yul\":10534:10665   */\n      tag_325\n        /* \"#utility.yul\":10660:10664   */\n      dup2\n        /* \"#utility.yul\":10534:10665   */\n      tag_272\n      jump\t// in\n    tag_325:\n        /* \"#utility.yul\":10526:10665   */\n      swap1\n      pop\n        /* \"#utility.yul\":10675:10747   */\n      tag_326\n        /* \"#utility.yul\":10743:10745   */\n      0x20\n        /* \"#utility.yul\":10732:10741   */\n      dup4\n        /* \"#utility.yul\":10728:10746   */\n      add\n        /* \"#utility.yul\":10719:10725   */\n      dup5\n        /* \"#utility.yul\":10675:10747   */\n      tag_287\n      jump\t// in\n    tag_326:\n        /* \"#utility.yul\":10225:10754   */\n      swap3\n      swap2\n      pop\n      pop\n      jump\t// out\n        /* \"#utility.yul\":10760:11179   */\n    tag_119:\n        /* \"#utility.yul\":10926:10930   */\n      0x00\n        /* \"#utility.yul\":10964:10966   */\n      0x20\n        /* \"#utility.yul\":10953:10962   */\n      dup3\n        /* \"#utility.yul\":10949:10967   */\n      add\n        /* \"#utility.yul\":10941:10967   */\n      swap1\n      pop\n        /* \"#utility.yul\":11013:11022   */\n      dup2\n        /* \"#utility.yul\":11007:11011   */\n      dup2\n        /* \"#utility.yul\":11003:11023   */\n      sub\n        /* \"#utility.yul\":10999:11000   */\n      0x00\n        /* \"#utility.yul\":10988:10997   */\n      dup4\n        /* \"#utility.yul\":10984:11001   */\n      add\n        /* \"#utility.yul\":10977:11024   */\n      mstore\n        /* \"#utility.yul\":11041:11172   */\n      tag_328\n        /* \"#utility.yul\":11167:11171   */\n      dup2\n        /* \"#utility.yul\":11041:11172   */\n      tag_277\n      jump\t// in\n    tag_328:\n        /* \"#utility.yul\":11033:11172   */\n      swap1\n      pop\n        /* \"#utility.yul\":10760:11179   */\n      swap2\n      swap1\n      pop\n      jump\t// out\n        /* \"#utility.yul\":11185:11714   */\n    tag_102:\n        /* \"#utility.yul\":11379:11383   */\n      0x00\n        /* \"#utility.yul\":11417:11419   */\n      0x40\n        /* \"#utility.yul\":11406:11415   */\n      dup3\n        /* \"#utility.yul\":11402:11420   */\n      add\n        /* \"#utility.yul\":11394:11420   */\n      swap1\n      pop\n        /* \"#utility.yul\":11466:11475   */\n      dup2\n        /* \"#utility.yul\":11460:11464   */\n      dup2\n        /* \"#utility.yul\":11456:11476   */\n      sub\n        /* \"#utility.yul\":11452:11453   */\n      0x00\n        /* \"#utility.yul\":11441:11450   */\n      dup4\n        /* \"#utility.yul\":11437:11454   */\n      add\n        /* \"#utility.yul\":11430:11477   */\n      mstore\n        /* \"#utility.yul\":11494:11625   */\n      tag_330\n        /* \"#utility.yul\":11620:11624   */\n      dup2\n        /* \"#utility.yul\":11494:11625   */\n      tag_282\n      jump\t// in\n    tag_330:\n        /* \"#utility.yul\":11486:11625   */\n      swap1\n      pop\n        /* \"#utility.yul\":11635:11707   */\n      tag_331\n        /* \"#utility.yul\":11703:11705   */\n      0x20\n        /* \"#utility.yul\":11692:11701   */\n      dup4\n        /* \"#utility.yul\":11688:11706   */\n      add\n        /* \"#utility.yul\":11679:11685   */\n      dup5\n        /* \"#utility.yul\":11635:11707   */\n      tag_287\n      jump\t// in\n    tag_331:\n        /* \"#utility.yul\":11185:11714   */\n      swap3\n      swap2\n      pop\n      pop\n      jump\t// out\n        /* \"#utility.yul\":11720:11942   */\n    tag_18:\n        /* \"#utility.yul\":11813:11817   */\n      0x00\n        /* \"#utility.yul\":11851:11853   */\n      0x20\n        /* \"#utility.yul\":11840:11849   */\n      dup3\n        /* \"#utility.yul\":11836:11854   */\n      add\n        /* \"#utility.yul\":11828:11854   */\n      swap1\n      pop\n        /* \"#utility.yul\":11864:11935   */\n      tag_333\n        /* \"#utility.yul\":11932:11933   */\n      0x00\n        /* \"#utility.yul\":11921:11930   */\n      dup4\n        /* \"#utility.yul\":11917:11934   */\n      add\n        /* \"#utility.yul\":11908:11914   */\n      dup5\n        /* \"#utility.yul\":11864:11935   */\n      tag_287\n      jump\t// in\n    tag_333:\n        /* \"#utility.yul\":11720:11942   */\n      swap3\n      swap2\n      pop\n      pop\n      jump\t// out\n        /* \"#utility.yul\":11948:12077   */\n    tag_194:\n        /* \"#utility.yul\":11982:11988   */\n      0x00\n        /* \"#utility.yul\":12009:12029   */\n      tag_335\n      tag_336\n      jump\t// in\n    tag_335:\n        /* \"#utility.yul\":11999:12029   */\n      swap1\n      pop\n        /* \"#utility.yul\":12038:12071   */\n      tag_337\n        /* \"#utility.yul\":12066:12070   */\n      dup3\n        /* \"#utility.yul\":12058:12064   */\n      dup3\n        /* \"#utility.yul\":12038:12071   */\n      tag_338\n      jump\t// in\n    tag_337:\n        /* \"#utility.yul\":11948:12077   */\n      swap2\n      swap1\n      pop\n      jump\t// out\n        /* \"#utility.yul\":12083:12158   */\n    tag_336:\n        /* \"#utility.yul\":12116:12122   */\n      0x00\n        /* \"#utility.yul\":12149:12151   */\n      0x40\n        /* \"#utility.yul\":12143:12152   */\n      mload\n        /* \"#utility.yul\":12133:12152   */\n      swap1\n      pop\n        /* \"#utility.yul\":12083:12158   */\n      swap1\n      jump\t// out\n        /* \"#utility.yul\":12164:12472   */\n    tag_193:\n        /* \"#utility.yul\":12226:12230   */\n      0x00\n        /* \"#utility.yul\":12316:12334   */\n      0xffffffffffffffff\n        /* \"#utility.yul\":12308:12314   */\n      dup3\n        /* \"#utility.yul\":12305:12335   */\n      gt\n        /* \"#utility.yul\":12302:12358   */\n      iszero\n      tag_341\n      jumpi\n        /* \"#utility.yul\":12338:12356   */\n      tag_342\n      tag_343\n      jump\t// in\n    tag_342:\n        /* \"#utility.yul\":12302:12358   */\n    tag_341:\n        /* \"#utility.yul\":12376:12405   */\n      tag_344\n        /* \"#utility.yul\":12398:12404   */\n      dup3\n        /* \"#utility.yul\":12376:12405   */\n      tag_249\n      jump\t// in\n    tag_344:\n        /* \"#utility.yul\":12368:12405   */\n      swap1\n      pop\n        /* \"#utility.yul\":12460:12464   */\n      0x20\n        /* \"#utility.yul\":12454:12458   */\n      dup2\n        /* \"#utility.yul\":12450:12465   */\n      add\n        /* \"#utility.yul\":12442:12465   */\n      swap1\n      pop\n        /* \"#utility.yul\":12164:12472   */\n      swap2\n      swap1\n      pop\n      jump\t// out\n        /* \"#utility.yul\":12478:12619   */\n    tag_258:\n        /* \"#utility.yul\":12527:12531   */\n      0x00\n        /* \"#utility.yul\":12550:12553   */\n      dup2\n        /* \"#utility.yul\":12542:12553   */\n      swap1\n      pop\n        /* \"#utility.yul\":12573:12576   */\n      dup2\n        /* \"#utility.yul\":12570:12571   */\n      0x00\n        /* \"#utility.yul\":12563:12577   */\n      mstore\n        /* \"#utility.yul\":12607:12611   */\n      0x20\n        /* \"#utility.yul\":12604:12605   */\n      0x00\n        /* \"#utility.yul\":12594:12612   */\n      keccak256\n        /* \"#utility.yul\":12586:12612   */\n      swap1\n      pop\n        /* \"#utility.yul\":12478:12619   */\n      swap2\n      swap1\n      pop\n      jump\t// out\n        /* \"#utility.yul\":12625:12724   */\n    tag_243:\n        /* \"#utility.yul\":12677:12683   */\n      0x00\n        /* \"#utility.yul\":12711:12716   */\n      dup2\n        /* \"#utility.yul\":12705:12717   */\n      mload\n        /* \"#utility.yul\":12695:12717   */\n      swap1\n      pop\n        /* \"#utility.yul\":12625:12724   */\n      swap2\n      swap1\n      pop\n      jump\t// out\n        /* \"#utility.yul\":12730:12899   */\n    tag_245:\n        /* \"#utility.yul\":12814:12825   */\n      0x00\n        /* \"#utility.yul\":12848:12854   */\n      dup3\n        /* \"#utility.yul\":12843:12846   */\n      dup3\n        /* \"#utility.yul\":12836:12855   */\n      mstore\n        /* \"#utility.yul\":12888:12892   */\n      0x20\n        /* \"#utility.yul\":12883:12886   */\n      dup3\n        /* \"#utility.yul\":12879:12893   */\n      add\n        /* \"#utility.yul\":12864:12893   */\n      swap1\n      pop\n        /* \"#utility.yul\":12730:12899   */\n      swap3\n      swap2\n      pop\n      pop\n      jump\t// out\n        /* \"#utility.yul\":12905:13210   */\n    tag_64:\n        /* \"#utility.yul\":12945:12948   */\n      0x00\n        /* \"#utility.yul\":12964:12984   */\n      tag_349\n        /* \"#utility.yul\":12982:12983   */\n      dup3\n        /* \"#utility.yul\":12964:12984   */\n      tag_290\n      jump\t// in\n    tag_349:\n        /* \"#utility.yul\":12959:12984   */\n      swap2\n      pop\n        /* \"#utility.yul\":12998:13018   */\n      tag_350\n        /* \"#utility.yul\":13016:13017   */\n      dup4\n        /* \"#utility.yul\":12998:13018   */\n      tag_290\n      jump\t// in\n    tag_350:\n        /* \"#utility.yul\":12993:13018   */\n      swap3\n      pop\n        /* \"#utility.yul\":13152:13153   */\n      dup3\n        /* \"#utility.yul\":13084:13150   */\n      0xffffffffffffffffffffffffffffffffffffffffffffffffffffffffffffffff\n        /* \"#utility.yul\":13080:13154   */\n      sub\n        /* \"#utility.yul\":13077:13078   */\n      dup3\n        /* \"#utility.yul\":13074:13155   */\n      gt\n        /* \"#utility.yul\":13071:13178   */\n      iszero\n      tag_351\n      jumpi\n        /* \"#utility.yul\":13158:13176   */\n      tag_352\n      tag_353\n      jump\t// in\n    tag_352:\n        /* \"#utility.yul\":13071:13178   */\n    tag_351:\n        /* \"#utility.yul\":13202:13203   */\n      dup3\n        /* \"#utility.yul\":13199:13200   */\n      dup3\n        /* \"#utility.yul\":13195:13204   */\n      add\n        /* \"#utility.yul\":13188:13204   */\n      swap1\n      pop\n        /* \"#utility.yul\":12905:13210   */\n      swap3\n      swap2\n      pop\n      pop\n      jump\t// out\n        /* \"#utility.yul\":13216:13564   */\n    tag_168:\n        /* \"#utility.yul\":13256:13263   */\n      0x00\n        /* \"#utility.yul\":13279:13299   */\n      tag_355\n        /* \"#utility.yul\":13297:13298   */\n      dup3\n        /* \"#utility.yul\":13279:13299   */\n      tag_290\n      jump\t// in\n    tag_355:\n        /* \"#utility.yul\":13274:13299   */\n      swap2\n      pop\n        /* \"#utility.yul\":13313:13333   */\n      tag_356\n        /* \"#utility.yul\":13331:13332   */\n      dup4\n        /* \"#utility.yul\":13313:13333   */\n      tag_290\n      jump\t// in\n    tag_356:\n        /* \"#utility.yul\":13308:13333   */\n      swap3\n      pop\n        /* \"#utility.yul\":13501:13502   */\n      dup2\n        /* \"#utility.yul\":13433:13499   */\n      0xffffffffffffffffffffffffffffffffffffffffffffffffffffffffffffffff\n        /* \"#utility.yul\":13429:13503   */\n      div\n        /* \"#utility.yul\":13426:13427   */\n      dup4\n        /* \"#utility.yul\":13423:13504   */\n      gt\n        /* \"#utility.yul\":13418:13419   */\n      dup3\n        /* \"#utility.yul\":13411:13420   */\n      iszero\n        /* \"#utility.yul\":13404:13421   */\n      iszero\n        /* \"#utility.yul\":13400:13505   */\n      and\n        /* \"#utility.yul\":13397:13528   */\n      iszero\n      tag_357\n      jumpi\n        /* \"#utility.yul\":13508:13526   */\n      tag_358\n      tag_353\n      jump\t// in\n    tag_358:\n        /* \"#utility.yul\":13397:13528   */\n    tag_357:\n        /* \"#utility.yul\":13556:13557   */\n      dup3\n        /* \"#utility.yul\":13553:13554   */\n      dup3\n        /* \"#utility.yul\":13549:13558   */\n      mul\n        /* \"#utility.yul\":13538:13558   */\n      swap1\n      pop\n        /* \"#utility.yul\":13216:13564   */\n      swap3\n      swap2\n      pop\n      pop\n      jump\t// out\n        /* \"#utility.yul\":13570:13761   */\n    tag_74:\n        /* \"#utility.yul\":13610:13614   */\n      0x00\n        /* \"#utility.yul\":13630:13650   */\n      tag_360\n        /* \"#utility.yul\":13648:13649   */\n      dup3\n        /* \"#utility.yul\":13630:13650   */\n      tag_290\n      jump\t// in\n    tag_360:\n        /* \"#utility.yul\":13625:13650   */\n      swap2\n      pop\n        /* \"#utility.yul\":13664:13684   */\n      tag_361\n        /* \"#utility.yul\":13682:13683   */\n      dup4\n        /* \"#utility.yul\":13664:13684   */\n      tag_290\n      jump\t// in\n    tag_361:\n        /* \"#utility.yul\":13659:13684   */\n      swap3\n      pop\n        /* \"#utility.yul\":13703:13704   */\n      dup3\n        /* \"#utility.yul\":13700:13701   */\n      dup3\n        /* \"#utility.yul\":13697:13705   */\n      lt\n        /* \"#utility.yul\":13694:13728   */\n      iszero\n      tag_362\n      jumpi\n        /* \"#utility.yul\":13708:13726   */\n      tag_363\n      tag_353\n      jump\t// in\n    tag_363:\n        /* \"#utility.yul\":13694:13728   */\n    tag_362:\n        /* \"#utility.yul\":13753:13754   */\n      dup3\n        /* \"#utility.yul\":13750:13751   */\n      dup3\n        /* \"#utility.yul\":13746:13755   */\n      sub\n        /* \"#utility.yul\":13738:13755   */\n      swap1\n      pop\n        /* \"#utility.yul\":13570:13761   */\n      swap3\n      swap2\n      pop\n      pop\n      jump\t// out\n        /* \"#utility.yul\":13767:13863   */\n    tag_239:\n        /* \"#utility.yul\":13804:13811   */\n      0x00\n        /* \"#utility.yul\":13833:13857   */\n      tag_365\n        /* \"#utility.yul\":13851:13856   */\n      dup3\n        /* \"#utility.yul\":13833:13857   */\n      tag_366\n      jump\t// in\n    tag_365:\n        /* \"#utility.yul\":13822:13857   */\n      swap1\n      pop\n        /* \"#utility.yul\":13767:13863   */\n      swap2\n      swap1\n      pop\n      jump\t// out\n        /* \"#utility.yul\":13869:13995   */\n    tag_366:\n        /* \"#utility.yul\":13906:13913   */\n      0x00\n        /* \"#utility.yul\":13946:13988   */\n      0xffffffffffffffffffffffffffffffffffffffff\n        /* \"#utility.yul\":13939:13944   */\n      dup3\n        /* \"#utility.yul\":13935:13989   */\n      and\n        /* \"#utility.yul\":13924:13989   */\n      swap1\n      pop\n        /* \"#utility.yul\":13869:13995   */\n      swap2\n      swap1\n      pop\n      jump\t// out\n        /* \"#utility.yul\":14001:14078   */\n    tag_290:\n        /* \"#utility.yul\":14038:14045   */\n      0x00\n        /* \"#utility.yul\":14067:14072   */\n      dup2\n        /* \"#utility.yul\":14056:14072   */\n      swap1\n      pop\n        /* \"#utility.yul\":14001:14078   */\n      swap2\n      swap1\n      pop\n      jump\t// out\n        /* \"#utility.yul\":14084:14177   */\n    tag_299:\n        /* \"#utility.yul\":14120:14127   */\n      0x00\n        /* \"#utility.yul\":14160:14170   */\n      0xffffffff\n        /* \"#utility.yul\":14153:14158   */\n      dup3\n        /* \"#utility.yul\":14149:14171   */\n      and\n        /* \"#utility.yul\":14138:14171   */\n      swap1\n      pop\n        /* \"#utility.yul\":14084:14177   */\n      swap2\n      swap1\n      pop\n      jump\t// out\n        /* \"#utility.yul\":14183:14337   */\n    tag_199:\n        /* \"#utility.yul\":14267:14273   */\n      dup3\n        /* \"#utility.yul\":14262:14265   */\n      dup2\n        /* \"#utility.yul\":14257:14260   */\n      dup4\n        /* \"#utility.yul\":14244:14274   */\n      calldatacopy\n        /* \"#utility.yul\":14329:14330   */\n      0x00\n        /* \"#utility.yul\":14320:14326   */\n      dup4\n        /* \"#utility.yul\":14315:14318   */\n      dup4\n        /* \"#utility.yul\":14311:14327   */\n      add\n        /* \"#utility.yul\":14304:14331   */\n      mstore\n        /* \"#utility.yul\":14183:14337   */\n      pop\n      pop\n      pop\n      jump\t// out\n        /* \"#utility.yul\":14343:14650   */\n    tag_247:\n        /* \"#utility.yul\":14411:14412   */\n      0x00\n        /* \"#utility.yul\":14421:14534   */\n    tag_372:\n        /* \"#utility.yul\":14435:14441   */\n      dup4\n        /* \"#utility.yul\":14432:14433   */\n      dup2\n        /* \"#utility.yul\":14429:14442   */\n      lt\n        /* \"#utility.yul\":14421:14534   */\n      iszero\n      tag_374\n      jumpi\n        /* \"#utility.yul\":14520:14521   */\n      dup1\n        /* \"#utility.yul\":14515:14518   */\n      dup3\n        /* \"#utility.yul\":14511:14522   */\n      add\n        /* \"#utility.yul\":14505:14523   */\n      mload\n        /* \"#utility.yul\":14501:14502   */\n      dup2\n        /* \"#utility.yul\":14496:14499   */\n      dup5\n        /* \"#utility.yul\":14492:14503   */\n      add\n        /* \"#utility.yul\":14485:14524   */\n      mstore\n        /* \"#utility.yul\":14457:14459   */\n      0x20\n        /* \"#utility.yul\":14454:14455   */\n      dup2\n        /* \"#utility.yul\":14450:14460   */\n      add\n        /* \"#utility.yul\":14445:14460   */\n      swap1\n      pop\n        /* \"#utility.yul\":14421:14534   */\n      jump(tag_372)\n    tag_374:\n        /* \"#utility.yul\":14552:14558   */\n      dup4\n        /* \"#utility.yul\":14549:14550   */\n      dup2\n        /* \"#utility.yul\":14546:14559   */\n      gt\n        /* \"#utility.yul\":14543:14644   */\n      iszero\n      tag_375\n      jumpi\n        /* \"#utility.yul\":14632:14633   */\n      0x00\n        /* \"#utility.yul\":14623:14629   */\n      dup5\n        /* \"#utility.yul\":14618:14621   */\n      dup5\n        /* \"#utility.yul\":14614:14630   */\n      add\n        /* \"#utility.yul\":14607:14634   */\n      mstore\n        /* \"#utility.yul\":14543:14644   */\n    tag_375:\n        /* \"#utility.yul\":14392:14650   */\n      pop\n        /* \"#utility.yul\":14343:14650   */\n      pop\n      pop\n      pop\n      jump\t// out\n        /* \"#utility.yul\":14656:14976   */\n    tag_127:\n        /* \"#utility.yul\":14700:14706   */\n      0x00\n        /* \"#utility.yul\":14737:14738   */\n      0x02\n        /* \"#utility.yul\":14731:14735   */\n      dup3\n        /* \"#utility.yul\":14727:14739   */\n      div\n        /* \"#utility.yul\":14717:14739   */\n      swap1\n      pop\n        /* \"#utility.yul\":14784:14785   */\n      0x01\n        /* \"#utility.yul\":14778:14782   */\n      dup3\n        /* \"#utility.yul\":14774:14786   */\n      and\n        /* \"#utility.yul\":14805:14823   */\n      dup1\n        /* \"#utility.yul\":14795:14876   */\n      tag_377\n      jumpi\n        /* \"#utility.yul\":14861:14865   */\n      0x7f\n        /* \"#utility.yul\":14853:14859   */\n      dup3\n        /* \"#utility.yul\":14849:14866   */\n      and\n        /* \"#utility.yul\":14839:14866   */\n      swap2\n      pop\n        /* \"#utility.yul\":14795:14876   */\n    tag_377:\n        /* \"#utility.yul\":14923:14925   */\n      0x20\n        /* \"#utility.yul\":14915:14921   */\n      dup3\n        /* \"#utility.yul\":14912:14926   */\n      lt\n        /* \"#utility.yul\":14892:14910   */\n      dup2\n        /* \"#utility.yul\":14889:14927   */\n      eq\n        /* \"#utility.yul\":14886:14970   */\n      iszero\n      tag_378\n      jumpi\n        /* \"#utility.yul\":14942:14960   */\n      tag_379\n      tag_380\n      jump\t// in\n    tag_379:\n        /* \"#utility.yul\":14886:14970   */\n    tag_378:\n        /* \"#utility.yul\":14707:14976   */\n      pop\n        /* \"#utility.yul\":14656:14976   */\n      swap2\n      swap1\n      pop\n      jump\t// out\n        /* \"#utility.yul\":14982:15263   */\n    tag_338:\n        /* \"#utility.yul\":15065:15092   */\n      tag_382\n        /* \"#utility.yul\":15087:15091   */\n      dup3\n        /* \"#utility.yul\":15065:15092   */\n      tag_249\n      jump\t// in\n    tag_382:\n        /* \"#utility.yul\":15057:15063   */\n      dup2\n        /* \"#utility.yul\":15053:15093   */\n      add\n        /* \"#utility.yul\":15195:15201   */\n      dup2\n        /* \"#utility.yul\":15183:15193   */\n      dup2\n        /* \"#utility.yul\":15180:15202   */\n      lt\n        /* \"#utility.yul\":15159:15177   */\n      0xffffffffffffffff\n        /* \"#utility.yul\":15147:15157   */\n      dup3\n        /* \"#utility.yul\":15144:15178   */\n      gt\n        /* \"#utility.yul\":15141:15203   */\n      or\n        /* \"#utility.yul\":15138:15226   */\n      iszero\n      tag_383\n      jumpi\n        /* \"#utility.yul\":15206:15224   */\n      tag_384\n      tag_343\n      jump\t// in\n    tag_384:\n        /* \"#utility.yul\":15138:15226   */\n    tag_383:\n        /* \"#utility.yul\":15246:15256   */\n      dup1\n        /* \"#utility.yul\":15242:15244   */\n      0x40\n        /* \"#utility.yul\":15235:15257   */\n      mstore\n        /* \"#utility.yul\":15025:15263   */\n      pop\n        /* \"#utility.yul\":14982:15263   */\n      pop\n      pop\n      jump\t// out\n        /* \"#utility.yul\":15269:15502   */\n    tag_71:\n        /* \"#utility.yul\":15308:15311   */\n      0x00\n        /* \"#utility.yul\":15331:15355   */\n      tag_386\n        /* \"#utility.yul\":15349:15354   */\n      dup3\n        /* \"#utility.yul\":15331:15355   */\n      tag_290\n      jump\t// in\n    tag_386:\n        /* \"#utility.yul\":15322:15355   */\n      swap2\n      pop\n        /* \"#utility.yul\":15377:15443   */\n      0xffffffffffffffffffffffffffffffffffffffffffffffffffffffffffffffff\n        /* \"#utility.yul\":15370:15375   */\n      dup3\n        /* \"#utility.yul\":15367:15444   */\n      eq\n        /* \"#utility.yul\":15364:15467   */\n      iszero\n      tag_387\n      jumpi\n        /* \"#utility.yul\":15447:15465   */\n      tag_388\n      tag_353\n      jump\t// in\n    tag_388:\n        /* \"#utility.yul\":15364:15467   */\n    tag_387:\n        /* \"#utility.yul\":15494:15495   */\n      0x01\n        /* \"#utility.yul\":15487:15492   */\n      dup3\n        /* \"#utility.yul\":15483:15496   */\n      add\n        /* \"#utility.yul\":15476:15496   */\n      swap1\n      pop\n        /* \"#utility.yul\":15269:15502   */\n      swap2\n      swap1\n      pop\n      jump\t// out\n        /* \"#utility.yul\":15508:15587   */\n    tag_295:\n        /* \"#utility.yul\":15547:15554   */\n      0x00\n        /* \"#utility.yul\":15576:15581   */\n      dup2\n        /* \"#utility.yul\":15565:15581   */\n      swap1\n      pop\n        /* \"#utility.yul\":15508:15587   */\n      swap2\n      swap1\n      pop\n      jump\t// out\n        /* \"#utility.yul\":15593:15769   */\n    tag_81:\n        /* \"#utility.yul\":15625:15626   */\n      0x00\n        /* \"#utility.yul\":15642:15662   */\n      tag_391\n        /* \"#utility.yul\":15660:15661   */\n      dup3\n        /* \"#utility.yul\":15642:15662   */\n      tag_290\n      jump\t// in\n    tag_391:\n        /* \"#utility.yul\":15637:15662   */\n      swap2\n      pop\n        /* \"#utility.yul\":15676:15696   */\n      tag_392\n        /* \"#utility.yul\":15694:15695   */\n      dup4\n        /* \"#utility.yul\":15676:15696   */\n      tag_290\n      jump\t// in\n    tag_392:\n        /* \"#utility.yul\":15671:15696   */\n      swap3\n      pop\n        /* \"#utility.yul\":15715:15716   */\n      dup3\n        /* \"#utility.yul\":15705:15740   */\n      tag_393\n      jumpi\n        /* \"#utility.yul\":15720:15738   */\n      tag_394\n      tag_395\n      jump\t// in\n    tag_394:\n        /* \"#utility.yul\":15705:15740   */\n    tag_393:\n        /* \"#utility.yul\":15761:15762   */\n      dup3\n        /* \"#utility.yul\":15758:15759   */\n      dup3\n        /* \"#utility.yul\":15754:15763   */\n      mod\n        /* \"#utility.yul\":15749:15763   */\n      swap1\n      pop\n        /* \"#utility.yul\":15593:15769   */\n      swap3\n      swap2\n      pop\n      pop\n      jump\t// out\n        /* \"#utility.yul\":15775:15955   */\n    tag_353:\n        /* \"#utility.yul\":15823:15900   */\n      0x4e487b7100000000000000000000000000000000000000000000000000000000\n        /* \"#utility.yul\":15820:15821   */\n      0x00\n        /* \"#utility.yul\":15813:15901   */\n      mstore\n        /* \"#utility.yul\":15920:15924   */\n      0x11\n        /* \"#utility.yul\":15917:15918   */\n      0x04\n        /* \"#utility.yul\":15910:15925   */\n      mstore\n        /* \"#utility.yul\":15944:15948   */\n      0x24\n        /* \"#utility.yul\":15941:15942   */\n      0x00\n        /* \"#utility.yul\":15934:15949   */\n      revert\n        /* \"#utility.yul\":15961:16141   */\n    tag_395:\n        /* \"#utility.yul\":16009:16086   */\n      0x4e487b7100000000000000000000000000000000000000000000000000000000\n        /* \"#utility.yul\":16006:16007   */\n      0x00\n        /* \"#utility.yul\":15999:16087   */\n      mstore\n        /* \"#utility.yul\":16106:16110   */\n      0x12\n        /* \"#utility.yul\":16103:16104   */\n      0x04\n        /* \"#utility.yul\":16096:16111   */\n      mstore\n        /* \"#utility.yul\":16130:16134   */\n      0x24\n        /* \"#utility.yul\":16127:16128   */\n      0x00\n        /* \"#utility.yul\":16120:16135   */\n      revert\n        /* \"#utility.yul\":16147:16327   */\n    tag_380:\n        /* \"#utility.yul\":16195:16272   */\n      0x4e487b7100000000000000000000000000000000000000000000000000000000\n        /* \"#utility.yul\":16192:16193   */\n      0x00\n        /* \"#utility.yul\":16185:16273   */\n      mstore\n        /* \"#utility.yul\":16292:16296   */\n      0x22\n        /* \"#utility.yul\":16289:16290   */\n      0x04\n        /* \"#utility.yul\":16282:16297   */\n      mstore\n        /* \"#utility.yul\":16316:16320   */\n      0x24\n        /* \"#utility.yul\":16313:16314   */\n      0x00\n        /* \"#utility.yul\":16306:16321   */\n      revert\n        /* \"#utility.yul\":16333:16513   */\n    tag_90:\n        /* \"#utility.yul\":16381:16458   */\n      0x4e487b7100000000000000000000000000000000000000000000000000000000\n        /* \"#utility.yul\":16378:16379   */\n      0x00\n        /* \"#utility.yul\":16371:16459   */\n      mstore\n        /* \"#utility.yul\":16478:16482   */\n      0x32\n        /* \"#utility.yul\":16475:16476   */\n      0x04\n        /* \"#utility.yul\":16468:16483   */\n      mstore\n        /* \"#utility.yul\":16502:16506   */\n      0x24\n        /* \"#utility.yul\":16499:16500   */\n      0x00\n        /* \"#utility.yul\":16492:16507   */\n      revert\n        /* \"#utility.yul\":16519:16699   */\n    tag_343:\n        /* \"#utility.yul\":16567:16644   */\n      0x4e487b7100000000000000000000000000000000000000000000000000000000\n        /* \"#utility.yul\":16564:16565   */\n      0x00\n        /* \"#utility.yul\":16557:16645   */\n      mstore\n        /* \"#utility.yul\":16664:16668   */\n      0x41\n        /* \"#utility.yul\":16661:16662   */\n      0x04\n        /* \"#utility.yul\":16654:16669   */\n      mstore\n        /* \"#utility.yul\":16688:16692   */\n      0x24\n        /* \"#utility.yul\":16685:16686   */\n      0x00\n        /* \"#utility.yul\":16678:16693   */\n      revert\n        /* \"#utility.yul\":16705:16822   */\n    tag_208:\n        /* \"#utility.yul\":16814:16815   */\n      0x00\n        /* \"#utility.yul\":16811:16812   */\n      dup1\n        /* \"#utility.yul\":16804:16816   */\n      revert\n        /* \"#utility.yul\":16828:16945   */\n    tag_197:\n        /* \"#utility.yul\":16937:16938   */\n      0x00\n        /* \"#utility.yul\":16934:16935   */\n      dup1\n        /* \"#utility.yul\":16927:16939   */\n      revert\n        /* \"#utility.yul\":16951:17068   */\n    tag_224:\n        /* \"#utility.yul\":17060:17061   */\n      0x00\n        /* \"#utility.yul\":17057:17058   */\n      dup1\n        /* \"#utility.yul\":17050:17062   */\n      revert\n        /* \"#utility.yul\":17074:17191   */\n    tag_217:\n        /* \"#utility.yul\":17183:17184   */\n      0x00\n        /* \"#utility.yul\":17180:17181   */\n      dup1\n        /* \"#utility.yul\":17173:17185   */\n      revert\n        /* \"#utility.yul\":17197:17299   */\n    tag_249:\n        /* \"#utility.yul\":17238:17244   */\n      0x00\n        /* \"#utility.yul\":17289:17291   */\n      0x1f\n        /* \"#utility.yul\":17285:17292   */\n      not\n        /* \"#utility.yul\":17280:17282   */\n      0x1f\n        /* \"#utility.yul\":17273:17278   */\n      dup4\n        /* \"#utility.yul\":17269:17283   */\n      add\n        /* \"#utility.yul\":17265:17293   */\n      and\n        /* \"#utility.yul\":17255:17293   */\n      swap1\n      pop\n        /* \"#utility.yul\":17197:17299   */\n      swap2\n      swap1\n      pop\n      jump\t// out\n        /* \"#utility.yul\":17305:17532   */\n    tag_266:\n        /* \"#utility.yul\":17445:17479   */\n      0x536f6c6f2073652070756564652074656e657220756e20636f63686520706f72\n        /* \"#utility.yul\":17441:17442   */\n      0x00\n        /* \"#utility.yul\":17433:17439   */\n      dup3\n        /* \"#utility.yul\":17429:17443   */\n      add\n        /* \"#utility.yul\":17422:17480   */\n      mstore\n        /* \"#utility.yul\":17514:17524   */\n      0x20706572736f6e61000000000000000000000000000000000000000000000000\n        /* \"#utility.yul\":17509:17511   */\n      0x20\n        /* \"#utility.yul\":17501:17507   */\n      dup3\n        /* \"#utility.yul\":17497:17512   */\n      add\n        /* \"#utility.yul\":17490:17525   */\n      mstore\n        /* \"#utility.yul\":17305:17532   */\n      pop\n      jump\t// out\n        /* \"#utility.yul\":17538:17763   */\n    tag_271:\n        /* \"#utility.yul\":17678:17712   */\n      0x4f776e61626c653a206e6577206f776e657220697320746865207a65726f2061\n        /* \"#utility.yul\":17674:17675   */\n      0x00\n        /* \"#utility.yul\":17666:17672   */\n      dup3\n        /* \"#utility.yul\":17662:17676   */\n      add\n        /* \"#utility.yul\":17655:17713   */\n      mstore\n        /* \"#utility.yul\":17747:17755   */\n      0x6464726573730000000000000000000000000000000000000000000000000000\n        /* \"#utility.yul\":17742:17744   */\n      0x20\n        /* \"#utility.yul\":17734:17740   */\n      dup3\n        /* \"#utility.yul\":17730:17745   */\n      add\n        /* \"#utility.yul\":17723:17756   */\n      mstore\n        /* \"#utility.yul\":17538:17763   */\n      pop\n      jump\t// out\n        /* \"#utility.yul\":17769:17931   */\n    tag_276:\n        /* \"#utility.yul\":17909:17923   */\n      0x4861732067616e61646f3a200000000000000000000000000000000000000000\n        /* \"#utility.yul\":17905:17906   */\n      0x00\n        /* \"#utility.yul\":17897:17903   */\n      dup3\n        /* \"#utility.yul\":17893:17907   */\n      add\n        /* \"#utility.yul\":17886:17924   */\n      mstore\n        /* \"#utility.yul\":17769:17931   */\n      pop\n      jump\t// out\n        /* \"#utility.yul\":17937:18119   */\n    tag_281:\n        /* \"#utility.yul\":18077:18111   */\n      0x4f776e61626c653a2063616c6c6572206973206e6f7420746865206f776e6572\n        /* \"#utility.yul\":18073:18074   */\n      0x00\n        /* \"#utility.yul\":18065:18071   */\n      dup3\n        /* \"#utility.yul\":18061:18075   */\n      add\n        /* \"#utility.yul\":18054:18112   */\n      mstore\n        /* \"#utility.yul\":17937:18119   */\n      pop\n      jump\t// out\n        /* \"#utility.yul\":18125:18296   */\n    tag_286:\n        /* \"#utility.yul\":18265:18288   */\n      0x456c20636f6368652067616e61646f722065733a200000000000000000000000\n        /* \"#utility.yul\":18261:18262   */\n      0x00\n        /* \"#utility.yul\":18253:18259   */\n      dup3\n        /* \"#utility.yul\":18249:18263   */\n      add\n        /* \"#utility.yul\":18242:18289   */\n      mstore\n        /* \"#utility.yul\":18125:18296   */\n      pop\n      jump\t// out\n        /* \"#utility.yul\":18302:18424   */\n    tag_203:\n        /* \"#utility.yul\":18375:18399   */\n      tag_412\n        /* \"#utility.yul\":18393:18398   */\n      dup2\n        /* \"#utility.yul\":18375:18399   */\n      tag_239\n      jump\t// in\n    tag_412:\n        /* \"#utility.yul\":18368:18373   */\n      dup2\n        /* \"#utility.yul\":18365:18400   */\n      eq\n        /* \"#utility.yul\":18355:18418   */\n      tag_413\n      jumpi\n        /* \"#utility.yul\":18414:18415   */\n      0x00\n        /* \"#utility.yul\":18411:18412   */\n      dup1\n        /* \"#utility.yul\":18404:18416   */\n      revert\n        /* \"#utility.yul\":18355:18418   */\n    tag_413:\n        /* \"#utility.yul\":18302:18424   */\n      pop\n      jump\t// out\n        /* \"#utility.yul\":18430:18552   */\n    tag_213:\n        /* \"#utility.yul\":18503:18527   */\n      tag_415\n        /* \"#utility.yul\":18521:18526   */\n      dup2\n        /* \"#utility.yul\":18503:18527   */\n      tag_290\n      jump\t// in\n    tag_415:\n        /* \"#utility.yul\":18496:18501   */\n      dup2\n        /* \"#utility.yul\":18493:18528   */\n      eq\n        /* \"#utility.yul\":18483:18546   */\n      tag_416\n      jumpi\n        /* \"#utility.yul\":18542:18543   */\n      0x00\n        /* \"#utility.yul\":18539:18540   */\n      dup1\n        /* \"#utility.yul\":18532:18544   */\n      revert\n        /* \"#utility.yul\":18483:18546   */\n    tag_416:\n        /* \"#utility.yul\":18430:18552   */\n      pop\n      jump\t// out\n\n    auxdata: 0xa2646970667358221220c469d63d1d1a055ab42021e860b66ac4e40f7e10918f1461210cbeb16f17b29364736f6c63430008070033\n}\n",
				"bytecode": {
					"linkReferences": {},
					"object": "608060405260006001556000600255603c60035534801561001f57600080fd5b5061003c61003161004160201b60201c565b61004960201b60201c565b61010d565b600033905090565b60008060009054906101000a900473ffffffffffffffffffffffffffffffffffffffff169050816000806101000a81548173ffffffffffffffffffffffffffffffffffffffff021916908373ffffffffffffffffffffffffffffffffffffffff1602179055508173ffffffffffffffffffffffffffffffffffffffff168173ffffffffffffffffffffffffffffffffffffffff167f8be0079c531659141344cd1fd0a4f28419497f9722a3daafe3b4186f6b6457e060405160405180910390a35050565b6119628061011c6000396000f3fe6080604052600436106100865760003560e01c8063858b055411610059578063858b05541461014c5780638da5cb5b14610189578063d735573d146101b4578063e172fca8146101f8578063f2fde38b1461022157610086565b80631c6743e41461008b5780632458c544146100c85780636b6f049414610105578063715018a614610135575b600080fd5b34801561009757600080fd5b506100b260048036038101906100ad9190610f2d565b61024a565b6040516100bf91906113da565b60405180910390f35b3480156100d457600080fd5b506100ef60048036038101906100ea9190610f5a565b610262565b6040516100fc91906113da565b60405180910390f35b61011f600480360381019061011a9190611001565b610544565b60405161012c91906112c5565b60405180910390f35b34801561014157600080fd5b5061014a610780565b005b34801561015857600080fd5b50610173600480360381019061016e9190611001565b610808565b6040516101809190611217565b60405180910390f35b34801561019557600080fd5b5061019e61083b565b6040516101ab9190611217565b60405180910390f35b3480156101c057600080fd5b506101db60048036038101906101d69190611001565b610864565b6040516101ef989796959493929190611232565b60405180910390f35b34801561020457600080fd5b5061021f600480360381019061021a9190610f2d565b610a84565b005b34801561022d57600080fd5b5061024860048036038101906102439190610f2d565b610b94565b005b60066020528060005260406000206000915090505481565b60006001600660003373ffffffffffffffffffffffffffffffffffffffff1673ffffffffffffffffffffffffffffffffffffffff16815260200190815260200160002054106102e6576040517f08c379a00000000000000000000000000000000000000000000000000000000081526004016102dd9061131e565b60405180910390fd5b60046040518061010001604052803373ffffffffffffffffffffffffffffffffffffffff16815260200186815260200185815260200184815260200160008152602001600081526020016003544261033e919061147c565b63ffffffff168152602001600063ffffffff16815250908060018154018082558091505060019003906000526020600020906008020160009091909190915060008201518160000160006101000a81548173ffffffffffffffffffffffffffffffffffffffff021916908373ffffffffffffffffffffffffffffffffffffffff16021790555060208201518160010190805190602001906103e0929190610df0565b5060408201518160020190805190602001906103fd929190610df0565b50606082015181600301908051906020019061041a929190610df0565b506080820151816004015560a0820151816005015560c0820151816006015560e08201518160070160006101000a81548163ffffffff021916908363ffffffff160217905550505060006004805490509050336005600083815260200190815260200160002060006101000a81548173ffffffffffffffffffffffffffffffffffffffff021916908373ffffffffffffffffffffffffffffffffffffffff160217905550600660003373ffffffffffffffffffffffffffffffffffffffff1673ffffffffffffffffffffffffffffffffffffffff168152602001908152602001600020600081548092919061050e90611651565b91905055506002600081548092919061052690611651565b9190505550600160025461053a919061152c565b9150509392505050565b606081341461055257600080fd5b6001600081548092919061056590611651565b919050555060006004805490504260048054905060015460405160200161058e939291906111da565b6040516020818303038152906040528051906020012060001c6105b191906116a4565b9050600160008154809291906105c690611651565b919050555060006002905060008142836001546040516020016105eb939291906111da565b6040516020818303038152906040528051906020012060001c61060e91906116a4565b905060005b600480549050811015610776576004818154811061063457610633611762565b5b906000526020600020906008020160000160009054906101000a900473ffffffffffffffffffffffffffffffffffffffff1673ffffffffffffffffffffffffffffffffffffffff163373ffffffffffffffffffffffffffffffffffffffff1614156107635760008214156106eb576106aa610c8c565b6040518060400160405280600a81526020017f4861732067616e61646f0000000000000000000000000000000000000000000081525094505050505061077b565b7fa28482eec3136a2461c6c30c08f71ba279c6c51a2d9c7bea4e50d6d2632f38968460405161071a91906113ac565b60405180910390a16040518060400160405280600b81526020017f486173207065726469646f00000000000000000000000000000000000000000081525094505050505061077b565b808061076e90611651565b915050610613565b505050505b919050565b610788610d24565b73ffffffffffffffffffffffffffffffffffffffff166107a661083b565b73ffffffffffffffffffffffffffffffffffffffff16146107fc576040517f08c379a00000000000000000000000000000000000000000000000000000000081526004016107f39061138c565b60405180910390fd5b6108066000610d2c565b565b60056020528060005260406000206000915054906101000a900473ffffffffffffffffffffffffffffffffffffffff1681565b60008060009054906101000a900473ffffffffffffffffffffffffffffffffffffffff16905090565b6004818154811061087457600080fd5b90600052602060002090600802016000915090508060000160009054906101000a900473ffffffffffffffffffffffffffffffffffffffff16908060010180546108bd906115ee565b80601f01602080910402602001604051908101604052809291908181526020018280546108e9906115ee565b80156109365780601f1061090b57610100808354040283529160200191610936565b820191906000526020600020905b81548152906001019060200180831161091957829003601f168201915b50505050509080600201805461094b906115ee565b80601f0160208091040260200160405190810160405280929190818152602001828054610977906115ee565b80156109c45780601f10610999576101008083540402835291602001916109c4565b820191906000526020600020905b8154815290600101906020018083116109a757829003601f168201915b5050505050908060030180546109d9906115ee565b80601f0160208091040260200160405190810160405280929190818152602001828054610a05906115ee565b8015610a525780601f10610a2757610100808354040283529160200191610a52565b820191906000526020600020905b815481529060010190602001808311610a3557829003601f168201915b5050505050908060040154908060050154908060060154908060070160009054906101000a900463ffffffff16905088565b60005b600480549050811015610b90578173ffffffffffffffffffffffffffffffffffffffff166005600083815260200190815260200160002060009054906101000a900473ffffffffffffffffffffffffffffffffffffffff1673ffffffffffffffffffffffffffffffffffffffff161415610b7d577f96408510f58a52b0cfe536e046b25664fa36d8122620ec608c1767b45aa4f03c60048281548110610b3057610b2f611762565b5b906000526020600020906008020160020160048381548110610b5557610b54611762565b5b9060005260206000209060080201600101604051610b749291906112e7565b60405180910390a15b8080610b8890611651565b915050610a87565b5050565b610b9c610d24565b73ffffffffffffffffffffffffffffffffffffffff16610bba61083b565b73ffffffffffffffffffffffffffffffffffffffff1614610c10576040517f08c379a0000000000000000000000000000000000000000000000000000000008152600401610c079061138c565b60405180910390fd5b600073ffffffffffffffffffffffffffffffffffffffff168173ffffffffffffffffffffffffffffffffffffffff161415610c80576040517f08c379a0000000000000000000000000000000000000000000000000000000008152600401610c779061133e565b60405180910390fd5b610c8981610d2c565b50565b3373ffffffffffffffffffffffffffffffffffffffff166108fc600247610cb391906114d2565b9081150290604051600060405180830381858888f19350505050158015610cde573d6000803e3d6000fd5b507fa28482eec3136a2461c6c30c08f71ba279c6c51a2d9c7bea4e50d6d2632f3896600247610d0d91906114d2565b604051610d1a919061135e565b60405180910390a1565b600033905090565b60008060009054906101000a900473ffffffffffffffffffffffffffffffffffffffff169050816000806101000a81548173ffffffffffffffffffffffffffffffffffffffff021916908373ffffffffffffffffffffffffffffffffffffffff1602179055508173ffffffffffffffffffffffffffffffffffffffff168173ffffffffffffffffffffffffffffffffffffffff167f8be0079c531659141344cd1fd0a4f28419497f9722a3daafe3b4186f6b6457e060405160405180910390a35050565b828054610dfc906115ee565b90600052602060002090601f016020900481019282610e1e5760008555610e65565b82601f10610e3757805160ff1916838001178555610e65565b82800160010185558215610e65579182015b82811115610e64578251825591602001919060010190610e49565b5b509050610e729190610e76565b5090565b5b80821115610e8f576000816000905550600101610e77565b5090565b6000610ea6610ea18461141a565b6113f5565b905082815260208101848484011115610ec257610ec16117c5565b5b610ecd8482856115ac565b509392505050565b600081359050610ee4816118fe565b92915050565b600082601f830112610eff57610efe6117c0565b5b8135610f0f848260208601610e93565b91505092915050565b600081359050610f2781611915565b92915050565b600060208284031215610f4357610f426117cf565b5b6000610f5184828501610ed5565b91505092915050565b600080600060608486031215610f7357610f726117cf565b5b600084013567ffffffffffffffff811115610f9157610f906117ca565b5b610f9d86828701610eea565b935050602084013567ffffffffffffffff811115610fbe57610fbd6117ca565b5b610fca86828701610eea565b925050604084013567ffffffffffffffff811115610feb57610fea6117ca565b5b610ff786828701610eea565b9150509250925092565b600060208284031215611017576110166117cf565b5b600061102584828501610f18565b91505092915050565b61103781611560565b82525050565b600061104882611460565b611052818561146b565b93506110628185602086016115bb565b61106b816117d4565b840191505092915050565b60008154611083816115ee565b61108d818661146b565b945060018216600081146110a857600181146110ba576110ed565b60ff19831686526020860193506110ed565b6110c38561144b565b60005b838110156110e5578154818901526001820191506020810190506110c6565b808801955050505b50505092915050565b600061110360288361146b565b915061110e826117e5565b604082019050919050565b600061112660268361146b565b915061113182611834565b604082019050919050565b6000611149600c8361146b565b915061115482611883565b602082019050919050565b600061116c60208361146b565b9150611177826118ac565b602082019050919050565b600061118f60158361146b565b915061119a826118d5565b602082019050919050565b6111ae81611592565b82525050565b6111c56111c082611592565b61169a565b82525050565b6111d48161159c565b82525050565b60006111e682866111b4565b6020820191506111f682856111b4565b60208201915061120682846111b4565b602082019150819050949350505050565b600060208201905061122c600083018461102e565b92915050565b600061010082019050611248600083018b61102e565b818103602083015261125a818a61103d565b9050818103604083015261126e818961103d565b90508181036060830152611282818861103d565b905061129160808301876111a5565b61129e60a08301866111a5565b6112ab60c08301856111a5565b6112b860e08301846111cb565b9998505050505050505050565b600060208201905081810360008301526112df818461103d565b905092915050565b600060408201905081810360008301526113018185611076565b905081810360208301526113158184611076565b90509392505050565b60006020820190508181036000830152611337816110f6565b9050919050565b6000602082019050818103600083015261135781611119565b9050919050565b600060408201905081810360008301526113778161113c565b905061138660208301846111a5565b92915050565b600060208201905081810360008301526113a58161115f565b9050919050565b600060408201905081810360008301526113c581611182565b90506113d460208301846111a5565b92915050565b60006020820190506113ef60008301846111a5565b92915050565b60006113ff611410565b905061140b8282611620565b919050565b6000604051905090565b600067ffffffffffffffff82111561143557611434611791565b5b61143e826117d4565b9050602081019050919050565b60008190508160005260206000209050919050565b600081519050919050565b600082825260208201905092915050565b600061148782611592565b915061149283611592565b9250827fffffffffffffffffffffffffffffffffffffffffffffffffffffffffffffffff038211156114c7576114c66116d5565b5b828201905092915050565b60006114dd82611592565b91506114e883611592565b9250817fffffffffffffffffffffffffffffffffffffffffffffffffffffffffffffffff0483118215151615611521576115206116d5565b5b828202905092915050565b600061153782611592565b915061154283611592565b925082821015611555576115546116d5565b5b828203905092915050565b600061156b82611572565b9050919050565b600073ffffffffffffffffffffffffffffffffffffffff82169050919050565b6000819050919050565b600063ffffffff82169050919050565b82818337600083830152505050565b60005b838110156115d95780820151818401526020810190506115be565b838111156115e8576000848401525b50505050565b6000600282049050600182168061160657607f821691505b6020821081141561161a57611619611733565b5b50919050565b611629826117d4565b810181811067ffffffffffffffff8211171561164857611647611791565b5b80604052505050565b600061165c82611592565b91507fffffffffffffffffffffffffffffffffffffffffffffffffffffffffffffffff82141561168f5761168e6116d5565b5b600182019050919050565b6000819050919050565b60006116af82611592565b91506116ba83611592565b9250826116ca576116c9611704565b5b828206905092915050565b7f4e487b7100000000000000000000000000000000000000000000000000000000600052601160045260246000fd5b7f4e487b7100000000000000000000000000000000000000000000000000000000600052601260045260246000fd5b7f4e487b7100000000000000000000000000000000000000000000000000000000600052602260045260246000fd5b7f4e487b7100000000000000000000000000000000000000000000000000000000600052603260045260246000fd5b7f4e487b7100000000000000000000000000000000000000000000000000000000600052604160045260246000fd5b600080fd5b600080fd5b600080fd5b600080fd5b6000601f19601f8301169050919050565b7f536f6c6f2073652070756564652074656e657220756e20636f63686520706f7260008201527f20706572736f6e61000000000000000000000000000000000000000000000000602082015250565b7f4f776e61626c653a206e6577206f776e657220697320746865207a65726f206160008201527f6464726573730000000000000000000000000000000000000000000000000000602082015250565b7f4861732067616e61646f3a200000000000000000000000000000000000000000600082015250565b7f4f776e61626c653a2063616c6c6572206973206e6f7420746865206f776e6572600082015250565b7f456c20636f6368652067616e61646f722065733a200000000000000000000000600082015250565b61190781611560565b811461191257600080fd5b50565b61191e81611592565b811461192957600080fd5b5056fea2646970667358221220c469d63d1d1a055ab42021e860b66ac4e40f7e10918f1461210cbeb16f17b29364736f6c63430008070033",
					"opcodes": "PUSH1 0x80 PUSH1 0x40 MSTORE PUSH1 0x0 PUSH1 0x1 SSTORE PUSH1 0x0 PUSH1 0x2 SSTORE PUSH1 0x3C PUSH1 0x3 SSTORE CALLVALUE DUP1 ISZERO PUSH2 0x1F JUMPI PUSH1 0x0 DUP1 REVERT JUMPDEST POP PUSH2 0x3C PUSH2 0x31 PUSH2 0x41 PUSH1 0x20 SHL PUSH1 0x20 SHR JUMP JUMPDEST PUSH2 0x49 PUSH1 0x20 SHL PUSH1 0x20 SHR JUMP JUMPDEST PUSH2 0x10D JUMP JUMPDEST PUSH1 0x0 CALLER SWAP1 POP SWAP1 JUMP JUMPDEST PUSH1 0x0 DUP1 PUSH1 0x0 SWAP1 SLOAD SWAP1 PUSH2 0x100 EXP SWAP1 DIV PUSH20 0xFFFFFFFFFFFFFFFFFFFFFFFFFFFFFFFFFFFFFFFF AND SWAP1 POP DUP2 PUSH1 0x0 DUP1 PUSH2 0x100 EXP DUP2 SLOAD DUP2 PUSH20 0xFFFFFFFFFFFFFFFFFFFFFFFFFFFFFFFFFFFFFFFF MUL NOT AND SWAP1 DUP4 PUSH20 0xFFFFFFFFFFFFFFFFFFFFFFFFFFFFFFFFFFFFFFFF AND MUL OR SWAP1 SSTORE POP DUP2 PUSH20 0xFFFFFFFFFFFFFFFFFFFFFFFFFFFFFFFFFFFFFFFF AND DUP2 PUSH20 0xFFFFFFFFFFFFFFFFFFFFFFFFFFFFFFFFFFFFFFFF AND PUSH32 0x8BE0079C531659141344CD1FD0A4F28419497F9722A3DAAFE3B4186F6B6457E0 PUSH1 0x40 MLOAD PUSH1 0x40 MLOAD DUP1 SWAP2 SUB SWAP1 LOG3 POP POP JUMP JUMPDEST PUSH2 0x1962 DUP1 PUSH2 0x11C PUSH1 0x0 CODECOPY PUSH1 0x0 RETURN INVALID PUSH1 0x80 PUSH1 0x40 MSTORE PUSH1 0x4 CALLDATASIZE LT PUSH2 0x86 JUMPI PUSH1 0x0 CALLDATALOAD PUSH1 0xE0 SHR DUP1 PUSH4 0x858B0554 GT PUSH2 0x59 JUMPI DUP1 PUSH4 0x858B0554 EQ PUSH2 0x14C JUMPI DUP1 PUSH4 0x8DA5CB5B EQ PUSH2 0x189 JUMPI DUP1 PUSH4 0xD735573D EQ PUSH2 0x1B4 JUMPI DUP1 PUSH4 0xE172FCA8 EQ PUSH2 0x1F8 JUMPI DUP1 PUSH4 0xF2FDE38B EQ PUSH2 0x221 JUMPI PUSH2 0x86 JUMP JUMPDEST DUP1 PUSH4 0x1C6743E4 EQ PUSH2 0x8B JUMPI DUP1 PUSH4 0x2458C544 EQ PUSH2 0xC8 JUMPI DUP1 PUSH4 0x6B6F0494 EQ PUSH2 0x105 JUMPI DUP1 PUSH4 0x715018A6 EQ PUSH2 0x135 JUMPI JUMPDEST PUSH1 0x0 DUP1 REVERT JUMPDEST CALLVALUE DUP1 ISZERO PUSH2 0x97 JUMPI PUSH1 0x0 DUP1 REVERT JUMPDEST POP PUSH2 0xB2 PUSH1 0x4 DUP1 CALLDATASIZE SUB DUP2 ADD SWAP1 PUSH2 0xAD SWAP2 SWAP1 PUSH2 0xF2D JUMP JUMPDEST PUSH2 0x24A JUMP JUMPDEST PUSH1 0x40 MLOAD PUSH2 0xBF SWAP2 SWAP1 PUSH2 0x13DA JUMP JUMPDEST PUSH1 0x40 MLOAD DUP1 SWAP2 SUB SWAP1 RETURN JUMPDEST CALLVALUE DUP1 ISZERO PUSH2 0xD4 JUMPI PUSH1 0x0 DUP1 REVERT JUMPDEST POP PUSH2 0xEF PUSH1 0x4 DUP1 CALLDATASIZE SUB DUP2 ADD SWAP1 PUSH2 0xEA SWAP2 SWAP1 PUSH2 0xF5A JUMP JUMPDEST PUSH2 0x262 JUMP JUMPDEST PUSH1 0x40 MLOAD PUSH2 0xFC SWAP2 SWAP1 PUSH2 0x13DA JUMP JUMPDEST PUSH1 0x40 MLOAD DUP1 SWAP2 SUB SWAP1 RETURN JUMPDEST PUSH2 0x11F PUSH1 0x4 DUP1 CALLDATASIZE SUB DUP2 ADD SWAP1 PUSH2 0x11A SWAP2 SWAP1 PUSH2 0x1001 JUMP JUMPDEST PUSH2 0x544 JUMP JUMPDEST PUSH1 0x40 MLOAD PUSH2 0x12C SWAP2 SWAP1 PUSH2 0x12C5 JUMP JUMPDEST PUSH1 0x40 MLOAD DUP1 SWAP2 SUB SWAP1 RETURN JUMPDEST CALLVALUE DUP1 ISZERO PUSH2 0x141 JUMPI PUSH1 0x0 DUP1 REVERT JUMPDEST POP PUSH2 0x14A PUSH2 0x780 JUMP JUMPDEST STOP JUMPDEST CALLVALUE DUP1 ISZERO PUSH2 0x158 JUMPI PUSH1 0x0 DUP1 REVERT JUMPDEST POP PUSH2 0x173 PUSH1 0x4 DUP1 CALLDATASIZE SUB DUP2 ADD SWAP1 PUSH2 0x16E SWAP2 SWAP1 PUSH2 0x1001 JUMP JUMPDEST PUSH2 0x808 JUMP JUMPDEST PUSH1 0x40 MLOAD PUSH2 0x180 SWAP2 SWAP1 PUSH2 0x1217 JUMP JUMPDEST PUSH1 0x40 MLOAD DUP1 SWAP2 SUB SWAP1 RETURN JUMPDEST CALLVALUE DUP1 ISZERO PUSH2 0x195 JUMPI PUSH1 0x0 DUP1 REVERT JUMPDEST POP PUSH2 0x19E PUSH2 0x83B JUMP JUMPDEST PUSH1 0x40 MLOAD PUSH2 0x1AB SWAP2 SWAP1 PUSH2 0x1217 JUMP JUMPDEST PUSH1 0x40 MLOAD DUP1 SWAP2 SUB SWAP1 RETURN JUMPDEST CALLVALUE DUP1 ISZERO PUSH2 0x1C0 JUMPI PUSH1 0x0 DUP1 REVERT JUMPDEST POP PUSH2 0x1DB PUSH1 0x4 DUP1 CALLDATASIZE SUB DUP2 ADD SWAP1 PUSH2 0x1D6 SWAP2 SWAP1 PUSH2 0x1001 JUMP JUMPDEST PUSH2 0x864 JUMP JUMPDEST PUSH1 0x40 MLOAD PUSH2 0x1EF SWAP9 SWAP8 SWAP7 SWAP6 SWAP5 SWAP4 SWAP3 SWAP2 SWAP1 PUSH2 0x1232 JUMP JUMPDEST PUSH1 0x40 MLOAD DUP1 SWAP2 SUB SWAP1 RETURN JUMPDEST CALLVALUE DUP1 ISZERO PUSH2 0x204 JUMPI PUSH1 0x0 DUP1 REVERT JUMPDEST POP PUSH2 0x21F PUSH1 0x4 DUP1 CALLDATASIZE SUB DUP2 ADD SWAP1 PUSH2 0x21A SWAP2 SWAP1 PUSH2 0xF2D JUMP JUMPDEST PUSH2 0xA84 JUMP JUMPDEST STOP JUMPDEST CALLVALUE DUP1 ISZERO PUSH2 0x22D JUMPI PUSH1 0x0 DUP1 REVERT JUMPDEST POP PUSH2 0x248 PUSH1 0x4 DUP1 CALLDATASIZE SUB DUP2 ADD SWAP1 PUSH2 0x243 SWAP2 SWAP1 PUSH2 0xF2D JUMP JUMPDEST PUSH2 0xB94 JUMP JUMPDEST STOP JUMPDEST PUSH1 0x6 PUSH1 0x20 MSTORE DUP1 PUSH1 0x0 MSTORE PUSH1 0x40 PUSH1 0x0 KECCAK256 PUSH1 0x0 SWAP2 POP SWAP1 POP SLOAD DUP2 JUMP JUMPDEST PUSH1 0x0 PUSH1 0x1 PUSH1 0x6 PUSH1 0x0 CALLER PUSH20 0xFFFFFFFFFFFFFFFFFFFFFFFFFFFFFFFFFFFFFFFF AND PUSH20 0xFFFFFFFFFFFFFFFFFFFFFFFFFFFFFFFFFFFFFFFF AND DUP2 MSTORE PUSH1 0x20 ADD SWAP1 DUP2 MSTORE PUSH1 0x20 ADD PUSH1 0x0 KECCAK256 SLOAD LT PUSH2 0x2E6 JUMPI PUSH1 0x40 MLOAD PUSH32 0x8C379A000000000000000000000000000000000000000000000000000000000 DUP2 MSTORE PUSH1 0x4 ADD PUSH2 0x2DD SWAP1 PUSH2 0x131E JUMP JUMPDEST PUSH1 0x40 MLOAD DUP1 SWAP2 SUB SWAP1 REVERT JUMPDEST PUSH1 0x4 PUSH1 0x40 MLOAD DUP1 PUSH2 0x100 ADD PUSH1 0x40 MSTORE DUP1 CALLER PUSH20 0xFFFFFFFFFFFFFFFFFFFFFFFFFFFFFFFFFFFFFFFF AND DUP2 MSTORE PUSH1 0x20 ADD DUP7 DUP2 MSTORE PUSH1 0x20 ADD DUP6 DUP2 MSTORE PUSH1 0x20 ADD DUP5 DUP2 MSTORE PUSH1 0x20 ADD PUSH1 0x0 DUP2 MSTORE PUSH1 0x20 ADD PUSH1 0x0 DUP2 MSTORE PUSH1 0x20 ADD PUSH1 0x3 SLOAD TIMESTAMP PUSH2 0x33E SWAP2 SWAP1 PUSH2 0x147C JUMP JUMPDEST PUSH4 0xFFFFFFFF AND DUP2 MSTORE PUSH1 0x20 ADD PUSH1 0x0 PUSH4 0xFFFFFFFF AND DUP2 MSTORE POP SWAP1 DUP1 PUSH1 0x1 DUP2 SLOAD ADD DUP1 DUP3 SSTORE DUP1 SWAP2 POP POP PUSH1 0x1 SWAP1 SUB SWAP1 PUSH1 0x0 MSTORE PUSH1 0x20 PUSH1 0x0 KECCAK256 SWAP1 PUSH1 0x8 MUL ADD PUSH1 0x0 SWAP1 SWAP2 SWAP1 SWAP2 SWAP1 SWAP2 POP PUSH1 0x0 DUP3 ADD MLOAD DUP2 PUSH1 0x0 ADD PUSH1 0x0 PUSH2 0x100 EXP DUP2 SLOAD DUP2 PUSH20 0xFFFFFFFFFFFFFFFFFFFFFFFFFFFFFFFFFFFFFFFF MUL NOT AND SWAP1 DUP4 PUSH20 0xFFFFFFFFFFFFFFFFFFFFFFFFFFFFFFFFFFFFFFFF AND MUL OR SWAP1 SSTORE POP PUSH1 0x20 DUP3 ADD MLOAD DUP2 PUSH1 0x1 ADD SWAP1 DUP1 MLOAD SWAP1 PUSH1 0x20 ADD SWAP1 PUSH2 0x3E0 SWAP3 SWAP2 SWAP1 PUSH2 0xDF0 JUMP JUMPDEST POP PUSH1 0x40 DUP3 ADD MLOAD DUP2 PUSH1 0x2 ADD SWAP1 DUP1 MLOAD SWAP1 PUSH1 0x20 ADD SWAP1 PUSH2 0x3FD SWAP3 SWAP2 SWAP1 PUSH2 0xDF0 JUMP JUMPDEST POP PUSH1 0x60 DUP3 ADD MLOAD DUP2 PUSH1 0x3 ADD SWAP1 DUP1 MLOAD SWAP1 PUSH1 0x20 ADD SWAP1 PUSH2 0x41A SWAP3 SWAP2 SWAP1 PUSH2 0xDF0 JUMP JUMPDEST POP PUSH1 0x80 DUP3 ADD MLOAD DUP2 PUSH1 0x4 ADD SSTORE PUSH1 0xA0 DUP3 ADD MLOAD DUP2 PUSH1 0x5 ADD SSTORE PUSH1 0xC0 DUP3 ADD MLOAD DUP2 PUSH1 0x6 ADD SSTORE PUSH1 0xE0 DUP3 ADD MLOAD DUP2 PUSH1 0x7 ADD PUSH1 0x0 PUSH2 0x100 EXP DUP2 SLOAD DUP2 PUSH4 0xFFFFFFFF MUL NOT AND SWAP1 DUP4 PUSH4 0xFFFFFFFF AND MUL OR SWAP1 SSTORE POP POP POP PUSH1 0x0 PUSH1 0x4 DUP1 SLOAD SWAP1 POP SWAP1 POP CALLER PUSH1 0x5 PUSH1 0x0 DUP4 DUP2 MSTORE PUSH1 0x20 ADD SWAP1 DUP2 MSTORE PUSH1 0x20 ADD PUSH1 0x0 KECCAK256 PUSH1 0x0 PUSH2 0x100 EXP DUP2 SLOAD DUP2 PUSH20 0xFFFFFFFFFFFFFFFFFFFFFFFFFFFFFFFFFFFFFFFF MUL NOT AND SWAP1 DUP4 PUSH20 0xFFFFFFFFFFFFFFFFFFFFFFFFFFFFFFFFFFFFFFFF AND MUL OR SWAP1 SSTORE POP PUSH1 0x6 PUSH1 0x0 CALLER PUSH20 0xFFFFFFFFFFFFFFFFFFFFFFFFFFFFFFFFFFFFFFFF AND PUSH20 0xFFFFFFFFFFFFFFFFFFFFFFFFFFFFFFFFFFFFFFFF AND DUP2 MSTORE PUSH1 0x20 ADD SWAP1 DUP2 MSTORE PUSH1 0x20 ADD PUSH1 0x0 KECCAK256 PUSH1 0x0 DUP2 SLOAD DUP1 SWAP3 SWAP2 SWAP1 PUSH2 0x50E SWAP1 PUSH2 0x1651 JUMP JUMPDEST SWAP2 SWAP1 POP SSTORE POP PUSH1 0x2 PUSH1 0x0 DUP2 SLOAD DUP1 SWAP3 SWAP2 SWAP1 PUSH2 0x526 SWAP1 PUSH2 0x1651 JUMP JUMPDEST SWAP2 SWAP1 POP SSTORE POP PUSH1 0x1 PUSH1 0x2 SLOAD PUSH2 0x53A SWAP2 SWAP1 PUSH2 0x152C JUMP JUMPDEST SWAP2 POP POP SWAP4 SWAP3 POP POP POP JUMP JUMPDEST PUSH1 0x60 DUP2 CALLVALUE EQ PUSH2 0x552 JUMPI PUSH1 0x0 DUP1 REVERT JUMPDEST PUSH1 0x1 PUSH1 0x0 DUP2 SLOAD DUP1 SWAP3 SWAP2 SWAP1 PUSH2 0x565 SWAP1 PUSH2 0x1651 JUMP JUMPDEST SWAP2 SWAP1 POP SSTORE POP PUSH1 0x0 PUSH1 0x4 DUP1 SLOAD SWAP1 POP TIMESTAMP PUSH1 0x4 DUP1 SLOAD SWAP1 POP PUSH1 0x1 SLOAD PUSH1 0x40 MLOAD PUSH1 0x20 ADD PUSH2 0x58E SWAP4 SWAP3 SWAP2 SWAP1 PUSH2 0x11DA JUMP JUMPDEST PUSH1 0x40 MLOAD PUSH1 0x20 DUP2 DUP4 SUB SUB DUP2 MSTORE SWAP1 PUSH1 0x40 MSTORE DUP1 MLOAD SWAP1 PUSH1 0x20 ADD KECCAK256 PUSH1 0x0 SHR PUSH2 0x5B1 SWAP2 SWAP1 PUSH2 0x16A4 JUMP JUMPDEST SWAP1 POP PUSH1 0x1 PUSH1 0x0 DUP2 SLOAD DUP1 SWAP3 SWAP2 SWAP1 PUSH2 0x5C6 SWAP1 PUSH2 0x1651 JUMP JUMPDEST SWAP2 SWAP1 POP SSTORE POP PUSH1 0x0 PUSH1 0x2 SWAP1 POP PUSH1 0x0 DUP2 TIMESTAMP DUP4 PUSH1 0x1 SLOAD PUSH1 0x40 MLOAD PUSH1 0x20 ADD PUSH2 0x5EB SWAP4 SWAP3 SWAP2 SWAP1 PUSH2 0x11DA JUMP JUMPDEST PUSH1 0x40 MLOAD PUSH1 0x20 DUP2 DUP4 SUB SUB DUP2 MSTORE SWAP1 PUSH1 0x40 MSTORE DUP1 MLOAD SWAP1 PUSH1 0x20 ADD KECCAK256 PUSH1 0x0 SHR PUSH2 0x60E SWAP2 SWAP1 PUSH2 0x16A4 JUMP JUMPDEST SWAP1 POP PUSH1 0x0 JUMPDEST PUSH1 0x4 DUP1 SLOAD SWAP1 POP DUP2 LT ISZERO PUSH2 0x776 JUMPI PUSH1 0x4 DUP2 DUP2 SLOAD DUP2 LT PUSH2 0x634 JUMPI PUSH2 0x633 PUSH2 0x1762 JUMP JUMPDEST JUMPDEST SWAP1 PUSH1 0x0 MSTORE PUSH1 0x20 PUSH1 0x0 KECCAK256 SWAP1 PUSH1 0x8 MUL ADD PUSH1 0x0 ADD PUSH1 0x0 SWAP1 SLOAD SWAP1 PUSH2 0x100 EXP SWAP1 DIV PUSH20 0xFFFFFFFFFFFFFFFFFFFFFFFFFFFFFFFFFFFFFFFF AND PUSH20 0xFFFFFFFFFFFFFFFFFFFFFFFFFFFFFFFFFFFFFFFF AND CALLER PUSH20 0xFFFFFFFFFFFFFFFFFFFFFFFFFFFFFFFFFFFFFFFF AND EQ ISZERO PUSH2 0x763 JUMPI PUSH1 0x0 DUP3 EQ ISZERO PUSH2 0x6EB JUMPI PUSH2 0x6AA PUSH2 0xC8C JUMP JUMPDEST PUSH1 0x40 MLOAD DUP1 PUSH1 0x40 ADD PUSH1 0x40 MSTORE DUP1 PUSH1 0xA DUP2 MSTORE PUSH1 0x20 ADD PUSH32 0x4861732067616E61646F00000000000000000000000000000000000000000000 DUP2 MSTORE POP SWAP5 POP POP POP POP POP PUSH2 0x77B JUMP JUMPDEST PUSH32 0xA28482EEC3136A2461C6C30C08F71BA279C6C51A2D9C7BEA4E50D6D2632F3896 DUP5 PUSH1 0x40 MLOAD PUSH2 0x71A SWAP2 SWAP1 PUSH2 0x13AC JUMP JUMPDEST PUSH1 0x40 MLOAD DUP1 SWAP2 SUB SWAP1 LOG1 PUSH1 0x40 MLOAD DUP1 PUSH1 0x40 ADD PUSH1 0x40 MSTORE DUP1 PUSH1 0xB DUP2 MSTORE PUSH1 0x20 ADD PUSH32 0x486173207065726469646F000000000000000000000000000000000000000000 DUP2 MSTORE POP SWAP5 POP POP POP POP POP PUSH2 0x77B JUMP JUMPDEST DUP1 DUP1 PUSH2 0x76E SWAP1 PUSH2 0x1651 JUMP JUMPDEST SWAP2 POP POP PUSH2 0x613 JUMP JUMPDEST POP POP POP POP JUMPDEST SWAP2 SWAP1 POP JUMP JUMPDEST PUSH2 0x788 PUSH2 0xD24 JUMP JUMPDEST PUSH20 0xFFFFFFFFFFFFFFFFFFFFFFFFFFFFFFFFFFFFFFFF AND PUSH2 0x7A6 PUSH2 0x83B JUMP JUMPDEST PUSH20 0xFFFFFFFFFFFFFFFFFFFFFFFFFFFFFFFFFFFFFFFF AND EQ PUSH2 0x7FC JUMPI PUSH1 0x40 MLOAD PUSH32 0x8C379A000000000000000000000000000000000000000000000000000000000 DUP2 MSTORE PUSH1 0x4 ADD PUSH2 0x7F3 SWAP1 PUSH2 0x138C JUMP JUMPDEST PUSH1 0x40 MLOAD DUP1 SWAP2 SUB SWAP1 REVERT JUMPDEST PUSH2 0x806 PUSH1 0x0 PUSH2 0xD2C JUMP JUMPDEST JUMP JUMPDEST PUSH1 0x5 PUSH1 0x20 MSTORE DUP1 PUSH1 0x0 MSTORE PUSH1 0x40 PUSH1 0x0 KECCAK256 PUSH1 0x0 SWAP2 POP SLOAD SWAP1 PUSH2 0x100 EXP SWAP1 DIV PUSH20 0xFFFFFFFFFFFFFFFFFFFFFFFFFFFFFFFFFFFFFFFF AND DUP2 JUMP JUMPDEST PUSH1 0x0 DUP1 PUSH1 0x0 SWAP1 SLOAD SWAP1 PUSH2 0x100 EXP SWAP1 DIV PUSH20 0xFFFFFFFFFFFFFFFFFFFFFFFFFFFFFFFFFFFFFFFF AND SWAP1 POP SWAP1 JUMP JUMPDEST PUSH1 0x4 DUP2 DUP2 SLOAD DUP2 LT PUSH2 0x874 JUMPI PUSH1 0x0 DUP1 REVERT JUMPDEST SWAP1 PUSH1 0x0 MSTORE PUSH1 0x20 PUSH1 0x0 KECCAK256 SWAP1 PUSH1 0x8 MUL ADD PUSH1 0x0 SWAP2 POP SWAP1 POP DUP1 PUSH1 0x0 ADD PUSH1 0x0 SWAP1 SLOAD SWAP1 PUSH2 0x100 EXP SWAP1 DIV PUSH20 0xFFFFFFFFFFFFFFFFFFFFFFFFFFFFFFFFFFFFFFFF AND SWAP1 DUP1 PUSH1 0x1 ADD DUP1 SLOAD PUSH2 0x8BD SWAP1 PUSH2 0x15EE JUMP JUMPDEST DUP1 PUSH1 0x1F ADD PUSH1 0x20 DUP1 SWAP2 DIV MUL PUSH1 0x20 ADD PUSH1 0x40 MLOAD SWAP1 DUP2 ADD PUSH1 0x40 MSTORE DUP1 SWAP3 SWAP2 SWAP1 DUP2 DUP2 MSTORE PUSH1 0x20 ADD DUP3 DUP1 SLOAD PUSH2 0x8E9 SWAP1 PUSH2 0x15EE JUMP JUMPDEST DUP1 ISZERO PUSH2 0x936 JUMPI DUP1 PUSH1 0x1F LT PUSH2 0x90B JUMPI PUSH2 0x100 DUP1 DUP4 SLOAD DIV MUL DUP4 MSTORE SWAP2 PUSH1 0x20 ADD SWAP2 PUSH2 0x936 JUMP JUMPDEST DUP3 ADD SWAP2 SWAP1 PUSH1 0x0 MSTORE PUSH1 0x20 PUSH1 0x0 KECCAK256 SWAP1 JUMPDEST DUP2 SLOAD DUP2 MSTORE SWAP1 PUSH1 0x1 ADD SWAP1 PUSH1 0x20 ADD DUP1 DUP4 GT PUSH2 0x919 JUMPI DUP3 SWAP1 SUB PUSH1 0x1F AND DUP3 ADD SWAP2 JUMPDEST POP POP POP POP POP SWAP1 DUP1 PUSH1 0x2 ADD DUP1 SLOAD PUSH2 0x94B SWAP1 PUSH2 0x15EE JUMP JUMPDEST DUP1 PUSH1 0x1F ADD PUSH1 0x20 DUP1 SWAP2 DIV MUL PUSH1 0x20 ADD PUSH1 0x40 MLOAD SWAP1 DUP2 ADD PUSH1 0x40 MSTORE DUP1 SWAP3 SWAP2 SWAP1 DUP2 DUP2 MSTORE PUSH1 0x20 ADD DUP3 DUP1 SLOAD PUSH2 0x977 SWAP1 PUSH2 0x15EE JUMP JUMPDEST DUP1 ISZERO PUSH2 0x9C4 JUMPI DUP1 PUSH1 0x1F LT PUSH2 0x999 JUMPI PUSH2 0x100 DUP1 DUP4 SLOAD DIV MUL DUP4 MSTORE SWAP2 PUSH1 0x20 ADD SWAP2 PUSH2 0x9C4 JUMP JUMPDEST DUP3 ADD SWAP2 SWAP1 PUSH1 0x0 MSTORE PUSH1 0x20 PUSH1 0x0 KECCAK256 SWAP1 JUMPDEST DUP2 SLOAD DUP2 MSTORE SWAP1 PUSH1 0x1 ADD SWAP1 PUSH1 0x20 ADD DUP1 DUP4 GT PUSH2 0x9A7 JUMPI DUP3 SWAP1 SUB PUSH1 0x1F AND DUP3 ADD SWAP2 JUMPDEST POP POP POP POP POP SWAP1 DUP1 PUSH1 0x3 ADD DUP1 SLOAD PUSH2 0x9D9 SWAP1 PUSH2 0x15EE JUMP JUMPDEST DUP1 PUSH1 0x1F ADD PUSH1 0x20 DUP1 SWAP2 DIV MUL PUSH1 0x20 ADD PUSH1 0x40 MLOAD SWAP1 DUP2 ADD PUSH1 0x40 MSTORE DUP1 SWAP3 SWAP2 SWAP1 DUP2 DUP2 MSTORE PUSH1 0x20 ADD DUP3 DUP1 SLOAD PUSH2 0xA05 SWAP1 PUSH2 0x15EE JUMP JUMPDEST DUP1 ISZERO PUSH2 0xA52 JUMPI DUP1 PUSH1 0x1F LT PUSH2 0xA27 JUMPI PUSH2 0x100 DUP1 DUP4 SLOAD DIV MUL DUP4 MSTORE SWAP2 PUSH1 0x20 ADD SWAP2 PUSH2 0xA52 JUMP JUMPDEST DUP3 ADD SWAP2 SWAP1 PUSH1 0x0 MSTORE PUSH1 0x20 PUSH1 0x0 KECCAK256 SWAP1 JUMPDEST DUP2 SLOAD DUP2 MSTORE SWAP1 PUSH1 0x1 ADD SWAP1 PUSH1 0x20 ADD DUP1 DUP4 GT PUSH2 0xA35 JUMPI DUP3 SWAP1 SUB PUSH1 0x1F AND DUP3 ADD SWAP2 JUMPDEST POP POP POP POP POP SWAP1 DUP1 PUSH1 0x4 ADD SLOAD SWAP1 DUP1 PUSH1 0x5 ADD SLOAD SWAP1 DUP1 PUSH1 0x6 ADD SLOAD SWAP1 DUP1 PUSH1 0x7 ADD PUSH1 0x0 SWAP1 SLOAD SWAP1 PUSH2 0x100 EXP SWAP1 DIV PUSH4 0xFFFFFFFF AND SWAP1 POP DUP9 JUMP JUMPDEST PUSH1 0x0 JUMPDEST PUSH1 0x4 DUP1 SLOAD SWAP1 POP DUP2 LT ISZERO PUSH2 0xB90 JUMPI DUP2 PUSH20 0xFFFFFFFFFFFFFFFFFFFFFFFFFFFFFFFFFFFFFFFF AND PUSH1 0x5 PUSH1 0x0 DUP4 DUP2 MSTORE PUSH1 0x20 ADD SWAP1 DUP2 MSTORE PUSH1 0x20 ADD PUSH1 0x0 KECCAK256 PUSH1 0x0 SWAP1 SLOAD SWAP1 PUSH2 0x100 EXP SWAP1 DIV PUSH20 0xFFFFFFFFFFFFFFFFFFFFFFFFFFFFFFFFFFFFFFFF AND PUSH20 0xFFFFFFFFFFFFFFFFFFFFFFFFFFFFFFFFFFFFFFFF AND EQ ISZERO PUSH2 0xB7D JUMPI PUSH32 0x96408510F58A52B0CFE536E046B25664FA36D8122620EC608C1767B45AA4F03C PUSH1 0x4 DUP3 DUP2 SLOAD DUP2 LT PUSH2 0xB30 JUMPI PUSH2 0xB2F PUSH2 0x1762 JUMP JUMPDEST JUMPDEST SWAP1 PUSH1 0x0 MSTORE PUSH1 0x20 PUSH1 0x0 KECCAK256 SWAP1 PUSH1 0x8 MUL ADD PUSH1 0x2 ADD PUSH1 0x4 DUP4 DUP2 SLOAD DUP2 LT PUSH2 0xB55 JUMPI PUSH2 0xB54 PUSH2 0x1762 JUMP JUMPDEST JUMPDEST SWAP1 PUSH1 0x0 MSTORE PUSH1 0x20 PUSH1 0x0 KECCAK256 SWAP1 PUSH1 0x8 MUL ADD PUSH1 0x1 ADD PUSH1 0x40 MLOAD PUSH2 0xB74 SWAP3 SWAP2 SWAP1 PUSH2 0x12E7 JUMP JUMPDEST PUSH1 0x40 MLOAD DUP1 SWAP2 SUB SWAP1 LOG1 JUMPDEST DUP1 DUP1 PUSH2 0xB88 SWAP1 PUSH2 0x1651 JUMP JUMPDEST SWAP2 POP POP PUSH2 0xA87 JUMP JUMPDEST POP POP JUMP JUMPDEST PUSH2 0xB9C PUSH2 0xD24 JUMP JUMPDEST PUSH20 0xFFFFFFFFFFFFFFFFFFFFFFFFFFFFFFFFFFFFFFFF AND PUSH2 0xBBA PUSH2 0x83B JUMP JUMPDEST PUSH20 0xFFFFFFFFFFFFFFFFFFFFFFFFFFFFFFFFFFFFFFFF AND EQ PUSH2 0xC10 JUMPI PUSH1 0x40 MLOAD PUSH32 0x8C379A000000000000000000000000000000000000000000000000000000000 DUP2 MSTORE PUSH1 0x4 ADD PUSH2 0xC07 SWAP1 PUSH2 0x138C JUMP JUMPDEST PUSH1 0x40 MLOAD DUP1 SWAP2 SUB SWAP1 REVERT JUMPDEST PUSH1 0x0 PUSH20 0xFFFFFFFFFFFFFFFFFFFFFFFFFFFFFFFFFFFFFFFF AND DUP2 PUSH20 0xFFFFFFFFFFFFFFFFFFFFFFFFFFFFFFFFFFFFFFFF AND EQ ISZERO PUSH2 0xC80 JUMPI PUSH1 0x40 MLOAD PUSH32 0x8C379A000000000000000000000000000000000000000000000000000000000 DUP2 MSTORE PUSH1 0x4 ADD PUSH2 0xC77 SWAP1 PUSH2 0x133E JUMP JUMPDEST PUSH1 0x40 MLOAD DUP1 SWAP2 SUB SWAP1 REVERT JUMPDEST PUSH2 0xC89 DUP2 PUSH2 0xD2C JUMP JUMPDEST POP JUMP JUMPDEST CALLER PUSH20 0xFFFFFFFFFFFFFFFFFFFFFFFFFFFFFFFFFFFFFFFF AND PUSH2 0x8FC PUSH1 0x2 SELFBALANCE PUSH2 0xCB3 SWAP2 SWAP1 PUSH2 0x14D2 JUMP JUMPDEST SWAP1 DUP2 ISZERO MUL SWAP1 PUSH1 0x40 MLOAD PUSH1 0x0 PUSH1 0x40 MLOAD DUP1 DUP4 SUB DUP2 DUP6 DUP9 DUP9 CALL SWAP4 POP POP POP POP ISZERO DUP1 ISZERO PUSH2 0xCDE JUMPI RETURNDATASIZE PUSH1 0x0 DUP1 RETURNDATACOPY RETURNDATASIZE PUSH1 0x0 REVERT JUMPDEST POP PUSH32 0xA28482EEC3136A2461C6C30C08F71BA279C6C51A2D9C7BEA4E50D6D2632F3896 PUSH1 0x2 SELFBALANCE PUSH2 0xD0D SWAP2 SWAP1 PUSH2 0x14D2 JUMP JUMPDEST PUSH1 0x40 MLOAD PUSH2 0xD1A SWAP2 SWAP1 PUSH2 0x135E JUMP JUMPDEST PUSH1 0x40 MLOAD DUP1 SWAP2 SUB SWAP1 LOG1 JUMP JUMPDEST PUSH1 0x0 CALLER SWAP1 POP SWAP1 JUMP JUMPDEST PUSH1 0x0 DUP1 PUSH1 0x0 SWAP1 SLOAD SWAP1 PUSH2 0x100 EXP SWAP1 DIV PUSH20 0xFFFFFFFFFFFFFFFFFFFFFFFFFFFFFFFFFFFFFFFF AND SWAP1 POP DUP2 PUSH1 0x0 DUP1 PUSH2 0x100 EXP DUP2 SLOAD DUP2 PUSH20 0xFFFFFFFFFFFFFFFFFFFFFFFFFFFFFFFFFFFFFFFF MUL NOT AND SWAP1 DUP4 PUSH20 0xFFFFFFFFFFFFFFFFFFFFFFFFFFFFFFFFFFFFFFFF AND MUL OR SWAP1 SSTORE POP DUP2 PUSH20 0xFFFFFFFFFFFFFFFFFFFFFFFFFFFFFFFFFFFFFFFF AND DUP2 PUSH20 0xFFFFFFFFFFFFFFFFFFFFFFFFFFFFFFFFFFFFFFFF AND PUSH32 0x8BE0079C531659141344CD1FD0A4F28419497F9722A3DAAFE3B4186F6B6457E0 PUSH1 0x40 MLOAD PUSH1 0x40 MLOAD DUP1 SWAP2 SUB SWAP1 LOG3 POP POP JUMP JUMPDEST DUP3 DUP1 SLOAD PUSH2 0xDFC SWAP1 PUSH2 0x15EE JUMP JUMPDEST SWAP1 PUSH1 0x0 MSTORE PUSH1 0x20 PUSH1 0x0 KECCAK256 SWAP1 PUSH1 0x1F ADD PUSH1 0x20 SWAP1 DIV DUP2 ADD SWAP3 DUP3 PUSH2 0xE1E JUMPI PUSH1 0x0 DUP6 SSTORE PUSH2 0xE65 JUMP JUMPDEST DUP3 PUSH1 0x1F LT PUSH2 0xE37 JUMPI DUP1 MLOAD PUSH1 0xFF NOT AND DUP4 DUP1 ADD OR DUP6 SSTORE PUSH2 0xE65 JUMP JUMPDEST DUP3 DUP1 ADD PUSH1 0x1 ADD DUP6 SSTORE DUP3 ISZERO PUSH2 0xE65 JUMPI SWAP2 DUP3 ADD JUMPDEST DUP3 DUP2 GT ISZERO PUSH2 0xE64 JUMPI DUP3 MLOAD DUP3 SSTORE SWAP2 PUSH1 0x20 ADD SWAP2 SWAP1 PUSH1 0x1 ADD SWAP1 PUSH2 0xE49 JUMP JUMPDEST JUMPDEST POP SWAP1 POP PUSH2 0xE72 SWAP2 SWAP1 PUSH2 0xE76 JUMP JUMPDEST POP SWAP1 JUMP JUMPDEST JUMPDEST DUP1 DUP3 GT ISZERO PUSH2 0xE8F JUMPI PUSH1 0x0 DUP2 PUSH1 0x0 SWAP1 SSTORE POP PUSH1 0x1 ADD PUSH2 0xE77 JUMP JUMPDEST POP SWAP1 JUMP JUMPDEST PUSH1 0x0 PUSH2 0xEA6 PUSH2 0xEA1 DUP5 PUSH2 0x141A JUMP JUMPDEST PUSH2 0x13F5 JUMP JUMPDEST SWAP1 POP DUP3 DUP2 MSTORE PUSH1 0x20 DUP2 ADD DUP5 DUP5 DUP5 ADD GT ISZERO PUSH2 0xEC2 JUMPI PUSH2 0xEC1 PUSH2 0x17C5 JUMP JUMPDEST JUMPDEST PUSH2 0xECD DUP5 DUP3 DUP6 PUSH2 0x15AC JUMP JUMPDEST POP SWAP4 SWAP3 POP POP POP JUMP JUMPDEST PUSH1 0x0 DUP2 CALLDATALOAD SWAP1 POP PUSH2 0xEE4 DUP2 PUSH2 0x18FE JUMP JUMPDEST SWAP3 SWAP2 POP POP JUMP JUMPDEST PUSH1 0x0 DUP3 PUSH1 0x1F DUP4 ADD SLT PUSH2 0xEFF JUMPI PUSH2 0xEFE PUSH2 0x17C0 JUMP JUMPDEST JUMPDEST DUP2 CALLDATALOAD PUSH2 0xF0F DUP5 DUP3 PUSH1 0x20 DUP7 ADD PUSH2 0xE93 JUMP JUMPDEST SWAP2 POP POP SWAP3 SWAP2 POP POP JUMP JUMPDEST PUSH1 0x0 DUP2 CALLDATALOAD SWAP1 POP PUSH2 0xF27 DUP2 PUSH2 0x1915 JUMP JUMPDEST SWAP3 SWAP2 POP POP JUMP JUMPDEST PUSH1 0x0 PUSH1 0x20 DUP3 DUP5 SUB SLT ISZERO PUSH2 0xF43 JUMPI PUSH2 0xF42 PUSH2 0x17CF JUMP JUMPDEST JUMPDEST PUSH1 0x0 PUSH2 0xF51 DUP5 DUP3 DUP6 ADD PUSH2 0xED5 JUMP JUMPDEST SWAP2 POP POP SWAP3 SWAP2 POP POP JUMP JUMPDEST PUSH1 0x0 DUP1 PUSH1 0x0 PUSH1 0x60 DUP5 DUP7 SUB SLT ISZERO PUSH2 0xF73 JUMPI PUSH2 0xF72 PUSH2 0x17CF JUMP JUMPDEST JUMPDEST PUSH1 0x0 DUP5 ADD CALLDATALOAD PUSH8 0xFFFFFFFFFFFFFFFF DUP2 GT ISZERO PUSH2 0xF91 JUMPI PUSH2 0xF90 PUSH2 0x17CA JUMP JUMPDEST JUMPDEST PUSH2 0xF9D DUP7 DUP3 DUP8 ADD PUSH2 0xEEA JUMP JUMPDEST SWAP4 POP POP PUSH1 0x20 DUP5 ADD CALLDATALOAD PUSH8 0xFFFFFFFFFFFFFFFF DUP2 GT ISZERO PUSH2 0xFBE JUMPI PUSH2 0xFBD PUSH2 0x17CA JUMP JUMPDEST JUMPDEST PUSH2 0xFCA DUP7 DUP3 DUP8 ADD PUSH2 0xEEA JUMP JUMPDEST SWAP3 POP POP PUSH1 0x40 DUP5 ADD CALLDATALOAD PUSH8 0xFFFFFFFFFFFFFFFF DUP2 GT ISZERO PUSH2 0xFEB JUMPI PUSH2 0xFEA PUSH2 0x17CA JUMP JUMPDEST JUMPDEST PUSH2 0xFF7 DUP7 DUP3 DUP8 ADD PUSH2 0xEEA JUMP JUMPDEST SWAP2 POP POP SWAP3 POP SWAP3 POP SWAP3 JUMP JUMPDEST PUSH1 0x0 PUSH1 0x20 DUP3 DUP5 SUB SLT ISZERO PUSH2 0x1017 JUMPI PUSH2 0x1016 PUSH2 0x17CF JUMP JUMPDEST JUMPDEST PUSH1 0x0 PUSH2 0x1025 DUP5 DUP3 DUP6 ADD PUSH2 0xF18 JUMP JUMPDEST SWAP2 POP POP SWAP3 SWAP2 POP POP JUMP JUMPDEST PUSH2 0x1037 DUP2 PUSH2 0x1560 JUMP JUMPDEST DUP3 MSTORE POP POP JUMP JUMPDEST PUSH1 0x0 PUSH2 0x1048 DUP3 PUSH2 0x1460 JUMP JUMPDEST PUSH2 0x1052 DUP2 DUP6 PUSH2 0x146B JUMP JUMPDEST SWAP4 POP PUSH2 0x1062 DUP2 DUP6 PUSH1 0x20 DUP7 ADD PUSH2 0x15BB JUMP JUMPDEST PUSH2 0x106B DUP2 PUSH2 0x17D4 JUMP JUMPDEST DUP5 ADD SWAP2 POP POP SWAP3 SWAP2 POP POP JUMP JUMPDEST PUSH1 0x0 DUP2 SLOAD PUSH2 0x1083 DUP2 PUSH2 0x15EE JUMP JUMPDEST PUSH2 0x108D DUP2 DUP7 PUSH2 0x146B JUMP JUMPDEST SWAP5 POP PUSH1 0x1 DUP3 AND PUSH1 0x0 DUP2 EQ PUSH2 0x10A8 JUMPI PUSH1 0x1 DUP2 EQ PUSH2 0x10BA JUMPI PUSH2 0x10ED JUMP JUMPDEST PUSH1 0xFF NOT DUP4 AND DUP7 MSTORE PUSH1 0x20 DUP7 ADD SWAP4 POP PUSH2 0x10ED JUMP JUMPDEST PUSH2 0x10C3 DUP6 PUSH2 0x144B JUMP JUMPDEST PUSH1 0x0 JUMPDEST DUP4 DUP2 LT ISZERO PUSH2 0x10E5 JUMPI DUP2 SLOAD DUP2 DUP10 ADD MSTORE PUSH1 0x1 DUP3 ADD SWAP2 POP PUSH1 0x20 DUP2 ADD SWAP1 POP PUSH2 0x10C6 JUMP JUMPDEST DUP1 DUP9 ADD SWAP6 POP POP POP JUMPDEST POP POP POP SWAP3 SWAP2 POP POP JUMP JUMPDEST PUSH1 0x0 PUSH2 0x1103 PUSH1 0x28 DUP4 PUSH2 0x146B JUMP JUMPDEST SWAP2 POP PUSH2 0x110E DUP3 PUSH2 0x17E5 JUMP JUMPDEST PUSH1 0x40 DUP3 ADD SWAP1 POP SWAP2 SWAP1 POP JUMP JUMPDEST PUSH1 0x0 PUSH2 0x1126 PUSH1 0x26 DUP4 PUSH2 0x146B JUMP JUMPDEST SWAP2 POP PUSH2 0x1131 DUP3 PUSH2 0x1834 JUMP JUMPDEST PUSH1 0x40 DUP3 ADD SWAP1 POP SWAP2 SWAP1 POP JUMP JUMPDEST PUSH1 0x0 PUSH2 0x1149 PUSH1 0xC DUP4 PUSH2 0x146B JUMP JUMPDEST SWAP2 POP PUSH2 0x1154 DUP3 PUSH2 0x1883 JUMP JUMPDEST PUSH1 0x20 DUP3 ADD SWAP1 POP SWAP2 SWAP1 POP JUMP JUMPDEST PUSH1 0x0 PUSH2 0x116C PUSH1 0x20 DUP4 PUSH2 0x146B JUMP JUMPDEST SWAP2 POP PUSH2 0x1177 DUP3 PUSH2 0x18AC JUMP JUMPDEST PUSH1 0x20 DUP3 ADD SWAP1 POP SWAP2 SWAP1 POP JUMP JUMPDEST PUSH1 0x0 PUSH2 0x118F PUSH1 0x15 DUP4 PUSH2 0x146B JUMP JUMPDEST SWAP2 POP PUSH2 0x119A DUP3 PUSH2 0x18D5 JUMP JUMPDEST PUSH1 0x20 DUP3 ADD SWAP1 POP SWAP2 SWAP1 POP JUMP JUMPDEST PUSH2 0x11AE DUP2 PUSH2 0x1592 JUMP JUMPDEST DUP3 MSTORE POP POP JUMP JUMPDEST PUSH2 0x11C5 PUSH2 0x11C0 DUP3 PUSH2 0x1592 JUMP JUMPDEST PUSH2 0x169A JUMP JUMPDEST DUP3 MSTORE POP POP JUMP JUMPDEST PUSH2 0x11D4 DUP2 PUSH2 0x159C JUMP JUMPDEST DUP3 MSTORE POP POP JUMP JUMPDEST PUSH1 0x0 PUSH2 0x11E6 DUP3 DUP7 PUSH2 0x11B4 JUMP JUMPDEST PUSH1 0x20 DUP3 ADD SWAP2 POP PUSH2 0x11F6 DUP3 DUP6 PUSH2 0x11B4 JUMP JUMPDEST PUSH1 0x20 DUP3 ADD SWAP2 POP PUSH2 0x1206 DUP3 DUP5 PUSH2 0x11B4 JUMP JUMPDEST PUSH1 0x20 DUP3 ADD SWAP2 POP DUP2 SWAP1 POP SWAP5 SWAP4 POP POP POP POP JUMP JUMPDEST PUSH1 0x0 PUSH1 0x20 DUP3 ADD SWAP1 POP PUSH2 0x122C PUSH1 0x0 DUP4 ADD DUP5 PUSH2 0x102E JUMP JUMPDEST SWAP3 SWAP2 POP POP JUMP JUMPDEST PUSH1 0x0 PUSH2 0x100 DUP3 ADD SWAP1 POP PUSH2 0x1248 PUSH1 0x0 DUP4 ADD DUP12 PUSH2 0x102E JUMP JUMPDEST DUP2 DUP2 SUB PUSH1 0x20 DUP4 ADD MSTORE PUSH2 0x125A DUP2 DUP11 PUSH2 0x103D JUMP JUMPDEST SWAP1 POP DUP2 DUP2 SUB PUSH1 0x40 DUP4 ADD MSTORE PUSH2 0x126E DUP2 DUP10 PUSH2 0x103D JUMP JUMPDEST SWAP1 POP DUP2 DUP2 SUB PUSH1 0x60 DUP4 ADD MSTORE PUSH2 0x1282 DUP2 DUP9 PUSH2 0x103D JUMP JUMPDEST SWAP1 POP PUSH2 0x1291 PUSH1 0x80 DUP4 ADD DUP8 PUSH2 0x11A5 JUMP JUMPDEST PUSH2 0x129E PUSH1 0xA0 DUP4 ADD DUP7 PUSH2 0x11A5 JUMP JUMPDEST PUSH2 0x12AB PUSH1 0xC0 DUP4 ADD DUP6 PUSH2 0x11A5 JUMP JUMPDEST PUSH2 0x12B8 PUSH1 0xE0 DUP4 ADD DUP5 PUSH2 0x11CB JUMP JUMPDEST SWAP10 SWAP9 POP POP POP POP POP POP POP POP POP JUMP JUMPDEST PUSH1 0x0 PUSH1 0x20 DUP3 ADD SWAP1 POP DUP2 DUP2 SUB PUSH1 0x0 DUP4 ADD MSTORE PUSH2 0x12DF DUP2 DUP5 PUSH2 0x103D JUMP JUMPDEST SWAP1 POP SWAP3 SWAP2 POP POP JUMP JUMPDEST PUSH1 0x0 PUSH1 0x40 DUP3 ADD SWAP1 POP DUP2 DUP2 SUB PUSH1 0x0 DUP4 ADD MSTORE PUSH2 0x1301 DUP2 DUP6 PUSH2 0x1076 JUMP JUMPDEST SWAP1 POP DUP2 DUP2 SUB PUSH1 0x20 DUP4 ADD MSTORE PUSH2 0x1315 DUP2 DUP5 PUSH2 0x1076 JUMP JUMPDEST SWAP1 POP SWAP4 SWAP3 POP POP POP JUMP JUMPDEST PUSH1 0x0 PUSH1 0x20 DUP3 ADD SWAP1 POP DUP2 DUP2 SUB PUSH1 0x0 DUP4 ADD MSTORE PUSH2 0x1337 DUP2 PUSH2 0x10F6 JUMP JUMPDEST SWAP1 POP SWAP2 SWAP1 POP JUMP JUMPDEST PUSH1 0x0 PUSH1 0x20 DUP3 ADD SWAP1 POP DUP2 DUP2 SUB PUSH1 0x0 DUP4 ADD MSTORE PUSH2 0x1357 DUP2 PUSH2 0x1119 JUMP JUMPDEST SWAP1 POP SWAP2 SWAP1 POP JUMP JUMPDEST PUSH1 0x0 PUSH1 0x40 DUP3 ADD SWAP1 POP DUP2 DUP2 SUB PUSH1 0x0 DUP4 ADD MSTORE PUSH2 0x1377 DUP2 PUSH2 0x113C JUMP JUMPDEST SWAP1 POP PUSH2 0x1386 PUSH1 0x20 DUP4 ADD DUP5 PUSH2 0x11A5 JUMP JUMPDEST SWAP3 SWAP2 POP POP JUMP JUMPDEST PUSH1 0x0 PUSH1 0x20 DUP3 ADD SWAP1 POP DUP2 DUP2 SUB PUSH1 0x0 DUP4 ADD MSTORE PUSH2 0x13A5 DUP2 PUSH2 0x115F JUMP JUMPDEST SWAP1 POP SWAP2 SWAP1 POP JUMP JUMPDEST PUSH1 0x0 PUSH1 0x40 DUP3 ADD SWAP1 POP DUP2 DUP2 SUB PUSH1 0x0 DUP4 ADD MSTORE PUSH2 0x13C5 DUP2 PUSH2 0x1182 JUMP JUMPDEST SWAP1 POP PUSH2 0x13D4 PUSH1 0x20 DUP4 ADD DUP5 PUSH2 0x11A5 JUMP JUMPDEST SWAP3 SWAP2 POP POP JUMP JUMPDEST PUSH1 0x0 PUSH1 0x20 DUP3 ADD SWAP1 POP PUSH2 0x13EF PUSH1 0x0 DUP4 ADD DUP5 PUSH2 0x11A5 JUMP JUMPDEST SWAP3 SWAP2 POP POP JUMP JUMPDEST PUSH1 0x0 PUSH2 0x13FF PUSH2 0x1410 JUMP JUMPDEST SWAP1 POP PUSH2 0x140B DUP3 DUP3 PUSH2 0x1620 JUMP JUMPDEST SWAP2 SWAP1 POP JUMP JUMPDEST PUSH1 0x0 PUSH1 0x40 MLOAD SWAP1 POP SWAP1 JUMP JUMPDEST PUSH1 0x0 PUSH8 0xFFFFFFFFFFFFFFFF DUP3 GT ISZERO PUSH2 0x1435 JUMPI PUSH2 0x1434 PUSH2 0x1791 JUMP JUMPDEST JUMPDEST PUSH2 0x143E DUP3 PUSH2 0x17D4 JUMP JUMPDEST SWAP1 POP PUSH1 0x20 DUP2 ADD SWAP1 POP SWAP2 SWAP1 POP JUMP JUMPDEST PUSH1 0x0 DUP2 SWAP1 POP DUP2 PUSH1 0x0 MSTORE PUSH1 0x20 PUSH1 0x0 KECCAK256 SWAP1 POP SWAP2 SWAP1 POP JUMP JUMPDEST PUSH1 0x0 DUP2 MLOAD SWAP1 POP SWAP2 SWAP1 POP JUMP JUMPDEST PUSH1 0x0 DUP3 DUP3 MSTORE PUSH1 0x20 DUP3 ADD SWAP1 POP SWAP3 SWAP2 POP POP JUMP JUMPDEST PUSH1 0x0 PUSH2 0x1487 DUP3 PUSH2 0x1592 JUMP JUMPDEST SWAP2 POP PUSH2 0x1492 DUP4 PUSH2 0x1592 JUMP JUMPDEST SWAP3 POP DUP3 PUSH32 0xFFFFFFFFFFFFFFFFFFFFFFFFFFFFFFFFFFFFFFFFFFFFFFFFFFFFFFFFFFFFFFFF SUB DUP3 GT ISZERO PUSH2 0x14C7 JUMPI PUSH2 0x14C6 PUSH2 0x16D5 JUMP JUMPDEST JUMPDEST DUP3 DUP3 ADD SWAP1 POP SWAP3 SWAP2 POP POP JUMP JUMPDEST PUSH1 0x0 PUSH2 0x14DD DUP3 PUSH2 0x1592 JUMP JUMPDEST SWAP2 POP PUSH2 0x14E8 DUP4 PUSH2 0x1592 JUMP JUMPDEST SWAP3 POP DUP2 PUSH32 0xFFFFFFFFFFFFFFFFFFFFFFFFFFFFFFFFFFFFFFFFFFFFFFFFFFFFFFFFFFFFFFFF DIV DUP4 GT DUP3 ISZERO ISZERO AND ISZERO PUSH2 0x1521 JUMPI PUSH2 0x1520 PUSH2 0x16D5 JUMP JUMPDEST JUMPDEST DUP3 DUP3 MUL SWAP1 POP SWAP3 SWAP2 POP POP JUMP JUMPDEST PUSH1 0x0 PUSH2 0x1537 DUP3 PUSH2 0x1592 JUMP JUMPDEST SWAP2 POP PUSH2 0x1542 DUP4 PUSH2 0x1592 JUMP JUMPDEST SWAP3 POP DUP3 DUP3 LT ISZERO PUSH2 0x1555 JUMPI PUSH2 0x1554 PUSH2 0x16D5 JUMP JUMPDEST JUMPDEST DUP3 DUP3 SUB SWAP1 POP SWAP3 SWAP2 POP POP JUMP JUMPDEST PUSH1 0x0 PUSH2 0x156B DUP3 PUSH2 0x1572 JUMP JUMPDEST SWAP1 POP SWAP2 SWAP1 POP JUMP JUMPDEST PUSH1 0x0 PUSH20 0xFFFFFFFFFFFFFFFFFFFFFFFFFFFFFFFFFFFFFFFF DUP3 AND SWAP1 POP SWAP2 SWAP1 POP JUMP JUMPDEST PUSH1 0x0 DUP2 SWAP1 POP SWAP2 SWAP1 POP JUMP JUMPDEST PUSH1 0x0 PUSH4 0xFFFFFFFF DUP3 AND SWAP1 POP SWAP2 SWAP1 POP JUMP JUMPDEST DUP3 DUP2 DUP4 CALLDATACOPY PUSH1 0x0 DUP4 DUP4 ADD MSTORE POP POP POP JUMP JUMPDEST PUSH1 0x0 JUMPDEST DUP4 DUP2 LT ISZERO PUSH2 0x15D9 JUMPI DUP1 DUP3 ADD MLOAD DUP2 DUP5 ADD MSTORE PUSH1 0x20 DUP2 ADD SWAP1 POP PUSH2 0x15BE JUMP JUMPDEST DUP4 DUP2 GT ISZERO PUSH2 0x15E8 JUMPI PUSH1 0x0 DUP5 DUP5 ADD MSTORE JUMPDEST POP POP POP POP JUMP JUMPDEST PUSH1 0x0 PUSH1 0x2 DUP3 DIV SWAP1 POP PUSH1 0x1 DUP3 AND DUP1 PUSH2 0x1606 JUMPI PUSH1 0x7F DUP3 AND SWAP2 POP JUMPDEST PUSH1 0x20 DUP3 LT DUP2 EQ ISZERO PUSH2 0x161A JUMPI PUSH2 0x1619 PUSH2 0x1733 JUMP JUMPDEST JUMPDEST POP SWAP2 SWAP1 POP JUMP JUMPDEST PUSH2 0x1629 DUP3 PUSH2 0x17D4 JUMP JUMPDEST DUP2 ADD DUP2 DUP2 LT PUSH8 0xFFFFFFFFFFFFFFFF DUP3 GT OR ISZERO PUSH2 0x1648 JUMPI PUSH2 0x1647 PUSH2 0x1791 JUMP JUMPDEST JUMPDEST DUP1 PUSH1 0x40 MSTORE POP POP POP JUMP JUMPDEST PUSH1 0x0 PUSH2 0x165C DUP3 PUSH2 0x1592 JUMP JUMPDEST SWAP2 POP PUSH32 0xFFFFFFFFFFFFFFFFFFFFFFFFFFFFFFFFFFFFFFFFFFFFFFFFFFFFFFFFFFFFFFFF DUP3 EQ ISZERO PUSH2 0x168F JUMPI PUSH2 0x168E PUSH2 0x16D5 JUMP JUMPDEST JUMPDEST PUSH1 0x1 DUP3 ADD SWAP1 POP SWAP2 SWAP1 POP JUMP JUMPDEST PUSH1 0x0 DUP2 SWAP1 POP SWAP2 SWAP1 POP JUMP JUMPDEST PUSH1 0x0 PUSH2 0x16AF DUP3 PUSH2 0x1592 JUMP JUMPDEST SWAP2 POP PUSH2 0x16BA DUP4 PUSH2 0x1592 JUMP JUMPDEST SWAP3 POP DUP3 PUSH2 0x16CA JUMPI PUSH2 0x16C9 PUSH2 0x1704 JUMP JUMPDEST JUMPDEST DUP3 DUP3 MOD SWAP1 POP SWAP3 SWAP2 POP POP JUMP JUMPDEST PUSH32 0x4E487B7100000000000000000000000000000000000000000000000000000000 PUSH1 0x0 MSTORE PUSH1 0x11 PUSH1 0x4 MSTORE PUSH1 0x24 PUSH1 0x0 REVERT JUMPDEST PUSH32 0x4E487B7100000000000000000000000000000000000000000000000000000000 PUSH1 0x0 MSTORE PUSH1 0x12 PUSH1 0x4 MSTORE PUSH1 0x24 PUSH1 0x0 REVERT JUMPDEST PUSH32 0x4E487B7100000000000000000000000000000000000000000000000000000000 PUSH1 0x0 MSTORE PUSH1 0x22 PUSH1 0x4 MSTORE PUSH1 0x24 PUSH1 0x0 REVERT JUMPDEST PUSH32 0x4E487B7100000000000000000000000000000000000000000000000000000000 PUSH1 0x0 MSTORE PUSH1 0x32 PUSH1 0x4 MSTORE PUSH1 0x24 PUSH1 0x0 REVERT JUMPDEST PUSH32 0x4E487B7100000000000000000000000000000000000000000000000000000000 PUSH1 0x0 MSTORE PUSH1 0x41 PUSH1 0x4 MSTORE PUSH1 0x24 PUSH1 0x0 REVERT JUMPDEST PUSH1 0x0 DUP1 REVERT JUMPDEST PUSH1 0x0 DUP1 REVERT JUMPDEST PUSH1 0x0 DUP1 REVERT JUMPDEST PUSH1 0x0 DUP1 REVERT JUMPDEST PUSH1 0x0 PUSH1 0x1F NOT PUSH1 0x1F DUP4 ADD AND SWAP1 POP SWAP2 SWAP1 POP JUMP JUMPDEST PUSH32 0x536F6C6F2073652070756564652074656E657220756E20636F63686520706F72 PUSH1 0x0 DUP3 ADD MSTORE PUSH32 0x20706572736F6E61000000000000000000000000000000000000000000000000 PUSH1 0x20 DUP3 ADD MSTORE POP JUMP JUMPDEST PUSH32 0x4F776E61626C653A206E6577206F776E657220697320746865207A65726F2061 PUSH1 0x0 DUP3 ADD MSTORE PUSH32 0x6464726573730000000000000000000000000000000000000000000000000000 PUSH1 0x20 DUP3 ADD MSTORE POP JUMP JUMPDEST PUSH32 0x4861732067616E61646F3A200000000000000000000000000000000000000000 PUSH1 0x0 DUP3 ADD MSTORE POP JUMP JUMPDEST PUSH32 0x4F776E61626C653A2063616C6C6572206973206E6F7420746865206F776E6572 PUSH1 0x0 DUP3 ADD MSTORE POP JUMP JUMPDEST PUSH32 0x456C20636F6368652067616E61646F722065733A200000000000000000000000 PUSH1 0x0 DUP3 ADD MSTORE POP JUMP JUMPDEST PUSH2 0x1907 DUP2 PUSH2 0x1560 JUMP JUMPDEST DUP2 EQ PUSH2 0x1912 JUMPI PUSH1 0x0 DUP1 REVERT JUMPDEST POP JUMP JUMPDEST PUSH2 0x191E DUP2 PUSH2 0x1592 JUMP JUMPDEST DUP2 EQ PUSH2 0x1929 JUMPI PUSH1 0x0 DUP1 REVERT JUMPDEST POP JUMP INVALID LOG2 PUSH5 0x6970667358 0x22 SLT KECCAK256 0xC4 PUSH10 0xD63D1D1A055AB42021E8 PUSH1 0xB6 PUSH11 0xC4E40F7E10918F1461210C 0xBE 0xB1 PUSH16 0x17B29364736F6C634300080700330000 "
				},
				"gasEstimates": {
					"creation": {
						"codeDepositCost": "1299600",
						"executionCost": "infinite",
						"totalCost": "infinite"
					},
					"external": {
						"Apostar(uint256)": "infinite",
						"anadirCoche(string,string,string)": "infinite",
						"cocheDePropietario(uint256)": "2839",
						"listaCoches(uint256)": "infinite",
						"numeroCochesPersona(address)": "2815",
						"owner()": "2544",
						"renounceOwnership()": "30441",
						"transferOwnership(address)": "30811",
						"verCochePropietario(address)": "infinite"
					},
					"internal": {
						"_depositoLleno(struct CarreraCoches.Coche storage pointer)": "infinite",
						"_repostando(struct CarreraCoches.Coche storage pointer)": "infinite",
						"balance()": "infinite"
					}
				},
				"methodIdentifiers": {
					"Apostar(uint256)": "6b6f0494",
					"anadirCoche(string,string,string)": "2458c544",
					"cocheDePropietario(uint256)": "858b0554",
					"listaCoches(uint256)": "d735573d",
					"numeroCochesPersona(address)": "1c6743e4",
					"owner()": "8da5cb5b",
					"renounceOwnership()": "715018a6",
					"transferOwnership(address)": "f2fde38b",
					"verCochePropietario(address)": "e172fca8"
				}
			},
			"storageLayout": {
				"storage": [
					{
						"astId": 7,
						"contract": "contracts/CarreraCoches/principal.sol:CarreraCoches",
						"label": "_owner",
						"offset": 0,
						"slot": "0",
						"type": "t_address"
					},
					{
						"astId": 129,
						"contract": "contracts/CarreraCoches/principal.sol:CarreraCoches",
						"label": "randNonce",
						"offset": 0,
						"slot": "1",
						"type": "t_uint256"
					},
					{
						"astId": 132,
						"contract": "contracts/CarreraCoches/principal.sol:CarreraCoches",
						"label": "contador",
						"offset": 0,
						"slot": "2",
						"type": "t_uint256"
					},
					{
						"astId": 135,
						"contract": "contracts/CarreraCoches/principal.sol:CarreraCoches",
						"label": "cooldown",
						"offset": 0,
						"slot": "3",
						"type": "t_uint256"
					},
					{
						"astId": 139,
						"contract": "contracts/CarreraCoches/principal.sol:CarreraCoches",
						"label": "listaCoches",
						"offset": 0,
						"slot": "4",
						"type": "t_array(t_struct(Coche)126_storage)dyn_storage"
					},
					{
						"astId": 163,
						"contract": "contracts/CarreraCoches/principal.sol:CarreraCoches",
						"label": "cocheDePropietario",
						"offset": 0,
						"slot": "5",
						"type": "t_mapping(t_uint256,t_address)"
					},
					{
						"astId": 167,
						"contract": "contracts/CarreraCoches/principal.sol:CarreraCoches",
						"label": "numeroCochesPersona",
						"offset": 0,
						"slot": "6",
						"type": "t_mapping(t_address,t_uint256)"
					}
				],
				"types": {
					"t_address": {
						"encoding": "inplace",
						"label": "address",
						"numberOfBytes": "20"
					},
					"t_array(t_struct(Coche)126_storage)dyn_storage": {
						"base": "t_struct(Coche)126_storage",
						"encoding": "dynamic_array",
						"label": "struct CarreraCoches.Coche[]",
						"numberOfBytes": "32"
					},
					"t_mapping(t_address,t_uint256)": {
						"encoding": "mapping",
						"key": "t_address",
						"label": "mapping(address => uint256)",
						"numberOfBytes": "32",
						"value": "t_uint256"
					},
					"t_mapping(t_uint256,t_address)": {
						"encoding": "mapping",
						"key": "t_uint256",
						"label": "mapping(uint256 => address)",
						"numberOfBytes": "32",
						"value": "t_address"
					},
					"t_string_storage": {
						"encoding": "bytes",
						"label": "string",
						"numberOfBytes": "32"
					},
					"t_struct(Coche)126_storage": {
						"encoding": "inplace",
						"label": "struct CarreraCoches.Coche",
						"members": [
							{
								"astId": 111,
								"contract": "contracts/CarreraCoches/principal.sol:CarreraCoches",
								"label": "idPiloto",
								"offset": 0,
								"slot": "0",
								"type": "t_address"
							},
							{
								"astId": 113,
								"contract": "contracts/CarreraCoches/principal.sol:CarreraCoches",
								"label": "modelo",
								"offset": 0,
								"slot": "1",
								"type": "t_string_storage"
							},
							{
								"astId": 115,
								"contract": "contracts/CarreraCoches/principal.sol:CarreraCoches",
								"label": "marca",
								"offset": 0,
								"slot": "2",
								"type": "t_string_storage"
							},
							{
								"astId": 117,
								"contract": "contracts/CarreraCoches/principal.sol:CarreraCoches",
								"label": "nombrePiloto",
								"offset": 0,
								"slot": "3",
								"type": "t_string_storage"
							},
							{
								"astId": 119,
								"contract": "contracts/CarreraCoches/principal.sol:CarreraCoches",
								"label": "carrerasGanadas",
								"offset": 0,
								"slot": "4",
								"type": "t_uint256"
							},
							{
								"astId": 121,
								"contract": "contracts/CarreraCoches/principal.sol:CarreraCoches",
								"label": "carrerasTotales",
								"offset": 0,
								"slot": "5",
								"type": "t_uint256"
							},
							{
								"astId": 123,
								"contract": "contracts/CarreraCoches/principal.sol:CarreraCoches",
								"label": "tiempoEspera",
								"offset": 0,
								"slot": "6",
								"type": "t_uint256"
							},
							{
								"astId": 125,
								"contract": "contracts/CarreraCoches/principal.sol:CarreraCoches",
								"label": "nivel",
								"offset": 0,
								"slot": "7",
								"type": "t_uint32"
							}
						],
						"numberOfBytes": "256"
					},
					"t_uint256": {
						"encoding": "inplace",
						"label": "uint256",
						"numberOfBytes": "32"
					},
					"t_uint32": {
						"encoding": "inplace",
						"label": "uint32",
						"numberOfBytes": "4"
					}
				}
			},
			"userdoc": {
				"kind": "user",
				"methods": {},
				"version": 1
			}
		}
	}
}