{
	"contracts/CarreraCoches/cocheToken.sol": {
		"CocheToken": {
			"abi": [
				{
					"anonymous": false,
					"inputs": [
						{
							"indexed": true,
							"internalType": "address",
							"name": "_owner",
							"type": "address"
						},
						{
							"indexed": true,
							"internalType": "address",
							"name": "_approved",
							"type": "address"
						},
						{
							"indexed": true,
							"internalType": "uint256",
							"name": "_tokenId",
							"type": "uint256"
						}
					],
					"name": "Approval",
					"type": "event"
				},
				{
					"anonymous": false,
					"inputs": [
						{
							"indexed": true,
							"internalType": "address",
							"name": "_owner",
							"type": "address"
						},
						{
							"indexed": true,
							"internalType": "address",
							"name": "_operator",
							"type": "address"
						},
						{
							"indexed": false,
							"internalType": "bool",
							"name": "_approved",
							"type": "bool"
						}
					],
					"name": "ApprovalForAll",
					"type": "event"
				},
				{
					"anonymous": false,
					"inputs": [
						{
							"indexed": true,
							"internalType": "address",
							"name": "previousOwner",
							"type": "address"
						},
						{
							"indexed": true,
							"internalType": "address",
							"name": "newOwner",
							"type": "address"
						}
					],
					"name": "OwnershipTransferred",
					"type": "event"
				},
				{
					"anonymous": false,
					"inputs": [
						{
							"indexed": true,
							"internalType": "address",
							"name": "_from",
							"type": "address"
						},
						{
							"indexed": true,
							"internalType": "address",
							"name": "_to",
							"type": "address"
						},
						{
							"indexed": true,
							"internalType": "uint256",
							"name": "_tokenId",
							"type": "uint256"
						}
					],
					"name": "Transfer",
					"type": "event"
				},
				{
					"anonymous": false,
					"inputs": [
						{
							"indexed": false,
							"internalType": "string",
							"name": "mo",
							"type": "string"
						},
						{
							"indexed": false,
							"internalType": "string",
							"name": "ma",
							"type": "string"
						},
						{
							"indexed": false,
							"internalType": "uint32",
							"name": "niv",
							"type": "uint32"
						},
						{
							"indexed": false,
							"internalType": "uint256",
							"name": "carrGan",
							"type": "uint256"
						},
						{
							"indexed": false,
							"internalType": "uint256",
							"name": "carrTot",
							"type": "uint256"
						}
					],
					"name": "cochePropietario",
					"type": "event"
				},
				{
					"anonymous": false,
					"inputs": [
						{
							"indexed": false,
							"internalType": "uint256",
							"name": "compr",
							"type": "uint256"
						}
					],
					"name": "comprobar",
					"type": "event"
				},
				{
					"anonymous": false,
					"inputs": [
						{
							"indexed": false,
							"internalType": "string",
							"name": "ms",
							"type": "string"
						}
					],
					"name": "confirmacionDepositoLleno",
					"type": "event"
				},
				{
					"anonymous": false,
					"inputs": [
						{
							"indexed": false,
							"internalType": "string",
							"name": "ms",
							"type": "string"
						},
						{
							"indexed": false,
							"internalType": "uint256",
							"name": "res",
							"type": "uint256"
						}
					],
					"name": "mostrarResultado",
					"type": "event"
				},
				{
					"inputs": [
						{
							"internalType": "uint256",
							"name": "dineroApostar",
							"type": "uint256"
						}
					],
					"name": "Apostar",
					"outputs": [
						{
							"internalType": "string",
							"name": "",
							"type": "string"
						}
					],
					"stateMutability": "payable",
					"type": "function"
				},
				{
					"inputs": [],
					"name": "_owner",
					"outputs": [
						{
							"internalType": "address",
							"name": "",
							"type": "address"
						}
					],
					"stateMutability": "view",
					"type": "function"
				},
				{
					"inputs": [
						{
							"internalType": "string",
							"name": "_modelo",
							"type": "string"
						},
						{
							"internalType": "string",
							"name": "_marca",
							"type": "string"
						},
						{
							"internalType": "string",
							"name": "_nombrePiloto",
							"type": "string"
						}
					],
					"name": "anadirCoche",
					"outputs": [
						{
							"internalType": "uint256",
							"name": "",
							"type": "uint256"
						}
					],
					"stateMutability": "nonpayable",
					"type": "function"
				},
				{
					"inputs": [
						{
							"internalType": "address",
							"name": "_to",
							"type": "address"
						},
						{
							"internalType": "uint256",
							"name": "_tokenId",
							"type": "uint256"
						}
					],
					"name": "approve",
					"outputs": [],
					"stateMutability": "payable",
					"type": "function"
				},
				{
					"inputs": [
						{
							"internalType": "address",
							"name": "_owner",
							"type": "address"
						}
					],
					"name": "balanceOf",
					"outputs": [
						{
							"internalType": "uint256",
							"name": "_balance",
							"type": "uint256"
						}
					],
					"stateMutability": "view",
					"type": "function"
				},
				{
					"inputs": [
						{
							"internalType": "uint256",
							"name": "",
							"type": "uint256"
						}
					],
					"name": "cocheDePropietario",
					"outputs": [
						{
							"internalType": "address",
							"name": "",
							"type": "address"
						}
					],
					"stateMutability": "view",
					"type": "function"
				},
				{
					"inputs": [
						{
							"internalType": "address",
							"name": "_address",
							"type": "address"
						},
						{
							"internalType": "string",
							"name": "_newModelo",
							"type": "string"
						},
						{
							"internalType": "string",
							"name": "_newMarca",
							"type": "string"
						}
					],
					"name": "comprarCoche",
					"outputs": [
						{
							"internalType": "string",
							"name": "",
							"type": "string"
						}
					],
					"stateMutability": "payable",
					"type": "function"
				},
				{
					"inputs": [
						{
							"internalType": "uint256",
							"name": "_tokenId",
							"type": "uint256"
						}
					],
					"name": "getApproved",
					"outputs": [
						{
							"internalType": "address",
							"name": "",
							"type": "address"
						}
					],
					"stateMutability": "view",
					"type": "function"
				},
				{
					"inputs": [
						{
							"internalType": "address",
							"name": "_owner",
							"type": "address"
						},
						{
							"internalType": "address",
							"name": "_operator",
							"type": "address"
						}
					],
					"name": "isApprovedForAll",
					"outputs": [
						{
							"internalType": "bool",
							"name": "",
							"type": "bool"
						}
					],
					"stateMutability": "view",
					"type": "function"
				},
				{
					"inputs": [
						{
							"internalType": "uint256",
							"name": "",
							"type": "uint256"
						}
					],
					"name": "listaCoches",
					"outputs": [
						{
							"internalType": "address",
							"name": "idPiloto",
							"type": "address"
						},
						{
							"internalType": "string",
							"name": "modelo",
							"type": "string"
						},
						{
							"internalType": "string",
							"name": "marca",
							"type": "string"
						},
						{
							"internalType": "string",
							"name": "nombrePiloto",
							"type": "string"
						},
						{
							"internalType": "uint256",
							"name": "carrerasGanadas",
							"type": "uint256"
						},
						{
							"internalType": "uint256",
							"name": "carrerasTotales",
							"type": "uint256"
						},
						{
							"internalType": "uint256",
							"name": "tiempoEspera",
							"type": "uint256"
						},
						{
							"internalType": "uint32",
							"name": "nivel",
							"type": "uint32"
						}
					],
					"stateMutability": "view",
					"type": "function"
				},
				{
					"inputs": [
						{
							"internalType": "address",
							"name": "",
							"type": "address"
						}
					],
					"name": "numeroCochesPersona",
					"outputs": [
						{
							"internalType": "uint256",
							"name": "",
							"type": "uint256"
						}
					],
					"stateMutability": "view",
					"type": "function"
				},
				{
					"inputs": [],
					"name": "owner",
					"outputs": [
						{
							"internalType": "address",
							"name": "",
							"type": "address"
						}
					],
					"stateMutability": "view",
					"type": "function"
				},
				{
					"inputs": [
						{
							"internalType": "uint256",
							"name": "_tokenId",
							"type": "uint256"
						}
					],
					"name": "ownerOf",
					"outputs": [
						{
							"internalType": "address",
							"name": "_owner",
							"type": "address"
						}
					],
					"stateMutability": "view",
					"type": "function"
				},
				{
					"inputs": [],
					"name": "renounceOwnership",
					"outputs": [],
					"stateMutability": "nonpayable",
					"type": "function"
				},
				{
					"inputs": [
						{
							"internalType": "address",
							"name": "_from",
							"type": "address"
						},
						{
							"internalType": "address",
							"name": "_to",
							"type": "address"
						},
						{
							"internalType": "uint256",
							"name": "_tokenId",
							"type": "uint256"
						}
					],
					"name": "safeTransferFrom",
					"outputs": [],
					"stateMutability": "payable",
					"type": "function"
				},
				{
					"inputs": [
						{
							"internalType": "address",
							"name": "_from",
							"type": "address"
						},
						{
							"internalType": "address",
							"name": "_to",
							"type": "address"
						},
						{
							"internalType": "uint256",
							"name": "_tokenId",
							"type": "uint256"
						},
						{
							"internalType": "bytes",
							"name": "data",
							"type": "bytes"
						}
					],
					"name": "safeTransferFrom",
					"outputs": [],
					"stateMutability": "payable",
					"type": "function"
				},
				{
					"inputs": [
						{
							"internalType": "address",
							"name": "_operator",
							"type": "address"
						},
						{
							"internalType": "bool",
							"name": "_approved",
							"type": "bool"
						}
					],
					"name": "setApprovalForAll",
					"outputs": [],
					"stateMutability": "nonpayable",
					"type": "function"
				},
				{
					"inputs": [
						{
							"internalType": "address",
							"name": "_propietario",
							"type": "address"
						}
					],
					"name": "subirDeNivel",
					"outputs": [
						{
							"internalType": "string",
							"name": "",
							"type": "string"
						}
					],
					"stateMutability": "payable",
					"type": "function"
				},
				{
					"inputs": [
						{
							"internalType": "uint256",
							"name": "_tokenId",
							"type": "uint256"
						}
					],
					"name": "takeOwnership",
					"outputs": [],
					"stateMutability": "nonpayable",
					"type": "function"
				},
				{
					"inputs": [
						{
							"internalType": "address",
							"name": "_from",
							"type": "address"
						},
						{
							"internalType": "address",
							"name": "_to",
							"type": "address"
						},
						{
							"internalType": "uint256",
							"name": "_tokenId",
							"type": "uint256"
						}
					],
					"name": "transferFrom",
					"outputs": [],
					"stateMutability": "payable",
					"type": "function"
				},
				{
					"inputs": [
						{
							"internalType": "address",
							"name": "newOwner",
							"type": "address"
						}
					],
					"name": "transferOwnership",
					"outputs": [],
					"stateMutability": "nonpayable",
					"type": "function"
				},
				{
					"inputs": [
						{
							"internalType": "address",
							"name": "_propietario",
							"type": "address"
						}
					],
					"name": "verCochePropietario",
					"outputs": [],
					"stateMutability": "nonpayable",
					"type": "function"
				}
			],
			"devdoc": {
				"kind": "dev",
				"methods": {
					"owner()": {
						"details": "Returns the address of the current owner."
					},
					"renounceOwnership()": {
						"details": "Leaves the contract without owner. It will not be possible to call `onlyOwner` functions anymore. Can only be called by the current owner. NOTE: Renouncing ownership will leave the contract without an owner, thereby removing any functionality that is only available to the owner."
					},
					"transferOwnership(address)": {
						"details": "Transfers ownership of the contract to a new account (`newOwner`). Can only be called by the current owner."
					}
				},
				"version": 1
			},
			"evm": {
				"assembly": "    /* \"contracts/CarreraCoches/cocheToken.sol\":80:2513  contract CocheToken is CarreraCoches, ERC721 {\r... */\n  mstore(0x40, 0x80)\n    /* \"contracts/CarreraCoches/principal.sol\":370:371  0 */\n  0x00\n    /* \"contracts/CarreraCoches/principal.sol\":353:371  uint randNonce = 0 */\n  0x01\n  sstore\n    /* \"contracts/CarreraCoches/principal.sol\":494:495  0 */\n  0x00\n    /* \"contracts/CarreraCoches/principal.sol\":478:495  uint contador = 0 */\n  0x02\n  sstore\n    /* \"contracts/CarreraCoches/principal.sol\":518:528  60 seconds */\n  0x3c\n    /* \"contracts/CarreraCoches/principal.sol\":502:528  uint cooldown = 60 seconds */\n  0x03\n  sstore\n    /* \"contracts/CarreraCoches/principal.sol\":553:560  1 ether */\n  0x0de0b6b3a7640000\n    /* \"contracts/CarreraCoches/principal.sol\":535:560  uint subirNivel = 1 ether */\n  0x04\n  sstore\n    /* \"contracts/CarreraCoches/principal.sol\":588:595  1 ether */\n  0x0de0b6b3a7640000\n    /* \"contracts/CarreraCoches/principal.sol\":567:595  uint cambiarCocheV = 1 ether */\n  0x05\n  sstore\n    /* \"contracts/CarreraCoches/cocheToken.sol\":80:2513  contract CocheToken is CarreraCoches, ERC721 {\r... */\n  callvalue\n  dup1\n  iszero\n  tag_1\n  jumpi\n  0x00\n  dup1\n  revert\ntag_1:\n  pop\n    /* \"contracts/CarreraCoches/ownable.sol\":947:979  _transferOwnership(_msgSender()) */\n  tag_4\n    /* \"contracts/CarreraCoches/ownable.sol\":966:978  _msgSender() */\n  tag_5\n    /* \"contracts/CarreraCoches/ownable.sol\":966:976  _msgSender */\n  shl(0x20, tag_6)\n    /* \"contracts/CarreraCoches/ownable.sol\":966:978  _msgSender() */\n  0x20\n  shr\n  jump\t// in\ntag_5:\n    /* \"contracts/CarreraCoches/ownable.sol\":947:965  _transferOwnership */\n  shl(0x20, tag_7)\n    /* \"contracts/CarreraCoches/ownable.sol\":947:979  _transferOwnership(_msgSender()) */\n  0x20\n  shr\n  jump\t// in\ntag_4:\n    /* \"contracts/CarreraCoches/cocheToken.sol\":80:2513  contract CocheToken is CarreraCoches, ERC721 {\r... */\n  jump(tag_8)\n    /* \"contracts/CarreraCoches/utils/Context.sol\":656:754  function _msgSender() internal view virtual returns (address) {\r... */\ntag_6:\n    /* \"contracts/CarreraCoches/utils/Context.sol\":709:716  address */\n  0x00\n    /* \"contracts/CarreraCoches/utils/Context.sol\":736:746  msg.sender */\n  caller\n    /* \"contracts/CarreraCoches/utils/Context.sol\":729:746  return msg.sender */\n  swap1\n  pop\n    /* \"contracts/CarreraCoches/utils/Context.sol\":656:754  function _msgSender() internal view virtual returns (address) {\r... */\n  swap1\n  jump\t// out\n    /* \"contracts/CarreraCoches/ownable.sol\":2338:2529  function _transferOwnership(address newOwner) internal virtual {\r... */\ntag_7:\n    /* \"contracts/CarreraCoches/ownable.sol\":2412:2428  address oldOwner */\n  0x00\n    /* \"contracts/CarreraCoches/ownable.sol\":2431:2437  _owner */\n  dup1\n  0x00\n  swap1\n  sload\n  swap1\n  0x0100\n  exp\n  swap1\n  div\n  0xffffffffffffffffffffffffffffffffffffffff\n  and\n    /* \"contracts/CarreraCoches/ownable.sol\":2412:2437  address oldOwner = _owner */\n  swap1\n  pop\n    /* \"contracts/CarreraCoches/ownable.sol\":2457:2465  newOwner */\n  dup2\n    /* \"contracts/CarreraCoches/ownable.sol\":2448:2454  _owner */\n  0x00\n  dup1\n    /* \"contracts/CarreraCoches/ownable.sol\":2448:2465  _owner = newOwner */\n  0x0100\n  exp\n  dup2\n  sload\n  dup2\n  0xffffffffffffffffffffffffffffffffffffffff\n  mul\n  not\n  and\n  swap1\n  dup4\n  0xffffffffffffffffffffffffffffffffffffffff\n  and\n  mul\n  or\n  swap1\n  sstore\n  pop\n    /* \"contracts/CarreraCoches/ownable.sol\":2512:2520  newOwner */\n  dup2\n    /* \"contracts/CarreraCoches/ownable.sol\":2481:2521  OwnershipTransferred(oldOwner, newOwner) */\n  0xffffffffffffffffffffffffffffffffffffffff\n  and\n    /* \"contracts/CarreraCoches/ownable.sol\":2502:2510  oldOwner */\n  dup2\n    /* \"contracts/CarreraCoches/ownable.sol\":2481:2521  OwnershipTransferred(oldOwner, newOwner) */\n  0xffffffffffffffffffffffffffffffffffffffff\n  and\n  0x8be0079c531659141344cd1fd0a4f28419497f9722a3daafe3b4186f6b6457e0\n  mload(0x40)\n  mload(0x40)\n  dup1\n  swap2\n  sub\n  swap1\n  log3\n    /* \"contracts/CarreraCoches/ownable.sol\":2401:2529  {\r... */\n  pop\n    /* \"contracts/CarreraCoches/ownable.sol\":2338:2529  function _transferOwnership(address newOwner) internal virtual {\r... */\n  pop\n  jump\t// out\n    /* \"contracts/CarreraCoches/cocheToken.sol\":80:2513  contract CocheToken is CarreraCoches, ERC721 {\r... */\ntag_8:\n  dataSize(sub_0)\n  dup1\n  dataOffset(sub_0)\n  0x00\n  codecopy\n  0x00\n  return\nstop\n\nsub_0: assembly {\n        /* \"contracts/CarreraCoches/cocheToken.sol\":80:2513  contract CocheToken is CarreraCoches, ERC721 {\r... */\n      mstore(0x40, 0x80)\n      jumpi(tag_1, lt(calldatasize, 0x04))\n      shr(0xe0, calldataload(0x00))\n      dup1\n      0x715018a6\n      gt\n      tag_24\n      jumpi\n      dup1\n      0xb2e6ceeb\n      gt\n      tag_25\n      jumpi\n      dup1\n      0xb2e6ceeb\n      eq\n      tag_18\n      jumpi\n      dup1\n      0xb88d4fde\n      eq\n      tag_19\n      jumpi\n      dup1\n      0xd735573d\n      eq\n      tag_20\n      jumpi\n      dup1\n      0xe172fca8\n      eq\n      tag_21\n      jumpi\n      dup1\n      0xe985e9c5\n      eq\n      tag_22\n      jumpi\n      dup1\n      0xf2fde38b\n      eq\n      tag_23\n      jumpi\n      jump(tag_1)\n    tag_25:\n      dup1\n      0x715018a6\n      eq\n      tag_13\n      jumpi\n      dup1\n      0x858b0554\n      eq\n      tag_14\n      jumpi\n      dup1\n      0x8da5cb5b\n      eq\n      tag_15\n      jumpi\n      dup1\n      0xa22cb465\n      eq\n      tag_16\n      jumpi\n      dup1\n      0xb2bdfa7b\n      eq\n      tag_17\n      jumpi\n      jump(tag_1)\n    tag_24:\n      dup1\n      0x2458c544\n      gt\n      tag_26\n      jumpi\n      dup1\n      0x2458c544\n      eq\n      tag_7\n      jumpi\n      dup1\n      0x42842e0e\n      eq\n      tag_8\n      jumpi\n      dup1\n      0x6352211e\n      eq\n      tag_9\n      jumpi\n      dup1\n      0x6a7d1816\n      eq\n      tag_10\n      jumpi\n      dup1\n      0x6b6f0494\n      eq\n      tag_11\n      jumpi\n      dup1\n      0x70a08231\n      eq\n      tag_12\n      jumpi\n      jump(tag_1)\n    tag_26:\n      dup1\n      0x049a5f65\n      eq\n      tag_2\n      jumpi\n      dup1\n      0x081812fc\n      eq\n      tag_3\n      jumpi\n      dup1\n      0x095ea7b3\n      eq\n      tag_4\n      jumpi\n      dup1\n      0x1c6743e4\n      eq\n      tag_5\n      jumpi\n      dup1\n      0x23b872dd\n      eq\n      tag_6\n      jumpi\n    tag_1:\n      0x00\n      dup1\n      revert\n        /* \"contracts/CarreraCoches/principal.sol\":3369:3831  function comprarCoche(address _address, string memory _newModelo, string memory _newMarca) external payable returns(string memory) {\r... */\n    tag_2:\n      tag_27\n      0x04\n      dup1\n      calldatasize\n      sub\n      dup2\n      add\n      swap1\n      tag_28\n      swap2\n      swap1\n      tag_29\n      jump\t// in\n    tag_28:\n      tag_30\n      jump\t// in\n    tag_27:\n      mload(0x40)\n      tag_31\n      swap2\n      swap1\n      tag_32\n      jump\t// in\n    tag_31:\n      mload(0x40)\n      dup1\n      swap2\n      sub\n      swap1\n      return\n        /* \"contracts/CarreraCoches/cocheToken.sol\":2048:2137  function getApproved(uint256 _tokenId) external override view returns (address){\r... */\n    tag_3:\n      callvalue\n      dup1\n      iszero\n      tag_33\n      jumpi\n      0x00\n      dup1\n      revert\n    tag_33:\n      pop\n      tag_34\n      0x04\n      dup1\n      calldatasize\n      sub\n      dup2\n      add\n      swap1\n      tag_35\n      swap2\n      swap1\n      tag_36\n      jump\t// in\n    tag_35:\n      tag_37\n      jump\t// in\n    tag_34:\n      mload(0x40)\n      tag_38\n      swap2\n      swap1\n      tag_39\n      jump\t// in\n    tag_38:\n      mload(0x40)\n      dup1\n      swap2\n      sub\n      swap1\n      return\n        /* \"contracts/CarreraCoches/cocheToken.sol\":1766:1947  function approve(address _to, uint256 _tokenId) external override payable{\r... */\n    tag_4:\n      tag_40\n      0x04\n      dup1\n      calldatasize\n      sub\n      dup2\n      add\n      swap1\n      tag_41\n      swap2\n      swap1\n      tag_42\n      jump\t// in\n    tag_41:\n      tag_43\n      jump\t// in\n    tag_40:\n      stop\n        /* \"contracts/CarreraCoches/principal.sol\":929:981  mapping (address => uint) public numeroCochesPersona */\n    tag_5:\n      callvalue\n      dup1\n      iszero\n      tag_44\n      jumpi\n      0x00\n      dup1\n      revert\n    tag_44:\n      pop\n      tag_45\n      0x04\n      dup1\n      calldatasize\n      sub\n      dup2\n      add\n      swap1\n      tag_46\n      swap2\n      swap1\n      tag_47\n      jump\t// in\n    tag_46:\n      tag_48\n      jump\t// in\n    tag_45:\n      mload(0x40)\n      tag_49\n      swap2\n      swap1\n      tag_50\n      jump\t// in\n    tag_49:\n      mload(0x40)\n      dup1\n      swap2\n      sub\n      swap1\n      return\n        /* \"contracts/CarreraCoches/cocheToken.sol\":1657:1760  function transferFrom(address _from, address _to, uint256 _tokenId) external override payable{\r... */\n    tag_6:\n      tag_51\n      0x04\n      dup1\n      calldatasize\n      sub\n      dup2\n      add\n      swap1\n      tag_52\n      swap2\n      swap1\n      tag_53\n      jump\t// in\n    tag_52:\n      tag_54\n      jump\t// in\n    tag_51:\n      stop\n        /* \"contracts/CarreraCoches/principal.sol\":1777:2217  function anadirCoche(string memory _modelo, string memory _marca, string memory _nombrePiloto) public restriccion returns (uint) {\r... */\n    tag_7:\n      callvalue\n      dup1\n      iszero\n      tag_55\n      jumpi\n      0x00\n      dup1\n      revert\n    tag_55:\n      pop\n      tag_56\n      0x04\n      dup1\n      calldatasize\n      sub\n      dup2\n      add\n      swap1\n      tag_57\n      swap2\n      swap1\n      tag_58\n      jump\t// in\n    tag_57:\n      tag_59\n      jump\t// in\n    tag_56:\n      mload(0x40)\n      tag_60\n      swap2\n      swap1\n      tag_50\n      jump\t// in\n    tag_60:\n      mload(0x40)\n      dup1\n      swap2\n      sub\n      swap1\n      return\n        /* \"contracts/CarreraCoches/cocheToken.sol\":1378:1651  function safeTransferFrom(address _from, address _to, uint256 _tokenId) external override payable{\r... */\n    tag_8:\n      tag_61\n      0x04\n      dup1\n      calldatasize\n      sub\n      dup2\n      add\n      swap1\n      tag_62\n      swap2\n      swap1\n      tag_53\n      jump\t// in\n    tag_62:\n      tag_63\n      jump\t// in\n    tag_61:\n      stop\n        /* \"contracts/CarreraCoches/cocheToken.sol\":1104:1240  function ownerOf(uint256 _tokenId) external override view returns (address _owner){\r... */\n    tag_9:\n      callvalue\n      dup1\n      iszero\n      tag_64\n      jumpi\n      0x00\n      dup1\n      revert\n    tag_64:\n      pop\n      tag_65\n      0x04\n      dup1\n      calldatasize\n      sub\n      dup2\n      add\n      swap1\n      tag_66\n      swap2\n      swap1\n      tag_36\n      jump\t// in\n    tag_66:\n      tag_67\n      jump\t// in\n    tag_65:\n      mload(0x40)\n      tag_68\n      swap2\n      swap1\n      tag_39\n      jump\t// in\n    tag_68:\n      mload(0x40)\n      dup1\n      swap2\n      sub\n      swap1\n      return\n        /* \"contracts/CarreraCoches/principal.sol\":2545:2904  function subirDeNivel(address _propietario) external payable returns(string memory) {\r... */\n    tag_10:\n      tag_69\n      0x04\n      dup1\n      calldatasize\n      sub\n      dup2\n      add\n      swap1\n      tag_70\n      swap2\n      swap1\n      tag_47\n      jump\t// in\n    tag_70:\n      tag_71\n      jump\t// in\n    tag_69:\n      mload(0x40)\n      tag_72\n      swap2\n      swap1\n      tag_32\n      jump\t// in\n    tag_72:\n      mload(0x40)\n      dup1\n      swap2\n      sub\n      swap1\n      return\n        /* \"contracts/CarreraCoches/principal.sol\":4168:7496  function Apostar(uint dineroApostar) public payable returns(string memory) {\r... */\n    tag_11:\n      tag_73\n      0x04\n      dup1\n      calldatasize\n      sub\n      dup2\n      add\n      swap1\n      tag_74\n      swap2\n      swap1\n      tag_36\n      jump\t// in\n    tag_74:\n      tag_75\n      jump\t// in\n    tag_73:\n      mload(0x40)\n      tag_76\n      swap2\n      swap1\n      tag_32\n      jump\t// in\n    tag_76:\n      mload(0x40)\n      dup1\n      swap2\n      sub\n      swap1\n      return\n        /* \"contracts/CarreraCoches/cocheToken.sol\":961:1098  function balanceOf(address _owner) external override view returns (uint256 _balance){\r... */\n    tag_12:\n      callvalue\n      dup1\n      iszero\n      tag_77\n      jumpi\n      0x00\n      dup1\n      revert\n    tag_77:\n      pop\n      tag_78\n      0x04\n      dup1\n      calldatasize\n      sub\n      dup2\n      add\n      swap1\n      tag_79\n      swap2\n      swap1\n      tag_47\n      jump\t// in\n    tag_79:\n      tag_80\n      jump\t// in\n    tag_78:\n      mload(0x40)\n      tag_81\n      swap2\n      swap1\n      tag_50\n      jump\t// in\n    tag_81:\n      mload(0x40)\n      dup1\n      swap2\n      sub\n      swap1\n      return\n        /* \"contracts/CarreraCoches/ownable.sol\":1719:1822  function renounceOwnership() public virtual onlyOwner {\r... */\n    tag_13:\n      callvalue\n      dup1\n      iszero\n      tag_82\n      jumpi\n      0x00\n      dup1\n      revert\n    tag_82:\n      pop\n      tag_83\n      tag_84\n      jump\t// in\n    tag_83:\n      stop\n        /* \"contracts/CarreraCoches/principal.sol\":871:922  mapping (uint => address) public cocheDePropietario */\n    tag_14:\n      callvalue\n      dup1\n      iszero\n      tag_85\n      jumpi\n      0x00\n      dup1\n      revert\n    tag_85:\n      pop\n      tag_86\n      0x04\n      dup1\n      calldatasize\n      sub\n      dup2\n      add\n      swap1\n      tag_87\n      swap2\n      swap1\n      tag_36\n      jump\t// in\n    tag_87:\n      tag_88\n      jump\t// in\n    tag_86:\n      mload(0x40)\n      tag_89\n      swap2\n      swap1\n      tag_39\n      jump\t// in\n    tag_89:\n      mload(0x40)\n      dup1\n      swap2\n      sub\n      swap1\n      return\n        /* \"contracts/CarreraCoches/ownable.sol\":1068:1155  function owner() public view virtual returns (address) {\r... */\n    tag_15:\n      callvalue\n      dup1\n      iszero\n      tag_90\n      jumpi\n      0x00\n      dup1\n      revert\n    tag_90:\n      pop\n      tag_91\n      tag_92\n      jump\t// in\n    tag_91:\n      mload(0x40)\n      tag_93\n      swap2\n      swap1\n      tag_39\n      jump\t// in\n    tag_93:\n      mload(0x40)\n      dup1\n      swap2\n      sub\n      swap1\n      return\n        /* \"contracts/CarreraCoches/cocheToken.sol\":1953:2042  function setApprovalForAll(address _operator, bool _approved) external override{\r... */\n    tag_16:\n      callvalue\n      dup1\n      iszero\n      tag_94\n      jumpi\n      0x00\n      dup1\n      revert\n    tag_94:\n      pop\n      tag_95\n      0x04\n      dup1\n      calldatasize\n      sub\n      dup2\n      add\n      swap1\n      tag_96\n      swap2\n      swap1\n      tag_97\n      jump\t// in\n    tag_96:\n      tag_98\n      jump\t// in\n    tag_95:\n      stop\n        /* \"contracts/CarreraCoches/ownable.sol\":701:722  address public _owner */\n    tag_17:\n      callvalue\n      dup1\n      iszero\n      tag_99\n      jumpi\n      0x00\n      dup1\n      revert\n    tag_99:\n      pop\n      tag_100\n      tag_101\n      jump\t// in\n    tag_100:\n      mload(0x40)\n      tag_102\n      swap2\n      swap1\n      tag_39\n      jump\t// in\n    tag_102:\n      mload(0x40)\n      dup1\n      swap2\n      sub\n      swap1\n      return\n        /* \"contracts/CarreraCoches/cocheToken.sol\":2262:2506  function takeOwnership(uint256 _tokenId) public {\r... */\n    tag_18:\n      callvalue\n      dup1\n      iszero\n      tag_103\n      jumpi\n      0x00\n      dup1\n      revert\n    tag_103:\n      pop\n      tag_104\n      0x04\n      dup1\n      calldatasize\n      sub\n      dup2\n      add\n      swap1\n      tag_105\n      swap2\n      swap1\n      tag_36\n      jump\t// in\n    tag_105:\n      tag_106\n      jump\t// in\n    tag_104:\n      stop\n        /* \"contracts/CarreraCoches/cocheToken.sol\":1246:1372  function safeTransferFrom(address _from, address _to, uint256 _tokenId, bytes memory data) external override payable{\r... */\n    tag_19:\n      tag_107\n      0x04\n      dup1\n      calldatasize\n      sub\n      dup2\n      add\n      swap1\n      tag_108\n      swap2\n      swap1\n      tag_109\n      jump\t// in\n    tag_108:\n      tag_110\n      jump\t// in\n    tag_107:\n      stop\n        /* \"contracts/CarreraCoches/principal.sol\":604:630  Coche[] public listaCoches */\n    tag_20:\n      callvalue\n      dup1\n      iszero\n      tag_111\n      jumpi\n      0x00\n      dup1\n      revert\n    tag_111:\n      pop\n      tag_112\n      0x04\n      dup1\n      calldatasize\n      sub\n      dup2\n      add\n      swap1\n      tag_113\n      swap2\n      swap1\n      tag_36\n      jump\t// in\n    tag_113:\n      tag_114\n      jump\t// in\n    tag_112:\n      mload(0x40)\n      tag_115\n      swap9\n      swap8\n      swap7\n      swap6\n      swap5\n      swap4\n      swap3\n      swap2\n      swap1\n      tag_116\n      jump\t// in\n    tag_115:\n      mload(0x40)\n      dup1\n      swap2\n      sub\n      swap1\n      return\n        /* \"contracts/CarreraCoches/principal.sol\":2912:3288  function verCochePropietario(address _propietario) external {\r... */\n    tag_21:\n      callvalue\n      dup1\n      iszero\n      tag_117\n      jumpi\n      0x00\n      dup1\n      revert\n    tag_117:\n      pop\n      tag_118\n      0x04\n      dup1\n      calldatasize\n      sub\n      dup2\n      add\n      swap1\n      tag_119\n      swap2\n      swap1\n      tag_47\n      jump\t// in\n    tag_119:\n      tag_120\n      jump\t// in\n    tag_118:\n      stop\n        /* \"contracts/CarreraCoches/cocheToken.sol\":2143:2251  function isApprovedForAll(address _owner, address _operator) external override view returns (bool){\r... */\n    tag_22:\n      callvalue\n      dup1\n      iszero\n      tag_121\n      jumpi\n      0x00\n      dup1\n      revert\n    tag_121:\n      pop\n      tag_122\n      0x04\n      dup1\n      calldatasize\n      sub\n      dup2\n      add\n      swap1\n      tag_123\n      swap2\n      swap1\n      tag_124\n      jump\t// in\n    tag_123:\n      tag_125\n      jump\t// in\n    tag_122:\n      mload(0x40)\n      tag_126\n      swap2\n      swap1\n      tag_127\n      jump\t// in\n    tag_126:\n      mload(0x40)\n      dup1\n      swap2\n      sub\n      swap1\n      return\n        /* \"contracts/CarreraCoches/ownable.sol\":1977:2178  function transferOwnership(address newOwner) public virtual onlyOwner {\r... */\n    tag_23:\n      callvalue\n      dup1\n      iszero\n      tag_128\n      jumpi\n      0x00\n      dup1\n      revert\n    tag_128:\n      pop\n      tag_129\n      0x04\n      dup1\n      calldatasize\n      sub\n      dup2\n      add\n      swap1\n      tag_130\n      swap2\n      swap1\n      tag_47\n      jump\t// in\n    tag_130:\n      tag_131\n      jump\t// in\n    tag_129:\n      stop\n        /* \"contracts/CarreraCoches/principal.sol\":3369:3831  function comprarCoche(address _address, string memory _newModelo, string memory _newMarca) external payable returns(string memory) {\r... */\n    tag_30:\n        /* \"contracts/CarreraCoches/principal.sol\":3485:3498  string memory */\n      0x60\n        /* \"contracts/CarreraCoches/principal.sol\":3531:3539  _address */\n      dup4\n        /* \"contracts/CarreraCoches/principal.sol\":3519:3539  msg.sender==_address */\n      0xffffffffffffffffffffffffffffffffffffffff\n      and\n        /* \"contracts/CarreraCoches/principal.sol\":3519:3529  msg.sender */\n      caller\n        /* \"contracts/CarreraCoches/principal.sol\":3519:3539  msg.sender==_address */\n      0xffffffffffffffffffffffffffffffffffffffff\n      and\n      eq\n        /* \"contracts/CarreraCoches/principal.sol\":3511:3540  require(msg.sender==_address) */\n      tag_133\n      jumpi\n      0x00\n      dup1\n      revert\n    tag_133:\n        /* \"contracts/CarreraCoches/principal.sol\":3570:3583  cambiarCocheV */\n      sload(0x05)\n        /* \"contracts/CarreraCoches/principal.sol\":3559:3568  msg.value */\n      callvalue\n        /* \"contracts/CarreraCoches/principal.sol\":3559:3583  msg.value==cambiarCocheV */\n      eq\n        /* \"contracts/CarreraCoches/principal.sol\":3551:3584  require(msg.value==cambiarCocheV) */\n      tag_134\n      jumpi\n      0x00\n      dup1\n      revert\n    tag_134:\n        /* \"contracts/CarreraCoches/principal.sol\":3599:3605  uint i */\n      0x00\n        /* \"contracts/CarreraCoches/principal.sol\":3595:3824  for(uint i = 0; i < listaCoches.length; i++){\r... */\n    tag_135:\n        /* \"contracts/CarreraCoches/principal.sol\":3615:3626  listaCoches */\n      0x06\n        /* \"contracts/CarreraCoches/principal.sol\":3615:3633  listaCoches.length */\n      dup1\n      sload\n      swap1\n      pop\n        /* \"contracts/CarreraCoches/principal.sol\":3611:3612  i */\n      dup2\n        /* \"contracts/CarreraCoches/principal.sol\":3611:3633  i < listaCoches.length */\n      lt\n        /* \"contracts/CarreraCoches/principal.sol\":3595:3824  for(uint i = 0; i < listaCoches.length; i++){\r... */\n      iszero\n      tag_136\n      jumpi\n        /* \"contracts/CarreraCoches/principal.sol\":3682:3692  msg.sender */\n      caller\n        /* \"contracts/CarreraCoches/principal.sol\":3657:3692  listaCoches[i].idPiloto==msg.sender */\n      0xffffffffffffffffffffffffffffffffffffffff\n      and\n        /* \"contracts/CarreraCoches/principal.sol\":3657:3668  listaCoches */\n      0x06\n        /* \"contracts/CarreraCoches/principal.sol\":3669:3670  i */\n      dup3\n        /* \"contracts/CarreraCoches/principal.sol\":3657:3671  listaCoches[i] */\n      dup2\n      sload\n      dup2\n      lt\n      tag_138\n      jumpi\n      tag_139\n      tag_140\n      jump\t// in\n    tag_139:\n    tag_138:\n      swap1\n      0x00\n      mstore\n      keccak256(0x00, 0x20)\n      swap1\n      0x08\n      mul\n      add\n        /* \"contracts/CarreraCoches/principal.sol\":3657:3680  listaCoches[i].idPiloto */\n      0x00\n      add\n      0x00\n      swap1\n      sload\n      swap1\n      0x0100\n      exp\n      swap1\n      div\n      0xffffffffffffffffffffffffffffffffffffffff\n      and\n        /* \"contracts/CarreraCoches/principal.sol\":3657:3692  listaCoches[i].idPiloto==msg.sender */\n      0xffffffffffffffffffffffffffffffffffffffff\n      and\n      eq\n        /* \"contracts/CarreraCoches/principal.sol\":3654:3813  if(listaCoches[i].idPiloto==msg.sender){\r... */\n      iszero\n      tag_142\n      jumpi\n        /* \"contracts/CarreraCoches/principal.sol\":3736:3746  _newModelo */\n      dup4\n        /* \"contracts/CarreraCoches/principal.sol\":3712:3723  listaCoches */\n      0x06\n        /* \"contracts/CarreraCoches/principal.sol\":3724:3725  i */\n      dup3\n        /* \"contracts/CarreraCoches/principal.sol\":3712:3726  listaCoches[i] */\n      dup2\n      sload\n      dup2\n      lt\n      tag_143\n      jumpi\n      tag_144\n      tag_140\n      jump\t// in\n    tag_144:\n    tag_143:\n      swap1\n      0x00\n      mstore\n      keccak256(0x00, 0x20)\n      swap1\n      0x08\n      mul\n      add\n        /* \"contracts/CarreraCoches/principal.sol\":3712:3733  listaCoches[i].modelo */\n      0x01\n      add\n        /* \"contracts/CarreraCoches/principal.sol\":3712:3746  listaCoches[i].modelo = _newModelo */\n      swap1\n      dup1\n      mload\n      swap1\n      0x20\n      add\n      swap1\n      tag_146\n      swap3\n      swap2\n      swap1\n      tag_147\n      jump\t// in\n    tag_146:\n      pop\n        /* \"contracts/CarreraCoches/principal.sol\":3788:3797  _newMarca */\n      dup3\n        /* \"contracts/CarreraCoches/principal.sol\":3765:3776  listaCoches */\n      0x06\n        /* \"contracts/CarreraCoches/principal.sol\":3777:3778  i */\n      dup3\n        /* \"contracts/CarreraCoches/principal.sol\":3765:3779  listaCoches[i] */\n      dup2\n      sload\n      dup2\n      lt\n      tag_148\n      jumpi\n      tag_149\n      tag_140\n      jump\t// in\n    tag_149:\n    tag_148:\n      swap1\n      0x00\n      mstore\n      keccak256(0x00, 0x20)\n      swap1\n      0x08\n      mul\n      add\n        /* \"contracts/CarreraCoches/principal.sol\":3765:3785  listaCoches[i].marca */\n      0x02\n      add\n        /* \"contracts/CarreraCoches/principal.sol\":3765:3797  listaCoches[i].marca = _newMarca */\n      swap1\n      dup1\n      mload\n      swap1\n      0x20\n      add\n      swap1\n      tag_151\n      swap3\n      swap2\n      swap1\n      tag_147\n      jump\t// in\n    tag_151:\n      pop\n        /* \"contracts/CarreraCoches/principal.sol\":3654:3813  if(listaCoches[i].idPiloto==msg.sender){\r... */\n    tag_142:\n        /* \"contracts/CarreraCoches/principal.sol\":3635:3638  i++ */\n      dup1\n      dup1\n      tag_152\n      swap1\n      tag_153\n      jump\t// in\n    tag_152:\n      swap2\n      pop\n      pop\n        /* \"contracts/CarreraCoches/principal.sol\":3595:3824  for(uint i = 0; i < listaCoches.length; i++){\r... */\n      jump(tag_135)\n    tag_136:\n      pop\n        /* \"contracts/CarreraCoches/principal.sol\":3369:3831  function comprarCoche(address _address, string memory _newModelo, string memory _newMarca) external payable returns(string memory) {\r... */\n      swap4\n      swap3\n      pop\n      pop\n      pop\n      jump\t// out\n        /* \"contracts/CarreraCoches/cocheToken.sol\":2048:2137  function getApproved(uint256 _tokenId) external override view returns (address){\r... */\n    tag_37:\n        /* \"contracts/CarreraCoches/cocheToken.sol\":2119:2126  address */\n      0x00\n        /* \"contracts/CarreraCoches/cocheToken.sol\":2048:2137  function getApproved(uint256 _tokenId) external override view returns (address){\r... */\n      swap2\n      swap1\n      pop\n      jump\t// out\n        /* \"contracts/CarreraCoches/cocheToken.sol\":1766:1947  function approve(address _to, uint256 _tokenId) external override payable{\r... */\n    tag_43:\n        /* \"contracts/CarreraCoches/cocheToken.sol\":1885:1888  _to */\n      dup2\n        /* \"contracts/CarreraCoches/cocheToken.sol\":1850:1872  confirmarTransferencia */\n      0x09\n        /* \"contracts/CarreraCoches/cocheToken.sol\":1850:1882  confirmarTransferencia[_tokenId] */\n      0x00\n        /* \"contracts/CarreraCoches/cocheToken.sol\":1873:1881  _tokenId */\n      dup4\n        /* \"contracts/CarreraCoches/cocheToken.sol\":1850:1882  confirmarTransferencia[_tokenId] */\n      dup2\n      mstore\n      0x20\n      add\n      swap1\n      dup2\n      mstore\n      0x20\n      add\n      0x00\n      keccak256\n      0x00\n        /* \"contracts/CarreraCoches/cocheToken.sol\":1850:1888  confirmarTransferencia[_tokenId] = _to */\n      0x0100\n      exp\n      dup2\n      sload\n      dup2\n      0xffffffffffffffffffffffffffffffffffffffff\n      mul\n      not\n      and\n      swap1\n      dup4\n      0xffffffffffffffffffffffffffffffffffffffff\n      and\n      mul\n      or\n      swap1\n      sstore\n      pop\n        /* \"contracts/CarreraCoches/cocheToken.sol\":1930:1938  _tokenId */\n      dup1\n        /* \"contracts/CarreraCoches/cocheToken.sol\":1925:1928  _to */\n      dup3\n        /* \"contracts/CarreraCoches/cocheToken.sol\":1904:1939  Approval(msg.sender, _to, _tokenId) */\n      0xffffffffffffffffffffffffffffffffffffffff\n      and\n        /* \"contracts/CarreraCoches/cocheToken.sol\":1913:1923  msg.sender */\n      caller\n        /* \"contracts/CarreraCoches/cocheToken.sol\":1904:1939  Approval(msg.sender, _to, _tokenId) */\n      0xffffffffffffffffffffffffffffffffffffffff\n      and\n      0x8c5be1e5ebec7d5bd14f71427d1e84f3dd0314c0f7b2291e5b200ac8c7c3b925\n      mload(0x40)\n      mload(0x40)\n      dup1\n      swap2\n      sub\n      swap1\n      log4\n        /* \"contracts/CarreraCoches/cocheToken.sol\":1766:1947  function approve(address _to, uint256 _tokenId) external override payable{\r... */\n      pop\n      pop\n      jump\t// out\n        /* \"contracts/CarreraCoches/principal.sol\":929:981  mapping (address => uint) public numeroCochesPersona */\n    tag_48:\n      mstore(0x20, 0x08)\n      dup1\n      0x00\n      mstore\n      keccak256(0x00, 0x40)\n      0x00\n      swap2\n      pop\n      swap1\n      pop\n      sload\n      dup2\n      jump\t// out\n        /* \"contracts/CarreraCoches/cocheToken.sol\":1657:1760  function transferFrom(address _from, address _to, uint256 _tokenId) external override payable{\r... */\n    tag_54:\n      pop\n      pop\n      pop\n      jump\t// out\n        /* \"contracts/CarreraCoches/principal.sol\":1777:2217  function anadirCoche(string memory _modelo, string memory _marca, string memory _nombrePiloto) public restriccion returns (uint) {\r... */\n    tag_59:\n        /* \"contracts/CarreraCoches/principal.sol\":1900:1904  uint */\n      0x00\n        /* \"contracts/CarreraCoches/principal.sol\":1113:1114  1 */\n      0x01\n        /* \"contracts/CarreraCoches/principal.sol\":1079:1098  numeroCochesPersona */\n      0x08\n        /* \"contracts/CarreraCoches/principal.sol\":1079:1110  numeroCochesPersona[msg.sender] */\n      0x00\n        /* \"contracts/CarreraCoches/principal.sol\":1099:1109  msg.sender */\n      caller\n        /* \"contracts/CarreraCoches/principal.sol\":1079:1110  numeroCochesPersona[msg.sender] */\n      0xffffffffffffffffffffffffffffffffffffffff\n      and\n      0xffffffffffffffffffffffffffffffffffffffff\n      and\n      dup2\n      mstore\n      0x20\n      add\n      swap1\n      dup2\n      mstore\n      0x20\n      add\n      0x00\n      keccak256\n      sload\n        /* \"contracts/CarreraCoches/principal.sol\":1079:1114  numeroCochesPersona[msg.sender] < 1 */\n      lt\n        /* \"contracts/CarreraCoches/principal.sol\":1071:1159  require(numeroCochesPersona[msg.sender] < 1, \"Solo se puede tener un coche por persona\") */\n      tag_158\n      jumpi\n      mload(0x40)\n      0x08c379a000000000000000000000000000000000000000000000000000000000\n      dup2\n      mstore\n      0x04\n      add\n      tag_159\n      swap1\n      tag_160\n      jump\t// in\n    tag_159:\n      mload(0x40)\n      dup1\n      swap2\n      sub\n      swap1\n      revert\n    tag_158:\n        /* \"contracts/CarreraCoches/principal.sol\":1917:1928  listaCoches */\n      0x06\n        /* \"contracts/CarreraCoches/principal.sol\":1934:2028  Coche(msg.sender, _modelo, _marca, _nombrePiloto, 0, 0, uint32(block.timestamp + cooldown), 1) */\n      mload(0x40)\n      dup1\n      0x0100\n      add\n      0x40\n      mstore\n      dup1\n        /* \"contracts/CarreraCoches/principal.sol\":1940:1950  msg.sender */\n      caller\n        /* \"contracts/CarreraCoches/principal.sol\":1934:2028  Coche(msg.sender, _modelo, _marca, _nombrePiloto, 0, 0, uint32(block.timestamp + cooldown), 1) */\n      0xffffffffffffffffffffffffffffffffffffffff\n      and\n      dup2\n      mstore\n      0x20\n      add\n        /* \"contracts/CarreraCoches/principal.sol\":1952:1959  _modelo */\n      dup7\n        /* \"contracts/CarreraCoches/principal.sol\":1934:2028  Coche(msg.sender, _modelo, _marca, _nombrePiloto, 0, 0, uint32(block.timestamp + cooldown), 1) */\n      dup2\n      mstore\n      0x20\n      add\n        /* \"contracts/CarreraCoches/principal.sol\":1961:1967  _marca */\n      dup6\n        /* \"contracts/CarreraCoches/principal.sol\":1934:2028  Coche(msg.sender, _modelo, _marca, _nombrePiloto, 0, 0, uint32(block.timestamp + cooldown), 1) */\n      dup2\n      mstore\n      0x20\n      add\n        /* \"contracts/CarreraCoches/principal.sol\":1969:1982  _nombrePiloto */\n      dup5\n        /* \"contracts/CarreraCoches/principal.sol\":1934:2028  Coche(msg.sender, _modelo, _marca, _nombrePiloto, 0, 0, uint32(block.timestamp + cooldown), 1) */\n      dup2\n      mstore\n      0x20\n      add\n        /* \"contracts/CarreraCoches/principal.sol\":1984:1985  0 */\n      0x00\n        /* \"contracts/CarreraCoches/principal.sol\":1934:2028  Coche(msg.sender, _modelo, _marca, _nombrePiloto, 0, 0, uint32(block.timestamp + cooldown), 1) */\n      dup2\n      mstore\n      0x20\n      add\n        /* \"contracts/CarreraCoches/principal.sol\":1987:1988  0 */\n      0x00\n        /* \"contracts/CarreraCoches/principal.sol\":1934:2028  Coche(msg.sender, _modelo, _marca, _nombrePiloto, 0, 0, uint32(block.timestamp + cooldown), 1) */\n      dup2\n      mstore\n      0x20\n      add\n        /* \"contracts/CarreraCoches/principal.sol\":2015:2023  cooldown */\n      sload(0x03)\n        /* \"contracts/CarreraCoches/principal.sol\":1997:2012  block.timestamp */\n      timestamp\n        /* \"contracts/CarreraCoches/principal.sol\":1997:2023  block.timestamp + cooldown */\n      tag_162\n      swap2\n      swap1\n      tag_163\n      jump\t// in\n    tag_162:\n        /* \"contracts/CarreraCoches/principal.sol\":1934:2028  Coche(msg.sender, _modelo, _marca, _nombrePiloto, 0, 0, uint32(block.timestamp + cooldown), 1) */\n      0xffffffff\n      and\n      dup2\n      mstore\n      0x20\n      add\n        /* \"contracts/CarreraCoches/principal.sol\":2026:2027  1 */\n      0x01\n        /* \"contracts/CarreraCoches/principal.sol\":1934:2028  Coche(msg.sender, _modelo, _marca, _nombrePiloto, 0, 0, uint32(block.timestamp + cooldown), 1) */\n      0xffffffff\n      and\n      dup2\n      mstore\n      pop\n        /* \"contracts/CarreraCoches/principal.sol\":1917:2029  listaCoches.push(Coche(msg.sender, _modelo, _marca, _nombrePiloto, 0, 0, uint32(block.timestamp + cooldown), 1)) */\n      swap1\n      dup1\n      0x01\n      dup2\n      sload\n      add\n      dup1\n      dup3\n      sstore\n      dup1\n      swap2\n      pop\n      pop\n      0x01\n      swap1\n      sub\n      swap1\n      0x00\n      mstore\n      keccak256(0x00, 0x20)\n      swap1\n      0x08\n      mul\n      add\n      0x00\n      swap1\n      swap2\n      swap1\n      swap2\n      swap1\n      swap2\n      pop\n      0x00\n      dup3\n      add\n      mload\n      dup2\n      0x00\n      add\n      exp(0x0100, 0x00)\n      dup2\n      sload\n      dup2\n      0xffffffffffffffffffffffffffffffffffffffff\n      mul\n      not\n      and\n      swap1\n      dup4\n      0xffffffffffffffffffffffffffffffffffffffff\n      and\n      mul\n      or\n      swap1\n      sstore\n      pop\n      0x20\n      dup3\n      add\n      mload\n      dup2\n      0x01\n      add\n      swap1\n      dup1\n      mload\n      swap1\n      0x20\n      add\n      swap1\n      tag_165\n      swap3\n      swap2\n      swap1\n      tag_147\n      jump\t// in\n    tag_165:\n      pop\n      0x40\n      dup3\n      add\n      mload\n      dup2\n      0x02\n      add\n      swap1\n      dup1\n      mload\n      swap1\n      0x20\n      add\n      swap1\n      tag_166\n      swap3\n      swap2\n      swap1\n      tag_147\n      jump\t// in\n    tag_166:\n      pop\n      0x60\n      dup3\n      add\n      mload\n      dup2\n      0x03\n      add\n      swap1\n      dup1\n      mload\n      swap1\n      0x20\n      add\n      swap1\n      tag_167\n      swap3\n      swap2\n      swap1\n      tag_147\n      jump\t// in\n    tag_167:\n      pop\n      0x80\n      dup3\n      add\n      mload\n      dup2\n      0x04\n      add\n      sstore\n      0xa0\n      dup3\n      add\n      mload\n      dup2\n      0x05\n      add\n      sstore\n      0xc0\n      dup3\n      add\n      mload\n      dup2\n      0x06\n      add\n      sstore\n      0xe0\n      dup3\n      add\n      mload\n      dup2\n      0x07\n      add\n      exp(0x0100, 0x00)\n      dup2\n      sload\n      dup2\n      0xffffffff\n      mul\n      not\n      and\n      swap1\n      dup4\n      0xffffffff\n      and\n      mul\n      or\n      swap1\n      sstore\n      pop\n      pop\n      pop\n        /* \"contracts/CarreraCoches/principal.sol\":2040:2047  uint id */\n      0x00\n        /* \"contracts/CarreraCoches/principal.sol\":2050:2061  listaCoches */\n      0x06\n        /* \"contracts/CarreraCoches/principal.sol\":2050:2068  listaCoches.length */\n      dup1\n      sload\n      swap1\n      pop\n        /* \"contracts/CarreraCoches/principal.sol\":2040:2068  uint id = listaCoches.length */\n      swap1\n      pop\n        /* \"contracts/CarreraCoches/principal.sol\":2104:2114  msg.sender */\n      caller\n        /* \"contracts/CarreraCoches/principal.sol\":2079:2097  cocheDePropietario */\n      0x07\n        /* \"contracts/CarreraCoches/principal.sol\":2079:2101  cocheDePropietario[id] */\n      0x00\n        /* \"contracts/CarreraCoches/principal.sol\":2098:2100  id */\n      dup4\n        /* \"contracts/CarreraCoches/principal.sol\":2079:2101  cocheDePropietario[id] */\n      dup2\n      mstore\n      0x20\n      add\n      swap1\n      dup2\n      mstore\n      0x20\n      add\n      0x00\n      keccak256\n      0x00\n        /* \"contracts/CarreraCoches/principal.sol\":2079:2114  cocheDePropietario[id] = msg.sender */\n      0x0100\n      exp\n      dup2\n      sload\n      dup2\n      0xffffffffffffffffffffffffffffffffffffffff\n      mul\n      not\n      and\n      swap1\n      dup4\n      0xffffffffffffffffffffffffffffffffffffffff\n      and\n      mul\n      or\n      swap1\n      sstore\n      pop\n        /* \"contracts/CarreraCoches/principal.sol\":2125:2144  numeroCochesPersona */\n      0x08\n        /* \"contracts/CarreraCoches/principal.sol\":2125:2156  numeroCochesPersona[msg.sender] */\n      0x00\n        /* \"contracts/CarreraCoches/principal.sol\":2145:2155  msg.sender */\n      caller\n        /* \"contracts/CarreraCoches/principal.sol\":2125:2156  numeroCochesPersona[msg.sender] */\n      0xffffffffffffffffffffffffffffffffffffffff\n      and\n      0xffffffffffffffffffffffffffffffffffffffff\n      and\n      dup2\n      mstore\n      0x20\n      add\n      swap1\n      dup2\n      mstore\n      0x20\n      add\n      0x00\n      keccak256\n      0x00\n        /* \"contracts/CarreraCoches/principal.sol\":2125:2158  numeroCochesPersona[msg.sender]++ */\n      dup2\n      sload\n      dup1\n      swap3\n      swap2\n      swap1\n      tag_168\n      swap1\n      tag_153\n      jump\t// in\n    tag_168:\n      swap2\n      swap1\n      pop\n      sstore\n      pop\n        /* \"contracts/CarreraCoches/principal.sol\":2169:2177  contador */\n      0x02\n      0x00\n        /* \"contracts/CarreraCoches/principal.sol\":2169:2179  contador++ */\n      dup2\n      sload\n      dup1\n      swap3\n      swap2\n      swap1\n      tag_169\n      swap1\n      tag_153\n      jump\t// in\n    tag_169:\n      swap2\n      swap1\n      pop\n      sstore\n      pop\n        /* \"contracts/CarreraCoches/principal.sol\":2208:2209  1 */\n      0x01\n        /* \"contracts/CarreraCoches/principal.sol\":2197:2205  contador */\n      sload(0x02)\n        /* \"contracts/CarreraCoches/principal.sol\":2197:2209  contador - 1 */\n      tag_170\n      swap2\n      swap1\n      tag_171\n      jump\t// in\n    tag_170:\n        /* \"contracts/CarreraCoches/principal.sol\":2190:2209  return contador - 1 */\n      swap2\n      pop\n      pop\n        /* \"contracts/CarreraCoches/principal.sol\":1777:2217  function anadirCoche(string memory _modelo, string memory _marca, string memory _nombrePiloto) public restriccion returns (uint) {\r... */\n      swap4\n      swap3\n      pop\n      pop\n      pop\n      jump\t// out\n        /* \"contracts/CarreraCoches/cocheToken.sol\":1378:1651  function safeTransferFrom(address _from, address _to, uint256 _tokenId) external override payable{\r... */\n    tag_63:\n        /* \"contracts/CarreraCoches/cocheToken.sol\":1486:1505  numeroCochesPersona */\n      0x08\n        /* \"contracts/CarreraCoches/cocheToken.sol\":1486:1510  numeroCochesPersona[_to] */\n      0x00\n        /* \"contracts/CarreraCoches/cocheToken.sol\":1506:1509  _to */\n      dup4\n        /* \"contracts/CarreraCoches/cocheToken.sol\":1486:1510  numeroCochesPersona[_to] */\n      0xffffffffffffffffffffffffffffffffffffffff\n      and\n      0xffffffffffffffffffffffffffffffffffffffff\n      and\n      dup2\n      mstore\n      0x20\n      add\n      swap1\n      dup2\n      mstore\n      0x20\n      add\n      0x00\n      keccak256\n      0x00\n        /* \"contracts/CarreraCoches/cocheToken.sol\":1486:1512  numeroCochesPersona[_to]++ */\n      dup2\n      sload\n      dup1\n      swap3\n      swap2\n      swap1\n      tag_173\n      swap1\n      tag_153\n      jump\t// in\n    tag_173:\n      swap2\n      swap1\n      pop\n      sstore\n      pop\n        /* \"contracts/CarreraCoches/cocheToken.sol\":1523:1542  numeroCochesPersona */\n      0x08\n        /* \"contracts/CarreraCoches/cocheToken.sol\":1523:1549  numeroCochesPersona[_from] */\n      0x00\n        /* \"contracts/CarreraCoches/cocheToken.sol\":1543:1548  _from */\n      dup5\n        /* \"contracts/CarreraCoches/cocheToken.sol\":1523:1549  numeroCochesPersona[_from] */\n      0xffffffffffffffffffffffffffffffffffffffff\n      and\n      0xffffffffffffffffffffffffffffffffffffffff\n      and\n      dup2\n      mstore\n      0x20\n      add\n      swap1\n      dup2\n      mstore\n      0x20\n      add\n      0x00\n      keccak256\n      0x00\n        /* \"contracts/CarreraCoches/cocheToken.sol\":1523:1551  numeroCochesPersona[_from]-- */\n      dup2\n      sload\n      dup1\n      swap3\n      swap2\n      swap1\n      tag_174\n      swap1\n      tag_175\n      jump\t// in\n    tag_174:\n      swap2\n      swap1\n      pop\n      sstore\n      pop\n        /* \"contracts/CarreraCoches/cocheToken.sol\":1594:1597  _to */\n      dup2\n        /* \"contracts/CarreraCoches/cocheToken.sol\":1562:1597  cocheDePropietario[_tokenId] == _to */\n      0xffffffffffffffffffffffffffffffffffffffff\n      and\n        /* \"contracts/CarreraCoches/cocheToken.sol\":1562:1580  cocheDePropietario */\n      0x07\n        /* \"contracts/CarreraCoches/cocheToken.sol\":1562:1590  cocheDePropietario[_tokenId] */\n      0x00\n        /* \"contracts/CarreraCoches/cocheToken.sol\":1581:1589  _tokenId */\n      dup4\n        /* \"contracts/CarreraCoches/cocheToken.sol\":1562:1590  cocheDePropietario[_tokenId] */\n      dup2\n      mstore\n      0x20\n      add\n      swap1\n      dup2\n      mstore\n      0x20\n      add\n      0x00\n      keccak256\n      0x00\n      swap1\n      sload\n      swap1\n      0x0100\n      exp\n      swap1\n      pop\n      pop\n        /* \"contracts/CarreraCoches/cocheToken.sol\":1562:1597  cocheDePropietario[_tokenId] == _to */\n      pop\n        /* \"contracts/CarreraCoches/cocheToken.sol\":1634:1642  _tokenId */\n      dup1\n        /* \"contracts/CarreraCoches/cocheToken.sol\":1629:1632  _to */\n      dup3\n        /* \"contracts/CarreraCoches/cocheToken.sol\":1613:1643  Transfer(_from, _to, _tokenId) */\n      0xffffffffffffffffffffffffffffffffffffffff\n      and\n        /* \"contracts/CarreraCoches/cocheToken.sol\":1622:1627  _from */\n      dup5\n        /* \"contracts/CarreraCoches/cocheToken.sol\":1613:1643  Transfer(_from, _to, _tokenId) */\n      0xffffffffffffffffffffffffffffffffffffffff\n      and\n      0xddf252ad1be2c89b69c2b068fc378daa952ba7f163c4a11628f55a4df523b3ef\n      mload(0x40)\n      mload(0x40)\n      dup1\n      swap2\n      sub\n      swap1\n      log4\n        /* \"contracts/CarreraCoches/cocheToken.sol\":1378:1651  function safeTransferFrom(address _from, address _to, uint256 _tokenId) external override payable{\r... */\n      pop\n      pop\n      pop\n      jump\t// out\n        /* \"contracts/CarreraCoches/cocheToken.sol\":1104:1240  function ownerOf(uint256 _tokenId) external override view returns (address _owner){\r... */\n    tag_67:\n        /* \"contracts/CarreraCoches/cocheToken.sol\":1171:1185  address _owner */\n      0x00\n        /* \"contracts/CarreraCoches/cocheToken.sol\":1204:1222  cocheDePropietario */\n      0x07\n        /* \"contracts/CarreraCoches/cocheToken.sol\":1204:1232  cocheDePropietario[_tokenId] */\n      0x00\n        /* \"contracts/CarreraCoches/cocheToken.sol\":1223:1231  _tokenId */\n      dup4\n        /* \"contracts/CarreraCoches/cocheToken.sol\":1204:1232  cocheDePropietario[_tokenId] */\n      dup2\n      mstore\n      0x20\n      add\n      swap1\n      dup2\n      mstore\n      0x20\n      add\n      0x00\n      keccak256\n      0x00\n      swap1\n      sload\n      swap1\n      0x0100\n      exp\n      swap1\n      div\n      0xffffffffffffffffffffffffffffffffffffffff\n      and\n        /* \"contracts/CarreraCoches/cocheToken.sol\":1197:1232  return cocheDePropietario[_tokenId] */\n      swap1\n      pop\n        /* \"contracts/CarreraCoches/cocheToken.sol\":1104:1240  function ownerOf(uint256 _tokenId) external override view returns (address _owner){\r... */\n      swap2\n      swap1\n      pop\n      jump\t// out\n        /* \"contracts/CarreraCoches/principal.sol\":2545:2904  function subirDeNivel(address _propietario) external payable returns(string memory) {\r... */\n    tag_71:\n        /* \"contracts/CarreraCoches/principal.sol\":2614:2627  string memory */\n      0x60\n        /* \"contracts/CarreraCoches/principal.sol\":2659:2669  subirNivel */\n      sload(0x04)\n        /* \"contracts/CarreraCoches/principal.sol\":2648:2657  msg.value */\n      callvalue\n        /* \"contracts/CarreraCoches/principal.sol\":2648:2669  msg.value==subirNivel */\n      eq\n        /* \"contracts/CarreraCoches/principal.sol\":2640:2670  require(msg.value==subirNivel) */\n      tag_178\n      jumpi\n      0x00\n      dup1\n      revert\n    tag_178:\n        /* \"contracts/CarreraCoches/principal.sol\":2685:2691  uint i */\n      0x00\n        /* \"contracts/CarreraCoches/principal.sol\":2681:2897  for(uint i = 0; i < listaCoches.length; i++){\r... */\n    tag_179:\n        /* \"contracts/CarreraCoches/principal.sol\":2701:2712  listaCoches */\n      0x06\n        /* \"contracts/CarreraCoches/principal.sol\":2701:2719  listaCoches.length */\n      dup1\n      sload\n      swap1\n      pop\n        /* \"contracts/CarreraCoches/principal.sol\":2697:2698  i */\n      dup2\n        /* \"contracts/CarreraCoches/principal.sol\":2697:2719  i < listaCoches.length */\n      lt\n        /* \"contracts/CarreraCoches/principal.sol\":2681:2897  for(uint i = 0; i < listaCoches.length; i++){\r... */\n      iszero\n      tag_180\n      jumpi\n        /* \"contracts/CarreraCoches/principal.sol\":2770:2782  _propietario */\n      dup3\n        /* \"contracts/CarreraCoches/principal.sol\":2743:2782  listaCoches[i].idPiloto == _propietario */\n      0xffffffffffffffffffffffffffffffffffffffff\n      and\n        /* \"contracts/CarreraCoches/principal.sol\":2743:2754  listaCoches */\n      0x06\n        /* \"contracts/CarreraCoches/principal.sol\":2755:2756  i */\n      dup3\n        /* \"contracts/CarreraCoches/principal.sol\":2743:2757  listaCoches[i] */\n      dup2\n      sload\n      dup2\n      lt\n      tag_182\n      jumpi\n      tag_183\n      tag_140\n      jump\t// in\n    tag_183:\n    tag_182:\n      swap1\n      0x00\n      mstore\n      keccak256(0x00, 0x20)\n      swap1\n      0x08\n      mul\n      add\n        /* \"contracts/CarreraCoches/principal.sol\":2743:2766  listaCoches[i].idPiloto */\n      0x00\n      add\n      0x00\n      swap1\n      sload\n      swap1\n      0x0100\n      exp\n      swap1\n      div\n      0xffffffffffffffffffffffffffffffffffffffff\n      and\n        /* \"contracts/CarreraCoches/principal.sol\":2743:2782  listaCoches[i].idPiloto == _propietario */\n      0xffffffffffffffffffffffffffffffffffffffff\n      and\n      eq\n        /* \"contracts/CarreraCoches/principal.sol\":2740:2886  if(listaCoches[i].idPiloto == _propietario){\r... */\n      iszero\n      tag_185\n      jumpi\n        /* \"contracts/CarreraCoches/principal.sol\":2802:2813  listaCoches */\n      0x06\n        /* \"contracts/CarreraCoches/principal.sol\":2814:2815  i */\n      dup2\n        /* \"contracts/CarreraCoches/principal.sol\":2802:2816  listaCoches[i] */\n      dup2\n      sload\n      dup2\n      lt\n      tag_186\n      jumpi\n      tag_187\n      tag_140\n      jump\t// in\n    tag_187:\n    tag_186:\n      swap1\n      0x00\n      mstore\n      keccak256(0x00, 0x20)\n      swap1\n      0x08\n      mul\n      add\n        /* \"contracts/CarreraCoches/principal.sol\":2802:2822  listaCoches[i].nivel */\n      0x07\n      add\n      0x00\n        /* \"contracts/CarreraCoches/principal.sol\":2802:2824  listaCoches[i].nivel++ */\n      dup2\n      dup2\n      swap1\n      sload\n      swap1\n      0x0100\n      exp\n      swap1\n      div\n      0xffffffff\n      and\n      dup1\n      swap3\n      swap2\n      swap1\n      tag_189\n      swap1\n      tag_190\n      jump\t// in\n    tag_189:\n      swap2\n      swap1\n      0x0100\n      exp\n      dup2\n      sload\n      dup2\n      0xffffffff\n      mul\n      not\n      and\n      swap1\n      dup4\n      0xffffffff\n      and\n      mul\n      or\n      swap1\n      sstore\n      pop\n      pop\n        /* \"contracts/CarreraCoches/principal.sol\":2843:2870  return \"Ha subido de nivel\" */\n      mload(0x40)\n      dup1\n      0x40\n      add\n      0x40\n      mstore\n      dup1\n      0x12\n      dup2\n      mstore\n      0x20\n      add\n      0x48612073756269646f206465206e6976656c0000000000000000000000000000\n      dup2\n      mstore\n      pop\n      swap2\n      pop\n      pop\n      jump(tag_177)\n        /* \"contracts/CarreraCoches/principal.sol\":2740:2886  if(listaCoches[i].idPiloto == _propietario){\r... */\n    tag_185:\n        /* \"contracts/CarreraCoches/principal.sol\":2721:2724  i++ */\n      dup1\n      dup1\n      tag_191\n      swap1\n      tag_153\n      jump\t// in\n    tag_191:\n      swap2\n      pop\n      pop\n        /* \"contracts/CarreraCoches/principal.sol\":2681:2897  for(uint i = 0; i < listaCoches.length; i++){\r... */\n      jump(tag_179)\n    tag_180:\n      pop\n        /* \"contracts/CarreraCoches/principal.sol\":2545:2904  function subirDeNivel(address _propietario) external payable returns(string memory) {\r... */\n    tag_177:\n      swap2\n      swap1\n      pop\n      jump\t// out\n        /* \"contracts/CarreraCoches/principal.sol\":4168:7496  function Apostar(uint dineroApostar) public payable returns(string memory) {\r... */\n    tag_75:\n        /* \"contracts/CarreraCoches/principal.sol\":4228:4241  string memory */\n      0x60\n        /* \"contracts/CarreraCoches/principal.sol\":4289:4290  1 */\n      0x01\n        /* \"contracts/CarreraCoches/principal.sol\":4267:4278  listaCoches */\n      0x06\n        /* \"contracts/CarreraCoches/principal.sol\":4267:4285  listaCoches.length */\n      dup1\n      sload\n      swap1\n      pop\n        /* \"contracts/CarreraCoches/principal.sol\":4267:4290  listaCoches.length <= 1 */\n      gt\n        /* \"contracts/CarreraCoches/principal.sol\":4264:7490  if(listaCoches.length <= 1){\r... */\n      tag_193\n      jumpi\n        /* \"contracts/CarreraCoches/principal.sol\":4310:4389  confirmacionDepositoLleno(\"No hay coches suficientes para iniciar una carrera\") */\n      0x6158fc8f21c8cc73ddf920956cc75d0e8a48b4fc85817a0ba89eb3b6d2a75441\n      mload(0x40)\n      tag_194\n      swap1\n      tag_195\n      jump\t// in\n    tag_194:\n      mload(0x40)\n      dup1\n      swap2\n      sub\n      swap1\n      log1\n        /* \"contracts/CarreraCoches/principal.sol\":4264:7490  if(listaCoches.length <= 1){\r... */\n      jump(tag_196)\n    tag_193:\n        /* \"contracts/CarreraCoches/principal.sol\":4440:4453  dineroApostar */\n      dup2\n        /* \"contracts/CarreraCoches/principal.sol\":4427:4436  msg.value */\n      callvalue\n        /* \"contracts/CarreraCoches/principal.sol\":4427:4453  msg.value == dineroApostar */\n      eq\n        /* \"contracts/CarreraCoches/principal.sol\":4419:4454  require(msg.value == dineroApostar) */\n      tag_197\n      jumpi\n      0x00\n      dup1\n      revert\n    tag_197:\n        /* \"contracts/CarreraCoches/principal.sol\":4469:4478  randNonce */\n      0x01\n      0x00\n        /* \"contracts/CarreraCoches/principal.sol\":4469:4480  randNonce++ */\n      dup2\n      sload\n      dup1\n      swap3\n      swap2\n      swap1\n      tag_198\n      swap1\n      tag_153\n      jump\t// in\n    tag_198:\n      swap2\n      swap1\n      pop\n      sstore\n      pop\n        /* \"contracts/CarreraCoches/principal.sol\":4535:4548  uint256 rival */\n      0x00\n        /* \"contracts/CarreraCoches/principal.sol\":4638:4649  listaCoches */\n      0x06\n        /* \"contracts/CarreraCoches/principal.sol\":4638:4656  listaCoches.length */\n      dup1\n      sload\n      swap1\n      pop\n        /* \"contracts/CarreraCoches/principal.sol\":4586:4601  block.timestamp */\n      timestamp\n        /* \"contracts/CarreraCoches/principal.sol\":4603:4614  listaCoches */\n      0x06\n        /* \"contracts/CarreraCoches/principal.sol\":4603:4621  listaCoches.length */\n      dup1\n      sload\n      swap1\n      pop\n        /* \"contracts/CarreraCoches/principal.sol\":4623:4632  randNonce */\n      sload(0x01)\n        /* \"contracts/CarreraCoches/principal.sol\":4569:4633  abi.encodePacked(block.timestamp, listaCoches.length, randNonce) */\n      add(0x20, mload(0x40))\n      tag_199\n      swap4\n      swap3\n      swap2\n      swap1\n      tag_200\n      jump\t// in\n    tag_199:\n      mload(0x40)\n      0x20\n      dup2\n      dup4\n      sub\n      sub\n      dup2\n      mstore\n      swap1\n      0x40\n      mstore\n        /* \"contracts/CarreraCoches/principal.sol\":4559:4634  keccak256(abi.encodePacked(block.timestamp, listaCoches.length, randNonce)) */\n      dup1\n      mload\n      swap1\n      0x20\n      add\n      keccak256\n        /* \"contracts/CarreraCoches/principal.sol\":4551:4635  uint256(keccak256(abi.encodePacked(block.timestamp, listaCoches.length, randNonce))) */\n      0x00\n      shr\n        /* \"contracts/CarreraCoches/principal.sol\":4551:4656  uint256(keccak256(abi.encodePacked(block.timestamp, listaCoches.length, randNonce))) % listaCoches.length */\n      tag_201\n      swap2\n      swap1\n      tag_202\n      jump\t// in\n    tag_201:\n        /* \"contracts/CarreraCoches/principal.sol\":4535:4656  uint256 rival = uint256(keccak256(abi.encodePacked(block.timestamp, listaCoches.length, randNonce))) % listaCoches.length */\n      swap1\n      pop\n        /* \"contracts/CarreraCoches/principal.sol\":4671:4691  address addressRival */\n      0x00\n        /* \"contracts/CarreraCoches/principal.sol\":4694:4712  cocheDePropietario */\n      0x07\n        /* \"contracts/CarreraCoches/principal.sol\":4694:4719  cocheDePropietario[rival] */\n      0x00\n        /* \"contracts/CarreraCoches/principal.sol\":4713:4718  rival */\n      dup4\n        /* \"contracts/CarreraCoches/principal.sol\":4694:4719  cocheDePropietario[rival] */\n      dup2\n      mstore\n      0x20\n      add\n      swap1\n      dup2\n      mstore\n      0x20\n      add\n      0x00\n      keccak256\n      0x00\n      swap1\n      sload\n      swap1\n      0x0100\n      exp\n      swap1\n      div\n      0xffffffffffffffffffffffffffffffffffffffff\n      and\n        /* \"contracts/CarreraCoches/principal.sol\":4671:4719  address addressRival = cocheDePropietario[rival] */\n      swap1\n      pop\n        /* \"contracts/CarreraCoches/principal.sol\":4770:4779  randNonce */\n      0x01\n      0x00\n        /* \"contracts/CarreraCoches/principal.sol\":4770:4781  randNonce++ */\n      dup2\n      sload\n      dup1\n      swap3\n      swap2\n      swap1\n      tag_203\n      swap1\n      tag_153\n      jump\t// in\n    tag_203:\n      swap2\n      swap1\n      pop\n      sstore\n      pop\n        /* \"contracts/CarreraCoches/principal.sol\":4796:4807  uint numero */\n      0x00\n        /* \"contracts/CarreraCoches/principal.sol\":4810:4813  100 */\n      0x64\n        /* \"contracts/CarreraCoches/principal.sol\":4796:4813  uint numero = 100 */\n      swap1\n      pop\n        /* \"contracts/CarreraCoches/principal.sol\":4828:4843  uint256 ganador */\n      0x00\n        /* \"contracts/CarreraCoches/principal.sol\":4921:4927  numero */\n      dup2\n        /* \"contracts/CarreraCoches/principal.sol\":4881:4896  block.timestamp */\n      timestamp\n        /* \"contracts/CarreraCoches/principal.sol\":4898:4904  numero */\n      dup4\n        /* \"contracts/CarreraCoches/principal.sol\":4906:4915  randNonce */\n      sload(0x01)\n        /* \"contracts/CarreraCoches/principal.sol\":4864:4916  abi.encodePacked(block.timestamp, numero, randNonce) */\n      add(0x20, mload(0x40))\n      tag_204\n      swap4\n      swap3\n      swap2\n      swap1\n      tag_200\n      jump\t// in\n    tag_204:\n      mload(0x40)\n      0x20\n      dup2\n      dup4\n      sub\n      sub\n      dup2\n      mstore\n      swap1\n      0x40\n      mstore\n        /* \"contracts/CarreraCoches/principal.sol\":4854:4917  keccak256(abi.encodePacked(block.timestamp, numero, randNonce)) */\n      dup1\n      mload\n      swap1\n      0x20\n      add\n      keccak256\n        /* \"contracts/CarreraCoches/principal.sol\":4846:4918  uint256(keccak256(abi.encodePacked(block.timestamp, numero, randNonce))) */\n      0x00\n      shr\n        /* \"contracts/CarreraCoches/principal.sol\":4846:4927  uint256(keccak256(abi.encodePacked(block.timestamp, numero, randNonce))) % numero */\n      tag_205\n      swap2\n      swap1\n      tag_202\n      jump\t// in\n    tag_205:\n        /* \"contracts/CarreraCoches/principal.sol\":4828:4927  uint256 ganador = uint256(keccak256(abi.encodePacked(block.timestamp, numero, randNonce))) % numero */\n      swap1\n      pop\n        /* \"contracts/CarreraCoches/principal.sol\":4948:4954  uint i */\n      0x00\n        /* \"contracts/CarreraCoches/principal.sol\":4944:7479  for(uint i = 0; i < listaCoches.length; i++){\r... */\n    tag_206:\n        /* \"contracts/CarreraCoches/principal.sol\":4964:4975  listaCoches */\n      0x06\n        /* \"contracts/CarreraCoches/principal.sol\":4964:4982  listaCoches.length */\n      dup1\n      sload\n      swap1\n      pop\n        /* \"contracts/CarreraCoches/principal.sol\":4960:4961  i */\n      dup2\n        /* \"contracts/CarreraCoches/principal.sol\":4960:4982  i < listaCoches.length */\n      lt\n        /* \"contracts/CarreraCoches/principal.sol\":4944:7479  for(uint i = 0; i < listaCoches.length; i++){\r... */\n      iszero\n      tag_207\n      jumpi\n        /* \"contracts/CarreraCoches/principal.sol\":5103:5114  listaCoches */\n      0x06\n        /* \"contracts/CarreraCoches/principal.sol\":5115:5116  i */\n      dup2\n        /* \"contracts/CarreraCoches/principal.sol\":5103:5117  listaCoches[i] */\n      dup2\n      sload\n      dup2\n      lt\n      tag_209\n      jumpi\n      tag_210\n      tag_140\n      jump\t// in\n    tag_210:\n    tag_209:\n      swap1\n      0x00\n      mstore\n      keccak256(0x00, 0x20)\n      swap1\n      0x08\n      mul\n      add\n        /* \"contracts/CarreraCoches/principal.sol\":5103:5126  listaCoches[i].idPiloto */\n      0x00\n      add\n      0x00\n      swap1\n      sload\n      swap1\n      0x0100\n      exp\n      swap1\n      div\n      0xffffffffffffffffffffffffffffffffffffffff\n      and\n        /* \"contracts/CarreraCoches/principal.sol\":5089:5126  msg.sender == listaCoches[i].idPiloto */\n      0xffffffffffffffffffffffffffffffffffffffff\n      and\n        /* \"contracts/CarreraCoches/principal.sol\":5089:5099  msg.sender */\n      caller\n        /* \"contracts/CarreraCoches/principal.sol\":5089:5126  msg.sender == listaCoches[i].idPiloto */\n      0xffffffffffffffffffffffffffffffffffffffff\n      and\n      eq\n        /* \"contracts/CarreraCoches/principal.sol\":5085:7446  if (msg.sender == listaCoches[i].idPiloto) {\r... */\n      iszero\n      tag_212\n      jumpi\n        /* \"contracts/CarreraCoches/principal.sol\":5151:5162  listaCoches */\n      0x06\n        /* \"contracts/CarreraCoches/principal.sol\":5163:5164  i */\n      dup2\n        /* \"contracts/CarreraCoches/principal.sol\":5151:5165  listaCoches[i] */\n      dup2\n      sload\n      dup2\n      lt\n      tag_213\n      jumpi\n      tag_214\n      tag_140\n      jump\t// in\n    tag_214:\n    tag_213:\n      swap1\n      0x00\n      mstore\n      keccak256(0x00, 0x20)\n      swap1\n      0x08\n      mul\n      add\n        /* \"contracts/CarreraCoches/principal.sol\":5151:5181  listaCoches[i].carrerasTotales */\n      0x05\n      add\n      0x00\n        /* \"contracts/CarreraCoches/principal.sol\":5151:5183  listaCoches[i].carrerasTotales++ */\n      dup2\n      sload\n      dup1\n      swap3\n      swap2\n      swap1\n      tag_216\n      swap1\n      tag_153\n      jump\t// in\n    tag_216:\n      swap2\n      swap1\n      pop\n      sstore\n      pop\n        /* \"contracts/CarreraCoches/principal.sol\":5206:5217  listaCoches */\n      0x06\n        /* \"contracts/CarreraCoches/principal.sol\":5218:5223  rival */\n      dup6\n        /* \"contracts/CarreraCoches/principal.sol\":5206:5224  listaCoches[rival] */\n      dup2\n      sload\n      dup2\n      lt\n      tag_217\n      jumpi\n      tag_218\n      tag_140\n      jump\t// in\n    tag_218:\n    tag_217:\n      swap1\n      0x00\n      mstore\n      keccak256(0x00, 0x20)\n      swap1\n      0x08\n      mul\n      add\n        /* \"contracts/CarreraCoches/principal.sol\":5206:5240  listaCoches[rival].carrerasTotales */\n      0x05\n      add\n      0x00\n        /* \"contracts/CarreraCoches/principal.sol\":5206:5242  listaCoches[rival].carrerasTotales++ */\n      dup2\n      sload\n      dup1\n      swap3\n      swap2\n      swap1\n      tag_220\n      swap1\n      tag_153\n      jump\t// in\n    tag_220:\n      swap2\n      swap1\n      pop\n      sstore\n      pop\n        /* \"contracts/CarreraCoches/principal.sol\":5265:5292  _repostando(listaCoches[i]) */\n      tag_221\n        /* \"contracts/CarreraCoches/principal.sol\":5277:5288  listaCoches */\n      0x06\n        /* \"contracts/CarreraCoches/principal.sol\":5289:5290  i */\n      dup3\n        /* \"contracts/CarreraCoches/principal.sol\":5277:5291  listaCoches[i] */\n      dup2\n      sload\n      dup2\n      lt\n      tag_222\n      jumpi\n      tag_223\n      tag_140\n      jump\t// in\n    tag_223:\n    tag_222:\n      swap1\n      0x00\n      mstore\n      keccak256(0x00, 0x20)\n      swap1\n      0x08\n      mul\n      add\n        /* \"contracts/CarreraCoches/principal.sol\":5265:5276  _repostando */\n      tag_225\n        /* \"contracts/CarreraCoches/principal.sol\":5265:5292  _repostando(listaCoches[i]) */\n      jump\t// in\n    tag_221:\n        /* \"contracts/CarreraCoches/principal.sol\":5345:5356  listaCoches */\n      0x06\n        /* \"contracts/CarreraCoches/principal.sol\":5357:5358  i */\n      dup2\n        /* \"contracts/CarreraCoches/principal.sol\":5345:5359  listaCoches[i] */\n      dup2\n      sload\n      dup2\n      lt\n      tag_226\n      jumpi\n      tag_227\n      tag_140\n      jump\t// in\n    tag_227:\n    tag_226:\n      swap1\n      0x00\n      mstore\n      keccak256(0x00, 0x20)\n      swap1\n      0x08\n      mul\n      add\n        /* \"contracts/CarreraCoches/principal.sol\":5345:5365  listaCoches[i].nivel */\n      0x07\n      add\n      0x00\n      swap1\n      sload\n      swap1\n      0x0100\n      exp\n      swap1\n      div\n      0xffffffff\n      and\n        /* \"contracts/CarreraCoches/principal.sol\":5318:5365  listaCoches[rival].nivel < listaCoches[i].nivel */\n      0xffffffff\n      and\n        /* \"contracts/CarreraCoches/principal.sol\":5318:5329  listaCoches */\n      0x06\n        /* \"contracts/CarreraCoches/principal.sol\":5330:5335  rival */\n      dup7\n        /* \"contracts/CarreraCoches/principal.sol\":5318:5336  listaCoches[rival] */\n      dup2\n      sload\n      dup2\n      lt\n      tag_229\n      jumpi\n      tag_230\n      tag_140\n      jump\t// in\n    tag_230:\n    tag_229:\n      swap1\n      0x00\n      mstore\n      keccak256(0x00, 0x20)\n      swap1\n      0x08\n      mul\n      add\n        /* \"contracts/CarreraCoches/principal.sol\":5318:5342  listaCoches[rival].nivel */\n      0x07\n      add\n      0x00\n      swap1\n      sload\n      swap1\n      0x0100\n      exp\n      swap1\n      div\n      0xffffffff\n      and\n        /* \"contracts/CarreraCoches/principal.sol\":5318:5365  listaCoches[rival].nivel < listaCoches[i].nivel */\n      0xffffffff\n      and\n      lt\n        /* \"contracts/CarreraCoches/principal.sol\":5315:7423  if(listaCoches[rival].nivel < listaCoches[i].nivel){\r... */\n      iszero\n      tag_232\n      jumpi\n        /* \"contracts/CarreraCoches/principal.sol\":5405:5407  60 */\n      0x3c\n        /* \"contracts/CarreraCoches/principal.sol\":5396:5403  ganador */\n      dup3\n        /* \"contracts/CarreraCoches/principal.sol\":5396:5407  ganador<=60 */\n      gt\n        /* \"contracts/CarreraCoches/principal.sol\":5393:5966  if(ganador<=60){\r... */\n      tag_233\n      jumpi\n        /* \"contracts/CarreraCoches/principal.sol\":5439:5448  balance() */\n      tag_234\n        /* \"contracts/CarreraCoches/principal.sol\":5439:5446  balance */\n      tag_235\n        /* \"contracts/CarreraCoches/principal.sol\":5439:5448  balance() */\n      jump\t// in\n    tag_234:\n        /* \"contracts/CarreraCoches/principal.sol\":5479:5490  listaCoches */\n      0x06\n        /* \"contracts/CarreraCoches/principal.sol\":5491:5492  i */\n      dup2\n        /* \"contracts/CarreraCoches/principal.sol\":5479:5493  listaCoches[i] */\n      dup2\n      sload\n      dup2\n      lt\n      tag_236\n      jumpi\n      tag_237\n      tag_140\n      jump\t// in\n    tag_237:\n    tag_236:\n      swap1\n      0x00\n      mstore\n      keccak256(0x00, 0x20)\n      swap1\n      0x08\n      mul\n      add\n        /* \"contracts/CarreraCoches/principal.sol\":5479:5509  listaCoches[i].carrerasGanadas */\n      0x04\n      add\n      0x00\n        /* \"contracts/CarreraCoches/principal.sol\":5479:5511  listaCoches[i].carrerasGanadas++ */\n      dup2\n      sload\n      dup1\n      swap3\n      swap2\n      swap1\n      tag_239\n      swap1\n      tag_153\n      jump\t// in\n    tag_239:\n      swap2\n      swap1\n      pop\n      sstore\n      pop\n        /* \"contracts/CarreraCoches/principal.sol\":5542:5553  listaCoches */\n      0x06\n        /* \"contracts/CarreraCoches/principal.sol\":5554:5555  i */\n      dup2\n        /* \"contracts/CarreraCoches/principal.sol\":5542:5556  listaCoches[i] */\n      dup2\n      sload\n      dup2\n      lt\n      tag_240\n      jumpi\n      tag_241\n      tag_140\n      jump\t// in\n    tag_241:\n    tag_240:\n      swap1\n      0x00\n      mstore\n      keccak256(0x00, 0x20)\n      swap1\n      0x08\n      mul\n      add\n        /* \"contracts/CarreraCoches/principal.sol\":5542:5562  listaCoches[i].nivel */\n      0x07\n      add\n      0x00\n        /* \"contracts/CarreraCoches/principal.sol\":5542:5564  listaCoches[i].nivel++ */\n      dup2\n      dup2\n      swap1\n      sload\n      swap1\n      0x0100\n      exp\n      swap1\n      div\n      0xffffffff\n      and\n      dup1\n      swap3\n      swap2\n      swap1\n      tag_243\n      swap1\n      tag_190\n      jump\t// in\n    tag_243:\n      swap2\n      swap1\n      0x0100\n      exp\n      dup2\n      sload\n      dup2\n      0xffffffff\n      mul\n      not\n      and\n      swap1\n      dup4\n      0xffffffff\n      and\n      mul\n      or\n      swap1\n      sstore\n      pop\n      pop\n        /* \"contracts/CarreraCoches/principal.sol\":5595:5614  return \"Has ganado\" */\n      mload(0x40)\n      dup1\n      0x40\n      add\n      0x40\n      mstore\n      dup1\n      0x0a\n      dup2\n      mstore\n      0x20\n      add\n      0x4861732067616e61646f00000000000000000000000000000000000000000000\n      dup2\n      mstore\n      pop\n      swap6\n      pop\n      pop\n      pop\n      pop\n      pop\n      pop\n      jump(tag_192)\n        /* \"contracts/CarreraCoches/principal.sol\":5393:5966  if(ganador<=60){\r... */\n    tag_233:\n        /* \"contracts/CarreraCoches/principal.sol\":5768:5818  confirmacionDepositoLleno(\"El coche ganador es: \") */\n      0x6158fc8f21c8cc73ddf920956cc75d0e8a48b4fc85817a0ba89eb3b6d2a75441\n      mload(0x40)\n      tag_245\n      swap1\n      tag_246\n      jump\t// in\n    tag_245:\n      mload(0x40)\n      dup1\n      swap2\n      sub\n      swap1\n      log1\n        /* \"contracts/CarreraCoches/principal.sol\":5849:5853  this */\n      address\n        /* \"contracts/CarreraCoches/principal.sol\":5849:5873  this.verCochePropietario */\n      0xffffffffffffffffffffffffffffffffffffffff\n      and\n      0xe172fca8\n        /* \"contracts/CarreraCoches/principal.sol\":5874:5886  addressRival */\n      dup6\n        /* \"contracts/CarreraCoches/principal.sol\":5849:5887  this.verCochePropietario(addressRival) */\n      mload(0x40)\n      dup3\n      0xffffffff\n      and\n      0xe0\n      shl\n      dup2\n      mstore\n      0x04\n      add\n      tag_247\n      swap2\n      swap1\n      tag_39\n      jump\t// in\n    tag_247:\n      0x00\n      mload(0x40)\n      dup1\n      dup4\n      sub\n      dup2\n      0x00\n      dup8\n      dup1\n      extcodesize\n      iszero\n      dup1\n      iszero\n      tag_248\n      jumpi\n      0x00\n      dup1\n      revert\n    tag_248:\n      pop\n      gas\n      call\n      iszero\n      dup1\n      iszero\n      tag_250\n      jumpi\n      returndatasize\n      0x00\n      dup1\n      returndatacopy\n      revert(0x00, returndatasize)\n    tag_250:\n      pop\n      pop\n      pop\n      pop\n        /* \"contracts/CarreraCoches/principal.sol\":5918:5938  return \"Has perdido\" */\n      mload(0x40)\n      dup1\n      0x40\n      add\n      0x40\n      mstore\n      dup1\n      0x0b\n      dup2\n      mstore\n      0x20\n      add\n      0x486173207065726469646f000000000000000000000000000000000000000000\n      dup2\n      mstore\n      pop\n      swap6\n      pop\n      pop\n      pop\n      pop\n      pop\n      pop\n      jump(tag_192)\n        /* \"contracts/CarreraCoches/principal.sol\":5315:7423  if(listaCoches[rival].nivel < listaCoches[i].nivel){\r... */\n    tag_232:\n        /* \"contracts/CarreraCoches/principal.sol\":6029:6040  listaCoches */\n      0x06\n        /* \"contracts/CarreraCoches/principal.sol\":6041:6042  i */\n      dup2\n        /* \"contracts/CarreraCoches/principal.sol\":6029:6043  listaCoches[i] */\n      dup2\n      sload\n      dup2\n      lt\n      tag_252\n      jumpi\n      tag_253\n      tag_140\n      jump\t// in\n    tag_253:\n    tag_252:\n      swap1\n      0x00\n      mstore\n      keccak256(0x00, 0x20)\n      swap1\n      0x08\n      mul\n      add\n        /* \"contracts/CarreraCoches/principal.sol\":6029:6049  listaCoches[i].nivel */\n      0x07\n      add\n      0x00\n      swap1\n      sload\n      swap1\n      0x0100\n      exp\n      swap1\n      div\n      0xffffffff\n      and\n        /* \"contracts/CarreraCoches/principal.sol\":6001:6049  listaCoches[rival].nivel == listaCoches[i].nivel */\n      0xffffffff\n      and\n        /* \"contracts/CarreraCoches/principal.sol\":6001:6012  listaCoches */\n      0x06\n        /* \"contracts/CarreraCoches/principal.sol\":6013:6018  rival */\n      dup7\n        /* \"contracts/CarreraCoches/principal.sol\":6001:6019  listaCoches[rival] */\n      dup2\n      sload\n      dup2\n      lt\n      tag_255\n      jumpi\n      tag_256\n      tag_140\n      jump\t// in\n    tag_256:\n    tag_255:\n      swap1\n      0x00\n      mstore\n      keccak256(0x00, 0x20)\n      swap1\n      0x08\n      mul\n      add\n        /* \"contracts/CarreraCoches/principal.sol\":6001:6025  listaCoches[rival].nivel */\n      0x07\n      add\n      0x00\n      swap1\n      sload\n      swap1\n      0x0100\n      exp\n      swap1\n      div\n      0xffffffff\n      and\n        /* \"contracts/CarreraCoches/principal.sol\":6001:6049  listaCoches[rival].nivel == listaCoches[i].nivel */\n      0xffffffff\n      and\n      eq\n        /* \"contracts/CarreraCoches/principal.sol\":5998:7423  if(listaCoches[rival].nivel == listaCoches[i].nivel){\r... */\n      iszero\n      tag_258\n      jumpi\n        /* \"contracts/CarreraCoches/principal.sol\":6089:6091  50 */\n      0x32\n        /* \"contracts/CarreraCoches/principal.sol\":6080:6087  ganador */\n      dup3\n        /* \"contracts/CarreraCoches/principal.sol\":6080:6091  ganador<=50 */\n      gt\n        /* \"contracts/CarreraCoches/principal.sol\":6077:6652  if(ganador<=50){\r... */\n      tag_259\n      jumpi\n        /* \"contracts/CarreraCoches/principal.sol\":6123:6132  balance() */\n      tag_260\n        /* \"contracts/CarreraCoches/principal.sol\":6123:6130  balance */\n      tag_235\n        /* \"contracts/CarreraCoches/principal.sol\":6123:6132  balance() */\n      jump\t// in\n    tag_260:\n        /* \"contracts/CarreraCoches/principal.sol\":6163:6174  listaCoches */\n      0x06\n        /* \"contracts/CarreraCoches/principal.sol\":6175:6176  i */\n      dup2\n        /* \"contracts/CarreraCoches/principal.sol\":6163:6177  listaCoches[i] */\n      dup2\n      sload\n      dup2\n      lt\n      tag_261\n      jumpi\n      tag_262\n      tag_140\n      jump\t// in\n    tag_262:\n    tag_261:\n      swap1\n      0x00\n      mstore\n      keccak256(0x00, 0x20)\n      swap1\n      0x08\n      mul\n      add\n        /* \"contracts/CarreraCoches/principal.sol\":6163:6193  listaCoches[i].carrerasGanadas */\n      0x04\n      add\n      0x00\n        /* \"contracts/CarreraCoches/principal.sol\":6163:6195  listaCoches[i].carrerasGanadas++ */\n      dup2\n      sload\n      dup1\n      swap3\n      swap2\n      swap1\n      tag_264\n      swap1\n      tag_153\n      jump\t// in\n    tag_264:\n      swap2\n      swap1\n      pop\n      sstore\n      pop\n        /* \"contracts/CarreraCoches/principal.sol\":6226:6237  listaCoches */\n      0x06\n        /* \"contracts/CarreraCoches/principal.sol\":6238:6239  i */\n      dup2\n        /* \"contracts/CarreraCoches/principal.sol\":6226:6240  listaCoches[i] */\n      dup2\n      sload\n      dup2\n      lt\n      tag_265\n      jumpi\n      tag_266\n      tag_140\n      jump\t// in\n    tag_266:\n    tag_265:\n      swap1\n      0x00\n      mstore\n      keccak256(0x00, 0x20)\n      swap1\n      0x08\n      mul\n      add\n        /* \"contracts/CarreraCoches/principal.sol\":6226:6246  listaCoches[i].nivel */\n      0x07\n      add\n      0x00\n        /* \"contracts/CarreraCoches/principal.sol\":6226:6248  listaCoches[i].nivel++ */\n      dup2\n      dup2\n      swap1\n      sload\n      swap1\n      0x0100\n      exp\n      swap1\n      div\n      0xffffffff\n      and\n      dup1\n      swap3\n      swap2\n      swap1\n      tag_268\n      swap1\n      tag_190\n      jump\t// in\n    tag_268:\n      swap2\n      swap1\n      0x0100\n      exp\n      dup2\n      sload\n      dup2\n      0xffffffff\n      mul\n      not\n      and\n      swap1\n      dup4\n      0xffffffff\n      and\n      mul\n      or\n      swap1\n      sstore\n      pop\n      pop\n        /* \"contracts/CarreraCoches/principal.sol\":6279:6298  return \"Has ganado\" */\n      mload(0x40)\n      dup1\n      0x40\n      add\n      0x40\n      mstore\n      dup1\n      0x0a\n      dup2\n      mstore\n      0x20\n      add\n      0x4861732067616e61646f00000000000000000000000000000000000000000000\n      dup2\n      mstore\n      pop\n      swap6\n      pop\n      pop\n      pop\n      pop\n      pop\n      pop\n      jump(tag_192)\n        /* \"contracts/CarreraCoches/principal.sol\":6077:6652  if(ganador<=50){\r... */\n    tag_259:\n        /* \"contracts/CarreraCoches/principal.sol\":6454:6504  confirmacionDepositoLleno(\"El coche ganador es: \") */\n      0x6158fc8f21c8cc73ddf920956cc75d0e8a48b4fc85817a0ba89eb3b6d2a75441\n      mload(0x40)\n      tag_270\n      swap1\n      tag_246\n      jump\t// in\n    tag_270:\n      mload(0x40)\n      dup1\n      swap2\n      sub\n      swap1\n      log1\n        /* \"contracts/CarreraCoches/principal.sol\":6535:6539  this */\n      address\n        /* \"contracts/CarreraCoches/principal.sol\":6535:6559  this.verCochePropietario */\n      0xffffffffffffffffffffffffffffffffffffffff\n      and\n      0xe172fca8\n        /* \"contracts/CarreraCoches/principal.sol\":6560:6572  addressRival */\n      dup6\n        /* \"contracts/CarreraCoches/principal.sol\":6535:6573  this.verCochePropietario(addressRival) */\n      mload(0x40)\n      dup3\n      0xffffffff\n      and\n      0xe0\n      shl\n      dup2\n      mstore\n      0x04\n      add\n      tag_271\n      swap2\n      swap1\n      tag_39\n      jump\t// in\n    tag_271:\n      0x00\n      mload(0x40)\n      dup1\n      dup4\n      sub\n      dup2\n      0x00\n      dup8\n      dup1\n      extcodesize\n      iszero\n      dup1\n      iszero\n      tag_272\n      jumpi\n      0x00\n      dup1\n      revert\n    tag_272:\n      pop\n      gas\n      call\n      iszero\n      dup1\n      iszero\n      tag_274\n      jumpi\n      returndatasize\n      0x00\n      dup1\n      returndatacopy\n      revert(0x00, returndatasize)\n    tag_274:\n      pop\n      pop\n      pop\n      pop\n        /* \"contracts/CarreraCoches/principal.sol\":6604:6624  return \"Has perdido\" */\n      mload(0x40)\n      dup1\n      0x40\n      add\n      0x40\n      mstore\n      dup1\n      0x0b\n      dup2\n      mstore\n      0x20\n      add\n      0x486173207065726469646f000000000000000000000000000000000000000000\n      dup2\n      mstore\n      pop\n      swap6\n      pop\n      pop\n      pop\n      pop\n      pop\n      pop\n      jump(tag_192)\n        /* \"contracts/CarreraCoches/principal.sol\":5998:7423  if(listaCoches[rival].nivel == listaCoches[i].nivel){\r... */\n    tag_258:\n        /* \"contracts/CarreraCoches/principal.sol\":6719:6721  40 */\n      0x28\n        /* \"contracts/CarreraCoches/principal.sol\":6710:6717  ganador */\n      dup3\n        /* \"contracts/CarreraCoches/principal.sol\":6710:6721  ganador<=40 */\n      gt\n        /* \"contracts/CarreraCoches/principal.sol\":6707:7399  if(ganador<=40){\r... */\n      tag_276\n      jumpi\n        /* \"contracts/CarreraCoches/principal.sol\":6753:6762  balance() */\n      tag_277\n        /* \"contracts/CarreraCoches/principal.sol\":6753:6760  balance */\n      tag_235\n        /* \"contracts/CarreraCoches/principal.sol\":6753:6762  balance() */\n      jump\t// in\n    tag_277:\n        /* \"contracts/CarreraCoches/principal.sol\":6793:6804  listaCoches */\n      0x06\n        /* \"contracts/CarreraCoches/principal.sol\":6805:6806  i */\n      dup2\n        /* \"contracts/CarreraCoches/principal.sol\":6793:6807  listaCoches[i] */\n      dup2\n      sload\n      dup2\n      lt\n      tag_278\n      jumpi\n      tag_279\n      tag_140\n      jump\t// in\n    tag_279:\n    tag_278:\n      swap1\n      0x00\n      mstore\n      keccak256(0x00, 0x20)\n      swap1\n      0x08\n      mul\n      add\n        /* \"contracts/CarreraCoches/principal.sol\":6793:6823  listaCoches[i].carrerasGanadas */\n      0x04\n      add\n      0x00\n        /* \"contracts/CarreraCoches/principal.sol\":6793:6825  listaCoches[i].carrerasGanadas++ */\n      dup2\n      sload\n      dup1\n      swap3\n      swap2\n      swap1\n      tag_281\n      swap1\n      tag_153\n      jump\t// in\n    tag_281:\n      swap2\n      swap1\n      pop\n      sstore\n      pop\n        /* \"contracts/CarreraCoches/principal.sol\":6856:6867  listaCoches */\n      0x06\n        /* \"contracts/CarreraCoches/principal.sol\":6868:6869  i */\n      dup2\n        /* \"contracts/CarreraCoches/principal.sol\":6856:6870  listaCoches[i] */\n      dup2\n      sload\n      dup2\n      lt\n      tag_282\n      jumpi\n      tag_283\n      tag_140\n      jump\t// in\n    tag_283:\n    tag_282:\n      swap1\n      0x00\n      mstore\n      keccak256(0x00, 0x20)\n      swap1\n      0x08\n      mul\n      add\n        /* \"contracts/CarreraCoches/principal.sol\":6856:6876  listaCoches[i].nivel */\n      0x07\n      add\n      0x00\n        /* \"contracts/CarreraCoches/principal.sol\":6856:6878  listaCoches[i].nivel++ */\n      dup2\n      dup2\n      swap1\n      sload\n      swap1\n      0x0100\n      exp\n      swap1\n      div\n      0xffffffff\n      and\n      dup1\n      swap3\n      swap2\n      swap1\n      tag_285\n      swap1\n      tag_190\n      jump\t// in\n    tag_285:\n      swap2\n      swap1\n      0x0100\n      exp\n      dup2\n      sload\n      dup2\n      0xffffffff\n      mul\n      not\n      and\n      swap1\n      dup4\n      0xffffffff\n      and\n      mul\n      or\n      swap1\n      sstore\n      pop\n      pop\n        /* \"contracts/CarreraCoches/principal.sol\":6909:6928  return \"Has ganado\" */\n      mload(0x40)\n      dup1\n      0x40\n      add\n      0x40\n      mstore\n      dup1\n      0x0a\n      dup2\n      mstore\n      0x20\n      add\n      0x4861732067616e61646f00000000000000000000000000000000000000000000\n      dup2\n      mstore\n      pop\n      swap6\n      pop\n      pop\n      pop\n      pop\n      pop\n      pop\n      jump(tag_192)\n        /* \"contracts/CarreraCoches/principal.sol\":6707:7399  if(ganador<=40){\r... */\n    tag_276:\n        /* \"contracts/CarreraCoches/principal.sol\":6996:7046  confirmacionDepositoLleno(\"El coche ganador es: \") */\n      0x6158fc8f21c8cc73ddf920956cc75d0e8a48b4fc85817a0ba89eb3b6d2a75441\n      mload(0x40)\n      tag_287\n      swap1\n      tag_246\n      jump\t// in\n    tag_287:\n      mload(0x40)\n      dup1\n      swap2\n      sub\n      swap1\n      log1\n        /* \"contracts/CarreraCoches/principal.sol\":7077:7081  this */\n      address\n        /* \"contracts/CarreraCoches/principal.sol\":7077:7101  this.verCochePropietario */\n      0xffffffffffffffffffffffffffffffffffffffff\n      and\n      0xe172fca8\n        /* \"contracts/CarreraCoches/principal.sol\":7102:7114  addressRival */\n      dup6\n        /* \"contracts/CarreraCoches/principal.sol\":7077:7115  this.verCochePropietario(addressRival) */\n      mload(0x40)\n      dup3\n      0xffffffff\n      and\n      0xe0\n      shl\n      dup2\n      mstore\n      0x04\n      add\n      tag_288\n      swap2\n      swap1\n      tag_39\n      jump\t// in\n    tag_288:\n      0x00\n      mload(0x40)\n      dup1\n      dup4\n      sub\n      dup2\n      0x00\n      dup8\n      dup1\n      extcodesize\n      iszero\n      dup1\n      iszero\n      tag_289\n      jumpi\n      0x00\n      dup1\n      revert\n    tag_289:\n      pop\n      gas\n      call\n      iszero\n      dup1\n      iszero\n      tag_291\n      jumpi\n      returndatasize\n      0x00\n      dup1\n      returndatacopy\n      revert(0x00, returndatasize)\n    tag_291:\n      pop\n      pop\n      pop\n      pop\n        /* \"contracts/CarreraCoches/principal.sol\":7351:7371  return \"Has perdido\" */\n      mload(0x40)\n      dup1\n      0x40\n      add\n      0x40\n      mstore\n      dup1\n      0x0b\n      dup2\n      mstore\n      0x20\n      add\n      0x486173207065726469646f000000000000000000000000000000000000000000\n      dup2\n      mstore\n      pop\n      swap6\n      pop\n      pop\n      pop\n      pop\n      pop\n      pop\n      jump(tag_192)\n        /* \"contracts/CarreraCoches/principal.sol\":5085:7446  if (msg.sender == listaCoches[i].idPiloto) {\r... */\n    tag_212:\n        /* \"contracts/CarreraCoches/principal.sol\":4984:4987  i++ */\n      dup1\n      dup1\n      tag_292\n      swap1\n      tag_153\n      jump\t// in\n    tag_292:\n      swap2\n      pop\n      pop\n        /* \"contracts/CarreraCoches/principal.sol\":4944:7479  for(uint i = 0; i < listaCoches.length; i++){\r... */\n      jump(tag_206)\n    tag_207:\n      pop\n        /* \"contracts/CarreraCoches/principal.sol\":4404:7490  {\r... */\n      pop\n      pop\n      pop\n      pop\n        /* \"contracts/CarreraCoches/principal.sol\":4264:7490  if(listaCoches.length <= 1){\r... */\n    tag_196:\n        /* \"contracts/CarreraCoches/principal.sol\":4168:7496  function Apostar(uint dineroApostar) public payable returns(string memory) {\r... */\n    tag_192:\n      swap2\n      swap1\n      pop\n      jump\t// out\n        /* \"contracts/CarreraCoches/cocheToken.sol\":961:1098  function balanceOf(address _owner) external override view returns (uint256 _balance){\r... */\n    tag_80:\n        /* \"contracts/CarreraCoches/cocheToken.sol\":1028:1044  uint256 _balance */\n      0x00\n        /* \"contracts/CarreraCoches/cocheToken.sol\":1063:1082  numeroCochesPersona */\n      0x08\n        /* \"contracts/CarreraCoches/cocheToken.sol\":1063:1090  numeroCochesPersona[_owner] */\n      0x00\n        /* \"contracts/CarreraCoches/cocheToken.sol\":1083:1089  _owner */\n      dup4\n        /* \"contracts/CarreraCoches/cocheToken.sol\":1063:1090  numeroCochesPersona[_owner] */\n      0xffffffffffffffffffffffffffffffffffffffff\n      and\n      0xffffffffffffffffffffffffffffffffffffffff\n      and\n      dup2\n      mstore\n      0x20\n      add\n      swap1\n      dup2\n      mstore\n      0x20\n      add\n      0x00\n      keccak256\n      sload\n        /* \"contracts/CarreraCoches/cocheToken.sol\":1056:1090  return numeroCochesPersona[_owner] */\n      swap1\n      pop\n        /* \"contracts/CarreraCoches/cocheToken.sol\":961:1098  function balanceOf(address _owner) external override view returns (uint256 _balance){\r... */\n      swap2\n      swap1\n      pop\n      jump\t// out\n        /* \"contracts/CarreraCoches/ownable.sol\":1719:1822  function renounceOwnership() public virtual onlyOwner {\r... */\n    tag_84:\n        /* \"contracts/CarreraCoches/ownable.sol\":1299:1311  _msgSender() */\n      tag_295\n        /* \"contracts/CarreraCoches/ownable.sol\":1299:1309  _msgSender */\n      tag_296\n        /* \"contracts/CarreraCoches/ownable.sol\":1299:1311  _msgSender() */\n      jump\t// in\n    tag_295:\n        /* \"contracts/CarreraCoches/ownable.sol\":1288:1311  owner() == _msgSender() */\n      0xffffffffffffffffffffffffffffffffffffffff\n      and\n        /* \"contracts/CarreraCoches/ownable.sol\":1288:1295  owner() */\n      tag_297\n        /* \"contracts/CarreraCoches/ownable.sol\":1288:1293  owner */\n      tag_92\n        /* \"contracts/CarreraCoches/ownable.sol\":1288:1295  owner() */\n      jump\t// in\n    tag_297:\n        /* \"contracts/CarreraCoches/ownable.sol\":1288:1311  owner() == _msgSender() */\n      0xffffffffffffffffffffffffffffffffffffffff\n      and\n      eq\n        /* \"contracts/CarreraCoches/ownable.sol\":1280:1348  require(owner() == _msgSender(), \"Ownable: caller is not the owner\") */\n      tag_298\n      jumpi\n      mload(0x40)\n      0x08c379a000000000000000000000000000000000000000000000000000000000\n      dup2\n      mstore\n      0x04\n      add\n      tag_299\n      swap1\n      tag_300\n      jump\t// in\n    tag_299:\n      mload(0x40)\n      dup1\n      swap2\n      sub\n      swap1\n      revert\n    tag_298:\n        /* \"contracts/CarreraCoches/ownable.sol\":1784:1814  _transferOwnership(address(0)) */\n      tag_302\n        /* \"contracts/CarreraCoches/ownable.sol\":1811:1812  0 */\n      0x00\n        /* \"contracts/CarreraCoches/ownable.sol\":1784:1802  _transferOwnership */\n      tag_303\n        /* \"contracts/CarreraCoches/ownable.sol\":1784:1814  _transferOwnership(address(0)) */\n      jump\t// in\n    tag_302:\n        /* \"contracts/CarreraCoches/ownable.sol\":1719:1822  function renounceOwnership() public virtual onlyOwner {\r... */\n      jump\t// out\n        /* \"contracts/CarreraCoches/principal.sol\":871:922  mapping (uint => address) public cocheDePropietario */\n    tag_88:\n      mstore(0x20, 0x07)\n      dup1\n      0x00\n      mstore\n      keccak256(0x00, 0x40)\n      0x00\n      swap2\n      pop\n      sload\n      swap1\n      0x0100\n      exp\n      swap1\n      div\n      0xffffffffffffffffffffffffffffffffffffffff\n      and\n      dup2\n      jump\t// out\n        /* \"contracts/CarreraCoches/ownable.sol\":1068:1155  function owner() public view virtual returns (address) {\r... */\n    tag_92:\n        /* \"contracts/CarreraCoches/ownable.sol\":1114:1121  address */\n      0x00\n        /* \"contracts/CarreraCoches/ownable.sol\":1141:1147  _owner */\n      dup1\n      0x00\n      swap1\n      sload\n      swap1\n      0x0100\n      exp\n      swap1\n      div\n      0xffffffffffffffffffffffffffffffffffffffff\n      and\n        /* \"contracts/CarreraCoches/ownable.sol\":1134:1147  return _owner */\n      swap1\n      pop\n        /* \"contracts/CarreraCoches/ownable.sol\":1068:1155  function owner() public view virtual returns (address) {\r... */\n      swap1\n      jump\t// out\n        /* \"contracts/CarreraCoches/cocheToken.sol\":1953:2042  function setApprovalForAll(address _operator, bool _approved) external override{\r... */\n    tag_98:\n      pop\n      pop\n      jump\t// out\n        /* \"contracts/CarreraCoches/ownable.sol\":701:722  address public _owner */\n    tag_101:\n      0x00\n      dup1\n      sload\n      swap1\n      0x0100\n      exp\n      swap1\n      div\n      0xffffffffffffffffffffffffffffffffffffffff\n      and\n      dup2\n      jump\t// out\n        /* \"contracts/CarreraCoches/cocheToken.sol\":2262:2506  function takeOwnership(uint256 _tokenId) public {\r... */\n    tag_106:\n        /* \"contracts/CarreraCoches/cocheToken.sol\":2365:2375  msg.sender */\n      caller\n        /* \"contracts/CarreraCoches/cocheToken.sol\":2329:2375  confirmarTransferencia[_tokenId] == msg.sender */\n      0xffffffffffffffffffffffffffffffffffffffff\n      and\n        /* \"contracts/CarreraCoches/cocheToken.sol\":2329:2351  confirmarTransferencia */\n      0x09\n        /* \"contracts/CarreraCoches/cocheToken.sol\":2329:2361  confirmarTransferencia[_tokenId] */\n      0x00\n        /* \"contracts/CarreraCoches/cocheToken.sol\":2352:2360  _tokenId */\n      dup4\n        /* \"contracts/CarreraCoches/cocheToken.sol\":2329:2361  confirmarTransferencia[_tokenId] */\n      dup2\n      mstore\n      0x20\n      add\n      swap1\n      dup2\n      mstore\n      0x20\n      add\n      0x00\n      keccak256\n      0x00\n      swap1\n      sload\n      swap1\n      0x0100\n      exp\n      swap1\n      div\n      0xffffffffffffffffffffffffffffffffffffffff\n      and\n        /* \"contracts/CarreraCoches/cocheToken.sol\":2329:2375  confirmarTransferencia[_tokenId] == msg.sender */\n      0xffffffffffffffffffffffffffffffffffffffff\n      and\n      eq\n        /* \"contracts/CarreraCoches/cocheToken.sol\":2321:2376  require(confirmarTransferencia[_tokenId] == msg.sender) */\n      tag_307\n      jumpi\n      0x00\n      dup1\n      revert\n    tag_307:\n        /* \"contracts/CarreraCoches/cocheToken.sol\":2387:2406  address propietario */\n      0x00\n        /* \"contracts/CarreraCoches/cocheToken.sol\":2409:2413  this */\n      address\n        /* \"contracts/CarreraCoches/cocheToken.sol\":2409:2421  this.ownerOf */\n      0xffffffffffffffffffffffffffffffffffffffff\n      and\n      0x6352211e\n        /* \"contracts/CarreraCoches/cocheToken.sol\":2422:2430  _tokenId */\n      dup4\n        /* \"contracts/CarreraCoches/cocheToken.sol\":2409:2431  this.ownerOf(_tokenId) */\n      mload(0x40)\n      dup3\n      0xffffffff\n      and\n      0xe0\n      shl\n      dup2\n      mstore\n      0x04\n      add\n      tag_308\n      swap2\n      swap1\n      tag_50\n      jump\t// in\n    tag_308:\n      0x20\n      mload(0x40)\n      dup1\n      dup4\n      sub\n      dup2\n      dup7\n      dup1\n      extcodesize\n      iszero\n      dup1\n      iszero\n      tag_309\n      jumpi\n      0x00\n      dup1\n      revert\n    tag_309:\n      pop\n      gas\n      staticcall\n      iszero\n      dup1\n      iszero\n      tag_311\n      jumpi\n      returndatasize\n      0x00\n      dup1\n      returndatacopy\n      revert(0x00, returndatasize)\n    tag_311:\n      pop\n      pop\n      pop\n      pop\n      mload(0x40)\n      returndatasize\n      not(0x1f)\n      0x1f\n      dup3\n      add\n      and\n      dup3\n      add\n      dup1\n      0x40\n      mstore\n      pop\n      dup2\n      add\n      swap1\n      tag_312\n      swap2\n      swap1\n      tag_313\n      jump\t// in\n    tag_312:\n        /* \"contracts/CarreraCoches/cocheToken.sol\":2387:2431  address propietario = this.ownerOf(_tokenId) */\n      swap1\n      pop\n        /* \"contracts/CarreraCoches/cocheToken.sol\":2442:2446  this */\n      address\n        /* \"contracts/CarreraCoches/cocheToken.sol\":2442:2463  this.safeTransferFrom */\n      0xffffffffffffffffffffffffffffffffffffffff\n      and\n      0x42842e0e\n        /* \"contracts/CarreraCoches/cocheToken.sol\":2464:2475  propietario */\n      dup3\n        /* \"contracts/CarreraCoches/cocheToken.sol\":2477:2487  msg.sender */\n      caller\n        /* \"contracts/CarreraCoches/cocheToken.sol\":2489:2497  _tokenId */\n      dup6\n        /* \"contracts/CarreraCoches/cocheToken.sol\":2442:2498  this.safeTransferFrom(propietario, msg.sender, _tokenId) */\n      mload(0x40)\n      dup5\n      0xffffffff\n      and\n      0xe0\n      shl\n      dup2\n      mstore\n      0x04\n      add\n      tag_314\n      swap4\n      swap3\n      swap2\n      swap1\n      tag_315\n      jump\t// in\n    tag_314:\n      0x00\n      mload(0x40)\n      dup1\n      dup4\n      sub\n      dup2\n      0x00\n      dup8\n      dup1\n      extcodesize\n      iszero\n      dup1\n      iszero\n      tag_316\n      jumpi\n      0x00\n      dup1\n      revert\n    tag_316:\n      pop\n      gas\n      call\n      iszero\n      dup1\n      iszero\n      tag_318\n      jumpi\n      returndatasize\n      0x00\n      dup1\n      returndatacopy\n      revert(0x00, returndatasize)\n    tag_318:\n      pop\n      pop\n      pop\n      pop\n        /* \"contracts/CarreraCoches/cocheToken.sol\":2310:2506  {\r... */\n      pop\n        /* \"contracts/CarreraCoches/cocheToken.sol\":2262:2506  function takeOwnership(uint256 _tokenId) public {\r... */\n      pop\n      jump\t// out\n        /* \"contracts/CarreraCoches/cocheToken.sol\":1246:1372  function safeTransferFrom(address _from, address _to, uint256 _tokenId, bytes memory data) external override payable{\r... */\n    tag_110:\n      pop\n      pop\n      pop\n      pop\n      jump\t// out\n        /* \"contracts/CarreraCoches/principal.sol\":604:630  Coche[] public listaCoches */\n    tag_114:\n      0x06\n      dup2\n      dup2\n      sload\n      dup2\n      lt\n      tag_320\n      jumpi\n      0x00\n      dup1\n      revert\n    tag_320:\n      swap1\n      0x00\n      mstore\n      keccak256(0x00, 0x20)\n      swap1\n      0x08\n      mul\n      add\n      0x00\n      swap2\n      pop\n      swap1\n      pop\n      dup1\n      0x00\n      add\n      0x00\n      swap1\n      sload\n      swap1\n      0x0100\n      exp\n      swap1\n      div\n      0xffffffffffffffffffffffffffffffffffffffff\n      and\n      swap1\n      dup1\n      0x01\n      add\n      dup1\n      sload\n      tag_322\n      swap1\n      tag_323\n      jump\t// in\n    tag_322:\n      dup1\n      0x1f\n      add\n      0x20\n      dup1\n      swap2\n      div\n      mul\n      0x20\n      add\n      mload(0x40)\n      swap1\n      dup2\n      add\n      0x40\n      mstore\n      dup1\n      swap3\n      swap2\n      swap1\n      dup2\n      dup2\n      mstore\n      0x20\n      add\n      dup3\n      dup1\n      sload\n      tag_324\n      swap1\n      tag_323\n      jump\t// in\n    tag_324:\n      dup1\n      iszero\n      tag_325\n      jumpi\n      dup1\n      0x1f\n      lt\n      tag_326\n      jumpi\n      0x0100\n      dup1\n      dup4\n      sload\n      div\n      mul\n      dup4\n      mstore\n      swap2\n      0x20\n      add\n      swap2\n      jump(tag_325)\n    tag_326:\n      dup3\n      add\n      swap2\n      swap1\n      0x00\n      mstore\n      keccak256(0x00, 0x20)\n      swap1\n    tag_327:\n      dup2\n      sload\n      dup2\n      mstore\n      swap1\n      0x01\n      add\n      swap1\n      0x20\n      add\n      dup1\n      dup4\n      gt\n      tag_327\n      jumpi\n      dup3\n      swap1\n      sub\n      0x1f\n      and\n      dup3\n      add\n      swap2\n    tag_325:\n      pop\n      pop\n      pop\n      pop\n      pop\n      swap1\n      dup1\n      0x02\n      add\n      dup1\n      sload\n      tag_328\n      swap1\n      tag_323\n      jump\t// in\n    tag_328:\n      dup1\n      0x1f\n      add\n      0x20\n      dup1\n      swap2\n      div\n      mul\n      0x20\n      add\n      mload(0x40)\n      swap1\n      dup2\n      add\n      0x40\n      mstore\n      dup1\n      swap3\n      swap2\n      swap1\n      dup2\n      dup2\n      mstore\n      0x20\n      add\n      dup3\n      dup1\n      sload\n      tag_329\n      swap1\n      tag_323\n      jump\t// in\n    tag_329:\n      dup1\n      iszero\n      tag_330\n      jumpi\n      dup1\n      0x1f\n      lt\n      tag_331\n      jumpi\n      0x0100\n      dup1\n      dup4\n      sload\n      div\n      mul\n      dup4\n      mstore\n      swap2\n      0x20\n      add\n      swap2\n      jump(tag_330)\n    tag_331:\n      dup3\n      add\n      swap2\n      swap1\n      0x00\n      mstore\n      keccak256(0x00, 0x20)\n      swap1\n    tag_332:\n      dup2\n      sload\n      dup2\n      mstore\n      swap1\n      0x01\n      add\n      swap1\n      0x20\n      add\n      dup1\n      dup4\n      gt\n      tag_332\n      jumpi\n      dup3\n      swap1\n      sub\n      0x1f\n      and\n      dup3\n      add\n      swap2\n    tag_330:\n      pop\n      pop\n      pop\n      pop\n      pop\n      swap1\n      dup1\n      0x03\n      add\n      dup1\n      sload\n      tag_333\n      swap1\n      tag_323\n      jump\t// in\n    tag_333:\n      dup1\n      0x1f\n      add\n      0x20\n      dup1\n      swap2\n      div\n      mul\n      0x20\n      add\n      mload(0x40)\n      swap1\n      dup2\n      add\n      0x40\n      mstore\n      dup1\n      swap3\n      swap2\n      swap1\n      dup2\n      dup2\n      mstore\n      0x20\n      add\n      dup3\n      dup1\n      sload\n      tag_334\n      swap1\n      tag_323\n      jump\t// in\n    tag_334:\n      dup1\n      iszero\n      tag_335\n      jumpi\n      dup1\n      0x1f\n      lt\n      tag_336\n      jumpi\n      0x0100\n      dup1\n      dup4\n      sload\n      div\n      mul\n      dup4\n      mstore\n      swap2\n      0x20\n      add\n      swap2\n      jump(tag_335)\n    tag_336:\n      dup3\n      add\n      swap2\n      swap1\n      0x00\n      mstore\n      keccak256(0x00, 0x20)\n      swap1\n    tag_337:\n      dup2\n      sload\n      dup2\n      mstore\n      swap1\n      0x01\n      add\n      swap1\n      0x20\n      add\n      dup1\n      dup4\n      gt\n      tag_337\n      jumpi\n      dup3\n      swap1\n      sub\n      0x1f\n      and\n      dup3\n      add\n      swap2\n    tag_335:\n      pop\n      pop\n      pop\n      pop\n      pop\n      swap1\n      dup1\n      0x04\n      add\n      sload\n      swap1\n      dup1\n      0x05\n      add\n      sload\n      swap1\n      dup1\n      0x06\n      add\n      sload\n      swap1\n      dup1\n      0x07\n      add\n      0x00\n      swap1\n      sload\n      swap1\n      0x0100\n      exp\n      swap1\n      div\n      0xffffffff\n      and\n      swap1\n      pop\n      dup9\n      jump\t// out\n        /* \"contracts/CarreraCoches/principal.sol\":2912:3288  function verCochePropietario(address _propietario) external {\r... */\n    tag_120:\n        /* \"contracts/CarreraCoches/principal.sol\":2987:2993  uint i */\n      0x00\n        /* \"contracts/CarreraCoches/principal.sol\":2983:3281  for(uint i = 0; i < listaCoches.length; i++){\r... */\n    tag_339:\n        /* \"contracts/CarreraCoches/principal.sol\":3003:3014  listaCoches */\n      0x06\n        /* \"contracts/CarreraCoches/principal.sol\":3003:3021  listaCoches.length */\n      dup1\n      sload\n      swap1\n      pop\n        /* \"contracts/CarreraCoches/principal.sol\":2999:3000  i */\n      dup2\n        /* \"contracts/CarreraCoches/principal.sol\":2999:3021  i < listaCoches.length */\n      lt\n        /* \"contracts/CarreraCoches/principal.sol\":2983:3281  for(uint i = 0; i < listaCoches.length; i++){\r... */\n      iszero\n      tag_340\n      jumpi\n        /* \"contracts/CarreraCoches/principal.sol\":3070:3082  _propietario */\n      dup2\n        /* \"contracts/CarreraCoches/principal.sol\":3045:3082  listaCoches[i].idPiloto==_propietario */\n      0xffffffffffffffffffffffffffffffffffffffff\n      and\n        /* \"contracts/CarreraCoches/principal.sol\":3045:3056  listaCoches */\n      0x06\n        /* \"contracts/CarreraCoches/principal.sol\":3057:3058  i */\n      dup3\n        /* \"contracts/CarreraCoches/principal.sol\":3045:3059  listaCoches[i] */\n      dup2\n      sload\n      dup2\n      lt\n      tag_342\n      jumpi\n      tag_343\n      tag_140\n      jump\t// in\n    tag_343:\n    tag_342:\n      swap1\n      0x00\n      mstore\n      keccak256(0x00, 0x20)\n      swap1\n      0x08\n      mul\n      add\n        /* \"contracts/CarreraCoches/principal.sol\":3045:3068  listaCoches[i].idPiloto */\n      0x00\n      add\n      0x00\n      swap1\n      sload\n      swap1\n      0x0100\n      exp\n      swap1\n      div\n      0xffffffffffffffffffffffffffffffffffffffff\n      and\n        /* \"contracts/CarreraCoches/principal.sol\":3045:3082  listaCoches[i].idPiloto==_propietario */\n      0xffffffffffffffffffffffffffffffffffffffff\n      and\n      eq\n        /* \"contracts/CarreraCoches/principal.sol\":3042:3270  if(listaCoches[i].idPiloto==_propietario){\r... */\n      iszero\n      tag_345\n      jumpi\n        /* \"contracts/CarreraCoches/principal.sol\":3107:3254  cochePropietario(listaCoches[i].marca, listaCoches[i].modelo, listaCoches[i].nivel, listaCoches[i].carrerasGanadas, listaCoches[i].carrerasTotales) */\n      0x20fdb8ab571bfbab79104bea84f9c31cb79c5ae45b5f515c1d6c8393e0028350\n        /* \"contracts/CarreraCoches/principal.sol\":3124:3135  listaCoches */\n      0x06\n        /* \"contracts/CarreraCoches/principal.sol\":3136:3137  i */\n      dup3\n        /* \"contracts/CarreraCoches/principal.sol\":3124:3138  listaCoches[i] */\n      dup2\n      sload\n      dup2\n      lt\n      tag_346\n      jumpi\n      tag_347\n      tag_140\n      jump\t// in\n    tag_347:\n    tag_346:\n      swap1\n      0x00\n      mstore\n      keccak256(0x00, 0x20)\n      swap1\n      0x08\n      mul\n      add\n        /* \"contracts/CarreraCoches/principal.sol\":3124:3144  listaCoches[i].marca */\n      0x02\n      add\n        /* \"contracts/CarreraCoches/principal.sol\":3146:3157  listaCoches */\n      0x06\n        /* \"contracts/CarreraCoches/principal.sol\":3158:3159  i */\n      dup4\n        /* \"contracts/CarreraCoches/principal.sol\":3146:3160  listaCoches[i] */\n      dup2\n      sload\n      dup2\n      lt\n      tag_349\n      jumpi\n      tag_350\n      tag_140\n      jump\t// in\n    tag_350:\n    tag_349:\n      swap1\n      0x00\n      mstore\n      keccak256(0x00, 0x20)\n      swap1\n      0x08\n      mul\n      add\n        /* \"contracts/CarreraCoches/principal.sol\":3146:3167  listaCoches[i].modelo */\n      0x01\n      add\n        /* \"contracts/CarreraCoches/principal.sol\":3169:3180  listaCoches */\n      0x06\n        /* \"contracts/CarreraCoches/principal.sol\":3181:3182  i */\n      dup5\n        /* \"contracts/CarreraCoches/principal.sol\":3169:3183  listaCoches[i] */\n      dup2\n      sload\n      dup2\n      lt\n      tag_352\n      jumpi\n      tag_353\n      tag_140\n      jump\t// in\n    tag_353:\n    tag_352:\n      swap1\n      0x00\n      mstore\n      keccak256(0x00, 0x20)\n      swap1\n      0x08\n      mul\n      add\n        /* \"contracts/CarreraCoches/principal.sol\":3169:3189  listaCoches[i].nivel */\n      0x07\n      add\n      0x00\n      swap1\n      sload\n      swap1\n      0x0100\n      exp\n      swap1\n      div\n      0xffffffff\n      and\n        /* \"contracts/CarreraCoches/principal.sol\":3191:3202  listaCoches */\n      0x06\n        /* \"contracts/CarreraCoches/principal.sol\":3203:3204  i */\n      dup6\n        /* \"contracts/CarreraCoches/principal.sol\":3191:3205  listaCoches[i] */\n      dup2\n      sload\n      dup2\n      lt\n      tag_355\n      jumpi\n      tag_356\n      tag_140\n      jump\t// in\n    tag_356:\n    tag_355:\n      swap1\n      0x00\n      mstore\n      keccak256(0x00, 0x20)\n      swap1\n      0x08\n      mul\n      add\n        /* \"contracts/CarreraCoches/principal.sol\":3191:3221  listaCoches[i].carrerasGanadas */\n      0x04\n      add\n      sload\n        /* \"contracts/CarreraCoches/principal.sol\":3223:3234  listaCoches */\n      0x06\n        /* \"contracts/CarreraCoches/principal.sol\":3235:3236  i */\n      dup7\n        /* \"contracts/CarreraCoches/principal.sol\":3223:3237  listaCoches[i] */\n      dup2\n      sload\n      dup2\n      lt\n      tag_358\n      jumpi\n      tag_359\n      tag_140\n      jump\t// in\n    tag_359:\n    tag_358:\n      swap1\n      0x00\n      mstore\n      keccak256(0x00, 0x20)\n      swap1\n      0x08\n      mul\n      add\n        /* \"contracts/CarreraCoches/principal.sol\":3223:3253  listaCoches[i].carrerasTotales */\n      0x05\n      add\n      sload\n        /* \"contracts/CarreraCoches/principal.sol\":3107:3254  cochePropietario(listaCoches[i].marca, listaCoches[i].modelo, listaCoches[i].nivel, listaCoches[i].carrerasGanadas, listaCoches[i].carrerasTotales) */\n      mload(0x40)\n      tag_361\n      swap6\n      swap5\n      swap4\n      swap3\n      swap2\n      swap1\n      tag_362\n      jump\t// in\n    tag_361:\n      mload(0x40)\n      dup1\n      swap2\n      sub\n      swap1\n      log1\n        /* \"contracts/CarreraCoches/principal.sol\":3042:3270  if(listaCoches[i].idPiloto==_propietario){\r... */\n    tag_345:\n        /* \"contracts/CarreraCoches/principal.sol\":3023:3026  i++ */\n      dup1\n      dup1\n      tag_363\n      swap1\n      tag_153\n      jump\t// in\n    tag_363:\n      swap2\n      pop\n      pop\n        /* \"contracts/CarreraCoches/principal.sol\":2983:3281  for(uint i = 0; i < listaCoches.length; i++){\r... */\n      jump(tag_339)\n    tag_340:\n      pop\n        /* \"contracts/CarreraCoches/principal.sol\":2912:3288  function verCochePropietario(address _propietario) external {\r... */\n      pop\n      jump\t// out\n        /* \"contracts/CarreraCoches/cocheToken.sol\":2143:2251  function isApprovedForAll(address _owner, address _operator) external override view returns (bool){\r... */\n    tag_125:\n        /* \"contracts/CarreraCoches/cocheToken.sol\":2236:2240  bool */\n      0x00\n        /* \"contracts/CarreraCoches/cocheToken.sol\":2143:2251  function isApprovedForAll(address _owner, address _operator) external override view returns (bool){\r... */\n      swap3\n      swap2\n      pop\n      pop\n      jump\t// out\n        /* \"contracts/CarreraCoches/ownable.sol\":1977:2178  function transferOwnership(address newOwner) public virtual onlyOwner {\r... */\n    tag_131:\n        /* \"contracts/CarreraCoches/ownable.sol\":1299:1311  _msgSender() */\n      tag_366\n        /* \"contracts/CarreraCoches/ownable.sol\":1299:1309  _msgSender */\n      tag_296\n        /* \"contracts/CarreraCoches/ownable.sol\":1299:1311  _msgSender() */\n      jump\t// in\n    tag_366:\n        /* \"contracts/CarreraCoches/ownable.sol\":1288:1311  owner() == _msgSender() */\n      0xffffffffffffffffffffffffffffffffffffffff\n      and\n        /* \"contracts/CarreraCoches/ownable.sol\":1288:1295  owner() */\n      tag_367\n        /* \"contracts/CarreraCoches/ownable.sol\":1288:1293  owner */\n      tag_92\n        /* \"contracts/CarreraCoches/ownable.sol\":1288:1295  owner() */\n      jump\t// in\n    tag_367:\n        /* \"contracts/CarreraCoches/ownable.sol\":1288:1311  owner() == _msgSender() */\n      0xffffffffffffffffffffffffffffffffffffffff\n      and\n      eq\n        /* \"contracts/CarreraCoches/ownable.sol\":1280:1348  require(owner() == _msgSender(), \"Ownable: caller is not the owner\") */\n      tag_368\n      jumpi\n      mload(0x40)\n      0x08c379a000000000000000000000000000000000000000000000000000000000\n      dup2\n      mstore\n      0x04\n      add\n      tag_369\n      swap1\n      tag_300\n      jump\t// in\n    tag_369:\n      mload(0x40)\n      dup1\n      swap2\n      sub\n      swap1\n      revert\n    tag_368:\n        /* \"contracts/CarreraCoches/ownable.sol\":2086:2087  0 */\n      0x00\n        /* \"contracts/CarreraCoches/ownable.sol\":2066:2088  newOwner != address(0) */\n      0xffffffffffffffffffffffffffffffffffffffff\n      and\n        /* \"contracts/CarreraCoches/ownable.sol\":2066:2074  newOwner */\n      dup2\n        /* \"contracts/CarreraCoches/ownable.sol\":2066:2088  newOwner != address(0) */\n      0xffffffffffffffffffffffffffffffffffffffff\n      and\n      eq\n      iszero\n        /* \"contracts/CarreraCoches/ownable.sol\":2058:2131  require(newOwner != address(0), \"Ownable: new owner is the zero address\") */\n      tag_371\n      jumpi\n      mload(0x40)\n      0x08c379a000000000000000000000000000000000000000000000000000000000\n      dup2\n      mstore\n      0x04\n      add\n      tag_372\n      swap1\n      tag_373\n      jump\t// in\n    tag_372:\n      mload(0x40)\n      dup1\n      swap2\n      sub\n      swap1\n      revert\n    tag_371:\n        /* \"contracts/CarreraCoches/ownable.sol\":2142:2170  _transferOwnership(newOwner) */\n      tag_374\n        /* \"contracts/CarreraCoches/ownable.sol\":2161:2169  newOwner */\n      dup2\n        /* \"contracts/CarreraCoches/ownable.sol\":2142:2160  _transferOwnership */\n      tag_303\n        /* \"contracts/CarreraCoches/ownable.sol\":2142:2170  _transferOwnership(newOwner) */\n      jump\t// in\n    tag_374:\n        /* \"contracts/CarreraCoches/ownable.sol\":1977:2178  function transferOwnership(address newOwner) public virtual onlyOwner {\r... */\n      pop\n      jump\t// out\n        /* \"contracts/CarreraCoches/principal.sol\":2245:2372  function _repostando(Coche storage _coche) internal {\r... */\n    tag_225:\n        /* \"contracts/CarreraCoches/principal.sol\":2355:2363  cooldown */\n      sload(0x03)\n        /* \"contracts/CarreraCoches/principal.sol\":2337:2352  block.timestamp */\n      timestamp\n        /* \"contracts/CarreraCoches/principal.sol\":2337:2363  block.timestamp + cooldown */\n      tag_376\n      swap2\n      swap1\n      tag_163\n      jump\t// in\n    tag_376:\n        /* \"contracts/CarreraCoches/principal.sol\":2308:2364  _coche.tiempoEspera = uint32(block.timestamp + cooldown) */\n      0xffffffff\n      and\n        /* \"contracts/CarreraCoches/principal.sol\":2308:2314  _coche */\n      dup2\n        /* \"contracts/CarreraCoches/principal.sol\":2308:2327  _coche.tiempoEspera */\n      0x06\n      add\n        /* \"contracts/CarreraCoches/principal.sol\":2308:2364  _coche.tiempoEspera = uint32(block.timestamp + cooldown) */\n      dup2\n      swap1\n      sstore\n      pop\n        /* \"contracts/CarreraCoches/principal.sol\":2245:2372  function _repostando(Coche storage _coche) internal {\r... */\n      pop\n      jump\t// out\n        /* \"contracts/CarreraCoches/principal.sol\":7553:7651  function balance() private {\r... */\n    tag_235:\n        /* \"contracts/CarreraCoches/principal.sol\":7600:7610  msg.sender */\n      caller\n        /* \"contracts/CarreraCoches/principal.sol\":7591:7620  payable (msg.sender).transfer */\n      0xffffffffffffffffffffffffffffffffffffffff\n      and\n        /* \"contracts/CarreraCoches/principal.sol\":7591:7643  payable (msg.sender).transfer(address(this).balance) */\n      0x08fc\n        /* \"contracts/CarreraCoches/principal.sol\":7621:7642  address(this).balance */\n      selfbalance\n        /* \"contracts/CarreraCoches/principal.sol\":7591:7643  payable (msg.sender).transfer(address(this).balance) */\n      swap1\n      dup2\n      iszero\n      mul\n      swap1\n      mload(0x40)\n      0x00\n      mload(0x40)\n      dup1\n      dup4\n      sub\n      dup2\n      dup6\n      dup9\n      dup9\n      call\n      swap4\n      pop\n      pop\n      pop\n      pop\n      iszero\n      dup1\n      iszero\n      tag_379\n      jumpi\n      returndatasize\n      0x00\n      dup1\n      returndatacopy\n      revert(0x00, returndatasize)\n    tag_379:\n      pop\n        /* \"contracts/CarreraCoches/principal.sol\":7553:7651  function balance() private {\r... */\n      jump\t// out\n        /* \"contracts/CarreraCoches/utils/Context.sol\":656:754  function _msgSender() internal view virtual returns (address) {\r... */\n    tag_296:\n        /* \"contracts/CarreraCoches/utils/Context.sol\":709:716  address */\n      0x00\n        /* \"contracts/CarreraCoches/utils/Context.sol\":736:746  msg.sender */\n      caller\n        /* \"contracts/CarreraCoches/utils/Context.sol\":729:746  return msg.sender */\n      swap1\n      pop\n        /* \"contracts/CarreraCoches/utils/Context.sol\":656:754  function _msgSender() internal view virtual returns (address) {\r... */\n      swap1\n      jump\t// out\n        /* \"contracts/CarreraCoches/ownable.sol\":2338:2529  function _transferOwnership(address newOwner) internal virtual {\r... */\n    tag_303:\n        /* \"contracts/CarreraCoches/ownable.sol\":2412:2428  address oldOwner */\n      0x00\n        /* \"contracts/CarreraCoches/ownable.sol\":2431:2437  _owner */\n      dup1\n      0x00\n      swap1\n      sload\n      swap1\n      0x0100\n      exp\n      swap1\n      div\n      0xffffffffffffffffffffffffffffffffffffffff\n      and\n        /* \"contracts/CarreraCoches/ownable.sol\":2412:2437  address oldOwner = _owner */\n      swap1\n      pop\n        /* \"contracts/CarreraCoches/ownable.sol\":2457:2465  newOwner */\n      dup2\n        /* \"contracts/CarreraCoches/ownable.sol\":2448:2454  _owner */\n      0x00\n      dup1\n        /* \"contracts/CarreraCoches/ownable.sol\":2448:2465  _owner = newOwner */\n      0x0100\n      exp\n      dup2\n      sload\n      dup2\n      0xffffffffffffffffffffffffffffffffffffffff\n      mul\n      not\n      and\n      swap1\n      dup4\n      0xffffffffffffffffffffffffffffffffffffffff\n      and\n      mul\n      or\n      swap1\n      sstore\n      pop\n        /* \"contracts/CarreraCoches/ownable.sol\":2512:2520  newOwner */\n      dup2\n        /* \"contracts/CarreraCoches/ownable.sol\":2481:2521  OwnershipTransferred(oldOwner, newOwner) */\n      0xffffffffffffffffffffffffffffffffffffffff\n      and\n        /* \"contracts/CarreraCoches/ownable.sol\":2502:2510  oldOwner */\n      dup2\n        /* \"contracts/CarreraCoches/ownable.sol\":2481:2521  OwnershipTransferred(oldOwner, newOwner) */\n      0xffffffffffffffffffffffffffffffffffffffff\n      and\n      0x8be0079c531659141344cd1fd0a4f28419497f9722a3daafe3b4186f6b6457e0\n      mload(0x40)\n      mload(0x40)\n      dup1\n      swap2\n      sub\n      swap1\n      log3\n        /* \"contracts/CarreraCoches/ownable.sol\":2401:2529  {\r... */\n      pop\n        /* \"contracts/CarreraCoches/ownable.sol\":2338:2529  function _transferOwnership(address newOwner) internal virtual {\r... */\n      pop\n      jump\t// out\n    tag_147:\n      dup3\n      dup1\n      sload\n      tag_382\n      swap1\n      tag_323\n      jump\t// in\n    tag_382:\n      swap1\n      0x00\n      mstore\n      keccak256(0x00, 0x20)\n      swap1\n      0x1f\n      add\n      0x20\n      swap1\n      div\n      dup2\n      add\n      swap3\n      dup3\n      tag_384\n      jumpi\n      0x00\n      dup6\n      sstore\n      jump(tag_383)\n    tag_384:\n      dup3\n      0x1f\n      lt\n      tag_385\n      jumpi\n      dup1\n      mload\n      not(0xff)\n      and\n      dup4\n      dup1\n      add\n      or\n      dup6\n      sstore\n      jump(tag_383)\n    tag_385:\n      dup3\n      dup1\n      add\n      0x01\n      add\n      dup6\n      sstore\n      dup3\n      iszero\n      tag_383\n      jumpi\n      swap2\n      dup3\n      add\n    tag_386:\n      dup3\n      dup2\n      gt\n      iszero\n      tag_387\n      jumpi\n      dup3\n      mload\n      dup3\n      sstore\n      swap2\n      0x20\n      add\n      swap2\n      swap1\n      0x01\n      add\n      swap1\n      jump(tag_386)\n    tag_387:\n    tag_383:\n      pop\n      swap1\n      pop\n      tag_388\n      swap2\n      swap1\n      tag_389\n      jump\t// in\n    tag_388:\n      pop\n      swap1\n      jump\t// out\n    tag_389:\n    tag_390:\n      dup1\n      dup3\n      gt\n      iszero\n      tag_391\n      jumpi\n      0x00\n      dup2\n      0x00\n      swap1\n      sstore\n      pop\n      0x01\n      add\n      jump(tag_390)\n    tag_391:\n      pop\n      swap1\n      jump\t// out\n        /* \"#utility.yul\":7:417   */\n    tag_393:\n        /* \"#utility.yul\":84:89   */\n      0x00\n        /* \"#utility.yul\":109:174   */\n      tag_395\n        /* \"#utility.yul\":125:173   */\n      tag_396\n        /* \"#utility.yul\":166:172   */\n      dup5\n        /* \"#utility.yul\":125:173   */\n      tag_397\n      jump\t// in\n    tag_396:\n        /* \"#utility.yul\":109:174   */\n      tag_398\n      jump\t// in\n    tag_395:\n        /* \"#utility.yul\":100:174   */\n      swap1\n      pop\n        /* \"#utility.yul\":197:203   */\n      dup3\n        /* \"#utility.yul\":190:195   */\n      dup2\n        /* \"#utility.yul\":183:204   */\n      mstore\n        /* \"#utility.yul\":235:239   */\n      0x20\n        /* \"#utility.yul\":228:233   */\n      dup2\n        /* \"#utility.yul\":224:240   */\n      add\n        /* \"#utility.yul\":273:276   */\n      dup5\n        /* \"#utility.yul\":264:270   */\n      dup5\n        /* \"#utility.yul\":259:262   */\n      dup5\n        /* \"#utility.yul\":255:271   */\n      add\n        /* \"#utility.yul\":252:277   */\n      gt\n        /* \"#utility.yul\":249:361   */\n      iszero\n      tag_399\n      jumpi\n        /* \"#utility.yul\":280:359   */\n      tag_400\n      tag_401\n      jump\t// in\n    tag_400:\n        /* \"#utility.yul\":249:361   */\n    tag_399:\n        /* \"#utility.yul\":370:411   */\n      tag_402\n        /* \"#utility.yul\":404:410   */\n      dup5\n        /* \"#utility.yul\":399:402   */\n      dup3\n        /* \"#utility.yul\":394:397   */\n      dup6\n        /* \"#utility.yul\":370:411   */\n      tag_403\n      jump\t// in\n    tag_402:\n        /* \"#utility.yul\":90:417   */\n      pop\n        /* \"#utility.yul\":7:417   */\n      swap4\n      swap3\n      pop\n      pop\n      pop\n      jump\t// out\n        /* \"#utility.yul\":423:835   */\n    tag_404:\n        /* \"#utility.yul\":501:506   */\n      0x00\n        /* \"#utility.yul\":526:592   */\n      tag_406\n        /* \"#utility.yul\":542:591   */\n      tag_407\n        /* \"#utility.yul\":584:590   */\n      dup5\n        /* \"#utility.yul\":542:591   */\n      tag_408\n      jump\t// in\n    tag_407:\n        /* \"#utility.yul\":526:592   */\n      tag_398\n      jump\t// in\n    tag_406:\n        /* \"#utility.yul\":517:592   */\n      swap1\n      pop\n        /* \"#utility.yul\":615:621   */\n      dup3\n        /* \"#utility.yul\":608:613   */\n      dup2\n        /* \"#utility.yul\":601:622   */\n      mstore\n        /* \"#utility.yul\":653:657   */\n      0x20\n        /* \"#utility.yul\":646:651   */\n      dup2\n        /* \"#utility.yul\":642:658   */\n      add\n        /* \"#utility.yul\":691:694   */\n      dup5\n        /* \"#utility.yul\":682:688   */\n      dup5\n        /* \"#utility.yul\":677:680   */\n      dup5\n        /* \"#utility.yul\":673:689   */\n      add\n        /* \"#utility.yul\":670:695   */\n      gt\n        /* \"#utility.yul\":667:779   */\n      iszero\n      tag_409\n      jumpi\n        /* \"#utility.yul\":698:777   */\n      tag_410\n      tag_401\n      jump\t// in\n    tag_410:\n        /* \"#utility.yul\":667:779   */\n    tag_409:\n        /* \"#utility.yul\":788:829   */\n      tag_411\n        /* \"#utility.yul\":822:828   */\n      dup5\n        /* \"#utility.yul\":817:820   */\n      dup3\n        /* \"#utility.yul\":812:815   */\n      dup6\n        /* \"#utility.yul\":788:829   */\n      tag_403\n      jump\t// in\n    tag_411:\n        /* \"#utility.yul\":507:835   */\n      pop\n        /* \"#utility.yul\":423:835   */\n      swap4\n      swap3\n      pop\n      pop\n      pop\n      jump\t// out\n        /* \"#utility.yul\":841:980   */\n    tag_412:\n        /* \"#utility.yul\":887:892   */\n      0x00\n        /* \"#utility.yul\":925:931   */\n      dup2\n        /* \"#utility.yul\":912:932   */\n      calldataload\n        /* \"#utility.yul\":903:932   */\n      swap1\n      pop\n        /* \"#utility.yul\":941:974   */\n      tag_414\n        /* \"#utility.yul\":968:973   */\n      dup2\n        /* \"#utility.yul\":941:974   */\n      tag_415\n      jump\t// in\n    tag_414:\n        /* \"#utility.yul\":841:980   */\n      swap3\n      swap2\n      pop\n      pop\n      jump\t// out\n        /* \"#utility.yul\":986:1129   */\n    tag_416:\n        /* \"#utility.yul\":1043:1048   */\n      0x00\n        /* \"#utility.yul\":1074:1080   */\n      dup2\n        /* \"#utility.yul\":1068:1081   */\n      mload\n        /* \"#utility.yul\":1059:1081   */\n      swap1\n      pop\n        /* \"#utility.yul\":1090:1123   */\n      tag_418\n        /* \"#utility.yul\":1117:1122   */\n      dup2\n        /* \"#utility.yul\":1090:1123   */\n      tag_415\n      jump\t// in\n    tag_418:\n        /* \"#utility.yul\":986:1129   */\n      swap3\n      swap2\n      pop\n      pop\n      jump\t// out\n        /* \"#utility.yul\":1135:1268   */\n    tag_419:\n        /* \"#utility.yul\":1178:1183   */\n      0x00\n        /* \"#utility.yul\":1216:1222   */\n      dup2\n        /* \"#utility.yul\":1203:1223   */\n      calldataload\n        /* \"#utility.yul\":1194:1223   */\n      swap1\n      pop\n        /* \"#utility.yul\":1232:1262   */\n      tag_421\n        /* \"#utility.yul\":1256:1261   */\n      dup2\n        /* \"#utility.yul\":1232:1262   */\n      tag_422\n      jump\t// in\n    tag_421:\n        /* \"#utility.yul\":1135:1268   */\n      swap3\n      swap2\n      pop\n      pop\n      jump\t// out\n        /* \"#utility.yul\":1287:1625   */\n    tag_423:\n        /* \"#utility.yul\":1342:1347   */\n      0x00\n        /* \"#utility.yul\":1391:1394   */\n      dup3\n        /* \"#utility.yul\":1384:1388   */\n      0x1f\n        /* \"#utility.yul\":1376:1382   */\n      dup4\n        /* \"#utility.yul\":1372:1389   */\n      add\n        /* \"#utility.yul\":1368:1395   */\n      slt\n        /* \"#utility.yul\":1358:1480   */\n      tag_425\n      jumpi\n        /* \"#utility.yul\":1399:1478   */\n      tag_426\n      tag_427\n      jump\t// in\n    tag_426:\n        /* \"#utility.yul\":1358:1480   */\n    tag_425:\n        /* \"#utility.yul\":1516:1522   */\n      dup2\n        /* \"#utility.yul\":1503:1523   */\n      calldataload\n        /* \"#utility.yul\":1541:1619   */\n      tag_428\n        /* \"#utility.yul\":1615:1618   */\n      dup5\n        /* \"#utility.yul\":1607:1613   */\n      dup3\n        /* \"#utility.yul\":1600:1604   */\n      0x20\n        /* \"#utility.yul\":1592:1598   */\n      dup7\n        /* \"#utility.yul\":1588:1605   */\n      add\n        /* \"#utility.yul\":1541:1619   */\n      tag_393\n      jump\t// in\n    tag_428:\n        /* \"#utility.yul\":1532:1619   */\n      swap2\n      pop\n        /* \"#utility.yul\":1348:1625   */\n      pop\n        /* \"#utility.yul\":1287:1625   */\n      swap3\n      swap2\n      pop\n      pop\n      jump\t// out\n        /* \"#utility.yul\":1645:1985   */\n    tag_429:\n        /* \"#utility.yul\":1701:1706   */\n      0x00\n        /* \"#utility.yul\":1750:1753   */\n      dup3\n        /* \"#utility.yul\":1743:1747   */\n      0x1f\n        /* \"#utility.yul\":1735:1741   */\n      dup4\n        /* \"#utility.yul\":1731:1748   */\n      add\n        /* \"#utility.yul\":1727:1754   */\n      slt\n        /* \"#utility.yul\":1717:1839   */\n      tag_431\n      jumpi\n        /* \"#utility.yul\":1758:1837   */\n      tag_432\n      tag_427\n      jump\t// in\n    tag_432:\n        /* \"#utility.yul\":1717:1839   */\n    tag_431:\n        /* \"#utility.yul\":1875:1881   */\n      dup2\n        /* \"#utility.yul\":1862:1882   */\n      calldataload\n        /* \"#utility.yul\":1900:1979   */\n      tag_433\n        /* \"#utility.yul\":1975:1978   */\n      dup5\n        /* \"#utility.yul\":1967:1973   */\n      dup3\n        /* \"#utility.yul\":1960:1964   */\n      0x20\n        /* \"#utility.yul\":1952:1958   */\n      dup7\n        /* \"#utility.yul\":1948:1965   */\n      add\n        /* \"#utility.yul\":1900:1979   */\n      tag_404\n      jump\t// in\n    tag_433:\n        /* \"#utility.yul\":1891:1979   */\n      swap2\n      pop\n        /* \"#utility.yul\":1707:1985   */\n      pop\n        /* \"#utility.yul\":1645:1985   */\n      swap3\n      swap2\n      pop\n      pop\n      jump\t// out\n        /* \"#utility.yul\":1991:2130   */\n    tag_434:\n        /* \"#utility.yul\":2037:2042   */\n      0x00\n        /* \"#utility.yul\":2075:2081   */\n      dup2\n        /* \"#utility.yul\":2062:2082   */\n      calldataload\n        /* \"#utility.yul\":2053:2082   */\n      swap1\n      pop\n        /* \"#utility.yul\":2091:2124   */\n      tag_436\n        /* \"#utility.yul\":2118:2123   */\n      dup2\n        /* \"#utility.yul\":2091:2124   */\n      tag_437\n      jump\t// in\n    tag_436:\n        /* \"#utility.yul\":1991:2130   */\n      swap3\n      swap2\n      pop\n      pop\n      jump\t// out\n        /* \"#utility.yul\":2136:2465   */\n    tag_47:\n        /* \"#utility.yul\":2195:2201   */\n      0x00\n        /* \"#utility.yul\":2244:2246   */\n      0x20\n        /* \"#utility.yul\":2232:2241   */\n      dup3\n        /* \"#utility.yul\":2223:2230   */\n      dup5\n        /* \"#utility.yul\":2219:2242   */\n      sub\n        /* \"#utility.yul\":2215:2247   */\n      slt\n        /* \"#utility.yul\":2212:2331   */\n      iszero\n      tag_439\n      jumpi\n        /* \"#utility.yul\":2250:2329   */\n      tag_440\n      tag_441\n      jump\t// in\n    tag_440:\n        /* \"#utility.yul\":2212:2331   */\n    tag_439:\n        /* \"#utility.yul\":2370:2371   */\n      0x00\n        /* \"#utility.yul\":2395:2448   */\n      tag_442\n        /* \"#utility.yul\":2440:2447   */\n      dup5\n        /* \"#utility.yul\":2431:2437   */\n      dup3\n        /* \"#utility.yul\":2420:2429   */\n      dup6\n        /* \"#utility.yul\":2416:2438   */\n      add\n        /* \"#utility.yul\":2395:2448   */\n      tag_412\n      jump\t// in\n    tag_442:\n        /* \"#utility.yul\":2385:2448   */\n      swap2\n      pop\n        /* \"#utility.yul\":2341:2458   */\n      pop\n        /* \"#utility.yul\":2136:2465   */\n      swap3\n      swap2\n      pop\n      pop\n      jump\t// out\n        /* \"#utility.yul\":2471:2822   */\n    tag_313:\n        /* \"#utility.yul\":2541:2547   */\n      0x00\n        /* \"#utility.yul\":2590:2592   */\n      0x20\n        /* \"#utility.yul\":2578:2587   */\n      dup3\n        /* \"#utility.yul\":2569:2576   */\n      dup5\n        /* \"#utility.yul\":2565:2588   */\n      sub\n        /* \"#utility.yul\":2561:2593   */\n      slt\n        /* \"#utility.yul\":2558:2677   */\n      iszero\n      tag_444\n      jumpi\n        /* \"#utility.yul\":2596:2675   */\n      tag_445\n      tag_441\n      jump\t// in\n    tag_445:\n        /* \"#utility.yul\":2558:2677   */\n    tag_444:\n        /* \"#utility.yul\":2716:2717   */\n      0x00\n        /* \"#utility.yul\":2741:2805   */\n      tag_446\n        /* \"#utility.yul\":2797:2804   */\n      dup5\n        /* \"#utility.yul\":2788:2794   */\n      dup3\n        /* \"#utility.yul\":2777:2786   */\n      dup6\n        /* \"#utility.yul\":2773:2795   */\n      add\n        /* \"#utility.yul\":2741:2805   */\n      tag_416\n      jump\t// in\n    tag_446:\n        /* \"#utility.yul\":2731:2805   */\n      swap2\n      pop\n        /* \"#utility.yul\":2687:2815   */\n      pop\n        /* \"#utility.yul\":2471:2822   */\n      swap3\n      swap2\n      pop\n      pop\n      jump\t// out\n        /* \"#utility.yul\":2828:3302   */\n    tag_124:\n        /* \"#utility.yul\":2896:2902   */\n      0x00\n        /* \"#utility.yul\":2904:2910   */\n      dup1\n        /* \"#utility.yul\":2953:2955   */\n      0x40\n        /* \"#utility.yul\":2941:2950   */\n      dup4\n        /* \"#utility.yul\":2932:2939   */\n      dup6\n        /* \"#utility.yul\":2928:2951   */\n      sub\n        /* \"#utility.yul\":2924:2956   */\n      slt\n        /* \"#utility.yul\":2921:3040   */\n      iszero\n      tag_448\n      jumpi\n        /* \"#utility.yul\":2959:3038   */\n      tag_449\n      tag_441\n      jump\t// in\n    tag_449:\n        /* \"#utility.yul\":2921:3040   */\n    tag_448:\n        /* \"#utility.yul\":3079:3080   */\n      0x00\n        /* \"#utility.yul\":3104:3157   */\n      tag_450\n        /* \"#utility.yul\":3149:3156   */\n      dup6\n        /* \"#utility.yul\":3140:3146   */\n      dup3\n        /* \"#utility.yul\":3129:3138   */\n      dup7\n        /* \"#utility.yul\":3125:3147   */\n      add\n        /* \"#utility.yul\":3104:3157   */\n      tag_412\n      jump\t// in\n    tag_450:\n        /* \"#utility.yul\":3094:3157   */\n      swap3\n      pop\n        /* \"#utility.yul\":3050:3167   */\n      pop\n        /* \"#utility.yul\":3206:3208   */\n      0x20\n        /* \"#utility.yul\":3232:3285   */\n      tag_451\n        /* \"#utility.yul\":3277:3284   */\n      dup6\n        /* \"#utility.yul\":3268:3274   */\n      dup3\n        /* \"#utility.yul\":3257:3266   */\n      dup7\n        /* \"#utility.yul\":3253:3275   */\n      add\n        /* \"#utility.yul\":3232:3285   */\n      tag_412\n      jump\t// in\n    tag_451:\n        /* \"#utility.yul\":3222:3285   */\n      swap2\n      pop\n        /* \"#utility.yul\":3177:3295   */\n      pop\n        /* \"#utility.yul\":2828:3302   */\n      swap3\n      pop\n      swap3\n      swap1\n      pop\n      jump\t// out\n        /* \"#utility.yul\":3308:3927   */\n    tag_53:\n        /* \"#utility.yul\":3385:3391   */\n      0x00\n        /* \"#utility.yul\":3393:3399   */\n      dup1\n        /* \"#utility.yul\":3401:3407   */\n      0x00\n        /* \"#utility.yul\":3450:3452   */\n      0x60\n        /* \"#utility.yul\":3438:3447   */\n      dup5\n        /* \"#utility.yul\":3429:3436   */\n      dup7\n        /* \"#utility.yul\":3425:3448   */\n      sub\n        /* \"#utility.yul\":3421:3453   */\n      slt\n        /* \"#utility.yul\":3418:3537   */\n      iszero\n      tag_453\n      jumpi\n        /* \"#utility.yul\":3456:3535   */\n      tag_454\n      tag_441\n      jump\t// in\n    tag_454:\n        /* \"#utility.yul\":3418:3537   */\n    tag_453:\n        /* \"#utility.yul\":3576:3577   */\n      0x00\n        /* \"#utility.yul\":3601:3654   */\n      tag_455\n        /* \"#utility.yul\":3646:3653   */\n      dup7\n        /* \"#utility.yul\":3637:3643   */\n      dup3\n        /* \"#utility.yul\":3626:3635   */\n      dup8\n        /* \"#utility.yul\":3622:3644   */\n      add\n        /* \"#utility.yul\":3601:3654   */\n      tag_412\n      jump\t// in\n    tag_455:\n        /* \"#utility.yul\":3591:3654   */\n      swap4\n      pop\n        /* \"#utility.yul\":3547:3664   */\n      pop\n        /* \"#utility.yul\":3703:3705   */\n      0x20\n        /* \"#utility.yul\":3729:3782   */\n      tag_456\n        /* \"#utility.yul\":3774:3781   */\n      dup7\n        /* \"#utility.yul\":3765:3771   */\n      dup3\n        /* \"#utility.yul\":3754:3763   */\n      dup8\n        /* \"#utility.yul\":3750:3772   */\n      add\n        /* \"#utility.yul\":3729:3782   */\n      tag_412\n      jump\t// in\n    tag_456:\n        /* \"#utility.yul\":3719:3782   */\n      swap3\n      pop\n        /* \"#utility.yul\":3674:3792   */\n      pop\n        /* \"#utility.yul\":3831:3833   */\n      0x40\n        /* \"#utility.yul\":3857:3910   */\n      tag_457\n        /* \"#utility.yul\":3902:3909   */\n      dup7\n        /* \"#utility.yul\":3893:3899   */\n      dup3\n        /* \"#utility.yul\":3882:3891   */\n      dup8\n        /* \"#utility.yul\":3878:3900   */\n      add\n        /* \"#utility.yul\":3857:3910   */\n      tag_434\n      jump\t// in\n    tag_457:\n        /* \"#utility.yul\":3847:3910   */\n      swap2\n      pop\n        /* \"#utility.yul\":3802:3920   */\n      pop\n        /* \"#utility.yul\":3308:3927   */\n      swap3\n      pop\n      swap3\n      pop\n      swap3\n      jump\t// out\n        /* \"#utility.yul\":3933:4876   */\n    tag_109:\n        /* \"#utility.yul\":4028:4034   */\n      0x00\n        /* \"#utility.yul\":4036:4042   */\n      dup1\n        /* \"#utility.yul\":4044:4050   */\n      0x00\n        /* \"#utility.yul\":4052:4058   */\n      dup1\n        /* \"#utility.yul\":4101:4104   */\n      0x80\n        /* \"#utility.yul\":4089:4098   */\n      dup6\n        /* \"#utility.yul\":4080:4087   */\n      dup8\n        /* \"#utility.yul\":4076:4099   */\n      sub\n        /* \"#utility.yul\":4072:4105   */\n      slt\n        /* \"#utility.yul\":4069:4189   */\n      iszero\n      tag_459\n      jumpi\n        /* \"#utility.yul\":4108:4187   */\n      tag_460\n      tag_441\n      jump\t// in\n    tag_460:\n        /* \"#utility.yul\":4069:4189   */\n    tag_459:\n        /* \"#utility.yul\":4228:4229   */\n      0x00\n        /* \"#utility.yul\":4253:4306   */\n      tag_461\n        /* \"#utility.yul\":4298:4305   */\n      dup8\n        /* \"#utility.yul\":4289:4295   */\n      dup3\n        /* \"#utility.yul\":4278:4287   */\n      dup9\n        /* \"#utility.yul\":4274:4296   */\n      add\n        /* \"#utility.yul\":4253:4306   */\n      tag_412\n      jump\t// in\n    tag_461:\n        /* \"#utility.yul\":4243:4306   */\n      swap5\n      pop\n        /* \"#utility.yul\":4199:4316   */\n      pop\n        /* \"#utility.yul\":4355:4357   */\n      0x20\n        /* \"#utility.yul\":4381:4434   */\n      tag_462\n        /* \"#utility.yul\":4426:4433   */\n      dup8\n        /* \"#utility.yul\":4417:4423   */\n      dup3\n        /* \"#utility.yul\":4406:4415   */\n      dup9\n        /* \"#utility.yul\":4402:4424   */\n      add\n        /* \"#utility.yul\":4381:4434   */\n      tag_412\n      jump\t// in\n    tag_462:\n        /* \"#utility.yul\":4371:4434   */\n      swap4\n      pop\n        /* \"#utility.yul\":4326:4444   */\n      pop\n        /* \"#utility.yul\":4483:4485   */\n      0x40\n        /* \"#utility.yul\":4509:4562   */\n      tag_463\n        /* \"#utility.yul\":4554:4561   */\n      dup8\n        /* \"#utility.yul\":4545:4551   */\n      dup3\n        /* \"#utility.yul\":4534:4543   */\n      dup9\n        /* \"#utility.yul\":4530:4552   */\n      add\n        /* \"#utility.yul\":4509:4562   */\n      tag_434\n      jump\t// in\n    tag_463:\n        /* \"#utility.yul\":4499:4562   */\n      swap3\n      pop\n        /* \"#utility.yul\":4454:4572   */\n      pop\n        /* \"#utility.yul\":4639:4641   */\n      0x60\n        /* \"#utility.yul\":4628:4637   */\n      dup6\n        /* \"#utility.yul\":4624:4642   */\n      add\n        /* \"#utility.yul\":4611:4643   */\n      calldataload\n        /* \"#utility.yul\":4670:4688   */\n      0xffffffffffffffff\n        /* \"#utility.yul\":4662:4668   */\n      dup2\n        /* \"#utility.yul\":4659:4689   */\n      gt\n        /* \"#utility.yul\":4656:4773   */\n      iszero\n      tag_464\n      jumpi\n        /* \"#utility.yul\":4692:4771   */\n      tag_465\n      tag_466\n      jump\t// in\n    tag_465:\n        /* \"#utility.yul\":4656:4773   */\n    tag_464:\n        /* \"#utility.yul\":4797:4859   */\n      tag_467\n        /* \"#utility.yul\":4851:4858   */\n      dup8\n        /* \"#utility.yul\":4842:4848   */\n      dup3\n        /* \"#utility.yul\":4831:4840   */\n      dup9\n        /* \"#utility.yul\":4827:4849   */\n      add\n        /* \"#utility.yul\":4797:4859   */\n      tag_423\n      jump\t// in\n    tag_467:\n        /* \"#utility.yul\":4787:4859   */\n      swap2\n      pop\n        /* \"#utility.yul\":4582:4869   */\n      pop\n        /* \"#utility.yul\":3933:4876   */\n      swap3\n      swap6\n      swap2\n      swap5\n      pop\n      swap3\n      pop\n      jump\t// out\n        /* \"#utility.yul\":4882:5350   */\n    tag_97:\n        /* \"#utility.yul\":4947:4953   */\n      0x00\n        /* \"#utility.yul\":4955:4961   */\n      dup1\n        /* \"#utility.yul\":5004:5006   */\n      0x40\n        /* \"#utility.yul\":4992:5001   */\n      dup4\n        /* \"#utility.yul\":4983:4990   */\n      dup6\n        /* \"#utility.yul\":4979:5002   */\n      sub\n        /* \"#utility.yul\":4975:5007   */\n      slt\n        /* \"#utility.yul\":4972:5091   */\n      iszero\n      tag_469\n      jumpi\n        /* \"#utility.yul\":5010:5089   */\n      tag_470\n      tag_441\n      jump\t// in\n    tag_470:\n        /* \"#utility.yul\":4972:5091   */\n    tag_469:\n        /* \"#utility.yul\":5130:5131   */\n      0x00\n        /* \"#utility.yul\":5155:5208   */\n      tag_471\n        /* \"#utility.yul\":5200:5207   */\n      dup6\n        /* \"#utility.yul\":5191:5197   */\n      dup3\n        /* \"#utility.yul\":5180:5189   */\n      dup7\n        /* \"#utility.yul\":5176:5198   */\n      add\n        /* \"#utility.yul\":5155:5208   */\n      tag_412\n      jump\t// in\n    tag_471:\n        /* \"#utility.yul\":5145:5208   */\n      swap3\n      pop\n        /* \"#utility.yul\":5101:5218   */\n      pop\n        /* \"#utility.yul\":5257:5259   */\n      0x20\n        /* \"#utility.yul\":5283:5333   */\n      tag_472\n        /* \"#utility.yul\":5325:5332   */\n      dup6\n        /* \"#utility.yul\":5316:5322   */\n      dup3\n        /* \"#utility.yul\":5305:5314   */\n      dup7\n        /* \"#utility.yul\":5301:5323   */\n      add\n        /* \"#utility.yul\":5283:5333   */\n      tag_419\n      jump\t// in\n    tag_472:\n        /* \"#utility.yul\":5273:5333   */\n      swap2\n      pop\n        /* \"#utility.yul\":5228:5343   */\n      pop\n        /* \"#utility.yul\":4882:5350   */\n      swap3\n      pop\n      swap3\n      swap1\n      pop\n      jump\t// out\n        /* \"#utility.yul\":5356:6335   */\n    tag_29:\n        /* \"#utility.yul\":5453:5459   */\n      0x00\n        /* \"#utility.yul\":5461:5467   */\n      dup1\n        /* \"#utility.yul\":5469:5475   */\n      0x00\n        /* \"#utility.yul\":5518:5520   */\n      0x60\n        /* \"#utility.yul\":5506:5515   */\n      dup5\n        /* \"#utility.yul\":5497:5504   */\n      dup7\n        /* \"#utility.yul\":5493:5516   */\n      sub\n        /* \"#utility.yul\":5489:5521   */\n      slt\n        /* \"#utility.yul\":5486:5605   */\n      iszero\n      tag_474\n      jumpi\n        /* \"#utility.yul\":5524:5603   */\n      tag_475\n      tag_441\n      jump\t// in\n    tag_475:\n        /* \"#utility.yul\":5486:5605   */\n    tag_474:\n        /* \"#utility.yul\":5644:5645   */\n      0x00\n        /* \"#utility.yul\":5669:5722   */\n      tag_476\n        /* \"#utility.yul\":5714:5721   */\n      dup7\n        /* \"#utility.yul\":5705:5711   */\n      dup3\n        /* \"#utility.yul\":5694:5703   */\n      dup8\n        /* \"#utility.yul\":5690:5712   */\n      add\n        /* \"#utility.yul\":5669:5722   */\n      tag_412\n      jump\t// in\n    tag_476:\n        /* \"#utility.yul\":5659:5722   */\n      swap4\n      pop\n        /* \"#utility.yul\":5615:5732   */\n      pop\n        /* \"#utility.yul\":5799:5801   */\n      0x20\n        /* \"#utility.yul\":5788:5797   */\n      dup5\n        /* \"#utility.yul\":5784:5802   */\n      add\n        /* \"#utility.yul\":5771:5803   */\n      calldataload\n        /* \"#utility.yul\":5830:5848   */\n      0xffffffffffffffff\n        /* \"#utility.yul\":5822:5828   */\n      dup2\n        /* \"#utility.yul\":5819:5849   */\n      gt\n        /* \"#utility.yul\":5816:5933   */\n      iszero\n      tag_477\n      jumpi\n        /* \"#utility.yul\":5852:5931   */\n      tag_478\n      tag_466\n      jump\t// in\n    tag_478:\n        /* \"#utility.yul\":5816:5933   */\n    tag_477:\n        /* \"#utility.yul\":5957:6020   */\n      tag_479\n        /* \"#utility.yul\":6012:6019   */\n      dup7\n        /* \"#utility.yul\":6003:6009   */\n      dup3\n        /* \"#utility.yul\":5992:6001   */\n      dup8\n        /* \"#utility.yul\":5988:6010   */\n      add\n        /* \"#utility.yul\":5957:6020   */\n      tag_429\n      jump\t// in\n    tag_479:\n        /* \"#utility.yul\":5947:6020   */\n      swap3\n      pop\n        /* \"#utility.yul\":5742:6030   */\n      pop\n        /* \"#utility.yul\":6097:6099   */\n      0x40\n        /* \"#utility.yul\":6086:6095   */\n      dup5\n        /* \"#utility.yul\":6082:6100   */\n      add\n        /* \"#utility.yul\":6069:6101   */\n      calldataload\n        /* \"#utility.yul\":6128:6146   */\n      0xffffffffffffffff\n        /* \"#utility.yul\":6120:6126   */\n      dup2\n        /* \"#utility.yul\":6117:6147   */\n      gt\n        /* \"#utility.yul\":6114:6231   */\n      iszero\n      tag_480\n      jumpi\n        /* \"#utility.yul\":6150:6229   */\n      tag_481\n      tag_466\n      jump\t// in\n    tag_481:\n        /* \"#utility.yul\":6114:6231   */\n    tag_480:\n        /* \"#utility.yul\":6255:6318   */\n      tag_482\n        /* \"#utility.yul\":6310:6317   */\n      dup7\n        /* \"#utility.yul\":6301:6307   */\n      dup3\n        /* \"#utility.yul\":6290:6299   */\n      dup8\n        /* \"#utility.yul\":6286:6308   */\n      add\n        /* \"#utility.yul\":6255:6318   */\n      tag_429\n      jump\t// in\n    tag_482:\n        /* \"#utility.yul\":6245:6318   */\n      swap2\n      pop\n        /* \"#utility.yul\":6040:6328   */\n      pop\n        /* \"#utility.yul\":5356:6335   */\n      swap3\n      pop\n      swap3\n      pop\n      swap3\n      jump\t// out\n        /* \"#utility.yul\":6341:6815   */\n    tag_42:\n        /* \"#utility.yul\":6409:6415   */\n      0x00\n        /* \"#utility.yul\":6417:6423   */\n      dup1\n        /* \"#utility.yul\":6466:6468   */\n      0x40\n        /* \"#utility.yul\":6454:6463   */\n      dup4\n        /* \"#utility.yul\":6445:6452   */\n      dup6\n        /* \"#utility.yul\":6441:6464   */\n      sub\n        /* \"#utility.yul\":6437:6469   */\n      slt\n        /* \"#utility.yul\":6434:6553   */\n      iszero\n      tag_484\n      jumpi\n        /* \"#utility.yul\":6472:6551   */\n      tag_485\n      tag_441\n      jump\t// in\n    tag_485:\n        /* \"#utility.yul\":6434:6553   */\n    tag_484:\n        /* \"#utility.yul\":6592:6593   */\n      0x00\n        /* \"#utility.yul\":6617:6670   */\n      tag_486\n        /* \"#utility.yul\":6662:6669   */\n      dup6\n        /* \"#utility.yul\":6653:6659   */\n      dup3\n        /* \"#utility.yul\":6642:6651   */\n      dup7\n        /* \"#utility.yul\":6638:6660   */\n      add\n        /* \"#utility.yul\":6617:6670   */\n      tag_412\n      jump\t// in\n    tag_486:\n        /* \"#utility.yul\":6607:6670   */\n      swap3\n      pop\n        /* \"#utility.yul\":6563:6680   */\n      pop\n        /* \"#utility.yul\":6719:6721   */\n      0x20\n        /* \"#utility.yul\":6745:6798   */\n      tag_487\n        /* \"#utility.yul\":6790:6797   */\n      dup6\n        /* \"#utility.yul\":6781:6787   */\n      dup3\n        /* \"#utility.yul\":6770:6779   */\n      dup7\n        /* \"#utility.yul\":6766:6788   */\n      add\n        /* \"#utility.yul\":6745:6798   */\n      tag_434\n      jump\t// in\n    tag_487:\n        /* \"#utility.yul\":6735:6798   */\n      swap2\n      pop\n        /* \"#utility.yul\":6690:6808   */\n      pop\n        /* \"#utility.yul\":6341:6815   */\n      swap3\n      pop\n      swap3\n      swap1\n      pop\n      jump\t// out\n        /* \"#utility.yul\":6821:7980   */\n    tag_58:\n        /* \"#utility.yul\":6928:6934   */\n      0x00\n        /* \"#utility.yul\":6936:6942   */\n      dup1\n        /* \"#utility.yul\":6944:6950   */\n      0x00\n        /* \"#utility.yul\":6993:6995   */\n      0x60\n        /* \"#utility.yul\":6981:6990   */\n      dup5\n        /* \"#utility.yul\":6972:6979   */\n      dup7\n        /* \"#utility.yul\":6968:6991   */\n      sub\n        /* \"#utility.yul\":6964:6996   */\n      slt\n        /* \"#utility.yul\":6961:7080   */\n      iszero\n      tag_489\n      jumpi\n        /* \"#utility.yul\":6999:7078   */\n      tag_490\n      tag_441\n      jump\t// in\n    tag_490:\n        /* \"#utility.yul\":6961:7080   */\n    tag_489:\n        /* \"#utility.yul\":7147:7148   */\n      0x00\n        /* \"#utility.yul\":7136:7145   */\n      dup5\n        /* \"#utility.yul\":7132:7149   */\n      add\n        /* \"#utility.yul\":7119:7150   */\n      calldataload\n        /* \"#utility.yul\":7177:7195   */\n      0xffffffffffffffff\n        /* \"#utility.yul\":7169:7175   */\n      dup2\n        /* \"#utility.yul\":7166:7196   */\n      gt\n        /* \"#utility.yul\":7163:7280   */\n      iszero\n      tag_491\n      jumpi\n        /* \"#utility.yul\":7199:7278   */\n      tag_492\n      tag_466\n      jump\t// in\n    tag_492:\n        /* \"#utility.yul\":7163:7280   */\n    tag_491:\n        /* \"#utility.yul\":7304:7367   */\n      tag_493\n        /* \"#utility.yul\":7359:7366   */\n      dup7\n        /* \"#utility.yul\":7350:7356   */\n      dup3\n        /* \"#utility.yul\":7339:7348   */\n      dup8\n        /* \"#utility.yul\":7335:7357   */\n      add\n        /* \"#utility.yul\":7304:7367   */\n      tag_429\n      jump\t// in\n    tag_493:\n        /* \"#utility.yul\":7294:7367   */\n      swap4\n      pop\n        /* \"#utility.yul\":7090:7377   */\n      pop\n        /* \"#utility.yul\":7444:7446   */\n      0x20\n        /* \"#utility.yul\":7433:7442   */\n      dup5\n        /* \"#utility.yul\":7429:7447   */\n      add\n        /* \"#utility.yul\":7416:7448   */\n      calldataload\n        /* \"#utility.yul\":7475:7493   */\n      0xffffffffffffffff\n        /* \"#utility.yul\":7467:7473   */\n      dup2\n        /* \"#utility.yul\":7464:7494   */\n      gt\n        /* \"#utility.yul\":7461:7578   */\n      iszero\n      tag_494\n      jumpi\n        /* \"#utility.yul\":7497:7576   */\n      tag_495\n      tag_466\n      jump\t// in\n    tag_495:\n        /* \"#utility.yul\":7461:7578   */\n    tag_494:\n        /* \"#utility.yul\":7602:7665   */\n      tag_496\n        /* \"#utility.yul\":7657:7664   */\n      dup7\n        /* \"#utility.yul\":7648:7654   */\n      dup3\n        /* \"#utility.yul\":7637:7646   */\n      dup8\n        /* \"#utility.yul\":7633:7655   */\n      add\n        /* \"#utility.yul\":7602:7665   */\n      tag_429\n      jump\t// in\n    tag_496:\n        /* \"#utility.yul\":7592:7665   */\n      swap3\n      pop\n        /* \"#utility.yul\":7387:7675   */\n      pop\n        /* \"#utility.yul\":7742:7744   */\n      0x40\n        /* \"#utility.yul\":7731:7740   */\n      dup5\n        /* \"#utility.yul\":7727:7745   */\n      add\n        /* \"#utility.yul\":7714:7746   */\n      calldataload\n        /* \"#utility.yul\":7773:7791   */\n      0xffffffffffffffff\n        /* \"#utility.yul\":7765:7771   */\n      dup2\n        /* \"#utility.yul\":7762:7792   */\n      gt\n        /* \"#utility.yul\":7759:7876   */\n      iszero\n      tag_497\n      jumpi\n        /* \"#utility.yul\":7795:7874   */\n      tag_498\n      tag_466\n      jump\t// in\n    tag_498:\n        /* \"#utility.yul\":7759:7876   */\n    tag_497:\n        /* \"#utility.yul\":7900:7963   */\n      tag_499\n        /* \"#utility.yul\":7955:7962   */\n      dup7\n        /* \"#utility.yul\":7946:7952   */\n      dup3\n        /* \"#utility.yul\":7935:7944   */\n      dup8\n        /* \"#utility.yul\":7931:7953   */\n      add\n        /* \"#utility.yul\":7900:7963   */\n      tag_429\n      jump\t// in\n    tag_499:\n        /* \"#utility.yul\":7890:7963   */\n      swap2\n      pop\n        /* \"#utility.yul\":7685:7973   */\n      pop\n        /* \"#utility.yul\":6821:7980   */\n      swap3\n      pop\n      swap3\n      pop\n      swap3\n      jump\t// out\n        /* \"#utility.yul\":7986:8315   */\n    tag_36:\n        /* \"#utility.yul\":8045:8051   */\n      0x00\n        /* \"#utility.yul\":8094:8096   */\n      0x20\n        /* \"#utility.yul\":8082:8091   */\n      dup3\n        /* \"#utility.yul\":8073:8080   */\n      dup5\n        /* \"#utility.yul\":8069:8092   */\n      sub\n        /* \"#utility.yul\":8065:8097   */\n      slt\n        /* \"#utility.yul\":8062:8181   */\n      iszero\n      tag_501\n      jumpi\n        /* \"#utility.yul\":8100:8179   */\n      tag_502\n      tag_441\n      jump\t// in\n    tag_502:\n        /* \"#utility.yul\":8062:8181   */\n    tag_501:\n        /* \"#utility.yul\":8220:8221   */\n      0x00\n        /* \"#utility.yul\":8245:8298   */\n      tag_503\n        /* \"#utility.yul\":8290:8297   */\n      dup5\n        /* \"#utility.yul\":8281:8287   */\n      dup3\n        /* \"#utility.yul\":8270:8279   */\n      dup6\n        /* \"#utility.yul\":8266:8288   */\n      add\n        /* \"#utility.yul\":8245:8298   */\n      tag_434\n      jump\t// in\n    tag_503:\n        /* \"#utility.yul\":8235:8298   */\n      swap2\n      pop\n        /* \"#utility.yul\":8191:8308   */\n      pop\n        /* \"#utility.yul\":7986:8315   */\n      swap3\n      swap2\n      pop\n      pop\n      jump\t// out\n        /* \"#utility.yul\":8321:8439   */\n    tag_504:\n        /* \"#utility.yul\":8408:8432   */\n      tag_506\n        /* \"#utility.yul\":8426:8431   */\n      dup2\n        /* \"#utility.yul\":8408:8432   */\n      tag_507\n      jump\t// in\n    tag_506:\n        /* \"#utility.yul\":8403:8406   */\n      dup3\n        /* \"#utility.yul\":8396:8433   */\n      mstore\n        /* \"#utility.yul\":8321:8439   */\n      pop\n      pop\n      jump\t// out\n        /* \"#utility.yul\":8445:8554   */\n    tag_508:\n        /* \"#utility.yul\":8526:8547   */\n      tag_510\n        /* \"#utility.yul\":8541:8546   */\n      dup2\n        /* \"#utility.yul\":8526:8547   */\n      tag_511\n      jump\t// in\n    tag_510:\n        /* \"#utility.yul\":8521:8524   */\n      dup3\n        /* \"#utility.yul\":8514:8548   */\n      mstore\n        /* \"#utility.yul\":8445:8554   */\n      pop\n      pop\n      jump\t// out\n        /* \"#utility.yul\":8560:8924   */\n    tag_512:\n        /* \"#utility.yul\":8648:8651   */\n      0x00\n        /* \"#utility.yul\":8676:8715   */\n      tag_514\n        /* \"#utility.yul\":8709:8714   */\n      dup3\n        /* \"#utility.yul\":8676:8715   */\n      tag_515\n      jump\t// in\n    tag_514:\n        /* \"#utility.yul\":8731:8802   */\n      tag_516\n        /* \"#utility.yul\":8795:8801   */\n      dup2\n        /* \"#utility.yul\":8790:8793   */\n      dup6\n        /* \"#utility.yul\":8731:8802   */\n      tag_517\n      jump\t// in\n    tag_516:\n        /* \"#utility.yul\":8724:8802   */\n      swap4\n      pop\n        /* \"#utility.yul\":8811:8863   */\n      tag_518\n        /* \"#utility.yul\":8856:8862   */\n      dup2\n        /* \"#utility.yul\":8851:8854   */\n      dup6\n        /* \"#utility.yul\":8844:8848   */\n      0x20\n        /* \"#utility.yul\":8837:8842   */\n      dup7\n        /* \"#utility.yul\":8833:8849   */\n      add\n        /* \"#utility.yul\":8811:8863   */\n      tag_519\n      jump\t// in\n    tag_518:\n        /* \"#utility.yul\":8888:8917   */\n      tag_520\n        /* \"#utility.yul\":8910:8916   */\n      dup2\n        /* \"#utility.yul\":8888:8917   */\n      tag_521\n      jump\t// in\n    tag_520:\n        /* \"#utility.yul\":8883:8886   */\n      dup5\n        /* \"#utility.yul\":8879:8918   */\n      add\n        /* \"#utility.yul\":8872:8918   */\n      swap2\n      pop\n        /* \"#utility.yul\":8652:8924   */\n      pop\n        /* \"#utility.yul\":8560:8924   */\n      swap3\n      swap2\n      pop\n      pop\n      jump\t// out\n        /* \"#utility.yul\":8954:9756   */\n    tag_522:\n        /* \"#utility.yul\":9039:9042   */\n      0x00\n        /* \"#utility.yul\":9076:9081   */\n      dup2\n        /* \"#utility.yul\":9070:9082   */\n      sload\n        /* \"#utility.yul\":9105:9141   */\n      tag_524\n        /* \"#utility.yul\":9131:9140   */\n      dup2\n        /* \"#utility.yul\":9105:9141   */\n      tag_323\n      jump\t// in\n    tag_524:\n        /* \"#utility.yul\":9157:9228   */\n      tag_525\n        /* \"#utility.yul\":9221:9227   */\n      dup2\n        /* \"#utility.yul\":9216:9219   */\n      dup7\n        /* \"#utility.yul\":9157:9228   */\n      tag_517\n      jump\t// in\n    tag_525:\n        /* \"#utility.yul\":9150:9228   */\n      swap5\n      pop\n        /* \"#utility.yul\":9259:9260   */\n      0x01\n        /* \"#utility.yul\":9248:9257   */\n      dup3\n        /* \"#utility.yul\":9244:9261   */\n      and\n        /* \"#utility.yul\":9275:9276   */\n      0x00\n        /* \"#utility.yul\":9270:9405   */\n      dup2\n      eq\n      tag_527\n      jumpi\n        /* \"#utility.yul\":9419:9420   */\n      0x01\n        /* \"#utility.yul\":9414:9750   */\n      dup2\n      eq\n      tag_528\n      jumpi\n        /* \"#utility.yul\":9237:9750   */\n      jump(tag_526)\n        /* \"#utility.yul\":9270:9405   */\n    tag_527:\n        /* \"#utility.yul\":9354:9358   */\n      0xff\n        /* \"#utility.yul\":9350:9359   */\n      not\n        /* \"#utility.yul\":9339:9348   */\n      dup4\n        /* \"#utility.yul\":9335:9360   */\n      and\n        /* \"#utility.yul\":9330:9333   */\n      dup7\n        /* \"#utility.yul\":9323:9361   */\n      mstore\n        /* \"#utility.yul\":9390:9394   */\n      0x20\n        /* \"#utility.yul\":9385:9388   */\n      dup7\n        /* \"#utility.yul\":9381:9395   */\n      add\n        /* \"#utility.yul\":9374:9395   */\n      swap4\n      pop\n        /* \"#utility.yul\":9270:9405   */\n      jump(tag_526)\n        /* \"#utility.yul\":9414:9750   */\n    tag_528:\n        /* \"#utility.yul\":9481:9519   */\n      tag_529\n        /* \"#utility.yul\":9513:9518   */\n      dup6\n        /* \"#utility.yul\":9481:9519   */\n      tag_530\n      jump\t// in\n    tag_529:\n        /* \"#utility.yul\":9541:9542   */\n      0x00\n        /* \"#utility.yul\":9555:9709   */\n    tag_531:\n        /* \"#utility.yul\":9569:9575   */\n      dup4\n        /* \"#utility.yul\":9566:9567   */\n      dup2\n        /* \"#utility.yul\":9563:9576   */\n      lt\n        /* \"#utility.yul\":9555:9709   */\n      iszero\n      tag_533\n      jumpi\n        /* \"#utility.yul\":9643:9650   */\n      dup2\n        /* \"#utility.yul\":9637:9651   */\n      sload\n        /* \"#utility.yul\":9633:9634   */\n      dup2\n        /* \"#utility.yul\":9628:9631   */\n      dup10\n        /* \"#utility.yul\":9624:9635   */\n      add\n        /* \"#utility.yul\":9617:9652   */\n      mstore\n        /* \"#utility.yul\":9693:9694   */\n      0x01\n        /* \"#utility.yul\":9684:9691   */\n      dup3\n        /* \"#utility.yul\":9680:9695   */\n      add\n        /* \"#utility.yul\":9669:9695   */\n      swap2\n      pop\n        /* \"#utility.yul\":9591:9595   */\n      0x20\n        /* \"#utility.yul\":9588:9589   */\n      dup2\n        /* \"#utility.yul\":9584:9596   */\n      add\n        /* \"#utility.yul\":9579:9596   */\n      swap1\n      pop\n        /* \"#utility.yul\":9555:9709   */\n      jump(tag_531)\n    tag_533:\n        /* \"#utility.yul\":9738:9739   */\n      dup1\n        /* \"#utility.yul\":9733:9736   */\n      dup9\n        /* \"#utility.yul\":9729:9740   */\n      add\n        /* \"#utility.yul\":9722:9740   */\n      swap6\n      pop\n        /* \"#utility.yul\":9421:9750   */\n      pop\n      pop\n        /* \"#utility.yul\":9237:9750   */\n    tag_526:\n      pop\n        /* \"#utility.yul\":9043:9756   */\n      pop\n      pop\n        /* \"#utility.yul\":8954:9756   */\n      swap3\n      swap2\n      pop\n      pop\n      jump\t// out\n        /* \"#utility.yul\":9762:10128   */\n    tag_534:\n        /* \"#utility.yul\":9904:9907   */\n      0x00\n        /* \"#utility.yul\":9925:9992   */\n      tag_536\n        /* \"#utility.yul\":9989:9991   */\n      0x28\n        /* \"#utility.yul\":9984:9987   */\n      dup4\n        /* \"#utility.yul\":9925:9992   */\n      tag_517\n      jump\t// in\n    tag_536:\n        /* \"#utility.yul\":9918:9992   */\n      swap2\n      pop\n        /* \"#utility.yul\":10001:10094   */\n      tag_537\n        /* \"#utility.yul\":10090:10093   */\n      dup3\n        /* \"#utility.yul\":10001:10094   */\n      tag_538\n      jump\t// in\n    tag_537:\n        /* \"#utility.yul\":10119:10121   */\n      0x40\n        /* \"#utility.yul\":10114:10117   */\n      dup3\n        /* \"#utility.yul\":10110:10122   */\n      add\n        /* \"#utility.yul\":10103:10122   */\n      swap1\n      pop\n        /* \"#utility.yul\":9762:10128   */\n      swap2\n      swap1\n      pop\n      jump\t// out\n        /* \"#utility.yul\":10134:10500   */\n    tag_539:\n        /* \"#utility.yul\":10276:10279   */\n      0x00\n        /* \"#utility.yul\":10297:10364   */\n      tag_541\n        /* \"#utility.yul\":10361:10363   */\n      0x26\n        /* \"#utility.yul\":10356:10359   */\n      dup4\n        /* \"#utility.yul\":10297:10364   */\n      tag_517\n      jump\t// in\n    tag_541:\n        /* \"#utility.yul\":10290:10364   */\n      swap2\n      pop\n        /* \"#utility.yul\":10373:10466   */\n      tag_542\n        /* \"#utility.yul\":10462:10465   */\n      dup3\n        /* \"#utility.yul\":10373:10466   */\n      tag_543\n      jump\t// in\n    tag_542:\n        /* \"#utility.yul\":10491:10493   */\n      0x40\n        /* \"#utility.yul\":10486:10489   */\n      dup3\n        /* \"#utility.yul\":10482:10494   */\n      add\n        /* \"#utility.yul\":10475:10494   */\n      swap1\n      pop\n        /* \"#utility.yul\":10134:10500   */\n      swap2\n      swap1\n      pop\n      jump\t// out\n        /* \"#utility.yul\":10506:10872   */\n    tag_544:\n        /* \"#utility.yul\":10648:10651   */\n      0x00\n        /* \"#utility.yul\":10669:10736   */\n      tag_546\n        /* \"#utility.yul\":10733:10735   */\n      0x32\n        /* \"#utility.yul\":10728:10731   */\n      dup4\n        /* \"#utility.yul\":10669:10736   */\n      tag_517\n      jump\t// in\n    tag_546:\n        /* \"#utility.yul\":10662:10736   */\n      swap2\n      pop\n        /* \"#utility.yul\":10745:10838   */\n      tag_547\n        /* \"#utility.yul\":10834:10837   */\n      dup3\n        /* \"#utility.yul\":10745:10838   */\n      tag_548\n      jump\t// in\n    tag_547:\n        /* \"#utility.yul\":10863:10865   */\n      0x40\n        /* \"#utility.yul\":10858:10861   */\n      dup3\n        /* \"#utility.yul\":10854:10866   */\n      add\n        /* \"#utility.yul\":10847:10866   */\n      swap1\n      pop\n        /* \"#utility.yul\":10506:10872   */\n      swap2\n      swap1\n      pop\n      jump\t// out\n        /* \"#utility.yul\":10878:11244   */\n    tag_549:\n        /* \"#utility.yul\":11020:11023   */\n      0x00\n        /* \"#utility.yul\":11041:11108   */\n      tag_551\n        /* \"#utility.yul\":11105:11107   */\n      0x20\n        /* \"#utility.yul\":11100:11103   */\n      dup4\n        /* \"#utility.yul\":11041:11108   */\n      tag_517\n      jump\t// in\n    tag_551:\n        /* \"#utility.yul\":11034:11108   */\n      swap2\n      pop\n        /* \"#utility.yul\":11117:11210   */\n      tag_552\n        /* \"#utility.yul\":11206:11209   */\n      dup3\n        /* \"#utility.yul\":11117:11210   */\n      tag_553\n      jump\t// in\n    tag_552:\n        /* \"#utility.yul\":11235:11237   */\n      0x20\n        /* \"#utility.yul\":11230:11233   */\n      dup3\n        /* \"#utility.yul\":11226:11238   */\n      add\n        /* \"#utility.yul\":11219:11238   */\n      swap1\n      pop\n        /* \"#utility.yul\":10878:11244   */\n      swap2\n      swap1\n      pop\n      jump\t// out\n        /* \"#utility.yul\":11250:11616   */\n    tag_554:\n        /* \"#utility.yul\":11392:11395   */\n      0x00\n        /* \"#utility.yul\":11413:11480   */\n      tag_556\n        /* \"#utility.yul\":11477:11479   */\n      0x15\n        /* \"#utility.yul\":11472:11475   */\n      dup4\n        /* \"#utility.yul\":11413:11480   */\n      tag_517\n      jump\t// in\n    tag_556:\n        /* \"#utility.yul\":11406:11480   */\n      swap2\n      pop\n        /* \"#utility.yul\":11489:11582   */\n      tag_557\n        /* \"#utility.yul\":11578:11581   */\n      dup3\n        /* \"#utility.yul\":11489:11582   */\n      tag_558\n      jump\t// in\n    tag_557:\n        /* \"#utility.yul\":11607:11609   */\n      0x20\n        /* \"#utility.yul\":11602:11605   */\n      dup3\n        /* \"#utility.yul\":11598:11610   */\n      add\n        /* \"#utility.yul\":11591:11610   */\n      swap1\n      pop\n        /* \"#utility.yul\":11250:11616   */\n      swap2\n      swap1\n      pop\n      jump\t// out\n        /* \"#utility.yul\":11622:11740   */\n    tag_559:\n        /* \"#utility.yul\":11709:11733   */\n      tag_561\n        /* \"#utility.yul\":11727:11732   */\n      dup2\n        /* \"#utility.yul\":11709:11733   */\n      tag_562\n      jump\t// in\n    tag_561:\n        /* \"#utility.yul\":11704:11707   */\n      dup3\n        /* \"#utility.yul\":11697:11734   */\n      mstore\n        /* \"#utility.yul\":11622:11740   */\n      pop\n      pop\n      jump\t// out\n        /* \"#utility.yul\":11746:11903   */\n    tag_563:\n        /* \"#utility.yul\":11851:11896   */\n      tag_565\n        /* \"#utility.yul\":11871:11895   */\n      tag_566\n        /* \"#utility.yul\":11889:11894   */\n      dup3\n        /* \"#utility.yul\":11871:11895   */\n      tag_562\n      jump\t// in\n    tag_566:\n        /* \"#utility.yul\":11851:11896   */\n      tag_567\n      jump\t// in\n    tag_565:\n        /* \"#utility.yul\":11846:11849   */\n      dup3\n        /* \"#utility.yul\":11839:11897   */\n      mstore\n        /* \"#utility.yul\":11746:11903   */\n      pop\n      pop\n      jump\t// out\n        /* \"#utility.yul\":11909:12024   */\n    tag_568:\n        /* \"#utility.yul\":11994:12017   */\n      tag_570\n        /* \"#utility.yul\":12011:12016   */\n      dup2\n        /* \"#utility.yul\":11994:12017   */\n      tag_571\n      jump\t// in\n    tag_570:\n        /* \"#utility.yul\":11989:11992   */\n      dup3\n        /* \"#utility.yul\":11982:12018   */\n      mstore\n        /* \"#utility.yul\":11909:12024   */\n      pop\n      pop\n      jump\t// out\n        /* \"#utility.yul\":12030:12568   */\n    tag_200:\n        /* \"#utility.yul\":12198:12201   */\n      0x00\n        /* \"#utility.yul\":12213:12288   */\n      tag_573\n        /* \"#utility.yul\":12284:12287   */\n      dup3\n        /* \"#utility.yul\":12275:12281   */\n      dup7\n        /* \"#utility.yul\":12213:12288   */\n      tag_563\n      jump\t// in\n    tag_573:\n        /* \"#utility.yul\":12313:12315   */\n      0x20\n        /* \"#utility.yul\":12308:12311   */\n      dup3\n        /* \"#utility.yul\":12304:12316   */\n      add\n        /* \"#utility.yul\":12297:12316   */\n      swap2\n      pop\n        /* \"#utility.yul\":12326:12401   */\n      tag_574\n        /* \"#utility.yul\":12397:12400   */\n      dup3\n        /* \"#utility.yul\":12388:12394   */\n      dup6\n        /* \"#utility.yul\":12326:12401   */\n      tag_563\n      jump\t// in\n    tag_574:\n        /* \"#utility.yul\":12426:12428   */\n      0x20\n        /* \"#utility.yul\":12421:12424   */\n      dup3\n        /* \"#utility.yul\":12417:12429   */\n      add\n        /* \"#utility.yul\":12410:12429   */\n      swap2\n      pop\n        /* \"#utility.yul\":12439:12514   */\n      tag_575\n        /* \"#utility.yul\":12510:12513   */\n      dup3\n        /* \"#utility.yul\":12501:12507   */\n      dup5\n        /* \"#utility.yul\":12439:12514   */\n      tag_563\n      jump\t// in\n    tag_575:\n        /* \"#utility.yul\":12539:12541   */\n      0x20\n        /* \"#utility.yul\":12534:12537   */\n      dup3\n        /* \"#utility.yul\":12530:12542   */\n      add\n        /* \"#utility.yul\":12523:12542   */\n      swap2\n      pop\n        /* \"#utility.yul\":12559:12562   */\n      dup2\n        /* \"#utility.yul\":12552:12562   */\n      swap1\n      pop\n        /* \"#utility.yul\":12030:12568   */\n      swap5\n      swap4\n      pop\n      pop\n      pop\n      pop\n      jump\t// out\n        /* \"#utility.yul\":12574:12796   */\n    tag_39:\n        /* \"#utility.yul\":12667:12671   */\n      0x00\n        /* \"#utility.yul\":12705:12707   */\n      0x20\n        /* \"#utility.yul\":12694:12703   */\n      dup3\n        /* \"#utility.yul\":12690:12708   */\n      add\n        /* \"#utility.yul\":12682:12708   */\n      swap1\n      pop\n        /* \"#utility.yul\":12718:12789   */\n      tag_577\n        /* \"#utility.yul\":12786:12787   */\n      0x00\n        /* \"#utility.yul\":12775:12784   */\n      dup4\n        /* \"#utility.yul\":12771:12788   */\n      add\n        /* \"#utility.yul\":12762:12768   */\n      dup5\n        /* \"#utility.yul\":12718:12789   */\n      tag_504\n      jump\t// in\n    tag_577:\n        /* \"#utility.yul\":12574:12796   */\n      swap3\n      swap2\n      pop\n      pop\n      jump\t// out\n        /* \"#utility.yul\":12802:13244   */\n    tag_315:\n        /* \"#utility.yul\":12951:12955   */\n      0x00\n        /* \"#utility.yul\":12989:12991   */\n      0x60\n        /* \"#utility.yul\":12978:12987   */\n      dup3\n        /* \"#utility.yul\":12974:12992   */\n      add\n        /* \"#utility.yul\":12966:12992   */\n      swap1\n      pop\n        /* \"#utility.yul\":13002:13073   */\n      tag_579\n        /* \"#utility.yul\":13070:13071   */\n      0x00\n        /* \"#utility.yul\":13059:13068   */\n      dup4\n        /* \"#utility.yul\":13055:13072   */\n      add\n        /* \"#utility.yul\":13046:13052   */\n      dup7\n        /* \"#utility.yul\":13002:13073   */\n      tag_504\n      jump\t// in\n    tag_579:\n        /* \"#utility.yul\":13083:13155   */\n      tag_580\n        /* \"#utility.yul\":13151:13153   */\n      0x20\n        /* \"#utility.yul\":13140:13149   */\n      dup4\n        /* \"#utility.yul\":13136:13154   */\n      add\n        /* \"#utility.yul\":13127:13133   */\n      dup6\n        /* \"#utility.yul\":13083:13155   */\n      tag_504\n      jump\t// in\n    tag_580:\n        /* \"#utility.yul\":13165:13237   */\n      tag_581\n        /* \"#utility.yul\":13233:13235   */\n      0x40\n        /* \"#utility.yul\":13222:13231   */\n      dup4\n        /* \"#utility.yul\":13218:13236   */\n      add\n        /* \"#utility.yul\":13209:13215   */\n      dup5\n        /* \"#utility.yul\":13165:13237   */\n      tag_559\n      jump\t// in\n    tag_581:\n        /* \"#utility.yul\":12802:13244   */\n      swap5\n      swap4\n      pop\n      pop\n      pop\n      pop\n      jump\t// out\n        /* \"#utility.yul\":13250:14516   */\n    tag_116:\n        /* \"#utility.yul\":13597:13601   */\n      0x00\n        /* \"#utility.yul\":13635:13638   */\n      0x0100\n        /* \"#utility.yul\":13624:13633   */\n      dup3\n        /* \"#utility.yul\":13620:13639   */\n      add\n        /* \"#utility.yul\":13612:13639   */\n      swap1\n      pop\n        /* \"#utility.yul\":13649:13720   */\n      tag_583\n        /* \"#utility.yul\":13717:13718   */\n      0x00\n        /* \"#utility.yul\":13706:13715   */\n      dup4\n        /* \"#utility.yul\":13702:13719   */\n      add\n        /* \"#utility.yul\":13693:13699   */\n      dup12\n        /* \"#utility.yul\":13649:13720   */\n      tag_504\n      jump\t// in\n    tag_583:\n        /* \"#utility.yul\":13767:13776   */\n      dup2\n        /* \"#utility.yul\":13761:13765   */\n      dup2\n        /* \"#utility.yul\":13757:13777   */\n      sub\n        /* \"#utility.yul\":13752:13754   */\n      0x20\n        /* \"#utility.yul\":13741:13750   */\n      dup4\n        /* \"#utility.yul\":13737:13755   */\n      add\n        /* \"#utility.yul\":13730:13778   */\n      mstore\n        /* \"#utility.yul\":13795:13873   */\n      tag_584\n        /* \"#utility.yul\":13868:13872   */\n      dup2\n        /* \"#utility.yul\":13859:13865   */\n      dup11\n        /* \"#utility.yul\":13795:13873   */\n      tag_512\n      jump\t// in\n    tag_584:\n        /* \"#utility.yul\":13787:13873   */\n      swap1\n      pop\n        /* \"#utility.yul\":13920:13929   */\n      dup2\n        /* \"#utility.yul\":13914:13918   */\n      dup2\n        /* \"#utility.yul\":13910:13930   */\n      sub\n        /* \"#utility.yul\":13905:13907   */\n      0x40\n        /* \"#utility.yul\":13894:13903   */\n      dup4\n        /* \"#utility.yul\":13890:13908   */\n      add\n        /* \"#utility.yul\":13883:13931   */\n      mstore\n        /* \"#utility.yul\":13948:14026   */\n      tag_585\n        /* \"#utility.yul\":14021:14025   */\n      dup2\n        /* \"#utility.yul\":14012:14018   */\n      dup10\n        /* \"#utility.yul\":13948:14026   */\n      tag_512\n      jump\t// in\n    tag_585:\n        /* \"#utility.yul\":13940:14026   */\n      swap1\n      pop\n        /* \"#utility.yul\":14073:14082   */\n      dup2\n        /* \"#utility.yul\":14067:14071   */\n      dup2\n        /* \"#utility.yul\":14063:14083   */\n      sub\n        /* \"#utility.yul\":14058:14060   */\n      0x60\n        /* \"#utility.yul\":14047:14056   */\n      dup4\n        /* \"#utility.yul\":14043:14061   */\n      add\n        /* \"#utility.yul\":14036:14084   */\n      mstore\n        /* \"#utility.yul\":14101:14179   */\n      tag_586\n        /* \"#utility.yul\":14174:14178   */\n      dup2\n        /* \"#utility.yul\":14165:14171   */\n      dup9\n        /* \"#utility.yul\":14101:14179   */\n      tag_512\n      jump\t// in\n    tag_586:\n        /* \"#utility.yul\":14093:14179   */\n      swap1\n      pop\n        /* \"#utility.yul\":14189:14262   */\n      tag_587\n        /* \"#utility.yul\":14257:14260   */\n      0x80\n        /* \"#utility.yul\":14246:14255   */\n      dup4\n        /* \"#utility.yul\":14242:14261   */\n      add\n        /* \"#utility.yul\":14233:14239   */\n      dup8\n        /* \"#utility.yul\":14189:14262   */\n      tag_559\n      jump\t// in\n    tag_587:\n        /* \"#utility.yul\":14272:14345   */\n      tag_588\n        /* \"#utility.yul\":14340:14343   */\n      0xa0\n        /* \"#utility.yul\":14329:14338   */\n      dup4\n        /* \"#utility.yul\":14325:14344   */\n      add\n        /* \"#utility.yul\":14316:14322   */\n      dup7\n        /* \"#utility.yul\":14272:14345   */\n      tag_559\n      jump\t// in\n    tag_588:\n        /* \"#utility.yul\":14355:14428   */\n      tag_589\n        /* \"#utility.yul\":14423:14426   */\n      0xc0\n        /* \"#utility.yul\":14412:14421   */\n      dup4\n        /* \"#utility.yul\":14408:14427   */\n      add\n        /* \"#utility.yul\":14399:14405   */\n      dup6\n        /* \"#utility.yul\":14355:14428   */\n      tag_559\n      jump\t// in\n    tag_589:\n        /* \"#utility.yul\":14438:14509   */\n      tag_590\n        /* \"#utility.yul\":14504:14507   */\n      0xe0\n        /* \"#utility.yul\":14493:14502   */\n      dup4\n        /* \"#utility.yul\":14489:14508   */\n      add\n        /* \"#utility.yul\":14480:14486   */\n      dup5\n        /* \"#utility.yul\":14438:14509   */\n      tag_568\n      jump\t// in\n    tag_590:\n        /* \"#utility.yul\":13250:14516   */\n      swap10\n      swap9\n      pop\n      pop\n      pop\n      pop\n      pop\n      pop\n      pop\n      pop\n      pop\n      jump\t// out\n        /* \"#utility.yul\":14522:14732   */\n    tag_127:\n        /* \"#utility.yul\":14609:14613   */\n      0x00\n        /* \"#utility.yul\":14647:14649   */\n      0x20\n        /* \"#utility.yul\":14636:14645   */\n      dup3\n        /* \"#utility.yul\":14632:14650   */\n      add\n        /* \"#utility.yul\":14624:14650   */\n      swap1\n      pop\n        /* \"#utility.yul\":14660:14725   */\n      tag_592\n        /* \"#utility.yul\":14722:14723   */\n      0x00\n        /* \"#utility.yul\":14711:14720   */\n      dup4\n        /* \"#utility.yul\":14707:14724   */\n      add\n        /* \"#utility.yul\":14698:14704   */\n      dup5\n        /* \"#utility.yul\":14660:14725   */\n      tag_508\n      jump\t// in\n    tag_592:\n        /* \"#utility.yul\":14522:14732   */\n      swap3\n      swap2\n      pop\n      pop\n      jump\t// out\n        /* \"#utility.yul\":14738:15051   */\n    tag_32:\n        /* \"#utility.yul\":14851:14855   */\n      0x00\n        /* \"#utility.yul\":14889:14891   */\n      0x20\n        /* \"#utility.yul\":14878:14887   */\n      dup3\n        /* \"#utility.yul\":14874:14892   */\n      add\n        /* \"#utility.yul\":14866:14892   */\n      swap1\n      pop\n        /* \"#utility.yul\":14938:14947   */\n      dup2\n        /* \"#utility.yul\":14932:14936   */\n      dup2\n        /* \"#utility.yul\":14928:14948   */\n      sub\n        /* \"#utility.yul\":14924:14925   */\n      0x00\n        /* \"#utility.yul\":14913:14922   */\n      dup4\n        /* \"#utility.yul\":14909:14926   */\n      add\n        /* \"#utility.yul\":14902:14949   */\n      mstore\n        /* \"#utility.yul\":14966:15044   */\n      tag_594\n        /* \"#utility.yul\":15039:15043   */\n      dup2\n        /* \"#utility.yul\":15030:15036   */\n      dup5\n        /* \"#utility.yul\":14966:15044   */\n      tag_512\n      jump\t// in\n    tag_594:\n        /* \"#utility.yul\":14958:15044   */\n      swap1\n      pop\n        /* \"#utility.yul\":14738:15051   */\n      swap3\n      swap2\n      pop\n      pop\n      jump\t// out\n        /* \"#utility.yul\":15057:15887   */\n    tag_362:\n        /* \"#utility.yul\":15294:15298   */\n      0x00\n        /* \"#utility.yul\":15332:15335   */\n      0xa0\n        /* \"#utility.yul\":15321:15330   */\n      dup3\n        /* \"#utility.yul\":15317:15336   */\n      add\n        /* \"#utility.yul\":15309:15336   */\n      swap1\n      pop\n        /* \"#utility.yul\":15382:15391   */\n      dup2\n        /* \"#utility.yul\":15376:15380   */\n      dup2\n        /* \"#utility.yul\":15372:15392   */\n      sub\n        /* \"#utility.yul\":15368:15369   */\n      0x00\n        /* \"#utility.yul\":15357:15366   */\n      dup4\n        /* \"#utility.yul\":15353:15370   */\n      add\n        /* \"#utility.yul\":15346:15393   */\n      mstore\n        /* \"#utility.yul\":15410:15485   */\n      tag_596\n        /* \"#utility.yul\":15480:15484   */\n      dup2\n        /* \"#utility.yul\":15471:15477   */\n      dup9\n        /* \"#utility.yul\":15410:15485   */\n      tag_522\n      jump\t// in\n    tag_596:\n        /* \"#utility.yul\":15402:15485   */\n      swap1\n      pop\n        /* \"#utility.yul\":15532:15541   */\n      dup2\n        /* \"#utility.yul\":15526:15530   */\n      dup2\n        /* \"#utility.yul\":15522:15542   */\n      sub\n        /* \"#utility.yul\":15517:15519   */\n      0x20\n        /* \"#utility.yul\":15506:15515   */\n      dup4\n        /* \"#utility.yul\":15502:15520   */\n      add\n        /* \"#utility.yul\":15495:15543   */\n      mstore\n        /* \"#utility.yul\":15560:15635   */\n      tag_597\n        /* \"#utility.yul\":15630:15634   */\n      dup2\n        /* \"#utility.yul\":15621:15627   */\n      dup8\n        /* \"#utility.yul\":15560:15635   */\n      tag_522\n      jump\t// in\n    tag_597:\n        /* \"#utility.yul\":15552:15635   */\n      swap1\n      pop\n        /* \"#utility.yul\":15645:15715   */\n      tag_598\n        /* \"#utility.yul\":15711:15713   */\n      0x40\n        /* \"#utility.yul\":15700:15709   */\n      dup4\n        /* \"#utility.yul\":15696:15714   */\n      add\n        /* \"#utility.yul\":15687:15693   */\n      dup7\n        /* \"#utility.yul\":15645:15715   */\n      tag_568\n      jump\t// in\n    tag_598:\n        /* \"#utility.yul\":15725:15797   */\n      tag_599\n        /* \"#utility.yul\":15793:15795   */\n      0x60\n        /* \"#utility.yul\":15782:15791   */\n      dup4\n        /* \"#utility.yul\":15778:15796   */\n      add\n        /* \"#utility.yul\":15769:15775   */\n      dup6\n        /* \"#utility.yul\":15725:15797   */\n      tag_559\n      jump\t// in\n    tag_599:\n        /* \"#utility.yul\":15807:15880   */\n      tag_600\n        /* \"#utility.yul\":15875:15878   */\n      0x80\n        /* \"#utility.yul\":15864:15873   */\n      dup4\n        /* \"#utility.yul\":15860:15879   */\n      add\n        /* \"#utility.yul\":15851:15857   */\n      dup5\n        /* \"#utility.yul\":15807:15880   */\n      tag_559\n      jump\t// in\n    tag_600:\n        /* \"#utility.yul\":15057:15887   */\n      swap7\n      swap6\n      pop\n      pop\n      pop\n      pop\n      pop\n      pop\n      jump\t// out\n        /* \"#utility.yul\":15893:16312   */\n    tag_160:\n        /* \"#utility.yul\":16059:16063   */\n      0x00\n        /* \"#utility.yul\":16097:16099   */\n      0x20\n        /* \"#utility.yul\":16086:16095   */\n      dup3\n        /* \"#utility.yul\":16082:16100   */\n      add\n        /* \"#utility.yul\":16074:16100   */\n      swap1\n      pop\n        /* \"#utility.yul\":16146:16155   */\n      dup2\n        /* \"#utility.yul\":16140:16144   */\n      dup2\n        /* \"#utility.yul\":16136:16156   */\n      sub\n        /* \"#utility.yul\":16132:16133   */\n      0x00\n        /* \"#utility.yul\":16121:16130   */\n      dup4\n        /* \"#utility.yul\":16117:16134   */\n      add\n        /* \"#utility.yul\":16110:16157   */\n      mstore\n        /* \"#utility.yul\":16174:16305   */\n      tag_602\n        /* \"#utility.yul\":16300:16304   */\n      dup2\n        /* \"#utility.yul\":16174:16305   */\n      tag_534\n      jump\t// in\n    tag_602:\n        /* \"#utility.yul\":16166:16305   */\n      swap1\n      pop\n        /* \"#utility.yul\":15893:16312   */\n      swap2\n      swap1\n      pop\n      jump\t// out\n        /* \"#utility.yul\":16318:16737   */\n    tag_373:\n        /* \"#utility.yul\":16484:16488   */\n      0x00\n        /* \"#utility.yul\":16522:16524   */\n      0x20\n        /* \"#utility.yul\":16511:16520   */\n      dup3\n        /* \"#utility.yul\":16507:16525   */\n      add\n        /* \"#utility.yul\":16499:16525   */\n      swap1\n      pop\n        /* \"#utility.yul\":16571:16580   */\n      dup2\n        /* \"#utility.yul\":16565:16569   */\n      dup2\n        /* \"#utility.yul\":16561:16581   */\n      sub\n        /* \"#utility.yul\":16557:16558   */\n      0x00\n        /* \"#utility.yul\":16546:16555   */\n      dup4\n        /* \"#utility.yul\":16542:16559   */\n      add\n        /* \"#utility.yul\":16535:16582   */\n      mstore\n        /* \"#utility.yul\":16599:16730   */\n      tag_604\n        /* \"#utility.yul\":16725:16729   */\n      dup2\n        /* \"#utility.yul\":16599:16730   */\n      tag_539\n      jump\t// in\n    tag_604:\n        /* \"#utility.yul\":16591:16730   */\n      swap1\n      pop\n        /* \"#utility.yul\":16318:16737   */\n      swap2\n      swap1\n      pop\n      jump\t// out\n        /* \"#utility.yul\":16743:17162   */\n    tag_195:\n        /* \"#utility.yul\":16909:16913   */\n      0x00\n        /* \"#utility.yul\":16947:16949   */\n      0x20\n        /* \"#utility.yul\":16936:16945   */\n      dup3\n        /* \"#utility.yul\":16932:16950   */\n      add\n        /* \"#utility.yul\":16924:16950   */\n      swap1\n      pop\n        /* \"#utility.yul\":16996:17005   */\n      dup2\n        /* \"#utility.yul\":16990:16994   */\n      dup2\n        /* \"#utility.yul\":16986:17006   */\n      sub\n        /* \"#utility.yul\":16982:16983   */\n      0x00\n        /* \"#utility.yul\":16971:16980   */\n      dup4\n        /* \"#utility.yul\":16967:16984   */\n      add\n        /* \"#utility.yul\":16960:17007   */\n      mstore\n        /* \"#utility.yul\":17024:17155   */\n      tag_606\n        /* \"#utility.yul\":17150:17154   */\n      dup2\n        /* \"#utility.yul\":17024:17155   */\n      tag_544\n      jump\t// in\n    tag_606:\n        /* \"#utility.yul\":17016:17155   */\n      swap1\n      pop\n        /* \"#utility.yul\":16743:17162   */\n      swap2\n      swap1\n      pop\n      jump\t// out\n        /* \"#utility.yul\":17168:17587   */\n    tag_300:\n        /* \"#utility.yul\":17334:17338   */\n      0x00\n        /* \"#utility.yul\":17372:17374   */\n      0x20\n        /* \"#utility.yul\":17361:17370   */\n      dup3\n        /* \"#utility.yul\":17357:17375   */\n      add\n        /* \"#utility.yul\":17349:17375   */\n      swap1\n      pop\n        /* \"#utility.yul\":17421:17430   */\n      dup2\n        /* \"#utility.yul\":17415:17419   */\n      dup2\n        /* \"#utility.yul\":17411:17431   */\n      sub\n        /* \"#utility.yul\":17407:17408   */\n      0x00\n        /* \"#utility.yul\":17396:17405   */\n      dup4\n        /* \"#utility.yul\":17392:17409   */\n      add\n        /* \"#utility.yul\":17385:17432   */\n      mstore\n        /* \"#utility.yul\":17449:17580   */\n      tag_608\n        /* \"#utility.yul\":17575:17579   */\n      dup2\n        /* \"#utility.yul\":17449:17580   */\n      tag_549\n      jump\t// in\n    tag_608:\n        /* \"#utility.yul\":17441:17580   */\n      swap1\n      pop\n        /* \"#utility.yul\":17168:17587   */\n      swap2\n      swap1\n      pop\n      jump\t// out\n        /* \"#utility.yul\":17593:18012   */\n    tag_246:\n        /* \"#utility.yul\":17759:17763   */\n      0x00\n        /* \"#utility.yul\":17797:17799   */\n      0x20\n        /* \"#utility.yul\":17786:17795   */\n      dup3\n        /* \"#utility.yul\":17782:17800   */\n      add\n        /* \"#utility.yul\":17774:17800   */\n      swap1\n      pop\n        /* \"#utility.yul\":17846:17855   */\n      dup2\n        /* \"#utility.yul\":17840:17844   */\n      dup2\n        /* \"#utility.yul\":17836:17856   */\n      sub\n        /* \"#utility.yul\":17832:17833   */\n      0x00\n        /* \"#utility.yul\":17821:17830   */\n      dup4\n        /* \"#utility.yul\":17817:17834   */\n      add\n        /* \"#utility.yul\":17810:17857   */\n      mstore\n        /* \"#utility.yul\":17874:18005   */\n      tag_610\n        /* \"#utility.yul\":18000:18004   */\n      dup2\n        /* \"#utility.yul\":17874:18005   */\n      tag_554\n      jump\t// in\n    tag_610:\n        /* \"#utility.yul\":17866:18005   */\n      swap1\n      pop\n        /* \"#utility.yul\":17593:18012   */\n      swap2\n      swap1\n      pop\n      jump\t// out\n        /* \"#utility.yul\":18018:18240   */\n    tag_50:\n        /* \"#utility.yul\":18111:18115   */\n      0x00\n        /* \"#utility.yul\":18149:18151   */\n      0x20\n        /* \"#utility.yul\":18138:18147   */\n      dup3\n        /* \"#utility.yul\":18134:18152   */\n      add\n        /* \"#utility.yul\":18126:18152   */\n      swap1\n      pop\n        /* \"#utility.yul\":18162:18233   */\n      tag_612\n        /* \"#utility.yul\":18230:18231   */\n      0x00\n        /* \"#utility.yul\":18219:18228   */\n      dup4\n        /* \"#utility.yul\":18215:18232   */\n      add\n        /* \"#utility.yul\":18206:18212   */\n      dup5\n        /* \"#utility.yul\":18162:18233   */\n      tag_559\n      jump\t// in\n    tag_612:\n        /* \"#utility.yul\":18018:18240   */\n      swap3\n      swap2\n      pop\n      pop\n      jump\t// out\n        /* \"#utility.yul\":18246:18375   */\n    tag_398:\n        /* \"#utility.yul\":18280:18286   */\n      0x00\n        /* \"#utility.yul\":18307:18327   */\n      tag_614\n      tag_615\n      jump\t// in\n    tag_614:\n        /* \"#utility.yul\":18297:18327   */\n      swap1\n      pop\n        /* \"#utility.yul\":18336:18369   */\n      tag_616\n        /* \"#utility.yul\":18364:18368   */\n      dup3\n        /* \"#utility.yul\":18356:18362   */\n      dup3\n        /* \"#utility.yul\":18336:18369   */\n      tag_617\n      jump\t// in\n    tag_616:\n        /* \"#utility.yul\":18246:18375   */\n      swap2\n      swap1\n      pop\n      jump\t// out\n        /* \"#utility.yul\":18381:18456   */\n    tag_615:\n        /* \"#utility.yul\":18414:18420   */\n      0x00\n        /* \"#utility.yul\":18447:18449   */\n      0x40\n        /* \"#utility.yul\":18441:18450   */\n      mload\n        /* \"#utility.yul\":18431:18450   */\n      swap1\n      pop\n        /* \"#utility.yul\":18381:18456   */\n      swap1\n      jump\t// out\n        /* \"#utility.yul\":18462:18769   */\n    tag_397:\n        /* \"#utility.yul\":18523:18527   */\n      0x00\n        /* \"#utility.yul\":18613:18631   */\n      0xffffffffffffffff\n        /* \"#utility.yul\":18605:18611   */\n      dup3\n        /* \"#utility.yul\":18602:18632   */\n      gt\n        /* \"#utility.yul\":18599:18655   */\n      iszero\n      tag_620\n      jumpi\n        /* \"#utility.yul\":18635:18653   */\n      tag_621\n      tag_622\n      jump\t// in\n    tag_621:\n        /* \"#utility.yul\":18599:18655   */\n    tag_620:\n        /* \"#utility.yul\":18673:18702   */\n      tag_623\n        /* \"#utility.yul\":18695:18701   */\n      dup3\n        /* \"#utility.yul\":18673:18702   */\n      tag_521\n      jump\t// in\n    tag_623:\n        /* \"#utility.yul\":18665:18702   */\n      swap1\n      pop\n        /* \"#utility.yul\":18757:18761   */\n      0x20\n        /* \"#utility.yul\":18751:18755   */\n      dup2\n        /* \"#utility.yul\":18747:18762   */\n      add\n        /* \"#utility.yul\":18739:18762   */\n      swap1\n      pop\n        /* \"#utility.yul\":18462:18769   */\n      swap2\n      swap1\n      pop\n      jump\t// out\n        /* \"#utility.yul\":18775:19083   */\n    tag_408:\n        /* \"#utility.yul\":18837:18841   */\n      0x00\n        /* \"#utility.yul\":18927:18945   */\n      0xffffffffffffffff\n        /* \"#utility.yul\":18919:18925   */\n      dup3\n        /* \"#utility.yul\":18916:18946   */\n      gt\n        /* \"#utility.yul\":18913:18969   */\n      iszero\n      tag_625\n      jumpi\n        /* \"#utility.yul\":18949:18967   */\n      tag_626\n      tag_622\n      jump\t// in\n    tag_626:\n        /* \"#utility.yul\":18913:18969   */\n    tag_625:\n        /* \"#utility.yul\":18987:19016   */\n      tag_627\n        /* \"#utility.yul\":19009:19015   */\n      dup3\n        /* \"#utility.yul\":18987:19016   */\n      tag_521\n      jump\t// in\n    tag_627:\n        /* \"#utility.yul\":18979:19016   */\n      swap1\n      pop\n        /* \"#utility.yul\":19071:19075   */\n      0x20\n        /* \"#utility.yul\":19065:19069   */\n      dup2\n        /* \"#utility.yul\":19061:19076   */\n      add\n        /* \"#utility.yul\":19053:19076   */\n      swap1\n      pop\n        /* \"#utility.yul\":18775:19083   */\n      swap2\n      swap1\n      pop\n      jump\t// out\n        /* \"#utility.yul\":19089:19230   */\n    tag_530:\n        /* \"#utility.yul\":19138:19142   */\n      0x00\n        /* \"#utility.yul\":19161:19164   */\n      dup2\n        /* \"#utility.yul\":19153:19164   */\n      swap1\n      pop\n        /* \"#utility.yul\":19184:19187   */\n      dup2\n        /* \"#utility.yul\":19181:19182   */\n      0x00\n        /* \"#utility.yul\":19174:19188   */\n      mstore\n        /* \"#utility.yul\":19218:19222   */\n      0x20\n        /* \"#utility.yul\":19215:19216   */\n      0x00\n        /* \"#utility.yul\":19205:19223   */\n      keccak256\n        /* \"#utility.yul\":19197:19223   */\n      swap1\n      pop\n        /* \"#utility.yul\":19089:19230   */\n      swap2\n      swap1\n      pop\n      jump\t// out\n        /* \"#utility.yul\":19236:19335   */\n    tag_515:\n        /* \"#utility.yul\":19288:19294   */\n      0x00\n        /* \"#utility.yul\":19322:19327   */\n      dup2\n        /* \"#utility.yul\":19316:19328   */\n      mload\n        /* \"#utility.yul\":19306:19328   */\n      swap1\n      pop\n        /* \"#utility.yul\":19236:19335   */\n      swap2\n      swap1\n      pop\n      jump\t// out\n        /* \"#utility.yul\":19341:19510   */\n    tag_517:\n        /* \"#utility.yul\":19425:19436   */\n      0x00\n        /* \"#utility.yul\":19459:19465   */\n      dup3\n        /* \"#utility.yul\":19454:19457   */\n      dup3\n        /* \"#utility.yul\":19447:19466   */\n      mstore\n        /* \"#utility.yul\":19499:19503   */\n      0x20\n        /* \"#utility.yul\":19494:19497   */\n      dup3\n        /* \"#utility.yul\":19490:19504   */\n      add\n        /* \"#utility.yul\":19475:19504   */\n      swap1\n      pop\n        /* \"#utility.yul\":19341:19510   */\n      swap3\n      swap2\n      pop\n      pop\n      jump\t// out\n        /* \"#utility.yul\":19516:19821   */\n    tag_163:\n        /* \"#utility.yul\":19556:19559   */\n      0x00\n        /* \"#utility.yul\":19575:19595   */\n      tag_632\n        /* \"#utility.yul\":19593:19594   */\n      dup3\n        /* \"#utility.yul\":19575:19595   */\n      tag_562\n      jump\t// in\n    tag_632:\n        /* \"#utility.yul\":19570:19595   */\n      swap2\n      pop\n        /* \"#utility.yul\":19609:19629   */\n      tag_633\n        /* \"#utility.yul\":19627:19628   */\n      dup4\n        /* \"#utility.yul\":19609:19629   */\n      tag_562\n      jump\t// in\n    tag_633:\n        /* \"#utility.yul\":19604:19629   */\n      swap3\n      pop\n        /* \"#utility.yul\":19763:19764   */\n      dup3\n        /* \"#utility.yul\":19695:19761   */\n      0xffffffffffffffffffffffffffffffffffffffffffffffffffffffffffffffff\n        /* \"#utility.yul\":19691:19765   */\n      sub\n        /* \"#utility.yul\":19688:19689   */\n      dup3\n        /* \"#utility.yul\":19685:19766   */\n      gt\n        /* \"#utility.yul\":19682:19789   */\n      iszero\n      tag_634\n      jumpi\n        /* \"#utility.yul\":19769:19787   */\n      tag_635\n      tag_636\n      jump\t// in\n    tag_635:\n        /* \"#utility.yul\":19682:19789   */\n    tag_634:\n        /* \"#utility.yul\":19813:19814   */\n      dup3\n        /* \"#utility.yul\":19810:19811   */\n      dup3\n        /* \"#utility.yul\":19806:19815   */\n      add\n        /* \"#utility.yul\":19799:19815   */\n      swap1\n      pop\n        /* \"#utility.yul\":19516:19821   */\n      swap3\n      swap2\n      pop\n      pop\n      jump\t// out\n        /* \"#utility.yul\":19827:20018   */\n    tag_171:\n        /* \"#utility.yul\":19867:19871   */\n      0x00\n        /* \"#utility.yul\":19887:19907   */\n      tag_638\n        /* \"#utility.yul\":19905:19906   */\n      dup3\n        /* \"#utility.yul\":19887:19907   */\n      tag_562\n      jump\t// in\n    tag_638:\n        /* \"#utility.yul\":19882:19907   */\n      swap2\n      pop\n        /* \"#utility.yul\":19921:19941   */\n      tag_639\n        /* \"#utility.yul\":19939:19940   */\n      dup4\n        /* \"#utility.yul\":19921:19941   */\n      tag_562\n      jump\t// in\n    tag_639:\n        /* \"#utility.yul\":19916:19941   */\n      swap3\n      pop\n        /* \"#utility.yul\":19960:19961   */\n      dup3\n        /* \"#utility.yul\":19957:19958   */\n      dup3\n        /* \"#utility.yul\":19954:19962   */\n      lt\n        /* \"#utility.yul\":19951:19985   */\n      iszero\n      tag_640\n      jumpi\n        /* \"#utility.yul\":19965:19983   */\n      tag_641\n      tag_636\n      jump\t// in\n    tag_641:\n        /* \"#utility.yul\":19951:19985   */\n    tag_640:\n        /* \"#utility.yul\":20010:20011   */\n      dup3\n        /* \"#utility.yul\":20007:20008   */\n      dup3\n        /* \"#utility.yul\":20003:20012   */\n      sub\n        /* \"#utility.yul\":19995:20012   */\n      swap1\n      pop\n        /* \"#utility.yul\":19827:20018   */\n      swap3\n      swap2\n      pop\n      pop\n      jump\t// out\n        /* \"#utility.yul\":20024:20120   */\n    tag_507:\n        /* \"#utility.yul\":20061:20068   */\n      0x00\n        /* \"#utility.yul\":20090:20114   */\n      tag_643\n        /* \"#utility.yul\":20108:20113   */\n      dup3\n        /* \"#utility.yul\":20090:20114   */\n      tag_644\n      jump\t// in\n    tag_643:\n        /* \"#utility.yul\":20079:20114   */\n      swap1\n      pop\n        /* \"#utility.yul\":20024:20120   */\n      swap2\n      swap1\n      pop\n      jump\t// out\n        /* \"#utility.yul\":20126:20216   */\n    tag_511:\n        /* \"#utility.yul\":20160:20167   */\n      0x00\n        /* \"#utility.yul\":20203:20208   */\n      dup2\n        /* \"#utility.yul\":20196:20209   */\n      iszero\n        /* \"#utility.yul\":20189:20210   */\n      iszero\n        /* \"#utility.yul\":20178:20210   */\n      swap1\n      pop\n        /* \"#utility.yul\":20126:20216   */\n      swap2\n      swap1\n      pop\n      jump\t// out\n        /* \"#utility.yul\":20222:20348   */\n    tag_644:\n        /* \"#utility.yul\":20259:20266   */\n      0x00\n        /* \"#utility.yul\":20299:20341   */\n      0xffffffffffffffffffffffffffffffffffffffff\n        /* \"#utility.yul\":20292:20297   */\n      dup3\n        /* \"#utility.yul\":20288:20342   */\n      and\n        /* \"#utility.yul\":20277:20342   */\n      swap1\n      pop\n        /* \"#utility.yul\":20222:20348   */\n      swap2\n      swap1\n      pop\n      jump\t// out\n        /* \"#utility.yul\":20354:20431   */\n    tag_562:\n        /* \"#utility.yul\":20391:20398   */\n      0x00\n        /* \"#utility.yul\":20420:20425   */\n      dup2\n        /* \"#utility.yul\":20409:20425   */\n      swap1\n      pop\n        /* \"#utility.yul\":20354:20431   */\n      swap2\n      swap1\n      pop\n      jump\t// out\n        /* \"#utility.yul\":20437:20530   */\n    tag_571:\n        /* \"#utility.yul\":20473:20480   */\n      0x00\n        /* \"#utility.yul\":20513:20523   */\n      0xffffffff\n        /* \"#utility.yul\":20506:20511   */\n      dup3\n        /* \"#utility.yul\":20502:20524   */\n      and\n        /* \"#utility.yul\":20491:20524   */\n      swap1\n      pop\n        /* \"#utility.yul\":20437:20530   */\n      swap2\n      swap1\n      pop\n      jump\t// out\n        /* \"#utility.yul\":20536:20690   */\n    tag_403:\n        /* \"#utility.yul\":20620:20626   */\n      dup3\n        /* \"#utility.yul\":20615:20618   */\n      dup2\n        /* \"#utility.yul\":20610:20613   */\n      dup4\n        /* \"#utility.yul\":20597:20627   */\n      calldatacopy\n        /* \"#utility.yul\":20682:20683   */\n      0x00\n        /* \"#utility.yul\":20673:20679   */\n      dup4\n        /* \"#utility.yul\":20668:20671   */\n      dup4\n        /* \"#utility.yul\":20664:20680   */\n      add\n        /* \"#utility.yul\":20657:20684   */\n      mstore\n        /* \"#utility.yul\":20536:20690   */\n      pop\n      pop\n      pop\n      jump\t// out\n        /* \"#utility.yul\":20696:21003   */\n    tag_519:\n        /* \"#utility.yul\":20764:20765   */\n      0x00\n        /* \"#utility.yul\":20774:20887   */\n    tag_651:\n        /* \"#utility.yul\":20788:20794   */\n      dup4\n        /* \"#utility.yul\":20785:20786   */\n      dup2\n        /* \"#utility.yul\":20782:20795   */\n      lt\n        /* \"#utility.yul\":20774:20887   */\n      iszero\n      tag_653\n      jumpi\n        /* \"#utility.yul\":20873:20874   */\n      dup1\n        /* \"#utility.yul\":20868:20871   */\n      dup3\n        /* \"#utility.yul\":20864:20875   */\n      add\n        /* \"#utility.yul\":20858:20876   */\n      mload\n        /* \"#utility.yul\":20854:20855   */\n      dup2\n        /* \"#utility.yul\":20849:20852   */\n      dup5\n        /* \"#utility.yul\":20845:20856   */\n      add\n        /* \"#utility.yul\":20838:20877   */\n      mstore\n        /* \"#utility.yul\":20810:20812   */\n      0x20\n        /* \"#utility.yul\":20807:20808   */\n      dup2\n        /* \"#utility.yul\":20803:20813   */\n      add\n        /* \"#utility.yul\":20798:20813   */\n      swap1\n      pop\n        /* \"#utility.yul\":20774:20887   */\n      jump(tag_651)\n    tag_653:\n        /* \"#utility.yul\":20905:20911   */\n      dup4\n        /* \"#utility.yul\":20902:20903   */\n      dup2\n        /* \"#utility.yul\":20899:20912   */\n      gt\n        /* \"#utility.yul\":20896:20997   */\n      iszero\n      tag_654\n      jumpi\n        /* \"#utility.yul\":20985:20986   */\n      0x00\n        /* \"#utility.yul\":20976:20982   */\n      dup5\n        /* \"#utility.yul\":20971:20974   */\n      dup5\n        /* \"#utility.yul\":20967:20983   */\n      add\n        /* \"#utility.yul\":20960:20987   */\n      mstore\n        /* \"#utility.yul\":20896:20997   */\n    tag_654:\n        /* \"#utility.yul\":20745:21003   */\n      pop\n        /* \"#utility.yul\":20696:21003   */\n      pop\n      pop\n      pop\n      jump\t// out\n        /* \"#utility.yul\":21009:21180   */\n    tag_175:\n        /* \"#utility.yul\":21048:21051   */\n      0x00\n        /* \"#utility.yul\":21071:21095   */\n      tag_656\n        /* \"#utility.yul\":21089:21094   */\n      dup3\n        /* \"#utility.yul\":21071:21095   */\n      tag_562\n      jump\t// in\n    tag_656:\n        /* \"#utility.yul\":21062:21095   */\n      swap2\n      pop\n        /* \"#utility.yul\":21117:21121   */\n      0x00\n        /* \"#utility.yul\":21110:21115   */\n      dup3\n        /* \"#utility.yul\":21107:21122   */\n      eq\n        /* \"#utility.yul\":21104:21145   */\n      iszero\n      tag_657\n      jumpi\n        /* \"#utility.yul\":21125:21143   */\n      tag_658\n      tag_636\n      jump\t// in\n    tag_658:\n        /* \"#utility.yul\":21104:21145   */\n    tag_657:\n        /* \"#utility.yul\":21172:21173   */\n      0x01\n        /* \"#utility.yul\":21165:21170   */\n      dup3\n        /* \"#utility.yul\":21161:21174   */\n      sub\n        /* \"#utility.yul\":21154:21174   */\n      swap1\n      pop\n        /* \"#utility.yul\":21009:21180   */\n      swap2\n      swap1\n      pop\n      jump\t// out\n        /* \"#utility.yul\":21186:21506   */\n    tag_323:\n        /* \"#utility.yul\":21230:21236   */\n      0x00\n        /* \"#utility.yul\":21267:21268   */\n      0x02\n        /* \"#utility.yul\":21261:21265   */\n      dup3\n        /* \"#utility.yul\":21257:21269   */\n      div\n        /* \"#utility.yul\":21247:21269   */\n      swap1\n      pop\n        /* \"#utility.yul\":21314:21315   */\n      0x01\n        /* \"#utility.yul\":21308:21312   */\n      dup3\n        /* \"#utility.yul\":21304:21316   */\n      and\n        /* \"#utility.yul\":21335:21353   */\n      dup1\n        /* \"#utility.yul\":21325:21406   */\n      tag_660\n      jumpi\n        /* \"#utility.yul\":21391:21395   */\n      0x7f\n        /* \"#utility.yul\":21383:21389   */\n      dup3\n        /* \"#utility.yul\":21379:21396   */\n      and\n        /* \"#utility.yul\":21369:21396   */\n      swap2\n      pop\n        /* \"#utility.yul\":21325:21406   */\n    tag_660:\n        /* \"#utility.yul\":21453:21455   */\n      0x20\n        /* \"#utility.yul\":21445:21451   */\n      dup3\n        /* \"#utility.yul\":21442:21456   */\n      lt\n        /* \"#utility.yul\":21422:21440   */\n      dup2\n        /* \"#utility.yul\":21419:21457   */\n      eq\n        /* \"#utility.yul\":21416:21500   */\n      iszero\n      tag_661\n      jumpi\n        /* \"#utility.yul\":21472:21490   */\n      tag_662\n      tag_663\n      jump\t// in\n    tag_662:\n        /* \"#utility.yul\":21416:21500   */\n    tag_661:\n        /* \"#utility.yul\":21237:21506   */\n      pop\n        /* \"#utility.yul\":21186:21506   */\n      swap2\n      swap1\n      pop\n      jump\t// out\n        /* \"#utility.yul\":21512:21793   */\n    tag_617:\n        /* \"#utility.yul\":21595:21622   */\n      tag_665\n        /* \"#utility.yul\":21617:21621   */\n      dup3\n        /* \"#utility.yul\":21595:21622   */\n      tag_521\n      jump\t// in\n    tag_665:\n        /* \"#utility.yul\":21587:21593   */\n      dup2\n        /* \"#utility.yul\":21583:21623   */\n      add\n        /* \"#utility.yul\":21725:21731   */\n      dup2\n        /* \"#utility.yul\":21713:21723   */\n      dup2\n        /* \"#utility.yul\":21710:21732   */\n      lt\n        /* \"#utility.yul\":21689:21707   */\n      0xffffffffffffffff\n        /* \"#utility.yul\":21677:21687   */\n      dup3\n        /* \"#utility.yul\":21674:21708   */\n      gt\n        /* \"#utility.yul\":21671:21733   */\n      or\n        /* \"#utility.yul\":21668:21756   */\n      iszero\n      tag_666\n      jumpi\n        /* \"#utility.yul\":21736:21754   */\n      tag_667\n      tag_622\n      jump\t// in\n    tag_667:\n        /* \"#utility.yul\":21668:21756   */\n    tag_666:\n        /* \"#utility.yul\":21776:21786   */\n      dup1\n        /* \"#utility.yul\":21772:21774   */\n      0x40\n        /* \"#utility.yul\":21765:21787   */\n      mstore\n        /* \"#utility.yul\":21555:21793   */\n      pop\n        /* \"#utility.yul\":21512:21793   */\n      pop\n      pop\n      jump\t// out\n        /* \"#utility.yul\":21799:22032   */\n    tag_153:\n        /* \"#utility.yul\":21838:21841   */\n      0x00\n        /* \"#utility.yul\":21861:21885   */\n      tag_669\n        /* \"#utility.yul\":21879:21884   */\n      dup3\n        /* \"#utility.yul\":21861:21885   */\n      tag_562\n      jump\t// in\n    tag_669:\n        /* \"#utility.yul\":21852:21885   */\n      swap2\n      pop\n        /* \"#utility.yul\":21907:21973   */\n      0xffffffffffffffffffffffffffffffffffffffffffffffffffffffffffffffff\n        /* \"#utility.yul\":21900:21905   */\n      dup3\n        /* \"#utility.yul\":21897:21974   */\n      eq\n        /* \"#utility.yul\":21894:21997   */\n      iszero\n      tag_670\n      jumpi\n        /* \"#utility.yul\":21977:21995   */\n      tag_671\n      tag_636\n      jump\t// in\n    tag_671:\n        /* \"#utility.yul\":21894:21997   */\n    tag_670:\n        /* \"#utility.yul\":22024:22025   */\n      0x01\n        /* \"#utility.yul\":22017:22022   */\n      dup3\n        /* \"#utility.yul\":22013:22026   */\n      add\n        /* \"#utility.yul\":22006:22026   */\n      swap1\n      pop\n        /* \"#utility.yul\":21799:22032   */\n      swap2\n      swap1\n      pop\n      jump\t// out\n        /* \"#utility.yul\":22038:22213   */\n    tag_190:\n        /* \"#utility.yul\":22076:22079   */\n      0x00\n        /* \"#utility.yul\":22099:22122   */\n      tag_673\n        /* \"#utility.yul\":22116:22121   */\n      dup3\n        /* \"#utility.yul\":22099:22122   */\n      tag_571\n      jump\t// in\n    tag_673:\n        /* \"#utility.yul\":22090:22122   */\n      swap2\n      pop\n        /* \"#utility.yul\":22144:22154   */\n      0xffffffff\n        /* \"#utility.yul\":22137:22142   */\n      dup3\n        /* \"#utility.yul\":22134:22155   */\n      eq\n        /* \"#utility.yul\":22131:22178   */\n      iszero\n      tag_674\n      jumpi\n        /* \"#utility.yul\":22158:22176   */\n      tag_675\n      tag_636\n      jump\t// in\n    tag_675:\n        /* \"#utility.yul\":22131:22178   */\n    tag_674:\n        /* \"#utility.yul\":22205:22206   */\n      0x01\n        /* \"#utility.yul\":22198:22203   */\n      dup3\n        /* \"#utility.yul\":22194:22207   */\n      add\n        /* \"#utility.yul\":22187:22207   */\n      swap1\n      pop\n        /* \"#utility.yul\":22038:22213   */\n      swap2\n      swap1\n      pop\n      jump\t// out\n        /* \"#utility.yul\":22219:22298   */\n    tag_567:\n        /* \"#utility.yul\":22258:22265   */\n      0x00\n        /* \"#utility.yul\":22287:22292   */\n      dup2\n        /* \"#utility.yul\":22276:22292   */\n      swap1\n      pop\n        /* \"#utility.yul\":22219:22298   */\n      swap2\n      swap1\n      pop\n      jump\t// out\n        /* \"#utility.yul\":22304:22480   */\n    tag_202:\n        /* \"#utility.yul\":22336:22337   */\n      0x00\n        /* \"#utility.yul\":22353:22373   */\n      tag_678\n        /* \"#utility.yul\":22371:22372   */\n      dup3\n        /* \"#utility.yul\":22353:22373   */\n      tag_562\n      jump\t// in\n    tag_678:\n        /* \"#utility.yul\":22348:22373   */\n      swap2\n      pop\n        /* \"#utility.yul\":22387:22407   */\n      tag_679\n        /* \"#utility.yul\":22405:22406   */\n      dup4\n        /* \"#utility.yul\":22387:22407   */\n      tag_562\n      jump\t// in\n    tag_679:\n        /* \"#utility.yul\":22382:22407   */\n      swap3\n      pop\n        /* \"#utility.yul\":22426:22427   */\n      dup3\n        /* \"#utility.yul\":22416:22451   */\n      tag_680\n      jumpi\n        /* \"#utility.yul\":22431:22449   */\n      tag_681\n      tag_682\n      jump\t// in\n    tag_681:\n        /* \"#utility.yul\":22416:22451   */\n    tag_680:\n        /* \"#utility.yul\":22472:22473   */\n      dup3\n        /* \"#utility.yul\":22469:22470   */\n      dup3\n        /* \"#utility.yul\":22465:22474   */\n      mod\n        /* \"#utility.yul\":22460:22474   */\n      swap1\n      pop\n        /* \"#utility.yul\":22304:22480   */\n      swap3\n      swap2\n      pop\n      pop\n      jump\t// out\n        /* \"#utility.yul\":22486:22666   */\n    tag_636:\n        /* \"#utility.yul\":22534:22611   */\n      0x4e487b7100000000000000000000000000000000000000000000000000000000\n        /* \"#utility.yul\":22531:22532   */\n      0x00\n        /* \"#utility.yul\":22524:22612   */\n      mstore\n        /* \"#utility.yul\":22631:22635   */\n      0x11\n        /* \"#utility.yul\":22628:22629   */\n      0x04\n        /* \"#utility.yul\":22621:22636   */\n      mstore\n        /* \"#utility.yul\":22655:22659   */\n      0x24\n        /* \"#utility.yul\":22652:22653   */\n      0x00\n        /* \"#utility.yul\":22645:22660   */\n      revert\n        /* \"#utility.yul\":22672:22852   */\n    tag_682:\n        /* \"#utility.yul\":22720:22797   */\n      0x4e487b7100000000000000000000000000000000000000000000000000000000\n        /* \"#utility.yul\":22717:22718   */\n      0x00\n        /* \"#utility.yul\":22710:22798   */\n      mstore\n        /* \"#utility.yul\":22817:22821   */\n      0x12\n        /* \"#utility.yul\":22814:22815   */\n      0x04\n        /* \"#utility.yul\":22807:22822   */\n      mstore\n        /* \"#utility.yul\":22841:22845   */\n      0x24\n        /* \"#utility.yul\":22838:22839   */\n      0x00\n        /* \"#utility.yul\":22831:22846   */\n      revert\n        /* \"#utility.yul\":22858:23038   */\n    tag_663:\n        /* \"#utility.yul\":22906:22983   */\n      0x4e487b7100000000000000000000000000000000000000000000000000000000\n        /* \"#utility.yul\":22903:22904   */\n      0x00\n        /* \"#utility.yul\":22896:22984   */\n      mstore\n        /* \"#utility.yul\":23003:23007   */\n      0x22\n        /* \"#utility.yul\":23000:23001   */\n      0x04\n        /* \"#utility.yul\":22993:23008   */\n      mstore\n        /* \"#utility.yul\":23027:23031   */\n      0x24\n        /* \"#utility.yul\":23024:23025   */\n      0x00\n        /* \"#utility.yul\":23017:23032   */\n      revert\n        /* \"#utility.yul\":23044:23224   */\n    tag_140:\n        /* \"#utility.yul\":23092:23169   */\n      0x4e487b7100000000000000000000000000000000000000000000000000000000\n        /* \"#utility.yul\":23089:23090   */\n      0x00\n        /* \"#utility.yul\":23082:23170   */\n      mstore\n        /* \"#utility.yul\":23189:23193   */\n      0x32\n        /* \"#utility.yul\":23186:23187   */\n      0x04\n        /* \"#utility.yul\":23179:23194   */\n      mstore\n        /* \"#utility.yul\":23213:23217   */\n      0x24\n        /* \"#utility.yul\":23210:23211   */\n      0x00\n        /* \"#utility.yul\":23203:23218   */\n      revert\n        /* \"#utility.yul\":23230:23410   */\n    tag_622:\n        /* \"#utility.yul\":23278:23355   */\n      0x4e487b7100000000000000000000000000000000000000000000000000000000\n        /* \"#utility.yul\":23275:23276   */\n      0x00\n        /* \"#utility.yul\":23268:23356   */\n      mstore\n        /* \"#utility.yul\":23375:23379   */\n      0x41\n        /* \"#utility.yul\":23372:23373   */\n      0x04\n        /* \"#utility.yul\":23365:23380   */\n      mstore\n        /* \"#utility.yul\":23399:23403   */\n      0x24\n        /* \"#utility.yul\":23396:23397   */\n      0x00\n        /* \"#utility.yul\":23389:23404   */\n      revert\n        /* \"#utility.yul\":23416:23533   */\n    tag_427:\n        /* \"#utility.yul\":23525:23526   */\n      0x00\n        /* \"#utility.yul\":23522:23523   */\n      dup1\n        /* \"#utility.yul\":23515:23527   */\n      revert\n        /* \"#utility.yul\":23539:23656   */\n    tag_401:\n        /* \"#utility.yul\":23648:23649   */\n      0x00\n        /* \"#utility.yul\":23645:23646   */\n      dup1\n        /* \"#utility.yul\":23638:23650   */\n      revert\n        /* \"#utility.yul\":23662:23779   */\n    tag_466:\n        /* \"#utility.yul\":23771:23772   */\n      0x00\n        /* \"#utility.yul\":23768:23769   */\n      dup1\n        /* \"#utility.yul\":23761:23773   */\n      revert\n        /* \"#utility.yul\":23785:23902   */\n    tag_441:\n        /* \"#utility.yul\":23894:23895   */\n      0x00\n        /* \"#utility.yul\":23891:23892   */\n      dup1\n        /* \"#utility.yul\":23884:23896   */\n      revert\n        /* \"#utility.yul\":23908:24010   */\n    tag_521:\n        /* \"#utility.yul\":23949:23955   */\n      0x00\n        /* \"#utility.yul\":24000:24002   */\n      0x1f\n        /* \"#utility.yul\":23996:24003   */\n      not\n        /* \"#utility.yul\":23991:23993   */\n      0x1f\n        /* \"#utility.yul\":23984:23989   */\n      dup4\n        /* \"#utility.yul\":23980:23994   */\n      add\n        /* \"#utility.yul\":23976:24004   */\n      and\n        /* \"#utility.yul\":23966:24004   */\n      swap1\n      pop\n        /* \"#utility.yul\":23908:24010   */\n      swap2\n      swap1\n      pop\n      jump\t// out\n        /* \"#utility.yul\":24016:24243   */\n    tag_538:\n        /* \"#utility.yul\":24156:24190   */\n      0x536f6c6f2073652070756564652074656e657220756e20636f63686520706f72\n        /* \"#utility.yul\":24152:24153   */\n      0x00\n        /* \"#utility.yul\":24144:24150   */\n      dup3\n        /* \"#utility.yul\":24140:24154   */\n      add\n        /* \"#utility.yul\":24133:24191   */\n      mstore\n        /* \"#utility.yul\":24225:24235   */\n      0x20706572736f6e61000000000000000000000000000000000000000000000000\n        /* \"#utility.yul\":24220:24222   */\n      0x20\n        /* \"#utility.yul\":24212:24218   */\n      dup3\n        /* \"#utility.yul\":24208:24223   */\n      add\n        /* \"#utility.yul\":24201:24236   */\n      mstore\n        /* \"#utility.yul\":24016:24243   */\n      pop\n      jump\t// out\n        /* \"#utility.yul\":24249:24474   */\n    tag_543:\n        /* \"#utility.yul\":24389:24423   */\n      0x4f776e61626c653a206e6577206f776e657220697320746865207a65726f2061\n        /* \"#utility.yul\":24385:24386   */\n      0x00\n        /* \"#utility.yul\":24377:24383   */\n      dup3\n        /* \"#utility.yul\":24373:24387   */\n      add\n        /* \"#utility.yul\":24366:24424   */\n      mstore\n        /* \"#utility.yul\":24458:24466   */\n      0x6464726573730000000000000000000000000000000000000000000000000000\n        /* \"#utility.yul\":24453:24455   */\n      0x20\n        /* \"#utility.yul\":24445:24451   */\n      dup3\n        /* \"#utility.yul\":24441:24456   */\n      add\n        /* \"#utility.yul\":24434:24467   */\n      mstore\n        /* \"#utility.yul\":24249:24474   */\n      pop\n      jump\t// out\n        /* \"#utility.yul\":24480:24717   */\n    tag_548:\n        /* \"#utility.yul\":24620:24654   */\n      0x4e6f2068617920636f6368657320737566696369656e74657320706172612069\n        /* \"#utility.yul\":24616:24617   */\n      0x00\n        /* \"#utility.yul\":24608:24614   */\n      dup3\n        /* \"#utility.yul\":24604:24618   */\n      add\n        /* \"#utility.yul\":24597:24655   */\n      mstore\n        /* \"#utility.yul\":24689:24709   */\n      0x6e696369617220756e6120636172726572610000000000000000000000000000\n        /* \"#utility.yul\":24684:24686   */\n      0x20\n        /* \"#utility.yul\":24676:24682   */\n      dup3\n        /* \"#utility.yul\":24672:24687   */\n      add\n        /* \"#utility.yul\":24665:24710   */\n      mstore\n        /* \"#utility.yul\":24480:24717   */\n      pop\n      jump\t// out\n        /* \"#utility.yul\":24723:24905   */\n    tag_553:\n        /* \"#utility.yul\":24863:24897   */\n      0x4f776e61626c653a2063616c6c6572206973206e6f7420746865206f776e6572\n        /* \"#utility.yul\":24859:24860   */\n      0x00\n        /* \"#utility.yul\":24851:24857   */\n      dup3\n        /* \"#utility.yul\":24847:24861   */\n      add\n        /* \"#utility.yul\":24840:24898   */\n      mstore\n        /* \"#utility.yul\":24723:24905   */\n      pop\n      jump\t// out\n        /* \"#utility.yul\":24911:25082   */\n    tag_558:\n        /* \"#utility.yul\":25051:25074   */\n      0x456c20636f6368652067616e61646f722065733a200000000000000000000000\n        /* \"#utility.yul\":25047:25048   */\n      0x00\n        /* \"#utility.yul\":25039:25045   */\n      dup3\n        /* \"#utility.yul\":25035:25049   */\n      add\n        /* \"#utility.yul\":25028:25075   */\n      mstore\n        /* \"#utility.yul\":24911:25082   */\n      pop\n      jump\t// out\n        /* \"#utility.yul\":25088:25210   */\n    tag_415:\n        /* \"#utility.yul\":25161:25185   */\n      tag_699\n        /* \"#utility.yul\":25179:25184   */\n      dup2\n        /* \"#utility.yul\":25161:25185   */\n      tag_507\n      jump\t// in\n    tag_699:\n        /* \"#utility.yul\":25154:25159   */\n      dup2\n        /* \"#utility.yul\":25151:25186   */\n      eq\n        /* \"#utility.yul\":25141:25204   */\n      tag_700\n      jumpi\n        /* \"#utility.yul\":25200:25201   */\n      0x00\n        /* \"#utility.yul\":25197:25198   */\n      dup1\n        /* \"#utility.yul\":25190:25202   */\n      revert\n        /* \"#utility.yul\":25141:25204   */\n    tag_700:\n        /* \"#utility.yul\":25088:25210   */\n      pop\n      jump\t// out\n        /* \"#utility.yul\":25216:25332   */\n    tag_422:\n        /* \"#utility.yul\":25286:25307   */\n      tag_702\n        /* \"#utility.yul\":25301:25306   */\n      dup2\n        /* \"#utility.yul\":25286:25307   */\n      tag_511\n      jump\t// in\n    tag_702:\n        /* \"#utility.yul\":25279:25284   */\n      dup2\n        /* \"#utility.yul\":25276:25308   */\n      eq\n        /* \"#utility.yul\":25266:25326   */\n      tag_703\n      jumpi\n        /* \"#utility.yul\":25322:25323   */\n      0x00\n        /* \"#utility.yul\":25319:25320   */\n      dup1\n        /* \"#utility.yul\":25312:25324   */\n      revert\n        /* \"#utility.yul\":25266:25326   */\n    tag_703:\n        /* \"#utility.yul\":25216:25332   */\n      pop\n      jump\t// out\n        /* \"#utility.yul\":25338:25460   */\n    tag_437:\n        /* \"#utility.yul\":25411:25435   */\n      tag_705\n        /* \"#utility.yul\":25429:25434   */\n      dup2\n        /* \"#utility.yul\":25411:25435   */\n      tag_562\n      jump\t// in\n    tag_705:\n        /* \"#utility.yul\":25404:25409   */\n      dup2\n        /* \"#utility.yul\":25401:25436   */\n      eq\n        /* \"#utility.yul\":25391:25454   */\n      tag_706\n      jumpi\n        /* \"#utility.yul\":25450:25451   */\n      0x00\n        /* \"#utility.yul\":25447:25448   */\n      dup1\n        /* \"#utility.yul\":25440:25452   */\n      revert\n        /* \"#utility.yul\":25391:25454   */\n    tag_706:\n        /* \"#utility.yul\":25338:25460   */\n      pop\n      jump\t// out\n\n    auxdata: 0xa26469706673582212207a58998a66b989d30972c43df7071d3ed8df1b28b9c63b8fa2c4ae2c17bcd3da64736f6c63430008070033\n}\n",
				"bytecode": {
					"linkReferences": {},
					"object": "608060405260006001556000600255603c600355670de0b6b3a7640000600455670de0b6b3a76400006005553480156200003857600080fd5b50620000596200004d6200005f60201b60201c565b6200006760201b60201c565b6200012b565b600033905090565b60008060009054906101000a900473ffffffffffffffffffffffffffffffffffffffff169050816000806101000a81548173ffffffffffffffffffffffffffffffffffffffff021916908373ffffffffffffffffffffffffffffffffffffffff1602179055508173ffffffffffffffffffffffffffffffffffffffff168173ffffffffffffffffffffffffffffffffffffffff167f8be0079c531659141344cd1fd0a4f28419497f9722a3daafe3b4186f6b6457e060405160405180910390a35050565b612e2e806200013b6000396000f3fe6080604052600436106101355760003560e01c8063715018a6116100ab578063b2e6ceeb1161006f578063b2e6ceeb14610422578063b88d4fde1461044b578063d735573d14610467578063e172fca8146104ab578063e985e9c5146104d4578063f2fde38b1461051157610135565b8063715018a61461034f578063858b0554146103665780638da5cb5b146103a3578063a22cb465146103ce578063b2bdfa7b146103f757610135565b80632458c544116100fd5780632458c5441461021c57806342842e0e146102595780636352211e146102755780636a7d1816146102b25780636b6f0494146102e257806370a082311461031257610135565b8063049a5f651461013a578063081812fc1461016a578063095ea7b3146101a75780631c6743e4146101c357806323b872dd14610200575b600080fd5b610154600480360381019061014f9190612275565b61053a565b604051610161919061270c565b60405180910390f35b34801561017657600080fd5b50610191600480360381019061018c91906123e7565b61069b565b60405161019e919061260c565b60405180910390f35b6101c160048036038101906101bc9190612300565b6106a2565b005b3480156101cf57600080fd5b506101ea60048036038101906101e591906120c5565b610753565b6040516101f7919061282f565b60405180910390f35b61021a6004803603810190610215919061215f565b61076b565b005b34801561022857600080fd5b50610243600480360381019061023e9190612340565b610770565b604051610250919061282f565b60405180910390f35b610273600480360381019061026e919061215f565b610a52565b005b34801561028157600080fd5b5061029c600480360381019061029791906123e7565b610b93565b6040516102a9919061260c565b60405180910390f35b6102cc60048036038101906102c791906120c5565b610bd0565b6040516102d9919061270c565b60405180910390f35b6102fc60048036038101906102f791906123e7565b610d25565b604051610309919061270c565b60405180910390f35b34801561031e57600080fd5b50610339600480360381019061033491906120c5565b61162d565b604051610346919061282f565b60405180910390f35b34801561035b57600080fd5b50610364611676565b005b34801561037257600080fd5b5061038d600480360381019061038891906123e7565b6116fe565b60405161039a919061260c565b60405180910390f35b3480156103af57600080fd5b506103b8611731565b6040516103c5919061260c565b60405180910390f35b3480156103da57600080fd5b506103f560048036038101906103f09190612235565b61175a565b005b34801561040357600080fd5b5061040c61175e565b604051610419919061260c565b60405180910390f35b34801561042e57600080fd5b50610449600480360381019061044491906123e7565b611782565b005b610465600480360381019061046091906121b2565b6118ed565b005b34801561047357600080fd5b5061048e600480360381019061048991906123e7565b6118f3565b6040516104a298979695949392919061265e565b60405180910390f35b3480156104b757600080fd5b506104d260048036038101906104cd91906120c5565b611b13565b005b3480156104e057600080fd5b506104fb60048036038101906104f6919061211f565b611cba565b60405161050891906126f1565b60405180910390f35b34801561051d57600080fd5b50610538600480360381019061053391906120c5565b611cc2565b005b60608373ffffffffffffffffffffffffffffffffffffffff163373ffffffffffffffffffffffffffffffffffffffff161461057457600080fd5b600554341461058257600080fd5b60005b600680549050811015610693573373ffffffffffffffffffffffffffffffffffffffff16600682815481106105bd576105bc612bf1565b5b906000526020600020906008020160000160009054906101000a900473ffffffffffffffffffffffffffffffffffffffff1673ffffffffffffffffffffffffffffffffffffffff1614156106805783600682815481106106205761061f612bf1565b5b90600052602060002090600802016001019080519060200190610644929190611eee565b50826006828154811061065a57610659612bf1565b5b9060005260206000209060080201600201908051906020019061067e929190611eee565b505b808061068b90612ab3565b915050610585565b509392505050565b6000919050565b816009600083815260200190815260200160002060006101000a81548173ffffffffffffffffffffffffffffffffffffffff021916908373ffffffffffffffffffffffffffffffffffffffff160217905550808273ffffffffffffffffffffffffffffffffffffffff163373ffffffffffffffffffffffffffffffffffffffff167f8c5be1e5ebec7d5bd14f71427d1e84f3dd0314c0f7b2291e5b200ac8c7c3b92560405160405180910390a45050565b60086020528060005260406000206000915090505481565b505050565b60006001600860003373ffffffffffffffffffffffffffffffffffffffff1673ffffffffffffffffffffffffffffffffffffffff16815260200190815260200160002054106107f4576040517f08c379a00000000000000000000000000000000000000000000000000000000081526004016107eb9061278f565b60405180910390fd5b60066040518061010001604052803373ffffffffffffffffffffffffffffffffffffffff16815260200186815260200185815260200184815260200160008152602001600081526020016003544261084c9190612902565b63ffffffff168152602001600163ffffffff16815250908060018154018082558091505060019003906000526020600020906008020160009091909190915060008201518160000160006101000a81548173ffffffffffffffffffffffffffffffffffffffff021916908373ffffffffffffffffffffffffffffffffffffffff16021790555060208201518160010190805190602001906108ee929190611eee565b50604082015181600201908051906020019061090b929190611eee565b506060820151816003019080519060200190610928929190611eee565b506080820151816004015560a0820151816005015560c0820151816006015560e08201518160070160006101000a81548163ffffffff021916908363ffffffff160217905550505060006006805490509050336007600083815260200190815260200160002060006101000a81548173ffffffffffffffffffffffffffffffffffffffff021916908373ffffffffffffffffffffffffffffffffffffffff160217905550600860003373ffffffffffffffffffffffffffffffffffffffff1673ffffffffffffffffffffffffffffffffffffffff1681526020019081526020016000206000815480929190610a1c90612ab3565b919050555060026000815480929190610a3490612ab3565b91905055506001600254610a489190612958565b9150509392505050565b600860008373ffffffffffffffffffffffffffffffffffffffff1673ffffffffffffffffffffffffffffffffffffffff1681526020019081526020016000206000815480929190610aa290612ab3565b9190505550600860008473ffffffffffffffffffffffffffffffffffffffff1673ffffffffffffffffffffffffffffffffffffffff1681526020019081526020016000206000815480929190610af790612a26565b91905055508173ffffffffffffffffffffffffffffffffffffffff166007600083815260200190815260200160002060009054906101000a90505050808273ffffffffffffffffffffffffffffffffffffffff168473ffffffffffffffffffffffffffffffffffffffff167fddf252ad1be2c89b69c2b068fc378daa952ba7f163c4a11628f55a4df523b3ef60405160405180910390a4505050565b60006007600083815260200190815260200160002060009054906101000a900473ffffffffffffffffffffffffffffffffffffffff169050919050565b60606004543414610be057600080fd5b60005b600680549050811015610d1e578273ffffffffffffffffffffffffffffffffffffffff1660068281548110610c1b57610c1a612bf1565b5b906000526020600020906008020160000160009054906101000a900473ffffffffffffffffffffffffffffffffffffffff1673ffffffffffffffffffffffffffffffffffffffff161415610d0b5760068181548110610c7d57610c7c612bf1565b5b9060005260206000209060080201600701600081819054906101000a900463ffffffff1680929190610cae90612afc565b91906101000a81548163ffffffff021916908363ffffffff160217905550506040518060400160405280601281526020017f48612073756269646f206465206e6976656c0000000000000000000000000000815250915050610d20565b8080610d1690612ab3565b915050610be3565b505b919050565b6060600160068054905011610d6e577f6158fc8f21c8cc73ddf920956cc75d0e8a48b4fc85817a0ba89eb3b6d2a75441604051610d61906127cf565b60405180910390a1611627565b813414610d7a57600080fd5b60016000815480929190610d8d90612ab3565b9190505550600060068054905042600680549050600154604051602001610db6939291906125cf565b6040516020818303038152906040528051906020012060001c610dd99190612b33565b905060006007600083815260200190815260200160002060009054906101000a900473ffffffffffffffffffffffffffffffffffffffff16905060016000815480929190610e2690612ab3565b91905055506000606490506000814283600154604051602001610e4b939291906125cf565b6040516020818303038152906040528051906020012060001c610e6e9190612b33565b905060005b6006805490508110156116215760068181548110610e9457610e93612bf1565b5b906000526020600020906008020160000160009054906101000a900473ffffffffffffffffffffffffffffffffffffffff1673ffffffffffffffffffffffffffffffffffffffff163373ffffffffffffffffffffffffffffffffffffffff16141561160e5760068181548110610f0d57610f0c612bf1565b5b90600052602060002090600802016005016000815480929190610f2f90612ab3565b919050555060068581548110610f4857610f47612bf1565b5b90600052602060002090600802016005016000815480929190610f6a90612ab3565b9190505550610f9960068281548110610f8657610f85612bf1565b5b9060005260206000209060080201611dba565b60068181548110610fad57610fac612bf1565b5b906000526020600020906008020160070160009054906101000a900463ffffffff1663ffffffff1660068681548110610fe957610fe8612bf1565b5b906000526020600020906008020160070160009054906101000a900463ffffffff1663ffffffff1610156111ea57603c821161110857611027611dd9565b6006818154811061103b5761103a612bf1565b5b9060005260206000209060080201600401600081548092919061105d90612ab3565b91905055506006818154811061107657611075612bf1565b5b9060005260206000209060080201600701600081819054906101000a900463ffffffff16809291906110a790612afc565b91906101000a81548163ffffffff021916908363ffffffff160217905550506040518060400160405280600a81526020017f4861732067616e61646f0000000000000000000000000000000000000000000081525095505050505050611628565b7f6158fc8f21c8cc73ddf920956cc75d0e8a48b4fc85817a0ba89eb3b6d2a754416040516111359061280f565b60405180910390a13073ffffffffffffffffffffffffffffffffffffffff1663e172fca8856040518263ffffffff1660e01b8152600401611176919061260c565b600060405180830381600087803b15801561119057600080fd5b505af11580156111a4573d6000803e3d6000fd5b505050506040518060400160405280600b81526020017f486173207065726469646f00000000000000000000000000000000000000000081525095505050505050611628565b600681815481106111fe576111fd612bf1565b5b906000526020600020906008020160070160009054906101000a900463ffffffff1663ffffffff166006868154811061123a57611239612bf1565b5b906000526020600020906008020160070160009054906101000a900463ffffffff1663ffffffff16141561143b576032821161135957611278611dd9565b6006818154811061128c5761128b612bf1565b5b906000526020600020906008020160040160008154809291906112ae90612ab3565b9190505550600681815481106112c7576112c6612bf1565b5b9060005260206000209060080201600701600081819054906101000a900463ffffffff16809291906112f890612afc565b91906101000a81548163ffffffff021916908363ffffffff160217905550506040518060400160405280600a81526020017f4861732067616e61646f0000000000000000000000000000000000000000000081525095505050505050611628565b7f6158fc8f21c8cc73ddf920956cc75d0e8a48b4fc85817a0ba89eb3b6d2a754416040516113869061280f565b60405180910390a13073ffffffffffffffffffffffffffffffffffffffff1663e172fca8856040518263ffffffff1660e01b81526004016113c7919061260c565b600060405180830381600087803b1580156113e157600080fd5b505af11580156113f5573d6000803e3d6000fd5b505050506040518060400160405280600b81526020017f486173207065726469646f00000000000000000000000000000000000000000081525095505050505050611628565b6028821161152c5761144b611dd9565b6006818154811061145f5761145e612bf1565b5b9060005260206000209060080201600401600081548092919061148190612ab3565b91905055506006818154811061149a57611499612bf1565b5b9060005260206000209060080201600701600081819054906101000a900463ffffffff16809291906114cb90612afc565b91906101000a81548163ffffffff021916908363ffffffff160217905550506040518060400160405280600a81526020017f4861732067616e61646f0000000000000000000000000000000000000000000081525095505050505050611628565b7f6158fc8f21c8cc73ddf920956cc75d0e8a48b4fc85817a0ba89eb3b6d2a754416040516115599061280f565b60405180910390a13073ffffffffffffffffffffffffffffffffffffffff1663e172fca8856040518263ffffffff1660e01b815260040161159a919061260c565b600060405180830381600087803b1580156115b457600080fd5b505af11580156115c8573d6000803e3d6000fd5b505050506040518060400160405280600b81526020017f486173207065726469646f00000000000000000000000000000000000000000081525095505050505050611628565b808061161990612ab3565b915050610e73565b50505050505b5b919050565b6000600860008373ffffffffffffffffffffffffffffffffffffffff1673ffffffffffffffffffffffffffffffffffffffff168152602001908152602001600020549050919050565b61167e611e22565b73ffffffffffffffffffffffffffffffffffffffff1661169c611731565b73ffffffffffffffffffffffffffffffffffffffff16146116f2576040517f08c379a00000000000000000000000000000000000000000000000000000000081526004016116e9906127ef565b60405180910390fd5b6116fc6000611e2a565b565b60076020528060005260406000206000915054906101000a900473ffffffffffffffffffffffffffffffffffffffff1681565b60008060009054906101000a900473ffffffffffffffffffffffffffffffffffffffff16905090565b5050565b60008054906101000a900473ffffffffffffffffffffffffffffffffffffffff1681565b3373ffffffffffffffffffffffffffffffffffffffff166009600083815260200190815260200160002060009054906101000a900473ffffffffffffffffffffffffffffffffffffffff1673ffffffffffffffffffffffffffffffffffffffff16146117ed57600080fd5b60003073ffffffffffffffffffffffffffffffffffffffff16636352211e836040518263ffffffff1660e01b8152600401611828919061282f565b60206040518083038186803b15801561184057600080fd5b505afa158015611854573d6000803e3d6000fd5b505050506040513d601f19601f8201168201806040525081019061187891906120f2565b90503073ffffffffffffffffffffffffffffffffffffffff166342842e0e8233856040518463ffffffff1660e01b81526004016118b793929190612627565b600060405180830381600087803b1580156118d157600080fd5b505af11580156118e5573d6000803e3d6000fd5b505050505050565b50505050565b6006818154811061190357600080fd5b90600052602060002090600802016000915090508060000160009054906101000a900473ffffffffffffffffffffffffffffffffffffffff169080600101805461194c90612a50565b80601f016020809104026020016040519081016040528092919081815260200182805461197890612a50565b80156119c55780601f1061199a576101008083540402835291602001916119c5565b820191906000526020600020905b8154815290600101906020018083116119a857829003601f168201915b5050505050908060020180546119da90612a50565b80601f0160208091040260200160405190810160405280929190818152602001828054611a0690612a50565b8015611a535780601f10611a2857610100808354040283529160200191611a53565b820191906000526020600020905b815481529060010190602001808311611a3657829003601f168201915b505050505090806003018054611a6890612a50565b80601f0160208091040260200160405190810160405280929190818152602001828054611a9490612a50565b8015611ae15780601f10611ab657610100808354040283529160200191611ae1565b820191906000526020600020905b815481529060010190602001808311611ac457829003601f168201915b5050505050908060040154908060050154908060060154908060070160009054906101000a900463ffffffff16905088565b60005b600680549050811015611cb6578173ffffffffffffffffffffffffffffffffffffffff1660068281548110611b4e57611b4d612bf1565b5b906000526020600020906008020160000160009054906101000a900473ffffffffffffffffffffffffffffffffffffffff1673ffffffffffffffffffffffffffffffffffffffff161415611ca3577f20fdb8ab571bfbab79104bea84f9c31cb79c5ae45b5f515c1d6c8393e002835060068281548110611bd157611bd0612bf1565b5b906000526020600020906008020160020160068381548110611bf657611bf5612bf1565b5b906000526020600020906008020160010160068481548110611c1b57611c1a612bf1565b5b906000526020600020906008020160070160009054906101000a900463ffffffff1660068581548110611c5157611c50612bf1565b5b90600052602060002090600802016004015460068681548110611c7757611c76612bf1565b5b906000526020600020906008020160050154604051611c9a95949392919061272e565b60405180910390a15b8080611cae90612ab3565b915050611b16565b5050565b600092915050565b611cca611e22565b73ffffffffffffffffffffffffffffffffffffffff16611ce8611731565b73ffffffffffffffffffffffffffffffffffffffff1614611d3e576040517f08c379a0000000000000000000000000000000000000000000000000000000008152600401611d35906127ef565b60405180910390fd5b600073ffffffffffffffffffffffffffffffffffffffff168173ffffffffffffffffffffffffffffffffffffffff161415611dae576040517f08c379a0000000000000000000000000000000000000000000000000000000008152600401611da5906127af565b60405180910390fd5b611db781611e2a565b50565b60035442611dc89190612902565b63ffffffff16816006018190555050565b3373ffffffffffffffffffffffffffffffffffffffff166108fc479081150290604051600060405180830381858888f19350505050158015611e1f573d6000803e3d6000fd5b50565b600033905090565b60008060009054906101000a900473ffffffffffffffffffffffffffffffffffffffff169050816000806101000a81548173ffffffffffffffffffffffffffffffffffffffff021916908373ffffffffffffffffffffffffffffffffffffffff1602179055508173ffffffffffffffffffffffffffffffffffffffff168173ffffffffffffffffffffffffffffffffffffffff167f8be0079c531659141344cd1fd0a4f28419497f9722a3daafe3b4186f6b6457e060405160405180910390a35050565b828054611efa90612a50565b90600052602060002090601f016020900481019282611f1c5760008555611f63565b82601f10611f3557805160ff1916838001178555611f63565b82800160010185558215611f63579182015b82811115611f62578251825591602001919060010190611f47565b5b509050611f709190611f74565b5090565b5b80821115611f8d576000816000905550600101611f75565b5090565b6000611fa4611f9f8461286f565b61284a565b905082815260208101848484011115611fc057611fbf612c54565b5b611fcb8482856129e4565b509392505050565b6000611fe6611fe1846128a0565b61284a565b90508281526020810184848401111561200257612001612c54565b5b61200d8482856129e4565b509392505050565b60008135905061202481612db3565b92915050565b60008151905061203981612db3565b92915050565b60008135905061204e81612dca565b92915050565b600082601f83011261206957612068612c4f565b5b8135612079848260208601611f91565b91505092915050565b600082601f83011261209757612096612c4f565b5b81356120a7848260208601611fd3565b91505092915050565b6000813590506120bf81612de1565b92915050565b6000602082840312156120db576120da612c5e565b5b60006120e984828501612015565b91505092915050565b60006020828403121561210857612107612c5e565b5b60006121168482850161202a565b91505092915050565b6000806040838503121561213657612135612c5e565b5b600061214485828601612015565b925050602061215585828601612015565b9150509250929050565b60008060006060848603121561217857612177612c5e565b5b600061218686828701612015565b935050602061219786828701612015565b92505060406121a8868287016120b0565b9150509250925092565b600080600080608085870312156121cc576121cb612c5e565b5b60006121da87828801612015565b94505060206121eb87828801612015565b93505060406121fc878288016120b0565b925050606085013567ffffffffffffffff81111561221d5761221c612c59565b5b61222987828801612054565b91505092959194509250565b6000806040838503121561224c5761224b612c5e565b5b600061225a85828601612015565b925050602061226b8582860161203f565b9150509250929050565b60008060006060848603121561228e5761228d612c5e565b5b600061229c86828701612015565b935050602084013567ffffffffffffffff8111156122bd576122bc612c59565b5b6122c986828701612082565b925050604084013567ffffffffffffffff8111156122ea576122e9612c59565b5b6122f686828701612082565b9150509250925092565b6000806040838503121561231757612316612c5e565b5b600061232585828601612015565b9250506020612336858286016120b0565b9150509250929050565b60008060006060848603121561235957612358612c5e565b5b600084013567ffffffffffffffff81111561237757612376612c59565b5b61238386828701612082565b935050602084013567ffffffffffffffff8111156123a4576123a3612c59565b5b6123b086828701612082565b925050604084013567ffffffffffffffff8111156123d1576123d0612c59565b5b6123dd86828701612082565b9150509250925092565b6000602082840312156123fd576123fc612c5e565b5b600061240b848285016120b0565b91505092915050565b61241d8161298c565b82525050565b61242c8161299e565b82525050565b600061243d826128e6565b61244781856128f1565b93506124578185602086016129f3565b61246081612c63565b840191505092915050565b6000815461247881612a50565b61248281866128f1565b9450600182166000811461249d57600181146124af576124e2565b60ff19831686526020860193506124e2565b6124b8856128d1565b60005b838110156124da578154818901526001820191506020810190506124bb565b808801955050505b50505092915050565b60006124f86028836128f1565b915061250382612c74565b604082019050919050565b600061251b6026836128f1565b915061252682612cc3565b604082019050919050565b600061253e6032836128f1565b915061254982612d12565b604082019050919050565b60006125616020836128f1565b915061256c82612d61565b602082019050919050565b60006125846015836128f1565b915061258f82612d8a565b602082019050919050565b6125a3816129ca565b82525050565b6125ba6125b5826129ca565b612b29565b82525050565b6125c9816129d4565b82525050565b60006125db82866125a9565b6020820191506125eb82856125a9565b6020820191506125fb82846125a9565b602082019150819050949350505050565b60006020820190506126216000830184612414565b92915050565b600060608201905061263c6000830186612414565b6126496020830185612414565b612656604083018461259a565b949350505050565b600061010082019050612674600083018b612414565b8181036020830152612686818a612432565b9050818103604083015261269a8189612432565b905081810360608301526126ae8188612432565b90506126bd608083018761259a565b6126ca60a083018661259a565b6126d760c083018561259a565b6126e460e08301846125c0565b9998505050505050505050565b60006020820190506127066000830184612423565b92915050565b600060208201905081810360008301526127268184612432565b905092915050565b600060a0820190508181036000830152612748818861246b565b9050818103602083015261275c818761246b565b905061276b60408301866125c0565b612778606083018561259a565b612785608083018461259a565b9695505050505050565b600060208201905081810360008301526127a8816124eb565b9050919050565b600060208201905081810360008301526127c88161250e565b9050919050565b600060208201905081810360008301526127e881612531565b9050919050565b6000602082019050818103600083015261280881612554565b9050919050565b6000602082019050818103600083015261282881612577565b9050919050565b6000602082019050612844600083018461259a565b92915050565b6000612854612865565b90506128608282612a82565b919050565b6000604051905090565b600067ffffffffffffffff82111561288a57612889612c20565b5b61289382612c63565b9050602081019050919050565b600067ffffffffffffffff8211156128bb576128ba612c20565b5b6128c482612c63565b9050602081019050919050565b60008190508160005260206000209050919050565b600081519050919050565b600082825260208201905092915050565b600061290d826129ca565b9150612918836129ca565b9250827fffffffffffffffffffffffffffffffffffffffffffffffffffffffffffffffff0382111561294d5761294c612b64565b5b828201905092915050565b6000612963826129ca565b915061296e836129ca565b92508282101561298157612980612b64565b5b828203905092915050565b6000612997826129aa565b9050919050565b60008115159050919050565b600073ffffffffffffffffffffffffffffffffffffffff82169050919050565b6000819050919050565b600063ffffffff82169050919050565b82818337600083830152505050565b60005b83811015612a115780820151818401526020810190506129f6565b83811115612a20576000848401525b50505050565b6000612a31826129ca565b91506000821415612a4557612a44612b64565b5b600182039050919050565b60006002820490506001821680612a6857607f821691505b60208210811415612a7c57612a7b612bc2565b5b50919050565b612a8b82612c63565b810181811067ffffffffffffffff82111715612aaa57612aa9612c20565b5b80604052505050565b6000612abe826129ca565b91507fffffffffffffffffffffffffffffffffffffffffffffffffffffffffffffffff821415612af157612af0612b64565b5b600182019050919050565b6000612b07826129d4565b915063ffffffff821415612b1e57612b1d612b64565b5b600182019050919050565b6000819050919050565b6000612b3e826129ca565b9150612b49836129ca565b925082612b5957612b58612b93565b5b828206905092915050565b7f4e487b7100000000000000000000000000000000000000000000000000000000600052601160045260246000fd5b7f4e487b7100000000000000000000000000000000000000000000000000000000600052601260045260246000fd5b7f4e487b7100000000000000000000000000000000000000000000000000000000600052602260045260246000fd5b7f4e487b7100000000000000000000000000000000000000000000000000000000600052603260045260246000fd5b7f4e487b7100000000000000000000000000000000000000000000000000000000600052604160045260246000fd5b600080fd5b600080fd5b600080fd5b600080fd5b6000601f19601f8301169050919050565b7f536f6c6f2073652070756564652074656e657220756e20636f63686520706f7260008201527f20706572736f6e61000000000000000000000000000000000000000000000000602082015250565b7f4f776e61626c653a206e6577206f776e657220697320746865207a65726f206160008201527f6464726573730000000000000000000000000000000000000000000000000000602082015250565b7f4e6f2068617920636f6368657320737566696369656e7465732070617261206960008201527f6e696369617220756e6120636172726572610000000000000000000000000000602082015250565b7f4f776e61626c653a2063616c6c6572206973206e6f7420746865206f776e6572600082015250565b7f456c20636f6368652067616e61646f722065733a200000000000000000000000600082015250565b612dbc8161298c565b8114612dc757600080fd5b50565b612dd38161299e565b8114612dde57600080fd5b50565b612dea816129ca565b8114612df557600080fd5b5056fea26469706673582212207a58998a66b989d30972c43df7071d3ed8df1b28b9c63b8fa2c4ae2c17bcd3da64736f6c63430008070033",
					"opcodes": "PUSH1 0x80 PUSH1 0x40 MSTORE PUSH1 0x0 PUSH1 0x1 SSTORE PUSH1 0x0 PUSH1 0x2 SSTORE PUSH1 0x3C PUSH1 0x3 SSTORE PUSH8 0xDE0B6B3A7640000 PUSH1 0x4 SSTORE PUSH8 0xDE0B6B3A7640000 PUSH1 0x5 SSTORE CALLVALUE DUP1 ISZERO PUSH3 0x38 JUMPI PUSH1 0x0 DUP1 REVERT JUMPDEST POP PUSH3 0x59 PUSH3 0x4D PUSH3 0x5F PUSH1 0x20 SHL PUSH1 0x20 SHR JUMP JUMPDEST PUSH3 0x67 PUSH1 0x20 SHL PUSH1 0x20 SHR JUMP JUMPDEST PUSH3 0x12B JUMP JUMPDEST PUSH1 0x0 CALLER SWAP1 POP SWAP1 JUMP JUMPDEST PUSH1 0x0 DUP1 PUSH1 0x0 SWAP1 SLOAD SWAP1 PUSH2 0x100 EXP SWAP1 DIV PUSH20 0xFFFFFFFFFFFFFFFFFFFFFFFFFFFFFFFFFFFFFFFF AND SWAP1 POP DUP2 PUSH1 0x0 DUP1 PUSH2 0x100 EXP DUP2 SLOAD DUP2 PUSH20 0xFFFFFFFFFFFFFFFFFFFFFFFFFFFFFFFFFFFFFFFF MUL NOT AND SWAP1 DUP4 PUSH20 0xFFFFFFFFFFFFFFFFFFFFFFFFFFFFFFFFFFFFFFFF AND MUL OR SWAP1 SSTORE POP DUP2 PUSH20 0xFFFFFFFFFFFFFFFFFFFFFFFFFFFFFFFFFFFFFFFF AND DUP2 PUSH20 0xFFFFFFFFFFFFFFFFFFFFFFFFFFFFFFFFFFFFFFFF AND PUSH32 0x8BE0079C531659141344CD1FD0A4F28419497F9722A3DAAFE3B4186F6B6457E0 PUSH1 0x40 MLOAD PUSH1 0x40 MLOAD DUP1 SWAP2 SUB SWAP1 LOG3 POP POP JUMP JUMPDEST PUSH2 0x2E2E DUP1 PUSH3 0x13B PUSH1 0x0 CODECOPY PUSH1 0x0 RETURN INVALID PUSH1 0x80 PUSH1 0x40 MSTORE PUSH1 0x4 CALLDATASIZE LT PUSH2 0x135 JUMPI PUSH1 0x0 CALLDATALOAD PUSH1 0xE0 SHR DUP1 PUSH4 0x715018A6 GT PUSH2 0xAB JUMPI DUP1 PUSH4 0xB2E6CEEB GT PUSH2 0x6F JUMPI DUP1 PUSH4 0xB2E6CEEB EQ PUSH2 0x422 JUMPI DUP1 PUSH4 0xB88D4FDE EQ PUSH2 0x44B JUMPI DUP1 PUSH4 0xD735573D EQ PUSH2 0x467 JUMPI DUP1 PUSH4 0xE172FCA8 EQ PUSH2 0x4AB JUMPI DUP1 PUSH4 0xE985E9C5 EQ PUSH2 0x4D4 JUMPI DUP1 PUSH4 0xF2FDE38B EQ PUSH2 0x511 JUMPI PUSH2 0x135 JUMP JUMPDEST DUP1 PUSH4 0x715018A6 EQ PUSH2 0x34F JUMPI DUP1 PUSH4 0x858B0554 EQ PUSH2 0x366 JUMPI DUP1 PUSH4 0x8DA5CB5B EQ PUSH2 0x3A3 JUMPI DUP1 PUSH4 0xA22CB465 EQ PUSH2 0x3CE JUMPI DUP1 PUSH4 0xB2BDFA7B EQ PUSH2 0x3F7 JUMPI PUSH2 0x135 JUMP JUMPDEST DUP1 PUSH4 0x2458C544 GT PUSH2 0xFD JUMPI DUP1 PUSH4 0x2458C544 EQ PUSH2 0x21C JUMPI DUP1 PUSH4 0x42842E0E EQ PUSH2 0x259 JUMPI DUP1 PUSH4 0x6352211E EQ PUSH2 0x275 JUMPI DUP1 PUSH4 0x6A7D1816 EQ PUSH2 0x2B2 JUMPI DUP1 PUSH4 0x6B6F0494 EQ PUSH2 0x2E2 JUMPI DUP1 PUSH4 0x70A08231 EQ PUSH2 0x312 JUMPI PUSH2 0x135 JUMP JUMPDEST DUP1 PUSH4 0x49A5F65 EQ PUSH2 0x13A JUMPI DUP1 PUSH4 0x81812FC EQ PUSH2 0x16A JUMPI DUP1 PUSH4 0x95EA7B3 EQ PUSH2 0x1A7 JUMPI DUP1 PUSH4 0x1C6743E4 EQ PUSH2 0x1C3 JUMPI DUP1 PUSH4 0x23B872DD EQ PUSH2 0x200 JUMPI JUMPDEST PUSH1 0x0 DUP1 REVERT JUMPDEST PUSH2 0x154 PUSH1 0x4 DUP1 CALLDATASIZE SUB DUP2 ADD SWAP1 PUSH2 0x14F SWAP2 SWAP1 PUSH2 0x2275 JUMP JUMPDEST PUSH2 0x53A JUMP JUMPDEST PUSH1 0x40 MLOAD PUSH2 0x161 SWAP2 SWAP1 PUSH2 0x270C JUMP JUMPDEST PUSH1 0x40 MLOAD DUP1 SWAP2 SUB SWAP1 RETURN JUMPDEST CALLVALUE DUP1 ISZERO PUSH2 0x176 JUMPI PUSH1 0x0 DUP1 REVERT JUMPDEST POP PUSH2 0x191 PUSH1 0x4 DUP1 CALLDATASIZE SUB DUP2 ADD SWAP1 PUSH2 0x18C SWAP2 SWAP1 PUSH2 0x23E7 JUMP JUMPDEST PUSH2 0x69B JUMP JUMPDEST PUSH1 0x40 MLOAD PUSH2 0x19E SWAP2 SWAP1 PUSH2 0x260C JUMP JUMPDEST PUSH1 0x40 MLOAD DUP1 SWAP2 SUB SWAP1 RETURN JUMPDEST PUSH2 0x1C1 PUSH1 0x4 DUP1 CALLDATASIZE SUB DUP2 ADD SWAP1 PUSH2 0x1BC SWAP2 SWAP1 PUSH2 0x2300 JUMP JUMPDEST PUSH2 0x6A2 JUMP JUMPDEST STOP JUMPDEST CALLVALUE DUP1 ISZERO PUSH2 0x1CF JUMPI PUSH1 0x0 DUP1 REVERT JUMPDEST POP PUSH2 0x1EA PUSH1 0x4 DUP1 CALLDATASIZE SUB DUP2 ADD SWAP1 PUSH2 0x1E5 SWAP2 SWAP1 PUSH2 0x20C5 JUMP JUMPDEST PUSH2 0x753 JUMP JUMPDEST PUSH1 0x40 MLOAD PUSH2 0x1F7 SWAP2 SWAP1 PUSH2 0x282F JUMP JUMPDEST PUSH1 0x40 MLOAD DUP1 SWAP2 SUB SWAP1 RETURN JUMPDEST PUSH2 0x21A PUSH1 0x4 DUP1 CALLDATASIZE SUB DUP2 ADD SWAP1 PUSH2 0x215 SWAP2 SWAP1 PUSH2 0x215F JUMP JUMPDEST PUSH2 0x76B JUMP JUMPDEST STOP JUMPDEST CALLVALUE DUP1 ISZERO PUSH2 0x228 JUMPI PUSH1 0x0 DUP1 REVERT JUMPDEST POP PUSH2 0x243 PUSH1 0x4 DUP1 CALLDATASIZE SUB DUP2 ADD SWAP1 PUSH2 0x23E SWAP2 SWAP1 PUSH2 0x2340 JUMP JUMPDEST PUSH2 0x770 JUMP JUMPDEST PUSH1 0x40 MLOAD PUSH2 0x250 SWAP2 SWAP1 PUSH2 0x282F JUMP JUMPDEST PUSH1 0x40 MLOAD DUP1 SWAP2 SUB SWAP1 RETURN JUMPDEST PUSH2 0x273 PUSH1 0x4 DUP1 CALLDATASIZE SUB DUP2 ADD SWAP1 PUSH2 0x26E SWAP2 SWAP1 PUSH2 0x215F JUMP JUMPDEST PUSH2 0xA52 JUMP JUMPDEST STOP JUMPDEST CALLVALUE DUP1 ISZERO PUSH2 0x281 JUMPI PUSH1 0x0 DUP1 REVERT JUMPDEST POP PUSH2 0x29C PUSH1 0x4 DUP1 CALLDATASIZE SUB DUP2 ADD SWAP1 PUSH2 0x297 SWAP2 SWAP1 PUSH2 0x23E7 JUMP JUMPDEST PUSH2 0xB93 JUMP JUMPDEST PUSH1 0x40 MLOAD PUSH2 0x2A9 SWAP2 SWAP1 PUSH2 0x260C JUMP JUMPDEST PUSH1 0x40 MLOAD DUP1 SWAP2 SUB SWAP1 RETURN JUMPDEST PUSH2 0x2CC PUSH1 0x4 DUP1 CALLDATASIZE SUB DUP2 ADD SWAP1 PUSH2 0x2C7 SWAP2 SWAP1 PUSH2 0x20C5 JUMP JUMPDEST PUSH2 0xBD0 JUMP JUMPDEST PUSH1 0x40 MLOAD PUSH2 0x2D9 SWAP2 SWAP1 PUSH2 0x270C JUMP JUMPDEST PUSH1 0x40 MLOAD DUP1 SWAP2 SUB SWAP1 RETURN JUMPDEST PUSH2 0x2FC PUSH1 0x4 DUP1 CALLDATASIZE SUB DUP2 ADD SWAP1 PUSH2 0x2F7 SWAP2 SWAP1 PUSH2 0x23E7 JUMP JUMPDEST PUSH2 0xD25 JUMP JUMPDEST PUSH1 0x40 MLOAD PUSH2 0x309 SWAP2 SWAP1 PUSH2 0x270C JUMP JUMPDEST PUSH1 0x40 MLOAD DUP1 SWAP2 SUB SWAP1 RETURN JUMPDEST CALLVALUE DUP1 ISZERO PUSH2 0x31E JUMPI PUSH1 0x0 DUP1 REVERT JUMPDEST POP PUSH2 0x339 PUSH1 0x4 DUP1 CALLDATASIZE SUB DUP2 ADD SWAP1 PUSH2 0x334 SWAP2 SWAP1 PUSH2 0x20C5 JUMP JUMPDEST PUSH2 0x162D JUMP JUMPDEST PUSH1 0x40 MLOAD PUSH2 0x346 SWAP2 SWAP1 PUSH2 0x282F JUMP JUMPDEST PUSH1 0x40 MLOAD DUP1 SWAP2 SUB SWAP1 RETURN JUMPDEST CALLVALUE DUP1 ISZERO PUSH2 0x35B JUMPI PUSH1 0x0 DUP1 REVERT JUMPDEST POP PUSH2 0x364 PUSH2 0x1676 JUMP JUMPDEST STOP JUMPDEST CALLVALUE DUP1 ISZERO PUSH2 0x372 JUMPI PUSH1 0x0 DUP1 REVERT JUMPDEST POP PUSH2 0x38D PUSH1 0x4 DUP1 CALLDATASIZE SUB DUP2 ADD SWAP1 PUSH2 0x388 SWAP2 SWAP1 PUSH2 0x23E7 JUMP JUMPDEST PUSH2 0x16FE JUMP JUMPDEST PUSH1 0x40 MLOAD PUSH2 0x39A SWAP2 SWAP1 PUSH2 0x260C JUMP JUMPDEST PUSH1 0x40 MLOAD DUP1 SWAP2 SUB SWAP1 RETURN JUMPDEST CALLVALUE DUP1 ISZERO PUSH2 0x3AF JUMPI PUSH1 0x0 DUP1 REVERT JUMPDEST POP PUSH2 0x3B8 PUSH2 0x1731 JUMP JUMPDEST PUSH1 0x40 MLOAD PUSH2 0x3C5 SWAP2 SWAP1 PUSH2 0x260C JUMP JUMPDEST PUSH1 0x40 MLOAD DUP1 SWAP2 SUB SWAP1 RETURN JUMPDEST CALLVALUE DUP1 ISZERO PUSH2 0x3DA JUMPI PUSH1 0x0 DUP1 REVERT JUMPDEST POP PUSH2 0x3F5 PUSH1 0x4 DUP1 CALLDATASIZE SUB DUP2 ADD SWAP1 PUSH2 0x3F0 SWAP2 SWAP1 PUSH2 0x2235 JUMP JUMPDEST PUSH2 0x175A JUMP JUMPDEST STOP JUMPDEST CALLVALUE DUP1 ISZERO PUSH2 0x403 JUMPI PUSH1 0x0 DUP1 REVERT JUMPDEST POP PUSH2 0x40C PUSH2 0x175E JUMP JUMPDEST PUSH1 0x40 MLOAD PUSH2 0x419 SWAP2 SWAP1 PUSH2 0x260C JUMP JUMPDEST PUSH1 0x40 MLOAD DUP1 SWAP2 SUB SWAP1 RETURN JUMPDEST CALLVALUE DUP1 ISZERO PUSH2 0x42E JUMPI PUSH1 0x0 DUP1 REVERT JUMPDEST POP PUSH2 0x449 PUSH1 0x4 DUP1 CALLDATASIZE SUB DUP2 ADD SWAP1 PUSH2 0x444 SWAP2 SWAP1 PUSH2 0x23E7 JUMP JUMPDEST PUSH2 0x1782 JUMP JUMPDEST STOP JUMPDEST PUSH2 0x465 PUSH1 0x4 DUP1 CALLDATASIZE SUB DUP2 ADD SWAP1 PUSH2 0x460 SWAP2 SWAP1 PUSH2 0x21B2 JUMP JUMPDEST PUSH2 0x18ED JUMP JUMPDEST STOP JUMPDEST CALLVALUE DUP1 ISZERO PUSH2 0x473 JUMPI PUSH1 0x0 DUP1 REVERT JUMPDEST POP PUSH2 0x48E PUSH1 0x4 DUP1 CALLDATASIZE SUB DUP2 ADD SWAP1 PUSH2 0x489 SWAP2 SWAP1 PUSH2 0x23E7 JUMP JUMPDEST PUSH2 0x18F3 JUMP JUMPDEST PUSH1 0x40 MLOAD PUSH2 0x4A2 SWAP9 SWAP8 SWAP7 SWAP6 SWAP5 SWAP4 SWAP3 SWAP2 SWAP1 PUSH2 0x265E JUMP JUMPDEST PUSH1 0x40 MLOAD DUP1 SWAP2 SUB SWAP1 RETURN JUMPDEST CALLVALUE DUP1 ISZERO PUSH2 0x4B7 JUMPI PUSH1 0x0 DUP1 REVERT JUMPDEST POP PUSH2 0x4D2 PUSH1 0x4 DUP1 CALLDATASIZE SUB DUP2 ADD SWAP1 PUSH2 0x4CD SWAP2 SWAP1 PUSH2 0x20C5 JUMP JUMPDEST PUSH2 0x1B13 JUMP JUMPDEST STOP JUMPDEST CALLVALUE DUP1 ISZERO PUSH2 0x4E0 JUMPI PUSH1 0x0 DUP1 REVERT JUMPDEST POP PUSH2 0x4FB PUSH1 0x4 DUP1 CALLDATASIZE SUB DUP2 ADD SWAP1 PUSH2 0x4F6 SWAP2 SWAP1 PUSH2 0x211F JUMP JUMPDEST PUSH2 0x1CBA JUMP JUMPDEST PUSH1 0x40 MLOAD PUSH2 0x508 SWAP2 SWAP1 PUSH2 0x26F1 JUMP JUMPDEST PUSH1 0x40 MLOAD DUP1 SWAP2 SUB SWAP1 RETURN JUMPDEST CALLVALUE DUP1 ISZERO PUSH2 0x51D JUMPI PUSH1 0x0 DUP1 REVERT JUMPDEST POP PUSH2 0x538 PUSH1 0x4 DUP1 CALLDATASIZE SUB DUP2 ADD SWAP1 PUSH2 0x533 SWAP2 SWAP1 PUSH2 0x20C5 JUMP JUMPDEST PUSH2 0x1CC2 JUMP JUMPDEST STOP JUMPDEST PUSH1 0x60 DUP4 PUSH20 0xFFFFFFFFFFFFFFFFFFFFFFFFFFFFFFFFFFFFFFFF AND CALLER PUSH20 0xFFFFFFFFFFFFFFFFFFFFFFFFFFFFFFFFFFFFFFFF AND EQ PUSH2 0x574 JUMPI PUSH1 0x0 DUP1 REVERT JUMPDEST PUSH1 0x5 SLOAD CALLVALUE EQ PUSH2 0x582 JUMPI PUSH1 0x0 DUP1 REVERT JUMPDEST PUSH1 0x0 JUMPDEST PUSH1 0x6 DUP1 SLOAD SWAP1 POP DUP2 LT ISZERO PUSH2 0x693 JUMPI CALLER PUSH20 0xFFFFFFFFFFFFFFFFFFFFFFFFFFFFFFFFFFFFFFFF AND PUSH1 0x6 DUP3 DUP2 SLOAD DUP2 LT PUSH2 0x5BD JUMPI PUSH2 0x5BC PUSH2 0x2BF1 JUMP JUMPDEST JUMPDEST SWAP1 PUSH1 0x0 MSTORE PUSH1 0x20 PUSH1 0x0 KECCAK256 SWAP1 PUSH1 0x8 MUL ADD PUSH1 0x0 ADD PUSH1 0x0 SWAP1 SLOAD SWAP1 PUSH2 0x100 EXP SWAP1 DIV PUSH20 0xFFFFFFFFFFFFFFFFFFFFFFFFFFFFFFFFFFFFFFFF AND PUSH20 0xFFFFFFFFFFFFFFFFFFFFFFFFFFFFFFFFFFFFFFFF AND EQ ISZERO PUSH2 0x680 JUMPI DUP4 PUSH1 0x6 DUP3 DUP2 SLOAD DUP2 LT PUSH2 0x620 JUMPI PUSH2 0x61F PUSH2 0x2BF1 JUMP JUMPDEST JUMPDEST SWAP1 PUSH1 0x0 MSTORE PUSH1 0x20 PUSH1 0x0 KECCAK256 SWAP1 PUSH1 0x8 MUL ADD PUSH1 0x1 ADD SWAP1 DUP1 MLOAD SWAP1 PUSH1 0x20 ADD SWAP1 PUSH2 0x644 SWAP3 SWAP2 SWAP1 PUSH2 0x1EEE JUMP JUMPDEST POP DUP3 PUSH1 0x6 DUP3 DUP2 SLOAD DUP2 LT PUSH2 0x65A JUMPI PUSH2 0x659 PUSH2 0x2BF1 JUMP JUMPDEST JUMPDEST SWAP1 PUSH1 0x0 MSTORE PUSH1 0x20 PUSH1 0x0 KECCAK256 SWAP1 PUSH1 0x8 MUL ADD PUSH1 0x2 ADD SWAP1 DUP1 MLOAD SWAP1 PUSH1 0x20 ADD SWAP1 PUSH2 0x67E SWAP3 SWAP2 SWAP1 PUSH2 0x1EEE JUMP JUMPDEST POP JUMPDEST DUP1 DUP1 PUSH2 0x68B SWAP1 PUSH2 0x2AB3 JUMP JUMPDEST SWAP2 POP POP PUSH2 0x585 JUMP JUMPDEST POP SWAP4 SWAP3 POP POP POP JUMP JUMPDEST PUSH1 0x0 SWAP2 SWAP1 POP JUMP JUMPDEST DUP2 PUSH1 0x9 PUSH1 0x0 DUP4 DUP2 MSTORE PUSH1 0x20 ADD SWAP1 DUP2 MSTORE PUSH1 0x20 ADD PUSH1 0x0 KECCAK256 PUSH1 0x0 PUSH2 0x100 EXP DUP2 SLOAD DUP2 PUSH20 0xFFFFFFFFFFFFFFFFFFFFFFFFFFFFFFFFFFFFFFFF MUL NOT AND SWAP1 DUP4 PUSH20 0xFFFFFFFFFFFFFFFFFFFFFFFFFFFFFFFFFFFFFFFF AND MUL OR SWAP1 SSTORE POP DUP1 DUP3 PUSH20 0xFFFFFFFFFFFFFFFFFFFFFFFFFFFFFFFFFFFFFFFF AND CALLER PUSH20 0xFFFFFFFFFFFFFFFFFFFFFFFFFFFFFFFFFFFFFFFF AND PUSH32 0x8C5BE1E5EBEC7D5BD14F71427D1E84F3DD0314C0F7B2291E5B200AC8C7C3B925 PUSH1 0x40 MLOAD PUSH1 0x40 MLOAD DUP1 SWAP2 SUB SWAP1 LOG4 POP POP JUMP JUMPDEST PUSH1 0x8 PUSH1 0x20 MSTORE DUP1 PUSH1 0x0 MSTORE PUSH1 0x40 PUSH1 0x0 KECCAK256 PUSH1 0x0 SWAP2 POP SWAP1 POP SLOAD DUP2 JUMP JUMPDEST POP POP POP JUMP JUMPDEST PUSH1 0x0 PUSH1 0x1 PUSH1 0x8 PUSH1 0x0 CALLER PUSH20 0xFFFFFFFFFFFFFFFFFFFFFFFFFFFFFFFFFFFFFFFF AND PUSH20 0xFFFFFFFFFFFFFFFFFFFFFFFFFFFFFFFFFFFFFFFF AND DUP2 MSTORE PUSH1 0x20 ADD SWAP1 DUP2 MSTORE PUSH1 0x20 ADD PUSH1 0x0 KECCAK256 SLOAD LT PUSH2 0x7F4 JUMPI PUSH1 0x40 MLOAD PUSH32 0x8C379A000000000000000000000000000000000000000000000000000000000 DUP2 MSTORE PUSH1 0x4 ADD PUSH2 0x7EB SWAP1 PUSH2 0x278F JUMP JUMPDEST PUSH1 0x40 MLOAD DUP1 SWAP2 SUB SWAP1 REVERT JUMPDEST PUSH1 0x6 PUSH1 0x40 MLOAD DUP1 PUSH2 0x100 ADD PUSH1 0x40 MSTORE DUP1 CALLER PUSH20 0xFFFFFFFFFFFFFFFFFFFFFFFFFFFFFFFFFFFFFFFF AND DUP2 MSTORE PUSH1 0x20 ADD DUP7 DUP2 MSTORE PUSH1 0x20 ADD DUP6 DUP2 MSTORE PUSH1 0x20 ADD DUP5 DUP2 MSTORE PUSH1 0x20 ADD PUSH1 0x0 DUP2 MSTORE PUSH1 0x20 ADD PUSH1 0x0 DUP2 MSTORE PUSH1 0x20 ADD PUSH1 0x3 SLOAD TIMESTAMP PUSH2 0x84C SWAP2 SWAP1 PUSH2 0x2902 JUMP JUMPDEST PUSH4 0xFFFFFFFF AND DUP2 MSTORE PUSH1 0x20 ADD PUSH1 0x1 PUSH4 0xFFFFFFFF AND DUP2 MSTORE POP SWAP1 DUP1 PUSH1 0x1 DUP2 SLOAD ADD DUP1 DUP3 SSTORE DUP1 SWAP2 POP POP PUSH1 0x1 SWAP1 SUB SWAP1 PUSH1 0x0 MSTORE PUSH1 0x20 PUSH1 0x0 KECCAK256 SWAP1 PUSH1 0x8 MUL ADD PUSH1 0x0 SWAP1 SWAP2 SWAP1 SWAP2 SWAP1 SWAP2 POP PUSH1 0x0 DUP3 ADD MLOAD DUP2 PUSH1 0x0 ADD PUSH1 0x0 PUSH2 0x100 EXP DUP2 SLOAD DUP2 PUSH20 0xFFFFFFFFFFFFFFFFFFFFFFFFFFFFFFFFFFFFFFFF MUL NOT AND SWAP1 DUP4 PUSH20 0xFFFFFFFFFFFFFFFFFFFFFFFFFFFFFFFFFFFFFFFF AND MUL OR SWAP1 SSTORE POP PUSH1 0x20 DUP3 ADD MLOAD DUP2 PUSH1 0x1 ADD SWAP1 DUP1 MLOAD SWAP1 PUSH1 0x20 ADD SWAP1 PUSH2 0x8EE SWAP3 SWAP2 SWAP1 PUSH2 0x1EEE JUMP JUMPDEST POP PUSH1 0x40 DUP3 ADD MLOAD DUP2 PUSH1 0x2 ADD SWAP1 DUP1 MLOAD SWAP1 PUSH1 0x20 ADD SWAP1 PUSH2 0x90B SWAP3 SWAP2 SWAP1 PUSH2 0x1EEE JUMP JUMPDEST POP PUSH1 0x60 DUP3 ADD MLOAD DUP2 PUSH1 0x3 ADD SWAP1 DUP1 MLOAD SWAP1 PUSH1 0x20 ADD SWAP1 PUSH2 0x928 SWAP3 SWAP2 SWAP1 PUSH2 0x1EEE JUMP JUMPDEST POP PUSH1 0x80 DUP3 ADD MLOAD DUP2 PUSH1 0x4 ADD SSTORE PUSH1 0xA0 DUP3 ADD MLOAD DUP2 PUSH1 0x5 ADD SSTORE PUSH1 0xC0 DUP3 ADD MLOAD DUP2 PUSH1 0x6 ADD SSTORE PUSH1 0xE0 DUP3 ADD MLOAD DUP2 PUSH1 0x7 ADD PUSH1 0x0 PUSH2 0x100 EXP DUP2 SLOAD DUP2 PUSH4 0xFFFFFFFF MUL NOT AND SWAP1 DUP4 PUSH4 0xFFFFFFFF AND MUL OR SWAP1 SSTORE POP POP POP PUSH1 0x0 PUSH1 0x6 DUP1 SLOAD SWAP1 POP SWAP1 POP CALLER PUSH1 0x7 PUSH1 0x0 DUP4 DUP2 MSTORE PUSH1 0x20 ADD SWAP1 DUP2 MSTORE PUSH1 0x20 ADD PUSH1 0x0 KECCAK256 PUSH1 0x0 PUSH2 0x100 EXP DUP2 SLOAD DUP2 PUSH20 0xFFFFFFFFFFFFFFFFFFFFFFFFFFFFFFFFFFFFFFFF MUL NOT AND SWAP1 DUP4 PUSH20 0xFFFFFFFFFFFFFFFFFFFFFFFFFFFFFFFFFFFFFFFF AND MUL OR SWAP1 SSTORE POP PUSH1 0x8 PUSH1 0x0 CALLER PUSH20 0xFFFFFFFFFFFFFFFFFFFFFFFFFFFFFFFFFFFFFFFF AND PUSH20 0xFFFFFFFFFFFFFFFFFFFFFFFFFFFFFFFFFFFFFFFF AND DUP2 MSTORE PUSH1 0x20 ADD SWAP1 DUP2 MSTORE PUSH1 0x20 ADD PUSH1 0x0 KECCAK256 PUSH1 0x0 DUP2 SLOAD DUP1 SWAP3 SWAP2 SWAP1 PUSH2 0xA1C SWAP1 PUSH2 0x2AB3 JUMP JUMPDEST SWAP2 SWAP1 POP SSTORE POP PUSH1 0x2 PUSH1 0x0 DUP2 SLOAD DUP1 SWAP3 SWAP2 SWAP1 PUSH2 0xA34 SWAP1 PUSH2 0x2AB3 JUMP JUMPDEST SWAP2 SWAP1 POP SSTORE POP PUSH1 0x1 PUSH1 0x2 SLOAD PUSH2 0xA48 SWAP2 SWAP1 PUSH2 0x2958 JUMP JUMPDEST SWAP2 POP POP SWAP4 SWAP3 POP POP POP JUMP JUMPDEST PUSH1 0x8 PUSH1 0x0 DUP4 PUSH20 0xFFFFFFFFFFFFFFFFFFFFFFFFFFFFFFFFFFFFFFFF AND PUSH20 0xFFFFFFFFFFFFFFFFFFFFFFFFFFFFFFFFFFFFFFFF AND DUP2 MSTORE PUSH1 0x20 ADD SWAP1 DUP2 MSTORE PUSH1 0x20 ADD PUSH1 0x0 KECCAK256 PUSH1 0x0 DUP2 SLOAD DUP1 SWAP3 SWAP2 SWAP1 PUSH2 0xAA2 SWAP1 PUSH2 0x2AB3 JUMP JUMPDEST SWAP2 SWAP1 POP SSTORE POP PUSH1 0x8 PUSH1 0x0 DUP5 PUSH20 0xFFFFFFFFFFFFFFFFFFFFFFFFFFFFFFFFFFFFFFFF AND PUSH20 0xFFFFFFFFFFFFFFFFFFFFFFFFFFFFFFFFFFFFFFFF AND DUP2 MSTORE PUSH1 0x20 ADD SWAP1 DUP2 MSTORE PUSH1 0x20 ADD PUSH1 0x0 KECCAK256 PUSH1 0x0 DUP2 SLOAD DUP1 SWAP3 SWAP2 SWAP1 PUSH2 0xAF7 SWAP1 PUSH2 0x2A26 JUMP JUMPDEST SWAP2 SWAP1 POP SSTORE POP DUP2 PUSH20 0xFFFFFFFFFFFFFFFFFFFFFFFFFFFFFFFFFFFFFFFF AND PUSH1 0x7 PUSH1 0x0 DUP4 DUP2 MSTORE PUSH1 0x20 ADD SWAP1 DUP2 MSTORE PUSH1 0x20 ADD PUSH1 0x0 KECCAK256 PUSH1 0x0 SWAP1 SLOAD SWAP1 PUSH2 0x100 EXP SWAP1 POP POP POP DUP1 DUP3 PUSH20 0xFFFFFFFFFFFFFFFFFFFFFFFFFFFFFFFFFFFFFFFF AND DUP5 PUSH20 0xFFFFFFFFFFFFFFFFFFFFFFFFFFFFFFFFFFFFFFFF AND PUSH32 0xDDF252AD1BE2C89B69C2B068FC378DAA952BA7F163C4A11628F55A4DF523B3EF PUSH1 0x40 MLOAD PUSH1 0x40 MLOAD DUP1 SWAP2 SUB SWAP1 LOG4 POP POP POP JUMP JUMPDEST PUSH1 0x0 PUSH1 0x7 PUSH1 0x0 DUP4 DUP2 MSTORE PUSH1 0x20 ADD SWAP1 DUP2 MSTORE PUSH1 0x20 ADD PUSH1 0x0 KECCAK256 PUSH1 0x0 SWAP1 SLOAD SWAP1 PUSH2 0x100 EXP SWAP1 DIV PUSH20 0xFFFFFFFFFFFFFFFFFFFFFFFFFFFFFFFFFFFFFFFF AND SWAP1 POP SWAP2 SWAP1 POP JUMP JUMPDEST PUSH1 0x60 PUSH1 0x4 SLOAD CALLVALUE EQ PUSH2 0xBE0 JUMPI PUSH1 0x0 DUP1 REVERT JUMPDEST PUSH1 0x0 JUMPDEST PUSH1 0x6 DUP1 SLOAD SWAP1 POP DUP2 LT ISZERO PUSH2 0xD1E JUMPI DUP3 PUSH20 0xFFFFFFFFFFFFFFFFFFFFFFFFFFFFFFFFFFFFFFFF AND PUSH1 0x6 DUP3 DUP2 SLOAD DUP2 LT PUSH2 0xC1B JUMPI PUSH2 0xC1A PUSH2 0x2BF1 JUMP JUMPDEST JUMPDEST SWAP1 PUSH1 0x0 MSTORE PUSH1 0x20 PUSH1 0x0 KECCAK256 SWAP1 PUSH1 0x8 MUL ADD PUSH1 0x0 ADD PUSH1 0x0 SWAP1 SLOAD SWAP1 PUSH2 0x100 EXP SWAP1 DIV PUSH20 0xFFFFFFFFFFFFFFFFFFFFFFFFFFFFFFFFFFFFFFFF AND PUSH20 0xFFFFFFFFFFFFFFFFFFFFFFFFFFFFFFFFFFFFFFFF AND EQ ISZERO PUSH2 0xD0B JUMPI PUSH1 0x6 DUP2 DUP2 SLOAD DUP2 LT PUSH2 0xC7D JUMPI PUSH2 0xC7C PUSH2 0x2BF1 JUMP JUMPDEST JUMPDEST SWAP1 PUSH1 0x0 MSTORE PUSH1 0x20 PUSH1 0x0 KECCAK256 SWAP1 PUSH1 0x8 MUL ADD PUSH1 0x7 ADD PUSH1 0x0 DUP2 DUP2 SWAP1 SLOAD SWAP1 PUSH2 0x100 EXP SWAP1 DIV PUSH4 0xFFFFFFFF AND DUP1 SWAP3 SWAP2 SWAP1 PUSH2 0xCAE SWAP1 PUSH2 0x2AFC JUMP JUMPDEST SWAP2 SWAP1 PUSH2 0x100 EXP DUP2 SLOAD DUP2 PUSH4 0xFFFFFFFF MUL NOT AND SWAP1 DUP4 PUSH4 0xFFFFFFFF AND MUL OR SWAP1 SSTORE POP POP PUSH1 0x40 MLOAD DUP1 PUSH1 0x40 ADD PUSH1 0x40 MSTORE DUP1 PUSH1 0x12 DUP2 MSTORE PUSH1 0x20 ADD PUSH32 0x48612073756269646F206465206E6976656C0000000000000000000000000000 DUP2 MSTORE POP SWAP2 POP POP PUSH2 0xD20 JUMP JUMPDEST DUP1 DUP1 PUSH2 0xD16 SWAP1 PUSH2 0x2AB3 JUMP JUMPDEST SWAP2 POP POP PUSH2 0xBE3 JUMP JUMPDEST POP JUMPDEST SWAP2 SWAP1 POP JUMP JUMPDEST PUSH1 0x60 PUSH1 0x1 PUSH1 0x6 DUP1 SLOAD SWAP1 POP GT PUSH2 0xD6E JUMPI PUSH32 0x6158FC8F21C8CC73DDF920956CC75D0E8A48B4FC85817A0BA89EB3B6D2A75441 PUSH1 0x40 MLOAD PUSH2 0xD61 SWAP1 PUSH2 0x27CF JUMP JUMPDEST PUSH1 0x40 MLOAD DUP1 SWAP2 SUB SWAP1 LOG1 PUSH2 0x1627 JUMP JUMPDEST DUP2 CALLVALUE EQ PUSH2 0xD7A JUMPI PUSH1 0x0 DUP1 REVERT JUMPDEST PUSH1 0x1 PUSH1 0x0 DUP2 SLOAD DUP1 SWAP3 SWAP2 SWAP1 PUSH2 0xD8D SWAP1 PUSH2 0x2AB3 JUMP JUMPDEST SWAP2 SWAP1 POP SSTORE POP PUSH1 0x0 PUSH1 0x6 DUP1 SLOAD SWAP1 POP TIMESTAMP PUSH1 0x6 DUP1 SLOAD SWAP1 POP PUSH1 0x1 SLOAD PUSH1 0x40 MLOAD PUSH1 0x20 ADD PUSH2 0xDB6 SWAP4 SWAP3 SWAP2 SWAP1 PUSH2 0x25CF JUMP JUMPDEST PUSH1 0x40 MLOAD PUSH1 0x20 DUP2 DUP4 SUB SUB DUP2 MSTORE SWAP1 PUSH1 0x40 MSTORE DUP1 MLOAD SWAP1 PUSH1 0x20 ADD KECCAK256 PUSH1 0x0 SHR PUSH2 0xDD9 SWAP2 SWAP1 PUSH2 0x2B33 JUMP JUMPDEST SWAP1 POP PUSH1 0x0 PUSH1 0x7 PUSH1 0x0 DUP4 DUP2 MSTORE PUSH1 0x20 ADD SWAP1 DUP2 MSTORE PUSH1 0x20 ADD PUSH1 0x0 KECCAK256 PUSH1 0x0 SWAP1 SLOAD SWAP1 PUSH2 0x100 EXP SWAP1 DIV PUSH20 0xFFFFFFFFFFFFFFFFFFFFFFFFFFFFFFFFFFFFFFFF AND SWAP1 POP PUSH1 0x1 PUSH1 0x0 DUP2 SLOAD DUP1 SWAP3 SWAP2 SWAP1 PUSH2 0xE26 SWAP1 PUSH2 0x2AB3 JUMP JUMPDEST SWAP2 SWAP1 POP SSTORE POP PUSH1 0x0 PUSH1 0x64 SWAP1 POP PUSH1 0x0 DUP2 TIMESTAMP DUP4 PUSH1 0x1 SLOAD PUSH1 0x40 MLOAD PUSH1 0x20 ADD PUSH2 0xE4B SWAP4 SWAP3 SWAP2 SWAP1 PUSH2 0x25CF JUMP JUMPDEST PUSH1 0x40 MLOAD PUSH1 0x20 DUP2 DUP4 SUB SUB DUP2 MSTORE SWAP1 PUSH1 0x40 MSTORE DUP1 MLOAD SWAP1 PUSH1 0x20 ADD KECCAK256 PUSH1 0x0 SHR PUSH2 0xE6E SWAP2 SWAP1 PUSH2 0x2B33 JUMP JUMPDEST SWAP1 POP PUSH1 0x0 JUMPDEST PUSH1 0x6 DUP1 SLOAD SWAP1 POP DUP2 LT ISZERO PUSH2 0x1621 JUMPI PUSH1 0x6 DUP2 DUP2 SLOAD DUP2 LT PUSH2 0xE94 JUMPI PUSH2 0xE93 PUSH2 0x2BF1 JUMP JUMPDEST JUMPDEST SWAP1 PUSH1 0x0 MSTORE PUSH1 0x20 PUSH1 0x0 KECCAK256 SWAP1 PUSH1 0x8 MUL ADD PUSH1 0x0 ADD PUSH1 0x0 SWAP1 SLOAD SWAP1 PUSH2 0x100 EXP SWAP1 DIV PUSH20 0xFFFFFFFFFFFFFFFFFFFFFFFFFFFFFFFFFFFFFFFF AND PUSH20 0xFFFFFFFFFFFFFFFFFFFFFFFFFFFFFFFFFFFFFFFF AND CALLER PUSH20 0xFFFFFFFFFFFFFFFFFFFFFFFFFFFFFFFFFFFFFFFF AND EQ ISZERO PUSH2 0x160E JUMPI PUSH1 0x6 DUP2 DUP2 SLOAD DUP2 LT PUSH2 0xF0D JUMPI PUSH2 0xF0C PUSH2 0x2BF1 JUMP JUMPDEST JUMPDEST SWAP1 PUSH1 0x0 MSTORE PUSH1 0x20 PUSH1 0x0 KECCAK256 SWAP1 PUSH1 0x8 MUL ADD PUSH1 0x5 ADD PUSH1 0x0 DUP2 SLOAD DUP1 SWAP3 SWAP2 SWAP1 PUSH2 0xF2F SWAP1 PUSH2 0x2AB3 JUMP JUMPDEST SWAP2 SWAP1 POP SSTORE POP PUSH1 0x6 DUP6 DUP2 SLOAD DUP2 LT PUSH2 0xF48 JUMPI PUSH2 0xF47 PUSH2 0x2BF1 JUMP JUMPDEST JUMPDEST SWAP1 PUSH1 0x0 MSTORE PUSH1 0x20 PUSH1 0x0 KECCAK256 SWAP1 PUSH1 0x8 MUL ADD PUSH1 0x5 ADD PUSH1 0x0 DUP2 SLOAD DUP1 SWAP3 SWAP2 SWAP1 PUSH2 0xF6A SWAP1 PUSH2 0x2AB3 JUMP JUMPDEST SWAP2 SWAP1 POP SSTORE POP PUSH2 0xF99 PUSH1 0x6 DUP3 DUP2 SLOAD DUP2 LT PUSH2 0xF86 JUMPI PUSH2 0xF85 PUSH2 0x2BF1 JUMP JUMPDEST JUMPDEST SWAP1 PUSH1 0x0 MSTORE PUSH1 0x20 PUSH1 0x0 KECCAK256 SWAP1 PUSH1 0x8 MUL ADD PUSH2 0x1DBA JUMP JUMPDEST PUSH1 0x6 DUP2 DUP2 SLOAD DUP2 LT PUSH2 0xFAD JUMPI PUSH2 0xFAC PUSH2 0x2BF1 JUMP JUMPDEST JUMPDEST SWAP1 PUSH1 0x0 MSTORE PUSH1 0x20 PUSH1 0x0 KECCAK256 SWAP1 PUSH1 0x8 MUL ADD PUSH1 0x7 ADD PUSH1 0x0 SWAP1 SLOAD SWAP1 PUSH2 0x100 EXP SWAP1 DIV PUSH4 0xFFFFFFFF AND PUSH4 0xFFFFFFFF AND PUSH1 0x6 DUP7 DUP2 SLOAD DUP2 LT PUSH2 0xFE9 JUMPI PUSH2 0xFE8 PUSH2 0x2BF1 JUMP JUMPDEST JUMPDEST SWAP1 PUSH1 0x0 MSTORE PUSH1 0x20 PUSH1 0x0 KECCAK256 SWAP1 PUSH1 0x8 MUL ADD PUSH1 0x7 ADD PUSH1 0x0 SWAP1 SLOAD SWAP1 PUSH2 0x100 EXP SWAP1 DIV PUSH4 0xFFFFFFFF AND PUSH4 0xFFFFFFFF AND LT ISZERO PUSH2 0x11EA JUMPI PUSH1 0x3C DUP3 GT PUSH2 0x1108 JUMPI PUSH2 0x1027 PUSH2 0x1DD9 JUMP JUMPDEST PUSH1 0x6 DUP2 DUP2 SLOAD DUP2 LT PUSH2 0x103B JUMPI PUSH2 0x103A PUSH2 0x2BF1 JUMP JUMPDEST JUMPDEST SWAP1 PUSH1 0x0 MSTORE PUSH1 0x20 PUSH1 0x0 KECCAK256 SWAP1 PUSH1 0x8 MUL ADD PUSH1 0x4 ADD PUSH1 0x0 DUP2 SLOAD DUP1 SWAP3 SWAP2 SWAP1 PUSH2 0x105D SWAP1 PUSH2 0x2AB3 JUMP JUMPDEST SWAP2 SWAP1 POP SSTORE POP PUSH1 0x6 DUP2 DUP2 SLOAD DUP2 LT PUSH2 0x1076 JUMPI PUSH2 0x1075 PUSH2 0x2BF1 JUMP JUMPDEST JUMPDEST SWAP1 PUSH1 0x0 MSTORE PUSH1 0x20 PUSH1 0x0 KECCAK256 SWAP1 PUSH1 0x8 MUL ADD PUSH1 0x7 ADD PUSH1 0x0 DUP2 DUP2 SWAP1 SLOAD SWAP1 PUSH2 0x100 EXP SWAP1 DIV PUSH4 0xFFFFFFFF AND DUP1 SWAP3 SWAP2 SWAP1 PUSH2 0x10A7 SWAP1 PUSH2 0x2AFC JUMP JUMPDEST SWAP2 SWAP1 PUSH2 0x100 EXP DUP2 SLOAD DUP2 PUSH4 0xFFFFFFFF MUL NOT AND SWAP1 DUP4 PUSH4 0xFFFFFFFF AND MUL OR SWAP1 SSTORE POP POP PUSH1 0x40 MLOAD DUP1 PUSH1 0x40 ADD PUSH1 0x40 MSTORE DUP1 PUSH1 0xA DUP2 MSTORE PUSH1 0x20 ADD PUSH32 0x4861732067616E61646F00000000000000000000000000000000000000000000 DUP2 MSTORE POP SWAP6 POP POP POP POP POP POP PUSH2 0x1628 JUMP JUMPDEST PUSH32 0x6158FC8F21C8CC73DDF920956CC75D0E8A48B4FC85817A0BA89EB3B6D2A75441 PUSH1 0x40 MLOAD PUSH2 0x1135 SWAP1 PUSH2 0x280F JUMP JUMPDEST PUSH1 0x40 MLOAD DUP1 SWAP2 SUB SWAP1 LOG1 ADDRESS PUSH20 0xFFFFFFFFFFFFFFFFFFFFFFFFFFFFFFFFFFFFFFFF AND PUSH4 0xE172FCA8 DUP6 PUSH1 0x40 MLOAD DUP3 PUSH4 0xFFFFFFFF AND PUSH1 0xE0 SHL DUP2 MSTORE PUSH1 0x4 ADD PUSH2 0x1176 SWAP2 SWAP1 PUSH2 0x260C JUMP JUMPDEST PUSH1 0x0 PUSH1 0x40 MLOAD DUP1 DUP4 SUB DUP2 PUSH1 0x0 DUP8 DUP1 EXTCODESIZE ISZERO DUP1 ISZERO PUSH2 0x1190 JUMPI PUSH1 0x0 DUP1 REVERT JUMPDEST POP GAS CALL ISZERO DUP1 ISZERO PUSH2 0x11A4 JUMPI RETURNDATASIZE PUSH1 0x0 DUP1 RETURNDATACOPY RETURNDATASIZE PUSH1 0x0 REVERT JUMPDEST POP POP POP POP PUSH1 0x40 MLOAD DUP1 PUSH1 0x40 ADD PUSH1 0x40 MSTORE DUP1 PUSH1 0xB DUP2 MSTORE PUSH1 0x20 ADD PUSH32 0x486173207065726469646F000000000000000000000000000000000000000000 DUP2 MSTORE POP SWAP6 POP POP POP POP POP POP PUSH2 0x1628 JUMP JUMPDEST PUSH1 0x6 DUP2 DUP2 SLOAD DUP2 LT PUSH2 0x11FE JUMPI PUSH2 0x11FD PUSH2 0x2BF1 JUMP JUMPDEST JUMPDEST SWAP1 PUSH1 0x0 MSTORE PUSH1 0x20 PUSH1 0x0 KECCAK256 SWAP1 PUSH1 0x8 MUL ADD PUSH1 0x7 ADD PUSH1 0x0 SWAP1 SLOAD SWAP1 PUSH2 0x100 EXP SWAP1 DIV PUSH4 0xFFFFFFFF AND PUSH4 0xFFFFFFFF AND PUSH1 0x6 DUP7 DUP2 SLOAD DUP2 LT PUSH2 0x123A JUMPI PUSH2 0x1239 PUSH2 0x2BF1 JUMP JUMPDEST JUMPDEST SWAP1 PUSH1 0x0 MSTORE PUSH1 0x20 PUSH1 0x0 KECCAK256 SWAP1 PUSH1 0x8 MUL ADD PUSH1 0x7 ADD PUSH1 0x0 SWAP1 SLOAD SWAP1 PUSH2 0x100 EXP SWAP1 DIV PUSH4 0xFFFFFFFF AND PUSH4 0xFFFFFFFF AND EQ ISZERO PUSH2 0x143B JUMPI PUSH1 0x32 DUP3 GT PUSH2 0x1359 JUMPI PUSH2 0x1278 PUSH2 0x1DD9 JUMP JUMPDEST PUSH1 0x6 DUP2 DUP2 SLOAD DUP2 LT PUSH2 0x128C JUMPI PUSH2 0x128B PUSH2 0x2BF1 JUMP JUMPDEST JUMPDEST SWAP1 PUSH1 0x0 MSTORE PUSH1 0x20 PUSH1 0x0 KECCAK256 SWAP1 PUSH1 0x8 MUL ADD PUSH1 0x4 ADD PUSH1 0x0 DUP2 SLOAD DUP1 SWAP3 SWAP2 SWAP1 PUSH2 0x12AE SWAP1 PUSH2 0x2AB3 JUMP JUMPDEST SWAP2 SWAP1 POP SSTORE POP PUSH1 0x6 DUP2 DUP2 SLOAD DUP2 LT PUSH2 0x12C7 JUMPI PUSH2 0x12C6 PUSH2 0x2BF1 JUMP JUMPDEST JUMPDEST SWAP1 PUSH1 0x0 MSTORE PUSH1 0x20 PUSH1 0x0 KECCAK256 SWAP1 PUSH1 0x8 MUL ADD PUSH1 0x7 ADD PUSH1 0x0 DUP2 DUP2 SWAP1 SLOAD SWAP1 PUSH2 0x100 EXP SWAP1 DIV PUSH4 0xFFFFFFFF AND DUP1 SWAP3 SWAP2 SWAP1 PUSH2 0x12F8 SWAP1 PUSH2 0x2AFC JUMP JUMPDEST SWAP2 SWAP1 PUSH2 0x100 EXP DUP2 SLOAD DUP2 PUSH4 0xFFFFFFFF MUL NOT AND SWAP1 DUP4 PUSH4 0xFFFFFFFF AND MUL OR SWAP1 SSTORE POP POP PUSH1 0x40 MLOAD DUP1 PUSH1 0x40 ADD PUSH1 0x40 MSTORE DUP1 PUSH1 0xA DUP2 MSTORE PUSH1 0x20 ADD PUSH32 0x4861732067616E61646F00000000000000000000000000000000000000000000 DUP2 MSTORE POP SWAP6 POP POP POP POP POP POP PUSH2 0x1628 JUMP JUMPDEST PUSH32 0x6158FC8F21C8CC73DDF920956CC75D0E8A48B4FC85817A0BA89EB3B6D2A75441 PUSH1 0x40 MLOAD PUSH2 0x1386 SWAP1 PUSH2 0x280F JUMP JUMPDEST PUSH1 0x40 MLOAD DUP1 SWAP2 SUB SWAP1 LOG1 ADDRESS PUSH20 0xFFFFFFFFFFFFFFFFFFFFFFFFFFFFFFFFFFFFFFFF AND PUSH4 0xE172FCA8 DUP6 PUSH1 0x40 MLOAD DUP3 PUSH4 0xFFFFFFFF AND PUSH1 0xE0 SHL DUP2 MSTORE PUSH1 0x4 ADD PUSH2 0x13C7 SWAP2 SWAP1 PUSH2 0x260C JUMP JUMPDEST PUSH1 0x0 PUSH1 0x40 MLOAD DUP1 DUP4 SUB DUP2 PUSH1 0x0 DUP8 DUP1 EXTCODESIZE ISZERO DUP1 ISZERO PUSH2 0x13E1 JUMPI PUSH1 0x0 DUP1 REVERT JUMPDEST POP GAS CALL ISZERO DUP1 ISZERO PUSH2 0x13F5 JUMPI RETURNDATASIZE PUSH1 0x0 DUP1 RETURNDATACOPY RETURNDATASIZE PUSH1 0x0 REVERT JUMPDEST POP POP POP POP PUSH1 0x40 MLOAD DUP1 PUSH1 0x40 ADD PUSH1 0x40 MSTORE DUP1 PUSH1 0xB DUP2 MSTORE PUSH1 0x20 ADD PUSH32 0x486173207065726469646F000000000000000000000000000000000000000000 DUP2 MSTORE POP SWAP6 POP POP POP POP POP POP PUSH2 0x1628 JUMP JUMPDEST PUSH1 0x28 DUP3 GT PUSH2 0x152C JUMPI PUSH2 0x144B PUSH2 0x1DD9 JUMP JUMPDEST PUSH1 0x6 DUP2 DUP2 SLOAD DUP2 LT PUSH2 0x145F JUMPI PUSH2 0x145E PUSH2 0x2BF1 JUMP JUMPDEST JUMPDEST SWAP1 PUSH1 0x0 MSTORE PUSH1 0x20 PUSH1 0x0 KECCAK256 SWAP1 PUSH1 0x8 MUL ADD PUSH1 0x4 ADD PUSH1 0x0 DUP2 SLOAD DUP1 SWAP3 SWAP2 SWAP1 PUSH2 0x1481 SWAP1 PUSH2 0x2AB3 JUMP JUMPDEST SWAP2 SWAP1 POP SSTORE POP PUSH1 0x6 DUP2 DUP2 SLOAD DUP2 LT PUSH2 0x149A JUMPI PUSH2 0x1499 PUSH2 0x2BF1 JUMP JUMPDEST JUMPDEST SWAP1 PUSH1 0x0 MSTORE PUSH1 0x20 PUSH1 0x0 KECCAK256 SWAP1 PUSH1 0x8 MUL ADD PUSH1 0x7 ADD PUSH1 0x0 DUP2 DUP2 SWAP1 SLOAD SWAP1 PUSH2 0x100 EXP SWAP1 DIV PUSH4 0xFFFFFFFF AND DUP1 SWAP3 SWAP2 SWAP1 PUSH2 0x14CB SWAP1 PUSH2 0x2AFC JUMP JUMPDEST SWAP2 SWAP1 PUSH2 0x100 EXP DUP2 SLOAD DUP2 PUSH4 0xFFFFFFFF MUL NOT AND SWAP1 DUP4 PUSH4 0xFFFFFFFF AND MUL OR SWAP1 SSTORE POP POP PUSH1 0x40 MLOAD DUP1 PUSH1 0x40 ADD PUSH1 0x40 MSTORE DUP1 PUSH1 0xA DUP2 MSTORE PUSH1 0x20 ADD PUSH32 0x4861732067616E61646F00000000000000000000000000000000000000000000 DUP2 MSTORE POP SWAP6 POP POP POP POP POP POP PUSH2 0x1628 JUMP JUMPDEST PUSH32 0x6158FC8F21C8CC73DDF920956CC75D0E8A48B4FC85817A0BA89EB3B6D2A75441 PUSH1 0x40 MLOAD PUSH2 0x1559 SWAP1 PUSH2 0x280F JUMP JUMPDEST PUSH1 0x40 MLOAD DUP1 SWAP2 SUB SWAP1 LOG1 ADDRESS PUSH20 0xFFFFFFFFFFFFFFFFFFFFFFFFFFFFFFFFFFFFFFFF AND PUSH4 0xE172FCA8 DUP6 PUSH1 0x40 MLOAD DUP3 PUSH4 0xFFFFFFFF AND PUSH1 0xE0 SHL DUP2 MSTORE PUSH1 0x4 ADD PUSH2 0x159A SWAP2 SWAP1 PUSH2 0x260C JUMP JUMPDEST PUSH1 0x0 PUSH1 0x40 MLOAD DUP1 DUP4 SUB DUP2 PUSH1 0x0 DUP8 DUP1 EXTCODESIZE ISZERO DUP1 ISZERO PUSH2 0x15B4 JUMPI PUSH1 0x0 DUP1 REVERT JUMPDEST POP GAS CALL ISZERO DUP1 ISZERO PUSH2 0x15C8 JUMPI RETURNDATASIZE PUSH1 0x0 DUP1 RETURNDATACOPY RETURNDATASIZE PUSH1 0x0 REVERT JUMPDEST POP POP POP POP PUSH1 0x40 MLOAD DUP1 PUSH1 0x40 ADD PUSH1 0x40 MSTORE DUP1 PUSH1 0xB DUP2 MSTORE PUSH1 0x20 ADD PUSH32 0x486173207065726469646F000000000000000000000000000000000000000000 DUP2 MSTORE POP SWAP6 POP POP POP POP POP POP PUSH2 0x1628 JUMP JUMPDEST DUP1 DUP1 PUSH2 0x1619 SWAP1 PUSH2 0x2AB3 JUMP JUMPDEST SWAP2 POP POP PUSH2 0xE73 JUMP JUMPDEST POP POP POP POP POP JUMPDEST JUMPDEST SWAP2 SWAP1 POP JUMP JUMPDEST PUSH1 0x0 PUSH1 0x8 PUSH1 0x0 DUP4 PUSH20 0xFFFFFFFFFFFFFFFFFFFFFFFFFFFFFFFFFFFFFFFF AND PUSH20 0xFFFFFFFFFFFFFFFFFFFFFFFFFFFFFFFFFFFFFFFF AND DUP2 MSTORE PUSH1 0x20 ADD SWAP1 DUP2 MSTORE PUSH1 0x20 ADD PUSH1 0x0 KECCAK256 SLOAD SWAP1 POP SWAP2 SWAP1 POP JUMP JUMPDEST PUSH2 0x167E PUSH2 0x1E22 JUMP JUMPDEST PUSH20 0xFFFFFFFFFFFFFFFFFFFFFFFFFFFFFFFFFFFFFFFF AND PUSH2 0x169C PUSH2 0x1731 JUMP JUMPDEST PUSH20 0xFFFFFFFFFFFFFFFFFFFFFFFFFFFFFFFFFFFFFFFF AND EQ PUSH2 0x16F2 JUMPI PUSH1 0x40 MLOAD PUSH32 0x8C379A000000000000000000000000000000000000000000000000000000000 DUP2 MSTORE PUSH1 0x4 ADD PUSH2 0x16E9 SWAP1 PUSH2 0x27EF JUMP JUMPDEST PUSH1 0x40 MLOAD DUP1 SWAP2 SUB SWAP1 REVERT JUMPDEST PUSH2 0x16FC PUSH1 0x0 PUSH2 0x1E2A JUMP JUMPDEST JUMP JUMPDEST PUSH1 0x7 PUSH1 0x20 MSTORE DUP1 PUSH1 0x0 MSTORE PUSH1 0x40 PUSH1 0x0 KECCAK256 PUSH1 0x0 SWAP2 POP SLOAD SWAP1 PUSH2 0x100 EXP SWAP1 DIV PUSH20 0xFFFFFFFFFFFFFFFFFFFFFFFFFFFFFFFFFFFFFFFF AND DUP2 JUMP JUMPDEST PUSH1 0x0 DUP1 PUSH1 0x0 SWAP1 SLOAD SWAP1 PUSH2 0x100 EXP SWAP1 DIV PUSH20 0xFFFFFFFFFFFFFFFFFFFFFFFFFFFFFFFFFFFFFFFF AND SWAP1 POP SWAP1 JUMP JUMPDEST POP POP JUMP JUMPDEST PUSH1 0x0 DUP1 SLOAD SWAP1 PUSH2 0x100 EXP SWAP1 DIV PUSH20 0xFFFFFFFFFFFFFFFFFFFFFFFFFFFFFFFFFFFFFFFF AND DUP2 JUMP JUMPDEST CALLER PUSH20 0xFFFFFFFFFFFFFFFFFFFFFFFFFFFFFFFFFFFFFFFF AND PUSH1 0x9 PUSH1 0x0 DUP4 DUP2 MSTORE PUSH1 0x20 ADD SWAP1 DUP2 MSTORE PUSH1 0x20 ADD PUSH1 0x0 KECCAK256 PUSH1 0x0 SWAP1 SLOAD SWAP1 PUSH2 0x100 EXP SWAP1 DIV PUSH20 0xFFFFFFFFFFFFFFFFFFFFFFFFFFFFFFFFFFFFFFFF AND PUSH20 0xFFFFFFFFFFFFFFFFFFFFFFFFFFFFFFFFFFFFFFFF AND EQ PUSH2 0x17ED JUMPI PUSH1 0x0 DUP1 REVERT JUMPDEST PUSH1 0x0 ADDRESS PUSH20 0xFFFFFFFFFFFFFFFFFFFFFFFFFFFFFFFFFFFFFFFF AND PUSH4 0x6352211E DUP4 PUSH1 0x40 MLOAD DUP3 PUSH4 0xFFFFFFFF AND PUSH1 0xE0 SHL DUP2 MSTORE PUSH1 0x4 ADD PUSH2 0x1828 SWAP2 SWAP1 PUSH2 0x282F JUMP JUMPDEST PUSH1 0x20 PUSH1 0x40 MLOAD DUP1 DUP4 SUB DUP2 DUP7 DUP1 EXTCODESIZE ISZERO DUP1 ISZERO PUSH2 0x1840 JUMPI PUSH1 0x0 DUP1 REVERT JUMPDEST POP GAS STATICCALL ISZERO DUP1 ISZERO PUSH2 0x1854 JUMPI RETURNDATASIZE PUSH1 0x0 DUP1 RETURNDATACOPY RETURNDATASIZE PUSH1 0x0 REVERT JUMPDEST POP POP POP POP PUSH1 0x40 MLOAD RETURNDATASIZE PUSH1 0x1F NOT PUSH1 0x1F DUP3 ADD AND DUP3 ADD DUP1 PUSH1 0x40 MSTORE POP DUP2 ADD SWAP1 PUSH2 0x1878 SWAP2 SWAP1 PUSH2 0x20F2 JUMP JUMPDEST SWAP1 POP ADDRESS PUSH20 0xFFFFFFFFFFFFFFFFFFFFFFFFFFFFFFFFFFFFFFFF AND PUSH4 0x42842E0E DUP3 CALLER DUP6 PUSH1 0x40 MLOAD DUP5 PUSH4 0xFFFFFFFF AND PUSH1 0xE0 SHL DUP2 MSTORE PUSH1 0x4 ADD PUSH2 0x18B7 SWAP4 SWAP3 SWAP2 SWAP1 PUSH2 0x2627 JUMP JUMPDEST PUSH1 0x0 PUSH1 0x40 MLOAD DUP1 DUP4 SUB DUP2 PUSH1 0x0 DUP8 DUP1 EXTCODESIZE ISZERO DUP1 ISZERO PUSH2 0x18D1 JUMPI PUSH1 0x0 DUP1 REVERT JUMPDEST POP GAS CALL ISZERO DUP1 ISZERO PUSH2 0x18E5 JUMPI RETURNDATASIZE PUSH1 0x0 DUP1 RETURNDATACOPY RETURNDATASIZE PUSH1 0x0 REVERT JUMPDEST POP POP POP POP POP POP JUMP JUMPDEST POP POP POP POP JUMP JUMPDEST PUSH1 0x6 DUP2 DUP2 SLOAD DUP2 LT PUSH2 0x1903 JUMPI PUSH1 0x0 DUP1 REVERT JUMPDEST SWAP1 PUSH1 0x0 MSTORE PUSH1 0x20 PUSH1 0x0 KECCAK256 SWAP1 PUSH1 0x8 MUL ADD PUSH1 0x0 SWAP2 POP SWAP1 POP DUP1 PUSH1 0x0 ADD PUSH1 0x0 SWAP1 SLOAD SWAP1 PUSH2 0x100 EXP SWAP1 DIV PUSH20 0xFFFFFFFFFFFFFFFFFFFFFFFFFFFFFFFFFFFFFFFF AND SWAP1 DUP1 PUSH1 0x1 ADD DUP1 SLOAD PUSH2 0x194C SWAP1 PUSH2 0x2A50 JUMP JUMPDEST DUP1 PUSH1 0x1F ADD PUSH1 0x20 DUP1 SWAP2 DIV MUL PUSH1 0x20 ADD PUSH1 0x40 MLOAD SWAP1 DUP2 ADD PUSH1 0x40 MSTORE DUP1 SWAP3 SWAP2 SWAP1 DUP2 DUP2 MSTORE PUSH1 0x20 ADD DUP3 DUP1 SLOAD PUSH2 0x1978 SWAP1 PUSH2 0x2A50 JUMP JUMPDEST DUP1 ISZERO PUSH2 0x19C5 JUMPI DUP1 PUSH1 0x1F LT PUSH2 0x199A JUMPI PUSH2 0x100 DUP1 DUP4 SLOAD DIV MUL DUP4 MSTORE SWAP2 PUSH1 0x20 ADD SWAP2 PUSH2 0x19C5 JUMP JUMPDEST DUP3 ADD SWAP2 SWAP1 PUSH1 0x0 MSTORE PUSH1 0x20 PUSH1 0x0 KECCAK256 SWAP1 JUMPDEST DUP2 SLOAD DUP2 MSTORE SWAP1 PUSH1 0x1 ADD SWAP1 PUSH1 0x20 ADD DUP1 DUP4 GT PUSH2 0x19A8 JUMPI DUP3 SWAP1 SUB PUSH1 0x1F AND DUP3 ADD SWAP2 JUMPDEST POP POP POP POP POP SWAP1 DUP1 PUSH1 0x2 ADD DUP1 SLOAD PUSH2 0x19DA SWAP1 PUSH2 0x2A50 JUMP JUMPDEST DUP1 PUSH1 0x1F ADD PUSH1 0x20 DUP1 SWAP2 DIV MUL PUSH1 0x20 ADD PUSH1 0x40 MLOAD SWAP1 DUP2 ADD PUSH1 0x40 MSTORE DUP1 SWAP3 SWAP2 SWAP1 DUP2 DUP2 MSTORE PUSH1 0x20 ADD DUP3 DUP1 SLOAD PUSH2 0x1A06 SWAP1 PUSH2 0x2A50 JUMP JUMPDEST DUP1 ISZERO PUSH2 0x1A53 JUMPI DUP1 PUSH1 0x1F LT PUSH2 0x1A28 JUMPI PUSH2 0x100 DUP1 DUP4 SLOAD DIV MUL DUP4 MSTORE SWAP2 PUSH1 0x20 ADD SWAP2 PUSH2 0x1A53 JUMP JUMPDEST DUP3 ADD SWAP2 SWAP1 PUSH1 0x0 MSTORE PUSH1 0x20 PUSH1 0x0 KECCAK256 SWAP1 JUMPDEST DUP2 SLOAD DUP2 MSTORE SWAP1 PUSH1 0x1 ADD SWAP1 PUSH1 0x20 ADD DUP1 DUP4 GT PUSH2 0x1A36 JUMPI DUP3 SWAP1 SUB PUSH1 0x1F AND DUP3 ADD SWAP2 JUMPDEST POP POP POP POP POP SWAP1 DUP1 PUSH1 0x3 ADD DUP1 SLOAD PUSH2 0x1A68 SWAP1 PUSH2 0x2A50 JUMP JUMPDEST DUP1 PUSH1 0x1F ADD PUSH1 0x20 DUP1 SWAP2 DIV MUL PUSH1 0x20 ADD PUSH1 0x40 MLOAD SWAP1 DUP2 ADD PUSH1 0x40 MSTORE DUP1 SWAP3 SWAP2 SWAP1 DUP2 DUP2 MSTORE PUSH1 0x20 ADD DUP3 DUP1 SLOAD PUSH2 0x1A94 SWAP1 PUSH2 0x2A50 JUMP JUMPDEST DUP1 ISZERO PUSH2 0x1AE1 JUMPI DUP1 PUSH1 0x1F LT PUSH2 0x1AB6 JUMPI PUSH2 0x100 DUP1 DUP4 SLOAD DIV MUL DUP4 MSTORE SWAP2 PUSH1 0x20 ADD SWAP2 PUSH2 0x1AE1 JUMP JUMPDEST DUP3 ADD SWAP2 SWAP1 PUSH1 0x0 MSTORE PUSH1 0x20 PUSH1 0x0 KECCAK256 SWAP1 JUMPDEST DUP2 SLOAD DUP2 MSTORE SWAP1 PUSH1 0x1 ADD SWAP1 PUSH1 0x20 ADD DUP1 DUP4 GT PUSH2 0x1AC4 JUMPI DUP3 SWAP1 SUB PUSH1 0x1F AND DUP3 ADD SWAP2 JUMPDEST POP POP POP POP POP SWAP1 DUP1 PUSH1 0x4 ADD SLOAD SWAP1 DUP1 PUSH1 0x5 ADD SLOAD SWAP1 DUP1 PUSH1 0x6 ADD SLOAD SWAP1 DUP1 PUSH1 0x7 ADD PUSH1 0x0 SWAP1 SLOAD SWAP1 PUSH2 0x100 EXP SWAP1 DIV PUSH4 0xFFFFFFFF AND SWAP1 POP DUP9 JUMP JUMPDEST PUSH1 0x0 JUMPDEST PUSH1 0x6 DUP1 SLOAD SWAP1 POP DUP2 LT ISZERO PUSH2 0x1CB6 JUMPI DUP2 PUSH20 0xFFFFFFFFFFFFFFFFFFFFFFFFFFFFFFFFFFFFFFFF AND PUSH1 0x6 DUP3 DUP2 SLOAD DUP2 LT PUSH2 0x1B4E JUMPI PUSH2 0x1B4D PUSH2 0x2BF1 JUMP JUMPDEST JUMPDEST SWAP1 PUSH1 0x0 MSTORE PUSH1 0x20 PUSH1 0x0 KECCAK256 SWAP1 PUSH1 0x8 MUL ADD PUSH1 0x0 ADD PUSH1 0x0 SWAP1 SLOAD SWAP1 PUSH2 0x100 EXP SWAP1 DIV PUSH20 0xFFFFFFFFFFFFFFFFFFFFFFFFFFFFFFFFFFFFFFFF AND PUSH20 0xFFFFFFFFFFFFFFFFFFFFFFFFFFFFFFFFFFFFFFFF AND EQ ISZERO PUSH2 0x1CA3 JUMPI PUSH32 0x20FDB8AB571BFBAB79104BEA84F9C31CB79C5AE45B5F515C1D6C8393E0028350 PUSH1 0x6 DUP3 DUP2 SLOAD DUP2 LT PUSH2 0x1BD1 JUMPI PUSH2 0x1BD0 PUSH2 0x2BF1 JUMP JUMPDEST JUMPDEST SWAP1 PUSH1 0x0 MSTORE PUSH1 0x20 PUSH1 0x0 KECCAK256 SWAP1 PUSH1 0x8 MUL ADD PUSH1 0x2 ADD PUSH1 0x6 DUP4 DUP2 SLOAD DUP2 LT PUSH2 0x1BF6 JUMPI PUSH2 0x1BF5 PUSH2 0x2BF1 JUMP JUMPDEST JUMPDEST SWAP1 PUSH1 0x0 MSTORE PUSH1 0x20 PUSH1 0x0 KECCAK256 SWAP1 PUSH1 0x8 MUL ADD PUSH1 0x1 ADD PUSH1 0x6 DUP5 DUP2 SLOAD DUP2 LT PUSH2 0x1C1B JUMPI PUSH2 0x1C1A PUSH2 0x2BF1 JUMP JUMPDEST JUMPDEST SWAP1 PUSH1 0x0 MSTORE PUSH1 0x20 PUSH1 0x0 KECCAK256 SWAP1 PUSH1 0x8 MUL ADD PUSH1 0x7 ADD PUSH1 0x0 SWAP1 SLOAD SWAP1 PUSH2 0x100 EXP SWAP1 DIV PUSH4 0xFFFFFFFF AND PUSH1 0x6 DUP6 DUP2 SLOAD DUP2 LT PUSH2 0x1C51 JUMPI PUSH2 0x1C50 PUSH2 0x2BF1 JUMP JUMPDEST JUMPDEST SWAP1 PUSH1 0x0 MSTORE PUSH1 0x20 PUSH1 0x0 KECCAK256 SWAP1 PUSH1 0x8 MUL ADD PUSH1 0x4 ADD SLOAD PUSH1 0x6 DUP7 DUP2 SLOAD DUP2 LT PUSH2 0x1C77 JUMPI PUSH2 0x1C76 PUSH2 0x2BF1 JUMP JUMPDEST JUMPDEST SWAP1 PUSH1 0x0 MSTORE PUSH1 0x20 PUSH1 0x0 KECCAK256 SWAP1 PUSH1 0x8 MUL ADD PUSH1 0x5 ADD SLOAD PUSH1 0x40 MLOAD PUSH2 0x1C9A SWAP6 SWAP5 SWAP4 SWAP3 SWAP2 SWAP1 PUSH2 0x272E JUMP JUMPDEST PUSH1 0x40 MLOAD DUP1 SWAP2 SUB SWAP1 LOG1 JUMPDEST DUP1 DUP1 PUSH2 0x1CAE SWAP1 PUSH2 0x2AB3 JUMP JUMPDEST SWAP2 POP POP PUSH2 0x1B16 JUMP JUMPDEST POP POP JUMP JUMPDEST PUSH1 0x0 SWAP3 SWAP2 POP POP JUMP JUMPDEST PUSH2 0x1CCA PUSH2 0x1E22 JUMP JUMPDEST PUSH20 0xFFFFFFFFFFFFFFFFFFFFFFFFFFFFFFFFFFFFFFFF AND PUSH2 0x1CE8 PUSH2 0x1731 JUMP JUMPDEST PUSH20 0xFFFFFFFFFFFFFFFFFFFFFFFFFFFFFFFFFFFFFFFF AND EQ PUSH2 0x1D3E JUMPI PUSH1 0x40 MLOAD PUSH32 0x8C379A000000000000000000000000000000000000000000000000000000000 DUP2 MSTORE PUSH1 0x4 ADD PUSH2 0x1D35 SWAP1 PUSH2 0x27EF JUMP JUMPDEST PUSH1 0x40 MLOAD DUP1 SWAP2 SUB SWAP1 REVERT JUMPDEST PUSH1 0x0 PUSH20 0xFFFFFFFFFFFFFFFFFFFFFFFFFFFFFFFFFFFFFFFF AND DUP2 PUSH20 0xFFFFFFFFFFFFFFFFFFFFFFFFFFFFFFFFFFFFFFFF AND EQ ISZERO PUSH2 0x1DAE JUMPI PUSH1 0x40 MLOAD PUSH32 0x8C379A000000000000000000000000000000000000000000000000000000000 DUP2 MSTORE PUSH1 0x4 ADD PUSH2 0x1DA5 SWAP1 PUSH2 0x27AF JUMP JUMPDEST PUSH1 0x40 MLOAD DUP1 SWAP2 SUB SWAP1 REVERT JUMPDEST PUSH2 0x1DB7 DUP2 PUSH2 0x1E2A JUMP JUMPDEST POP JUMP JUMPDEST PUSH1 0x3 SLOAD TIMESTAMP PUSH2 0x1DC8 SWAP2 SWAP1 PUSH2 0x2902 JUMP JUMPDEST PUSH4 0xFFFFFFFF AND DUP2 PUSH1 0x6 ADD DUP2 SWAP1 SSTORE POP POP JUMP JUMPDEST CALLER PUSH20 0xFFFFFFFFFFFFFFFFFFFFFFFFFFFFFFFFFFFFFFFF AND PUSH2 0x8FC SELFBALANCE SWAP1 DUP2 ISZERO MUL SWAP1 PUSH1 0x40 MLOAD PUSH1 0x0 PUSH1 0x40 MLOAD DUP1 DUP4 SUB DUP2 DUP6 DUP9 DUP9 CALL SWAP4 POP POP POP POP ISZERO DUP1 ISZERO PUSH2 0x1E1F JUMPI RETURNDATASIZE PUSH1 0x0 DUP1 RETURNDATACOPY RETURNDATASIZE PUSH1 0x0 REVERT JUMPDEST POP JUMP JUMPDEST PUSH1 0x0 CALLER SWAP1 POP SWAP1 JUMP JUMPDEST PUSH1 0x0 DUP1 PUSH1 0x0 SWAP1 SLOAD SWAP1 PUSH2 0x100 EXP SWAP1 DIV PUSH20 0xFFFFFFFFFFFFFFFFFFFFFFFFFFFFFFFFFFFFFFFF AND SWAP1 POP DUP2 PUSH1 0x0 DUP1 PUSH2 0x100 EXP DUP2 SLOAD DUP2 PUSH20 0xFFFFFFFFFFFFFFFFFFFFFFFFFFFFFFFFFFFFFFFF MUL NOT AND SWAP1 DUP4 PUSH20 0xFFFFFFFFFFFFFFFFFFFFFFFFFFFFFFFFFFFFFFFF AND MUL OR SWAP1 SSTORE POP DUP2 PUSH20 0xFFFFFFFFFFFFFFFFFFFFFFFFFFFFFFFFFFFFFFFF AND DUP2 PUSH20 0xFFFFFFFFFFFFFFFFFFFFFFFFFFFFFFFFFFFFFFFF AND PUSH32 0x8BE0079C531659141344CD1FD0A4F28419497F9722A3DAAFE3B4186F6B6457E0 PUSH1 0x40 MLOAD PUSH1 0x40 MLOAD DUP1 SWAP2 SUB SWAP1 LOG3 POP POP JUMP JUMPDEST DUP3 DUP1 SLOAD PUSH2 0x1EFA SWAP1 PUSH2 0x2A50 JUMP JUMPDEST SWAP1 PUSH1 0x0 MSTORE PUSH1 0x20 PUSH1 0x0 KECCAK256 SWAP1 PUSH1 0x1F ADD PUSH1 0x20 SWAP1 DIV DUP2 ADD SWAP3 DUP3 PUSH2 0x1F1C JUMPI PUSH1 0x0 DUP6 SSTORE PUSH2 0x1F63 JUMP JUMPDEST DUP3 PUSH1 0x1F LT PUSH2 0x1F35 JUMPI DUP1 MLOAD PUSH1 0xFF NOT AND DUP4 DUP1 ADD OR DUP6 SSTORE PUSH2 0x1F63 JUMP JUMPDEST DUP3 DUP1 ADD PUSH1 0x1 ADD DUP6 SSTORE DUP3 ISZERO PUSH2 0x1F63 JUMPI SWAP2 DUP3 ADD JUMPDEST DUP3 DUP2 GT ISZERO PUSH2 0x1F62 JUMPI DUP3 MLOAD DUP3 SSTORE SWAP2 PUSH1 0x20 ADD SWAP2 SWAP1 PUSH1 0x1 ADD SWAP1 PUSH2 0x1F47 JUMP JUMPDEST JUMPDEST POP SWAP1 POP PUSH2 0x1F70 SWAP2 SWAP1 PUSH2 0x1F74 JUMP JUMPDEST POP SWAP1 JUMP JUMPDEST JUMPDEST DUP1 DUP3 GT ISZERO PUSH2 0x1F8D JUMPI PUSH1 0x0 DUP2 PUSH1 0x0 SWAP1 SSTORE POP PUSH1 0x1 ADD PUSH2 0x1F75 JUMP JUMPDEST POP SWAP1 JUMP JUMPDEST PUSH1 0x0 PUSH2 0x1FA4 PUSH2 0x1F9F DUP5 PUSH2 0x286F JUMP JUMPDEST PUSH2 0x284A JUMP JUMPDEST SWAP1 POP DUP3 DUP2 MSTORE PUSH1 0x20 DUP2 ADD DUP5 DUP5 DUP5 ADD GT ISZERO PUSH2 0x1FC0 JUMPI PUSH2 0x1FBF PUSH2 0x2C54 JUMP JUMPDEST JUMPDEST PUSH2 0x1FCB DUP5 DUP3 DUP6 PUSH2 0x29E4 JUMP JUMPDEST POP SWAP4 SWAP3 POP POP POP JUMP JUMPDEST PUSH1 0x0 PUSH2 0x1FE6 PUSH2 0x1FE1 DUP5 PUSH2 0x28A0 JUMP JUMPDEST PUSH2 0x284A JUMP JUMPDEST SWAP1 POP DUP3 DUP2 MSTORE PUSH1 0x20 DUP2 ADD DUP5 DUP5 DUP5 ADD GT ISZERO PUSH2 0x2002 JUMPI PUSH2 0x2001 PUSH2 0x2C54 JUMP JUMPDEST JUMPDEST PUSH2 0x200D DUP5 DUP3 DUP6 PUSH2 0x29E4 JUMP JUMPDEST POP SWAP4 SWAP3 POP POP POP JUMP JUMPDEST PUSH1 0x0 DUP2 CALLDATALOAD SWAP1 POP PUSH2 0x2024 DUP2 PUSH2 0x2DB3 JUMP JUMPDEST SWAP3 SWAP2 POP POP JUMP JUMPDEST PUSH1 0x0 DUP2 MLOAD SWAP1 POP PUSH2 0x2039 DUP2 PUSH2 0x2DB3 JUMP JUMPDEST SWAP3 SWAP2 POP POP JUMP JUMPDEST PUSH1 0x0 DUP2 CALLDATALOAD SWAP1 POP PUSH2 0x204E DUP2 PUSH2 0x2DCA JUMP JUMPDEST SWAP3 SWAP2 POP POP JUMP JUMPDEST PUSH1 0x0 DUP3 PUSH1 0x1F DUP4 ADD SLT PUSH2 0x2069 JUMPI PUSH2 0x2068 PUSH2 0x2C4F JUMP JUMPDEST JUMPDEST DUP2 CALLDATALOAD PUSH2 0x2079 DUP5 DUP3 PUSH1 0x20 DUP7 ADD PUSH2 0x1F91 JUMP JUMPDEST SWAP2 POP POP SWAP3 SWAP2 POP POP JUMP JUMPDEST PUSH1 0x0 DUP3 PUSH1 0x1F DUP4 ADD SLT PUSH2 0x2097 JUMPI PUSH2 0x2096 PUSH2 0x2C4F JUMP JUMPDEST JUMPDEST DUP2 CALLDATALOAD PUSH2 0x20A7 DUP5 DUP3 PUSH1 0x20 DUP7 ADD PUSH2 0x1FD3 JUMP JUMPDEST SWAP2 POP POP SWAP3 SWAP2 POP POP JUMP JUMPDEST PUSH1 0x0 DUP2 CALLDATALOAD SWAP1 POP PUSH2 0x20BF DUP2 PUSH2 0x2DE1 JUMP JUMPDEST SWAP3 SWAP2 POP POP JUMP JUMPDEST PUSH1 0x0 PUSH1 0x20 DUP3 DUP5 SUB SLT ISZERO PUSH2 0x20DB JUMPI PUSH2 0x20DA PUSH2 0x2C5E JUMP JUMPDEST JUMPDEST PUSH1 0x0 PUSH2 0x20E9 DUP5 DUP3 DUP6 ADD PUSH2 0x2015 JUMP JUMPDEST SWAP2 POP POP SWAP3 SWAP2 POP POP JUMP JUMPDEST PUSH1 0x0 PUSH1 0x20 DUP3 DUP5 SUB SLT ISZERO PUSH2 0x2108 JUMPI PUSH2 0x2107 PUSH2 0x2C5E JUMP JUMPDEST JUMPDEST PUSH1 0x0 PUSH2 0x2116 DUP5 DUP3 DUP6 ADD PUSH2 0x202A JUMP JUMPDEST SWAP2 POP POP SWAP3 SWAP2 POP POP JUMP JUMPDEST PUSH1 0x0 DUP1 PUSH1 0x40 DUP4 DUP6 SUB SLT ISZERO PUSH2 0x2136 JUMPI PUSH2 0x2135 PUSH2 0x2C5E JUMP JUMPDEST JUMPDEST PUSH1 0x0 PUSH2 0x2144 DUP6 DUP3 DUP7 ADD PUSH2 0x2015 JUMP JUMPDEST SWAP3 POP POP PUSH1 0x20 PUSH2 0x2155 DUP6 DUP3 DUP7 ADD PUSH2 0x2015 JUMP JUMPDEST SWAP2 POP POP SWAP3 POP SWAP3 SWAP1 POP JUMP JUMPDEST PUSH1 0x0 DUP1 PUSH1 0x0 PUSH1 0x60 DUP5 DUP7 SUB SLT ISZERO PUSH2 0x2178 JUMPI PUSH2 0x2177 PUSH2 0x2C5E JUMP JUMPDEST JUMPDEST PUSH1 0x0 PUSH2 0x2186 DUP7 DUP3 DUP8 ADD PUSH2 0x2015 JUMP JUMPDEST SWAP4 POP POP PUSH1 0x20 PUSH2 0x2197 DUP7 DUP3 DUP8 ADD PUSH2 0x2015 JUMP JUMPDEST SWAP3 POP POP PUSH1 0x40 PUSH2 0x21A8 DUP7 DUP3 DUP8 ADD PUSH2 0x20B0 JUMP JUMPDEST SWAP2 POP POP SWAP3 POP SWAP3 POP SWAP3 JUMP JUMPDEST PUSH1 0x0 DUP1 PUSH1 0x0 DUP1 PUSH1 0x80 DUP6 DUP8 SUB SLT ISZERO PUSH2 0x21CC JUMPI PUSH2 0x21CB PUSH2 0x2C5E JUMP JUMPDEST JUMPDEST PUSH1 0x0 PUSH2 0x21DA DUP8 DUP3 DUP9 ADD PUSH2 0x2015 JUMP JUMPDEST SWAP5 POP POP PUSH1 0x20 PUSH2 0x21EB DUP8 DUP3 DUP9 ADD PUSH2 0x2015 JUMP JUMPDEST SWAP4 POP POP PUSH1 0x40 PUSH2 0x21FC DUP8 DUP3 DUP9 ADD PUSH2 0x20B0 JUMP JUMPDEST SWAP3 POP POP PUSH1 0x60 DUP6 ADD CALLDATALOAD PUSH8 0xFFFFFFFFFFFFFFFF DUP2 GT ISZERO PUSH2 0x221D JUMPI PUSH2 0x221C PUSH2 0x2C59 JUMP JUMPDEST JUMPDEST PUSH2 0x2229 DUP8 DUP3 DUP9 ADD PUSH2 0x2054 JUMP JUMPDEST SWAP2 POP POP SWAP3 SWAP6 SWAP2 SWAP5 POP SWAP3 POP JUMP JUMPDEST PUSH1 0x0 DUP1 PUSH1 0x40 DUP4 DUP6 SUB SLT ISZERO PUSH2 0x224C JUMPI PUSH2 0x224B PUSH2 0x2C5E JUMP JUMPDEST JUMPDEST PUSH1 0x0 PUSH2 0x225A DUP6 DUP3 DUP7 ADD PUSH2 0x2015 JUMP JUMPDEST SWAP3 POP POP PUSH1 0x20 PUSH2 0x226B DUP6 DUP3 DUP7 ADD PUSH2 0x203F JUMP JUMPDEST SWAP2 POP POP SWAP3 POP SWAP3 SWAP1 POP JUMP JUMPDEST PUSH1 0x0 DUP1 PUSH1 0x0 PUSH1 0x60 DUP5 DUP7 SUB SLT ISZERO PUSH2 0x228E JUMPI PUSH2 0x228D PUSH2 0x2C5E JUMP JUMPDEST JUMPDEST PUSH1 0x0 PUSH2 0x229C DUP7 DUP3 DUP8 ADD PUSH2 0x2015 JUMP JUMPDEST SWAP4 POP POP PUSH1 0x20 DUP5 ADD CALLDATALOAD PUSH8 0xFFFFFFFFFFFFFFFF DUP2 GT ISZERO PUSH2 0x22BD JUMPI PUSH2 0x22BC PUSH2 0x2C59 JUMP JUMPDEST JUMPDEST PUSH2 0x22C9 DUP7 DUP3 DUP8 ADD PUSH2 0x2082 JUMP JUMPDEST SWAP3 POP POP PUSH1 0x40 DUP5 ADD CALLDATALOAD PUSH8 0xFFFFFFFFFFFFFFFF DUP2 GT ISZERO PUSH2 0x22EA JUMPI PUSH2 0x22E9 PUSH2 0x2C59 JUMP JUMPDEST JUMPDEST PUSH2 0x22F6 DUP7 DUP3 DUP8 ADD PUSH2 0x2082 JUMP JUMPDEST SWAP2 POP POP SWAP3 POP SWAP3 POP SWAP3 JUMP JUMPDEST PUSH1 0x0 DUP1 PUSH1 0x40 DUP4 DUP6 SUB SLT ISZERO PUSH2 0x2317 JUMPI PUSH2 0x2316 PUSH2 0x2C5E JUMP JUMPDEST JUMPDEST PUSH1 0x0 PUSH2 0x2325 DUP6 DUP3 DUP7 ADD PUSH2 0x2015 JUMP JUMPDEST SWAP3 POP POP PUSH1 0x20 PUSH2 0x2336 DUP6 DUP3 DUP7 ADD PUSH2 0x20B0 JUMP JUMPDEST SWAP2 POP POP SWAP3 POP SWAP3 SWAP1 POP JUMP JUMPDEST PUSH1 0x0 DUP1 PUSH1 0x0 PUSH1 0x60 DUP5 DUP7 SUB SLT ISZERO PUSH2 0x2359 JUMPI PUSH2 0x2358 PUSH2 0x2C5E JUMP JUMPDEST JUMPDEST PUSH1 0x0 DUP5 ADD CALLDATALOAD PUSH8 0xFFFFFFFFFFFFFFFF DUP2 GT ISZERO PUSH2 0x2377 JUMPI PUSH2 0x2376 PUSH2 0x2C59 JUMP JUMPDEST JUMPDEST PUSH2 0x2383 DUP7 DUP3 DUP8 ADD PUSH2 0x2082 JUMP JUMPDEST SWAP4 POP POP PUSH1 0x20 DUP5 ADD CALLDATALOAD PUSH8 0xFFFFFFFFFFFFFFFF DUP2 GT ISZERO PUSH2 0x23A4 JUMPI PUSH2 0x23A3 PUSH2 0x2C59 JUMP JUMPDEST JUMPDEST PUSH2 0x23B0 DUP7 DUP3 DUP8 ADD PUSH2 0x2082 JUMP JUMPDEST SWAP3 POP POP PUSH1 0x40 DUP5 ADD CALLDATALOAD PUSH8 0xFFFFFFFFFFFFFFFF DUP2 GT ISZERO PUSH2 0x23D1 JUMPI PUSH2 0x23D0 PUSH2 0x2C59 JUMP JUMPDEST JUMPDEST PUSH2 0x23DD DUP7 DUP3 DUP8 ADD PUSH2 0x2082 JUMP JUMPDEST SWAP2 POP POP SWAP3 POP SWAP3 POP SWAP3 JUMP JUMPDEST PUSH1 0x0 PUSH1 0x20 DUP3 DUP5 SUB SLT ISZERO PUSH2 0x23FD JUMPI PUSH2 0x23FC PUSH2 0x2C5E JUMP JUMPDEST JUMPDEST PUSH1 0x0 PUSH2 0x240B DUP5 DUP3 DUP6 ADD PUSH2 0x20B0 JUMP JUMPDEST SWAP2 POP POP SWAP3 SWAP2 POP POP JUMP JUMPDEST PUSH2 0x241D DUP2 PUSH2 0x298C JUMP JUMPDEST DUP3 MSTORE POP POP JUMP JUMPDEST PUSH2 0x242C DUP2 PUSH2 0x299E JUMP JUMPDEST DUP3 MSTORE POP POP JUMP JUMPDEST PUSH1 0x0 PUSH2 0x243D DUP3 PUSH2 0x28E6 JUMP JUMPDEST PUSH2 0x2447 DUP2 DUP6 PUSH2 0x28F1 JUMP JUMPDEST SWAP4 POP PUSH2 0x2457 DUP2 DUP6 PUSH1 0x20 DUP7 ADD PUSH2 0x29F3 JUMP JUMPDEST PUSH2 0x2460 DUP2 PUSH2 0x2C63 JUMP JUMPDEST DUP5 ADD SWAP2 POP POP SWAP3 SWAP2 POP POP JUMP JUMPDEST PUSH1 0x0 DUP2 SLOAD PUSH2 0x2478 DUP2 PUSH2 0x2A50 JUMP JUMPDEST PUSH2 0x2482 DUP2 DUP7 PUSH2 0x28F1 JUMP JUMPDEST SWAP5 POP PUSH1 0x1 DUP3 AND PUSH1 0x0 DUP2 EQ PUSH2 0x249D JUMPI PUSH1 0x1 DUP2 EQ PUSH2 0x24AF JUMPI PUSH2 0x24E2 JUMP JUMPDEST PUSH1 0xFF NOT DUP4 AND DUP7 MSTORE PUSH1 0x20 DUP7 ADD SWAP4 POP PUSH2 0x24E2 JUMP JUMPDEST PUSH2 0x24B8 DUP6 PUSH2 0x28D1 JUMP JUMPDEST PUSH1 0x0 JUMPDEST DUP4 DUP2 LT ISZERO PUSH2 0x24DA JUMPI DUP2 SLOAD DUP2 DUP10 ADD MSTORE PUSH1 0x1 DUP3 ADD SWAP2 POP PUSH1 0x20 DUP2 ADD SWAP1 POP PUSH2 0x24BB JUMP JUMPDEST DUP1 DUP9 ADD SWAP6 POP POP POP JUMPDEST POP POP POP SWAP3 SWAP2 POP POP JUMP JUMPDEST PUSH1 0x0 PUSH2 0x24F8 PUSH1 0x28 DUP4 PUSH2 0x28F1 JUMP JUMPDEST SWAP2 POP PUSH2 0x2503 DUP3 PUSH2 0x2C74 JUMP JUMPDEST PUSH1 0x40 DUP3 ADD SWAP1 POP SWAP2 SWAP1 POP JUMP JUMPDEST PUSH1 0x0 PUSH2 0x251B PUSH1 0x26 DUP4 PUSH2 0x28F1 JUMP JUMPDEST SWAP2 POP PUSH2 0x2526 DUP3 PUSH2 0x2CC3 JUMP JUMPDEST PUSH1 0x40 DUP3 ADD SWAP1 POP SWAP2 SWAP1 POP JUMP JUMPDEST PUSH1 0x0 PUSH2 0x253E PUSH1 0x32 DUP4 PUSH2 0x28F1 JUMP JUMPDEST SWAP2 POP PUSH2 0x2549 DUP3 PUSH2 0x2D12 JUMP JUMPDEST PUSH1 0x40 DUP3 ADD SWAP1 POP SWAP2 SWAP1 POP JUMP JUMPDEST PUSH1 0x0 PUSH2 0x2561 PUSH1 0x20 DUP4 PUSH2 0x28F1 JUMP JUMPDEST SWAP2 POP PUSH2 0x256C DUP3 PUSH2 0x2D61 JUMP JUMPDEST PUSH1 0x20 DUP3 ADD SWAP1 POP SWAP2 SWAP1 POP JUMP JUMPDEST PUSH1 0x0 PUSH2 0x2584 PUSH1 0x15 DUP4 PUSH2 0x28F1 JUMP JUMPDEST SWAP2 POP PUSH2 0x258F DUP3 PUSH2 0x2D8A JUMP JUMPDEST PUSH1 0x20 DUP3 ADD SWAP1 POP SWAP2 SWAP1 POP JUMP JUMPDEST PUSH2 0x25A3 DUP2 PUSH2 0x29CA JUMP JUMPDEST DUP3 MSTORE POP POP JUMP JUMPDEST PUSH2 0x25BA PUSH2 0x25B5 DUP3 PUSH2 0x29CA JUMP JUMPDEST PUSH2 0x2B29 JUMP JUMPDEST DUP3 MSTORE POP POP JUMP JUMPDEST PUSH2 0x25C9 DUP2 PUSH2 0x29D4 JUMP JUMPDEST DUP3 MSTORE POP POP JUMP JUMPDEST PUSH1 0x0 PUSH2 0x25DB DUP3 DUP7 PUSH2 0x25A9 JUMP JUMPDEST PUSH1 0x20 DUP3 ADD SWAP2 POP PUSH2 0x25EB DUP3 DUP6 PUSH2 0x25A9 JUMP JUMPDEST PUSH1 0x20 DUP3 ADD SWAP2 POP PUSH2 0x25FB DUP3 DUP5 PUSH2 0x25A9 JUMP JUMPDEST PUSH1 0x20 DUP3 ADD SWAP2 POP DUP2 SWAP1 POP SWAP5 SWAP4 POP POP POP POP JUMP JUMPDEST PUSH1 0x0 PUSH1 0x20 DUP3 ADD SWAP1 POP PUSH2 0x2621 PUSH1 0x0 DUP4 ADD DUP5 PUSH2 0x2414 JUMP JUMPDEST SWAP3 SWAP2 POP POP JUMP JUMPDEST PUSH1 0x0 PUSH1 0x60 DUP3 ADD SWAP1 POP PUSH2 0x263C PUSH1 0x0 DUP4 ADD DUP7 PUSH2 0x2414 JUMP JUMPDEST PUSH2 0x2649 PUSH1 0x20 DUP4 ADD DUP6 PUSH2 0x2414 JUMP JUMPDEST PUSH2 0x2656 PUSH1 0x40 DUP4 ADD DUP5 PUSH2 0x259A JUMP JUMPDEST SWAP5 SWAP4 POP POP POP POP JUMP JUMPDEST PUSH1 0x0 PUSH2 0x100 DUP3 ADD SWAP1 POP PUSH2 0x2674 PUSH1 0x0 DUP4 ADD DUP12 PUSH2 0x2414 JUMP JUMPDEST DUP2 DUP2 SUB PUSH1 0x20 DUP4 ADD MSTORE PUSH2 0x2686 DUP2 DUP11 PUSH2 0x2432 JUMP JUMPDEST SWAP1 POP DUP2 DUP2 SUB PUSH1 0x40 DUP4 ADD MSTORE PUSH2 0x269A DUP2 DUP10 PUSH2 0x2432 JUMP JUMPDEST SWAP1 POP DUP2 DUP2 SUB PUSH1 0x60 DUP4 ADD MSTORE PUSH2 0x26AE DUP2 DUP9 PUSH2 0x2432 JUMP JUMPDEST SWAP1 POP PUSH2 0x26BD PUSH1 0x80 DUP4 ADD DUP8 PUSH2 0x259A JUMP JUMPDEST PUSH2 0x26CA PUSH1 0xA0 DUP4 ADD DUP7 PUSH2 0x259A JUMP JUMPDEST PUSH2 0x26D7 PUSH1 0xC0 DUP4 ADD DUP6 PUSH2 0x259A JUMP JUMPDEST PUSH2 0x26E4 PUSH1 0xE0 DUP4 ADD DUP5 PUSH2 0x25C0 JUMP JUMPDEST SWAP10 SWAP9 POP POP POP POP POP POP POP POP POP JUMP JUMPDEST PUSH1 0x0 PUSH1 0x20 DUP3 ADD SWAP1 POP PUSH2 0x2706 PUSH1 0x0 DUP4 ADD DUP5 PUSH2 0x2423 JUMP JUMPDEST SWAP3 SWAP2 POP POP JUMP JUMPDEST PUSH1 0x0 PUSH1 0x20 DUP3 ADD SWAP1 POP DUP2 DUP2 SUB PUSH1 0x0 DUP4 ADD MSTORE PUSH2 0x2726 DUP2 DUP5 PUSH2 0x2432 JUMP JUMPDEST SWAP1 POP SWAP3 SWAP2 POP POP JUMP JUMPDEST PUSH1 0x0 PUSH1 0xA0 DUP3 ADD SWAP1 POP DUP2 DUP2 SUB PUSH1 0x0 DUP4 ADD MSTORE PUSH2 0x2748 DUP2 DUP9 PUSH2 0x246B JUMP JUMPDEST SWAP1 POP DUP2 DUP2 SUB PUSH1 0x20 DUP4 ADD MSTORE PUSH2 0x275C DUP2 DUP8 PUSH2 0x246B JUMP JUMPDEST SWAP1 POP PUSH2 0x276B PUSH1 0x40 DUP4 ADD DUP7 PUSH2 0x25C0 JUMP JUMPDEST PUSH2 0x2778 PUSH1 0x60 DUP4 ADD DUP6 PUSH2 0x259A JUMP JUMPDEST PUSH2 0x2785 PUSH1 0x80 DUP4 ADD DUP5 PUSH2 0x259A JUMP JUMPDEST SWAP7 SWAP6 POP POP POP POP POP POP JUMP JUMPDEST PUSH1 0x0 PUSH1 0x20 DUP3 ADD SWAP1 POP DUP2 DUP2 SUB PUSH1 0x0 DUP4 ADD MSTORE PUSH2 0x27A8 DUP2 PUSH2 0x24EB JUMP JUMPDEST SWAP1 POP SWAP2 SWAP1 POP JUMP JUMPDEST PUSH1 0x0 PUSH1 0x20 DUP3 ADD SWAP1 POP DUP2 DUP2 SUB PUSH1 0x0 DUP4 ADD MSTORE PUSH2 0x27C8 DUP2 PUSH2 0x250E JUMP JUMPDEST SWAP1 POP SWAP2 SWAP1 POP JUMP JUMPDEST PUSH1 0x0 PUSH1 0x20 DUP3 ADD SWAP1 POP DUP2 DUP2 SUB PUSH1 0x0 DUP4 ADD MSTORE PUSH2 0x27E8 DUP2 PUSH2 0x2531 JUMP JUMPDEST SWAP1 POP SWAP2 SWAP1 POP JUMP JUMPDEST PUSH1 0x0 PUSH1 0x20 DUP3 ADD SWAP1 POP DUP2 DUP2 SUB PUSH1 0x0 DUP4 ADD MSTORE PUSH2 0x2808 DUP2 PUSH2 0x2554 JUMP JUMPDEST SWAP1 POP SWAP2 SWAP1 POP JUMP JUMPDEST PUSH1 0x0 PUSH1 0x20 DUP3 ADD SWAP1 POP DUP2 DUP2 SUB PUSH1 0x0 DUP4 ADD MSTORE PUSH2 0x2828 DUP2 PUSH2 0x2577 JUMP JUMPDEST SWAP1 POP SWAP2 SWAP1 POP JUMP JUMPDEST PUSH1 0x0 PUSH1 0x20 DUP3 ADD SWAP1 POP PUSH2 0x2844 PUSH1 0x0 DUP4 ADD DUP5 PUSH2 0x259A JUMP JUMPDEST SWAP3 SWAP2 POP POP JUMP JUMPDEST PUSH1 0x0 PUSH2 0x2854 PUSH2 0x2865 JUMP JUMPDEST SWAP1 POP PUSH2 0x2860 DUP3 DUP3 PUSH2 0x2A82 JUMP JUMPDEST SWAP2 SWAP1 POP JUMP JUMPDEST PUSH1 0x0 PUSH1 0x40 MLOAD SWAP1 POP SWAP1 JUMP JUMPDEST PUSH1 0x0 PUSH8 0xFFFFFFFFFFFFFFFF DUP3 GT ISZERO PUSH2 0x288A JUMPI PUSH2 0x2889 PUSH2 0x2C20 JUMP JUMPDEST JUMPDEST PUSH2 0x2893 DUP3 PUSH2 0x2C63 JUMP JUMPDEST SWAP1 POP PUSH1 0x20 DUP2 ADD SWAP1 POP SWAP2 SWAP1 POP JUMP JUMPDEST PUSH1 0x0 PUSH8 0xFFFFFFFFFFFFFFFF DUP3 GT ISZERO PUSH2 0x28BB JUMPI PUSH2 0x28BA PUSH2 0x2C20 JUMP JUMPDEST JUMPDEST PUSH2 0x28C4 DUP3 PUSH2 0x2C63 JUMP JUMPDEST SWAP1 POP PUSH1 0x20 DUP2 ADD SWAP1 POP SWAP2 SWAP1 POP JUMP JUMPDEST PUSH1 0x0 DUP2 SWAP1 POP DUP2 PUSH1 0x0 MSTORE PUSH1 0x20 PUSH1 0x0 KECCAK256 SWAP1 POP SWAP2 SWAP1 POP JUMP JUMPDEST PUSH1 0x0 DUP2 MLOAD SWAP1 POP SWAP2 SWAP1 POP JUMP JUMPDEST PUSH1 0x0 DUP3 DUP3 MSTORE PUSH1 0x20 DUP3 ADD SWAP1 POP SWAP3 SWAP2 POP POP JUMP JUMPDEST PUSH1 0x0 PUSH2 0x290D DUP3 PUSH2 0x29CA JUMP JUMPDEST SWAP2 POP PUSH2 0x2918 DUP4 PUSH2 0x29CA JUMP JUMPDEST SWAP3 POP DUP3 PUSH32 0xFFFFFFFFFFFFFFFFFFFFFFFFFFFFFFFFFFFFFFFFFFFFFFFFFFFFFFFFFFFFFFFF SUB DUP3 GT ISZERO PUSH2 0x294D JUMPI PUSH2 0x294C PUSH2 0x2B64 JUMP JUMPDEST JUMPDEST DUP3 DUP3 ADD SWAP1 POP SWAP3 SWAP2 POP POP JUMP JUMPDEST PUSH1 0x0 PUSH2 0x2963 DUP3 PUSH2 0x29CA JUMP JUMPDEST SWAP2 POP PUSH2 0x296E DUP4 PUSH2 0x29CA JUMP JUMPDEST SWAP3 POP DUP3 DUP3 LT ISZERO PUSH2 0x2981 JUMPI PUSH2 0x2980 PUSH2 0x2B64 JUMP JUMPDEST JUMPDEST DUP3 DUP3 SUB SWAP1 POP SWAP3 SWAP2 POP POP JUMP JUMPDEST PUSH1 0x0 PUSH2 0x2997 DUP3 PUSH2 0x29AA JUMP JUMPDEST SWAP1 POP SWAP2 SWAP1 POP JUMP JUMPDEST PUSH1 0x0 DUP2 ISZERO ISZERO SWAP1 POP SWAP2 SWAP1 POP JUMP JUMPDEST PUSH1 0x0 PUSH20 0xFFFFFFFFFFFFFFFFFFFFFFFFFFFFFFFFFFFFFFFF DUP3 AND SWAP1 POP SWAP2 SWAP1 POP JUMP JUMPDEST PUSH1 0x0 DUP2 SWAP1 POP SWAP2 SWAP1 POP JUMP JUMPDEST PUSH1 0x0 PUSH4 0xFFFFFFFF DUP3 AND SWAP1 POP SWAP2 SWAP1 POP JUMP JUMPDEST DUP3 DUP2 DUP4 CALLDATACOPY PUSH1 0x0 DUP4 DUP4 ADD MSTORE POP POP POP JUMP JUMPDEST PUSH1 0x0 JUMPDEST DUP4 DUP2 LT ISZERO PUSH2 0x2A11 JUMPI DUP1 DUP3 ADD MLOAD DUP2 DUP5 ADD MSTORE PUSH1 0x20 DUP2 ADD SWAP1 POP PUSH2 0x29F6 JUMP JUMPDEST DUP4 DUP2 GT ISZERO PUSH2 0x2A20 JUMPI PUSH1 0x0 DUP5 DUP5 ADD MSTORE JUMPDEST POP POP POP POP JUMP JUMPDEST PUSH1 0x0 PUSH2 0x2A31 DUP3 PUSH2 0x29CA JUMP JUMPDEST SWAP2 POP PUSH1 0x0 DUP3 EQ ISZERO PUSH2 0x2A45 JUMPI PUSH2 0x2A44 PUSH2 0x2B64 JUMP JUMPDEST JUMPDEST PUSH1 0x1 DUP3 SUB SWAP1 POP SWAP2 SWAP1 POP JUMP JUMPDEST PUSH1 0x0 PUSH1 0x2 DUP3 DIV SWAP1 POP PUSH1 0x1 DUP3 AND DUP1 PUSH2 0x2A68 JUMPI PUSH1 0x7F DUP3 AND SWAP2 POP JUMPDEST PUSH1 0x20 DUP3 LT DUP2 EQ ISZERO PUSH2 0x2A7C JUMPI PUSH2 0x2A7B PUSH2 0x2BC2 JUMP JUMPDEST JUMPDEST POP SWAP2 SWAP1 POP JUMP JUMPDEST PUSH2 0x2A8B DUP3 PUSH2 0x2C63 JUMP JUMPDEST DUP2 ADD DUP2 DUP2 LT PUSH8 0xFFFFFFFFFFFFFFFF DUP3 GT OR ISZERO PUSH2 0x2AAA JUMPI PUSH2 0x2AA9 PUSH2 0x2C20 JUMP JUMPDEST JUMPDEST DUP1 PUSH1 0x40 MSTORE POP POP POP JUMP JUMPDEST PUSH1 0x0 PUSH2 0x2ABE DUP3 PUSH2 0x29CA JUMP JUMPDEST SWAP2 POP PUSH32 0xFFFFFFFFFFFFFFFFFFFFFFFFFFFFFFFFFFFFFFFFFFFFFFFFFFFFFFFFFFFFFFFF DUP3 EQ ISZERO PUSH2 0x2AF1 JUMPI PUSH2 0x2AF0 PUSH2 0x2B64 JUMP JUMPDEST JUMPDEST PUSH1 0x1 DUP3 ADD SWAP1 POP SWAP2 SWAP1 POP JUMP JUMPDEST PUSH1 0x0 PUSH2 0x2B07 DUP3 PUSH2 0x29D4 JUMP JUMPDEST SWAP2 POP PUSH4 0xFFFFFFFF DUP3 EQ ISZERO PUSH2 0x2B1E JUMPI PUSH2 0x2B1D PUSH2 0x2B64 JUMP JUMPDEST JUMPDEST PUSH1 0x1 DUP3 ADD SWAP1 POP SWAP2 SWAP1 POP JUMP JUMPDEST PUSH1 0x0 DUP2 SWAP1 POP SWAP2 SWAP1 POP JUMP JUMPDEST PUSH1 0x0 PUSH2 0x2B3E DUP3 PUSH2 0x29CA JUMP JUMPDEST SWAP2 POP PUSH2 0x2B49 DUP4 PUSH2 0x29CA JUMP JUMPDEST SWAP3 POP DUP3 PUSH2 0x2B59 JUMPI PUSH2 0x2B58 PUSH2 0x2B93 JUMP JUMPDEST JUMPDEST DUP3 DUP3 MOD SWAP1 POP SWAP3 SWAP2 POP POP JUMP JUMPDEST PUSH32 0x4E487B7100000000000000000000000000000000000000000000000000000000 PUSH1 0x0 MSTORE PUSH1 0x11 PUSH1 0x4 MSTORE PUSH1 0x24 PUSH1 0x0 REVERT JUMPDEST PUSH32 0x4E487B7100000000000000000000000000000000000000000000000000000000 PUSH1 0x0 MSTORE PUSH1 0x12 PUSH1 0x4 MSTORE PUSH1 0x24 PUSH1 0x0 REVERT JUMPDEST PUSH32 0x4E487B7100000000000000000000000000000000000000000000000000000000 PUSH1 0x0 MSTORE PUSH1 0x22 PUSH1 0x4 MSTORE PUSH1 0x24 PUSH1 0x0 REVERT JUMPDEST PUSH32 0x4E487B7100000000000000000000000000000000000000000000000000000000 PUSH1 0x0 MSTORE PUSH1 0x32 PUSH1 0x4 MSTORE PUSH1 0x24 PUSH1 0x0 REVERT JUMPDEST PUSH32 0x4E487B7100000000000000000000000000000000000000000000000000000000 PUSH1 0x0 MSTORE PUSH1 0x41 PUSH1 0x4 MSTORE PUSH1 0x24 PUSH1 0x0 REVERT JUMPDEST PUSH1 0x0 DUP1 REVERT JUMPDEST PUSH1 0x0 DUP1 REVERT JUMPDEST PUSH1 0x0 DUP1 REVERT JUMPDEST PUSH1 0x0 DUP1 REVERT JUMPDEST PUSH1 0x0 PUSH1 0x1F NOT PUSH1 0x1F DUP4 ADD AND SWAP1 POP SWAP2 SWAP1 POP JUMP JUMPDEST PUSH32 0x536F6C6F2073652070756564652074656E657220756E20636F63686520706F72 PUSH1 0x0 DUP3 ADD MSTORE PUSH32 0x20706572736F6E61000000000000000000000000000000000000000000000000 PUSH1 0x20 DUP3 ADD MSTORE POP JUMP JUMPDEST PUSH32 0x4F776E61626C653A206E6577206F776E657220697320746865207A65726F2061 PUSH1 0x0 DUP3 ADD MSTORE PUSH32 0x6464726573730000000000000000000000000000000000000000000000000000 PUSH1 0x20 DUP3 ADD MSTORE POP JUMP JUMPDEST PUSH32 0x4E6F2068617920636F6368657320737566696369656E74657320706172612069 PUSH1 0x0 DUP3 ADD MSTORE PUSH32 0x6E696369617220756E6120636172726572610000000000000000000000000000 PUSH1 0x20 DUP3 ADD MSTORE POP JUMP JUMPDEST PUSH32 0x4F776E61626C653A2063616C6C6572206973206E6F7420746865206F776E6572 PUSH1 0x0 DUP3 ADD MSTORE POP JUMP JUMPDEST PUSH32 0x456C20636F6368652067616E61646F722065733A200000000000000000000000 PUSH1 0x0 DUP3 ADD MSTORE POP JUMP JUMPDEST PUSH2 0x2DBC DUP2 PUSH2 0x298C JUMP JUMPDEST DUP2 EQ PUSH2 0x2DC7 JUMPI PUSH1 0x0 DUP1 REVERT JUMPDEST POP JUMP JUMPDEST PUSH2 0x2DD3 DUP2 PUSH2 0x299E JUMP JUMPDEST DUP2 EQ PUSH2 0x2DDE JUMPI PUSH1 0x0 DUP1 REVERT JUMPDEST POP JUMP JUMPDEST PUSH2 0x2DEA DUP2 PUSH2 0x29CA JUMP JUMPDEST DUP2 EQ PUSH2 0x2DF5 JUMPI PUSH1 0x0 DUP1 REVERT JUMPDEST POP JUMP INVALID LOG2 PUSH5 0x6970667358 0x22 SLT KECCAK256 PUSH27 0x58998A66B989D30972C43DF7071D3ED8DF1B28B9C63B8FA2C4AE2C OR 0xBC 0xD3 0xDA PUSH5 0x736F6C6343 STOP ADDMOD SMOD STOP CALLER "
				},
				"gasEstimates": {
					"creation": {
						"codeDepositCost": "2364400",
						"executionCost": "infinite",
						"totalCost": "infinite"
					},
					"external": {
						"Apostar(uint256)": "infinite",
						"_owner()": "2622",
						"anadirCoche(string,string,string)": "infinite",
						"approve(address,uint256)": "26939",
						"balanceOf(address)": "2974",
						"cocheDePropietario(uint256)": "2884",
						"comprarCoche(address,string,string)": "infinite",
						"getApproved(uint256)": "689",
						"isApprovedForAll(address,address)": "infinite",
						"listaCoches(uint256)": "infinite",
						"numeroCochesPersona(address)": "2904",
						"owner()": "2589",
						"ownerOf(uint256)": "2932",
						"renounceOwnership()": "30397",
						"safeTransferFrom(address,address,uint256)": "infinite",
						"safeTransferFrom(address,address,uint256,bytes)": "infinite",
						"setApprovalForAll(address,bool)": "723",
						"subirDeNivel(address)": "infinite",
						"takeOwnership(uint256)": "infinite",
						"transferFrom(address,address,uint256)": "infinite",
						"transferOwnership(address)": "30855",
						"verCochePropietario(address)": "infinite"
					}
				},
				"methodIdentifiers": {
					"Apostar(uint256)": "6b6f0494",
					"_owner()": "b2bdfa7b",
					"anadirCoche(string,string,string)": "2458c544",
					"approve(address,uint256)": "095ea7b3",
					"balanceOf(address)": "70a08231",
					"cocheDePropietario(uint256)": "858b0554",
					"comprarCoche(address,string,string)": "049a5f65",
					"getApproved(uint256)": "081812fc",
					"isApprovedForAll(address,address)": "e985e9c5",
					"listaCoches(uint256)": "d735573d",
					"numeroCochesPersona(address)": "1c6743e4",
					"owner()": "8da5cb5b",
					"ownerOf(uint256)": "6352211e",
					"renounceOwnership()": "715018a6",
					"safeTransferFrom(address,address,uint256)": "42842e0e",
					"safeTransferFrom(address,address,uint256,bytes)": "b88d4fde",
					"setApprovalForAll(address,bool)": "a22cb465",
					"subirDeNivel(address)": "6a7d1816",
					"takeOwnership(uint256)": "b2e6ceeb",
					"transferFrom(address,address,uint256)": "23b872dd",
					"transferOwnership(address)": "f2fde38b",
					"verCochePropietario(address)": "e172fca8"
				}
			},
			"storageLayout": {
				"storage": [
					{
						"astId": 285,
						"contract": "contracts/CarreraCoches/cocheToken.sol:CocheToken",
						"label": "_owner",
						"offset": 0,
						"slot": "0",
						"type": "t_address"
					},
					{
						"astId": 407,
						"contract": "contracts/CarreraCoches/cocheToken.sol:CocheToken",
						"label": "randNonce",
						"offset": 0,
						"slot": "1",
						"type": "t_uint256"
					},
					{
						"astId": 410,
						"contract": "contracts/CarreraCoches/cocheToken.sol:CocheToken",
						"label": "contador",
						"offset": 0,
						"slot": "2",
						"type": "t_uint256"
					},
					{
						"astId": 413,
						"contract": "contracts/CarreraCoches/cocheToken.sol:CocheToken",
						"label": "cooldown",
						"offset": 0,
						"slot": "3",
						"type": "t_uint256"
					},
					{
						"astId": 416,
						"contract": "contracts/CarreraCoches/cocheToken.sol:CocheToken",
						"label": "subirNivel",
						"offset": 0,
						"slot": "4",
						"type": "t_uint256"
					},
					{
						"astId": 419,
						"contract": "contracts/CarreraCoches/cocheToken.sol:CocheToken",
						"label": "cambiarCocheV",
						"offset": 0,
						"slot": "5",
						"type": "t_uint256"
					},
					{
						"astId": 423,
						"contract": "contracts/CarreraCoches/cocheToken.sol:CocheToken",
						"label": "listaCoches",
						"offset": 0,
						"slot": "6",
						"type": "t_array(t_struct(Coche)404_storage)dyn_storage"
					},
					{
						"astId": 453,
						"contract": "contracts/CarreraCoches/cocheToken.sol:CocheToken",
						"label": "cocheDePropietario",
						"offset": 0,
						"slot": "7",
						"type": "t_mapping(t_uint256,t_address)"
					},
					{
						"astId": 457,
						"contract": "contracts/CarreraCoches/cocheToken.sol:CocheToken",
						"label": "numeroCochesPersona",
						"offset": 0,
						"slot": "8",
						"type": "t_mapping(t_address,t_uint256)"
					},
					{
						"astId": 11,
						"contract": "contracts/CarreraCoches/cocheToken.sol:CocheToken",
						"label": "confirmarTransferencia",
						"offset": 0,
						"slot": "9",
						"type": "t_mapping(t_uint256,t_address)"
					}
				],
				"types": {
					"t_address": {
						"encoding": "inplace",
						"label": "address",
						"numberOfBytes": "20"
					},
					"t_array(t_struct(Coche)404_storage)dyn_storage": {
						"base": "t_struct(Coche)404_storage",
						"encoding": "dynamic_array",
						"label": "struct CarreraCoches.Coche[]",
						"numberOfBytes": "32"
					},
					"t_mapping(t_address,t_uint256)": {
						"encoding": "mapping",
						"key": "t_address",
						"label": "mapping(address => uint256)",
						"numberOfBytes": "32",
						"value": "t_uint256"
					},
					"t_mapping(t_uint256,t_address)": {
						"encoding": "mapping",
						"key": "t_uint256",
						"label": "mapping(uint256 => address)",
						"numberOfBytes": "32",
						"value": "t_address"
					},
					"t_string_storage": {
						"encoding": "bytes",
						"label": "string",
						"numberOfBytes": "32"
					},
					"t_struct(Coche)404_storage": {
						"encoding": "inplace",
						"label": "struct CarreraCoches.Coche",
						"members": [
							{
								"astId": 389,
								"contract": "contracts/CarreraCoches/cocheToken.sol:CocheToken",
								"label": "idPiloto",
								"offset": 0,
								"slot": "0",
								"type": "t_address"
							},
							{
								"astId": 391,
								"contract": "contracts/CarreraCoches/cocheToken.sol:CocheToken",
								"label": "modelo",
								"offset": 0,
								"slot": "1",
								"type": "t_string_storage"
							},
							{
								"astId": 393,
								"contract": "contracts/CarreraCoches/cocheToken.sol:CocheToken",
								"label": "marca",
								"offset": 0,
								"slot": "2",
								"type": "t_string_storage"
							},
							{
								"astId": 395,
								"contract": "contracts/CarreraCoches/cocheToken.sol:CocheToken",
								"label": "nombrePiloto",
								"offset": 0,
								"slot": "3",
								"type": "t_string_storage"
							},
							{
								"astId": 397,
								"contract": "contracts/CarreraCoches/cocheToken.sol:CocheToken",
								"label": "carrerasGanadas",
								"offset": 0,
								"slot": "4",
								"type": "t_uint256"
							},
							{
								"astId": 399,
								"contract": "contracts/CarreraCoches/cocheToken.sol:CocheToken",
								"label": "carrerasTotales",
								"offset": 0,
								"slot": "5",
								"type": "t_uint256"
							},
							{
								"astId": 401,
								"contract": "contracts/CarreraCoches/cocheToken.sol:CocheToken",
								"label": "tiempoEspera",
								"offset": 0,
								"slot": "6",
								"type": "t_uint256"
							},
							{
								"astId": 403,
								"contract": "contracts/CarreraCoches/cocheToken.sol:CocheToken",
								"label": "nivel",
								"offset": 0,
								"slot": "7",
								"type": "t_uint32"
							}
						],
						"numberOfBytes": "256"
					},
					"t_uint256": {
						"encoding": "inplace",
						"label": "uint256",
						"numberOfBytes": "32"
					},
					"t_uint32": {
						"encoding": "inplace",
						"label": "uint32",
						"numberOfBytes": "4"
					}
				}
			},
			"userdoc": {
				"kind": "user",
				"methods": {},
				"version": 1
			}
		}
	}
}