{
	"contracts/CarreraCoches/cocheToken.sol": {
		"CocheToken": {
			"abi": [
				{
					"anonymous": false,
					"inputs": [
						{
							"indexed": true,
							"internalType": "address",
							"name": "_owner",
							"type": "address"
						},
						{
							"indexed": true,
							"internalType": "address",
							"name": "_approved",
							"type": "address"
						},
						{
							"indexed": true,
							"internalType": "uint256",
							"name": "_tokenId",
							"type": "uint256"
						}
					],
					"name": "Approval",
					"type": "event"
				},
				{
					"anonymous": false,
					"inputs": [
						{
							"indexed": true,
							"internalType": "address",
							"name": "previousOwner",
							"type": "address"
						},
						{
							"indexed": true,
							"internalType": "address",
							"name": "newOwner",
							"type": "address"
						}
					],
					"name": "OwnershipTransferred",
					"type": "event"
				},
				{
					"anonymous": false,
					"inputs": [
						{
							"indexed": true,
							"internalType": "address",
							"name": "_from",
							"type": "address"
						},
						{
							"indexed": true,
							"internalType": "address",
							"name": "_to",
							"type": "address"
						},
						{
							"indexed": true,
							"internalType": "uint256",
							"name": "_tokenId",
							"type": "uint256"
						}
					],
					"name": "Transfer",
					"type": "event"
				},
				{
					"anonymous": false,
					"inputs": [
						{
							"indexed": false,
							"internalType": "string",
							"name": "mo",
							"type": "string"
						},
						{
							"indexed": false,
							"internalType": "string",
							"name": "ma",
							"type": "string"
						},
						{
							"indexed": false,
							"internalType": "uint32",
							"name": "niv",
							"type": "uint32"
						},
						{
							"indexed": false,
							"internalType": "uint256",
							"name": "carrGan",
							"type": "uint256"
						},
						{
							"indexed": false,
							"internalType": "uint256",
							"name": "carrTot",
							"type": "uint256"
						}
					],
					"name": "cochePropietario",
					"type": "event"
				},
				{
					"anonymous": false,
					"inputs": [
						{
							"indexed": false,
							"internalType": "uint256",
							"name": "compr",
							"type": "uint256"
						}
					],
					"name": "comprobar",
					"type": "event"
				},
				{
					"anonymous": false,
					"inputs": [
						{
							"indexed": false,
							"internalType": "string",
							"name": "ms",
							"type": "string"
						}
					],
					"name": "confirmacionDepositoLleno",
					"type": "event"
				},
				{
					"anonymous": false,
					"inputs": [
						{
							"indexed": false,
							"internalType": "string",
							"name": "ms",
							"type": "string"
						},
						{
							"indexed": false,
							"internalType": "uint256",
							"name": "res",
							"type": "uint256"
						}
					],
					"name": "mostrarResultado",
					"type": "event"
				},
				{
					"inputs": [
						{
							"internalType": "uint256",
							"name": "dineroApostar",
							"type": "uint256"
						}
					],
					"name": "Apostar",
					"outputs": [
						{
							"internalType": "string",
							"name": "",
							"type": "string"
						}
					],
					"stateMutability": "payable",
					"type": "function"
				},
				{
					"inputs": [],
					"name": "_owner",
					"outputs": [
						{
							"internalType": "address",
							"name": "",
							"type": "address"
						}
					],
					"stateMutability": "view",
					"type": "function"
				},
				{
					"inputs": [
						{
							"internalType": "string",
							"name": "_modelo",
							"type": "string"
						},
						{
							"internalType": "string",
							"name": "_marca",
							"type": "string"
						},
						{
							"internalType": "string",
							"name": "_nombrePiloto",
							"type": "string"
						}
					],
					"name": "anadirCoche",
					"outputs": [
						{
							"internalType": "uint256",
							"name": "",
							"type": "uint256"
						}
					],
					"stateMutability": "nonpayable",
					"type": "function"
				},
				{
					"inputs": [
						{
							"internalType": "address",
							"name": "_approved",
							"type": "address"
						},
						{
							"internalType": "uint256",
							"name": "_tokenId",
							"type": "uint256"
						}
					],
					"name": "approve",
					"outputs": [],
					"stateMutability": "payable",
					"type": "function"
				},
				{
					"inputs": [
						{
							"internalType": "address",
							"name": "_owner",
							"type": "address"
						}
					],
					"name": "balanceOf",
					"outputs": [
						{
							"internalType": "uint256",
							"name": "",
							"type": "uint256"
						}
					],
					"stateMutability": "view",
					"type": "function"
				},
				{
					"inputs": [
						{
							"internalType": "address",
							"name": "_from",
							"type": "address"
						}
					],
					"name": "borrarCoche",
					"outputs": [],
					"stateMutability": "nonpayable",
					"type": "function"
				},
				{
					"inputs": [
						{
							"internalType": "uint256",
							"name": "",
							"type": "uint256"
						}
					],
					"name": "cocheDePropietario",
					"outputs": [
						{
							"internalType": "address",
							"name": "",
							"type": "address"
						}
					],
					"stateMutability": "view",
					"type": "function"
				},
				{
					"inputs": [
						{
							"internalType": "address",
							"name": "_address",
							"type": "address"
						},
						{
							"internalType": "string",
							"name": "_newModelo",
							"type": "string"
						},
						{
							"internalType": "string",
							"name": "_newMarca",
							"type": "string"
						}
					],
					"name": "comprarCoche",
					"outputs": [
						{
							"internalType": "string",
							"name": "",
							"type": "string"
						}
					],
					"stateMutability": "payable",
					"type": "function"
				},
				{
					"inputs": [
						{
							"internalType": "address",
							"name": "_from",
							"type": "address"
						},
						{
							"internalType": "address",
							"name": "_to",
							"type": "address"
						}
					],
					"name": "crearCoche",
					"outputs": [],
					"stateMutability": "nonpayable",
					"type": "function"
				},
				{
					"inputs": [
						{
							"internalType": "uint256",
							"name": "",
							"type": "uint256"
						}
					],
					"name": "listaCoches",
					"outputs": [
						{
							"internalType": "address",
							"name": "idPiloto",
							"type": "address"
						},
						{
							"internalType": "string",
							"name": "modelo",
							"type": "string"
						},
						{
							"internalType": "string",
							"name": "marca",
							"type": "string"
						},
						{
							"internalType": "string",
							"name": "nombrePiloto",
							"type": "string"
						},
						{
							"internalType": "uint256",
							"name": "carrerasGanadas",
							"type": "uint256"
						},
						{
							"internalType": "uint256",
							"name": "carrerasTotales",
							"type": "uint256"
						},
						{
							"internalType": "uint256",
							"name": "tiempoEspera",
							"type": "uint256"
						},
						{
							"internalType": "uint32",
							"name": "nivel",
							"type": "uint32"
						}
					],
					"stateMutability": "view",
					"type": "function"
				},
				{
					"inputs": [
						{
							"internalType": "address",
							"name": "",
							"type": "address"
						}
					],
					"name": "numeroCochesPersona",
					"outputs": [
						{
							"internalType": "uint256",
							"name": "",
							"type": "uint256"
						}
					],
					"stateMutability": "view",
					"type": "function"
				},
				{
					"inputs": [],
					"name": "owner",
					"outputs": [
						{
							"internalType": "address",
							"name": "",
							"type": "address"
						}
					],
					"stateMutability": "view",
					"type": "function"
				},
				{
					"inputs": [
						{
							"internalType": "uint256",
							"name": "_tokenId",
							"type": "uint256"
						}
					],
					"name": "ownerOf",
					"outputs": [
						{
							"internalType": "address",
							"name": "",
							"type": "address"
						}
					],
					"stateMutability": "view",
					"type": "function"
				},
				{
					"inputs": [],
					"name": "renounceOwnership",
					"outputs": [],
					"stateMutability": "nonpayable",
					"type": "function"
				},
				{
					"inputs": [
						{
							"internalType": "address",
							"name": "_propietario",
							"type": "address"
						}
					],
					"name": "subirDeNivel",
					"outputs": [
						{
							"internalType": "string",
							"name": "",
							"type": "string"
						}
					],
					"stateMutability": "payable",
					"type": "function"
				},
				{
					"inputs": [
						{
							"internalType": "address",
							"name": "_from",
							"type": "address"
						},
						{
							"internalType": "address",
							"name": "_to",
							"type": "address"
						},
						{
							"internalType": "uint256",
							"name": "_tokenId",
							"type": "uint256"
						}
					],
					"name": "transferFrom",
					"outputs": [],
					"stateMutability": "payable",
					"type": "function"
				},
				{
					"inputs": [
						{
							"internalType": "address",
							"name": "newOwner",
							"type": "address"
						}
					],
					"name": "transferOwnership",
					"outputs": [],
					"stateMutability": "nonpayable",
					"type": "function"
				},
				{
					"inputs": [
						{
							"internalType": "string",
							"name": "_modelo",
							"type": "string"
						},
						{
							"internalType": "string",
							"name": "_marca",
							"type": "string"
						},
						{
							"internalType": "string",
							"name": "_nombrePiloto",
							"type": "string"
						},
						{
							"internalType": "uint256",
							"name": "_carrerasGanadas",
							"type": "uint256"
						},
						{
							"internalType": "uint256",
							"name": "_carrerasTotales",
							"type": "uint256"
						},
						{
							"internalType": "uint32",
							"name": "_tiempoEspera",
							"type": "uint32"
						},
						{
							"internalType": "uint256",
							"name": "_nivel",
							"type": "uint256"
						}
					],
					"name": "transferirCoche",
					"outputs": [
						{
							"internalType": "uint256",
							"name": "",
							"type": "uint256"
						}
					],
					"stateMutability": "nonpayable",
					"type": "function"
				},
				{
					"inputs": [
						{
							"internalType": "address",
							"name": "_propietario",
							"type": "address"
						}
					],
					"name": "verCochePropietario",
					"outputs": [],
					"stateMutability": "nonpayable",
					"type": "function"
				}
			],
			"devdoc": {
				"kind": "dev",
				"methods": {
					"owner()": {
						"details": "Returns the address of the current owner."
					},
					"renounceOwnership()": {
						"details": "Leaves the contract without owner. It will not be possible to call `onlyOwner` functions anymore. Can only be called by the current owner. NOTE: Renouncing ownership will leave the contract without an owner, thereby removing any functionality that is only available to the owner."
					},
					"transferOwnership(address)": {
						"details": "Transfers ownership of the contract to a new account (`newOwner`). Can only be called by the current owner."
					}
				},
				"version": 1
			},
			"evm": {
				"assembly": "    /* \"contracts/CarreraCoches/cocheToken.sol\":80:4444  contract CocheToken is CarreraCoches, ERC721 {\r... */\n  mstore(0x40, 0x80)\n    /* \"contracts/CarreraCoches/principal.sol\":518:519  0 */\n  0x00\n    /* \"contracts/CarreraCoches/principal.sol\":501:519  uint randNonce = 0 */\n  0x01\n  sstore\n    /* \"contracts/CarreraCoches/principal.sol\":642:643  0 */\n  0x00\n    /* \"contracts/CarreraCoches/principal.sol\":626:643  uint contador = 0 */\n  0x02\n  sstore\n    /* \"contracts/CarreraCoches/principal.sol\":666:676  60 seconds */\n  0x3c\n    /* \"contracts/CarreraCoches/principal.sol\":650:676  uint cooldown = 60 seconds */\n  0x03\n  sstore\n    /* \"contracts/CarreraCoches/principal.sol\":701:708  1 ether */\n  0x0de0b6b3a7640000\n    /* \"contracts/CarreraCoches/principal.sol\":683:708  uint subirNivel = 1 ether */\n  0x04\n  sstore\n    /* \"contracts/CarreraCoches/principal.sol\":736:743  2 ether */\n  0x1bc16d674ec80000\n    /* \"contracts/CarreraCoches/principal.sol\":715:743  uint cambiarCocheV = 2 ether */\n  0x05\n  sstore\n    /* \"contracts/CarreraCoches/cocheToken.sol\":80:4444  contract CocheToken is CarreraCoches, ERC721 {\r... */\n  callvalue\n  dup1\n  iszero\n  tag_1\n  jumpi\n  0x00\n  dup1\n  revert\ntag_1:\n  pop\n    /* \"contracts/CarreraCoches/ownable.sol\":947:979  _transferOwnership(_msgSender()) */\n  tag_4\n    /* \"contracts/CarreraCoches/ownable.sol\":966:978  _msgSender() */\n  tag_5\n    /* \"contracts/CarreraCoches/ownable.sol\":966:976  _msgSender */\n  shl(0x20, tag_6)\n    /* \"contracts/CarreraCoches/ownable.sol\":966:978  _msgSender() */\n  0x20\n  shr\n  jump\t// in\ntag_5:\n    /* \"contracts/CarreraCoches/ownable.sol\":947:965  _transferOwnership */\n  shl(0x20, tag_7)\n    /* \"contracts/CarreraCoches/ownable.sol\":947:979  _transferOwnership(_msgSender()) */\n  0x20\n  shr\n  jump\t// in\ntag_4:\n    /* \"contracts/CarreraCoches/cocheToken.sol\":80:4444  contract CocheToken is CarreraCoches, ERC721 {\r... */\n  jump(tag_8)\n    /* \"contracts/CarreraCoches/utils/Context.sol\":656:754  function _msgSender() internal view virtual returns (address) {\r... */\ntag_6:\n    /* \"contracts/CarreraCoches/utils/Context.sol\":709:716  address */\n  0x00\n    /* \"contracts/CarreraCoches/utils/Context.sol\":736:746  msg.sender */\n  caller\n    /* \"contracts/CarreraCoches/utils/Context.sol\":729:746  return msg.sender */\n  swap1\n  pop\n    /* \"contracts/CarreraCoches/utils/Context.sol\":656:754  function _msgSender() internal view virtual returns (address) {\r... */\n  swap1\n  jump\t// out\n    /* \"contracts/CarreraCoches/ownable.sol\":2338:2529  function _transferOwnership(address newOwner) internal virtual {\r... */\ntag_7:\n    /* \"contracts/CarreraCoches/ownable.sol\":2412:2428  address oldOwner */\n  0x00\n    /* \"contracts/CarreraCoches/ownable.sol\":2431:2437  _owner */\n  dup1\n  0x00\n  swap1\n  sload\n  swap1\n  0x0100\n  exp\n  swap1\n  div\n  0xffffffffffffffffffffffffffffffffffffffff\n  and\n    /* \"contracts/CarreraCoches/ownable.sol\":2412:2437  address oldOwner = _owner */\n  swap1\n  pop\n    /* \"contracts/CarreraCoches/ownable.sol\":2457:2465  newOwner */\n  dup2\n    /* \"contracts/CarreraCoches/ownable.sol\":2448:2454  _owner */\n  0x00\n  dup1\n    /* \"contracts/CarreraCoches/ownable.sol\":2448:2465  _owner = newOwner */\n  0x0100\n  exp\n  dup2\n  sload\n  dup2\n  0xffffffffffffffffffffffffffffffffffffffff\n  mul\n  not\n  and\n  swap1\n  dup4\n  0xffffffffffffffffffffffffffffffffffffffff\n  and\n  mul\n  or\n  swap1\n  sstore\n  pop\n    /* \"contracts/CarreraCoches/ownable.sol\":2512:2520  newOwner */\n  dup2\n    /* \"contracts/CarreraCoches/ownable.sol\":2481:2521  OwnershipTransferred(oldOwner, newOwner) */\n  0xffffffffffffffffffffffffffffffffffffffff\n  and\n    /* \"contracts/CarreraCoches/ownable.sol\":2502:2510  oldOwner */\n  dup2\n    /* \"contracts/CarreraCoches/ownable.sol\":2481:2521  OwnershipTransferred(oldOwner, newOwner) */\n  0xffffffffffffffffffffffffffffffffffffffff\n  and\n  0x8be0079c531659141344cd1fd0a4f28419497f9722a3daafe3b4186f6b6457e0\n  mload(0x40)\n  mload(0x40)\n  dup1\n  swap2\n  sub\n  swap1\n  log3\n    /* \"contracts/CarreraCoches/ownable.sol\":2401:2529  {\r... */\n  pop\n    /* \"contracts/CarreraCoches/ownable.sol\":2338:2529  function _transferOwnership(address newOwner) internal virtual {\r... */\n  pop\n  jump\t// out\n    /* \"contracts/CarreraCoches/cocheToken.sol\":80:4444  contract CocheToken is CarreraCoches, ERC721 {\r... */\ntag_8:\n  dataSize(sub_0)\n  dup1\n  dataOffset(sub_0)\n  0x00\n  codecopy\n  0x00\n  return\nstop\n\nsub_0: assembly {\n        /* \"contracts/CarreraCoches/cocheToken.sol\":80:4444  contract CocheToken is CarreraCoches, ERC721 {\r... */\n      mstore(0x40, 0x80)\n      jumpi(tag_1, lt(calldatasize, 0x04))\n      shr(0xe0, calldataload(0x00))\n      dup1\n      0x70a08231\n      gt\n      tag_21\n      jumpi\n      dup1\n      0xd735573d\n      gt\n      tag_22\n      jumpi\n      dup1\n      0xd735573d\n      eq\n      tag_16\n      jumpi\n      dup1\n      0xdf79777b\n      eq\n      tag_17\n      jumpi\n      dup1\n      0xe172fca8\n      eq\n      tag_18\n      jumpi\n      dup1\n      0xf2fde38b\n      eq\n      tag_19\n      jumpi\n      dup1\n      0xffe20b64\n      eq\n      tag_20\n      jumpi\n      jump(tag_1)\n    tag_22:\n      dup1\n      0x70a08231\n      eq\n      tag_11\n      jumpi\n      dup1\n      0x715018a6\n      eq\n      tag_12\n      jumpi\n      dup1\n      0x858b0554\n      eq\n      tag_13\n      jumpi\n      dup1\n      0x8da5cb5b\n      eq\n      tag_14\n      jumpi\n      dup1\n      0xb2bdfa7b\n      eq\n      tag_15\n      jumpi\n      jump(tag_1)\n    tag_21:\n      dup1\n      0x23b872dd\n      gt\n      tag_23\n      jumpi\n      dup1\n      0x23b872dd\n      eq\n      tag_6\n      jumpi\n      dup1\n      0x2458c544\n      eq\n      tag_7\n      jumpi\n      dup1\n      0x6352211e\n      eq\n      tag_8\n      jumpi\n      dup1\n      0x6a7d1816\n      eq\n      tag_9\n      jumpi\n      dup1\n      0x6b6f0494\n      eq\n      tag_10\n      jumpi\n      jump(tag_1)\n    tag_23:\n      dup1\n      0x049a5f65\n      eq\n      tag_2\n      jumpi\n      dup1\n      0x095ea7b3\n      eq\n      tag_3\n      jumpi\n      dup1\n      0x17bde7a9\n      eq\n      tag_4\n      jumpi\n      dup1\n      0x1c6743e4\n      eq\n      tag_5\n      jumpi\n    tag_1:\n      0x00\n      dup1\n      revert\n        /* \"contracts/CarreraCoches/principal.sol\":3372:3834  function comprarCoche(address _address, string memory _newModelo, string memory _newMarca) external payable returns(string memory) {\r... */\n    tag_2:\n      tag_24\n      0x04\n      dup1\n      calldatasize\n      sub\n      dup2\n      add\n      swap1\n      tag_25\n      swap2\n      swap1\n      tag_26\n      jump\t// in\n    tag_25:\n      tag_27\n      jump\t// in\n    tag_24:\n      mload(0x40)\n      tag_28\n      swap2\n      swap1\n      tag_29\n      jump\t// in\n    tag_28:\n      mload(0x40)\n      dup1\n      swap2\n      sub\n      swap1\n      return\n        /* \"contracts/CarreraCoches/cocheToken.sol\":937:1149  function approve(address _approved, uint256 _tokenId) external override payable onlyOwnerOf(_tokenId) {\r... */\n    tag_3:\n      tag_30\n      0x04\n      dup1\n      calldatasize\n      sub\n      dup2\n      add\n      swap1\n      tag_31\n      swap2\n      swap1\n      tag_32\n      jump\t// in\n    tag_31:\n      tag_33\n      jump\t// in\n    tag_30:\n      stop\n        /* \"contracts/CarreraCoches/cocheToken.sol\":1157:1376  function borrarCoche(address _from) public {\r... */\n    tag_4:\n      callvalue\n      dup1\n      iszero\n      tag_34\n      jumpi\n      0x00\n      dup1\n      revert\n    tag_34:\n      pop\n      tag_35\n      0x04\n      dup1\n      calldatasize\n      sub\n      dup2\n      add\n      swap1\n      tag_36\n      swap2\n      swap1\n      tag_37\n      jump\t// in\n    tag_36:\n      tag_38\n      jump\t// in\n    tag_35:\n      stop\n        /* \"contracts/CarreraCoches/principal.sol\":1077:1129  mapping (address => uint) public numeroCochesPersona */\n    tag_5:\n      callvalue\n      dup1\n      iszero\n      tag_39\n      jumpi\n      0x00\n      dup1\n      revert\n    tag_39:\n      pop\n      tag_40\n      0x04\n      dup1\n      calldatasize\n      sub\n      dup2\n      add\n      swap1\n      tag_41\n      swap2\n      swap1\n      tag_37\n      jump\t// in\n    tag_41:\n      tag_42\n      jump\t// in\n    tag_40:\n      mload(0x40)\n      tag_43\n      swap2\n      swap1\n      tag_44\n      jump\t// in\n    tag_43:\n      mload(0x40)\n      dup1\n      swap2\n      sub\n      swap1\n      return\n        /* \"contracts/CarreraCoches/cocheToken.sol\":684:931  function transferFrom(address _from, address _to, uint256 _tokenId) external override payable {\r... */\n    tag_6:\n      tag_45\n      0x04\n      dup1\n      calldatasize\n      sub\n      dup2\n      add\n      swap1\n      tag_46\n      swap2\n      swap1\n      tag_47\n      jump\t// in\n    tag_46:\n      tag_48\n      jump\t// in\n    tag_45:\n      stop\n        /* \"contracts/CarreraCoches/principal.sol\":1701:2141  function anadirCoche(string memory _modelo, string memory _marca, string memory _nombrePiloto) public restriccion returns (uint) {\r... */\n    tag_7:\n      callvalue\n      dup1\n      iszero\n      tag_49\n      jumpi\n      0x00\n      dup1\n      revert\n    tag_49:\n      pop\n      tag_50\n      0x04\n      dup1\n      calldatasize\n      sub\n      dup2\n      add\n      swap1\n      tag_51\n      swap2\n      swap1\n      tag_52\n      jump\t// in\n    tag_51:\n      tag_53\n      jump\t// in\n    tag_50:\n      mload(0x40)\n      tag_54\n      swap2\n      swap1\n      tag_44\n      jump\t// in\n    tag_54:\n      mload(0x40)\n      dup1\n      swap2\n      sub\n      swap1\n      return\n        /* \"contracts/CarreraCoches/cocheToken.sol\":318:442  function ownerOf(uint256 _tokenId) external override view returns (address) {\r... */\n    tag_8:\n      callvalue\n      dup1\n      iszero\n      tag_55\n      jumpi\n      0x00\n      dup1\n      revert\n    tag_55:\n      pop\n      tag_56\n      0x04\n      dup1\n      calldatasize\n      sub\n      dup2\n      add\n      swap1\n      tag_57\n      swap2\n      swap1\n      tag_58\n      jump\t// in\n    tag_57:\n      tag_59\n      jump\t// in\n    tag_56:\n      mload(0x40)\n      tag_60\n      swap2\n      swap1\n      tag_61\n      jump\t// in\n    tag_60:\n      mload(0x40)\n      dup1\n      swap2\n      sub\n      swap1\n      return\n        /* \"contracts/CarreraCoches/principal.sol\":2510:2869  function subirDeNivel(address _propietario) external payable returns(string memory) {\r... */\n    tag_9:\n      tag_62\n      0x04\n      dup1\n      calldatasize\n      sub\n      dup2\n      add\n      swap1\n      tag_63\n      swap2\n      swap1\n      tag_37\n      jump\t// in\n    tag_63:\n      tag_64\n      jump\t// in\n    tag_62:\n      mload(0x40)\n      tag_65\n      swap2\n      swap1\n      tag_29\n      jump\t// in\n    tag_65:\n      mload(0x40)\n      dup1\n      swap2\n      sub\n      swap1\n      return\n        /* \"contracts/CarreraCoches/principal.sol\":3892:7238  function Apostar(uint dineroApostar) public payable returns(string memory) {\r... */\n    tag_10:\n      tag_66\n      0x04\n      dup1\n      calldatasize\n      sub\n      dup2\n      add\n      swap1\n      tag_67\n      swap2\n      swap1\n      tag_58\n      jump\t// in\n    tag_67:\n      tag_68\n      jump\t// in\n    tag_66:\n      mload(0x40)\n      tag_69\n      swap2\n      swap1\n      tag_29\n      jump\t// in\n    tag_69:\n      mload(0x40)\n      dup1\n      swap2\n      sub\n      swap1\n      return\n        /* \"contracts/CarreraCoches/cocheToken.sol\":189:312  function balanceOf(address _owner) external override view returns (uint256) {\r... */\n    tag_11:\n      callvalue\n      dup1\n      iszero\n      tag_70\n      jumpi\n      0x00\n      dup1\n      revert\n    tag_70:\n      pop\n      tag_71\n      0x04\n      dup1\n      calldatasize\n      sub\n      dup2\n      add\n      swap1\n      tag_72\n      swap2\n      swap1\n      tag_37\n      jump\t// in\n    tag_72:\n      tag_73\n      jump\t// in\n    tag_71:\n      mload(0x40)\n      tag_74\n      swap2\n      swap1\n      tag_44\n      jump\t// in\n    tag_74:\n      mload(0x40)\n      dup1\n      swap2\n      sub\n      swap1\n      return\n        /* \"contracts/CarreraCoches/ownable.sol\":1719:1822  function renounceOwnership() public virtual onlyOwner {\r... */\n    tag_12:\n      callvalue\n      dup1\n      iszero\n      tag_75\n      jumpi\n      0x00\n      dup1\n      revert\n    tag_75:\n      pop\n      tag_76\n      tag_77\n      jump\t// in\n    tag_76:\n      stop\n        /* \"contracts/CarreraCoches/principal.sol\":1019:1070  mapping (uint => address) public cocheDePropietario */\n    tag_13:\n      callvalue\n      dup1\n      iszero\n      tag_78\n      jumpi\n      0x00\n      dup1\n      revert\n    tag_78:\n      pop\n      tag_79\n      0x04\n      dup1\n      calldatasize\n      sub\n      dup2\n      add\n      swap1\n      tag_80\n      swap2\n      swap1\n      tag_58\n      jump\t// in\n    tag_80:\n      tag_81\n      jump\t// in\n    tag_79:\n      mload(0x40)\n      tag_82\n      swap2\n      swap1\n      tag_61\n      jump\t// in\n    tag_82:\n      mload(0x40)\n      dup1\n      swap2\n      sub\n      swap1\n      return\n        /* \"contracts/CarreraCoches/ownable.sol\":1068:1155  function owner() public view virtual returns (address) {\r... */\n    tag_14:\n      callvalue\n      dup1\n      iszero\n      tag_83\n      jumpi\n      0x00\n      dup1\n      revert\n    tag_83:\n      pop\n      tag_84\n      tag_85\n      jump\t// in\n    tag_84:\n      mload(0x40)\n      tag_86\n      swap2\n      swap1\n      tag_61\n      jump\t// in\n    tag_86:\n      mload(0x40)\n      dup1\n      swap2\n      sub\n      swap1\n      return\n        /* \"contracts/CarreraCoches/ownable.sol\":701:722  address public _owner */\n    tag_15:\n      callvalue\n      dup1\n      iszero\n      tag_87\n      jumpi\n      0x00\n      dup1\n      revert\n    tag_87:\n      pop\n      tag_88\n      tag_89\n      jump\t// in\n    tag_88:\n      mload(0x40)\n      tag_90\n      swap2\n      swap1\n      tag_61\n      jump\t// in\n    tag_90:\n      mload(0x40)\n      dup1\n      swap2\n      sub\n      swap1\n      return\n        /* \"contracts/CarreraCoches/principal.sol\":752:778  Coche[] public listaCoches */\n    tag_16:\n      callvalue\n      dup1\n      iszero\n      tag_91\n      jumpi\n      0x00\n      dup1\n      revert\n    tag_91:\n      pop\n      tag_92\n      0x04\n      dup1\n      calldatasize\n      sub\n      dup2\n      add\n      swap1\n      tag_93\n      swap2\n      swap1\n      tag_58\n      jump\t// in\n    tag_93:\n      tag_94\n      jump\t// in\n    tag_92:\n      mload(0x40)\n      tag_95\n      swap9\n      swap8\n      swap7\n      swap6\n      swap5\n      swap4\n      swap3\n      swap2\n      swap1\n      tag_96\n      jump\t// in\n    tag_95:\n      mload(0x40)\n      dup1\n      swap2\n      sub\n      swap1\n      return\n        /* \"contracts/CarreraCoches/cocheToken.sol\":2150:2675  function transferirCoche(string memory _modelo, string memory _marca, string memory _nombrePiloto, uint _carrerasGanadas, uint _carrerasTotales, uint32 _tiempoEspera, uint _nivel) public restriccion returns (uint) {\r... */\n    tag_17:\n      callvalue\n      dup1\n      iszero\n      tag_97\n      jumpi\n      0x00\n      dup1\n      revert\n    tag_97:\n      pop\n      tag_98\n      0x04\n      dup1\n      calldatasize\n      sub\n      dup2\n      add\n      swap1\n      tag_99\n      swap2\n      swap1\n      tag_100\n      jump\t// in\n    tag_99:\n      tag_101\n      jump\t// in\n    tag_98:\n      mload(0x40)\n      tag_102\n      swap2\n      swap1\n      tag_44\n      jump\t// in\n    tag_102:\n      mload(0x40)\n      dup1\n      swap2\n      sub\n      swap1\n      return\n        /* \"contracts/CarreraCoches/principal.sol\":2913:3289  function verCochePropietario(address _propietario) external {\r... */\n    tag_18:\n      callvalue\n      dup1\n      iszero\n      tag_103\n      jumpi\n      0x00\n      dup1\n      revert\n    tag_103:\n      pop\n      tag_104\n      0x04\n      dup1\n      calldatasize\n      sub\n      dup2\n      add\n      swap1\n      tag_105\n      swap2\n      swap1\n      tag_37\n      jump\t// in\n    tag_105:\n      tag_106\n      jump\t// in\n    tag_104:\n      stop\n        /* \"contracts/CarreraCoches/ownable.sol\":1977:2178  function transferOwnership(address newOwner) public virtual onlyOwner {\r... */\n    tag_19:\n      callvalue\n      dup1\n      iszero\n      tag_107\n      jumpi\n      0x00\n      dup1\n      revert\n    tag_107:\n      pop\n      tag_108\n      0x04\n      dup1\n      calldatasize\n      sub\n      dup2\n      add\n      swap1\n      tag_109\n      swap2\n      swap1\n      tag_37\n      jump\t// in\n    tag_109:\n      tag_110\n      jump\t// in\n    tag_108:\n      stop\n        /* \"contracts/CarreraCoches/cocheToken.sol\":1384:2142  function crearCoche(address _from, address _to) public {\r... */\n    tag_20:\n      callvalue\n      dup1\n      iszero\n      tag_111\n      jumpi\n      0x00\n      dup1\n      revert\n    tag_111:\n      pop\n      tag_112\n      0x04\n      dup1\n      calldatasize\n      sub\n      dup2\n      add\n      swap1\n      tag_113\n      swap2\n      swap1\n      tag_114\n      jump\t// in\n    tag_113:\n      tag_115\n      jump\t// in\n    tag_112:\n      stop\n        /* \"contracts/CarreraCoches/principal.sol\":3372:3834  function comprarCoche(address _address, string memory _newModelo, string memory _newMarca) external payable returns(string memory) {\r... */\n    tag_27:\n        /* \"contracts/CarreraCoches/principal.sol\":3488:3501  string memory */\n      0x60\n        /* \"contracts/CarreraCoches/principal.sol\":3534:3542  _address */\n      dup4\n        /* \"contracts/CarreraCoches/principal.sol\":3522:3542  msg.sender==_address */\n      0xffffffffffffffffffffffffffffffffffffffff\n      and\n        /* \"contracts/CarreraCoches/principal.sol\":3522:3532  msg.sender */\n      caller\n        /* \"contracts/CarreraCoches/principal.sol\":3522:3542  msg.sender==_address */\n      0xffffffffffffffffffffffffffffffffffffffff\n      and\n      eq\n        /* \"contracts/CarreraCoches/principal.sol\":3514:3543  require(msg.sender==_address) */\n      tag_117\n      jumpi\n      0x00\n      dup1\n      revert\n    tag_117:\n        /* \"contracts/CarreraCoches/principal.sol\":3573:3586  cambiarCocheV */\n      sload(0x05)\n        /* \"contracts/CarreraCoches/principal.sol\":3562:3571  msg.value */\n      callvalue\n        /* \"contracts/CarreraCoches/principal.sol\":3562:3586  msg.value==cambiarCocheV */\n      eq\n        /* \"contracts/CarreraCoches/principal.sol\":3554:3587  require(msg.value==cambiarCocheV) */\n      tag_118\n      jumpi\n      0x00\n      dup1\n      revert\n    tag_118:\n        /* \"contracts/CarreraCoches/principal.sol\":3602:3608  uint i */\n      0x00\n        /* \"contracts/CarreraCoches/principal.sol\":3598:3827  for(uint i = 0; i < listaCoches.length; i++){\r... */\n    tag_119:\n        /* \"contracts/CarreraCoches/principal.sol\":3618:3629  listaCoches */\n      0x06\n        /* \"contracts/CarreraCoches/principal.sol\":3618:3636  listaCoches.length */\n      dup1\n      sload\n      swap1\n      pop\n        /* \"contracts/CarreraCoches/principal.sol\":3614:3615  i */\n      dup2\n        /* \"contracts/CarreraCoches/principal.sol\":3614:3636  i < listaCoches.length */\n      lt\n        /* \"contracts/CarreraCoches/principal.sol\":3598:3827  for(uint i = 0; i < listaCoches.length; i++){\r... */\n      iszero\n      tag_120\n      jumpi\n        /* \"contracts/CarreraCoches/principal.sol\":3685:3695  msg.sender */\n      caller\n        /* \"contracts/CarreraCoches/principal.sol\":3660:3695  listaCoches[i].idPiloto==msg.sender */\n      0xffffffffffffffffffffffffffffffffffffffff\n      and\n        /* \"contracts/CarreraCoches/principal.sol\":3660:3671  listaCoches */\n      0x06\n        /* \"contracts/CarreraCoches/principal.sol\":3672:3673  i */\n      dup3\n        /* \"contracts/CarreraCoches/principal.sol\":3660:3674  listaCoches[i] */\n      dup2\n      sload\n      dup2\n      lt\n      tag_122\n      jumpi\n      tag_123\n      tag_124\n      jump\t// in\n    tag_123:\n    tag_122:\n      swap1\n      0x00\n      mstore\n      keccak256(0x00, 0x20)\n      swap1\n      0x08\n      mul\n      add\n        /* \"contracts/CarreraCoches/principal.sol\":3660:3683  listaCoches[i].idPiloto */\n      0x00\n      add\n      0x00\n      swap1\n      sload\n      swap1\n      0x0100\n      exp\n      swap1\n      div\n      0xffffffffffffffffffffffffffffffffffffffff\n      and\n        /* \"contracts/CarreraCoches/principal.sol\":3660:3695  listaCoches[i].idPiloto==msg.sender */\n      0xffffffffffffffffffffffffffffffffffffffff\n      and\n      eq\n        /* \"contracts/CarreraCoches/principal.sol\":3657:3816  if(listaCoches[i].idPiloto==msg.sender){\r... */\n      iszero\n      tag_126\n      jumpi\n        /* \"contracts/CarreraCoches/principal.sol\":3739:3749  _newModelo */\n      dup4\n        /* \"contracts/CarreraCoches/principal.sol\":3715:3726  listaCoches */\n      0x06\n        /* \"contracts/CarreraCoches/principal.sol\":3727:3728  i */\n      dup3\n        /* \"contracts/CarreraCoches/principal.sol\":3715:3729  listaCoches[i] */\n      dup2\n      sload\n      dup2\n      lt\n      tag_127\n      jumpi\n      tag_128\n      tag_124\n      jump\t// in\n    tag_128:\n    tag_127:\n      swap1\n      0x00\n      mstore\n      keccak256(0x00, 0x20)\n      swap1\n      0x08\n      mul\n      add\n        /* \"contracts/CarreraCoches/principal.sol\":3715:3736  listaCoches[i].modelo */\n      0x01\n      add\n        /* \"contracts/CarreraCoches/principal.sol\":3715:3749  listaCoches[i].modelo = _newModelo */\n      swap1\n      dup1\n      mload\n      swap1\n      0x20\n      add\n      swap1\n      tag_130\n      swap3\n      swap2\n      swap1\n      tag_131\n      jump\t// in\n    tag_130:\n      pop\n        /* \"contracts/CarreraCoches/principal.sol\":3791:3800  _newMarca */\n      dup3\n        /* \"contracts/CarreraCoches/principal.sol\":3768:3779  listaCoches */\n      0x06\n        /* \"contracts/CarreraCoches/principal.sol\":3780:3781  i */\n      dup3\n        /* \"contracts/CarreraCoches/principal.sol\":3768:3782  listaCoches[i] */\n      dup2\n      sload\n      dup2\n      lt\n      tag_132\n      jumpi\n      tag_133\n      tag_124\n      jump\t// in\n    tag_133:\n    tag_132:\n      swap1\n      0x00\n      mstore\n      keccak256(0x00, 0x20)\n      swap1\n      0x08\n      mul\n      add\n        /* \"contracts/CarreraCoches/principal.sol\":3768:3788  listaCoches[i].marca */\n      0x02\n      add\n        /* \"contracts/CarreraCoches/principal.sol\":3768:3800  listaCoches[i].marca = _newMarca */\n      swap1\n      dup1\n      mload\n      swap1\n      0x20\n      add\n      swap1\n      tag_135\n      swap3\n      swap2\n      swap1\n      tag_131\n      jump\t// in\n    tag_135:\n      pop\n        /* \"contracts/CarreraCoches/principal.sol\":3657:3816  if(listaCoches[i].idPiloto==msg.sender){\r... */\n    tag_126:\n        /* \"contracts/CarreraCoches/principal.sol\":3638:3641  i++ */\n      dup1\n      dup1\n      tag_136\n      swap1\n      tag_137\n      jump\t// in\n    tag_136:\n      swap2\n      pop\n      pop\n        /* \"contracts/CarreraCoches/principal.sol\":3598:3827  for(uint i = 0; i < listaCoches.length; i++){\r... */\n      jump(tag_119)\n    tag_120:\n      pop\n        /* \"contracts/CarreraCoches/principal.sol\":3372:3834  function comprarCoche(address _address, string memory _newModelo, string memory _newMarca) external payable returns(string memory) {\r... */\n      swap4\n      swap3\n      pop\n      pop\n      pop\n      jump\t// out\n        /* \"contracts/CarreraCoches/cocheToken.sol\":937:1149  function approve(address _approved, uint256 _tokenId) external override payable onlyOwnerOf(_tokenId) {\r... */\n    tag_33:\n        /* \"contracts/CarreraCoches/cocheToken.sol\":1029:1037  _tokenId */\n      dup1\n        /* \"contracts/CarreraCoches/principal.sol\":1401:1419  cocheDePropietario */\n      0x07\n        /* \"contracts/CarreraCoches/principal.sol\":1401:1427  cocheDePropietario[_coche] */\n      0x00\n        /* \"contracts/CarreraCoches/principal.sol\":1420:1426  _coche */\n      dup3\n        /* \"contracts/CarreraCoches/principal.sol\":1401:1427  cocheDePropietario[_coche] */\n      dup2\n      mstore\n      0x20\n      add\n      swap1\n      dup2\n      mstore\n      0x20\n      add\n      0x00\n      keccak256\n      0x00\n      swap1\n      sload\n      swap1\n      0x0100\n      exp\n      swap1\n      div\n      0xffffffffffffffffffffffffffffffffffffffff\n      and\n        /* \"contracts/CarreraCoches/principal.sol\":1387:1427  msg.sender == cocheDePropietario[_coche] */\n      0xffffffffffffffffffffffffffffffffffffffff\n      and\n        /* \"contracts/CarreraCoches/principal.sol\":1387:1397  msg.sender */\n      caller\n        /* \"contracts/CarreraCoches/principal.sol\":1387:1427  msg.sender == cocheDePropietario[_coche] */\n      0xffffffffffffffffffffffffffffffffffffffff\n      and\n      eq\n        /* \"contracts/CarreraCoches/principal.sol\":1379:1428  require(msg.sender == cocheDePropietario[_coche]) */\n      tag_139\n      jumpi\n      0x00\n      dup1\n      revert\n    tag_139:\n        /* \"contracts/CarreraCoches/cocheToken.sol\":1081:1090  _approved */\n      dup3\n        /* \"contracts/CarreraCoches/cocheToken.sol\":1046:1068  confirmarTransferencia */\n      0x09\n        /* \"contracts/CarreraCoches/cocheToken.sol\":1046:1078  confirmarTransferencia[_tokenId] */\n      0x00\n        /* \"contracts/CarreraCoches/cocheToken.sol\":1069:1077  _tokenId */\n      dup5\n        /* \"contracts/CarreraCoches/cocheToken.sol\":1046:1078  confirmarTransferencia[_tokenId] */\n      dup2\n      mstore\n      0x20\n      add\n      swap1\n      dup2\n      mstore\n      0x20\n      add\n      0x00\n      keccak256\n      0x00\n        /* \"contracts/CarreraCoches/cocheToken.sol\":1046:1090  confirmarTransferencia[_tokenId] = _approved */\n      0x0100\n      exp\n      dup2\n      sload\n      dup2\n      0xffffffffffffffffffffffffffffffffffffffff\n      mul\n      not\n      and\n      swap1\n      dup4\n      0xffffffffffffffffffffffffffffffffffffffff\n      and\n      mul\n      or\n      swap1\n      sstore\n      pop\n        /* \"contracts/CarreraCoches/cocheToken.sol\":1134:1142  _tokenId */\n      dup2\n        /* \"contracts/CarreraCoches/cocheToken.sol\":1123:1132  _approved */\n      dup4\n        /* \"contracts/CarreraCoches/cocheToken.sol\":1102:1143  Approval(msg.sender, _approved, _tokenId) */\n      0xffffffffffffffffffffffffffffffffffffffff\n      and\n        /* \"contracts/CarreraCoches/cocheToken.sol\":1111:1121  msg.sender */\n      caller\n        /* \"contracts/CarreraCoches/cocheToken.sol\":1102:1143  Approval(msg.sender, _approved, _tokenId) */\n      0xffffffffffffffffffffffffffffffffffffffff\n      and\n      0x8c5be1e5ebec7d5bd14f71427d1e84f3dd0314c0f7b2291e5b200ac8c7c3b925\n      mload(0x40)\n      mload(0x40)\n      dup1\n      swap2\n      sub\n      swap1\n      log4\n        /* \"contracts/CarreraCoches/cocheToken.sol\":937:1149  function approve(address _approved, uint256 _tokenId) external override payable onlyOwnerOf(_tokenId) {\r... */\n      pop\n      pop\n      pop\n      jump\t// out\n        /* \"contracts/CarreraCoches/cocheToken.sol\":1157:1376  function borrarCoche(address _from) public {\r... */\n    tag_38:\n        /* \"contracts/CarreraCoches/cocheToken.sol\":1215:1221  uint i */\n      0x00\n        /* \"contracts/CarreraCoches/cocheToken.sol\":1211:1369  for(uint i = 0; i < listaCoches.length; i++){\r... */\n    tag_142:\n        /* \"contracts/CarreraCoches/cocheToken.sol\":1231:1242  listaCoches */\n      0x06\n        /* \"contracts/CarreraCoches/cocheToken.sol\":1231:1249  listaCoches.length */\n      dup1\n      sload\n      swap1\n      pop\n        /* \"contracts/CarreraCoches/cocheToken.sol\":1227:1228  i */\n      dup2\n        /* \"contracts/CarreraCoches/cocheToken.sol\":1227:1249  i < listaCoches.length */\n      lt\n        /* \"contracts/CarreraCoches/cocheToken.sol\":1211:1369  for(uint i = 0; i < listaCoches.length; i++){\r... */\n      iszero\n      tag_143\n      jumpi\n        /* \"contracts/CarreraCoches/cocheToken.sol\":1300:1305  _from */\n      dup2\n        /* \"contracts/CarreraCoches/cocheToken.sol\":1273:1305  listaCoches[i].idPiloto == _from */\n      0xffffffffffffffffffffffffffffffffffffffff\n      and\n        /* \"contracts/CarreraCoches/cocheToken.sol\":1273:1284  listaCoches */\n      0x06\n        /* \"contracts/CarreraCoches/cocheToken.sol\":1285:1286  i */\n      dup3\n        /* \"contracts/CarreraCoches/cocheToken.sol\":1273:1287  listaCoches[i] */\n      dup2\n      sload\n      dup2\n      lt\n      tag_145\n      jumpi\n      tag_146\n      tag_124\n      jump\t// in\n    tag_146:\n    tag_145:\n      swap1\n      0x00\n      mstore\n      keccak256(0x00, 0x20)\n      swap1\n      0x08\n      mul\n      add\n        /* \"contracts/CarreraCoches/cocheToken.sol\":1273:1296  listaCoches[i].idPiloto */\n      0x00\n      add\n      0x00\n      swap1\n      sload\n      swap1\n      0x0100\n      exp\n      swap1\n      div\n      0xffffffffffffffffffffffffffffffffffffffff\n      and\n        /* \"contracts/CarreraCoches/cocheToken.sol\":1273:1305  listaCoches[i].idPiloto == _from */\n      0xffffffffffffffffffffffffffffffffffffffff\n      and\n      eq\n        /* \"contracts/CarreraCoches/cocheToken.sol\":1270:1358  if(listaCoches[i].idPiloto == _from){\r... */\n      iszero\n      tag_148\n      jumpi\n        /* \"contracts/CarreraCoches/cocheToken.sol\":1325:1336  listaCoches */\n      0x06\n        /* \"contracts/CarreraCoches/cocheToken.sol\":1325:1342  listaCoches.pop() */\n      dup1\n      sload\n      dup1\n      tag_149\n      jumpi\n      tag_150\n      tag_151\n      jump\t// in\n    tag_150:\n    tag_149:\n      0x01\n      swap1\n      sub\n      dup2\n      dup2\n      swap1\n      0x00\n      mstore\n      keccak256(0x00, 0x20)\n      swap1\n      0x08\n      mul\n      add\n      0x00\n      dup1\n      dup3\n      add\n      exp(0x0100, 0x00)\n      dup2\n      sload\n      swap1\n      0xffffffffffffffffffffffffffffffffffffffff\n      mul\n      not\n      and\n      swap1\n      sstore\n      0x01\n      dup3\n      add\n      0x00\n      tag_153\n      swap2\n      swap1\n      tag_154\n      jump\t// in\n    tag_153:\n      0x02\n      dup3\n      add\n      0x00\n      tag_155\n      swap2\n      swap1\n      tag_154\n      jump\t// in\n    tag_155:\n      0x03\n      dup3\n      add\n      0x00\n      tag_156\n      swap2\n      swap1\n      tag_154\n      jump\t// in\n    tag_156:\n      0x04\n      dup3\n      add\n      0x00\n      swap1\n      sstore\n      0x05\n      dup3\n      add\n      0x00\n      swap1\n      sstore\n      0x06\n      dup3\n      add\n      0x00\n      swap1\n      sstore\n      0x07\n      dup3\n      add\n      exp(0x0100, 0x00)\n      dup2\n      sload\n      swap1\n      0xffffffff\n      mul\n      not\n      and\n      swap1\n      sstore\n      pop\n      pop\n      swap1\n      sstore\n        /* \"contracts/CarreraCoches/cocheToken.sol\":1270:1358  if(listaCoches[i].idPiloto == _from){\r... */\n    tag_148:\n        /* \"contracts/CarreraCoches/cocheToken.sol\":1251:1254  i++ */\n      dup1\n      dup1\n      tag_157\n      swap1\n      tag_137\n      jump\t// in\n    tag_157:\n      swap2\n      pop\n      pop\n        /* \"contracts/CarreraCoches/cocheToken.sol\":1211:1369  for(uint i = 0; i < listaCoches.length; i++){\r... */\n      jump(tag_142)\n    tag_143:\n      pop\n        /* \"contracts/CarreraCoches/cocheToken.sol\":1157:1376  function borrarCoche(address _from) public {\r... */\n      pop\n      jump\t// out\n        /* \"contracts/CarreraCoches/principal.sol\":1077:1129  mapping (address => uint) public numeroCochesPersona */\n    tag_42:\n      mstore(0x20, 0x08)\n      dup1\n      0x00\n      mstore\n      keccak256(0x00, 0x40)\n      0x00\n      swap2\n      pop\n      swap1\n      pop\n      sload\n      dup2\n      jump\t// out\n        /* \"contracts/CarreraCoches/cocheToken.sol\":684:931  function transferFrom(address _from, address _to, uint256 _tokenId) external override payable {\r... */\n    tag_48:\n        /* \"contracts/CarreraCoches/cocheToken.sol\":826:836  msg.sender */\n      caller\n        /* \"contracts/CarreraCoches/cocheToken.sol\":794:836  cocheDePropietario[_tokenId] == msg.sender */\n      0xffffffffffffffffffffffffffffffffffffffff\n      and\n        /* \"contracts/CarreraCoches/cocheToken.sol\":794:812  cocheDePropietario */\n      0x07\n        /* \"contracts/CarreraCoches/cocheToken.sol\":794:822  cocheDePropietario[_tokenId] */\n      0x00\n        /* \"contracts/CarreraCoches/cocheToken.sol\":813:821  _tokenId */\n      dup4\n        /* \"contracts/CarreraCoches/cocheToken.sol\":794:822  cocheDePropietario[_tokenId] */\n      dup2\n      mstore\n      0x20\n      add\n      swap1\n      dup2\n      mstore\n      0x20\n      add\n      0x00\n      keccak256\n      0x00\n      swap1\n      sload\n      swap1\n      0x0100\n      exp\n      swap1\n      div\n      0xffffffffffffffffffffffffffffffffffffffff\n      and\n        /* \"contracts/CarreraCoches/cocheToken.sol\":794:836  cocheDePropietario[_tokenId] == msg.sender */\n      0xffffffffffffffffffffffffffffffffffffffff\n      and\n      eq\n        /* \"contracts/CarreraCoches/cocheToken.sol\":794:886  cocheDePropietario[_tokenId] == msg.sender || confirmarTransferencia[_tokenId] == msg.sender */\n      dup1\n      tag_159\n      jumpi\n      pop\n        /* \"contracts/CarreraCoches/cocheToken.sol\":876:886  msg.sender */\n      caller\n        /* \"contracts/CarreraCoches/cocheToken.sol\":840:886  confirmarTransferencia[_tokenId] == msg.sender */\n      0xffffffffffffffffffffffffffffffffffffffff\n      and\n        /* \"contracts/CarreraCoches/cocheToken.sol\":840:862  confirmarTransferencia */\n      0x09\n        /* \"contracts/CarreraCoches/cocheToken.sol\":840:872  confirmarTransferencia[_tokenId] */\n      0x00\n        /* \"contracts/CarreraCoches/cocheToken.sol\":863:871  _tokenId */\n      dup4\n        /* \"contracts/CarreraCoches/cocheToken.sol\":840:872  confirmarTransferencia[_tokenId] */\n      dup2\n      mstore\n      0x20\n      add\n      swap1\n      dup2\n      mstore\n      0x20\n      add\n      0x00\n      keccak256\n      0x00\n      swap1\n      sload\n      swap1\n      0x0100\n      exp\n      swap1\n      div\n      0xffffffffffffffffffffffffffffffffffffffff\n      and\n        /* \"contracts/CarreraCoches/cocheToken.sol\":840:886  confirmarTransferencia[_tokenId] == msg.sender */\n      0xffffffffffffffffffffffffffffffffffffffff\n      and\n      eq\n        /* \"contracts/CarreraCoches/cocheToken.sol\":794:886  cocheDePropietario[_tokenId] == msg.sender || confirmarTransferencia[_tokenId] == msg.sender */\n    tag_159:\n        /* \"contracts/CarreraCoches/cocheToken.sol\":785:887  require (cocheDePropietario[_tokenId] == msg.sender || confirmarTransferencia[_tokenId] == msg.sender) */\n      tag_160\n      jumpi\n      0x00\n      dup1\n      revert\n    tag_160:\n        /* \"contracts/CarreraCoches/cocheToken.sol\":894:925  _transfer(_from, _to, _tokenId) */\n      tag_161\n        /* \"contracts/CarreraCoches/cocheToken.sol\":904:909  _from */\n      dup4\n        /* \"contracts/CarreraCoches/cocheToken.sol\":911:914  _to */\n      dup4\n        /* \"contracts/CarreraCoches/cocheToken.sol\":916:924  _tokenId */\n      dup4\n        /* \"contracts/CarreraCoches/cocheToken.sol\":894:903  _transfer */\n      tag_162\n        /* \"contracts/CarreraCoches/cocheToken.sol\":894:925  _transfer(_from, _to, _tokenId) */\n      jump\t// in\n    tag_161:\n        /* \"contracts/CarreraCoches/cocheToken.sol\":684:931  function transferFrom(address _from, address _to, uint256 _tokenId) external override payable {\r... */\n      pop\n      pop\n      pop\n      jump\t// out\n        /* \"contracts/CarreraCoches/principal.sol\":1701:2141  function anadirCoche(string memory _modelo, string memory _marca, string memory _nombrePiloto) public restriccion returns (uint) {\r... */\n    tag_53:\n        /* \"contracts/CarreraCoches/principal.sol\":1824:1828  uint */\n      0x00\n        /* \"contracts/CarreraCoches/principal.sol\":1261:1262  1 */\n      0x01\n        /* \"contracts/CarreraCoches/principal.sol\":1227:1246  numeroCochesPersona */\n      0x08\n        /* \"contracts/CarreraCoches/principal.sol\":1227:1258  numeroCochesPersona[msg.sender] */\n      0x00\n        /* \"contracts/CarreraCoches/principal.sol\":1247:1257  msg.sender */\n      caller\n        /* \"contracts/CarreraCoches/principal.sol\":1227:1258  numeroCochesPersona[msg.sender] */\n      0xffffffffffffffffffffffffffffffffffffffff\n      and\n      0xffffffffffffffffffffffffffffffffffffffff\n      and\n      dup2\n      mstore\n      0x20\n      add\n      swap1\n      dup2\n      mstore\n      0x20\n      add\n      0x00\n      keccak256\n      sload\n        /* \"contracts/CarreraCoches/principal.sol\":1227:1262  numeroCochesPersona[msg.sender] < 1 */\n      lt\n        /* \"contracts/CarreraCoches/principal.sol\":1219:1307  require(numeroCochesPersona[msg.sender] < 1, \"Solo se puede tener un coche por persona\") */\n      tag_164\n      jumpi\n      mload(0x40)\n      0x08c379a000000000000000000000000000000000000000000000000000000000\n      dup2\n      mstore\n      0x04\n      add\n      tag_165\n      swap1\n      tag_166\n      jump\t// in\n    tag_165:\n      mload(0x40)\n      dup1\n      swap2\n      sub\n      swap1\n      revert\n    tag_164:\n        /* \"contracts/CarreraCoches/principal.sol\":1841:1852  listaCoches */\n      0x06\n        /* \"contracts/CarreraCoches/principal.sol\":1858:1952  Coche(msg.sender, _modelo, _marca, _nombrePiloto, 0, 0, uint32(block.timestamp + cooldown), 1) */\n      mload(0x40)\n      dup1\n      0x0100\n      add\n      0x40\n      mstore\n      dup1\n        /* \"contracts/CarreraCoches/principal.sol\":1864:1874  msg.sender */\n      caller\n        /* \"contracts/CarreraCoches/principal.sol\":1858:1952  Coche(msg.sender, _modelo, _marca, _nombrePiloto, 0, 0, uint32(block.timestamp + cooldown), 1) */\n      0xffffffffffffffffffffffffffffffffffffffff\n      and\n      dup2\n      mstore\n      0x20\n      add\n        /* \"contracts/CarreraCoches/principal.sol\":1876:1883  _modelo */\n      dup7\n        /* \"contracts/CarreraCoches/principal.sol\":1858:1952  Coche(msg.sender, _modelo, _marca, _nombrePiloto, 0, 0, uint32(block.timestamp + cooldown), 1) */\n      dup2\n      mstore\n      0x20\n      add\n        /* \"contracts/CarreraCoches/principal.sol\":1885:1891  _marca */\n      dup6\n        /* \"contracts/CarreraCoches/principal.sol\":1858:1952  Coche(msg.sender, _modelo, _marca, _nombrePiloto, 0, 0, uint32(block.timestamp + cooldown), 1) */\n      dup2\n      mstore\n      0x20\n      add\n        /* \"contracts/CarreraCoches/principal.sol\":1893:1906  _nombrePiloto */\n      dup5\n        /* \"contracts/CarreraCoches/principal.sol\":1858:1952  Coche(msg.sender, _modelo, _marca, _nombrePiloto, 0, 0, uint32(block.timestamp + cooldown), 1) */\n      dup2\n      mstore\n      0x20\n      add\n        /* \"contracts/CarreraCoches/principal.sol\":1908:1909  0 */\n      0x00\n        /* \"contracts/CarreraCoches/principal.sol\":1858:1952  Coche(msg.sender, _modelo, _marca, _nombrePiloto, 0, 0, uint32(block.timestamp + cooldown), 1) */\n      dup2\n      mstore\n      0x20\n      add\n        /* \"contracts/CarreraCoches/principal.sol\":1911:1912  0 */\n      0x00\n        /* \"contracts/CarreraCoches/principal.sol\":1858:1952  Coche(msg.sender, _modelo, _marca, _nombrePiloto, 0, 0, uint32(block.timestamp + cooldown), 1) */\n      dup2\n      mstore\n      0x20\n      add\n        /* \"contracts/CarreraCoches/principal.sol\":1939:1947  cooldown */\n      sload(0x03)\n        /* \"contracts/CarreraCoches/principal.sol\":1921:1936  block.timestamp */\n      timestamp\n        /* \"contracts/CarreraCoches/principal.sol\":1921:1947  block.timestamp + cooldown */\n      tag_168\n      swap2\n      swap1\n      tag_169\n      jump\t// in\n    tag_168:\n        /* \"contracts/CarreraCoches/principal.sol\":1858:1952  Coche(msg.sender, _modelo, _marca, _nombrePiloto, 0, 0, uint32(block.timestamp + cooldown), 1) */\n      0xffffffff\n      and\n      dup2\n      mstore\n      0x20\n      add\n        /* \"contracts/CarreraCoches/principal.sol\":1950:1951  1 */\n      0x01\n        /* \"contracts/CarreraCoches/principal.sol\":1858:1952  Coche(msg.sender, _modelo, _marca, _nombrePiloto, 0, 0, uint32(block.timestamp + cooldown), 1) */\n      0xffffffff\n      and\n      dup2\n      mstore\n      pop\n        /* \"contracts/CarreraCoches/principal.sol\":1841:1953  listaCoches.push(Coche(msg.sender, _modelo, _marca, _nombrePiloto, 0, 0, uint32(block.timestamp + cooldown), 1)) */\n      swap1\n      dup1\n      0x01\n      dup2\n      sload\n      add\n      dup1\n      dup3\n      sstore\n      dup1\n      swap2\n      pop\n      pop\n      0x01\n      swap1\n      sub\n      swap1\n      0x00\n      mstore\n      keccak256(0x00, 0x20)\n      swap1\n      0x08\n      mul\n      add\n      0x00\n      swap1\n      swap2\n      swap1\n      swap2\n      swap1\n      swap2\n      pop\n      0x00\n      dup3\n      add\n      mload\n      dup2\n      0x00\n      add\n      exp(0x0100, 0x00)\n      dup2\n      sload\n      dup2\n      0xffffffffffffffffffffffffffffffffffffffff\n      mul\n      not\n      and\n      swap1\n      dup4\n      0xffffffffffffffffffffffffffffffffffffffff\n      and\n      mul\n      or\n      swap1\n      sstore\n      pop\n      0x20\n      dup3\n      add\n      mload\n      dup2\n      0x01\n      add\n      swap1\n      dup1\n      mload\n      swap1\n      0x20\n      add\n      swap1\n      tag_171\n      swap3\n      swap2\n      swap1\n      tag_131\n      jump\t// in\n    tag_171:\n      pop\n      0x40\n      dup3\n      add\n      mload\n      dup2\n      0x02\n      add\n      swap1\n      dup1\n      mload\n      swap1\n      0x20\n      add\n      swap1\n      tag_172\n      swap3\n      swap2\n      swap1\n      tag_131\n      jump\t// in\n    tag_172:\n      pop\n      0x60\n      dup3\n      add\n      mload\n      dup2\n      0x03\n      add\n      swap1\n      dup1\n      mload\n      swap1\n      0x20\n      add\n      swap1\n      tag_173\n      swap3\n      swap2\n      swap1\n      tag_131\n      jump\t// in\n    tag_173:\n      pop\n      0x80\n      dup3\n      add\n      mload\n      dup2\n      0x04\n      add\n      sstore\n      0xa0\n      dup3\n      add\n      mload\n      dup2\n      0x05\n      add\n      sstore\n      0xc0\n      dup3\n      add\n      mload\n      dup2\n      0x06\n      add\n      sstore\n      0xe0\n      dup3\n      add\n      mload\n      dup2\n      0x07\n      add\n      exp(0x0100, 0x00)\n      dup2\n      sload\n      dup2\n      0xffffffff\n      mul\n      not\n      and\n      swap1\n      dup4\n      0xffffffff\n      and\n      mul\n      or\n      swap1\n      sstore\n      pop\n      pop\n      pop\n        /* \"contracts/CarreraCoches/principal.sol\":1964:1971  uint id */\n      0x00\n        /* \"contracts/CarreraCoches/principal.sol\":1974:1985  listaCoches */\n      0x06\n        /* \"contracts/CarreraCoches/principal.sol\":1974:1992  listaCoches.length */\n      dup1\n      sload\n      swap1\n      pop\n        /* \"contracts/CarreraCoches/principal.sol\":1964:1992  uint id = listaCoches.length */\n      swap1\n      pop\n        /* \"contracts/CarreraCoches/principal.sol\":2028:2038  msg.sender */\n      caller\n        /* \"contracts/CarreraCoches/principal.sol\":2003:2021  cocheDePropietario */\n      0x07\n        /* \"contracts/CarreraCoches/principal.sol\":2003:2025  cocheDePropietario[id] */\n      0x00\n        /* \"contracts/CarreraCoches/principal.sol\":2022:2024  id */\n      dup4\n        /* \"contracts/CarreraCoches/principal.sol\":2003:2025  cocheDePropietario[id] */\n      dup2\n      mstore\n      0x20\n      add\n      swap1\n      dup2\n      mstore\n      0x20\n      add\n      0x00\n      keccak256\n      0x00\n        /* \"contracts/CarreraCoches/principal.sol\":2003:2038  cocheDePropietario[id] = msg.sender */\n      0x0100\n      exp\n      dup2\n      sload\n      dup2\n      0xffffffffffffffffffffffffffffffffffffffff\n      mul\n      not\n      and\n      swap1\n      dup4\n      0xffffffffffffffffffffffffffffffffffffffff\n      and\n      mul\n      or\n      swap1\n      sstore\n      pop\n        /* \"contracts/CarreraCoches/principal.sol\":2049:2068  numeroCochesPersona */\n      0x08\n        /* \"contracts/CarreraCoches/principal.sol\":2049:2080  numeroCochesPersona[msg.sender] */\n      0x00\n        /* \"contracts/CarreraCoches/principal.sol\":2069:2079  msg.sender */\n      caller\n        /* \"contracts/CarreraCoches/principal.sol\":2049:2080  numeroCochesPersona[msg.sender] */\n      0xffffffffffffffffffffffffffffffffffffffff\n      and\n      0xffffffffffffffffffffffffffffffffffffffff\n      and\n      dup2\n      mstore\n      0x20\n      add\n      swap1\n      dup2\n      mstore\n      0x20\n      add\n      0x00\n      keccak256\n      0x00\n        /* \"contracts/CarreraCoches/principal.sol\":2049:2082  numeroCochesPersona[msg.sender]++ */\n      dup2\n      sload\n      dup1\n      swap3\n      swap2\n      swap1\n      tag_174\n      swap1\n      tag_137\n      jump\t// in\n    tag_174:\n      swap2\n      swap1\n      pop\n      sstore\n      pop\n        /* \"contracts/CarreraCoches/principal.sol\":2093:2101  contador */\n      0x02\n      0x00\n        /* \"contracts/CarreraCoches/principal.sol\":2093:2103  contador++ */\n      dup2\n      sload\n      dup1\n      swap3\n      swap2\n      swap1\n      tag_175\n      swap1\n      tag_137\n      jump\t// in\n    tag_175:\n      swap2\n      swap1\n      pop\n      sstore\n      pop\n        /* \"contracts/CarreraCoches/principal.sol\":2132:2133  1 */\n      0x01\n        /* \"contracts/CarreraCoches/principal.sol\":2121:2129  contador */\n      sload(0x02)\n        /* \"contracts/CarreraCoches/principal.sol\":2121:2133  contador - 1 */\n      tag_176\n      swap2\n      swap1\n      tag_177\n      jump\t// in\n    tag_176:\n        /* \"contracts/CarreraCoches/principal.sol\":2114:2133  return contador - 1 */\n      swap2\n      pop\n      pop\n        /* \"contracts/CarreraCoches/principal.sol\":1701:2141  function anadirCoche(string memory _modelo, string memory _marca, string memory _nombrePiloto) public restriccion returns (uint) {\r... */\n      swap4\n      swap3\n      pop\n      pop\n      pop\n      jump\t// out\n        /* \"contracts/CarreraCoches/cocheToken.sol\":318:442  function ownerOf(uint256 _tokenId) external override view returns (address) {\r... */\n    tag_59:\n        /* \"contracts/CarreraCoches/cocheToken.sol\":385:392  address */\n      0x00\n        /* \"contracts/CarreraCoches/cocheToken.sol\":408:426  cocheDePropietario */\n      0x07\n        /* \"contracts/CarreraCoches/cocheToken.sol\":408:436  cocheDePropietario[_tokenId] */\n      0x00\n        /* \"contracts/CarreraCoches/cocheToken.sol\":427:435  _tokenId */\n      dup4\n        /* \"contracts/CarreraCoches/cocheToken.sol\":408:436  cocheDePropietario[_tokenId] */\n      dup2\n      mstore\n      0x20\n      add\n      swap1\n      dup2\n      mstore\n      0x20\n      add\n      0x00\n      keccak256\n      0x00\n      swap1\n      sload\n      swap1\n      0x0100\n      exp\n      swap1\n      div\n      0xffffffffffffffffffffffffffffffffffffffff\n      and\n        /* \"contracts/CarreraCoches/cocheToken.sol\":401:436  return cocheDePropietario[_tokenId] */\n      swap1\n      pop\n        /* \"contracts/CarreraCoches/cocheToken.sol\":318:442  function ownerOf(uint256 _tokenId) external override view returns (address) {\r... */\n      swap2\n      swap1\n      pop\n      jump\t// out\n        /* \"contracts/CarreraCoches/principal.sol\":2510:2869  function subirDeNivel(address _propietario) external payable returns(string memory) {\r... */\n    tag_64:\n        /* \"contracts/CarreraCoches/principal.sol\":2579:2592  string memory */\n      0x60\n        /* \"contracts/CarreraCoches/principal.sol\":2624:2634  subirNivel */\n      sload(0x04)\n        /* \"contracts/CarreraCoches/principal.sol\":2613:2622  msg.value */\n      callvalue\n        /* \"contracts/CarreraCoches/principal.sol\":2613:2634  msg.value==subirNivel */\n      eq\n        /* \"contracts/CarreraCoches/principal.sol\":2605:2635  require(msg.value==subirNivel) */\n      tag_180\n      jumpi\n      0x00\n      dup1\n      revert\n    tag_180:\n        /* \"contracts/CarreraCoches/principal.sol\":2650:2656  uint i */\n      0x00\n        /* \"contracts/CarreraCoches/principal.sol\":2646:2862  for(uint i = 0; i < listaCoches.length; i++){\r... */\n    tag_181:\n        /* \"contracts/CarreraCoches/principal.sol\":2666:2677  listaCoches */\n      0x06\n        /* \"contracts/CarreraCoches/principal.sol\":2666:2684  listaCoches.length */\n      dup1\n      sload\n      swap1\n      pop\n        /* \"contracts/CarreraCoches/principal.sol\":2662:2663  i */\n      dup2\n        /* \"contracts/CarreraCoches/principal.sol\":2662:2684  i < listaCoches.length */\n      lt\n        /* \"contracts/CarreraCoches/principal.sol\":2646:2862  for(uint i = 0; i < listaCoches.length; i++){\r... */\n      iszero\n      tag_182\n      jumpi\n        /* \"contracts/CarreraCoches/principal.sol\":2735:2747  _propietario */\n      dup3\n        /* \"contracts/CarreraCoches/principal.sol\":2708:2747  listaCoches[i].idPiloto == _propietario */\n      0xffffffffffffffffffffffffffffffffffffffff\n      and\n        /* \"contracts/CarreraCoches/principal.sol\":2708:2719  listaCoches */\n      0x06\n        /* \"contracts/CarreraCoches/principal.sol\":2720:2721  i */\n      dup3\n        /* \"contracts/CarreraCoches/principal.sol\":2708:2722  listaCoches[i] */\n      dup2\n      sload\n      dup2\n      lt\n      tag_184\n      jumpi\n      tag_185\n      tag_124\n      jump\t// in\n    tag_185:\n    tag_184:\n      swap1\n      0x00\n      mstore\n      keccak256(0x00, 0x20)\n      swap1\n      0x08\n      mul\n      add\n        /* \"contracts/CarreraCoches/principal.sol\":2708:2731  listaCoches[i].idPiloto */\n      0x00\n      add\n      0x00\n      swap1\n      sload\n      swap1\n      0x0100\n      exp\n      swap1\n      div\n      0xffffffffffffffffffffffffffffffffffffffff\n      and\n        /* \"contracts/CarreraCoches/principal.sol\":2708:2747  listaCoches[i].idPiloto == _propietario */\n      0xffffffffffffffffffffffffffffffffffffffff\n      and\n      eq\n        /* \"contracts/CarreraCoches/principal.sol\":2705:2851  if(listaCoches[i].idPiloto == _propietario){\r... */\n      iszero\n      tag_187\n      jumpi\n        /* \"contracts/CarreraCoches/principal.sol\":2767:2778  listaCoches */\n      0x06\n        /* \"contracts/CarreraCoches/principal.sol\":2779:2780  i */\n      dup2\n        /* \"contracts/CarreraCoches/principal.sol\":2767:2781  listaCoches[i] */\n      dup2\n      sload\n      dup2\n      lt\n      tag_188\n      jumpi\n      tag_189\n      tag_124\n      jump\t// in\n    tag_189:\n    tag_188:\n      swap1\n      0x00\n      mstore\n      keccak256(0x00, 0x20)\n      swap1\n      0x08\n      mul\n      add\n        /* \"contracts/CarreraCoches/principal.sol\":2767:2787  listaCoches[i].nivel */\n      0x07\n      add\n      0x00\n        /* \"contracts/CarreraCoches/principal.sol\":2767:2789  listaCoches[i].nivel++ */\n      dup2\n      dup2\n      swap1\n      sload\n      swap1\n      0x0100\n      exp\n      swap1\n      div\n      0xffffffff\n      and\n      dup1\n      swap3\n      swap2\n      swap1\n      tag_191\n      swap1\n      tag_192\n      jump\t// in\n    tag_191:\n      swap2\n      swap1\n      0x0100\n      exp\n      dup2\n      sload\n      dup2\n      0xffffffff\n      mul\n      not\n      and\n      swap1\n      dup4\n      0xffffffff\n      and\n      mul\n      or\n      swap1\n      sstore\n      pop\n      pop\n        /* \"contracts/CarreraCoches/principal.sol\":2808:2835  return \"Ha subido de nivel\" */\n      mload(0x40)\n      dup1\n      0x40\n      add\n      0x40\n      mstore\n      dup1\n      0x12\n      dup2\n      mstore\n      0x20\n      add\n      0x48612073756269646f206465206e6976656c0000000000000000000000000000\n      dup2\n      mstore\n      pop\n      swap2\n      pop\n      pop\n      jump(tag_179)\n        /* \"contracts/CarreraCoches/principal.sol\":2705:2851  if(listaCoches[i].idPiloto == _propietario){\r... */\n    tag_187:\n        /* \"contracts/CarreraCoches/principal.sol\":2686:2689  i++ */\n      dup1\n      dup1\n      tag_193\n      swap1\n      tag_137\n      jump\t// in\n    tag_193:\n      swap2\n      pop\n      pop\n        /* \"contracts/CarreraCoches/principal.sol\":2646:2862  for(uint i = 0; i < listaCoches.length; i++){\r... */\n      jump(tag_181)\n    tag_182:\n      pop\n        /* \"contracts/CarreraCoches/principal.sol\":2510:2869  function subirDeNivel(address _propietario) external payable returns(string memory) {\r... */\n    tag_179:\n      swap2\n      swap1\n      pop\n      jump\t// out\n        /* \"contracts/CarreraCoches/principal.sol\":3892:7238  function Apostar(uint dineroApostar) public payable returns(string memory) {\r... */\n    tag_68:\n        /* \"contracts/CarreraCoches/principal.sol\":3952:3965  string memory */\n      0x60\n        /* \"contracts/CarreraCoches/principal.sol\":4011:4012  1 */\n      0x01\n        /* \"contracts/CarreraCoches/principal.sol\":3989:4000  listaCoches */\n      0x06\n        /* \"contracts/CarreraCoches/principal.sol\":3989:4007  listaCoches.length */\n      dup1\n      sload\n      swap1\n      pop\n        /* \"contracts/CarreraCoches/principal.sol\":3989:4012  listaCoches.length <= 1 */\n      gt\n        /* \"contracts/CarreraCoches/principal.sol\":3986:7232  if(listaCoches.length <= 1){\r... */\n      tag_195\n      jumpi\n        /* \"contracts/CarreraCoches/principal.sol\":4032:4111  confirmacionDepositoLleno(\"No hay coches suficientes para iniciar una carrera\") */\n      0x6158fc8f21c8cc73ddf920956cc75d0e8a48b4fc85817a0ba89eb3b6d2a75441\n      mload(0x40)\n      tag_196\n      swap1\n      tag_197\n      jump\t// in\n    tag_196:\n      mload(0x40)\n      dup1\n      swap2\n      sub\n      swap1\n      log1\n        /* \"contracts/CarreraCoches/principal.sol\":3986:7232  if(listaCoches.length <= 1){\r... */\n      jump(tag_198)\n    tag_195:\n        /* \"contracts/CarreraCoches/principal.sol\":4162:4175  dineroApostar */\n      dup2\n        /* \"contracts/CarreraCoches/principal.sol\":4149:4158  msg.value */\n      callvalue\n        /* \"contracts/CarreraCoches/principal.sol\":4149:4175  msg.value == dineroApostar */\n      eq\n        /* \"contracts/CarreraCoches/principal.sol\":4141:4176  require(msg.value == dineroApostar) */\n      tag_199\n      jumpi\n      0x00\n      dup1\n      revert\n    tag_199:\n        /* \"contracts/CarreraCoches/principal.sol\":4191:4200  randNonce */\n      0x01\n      0x00\n        /* \"contracts/CarreraCoches/principal.sol\":4191:4202  randNonce++ */\n      dup2\n      sload\n      dup1\n      swap3\n      swap2\n      swap1\n      tag_200\n      swap1\n      tag_137\n      jump\t// in\n    tag_200:\n      swap2\n      swap1\n      pop\n      sstore\n      pop\n        /* \"contracts/CarreraCoches/principal.sol\":4257:4270  uint256 rival */\n      0x00\n        /* \"contracts/CarreraCoches/principal.sol\":4360:4371  listaCoches */\n      0x06\n        /* \"contracts/CarreraCoches/principal.sol\":4360:4378  listaCoches.length */\n      dup1\n      sload\n      swap1\n      pop\n        /* \"contracts/CarreraCoches/principal.sol\":4308:4323  block.timestamp */\n      timestamp\n        /* \"contracts/CarreraCoches/principal.sol\":4325:4336  listaCoches */\n      0x06\n        /* \"contracts/CarreraCoches/principal.sol\":4325:4343  listaCoches.length */\n      dup1\n      sload\n      swap1\n      pop\n        /* \"contracts/CarreraCoches/principal.sol\":4345:4354  randNonce */\n      sload(0x01)\n        /* \"contracts/CarreraCoches/principal.sol\":4291:4355  abi.encodePacked(block.timestamp, listaCoches.length, randNonce) */\n      add(0x20, mload(0x40))\n      tag_201\n      swap4\n      swap3\n      swap2\n      swap1\n      tag_202\n      jump\t// in\n    tag_201:\n      mload(0x40)\n      0x20\n      dup2\n      dup4\n      sub\n      sub\n      dup2\n      mstore\n      swap1\n      0x40\n      mstore\n        /* \"contracts/CarreraCoches/principal.sol\":4281:4356  keccak256(abi.encodePacked(block.timestamp, listaCoches.length, randNonce)) */\n      dup1\n      mload\n      swap1\n      0x20\n      add\n      keccak256\n        /* \"contracts/CarreraCoches/principal.sol\":4273:4357  uint256(keccak256(abi.encodePacked(block.timestamp, listaCoches.length, randNonce))) */\n      0x00\n      shr\n        /* \"contracts/CarreraCoches/principal.sol\":4273:4378  uint256(keccak256(abi.encodePacked(block.timestamp, listaCoches.length, randNonce))) % listaCoches.length */\n      tag_203\n      swap2\n      swap1\n      tag_204\n      jump\t// in\n    tag_203:\n        /* \"contracts/CarreraCoches/principal.sol\":4257:4378  uint256 rival = uint256(keccak256(abi.encodePacked(block.timestamp, listaCoches.length, randNonce))) % listaCoches.length */\n      swap1\n      pop\n        /* \"contracts/CarreraCoches/principal.sol\":4393:4413  address addressRival */\n      0x00\n        /* \"contracts/CarreraCoches/principal.sol\":4416:4434  cocheDePropietario */\n      0x07\n        /* \"contracts/CarreraCoches/principal.sol\":4416:4441  cocheDePropietario[rival] */\n      0x00\n        /* \"contracts/CarreraCoches/principal.sol\":4435:4440  rival */\n      dup4\n        /* \"contracts/CarreraCoches/principal.sol\":4416:4441  cocheDePropietario[rival] */\n      dup2\n      mstore\n      0x20\n      add\n      swap1\n      dup2\n      mstore\n      0x20\n      add\n      0x00\n      keccak256\n      0x00\n      swap1\n      sload\n      swap1\n      0x0100\n      exp\n      swap1\n      div\n      0xffffffffffffffffffffffffffffffffffffffff\n      and\n        /* \"contracts/CarreraCoches/principal.sol\":4393:4441  address addressRival = cocheDePropietario[rival] */\n      swap1\n      pop\n        /* \"contracts/CarreraCoches/principal.sol\":4492:4501  randNonce */\n      0x01\n      0x00\n        /* \"contracts/CarreraCoches/principal.sol\":4492:4503  randNonce++ */\n      dup2\n      sload\n      dup1\n      swap3\n      swap2\n      swap1\n      tag_205\n      swap1\n      tag_137\n      jump\t// in\n    tag_205:\n      swap2\n      swap1\n      pop\n      sstore\n      pop\n        /* \"contracts/CarreraCoches/principal.sol\":4518:4529  uint numero */\n      0x00\n        /* \"contracts/CarreraCoches/principal.sol\":4532:4535  100 */\n      0x64\n        /* \"contracts/CarreraCoches/principal.sol\":4518:4535  uint numero = 100 */\n      swap1\n      pop\n        /* \"contracts/CarreraCoches/principal.sol\":4550:4565  uint256 ganador */\n      0x00\n        /* \"contracts/CarreraCoches/principal.sol\":4643:4649  numero */\n      dup2\n        /* \"contracts/CarreraCoches/principal.sol\":4603:4618  block.timestamp */\n      timestamp\n        /* \"contracts/CarreraCoches/principal.sol\":4620:4626  numero */\n      dup4\n        /* \"contracts/CarreraCoches/principal.sol\":4628:4637  randNonce */\n      sload(0x01)\n        /* \"contracts/CarreraCoches/principal.sol\":4586:4638  abi.encodePacked(block.timestamp, numero, randNonce) */\n      add(0x20, mload(0x40))\n      tag_206\n      swap4\n      swap3\n      swap2\n      swap1\n      tag_202\n      jump\t// in\n    tag_206:\n      mload(0x40)\n      0x20\n      dup2\n      dup4\n      sub\n      sub\n      dup2\n      mstore\n      swap1\n      0x40\n      mstore\n        /* \"contracts/CarreraCoches/principal.sol\":4576:4639  keccak256(abi.encodePacked(block.timestamp, numero, randNonce)) */\n      dup1\n      mload\n      swap1\n      0x20\n      add\n      keccak256\n        /* \"contracts/CarreraCoches/principal.sol\":4568:4640  uint256(keccak256(abi.encodePacked(block.timestamp, numero, randNonce))) */\n      0x00\n      shr\n        /* \"contracts/CarreraCoches/principal.sol\":4568:4649  uint256(keccak256(abi.encodePacked(block.timestamp, numero, randNonce))) % numero */\n      tag_207\n      swap2\n      swap1\n      tag_204\n      jump\t// in\n    tag_207:\n        /* \"contracts/CarreraCoches/principal.sol\":4550:4649  uint256 ganador = uint256(keccak256(abi.encodePacked(block.timestamp, numero, randNonce))) % numero */\n      swap1\n      pop\n        /* \"contracts/CarreraCoches/principal.sol\":4670:4676  uint i */\n      0x00\n        /* \"contracts/CarreraCoches/principal.sol\":4666:7221  for(uint i = 0; i < listaCoches.length; i++){\r... */\n    tag_208:\n        /* \"contracts/CarreraCoches/principal.sol\":4686:4697  listaCoches */\n      0x06\n        /* \"contracts/CarreraCoches/principal.sol\":4686:4704  listaCoches.length */\n      dup1\n      sload\n      swap1\n      pop\n        /* \"contracts/CarreraCoches/principal.sol\":4682:4683  i */\n      dup2\n        /* \"contracts/CarreraCoches/principal.sol\":4682:4704  i < listaCoches.length */\n      lt\n        /* \"contracts/CarreraCoches/principal.sol\":4666:7221  for(uint i = 0; i < listaCoches.length; i++){\r... */\n      iszero\n      tag_209\n      jumpi\n        /* \"contracts/CarreraCoches/principal.sol\":4783:4794  listaCoches */\n      0x06\n        /* \"contracts/CarreraCoches/principal.sol\":4795:4796  i */\n      dup2\n        /* \"contracts/CarreraCoches/principal.sol\":4783:4797  listaCoches[i] */\n      dup2\n      sload\n      dup2\n      lt\n      tag_211\n      jumpi\n      tag_212\n      tag_124\n      jump\t// in\n    tag_212:\n    tag_211:\n      swap1\n      0x00\n      mstore\n      keccak256(0x00, 0x20)\n      swap1\n      0x08\n      mul\n      add\n        /* \"contracts/CarreraCoches/principal.sol\":4783:4806  listaCoches[i].idPiloto */\n      0x00\n      add\n      0x00\n      swap1\n      sload\n      swap1\n      0x0100\n      exp\n      swap1\n      div\n      0xffffffffffffffffffffffffffffffffffffffff\n      and\n        /* \"contracts/CarreraCoches/principal.sol\":4769:4806  msg.sender == listaCoches[i].idPiloto */\n      0xffffffffffffffffffffffffffffffffffffffff\n      and\n        /* \"contracts/CarreraCoches/principal.sol\":4769:4779  msg.sender */\n      caller\n        /* \"contracts/CarreraCoches/principal.sol\":4769:4806  msg.sender == listaCoches[i].idPiloto */\n      0xffffffffffffffffffffffffffffffffffffffff\n      and\n      eq\n        /* \"contracts/CarreraCoches/principal.sol\":4765:7188  if (msg.sender == listaCoches[i].idPiloto) {\r... */\n      iszero\n      tag_214\n      jumpi\n        /* \"contracts/CarreraCoches/principal.sol\":4839:4869  _depositoLleno(listaCoches[i]) */\n      tag_215\n        /* \"contracts/CarreraCoches/principal.sol\":4854:4865  listaCoches */\n      0x06\n        /* \"contracts/CarreraCoches/principal.sol\":4866:4867  i */\n      dup3\n        /* \"contracts/CarreraCoches/principal.sol\":4854:4868  listaCoches[i] */\n      dup2\n      sload\n      dup2\n      lt\n      tag_216\n      jumpi\n      tag_217\n      tag_124\n      jump\t// in\n    tag_217:\n    tag_216:\n      swap1\n      0x00\n      mstore\n      keccak256(0x00, 0x20)\n      swap1\n      0x08\n      mul\n      add\n        /* \"contracts/CarreraCoches/principal.sol\":4839:4853  _depositoLleno */\n      tag_219\n        /* \"contracts/CarreraCoches/principal.sol\":4839:4869  _depositoLleno(listaCoches[i]) */\n      jump\t// in\n    tag_215:\n        /* \"contracts/CarreraCoches/principal.sol\":4831:4870  require(_depositoLleno(listaCoches[i])) */\n      tag_220\n      jumpi\n      0x00\n      dup1\n      revert\n    tag_220:\n        /* \"contracts/CarreraCoches/principal.sol\":4893:4904  listaCoches */\n      0x06\n        /* \"contracts/CarreraCoches/principal.sol\":4905:4906  i */\n      dup2\n        /* \"contracts/CarreraCoches/principal.sol\":4893:4907  listaCoches[i] */\n      dup2\n      sload\n      dup2\n      lt\n      tag_221\n      jumpi\n      tag_222\n      tag_124\n      jump\t// in\n    tag_222:\n    tag_221:\n      swap1\n      0x00\n      mstore\n      keccak256(0x00, 0x20)\n      swap1\n      0x08\n      mul\n      add\n        /* \"contracts/CarreraCoches/principal.sol\":4893:4923  listaCoches[i].carrerasTotales */\n      0x05\n      add\n      0x00\n        /* \"contracts/CarreraCoches/principal.sol\":4893:4925  listaCoches[i].carrerasTotales++ */\n      dup2\n      sload\n      dup1\n      swap3\n      swap2\n      swap1\n      tag_224\n      swap1\n      tag_137\n      jump\t// in\n    tag_224:\n      swap2\n      swap1\n      pop\n      sstore\n      pop\n        /* \"contracts/CarreraCoches/principal.sol\":4948:4959  listaCoches */\n      0x06\n        /* \"contracts/CarreraCoches/principal.sol\":4960:4965  rival */\n      dup6\n        /* \"contracts/CarreraCoches/principal.sol\":4948:4966  listaCoches[rival] */\n      dup2\n      sload\n      dup2\n      lt\n      tag_225\n      jumpi\n      tag_226\n      tag_124\n      jump\t// in\n    tag_226:\n    tag_225:\n      swap1\n      0x00\n      mstore\n      keccak256(0x00, 0x20)\n      swap1\n      0x08\n      mul\n      add\n        /* \"contracts/CarreraCoches/principal.sol\":4948:4982  listaCoches[rival].carrerasTotales */\n      0x05\n      add\n      0x00\n        /* \"contracts/CarreraCoches/principal.sol\":4948:4984  listaCoches[rival].carrerasTotales++ */\n      dup2\n      sload\n      dup1\n      swap3\n      swap2\n      swap1\n      tag_228\n      swap1\n      tag_137\n      jump\t// in\n    tag_228:\n      swap2\n      swap1\n      pop\n      sstore\n      pop\n        /* \"contracts/CarreraCoches/principal.sol\":5007:5034  _repostando(listaCoches[i]) */\n      tag_229\n        /* \"contracts/CarreraCoches/principal.sol\":5019:5030  listaCoches */\n      0x06\n        /* \"contracts/CarreraCoches/principal.sol\":5031:5032  i */\n      dup3\n        /* \"contracts/CarreraCoches/principal.sol\":5019:5033  listaCoches[i] */\n      dup2\n      sload\n      dup2\n      lt\n      tag_230\n      jumpi\n      tag_231\n      tag_124\n      jump\t// in\n    tag_231:\n    tag_230:\n      swap1\n      0x00\n      mstore\n      keccak256(0x00, 0x20)\n      swap1\n      0x08\n      mul\n      add\n        /* \"contracts/CarreraCoches/principal.sol\":5007:5018  _repostando */\n      tag_233\n        /* \"contracts/CarreraCoches/principal.sol\":5007:5034  _repostando(listaCoches[i]) */\n      jump\t// in\n    tag_229:\n        /* \"contracts/CarreraCoches/principal.sol\":5087:5098  listaCoches */\n      0x06\n        /* \"contracts/CarreraCoches/principal.sol\":5099:5100  i */\n      dup2\n        /* \"contracts/CarreraCoches/principal.sol\":5087:5101  listaCoches[i] */\n      dup2\n      sload\n      dup2\n      lt\n      tag_234\n      jumpi\n      tag_235\n      tag_124\n      jump\t// in\n    tag_235:\n    tag_234:\n      swap1\n      0x00\n      mstore\n      keccak256(0x00, 0x20)\n      swap1\n      0x08\n      mul\n      add\n        /* \"contracts/CarreraCoches/principal.sol\":5087:5107  listaCoches[i].nivel */\n      0x07\n      add\n      0x00\n      swap1\n      sload\n      swap1\n      0x0100\n      exp\n      swap1\n      div\n      0xffffffff\n      and\n        /* \"contracts/CarreraCoches/principal.sol\":5060:5107  listaCoches[rival].nivel < listaCoches[i].nivel */\n      0xffffffff\n      and\n        /* \"contracts/CarreraCoches/principal.sol\":5060:5071  listaCoches */\n      0x06\n        /* \"contracts/CarreraCoches/principal.sol\":5072:5077  rival */\n      dup7\n        /* \"contracts/CarreraCoches/principal.sol\":5060:5078  listaCoches[rival] */\n      dup2\n      sload\n      dup2\n      lt\n      tag_237\n      jumpi\n      tag_238\n      tag_124\n      jump\t// in\n    tag_238:\n    tag_237:\n      swap1\n      0x00\n      mstore\n      keccak256(0x00, 0x20)\n      swap1\n      0x08\n      mul\n      add\n        /* \"contracts/CarreraCoches/principal.sol\":5060:5084  listaCoches[rival].nivel */\n      0x07\n      add\n      0x00\n      swap1\n      sload\n      swap1\n      0x0100\n      exp\n      swap1\n      div\n      0xffffffff\n      and\n        /* \"contracts/CarreraCoches/principal.sol\":5060:5107  listaCoches[rival].nivel < listaCoches[i].nivel */\n      0xffffffff\n      and\n      lt\n        /* \"contracts/CarreraCoches/principal.sol\":5057:7165  if(listaCoches[rival].nivel < listaCoches[i].nivel){\r... */\n      iszero\n      tag_240\n      jumpi\n        /* \"contracts/CarreraCoches/principal.sol\":5147:5149  60 */\n      0x3c\n        /* \"contracts/CarreraCoches/principal.sol\":5138:5145  ganador */\n      dup3\n        /* \"contracts/CarreraCoches/principal.sol\":5138:5149  ganador<=60 */\n      gt\n        /* \"contracts/CarreraCoches/principal.sol\":5135:5708  if(ganador<=60){\r... */\n      tag_241\n      jumpi\n        /* \"contracts/CarreraCoches/principal.sol\":5181:5190  balance() */\n      tag_242\n        /* \"contracts/CarreraCoches/principal.sol\":5181:5188  balance */\n      tag_243\n        /* \"contracts/CarreraCoches/principal.sol\":5181:5190  balance() */\n      jump\t// in\n    tag_242:\n        /* \"contracts/CarreraCoches/principal.sol\":5221:5232  listaCoches */\n      0x06\n        /* \"contracts/CarreraCoches/principal.sol\":5233:5234  i */\n      dup2\n        /* \"contracts/CarreraCoches/principal.sol\":5221:5235  listaCoches[i] */\n      dup2\n      sload\n      dup2\n      lt\n      tag_244\n      jumpi\n      tag_245\n      tag_124\n      jump\t// in\n    tag_245:\n    tag_244:\n      swap1\n      0x00\n      mstore\n      keccak256(0x00, 0x20)\n      swap1\n      0x08\n      mul\n      add\n        /* \"contracts/CarreraCoches/principal.sol\":5221:5251  listaCoches[i].carrerasGanadas */\n      0x04\n      add\n      0x00\n        /* \"contracts/CarreraCoches/principal.sol\":5221:5253  listaCoches[i].carrerasGanadas++ */\n      dup2\n      sload\n      dup1\n      swap3\n      swap2\n      swap1\n      tag_247\n      swap1\n      tag_137\n      jump\t// in\n    tag_247:\n      swap2\n      swap1\n      pop\n      sstore\n      pop\n        /* \"contracts/CarreraCoches/principal.sol\":5284:5295  listaCoches */\n      0x06\n        /* \"contracts/CarreraCoches/principal.sol\":5296:5297  i */\n      dup2\n        /* \"contracts/CarreraCoches/principal.sol\":5284:5298  listaCoches[i] */\n      dup2\n      sload\n      dup2\n      lt\n      tag_248\n      jumpi\n      tag_249\n      tag_124\n      jump\t// in\n    tag_249:\n    tag_248:\n      swap1\n      0x00\n      mstore\n      keccak256(0x00, 0x20)\n      swap1\n      0x08\n      mul\n      add\n        /* \"contracts/CarreraCoches/principal.sol\":5284:5304  listaCoches[i].nivel */\n      0x07\n      add\n      0x00\n        /* \"contracts/CarreraCoches/principal.sol\":5284:5306  listaCoches[i].nivel++ */\n      dup2\n      dup2\n      swap1\n      sload\n      swap1\n      0x0100\n      exp\n      swap1\n      div\n      0xffffffff\n      and\n      dup1\n      swap3\n      swap2\n      swap1\n      tag_251\n      swap1\n      tag_192\n      jump\t// in\n    tag_251:\n      swap2\n      swap1\n      0x0100\n      exp\n      dup2\n      sload\n      dup2\n      0xffffffff\n      mul\n      not\n      and\n      swap1\n      dup4\n      0xffffffff\n      and\n      mul\n      or\n      swap1\n      sstore\n      pop\n      pop\n        /* \"contracts/CarreraCoches/principal.sol\":5337:5356  return \"Has ganado\" */\n      mload(0x40)\n      dup1\n      0x40\n      add\n      0x40\n      mstore\n      dup1\n      0x0a\n      dup2\n      mstore\n      0x20\n      add\n      0x4861732067616e61646f00000000000000000000000000000000000000000000\n      dup2\n      mstore\n      pop\n      swap6\n      pop\n      pop\n      pop\n      pop\n      pop\n      pop\n      jump(tag_194)\n        /* \"contracts/CarreraCoches/principal.sol\":5135:5708  if(ganador<=60){\r... */\n    tag_241:\n        /* \"contracts/CarreraCoches/principal.sol\":5510:5560  confirmacionDepositoLleno(\"El coche ganador es: \") */\n      0x6158fc8f21c8cc73ddf920956cc75d0e8a48b4fc85817a0ba89eb3b6d2a75441\n      mload(0x40)\n      tag_253\n      swap1\n      tag_254\n      jump\t// in\n    tag_253:\n      mload(0x40)\n      dup1\n      swap2\n      sub\n      swap1\n      log1\n        /* \"contracts/CarreraCoches/principal.sol\":5591:5595  this */\n      address\n        /* \"contracts/CarreraCoches/principal.sol\":5591:5615  this.verCochePropietario */\n      0xffffffffffffffffffffffffffffffffffffffff\n      and\n      0xe172fca8\n        /* \"contracts/CarreraCoches/principal.sol\":5616:5628  addressRival */\n      dup6\n        /* \"contracts/CarreraCoches/principal.sol\":5591:5629  this.verCochePropietario(addressRival) */\n      mload(0x40)\n      dup3\n      0xffffffff\n      and\n      0xe0\n      shl\n      dup2\n      mstore\n      0x04\n      add\n      tag_255\n      swap2\n      swap1\n      tag_61\n      jump\t// in\n    tag_255:\n      0x00\n      mload(0x40)\n      dup1\n      dup4\n      sub\n      dup2\n      0x00\n      dup8\n      dup1\n      extcodesize\n      iszero\n      dup1\n      iszero\n      tag_256\n      jumpi\n      0x00\n      dup1\n      revert\n    tag_256:\n      pop\n      gas\n      call\n      iszero\n      dup1\n      iszero\n      tag_258\n      jumpi\n      returndatasize\n      0x00\n      dup1\n      returndatacopy\n      revert(0x00, returndatasize)\n    tag_258:\n      pop\n      pop\n      pop\n      pop\n        /* \"contracts/CarreraCoches/principal.sol\":5660:5680  return \"Has perdido\" */\n      mload(0x40)\n      dup1\n      0x40\n      add\n      0x40\n      mstore\n      dup1\n      0x0b\n      dup2\n      mstore\n      0x20\n      add\n      0x486173207065726469646f000000000000000000000000000000000000000000\n      dup2\n      mstore\n      pop\n      swap6\n      pop\n      pop\n      pop\n      pop\n      pop\n      pop\n      jump(tag_194)\n        /* \"contracts/CarreraCoches/principal.sol\":5057:7165  if(listaCoches[rival].nivel < listaCoches[i].nivel){\r... */\n    tag_240:\n        /* \"contracts/CarreraCoches/principal.sol\":5771:5782  listaCoches */\n      0x06\n        /* \"contracts/CarreraCoches/principal.sol\":5783:5784  i */\n      dup2\n        /* \"contracts/CarreraCoches/principal.sol\":5771:5785  listaCoches[i] */\n      dup2\n      sload\n      dup2\n      lt\n      tag_260\n      jumpi\n      tag_261\n      tag_124\n      jump\t// in\n    tag_261:\n    tag_260:\n      swap1\n      0x00\n      mstore\n      keccak256(0x00, 0x20)\n      swap1\n      0x08\n      mul\n      add\n        /* \"contracts/CarreraCoches/principal.sol\":5771:5791  listaCoches[i].nivel */\n      0x07\n      add\n      0x00\n      swap1\n      sload\n      swap1\n      0x0100\n      exp\n      swap1\n      div\n      0xffffffff\n      and\n        /* \"contracts/CarreraCoches/principal.sol\":5743:5791  listaCoches[rival].nivel == listaCoches[i].nivel */\n      0xffffffff\n      and\n        /* \"contracts/CarreraCoches/principal.sol\":5743:5754  listaCoches */\n      0x06\n        /* \"contracts/CarreraCoches/principal.sol\":5755:5760  rival */\n      dup7\n        /* \"contracts/CarreraCoches/principal.sol\":5743:5761  listaCoches[rival] */\n      dup2\n      sload\n      dup2\n      lt\n      tag_263\n      jumpi\n      tag_264\n      tag_124\n      jump\t// in\n    tag_264:\n    tag_263:\n      swap1\n      0x00\n      mstore\n      keccak256(0x00, 0x20)\n      swap1\n      0x08\n      mul\n      add\n        /* \"contracts/CarreraCoches/principal.sol\":5743:5767  listaCoches[rival].nivel */\n      0x07\n      add\n      0x00\n      swap1\n      sload\n      swap1\n      0x0100\n      exp\n      swap1\n      div\n      0xffffffff\n      and\n        /* \"contracts/CarreraCoches/principal.sol\":5743:5791  listaCoches[rival].nivel == listaCoches[i].nivel */\n      0xffffffff\n      and\n      eq\n        /* \"contracts/CarreraCoches/principal.sol\":5740:7165  if(listaCoches[rival].nivel == listaCoches[i].nivel){\r... */\n      iszero\n      tag_266\n      jumpi\n        /* \"contracts/CarreraCoches/principal.sol\":5831:5833  50 */\n      0x32\n        /* \"contracts/CarreraCoches/principal.sol\":5822:5829  ganador */\n      dup3\n        /* \"contracts/CarreraCoches/principal.sol\":5822:5833  ganador<=50 */\n      gt\n        /* \"contracts/CarreraCoches/principal.sol\":5819:6394  if(ganador<=50){\r... */\n      tag_267\n      jumpi\n        /* \"contracts/CarreraCoches/principal.sol\":5865:5874  balance() */\n      tag_268\n        /* \"contracts/CarreraCoches/principal.sol\":5865:5872  balance */\n      tag_243\n        /* \"contracts/CarreraCoches/principal.sol\":5865:5874  balance() */\n      jump\t// in\n    tag_268:\n        /* \"contracts/CarreraCoches/principal.sol\":5905:5916  listaCoches */\n      0x06\n        /* \"contracts/CarreraCoches/principal.sol\":5917:5918  i */\n      dup2\n        /* \"contracts/CarreraCoches/principal.sol\":5905:5919  listaCoches[i] */\n      dup2\n      sload\n      dup2\n      lt\n      tag_269\n      jumpi\n      tag_270\n      tag_124\n      jump\t// in\n    tag_270:\n    tag_269:\n      swap1\n      0x00\n      mstore\n      keccak256(0x00, 0x20)\n      swap1\n      0x08\n      mul\n      add\n        /* \"contracts/CarreraCoches/principal.sol\":5905:5935  listaCoches[i].carrerasGanadas */\n      0x04\n      add\n      0x00\n        /* \"contracts/CarreraCoches/principal.sol\":5905:5937  listaCoches[i].carrerasGanadas++ */\n      dup2\n      sload\n      dup1\n      swap3\n      swap2\n      swap1\n      tag_272\n      swap1\n      tag_137\n      jump\t// in\n    tag_272:\n      swap2\n      swap1\n      pop\n      sstore\n      pop\n        /* \"contracts/CarreraCoches/principal.sol\":5968:5979  listaCoches */\n      0x06\n        /* \"contracts/CarreraCoches/principal.sol\":5980:5981  i */\n      dup2\n        /* \"contracts/CarreraCoches/principal.sol\":5968:5982  listaCoches[i] */\n      dup2\n      sload\n      dup2\n      lt\n      tag_273\n      jumpi\n      tag_274\n      tag_124\n      jump\t// in\n    tag_274:\n    tag_273:\n      swap1\n      0x00\n      mstore\n      keccak256(0x00, 0x20)\n      swap1\n      0x08\n      mul\n      add\n        /* \"contracts/CarreraCoches/principal.sol\":5968:5988  listaCoches[i].nivel */\n      0x07\n      add\n      0x00\n        /* \"contracts/CarreraCoches/principal.sol\":5968:5990  listaCoches[i].nivel++ */\n      dup2\n      dup2\n      swap1\n      sload\n      swap1\n      0x0100\n      exp\n      swap1\n      div\n      0xffffffff\n      and\n      dup1\n      swap3\n      swap2\n      swap1\n      tag_276\n      swap1\n      tag_192\n      jump\t// in\n    tag_276:\n      swap2\n      swap1\n      0x0100\n      exp\n      dup2\n      sload\n      dup2\n      0xffffffff\n      mul\n      not\n      and\n      swap1\n      dup4\n      0xffffffff\n      and\n      mul\n      or\n      swap1\n      sstore\n      pop\n      pop\n        /* \"contracts/CarreraCoches/principal.sol\":6021:6040  return \"Has ganado\" */\n      mload(0x40)\n      dup1\n      0x40\n      add\n      0x40\n      mstore\n      dup1\n      0x0a\n      dup2\n      mstore\n      0x20\n      add\n      0x4861732067616e61646f00000000000000000000000000000000000000000000\n      dup2\n      mstore\n      pop\n      swap6\n      pop\n      pop\n      pop\n      pop\n      pop\n      pop\n      jump(tag_194)\n        /* \"contracts/CarreraCoches/principal.sol\":5819:6394  if(ganador<=50){\r... */\n    tag_267:\n        /* \"contracts/CarreraCoches/principal.sol\":6196:6246  confirmacionDepositoLleno(\"El coche ganador es: \") */\n      0x6158fc8f21c8cc73ddf920956cc75d0e8a48b4fc85817a0ba89eb3b6d2a75441\n      mload(0x40)\n      tag_278\n      swap1\n      tag_254\n      jump\t// in\n    tag_278:\n      mload(0x40)\n      dup1\n      swap2\n      sub\n      swap1\n      log1\n        /* \"contracts/CarreraCoches/principal.sol\":6277:6281  this */\n      address\n        /* \"contracts/CarreraCoches/principal.sol\":6277:6301  this.verCochePropietario */\n      0xffffffffffffffffffffffffffffffffffffffff\n      and\n      0xe172fca8\n        /* \"contracts/CarreraCoches/principal.sol\":6302:6314  addressRival */\n      dup6\n        /* \"contracts/CarreraCoches/principal.sol\":6277:6315  this.verCochePropietario(addressRival) */\n      mload(0x40)\n      dup3\n      0xffffffff\n      and\n      0xe0\n      shl\n      dup2\n      mstore\n      0x04\n      add\n      tag_279\n      swap2\n      swap1\n      tag_61\n      jump\t// in\n    tag_279:\n      0x00\n      mload(0x40)\n      dup1\n      dup4\n      sub\n      dup2\n      0x00\n      dup8\n      dup1\n      extcodesize\n      iszero\n      dup1\n      iszero\n      tag_280\n      jumpi\n      0x00\n      dup1\n      revert\n    tag_280:\n      pop\n      gas\n      call\n      iszero\n      dup1\n      iszero\n      tag_282\n      jumpi\n      returndatasize\n      0x00\n      dup1\n      returndatacopy\n      revert(0x00, returndatasize)\n    tag_282:\n      pop\n      pop\n      pop\n      pop\n        /* \"contracts/CarreraCoches/principal.sol\":6346:6366  return \"Has perdido\" */\n      mload(0x40)\n      dup1\n      0x40\n      add\n      0x40\n      mstore\n      dup1\n      0x0b\n      dup2\n      mstore\n      0x20\n      add\n      0x486173207065726469646f000000000000000000000000000000000000000000\n      dup2\n      mstore\n      pop\n      swap6\n      pop\n      pop\n      pop\n      pop\n      pop\n      pop\n      jump(tag_194)\n        /* \"contracts/CarreraCoches/principal.sol\":5740:7165  if(listaCoches[rival].nivel == listaCoches[i].nivel){\r... */\n    tag_266:\n        /* \"contracts/CarreraCoches/principal.sol\":6461:6463  40 */\n      0x28\n        /* \"contracts/CarreraCoches/principal.sol\":6452:6459  ganador */\n      dup3\n        /* \"contracts/CarreraCoches/principal.sol\":6452:6463  ganador<=40 */\n      gt\n        /* \"contracts/CarreraCoches/principal.sol\":6449:7141  if(ganador<=40){\r... */\n      tag_284\n      jumpi\n        /* \"contracts/CarreraCoches/principal.sol\":6495:6504  balance() */\n      tag_285\n        /* \"contracts/CarreraCoches/principal.sol\":6495:6502  balance */\n      tag_243\n        /* \"contracts/CarreraCoches/principal.sol\":6495:6504  balance() */\n      jump\t// in\n    tag_285:\n        /* \"contracts/CarreraCoches/principal.sol\":6535:6546  listaCoches */\n      0x06\n        /* \"contracts/CarreraCoches/principal.sol\":6547:6548  i */\n      dup2\n        /* \"contracts/CarreraCoches/principal.sol\":6535:6549  listaCoches[i] */\n      dup2\n      sload\n      dup2\n      lt\n      tag_286\n      jumpi\n      tag_287\n      tag_124\n      jump\t// in\n    tag_287:\n    tag_286:\n      swap1\n      0x00\n      mstore\n      keccak256(0x00, 0x20)\n      swap1\n      0x08\n      mul\n      add\n        /* \"contracts/CarreraCoches/principal.sol\":6535:6565  listaCoches[i].carrerasGanadas */\n      0x04\n      add\n      0x00\n        /* \"contracts/CarreraCoches/principal.sol\":6535:6567  listaCoches[i].carrerasGanadas++ */\n      dup2\n      sload\n      dup1\n      swap3\n      swap2\n      swap1\n      tag_289\n      swap1\n      tag_137\n      jump\t// in\n    tag_289:\n      swap2\n      swap1\n      pop\n      sstore\n      pop\n        /* \"contracts/CarreraCoches/principal.sol\":6598:6609  listaCoches */\n      0x06\n        /* \"contracts/CarreraCoches/principal.sol\":6610:6611  i */\n      dup2\n        /* \"contracts/CarreraCoches/principal.sol\":6598:6612  listaCoches[i] */\n      dup2\n      sload\n      dup2\n      lt\n      tag_290\n      jumpi\n      tag_291\n      tag_124\n      jump\t// in\n    tag_291:\n    tag_290:\n      swap1\n      0x00\n      mstore\n      keccak256(0x00, 0x20)\n      swap1\n      0x08\n      mul\n      add\n        /* \"contracts/CarreraCoches/principal.sol\":6598:6618  listaCoches[i].nivel */\n      0x07\n      add\n      0x00\n        /* \"contracts/CarreraCoches/principal.sol\":6598:6620  listaCoches[i].nivel++ */\n      dup2\n      dup2\n      swap1\n      sload\n      swap1\n      0x0100\n      exp\n      swap1\n      div\n      0xffffffff\n      and\n      dup1\n      swap3\n      swap2\n      swap1\n      tag_293\n      swap1\n      tag_192\n      jump\t// in\n    tag_293:\n      swap2\n      swap1\n      0x0100\n      exp\n      dup2\n      sload\n      dup2\n      0xffffffff\n      mul\n      not\n      and\n      swap1\n      dup4\n      0xffffffff\n      and\n      mul\n      or\n      swap1\n      sstore\n      pop\n      pop\n        /* \"contracts/CarreraCoches/principal.sol\":6651:6670  return \"Has ganado\" */\n      mload(0x40)\n      dup1\n      0x40\n      add\n      0x40\n      mstore\n      dup1\n      0x0a\n      dup2\n      mstore\n      0x20\n      add\n      0x4861732067616e61646f00000000000000000000000000000000000000000000\n      dup2\n      mstore\n      pop\n      swap6\n      pop\n      pop\n      pop\n      pop\n      pop\n      pop\n      jump(tag_194)\n        /* \"contracts/CarreraCoches/principal.sol\":6449:7141  if(ganador<=40){\r... */\n    tag_284:\n        /* \"contracts/CarreraCoches/principal.sol\":6738:6788  confirmacionDepositoLleno(\"El coche ganador es: \") */\n      0x6158fc8f21c8cc73ddf920956cc75d0e8a48b4fc85817a0ba89eb3b6d2a75441\n      mload(0x40)\n      tag_295\n      swap1\n      tag_254\n      jump\t// in\n    tag_295:\n      mload(0x40)\n      dup1\n      swap2\n      sub\n      swap1\n      log1\n        /* \"contracts/CarreraCoches/principal.sol\":6819:6823  this */\n      address\n        /* \"contracts/CarreraCoches/principal.sol\":6819:6843  this.verCochePropietario */\n      0xffffffffffffffffffffffffffffffffffffffff\n      and\n      0xe172fca8\n        /* \"contracts/CarreraCoches/principal.sol\":6844:6856  addressRival */\n      dup6\n        /* \"contracts/CarreraCoches/principal.sol\":6819:6857  this.verCochePropietario(addressRival) */\n      mload(0x40)\n      dup3\n      0xffffffff\n      and\n      0xe0\n      shl\n      dup2\n      mstore\n      0x04\n      add\n      tag_296\n      swap2\n      swap1\n      tag_61\n      jump\t// in\n    tag_296:\n      0x00\n      mload(0x40)\n      dup1\n      dup4\n      sub\n      dup2\n      0x00\n      dup8\n      dup1\n      extcodesize\n      iszero\n      dup1\n      iszero\n      tag_297\n      jumpi\n      0x00\n      dup1\n      revert\n    tag_297:\n      pop\n      gas\n      call\n      iszero\n      dup1\n      iszero\n      tag_299\n      jumpi\n      returndatasize\n      0x00\n      dup1\n      returndatacopy\n      revert(0x00, returndatasize)\n    tag_299:\n      pop\n      pop\n      pop\n      pop\n        /* \"contracts/CarreraCoches/principal.sol\":7093:7113  return \"Has perdido\" */\n      mload(0x40)\n      dup1\n      0x40\n      add\n      0x40\n      mstore\n      dup1\n      0x0b\n      dup2\n      mstore\n      0x20\n      add\n      0x486173207065726469646f000000000000000000000000000000000000000000\n      dup2\n      mstore\n      pop\n      swap6\n      pop\n      pop\n      pop\n      pop\n      pop\n      pop\n      jump(tag_194)\n        /* \"contracts/CarreraCoches/principal.sol\":4765:7188  if (msg.sender == listaCoches[i].idPiloto) {\r... */\n    tag_214:\n        /* \"contracts/CarreraCoches/principal.sol\":4706:4709  i++ */\n      dup1\n      dup1\n      tag_300\n      swap1\n      tag_137\n      jump\t// in\n    tag_300:\n      swap2\n      pop\n      pop\n        /* \"contracts/CarreraCoches/principal.sol\":4666:7221  for(uint i = 0; i < listaCoches.length; i++){\r... */\n      jump(tag_208)\n    tag_209:\n      pop\n        /* \"contracts/CarreraCoches/principal.sol\":4126:7232  {\r... */\n      pop\n      pop\n      pop\n      pop\n        /* \"contracts/CarreraCoches/principal.sol\":3986:7232  if(listaCoches.length <= 1){\r... */\n    tag_198:\n        /* \"contracts/CarreraCoches/principal.sol\":3892:7238  function Apostar(uint dineroApostar) public payable returns(string memory) {\r... */\n    tag_194:\n      swap2\n      swap1\n      pop\n      jump\t// out\n        /* \"contracts/CarreraCoches/cocheToken.sol\":189:312  function balanceOf(address _owner) external override view returns (uint256) {\r... */\n    tag_73:\n        /* \"contracts/CarreraCoches/cocheToken.sol\":256:263  uint256 */\n      0x00\n        /* \"contracts/CarreraCoches/cocheToken.sol\":279:298  numeroCochesPersona */\n      0x08\n        /* \"contracts/CarreraCoches/cocheToken.sol\":279:306  numeroCochesPersona[_owner] */\n      0x00\n        /* \"contracts/CarreraCoches/cocheToken.sol\":299:305  _owner */\n      dup4\n        /* \"contracts/CarreraCoches/cocheToken.sol\":279:306  numeroCochesPersona[_owner] */\n      0xffffffffffffffffffffffffffffffffffffffff\n      and\n      0xffffffffffffffffffffffffffffffffffffffff\n      and\n      dup2\n      mstore\n      0x20\n      add\n      swap1\n      dup2\n      mstore\n      0x20\n      add\n      0x00\n      keccak256\n      sload\n        /* \"contracts/CarreraCoches/cocheToken.sol\":272:306  return numeroCochesPersona[_owner] */\n      swap1\n      pop\n        /* \"contracts/CarreraCoches/cocheToken.sol\":189:312  function balanceOf(address _owner) external override view returns (uint256) {\r... */\n      swap2\n      swap1\n      pop\n      jump\t// out\n        /* \"contracts/CarreraCoches/ownable.sol\":1719:1822  function renounceOwnership() public virtual onlyOwner {\r... */\n    tag_77:\n        /* \"contracts/CarreraCoches/ownable.sol\":1299:1311  _msgSender() */\n      tag_303\n        /* \"contracts/CarreraCoches/ownable.sol\":1299:1309  _msgSender */\n      tag_304\n        /* \"contracts/CarreraCoches/ownable.sol\":1299:1311  _msgSender() */\n      jump\t// in\n    tag_303:\n        /* \"contracts/CarreraCoches/ownable.sol\":1288:1311  owner() == _msgSender() */\n      0xffffffffffffffffffffffffffffffffffffffff\n      and\n        /* \"contracts/CarreraCoches/ownable.sol\":1288:1295  owner() */\n      tag_305\n        /* \"contracts/CarreraCoches/ownable.sol\":1288:1293  owner */\n      tag_85\n        /* \"contracts/CarreraCoches/ownable.sol\":1288:1295  owner() */\n      jump\t// in\n    tag_305:\n        /* \"contracts/CarreraCoches/ownable.sol\":1288:1311  owner() == _msgSender() */\n      0xffffffffffffffffffffffffffffffffffffffff\n      and\n      eq\n        /* \"contracts/CarreraCoches/ownable.sol\":1280:1348  require(owner() == _msgSender(), \"Ownable: caller is not the owner\") */\n      tag_306\n      jumpi\n      mload(0x40)\n      0x08c379a000000000000000000000000000000000000000000000000000000000\n      dup2\n      mstore\n      0x04\n      add\n      tag_307\n      swap1\n      tag_308\n      jump\t// in\n    tag_307:\n      mload(0x40)\n      dup1\n      swap2\n      sub\n      swap1\n      revert\n    tag_306:\n        /* \"contracts/CarreraCoches/ownable.sol\":1784:1814  _transferOwnership(address(0)) */\n      tag_310\n        /* \"contracts/CarreraCoches/ownable.sol\":1811:1812  0 */\n      0x00\n        /* \"contracts/CarreraCoches/ownable.sol\":1784:1802  _transferOwnership */\n      tag_311\n        /* \"contracts/CarreraCoches/ownable.sol\":1784:1814  _transferOwnership(address(0)) */\n      jump\t// in\n    tag_310:\n        /* \"contracts/CarreraCoches/ownable.sol\":1719:1822  function renounceOwnership() public virtual onlyOwner {\r... */\n      jump\t// out\n        /* \"contracts/CarreraCoches/principal.sol\":1019:1070  mapping (uint => address) public cocheDePropietario */\n    tag_81:\n      mstore(0x20, 0x07)\n      dup1\n      0x00\n      mstore\n      keccak256(0x00, 0x40)\n      0x00\n      swap2\n      pop\n      sload\n      swap1\n      0x0100\n      exp\n      swap1\n      div\n      0xffffffffffffffffffffffffffffffffffffffff\n      and\n      dup2\n      jump\t// out\n        /* \"contracts/CarreraCoches/ownable.sol\":1068:1155  function owner() public view virtual returns (address) {\r... */\n    tag_85:\n        /* \"contracts/CarreraCoches/ownable.sol\":1114:1121  address */\n      0x00\n        /* \"contracts/CarreraCoches/ownable.sol\":1141:1147  _owner */\n      dup1\n      0x00\n      swap1\n      sload\n      swap1\n      0x0100\n      exp\n      swap1\n      div\n      0xffffffffffffffffffffffffffffffffffffffff\n      and\n        /* \"contracts/CarreraCoches/ownable.sol\":1134:1147  return _owner */\n      swap1\n      pop\n        /* \"contracts/CarreraCoches/ownable.sol\":1068:1155  function owner() public view virtual returns (address) {\r... */\n      swap1\n      jump\t// out\n        /* \"contracts/CarreraCoches/ownable.sol\":701:722  address public _owner */\n    tag_89:\n      0x00\n      dup1\n      sload\n      swap1\n      0x0100\n      exp\n      swap1\n      div\n      0xffffffffffffffffffffffffffffffffffffffff\n      and\n      dup2\n      jump\t// out\n        /* \"contracts/CarreraCoches/principal.sol\":752:778  Coche[] public listaCoches */\n    tag_94:\n      0x06\n      dup2\n      dup2\n      sload\n      dup2\n      lt\n      tag_313\n      jumpi\n      0x00\n      dup1\n      revert\n    tag_313:\n      swap1\n      0x00\n      mstore\n      keccak256(0x00, 0x20)\n      swap1\n      0x08\n      mul\n      add\n      0x00\n      swap2\n      pop\n      swap1\n      pop\n      dup1\n      0x00\n      add\n      0x00\n      swap1\n      sload\n      swap1\n      0x0100\n      exp\n      swap1\n      div\n      0xffffffffffffffffffffffffffffffffffffffff\n      and\n      swap1\n      dup1\n      0x01\n      add\n      dup1\n      sload\n      tag_315\n      swap1\n      tag_316\n      jump\t// in\n    tag_315:\n      dup1\n      0x1f\n      add\n      0x20\n      dup1\n      swap2\n      div\n      mul\n      0x20\n      add\n      mload(0x40)\n      swap1\n      dup2\n      add\n      0x40\n      mstore\n      dup1\n      swap3\n      swap2\n      swap1\n      dup2\n      dup2\n      mstore\n      0x20\n      add\n      dup3\n      dup1\n      sload\n      tag_317\n      swap1\n      tag_316\n      jump\t// in\n    tag_317:\n      dup1\n      iszero\n      tag_318\n      jumpi\n      dup1\n      0x1f\n      lt\n      tag_319\n      jumpi\n      0x0100\n      dup1\n      dup4\n      sload\n      div\n      mul\n      dup4\n      mstore\n      swap2\n      0x20\n      add\n      swap2\n      jump(tag_318)\n    tag_319:\n      dup3\n      add\n      swap2\n      swap1\n      0x00\n      mstore\n      keccak256(0x00, 0x20)\n      swap1\n    tag_320:\n      dup2\n      sload\n      dup2\n      mstore\n      swap1\n      0x01\n      add\n      swap1\n      0x20\n      add\n      dup1\n      dup4\n      gt\n      tag_320\n      jumpi\n      dup3\n      swap1\n      sub\n      0x1f\n      and\n      dup3\n      add\n      swap2\n    tag_318:\n      pop\n      pop\n      pop\n      pop\n      pop\n      swap1\n      dup1\n      0x02\n      add\n      dup1\n      sload\n      tag_321\n      swap1\n      tag_316\n      jump\t// in\n    tag_321:\n      dup1\n      0x1f\n      add\n      0x20\n      dup1\n      swap2\n      div\n      mul\n      0x20\n      add\n      mload(0x40)\n      swap1\n      dup2\n      add\n      0x40\n      mstore\n      dup1\n      swap3\n      swap2\n      swap1\n      dup2\n      dup2\n      mstore\n      0x20\n      add\n      dup3\n      dup1\n      sload\n      tag_322\n      swap1\n      tag_316\n      jump\t// in\n    tag_322:\n      dup1\n      iszero\n      tag_323\n      jumpi\n      dup1\n      0x1f\n      lt\n      tag_324\n      jumpi\n      0x0100\n      dup1\n      dup4\n      sload\n      div\n      mul\n      dup4\n      mstore\n      swap2\n      0x20\n      add\n      swap2\n      jump(tag_323)\n    tag_324:\n      dup3\n      add\n      swap2\n      swap1\n      0x00\n      mstore\n      keccak256(0x00, 0x20)\n      swap1\n    tag_325:\n      dup2\n      sload\n      dup2\n      mstore\n      swap1\n      0x01\n      add\n      swap1\n      0x20\n      add\n      dup1\n      dup4\n      gt\n      tag_325\n      jumpi\n      dup3\n      swap1\n      sub\n      0x1f\n      and\n      dup3\n      add\n      swap2\n    tag_323:\n      pop\n      pop\n      pop\n      pop\n      pop\n      swap1\n      dup1\n      0x03\n      add\n      dup1\n      sload\n      tag_326\n      swap1\n      tag_316\n      jump\t// in\n    tag_326:\n      dup1\n      0x1f\n      add\n      0x20\n      dup1\n      swap2\n      div\n      mul\n      0x20\n      add\n      mload(0x40)\n      swap1\n      dup2\n      add\n      0x40\n      mstore\n      dup1\n      swap3\n      swap2\n      swap1\n      dup2\n      dup2\n      mstore\n      0x20\n      add\n      dup3\n      dup1\n      sload\n      tag_327\n      swap1\n      tag_316\n      jump\t// in\n    tag_327:\n      dup1\n      iszero\n      tag_328\n      jumpi\n      dup1\n      0x1f\n      lt\n      tag_329\n      jumpi\n      0x0100\n      dup1\n      dup4\n      sload\n      div\n      mul\n      dup4\n      mstore\n      swap2\n      0x20\n      add\n      swap2\n      jump(tag_328)\n    tag_329:\n      dup3\n      add\n      swap2\n      swap1\n      0x00\n      mstore\n      keccak256(0x00, 0x20)\n      swap1\n    tag_330:\n      dup2\n      sload\n      dup2\n      mstore\n      swap1\n      0x01\n      add\n      swap1\n      0x20\n      add\n      dup1\n      dup4\n      gt\n      tag_330\n      jumpi\n      dup3\n      swap1\n      sub\n      0x1f\n      and\n      dup3\n      add\n      swap2\n    tag_328:\n      pop\n      pop\n      pop\n      pop\n      pop\n      swap1\n      dup1\n      0x04\n      add\n      sload\n      swap1\n      dup1\n      0x05\n      add\n      sload\n      swap1\n      dup1\n      0x06\n      add\n      sload\n      swap1\n      dup1\n      0x07\n      add\n      0x00\n      swap1\n      sload\n      swap1\n      0x0100\n      exp\n      swap1\n      div\n      0xffffffff\n      and\n      swap1\n      pop\n      dup9\n      jump\t// out\n        /* \"contracts/CarreraCoches/cocheToken.sol\":2150:2675  function transferirCoche(string memory _modelo, string memory _marca, string memory _nombrePiloto, uint _carrerasGanadas, uint _carrerasTotales, uint32 _tiempoEspera, uint _nivel) public restriccion returns (uint) {\r... */\n    tag_101:\n        /* \"contracts/CarreraCoches/cocheToken.sol\":2358:2362  uint */\n      0x00\n        /* \"contracts/CarreraCoches/principal.sol\":1261:1262  1 */\n      0x01\n        /* \"contracts/CarreraCoches/principal.sol\":1227:1246  numeroCochesPersona */\n      0x08\n        /* \"contracts/CarreraCoches/principal.sol\":1227:1258  numeroCochesPersona[msg.sender] */\n      0x00\n        /* \"contracts/CarreraCoches/principal.sol\":1247:1257  msg.sender */\n      caller\n        /* \"contracts/CarreraCoches/principal.sol\":1227:1258  numeroCochesPersona[msg.sender] */\n      0xffffffffffffffffffffffffffffffffffffffff\n      and\n      0xffffffffffffffffffffffffffffffffffffffff\n      and\n      dup2\n      mstore\n      0x20\n      add\n      swap1\n      dup2\n      mstore\n      0x20\n      add\n      0x00\n      keccak256\n      sload\n        /* \"contracts/CarreraCoches/principal.sol\":1227:1262  numeroCochesPersona[msg.sender] < 1 */\n      lt\n        /* \"contracts/CarreraCoches/principal.sol\":1219:1307  require(numeroCochesPersona[msg.sender] < 1, \"Solo se puede tener un coche por persona\") */\n      tag_332\n      jumpi\n      mload(0x40)\n      0x08c379a000000000000000000000000000000000000000000000000000000000\n      dup2\n      mstore\n      0x04\n      add\n      tag_333\n      swap1\n      tag_166\n      jump\t// in\n    tag_333:\n      mload(0x40)\n      dup1\n      swap2\n      sub\n      swap1\n      revert\n    tag_332:\n        /* \"contracts/CarreraCoches/cocheToken.sol\":2375:2386  listaCoches */\n      0x06\n        /* \"contracts/CarreraCoches/cocheToken.sol\":2392:2486  Coche(msg.sender, _modelo, _marca, _nombrePiloto, 0, 0, uint32(block.timestamp + cooldown), 1) */\n      mload(0x40)\n      dup1\n      0x0100\n      add\n      0x40\n      mstore\n      dup1\n        /* \"contracts/CarreraCoches/cocheToken.sol\":2398:2408  msg.sender */\n      caller\n        /* \"contracts/CarreraCoches/cocheToken.sol\":2392:2486  Coche(msg.sender, _modelo, _marca, _nombrePiloto, 0, 0, uint32(block.timestamp + cooldown), 1) */\n      0xffffffffffffffffffffffffffffffffffffffff\n      and\n      dup2\n      mstore\n      0x20\n      add\n        /* \"contracts/CarreraCoches/cocheToken.sol\":2410:2417  _modelo */\n      dup11\n        /* \"contracts/CarreraCoches/cocheToken.sol\":2392:2486  Coche(msg.sender, _modelo, _marca, _nombrePiloto, 0, 0, uint32(block.timestamp + cooldown), 1) */\n      dup2\n      mstore\n      0x20\n      add\n        /* \"contracts/CarreraCoches/cocheToken.sol\":2419:2425  _marca */\n      dup10\n        /* \"contracts/CarreraCoches/cocheToken.sol\":2392:2486  Coche(msg.sender, _modelo, _marca, _nombrePiloto, 0, 0, uint32(block.timestamp + cooldown), 1) */\n      dup2\n      mstore\n      0x20\n      add\n        /* \"contracts/CarreraCoches/cocheToken.sol\":2427:2440  _nombrePiloto */\n      dup9\n        /* \"contracts/CarreraCoches/cocheToken.sol\":2392:2486  Coche(msg.sender, _modelo, _marca, _nombrePiloto, 0, 0, uint32(block.timestamp + cooldown), 1) */\n      dup2\n      mstore\n      0x20\n      add\n        /* \"contracts/CarreraCoches/cocheToken.sol\":2442:2443  0 */\n      0x00\n        /* \"contracts/CarreraCoches/cocheToken.sol\":2392:2486  Coche(msg.sender, _modelo, _marca, _nombrePiloto, 0, 0, uint32(block.timestamp + cooldown), 1) */\n      dup2\n      mstore\n      0x20\n      add\n        /* \"contracts/CarreraCoches/cocheToken.sol\":2445:2446  0 */\n      0x00\n        /* \"contracts/CarreraCoches/cocheToken.sol\":2392:2486  Coche(msg.sender, _modelo, _marca, _nombrePiloto, 0, 0, uint32(block.timestamp + cooldown), 1) */\n      dup2\n      mstore\n      0x20\n      add\n        /* \"contracts/CarreraCoches/cocheToken.sol\":2473:2481  cooldown */\n      sload(0x03)\n        /* \"contracts/CarreraCoches/cocheToken.sol\":2455:2470  block.timestamp */\n      timestamp\n        /* \"contracts/CarreraCoches/cocheToken.sol\":2455:2481  block.timestamp + cooldown */\n      tag_335\n      swap2\n      swap1\n      tag_169\n      jump\t// in\n    tag_335:\n        /* \"contracts/CarreraCoches/cocheToken.sol\":2392:2486  Coche(msg.sender, _modelo, _marca, _nombrePiloto, 0, 0, uint32(block.timestamp + cooldown), 1) */\n      0xffffffff\n      and\n      dup2\n      mstore\n      0x20\n      add\n        /* \"contracts/CarreraCoches/cocheToken.sol\":2484:2485  1 */\n      0x01\n        /* \"contracts/CarreraCoches/cocheToken.sol\":2392:2486  Coche(msg.sender, _modelo, _marca, _nombrePiloto, 0, 0, uint32(block.timestamp + cooldown), 1) */\n      0xffffffff\n      and\n      dup2\n      mstore\n      pop\n        /* \"contracts/CarreraCoches/cocheToken.sol\":2375:2487  listaCoches.push(Coche(msg.sender, _modelo, _marca, _nombrePiloto, 0, 0, uint32(block.timestamp + cooldown), 1)) */\n      swap1\n      dup1\n      0x01\n      dup2\n      sload\n      add\n      dup1\n      dup3\n      sstore\n      dup1\n      swap2\n      pop\n      pop\n      0x01\n      swap1\n      sub\n      swap1\n      0x00\n      mstore\n      keccak256(0x00, 0x20)\n      swap1\n      0x08\n      mul\n      add\n      0x00\n      swap1\n      swap2\n      swap1\n      swap2\n      swap1\n      swap2\n      pop\n      0x00\n      dup3\n      add\n      mload\n      dup2\n      0x00\n      add\n      exp(0x0100, 0x00)\n      dup2\n      sload\n      dup2\n      0xffffffffffffffffffffffffffffffffffffffff\n      mul\n      not\n      and\n      swap1\n      dup4\n      0xffffffffffffffffffffffffffffffffffffffff\n      and\n      mul\n      or\n      swap1\n      sstore\n      pop\n      0x20\n      dup3\n      add\n      mload\n      dup2\n      0x01\n      add\n      swap1\n      dup1\n      mload\n      swap1\n      0x20\n      add\n      swap1\n      tag_337\n      swap3\n      swap2\n      swap1\n      tag_131\n      jump\t// in\n    tag_337:\n      pop\n      0x40\n      dup3\n      add\n      mload\n      dup2\n      0x02\n      add\n      swap1\n      dup1\n      mload\n      swap1\n      0x20\n      add\n      swap1\n      tag_338\n      swap3\n      swap2\n      swap1\n      tag_131\n      jump\t// in\n    tag_338:\n      pop\n      0x60\n      dup3\n      add\n      mload\n      dup2\n      0x03\n      add\n      swap1\n      dup1\n      mload\n      swap1\n      0x20\n      add\n      swap1\n      tag_339\n      swap3\n      swap2\n      swap1\n      tag_131\n      jump\t// in\n    tag_339:\n      pop\n      0x80\n      dup3\n      add\n      mload\n      dup2\n      0x04\n      add\n      sstore\n      0xa0\n      dup3\n      add\n      mload\n      dup2\n      0x05\n      add\n      sstore\n      0xc0\n      dup3\n      add\n      mload\n      dup2\n      0x06\n      add\n      sstore\n      0xe0\n      dup3\n      add\n      mload\n      dup2\n      0x07\n      add\n      exp(0x0100, 0x00)\n      dup2\n      sload\n      dup2\n      0xffffffff\n      mul\n      not\n      and\n      swap1\n      dup4\n      0xffffffff\n      and\n      mul\n      or\n      swap1\n      sstore\n      pop\n      pop\n      pop\n        /* \"contracts/CarreraCoches/cocheToken.sol\":2498:2505  uint id */\n      0x00\n        /* \"contracts/CarreraCoches/cocheToken.sol\":2508:2519  listaCoches */\n      0x06\n        /* \"contracts/CarreraCoches/cocheToken.sol\":2508:2526  listaCoches.length */\n      dup1\n      sload\n      swap1\n      pop\n        /* \"contracts/CarreraCoches/cocheToken.sol\":2498:2526  uint id = listaCoches.length */\n      swap1\n      pop\n        /* \"contracts/CarreraCoches/cocheToken.sol\":2562:2572  msg.sender */\n      caller\n        /* \"contracts/CarreraCoches/cocheToken.sol\":2537:2555  cocheDePropietario */\n      0x07\n        /* \"contracts/CarreraCoches/cocheToken.sol\":2537:2559  cocheDePropietario[id] */\n      0x00\n        /* \"contracts/CarreraCoches/cocheToken.sol\":2556:2558  id */\n      dup4\n        /* \"contracts/CarreraCoches/cocheToken.sol\":2537:2559  cocheDePropietario[id] */\n      dup2\n      mstore\n      0x20\n      add\n      swap1\n      dup2\n      mstore\n      0x20\n      add\n      0x00\n      keccak256\n      0x00\n        /* \"contracts/CarreraCoches/cocheToken.sol\":2537:2572  cocheDePropietario[id] = msg.sender */\n      0x0100\n      exp\n      dup2\n      sload\n      dup2\n      0xffffffffffffffffffffffffffffffffffffffff\n      mul\n      not\n      and\n      swap1\n      dup4\n      0xffffffffffffffffffffffffffffffffffffffff\n      and\n      mul\n      or\n      swap1\n      sstore\n      pop\n        /* \"contracts/CarreraCoches/cocheToken.sol\":2583:2602  numeroCochesPersona */\n      0x08\n        /* \"contracts/CarreraCoches/cocheToken.sol\":2583:2614  numeroCochesPersona[msg.sender] */\n      0x00\n        /* \"contracts/CarreraCoches/cocheToken.sol\":2603:2613  msg.sender */\n      caller\n        /* \"contracts/CarreraCoches/cocheToken.sol\":2583:2614  numeroCochesPersona[msg.sender] */\n      0xffffffffffffffffffffffffffffffffffffffff\n      and\n      0xffffffffffffffffffffffffffffffffffffffff\n      and\n      dup2\n      mstore\n      0x20\n      add\n      swap1\n      dup2\n      mstore\n      0x20\n      add\n      0x00\n      keccak256\n      0x00\n        /* \"contracts/CarreraCoches/cocheToken.sol\":2583:2616  numeroCochesPersona[msg.sender]++ */\n      dup2\n      sload\n      dup1\n      swap3\n      swap2\n      swap1\n      tag_340\n      swap1\n      tag_137\n      jump\t// in\n    tag_340:\n      swap2\n      swap1\n      pop\n      sstore\n      pop\n        /* \"contracts/CarreraCoches/cocheToken.sol\":2627:2635  contador */\n      0x02\n      0x00\n        /* \"contracts/CarreraCoches/cocheToken.sol\":2627:2637  contador++ */\n      dup2\n      sload\n      dup1\n      swap3\n      swap2\n      swap1\n      tag_341\n      swap1\n      tag_137\n      jump\t// in\n    tag_341:\n      swap2\n      swap1\n      pop\n      sstore\n      pop\n        /* \"contracts/CarreraCoches/cocheToken.sol\":2666:2667  1 */\n      0x01\n        /* \"contracts/CarreraCoches/cocheToken.sol\":2655:2663  contador */\n      sload(0x02)\n        /* \"contracts/CarreraCoches/cocheToken.sol\":2655:2667  contador - 1 */\n      tag_342\n      swap2\n      swap1\n      tag_177\n      jump\t// in\n    tag_342:\n        /* \"contracts/CarreraCoches/cocheToken.sol\":2648:2667  return contador - 1 */\n      swap2\n      pop\n      pop\n        /* \"contracts/CarreraCoches/cocheToken.sol\":2150:2675  function transferirCoche(string memory _modelo, string memory _marca, string memory _nombrePiloto, uint _carrerasGanadas, uint _carrerasTotales, uint32 _tiempoEspera, uint _nivel) public restriccion returns (uint) {\r... */\n      swap8\n      swap7\n      pop\n      pop\n      pop\n      pop\n      pop\n      pop\n      pop\n      jump\t// out\n        /* \"contracts/CarreraCoches/principal.sol\":2913:3289  function verCochePropietario(address _propietario) external {\r... */\n    tag_106:\n        /* \"contracts/CarreraCoches/principal.sol\":2988:2994  uint i */\n      0x00\n        /* \"contracts/CarreraCoches/principal.sol\":2984:3282  for(uint i = 0; i < listaCoches.length; i++){\r... */\n    tag_344:\n        /* \"contracts/CarreraCoches/principal.sol\":3004:3015  listaCoches */\n      0x06\n        /* \"contracts/CarreraCoches/principal.sol\":3004:3022  listaCoches.length */\n      dup1\n      sload\n      swap1\n      pop\n        /* \"contracts/CarreraCoches/principal.sol\":3000:3001  i */\n      dup2\n        /* \"contracts/CarreraCoches/principal.sol\":3000:3022  i < listaCoches.length */\n      lt\n        /* \"contracts/CarreraCoches/principal.sol\":2984:3282  for(uint i = 0; i < listaCoches.length; i++){\r... */\n      iszero\n      tag_345\n      jumpi\n        /* \"contracts/CarreraCoches/principal.sol\":3071:3083  _propietario */\n      dup2\n        /* \"contracts/CarreraCoches/principal.sol\":3046:3083  listaCoches[i].idPiloto==_propietario */\n      0xffffffffffffffffffffffffffffffffffffffff\n      and\n        /* \"contracts/CarreraCoches/principal.sol\":3046:3057  listaCoches */\n      0x06\n        /* \"contracts/CarreraCoches/principal.sol\":3058:3059  i */\n      dup3\n        /* \"contracts/CarreraCoches/principal.sol\":3046:3060  listaCoches[i] */\n      dup2\n      sload\n      dup2\n      lt\n      tag_347\n      jumpi\n      tag_348\n      tag_124\n      jump\t// in\n    tag_348:\n    tag_347:\n      swap1\n      0x00\n      mstore\n      keccak256(0x00, 0x20)\n      swap1\n      0x08\n      mul\n      add\n        /* \"contracts/CarreraCoches/principal.sol\":3046:3069  listaCoches[i].idPiloto */\n      0x00\n      add\n      0x00\n      swap1\n      sload\n      swap1\n      0x0100\n      exp\n      swap1\n      div\n      0xffffffffffffffffffffffffffffffffffffffff\n      and\n        /* \"contracts/CarreraCoches/principal.sol\":3046:3083  listaCoches[i].idPiloto==_propietario */\n      0xffffffffffffffffffffffffffffffffffffffff\n      and\n      eq\n        /* \"contracts/CarreraCoches/principal.sol\":3043:3271  if(listaCoches[i].idPiloto==_propietario){\r... */\n      iszero\n      tag_350\n      jumpi\n        /* \"contracts/CarreraCoches/principal.sol\":3108:3255  cochePropietario(listaCoches[i].marca, listaCoches[i].modelo, listaCoches[i].nivel, listaCoches[i].carrerasGanadas, listaCoches[i].carrerasTotales) */\n      0x20fdb8ab571bfbab79104bea84f9c31cb79c5ae45b5f515c1d6c8393e0028350\n        /* \"contracts/CarreraCoches/principal.sol\":3125:3136  listaCoches */\n      0x06\n        /* \"contracts/CarreraCoches/principal.sol\":3137:3138  i */\n      dup3\n        /* \"contracts/CarreraCoches/principal.sol\":3125:3139  listaCoches[i] */\n      dup2\n      sload\n      dup2\n      lt\n      tag_351\n      jumpi\n      tag_352\n      tag_124\n      jump\t// in\n    tag_352:\n    tag_351:\n      swap1\n      0x00\n      mstore\n      keccak256(0x00, 0x20)\n      swap1\n      0x08\n      mul\n      add\n        /* \"contracts/CarreraCoches/principal.sol\":3125:3145  listaCoches[i].marca */\n      0x02\n      add\n        /* \"contracts/CarreraCoches/principal.sol\":3147:3158  listaCoches */\n      0x06\n        /* \"contracts/CarreraCoches/principal.sol\":3159:3160  i */\n      dup4\n        /* \"contracts/CarreraCoches/principal.sol\":3147:3161  listaCoches[i] */\n      dup2\n      sload\n      dup2\n      lt\n      tag_354\n      jumpi\n      tag_355\n      tag_124\n      jump\t// in\n    tag_355:\n    tag_354:\n      swap1\n      0x00\n      mstore\n      keccak256(0x00, 0x20)\n      swap1\n      0x08\n      mul\n      add\n        /* \"contracts/CarreraCoches/principal.sol\":3147:3168  listaCoches[i].modelo */\n      0x01\n      add\n        /* \"contracts/CarreraCoches/principal.sol\":3170:3181  listaCoches */\n      0x06\n        /* \"contracts/CarreraCoches/principal.sol\":3182:3183  i */\n      dup5\n        /* \"contracts/CarreraCoches/principal.sol\":3170:3184  listaCoches[i] */\n      dup2\n      sload\n      dup2\n      lt\n      tag_357\n      jumpi\n      tag_358\n      tag_124\n      jump\t// in\n    tag_358:\n    tag_357:\n      swap1\n      0x00\n      mstore\n      keccak256(0x00, 0x20)\n      swap1\n      0x08\n      mul\n      add\n        /* \"contracts/CarreraCoches/principal.sol\":3170:3190  listaCoches[i].nivel */\n      0x07\n      add\n      0x00\n      swap1\n      sload\n      swap1\n      0x0100\n      exp\n      swap1\n      div\n      0xffffffff\n      and\n        /* \"contracts/CarreraCoches/principal.sol\":3192:3203  listaCoches */\n      0x06\n        /* \"contracts/CarreraCoches/principal.sol\":3204:3205  i */\n      dup6\n        /* \"contracts/CarreraCoches/principal.sol\":3192:3206  listaCoches[i] */\n      dup2\n      sload\n      dup2\n      lt\n      tag_360\n      jumpi\n      tag_361\n      tag_124\n      jump\t// in\n    tag_361:\n    tag_360:\n      swap1\n      0x00\n      mstore\n      keccak256(0x00, 0x20)\n      swap1\n      0x08\n      mul\n      add\n        /* \"contracts/CarreraCoches/principal.sol\":3192:3222  listaCoches[i].carrerasGanadas */\n      0x04\n      add\n      sload\n        /* \"contracts/CarreraCoches/principal.sol\":3224:3235  listaCoches */\n      0x06\n        /* \"contracts/CarreraCoches/principal.sol\":3236:3237  i */\n      dup7\n        /* \"contracts/CarreraCoches/principal.sol\":3224:3238  listaCoches[i] */\n      dup2\n      sload\n      dup2\n      lt\n      tag_363\n      jumpi\n      tag_364\n      tag_124\n      jump\t// in\n    tag_364:\n    tag_363:\n      swap1\n      0x00\n      mstore\n      keccak256(0x00, 0x20)\n      swap1\n      0x08\n      mul\n      add\n        /* \"contracts/CarreraCoches/principal.sol\":3224:3254  listaCoches[i].carrerasTotales */\n      0x05\n      add\n      sload\n        /* \"contracts/CarreraCoches/principal.sol\":3108:3255  cochePropietario(listaCoches[i].marca, listaCoches[i].modelo, listaCoches[i].nivel, listaCoches[i].carrerasGanadas, listaCoches[i].carrerasTotales) */\n      mload(0x40)\n      tag_366\n      swap6\n      swap5\n      swap4\n      swap3\n      swap2\n      swap1\n      tag_367\n      jump\t// in\n    tag_366:\n      mload(0x40)\n      dup1\n      swap2\n      sub\n      swap1\n      log1\n        /* \"contracts/CarreraCoches/principal.sol\":3043:3271  if(listaCoches[i].idPiloto==_propietario){\r... */\n    tag_350:\n        /* \"contracts/CarreraCoches/principal.sol\":3024:3027  i++ */\n      dup1\n      dup1\n      tag_368\n      swap1\n      tag_137\n      jump\t// in\n    tag_368:\n      swap2\n      pop\n      pop\n        /* \"contracts/CarreraCoches/principal.sol\":2984:3282  for(uint i = 0; i < listaCoches.length; i++){\r... */\n      jump(tag_344)\n    tag_345:\n      pop\n        /* \"contracts/CarreraCoches/principal.sol\":2913:3289  function verCochePropietario(address _propietario) external {\r... */\n      pop\n      jump\t// out\n        /* \"contracts/CarreraCoches/ownable.sol\":1977:2178  function transferOwnership(address newOwner) public virtual onlyOwner {\r... */\n    tag_110:\n        /* \"contracts/CarreraCoches/ownable.sol\":1299:1311  _msgSender() */\n      tag_370\n        /* \"contracts/CarreraCoches/ownable.sol\":1299:1309  _msgSender */\n      tag_304\n        /* \"contracts/CarreraCoches/ownable.sol\":1299:1311  _msgSender() */\n      jump\t// in\n    tag_370:\n        /* \"contracts/CarreraCoches/ownable.sol\":1288:1311  owner() == _msgSender() */\n      0xffffffffffffffffffffffffffffffffffffffff\n      and\n        /* \"contracts/CarreraCoches/ownable.sol\":1288:1295  owner() */\n      tag_371\n        /* \"contracts/CarreraCoches/ownable.sol\":1288:1293  owner */\n      tag_85\n        /* \"contracts/CarreraCoches/ownable.sol\":1288:1295  owner() */\n      jump\t// in\n    tag_371:\n        /* \"contracts/CarreraCoches/ownable.sol\":1288:1311  owner() == _msgSender() */\n      0xffffffffffffffffffffffffffffffffffffffff\n      and\n      eq\n        /* \"contracts/CarreraCoches/ownable.sol\":1280:1348  require(owner() == _msgSender(), \"Ownable: caller is not the owner\") */\n      tag_372\n      jumpi\n      mload(0x40)\n      0x08c379a000000000000000000000000000000000000000000000000000000000\n      dup2\n      mstore\n      0x04\n      add\n      tag_373\n      swap1\n      tag_308\n      jump\t// in\n    tag_373:\n      mload(0x40)\n      dup1\n      swap2\n      sub\n      swap1\n      revert\n    tag_372:\n        /* \"contracts/CarreraCoches/ownable.sol\":2086:2087  0 */\n      0x00\n        /* \"contracts/CarreraCoches/ownable.sol\":2066:2088  newOwner != address(0) */\n      0xffffffffffffffffffffffffffffffffffffffff\n      and\n        /* \"contracts/CarreraCoches/ownable.sol\":2066:2074  newOwner */\n      dup2\n        /* \"contracts/CarreraCoches/ownable.sol\":2066:2088  newOwner != address(0) */\n      0xffffffffffffffffffffffffffffffffffffffff\n      and\n      eq\n      iszero\n        /* \"contracts/CarreraCoches/ownable.sol\":2058:2131  require(newOwner != address(0), \"Ownable: new owner is the zero address\") */\n      tag_375\n      jumpi\n      mload(0x40)\n      0x08c379a000000000000000000000000000000000000000000000000000000000\n      dup2\n      mstore\n      0x04\n      add\n      tag_376\n      swap1\n      tag_377\n      jump\t// in\n    tag_376:\n      mload(0x40)\n      dup1\n      swap2\n      sub\n      swap1\n      revert\n    tag_375:\n        /* \"contracts/CarreraCoches/ownable.sol\":2142:2170  _transferOwnership(newOwner) */\n      tag_378\n        /* \"contracts/CarreraCoches/ownable.sol\":2161:2169  newOwner */\n      dup2\n        /* \"contracts/CarreraCoches/ownable.sol\":2142:2160  _transferOwnership */\n      tag_311\n        /* \"contracts/CarreraCoches/ownable.sol\":2142:2170  _transferOwnership(newOwner) */\n      jump\t// in\n    tag_378:\n        /* \"contracts/CarreraCoches/ownable.sol\":1977:2178  function transferOwnership(address newOwner) public virtual onlyOwner {\r... */\n      pop\n      jump\t// out\n        /* \"contracts/CarreraCoches/cocheToken.sol\":1384:2142  function crearCoche(address _from, address _to) public {\r... */\n    tag_115:\n        /* \"contracts/CarreraCoches/cocheToken.sol\":1452:1458  uint i */\n      0x00\n        /* \"contracts/CarreraCoches/cocheToken.sol\":1448:2135  for(uint i = 0; i < listaCoches.length; i++){\r... */\n    tag_380:\n        /* \"contracts/CarreraCoches/cocheToken.sol\":1468:1479  listaCoches */\n      0x06\n        /* \"contracts/CarreraCoches/cocheToken.sol\":1468:1486  listaCoches.length */\n      dup1\n      sload\n      swap1\n      pop\n        /* \"contracts/CarreraCoches/cocheToken.sol\":1464:1465  i */\n      dup2\n        /* \"contracts/CarreraCoches/cocheToken.sol\":1464:1486  i < listaCoches.length */\n      lt\n        /* \"contracts/CarreraCoches/cocheToken.sol\":1448:2135  for(uint i = 0; i < listaCoches.length; i++){\r... */\n      iszero\n      tag_381\n      jumpi\n        /* \"contracts/CarreraCoches/cocheToken.sol\":1537:1542  _from */\n      dup3\n        /* \"contracts/CarreraCoches/cocheToken.sol\":1510:1542  listaCoches[i].idPiloto == _from */\n      0xffffffffffffffffffffffffffffffffffffffff\n      and\n        /* \"contracts/CarreraCoches/cocheToken.sol\":1510:1521  listaCoches */\n      0x06\n        /* \"contracts/CarreraCoches/cocheToken.sol\":1522:1523  i */\n      dup3\n        /* \"contracts/CarreraCoches/cocheToken.sol\":1510:1524  listaCoches[i] */\n      dup2\n      sload\n      dup2\n      lt\n      tag_383\n      jumpi\n      tag_384\n      tag_124\n      jump\t// in\n    tag_384:\n    tag_383:\n      swap1\n      0x00\n      mstore\n      keccak256(0x00, 0x20)\n      swap1\n      0x08\n      mul\n      add\n        /* \"contracts/CarreraCoches/cocheToken.sol\":1510:1533  listaCoches[i].idPiloto */\n      0x00\n      add\n      0x00\n      swap1\n      sload\n      swap1\n      0x0100\n      exp\n      swap1\n      div\n      0xffffffffffffffffffffffffffffffffffffffff\n      and\n        /* \"contracts/CarreraCoches/cocheToken.sol\":1510:1542  listaCoches[i].idPiloto == _from */\n      0xffffffffffffffffffffffffffffffffffffffff\n      and\n      eq\n        /* \"contracts/CarreraCoches/cocheToken.sol\":1507:2124  if(listaCoches[i].idPiloto == _from){\r... */\n      iszero\n      tag_386\n      jumpi\n        /* \"contracts/CarreraCoches/cocheToken.sol\":1562:1586  string memory _newModelo */\n      0x00\n        /* \"contracts/CarreraCoches/cocheToken.sol\":1589:1600  listaCoches */\n      0x06\n        /* \"contracts/CarreraCoches/cocheToken.sol\":1601:1602  i */\n      dup3\n        /* \"contracts/CarreraCoches/cocheToken.sol\":1589:1603  listaCoches[i] */\n      dup2\n      sload\n      dup2\n      lt\n      tag_387\n      jumpi\n      tag_388\n      tag_124\n      jump\t// in\n    tag_388:\n    tag_387:\n      swap1\n      0x00\n      mstore\n      keccak256(0x00, 0x20)\n      swap1\n      0x08\n      mul\n      add\n        /* \"contracts/CarreraCoches/cocheToken.sol\":1589:1610  listaCoches[i].modelo */\n      0x01\n      add\n        /* \"contracts/CarreraCoches/cocheToken.sol\":1562:1610  string memory _newModelo = listaCoches[i].modelo */\n      dup1\n      sload\n      tag_390\n      swap1\n      tag_316\n      jump\t// in\n    tag_390:\n      dup1\n      0x1f\n      add\n      0x20\n      dup1\n      swap2\n      div\n      mul\n      0x20\n      add\n      mload(0x40)\n      swap1\n      dup2\n      add\n      0x40\n      mstore\n      dup1\n      swap3\n      swap2\n      swap1\n      dup2\n      dup2\n      mstore\n      0x20\n      add\n      dup3\n      dup1\n      sload\n      tag_391\n      swap1\n      tag_316\n      jump\t// in\n    tag_391:\n      dup1\n      iszero\n      tag_392\n      jumpi\n      dup1\n      0x1f\n      lt\n      tag_393\n      jumpi\n      0x0100\n      dup1\n      dup4\n      sload\n      div\n      mul\n      dup4\n      mstore\n      swap2\n      0x20\n      add\n      swap2\n      jump(tag_392)\n    tag_393:\n      dup3\n      add\n      swap2\n      swap1\n      0x00\n      mstore\n      keccak256(0x00, 0x20)\n      swap1\n    tag_394:\n      dup2\n      sload\n      dup2\n      mstore\n      swap1\n      0x01\n      add\n      swap1\n      0x20\n      add\n      dup1\n      dup4\n      gt\n      tag_394\n      jumpi\n      dup3\n      swap1\n      sub\n      0x1f\n      and\n      dup3\n      add\n      swap2\n    tag_392:\n      pop\n      pop\n      pop\n      pop\n      pop\n      swap1\n      pop\n        /* \"contracts/CarreraCoches/cocheToken.sol\":1629:1652  string memory _newMarca */\n      0x00\n        /* \"contracts/CarreraCoches/cocheToken.sol\":1655:1666  listaCoches */\n      0x06\n        /* \"contracts/CarreraCoches/cocheToken.sol\":1667:1668  i */\n      dup4\n        /* \"contracts/CarreraCoches/cocheToken.sol\":1655:1669  listaCoches[i] */\n      dup2\n      sload\n      dup2\n      lt\n      tag_395\n      jumpi\n      tag_396\n      tag_124\n      jump\t// in\n    tag_396:\n    tag_395:\n      swap1\n      0x00\n      mstore\n      keccak256(0x00, 0x20)\n      swap1\n      0x08\n      mul\n      add\n        /* \"contracts/CarreraCoches/cocheToken.sol\":1655:1675  listaCoches[i].marca */\n      0x02\n      add\n        /* \"contracts/CarreraCoches/cocheToken.sol\":1629:1675  string memory _newMarca = listaCoches[i].marca */\n      dup1\n      sload\n      tag_398\n      swap1\n      tag_316\n      jump\t// in\n    tag_398:\n      dup1\n      0x1f\n      add\n      0x20\n      dup1\n      swap2\n      div\n      mul\n      0x20\n      add\n      mload(0x40)\n      swap1\n      dup2\n      add\n      0x40\n      mstore\n      dup1\n      swap3\n      swap2\n      swap1\n      dup2\n      dup2\n      mstore\n      0x20\n      add\n      dup3\n      dup1\n      sload\n      tag_399\n      swap1\n      tag_316\n      jump\t// in\n    tag_399:\n      dup1\n      iszero\n      tag_400\n      jumpi\n      dup1\n      0x1f\n      lt\n      tag_401\n      jumpi\n      0x0100\n      dup1\n      dup4\n      sload\n      div\n      mul\n      dup4\n      mstore\n      swap2\n      0x20\n      add\n      swap2\n      jump(tag_400)\n    tag_401:\n      dup3\n      add\n      swap2\n      swap1\n      0x00\n      mstore\n      keccak256(0x00, 0x20)\n      swap1\n    tag_402:\n      dup2\n      sload\n      dup2\n      mstore\n      swap1\n      0x01\n      add\n      swap1\n      0x20\n      add\n      dup1\n      dup4\n      gt\n      tag_402\n      jumpi\n      dup3\n      swap1\n      sub\n      0x1f\n      and\n      dup3\n      add\n      swap2\n    tag_400:\n      pop\n      pop\n      pop\n      pop\n      pop\n      swap1\n      pop\n        /* \"contracts/CarreraCoches/cocheToken.sol\":1694:1724  string memory _newNombrePiloto */\n      0x00\n        /* \"contracts/CarreraCoches/cocheToken.sol\":1727:1738  listaCoches */\n      0x06\n        /* \"contracts/CarreraCoches/cocheToken.sol\":1739:1740  i */\n      dup5\n        /* \"contracts/CarreraCoches/cocheToken.sol\":1727:1741  listaCoches[i] */\n      dup2\n      sload\n      dup2\n      lt\n      tag_403\n      jumpi\n      tag_404\n      tag_124\n      jump\t// in\n    tag_404:\n    tag_403:\n      swap1\n      0x00\n      mstore\n      keccak256(0x00, 0x20)\n      swap1\n      0x08\n      mul\n      add\n        /* \"contracts/CarreraCoches/cocheToken.sol\":1727:1754  listaCoches[i].nombrePiloto */\n      0x03\n      add\n        /* \"contracts/CarreraCoches/cocheToken.sol\":1694:1754  string memory _newNombrePiloto = listaCoches[i].nombrePiloto */\n      dup1\n      sload\n      tag_406\n      swap1\n      tag_316\n      jump\t// in\n    tag_406:\n      dup1\n      0x1f\n      add\n      0x20\n      dup1\n      swap2\n      div\n      mul\n      0x20\n      add\n      mload(0x40)\n      swap1\n      dup2\n      add\n      0x40\n      mstore\n      dup1\n      swap3\n      swap2\n      swap1\n      dup2\n      dup2\n      mstore\n      0x20\n      add\n      dup3\n      dup1\n      sload\n      tag_407\n      swap1\n      tag_316\n      jump\t// in\n    tag_407:\n      dup1\n      iszero\n      tag_408\n      jumpi\n      dup1\n      0x1f\n      lt\n      tag_409\n      jumpi\n      0x0100\n      dup1\n      dup4\n      sload\n      div\n      mul\n      dup4\n      mstore\n      swap2\n      0x20\n      add\n      swap2\n      jump(tag_408)\n    tag_409:\n      dup3\n      add\n      swap2\n      swap1\n      0x00\n      mstore\n      keccak256(0x00, 0x20)\n      swap1\n    tag_410:\n      dup2\n      sload\n      dup2\n      mstore\n      swap1\n      0x01\n      add\n      swap1\n      0x20\n      add\n      dup1\n      dup4\n      gt\n      tag_410\n      jumpi\n      dup3\n      swap1\n      sub\n      0x1f\n      and\n      dup3\n      add\n      swap2\n    tag_408:\n      pop\n      pop\n      pop\n      pop\n      pop\n      swap1\n      pop\n        /* \"contracts/CarreraCoches/cocheToken.sol\":1773:1794  uint _carrerasGanadas */\n      0x00\n        /* \"contracts/CarreraCoches/cocheToken.sol\":1797:1808  listaCoches */\n      0x06\n        /* \"contracts/CarreraCoches/cocheToken.sol\":1809:1810  i */\n      dup6\n        /* \"contracts/CarreraCoches/cocheToken.sol\":1797:1811  listaCoches[i] */\n      dup2\n      sload\n      dup2\n      lt\n      tag_411\n      jumpi\n      tag_412\n      tag_124\n      jump\t// in\n    tag_412:\n    tag_411:\n      swap1\n      0x00\n      mstore\n      keccak256(0x00, 0x20)\n      swap1\n      0x08\n      mul\n      add\n        /* \"contracts/CarreraCoches/cocheToken.sol\":1797:1827  listaCoches[i].carrerasGanadas */\n      0x04\n      add\n      sload\n        /* \"contracts/CarreraCoches/cocheToken.sol\":1773:1827  uint _carrerasGanadas = listaCoches[i].carrerasGanadas */\n      swap1\n      pop\n        /* \"contracts/CarreraCoches/cocheToken.sol\":1846:1867  uint _carrerasTotales */\n      0x00\n        /* \"contracts/CarreraCoches/cocheToken.sol\":1870:1881  listaCoches */\n      0x06\n        /* \"contracts/CarreraCoches/cocheToken.sol\":1882:1883  i */\n      dup7\n        /* \"contracts/CarreraCoches/cocheToken.sol\":1870:1884  listaCoches[i] */\n      dup2\n      sload\n      dup2\n      lt\n      tag_414\n      jumpi\n      tag_415\n      tag_124\n      jump\t// in\n    tag_415:\n    tag_414:\n      swap1\n      0x00\n      mstore\n      keccak256(0x00, 0x20)\n      swap1\n      0x08\n      mul\n      add\n        /* \"contracts/CarreraCoches/cocheToken.sol\":1870:1900  listaCoches[i].carrerasTotales */\n      0x05\n      add\n      sload\n        /* \"contracts/CarreraCoches/cocheToken.sol\":1846:1900  uint _carrerasTotales = listaCoches[i].carrerasTotales */\n      swap1\n      pop\n        /* \"contracts/CarreraCoches/cocheToken.sol\":1919:1930  uint _nivel */\n      0x00\n        /* \"contracts/CarreraCoches/cocheToken.sol\":1933:1944  listaCoches */\n      0x06\n        /* \"contracts/CarreraCoches/cocheToken.sol\":1945:1946  i */\n      dup8\n        /* \"contracts/CarreraCoches/cocheToken.sol\":1933:1947  listaCoches[i] */\n      dup2\n      sload\n      dup2\n      lt\n      tag_417\n      jumpi\n      tag_418\n      tag_124\n      jump\t// in\n    tag_418:\n    tag_417:\n      swap1\n      0x00\n      mstore\n      keccak256(0x00, 0x20)\n      swap1\n      0x08\n      mul\n      add\n        /* \"contracts/CarreraCoches/cocheToken.sol\":1933:1953  listaCoches[i].nivel */\n      0x07\n      add\n      0x00\n      swap1\n      sload\n      swap1\n      0x0100\n      exp\n      swap1\n      div\n      0xffffffff\n      and\n        /* \"contracts/CarreraCoches/cocheToken.sol\":1919:1953  uint _nivel = listaCoches[i].nivel */\n      0xffffffff\n      and\n      swap1\n      pop\n        /* \"contracts/CarreraCoches/cocheToken.sol\":1972:2108  transferirCoche(_newModelo, _newMarca, _newNombrePiloto, _carrerasGanadas, _carrerasTotales, uint32(block.timestamp + cooldown), _nivel) */\n      tag_420\n        /* \"contracts/CarreraCoches/cocheToken.sol\":1988:1998  _newModelo */\n      dup7\n        /* \"contracts/CarreraCoches/cocheToken.sol\":2000:2009  _newMarca */\n      dup7\n        /* \"contracts/CarreraCoches/cocheToken.sol\":2011:2027  _newNombrePiloto */\n      dup7\n        /* \"contracts/CarreraCoches/cocheToken.sol\":2029:2045  _carrerasGanadas */\n      dup7\n        /* \"contracts/CarreraCoches/cocheToken.sol\":2047:2063  _carrerasTotales */\n      dup7\n        /* \"contracts/CarreraCoches/cocheToken.sol\":2090:2098  cooldown */\n      sload(0x03)\n        /* \"contracts/CarreraCoches/cocheToken.sol\":2072:2087  block.timestamp */\n      timestamp\n        /* \"contracts/CarreraCoches/cocheToken.sol\":2072:2098  block.timestamp + cooldown */\n      tag_421\n      swap2\n      swap1\n      tag_169\n      jump\t// in\n    tag_421:\n        /* \"contracts/CarreraCoches/cocheToken.sol\":2101:2107  _nivel */\n      dup8\n        /* \"contracts/CarreraCoches/cocheToken.sol\":1972:1987  transferirCoche */\n      tag_101\n        /* \"contracts/CarreraCoches/cocheToken.sol\":1972:2108  transferirCoche(_newModelo, _newMarca, _newNombrePiloto, _carrerasGanadas, _carrerasTotales, uint32(block.timestamp + cooldown), _nivel) */\n      jump\t// in\n    tag_420:\n      pop\n        /* \"contracts/CarreraCoches/cocheToken.sol\":1543:2124  {\r... */\n      pop\n      pop\n      pop\n      pop\n      pop\n      pop\n        /* \"contracts/CarreraCoches/cocheToken.sol\":1507:2124  if(listaCoches[i].idPiloto == _from){\r... */\n    tag_386:\n        /* \"contracts/CarreraCoches/cocheToken.sol\":1488:1491  i++ */\n      dup1\n      dup1\n      tag_422\n      swap1\n      tag_137\n      jump\t// in\n    tag_422:\n      swap2\n      pop\n      pop\n        /* \"contracts/CarreraCoches/cocheToken.sol\":1448:2135  for(uint i = 0; i < listaCoches.length; i++){\r... */\n      jump(tag_380)\n    tag_381:\n      pop\n        /* \"contracts/CarreraCoches/cocheToken.sol\":1384:2142  function crearCoche(address _from, address _to) public {\r... */\n      pop\n      pop\n      jump\t// out\n        /* \"contracts/CarreraCoches/cocheToken.sol\":448:678  function _transfer(address _from, address _to, uint256 _tokenId) private {\r... */\n    tag_162:\n        /* \"contracts/CarreraCoches/cocheToken.sol\":528:547  numeroCochesPersona */\n      0x08\n        /* \"contracts/CarreraCoches/cocheToken.sol\":528:552  numeroCochesPersona[_to] */\n      0x00\n        /* \"contracts/CarreraCoches/cocheToken.sol\":548:551  _to */\n      dup4\n        /* \"contracts/CarreraCoches/cocheToken.sol\":528:552  numeroCochesPersona[_to] */\n      0xffffffffffffffffffffffffffffffffffffffff\n      and\n      0xffffffffffffffffffffffffffffffffffffffff\n      and\n      dup2\n      mstore\n      0x20\n      add\n      swap1\n      dup2\n      mstore\n      0x20\n      add\n      0x00\n      keccak256\n      0x00\n        /* \"contracts/CarreraCoches/cocheToken.sol\":528:554  numeroCochesPersona[_to]++ */\n      dup2\n      sload\n      dup1\n      swap3\n      swap2\n      swap1\n      tag_424\n      swap1\n      tag_137\n      jump\t// in\n    tag_424:\n      swap2\n      swap1\n      pop\n      sstore\n      pop\n        /* \"contracts/CarreraCoches/cocheToken.sol\":561:580  numeroCochesPersona */\n      0x08\n        /* \"contracts/CarreraCoches/cocheToken.sol\":561:587  numeroCochesPersona[_from] */\n      0x00\n        /* \"contracts/CarreraCoches/cocheToken.sol\":581:586  _from */\n      dup5\n        /* \"contracts/CarreraCoches/cocheToken.sol\":561:587  numeroCochesPersona[_from] */\n      0xffffffffffffffffffffffffffffffffffffffff\n      and\n      0xffffffffffffffffffffffffffffffffffffffff\n      and\n      dup2\n      mstore\n      0x20\n      add\n      swap1\n      dup2\n      mstore\n      0x20\n      add\n      0x00\n      keccak256\n      0x00\n        /* \"contracts/CarreraCoches/cocheToken.sol\":561:589  numeroCochesPersona[_from]-- */\n      dup2\n      sload\n      dup1\n      swap3\n      swap2\n      swap1\n      tag_425\n      swap1\n      tag_426\n      jump\t// in\n    tag_425:\n      swap2\n      swap1\n      pop\n      sstore\n      pop\n        /* \"contracts/CarreraCoches/cocheToken.sol\":627:630  _to */\n      dup2\n        /* \"contracts/CarreraCoches/cocheToken.sol\":596:614  cocheDePropietario */\n      0x07\n        /* \"contracts/CarreraCoches/cocheToken.sol\":596:624  cocheDePropietario[_tokenId] */\n      0x00\n        /* \"contracts/CarreraCoches/cocheToken.sol\":615:623  _tokenId */\n      dup4\n        /* \"contracts/CarreraCoches/cocheToken.sol\":596:624  cocheDePropietario[_tokenId] */\n      dup2\n      mstore\n      0x20\n      add\n      swap1\n      dup2\n      mstore\n      0x20\n      add\n      0x00\n      keccak256\n      0x00\n        /* \"contracts/CarreraCoches/cocheToken.sol\":596:630  cocheDePropietario[_tokenId] = _to */\n      0x0100\n      exp\n      dup2\n      sload\n      dup2\n      0xffffffffffffffffffffffffffffffffffffffff\n      mul\n      not\n      and\n      swap1\n      dup4\n      0xffffffffffffffffffffffffffffffffffffffff\n      and\n      mul\n      or\n      swap1\n      sstore\n      pop\n        /* \"contracts/CarreraCoches/cocheToken.sol\":663:671  _tokenId */\n      dup1\n        /* \"contracts/CarreraCoches/cocheToken.sol\":658:661  _to */\n      dup3\n        /* \"contracts/CarreraCoches/cocheToken.sol\":642:672  Transfer(_from, _to, _tokenId) */\n      0xffffffffffffffffffffffffffffffffffffffff\n      and\n        /* \"contracts/CarreraCoches/cocheToken.sol\":651:656  _from */\n      dup5\n        /* \"contracts/CarreraCoches/cocheToken.sol\":642:672  Transfer(_from, _to, _tokenId) */\n      0xffffffffffffffffffffffffffffffffffffffff\n      and\n      0xddf252ad1be2c89b69c2b068fc378daa952ba7f163c4a11628f55a4df523b3ef\n      mload(0x40)\n      mload(0x40)\n      dup1\n      swap2\n      sub\n      swap1\n      log4\n        /* \"contracts/CarreraCoches/cocheToken.sol\":448:678  function _transfer(address _from, address _to, uint256 _tokenId) private {\r... */\n      pop\n      pop\n      pop\n      jump\t// out\n        /* \"contracts/CarreraCoches/principal.sol\":2322:2461  function _depositoLleno(Coche storage _coche) internal view returns (bool) {\r... */\n    tag_219:\n        /* \"contracts/CarreraCoches/principal.sol\":2391:2395  bool */\n      0x00\n        /* \"contracts/CarreraCoches/principal.sol\":2438:2453  block.timestamp */\n      timestamp\n        /* \"contracts/CarreraCoches/principal.sol\":2415:2421  _coche */\n      dup3\n        /* \"contracts/CarreraCoches/principal.sol\":2415:2434  _coche.tiempoEspera */\n      0x06\n      add\n      sload\n        /* \"contracts/CarreraCoches/principal.sol\":2415:2453  _coche.tiempoEspera <= block.timestamp */\n      gt\n      iszero\n        /* \"contracts/CarreraCoches/principal.sol\":2408:2453  return _coche.tiempoEspera <= block.timestamp */\n      swap1\n      pop\n        /* \"contracts/CarreraCoches/principal.sol\":2322:2461  function _depositoLleno(Coche storage _coche) internal view returns (bool) {\r... */\n      swap2\n      swap1\n      pop\n      jump\t// out\n        /* \"contracts/CarreraCoches/principal.sol\":2169:2296  function _repostando(Coche storage _coche) internal {\r... */\n    tag_233:\n        /* \"contracts/CarreraCoches/principal.sol\":2279:2287  cooldown */\n      sload(0x03)\n        /* \"contracts/CarreraCoches/principal.sol\":2261:2276  block.timestamp */\n      timestamp\n        /* \"contracts/CarreraCoches/principal.sol\":2261:2287  block.timestamp + cooldown */\n      tag_429\n      swap2\n      swap1\n      tag_169\n      jump\t// in\n    tag_429:\n        /* \"contracts/CarreraCoches/principal.sol\":2232:2288  _coche.tiempoEspera = uint32(block.timestamp + cooldown) */\n      0xffffffff\n      and\n        /* \"contracts/CarreraCoches/principal.sol\":2232:2238  _coche */\n      dup2\n        /* \"contracts/CarreraCoches/principal.sol\":2232:2251  _coche.tiempoEspera */\n      0x06\n      add\n        /* \"contracts/CarreraCoches/principal.sol\":2232:2288  _coche.tiempoEspera = uint32(block.timestamp + cooldown) */\n      dup2\n      swap1\n      sstore\n      pop\n        /* \"contracts/CarreraCoches/principal.sol\":2169:2296  function _repostando(Coche storage _coche) internal {\r... */\n      pop\n      jump\t// out\n        /* \"contracts/CarreraCoches/principal.sol\":7295:7393  function balance() private {\r... */\n    tag_243:\n        /* \"contracts/CarreraCoches/principal.sol\":7342:7352  msg.sender */\n      caller\n        /* \"contracts/CarreraCoches/principal.sol\":7333:7362  payable (msg.sender).transfer */\n      0xffffffffffffffffffffffffffffffffffffffff\n      and\n        /* \"contracts/CarreraCoches/principal.sol\":7333:7385  payable (msg.sender).transfer(address(this).balance) */\n      0x08fc\n        /* \"contracts/CarreraCoches/principal.sol\":7363:7384  address(this).balance */\n      selfbalance\n        /* \"contracts/CarreraCoches/principal.sol\":7333:7385  payable (msg.sender).transfer(address(this).balance) */\n      swap1\n      dup2\n      iszero\n      mul\n      swap1\n      mload(0x40)\n      0x00\n      mload(0x40)\n      dup1\n      dup4\n      sub\n      dup2\n      dup6\n      dup9\n      dup9\n      call\n      swap4\n      pop\n      pop\n      pop\n      pop\n      iszero\n      dup1\n      iszero\n      tag_432\n      jumpi\n      returndatasize\n      0x00\n      dup1\n      returndatacopy\n      revert(0x00, returndatasize)\n    tag_432:\n      pop\n        /* \"contracts/CarreraCoches/principal.sol\":7295:7393  function balance() private {\r... */\n      jump\t// out\n        /* \"contracts/CarreraCoches/utils/Context.sol\":656:754  function _msgSender() internal view virtual returns (address) {\r... */\n    tag_304:\n        /* \"contracts/CarreraCoches/utils/Context.sol\":709:716  address */\n      0x00\n        /* \"contracts/CarreraCoches/utils/Context.sol\":736:746  msg.sender */\n      caller\n        /* \"contracts/CarreraCoches/utils/Context.sol\":729:746  return msg.sender */\n      swap1\n      pop\n        /* \"contracts/CarreraCoches/utils/Context.sol\":656:754  function _msgSender() internal view virtual returns (address) {\r... */\n      swap1\n      jump\t// out\n        /* \"contracts/CarreraCoches/ownable.sol\":2338:2529  function _transferOwnership(address newOwner) internal virtual {\r... */\n    tag_311:\n        /* \"contracts/CarreraCoches/ownable.sol\":2412:2428  address oldOwner */\n      0x00\n        /* \"contracts/CarreraCoches/ownable.sol\":2431:2437  _owner */\n      dup1\n      0x00\n      swap1\n      sload\n      swap1\n      0x0100\n      exp\n      swap1\n      div\n      0xffffffffffffffffffffffffffffffffffffffff\n      and\n        /* \"contracts/CarreraCoches/ownable.sol\":2412:2437  address oldOwner = _owner */\n      swap1\n      pop\n        /* \"contracts/CarreraCoches/ownable.sol\":2457:2465  newOwner */\n      dup2\n        /* \"contracts/CarreraCoches/ownable.sol\":2448:2454  _owner */\n      0x00\n      dup1\n        /* \"contracts/CarreraCoches/ownable.sol\":2448:2465  _owner = newOwner */\n      0x0100\n      exp\n      dup2\n      sload\n      dup2\n      0xffffffffffffffffffffffffffffffffffffffff\n      mul\n      not\n      and\n      swap1\n      dup4\n      0xffffffffffffffffffffffffffffffffffffffff\n      and\n      mul\n      or\n      swap1\n      sstore\n      pop\n        /* \"contracts/CarreraCoches/ownable.sol\":2512:2520  newOwner */\n      dup2\n        /* \"contracts/CarreraCoches/ownable.sol\":2481:2521  OwnershipTransferred(oldOwner, newOwner) */\n      0xffffffffffffffffffffffffffffffffffffffff\n      and\n        /* \"contracts/CarreraCoches/ownable.sol\":2502:2510  oldOwner */\n      dup2\n        /* \"contracts/CarreraCoches/ownable.sol\":2481:2521  OwnershipTransferred(oldOwner, newOwner) */\n      0xffffffffffffffffffffffffffffffffffffffff\n      and\n      0x8be0079c531659141344cd1fd0a4f28419497f9722a3daafe3b4186f6b6457e0\n      mload(0x40)\n      mload(0x40)\n      dup1\n      swap2\n      sub\n      swap1\n      log3\n        /* \"contracts/CarreraCoches/ownable.sol\":2401:2529  {\r... */\n      pop\n        /* \"contracts/CarreraCoches/ownable.sol\":2338:2529  function _transferOwnership(address newOwner) internal virtual {\r... */\n      pop\n      jump\t// out\n    tag_131:\n      dup3\n      dup1\n      sload\n      tag_435\n      swap1\n      tag_316\n      jump\t// in\n    tag_435:\n      swap1\n      0x00\n      mstore\n      keccak256(0x00, 0x20)\n      swap1\n      0x1f\n      add\n      0x20\n      swap1\n      div\n      dup2\n      add\n      swap3\n      dup3\n      tag_437\n      jumpi\n      0x00\n      dup6\n      sstore\n      jump(tag_436)\n    tag_437:\n      dup3\n      0x1f\n      lt\n      tag_438\n      jumpi\n      dup1\n      mload\n      not(0xff)\n      and\n      dup4\n      dup1\n      add\n      or\n      dup6\n      sstore\n      jump(tag_436)\n    tag_438:\n      dup3\n      dup1\n      add\n      0x01\n      add\n      dup6\n      sstore\n      dup3\n      iszero\n      tag_436\n      jumpi\n      swap2\n      dup3\n      add\n    tag_439:\n      dup3\n      dup2\n      gt\n      iszero\n      tag_440\n      jumpi\n      dup3\n      mload\n      dup3\n      sstore\n      swap2\n      0x20\n      add\n      swap2\n      swap1\n      0x01\n      add\n      swap1\n      jump(tag_439)\n    tag_440:\n    tag_436:\n      pop\n      swap1\n      pop\n      tag_441\n      swap2\n      swap1\n      tag_442\n      jump\t// in\n    tag_441:\n      pop\n      swap1\n      jump\t// out\n    tag_154:\n      pop\n      dup1\n      sload\n      tag_443\n      swap1\n      tag_316\n      jump\t// in\n    tag_443:\n      0x00\n      dup3\n      sstore\n      dup1\n      0x1f\n      lt\n      tag_445\n      jumpi\n      pop\n      jump(tag_444)\n    tag_445:\n      0x1f\n      add\n      0x20\n      swap1\n      div\n      swap1\n      0x00\n      mstore\n      keccak256(0x00, 0x20)\n      swap1\n      dup2\n      add\n      swap1\n      tag_446\n      swap2\n      swap1\n      tag_442\n      jump\t// in\n    tag_446:\n    tag_444:\n      pop\n      jump\t// out\n    tag_442:\n    tag_447:\n      dup1\n      dup3\n      gt\n      iszero\n      tag_448\n      jumpi\n      0x00\n      dup2\n      0x00\n      swap1\n      sstore\n      pop\n      0x01\n      add\n      jump(tag_447)\n    tag_448:\n      pop\n      swap1\n      jump\t// out\n        /* \"#utility.yul\":7:419   */\n    tag_450:\n        /* \"#utility.yul\":85:90   */\n      0x00\n        /* \"#utility.yul\":110:176   */\n      tag_452\n        /* \"#utility.yul\":126:175   */\n      tag_453\n        /* \"#utility.yul\":168:174   */\n      dup5\n        /* \"#utility.yul\":126:175   */\n      tag_454\n      jump\t// in\n    tag_453:\n        /* \"#utility.yul\":110:176   */\n      tag_455\n      jump\t// in\n    tag_452:\n        /* \"#utility.yul\":101:176   */\n      swap1\n      pop\n        /* \"#utility.yul\":199:205   */\n      dup3\n        /* \"#utility.yul\":192:197   */\n      dup2\n        /* \"#utility.yul\":185:206   */\n      mstore\n        /* \"#utility.yul\":237:241   */\n      0x20\n        /* \"#utility.yul\":230:235   */\n      dup2\n        /* \"#utility.yul\":226:242   */\n      add\n        /* \"#utility.yul\":275:278   */\n      dup5\n        /* \"#utility.yul\":266:272   */\n      dup5\n        /* \"#utility.yul\":261:264   */\n      dup5\n        /* \"#utility.yul\":257:273   */\n      add\n        /* \"#utility.yul\":254:279   */\n      gt\n        /* \"#utility.yul\":251:363   */\n      iszero\n      tag_456\n      jumpi\n        /* \"#utility.yul\":282:361   */\n      tag_457\n      tag_458\n      jump\t// in\n    tag_457:\n        /* \"#utility.yul\":251:363   */\n    tag_456:\n        /* \"#utility.yul\":372:413   */\n      tag_459\n        /* \"#utility.yul\":406:412   */\n      dup5\n        /* \"#utility.yul\":401:404   */\n      dup3\n        /* \"#utility.yul\":396:399   */\n      dup6\n        /* \"#utility.yul\":372:413   */\n      tag_460\n      jump\t// in\n    tag_459:\n        /* \"#utility.yul\":91:419   */\n      pop\n        /* \"#utility.yul\":7:419   */\n      swap4\n      swap3\n      pop\n      pop\n      pop\n      jump\t// out\n        /* \"#utility.yul\":425:564   */\n    tag_461:\n        /* \"#utility.yul\":471:476   */\n      0x00\n        /* \"#utility.yul\":509:515   */\n      dup2\n        /* \"#utility.yul\":496:516   */\n      calldataload\n        /* \"#utility.yul\":487:516   */\n      swap1\n      pop\n        /* \"#utility.yul\":525:558   */\n      tag_463\n        /* \"#utility.yul\":552:557   */\n      dup2\n        /* \"#utility.yul\":525:558   */\n      tag_464\n      jump\t// in\n    tag_463:\n        /* \"#utility.yul\":425:564   */\n      swap3\n      swap2\n      pop\n      pop\n      jump\t// out\n        /* \"#utility.yul\":584:924   */\n    tag_465:\n        /* \"#utility.yul\":640:645   */\n      0x00\n        /* \"#utility.yul\":689:692   */\n      dup3\n        /* \"#utility.yul\":682:686   */\n      0x1f\n        /* \"#utility.yul\":674:680   */\n      dup4\n        /* \"#utility.yul\":670:687   */\n      add\n        /* \"#utility.yul\":666:693   */\n      slt\n        /* \"#utility.yul\":656:778   */\n      tag_467\n      jumpi\n        /* \"#utility.yul\":697:776   */\n      tag_468\n      tag_469\n      jump\t// in\n    tag_468:\n        /* \"#utility.yul\":656:778   */\n    tag_467:\n        /* \"#utility.yul\":814:820   */\n      dup2\n        /* \"#utility.yul\":801:821   */\n      calldataload\n        /* \"#utility.yul\":839:918   */\n      tag_470\n        /* \"#utility.yul\":914:917   */\n      dup5\n        /* \"#utility.yul\":906:912   */\n      dup3\n        /* \"#utility.yul\":899:903   */\n      0x20\n        /* \"#utility.yul\":891:897   */\n      dup7\n        /* \"#utility.yul\":887:904   */\n      add\n        /* \"#utility.yul\":839:918   */\n      tag_450\n      jump\t// in\n    tag_470:\n        /* \"#utility.yul\":830:918   */\n      swap2\n      pop\n        /* \"#utility.yul\":646:924   */\n      pop\n        /* \"#utility.yul\":584:924   */\n      swap3\n      swap2\n      pop\n      pop\n      jump\t// out\n        /* \"#utility.yul\":930:1069   */\n    tag_471:\n        /* \"#utility.yul\":976:981   */\n      0x00\n        /* \"#utility.yul\":1014:1020   */\n      dup2\n        /* \"#utility.yul\":1001:1021   */\n      calldataload\n        /* \"#utility.yul\":992:1021   */\n      swap1\n      pop\n        /* \"#utility.yul\":1030:1063   */\n      tag_473\n        /* \"#utility.yul\":1057:1062   */\n      dup2\n        /* \"#utility.yul\":1030:1063   */\n      tag_474\n      jump\t// in\n    tag_473:\n        /* \"#utility.yul\":930:1069   */\n      swap3\n      swap2\n      pop\n      pop\n      jump\t// out\n        /* \"#utility.yul\":1075:1212   */\n    tag_475:\n        /* \"#utility.yul\":1120:1125   */\n      0x00\n        /* \"#utility.yul\":1158:1164   */\n      dup2\n        /* \"#utility.yul\":1145:1165   */\n      calldataload\n        /* \"#utility.yul\":1136:1165   */\n      swap1\n      pop\n        /* \"#utility.yul\":1174:1206   */\n      tag_477\n        /* \"#utility.yul\":1200:1205   */\n      dup2\n        /* \"#utility.yul\":1174:1206   */\n      tag_478\n      jump\t// in\n    tag_477:\n        /* \"#utility.yul\":1075:1212   */\n      swap3\n      swap2\n      pop\n      pop\n      jump\t// out\n        /* \"#utility.yul\":1218:1547   */\n    tag_37:\n        /* \"#utility.yul\":1277:1283   */\n      0x00\n        /* \"#utility.yul\":1326:1328   */\n      0x20\n        /* \"#utility.yul\":1314:1323   */\n      dup3\n        /* \"#utility.yul\":1305:1312   */\n      dup5\n        /* \"#utility.yul\":1301:1324   */\n      sub\n        /* \"#utility.yul\":1297:1329   */\n      slt\n        /* \"#utility.yul\":1294:1413   */\n      iszero\n      tag_480\n      jumpi\n        /* \"#utility.yul\":1332:1411   */\n      tag_481\n      tag_482\n      jump\t// in\n    tag_481:\n        /* \"#utility.yul\":1294:1413   */\n    tag_480:\n        /* \"#utility.yul\":1452:1453   */\n      0x00\n        /* \"#utility.yul\":1477:1530   */\n      tag_483\n        /* \"#utility.yul\":1522:1529   */\n      dup5\n        /* \"#utility.yul\":1513:1519   */\n      dup3\n        /* \"#utility.yul\":1502:1511   */\n      dup6\n        /* \"#utility.yul\":1498:1520   */\n      add\n        /* \"#utility.yul\":1477:1530   */\n      tag_461\n      jump\t// in\n    tag_483:\n        /* \"#utility.yul\":1467:1530   */\n      swap2\n      pop\n        /* \"#utility.yul\":1423:1540   */\n      pop\n        /* \"#utility.yul\":1218:1547   */\n      swap3\n      swap2\n      pop\n      pop\n      jump\t// out\n        /* \"#utility.yul\":1553:2027   */\n    tag_114:\n        /* \"#utility.yul\":1621:1627   */\n      0x00\n        /* \"#utility.yul\":1629:1635   */\n      dup1\n        /* \"#utility.yul\":1678:1680   */\n      0x40\n        /* \"#utility.yul\":1666:1675   */\n      dup4\n        /* \"#utility.yul\":1657:1664   */\n      dup6\n        /* \"#utility.yul\":1653:1676   */\n      sub\n        /* \"#utility.yul\":1649:1681   */\n      slt\n        /* \"#utility.yul\":1646:1765   */\n      iszero\n      tag_485\n      jumpi\n        /* \"#utility.yul\":1684:1763   */\n      tag_486\n      tag_482\n      jump\t// in\n    tag_486:\n        /* \"#utility.yul\":1646:1765   */\n    tag_485:\n        /* \"#utility.yul\":1804:1805   */\n      0x00\n        /* \"#utility.yul\":1829:1882   */\n      tag_487\n        /* \"#utility.yul\":1874:1881   */\n      dup6\n        /* \"#utility.yul\":1865:1871   */\n      dup3\n        /* \"#utility.yul\":1854:1863   */\n      dup7\n        /* \"#utility.yul\":1850:1872   */\n      add\n        /* \"#utility.yul\":1829:1882   */\n      tag_461\n      jump\t// in\n    tag_487:\n        /* \"#utility.yul\":1819:1882   */\n      swap3\n      pop\n        /* \"#utility.yul\":1775:1892   */\n      pop\n        /* \"#utility.yul\":1931:1933   */\n      0x20\n        /* \"#utility.yul\":1957:2010   */\n      tag_488\n        /* \"#utility.yul\":2002:2009   */\n      dup6\n        /* \"#utility.yul\":1993:1999   */\n      dup3\n        /* \"#utility.yul\":1982:1991   */\n      dup7\n        /* \"#utility.yul\":1978:2000   */\n      add\n        /* \"#utility.yul\":1957:2010   */\n      tag_461\n      jump\t// in\n    tag_488:\n        /* \"#utility.yul\":1947:2010   */\n      swap2\n      pop\n        /* \"#utility.yul\":1902:2020   */\n      pop\n        /* \"#utility.yul\":1553:2027   */\n      swap3\n      pop\n      swap3\n      swap1\n      pop\n      jump\t// out\n        /* \"#utility.yul\":2033:2652   */\n    tag_47:\n        /* \"#utility.yul\":2110:2116   */\n      0x00\n        /* \"#utility.yul\":2118:2124   */\n      dup1\n        /* \"#utility.yul\":2126:2132   */\n      0x00\n        /* \"#utility.yul\":2175:2177   */\n      0x60\n        /* \"#utility.yul\":2163:2172   */\n      dup5\n        /* \"#utility.yul\":2154:2161   */\n      dup7\n        /* \"#utility.yul\":2150:2173   */\n      sub\n        /* \"#utility.yul\":2146:2178   */\n      slt\n        /* \"#utility.yul\":2143:2262   */\n      iszero\n      tag_490\n      jumpi\n        /* \"#utility.yul\":2181:2260   */\n      tag_491\n      tag_482\n      jump\t// in\n    tag_491:\n        /* \"#utility.yul\":2143:2262   */\n    tag_490:\n        /* \"#utility.yul\":2301:2302   */\n      0x00\n        /* \"#utility.yul\":2326:2379   */\n      tag_492\n        /* \"#utility.yul\":2371:2378   */\n      dup7\n        /* \"#utility.yul\":2362:2368   */\n      dup3\n        /* \"#utility.yul\":2351:2360   */\n      dup8\n        /* \"#utility.yul\":2347:2369   */\n      add\n        /* \"#utility.yul\":2326:2379   */\n      tag_461\n      jump\t// in\n    tag_492:\n        /* \"#utility.yul\":2316:2379   */\n      swap4\n      pop\n        /* \"#utility.yul\":2272:2389   */\n      pop\n        /* \"#utility.yul\":2428:2430   */\n      0x20\n        /* \"#utility.yul\":2454:2507   */\n      tag_493\n        /* \"#utility.yul\":2499:2506   */\n      dup7\n        /* \"#utility.yul\":2490:2496   */\n      dup3\n        /* \"#utility.yul\":2479:2488   */\n      dup8\n        /* \"#utility.yul\":2475:2497   */\n      add\n        /* \"#utility.yul\":2454:2507   */\n      tag_461\n      jump\t// in\n    tag_493:\n        /* \"#utility.yul\":2444:2507   */\n      swap3\n      pop\n        /* \"#utility.yul\":2399:2517   */\n      pop\n        /* \"#utility.yul\":2556:2558   */\n      0x40\n        /* \"#utility.yul\":2582:2635   */\n      tag_494\n        /* \"#utility.yul\":2627:2634   */\n      dup7\n        /* \"#utility.yul\":2618:2624   */\n      dup3\n        /* \"#utility.yul\":2607:2616   */\n      dup8\n        /* \"#utility.yul\":2603:2625   */\n      add\n        /* \"#utility.yul\":2582:2635   */\n      tag_471\n      jump\t// in\n    tag_494:\n        /* \"#utility.yul\":2572:2635   */\n      swap2\n      pop\n        /* \"#utility.yul\":2527:2645   */\n      pop\n        /* \"#utility.yul\":2033:2652   */\n      swap3\n      pop\n      swap3\n      pop\n      swap3\n      jump\t// out\n        /* \"#utility.yul\":2658:3637   */\n    tag_26:\n        /* \"#utility.yul\":2755:2761   */\n      0x00\n        /* \"#utility.yul\":2763:2769   */\n      dup1\n        /* \"#utility.yul\":2771:2777   */\n      0x00\n        /* \"#utility.yul\":2820:2822   */\n      0x60\n        /* \"#utility.yul\":2808:2817   */\n      dup5\n        /* \"#utility.yul\":2799:2806   */\n      dup7\n        /* \"#utility.yul\":2795:2818   */\n      sub\n        /* \"#utility.yul\":2791:2823   */\n      slt\n        /* \"#utility.yul\":2788:2907   */\n      iszero\n      tag_496\n      jumpi\n        /* \"#utility.yul\":2826:2905   */\n      tag_497\n      tag_482\n      jump\t// in\n    tag_497:\n        /* \"#utility.yul\":2788:2907   */\n    tag_496:\n        /* \"#utility.yul\":2946:2947   */\n      0x00\n        /* \"#utility.yul\":2971:3024   */\n      tag_498\n        /* \"#utility.yul\":3016:3023   */\n      dup7\n        /* \"#utility.yul\":3007:3013   */\n      dup3\n        /* \"#utility.yul\":2996:3005   */\n      dup8\n        /* \"#utility.yul\":2992:3014   */\n      add\n        /* \"#utility.yul\":2971:3024   */\n      tag_461\n      jump\t// in\n    tag_498:\n        /* \"#utility.yul\":2961:3024   */\n      swap4\n      pop\n        /* \"#utility.yul\":2917:3034   */\n      pop\n        /* \"#utility.yul\":3101:3103   */\n      0x20\n        /* \"#utility.yul\":3090:3099   */\n      dup5\n        /* \"#utility.yul\":3086:3104   */\n      add\n        /* \"#utility.yul\":3073:3105   */\n      calldataload\n        /* \"#utility.yul\":3132:3150   */\n      0xffffffffffffffff\n        /* \"#utility.yul\":3124:3130   */\n      dup2\n        /* \"#utility.yul\":3121:3151   */\n      gt\n        /* \"#utility.yul\":3118:3235   */\n      iszero\n      tag_499\n      jumpi\n        /* \"#utility.yul\":3154:3233   */\n      tag_500\n      tag_501\n      jump\t// in\n    tag_500:\n        /* \"#utility.yul\":3118:3235   */\n    tag_499:\n        /* \"#utility.yul\":3259:3322   */\n      tag_502\n        /* \"#utility.yul\":3314:3321   */\n      dup7\n        /* \"#utility.yul\":3305:3311   */\n      dup3\n        /* \"#utility.yul\":3294:3303   */\n      dup8\n        /* \"#utility.yul\":3290:3312   */\n      add\n        /* \"#utility.yul\":3259:3322   */\n      tag_465\n      jump\t// in\n    tag_502:\n        /* \"#utility.yul\":3249:3322   */\n      swap3\n      pop\n        /* \"#utility.yul\":3044:3332   */\n      pop\n        /* \"#utility.yul\":3399:3401   */\n      0x40\n        /* \"#utility.yul\":3388:3397   */\n      dup5\n        /* \"#utility.yul\":3384:3402   */\n      add\n        /* \"#utility.yul\":3371:3403   */\n      calldataload\n        /* \"#utility.yul\":3430:3448   */\n      0xffffffffffffffff\n        /* \"#utility.yul\":3422:3428   */\n      dup2\n        /* \"#utility.yul\":3419:3449   */\n      gt\n        /* \"#utility.yul\":3416:3533   */\n      iszero\n      tag_503\n      jumpi\n        /* \"#utility.yul\":3452:3531   */\n      tag_504\n      tag_501\n      jump\t// in\n    tag_504:\n        /* \"#utility.yul\":3416:3533   */\n    tag_503:\n        /* \"#utility.yul\":3557:3620   */\n      tag_505\n        /* \"#utility.yul\":3612:3619   */\n      dup7\n        /* \"#utility.yul\":3603:3609   */\n      dup3\n        /* \"#utility.yul\":3592:3601   */\n      dup8\n        /* \"#utility.yul\":3588:3610   */\n      add\n        /* \"#utility.yul\":3557:3620   */\n      tag_465\n      jump\t// in\n    tag_505:\n        /* \"#utility.yul\":3547:3620   */\n      swap2\n      pop\n        /* \"#utility.yul\":3342:3630   */\n      pop\n        /* \"#utility.yul\":2658:3637   */\n      swap3\n      pop\n      swap3\n      pop\n      swap3\n      jump\t// out\n        /* \"#utility.yul\":3643:4117   */\n    tag_32:\n        /* \"#utility.yul\":3711:3717   */\n      0x00\n        /* \"#utility.yul\":3719:3725   */\n      dup1\n        /* \"#utility.yul\":3768:3770   */\n      0x40\n        /* \"#utility.yul\":3756:3765   */\n      dup4\n        /* \"#utility.yul\":3747:3754   */\n      dup6\n        /* \"#utility.yul\":3743:3766   */\n      sub\n        /* \"#utility.yul\":3739:3771   */\n      slt\n        /* \"#utility.yul\":3736:3855   */\n      iszero\n      tag_507\n      jumpi\n        /* \"#utility.yul\":3774:3853   */\n      tag_508\n      tag_482\n      jump\t// in\n    tag_508:\n        /* \"#utility.yul\":3736:3855   */\n    tag_507:\n        /* \"#utility.yul\":3894:3895   */\n      0x00\n        /* \"#utility.yul\":3919:3972   */\n      tag_509\n        /* \"#utility.yul\":3964:3971   */\n      dup6\n        /* \"#utility.yul\":3955:3961   */\n      dup3\n        /* \"#utility.yul\":3944:3953   */\n      dup7\n        /* \"#utility.yul\":3940:3962   */\n      add\n        /* \"#utility.yul\":3919:3972   */\n      tag_461\n      jump\t// in\n    tag_509:\n        /* \"#utility.yul\":3909:3972   */\n      swap3\n      pop\n        /* \"#utility.yul\":3865:3982   */\n      pop\n        /* \"#utility.yul\":4021:4023   */\n      0x20\n        /* \"#utility.yul\":4047:4100   */\n      tag_510\n        /* \"#utility.yul\":4092:4099   */\n      dup6\n        /* \"#utility.yul\":4083:4089   */\n      dup3\n        /* \"#utility.yul\":4072:4081   */\n      dup7\n        /* \"#utility.yul\":4068:4090   */\n      add\n        /* \"#utility.yul\":4047:4100   */\n      tag_471\n      jump\t// in\n    tag_510:\n        /* \"#utility.yul\":4037:4100   */\n      swap2\n      pop\n        /* \"#utility.yul\":3992:4110   */\n      pop\n        /* \"#utility.yul\":3643:4117   */\n      swap3\n      pop\n      swap3\n      swap1\n      pop\n      jump\t// out\n        /* \"#utility.yul\":4123:5282   */\n    tag_52:\n        /* \"#utility.yul\":4230:4236   */\n      0x00\n        /* \"#utility.yul\":4238:4244   */\n      dup1\n        /* \"#utility.yul\":4246:4252   */\n      0x00\n        /* \"#utility.yul\":4295:4297   */\n      0x60\n        /* \"#utility.yul\":4283:4292   */\n      dup5\n        /* \"#utility.yul\":4274:4281   */\n      dup7\n        /* \"#utility.yul\":4270:4293   */\n      sub\n        /* \"#utility.yul\":4266:4298   */\n      slt\n        /* \"#utility.yul\":4263:4382   */\n      iszero\n      tag_512\n      jumpi\n        /* \"#utility.yul\":4301:4380   */\n      tag_513\n      tag_482\n      jump\t// in\n    tag_513:\n        /* \"#utility.yul\":4263:4382   */\n    tag_512:\n        /* \"#utility.yul\":4449:4450   */\n      0x00\n        /* \"#utility.yul\":4438:4447   */\n      dup5\n        /* \"#utility.yul\":4434:4451   */\n      add\n        /* \"#utility.yul\":4421:4452   */\n      calldataload\n        /* \"#utility.yul\":4479:4497   */\n      0xffffffffffffffff\n        /* \"#utility.yul\":4471:4477   */\n      dup2\n        /* \"#utility.yul\":4468:4498   */\n      gt\n        /* \"#utility.yul\":4465:4582   */\n      iszero\n      tag_514\n      jumpi\n        /* \"#utility.yul\":4501:4580   */\n      tag_515\n      tag_501\n      jump\t// in\n    tag_515:\n        /* \"#utility.yul\":4465:4582   */\n    tag_514:\n        /* \"#utility.yul\":4606:4669   */\n      tag_516\n        /* \"#utility.yul\":4661:4668   */\n      dup7\n        /* \"#utility.yul\":4652:4658   */\n      dup3\n        /* \"#utility.yul\":4641:4650   */\n      dup8\n        /* \"#utility.yul\":4637:4659   */\n      add\n        /* \"#utility.yul\":4606:4669   */\n      tag_465\n      jump\t// in\n    tag_516:\n        /* \"#utility.yul\":4596:4669   */\n      swap4\n      pop\n        /* \"#utility.yul\":4392:4679   */\n      pop\n        /* \"#utility.yul\":4746:4748   */\n      0x20\n        /* \"#utility.yul\":4735:4744   */\n      dup5\n        /* \"#utility.yul\":4731:4749   */\n      add\n        /* \"#utility.yul\":4718:4750   */\n      calldataload\n        /* \"#utility.yul\":4777:4795   */\n      0xffffffffffffffff\n        /* \"#utility.yul\":4769:4775   */\n      dup2\n        /* \"#utility.yul\":4766:4796   */\n      gt\n        /* \"#utility.yul\":4763:4880   */\n      iszero\n      tag_517\n      jumpi\n        /* \"#utility.yul\":4799:4878   */\n      tag_518\n      tag_501\n      jump\t// in\n    tag_518:\n        /* \"#utility.yul\":4763:4880   */\n    tag_517:\n        /* \"#utility.yul\":4904:4967   */\n      tag_519\n        /* \"#utility.yul\":4959:4966   */\n      dup7\n        /* \"#utility.yul\":4950:4956   */\n      dup3\n        /* \"#utility.yul\":4939:4948   */\n      dup8\n        /* \"#utility.yul\":4935:4957   */\n      add\n        /* \"#utility.yul\":4904:4967   */\n      tag_465\n      jump\t// in\n    tag_519:\n        /* \"#utility.yul\":4894:4967   */\n      swap3\n      pop\n        /* \"#utility.yul\":4689:4977   */\n      pop\n        /* \"#utility.yul\":5044:5046   */\n      0x40\n        /* \"#utility.yul\":5033:5042   */\n      dup5\n        /* \"#utility.yul\":5029:5047   */\n      add\n        /* \"#utility.yul\":5016:5048   */\n      calldataload\n        /* \"#utility.yul\":5075:5093   */\n      0xffffffffffffffff\n        /* \"#utility.yul\":5067:5073   */\n      dup2\n        /* \"#utility.yul\":5064:5094   */\n      gt\n        /* \"#utility.yul\":5061:5178   */\n      iszero\n      tag_520\n      jumpi\n        /* \"#utility.yul\":5097:5176   */\n      tag_521\n      tag_501\n      jump\t// in\n    tag_521:\n        /* \"#utility.yul\":5061:5178   */\n    tag_520:\n        /* \"#utility.yul\":5202:5265   */\n      tag_522\n        /* \"#utility.yul\":5257:5264   */\n      dup7\n        /* \"#utility.yul\":5248:5254   */\n      dup3\n        /* \"#utility.yul\":5237:5246   */\n      dup8\n        /* \"#utility.yul\":5233:5255   */\n      add\n        /* \"#utility.yul\":5202:5265   */\n      tag_465\n      jump\t// in\n    tag_522:\n        /* \"#utility.yul\":5192:5265   */\n      swap2\n      pop\n        /* \"#utility.yul\":4987:5275   */\n      pop\n        /* \"#utility.yul\":4123:5282   */\n      swap3\n      pop\n      swap3\n      pop\n      swap3\n      jump\t// out\n        /* \"#utility.yul\":5288:7029   */\n    tag_100:\n        /* \"#utility.yul\":5430:5436   */\n      0x00\n        /* \"#utility.yul\":5438:5444   */\n      dup1\n        /* \"#utility.yul\":5446:5452   */\n      0x00\n        /* \"#utility.yul\":5454:5460   */\n      dup1\n        /* \"#utility.yul\":5462:5468   */\n      0x00\n        /* \"#utility.yul\":5470:5476   */\n      dup1\n        /* \"#utility.yul\":5478:5484   */\n      0x00\n        /* \"#utility.yul\":5527:5530   */\n      0xe0\n        /* \"#utility.yul\":5515:5524   */\n      dup9\n        /* \"#utility.yul\":5506:5513   */\n      dup11\n        /* \"#utility.yul\":5502:5525   */\n      sub\n        /* \"#utility.yul\":5498:5531   */\n      slt\n        /* \"#utility.yul\":5495:5615   */\n      iszero\n      tag_524\n      jumpi\n        /* \"#utility.yul\":5534:5613   */\n      tag_525\n      tag_482\n      jump\t// in\n    tag_525:\n        /* \"#utility.yul\":5495:5615   */\n    tag_524:\n        /* \"#utility.yul\":5682:5683   */\n      0x00\n        /* \"#utility.yul\":5671:5680   */\n      dup9\n        /* \"#utility.yul\":5667:5684   */\n      add\n        /* \"#utility.yul\":5654:5685   */\n      calldataload\n        /* \"#utility.yul\":5712:5730   */\n      0xffffffffffffffff\n        /* \"#utility.yul\":5704:5710   */\n      dup2\n        /* \"#utility.yul\":5701:5731   */\n      gt\n        /* \"#utility.yul\":5698:5815   */\n      iszero\n      tag_526\n      jumpi\n        /* \"#utility.yul\":5734:5813   */\n      tag_527\n      tag_501\n      jump\t// in\n    tag_527:\n        /* \"#utility.yul\":5698:5815   */\n    tag_526:\n        /* \"#utility.yul\":5839:5902   */\n      tag_528\n        /* \"#utility.yul\":5894:5901   */\n      dup11\n        /* \"#utility.yul\":5885:5891   */\n      dup3\n        /* \"#utility.yul\":5874:5883   */\n      dup12\n        /* \"#utility.yul\":5870:5892   */\n      add\n        /* \"#utility.yul\":5839:5902   */\n      tag_465\n      jump\t// in\n    tag_528:\n        /* \"#utility.yul\":5829:5902   */\n      swap8\n      pop\n        /* \"#utility.yul\":5625:5912   */\n      pop\n        /* \"#utility.yul\":5979:5981   */\n      0x20\n        /* \"#utility.yul\":5968:5977   */\n      dup9\n        /* \"#utility.yul\":5964:5982   */\n      add\n        /* \"#utility.yul\":5951:5983   */\n      calldataload\n        /* \"#utility.yul\":6010:6028   */\n      0xffffffffffffffff\n        /* \"#utility.yul\":6002:6008   */\n      dup2\n        /* \"#utility.yul\":5999:6029   */\n      gt\n        /* \"#utility.yul\":5996:6113   */\n      iszero\n      tag_529\n      jumpi\n        /* \"#utility.yul\":6032:6111   */\n      tag_530\n      tag_501\n      jump\t// in\n    tag_530:\n        /* \"#utility.yul\":5996:6113   */\n    tag_529:\n        /* \"#utility.yul\":6137:6200   */\n      tag_531\n        /* \"#utility.yul\":6192:6199   */\n      dup11\n        /* \"#utility.yul\":6183:6189   */\n      dup3\n        /* \"#utility.yul\":6172:6181   */\n      dup12\n        /* \"#utility.yul\":6168:6190   */\n      add\n        /* \"#utility.yul\":6137:6200   */\n      tag_465\n      jump\t// in\n    tag_531:\n        /* \"#utility.yul\":6127:6200   */\n      swap7\n      pop\n        /* \"#utility.yul\":5922:6210   */\n      pop\n        /* \"#utility.yul\":6277:6279   */\n      0x40\n        /* \"#utility.yul\":6266:6275   */\n      dup9\n        /* \"#utility.yul\":6262:6280   */\n      add\n        /* \"#utility.yul\":6249:6281   */\n      calldataload\n        /* \"#utility.yul\":6308:6326   */\n      0xffffffffffffffff\n        /* \"#utility.yul\":6300:6306   */\n      dup2\n        /* \"#utility.yul\":6297:6327   */\n      gt\n        /* \"#utility.yul\":6294:6411   */\n      iszero\n      tag_532\n      jumpi\n        /* \"#utility.yul\":6330:6409   */\n      tag_533\n      tag_501\n      jump\t// in\n    tag_533:\n        /* \"#utility.yul\":6294:6411   */\n    tag_532:\n        /* \"#utility.yul\":6435:6498   */\n      tag_534\n        /* \"#utility.yul\":6490:6497   */\n      dup11\n        /* \"#utility.yul\":6481:6487   */\n      dup3\n        /* \"#utility.yul\":6470:6479   */\n      dup12\n        /* \"#utility.yul\":6466:6488   */\n      add\n        /* \"#utility.yul\":6435:6498   */\n      tag_465\n      jump\t// in\n    tag_534:\n        /* \"#utility.yul\":6425:6498   */\n      swap6\n      pop\n        /* \"#utility.yul\":6220:6508   */\n      pop\n        /* \"#utility.yul\":6547:6549   */\n      0x60\n        /* \"#utility.yul\":6573:6626   */\n      tag_535\n        /* \"#utility.yul\":6618:6625   */\n      dup11\n        /* \"#utility.yul\":6609:6615   */\n      dup3\n        /* \"#utility.yul\":6598:6607   */\n      dup12\n        /* \"#utility.yul\":6594:6616   */\n      add\n        /* \"#utility.yul\":6573:6626   */\n      tag_471\n      jump\t// in\n    tag_535:\n        /* \"#utility.yul\":6563:6626   */\n      swap5\n      pop\n        /* \"#utility.yul\":6518:6636   */\n      pop\n        /* \"#utility.yul\":6675:6678   */\n      0x80\n        /* \"#utility.yul\":6702:6755   */\n      tag_536\n        /* \"#utility.yul\":6747:6754   */\n      dup11\n        /* \"#utility.yul\":6738:6744   */\n      dup3\n        /* \"#utility.yul\":6727:6736   */\n      dup12\n        /* \"#utility.yul\":6723:6745   */\n      add\n        /* \"#utility.yul\":6702:6755   */\n      tag_471\n      jump\t// in\n    tag_536:\n        /* \"#utility.yul\":6692:6755   */\n      swap4\n      pop\n        /* \"#utility.yul\":6646:6765   */\n      pop\n        /* \"#utility.yul\":6804:6807   */\n      0xa0\n        /* \"#utility.yul\":6831:6883   */\n      tag_537\n        /* \"#utility.yul\":6875:6882   */\n      dup11\n        /* \"#utility.yul\":6866:6872   */\n      dup3\n        /* \"#utility.yul\":6855:6864   */\n      dup12\n        /* \"#utility.yul\":6851:6873   */\n      add\n        /* \"#utility.yul\":6831:6883   */\n      tag_475\n      jump\t// in\n    tag_537:\n        /* \"#utility.yul\":6821:6883   */\n      swap3\n      pop\n        /* \"#utility.yul\":6775:6893   */\n      pop\n        /* \"#utility.yul\":6932:6935   */\n      0xc0\n        /* \"#utility.yul\":6959:7012   */\n      tag_538\n        /* \"#utility.yul\":7004:7011   */\n      dup11\n        /* \"#utility.yul\":6995:7001   */\n      dup3\n        /* \"#utility.yul\":6984:6993   */\n      dup12\n        /* \"#utility.yul\":6980:7002   */\n      add\n        /* \"#utility.yul\":6959:7012   */\n      tag_471\n      jump\t// in\n    tag_538:\n        /* \"#utility.yul\":6949:7012   */\n      swap2\n      pop\n        /* \"#utility.yul\":6903:7022   */\n      pop\n        /* \"#utility.yul\":5288:7029   */\n      swap3\n      swap6\n      swap9\n      swap2\n      swap5\n      swap8\n      pop\n      swap3\n      swap6\n      pop\n      jump\t// out\n        /* \"#utility.yul\":7035:7364   */\n    tag_58:\n        /* \"#utility.yul\":7094:7100   */\n      0x00\n        /* \"#utility.yul\":7143:7145   */\n      0x20\n        /* \"#utility.yul\":7131:7140   */\n      dup3\n        /* \"#utility.yul\":7122:7129   */\n      dup5\n        /* \"#utility.yul\":7118:7141   */\n      sub\n        /* \"#utility.yul\":7114:7146   */\n      slt\n        /* \"#utility.yul\":7111:7230   */\n      iszero\n      tag_540\n      jumpi\n        /* \"#utility.yul\":7149:7228   */\n      tag_541\n      tag_482\n      jump\t// in\n    tag_541:\n        /* \"#utility.yul\":7111:7230   */\n    tag_540:\n        /* \"#utility.yul\":7269:7270   */\n      0x00\n        /* \"#utility.yul\":7294:7347   */\n      tag_542\n        /* \"#utility.yul\":7339:7346   */\n      dup5\n        /* \"#utility.yul\":7330:7336   */\n      dup3\n        /* \"#utility.yul\":7319:7328   */\n      dup6\n        /* \"#utility.yul\":7315:7337   */\n      add\n        /* \"#utility.yul\":7294:7347   */\n      tag_471\n      jump\t// in\n    tag_542:\n        /* \"#utility.yul\":7284:7347   */\n      swap2\n      pop\n        /* \"#utility.yul\":7240:7357   */\n      pop\n        /* \"#utility.yul\":7035:7364   */\n      swap3\n      swap2\n      pop\n      pop\n      jump\t// out\n        /* \"#utility.yul\":7370:7488   */\n    tag_543:\n        /* \"#utility.yul\":7457:7481   */\n      tag_545\n        /* \"#utility.yul\":7475:7480   */\n      dup2\n        /* \"#utility.yul\":7457:7481   */\n      tag_546\n      jump\t// in\n    tag_545:\n        /* \"#utility.yul\":7452:7455   */\n      dup3\n        /* \"#utility.yul\":7445:7482   */\n      mstore\n        /* \"#utility.yul\":7370:7488   */\n      pop\n      pop\n      jump\t// out\n        /* \"#utility.yul\":7494:7858   */\n    tag_547:\n        /* \"#utility.yul\":7582:7585   */\n      0x00\n        /* \"#utility.yul\":7610:7649   */\n      tag_549\n        /* \"#utility.yul\":7643:7648   */\n      dup3\n        /* \"#utility.yul\":7610:7649   */\n      tag_550\n      jump\t// in\n    tag_549:\n        /* \"#utility.yul\":7665:7736   */\n      tag_551\n        /* \"#utility.yul\":7729:7735   */\n      dup2\n        /* \"#utility.yul\":7724:7727   */\n      dup6\n        /* \"#utility.yul\":7665:7736   */\n      tag_552\n      jump\t// in\n    tag_551:\n        /* \"#utility.yul\":7658:7736   */\n      swap4\n      pop\n        /* \"#utility.yul\":7745:7797   */\n      tag_553\n        /* \"#utility.yul\":7790:7796   */\n      dup2\n        /* \"#utility.yul\":7785:7788   */\n      dup6\n        /* \"#utility.yul\":7778:7782   */\n      0x20\n        /* \"#utility.yul\":7771:7776   */\n      dup7\n        /* \"#utility.yul\":7767:7783   */\n      add\n        /* \"#utility.yul\":7745:7797   */\n      tag_554\n      jump\t// in\n    tag_553:\n        /* \"#utility.yul\":7822:7851   */\n      tag_555\n        /* \"#utility.yul\":7844:7850   */\n      dup2\n        /* \"#utility.yul\":7822:7851   */\n      tag_556\n      jump\t// in\n    tag_555:\n        /* \"#utility.yul\":7817:7820   */\n      dup5\n        /* \"#utility.yul\":7813:7852   */\n      add\n        /* \"#utility.yul\":7806:7852   */\n      swap2\n      pop\n        /* \"#utility.yul\":7586:7858   */\n      pop\n        /* \"#utility.yul\":7494:7858   */\n      swap3\n      swap2\n      pop\n      pop\n      jump\t// out\n        /* \"#utility.yul\":7888:8690   */\n    tag_557:\n        /* \"#utility.yul\":7973:7976   */\n      0x00\n        /* \"#utility.yul\":8010:8015   */\n      dup2\n        /* \"#utility.yul\":8004:8016   */\n      sload\n        /* \"#utility.yul\":8039:8075   */\n      tag_559\n        /* \"#utility.yul\":8065:8074   */\n      dup2\n        /* \"#utility.yul\":8039:8075   */\n      tag_316\n      jump\t// in\n    tag_559:\n        /* \"#utility.yul\":8091:8162   */\n      tag_560\n        /* \"#utility.yul\":8155:8161   */\n      dup2\n        /* \"#utility.yul\":8150:8153   */\n      dup7\n        /* \"#utility.yul\":8091:8162   */\n      tag_552\n      jump\t// in\n    tag_560:\n        /* \"#utility.yul\":8084:8162   */\n      swap5\n      pop\n        /* \"#utility.yul\":8193:8194   */\n      0x01\n        /* \"#utility.yul\":8182:8191   */\n      dup3\n        /* \"#utility.yul\":8178:8195   */\n      and\n        /* \"#utility.yul\":8209:8210   */\n      0x00\n        /* \"#utility.yul\":8204:8339   */\n      dup2\n      eq\n      tag_562\n      jumpi\n        /* \"#utility.yul\":8353:8354   */\n      0x01\n        /* \"#utility.yul\":8348:8684   */\n      dup2\n      eq\n      tag_563\n      jumpi\n        /* \"#utility.yul\":8171:8684   */\n      jump(tag_561)\n        /* \"#utility.yul\":8204:8339   */\n    tag_562:\n        /* \"#utility.yul\":8288:8292   */\n      0xff\n        /* \"#utility.yul\":8284:8293   */\n      not\n        /* \"#utility.yul\":8273:8282   */\n      dup4\n        /* \"#utility.yul\":8269:8294   */\n      and\n        /* \"#utility.yul\":8264:8267   */\n      dup7\n        /* \"#utility.yul\":8257:8295   */\n      mstore\n        /* \"#utility.yul\":8324:8328   */\n      0x20\n        /* \"#utility.yul\":8319:8322   */\n      dup7\n        /* \"#utility.yul\":8315:8329   */\n      add\n        /* \"#utility.yul\":8308:8329   */\n      swap4\n      pop\n        /* \"#utility.yul\":8204:8339   */\n      jump(tag_561)\n        /* \"#utility.yul\":8348:8684   */\n    tag_563:\n        /* \"#utility.yul\":8415:8453   */\n      tag_564\n        /* \"#utility.yul\":8447:8452   */\n      dup6\n        /* \"#utility.yul\":8415:8453   */\n      tag_565\n      jump\t// in\n    tag_564:\n        /* \"#utility.yul\":8475:8476   */\n      0x00\n        /* \"#utility.yul\":8489:8643   */\n    tag_566:\n        /* \"#utility.yul\":8503:8509   */\n      dup4\n        /* \"#utility.yul\":8500:8501   */\n      dup2\n        /* \"#utility.yul\":8497:8510   */\n      lt\n        /* \"#utility.yul\":8489:8643   */\n      iszero\n      tag_568\n      jumpi\n        /* \"#utility.yul\":8577:8584   */\n      dup2\n        /* \"#utility.yul\":8571:8585   */\n      sload\n        /* \"#utility.yul\":8567:8568   */\n      dup2\n        /* \"#utility.yul\":8562:8565   */\n      dup10\n        /* \"#utility.yul\":8558:8569   */\n      add\n        /* \"#utility.yul\":8551:8586   */\n      mstore\n        /* \"#utility.yul\":8627:8628   */\n      0x01\n        /* \"#utility.yul\":8618:8625   */\n      dup3\n        /* \"#utility.yul\":8614:8629   */\n      add\n        /* \"#utility.yul\":8603:8629   */\n      swap2\n      pop\n        /* \"#utility.yul\":8525:8529   */\n      0x20\n        /* \"#utility.yul\":8522:8523   */\n      dup2\n        /* \"#utility.yul\":8518:8530   */\n      add\n        /* \"#utility.yul\":8513:8530   */\n      swap1\n      pop\n        /* \"#utility.yul\":8489:8643   */\n      jump(tag_566)\n    tag_568:\n        /* \"#utility.yul\":8672:8673   */\n      dup1\n        /* \"#utility.yul\":8667:8670   */\n      dup9\n        /* \"#utility.yul\":8663:8674   */\n      add\n        /* \"#utility.yul\":8656:8674   */\n      swap6\n      pop\n        /* \"#utility.yul\":8355:8684   */\n      pop\n      pop\n        /* \"#utility.yul\":8171:8684   */\n    tag_561:\n      pop\n        /* \"#utility.yul\":7977:8690   */\n      pop\n      pop\n        /* \"#utility.yul\":7888:8690   */\n      swap3\n      swap2\n      pop\n      pop\n      jump\t// out\n        /* \"#utility.yul\":8696:9062   */\n    tag_569:\n        /* \"#utility.yul\":8838:8841   */\n      0x00\n        /* \"#utility.yul\":8859:8926   */\n      tag_571\n        /* \"#utility.yul\":8923:8925   */\n      0x28\n        /* \"#utility.yul\":8918:8921   */\n      dup4\n        /* \"#utility.yul\":8859:8926   */\n      tag_552\n      jump\t// in\n    tag_571:\n        /* \"#utility.yul\":8852:8926   */\n      swap2\n      pop\n        /* \"#utility.yul\":8935:9028   */\n      tag_572\n        /* \"#utility.yul\":9024:9027   */\n      dup3\n        /* \"#utility.yul\":8935:9028   */\n      tag_573\n      jump\t// in\n    tag_572:\n        /* \"#utility.yul\":9053:9055   */\n      0x40\n        /* \"#utility.yul\":9048:9051   */\n      dup3\n        /* \"#utility.yul\":9044:9056   */\n      add\n        /* \"#utility.yul\":9037:9056   */\n      swap1\n      pop\n        /* \"#utility.yul\":8696:9062   */\n      swap2\n      swap1\n      pop\n      jump\t// out\n        /* \"#utility.yul\":9068:9434   */\n    tag_574:\n        /* \"#utility.yul\":9210:9213   */\n      0x00\n        /* \"#utility.yul\":9231:9298   */\n      tag_576\n        /* \"#utility.yul\":9295:9297   */\n      0x26\n        /* \"#utility.yul\":9290:9293   */\n      dup4\n        /* \"#utility.yul\":9231:9298   */\n      tag_552\n      jump\t// in\n    tag_576:\n        /* \"#utility.yul\":9224:9298   */\n      swap2\n      pop\n        /* \"#utility.yul\":9307:9400   */\n      tag_577\n        /* \"#utility.yul\":9396:9399   */\n      dup3\n        /* \"#utility.yul\":9307:9400   */\n      tag_578\n      jump\t// in\n    tag_577:\n        /* \"#utility.yul\":9425:9427   */\n      0x40\n        /* \"#utility.yul\":9420:9423   */\n      dup3\n        /* \"#utility.yul\":9416:9428   */\n      add\n        /* \"#utility.yul\":9409:9428   */\n      swap1\n      pop\n        /* \"#utility.yul\":9068:9434   */\n      swap2\n      swap1\n      pop\n      jump\t// out\n        /* \"#utility.yul\":9440:9806   */\n    tag_579:\n        /* \"#utility.yul\":9582:9585   */\n      0x00\n        /* \"#utility.yul\":9603:9670   */\n      tag_581\n        /* \"#utility.yul\":9667:9669   */\n      0x32\n        /* \"#utility.yul\":9662:9665   */\n      dup4\n        /* \"#utility.yul\":9603:9670   */\n      tag_552\n      jump\t// in\n    tag_581:\n        /* \"#utility.yul\":9596:9670   */\n      swap2\n      pop\n        /* \"#utility.yul\":9679:9772   */\n      tag_582\n        /* \"#utility.yul\":9768:9771   */\n      dup3\n        /* \"#utility.yul\":9679:9772   */\n      tag_583\n      jump\t// in\n    tag_582:\n        /* \"#utility.yul\":9797:9799   */\n      0x40\n        /* \"#utility.yul\":9792:9795   */\n      dup3\n        /* \"#utility.yul\":9788:9800   */\n      add\n        /* \"#utility.yul\":9781:9800   */\n      swap1\n      pop\n        /* \"#utility.yul\":9440:9806   */\n      swap2\n      swap1\n      pop\n      jump\t// out\n        /* \"#utility.yul\":9812:10178   */\n    tag_584:\n        /* \"#utility.yul\":9954:9957   */\n      0x00\n        /* \"#utility.yul\":9975:10042   */\n      tag_586\n        /* \"#utility.yul\":10039:10041   */\n      0x20\n        /* \"#utility.yul\":10034:10037   */\n      dup4\n        /* \"#utility.yul\":9975:10042   */\n      tag_552\n      jump\t// in\n    tag_586:\n        /* \"#utility.yul\":9968:10042   */\n      swap2\n      pop\n        /* \"#utility.yul\":10051:10144   */\n      tag_587\n        /* \"#utility.yul\":10140:10143   */\n      dup3\n        /* \"#utility.yul\":10051:10144   */\n      tag_588\n      jump\t// in\n    tag_587:\n        /* \"#utility.yul\":10169:10171   */\n      0x20\n        /* \"#utility.yul\":10164:10167   */\n      dup3\n        /* \"#utility.yul\":10160:10172   */\n      add\n        /* \"#utility.yul\":10153:10172   */\n      swap1\n      pop\n        /* \"#utility.yul\":9812:10178   */\n      swap2\n      swap1\n      pop\n      jump\t// out\n        /* \"#utility.yul\":10184:10550   */\n    tag_589:\n        /* \"#utility.yul\":10326:10329   */\n      0x00\n        /* \"#utility.yul\":10347:10414   */\n      tag_591\n        /* \"#utility.yul\":10411:10413   */\n      0x15\n        /* \"#utility.yul\":10406:10409   */\n      dup4\n        /* \"#utility.yul\":10347:10414   */\n      tag_552\n      jump\t// in\n    tag_591:\n        /* \"#utility.yul\":10340:10414   */\n      swap2\n      pop\n        /* \"#utility.yul\":10423:10516   */\n      tag_592\n        /* \"#utility.yul\":10512:10515   */\n      dup3\n        /* \"#utility.yul\":10423:10516   */\n      tag_593\n      jump\t// in\n    tag_592:\n        /* \"#utility.yul\":10541:10543   */\n      0x20\n        /* \"#utility.yul\":10536:10539   */\n      dup3\n        /* \"#utility.yul\":10532:10544   */\n      add\n        /* \"#utility.yul\":10525:10544   */\n      swap1\n      pop\n        /* \"#utility.yul\":10184:10550   */\n      swap2\n      swap1\n      pop\n      jump\t// out\n        /* \"#utility.yul\":10556:10674   */\n    tag_594:\n        /* \"#utility.yul\":10643:10667   */\n      tag_596\n        /* \"#utility.yul\":10661:10666   */\n      dup2\n        /* \"#utility.yul\":10643:10667   */\n      tag_597\n      jump\t// in\n    tag_596:\n        /* \"#utility.yul\":10638:10641   */\n      dup3\n        /* \"#utility.yul\":10631:10668   */\n      mstore\n        /* \"#utility.yul\":10556:10674   */\n      pop\n      pop\n      jump\t// out\n        /* \"#utility.yul\":10680:10837   */\n    tag_598:\n        /* \"#utility.yul\":10785:10830   */\n      tag_600\n        /* \"#utility.yul\":10805:10829   */\n      tag_601\n        /* \"#utility.yul\":10823:10828   */\n      dup3\n        /* \"#utility.yul\":10805:10829   */\n      tag_597\n      jump\t// in\n    tag_601:\n        /* \"#utility.yul\":10785:10830   */\n      tag_602\n      jump\t// in\n    tag_600:\n        /* \"#utility.yul\":10780:10783   */\n      dup3\n        /* \"#utility.yul\":10773:10831   */\n      mstore\n        /* \"#utility.yul\":10680:10837   */\n      pop\n      pop\n      jump\t// out\n        /* \"#utility.yul\":10843:10958   */\n    tag_603:\n        /* \"#utility.yul\":10928:10951   */\n      tag_605\n        /* \"#utility.yul\":10945:10950   */\n      dup2\n        /* \"#utility.yul\":10928:10951   */\n      tag_606\n      jump\t// in\n    tag_605:\n        /* \"#utility.yul\":10923:10926   */\n      dup3\n        /* \"#utility.yul\":10916:10952   */\n      mstore\n        /* \"#utility.yul\":10843:10958   */\n      pop\n      pop\n      jump\t// out\n        /* \"#utility.yul\":10964:11502   */\n    tag_202:\n        /* \"#utility.yul\":11132:11135   */\n      0x00\n        /* \"#utility.yul\":11147:11222   */\n      tag_608\n        /* \"#utility.yul\":11218:11221   */\n      dup3\n        /* \"#utility.yul\":11209:11215   */\n      dup7\n        /* \"#utility.yul\":11147:11222   */\n      tag_598\n      jump\t// in\n    tag_608:\n        /* \"#utility.yul\":11247:11249   */\n      0x20\n        /* \"#utility.yul\":11242:11245   */\n      dup3\n        /* \"#utility.yul\":11238:11250   */\n      add\n        /* \"#utility.yul\":11231:11250   */\n      swap2\n      pop\n        /* \"#utility.yul\":11260:11335   */\n      tag_609\n        /* \"#utility.yul\":11331:11334   */\n      dup3\n        /* \"#utility.yul\":11322:11328   */\n      dup6\n        /* \"#utility.yul\":11260:11335   */\n      tag_598\n      jump\t// in\n    tag_609:\n        /* \"#utility.yul\":11360:11362   */\n      0x20\n        /* \"#utility.yul\":11355:11358   */\n      dup3\n        /* \"#utility.yul\":11351:11363   */\n      add\n        /* \"#utility.yul\":11344:11363   */\n      swap2\n      pop\n        /* \"#utility.yul\":11373:11448   */\n      tag_610\n        /* \"#utility.yul\":11444:11447   */\n      dup3\n        /* \"#utility.yul\":11435:11441   */\n      dup5\n        /* \"#utility.yul\":11373:11448   */\n      tag_598\n      jump\t// in\n    tag_610:\n        /* \"#utility.yul\":11473:11475   */\n      0x20\n        /* \"#utility.yul\":11468:11471   */\n      dup3\n        /* \"#utility.yul\":11464:11476   */\n      add\n        /* \"#utility.yul\":11457:11476   */\n      swap2\n      pop\n        /* \"#utility.yul\":11493:11496   */\n      dup2\n        /* \"#utility.yul\":11486:11496   */\n      swap1\n      pop\n        /* \"#utility.yul\":10964:11502   */\n      swap5\n      swap4\n      pop\n      pop\n      pop\n      pop\n      jump\t// out\n        /* \"#utility.yul\":11508:11730   */\n    tag_61:\n        /* \"#utility.yul\":11601:11605   */\n      0x00\n        /* \"#utility.yul\":11639:11641   */\n      0x20\n        /* \"#utility.yul\":11628:11637   */\n      dup3\n        /* \"#utility.yul\":11624:11642   */\n      add\n        /* \"#utility.yul\":11616:11642   */\n      swap1\n      pop\n        /* \"#utility.yul\":11652:11723   */\n      tag_612\n        /* \"#utility.yul\":11720:11721   */\n      0x00\n        /* \"#utility.yul\":11709:11718   */\n      dup4\n        /* \"#utility.yul\":11705:11722   */\n      add\n        /* \"#utility.yul\":11696:11702   */\n      dup5\n        /* \"#utility.yul\":11652:11723   */\n      tag_543\n      jump\t// in\n    tag_612:\n        /* \"#utility.yul\":11508:11730   */\n      swap3\n      swap2\n      pop\n      pop\n      jump\t// out\n        /* \"#utility.yul\":11736:13002   */\n    tag_96:\n        /* \"#utility.yul\":12083:12087   */\n      0x00\n        /* \"#utility.yul\":12121:12124   */\n      0x0100\n        /* \"#utility.yul\":12110:12119   */\n      dup3\n        /* \"#utility.yul\":12106:12125   */\n      add\n        /* \"#utility.yul\":12098:12125   */\n      swap1\n      pop\n        /* \"#utility.yul\":12135:12206   */\n      tag_614\n        /* \"#utility.yul\":12203:12204   */\n      0x00\n        /* \"#utility.yul\":12192:12201   */\n      dup4\n        /* \"#utility.yul\":12188:12205   */\n      add\n        /* \"#utility.yul\":12179:12185   */\n      dup12\n        /* \"#utility.yul\":12135:12206   */\n      tag_543\n      jump\t// in\n    tag_614:\n        /* \"#utility.yul\":12253:12262   */\n      dup2\n        /* \"#utility.yul\":12247:12251   */\n      dup2\n        /* \"#utility.yul\":12243:12263   */\n      sub\n        /* \"#utility.yul\":12238:12240   */\n      0x20\n        /* \"#utility.yul\":12227:12236   */\n      dup4\n        /* \"#utility.yul\":12223:12241   */\n      add\n        /* \"#utility.yul\":12216:12264   */\n      mstore\n        /* \"#utility.yul\":12281:12359   */\n      tag_615\n        /* \"#utility.yul\":12354:12358   */\n      dup2\n        /* \"#utility.yul\":12345:12351   */\n      dup11\n        /* \"#utility.yul\":12281:12359   */\n      tag_547\n      jump\t// in\n    tag_615:\n        /* \"#utility.yul\":12273:12359   */\n      swap1\n      pop\n        /* \"#utility.yul\":12406:12415   */\n      dup2\n        /* \"#utility.yul\":12400:12404   */\n      dup2\n        /* \"#utility.yul\":12396:12416   */\n      sub\n        /* \"#utility.yul\":12391:12393   */\n      0x40\n        /* \"#utility.yul\":12380:12389   */\n      dup4\n        /* \"#utility.yul\":12376:12394   */\n      add\n        /* \"#utility.yul\":12369:12417   */\n      mstore\n        /* \"#utility.yul\":12434:12512   */\n      tag_616\n        /* \"#utility.yul\":12507:12511   */\n      dup2\n        /* \"#utility.yul\":12498:12504   */\n      dup10\n        /* \"#utility.yul\":12434:12512   */\n      tag_547\n      jump\t// in\n    tag_616:\n        /* \"#utility.yul\":12426:12512   */\n      swap1\n      pop\n        /* \"#utility.yul\":12559:12568   */\n      dup2\n        /* \"#utility.yul\":12553:12557   */\n      dup2\n        /* \"#utility.yul\":12549:12569   */\n      sub\n        /* \"#utility.yul\":12544:12546   */\n      0x60\n        /* \"#utility.yul\":12533:12542   */\n      dup4\n        /* \"#utility.yul\":12529:12547   */\n      add\n        /* \"#utility.yul\":12522:12570   */\n      mstore\n        /* \"#utility.yul\":12587:12665   */\n      tag_617\n        /* \"#utility.yul\":12660:12664   */\n      dup2\n        /* \"#utility.yul\":12651:12657   */\n      dup9\n        /* \"#utility.yul\":12587:12665   */\n      tag_547\n      jump\t// in\n    tag_617:\n        /* \"#utility.yul\":12579:12665   */\n      swap1\n      pop\n        /* \"#utility.yul\":12675:12748   */\n      tag_618\n        /* \"#utility.yul\":12743:12746   */\n      0x80\n        /* \"#utility.yul\":12732:12741   */\n      dup4\n        /* \"#utility.yul\":12728:12747   */\n      add\n        /* \"#utility.yul\":12719:12725   */\n      dup8\n        /* \"#utility.yul\":12675:12748   */\n      tag_594\n      jump\t// in\n    tag_618:\n        /* \"#utility.yul\":12758:12831   */\n      tag_619\n        /* \"#utility.yul\":12826:12829   */\n      0xa0\n        /* \"#utility.yul\":12815:12824   */\n      dup4\n        /* \"#utility.yul\":12811:12830   */\n      add\n        /* \"#utility.yul\":12802:12808   */\n      dup7\n        /* \"#utility.yul\":12758:12831   */\n      tag_594\n      jump\t// in\n    tag_619:\n        /* \"#utility.yul\":12841:12914   */\n      tag_620\n        /* \"#utility.yul\":12909:12912   */\n      0xc0\n        /* \"#utility.yul\":12898:12907   */\n      dup4\n        /* \"#utility.yul\":12894:12913   */\n      add\n        /* \"#utility.yul\":12885:12891   */\n      dup6\n        /* \"#utility.yul\":12841:12914   */\n      tag_594\n      jump\t// in\n    tag_620:\n        /* \"#utility.yul\":12924:12995   */\n      tag_621\n        /* \"#utility.yul\":12990:12993   */\n      0xe0\n        /* \"#utility.yul\":12979:12988   */\n      dup4\n        /* \"#utility.yul\":12975:12994   */\n      add\n        /* \"#utility.yul\":12966:12972   */\n      dup5\n        /* \"#utility.yul\":12924:12995   */\n      tag_603\n      jump\t// in\n    tag_621:\n        /* \"#utility.yul\":11736:13002   */\n      swap10\n      swap9\n      pop\n      pop\n      pop\n      pop\n      pop\n      pop\n      pop\n      pop\n      pop\n      jump\t// out\n        /* \"#utility.yul\":13008:13321   */\n    tag_29:\n        /* \"#utility.yul\":13121:13125   */\n      0x00\n        /* \"#utility.yul\":13159:13161   */\n      0x20\n        /* \"#utility.yul\":13148:13157   */\n      dup3\n        /* \"#utility.yul\":13144:13162   */\n      add\n        /* \"#utility.yul\":13136:13162   */\n      swap1\n      pop\n        /* \"#utility.yul\":13208:13217   */\n      dup2\n        /* \"#utility.yul\":13202:13206   */\n      dup2\n        /* \"#utility.yul\":13198:13218   */\n      sub\n        /* \"#utility.yul\":13194:13195   */\n      0x00\n        /* \"#utility.yul\":13183:13192   */\n      dup4\n        /* \"#utility.yul\":13179:13196   */\n      add\n        /* \"#utility.yul\":13172:13219   */\n      mstore\n        /* \"#utility.yul\":13236:13314   */\n      tag_623\n        /* \"#utility.yul\":13309:13313   */\n      dup2\n        /* \"#utility.yul\":13300:13306   */\n      dup5\n        /* \"#utility.yul\":13236:13314   */\n      tag_547\n      jump\t// in\n    tag_623:\n        /* \"#utility.yul\":13228:13314   */\n      swap1\n      pop\n        /* \"#utility.yul\":13008:13321   */\n      swap3\n      swap2\n      pop\n      pop\n      jump\t// out\n        /* \"#utility.yul\":13327:14157   */\n    tag_367:\n        /* \"#utility.yul\":13564:13568   */\n      0x00\n        /* \"#utility.yul\":13602:13605   */\n      0xa0\n        /* \"#utility.yul\":13591:13600   */\n      dup3\n        /* \"#utility.yul\":13587:13606   */\n      add\n        /* \"#utility.yul\":13579:13606   */\n      swap1\n      pop\n        /* \"#utility.yul\":13652:13661   */\n      dup2\n        /* \"#utility.yul\":13646:13650   */\n      dup2\n        /* \"#utility.yul\":13642:13662   */\n      sub\n        /* \"#utility.yul\":13638:13639   */\n      0x00\n        /* \"#utility.yul\":13627:13636   */\n      dup4\n        /* \"#utility.yul\":13623:13640   */\n      add\n        /* \"#utility.yul\":13616:13663   */\n      mstore\n        /* \"#utility.yul\":13680:13755   */\n      tag_625\n        /* \"#utility.yul\":13750:13754   */\n      dup2\n        /* \"#utility.yul\":13741:13747   */\n      dup9\n        /* \"#utility.yul\":13680:13755   */\n      tag_557\n      jump\t// in\n    tag_625:\n        /* \"#utility.yul\":13672:13755   */\n      swap1\n      pop\n        /* \"#utility.yul\":13802:13811   */\n      dup2\n        /* \"#utility.yul\":13796:13800   */\n      dup2\n        /* \"#utility.yul\":13792:13812   */\n      sub\n        /* \"#utility.yul\":13787:13789   */\n      0x20\n        /* \"#utility.yul\":13776:13785   */\n      dup4\n        /* \"#utility.yul\":13772:13790   */\n      add\n        /* \"#utility.yul\":13765:13813   */\n      mstore\n        /* \"#utility.yul\":13830:13905   */\n      tag_626\n        /* \"#utility.yul\":13900:13904   */\n      dup2\n        /* \"#utility.yul\":13891:13897   */\n      dup8\n        /* \"#utility.yul\":13830:13905   */\n      tag_557\n      jump\t// in\n    tag_626:\n        /* \"#utility.yul\":13822:13905   */\n      swap1\n      pop\n        /* \"#utility.yul\":13915:13985   */\n      tag_627\n        /* \"#utility.yul\":13981:13983   */\n      0x40\n        /* \"#utility.yul\":13970:13979   */\n      dup4\n        /* \"#utility.yul\":13966:13984   */\n      add\n        /* \"#utility.yul\":13957:13963   */\n      dup7\n        /* \"#utility.yul\":13915:13985   */\n      tag_603\n      jump\t// in\n    tag_627:\n        /* \"#utility.yul\":13995:14067   */\n      tag_628\n        /* \"#utility.yul\":14063:14065   */\n      0x60\n        /* \"#utility.yul\":14052:14061   */\n      dup4\n        /* \"#utility.yul\":14048:14066   */\n      add\n        /* \"#utility.yul\":14039:14045   */\n      dup6\n        /* \"#utility.yul\":13995:14067   */\n      tag_594\n      jump\t// in\n    tag_628:\n        /* \"#utility.yul\":14077:14150   */\n      tag_629\n        /* \"#utility.yul\":14145:14148   */\n      0x80\n        /* \"#utility.yul\":14134:14143   */\n      dup4\n        /* \"#utility.yul\":14130:14149   */\n      add\n        /* \"#utility.yul\":14121:14127   */\n      dup5\n        /* \"#utility.yul\":14077:14150   */\n      tag_594\n      jump\t// in\n    tag_629:\n        /* \"#utility.yul\":13327:14157   */\n      swap7\n      swap6\n      pop\n      pop\n      pop\n      pop\n      pop\n      pop\n      jump\t// out\n        /* \"#utility.yul\":14163:14582   */\n    tag_166:\n        /* \"#utility.yul\":14329:14333   */\n      0x00\n        /* \"#utility.yul\":14367:14369   */\n      0x20\n        /* \"#utility.yul\":14356:14365   */\n      dup3\n        /* \"#utility.yul\":14352:14370   */\n      add\n        /* \"#utility.yul\":14344:14370   */\n      swap1\n      pop\n        /* \"#utility.yul\":14416:14425   */\n      dup2\n        /* \"#utility.yul\":14410:14414   */\n      dup2\n        /* \"#utility.yul\":14406:14426   */\n      sub\n        /* \"#utility.yul\":14402:14403   */\n      0x00\n        /* \"#utility.yul\":14391:14400   */\n      dup4\n        /* \"#utility.yul\":14387:14404   */\n      add\n        /* \"#utility.yul\":14380:14427   */\n      mstore\n        /* \"#utility.yul\":14444:14575   */\n      tag_631\n        /* \"#utility.yul\":14570:14574   */\n      dup2\n        /* \"#utility.yul\":14444:14575   */\n      tag_569\n      jump\t// in\n    tag_631:\n        /* \"#utility.yul\":14436:14575   */\n      swap1\n      pop\n        /* \"#utility.yul\":14163:14582   */\n      swap2\n      swap1\n      pop\n      jump\t// out\n        /* \"#utility.yul\":14588:15007   */\n    tag_377:\n        /* \"#utility.yul\":14754:14758   */\n      0x00\n        /* \"#utility.yul\":14792:14794   */\n      0x20\n        /* \"#utility.yul\":14781:14790   */\n      dup3\n        /* \"#utility.yul\":14777:14795   */\n      add\n        /* \"#utility.yul\":14769:14795   */\n      swap1\n      pop\n        /* \"#utility.yul\":14841:14850   */\n      dup2\n        /* \"#utility.yul\":14835:14839   */\n      dup2\n        /* \"#utility.yul\":14831:14851   */\n      sub\n        /* \"#utility.yul\":14827:14828   */\n      0x00\n        /* \"#utility.yul\":14816:14825   */\n      dup4\n        /* \"#utility.yul\":14812:14829   */\n      add\n        /* \"#utility.yul\":14805:14852   */\n      mstore\n        /* \"#utility.yul\":14869:15000   */\n      tag_633\n        /* \"#utility.yul\":14995:14999   */\n      dup2\n        /* \"#utility.yul\":14869:15000   */\n      tag_574\n      jump\t// in\n    tag_633:\n        /* \"#utility.yul\":14861:15000   */\n      swap1\n      pop\n        /* \"#utility.yul\":14588:15007   */\n      swap2\n      swap1\n      pop\n      jump\t// out\n        /* \"#utility.yul\":15013:15432   */\n    tag_197:\n        /* \"#utility.yul\":15179:15183   */\n      0x00\n        /* \"#utility.yul\":15217:15219   */\n      0x20\n        /* \"#utility.yul\":15206:15215   */\n      dup3\n        /* \"#utility.yul\":15202:15220   */\n      add\n        /* \"#utility.yul\":15194:15220   */\n      swap1\n      pop\n        /* \"#utility.yul\":15266:15275   */\n      dup2\n        /* \"#utility.yul\":15260:15264   */\n      dup2\n        /* \"#utility.yul\":15256:15276   */\n      sub\n        /* \"#utility.yul\":15252:15253   */\n      0x00\n        /* \"#utility.yul\":15241:15250   */\n      dup4\n        /* \"#utility.yul\":15237:15254   */\n      add\n        /* \"#utility.yul\":15230:15277   */\n      mstore\n        /* \"#utility.yul\":15294:15425   */\n      tag_635\n        /* \"#utility.yul\":15420:15424   */\n      dup2\n        /* \"#utility.yul\":15294:15425   */\n      tag_579\n      jump\t// in\n    tag_635:\n        /* \"#utility.yul\":15286:15425   */\n      swap1\n      pop\n        /* \"#utility.yul\":15013:15432   */\n      swap2\n      swap1\n      pop\n      jump\t// out\n        /* \"#utility.yul\":15438:15857   */\n    tag_308:\n        /* \"#utility.yul\":15604:15608   */\n      0x00\n        /* \"#utility.yul\":15642:15644   */\n      0x20\n        /* \"#utility.yul\":15631:15640   */\n      dup3\n        /* \"#utility.yul\":15627:15645   */\n      add\n        /* \"#utility.yul\":15619:15645   */\n      swap1\n      pop\n        /* \"#utility.yul\":15691:15700   */\n      dup2\n        /* \"#utility.yul\":15685:15689   */\n      dup2\n        /* \"#utility.yul\":15681:15701   */\n      sub\n        /* \"#utility.yul\":15677:15678   */\n      0x00\n        /* \"#utility.yul\":15666:15675   */\n      dup4\n        /* \"#utility.yul\":15662:15679   */\n      add\n        /* \"#utility.yul\":15655:15702   */\n      mstore\n        /* \"#utility.yul\":15719:15850   */\n      tag_637\n        /* \"#utility.yul\":15845:15849   */\n      dup2\n        /* \"#utility.yul\":15719:15850   */\n      tag_584\n      jump\t// in\n    tag_637:\n        /* \"#utility.yul\":15711:15850   */\n      swap1\n      pop\n        /* \"#utility.yul\":15438:15857   */\n      swap2\n      swap1\n      pop\n      jump\t// out\n        /* \"#utility.yul\":15863:16282   */\n    tag_254:\n        /* \"#utility.yul\":16029:16033   */\n      0x00\n        /* \"#utility.yul\":16067:16069   */\n      0x20\n        /* \"#utility.yul\":16056:16065   */\n      dup3\n        /* \"#utility.yul\":16052:16070   */\n      add\n        /* \"#utility.yul\":16044:16070   */\n      swap1\n      pop\n        /* \"#utility.yul\":16116:16125   */\n      dup2\n        /* \"#utility.yul\":16110:16114   */\n      dup2\n        /* \"#utility.yul\":16106:16126   */\n      sub\n        /* \"#utility.yul\":16102:16103   */\n      0x00\n        /* \"#utility.yul\":16091:16100   */\n      dup4\n        /* \"#utility.yul\":16087:16104   */\n      add\n        /* \"#utility.yul\":16080:16127   */\n      mstore\n        /* \"#utility.yul\":16144:16275   */\n      tag_639\n        /* \"#utility.yul\":16270:16274   */\n      dup2\n        /* \"#utility.yul\":16144:16275   */\n      tag_589\n      jump\t// in\n    tag_639:\n        /* \"#utility.yul\":16136:16275   */\n      swap1\n      pop\n        /* \"#utility.yul\":15863:16282   */\n      swap2\n      swap1\n      pop\n      jump\t// out\n        /* \"#utility.yul\":16288:16510   */\n    tag_44:\n        /* \"#utility.yul\":16381:16385   */\n      0x00\n        /* \"#utility.yul\":16419:16421   */\n      0x20\n        /* \"#utility.yul\":16408:16417   */\n      dup3\n        /* \"#utility.yul\":16404:16422   */\n      add\n        /* \"#utility.yul\":16396:16422   */\n      swap1\n      pop\n        /* \"#utility.yul\":16432:16503   */\n      tag_641\n        /* \"#utility.yul\":16500:16501   */\n      0x00\n        /* \"#utility.yul\":16489:16498   */\n      dup4\n        /* \"#utility.yul\":16485:16502   */\n      add\n        /* \"#utility.yul\":16476:16482   */\n      dup5\n        /* \"#utility.yul\":16432:16503   */\n      tag_594\n      jump\t// in\n    tag_641:\n        /* \"#utility.yul\":16288:16510   */\n      swap3\n      swap2\n      pop\n      pop\n      jump\t// out\n        /* \"#utility.yul\":16516:16645   */\n    tag_455:\n        /* \"#utility.yul\":16550:16556   */\n      0x00\n        /* \"#utility.yul\":16577:16597   */\n      tag_643\n      tag_644\n      jump\t// in\n    tag_643:\n        /* \"#utility.yul\":16567:16597   */\n      swap1\n      pop\n        /* \"#utility.yul\":16606:16639   */\n      tag_645\n        /* \"#utility.yul\":16634:16638   */\n      dup3\n        /* \"#utility.yul\":16626:16632   */\n      dup3\n        /* \"#utility.yul\":16606:16639   */\n      tag_646\n      jump\t// in\n    tag_645:\n        /* \"#utility.yul\":16516:16645   */\n      swap2\n      swap1\n      pop\n      jump\t// out\n        /* \"#utility.yul\":16651:16726   */\n    tag_644:\n        /* \"#utility.yul\":16684:16690   */\n      0x00\n        /* \"#utility.yul\":16717:16719   */\n      0x40\n        /* \"#utility.yul\":16711:16720   */\n      mload\n        /* \"#utility.yul\":16701:16720   */\n      swap1\n      pop\n        /* \"#utility.yul\":16651:16726   */\n      swap1\n      jump\t// out\n        /* \"#utility.yul\":16732:17040   */\n    tag_454:\n        /* \"#utility.yul\":16794:16798   */\n      0x00\n        /* \"#utility.yul\":16884:16902   */\n      0xffffffffffffffff\n        /* \"#utility.yul\":16876:16882   */\n      dup3\n        /* \"#utility.yul\":16873:16903   */\n      gt\n        /* \"#utility.yul\":16870:16926   */\n      iszero\n      tag_649\n      jumpi\n        /* \"#utility.yul\":16906:16924   */\n      tag_650\n      tag_651\n      jump\t// in\n    tag_650:\n        /* \"#utility.yul\":16870:16926   */\n    tag_649:\n        /* \"#utility.yul\":16944:16973   */\n      tag_652\n        /* \"#utility.yul\":16966:16972   */\n      dup3\n        /* \"#utility.yul\":16944:16973   */\n      tag_556\n      jump\t// in\n    tag_652:\n        /* \"#utility.yul\":16936:16973   */\n      swap1\n      pop\n        /* \"#utility.yul\":17028:17032   */\n      0x20\n        /* \"#utility.yul\":17022:17026   */\n      dup2\n        /* \"#utility.yul\":17018:17033   */\n      add\n        /* \"#utility.yul\":17010:17033   */\n      swap1\n      pop\n        /* \"#utility.yul\":16732:17040   */\n      swap2\n      swap1\n      pop\n      jump\t// out\n        /* \"#utility.yul\":17046:17187   */\n    tag_565:\n        /* \"#utility.yul\":17095:17099   */\n      0x00\n        /* \"#utility.yul\":17118:17121   */\n      dup2\n        /* \"#utility.yul\":17110:17121   */\n      swap1\n      pop\n        /* \"#utility.yul\":17141:17144   */\n      dup2\n        /* \"#utility.yul\":17138:17139   */\n      0x00\n        /* \"#utility.yul\":17131:17145   */\n      mstore\n        /* \"#utility.yul\":17175:17179   */\n      0x20\n        /* \"#utility.yul\":17172:17173   */\n      0x00\n        /* \"#utility.yul\":17162:17180   */\n      keccak256\n        /* \"#utility.yul\":17154:17180   */\n      swap1\n      pop\n        /* \"#utility.yul\":17046:17187   */\n      swap2\n      swap1\n      pop\n      jump\t// out\n        /* \"#utility.yul\":17193:17292   */\n    tag_550:\n        /* \"#utility.yul\":17245:17251   */\n      0x00\n        /* \"#utility.yul\":17279:17284   */\n      dup2\n        /* \"#utility.yul\":17273:17285   */\n      mload\n        /* \"#utility.yul\":17263:17285   */\n      swap1\n      pop\n        /* \"#utility.yul\":17193:17292   */\n      swap2\n      swap1\n      pop\n      jump\t// out\n        /* \"#utility.yul\":17298:17467   */\n    tag_552:\n        /* \"#utility.yul\":17382:17393   */\n      0x00\n        /* \"#utility.yul\":17416:17422   */\n      dup3\n        /* \"#utility.yul\":17411:17414   */\n      dup3\n        /* \"#utility.yul\":17404:17423   */\n      mstore\n        /* \"#utility.yul\":17456:17460   */\n      0x20\n        /* \"#utility.yul\":17451:17454   */\n      dup3\n        /* \"#utility.yul\":17447:17461   */\n      add\n        /* \"#utility.yul\":17432:17461   */\n      swap1\n      pop\n        /* \"#utility.yul\":17298:17467   */\n      swap3\n      swap2\n      pop\n      pop\n      jump\t// out\n        /* \"#utility.yul\":17473:17778   */\n    tag_169:\n        /* \"#utility.yul\":17513:17516   */\n      0x00\n        /* \"#utility.yul\":17532:17552   */\n      tag_657\n        /* \"#utility.yul\":17550:17551   */\n      dup3\n        /* \"#utility.yul\":17532:17552   */\n      tag_597\n      jump\t// in\n    tag_657:\n        /* \"#utility.yul\":17527:17552   */\n      swap2\n      pop\n        /* \"#utility.yul\":17566:17586   */\n      tag_658\n        /* \"#utility.yul\":17584:17585   */\n      dup4\n        /* \"#utility.yul\":17566:17586   */\n      tag_597\n      jump\t// in\n    tag_658:\n        /* \"#utility.yul\":17561:17586   */\n      swap3\n      pop\n        /* \"#utility.yul\":17720:17721   */\n      dup3\n        /* \"#utility.yul\":17652:17718   */\n      0xffffffffffffffffffffffffffffffffffffffffffffffffffffffffffffffff\n        /* \"#utility.yul\":17648:17722   */\n      sub\n        /* \"#utility.yul\":17645:17646   */\n      dup3\n        /* \"#utility.yul\":17642:17723   */\n      gt\n        /* \"#utility.yul\":17639:17746   */\n      iszero\n      tag_659\n      jumpi\n        /* \"#utility.yul\":17726:17744   */\n      tag_660\n      tag_661\n      jump\t// in\n    tag_660:\n        /* \"#utility.yul\":17639:17746   */\n    tag_659:\n        /* \"#utility.yul\":17770:17771   */\n      dup3\n        /* \"#utility.yul\":17767:17768   */\n      dup3\n        /* \"#utility.yul\":17763:17772   */\n      add\n        /* \"#utility.yul\":17756:17772   */\n      swap1\n      pop\n        /* \"#utility.yul\":17473:17778   */\n      swap3\n      swap2\n      pop\n      pop\n      jump\t// out\n        /* \"#utility.yul\":17784:17975   */\n    tag_177:\n        /* \"#utility.yul\":17824:17828   */\n      0x00\n        /* \"#utility.yul\":17844:17864   */\n      tag_663\n        /* \"#utility.yul\":17862:17863   */\n      dup3\n        /* \"#utility.yul\":17844:17864   */\n      tag_597\n      jump\t// in\n    tag_663:\n        /* \"#utility.yul\":17839:17864   */\n      swap2\n      pop\n        /* \"#utility.yul\":17878:17898   */\n      tag_664\n        /* \"#utility.yul\":17896:17897   */\n      dup4\n        /* \"#utility.yul\":17878:17898   */\n      tag_597\n      jump\t// in\n    tag_664:\n        /* \"#utility.yul\":17873:17898   */\n      swap3\n      pop\n        /* \"#utility.yul\":17917:17918   */\n      dup3\n        /* \"#utility.yul\":17914:17915   */\n      dup3\n        /* \"#utility.yul\":17911:17919   */\n      lt\n        /* \"#utility.yul\":17908:17942   */\n      iszero\n      tag_665\n      jumpi\n        /* \"#utility.yul\":17922:17940   */\n      tag_666\n      tag_661\n      jump\t// in\n    tag_666:\n        /* \"#utility.yul\":17908:17942   */\n    tag_665:\n        /* \"#utility.yul\":17967:17968   */\n      dup3\n        /* \"#utility.yul\":17964:17965   */\n      dup3\n        /* \"#utility.yul\":17960:17969   */\n      sub\n        /* \"#utility.yul\":17952:17969   */\n      swap1\n      pop\n        /* \"#utility.yul\":17784:17975   */\n      swap3\n      swap2\n      pop\n      pop\n      jump\t// out\n        /* \"#utility.yul\":17981:18077   */\n    tag_546:\n        /* \"#utility.yul\":18018:18025   */\n      0x00\n        /* \"#utility.yul\":18047:18071   */\n      tag_668\n        /* \"#utility.yul\":18065:18070   */\n      dup3\n        /* \"#utility.yul\":18047:18071   */\n      tag_669\n      jump\t// in\n    tag_668:\n        /* \"#utility.yul\":18036:18071   */\n      swap1\n      pop\n        /* \"#utility.yul\":17981:18077   */\n      swap2\n      swap1\n      pop\n      jump\t// out\n        /* \"#utility.yul\":18083:18209   */\n    tag_669:\n        /* \"#utility.yul\":18120:18127   */\n      0x00\n        /* \"#utility.yul\":18160:18202   */\n      0xffffffffffffffffffffffffffffffffffffffff\n        /* \"#utility.yul\":18153:18158   */\n      dup3\n        /* \"#utility.yul\":18149:18203   */\n      and\n        /* \"#utility.yul\":18138:18203   */\n      swap1\n      pop\n        /* \"#utility.yul\":18083:18209   */\n      swap2\n      swap1\n      pop\n      jump\t// out\n        /* \"#utility.yul\":18215:18292   */\n    tag_597:\n        /* \"#utility.yul\":18252:18259   */\n      0x00\n        /* \"#utility.yul\":18281:18286   */\n      dup2\n        /* \"#utility.yul\":18270:18286   */\n      swap1\n      pop\n        /* \"#utility.yul\":18215:18292   */\n      swap2\n      swap1\n      pop\n      jump\t// out\n        /* \"#utility.yul\":18298:18391   */\n    tag_606:\n        /* \"#utility.yul\":18334:18341   */\n      0x00\n        /* \"#utility.yul\":18374:18384   */\n      0xffffffff\n        /* \"#utility.yul\":18367:18372   */\n      dup3\n        /* \"#utility.yul\":18363:18385   */\n      and\n        /* \"#utility.yul\":18352:18385   */\n      swap1\n      pop\n        /* \"#utility.yul\":18298:18391   */\n      swap2\n      swap1\n      pop\n      jump\t// out\n        /* \"#utility.yul\":18397:18551   */\n    tag_460:\n        /* \"#utility.yul\":18481:18487   */\n      dup3\n        /* \"#utility.yul\":18476:18479   */\n      dup2\n        /* \"#utility.yul\":18471:18474   */\n      dup4\n        /* \"#utility.yul\":18458:18488   */\n      calldatacopy\n        /* \"#utility.yul\":18543:18544   */\n      0x00\n        /* \"#utility.yul\":18534:18540   */\n      dup4\n        /* \"#utility.yul\":18529:18532   */\n      dup4\n        /* \"#utility.yul\":18525:18541   */\n      add\n        /* \"#utility.yul\":18518:18545   */\n      mstore\n        /* \"#utility.yul\":18397:18551   */\n      pop\n      pop\n      pop\n      jump\t// out\n        /* \"#utility.yul\":18557:18864   */\n    tag_554:\n        /* \"#utility.yul\":18625:18626   */\n      0x00\n        /* \"#utility.yul\":18635:18748   */\n    tag_675:\n        /* \"#utility.yul\":18649:18655   */\n      dup4\n        /* \"#utility.yul\":18646:18647   */\n      dup2\n        /* \"#utility.yul\":18643:18656   */\n      lt\n        /* \"#utility.yul\":18635:18748   */\n      iszero\n      tag_677\n      jumpi\n        /* \"#utility.yul\":18734:18735   */\n      dup1\n        /* \"#utility.yul\":18729:18732   */\n      dup3\n        /* \"#utility.yul\":18725:18736   */\n      add\n        /* \"#utility.yul\":18719:18737   */\n      mload\n        /* \"#utility.yul\":18715:18716   */\n      dup2\n        /* \"#utility.yul\":18710:18713   */\n      dup5\n        /* \"#utility.yul\":18706:18717   */\n      add\n        /* \"#utility.yul\":18699:18738   */\n      mstore\n        /* \"#utility.yul\":18671:18673   */\n      0x20\n        /* \"#utility.yul\":18668:18669   */\n      dup2\n        /* \"#utility.yul\":18664:18674   */\n      add\n        /* \"#utility.yul\":18659:18674   */\n      swap1\n      pop\n        /* \"#utility.yul\":18635:18748   */\n      jump(tag_675)\n    tag_677:\n        /* \"#utility.yul\":18766:18772   */\n      dup4\n        /* \"#utility.yul\":18763:18764   */\n      dup2\n        /* \"#utility.yul\":18760:18773   */\n      gt\n        /* \"#utility.yul\":18757:18858   */\n      iszero\n      tag_678\n      jumpi\n        /* \"#utility.yul\":18846:18847   */\n      0x00\n        /* \"#utility.yul\":18837:18843   */\n      dup5\n        /* \"#utility.yul\":18832:18835   */\n      dup5\n        /* \"#utility.yul\":18828:18844   */\n      add\n        /* \"#utility.yul\":18821:18848   */\n      mstore\n        /* \"#utility.yul\":18757:18858   */\n    tag_678:\n        /* \"#utility.yul\":18606:18864   */\n      pop\n        /* \"#utility.yul\":18557:18864   */\n      pop\n      pop\n      pop\n      jump\t// out\n        /* \"#utility.yul\":18870:19041   */\n    tag_426:\n        /* \"#utility.yul\":18909:18912   */\n      0x00\n        /* \"#utility.yul\":18932:18956   */\n      tag_680\n        /* \"#utility.yul\":18950:18955   */\n      dup3\n        /* \"#utility.yul\":18932:18956   */\n      tag_597\n      jump\t// in\n    tag_680:\n        /* \"#utility.yul\":18923:18956   */\n      swap2\n      pop\n        /* \"#utility.yul\":18978:18982   */\n      0x00\n        /* \"#utility.yul\":18971:18976   */\n      dup3\n        /* \"#utility.yul\":18968:18983   */\n      eq\n        /* \"#utility.yul\":18965:19006   */\n      iszero\n      tag_681\n      jumpi\n        /* \"#utility.yul\":18986:19004   */\n      tag_682\n      tag_661\n      jump\t// in\n    tag_682:\n        /* \"#utility.yul\":18965:19006   */\n    tag_681:\n        /* \"#utility.yul\":19033:19034   */\n      0x01\n        /* \"#utility.yul\":19026:19031   */\n      dup3\n        /* \"#utility.yul\":19022:19035   */\n      sub\n        /* \"#utility.yul\":19015:19035   */\n      swap1\n      pop\n        /* \"#utility.yul\":18870:19041   */\n      swap2\n      swap1\n      pop\n      jump\t// out\n        /* \"#utility.yul\":19047:19367   */\n    tag_316:\n        /* \"#utility.yul\":19091:19097   */\n      0x00\n        /* \"#utility.yul\":19128:19129   */\n      0x02\n        /* \"#utility.yul\":19122:19126   */\n      dup3\n        /* \"#utility.yul\":19118:19130   */\n      div\n        /* \"#utility.yul\":19108:19130   */\n      swap1\n      pop\n        /* \"#utility.yul\":19175:19176   */\n      0x01\n        /* \"#utility.yul\":19169:19173   */\n      dup3\n        /* \"#utility.yul\":19165:19177   */\n      and\n        /* \"#utility.yul\":19196:19214   */\n      dup1\n        /* \"#utility.yul\":19186:19267   */\n      tag_684\n      jumpi\n        /* \"#utility.yul\":19252:19256   */\n      0x7f\n        /* \"#utility.yul\":19244:19250   */\n      dup3\n        /* \"#utility.yul\":19240:19257   */\n      and\n        /* \"#utility.yul\":19230:19257   */\n      swap2\n      pop\n        /* \"#utility.yul\":19186:19267   */\n    tag_684:\n        /* \"#utility.yul\":19314:19316   */\n      0x20\n        /* \"#utility.yul\":19306:19312   */\n      dup3\n        /* \"#utility.yul\":19303:19317   */\n      lt\n        /* \"#utility.yul\":19283:19301   */\n      dup2\n        /* \"#utility.yul\":19280:19318   */\n      eq\n        /* \"#utility.yul\":19277:19361   */\n      iszero\n      tag_685\n      jumpi\n        /* \"#utility.yul\":19333:19351   */\n      tag_686\n      tag_687\n      jump\t// in\n    tag_686:\n        /* \"#utility.yul\":19277:19361   */\n    tag_685:\n        /* \"#utility.yul\":19098:19367   */\n      pop\n        /* \"#utility.yul\":19047:19367   */\n      swap2\n      swap1\n      pop\n      jump\t// out\n        /* \"#utility.yul\":19373:19654   */\n    tag_646:\n        /* \"#utility.yul\":19456:19483   */\n      tag_689\n        /* \"#utility.yul\":19478:19482   */\n      dup3\n        /* \"#utility.yul\":19456:19483   */\n      tag_556\n      jump\t// in\n    tag_689:\n        /* \"#utility.yul\":19448:19454   */\n      dup2\n        /* \"#utility.yul\":19444:19484   */\n      add\n        /* \"#utility.yul\":19586:19592   */\n      dup2\n        /* \"#utility.yul\":19574:19584   */\n      dup2\n        /* \"#utility.yul\":19571:19593   */\n      lt\n        /* \"#utility.yul\":19550:19568   */\n      0xffffffffffffffff\n        /* \"#utility.yul\":19538:19548   */\n      dup3\n        /* \"#utility.yul\":19535:19569   */\n      gt\n        /* \"#utility.yul\":19532:19594   */\n      or\n        /* \"#utility.yul\":19529:19617   */\n      iszero\n      tag_690\n      jumpi\n        /* \"#utility.yul\":19597:19615   */\n      tag_691\n      tag_651\n      jump\t// in\n    tag_691:\n        /* \"#utility.yul\":19529:19617   */\n    tag_690:\n        /* \"#utility.yul\":19637:19647   */\n      dup1\n        /* \"#utility.yul\":19633:19635   */\n      0x40\n        /* \"#utility.yul\":19626:19648   */\n      mstore\n        /* \"#utility.yul\":19416:19654   */\n      pop\n        /* \"#utility.yul\":19373:19654   */\n      pop\n      pop\n      jump\t// out\n        /* \"#utility.yul\":19660:19893   */\n    tag_137:\n        /* \"#utility.yul\":19699:19702   */\n      0x00\n        /* \"#utility.yul\":19722:19746   */\n      tag_693\n        /* \"#utility.yul\":19740:19745   */\n      dup3\n        /* \"#utility.yul\":19722:19746   */\n      tag_597\n      jump\t// in\n    tag_693:\n        /* \"#utility.yul\":19713:19746   */\n      swap2\n      pop\n        /* \"#utility.yul\":19768:19834   */\n      0xffffffffffffffffffffffffffffffffffffffffffffffffffffffffffffffff\n        /* \"#utility.yul\":19761:19766   */\n      dup3\n        /* \"#utility.yul\":19758:19835   */\n      eq\n        /* \"#utility.yul\":19755:19858   */\n      iszero\n      tag_694\n      jumpi\n        /* \"#utility.yul\":19838:19856   */\n      tag_695\n      tag_661\n      jump\t// in\n    tag_695:\n        /* \"#utility.yul\":19755:19858   */\n    tag_694:\n        /* \"#utility.yul\":19885:19886   */\n      0x01\n        /* \"#utility.yul\":19878:19883   */\n      dup3\n        /* \"#utility.yul\":19874:19887   */\n      add\n        /* \"#utility.yul\":19867:19887   */\n      swap1\n      pop\n        /* \"#utility.yul\":19660:19893   */\n      swap2\n      swap1\n      pop\n      jump\t// out\n        /* \"#utility.yul\":19899:20074   */\n    tag_192:\n        /* \"#utility.yul\":19937:19940   */\n      0x00\n        /* \"#utility.yul\":19960:19983   */\n      tag_697\n        /* \"#utility.yul\":19977:19982   */\n      dup3\n        /* \"#utility.yul\":19960:19983   */\n      tag_606\n      jump\t// in\n    tag_697:\n        /* \"#utility.yul\":19951:19983   */\n      swap2\n      pop\n        /* \"#utility.yul\":20005:20015   */\n      0xffffffff\n        /* \"#utility.yul\":19998:20003   */\n      dup3\n        /* \"#utility.yul\":19995:20016   */\n      eq\n        /* \"#utility.yul\":19992:20039   */\n      iszero\n      tag_698\n      jumpi\n        /* \"#utility.yul\":20019:20037   */\n      tag_699\n      tag_661\n      jump\t// in\n    tag_699:\n        /* \"#utility.yul\":19992:20039   */\n    tag_698:\n        /* \"#utility.yul\":20066:20067   */\n      0x01\n        /* \"#utility.yul\":20059:20064   */\n      dup3\n        /* \"#utility.yul\":20055:20068   */\n      add\n        /* \"#utility.yul\":20048:20068   */\n      swap1\n      pop\n        /* \"#utility.yul\":19899:20074   */\n      swap2\n      swap1\n      pop\n      jump\t// out\n        /* \"#utility.yul\":20080:20159   */\n    tag_602:\n        /* \"#utility.yul\":20119:20126   */\n      0x00\n        /* \"#utility.yul\":20148:20153   */\n      dup2\n        /* \"#utility.yul\":20137:20153   */\n      swap1\n      pop\n        /* \"#utility.yul\":20080:20159   */\n      swap2\n      swap1\n      pop\n      jump\t// out\n        /* \"#utility.yul\":20165:20341   */\n    tag_204:\n        /* \"#utility.yul\":20197:20198   */\n      0x00\n        /* \"#utility.yul\":20214:20234   */\n      tag_702\n        /* \"#utility.yul\":20232:20233   */\n      dup3\n        /* \"#utility.yul\":20214:20234   */\n      tag_597\n      jump\t// in\n    tag_702:\n        /* \"#utility.yul\":20209:20234   */\n      swap2\n      pop\n        /* \"#utility.yul\":20248:20268   */\n      tag_703\n        /* \"#utility.yul\":20266:20267   */\n      dup4\n        /* \"#utility.yul\":20248:20268   */\n      tag_597\n      jump\t// in\n    tag_703:\n        /* \"#utility.yul\":20243:20268   */\n      swap3\n      pop\n        /* \"#utility.yul\":20287:20288   */\n      dup3\n        /* \"#utility.yul\":20277:20312   */\n      tag_704\n      jumpi\n        /* \"#utility.yul\":20292:20310   */\n      tag_705\n      tag_706\n      jump\t// in\n    tag_705:\n        /* \"#utility.yul\":20277:20312   */\n    tag_704:\n        /* \"#utility.yul\":20333:20334   */\n      dup3\n        /* \"#utility.yul\":20330:20331   */\n      dup3\n        /* \"#utility.yul\":20326:20335   */\n      mod\n        /* \"#utility.yul\":20321:20335   */\n      swap1\n      pop\n        /* \"#utility.yul\":20165:20341   */\n      swap3\n      swap2\n      pop\n      pop\n      jump\t// out\n        /* \"#utility.yul\":20347:20527   */\n    tag_661:\n        /* \"#utility.yul\":20395:20472   */\n      0x4e487b7100000000000000000000000000000000000000000000000000000000\n        /* \"#utility.yul\":20392:20393   */\n      0x00\n        /* \"#utility.yul\":20385:20473   */\n      mstore\n        /* \"#utility.yul\":20492:20496   */\n      0x11\n        /* \"#utility.yul\":20489:20490   */\n      0x04\n        /* \"#utility.yul\":20482:20497   */\n      mstore\n        /* \"#utility.yul\":20516:20520   */\n      0x24\n        /* \"#utility.yul\":20513:20514   */\n      0x00\n        /* \"#utility.yul\":20506:20521   */\n      revert\n        /* \"#utility.yul\":20533:20713   */\n    tag_706:\n        /* \"#utility.yul\":20581:20658   */\n      0x4e487b7100000000000000000000000000000000000000000000000000000000\n        /* \"#utility.yul\":20578:20579   */\n      0x00\n        /* \"#utility.yul\":20571:20659   */\n      mstore\n        /* \"#utility.yul\":20678:20682   */\n      0x12\n        /* \"#utility.yul\":20675:20676   */\n      0x04\n        /* \"#utility.yul\":20668:20683   */\n      mstore\n        /* \"#utility.yul\":20702:20706   */\n      0x24\n        /* \"#utility.yul\":20699:20700   */\n      0x00\n        /* \"#utility.yul\":20692:20707   */\n      revert\n        /* \"#utility.yul\":20719:20899   */\n    tag_687:\n        /* \"#utility.yul\":20767:20844   */\n      0x4e487b7100000000000000000000000000000000000000000000000000000000\n        /* \"#utility.yul\":20764:20765   */\n      0x00\n        /* \"#utility.yul\":20757:20845   */\n      mstore\n        /* \"#utility.yul\":20864:20868   */\n      0x22\n        /* \"#utility.yul\":20861:20862   */\n      0x04\n        /* \"#utility.yul\":20854:20869   */\n      mstore\n        /* \"#utility.yul\":20888:20892   */\n      0x24\n        /* \"#utility.yul\":20885:20886   */\n      0x00\n        /* \"#utility.yul\":20878:20893   */\n      revert\n        /* \"#utility.yul\":20905:21085   */\n    tag_151:\n        /* \"#utility.yul\":20953:21030   */\n      0x4e487b7100000000000000000000000000000000000000000000000000000000\n        /* \"#utility.yul\":20950:20951   */\n      0x00\n        /* \"#utility.yul\":20943:21031   */\n      mstore\n        /* \"#utility.yul\":21050:21054   */\n      0x31\n        /* \"#utility.yul\":21047:21048   */\n      0x04\n        /* \"#utility.yul\":21040:21055   */\n      mstore\n        /* \"#utility.yul\":21074:21078   */\n      0x24\n        /* \"#utility.yul\":21071:21072   */\n      0x00\n        /* \"#utility.yul\":21064:21079   */\n      revert\n        /* \"#utility.yul\":21091:21271   */\n    tag_124:\n        /* \"#utility.yul\":21139:21216   */\n      0x4e487b7100000000000000000000000000000000000000000000000000000000\n        /* \"#utility.yul\":21136:21137   */\n      0x00\n        /* \"#utility.yul\":21129:21217   */\n      mstore\n        /* \"#utility.yul\":21236:21240   */\n      0x32\n        /* \"#utility.yul\":21233:21234   */\n      0x04\n        /* \"#utility.yul\":21226:21241   */\n      mstore\n        /* \"#utility.yul\":21260:21264   */\n      0x24\n        /* \"#utility.yul\":21257:21258   */\n      0x00\n        /* \"#utility.yul\":21250:21265   */\n      revert\n        /* \"#utility.yul\":21277:21457   */\n    tag_651:\n        /* \"#utility.yul\":21325:21402   */\n      0x4e487b7100000000000000000000000000000000000000000000000000000000\n        /* \"#utility.yul\":21322:21323   */\n      0x00\n        /* \"#utility.yul\":21315:21403   */\n      mstore\n        /* \"#utility.yul\":21422:21426   */\n      0x41\n        /* \"#utility.yul\":21419:21420   */\n      0x04\n        /* \"#utility.yul\":21412:21427   */\n      mstore\n        /* \"#utility.yul\":21446:21450   */\n      0x24\n        /* \"#utility.yul\":21443:21444   */\n      0x00\n        /* \"#utility.yul\":21436:21451   */\n      revert\n        /* \"#utility.yul\":21463:21580   */\n    tag_469:\n        /* \"#utility.yul\":21572:21573   */\n      0x00\n        /* \"#utility.yul\":21569:21570   */\n      dup1\n        /* \"#utility.yul\":21562:21574   */\n      revert\n        /* \"#utility.yul\":21586:21703   */\n    tag_458:\n        /* \"#utility.yul\":21695:21696   */\n      0x00\n        /* \"#utility.yul\":21692:21693   */\n      dup1\n        /* \"#utility.yul\":21685:21697   */\n      revert\n        /* \"#utility.yul\":21709:21826   */\n    tag_501:\n        /* \"#utility.yul\":21818:21819   */\n      0x00\n        /* \"#utility.yul\":21815:21816   */\n      dup1\n        /* \"#utility.yul\":21808:21820   */\n      revert\n        /* \"#utility.yul\":21832:21949   */\n    tag_482:\n        /* \"#utility.yul\":21941:21942   */\n      0x00\n        /* \"#utility.yul\":21938:21939   */\n      dup1\n        /* \"#utility.yul\":21931:21943   */\n      revert\n        /* \"#utility.yul\":21955:22057   */\n    tag_556:\n        /* \"#utility.yul\":21996:22002   */\n      0x00\n        /* \"#utility.yul\":22047:22049   */\n      0x1f\n        /* \"#utility.yul\":22043:22050   */\n      not\n        /* \"#utility.yul\":22038:22040   */\n      0x1f\n        /* \"#utility.yul\":22031:22036   */\n      dup4\n        /* \"#utility.yul\":22027:22041   */\n      add\n        /* \"#utility.yul\":22023:22051   */\n      and\n        /* \"#utility.yul\":22013:22051   */\n      swap1\n      pop\n        /* \"#utility.yul\":21955:22057   */\n      swap2\n      swap1\n      pop\n      jump\t// out\n        /* \"#utility.yul\":22063:22290   */\n    tag_573:\n        /* \"#utility.yul\":22203:22237   */\n      0x536f6c6f2073652070756564652074656e657220756e20636f63686520706f72\n        /* \"#utility.yul\":22199:22200   */\n      0x00\n        /* \"#utility.yul\":22191:22197   */\n      dup3\n        /* \"#utility.yul\":22187:22201   */\n      add\n        /* \"#utility.yul\":22180:22238   */\n      mstore\n        /* \"#utility.yul\":22272:22282   */\n      0x20706572736f6e61000000000000000000000000000000000000000000000000\n        /* \"#utility.yul\":22267:22269   */\n      0x20\n        /* \"#utility.yul\":22259:22265   */\n      dup3\n        /* \"#utility.yul\":22255:22270   */\n      add\n        /* \"#utility.yul\":22248:22283   */\n      mstore\n        /* \"#utility.yul\":22063:22290   */\n      pop\n      jump\t// out\n        /* \"#utility.yul\":22296:22521   */\n    tag_578:\n        /* \"#utility.yul\":22436:22470   */\n      0x4f776e61626c653a206e6577206f776e657220697320746865207a65726f2061\n        /* \"#utility.yul\":22432:22433   */\n      0x00\n        /* \"#utility.yul\":22424:22430   */\n      dup3\n        /* \"#utility.yul\":22420:22434   */\n      add\n        /* \"#utility.yul\":22413:22471   */\n      mstore\n        /* \"#utility.yul\":22505:22513   */\n      0x6464726573730000000000000000000000000000000000000000000000000000\n        /* \"#utility.yul\":22500:22502   */\n      0x20\n        /* \"#utility.yul\":22492:22498   */\n      dup3\n        /* \"#utility.yul\":22488:22503   */\n      add\n        /* \"#utility.yul\":22481:22514   */\n      mstore\n        /* \"#utility.yul\":22296:22521   */\n      pop\n      jump\t// out\n        /* \"#utility.yul\":22527:22764   */\n    tag_583:\n        /* \"#utility.yul\":22667:22701   */\n      0x4e6f2068617920636f6368657320737566696369656e74657320706172612069\n        /* \"#utility.yul\":22663:22664   */\n      0x00\n        /* \"#utility.yul\":22655:22661   */\n      dup3\n        /* \"#utility.yul\":22651:22665   */\n      add\n        /* \"#utility.yul\":22644:22702   */\n      mstore\n        /* \"#utility.yul\":22736:22756   */\n      0x6e696369617220756e6120636172726572610000000000000000000000000000\n        /* \"#utility.yul\":22731:22733   */\n      0x20\n        /* \"#utility.yul\":22723:22729   */\n      dup3\n        /* \"#utility.yul\":22719:22734   */\n      add\n        /* \"#utility.yul\":22712:22757   */\n      mstore\n        /* \"#utility.yul\":22527:22764   */\n      pop\n      jump\t// out\n        /* \"#utility.yul\":22770:22952   */\n    tag_588:\n        /* \"#utility.yul\":22910:22944   */\n      0x4f776e61626c653a2063616c6c6572206973206e6f7420746865206f776e6572\n        /* \"#utility.yul\":22906:22907   */\n      0x00\n        /* \"#utility.yul\":22898:22904   */\n      dup3\n        /* \"#utility.yul\":22894:22908   */\n      add\n        /* \"#utility.yul\":22887:22945   */\n      mstore\n        /* \"#utility.yul\":22770:22952   */\n      pop\n      jump\t// out\n        /* \"#utility.yul\":22958:23129   */\n    tag_593:\n        /* \"#utility.yul\":23098:23121   */\n      0x456c20636f6368652067616e61646f722065733a200000000000000000000000\n        /* \"#utility.yul\":23094:23095   */\n      0x00\n        /* \"#utility.yul\":23086:23092   */\n      dup3\n        /* \"#utility.yul\":23082:23096   */\n      add\n        /* \"#utility.yul\":23075:23122   */\n      mstore\n        /* \"#utility.yul\":22958:23129   */\n      pop\n      jump\t// out\n        /* \"#utility.yul\":23135:23257   */\n    tag_464:\n        /* \"#utility.yul\":23208:23232   */\n      tag_724\n        /* \"#utility.yul\":23226:23231   */\n      dup2\n        /* \"#utility.yul\":23208:23232   */\n      tag_546\n      jump\t// in\n    tag_724:\n        /* \"#utility.yul\":23201:23206   */\n      dup2\n        /* \"#utility.yul\":23198:23233   */\n      eq\n        /* \"#utility.yul\":23188:23251   */\n      tag_725\n      jumpi\n        /* \"#utility.yul\":23247:23248   */\n      0x00\n        /* \"#utility.yul\":23244:23245   */\n      dup1\n        /* \"#utility.yul\":23237:23249   */\n      revert\n        /* \"#utility.yul\":23188:23251   */\n    tag_725:\n        /* \"#utility.yul\":23135:23257   */\n      pop\n      jump\t// out\n        /* \"#utility.yul\":23263:23385   */\n    tag_474:\n        /* \"#utility.yul\":23336:23360   */\n      tag_727\n        /* \"#utility.yul\":23354:23359   */\n      dup2\n        /* \"#utility.yul\":23336:23360   */\n      tag_597\n      jump\t// in\n    tag_727:\n        /* \"#utility.yul\":23329:23334   */\n      dup2\n        /* \"#utility.yul\":23326:23361   */\n      eq\n        /* \"#utility.yul\":23316:23379   */\n      tag_728\n      jumpi\n        /* \"#utility.yul\":23375:23376   */\n      0x00\n        /* \"#utility.yul\":23372:23373   */\n      dup1\n        /* \"#utility.yul\":23365:23377   */\n      revert\n        /* \"#utility.yul\":23316:23379   */\n    tag_728:\n        /* \"#utility.yul\":23263:23385   */\n      pop\n      jump\t// out\n        /* \"#utility.yul\":23391:23511   */\n    tag_478:\n        /* \"#utility.yul\":23463:23486   */\n      tag_730\n        /* \"#utility.yul\":23480:23485   */\n      dup2\n        /* \"#utility.yul\":23463:23486   */\n      tag_606\n      jump\t// in\n    tag_730:\n        /* \"#utility.yul\":23456:23461   */\n      dup2\n        /* \"#utility.yul\":23453:23487   */\n      eq\n        /* \"#utility.yul\":23443:23505   */\n      tag_731\n      jumpi\n        /* \"#utility.yul\":23501:23502   */\n      0x00\n        /* \"#utility.yul\":23498:23499   */\n      dup1\n        /* \"#utility.yul\":23491:23503   */\n      revert\n        /* \"#utility.yul\":23443:23505   */\n    tag_731:\n        /* \"#utility.yul\":23391:23511   */\n      pop\n      jump\t// out\n\n    auxdata: 0xa2646970667358221220b5e5502c5ca84bd958d91459c749151bd5c5c995636055a06837a3c11751f9c764736f6c63430008070033\n}\n",
				"bytecode": {
					"linkReferences": {},
					"object": "608060405260006001556000600255603c600355670de0b6b3a7640000600455671bc16d674ec800006005553480156200003857600080fd5b50620000596200004d6200005f60201b60201c565b6200006760201b60201c565b6200012b565b600033905090565b60008060009054906101000a900473ffffffffffffffffffffffffffffffffffffffff169050816000806101000a81548173ffffffffffffffffffffffffffffffffffffffff021916908373ffffffffffffffffffffffffffffffffffffffff1602179055508173ffffffffffffffffffffffffffffffffffffffff168173ffffffffffffffffffffffffffffffffffffffff167f8be0079c531659141344cd1fd0a4f28419497f9722a3daafe3b4186f6b6457e060405160405180910390a35050565b6134b8806200013b6000396000f3fe6080604052600436106101145760003560e01c806370a08231116100a0578063d735573d11610064578063d735573d146103a8578063df79777b146103ec578063e172fca814610429578063f2fde38b14610452578063ffe20b641461047b57610114565b806370a08231146102c1578063715018a6146102fe578063858b0554146103155780638da5cb5b14610352578063b2bdfa7b1461037d57610114565b806323b872dd116100e757806323b872dd146101cb5780632458c544146101e75780636352211e146102245780636a7d1816146102615780636b6f04941461029157610114565b8063049a5f6514610119578063095ea7b31461014957806317bde7a9146101655780631c6743e41461018e575b600080fd5b610133600480360381019061012e9190612878565b6104a4565b6040516101409190612da4565b60405180910390f35b610163600480360381019061015e9190612903565b610605565b005b34801561017157600080fd5b5061018c600480360381019061018791906127b8565b610723565b005b34801561019a57600080fd5b506101b560048036038101906101b091906127b8565b610875565b6040516101c29190612ec7565b60405180910390f35b6101e560048036038101906101e09190612825565b61088d565b005b3480156101f357600080fd5b5061020e60048036038101906102099190612943565b610971565b60405161021b9190612ec7565b60405180910390f35b34801561023057600080fd5b5061024b60048036038101906102469190612ae0565b610c53565b6040516102589190612cf6565b60405180910390f35b61027b600480360381019061027691906127b8565b610c90565b6040516102889190612da4565b60405180910390f35b6102ab60048036038101906102a69190612ae0565b610de5565b6040516102b89190612da4565b60405180910390f35b3480156102cd57600080fd5b506102e860048036038101906102e391906127b8565b611720565b6040516102f59190612ec7565b60405180910390f35b34801561030a57600080fd5b50610313611769565b005b34801561032157600080fd5b5061033c60048036038101906103379190612ae0565b6117f1565b6040516103499190612cf6565b60405180910390f35b34801561035e57600080fd5b50610367611824565b6040516103749190612cf6565b60405180910390f35b34801561038957600080fd5b5061039261184d565b60405161039f9190612cf6565b60405180910390f35b3480156103b457600080fd5b506103cf60048036038101906103ca9190612ae0565b611871565b6040516103e3989796959493929190612d11565b60405180910390f35b3480156103f857600080fd5b50610413600480360381019061040e91906129ea565b611a91565b6040516104209190612ec7565b60405180910390f35b34801561043557600080fd5b50610450600480360381019061044b91906127b8565b611d77565b005b34801561045e57600080fd5b50610479600480360381019061047491906127b8565b611f1e565b005b34801561048757600080fd5b506104a2600480360381019061049d91906127e5565b612016565b005b60608373ffffffffffffffffffffffffffffffffffffffff163373ffffffffffffffffffffffffffffffffffffffff16146104de57600080fd5b60055434146104ec57600080fd5b60005b6006805490508110156105fd573373ffffffffffffffffffffffffffffffffffffffff16600682815481106105275761052661327b565b5b906000526020600020906008020160000160009054906101000a900473ffffffffffffffffffffffffffffffffffffffff1673ffffffffffffffffffffffffffffffffffffffff1614156105ea57836006828154811061058a5761058961327b565b5b906000526020600020906008020160010190805190602001906105ae929190612626565b5082600682815481106105c4576105c361327b565b5b906000526020600020906008020160020190805190602001906105e8929190612626565b505b80806105f59061310e565b9150506104ef565b509392505050565b806007600082815260200190815260200160002060009054906101000a900473ffffffffffffffffffffffffffffffffffffffff1673ffffffffffffffffffffffffffffffffffffffff163373ffffffffffffffffffffffffffffffffffffffff161461067157600080fd5b826009600084815260200190815260200160002060006101000a81548173ffffffffffffffffffffffffffffffffffffffff021916908373ffffffffffffffffffffffffffffffffffffffff160217905550818373ffffffffffffffffffffffffffffffffffffffff163373ffffffffffffffffffffffffffffffffffffffff167f8c5be1e5ebec7d5bd14f71427d1e84f3dd0314c0f7b2291e5b200ac8c7c3b92560405160405180910390a4505050565b60005b600680549050811015610871578173ffffffffffffffffffffffffffffffffffffffff166006828154811061075e5761075d61327b565b5b906000526020600020906008020160000160009054906101000a900473ffffffffffffffffffffffffffffffffffffffff1673ffffffffffffffffffffffffffffffffffffffff16141561085e5760068054806107be576107bd61324c565b5b6001900381819060005260206000209060080201600080820160006101000a81549073ffffffffffffffffffffffffffffffffffffffff021916905560018201600061080a91906126ac565b60028201600061081a91906126ac565b60038201600061082a91906126ac565b6004820160009055600582016000905560068201600090556007820160006101000a81549063ffffffff0219169055505090555b80806108699061310e565b915050610726565b5050565b60086020528060005260406000206000915090505481565b3373ffffffffffffffffffffffffffffffffffffffff166007600083815260200190815260200160002060009054906101000a900473ffffffffffffffffffffffffffffffffffffffff1673ffffffffffffffffffffffffffffffffffffffff16148061095857503373ffffffffffffffffffffffffffffffffffffffff166009600083815260200190815260200160002060009054906101000a900473ffffffffffffffffffffffffffffffffffffffff1673ffffffffffffffffffffffffffffffffffffffff16145b61096157600080fd5b61096c838383612385565b505050565b60006001600860003373ffffffffffffffffffffffffffffffffffffffff1673ffffffffffffffffffffffffffffffffffffffff16815260200190815260200160002054106109f5576040517f08c379a00000000000000000000000000000000000000000000000000000000081526004016109ec90612e27565b60405180910390fd5b60066040518061010001604052803373ffffffffffffffffffffffffffffffffffffffff168152602001868152602001858152602001848152602001600081526020016000815260200160035442610a4d9190612f69565b63ffffffff168152602001600163ffffffff16815250908060018154018082558091505060019003906000526020600020906008020160009091909190915060008201518160000160006101000a81548173ffffffffffffffffffffffffffffffffffffffff021916908373ffffffffffffffffffffffffffffffffffffffff1602179055506020820151816001019080519060200190610aef929190612626565b506040820151816002019080519060200190610b0c929190612626565b506060820151816003019080519060200190610b29929190612626565b506080820151816004015560a0820151816005015560c0820151816006015560e08201518160070160006101000a81548163ffffffff021916908363ffffffff160217905550505060006006805490509050336007600083815260200190815260200160002060006101000a81548173ffffffffffffffffffffffffffffffffffffffff021916908373ffffffffffffffffffffffffffffffffffffffff160217905550600860003373ffffffffffffffffffffffffffffffffffffffff1673ffffffffffffffffffffffffffffffffffffffff1681526020019081526020016000206000815480929190610c1d9061310e565b919050555060026000815480929190610c359061310e565b91905055506001600254610c499190612fbf565b9150509392505050565b60006007600083815260200190815260200160002060009054906101000a900473ffffffffffffffffffffffffffffffffffffffff169050919050565b60606004543414610ca057600080fd5b60005b600680549050811015610dde578273ffffffffffffffffffffffffffffffffffffffff1660068281548110610cdb57610cda61327b565b5b906000526020600020906008020160000160009054906101000a900473ffffffffffffffffffffffffffffffffffffffff1673ffffffffffffffffffffffffffffffffffffffff161415610dcb5760068181548110610d3d57610d3c61327b565b5b9060005260206000209060080201600701600081819054906101000a900463ffffffff1680929190610d6e90613157565b91906101000a81548163ffffffff021916908363ffffffff160217905550506040518060400160405280601281526020017f48612073756269646f206465206e6976656c0000000000000000000000000000815250915050610de0565b8080610dd69061310e565b915050610ca3565b505b919050565b6060600160068054905011610e2e577f6158fc8f21c8cc73ddf920956cc75d0e8a48b4fc85817a0ba89eb3b6d2a75441604051610e2190612e67565b60405180910390a161171a565b813414610e3a57600080fd5b60016000815480929190610e4d9061310e565b9190505550600060068054905042600680549050600154604051602001610e7693929190612cb9565b6040516020818303038152906040528051906020012060001c610e99919061318e565b905060006007600083815260200190815260200160002060009054906101000a900473ffffffffffffffffffffffffffffffffffffffff16905060016000815480929190610ee69061310e565b91905055506000606490506000814283600154604051602001610f0b93929190612cb9565b6040516020818303038152906040528051906020012060001c610f2e919061318e565b905060005b6006805490508110156117145760068181548110610f5457610f5361327b565b5b906000526020600020906008020160000160009054906101000a900473ffffffffffffffffffffffffffffffffffffffff1673ffffffffffffffffffffffffffffffffffffffff163373ffffffffffffffffffffffffffffffffffffffff16141561170157610fe360068281548110610fd057610fcf61327b565b5b90600052602060002090600802016124e1565b610fec57600080fd5b6006818154811061100057610fff61327b565b5b906000526020600020906008020160050160008154809291906110229061310e565b91905055506006858154811061103b5761103a61327b565b5b9060005260206000209060080201600501600081548092919061105d9061310e565b919050555061108c600682815481106110795761107861327b565b5b90600052602060002090600802016124f2565b600681815481106110a05761109f61327b565b5b906000526020600020906008020160070160009054906101000a900463ffffffff1663ffffffff16600686815481106110dc576110db61327b565b5b906000526020600020906008020160070160009054906101000a900463ffffffff1663ffffffff1610156112dd57603c82116111fb5761111a612511565b6006818154811061112e5761112d61327b565b5b906000526020600020906008020160040160008154809291906111509061310e565b9190505550600681815481106111695761116861327b565b5b9060005260206000209060080201600701600081819054906101000a900463ffffffff168092919061119a90613157565b91906101000a81548163ffffffff021916908363ffffffff160217905550506040518060400160405280600a81526020017f4861732067616e61646f000000000000000000000000000000000000000000008152509550505050505061171b565b7f6158fc8f21c8cc73ddf920956cc75d0e8a48b4fc85817a0ba89eb3b6d2a7544160405161122890612ea7565b60405180910390a13073ffffffffffffffffffffffffffffffffffffffff1663e172fca8856040518263ffffffff1660e01b81526004016112699190612cf6565b600060405180830381600087803b15801561128357600080fd5b505af1158015611297573d6000803e3d6000fd5b505050506040518060400160405280600b81526020017f486173207065726469646f0000000000000000000000000000000000000000008152509550505050505061171b565b600681815481106112f1576112f061327b565b5b906000526020600020906008020160070160009054906101000a900463ffffffff1663ffffffff166006868154811061132d5761132c61327b565b5b906000526020600020906008020160070160009054906101000a900463ffffffff1663ffffffff16141561152e576032821161144c5761136b612511565b6006818154811061137f5761137e61327b565b5b906000526020600020906008020160040160008154809291906113a19061310e565b9190505550600681815481106113ba576113b961327b565b5b9060005260206000209060080201600701600081819054906101000a900463ffffffff16809291906113eb90613157565b91906101000a81548163ffffffff021916908363ffffffff160217905550506040518060400160405280600a81526020017f4861732067616e61646f000000000000000000000000000000000000000000008152509550505050505061171b565b7f6158fc8f21c8cc73ddf920956cc75d0e8a48b4fc85817a0ba89eb3b6d2a7544160405161147990612ea7565b60405180910390a13073ffffffffffffffffffffffffffffffffffffffff1663e172fca8856040518263ffffffff1660e01b81526004016114ba9190612cf6565b600060405180830381600087803b1580156114d457600080fd5b505af11580156114e8573d6000803e3d6000fd5b505050506040518060400160405280600b81526020017f486173207065726469646f0000000000000000000000000000000000000000008152509550505050505061171b565b6028821161161f5761153e612511565b600681815481106115525761155161327b565b5b906000526020600020906008020160040160008154809291906115749061310e565b91905055506006818154811061158d5761158c61327b565b5b9060005260206000209060080201600701600081819054906101000a900463ffffffff16809291906115be90613157565b91906101000a81548163ffffffff021916908363ffffffff160217905550506040518060400160405280600a81526020017f4861732067616e61646f000000000000000000000000000000000000000000008152509550505050505061171b565b7f6158fc8f21c8cc73ddf920956cc75d0e8a48b4fc85817a0ba89eb3b6d2a7544160405161164c90612ea7565b60405180910390a13073ffffffffffffffffffffffffffffffffffffffff1663e172fca8856040518263ffffffff1660e01b815260040161168d9190612cf6565b600060405180830381600087803b1580156116a757600080fd5b505af11580156116bb573d6000803e3d6000fd5b505050506040518060400160405280600b81526020017f486173207065726469646f0000000000000000000000000000000000000000008152509550505050505061171b565b808061170c9061310e565b915050610f33565b50505050505b5b919050565b6000600860008373ffffffffffffffffffffffffffffffffffffffff1673ffffffffffffffffffffffffffffffffffffffff168152602001908152602001600020549050919050565b61177161255a565b73ffffffffffffffffffffffffffffffffffffffff1661178f611824565b73ffffffffffffffffffffffffffffffffffffffff16146117e5576040517f08c379a00000000000000000000000000000000000000000000000000000000081526004016117dc90612e87565b60405180910390fd5b6117ef6000612562565b565b60076020528060005260406000206000915054906101000a900473ffffffffffffffffffffffffffffffffffffffff1681565b60008060009054906101000a900473ffffffffffffffffffffffffffffffffffffffff16905090565b60008054906101000a900473ffffffffffffffffffffffffffffffffffffffff1681565b6006818154811061188157600080fd5b90600052602060002090600802016000915090508060000160009054906101000a900473ffffffffffffffffffffffffffffffffffffffff16908060010180546118ca906130ab565b80601f01602080910402602001604051908101604052809291908181526020018280546118f6906130ab565b80156119435780601f1061191857610100808354040283529160200191611943565b820191906000526020600020905b81548152906001019060200180831161192657829003601f168201915b505050505090806002018054611958906130ab565b80601f0160208091040260200160405190810160405280929190818152602001828054611984906130ab565b80156119d15780601f106119a6576101008083540402835291602001916119d1565b820191906000526020600020905b8154815290600101906020018083116119b457829003601f168201915b5050505050908060030180546119e6906130ab565b80601f0160208091040260200160405190810160405280929190818152602001828054611a12906130ab565b8015611a5f5780601f10611a3457610100808354040283529160200191611a5f565b820191906000526020600020905b815481529060010190602001808311611a4257829003601f168201915b5050505050908060040154908060050154908060060154908060070160009054906101000a900463ffffffff16905088565b60006001600860003373ffffffffffffffffffffffffffffffffffffffff1673ffffffffffffffffffffffffffffffffffffffff1681526020019081526020016000205410611b15576040517f08c379a0000000000000000000000000000000000000000000000000000000008152600401611b0c90612e27565b60405180910390fd5b60066040518061010001604052803373ffffffffffffffffffffffffffffffffffffffff1681526020018a8152602001898152602001888152602001600081526020016000815260200160035442611b6d9190612f69565b63ffffffff168152602001600163ffffffff16815250908060018154018082558091505060019003906000526020600020906008020160009091909190915060008201518160000160006101000a81548173ffffffffffffffffffffffffffffffffffffffff021916908373ffffffffffffffffffffffffffffffffffffffff1602179055506020820151816001019080519060200190611c0f929190612626565b506040820151816002019080519060200190611c2c929190612626565b506060820151816003019080519060200190611c49929190612626565b506080820151816004015560a0820151816005015560c0820151816006015560e08201518160070160006101000a81548163ffffffff021916908363ffffffff160217905550505060006006805490509050336007600083815260200190815260200160002060006101000a81548173ffffffffffffffffffffffffffffffffffffffff021916908373ffffffffffffffffffffffffffffffffffffffff160217905550600860003373ffffffffffffffffffffffffffffffffffffffff1673ffffffffffffffffffffffffffffffffffffffff1681526020019081526020016000206000815480929190611d3d9061310e565b919050555060026000815480929190611d559061310e565b91905055506001600254611d699190612fbf565b915050979650505050505050565b60005b600680549050811015611f1a578173ffffffffffffffffffffffffffffffffffffffff1660068281548110611db257611db161327b565b5b906000526020600020906008020160000160009054906101000a900473ffffffffffffffffffffffffffffffffffffffff1673ffffffffffffffffffffffffffffffffffffffff161415611f07577f20fdb8ab571bfbab79104bea84f9c31cb79c5ae45b5f515c1d6c8393e002835060068281548110611e3557611e3461327b565b5b906000526020600020906008020160020160068381548110611e5a57611e5961327b565b5b906000526020600020906008020160010160068481548110611e7f57611e7e61327b565b5b906000526020600020906008020160070160009054906101000a900463ffffffff1660068581548110611eb557611eb461327b565b5b90600052602060002090600802016004015460068681548110611edb57611eda61327b565b5b906000526020600020906008020160050154604051611efe959493929190612dc6565b60405180910390a15b8080611f129061310e565b915050611d7a565b5050565b611f2661255a565b73ffffffffffffffffffffffffffffffffffffffff16611f44611824565b73ffffffffffffffffffffffffffffffffffffffff1614611f9a576040517f08c379a0000000000000000000000000000000000000000000000000000000008152600401611f9190612e87565b60405180910390fd5b600073ffffffffffffffffffffffffffffffffffffffff168173ffffffffffffffffffffffffffffffffffffffff16141561200a576040517f08c379a000000000000000000000000000000000000000000000000000000000815260040161200190612e47565b60405180910390fd5b61201381612562565b50565b60005b600680549050811015612380578273ffffffffffffffffffffffffffffffffffffffff16600682815481106120515761205061327b565b5b906000526020600020906008020160000160009054906101000a900473ffffffffffffffffffffffffffffffffffffffff1673ffffffffffffffffffffffffffffffffffffffff16141561236d576000600682815481106120b5576120b461327b565b5b906000526020600020906008020160010180546120d1906130ab565b80601f01602080910402602001604051908101604052809291908181526020018280546120fd906130ab565b801561214a5780601f1061211f5761010080835404028352916020019161214a565b820191906000526020600020905b81548152906001019060200180831161212d57829003601f168201915b505050505090506000600683815481106121675761216661327b565b5b90600052602060002090600802016002018054612183906130ab565b80601f01602080910402602001604051908101604052809291908181526020018280546121af906130ab565b80156121fc5780601f106121d1576101008083540402835291602001916121fc565b820191906000526020600020905b8154815290600101906020018083116121df57829003601f168201915b505050505090506000600684815481106122195761221861327b565b5b90600052602060002090600802016003018054612235906130ab565b80601f0160208091040260200160405190810160405280929190818152602001828054612261906130ab565b80156122ae5780601f10612283576101008083540402835291602001916122ae565b820191906000526020600020905b81548152906001019060200180831161229157829003601f168201915b505050505090506000600685815481106122cb576122ca61327b565b5b90600052602060002090600802016004015490506000600686815481106122f5576122f461327b565b5b906000526020600020906008020160050154905060006006878154811061231f5761231e61327b565b5b906000526020600020906008020160070160009054906101000a900463ffffffff1663ffffffff16905061236586868686866003544261235f9190612f69565b87611a91565b505050505050505b80806123789061310e565b915050612019565b505050565b600860008373ffffffffffffffffffffffffffffffffffffffff1673ffffffffffffffffffffffffffffffffffffffff16815260200190815260200160002060008154809291906123d59061310e565b9190505550600860008473ffffffffffffffffffffffffffffffffffffffff1673ffffffffffffffffffffffffffffffffffffffff168152602001908152602001600020600081548092919061242a90613081565b9190505550816007600083815260200190815260200160002060006101000a81548173ffffffffffffffffffffffffffffffffffffffff021916908373ffffffffffffffffffffffffffffffffffffffff160217905550808273ffffffffffffffffffffffffffffffffffffffff168473ffffffffffffffffffffffffffffffffffffffff167fddf252ad1be2c89b69c2b068fc378daa952ba7f163c4a11628f55a4df523b3ef60405160405180910390a4505050565b600042826006015411159050919050565b600354426125009190612f69565b63ffffffff16816006018190555050565b3373ffffffffffffffffffffffffffffffffffffffff166108fc479081150290604051600060405180830381858888f19350505050158015612557573d6000803e3d6000fd5b50565b600033905090565b60008060009054906101000a900473ffffffffffffffffffffffffffffffffffffffff169050816000806101000a81548173ffffffffffffffffffffffffffffffffffffffff021916908373ffffffffffffffffffffffffffffffffffffffff1602179055508173ffffffffffffffffffffffffffffffffffffffff168173ffffffffffffffffffffffffffffffffffffffff167f8be0079c531659141344cd1fd0a4f28419497f9722a3daafe3b4186f6b6457e060405160405180910390a35050565b828054612632906130ab565b90600052602060002090601f016020900481019282612654576000855561269b565b82601f1061266d57805160ff191683800117855561269b565b8280016001018555821561269b579182015b8281111561269a57825182559160200191906001019061267f565b5b5090506126a891906126ec565b5090565b5080546126b8906130ab565b6000825580601f106126ca57506126e9565b601f0160209004906000526020600020908101906126e891906126ec565b5b50565b5b808211156127055760008160009055506001016126ed565b5090565b600061271c61271784612f07565b612ee2565b905082815260208101848484011115612738576127376132de565b5b61274384828561303f565b509392505050565b60008135905061275a8161343d565b92915050565b600082601f830112612775576127746132d9565b5b8135612785848260208601612709565b91505092915050565b60008135905061279d81613454565b92915050565b6000813590506127b28161346b565b92915050565b6000602082840312156127ce576127cd6132e8565b5b60006127dc8482850161274b565b91505092915050565b600080604083850312156127fc576127fb6132e8565b5b600061280a8582860161274b565b925050602061281b8582860161274b565b9150509250929050565b60008060006060848603121561283e5761283d6132e8565b5b600061284c8682870161274b565b935050602061285d8682870161274b565b925050604061286e8682870161278e565b9150509250925092565b600080600060608486031215612891576128906132e8565b5b600061289f8682870161274b565b935050602084013567ffffffffffffffff8111156128c0576128bf6132e3565b5b6128cc86828701612760565b925050604084013567ffffffffffffffff8111156128ed576128ec6132e3565b5b6128f986828701612760565b9150509250925092565b6000806040838503121561291a576129196132e8565b5b60006129288582860161274b565b92505060206129398582860161278e565b9150509250929050565b60008060006060848603121561295c5761295b6132e8565b5b600084013567ffffffffffffffff81111561297a576129796132e3565b5b61298686828701612760565b935050602084013567ffffffffffffffff8111156129a7576129a66132e3565b5b6129b386828701612760565b925050604084013567ffffffffffffffff8111156129d4576129d36132e3565b5b6129e086828701612760565b9150509250925092565b600080600080600080600060e0888a031215612a0957612a086132e8565b5b600088013567ffffffffffffffff811115612a2757612a266132e3565b5b612a338a828b01612760565b975050602088013567ffffffffffffffff811115612a5457612a536132e3565b5b612a608a828b01612760565b965050604088013567ffffffffffffffff811115612a8157612a806132e3565b5b612a8d8a828b01612760565b9550506060612a9e8a828b0161278e565b9450506080612aaf8a828b0161278e565b93505060a0612ac08a828b016127a3565b92505060c0612ad18a828b0161278e565b91505092959891949750929550565b600060208284031215612af657612af56132e8565b5b6000612b048482850161278e565b91505092915050565b612b1681612ff3565b82525050565b6000612b2782612f4d565b612b318185612f58565b9350612b4181856020860161304e565b612b4a816132ed565b840191505092915050565b60008154612b62816130ab565b612b6c8186612f58565b94506001821660008114612b875760018114612b9957612bcc565b60ff1983168652602086019350612bcc565b612ba285612f38565b60005b83811015612bc457815481890152600182019150602081019050612ba5565b808801955050505b50505092915050565b6000612be2602883612f58565b9150612bed826132fe565b604082019050919050565b6000612c05602683612f58565b9150612c108261334d565b604082019050919050565b6000612c28603283612f58565b9150612c338261339c565b604082019050919050565b6000612c4b602083612f58565b9150612c56826133eb565b602082019050919050565b6000612c6e601583612f58565b9150612c7982613414565b602082019050919050565b612c8d81613025565b82525050565b612ca4612c9f82613025565b613184565b82525050565b612cb38161302f565b82525050565b6000612cc58286612c93565b602082019150612cd58285612c93565b602082019150612ce58284612c93565b602082019150819050949350505050565b6000602082019050612d0b6000830184612b0d565b92915050565b600061010082019050612d27600083018b612b0d565b8181036020830152612d39818a612b1c565b90508181036040830152612d4d8189612b1c565b90508181036060830152612d618188612b1c565b9050612d706080830187612c84565b612d7d60a0830186612c84565b612d8a60c0830185612c84565b612d9760e0830184612caa565b9998505050505050505050565b60006020820190508181036000830152612dbe8184612b1c565b905092915050565b600060a0820190508181036000830152612de08188612b55565b90508181036020830152612df48187612b55565b9050612e036040830186612caa565b612e106060830185612c84565b612e1d6080830184612c84565b9695505050505050565b60006020820190508181036000830152612e4081612bd5565b9050919050565b60006020820190508181036000830152612e6081612bf8565b9050919050565b60006020820190508181036000830152612e8081612c1b565b9050919050565b60006020820190508181036000830152612ea081612c3e565b9050919050565b60006020820190508181036000830152612ec081612c61565b9050919050565b6000602082019050612edc6000830184612c84565b92915050565b6000612eec612efd565b9050612ef882826130dd565b919050565b6000604051905090565b600067ffffffffffffffff821115612f2257612f216132aa565b5b612f2b826132ed565b9050602081019050919050565b60008190508160005260206000209050919050565b600081519050919050565b600082825260208201905092915050565b6000612f7482613025565b9150612f7f83613025565b9250827fffffffffffffffffffffffffffffffffffffffffffffffffffffffffffffffff03821115612fb457612fb36131bf565b5b828201905092915050565b6000612fca82613025565b9150612fd583613025565b925082821015612fe857612fe76131bf565b5b828203905092915050565b6000612ffe82613005565b9050919050565b600073ffffffffffffffffffffffffffffffffffffffff82169050919050565b6000819050919050565b600063ffffffff82169050919050565b82818337600083830152505050565b60005b8381101561306c578082015181840152602081019050613051565b8381111561307b576000848401525b50505050565b600061308c82613025565b915060008214156130a05761309f6131bf565b5b600182039050919050565b600060028204905060018216806130c357607f821691505b602082108114156130d7576130d661321d565b5b50919050565b6130e6826132ed565b810181811067ffffffffffffffff82111715613105576131046132aa565b5b80604052505050565b600061311982613025565b91507fffffffffffffffffffffffffffffffffffffffffffffffffffffffffffffffff82141561314c5761314b6131bf565b5b600182019050919050565b60006131628261302f565b915063ffffffff821415613179576131786131bf565b5b600182019050919050565b6000819050919050565b600061319982613025565b91506131a483613025565b9250826131b4576131b36131ee565b5b828206905092915050565b7f4e487b7100000000000000000000000000000000000000000000000000000000600052601160045260246000fd5b7f4e487b7100000000000000000000000000000000000000000000000000000000600052601260045260246000fd5b7f4e487b7100000000000000000000000000000000000000000000000000000000600052602260045260246000fd5b7f4e487b7100000000000000000000000000000000000000000000000000000000600052603160045260246000fd5b7f4e487b7100000000000000000000000000000000000000000000000000000000600052603260045260246000fd5b7f4e487b7100000000000000000000000000000000000000000000000000000000600052604160045260246000fd5b600080fd5b600080fd5b600080fd5b600080fd5b6000601f19601f8301169050919050565b7f536f6c6f2073652070756564652074656e657220756e20636f63686520706f7260008201527f20706572736f6e61000000000000000000000000000000000000000000000000602082015250565b7f4f776e61626c653a206e6577206f776e657220697320746865207a65726f206160008201527f6464726573730000000000000000000000000000000000000000000000000000602082015250565b7f4e6f2068617920636f6368657320737566696369656e7465732070617261206960008201527f6e696369617220756e6120636172726572610000000000000000000000000000602082015250565b7f4f776e61626c653a2063616c6c6572206973206e6f7420746865206f776e6572600082015250565b7f456c20636f6368652067616e61646f722065733a200000000000000000000000600082015250565b61344681612ff3565b811461345157600080fd5b50565b61345d81613025565b811461346857600080fd5b50565b6134748161302f565b811461347f57600080fd5b5056fea2646970667358221220b5e5502c5ca84bd958d91459c749151bd5c5c995636055a06837a3c11751f9c764736f6c63430008070033",
					"opcodes": "PUSH1 0x80 PUSH1 0x40 MSTORE PUSH1 0x0 PUSH1 0x1 SSTORE PUSH1 0x0 PUSH1 0x2 SSTORE PUSH1 0x3C PUSH1 0x3 SSTORE PUSH8 0xDE0B6B3A7640000 PUSH1 0x4 SSTORE PUSH8 0x1BC16D674EC80000 PUSH1 0x5 SSTORE CALLVALUE DUP1 ISZERO PUSH3 0x38 JUMPI PUSH1 0x0 DUP1 REVERT JUMPDEST POP PUSH3 0x59 PUSH3 0x4D PUSH3 0x5F PUSH1 0x20 SHL PUSH1 0x20 SHR JUMP JUMPDEST PUSH3 0x67 PUSH1 0x20 SHL PUSH1 0x20 SHR JUMP JUMPDEST PUSH3 0x12B JUMP JUMPDEST PUSH1 0x0 CALLER SWAP1 POP SWAP1 JUMP JUMPDEST PUSH1 0x0 DUP1 PUSH1 0x0 SWAP1 SLOAD SWAP1 PUSH2 0x100 EXP SWAP1 DIV PUSH20 0xFFFFFFFFFFFFFFFFFFFFFFFFFFFFFFFFFFFFFFFF AND SWAP1 POP DUP2 PUSH1 0x0 DUP1 PUSH2 0x100 EXP DUP2 SLOAD DUP2 PUSH20 0xFFFFFFFFFFFFFFFFFFFFFFFFFFFFFFFFFFFFFFFF MUL NOT AND SWAP1 DUP4 PUSH20 0xFFFFFFFFFFFFFFFFFFFFFFFFFFFFFFFFFFFFFFFF AND MUL OR SWAP1 SSTORE POP DUP2 PUSH20 0xFFFFFFFFFFFFFFFFFFFFFFFFFFFFFFFFFFFFFFFF AND DUP2 PUSH20 0xFFFFFFFFFFFFFFFFFFFFFFFFFFFFFFFFFFFFFFFF AND PUSH32 0x8BE0079C531659141344CD1FD0A4F28419497F9722A3DAAFE3B4186F6B6457E0 PUSH1 0x40 MLOAD PUSH1 0x40 MLOAD DUP1 SWAP2 SUB SWAP1 LOG3 POP POP JUMP JUMPDEST PUSH2 0x34B8 DUP1 PUSH3 0x13B PUSH1 0x0 CODECOPY PUSH1 0x0 RETURN INVALID PUSH1 0x80 PUSH1 0x40 MSTORE PUSH1 0x4 CALLDATASIZE LT PUSH2 0x114 JUMPI PUSH1 0x0 CALLDATALOAD PUSH1 0xE0 SHR DUP1 PUSH4 0x70A08231 GT PUSH2 0xA0 JUMPI DUP1 PUSH4 0xD735573D GT PUSH2 0x64 JUMPI DUP1 PUSH4 0xD735573D EQ PUSH2 0x3A8 JUMPI DUP1 PUSH4 0xDF79777B EQ PUSH2 0x3EC JUMPI DUP1 PUSH4 0xE172FCA8 EQ PUSH2 0x429 JUMPI DUP1 PUSH4 0xF2FDE38B EQ PUSH2 0x452 JUMPI DUP1 PUSH4 0xFFE20B64 EQ PUSH2 0x47B JUMPI PUSH2 0x114 JUMP JUMPDEST DUP1 PUSH4 0x70A08231 EQ PUSH2 0x2C1 JUMPI DUP1 PUSH4 0x715018A6 EQ PUSH2 0x2FE JUMPI DUP1 PUSH4 0x858B0554 EQ PUSH2 0x315 JUMPI DUP1 PUSH4 0x8DA5CB5B EQ PUSH2 0x352 JUMPI DUP1 PUSH4 0xB2BDFA7B EQ PUSH2 0x37D JUMPI PUSH2 0x114 JUMP JUMPDEST DUP1 PUSH4 0x23B872DD GT PUSH2 0xE7 JUMPI DUP1 PUSH4 0x23B872DD EQ PUSH2 0x1CB JUMPI DUP1 PUSH4 0x2458C544 EQ PUSH2 0x1E7 JUMPI DUP1 PUSH4 0x6352211E EQ PUSH2 0x224 JUMPI DUP1 PUSH4 0x6A7D1816 EQ PUSH2 0x261 JUMPI DUP1 PUSH4 0x6B6F0494 EQ PUSH2 0x291 JUMPI PUSH2 0x114 JUMP JUMPDEST DUP1 PUSH4 0x49A5F65 EQ PUSH2 0x119 JUMPI DUP1 PUSH4 0x95EA7B3 EQ PUSH2 0x149 JUMPI DUP1 PUSH4 0x17BDE7A9 EQ PUSH2 0x165 JUMPI DUP1 PUSH4 0x1C6743E4 EQ PUSH2 0x18E JUMPI JUMPDEST PUSH1 0x0 DUP1 REVERT JUMPDEST PUSH2 0x133 PUSH1 0x4 DUP1 CALLDATASIZE SUB DUP2 ADD SWAP1 PUSH2 0x12E SWAP2 SWAP1 PUSH2 0x2878 JUMP JUMPDEST PUSH2 0x4A4 JUMP JUMPDEST PUSH1 0x40 MLOAD PUSH2 0x140 SWAP2 SWAP1 PUSH2 0x2DA4 JUMP JUMPDEST PUSH1 0x40 MLOAD DUP1 SWAP2 SUB SWAP1 RETURN JUMPDEST PUSH2 0x163 PUSH1 0x4 DUP1 CALLDATASIZE SUB DUP2 ADD SWAP1 PUSH2 0x15E SWAP2 SWAP1 PUSH2 0x2903 JUMP JUMPDEST PUSH2 0x605 JUMP JUMPDEST STOP JUMPDEST CALLVALUE DUP1 ISZERO PUSH2 0x171 JUMPI PUSH1 0x0 DUP1 REVERT JUMPDEST POP PUSH2 0x18C PUSH1 0x4 DUP1 CALLDATASIZE SUB DUP2 ADD SWAP1 PUSH2 0x187 SWAP2 SWAP1 PUSH2 0x27B8 JUMP JUMPDEST PUSH2 0x723 JUMP JUMPDEST STOP JUMPDEST CALLVALUE DUP1 ISZERO PUSH2 0x19A JUMPI PUSH1 0x0 DUP1 REVERT JUMPDEST POP PUSH2 0x1B5 PUSH1 0x4 DUP1 CALLDATASIZE SUB DUP2 ADD SWAP1 PUSH2 0x1B0 SWAP2 SWAP1 PUSH2 0x27B8 JUMP JUMPDEST PUSH2 0x875 JUMP JUMPDEST PUSH1 0x40 MLOAD PUSH2 0x1C2 SWAP2 SWAP1 PUSH2 0x2EC7 JUMP JUMPDEST PUSH1 0x40 MLOAD DUP1 SWAP2 SUB SWAP1 RETURN JUMPDEST PUSH2 0x1E5 PUSH1 0x4 DUP1 CALLDATASIZE SUB DUP2 ADD SWAP1 PUSH2 0x1E0 SWAP2 SWAP1 PUSH2 0x2825 JUMP JUMPDEST PUSH2 0x88D JUMP JUMPDEST STOP JUMPDEST CALLVALUE DUP1 ISZERO PUSH2 0x1F3 JUMPI PUSH1 0x0 DUP1 REVERT JUMPDEST POP PUSH2 0x20E PUSH1 0x4 DUP1 CALLDATASIZE SUB DUP2 ADD SWAP1 PUSH2 0x209 SWAP2 SWAP1 PUSH2 0x2943 JUMP JUMPDEST PUSH2 0x971 JUMP JUMPDEST PUSH1 0x40 MLOAD PUSH2 0x21B SWAP2 SWAP1 PUSH2 0x2EC7 JUMP JUMPDEST PUSH1 0x40 MLOAD DUP1 SWAP2 SUB SWAP1 RETURN JUMPDEST CALLVALUE DUP1 ISZERO PUSH2 0x230 JUMPI PUSH1 0x0 DUP1 REVERT JUMPDEST POP PUSH2 0x24B PUSH1 0x4 DUP1 CALLDATASIZE SUB DUP2 ADD SWAP1 PUSH2 0x246 SWAP2 SWAP1 PUSH2 0x2AE0 JUMP JUMPDEST PUSH2 0xC53 JUMP JUMPDEST PUSH1 0x40 MLOAD PUSH2 0x258 SWAP2 SWAP1 PUSH2 0x2CF6 JUMP JUMPDEST PUSH1 0x40 MLOAD DUP1 SWAP2 SUB SWAP1 RETURN JUMPDEST PUSH2 0x27B PUSH1 0x4 DUP1 CALLDATASIZE SUB DUP2 ADD SWAP1 PUSH2 0x276 SWAP2 SWAP1 PUSH2 0x27B8 JUMP JUMPDEST PUSH2 0xC90 JUMP JUMPDEST PUSH1 0x40 MLOAD PUSH2 0x288 SWAP2 SWAP1 PUSH2 0x2DA4 JUMP JUMPDEST PUSH1 0x40 MLOAD DUP1 SWAP2 SUB SWAP1 RETURN JUMPDEST PUSH2 0x2AB PUSH1 0x4 DUP1 CALLDATASIZE SUB DUP2 ADD SWAP1 PUSH2 0x2A6 SWAP2 SWAP1 PUSH2 0x2AE0 JUMP JUMPDEST PUSH2 0xDE5 JUMP JUMPDEST PUSH1 0x40 MLOAD PUSH2 0x2B8 SWAP2 SWAP1 PUSH2 0x2DA4 JUMP JUMPDEST PUSH1 0x40 MLOAD DUP1 SWAP2 SUB SWAP1 RETURN JUMPDEST CALLVALUE DUP1 ISZERO PUSH2 0x2CD JUMPI PUSH1 0x0 DUP1 REVERT JUMPDEST POP PUSH2 0x2E8 PUSH1 0x4 DUP1 CALLDATASIZE SUB DUP2 ADD SWAP1 PUSH2 0x2E3 SWAP2 SWAP1 PUSH2 0x27B8 JUMP JUMPDEST PUSH2 0x1720 JUMP JUMPDEST PUSH1 0x40 MLOAD PUSH2 0x2F5 SWAP2 SWAP1 PUSH2 0x2EC7 JUMP JUMPDEST PUSH1 0x40 MLOAD DUP1 SWAP2 SUB SWAP1 RETURN JUMPDEST CALLVALUE DUP1 ISZERO PUSH2 0x30A JUMPI PUSH1 0x0 DUP1 REVERT JUMPDEST POP PUSH2 0x313 PUSH2 0x1769 JUMP JUMPDEST STOP JUMPDEST CALLVALUE DUP1 ISZERO PUSH2 0x321 JUMPI PUSH1 0x0 DUP1 REVERT JUMPDEST POP PUSH2 0x33C PUSH1 0x4 DUP1 CALLDATASIZE SUB DUP2 ADD SWAP1 PUSH2 0x337 SWAP2 SWAP1 PUSH2 0x2AE0 JUMP JUMPDEST PUSH2 0x17F1 JUMP JUMPDEST PUSH1 0x40 MLOAD PUSH2 0x349 SWAP2 SWAP1 PUSH2 0x2CF6 JUMP JUMPDEST PUSH1 0x40 MLOAD DUP1 SWAP2 SUB SWAP1 RETURN JUMPDEST CALLVALUE DUP1 ISZERO PUSH2 0x35E JUMPI PUSH1 0x0 DUP1 REVERT JUMPDEST POP PUSH2 0x367 PUSH2 0x1824 JUMP JUMPDEST PUSH1 0x40 MLOAD PUSH2 0x374 SWAP2 SWAP1 PUSH2 0x2CF6 JUMP JUMPDEST PUSH1 0x40 MLOAD DUP1 SWAP2 SUB SWAP1 RETURN JUMPDEST CALLVALUE DUP1 ISZERO PUSH2 0x389 JUMPI PUSH1 0x0 DUP1 REVERT JUMPDEST POP PUSH2 0x392 PUSH2 0x184D JUMP JUMPDEST PUSH1 0x40 MLOAD PUSH2 0x39F SWAP2 SWAP1 PUSH2 0x2CF6 JUMP JUMPDEST PUSH1 0x40 MLOAD DUP1 SWAP2 SUB SWAP1 RETURN JUMPDEST CALLVALUE DUP1 ISZERO PUSH2 0x3B4 JUMPI PUSH1 0x0 DUP1 REVERT JUMPDEST POP PUSH2 0x3CF PUSH1 0x4 DUP1 CALLDATASIZE SUB DUP2 ADD SWAP1 PUSH2 0x3CA SWAP2 SWAP1 PUSH2 0x2AE0 JUMP JUMPDEST PUSH2 0x1871 JUMP JUMPDEST PUSH1 0x40 MLOAD PUSH2 0x3E3 SWAP9 SWAP8 SWAP7 SWAP6 SWAP5 SWAP4 SWAP3 SWAP2 SWAP1 PUSH2 0x2D11 JUMP JUMPDEST PUSH1 0x40 MLOAD DUP1 SWAP2 SUB SWAP1 RETURN JUMPDEST CALLVALUE DUP1 ISZERO PUSH2 0x3F8 JUMPI PUSH1 0x0 DUP1 REVERT JUMPDEST POP PUSH2 0x413 PUSH1 0x4 DUP1 CALLDATASIZE SUB DUP2 ADD SWAP1 PUSH2 0x40E SWAP2 SWAP1 PUSH2 0x29EA JUMP JUMPDEST PUSH2 0x1A91 JUMP JUMPDEST PUSH1 0x40 MLOAD PUSH2 0x420 SWAP2 SWAP1 PUSH2 0x2EC7 JUMP JUMPDEST PUSH1 0x40 MLOAD DUP1 SWAP2 SUB SWAP1 RETURN JUMPDEST CALLVALUE DUP1 ISZERO PUSH2 0x435 JUMPI PUSH1 0x0 DUP1 REVERT JUMPDEST POP PUSH2 0x450 PUSH1 0x4 DUP1 CALLDATASIZE SUB DUP2 ADD SWAP1 PUSH2 0x44B SWAP2 SWAP1 PUSH2 0x27B8 JUMP JUMPDEST PUSH2 0x1D77 JUMP JUMPDEST STOP JUMPDEST CALLVALUE DUP1 ISZERO PUSH2 0x45E JUMPI PUSH1 0x0 DUP1 REVERT JUMPDEST POP PUSH2 0x479 PUSH1 0x4 DUP1 CALLDATASIZE SUB DUP2 ADD SWAP1 PUSH2 0x474 SWAP2 SWAP1 PUSH2 0x27B8 JUMP JUMPDEST PUSH2 0x1F1E JUMP JUMPDEST STOP JUMPDEST CALLVALUE DUP1 ISZERO PUSH2 0x487 JUMPI PUSH1 0x0 DUP1 REVERT JUMPDEST POP PUSH2 0x4A2 PUSH1 0x4 DUP1 CALLDATASIZE SUB DUP2 ADD SWAP1 PUSH2 0x49D SWAP2 SWAP1 PUSH2 0x27E5 JUMP JUMPDEST PUSH2 0x2016 JUMP JUMPDEST STOP JUMPDEST PUSH1 0x60 DUP4 PUSH20 0xFFFFFFFFFFFFFFFFFFFFFFFFFFFFFFFFFFFFFFFF AND CALLER PUSH20 0xFFFFFFFFFFFFFFFFFFFFFFFFFFFFFFFFFFFFFFFF AND EQ PUSH2 0x4DE JUMPI PUSH1 0x0 DUP1 REVERT JUMPDEST PUSH1 0x5 SLOAD CALLVALUE EQ PUSH2 0x4EC JUMPI PUSH1 0x0 DUP1 REVERT JUMPDEST PUSH1 0x0 JUMPDEST PUSH1 0x6 DUP1 SLOAD SWAP1 POP DUP2 LT ISZERO PUSH2 0x5FD JUMPI CALLER PUSH20 0xFFFFFFFFFFFFFFFFFFFFFFFFFFFFFFFFFFFFFFFF AND PUSH1 0x6 DUP3 DUP2 SLOAD DUP2 LT PUSH2 0x527 JUMPI PUSH2 0x526 PUSH2 0x327B JUMP JUMPDEST JUMPDEST SWAP1 PUSH1 0x0 MSTORE PUSH1 0x20 PUSH1 0x0 KECCAK256 SWAP1 PUSH1 0x8 MUL ADD PUSH1 0x0 ADD PUSH1 0x0 SWAP1 SLOAD SWAP1 PUSH2 0x100 EXP SWAP1 DIV PUSH20 0xFFFFFFFFFFFFFFFFFFFFFFFFFFFFFFFFFFFFFFFF AND PUSH20 0xFFFFFFFFFFFFFFFFFFFFFFFFFFFFFFFFFFFFFFFF AND EQ ISZERO PUSH2 0x5EA JUMPI DUP4 PUSH1 0x6 DUP3 DUP2 SLOAD DUP2 LT PUSH2 0x58A JUMPI PUSH2 0x589 PUSH2 0x327B JUMP JUMPDEST JUMPDEST SWAP1 PUSH1 0x0 MSTORE PUSH1 0x20 PUSH1 0x0 KECCAK256 SWAP1 PUSH1 0x8 MUL ADD PUSH1 0x1 ADD SWAP1 DUP1 MLOAD SWAP1 PUSH1 0x20 ADD SWAP1 PUSH2 0x5AE SWAP3 SWAP2 SWAP1 PUSH2 0x2626 JUMP JUMPDEST POP DUP3 PUSH1 0x6 DUP3 DUP2 SLOAD DUP2 LT PUSH2 0x5C4 JUMPI PUSH2 0x5C3 PUSH2 0x327B JUMP JUMPDEST JUMPDEST SWAP1 PUSH1 0x0 MSTORE PUSH1 0x20 PUSH1 0x0 KECCAK256 SWAP1 PUSH1 0x8 MUL ADD PUSH1 0x2 ADD SWAP1 DUP1 MLOAD SWAP1 PUSH1 0x20 ADD SWAP1 PUSH2 0x5E8 SWAP3 SWAP2 SWAP1 PUSH2 0x2626 JUMP JUMPDEST POP JUMPDEST DUP1 DUP1 PUSH2 0x5F5 SWAP1 PUSH2 0x310E JUMP JUMPDEST SWAP2 POP POP PUSH2 0x4EF JUMP JUMPDEST POP SWAP4 SWAP3 POP POP POP JUMP JUMPDEST DUP1 PUSH1 0x7 PUSH1 0x0 DUP3 DUP2 MSTORE PUSH1 0x20 ADD SWAP1 DUP2 MSTORE PUSH1 0x20 ADD PUSH1 0x0 KECCAK256 PUSH1 0x0 SWAP1 SLOAD SWAP1 PUSH2 0x100 EXP SWAP1 DIV PUSH20 0xFFFFFFFFFFFFFFFFFFFFFFFFFFFFFFFFFFFFFFFF AND PUSH20 0xFFFFFFFFFFFFFFFFFFFFFFFFFFFFFFFFFFFFFFFF AND CALLER PUSH20 0xFFFFFFFFFFFFFFFFFFFFFFFFFFFFFFFFFFFFFFFF AND EQ PUSH2 0x671 JUMPI PUSH1 0x0 DUP1 REVERT JUMPDEST DUP3 PUSH1 0x9 PUSH1 0x0 DUP5 DUP2 MSTORE PUSH1 0x20 ADD SWAP1 DUP2 MSTORE PUSH1 0x20 ADD PUSH1 0x0 KECCAK256 PUSH1 0x0 PUSH2 0x100 EXP DUP2 SLOAD DUP2 PUSH20 0xFFFFFFFFFFFFFFFFFFFFFFFFFFFFFFFFFFFFFFFF MUL NOT AND SWAP1 DUP4 PUSH20 0xFFFFFFFFFFFFFFFFFFFFFFFFFFFFFFFFFFFFFFFF AND MUL OR SWAP1 SSTORE POP DUP2 DUP4 PUSH20 0xFFFFFFFFFFFFFFFFFFFFFFFFFFFFFFFFFFFFFFFF AND CALLER PUSH20 0xFFFFFFFFFFFFFFFFFFFFFFFFFFFFFFFFFFFFFFFF AND PUSH32 0x8C5BE1E5EBEC7D5BD14F71427D1E84F3DD0314C0F7B2291E5B200AC8C7C3B925 PUSH1 0x40 MLOAD PUSH1 0x40 MLOAD DUP1 SWAP2 SUB SWAP1 LOG4 POP POP POP JUMP JUMPDEST PUSH1 0x0 JUMPDEST PUSH1 0x6 DUP1 SLOAD SWAP1 POP DUP2 LT ISZERO PUSH2 0x871 JUMPI DUP2 PUSH20 0xFFFFFFFFFFFFFFFFFFFFFFFFFFFFFFFFFFFFFFFF AND PUSH1 0x6 DUP3 DUP2 SLOAD DUP2 LT PUSH2 0x75E JUMPI PUSH2 0x75D PUSH2 0x327B JUMP JUMPDEST JUMPDEST SWAP1 PUSH1 0x0 MSTORE PUSH1 0x20 PUSH1 0x0 KECCAK256 SWAP1 PUSH1 0x8 MUL ADD PUSH1 0x0 ADD PUSH1 0x0 SWAP1 SLOAD SWAP1 PUSH2 0x100 EXP SWAP1 DIV PUSH20 0xFFFFFFFFFFFFFFFFFFFFFFFFFFFFFFFFFFFFFFFF AND PUSH20 0xFFFFFFFFFFFFFFFFFFFFFFFFFFFFFFFFFFFFFFFF AND EQ ISZERO PUSH2 0x85E JUMPI PUSH1 0x6 DUP1 SLOAD DUP1 PUSH2 0x7BE JUMPI PUSH2 0x7BD PUSH2 0x324C JUMP JUMPDEST JUMPDEST PUSH1 0x1 SWAP1 SUB DUP2 DUP2 SWAP1 PUSH1 0x0 MSTORE PUSH1 0x20 PUSH1 0x0 KECCAK256 SWAP1 PUSH1 0x8 MUL ADD PUSH1 0x0 DUP1 DUP3 ADD PUSH1 0x0 PUSH2 0x100 EXP DUP2 SLOAD SWAP1 PUSH20 0xFFFFFFFFFFFFFFFFFFFFFFFFFFFFFFFFFFFFFFFF MUL NOT AND SWAP1 SSTORE PUSH1 0x1 DUP3 ADD PUSH1 0x0 PUSH2 0x80A SWAP2 SWAP1 PUSH2 0x26AC JUMP JUMPDEST PUSH1 0x2 DUP3 ADD PUSH1 0x0 PUSH2 0x81A SWAP2 SWAP1 PUSH2 0x26AC JUMP JUMPDEST PUSH1 0x3 DUP3 ADD PUSH1 0x0 PUSH2 0x82A SWAP2 SWAP1 PUSH2 0x26AC JUMP JUMPDEST PUSH1 0x4 DUP3 ADD PUSH1 0x0 SWAP1 SSTORE PUSH1 0x5 DUP3 ADD PUSH1 0x0 SWAP1 SSTORE PUSH1 0x6 DUP3 ADD PUSH1 0x0 SWAP1 SSTORE PUSH1 0x7 DUP3 ADD PUSH1 0x0 PUSH2 0x100 EXP DUP2 SLOAD SWAP1 PUSH4 0xFFFFFFFF MUL NOT AND SWAP1 SSTORE POP POP SWAP1 SSTORE JUMPDEST DUP1 DUP1 PUSH2 0x869 SWAP1 PUSH2 0x310E JUMP JUMPDEST SWAP2 POP POP PUSH2 0x726 JUMP JUMPDEST POP POP JUMP JUMPDEST PUSH1 0x8 PUSH1 0x20 MSTORE DUP1 PUSH1 0x0 MSTORE PUSH1 0x40 PUSH1 0x0 KECCAK256 PUSH1 0x0 SWAP2 POP SWAP1 POP SLOAD DUP2 JUMP JUMPDEST CALLER PUSH20 0xFFFFFFFFFFFFFFFFFFFFFFFFFFFFFFFFFFFFFFFF AND PUSH1 0x7 PUSH1 0x0 DUP4 DUP2 MSTORE PUSH1 0x20 ADD SWAP1 DUP2 MSTORE PUSH1 0x20 ADD PUSH1 0x0 KECCAK256 PUSH1 0x0 SWAP1 SLOAD SWAP1 PUSH2 0x100 EXP SWAP1 DIV PUSH20 0xFFFFFFFFFFFFFFFFFFFFFFFFFFFFFFFFFFFFFFFF AND PUSH20 0xFFFFFFFFFFFFFFFFFFFFFFFFFFFFFFFFFFFFFFFF AND EQ DUP1 PUSH2 0x958 JUMPI POP CALLER PUSH20 0xFFFFFFFFFFFFFFFFFFFFFFFFFFFFFFFFFFFFFFFF AND PUSH1 0x9 PUSH1 0x0 DUP4 DUP2 MSTORE PUSH1 0x20 ADD SWAP1 DUP2 MSTORE PUSH1 0x20 ADD PUSH1 0x0 KECCAK256 PUSH1 0x0 SWAP1 SLOAD SWAP1 PUSH2 0x100 EXP SWAP1 DIV PUSH20 0xFFFFFFFFFFFFFFFFFFFFFFFFFFFFFFFFFFFFFFFF AND PUSH20 0xFFFFFFFFFFFFFFFFFFFFFFFFFFFFFFFFFFFFFFFF AND EQ JUMPDEST PUSH2 0x961 JUMPI PUSH1 0x0 DUP1 REVERT JUMPDEST PUSH2 0x96C DUP4 DUP4 DUP4 PUSH2 0x2385 JUMP JUMPDEST POP POP POP JUMP JUMPDEST PUSH1 0x0 PUSH1 0x1 PUSH1 0x8 PUSH1 0x0 CALLER PUSH20 0xFFFFFFFFFFFFFFFFFFFFFFFFFFFFFFFFFFFFFFFF AND PUSH20 0xFFFFFFFFFFFFFFFFFFFFFFFFFFFFFFFFFFFFFFFF AND DUP2 MSTORE PUSH1 0x20 ADD SWAP1 DUP2 MSTORE PUSH1 0x20 ADD PUSH1 0x0 KECCAK256 SLOAD LT PUSH2 0x9F5 JUMPI PUSH1 0x40 MLOAD PUSH32 0x8C379A000000000000000000000000000000000000000000000000000000000 DUP2 MSTORE PUSH1 0x4 ADD PUSH2 0x9EC SWAP1 PUSH2 0x2E27 JUMP JUMPDEST PUSH1 0x40 MLOAD DUP1 SWAP2 SUB SWAP1 REVERT JUMPDEST PUSH1 0x6 PUSH1 0x40 MLOAD DUP1 PUSH2 0x100 ADD PUSH1 0x40 MSTORE DUP1 CALLER PUSH20 0xFFFFFFFFFFFFFFFFFFFFFFFFFFFFFFFFFFFFFFFF AND DUP2 MSTORE PUSH1 0x20 ADD DUP7 DUP2 MSTORE PUSH1 0x20 ADD DUP6 DUP2 MSTORE PUSH1 0x20 ADD DUP5 DUP2 MSTORE PUSH1 0x20 ADD PUSH1 0x0 DUP2 MSTORE PUSH1 0x20 ADD PUSH1 0x0 DUP2 MSTORE PUSH1 0x20 ADD PUSH1 0x3 SLOAD TIMESTAMP PUSH2 0xA4D SWAP2 SWAP1 PUSH2 0x2F69 JUMP JUMPDEST PUSH4 0xFFFFFFFF AND DUP2 MSTORE PUSH1 0x20 ADD PUSH1 0x1 PUSH4 0xFFFFFFFF AND DUP2 MSTORE POP SWAP1 DUP1 PUSH1 0x1 DUP2 SLOAD ADD DUP1 DUP3 SSTORE DUP1 SWAP2 POP POP PUSH1 0x1 SWAP1 SUB SWAP1 PUSH1 0x0 MSTORE PUSH1 0x20 PUSH1 0x0 KECCAK256 SWAP1 PUSH1 0x8 MUL ADD PUSH1 0x0 SWAP1 SWAP2 SWAP1 SWAP2 SWAP1 SWAP2 POP PUSH1 0x0 DUP3 ADD MLOAD DUP2 PUSH1 0x0 ADD PUSH1 0x0 PUSH2 0x100 EXP DUP2 SLOAD DUP2 PUSH20 0xFFFFFFFFFFFFFFFFFFFFFFFFFFFFFFFFFFFFFFFF MUL NOT AND SWAP1 DUP4 PUSH20 0xFFFFFFFFFFFFFFFFFFFFFFFFFFFFFFFFFFFFFFFF AND MUL OR SWAP1 SSTORE POP PUSH1 0x20 DUP3 ADD MLOAD DUP2 PUSH1 0x1 ADD SWAP1 DUP1 MLOAD SWAP1 PUSH1 0x20 ADD SWAP1 PUSH2 0xAEF SWAP3 SWAP2 SWAP1 PUSH2 0x2626 JUMP JUMPDEST POP PUSH1 0x40 DUP3 ADD MLOAD DUP2 PUSH1 0x2 ADD SWAP1 DUP1 MLOAD SWAP1 PUSH1 0x20 ADD SWAP1 PUSH2 0xB0C SWAP3 SWAP2 SWAP1 PUSH2 0x2626 JUMP JUMPDEST POP PUSH1 0x60 DUP3 ADD MLOAD DUP2 PUSH1 0x3 ADD SWAP1 DUP1 MLOAD SWAP1 PUSH1 0x20 ADD SWAP1 PUSH2 0xB29 SWAP3 SWAP2 SWAP1 PUSH2 0x2626 JUMP JUMPDEST POP PUSH1 0x80 DUP3 ADD MLOAD DUP2 PUSH1 0x4 ADD SSTORE PUSH1 0xA0 DUP3 ADD MLOAD DUP2 PUSH1 0x5 ADD SSTORE PUSH1 0xC0 DUP3 ADD MLOAD DUP2 PUSH1 0x6 ADD SSTORE PUSH1 0xE0 DUP3 ADD MLOAD DUP2 PUSH1 0x7 ADD PUSH1 0x0 PUSH2 0x100 EXP DUP2 SLOAD DUP2 PUSH4 0xFFFFFFFF MUL NOT AND SWAP1 DUP4 PUSH4 0xFFFFFFFF AND MUL OR SWAP1 SSTORE POP POP POP PUSH1 0x0 PUSH1 0x6 DUP1 SLOAD SWAP1 POP SWAP1 POP CALLER PUSH1 0x7 PUSH1 0x0 DUP4 DUP2 MSTORE PUSH1 0x20 ADD SWAP1 DUP2 MSTORE PUSH1 0x20 ADD PUSH1 0x0 KECCAK256 PUSH1 0x0 PUSH2 0x100 EXP DUP2 SLOAD DUP2 PUSH20 0xFFFFFFFFFFFFFFFFFFFFFFFFFFFFFFFFFFFFFFFF MUL NOT AND SWAP1 DUP4 PUSH20 0xFFFFFFFFFFFFFFFFFFFFFFFFFFFFFFFFFFFFFFFF AND MUL OR SWAP1 SSTORE POP PUSH1 0x8 PUSH1 0x0 CALLER PUSH20 0xFFFFFFFFFFFFFFFFFFFFFFFFFFFFFFFFFFFFFFFF AND PUSH20 0xFFFFFFFFFFFFFFFFFFFFFFFFFFFFFFFFFFFFFFFF AND DUP2 MSTORE PUSH1 0x20 ADD SWAP1 DUP2 MSTORE PUSH1 0x20 ADD PUSH1 0x0 KECCAK256 PUSH1 0x0 DUP2 SLOAD DUP1 SWAP3 SWAP2 SWAP1 PUSH2 0xC1D SWAP1 PUSH2 0x310E JUMP JUMPDEST SWAP2 SWAP1 POP SSTORE POP PUSH1 0x2 PUSH1 0x0 DUP2 SLOAD DUP1 SWAP3 SWAP2 SWAP1 PUSH2 0xC35 SWAP1 PUSH2 0x310E JUMP JUMPDEST SWAP2 SWAP1 POP SSTORE POP PUSH1 0x1 PUSH1 0x2 SLOAD PUSH2 0xC49 SWAP2 SWAP1 PUSH2 0x2FBF JUMP JUMPDEST SWAP2 POP POP SWAP4 SWAP3 POP POP POP JUMP JUMPDEST PUSH1 0x0 PUSH1 0x7 PUSH1 0x0 DUP4 DUP2 MSTORE PUSH1 0x20 ADD SWAP1 DUP2 MSTORE PUSH1 0x20 ADD PUSH1 0x0 KECCAK256 PUSH1 0x0 SWAP1 SLOAD SWAP1 PUSH2 0x100 EXP SWAP1 DIV PUSH20 0xFFFFFFFFFFFFFFFFFFFFFFFFFFFFFFFFFFFFFFFF AND SWAP1 POP SWAP2 SWAP1 POP JUMP JUMPDEST PUSH1 0x60 PUSH1 0x4 SLOAD CALLVALUE EQ PUSH2 0xCA0 JUMPI PUSH1 0x0 DUP1 REVERT JUMPDEST PUSH1 0x0 JUMPDEST PUSH1 0x6 DUP1 SLOAD SWAP1 POP DUP2 LT ISZERO PUSH2 0xDDE JUMPI DUP3 PUSH20 0xFFFFFFFFFFFFFFFFFFFFFFFFFFFFFFFFFFFFFFFF AND PUSH1 0x6 DUP3 DUP2 SLOAD DUP2 LT PUSH2 0xCDB JUMPI PUSH2 0xCDA PUSH2 0x327B JUMP JUMPDEST JUMPDEST SWAP1 PUSH1 0x0 MSTORE PUSH1 0x20 PUSH1 0x0 KECCAK256 SWAP1 PUSH1 0x8 MUL ADD PUSH1 0x0 ADD PUSH1 0x0 SWAP1 SLOAD SWAP1 PUSH2 0x100 EXP SWAP1 DIV PUSH20 0xFFFFFFFFFFFFFFFFFFFFFFFFFFFFFFFFFFFFFFFF AND PUSH20 0xFFFFFFFFFFFFFFFFFFFFFFFFFFFFFFFFFFFFFFFF AND EQ ISZERO PUSH2 0xDCB JUMPI PUSH1 0x6 DUP2 DUP2 SLOAD DUP2 LT PUSH2 0xD3D JUMPI PUSH2 0xD3C PUSH2 0x327B JUMP JUMPDEST JUMPDEST SWAP1 PUSH1 0x0 MSTORE PUSH1 0x20 PUSH1 0x0 KECCAK256 SWAP1 PUSH1 0x8 MUL ADD PUSH1 0x7 ADD PUSH1 0x0 DUP2 DUP2 SWAP1 SLOAD SWAP1 PUSH2 0x100 EXP SWAP1 DIV PUSH4 0xFFFFFFFF AND DUP1 SWAP3 SWAP2 SWAP1 PUSH2 0xD6E SWAP1 PUSH2 0x3157 JUMP JUMPDEST SWAP2 SWAP1 PUSH2 0x100 EXP DUP2 SLOAD DUP2 PUSH4 0xFFFFFFFF MUL NOT AND SWAP1 DUP4 PUSH4 0xFFFFFFFF AND MUL OR SWAP1 SSTORE POP POP PUSH1 0x40 MLOAD DUP1 PUSH1 0x40 ADD PUSH1 0x40 MSTORE DUP1 PUSH1 0x12 DUP2 MSTORE PUSH1 0x20 ADD PUSH32 0x48612073756269646F206465206E6976656C0000000000000000000000000000 DUP2 MSTORE POP SWAP2 POP POP PUSH2 0xDE0 JUMP JUMPDEST DUP1 DUP1 PUSH2 0xDD6 SWAP1 PUSH2 0x310E JUMP JUMPDEST SWAP2 POP POP PUSH2 0xCA3 JUMP JUMPDEST POP JUMPDEST SWAP2 SWAP1 POP JUMP JUMPDEST PUSH1 0x60 PUSH1 0x1 PUSH1 0x6 DUP1 SLOAD SWAP1 POP GT PUSH2 0xE2E JUMPI PUSH32 0x6158FC8F21C8CC73DDF920956CC75D0E8A48B4FC85817A0BA89EB3B6D2A75441 PUSH1 0x40 MLOAD PUSH2 0xE21 SWAP1 PUSH2 0x2E67 JUMP JUMPDEST PUSH1 0x40 MLOAD DUP1 SWAP2 SUB SWAP1 LOG1 PUSH2 0x171A JUMP JUMPDEST DUP2 CALLVALUE EQ PUSH2 0xE3A JUMPI PUSH1 0x0 DUP1 REVERT JUMPDEST PUSH1 0x1 PUSH1 0x0 DUP2 SLOAD DUP1 SWAP3 SWAP2 SWAP1 PUSH2 0xE4D SWAP1 PUSH2 0x310E JUMP JUMPDEST SWAP2 SWAP1 POP SSTORE POP PUSH1 0x0 PUSH1 0x6 DUP1 SLOAD SWAP1 POP TIMESTAMP PUSH1 0x6 DUP1 SLOAD SWAP1 POP PUSH1 0x1 SLOAD PUSH1 0x40 MLOAD PUSH1 0x20 ADD PUSH2 0xE76 SWAP4 SWAP3 SWAP2 SWAP1 PUSH2 0x2CB9 JUMP JUMPDEST PUSH1 0x40 MLOAD PUSH1 0x20 DUP2 DUP4 SUB SUB DUP2 MSTORE SWAP1 PUSH1 0x40 MSTORE DUP1 MLOAD SWAP1 PUSH1 0x20 ADD KECCAK256 PUSH1 0x0 SHR PUSH2 0xE99 SWAP2 SWAP1 PUSH2 0x318E JUMP JUMPDEST SWAP1 POP PUSH1 0x0 PUSH1 0x7 PUSH1 0x0 DUP4 DUP2 MSTORE PUSH1 0x20 ADD SWAP1 DUP2 MSTORE PUSH1 0x20 ADD PUSH1 0x0 KECCAK256 PUSH1 0x0 SWAP1 SLOAD SWAP1 PUSH2 0x100 EXP SWAP1 DIV PUSH20 0xFFFFFFFFFFFFFFFFFFFFFFFFFFFFFFFFFFFFFFFF AND SWAP1 POP PUSH1 0x1 PUSH1 0x0 DUP2 SLOAD DUP1 SWAP3 SWAP2 SWAP1 PUSH2 0xEE6 SWAP1 PUSH2 0x310E JUMP JUMPDEST SWAP2 SWAP1 POP SSTORE POP PUSH1 0x0 PUSH1 0x64 SWAP1 POP PUSH1 0x0 DUP2 TIMESTAMP DUP4 PUSH1 0x1 SLOAD PUSH1 0x40 MLOAD PUSH1 0x20 ADD PUSH2 0xF0B SWAP4 SWAP3 SWAP2 SWAP1 PUSH2 0x2CB9 JUMP JUMPDEST PUSH1 0x40 MLOAD PUSH1 0x20 DUP2 DUP4 SUB SUB DUP2 MSTORE SWAP1 PUSH1 0x40 MSTORE DUP1 MLOAD SWAP1 PUSH1 0x20 ADD KECCAK256 PUSH1 0x0 SHR PUSH2 0xF2E SWAP2 SWAP1 PUSH2 0x318E JUMP JUMPDEST SWAP1 POP PUSH1 0x0 JUMPDEST PUSH1 0x6 DUP1 SLOAD SWAP1 POP DUP2 LT ISZERO PUSH2 0x1714 JUMPI PUSH1 0x6 DUP2 DUP2 SLOAD DUP2 LT PUSH2 0xF54 JUMPI PUSH2 0xF53 PUSH2 0x327B JUMP JUMPDEST JUMPDEST SWAP1 PUSH1 0x0 MSTORE PUSH1 0x20 PUSH1 0x0 KECCAK256 SWAP1 PUSH1 0x8 MUL ADD PUSH1 0x0 ADD PUSH1 0x0 SWAP1 SLOAD SWAP1 PUSH2 0x100 EXP SWAP1 DIV PUSH20 0xFFFFFFFFFFFFFFFFFFFFFFFFFFFFFFFFFFFFFFFF AND PUSH20 0xFFFFFFFFFFFFFFFFFFFFFFFFFFFFFFFFFFFFFFFF AND CALLER PUSH20 0xFFFFFFFFFFFFFFFFFFFFFFFFFFFFFFFFFFFFFFFF AND EQ ISZERO PUSH2 0x1701 JUMPI PUSH2 0xFE3 PUSH1 0x6 DUP3 DUP2 SLOAD DUP2 LT PUSH2 0xFD0 JUMPI PUSH2 0xFCF PUSH2 0x327B JUMP JUMPDEST JUMPDEST SWAP1 PUSH1 0x0 MSTORE PUSH1 0x20 PUSH1 0x0 KECCAK256 SWAP1 PUSH1 0x8 MUL ADD PUSH2 0x24E1 JUMP JUMPDEST PUSH2 0xFEC JUMPI PUSH1 0x0 DUP1 REVERT JUMPDEST PUSH1 0x6 DUP2 DUP2 SLOAD DUP2 LT PUSH2 0x1000 JUMPI PUSH2 0xFFF PUSH2 0x327B JUMP JUMPDEST JUMPDEST SWAP1 PUSH1 0x0 MSTORE PUSH1 0x20 PUSH1 0x0 KECCAK256 SWAP1 PUSH1 0x8 MUL ADD PUSH1 0x5 ADD PUSH1 0x0 DUP2 SLOAD DUP1 SWAP3 SWAP2 SWAP1 PUSH2 0x1022 SWAP1 PUSH2 0x310E JUMP JUMPDEST SWAP2 SWAP1 POP SSTORE POP PUSH1 0x6 DUP6 DUP2 SLOAD DUP2 LT PUSH2 0x103B JUMPI PUSH2 0x103A PUSH2 0x327B JUMP JUMPDEST JUMPDEST SWAP1 PUSH1 0x0 MSTORE PUSH1 0x20 PUSH1 0x0 KECCAK256 SWAP1 PUSH1 0x8 MUL ADD PUSH1 0x5 ADD PUSH1 0x0 DUP2 SLOAD DUP1 SWAP3 SWAP2 SWAP1 PUSH2 0x105D SWAP1 PUSH2 0x310E JUMP JUMPDEST SWAP2 SWAP1 POP SSTORE POP PUSH2 0x108C PUSH1 0x6 DUP3 DUP2 SLOAD DUP2 LT PUSH2 0x1079 JUMPI PUSH2 0x1078 PUSH2 0x327B JUMP JUMPDEST JUMPDEST SWAP1 PUSH1 0x0 MSTORE PUSH1 0x20 PUSH1 0x0 KECCAK256 SWAP1 PUSH1 0x8 MUL ADD PUSH2 0x24F2 JUMP JUMPDEST PUSH1 0x6 DUP2 DUP2 SLOAD DUP2 LT PUSH2 0x10A0 JUMPI PUSH2 0x109F PUSH2 0x327B JUMP JUMPDEST JUMPDEST SWAP1 PUSH1 0x0 MSTORE PUSH1 0x20 PUSH1 0x0 KECCAK256 SWAP1 PUSH1 0x8 MUL ADD PUSH1 0x7 ADD PUSH1 0x0 SWAP1 SLOAD SWAP1 PUSH2 0x100 EXP SWAP1 DIV PUSH4 0xFFFFFFFF AND PUSH4 0xFFFFFFFF AND PUSH1 0x6 DUP7 DUP2 SLOAD DUP2 LT PUSH2 0x10DC JUMPI PUSH2 0x10DB PUSH2 0x327B JUMP JUMPDEST JUMPDEST SWAP1 PUSH1 0x0 MSTORE PUSH1 0x20 PUSH1 0x0 KECCAK256 SWAP1 PUSH1 0x8 MUL ADD PUSH1 0x7 ADD PUSH1 0x0 SWAP1 SLOAD SWAP1 PUSH2 0x100 EXP SWAP1 DIV PUSH4 0xFFFFFFFF AND PUSH4 0xFFFFFFFF AND LT ISZERO PUSH2 0x12DD JUMPI PUSH1 0x3C DUP3 GT PUSH2 0x11FB JUMPI PUSH2 0x111A PUSH2 0x2511 JUMP JUMPDEST PUSH1 0x6 DUP2 DUP2 SLOAD DUP2 LT PUSH2 0x112E JUMPI PUSH2 0x112D PUSH2 0x327B JUMP JUMPDEST JUMPDEST SWAP1 PUSH1 0x0 MSTORE PUSH1 0x20 PUSH1 0x0 KECCAK256 SWAP1 PUSH1 0x8 MUL ADD PUSH1 0x4 ADD PUSH1 0x0 DUP2 SLOAD DUP1 SWAP3 SWAP2 SWAP1 PUSH2 0x1150 SWAP1 PUSH2 0x310E JUMP JUMPDEST SWAP2 SWAP1 POP SSTORE POP PUSH1 0x6 DUP2 DUP2 SLOAD DUP2 LT PUSH2 0x1169 JUMPI PUSH2 0x1168 PUSH2 0x327B JUMP JUMPDEST JUMPDEST SWAP1 PUSH1 0x0 MSTORE PUSH1 0x20 PUSH1 0x0 KECCAK256 SWAP1 PUSH1 0x8 MUL ADD PUSH1 0x7 ADD PUSH1 0x0 DUP2 DUP2 SWAP1 SLOAD SWAP1 PUSH2 0x100 EXP SWAP1 DIV PUSH4 0xFFFFFFFF AND DUP1 SWAP3 SWAP2 SWAP1 PUSH2 0x119A SWAP1 PUSH2 0x3157 JUMP JUMPDEST SWAP2 SWAP1 PUSH2 0x100 EXP DUP2 SLOAD DUP2 PUSH4 0xFFFFFFFF MUL NOT AND SWAP1 DUP4 PUSH4 0xFFFFFFFF AND MUL OR SWAP1 SSTORE POP POP PUSH1 0x40 MLOAD DUP1 PUSH1 0x40 ADD PUSH1 0x40 MSTORE DUP1 PUSH1 0xA DUP2 MSTORE PUSH1 0x20 ADD PUSH32 0x4861732067616E61646F00000000000000000000000000000000000000000000 DUP2 MSTORE POP SWAP6 POP POP POP POP POP POP PUSH2 0x171B JUMP JUMPDEST PUSH32 0x6158FC8F21C8CC73DDF920956CC75D0E8A48B4FC85817A0BA89EB3B6D2A75441 PUSH1 0x40 MLOAD PUSH2 0x1228 SWAP1 PUSH2 0x2EA7 JUMP JUMPDEST PUSH1 0x40 MLOAD DUP1 SWAP2 SUB SWAP1 LOG1 ADDRESS PUSH20 0xFFFFFFFFFFFFFFFFFFFFFFFFFFFFFFFFFFFFFFFF AND PUSH4 0xE172FCA8 DUP6 PUSH1 0x40 MLOAD DUP3 PUSH4 0xFFFFFFFF AND PUSH1 0xE0 SHL DUP2 MSTORE PUSH1 0x4 ADD PUSH2 0x1269 SWAP2 SWAP1 PUSH2 0x2CF6 JUMP JUMPDEST PUSH1 0x0 PUSH1 0x40 MLOAD DUP1 DUP4 SUB DUP2 PUSH1 0x0 DUP8 DUP1 EXTCODESIZE ISZERO DUP1 ISZERO PUSH2 0x1283 JUMPI PUSH1 0x0 DUP1 REVERT JUMPDEST POP GAS CALL ISZERO DUP1 ISZERO PUSH2 0x1297 JUMPI RETURNDATASIZE PUSH1 0x0 DUP1 RETURNDATACOPY RETURNDATASIZE PUSH1 0x0 REVERT JUMPDEST POP POP POP POP PUSH1 0x40 MLOAD DUP1 PUSH1 0x40 ADD PUSH1 0x40 MSTORE DUP1 PUSH1 0xB DUP2 MSTORE PUSH1 0x20 ADD PUSH32 0x486173207065726469646F000000000000000000000000000000000000000000 DUP2 MSTORE POP SWAP6 POP POP POP POP POP POP PUSH2 0x171B JUMP JUMPDEST PUSH1 0x6 DUP2 DUP2 SLOAD DUP2 LT PUSH2 0x12F1 JUMPI PUSH2 0x12F0 PUSH2 0x327B JUMP JUMPDEST JUMPDEST SWAP1 PUSH1 0x0 MSTORE PUSH1 0x20 PUSH1 0x0 KECCAK256 SWAP1 PUSH1 0x8 MUL ADD PUSH1 0x7 ADD PUSH1 0x0 SWAP1 SLOAD SWAP1 PUSH2 0x100 EXP SWAP1 DIV PUSH4 0xFFFFFFFF AND PUSH4 0xFFFFFFFF AND PUSH1 0x6 DUP7 DUP2 SLOAD DUP2 LT PUSH2 0x132D JUMPI PUSH2 0x132C PUSH2 0x327B JUMP JUMPDEST JUMPDEST SWAP1 PUSH1 0x0 MSTORE PUSH1 0x20 PUSH1 0x0 KECCAK256 SWAP1 PUSH1 0x8 MUL ADD PUSH1 0x7 ADD PUSH1 0x0 SWAP1 SLOAD SWAP1 PUSH2 0x100 EXP SWAP1 DIV PUSH4 0xFFFFFFFF AND PUSH4 0xFFFFFFFF AND EQ ISZERO PUSH2 0x152E JUMPI PUSH1 0x32 DUP3 GT PUSH2 0x144C JUMPI PUSH2 0x136B PUSH2 0x2511 JUMP JUMPDEST PUSH1 0x6 DUP2 DUP2 SLOAD DUP2 LT PUSH2 0x137F JUMPI PUSH2 0x137E PUSH2 0x327B JUMP JUMPDEST JUMPDEST SWAP1 PUSH1 0x0 MSTORE PUSH1 0x20 PUSH1 0x0 KECCAK256 SWAP1 PUSH1 0x8 MUL ADD PUSH1 0x4 ADD PUSH1 0x0 DUP2 SLOAD DUP1 SWAP3 SWAP2 SWAP1 PUSH2 0x13A1 SWAP1 PUSH2 0x310E JUMP JUMPDEST SWAP2 SWAP1 POP SSTORE POP PUSH1 0x6 DUP2 DUP2 SLOAD DUP2 LT PUSH2 0x13BA JUMPI PUSH2 0x13B9 PUSH2 0x327B JUMP JUMPDEST JUMPDEST SWAP1 PUSH1 0x0 MSTORE PUSH1 0x20 PUSH1 0x0 KECCAK256 SWAP1 PUSH1 0x8 MUL ADD PUSH1 0x7 ADD PUSH1 0x0 DUP2 DUP2 SWAP1 SLOAD SWAP1 PUSH2 0x100 EXP SWAP1 DIV PUSH4 0xFFFFFFFF AND DUP1 SWAP3 SWAP2 SWAP1 PUSH2 0x13EB SWAP1 PUSH2 0x3157 JUMP JUMPDEST SWAP2 SWAP1 PUSH2 0x100 EXP DUP2 SLOAD DUP2 PUSH4 0xFFFFFFFF MUL NOT AND SWAP1 DUP4 PUSH4 0xFFFFFFFF AND MUL OR SWAP1 SSTORE POP POP PUSH1 0x40 MLOAD DUP1 PUSH1 0x40 ADD PUSH1 0x40 MSTORE DUP1 PUSH1 0xA DUP2 MSTORE PUSH1 0x20 ADD PUSH32 0x4861732067616E61646F00000000000000000000000000000000000000000000 DUP2 MSTORE POP SWAP6 POP POP POP POP POP POP PUSH2 0x171B JUMP JUMPDEST PUSH32 0x6158FC8F21C8CC73DDF920956CC75D0E8A48B4FC85817A0BA89EB3B6D2A75441 PUSH1 0x40 MLOAD PUSH2 0x1479 SWAP1 PUSH2 0x2EA7 JUMP JUMPDEST PUSH1 0x40 MLOAD DUP1 SWAP2 SUB SWAP1 LOG1 ADDRESS PUSH20 0xFFFFFFFFFFFFFFFFFFFFFFFFFFFFFFFFFFFFFFFF AND PUSH4 0xE172FCA8 DUP6 PUSH1 0x40 MLOAD DUP3 PUSH4 0xFFFFFFFF AND PUSH1 0xE0 SHL DUP2 MSTORE PUSH1 0x4 ADD PUSH2 0x14BA SWAP2 SWAP1 PUSH2 0x2CF6 JUMP JUMPDEST PUSH1 0x0 PUSH1 0x40 MLOAD DUP1 DUP4 SUB DUP2 PUSH1 0x0 DUP8 DUP1 EXTCODESIZE ISZERO DUP1 ISZERO PUSH2 0x14D4 JUMPI PUSH1 0x0 DUP1 REVERT JUMPDEST POP GAS CALL ISZERO DUP1 ISZERO PUSH2 0x14E8 JUMPI RETURNDATASIZE PUSH1 0x0 DUP1 RETURNDATACOPY RETURNDATASIZE PUSH1 0x0 REVERT JUMPDEST POP POP POP POP PUSH1 0x40 MLOAD DUP1 PUSH1 0x40 ADD PUSH1 0x40 MSTORE DUP1 PUSH1 0xB DUP2 MSTORE PUSH1 0x20 ADD PUSH32 0x486173207065726469646F000000000000000000000000000000000000000000 DUP2 MSTORE POP SWAP6 POP POP POP POP POP POP PUSH2 0x171B JUMP JUMPDEST PUSH1 0x28 DUP3 GT PUSH2 0x161F JUMPI PUSH2 0x153E PUSH2 0x2511 JUMP JUMPDEST PUSH1 0x6 DUP2 DUP2 SLOAD DUP2 LT PUSH2 0x1552 JUMPI PUSH2 0x1551 PUSH2 0x327B JUMP JUMPDEST JUMPDEST SWAP1 PUSH1 0x0 MSTORE PUSH1 0x20 PUSH1 0x0 KECCAK256 SWAP1 PUSH1 0x8 MUL ADD PUSH1 0x4 ADD PUSH1 0x0 DUP2 SLOAD DUP1 SWAP3 SWAP2 SWAP1 PUSH2 0x1574 SWAP1 PUSH2 0x310E JUMP JUMPDEST SWAP2 SWAP1 POP SSTORE POP PUSH1 0x6 DUP2 DUP2 SLOAD DUP2 LT PUSH2 0x158D JUMPI PUSH2 0x158C PUSH2 0x327B JUMP JUMPDEST JUMPDEST SWAP1 PUSH1 0x0 MSTORE PUSH1 0x20 PUSH1 0x0 KECCAK256 SWAP1 PUSH1 0x8 MUL ADD PUSH1 0x7 ADD PUSH1 0x0 DUP2 DUP2 SWAP1 SLOAD SWAP1 PUSH2 0x100 EXP SWAP1 DIV PUSH4 0xFFFFFFFF AND DUP1 SWAP3 SWAP2 SWAP1 PUSH2 0x15BE SWAP1 PUSH2 0x3157 JUMP JUMPDEST SWAP2 SWAP1 PUSH2 0x100 EXP DUP2 SLOAD DUP2 PUSH4 0xFFFFFFFF MUL NOT AND SWAP1 DUP4 PUSH4 0xFFFFFFFF AND MUL OR SWAP1 SSTORE POP POP PUSH1 0x40 MLOAD DUP1 PUSH1 0x40 ADD PUSH1 0x40 MSTORE DUP1 PUSH1 0xA DUP2 MSTORE PUSH1 0x20 ADD PUSH32 0x4861732067616E61646F00000000000000000000000000000000000000000000 DUP2 MSTORE POP SWAP6 POP POP POP POP POP POP PUSH2 0x171B JUMP JUMPDEST PUSH32 0x6158FC8F21C8CC73DDF920956CC75D0E8A48B4FC85817A0BA89EB3B6D2A75441 PUSH1 0x40 MLOAD PUSH2 0x164C SWAP1 PUSH2 0x2EA7 JUMP JUMPDEST PUSH1 0x40 MLOAD DUP1 SWAP2 SUB SWAP1 LOG1 ADDRESS PUSH20 0xFFFFFFFFFFFFFFFFFFFFFFFFFFFFFFFFFFFFFFFF AND PUSH4 0xE172FCA8 DUP6 PUSH1 0x40 MLOAD DUP3 PUSH4 0xFFFFFFFF AND PUSH1 0xE0 SHL DUP2 MSTORE PUSH1 0x4 ADD PUSH2 0x168D SWAP2 SWAP1 PUSH2 0x2CF6 JUMP JUMPDEST PUSH1 0x0 PUSH1 0x40 MLOAD DUP1 DUP4 SUB DUP2 PUSH1 0x0 DUP8 DUP1 EXTCODESIZE ISZERO DUP1 ISZERO PUSH2 0x16A7 JUMPI PUSH1 0x0 DUP1 REVERT JUMPDEST POP GAS CALL ISZERO DUP1 ISZERO PUSH2 0x16BB JUMPI RETURNDATASIZE PUSH1 0x0 DUP1 RETURNDATACOPY RETURNDATASIZE PUSH1 0x0 REVERT JUMPDEST POP POP POP POP PUSH1 0x40 MLOAD DUP1 PUSH1 0x40 ADD PUSH1 0x40 MSTORE DUP1 PUSH1 0xB DUP2 MSTORE PUSH1 0x20 ADD PUSH32 0x486173207065726469646F000000000000000000000000000000000000000000 DUP2 MSTORE POP SWAP6 POP POP POP POP POP POP PUSH2 0x171B JUMP JUMPDEST DUP1 DUP1 PUSH2 0x170C SWAP1 PUSH2 0x310E JUMP JUMPDEST SWAP2 POP POP PUSH2 0xF33 JUMP JUMPDEST POP POP POP POP POP JUMPDEST JUMPDEST SWAP2 SWAP1 POP JUMP JUMPDEST PUSH1 0x0 PUSH1 0x8 PUSH1 0x0 DUP4 PUSH20 0xFFFFFFFFFFFFFFFFFFFFFFFFFFFFFFFFFFFFFFFF AND PUSH20 0xFFFFFFFFFFFFFFFFFFFFFFFFFFFFFFFFFFFFFFFF AND DUP2 MSTORE PUSH1 0x20 ADD SWAP1 DUP2 MSTORE PUSH1 0x20 ADD PUSH1 0x0 KECCAK256 SLOAD SWAP1 POP SWAP2 SWAP1 POP JUMP JUMPDEST PUSH2 0x1771 PUSH2 0x255A JUMP JUMPDEST PUSH20 0xFFFFFFFFFFFFFFFFFFFFFFFFFFFFFFFFFFFFFFFF AND PUSH2 0x178F PUSH2 0x1824 JUMP JUMPDEST PUSH20 0xFFFFFFFFFFFFFFFFFFFFFFFFFFFFFFFFFFFFFFFF AND EQ PUSH2 0x17E5 JUMPI PUSH1 0x40 MLOAD PUSH32 0x8C379A000000000000000000000000000000000000000000000000000000000 DUP2 MSTORE PUSH1 0x4 ADD PUSH2 0x17DC SWAP1 PUSH2 0x2E87 JUMP JUMPDEST PUSH1 0x40 MLOAD DUP1 SWAP2 SUB SWAP1 REVERT JUMPDEST PUSH2 0x17EF PUSH1 0x0 PUSH2 0x2562 JUMP JUMPDEST JUMP JUMPDEST PUSH1 0x7 PUSH1 0x20 MSTORE DUP1 PUSH1 0x0 MSTORE PUSH1 0x40 PUSH1 0x0 KECCAK256 PUSH1 0x0 SWAP2 POP SLOAD SWAP1 PUSH2 0x100 EXP SWAP1 DIV PUSH20 0xFFFFFFFFFFFFFFFFFFFFFFFFFFFFFFFFFFFFFFFF AND DUP2 JUMP JUMPDEST PUSH1 0x0 DUP1 PUSH1 0x0 SWAP1 SLOAD SWAP1 PUSH2 0x100 EXP SWAP1 DIV PUSH20 0xFFFFFFFFFFFFFFFFFFFFFFFFFFFFFFFFFFFFFFFF AND SWAP1 POP SWAP1 JUMP JUMPDEST PUSH1 0x0 DUP1 SLOAD SWAP1 PUSH2 0x100 EXP SWAP1 DIV PUSH20 0xFFFFFFFFFFFFFFFFFFFFFFFFFFFFFFFFFFFFFFFF AND DUP2 JUMP JUMPDEST PUSH1 0x6 DUP2 DUP2 SLOAD DUP2 LT PUSH2 0x1881 JUMPI PUSH1 0x0 DUP1 REVERT JUMPDEST SWAP1 PUSH1 0x0 MSTORE PUSH1 0x20 PUSH1 0x0 KECCAK256 SWAP1 PUSH1 0x8 MUL ADD PUSH1 0x0 SWAP2 POP SWAP1 POP DUP1 PUSH1 0x0 ADD PUSH1 0x0 SWAP1 SLOAD SWAP1 PUSH2 0x100 EXP SWAP1 DIV PUSH20 0xFFFFFFFFFFFFFFFFFFFFFFFFFFFFFFFFFFFFFFFF AND SWAP1 DUP1 PUSH1 0x1 ADD DUP1 SLOAD PUSH2 0x18CA SWAP1 PUSH2 0x30AB JUMP JUMPDEST DUP1 PUSH1 0x1F ADD PUSH1 0x20 DUP1 SWAP2 DIV MUL PUSH1 0x20 ADD PUSH1 0x40 MLOAD SWAP1 DUP2 ADD PUSH1 0x40 MSTORE DUP1 SWAP3 SWAP2 SWAP1 DUP2 DUP2 MSTORE PUSH1 0x20 ADD DUP3 DUP1 SLOAD PUSH2 0x18F6 SWAP1 PUSH2 0x30AB JUMP JUMPDEST DUP1 ISZERO PUSH2 0x1943 JUMPI DUP1 PUSH1 0x1F LT PUSH2 0x1918 JUMPI PUSH2 0x100 DUP1 DUP4 SLOAD DIV MUL DUP4 MSTORE SWAP2 PUSH1 0x20 ADD SWAP2 PUSH2 0x1943 JUMP JUMPDEST DUP3 ADD SWAP2 SWAP1 PUSH1 0x0 MSTORE PUSH1 0x20 PUSH1 0x0 KECCAK256 SWAP1 JUMPDEST DUP2 SLOAD DUP2 MSTORE SWAP1 PUSH1 0x1 ADD SWAP1 PUSH1 0x20 ADD DUP1 DUP4 GT PUSH2 0x1926 JUMPI DUP3 SWAP1 SUB PUSH1 0x1F AND DUP3 ADD SWAP2 JUMPDEST POP POP POP POP POP SWAP1 DUP1 PUSH1 0x2 ADD DUP1 SLOAD PUSH2 0x1958 SWAP1 PUSH2 0x30AB JUMP JUMPDEST DUP1 PUSH1 0x1F ADD PUSH1 0x20 DUP1 SWAP2 DIV MUL PUSH1 0x20 ADD PUSH1 0x40 MLOAD SWAP1 DUP2 ADD PUSH1 0x40 MSTORE DUP1 SWAP3 SWAP2 SWAP1 DUP2 DUP2 MSTORE PUSH1 0x20 ADD DUP3 DUP1 SLOAD PUSH2 0x1984 SWAP1 PUSH2 0x30AB JUMP JUMPDEST DUP1 ISZERO PUSH2 0x19D1 JUMPI DUP1 PUSH1 0x1F LT PUSH2 0x19A6 JUMPI PUSH2 0x100 DUP1 DUP4 SLOAD DIV MUL DUP4 MSTORE SWAP2 PUSH1 0x20 ADD SWAP2 PUSH2 0x19D1 JUMP JUMPDEST DUP3 ADD SWAP2 SWAP1 PUSH1 0x0 MSTORE PUSH1 0x20 PUSH1 0x0 KECCAK256 SWAP1 JUMPDEST DUP2 SLOAD DUP2 MSTORE SWAP1 PUSH1 0x1 ADD SWAP1 PUSH1 0x20 ADD DUP1 DUP4 GT PUSH2 0x19B4 JUMPI DUP3 SWAP1 SUB PUSH1 0x1F AND DUP3 ADD SWAP2 JUMPDEST POP POP POP POP POP SWAP1 DUP1 PUSH1 0x3 ADD DUP1 SLOAD PUSH2 0x19E6 SWAP1 PUSH2 0x30AB JUMP JUMPDEST DUP1 PUSH1 0x1F ADD PUSH1 0x20 DUP1 SWAP2 DIV MUL PUSH1 0x20 ADD PUSH1 0x40 MLOAD SWAP1 DUP2 ADD PUSH1 0x40 MSTORE DUP1 SWAP3 SWAP2 SWAP1 DUP2 DUP2 MSTORE PUSH1 0x20 ADD DUP3 DUP1 SLOAD PUSH2 0x1A12 SWAP1 PUSH2 0x30AB JUMP JUMPDEST DUP1 ISZERO PUSH2 0x1A5F JUMPI DUP1 PUSH1 0x1F LT PUSH2 0x1A34 JUMPI PUSH2 0x100 DUP1 DUP4 SLOAD DIV MUL DUP4 MSTORE SWAP2 PUSH1 0x20 ADD SWAP2 PUSH2 0x1A5F JUMP JUMPDEST DUP3 ADD SWAP2 SWAP1 PUSH1 0x0 MSTORE PUSH1 0x20 PUSH1 0x0 KECCAK256 SWAP1 JUMPDEST DUP2 SLOAD DUP2 MSTORE SWAP1 PUSH1 0x1 ADD SWAP1 PUSH1 0x20 ADD DUP1 DUP4 GT PUSH2 0x1A42 JUMPI DUP3 SWAP1 SUB PUSH1 0x1F AND DUP3 ADD SWAP2 JUMPDEST POP POP POP POP POP SWAP1 DUP1 PUSH1 0x4 ADD SLOAD SWAP1 DUP1 PUSH1 0x5 ADD SLOAD SWAP1 DUP1 PUSH1 0x6 ADD SLOAD SWAP1 DUP1 PUSH1 0x7 ADD PUSH1 0x0 SWAP1 SLOAD SWAP1 PUSH2 0x100 EXP SWAP1 DIV PUSH4 0xFFFFFFFF AND SWAP1 POP DUP9 JUMP JUMPDEST PUSH1 0x0 PUSH1 0x1 PUSH1 0x8 PUSH1 0x0 CALLER PUSH20 0xFFFFFFFFFFFFFFFFFFFFFFFFFFFFFFFFFFFFFFFF AND PUSH20 0xFFFFFFFFFFFFFFFFFFFFFFFFFFFFFFFFFFFFFFFF AND DUP2 MSTORE PUSH1 0x20 ADD SWAP1 DUP2 MSTORE PUSH1 0x20 ADD PUSH1 0x0 KECCAK256 SLOAD LT PUSH2 0x1B15 JUMPI PUSH1 0x40 MLOAD PUSH32 0x8C379A000000000000000000000000000000000000000000000000000000000 DUP2 MSTORE PUSH1 0x4 ADD PUSH2 0x1B0C SWAP1 PUSH2 0x2E27 JUMP JUMPDEST PUSH1 0x40 MLOAD DUP1 SWAP2 SUB SWAP1 REVERT JUMPDEST PUSH1 0x6 PUSH1 0x40 MLOAD DUP1 PUSH2 0x100 ADD PUSH1 0x40 MSTORE DUP1 CALLER PUSH20 0xFFFFFFFFFFFFFFFFFFFFFFFFFFFFFFFFFFFFFFFF AND DUP2 MSTORE PUSH1 0x20 ADD DUP11 DUP2 MSTORE PUSH1 0x20 ADD DUP10 DUP2 MSTORE PUSH1 0x20 ADD DUP9 DUP2 MSTORE PUSH1 0x20 ADD PUSH1 0x0 DUP2 MSTORE PUSH1 0x20 ADD PUSH1 0x0 DUP2 MSTORE PUSH1 0x20 ADD PUSH1 0x3 SLOAD TIMESTAMP PUSH2 0x1B6D SWAP2 SWAP1 PUSH2 0x2F69 JUMP JUMPDEST PUSH4 0xFFFFFFFF AND DUP2 MSTORE PUSH1 0x20 ADD PUSH1 0x1 PUSH4 0xFFFFFFFF AND DUP2 MSTORE POP SWAP1 DUP1 PUSH1 0x1 DUP2 SLOAD ADD DUP1 DUP3 SSTORE DUP1 SWAP2 POP POP PUSH1 0x1 SWAP1 SUB SWAP1 PUSH1 0x0 MSTORE PUSH1 0x20 PUSH1 0x0 KECCAK256 SWAP1 PUSH1 0x8 MUL ADD PUSH1 0x0 SWAP1 SWAP2 SWAP1 SWAP2 SWAP1 SWAP2 POP PUSH1 0x0 DUP3 ADD MLOAD DUP2 PUSH1 0x0 ADD PUSH1 0x0 PUSH2 0x100 EXP DUP2 SLOAD DUP2 PUSH20 0xFFFFFFFFFFFFFFFFFFFFFFFFFFFFFFFFFFFFFFFF MUL NOT AND SWAP1 DUP4 PUSH20 0xFFFFFFFFFFFFFFFFFFFFFFFFFFFFFFFFFFFFFFFF AND MUL OR SWAP1 SSTORE POP PUSH1 0x20 DUP3 ADD MLOAD DUP2 PUSH1 0x1 ADD SWAP1 DUP1 MLOAD SWAP1 PUSH1 0x20 ADD SWAP1 PUSH2 0x1C0F SWAP3 SWAP2 SWAP1 PUSH2 0x2626 JUMP JUMPDEST POP PUSH1 0x40 DUP3 ADD MLOAD DUP2 PUSH1 0x2 ADD SWAP1 DUP1 MLOAD SWAP1 PUSH1 0x20 ADD SWAP1 PUSH2 0x1C2C SWAP3 SWAP2 SWAP1 PUSH2 0x2626 JUMP JUMPDEST POP PUSH1 0x60 DUP3 ADD MLOAD DUP2 PUSH1 0x3 ADD SWAP1 DUP1 MLOAD SWAP1 PUSH1 0x20 ADD SWAP1 PUSH2 0x1C49 SWAP3 SWAP2 SWAP1 PUSH2 0x2626 JUMP JUMPDEST POP PUSH1 0x80 DUP3 ADD MLOAD DUP2 PUSH1 0x4 ADD SSTORE PUSH1 0xA0 DUP3 ADD MLOAD DUP2 PUSH1 0x5 ADD SSTORE PUSH1 0xC0 DUP3 ADD MLOAD DUP2 PUSH1 0x6 ADD SSTORE PUSH1 0xE0 DUP3 ADD MLOAD DUP2 PUSH1 0x7 ADD PUSH1 0x0 PUSH2 0x100 EXP DUP2 SLOAD DUP2 PUSH4 0xFFFFFFFF MUL NOT AND SWAP1 DUP4 PUSH4 0xFFFFFFFF AND MUL OR SWAP1 SSTORE POP POP POP PUSH1 0x0 PUSH1 0x6 DUP1 SLOAD SWAP1 POP SWAP1 POP CALLER PUSH1 0x7 PUSH1 0x0 DUP4 DUP2 MSTORE PUSH1 0x20 ADD SWAP1 DUP2 MSTORE PUSH1 0x20 ADD PUSH1 0x0 KECCAK256 PUSH1 0x0 PUSH2 0x100 EXP DUP2 SLOAD DUP2 PUSH20 0xFFFFFFFFFFFFFFFFFFFFFFFFFFFFFFFFFFFFFFFF MUL NOT AND SWAP1 DUP4 PUSH20 0xFFFFFFFFFFFFFFFFFFFFFFFFFFFFFFFFFFFFFFFF AND MUL OR SWAP1 SSTORE POP PUSH1 0x8 PUSH1 0x0 CALLER PUSH20 0xFFFFFFFFFFFFFFFFFFFFFFFFFFFFFFFFFFFFFFFF AND PUSH20 0xFFFFFFFFFFFFFFFFFFFFFFFFFFFFFFFFFFFFFFFF AND DUP2 MSTORE PUSH1 0x20 ADD SWAP1 DUP2 MSTORE PUSH1 0x20 ADD PUSH1 0x0 KECCAK256 PUSH1 0x0 DUP2 SLOAD DUP1 SWAP3 SWAP2 SWAP1 PUSH2 0x1D3D SWAP1 PUSH2 0x310E JUMP JUMPDEST SWAP2 SWAP1 POP SSTORE POP PUSH1 0x2 PUSH1 0x0 DUP2 SLOAD DUP1 SWAP3 SWAP2 SWAP1 PUSH2 0x1D55 SWAP1 PUSH2 0x310E JUMP JUMPDEST SWAP2 SWAP1 POP SSTORE POP PUSH1 0x1 PUSH1 0x2 SLOAD PUSH2 0x1D69 SWAP2 SWAP1 PUSH2 0x2FBF JUMP JUMPDEST SWAP2 POP POP SWAP8 SWAP7 POP POP POP POP POP POP POP JUMP JUMPDEST PUSH1 0x0 JUMPDEST PUSH1 0x6 DUP1 SLOAD SWAP1 POP DUP2 LT ISZERO PUSH2 0x1F1A JUMPI DUP2 PUSH20 0xFFFFFFFFFFFFFFFFFFFFFFFFFFFFFFFFFFFFFFFF AND PUSH1 0x6 DUP3 DUP2 SLOAD DUP2 LT PUSH2 0x1DB2 JUMPI PUSH2 0x1DB1 PUSH2 0x327B JUMP JUMPDEST JUMPDEST SWAP1 PUSH1 0x0 MSTORE PUSH1 0x20 PUSH1 0x0 KECCAK256 SWAP1 PUSH1 0x8 MUL ADD PUSH1 0x0 ADD PUSH1 0x0 SWAP1 SLOAD SWAP1 PUSH2 0x100 EXP SWAP1 DIV PUSH20 0xFFFFFFFFFFFFFFFFFFFFFFFFFFFFFFFFFFFFFFFF AND PUSH20 0xFFFFFFFFFFFFFFFFFFFFFFFFFFFFFFFFFFFFFFFF AND EQ ISZERO PUSH2 0x1F07 JUMPI PUSH32 0x20FDB8AB571BFBAB79104BEA84F9C31CB79C5AE45B5F515C1D6C8393E0028350 PUSH1 0x6 DUP3 DUP2 SLOAD DUP2 LT PUSH2 0x1E35 JUMPI PUSH2 0x1E34 PUSH2 0x327B JUMP JUMPDEST JUMPDEST SWAP1 PUSH1 0x0 MSTORE PUSH1 0x20 PUSH1 0x0 KECCAK256 SWAP1 PUSH1 0x8 MUL ADD PUSH1 0x2 ADD PUSH1 0x6 DUP4 DUP2 SLOAD DUP2 LT PUSH2 0x1E5A JUMPI PUSH2 0x1E59 PUSH2 0x327B JUMP JUMPDEST JUMPDEST SWAP1 PUSH1 0x0 MSTORE PUSH1 0x20 PUSH1 0x0 KECCAK256 SWAP1 PUSH1 0x8 MUL ADD PUSH1 0x1 ADD PUSH1 0x6 DUP5 DUP2 SLOAD DUP2 LT PUSH2 0x1E7F JUMPI PUSH2 0x1E7E PUSH2 0x327B JUMP JUMPDEST JUMPDEST SWAP1 PUSH1 0x0 MSTORE PUSH1 0x20 PUSH1 0x0 KECCAK256 SWAP1 PUSH1 0x8 MUL ADD PUSH1 0x7 ADD PUSH1 0x0 SWAP1 SLOAD SWAP1 PUSH2 0x100 EXP SWAP1 DIV PUSH4 0xFFFFFFFF AND PUSH1 0x6 DUP6 DUP2 SLOAD DUP2 LT PUSH2 0x1EB5 JUMPI PUSH2 0x1EB4 PUSH2 0x327B JUMP JUMPDEST JUMPDEST SWAP1 PUSH1 0x0 MSTORE PUSH1 0x20 PUSH1 0x0 KECCAK256 SWAP1 PUSH1 0x8 MUL ADD PUSH1 0x4 ADD SLOAD PUSH1 0x6 DUP7 DUP2 SLOAD DUP2 LT PUSH2 0x1EDB JUMPI PUSH2 0x1EDA PUSH2 0x327B JUMP JUMPDEST JUMPDEST SWAP1 PUSH1 0x0 MSTORE PUSH1 0x20 PUSH1 0x0 KECCAK256 SWAP1 PUSH1 0x8 MUL ADD PUSH1 0x5 ADD SLOAD PUSH1 0x40 MLOAD PUSH2 0x1EFE SWAP6 SWAP5 SWAP4 SWAP3 SWAP2 SWAP1 PUSH2 0x2DC6 JUMP JUMPDEST PUSH1 0x40 MLOAD DUP1 SWAP2 SUB SWAP1 LOG1 JUMPDEST DUP1 DUP1 PUSH2 0x1F12 SWAP1 PUSH2 0x310E JUMP JUMPDEST SWAP2 POP POP PUSH2 0x1D7A JUMP JUMPDEST POP POP JUMP JUMPDEST PUSH2 0x1F26 PUSH2 0x255A JUMP JUMPDEST PUSH20 0xFFFFFFFFFFFFFFFFFFFFFFFFFFFFFFFFFFFFFFFF AND PUSH2 0x1F44 PUSH2 0x1824 JUMP JUMPDEST PUSH20 0xFFFFFFFFFFFFFFFFFFFFFFFFFFFFFFFFFFFFFFFF AND EQ PUSH2 0x1F9A JUMPI PUSH1 0x40 MLOAD PUSH32 0x8C379A000000000000000000000000000000000000000000000000000000000 DUP2 MSTORE PUSH1 0x4 ADD PUSH2 0x1F91 SWAP1 PUSH2 0x2E87 JUMP JUMPDEST PUSH1 0x40 MLOAD DUP1 SWAP2 SUB SWAP1 REVERT JUMPDEST PUSH1 0x0 PUSH20 0xFFFFFFFFFFFFFFFFFFFFFFFFFFFFFFFFFFFFFFFF AND DUP2 PUSH20 0xFFFFFFFFFFFFFFFFFFFFFFFFFFFFFFFFFFFFFFFF AND EQ ISZERO PUSH2 0x200A JUMPI PUSH1 0x40 MLOAD PUSH32 0x8C379A000000000000000000000000000000000000000000000000000000000 DUP2 MSTORE PUSH1 0x4 ADD PUSH2 0x2001 SWAP1 PUSH2 0x2E47 JUMP JUMPDEST PUSH1 0x40 MLOAD DUP1 SWAP2 SUB SWAP1 REVERT JUMPDEST PUSH2 0x2013 DUP2 PUSH2 0x2562 JUMP JUMPDEST POP JUMP JUMPDEST PUSH1 0x0 JUMPDEST PUSH1 0x6 DUP1 SLOAD SWAP1 POP DUP2 LT ISZERO PUSH2 0x2380 JUMPI DUP3 PUSH20 0xFFFFFFFFFFFFFFFFFFFFFFFFFFFFFFFFFFFFFFFF AND PUSH1 0x6 DUP3 DUP2 SLOAD DUP2 LT PUSH2 0x2051 JUMPI PUSH2 0x2050 PUSH2 0x327B JUMP JUMPDEST JUMPDEST SWAP1 PUSH1 0x0 MSTORE PUSH1 0x20 PUSH1 0x0 KECCAK256 SWAP1 PUSH1 0x8 MUL ADD PUSH1 0x0 ADD PUSH1 0x0 SWAP1 SLOAD SWAP1 PUSH2 0x100 EXP SWAP1 DIV PUSH20 0xFFFFFFFFFFFFFFFFFFFFFFFFFFFFFFFFFFFFFFFF AND PUSH20 0xFFFFFFFFFFFFFFFFFFFFFFFFFFFFFFFFFFFFFFFF AND EQ ISZERO PUSH2 0x236D JUMPI PUSH1 0x0 PUSH1 0x6 DUP3 DUP2 SLOAD DUP2 LT PUSH2 0x20B5 JUMPI PUSH2 0x20B4 PUSH2 0x327B JUMP JUMPDEST JUMPDEST SWAP1 PUSH1 0x0 MSTORE PUSH1 0x20 PUSH1 0x0 KECCAK256 SWAP1 PUSH1 0x8 MUL ADD PUSH1 0x1 ADD DUP1 SLOAD PUSH2 0x20D1 SWAP1 PUSH2 0x30AB JUMP JUMPDEST DUP1 PUSH1 0x1F ADD PUSH1 0x20 DUP1 SWAP2 DIV MUL PUSH1 0x20 ADD PUSH1 0x40 MLOAD SWAP1 DUP2 ADD PUSH1 0x40 MSTORE DUP1 SWAP3 SWAP2 SWAP1 DUP2 DUP2 MSTORE PUSH1 0x20 ADD DUP3 DUP1 SLOAD PUSH2 0x20FD SWAP1 PUSH2 0x30AB JUMP JUMPDEST DUP1 ISZERO PUSH2 0x214A JUMPI DUP1 PUSH1 0x1F LT PUSH2 0x211F JUMPI PUSH2 0x100 DUP1 DUP4 SLOAD DIV MUL DUP4 MSTORE SWAP2 PUSH1 0x20 ADD SWAP2 PUSH2 0x214A JUMP JUMPDEST DUP3 ADD SWAP2 SWAP1 PUSH1 0x0 MSTORE PUSH1 0x20 PUSH1 0x0 KECCAK256 SWAP1 JUMPDEST DUP2 SLOAD DUP2 MSTORE SWAP1 PUSH1 0x1 ADD SWAP1 PUSH1 0x20 ADD DUP1 DUP4 GT PUSH2 0x212D JUMPI DUP3 SWAP1 SUB PUSH1 0x1F AND DUP3 ADD SWAP2 JUMPDEST POP POP POP POP POP SWAP1 POP PUSH1 0x0 PUSH1 0x6 DUP4 DUP2 SLOAD DUP2 LT PUSH2 0x2167 JUMPI PUSH2 0x2166 PUSH2 0x327B JUMP JUMPDEST JUMPDEST SWAP1 PUSH1 0x0 MSTORE PUSH1 0x20 PUSH1 0x0 KECCAK256 SWAP1 PUSH1 0x8 MUL ADD PUSH1 0x2 ADD DUP1 SLOAD PUSH2 0x2183 SWAP1 PUSH2 0x30AB JUMP JUMPDEST DUP1 PUSH1 0x1F ADD PUSH1 0x20 DUP1 SWAP2 DIV MUL PUSH1 0x20 ADD PUSH1 0x40 MLOAD SWAP1 DUP2 ADD PUSH1 0x40 MSTORE DUP1 SWAP3 SWAP2 SWAP1 DUP2 DUP2 MSTORE PUSH1 0x20 ADD DUP3 DUP1 SLOAD PUSH2 0x21AF SWAP1 PUSH2 0x30AB JUMP JUMPDEST DUP1 ISZERO PUSH2 0x21FC JUMPI DUP1 PUSH1 0x1F LT PUSH2 0x21D1 JUMPI PUSH2 0x100 DUP1 DUP4 SLOAD DIV MUL DUP4 MSTORE SWAP2 PUSH1 0x20 ADD SWAP2 PUSH2 0x21FC JUMP JUMPDEST DUP3 ADD SWAP2 SWAP1 PUSH1 0x0 MSTORE PUSH1 0x20 PUSH1 0x0 KECCAK256 SWAP1 JUMPDEST DUP2 SLOAD DUP2 MSTORE SWAP1 PUSH1 0x1 ADD SWAP1 PUSH1 0x20 ADD DUP1 DUP4 GT PUSH2 0x21DF JUMPI DUP3 SWAP1 SUB PUSH1 0x1F AND DUP3 ADD SWAP2 JUMPDEST POP POP POP POP POP SWAP1 POP PUSH1 0x0 PUSH1 0x6 DUP5 DUP2 SLOAD DUP2 LT PUSH2 0x2219 JUMPI PUSH2 0x2218 PUSH2 0x327B JUMP JUMPDEST JUMPDEST SWAP1 PUSH1 0x0 MSTORE PUSH1 0x20 PUSH1 0x0 KECCAK256 SWAP1 PUSH1 0x8 MUL ADD PUSH1 0x3 ADD DUP1 SLOAD PUSH2 0x2235 SWAP1 PUSH2 0x30AB JUMP JUMPDEST DUP1 PUSH1 0x1F ADD PUSH1 0x20 DUP1 SWAP2 DIV MUL PUSH1 0x20 ADD PUSH1 0x40 MLOAD SWAP1 DUP2 ADD PUSH1 0x40 MSTORE DUP1 SWAP3 SWAP2 SWAP1 DUP2 DUP2 MSTORE PUSH1 0x20 ADD DUP3 DUP1 SLOAD PUSH2 0x2261 SWAP1 PUSH2 0x30AB JUMP JUMPDEST DUP1 ISZERO PUSH2 0x22AE JUMPI DUP1 PUSH1 0x1F LT PUSH2 0x2283 JUMPI PUSH2 0x100 DUP1 DUP4 SLOAD DIV MUL DUP4 MSTORE SWAP2 PUSH1 0x20 ADD SWAP2 PUSH2 0x22AE JUMP JUMPDEST DUP3 ADD SWAP2 SWAP1 PUSH1 0x0 MSTORE PUSH1 0x20 PUSH1 0x0 KECCAK256 SWAP1 JUMPDEST DUP2 SLOAD DUP2 MSTORE SWAP1 PUSH1 0x1 ADD SWAP1 PUSH1 0x20 ADD DUP1 DUP4 GT PUSH2 0x2291 JUMPI DUP3 SWAP1 SUB PUSH1 0x1F AND DUP3 ADD SWAP2 JUMPDEST POP POP POP POP POP SWAP1 POP PUSH1 0x0 PUSH1 0x6 DUP6 DUP2 SLOAD DUP2 LT PUSH2 0x22CB JUMPI PUSH2 0x22CA PUSH2 0x327B JUMP JUMPDEST JUMPDEST SWAP1 PUSH1 0x0 MSTORE PUSH1 0x20 PUSH1 0x0 KECCAK256 SWAP1 PUSH1 0x8 MUL ADD PUSH1 0x4 ADD SLOAD SWAP1 POP PUSH1 0x0 PUSH1 0x6 DUP7 DUP2 SLOAD DUP2 LT PUSH2 0x22F5 JUMPI PUSH2 0x22F4 PUSH2 0x327B JUMP JUMPDEST JUMPDEST SWAP1 PUSH1 0x0 MSTORE PUSH1 0x20 PUSH1 0x0 KECCAK256 SWAP1 PUSH1 0x8 MUL ADD PUSH1 0x5 ADD SLOAD SWAP1 POP PUSH1 0x0 PUSH1 0x6 DUP8 DUP2 SLOAD DUP2 LT PUSH2 0x231F JUMPI PUSH2 0x231E PUSH2 0x327B JUMP JUMPDEST JUMPDEST SWAP1 PUSH1 0x0 MSTORE PUSH1 0x20 PUSH1 0x0 KECCAK256 SWAP1 PUSH1 0x8 MUL ADD PUSH1 0x7 ADD PUSH1 0x0 SWAP1 SLOAD SWAP1 PUSH2 0x100 EXP SWAP1 DIV PUSH4 0xFFFFFFFF AND PUSH4 0xFFFFFFFF AND SWAP1 POP PUSH2 0x2365 DUP7 DUP7 DUP7 DUP7 DUP7 PUSH1 0x3 SLOAD TIMESTAMP PUSH2 0x235F SWAP2 SWAP1 PUSH2 0x2F69 JUMP JUMPDEST DUP8 PUSH2 0x1A91 JUMP JUMPDEST POP POP POP POP POP POP POP JUMPDEST DUP1 DUP1 PUSH2 0x2378 SWAP1 PUSH2 0x310E JUMP JUMPDEST SWAP2 POP POP PUSH2 0x2019 JUMP JUMPDEST POP POP POP JUMP JUMPDEST PUSH1 0x8 PUSH1 0x0 DUP4 PUSH20 0xFFFFFFFFFFFFFFFFFFFFFFFFFFFFFFFFFFFFFFFF AND PUSH20 0xFFFFFFFFFFFFFFFFFFFFFFFFFFFFFFFFFFFFFFFF AND DUP2 MSTORE PUSH1 0x20 ADD SWAP1 DUP2 MSTORE PUSH1 0x20 ADD PUSH1 0x0 KECCAK256 PUSH1 0x0 DUP2 SLOAD DUP1 SWAP3 SWAP2 SWAP1 PUSH2 0x23D5 SWAP1 PUSH2 0x310E JUMP JUMPDEST SWAP2 SWAP1 POP SSTORE POP PUSH1 0x8 PUSH1 0x0 DUP5 PUSH20 0xFFFFFFFFFFFFFFFFFFFFFFFFFFFFFFFFFFFFFFFF AND PUSH20 0xFFFFFFFFFFFFFFFFFFFFFFFFFFFFFFFFFFFFFFFF AND DUP2 MSTORE PUSH1 0x20 ADD SWAP1 DUP2 MSTORE PUSH1 0x20 ADD PUSH1 0x0 KECCAK256 PUSH1 0x0 DUP2 SLOAD DUP1 SWAP3 SWAP2 SWAP1 PUSH2 0x242A SWAP1 PUSH2 0x3081 JUMP JUMPDEST SWAP2 SWAP1 POP SSTORE POP DUP2 PUSH1 0x7 PUSH1 0x0 DUP4 DUP2 MSTORE PUSH1 0x20 ADD SWAP1 DUP2 MSTORE PUSH1 0x20 ADD PUSH1 0x0 KECCAK256 PUSH1 0x0 PUSH2 0x100 EXP DUP2 SLOAD DUP2 PUSH20 0xFFFFFFFFFFFFFFFFFFFFFFFFFFFFFFFFFFFFFFFF MUL NOT AND SWAP1 DUP4 PUSH20 0xFFFFFFFFFFFFFFFFFFFFFFFFFFFFFFFFFFFFFFFF AND MUL OR SWAP1 SSTORE POP DUP1 DUP3 PUSH20 0xFFFFFFFFFFFFFFFFFFFFFFFFFFFFFFFFFFFFFFFF AND DUP5 PUSH20 0xFFFFFFFFFFFFFFFFFFFFFFFFFFFFFFFFFFFFFFFF AND PUSH32 0xDDF252AD1BE2C89B69C2B068FC378DAA952BA7F163C4A11628F55A4DF523B3EF PUSH1 0x40 MLOAD PUSH1 0x40 MLOAD DUP1 SWAP2 SUB SWAP1 LOG4 POP POP POP JUMP JUMPDEST PUSH1 0x0 TIMESTAMP DUP3 PUSH1 0x6 ADD SLOAD GT ISZERO SWAP1 POP SWAP2 SWAP1 POP JUMP JUMPDEST PUSH1 0x3 SLOAD TIMESTAMP PUSH2 0x2500 SWAP2 SWAP1 PUSH2 0x2F69 JUMP JUMPDEST PUSH4 0xFFFFFFFF AND DUP2 PUSH1 0x6 ADD DUP2 SWAP1 SSTORE POP POP JUMP JUMPDEST CALLER PUSH20 0xFFFFFFFFFFFFFFFFFFFFFFFFFFFFFFFFFFFFFFFF AND PUSH2 0x8FC SELFBALANCE SWAP1 DUP2 ISZERO MUL SWAP1 PUSH1 0x40 MLOAD PUSH1 0x0 PUSH1 0x40 MLOAD DUP1 DUP4 SUB DUP2 DUP6 DUP9 DUP9 CALL SWAP4 POP POP POP POP ISZERO DUP1 ISZERO PUSH2 0x2557 JUMPI RETURNDATASIZE PUSH1 0x0 DUP1 RETURNDATACOPY RETURNDATASIZE PUSH1 0x0 REVERT JUMPDEST POP JUMP JUMPDEST PUSH1 0x0 CALLER SWAP1 POP SWAP1 JUMP JUMPDEST PUSH1 0x0 DUP1 PUSH1 0x0 SWAP1 SLOAD SWAP1 PUSH2 0x100 EXP SWAP1 DIV PUSH20 0xFFFFFFFFFFFFFFFFFFFFFFFFFFFFFFFFFFFFFFFF AND SWAP1 POP DUP2 PUSH1 0x0 DUP1 PUSH2 0x100 EXP DUP2 SLOAD DUP2 PUSH20 0xFFFFFFFFFFFFFFFFFFFFFFFFFFFFFFFFFFFFFFFF MUL NOT AND SWAP1 DUP4 PUSH20 0xFFFFFFFFFFFFFFFFFFFFFFFFFFFFFFFFFFFFFFFF AND MUL OR SWAP1 SSTORE POP DUP2 PUSH20 0xFFFFFFFFFFFFFFFFFFFFFFFFFFFFFFFFFFFFFFFF AND DUP2 PUSH20 0xFFFFFFFFFFFFFFFFFFFFFFFFFFFFFFFFFFFFFFFF AND PUSH32 0x8BE0079C531659141344CD1FD0A4F28419497F9722A3DAAFE3B4186F6B6457E0 PUSH1 0x40 MLOAD PUSH1 0x40 MLOAD DUP1 SWAP2 SUB SWAP1 LOG3 POP POP JUMP JUMPDEST DUP3 DUP1 SLOAD PUSH2 0x2632 SWAP1 PUSH2 0x30AB JUMP JUMPDEST SWAP1 PUSH1 0x0 MSTORE PUSH1 0x20 PUSH1 0x0 KECCAK256 SWAP1 PUSH1 0x1F ADD PUSH1 0x20 SWAP1 DIV DUP2 ADD SWAP3 DUP3 PUSH2 0x2654 JUMPI PUSH1 0x0 DUP6 SSTORE PUSH2 0x269B JUMP JUMPDEST DUP3 PUSH1 0x1F LT PUSH2 0x266D JUMPI DUP1 MLOAD PUSH1 0xFF NOT AND DUP4 DUP1 ADD OR DUP6 SSTORE PUSH2 0x269B JUMP JUMPDEST DUP3 DUP1 ADD PUSH1 0x1 ADD DUP6 SSTORE DUP3 ISZERO PUSH2 0x269B JUMPI SWAP2 DUP3 ADD JUMPDEST DUP3 DUP2 GT ISZERO PUSH2 0x269A JUMPI DUP3 MLOAD DUP3 SSTORE SWAP2 PUSH1 0x20 ADD SWAP2 SWAP1 PUSH1 0x1 ADD SWAP1 PUSH2 0x267F JUMP JUMPDEST JUMPDEST POP SWAP1 POP PUSH2 0x26A8 SWAP2 SWAP1 PUSH2 0x26EC JUMP JUMPDEST POP SWAP1 JUMP JUMPDEST POP DUP1 SLOAD PUSH2 0x26B8 SWAP1 PUSH2 0x30AB JUMP JUMPDEST PUSH1 0x0 DUP3 SSTORE DUP1 PUSH1 0x1F LT PUSH2 0x26CA JUMPI POP PUSH2 0x26E9 JUMP JUMPDEST PUSH1 0x1F ADD PUSH1 0x20 SWAP1 DIV SWAP1 PUSH1 0x0 MSTORE PUSH1 0x20 PUSH1 0x0 KECCAK256 SWAP1 DUP2 ADD SWAP1 PUSH2 0x26E8 SWAP2 SWAP1 PUSH2 0x26EC JUMP JUMPDEST JUMPDEST POP JUMP JUMPDEST JUMPDEST DUP1 DUP3 GT ISZERO PUSH2 0x2705 JUMPI PUSH1 0x0 DUP2 PUSH1 0x0 SWAP1 SSTORE POP PUSH1 0x1 ADD PUSH2 0x26ED JUMP JUMPDEST POP SWAP1 JUMP JUMPDEST PUSH1 0x0 PUSH2 0x271C PUSH2 0x2717 DUP5 PUSH2 0x2F07 JUMP JUMPDEST PUSH2 0x2EE2 JUMP JUMPDEST SWAP1 POP DUP3 DUP2 MSTORE PUSH1 0x20 DUP2 ADD DUP5 DUP5 DUP5 ADD GT ISZERO PUSH2 0x2738 JUMPI PUSH2 0x2737 PUSH2 0x32DE JUMP JUMPDEST JUMPDEST PUSH2 0x2743 DUP5 DUP3 DUP6 PUSH2 0x303F JUMP JUMPDEST POP SWAP4 SWAP3 POP POP POP JUMP JUMPDEST PUSH1 0x0 DUP2 CALLDATALOAD SWAP1 POP PUSH2 0x275A DUP2 PUSH2 0x343D JUMP JUMPDEST SWAP3 SWAP2 POP POP JUMP JUMPDEST PUSH1 0x0 DUP3 PUSH1 0x1F DUP4 ADD SLT PUSH2 0x2775 JUMPI PUSH2 0x2774 PUSH2 0x32D9 JUMP JUMPDEST JUMPDEST DUP2 CALLDATALOAD PUSH2 0x2785 DUP5 DUP3 PUSH1 0x20 DUP7 ADD PUSH2 0x2709 JUMP JUMPDEST SWAP2 POP POP SWAP3 SWAP2 POP POP JUMP JUMPDEST PUSH1 0x0 DUP2 CALLDATALOAD SWAP1 POP PUSH2 0x279D DUP2 PUSH2 0x3454 JUMP JUMPDEST SWAP3 SWAP2 POP POP JUMP JUMPDEST PUSH1 0x0 DUP2 CALLDATALOAD SWAP1 POP PUSH2 0x27B2 DUP2 PUSH2 0x346B JUMP JUMPDEST SWAP3 SWAP2 POP POP JUMP JUMPDEST PUSH1 0x0 PUSH1 0x20 DUP3 DUP5 SUB SLT ISZERO PUSH2 0x27CE JUMPI PUSH2 0x27CD PUSH2 0x32E8 JUMP JUMPDEST JUMPDEST PUSH1 0x0 PUSH2 0x27DC DUP5 DUP3 DUP6 ADD PUSH2 0x274B JUMP JUMPDEST SWAP2 POP POP SWAP3 SWAP2 POP POP JUMP JUMPDEST PUSH1 0x0 DUP1 PUSH1 0x40 DUP4 DUP6 SUB SLT ISZERO PUSH2 0x27FC JUMPI PUSH2 0x27FB PUSH2 0x32E8 JUMP JUMPDEST JUMPDEST PUSH1 0x0 PUSH2 0x280A DUP6 DUP3 DUP7 ADD PUSH2 0x274B JUMP JUMPDEST SWAP3 POP POP PUSH1 0x20 PUSH2 0x281B DUP6 DUP3 DUP7 ADD PUSH2 0x274B JUMP JUMPDEST SWAP2 POP POP SWAP3 POP SWAP3 SWAP1 POP JUMP JUMPDEST PUSH1 0x0 DUP1 PUSH1 0x0 PUSH1 0x60 DUP5 DUP7 SUB SLT ISZERO PUSH2 0x283E JUMPI PUSH2 0x283D PUSH2 0x32E8 JUMP JUMPDEST JUMPDEST PUSH1 0x0 PUSH2 0x284C DUP7 DUP3 DUP8 ADD PUSH2 0x274B JUMP JUMPDEST SWAP4 POP POP PUSH1 0x20 PUSH2 0x285D DUP7 DUP3 DUP8 ADD PUSH2 0x274B JUMP JUMPDEST SWAP3 POP POP PUSH1 0x40 PUSH2 0x286E DUP7 DUP3 DUP8 ADD PUSH2 0x278E JUMP JUMPDEST SWAP2 POP POP SWAP3 POP SWAP3 POP SWAP3 JUMP JUMPDEST PUSH1 0x0 DUP1 PUSH1 0x0 PUSH1 0x60 DUP5 DUP7 SUB SLT ISZERO PUSH2 0x2891 JUMPI PUSH2 0x2890 PUSH2 0x32E8 JUMP JUMPDEST JUMPDEST PUSH1 0x0 PUSH2 0x289F DUP7 DUP3 DUP8 ADD PUSH2 0x274B JUMP JUMPDEST SWAP4 POP POP PUSH1 0x20 DUP5 ADD CALLDATALOAD PUSH8 0xFFFFFFFFFFFFFFFF DUP2 GT ISZERO PUSH2 0x28C0 JUMPI PUSH2 0x28BF PUSH2 0x32E3 JUMP JUMPDEST JUMPDEST PUSH2 0x28CC DUP7 DUP3 DUP8 ADD PUSH2 0x2760 JUMP JUMPDEST SWAP3 POP POP PUSH1 0x40 DUP5 ADD CALLDATALOAD PUSH8 0xFFFFFFFFFFFFFFFF DUP2 GT ISZERO PUSH2 0x28ED JUMPI PUSH2 0x28EC PUSH2 0x32E3 JUMP JUMPDEST JUMPDEST PUSH2 0x28F9 DUP7 DUP3 DUP8 ADD PUSH2 0x2760 JUMP JUMPDEST SWAP2 POP POP SWAP3 POP SWAP3 POP SWAP3 JUMP JUMPDEST PUSH1 0x0 DUP1 PUSH1 0x40 DUP4 DUP6 SUB SLT ISZERO PUSH2 0x291A JUMPI PUSH2 0x2919 PUSH2 0x32E8 JUMP JUMPDEST JUMPDEST PUSH1 0x0 PUSH2 0x2928 DUP6 DUP3 DUP7 ADD PUSH2 0x274B JUMP JUMPDEST SWAP3 POP POP PUSH1 0x20 PUSH2 0x2939 DUP6 DUP3 DUP7 ADD PUSH2 0x278E JUMP JUMPDEST SWAP2 POP POP SWAP3 POP SWAP3 SWAP1 POP JUMP JUMPDEST PUSH1 0x0 DUP1 PUSH1 0x0 PUSH1 0x60 DUP5 DUP7 SUB SLT ISZERO PUSH2 0x295C JUMPI PUSH2 0x295B PUSH2 0x32E8 JUMP JUMPDEST JUMPDEST PUSH1 0x0 DUP5 ADD CALLDATALOAD PUSH8 0xFFFFFFFFFFFFFFFF DUP2 GT ISZERO PUSH2 0x297A JUMPI PUSH2 0x2979 PUSH2 0x32E3 JUMP JUMPDEST JUMPDEST PUSH2 0x2986 DUP7 DUP3 DUP8 ADD PUSH2 0x2760 JUMP JUMPDEST SWAP4 POP POP PUSH1 0x20 DUP5 ADD CALLDATALOAD PUSH8 0xFFFFFFFFFFFFFFFF DUP2 GT ISZERO PUSH2 0x29A7 JUMPI PUSH2 0x29A6 PUSH2 0x32E3 JUMP JUMPDEST JUMPDEST PUSH2 0x29B3 DUP7 DUP3 DUP8 ADD PUSH2 0x2760 JUMP JUMPDEST SWAP3 POP POP PUSH1 0x40 DUP5 ADD CALLDATALOAD PUSH8 0xFFFFFFFFFFFFFFFF DUP2 GT ISZERO PUSH2 0x29D4 JUMPI PUSH2 0x29D3 PUSH2 0x32E3 JUMP JUMPDEST JUMPDEST PUSH2 0x29E0 DUP7 DUP3 DUP8 ADD PUSH2 0x2760 JUMP JUMPDEST SWAP2 POP POP SWAP3 POP SWAP3 POP SWAP3 JUMP JUMPDEST PUSH1 0x0 DUP1 PUSH1 0x0 DUP1 PUSH1 0x0 DUP1 PUSH1 0x0 PUSH1 0xE0 DUP9 DUP11 SUB SLT ISZERO PUSH2 0x2A09 JUMPI PUSH2 0x2A08 PUSH2 0x32E8 JUMP JUMPDEST JUMPDEST PUSH1 0x0 DUP9 ADD CALLDATALOAD PUSH8 0xFFFFFFFFFFFFFFFF DUP2 GT ISZERO PUSH2 0x2A27 JUMPI PUSH2 0x2A26 PUSH2 0x32E3 JUMP JUMPDEST JUMPDEST PUSH2 0x2A33 DUP11 DUP3 DUP12 ADD PUSH2 0x2760 JUMP JUMPDEST SWAP8 POP POP PUSH1 0x20 DUP9 ADD CALLDATALOAD PUSH8 0xFFFFFFFFFFFFFFFF DUP2 GT ISZERO PUSH2 0x2A54 JUMPI PUSH2 0x2A53 PUSH2 0x32E3 JUMP JUMPDEST JUMPDEST PUSH2 0x2A60 DUP11 DUP3 DUP12 ADD PUSH2 0x2760 JUMP JUMPDEST SWAP7 POP POP PUSH1 0x40 DUP9 ADD CALLDATALOAD PUSH8 0xFFFFFFFFFFFFFFFF DUP2 GT ISZERO PUSH2 0x2A81 JUMPI PUSH2 0x2A80 PUSH2 0x32E3 JUMP JUMPDEST JUMPDEST PUSH2 0x2A8D DUP11 DUP3 DUP12 ADD PUSH2 0x2760 JUMP JUMPDEST SWAP6 POP POP PUSH1 0x60 PUSH2 0x2A9E DUP11 DUP3 DUP12 ADD PUSH2 0x278E JUMP JUMPDEST SWAP5 POP POP PUSH1 0x80 PUSH2 0x2AAF DUP11 DUP3 DUP12 ADD PUSH2 0x278E JUMP JUMPDEST SWAP4 POP POP PUSH1 0xA0 PUSH2 0x2AC0 DUP11 DUP3 DUP12 ADD PUSH2 0x27A3 JUMP JUMPDEST SWAP3 POP POP PUSH1 0xC0 PUSH2 0x2AD1 DUP11 DUP3 DUP12 ADD PUSH2 0x278E JUMP JUMPDEST SWAP2 POP POP SWAP3 SWAP6 SWAP9 SWAP2 SWAP5 SWAP8 POP SWAP3 SWAP6 POP JUMP JUMPDEST PUSH1 0x0 PUSH1 0x20 DUP3 DUP5 SUB SLT ISZERO PUSH2 0x2AF6 JUMPI PUSH2 0x2AF5 PUSH2 0x32E8 JUMP JUMPDEST JUMPDEST PUSH1 0x0 PUSH2 0x2B04 DUP5 DUP3 DUP6 ADD PUSH2 0x278E JUMP JUMPDEST SWAP2 POP POP SWAP3 SWAP2 POP POP JUMP JUMPDEST PUSH2 0x2B16 DUP2 PUSH2 0x2FF3 JUMP JUMPDEST DUP3 MSTORE POP POP JUMP JUMPDEST PUSH1 0x0 PUSH2 0x2B27 DUP3 PUSH2 0x2F4D JUMP JUMPDEST PUSH2 0x2B31 DUP2 DUP6 PUSH2 0x2F58 JUMP JUMPDEST SWAP4 POP PUSH2 0x2B41 DUP2 DUP6 PUSH1 0x20 DUP7 ADD PUSH2 0x304E JUMP JUMPDEST PUSH2 0x2B4A DUP2 PUSH2 0x32ED JUMP JUMPDEST DUP5 ADD SWAP2 POP POP SWAP3 SWAP2 POP POP JUMP JUMPDEST PUSH1 0x0 DUP2 SLOAD PUSH2 0x2B62 DUP2 PUSH2 0x30AB JUMP JUMPDEST PUSH2 0x2B6C DUP2 DUP7 PUSH2 0x2F58 JUMP JUMPDEST SWAP5 POP PUSH1 0x1 DUP3 AND PUSH1 0x0 DUP2 EQ PUSH2 0x2B87 JUMPI PUSH1 0x1 DUP2 EQ PUSH2 0x2B99 JUMPI PUSH2 0x2BCC JUMP JUMPDEST PUSH1 0xFF NOT DUP4 AND DUP7 MSTORE PUSH1 0x20 DUP7 ADD SWAP4 POP PUSH2 0x2BCC JUMP JUMPDEST PUSH2 0x2BA2 DUP6 PUSH2 0x2F38 JUMP JUMPDEST PUSH1 0x0 JUMPDEST DUP4 DUP2 LT ISZERO PUSH2 0x2BC4 JUMPI DUP2 SLOAD DUP2 DUP10 ADD MSTORE PUSH1 0x1 DUP3 ADD SWAP2 POP PUSH1 0x20 DUP2 ADD SWAP1 POP PUSH2 0x2BA5 JUMP JUMPDEST DUP1 DUP9 ADD SWAP6 POP POP POP JUMPDEST POP POP POP SWAP3 SWAP2 POP POP JUMP JUMPDEST PUSH1 0x0 PUSH2 0x2BE2 PUSH1 0x28 DUP4 PUSH2 0x2F58 JUMP JUMPDEST SWAP2 POP PUSH2 0x2BED DUP3 PUSH2 0x32FE JUMP JUMPDEST PUSH1 0x40 DUP3 ADD SWAP1 POP SWAP2 SWAP1 POP JUMP JUMPDEST PUSH1 0x0 PUSH2 0x2C05 PUSH1 0x26 DUP4 PUSH2 0x2F58 JUMP JUMPDEST SWAP2 POP PUSH2 0x2C10 DUP3 PUSH2 0x334D JUMP JUMPDEST PUSH1 0x40 DUP3 ADD SWAP1 POP SWAP2 SWAP1 POP JUMP JUMPDEST PUSH1 0x0 PUSH2 0x2C28 PUSH1 0x32 DUP4 PUSH2 0x2F58 JUMP JUMPDEST SWAP2 POP PUSH2 0x2C33 DUP3 PUSH2 0x339C JUMP JUMPDEST PUSH1 0x40 DUP3 ADD SWAP1 POP SWAP2 SWAP1 POP JUMP JUMPDEST PUSH1 0x0 PUSH2 0x2C4B PUSH1 0x20 DUP4 PUSH2 0x2F58 JUMP JUMPDEST SWAP2 POP PUSH2 0x2C56 DUP3 PUSH2 0x33EB JUMP JUMPDEST PUSH1 0x20 DUP3 ADD SWAP1 POP SWAP2 SWAP1 POP JUMP JUMPDEST PUSH1 0x0 PUSH2 0x2C6E PUSH1 0x15 DUP4 PUSH2 0x2F58 JUMP JUMPDEST SWAP2 POP PUSH2 0x2C79 DUP3 PUSH2 0x3414 JUMP JUMPDEST PUSH1 0x20 DUP3 ADD SWAP1 POP SWAP2 SWAP1 POP JUMP JUMPDEST PUSH2 0x2C8D DUP2 PUSH2 0x3025 JUMP JUMPDEST DUP3 MSTORE POP POP JUMP JUMPDEST PUSH2 0x2CA4 PUSH2 0x2C9F DUP3 PUSH2 0x3025 JUMP JUMPDEST PUSH2 0x3184 JUMP JUMPDEST DUP3 MSTORE POP POP JUMP JUMPDEST PUSH2 0x2CB3 DUP2 PUSH2 0x302F JUMP JUMPDEST DUP3 MSTORE POP POP JUMP JUMPDEST PUSH1 0x0 PUSH2 0x2CC5 DUP3 DUP7 PUSH2 0x2C93 JUMP JUMPDEST PUSH1 0x20 DUP3 ADD SWAP2 POP PUSH2 0x2CD5 DUP3 DUP6 PUSH2 0x2C93 JUMP JUMPDEST PUSH1 0x20 DUP3 ADD SWAP2 POP PUSH2 0x2CE5 DUP3 DUP5 PUSH2 0x2C93 JUMP JUMPDEST PUSH1 0x20 DUP3 ADD SWAP2 POP DUP2 SWAP1 POP SWAP5 SWAP4 POP POP POP POP JUMP JUMPDEST PUSH1 0x0 PUSH1 0x20 DUP3 ADD SWAP1 POP PUSH2 0x2D0B PUSH1 0x0 DUP4 ADD DUP5 PUSH2 0x2B0D JUMP JUMPDEST SWAP3 SWAP2 POP POP JUMP JUMPDEST PUSH1 0x0 PUSH2 0x100 DUP3 ADD SWAP1 POP PUSH2 0x2D27 PUSH1 0x0 DUP4 ADD DUP12 PUSH2 0x2B0D JUMP JUMPDEST DUP2 DUP2 SUB PUSH1 0x20 DUP4 ADD MSTORE PUSH2 0x2D39 DUP2 DUP11 PUSH2 0x2B1C JUMP JUMPDEST SWAP1 POP DUP2 DUP2 SUB PUSH1 0x40 DUP4 ADD MSTORE PUSH2 0x2D4D DUP2 DUP10 PUSH2 0x2B1C JUMP JUMPDEST SWAP1 POP DUP2 DUP2 SUB PUSH1 0x60 DUP4 ADD MSTORE PUSH2 0x2D61 DUP2 DUP9 PUSH2 0x2B1C JUMP JUMPDEST SWAP1 POP PUSH2 0x2D70 PUSH1 0x80 DUP4 ADD DUP8 PUSH2 0x2C84 JUMP JUMPDEST PUSH2 0x2D7D PUSH1 0xA0 DUP4 ADD DUP7 PUSH2 0x2C84 JUMP JUMPDEST PUSH2 0x2D8A PUSH1 0xC0 DUP4 ADD DUP6 PUSH2 0x2C84 JUMP JUMPDEST PUSH2 0x2D97 PUSH1 0xE0 DUP4 ADD DUP5 PUSH2 0x2CAA JUMP JUMPDEST SWAP10 SWAP9 POP POP POP POP POP POP POP POP POP JUMP JUMPDEST PUSH1 0x0 PUSH1 0x20 DUP3 ADD SWAP1 POP DUP2 DUP2 SUB PUSH1 0x0 DUP4 ADD MSTORE PUSH2 0x2DBE DUP2 DUP5 PUSH2 0x2B1C JUMP JUMPDEST SWAP1 POP SWAP3 SWAP2 POP POP JUMP JUMPDEST PUSH1 0x0 PUSH1 0xA0 DUP3 ADD SWAP1 POP DUP2 DUP2 SUB PUSH1 0x0 DUP4 ADD MSTORE PUSH2 0x2DE0 DUP2 DUP9 PUSH2 0x2B55 JUMP JUMPDEST SWAP1 POP DUP2 DUP2 SUB PUSH1 0x20 DUP4 ADD MSTORE PUSH2 0x2DF4 DUP2 DUP8 PUSH2 0x2B55 JUMP JUMPDEST SWAP1 POP PUSH2 0x2E03 PUSH1 0x40 DUP4 ADD DUP7 PUSH2 0x2CAA JUMP JUMPDEST PUSH2 0x2E10 PUSH1 0x60 DUP4 ADD DUP6 PUSH2 0x2C84 JUMP JUMPDEST PUSH2 0x2E1D PUSH1 0x80 DUP4 ADD DUP5 PUSH2 0x2C84 JUMP JUMPDEST SWAP7 SWAP6 POP POP POP POP POP POP JUMP JUMPDEST PUSH1 0x0 PUSH1 0x20 DUP3 ADD SWAP1 POP DUP2 DUP2 SUB PUSH1 0x0 DUP4 ADD MSTORE PUSH2 0x2E40 DUP2 PUSH2 0x2BD5 JUMP JUMPDEST SWAP1 POP SWAP2 SWAP1 POP JUMP JUMPDEST PUSH1 0x0 PUSH1 0x20 DUP3 ADD SWAP1 POP DUP2 DUP2 SUB PUSH1 0x0 DUP4 ADD MSTORE PUSH2 0x2E60 DUP2 PUSH2 0x2BF8 JUMP JUMPDEST SWAP1 POP SWAP2 SWAP1 POP JUMP JUMPDEST PUSH1 0x0 PUSH1 0x20 DUP3 ADD SWAP1 POP DUP2 DUP2 SUB PUSH1 0x0 DUP4 ADD MSTORE PUSH2 0x2E80 DUP2 PUSH2 0x2C1B JUMP JUMPDEST SWAP1 POP SWAP2 SWAP1 POP JUMP JUMPDEST PUSH1 0x0 PUSH1 0x20 DUP3 ADD SWAP1 POP DUP2 DUP2 SUB PUSH1 0x0 DUP4 ADD MSTORE PUSH2 0x2EA0 DUP2 PUSH2 0x2C3E JUMP JUMPDEST SWAP1 POP SWAP2 SWAP1 POP JUMP JUMPDEST PUSH1 0x0 PUSH1 0x20 DUP3 ADD SWAP1 POP DUP2 DUP2 SUB PUSH1 0x0 DUP4 ADD MSTORE PUSH2 0x2EC0 DUP2 PUSH2 0x2C61 JUMP JUMPDEST SWAP1 POP SWAP2 SWAP1 POP JUMP JUMPDEST PUSH1 0x0 PUSH1 0x20 DUP3 ADD SWAP1 POP PUSH2 0x2EDC PUSH1 0x0 DUP4 ADD DUP5 PUSH2 0x2C84 JUMP JUMPDEST SWAP3 SWAP2 POP POP JUMP JUMPDEST PUSH1 0x0 PUSH2 0x2EEC PUSH2 0x2EFD JUMP JUMPDEST SWAP1 POP PUSH2 0x2EF8 DUP3 DUP3 PUSH2 0x30DD JUMP JUMPDEST SWAP2 SWAP1 POP JUMP JUMPDEST PUSH1 0x0 PUSH1 0x40 MLOAD SWAP1 POP SWAP1 JUMP JUMPDEST PUSH1 0x0 PUSH8 0xFFFFFFFFFFFFFFFF DUP3 GT ISZERO PUSH2 0x2F22 JUMPI PUSH2 0x2F21 PUSH2 0x32AA JUMP JUMPDEST JUMPDEST PUSH2 0x2F2B DUP3 PUSH2 0x32ED JUMP JUMPDEST SWAP1 POP PUSH1 0x20 DUP2 ADD SWAP1 POP SWAP2 SWAP1 POP JUMP JUMPDEST PUSH1 0x0 DUP2 SWAP1 POP DUP2 PUSH1 0x0 MSTORE PUSH1 0x20 PUSH1 0x0 KECCAK256 SWAP1 POP SWAP2 SWAP1 POP JUMP JUMPDEST PUSH1 0x0 DUP2 MLOAD SWAP1 POP SWAP2 SWAP1 POP JUMP JUMPDEST PUSH1 0x0 DUP3 DUP3 MSTORE PUSH1 0x20 DUP3 ADD SWAP1 POP SWAP3 SWAP2 POP POP JUMP JUMPDEST PUSH1 0x0 PUSH2 0x2F74 DUP3 PUSH2 0x3025 JUMP JUMPDEST SWAP2 POP PUSH2 0x2F7F DUP4 PUSH2 0x3025 JUMP JUMPDEST SWAP3 POP DUP3 PUSH32 0xFFFFFFFFFFFFFFFFFFFFFFFFFFFFFFFFFFFFFFFFFFFFFFFFFFFFFFFFFFFFFFFF SUB DUP3 GT ISZERO PUSH2 0x2FB4 JUMPI PUSH2 0x2FB3 PUSH2 0x31BF JUMP JUMPDEST JUMPDEST DUP3 DUP3 ADD SWAP1 POP SWAP3 SWAP2 POP POP JUMP JUMPDEST PUSH1 0x0 PUSH2 0x2FCA DUP3 PUSH2 0x3025 JUMP JUMPDEST SWAP2 POP PUSH2 0x2FD5 DUP4 PUSH2 0x3025 JUMP JUMPDEST SWAP3 POP DUP3 DUP3 LT ISZERO PUSH2 0x2FE8 JUMPI PUSH2 0x2FE7 PUSH2 0x31BF JUMP JUMPDEST JUMPDEST DUP3 DUP3 SUB SWAP1 POP SWAP3 SWAP2 POP POP JUMP JUMPDEST PUSH1 0x0 PUSH2 0x2FFE DUP3 PUSH2 0x3005 JUMP JUMPDEST SWAP1 POP SWAP2 SWAP1 POP JUMP JUMPDEST PUSH1 0x0 PUSH20 0xFFFFFFFFFFFFFFFFFFFFFFFFFFFFFFFFFFFFFFFF DUP3 AND SWAP1 POP SWAP2 SWAP1 POP JUMP JUMPDEST PUSH1 0x0 DUP2 SWAP1 POP SWAP2 SWAP1 POP JUMP JUMPDEST PUSH1 0x0 PUSH4 0xFFFFFFFF DUP3 AND SWAP1 POP SWAP2 SWAP1 POP JUMP JUMPDEST DUP3 DUP2 DUP4 CALLDATACOPY PUSH1 0x0 DUP4 DUP4 ADD MSTORE POP POP POP JUMP JUMPDEST PUSH1 0x0 JUMPDEST DUP4 DUP2 LT ISZERO PUSH2 0x306C JUMPI DUP1 DUP3 ADD MLOAD DUP2 DUP5 ADD MSTORE PUSH1 0x20 DUP2 ADD SWAP1 POP PUSH2 0x3051 JUMP JUMPDEST DUP4 DUP2 GT ISZERO PUSH2 0x307B JUMPI PUSH1 0x0 DUP5 DUP5 ADD MSTORE JUMPDEST POP POP POP POP JUMP JUMPDEST PUSH1 0x0 PUSH2 0x308C DUP3 PUSH2 0x3025 JUMP JUMPDEST SWAP2 POP PUSH1 0x0 DUP3 EQ ISZERO PUSH2 0x30A0 JUMPI PUSH2 0x309F PUSH2 0x31BF JUMP JUMPDEST JUMPDEST PUSH1 0x1 DUP3 SUB SWAP1 POP SWAP2 SWAP1 POP JUMP JUMPDEST PUSH1 0x0 PUSH1 0x2 DUP3 DIV SWAP1 POP PUSH1 0x1 DUP3 AND DUP1 PUSH2 0x30C3 JUMPI PUSH1 0x7F DUP3 AND SWAP2 POP JUMPDEST PUSH1 0x20 DUP3 LT DUP2 EQ ISZERO PUSH2 0x30D7 JUMPI PUSH2 0x30D6 PUSH2 0x321D JUMP JUMPDEST JUMPDEST POP SWAP2 SWAP1 POP JUMP JUMPDEST PUSH2 0x30E6 DUP3 PUSH2 0x32ED JUMP JUMPDEST DUP2 ADD DUP2 DUP2 LT PUSH8 0xFFFFFFFFFFFFFFFF DUP3 GT OR ISZERO PUSH2 0x3105 JUMPI PUSH2 0x3104 PUSH2 0x32AA JUMP JUMPDEST JUMPDEST DUP1 PUSH1 0x40 MSTORE POP POP POP JUMP JUMPDEST PUSH1 0x0 PUSH2 0x3119 DUP3 PUSH2 0x3025 JUMP JUMPDEST SWAP2 POP PUSH32 0xFFFFFFFFFFFFFFFFFFFFFFFFFFFFFFFFFFFFFFFFFFFFFFFFFFFFFFFFFFFFFFFF DUP3 EQ ISZERO PUSH2 0x314C JUMPI PUSH2 0x314B PUSH2 0x31BF JUMP JUMPDEST JUMPDEST PUSH1 0x1 DUP3 ADD SWAP1 POP SWAP2 SWAP1 POP JUMP JUMPDEST PUSH1 0x0 PUSH2 0x3162 DUP3 PUSH2 0x302F JUMP JUMPDEST SWAP2 POP PUSH4 0xFFFFFFFF DUP3 EQ ISZERO PUSH2 0x3179 JUMPI PUSH2 0x3178 PUSH2 0x31BF JUMP JUMPDEST JUMPDEST PUSH1 0x1 DUP3 ADD SWAP1 POP SWAP2 SWAP1 POP JUMP JUMPDEST PUSH1 0x0 DUP2 SWAP1 POP SWAP2 SWAP1 POP JUMP JUMPDEST PUSH1 0x0 PUSH2 0x3199 DUP3 PUSH2 0x3025 JUMP JUMPDEST SWAP2 POP PUSH2 0x31A4 DUP4 PUSH2 0x3025 JUMP JUMPDEST SWAP3 POP DUP3 PUSH2 0x31B4 JUMPI PUSH2 0x31B3 PUSH2 0x31EE JUMP JUMPDEST JUMPDEST DUP3 DUP3 MOD SWAP1 POP SWAP3 SWAP2 POP POP JUMP JUMPDEST PUSH32 0x4E487B7100000000000000000000000000000000000000000000000000000000 PUSH1 0x0 MSTORE PUSH1 0x11 PUSH1 0x4 MSTORE PUSH1 0x24 PUSH1 0x0 REVERT JUMPDEST PUSH32 0x4E487B7100000000000000000000000000000000000000000000000000000000 PUSH1 0x0 MSTORE PUSH1 0x12 PUSH1 0x4 MSTORE PUSH1 0x24 PUSH1 0x0 REVERT JUMPDEST PUSH32 0x4E487B7100000000000000000000000000000000000000000000000000000000 PUSH1 0x0 MSTORE PUSH1 0x22 PUSH1 0x4 MSTORE PUSH1 0x24 PUSH1 0x0 REVERT JUMPDEST PUSH32 0x4E487B7100000000000000000000000000000000000000000000000000000000 PUSH1 0x0 MSTORE PUSH1 0x31 PUSH1 0x4 MSTORE PUSH1 0x24 PUSH1 0x0 REVERT JUMPDEST PUSH32 0x4E487B7100000000000000000000000000000000000000000000000000000000 PUSH1 0x0 MSTORE PUSH1 0x32 PUSH1 0x4 MSTORE PUSH1 0x24 PUSH1 0x0 REVERT JUMPDEST PUSH32 0x4E487B7100000000000000000000000000000000000000000000000000000000 PUSH1 0x0 MSTORE PUSH1 0x41 PUSH1 0x4 MSTORE PUSH1 0x24 PUSH1 0x0 REVERT JUMPDEST PUSH1 0x0 DUP1 REVERT JUMPDEST PUSH1 0x0 DUP1 REVERT JUMPDEST PUSH1 0x0 DUP1 REVERT JUMPDEST PUSH1 0x0 DUP1 REVERT JUMPDEST PUSH1 0x0 PUSH1 0x1F NOT PUSH1 0x1F DUP4 ADD AND SWAP1 POP SWAP2 SWAP1 POP JUMP JUMPDEST PUSH32 0x536F6C6F2073652070756564652074656E657220756E20636F63686520706F72 PUSH1 0x0 DUP3 ADD MSTORE PUSH32 0x20706572736F6E61000000000000000000000000000000000000000000000000 PUSH1 0x20 DUP3 ADD MSTORE POP JUMP JUMPDEST PUSH32 0x4F776E61626C653A206E6577206F776E657220697320746865207A65726F2061 PUSH1 0x0 DUP3 ADD MSTORE PUSH32 0x6464726573730000000000000000000000000000000000000000000000000000 PUSH1 0x20 DUP3 ADD MSTORE POP JUMP JUMPDEST PUSH32 0x4E6F2068617920636F6368657320737566696369656E74657320706172612069 PUSH1 0x0 DUP3 ADD MSTORE PUSH32 0x6E696369617220756E6120636172726572610000000000000000000000000000 PUSH1 0x20 DUP3 ADD MSTORE POP JUMP JUMPDEST PUSH32 0x4F776E61626C653A2063616C6C6572206973206E6F7420746865206F776E6572 PUSH1 0x0 DUP3 ADD MSTORE POP JUMP JUMPDEST PUSH32 0x456C20636F6368652067616E61646F722065733A200000000000000000000000 PUSH1 0x0 DUP3 ADD MSTORE POP JUMP JUMPDEST PUSH2 0x3446 DUP2 PUSH2 0x2FF3 JUMP JUMPDEST DUP2 EQ PUSH2 0x3451 JUMPI PUSH1 0x0 DUP1 REVERT JUMPDEST POP JUMP JUMPDEST PUSH2 0x345D DUP2 PUSH2 0x3025 JUMP JUMPDEST DUP2 EQ PUSH2 0x3468 JUMPI PUSH1 0x0 DUP1 REVERT JUMPDEST POP JUMP JUMPDEST PUSH2 0x3474 DUP2 PUSH2 0x302F JUMP JUMPDEST DUP2 EQ PUSH2 0x347F JUMPI PUSH1 0x0 DUP1 REVERT JUMPDEST POP JUMP INVALID LOG2 PUSH5 0x6970667358 0x22 SLT KECCAK256 0xB5 0xE5 POP 0x2C 0x5C 0xA8 0x4B 0xD9 PC 0xD9 EQ MSIZE 0xC7 0x49 ISZERO SHL 0xD5 0xC5 0xC9 SWAP6 PUSH4 0x6055A068 CALLDATACOPY LOG3 0xC1 OR MLOAD 0xF9 0xC7 PUSH5 0x736F6C6343 STOP ADDMOD SMOD STOP CALLER "
				},
				"gasEstimates": {
					"creation": {
						"codeDepositCost": "2699200",
						"executionCost": "infinite",
						"totalCost": "infinite"
					},
					"external": {
						"Apostar(uint256)": "infinite",
						"_owner()": "2622",
						"anadirCoche(string,string,string)": "infinite",
						"approve(address,uint256)": "29170",
						"balanceOf(address)": "2864",
						"borrarCoche(address)": "infinite",
						"cocheDePropietario(uint256)": "2906",
						"comprarCoche(address,string,string)": "infinite",
						"crearCoche(address,address)": "infinite",
						"listaCoches(uint256)": "infinite",
						"numeroCochesPersona(address)": "2904",
						"owner()": "2611",
						"ownerOf(uint256)": "2932",
						"renounceOwnership()": "30419",
						"subirDeNivel(address)": "infinite",
						"transferFrom(address,address,uint256)": "infinite",
						"transferOwnership(address)": "30811",
						"transferirCoche(string,string,string,uint256,uint256,uint32,uint256)": "infinite",
						"verCochePropietario(address)": "infinite"
					},
					"internal": {
						"_transfer(address,address,uint256)": "infinite"
					}
				},
				"methodIdentifiers": {
					"Apostar(uint256)": "6b6f0494",
					"_owner()": "b2bdfa7b",
					"anadirCoche(string,string,string)": "2458c544",
					"approve(address,uint256)": "095ea7b3",
					"balanceOf(address)": "70a08231",
					"borrarCoche(address)": "17bde7a9",
					"cocheDePropietario(uint256)": "858b0554",
					"comprarCoche(address,string,string)": "049a5f65",
					"crearCoche(address,address)": "ffe20b64",
					"listaCoches(uint256)": "d735573d",
					"numeroCochesPersona(address)": "1c6743e4",
					"owner()": "8da5cb5b",
					"ownerOf(uint256)": "6352211e",
					"renounceOwnership()": "715018a6",
					"subirDeNivel(address)": "6a7d1816",
					"transferFrom(address,address,uint256)": "23b872dd",
					"transferOwnership(address)": "f2fde38b",
					"transferirCoche(string,string,string,uint256,uint256,uint32,uint256)": "df79777b",
					"verCochePropietario(address)": "e172fca8"
				}
			},
			"storageLayout": {
				"storage": [
					{
						"astId": 373,
						"contract": "contracts/CarreraCoches/cocheToken.sol:CocheToken",
						"label": "_owner",
						"offset": 0,
						"slot": "0",
						"type": "t_address"
					},
					{
						"astId": 495,
						"contract": "contracts/CarreraCoches/cocheToken.sol:CocheToken",
						"label": "randNonce",
						"offset": 0,
						"slot": "1",
						"type": "t_uint256"
					},
					{
						"astId": 498,
						"contract": "contracts/CarreraCoches/cocheToken.sol:CocheToken",
						"label": "contador",
						"offset": 0,
						"slot": "2",
						"type": "t_uint256"
					},
					{
						"astId": 501,
						"contract": "contracts/CarreraCoches/cocheToken.sol:CocheToken",
						"label": "cooldown",
						"offset": 0,
						"slot": "3",
						"type": "t_uint256"
					},
					{
						"astId": 504,
						"contract": "contracts/CarreraCoches/cocheToken.sol:CocheToken",
						"label": "subirNivel",
						"offset": 0,
						"slot": "4",
						"type": "t_uint256"
					},
					{
						"astId": 507,
						"contract": "contracts/CarreraCoches/cocheToken.sol:CocheToken",
						"label": "cambiarCocheV",
						"offset": 0,
						"slot": "5",
						"type": "t_uint256"
					},
					{
						"astId": 511,
						"contract": "contracts/CarreraCoches/cocheToken.sol:CocheToken",
						"label": "listaCoches",
						"offset": 0,
						"slot": "6",
						"type": "t_array(t_struct(Coche)492_storage)dyn_storage"
					},
					{
						"astId": 541,
						"contract": "contracts/CarreraCoches/cocheToken.sol:CocheToken",
						"label": "cocheDePropietario",
						"offset": 0,
						"slot": "7",
						"type": "t_mapping(t_uint256,t_address)"
					},
					{
						"astId": 545,
						"contract": "contracts/CarreraCoches/cocheToken.sol:CocheToken",
						"label": "numeroCochesPersona",
						"offset": 0,
						"slot": "8",
						"type": "t_mapping(t_address,t_uint256)"
					},
					{
						"astId": 11,
						"contract": "contracts/CarreraCoches/cocheToken.sol:CocheToken",
						"label": "confirmarTransferencia",
						"offset": 0,
						"slot": "9",
						"type": "t_mapping(t_uint256,t_address)"
					}
				],
				"types": {
					"t_address": {
						"encoding": "inplace",
						"label": "address",
						"numberOfBytes": "20"
					},
					"t_array(t_struct(Coche)492_storage)dyn_storage": {
						"base": "t_struct(Coche)492_storage",
						"encoding": "dynamic_array",
						"label": "struct CarreraCoches.Coche[]",
						"numberOfBytes": "32"
					},
					"t_mapping(t_address,t_uint256)": {
						"encoding": "mapping",
						"key": "t_address",
						"label": "mapping(address => uint256)",
						"numberOfBytes": "32",
						"value": "t_uint256"
					},
					"t_mapping(t_uint256,t_address)": {
						"encoding": "mapping",
						"key": "t_uint256",
						"label": "mapping(uint256 => address)",
						"numberOfBytes": "32",
						"value": "t_address"
					},
					"t_string_storage": {
						"encoding": "bytes",
						"label": "string",
						"numberOfBytes": "32"
					},
					"t_struct(Coche)492_storage": {
						"encoding": "inplace",
						"label": "struct CarreraCoches.Coche",
						"members": [
							{
								"astId": 477,
								"contract": "contracts/CarreraCoches/cocheToken.sol:CocheToken",
								"label": "idPiloto",
								"offset": 0,
								"slot": "0",
								"type": "t_address"
							},
							{
								"astId": 479,
								"contract": "contracts/CarreraCoches/cocheToken.sol:CocheToken",
								"label": "modelo",
								"offset": 0,
								"slot": "1",
								"type": "t_string_storage"
							},
							{
								"astId": 481,
								"contract": "contracts/CarreraCoches/cocheToken.sol:CocheToken",
								"label": "marca",
								"offset": 0,
								"slot": "2",
								"type": "t_string_storage"
							},
							{
								"astId": 483,
								"contract": "contracts/CarreraCoches/cocheToken.sol:CocheToken",
								"label": "nombrePiloto",
								"offset": 0,
								"slot": "3",
								"type": "t_string_storage"
							},
							{
								"astId": 485,
								"contract": "contracts/CarreraCoches/cocheToken.sol:CocheToken",
								"label": "carrerasGanadas",
								"offset": 0,
								"slot": "4",
								"type": "t_uint256"
							},
							{
								"astId": 487,
								"contract": "contracts/CarreraCoches/cocheToken.sol:CocheToken",
								"label": "carrerasTotales",
								"offset": 0,
								"slot": "5",
								"type": "t_uint256"
							},
							{
								"astId": 489,
								"contract": "contracts/CarreraCoches/cocheToken.sol:CocheToken",
								"label": "tiempoEspera",
								"offset": 0,
								"slot": "6",
								"type": "t_uint256"
							},
							{
								"astId": 491,
								"contract": "contracts/CarreraCoches/cocheToken.sol:CocheToken",
								"label": "nivel",
								"offset": 0,
								"slot": "7",
								"type": "t_uint32"
							}
						],
						"numberOfBytes": "256"
					},
					"t_uint256": {
						"encoding": "inplace",
						"label": "uint256",
						"numberOfBytes": "32"
					},
					"t_uint32": {
						"encoding": "inplace",
						"label": "uint32",
						"numberOfBytes": "4"
					}
				}
			},
			"userdoc": {
				"kind": "user",
				"methods": {},
				"version": 1
			}
		}
	}
}