{
	"contracts/CarreraCoches/main.sol": {
		"CarreraCoches": {
			"abi": [
				{
					"anonymous": false,
					"inputs": [
						{
							"indexed": true,
							"internalType": "address",
							"name": "previousOwner",
							"type": "address"
						},
						{
							"indexed": true,
							"internalType": "address",
							"name": "newOwner",
							"type": "address"
						}
					],
					"name": "OwnershipTransferred",
					"type": "event"
				},
				{
					"anonymous": false,
					"inputs": [
						{
							"indexed": false,
							"internalType": "string",
							"name": "ms",
							"type": "string"
						}
					],
					"name": "confirmacionDepositoLleno",
					"type": "event"
				},
				{
					"anonymous": false,
					"inputs": [
						{
							"indexed": false,
							"internalType": "string",
							"name": "ms",
							"type": "string"
						},
						{
							"indexed": false,
							"internalType": "uint256",
							"name": "res",
							"type": "uint256"
						}
					],
					"name": "mostrarResultado",
					"type": "event"
				},
				{
					"inputs": [
						{
							"internalType": "uint256",
							"name": "dineroApostar",
							"type": "uint256"
						}
					],
					"name": "Apostar",
					"outputs": [
						{
							"internalType": "string",
							"name": "",
							"type": "string"
						}
					],
					"stateMutability": "payable",
					"type": "function"
				},
				{
					"inputs": [],
					"name": "_depositoVacio",
					"outputs": [
						{
							"internalType": "string",
							"name": "",
							"type": "string"
						}
					],
					"stateMutability": "nonpayable",
					"type": "function"
				},
				{
					"inputs": [
						{
							"internalType": "string",
							"name": "_modelo",
							"type": "string"
						},
						{
							"internalType": "string",
							"name": "_marca",
							"type": "string"
						},
						{
							"internalType": "string",
							"name": "_nombrePiloto",
							"type": "string"
						}
					],
					"name": "anadirCoche",
					"outputs": [
						{
							"internalType": "uint256",
							"name": "",
							"type": "uint256"
						}
					],
					"stateMutability": "nonpayable",
					"type": "function"
				},
				{
					"inputs": [
						{
							"internalType": "uint256",
							"name": "",
							"type": "uint256"
						}
					],
					"name": "listaCoches",
					"outputs": [
						{
							"internalType": "address",
							"name": "idPiloto",
							"type": "address"
						},
						{
							"internalType": "string",
							"name": "modelo",
							"type": "string"
						},
						{
							"internalType": "string",
							"name": "marca",
							"type": "string"
						},
						{
							"internalType": "string",
							"name": "nombrePiloto",
							"type": "string"
						},
						{
							"internalType": "uint256",
							"name": "carrerasGanadas",
							"type": "uint256"
						},
						{
							"internalType": "uint256",
							"name": "carrerasTotales",
							"type": "uint256"
						},
						{
							"internalType": "uint256",
							"name": "tiempoEspera",
							"type": "uint256"
						}
					],
					"stateMutability": "view",
					"type": "function"
				},
				{
					"inputs": [],
					"name": "numeroAleatorio",
					"outputs": [
						{
							"internalType": "uint256",
							"name": "",
							"type": "uint256"
						}
					],
					"stateMutability": "nonpayable",
					"type": "function"
				},
				{
					"inputs": [
						{
							"internalType": "address",
							"name": "",
							"type": "address"
						}
					],
					"name": "numeroCochesPersona",
					"outputs": [
						{
							"internalType": "uint256",
							"name": "",
							"type": "uint256"
						}
					],
					"stateMutability": "view",
					"type": "function"
				},
				{
					"inputs": [],
					"name": "owner",
					"outputs": [
						{
							"internalType": "address",
							"name": "",
							"type": "address"
						}
					],
					"stateMutability": "view",
					"type": "function"
				},
				{
					"inputs": [],
					"name": "renounceOwnership",
					"outputs": [],
					"stateMutability": "nonpayable",
					"type": "function"
				},
				{
					"inputs": [
						{
							"internalType": "address",
							"name": "newOwner",
							"type": "address"
						}
					],
					"name": "transferOwnership",
					"outputs": [],
					"stateMutability": "nonpayable",
					"type": "function"
				}
			],
			"devdoc": {
				"kind": "dev",
				"methods": {
					"owner()": {
						"details": "Returns the address of the current owner."
					},
					"renounceOwnership()": {
						"details": "Leaves the contract without owner. It will not be possible to call `onlyOwner` functions anymore. Can only be called by the current owner. NOTE: Renouncing ownership will leave the contract without an owner, thereby removing any functionality that is only available to the owner."
					},
					"transferOwnership(address)": {
						"details": "Transfers ownership of the contract to a new account (`newOwner`). Can only be called by the current owner."
					}
				},
				"version": 1
			},
			"evm": {
				"assembly": "    /* \"contracts/CarreraCoches/main.sol\":54:3333  contract CarreraCoches is Ownable {\r... */\n  mstore(0x40, 0x80)\n    /* \"contracts/CarreraCoches/main.sol\":347:348  0 */\n  0x00\n    /* \"contracts/CarreraCoches/main.sol\":330:348  uint randNonce = 0 */\n  0x01\n  sstore\n    /* \"contracts/CarreraCoches/main.sol\":471:472  0 */\n  0x00\n    /* \"contracts/CarreraCoches/main.sol\":455:472  uint contador = 0 */\n  0x02\n  sstore\n    /* \"contracts/CarreraCoches/main.sol\":495:505  60 seconds */\n  0x3c\n    /* \"contracts/CarreraCoches/main.sol\":479:505  uint cooldown = 60 seconds */\n  0x03\n  sstore\n    /* \"contracts/CarreraCoches/main.sol\":54:3333  contract CarreraCoches is Ownable {\r... */\n  callvalue\n  dup1\n  iszero\n  tag_1\n  jumpi\n  0x00\n  dup1\n  revert\ntag_1:\n  pop\n    /* \"contracts/CarreraCoches/ownable.sol\":948:980  _transferOwnership(_msgSender()) */\n  tag_4\n    /* \"contracts/CarreraCoches/ownable.sol\":967:979  _msgSender() */\n  tag_5\n    /* \"contracts/CarreraCoches/ownable.sol\":967:977  _msgSender */\n  shl(0x20, tag_6)\n    /* \"contracts/CarreraCoches/ownable.sol\":967:979  _msgSender() */\n  0x20\n  shr\n  jump\t// in\ntag_5:\n    /* \"contracts/CarreraCoches/ownable.sol\":948:966  _transferOwnership */\n  shl(0x20, tag_7)\n    /* \"contracts/CarreraCoches/ownable.sol\":948:980  _transferOwnership(_msgSender()) */\n  0x20\n  shr\n  jump\t// in\ntag_4:\n    /* \"contracts/CarreraCoches/main.sol\":54:3333  contract CarreraCoches is Ownable {\r... */\n  jump(tag_8)\n    /* \"contracts/CarreraCoches/utils/Context.sol\":656:754  function _msgSender() internal view virtual returns (address) {\r... */\ntag_6:\n    /* \"contracts/CarreraCoches/utils/Context.sol\":709:716  address */\n  0x00\n    /* \"contracts/CarreraCoches/utils/Context.sol\":736:746  msg.sender */\n  caller\n    /* \"contracts/CarreraCoches/utils/Context.sol\":729:746  return msg.sender */\n  swap1\n  pop\n    /* \"contracts/CarreraCoches/utils/Context.sol\":656:754  function _msgSender() internal view virtual returns (address) {\r... */\n  swap1\n  jump\t// out\n    /* \"contracts/CarreraCoches/ownable.sol\":2339:2530  function _transferOwnership(address newOwner) internal virtual {\r... */\ntag_7:\n    /* \"contracts/CarreraCoches/ownable.sol\":2413:2429  address oldOwner */\n  0x00\n    /* \"contracts/CarreraCoches/ownable.sol\":2432:2438  _owner */\n  dup1\n  0x00\n  swap1\n  sload\n  swap1\n  0x0100\n  exp\n  swap1\n  div\n  0xffffffffffffffffffffffffffffffffffffffff\n  and\n    /* \"contracts/CarreraCoches/ownable.sol\":2413:2438  address oldOwner = _owner */\n  swap1\n  pop\n    /* \"contracts/CarreraCoches/ownable.sol\":2458:2466  newOwner */\n  dup2\n    /* \"contracts/CarreraCoches/ownable.sol\":2449:2455  _owner */\n  0x00\n  dup1\n    /* \"contracts/CarreraCoches/ownable.sol\":2449:2466  _owner = newOwner */\n  0x0100\n  exp\n  dup2\n  sload\n  dup2\n  0xffffffffffffffffffffffffffffffffffffffff\n  mul\n  not\n  and\n  swap1\n  dup4\n  0xffffffffffffffffffffffffffffffffffffffff\n  and\n  mul\n  or\n  swap1\n  sstore\n  pop\n    /* \"contracts/CarreraCoches/ownable.sol\":2513:2521  newOwner */\n  dup2\n    /* \"contracts/CarreraCoches/ownable.sol\":2482:2522  OwnershipTransferred(oldOwner, newOwner) */\n  0xffffffffffffffffffffffffffffffffffffffff\n  and\n    /* \"contracts/CarreraCoches/ownable.sol\":2503:2511  oldOwner */\n  dup2\n    /* \"contracts/CarreraCoches/ownable.sol\":2482:2522  OwnershipTransferred(oldOwner, newOwner) */\n  0xffffffffffffffffffffffffffffffffffffffff\n  and\n  0x8be0079c531659141344cd1fd0a4f28419497f9722a3daafe3b4186f6b6457e0\n  mload(0x40)\n  mload(0x40)\n  dup1\n  swap2\n  sub\n  swap1\n  log3\n    /* \"contracts/CarreraCoches/ownable.sol\":2402:2530  {\r... */\n  pop\n    /* \"contracts/CarreraCoches/ownable.sol\":2339:2530  function _transferOwnership(address newOwner) internal virtual {\r... */\n  pop\n  jump\t// out\n    /* \"contracts/CarreraCoches/main.sol\":54:3333  contract CarreraCoches is Ownable {\r... */\ntag_8:\n  dataSize(sub_0)\n  dup1\n  dataOffset(sub_0)\n  0x00\n  codecopy\n  0x00\n  return\nstop\n\nsub_0: assembly {\n        /* \"contracts/CarreraCoches/main.sol\":54:3333  contract CarreraCoches is Ownable {\r... */\n      mstore(0x40, 0x80)\n      jumpi(tag_1, lt(calldatasize, 0x04))\n      shr(0xe0, calldataload(0x00))\n      dup1\n      0x8da5cb5b\n      gt\n      tag_11\n      jumpi\n      dup1\n      0x8da5cb5b\n      eq\n      tag_6\n      jumpi\n      dup1\n      0xd735573d\n      eq\n      tag_7\n      jumpi\n      dup1\n      0xe1f0e680\n      eq\n      tag_8\n      jumpi\n      dup1\n      0xf1413763\n      eq\n      tag_9\n      jumpi\n      dup1\n      0xf2fde38b\n      eq\n      tag_10\n      jumpi\n      jump(tag_1)\n    tag_11:\n      dup1\n      0x1c6743e4\n      eq\n      tag_2\n      jumpi\n      dup1\n      0x2458c544\n      eq\n      tag_3\n      jumpi\n      dup1\n      0x6b6f0494\n      eq\n      tag_4\n      jumpi\n      dup1\n      0x715018a6\n      eq\n      tag_5\n      jumpi\n    tag_1:\n      0x00\n      dup1\n      revert\n        /* \"contracts/CarreraCoches/main.sol\":650:702  mapping (address => uint) public numeroCochesPersona */\n    tag_2:\n      callvalue\n      dup1\n      iszero\n      tag_12\n      jumpi\n      0x00\n      dup1\n      revert\n    tag_12:\n      pop\n      tag_13\n      0x04\n      dup1\n      calldatasize\n      sub\n      dup2\n      add\n      swap1\n      tag_14\n      swap2\n      swap1\n      tag_15\n      jump\t// in\n    tag_14:\n      tag_16\n      jump\t// in\n    tag_13:\n      mload(0x40)\n      tag_17\n      swap2\n      swap1\n      tag_18\n      jump\t// in\n    tag_17:\n      mload(0x40)\n      dup1\n      swap2\n      sub\n      swap1\n      return\n        /* \"contracts/CarreraCoches/main.sol\":945:1297  function anadirCoche(string memory _modelo, string memory _marca, string memory _nombrePiloto) public restriccion returns (uint) {\r... */\n    tag_3:\n      callvalue\n      dup1\n      iszero\n      tag_19\n      jumpi\n      0x00\n      dup1\n      revert\n    tag_19:\n      pop\n      tag_20\n      0x04\n      dup1\n      calldatasize\n      sub\n      dup2\n      add\n      swap1\n      tag_21\n      swap2\n      swap1\n      tag_22\n      jump\t// in\n    tag_21:\n      tag_23\n      jump\t// in\n    tag_20:\n      mload(0x40)\n      tag_24\n      swap2\n      swap1\n      tag_18\n      jump\t// in\n    tag_24:\n      mload(0x40)\n      dup1\n      swap2\n      sub\n      swap1\n      return\n        /* \"contracts/CarreraCoches/main.sol\":2091:3175  function Apostar(uint dineroApostar) public payable returns(string memory) {\r... */\n    tag_4:\n      tag_25\n      0x04\n      dup1\n      calldatasize\n      sub\n      dup2\n      add\n      swap1\n      tag_26\n      swap2\n      swap1\n      tag_27\n      jump\t// in\n    tag_26:\n      tag_28\n      jump\t// in\n    tag_25:\n      mload(0x40)\n      tag_29\n      swap2\n      swap1\n      tag_30\n      jump\t// in\n    tag_29:\n      mload(0x40)\n      dup1\n      swap2\n      sub\n      swap1\n      return\n        /* \"contracts/CarreraCoches/ownable.sol\":1720:1823  function renounceOwnership() public virtual onlyOwner {\r... */\n    tag_5:\n      callvalue\n      dup1\n      iszero\n      tag_31\n      jumpi\n      0x00\n      dup1\n      revert\n    tag_31:\n      pop\n      tag_32\n      tag_33\n      jump\t// in\n    tag_32:\n      stop\n        /* \"contracts/CarreraCoches/ownable.sol\":1069:1156  function owner() public view virtual returns (address) {\r... */\n    tag_6:\n      callvalue\n      dup1\n      iszero\n      tag_34\n      jumpi\n      0x00\n      dup1\n      revert\n    tag_34:\n      pop\n      tag_35\n      tag_36\n      jump\t// in\n    tag_35:\n      mload(0x40)\n      tag_37\n      swap2\n      swap1\n      tag_38\n      jump\t// in\n    tag_37:\n      mload(0x40)\n      dup1\n      swap2\n      sub\n      swap1\n      return\n        /* \"contracts/CarreraCoches/main.sol\":514:540  Coche[] public listaCoches */\n    tag_7:\n      callvalue\n      dup1\n      iszero\n      tag_39\n      jumpi\n      0x00\n      dup1\n      revert\n    tag_39:\n      pop\n      tag_40\n      0x04\n      dup1\n      calldatasize\n      sub\n      dup2\n      add\n      swap1\n      tag_41\n      swap2\n      swap1\n      tag_27\n      jump\t// in\n    tag_41:\n      tag_42\n      jump\t// in\n    tag_40:\n      mload(0x40)\n      tag_43\n      swap8\n      swap7\n      swap6\n      swap5\n      swap4\n      swap3\n      swap2\n      swap1\n      tag_44\n      jump\t// in\n    tag_43:\n      mload(0x40)\n      dup1\n      swap2\n      sub\n      swap1\n      return\n        /* \"contracts/CarreraCoches/main.sol\":1854:1984  function _depositoVacio() public returns (string memory) {\r... */\n    tag_8:\n      callvalue\n      dup1\n      iszero\n      tag_45\n      jumpi\n      0x00\n      dup1\n      revert\n    tag_45:\n      pop\n      tag_46\n      tag_47\n      jump\t// in\n    tag_46:\n      mload(0x40)\n      tag_48\n      swap2\n      swap1\n      tag_30\n      jump\t// in\n    tag_48:\n      mload(0x40)\n      dup1\n      swap2\n      sub\n      swap1\n      return\n        /* \"contracts/CarreraCoches/main.sol\":1627:1846  function numeroAleatorio() public returns (uint256) {\r... */\n    tag_9:\n      callvalue\n      dup1\n      iszero\n      tag_49\n      jumpi\n      0x00\n      dup1\n      revert\n    tag_49:\n      pop\n      tag_50\n      tag_51\n      jump\t// in\n    tag_50:\n      mload(0x40)\n      tag_52\n      swap2\n      swap1\n      tag_18\n      jump\t// in\n    tag_52:\n      mload(0x40)\n      dup1\n      swap2\n      sub\n      swap1\n      return\n        /* \"contracts/CarreraCoches/ownable.sol\":1978:2179  function transferOwnership(address newOwner) public virtual onlyOwner {\r... */\n    tag_10:\n      callvalue\n      dup1\n      iszero\n      tag_53\n      jumpi\n      0x00\n      dup1\n      revert\n    tag_53:\n      pop\n      tag_54\n      0x04\n      dup1\n      calldatasize\n      sub\n      dup2\n      add\n      swap1\n      tag_55\n      swap2\n      swap1\n      tag_15\n      jump\t// in\n    tag_55:\n      tag_56\n      jump\t// in\n    tag_54:\n      stop\n        /* \"contracts/CarreraCoches/main.sol\":650:702  mapping (address => uint) public numeroCochesPersona */\n    tag_16:\n      mstore(0x20, 0x05)\n      dup1\n      0x00\n      mstore\n      keccak256(0x00, 0x40)\n      0x00\n      swap2\n      pop\n      swap1\n      pop\n      sload\n      dup2\n      jump\t// out\n        /* \"contracts/CarreraCoches/main.sol\":945:1297  function anadirCoche(string memory _modelo, string memory _marca, string memory _nombrePiloto) public restriccion returns (uint) {\r... */\n    tag_23:\n        /* \"contracts/CarreraCoches/main.sol\":1068:1072  uint */\n      0x00\n        /* \"contracts/CarreraCoches/main.sol\":834:835  1 */\n      0x01\n        /* \"contracts/CarreraCoches/main.sol\":800:819  numeroCochesPersona */\n      0x05\n        /* \"contracts/CarreraCoches/main.sol\":800:831  numeroCochesPersona[msg.sender] */\n      0x00\n        /* \"contracts/CarreraCoches/main.sol\":820:830  msg.sender */\n      caller\n        /* \"contracts/CarreraCoches/main.sol\":800:831  numeroCochesPersona[msg.sender] */\n      0xffffffffffffffffffffffffffffffffffffffff\n      and\n      0xffffffffffffffffffffffffffffffffffffffff\n      and\n      dup2\n      mstore\n      0x20\n      add\n      swap1\n      dup2\n      mstore\n      0x20\n      add\n      0x00\n      keccak256\n      sload\n        /* \"contracts/CarreraCoches/main.sol\":800:835  numeroCochesPersona[msg.sender] < 1 */\n      lt\n        /* \"contracts/CarreraCoches/main.sol\":792:880  require(numeroCochesPersona[msg.sender] < 1, \"Solo se puede tener un coche por persona\") */\n      tag_58\n      jumpi\n      mload(0x40)\n      0x08c379a000000000000000000000000000000000000000000000000000000000\n      dup2\n      mstore\n      0x04\n      add\n      tag_59\n      swap1\n      tag_60\n      jump\t// in\n    tag_59:\n      mload(0x40)\n      dup1\n      swap2\n      sub\n      swap1\n      revert\n    tag_58:\n        /* \"contracts/CarreraCoches/main.sol\":1085:1096  listaCoches */\n      0x04\n        /* \"contracts/CarreraCoches/main.sol\":1102:1193  Coche(msg.sender, _modelo, _marca, _nombrePiloto, 0, 0, uint32(block.timestamp + cooldown)) */\n      mload(0x40)\n      dup1\n      0xe0\n      add\n      0x40\n      mstore\n      dup1\n        /* \"contracts/CarreraCoches/main.sol\":1108:1118  msg.sender */\n      caller\n        /* \"contracts/CarreraCoches/main.sol\":1102:1193  Coche(msg.sender, _modelo, _marca, _nombrePiloto, 0, 0, uint32(block.timestamp + cooldown)) */\n      0xffffffffffffffffffffffffffffffffffffffff\n      and\n      dup2\n      mstore\n      0x20\n      add\n        /* \"contracts/CarreraCoches/main.sol\":1120:1127  _modelo */\n      dup7\n        /* \"contracts/CarreraCoches/main.sol\":1102:1193  Coche(msg.sender, _modelo, _marca, _nombrePiloto, 0, 0, uint32(block.timestamp + cooldown)) */\n      dup2\n      mstore\n      0x20\n      add\n        /* \"contracts/CarreraCoches/main.sol\":1129:1135  _marca */\n      dup6\n        /* \"contracts/CarreraCoches/main.sol\":1102:1193  Coche(msg.sender, _modelo, _marca, _nombrePiloto, 0, 0, uint32(block.timestamp + cooldown)) */\n      dup2\n      mstore\n      0x20\n      add\n        /* \"contracts/CarreraCoches/main.sol\":1137:1150  _nombrePiloto */\n      dup5\n        /* \"contracts/CarreraCoches/main.sol\":1102:1193  Coche(msg.sender, _modelo, _marca, _nombrePiloto, 0, 0, uint32(block.timestamp + cooldown)) */\n      dup2\n      mstore\n      0x20\n      add\n        /* \"contracts/CarreraCoches/main.sol\":1152:1153  0 */\n      0x00\n        /* \"contracts/CarreraCoches/main.sol\":1102:1193  Coche(msg.sender, _modelo, _marca, _nombrePiloto, 0, 0, uint32(block.timestamp + cooldown)) */\n      dup2\n      mstore\n      0x20\n      add\n        /* \"contracts/CarreraCoches/main.sol\":1155:1156  0 */\n      0x00\n        /* \"contracts/CarreraCoches/main.sol\":1102:1193  Coche(msg.sender, _modelo, _marca, _nombrePiloto, 0, 0, uint32(block.timestamp + cooldown)) */\n      dup2\n      mstore\n      0x20\n      add\n        /* \"contracts/CarreraCoches/main.sol\":1183:1191  cooldown */\n      sload(0x03)\n        /* \"contracts/CarreraCoches/main.sol\":1165:1180  block.timestamp */\n      timestamp\n        /* \"contracts/CarreraCoches/main.sol\":1165:1191  block.timestamp + cooldown */\n      tag_62\n      swap2\n      swap1\n      tag_63\n      jump\t// in\n    tag_62:\n        /* \"contracts/CarreraCoches/main.sol\":1102:1193  Coche(msg.sender, _modelo, _marca, _nombrePiloto, 0, 0, uint32(block.timestamp + cooldown)) */\n      0xffffffff\n      and\n      dup2\n      mstore\n      pop\n        /* \"contracts/CarreraCoches/main.sol\":1085:1194  listaCoches.push(Coche(msg.sender, _modelo, _marca, _nombrePiloto, 0, 0, uint32(block.timestamp + cooldown))) */\n      swap1\n      dup1\n      0x01\n      dup2\n      sload\n      add\n      dup1\n      dup3\n      sstore\n      dup1\n      swap2\n      pop\n      pop\n      0x01\n      swap1\n      sub\n      swap1\n      0x00\n      mstore\n      keccak256(0x00, 0x20)\n      swap1\n      0x07\n      mul\n      add\n      0x00\n      swap1\n      swap2\n      swap1\n      swap2\n      swap1\n      swap2\n      pop\n      0x00\n      dup3\n      add\n      mload\n      dup2\n      0x00\n      add\n      exp(0x0100, 0x00)\n      dup2\n      sload\n      dup2\n      0xffffffffffffffffffffffffffffffffffffffff\n      mul\n      not\n      and\n      swap1\n      dup4\n      0xffffffffffffffffffffffffffffffffffffffff\n      and\n      mul\n      or\n      swap1\n      sstore\n      pop\n      0x20\n      dup3\n      add\n      mload\n      dup2\n      0x01\n      add\n      swap1\n      dup1\n      mload\n      swap1\n      0x20\n      add\n      swap1\n      tag_65\n      swap3\n      swap2\n      swap1\n      tag_66\n      jump\t// in\n    tag_65:\n      pop\n      0x40\n      dup3\n      add\n      mload\n      dup2\n      0x02\n      add\n      swap1\n      dup1\n      mload\n      swap1\n      0x20\n      add\n      swap1\n      tag_67\n      swap3\n      swap2\n      swap1\n      tag_66\n      jump\t// in\n    tag_67:\n      pop\n      0x60\n      dup3\n      add\n      mload\n      dup2\n      0x03\n      add\n      swap1\n      dup1\n      mload\n      swap1\n      0x20\n      add\n      swap1\n      tag_68\n      swap3\n      swap2\n      swap1\n      tag_66\n      jump\t// in\n    tag_68:\n      pop\n      0x80\n      dup3\n      add\n      mload\n      dup2\n      0x04\n      add\n      sstore\n      0xa0\n      dup3\n      add\n      mload\n      dup2\n      0x05\n      add\n      sstore\n      0xc0\n      dup3\n      add\n      mload\n      dup2\n      0x06\n      add\n      sstore\n      pop\n      pop\n        /* \"contracts/CarreraCoches/main.sol\":1205:1224  numeroCochesPersona */\n      0x05\n        /* \"contracts/CarreraCoches/main.sol\":1205:1236  numeroCochesPersona[msg.sender] */\n      0x00\n        /* \"contracts/CarreraCoches/main.sol\":1225:1235  msg.sender */\n      caller\n        /* \"contracts/CarreraCoches/main.sol\":1205:1236  numeroCochesPersona[msg.sender] */\n      0xffffffffffffffffffffffffffffffffffffffff\n      and\n      0xffffffffffffffffffffffffffffffffffffffff\n      and\n      dup2\n      mstore\n      0x20\n      add\n      swap1\n      dup2\n      mstore\n      0x20\n      add\n      0x00\n      keccak256\n      0x00\n        /* \"contracts/CarreraCoches/main.sol\":1205:1238  numeroCochesPersona[msg.sender]++ */\n      dup2\n      sload\n      dup1\n      swap3\n      swap2\n      swap1\n      tag_69\n      swap1\n      tag_70\n      jump\t// in\n    tag_69:\n      swap2\n      swap1\n      pop\n      sstore\n      pop\n        /* \"contracts/CarreraCoches/main.sol\":1249:1257  contador */\n      0x02\n      0x00\n        /* \"contracts/CarreraCoches/main.sol\":1249:1259  contador++ */\n      dup2\n      sload\n      dup1\n      swap3\n      swap2\n      swap1\n      tag_71\n      swap1\n      tag_70\n      jump\t// in\n    tag_71:\n      swap2\n      swap1\n      pop\n      sstore\n      pop\n        /* \"contracts/CarreraCoches/main.sol\":1288:1289  1 */\n      0x01\n        /* \"contracts/CarreraCoches/main.sol\":1277:1285  contador */\n      sload(0x02)\n        /* \"contracts/CarreraCoches/main.sol\":1277:1289  contador - 1 */\n      tag_72\n      swap2\n      swap1\n      tag_73\n      jump\t// in\n    tag_72:\n        /* \"contracts/CarreraCoches/main.sol\":1270:1289  return contador - 1 */\n      swap1\n      pop\n        /* \"contracts/CarreraCoches/main.sol\":945:1297  function anadirCoche(string memory _modelo, string memory _marca, string memory _nombrePiloto) public restriccion returns (uint) {\r... */\n      swap4\n      swap3\n      pop\n      pop\n      pop\n      jump\t// out\n        /* \"contracts/CarreraCoches/main.sol\":2091:3175  function Apostar(uint dineroApostar) public payable returns(string memory) {\r... */\n    tag_28:\n        /* \"contracts/CarreraCoches/main.sol\":2151:2164  string memory */\n      0x60\n        /* \"contracts/CarreraCoches/main.sol\":2197:2210  dineroApostar */\n      dup2\n        /* \"contracts/CarreraCoches/main.sol\":2184:2193  msg.value */\n      callvalue\n        /* \"contracts/CarreraCoches/main.sol\":2184:2210  msg.value == dineroApostar */\n      eq\n        /* \"contracts/CarreraCoches/main.sol\":2176:2211  require(msg.value == dineroApostar) */\n      tag_75\n      jumpi\n      0x00\n      dup1\n      revert\n    tag_75:\n        /* \"contracts/CarreraCoches/main.sol\":2232:2241  randNonce */\n      0x01\n      0x00\n        /* \"contracts/CarreraCoches/main.sol\":2232:2243  randNonce++ */\n      dup2\n      sload\n      dup1\n      swap3\n      swap2\n      swap1\n      tag_76\n      swap1\n      tag_70\n      jump\t// in\n    tag_76:\n      swap2\n      swap1\n      pop\n      sstore\n      pop\n        /* \"contracts/CarreraCoches/main.sol\":2290:2303  uint256 rival */\n      0x00\n        /* \"contracts/CarreraCoches/main.sol\":2393:2404  listaCoches */\n      0x04\n        /* \"contracts/CarreraCoches/main.sol\":2393:2411  listaCoches.length */\n      dup1\n      sload\n      swap1\n      pop\n        /* \"contracts/CarreraCoches/main.sol\":2341:2356  block.timestamp */\n      timestamp\n        /* \"contracts/CarreraCoches/main.sol\":2358:2369  listaCoches */\n      0x04\n        /* \"contracts/CarreraCoches/main.sol\":2358:2376  listaCoches.length */\n      dup1\n      sload\n      swap1\n      pop\n        /* \"contracts/CarreraCoches/main.sol\":2378:2387  randNonce */\n      sload(0x01)\n        /* \"contracts/CarreraCoches/main.sol\":2324:2388  abi.encodePacked(block.timestamp, listaCoches.length, randNonce) */\n      add(0x20, mload(0x40))\n      tag_77\n      swap4\n      swap3\n      swap2\n      swap1\n      tag_78\n      jump\t// in\n    tag_77:\n      mload(0x40)\n      0x20\n      dup2\n      dup4\n      sub\n      sub\n      dup2\n      mstore\n      swap1\n      0x40\n      mstore\n        /* \"contracts/CarreraCoches/main.sol\":2314:2389  keccak256(abi.encodePacked(block.timestamp, listaCoches.length, randNonce)) */\n      dup1\n      mload\n      swap1\n      0x20\n      add\n      keccak256\n        /* \"contracts/CarreraCoches/main.sol\":2306:2390  uint256(keccak256(abi.encodePacked(block.timestamp, listaCoches.length, randNonce))) */\n      0x00\n      shr\n        /* \"contracts/CarreraCoches/main.sol\":2306:2411  uint256(keccak256(abi.encodePacked(block.timestamp, listaCoches.length, randNonce))) % listaCoches.length */\n      tag_79\n      swap2\n      swap1\n      tag_80\n      jump\t// in\n    tag_79:\n        /* \"contracts/CarreraCoches/main.sol\":2290:2411  uint256 rival = uint256(keccak256(abi.encodePacked(block.timestamp, listaCoches.length, randNonce))) % listaCoches.length */\n      swap1\n      pop\n        /* \"contracts/CarreraCoches/main.sol\":2454:2463  randNonce */\n      0x01\n      0x00\n        /* \"contracts/CarreraCoches/main.sol\":2454:2465  randNonce++ */\n      dup2\n      sload\n      dup1\n      swap3\n      swap2\n      swap1\n      tag_81\n      swap1\n      tag_70\n      jump\t// in\n    tag_81:\n      swap2\n      swap1\n      pop\n      sstore\n      pop\n        /* \"contracts/CarreraCoches/main.sol\":2476:2487  uint numero */\n      0x00\n        /* \"contracts/CarreraCoches/main.sol\":2490:2491  2 */\n      0x02\n        /* \"contracts/CarreraCoches/main.sol\":2476:2491  uint numero = 2 */\n      swap1\n      pop\n        /* \"contracts/CarreraCoches/main.sol\":2502:2517  uint256 ganador */\n      0x00\n        /* \"contracts/CarreraCoches/main.sol\":2595:2601  numero */\n      dup2\n        /* \"contracts/CarreraCoches/main.sol\":2555:2570  block.timestamp */\n      timestamp\n        /* \"contracts/CarreraCoches/main.sol\":2572:2578  numero */\n      dup4\n        /* \"contracts/CarreraCoches/main.sol\":2580:2589  randNonce */\n      sload(0x01)\n        /* \"contracts/CarreraCoches/main.sol\":2538:2590  abi.encodePacked(block.timestamp, numero, randNonce) */\n      add(0x20, mload(0x40))\n      tag_82\n      swap4\n      swap3\n      swap2\n      swap1\n      tag_78\n      jump\t// in\n    tag_82:\n      mload(0x40)\n      0x20\n      dup2\n      dup4\n      sub\n      sub\n      dup2\n      mstore\n      swap1\n      0x40\n      mstore\n        /* \"contracts/CarreraCoches/main.sol\":2528:2591  keccak256(abi.encodePacked(block.timestamp, numero, randNonce)) */\n      dup1\n      mload\n      swap1\n      0x20\n      add\n      keccak256\n        /* \"contracts/CarreraCoches/main.sol\":2520:2592  uint256(keccak256(abi.encodePacked(block.timestamp, numero, randNonce))) */\n      0x00\n      shr\n        /* \"contracts/CarreraCoches/main.sol\":2520:2601  uint256(keccak256(abi.encodePacked(block.timestamp, numero, randNonce))) % numero */\n      tag_83\n      swap2\n      swap1\n      tag_80\n      jump\t// in\n    tag_83:\n        /* \"contracts/CarreraCoches/main.sol\":2502:2601  uint256 ganador = uint256(keccak256(abi.encodePacked(block.timestamp, numero, randNonce))) % numero */\n      swap1\n      pop\n        /* \"contracts/CarreraCoches/main.sol\":2618:2624  uint i */\n      0x00\n        /* \"contracts/CarreraCoches/main.sol\":2614:3169  for(uint i = 0; i < listaCoches.length; i++){\r... */\n    tag_84:\n        /* \"contracts/CarreraCoches/main.sol\":2634:2645  listaCoches */\n      0x04\n        /* \"contracts/CarreraCoches/main.sol\":2634:2652  listaCoches.length */\n      dup1\n      sload\n      swap1\n      pop\n        /* \"contracts/CarreraCoches/main.sol\":2630:2631  i */\n      dup2\n        /* \"contracts/CarreraCoches/main.sol\":2630:2652  i < listaCoches.length */\n      lt\n        /* \"contracts/CarreraCoches/main.sol\":2614:3169  for(uint i = 0; i < listaCoches.length; i++){\r... */\n      iszero\n      tag_85\n      jumpi\n        /* \"contracts/CarreraCoches/main.sol\":2681:2711  _depositoLleno(listaCoches[i]) */\n      tag_87\n        /* \"contracts/CarreraCoches/main.sol\":2696:2707  listaCoches */\n      0x04\n        /* \"contracts/CarreraCoches/main.sol\":2708:2709  i */\n      dup3\n        /* \"contracts/CarreraCoches/main.sol\":2696:2710  listaCoches[i] */\n      dup2\n      sload\n      dup2\n      lt\n      tag_88\n      jumpi\n      tag_89\n      tag_90\n      jump\t// in\n    tag_89:\n    tag_88:\n      swap1\n      0x00\n      mstore\n      keccak256(0x00, 0x20)\n      swap1\n      0x07\n      mul\n      add\n        /* \"contracts/CarreraCoches/main.sol\":2681:2695  _depositoLleno */\n      tag_92\n        /* \"contracts/CarreraCoches/main.sol\":2681:2711  _depositoLleno(listaCoches[i]) */\n      jump\t// in\n    tag_87:\n        /* \"contracts/CarreraCoches/main.sol\":2673:2712  require(_depositoLleno(listaCoches[i])) */\n      tag_93\n      jumpi\n      0x00\n      dup1\n      revert\n    tag_93:\n        /* \"contracts/CarreraCoches/main.sol\":2745:2756  listaCoches */\n      0x04\n        /* \"contracts/CarreraCoches/main.sol\":2757:2758  i */\n      dup2\n        /* \"contracts/CarreraCoches/main.sol\":2745:2759  listaCoches[i] */\n      dup2\n      sload\n      dup2\n      lt\n      tag_94\n      jumpi\n      tag_95\n      tag_90\n      jump\t// in\n    tag_95:\n    tag_94:\n      swap1\n      0x00\n      mstore\n      keccak256(0x00, 0x20)\n      swap1\n      0x07\n      mul\n      add\n        /* \"contracts/CarreraCoches/main.sol\":2745:2768  listaCoches[i].idPiloto */\n      0x00\n      add\n      0x00\n      swap1\n      sload\n      swap1\n      0x0100\n      exp\n      swap1\n      div\n      0xffffffffffffffffffffffffffffffffffffffff\n      and\n        /* \"contracts/CarreraCoches/main.sol\":2731:2768  msg.sender == listaCoches[i].idPiloto */\n      0xffffffffffffffffffffffffffffffffffffffff\n      and\n        /* \"contracts/CarreraCoches/main.sol\":2731:2741  msg.sender */\n      caller\n        /* \"contracts/CarreraCoches/main.sol\":2731:2768  msg.sender == listaCoches[i].idPiloto */\n      0xffffffffffffffffffffffffffffffffffffffff\n      and\n      eq\n        /* \"contracts/CarreraCoches/main.sol\":2727:3158  if (msg.sender == listaCoches[i].idPiloto) {\r... */\n      iszero\n      tag_97\n      jumpi\n        /* \"contracts/CarreraCoches/main.sol\":2803:2804  0 */\n      0x00\n        /* \"contracts/CarreraCoches/main.sol\":2792:2799  ganador */\n      dup3\n        /* \"contracts/CarreraCoches/main.sol\":2792:2804  ganador == 0 */\n      eq\n        /* \"contracts/CarreraCoches/main.sol\":2789:3054  if(ganador == 0){\r... */\n      iszero\n      tag_98\n      jumpi\n        /* \"contracts/CarreraCoches/main.sol\":2828:2837  balance() */\n      tag_99\n        /* \"contracts/CarreraCoches/main.sol\":2828:2835  balance */\n      tag_100\n        /* \"contracts/CarreraCoches/main.sol\":2828:2837  balance() */\n      jump\t// in\n    tag_99:\n        /* \"contracts/CarreraCoches/main.sol\":2860:2879  return \"Has ganado\" */\n      mload(0x40)\n      dup1\n      0x40\n      add\n      0x40\n      mstore\n      dup1\n      0x0a\n      dup2\n      mstore\n      0x20\n      add\n      0x4861732067616e61646f00000000000000000000000000000000000000000000\n      dup2\n      mstore\n      pop\n      swap5\n      pop\n      pop\n      pop\n      pop\n      pop\n      jump(tag_74)\n        /* \"contracts/CarreraCoches/main.sol\":2789:3054  if(ganador == 0){\r... */\n    tag_98:\n        /* \"contracts/CarreraCoches/main.sol\":2986:3034  mostrarResultado(\"El coche ganador es: \", rival) */\n      0xa28482eec3136a2461c6c30c08f71ba279c6c51a2d9c7bea4e50d6d2632f3896\n        /* \"contracts/CarreraCoches/main.sol\":3028:3033  rival */\n      dup5\n        /* \"contracts/CarreraCoches/main.sol\":2986:3034  mostrarResultado(\"El coche ganador es: \", rival) */\n      mload(0x40)\n      tag_106\n      swap2\n      swap1\n      tag_107\n      jump\t// in\n    tag_106:\n      mload(0x40)\n      dup1\n      swap2\n      sub\n      swap1\n      log1\n        /* \"contracts/CarreraCoches/main.sol\":3068:3079  listaCoches */\n      0x04\n        /* \"contracts/CarreraCoches/main.sol\":3080:3081  i */\n      dup2\n        /* \"contracts/CarreraCoches/main.sol\":3068:3082  listaCoches[i] */\n      dup2\n      sload\n      dup2\n      lt\n      tag_108\n      jumpi\n      tag_109\n      tag_90\n      jump\t// in\n    tag_109:\n    tag_108:\n      swap1\n      0x00\n      mstore\n      keccak256(0x00, 0x20)\n      swap1\n      0x07\n      mul\n      add\n        /* \"contracts/CarreraCoches/main.sol\":3068:3098  listaCoches[i].carrerasTotales */\n      0x05\n      add\n      0x00\n        /* \"contracts/CarreraCoches/main.sol\":3068:3100  listaCoches[i].carrerasTotales++ */\n      dup2\n      sload\n      dup1\n      swap3\n      swap2\n      swap1\n      tag_111\n      swap1\n      tag_70\n      jump\t// in\n    tag_111:\n      swap2\n      swap1\n      pop\n      sstore\n      pop\n        /* \"contracts/CarreraCoches/main.sol\":3115:3142  _repostando(listaCoches[i]) */\n      tag_112\n        /* \"contracts/CarreraCoches/main.sol\":3127:3138  listaCoches */\n      0x04\n        /* \"contracts/CarreraCoches/main.sol\":3139:3140  i */\n      dup3\n        /* \"contracts/CarreraCoches/main.sol\":3127:3141  listaCoches[i] */\n      dup2\n      sload\n      dup2\n      lt\n      tag_113\n      jumpi\n      tag_114\n      tag_90\n      jump\t// in\n    tag_114:\n    tag_113:\n      swap1\n      0x00\n      mstore\n      keccak256(0x00, 0x20)\n      swap1\n      0x07\n      mul\n      add\n        /* \"contracts/CarreraCoches/main.sol\":3115:3126  _repostando */\n      tag_116\n        /* \"contracts/CarreraCoches/main.sol\":3115:3142  _repostando(listaCoches[i]) */\n      jump\t// in\n    tag_112:\n        /* \"contracts/CarreraCoches/main.sol\":2727:3158  if (msg.sender == listaCoches[i].idPiloto) {\r... */\n    tag_97:\n        /* \"contracts/CarreraCoches/main.sol\":2654:2657  i++ */\n      dup1\n      dup1\n      tag_117\n      swap1\n      tag_70\n      jump\t// in\n    tag_117:\n      swap2\n      pop\n      pop\n        /* \"contracts/CarreraCoches/main.sol\":2614:3169  for(uint i = 0; i < listaCoches.length; i++){\r... */\n      jump(tag_84)\n    tag_85:\n      pop\n        /* \"contracts/CarreraCoches/main.sol\":2166:3175  {\r... */\n      pop\n      pop\n      pop\n        /* \"contracts/CarreraCoches/main.sol\":2091:3175  function Apostar(uint dineroApostar) public payable returns(string memory) {\r... */\n    tag_74:\n      swap2\n      swap1\n      pop\n      jump\t// out\n        /* \"contracts/CarreraCoches/ownable.sol\":1720:1823  function renounceOwnership() public virtual onlyOwner {\r... */\n    tag_33:\n        /* \"contracts/CarreraCoches/ownable.sol\":1300:1312  _msgSender() */\n      tag_119\n        /* \"contracts/CarreraCoches/ownable.sol\":1300:1310  _msgSender */\n      tag_120\n        /* \"contracts/CarreraCoches/ownable.sol\":1300:1312  _msgSender() */\n      jump\t// in\n    tag_119:\n        /* \"contracts/CarreraCoches/ownable.sol\":1289:1312  owner() == _msgSender() */\n      0xffffffffffffffffffffffffffffffffffffffff\n      and\n        /* \"contracts/CarreraCoches/ownable.sol\":1289:1296  owner() */\n      tag_121\n        /* \"contracts/CarreraCoches/ownable.sol\":1289:1294  owner */\n      tag_36\n        /* \"contracts/CarreraCoches/ownable.sol\":1289:1296  owner() */\n      jump\t// in\n    tag_121:\n        /* \"contracts/CarreraCoches/ownable.sol\":1289:1312  owner() == _msgSender() */\n      0xffffffffffffffffffffffffffffffffffffffff\n      and\n      eq\n        /* \"contracts/CarreraCoches/ownable.sol\":1281:1349  require(owner() == _msgSender(), \"Ownable: caller is not the owner\") */\n      tag_122\n      jumpi\n      mload(0x40)\n      0x08c379a000000000000000000000000000000000000000000000000000000000\n      dup2\n      mstore\n      0x04\n      add\n      tag_123\n      swap1\n      tag_124\n      jump\t// in\n    tag_123:\n      mload(0x40)\n      dup1\n      swap2\n      sub\n      swap1\n      revert\n    tag_122:\n        /* \"contracts/CarreraCoches/ownable.sol\":1785:1815  _transferOwnership(address(0)) */\n      tag_126\n        /* \"contracts/CarreraCoches/ownable.sol\":1812:1813  0 */\n      0x00\n        /* \"contracts/CarreraCoches/ownable.sol\":1785:1803  _transferOwnership */\n      tag_127\n        /* \"contracts/CarreraCoches/ownable.sol\":1785:1815  _transferOwnership(address(0)) */\n      jump\t// in\n    tag_126:\n        /* \"contracts/CarreraCoches/ownable.sol\":1720:1823  function renounceOwnership() public virtual onlyOwner {\r... */\n      jump\t// out\n        /* \"contracts/CarreraCoches/ownable.sol\":1069:1156  function owner() public view virtual returns (address) {\r... */\n    tag_36:\n        /* \"contracts/CarreraCoches/ownable.sol\":1115:1122  address */\n      0x00\n        /* \"contracts/CarreraCoches/ownable.sol\":1142:1148  _owner */\n      dup1\n      0x00\n      swap1\n      sload\n      swap1\n      0x0100\n      exp\n      swap1\n      div\n      0xffffffffffffffffffffffffffffffffffffffff\n      and\n        /* \"contracts/CarreraCoches/ownable.sol\":1135:1148  return _owner */\n      swap1\n      pop\n        /* \"contracts/CarreraCoches/ownable.sol\":1069:1156  function owner() public view virtual returns (address) {\r... */\n      swap1\n      jump\t// out\n        /* \"contracts/CarreraCoches/main.sol\":514:540  Coche[] public listaCoches */\n    tag_42:\n      0x04\n      dup2\n      dup2\n      sload\n      dup2\n      lt\n      tag_129\n      jumpi\n      0x00\n      dup1\n      revert\n    tag_129:\n      swap1\n      0x00\n      mstore\n      keccak256(0x00, 0x20)\n      swap1\n      0x07\n      mul\n      add\n      0x00\n      swap2\n      pop\n      swap1\n      pop\n      dup1\n      0x00\n      add\n      0x00\n      swap1\n      sload\n      swap1\n      0x0100\n      exp\n      swap1\n      div\n      0xffffffffffffffffffffffffffffffffffffffff\n      and\n      swap1\n      dup1\n      0x01\n      add\n      dup1\n      sload\n      tag_131\n      swap1\n      tag_132\n      jump\t// in\n    tag_131:\n      dup1\n      0x1f\n      add\n      0x20\n      dup1\n      swap2\n      div\n      mul\n      0x20\n      add\n      mload(0x40)\n      swap1\n      dup2\n      add\n      0x40\n      mstore\n      dup1\n      swap3\n      swap2\n      swap1\n      dup2\n      dup2\n      mstore\n      0x20\n      add\n      dup3\n      dup1\n      sload\n      tag_133\n      swap1\n      tag_132\n      jump\t// in\n    tag_133:\n      dup1\n      iszero\n      tag_134\n      jumpi\n      dup1\n      0x1f\n      lt\n      tag_135\n      jumpi\n      0x0100\n      dup1\n      dup4\n      sload\n      div\n      mul\n      dup4\n      mstore\n      swap2\n      0x20\n      add\n      swap2\n      jump(tag_134)\n    tag_135:\n      dup3\n      add\n      swap2\n      swap1\n      0x00\n      mstore\n      keccak256(0x00, 0x20)\n      swap1\n    tag_136:\n      dup2\n      sload\n      dup2\n      mstore\n      swap1\n      0x01\n      add\n      swap1\n      0x20\n      add\n      dup1\n      dup4\n      gt\n      tag_136\n      jumpi\n      dup3\n      swap1\n      sub\n      0x1f\n      and\n      dup3\n      add\n      swap2\n    tag_134:\n      pop\n      pop\n      pop\n      pop\n      pop\n      swap1\n      dup1\n      0x02\n      add\n      dup1\n      sload\n      tag_137\n      swap1\n      tag_132\n      jump\t// in\n    tag_137:\n      dup1\n      0x1f\n      add\n      0x20\n      dup1\n      swap2\n      div\n      mul\n      0x20\n      add\n      mload(0x40)\n      swap1\n      dup2\n      add\n      0x40\n      mstore\n      dup1\n      swap3\n      swap2\n      swap1\n      dup2\n      dup2\n      mstore\n      0x20\n      add\n      dup3\n      dup1\n      sload\n      tag_138\n      swap1\n      tag_132\n      jump\t// in\n    tag_138:\n      dup1\n      iszero\n      tag_139\n      jumpi\n      dup1\n      0x1f\n      lt\n      tag_140\n      jumpi\n      0x0100\n      dup1\n      dup4\n      sload\n      div\n      mul\n      dup4\n      mstore\n      swap2\n      0x20\n      add\n      swap2\n      jump(tag_139)\n    tag_140:\n      dup3\n      add\n      swap2\n      swap1\n      0x00\n      mstore\n      keccak256(0x00, 0x20)\n      swap1\n    tag_141:\n      dup2\n      sload\n      dup2\n      mstore\n      swap1\n      0x01\n      add\n      swap1\n      0x20\n      add\n      dup1\n      dup4\n      gt\n      tag_141\n      jumpi\n      dup3\n      swap1\n      sub\n      0x1f\n      and\n      dup3\n      add\n      swap2\n    tag_139:\n      pop\n      pop\n      pop\n      pop\n      pop\n      swap1\n      dup1\n      0x03\n      add\n      dup1\n      sload\n      tag_142\n      swap1\n      tag_132\n      jump\t// in\n    tag_142:\n      dup1\n      0x1f\n      add\n      0x20\n      dup1\n      swap2\n      div\n      mul\n      0x20\n      add\n      mload(0x40)\n      swap1\n      dup2\n      add\n      0x40\n      mstore\n      dup1\n      swap3\n      swap2\n      swap1\n      dup2\n      dup2\n      mstore\n      0x20\n      add\n      dup3\n      dup1\n      sload\n      tag_143\n      swap1\n      tag_132\n      jump\t// in\n    tag_143:\n      dup1\n      iszero\n      tag_144\n      jumpi\n      dup1\n      0x1f\n      lt\n      tag_145\n      jumpi\n      0x0100\n      dup1\n      dup4\n      sload\n      div\n      mul\n      dup4\n      mstore\n      swap2\n      0x20\n      add\n      swap2\n      jump(tag_144)\n    tag_145:\n      dup3\n      add\n      swap2\n      swap1\n      0x00\n      mstore\n      keccak256(0x00, 0x20)\n      swap1\n    tag_146:\n      dup2\n      sload\n      dup2\n      mstore\n      swap1\n      0x01\n      add\n      swap1\n      0x20\n      add\n      dup1\n      dup4\n      gt\n      tag_146\n      jumpi\n      dup3\n      swap1\n      sub\n      0x1f\n      and\n      dup3\n      add\n      swap2\n    tag_144:\n      pop\n      pop\n      pop\n      pop\n      pop\n      swap1\n      dup1\n      0x04\n      add\n      sload\n      swap1\n      dup1\n      0x05\n      add\n      sload\n      swap1\n      dup1\n      0x06\n      add\n      sload\n      swap1\n      pop\n      dup8\n      jump\t// out\n        /* \"contracts/CarreraCoches/main.sol\":1854:1984  function _depositoVacio() public returns (string memory) {\r... */\n    tag_47:\n        /* \"contracts/CarreraCoches/main.sol\":1896:1909  string memory */\n      0x60\n        /* \"contracts/CarreraCoches/main.sol\":1927:1976  confirmacionDepositoLleno(\"Llenando el deposito\") */\n      0x6158fc8f21c8cc73ddf920956cc75d0e8a48b4fc85817a0ba89eb3b6d2a75441\n      mload(0x40)\n      tag_148\n      swap1\n      tag_149\n      jump\t// in\n    tag_148:\n      mload(0x40)\n      dup1\n      swap2\n      sub\n      swap1\n      log1\n        /* \"contracts/CarreraCoches/main.sol\":1854:1984  function _depositoVacio() public returns (string memory) {\r... */\n      swap1\n      jump\t// out\n        /* \"contracts/CarreraCoches/main.sol\":1627:1846  function numeroAleatorio() public returns (uint256) {\r... */\n    tag_51:\n        /* \"contracts/CarreraCoches/main.sol\":1670:1677  uint256 */\n      0x00\n        /* \"contracts/CarreraCoches/main.sol\":1690:1701  uint numero */\n      dup1\n        /* \"contracts/CarreraCoches/main.sol\":1704:1705  2 */\n      0x02\n        /* \"contracts/CarreraCoches/main.sol\":1690:1705  uint numero = 2 */\n      swap1\n      pop\n        /* \"contracts/CarreraCoches/main.sol\":1716:1730  uint256 result */\n      0x00\n        /* \"contracts/CarreraCoches/main.sol\":1808:1814  numero */\n      dup2\n        /* \"contracts/CarreraCoches/main.sol\":1768:1783  block.timestamp */\n      timestamp\n        /* \"contracts/CarreraCoches/main.sol\":1785:1791  numero */\n      dup4\n        /* \"contracts/CarreraCoches/main.sol\":1793:1802  randNonce */\n      sload(0x01)\n        /* \"contracts/CarreraCoches/main.sol\":1751:1803  abi.encodePacked(block.timestamp, numero, randNonce) */\n      add(0x20, mload(0x40))\n      tag_151\n      swap4\n      swap3\n      swap2\n      swap1\n      tag_78\n      jump\t// in\n    tag_151:\n      mload(0x40)\n      0x20\n      dup2\n      dup4\n      sub\n      sub\n      dup2\n      mstore\n      swap1\n      0x40\n      mstore\n        /* \"contracts/CarreraCoches/main.sol\":1741:1804  keccak256(abi.encodePacked(block.timestamp, numero, randNonce)) */\n      dup1\n      mload\n      swap1\n      0x20\n      add\n      keccak256\n        /* \"contracts/CarreraCoches/main.sol\":1733:1805  uint256(keccak256(abi.encodePacked(block.timestamp, numero, randNonce))) */\n      0x00\n      shr\n        /* \"contracts/CarreraCoches/main.sol\":1733:1814  uint256(keccak256(abi.encodePacked(block.timestamp, numero, randNonce))) % numero */\n      tag_152\n      swap2\n      swap1\n      tag_80\n      jump\t// in\n    tag_152:\n        /* \"contracts/CarreraCoches/main.sol\":1716:1814  uint256 result = uint256(keccak256(abi.encodePacked(block.timestamp, numero, randNonce))) % numero */\n      swap1\n      pop\n        /* \"contracts/CarreraCoches/main.sol\":1832:1838  result */\n      dup1\n        /* \"contracts/CarreraCoches/main.sol\":1825:1838  return result */\n      swap3\n      pop\n      pop\n      pop\n        /* \"contracts/CarreraCoches/main.sol\":1627:1846  function numeroAleatorio() public returns (uint256) {\r... */\n      swap1\n      jump\t// out\n        /* \"contracts/CarreraCoches/ownable.sol\":1978:2179  function transferOwnership(address newOwner) public virtual onlyOwner {\r... */\n    tag_56:\n        /* \"contracts/CarreraCoches/ownable.sol\":1300:1312  _msgSender() */\n      tag_154\n        /* \"contracts/CarreraCoches/ownable.sol\":1300:1310  _msgSender */\n      tag_120\n        /* \"contracts/CarreraCoches/ownable.sol\":1300:1312  _msgSender() */\n      jump\t// in\n    tag_154:\n        /* \"contracts/CarreraCoches/ownable.sol\":1289:1312  owner() == _msgSender() */\n      0xffffffffffffffffffffffffffffffffffffffff\n      and\n        /* \"contracts/CarreraCoches/ownable.sol\":1289:1296  owner() */\n      tag_155\n        /* \"contracts/CarreraCoches/ownable.sol\":1289:1294  owner */\n      tag_36\n        /* \"contracts/CarreraCoches/ownable.sol\":1289:1296  owner() */\n      jump\t// in\n    tag_155:\n        /* \"contracts/CarreraCoches/ownable.sol\":1289:1312  owner() == _msgSender() */\n      0xffffffffffffffffffffffffffffffffffffffff\n      and\n      eq\n        /* \"contracts/CarreraCoches/ownable.sol\":1281:1349  require(owner() == _msgSender(), \"Ownable: caller is not the owner\") */\n      tag_156\n      jumpi\n      mload(0x40)\n      0x08c379a000000000000000000000000000000000000000000000000000000000\n      dup2\n      mstore\n      0x04\n      add\n      tag_157\n      swap1\n      tag_124\n      jump\t// in\n    tag_157:\n      mload(0x40)\n      dup1\n      swap2\n      sub\n      swap1\n      revert\n    tag_156:\n        /* \"contracts/CarreraCoches/ownable.sol\":2087:2088  0 */\n      0x00\n        /* \"contracts/CarreraCoches/ownable.sol\":2067:2089  newOwner != address(0) */\n      0xffffffffffffffffffffffffffffffffffffffff\n      and\n        /* \"contracts/CarreraCoches/ownable.sol\":2067:2075  newOwner */\n      dup2\n        /* \"contracts/CarreraCoches/ownable.sol\":2067:2089  newOwner != address(0) */\n      0xffffffffffffffffffffffffffffffffffffffff\n      and\n      eq\n      iszero\n        /* \"contracts/CarreraCoches/ownable.sol\":2059:2132  require(newOwner != address(0), \"Ownable: new owner is the zero address\") */\n      tag_159\n      jumpi\n      mload(0x40)\n      0x08c379a000000000000000000000000000000000000000000000000000000000\n      dup2\n      mstore\n      0x04\n      add\n      tag_160\n      swap1\n      tag_161\n      jump\t// in\n    tag_160:\n      mload(0x40)\n      dup1\n      swap2\n      sub\n      swap1\n      revert\n    tag_159:\n        /* \"contracts/CarreraCoches/ownable.sol\":2143:2171  _transferOwnership(newOwner) */\n      tag_162\n        /* \"contracts/CarreraCoches/ownable.sol\":2162:2170  newOwner */\n      dup2\n        /* \"contracts/CarreraCoches/ownable.sol\":2143:2161  _transferOwnership */\n      tag_127\n        /* \"contracts/CarreraCoches/ownable.sol\":2143:2171  _transferOwnership(newOwner) */\n      jump\t// in\n    tag_162:\n        /* \"contracts/CarreraCoches/ownable.sol\":1978:2179  function transferOwnership(address newOwner) public virtual onlyOwner {\r... */\n      pop\n      jump\t// out\n        /* \"contracts/CarreraCoches/main.sol\":1478:1617  function _depositoLleno(Coche storage _coche) internal view returns (bool) {\r... */\n    tag_92:\n        /* \"contracts/CarreraCoches/main.sol\":1547:1551  bool */\n      0x00\n        /* \"contracts/CarreraCoches/main.sol\":1594:1609  block.timestamp */\n      timestamp\n        /* \"contracts/CarreraCoches/main.sol\":1571:1577  _coche */\n      dup3\n        /* \"contracts/CarreraCoches/main.sol\":1571:1590  _coche.tiempoEspera */\n      0x06\n      add\n      sload\n        /* \"contracts/CarreraCoches/main.sol\":1571:1609  _coche.tiempoEspera <= block.timestamp */\n      gt\n      iszero\n        /* \"contracts/CarreraCoches/main.sol\":1564:1609  return _coche.tiempoEspera <= block.timestamp */\n      swap1\n      pop\n        /* \"contracts/CarreraCoches/main.sol\":1478:1617  function _depositoLleno(Coche storage _coche) internal view returns (bool) {\r... */\n      swap2\n      swap1\n      pop\n      jump\t// out\n        /* \"contracts/CarreraCoches/main.sol\":3232:3330  function balance() private {\r... */\n    tag_100:\n        /* \"contracts/CarreraCoches/main.sol\":3279:3289  msg.sender */\n      caller\n        /* \"contracts/CarreraCoches/main.sol\":3270:3299  payable (msg.sender).transfer */\n      0xffffffffffffffffffffffffffffffffffffffff\n      and\n        /* \"contracts/CarreraCoches/main.sol\":3270:3322  payable (msg.sender).transfer(address(this).balance) */\n      0x08fc\n        /* \"contracts/CarreraCoches/main.sol\":3300:3321  address(this).balance */\n      selfbalance\n        /* \"contracts/CarreraCoches/main.sol\":3270:3322  payable (msg.sender).transfer(address(this).balance) */\n      swap1\n      dup2\n      iszero\n      mul\n      swap1\n      mload(0x40)\n      0x00\n      mload(0x40)\n      dup1\n      dup4\n      sub\n      dup2\n      dup6\n      dup9\n      dup9\n      call\n      swap4\n      pop\n      pop\n      pop\n      pop\n      iszero\n      dup1\n      iszero\n      tag_166\n      jumpi\n      returndatasize\n      0x00\n      dup1\n      returndatacopy\n      revert(0x00, returndatasize)\n    tag_166:\n      pop\n        /* \"contracts/CarreraCoches/main.sol\":3232:3330  function balance() private {\r... */\n      jump\t// out\n        /* \"contracts/CarreraCoches/main.sol\":1325:1452  function _repostando(Coche storage _coche) internal {\r... */\n    tag_116:\n        /* \"contracts/CarreraCoches/main.sol\":1435:1443  cooldown */\n      sload(0x03)\n        /* \"contracts/CarreraCoches/main.sol\":1417:1432  block.timestamp */\n      timestamp\n        /* \"contracts/CarreraCoches/main.sol\":1417:1443  block.timestamp + cooldown */\n      tag_168\n      swap2\n      swap1\n      tag_63\n      jump\t// in\n    tag_168:\n        /* \"contracts/CarreraCoches/main.sol\":1388:1444  _coche.tiempoEspera = uint32(block.timestamp + cooldown) */\n      0xffffffff\n      and\n        /* \"contracts/CarreraCoches/main.sol\":1388:1394  _coche */\n      dup2\n        /* \"contracts/CarreraCoches/main.sol\":1388:1407  _coche.tiempoEspera */\n      0x06\n      add\n        /* \"contracts/CarreraCoches/main.sol\":1388:1444  _coche.tiempoEspera = uint32(block.timestamp + cooldown) */\n      dup2\n      swap1\n      sstore\n      pop\n        /* \"contracts/CarreraCoches/main.sol\":1325:1452  function _repostando(Coche storage _coche) internal {\r... */\n      pop\n      jump\t// out\n        /* \"contracts/CarreraCoches/utils/Context.sol\":656:754  function _msgSender() internal view virtual returns (address) {\r... */\n    tag_120:\n        /* \"contracts/CarreraCoches/utils/Context.sol\":709:716  address */\n      0x00\n        /* \"contracts/CarreraCoches/utils/Context.sol\":736:746  msg.sender */\n      caller\n        /* \"contracts/CarreraCoches/utils/Context.sol\":729:746  return msg.sender */\n      swap1\n      pop\n        /* \"contracts/CarreraCoches/utils/Context.sol\":656:754  function _msgSender() internal view virtual returns (address) {\r... */\n      swap1\n      jump\t// out\n        /* \"contracts/CarreraCoches/ownable.sol\":2339:2530  function _transferOwnership(address newOwner) internal virtual {\r... */\n    tag_127:\n        /* \"contracts/CarreraCoches/ownable.sol\":2413:2429  address oldOwner */\n      0x00\n        /* \"contracts/CarreraCoches/ownable.sol\":2432:2438  _owner */\n      dup1\n      0x00\n      swap1\n      sload\n      swap1\n      0x0100\n      exp\n      swap1\n      div\n      0xffffffffffffffffffffffffffffffffffffffff\n      and\n        /* \"contracts/CarreraCoches/ownable.sol\":2413:2438  address oldOwner = _owner */\n      swap1\n      pop\n        /* \"contracts/CarreraCoches/ownable.sol\":2458:2466  newOwner */\n      dup2\n        /* \"contracts/CarreraCoches/ownable.sol\":2449:2455  _owner */\n      0x00\n      dup1\n        /* \"contracts/CarreraCoches/ownable.sol\":2449:2466  _owner = newOwner */\n      0x0100\n      exp\n      dup2\n      sload\n      dup2\n      0xffffffffffffffffffffffffffffffffffffffff\n      mul\n      not\n      and\n      swap1\n      dup4\n      0xffffffffffffffffffffffffffffffffffffffff\n      and\n      mul\n      or\n      swap1\n      sstore\n      pop\n        /* \"contracts/CarreraCoches/ownable.sol\":2513:2521  newOwner */\n      dup2\n        /* \"contracts/CarreraCoches/ownable.sol\":2482:2522  OwnershipTransferred(oldOwner, newOwner) */\n      0xffffffffffffffffffffffffffffffffffffffff\n      and\n        /* \"contracts/CarreraCoches/ownable.sol\":2503:2511  oldOwner */\n      dup2\n        /* \"contracts/CarreraCoches/ownable.sol\":2482:2522  OwnershipTransferred(oldOwner, newOwner) */\n      0xffffffffffffffffffffffffffffffffffffffff\n      and\n      0x8be0079c531659141344cd1fd0a4f28419497f9722a3daafe3b4186f6b6457e0\n      mload(0x40)\n      mload(0x40)\n      dup1\n      swap2\n      sub\n      swap1\n      log3\n        /* \"contracts/CarreraCoches/ownable.sol\":2402:2530  {\r... */\n      pop\n        /* \"contracts/CarreraCoches/ownable.sol\":2339:2530  function _transferOwnership(address newOwner) internal virtual {\r... */\n      pop\n      jump\t// out\n    tag_66:\n      dup3\n      dup1\n      sload\n      tag_171\n      swap1\n      tag_132\n      jump\t// in\n    tag_171:\n      swap1\n      0x00\n      mstore\n      keccak256(0x00, 0x20)\n      swap1\n      0x1f\n      add\n      0x20\n      swap1\n      div\n      dup2\n      add\n      swap3\n      dup3\n      tag_173\n      jumpi\n      0x00\n      dup6\n      sstore\n      jump(tag_172)\n    tag_173:\n      dup3\n      0x1f\n      lt\n      tag_174\n      jumpi\n      dup1\n      mload\n      not(0xff)\n      and\n      dup4\n      dup1\n      add\n      or\n      dup6\n      sstore\n      jump(tag_172)\n    tag_174:\n      dup3\n      dup1\n      add\n      0x01\n      add\n      dup6\n      sstore\n      dup3\n      iszero\n      tag_172\n      jumpi\n      swap2\n      dup3\n      add\n    tag_175:\n      dup3\n      dup2\n      gt\n      iszero\n      tag_176\n      jumpi\n      dup3\n      mload\n      dup3\n      sstore\n      swap2\n      0x20\n      add\n      swap2\n      swap1\n      0x01\n      add\n      swap1\n      jump(tag_175)\n    tag_176:\n    tag_172:\n      pop\n      swap1\n      pop\n      tag_177\n      swap2\n      swap1\n      tag_178\n      jump\t// in\n    tag_177:\n      pop\n      swap1\n      jump\t// out\n    tag_178:\n    tag_179:\n      dup1\n      dup3\n      gt\n      iszero\n      tag_180\n      jumpi\n      0x00\n      dup2\n      0x00\n      swap1\n      sstore\n      pop\n      0x01\n      add\n      jump(tag_179)\n    tag_180:\n      pop\n      swap1\n      jump\t// out\n        /* \"#utility.yul\":7:419   */\n    tag_182:\n        /* \"#utility.yul\":85:90   */\n      0x00\n        /* \"#utility.yul\":110:176   */\n      tag_184\n        /* \"#utility.yul\":126:175   */\n      tag_185\n        /* \"#utility.yul\":168:174   */\n      dup5\n        /* \"#utility.yul\":126:175   */\n      tag_186\n      jump\t// in\n    tag_185:\n        /* \"#utility.yul\":110:176   */\n      tag_187\n      jump\t// in\n    tag_184:\n        /* \"#utility.yul\":101:176   */\n      swap1\n      pop\n        /* \"#utility.yul\":199:205   */\n      dup3\n        /* \"#utility.yul\":192:197   */\n      dup2\n        /* \"#utility.yul\":185:206   */\n      mstore\n        /* \"#utility.yul\":237:241   */\n      0x20\n        /* \"#utility.yul\":230:235   */\n      dup2\n        /* \"#utility.yul\":226:242   */\n      add\n        /* \"#utility.yul\":275:278   */\n      dup5\n        /* \"#utility.yul\":266:272   */\n      dup5\n        /* \"#utility.yul\":261:264   */\n      dup5\n        /* \"#utility.yul\":257:273   */\n      add\n        /* \"#utility.yul\":254:279   */\n      gt\n        /* \"#utility.yul\":251:363   */\n      iszero\n      tag_188\n      jumpi\n        /* \"#utility.yul\":282:361   */\n      tag_189\n      tag_190\n      jump\t// in\n    tag_189:\n        /* \"#utility.yul\":251:363   */\n    tag_188:\n        /* \"#utility.yul\":372:413   */\n      tag_191\n        /* \"#utility.yul\":406:412   */\n      dup5\n        /* \"#utility.yul\":401:404   */\n      dup3\n        /* \"#utility.yul\":396:399   */\n      dup6\n        /* \"#utility.yul\":372:413   */\n      tag_192\n      jump\t// in\n    tag_191:\n        /* \"#utility.yul\":91:419   */\n      pop\n        /* \"#utility.yul\":7:419   */\n      swap4\n      swap3\n      pop\n      pop\n      pop\n      jump\t// out\n        /* \"#utility.yul\":425:564   */\n    tag_193:\n        /* \"#utility.yul\":471:476   */\n      0x00\n        /* \"#utility.yul\":509:515   */\n      dup2\n        /* \"#utility.yul\":496:516   */\n      calldataload\n        /* \"#utility.yul\":487:516   */\n      swap1\n      pop\n        /* \"#utility.yul\":525:558   */\n      tag_195\n        /* \"#utility.yul\":552:557   */\n      dup2\n        /* \"#utility.yul\":525:558   */\n      tag_196\n      jump\t// in\n    tag_195:\n        /* \"#utility.yul\":425:564   */\n      swap3\n      swap2\n      pop\n      pop\n      jump\t// out\n        /* \"#utility.yul\":584:924   */\n    tag_197:\n        /* \"#utility.yul\":640:645   */\n      0x00\n        /* \"#utility.yul\":689:692   */\n      dup3\n        /* \"#utility.yul\":682:686   */\n      0x1f\n        /* \"#utility.yul\":674:680   */\n      dup4\n        /* \"#utility.yul\":670:687   */\n      add\n        /* \"#utility.yul\":666:693   */\n      slt\n        /* \"#utility.yul\":656:778   */\n      tag_199\n      jumpi\n        /* \"#utility.yul\":697:776   */\n      tag_200\n      tag_201\n      jump\t// in\n    tag_200:\n        /* \"#utility.yul\":656:778   */\n    tag_199:\n        /* \"#utility.yul\":814:820   */\n      dup2\n        /* \"#utility.yul\":801:821   */\n      calldataload\n        /* \"#utility.yul\":839:918   */\n      tag_202\n        /* \"#utility.yul\":914:917   */\n      dup5\n        /* \"#utility.yul\":906:912   */\n      dup3\n        /* \"#utility.yul\":899:903   */\n      0x20\n        /* \"#utility.yul\":891:897   */\n      dup7\n        /* \"#utility.yul\":887:904   */\n      add\n        /* \"#utility.yul\":839:918   */\n      tag_182\n      jump\t// in\n    tag_202:\n        /* \"#utility.yul\":830:918   */\n      swap2\n      pop\n        /* \"#utility.yul\":646:924   */\n      pop\n        /* \"#utility.yul\":584:924   */\n      swap3\n      swap2\n      pop\n      pop\n      jump\t// out\n        /* \"#utility.yul\":930:1069   */\n    tag_203:\n        /* \"#utility.yul\":976:981   */\n      0x00\n        /* \"#utility.yul\":1014:1020   */\n      dup2\n        /* \"#utility.yul\":1001:1021   */\n      calldataload\n        /* \"#utility.yul\":992:1021   */\n      swap1\n      pop\n        /* \"#utility.yul\":1030:1063   */\n      tag_205\n        /* \"#utility.yul\":1057:1062   */\n      dup2\n        /* \"#utility.yul\":1030:1063   */\n      tag_206\n      jump\t// in\n    tag_205:\n        /* \"#utility.yul\":930:1069   */\n      swap3\n      swap2\n      pop\n      pop\n      jump\t// out\n        /* \"#utility.yul\":1075:1404   */\n    tag_15:\n        /* \"#utility.yul\":1134:1140   */\n      0x00\n        /* \"#utility.yul\":1183:1185   */\n      0x20\n        /* \"#utility.yul\":1171:1180   */\n      dup3\n        /* \"#utility.yul\":1162:1169   */\n      dup5\n        /* \"#utility.yul\":1158:1181   */\n      sub\n        /* \"#utility.yul\":1154:1186   */\n      slt\n        /* \"#utility.yul\":1151:1270   */\n      iszero\n      tag_208\n      jumpi\n        /* \"#utility.yul\":1189:1268   */\n      tag_209\n      tag_210\n      jump\t// in\n    tag_209:\n        /* \"#utility.yul\":1151:1270   */\n    tag_208:\n        /* \"#utility.yul\":1309:1310   */\n      0x00\n        /* \"#utility.yul\":1334:1387   */\n      tag_211\n        /* \"#utility.yul\":1379:1386   */\n      dup5\n        /* \"#utility.yul\":1370:1376   */\n      dup3\n        /* \"#utility.yul\":1359:1368   */\n      dup6\n        /* \"#utility.yul\":1355:1377   */\n      add\n        /* \"#utility.yul\":1334:1387   */\n      tag_193\n      jump\t// in\n    tag_211:\n        /* \"#utility.yul\":1324:1387   */\n      swap2\n      pop\n        /* \"#utility.yul\":1280:1397   */\n      pop\n        /* \"#utility.yul\":1075:1404   */\n      swap3\n      swap2\n      pop\n      pop\n      jump\t// out\n        /* \"#utility.yul\":1410:2569   */\n    tag_22:\n        /* \"#utility.yul\":1517:1523   */\n      0x00\n        /* \"#utility.yul\":1525:1531   */\n      dup1\n        /* \"#utility.yul\":1533:1539   */\n      0x00\n        /* \"#utility.yul\":1582:1584   */\n      0x60\n        /* \"#utility.yul\":1570:1579   */\n      dup5\n        /* \"#utility.yul\":1561:1568   */\n      dup7\n        /* \"#utility.yul\":1557:1580   */\n      sub\n        /* \"#utility.yul\":1553:1585   */\n      slt\n        /* \"#utility.yul\":1550:1669   */\n      iszero\n      tag_213\n      jumpi\n        /* \"#utility.yul\":1588:1667   */\n      tag_214\n      tag_210\n      jump\t// in\n    tag_214:\n        /* \"#utility.yul\":1550:1669   */\n    tag_213:\n        /* \"#utility.yul\":1736:1737   */\n      0x00\n        /* \"#utility.yul\":1725:1734   */\n      dup5\n        /* \"#utility.yul\":1721:1738   */\n      add\n        /* \"#utility.yul\":1708:1739   */\n      calldataload\n        /* \"#utility.yul\":1766:1784   */\n      0xffffffffffffffff\n        /* \"#utility.yul\":1758:1764   */\n      dup2\n        /* \"#utility.yul\":1755:1785   */\n      gt\n        /* \"#utility.yul\":1752:1869   */\n      iszero\n      tag_215\n      jumpi\n        /* \"#utility.yul\":1788:1867   */\n      tag_216\n      tag_217\n      jump\t// in\n    tag_216:\n        /* \"#utility.yul\":1752:1869   */\n    tag_215:\n        /* \"#utility.yul\":1893:1956   */\n      tag_218\n        /* \"#utility.yul\":1948:1955   */\n      dup7\n        /* \"#utility.yul\":1939:1945   */\n      dup3\n        /* \"#utility.yul\":1928:1937   */\n      dup8\n        /* \"#utility.yul\":1924:1946   */\n      add\n        /* \"#utility.yul\":1893:1956   */\n      tag_197\n      jump\t// in\n    tag_218:\n        /* \"#utility.yul\":1883:1956   */\n      swap4\n      pop\n        /* \"#utility.yul\":1679:1966   */\n      pop\n        /* \"#utility.yul\":2033:2035   */\n      0x20\n        /* \"#utility.yul\":2022:2031   */\n      dup5\n        /* \"#utility.yul\":2018:2036   */\n      add\n        /* \"#utility.yul\":2005:2037   */\n      calldataload\n        /* \"#utility.yul\":2064:2082   */\n      0xffffffffffffffff\n        /* \"#utility.yul\":2056:2062   */\n      dup2\n        /* \"#utility.yul\":2053:2083   */\n      gt\n        /* \"#utility.yul\":2050:2167   */\n      iszero\n      tag_219\n      jumpi\n        /* \"#utility.yul\":2086:2165   */\n      tag_220\n      tag_217\n      jump\t// in\n    tag_220:\n        /* \"#utility.yul\":2050:2167   */\n    tag_219:\n        /* \"#utility.yul\":2191:2254   */\n      tag_221\n        /* \"#utility.yul\":2246:2253   */\n      dup7\n        /* \"#utility.yul\":2237:2243   */\n      dup3\n        /* \"#utility.yul\":2226:2235   */\n      dup8\n        /* \"#utility.yul\":2222:2244   */\n      add\n        /* \"#utility.yul\":2191:2254   */\n      tag_197\n      jump\t// in\n    tag_221:\n        /* \"#utility.yul\":2181:2254   */\n      swap3\n      pop\n        /* \"#utility.yul\":1976:2264   */\n      pop\n        /* \"#utility.yul\":2331:2333   */\n      0x40\n        /* \"#utility.yul\":2320:2329   */\n      dup5\n        /* \"#utility.yul\":2316:2334   */\n      add\n        /* \"#utility.yul\":2303:2335   */\n      calldataload\n        /* \"#utility.yul\":2362:2380   */\n      0xffffffffffffffff\n        /* \"#utility.yul\":2354:2360   */\n      dup2\n        /* \"#utility.yul\":2351:2381   */\n      gt\n        /* \"#utility.yul\":2348:2465   */\n      iszero\n      tag_222\n      jumpi\n        /* \"#utility.yul\":2384:2463   */\n      tag_223\n      tag_217\n      jump\t// in\n    tag_223:\n        /* \"#utility.yul\":2348:2465   */\n    tag_222:\n        /* \"#utility.yul\":2489:2552   */\n      tag_224\n        /* \"#utility.yul\":2544:2551   */\n      dup7\n        /* \"#utility.yul\":2535:2541   */\n      dup3\n        /* \"#utility.yul\":2524:2533   */\n      dup8\n        /* \"#utility.yul\":2520:2542   */\n      add\n        /* \"#utility.yul\":2489:2552   */\n      tag_197\n      jump\t// in\n    tag_224:\n        /* \"#utility.yul\":2479:2552   */\n      swap2\n      pop\n        /* \"#utility.yul\":2274:2562   */\n      pop\n        /* \"#utility.yul\":1410:2569   */\n      swap3\n      pop\n      swap3\n      pop\n      swap3\n      jump\t// out\n        /* \"#utility.yul\":2575:2904   */\n    tag_27:\n        /* \"#utility.yul\":2634:2640   */\n      0x00\n        /* \"#utility.yul\":2683:2685   */\n      0x20\n        /* \"#utility.yul\":2671:2680   */\n      dup3\n        /* \"#utility.yul\":2662:2669   */\n      dup5\n        /* \"#utility.yul\":2658:2681   */\n      sub\n        /* \"#utility.yul\":2654:2686   */\n      slt\n        /* \"#utility.yul\":2651:2770   */\n      iszero\n      tag_226\n      jumpi\n        /* \"#utility.yul\":2689:2768   */\n      tag_227\n      tag_210\n      jump\t// in\n    tag_227:\n        /* \"#utility.yul\":2651:2770   */\n    tag_226:\n        /* \"#utility.yul\":2809:2810   */\n      0x00\n        /* \"#utility.yul\":2834:2887   */\n      tag_228\n        /* \"#utility.yul\":2879:2886   */\n      dup5\n        /* \"#utility.yul\":2870:2876   */\n      dup3\n        /* \"#utility.yul\":2859:2868   */\n      dup6\n        /* \"#utility.yul\":2855:2877   */\n      add\n        /* \"#utility.yul\":2834:2887   */\n      tag_203\n      jump\t// in\n    tag_228:\n        /* \"#utility.yul\":2824:2887   */\n      swap2\n      pop\n        /* \"#utility.yul\":2780:2897   */\n      pop\n        /* \"#utility.yul\":2575:2904   */\n      swap3\n      swap2\n      pop\n      pop\n      jump\t// out\n        /* \"#utility.yul\":2910:3028   */\n    tag_229:\n        /* \"#utility.yul\":2997:3021   */\n      tag_231\n        /* \"#utility.yul\":3015:3020   */\n      dup2\n        /* \"#utility.yul\":2997:3021   */\n      tag_232\n      jump\t// in\n    tag_231:\n        /* \"#utility.yul\":2992:2995   */\n      dup3\n        /* \"#utility.yul\":2985:3022   */\n      mstore\n        /* \"#utility.yul\":2910:3028   */\n      pop\n      pop\n      jump\t// out\n        /* \"#utility.yul\":3034:3398   */\n    tag_233:\n        /* \"#utility.yul\":3122:3125   */\n      0x00\n        /* \"#utility.yul\":3150:3189   */\n      tag_235\n        /* \"#utility.yul\":3183:3188   */\n      dup3\n        /* \"#utility.yul\":3150:3189   */\n      tag_236\n      jump\t// in\n    tag_235:\n        /* \"#utility.yul\":3205:3276   */\n      tag_237\n        /* \"#utility.yul\":3269:3275   */\n      dup2\n        /* \"#utility.yul\":3264:3267   */\n      dup6\n        /* \"#utility.yul\":3205:3276   */\n      tag_238\n      jump\t// in\n    tag_237:\n        /* \"#utility.yul\":3198:3276   */\n      swap4\n      pop\n        /* \"#utility.yul\":3285:3337   */\n      tag_239\n        /* \"#utility.yul\":3330:3336   */\n      dup2\n        /* \"#utility.yul\":3325:3328   */\n      dup6\n        /* \"#utility.yul\":3318:3322   */\n      0x20\n        /* \"#utility.yul\":3311:3316   */\n      dup7\n        /* \"#utility.yul\":3307:3323   */\n      add\n        /* \"#utility.yul\":3285:3337   */\n      tag_240\n      jump\t// in\n    tag_239:\n        /* \"#utility.yul\":3362:3391   */\n      tag_241\n        /* \"#utility.yul\":3384:3390   */\n      dup2\n        /* \"#utility.yul\":3362:3391   */\n      tag_242\n      jump\t// in\n    tag_241:\n        /* \"#utility.yul\":3357:3360   */\n      dup5\n        /* \"#utility.yul\":3353:3392   */\n      add\n        /* \"#utility.yul\":3346:3392   */\n      swap2\n      pop\n        /* \"#utility.yul\":3126:3398   */\n      pop\n        /* \"#utility.yul\":3034:3398   */\n      swap3\n      swap2\n      pop\n      pop\n      jump\t// out\n        /* \"#utility.yul\":3404:3770   */\n    tag_243:\n        /* \"#utility.yul\":3546:3549   */\n      0x00\n        /* \"#utility.yul\":3567:3634   */\n      tag_245\n        /* \"#utility.yul\":3631:3633   */\n      0x28\n        /* \"#utility.yul\":3626:3629   */\n      dup4\n        /* \"#utility.yul\":3567:3634   */\n      tag_238\n      jump\t// in\n    tag_245:\n        /* \"#utility.yul\":3560:3634   */\n      swap2\n      pop\n        /* \"#utility.yul\":3643:3736   */\n      tag_246\n        /* \"#utility.yul\":3732:3735   */\n      dup3\n        /* \"#utility.yul\":3643:3736   */\n      tag_247\n      jump\t// in\n    tag_246:\n        /* \"#utility.yul\":3761:3763   */\n      0x40\n        /* \"#utility.yul\":3756:3759   */\n      dup3\n        /* \"#utility.yul\":3752:3764   */\n      add\n        /* \"#utility.yul\":3745:3764   */\n      swap1\n      pop\n        /* \"#utility.yul\":3404:3770   */\n      swap2\n      swap1\n      pop\n      jump\t// out\n        /* \"#utility.yul\":3776:4142   */\n    tag_248:\n        /* \"#utility.yul\":3918:3921   */\n      0x00\n        /* \"#utility.yul\":3939:4006   */\n      tag_250\n        /* \"#utility.yul\":4003:4005   */\n      0x26\n        /* \"#utility.yul\":3998:4001   */\n      dup4\n        /* \"#utility.yul\":3939:4006   */\n      tag_238\n      jump\t// in\n    tag_250:\n        /* \"#utility.yul\":3932:4006   */\n      swap2\n      pop\n        /* \"#utility.yul\":4015:4108   */\n      tag_251\n        /* \"#utility.yul\":4104:4107   */\n      dup3\n        /* \"#utility.yul\":4015:4108   */\n      tag_252\n      jump\t// in\n    tag_251:\n        /* \"#utility.yul\":4133:4135   */\n      0x40\n        /* \"#utility.yul\":4128:4131   */\n      dup3\n        /* \"#utility.yul\":4124:4136   */\n      add\n        /* \"#utility.yul\":4117:4136   */\n      swap1\n      pop\n        /* \"#utility.yul\":3776:4142   */\n      swap2\n      swap1\n      pop\n      jump\t// out\n        /* \"#utility.yul\":4148:4514   */\n    tag_253:\n        /* \"#utility.yul\":4290:4293   */\n      0x00\n        /* \"#utility.yul\":4311:4378   */\n      tag_255\n        /* \"#utility.yul\":4375:4377   */\n      0x20\n        /* \"#utility.yul\":4370:4373   */\n      dup4\n        /* \"#utility.yul\":4311:4378   */\n      tag_238\n      jump\t// in\n    tag_255:\n        /* \"#utility.yul\":4304:4378   */\n      swap2\n      pop\n        /* \"#utility.yul\":4387:4480   */\n      tag_256\n        /* \"#utility.yul\":4476:4479   */\n      dup3\n        /* \"#utility.yul\":4387:4480   */\n      tag_257\n      jump\t// in\n    tag_256:\n        /* \"#utility.yul\":4505:4507   */\n      0x20\n        /* \"#utility.yul\":4500:4503   */\n      dup3\n        /* \"#utility.yul\":4496:4508   */\n      add\n        /* \"#utility.yul\":4489:4508   */\n      swap1\n      pop\n        /* \"#utility.yul\":4148:4514   */\n      swap2\n      swap1\n      pop\n      jump\t// out\n        /* \"#utility.yul\":4520:4886   */\n    tag_258:\n        /* \"#utility.yul\":4662:4665   */\n      0x00\n        /* \"#utility.yul\":4683:4750   */\n      tag_260\n        /* \"#utility.yul\":4747:4749   */\n      0x15\n        /* \"#utility.yul\":4742:4745   */\n      dup4\n        /* \"#utility.yul\":4683:4750   */\n      tag_238\n      jump\t// in\n    tag_260:\n        /* \"#utility.yul\":4676:4750   */\n      swap2\n      pop\n        /* \"#utility.yul\":4759:4852   */\n      tag_261\n        /* \"#utility.yul\":4848:4851   */\n      dup3\n        /* \"#utility.yul\":4759:4852   */\n      tag_262\n      jump\t// in\n    tag_261:\n        /* \"#utility.yul\":4877:4879   */\n      0x20\n        /* \"#utility.yul\":4872:4875   */\n      dup3\n        /* \"#utility.yul\":4868:4880   */\n      add\n        /* \"#utility.yul\":4861:4880   */\n      swap1\n      pop\n        /* \"#utility.yul\":4520:4886   */\n      swap2\n      swap1\n      pop\n      jump\t// out\n        /* \"#utility.yul\":4892:5258   */\n    tag_263:\n        /* \"#utility.yul\":5034:5037   */\n      0x00\n        /* \"#utility.yul\":5055:5122   */\n      tag_265\n        /* \"#utility.yul\":5119:5121   */\n      0x14\n        /* \"#utility.yul\":5114:5117   */\n      dup4\n        /* \"#utility.yul\":5055:5122   */\n      tag_238\n      jump\t// in\n    tag_265:\n        /* \"#utility.yul\":5048:5122   */\n      swap2\n      pop\n        /* \"#utility.yul\":5131:5224   */\n      tag_266\n        /* \"#utility.yul\":5220:5223   */\n      dup3\n        /* \"#utility.yul\":5131:5224   */\n      tag_267\n      jump\t// in\n    tag_266:\n        /* \"#utility.yul\":5249:5251   */\n      0x20\n        /* \"#utility.yul\":5244:5247   */\n      dup3\n        /* \"#utility.yul\":5240:5252   */\n      add\n        /* \"#utility.yul\":5233:5252   */\n      swap1\n      pop\n        /* \"#utility.yul\":4892:5258   */\n      swap2\n      swap1\n      pop\n      jump\t// out\n        /* \"#utility.yul\":5264:5382   */\n    tag_268:\n        /* \"#utility.yul\":5351:5375   */\n      tag_270\n        /* \"#utility.yul\":5369:5374   */\n      dup2\n        /* \"#utility.yul\":5351:5375   */\n      tag_271\n      jump\t// in\n    tag_270:\n        /* \"#utility.yul\":5346:5349   */\n      dup3\n        /* \"#utility.yul\":5339:5376   */\n      mstore\n        /* \"#utility.yul\":5264:5382   */\n      pop\n      pop\n      jump\t// out\n        /* \"#utility.yul\":5388:5545   */\n    tag_272:\n        /* \"#utility.yul\":5493:5538   */\n      tag_274\n        /* \"#utility.yul\":5513:5537   */\n      tag_275\n        /* \"#utility.yul\":5531:5536   */\n      dup3\n        /* \"#utility.yul\":5513:5537   */\n      tag_271\n      jump\t// in\n    tag_275:\n        /* \"#utility.yul\":5493:5538   */\n      tag_276\n      jump\t// in\n    tag_274:\n        /* \"#utility.yul\":5488:5491   */\n      dup3\n        /* \"#utility.yul\":5481:5539   */\n      mstore\n        /* \"#utility.yul\":5388:5545   */\n      pop\n      pop\n      jump\t// out\n        /* \"#utility.yul\":5551:6089   */\n    tag_78:\n        /* \"#utility.yul\":5719:5722   */\n      0x00\n        /* \"#utility.yul\":5734:5809   */\n      tag_278\n        /* \"#utility.yul\":5805:5808   */\n      dup3\n        /* \"#utility.yul\":5796:5802   */\n      dup7\n        /* \"#utility.yul\":5734:5809   */\n      tag_272\n      jump\t// in\n    tag_278:\n        /* \"#utility.yul\":5834:5836   */\n      0x20\n        /* \"#utility.yul\":5829:5832   */\n      dup3\n        /* \"#utility.yul\":5825:5837   */\n      add\n        /* \"#utility.yul\":5818:5837   */\n      swap2\n      pop\n        /* \"#utility.yul\":5847:5922   */\n      tag_279\n        /* \"#utility.yul\":5918:5921   */\n      dup3\n        /* \"#utility.yul\":5909:5915   */\n      dup6\n        /* \"#utility.yul\":5847:5922   */\n      tag_272\n      jump\t// in\n    tag_279:\n        /* \"#utility.yul\":5947:5949   */\n      0x20\n        /* \"#utility.yul\":5942:5945   */\n      dup3\n        /* \"#utility.yul\":5938:5950   */\n      add\n        /* \"#utility.yul\":5931:5950   */\n      swap2\n      pop\n        /* \"#utility.yul\":5960:6035   */\n      tag_280\n        /* \"#utility.yul\":6031:6034   */\n      dup3\n        /* \"#utility.yul\":6022:6028   */\n      dup5\n        /* \"#utility.yul\":5960:6035   */\n      tag_272\n      jump\t// in\n    tag_280:\n        /* \"#utility.yul\":6060:6062   */\n      0x20\n        /* \"#utility.yul\":6055:6058   */\n      dup3\n        /* \"#utility.yul\":6051:6063   */\n      add\n        /* \"#utility.yul\":6044:6063   */\n      swap2\n      pop\n        /* \"#utility.yul\":6080:6083   */\n      dup2\n        /* \"#utility.yul\":6073:6083   */\n      swap1\n      pop\n        /* \"#utility.yul\":5551:6089   */\n      swap5\n      swap4\n      pop\n      pop\n      pop\n      pop\n      jump\t// out\n        /* \"#utility.yul\":6095:6317   */\n    tag_38:\n        /* \"#utility.yul\":6188:6192   */\n      0x00\n        /* \"#utility.yul\":6226:6228   */\n      0x20\n        /* \"#utility.yul\":6215:6224   */\n      dup3\n        /* \"#utility.yul\":6211:6229   */\n      add\n        /* \"#utility.yul\":6203:6229   */\n      swap1\n      pop\n        /* \"#utility.yul\":6239:6310   */\n      tag_282\n        /* \"#utility.yul\":6307:6308   */\n      0x00\n        /* \"#utility.yul\":6296:6305   */\n      dup4\n        /* \"#utility.yul\":6292:6309   */\n      add\n        /* \"#utility.yul\":6283:6289   */\n      dup5\n        /* \"#utility.yul\":6239:6310   */\n      tag_229\n      jump\t// in\n    tag_282:\n        /* \"#utility.yul\":6095:6317   */\n      swap3\n      swap2\n      pop\n      pop\n      jump\t// out\n        /* \"#utility.yul\":6323:7482   */\n    tag_44:\n        /* \"#utility.yul\":6644:6648   */\n      0x00\n        /* \"#utility.yul\":6682:6685   */\n      0xe0\n        /* \"#utility.yul\":6671:6680   */\n      dup3\n        /* \"#utility.yul\":6667:6686   */\n      add\n        /* \"#utility.yul\":6659:6686   */\n      swap1\n      pop\n        /* \"#utility.yul\":6696:6767   */\n      tag_284\n        /* \"#utility.yul\":6764:6765   */\n      0x00\n        /* \"#utility.yul\":6753:6762   */\n      dup4\n        /* \"#utility.yul\":6749:6766   */\n      add\n        /* \"#utility.yul\":6740:6746   */\n      dup11\n        /* \"#utility.yul\":6696:6767   */\n      tag_229\n      jump\t// in\n    tag_284:\n        /* \"#utility.yul\":6814:6823   */\n      dup2\n        /* \"#utility.yul\":6808:6812   */\n      dup2\n        /* \"#utility.yul\":6804:6824   */\n      sub\n        /* \"#utility.yul\":6799:6801   */\n      0x20\n        /* \"#utility.yul\":6788:6797   */\n      dup4\n        /* \"#utility.yul\":6784:6802   */\n      add\n        /* \"#utility.yul\":6777:6825   */\n      mstore\n        /* \"#utility.yul\":6842:6920   */\n      tag_285\n        /* \"#utility.yul\":6915:6919   */\n      dup2\n        /* \"#utility.yul\":6906:6912   */\n      dup10\n        /* \"#utility.yul\":6842:6920   */\n      tag_233\n      jump\t// in\n    tag_285:\n        /* \"#utility.yul\":6834:6920   */\n      swap1\n      pop\n        /* \"#utility.yul\":6967:6976   */\n      dup2\n        /* \"#utility.yul\":6961:6965   */\n      dup2\n        /* \"#utility.yul\":6957:6977   */\n      sub\n        /* \"#utility.yul\":6952:6954   */\n      0x40\n        /* \"#utility.yul\":6941:6950   */\n      dup4\n        /* \"#utility.yul\":6937:6955   */\n      add\n        /* \"#utility.yul\":6930:6978   */\n      mstore\n        /* \"#utility.yul\":6995:7073   */\n      tag_286\n        /* \"#utility.yul\":7068:7072   */\n      dup2\n        /* \"#utility.yul\":7059:7065   */\n      dup9\n        /* \"#utility.yul\":6995:7073   */\n      tag_233\n      jump\t// in\n    tag_286:\n        /* \"#utility.yul\":6987:7073   */\n      swap1\n      pop\n        /* \"#utility.yul\":7120:7129   */\n      dup2\n        /* \"#utility.yul\":7114:7118   */\n      dup2\n        /* \"#utility.yul\":7110:7130   */\n      sub\n        /* \"#utility.yul\":7105:7107   */\n      0x60\n        /* \"#utility.yul\":7094:7103   */\n      dup4\n        /* \"#utility.yul\":7090:7108   */\n      add\n        /* \"#utility.yul\":7083:7131   */\n      mstore\n        /* \"#utility.yul\":7148:7226   */\n      tag_287\n        /* \"#utility.yul\":7221:7225   */\n      dup2\n        /* \"#utility.yul\":7212:7218   */\n      dup8\n        /* \"#utility.yul\":7148:7226   */\n      tag_233\n      jump\t// in\n    tag_287:\n        /* \"#utility.yul\":7140:7226   */\n      swap1\n      pop\n        /* \"#utility.yul\":7236:7309   */\n      tag_288\n        /* \"#utility.yul\":7304:7307   */\n      0x80\n        /* \"#utility.yul\":7293:7302   */\n      dup4\n        /* \"#utility.yul\":7289:7308   */\n      add\n        /* \"#utility.yul\":7280:7286   */\n      dup7\n        /* \"#utility.yul\":7236:7309   */\n      tag_268\n      jump\t// in\n    tag_288:\n        /* \"#utility.yul\":7319:7392   */\n      tag_289\n        /* \"#utility.yul\":7387:7390   */\n      0xa0\n        /* \"#utility.yul\":7376:7385   */\n      dup4\n        /* \"#utility.yul\":7372:7391   */\n      add\n        /* \"#utility.yul\":7363:7369   */\n      dup6\n        /* \"#utility.yul\":7319:7392   */\n      tag_268\n      jump\t// in\n    tag_289:\n        /* \"#utility.yul\":7402:7475   */\n      tag_290\n        /* \"#utility.yul\":7470:7473   */\n      0xc0\n        /* \"#utility.yul\":7459:7468   */\n      dup4\n        /* \"#utility.yul\":7455:7474   */\n      add\n        /* \"#utility.yul\":7446:7452   */\n      dup5\n        /* \"#utility.yul\":7402:7475   */\n      tag_268\n      jump\t// in\n    tag_290:\n        /* \"#utility.yul\":6323:7482   */\n      swap9\n      swap8\n      pop\n      pop\n      pop\n      pop\n      pop\n      pop\n      pop\n      pop\n      jump\t// out\n        /* \"#utility.yul\":7488:7801   */\n    tag_30:\n        /* \"#utility.yul\":7601:7605   */\n      0x00\n        /* \"#utility.yul\":7639:7641   */\n      0x20\n        /* \"#utility.yul\":7628:7637   */\n      dup3\n        /* \"#utility.yul\":7624:7642   */\n      add\n        /* \"#utility.yul\":7616:7642   */\n      swap1\n      pop\n        /* \"#utility.yul\":7688:7697   */\n      dup2\n        /* \"#utility.yul\":7682:7686   */\n      dup2\n        /* \"#utility.yul\":7678:7698   */\n      sub\n        /* \"#utility.yul\":7674:7675   */\n      0x00\n        /* \"#utility.yul\":7663:7672   */\n      dup4\n        /* \"#utility.yul\":7659:7676   */\n      add\n        /* \"#utility.yul\":7652:7699   */\n      mstore\n        /* \"#utility.yul\":7716:7794   */\n      tag_292\n        /* \"#utility.yul\":7789:7793   */\n      dup2\n        /* \"#utility.yul\":7780:7786   */\n      dup5\n        /* \"#utility.yul\":7716:7794   */\n      tag_233\n      jump\t// in\n    tag_292:\n        /* \"#utility.yul\":7708:7794   */\n      swap1\n      pop\n        /* \"#utility.yul\":7488:7801   */\n      swap3\n      swap2\n      pop\n      pop\n      jump\t// out\n        /* \"#utility.yul\":7807:8226   */\n    tag_60:\n        /* \"#utility.yul\":7973:7977   */\n      0x00\n        /* \"#utility.yul\":8011:8013   */\n      0x20\n        /* \"#utility.yul\":8000:8009   */\n      dup3\n        /* \"#utility.yul\":7996:8014   */\n      add\n        /* \"#utility.yul\":7988:8014   */\n      swap1\n      pop\n        /* \"#utility.yul\":8060:8069   */\n      dup2\n        /* \"#utility.yul\":8054:8058   */\n      dup2\n        /* \"#utility.yul\":8050:8070   */\n      sub\n        /* \"#utility.yul\":8046:8047   */\n      0x00\n        /* \"#utility.yul\":8035:8044   */\n      dup4\n        /* \"#utility.yul\":8031:8048   */\n      add\n        /* \"#utility.yul\":8024:8071   */\n      mstore\n        /* \"#utility.yul\":8088:8219   */\n      tag_294\n        /* \"#utility.yul\":8214:8218   */\n      dup2\n        /* \"#utility.yul\":8088:8219   */\n      tag_243\n      jump\t// in\n    tag_294:\n        /* \"#utility.yul\":8080:8219   */\n      swap1\n      pop\n        /* \"#utility.yul\":7807:8226   */\n      swap2\n      swap1\n      pop\n      jump\t// out\n        /* \"#utility.yul\":8232:8651   */\n    tag_161:\n        /* \"#utility.yul\":8398:8402   */\n      0x00\n        /* \"#utility.yul\":8436:8438   */\n      0x20\n        /* \"#utility.yul\":8425:8434   */\n      dup3\n        /* \"#utility.yul\":8421:8439   */\n      add\n        /* \"#utility.yul\":8413:8439   */\n      swap1\n      pop\n        /* \"#utility.yul\":8485:8494   */\n      dup2\n        /* \"#utility.yul\":8479:8483   */\n      dup2\n        /* \"#utility.yul\":8475:8495   */\n      sub\n        /* \"#utility.yul\":8471:8472   */\n      0x00\n        /* \"#utility.yul\":8460:8469   */\n      dup4\n        /* \"#utility.yul\":8456:8473   */\n      add\n        /* \"#utility.yul\":8449:8496   */\n      mstore\n        /* \"#utility.yul\":8513:8644   */\n      tag_296\n        /* \"#utility.yul\":8639:8643   */\n      dup2\n        /* \"#utility.yul\":8513:8644   */\n      tag_248\n      jump\t// in\n    tag_296:\n        /* \"#utility.yul\":8505:8644   */\n      swap1\n      pop\n        /* \"#utility.yul\":8232:8651   */\n      swap2\n      swap1\n      pop\n      jump\t// out\n        /* \"#utility.yul\":8657:9076   */\n    tag_124:\n        /* \"#utility.yul\":8823:8827   */\n      0x00\n        /* \"#utility.yul\":8861:8863   */\n      0x20\n        /* \"#utility.yul\":8850:8859   */\n      dup3\n        /* \"#utility.yul\":8846:8864   */\n      add\n        /* \"#utility.yul\":8838:8864   */\n      swap1\n      pop\n        /* \"#utility.yul\":8910:8919   */\n      dup2\n        /* \"#utility.yul\":8904:8908   */\n      dup2\n        /* \"#utility.yul\":8900:8920   */\n      sub\n        /* \"#utility.yul\":8896:8897   */\n      0x00\n        /* \"#utility.yul\":8885:8894   */\n      dup4\n        /* \"#utility.yul\":8881:8898   */\n      add\n        /* \"#utility.yul\":8874:8921   */\n      mstore\n        /* \"#utility.yul\":8938:9069   */\n      tag_298\n        /* \"#utility.yul\":9064:9068   */\n      dup2\n        /* \"#utility.yul\":8938:9069   */\n      tag_253\n      jump\t// in\n    tag_298:\n        /* \"#utility.yul\":8930:9069   */\n      swap1\n      pop\n        /* \"#utility.yul\":8657:9076   */\n      swap2\n      swap1\n      pop\n      jump\t// out\n        /* \"#utility.yul\":9082:9611   */\n    tag_107:\n        /* \"#utility.yul\":9276:9280   */\n      0x00\n        /* \"#utility.yul\":9314:9316   */\n      0x40\n        /* \"#utility.yul\":9303:9312   */\n      dup3\n        /* \"#utility.yul\":9299:9317   */\n      add\n        /* \"#utility.yul\":9291:9317   */\n      swap1\n      pop\n        /* \"#utility.yul\":9363:9372   */\n      dup2\n        /* \"#utility.yul\":9357:9361   */\n      dup2\n        /* \"#utility.yul\":9353:9373   */\n      sub\n        /* \"#utility.yul\":9349:9350   */\n      0x00\n        /* \"#utility.yul\":9338:9347   */\n      dup4\n        /* \"#utility.yul\":9334:9351   */\n      add\n        /* \"#utility.yul\":9327:9374   */\n      mstore\n        /* \"#utility.yul\":9391:9522   */\n      tag_300\n        /* \"#utility.yul\":9517:9521   */\n      dup2\n        /* \"#utility.yul\":9391:9522   */\n      tag_258\n      jump\t// in\n    tag_300:\n        /* \"#utility.yul\":9383:9522   */\n      swap1\n      pop\n        /* \"#utility.yul\":9532:9604   */\n      tag_301\n        /* \"#utility.yul\":9600:9602   */\n      0x20\n        /* \"#utility.yul\":9589:9598   */\n      dup4\n        /* \"#utility.yul\":9585:9603   */\n      add\n        /* \"#utility.yul\":9576:9582   */\n      dup5\n        /* \"#utility.yul\":9532:9604   */\n      tag_268\n      jump\t// in\n    tag_301:\n        /* \"#utility.yul\":9082:9611   */\n      swap3\n      swap2\n      pop\n      pop\n      jump\t// out\n        /* \"#utility.yul\":9617:10036   */\n    tag_149:\n        /* \"#utility.yul\":9783:9787   */\n      0x00\n        /* \"#utility.yul\":9821:9823   */\n      0x20\n        /* \"#utility.yul\":9810:9819   */\n      dup3\n        /* \"#utility.yul\":9806:9824   */\n      add\n        /* \"#utility.yul\":9798:9824   */\n      swap1\n      pop\n        /* \"#utility.yul\":9870:9879   */\n      dup2\n        /* \"#utility.yul\":9864:9868   */\n      dup2\n        /* \"#utility.yul\":9860:9880   */\n      sub\n        /* \"#utility.yul\":9856:9857   */\n      0x00\n        /* \"#utility.yul\":9845:9854   */\n      dup4\n        /* \"#utility.yul\":9841:9858   */\n      add\n        /* \"#utility.yul\":9834:9881   */\n      mstore\n        /* \"#utility.yul\":9898:10029   */\n      tag_303\n        /* \"#utility.yul\":10024:10028   */\n      dup2\n        /* \"#utility.yul\":9898:10029   */\n      tag_263\n      jump\t// in\n    tag_303:\n        /* \"#utility.yul\":9890:10029   */\n      swap1\n      pop\n        /* \"#utility.yul\":9617:10036   */\n      swap2\n      swap1\n      pop\n      jump\t// out\n        /* \"#utility.yul\":10042:10264   */\n    tag_18:\n        /* \"#utility.yul\":10135:10139   */\n      0x00\n        /* \"#utility.yul\":10173:10175   */\n      0x20\n        /* \"#utility.yul\":10162:10171   */\n      dup3\n        /* \"#utility.yul\":10158:10176   */\n      add\n        /* \"#utility.yul\":10150:10176   */\n      swap1\n      pop\n        /* \"#utility.yul\":10186:10257   */\n      tag_305\n        /* \"#utility.yul\":10254:10255   */\n      0x00\n        /* \"#utility.yul\":10243:10252   */\n      dup4\n        /* \"#utility.yul\":10239:10256   */\n      add\n        /* \"#utility.yul\":10230:10236   */\n      dup5\n        /* \"#utility.yul\":10186:10257   */\n      tag_268\n      jump\t// in\n    tag_305:\n        /* \"#utility.yul\":10042:10264   */\n      swap3\n      swap2\n      pop\n      pop\n      jump\t// out\n        /* \"#utility.yul\":10270:10399   */\n    tag_187:\n        /* \"#utility.yul\":10304:10310   */\n      0x00\n        /* \"#utility.yul\":10331:10351   */\n      tag_307\n      tag_308\n      jump\t// in\n    tag_307:\n        /* \"#utility.yul\":10321:10351   */\n      swap1\n      pop\n        /* \"#utility.yul\":10360:10393   */\n      tag_309\n        /* \"#utility.yul\":10388:10392   */\n      dup3\n        /* \"#utility.yul\":10380:10386   */\n      dup3\n        /* \"#utility.yul\":10360:10393   */\n      tag_310\n      jump\t// in\n    tag_309:\n        /* \"#utility.yul\":10270:10399   */\n      swap2\n      swap1\n      pop\n      jump\t// out\n        /* \"#utility.yul\":10405:10480   */\n    tag_308:\n        /* \"#utility.yul\":10438:10444   */\n      0x00\n        /* \"#utility.yul\":10471:10473   */\n      0x40\n        /* \"#utility.yul\":10465:10474   */\n      mload\n        /* \"#utility.yul\":10455:10474   */\n      swap1\n      pop\n        /* \"#utility.yul\":10405:10480   */\n      swap1\n      jump\t// out\n        /* \"#utility.yul\":10486:10794   */\n    tag_186:\n        /* \"#utility.yul\":10548:10552   */\n      0x00\n        /* \"#utility.yul\":10638:10656   */\n      0xffffffffffffffff\n        /* \"#utility.yul\":10630:10636   */\n      dup3\n        /* \"#utility.yul\":10627:10657   */\n      gt\n        /* \"#utility.yul\":10624:10680   */\n      iszero\n      tag_313\n      jumpi\n        /* \"#utility.yul\":10660:10678   */\n      tag_314\n      tag_315\n      jump\t// in\n    tag_314:\n        /* \"#utility.yul\":10624:10680   */\n    tag_313:\n        /* \"#utility.yul\":10698:10727   */\n      tag_316\n        /* \"#utility.yul\":10720:10726   */\n      dup3\n        /* \"#utility.yul\":10698:10727   */\n      tag_242\n      jump\t// in\n    tag_316:\n        /* \"#utility.yul\":10690:10727   */\n      swap1\n      pop\n        /* \"#utility.yul\":10782:10786   */\n      0x20\n        /* \"#utility.yul\":10776:10780   */\n      dup2\n        /* \"#utility.yul\":10772:10787   */\n      add\n        /* \"#utility.yul\":10764:10787   */\n      swap1\n      pop\n        /* \"#utility.yul\":10486:10794   */\n      swap2\n      swap1\n      pop\n      jump\t// out\n        /* \"#utility.yul\":10800:10899   */\n    tag_236:\n        /* \"#utility.yul\":10852:10858   */\n      0x00\n        /* \"#utility.yul\":10886:10891   */\n      dup2\n        /* \"#utility.yul\":10880:10892   */\n      mload\n        /* \"#utility.yul\":10870:10892   */\n      swap1\n      pop\n        /* \"#utility.yul\":10800:10899   */\n      swap2\n      swap1\n      pop\n      jump\t// out\n        /* \"#utility.yul\":10905:11074   */\n    tag_238:\n        /* \"#utility.yul\":10989:11000   */\n      0x00\n        /* \"#utility.yul\":11023:11029   */\n      dup3\n        /* \"#utility.yul\":11018:11021   */\n      dup3\n        /* \"#utility.yul\":11011:11030   */\n      mstore\n        /* \"#utility.yul\":11063:11067   */\n      0x20\n        /* \"#utility.yul\":11058:11061   */\n      dup3\n        /* \"#utility.yul\":11054:11068   */\n      add\n        /* \"#utility.yul\":11039:11068   */\n      swap1\n      pop\n        /* \"#utility.yul\":10905:11074   */\n      swap3\n      swap2\n      pop\n      pop\n      jump\t// out\n        /* \"#utility.yul\":11080:11385   */\n    tag_63:\n        /* \"#utility.yul\":11120:11123   */\n      0x00\n        /* \"#utility.yul\":11139:11159   */\n      tag_320\n        /* \"#utility.yul\":11157:11158   */\n      dup3\n        /* \"#utility.yul\":11139:11159   */\n      tag_271\n      jump\t// in\n    tag_320:\n        /* \"#utility.yul\":11134:11159   */\n      swap2\n      pop\n        /* \"#utility.yul\":11173:11193   */\n      tag_321\n        /* \"#utility.yul\":11191:11192   */\n      dup4\n        /* \"#utility.yul\":11173:11193   */\n      tag_271\n      jump\t// in\n    tag_321:\n        /* \"#utility.yul\":11168:11193   */\n      swap3\n      pop\n        /* \"#utility.yul\":11327:11328   */\n      dup3\n        /* \"#utility.yul\":11259:11325   */\n      0xffffffffffffffffffffffffffffffffffffffffffffffffffffffffffffffff\n        /* \"#utility.yul\":11255:11329   */\n      sub\n        /* \"#utility.yul\":11252:11253   */\n      dup3\n        /* \"#utility.yul\":11249:11330   */\n      gt\n        /* \"#utility.yul\":11246:11353   */\n      iszero\n      tag_322\n      jumpi\n        /* \"#utility.yul\":11333:11351   */\n      tag_323\n      tag_324\n      jump\t// in\n    tag_323:\n        /* \"#utility.yul\":11246:11353   */\n    tag_322:\n        /* \"#utility.yul\":11377:11378   */\n      dup3\n        /* \"#utility.yul\":11374:11375   */\n      dup3\n        /* \"#utility.yul\":11370:11379   */\n      add\n        /* \"#utility.yul\":11363:11379   */\n      swap1\n      pop\n        /* \"#utility.yul\":11080:11385   */\n      swap3\n      swap2\n      pop\n      pop\n      jump\t// out\n        /* \"#utility.yul\":11391:11582   */\n    tag_73:\n        /* \"#utility.yul\":11431:11435   */\n      0x00\n        /* \"#utility.yul\":11451:11471   */\n      tag_326\n        /* \"#utility.yul\":11469:11470   */\n      dup3\n        /* \"#utility.yul\":11451:11471   */\n      tag_271\n      jump\t// in\n    tag_326:\n        /* \"#utility.yul\":11446:11471   */\n      swap2\n      pop\n        /* \"#utility.yul\":11485:11505   */\n      tag_327\n        /* \"#utility.yul\":11503:11504   */\n      dup4\n        /* \"#utility.yul\":11485:11505   */\n      tag_271\n      jump\t// in\n    tag_327:\n        /* \"#utility.yul\":11480:11505   */\n      swap3\n      pop\n        /* \"#utility.yul\":11524:11525   */\n      dup3\n        /* \"#utility.yul\":11521:11522   */\n      dup3\n        /* \"#utility.yul\":11518:11526   */\n      lt\n        /* \"#utility.yul\":11515:11549   */\n      iszero\n      tag_328\n      jumpi\n        /* \"#utility.yul\":11529:11547   */\n      tag_329\n      tag_324\n      jump\t// in\n    tag_329:\n        /* \"#utility.yul\":11515:11549   */\n    tag_328:\n        /* \"#utility.yul\":11574:11575   */\n      dup3\n        /* \"#utility.yul\":11571:11572   */\n      dup3\n        /* \"#utility.yul\":11567:11576   */\n      sub\n        /* \"#utility.yul\":11559:11576   */\n      swap1\n      pop\n        /* \"#utility.yul\":11391:11582   */\n      swap3\n      swap2\n      pop\n      pop\n      jump\t// out\n        /* \"#utility.yul\":11588:11684   */\n    tag_232:\n        /* \"#utility.yul\":11625:11632   */\n      0x00\n        /* \"#utility.yul\":11654:11678   */\n      tag_331\n        /* \"#utility.yul\":11672:11677   */\n      dup3\n        /* \"#utility.yul\":11654:11678   */\n      tag_332\n      jump\t// in\n    tag_331:\n        /* \"#utility.yul\":11643:11678   */\n      swap1\n      pop\n        /* \"#utility.yul\":11588:11684   */\n      swap2\n      swap1\n      pop\n      jump\t// out\n        /* \"#utility.yul\":11690:11816   */\n    tag_332:\n        /* \"#utility.yul\":11727:11734   */\n      0x00\n        /* \"#utility.yul\":11767:11809   */\n      0xffffffffffffffffffffffffffffffffffffffff\n        /* \"#utility.yul\":11760:11765   */\n      dup3\n        /* \"#utility.yul\":11756:11810   */\n      and\n        /* \"#utility.yul\":11745:11810   */\n      swap1\n      pop\n        /* \"#utility.yul\":11690:11816   */\n      swap2\n      swap1\n      pop\n      jump\t// out\n        /* \"#utility.yul\":11822:11899   */\n    tag_271:\n        /* \"#utility.yul\":11859:11866   */\n      0x00\n        /* \"#utility.yul\":11888:11893   */\n      dup2\n        /* \"#utility.yul\":11877:11893   */\n      swap1\n      pop\n        /* \"#utility.yul\":11822:11899   */\n      swap2\n      swap1\n      pop\n      jump\t// out\n        /* \"#utility.yul\":11905:12059   */\n    tag_192:\n        /* \"#utility.yul\":11989:11995   */\n      dup3\n        /* \"#utility.yul\":11984:11987   */\n      dup2\n        /* \"#utility.yul\":11979:11982   */\n      dup4\n        /* \"#utility.yul\":11966:11996   */\n      calldatacopy\n        /* \"#utility.yul\":12051:12052   */\n      0x00\n        /* \"#utility.yul\":12042:12048   */\n      dup4\n        /* \"#utility.yul\":12037:12040   */\n      dup4\n        /* \"#utility.yul\":12033:12049   */\n      add\n        /* \"#utility.yul\":12026:12053   */\n      mstore\n        /* \"#utility.yul\":11905:12059   */\n      pop\n      pop\n      pop\n      jump\t// out\n        /* \"#utility.yul\":12065:12372   */\n    tag_240:\n        /* \"#utility.yul\":12133:12134   */\n      0x00\n        /* \"#utility.yul\":12143:12256   */\n    tag_337:\n        /* \"#utility.yul\":12157:12163   */\n      dup4\n        /* \"#utility.yul\":12154:12155   */\n      dup2\n        /* \"#utility.yul\":12151:12164   */\n      lt\n        /* \"#utility.yul\":12143:12256   */\n      iszero\n      tag_339\n      jumpi\n        /* \"#utility.yul\":12242:12243   */\n      dup1\n        /* \"#utility.yul\":12237:12240   */\n      dup3\n        /* \"#utility.yul\":12233:12244   */\n      add\n        /* \"#utility.yul\":12227:12245   */\n      mload\n        /* \"#utility.yul\":12223:12224   */\n      dup2\n        /* \"#utility.yul\":12218:12221   */\n      dup5\n        /* \"#utility.yul\":12214:12225   */\n      add\n        /* \"#utility.yul\":12207:12246   */\n      mstore\n        /* \"#utility.yul\":12179:12181   */\n      0x20\n        /* \"#utility.yul\":12176:12177   */\n      dup2\n        /* \"#utility.yul\":12172:12182   */\n      add\n        /* \"#utility.yul\":12167:12182   */\n      swap1\n      pop\n        /* \"#utility.yul\":12143:12256   */\n      jump(tag_337)\n    tag_339:\n        /* \"#utility.yul\":12274:12280   */\n      dup4\n        /* \"#utility.yul\":12271:12272   */\n      dup2\n        /* \"#utility.yul\":12268:12281   */\n      gt\n        /* \"#utility.yul\":12265:12366   */\n      iszero\n      tag_340\n      jumpi\n        /* \"#utility.yul\":12354:12355   */\n      0x00\n        /* \"#utility.yul\":12345:12351   */\n      dup5\n        /* \"#utility.yul\":12340:12343   */\n      dup5\n        /* \"#utility.yul\":12336:12352   */\n      add\n        /* \"#utility.yul\":12329:12356   */\n      mstore\n        /* \"#utility.yul\":12265:12366   */\n    tag_340:\n        /* \"#utility.yul\":12114:12372   */\n      pop\n        /* \"#utility.yul\":12065:12372   */\n      pop\n      pop\n      pop\n      jump\t// out\n        /* \"#utility.yul\":12378:12698   */\n    tag_132:\n        /* \"#utility.yul\":12422:12428   */\n      0x00\n        /* \"#utility.yul\":12459:12460   */\n      0x02\n        /* \"#utility.yul\":12453:12457   */\n      dup3\n        /* \"#utility.yul\":12449:12461   */\n      div\n        /* \"#utility.yul\":12439:12461   */\n      swap1\n      pop\n        /* \"#utility.yul\":12506:12507   */\n      0x01\n        /* \"#utility.yul\":12500:12504   */\n      dup3\n        /* \"#utility.yul\":12496:12508   */\n      and\n        /* \"#utility.yul\":12527:12545   */\n      dup1\n        /* \"#utility.yul\":12517:12598   */\n      tag_342\n      jumpi\n        /* \"#utility.yul\":12583:12587   */\n      0x7f\n        /* \"#utility.yul\":12575:12581   */\n      dup3\n        /* \"#utility.yul\":12571:12588   */\n      and\n        /* \"#utility.yul\":12561:12588   */\n      swap2\n      pop\n        /* \"#utility.yul\":12517:12598   */\n    tag_342:\n        /* \"#utility.yul\":12645:12647   */\n      0x20\n        /* \"#utility.yul\":12637:12643   */\n      dup3\n        /* \"#utility.yul\":12634:12648   */\n      lt\n        /* \"#utility.yul\":12614:12632   */\n      dup2\n        /* \"#utility.yul\":12611:12649   */\n      eq\n        /* \"#utility.yul\":12608:12692   */\n      iszero\n      tag_343\n      jumpi\n        /* \"#utility.yul\":12664:12682   */\n      tag_344\n      tag_345\n      jump\t// in\n    tag_344:\n        /* \"#utility.yul\":12608:12692   */\n    tag_343:\n        /* \"#utility.yul\":12429:12698   */\n      pop\n        /* \"#utility.yul\":12378:12698   */\n      swap2\n      swap1\n      pop\n      jump\t// out\n        /* \"#utility.yul\":12704:12985   */\n    tag_310:\n        /* \"#utility.yul\":12787:12814   */\n      tag_347\n        /* \"#utility.yul\":12809:12813   */\n      dup3\n        /* \"#utility.yul\":12787:12814   */\n      tag_242\n      jump\t// in\n    tag_347:\n        /* \"#utility.yul\":12779:12785   */\n      dup2\n        /* \"#utility.yul\":12775:12815   */\n      add\n        /* \"#utility.yul\":12917:12923   */\n      dup2\n        /* \"#utility.yul\":12905:12915   */\n      dup2\n        /* \"#utility.yul\":12902:12924   */\n      lt\n        /* \"#utility.yul\":12881:12899   */\n      0xffffffffffffffff\n        /* \"#utility.yul\":12869:12879   */\n      dup3\n        /* \"#utility.yul\":12866:12900   */\n      gt\n        /* \"#utility.yul\":12863:12925   */\n      or\n        /* \"#utility.yul\":12860:12948   */\n      iszero\n      tag_348\n      jumpi\n        /* \"#utility.yul\":12928:12946   */\n      tag_349\n      tag_315\n      jump\t// in\n    tag_349:\n        /* \"#utility.yul\":12860:12948   */\n    tag_348:\n        /* \"#utility.yul\":12968:12978   */\n      dup1\n        /* \"#utility.yul\":12964:12966   */\n      0x40\n        /* \"#utility.yul\":12957:12979   */\n      mstore\n        /* \"#utility.yul\":12747:12985   */\n      pop\n        /* \"#utility.yul\":12704:12985   */\n      pop\n      pop\n      jump\t// out\n        /* \"#utility.yul\":12991:13224   */\n    tag_70:\n        /* \"#utility.yul\":13030:13033   */\n      0x00\n        /* \"#utility.yul\":13053:13077   */\n      tag_351\n        /* \"#utility.yul\":13071:13076   */\n      dup3\n        /* \"#utility.yul\":13053:13077   */\n      tag_271\n      jump\t// in\n    tag_351:\n        /* \"#utility.yul\":13044:13077   */\n      swap2\n      pop\n        /* \"#utility.yul\":13099:13165   */\n      0xffffffffffffffffffffffffffffffffffffffffffffffffffffffffffffffff\n        /* \"#utility.yul\":13092:13097   */\n      dup3\n        /* \"#utility.yul\":13089:13166   */\n      eq\n        /* \"#utility.yul\":13086:13189   */\n      iszero\n      tag_352\n      jumpi\n        /* \"#utility.yul\":13169:13187   */\n      tag_353\n      tag_324\n      jump\t// in\n    tag_353:\n        /* \"#utility.yul\":13086:13189   */\n    tag_352:\n        /* \"#utility.yul\":13216:13217   */\n      0x01\n        /* \"#utility.yul\":13209:13214   */\n      dup3\n        /* \"#utility.yul\":13205:13218   */\n      add\n        /* \"#utility.yul\":13198:13218   */\n      swap1\n      pop\n        /* \"#utility.yul\":12991:13224   */\n      swap2\n      swap1\n      pop\n      jump\t// out\n        /* \"#utility.yul\":13230:13309   */\n    tag_276:\n        /* \"#utility.yul\":13269:13276   */\n      0x00\n        /* \"#utility.yul\":13298:13303   */\n      dup2\n        /* \"#utility.yul\":13287:13303   */\n      swap1\n      pop\n        /* \"#utility.yul\":13230:13309   */\n      swap2\n      swap1\n      pop\n      jump\t// out\n        /* \"#utility.yul\":13315:13491   */\n    tag_80:\n        /* \"#utility.yul\":13347:13348   */\n      0x00\n        /* \"#utility.yul\":13364:13384   */\n      tag_356\n        /* \"#utility.yul\":13382:13383   */\n      dup3\n        /* \"#utility.yul\":13364:13384   */\n      tag_271\n      jump\t// in\n    tag_356:\n        /* \"#utility.yul\":13359:13384   */\n      swap2\n      pop\n        /* \"#utility.yul\":13398:13418   */\n      tag_357\n        /* \"#utility.yul\":13416:13417   */\n      dup4\n        /* \"#utility.yul\":13398:13418   */\n      tag_271\n      jump\t// in\n    tag_357:\n        /* \"#utility.yul\":13393:13418   */\n      swap3\n      pop\n        /* \"#utility.yul\":13437:13438   */\n      dup3\n        /* \"#utility.yul\":13427:13462   */\n      tag_358\n      jumpi\n        /* \"#utility.yul\":13442:13460   */\n      tag_359\n      tag_360\n      jump\t// in\n    tag_359:\n        /* \"#utility.yul\":13427:13462   */\n    tag_358:\n        /* \"#utility.yul\":13483:13484   */\n      dup3\n        /* \"#utility.yul\":13480:13481   */\n      dup3\n        /* \"#utility.yul\":13476:13485   */\n      mod\n        /* \"#utility.yul\":13471:13485   */\n      swap1\n      pop\n        /* \"#utility.yul\":13315:13491   */\n      swap3\n      swap2\n      pop\n      pop\n      jump\t// out\n        /* \"#utility.yul\":13497:13677   */\n    tag_324:\n        /* \"#utility.yul\":13545:13622   */\n      0x4e487b7100000000000000000000000000000000000000000000000000000000\n        /* \"#utility.yul\":13542:13543   */\n      0x00\n        /* \"#utility.yul\":13535:13623   */\n      mstore\n        /* \"#utility.yul\":13642:13646   */\n      0x11\n        /* \"#utility.yul\":13639:13640   */\n      0x04\n        /* \"#utility.yul\":13632:13647   */\n      mstore\n        /* \"#utility.yul\":13666:13670   */\n      0x24\n        /* \"#utility.yul\":13663:13664   */\n      0x00\n        /* \"#utility.yul\":13656:13671   */\n      revert\n        /* \"#utility.yul\":13683:13863   */\n    tag_360:\n        /* \"#utility.yul\":13731:13808   */\n      0x4e487b7100000000000000000000000000000000000000000000000000000000\n        /* \"#utility.yul\":13728:13729   */\n      0x00\n        /* \"#utility.yul\":13721:13809   */\n      mstore\n        /* \"#utility.yul\":13828:13832   */\n      0x12\n        /* \"#utility.yul\":13825:13826   */\n      0x04\n        /* \"#utility.yul\":13818:13833   */\n      mstore\n        /* \"#utility.yul\":13852:13856   */\n      0x24\n        /* \"#utility.yul\":13849:13850   */\n      0x00\n        /* \"#utility.yul\":13842:13857   */\n      revert\n        /* \"#utility.yul\":13869:14049   */\n    tag_345:\n        /* \"#utility.yul\":13917:13994   */\n      0x4e487b7100000000000000000000000000000000000000000000000000000000\n        /* \"#utility.yul\":13914:13915   */\n      0x00\n        /* \"#utility.yul\":13907:13995   */\n      mstore\n        /* \"#utility.yul\":14014:14018   */\n      0x22\n        /* \"#utility.yul\":14011:14012   */\n      0x04\n        /* \"#utility.yul\":14004:14019   */\n      mstore\n        /* \"#utility.yul\":14038:14042   */\n      0x24\n        /* \"#utility.yul\":14035:14036   */\n      0x00\n        /* \"#utility.yul\":14028:14043   */\n      revert\n        /* \"#utility.yul\":14055:14235   */\n    tag_90:\n        /* \"#utility.yul\":14103:14180   */\n      0x4e487b7100000000000000000000000000000000000000000000000000000000\n        /* \"#utility.yul\":14100:14101   */\n      0x00\n        /* \"#utility.yul\":14093:14181   */\n      mstore\n        /* \"#utility.yul\":14200:14204   */\n      0x32\n        /* \"#utility.yul\":14197:14198   */\n      0x04\n        /* \"#utility.yul\":14190:14205   */\n      mstore\n        /* \"#utility.yul\":14224:14228   */\n      0x24\n        /* \"#utility.yul\":14221:14222   */\n      0x00\n        /* \"#utility.yul\":14214:14229   */\n      revert\n        /* \"#utility.yul\":14241:14421   */\n    tag_315:\n        /* \"#utility.yul\":14289:14366   */\n      0x4e487b7100000000000000000000000000000000000000000000000000000000\n        /* \"#utility.yul\":14286:14287   */\n      0x00\n        /* \"#utility.yul\":14279:14367   */\n      mstore\n        /* \"#utility.yul\":14386:14390   */\n      0x41\n        /* \"#utility.yul\":14383:14384   */\n      0x04\n        /* \"#utility.yul\":14376:14391   */\n      mstore\n        /* \"#utility.yul\":14410:14414   */\n      0x24\n        /* \"#utility.yul\":14407:14408   */\n      0x00\n        /* \"#utility.yul\":14400:14415   */\n      revert\n        /* \"#utility.yul\":14427:14544   */\n    tag_201:\n        /* \"#utility.yul\":14536:14537   */\n      0x00\n        /* \"#utility.yul\":14533:14534   */\n      dup1\n        /* \"#utility.yul\":14526:14538   */\n      revert\n        /* \"#utility.yul\":14550:14667   */\n    tag_190:\n        /* \"#utility.yul\":14659:14660   */\n      0x00\n        /* \"#utility.yul\":14656:14657   */\n      dup1\n        /* \"#utility.yul\":14649:14661   */\n      revert\n        /* \"#utility.yul\":14673:14790   */\n    tag_217:\n        /* \"#utility.yul\":14782:14783   */\n      0x00\n        /* \"#utility.yul\":14779:14780   */\n      dup1\n        /* \"#utility.yul\":14772:14784   */\n      revert\n        /* \"#utility.yul\":14796:14913   */\n    tag_210:\n        /* \"#utility.yul\":14905:14906   */\n      0x00\n        /* \"#utility.yul\":14902:14903   */\n      dup1\n        /* \"#utility.yul\":14895:14907   */\n      revert\n        /* \"#utility.yul\":14919:15021   */\n    tag_242:\n        /* \"#utility.yul\":14960:14966   */\n      0x00\n        /* \"#utility.yul\":15011:15013   */\n      0x1f\n        /* \"#utility.yul\":15007:15014   */\n      not\n        /* \"#utility.yul\":15002:15004   */\n      0x1f\n        /* \"#utility.yul\":14995:15000   */\n      dup4\n        /* \"#utility.yul\":14991:15005   */\n      add\n        /* \"#utility.yul\":14987:15015   */\n      and\n        /* \"#utility.yul\":14977:15015   */\n      swap1\n      pop\n        /* \"#utility.yul\":14919:15021   */\n      swap2\n      swap1\n      pop\n      jump\t// out\n        /* \"#utility.yul\":15027:15254   */\n    tag_247:\n        /* \"#utility.yul\":15167:15201   */\n      0x536f6c6f2073652070756564652074656e657220756e20636f63686520706f72\n        /* \"#utility.yul\":15163:15164   */\n      0x00\n        /* \"#utility.yul\":15155:15161   */\n      dup3\n        /* \"#utility.yul\":15151:15165   */\n      add\n        /* \"#utility.yul\":15144:15202   */\n      mstore\n        /* \"#utility.yul\":15236:15246   */\n      0x20706572736f6e61000000000000000000000000000000000000000000000000\n        /* \"#utility.yul\":15231:15233   */\n      0x20\n        /* \"#utility.yul\":15223:15229   */\n      dup3\n        /* \"#utility.yul\":15219:15234   */\n      add\n        /* \"#utility.yul\":15212:15247   */\n      mstore\n        /* \"#utility.yul\":15027:15254   */\n      pop\n      jump\t// out\n        /* \"#utility.yul\":15260:15485   */\n    tag_252:\n        /* \"#utility.yul\":15400:15434   */\n      0x4f776e61626c653a206e6577206f776e657220697320746865207a65726f2061\n        /* \"#utility.yul\":15396:15397   */\n      0x00\n        /* \"#utility.yul\":15388:15394   */\n      dup3\n        /* \"#utility.yul\":15384:15398   */\n      add\n        /* \"#utility.yul\":15377:15435   */\n      mstore\n        /* \"#utility.yul\":15469:15477   */\n      0x6464726573730000000000000000000000000000000000000000000000000000\n        /* \"#utility.yul\":15464:15466   */\n      0x20\n        /* \"#utility.yul\":15456:15462   */\n      dup3\n        /* \"#utility.yul\":15452:15467   */\n      add\n        /* \"#utility.yul\":15445:15478   */\n      mstore\n        /* \"#utility.yul\":15260:15485   */\n      pop\n      jump\t// out\n        /* \"#utility.yul\":15491:15673   */\n    tag_257:\n        /* \"#utility.yul\":15631:15665   */\n      0x4f776e61626c653a2063616c6c6572206973206e6f7420746865206f776e6572\n        /* \"#utility.yul\":15627:15628   */\n      0x00\n        /* \"#utility.yul\":15619:15625   */\n      dup3\n        /* \"#utility.yul\":15615:15629   */\n      add\n        /* \"#utility.yul\":15608:15666   */\n      mstore\n        /* \"#utility.yul\":15491:15673   */\n      pop\n      jump\t// out\n        /* \"#utility.yul\":15679:15850   */\n    tag_262:\n        /* \"#utility.yul\":15819:15842   */\n      0x456c20636f6368652067616e61646f722065733a200000000000000000000000\n        /* \"#utility.yul\":15815:15816   */\n      0x00\n        /* \"#utility.yul\":15807:15813   */\n      dup3\n        /* \"#utility.yul\":15803:15817   */\n      add\n        /* \"#utility.yul\":15796:15843   */\n      mstore\n        /* \"#utility.yul\":15679:15850   */\n      pop\n      jump\t// out\n        /* \"#utility.yul\":15856:16026   */\n    tag_267:\n        /* \"#utility.yul\":15996:16018   */\n      0x4c6c656e616e646f20656c206465706f7369746f000000000000000000000000\n        /* \"#utility.yul\":15992:15993   */\n      0x00\n        /* \"#utility.yul\":15984:15990   */\n      dup3\n        /* \"#utility.yul\":15980:15994   */\n      add\n        /* \"#utility.yul\":15973:16019   */\n      mstore\n        /* \"#utility.yul\":15856:16026   */\n      pop\n      jump\t// out\n        /* \"#utility.yul\":16032:16154   */\n    tag_196:\n        /* \"#utility.yul\":16105:16129   */\n      tag_377\n        /* \"#utility.yul\":16123:16128   */\n      dup2\n        /* \"#utility.yul\":16105:16129   */\n      tag_232\n      jump\t// in\n    tag_377:\n        /* \"#utility.yul\":16098:16103   */\n      dup2\n        /* \"#utility.yul\":16095:16130   */\n      eq\n        /* \"#utility.yul\":16085:16148   */\n      tag_378\n      jumpi\n        /* \"#utility.yul\":16144:16145   */\n      0x00\n        /* \"#utility.yul\":16141:16142   */\n      dup1\n        /* \"#utility.yul\":16134:16146   */\n      revert\n        /* \"#utility.yul\":16085:16148   */\n    tag_378:\n        /* \"#utility.yul\":16032:16154   */\n      pop\n      jump\t// out\n        /* \"#utility.yul\":16160:16282   */\n    tag_206:\n        /* \"#utility.yul\":16233:16257   */\n      tag_380\n        /* \"#utility.yul\":16251:16256   */\n      dup2\n        /* \"#utility.yul\":16233:16257   */\n      tag_271\n      jump\t// in\n    tag_380:\n        /* \"#utility.yul\":16226:16231   */\n      dup2\n        /* \"#utility.yul\":16223:16258   */\n      eq\n        /* \"#utility.yul\":16213:16276   */\n      tag_381\n      jumpi\n        /* \"#utility.yul\":16272:16273   */\n      0x00\n        /* \"#utility.yul\":16269:16270   */\n      dup1\n        /* \"#utility.yul\":16262:16274   */\n      revert\n        /* \"#utility.yul\":16213:16276   */\n    tag_381:\n        /* \"#utility.yul\":16160:16282   */\n      pop\n      jump\t// out\n\n    auxdata: 0xa264697066735822122062e44e87f9b867b8cfe1bb39d3d06331087972c2fbc2a4591c8a6a0459738cd564736f6c63430008070033\n}\n",
				"bytecode": {
					"linkReferences": {},
					"object": "608060405260006001556000600255603c60035534801561001f57600080fd5b5061003c61003161004160201b60201c565b61004960201b60201c565b61010d565b600033905090565b60008060009054906101000a900473ffffffffffffffffffffffffffffffffffffffff169050816000806101000a81548173ffffffffffffffffffffffffffffffffffffffff021916908373ffffffffffffffffffffffffffffffffffffffff1602179055508173ffffffffffffffffffffffffffffffffffffffff168173ffffffffffffffffffffffffffffffffffffffff167f8be0079c531659141344cd1fd0a4f28419497f9722a3daafe3b4186f6b6457e060405160405180910390a35050565b6116c58061011c6000396000f3fe6080604052600436106100865760003560e01c80638da5cb5b116100595780638da5cb5b1461014c578063d735573d14610177578063e1f0e680146101ba578063f1413763146101e5578063f2fde38b1461021057610086565b80631c6743e41461008b5780632458c544146100c85780636b6f049414610105578063715018a614610135575b600080fd5b34801561009757600080fd5b506100b260048036038101906100ad9190610df2565b610239565b6040516100bf91906111bc565b60405180910390f35b3480156100d457600080fd5b506100ef60048036038101906100ea9190610e1f565b610251565b6040516100fc91906111bc565b60405180910390f35b61011f600480360381019061011a9190610ec6565b6104a1565b60405161012c91906110ec565b60405180910390f35b34801561014157600080fd5b5061014a610735565b005b34801561015857600080fd5b506101616107bd565b60405161016e919061104d565b60405180910390f35b34801561018357600080fd5b5061019e60048036038101906101999190610ec6565b6107e6565b6040516101b19796959493929190611068565b60405180910390f35b3480156101c657600080fd5b506101cf6109f0565b6040516101dc91906110ec565b60405180910390f35b3480156101f157600080fd5b506101fa610a2a565b60405161020791906111bc565b60405180910390f35b34801561021c57600080fd5b5061023760048036038101906102329190610df2565b610a78565b005b60056020528060005260406000206000915090505481565b60006001600560003373ffffffffffffffffffffffffffffffffffffffff1673ffffffffffffffffffffffffffffffffffffffff16815260200190815260200160002054106102d5576040517f08c379a00000000000000000000000000000000000000000000000000000000081526004016102cc9061110e565b60405180910390fd5b60046040518060e001604052803373ffffffffffffffffffffffffffffffffffffffff16815260200186815260200185815260200184815260200160008152602001600081526020016003544261032c9190611249565b63ffffffff16815250908060018154018082558091505060019003906000526020600020906007020160009091909190915060008201518160000160006101000a81548173ffffffffffffffffffffffffffffffffffffffff021916908373ffffffffffffffffffffffffffffffffffffffff16021790555060208201518160010190805190602001906103c1929190610cb5565b5060408201518160020190805190602001906103de929190610cb5565b5060608201518160030190805190602001906103fb929190610cb5565b506080820151816004015560a0820151816005015560c082015181600601555050600560003373ffffffffffffffffffffffffffffffffffffffff1673ffffffffffffffffffffffffffffffffffffffff168152602001908152602001600020600081548092919061046c906113b4565b919050555060026000815480929190610484906113b4565b91905055506001600254610498919061129f565b90509392505050565b60608134146104af57600080fd5b600160008154809291906104c2906113b4565b91905055506000600480549050426004805490506001546040516020016104eb93929190611010565b6040516020818303038152906040528051906020012060001c61050e9190611407565b905060016000815480929190610523906113b4565b9190505550600060029050600081428360015460405160200161054893929190611010565b6040516020818303038152906040528051906020012060001c61056b9190611407565b905060005b60048054905081101561072b576105a760048281548110610594576105936114c5565b5b9060005260206000209060070201610b70565b6105b057600080fd5b600481815481106105c4576105c36114c5565b5b906000526020600020906007020160000160009054906101000a900473ffffffffffffffffffffffffffffffffffffffff1673ffffffffffffffffffffffffffffffffffffffff163373ffffffffffffffffffffffffffffffffffffffff16141561071857600082141561067b5761063a610b81565b6040518060400160405280600a81526020017f4861732067616e61646f00000000000000000000000000000000000000000000815250945050505050610730565b7fa28482eec3136a2461c6c30c08f71ba279c6c51a2d9c7bea4e50d6d2632f3896846040516106aa919061116e565b60405180910390a1600481815481106106c6576106c56114c5565b5b906000526020600020906007020160050160008154809291906106e8906113b4565b919050555061071760048281548110610704576107036114c5565b5b9060005260206000209060070201610bca565b5b8080610723906113b4565b915050610570565b505050505b919050565b61073d610be9565b73ffffffffffffffffffffffffffffffffffffffff1661075b6107bd565b73ffffffffffffffffffffffffffffffffffffffff16146107b1576040517f08c379a00000000000000000000000000000000000000000000000000000000081526004016107a89061114e565b60405180910390fd5b6107bb6000610bf1565b565b60008060009054906101000a900473ffffffffffffffffffffffffffffffffffffffff16905090565b600481815481106107f657600080fd5b90600052602060002090600702016000915090508060000160009054906101000a900473ffffffffffffffffffffffffffffffffffffffff169080600101805461083f90611351565b80601f016020809104026020016040519081016040528092919081815260200182805461086b90611351565b80156108b85780601f1061088d576101008083540402835291602001916108b8565b820191906000526020600020905b81548152906001019060200180831161089b57829003601f168201915b5050505050908060020180546108cd90611351565b80601f01602080910402602001604051908101604052809291908181526020018280546108f990611351565b80156109465780601f1061091b57610100808354040283529160200191610946565b820191906000526020600020905b81548152906001019060200180831161092957829003601f168201915b50505050509080600301805461095b90611351565b80601f016020809104026020016040519081016040528092919081815260200182805461098790611351565b80156109d45780601f106109a9576101008083540402835291602001916109d4565b820191906000526020600020905b8154815290600101906020018083116109b757829003601f168201915b5050505050908060040154908060050154908060060154905087565b60607f6158fc8f21c8cc73ddf920956cc75d0e8a48b4fc85817a0ba89eb3b6d2a75441604051610a1f9061119c565b60405180910390a190565b600080600290506000814283600154604051602001610a4b93929190611010565b6040516020818303038152906040528051906020012060001c610a6e9190611407565b9050809250505090565b610a80610be9565b73ffffffffffffffffffffffffffffffffffffffff16610a9e6107bd565b73ffffffffffffffffffffffffffffffffffffffff1614610af4576040517f08c379a0000000000000000000000000000000000000000000000000000000008152600401610aeb9061114e565b60405180910390fd5b600073ffffffffffffffffffffffffffffffffffffffff168173ffffffffffffffffffffffffffffffffffffffff161415610b64576040517f08c379a0000000000000000000000000000000000000000000000000000000008152600401610b5b9061112e565b60405180910390fd5b610b6d81610bf1565b50565b600042826006015411159050919050565b3373ffffffffffffffffffffffffffffffffffffffff166108fc479081150290604051600060405180830381858888f19350505050158015610bc7573d6000803e3d6000fd5b50565b60035442610bd89190611249565b63ffffffff16816006018190555050565b600033905090565b60008060009054906101000a900473ffffffffffffffffffffffffffffffffffffffff169050816000806101000a81548173ffffffffffffffffffffffffffffffffffffffff021916908373ffffffffffffffffffffffffffffffffffffffff1602179055508173ffffffffffffffffffffffffffffffffffffffff168173ffffffffffffffffffffffffffffffffffffffff167f8be0079c531659141344cd1fd0a4f28419497f9722a3daafe3b4186f6b6457e060405160405180910390a35050565b828054610cc190611351565b90600052602060002090601f016020900481019282610ce35760008555610d2a565b82601f10610cfc57805160ff1916838001178555610d2a565b82800160010185558215610d2a579182015b82811115610d29578251825591602001919060010190610d0e565b5b509050610d379190610d3b565b5090565b5b80821115610d54576000816000905550600101610d3c565b5090565b6000610d6b610d66846111fc565b6111d7565b905082815260208101848484011115610d8757610d86611528565b5b610d9284828561130f565b509392505050565b600081359050610da981611661565b92915050565b600082601f830112610dc457610dc3611523565b5b8135610dd4848260208601610d58565b91505092915050565b600081359050610dec81611678565b92915050565b600060208284031215610e0857610e07611532565b5b6000610e1684828501610d9a565b91505092915050565b600080600060608486031215610e3857610e37611532565b5b600084013567ffffffffffffffff811115610e5657610e5561152d565b5b610e6286828701610daf565b935050602084013567ffffffffffffffff811115610e8357610e8261152d565b5b610e8f86828701610daf565b925050604084013567ffffffffffffffff811115610eb057610eaf61152d565b5b610ebc86828701610daf565b9150509250925092565b600060208284031215610edc57610edb611532565b5b6000610eea84828501610ddd565b91505092915050565b610efc816112d3565b82525050565b6000610f0d8261122d565b610f178185611238565b9350610f2781856020860161131e565b610f3081611537565b840191505092915050565b6000610f48602883611238565b9150610f5382611548565b604082019050919050565b6000610f6b602683611238565b9150610f7682611597565b604082019050919050565b6000610f8e602083611238565b9150610f99826115e6565b602082019050919050565b6000610fb1601583611238565b9150610fbc8261160f565b602082019050919050565b6000610fd4601483611238565b9150610fdf82611638565b602082019050919050565b610ff381611305565b82525050565b61100a61100582611305565b6113fd565b82525050565b600061101c8286610ff9565b60208201915061102c8285610ff9565b60208201915061103c8284610ff9565b602082019150819050949350505050565b60006020820190506110626000830184610ef3565b92915050565b600060e08201905061107d600083018a610ef3565b818103602083015261108f8189610f02565b905081810360408301526110a38188610f02565b905081810360608301526110b78187610f02565b90506110c66080830186610fea565b6110d360a0830185610fea565b6110e060c0830184610fea565b98975050505050505050565b600060208201905081810360008301526111068184610f02565b905092915050565b6000602082019050818103600083015261112781610f3b565b9050919050565b6000602082019050818103600083015261114781610f5e565b9050919050565b6000602082019050818103600083015261116781610f81565b9050919050565b6000604082019050818103600083015261118781610fa4565b90506111966020830184610fea565b92915050565b600060208201905081810360008301526111b581610fc7565b9050919050565b60006020820190506111d16000830184610fea565b92915050565b60006111e16111f2565b90506111ed8282611383565b919050565b6000604051905090565b600067ffffffffffffffff821115611217576112166114f4565b5b61122082611537565b9050602081019050919050565b600081519050919050565b600082825260208201905092915050565b600061125482611305565b915061125f83611305565b9250827fffffffffffffffffffffffffffffffffffffffffffffffffffffffffffffffff0382111561129457611293611438565b5b828201905092915050565b60006112aa82611305565b91506112b583611305565b9250828210156112c8576112c7611438565b5b828203905092915050565b60006112de826112e5565b9050919050565b600073ffffffffffffffffffffffffffffffffffffffff82169050919050565b6000819050919050565b82818337600083830152505050565b60005b8381101561133c578082015181840152602081019050611321565b8381111561134b576000848401525b50505050565b6000600282049050600182168061136957607f821691505b6020821081141561137d5761137c611496565b5b50919050565b61138c82611537565b810181811067ffffffffffffffff821117156113ab576113aa6114f4565b5b80604052505050565b60006113bf82611305565b91507fffffffffffffffffffffffffffffffffffffffffffffffffffffffffffffffff8214156113f2576113f1611438565b5b600182019050919050565b6000819050919050565b600061141282611305565b915061141d83611305565b92508261142d5761142c611467565b5b828206905092915050565b7f4e487b7100000000000000000000000000000000000000000000000000000000600052601160045260246000fd5b7f4e487b7100000000000000000000000000000000000000000000000000000000600052601260045260246000fd5b7f4e487b7100000000000000000000000000000000000000000000000000000000600052602260045260246000fd5b7f4e487b7100000000000000000000000000000000000000000000000000000000600052603260045260246000fd5b7f4e487b7100000000000000000000000000000000000000000000000000000000600052604160045260246000fd5b600080fd5b600080fd5b600080fd5b600080fd5b6000601f19601f8301169050919050565b7f536f6c6f2073652070756564652074656e657220756e20636f63686520706f7260008201527f20706572736f6e61000000000000000000000000000000000000000000000000602082015250565b7f4f776e61626c653a206e6577206f776e657220697320746865207a65726f206160008201527f6464726573730000000000000000000000000000000000000000000000000000602082015250565b7f4f776e61626c653a2063616c6c6572206973206e6f7420746865206f776e6572600082015250565b7f456c20636f6368652067616e61646f722065733a200000000000000000000000600082015250565b7f4c6c656e616e646f20656c206465706f7369746f000000000000000000000000600082015250565b61166a816112d3565b811461167557600080fd5b50565b61168181611305565b811461168c57600080fd5b5056fea264697066735822122062e44e87f9b867b8cfe1bb39d3d06331087972c2fbc2a4591c8a6a0459738cd564736f6c63430008070033",
					"opcodes": "PUSH1 0x80 PUSH1 0x40 MSTORE PUSH1 0x0 PUSH1 0x1 SSTORE PUSH1 0x0 PUSH1 0x2 SSTORE PUSH1 0x3C PUSH1 0x3 SSTORE CALLVALUE DUP1 ISZERO PUSH2 0x1F JUMPI PUSH1 0x0 DUP1 REVERT JUMPDEST POP PUSH2 0x3C PUSH2 0x31 PUSH2 0x41 PUSH1 0x20 SHL PUSH1 0x20 SHR JUMP JUMPDEST PUSH2 0x49 PUSH1 0x20 SHL PUSH1 0x20 SHR JUMP JUMPDEST PUSH2 0x10D JUMP JUMPDEST PUSH1 0x0 CALLER SWAP1 POP SWAP1 JUMP JUMPDEST PUSH1 0x0 DUP1 PUSH1 0x0 SWAP1 SLOAD SWAP1 PUSH2 0x100 EXP SWAP1 DIV PUSH20 0xFFFFFFFFFFFFFFFFFFFFFFFFFFFFFFFFFFFFFFFF AND SWAP1 POP DUP2 PUSH1 0x0 DUP1 PUSH2 0x100 EXP DUP2 SLOAD DUP2 PUSH20 0xFFFFFFFFFFFFFFFFFFFFFFFFFFFFFFFFFFFFFFFF MUL NOT AND SWAP1 DUP4 PUSH20 0xFFFFFFFFFFFFFFFFFFFFFFFFFFFFFFFFFFFFFFFF AND MUL OR SWAP1 SSTORE POP DUP2 PUSH20 0xFFFFFFFFFFFFFFFFFFFFFFFFFFFFFFFFFFFFFFFF AND DUP2 PUSH20 0xFFFFFFFFFFFFFFFFFFFFFFFFFFFFFFFFFFFFFFFF AND PUSH32 0x8BE0079C531659141344CD1FD0A4F28419497F9722A3DAAFE3B4186F6B6457E0 PUSH1 0x40 MLOAD PUSH1 0x40 MLOAD DUP1 SWAP2 SUB SWAP1 LOG3 POP POP JUMP JUMPDEST PUSH2 0x16C5 DUP1 PUSH2 0x11C PUSH1 0x0 CODECOPY PUSH1 0x0 RETURN INVALID PUSH1 0x80 PUSH1 0x40 MSTORE PUSH1 0x4 CALLDATASIZE LT PUSH2 0x86 JUMPI PUSH1 0x0 CALLDATALOAD PUSH1 0xE0 SHR DUP1 PUSH4 0x8DA5CB5B GT PUSH2 0x59 JUMPI DUP1 PUSH4 0x8DA5CB5B EQ PUSH2 0x14C JUMPI DUP1 PUSH4 0xD735573D EQ PUSH2 0x177 JUMPI DUP1 PUSH4 0xE1F0E680 EQ PUSH2 0x1BA JUMPI DUP1 PUSH4 0xF1413763 EQ PUSH2 0x1E5 JUMPI DUP1 PUSH4 0xF2FDE38B EQ PUSH2 0x210 JUMPI PUSH2 0x86 JUMP JUMPDEST DUP1 PUSH4 0x1C6743E4 EQ PUSH2 0x8B JUMPI DUP1 PUSH4 0x2458C544 EQ PUSH2 0xC8 JUMPI DUP1 PUSH4 0x6B6F0494 EQ PUSH2 0x105 JUMPI DUP1 PUSH4 0x715018A6 EQ PUSH2 0x135 JUMPI JUMPDEST PUSH1 0x0 DUP1 REVERT JUMPDEST CALLVALUE DUP1 ISZERO PUSH2 0x97 JUMPI PUSH1 0x0 DUP1 REVERT JUMPDEST POP PUSH2 0xB2 PUSH1 0x4 DUP1 CALLDATASIZE SUB DUP2 ADD SWAP1 PUSH2 0xAD SWAP2 SWAP1 PUSH2 0xDF2 JUMP JUMPDEST PUSH2 0x239 JUMP JUMPDEST PUSH1 0x40 MLOAD PUSH2 0xBF SWAP2 SWAP1 PUSH2 0x11BC JUMP JUMPDEST PUSH1 0x40 MLOAD DUP1 SWAP2 SUB SWAP1 RETURN JUMPDEST CALLVALUE DUP1 ISZERO PUSH2 0xD4 JUMPI PUSH1 0x0 DUP1 REVERT JUMPDEST POP PUSH2 0xEF PUSH1 0x4 DUP1 CALLDATASIZE SUB DUP2 ADD SWAP1 PUSH2 0xEA SWAP2 SWAP1 PUSH2 0xE1F JUMP JUMPDEST PUSH2 0x251 JUMP JUMPDEST PUSH1 0x40 MLOAD PUSH2 0xFC SWAP2 SWAP1 PUSH2 0x11BC JUMP JUMPDEST PUSH1 0x40 MLOAD DUP1 SWAP2 SUB SWAP1 RETURN JUMPDEST PUSH2 0x11F PUSH1 0x4 DUP1 CALLDATASIZE SUB DUP2 ADD SWAP1 PUSH2 0x11A SWAP2 SWAP1 PUSH2 0xEC6 JUMP JUMPDEST PUSH2 0x4A1 JUMP JUMPDEST PUSH1 0x40 MLOAD PUSH2 0x12C SWAP2 SWAP1 PUSH2 0x10EC JUMP JUMPDEST PUSH1 0x40 MLOAD DUP1 SWAP2 SUB SWAP1 RETURN JUMPDEST CALLVALUE DUP1 ISZERO PUSH2 0x141 JUMPI PUSH1 0x0 DUP1 REVERT JUMPDEST POP PUSH2 0x14A PUSH2 0x735 JUMP JUMPDEST STOP JUMPDEST CALLVALUE DUP1 ISZERO PUSH2 0x158 JUMPI PUSH1 0x0 DUP1 REVERT JUMPDEST POP PUSH2 0x161 PUSH2 0x7BD JUMP JUMPDEST PUSH1 0x40 MLOAD PUSH2 0x16E SWAP2 SWAP1 PUSH2 0x104D JUMP JUMPDEST PUSH1 0x40 MLOAD DUP1 SWAP2 SUB SWAP1 RETURN JUMPDEST CALLVALUE DUP1 ISZERO PUSH2 0x183 JUMPI PUSH1 0x0 DUP1 REVERT JUMPDEST POP PUSH2 0x19E PUSH1 0x4 DUP1 CALLDATASIZE SUB DUP2 ADD SWAP1 PUSH2 0x199 SWAP2 SWAP1 PUSH2 0xEC6 JUMP JUMPDEST PUSH2 0x7E6 JUMP JUMPDEST PUSH1 0x40 MLOAD PUSH2 0x1B1 SWAP8 SWAP7 SWAP6 SWAP5 SWAP4 SWAP3 SWAP2 SWAP1 PUSH2 0x1068 JUMP JUMPDEST PUSH1 0x40 MLOAD DUP1 SWAP2 SUB SWAP1 RETURN JUMPDEST CALLVALUE DUP1 ISZERO PUSH2 0x1C6 JUMPI PUSH1 0x0 DUP1 REVERT JUMPDEST POP PUSH2 0x1CF PUSH2 0x9F0 JUMP JUMPDEST PUSH1 0x40 MLOAD PUSH2 0x1DC SWAP2 SWAP1 PUSH2 0x10EC JUMP JUMPDEST PUSH1 0x40 MLOAD DUP1 SWAP2 SUB SWAP1 RETURN JUMPDEST CALLVALUE DUP1 ISZERO PUSH2 0x1F1 JUMPI PUSH1 0x0 DUP1 REVERT JUMPDEST POP PUSH2 0x1FA PUSH2 0xA2A JUMP JUMPDEST PUSH1 0x40 MLOAD PUSH2 0x207 SWAP2 SWAP1 PUSH2 0x11BC JUMP JUMPDEST PUSH1 0x40 MLOAD DUP1 SWAP2 SUB SWAP1 RETURN JUMPDEST CALLVALUE DUP1 ISZERO PUSH2 0x21C JUMPI PUSH1 0x0 DUP1 REVERT JUMPDEST POP PUSH2 0x237 PUSH1 0x4 DUP1 CALLDATASIZE SUB DUP2 ADD SWAP1 PUSH2 0x232 SWAP2 SWAP1 PUSH2 0xDF2 JUMP JUMPDEST PUSH2 0xA78 JUMP JUMPDEST STOP JUMPDEST PUSH1 0x5 PUSH1 0x20 MSTORE DUP1 PUSH1 0x0 MSTORE PUSH1 0x40 PUSH1 0x0 KECCAK256 PUSH1 0x0 SWAP2 POP SWAP1 POP SLOAD DUP2 JUMP JUMPDEST PUSH1 0x0 PUSH1 0x1 PUSH1 0x5 PUSH1 0x0 CALLER PUSH20 0xFFFFFFFFFFFFFFFFFFFFFFFFFFFFFFFFFFFFFFFF AND PUSH20 0xFFFFFFFFFFFFFFFFFFFFFFFFFFFFFFFFFFFFFFFF AND DUP2 MSTORE PUSH1 0x20 ADD SWAP1 DUP2 MSTORE PUSH1 0x20 ADD PUSH1 0x0 KECCAK256 SLOAD LT PUSH2 0x2D5 JUMPI PUSH1 0x40 MLOAD PUSH32 0x8C379A000000000000000000000000000000000000000000000000000000000 DUP2 MSTORE PUSH1 0x4 ADD PUSH2 0x2CC SWAP1 PUSH2 0x110E JUMP JUMPDEST PUSH1 0x40 MLOAD DUP1 SWAP2 SUB SWAP1 REVERT JUMPDEST PUSH1 0x4 PUSH1 0x40 MLOAD DUP1 PUSH1 0xE0 ADD PUSH1 0x40 MSTORE DUP1 CALLER PUSH20 0xFFFFFFFFFFFFFFFFFFFFFFFFFFFFFFFFFFFFFFFF AND DUP2 MSTORE PUSH1 0x20 ADD DUP7 DUP2 MSTORE PUSH1 0x20 ADD DUP6 DUP2 MSTORE PUSH1 0x20 ADD DUP5 DUP2 MSTORE PUSH1 0x20 ADD PUSH1 0x0 DUP2 MSTORE PUSH1 0x20 ADD PUSH1 0x0 DUP2 MSTORE PUSH1 0x20 ADD PUSH1 0x3 SLOAD TIMESTAMP PUSH2 0x32C SWAP2 SWAP1 PUSH2 0x1249 JUMP JUMPDEST PUSH4 0xFFFFFFFF AND DUP2 MSTORE POP SWAP1 DUP1 PUSH1 0x1 DUP2 SLOAD ADD DUP1 DUP3 SSTORE DUP1 SWAP2 POP POP PUSH1 0x1 SWAP1 SUB SWAP1 PUSH1 0x0 MSTORE PUSH1 0x20 PUSH1 0x0 KECCAK256 SWAP1 PUSH1 0x7 MUL ADD PUSH1 0x0 SWAP1 SWAP2 SWAP1 SWAP2 SWAP1 SWAP2 POP PUSH1 0x0 DUP3 ADD MLOAD DUP2 PUSH1 0x0 ADD PUSH1 0x0 PUSH2 0x100 EXP DUP2 SLOAD DUP2 PUSH20 0xFFFFFFFFFFFFFFFFFFFFFFFFFFFFFFFFFFFFFFFF MUL NOT AND SWAP1 DUP4 PUSH20 0xFFFFFFFFFFFFFFFFFFFFFFFFFFFFFFFFFFFFFFFF AND MUL OR SWAP1 SSTORE POP PUSH1 0x20 DUP3 ADD MLOAD DUP2 PUSH1 0x1 ADD SWAP1 DUP1 MLOAD SWAP1 PUSH1 0x20 ADD SWAP1 PUSH2 0x3C1 SWAP3 SWAP2 SWAP1 PUSH2 0xCB5 JUMP JUMPDEST POP PUSH1 0x40 DUP3 ADD MLOAD DUP2 PUSH1 0x2 ADD SWAP1 DUP1 MLOAD SWAP1 PUSH1 0x20 ADD SWAP1 PUSH2 0x3DE SWAP3 SWAP2 SWAP1 PUSH2 0xCB5 JUMP JUMPDEST POP PUSH1 0x60 DUP3 ADD MLOAD DUP2 PUSH1 0x3 ADD SWAP1 DUP1 MLOAD SWAP1 PUSH1 0x20 ADD SWAP1 PUSH2 0x3FB SWAP3 SWAP2 SWAP1 PUSH2 0xCB5 JUMP JUMPDEST POP PUSH1 0x80 DUP3 ADD MLOAD DUP2 PUSH1 0x4 ADD SSTORE PUSH1 0xA0 DUP3 ADD MLOAD DUP2 PUSH1 0x5 ADD SSTORE PUSH1 0xC0 DUP3 ADD MLOAD DUP2 PUSH1 0x6 ADD SSTORE POP POP PUSH1 0x5 PUSH1 0x0 CALLER PUSH20 0xFFFFFFFFFFFFFFFFFFFFFFFFFFFFFFFFFFFFFFFF AND PUSH20 0xFFFFFFFFFFFFFFFFFFFFFFFFFFFFFFFFFFFFFFFF AND DUP2 MSTORE PUSH1 0x20 ADD SWAP1 DUP2 MSTORE PUSH1 0x20 ADD PUSH1 0x0 KECCAK256 PUSH1 0x0 DUP2 SLOAD DUP1 SWAP3 SWAP2 SWAP1 PUSH2 0x46C SWAP1 PUSH2 0x13B4 JUMP JUMPDEST SWAP2 SWAP1 POP SSTORE POP PUSH1 0x2 PUSH1 0x0 DUP2 SLOAD DUP1 SWAP3 SWAP2 SWAP1 PUSH2 0x484 SWAP1 PUSH2 0x13B4 JUMP JUMPDEST SWAP2 SWAP1 POP SSTORE POP PUSH1 0x1 PUSH1 0x2 SLOAD PUSH2 0x498 SWAP2 SWAP1 PUSH2 0x129F JUMP JUMPDEST SWAP1 POP SWAP4 SWAP3 POP POP POP JUMP JUMPDEST PUSH1 0x60 DUP2 CALLVALUE EQ PUSH2 0x4AF JUMPI PUSH1 0x0 DUP1 REVERT JUMPDEST PUSH1 0x1 PUSH1 0x0 DUP2 SLOAD DUP1 SWAP3 SWAP2 SWAP1 PUSH2 0x4C2 SWAP1 PUSH2 0x13B4 JUMP JUMPDEST SWAP2 SWAP1 POP SSTORE POP PUSH1 0x0 PUSH1 0x4 DUP1 SLOAD SWAP1 POP TIMESTAMP PUSH1 0x4 DUP1 SLOAD SWAP1 POP PUSH1 0x1 SLOAD PUSH1 0x40 MLOAD PUSH1 0x20 ADD PUSH2 0x4EB SWAP4 SWAP3 SWAP2 SWAP1 PUSH2 0x1010 JUMP JUMPDEST PUSH1 0x40 MLOAD PUSH1 0x20 DUP2 DUP4 SUB SUB DUP2 MSTORE SWAP1 PUSH1 0x40 MSTORE DUP1 MLOAD SWAP1 PUSH1 0x20 ADD KECCAK256 PUSH1 0x0 SHR PUSH2 0x50E SWAP2 SWAP1 PUSH2 0x1407 JUMP JUMPDEST SWAP1 POP PUSH1 0x1 PUSH1 0x0 DUP2 SLOAD DUP1 SWAP3 SWAP2 SWAP1 PUSH2 0x523 SWAP1 PUSH2 0x13B4 JUMP JUMPDEST SWAP2 SWAP1 POP SSTORE POP PUSH1 0x0 PUSH1 0x2 SWAP1 POP PUSH1 0x0 DUP2 TIMESTAMP DUP4 PUSH1 0x1 SLOAD PUSH1 0x40 MLOAD PUSH1 0x20 ADD PUSH2 0x548 SWAP4 SWAP3 SWAP2 SWAP1 PUSH2 0x1010 JUMP JUMPDEST PUSH1 0x40 MLOAD PUSH1 0x20 DUP2 DUP4 SUB SUB DUP2 MSTORE SWAP1 PUSH1 0x40 MSTORE DUP1 MLOAD SWAP1 PUSH1 0x20 ADD KECCAK256 PUSH1 0x0 SHR PUSH2 0x56B SWAP2 SWAP1 PUSH2 0x1407 JUMP JUMPDEST SWAP1 POP PUSH1 0x0 JUMPDEST PUSH1 0x4 DUP1 SLOAD SWAP1 POP DUP2 LT ISZERO PUSH2 0x72B JUMPI PUSH2 0x5A7 PUSH1 0x4 DUP3 DUP2 SLOAD DUP2 LT PUSH2 0x594 JUMPI PUSH2 0x593 PUSH2 0x14C5 JUMP JUMPDEST JUMPDEST SWAP1 PUSH1 0x0 MSTORE PUSH1 0x20 PUSH1 0x0 KECCAK256 SWAP1 PUSH1 0x7 MUL ADD PUSH2 0xB70 JUMP JUMPDEST PUSH2 0x5B0 JUMPI PUSH1 0x0 DUP1 REVERT JUMPDEST PUSH1 0x4 DUP2 DUP2 SLOAD DUP2 LT PUSH2 0x5C4 JUMPI PUSH2 0x5C3 PUSH2 0x14C5 JUMP JUMPDEST JUMPDEST SWAP1 PUSH1 0x0 MSTORE PUSH1 0x20 PUSH1 0x0 KECCAK256 SWAP1 PUSH1 0x7 MUL ADD PUSH1 0x0 ADD PUSH1 0x0 SWAP1 SLOAD SWAP1 PUSH2 0x100 EXP SWAP1 DIV PUSH20 0xFFFFFFFFFFFFFFFFFFFFFFFFFFFFFFFFFFFFFFFF AND PUSH20 0xFFFFFFFFFFFFFFFFFFFFFFFFFFFFFFFFFFFFFFFF AND CALLER PUSH20 0xFFFFFFFFFFFFFFFFFFFFFFFFFFFFFFFFFFFFFFFF AND EQ ISZERO PUSH2 0x718 JUMPI PUSH1 0x0 DUP3 EQ ISZERO PUSH2 0x67B JUMPI PUSH2 0x63A PUSH2 0xB81 JUMP JUMPDEST PUSH1 0x40 MLOAD DUP1 PUSH1 0x40 ADD PUSH1 0x40 MSTORE DUP1 PUSH1 0xA DUP2 MSTORE PUSH1 0x20 ADD PUSH32 0x4861732067616E61646F00000000000000000000000000000000000000000000 DUP2 MSTORE POP SWAP5 POP POP POP POP POP PUSH2 0x730 JUMP JUMPDEST PUSH32 0xA28482EEC3136A2461C6C30C08F71BA279C6C51A2D9C7BEA4E50D6D2632F3896 DUP5 PUSH1 0x40 MLOAD PUSH2 0x6AA SWAP2 SWAP1 PUSH2 0x116E JUMP JUMPDEST PUSH1 0x40 MLOAD DUP1 SWAP2 SUB SWAP1 LOG1 PUSH1 0x4 DUP2 DUP2 SLOAD DUP2 LT PUSH2 0x6C6 JUMPI PUSH2 0x6C5 PUSH2 0x14C5 JUMP JUMPDEST JUMPDEST SWAP1 PUSH1 0x0 MSTORE PUSH1 0x20 PUSH1 0x0 KECCAK256 SWAP1 PUSH1 0x7 MUL ADD PUSH1 0x5 ADD PUSH1 0x0 DUP2 SLOAD DUP1 SWAP3 SWAP2 SWAP1 PUSH2 0x6E8 SWAP1 PUSH2 0x13B4 JUMP JUMPDEST SWAP2 SWAP1 POP SSTORE POP PUSH2 0x717 PUSH1 0x4 DUP3 DUP2 SLOAD DUP2 LT PUSH2 0x704 JUMPI PUSH2 0x703 PUSH2 0x14C5 JUMP JUMPDEST JUMPDEST SWAP1 PUSH1 0x0 MSTORE PUSH1 0x20 PUSH1 0x0 KECCAK256 SWAP1 PUSH1 0x7 MUL ADD PUSH2 0xBCA JUMP JUMPDEST JUMPDEST DUP1 DUP1 PUSH2 0x723 SWAP1 PUSH2 0x13B4 JUMP JUMPDEST SWAP2 POP POP PUSH2 0x570 JUMP JUMPDEST POP POP POP POP JUMPDEST SWAP2 SWAP1 POP JUMP JUMPDEST PUSH2 0x73D PUSH2 0xBE9 JUMP JUMPDEST PUSH20 0xFFFFFFFFFFFFFFFFFFFFFFFFFFFFFFFFFFFFFFFF AND PUSH2 0x75B PUSH2 0x7BD JUMP JUMPDEST PUSH20 0xFFFFFFFFFFFFFFFFFFFFFFFFFFFFFFFFFFFFFFFF AND EQ PUSH2 0x7B1 JUMPI PUSH1 0x40 MLOAD PUSH32 0x8C379A000000000000000000000000000000000000000000000000000000000 DUP2 MSTORE PUSH1 0x4 ADD PUSH2 0x7A8 SWAP1 PUSH2 0x114E JUMP JUMPDEST PUSH1 0x40 MLOAD DUP1 SWAP2 SUB SWAP1 REVERT JUMPDEST PUSH2 0x7BB PUSH1 0x0 PUSH2 0xBF1 JUMP JUMPDEST JUMP JUMPDEST PUSH1 0x0 DUP1 PUSH1 0x0 SWAP1 SLOAD SWAP1 PUSH2 0x100 EXP SWAP1 DIV PUSH20 0xFFFFFFFFFFFFFFFFFFFFFFFFFFFFFFFFFFFFFFFF AND SWAP1 POP SWAP1 JUMP JUMPDEST PUSH1 0x4 DUP2 DUP2 SLOAD DUP2 LT PUSH2 0x7F6 JUMPI PUSH1 0x0 DUP1 REVERT JUMPDEST SWAP1 PUSH1 0x0 MSTORE PUSH1 0x20 PUSH1 0x0 KECCAK256 SWAP1 PUSH1 0x7 MUL ADD PUSH1 0x0 SWAP2 POP SWAP1 POP DUP1 PUSH1 0x0 ADD PUSH1 0x0 SWAP1 SLOAD SWAP1 PUSH2 0x100 EXP SWAP1 DIV PUSH20 0xFFFFFFFFFFFFFFFFFFFFFFFFFFFFFFFFFFFFFFFF AND SWAP1 DUP1 PUSH1 0x1 ADD DUP1 SLOAD PUSH2 0x83F SWAP1 PUSH2 0x1351 JUMP JUMPDEST DUP1 PUSH1 0x1F ADD PUSH1 0x20 DUP1 SWAP2 DIV MUL PUSH1 0x20 ADD PUSH1 0x40 MLOAD SWAP1 DUP2 ADD PUSH1 0x40 MSTORE DUP1 SWAP3 SWAP2 SWAP1 DUP2 DUP2 MSTORE PUSH1 0x20 ADD DUP3 DUP1 SLOAD PUSH2 0x86B SWAP1 PUSH2 0x1351 JUMP JUMPDEST DUP1 ISZERO PUSH2 0x8B8 JUMPI DUP1 PUSH1 0x1F LT PUSH2 0x88D JUMPI PUSH2 0x100 DUP1 DUP4 SLOAD DIV MUL DUP4 MSTORE SWAP2 PUSH1 0x20 ADD SWAP2 PUSH2 0x8B8 JUMP JUMPDEST DUP3 ADD SWAP2 SWAP1 PUSH1 0x0 MSTORE PUSH1 0x20 PUSH1 0x0 KECCAK256 SWAP1 JUMPDEST DUP2 SLOAD DUP2 MSTORE SWAP1 PUSH1 0x1 ADD SWAP1 PUSH1 0x20 ADD DUP1 DUP4 GT PUSH2 0x89B JUMPI DUP3 SWAP1 SUB PUSH1 0x1F AND DUP3 ADD SWAP2 JUMPDEST POP POP POP POP POP SWAP1 DUP1 PUSH1 0x2 ADD DUP1 SLOAD PUSH2 0x8CD SWAP1 PUSH2 0x1351 JUMP JUMPDEST DUP1 PUSH1 0x1F ADD PUSH1 0x20 DUP1 SWAP2 DIV MUL PUSH1 0x20 ADD PUSH1 0x40 MLOAD SWAP1 DUP2 ADD PUSH1 0x40 MSTORE DUP1 SWAP3 SWAP2 SWAP1 DUP2 DUP2 MSTORE PUSH1 0x20 ADD DUP3 DUP1 SLOAD PUSH2 0x8F9 SWAP1 PUSH2 0x1351 JUMP JUMPDEST DUP1 ISZERO PUSH2 0x946 JUMPI DUP1 PUSH1 0x1F LT PUSH2 0x91B JUMPI PUSH2 0x100 DUP1 DUP4 SLOAD DIV MUL DUP4 MSTORE SWAP2 PUSH1 0x20 ADD SWAP2 PUSH2 0x946 JUMP JUMPDEST DUP3 ADD SWAP2 SWAP1 PUSH1 0x0 MSTORE PUSH1 0x20 PUSH1 0x0 KECCAK256 SWAP1 JUMPDEST DUP2 SLOAD DUP2 MSTORE SWAP1 PUSH1 0x1 ADD SWAP1 PUSH1 0x20 ADD DUP1 DUP4 GT PUSH2 0x929 JUMPI DUP3 SWAP1 SUB PUSH1 0x1F AND DUP3 ADD SWAP2 JUMPDEST POP POP POP POP POP SWAP1 DUP1 PUSH1 0x3 ADD DUP1 SLOAD PUSH2 0x95B SWAP1 PUSH2 0x1351 JUMP JUMPDEST DUP1 PUSH1 0x1F ADD PUSH1 0x20 DUP1 SWAP2 DIV MUL PUSH1 0x20 ADD PUSH1 0x40 MLOAD SWAP1 DUP2 ADD PUSH1 0x40 MSTORE DUP1 SWAP3 SWAP2 SWAP1 DUP2 DUP2 MSTORE PUSH1 0x20 ADD DUP3 DUP1 SLOAD PUSH2 0x987 SWAP1 PUSH2 0x1351 JUMP JUMPDEST DUP1 ISZERO PUSH2 0x9D4 JUMPI DUP1 PUSH1 0x1F LT PUSH2 0x9A9 JUMPI PUSH2 0x100 DUP1 DUP4 SLOAD DIV MUL DUP4 MSTORE SWAP2 PUSH1 0x20 ADD SWAP2 PUSH2 0x9D4 JUMP JUMPDEST DUP3 ADD SWAP2 SWAP1 PUSH1 0x0 MSTORE PUSH1 0x20 PUSH1 0x0 KECCAK256 SWAP1 JUMPDEST DUP2 SLOAD DUP2 MSTORE SWAP1 PUSH1 0x1 ADD SWAP1 PUSH1 0x20 ADD DUP1 DUP4 GT PUSH2 0x9B7 JUMPI DUP3 SWAP1 SUB PUSH1 0x1F AND DUP3 ADD SWAP2 JUMPDEST POP POP POP POP POP SWAP1 DUP1 PUSH1 0x4 ADD SLOAD SWAP1 DUP1 PUSH1 0x5 ADD SLOAD SWAP1 DUP1 PUSH1 0x6 ADD SLOAD SWAP1 POP DUP8 JUMP JUMPDEST PUSH1 0x60 PUSH32 0x6158FC8F21C8CC73DDF920956CC75D0E8A48B4FC85817A0BA89EB3B6D2A75441 PUSH1 0x40 MLOAD PUSH2 0xA1F SWAP1 PUSH2 0x119C JUMP JUMPDEST PUSH1 0x40 MLOAD DUP1 SWAP2 SUB SWAP1 LOG1 SWAP1 JUMP JUMPDEST PUSH1 0x0 DUP1 PUSH1 0x2 SWAP1 POP PUSH1 0x0 DUP2 TIMESTAMP DUP4 PUSH1 0x1 SLOAD PUSH1 0x40 MLOAD PUSH1 0x20 ADD PUSH2 0xA4B SWAP4 SWAP3 SWAP2 SWAP1 PUSH2 0x1010 JUMP JUMPDEST PUSH1 0x40 MLOAD PUSH1 0x20 DUP2 DUP4 SUB SUB DUP2 MSTORE SWAP1 PUSH1 0x40 MSTORE DUP1 MLOAD SWAP1 PUSH1 0x20 ADD KECCAK256 PUSH1 0x0 SHR PUSH2 0xA6E SWAP2 SWAP1 PUSH2 0x1407 JUMP JUMPDEST SWAP1 POP DUP1 SWAP3 POP POP POP SWAP1 JUMP JUMPDEST PUSH2 0xA80 PUSH2 0xBE9 JUMP JUMPDEST PUSH20 0xFFFFFFFFFFFFFFFFFFFFFFFFFFFFFFFFFFFFFFFF AND PUSH2 0xA9E PUSH2 0x7BD JUMP JUMPDEST PUSH20 0xFFFFFFFFFFFFFFFFFFFFFFFFFFFFFFFFFFFFFFFF AND EQ PUSH2 0xAF4 JUMPI PUSH1 0x40 MLOAD PUSH32 0x8C379A000000000000000000000000000000000000000000000000000000000 DUP2 MSTORE PUSH1 0x4 ADD PUSH2 0xAEB SWAP1 PUSH2 0x114E JUMP JUMPDEST PUSH1 0x40 MLOAD DUP1 SWAP2 SUB SWAP1 REVERT JUMPDEST PUSH1 0x0 PUSH20 0xFFFFFFFFFFFFFFFFFFFFFFFFFFFFFFFFFFFFFFFF AND DUP2 PUSH20 0xFFFFFFFFFFFFFFFFFFFFFFFFFFFFFFFFFFFFFFFF AND EQ ISZERO PUSH2 0xB64 JUMPI PUSH1 0x40 MLOAD PUSH32 0x8C379A000000000000000000000000000000000000000000000000000000000 DUP2 MSTORE PUSH1 0x4 ADD PUSH2 0xB5B SWAP1 PUSH2 0x112E JUMP JUMPDEST PUSH1 0x40 MLOAD DUP1 SWAP2 SUB SWAP1 REVERT JUMPDEST PUSH2 0xB6D DUP2 PUSH2 0xBF1 JUMP JUMPDEST POP JUMP JUMPDEST PUSH1 0x0 TIMESTAMP DUP3 PUSH1 0x6 ADD SLOAD GT ISZERO SWAP1 POP SWAP2 SWAP1 POP JUMP JUMPDEST CALLER PUSH20 0xFFFFFFFFFFFFFFFFFFFFFFFFFFFFFFFFFFFFFFFF AND PUSH2 0x8FC SELFBALANCE SWAP1 DUP2 ISZERO MUL SWAP1 PUSH1 0x40 MLOAD PUSH1 0x0 PUSH1 0x40 MLOAD DUP1 DUP4 SUB DUP2 DUP6 DUP9 DUP9 CALL SWAP4 POP POP POP POP ISZERO DUP1 ISZERO PUSH2 0xBC7 JUMPI RETURNDATASIZE PUSH1 0x0 DUP1 RETURNDATACOPY RETURNDATASIZE PUSH1 0x0 REVERT JUMPDEST POP JUMP JUMPDEST PUSH1 0x3 SLOAD TIMESTAMP PUSH2 0xBD8 SWAP2 SWAP1 PUSH2 0x1249 JUMP JUMPDEST PUSH4 0xFFFFFFFF AND DUP2 PUSH1 0x6 ADD DUP2 SWAP1 SSTORE POP POP JUMP JUMPDEST PUSH1 0x0 CALLER SWAP1 POP SWAP1 JUMP JUMPDEST PUSH1 0x0 DUP1 PUSH1 0x0 SWAP1 SLOAD SWAP1 PUSH2 0x100 EXP SWAP1 DIV PUSH20 0xFFFFFFFFFFFFFFFFFFFFFFFFFFFFFFFFFFFFFFFF AND SWAP1 POP DUP2 PUSH1 0x0 DUP1 PUSH2 0x100 EXP DUP2 SLOAD DUP2 PUSH20 0xFFFFFFFFFFFFFFFFFFFFFFFFFFFFFFFFFFFFFFFF MUL NOT AND SWAP1 DUP4 PUSH20 0xFFFFFFFFFFFFFFFFFFFFFFFFFFFFFFFFFFFFFFFF AND MUL OR SWAP1 SSTORE POP DUP2 PUSH20 0xFFFFFFFFFFFFFFFFFFFFFFFFFFFFFFFFFFFFFFFF AND DUP2 PUSH20 0xFFFFFFFFFFFFFFFFFFFFFFFFFFFFFFFFFFFFFFFF AND PUSH32 0x8BE0079C531659141344CD1FD0A4F28419497F9722A3DAAFE3B4186F6B6457E0 PUSH1 0x40 MLOAD PUSH1 0x40 MLOAD DUP1 SWAP2 SUB SWAP1 LOG3 POP POP JUMP JUMPDEST DUP3 DUP1 SLOAD PUSH2 0xCC1 SWAP1 PUSH2 0x1351 JUMP JUMPDEST SWAP1 PUSH1 0x0 MSTORE PUSH1 0x20 PUSH1 0x0 KECCAK256 SWAP1 PUSH1 0x1F ADD PUSH1 0x20 SWAP1 DIV DUP2 ADD SWAP3 DUP3 PUSH2 0xCE3 JUMPI PUSH1 0x0 DUP6 SSTORE PUSH2 0xD2A JUMP JUMPDEST DUP3 PUSH1 0x1F LT PUSH2 0xCFC JUMPI DUP1 MLOAD PUSH1 0xFF NOT AND DUP4 DUP1 ADD OR DUP6 SSTORE PUSH2 0xD2A JUMP JUMPDEST DUP3 DUP1 ADD PUSH1 0x1 ADD DUP6 SSTORE DUP3 ISZERO PUSH2 0xD2A JUMPI SWAP2 DUP3 ADD JUMPDEST DUP3 DUP2 GT ISZERO PUSH2 0xD29 JUMPI DUP3 MLOAD DUP3 SSTORE SWAP2 PUSH1 0x20 ADD SWAP2 SWAP1 PUSH1 0x1 ADD SWAP1 PUSH2 0xD0E JUMP JUMPDEST JUMPDEST POP SWAP1 POP PUSH2 0xD37 SWAP2 SWAP1 PUSH2 0xD3B JUMP JUMPDEST POP SWAP1 JUMP JUMPDEST JUMPDEST DUP1 DUP3 GT ISZERO PUSH2 0xD54 JUMPI PUSH1 0x0 DUP2 PUSH1 0x0 SWAP1 SSTORE POP PUSH1 0x1 ADD PUSH2 0xD3C JUMP JUMPDEST POP SWAP1 JUMP JUMPDEST PUSH1 0x0 PUSH2 0xD6B PUSH2 0xD66 DUP5 PUSH2 0x11FC JUMP JUMPDEST PUSH2 0x11D7 JUMP JUMPDEST SWAP1 POP DUP3 DUP2 MSTORE PUSH1 0x20 DUP2 ADD DUP5 DUP5 DUP5 ADD GT ISZERO PUSH2 0xD87 JUMPI PUSH2 0xD86 PUSH2 0x1528 JUMP JUMPDEST JUMPDEST PUSH2 0xD92 DUP5 DUP3 DUP6 PUSH2 0x130F JUMP JUMPDEST POP SWAP4 SWAP3 POP POP POP JUMP JUMPDEST PUSH1 0x0 DUP2 CALLDATALOAD SWAP1 POP PUSH2 0xDA9 DUP2 PUSH2 0x1661 JUMP JUMPDEST SWAP3 SWAP2 POP POP JUMP JUMPDEST PUSH1 0x0 DUP3 PUSH1 0x1F DUP4 ADD SLT PUSH2 0xDC4 JUMPI PUSH2 0xDC3 PUSH2 0x1523 JUMP JUMPDEST JUMPDEST DUP2 CALLDATALOAD PUSH2 0xDD4 DUP5 DUP3 PUSH1 0x20 DUP7 ADD PUSH2 0xD58 JUMP JUMPDEST SWAP2 POP POP SWAP3 SWAP2 POP POP JUMP JUMPDEST PUSH1 0x0 DUP2 CALLDATALOAD SWAP1 POP PUSH2 0xDEC DUP2 PUSH2 0x1678 JUMP JUMPDEST SWAP3 SWAP2 POP POP JUMP JUMPDEST PUSH1 0x0 PUSH1 0x20 DUP3 DUP5 SUB SLT ISZERO PUSH2 0xE08 JUMPI PUSH2 0xE07 PUSH2 0x1532 JUMP JUMPDEST JUMPDEST PUSH1 0x0 PUSH2 0xE16 DUP5 DUP3 DUP6 ADD PUSH2 0xD9A JUMP JUMPDEST SWAP2 POP POP SWAP3 SWAP2 POP POP JUMP JUMPDEST PUSH1 0x0 DUP1 PUSH1 0x0 PUSH1 0x60 DUP5 DUP7 SUB SLT ISZERO PUSH2 0xE38 JUMPI PUSH2 0xE37 PUSH2 0x1532 JUMP JUMPDEST JUMPDEST PUSH1 0x0 DUP5 ADD CALLDATALOAD PUSH8 0xFFFFFFFFFFFFFFFF DUP2 GT ISZERO PUSH2 0xE56 JUMPI PUSH2 0xE55 PUSH2 0x152D JUMP JUMPDEST JUMPDEST PUSH2 0xE62 DUP7 DUP3 DUP8 ADD PUSH2 0xDAF JUMP JUMPDEST SWAP4 POP POP PUSH1 0x20 DUP5 ADD CALLDATALOAD PUSH8 0xFFFFFFFFFFFFFFFF DUP2 GT ISZERO PUSH2 0xE83 JUMPI PUSH2 0xE82 PUSH2 0x152D JUMP JUMPDEST JUMPDEST PUSH2 0xE8F DUP7 DUP3 DUP8 ADD PUSH2 0xDAF JUMP JUMPDEST SWAP3 POP POP PUSH1 0x40 DUP5 ADD CALLDATALOAD PUSH8 0xFFFFFFFFFFFFFFFF DUP2 GT ISZERO PUSH2 0xEB0 JUMPI PUSH2 0xEAF PUSH2 0x152D JUMP JUMPDEST JUMPDEST PUSH2 0xEBC DUP7 DUP3 DUP8 ADD PUSH2 0xDAF JUMP JUMPDEST SWAP2 POP POP SWAP3 POP SWAP3 POP SWAP3 JUMP JUMPDEST PUSH1 0x0 PUSH1 0x20 DUP3 DUP5 SUB SLT ISZERO PUSH2 0xEDC JUMPI PUSH2 0xEDB PUSH2 0x1532 JUMP JUMPDEST JUMPDEST PUSH1 0x0 PUSH2 0xEEA DUP5 DUP3 DUP6 ADD PUSH2 0xDDD JUMP JUMPDEST SWAP2 POP POP SWAP3 SWAP2 POP POP JUMP JUMPDEST PUSH2 0xEFC DUP2 PUSH2 0x12D3 JUMP JUMPDEST DUP3 MSTORE POP POP JUMP JUMPDEST PUSH1 0x0 PUSH2 0xF0D DUP3 PUSH2 0x122D JUMP JUMPDEST PUSH2 0xF17 DUP2 DUP6 PUSH2 0x1238 JUMP JUMPDEST SWAP4 POP PUSH2 0xF27 DUP2 DUP6 PUSH1 0x20 DUP7 ADD PUSH2 0x131E JUMP JUMPDEST PUSH2 0xF30 DUP2 PUSH2 0x1537 JUMP JUMPDEST DUP5 ADD SWAP2 POP POP SWAP3 SWAP2 POP POP JUMP JUMPDEST PUSH1 0x0 PUSH2 0xF48 PUSH1 0x28 DUP4 PUSH2 0x1238 JUMP JUMPDEST SWAP2 POP PUSH2 0xF53 DUP3 PUSH2 0x1548 JUMP JUMPDEST PUSH1 0x40 DUP3 ADD SWAP1 POP SWAP2 SWAP1 POP JUMP JUMPDEST PUSH1 0x0 PUSH2 0xF6B PUSH1 0x26 DUP4 PUSH2 0x1238 JUMP JUMPDEST SWAP2 POP PUSH2 0xF76 DUP3 PUSH2 0x1597 JUMP JUMPDEST PUSH1 0x40 DUP3 ADD SWAP1 POP SWAP2 SWAP1 POP JUMP JUMPDEST PUSH1 0x0 PUSH2 0xF8E PUSH1 0x20 DUP4 PUSH2 0x1238 JUMP JUMPDEST SWAP2 POP PUSH2 0xF99 DUP3 PUSH2 0x15E6 JUMP JUMPDEST PUSH1 0x20 DUP3 ADD SWAP1 POP SWAP2 SWAP1 POP JUMP JUMPDEST PUSH1 0x0 PUSH2 0xFB1 PUSH1 0x15 DUP4 PUSH2 0x1238 JUMP JUMPDEST SWAP2 POP PUSH2 0xFBC DUP3 PUSH2 0x160F JUMP JUMPDEST PUSH1 0x20 DUP3 ADD SWAP1 POP SWAP2 SWAP1 POP JUMP JUMPDEST PUSH1 0x0 PUSH2 0xFD4 PUSH1 0x14 DUP4 PUSH2 0x1238 JUMP JUMPDEST SWAP2 POP PUSH2 0xFDF DUP3 PUSH2 0x1638 JUMP JUMPDEST PUSH1 0x20 DUP3 ADD SWAP1 POP SWAP2 SWAP1 POP JUMP JUMPDEST PUSH2 0xFF3 DUP2 PUSH2 0x1305 JUMP JUMPDEST DUP3 MSTORE POP POP JUMP JUMPDEST PUSH2 0x100A PUSH2 0x1005 DUP3 PUSH2 0x1305 JUMP JUMPDEST PUSH2 0x13FD JUMP JUMPDEST DUP3 MSTORE POP POP JUMP JUMPDEST PUSH1 0x0 PUSH2 0x101C DUP3 DUP7 PUSH2 0xFF9 JUMP JUMPDEST PUSH1 0x20 DUP3 ADD SWAP2 POP PUSH2 0x102C DUP3 DUP6 PUSH2 0xFF9 JUMP JUMPDEST PUSH1 0x20 DUP3 ADD SWAP2 POP PUSH2 0x103C DUP3 DUP5 PUSH2 0xFF9 JUMP JUMPDEST PUSH1 0x20 DUP3 ADD SWAP2 POP DUP2 SWAP1 POP SWAP5 SWAP4 POP POP POP POP JUMP JUMPDEST PUSH1 0x0 PUSH1 0x20 DUP3 ADD SWAP1 POP PUSH2 0x1062 PUSH1 0x0 DUP4 ADD DUP5 PUSH2 0xEF3 JUMP JUMPDEST SWAP3 SWAP2 POP POP JUMP JUMPDEST PUSH1 0x0 PUSH1 0xE0 DUP3 ADD SWAP1 POP PUSH2 0x107D PUSH1 0x0 DUP4 ADD DUP11 PUSH2 0xEF3 JUMP JUMPDEST DUP2 DUP2 SUB PUSH1 0x20 DUP4 ADD MSTORE PUSH2 0x108F DUP2 DUP10 PUSH2 0xF02 JUMP JUMPDEST SWAP1 POP DUP2 DUP2 SUB PUSH1 0x40 DUP4 ADD MSTORE PUSH2 0x10A3 DUP2 DUP9 PUSH2 0xF02 JUMP JUMPDEST SWAP1 POP DUP2 DUP2 SUB PUSH1 0x60 DUP4 ADD MSTORE PUSH2 0x10B7 DUP2 DUP8 PUSH2 0xF02 JUMP JUMPDEST SWAP1 POP PUSH2 0x10C6 PUSH1 0x80 DUP4 ADD DUP7 PUSH2 0xFEA JUMP JUMPDEST PUSH2 0x10D3 PUSH1 0xA0 DUP4 ADD DUP6 PUSH2 0xFEA JUMP JUMPDEST PUSH2 0x10E0 PUSH1 0xC0 DUP4 ADD DUP5 PUSH2 0xFEA JUMP JUMPDEST SWAP9 SWAP8 POP POP POP POP POP POP POP POP JUMP JUMPDEST PUSH1 0x0 PUSH1 0x20 DUP3 ADD SWAP1 POP DUP2 DUP2 SUB PUSH1 0x0 DUP4 ADD MSTORE PUSH2 0x1106 DUP2 DUP5 PUSH2 0xF02 JUMP JUMPDEST SWAP1 POP SWAP3 SWAP2 POP POP JUMP JUMPDEST PUSH1 0x0 PUSH1 0x20 DUP3 ADD SWAP1 POP DUP2 DUP2 SUB PUSH1 0x0 DUP4 ADD MSTORE PUSH2 0x1127 DUP2 PUSH2 0xF3B JUMP JUMPDEST SWAP1 POP SWAP2 SWAP1 POP JUMP JUMPDEST PUSH1 0x0 PUSH1 0x20 DUP3 ADD SWAP1 POP DUP2 DUP2 SUB PUSH1 0x0 DUP4 ADD MSTORE PUSH2 0x1147 DUP2 PUSH2 0xF5E JUMP JUMPDEST SWAP1 POP SWAP2 SWAP1 POP JUMP JUMPDEST PUSH1 0x0 PUSH1 0x20 DUP3 ADD SWAP1 POP DUP2 DUP2 SUB PUSH1 0x0 DUP4 ADD MSTORE PUSH2 0x1167 DUP2 PUSH2 0xF81 JUMP JUMPDEST SWAP1 POP SWAP2 SWAP1 POP JUMP JUMPDEST PUSH1 0x0 PUSH1 0x40 DUP3 ADD SWAP1 POP DUP2 DUP2 SUB PUSH1 0x0 DUP4 ADD MSTORE PUSH2 0x1187 DUP2 PUSH2 0xFA4 JUMP JUMPDEST SWAP1 POP PUSH2 0x1196 PUSH1 0x20 DUP4 ADD DUP5 PUSH2 0xFEA JUMP JUMPDEST SWAP3 SWAP2 POP POP JUMP JUMPDEST PUSH1 0x0 PUSH1 0x20 DUP3 ADD SWAP1 POP DUP2 DUP2 SUB PUSH1 0x0 DUP4 ADD MSTORE PUSH2 0x11B5 DUP2 PUSH2 0xFC7 JUMP JUMPDEST SWAP1 POP SWAP2 SWAP1 POP JUMP JUMPDEST PUSH1 0x0 PUSH1 0x20 DUP3 ADD SWAP1 POP PUSH2 0x11D1 PUSH1 0x0 DUP4 ADD DUP5 PUSH2 0xFEA JUMP JUMPDEST SWAP3 SWAP2 POP POP JUMP JUMPDEST PUSH1 0x0 PUSH2 0x11E1 PUSH2 0x11F2 JUMP JUMPDEST SWAP1 POP PUSH2 0x11ED DUP3 DUP3 PUSH2 0x1383 JUMP JUMPDEST SWAP2 SWAP1 POP JUMP JUMPDEST PUSH1 0x0 PUSH1 0x40 MLOAD SWAP1 POP SWAP1 JUMP JUMPDEST PUSH1 0x0 PUSH8 0xFFFFFFFFFFFFFFFF DUP3 GT ISZERO PUSH2 0x1217 JUMPI PUSH2 0x1216 PUSH2 0x14F4 JUMP JUMPDEST JUMPDEST PUSH2 0x1220 DUP3 PUSH2 0x1537 JUMP JUMPDEST SWAP1 POP PUSH1 0x20 DUP2 ADD SWAP1 POP SWAP2 SWAP1 POP JUMP JUMPDEST PUSH1 0x0 DUP2 MLOAD SWAP1 POP SWAP2 SWAP1 POP JUMP JUMPDEST PUSH1 0x0 DUP3 DUP3 MSTORE PUSH1 0x20 DUP3 ADD SWAP1 POP SWAP3 SWAP2 POP POP JUMP JUMPDEST PUSH1 0x0 PUSH2 0x1254 DUP3 PUSH2 0x1305 JUMP JUMPDEST SWAP2 POP PUSH2 0x125F DUP4 PUSH2 0x1305 JUMP JUMPDEST SWAP3 POP DUP3 PUSH32 0xFFFFFFFFFFFFFFFFFFFFFFFFFFFFFFFFFFFFFFFFFFFFFFFFFFFFFFFFFFFFFFFF SUB DUP3 GT ISZERO PUSH2 0x1294 JUMPI PUSH2 0x1293 PUSH2 0x1438 JUMP JUMPDEST JUMPDEST DUP3 DUP3 ADD SWAP1 POP SWAP3 SWAP2 POP POP JUMP JUMPDEST PUSH1 0x0 PUSH2 0x12AA DUP3 PUSH2 0x1305 JUMP JUMPDEST SWAP2 POP PUSH2 0x12B5 DUP4 PUSH2 0x1305 JUMP JUMPDEST SWAP3 POP DUP3 DUP3 LT ISZERO PUSH2 0x12C8 JUMPI PUSH2 0x12C7 PUSH2 0x1438 JUMP JUMPDEST JUMPDEST DUP3 DUP3 SUB SWAP1 POP SWAP3 SWAP2 POP POP JUMP JUMPDEST PUSH1 0x0 PUSH2 0x12DE DUP3 PUSH2 0x12E5 JUMP JUMPDEST SWAP1 POP SWAP2 SWAP1 POP JUMP JUMPDEST PUSH1 0x0 PUSH20 0xFFFFFFFFFFFFFFFFFFFFFFFFFFFFFFFFFFFFFFFF DUP3 AND SWAP1 POP SWAP2 SWAP1 POP JUMP JUMPDEST PUSH1 0x0 DUP2 SWAP1 POP SWAP2 SWAP1 POP JUMP JUMPDEST DUP3 DUP2 DUP4 CALLDATACOPY PUSH1 0x0 DUP4 DUP4 ADD MSTORE POP POP POP JUMP JUMPDEST PUSH1 0x0 JUMPDEST DUP4 DUP2 LT ISZERO PUSH2 0x133C JUMPI DUP1 DUP3 ADD MLOAD DUP2 DUP5 ADD MSTORE PUSH1 0x20 DUP2 ADD SWAP1 POP PUSH2 0x1321 JUMP JUMPDEST DUP4 DUP2 GT ISZERO PUSH2 0x134B JUMPI PUSH1 0x0 DUP5 DUP5 ADD MSTORE JUMPDEST POP POP POP POP JUMP JUMPDEST PUSH1 0x0 PUSH1 0x2 DUP3 DIV SWAP1 POP PUSH1 0x1 DUP3 AND DUP1 PUSH2 0x1369 JUMPI PUSH1 0x7F DUP3 AND SWAP2 POP JUMPDEST PUSH1 0x20 DUP3 LT DUP2 EQ ISZERO PUSH2 0x137D JUMPI PUSH2 0x137C PUSH2 0x1496 JUMP JUMPDEST JUMPDEST POP SWAP2 SWAP1 POP JUMP JUMPDEST PUSH2 0x138C DUP3 PUSH2 0x1537 JUMP JUMPDEST DUP2 ADD DUP2 DUP2 LT PUSH8 0xFFFFFFFFFFFFFFFF DUP3 GT OR ISZERO PUSH2 0x13AB JUMPI PUSH2 0x13AA PUSH2 0x14F4 JUMP JUMPDEST JUMPDEST DUP1 PUSH1 0x40 MSTORE POP POP POP JUMP JUMPDEST PUSH1 0x0 PUSH2 0x13BF DUP3 PUSH2 0x1305 JUMP JUMPDEST SWAP2 POP PUSH32 0xFFFFFFFFFFFFFFFFFFFFFFFFFFFFFFFFFFFFFFFFFFFFFFFFFFFFFFFFFFFFFFFF DUP3 EQ ISZERO PUSH2 0x13F2 JUMPI PUSH2 0x13F1 PUSH2 0x1438 JUMP JUMPDEST JUMPDEST PUSH1 0x1 DUP3 ADD SWAP1 POP SWAP2 SWAP1 POP JUMP JUMPDEST PUSH1 0x0 DUP2 SWAP1 POP SWAP2 SWAP1 POP JUMP JUMPDEST PUSH1 0x0 PUSH2 0x1412 DUP3 PUSH2 0x1305 JUMP JUMPDEST SWAP2 POP PUSH2 0x141D DUP4 PUSH2 0x1305 JUMP JUMPDEST SWAP3 POP DUP3 PUSH2 0x142D JUMPI PUSH2 0x142C PUSH2 0x1467 JUMP JUMPDEST JUMPDEST DUP3 DUP3 MOD SWAP1 POP SWAP3 SWAP2 POP POP JUMP JUMPDEST PUSH32 0x4E487B7100000000000000000000000000000000000000000000000000000000 PUSH1 0x0 MSTORE PUSH1 0x11 PUSH1 0x4 MSTORE PUSH1 0x24 PUSH1 0x0 REVERT JUMPDEST PUSH32 0x4E487B7100000000000000000000000000000000000000000000000000000000 PUSH1 0x0 MSTORE PUSH1 0x12 PUSH1 0x4 MSTORE PUSH1 0x24 PUSH1 0x0 REVERT JUMPDEST PUSH32 0x4E487B7100000000000000000000000000000000000000000000000000000000 PUSH1 0x0 MSTORE PUSH1 0x22 PUSH1 0x4 MSTORE PUSH1 0x24 PUSH1 0x0 REVERT JUMPDEST PUSH32 0x4E487B7100000000000000000000000000000000000000000000000000000000 PUSH1 0x0 MSTORE PUSH1 0x32 PUSH1 0x4 MSTORE PUSH1 0x24 PUSH1 0x0 REVERT JUMPDEST PUSH32 0x4E487B7100000000000000000000000000000000000000000000000000000000 PUSH1 0x0 MSTORE PUSH1 0x41 PUSH1 0x4 MSTORE PUSH1 0x24 PUSH1 0x0 REVERT JUMPDEST PUSH1 0x0 DUP1 REVERT JUMPDEST PUSH1 0x0 DUP1 REVERT JUMPDEST PUSH1 0x0 DUP1 REVERT JUMPDEST PUSH1 0x0 DUP1 REVERT JUMPDEST PUSH1 0x0 PUSH1 0x1F NOT PUSH1 0x1F DUP4 ADD AND SWAP1 POP SWAP2 SWAP1 POP JUMP JUMPDEST PUSH32 0x536F6C6F2073652070756564652074656E657220756E20636F63686520706F72 PUSH1 0x0 DUP3 ADD MSTORE PUSH32 0x20706572736F6E61000000000000000000000000000000000000000000000000 PUSH1 0x20 DUP3 ADD MSTORE POP JUMP JUMPDEST PUSH32 0x4F776E61626C653A206E6577206F776E657220697320746865207A65726F2061 PUSH1 0x0 DUP3 ADD MSTORE PUSH32 0x6464726573730000000000000000000000000000000000000000000000000000 PUSH1 0x20 DUP3 ADD MSTORE POP JUMP JUMPDEST PUSH32 0x4F776E61626C653A2063616C6C6572206973206E6F7420746865206F776E6572 PUSH1 0x0 DUP3 ADD MSTORE POP JUMP JUMPDEST PUSH32 0x456C20636F6368652067616E61646F722065733A200000000000000000000000 PUSH1 0x0 DUP3 ADD MSTORE POP JUMP JUMPDEST PUSH32 0x4C6C656E616E646F20656C206465706F7369746F000000000000000000000000 PUSH1 0x0 DUP3 ADD MSTORE POP JUMP JUMPDEST PUSH2 0x166A DUP2 PUSH2 0x12D3 JUMP JUMPDEST DUP2 EQ PUSH2 0x1675 JUMPI PUSH1 0x0 DUP1 REVERT JUMPDEST POP JUMP JUMPDEST PUSH2 0x1681 DUP2 PUSH2 0x1305 JUMP JUMPDEST DUP2 EQ PUSH2 0x168C JUMPI PUSH1 0x0 DUP1 REVERT JUMPDEST POP JUMP INVALID LOG2 PUSH5 0x6970667358 0x22 SLT KECCAK256 PUSH3 0xE44E87 0xF9 0xB8 PUSH8 0xB8CFE1BB39D3D063 BALANCE ADDMOD PUSH26 0x72C2FBC2A4591C8A6A0459738CD564736F6C6343000807003300 "
				},
				"gasEstimates": {
					"creation": {
						"codeDepositCost": "1165800",
						"executionCost": "infinite",
						"totalCost": "infinite"
					},
					"external": {
						"Apostar(uint256)": "infinite",
						"_depositoVacio()": "infinite",
						"anadirCoche(string,string,string)": "infinite",
						"listaCoches(uint256)": "infinite",
						"numeroAleatorio()": "infinite",
						"numeroCochesPersona(address)": "2815",
						"owner()": "2522",
						"renounceOwnership()": "30441",
						"transferOwnership(address)": "30811"
					},
					"internal": {
						"_depositoLleno(struct CarreraCoches.Coche storage pointer)": "2142",
						"_repostando(struct CarreraCoches.Coche storage pointer)": "infinite",
						"balance()": "infinite"
					}
				},
				"methodIdentifiers": {
					"Apostar(uint256)": "6b6f0494",
					"_depositoVacio()": "e1f0e680",
					"anadirCoche(string,string,string)": "2458c544",
					"listaCoches(uint256)": "d735573d",
					"numeroAleatorio()": "f1413763",
					"numeroCochesPersona(address)": "1c6743e4",
					"owner()": "8da5cb5b",
					"renounceOwnership()": "715018a6",
					"transferOwnership(address)": "f2fde38b"
				}
			},
			"storageLayout": {
				"storage": [
					{
						"astId": 332,
						"contract": "contracts/CarreraCoches/main.sol:CarreraCoches",
						"label": "_owner",
						"offset": 0,
						"slot": "0",
						"type": "t_address"
					},
					{
						"astId": 22,
						"contract": "contracts/CarreraCoches/main.sol:CarreraCoches",
						"label": "randNonce",
						"offset": 0,
						"slot": "1",
						"type": "t_uint256"
					},
					{
						"astId": 25,
						"contract": "contracts/CarreraCoches/main.sol:CarreraCoches",
						"label": "contador",
						"offset": 0,
						"slot": "2",
						"type": "t_uint256"
					},
					{
						"astId": 28,
						"contract": "contracts/CarreraCoches/main.sol:CarreraCoches",
						"label": "cooldown",
						"offset": 0,
						"slot": "3",
						"type": "t_uint256"
					},
					{
						"astId": 32,
						"contract": "contracts/CarreraCoches/main.sol:CarreraCoches",
						"label": "listaCoches",
						"offset": 0,
						"slot": "4",
						"type": "t_array(t_struct(Coche)19_storage)dyn_storage"
					},
					{
						"astId": 46,
						"contract": "contracts/CarreraCoches/main.sol:CarreraCoches",
						"label": "numeroCochesPersona",
						"offset": 0,
						"slot": "5",
						"type": "t_mapping(t_address,t_uint256)"
					}
				],
				"types": {
					"t_address": {
						"encoding": "inplace",
						"label": "address",
						"numberOfBytes": "20"
					},
					"t_array(t_struct(Coche)19_storage)dyn_storage": {
						"base": "t_struct(Coche)19_storage",
						"encoding": "dynamic_array",
						"label": "struct CarreraCoches.Coche[]",
						"numberOfBytes": "32"
					},
					"t_mapping(t_address,t_uint256)": {
						"encoding": "mapping",
						"key": "t_address",
						"label": "mapping(address => uint256)",
						"numberOfBytes": "32",
						"value": "t_uint256"
					},
					"t_string_storage": {
						"encoding": "bytes",
						"label": "string",
						"numberOfBytes": "32"
					},
					"t_struct(Coche)19_storage": {
						"encoding": "inplace",
						"label": "struct CarreraCoches.Coche",
						"members": [
							{
								"astId": 6,
								"contract": "contracts/CarreraCoches/main.sol:CarreraCoches",
								"label": "idPiloto",
								"offset": 0,
								"slot": "0",
								"type": "t_address"
							},
							{
								"astId": 8,
								"contract": "contracts/CarreraCoches/main.sol:CarreraCoches",
								"label": "modelo",
								"offset": 0,
								"slot": "1",
								"type": "t_string_storage"
							},
							{
								"astId": 10,
								"contract": "contracts/CarreraCoches/main.sol:CarreraCoches",
								"label": "marca",
								"offset": 0,
								"slot": "2",
								"type": "t_string_storage"
							},
							{
								"astId": 12,
								"contract": "contracts/CarreraCoches/main.sol:CarreraCoches",
								"label": "nombrePiloto",
								"offset": 0,
								"slot": "3",
								"type": "t_string_storage"
							},
							{
								"astId": 14,
								"contract": "contracts/CarreraCoches/main.sol:CarreraCoches",
								"label": "carrerasGanadas",
								"offset": 0,
								"slot": "4",
								"type": "t_uint256"
							},
							{
								"astId": 16,
								"contract": "contracts/CarreraCoches/main.sol:CarreraCoches",
								"label": "carrerasTotales",
								"offset": 0,
								"slot": "5",
								"type": "t_uint256"
							},
							{
								"astId": 18,
								"contract": "contracts/CarreraCoches/main.sol:CarreraCoches",
								"label": "tiempoEspera",
								"offset": 0,
								"slot": "6",
								"type": "t_uint256"
							}
						],
						"numberOfBytes": "224"
					},
					"t_uint256": {
						"encoding": "inplace",
						"label": "uint256",
						"numberOfBytes": "32"
					}
				}
			},
			"userdoc": {
				"kind": "user",
				"methods": {},
				"version": 1
			}
		}
	}
}