{
	"contracts/CarreraCoches/cocheToken.sol": {
		"CocheToken": {
			"abi": [
				{
					"anonymous": false,
					"inputs": [
						{
							"indexed": true,
							"internalType": "address",
							"name": "_owner",
							"type": "address"
						},
						{
							"indexed": true,
							"internalType": "address",
							"name": "_approved",
							"type": "address"
						},
						{
							"indexed": false,
							"internalType": "uint256",
							"name": "_tokenId",
							"type": "uint256"
						}
					],
					"name": "Approval",
					"type": "event"
				},
				{
					"anonymous": false,
					"inputs": [
						{
							"indexed": true,
							"internalType": "address",
							"name": "previousOwner",
							"type": "address"
						},
						{
							"indexed": true,
							"internalType": "address",
							"name": "newOwner",
							"type": "address"
						}
					],
					"name": "OwnershipTransferred",
					"type": "event"
				},
				{
					"anonymous": false,
					"inputs": [
						{
							"indexed": true,
							"internalType": "address",
							"name": "_from",
							"type": "address"
						},
						{
							"indexed": true,
							"internalType": "address",
							"name": "_to",
							"type": "address"
						},
						{
							"indexed": false,
							"internalType": "uint256",
							"name": "_tokenId",
							"type": "uint256"
						}
					],
					"name": "Transfer",
					"type": "event"
				},
				{
					"anonymous": false,
					"inputs": [
						{
							"indexed": false,
							"internalType": "string",
							"name": "mo",
							"type": "string"
						},
						{
							"indexed": false,
							"internalType": "string",
							"name": "ma",
							"type": "string"
						},
						{
							"indexed": false,
							"internalType": "uint32",
							"name": "niv",
							"type": "uint32"
						},
						{
							"indexed": false,
							"internalType": "uint256",
							"name": "carrGan",
							"type": "uint256"
						}
					],
					"name": "cochePropietario",
					"type": "event"
				},
				{
					"anonymous": false,
					"inputs": [
						{
							"indexed": false,
							"internalType": "uint256",
							"name": "compr",
							"type": "uint256"
						}
					],
					"name": "comprobar",
					"type": "event"
				},
				{
					"anonymous": false,
					"inputs": [
						{
							"indexed": false,
							"internalType": "string",
							"name": "ms",
							"type": "string"
						}
					],
					"name": "confirmacionDepositoLleno",
					"type": "event"
				},
				{
					"anonymous": false,
					"inputs": [
						{
							"indexed": false,
							"internalType": "string",
							"name": "ms",
							"type": "string"
						},
						{
							"indexed": false,
							"internalType": "uint256",
							"name": "res",
							"type": "uint256"
						}
					],
					"name": "mostrarResultado",
					"type": "event"
				},
				{
					"inputs": [
						{
							"internalType": "uint256",
							"name": "dineroApostar",
							"type": "uint256"
						}
					],
					"name": "Apostar",
					"outputs": [
						{
							"internalType": "string",
							"name": "",
							"type": "string"
						}
					],
					"stateMutability": "payable",
					"type": "function"
				},
				{
					"inputs": [],
					"name": "_owner",
					"outputs": [
						{
							"internalType": "address",
							"name": "",
							"type": "address"
						}
					],
					"stateMutability": "view",
					"type": "function"
				},
				{
					"inputs": [
						{
							"internalType": "string",
							"name": "_modelo",
							"type": "string"
						},
						{
							"internalType": "string",
							"name": "_marca",
							"type": "string"
						},
						{
							"internalType": "string",
							"name": "_nombrePiloto",
							"type": "string"
						}
					],
					"name": "anadirCoche",
					"outputs": [
						{
							"internalType": "uint256",
							"name": "",
							"type": "uint256"
						}
					],
					"stateMutability": "nonpayable",
					"type": "function"
				},
				{
					"inputs": [
						{
							"internalType": "address",
							"name": "_to",
							"type": "address"
						},
						{
							"internalType": "uint256",
							"name": "_tokenId",
							"type": "uint256"
						}
					],
					"name": "approve",
					"outputs": [],
					"stateMutability": "nonpayable",
					"type": "function"
				},
				{
					"inputs": [
						{
							"internalType": "address",
							"name": "_owner",
							"type": "address"
						}
					],
					"name": "balanceOf",
					"outputs": [
						{
							"internalType": "uint256",
							"name": "_balance",
							"type": "uint256"
						}
					],
					"stateMutability": "view",
					"type": "function"
				},
				{
					"inputs": [
						{
							"internalType": "uint256",
							"name": "",
							"type": "uint256"
						}
					],
					"name": "cocheDePropietario",
					"outputs": [
						{
							"internalType": "address",
							"name": "",
							"type": "address"
						}
					],
					"stateMutability": "view",
					"type": "function"
				},
				{
					"inputs": [
						{
							"internalType": "uint256",
							"name": "",
							"type": "uint256"
						}
					],
					"name": "listaCoches",
					"outputs": [
						{
							"internalType": "address",
							"name": "idPiloto",
							"type": "address"
						},
						{
							"internalType": "string",
							"name": "modelo",
							"type": "string"
						},
						{
							"internalType": "string",
							"name": "marca",
							"type": "string"
						},
						{
							"internalType": "string",
							"name": "nombrePiloto",
							"type": "string"
						},
						{
							"internalType": "uint256",
							"name": "carrerasGanadas",
							"type": "uint256"
						},
						{
							"internalType": "uint256",
							"name": "carrerasTotales",
							"type": "uint256"
						},
						{
							"internalType": "uint256",
							"name": "tiempoEspera",
							"type": "uint256"
						},
						{
							"internalType": "uint32",
							"name": "nivel",
							"type": "uint32"
						}
					],
					"stateMutability": "view",
					"type": "function"
				},
				{
					"inputs": [
						{
							"internalType": "address",
							"name": "",
							"type": "address"
						}
					],
					"name": "numeroCochesPersona",
					"outputs": [
						{
							"internalType": "uint256",
							"name": "",
							"type": "uint256"
						}
					],
					"stateMutability": "view",
					"type": "function"
				},
				{
					"inputs": [],
					"name": "owner",
					"outputs": [
						{
							"internalType": "address",
							"name": "",
							"type": "address"
						}
					],
					"stateMutability": "view",
					"type": "function"
				},
				{
					"inputs": [
						{
							"internalType": "uint256",
							"name": "_tokenId",
							"type": "uint256"
						}
					],
					"name": "ownerOf",
					"outputs": [
						{
							"internalType": "address",
							"name": "_owner",
							"type": "address"
						}
					],
					"stateMutability": "view",
					"type": "function"
				},
				{
					"inputs": [],
					"name": "renounceOwnership",
					"outputs": [],
					"stateMutability": "nonpayable",
					"type": "function"
				},
				{
					"inputs": [],
					"name": "retirarDinero",
					"outputs": [],
					"stateMutability": "nonpayable",
					"type": "function"
				},
				{
					"inputs": [
						{
							"internalType": "address",
							"name": "_propietario",
							"type": "address"
						}
					],
					"name": "subirDeNivel",
					"outputs": [
						{
							"internalType": "string",
							"name": "",
							"type": "string"
						}
					],
					"stateMutability": "payable",
					"type": "function"
				},
				{
					"inputs": [
						{
							"internalType": "uint256",
							"name": "_tokenId",
							"type": "uint256"
						}
					],
					"name": "takeOwnership",
					"outputs": [],
					"stateMutability": "nonpayable",
					"type": "function"
				},
				{
					"inputs": [
						{
							"internalType": "address",
							"name": "_to",
							"type": "address"
						},
						{
							"internalType": "uint256",
							"name": "_tokenId",
							"type": "uint256"
						}
					],
					"name": "transfer",
					"outputs": [],
					"stateMutability": "nonpayable",
					"type": "function"
				},
				{
					"inputs": [
						{
							"internalType": "address",
							"name": "newOwner",
							"type": "address"
						}
					],
					"name": "transferOwnership",
					"outputs": [],
					"stateMutability": "nonpayable",
					"type": "function"
				},
				{
					"inputs": [
						{
							"internalType": "address",
							"name": "_propietario",
							"type": "address"
						}
					],
					"name": "verCochePropietario",
					"outputs": [],
					"stateMutability": "nonpayable",
					"type": "function"
				}
			],
			"devdoc": {
				"kind": "dev",
				"methods": {
					"owner()": {
						"details": "Returns the address of the current owner."
					},
					"renounceOwnership()": {
						"details": "Leaves the contract without owner. It will not be possible to call `onlyOwner` functions anymore. Can only be called by the current owner. NOTE: Renouncing ownership will leave the contract without an owner, thereby removing any functionality that is only available to the owner."
					},
					"transferOwnership(address)": {
						"details": "Transfers ownership of the contract to a new account (`newOwner`). Can only be called by the current owner."
					}
				},
				"version": 1
			},
			"evm": {
				"assembly": "    /* \"contracts/CarreraCoches/cocheToken.sol\":80:1082  contract CocheToken is CarreraCoches, ERC721 {\r... */\n  mstore(0x40, 0x80)\n    /* \"contracts/CarreraCoches/principal.sol\":370:371  0 */\n  0x00\n    /* \"contracts/CarreraCoches/principal.sol\":353:371  uint randNonce = 0 */\n  0x01\n  sstore\n    /* \"contracts/CarreraCoches/principal.sol\":494:495  0 */\n  0x00\n    /* \"contracts/CarreraCoches/principal.sol\":478:495  uint contador = 0 */\n  0x02\n  sstore\n    /* \"contracts/CarreraCoches/principal.sol\":518:528  60 seconds */\n  0x3c\n    /* \"contracts/CarreraCoches/principal.sol\":502:528  uint cooldown = 60 seconds */\n  0x03\n  sstore\n    /* \"contracts/CarreraCoches/principal.sol\":553:560  1 ether */\n  0x0de0b6b3a7640000\n    /* \"contracts/CarreraCoches/principal.sol\":535:560  uint subirNivel = 1 ether */\n  0x04\n  sstore\n    /* \"contracts/CarreraCoches/cocheToken.sol\":80:1082  contract CocheToken is CarreraCoches, ERC721 {\r... */\n  callvalue\n  dup1\n  iszero\n  tag_1\n  jumpi\n  0x00\n  dup1\n  revert\ntag_1:\n  pop\n    /* \"contracts/CarreraCoches/ownable.sol\":947:979  _transferOwnership(_msgSender()) */\n  tag_4\n    /* \"contracts/CarreraCoches/ownable.sol\":966:978  _msgSender() */\n  tag_5\n    /* \"contracts/CarreraCoches/ownable.sol\":966:976  _msgSender */\n  shl(0x20, tag_6)\n    /* \"contracts/CarreraCoches/ownable.sol\":966:978  _msgSender() */\n  0x20\n  shr\n  jump\t// in\ntag_5:\n    /* \"contracts/CarreraCoches/ownable.sol\":947:965  _transferOwnership */\n  shl(0x20, tag_7)\n    /* \"contracts/CarreraCoches/ownable.sol\":947:979  _transferOwnership(_msgSender()) */\n  0x20\n  shr\n  jump\t// in\ntag_4:\n    /* \"contracts/CarreraCoches/cocheToken.sol\":80:1082  contract CocheToken is CarreraCoches, ERC721 {\r... */\n  jump(tag_8)\n    /* \"contracts/CarreraCoches/utils/Context.sol\":656:754  function _msgSender() internal view virtual returns (address) {\r... */\ntag_6:\n    /* \"contracts/CarreraCoches/utils/Context.sol\":709:716  address */\n  0x00\n    /* \"contracts/CarreraCoches/utils/Context.sol\":736:746  msg.sender */\n  caller\n    /* \"contracts/CarreraCoches/utils/Context.sol\":729:746  return msg.sender */\n  swap1\n  pop\n    /* \"contracts/CarreraCoches/utils/Context.sol\":656:754  function _msgSender() internal view virtual returns (address) {\r... */\n  swap1\n  jump\t// out\n    /* \"contracts/CarreraCoches/ownable.sol\":2338:2529  function _transferOwnership(address newOwner) internal virtual {\r... */\ntag_7:\n    /* \"contracts/CarreraCoches/ownable.sol\":2412:2428  address oldOwner */\n  0x00\n    /* \"contracts/CarreraCoches/ownable.sol\":2431:2437  _owner */\n  dup1\n  0x00\n  swap1\n  sload\n  swap1\n  0x0100\n  exp\n  swap1\n  div\n  0xffffffffffffffffffffffffffffffffffffffff\n  and\n    /* \"contracts/CarreraCoches/ownable.sol\":2412:2437  address oldOwner = _owner */\n  swap1\n  pop\n    /* \"contracts/CarreraCoches/ownable.sol\":2457:2465  newOwner */\n  dup2\n    /* \"contracts/CarreraCoches/ownable.sol\":2448:2454  _owner */\n  0x00\n  dup1\n    /* \"contracts/CarreraCoches/ownable.sol\":2448:2465  _owner = newOwner */\n  0x0100\n  exp\n  dup2\n  sload\n  dup2\n  0xffffffffffffffffffffffffffffffffffffffff\n  mul\n  not\n  and\n  swap1\n  dup4\n  0xffffffffffffffffffffffffffffffffffffffff\n  and\n  mul\n  or\n  swap1\n  sstore\n  pop\n    /* \"contracts/CarreraCoches/ownable.sol\":2512:2520  newOwner */\n  dup2\n    /* \"contracts/CarreraCoches/ownable.sol\":2481:2521  OwnershipTransferred(oldOwner, newOwner) */\n  0xffffffffffffffffffffffffffffffffffffffff\n  and\n    /* \"contracts/CarreraCoches/ownable.sol\":2502:2510  oldOwner */\n  dup2\n    /* \"contracts/CarreraCoches/ownable.sol\":2481:2521  OwnershipTransferred(oldOwner, newOwner) */\n  0xffffffffffffffffffffffffffffffffffffffff\n  and\n  0x8be0079c531659141344cd1fd0a4f28419497f9722a3daafe3b4186f6b6457e0\n  mload(0x40)\n  mload(0x40)\n  dup1\n  swap2\n  sub\n  swap1\n  log3\n    /* \"contracts/CarreraCoches/ownable.sol\":2401:2529  {\r... */\n  pop\n    /* \"contracts/CarreraCoches/ownable.sol\":2338:2529  function _transferOwnership(address newOwner) internal virtual {\r... */\n  pop\n  jump\t// out\n    /* \"contracts/CarreraCoches/cocheToken.sol\":80:1082  contract CocheToken is CarreraCoches, ERC721 {\r... */\ntag_8:\n  dataSize(sub_0)\n  dup1\n  dataOffset(sub_0)\n  0x00\n  codecopy\n  0x00\n  return\nstop\n\nsub_0: assembly {\n        /* \"contracts/CarreraCoches/cocheToken.sol\":80:1082  contract CocheToken is CarreraCoches, ERC721 {\r... */\n      mstore(0x40, 0x80)\n      jumpi(tag_1, lt(calldatasize, 0x04))\n      shr(0xe0, calldataload(0x00))\n      dup1\n      0x715018a6\n      gt\n      tag_19\n      jumpi\n      dup1\n      0xb2bdfa7b\n      gt\n      tag_20\n      jumpi\n      dup1\n      0xb2bdfa7b\n      eq\n      tag_14\n      jumpi\n      dup1\n      0xb2e6ceeb\n      eq\n      tag_15\n      jumpi\n      dup1\n      0xd735573d\n      eq\n      tag_16\n      jumpi\n      dup1\n      0xe172fca8\n      eq\n      tag_17\n      jumpi\n      dup1\n      0xf2fde38b\n      eq\n      tag_18\n      jumpi\n      jump(tag_1)\n    tag_20:\n      dup1\n      0x715018a6\n      eq\n      tag_10\n      jumpi\n      dup1\n      0x858b0554\n      eq\n      tag_11\n      jumpi\n      dup1\n      0x8da5cb5b\n      eq\n      tag_12\n      jumpi\n      dup1\n      0xa9059cbb\n      eq\n      tag_13\n      jumpi\n      jump(tag_1)\n    tag_19:\n      dup1\n      0x6352211e\n      gt\n      tag_21\n      jumpi\n      dup1\n      0x6352211e\n      eq\n      tag_6\n      jumpi\n      dup1\n      0x6a7d1816\n      eq\n      tag_7\n      jumpi\n      dup1\n      0x6b6f0494\n      eq\n      tag_8\n      jumpi\n      dup1\n      0x70a08231\n      eq\n      tag_9\n      jumpi\n      jump(tag_1)\n    tag_21:\n      dup1\n      0x095ea7b3\n      eq\n      tag_2\n      jumpi\n      dup1\n      0x1bfdc150\n      eq\n      tag_3\n      jumpi\n      dup1\n      0x1c6743e4\n      eq\n      tag_4\n      jumpi\n      dup1\n      0x2458c544\n      eq\n      tag_5\n      jumpi\n    tag_1:\n      0x00\n      dup1\n      revert\n        /* \"contracts/CarreraCoches/cocheToken.sol\":874:1002  function approve(address _to, uint256 _tokenId) public override onlyOwnerOf(_tokenId) {\r... */\n    tag_2:\n      callvalue\n      dup1\n      iszero\n      tag_22\n      jumpi\n      0x00\n      dup1\n      revert\n    tag_22:\n      pop\n      tag_23\n      0x04\n      dup1\n      calldatasize\n      sub\n      dup2\n      add\n      swap1\n      tag_24\n      swap2\n      swap1\n      tag_25\n      jump\t// in\n    tag_24:\n      tag_26\n      jump\t// in\n    tag_23:\n      stop\n        /* \"contracts/CarreraCoches/principal.sol\":4837:4952  function retirarDinero() external onlyOwner {\r... */\n    tag_3:\n      callvalue\n      dup1\n      iszero\n      tag_27\n      jumpi\n      0x00\n      dup1\n      revert\n    tag_27:\n      pop\n      tag_28\n      tag_29\n      jump\t// in\n    tag_28:\n      stop\n        /* \"contracts/CarreraCoches/principal.sol\":874:926  mapping (address => uint) public numeroCochesPersona */\n    tag_4:\n      callvalue\n      dup1\n      iszero\n      tag_30\n      jumpi\n      0x00\n      dup1\n      revert\n    tag_30:\n      pop\n      tag_31\n      0x04\n      dup1\n      calldatasize\n      sub\n      dup2\n      add\n      swap1\n      tag_32\n      swap2\n      swap1\n      tag_33\n      jump\t// in\n    tag_32:\n      tag_34\n      jump\t// in\n    tag_31:\n      mload(0x40)\n      tag_35\n      swap2\n      swap1\n      tag_36\n      jump\t// in\n    tag_35:\n      mload(0x40)\n      dup1\n      swap2\n      sub\n      swap1\n      return\n        /* \"contracts/CarreraCoches/principal.sol\":1491:1931  function anadirCoche(string memory _modelo, string memory _marca, string memory _nombrePiloto) public restriccion returns (uint) {\r... */\n    tag_5:\n      callvalue\n      dup1\n      iszero\n      tag_37\n      jumpi\n      0x00\n      dup1\n      revert\n    tag_37:\n      pop\n      tag_38\n      0x04\n      dup1\n      calldatasize\n      sub\n      dup2\n      add\n      swap1\n      tag_39\n      swap2\n      swap1\n      tag_40\n      jump\t// in\n    tag_39:\n      tag_41\n      jump\t// in\n    tag_38:\n      mload(0x40)\n      tag_42\n      swap2\n      swap1\n      tag_36\n      jump\t// in\n    tag_42:\n      mload(0x40)\n      dup1\n      swap2\n      sub\n      swap1\n      return\n        /* \"contracts/CarreraCoches/cocheToken.sol\":324:459  function ownerOf(uint256 _tokenId) public override view returns (address _owner) {\r... */\n    tag_6:\n      callvalue\n      dup1\n      iszero\n      tag_43\n      jumpi\n      0x00\n      dup1\n      revert\n    tag_43:\n      pop\n      tag_44\n      0x04\n      dup1\n      calldatasize\n      sub\n      dup2\n      add\n      swap1\n      tag_45\n      swap2\n      swap1\n      tag_46\n      jump\t// in\n    tag_45:\n      tag_47\n      jump\t// in\n    tag_44:\n      mload(0x40)\n      tag_48\n      swap2\n      swap1\n      tag_49\n      jump\t// in\n    tag_48:\n      mload(0x40)\n      dup1\n      swap2\n      sub\n      swap1\n      return\n        /* \"contracts/CarreraCoches/principal.sol\":2259:2618  function subirDeNivel(address _propietario) external payable returns(string memory) {\r... */\n    tag_7:\n      tag_50\n      0x04\n      dup1\n      calldatasize\n      sub\n      dup2\n      add\n      swap1\n      tag_51\n      swap2\n      swap1\n      tag_33\n      jump\t// in\n    tag_51:\n      tag_52\n      jump\t// in\n    tag_50:\n      mload(0x40)\n      tag_53\n      swap2\n      swap1\n      tag_54\n      jump\t// in\n    tag_53:\n      mload(0x40)\n      dup1\n      swap2\n      sub\n      swap1\n      return\n        /* \"contracts/CarreraCoches/principal.sol\":3309:4564  function Apostar(uint dineroApostar) public payable returns(string memory) {\r... */\n    tag_8:\n      tag_55\n      0x04\n      dup1\n      calldatasize\n      sub\n      dup2\n      add\n      swap1\n      tag_56\n      swap2\n      swap1\n      tag_46\n      jump\t// in\n    tag_56:\n      tag_57\n      jump\t// in\n    tag_55:\n      mload(0x40)\n      tag_58\n      swap2\n      swap1\n      tag_54\n      jump\t// in\n    tag_58:\n      mload(0x40)\n      dup1\n      swap2\n      sub\n      swap1\n      return\n        /* \"contracts/CarreraCoches/cocheToken.sol\":180:316  function balanceOf(address _owner) public override view returns (uint256 _balance) {\r... */\n    tag_9:\n      callvalue\n      dup1\n      iszero\n      tag_59\n      jumpi\n      0x00\n      dup1\n      revert\n    tag_59:\n      pop\n      tag_60\n      0x04\n      dup1\n      calldatasize\n      sub\n      dup2\n      add\n      swap1\n      tag_61\n      swap2\n      swap1\n      tag_33\n      jump\t// in\n    tag_61:\n      tag_62\n      jump\t// in\n    tag_60:\n      mload(0x40)\n      tag_63\n      swap2\n      swap1\n      tag_36\n      jump\t// in\n    tag_63:\n      mload(0x40)\n      dup1\n      swap2\n      sub\n      swap1\n      return\n        /* \"contracts/CarreraCoches/ownable.sol\":1719:1822  function renounceOwnership() public virtual onlyOwner {\r... */\n    tag_10:\n      callvalue\n      dup1\n      iszero\n      tag_64\n      jumpi\n      0x00\n      dup1\n      revert\n    tag_64:\n      pop\n      tag_65\n      tag_66\n      jump\t// in\n    tag_65:\n      stop\n        /* \"contracts/CarreraCoches/principal.sol\":816:867  mapping (uint => address) public cocheDePropietario */\n    tag_11:\n      callvalue\n      dup1\n      iszero\n      tag_67\n      jumpi\n      0x00\n      dup1\n      revert\n    tag_67:\n      pop\n      tag_68\n      0x04\n      dup1\n      calldatasize\n      sub\n      dup2\n      add\n      swap1\n      tag_69\n      swap2\n      swap1\n      tag_46\n      jump\t// in\n    tag_69:\n      tag_70\n      jump\t// in\n    tag_68:\n      mload(0x40)\n      tag_71\n      swap2\n      swap1\n      tag_49\n      jump\t// in\n    tag_71:\n      mload(0x40)\n      dup1\n      swap2\n      sub\n      swap1\n      return\n        /* \"contracts/CarreraCoches/ownable.sol\":1068:1155  function owner() public view virtual returns (address) {\r... */\n    tag_12:\n      callvalue\n      dup1\n      iszero\n      tag_72\n      jumpi\n      0x00\n      dup1\n      revert\n    tag_72:\n      pop\n      tag_73\n      tag_74\n      jump\t// in\n    tag_73:\n      mload(0x40)\n      tag_75\n      swap2\n      swap1\n      tag_49\n      jump\t// in\n    tag_75:\n      mload(0x40)\n      dup1\n      swap2\n      sub\n      swap1\n      return\n        /* \"contracts/CarreraCoches/cocheToken.sol\":724:866  function transfer(address _to, uint256 _tokenId) public override onlyOwnerOf(_tokenId) {\r... */\n    tag_13:\n      callvalue\n      dup1\n      iszero\n      tag_76\n      jumpi\n      0x00\n      dup1\n      revert\n    tag_76:\n      pop\n      tag_77\n      0x04\n      dup1\n      calldatasize\n      sub\n      dup2\n      add\n      swap1\n      tag_78\n      swap2\n      swap1\n      tag_25\n      jump\t// in\n    tag_78:\n      tag_79\n      jump\t// in\n    tag_77:\n      stop\n        /* \"contracts/CarreraCoches/ownable.sol\":701:722  address public _owner */\n    tag_14:\n      callvalue\n      dup1\n      iszero\n      tag_80\n      jumpi\n      0x00\n      dup1\n      revert\n    tag_80:\n      pop\n      tag_81\n      tag_82\n      jump\t// in\n    tag_81:\n      mload(0x40)\n      tag_83\n      swap2\n      swap1\n      tag_49\n      jump\t// in\n    tag_83:\n      mload(0x40)\n      dup1\n      swap2\n      sub\n      swap1\n      return\n        /* \"contracts/CarreraCoches/cocheToken.sol\":1010:1077  function takeOwnership(uint256 _tokenId) public override {\r... */\n    tag_15:\n      callvalue\n      dup1\n      iszero\n      tag_84\n      jumpi\n      0x00\n      dup1\n      revert\n    tag_84:\n      pop\n      tag_85\n      0x04\n      dup1\n      calldatasize\n      sub\n      dup2\n      add\n      swap1\n      tag_86\n      swap2\n      swap1\n      tag_46\n      jump\t// in\n    tag_86:\n      tag_87\n      jump\t// in\n    tag_85:\n      stop\n        /* \"contracts/CarreraCoches/principal.sol\":569:595  Coche[] public listaCoches */\n    tag_16:\n      callvalue\n      dup1\n      iszero\n      tag_88\n      jumpi\n      0x00\n      dup1\n      revert\n    tag_88:\n      pop\n      tag_89\n      0x04\n      dup1\n      calldatasize\n      sub\n      dup2\n      add\n      swap1\n      tag_90\n      swap2\n      swap1\n      tag_46\n      jump\t// in\n    tag_90:\n      tag_91\n      jump\t// in\n    tag_89:\n      mload(0x40)\n      tag_92\n      swap9\n      swap8\n      swap7\n      swap6\n      swap5\n      swap4\n      swap3\n      swap2\n      swap1\n      tag_93\n      jump\t// in\n    tag_92:\n      mload(0x40)\n      dup1\n      swap2\n      sub\n      swap1\n      return\n        /* \"contracts/CarreraCoches/principal.sol\":2628:2972  function verCochePropietario(address _propietario) external {\r... */\n    tag_17:\n      callvalue\n      dup1\n      iszero\n      tag_94\n      jumpi\n      0x00\n      dup1\n      revert\n    tag_94:\n      pop\n      tag_95\n      0x04\n      dup1\n      calldatasize\n      sub\n      dup2\n      add\n      swap1\n      tag_96\n      swap2\n      swap1\n      tag_33\n      jump\t// in\n    tag_96:\n      tag_97\n      jump\t// in\n    tag_95:\n      stop\n        /* \"contracts/CarreraCoches/ownable.sol\":1977:2178  function transferOwnership(address newOwner) public virtual onlyOwner {\r... */\n    tag_18:\n      callvalue\n      dup1\n      iszero\n      tag_98\n      jumpi\n      0x00\n      dup1\n      revert\n    tag_98:\n      pop\n      tag_99\n      0x04\n      dup1\n      calldatasize\n      sub\n      dup2\n      add\n      swap1\n      tag_100\n      swap2\n      swap1\n      tag_33\n      jump\t// in\n    tag_100:\n      tag_101\n      jump\t// in\n    tag_99:\n      stop\n        /* \"contracts/CarreraCoches/cocheToken.sol\":874:1002  function approve(address _to, uint256 _tokenId) public override onlyOwnerOf(_tokenId) {\r... */\n    tag_26:\n        /* \"contracts/CarreraCoches/cocheToken.sol\":950:958  _tokenId */\n      dup1\n        /* \"contracts/CarreraCoches/principal.sol\":1198:1216  cocheDePropietario */\n      0x06\n        /* \"contracts/CarreraCoches/principal.sol\":1198:1224  cocheDePropietario[_coche] */\n      0x00\n        /* \"contracts/CarreraCoches/principal.sol\":1217:1223  _coche */\n      dup3\n        /* \"contracts/CarreraCoches/principal.sol\":1198:1224  cocheDePropietario[_coche] */\n      dup2\n      mstore\n      0x20\n      add\n      swap1\n      dup2\n      mstore\n      0x20\n      add\n      0x00\n      keccak256\n      0x00\n      swap1\n      sload\n      swap1\n      0x0100\n      exp\n      swap1\n      div\n      0xffffffffffffffffffffffffffffffffffffffff\n      and\n        /* \"contracts/CarreraCoches/principal.sol\":1184:1224  msg.sender == cocheDePropietario[_coche] */\n      0xffffffffffffffffffffffffffffffffffffffff\n      and\n        /* \"contracts/CarreraCoches/principal.sol\":1184:1194  msg.sender */\n      caller\n        /* \"contracts/CarreraCoches/principal.sol\":1184:1224  msg.sender == cocheDePropietario[_coche] */\n      0xffffffffffffffffffffffffffffffffffffffff\n      and\n      eq\n        /* \"contracts/CarreraCoches/principal.sol\":1176:1225  require(msg.sender == cocheDePropietario[_coche]) */\n      tag_103\n      jumpi\n      0x00\n      dup1\n      revert\n    tag_103:\n        /* \"contracts/CarreraCoches/cocheToken.sol\":991:994  _to */\n      dup3\n        /* \"contracts/CarreraCoches/cocheToken.sol\":971:978  Approve */\n      0x08\n        /* \"contracts/CarreraCoches/cocheToken.sol\":971:988  Approve[_tokenId] */\n      0x00\n        /* \"contracts/CarreraCoches/cocheToken.sol\":979:987  _tokenId */\n      dup5\n        /* \"contracts/CarreraCoches/cocheToken.sol\":971:988  Approve[_tokenId] */\n      dup2\n      mstore\n      0x20\n      add\n      swap1\n      dup2\n      mstore\n      0x20\n      add\n      0x00\n      keccak256\n      0x00\n        /* \"contracts/CarreraCoches/cocheToken.sol\":971:994  Approve[_tokenId] = _to */\n      0x0100\n      exp\n      dup2\n      sload\n      dup2\n      0xffffffffffffffffffffffffffffffffffffffff\n      mul\n      not\n      and\n      swap1\n      dup4\n      0xffffffffffffffffffffffffffffffffffffffff\n      and\n      mul\n      or\n      swap1\n      sstore\n      pop\n        /* \"contracts/CarreraCoches/cocheToken.sol\":874:1002  function approve(address _to, uint256 _tokenId) public override onlyOwnerOf(_tokenId) {\r... */\n      pop\n      pop\n      pop\n      jump\t// out\n        /* \"contracts/CarreraCoches/principal.sol\":4837:4952  function retirarDinero() external onlyOwner {\r... */\n    tag_29:\n        /* \"contracts/CarreraCoches/ownable.sol\":1299:1311  _msgSender() */\n      tag_106\n        /* \"contracts/CarreraCoches/ownable.sol\":1299:1309  _msgSender */\n      tag_107\n        /* \"contracts/CarreraCoches/ownable.sol\":1299:1311  _msgSender() */\n      jump\t// in\n    tag_106:\n        /* \"contracts/CarreraCoches/ownable.sol\":1288:1311  owner() == _msgSender() */\n      0xffffffffffffffffffffffffffffffffffffffff\n      and\n        /* \"contracts/CarreraCoches/ownable.sol\":1288:1295  owner() */\n      tag_108\n        /* \"contracts/CarreraCoches/ownable.sol\":1288:1293  owner */\n      tag_74\n        /* \"contracts/CarreraCoches/ownable.sol\":1288:1295  owner() */\n      jump\t// in\n    tag_108:\n        /* \"contracts/CarreraCoches/ownable.sol\":1288:1311  owner() == _msgSender() */\n      0xffffffffffffffffffffffffffffffffffffffff\n      and\n      eq\n        /* \"contracts/CarreraCoches/ownable.sol\":1280:1348  require(owner() == _msgSender(), \"Ownable: caller is not the owner\") */\n      tag_109\n      jumpi\n      mload(0x40)\n      0x08c379a000000000000000000000000000000000000000000000000000000000\n      dup2\n      mstore\n      0x04\n      add\n      tag_110\n      swap1\n      tag_111\n      jump\t// in\n    tag_110:\n      mload(0x40)\n      dup1\n      swap2\n      sub\n      swap1\n      revert\n    tag_109:\n        /* \"contracts/CarreraCoches/principal.sol\":4901:4911  msg.sender */\n      caller\n        /* \"contracts/CarreraCoches/principal.sol\":4892:4921  payable (msg.sender).transfer */\n      0xffffffffffffffffffffffffffffffffffffffff\n      and\n        /* \"contracts/CarreraCoches/principal.sol\":4892:4944  payable (msg.sender).transfer(address(this).balance) */\n      0x08fc\n        /* \"contracts/CarreraCoches/principal.sol\":4922:4943  address(this).balance */\n      selfbalance\n        /* \"contracts/CarreraCoches/principal.sol\":4892:4944  payable (msg.sender).transfer(address(this).balance) */\n      swap1\n      dup2\n      iszero\n      mul\n      swap1\n      mload(0x40)\n      0x00\n      mload(0x40)\n      dup1\n      dup4\n      sub\n      dup2\n      dup6\n      dup9\n      dup9\n      call\n      swap4\n      pop\n      pop\n      pop\n      pop\n      iszero\n      dup1\n      iszero\n      tag_114\n      jumpi\n      returndatasize\n      0x00\n      dup1\n      returndatacopy\n      revert(0x00, returndatasize)\n    tag_114:\n      pop\n        /* \"contracts/CarreraCoches/principal.sol\":4837:4952  function retirarDinero() external onlyOwner {\r... */\n      jump\t// out\n        /* \"contracts/CarreraCoches/principal.sol\":874:926  mapping (address => uint) public numeroCochesPersona */\n    tag_34:\n      mstore(0x20, 0x07)\n      dup1\n      0x00\n      mstore\n      keccak256(0x00, 0x40)\n      0x00\n      swap2\n      pop\n      swap1\n      pop\n      sload\n      dup2\n      jump\t// out\n        /* \"contracts/CarreraCoches/principal.sol\":1491:1931  function anadirCoche(string memory _modelo, string memory _marca, string memory _nombrePiloto) public restriccion returns (uint) {\r... */\n    tag_41:\n        /* \"contracts/CarreraCoches/principal.sol\":1614:1618  uint */\n      0x00\n        /* \"contracts/CarreraCoches/principal.sol\":1058:1059  1 */\n      0x01\n        /* \"contracts/CarreraCoches/principal.sol\":1024:1043  numeroCochesPersona */\n      0x07\n        /* \"contracts/CarreraCoches/principal.sol\":1024:1055  numeroCochesPersona[msg.sender] */\n      0x00\n        /* \"contracts/CarreraCoches/principal.sol\":1044:1054  msg.sender */\n      caller\n        /* \"contracts/CarreraCoches/principal.sol\":1024:1055  numeroCochesPersona[msg.sender] */\n      0xffffffffffffffffffffffffffffffffffffffff\n      and\n      0xffffffffffffffffffffffffffffffffffffffff\n      and\n      dup2\n      mstore\n      0x20\n      add\n      swap1\n      dup2\n      mstore\n      0x20\n      add\n      0x00\n      keccak256\n      sload\n        /* \"contracts/CarreraCoches/principal.sol\":1024:1059  numeroCochesPersona[msg.sender] < 1 */\n      lt\n        /* \"contracts/CarreraCoches/principal.sol\":1016:1104  require(numeroCochesPersona[msg.sender] < 1, \"Solo se puede tener un coche por persona\") */\n      tag_116\n      jumpi\n      mload(0x40)\n      0x08c379a000000000000000000000000000000000000000000000000000000000\n      dup2\n      mstore\n      0x04\n      add\n      tag_117\n      swap1\n      tag_118\n      jump\t// in\n    tag_117:\n      mload(0x40)\n      dup1\n      swap2\n      sub\n      swap1\n      revert\n    tag_116:\n        /* \"contracts/CarreraCoches/principal.sol\":1631:1642  listaCoches */\n      0x05\n        /* \"contracts/CarreraCoches/principal.sol\":1648:1742  Coche(msg.sender, _modelo, _marca, _nombrePiloto, 0, 0, uint32(block.timestamp + cooldown), 0) */\n      mload(0x40)\n      dup1\n      0x0100\n      add\n      0x40\n      mstore\n      dup1\n        /* \"contracts/CarreraCoches/principal.sol\":1654:1664  msg.sender */\n      caller\n        /* \"contracts/CarreraCoches/principal.sol\":1648:1742  Coche(msg.sender, _modelo, _marca, _nombrePiloto, 0, 0, uint32(block.timestamp + cooldown), 0) */\n      0xffffffffffffffffffffffffffffffffffffffff\n      and\n      dup2\n      mstore\n      0x20\n      add\n        /* \"contracts/CarreraCoches/principal.sol\":1666:1673  _modelo */\n      dup7\n        /* \"contracts/CarreraCoches/principal.sol\":1648:1742  Coche(msg.sender, _modelo, _marca, _nombrePiloto, 0, 0, uint32(block.timestamp + cooldown), 0) */\n      dup2\n      mstore\n      0x20\n      add\n        /* \"contracts/CarreraCoches/principal.sol\":1675:1681  _marca */\n      dup6\n        /* \"contracts/CarreraCoches/principal.sol\":1648:1742  Coche(msg.sender, _modelo, _marca, _nombrePiloto, 0, 0, uint32(block.timestamp + cooldown), 0) */\n      dup2\n      mstore\n      0x20\n      add\n        /* \"contracts/CarreraCoches/principal.sol\":1683:1696  _nombrePiloto */\n      dup5\n        /* \"contracts/CarreraCoches/principal.sol\":1648:1742  Coche(msg.sender, _modelo, _marca, _nombrePiloto, 0, 0, uint32(block.timestamp + cooldown), 0) */\n      dup2\n      mstore\n      0x20\n      add\n        /* \"contracts/CarreraCoches/principal.sol\":1698:1699  0 */\n      0x00\n        /* \"contracts/CarreraCoches/principal.sol\":1648:1742  Coche(msg.sender, _modelo, _marca, _nombrePiloto, 0, 0, uint32(block.timestamp + cooldown), 0) */\n      dup2\n      mstore\n      0x20\n      add\n        /* \"contracts/CarreraCoches/principal.sol\":1701:1702  0 */\n      0x00\n        /* \"contracts/CarreraCoches/principal.sol\":1648:1742  Coche(msg.sender, _modelo, _marca, _nombrePiloto, 0, 0, uint32(block.timestamp + cooldown), 0) */\n      dup2\n      mstore\n      0x20\n      add\n        /* \"contracts/CarreraCoches/principal.sol\":1729:1737  cooldown */\n      sload(0x03)\n        /* \"contracts/CarreraCoches/principal.sol\":1711:1726  block.timestamp */\n      timestamp\n        /* \"contracts/CarreraCoches/principal.sol\":1711:1737  block.timestamp + cooldown */\n      tag_120\n      swap2\n      swap1\n      tag_121\n      jump\t// in\n    tag_120:\n        /* \"contracts/CarreraCoches/principal.sol\":1648:1742  Coche(msg.sender, _modelo, _marca, _nombrePiloto, 0, 0, uint32(block.timestamp + cooldown), 0) */\n      0xffffffff\n      and\n      dup2\n      mstore\n      0x20\n      add\n        /* \"contracts/CarreraCoches/principal.sol\":1740:1741  0 */\n      0x00\n        /* \"contracts/CarreraCoches/principal.sol\":1648:1742  Coche(msg.sender, _modelo, _marca, _nombrePiloto, 0, 0, uint32(block.timestamp + cooldown), 0) */\n      0xffffffff\n      and\n      dup2\n      mstore\n      pop\n        /* \"contracts/CarreraCoches/principal.sol\":1631:1743  listaCoches.push(Coche(msg.sender, _modelo, _marca, _nombrePiloto, 0, 0, uint32(block.timestamp + cooldown), 0)) */\n      swap1\n      dup1\n      0x01\n      dup2\n      sload\n      add\n      dup1\n      dup3\n      sstore\n      dup1\n      swap2\n      pop\n      pop\n      0x01\n      swap1\n      sub\n      swap1\n      0x00\n      mstore\n      keccak256(0x00, 0x20)\n      swap1\n      0x08\n      mul\n      add\n      0x00\n      swap1\n      swap2\n      swap1\n      swap2\n      swap1\n      swap2\n      pop\n      0x00\n      dup3\n      add\n      mload\n      dup2\n      0x00\n      add\n      exp(0x0100, 0x00)\n      dup2\n      sload\n      dup2\n      0xffffffffffffffffffffffffffffffffffffffff\n      mul\n      not\n      and\n      swap1\n      dup4\n      0xffffffffffffffffffffffffffffffffffffffff\n      and\n      mul\n      or\n      swap1\n      sstore\n      pop\n      0x20\n      dup3\n      add\n      mload\n      dup2\n      0x01\n      add\n      swap1\n      dup1\n      mload\n      swap1\n      0x20\n      add\n      swap1\n      tag_123\n      swap3\n      swap2\n      swap1\n      tag_124\n      jump\t// in\n    tag_123:\n      pop\n      0x40\n      dup3\n      add\n      mload\n      dup2\n      0x02\n      add\n      swap1\n      dup1\n      mload\n      swap1\n      0x20\n      add\n      swap1\n      tag_125\n      swap3\n      swap2\n      swap1\n      tag_124\n      jump\t// in\n    tag_125:\n      pop\n      0x60\n      dup3\n      add\n      mload\n      dup2\n      0x03\n      add\n      swap1\n      dup1\n      mload\n      swap1\n      0x20\n      add\n      swap1\n      tag_126\n      swap3\n      swap2\n      swap1\n      tag_124\n      jump\t// in\n    tag_126:\n      pop\n      0x80\n      dup3\n      add\n      mload\n      dup2\n      0x04\n      add\n      sstore\n      0xa0\n      dup3\n      add\n      mload\n      dup2\n      0x05\n      add\n      sstore\n      0xc0\n      dup3\n      add\n      mload\n      dup2\n      0x06\n      add\n      sstore\n      0xe0\n      dup3\n      add\n      mload\n      dup2\n      0x07\n      add\n      exp(0x0100, 0x00)\n      dup2\n      sload\n      dup2\n      0xffffffff\n      mul\n      not\n      and\n      swap1\n      dup4\n      0xffffffff\n      and\n      mul\n      or\n      swap1\n      sstore\n      pop\n      pop\n      pop\n        /* \"contracts/CarreraCoches/principal.sol\":1754:1761  uint id */\n      0x00\n        /* \"contracts/CarreraCoches/principal.sol\":1764:1775  listaCoches */\n      0x05\n        /* \"contracts/CarreraCoches/principal.sol\":1764:1782  listaCoches.length */\n      dup1\n      sload\n      swap1\n      pop\n        /* \"contracts/CarreraCoches/principal.sol\":1754:1782  uint id = listaCoches.length */\n      swap1\n      pop\n        /* \"contracts/CarreraCoches/principal.sol\":1818:1828  msg.sender */\n      caller\n        /* \"contracts/CarreraCoches/principal.sol\":1793:1811  cocheDePropietario */\n      0x06\n        /* \"contracts/CarreraCoches/principal.sol\":1793:1815  cocheDePropietario[id] */\n      0x00\n        /* \"contracts/CarreraCoches/principal.sol\":1812:1814  id */\n      dup4\n        /* \"contracts/CarreraCoches/principal.sol\":1793:1815  cocheDePropietario[id] */\n      dup2\n      mstore\n      0x20\n      add\n      swap1\n      dup2\n      mstore\n      0x20\n      add\n      0x00\n      keccak256\n      0x00\n        /* \"contracts/CarreraCoches/principal.sol\":1793:1828  cocheDePropietario[id] = msg.sender */\n      0x0100\n      exp\n      dup2\n      sload\n      dup2\n      0xffffffffffffffffffffffffffffffffffffffff\n      mul\n      not\n      and\n      swap1\n      dup4\n      0xffffffffffffffffffffffffffffffffffffffff\n      and\n      mul\n      or\n      swap1\n      sstore\n      pop\n        /* \"contracts/CarreraCoches/principal.sol\":1839:1858  numeroCochesPersona */\n      0x07\n        /* \"contracts/CarreraCoches/principal.sol\":1839:1870  numeroCochesPersona[msg.sender] */\n      0x00\n        /* \"contracts/CarreraCoches/principal.sol\":1859:1869  msg.sender */\n      caller\n        /* \"contracts/CarreraCoches/principal.sol\":1839:1870  numeroCochesPersona[msg.sender] */\n      0xffffffffffffffffffffffffffffffffffffffff\n      and\n      0xffffffffffffffffffffffffffffffffffffffff\n      and\n      dup2\n      mstore\n      0x20\n      add\n      swap1\n      dup2\n      mstore\n      0x20\n      add\n      0x00\n      keccak256\n      0x00\n        /* \"contracts/CarreraCoches/principal.sol\":1839:1872  numeroCochesPersona[msg.sender]++ */\n      dup2\n      sload\n      dup1\n      swap3\n      swap2\n      swap1\n      tag_127\n      swap1\n      tag_128\n      jump\t// in\n    tag_127:\n      swap2\n      swap1\n      pop\n      sstore\n      pop\n        /* \"contracts/CarreraCoches/principal.sol\":1883:1891  contador */\n      0x02\n      0x00\n        /* \"contracts/CarreraCoches/principal.sol\":1883:1893  contador++ */\n      dup2\n      sload\n      dup1\n      swap3\n      swap2\n      swap1\n      tag_129\n      swap1\n      tag_128\n      jump\t// in\n    tag_129:\n      swap2\n      swap1\n      pop\n      sstore\n      pop\n        /* \"contracts/CarreraCoches/principal.sol\":1922:1923  1 */\n      0x01\n        /* \"contracts/CarreraCoches/principal.sol\":1911:1919  contador */\n      sload(0x02)\n        /* \"contracts/CarreraCoches/principal.sol\":1911:1923  contador - 1 */\n      tag_130\n      swap2\n      swap1\n      tag_131\n      jump\t// in\n    tag_130:\n        /* \"contracts/CarreraCoches/principal.sol\":1904:1923  return contador - 1 */\n      swap2\n      pop\n      pop\n        /* \"contracts/CarreraCoches/principal.sol\":1491:1931  function anadirCoche(string memory _modelo, string memory _marca, string memory _nombrePiloto) public restriccion returns (uint) {\r... */\n      swap4\n      swap3\n      pop\n      pop\n      pop\n      jump\t// out\n        /* \"contracts/CarreraCoches/cocheToken.sol\":324:459  function ownerOf(uint256 _tokenId) public override view returns (address _owner) {\r... */\n    tag_47:\n        /* \"contracts/CarreraCoches/cocheToken.sol\":389:403  address _owner */\n      0x00\n        /* \"contracts/CarreraCoches/cocheToken.sol\":423:441  cocheDePropietario */\n      0x06\n        /* \"contracts/CarreraCoches/cocheToken.sol\":423:451  cocheDePropietario[_tokenId] */\n      0x00\n        /* \"contracts/CarreraCoches/cocheToken.sol\":442:450  _tokenId */\n      dup4\n        /* \"contracts/CarreraCoches/cocheToken.sol\":423:451  cocheDePropietario[_tokenId] */\n      dup2\n      mstore\n      0x20\n      add\n      swap1\n      dup2\n      mstore\n      0x20\n      add\n      0x00\n      keccak256\n      0x00\n      swap1\n      sload\n      swap1\n      0x0100\n      exp\n      swap1\n      div\n      0xffffffffffffffffffffffffffffffffffffffff\n      and\n        /* \"contracts/CarreraCoches/cocheToken.sol\":416:451  return cocheDePropietario[_tokenId] */\n      swap1\n      pop\n        /* \"contracts/CarreraCoches/cocheToken.sol\":324:459  function ownerOf(uint256 _tokenId) public override view returns (address _owner) {\r... */\n      swap2\n      swap1\n      pop\n      jump\t// out\n        /* \"contracts/CarreraCoches/principal.sol\":2259:2618  function subirDeNivel(address _propietario) external payable returns(string memory) {\r... */\n    tag_52:\n        /* \"contracts/CarreraCoches/principal.sol\":2328:2341  string memory */\n      0x60\n        /* \"contracts/CarreraCoches/principal.sol\":2373:2383  subirNivel */\n      sload(0x04)\n        /* \"contracts/CarreraCoches/principal.sol\":2362:2371  msg.value */\n      callvalue\n        /* \"contracts/CarreraCoches/principal.sol\":2362:2383  msg.value==subirNivel */\n      eq\n        /* \"contracts/CarreraCoches/principal.sol\":2354:2384  require(msg.value==subirNivel) */\n      tag_134\n      jumpi\n      0x00\n      dup1\n      revert\n    tag_134:\n        /* \"contracts/CarreraCoches/principal.sol\":2399:2405  uint i */\n      0x00\n        /* \"contracts/CarreraCoches/principal.sol\":2395:2611  for(uint i = 0; i < listaCoches.length; i++){\r... */\n    tag_135:\n        /* \"contracts/CarreraCoches/principal.sol\":2415:2426  listaCoches */\n      0x05\n        /* \"contracts/CarreraCoches/principal.sol\":2415:2433  listaCoches.length */\n      dup1\n      sload\n      swap1\n      pop\n        /* \"contracts/CarreraCoches/principal.sol\":2411:2412  i */\n      dup2\n        /* \"contracts/CarreraCoches/principal.sol\":2411:2433  i < listaCoches.length */\n      lt\n        /* \"contracts/CarreraCoches/principal.sol\":2395:2611  for(uint i = 0; i < listaCoches.length; i++){\r... */\n      iszero\n      tag_136\n      jumpi\n        /* \"contracts/CarreraCoches/principal.sol\":2484:2496  _propietario */\n      dup3\n        /* \"contracts/CarreraCoches/principal.sol\":2457:2496  listaCoches[i].idPiloto == _propietario */\n      0xffffffffffffffffffffffffffffffffffffffff\n      and\n        /* \"contracts/CarreraCoches/principal.sol\":2457:2468  listaCoches */\n      0x05\n        /* \"contracts/CarreraCoches/principal.sol\":2469:2470  i */\n      dup3\n        /* \"contracts/CarreraCoches/principal.sol\":2457:2471  listaCoches[i] */\n      dup2\n      sload\n      dup2\n      lt\n      tag_138\n      jumpi\n      tag_139\n      tag_140\n      jump\t// in\n    tag_139:\n    tag_138:\n      swap1\n      0x00\n      mstore\n      keccak256(0x00, 0x20)\n      swap1\n      0x08\n      mul\n      add\n        /* \"contracts/CarreraCoches/principal.sol\":2457:2480  listaCoches[i].idPiloto */\n      0x00\n      add\n      0x00\n      swap1\n      sload\n      swap1\n      0x0100\n      exp\n      swap1\n      div\n      0xffffffffffffffffffffffffffffffffffffffff\n      and\n        /* \"contracts/CarreraCoches/principal.sol\":2457:2496  listaCoches[i].idPiloto == _propietario */\n      0xffffffffffffffffffffffffffffffffffffffff\n      and\n      eq\n        /* \"contracts/CarreraCoches/principal.sol\":2454:2600  if(listaCoches[i].idPiloto == _propietario){\r... */\n      iszero\n      tag_142\n      jumpi\n        /* \"contracts/CarreraCoches/principal.sol\":2516:2527  listaCoches */\n      0x05\n        /* \"contracts/CarreraCoches/principal.sol\":2528:2529  i */\n      dup2\n        /* \"contracts/CarreraCoches/principal.sol\":2516:2530  listaCoches[i] */\n      dup2\n      sload\n      dup2\n      lt\n      tag_143\n      jumpi\n      tag_144\n      tag_140\n      jump\t// in\n    tag_144:\n    tag_143:\n      swap1\n      0x00\n      mstore\n      keccak256(0x00, 0x20)\n      swap1\n      0x08\n      mul\n      add\n        /* \"contracts/CarreraCoches/principal.sol\":2516:2536  listaCoches[i].nivel */\n      0x07\n      add\n      0x00\n        /* \"contracts/CarreraCoches/principal.sol\":2516:2538  listaCoches[i].nivel++ */\n      dup2\n      dup2\n      swap1\n      sload\n      swap1\n      0x0100\n      exp\n      swap1\n      div\n      0xffffffff\n      and\n      dup1\n      swap3\n      swap2\n      swap1\n      tag_146\n      swap1\n      tag_147\n      jump\t// in\n    tag_146:\n      swap2\n      swap1\n      0x0100\n      exp\n      dup2\n      sload\n      dup2\n      0xffffffff\n      mul\n      not\n      and\n      swap1\n      dup4\n      0xffffffff\n      and\n      mul\n      or\n      swap1\n      sstore\n      pop\n      pop\n        /* \"contracts/CarreraCoches/principal.sol\":2557:2584  return \"Ha subido de nivel\" */\n      mload(0x40)\n      dup1\n      0x40\n      add\n      0x40\n      mstore\n      dup1\n      0x12\n      dup2\n      mstore\n      0x20\n      add\n      0x48612073756269646f206465206e6976656c0000000000000000000000000000\n      dup2\n      mstore\n      pop\n      swap2\n      pop\n      pop\n      jump(tag_133)\n        /* \"contracts/CarreraCoches/principal.sol\":2454:2600  if(listaCoches[i].idPiloto == _propietario){\r... */\n    tag_142:\n        /* \"contracts/CarreraCoches/principal.sol\":2435:2438  i++ */\n      dup1\n      dup1\n      tag_148\n      swap1\n      tag_128\n      jump\t// in\n    tag_148:\n      swap2\n      pop\n      pop\n        /* \"contracts/CarreraCoches/principal.sol\":2395:2611  for(uint i = 0; i < listaCoches.length; i++){\r... */\n      jump(tag_135)\n    tag_136:\n      pop\n        /* \"contracts/CarreraCoches/principal.sol\":2259:2618  function subirDeNivel(address _propietario) external payable returns(string memory) {\r... */\n    tag_133:\n      swap2\n      swap1\n      pop\n      jump\t// out\n        /* \"contracts/CarreraCoches/principal.sol\":3309:4564  function Apostar(uint dineroApostar) public payable returns(string memory) {\r... */\n    tag_57:\n        /* \"contracts/CarreraCoches/principal.sol\":3369:3382  string memory */\n      0x60\n        /* \"contracts/CarreraCoches/principal.sol\":3415:3428  dineroApostar */\n      dup2\n        /* \"contracts/CarreraCoches/principal.sol\":3402:3411  msg.value */\n      callvalue\n        /* \"contracts/CarreraCoches/principal.sol\":3402:3428  msg.value == dineroApostar */\n      eq\n        /* \"contracts/CarreraCoches/principal.sol\":3394:3429  require(msg.value == dineroApostar) */\n      tag_150\n      jumpi\n      0x00\n      dup1\n      revert\n    tag_150:\n        /* \"contracts/CarreraCoches/principal.sol\":3450:3459  randNonce */\n      0x01\n      0x00\n        /* \"contracts/CarreraCoches/principal.sol\":3450:3461  randNonce++ */\n      dup2\n      sload\n      dup1\n      swap3\n      swap2\n      swap1\n      tag_151\n      swap1\n      tag_128\n      jump\t// in\n    tag_151:\n      swap2\n      swap1\n      pop\n      sstore\n      pop\n        /* \"contracts/CarreraCoches/principal.sol\":3508:3521  uint256 rival */\n      0x00\n        /* \"contracts/CarreraCoches/principal.sol\":3611:3622  listaCoches */\n      0x05\n        /* \"contracts/CarreraCoches/principal.sol\":3611:3629  listaCoches.length */\n      dup1\n      sload\n      swap1\n      pop\n        /* \"contracts/CarreraCoches/principal.sol\":3559:3574  block.timestamp */\n      timestamp\n        /* \"contracts/CarreraCoches/principal.sol\":3576:3587  listaCoches */\n      0x05\n        /* \"contracts/CarreraCoches/principal.sol\":3576:3594  listaCoches.length */\n      dup1\n      sload\n      swap1\n      pop\n        /* \"contracts/CarreraCoches/principal.sol\":3596:3605  randNonce */\n      sload(0x01)\n        /* \"contracts/CarreraCoches/principal.sol\":3542:3606  abi.encodePacked(block.timestamp, listaCoches.length, randNonce) */\n      add(0x20, mload(0x40))\n      tag_152\n      swap4\n      swap3\n      swap2\n      swap1\n      tag_153\n      jump\t// in\n    tag_152:\n      mload(0x40)\n      0x20\n      dup2\n      dup4\n      sub\n      sub\n      dup2\n      mstore\n      swap1\n      0x40\n      mstore\n        /* \"contracts/CarreraCoches/principal.sol\":3532:3607  keccak256(abi.encodePacked(block.timestamp, listaCoches.length, randNonce)) */\n      dup1\n      mload\n      swap1\n      0x20\n      add\n      keccak256\n        /* \"contracts/CarreraCoches/principal.sol\":3524:3608  uint256(keccak256(abi.encodePacked(block.timestamp, listaCoches.length, randNonce))) */\n      0x00\n      shr\n        /* \"contracts/CarreraCoches/principal.sol\":3524:3629  uint256(keccak256(abi.encodePacked(block.timestamp, listaCoches.length, randNonce))) % listaCoches.length */\n      tag_154\n      swap2\n      swap1\n      tag_155\n      jump\t// in\n    tag_154:\n        /* \"contracts/CarreraCoches/principal.sol\":3508:3629  uint256 rival = uint256(keccak256(abi.encodePacked(block.timestamp, listaCoches.length, randNonce))) % listaCoches.length */\n      swap1\n      pop\n        /* \"contracts/CarreraCoches/principal.sol\":3672:3681  randNonce */\n      0x01\n      0x00\n        /* \"contracts/CarreraCoches/principal.sol\":3672:3683  randNonce++ */\n      dup2\n      sload\n      dup1\n      swap3\n      swap2\n      swap1\n      tag_156\n      swap1\n      tag_128\n      jump\t// in\n    tag_156:\n      swap2\n      swap1\n      pop\n      sstore\n      pop\n        /* \"contracts/CarreraCoches/principal.sol\":3694:3705  uint numero */\n      0x00\n        /* \"contracts/CarreraCoches/principal.sol\":3708:3709  2 */\n      0x02\n        /* \"contracts/CarreraCoches/principal.sol\":3694:3709  uint numero = 2 */\n      swap1\n      pop\n        /* \"contracts/CarreraCoches/principal.sol\":3720:3735  uint256 ganador */\n      0x00\n        /* \"contracts/CarreraCoches/principal.sol\":3813:3819  numero */\n      dup2\n        /* \"contracts/CarreraCoches/principal.sol\":3773:3788  block.timestamp */\n      timestamp\n        /* \"contracts/CarreraCoches/principal.sol\":3790:3796  numero */\n      dup4\n        /* \"contracts/CarreraCoches/principal.sol\":3798:3807  randNonce */\n      sload(0x01)\n        /* \"contracts/CarreraCoches/principal.sol\":3756:3808  abi.encodePacked(block.timestamp, numero, randNonce) */\n      add(0x20, mload(0x40))\n      tag_157\n      swap4\n      swap3\n      swap2\n      swap1\n      tag_153\n      jump\t// in\n    tag_157:\n      mload(0x40)\n      0x20\n      dup2\n      dup4\n      sub\n      sub\n      dup2\n      mstore\n      swap1\n      0x40\n      mstore\n        /* \"contracts/CarreraCoches/principal.sol\":3746:3809  keccak256(abi.encodePacked(block.timestamp, numero, randNonce)) */\n      dup1\n      mload\n      swap1\n      0x20\n      add\n      keccak256\n        /* \"contracts/CarreraCoches/principal.sol\":3738:3810  uint256(keccak256(abi.encodePacked(block.timestamp, numero, randNonce))) */\n      0x00\n      shr\n        /* \"contracts/CarreraCoches/principal.sol\":3738:3819  uint256(keccak256(abi.encodePacked(block.timestamp, numero, randNonce))) % numero */\n      tag_158\n      swap2\n      swap1\n      tag_155\n      jump\t// in\n    tag_158:\n        /* \"contracts/CarreraCoches/principal.sol\":3720:3819  uint256 ganador = uint256(keccak256(abi.encodePacked(block.timestamp, numero, randNonce))) % numero */\n      swap1\n      pop\n        /* \"contracts/CarreraCoches/principal.sol\":3836:3842  uint i */\n      0x00\n        /* \"contracts/CarreraCoches/principal.sol\":3832:4558  for(uint i = 0; i < listaCoches.length; i++){\r... */\n    tag_159:\n        /* \"contracts/CarreraCoches/principal.sol\":3852:3863  listaCoches */\n      0x05\n        /* \"contracts/CarreraCoches/principal.sol\":3852:3870  listaCoches.length */\n      dup1\n      sload\n      swap1\n      pop\n        /* \"contracts/CarreraCoches/principal.sol\":3848:3849  i */\n      dup2\n        /* \"contracts/CarreraCoches/principal.sol\":3848:3870  i < listaCoches.length */\n      lt\n        /* \"contracts/CarreraCoches/principal.sol\":3832:4558  for(uint i = 0; i < listaCoches.length; i++){\r... */\n      iszero\n      tag_160\n      jumpi\n        /* \"contracts/CarreraCoches/principal.sol\":4012:4023  listaCoches */\n      0x05\n        /* \"contracts/CarreraCoches/principal.sol\":4024:4025  i */\n      dup2\n        /* \"contracts/CarreraCoches/principal.sol\":4012:4026  listaCoches[i] */\n      dup2\n      sload\n      dup2\n      lt\n      tag_162\n      jumpi\n      tag_163\n      tag_140\n      jump\t// in\n    tag_163:\n    tag_162:\n      swap1\n      0x00\n      mstore\n      keccak256(0x00, 0x20)\n      swap1\n      0x08\n      mul\n      add\n        /* \"contracts/CarreraCoches/principal.sol\":4012:4035  listaCoches[i].idPiloto */\n      0x00\n      add\n      0x00\n      swap1\n      sload\n      swap1\n      0x0100\n      exp\n      swap1\n      div\n      0xffffffffffffffffffffffffffffffffffffffff\n      and\n        /* \"contracts/CarreraCoches/principal.sol\":3998:4035  msg.sender == listaCoches[i].idPiloto */\n      0xffffffffffffffffffffffffffffffffffffffff\n      and\n        /* \"contracts/CarreraCoches/principal.sol\":3998:4008  msg.sender */\n      caller\n        /* \"contracts/CarreraCoches/principal.sol\":3998:4035  msg.sender == listaCoches[i].idPiloto */\n      0xffffffffffffffffffffffffffffffffffffffff\n      and\n      eq\n        /* \"contracts/CarreraCoches/principal.sol\":3994:4547  if (msg.sender == listaCoches[i].idPiloto) {\r... */\n      iszero\n      tag_165\n      jumpi\n        /* \"contracts/CarreraCoches/principal.sol\":4070:4071  0 */\n      0x00\n        /* \"contracts/CarreraCoches/principal.sol\":4059:4066  ganador */\n      dup3\n        /* \"contracts/CarreraCoches/principal.sol\":4059:4071  ganador == 0 */\n      eq\n        /* \"contracts/CarreraCoches/principal.sol\":4056:4431  if(ganador == 0){\r... */\n      iszero\n      tag_166\n      jumpi\n        /* \"contracts/CarreraCoches/principal.sol\":4095:4104  balance() */\n      tag_167\n        /* \"contracts/CarreraCoches/principal.sol\":4095:4102  balance */\n      tag_168\n        /* \"contracts/CarreraCoches/principal.sol\":4095:4104  balance() */\n      jump\t// in\n    tag_167:\n        /* \"contracts/CarreraCoches/principal.sol\":4127:4138  listaCoches */\n      0x05\n        /* \"contracts/CarreraCoches/principal.sol\":4139:4140  i */\n      dup2\n        /* \"contracts/CarreraCoches/principal.sol\":4127:4141  listaCoches[i] */\n      dup2\n      sload\n      dup2\n      lt\n      tag_169\n      jumpi\n      tag_170\n      tag_140\n      jump\t// in\n    tag_170:\n    tag_169:\n      swap1\n      0x00\n      mstore\n      keccak256(0x00, 0x20)\n      swap1\n      0x08\n      mul\n      add\n        /* \"contracts/CarreraCoches/principal.sol\":4127:4157  listaCoches[i].carrerasGanadas */\n      0x04\n      add\n      0x00\n        /* \"contracts/CarreraCoches/principal.sol\":4127:4159  listaCoches[i].carrerasGanadas++ */\n      dup2\n      sload\n      dup1\n      swap3\n      swap2\n      swap1\n      tag_172\n      swap1\n      tag_128\n      jump\t// in\n    tag_172:\n      swap2\n      swap1\n      pop\n      sstore\n      pop\n        /* \"contracts/CarreraCoches/principal.sol\":4182:4193  listaCoches */\n      0x05\n        /* \"contracts/CarreraCoches/principal.sol\":4194:4195  i */\n      dup2\n        /* \"contracts/CarreraCoches/principal.sol\":4182:4196  listaCoches[i] */\n      dup2\n      sload\n      dup2\n      lt\n      tag_173\n      jumpi\n      tag_174\n      tag_140\n      jump\t// in\n    tag_174:\n    tag_173:\n      swap1\n      0x00\n      mstore\n      keccak256(0x00, 0x20)\n      swap1\n      0x08\n      mul\n      add\n        /* \"contracts/CarreraCoches/principal.sol\":4182:4202  listaCoches[i].nivel */\n      0x07\n      add\n      0x00\n        /* \"contracts/CarreraCoches/principal.sol\":4182:4204  listaCoches[i].nivel++ */\n      dup2\n      dup2\n      swap1\n      sload\n      swap1\n      0x0100\n      exp\n      swap1\n      div\n      0xffffffff\n      and\n      dup1\n      swap3\n      swap2\n      swap1\n      tag_176\n      swap1\n      tag_147\n      jump\t// in\n    tag_176:\n      swap2\n      swap1\n      0x0100\n      exp\n      dup2\n      sload\n      dup2\n      0xffffffff\n      mul\n      not\n      and\n      swap1\n      dup4\n      0xffffffff\n      and\n      mul\n      or\n      swap1\n      sstore\n      pop\n      pop\n        /* \"contracts/CarreraCoches/principal.sol\":4227:4246  return \"Has ganado\" */\n      mload(0x40)\n      dup1\n      0x40\n      add\n      0x40\n      mstore\n      dup1\n      0x0a\n      dup2\n      mstore\n      0x20\n      add\n      0x4861732067616e61646f00000000000000000000000000000000000000000000\n      dup2\n      mstore\n      pop\n      swap5\n      pop\n      pop\n      pop\n      pop\n      pop\n      jump(tag_149)\n        /* \"contracts/CarreraCoches/principal.sol\":4056:4431  if(ganador == 0){\r... */\n    tag_166:\n        /* \"contracts/CarreraCoches/principal.sol\":4320:4368  mostrarResultado(\"El coche ganador es: \", rival) */\n      0xa28482eec3136a2461c6c30c08f71ba279c6c51a2d9c7bea4e50d6d2632f3896\n        /* \"contracts/CarreraCoches/principal.sol\":4362:4367  rival */\n      dup5\n        /* \"contracts/CarreraCoches/principal.sol\":4320:4368  mostrarResultado(\"El coche ganador es: \", rival) */\n      mload(0x40)\n      tag_178\n      swap2\n      swap1\n      tag_179\n      jump\t// in\n    tag_178:\n      mload(0x40)\n      dup1\n      swap2\n      sub\n      swap1\n      log1\n        /* \"contracts/CarreraCoches/principal.sol\":4391:4411  return \"Has perdido\" */\n      mload(0x40)\n      dup1\n      0x40\n      add\n      0x40\n      mstore\n      dup1\n      0x0b\n      dup2\n      mstore\n      0x20\n      add\n      0x486173207065726469646f000000000000000000000000000000000000000000\n      dup2\n      mstore\n      pop\n      swap5\n      pop\n      pop\n      pop\n      pop\n      pop\n      jump(tag_149)\n        /* \"contracts/CarreraCoches/principal.sol\":3994:4547  if (msg.sender == listaCoches[i].idPiloto) {\r... */\n    tag_165:\n        /* \"contracts/CarreraCoches/principal.sol\":3872:3875  i++ */\n      dup1\n      dup1\n      tag_189\n      swap1\n      tag_128\n      jump\t// in\n    tag_189:\n      swap2\n      pop\n      pop\n        /* \"contracts/CarreraCoches/principal.sol\":3832:4558  for(uint i = 0; i < listaCoches.length; i++){\r... */\n      jump(tag_159)\n    tag_160:\n      pop\n        /* \"contracts/CarreraCoches/principal.sol\":3384:4564  {\r... */\n      pop\n      pop\n      pop\n        /* \"contracts/CarreraCoches/principal.sol\":3309:4564  function Apostar(uint dineroApostar) public payable returns(string memory) {\r... */\n    tag_149:\n      swap2\n      swap1\n      pop\n      jump\t// out\n        /* \"contracts/CarreraCoches/cocheToken.sol\":180:316  function balanceOf(address _owner) public override view returns (uint256 _balance) {\r... */\n    tag_62:\n        /* \"contracts/CarreraCoches/cocheToken.sol\":245:261  uint256 _balance */\n      0x00\n        /* \"contracts/CarreraCoches/cocheToken.sol\":281:300  numeroCochesPersona */\n      0x07\n        /* \"contracts/CarreraCoches/cocheToken.sol\":281:308  numeroCochesPersona[_owner] */\n      0x00\n        /* \"contracts/CarreraCoches/cocheToken.sol\":301:307  _owner */\n      dup4\n        /* \"contracts/CarreraCoches/cocheToken.sol\":281:308  numeroCochesPersona[_owner] */\n      0xffffffffffffffffffffffffffffffffffffffff\n      and\n      0xffffffffffffffffffffffffffffffffffffffff\n      and\n      dup2\n      mstore\n      0x20\n      add\n      swap1\n      dup2\n      mstore\n      0x20\n      add\n      0x00\n      keccak256\n      sload\n        /* \"contracts/CarreraCoches/cocheToken.sol\":274:308  return numeroCochesPersona[_owner] */\n      swap1\n      pop\n        /* \"contracts/CarreraCoches/cocheToken.sol\":180:316  function balanceOf(address _owner) public override view returns (uint256 _balance) {\r... */\n      swap2\n      swap1\n      pop\n      jump\t// out\n        /* \"contracts/CarreraCoches/ownable.sol\":1719:1822  function renounceOwnership() public virtual onlyOwner {\r... */\n    tag_66:\n        /* \"contracts/CarreraCoches/ownable.sol\":1299:1311  _msgSender() */\n      tag_192\n        /* \"contracts/CarreraCoches/ownable.sol\":1299:1309  _msgSender */\n      tag_107\n        /* \"contracts/CarreraCoches/ownable.sol\":1299:1311  _msgSender() */\n      jump\t// in\n    tag_192:\n        /* \"contracts/CarreraCoches/ownable.sol\":1288:1311  owner() == _msgSender() */\n      0xffffffffffffffffffffffffffffffffffffffff\n      and\n        /* \"contracts/CarreraCoches/ownable.sol\":1288:1295  owner() */\n      tag_193\n        /* \"contracts/CarreraCoches/ownable.sol\":1288:1293  owner */\n      tag_74\n        /* \"contracts/CarreraCoches/ownable.sol\":1288:1295  owner() */\n      jump\t// in\n    tag_193:\n        /* \"contracts/CarreraCoches/ownable.sol\":1288:1311  owner() == _msgSender() */\n      0xffffffffffffffffffffffffffffffffffffffff\n      and\n      eq\n        /* \"contracts/CarreraCoches/ownable.sol\":1280:1348  require(owner() == _msgSender(), \"Ownable: caller is not the owner\") */\n      tag_194\n      jumpi\n      mload(0x40)\n      0x08c379a000000000000000000000000000000000000000000000000000000000\n      dup2\n      mstore\n      0x04\n      add\n      tag_195\n      swap1\n      tag_111\n      jump\t// in\n    tag_195:\n      mload(0x40)\n      dup1\n      swap2\n      sub\n      swap1\n      revert\n    tag_194:\n        /* \"contracts/CarreraCoches/ownable.sol\":1784:1814  _transferOwnership(address(0)) */\n      tag_197\n        /* \"contracts/CarreraCoches/ownable.sol\":1811:1812  0 */\n      0x00\n        /* \"contracts/CarreraCoches/ownable.sol\":1784:1802  _transferOwnership */\n      tag_198\n        /* \"contracts/CarreraCoches/ownable.sol\":1784:1814  _transferOwnership(address(0)) */\n      jump\t// in\n    tag_197:\n        /* \"contracts/CarreraCoches/ownable.sol\":1719:1822  function renounceOwnership() public virtual onlyOwner {\r... */\n      jump\t// out\n        /* \"contracts/CarreraCoches/principal.sol\":816:867  mapping (uint => address) public cocheDePropietario */\n    tag_70:\n      mstore(0x20, 0x06)\n      dup1\n      0x00\n      mstore\n      keccak256(0x00, 0x40)\n      0x00\n      swap2\n      pop\n      sload\n      swap1\n      0x0100\n      exp\n      swap1\n      div\n      0xffffffffffffffffffffffffffffffffffffffff\n      and\n      dup2\n      jump\t// out\n        /* \"contracts/CarreraCoches/ownable.sol\":1068:1155  function owner() public view virtual returns (address) {\r... */\n    tag_74:\n        /* \"contracts/CarreraCoches/ownable.sol\":1114:1121  address */\n      0x00\n        /* \"contracts/CarreraCoches/ownable.sol\":1141:1147  _owner */\n      dup1\n      0x00\n      swap1\n      sload\n      swap1\n      0x0100\n      exp\n      swap1\n      div\n      0xffffffffffffffffffffffffffffffffffffffff\n      and\n        /* \"contracts/CarreraCoches/ownable.sol\":1134:1147  return _owner */\n      swap1\n      pop\n        /* \"contracts/CarreraCoches/ownable.sol\":1068:1155  function owner() public view virtual returns (address) {\r... */\n      swap1\n      jump\t// out\n        /* \"contracts/CarreraCoches/cocheToken.sol\":724:866  function transfer(address _to, uint256 _tokenId) public override onlyOwnerOf(_tokenId) {\r... */\n    tag_79:\n        /* \"contracts/CarreraCoches/cocheToken.sol\":801:809  _tokenId */\n      dup1\n        /* \"contracts/CarreraCoches/principal.sol\":1198:1216  cocheDePropietario */\n      0x06\n        /* \"contracts/CarreraCoches/principal.sol\":1198:1224  cocheDePropietario[_coche] */\n      0x00\n        /* \"contracts/CarreraCoches/principal.sol\":1217:1223  _coche */\n      dup3\n        /* \"contracts/CarreraCoches/principal.sol\":1198:1224  cocheDePropietario[_coche] */\n      dup2\n      mstore\n      0x20\n      add\n      swap1\n      dup2\n      mstore\n      0x20\n      add\n      0x00\n      keccak256\n      0x00\n      swap1\n      sload\n      swap1\n      0x0100\n      exp\n      swap1\n      div\n      0xffffffffffffffffffffffffffffffffffffffff\n      and\n        /* \"contracts/CarreraCoches/principal.sol\":1184:1224  msg.sender == cocheDePropietario[_coche] */\n      0xffffffffffffffffffffffffffffffffffffffff\n      and\n        /* \"contracts/CarreraCoches/principal.sol\":1184:1194  msg.sender */\n      caller\n        /* \"contracts/CarreraCoches/principal.sol\":1184:1224  msg.sender == cocheDePropietario[_coche] */\n      0xffffffffffffffffffffffffffffffffffffffff\n      and\n      eq\n        /* \"contracts/CarreraCoches/principal.sol\":1176:1225  require(msg.sender == cocheDePropietario[_coche]) */\n      tag_201\n      jumpi\n      0x00\n      dup1\n      revert\n    tag_201:\n        /* \"contracts/CarreraCoches/cocheToken.sol\":822:858  _transfer(msg.sender, _to, _tokenId) */\n      tag_203\n        /* \"contracts/CarreraCoches/cocheToken.sol\":832:842  msg.sender */\n      caller\n        /* \"contracts/CarreraCoches/cocheToken.sol\":844:847  _to */\n      dup5\n        /* \"contracts/CarreraCoches/cocheToken.sol\":849:857  _tokenId */\n      dup5\n        /* \"contracts/CarreraCoches/cocheToken.sol\":822:831  _transfer */\n      tag_204\n        /* \"contracts/CarreraCoches/cocheToken.sol\":822:858  _transfer(msg.sender, _to, _tokenId) */\n      jump\t// in\n    tag_203:\n        /* \"contracts/CarreraCoches/cocheToken.sol\":724:866  function transfer(address _to, uint256 _tokenId) public override onlyOwnerOf(_tokenId) {\r... */\n      pop\n      pop\n      pop\n      jump\t// out\n        /* \"contracts/CarreraCoches/ownable.sol\":701:722  address public _owner */\n    tag_82:\n      0x00\n      dup1\n      sload\n      swap1\n      0x0100\n      exp\n      swap1\n      div\n      0xffffffffffffffffffffffffffffffffffffffff\n      and\n      dup2\n      jump\t// out\n        /* \"contracts/CarreraCoches/cocheToken.sol\":1010:1077  function takeOwnership(uint256 _tokenId) public override {\r... */\n    tag_87:\n      pop\n      jump\t// out\n        /* \"contracts/CarreraCoches/principal.sol\":569:595  Coche[] public listaCoches */\n    tag_91:\n      0x05\n      dup2\n      dup2\n      sload\n      dup2\n      lt\n      tag_206\n      jumpi\n      0x00\n      dup1\n      revert\n    tag_206:\n      swap1\n      0x00\n      mstore\n      keccak256(0x00, 0x20)\n      swap1\n      0x08\n      mul\n      add\n      0x00\n      swap2\n      pop\n      swap1\n      pop\n      dup1\n      0x00\n      add\n      0x00\n      swap1\n      sload\n      swap1\n      0x0100\n      exp\n      swap1\n      div\n      0xffffffffffffffffffffffffffffffffffffffff\n      and\n      swap1\n      dup1\n      0x01\n      add\n      dup1\n      sload\n      tag_208\n      swap1\n      tag_209\n      jump\t// in\n    tag_208:\n      dup1\n      0x1f\n      add\n      0x20\n      dup1\n      swap2\n      div\n      mul\n      0x20\n      add\n      mload(0x40)\n      swap1\n      dup2\n      add\n      0x40\n      mstore\n      dup1\n      swap3\n      swap2\n      swap1\n      dup2\n      dup2\n      mstore\n      0x20\n      add\n      dup3\n      dup1\n      sload\n      tag_210\n      swap1\n      tag_209\n      jump\t// in\n    tag_210:\n      dup1\n      iszero\n      tag_211\n      jumpi\n      dup1\n      0x1f\n      lt\n      tag_212\n      jumpi\n      0x0100\n      dup1\n      dup4\n      sload\n      div\n      mul\n      dup4\n      mstore\n      swap2\n      0x20\n      add\n      swap2\n      jump(tag_211)\n    tag_212:\n      dup3\n      add\n      swap2\n      swap1\n      0x00\n      mstore\n      keccak256(0x00, 0x20)\n      swap1\n    tag_213:\n      dup2\n      sload\n      dup2\n      mstore\n      swap1\n      0x01\n      add\n      swap1\n      0x20\n      add\n      dup1\n      dup4\n      gt\n      tag_213\n      jumpi\n      dup3\n      swap1\n      sub\n      0x1f\n      and\n      dup3\n      add\n      swap2\n    tag_211:\n      pop\n      pop\n      pop\n      pop\n      pop\n      swap1\n      dup1\n      0x02\n      add\n      dup1\n      sload\n      tag_214\n      swap1\n      tag_209\n      jump\t// in\n    tag_214:\n      dup1\n      0x1f\n      add\n      0x20\n      dup1\n      swap2\n      div\n      mul\n      0x20\n      add\n      mload(0x40)\n      swap1\n      dup2\n      add\n      0x40\n      mstore\n      dup1\n      swap3\n      swap2\n      swap1\n      dup2\n      dup2\n      mstore\n      0x20\n      add\n      dup3\n      dup1\n      sload\n      tag_215\n      swap1\n      tag_209\n      jump\t// in\n    tag_215:\n      dup1\n      iszero\n      tag_216\n      jumpi\n      dup1\n      0x1f\n      lt\n      tag_217\n      jumpi\n      0x0100\n      dup1\n      dup4\n      sload\n      div\n      mul\n      dup4\n      mstore\n      swap2\n      0x20\n      add\n      swap2\n      jump(tag_216)\n    tag_217:\n      dup3\n      add\n      swap2\n      swap1\n      0x00\n      mstore\n      keccak256(0x00, 0x20)\n      swap1\n    tag_218:\n      dup2\n      sload\n      dup2\n      mstore\n      swap1\n      0x01\n      add\n      swap1\n      0x20\n      add\n      dup1\n      dup4\n      gt\n      tag_218\n      jumpi\n      dup3\n      swap1\n      sub\n      0x1f\n      and\n      dup3\n      add\n      swap2\n    tag_216:\n      pop\n      pop\n      pop\n      pop\n      pop\n      swap1\n      dup1\n      0x03\n      add\n      dup1\n      sload\n      tag_219\n      swap1\n      tag_209\n      jump\t// in\n    tag_219:\n      dup1\n      0x1f\n      add\n      0x20\n      dup1\n      swap2\n      div\n      mul\n      0x20\n      add\n      mload(0x40)\n      swap1\n      dup2\n      add\n      0x40\n      mstore\n      dup1\n      swap3\n      swap2\n      swap1\n      dup2\n      dup2\n      mstore\n      0x20\n      add\n      dup3\n      dup1\n      sload\n      tag_220\n      swap1\n      tag_209\n      jump\t// in\n    tag_220:\n      dup1\n      iszero\n      tag_221\n      jumpi\n      dup1\n      0x1f\n      lt\n      tag_222\n      jumpi\n      0x0100\n      dup1\n      dup4\n      sload\n      div\n      mul\n      dup4\n      mstore\n      swap2\n      0x20\n      add\n      swap2\n      jump(tag_221)\n    tag_222:\n      dup3\n      add\n      swap2\n      swap1\n      0x00\n      mstore\n      keccak256(0x00, 0x20)\n      swap1\n    tag_223:\n      dup2\n      sload\n      dup2\n      mstore\n      swap1\n      0x01\n      add\n      swap1\n      0x20\n      add\n      dup1\n      dup4\n      gt\n      tag_223\n      jumpi\n      dup3\n      swap1\n      sub\n      0x1f\n      and\n      dup3\n      add\n      swap2\n    tag_221:\n      pop\n      pop\n      pop\n      pop\n      pop\n      swap1\n      dup1\n      0x04\n      add\n      sload\n      swap1\n      dup1\n      0x05\n      add\n      sload\n      swap1\n      dup1\n      0x06\n      add\n      sload\n      swap1\n      dup1\n      0x07\n      add\n      0x00\n      swap1\n      sload\n      swap1\n      0x0100\n      exp\n      swap1\n      div\n      0xffffffff\n      and\n      swap1\n      pop\n      dup9\n      jump\t// out\n        /* \"contracts/CarreraCoches/principal.sol\":2628:2972  function verCochePropietario(address _propietario) external {\r... */\n    tag_97:\n        /* \"contracts/CarreraCoches/principal.sol\":2703:2709  uint i */\n      0x00\n        /* \"contracts/CarreraCoches/principal.sol\":2699:2965  for(uint i = 0; i < listaCoches.length; i++){\r... */\n    tag_225:\n        /* \"contracts/CarreraCoches/principal.sol\":2719:2730  listaCoches */\n      0x05\n        /* \"contracts/CarreraCoches/principal.sol\":2719:2737  listaCoches.length */\n      dup1\n      sload\n      swap1\n      pop\n        /* \"contracts/CarreraCoches/principal.sol\":2715:2716  i */\n      dup2\n        /* \"contracts/CarreraCoches/principal.sol\":2715:2737  i < listaCoches.length */\n      lt\n        /* \"contracts/CarreraCoches/principal.sol\":2699:2965  for(uint i = 0; i < listaCoches.length; i++){\r... */\n      iszero\n      tag_226\n      jumpi\n        /* \"contracts/CarreraCoches/principal.sol\":2786:2798  _propietario */\n      dup2\n        /* \"contracts/CarreraCoches/principal.sol\":2761:2798  listaCoches[i].idPiloto==_propietario */\n      0xffffffffffffffffffffffffffffffffffffffff\n      and\n        /* \"contracts/CarreraCoches/principal.sol\":2761:2772  listaCoches */\n      0x05\n        /* \"contracts/CarreraCoches/principal.sol\":2773:2774  i */\n      dup3\n        /* \"contracts/CarreraCoches/principal.sol\":2761:2775  listaCoches[i] */\n      dup2\n      sload\n      dup2\n      lt\n      tag_228\n      jumpi\n      tag_229\n      tag_140\n      jump\t// in\n    tag_229:\n    tag_228:\n      swap1\n      0x00\n      mstore\n      keccak256(0x00, 0x20)\n      swap1\n      0x08\n      mul\n      add\n        /* \"contracts/CarreraCoches/principal.sol\":2761:2784  listaCoches[i].idPiloto */\n      0x00\n      add\n      0x00\n      swap1\n      sload\n      swap1\n      0x0100\n      exp\n      swap1\n      div\n      0xffffffffffffffffffffffffffffffffffffffff\n      and\n        /* \"contracts/CarreraCoches/principal.sol\":2761:2798  listaCoches[i].idPiloto==_propietario */\n      0xffffffffffffffffffffffffffffffffffffffff\n      and\n      eq\n        /* \"contracts/CarreraCoches/principal.sol\":2758:2954  if(listaCoches[i].idPiloto==_propietario){\r... */\n      iszero\n      tag_231\n      jumpi\n        /* \"contracts/CarreraCoches/principal.sol\":2823:2938  cochePropietario(listaCoches[i].marca, listaCoches[i].modelo, listaCoches[i].nivel, listaCoches[i].carrerasGanadas) */\n      0x18c2885dbbffc4e127da047b869295b42d8d5ee97848f7f117b062e88f34a9e6\n        /* \"contracts/CarreraCoches/principal.sol\":2840:2851  listaCoches */\n      0x05\n        /* \"contracts/CarreraCoches/principal.sol\":2852:2853  i */\n      dup3\n        /* \"contracts/CarreraCoches/principal.sol\":2840:2854  listaCoches[i] */\n      dup2\n      sload\n      dup2\n      lt\n      tag_232\n      jumpi\n      tag_233\n      tag_140\n      jump\t// in\n    tag_233:\n    tag_232:\n      swap1\n      0x00\n      mstore\n      keccak256(0x00, 0x20)\n      swap1\n      0x08\n      mul\n      add\n        /* \"contracts/CarreraCoches/principal.sol\":2840:2860  listaCoches[i].marca */\n      0x02\n      add\n        /* \"contracts/CarreraCoches/principal.sol\":2862:2873  listaCoches */\n      0x05\n        /* \"contracts/CarreraCoches/principal.sol\":2874:2875  i */\n      dup4\n        /* \"contracts/CarreraCoches/principal.sol\":2862:2876  listaCoches[i] */\n      dup2\n      sload\n      dup2\n      lt\n      tag_235\n      jumpi\n      tag_236\n      tag_140\n      jump\t// in\n    tag_236:\n    tag_235:\n      swap1\n      0x00\n      mstore\n      keccak256(0x00, 0x20)\n      swap1\n      0x08\n      mul\n      add\n        /* \"contracts/CarreraCoches/principal.sol\":2862:2883  listaCoches[i].modelo */\n      0x01\n      add\n        /* \"contracts/CarreraCoches/principal.sol\":2885:2896  listaCoches */\n      0x05\n        /* \"contracts/CarreraCoches/principal.sol\":2897:2898  i */\n      dup5\n        /* \"contracts/CarreraCoches/principal.sol\":2885:2899  listaCoches[i] */\n      dup2\n      sload\n      dup2\n      lt\n      tag_238\n      jumpi\n      tag_239\n      tag_140\n      jump\t// in\n    tag_239:\n    tag_238:\n      swap1\n      0x00\n      mstore\n      keccak256(0x00, 0x20)\n      swap1\n      0x08\n      mul\n      add\n        /* \"contracts/CarreraCoches/principal.sol\":2885:2905  listaCoches[i].nivel */\n      0x07\n      add\n      0x00\n      swap1\n      sload\n      swap1\n      0x0100\n      exp\n      swap1\n      div\n      0xffffffff\n      and\n        /* \"contracts/CarreraCoches/principal.sol\":2907:2918  listaCoches */\n      0x05\n        /* \"contracts/CarreraCoches/principal.sol\":2919:2920  i */\n      dup6\n        /* \"contracts/CarreraCoches/principal.sol\":2907:2921  listaCoches[i] */\n      dup2\n      sload\n      dup2\n      lt\n      tag_241\n      jumpi\n      tag_242\n      tag_140\n      jump\t// in\n    tag_242:\n    tag_241:\n      swap1\n      0x00\n      mstore\n      keccak256(0x00, 0x20)\n      swap1\n      0x08\n      mul\n      add\n        /* \"contracts/CarreraCoches/principal.sol\":2907:2937  listaCoches[i].carrerasGanadas */\n      0x04\n      add\n      sload\n        /* \"contracts/CarreraCoches/principal.sol\":2823:2938  cochePropietario(listaCoches[i].marca, listaCoches[i].modelo, listaCoches[i].nivel, listaCoches[i].carrerasGanadas) */\n      mload(0x40)\n      tag_244\n      swap5\n      swap4\n      swap3\n      swap2\n      swap1\n      tag_245\n      jump\t// in\n    tag_244:\n      mload(0x40)\n      dup1\n      swap2\n      sub\n      swap1\n      log1\n        /* \"contracts/CarreraCoches/principal.sol\":2758:2954  if(listaCoches[i].idPiloto==_propietario){\r... */\n    tag_231:\n        /* \"contracts/CarreraCoches/principal.sol\":2739:2742  i++ */\n      dup1\n      dup1\n      tag_246\n      swap1\n      tag_128\n      jump\t// in\n    tag_246:\n      swap2\n      pop\n      pop\n        /* \"contracts/CarreraCoches/principal.sol\":2699:2965  for(uint i = 0; i < listaCoches.length; i++){\r... */\n      jump(tag_225)\n    tag_226:\n      pop\n        /* \"contracts/CarreraCoches/principal.sol\":2628:2972  function verCochePropietario(address _propietario) external {\r... */\n      pop\n      jump\t// out\n        /* \"contracts/CarreraCoches/ownable.sol\":1977:2178  function transferOwnership(address newOwner) public virtual onlyOwner {\r... */\n    tag_101:\n        /* \"contracts/CarreraCoches/ownable.sol\":1299:1311  _msgSender() */\n      tag_248\n        /* \"contracts/CarreraCoches/ownable.sol\":1299:1309  _msgSender */\n      tag_107\n        /* \"contracts/CarreraCoches/ownable.sol\":1299:1311  _msgSender() */\n      jump\t// in\n    tag_248:\n        /* \"contracts/CarreraCoches/ownable.sol\":1288:1311  owner() == _msgSender() */\n      0xffffffffffffffffffffffffffffffffffffffff\n      and\n        /* \"contracts/CarreraCoches/ownable.sol\":1288:1295  owner() */\n      tag_249\n        /* \"contracts/CarreraCoches/ownable.sol\":1288:1293  owner */\n      tag_74\n        /* \"contracts/CarreraCoches/ownable.sol\":1288:1295  owner() */\n      jump\t// in\n    tag_249:\n        /* \"contracts/CarreraCoches/ownable.sol\":1288:1311  owner() == _msgSender() */\n      0xffffffffffffffffffffffffffffffffffffffff\n      and\n      eq\n        /* \"contracts/CarreraCoches/ownable.sol\":1280:1348  require(owner() == _msgSender(), \"Ownable: caller is not the owner\") */\n      tag_250\n      jumpi\n      mload(0x40)\n      0x08c379a000000000000000000000000000000000000000000000000000000000\n      dup2\n      mstore\n      0x04\n      add\n      tag_251\n      swap1\n      tag_111\n      jump\t// in\n    tag_251:\n      mload(0x40)\n      dup1\n      swap2\n      sub\n      swap1\n      revert\n    tag_250:\n        /* \"contracts/CarreraCoches/ownable.sol\":2086:2087  0 */\n      0x00\n        /* \"contracts/CarreraCoches/ownable.sol\":2066:2088  newOwner != address(0) */\n      0xffffffffffffffffffffffffffffffffffffffff\n      and\n        /* \"contracts/CarreraCoches/ownable.sol\":2066:2074  newOwner */\n      dup2\n        /* \"contracts/CarreraCoches/ownable.sol\":2066:2088  newOwner != address(0) */\n      0xffffffffffffffffffffffffffffffffffffffff\n      and\n      eq\n      iszero\n        /* \"contracts/CarreraCoches/ownable.sol\":2058:2131  require(newOwner != address(0), \"Ownable: new owner is the zero address\") */\n      tag_253\n      jumpi\n      mload(0x40)\n      0x08c379a000000000000000000000000000000000000000000000000000000000\n      dup2\n      mstore\n      0x04\n      add\n      tag_254\n      swap1\n      tag_255\n      jump\t// in\n    tag_254:\n      mload(0x40)\n      dup1\n      swap2\n      sub\n      swap1\n      revert\n    tag_253:\n        /* \"contracts/CarreraCoches/ownable.sol\":2142:2170  _transferOwnership(newOwner) */\n      tag_256\n        /* \"contracts/CarreraCoches/ownable.sol\":2161:2169  newOwner */\n      dup2\n        /* \"contracts/CarreraCoches/ownable.sol\":2142:2160  _transferOwnership */\n      tag_198\n        /* \"contracts/CarreraCoches/ownable.sol\":2142:2170  _transferOwnership(newOwner) */\n      jump\t// in\n    tag_256:\n        /* \"contracts/CarreraCoches/ownable.sol\":1977:2178  function transferOwnership(address newOwner) public virtual onlyOwner {\r... */\n      pop\n      jump\t// out\n        /* \"contracts/CarreraCoches/utils/Context.sol\":656:754  function _msgSender() internal view virtual returns (address) {\r... */\n    tag_107:\n        /* \"contracts/CarreraCoches/utils/Context.sol\":709:716  address */\n      0x00\n        /* \"contracts/CarreraCoches/utils/Context.sol\":736:746  msg.sender */\n      caller\n        /* \"contracts/CarreraCoches/utils/Context.sol\":729:746  return msg.sender */\n      swap1\n      pop\n        /* \"contracts/CarreraCoches/utils/Context.sol\":656:754  function _msgSender() internal view virtual returns (address) {\r... */\n      swap1\n      jump\t// out\n        /* \"contracts/CarreraCoches/principal.sol\":4621:4800  function balance() private {\r... */\n    tag_168:\n        /* \"contracts/CarreraCoches/principal.sol\":4668:4678  msg.sender */\n      caller\n        /* \"contracts/CarreraCoches/principal.sol\":4659:4688  payable (msg.sender).transfer */\n      0xffffffffffffffffffffffffffffffffffffffff\n      and\n        /* \"contracts/CarreraCoches/principal.sol\":4659:4715  payable (msg.sender).transfer((address(this).balance)*2) */\n      0x08fc\n        /* \"contracts/CarreraCoches/principal.sol\":4713:4714  2 */\n      0x02\n        /* \"contracts/CarreraCoches/principal.sol\":4690:4711  address(this).balance */\n      selfbalance\n        /* \"contracts/CarreraCoches/principal.sol\":4689:4714  (address(this).balance)*2 */\n      tag_259\n      swap2\n      swap1\n      tag_260\n      jump\t// in\n    tag_259:\n        /* \"contracts/CarreraCoches/principal.sol\":4659:4715  payable (msg.sender).transfer((address(this).balance)*2) */\n      swap1\n      dup2\n      iszero\n      mul\n      swap1\n      mload(0x40)\n      0x00\n      mload(0x40)\n      dup1\n      dup4\n      sub\n      dup2\n      dup6\n      dup9\n      dup9\n      call\n      swap4\n      pop\n      pop\n      pop\n      pop\n      iszero\n      dup1\n      iszero\n      tag_262\n      jumpi\n      returndatasize\n      0x00\n      dup1\n      returndatacopy\n      revert(0x00, returndatasize)\n    tag_262:\n      pop\n        /* \"contracts/CarreraCoches/principal.sol\":4731:4792  mostrarResultado(\"Has ganado: \", ((address(this).balance)*2)) */\n      0xa28482eec3136a2461c6c30c08f71ba279c6c51a2d9c7bea4e50d6d2632f3896\n        /* \"contracts/CarreraCoches/principal.sol\":4789:4790  2 */\n      0x02\n        /* \"contracts/CarreraCoches/principal.sol\":4766:4787  address(this).balance */\n      selfbalance\n        /* \"contracts/CarreraCoches/principal.sol\":4765:4790  (address(this).balance)*2 */\n      tag_263\n      swap2\n      swap1\n      tag_260\n      jump\t// in\n    tag_263:\n        /* \"contracts/CarreraCoches/principal.sol\":4731:4792  mostrarResultado(\"Has ganado: \", ((address(this).balance)*2)) */\n      mload(0x40)\n      tag_264\n      swap2\n      swap1\n      tag_265\n      jump\t// in\n    tag_264:\n      mload(0x40)\n      dup1\n      swap2\n      sub\n      swap1\n      log1\n        /* \"contracts/CarreraCoches/principal.sol\":4621:4800  function balance() private {\r... */\n      jump\t// out\n        /* \"contracts/CarreraCoches/ownable.sol\":2338:2529  function _transferOwnership(address newOwner) internal virtual {\r... */\n    tag_198:\n        /* \"contracts/CarreraCoches/ownable.sol\":2412:2428  address oldOwner */\n      0x00\n        /* \"contracts/CarreraCoches/ownable.sol\":2431:2437  _owner */\n      dup1\n      0x00\n      swap1\n      sload\n      swap1\n      0x0100\n      exp\n      swap1\n      div\n      0xffffffffffffffffffffffffffffffffffffffff\n      and\n        /* \"contracts/CarreraCoches/ownable.sol\":2412:2437  address oldOwner = _owner */\n      swap1\n      pop\n        /* \"contracts/CarreraCoches/ownable.sol\":2457:2465  newOwner */\n      dup2\n        /* \"contracts/CarreraCoches/ownable.sol\":2448:2454  _owner */\n      0x00\n      dup1\n        /* \"contracts/CarreraCoches/ownable.sol\":2448:2465  _owner = newOwner */\n      0x0100\n      exp\n      dup2\n      sload\n      dup2\n      0xffffffffffffffffffffffffffffffffffffffff\n      mul\n      not\n      and\n      swap1\n      dup4\n      0xffffffffffffffffffffffffffffffffffffffff\n      and\n      mul\n      or\n      swap1\n      sstore\n      pop\n        /* \"contracts/CarreraCoches/ownable.sol\":2512:2520  newOwner */\n      dup2\n        /* \"contracts/CarreraCoches/ownable.sol\":2481:2521  OwnershipTransferred(oldOwner, newOwner) */\n      0xffffffffffffffffffffffffffffffffffffffff\n      and\n        /* \"contracts/CarreraCoches/ownable.sol\":2502:2510  oldOwner */\n      dup2\n        /* \"contracts/CarreraCoches/ownable.sol\":2481:2521  OwnershipTransferred(oldOwner, newOwner) */\n      0xffffffffffffffffffffffffffffffffffffffff\n      and\n      0x8be0079c531659141344cd1fd0a4f28419497f9722a3daafe3b4186f6b6457e0\n      mload(0x40)\n      mload(0x40)\n      dup1\n      swap2\n      sub\n      swap1\n      log3\n        /* \"contracts/CarreraCoches/ownable.sol\":2401:2529  {\r... */\n      pop\n        /* \"contracts/CarreraCoches/ownable.sol\":2338:2529  function _transferOwnership(address newOwner) internal virtual {\r... */\n      pop\n      jump\t// out\n        /* \"contracts/CarreraCoches/cocheToken.sol\":467:716  function _transfer(address _from, address _to, uint256 _tokenId) private {\r... */\n    tag_204:\n        /* \"contracts/CarreraCoches/cocheToken.sol\":551:570  numeroCochesPersona */\n      0x07\n        /* \"contracts/CarreraCoches/cocheToken.sol\":551:575  numeroCochesPersona[_to] */\n      0x00\n        /* \"contracts/CarreraCoches/cocheToken.sol\":571:574  _to */\n      dup4\n        /* \"contracts/CarreraCoches/cocheToken.sol\":551:575  numeroCochesPersona[_to] */\n      0xffffffffffffffffffffffffffffffffffffffff\n      and\n      0xffffffffffffffffffffffffffffffffffffffff\n      and\n      dup2\n      mstore\n      0x20\n      add\n      swap1\n      dup2\n      mstore\n      0x20\n      add\n      0x00\n      keccak256\n      0x00\n        /* \"contracts/CarreraCoches/cocheToken.sol\":551:577  numeroCochesPersona[_to]++ */\n      dup2\n      sload\n      dup1\n      swap3\n      swap2\n      swap1\n      tag_270\n      swap1\n      tag_128\n      jump\t// in\n    tag_270:\n      swap2\n      swap1\n      pop\n      sstore\n      pop\n        /* \"contracts/CarreraCoches/cocheToken.sol\":588:607  numeroCochesPersona */\n      0x07\n        /* \"contracts/CarreraCoches/cocheToken.sol\":588:614  numeroCochesPersona[_from] */\n      0x00\n        /* \"contracts/CarreraCoches/cocheToken.sol\":608:613  _from */\n      dup5\n        /* \"contracts/CarreraCoches/cocheToken.sol\":588:614  numeroCochesPersona[_from] */\n      0xffffffffffffffffffffffffffffffffffffffff\n      and\n      0xffffffffffffffffffffffffffffffffffffffff\n      and\n      dup2\n      mstore\n      0x20\n      add\n      swap1\n      dup2\n      mstore\n      0x20\n      add\n      0x00\n      keccak256\n      0x00\n        /* \"contracts/CarreraCoches/cocheToken.sol\":588:616  numeroCochesPersona[_from]-- */\n      dup2\n      sload\n      dup1\n      swap3\n      swap2\n      swap1\n      tag_271\n      swap1\n      tag_272\n      jump\t// in\n    tag_271:\n      swap2\n      swap1\n      pop\n      sstore\n      pop\n        /* \"contracts/CarreraCoches/cocheToken.sol\":659:662  _to */\n      dup2\n        /* \"contracts/CarreraCoches/cocheToken.sol\":627:662  cocheDePropietario[_tokenId] == _to */\n      0xffffffffffffffffffffffffffffffffffffffff\n      and\n        /* \"contracts/CarreraCoches/cocheToken.sol\":627:645  cocheDePropietario */\n      0x06\n        /* \"contracts/CarreraCoches/cocheToken.sol\":627:655  cocheDePropietario[_tokenId] */\n      0x00\n        /* \"contracts/CarreraCoches/cocheToken.sol\":646:654  _tokenId */\n      dup4\n        /* \"contracts/CarreraCoches/cocheToken.sol\":627:655  cocheDePropietario[_tokenId] */\n      dup2\n      mstore\n      0x20\n      add\n      swap1\n      dup2\n      mstore\n      0x20\n      add\n      0x00\n      keccak256\n      0x00\n      swap1\n      sload\n      swap1\n      0x0100\n      exp\n      swap1\n      pop\n      pop\n        /* \"contracts/CarreraCoches/cocheToken.sol\":627:662  cocheDePropietario[_tokenId] == _to */\n      pop\n        /* \"contracts/CarreraCoches/cocheToken.sol\":694:697  _to */\n      dup2\n        /* \"contracts/CarreraCoches/cocheToken.sol\":678:708  Transfer(_from, _to, _tokenId) */\n      0xffffffffffffffffffffffffffffffffffffffff\n      and\n        /* \"contracts/CarreraCoches/cocheToken.sol\":687:692  _from */\n      dup4\n        /* \"contracts/CarreraCoches/cocheToken.sol\":678:708  Transfer(_from, _to, _tokenId) */\n      0xffffffffffffffffffffffffffffffffffffffff\n      and\n      0xddf252ad1be2c89b69c2b068fc378daa952ba7f163c4a11628f55a4df523b3ef\n        /* \"contracts/CarreraCoches/cocheToken.sol\":699:707  _tokenId */\n      dup4\n        /* \"contracts/CarreraCoches/cocheToken.sol\":678:708  Transfer(_from, _to, _tokenId) */\n      mload(0x40)\n      tag_273\n      swap2\n      swap1\n      tag_36\n      jump\t// in\n    tag_273:\n      mload(0x40)\n      dup1\n      swap2\n      sub\n      swap1\n      log3\n        /* \"contracts/CarreraCoches/cocheToken.sol\":467:716  function _transfer(address _from, address _to, uint256 _tokenId) private {\r... */\n      pop\n      pop\n      pop\n      jump\t// out\n    tag_124:\n      dup3\n      dup1\n      sload\n      tag_274\n      swap1\n      tag_209\n      jump\t// in\n    tag_274:\n      swap1\n      0x00\n      mstore\n      keccak256(0x00, 0x20)\n      swap1\n      0x1f\n      add\n      0x20\n      swap1\n      div\n      dup2\n      add\n      swap3\n      dup3\n      tag_276\n      jumpi\n      0x00\n      dup6\n      sstore\n      jump(tag_275)\n    tag_276:\n      dup3\n      0x1f\n      lt\n      tag_277\n      jumpi\n      dup1\n      mload\n      not(0xff)\n      and\n      dup4\n      dup1\n      add\n      or\n      dup6\n      sstore\n      jump(tag_275)\n    tag_277:\n      dup3\n      dup1\n      add\n      0x01\n      add\n      dup6\n      sstore\n      dup3\n      iszero\n      tag_275\n      jumpi\n      swap2\n      dup3\n      add\n    tag_278:\n      dup3\n      dup2\n      gt\n      iszero\n      tag_279\n      jumpi\n      dup3\n      mload\n      dup3\n      sstore\n      swap2\n      0x20\n      add\n      swap2\n      swap1\n      0x01\n      add\n      swap1\n      jump(tag_278)\n    tag_279:\n    tag_275:\n      pop\n      swap1\n      pop\n      tag_280\n      swap2\n      swap1\n      tag_281\n      jump\t// in\n    tag_280:\n      pop\n      swap1\n      jump\t// out\n    tag_281:\n    tag_282:\n      dup1\n      dup3\n      gt\n      iszero\n      tag_283\n      jumpi\n      0x00\n      dup2\n      0x00\n      swap1\n      sstore\n      pop\n      0x01\n      add\n      jump(tag_282)\n    tag_283:\n      pop\n      swap1\n      jump\t// out\n        /* \"#utility.yul\":7:419   */\n    tag_285:\n        /* \"#utility.yul\":85:90   */\n      0x00\n        /* \"#utility.yul\":110:176   */\n      tag_287\n        /* \"#utility.yul\":126:175   */\n      tag_288\n        /* \"#utility.yul\":168:174   */\n      dup5\n        /* \"#utility.yul\":126:175   */\n      tag_289\n      jump\t// in\n    tag_288:\n        /* \"#utility.yul\":110:176   */\n      tag_290\n      jump\t// in\n    tag_287:\n        /* \"#utility.yul\":101:176   */\n      swap1\n      pop\n        /* \"#utility.yul\":199:205   */\n      dup3\n        /* \"#utility.yul\":192:197   */\n      dup2\n        /* \"#utility.yul\":185:206   */\n      mstore\n        /* \"#utility.yul\":237:241   */\n      0x20\n        /* \"#utility.yul\":230:235   */\n      dup2\n        /* \"#utility.yul\":226:242   */\n      add\n        /* \"#utility.yul\":275:278   */\n      dup5\n        /* \"#utility.yul\":266:272   */\n      dup5\n        /* \"#utility.yul\":261:264   */\n      dup5\n        /* \"#utility.yul\":257:273   */\n      add\n        /* \"#utility.yul\":254:279   */\n      gt\n        /* \"#utility.yul\":251:363   */\n      iszero\n      tag_291\n      jumpi\n        /* \"#utility.yul\":282:361   */\n      tag_292\n      tag_293\n      jump\t// in\n    tag_292:\n        /* \"#utility.yul\":251:363   */\n    tag_291:\n        /* \"#utility.yul\":372:413   */\n      tag_294\n        /* \"#utility.yul\":406:412   */\n      dup5\n        /* \"#utility.yul\":401:404   */\n      dup3\n        /* \"#utility.yul\":396:399   */\n      dup6\n        /* \"#utility.yul\":372:413   */\n      tag_295\n      jump\t// in\n    tag_294:\n        /* \"#utility.yul\":91:419   */\n      pop\n        /* \"#utility.yul\":7:419   */\n      swap4\n      swap3\n      pop\n      pop\n      pop\n      jump\t// out\n        /* \"#utility.yul\":425:564   */\n    tag_296:\n        /* \"#utility.yul\":471:476   */\n      0x00\n        /* \"#utility.yul\":509:515   */\n      dup2\n        /* \"#utility.yul\":496:516   */\n      calldataload\n        /* \"#utility.yul\":487:516   */\n      swap1\n      pop\n        /* \"#utility.yul\":525:558   */\n      tag_298\n        /* \"#utility.yul\":552:557   */\n      dup2\n        /* \"#utility.yul\":525:558   */\n      tag_299\n      jump\t// in\n    tag_298:\n        /* \"#utility.yul\":425:564   */\n      swap3\n      swap2\n      pop\n      pop\n      jump\t// out\n        /* \"#utility.yul\":584:924   */\n    tag_300:\n        /* \"#utility.yul\":640:645   */\n      0x00\n        /* \"#utility.yul\":689:692   */\n      dup3\n        /* \"#utility.yul\":682:686   */\n      0x1f\n        /* \"#utility.yul\":674:680   */\n      dup4\n        /* \"#utility.yul\":670:687   */\n      add\n        /* \"#utility.yul\":666:693   */\n      slt\n        /* \"#utility.yul\":656:778   */\n      tag_302\n      jumpi\n        /* \"#utility.yul\":697:776   */\n      tag_303\n      tag_304\n      jump\t// in\n    tag_303:\n        /* \"#utility.yul\":656:778   */\n    tag_302:\n        /* \"#utility.yul\":814:820   */\n      dup2\n        /* \"#utility.yul\":801:821   */\n      calldataload\n        /* \"#utility.yul\":839:918   */\n      tag_305\n        /* \"#utility.yul\":914:917   */\n      dup5\n        /* \"#utility.yul\":906:912   */\n      dup3\n        /* \"#utility.yul\":899:903   */\n      0x20\n        /* \"#utility.yul\":891:897   */\n      dup7\n        /* \"#utility.yul\":887:904   */\n      add\n        /* \"#utility.yul\":839:918   */\n      tag_285\n      jump\t// in\n    tag_305:\n        /* \"#utility.yul\":830:918   */\n      swap2\n      pop\n        /* \"#utility.yul\":646:924   */\n      pop\n        /* \"#utility.yul\":584:924   */\n      swap3\n      swap2\n      pop\n      pop\n      jump\t// out\n        /* \"#utility.yul\":930:1069   */\n    tag_306:\n        /* \"#utility.yul\":976:981   */\n      0x00\n        /* \"#utility.yul\":1014:1020   */\n      dup2\n        /* \"#utility.yul\":1001:1021   */\n      calldataload\n        /* \"#utility.yul\":992:1021   */\n      swap1\n      pop\n        /* \"#utility.yul\":1030:1063   */\n      tag_308\n        /* \"#utility.yul\":1057:1062   */\n      dup2\n        /* \"#utility.yul\":1030:1063   */\n      tag_309\n      jump\t// in\n    tag_308:\n        /* \"#utility.yul\":930:1069   */\n      swap3\n      swap2\n      pop\n      pop\n      jump\t// out\n        /* \"#utility.yul\":1075:1404   */\n    tag_33:\n        /* \"#utility.yul\":1134:1140   */\n      0x00\n        /* \"#utility.yul\":1183:1185   */\n      0x20\n        /* \"#utility.yul\":1171:1180   */\n      dup3\n        /* \"#utility.yul\":1162:1169   */\n      dup5\n        /* \"#utility.yul\":1158:1181   */\n      sub\n        /* \"#utility.yul\":1154:1186   */\n      slt\n        /* \"#utility.yul\":1151:1270   */\n      iszero\n      tag_311\n      jumpi\n        /* \"#utility.yul\":1189:1268   */\n      tag_312\n      tag_313\n      jump\t// in\n    tag_312:\n        /* \"#utility.yul\":1151:1270   */\n    tag_311:\n        /* \"#utility.yul\":1309:1310   */\n      0x00\n        /* \"#utility.yul\":1334:1387   */\n      tag_314\n        /* \"#utility.yul\":1379:1386   */\n      dup5\n        /* \"#utility.yul\":1370:1376   */\n      dup3\n        /* \"#utility.yul\":1359:1368   */\n      dup6\n        /* \"#utility.yul\":1355:1377   */\n      add\n        /* \"#utility.yul\":1334:1387   */\n      tag_296\n      jump\t// in\n    tag_314:\n        /* \"#utility.yul\":1324:1387   */\n      swap2\n      pop\n        /* \"#utility.yul\":1280:1397   */\n      pop\n        /* \"#utility.yul\":1075:1404   */\n      swap3\n      swap2\n      pop\n      pop\n      jump\t// out\n        /* \"#utility.yul\":1410:1884   */\n    tag_25:\n        /* \"#utility.yul\":1478:1484   */\n      0x00\n        /* \"#utility.yul\":1486:1492   */\n      dup1\n        /* \"#utility.yul\":1535:1537   */\n      0x40\n        /* \"#utility.yul\":1523:1532   */\n      dup4\n        /* \"#utility.yul\":1514:1521   */\n      dup6\n        /* \"#utility.yul\":1510:1533   */\n      sub\n        /* \"#utility.yul\":1506:1538   */\n      slt\n        /* \"#utility.yul\":1503:1622   */\n      iszero\n      tag_316\n      jumpi\n        /* \"#utility.yul\":1541:1620   */\n      tag_317\n      tag_313\n      jump\t// in\n    tag_317:\n        /* \"#utility.yul\":1503:1622   */\n    tag_316:\n        /* \"#utility.yul\":1661:1662   */\n      0x00\n        /* \"#utility.yul\":1686:1739   */\n      tag_318\n        /* \"#utility.yul\":1731:1738   */\n      dup6\n        /* \"#utility.yul\":1722:1728   */\n      dup3\n        /* \"#utility.yul\":1711:1720   */\n      dup7\n        /* \"#utility.yul\":1707:1729   */\n      add\n        /* \"#utility.yul\":1686:1739   */\n      tag_296\n      jump\t// in\n    tag_318:\n        /* \"#utility.yul\":1676:1739   */\n      swap3\n      pop\n        /* \"#utility.yul\":1632:1749   */\n      pop\n        /* \"#utility.yul\":1788:1790   */\n      0x20\n        /* \"#utility.yul\":1814:1867   */\n      tag_319\n        /* \"#utility.yul\":1859:1866   */\n      dup6\n        /* \"#utility.yul\":1850:1856   */\n      dup3\n        /* \"#utility.yul\":1839:1848   */\n      dup7\n        /* \"#utility.yul\":1835:1857   */\n      add\n        /* \"#utility.yul\":1814:1867   */\n      tag_306\n      jump\t// in\n    tag_319:\n        /* \"#utility.yul\":1804:1867   */\n      swap2\n      pop\n        /* \"#utility.yul\":1759:1877   */\n      pop\n        /* \"#utility.yul\":1410:1884   */\n      swap3\n      pop\n      swap3\n      swap1\n      pop\n      jump\t// out\n        /* \"#utility.yul\":1890:3049   */\n    tag_40:\n        /* \"#utility.yul\":1997:2003   */\n      0x00\n        /* \"#utility.yul\":2005:2011   */\n      dup1\n        /* \"#utility.yul\":2013:2019   */\n      0x00\n        /* \"#utility.yul\":2062:2064   */\n      0x60\n        /* \"#utility.yul\":2050:2059   */\n      dup5\n        /* \"#utility.yul\":2041:2048   */\n      dup7\n        /* \"#utility.yul\":2037:2060   */\n      sub\n        /* \"#utility.yul\":2033:2065   */\n      slt\n        /* \"#utility.yul\":2030:2149   */\n      iszero\n      tag_321\n      jumpi\n        /* \"#utility.yul\":2068:2147   */\n      tag_322\n      tag_313\n      jump\t// in\n    tag_322:\n        /* \"#utility.yul\":2030:2149   */\n    tag_321:\n        /* \"#utility.yul\":2216:2217   */\n      0x00\n        /* \"#utility.yul\":2205:2214   */\n      dup5\n        /* \"#utility.yul\":2201:2218   */\n      add\n        /* \"#utility.yul\":2188:2219   */\n      calldataload\n        /* \"#utility.yul\":2246:2264   */\n      0xffffffffffffffff\n        /* \"#utility.yul\":2238:2244   */\n      dup2\n        /* \"#utility.yul\":2235:2265   */\n      gt\n        /* \"#utility.yul\":2232:2349   */\n      iszero\n      tag_323\n      jumpi\n        /* \"#utility.yul\":2268:2347   */\n      tag_324\n      tag_325\n      jump\t// in\n    tag_324:\n        /* \"#utility.yul\":2232:2349   */\n    tag_323:\n        /* \"#utility.yul\":2373:2436   */\n      tag_326\n        /* \"#utility.yul\":2428:2435   */\n      dup7\n        /* \"#utility.yul\":2419:2425   */\n      dup3\n        /* \"#utility.yul\":2408:2417   */\n      dup8\n        /* \"#utility.yul\":2404:2426   */\n      add\n        /* \"#utility.yul\":2373:2436   */\n      tag_300\n      jump\t// in\n    tag_326:\n        /* \"#utility.yul\":2363:2436   */\n      swap4\n      pop\n        /* \"#utility.yul\":2159:2446   */\n      pop\n        /* \"#utility.yul\":2513:2515   */\n      0x20\n        /* \"#utility.yul\":2502:2511   */\n      dup5\n        /* \"#utility.yul\":2498:2516   */\n      add\n        /* \"#utility.yul\":2485:2517   */\n      calldataload\n        /* \"#utility.yul\":2544:2562   */\n      0xffffffffffffffff\n        /* \"#utility.yul\":2536:2542   */\n      dup2\n        /* \"#utility.yul\":2533:2563   */\n      gt\n        /* \"#utility.yul\":2530:2647   */\n      iszero\n      tag_327\n      jumpi\n        /* \"#utility.yul\":2566:2645   */\n      tag_328\n      tag_325\n      jump\t// in\n    tag_328:\n        /* \"#utility.yul\":2530:2647   */\n    tag_327:\n        /* \"#utility.yul\":2671:2734   */\n      tag_329\n        /* \"#utility.yul\":2726:2733   */\n      dup7\n        /* \"#utility.yul\":2717:2723   */\n      dup3\n        /* \"#utility.yul\":2706:2715   */\n      dup8\n        /* \"#utility.yul\":2702:2724   */\n      add\n        /* \"#utility.yul\":2671:2734   */\n      tag_300\n      jump\t// in\n    tag_329:\n        /* \"#utility.yul\":2661:2734   */\n      swap3\n      pop\n        /* \"#utility.yul\":2456:2744   */\n      pop\n        /* \"#utility.yul\":2811:2813   */\n      0x40\n        /* \"#utility.yul\":2800:2809   */\n      dup5\n        /* \"#utility.yul\":2796:2814   */\n      add\n        /* \"#utility.yul\":2783:2815   */\n      calldataload\n        /* \"#utility.yul\":2842:2860   */\n      0xffffffffffffffff\n        /* \"#utility.yul\":2834:2840   */\n      dup2\n        /* \"#utility.yul\":2831:2861   */\n      gt\n        /* \"#utility.yul\":2828:2945   */\n      iszero\n      tag_330\n      jumpi\n        /* \"#utility.yul\":2864:2943   */\n      tag_331\n      tag_325\n      jump\t// in\n    tag_331:\n        /* \"#utility.yul\":2828:2945   */\n    tag_330:\n        /* \"#utility.yul\":2969:3032   */\n      tag_332\n        /* \"#utility.yul\":3024:3031   */\n      dup7\n        /* \"#utility.yul\":3015:3021   */\n      dup3\n        /* \"#utility.yul\":3004:3013   */\n      dup8\n        /* \"#utility.yul\":3000:3022   */\n      add\n        /* \"#utility.yul\":2969:3032   */\n      tag_300\n      jump\t// in\n    tag_332:\n        /* \"#utility.yul\":2959:3032   */\n      swap2\n      pop\n        /* \"#utility.yul\":2754:3042   */\n      pop\n        /* \"#utility.yul\":1890:3049   */\n      swap3\n      pop\n      swap3\n      pop\n      swap3\n      jump\t// out\n        /* \"#utility.yul\":3055:3384   */\n    tag_46:\n        /* \"#utility.yul\":3114:3120   */\n      0x00\n        /* \"#utility.yul\":3163:3165   */\n      0x20\n        /* \"#utility.yul\":3151:3160   */\n      dup3\n        /* \"#utility.yul\":3142:3149   */\n      dup5\n        /* \"#utility.yul\":3138:3161   */\n      sub\n        /* \"#utility.yul\":3134:3166   */\n      slt\n        /* \"#utility.yul\":3131:3250   */\n      iszero\n      tag_334\n      jumpi\n        /* \"#utility.yul\":3169:3248   */\n      tag_335\n      tag_313\n      jump\t// in\n    tag_335:\n        /* \"#utility.yul\":3131:3250   */\n    tag_334:\n        /* \"#utility.yul\":3289:3290   */\n      0x00\n        /* \"#utility.yul\":3314:3367   */\n      tag_336\n        /* \"#utility.yul\":3359:3366   */\n      dup5\n        /* \"#utility.yul\":3350:3356   */\n      dup3\n        /* \"#utility.yul\":3339:3348   */\n      dup6\n        /* \"#utility.yul\":3335:3357   */\n      add\n        /* \"#utility.yul\":3314:3367   */\n      tag_306\n      jump\t// in\n    tag_336:\n        /* \"#utility.yul\":3304:3367   */\n      swap2\n      pop\n        /* \"#utility.yul\":3260:3377   */\n      pop\n        /* \"#utility.yul\":3055:3384   */\n      swap3\n      swap2\n      pop\n      pop\n      jump\t// out\n        /* \"#utility.yul\":3390:3508   */\n    tag_337:\n        /* \"#utility.yul\":3477:3501   */\n      tag_339\n        /* \"#utility.yul\":3495:3500   */\n      dup2\n        /* \"#utility.yul\":3477:3501   */\n      tag_340\n      jump\t// in\n    tag_339:\n        /* \"#utility.yul\":3472:3475   */\n      dup3\n        /* \"#utility.yul\":3465:3502   */\n      mstore\n        /* \"#utility.yul\":3390:3508   */\n      pop\n      pop\n      jump\t// out\n        /* \"#utility.yul\":3514:3878   */\n    tag_341:\n        /* \"#utility.yul\":3602:3605   */\n      0x00\n        /* \"#utility.yul\":3630:3669   */\n      tag_343\n        /* \"#utility.yul\":3663:3668   */\n      dup3\n        /* \"#utility.yul\":3630:3669   */\n      tag_344\n      jump\t// in\n    tag_343:\n        /* \"#utility.yul\":3685:3756   */\n      tag_345\n        /* \"#utility.yul\":3749:3755   */\n      dup2\n        /* \"#utility.yul\":3744:3747   */\n      dup6\n        /* \"#utility.yul\":3685:3756   */\n      tag_346\n      jump\t// in\n    tag_345:\n        /* \"#utility.yul\":3678:3756   */\n      swap4\n      pop\n        /* \"#utility.yul\":3765:3817   */\n      tag_347\n        /* \"#utility.yul\":3810:3816   */\n      dup2\n        /* \"#utility.yul\":3805:3808   */\n      dup6\n        /* \"#utility.yul\":3798:3802   */\n      0x20\n        /* \"#utility.yul\":3791:3796   */\n      dup7\n        /* \"#utility.yul\":3787:3803   */\n      add\n        /* \"#utility.yul\":3765:3817   */\n      tag_348\n      jump\t// in\n    tag_347:\n        /* \"#utility.yul\":3842:3871   */\n      tag_349\n        /* \"#utility.yul\":3864:3870   */\n      dup2\n        /* \"#utility.yul\":3842:3871   */\n      tag_350\n      jump\t// in\n    tag_349:\n        /* \"#utility.yul\":3837:3840   */\n      dup5\n        /* \"#utility.yul\":3833:3872   */\n      add\n        /* \"#utility.yul\":3826:3872   */\n      swap2\n      pop\n        /* \"#utility.yul\":3606:3878   */\n      pop\n        /* \"#utility.yul\":3514:3878   */\n      swap3\n      swap2\n      pop\n      pop\n      jump\t// out\n        /* \"#utility.yul\":3908:4710   */\n    tag_351:\n        /* \"#utility.yul\":3993:3996   */\n      0x00\n        /* \"#utility.yul\":4030:4035   */\n      dup2\n        /* \"#utility.yul\":4024:4036   */\n      sload\n        /* \"#utility.yul\":4059:4095   */\n      tag_353\n        /* \"#utility.yul\":4085:4094   */\n      dup2\n        /* \"#utility.yul\":4059:4095   */\n      tag_209\n      jump\t// in\n    tag_353:\n        /* \"#utility.yul\":4111:4182   */\n      tag_354\n        /* \"#utility.yul\":4175:4181   */\n      dup2\n        /* \"#utility.yul\":4170:4173   */\n      dup7\n        /* \"#utility.yul\":4111:4182   */\n      tag_346\n      jump\t// in\n    tag_354:\n        /* \"#utility.yul\":4104:4182   */\n      swap5\n      pop\n        /* \"#utility.yul\":4213:4214   */\n      0x01\n        /* \"#utility.yul\":4202:4211   */\n      dup3\n        /* \"#utility.yul\":4198:4215   */\n      and\n        /* \"#utility.yul\":4229:4230   */\n      0x00\n        /* \"#utility.yul\":4224:4359   */\n      dup2\n      eq\n      tag_356\n      jumpi\n        /* \"#utility.yul\":4373:4374   */\n      0x01\n        /* \"#utility.yul\":4368:4704   */\n      dup2\n      eq\n      tag_357\n      jumpi\n        /* \"#utility.yul\":4191:4704   */\n      jump(tag_355)\n        /* \"#utility.yul\":4224:4359   */\n    tag_356:\n        /* \"#utility.yul\":4308:4312   */\n      0xff\n        /* \"#utility.yul\":4304:4313   */\n      not\n        /* \"#utility.yul\":4293:4302   */\n      dup4\n        /* \"#utility.yul\":4289:4314   */\n      and\n        /* \"#utility.yul\":4284:4287   */\n      dup7\n        /* \"#utility.yul\":4277:4315   */\n      mstore\n        /* \"#utility.yul\":4344:4348   */\n      0x20\n        /* \"#utility.yul\":4339:4342   */\n      dup7\n        /* \"#utility.yul\":4335:4349   */\n      add\n        /* \"#utility.yul\":4328:4349   */\n      swap4\n      pop\n        /* \"#utility.yul\":4224:4359   */\n      jump(tag_355)\n        /* \"#utility.yul\":4368:4704   */\n    tag_357:\n        /* \"#utility.yul\":4435:4473   */\n      tag_358\n        /* \"#utility.yul\":4467:4472   */\n      dup6\n        /* \"#utility.yul\":4435:4473   */\n      tag_359\n      jump\t// in\n    tag_358:\n        /* \"#utility.yul\":4495:4496   */\n      0x00\n        /* \"#utility.yul\":4509:4663   */\n    tag_360:\n        /* \"#utility.yul\":4523:4529   */\n      dup4\n        /* \"#utility.yul\":4520:4521   */\n      dup2\n        /* \"#utility.yul\":4517:4530   */\n      lt\n        /* \"#utility.yul\":4509:4663   */\n      iszero\n      tag_362\n      jumpi\n        /* \"#utility.yul\":4597:4604   */\n      dup2\n        /* \"#utility.yul\":4591:4605   */\n      sload\n        /* \"#utility.yul\":4587:4588   */\n      dup2\n        /* \"#utility.yul\":4582:4585   */\n      dup10\n        /* \"#utility.yul\":4578:4589   */\n      add\n        /* \"#utility.yul\":4571:4606   */\n      mstore\n        /* \"#utility.yul\":4647:4648   */\n      0x01\n        /* \"#utility.yul\":4638:4645   */\n      dup3\n        /* \"#utility.yul\":4634:4649   */\n      add\n        /* \"#utility.yul\":4623:4649   */\n      swap2\n      pop\n        /* \"#utility.yul\":4545:4549   */\n      0x20\n        /* \"#utility.yul\":4542:4543   */\n      dup2\n        /* \"#utility.yul\":4538:4550   */\n      add\n        /* \"#utility.yul\":4533:4550   */\n      swap1\n      pop\n        /* \"#utility.yul\":4509:4663   */\n      jump(tag_360)\n    tag_362:\n        /* \"#utility.yul\":4692:4693   */\n      dup1\n        /* \"#utility.yul\":4687:4690   */\n      dup9\n        /* \"#utility.yul\":4683:4694   */\n      add\n        /* \"#utility.yul\":4676:4694   */\n      swap6\n      pop\n        /* \"#utility.yul\":4375:4704   */\n      pop\n      pop\n        /* \"#utility.yul\":4191:4704   */\n    tag_355:\n      pop\n        /* \"#utility.yul\":3997:4710   */\n      pop\n      pop\n        /* \"#utility.yul\":3908:4710   */\n      swap3\n      swap2\n      pop\n      pop\n      jump\t// out\n        /* \"#utility.yul\":4716:5082   */\n    tag_363:\n        /* \"#utility.yul\":4858:4861   */\n      0x00\n        /* \"#utility.yul\":4879:4946   */\n      tag_365\n        /* \"#utility.yul\":4943:4945   */\n      0x28\n        /* \"#utility.yul\":4938:4941   */\n      dup4\n        /* \"#utility.yul\":4879:4946   */\n      tag_346\n      jump\t// in\n    tag_365:\n        /* \"#utility.yul\":4872:4946   */\n      swap2\n      pop\n        /* \"#utility.yul\":4955:5048   */\n      tag_366\n        /* \"#utility.yul\":5044:5047   */\n      dup3\n        /* \"#utility.yul\":4955:5048   */\n      tag_367\n      jump\t// in\n    tag_366:\n        /* \"#utility.yul\":5073:5075   */\n      0x40\n        /* \"#utility.yul\":5068:5071   */\n      dup3\n        /* \"#utility.yul\":5064:5076   */\n      add\n        /* \"#utility.yul\":5057:5076   */\n      swap1\n      pop\n        /* \"#utility.yul\":4716:5082   */\n      swap2\n      swap1\n      pop\n      jump\t// out\n        /* \"#utility.yul\":5088:5454   */\n    tag_368:\n        /* \"#utility.yul\":5230:5233   */\n      0x00\n        /* \"#utility.yul\":5251:5318   */\n      tag_370\n        /* \"#utility.yul\":5315:5317   */\n      0x26\n        /* \"#utility.yul\":5310:5313   */\n      dup4\n        /* \"#utility.yul\":5251:5318   */\n      tag_346\n      jump\t// in\n    tag_370:\n        /* \"#utility.yul\":5244:5318   */\n      swap2\n      pop\n        /* \"#utility.yul\":5327:5420   */\n      tag_371\n        /* \"#utility.yul\":5416:5419   */\n      dup3\n        /* \"#utility.yul\":5327:5420   */\n      tag_372\n      jump\t// in\n    tag_371:\n        /* \"#utility.yul\":5445:5447   */\n      0x40\n        /* \"#utility.yul\":5440:5443   */\n      dup3\n        /* \"#utility.yul\":5436:5448   */\n      add\n        /* \"#utility.yul\":5429:5448   */\n      swap1\n      pop\n        /* \"#utility.yul\":5088:5454   */\n      swap2\n      swap1\n      pop\n      jump\t// out\n        /* \"#utility.yul\":5460:5826   */\n    tag_373:\n        /* \"#utility.yul\":5602:5605   */\n      0x00\n        /* \"#utility.yul\":5623:5690   */\n      tag_375\n        /* \"#utility.yul\":5687:5689   */\n      0x0c\n        /* \"#utility.yul\":5682:5685   */\n      dup4\n        /* \"#utility.yul\":5623:5690   */\n      tag_346\n      jump\t// in\n    tag_375:\n        /* \"#utility.yul\":5616:5690   */\n      swap2\n      pop\n        /* \"#utility.yul\":5699:5792   */\n      tag_376\n        /* \"#utility.yul\":5788:5791   */\n      dup3\n        /* \"#utility.yul\":5699:5792   */\n      tag_377\n      jump\t// in\n    tag_376:\n        /* \"#utility.yul\":5817:5819   */\n      0x20\n        /* \"#utility.yul\":5812:5815   */\n      dup3\n        /* \"#utility.yul\":5808:5820   */\n      add\n        /* \"#utility.yul\":5801:5820   */\n      swap1\n      pop\n        /* \"#utility.yul\":5460:5826   */\n      swap2\n      swap1\n      pop\n      jump\t// out\n        /* \"#utility.yul\":5832:6198   */\n    tag_378:\n        /* \"#utility.yul\":5974:5977   */\n      0x00\n        /* \"#utility.yul\":5995:6062   */\n      tag_380\n        /* \"#utility.yul\":6059:6061   */\n      0x20\n        /* \"#utility.yul\":6054:6057   */\n      dup4\n        /* \"#utility.yul\":5995:6062   */\n      tag_346\n      jump\t// in\n    tag_380:\n        /* \"#utility.yul\":5988:6062   */\n      swap2\n      pop\n        /* \"#utility.yul\":6071:6164   */\n      tag_381\n        /* \"#utility.yul\":6160:6163   */\n      dup3\n        /* \"#utility.yul\":6071:6164   */\n      tag_382\n      jump\t// in\n    tag_381:\n        /* \"#utility.yul\":6189:6191   */\n      0x20\n        /* \"#utility.yul\":6184:6187   */\n      dup3\n        /* \"#utility.yul\":6180:6192   */\n      add\n        /* \"#utility.yul\":6173:6192   */\n      swap1\n      pop\n        /* \"#utility.yul\":5832:6198   */\n      swap2\n      swap1\n      pop\n      jump\t// out\n        /* \"#utility.yul\":6204:6570   */\n    tag_383:\n        /* \"#utility.yul\":6346:6349   */\n      0x00\n        /* \"#utility.yul\":6367:6434   */\n      tag_385\n        /* \"#utility.yul\":6431:6433   */\n      0x15\n        /* \"#utility.yul\":6426:6429   */\n      dup4\n        /* \"#utility.yul\":6367:6434   */\n      tag_346\n      jump\t// in\n    tag_385:\n        /* \"#utility.yul\":6360:6434   */\n      swap2\n      pop\n        /* \"#utility.yul\":6443:6536   */\n      tag_386\n        /* \"#utility.yul\":6532:6535   */\n      dup3\n        /* \"#utility.yul\":6443:6536   */\n      tag_387\n      jump\t// in\n    tag_386:\n        /* \"#utility.yul\":6561:6563   */\n      0x20\n        /* \"#utility.yul\":6556:6559   */\n      dup3\n        /* \"#utility.yul\":6552:6564   */\n      add\n        /* \"#utility.yul\":6545:6564   */\n      swap1\n      pop\n        /* \"#utility.yul\":6204:6570   */\n      swap2\n      swap1\n      pop\n      jump\t// out\n        /* \"#utility.yul\":6576:6694   */\n    tag_388:\n        /* \"#utility.yul\":6663:6687   */\n      tag_390\n        /* \"#utility.yul\":6681:6686   */\n      dup2\n        /* \"#utility.yul\":6663:6687   */\n      tag_391\n      jump\t// in\n    tag_390:\n        /* \"#utility.yul\":6658:6661   */\n      dup3\n        /* \"#utility.yul\":6651:6688   */\n      mstore\n        /* \"#utility.yul\":6576:6694   */\n      pop\n      pop\n      jump\t// out\n        /* \"#utility.yul\":6700:6857   */\n    tag_392:\n        /* \"#utility.yul\":6805:6850   */\n      tag_394\n        /* \"#utility.yul\":6825:6849   */\n      tag_395\n        /* \"#utility.yul\":6843:6848   */\n      dup3\n        /* \"#utility.yul\":6825:6849   */\n      tag_391\n      jump\t// in\n    tag_395:\n        /* \"#utility.yul\":6805:6850   */\n      tag_396\n      jump\t// in\n    tag_394:\n        /* \"#utility.yul\":6800:6803   */\n      dup3\n        /* \"#utility.yul\":6793:6851   */\n      mstore\n        /* \"#utility.yul\":6700:6857   */\n      pop\n      pop\n      jump\t// out\n        /* \"#utility.yul\":6863:6978   */\n    tag_397:\n        /* \"#utility.yul\":6948:6971   */\n      tag_399\n        /* \"#utility.yul\":6965:6970   */\n      dup2\n        /* \"#utility.yul\":6948:6971   */\n      tag_400\n      jump\t// in\n    tag_399:\n        /* \"#utility.yul\":6943:6946   */\n      dup3\n        /* \"#utility.yul\":6936:6972   */\n      mstore\n        /* \"#utility.yul\":6863:6978   */\n      pop\n      pop\n      jump\t// out\n        /* \"#utility.yul\":6984:7522   */\n    tag_153:\n        /* \"#utility.yul\":7152:7155   */\n      0x00\n        /* \"#utility.yul\":7167:7242   */\n      tag_402\n        /* \"#utility.yul\":7238:7241   */\n      dup3\n        /* \"#utility.yul\":7229:7235   */\n      dup7\n        /* \"#utility.yul\":7167:7242   */\n      tag_392\n      jump\t// in\n    tag_402:\n        /* \"#utility.yul\":7267:7269   */\n      0x20\n        /* \"#utility.yul\":7262:7265   */\n      dup3\n        /* \"#utility.yul\":7258:7270   */\n      add\n        /* \"#utility.yul\":7251:7270   */\n      swap2\n      pop\n        /* \"#utility.yul\":7280:7355   */\n      tag_403\n        /* \"#utility.yul\":7351:7354   */\n      dup3\n        /* \"#utility.yul\":7342:7348   */\n      dup6\n        /* \"#utility.yul\":7280:7355   */\n      tag_392\n      jump\t// in\n    tag_403:\n        /* \"#utility.yul\":7380:7382   */\n      0x20\n        /* \"#utility.yul\":7375:7378   */\n      dup3\n        /* \"#utility.yul\":7371:7383   */\n      add\n        /* \"#utility.yul\":7364:7383   */\n      swap2\n      pop\n        /* \"#utility.yul\":7393:7468   */\n      tag_404\n        /* \"#utility.yul\":7464:7467   */\n      dup3\n        /* \"#utility.yul\":7455:7461   */\n      dup5\n        /* \"#utility.yul\":7393:7468   */\n      tag_392\n      jump\t// in\n    tag_404:\n        /* \"#utility.yul\":7493:7495   */\n      0x20\n        /* \"#utility.yul\":7488:7491   */\n      dup3\n        /* \"#utility.yul\":7484:7496   */\n      add\n        /* \"#utility.yul\":7477:7496   */\n      swap2\n      pop\n        /* \"#utility.yul\":7513:7516   */\n      dup2\n        /* \"#utility.yul\":7506:7516   */\n      swap1\n      pop\n        /* \"#utility.yul\":6984:7522   */\n      swap5\n      swap4\n      pop\n      pop\n      pop\n      pop\n      jump\t// out\n        /* \"#utility.yul\":7528:7750   */\n    tag_49:\n        /* \"#utility.yul\":7621:7625   */\n      0x00\n        /* \"#utility.yul\":7659:7661   */\n      0x20\n        /* \"#utility.yul\":7648:7657   */\n      dup3\n        /* \"#utility.yul\":7644:7662   */\n      add\n        /* \"#utility.yul\":7636:7662   */\n      swap1\n      pop\n        /* \"#utility.yul\":7672:7743   */\n      tag_406\n        /* \"#utility.yul\":7740:7741   */\n      0x00\n        /* \"#utility.yul\":7729:7738   */\n      dup4\n        /* \"#utility.yul\":7725:7742   */\n      add\n        /* \"#utility.yul\":7716:7722   */\n      dup5\n        /* \"#utility.yul\":7672:7743   */\n      tag_337\n      jump\t// in\n    tag_406:\n        /* \"#utility.yul\":7528:7750   */\n      swap3\n      swap2\n      pop\n      pop\n      jump\t// out\n        /* \"#utility.yul\":7756:9022   */\n    tag_93:\n        /* \"#utility.yul\":8103:8107   */\n      0x00\n        /* \"#utility.yul\":8141:8144   */\n      0x0100\n        /* \"#utility.yul\":8130:8139   */\n      dup3\n        /* \"#utility.yul\":8126:8145   */\n      add\n        /* \"#utility.yul\":8118:8145   */\n      swap1\n      pop\n        /* \"#utility.yul\":8155:8226   */\n      tag_408\n        /* \"#utility.yul\":8223:8224   */\n      0x00\n        /* \"#utility.yul\":8212:8221   */\n      dup4\n        /* \"#utility.yul\":8208:8225   */\n      add\n        /* \"#utility.yul\":8199:8205   */\n      dup12\n        /* \"#utility.yul\":8155:8226   */\n      tag_337\n      jump\t// in\n    tag_408:\n        /* \"#utility.yul\":8273:8282   */\n      dup2\n        /* \"#utility.yul\":8267:8271   */\n      dup2\n        /* \"#utility.yul\":8263:8283   */\n      sub\n        /* \"#utility.yul\":8258:8260   */\n      0x20\n        /* \"#utility.yul\":8247:8256   */\n      dup4\n        /* \"#utility.yul\":8243:8261   */\n      add\n        /* \"#utility.yul\":8236:8284   */\n      mstore\n        /* \"#utility.yul\":8301:8379   */\n      tag_409\n        /* \"#utility.yul\":8374:8378   */\n      dup2\n        /* \"#utility.yul\":8365:8371   */\n      dup11\n        /* \"#utility.yul\":8301:8379   */\n      tag_341\n      jump\t// in\n    tag_409:\n        /* \"#utility.yul\":8293:8379   */\n      swap1\n      pop\n        /* \"#utility.yul\":8426:8435   */\n      dup2\n        /* \"#utility.yul\":8420:8424   */\n      dup2\n        /* \"#utility.yul\":8416:8436   */\n      sub\n        /* \"#utility.yul\":8411:8413   */\n      0x40\n        /* \"#utility.yul\":8400:8409   */\n      dup4\n        /* \"#utility.yul\":8396:8414   */\n      add\n        /* \"#utility.yul\":8389:8437   */\n      mstore\n        /* \"#utility.yul\":8454:8532   */\n      tag_410\n        /* \"#utility.yul\":8527:8531   */\n      dup2\n        /* \"#utility.yul\":8518:8524   */\n      dup10\n        /* \"#utility.yul\":8454:8532   */\n      tag_341\n      jump\t// in\n    tag_410:\n        /* \"#utility.yul\":8446:8532   */\n      swap1\n      pop\n        /* \"#utility.yul\":8579:8588   */\n      dup2\n        /* \"#utility.yul\":8573:8577   */\n      dup2\n        /* \"#utility.yul\":8569:8589   */\n      sub\n        /* \"#utility.yul\":8564:8566   */\n      0x60\n        /* \"#utility.yul\":8553:8562   */\n      dup4\n        /* \"#utility.yul\":8549:8567   */\n      add\n        /* \"#utility.yul\":8542:8590   */\n      mstore\n        /* \"#utility.yul\":8607:8685   */\n      tag_411\n        /* \"#utility.yul\":8680:8684   */\n      dup2\n        /* \"#utility.yul\":8671:8677   */\n      dup9\n        /* \"#utility.yul\":8607:8685   */\n      tag_341\n      jump\t// in\n    tag_411:\n        /* \"#utility.yul\":8599:8685   */\n      swap1\n      pop\n        /* \"#utility.yul\":8695:8768   */\n      tag_412\n        /* \"#utility.yul\":8763:8766   */\n      0x80\n        /* \"#utility.yul\":8752:8761   */\n      dup4\n        /* \"#utility.yul\":8748:8767   */\n      add\n        /* \"#utility.yul\":8739:8745   */\n      dup8\n        /* \"#utility.yul\":8695:8768   */\n      tag_388\n      jump\t// in\n    tag_412:\n        /* \"#utility.yul\":8778:8851   */\n      tag_413\n        /* \"#utility.yul\":8846:8849   */\n      0xa0\n        /* \"#utility.yul\":8835:8844   */\n      dup4\n        /* \"#utility.yul\":8831:8850   */\n      add\n        /* \"#utility.yul\":8822:8828   */\n      dup7\n        /* \"#utility.yul\":8778:8851   */\n      tag_388\n      jump\t// in\n    tag_413:\n        /* \"#utility.yul\":8861:8934   */\n      tag_414\n        /* \"#utility.yul\":8929:8932   */\n      0xc0\n        /* \"#utility.yul\":8918:8927   */\n      dup4\n        /* \"#utility.yul\":8914:8933   */\n      add\n        /* \"#utility.yul\":8905:8911   */\n      dup6\n        /* \"#utility.yul\":8861:8934   */\n      tag_388\n      jump\t// in\n    tag_414:\n        /* \"#utility.yul\":8944:9015   */\n      tag_415\n        /* \"#utility.yul\":9010:9013   */\n      0xe0\n        /* \"#utility.yul\":8999:9008   */\n      dup4\n        /* \"#utility.yul\":8995:9014   */\n      add\n        /* \"#utility.yul\":8986:8992   */\n      dup5\n        /* \"#utility.yul\":8944:9015   */\n      tag_397\n      jump\t// in\n    tag_415:\n        /* \"#utility.yul\":7756:9022   */\n      swap10\n      swap9\n      pop\n      pop\n      pop\n      pop\n      pop\n      pop\n      pop\n      pop\n      pop\n      jump\t// out\n        /* \"#utility.yul\":9028:9341   */\n    tag_54:\n        /* \"#utility.yul\":9141:9145   */\n      0x00\n        /* \"#utility.yul\":9179:9181   */\n      0x20\n        /* \"#utility.yul\":9168:9177   */\n      dup3\n        /* \"#utility.yul\":9164:9182   */\n      add\n        /* \"#utility.yul\":9156:9182   */\n      swap1\n      pop\n        /* \"#utility.yul\":9228:9237   */\n      dup2\n        /* \"#utility.yul\":9222:9226   */\n      dup2\n        /* \"#utility.yul\":9218:9238   */\n      sub\n        /* \"#utility.yul\":9214:9215   */\n      0x00\n        /* \"#utility.yul\":9203:9212   */\n      dup4\n        /* \"#utility.yul\":9199:9216   */\n      add\n        /* \"#utility.yul\":9192:9239   */\n      mstore\n        /* \"#utility.yul\":9256:9334   */\n      tag_417\n        /* \"#utility.yul\":9329:9333   */\n      dup2\n        /* \"#utility.yul\":9320:9326   */\n      dup5\n        /* \"#utility.yul\":9256:9334   */\n      tag_341\n      jump\t// in\n    tag_417:\n        /* \"#utility.yul\":9248:9334   */\n      swap1\n      pop\n        /* \"#utility.yul\":9028:9341   */\n      swap3\n      swap2\n      pop\n      pop\n      jump\t// out\n        /* \"#utility.yul\":9347:10066   */\n    tag_245:\n        /* \"#utility.yul\":9556:9560   */\n      0x00\n        /* \"#utility.yul\":9594:9597   */\n      0x80\n        /* \"#utility.yul\":9583:9592   */\n      dup3\n        /* \"#utility.yul\":9579:9598   */\n      add\n        /* \"#utility.yul\":9571:9598   */\n      swap1\n      pop\n        /* \"#utility.yul\":9644:9653   */\n      dup2\n        /* \"#utility.yul\":9638:9642   */\n      dup2\n        /* \"#utility.yul\":9634:9654   */\n      sub\n        /* \"#utility.yul\":9630:9631   */\n      0x00\n        /* \"#utility.yul\":9619:9628   */\n      dup4\n        /* \"#utility.yul\":9615:9632   */\n      add\n        /* \"#utility.yul\":9608:9655   */\n      mstore\n        /* \"#utility.yul\":9672:9747   */\n      tag_419\n        /* \"#utility.yul\":9742:9746   */\n      dup2\n        /* \"#utility.yul\":9733:9739   */\n      dup8\n        /* \"#utility.yul\":9672:9747   */\n      tag_351\n      jump\t// in\n    tag_419:\n        /* \"#utility.yul\":9664:9747   */\n      swap1\n      pop\n        /* \"#utility.yul\":9794:9803   */\n      dup2\n        /* \"#utility.yul\":9788:9792   */\n      dup2\n        /* \"#utility.yul\":9784:9804   */\n      sub\n        /* \"#utility.yul\":9779:9781   */\n      0x20\n        /* \"#utility.yul\":9768:9777   */\n      dup4\n        /* \"#utility.yul\":9764:9782   */\n      add\n        /* \"#utility.yul\":9757:9805   */\n      mstore\n        /* \"#utility.yul\":9822:9897   */\n      tag_420\n        /* \"#utility.yul\":9892:9896   */\n      dup2\n        /* \"#utility.yul\":9883:9889   */\n      dup7\n        /* \"#utility.yul\":9822:9897   */\n      tag_351\n      jump\t// in\n    tag_420:\n        /* \"#utility.yul\":9814:9897   */\n      swap1\n      pop\n        /* \"#utility.yul\":9907:9977   */\n      tag_421\n        /* \"#utility.yul\":9973:9975   */\n      0x40\n        /* \"#utility.yul\":9962:9971   */\n      dup4\n        /* \"#utility.yul\":9958:9976   */\n      add\n        /* \"#utility.yul\":9949:9955   */\n      dup6\n        /* \"#utility.yul\":9907:9977   */\n      tag_397\n      jump\t// in\n    tag_421:\n        /* \"#utility.yul\":9987:10059   */\n      tag_422\n        /* \"#utility.yul\":10055:10057   */\n      0x60\n        /* \"#utility.yul\":10044:10053   */\n      dup4\n        /* \"#utility.yul\":10040:10058   */\n      add\n        /* \"#utility.yul\":10031:10037   */\n      dup5\n        /* \"#utility.yul\":9987:10059   */\n      tag_388\n      jump\t// in\n    tag_422:\n        /* \"#utility.yul\":9347:10066   */\n      swap6\n      swap5\n      pop\n      pop\n      pop\n      pop\n      pop\n      jump\t// out\n        /* \"#utility.yul\":10072:10491   */\n    tag_118:\n        /* \"#utility.yul\":10238:10242   */\n      0x00\n        /* \"#utility.yul\":10276:10278   */\n      0x20\n        /* \"#utility.yul\":10265:10274   */\n      dup3\n        /* \"#utility.yul\":10261:10279   */\n      add\n        /* \"#utility.yul\":10253:10279   */\n      swap1\n      pop\n        /* \"#utility.yul\":10325:10334   */\n      dup2\n        /* \"#utility.yul\":10319:10323   */\n      dup2\n        /* \"#utility.yul\":10315:10335   */\n      sub\n        /* \"#utility.yul\":10311:10312   */\n      0x00\n        /* \"#utility.yul\":10300:10309   */\n      dup4\n        /* \"#utility.yul\":10296:10313   */\n      add\n        /* \"#utility.yul\":10289:10336   */\n      mstore\n        /* \"#utility.yul\":10353:10484   */\n      tag_424\n        /* \"#utility.yul\":10479:10483   */\n      dup2\n        /* \"#utility.yul\":10353:10484   */\n      tag_363\n      jump\t// in\n    tag_424:\n        /* \"#utility.yul\":10345:10484   */\n      swap1\n      pop\n        /* \"#utility.yul\":10072:10491   */\n      swap2\n      swap1\n      pop\n      jump\t// out\n        /* \"#utility.yul\":10497:10916   */\n    tag_255:\n        /* \"#utility.yul\":10663:10667   */\n      0x00\n        /* \"#utility.yul\":10701:10703   */\n      0x20\n        /* \"#utility.yul\":10690:10699   */\n      dup3\n        /* \"#utility.yul\":10686:10704   */\n      add\n        /* \"#utility.yul\":10678:10704   */\n      swap1\n      pop\n        /* \"#utility.yul\":10750:10759   */\n      dup2\n        /* \"#utility.yul\":10744:10748   */\n      dup2\n        /* \"#utility.yul\":10740:10760   */\n      sub\n        /* \"#utility.yul\":10736:10737   */\n      0x00\n        /* \"#utility.yul\":10725:10734   */\n      dup4\n        /* \"#utility.yul\":10721:10738   */\n      add\n        /* \"#utility.yul\":10714:10761   */\n      mstore\n        /* \"#utility.yul\":10778:10909   */\n      tag_426\n        /* \"#utility.yul\":10904:10908   */\n      dup2\n        /* \"#utility.yul\":10778:10909   */\n      tag_368\n      jump\t// in\n    tag_426:\n        /* \"#utility.yul\":10770:10909   */\n      swap1\n      pop\n        /* \"#utility.yul\":10497:10916   */\n      swap2\n      swap1\n      pop\n      jump\t// out\n        /* \"#utility.yul\":10922:11451   */\n    tag_265:\n        /* \"#utility.yul\":11116:11120   */\n      0x00\n        /* \"#utility.yul\":11154:11156   */\n      0x40\n        /* \"#utility.yul\":11143:11152   */\n      dup3\n        /* \"#utility.yul\":11139:11157   */\n      add\n        /* \"#utility.yul\":11131:11157   */\n      swap1\n      pop\n        /* \"#utility.yul\":11203:11212   */\n      dup2\n        /* \"#utility.yul\":11197:11201   */\n      dup2\n        /* \"#utility.yul\":11193:11213   */\n      sub\n        /* \"#utility.yul\":11189:11190   */\n      0x00\n        /* \"#utility.yul\":11178:11187   */\n      dup4\n        /* \"#utility.yul\":11174:11191   */\n      add\n        /* \"#utility.yul\":11167:11214   */\n      mstore\n        /* \"#utility.yul\":11231:11362   */\n      tag_428\n        /* \"#utility.yul\":11357:11361   */\n      dup2\n        /* \"#utility.yul\":11231:11362   */\n      tag_373\n      jump\t// in\n    tag_428:\n        /* \"#utility.yul\":11223:11362   */\n      swap1\n      pop\n        /* \"#utility.yul\":11372:11444   */\n      tag_429\n        /* \"#utility.yul\":11440:11442   */\n      0x20\n        /* \"#utility.yul\":11429:11438   */\n      dup4\n        /* \"#utility.yul\":11425:11443   */\n      add\n        /* \"#utility.yul\":11416:11422   */\n      dup5\n        /* \"#utility.yul\":11372:11444   */\n      tag_388\n      jump\t// in\n    tag_429:\n        /* \"#utility.yul\":10922:11451   */\n      swap3\n      swap2\n      pop\n      pop\n      jump\t// out\n        /* \"#utility.yul\":11457:11876   */\n    tag_111:\n        /* \"#utility.yul\":11623:11627   */\n      0x00\n        /* \"#utility.yul\":11661:11663   */\n      0x20\n        /* \"#utility.yul\":11650:11659   */\n      dup3\n        /* \"#utility.yul\":11646:11664   */\n      add\n        /* \"#utility.yul\":11638:11664   */\n      swap1\n      pop\n        /* \"#utility.yul\":11710:11719   */\n      dup2\n        /* \"#utility.yul\":11704:11708   */\n      dup2\n        /* \"#utility.yul\":11700:11720   */\n      sub\n        /* \"#utility.yul\":11696:11697   */\n      0x00\n        /* \"#utility.yul\":11685:11694   */\n      dup4\n        /* \"#utility.yul\":11681:11698   */\n      add\n        /* \"#utility.yul\":11674:11721   */\n      mstore\n        /* \"#utility.yul\":11738:11869   */\n      tag_431\n        /* \"#utility.yul\":11864:11868   */\n      dup2\n        /* \"#utility.yul\":11738:11869   */\n      tag_378\n      jump\t// in\n    tag_431:\n        /* \"#utility.yul\":11730:11869   */\n      swap1\n      pop\n        /* \"#utility.yul\":11457:11876   */\n      swap2\n      swap1\n      pop\n      jump\t// out\n        /* \"#utility.yul\":11882:12411   */\n    tag_179:\n        /* \"#utility.yul\":12076:12080   */\n      0x00\n        /* \"#utility.yul\":12114:12116   */\n      0x40\n        /* \"#utility.yul\":12103:12112   */\n      dup3\n        /* \"#utility.yul\":12099:12117   */\n      add\n        /* \"#utility.yul\":12091:12117   */\n      swap1\n      pop\n        /* \"#utility.yul\":12163:12172   */\n      dup2\n        /* \"#utility.yul\":12157:12161   */\n      dup2\n        /* \"#utility.yul\":12153:12173   */\n      sub\n        /* \"#utility.yul\":12149:12150   */\n      0x00\n        /* \"#utility.yul\":12138:12147   */\n      dup4\n        /* \"#utility.yul\":12134:12151   */\n      add\n        /* \"#utility.yul\":12127:12174   */\n      mstore\n        /* \"#utility.yul\":12191:12322   */\n      tag_433\n        /* \"#utility.yul\":12317:12321   */\n      dup2\n        /* \"#utility.yul\":12191:12322   */\n      tag_383\n      jump\t// in\n    tag_433:\n        /* \"#utility.yul\":12183:12322   */\n      swap1\n      pop\n        /* \"#utility.yul\":12332:12404   */\n      tag_434\n        /* \"#utility.yul\":12400:12402   */\n      0x20\n        /* \"#utility.yul\":12389:12398   */\n      dup4\n        /* \"#utility.yul\":12385:12403   */\n      add\n        /* \"#utility.yul\":12376:12382   */\n      dup5\n        /* \"#utility.yul\":12332:12404   */\n      tag_388\n      jump\t// in\n    tag_434:\n        /* \"#utility.yul\":11882:12411   */\n      swap3\n      swap2\n      pop\n      pop\n      jump\t// out\n        /* \"#utility.yul\":12417:12639   */\n    tag_36:\n        /* \"#utility.yul\":12510:12514   */\n      0x00\n        /* \"#utility.yul\":12548:12550   */\n      0x20\n        /* \"#utility.yul\":12537:12546   */\n      dup3\n        /* \"#utility.yul\":12533:12551   */\n      add\n        /* \"#utility.yul\":12525:12551   */\n      swap1\n      pop\n        /* \"#utility.yul\":12561:12632   */\n      tag_436\n        /* \"#utility.yul\":12629:12630   */\n      0x00\n        /* \"#utility.yul\":12618:12627   */\n      dup4\n        /* \"#utility.yul\":12614:12631   */\n      add\n        /* \"#utility.yul\":12605:12611   */\n      dup5\n        /* \"#utility.yul\":12561:12632   */\n      tag_388\n      jump\t// in\n    tag_436:\n        /* \"#utility.yul\":12417:12639   */\n      swap3\n      swap2\n      pop\n      pop\n      jump\t// out\n        /* \"#utility.yul\":12645:12774   */\n    tag_290:\n        /* \"#utility.yul\":12679:12685   */\n      0x00\n        /* \"#utility.yul\":12706:12726   */\n      tag_438\n      tag_439\n      jump\t// in\n    tag_438:\n        /* \"#utility.yul\":12696:12726   */\n      swap1\n      pop\n        /* \"#utility.yul\":12735:12768   */\n      tag_440\n        /* \"#utility.yul\":12763:12767   */\n      dup3\n        /* \"#utility.yul\":12755:12761   */\n      dup3\n        /* \"#utility.yul\":12735:12768   */\n      tag_441\n      jump\t// in\n    tag_440:\n        /* \"#utility.yul\":12645:12774   */\n      swap2\n      swap1\n      pop\n      jump\t// out\n        /* \"#utility.yul\":12780:12855   */\n    tag_439:\n        /* \"#utility.yul\":12813:12819   */\n      0x00\n        /* \"#utility.yul\":12846:12848   */\n      0x40\n        /* \"#utility.yul\":12840:12849   */\n      mload\n        /* \"#utility.yul\":12830:12849   */\n      swap1\n      pop\n        /* \"#utility.yul\":12780:12855   */\n      swap1\n      jump\t// out\n        /* \"#utility.yul\":12861:13169   */\n    tag_289:\n        /* \"#utility.yul\":12923:12927   */\n      0x00\n        /* \"#utility.yul\":13013:13031   */\n      0xffffffffffffffff\n        /* \"#utility.yul\":13005:13011   */\n      dup3\n        /* \"#utility.yul\":13002:13032   */\n      gt\n        /* \"#utility.yul\":12999:13055   */\n      iszero\n      tag_444\n      jumpi\n        /* \"#utility.yul\":13035:13053   */\n      tag_445\n      tag_446\n      jump\t// in\n    tag_445:\n        /* \"#utility.yul\":12999:13055   */\n    tag_444:\n        /* \"#utility.yul\":13073:13102   */\n      tag_447\n        /* \"#utility.yul\":13095:13101   */\n      dup3\n        /* \"#utility.yul\":13073:13102   */\n      tag_350\n      jump\t// in\n    tag_447:\n        /* \"#utility.yul\":13065:13102   */\n      swap1\n      pop\n        /* \"#utility.yul\":13157:13161   */\n      0x20\n        /* \"#utility.yul\":13151:13155   */\n      dup2\n        /* \"#utility.yul\":13147:13162   */\n      add\n        /* \"#utility.yul\":13139:13162   */\n      swap1\n      pop\n        /* \"#utility.yul\":12861:13169   */\n      swap2\n      swap1\n      pop\n      jump\t// out\n        /* \"#utility.yul\":13175:13316   */\n    tag_359:\n        /* \"#utility.yul\":13224:13228   */\n      0x00\n        /* \"#utility.yul\":13247:13250   */\n      dup2\n        /* \"#utility.yul\":13239:13250   */\n      swap1\n      pop\n        /* \"#utility.yul\":13270:13273   */\n      dup2\n        /* \"#utility.yul\":13267:13268   */\n      0x00\n        /* \"#utility.yul\":13260:13274   */\n      mstore\n        /* \"#utility.yul\":13304:13308   */\n      0x20\n        /* \"#utility.yul\":13301:13302   */\n      0x00\n        /* \"#utility.yul\":13291:13309   */\n      keccak256\n        /* \"#utility.yul\":13283:13309   */\n      swap1\n      pop\n        /* \"#utility.yul\":13175:13316   */\n      swap2\n      swap1\n      pop\n      jump\t// out\n        /* \"#utility.yul\":13322:13421   */\n    tag_344:\n        /* \"#utility.yul\":13374:13380   */\n      0x00\n        /* \"#utility.yul\":13408:13413   */\n      dup2\n        /* \"#utility.yul\":13402:13414   */\n      mload\n        /* \"#utility.yul\":13392:13414   */\n      swap1\n      pop\n        /* \"#utility.yul\":13322:13421   */\n      swap2\n      swap1\n      pop\n      jump\t// out\n        /* \"#utility.yul\":13427:13596   */\n    tag_346:\n        /* \"#utility.yul\":13511:13522   */\n      0x00\n        /* \"#utility.yul\":13545:13551   */\n      dup3\n        /* \"#utility.yul\":13540:13543   */\n      dup3\n        /* \"#utility.yul\":13533:13552   */\n      mstore\n        /* \"#utility.yul\":13585:13589   */\n      0x20\n        /* \"#utility.yul\":13580:13583   */\n      dup3\n        /* \"#utility.yul\":13576:13590   */\n      add\n        /* \"#utility.yul\":13561:13590   */\n      swap1\n      pop\n        /* \"#utility.yul\":13427:13596   */\n      swap3\n      swap2\n      pop\n      pop\n      jump\t// out\n        /* \"#utility.yul\":13602:13907   */\n    tag_121:\n        /* \"#utility.yul\":13642:13645   */\n      0x00\n        /* \"#utility.yul\":13661:13681   */\n      tag_452\n        /* \"#utility.yul\":13679:13680   */\n      dup3\n        /* \"#utility.yul\":13661:13681   */\n      tag_391\n      jump\t// in\n    tag_452:\n        /* \"#utility.yul\":13656:13681   */\n      swap2\n      pop\n        /* \"#utility.yul\":13695:13715   */\n      tag_453\n        /* \"#utility.yul\":13713:13714   */\n      dup4\n        /* \"#utility.yul\":13695:13715   */\n      tag_391\n      jump\t// in\n    tag_453:\n        /* \"#utility.yul\":13690:13715   */\n      swap3\n      pop\n        /* \"#utility.yul\":13849:13850   */\n      dup3\n        /* \"#utility.yul\":13781:13847   */\n      0xffffffffffffffffffffffffffffffffffffffffffffffffffffffffffffffff\n        /* \"#utility.yul\":13777:13851   */\n      sub\n        /* \"#utility.yul\":13774:13775   */\n      dup3\n        /* \"#utility.yul\":13771:13852   */\n      gt\n        /* \"#utility.yul\":13768:13875   */\n      iszero\n      tag_454\n      jumpi\n        /* \"#utility.yul\":13855:13873   */\n      tag_455\n      tag_456\n      jump\t// in\n    tag_455:\n        /* \"#utility.yul\":13768:13875   */\n    tag_454:\n        /* \"#utility.yul\":13899:13900   */\n      dup3\n        /* \"#utility.yul\":13896:13897   */\n      dup3\n        /* \"#utility.yul\":13892:13901   */\n      add\n        /* \"#utility.yul\":13885:13901   */\n      swap1\n      pop\n        /* \"#utility.yul\":13602:13907   */\n      swap3\n      swap2\n      pop\n      pop\n      jump\t// out\n        /* \"#utility.yul\":13913:14261   */\n    tag_260:\n        /* \"#utility.yul\":13953:13960   */\n      0x00\n        /* \"#utility.yul\":13976:13996   */\n      tag_458\n        /* \"#utility.yul\":13994:13995   */\n      dup3\n        /* \"#utility.yul\":13976:13996   */\n      tag_391\n      jump\t// in\n    tag_458:\n        /* \"#utility.yul\":13971:13996   */\n      swap2\n      pop\n        /* \"#utility.yul\":14010:14030   */\n      tag_459\n        /* \"#utility.yul\":14028:14029   */\n      dup4\n        /* \"#utility.yul\":14010:14030   */\n      tag_391\n      jump\t// in\n    tag_459:\n        /* \"#utility.yul\":14005:14030   */\n      swap3\n      pop\n        /* \"#utility.yul\":14198:14199   */\n      dup2\n        /* \"#utility.yul\":14130:14196   */\n      0xffffffffffffffffffffffffffffffffffffffffffffffffffffffffffffffff\n        /* \"#utility.yul\":14126:14200   */\n      div\n        /* \"#utility.yul\":14123:14124   */\n      dup4\n        /* \"#utility.yul\":14120:14201   */\n      gt\n        /* \"#utility.yul\":14115:14116   */\n      dup3\n        /* \"#utility.yul\":14108:14117   */\n      iszero\n        /* \"#utility.yul\":14101:14118   */\n      iszero\n        /* \"#utility.yul\":14097:14202   */\n      and\n        /* \"#utility.yul\":14094:14225   */\n      iszero\n      tag_460\n      jumpi\n        /* \"#utility.yul\":14205:14223   */\n      tag_461\n      tag_456\n      jump\t// in\n    tag_461:\n        /* \"#utility.yul\":14094:14225   */\n    tag_460:\n        /* \"#utility.yul\":14253:14254   */\n      dup3\n        /* \"#utility.yul\":14250:14251   */\n      dup3\n        /* \"#utility.yul\":14246:14255   */\n      mul\n        /* \"#utility.yul\":14235:14255   */\n      swap1\n      pop\n        /* \"#utility.yul\":13913:14261   */\n      swap3\n      swap2\n      pop\n      pop\n      jump\t// out\n        /* \"#utility.yul\":14267:14458   */\n    tag_131:\n        /* \"#utility.yul\":14307:14311   */\n      0x00\n        /* \"#utility.yul\":14327:14347   */\n      tag_463\n        /* \"#utility.yul\":14345:14346   */\n      dup3\n        /* \"#utility.yul\":14327:14347   */\n      tag_391\n      jump\t// in\n    tag_463:\n        /* \"#utility.yul\":14322:14347   */\n      swap2\n      pop\n        /* \"#utility.yul\":14361:14381   */\n      tag_464\n        /* \"#utility.yul\":14379:14380   */\n      dup4\n        /* \"#utility.yul\":14361:14381   */\n      tag_391\n      jump\t// in\n    tag_464:\n        /* \"#utility.yul\":14356:14381   */\n      swap3\n      pop\n        /* \"#utility.yul\":14400:14401   */\n      dup3\n        /* \"#utility.yul\":14397:14398   */\n      dup3\n        /* \"#utility.yul\":14394:14402   */\n      lt\n        /* \"#utility.yul\":14391:14425   */\n      iszero\n      tag_465\n      jumpi\n        /* \"#utility.yul\":14405:14423   */\n      tag_466\n      tag_456\n      jump\t// in\n    tag_466:\n        /* \"#utility.yul\":14391:14425   */\n    tag_465:\n        /* \"#utility.yul\":14450:14451   */\n      dup3\n        /* \"#utility.yul\":14447:14448   */\n      dup3\n        /* \"#utility.yul\":14443:14452   */\n      sub\n        /* \"#utility.yul\":14435:14452   */\n      swap1\n      pop\n        /* \"#utility.yul\":14267:14458   */\n      swap3\n      swap2\n      pop\n      pop\n      jump\t// out\n        /* \"#utility.yul\":14464:14560   */\n    tag_340:\n        /* \"#utility.yul\":14501:14508   */\n      0x00\n        /* \"#utility.yul\":14530:14554   */\n      tag_468\n        /* \"#utility.yul\":14548:14553   */\n      dup3\n        /* \"#utility.yul\":14530:14554   */\n      tag_469\n      jump\t// in\n    tag_468:\n        /* \"#utility.yul\":14519:14554   */\n      swap1\n      pop\n        /* \"#utility.yul\":14464:14560   */\n      swap2\n      swap1\n      pop\n      jump\t// out\n        /* \"#utility.yul\":14566:14692   */\n    tag_469:\n        /* \"#utility.yul\":14603:14610   */\n      0x00\n        /* \"#utility.yul\":14643:14685   */\n      0xffffffffffffffffffffffffffffffffffffffff\n        /* \"#utility.yul\":14636:14641   */\n      dup3\n        /* \"#utility.yul\":14632:14686   */\n      and\n        /* \"#utility.yul\":14621:14686   */\n      swap1\n      pop\n        /* \"#utility.yul\":14566:14692   */\n      swap2\n      swap1\n      pop\n      jump\t// out\n        /* \"#utility.yul\":14698:14775   */\n    tag_391:\n        /* \"#utility.yul\":14735:14742   */\n      0x00\n        /* \"#utility.yul\":14764:14769   */\n      dup2\n        /* \"#utility.yul\":14753:14769   */\n      swap1\n      pop\n        /* \"#utility.yul\":14698:14775   */\n      swap2\n      swap1\n      pop\n      jump\t// out\n        /* \"#utility.yul\":14781:14874   */\n    tag_400:\n        /* \"#utility.yul\":14817:14824   */\n      0x00\n        /* \"#utility.yul\":14857:14867   */\n      0xffffffff\n        /* \"#utility.yul\":14850:14855   */\n      dup3\n        /* \"#utility.yul\":14846:14868   */\n      and\n        /* \"#utility.yul\":14835:14868   */\n      swap1\n      pop\n        /* \"#utility.yul\":14781:14874   */\n      swap2\n      swap1\n      pop\n      jump\t// out\n        /* \"#utility.yul\":14880:15034   */\n    tag_295:\n        /* \"#utility.yul\":14964:14970   */\n      dup3\n        /* \"#utility.yul\":14959:14962   */\n      dup2\n        /* \"#utility.yul\":14954:14957   */\n      dup4\n        /* \"#utility.yul\":14941:14971   */\n      calldatacopy\n        /* \"#utility.yul\":15026:15027   */\n      0x00\n        /* \"#utility.yul\":15017:15023   */\n      dup4\n        /* \"#utility.yul\":15012:15015   */\n      dup4\n        /* \"#utility.yul\":15008:15024   */\n      add\n        /* \"#utility.yul\":15001:15028   */\n      mstore\n        /* \"#utility.yul\":14880:15034   */\n      pop\n      pop\n      pop\n      jump\t// out\n        /* \"#utility.yul\":15040:15347   */\n    tag_348:\n        /* \"#utility.yul\":15108:15109   */\n      0x00\n        /* \"#utility.yul\":15118:15231   */\n    tag_475:\n        /* \"#utility.yul\":15132:15138   */\n      dup4\n        /* \"#utility.yul\":15129:15130   */\n      dup2\n        /* \"#utility.yul\":15126:15139   */\n      lt\n        /* \"#utility.yul\":15118:15231   */\n      iszero\n      tag_477\n      jumpi\n        /* \"#utility.yul\":15217:15218   */\n      dup1\n        /* \"#utility.yul\":15212:15215   */\n      dup3\n        /* \"#utility.yul\":15208:15219   */\n      add\n        /* \"#utility.yul\":15202:15220   */\n      mload\n        /* \"#utility.yul\":15198:15199   */\n      dup2\n        /* \"#utility.yul\":15193:15196   */\n      dup5\n        /* \"#utility.yul\":15189:15200   */\n      add\n        /* \"#utility.yul\":15182:15221   */\n      mstore\n        /* \"#utility.yul\":15154:15156   */\n      0x20\n        /* \"#utility.yul\":15151:15152   */\n      dup2\n        /* \"#utility.yul\":15147:15157   */\n      add\n        /* \"#utility.yul\":15142:15157   */\n      swap1\n      pop\n        /* \"#utility.yul\":15118:15231   */\n      jump(tag_475)\n    tag_477:\n        /* \"#utility.yul\":15249:15255   */\n      dup4\n        /* \"#utility.yul\":15246:15247   */\n      dup2\n        /* \"#utility.yul\":15243:15256   */\n      gt\n        /* \"#utility.yul\":15240:15341   */\n      iszero\n      tag_478\n      jumpi\n        /* \"#utility.yul\":15329:15330   */\n      0x00\n        /* \"#utility.yul\":15320:15326   */\n      dup5\n        /* \"#utility.yul\":15315:15318   */\n      dup5\n        /* \"#utility.yul\":15311:15327   */\n      add\n        /* \"#utility.yul\":15304:15331   */\n      mstore\n        /* \"#utility.yul\":15240:15341   */\n    tag_478:\n        /* \"#utility.yul\":15089:15347   */\n      pop\n        /* \"#utility.yul\":15040:15347   */\n      pop\n      pop\n      pop\n      jump\t// out\n        /* \"#utility.yul\":15353:15524   */\n    tag_272:\n        /* \"#utility.yul\":15392:15395   */\n      0x00\n        /* \"#utility.yul\":15415:15439   */\n      tag_480\n        /* \"#utility.yul\":15433:15438   */\n      dup3\n        /* \"#utility.yul\":15415:15439   */\n      tag_391\n      jump\t// in\n    tag_480:\n        /* \"#utility.yul\":15406:15439   */\n      swap2\n      pop\n        /* \"#utility.yul\":15461:15465   */\n      0x00\n        /* \"#utility.yul\":15454:15459   */\n      dup3\n        /* \"#utility.yul\":15451:15466   */\n      eq\n        /* \"#utility.yul\":15448:15489   */\n      iszero\n      tag_481\n      jumpi\n        /* \"#utility.yul\":15469:15487   */\n      tag_482\n      tag_456\n      jump\t// in\n    tag_482:\n        /* \"#utility.yul\":15448:15489   */\n    tag_481:\n        /* \"#utility.yul\":15516:15517   */\n      0x01\n        /* \"#utility.yul\":15509:15514   */\n      dup3\n        /* \"#utility.yul\":15505:15518   */\n      sub\n        /* \"#utility.yul\":15498:15518   */\n      swap1\n      pop\n        /* \"#utility.yul\":15353:15524   */\n      swap2\n      swap1\n      pop\n      jump\t// out\n        /* \"#utility.yul\":15530:15850   */\n    tag_209:\n        /* \"#utility.yul\":15574:15580   */\n      0x00\n        /* \"#utility.yul\":15611:15612   */\n      0x02\n        /* \"#utility.yul\":15605:15609   */\n      dup3\n        /* \"#utility.yul\":15601:15613   */\n      div\n        /* \"#utility.yul\":15591:15613   */\n      swap1\n      pop\n        /* \"#utility.yul\":15658:15659   */\n      0x01\n        /* \"#utility.yul\":15652:15656   */\n      dup3\n        /* \"#utility.yul\":15648:15660   */\n      and\n        /* \"#utility.yul\":15679:15697   */\n      dup1\n        /* \"#utility.yul\":15669:15750   */\n      tag_484\n      jumpi\n        /* \"#utility.yul\":15735:15739   */\n      0x7f\n        /* \"#utility.yul\":15727:15733   */\n      dup3\n        /* \"#utility.yul\":15723:15740   */\n      and\n        /* \"#utility.yul\":15713:15740   */\n      swap2\n      pop\n        /* \"#utility.yul\":15669:15750   */\n    tag_484:\n        /* \"#utility.yul\":15797:15799   */\n      0x20\n        /* \"#utility.yul\":15789:15795   */\n      dup3\n        /* \"#utility.yul\":15786:15800   */\n      lt\n        /* \"#utility.yul\":15766:15784   */\n      dup2\n        /* \"#utility.yul\":15763:15801   */\n      eq\n        /* \"#utility.yul\":15760:15844   */\n      iszero\n      tag_485\n      jumpi\n        /* \"#utility.yul\":15816:15834   */\n      tag_486\n      tag_487\n      jump\t// in\n    tag_486:\n        /* \"#utility.yul\":15760:15844   */\n    tag_485:\n        /* \"#utility.yul\":15581:15850   */\n      pop\n        /* \"#utility.yul\":15530:15850   */\n      swap2\n      swap1\n      pop\n      jump\t// out\n        /* \"#utility.yul\":15856:16137   */\n    tag_441:\n        /* \"#utility.yul\":15939:15966   */\n      tag_489\n        /* \"#utility.yul\":15961:15965   */\n      dup3\n        /* \"#utility.yul\":15939:15966   */\n      tag_350\n      jump\t// in\n    tag_489:\n        /* \"#utility.yul\":15931:15937   */\n      dup2\n        /* \"#utility.yul\":15927:15967   */\n      add\n        /* \"#utility.yul\":16069:16075   */\n      dup2\n        /* \"#utility.yul\":16057:16067   */\n      dup2\n        /* \"#utility.yul\":16054:16076   */\n      lt\n        /* \"#utility.yul\":16033:16051   */\n      0xffffffffffffffff\n        /* \"#utility.yul\":16021:16031   */\n      dup3\n        /* \"#utility.yul\":16018:16052   */\n      gt\n        /* \"#utility.yul\":16015:16077   */\n      or\n        /* \"#utility.yul\":16012:16100   */\n      iszero\n      tag_490\n      jumpi\n        /* \"#utility.yul\":16080:16098   */\n      tag_491\n      tag_446\n      jump\t// in\n    tag_491:\n        /* \"#utility.yul\":16012:16100   */\n    tag_490:\n        /* \"#utility.yul\":16120:16130   */\n      dup1\n        /* \"#utility.yul\":16116:16118   */\n      0x40\n        /* \"#utility.yul\":16109:16131   */\n      mstore\n        /* \"#utility.yul\":15899:16137   */\n      pop\n        /* \"#utility.yul\":15856:16137   */\n      pop\n      pop\n      jump\t// out\n        /* \"#utility.yul\":16143:16376   */\n    tag_128:\n        /* \"#utility.yul\":16182:16185   */\n      0x00\n        /* \"#utility.yul\":16205:16229   */\n      tag_493\n        /* \"#utility.yul\":16223:16228   */\n      dup3\n        /* \"#utility.yul\":16205:16229   */\n      tag_391\n      jump\t// in\n    tag_493:\n        /* \"#utility.yul\":16196:16229   */\n      swap2\n      pop\n        /* \"#utility.yul\":16251:16317   */\n      0xffffffffffffffffffffffffffffffffffffffffffffffffffffffffffffffff\n        /* \"#utility.yul\":16244:16249   */\n      dup3\n        /* \"#utility.yul\":16241:16318   */\n      eq\n        /* \"#utility.yul\":16238:16341   */\n      iszero\n      tag_494\n      jumpi\n        /* \"#utility.yul\":16321:16339   */\n      tag_495\n      tag_456\n      jump\t// in\n    tag_495:\n        /* \"#utility.yul\":16238:16341   */\n    tag_494:\n        /* \"#utility.yul\":16368:16369   */\n      0x01\n        /* \"#utility.yul\":16361:16366   */\n      dup3\n        /* \"#utility.yul\":16357:16370   */\n      add\n        /* \"#utility.yul\":16350:16370   */\n      swap1\n      pop\n        /* \"#utility.yul\":16143:16376   */\n      swap2\n      swap1\n      pop\n      jump\t// out\n        /* \"#utility.yul\":16382:16557   */\n    tag_147:\n        /* \"#utility.yul\":16420:16423   */\n      0x00\n        /* \"#utility.yul\":16443:16466   */\n      tag_497\n        /* \"#utility.yul\":16460:16465   */\n      dup3\n        /* \"#utility.yul\":16443:16466   */\n      tag_400\n      jump\t// in\n    tag_497:\n        /* \"#utility.yul\":16434:16466   */\n      swap2\n      pop\n        /* \"#utility.yul\":16488:16498   */\n      0xffffffff\n        /* \"#utility.yul\":16481:16486   */\n      dup3\n        /* \"#utility.yul\":16478:16499   */\n      eq\n        /* \"#utility.yul\":16475:16522   */\n      iszero\n      tag_498\n      jumpi\n        /* \"#utility.yul\":16502:16520   */\n      tag_499\n      tag_456\n      jump\t// in\n    tag_499:\n        /* \"#utility.yul\":16475:16522   */\n    tag_498:\n        /* \"#utility.yul\":16549:16550   */\n      0x01\n        /* \"#utility.yul\":16542:16547   */\n      dup3\n        /* \"#utility.yul\":16538:16551   */\n      add\n        /* \"#utility.yul\":16531:16551   */\n      swap1\n      pop\n        /* \"#utility.yul\":16382:16557   */\n      swap2\n      swap1\n      pop\n      jump\t// out\n        /* \"#utility.yul\":16563:16642   */\n    tag_396:\n        /* \"#utility.yul\":16602:16609   */\n      0x00\n        /* \"#utility.yul\":16631:16636   */\n      dup2\n        /* \"#utility.yul\":16620:16636   */\n      swap1\n      pop\n        /* \"#utility.yul\":16563:16642   */\n      swap2\n      swap1\n      pop\n      jump\t// out\n        /* \"#utility.yul\":16648:16824   */\n    tag_155:\n        /* \"#utility.yul\":16680:16681   */\n      0x00\n        /* \"#utility.yul\":16697:16717   */\n      tag_502\n        /* \"#utility.yul\":16715:16716   */\n      dup3\n        /* \"#utility.yul\":16697:16717   */\n      tag_391\n      jump\t// in\n    tag_502:\n        /* \"#utility.yul\":16692:16717   */\n      swap2\n      pop\n        /* \"#utility.yul\":16731:16751   */\n      tag_503\n        /* \"#utility.yul\":16749:16750   */\n      dup4\n        /* \"#utility.yul\":16731:16751   */\n      tag_391\n      jump\t// in\n    tag_503:\n        /* \"#utility.yul\":16726:16751   */\n      swap3\n      pop\n        /* \"#utility.yul\":16770:16771   */\n      dup3\n        /* \"#utility.yul\":16760:16795   */\n      tag_504\n      jumpi\n        /* \"#utility.yul\":16775:16793   */\n      tag_505\n      tag_506\n      jump\t// in\n    tag_505:\n        /* \"#utility.yul\":16760:16795   */\n    tag_504:\n        /* \"#utility.yul\":16816:16817   */\n      dup3\n        /* \"#utility.yul\":16813:16814   */\n      dup3\n        /* \"#utility.yul\":16809:16818   */\n      mod\n        /* \"#utility.yul\":16804:16818   */\n      swap1\n      pop\n        /* \"#utility.yul\":16648:16824   */\n      swap3\n      swap2\n      pop\n      pop\n      jump\t// out\n        /* \"#utility.yul\":16830:17010   */\n    tag_456:\n        /* \"#utility.yul\":16878:16955   */\n      0x4e487b7100000000000000000000000000000000000000000000000000000000\n        /* \"#utility.yul\":16875:16876   */\n      0x00\n        /* \"#utility.yul\":16868:16956   */\n      mstore\n        /* \"#utility.yul\":16975:16979   */\n      0x11\n        /* \"#utility.yul\":16972:16973   */\n      0x04\n        /* \"#utility.yul\":16965:16980   */\n      mstore\n        /* \"#utility.yul\":16999:17003   */\n      0x24\n        /* \"#utility.yul\":16996:16997   */\n      0x00\n        /* \"#utility.yul\":16989:17004   */\n      revert\n        /* \"#utility.yul\":17016:17196   */\n    tag_506:\n        /* \"#utility.yul\":17064:17141   */\n      0x4e487b7100000000000000000000000000000000000000000000000000000000\n        /* \"#utility.yul\":17061:17062   */\n      0x00\n        /* \"#utility.yul\":17054:17142   */\n      mstore\n        /* \"#utility.yul\":17161:17165   */\n      0x12\n        /* \"#utility.yul\":17158:17159   */\n      0x04\n        /* \"#utility.yul\":17151:17166   */\n      mstore\n        /* \"#utility.yul\":17185:17189   */\n      0x24\n        /* \"#utility.yul\":17182:17183   */\n      0x00\n        /* \"#utility.yul\":17175:17190   */\n      revert\n        /* \"#utility.yul\":17202:17382   */\n    tag_487:\n        /* \"#utility.yul\":17250:17327   */\n      0x4e487b7100000000000000000000000000000000000000000000000000000000\n        /* \"#utility.yul\":17247:17248   */\n      0x00\n        /* \"#utility.yul\":17240:17328   */\n      mstore\n        /* \"#utility.yul\":17347:17351   */\n      0x22\n        /* \"#utility.yul\":17344:17345   */\n      0x04\n        /* \"#utility.yul\":17337:17352   */\n      mstore\n        /* \"#utility.yul\":17371:17375   */\n      0x24\n        /* \"#utility.yul\":17368:17369   */\n      0x00\n        /* \"#utility.yul\":17361:17376   */\n      revert\n        /* \"#utility.yul\":17388:17568   */\n    tag_140:\n        /* \"#utility.yul\":17436:17513   */\n      0x4e487b7100000000000000000000000000000000000000000000000000000000\n        /* \"#utility.yul\":17433:17434   */\n      0x00\n        /* \"#utility.yul\":17426:17514   */\n      mstore\n        /* \"#utility.yul\":17533:17537   */\n      0x32\n        /* \"#utility.yul\":17530:17531   */\n      0x04\n        /* \"#utility.yul\":17523:17538   */\n      mstore\n        /* \"#utility.yul\":17557:17561   */\n      0x24\n        /* \"#utility.yul\":17554:17555   */\n      0x00\n        /* \"#utility.yul\":17547:17562   */\n      revert\n        /* \"#utility.yul\":17574:17754   */\n    tag_446:\n        /* \"#utility.yul\":17622:17699   */\n      0x4e487b7100000000000000000000000000000000000000000000000000000000\n        /* \"#utility.yul\":17619:17620   */\n      0x00\n        /* \"#utility.yul\":17612:17700   */\n      mstore\n        /* \"#utility.yul\":17719:17723   */\n      0x41\n        /* \"#utility.yul\":17716:17717   */\n      0x04\n        /* \"#utility.yul\":17709:17724   */\n      mstore\n        /* \"#utility.yul\":17743:17747   */\n      0x24\n        /* \"#utility.yul\":17740:17741   */\n      0x00\n        /* \"#utility.yul\":17733:17748   */\n      revert\n        /* \"#utility.yul\":17760:17877   */\n    tag_304:\n        /* \"#utility.yul\":17869:17870   */\n      0x00\n        /* \"#utility.yul\":17866:17867   */\n      dup1\n        /* \"#utility.yul\":17859:17871   */\n      revert\n        /* \"#utility.yul\":17883:18000   */\n    tag_293:\n        /* \"#utility.yul\":17992:17993   */\n      0x00\n        /* \"#utility.yul\":17989:17990   */\n      dup1\n        /* \"#utility.yul\":17982:17994   */\n      revert\n        /* \"#utility.yul\":18006:18123   */\n    tag_325:\n        /* \"#utility.yul\":18115:18116   */\n      0x00\n        /* \"#utility.yul\":18112:18113   */\n      dup1\n        /* \"#utility.yul\":18105:18117   */\n      revert\n        /* \"#utility.yul\":18129:18246   */\n    tag_313:\n        /* \"#utility.yul\":18238:18239   */\n      0x00\n        /* \"#utility.yul\":18235:18236   */\n      dup1\n        /* \"#utility.yul\":18228:18240   */\n      revert\n        /* \"#utility.yul\":18252:18354   */\n    tag_350:\n        /* \"#utility.yul\":18293:18299   */\n      0x00\n        /* \"#utility.yul\":18344:18346   */\n      0x1f\n        /* \"#utility.yul\":18340:18347   */\n      not\n        /* \"#utility.yul\":18335:18337   */\n      0x1f\n        /* \"#utility.yul\":18328:18333   */\n      dup4\n        /* \"#utility.yul\":18324:18338   */\n      add\n        /* \"#utility.yul\":18320:18348   */\n      and\n        /* \"#utility.yul\":18310:18348   */\n      swap1\n      pop\n        /* \"#utility.yul\":18252:18354   */\n      swap2\n      swap1\n      pop\n      jump\t// out\n        /* \"#utility.yul\":18360:18587   */\n    tag_367:\n        /* \"#utility.yul\":18500:18534   */\n      0x536f6c6f2073652070756564652074656e657220756e20636f63686520706f72\n        /* \"#utility.yul\":18496:18497   */\n      0x00\n        /* \"#utility.yul\":18488:18494   */\n      dup3\n        /* \"#utility.yul\":18484:18498   */\n      add\n        /* \"#utility.yul\":18477:18535   */\n      mstore\n        /* \"#utility.yul\":18569:18579   */\n      0x20706572736f6e61000000000000000000000000000000000000000000000000\n        /* \"#utility.yul\":18564:18566   */\n      0x20\n        /* \"#utility.yul\":18556:18562   */\n      dup3\n        /* \"#utility.yul\":18552:18567   */\n      add\n        /* \"#utility.yul\":18545:18580   */\n      mstore\n        /* \"#utility.yul\":18360:18587   */\n      pop\n      jump\t// out\n        /* \"#utility.yul\":18593:18818   */\n    tag_372:\n        /* \"#utility.yul\":18733:18767   */\n      0x4f776e61626c653a206e6577206f776e657220697320746865207a65726f2061\n        /* \"#utility.yul\":18729:18730   */\n      0x00\n        /* \"#utility.yul\":18721:18727   */\n      dup3\n        /* \"#utility.yul\":18717:18731   */\n      add\n        /* \"#utility.yul\":18710:18768   */\n      mstore\n        /* \"#utility.yul\":18802:18810   */\n      0x6464726573730000000000000000000000000000000000000000000000000000\n        /* \"#utility.yul\":18797:18799   */\n      0x20\n        /* \"#utility.yul\":18789:18795   */\n      dup3\n        /* \"#utility.yul\":18785:18800   */\n      add\n        /* \"#utility.yul\":18778:18811   */\n      mstore\n        /* \"#utility.yul\":18593:18818   */\n      pop\n      jump\t// out\n        /* \"#utility.yul\":18824:18986   */\n    tag_377:\n        /* \"#utility.yul\":18964:18978   */\n      0x4861732067616e61646f3a200000000000000000000000000000000000000000\n        /* \"#utility.yul\":18960:18961   */\n      0x00\n        /* \"#utility.yul\":18952:18958   */\n      dup3\n        /* \"#utility.yul\":18948:18962   */\n      add\n        /* \"#utility.yul\":18941:18979   */\n      mstore\n        /* \"#utility.yul\":18824:18986   */\n      pop\n      jump\t// out\n        /* \"#utility.yul\":18992:19174   */\n    tag_382:\n        /* \"#utility.yul\":19132:19166   */\n      0x4f776e61626c653a2063616c6c6572206973206e6f7420746865206f776e6572\n        /* \"#utility.yul\":19128:19129   */\n      0x00\n        /* \"#utility.yul\":19120:19126   */\n      dup3\n        /* \"#utility.yul\":19116:19130   */\n      add\n        /* \"#utility.yul\":19109:19167   */\n      mstore\n        /* \"#utility.yul\":18992:19174   */\n      pop\n      jump\t// out\n        /* \"#utility.yul\":19180:19351   */\n    tag_387:\n        /* \"#utility.yul\":19320:19343   */\n      0x456c20636f6368652067616e61646f722065733a200000000000000000000000\n        /* \"#utility.yul\":19316:19317   */\n      0x00\n        /* \"#utility.yul\":19308:19314   */\n      dup3\n        /* \"#utility.yul\":19304:19318   */\n      add\n        /* \"#utility.yul\":19297:19344   */\n      mstore\n        /* \"#utility.yul\":19180:19351   */\n      pop\n      jump\t// out\n        /* \"#utility.yul\":19357:19479   */\n    tag_299:\n        /* \"#utility.yul\":19430:19454   */\n      tag_523\n        /* \"#utility.yul\":19448:19453   */\n      dup2\n        /* \"#utility.yul\":19430:19454   */\n      tag_340\n      jump\t// in\n    tag_523:\n        /* \"#utility.yul\":19423:19428   */\n      dup2\n        /* \"#utility.yul\":19420:19455   */\n      eq\n        /* \"#utility.yul\":19410:19473   */\n      tag_524\n      jumpi\n        /* \"#utility.yul\":19469:19470   */\n      0x00\n        /* \"#utility.yul\":19466:19467   */\n      dup1\n        /* \"#utility.yul\":19459:19471   */\n      revert\n        /* \"#utility.yul\":19410:19473   */\n    tag_524:\n        /* \"#utility.yul\":19357:19479   */\n      pop\n      jump\t// out\n        /* \"#utility.yul\":19485:19607   */\n    tag_309:\n        /* \"#utility.yul\":19558:19582   */\n      tag_526\n        /* \"#utility.yul\":19576:19581   */\n      dup2\n        /* \"#utility.yul\":19558:19582   */\n      tag_391\n      jump\t// in\n    tag_526:\n        /* \"#utility.yul\":19551:19556   */\n      dup2\n        /* \"#utility.yul\":19548:19583   */\n      eq\n        /* \"#utility.yul\":19538:19601   */\n      tag_527\n      jumpi\n        /* \"#utility.yul\":19597:19598   */\n      0x00\n        /* \"#utility.yul\":19594:19595   */\n      dup1\n        /* \"#utility.yul\":19587:19599   */\n      revert\n        /* \"#utility.yul\":19538:19601   */\n    tag_527:\n        /* \"#utility.yul\":19485:19607   */\n      pop\n      jump\t// out\n\n    auxdata: 0xa2646970667358221220c63f600c02abddae5a5836b9a1d2ad885063330cb2ba1606bcb899b2e887ba8064736f6c63430008070033\n}\n",
				"bytecode": {
					"linkReferences": {},
					"object": "608060405260006001556000600255603c600355670de0b6b3a764000060045534801561002b57600080fd5b5061004861003d61004d60201b60201c565b61005560201b60201c565b610119565b600033905090565b60008060009054906101000a900473ffffffffffffffffffffffffffffffffffffffff169050816000806101000a81548173ffffffffffffffffffffffffffffffffffffffff021916908373ffffffffffffffffffffffffffffffffffffffff1602179055508173ffffffffffffffffffffffffffffffffffffffff168173ffffffffffffffffffffffffffffffffffffffff167f8be0079c531659141344cd1fd0a4f28419497f9722a3daafe3b4186f6b6457e060405160405180910390a35050565b61225480620001296000396000f3fe6080604052600436106100fe5760003560e01c8063715018a611610095578063b2bdfa7b11610064578063b2bdfa7b1461033f578063b2e6ceeb1461036a578063d735573d14610393578063e172fca8146103d7578063f2fde38b14610400576100fe565b8063715018a614610297578063858b0554146102ae5780638da5cb5b146102eb578063a9059cbb14610316576100fe565b80636352211e116100d15780636352211e146101bd5780636a7d1816146101fa5780636b6f04941461022a57806370a082311461025a576100fe565b8063095ea7b3146101035780631bfdc1501461012c5780631c6743e4146101435780632458c54414610180575b600080fd5b34801561010f57600080fd5b5061012a60048036038101906101259190611799565b610429565b005b34801561013857600080fd5b506101416104ec565b005b34801561014f57600080fd5b5061016a6004803603810190610165919061176c565b6105b1565b6040516101779190611c75565b60405180910390f35b34801561018c57600080fd5b506101a760048036038101906101a291906117d9565b6105c9565b6040516101b49190611c75565b60405180910390f35b3480156101c957600080fd5b506101e460048036038101906101df9190611880565b6108ab565b6040516101f19190611a96565b60405180910390f35b610214600480360381019061020f919061176c565b6108e8565b6040516102219190611b44565b60405180910390f35b610244600480360381019061023f9190611880565b610a3d565b6040516102519190611b44565b60405180910390f35b34801561026657600080fd5b50610281600480360381019061027c919061176c565b610d18565b60405161028e9190611c75565b60405180910390f35b3480156102a357600080fd5b506102ac610d61565b005b3480156102ba57600080fd5b506102d560048036038101906102d09190611880565b610de9565b6040516102e29190611a96565b60405180910390f35b3480156102f757600080fd5b50610300610e1c565b60405161030d9190611a96565b60405180910390f35b34801561032257600080fd5b5061033d60048036038101906103389190611799565b610e45565b005b34801561034b57600080fd5b50610354610ec1565b6040516103619190611a96565b60405180910390f35b34801561037657600080fd5b50610391600480360381019061038c9190611880565b610ee5565b005b34801561039f57600080fd5b506103ba60048036038101906103b59190611880565b610ee8565b6040516103ce989796959493929190611ab1565b60405180910390f35b3480156103e357600080fd5b506103fe60048036038101906103f9919061176c565b611108565b005b34801561040c57600080fd5b506104276004803603810190610422919061176c565b611288565b005b806006600082815260200190815260200160002060009054906101000a900473ffffffffffffffffffffffffffffffffffffffff1673ffffffffffffffffffffffffffffffffffffffff163373ffffffffffffffffffffffffffffffffffffffff161461049557600080fd5b826008600084815260200190815260200160002060006101000a81548173ffffffffffffffffffffffffffffffffffffffff021916908373ffffffffffffffffffffffffffffffffffffffff160217905550505050565b6104f4611380565b73ffffffffffffffffffffffffffffffffffffffff16610512610e1c565b73ffffffffffffffffffffffffffffffffffffffff1614610568576040517f08c379a000000000000000000000000000000000000000000000000000000000815260040161055f90611c27565b60405180910390fd5b3373ffffffffffffffffffffffffffffffffffffffff166108fc479081150290604051600060405180830381858888f193505050501580156105ae573d6000803e3d6000fd5b50565b60076020528060005260406000206000915090505481565b60006001600760003373ffffffffffffffffffffffffffffffffffffffff1673ffffffffffffffffffffffffffffffffffffffff168152602001908152602001600020541061064d576040517f08c379a000000000000000000000000000000000000000000000000000000000815260040161064490611bb9565b60405180910390fd5b60056040518061010001604052803373ffffffffffffffffffffffffffffffffffffffff1681526020018681526020018581526020018481526020016000815260200160008152602001600354426106a59190611d17565b63ffffffff168152602001600063ffffffff16815250908060018154018082558091505060019003906000526020600020906008020160009091909190915060008201518160000160006101000a81548173ffffffffffffffffffffffffffffffffffffffff021916908373ffffffffffffffffffffffffffffffffffffffff160217905550602082015181600101908051906020019061074792919061162f565b50604082015181600201908051906020019061076492919061162f565b50606082015181600301908051906020019061078192919061162f565b506080820151816004015560a0820151816005015560c0820151816006015560e08201518160070160006101000a81548163ffffffff021916908363ffffffff160217905550505060006005805490509050336006600083815260200190815260200160002060006101000a81548173ffffffffffffffffffffffffffffffffffffffff021916908373ffffffffffffffffffffffffffffffffffffffff160217905550600760003373ffffffffffffffffffffffffffffffffffffffff1673ffffffffffffffffffffffffffffffffffffffff168152602001908152602001600020600081548092919061087590611f16565b91905055506002600081548092919061088d90611f16565b919050555060016002546108a19190611dc7565b9150509392505050565b60006006600083815260200190815260200160002060009054906101000a900473ffffffffffffffffffffffffffffffffffffffff169050919050565b606060045434146108f857600080fd5b60005b600580549050811015610a36578273ffffffffffffffffffffffffffffffffffffffff166005828154811061093357610932612054565b5b906000526020600020906008020160000160009054906101000a900473ffffffffffffffffffffffffffffffffffffffff1673ffffffffffffffffffffffffffffffffffffffff161415610a23576005818154811061099557610994612054565b5b9060005260206000209060080201600701600081819054906101000a900463ffffffff16809291906109c690611f5f565b91906101000a81548163ffffffff021916908363ffffffff160217905550506040518060400160405280601281526020017f48612073756269646f206465206e6976656c0000000000000000000000000000815250915050610a38565b8080610a2e90611f16565b9150506108fb565b505b919050565b6060813414610a4b57600080fd5b60016000815480929190610a5e90611f16565b9190505550600060058054905042600580549050600154604051602001610a8793929190611a59565b6040516020818303038152906040528051906020012060001c610aaa9190611f96565b905060016000815480929190610abf90611f16565b91905055506000600290506000814283600154604051602001610ae493929190611a59565b6040516020818303038152906040528051906020012060001c610b079190611f96565b905060005b600580549050811015610d0e5760058181548110610b2d57610b2c612054565b5b906000526020600020906008020160000160009054906101000a900473ffffffffffffffffffffffffffffffffffffffff1673ffffffffffffffffffffffffffffffffffffffff163373ffffffffffffffffffffffffffffffffffffffff161415610cfb576000821415610c8357610ba3611388565b60058181548110610bb757610bb6612054565b5b90600052602060002090600802016004016000815480929190610bd990611f16565b919050555060058181548110610bf257610bf1612054565b5b9060005260206000209060080201600701600081819054906101000a900463ffffffff1680929190610c2390611f5f565b91906101000a81548163ffffffff021916908363ffffffff160217905550506040518060400160405280600a81526020017f4861732067616e61646f00000000000000000000000000000000000000000000815250945050505050610d13565b7fa28482eec3136a2461c6c30c08f71ba279c6c51a2d9c7bea4e50d6d2632f389684604051610cb29190611c47565b60405180910390a16040518060400160405280600b81526020017f486173207065726469646f000000000000000000000000000000000000000000815250945050505050610d13565b8080610d0690611f16565b915050610b0c565b505050505b919050565b6000600760008373ffffffffffffffffffffffffffffffffffffffff1673ffffffffffffffffffffffffffffffffffffffff168152602001908152602001600020549050919050565b610d69611380565b73ffffffffffffffffffffffffffffffffffffffff16610d87610e1c565b73ffffffffffffffffffffffffffffffffffffffff1614610ddd576040517f08c379a0000000000000000000000000000000000000000000000000000000008152600401610dd490611c27565b60405180910390fd5b610de76000611420565b565b60066020528060005260406000206000915054906101000a900473ffffffffffffffffffffffffffffffffffffffff1681565b60008060009054906101000a900473ffffffffffffffffffffffffffffffffffffffff16905090565b806006600082815260200190815260200160002060009054906101000a900473ffffffffffffffffffffffffffffffffffffffff1673ffffffffffffffffffffffffffffffffffffffff163373ffffffffffffffffffffffffffffffffffffffff1614610eb157600080fd5b610ebc3384846114e4565b505050565b60008054906101000a900473ffffffffffffffffffffffffffffffffffffffff1681565b50565b60058181548110610ef857600080fd5b90600052602060002090600802016000915090508060000160009054906101000a900473ffffffffffffffffffffffffffffffffffffffff1690806001018054610f4190611eb3565b80601f0160208091040260200160405190810160405280929190818152602001828054610f6d90611eb3565b8015610fba5780601f10610f8f57610100808354040283529160200191610fba565b820191906000526020600020905b815481529060010190602001808311610f9d57829003601f168201915b505050505090806002018054610fcf90611eb3565b80601f0160208091040260200160405190810160405280929190818152602001828054610ffb90611eb3565b80156110485780601f1061101d57610100808354040283529160200191611048565b820191906000526020600020905b81548152906001019060200180831161102b57829003601f168201915b50505050509080600301805461105d90611eb3565b80601f016020809104026020016040519081016040528092919081815260200182805461108990611eb3565b80156110d65780601f106110ab576101008083540402835291602001916110d6565b820191906000526020600020905b8154815290600101906020018083116110b957829003601f168201915b5050505050908060040154908060050154908060060154908060070160009054906101000a900463ffffffff16905088565b60005b600580549050811015611284578173ffffffffffffffffffffffffffffffffffffffff166005828154811061114357611142612054565b5b906000526020600020906008020160000160009054906101000a900473ffffffffffffffffffffffffffffffffffffffff1673ffffffffffffffffffffffffffffffffffffffff161415611271577f18c2885dbbffc4e127da047b869295b42d8d5ee97848f7f117b062e88f34a9e6600582815481106111c6576111c5612054565b5b9060005260206000209060080201600201600583815481106111eb576111ea612054565b5b9060005260206000209060080201600101600584815481106112105761120f612054565b5b906000526020600020906008020160070160009054906101000a900463ffffffff166005858154811061124657611245612054565b5b9060005260206000209060080201600401546040516112689493929190611b66565b60405180910390a15b808061127c90611f16565b91505061110b565b5050565b611290611380565b73ffffffffffffffffffffffffffffffffffffffff166112ae610e1c565b73ffffffffffffffffffffffffffffffffffffffff1614611304576040517f08c379a00000000000000000000000000000000000000000000000000000000081526004016112fb90611c27565b60405180910390fd5b600073ffffffffffffffffffffffffffffffffffffffff168173ffffffffffffffffffffffffffffffffffffffff161415611374576040517f08c379a000000000000000000000000000000000000000000000000000000000815260040161136b90611bd9565b60405180910390fd5b61137d81611420565b50565b600033905090565b3373ffffffffffffffffffffffffffffffffffffffff166108fc6002476113af9190611d6d565b9081150290604051600060405180830381858888f193505050501580156113da573d6000803e3d6000fd5b507fa28482eec3136a2461c6c30c08f71ba279c6c51a2d9c7bea4e50d6d2632f38966002476114099190611d6d565b6040516114169190611bf9565b60405180910390a1565b60008060009054906101000a900473ffffffffffffffffffffffffffffffffffffffff169050816000806101000a81548173ffffffffffffffffffffffffffffffffffffffff021916908373ffffffffffffffffffffffffffffffffffffffff1602179055508173ffffffffffffffffffffffffffffffffffffffff168173ffffffffffffffffffffffffffffffffffffffff167f8be0079c531659141344cd1fd0a4f28419497f9722a3daafe3b4186f6b6457e060405160405180910390a35050565b600760008373ffffffffffffffffffffffffffffffffffffffff1673ffffffffffffffffffffffffffffffffffffffff168152602001908152602001600020600081548092919061153490611f16565b9190505550600760008473ffffffffffffffffffffffffffffffffffffffff1673ffffffffffffffffffffffffffffffffffffffff168152602001908152602001600020600081548092919061158990611e89565b91905055508173ffffffffffffffffffffffffffffffffffffffff166006600083815260200190815260200160002060009054906101000a905050508173ffffffffffffffffffffffffffffffffffffffff168373ffffffffffffffffffffffffffffffffffffffff167fddf252ad1be2c89b69c2b068fc378daa952ba7f163c4a11628f55a4df523b3ef836040516116229190611c75565b60405180910390a3505050565b82805461163b90611eb3565b90600052602060002090601f01602090048101928261165d57600085556116a4565b82601f1061167657805160ff19168380011785556116a4565b828001600101855582156116a4579182015b828111156116a3578251825591602001919060010190611688565b5b5090506116b191906116b5565b5090565b5b808211156116ce5760008160009055506001016116b6565b5090565b60006116e56116e084611cb5565b611c90565b905082815260208101848484011115611701576117006120b7565b5b61170c848285611e47565b509392505050565b600081359050611723816121f0565b92915050565b600082601f83011261173e5761173d6120b2565b5b813561174e8482602086016116d2565b91505092915050565b60008135905061176681612207565b92915050565b600060208284031215611782576117816120c1565b5b600061179084828501611714565b91505092915050565b600080604083850312156117b0576117af6120c1565b5b60006117be85828601611714565b92505060206117cf85828601611757565b9150509250929050565b6000806000606084860312156117f2576117f16120c1565b5b600084013567ffffffffffffffff8111156118105761180f6120bc565b5b61181c86828701611729565b935050602084013567ffffffffffffffff81111561183d5761183c6120bc565b5b61184986828701611729565b925050604084013567ffffffffffffffff81111561186a576118696120bc565b5b61187686828701611729565b9150509250925092565b600060208284031215611896576118956120c1565b5b60006118a484828501611757565b91505092915050565b6118b681611dfb565b82525050565b60006118c782611cfb565b6118d18185611d06565b93506118e1818560208601611e56565b6118ea816120c6565b840191505092915050565b6000815461190281611eb3565b61190c8186611d06565b9450600182166000811461192757600181146119395761196c565b60ff198316865260208601935061196c565b61194285611ce6565b60005b8381101561196457815481890152600182019150602081019050611945565b808801955050505b50505092915050565b6000611982602883611d06565b915061198d826120d7565b604082019050919050565b60006119a5602683611d06565b91506119b082612126565b604082019050919050565b60006119c8600c83611d06565b91506119d382612175565b602082019050919050565b60006119eb602083611d06565b91506119f68261219e565b602082019050919050565b6000611a0e601583611d06565b9150611a19826121c7565b602082019050919050565b611a2d81611e2d565b82525050565b611a44611a3f82611e2d565b611f8c565b82525050565b611a5381611e37565b82525050565b6000611a658286611a33565b602082019150611a758285611a33565b602082019150611a858284611a33565b602082019150819050949350505050565b6000602082019050611aab60008301846118ad565b92915050565b600061010082019050611ac7600083018b6118ad565b8181036020830152611ad9818a6118bc565b90508181036040830152611aed81896118bc565b90508181036060830152611b0181886118bc565b9050611b106080830187611a24565b611b1d60a0830186611a24565b611b2a60c0830185611a24565b611b3760e0830184611a4a565b9998505050505050505050565b60006020820190508181036000830152611b5e81846118bc565b905092915050565b60006080820190508181036000830152611b8081876118f5565b90508181036020830152611b9481866118f5565b9050611ba36040830185611a4a565b611bb06060830184611a24565b95945050505050565b60006020820190508181036000830152611bd281611975565b9050919050565b60006020820190508181036000830152611bf281611998565b9050919050565b60006040820190508181036000830152611c12816119bb565b9050611c216020830184611a24565b92915050565b60006020820190508181036000830152611c40816119de565b9050919050565b60006040820190508181036000830152611c6081611a01565b9050611c6f6020830184611a24565b92915050565b6000602082019050611c8a6000830184611a24565b92915050565b6000611c9a611cab565b9050611ca68282611ee5565b919050565b6000604051905090565b600067ffffffffffffffff821115611cd057611ccf612083565b5b611cd9826120c6565b9050602081019050919050565b60008190508160005260206000209050919050565b600081519050919050565b600082825260208201905092915050565b6000611d2282611e2d565b9150611d2d83611e2d565b9250827fffffffffffffffffffffffffffffffffffffffffffffffffffffffffffffffff03821115611d6257611d61611fc7565b5b828201905092915050565b6000611d7882611e2d565b9150611d8383611e2d565b9250817fffffffffffffffffffffffffffffffffffffffffffffffffffffffffffffffff0483118215151615611dbc57611dbb611fc7565b5b828202905092915050565b6000611dd282611e2d565b9150611ddd83611e2d565b925082821015611df057611def611fc7565b5b828203905092915050565b6000611e0682611e0d565b9050919050565b600073ffffffffffffffffffffffffffffffffffffffff82169050919050565b6000819050919050565b600063ffffffff82169050919050565b82818337600083830152505050565b60005b83811015611e74578082015181840152602081019050611e59565b83811115611e83576000848401525b50505050565b6000611e9482611e2d565b91506000821415611ea857611ea7611fc7565b5b600182039050919050565b60006002820490506001821680611ecb57607f821691505b60208210811415611edf57611ede612025565b5b50919050565b611eee826120c6565b810181811067ffffffffffffffff82111715611f0d57611f0c612083565b5b80604052505050565b6000611f2182611e2d565b91507fffffffffffffffffffffffffffffffffffffffffffffffffffffffffffffffff821415611f5457611f53611fc7565b5b600182019050919050565b6000611f6a82611e37565b915063ffffffff821415611f8157611f80611fc7565b5b600182019050919050565b6000819050919050565b6000611fa182611e2d565b9150611fac83611e2d565b925082611fbc57611fbb611ff6565b5b828206905092915050565b7f4e487b7100000000000000000000000000000000000000000000000000000000600052601160045260246000fd5b7f4e487b7100000000000000000000000000000000000000000000000000000000600052601260045260246000fd5b7f4e487b7100000000000000000000000000000000000000000000000000000000600052602260045260246000fd5b7f4e487b7100000000000000000000000000000000000000000000000000000000600052603260045260246000fd5b7f4e487b7100000000000000000000000000000000000000000000000000000000600052604160045260246000fd5b600080fd5b600080fd5b600080fd5b600080fd5b6000601f19601f8301169050919050565b7f536f6c6f2073652070756564652074656e657220756e20636f63686520706f7260008201527f20706572736f6e61000000000000000000000000000000000000000000000000602082015250565b7f4f776e61626c653a206e6577206f776e657220697320746865207a65726f206160008201527f6464726573730000000000000000000000000000000000000000000000000000602082015250565b7f4861732067616e61646f3a200000000000000000000000000000000000000000600082015250565b7f4f776e61626c653a2063616c6c6572206973206e6f7420746865206f776e6572600082015250565b7f456c20636f6368652067616e61646f722065733a200000000000000000000000600082015250565b6121f981611dfb565b811461220457600080fd5b50565b61221081611e2d565b811461221b57600080fd5b5056fea2646970667358221220c63f600c02abddae5a5836b9a1d2ad885063330cb2ba1606bcb899b2e887ba8064736f6c63430008070033",
					"opcodes": "PUSH1 0x80 PUSH1 0x40 MSTORE PUSH1 0x0 PUSH1 0x1 SSTORE PUSH1 0x0 PUSH1 0x2 SSTORE PUSH1 0x3C PUSH1 0x3 SSTORE PUSH8 0xDE0B6B3A7640000 PUSH1 0x4 SSTORE CALLVALUE DUP1 ISZERO PUSH2 0x2B JUMPI PUSH1 0x0 DUP1 REVERT JUMPDEST POP PUSH2 0x48 PUSH2 0x3D PUSH2 0x4D PUSH1 0x20 SHL PUSH1 0x20 SHR JUMP JUMPDEST PUSH2 0x55 PUSH1 0x20 SHL PUSH1 0x20 SHR JUMP JUMPDEST PUSH2 0x119 JUMP JUMPDEST PUSH1 0x0 CALLER SWAP1 POP SWAP1 JUMP JUMPDEST PUSH1 0x0 DUP1 PUSH1 0x0 SWAP1 SLOAD SWAP1 PUSH2 0x100 EXP SWAP1 DIV PUSH20 0xFFFFFFFFFFFFFFFFFFFFFFFFFFFFFFFFFFFFFFFF AND SWAP1 POP DUP2 PUSH1 0x0 DUP1 PUSH2 0x100 EXP DUP2 SLOAD DUP2 PUSH20 0xFFFFFFFFFFFFFFFFFFFFFFFFFFFFFFFFFFFFFFFF MUL NOT AND SWAP1 DUP4 PUSH20 0xFFFFFFFFFFFFFFFFFFFFFFFFFFFFFFFFFFFFFFFF AND MUL OR SWAP1 SSTORE POP DUP2 PUSH20 0xFFFFFFFFFFFFFFFFFFFFFFFFFFFFFFFFFFFFFFFF AND DUP2 PUSH20 0xFFFFFFFFFFFFFFFFFFFFFFFFFFFFFFFFFFFFFFFF AND PUSH32 0x8BE0079C531659141344CD1FD0A4F28419497F9722A3DAAFE3B4186F6B6457E0 PUSH1 0x40 MLOAD PUSH1 0x40 MLOAD DUP1 SWAP2 SUB SWAP1 LOG3 POP POP JUMP JUMPDEST PUSH2 0x2254 DUP1 PUSH3 0x129 PUSH1 0x0 CODECOPY PUSH1 0x0 RETURN INVALID PUSH1 0x80 PUSH1 0x40 MSTORE PUSH1 0x4 CALLDATASIZE LT PUSH2 0xFE JUMPI PUSH1 0x0 CALLDATALOAD PUSH1 0xE0 SHR DUP1 PUSH4 0x715018A6 GT PUSH2 0x95 JUMPI DUP1 PUSH4 0xB2BDFA7B GT PUSH2 0x64 JUMPI DUP1 PUSH4 0xB2BDFA7B EQ PUSH2 0x33F JUMPI DUP1 PUSH4 0xB2E6CEEB EQ PUSH2 0x36A JUMPI DUP1 PUSH4 0xD735573D EQ PUSH2 0x393 JUMPI DUP1 PUSH4 0xE172FCA8 EQ PUSH2 0x3D7 JUMPI DUP1 PUSH4 0xF2FDE38B EQ PUSH2 0x400 JUMPI PUSH2 0xFE JUMP JUMPDEST DUP1 PUSH4 0x715018A6 EQ PUSH2 0x297 JUMPI DUP1 PUSH4 0x858B0554 EQ PUSH2 0x2AE JUMPI DUP1 PUSH4 0x8DA5CB5B EQ PUSH2 0x2EB JUMPI DUP1 PUSH4 0xA9059CBB EQ PUSH2 0x316 JUMPI PUSH2 0xFE JUMP JUMPDEST DUP1 PUSH4 0x6352211E GT PUSH2 0xD1 JUMPI DUP1 PUSH4 0x6352211E EQ PUSH2 0x1BD JUMPI DUP1 PUSH4 0x6A7D1816 EQ PUSH2 0x1FA JUMPI DUP1 PUSH4 0x6B6F0494 EQ PUSH2 0x22A JUMPI DUP1 PUSH4 0x70A08231 EQ PUSH2 0x25A JUMPI PUSH2 0xFE JUMP JUMPDEST DUP1 PUSH4 0x95EA7B3 EQ PUSH2 0x103 JUMPI DUP1 PUSH4 0x1BFDC150 EQ PUSH2 0x12C JUMPI DUP1 PUSH4 0x1C6743E4 EQ PUSH2 0x143 JUMPI DUP1 PUSH4 0x2458C544 EQ PUSH2 0x180 JUMPI JUMPDEST PUSH1 0x0 DUP1 REVERT JUMPDEST CALLVALUE DUP1 ISZERO PUSH2 0x10F JUMPI PUSH1 0x0 DUP1 REVERT JUMPDEST POP PUSH2 0x12A PUSH1 0x4 DUP1 CALLDATASIZE SUB DUP2 ADD SWAP1 PUSH2 0x125 SWAP2 SWAP1 PUSH2 0x1799 JUMP JUMPDEST PUSH2 0x429 JUMP JUMPDEST STOP JUMPDEST CALLVALUE DUP1 ISZERO PUSH2 0x138 JUMPI PUSH1 0x0 DUP1 REVERT JUMPDEST POP PUSH2 0x141 PUSH2 0x4EC JUMP JUMPDEST STOP JUMPDEST CALLVALUE DUP1 ISZERO PUSH2 0x14F JUMPI PUSH1 0x0 DUP1 REVERT JUMPDEST POP PUSH2 0x16A PUSH1 0x4 DUP1 CALLDATASIZE SUB DUP2 ADD SWAP1 PUSH2 0x165 SWAP2 SWAP1 PUSH2 0x176C JUMP JUMPDEST PUSH2 0x5B1 JUMP JUMPDEST PUSH1 0x40 MLOAD PUSH2 0x177 SWAP2 SWAP1 PUSH2 0x1C75 JUMP JUMPDEST PUSH1 0x40 MLOAD DUP1 SWAP2 SUB SWAP1 RETURN JUMPDEST CALLVALUE DUP1 ISZERO PUSH2 0x18C JUMPI PUSH1 0x0 DUP1 REVERT JUMPDEST POP PUSH2 0x1A7 PUSH1 0x4 DUP1 CALLDATASIZE SUB DUP2 ADD SWAP1 PUSH2 0x1A2 SWAP2 SWAP1 PUSH2 0x17D9 JUMP JUMPDEST PUSH2 0x5C9 JUMP JUMPDEST PUSH1 0x40 MLOAD PUSH2 0x1B4 SWAP2 SWAP1 PUSH2 0x1C75 JUMP JUMPDEST PUSH1 0x40 MLOAD DUP1 SWAP2 SUB SWAP1 RETURN JUMPDEST CALLVALUE DUP1 ISZERO PUSH2 0x1C9 JUMPI PUSH1 0x0 DUP1 REVERT JUMPDEST POP PUSH2 0x1E4 PUSH1 0x4 DUP1 CALLDATASIZE SUB DUP2 ADD SWAP1 PUSH2 0x1DF SWAP2 SWAP1 PUSH2 0x1880 JUMP JUMPDEST PUSH2 0x8AB JUMP JUMPDEST PUSH1 0x40 MLOAD PUSH2 0x1F1 SWAP2 SWAP1 PUSH2 0x1A96 JUMP JUMPDEST PUSH1 0x40 MLOAD DUP1 SWAP2 SUB SWAP1 RETURN JUMPDEST PUSH2 0x214 PUSH1 0x4 DUP1 CALLDATASIZE SUB DUP2 ADD SWAP1 PUSH2 0x20F SWAP2 SWAP1 PUSH2 0x176C JUMP JUMPDEST PUSH2 0x8E8 JUMP JUMPDEST PUSH1 0x40 MLOAD PUSH2 0x221 SWAP2 SWAP1 PUSH2 0x1B44 JUMP JUMPDEST PUSH1 0x40 MLOAD DUP1 SWAP2 SUB SWAP1 RETURN JUMPDEST PUSH2 0x244 PUSH1 0x4 DUP1 CALLDATASIZE SUB DUP2 ADD SWAP1 PUSH2 0x23F SWAP2 SWAP1 PUSH2 0x1880 JUMP JUMPDEST PUSH2 0xA3D JUMP JUMPDEST PUSH1 0x40 MLOAD PUSH2 0x251 SWAP2 SWAP1 PUSH2 0x1B44 JUMP JUMPDEST PUSH1 0x40 MLOAD DUP1 SWAP2 SUB SWAP1 RETURN JUMPDEST CALLVALUE DUP1 ISZERO PUSH2 0x266 JUMPI PUSH1 0x0 DUP1 REVERT JUMPDEST POP PUSH2 0x281 PUSH1 0x4 DUP1 CALLDATASIZE SUB DUP2 ADD SWAP1 PUSH2 0x27C SWAP2 SWAP1 PUSH2 0x176C JUMP JUMPDEST PUSH2 0xD18 JUMP JUMPDEST PUSH1 0x40 MLOAD PUSH2 0x28E SWAP2 SWAP1 PUSH2 0x1C75 JUMP JUMPDEST PUSH1 0x40 MLOAD DUP1 SWAP2 SUB SWAP1 RETURN JUMPDEST CALLVALUE DUP1 ISZERO PUSH2 0x2A3 JUMPI PUSH1 0x0 DUP1 REVERT JUMPDEST POP PUSH2 0x2AC PUSH2 0xD61 JUMP JUMPDEST STOP JUMPDEST CALLVALUE DUP1 ISZERO PUSH2 0x2BA JUMPI PUSH1 0x0 DUP1 REVERT JUMPDEST POP PUSH2 0x2D5 PUSH1 0x4 DUP1 CALLDATASIZE SUB DUP2 ADD SWAP1 PUSH2 0x2D0 SWAP2 SWAP1 PUSH2 0x1880 JUMP JUMPDEST PUSH2 0xDE9 JUMP JUMPDEST PUSH1 0x40 MLOAD PUSH2 0x2E2 SWAP2 SWAP1 PUSH2 0x1A96 JUMP JUMPDEST PUSH1 0x40 MLOAD DUP1 SWAP2 SUB SWAP1 RETURN JUMPDEST CALLVALUE DUP1 ISZERO PUSH2 0x2F7 JUMPI PUSH1 0x0 DUP1 REVERT JUMPDEST POP PUSH2 0x300 PUSH2 0xE1C JUMP JUMPDEST PUSH1 0x40 MLOAD PUSH2 0x30D SWAP2 SWAP1 PUSH2 0x1A96 JUMP JUMPDEST PUSH1 0x40 MLOAD DUP1 SWAP2 SUB SWAP1 RETURN JUMPDEST CALLVALUE DUP1 ISZERO PUSH2 0x322 JUMPI PUSH1 0x0 DUP1 REVERT JUMPDEST POP PUSH2 0x33D PUSH1 0x4 DUP1 CALLDATASIZE SUB DUP2 ADD SWAP1 PUSH2 0x338 SWAP2 SWAP1 PUSH2 0x1799 JUMP JUMPDEST PUSH2 0xE45 JUMP JUMPDEST STOP JUMPDEST CALLVALUE DUP1 ISZERO PUSH2 0x34B JUMPI PUSH1 0x0 DUP1 REVERT JUMPDEST POP PUSH2 0x354 PUSH2 0xEC1 JUMP JUMPDEST PUSH1 0x40 MLOAD PUSH2 0x361 SWAP2 SWAP1 PUSH2 0x1A96 JUMP JUMPDEST PUSH1 0x40 MLOAD DUP1 SWAP2 SUB SWAP1 RETURN JUMPDEST CALLVALUE DUP1 ISZERO PUSH2 0x376 JUMPI PUSH1 0x0 DUP1 REVERT JUMPDEST POP PUSH2 0x391 PUSH1 0x4 DUP1 CALLDATASIZE SUB DUP2 ADD SWAP1 PUSH2 0x38C SWAP2 SWAP1 PUSH2 0x1880 JUMP JUMPDEST PUSH2 0xEE5 JUMP JUMPDEST STOP JUMPDEST CALLVALUE DUP1 ISZERO PUSH2 0x39F JUMPI PUSH1 0x0 DUP1 REVERT JUMPDEST POP PUSH2 0x3BA PUSH1 0x4 DUP1 CALLDATASIZE SUB DUP2 ADD SWAP1 PUSH2 0x3B5 SWAP2 SWAP1 PUSH2 0x1880 JUMP JUMPDEST PUSH2 0xEE8 JUMP JUMPDEST PUSH1 0x40 MLOAD PUSH2 0x3CE SWAP9 SWAP8 SWAP7 SWAP6 SWAP5 SWAP4 SWAP3 SWAP2 SWAP1 PUSH2 0x1AB1 JUMP JUMPDEST PUSH1 0x40 MLOAD DUP1 SWAP2 SUB SWAP1 RETURN JUMPDEST CALLVALUE DUP1 ISZERO PUSH2 0x3E3 JUMPI PUSH1 0x0 DUP1 REVERT JUMPDEST POP PUSH2 0x3FE PUSH1 0x4 DUP1 CALLDATASIZE SUB DUP2 ADD SWAP1 PUSH2 0x3F9 SWAP2 SWAP1 PUSH2 0x176C JUMP JUMPDEST PUSH2 0x1108 JUMP JUMPDEST STOP JUMPDEST CALLVALUE DUP1 ISZERO PUSH2 0x40C JUMPI PUSH1 0x0 DUP1 REVERT JUMPDEST POP PUSH2 0x427 PUSH1 0x4 DUP1 CALLDATASIZE SUB DUP2 ADD SWAP1 PUSH2 0x422 SWAP2 SWAP1 PUSH2 0x176C JUMP JUMPDEST PUSH2 0x1288 JUMP JUMPDEST STOP JUMPDEST DUP1 PUSH1 0x6 PUSH1 0x0 DUP3 DUP2 MSTORE PUSH1 0x20 ADD SWAP1 DUP2 MSTORE PUSH1 0x20 ADD PUSH1 0x0 KECCAK256 PUSH1 0x0 SWAP1 SLOAD SWAP1 PUSH2 0x100 EXP SWAP1 DIV PUSH20 0xFFFFFFFFFFFFFFFFFFFFFFFFFFFFFFFFFFFFFFFF AND PUSH20 0xFFFFFFFFFFFFFFFFFFFFFFFFFFFFFFFFFFFFFFFF AND CALLER PUSH20 0xFFFFFFFFFFFFFFFFFFFFFFFFFFFFFFFFFFFFFFFF AND EQ PUSH2 0x495 JUMPI PUSH1 0x0 DUP1 REVERT JUMPDEST DUP3 PUSH1 0x8 PUSH1 0x0 DUP5 DUP2 MSTORE PUSH1 0x20 ADD SWAP1 DUP2 MSTORE PUSH1 0x20 ADD PUSH1 0x0 KECCAK256 PUSH1 0x0 PUSH2 0x100 EXP DUP2 SLOAD DUP2 PUSH20 0xFFFFFFFFFFFFFFFFFFFFFFFFFFFFFFFFFFFFFFFF MUL NOT AND SWAP1 DUP4 PUSH20 0xFFFFFFFFFFFFFFFFFFFFFFFFFFFFFFFFFFFFFFFF AND MUL OR SWAP1 SSTORE POP POP POP POP JUMP JUMPDEST PUSH2 0x4F4 PUSH2 0x1380 JUMP JUMPDEST PUSH20 0xFFFFFFFFFFFFFFFFFFFFFFFFFFFFFFFFFFFFFFFF AND PUSH2 0x512 PUSH2 0xE1C JUMP JUMPDEST PUSH20 0xFFFFFFFFFFFFFFFFFFFFFFFFFFFFFFFFFFFFFFFF AND EQ PUSH2 0x568 JUMPI PUSH1 0x40 MLOAD PUSH32 0x8C379A000000000000000000000000000000000000000000000000000000000 DUP2 MSTORE PUSH1 0x4 ADD PUSH2 0x55F SWAP1 PUSH2 0x1C27 JUMP JUMPDEST PUSH1 0x40 MLOAD DUP1 SWAP2 SUB SWAP1 REVERT JUMPDEST CALLER PUSH20 0xFFFFFFFFFFFFFFFFFFFFFFFFFFFFFFFFFFFFFFFF AND PUSH2 0x8FC SELFBALANCE SWAP1 DUP2 ISZERO MUL SWAP1 PUSH1 0x40 MLOAD PUSH1 0x0 PUSH1 0x40 MLOAD DUP1 DUP4 SUB DUP2 DUP6 DUP9 DUP9 CALL SWAP4 POP POP POP POP ISZERO DUP1 ISZERO PUSH2 0x5AE JUMPI RETURNDATASIZE PUSH1 0x0 DUP1 RETURNDATACOPY RETURNDATASIZE PUSH1 0x0 REVERT JUMPDEST POP JUMP JUMPDEST PUSH1 0x7 PUSH1 0x20 MSTORE DUP1 PUSH1 0x0 MSTORE PUSH1 0x40 PUSH1 0x0 KECCAK256 PUSH1 0x0 SWAP2 POP SWAP1 POP SLOAD DUP2 JUMP JUMPDEST PUSH1 0x0 PUSH1 0x1 PUSH1 0x7 PUSH1 0x0 CALLER PUSH20 0xFFFFFFFFFFFFFFFFFFFFFFFFFFFFFFFFFFFFFFFF AND PUSH20 0xFFFFFFFFFFFFFFFFFFFFFFFFFFFFFFFFFFFFFFFF AND DUP2 MSTORE PUSH1 0x20 ADD SWAP1 DUP2 MSTORE PUSH1 0x20 ADD PUSH1 0x0 KECCAK256 SLOAD LT PUSH2 0x64D JUMPI PUSH1 0x40 MLOAD PUSH32 0x8C379A000000000000000000000000000000000000000000000000000000000 DUP2 MSTORE PUSH1 0x4 ADD PUSH2 0x644 SWAP1 PUSH2 0x1BB9 JUMP JUMPDEST PUSH1 0x40 MLOAD DUP1 SWAP2 SUB SWAP1 REVERT JUMPDEST PUSH1 0x5 PUSH1 0x40 MLOAD DUP1 PUSH2 0x100 ADD PUSH1 0x40 MSTORE DUP1 CALLER PUSH20 0xFFFFFFFFFFFFFFFFFFFFFFFFFFFFFFFFFFFFFFFF AND DUP2 MSTORE PUSH1 0x20 ADD DUP7 DUP2 MSTORE PUSH1 0x20 ADD DUP6 DUP2 MSTORE PUSH1 0x20 ADD DUP5 DUP2 MSTORE PUSH1 0x20 ADD PUSH1 0x0 DUP2 MSTORE PUSH1 0x20 ADD PUSH1 0x0 DUP2 MSTORE PUSH1 0x20 ADD PUSH1 0x3 SLOAD TIMESTAMP PUSH2 0x6A5 SWAP2 SWAP1 PUSH2 0x1D17 JUMP JUMPDEST PUSH4 0xFFFFFFFF AND DUP2 MSTORE PUSH1 0x20 ADD PUSH1 0x0 PUSH4 0xFFFFFFFF AND DUP2 MSTORE POP SWAP1 DUP1 PUSH1 0x1 DUP2 SLOAD ADD DUP1 DUP3 SSTORE DUP1 SWAP2 POP POP PUSH1 0x1 SWAP1 SUB SWAP1 PUSH1 0x0 MSTORE PUSH1 0x20 PUSH1 0x0 KECCAK256 SWAP1 PUSH1 0x8 MUL ADD PUSH1 0x0 SWAP1 SWAP2 SWAP1 SWAP2 SWAP1 SWAP2 POP PUSH1 0x0 DUP3 ADD MLOAD DUP2 PUSH1 0x0 ADD PUSH1 0x0 PUSH2 0x100 EXP DUP2 SLOAD DUP2 PUSH20 0xFFFFFFFFFFFFFFFFFFFFFFFFFFFFFFFFFFFFFFFF MUL NOT AND SWAP1 DUP4 PUSH20 0xFFFFFFFFFFFFFFFFFFFFFFFFFFFFFFFFFFFFFFFF AND MUL OR SWAP1 SSTORE POP PUSH1 0x20 DUP3 ADD MLOAD DUP2 PUSH1 0x1 ADD SWAP1 DUP1 MLOAD SWAP1 PUSH1 0x20 ADD SWAP1 PUSH2 0x747 SWAP3 SWAP2 SWAP1 PUSH2 0x162F JUMP JUMPDEST POP PUSH1 0x40 DUP3 ADD MLOAD DUP2 PUSH1 0x2 ADD SWAP1 DUP1 MLOAD SWAP1 PUSH1 0x20 ADD SWAP1 PUSH2 0x764 SWAP3 SWAP2 SWAP1 PUSH2 0x162F JUMP JUMPDEST POP PUSH1 0x60 DUP3 ADD MLOAD DUP2 PUSH1 0x3 ADD SWAP1 DUP1 MLOAD SWAP1 PUSH1 0x20 ADD SWAP1 PUSH2 0x781 SWAP3 SWAP2 SWAP1 PUSH2 0x162F JUMP JUMPDEST POP PUSH1 0x80 DUP3 ADD MLOAD DUP2 PUSH1 0x4 ADD SSTORE PUSH1 0xA0 DUP3 ADD MLOAD DUP2 PUSH1 0x5 ADD SSTORE PUSH1 0xC0 DUP3 ADD MLOAD DUP2 PUSH1 0x6 ADD SSTORE PUSH1 0xE0 DUP3 ADD MLOAD DUP2 PUSH1 0x7 ADD PUSH1 0x0 PUSH2 0x100 EXP DUP2 SLOAD DUP2 PUSH4 0xFFFFFFFF MUL NOT AND SWAP1 DUP4 PUSH4 0xFFFFFFFF AND MUL OR SWAP1 SSTORE POP POP POP PUSH1 0x0 PUSH1 0x5 DUP1 SLOAD SWAP1 POP SWAP1 POP CALLER PUSH1 0x6 PUSH1 0x0 DUP4 DUP2 MSTORE PUSH1 0x20 ADD SWAP1 DUP2 MSTORE PUSH1 0x20 ADD PUSH1 0x0 KECCAK256 PUSH1 0x0 PUSH2 0x100 EXP DUP2 SLOAD DUP2 PUSH20 0xFFFFFFFFFFFFFFFFFFFFFFFFFFFFFFFFFFFFFFFF MUL NOT AND SWAP1 DUP4 PUSH20 0xFFFFFFFFFFFFFFFFFFFFFFFFFFFFFFFFFFFFFFFF AND MUL OR SWAP1 SSTORE POP PUSH1 0x7 PUSH1 0x0 CALLER PUSH20 0xFFFFFFFFFFFFFFFFFFFFFFFFFFFFFFFFFFFFFFFF AND PUSH20 0xFFFFFFFFFFFFFFFFFFFFFFFFFFFFFFFFFFFFFFFF AND DUP2 MSTORE PUSH1 0x20 ADD SWAP1 DUP2 MSTORE PUSH1 0x20 ADD PUSH1 0x0 KECCAK256 PUSH1 0x0 DUP2 SLOAD DUP1 SWAP3 SWAP2 SWAP1 PUSH2 0x875 SWAP1 PUSH2 0x1F16 JUMP JUMPDEST SWAP2 SWAP1 POP SSTORE POP PUSH1 0x2 PUSH1 0x0 DUP2 SLOAD DUP1 SWAP3 SWAP2 SWAP1 PUSH2 0x88D SWAP1 PUSH2 0x1F16 JUMP JUMPDEST SWAP2 SWAP1 POP SSTORE POP PUSH1 0x1 PUSH1 0x2 SLOAD PUSH2 0x8A1 SWAP2 SWAP1 PUSH2 0x1DC7 JUMP JUMPDEST SWAP2 POP POP SWAP4 SWAP3 POP POP POP JUMP JUMPDEST PUSH1 0x0 PUSH1 0x6 PUSH1 0x0 DUP4 DUP2 MSTORE PUSH1 0x20 ADD SWAP1 DUP2 MSTORE PUSH1 0x20 ADD PUSH1 0x0 KECCAK256 PUSH1 0x0 SWAP1 SLOAD SWAP1 PUSH2 0x100 EXP SWAP1 DIV PUSH20 0xFFFFFFFFFFFFFFFFFFFFFFFFFFFFFFFFFFFFFFFF AND SWAP1 POP SWAP2 SWAP1 POP JUMP JUMPDEST PUSH1 0x60 PUSH1 0x4 SLOAD CALLVALUE EQ PUSH2 0x8F8 JUMPI PUSH1 0x0 DUP1 REVERT JUMPDEST PUSH1 0x0 JUMPDEST PUSH1 0x5 DUP1 SLOAD SWAP1 POP DUP2 LT ISZERO PUSH2 0xA36 JUMPI DUP3 PUSH20 0xFFFFFFFFFFFFFFFFFFFFFFFFFFFFFFFFFFFFFFFF AND PUSH1 0x5 DUP3 DUP2 SLOAD DUP2 LT PUSH2 0x933 JUMPI PUSH2 0x932 PUSH2 0x2054 JUMP JUMPDEST JUMPDEST SWAP1 PUSH1 0x0 MSTORE PUSH1 0x20 PUSH1 0x0 KECCAK256 SWAP1 PUSH1 0x8 MUL ADD PUSH1 0x0 ADD PUSH1 0x0 SWAP1 SLOAD SWAP1 PUSH2 0x100 EXP SWAP1 DIV PUSH20 0xFFFFFFFFFFFFFFFFFFFFFFFFFFFFFFFFFFFFFFFF AND PUSH20 0xFFFFFFFFFFFFFFFFFFFFFFFFFFFFFFFFFFFFFFFF AND EQ ISZERO PUSH2 0xA23 JUMPI PUSH1 0x5 DUP2 DUP2 SLOAD DUP2 LT PUSH2 0x995 JUMPI PUSH2 0x994 PUSH2 0x2054 JUMP JUMPDEST JUMPDEST SWAP1 PUSH1 0x0 MSTORE PUSH1 0x20 PUSH1 0x0 KECCAK256 SWAP1 PUSH1 0x8 MUL ADD PUSH1 0x7 ADD PUSH1 0x0 DUP2 DUP2 SWAP1 SLOAD SWAP1 PUSH2 0x100 EXP SWAP1 DIV PUSH4 0xFFFFFFFF AND DUP1 SWAP3 SWAP2 SWAP1 PUSH2 0x9C6 SWAP1 PUSH2 0x1F5F JUMP JUMPDEST SWAP2 SWAP1 PUSH2 0x100 EXP DUP2 SLOAD DUP2 PUSH4 0xFFFFFFFF MUL NOT AND SWAP1 DUP4 PUSH4 0xFFFFFFFF AND MUL OR SWAP1 SSTORE POP POP PUSH1 0x40 MLOAD DUP1 PUSH1 0x40 ADD PUSH1 0x40 MSTORE DUP1 PUSH1 0x12 DUP2 MSTORE PUSH1 0x20 ADD PUSH32 0x48612073756269646F206465206E6976656C0000000000000000000000000000 DUP2 MSTORE POP SWAP2 POP POP PUSH2 0xA38 JUMP JUMPDEST DUP1 DUP1 PUSH2 0xA2E SWAP1 PUSH2 0x1F16 JUMP JUMPDEST SWAP2 POP POP PUSH2 0x8FB JUMP JUMPDEST POP JUMPDEST SWAP2 SWAP1 POP JUMP JUMPDEST PUSH1 0x60 DUP2 CALLVALUE EQ PUSH2 0xA4B JUMPI PUSH1 0x0 DUP1 REVERT JUMPDEST PUSH1 0x1 PUSH1 0x0 DUP2 SLOAD DUP1 SWAP3 SWAP2 SWAP1 PUSH2 0xA5E SWAP1 PUSH2 0x1F16 JUMP JUMPDEST SWAP2 SWAP1 POP SSTORE POP PUSH1 0x0 PUSH1 0x5 DUP1 SLOAD SWAP1 POP TIMESTAMP PUSH1 0x5 DUP1 SLOAD SWAP1 POP PUSH1 0x1 SLOAD PUSH1 0x40 MLOAD PUSH1 0x20 ADD PUSH2 0xA87 SWAP4 SWAP3 SWAP2 SWAP1 PUSH2 0x1A59 JUMP JUMPDEST PUSH1 0x40 MLOAD PUSH1 0x20 DUP2 DUP4 SUB SUB DUP2 MSTORE SWAP1 PUSH1 0x40 MSTORE DUP1 MLOAD SWAP1 PUSH1 0x20 ADD KECCAK256 PUSH1 0x0 SHR PUSH2 0xAAA SWAP2 SWAP1 PUSH2 0x1F96 JUMP JUMPDEST SWAP1 POP PUSH1 0x1 PUSH1 0x0 DUP2 SLOAD DUP1 SWAP3 SWAP2 SWAP1 PUSH2 0xABF SWAP1 PUSH2 0x1F16 JUMP JUMPDEST SWAP2 SWAP1 POP SSTORE POP PUSH1 0x0 PUSH1 0x2 SWAP1 POP PUSH1 0x0 DUP2 TIMESTAMP DUP4 PUSH1 0x1 SLOAD PUSH1 0x40 MLOAD PUSH1 0x20 ADD PUSH2 0xAE4 SWAP4 SWAP3 SWAP2 SWAP1 PUSH2 0x1A59 JUMP JUMPDEST PUSH1 0x40 MLOAD PUSH1 0x20 DUP2 DUP4 SUB SUB DUP2 MSTORE SWAP1 PUSH1 0x40 MSTORE DUP1 MLOAD SWAP1 PUSH1 0x20 ADD KECCAK256 PUSH1 0x0 SHR PUSH2 0xB07 SWAP2 SWAP1 PUSH2 0x1F96 JUMP JUMPDEST SWAP1 POP PUSH1 0x0 JUMPDEST PUSH1 0x5 DUP1 SLOAD SWAP1 POP DUP2 LT ISZERO PUSH2 0xD0E JUMPI PUSH1 0x5 DUP2 DUP2 SLOAD DUP2 LT PUSH2 0xB2D JUMPI PUSH2 0xB2C PUSH2 0x2054 JUMP JUMPDEST JUMPDEST SWAP1 PUSH1 0x0 MSTORE PUSH1 0x20 PUSH1 0x0 KECCAK256 SWAP1 PUSH1 0x8 MUL ADD PUSH1 0x0 ADD PUSH1 0x0 SWAP1 SLOAD SWAP1 PUSH2 0x100 EXP SWAP1 DIV PUSH20 0xFFFFFFFFFFFFFFFFFFFFFFFFFFFFFFFFFFFFFFFF AND PUSH20 0xFFFFFFFFFFFFFFFFFFFFFFFFFFFFFFFFFFFFFFFF AND CALLER PUSH20 0xFFFFFFFFFFFFFFFFFFFFFFFFFFFFFFFFFFFFFFFF AND EQ ISZERO PUSH2 0xCFB JUMPI PUSH1 0x0 DUP3 EQ ISZERO PUSH2 0xC83 JUMPI PUSH2 0xBA3 PUSH2 0x1388 JUMP JUMPDEST PUSH1 0x5 DUP2 DUP2 SLOAD DUP2 LT PUSH2 0xBB7 JUMPI PUSH2 0xBB6 PUSH2 0x2054 JUMP JUMPDEST JUMPDEST SWAP1 PUSH1 0x0 MSTORE PUSH1 0x20 PUSH1 0x0 KECCAK256 SWAP1 PUSH1 0x8 MUL ADD PUSH1 0x4 ADD PUSH1 0x0 DUP2 SLOAD DUP1 SWAP3 SWAP2 SWAP1 PUSH2 0xBD9 SWAP1 PUSH2 0x1F16 JUMP JUMPDEST SWAP2 SWAP1 POP SSTORE POP PUSH1 0x5 DUP2 DUP2 SLOAD DUP2 LT PUSH2 0xBF2 JUMPI PUSH2 0xBF1 PUSH2 0x2054 JUMP JUMPDEST JUMPDEST SWAP1 PUSH1 0x0 MSTORE PUSH1 0x20 PUSH1 0x0 KECCAK256 SWAP1 PUSH1 0x8 MUL ADD PUSH1 0x7 ADD PUSH1 0x0 DUP2 DUP2 SWAP1 SLOAD SWAP1 PUSH2 0x100 EXP SWAP1 DIV PUSH4 0xFFFFFFFF AND DUP1 SWAP3 SWAP2 SWAP1 PUSH2 0xC23 SWAP1 PUSH2 0x1F5F JUMP JUMPDEST SWAP2 SWAP1 PUSH2 0x100 EXP DUP2 SLOAD DUP2 PUSH4 0xFFFFFFFF MUL NOT AND SWAP1 DUP4 PUSH4 0xFFFFFFFF AND MUL OR SWAP1 SSTORE POP POP PUSH1 0x40 MLOAD DUP1 PUSH1 0x40 ADD PUSH1 0x40 MSTORE DUP1 PUSH1 0xA DUP2 MSTORE PUSH1 0x20 ADD PUSH32 0x4861732067616E61646F00000000000000000000000000000000000000000000 DUP2 MSTORE POP SWAP5 POP POP POP POP POP PUSH2 0xD13 JUMP JUMPDEST PUSH32 0xA28482EEC3136A2461C6C30C08F71BA279C6C51A2D9C7BEA4E50D6D2632F3896 DUP5 PUSH1 0x40 MLOAD PUSH2 0xCB2 SWAP2 SWAP1 PUSH2 0x1C47 JUMP JUMPDEST PUSH1 0x40 MLOAD DUP1 SWAP2 SUB SWAP1 LOG1 PUSH1 0x40 MLOAD DUP1 PUSH1 0x40 ADD PUSH1 0x40 MSTORE DUP1 PUSH1 0xB DUP2 MSTORE PUSH1 0x20 ADD PUSH32 0x486173207065726469646F000000000000000000000000000000000000000000 DUP2 MSTORE POP SWAP5 POP POP POP POP POP PUSH2 0xD13 JUMP JUMPDEST DUP1 DUP1 PUSH2 0xD06 SWAP1 PUSH2 0x1F16 JUMP JUMPDEST SWAP2 POP POP PUSH2 0xB0C JUMP JUMPDEST POP POP POP POP JUMPDEST SWAP2 SWAP1 POP JUMP JUMPDEST PUSH1 0x0 PUSH1 0x7 PUSH1 0x0 DUP4 PUSH20 0xFFFFFFFFFFFFFFFFFFFFFFFFFFFFFFFFFFFFFFFF AND PUSH20 0xFFFFFFFFFFFFFFFFFFFFFFFFFFFFFFFFFFFFFFFF AND DUP2 MSTORE PUSH1 0x20 ADD SWAP1 DUP2 MSTORE PUSH1 0x20 ADD PUSH1 0x0 KECCAK256 SLOAD SWAP1 POP SWAP2 SWAP1 POP JUMP JUMPDEST PUSH2 0xD69 PUSH2 0x1380 JUMP JUMPDEST PUSH20 0xFFFFFFFFFFFFFFFFFFFFFFFFFFFFFFFFFFFFFFFF AND PUSH2 0xD87 PUSH2 0xE1C JUMP JUMPDEST PUSH20 0xFFFFFFFFFFFFFFFFFFFFFFFFFFFFFFFFFFFFFFFF AND EQ PUSH2 0xDDD JUMPI PUSH1 0x40 MLOAD PUSH32 0x8C379A000000000000000000000000000000000000000000000000000000000 DUP2 MSTORE PUSH1 0x4 ADD PUSH2 0xDD4 SWAP1 PUSH2 0x1C27 JUMP JUMPDEST PUSH1 0x40 MLOAD DUP1 SWAP2 SUB SWAP1 REVERT JUMPDEST PUSH2 0xDE7 PUSH1 0x0 PUSH2 0x1420 JUMP JUMPDEST JUMP JUMPDEST PUSH1 0x6 PUSH1 0x20 MSTORE DUP1 PUSH1 0x0 MSTORE PUSH1 0x40 PUSH1 0x0 KECCAK256 PUSH1 0x0 SWAP2 POP SLOAD SWAP1 PUSH2 0x100 EXP SWAP1 DIV PUSH20 0xFFFFFFFFFFFFFFFFFFFFFFFFFFFFFFFFFFFFFFFF AND DUP2 JUMP JUMPDEST PUSH1 0x0 DUP1 PUSH1 0x0 SWAP1 SLOAD SWAP1 PUSH2 0x100 EXP SWAP1 DIV PUSH20 0xFFFFFFFFFFFFFFFFFFFFFFFFFFFFFFFFFFFFFFFF AND SWAP1 POP SWAP1 JUMP JUMPDEST DUP1 PUSH1 0x6 PUSH1 0x0 DUP3 DUP2 MSTORE PUSH1 0x20 ADD SWAP1 DUP2 MSTORE PUSH1 0x20 ADD PUSH1 0x0 KECCAK256 PUSH1 0x0 SWAP1 SLOAD SWAP1 PUSH2 0x100 EXP SWAP1 DIV PUSH20 0xFFFFFFFFFFFFFFFFFFFFFFFFFFFFFFFFFFFFFFFF AND PUSH20 0xFFFFFFFFFFFFFFFFFFFFFFFFFFFFFFFFFFFFFFFF AND CALLER PUSH20 0xFFFFFFFFFFFFFFFFFFFFFFFFFFFFFFFFFFFFFFFF AND EQ PUSH2 0xEB1 JUMPI PUSH1 0x0 DUP1 REVERT JUMPDEST PUSH2 0xEBC CALLER DUP5 DUP5 PUSH2 0x14E4 JUMP JUMPDEST POP POP POP JUMP JUMPDEST PUSH1 0x0 DUP1 SLOAD SWAP1 PUSH2 0x100 EXP SWAP1 DIV PUSH20 0xFFFFFFFFFFFFFFFFFFFFFFFFFFFFFFFFFFFFFFFF AND DUP2 JUMP JUMPDEST POP JUMP JUMPDEST PUSH1 0x5 DUP2 DUP2 SLOAD DUP2 LT PUSH2 0xEF8 JUMPI PUSH1 0x0 DUP1 REVERT JUMPDEST SWAP1 PUSH1 0x0 MSTORE PUSH1 0x20 PUSH1 0x0 KECCAK256 SWAP1 PUSH1 0x8 MUL ADD PUSH1 0x0 SWAP2 POP SWAP1 POP DUP1 PUSH1 0x0 ADD PUSH1 0x0 SWAP1 SLOAD SWAP1 PUSH2 0x100 EXP SWAP1 DIV PUSH20 0xFFFFFFFFFFFFFFFFFFFFFFFFFFFFFFFFFFFFFFFF AND SWAP1 DUP1 PUSH1 0x1 ADD DUP1 SLOAD PUSH2 0xF41 SWAP1 PUSH2 0x1EB3 JUMP JUMPDEST DUP1 PUSH1 0x1F ADD PUSH1 0x20 DUP1 SWAP2 DIV MUL PUSH1 0x20 ADD PUSH1 0x40 MLOAD SWAP1 DUP2 ADD PUSH1 0x40 MSTORE DUP1 SWAP3 SWAP2 SWAP1 DUP2 DUP2 MSTORE PUSH1 0x20 ADD DUP3 DUP1 SLOAD PUSH2 0xF6D SWAP1 PUSH2 0x1EB3 JUMP JUMPDEST DUP1 ISZERO PUSH2 0xFBA JUMPI DUP1 PUSH1 0x1F LT PUSH2 0xF8F JUMPI PUSH2 0x100 DUP1 DUP4 SLOAD DIV MUL DUP4 MSTORE SWAP2 PUSH1 0x20 ADD SWAP2 PUSH2 0xFBA JUMP JUMPDEST DUP3 ADD SWAP2 SWAP1 PUSH1 0x0 MSTORE PUSH1 0x20 PUSH1 0x0 KECCAK256 SWAP1 JUMPDEST DUP2 SLOAD DUP2 MSTORE SWAP1 PUSH1 0x1 ADD SWAP1 PUSH1 0x20 ADD DUP1 DUP4 GT PUSH2 0xF9D JUMPI DUP3 SWAP1 SUB PUSH1 0x1F AND DUP3 ADD SWAP2 JUMPDEST POP POP POP POP POP SWAP1 DUP1 PUSH1 0x2 ADD DUP1 SLOAD PUSH2 0xFCF SWAP1 PUSH2 0x1EB3 JUMP JUMPDEST DUP1 PUSH1 0x1F ADD PUSH1 0x20 DUP1 SWAP2 DIV MUL PUSH1 0x20 ADD PUSH1 0x40 MLOAD SWAP1 DUP2 ADD PUSH1 0x40 MSTORE DUP1 SWAP3 SWAP2 SWAP1 DUP2 DUP2 MSTORE PUSH1 0x20 ADD DUP3 DUP1 SLOAD PUSH2 0xFFB SWAP1 PUSH2 0x1EB3 JUMP JUMPDEST DUP1 ISZERO PUSH2 0x1048 JUMPI DUP1 PUSH1 0x1F LT PUSH2 0x101D JUMPI PUSH2 0x100 DUP1 DUP4 SLOAD DIV MUL DUP4 MSTORE SWAP2 PUSH1 0x20 ADD SWAP2 PUSH2 0x1048 JUMP JUMPDEST DUP3 ADD SWAP2 SWAP1 PUSH1 0x0 MSTORE PUSH1 0x20 PUSH1 0x0 KECCAK256 SWAP1 JUMPDEST DUP2 SLOAD DUP2 MSTORE SWAP1 PUSH1 0x1 ADD SWAP1 PUSH1 0x20 ADD DUP1 DUP4 GT PUSH2 0x102B JUMPI DUP3 SWAP1 SUB PUSH1 0x1F AND DUP3 ADD SWAP2 JUMPDEST POP POP POP POP POP SWAP1 DUP1 PUSH1 0x3 ADD DUP1 SLOAD PUSH2 0x105D SWAP1 PUSH2 0x1EB3 JUMP JUMPDEST DUP1 PUSH1 0x1F ADD PUSH1 0x20 DUP1 SWAP2 DIV MUL PUSH1 0x20 ADD PUSH1 0x40 MLOAD SWAP1 DUP2 ADD PUSH1 0x40 MSTORE DUP1 SWAP3 SWAP2 SWAP1 DUP2 DUP2 MSTORE PUSH1 0x20 ADD DUP3 DUP1 SLOAD PUSH2 0x1089 SWAP1 PUSH2 0x1EB3 JUMP JUMPDEST DUP1 ISZERO PUSH2 0x10D6 JUMPI DUP1 PUSH1 0x1F LT PUSH2 0x10AB JUMPI PUSH2 0x100 DUP1 DUP4 SLOAD DIV MUL DUP4 MSTORE SWAP2 PUSH1 0x20 ADD SWAP2 PUSH2 0x10D6 JUMP JUMPDEST DUP3 ADD SWAP2 SWAP1 PUSH1 0x0 MSTORE PUSH1 0x20 PUSH1 0x0 KECCAK256 SWAP1 JUMPDEST DUP2 SLOAD DUP2 MSTORE SWAP1 PUSH1 0x1 ADD SWAP1 PUSH1 0x20 ADD DUP1 DUP4 GT PUSH2 0x10B9 JUMPI DUP3 SWAP1 SUB PUSH1 0x1F AND DUP3 ADD SWAP2 JUMPDEST POP POP POP POP POP SWAP1 DUP1 PUSH1 0x4 ADD SLOAD SWAP1 DUP1 PUSH1 0x5 ADD SLOAD SWAP1 DUP1 PUSH1 0x6 ADD SLOAD SWAP1 DUP1 PUSH1 0x7 ADD PUSH1 0x0 SWAP1 SLOAD SWAP1 PUSH2 0x100 EXP SWAP1 DIV PUSH4 0xFFFFFFFF AND SWAP1 POP DUP9 JUMP JUMPDEST PUSH1 0x0 JUMPDEST PUSH1 0x5 DUP1 SLOAD SWAP1 POP DUP2 LT ISZERO PUSH2 0x1284 JUMPI DUP2 PUSH20 0xFFFFFFFFFFFFFFFFFFFFFFFFFFFFFFFFFFFFFFFF AND PUSH1 0x5 DUP3 DUP2 SLOAD DUP2 LT PUSH2 0x1143 JUMPI PUSH2 0x1142 PUSH2 0x2054 JUMP JUMPDEST JUMPDEST SWAP1 PUSH1 0x0 MSTORE PUSH1 0x20 PUSH1 0x0 KECCAK256 SWAP1 PUSH1 0x8 MUL ADD PUSH1 0x0 ADD PUSH1 0x0 SWAP1 SLOAD SWAP1 PUSH2 0x100 EXP SWAP1 DIV PUSH20 0xFFFFFFFFFFFFFFFFFFFFFFFFFFFFFFFFFFFFFFFF AND PUSH20 0xFFFFFFFFFFFFFFFFFFFFFFFFFFFFFFFFFFFFFFFF AND EQ ISZERO PUSH2 0x1271 JUMPI PUSH32 0x18C2885DBBFFC4E127DA047B869295B42D8D5EE97848F7F117B062E88F34A9E6 PUSH1 0x5 DUP3 DUP2 SLOAD DUP2 LT PUSH2 0x11C6 JUMPI PUSH2 0x11C5 PUSH2 0x2054 JUMP JUMPDEST JUMPDEST SWAP1 PUSH1 0x0 MSTORE PUSH1 0x20 PUSH1 0x0 KECCAK256 SWAP1 PUSH1 0x8 MUL ADD PUSH1 0x2 ADD PUSH1 0x5 DUP4 DUP2 SLOAD DUP2 LT PUSH2 0x11EB JUMPI PUSH2 0x11EA PUSH2 0x2054 JUMP JUMPDEST JUMPDEST SWAP1 PUSH1 0x0 MSTORE PUSH1 0x20 PUSH1 0x0 KECCAK256 SWAP1 PUSH1 0x8 MUL ADD PUSH1 0x1 ADD PUSH1 0x5 DUP5 DUP2 SLOAD DUP2 LT PUSH2 0x1210 JUMPI PUSH2 0x120F PUSH2 0x2054 JUMP JUMPDEST JUMPDEST SWAP1 PUSH1 0x0 MSTORE PUSH1 0x20 PUSH1 0x0 KECCAK256 SWAP1 PUSH1 0x8 MUL ADD PUSH1 0x7 ADD PUSH1 0x0 SWAP1 SLOAD SWAP1 PUSH2 0x100 EXP SWAP1 DIV PUSH4 0xFFFFFFFF AND PUSH1 0x5 DUP6 DUP2 SLOAD DUP2 LT PUSH2 0x1246 JUMPI PUSH2 0x1245 PUSH2 0x2054 JUMP JUMPDEST JUMPDEST SWAP1 PUSH1 0x0 MSTORE PUSH1 0x20 PUSH1 0x0 KECCAK256 SWAP1 PUSH1 0x8 MUL ADD PUSH1 0x4 ADD SLOAD PUSH1 0x40 MLOAD PUSH2 0x1268 SWAP5 SWAP4 SWAP3 SWAP2 SWAP1 PUSH2 0x1B66 JUMP JUMPDEST PUSH1 0x40 MLOAD DUP1 SWAP2 SUB SWAP1 LOG1 JUMPDEST DUP1 DUP1 PUSH2 0x127C SWAP1 PUSH2 0x1F16 JUMP JUMPDEST SWAP2 POP POP PUSH2 0x110B JUMP JUMPDEST POP POP JUMP JUMPDEST PUSH2 0x1290 PUSH2 0x1380 JUMP JUMPDEST PUSH20 0xFFFFFFFFFFFFFFFFFFFFFFFFFFFFFFFFFFFFFFFF AND PUSH2 0x12AE PUSH2 0xE1C JUMP JUMPDEST PUSH20 0xFFFFFFFFFFFFFFFFFFFFFFFFFFFFFFFFFFFFFFFF AND EQ PUSH2 0x1304 JUMPI PUSH1 0x40 MLOAD PUSH32 0x8C379A000000000000000000000000000000000000000000000000000000000 DUP2 MSTORE PUSH1 0x4 ADD PUSH2 0x12FB SWAP1 PUSH2 0x1C27 JUMP JUMPDEST PUSH1 0x40 MLOAD DUP1 SWAP2 SUB SWAP1 REVERT JUMPDEST PUSH1 0x0 PUSH20 0xFFFFFFFFFFFFFFFFFFFFFFFFFFFFFFFFFFFFFFFF AND DUP2 PUSH20 0xFFFFFFFFFFFFFFFFFFFFFFFFFFFFFFFFFFFFFFFF AND EQ ISZERO PUSH2 0x1374 JUMPI PUSH1 0x40 MLOAD PUSH32 0x8C379A000000000000000000000000000000000000000000000000000000000 DUP2 MSTORE PUSH1 0x4 ADD PUSH2 0x136B SWAP1 PUSH2 0x1BD9 JUMP JUMPDEST PUSH1 0x40 MLOAD DUP1 SWAP2 SUB SWAP1 REVERT JUMPDEST PUSH2 0x137D DUP2 PUSH2 0x1420 JUMP JUMPDEST POP JUMP JUMPDEST PUSH1 0x0 CALLER SWAP1 POP SWAP1 JUMP JUMPDEST CALLER PUSH20 0xFFFFFFFFFFFFFFFFFFFFFFFFFFFFFFFFFFFFFFFF AND PUSH2 0x8FC PUSH1 0x2 SELFBALANCE PUSH2 0x13AF SWAP2 SWAP1 PUSH2 0x1D6D JUMP JUMPDEST SWAP1 DUP2 ISZERO MUL SWAP1 PUSH1 0x40 MLOAD PUSH1 0x0 PUSH1 0x40 MLOAD DUP1 DUP4 SUB DUP2 DUP6 DUP9 DUP9 CALL SWAP4 POP POP POP POP ISZERO DUP1 ISZERO PUSH2 0x13DA JUMPI RETURNDATASIZE PUSH1 0x0 DUP1 RETURNDATACOPY RETURNDATASIZE PUSH1 0x0 REVERT JUMPDEST POP PUSH32 0xA28482EEC3136A2461C6C30C08F71BA279C6C51A2D9C7BEA4E50D6D2632F3896 PUSH1 0x2 SELFBALANCE PUSH2 0x1409 SWAP2 SWAP1 PUSH2 0x1D6D JUMP JUMPDEST PUSH1 0x40 MLOAD PUSH2 0x1416 SWAP2 SWAP1 PUSH2 0x1BF9 JUMP JUMPDEST PUSH1 0x40 MLOAD DUP1 SWAP2 SUB SWAP1 LOG1 JUMP JUMPDEST PUSH1 0x0 DUP1 PUSH1 0x0 SWAP1 SLOAD SWAP1 PUSH2 0x100 EXP SWAP1 DIV PUSH20 0xFFFFFFFFFFFFFFFFFFFFFFFFFFFFFFFFFFFFFFFF AND SWAP1 POP DUP2 PUSH1 0x0 DUP1 PUSH2 0x100 EXP DUP2 SLOAD DUP2 PUSH20 0xFFFFFFFFFFFFFFFFFFFFFFFFFFFFFFFFFFFFFFFF MUL NOT AND SWAP1 DUP4 PUSH20 0xFFFFFFFFFFFFFFFFFFFFFFFFFFFFFFFFFFFFFFFF AND MUL OR SWAP1 SSTORE POP DUP2 PUSH20 0xFFFFFFFFFFFFFFFFFFFFFFFFFFFFFFFFFFFFFFFF AND DUP2 PUSH20 0xFFFFFFFFFFFFFFFFFFFFFFFFFFFFFFFFFFFFFFFF AND PUSH32 0x8BE0079C531659141344CD1FD0A4F28419497F9722A3DAAFE3B4186F6B6457E0 PUSH1 0x40 MLOAD PUSH1 0x40 MLOAD DUP1 SWAP2 SUB SWAP1 LOG3 POP POP JUMP JUMPDEST PUSH1 0x7 PUSH1 0x0 DUP4 PUSH20 0xFFFFFFFFFFFFFFFFFFFFFFFFFFFFFFFFFFFFFFFF AND PUSH20 0xFFFFFFFFFFFFFFFFFFFFFFFFFFFFFFFFFFFFFFFF AND DUP2 MSTORE PUSH1 0x20 ADD SWAP1 DUP2 MSTORE PUSH1 0x20 ADD PUSH1 0x0 KECCAK256 PUSH1 0x0 DUP2 SLOAD DUP1 SWAP3 SWAP2 SWAP1 PUSH2 0x1534 SWAP1 PUSH2 0x1F16 JUMP JUMPDEST SWAP2 SWAP1 POP SSTORE POP PUSH1 0x7 PUSH1 0x0 DUP5 PUSH20 0xFFFFFFFFFFFFFFFFFFFFFFFFFFFFFFFFFFFFFFFF AND PUSH20 0xFFFFFFFFFFFFFFFFFFFFFFFFFFFFFFFFFFFFFFFF AND DUP2 MSTORE PUSH1 0x20 ADD SWAP1 DUP2 MSTORE PUSH1 0x20 ADD PUSH1 0x0 KECCAK256 PUSH1 0x0 DUP2 SLOAD DUP1 SWAP3 SWAP2 SWAP1 PUSH2 0x1589 SWAP1 PUSH2 0x1E89 JUMP JUMPDEST SWAP2 SWAP1 POP SSTORE POP DUP2 PUSH20 0xFFFFFFFFFFFFFFFFFFFFFFFFFFFFFFFFFFFFFFFF AND PUSH1 0x6 PUSH1 0x0 DUP4 DUP2 MSTORE PUSH1 0x20 ADD SWAP1 DUP2 MSTORE PUSH1 0x20 ADD PUSH1 0x0 KECCAK256 PUSH1 0x0 SWAP1 SLOAD SWAP1 PUSH2 0x100 EXP SWAP1 POP POP POP DUP2 PUSH20 0xFFFFFFFFFFFFFFFFFFFFFFFFFFFFFFFFFFFFFFFF AND DUP4 PUSH20 0xFFFFFFFFFFFFFFFFFFFFFFFFFFFFFFFFFFFFFFFF AND PUSH32 0xDDF252AD1BE2C89B69C2B068FC378DAA952BA7F163C4A11628F55A4DF523B3EF DUP4 PUSH1 0x40 MLOAD PUSH2 0x1622 SWAP2 SWAP1 PUSH2 0x1C75 JUMP JUMPDEST PUSH1 0x40 MLOAD DUP1 SWAP2 SUB SWAP1 LOG3 POP POP POP JUMP JUMPDEST DUP3 DUP1 SLOAD PUSH2 0x163B SWAP1 PUSH2 0x1EB3 JUMP JUMPDEST SWAP1 PUSH1 0x0 MSTORE PUSH1 0x20 PUSH1 0x0 KECCAK256 SWAP1 PUSH1 0x1F ADD PUSH1 0x20 SWAP1 DIV DUP2 ADD SWAP3 DUP3 PUSH2 0x165D JUMPI PUSH1 0x0 DUP6 SSTORE PUSH2 0x16A4 JUMP JUMPDEST DUP3 PUSH1 0x1F LT PUSH2 0x1676 JUMPI DUP1 MLOAD PUSH1 0xFF NOT AND DUP4 DUP1 ADD OR DUP6 SSTORE PUSH2 0x16A4 JUMP JUMPDEST DUP3 DUP1 ADD PUSH1 0x1 ADD DUP6 SSTORE DUP3 ISZERO PUSH2 0x16A4 JUMPI SWAP2 DUP3 ADD JUMPDEST DUP3 DUP2 GT ISZERO PUSH2 0x16A3 JUMPI DUP3 MLOAD DUP3 SSTORE SWAP2 PUSH1 0x20 ADD SWAP2 SWAP1 PUSH1 0x1 ADD SWAP1 PUSH2 0x1688 JUMP JUMPDEST JUMPDEST POP SWAP1 POP PUSH2 0x16B1 SWAP2 SWAP1 PUSH2 0x16B5 JUMP JUMPDEST POP SWAP1 JUMP JUMPDEST JUMPDEST DUP1 DUP3 GT ISZERO PUSH2 0x16CE JUMPI PUSH1 0x0 DUP2 PUSH1 0x0 SWAP1 SSTORE POP PUSH1 0x1 ADD PUSH2 0x16B6 JUMP JUMPDEST POP SWAP1 JUMP JUMPDEST PUSH1 0x0 PUSH2 0x16E5 PUSH2 0x16E0 DUP5 PUSH2 0x1CB5 JUMP JUMPDEST PUSH2 0x1C90 JUMP JUMPDEST SWAP1 POP DUP3 DUP2 MSTORE PUSH1 0x20 DUP2 ADD DUP5 DUP5 DUP5 ADD GT ISZERO PUSH2 0x1701 JUMPI PUSH2 0x1700 PUSH2 0x20B7 JUMP JUMPDEST JUMPDEST PUSH2 0x170C DUP5 DUP3 DUP6 PUSH2 0x1E47 JUMP JUMPDEST POP SWAP4 SWAP3 POP POP POP JUMP JUMPDEST PUSH1 0x0 DUP2 CALLDATALOAD SWAP1 POP PUSH2 0x1723 DUP2 PUSH2 0x21F0 JUMP JUMPDEST SWAP3 SWAP2 POP POP JUMP JUMPDEST PUSH1 0x0 DUP3 PUSH1 0x1F DUP4 ADD SLT PUSH2 0x173E JUMPI PUSH2 0x173D PUSH2 0x20B2 JUMP JUMPDEST JUMPDEST DUP2 CALLDATALOAD PUSH2 0x174E DUP5 DUP3 PUSH1 0x20 DUP7 ADD PUSH2 0x16D2 JUMP JUMPDEST SWAP2 POP POP SWAP3 SWAP2 POP POP JUMP JUMPDEST PUSH1 0x0 DUP2 CALLDATALOAD SWAP1 POP PUSH2 0x1766 DUP2 PUSH2 0x2207 JUMP JUMPDEST SWAP3 SWAP2 POP POP JUMP JUMPDEST PUSH1 0x0 PUSH1 0x20 DUP3 DUP5 SUB SLT ISZERO PUSH2 0x1782 JUMPI PUSH2 0x1781 PUSH2 0x20C1 JUMP JUMPDEST JUMPDEST PUSH1 0x0 PUSH2 0x1790 DUP5 DUP3 DUP6 ADD PUSH2 0x1714 JUMP JUMPDEST SWAP2 POP POP SWAP3 SWAP2 POP POP JUMP JUMPDEST PUSH1 0x0 DUP1 PUSH1 0x40 DUP4 DUP6 SUB SLT ISZERO PUSH2 0x17B0 JUMPI PUSH2 0x17AF PUSH2 0x20C1 JUMP JUMPDEST JUMPDEST PUSH1 0x0 PUSH2 0x17BE DUP6 DUP3 DUP7 ADD PUSH2 0x1714 JUMP JUMPDEST SWAP3 POP POP PUSH1 0x20 PUSH2 0x17CF DUP6 DUP3 DUP7 ADD PUSH2 0x1757 JUMP JUMPDEST SWAP2 POP POP SWAP3 POP SWAP3 SWAP1 POP JUMP JUMPDEST PUSH1 0x0 DUP1 PUSH1 0x0 PUSH1 0x60 DUP5 DUP7 SUB SLT ISZERO PUSH2 0x17F2 JUMPI PUSH2 0x17F1 PUSH2 0x20C1 JUMP JUMPDEST JUMPDEST PUSH1 0x0 DUP5 ADD CALLDATALOAD PUSH8 0xFFFFFFFFFFFFFFFF DUP2 GT ISZERO PUSH2 0x1810 JUMPI PUSH2 0x180F PUSH2 0x20BC JUMP JUMPDEST JUMPDEST PUSH2 0x181C DUP7 DUP3 DUP8 ADD PUSH2 0x1729 JUMP JUMPDEST SWAP4 POP POP PUSH1 0x20 DUP5 ADD CALLDATALOAD PUSH8 0xFFFFFFFFFFFFFFFF DUP2 GT ISZERO PUSH2 0x183D JUMPI PUSH2 0x183C PUSH2 0x20BC JUMP JUMPDEST JUMPDEST PUSH2 0x1849 DUP7 DUP3 DUP8 ADD PUSH2 0x1729 JUMP JUMPDEST SWAP3 POP POP PUSH1 0x40 DUP5 ADD CALLDATALOAD PUSH8 0xFFFFFFFFFFFFFFFF DUP2 GT ISZERO PUSH2 0x186A JUMPI PUSH2 0x1869 PUSH2 0x20BC JUMP JUMPDEST JUMPDEST PUSH2 0x1876 DUP7 DUP3 DUP8 ADD PUSH2 0x1729 JUMP JUMPDEST SWAP2 POP POP SWAP3 POP SWAP3 POP SWAP3 JUMP JUMPDEST PUSH1 0x0 PUSH1 0x20 DUP3 DUP5 SUB SLT ISZERO PUSH2 0x1896 JUMPI PUSH2 0x1895 PUSH2 0x20C1 JUMP JUMPDEST JUMPDEST PUSH1 0x0 PUSH2 0x18A4 DUP5 DUP3 DUP6 ADD PUSH2 0x1757 JUMP JUMPDEST SWAP2 POP POP SWAP3 SWAP2 POP POP JUMP JUMPDEST PUSH2 0x18B6 DUP2 PUSH2 0x1DFB JUMP JUMPDEST DUP3 MSTORE POP POP JUMP JUMPDEST PUSH1 0x0 PUSH2 0x18C7 DUP3 PUSH2 0x1CFB JUMP JUMPDEST PUSH2 0x18D1 DUP2 DUP6 PUSH2 0x1D06 JUMP JUMPDEST SWAP4 POP PUSH2 0x18E1 DUP2 DUP6 PUSH1 0x20 DUP7 ADD PUSH2 0x1E56 JUMP JUMPDEST PUSH2 0x18EA DUP2 PUSH2 0x20C6 JUMP JUMPDEST DUP5 ADD SWAP2 POP POP SWAP3 SWAP2 POP POP JUMP JUMPDEST PUSH1 0x0 DUP2 SLOAD PUSH2 0x1902 DUP2 PUSH2 0x1EB3 JUMP JUMPDEST PUSH2 0x190C DUP2 DUP7 PUSH2 0x1D06 JUMP JUMPDEST SWAP5 POP PUSH1 0x1 DUP3 AND PUSH1 0x0 DUP2 EQ PUSH2 0x1927 JUMPI PUSH1 0x1 DUP2 EQ PUSH2 0x1939 JUMPI PUSH2 0x196C JUMP JUMPDEST PUSH1 0xFF NOT DUP4 AND DUP7 MSTORE PUSH1 0x20 DUP7 ADD SWAP4 POP PUSH2 0x196C JUMP JUMPDEST PUSH2 0x1942 DUP6 PUSH2 0x1CE6 JUMP JUMPDEST PUSH1 0x0 JUMPDEST DUP4 DUP2 LT ISZERO PUSH2 0x1964 JUMPI DUP2 SLOAD DUP2 DUP10 ADD MSTORE PUSH1 0x1 DUP3 ADD SWAP2 POP PUSH1 0x20 DUP2 ADD SWAP1 POP PUSH2 0x1945 JUMP JUMPDEST DUP1 DUP9 ADD SWAP6 POP POP POP JUMPDEST POP POP POP SWAP3 SWAP2 POP POP JUMP JUMPDEST PUSH1 0x0 PUSH2 0x1982 PUSH1 0x28 DUP4 PUSH2 0x1D06 JUMP JUMPDEST SWAP2 POP PUSH2 0x198D DUP3 PUSH2 0x20D7 JUMP JUMPDEST PUSH1 0x40 DUP3 ADD SWAP1 POP SWAP2 SWAP1 POP JUMP JUMPDEST PUSH1 0x0 PUSH2 0x19A5 PUSH1 0x26 DUP4 PUSH2 0x1D06 JUMP JUMPDEST SWAP2 POP PUSH2 0x19B0 DUP3 PUSH2 0x2126 JUMP JUMPDEST PUSH1 0x40 DUP3 ADD SWAP1 POP SWAP2 SWAP1 POP JUMP JUMPDEST PUSH1 0x0 PUSH2 0x19C8 PUSH1 0xC DUP4 PUSH2 0x1D06 JUMP JUMPDEST SWAP2 POP PUSH2 0x19D3 DUP3 PUSH2 0x2175 JUMP JUMPDEST PUSH1 0x20 DUP3 ADD SWAP1 POP SWAP2 SWAP1 POP JUMP JUMPDEST PUSH1 0x0 PUSH2 0x19EB PUSH1 0x20 DUP4 PUSH2 0x1D06 JUMP JUMPDEST SWAP2 POP PUSH2 0x19F6 DUP3 PUSH2 0x219E JUMP JUMPDEST PUSH1 0x20 DUP3 ADD SWAP1 POP SWAP2 SWAP1 POP JUMP JUMPDEST PUSH1 0x0 PUSH2 0x1A0E PUSH1 0x15 DUP4 PUSH2 0x1D06 JUMP JUMPDEST SWAP2 POP PUSH2 0x1A19 DUP3 PUSH2 0x21C7 JUMP JUMPDEST PUSH1 0x20 DUP3 ADD SWAP1 POP SWAP2 SWAP1 POP JUMP JUMPDEST PUSH2 0x1A2D DUP2 PUSH2 0x1E2D JUMP JUMPDEST DUP3 MSTORE POP POP JUMP JUMPDEST PUSH2 0x1A44 PUSH2 0x1A3F DUP3 PUSH2 0x1E2D JUMP JUMPDEST PUSH2 0x1F8C JUMP JUMPDEST DUP3 MSTORE POP POP JUMP JUMPDEST PUSH2 0x1A53 DUP2 PUSH2 0x1E37 JUMP JUMPDEST DUP3 MSTORE POP POP JUMP JUMPDEST PUSH1 0x0 PUSH2 0x1A65 DUP3 DUP7 PUSH2 0x1A33 JUMP JUMPDEST PUSH1 0x20 DUP3 ADD SWAP2 POP PUSH2 0x1A75 DUP3 DUP6 PUSH2 0x1A33 JUMP JUMPDEST PUSH1 0x20 DUP3 ADD SWAP2 POP PUSH2 0x1A85 DUP3 DUP5 PUSH2 0x1A33 JUMP JUMPDEST PUSH1 0x20 DUP3 ADD SWAP2 POP DUP2 SWAP1 POP SWAP5 SWAP4 POP POP POP POP JUMP JUMPDEST PUSH1 0x0 PUSH1 0x20 DUP3 ADD SWAP1 POP PUSH2 0x1AAB PUSH1 0x0 DUP4 ADD DUP5 PUSH2 0x18AD JUMP JUMPDEST SWAP3 SWAP2 POP POP JUMP JUMPDEST PUSH1 0x0 PUSH2 0x100 DUP3 ADD SWAP1 POP PUSH2 0x1AC7 PUSH1 0x0 DUP4 ADD DUP12 PUSH2 0x18AD JUMP JUMPDEST DUP2 DUP2 SUB PUSH1 0x20 DUP4 ADD MSTORE PUSH2 0x1AD9 DUP2 DUP11 PUSH2 0x18BC JUMP JUMPDEST SWAP1 POP DUP2 DUP2 SUB PUSH1 0x40 DUP4 ADD MSTORE PUSH2 0x1AED DUP2 DUP10 PUSH2 0x18BC JUMP JUMPDEST SWAP1 POP DUP2 DUP2 SUB PUSH1 0x60 DUP4 ADD MSTORE PUSH2 0x1B01 DUP2 DUP9 PUSH2 0x18BC JUMP JUMPDEST SWAP1 POP PUSH2 0x1B10 PUSH1 0x80 DUP4 ADD DUP8 PUSH2 0x1A24 JUMP JUMPDEST PUSH2 0x1B1D PUSH1 0xA0 DUP4 ADD DUP7 PUSH2 0x1A24 JUMP JUMPDEST PUSH2 0x1B2A PUSH1 0xC0 DUP4 ADD DUP6 PUSH2 0x1A24 JUMP JUMPDEST PUSH2 0x1B37 PUSH1 0xE0 DUP4 ADD DUP5 PUSH2 0x1A4A JUMP JUMPDEST SWAP10 SWAP9 POP POP POP POP POP POP POP POP POP JUMP JUMPDEST PUSH1 0x0 PUSH1 0x20 DUP3 ADD SWAP1 POP DUP2 DUP2 SUB PUSH1 0x0 DUP4 ADD MSTORE PUSH2 0x1B5E DUP2 DUP5 PUSH2 0x18BC JUMP JUMPDEST SWAP1 POP SWAP3 SWAP2 POP POP JUMP JUMPDEST PUSH1 0x0 PUSH1 0x80 DUP3 ADD SWAP1 POP DUP2 DUP2 SUB PUSH1 0x0 DUP4 ADD MSTORE PUSH2 0x1B80 DUP2 DUP8 PUSH2 0x18F5 JUMP JUMPDEST SWAP1 POP DUP2 DUP2 SUB PUSH1 0x20 DUP4 ADD MSTORE PUSH2 0x1B94 DUP2 DUP7 PUSH2 0x18F5 JUMP JUMPDEST SWAP1 POP PUSH2 0x1BA3 PUSH1 0x40 DUP4 ADD DUP6 PUSH2 0x1A4A JUMP JUMPDEST PUSH2 0x1BB0 PUSH1 0x60 DUP4 ADD DUP5 PUSH2 0x1A24 JUMP JUMPDEST SWAP6 SWAP5 POP POP POP POP POP JUMP JUMPDEST PUSH1 0x0 PUSH1 0x20 DUP3 ADD SWAP1 POP DUP2 DUP2 SUB PUSH1 0x0 DUP4 ADD MSTORE PUSH2 0x1BD2 DUP2 PUSH2 0x1975 JUMP JUMPDEST SWAP1 POP SWAP2 SWAP1 POP JUMP JUMPDEST PUSH1 0x0 PUSH1 0x20 DUP3 ADD SWAP1 POP DUP2 DUP2 SUB PUSH1 0x0 DUP4 ADD MSTORE PUSH2 0x1BF2 DUP2 PUSH2 0x1998 JUMP JUMPDEST SWAP1 POP SWAP2 SWAP1 POP JUMP JUMPDEST PUSH1 0x0 PUSH1 0x40 DUP3 ADD SWAP1 POP DUP2 DUP2 SUB PUSH1 0x0 DUP4 ADD MSTORE PUSH2 0x1C12 DUP2 PUSH2 0x19BB JUMP JUMPDEST SWAP1 POP PUSH2 0x1C21 PUSH1 0x20 DUP4 ADD DUP5 PUSH2 0x1A24 JUMP JUMPDEST SWAP3 SWAP2 POP POP JUMP JUMPDEST PUSH1 0x0 PUSH1 0x20 DUP3 ADD SWAP1 POP DUP2 DUP2 SUB PUSH1 0x0 DUP4 ADD MSTORE PUSH2 0x1C40 DUP2 PUSH2 0x19DE JUMP JUMPDEST SWAP1 POP SWAP2 SWAP1 POP JUMP JUMPDEST PUSH1 0x0 PUSH1 0x40 DUP3 ADD SWAP1 POP DUP2 DUP2 SUB PUSH1 0x0 DUP4 ADD MSTORE PUSH2 0x1C60 DUP2 PUSH2 0x1A01 JUMP JUMPDEST SWAP1 POP PUSH2 0x1C6F PUSH1 0x20 DUP4 ADD DUP5 PUSH2 0x1A24 JUMP JUMPDEST SWAP3 SWAP2 POP POP JUMP JUMPDEST PUSH1 0x0 PUSH1 0x20 DUP3 ADD SWAP1 POP PUSH2 0x1C8A PUSH1 0x0 DUP4 ADD DUP5 PUSH2 0x1A24 JUMP JUMPDEST SWAP3 SWAP2 POP POP JUMP JUMPDEST PUSH1 0x0 PUSH2 0x1C9A PUSH2 0x1CAB JUMP JUMPDEST SWAP1 POP PUSH2 0x1CA6 DUP3 DUP3 PUSH2 0x1EE5 JUMP JUMPDEST SWAP2 SWAP1 POP JUMP JUMPDEST PUSH1 0x0 PUSH1 0x40 MLOAD SWAP1 POP SWAP1 JUMP JUMPDEST PUSH1 0x0 PUSH8 0xFFFFFFFFFFFFFFFF DUP3 GT ISZERO PUSH2 0x1CD0 JUMPI PUSH2 0x1CCF PUSH2 0x2083 JUMP JUMPDEST JUMPDEST PUSH2 0x1CD9 DUP3 PUSH2 0x20C6 JUMP JUMPDEST SWAP1 POP PUSH1 0x20 DUP2 ADD SWAP1 POP SWAP2 SWAP1 POP JUMP JUMPDEST PUSH1 0x0 DUP2 SWAP1 POP DUP2 PUSH1 0x0 MSTORE PUSH1 0x20 PUSH1 0x0 KECCAK256 SWAP1 POP SWAP2 SWAP1 POP JUMP JUMPDEST PUSH1 0x0 DUP2 MLOAD SWAP1 POP SWAP2 SWAP1 POP JUMP JUMPDEST PUSH1 0x0 DUP3 DUP3 MSTORE PUSH1 0x20 DUP3 ADD SWAP1 POP SWAP3 SWAP2 POP POP JUMP JUMPDEST PUSH1 0x0 PUSH2 0x1D22 DUP3 PUSH2 0x1E2D JUMP JUMPDEST SWAP2 POP PUSH2 0x1D2D DUP4 PUSH2 0x1E2D JUMP JUMPDEST SWAP3 POP DUP3 PUSH32 0xFFFFFFFFFFFFFFFFFFFFFFFFFFFFFFFFFFFFFFFFFFFFFFFFFFFFFFFFFFFFFFFF SUB DUP3 GT ISZERO PUSH2 0x1D62 JUMPI PUSH2 0x1D61 PUSH2 0x1FC7 JUMP JUMPDEST JUMPDEST DUP3 DUP3 ADD SWAP1 POP SWAP3 SWAP2 POP POP JUMP JUMPDEST PUSH1 0x0 PUSH2 0x1D78 DUP3 PUSH2 0x1E2D JUMP JUMPDEST SWAP2 POP PUSH2 0x1D83 DUP4 PUSH2 0x1E2D JUMP JUMPDEST SWAP3 POP DUP2 PUSH32 0xFFFFFFFFFFFFFFFFFFFFFFFFFFFFFFFFFFFFFFFFFFFFFFFFFFFFFFFFFFFFFFFF DIV DUP4 GT DUP3 ISZERO ISZERO AND ISZERO PUSH2 0x1DBC JUMPI PUSH2 0x1DBB PUSH2 0x1FC7 JUMP JUMPDEST JUMPDEST DUP3 DUP3 MUL SWAP1 POP SWAP3 SWAP2 POP POP JUMP JUMPDEST PUSH1 0x0 PUSH2 0x1DD2 DUP3 PUSH2 0x1E2D JUMP JUMPDEST SWAP2 POP PUSH2 0x1DDD DUP4 PUSH2 0x1E2D JUMP JUMPDEST SWAP3 POP DUP3 DUP3 LT ISZERO PUSH2 0x1DF0 JUMPI PUSH2 0x1DEF PUSH2 0x1FC7 JUMP JUMPDEST JUMPDEST DUP3 DUP3 SUB SWAP1 POP SWAP3 SWAP2 POP POP JUMP JUMPDEST PUSH1 0x0 PUSH2 0x1E06 DUP3 PUSH2 0x1E0D JUMP JUMPDEST SWAP1 POP SWAP2 SWAP1 POP JUMP JUMPDEST PUSH1 0x0 PUSH20 0xFFFFFFFFFFFFFFFFFFFFFFFFFFFFFFFFFFFFFFFF DUP3 AND SWAP1 POP SWAP2 SWAP1 POP JUMP JUMPDEST PUSH1 0x0 DUP2 SWAP1 POP SWAP2 SWAP1 POP JUMP JUMPDEST PUSH1 0x0 PUSH4 0xFFFFFFFF DUP3 AND SWAP1 POP SWAP2 SWAP1 POP JUMP JUMPDEST DUP3 DUP2 DUP4 CALLDATACOPY PUSH1 0x0 DUP4 DUP4 ADD MSTORE POP POP POP JUMP JUMPDEST PUSH1 0x0 JUMPDEST DUP4 DUP2 LT ISZERO PUSH2 0x1E74 JUMPI DUP1 DUP3 ADD MLOAD DUP2 DUP5 ADD MSTORE PUSH1 0x20 DUP2 ADD SWAP1 POP PUSH2 0x1E59 JUMP JUMPDEST DUP4 DUP2 GT ISZERO PUSH2 0x1E83 JUMPI PUSH1 0x0 DUP5 DUP5 ADD MSTORE JUMPDEST POP POP POP POP JUMP JUMPDEST PUSH1 0x0 PUSH2 0x1E94 DUP3 PUSH2 0x1E2D JUMP JUMPDEST SWAP2 POP PUSH1 0x0 DUP3 EQ ISZERO PUSH2 0x1EA8 JUMPI PUSH2 0x1EA7 PUSH2 0x1FC7 JUMP JUMPDEST JUMPDEST PUSH1 0x1 DUP3 SUB SWAP1 POP SWAP2 SWAP1 POP JUMP JUMPDEST PUSH1 0x0 PUSH1 0x2 DUP3 DIV SWAP1 POP PUSH1 0x1 DUP3 AND DUP1 PUSH2 0x1ECB JUMPI PUSH1 0x7F DUP3 AND SWAP2 POP JUMPDEST PUSH1 0x20 DUP3 LT DUP2 EQ ISZERO PUSH2 0x1EDF JUMPI PUSH2 0x1EDE PUSH2 0x2025 JUMP JUMPDEST JUMPDEST POP SWAP2 SWAP1 POP JUMP JUMPDEST PUSH2 0x1EEE DUP3 PUSH2 0x20C6 JUMP JUMPDEST DUP2 ADD DUP2 DUP2 LT PUSH8 0xFFFFFFFFFFFFFFFF DUP3 GT OR ISZERO PUSH2 0x1F0D JUMPI PUSH2 0x1F0C PUSH2 0x2083 JUMP JUMPDEST JUMPDEST DUP1 PUSH1 0x40 MSTORE POP POP POP JUMP JUMPDEST PUSH1 0x0 PUSH2 0x1F21 DUP3 PUSH2 0x1E2D JUMP JUMPDEST SWAP2 POP PUSH32 0xFFFFFFFFFFFFFFFFFFFFFFFFFFFFFFFFFFFFFFFFFFFFFFFFFFFFFFFFFFFFFFFF DUP3 EQ ISZERO PUSH2 0x1F54 JUMPI PUSH2 0x1F53 PUSH2 0x1FC7 JUMP JUMPDEST JUMPDEST PUSH1 0x1 DUP3 ADD SWAP1 POP SWAP2 SWAP1 POP JUMP JUMPDEST PUSH1 0x0 PUSH2 0x1F6A DUP3 PUSH2 0x1E37 JUMP JUMPDEST SWAP2 POP PUSH4 0xFFFFFFFF DUP3 EQ ISZERO PUSH2 0x1F81 JUMPI PUSH2 0x1F80 PUSH2 0x1FC7 JUMP JUMPDEST JUMPDEST PUSH1 0x1 DUP3 ADD SWAP1 POP SWAP2 SWAP1 POP JUMP JUMPDEST PUSH1 0x0 DUP2 SWAP1 POP SWAP2 SWAP1 POP JUMP JUMPDEST PUSH1 0x0 PUSH2 0x1FA1 DUP3 PUSH2 0x1E2D JUMP JUMPDEST SWAP2 POP PUSH2 0x1FAC DUP4 PUSH2 0x1E2D JUMP JUMPDEST SWAP3 POP DUP3 PUSH2 0x1FBC JUMPI PUSH2 0x1FBB PUSH2 0x1FF6 JUMP JUMPDEST JUMPDEST DUP3 DUP3 MOD SWAP1 POP SWAP3 SWAP2 POP POP JUMP JUMPDEST PUSH32 0x4E487B7100000000000000000000000000000000000000000000000000000000 PUSH1 0x0 MSTORE PUSH1 0x11 PUSH1 0x4 MSTORE PUSH1 0x24 PUSH1 0x0 REVERT JUMPDEST PUSH32 0x4E487B7100000000000000000000000000000000000000000000000000000000 PUSH1 0x0 MSTORE PUSH1 0x12 PUSH1 0x4 MSTORE PUSH1 0x24 PUSH1 0x0 REVERT JUMPDEST PUSH32 0x4E487B7100000000000000000000000000000000000000000000000000000000 PUSH1 0x0 MSTORE PUSH1 0x22 PUSH1 0x4 MSTORE PUSH1 0x24 PUSH1 0x0 REVERT JUMPDEST PUSH32 0x4E487B7100000000000000000000000000000000000000000000000000000000 PUSH1 0x0 MSTORE PUSH1 0x32 PUSH1 0x4 MSTORE PUSH1 0x24 PUSH1 0x0 REVERT JUMPDEST PUSH32 0x4E487B7100000000000000000000000000000000000000000000000000000000 PUSH1 0x0 MSTORE PUSH1 0x41 PUSH1 0x4 MSTORE PUSH1 0x24 PUSH1 0x0 REVERT JUMPDEST PUSH1 0x0 DUP1 REVERT JUMPDEST PUSH1 0x0 DUP1 REVERT JUMPDEST PUSH1 0x0 DUP1 REVERT JUMPDEST PUSH1 0x0 DUP1 REVERT JUMPDEST PUSH1 0x0 PUSH1 0x1F NOT PUSH1 0x1F DUP4 ADD AND SWAP1 POP SWAP2 SWAP1 POP JUMP JUMPDEST PUSH32 0x536F6C6F2073652070756564652074656E657220756E20636F63686520706F72 PUSH1 0x0 DUP3 ADD MSTORE PUSH32 0x20706572736F6E61000000000000000000000000000000000000000000000000 PUSH1 0x20 DUP3 ADD MSTORE POP JUMP JUMPDEST PUSH32 0x4F776E61626C653A206E6577206F776E657220697320746865207A65726F2061 PUSH1 0x0 DUP3 ADD MSTORE PUSH32 0x6464726573730000000000000000000000000000000000000000000000000000 PUSH1 0x20 DUP3 ADD MSTORE POP JUMP JUMPDEST PUSH32 0x4861732067616E61646F3A200000000000000000000000000000000000000000 PUSH1 0x0 DUP3 ADD MSTORE POP JUMP JUMPDEST PUSH32 0x4F776E61626C653A2063616C6C6572206973206E6F7420746865206F776E6572 PUSH1 0x0 DUP3 ADD MSTORE POP JUMP JUMPDEST PUSH32 0x456C20636F6368652067616E61646F722065733A200000000000000000000000 PUSH1 0x0 DUP3 ADD MSTORE POP JUMP JUMPDEST PUSH2 0x21F9 DUP2 PUSH2 0x1DFB JUMP JUMPDEST DUP2 EQ PUSH2 0x2204 JUMPI PUSH1 0x0 DUP1 REVERT JUMPDEST POP JUMP JUMPDEST PUSH2 0x2210 DUP2 PUSH2 0x1E2D JUMP JUMPDEST DUP2 EQ PUSH2 0x221B JUMPI PUSH1 0x0 DUP1 REVERT JUMPDEST POP JUMP INVALID LOG2 PUSH5 0x6970667358 0x22 SLT KECCAK256 0xC6 EXTCODEHASH PUSH1 0xC MUL 0xAB 0xDD 0xAE GAS PC CALLDATASIZE 0xB9 LOG1 0xD2 0xAD DUP9 POP PUSH4 0x330CB2BA AND MOD 0xBC 0xB8 SWAP10 0xB2 0xE8 DUP8 0xBA DUP1 PUSH5 0x736F6C6343 STOP ADDMOD SMOD STOP CALLER "
				},
				"gasEstimates": {
					"creation": {
						"codeDepositCost": "1757600",
						"executionCost": "infinite",
						"totalCost": "infinite"
					},
					"external": {
						"Apostar(uint256)": "infinite",
						"_owner()": "2533",
						"anadirCoche(string,string,string)": "infinite",
						"approve(address,uint256)": "27250",
						"balanceOf(address)": "2930",
						"cocheDePropietario(uint256)": "2884",
						"listaCoches(uint256)": "infinite",
						"numeroCochesPersona(address)": "2882",
						"owner()": "2589",
						"ownerOf(uint256)": "2888",
						"renounceOwnership()": "30397",
						"retirarDinero()": "infinite",
						"subirDeNivel(address)": "infinite",
						"takeOwnership(uint256)": "450",
						"transfer(address,uint256)": "infinite",
						"transferOwnership(address)": "30833",
						"verCochePropietario(address)": "infinite"
					},
					"internal": {
						"_transfer(address,address,uint256)": "infinite"
					}
				},
				"methodIdentifiers": {
					"Apostar(uint256)": "6b6f0494",
					"_owner()": "b2bdfa7b",
					"anadirCoche(string,string,string)": "2458c544",
					"approve(address,uint256)": "095ea7b3",
					"balanceOf(address)": "70a08231",
					"cocheDePropietario(uint256)": "858b0554",
					"listaCoches(uint256)": "d735573d",
					"numeroCochesPersona(address)": "1c6743e4",
					"owner()": "8da5cb5b",
					"ownerOf(uint256)": "6352211e",
					"renounceOwnership()": "715018a6",
					"retirarDinero()": "1bfdc150",
					"subirDeNivel(address)": "6a7d1816",
					"takeOwnership(uint256)": "b2e6ceeb",
					"transfer(address,uint256)": "a9059cbb",
					"transferOwnership(address)": "f2fde38b",
					"verCochePropietario(address)": "e172fca8"
				}
			},
			"storageLayout": {
				"storage": [
					{
						"astId": 174,
						"contract": "contracts/CarreraCoches/cocheToken.sol:CocheToken",
						"label": "_owner",
						"offset": 0,
						"slot": "0",
						"type": "t_address"
					},
					{
						"astId": 296,
						"contract": "contracts/CarreraCoches/cocheToken.sol:CocheToken",
						"label": "randNonce",
						"offset": 0,
						"slot": "1",
						"type": "t_uint256"
					},
					{
						"astId": 299,
						"contract": "contracts/CarreraCoches/cocheToken.sol:CocheToken",
						"label": "contador",
						"offset": 0,
						"slot": "2",
						"type": "t_uint256"
					},
					{
						"astId": 302,
						"contract": "contracts/CarreraCoches/cocheToken.sol:CocheToken",
						"label": "cooldown",
						"offset": 0,
						"slot": "3",
						"type": "t_uint256"
					},
					{
						"astId": 305,
						"contract": "contracts/CarreraCoches/cocheToken.sol:CocheToken",
						"label": "subirNivel",
						"offset": 0,
						"slot": "4",
						"type": "t_uint256"
					},
					{
						"astId": 309,
						"contract": "contracts/CarreraCoches/cocheToken.sol:CocheToken",
						"label": "listaCoches",
						"offset": 0,
						"slot": "5",
						"type": "t_array(t_struct(Coche)293_storage)dyn_storage"
					},
					{
						"astId": 337,
						"contract": "contracts/CarreraCoches/cocheToken.sol:CocheToken",
						"label": "cocheDePropietario",
						"offset": 0,
						"slot": "6",
						"type": "t_mapping(t_uint256,t_address)"
					},
					{
						"astId": 341,
						"contract": "contracts/CarreraCoches/cocheToken.sol:CocheToken",
						"label": "numeroCochesPersona",
						"offset": 0,
						"slot": "7",
						"type": "t_mapping(t_address,t_uint256)"
					},
					{
						"astId": 11,
						"contract": "contracts/CarreraCoches/cocheToken.sol:CocheToken",
						"label": "Approve",
						"offset": 0,
						"slot": "8",
						"type": "t_mapping(t_uint256,t_address)"
					}
				],
				"types": {
					"t_address": {
						"encoding": "inplace",
						"label": "address",
						"numberOfBytes": "20"
					},
					"t_array(t_struct(Coche)293_storage)dyn_storage": {
						"base": "t_struct(Coche)293_storage",
						"encoding": "dynamic_array",
						"label": "struct CarreraCoches.Coche[]",
						"numberOfBytes": "32"
					},
					"t_mapping(t_address,t_uint256)": {
						"encoding": "mapping",
						"key": "t_address",
						"label": "mapping(address => uint256)",
						"numberOfBytes": "32",
						"value": "t_uint256"
					},
					"t_mapping(t_uint256,t_address)": {
						"encoding": "mapping",
						"key": "t_uint256",
						"label": "mapping(uint256 => address)",
						"numberOfBytes": "32",
						"value": "t_address"
					},
					"t_string_storage": {
						"encoding": "bytes",
						"label": "string",
						"numberOfBytes": "32"
					},
					"t_struct(Coche)293_storage": {
						"encoding": "inplace",
						"label": "struct CarreraCoches.Coche",
						"members": [
							{
								"astId": 278,
								"contract": "contracts/CarreraCoches/cocheToken.sol:CocheToken",
								"label": "idPiloto",
								"offset": 0,
								"slot": "0",
								"type": "t_address"
							},
							{
								"astId": 280,
								"contract": "contracts/CarreraCoches/cocheToken.sol:CocheToken",
								"label": "modelo",
								"offset": 0,
								"slot": "1",
								"type": "t_string_storage"
							},
							{
								"astId": 282,
								"contract": "contracts/CarreraCoches/cocheToken.sol:CocheToken",
								"label": "marca",
								"offset": 0,
								"slot": "2",
								"type": "t_string_storage"
							},
							{
								"astId": 284,
								"contract": "contracts/CarreraCoches/cocheToken.sol:CocheToken",
								"label": "nombrePiloto",
								"offset": 0,
								"slot": "3",
								"type": "t_string_storage"
							},
							{
								"astId": 286,
								"contract": "contracts/CarreraCoches/cocheToken.sol:CocheToken",
								"label": "carrerasGanadas",
								"offset": 0,
								"slot": "4",
								"type": "t_uint256"
							},
							{
								"astId": 288,
								"contract": "contracts/CarreraCoches/cocheToken.sol:CocheToken",
								"label": "carrerasTotales",
								"offset": 0,
								"slot": "5",
								"type": "t_uint256"
							},
							{
								"astId": 290,
								"contract": "contracts/CarreraCoches/cocheToken.sol:CocheToken",
								"label": "tiempoEspera",
								"offset": 0,
								"slot": "6",
								"type": "t_uint256"
							},
							{
								"astId": 292,
								"contract": "contracts/CarreraCoches/cocheToken.sol:CocheToken",
								"label": "nivel",
								"offset": 0,
								"slot": "7",
								"type": "t_uint32"
							}
						],
						"numberOfBytes": "256"
					},
					"t_uint256": {
						"encoding": "inplace",
						"label": "uint256",
						"numberOfBytes": "32"
					},
					"t_uint32": {
						"encoding": "inplace",
						"label": "uint32",
						"numberOfBytes": "4"
					}
				}
			},
			"userdoc": {
				"kind": "user",
				"methods": {},
				"version": 1
			}
		}
	}
}