{
	"CarreraDeCaballos.sol": {
		"CarreraDeCaballos": {
			"abi": [
				{
					"constant": true,
					"inputs": [
						{
							"name": "",
							"type": "address"
						}
					],
					"name": "numeroCaballosPersona",
					"outputs": [
						{
							"name": "",
							"type": "uint256"
						}
					],
					"payable": false,
					"stateMutability": "view",
					"type": "function"
				},
				{
					"constant": false,
					"inputs": [
						{
							"name": "dineroApostar",
							"type": "uint256"
						}
					],
					"name": "Apostar",
					"outputs": [
						{
							"name": "",
							"type": "string"
						}
					],
					"payable": true,
					"stateMutability": "payable",
					"type": "function"
				},
				{
					"constant": true,
					"inputs": [
						{
							"name": "",
							"type": "uint256"
						}
					],
					"name": "listaCaballos",
					"outputs": [
						{
							"name": "id",
							"type": "address"
						},
						{
							"name": "nombreCaballo",
							"type": "string"
						},
						{
							"name": "nombreJinete",
							"type": "string"
						},
						{
							"name": "edadCaballo",
							"type": "uint256"
						},
						{
							"name": "edadJinete",
							"type": "uint256"
						},
						{
							"name": "carrerasGanadas",
							"type": "uint256"
						},
						{
							"name": "carrerasTotales",
							"type": "uint256"
						}
					],
					"payable": false,
					"stateMutability": "view",
					"type": "function"
				},
				{
					"constant": false,
					"inputs": [
						{
							"name": "_nombreCaballo",
							"type": "string"
						},
						{
							"name": "_nombreJinete",
							"type": "string"
						},
						{
							"name": "_edadCaballo",
							"type": "uint256"
						},
						{
							"name": "_edadJinete",
							"type": "uint256"
						}
					],
					"name": "anadirCaballo",
					"outputs": [
						{
							"name": "",
							"type": "uint256"
						}
					],
					"payable": false,
					"stateMutability": "nonpayable",
					"type": "function"
				},
				{
					"anonymous": false,
					"inputs": [
						{
							"indexed": false,
							"name": "ms",
							"type": "string"
						},
						{
							"indexed": false,
							"name": "res",
							"type": "uint256"
						}
					],
					"name": "MostrarResultado",
					"type": "event"
				}
			],
			"devdoc": {
				"methods": {}
			},
			"evm": {
				"assembly": "    /* \"CarreraDeCaballos.sol\":28:1893  contract CarreraDeCaballos {\r... */\n  mstore(0x40, 0x80)\n    /* \"CarreraDeCaballos.sol\":319:320  0 */\n  0x0\n    /* \"CarreraDeCaballos.sol\":303:320  uint contador = 0 */\n  dup1\n  sstore\n    /* \"CarreraDeCaballos.sol\":344:345  0 */\n  0x0\n    /* \"CarreraDeCaballos.sol\":327:345  uint randNonce = 0 */\n  0x1\n  sstore\n    /* \"CarreraDeCaballos.sol\":28:1893  contract CarreraDeCaballos {\r... */\n  callvalue\n    /* \"--CODEGEN--\":8:17   */\n  dup1\n    /* \"--CODEGEN--\":5:7   */\n  iszero\n  tag_1\n  jumpi\n    /* \"--CODEGEN--\":30:31   */\n  0x0\n    /* \"--CODEGEN--\":27:28   */\n  dup1\n    /* \"--CODEGEN--\":20:32   */\n  revert\n    /* \"--CODEGEN--\":5:7   */\ntag_1:\n    /* \"CarreraDeCaballos.sol\":28:1893  contract CarreraDeCaballos {\r... */\n  pop\n  dataSize(sub_0)\n  dup1\n  dataOffset(sub_0)\n  0x0\n  codecopy\n  0x0\n  return\nstop\n\nsub_0: assembly {\n        /* \"CarreraDeCaballos.sol\":28:1893  contract CarreraDeCaballos {\r... */\n      mstore(0x40, 0x80)\n      jumpi(tag_1, lt(calldatasize, 0x4))\n      calldataload(0x0)\n      0x100000000000000000000000000000000000000000000000000000000\n      swap1\n      div\n      0xffffffff\n      and\n      dup1\n      0x1d490474\n      eq\n      tag_2\n      jumpi\n      dup1\n      0x6b6f0494\n      eq\n      tag_3\n      jumpi\n      dup1\n      0xcf073811\n      eq\n      tag_4\n      jumpi\n      dup1\n      0xff9ac5e3\n      eq\n      tag_5\n      jumpi\n    tag_1:\n      0x0\n      dup1\n      revert\n        /* \"CarreraDeCaballos.sol\":449:503  mapping (address => uint) public numeroCaballosPersona */\n    tag_2:\n      callvalue\n        /* \"--CODEGEN--\":8:17   */\n      dup1\n        /* \"--CODEGEN--\":5:7   */\n      iszero\n      tag_6\n      jumpi\n        /* \"--CODEGEN--\":30:31   */\n      0x0\n        /* \"--CODEGEN--\":27:28   */\n      dup1\n        /* \"--CODEGEN--\":20:32   */\n      revert\n        /* \"--CODEGEN--\":5:7   */\n    tag_6:\n        /* \"CarreraDeCaballos.sol\":449:503  mapping (address => uint) public numeroCaballosPersona */\n      pop\n      tag_7\n      0x4\n      dup1\n      calldatasize\n      sub\n      dup2\n      add\n      swap1\n      dup1\n      dup1\n      calldataload\n      0xffffffffffffffffffffffffffffffffffffffff\n      and\n      swap1\n      0x20\n      add\n      swap1\n      swap3\n      swap2\n      swap1\n      pop\n      pop\n      pop\n      jump(tag_8)\n    tag_7:\n      mload(0x40)\n      dup1\n      dup3\n      dup2\n      mstore\n      0x20\n      add\n      swap2\n      pop\n      pop\n      mload(0x40)\n      dup1\n      swap2\n      sub\n      swap1\n      return\n        /* \"CarreraDeCaballos.sol\":1039:1790  function Apostar(uint dineroApostar) payable public returns(string) {\r... */\n    tag_3:\n      tag_9\n      0x4\n      dup1\n      calldatasize\n      sub\n      dup2\n      add\n      swap1\n      dup1\n      dup1\n      calldataload\n      swap1\n      0x20\n      add\n      swap1\n      swap3\n      swap2\n      swap1\n      pop\n      pop\n      pop\n      jump(tag_10)\n    tag_9:\n      mload(0x40)\n      dup1\n      dup1\n      0x20\n      add\n      dup3\n      dup2\n      sub\n      dup3\n      mstore\n      dup4\n      dup2\n      dup2\n      mload\n      dup2\n      mstore\n      0x20\n      add\n      swap2\n      pop\n      dup1\n      mload\n      swap1\n      0x20\n      add\n      swap1\n      dup1\n      dup4\n      dup4\n        /* \"--CODEGEN--\":23:24   */\n      0x0\n        /* \"--CODEGEN--\":8:108   */\n    tag_11:\n        /* \"--CODEGEN--\":33:36   */\n      dup4\n        /* \"--CODEGEN--\":30:31   */\n      dup2\n        /* \"--CODEGEN--\":27:37   */\n      lt\n        /* \"--CODEGEN--\":8:108   */\n      iszero\n      tag_12\n      jumpi\n        /* \"--CODEGEN--\":99:100   */\n      dup1\n        /* \"--CODEGEN--\":94:97   */\n      dup3\n        /* \"--CODEGEN--\":90:101   */\n      add\n        /* \"--CODEGEN--\":84:102   */\n      mload\n        /* \"--CODEGEN--\":80:81   */\n      dup2\n        /* \"--CODEGEN--\":75:78   */\n      dup5\n        /* \"--CODEGEN--\":71:82   */\n      add\n        /* \"--CODEGEN--\":64:103   */\n      mstore\n        /* \"--CODEGEN--\":52:54   */\n      0x20\n        /* \"--CODEGEN--\":49:50   */\n      dup2\n        /* \"--CODEGEN--\":45:55   */\n      add\n        /* \"--CODEGEN--\":40:55   */\n      swap1\n      pop\n        /* \"--CODEGEN--\":8:108   */\n      jump(tag_11)\n    tag_12:\n        /* \"--CODEGEN--\":12:26   */\n      pop\n        /* \"CarreraDeCaballos.sol\":1039:1790  function Apostar(uint dineroApostar) payable public returns(string) {\r... */\n      pop\n      pop\n      pop\n      swap1\n      pop\n      swap1\n      dup2\n      add\n      swap1\n      0x1f\n      and\n      dup1\n      iszero\n      tag_14\n      jumpi\n      dup1\n      dup3\n      sub\n      dup1\n      mload\n      0x1\n      dup4\n      0x20\n      sub\n      0x100\n      exp\n      sub\n      not\n      and\n      dup2\n      mstore\n      0x20\n      add\n      swap2\n      pop\n    tag_14:\n      pop\n      swap3\n      pop\n      pop\n      pop\n      mload(0x40)\n      dup1\n      swap2\n      sub\n      swap1\n      return\n        /* \"CarreraDeCaballos.sol\":358:388  Caballo[] public listaCaballos */\n    tag_4:\n      callvalue\n        /* \"--CODEGEN--\":8:17   */\n      dup1\n        /* \"--CODEGEN--\":5:7   */\n      iszero\n      tag_15\n      jumpi\n        /* \"--CODEGEN--\":30:31   */\n      0x0\n        /* \"--CODEGEN--\":27:28   */\n      dup1\n        /* \"--CODEGEN--\":20:32   */\n      revert\n        /* \"--CODEGEN--\":5:7   */\n    tag_15:\n        /* \"CarreraDeCaballos.sol\":358:388  Caballo[] public listaCaballos */\n      pop\n      tag_16\n      0x4\n      dup1\n      calldatasize\n      sub\n      dup2\n      add\n      swap1\n      dup1\n      dup1\n      calldataload\n      swap1\n      0x20\n      add\n      swap1\n      swap3\n      swap2\n      swap1\n      pop\n      pop\n      pop\n      jump(tag_17)\n    tag_16:\n      mload(0x40)\n      dup1\n      dup9\n      0xffffffffffffffffffffffffffffffffffffffff\n      and\n      0xffffffffffffffffffffffffffffffffffffffff\n      and\n      dup2\n      mstore\n      0x20\n      add\n      dup1\n      0x20\n      add\n      dup1\n      0x20\n      add\n      dup8\n      dup2\n      mstore\n      0x20\n      add\n      dup7\n      dup2\n      mstore\n      0x20\n      add\n      dup6\n      dup2\n      mstore\n      0x20\n      add\n      dup5\n      dup2\n      mstore\n      0x20\n      add\n      dup4\n      dup2\n      sub\n      dup4\n      mstore\n      dup10\n      dup2\n      dup2\n      mload\n      dup2\n      mstore\n      0x20\n      add\n      swap2\n      pop\n      dup1\n      mload\n      swap1\n      0x20\n      add\n      swap1\n      dup1\n      dup4\n      dup4\n        /* \"--CODEGEN--\":23:24   */\n      0x0\n        /* \"--CODEGEN--\":8:108   */\n    tag_18:\n        /* \"--CODEGEN--\":33:36   */\n      dup4\n        /* \"--CODEGEN--\":30:31   */\n      dup2\n        /* \"--CODEGEN--\":27:37   */\n      lt\n        /* \"--CODEGEN--\":8:108   */\n      iszero\n      tag_19\n      jumpi\n        /* \"--CODEGEN--\":99:100   */\n      dup1\n        /* \"--CODEGEN--\":94:97   */\n      dup3\n        /* \"--CODEGEN--\":90:101   */\n      add\n        /* \"--CODEGEN--\":84:102   */\n      mload\n        /* \"--CODEGEN--\":80:81   */\n      dup2\n        /* \"--CODEGEN--\":75:78   */\n      dup5\n        /* \"--CODEGEN--\":71:82   */\n      add\n        /* \"--CODEGEN--\":64:103   */\n      mstore\n        /* \"--CODEGEN--\":52:54   */\n      0x20\n        /* \"--CODEGEN--\":49:50   */\n      dup2\n        /* \"--CODEGEN--\":45:55   */\n      add\n        /* \"--CODEGEN--\":40:55   */\n      swap1\n      pop\n        /* \"--CODEGEN--\":8:108   */\n      jump(tag_18)\n    tag_19:\n        /* \"--CODEGEN--\":12:26   */\n      pop\n        /* \"CarreraDeCaballos.sol\":358:388  Caballo[] public listaCaballos */\n      pop\n      pop\n      pop\n      swap1\n      pop\n      swap1\n      dup2\n      add\n      swap1\n      0x1f\n      and\n      dup1\n      iszero\n      tag_21\n      jumpi\n      dup1\n      dup3\n      sub\n      dup1\n      mload\n      0x1\n      dup4\n      0x20\n      sub\n      0x100\n      exp\n      sub\n      not\n      and\n      dup2\n      mstore\n      0x20\n      add\n      swap2\n      pop\n    tag_21:\n      pop\n      dup4\n      dup2\n      sub\n      dup3\n      mstore\n      dup9\n      dup2\n      dup2\n      mload\n      dup2\n      mstore\n      0x20\n      add\n      swap2\n      pop\n      dup1\n      mload\n      swap1\n      0x20\n      add\n      swap1\n      dup1\n      dup4\n      dup4\n        /* \"--CODEGEN--\":23:24   */\n      0x0\n        /* \"--CODEGEN--\":8:108   */\n    tag_22:\n        /* \"--CODEGEN--\":33:36   */\n      dup4\n        /* \"--CODEGEN--\":30:31   */\n      dup2\n        /* \"--CODEGEN--\":27:37   */\n      lt\n        /* \"--CODEGEN--\":8:108   */\n      iszero\n      tag_23\n      jumpi\n        /* \"--CODEGEN--\":99:100   */\n      dup1\n        /* \"--CODEGEN--\":94:97   */\n      dup3\n        /* \"--CODEGEN--\":90:101   */\n      add\n        /* \"--CODEGEN--\":84:102   */\n      mload\n        /* \"--CODEGEN--\":80:81   */\n      dup2\n        /* \"--CODEGEN--\":75:78   */\n      dup5\n        /* \"--CODEGEN--\":71:82   */\n      add\n        /* \"--CODEGEN--\":64:103   */\n      mstore\n        /* \"--CODEGEN--\":52:54   */\n      0x20\n        /* \"--CODEGEN--\":49:50   */\n      dup2\n        /* \"--CODEGEN--\":45:55   */\n      add\n        /* \"--CODEGEN--\":40:55   */\n      swap1\n      pop\n        /* \"--CODEGEN--\":8:108   */\n      jump(tag_22)\n    tag_23:\n        /* \"--CODEGEN--\":12:26   */\n      pop\n        /* \"CarreraDeCaballos.sol\":358:388  Caballo[] public listaCaballos */\n      pop\n      pop\n      pop\n      swap1\n      pop\n      swap1\n      dup2\n      add\n      swap1\n      0x1f\n      and\n      dup1\n      iszero\n      tag_25\n      jumpi\n      dup1\n      dup3\n      sub\n      dup1\n      mload\n      0x1\n      dup4\n      0x20\n      sub\n      0x100\n      exp\n      sub\n      not\n      and\n      dup2\n      mstore\n      0x20\n      add\n      swap2\n      pop\n    tag_25:\n      pop\n      swap10\n      pop\n      pop\n      pop\n      pop\n      pop\n      pop\n      pop\n      pop\n      pop\n      pop\n      mload(0x40)\n      dup1\n      swap2\n      sub\n      swap1\n      return\n        /* \"CarreraDeCaballos.sol\":678:1032  function anadirCaballo(string _nombreCaballo, string _nombreJinete, uint _edadCaballo, uint _edadJinete) public restriccion returns (uint) {\r... */\n    tag_5:\n      callvalue\n        /* \"--CODEGEN--\":8:17   */\n      dup1\n        /* \"--CODEGEN--\":5:7   */\n      iszero\n      tag_26\n      jumpi\n        /* \"--CODEGEN--\":30:31   */\n      0x0\n        /* \"--CODEGEN--\":27:28   */\n      dup1\n        /* \"--CODEGEN--\":20:32   */\n      revert\n        /* \"--CODEGEN--\":5:7   */\n    tag_26:\n        /* \"CarreraDeCaballos.sol\":678:1032  function anadirCaballo(string _nombreCaballo, string _nombreJinete, uint _edadCaballo, uint _edadJinete) public restriccion returns (uint) {\r... */\n      pop\n      tag_27\n      0x4\n      dup1\n      calldatasize\n      sub\n      dup2\n      add\n      swap1\n      dup1\n      dup1\n      calldataload\n      swap1\n      0x20\n      add\n      swap1\n      dup3\n      add\n      dup1\n      calldataload\n      swap1\n      0x20\n      add\n      swap1\n      dup1\n      dup1\n      0x1f\n      add\n      0x20\n      dup1\n      swap2\n      div\n      mul\n      0x20\n      add\n      mload(0x40)\n      swap1\n      dup2\n      add\n      0x40\n      mstore\n      dup1\n      swap4\n      swap3\n      swap2\n      swap1\n      dup2\n      dup2\n      mstore\n      0x20\n      add\n      dup4\n      dup4\n      dup1\n      dup3\n      dup5\n      calldatacopy\n      dup3\n      add\n      swap2\n      pop\n      pop\n      pop\n      pop\n      pop\n      pop\n      swap2\n      swap3\n      swap2\n      swap3\n      swap1\n      dup1\n      calldataload\n      swap1\n      0x20\n      add\n      swap1\n      dup3\n      add\n      dup1\n      calldataload\n      swap1\n      0x20\n      add\n      swap1\n      dup1\n      dup1\n      0x1f\n      add\n      0x20\n      dup1\n      swap2\n      div\n      mul\n      0x20\n      add\n      mload(0x40)\n      swap1\n      dup2\n      add\n      0x40\n      mstore\n      dup1\n      swap4\n      swap3\n      swap2\n      swap1\n      dup2\n      dup2\n      mstore\n      0x20\n      add\n      dup4\n      dup4\n      dup1\n      dup3\n      dup5\n      calldatacopy\n      dup3\n      add\n      swap2\n      pop\n      pop\n      pop\n      pop\n      pop\n      pop\n      swap2\n      swap3\n      swap2\n      swap3\n      swap1\n      dup1\n      calldataload\n      swap1\n      0x20\n      add\n      swap1\n      swap3\n      swap2\n      swap1\n      dup1\n      calldataload\n      swap1\n      0x20\n      add\n      swap1\n      swap3\n      swap2\n      swap1\n      pop\n      pop\n      pop\n      jump(tag_28)\n    tag_27:\n      mload(0x40)\n      dup1\n      dup3\n      dup2\n      mstore\n      0x20\n      add\n      swap2\n      pop\n      pop\n      mload(0x40)\n      dup1\n      swap2\n      sub\n      swap1\n      return\n        /* \"CarreraDeCaballos.sol\":449:503  mapping (address => uint) public numeroCaballosPersona */\n    tag_8:\n      mstore(0x20, 0x3)\n      dup1\n      0x0\n      mstore\n      keccak256(0x0, 0x40)\n      0x0\n      swap2\n      pop\n      swap1\n      pop\n      sload\n      dup2\n      jump\t// out\n        /* \"CarreraDeCaballos.sol\":1039:1790  function Apostar(uint dineroApostar) payable public returns(string) {\r... */\n    tag_10:\n        /* \"CarreraDeCaballos.sol\":1099:1105  string */\n      0x60\n        /* \"CarreraDeCaballos.sol\":1220:1234  uint256 result */\n      0x0\n        /* \"CarreraDeCaballos.sol\":1360:1369  uint256 i */\n      dup1\n        /* \"CarreraDeCaballos.sol\":1138:1151  dineroApostar */\n      dup4\n        /* \"CarreraDeCaballos.sol\":1125:1134  msg.value */\n      callvalue\n        /* \"CarreraDeCaballos.sol\":1125:1151  msg.value == dineroApostar */\n      eq\n        /* \"CarreraDeCaballos.sol\":1117:1152  require(msg.value == dineroApostar) */\n      iszero\n      iszero\n      tag_30\n      jumpi\n      0x0\n      dup1\n      revert\n    tag_30:\n        /* \"CarreraDeCaballos.sol\":1163:1172  randNonce */\n      0x1\n      0x0\n        /* \"CarreraDeCaballos.sol\":1163:1174  randNonce++ */\n      dup2\n      sload\n      dup1\n      swap3\n      swap2\n      swap1\n      0x1\n      add\n      swap2\n      swap1\n      pop\n      sstore\n      pop\n        /* \"CarreraDeCaballos.sol\":1314:1327  listaCaballos */\n      0x2\n        /* \"CarreraDeCaballos.sol\":1314:1334  listaCaballos.length */\n      dup1\n      sload\n      swap1\n      pop\n        /* \"CarreraDeCaballos.sol\":1272:1275  now */\n      timestamp\n        /* \"CarreraDeCaballos.sol\":1277:1290  listaCaballos */\n      0x2\n        /* \"CarreraDeCaballos.sol\":1277:1297  listaCaballos.length */\n      dup1\n      sload\n      swap1\n      pop\n        /* \"CarreraDeCaballos.sol\":1299:1308  randNonce */\n      sload(0x1)\n        /* \"CarreraDeCaballos.sol\":1255:1309  abi.encodePacked(now, listaCaballos.length, randNonce) */\n      add(0x20, mload(0x40))\n      dup1\n      dup5\n      dup2\n      mstore\n      0x20\n      add\n      dup4\n      dup2\n      mstore\n      0x20\n      add\n      dup3\n      dup2\n      mstore\n      0x20\n      add\n      swap4\n      pop\n      pop\n      pop\n      pop\n      mload(0x40)\n        /* \"--CODEGEN--\":49:53   */\n      0x20\n        /* \"--CODEGEN--\":39:46   */\n      dup2\n        /* \"--CODEGEN--\":30:37   */\n      dup4\n        /* \"--CODEGEN--\":26:47   */\n      sub\n        /* \"--CODEGEN--\":22:54   */\n      sub\n        /* \"--CODEGEN--\":13:20   */\n      dup2\n        /* \"--CODEGEN--\":6:55   */\n      mstore\n        /* \"CarreraDeCaballos.sol\":1255:1309  abi.encodePacked(now, listaCaballos.length, randNonce) */\n      swap1\n      0x40\n      mstore\n        /* \"CarreraDeCaballos.sol\":1245:1310  keccak256(abi.encodePacked(now, listaCaballos.length, randNonce)) */\n      mload(0x40)\n      dup1\n      dup3\n      dup1\n      mload\n      swap1\n      0x20\n      add\n      swap1\n      dup1\n      dup4\n      dup4\n        /* \"--CODEGEN--\":36:189   */\n    tag_31:\n        /* \"--CODEGEN--\":66:68   */\n      0x20\n        /* \"--CODEGEN--\":61:64   */\n      dup4\n        /* \"--CODEGEN--\":58:69   */\n      lt\n        /* \"--CODEGEN--\":51:70   */\n      iszero\n        /* \"--CODEGEN--\":36:189   */\n      iszero\n      tag_32\n      jumpi\n        /* \"--CODEGEN--\":182:185   */\n      dup1\n        /* \"--CODEGEN--\":176:186   */\n      mload\n        /* \"--CODEGEN--\":171:174   */\n      dup3\n        /* \"--CODEGEN--\":164:187   */\n      mstore\n        /* \"--CODEGEN--\":98:100   */\n      0x20\n        /* \"--CODEGEN--\":93:96   */\n      dup3\n        /* \"--CODEGEN--\":89:101   */\n      add\n        /* \"--CODEGEN--\":82:101   */\n      swap2\n      pop\n        /* \"--CODEGEN--\":123:125   */\n      0x20\n        /* \"--CODEGEN--\":118:121   */\n      dup2\n        /* \"--CODEGEN--\":114:126   */\n      add\n        /* \"--CODEGEN--\":107:126   */\n      swap1\n      pop\n        /* \"--CODEGEN--\":148:150   */\n      0x20\n        /* \"--CODEGEN--\":143:146   */\n      dup4\n        /* \"--CODEGEN--\":139:151   */\n      sub\n        /* \"--CODEGEN--\":132:151   */\n      swap3\n      pop\n        /* \"--CODEGEN--\":36:189   */\n      jump(tag_31)\n    tag_32:\n        /* \"--CODEGEN--\":274:275   */\n      0x1\n        /* \"--CODEGEN--\":267:270   */\n      dup4\n        /* \"--CODEGEN--\":263:265   */\n      0x20\n        /* \"--CODEGEN--\":259:271   */\n      sub\n        /* \"--CODEGEN--\":254:257   */\n      0x100\n        /* \"--CODEGEN--\":250:272   */\n      exp\n        /* \"--CODEGEN--\":246:276   */\n      sub\n        /* \"--CODEGEN--\":315:319   */\n      dup1\n        /* \"--CODEGEN--\":311:320   */\n      not\n        /* \"--CODEGEN--\":305:308   */\n      dup3\n        /* \"--CODEGEN--\":299:309   */\n      mload\n        /* \"--CODEGEN--\":295:321   */\n      and\n        /* \"--CODEGEN--\":356:360   */\n      dup2\n        /* \"--CODEGEN--\":350:353   */\n      dup5\n        /* \"--CODEGEN--\":344:354   */\n      mload\n        /* \"--CODEGEN--\":340:361   */\n      and\n        /* \"--CODEGEN--\":389:396   */\n      dup1\n        /* \"--CODEGEN--\":380:387   */\n      dup3\n        /* \"--CODEGEN--\":377:397   */\n      or\n        /* \"--CODEGEN--\":372:375   */\n      dup6\n        /* \"--CODEGEN--\":365:398   */\n      mstore\n        /* \"--CODEGEN--\":3:402   */\n      pop\n      pop\n      pop\n        /* \"CarreraDeCaballos.sol\":1245:1310  keccak256(abi.encodePacked(now, listaCaballos.length, randNonce)) */\n      pop\n      pop\n      pop\n      swap1\n      pop\n      add\n      swap2\n      pop\n      pop\n      mload(0x40)\n      dup1\n      swap2\n      sub\n      swap1\n      keccak256\n        /* \"CarreraDeCaballos.sol\":1237:1311  uint256(keccak256(abi.encodePacked(now, listaCaballos.length, randNonce))) */\n      0x1\n      swap1\n      div\n        /* \"CarreraDeCaballos.sol\":1237:1334  uint256(keccak256(abi.encodePacked(now, listaCaballos.length, randNonce))) % listaCaballos.length */\n      dup2\n      iszero\n      iszero\n      tag_34\n      jumpi\n      invalid\n    tag_34:\n      mod\n        /* \"CarreraDeCaballos.sol\":1220:1334  uint256 result = uint256(keccak256(abi.encodePacked(now, listaCaballos.length, randNonce))) % listaCaballos.length */\n      swap2\n      pop\n        /* \"CarreraDeCaballos.sol\":1372:1373  0 */\n      0x0\n        /* \"CarreraDeCaballos.sol\":1360:1373  uint256 i = 0 */\n      swap1\n      pop\n        /* \"CarreraDeCaballos.sol\":1355:1764  for (uint256 i = 0; i < listaCaballos.length; i++) {\r... */\n    tag_35:\n        /* \"CarreraDeCaballos.sol\":1379:1392  listaCaballos */\n      0x2\n        /* \"CarreraDeCaballos.sol\":1379:1399  listaCaballos.length */\n      dup1\n      sload\n      swap1\n      pop\n        /* \"CarreraDeCaballos.sol\":1375:1376  i */\n      dup2\n        /* \"CarreraDeCaballos.sol\":1375:1399  i < listaCaballos.length */\n      lt\n        /* \"CarreraDeCaballos.sol\":1355:1764  for (uint256 i = 0; i < listaCaballos.length; i++) {\r... */\n      iszero\n      tag_36\n      jumpi\n        /* \"CarreraDeCaballos.sol\":1435:1436  i */\n      dup1\n        /* \"CarreraDeCaballos.sol\":1425:1431  result */\n      dup3\n        /* \"CarreraDeCaballos.sol\":1425:1436  result == i */\n      eq\n        /* \"CarreraDeCaballos.sol\":1421:1753  if (result == i) {\r... */\n      iszero\n      tag_38\n      jumpi\n        /* \"CarreraDeCaballos.sol\":1475:1488  listaCaballos */\n      0x2\n        /* \"CarreraDeCaballos.sol\":1489:1490  i */\n      dup2\n        /* \"CarreraDeCaballos.sol\":1475:1491  listaCaballos[i] */\n      dup2\n      sload\n      dup2\n      lt\n      iszero\n      iszero\n      tag_39\n      jumpi\n      invalid\n    tag_39:\n      swap1\n      0x0\n      mstore\n      keccak256(0x0, 0x20)\n      swap1\n      0x7\n      mul\n      add\n        /* \"CarreraDeCaballos.sol\":1475:1494  listaCaballos[i].id */\n      0x0\n      add\n      0x0\n      swap1\n      sload\n      swap1\n      0x100\n      exp\n      swap1\n      div\n      0xffffffffffffffffffffffffffffffffffffffff\n      and\n        /* \"CarreraDeCaballos.sol\":1461:1494  msg.sender == listaCaballos[i].id */\n      0xffffffffffffffffffffffffffffffffffffffff\n      and\n        /* \"CarreraDeCaballos.sol\":1461:1471  msg.sender */\n      caller\n        /* \"CarreraDeCaballos.sol\":1461:1494  msg.sender == listaCaballos[i].id */\n      0xffffffffffffffffffffffffffffffffffffffff\n      and\n      eq\n        /* \"CarreraDeCaballos.sol\":1457:1738  if (msg.sender == listaCaballos[i].id) {\r... */\n      iszero\n      tag_41\n      jumpi\n        /* \"CarreraDeCaballos.sol\":1519:1528  Balance() */\n      tag_42\n        /* \"CarreraDeCaballos.sol\":1519:1526  Balance */\n      tag_43\n        /* \"CarreraDeCaballos.sol\":1519:1528  Balance() */\n      jump\t// in\n    tag_42:\n        /* \"CarreraDeCaballos.sol\":1551:1570  return \"Has ganado\" */\n      0x40\n      dup1\n      mload\n      swap1\n      dup2\n      add\n      0x40\n      mstore\n      dup1\n      0xa\n      dup2\n      mstore\n      0x20\n      add\n      0x4861732067616e61646f00000000000000000000000000000000000000000000\n      dup2\n      mstore\n      pop\n      swap3\n      pop\n      jump(tag_29)\n        /* \"CarreraDeCaballos.sol\":1457:1738  if (msg.sender == listaCaballos[i].id) {\r... */\n    tag_41:\n        /* \"CarreraDeCaballos.sol\":1624:1675  MostrarResultado(\"El caballo ganador es: \", result) */\n      0x606155c46e96e8ba564b872655c2a4d542d452f03f8a72f24df3dea203e12633\n        /* \"CarreraDeCaballos.sol\":1668:1674  result */\n      dup3\n        /* \"CarreraDeCaballos.sol\":1624:1675  MostrarResultado(\"El caballo ganador es: \", result) */\n      mload(0x40)\n      dup1\n      dup1\n      0x20\n      add\n      dup4\n      dup2\n      mstore\n      0x20\n      add\n      dup3\n      dup2\n      sub\n      dup3\n      mstore\n      0x17\n      dup2\n      mstore\n      0x20\n      add\n      dup1\n      0x456c20636162616c6c6f2067616e61646f722065733a20000000000000000000\n      dup2\n      mstore\n      pop\n      0x20\n      add\n      swap3\n      pop\n      pop\n      pop\n      mload(0x40)\n      dup1\n      swap2\n      sub\n      swap1\n      log1\n        /* \"CarreraDeCaballos.sol\":1698:1718  return \"Has perdido\" */\n      0x40\n      dup1\n      mload\n      swap1\n      dup2\n      add\n      0x40\n      mstore\n      dup1\n      0xb\n      dup2\n      mstore\n      0x20\n      add\n      0x486173207065726469646f000000000000000000000000000000000000000000\n      dup2\n      mstore\n      pop\n      swap3\n      pop\n      jump(tag_29)\n        /* \"CarreraDeCaballos.sol\":1421:1753  if (result == i) {\r... */\n    tag_38:\n        /* \"CarreraDeCaballos.sol\":1401:1404  i++ */\n      dup1\n      dup1\n      0x1\n      add\n      swap2\n      pop\n      pop\n        /* \"CarreraDeCaballos.sol\":1355:1764  for (uint256 i = 0; i < listaCaballos.length; i++) {\r... */\n      jump(tag_35)\n    tag_36:\n        /* \"CarreraDeCaballos.sol\":1039:1790  function Apostar(uint dineroApostar) payable public returns(string) {\r... */\n    tag_29:\n      pop\n      pop\n      swap2\n      swap1\n      pop\n      jump\t// out\n        /* \"CarreraDeCaballos.sol\":358:388  Caballo[] public listaCaballos */\n    tag_17:\n      0x2\n      dup2\n      dup2\n      sload\n      dup2\n      lt\n      iszero\n      iszero\n      tag_45\n      jumpi\n      invalid\n    tag_45:\n      swap1\n      0x0\n      mstore\n      keccak256(0x0, 0x20)\n      swap1\n      0x7\n      mul\n      add\n      0x0\n      swap2\n      pop\n      swap1\n      pop\n      dup1\n      0x0\n      add\n      0x0\n      swap1\n      sload\n      swap1\n      0x100\n      exp\n      swap1\n      div\n      0xffffffffffffffffffffffffffffffffffffffff\n      and\n      swap1\n      dup1\n      0x1\n      add\n      dup1\n      sload\n      0x1\n      dup2\n      0x1\n      and\n      iszero\n      0x100\n      mul\n      sub\n      and\n      0x2\n      swap1\n      div\n      dup1\n      0x1f\n      add\n      0x20\n      dup1\n      swap2\n      div\n      mul\n      0x20\n      add\n      mload(0x40)\n      swap1\n      dup2\n      add\n      0x40\n      mstore\n      dup1\n      swap3\n      swap2\n      swap1\n      dup2\n      dup2\n      mstore\n      0x20\n      add\n      dup3\n      dup1\n      sload\n      0x1\n      dup2\n      0x1\n      and\n      iszero\n      0x100\n      mul\n      sub\n      and\n      0x2\n      swap1\n      div\n      dup1\n      iszero\n      tag_47\n      jumpi\n      dup1\n      0x1f\n      lt\n      tag_48\n      jumpi\n      0x100\n      dup1\n      dup4\n      sload\n      div\n      mul\n      dup4\n      mstore\n      swap2\n      0x20\n      add\n      swap2\n      jump(tag_47)\n    tag_48:\n      dup3\n      add\n      swap2\n      swap1\n      0x0\n      mstore\n      keccak256(0x0, 0x20)\n      swap1\n    tag_49:\n      dup2\n      sload\n      dup2\n      mstore\n      swap1\n      0x1\n      add\n      swap1\n      0x20\n      add\n      dup1\n      dup4\n      gt\n      tag_49\n      jumpi\n      dup3\n      swap1\n      sub\n      0x1f\n      and\n      dup3\n      add\n      swap2\n    tag_47:\n      pop\n      pop\n      pop\n      pop\n      pop\n      swap1\n      dup1\n      0x2\n      add\n      dup1\n      sload\n      0x1\n      dup2\n      0x1\n      and\n      iszero\n      0x100\n      mul\n      sub\n      and\n      0x2\n      swap1\n      div\n      dup1\n      0x1f\n      add\n      0x20\n      dup1\n      swap2\n      div\n      mul\n      0x20\n      add\n      mload(0x40)\n      swap1\n      dup2\n      add\n      0x40\n      mstore\n      dup1\n      swap3\n      swap2\n      swap1\n      dup2\n      dup2\n      mstore\n      0x20\n      add\n      dup3\n      dup1\n      sload\n      0x1\n      dup2\n      0x1\n      and\n      iszero\n      0x100\n      mul\n      sub\n      and\n      0x2\n      swap1\n      div\n      dup1\n      iszero\n      tag_50\n      jumpi\n      dup1\n      0x1f\n      lt\n      tag_51\n      jumpi\n      0x100\n      dup1\n      dup4\n      sload\n      div\n      mul\n      dup4\n      mstore\n      swap2\n      0x20\n      add\n      swap2\n      jump(tag_50)\n    tag_51:\n      dup3\n      add\n      swap2\n      swap1\n      0x0\n      mstore\n      keccak256(0x0, 0x20)\n      swap1\n    tag_52:\n      dup2\n      sload\n      dup2\n      mstore\n      swap1\n      0x1\n      add\n      swap1\n      0x20\n      add\n      dup1\n      dup4\n      gt\n      tag_52\n      jumpi\n      dup3\n      swap1\n      sub\n      0x1f\n      and\n      dup3\n      add\n      swap2\n    tag_50:\n      pop\n      pop\n      pop\n      pop\n      pop\n      swap1\n      dup1\n      0x3\n      add\n      sload\n      swap1\n      dup1\n      0x4\n      add\n      sload\n      swap1\n      dup1\n      0x5\n      add\n      sload\n      swap1\n      dup1\n      0x6\n      add\n      sload\n      swap1\n      pop\n      dup8\n      jump\t// out\n        /* \"CarreraDeCaballos.sol\":678:1032  function anadirCaballo(string _nombreCaballo, string _nombreJinete, uint _edadCaballo, uint _edadJinete) public restriccion returns (uint) {\r... */\n    tag_28:\n        /* \"CarreraDeCaballos.sol\":811:815  uint */\n      0x0\n        /* \"CarreraDeCaballos.sol\":592:593  1 */\n      0x1\n        /* \"CarreraDeCaballos.sol\":556:577  numeroCaballosPersona */\n      0x3\n        /* \"CarreraDeCaballos.sol\":556:589  numeroCaballosPersona[msg.sender] */\n      0x0\n        /* \"CarreraDeCaballos.sol\":578:588  msg.sender */\n      caller\n        /* \"CarreraDeCaballos.sol\":556:589  numeroCaballosPersona[msg.sender] */\n      0xffffffffffffffffffffffffffffffffffffffff\n      and\n      0xffffffffffffffffffffffffffffffffffffffff\n      and\n      dup2\n      mstore\n      0x20\n      add\n      swap1\n      dup2\n      mstore\n      0x20\n      add\n      0x0\n      keccak256\n      sload\n        /* \"CarreraDeCaballos.sol\":556:593  numeroCaballosPersona[msg.sender] < 1 */\n      lt\n        /* \"CarreraDeCaballos.sol\":548:642  require(numeroCaballosPersona[msg.sender] < 1, \"Solo se puede añadir un caballo por persona\") */\n      iszero\n      iszero\n      tag_54\n      jumpi\n      mload(0x40)\n      0x8c379a000000000000000000000000000000000000000000000000000000000\n      dup2\n      mstore\n      0x4\n      add\n      dup1\n      dup1\n      0x20\n      add\n      dup3\n      dup2\n      sub\n      dup3\n      mstore\n      0x2c\n      dup2\n      mstore\n      0x20\n      add\n      dup1\n      0x536f6c6f2073652070756564652061c3b16164697220756e20636162616c6c6f\n      dup2\n      mstore\n      0x20\n      add\n      0x20706f7220706572736f6e610000000000000000000000000000000000000000\n      dup2\n      mstore\n      pop\n      0x40\n      add\n      swap2\n      pop\n      pop\n      mload(0x40)\n      dup1\n      swap2\n      sub\n      swap1\n      revert\n    tag_54:\n        /* \"CarreraDeCaballos.sol\":828:841  listaCaballos */\n      0x2\n        /* \"CarreraDeCaballos.sol\":847:930  Caballo(msg.sender, _nombreCaballo, _nombreJinete, _edadCaballo, _edadJinete, 0, 0) */\n      0xe0\n      mload(0x40)\n      swap1\n      dup2\n      add\n      0x40\n      mstore\n      dup1\n        /* \"CarreraDeCaballos.sol\":855:865  msg.sender */\n      caller\n        /* \"CarreraDeCaballos.sol\":847:930  Caballo(msg.sender, _nombreCaballo, _nombreJinete, _edadCaballo, _edadJinete, 0, 0) */\n      0xffffffffffffffffffffffffffffffffffffffff\n      and\n      dup2\n      mstore\n      0x20\n      add\n        /* \"CarreraDeCaballos.sol\":867:881  _nombreCaballo */\n      dup8\n        /* \"CarreraDeCaballos.sol\":847:930  Caballo(msg.sender, _nombreCaballo, _nombreJinete, _edadCaballo, _edadJinete, 0, 0) */\n      dup2\n      mstore\n      0x20\n      add\n        /* \"CarreraDeCaballos.sol\":883:896  _nombreJinete */\n      dup7\n        /* \"CarreraDeCaballos.sol\":847:930  Caballo(msg.sender, _nombreCaballo, _nombreJinete, _edadCaballo, _edadJinete, 0, 0) */\n      dup2\n      mstore\n      0x20\n      add\n        /* \"CarreraDeCaballos.sol\":898:910  _edadCaballo */\n      dup6\n        /* \"CarreraDeCaballos.sol\":847:930  Caballo(msg.sender, _nombreCaballo, _nombreJinete, _edadCaballo, _edadJinete, 0, 0) */\n      dup2\n      mstore\n      0x20\n      add\n        /* \"CarreraDeCaballos.sol\":912:923  _edadJinete */\n      dup5\n        /* \"CarreraDeCaballos.sol\":847:930  Caballo(msg.sender, _nombreCaballo, _nombreJinete, _edadCaballo, _edadJinete, 0, 0) */\n      dup2\n      mstore\n      0x20\n      add\n        /* \"CarreraDeCaballos.sol\":925:926  0 */\n      0x0\n        /* \"CarreraDeCaballos.sol\":847:930  Caballo(msg.sender, _nombreCaballo, _nombreJinete, _edadCaballo, _edadJinete, 0, 0) */\n      dup2\n      mstore\n      0x20\n      add\n        /* \"CarreraDeCaballos.sol\":928:929  0 */\n      0x0\n        /* \"CarreraDeCaballos.sol\":847:930  Caballo(msg.sender, _nombreCaballo, _nombreJinete, _edadCaballo, _edadJinete, 0, 0) */\n      dup2\n      mstore\n      pop\n        /* \"CarreraDeCaballos.sol\":828:931  listaCaballos.push(Caballo(msg.sender, _nombreCaballo, _nombreJinete, _edadCaballo, _edadJinete, 0, 0)) */\n      swap1\n      dup1\n        /* \"--CODEGEN--\":39:40   */\n      0x1\n        /* \"--CODEGEN--\":33:36   */\n      dup2\n        /* \"--CODEGEN--\":27:37   */\n      sload\n        /* \"--CODEGEN--\":23:41   */\n      add\n        /* \"--CODEGEN--\":57:67   */\n      dup1\n        /* \"--CODEGEN--\":52:55   */\n      dup3\n        /* \"--CODEGEN--\":45:68   */\n      sstore\n        /* \"--CODEGEN--\":79:89   */\n      dup1\n        /* \"--CODEGEN--\":72:89   */\n      swap2\n      pop\n        /* \"--CODEGEN--\":0:93   */\n      pop\n        /* \"CarreraDeCaballos.sol\":828:931  listaCaballos.push(Caballo(msg.sender, _nombreCaballo, _nombreJinete, _edadCaballo, _edadJinete, 0, 0)) */\n      swap1\n      0x1\n      dup3\n      sub\n      swap1\n      0x0\n      mstore\n      keccak256(0x0, 0x20)\n      swap1\n      0x7\n      mul\n      add\n      0x0\n      swap1\n      swap2\n      swap3\n      swap1\n      swap2\n      swap1\n      swap2\n      pop\n      0x0\n      dup3\n      add\n      mload\n      dup2\n      0x0\n      add\n      exp(0x100, 0x0)\n      dup2\n      sload\n      dup2\n      0xffffffffffffffffffffffffffffffffffffffff\n      mul\n      not\n      and\n      swap1\n      dup4\n      0xffffffffffffffffffffffffffffffffffffffff\n      and\n      mul\n      or\n      swap1\n      sstore\n      pop\n      0x20\n      dup3\n      add\n      mload\n      dup2\n      0x1\n      add\n      swap1\n      dup1\n      mload\n      swap1\n      0x20\n      add\n      swap1\n      tag_57\n      swap3\n      swap2\n      swap1\n      jump\t// in(tag_58)\n    tag_57:\n      pop\n      0x40\n      dup3\n      add\n      mload\n      dup2\n      0x2\n      add\n      swap1\n      dup1\n      mload\n      swap1\n      0x20\n      add\n      swap1\n      tag_59\n      swap3\n      swap2\n      swap1\n      jump\t// in(tag_58)\n    tag_59:\n      pop\n      0x60\n      dup3\n      add\n      mload\n      dup2\n      0x3\n      add\n      sstore\n      0x80\n      dup3\n      add\n      mload\n      dup2\n      0x4\n      add\n      sstore\n      0xa0\n      dup3\n      add\n      mload\n      dup2\n      0x5\n      add\n      sstore\n      0xc0\n      dup3\n      add\n      mload\n      dup2\n      0x6\n      add\n      sstore\n      pop\n      pop\n      pop\n        /* \"CarreraDeCaballos.sol\":942:963  numeroCaballosPersona */\n      0x3\n        /* \"CarreraDeCaballos.sol\":942:975  numeroCaballosPersona[msg.sender] */\n      0x0\n        /* \"CarreraDeCaballos.sol\":964:974  msg.sender */\n      caller\n        /* \"CarreraDeCaballos.sol\":942:975  numeroCaballosPersona[msg.sender] */\n      0xffffffffffffffffffffffffffffffffffffffff\n      and\n      0xffffffffffffffffffffffffffffffffffffffff\n      and\n      dup2\n      mstore\n      0x20\n      add\n      swap1\n      dup2\n      mstore\n      0x20\n      add\n      0x0\n      keccak256\n      0x0\n        /* \"CarreraDeCaballos.sol\":942:977  numeroCaballosPersona[msg.sender]++ */\n      dup2\n      sload\n      dup1\n      swap3\n      swap2\n      swap1\n      0x1\n      add\n      swap2\n      swap1\n      pop\n      sstore\n      pop\n        /* \"CarreraDeCaballos.sol\":988:996  contador */\n      0x0\n      dup1\n        /* \"CarreraDeCaballos.sol\":988:998  contador++ */\n      dup2\n      sload\n      dup1\n      swap3\n      swap2\n      swap1\n      0x1\n      add\n      swap2\n      swap1\n      pop\n      sstore\n      pop\n        /* \"CarreraDeCaballos.sol\":1016:1024  contador */\n      sload(0x0)\n        /* \"CarreraDeCaballos.sol\":1009:1024  return contador */\n      swap1\n      pop\n        /* \"CarreraDeCaballos.sol\":678:1032  function anadirCaballo(string _nombreCaballo, string _nombreJinete, uint _edadCaballo, uint _edadJinete) public restriccion returns (uint) {\r... */\n      swap5\n      swap4\n      pop\n      pop\n      pop\n      pop\n      jump\t// out\n        /* \"CarreraDeCaballos.sol\":1798:1888  function Balance() private {\r... */\n    tag_43:\n        /* \"CarreraDeCaballos.sol\":1836:1846  msg.sender */\n      caller\n        /* \"CarreraDeCaballos.sol\":1836:1855  msg.sender.transfer */\n      0xffffffffffffffffffffffffffffffffffffffff\n      and\n        /* \"CarreraDeCaballos.sol\":1836:1878  msg.sender.transfer(address(this).balance) */\n      0x8fc\n        /* \"CarreraDeCaballos.sol\":1864:1868  this */\n      address\n        /* \"CarreraDeCaballos.sol\":1856:1877  address(this).balance */\n      0xffffffffffffffffffffffffffffffffffffffff\n      and\n      balance\n        /* \"CarreraDeCaballos.sol\":1836:1878  msg.sender.transfer(address(this).balance) */\n      swap1\n      dup2\n      iszero\n      mul\n      swap1\n      mload(0x40)\n      0x0\n      mload(0x40)\n      dup1\n      dup4\n      sub\n      dup2\n      dup6\n      dup9\n      dup9\n      call\n      swap4\n      pop\n      pop\n      pop\n      pop\n      iszero\n        /* \"--CODEGEN--\":8:17   */\n      dup1\n        /* \"--CODEGEN--\":5:7   */\n      iszero\n      tag_61\n      jumpi\n        /* \"--CODEGEN--\":45:61   */\n      returndatasize\n        /* \"--CODEGEN--\":42:43   */\n      0x0\n        /* \"--CODEGEN--\":39:40   */\n      dup1\n        /* \"--CODEGEN--\":24:62   */\n      returndatacopy\n        /* \"--CODEGEN--\":77:93   */\n      returndatasize\n        /* \"--CODEGEN--\":74:75   */\n      0x0\n        /* \"--CODEGEN--\":67:94   */\n      revert\n        /* \"--CODEGEN--\":5:7   */\n    tag_61:\n        /* \"CarreraDeCaballos.sol\":1836:1878  msg.sender.transfer(address(this).balance) */\n      pop\n        /* \"CarreraDeCaballos.sol\":1798:1888  function Balance() private {\r... */\n      jump\t// out\n        /* \"CarreraDeCaballos.sol\":28:1893  contract CarreraDeCaballos {\r... */\n    tag_58:\n      dup3\n      dup1\n      sload\n      0x1\n      dup2\n      0x1\n      and\n      iszero\n      0x100\n      mul\n      sub\n      and\n      0x2\n      swap1\n      div\n      swap1\n      0x0\n      mstore\n      keccak256(0x0, 0x20)\n      swap1\n      0x1f\n      add\n      0x20\n      swap1\n      div\n      dup2\n      add\n      swap3\n      dup3\n      0x1f\n      lt\n      tag_63\n      jumpi\n      dup1\n      mload\n      not(0xff)\n      and\n      dup4\n      dup1\n      add\n      or\n      dup6\n      sstore\n      jump(tag_62)\n    tag_63:\n      dup3\n      dup1\n      add\n      0x1\n      add\n      dup6\n      sstore\n      dup3\n      iszero\n      tag_62\n      jumpi\n      swap2\n      dup3\n      add\n    tag_64:\n      dup3\n      dup2\n      gt\n      iszero\n      tag_65\n      jumpi\n      dup3\n      mload\n      dup3\n      sstore\n      swap2\n      0x20\n      add\n      swap2\n      swap1\n      0x1\n      add\n      swap1\n      jump(tag_64)\n    tag_65:\n    tag_62:\n      pop\n      swap1\n      pop\n      tag_66\n      swap2\n      swap1\n      jump\t// in(tag_67)\n    tag_66:\n      pop\n      swap1\n      jump\t// out\n    tag_67:\n      tag_68\n      swap2\n      swap1\n    tag_69:\n      dup1\n      dup3\n      gt\n      iszero\n      tag_70\n      jumpi\n      0x0\n      dup2\n      0x0\n      swap1\n      sstore\n      pop\n      0x1\n      add\n      jump(tag_69)\n    tag_70:\n      pop\n      swap1\n      jump\n    tag_68:\n      swap1\n      jump\t// out\n\n    auxdata: 0xa165627a7a72305820f05b633c80f4e5179112bbfad84b783595abd37b3d10023b106704676ab02a2e0029\n}\n",
				"bytecode": {
					"linkReferences": {},
					"object": "608060405260008055600060015534801561001957600080fd5b50610b53806100296000396000f300608060405260043610610062576000357c0100000000000000000000000000000000000000000000000000000000900463ffffffff1680631d490474146100675780636b6f0494146100be578063cf07381114610157578063ff9ac5e3146102b8575b600080fd5b34801561007357600080fd5b506100a8600480360381019080803573ffffffffffffffffffffffffffffffffffffffff16906020019092919050505061038f565b6040518082815260200191505060405180910390f35b6100dc600480360381019080803590602001909291905050506103a7565b6040518080602001828103825283818151815260200191508051906020019080838360005b8381101561011c578082015181840152602081019050610101565b50505050905090810190601f1680156101495780820380516001836020036101000a031916815260200191505b509250505060405180910390f35b34801561016357600080fd5b5061018260048036038101908080359060200190929190505050610610565b604051808873ffffffffffffffffffffffffffffffffffffffff1673ffffffffffffffffffffffffffffffffffffffff1681526020018060200180602001878152602001868152602001858152602001848152602001838103835289818151815260200191508051906020019080838360005b838110156102105780820151818401526020810190506101f5565b50505050905090810190601f16801561023d5780820380516001836020036101000a031916815260200191505b50838103825288818151815260200191508051906020019080838360005b8381101561027657808201518184015260208101905061025b565b50505050905090810190601f1680156102a35780820380516001836020036101000a031916815260200191505b50995050505050505050505060405180910390f35b3480156102c457600080fd5b50610379600480360381019080803590602001908201803590602001908080601f0160208091040260200160405190810160405280939291908181526020018383808284378201915050505050509192919290803590602001908201803590602001908080601f016020809104026020016040519081016040528093929190818152602001838380828437820191505050505050919291929080359060200190929190803590602001909291905050506107b1565b6040518082815260200191505060405180910390f35b60036020528060005260406000206000915090505481565b606060008083341415156103ba57600080fd5b600160008154809291906001019190505550600280549050426002805490506001546040516020018084815260200183815260200182815260200193505050506040516020818303038152906040526040518082805190602001908083835b60208310151561043e5780518252602082019150602081019050602083039250610419565b6001836020036101000a03801982511681845116808217855250505050505090500191505060405180910390206001900481151561047857fe5b069150600090505b60028054905081101561060857808214156105fb576002818154811015156104a457fe5b906000526020600020906007020160000160009054906101000a900473ffffffffffffffffffffffffffffffffffffffff1673ffffffffffffffffffffffffffffffffffffffff163373ffffffffffffffffffffffffffffffffffffffff16141561054e57610511610a22565b6040805190810160405280600a81526020017f4861732067616e61646f000000000000000000000000000000000000000000008152509250610609565b7f606155c46e96e8ba564b872655c2a4d542d452f03f8a72f24df3dea203e12633826040518080602001838152602001828103825260178152602001807f456c20636162616c6c6f2067616e61646f722065733a200000000000000000008152506020019250505060405180910390a16040805190810160405280600b81526020017f486173207065726469646f0000000000000000000000000000000000000000008152509250610609565b8080600101915050610480565b5b5050919050565b60028181548110151561061f57fe5b90600052602060002090600702016000915090508060000160009054906101000a900473ffffffffffffffffffffffffffffffffffffffff1690806001018054600181600116156101000203166002900480601f0160208091040260200160405190810160405280929190818152602001828054600181600116156101000203166002900480156106f15780601f106106c6576101008083540402835291602001916106f1565b820191906000526020600020905b8154815290600101906020018083116106d457829003601f168201915b505050505090806002018054600181600116156101000203166002900480601f01602080910402602001604051908101604052809291908181526020018280546001816001161561010002031660029004801561078f5780601f106107645761010080835404028352916020019161078f565b820191906000526020600020905b81548152906001019060200180831161077257829003601f168201915b5050505050908060030154908060040154908060050154908060060154905087565b60006001600360003373ffffffffffffffffffffffffffffffffffffffff1673ffffffffffffffffffffffffffffffffffffffff16815260200190815260200160002054101515610890576040517f08c379a000000000000000000000000000000000000000000000000000000000815260040180806020018281038252602c8152602001807f536f6c6f2073652070756564652061c3b16164697220756e20636162616c6c6f81526020017f20706f7220706572736f6e61000000000000000000000000000000000000000081525060400191505060405180910390fd5b600260e0604051908101604052803373ffffffffffffffffffffffffffffffffffffffff1681526020018781526020018681526020018581526020018481526020016000815260200160008152509080600181540180825580915050906001820390600052602060002090600702016000909192909190915060008201518160000160006101000a81548173ffffffffffffffffffffffffffffffffffffffff021916908373ffffffffffffffffffffffffffffffffffffffff160217905550602082015181600101908051906020019061096c929190610a82565b506040820151816002019080519060200190610989929190610a82565b50606082015181600301556080820151816004015560a0820151816005015560c08201518160060155505050600360003373ffffffffffffffffffffffffffffffffffffffff1673ffffffffffffffffffffffffffffffffffffffff1681526020019081526020016000206000815480929190600101919050555060008081548092919060010191905055506000549050949350505050565b3373ffffffffffffffffffffffffffffffffffffffff166108fc3073ffffffffffffffffffffffffffffffffffffffff16319081150290604051600060405180830381858888f19350505050158015610a7f573d6000803e3d6000fd5b50565b828054600181600116156101000203166002900490600052602060002090601f016020900481019282601f10610ac357805160ff1916838001178555610af1565b82800160010185558215610af1579182015b82811115610af0578251825591602001919060010190610ad5565b5b509050610afe9190610b02565b5090565b610b2491905b80821115610b20576000816000905550600101610b08565b5090565b905600a165627a7a72305820f05b633c80f4e5179112bbfad84b783595abd37b3d10023b106704676ab02a2e0029",
					"opcodes": "PUSH1 0x80 PUSH1 0x40 MSTORE PUSH1 0x0 DUP1 SSTORE PUSH1 0x0 PUSH1 0x1 SSTORE CALLVALUE DUP1 ISZERO PUSH2 0x19 JUMPI PUSH1 0x0 DUP1 REVERT JUMPDEST POP PUSH2 0xB53 DUP1 PUSH2 0x29 PUSH1 0x0 CODECOPY PUSH1 0x0 RETURN STOP PUSH1 0x80 PUSH1 0x40 MSTORE PUSH1 0x4 CALLDATASIZE LT PUSH2 0x62 JUMPI PUSH1 0x0 CALLDATALOAD PUSH29 0x100000000000000000000000000000000000000000000000000000000 SWAP1 DIV PUSH4 0xFFFFFFFF AND DUP1 PUSH4 0x1D490474 EQ PUSH2 0x67 JUMPI DUP1 PUSH4 0x6B6F0494 EQ PUSH2 0xBE JUMPI DUP1 PUSH4 0xCF073811 EQ PUSH2 0x157 JUMPI DUP1 PUSH4 0xFF9AC5E3 EQ PUSH2 0x2B8 JUMPI JUMPDEST PUSH1 0x0 DUP1 REVERT JUMPDEST CALLVALUE DUP1 ISZERO PUSH2 0x73 JUMPI PUSH1 0x0 DUP1 REVERT JUMPDEST POP PUSH2 0xA8 PUSH1 0x4 DUP1 CALLDATASIZE SUB DUP2 ADD SWAP1 DUP1 DUP1 CALLDATALOAD PUSH20 0xFFFFFFFFFFFFFFFFFFFFFFFFFFFFFFFFFFFFFFFF AND SWAP1 PUSH1 0x20 ADD SWAP1 SWAP3 SWAP2 SWAP1 POP POP POP PUSH2 0x38F JUMP JUMPDEST PUSH1 0x40 MLOAD DUP1 DUP3 DUP2 MSTORE PUSH1 0x20 ADD SWAP2 POP POP PUSH1 0x40 MLOAD DUP1 SWAP2 SUB SWAP1 RETURN JUMPDEST PUSH2 0xDC PUSH1 0x4 DUP1 CALLDATASIZE SUB DUP2 ADD SWAP1 DUP1 DUP1 CALLDATALOAD SWAP1 PUSH1 0x20 ADD SWAP1 SWAP3 SWAP2 SWAP1 POP POP POP PUSH2 0x3A7 JUMP JUMPDEST PUSH1 0x40 MLOAD DUP1 DUP1 PUSH1 0x20 ADD DUP3 DUP2 SUB DUP3 MSTORE DUP4 DUP2 DUP2 MLOAD DUP2 MSTORE PUSH1 0x20 ADD SWAP2 POP DUP1 MLOAD SWAP1 PUSH1 0x20 ADD SWAP1 DUP1 DUP4 DUP4 PUSH1 0x0 JUMPDEST DUP4 DUP2 LT ISZERO PUSH2 0x11C JUMPI DUP1 DUP3 ADD MLOAD DUP2 DUP5 ADD MSTORE PUSH1 0x20 DUP2 ADD SWAP1 POP PUSH2 0x101 JUMP JUMPDEST POP POP POP POP SWAP1 POP SWAP1 DUP2 ADD SWAP1 PUSH1 0x1F AND DUP1 ISZERO PUSH2 0x149 JUMPI DUP1 DUP3 SUB DUP1 MLOAD PUSH1 0x1 DUP4 PUSH1 0x20 SUB PUSH2 0x100 EXP SUB NOT AND DUP2 MSTORE PUSH1 0x20 ADD SWAP2 POP JUMPDEST POP SWAP3 POP POP POP PUSH1 0x40 MLOAD DUP1 SWAP2 SUB SWAP1 RETURN JUMPDEST CALLVALUE DUP1 ISZERO PUSH2 0x163 JUMPI PUSH1 0x0 DUP1 REVERT JUMPDEST POP PUSH2 0x182 PUSH1 0x4 DUP1 CALLDATASIZE SUB DUP2 ADD SWAP1 DUP1 DUP1 CALLDATALOAD SWAP1 PUSH1 0x20 ADD SWAP1 SWAP3 SWAP2 SWAP1 POP POP POP PUSH2 0x610 JUMP JUMPDEST PUSH1 0x40 MLOAD DUP1 DUP9 PUSH20 0xFFFFFFFFFFFFFFFFFFFFFFFFFFFFFFFFFFFFFFFF AND PUSH20 0xFFFFFFFFFFFFFFFFFFFFFFFFFFFFFFFFFFFFFFFF AND DUP2 MSTORE PUSH1 0x20 ADD DUP1 PUSH1 0x20 ADD DUP1 PUSH1 0x20 ADD DUP8 DUP2 MSTORE PUSH1 0x20 ADD DUP7 DUP2 MSTORE PUSH1 0x20 ADD DUP6 DUP2 MSTORE PUSH1 0x20 ADD DUP5 DUP2 MSTORE PUSH1 0x20 ADD DUP4 DUP2 SUB DUP4 MSTORE DUP10 DUP2 DUP2 MLOAD DUP2 MSTORE PUSH1 0x20 ADD SWAP2 POP DUP1 MLOAD SWAP1 PUSH1 0x20 ADD SWAP1 DUP1 DUP4 DUP4 PUSH1 0x0 JUMPDEST DUP4 DUP2 LT ISZERO PUSH2 0x210 JUMPI DUP1 DUP3 ADD MLOAD DUP2 DUP5 ADD MSTORE PUSH1 0x20 DUP2 ADD SWAP1 POP PUSH2 0x1F5 JUMP JUMPDEST POP POP POP POP SWAP1 POP SWAP1 DUP2 ADD SWAP1 PUSH1 0x1F AND DUP1 ISZERO PUSH2 0x23D JUMPI DUP1 DUP3 SUB DUP1 MLOAD PUSH1 0x1 DUP4 PUSH1 0x20 SUB PUSH2 0x100 EXP SUB NOT AND DUP2 MSTORE PUSH1 0x20 ADD SWAP2 POP JUMPDEST POP DUP4 DUP2 SUB DUP3 MSTORE DUP9 DUP2 DUP2 MLOAD DUP2 MSTORE PUSH1 0x20 ADD SWAP2 POP DUP1 MLOAD SWAP1 PUSH1 0x20 ADD SWAP1 DUP1 DUP4 DUP4 PUSH1 0x0 JUMPDEST DUP4 DUP2 LT ISZERO PUSH2 0x276 JUMPI DUP1 DUP3 ADD MLOAD DUP2 DUP5 ADD MSTORE PUSH1 0x20 DUP2 ADD SWAP1 POP PUSH2 0x25B JUMP JUMPDEST POP POP POP POP SWAP1 POP SWAP1 DUP2 ADD SWAP1 PUSH1 0x1F AND DUP1 ISZERO PUSH2 0x2A3 JUMPI DUP1 DUP3 SUB DUP1 MLOAD PUSH1 0x1 DUP4 PUSH1 0x20 SUB PUSH2 0x100 EXP SUB NOT AND DUP2 MSTORE PUSH1 0x20 ADD SWAP2 POP JUMPDEST POP SWAP10 POP POP POP POP POP POP POP POP POP POP PUSH1 0x40 MLOAD DUP1 SWAP2 SUB SWAP1 RETURN JUMPDEST CALLVALUE DUP1 ISZERO PUSH2 0x2C4 JUMPI PUSH1 0x0 DUP1 REVERT JUMPDEST POP PUSH2 0x379 PUSH1 0x4 DUP1 CALLDATASIZE SUB DUP2 ADD SWAP1 DUP1 DUP1 CALLDATALOAD SWAP1 PUSH1 0x20 ADD SWAP1 DUP3 ADD DUP1 CALLDATALOAD SWAP1 PUSH1 0x20 ADD SWAP1 DUP1 DUP1 PUSH1 0x1F ADD PUSH1 0x20 DUP1 SWAP2 DIV MUL PUSH1 0x20 ADD PUSH1 0x40 MLOAD SWAP1 DUP2 ADD PUSH1 0x40 MSTORE DUP1 SWAP4 SWAP3 SWAP2 SWAP1 DUP2 DUP2 MSTORE PUSH1 0x20 ADD DUP4 DUP4 DUP1 DUP3 DUP5 CALLDATACOPY DUP3 ADD SWAP2 POP POP POP POP POP POP SWAP2 SWAP3 SWAP2 SWAP3 SWAP1 DUP1 CALLDATALOAD SWAP1 PUSH1 0x20 ADD SWAP1 DUP3 ADD DUP1 CALLDATALOAD SWAP1 PUSH1 0x20 ADD SWAP1 DUP1 DUP1 PUSH1 0x1F ADD PUSH1 0x20 DUP1 SWAP2 DIV MUL PUSH1 0x20 ADD PUSH1 0x40 MLOAD SWAP1 DUP2 ADD PUSH1 0x40 MSTORE DUP1 SWAP4 SWAP3 SWAP2 SWAP1 DUP2 DUP2 MSTORE PUSH1 0x20 ADD DUP4 DUP4 DUP1 DUP3 DUP5 CALLDATACOPY DUP3 ADD SWAP2 POP POP POP POP POP POP SWAP2 SWAP3 SWAP2 SWAP3 SWAP1 DUP1 CALLDATALOAD SWAP1 PUSH1 0x20 ADD SWAP1 SWAP3 SWAP2 SWAP1 DUP1 CALLDATALOAD SWAP1 PUSH1 0x20 ADD SWAP1 SWAP3 SWAP2 SWAP1 POP POP POP PUSH2 0x7B1 JUMP JUMPDEST PUSH1 0x40 MLOAD DUP1 DUP3 DUP2 MSTORE PUSH1 0x20 ADD SWAP2 POP POP PUSH1 0x40 MLOAD DUP1 SWAP2 SUB SWAP1 RETURN JUMPDEST PUSH1 0x3 PUSH1 0x20 MSTORE DUP1 PUSH1 0x0 MSTORE PUSH1 0x40 PUSH1 0x0 KECCAK256 PUSH1 0x0 SWAP2 POP SWAP1 POP SLOAD DUP2 JUMP JUMPDEST PUSH1 0x60 PUSH1 0x0 DUP1 DUP4 CALLVALUE EQ ISZERO ISZERO PUSH2 0x3BA JUMPI PUSH1 0x0 DUP1 REVERT JUMPDEST PUSH1 0x1 PUSH1 0x0 DUP2 SLOAD DUP1 SWAP3 SWAP2 SWAP1 PUSH1 0x1 ADD SWAP2 SWAP1 POP SSTORE POP PUSH1 0x2 DUP1 SLOAD SWAP1 POP TIMESTAMP PUSH1 0x2 DUP1 SLOAD SWAP1 POP PUSH1 0x1 SLOAD PUSH1 0x40 MLOAD PUSH1 0x20 ADD DUP1 DUP5 DUP2 MSTORE PUSH1 0x20 ADD DUP4 DUP2 MSTORE PUSH1 0x20 ADD DUP3 DUP2 MSTORE PUSH1 0x20 ADD SWAP4 POP POP POP POP PUSH1 0x40 MLOAD PUSH1 0x20 DUP2 DUP4 SUB SUB DUP2 MSTORE SWAP1 PUSH1 0x40 MSTORE PUSH1 0x40 MLOAD DUP1 DUP3 DUP1 MLOAD SWAP1 PUSH1 0x20 ADD SWAP1 DUP1 DUP4 DUP4 JUMPDEST PUSH1 0x20 DUP4 LT ISZERO ISZERO PUSH2 0x43E JUMPI DUP1 MLOAD DUP3 MSTORE PUSH1 0x20 DUP3 ADD SWAP2 POP PUSH1 0x20 DUP2 ADD SWAP1 POP PUSH1 0x20 DUP4 SUB SWAP3 POP PUSH2 0x419 JUMP JUMPDEST PUSH1 0x1 DUP4 PUSH1 0x20 SUB PUSH2 0x100 EXP SUB DUP1 NOT DUP3 MLOAD AND DUP2 DUP5 MLOAD AND DUP1 DUP3 OR DUP6 MSTORE POP POP POP POP POP POP SWAP1 POP ADD SWAP2 POP POP PUSH1 0x40 MLOAD DUP1 SWAP2 SUB SWAP1 KECCAK256 PUSH1 0x1 SWAP1 DIV DUP2 ISZERO ISZERO PUSH2 0x478 JUMPI INVALID JUMPDEST MOD SWAP2 POP PUSH1 0x0 SWAP1 POP JUMPDEST PUSH1 0x2 DUP1 SLOAD SWAP1 POP DUP2 LT ISZERO PUSH2 0x608 JUMPI DUP1 DUP3 EQ ISZERO PUSH2 0x5FB JUMPI PUSH1 0x2 DUP2 DUP2 SLOAD DUP2 LT ISZERO ISZERO PUSH2 0x4A4 JUMPI INVALID JUMPDEST SWAP1 PUSH1 0x0 MSTORE PUSH1 0x20 PUSH1 0x0 KECCAK256 SWAP1 PUSH1 0x7 MUL ADD PUSH1 0x0 ADD PUSH1 0x0 SWAP1 SLOAD SWAP1 PUSH2 0x100 EXP SWAP1 DIV PUSH20 0xFFFFFFFFFFFFFFFFFFFFFFFFFFFFFFFFFFFFFFFF AND PUSH20 0xFFFFFFFFFFFFFFFFFFFFFFFFFFFFFFFFFFFFFFFF AND CALLER PUSH20 0xFFFFFFFFFFFFFFFFFFFFFFFFFFFFFFFFFFFFFFFF AND EQ ISZERO PUSH2 0x54E JUMPI PUSH2 0x511 PUSH2 0xA22 JUMP JUMPDEST PUSH1 0x40 DUP1 MLOAD SWAP1 DUP2 ADD PUSH1 0x40 MSTORE DUP1 PUSH1 0xA DUP2 MSTORE PUSH1 0x20 ADD PUSH32 0x4861732067616E61646F00000000000000000000000000000000000000000000 DUP2 MSTORE POP SWAP3 POP PUSH2 0x609 JUMP JUMPDEST PUSH32 0x606155C46E96E8BA564B872655C2A4D542D452F03F8A72F24DF3DEA203E12633 DUP3 PUSH1 0x40 MLOAD DUP1 DUP1 PUSH1 0x20 ADD DUP4 DUP2 MSTORE PUSH1 0x20 ADD DUP3 DUP2 SUB DUP3 MSTORE PUSH1 0x17 DUP2 MSTORE PUSH1 0x20 ADD DUP1 PUSH32 0x456C20636162616C6C6F2067616E61646F722065733A20000000000000000000 DUP2 MSTORE POP PUSH1 0x20 ADD SWAP3 POP POP POP PUSH1 0x40 MLOAD DUP1 SWAP2 SUB SWAP1 LOG1 PUSH1 0x40 DUP1 MLOAD SWAP1 DUP2 ADD PUSH1 0x40 MSTORE DUP1 PUSH1 0xB DUP2 MSTORE PUSH1 0x20 ADD PUSH32 0x486173207065726469646F000000000000000000000000000000000000000000 DUP2 MSTORE POP SWAP3 POP PUSH2 0x609 JUMP JUMPDEST DUP1 DUP1 PUSH1 0x1 ADD SWAP2 POP POP PUSH2 0x480 JUMP JUMPDEST JUMPDEST POP POP SWAP2 SWAP1 POP JUMP JUMPDEST PUSH1 0x2 DUP2 DUP2 SLOAD DUP2 LT ISZERO ISZERO PUSH2 0x61F JUMPI INVALID JUMPDEST SWAP1 PUSH1 0x0 MSTORE PUSH1 0x20 PUSH1 0x0 KECCAK256 SWAP1 PUSH1 0x7 MUL ADD PUSH1 0x0 SWAP2 POP SWAP1 POP DUP1 PUSH1 0x0 ADD PUSH1 0x0 SWAP1 SLOAD SWAP1 PUSH2 0x100 EXP SWAP1 DIV PUSH20 0xFFFFFFFFFFFFFFFFFFFFFFFFFFFFFFFFFFFFFFFF AND SWAP1 DUP1 PUSH1 0x1 ADD DUP1 SLOAD PUSH1 0x1 DUP2 PUSH1 0x1 AND ISZERO PUSH2 0x100 MUL SUB AND PUSH1 0x2 SWAP1 DIV DUP1 PUSH1 0x1F ADD PUSH1 0x20 DUP1 SWAP2 DIV MUL PUSH1 0x20 ADD PUSH1 0x40 MLOAD SWAP1 DUP2 ADD PUSH1 0x40 MSTORE DUP1 SWAP3 SWAP2 SWAP1 DUP2 DUP2 MSTORE PUSH1 0x20 ADD DUP3 DUP1 SLOAD PUSH1 0x1 DUP2 PUSH1 0x1 AND ISZERO PUSH2 0x100 MUL SUB AND PUSH1 0x2 SWAP1 DIV DUP1 ISZERO PUSH2 0x6F1 JUMPI DUP1 PUSH1 0x1F LT PUSH2 0x6C6 JUMPI PUSH2 0x100 DUP1 DUP4 SLOAD DIV MUL DUP4 MSTORE SWAP2 PUSH1 0x20 ADD SWAP2 PUSH2 0x6F1 JUMP JUMPDEST DUP3 ADD SWAP2 SWAP1 PUSH1 0x0 MSTORE PUSH1 0x20 PUSH1 0x0 KECCAK256 SWAP1 JUMPDEST DUP2 SLOAD DUP2 MSTORE SWAP1 PUSH1 0x1 ADD SWAP1 PUSH1 0x20 ADD DUP1 DUP4 GT PUSH2 0x6D4 JUMPI DUP3 SWAP1 SUB PUSH1 0x1F AND DUP3 ADD SWAP2 JUMPDEST POP POP POP POP POP SWAP1 DUP1 PUSH1 0x2 ADD DUP1 SLOAD PUSH1 0x1 DUP2 PUSH1 0x1 AND ISZERO PUSH2 0x100 MUL SUB AND PUSH1 0x2 SWAP1 DIV DUP1 PUSH1 0x1F ADD PUSH1 0x20 DUP1 SWAP2 DIV MUL PUSH1 0x20 ADD PUSH1 0x40 MLOAD SWAP1 DUP2 ADD PUSH1 0x40 MSTORE DUP1 SWAP3 SWAP2 SWAP1 DUP2 DUP2 MSTORE PUSH1 0x20 ADD DUP3 DUP1 SLOAD PUSH1 0x1 DUP2 PUSH1 0x1 AND ISZERO PUSH2 0x100 MUL SUB AND PUSH1 0x2 SWAP1 DIV DUP1 ISZERO PUSH2 0x78F JUMPI DUP1 PUSH1 0x1F LT PUSH2 0x764 JUMPI PUSH2 0x100 DUP1 DUP4 SLOAD DIV MUL DUP4 MSTORE SWAP2 PUSH1 0x20 ADD SWAP2 PUSH2 0x78F JUMP JUMPDEST DUP3 ADD SWAP2 SWAP1 PUSH1 0x0 MSTORE PUSH1 0x20 PUSH1 0x0 KECCAK256 SWAP1 JUMPDEST DUP2 SLOAD DUP2 MSTORE SWAP1 PUSH1 0x1 ADD SWAP1 PUSH1 0x20 ADD DUP1 DUP4 GT PUSH2 0x772 JUMPI DUP3 SWAP1 SUB PUSH1 0x1F AND DUP3 ADD SWAP2 JUMPDEST POP POP POP POP POP SWAP1 DUP1 PUSH1 0x3 ADD SLOAD SWAP1 DUP1 PUSH1 0x4 ADD SLOAD SWAP1 DUP1 PUSH1 0x5 ADD SLOAD SWAP1 DUP1 PUSH1 0x6 ADD SLOAD SWAP1 POP DUP8 JUMP JUMPDEST PUSH1 0x0 PUSH1 0x1 PUSH1 0x3 PUSH1 0x0 CALLER PUSH20 0xFFFFFFFFFFFFFFFFFFFFFFFFFFFFFFFFFFFFFFFF AND PUSH20 0xFFFFFFFFFFFFFFFFFFFFFFFFFFFFFFFFFFFFFFFF AND DUP2 MSTORE PUSH1 0x20 ADD SWAP1 DUP2 MSTORE PUSH1 0x20 ADD PUSH1 0x0 KECCAK256 SLOAD LT ISZERO ISZERO PUSH2 0x890 JUMPI PUSH1 0x40 MLOAD PUSH32 0x8C379A000000000000000000000000000000000000000000000000000000000 DUP2 MSTORE PUSH1 0x4 ADD DUP1 DUP1 PUSH1 0x20 ADD DUP3 DUP2 SUB DUP3 MSTORE PUSH1 0x2C DUP2 MSTORE PUSH1 0x20 ADD DUP1 PUSH32 0x536F6C6F2073652070756564652061C3B16164697220756E20636162616C6C6F DUP2 MSTORE PUSH1 0x20 ADD PUSH32 0x20706F7220706572736F6E610000000000000000000000000000000000000000 DUP2 MSTORE POP PUSH1 0x40 ADD SWAP2 POP POP PUSH1 0x40 MLOAD DUP1 SWAP2 SUB SWAP1 REVERT JUMPDEST PUSH1 0x2 PUSH1 0xE0 PUSH1 0x40 MLOAD SWAP1 DUP2 ADD PUSH1 0x40 MSTORE DUP1 CALLER PUSH20 0xFFFFFFFFFFFFFFFFFFFFFFFFFFFFFFFFFFFFFFFF AND DUP2 MSTORE PUSH1 0x20 ADD DUP8 DUP2 MSTORE PUSH1 0x20 ADD DUP7 DUP2 MSTORE PUSH1 0x20 ADD DUP6 DUP2 MSTORE PUSH1 0x20 ADD DUP5 DUP2 MSTORE PUSH1 0x20 ADD PUSH1 0x0 DUP2 MSTORE PUSH1 0x20 ADD PUSH1 0x0 DUP2 MSTORE POP SWAP1 DUP1 PUSH1 0x1 DUP2 SLOAD ADD DUP1 DUP3 SSTORE DUP1 SWAP2 POP POP SWAP1 PUSH1 0x1 DUP3 SUB SWAP1 PUSH1 0x0 MSTORE PUSH1 0x20 PUSH1 0x0 KECCAK256 SWAP1 PUSH1 0x7 MUL ADD PUSH1 0x0 SWAP1 SWAP2 SWAP3 SWAP1 SWAP2 SWAP1 SWAP2 POP PUSH1 0x0 DUP3 ADD MLOAD DUP2 PUSH1 0x0 ADD PUSH1 0x0 PUSH2 0x100 EXP DUP2 SLOAD DUP2 PUSH20 0xFFFFFFFFFFFFFFFFFFFFFFFFFFFFFFFFFFFFFFFF MUL NOT AND SWAP1 DUP4 PUSH20 0xFFFFFFFFFFFFFFFFFFFFFFFFFFFFFFFFFFFFFFFF AND MUL OR SWAP1 SSTORE POP PUSH1 0x20 DUP3 ADD MLOAD DUP2 PUSH1 0x1 ADD SWAP1 DUP1 MLOAD SWAP1 PUSH1 0x20 ADD SWAP1 PUSH2 0x96C SWAP3 SWAP2 SWAP1 PUSH2 0xA82 JUMP JUMPDEST POP PUSH1 0x40 DUP3 ADD MLOAD DUP2 PUSH1 0x2 ADD SWAP1 DUP1 MLOAD SWAP1 PUSH1 0x20 ADD SWAP1 PUSH2 0x989 SWAP3 SWAP2 SWAP1 PUSH2 0xA82 JUMP JUMPDEST POP PUSH1 0x60 DUP3 ADD MLOAD DUP2 PUSH1 0x3 ADD SSTORE PUSH1 0x80 DUP3 ADD MLOAD DUP2 PUSH1 0x4 ADD SSTORE PUSH1 0xA0 DUP3 ADD MLOAD DUP2 PUSH1 0x5 ADD SSTORE PUSH1 0xC0 DUP3 ADD MLOAD DUP2 PUSH1 0x6 ADD SSTORE POP POP POP PUSH1 0x3 PUSH1 0x0 CALLER PUSH20 0xFFFFFFFFFFFFFFFFFFFFFFFFFFFFFFFFFFFFFFFF AND PUSH20 0xFFFFFFFFFFFFFFFFFFFFFFFFFFFFFFFFFFFFFFFF AND DUP2 MSTORE PUSH1 0x20 ADD SWAP1 DUP2 MSTORE PUSH1 0x20 ADD PUSH1 0x0 KECCAK256 PUSH1 0x0 DUP2 SLOAD DUP1 SWAP3 SWAP2 SWAP1 PUSH1 0x1 ADD SWAP2 SWAP1 POP SSTORE POP PUSH1 0x0 DUP1 DUP2 SLOAD DUP1 SWAP3 SWAP2 SWAP1 PUSH1 0x1 ADD SWAP2 SWAP1 POP SSTORE POP PUSH1 0x0 SLOAD SWAP1 POP SWAP5 SWAP4 POP POP POP POP JUMP JUMPDEST CALLER PUSH20 0xFFFFFFFFFFFFFFFFFFFFFFFFFFFFFFFFFFFFFFFF AND PUSH2 0x8FC ADDRESS PUSH20 0xFFFFFFFFFFFFFFFFFFFFFFFFFFFFFFFFFFFFFFFF AND BALANCE SWAP1 DUP2 ISZERO MUL SWAP1 PUSH1 0x40 MLOAD PUSH1 0x0 PUSH1 0x40 MLOAD DUP1 DUP4 SUB DUP2 DUP6 DUP9 DUP9 CALL SWAP4 POP POP POP POP ISZERO DUP1 ISZERO PUSH2 0xA7F JUMPI RETURNDATASIZE PUSH1 0x0 DUP1 RETURNDATACOPY RETURNDATASIZE PUSH1 0x0 REVERT JUMPDEST POP JUMP JUMPDEST DUP3 DUP1 SLOAD PUSH1 0x1 DUP2 PUSH1 0x1 AND ISZERO PUSH2 0x100 MUL SUB AND PUSH1 0x2 SWAP1 DIV SWAP1 PUSH1 0x0 MSTORE PUSH1 0x20 PUSH1 0x0 KECCAK256 SWAP1 PUSH1 0x1F ADD PUSH1 0x20 SWAP1 DIV DUP2 ADD SWAP3 DUP3 PUSH1 0x1F LT PUSH2 0xAC3 JUMPI DUP1 MLOAD PUSH1 0xFF NOT AND DUP4 DUP1 ADD OR DUP6 SSTORE PUSH2 0xAF1 JUMP JUMPDEST DUP3 DUP1 ADD PUSH1 0x1 ADD DUP6 SSTORE DUP3 ISZERO PUSH2 0xAF1 JUMPI SWAP2 DUP3 ADD JUMPDEST DUP3 DUP2 GT ISZERO PUSH2 0xAF0 JUMPI DUP3 MLOAD DUP3 SSTORE SWAP2 PUSH1 0x20 ADD SWAP2 SWAP1 PUSH1 0x1 ADD SWAP1 PUSH2 0xAD5 JUMP JUMPDEST JUMPDEST POP SWAP1 POP PUSH2 0xAFE SWAP2 SWAP1 PUSH2 0xB02 JUMP JUMPDEST POP SWAP1 JUMP JUMPDEST PUSH2 0xB24 SWAP2 SWAP1 JUMPDEST DUP1 DUP3 GT ISZERO PUSH2 0xB20 JUMPI PUSH1 0x0 DUP2 PUSH1 0x0 SWAP1 SSTORE POP PUSH1 0x1 ADD PUSH2 0xB08 JUMP JUMPDEST POP SWAP1 JUMP JUMPDEST SWAP1 JUMP STOP LOG1 PUSH6 0x627A7A723058 KECCAK256 CREATE JUMPDEST PUSH4 0x3C80F4E5 OR SWAP2 SLT 0xbb STATICCALL 0xd8 0x4b PUSH25 0x3595ABD37B3D10023B106704676AB02A2E0029000000000000 "
				},
				"gasEstimates": {
					"creation": {
						"codeDepositCost": "579800",
						"executionCost": "10625",
						"totalCost": "590425"
					},
					"external": {
						"Apostar(uint256)": "infinite",
						"anadirCaballo(string,string,uint256,uint256)": "infinite",
						"listaCaballos(uint256)": "infinite",
						"numeroCaballosPersona(address)": "532"
					},
					"internal": {
						"Balance()": "infinite"
					}
				},
				"methodIdentifiers": {
					"Apostar(uint256)": "6b6f0494",
					"anadirCaballo(string,string,uint256,uint256)": "ff9ac5e3",
					"listaCaballos(uint256)": "cf073811",
					"numeroCaballosPersona(address)": "1d490474"
				}
			},
			"userdoc": {
				"methods": {}
			}
		}
	}
}