{
	"data": {
		"bytecode": {
			"linkReferences": {},
			"object": "608060405260006001556000600255603c600355670de0b6b3a7640000600455671bc16d674ec800006005553480156200003857600080fd5b50620000596200004d6200005f60201b60201c565b6200006760201b60201c565b6200012b565b600033905090565b60008060009054906101000a900473ffffffffffffffffffffffffffffffffffffffff169050816000806101000a81548173ffffffffffffffffffffffffffffffffffffffff021916908373ffffffffffffffffffffffffffffffffffffffff1602179055508173ffffffffffffffffffffffffffffffffffffffff168173ffffffffffffffffffffffffffffffffffffffff167f8be0079c531659141344cd1fd0a4f28419497f9722a3daafe3b4186f6b6457e060405160405180910390a35050565b6124f1806200013b6000396000f3fe6080604052600436106100a75760003560e01c8063858b055411610064578063858b0554146101cd5780638da5cb5b1461020a578063b2bdfa7b14610235578063d735573d14610260578063e172fca8146102a4578063f2fde38b146102cd576100a7565b8063049a5f65146100ac5780631c6743e4146100dc5780632458c544146101195780636a7d1816146101565780636b6f049414610186578063715018a6146101b6575b600080fd5b6100c660048036038101906100c19190611a57565b6102f6565b6040516100d39190611e4d565b60405180910390f35b3480156100e857600080fd5b5061010360048036038101906100fe9190611a2a565b610457565b6040516101109190611f70565b60405180910390f35b34801561012557600080fd5b50610140600480360381019061013b9190611ae2565b61046f565b60405161014d9190611f70565b60405180910390f35b610170600480360381019061016b9190611a2a565b610751565b60405161017d9190611e4d565b60405180910390f35b6101a0600480360381019061019b9190611b89565b6108a6565b6040516101ad9190611e4d565b60405180910390f35b3480156101c257600080fd5b506101cb6111e1565b005b3480156101d957600080fd5b506101f460048036038101906101ef9190611b89565b611269565b6040516102019190611d9f565b60405180910390f35b34801561021657600080fd5b5061021f61129c565b60405161022c9190611d9f565b60405180910390f35b34801561024157600080fd5b5061024a6112c5565b6040516102579190611d9f565b60405180910390f35b34801561026c57600080fd5b5061028760048036038101906102829190611b89565b6112e9565b60405161029b989796959493929190611dba565b60405180910390f35b3480156102b057600080fd5b506102cb60048036038101906102c69190611a2a565b611509565b005b3480156102d957600080fd5b506102f460048036038101906102ef9190611a2a565b6116b0565b005b60608373ffffffffffffffffffffffffffffffffffffffff163373ffffffffffffffffffffffffffffffffffffffff161461033057600080fd5b600554341461033e57600080fd5b60005b60068054905081101561044f573373ffffffffffffffffffffffffffffffffffffffff1660068281548110610379576103786122cb565b5b906000526020600020906008020160000160009054906101000a900473ffffffffffffffffffffffffffffffffffffffff1673ffffffffffffffffffffffffffffffffffffffff16141561043c5783600682815481106103dc576103db6122cb565b5b906000526020600020906008020160010190805190602001906104009291906118ed565b508260068281548110610416576104156122cb565b5b9060005260206000209060080201600201908051906020019061043a9291906118ed565b505b80806104479061218d565b915050610341565b509392505050565b60086020528060005260406000206000915090505481565b60006001600860003373ffffffffffffffffffffffffffffffffffffffff1673ffffffffffffffffffffffffffffffffffffffff16815260200190815260200160002054106104f3576040517f08c379a00000000000000000000000000000000000000000000000000000000081526004016104ea90611ed0565b60405180910390fd5b60066040518061010001604052803373ffffffffffffffffffffffffffffffffffffffff16815260200186815260200185815260200184815260200160008152602001600081526020016003544261054b9190612012565b63ffffffff168152602001600163ffffffff16815250908060018154018082558091505060019003906000526020600020906008020160009091909190915060008201518160000160006101000a81548173ffffffffffffffffffffffffffffffffffffffff021916908373ffffffffffffffffffffffffffffffffffffffff16021790555060208201518160010190805190602001906105ed9291906118ed565b50604082015181600201908051906020019061060a9291906118ed565b5060608201518160030190805190602001906106279291906118ed565b506080820151816004015560a0820151816005015560c0820151816006015560e08201518160070160006101000a81548163ffffffff021916908363ffffffff160217905550505060006006805490509050336007600083815260200190815260200160002060006101000a81548173ffffffffffffffffffffffffffffffffffffffff021916908373ffffffffffffffffffffffffffffffffffffffff160217905550600860003373ffffffffffffffffffffffffffffffffffffffff1673ffffffffffffffffffffffffffffffffffffffff168152602001908152602001600020600081548092919061071b9061218d565b9190505550600260008154809291906107339061218d565b919050555060016002546107479190612068565b9150509392505050565b6060600454341461076157600080fd5b60005b60068054905081101561089f578273ffffffffffffffffffffffffffffffffffffffff166006828154811061079c5761079b6122cb565b5b906000526020600020906008020160000160009054906101000a900473ffffffffffffffffffffffffffffffffffffffff1673ffffffffffffffffffffffffffffffffffffffff16141561088c57600681815481106107fe576107fd6122cb565b5b9060005260206000209060080201600701600081819054906101000a900463ffffffff168092919061082f906121d6565b91906101000a81548163ffffffff021916908363ffffffff160217905550506040518060400160405280601281526020017f48612073756269646f206465206e6976656c00000000000000000000000000008152509150506108a1565b80806108979061218d565b915050610764565b505b919050565b60606001600680549050116108ef577f6158fc8f21c8cc73ddf920956cc75d0e8a48b4fc85817a0ba89eb3b6d2a754416040516108e290611f10565b60405180910390a16111db565b8134146108fb57600080fd5b6001600081548092919061090e9061218d565b919050555060006006805490504260068054905060015460405160200161093793929190611d62565b6040516020818303038152906040528051906020012060001c61095a919061220d565b905060006007600083815260200190815260200160002060009054906101000a900473ffffffffffffffffffffffffffffffffffffffff169050600160008154809291906109a79061218d565b919050555060006064905060008142836001546040516020016109cc93929190611d62565b6040516020818303038152906040528051906020012060001c6109ef919061220d565b905060005b6006805490508110156111d55760068181548110610a1557610a146122cb565b5b906000526020600020906008020160000160009054906101000a900473ffffffffffffffffffffffffffffffffffffffff1673ffffffffffffffffffffffffffffffffffffffff163373ffffffffffffffffffffffffffffffffffffffff1614156111c257610aa460068281548110610a9157610a906122cb565b5b90600052602060002090600802016117a8565b610aad57600080fd5b60068181548110610ac157610ac06122cb565b5b90600052602060002090600802016005016000815480929190610ae39061218d565b919050555060068581548110610afc57610afb6122cb565b5b90600052602060002090600802016005016000815480929190610b1e9061218d565b9190505550610b4d60068281548110610b3a57610b396122cb565b5b90600052602060002090600802016117b9565b60068181548110610b6157610b606122cb565b5b906000526020600020906008020160070160009054906101000a900463ffffffff1663ffffffff1660068681548110610b9d57610b9c6122cb565b5b906000526020600020906008020160070160009054906101000a900463ffffffff1663ffffffff161015610d9e57603c8211610cbc57610bdb6117d8565b60068181548110610bef57610bee6122cb565b5b90600052602060002090600802016004016000815480929190610c119061218d565b919050555060068181548110610c2a57610c296122cb565b5b9060005260206000209060080201600701600081819054906101000a900463ffffffff1680929190610c5b906121d6565b91906101000a81548163ffffffff021916908363ffffffff160217905550506040518060400160405280600a81526020017f4861732067616e61646f00000000000000000000000000000000000000000000815250955050505050506111dc565b7f6158fc8f21c8cc73ddf920956cc75d0e8a48b4fc85817a0ba89eb3b6d2a75441604051610ce990611f50565b60405180910390a13073ffffffffffffffffffffffffffffffffffffffff1663e172fca8856040518263ffffffff1660e01b8152600401610d2a9190611d9f565b600060405180830381600087803b158015610d4457600080fd5b505af1158015610d58573d6000803e3d6000fd5b505050506040518060400160405280600b81526020017f486173207065726469646f000000000000000000000000000000000000000000815250955050505050506111dc565b60068181548110610db257610db16122cb565b5b906000526020600020906008020160070160009054906101000a900463ffffffff1663ffffffff1660068681548110610dee57610ded6122cb565b5b906000526020600020906008020160070160009054906101000a900463ffffffff1663ffffffff161415610fef5760328211610f0d57610e2c6117d8565b60068181548110610e4057610e3f6122cb565b5b90600052602060002090600802016004016000815480929190610e629061218d565b919050555060068181548110610e7b57610e7a6122cb565b5b9060005260206000209060080201600701600081819054906101000a900463ffffffff1680929190610eac906121d6565b91906101000a81548163ffffffff021916908363ffffffff160217905550506040518060400160405280600a81526020017f4861732067616e61646f00000000000000000000000000000000000000000000815250955050505050506111dc565b7f6158fc8f21c8cc73ddf920956cc75d0e8a48b4fc85817a0ba89eb3b6d2a75441604051610f3a90611f50565b60405180910390a13073ffffffffffffffffffffffffffffffffffffffff1663e172fca8856040518263ffffffff1660e01b8152600401610f7b9190611d9f565b600060405180830381600087803b158015610f9557600080fd5b505af1158015610fa9573d6000803e3d6000fd5b505050506040518060400160405280600b81526020017f486173207065726469646f000000000000000000000000000000000000000000815250955050505050506111dc565b602882116110e057610fff6117d8565b60068181548110611013576110126122cb565b5b906000526020600020906008020160040160008154809291906110359061218d565b91905055506006818154811061104e5761104d6122cb565b5b9060005260206000209060080201600701600081819054906101000a900463ffffffff168092919061107f906121d6565b91906101000a81548163ffffffff021916908363ffffffff160217905550506040518060400160405280600a81526020017f4861732067616e61646f00000000000000000000000000000000000000000000815250955050505050506111dc565b7f6158fc8f21c8cc73ddf920956cc75d0e8a48b4fc85817a0ba89eb3b6d2a7544160405161110d90611f50565b60405180910390a13073ffffffffffffffffffffffffffffffffffffffff1663e172fca8856040518263ffffffff1660e01b815260040161114e9190611d9f565b600060405180830381600087803b15801561116857600080fd5b505af115801561117c573d6000803e3d6000fd5b505050506040518060400160405280600b81526020017f486173207065726469646f000000000000000000000000000000000000000000815250955050505050506111dc565b80806111cd9061218d565b9150506109f4565b50505050505b5b919050565b6111e9611821565b73ffffffffffffffffffffffffffffffffffffffff1661120761129c565b73ffffffffffffffffffffffffffffffffffffffff161461125d576040517f08c379a000000000000000000000000000000000000000000000000000000000815260040161125490611f30565b60405180910390fd5b6112676000611829565b565b60076020528060005260406000206000915054906101000a900473ffffffffffffffffffffffffffffffffffffffff1681565b60008060009054906101000a900473ffffffffffffffffffffffffffffffffffffffff16905090565b60008054906101000a900473ffffffffffffffffffffffffffffffffffffffff1681565b600681815481106112f957600080fd5b90600052602060002090600802016000915090508060000160009054906101000a900473ffffffffffffffffffffffffffffffffffffffff16908060010180546113429061212a565b80601f016020809104026020016040519081016040528092919081815260200182805461136e9061212a565b80156113bb5780601f10611390576101008083540402835291602001916113bb565b820191906000526020600020905b81548152906001019060200180831161139e57829003601f168201915b5050505050908060020180546113d09061212a565b80601f01602080910402602001604051908101604052809291908181526020018280546113fc9061212a565b80156114495780601f1061141e57610100808354040283529160200191611449565b820191906000526020600020905b81548152906001019060200180831161142c57829003601f168201915b50505050509080600301805461145e9061212a565b80601f016020809104026020016040519081016040528092919081815260200182805461148a9061212a565b80156114d75780601f106114ac576101008083540402835291602001916114d7565b820191906000526020600020905b8154815290600101906020018083116114ba57829003601f168201915b5050505050908060040154908060050154908060060154908060070160009054906101000a900463ffffffff16905088565b60005b6006805490508110156116ac578173ffffffffffffffffffffffffffffffffffffffff1660068281548110611544576115436122cb565b5b906000526020600020906008020160000160009054906101000a900473ffffffffffffffffffffffffffffffffffffffff1673ffffffffffffffffffffffffffffffffffffffff161415611699577f20fdb8ab571bfbab79104bea84f9c31cb79c5ae45b5f515c1d6c8393e0028350600682815481106115c7576115c66122cb565b5b9060005260206000209060080201600201600683815481106115ec576115eb6122cb565b5b906000526020600020906008020160010160068481548110611611576116106122cb565b5b906000526020600020906008020160070160009054906101000a900463ffffffff1660068581548110611647576116466122cb565b5b9060005260206000209060080201600401546006868154811061166d5761166c6122cb565b5b906000526020600020906008020160050154604051611690959493929190611e6f565b60405180910390a15b80806116a49061218d565b91505061150c565b5050565b6116b8611821565b73ffffffffffffffffffffffffffffffffffffffff166116d661129c565b73ffffffffffffffffffffffffffffffffffffffff161461172c576040517f08c379a000000000000000000000000000000000000000000000000000000000815260040161172390611f30565b60405180910390fd5b600073ffffffffffffffffffffffffffffffffffffffff168173ffffffffffffffffffffffffffffffffffffffff16141561179c576040517f08c379a000000000000000000000000000000000000000000000000000000000815260040161179390611ef0565b60405180910390fd5b6117a581611829565b50565b600042826006015411159050919050565b600354426117c79190612012565b63ffffffff16816006018190555050565b3373ffffffffffffffffffffffffffffffffffffffff166108fc479081150290604051600060405180830381858888f1935050505015801561181e573d6000803e3d6000fd5b50565b600033905090565b60008060009054906101000a900473ffffffffffffffffffffffffffffffffffffffff169050816000806101000a81548173ffffffffffffffffffffffffffffffffffffffff021916908373ffffffffffffffffffffffffffffffffffffffff1602179055508173ffffffffffffffffffffffffffffffffffffffff168173ffffffffffffffffffffffffffffffffffffffff167f8be0079c531659141344cd1fd0a4f28419497f9722a3daafe3b4186f6b6457e060405160405180910390a35050565b8280546118f99061212a565b90600052602060002090601f01602090048101928261191b5760008555611962565b82601f1061193457805160ff1916838001178555611962565b82800160010185558215611962579182015b82811115611961578251825591602001919060010190611946565b5b50905061196f9190611973565b5090565b5b8082111561198c576000816000905550600101611974565b5090565b60006119a361199e84611fb0565b611f8b565b9050828152602081018484840111156119bf576119be61232e565b5b6119ca8482856120e8565b509392505050565b6000813590506119e18161248d565b92915050565b600082601f8301126119fc576119fb612329565b5b8135611a0c848260208601611990565b91505092915050565b600081359050611a24816124a4565b92915050565b600060208284031215611a4057611a3f612338565b5b6000611a4e848285016119d2565b91505092915050565b600080600060608486031215611a7057611a6f612338565b5b6000611a7e868287016119d2565b935050602084013567ffffffffffffffff811115611a9f57611a9e612333565b5b611aab868287016119e7565b925050604084013567ffffffffffffffff811115611acc57611acb612333565b5b611ad8868287016119e7565b9150509250925092565b600080600060608486031215611afb57611afa612338565b5b600084013567ffffffffffffffff811115611b1957611b18612333565b5b611b25868287016119e7565b935050602084013567ffffffffffffffff811115611b4657611b45612333565b5b611b52868287016119e7565b925050604084013567ffffffffffffffff811115611b7357611b72612333565b5b611b7f868287016119e7565b9150509250925092565b600060208284031215611b9f57611b9e612338565b5b6000611bad84828501611a15565b91505092915050565b611bbf8161209c565b82525050565b6000611bd082611ff6565b611bda8185612001565b9350611bea8185602086016120f7565b611bf38161233d565b840191505092915050565b60008154611c0b8161212a565b611c158186612001565b94506001821660008114611c305760018114611c4257611c75565b60ff1983168652602086019350611c75565b611c4b85611fe1565b60005b83811015611c6d57815481890152600182019150602081019050611c4e565b808801955050505b50505092915050565b6000611c8b602883612001565b9150611c968261234e565b604082019050919050565b6000611cae602683612001565b9150611cb98261239d565b604082019050919050565b6000611cd1603283612001565b9150611cdc826123ec565b604082019050919050565b6000611cf4602083612001565b9150611cff8261243b565b602082019050919050565b6000611d17601583612001565b9150611d2282612464565b602082019050919050565b611d36816120ce565b82525050565b611d4d611d48826120ce565b612203565b82525050565b611d5c816120d8565b82525050565b6000611d6e8286611d3c565b602082019150611d7e8285611d3c565b602082019150611d8e8284611d3c565b602082019150819050949350505050565b6000602082019050611db46000830184611bb6565b92915050565b600061010082019050611dd0600083018b611bb6565b8181036020830152611de2818a611bc5565b90508181036040830152611df68189611bc5565b90508181036060830152611e0a8188611bc5565b9050611e196080830187611d2d565b611e2660a0830186611d2d565b611e3360c0830185611d2d565b611e4060e0830184611d53565b9998505050505050505050565b60006020820190508181036000830152611e678184611bc5565b905092915050565b600060a0820190508181036000830152611e898188611bfe565b90508181036020830152611e9d8187611bfe565b9050611eac6040830186611d53565b611eb96060830185611d2d565b611ec66080830184611d2d565b9695505050505050565b60006020820190508181036000830152611ee981611c7e565b9050919050565b60006020820190508181036000830152611f0981611ca1565b9050919050565b60006020820190508181036000830152611f2981611cc4565b9050919050565b60006020820190508181036000830152611f4981611ce7565b9050919050565b60006020820190508181036000830152611f6981611d0a565b9050919050565b6000602082019050611f856000830184611d2d565b92915050565b6000611f95611fa6565b9050611fa1828261215c565b919050565b6000604051905090565b600067ffffffffffffffff821115611fcb57611fca6122fa565b5b611fd48261233d565b9050602081019050919050565b60008190508160005260206000209050919050565b600081519050919050565b600082825260208201905092915050565b600061201d826120ce565b9150612028836120ce565b9250827fffffffffffffffffffffffffffffffffffffffffffffffffffffffffffffffff0382111561205d5761205c61223e565b5b828201905092915050565b6000612073826120ce565b915061207e836120ce565b9250828210156120915761209061223e565b5b828203905092915050565b60006120a7826120ae565b9050919050565b600073ffffffffffffffffffffffffffffffffffffffff82169050919050565b6000819050919050565b600063ffffffff82169050919050565b82818337600083830152505050565b60005b838110156121155780820151818401526020810190506120fa565b83811115612124576000848401525b50505050565b6000600282049050600182168061214257607f821691505b602082108114156121565761215561229c565b5b50919050565b6121658261233d565b810181811067ffffffffffffffff82111715612184576121836122fa565b5b80604052505050565b6000612198826120ce565b91507fffffffffffffffffffffffffffffffffffffffffffffffffffffffffffffffff8214156121cb576121ca61223e565b5b600182019050919050565b60006121e1826120d8565b915063ffffffff8214156121f8576121f761223e565b5b600182019050919050565b6000819050919050565b6000612218826120ce565b9150612223836120ce565b9250826122335761223261226d565b5b828206905092915050565b7f4e487b7100000000000000000000000000000000000000000000000000000000600052601160045260246000fd5b7f4e487b7100000000000000000000000000000000000000000000000000000000600052601260045260246000fd5b7f4e487b7100000000000000000000000000000000000000000000000000000000600052602260045260246000fd5b7f4e487b7100000000000000000000000000000000000000000000000000000000600052603260045260246000fd5b7f4e487b7100000000000000000000000000000000000000000000000000000000600052604160045260246000fd5b600080fd5b600080fd5b600080fd5b600080fd5b6000601f19601f8301169050919050565b7f536f6c6f2073652070756564652074656e657220756e20636f63686520706f7260008201527f20706572736f6e61000000000000000000000000000000000000000000000000602082015250565b7f4f776e61626c653a206e6577206f776e657220697320746865207a65726f206160008201527f6464726573730000000000000000000000000000000000000000000000000000602082015250565b7f4e6f2068617920636f6368657320737566696369656e7465732070617261206960008201527f6e696369617220756e6120636172726572610000000000000000000000000000602082015250565b7f4f776e61626c653a2063616c6c6572206973206e6f7420746865206f776e6572600082015250565b7f456c20636f6368652067616e61646f722065733a200000000000000000000000600082015250565b6124968161209c565b81146124a157600080fd5b50565b6124ad816120ce565b81146124b857600080fd5b5056fea2646970667358221220aedc187d2c153a9842a22ec4b617ad21064da0f7e8b0fd36d4dd90602d93f1fd64736f6c63430008070033",
			"opcodes": "PUSH1 0x80 PUSH1 0x40 MSTORE PUSH1 0x0 PUSH1 0x1 SSTORE PUSH1 0x0 PUSH1 0x2 SSTORE PUSH1 0x3C PUSH1 0x3 SSTORE PUSH8 0xDE0B6B3A7640000 PUSH1 0x4 SSTORE PUSH8 0x1BC16D674EC80000 PUSH1 0x5 SSTORE CALLVALUE DUP1 ISZERO PUSH3 0x38 JUMPI PUSH1 0x0 DUP1 REVERT JUMPDEST POP PUSH3 0x59 PUSH3 0x4D PUSH3 0x5F PUSH1 0x20 SHL PUSH1 0x20 SHR JUMP JUMPDEST PUSH3 0x67 PUSH1 0x20 SHL PUSH1 0x20 SHR JUMP JUMPDEST PUSH3 0x12B JUMP JUMPDEST PUSH1 0x0 CALLER SWAP1 POP SWAP1 JUMP JUMPDEST PUSH1 0x0 DUP1 PUSH1 0x0 SWAP1 SLOAD SWAP1 PUSH2 0x100 EXP SWAP1 DIV PUSH20 0xFFFFFFFFFFFFFFFFFFFFFFFFFFFFFFFFFFFFFFFF AND SWAP1 POP DUP2 PUSH1 0x0 DUP1 PUSH2 0x100 EXP DUP2 SLOAD DUP2 PUSH20 0xFFFFFFFFFFFFFFFFFFFFFFFFFFFFFFFFFFFFFFFF MUL NOT AND SWAP1 DUP4 PUSH20 0xFFFFFFFFFFFFFFFFFFFFFFFFFFFFFFFFFFFFFFFF AND MUL OR SWAP1 SSTORE POP DUP2 PUSH20 0xFFFFFFFFFFFFFFFFFFFFFFFFFFFFFFFFFFFFFFFF AND DUP2 PUSH20 0xFFFFFFFFFFFFFFFFFFFFFFFFFFFFFFFFFFFFFFFF AND PUSH32 0x8BE0079C531659141344CD1FD0A4F28419497F9722A3DAAFE3B4186F6B6457E0 PUSH1 0x40 MLOAD PUSH1 0x40 MLOAD DUP1 SWAP2 SUB SWAP1 LOG3 POP POP JUMP JUMPDEST PUSH2 0x24F1 DUP1 PUSH3 0x13B PUSH1 0x0 CODECOPY PUSH1 0x0 RETURN INVALID PUSH1 0x80 PUSH1 0x40 MSTORE PUSH1 0x4 CALLDATASIZE LT PUSH2 0xA7 JUMPI PUSH1 0x0 CALLDATALOAD PUSH1 0xE0 SHR DUP1 PUSH4 0x858B0554 GT PUSH2 0x64 JUMPI DUP1 PUSH4 0x858B0554 EQ PUSH2 0x1CD JUMPI DUP1 PUSH4 0x8DA5CB5B EQ PUSH2 0x20A JUMPI DUP1 PUSH4 0xB2BDFA7B EQ PUSH2 0x235 JUMPI DUP1 PUSH4 0xD735573D EQ PUSH2 0x260 JUMPI DUP1 PUSH4 0xE172FCA8 EQ PUSH2 0x2A4 JUMPI DUP1 PUSH4 0xF2FDE38B EQ PUSH2 0x2CD JUMPI PUSH2 0xA7 JUMP JUMPDEST DUP1 PUSH4 0x49A5F65 EQ PUSH2 0xAC JUMPI DUP1 PUSH4 0x1C6743E4 EQ PUSH2 0xDC JUMPI DUP1 PUSH4 0x2458C544 EQ PUSH2 0x119 JUMPI DUP1 PUSH4 0x6A7D1816 EQ PUSH2 0x156 JUMPI DUP1 PUSH4 0x6B6F0494 EQ PUSH2 0x186 JUMPI DUP1 PUSH4 0x715018A6 EQ PUSH2 0x1B6 JUMPI JUMPDEST PUSH1 0x0 DUP1 REVERT JUMPDEST PUSH2 0xC6 PUSH1 0x4 DUP1 CALLDATASIZE SUB DUP2 ADD SWAP1 PUSH2 0xC1 SWAP2 SWAP1 PUSH2 0x1A57 JUMP JUMPDEST PUSH2 0x2F6 JUMP JUMPDEST PUSH1 0x40 MLOAD PUSH2 0xD3 SWAP2 SWAP1 PUSH2 0x1E4D JUMP JUMPDEST PUSH1 0x40 MLOAD DUP1 SWAP2 SUB SWAP1 RETURN JUMPDEST CALLVALUE DUP1 ISZERO PUSH2 0xE8 JUMPI PUSH1 0x0 DUP1 REVERT JUMPDEST POP PUSH2 0x103 PUSH1 0x4 DUP1 CALLDATASIZE SUB DUP2 ADD SWAP1 PUSH2 0xFE SWAP2 SWAP1 PUSH2 0x1A2A JUMP JUMPDEST PUSH2 0x457 JUMP JUMPDEST PUSH1 0x40 MLOAD PUSH2 0x110 SWAP2 SWAP1 PUSH2 0x1F70 JUMP JUMPDEST PUSH1 0x40 MLOAD DUP1 SWAP2 SUB SWAP1 RETURN JUMPDEST CALLVALUE DUP1 ISZERO PUSH2 0x125 JUMPI PUSH1 0x0 DUP1 REVERT JUMPDEST POP PUSH2 0x140 PUSH1 0x4 DUP1 CALLDATASIZE SUB DUP2 ADD SWAP1 PUSH2 0x13B SWAP2 SWAP1 PUSH2 0x1AE2 JUMP JUMPDEST PUSH2 0x46F JUMP JUMPDEST PUSH1 0x40 MLOAD PUSH2 0x14D SWAP2 SWAP1 PUSH2 0x1F70 JUMP JUMPDEST PUSH1 0x40 MLOAD DUP1 SWAP2 SUB SWAP1 RETURN JUMPDEST PUSH2 0x170 PUSH1 0x4 DUP1 CALLDATASIZE SUB DUP2 ADD SWAP1 PUSH2 0x16B SWAP2 SWAP1 PUSH2 0x1A2A JUMP JUMPDEST PUSH2 0x751 JUMP JUMPDEST PUSH1 0x40 MLOAD PUSH2 0x17D SWAP2 SWAP1 PUSH2 0x1E4D JUMP JUMPDEST PUSH1 0x40 MLOAD DUP1 SWAP2 SUB SWAP1 RETURN JUMPDEST PUSH2 0x1A0 PUSH1 0x4 DUP1 CALLDATASIZE SUB DUP2 ADD SWAP1 PUSH2 0x19B SWAP2 SWAP1 PUSH2 0x1B89 JUMP JUMPDEST PUSH2 0x8A6 JUMP JUMPDEST PUSH1 0x40 MLOAD PUSH2 0x1AD SWAP2 SWAP1 PUSH2 0x1E4D JUMP JUMPDEST PUSH1 0x40 MLOAD DUP1 SWAP2 SUB SWAP1 RETURN JUMPDEST CALLVALUE DUP1 ISZERO PUSH2 0x1C2 JUMPI PUSH1 0x0 DUP1 REVERT JUMPDEST POP PUSH2 0x1CB PUSH2 0x11E1 JUMP JUMPDEST STOP JUMPDEST CALLVALUE DUP1 ISZERO PUSH2 0x1D9 JUMPI PUSH1 0x0 DUP1 REVERT JUMPDEST POP PUSH2 0x1F4 PUSH1 0x4 DUP1 CALLDATASIZE SUB DUP2 ADD SWAP1 PUSH2 0x1EF SWAP2 SWAP1 PUSH2 0x1B89 JUMP JUMPDEST PUSH2 0x1269 JUMP JUMPDEST PUSH1 0x40 MLOAD PUSH2 0x201 SWAP2 SWAP1 PUSH2 0x1D9F JUMP JUMPDEST PUSH1 0x40 MLOAD DUP1 SWAP2 SUB SWAP1 RETURN JUMPDEST CALLVALUE DUP1 ISZERO PUSH2 0x216 JUMPI PUSH1 0x0 DUP1 REVERT JUMPDEST POP PUSH2 0x21F PUSH2 0x129C JUMP JUMPDEST PUSH1 0x40 MLOAD PUSH2 0x22C SWAP2 SWAP1 PUSH2 0x1D9F JUMP JUMPDEST PUSH1 0x40 MLOAD DUP1 SWAP2 SUB SWAP1 RETURN JUMPDEST CALLVALUE DUP1 ISZERO PUSH2 0x241 JUMPI PUSH1 0x0 DUP1 REVERT JUMPDEST POP PUSH2 0x24A PUSH2 0x12C5 JUMP JUMPDEST PUSH1 0x40 MLOAD PUSH2 0x257 SWAP2 SWAP1 PUSH2 0x1D9F JUMP JUMPDEST PUSH1 0x40 MLOAD DUP1 SWAP2 SUB SWAP1 RETURN JUMPDEST CALLVALUE DUP1 ISZERO PUSH2 0x26C JUMPI PUSH1 0x0 DUP1 REVERT JUMPDEST POP PUSH2 0x287 PUSH1 0x4 DUP1 CALLDATASIZE SUB DUP2 ADD SWAP1 PUSH2 0x282 SWAP2 SWAP1 PUSH2 0x1B89 JUMP JUMPDEST PUSH2 0x12E9 JUMP JUMPDEST PUSH1 0x40 MLOAD PUSH2 0x29B SWAP9 SWAP8 SWAP7 SWAP6 SWAP5 SWAP4 SWAP3 SWAP2 SWAP1 PUSH2 0x1DBA JUMP JUMPDEST PUSH1 0x40 MLOAD DUP1 SWAP2 SUB SWAP1 RETURN JUMPDEST CALLVALUE DUP1 ISZERO PUSH2 0x2B0 JUMPI PUSH1 0x0 DUP1 REVERT JUMPDEST POP PUSH2 0x2CB PUSH1 0x4 DUP1 CALLDATASIZE SUB DUP2 ADD SWAP1 PUSH2 0x2C6 SWAP2 SWAP1 PUSH2 0x1A2A JUMP JUMPDEST PUSH2 0x1509 JUMP JUMPDEST STOP JUMPDEST CALLVALUE DUP1 ISZERO PUSH2 0x2D9 JUMPI PUSH1 0x0 DUP1 REVERT JUMPDEST POP PUSH2 0x2F4 PUSH1 0x4 DUP1 CALLDATASIZE SUB DUP2 ADD SWAP1 PUSH2 0x2EF SWAP2 SWAP1 PUSH2 0x1A2A JUMP JUMPDEST PUSH2 0x16B0 JUMP JUMPDEST STOP JUMPDEST PUSH1 0x60 DUP4 PUSH20 0xFFFFFFFFFFFFFFFFFFFFFFFFFFFFFFFFFFFFFFFF AND CALLER PUSH20 0xFFFFFFFFFFFFFFFFFFFFFFFFFFFFFFFFFFFFFFFF AND EQ PUSH2 0x330 JUMPI PUSH1 0x0 DUP1 REVERT JUMPDEST PUSH1 0x5 SLOAD CALLVALUE EQ PUSH2 0x33E JUMPI PUSH1 0x0 DUP1 REVERT JUMPDEST PUSH1 0x0 JUMPDEST PUSH1 0x6 DUP1 SLOAD SWAP1 POP DUP2 LT ISZERO PUSH2 0x44F JUMPI CALLER PUSH20 0xFFFFFFFFFFFFFFFFFFFFFFFFFFFFFFFFFFFFFFFF AND PUSH1 0x6 DUP3 DUP2 SLOAD DUP2 LT PUSH2 0x379 JUMPI PUSH2 0x378 PUSH2 0x22CB JUMP JUMPDEST JUMPDEST SWAP1 PUSH1 0x0 MSTORE PUSH1 0x20 PUSH1 0x0 KECCAK256 SWAP1 PUSH1 0x8 MUL ADD PUSH1 0x0 ADD PUSH1 0x0 SWAP1 SLOAD SWAP1 PUSH2 0x100 EXP SWAP1 DIV PUSH20 0xFFFFFFFFFFFFFFFFFFFFFFFFFFFFFFFFFFFFFFFF AND PUSH20 0xFFFFFFFFFFFFFFFFFFFFFFFFFFFFFFFFFFFFFFFF AND EQ ISZERO PUSH2 0x43C JUMPI DUP4 PUSH1 0x6 DUP3 DUP2 SLOAD DUP2 LT PUSH2 0x3DC JUMPI PUSH2 0x3DB PUSH2 0x22CB JUMP JUMPDEST JUMPDEST SWAP1 PUSH1 0x0 MSTORE PUSH1 0x20 PUSH1 0x0 KECCAK256 SWAP1 PUSH1 0x8 MUL ADD PUSH1 0x1 ADD SWAP1 DUP1 MLOAD SWAP1 PUSH1 0x20 ADD SWAP1 PUSH2 0x400 SWAP3 SWAP2 SWAP1 PUSH2 0x18ED JUMP JUMPDEST POP DUP3 PUSH1 0x6 DUP3 DUP2 SLOAD DUP2 LT PUSH2 0x416 JUMPI PUSH2 0x415 PUSH2 0x22CB JUMP JUMPDEST JUMPDEST SWAP1 PUSH1 0x0 MSTORE PUSH1 0x20 PUSH1 0x0 KECCAK256 SWAP1 PUSH1 0x8 MUL ADD PUSH1 0x2 ADD SWAP1 DUP1 MLOAD SWAP1 PUSH1 0x20 ADD SWAP1 PUSH2 0x43A SWAP3 SWAP2 SWAP1 PUSH2 0x18ED JUMP JUMPDEST POP JUMPDEST DUP1 DUP1 PUSH2 0x447 SWAP1 PUSH2 0x218D JUMP JUMPDEST SWAP2 POP POP PUSH2 0x341 JUMP JUMPDEST POP SWAP4 SWAP3 POP POP POP JUMP JUMPDEST PUSH1 0x8 PUSH1 0x20 MSTORE DUP1 PUSH1 0x0 MSTORE PUSH1 0x40 PUSH1 0x0 KECCAK256 PUSH1 0x0 SWAP2 POP SWAP1 POP SLOAD DUP2 JUMP JUMPDEST PUSH1 0x0 PUSH1 0x1 PUSH1 0x8 PUSH1 0x0 CALLER PUSH20 0xFFFFFFFFFFFFFFFFFFFFFFFFFFFFFFFFFFFFFFFF AND PUSH20 0xFFFFFFFFFFFFFFFFFFFFFFFFFFFFFFFFFFFFFFFF AND DUP2 MSTORE PUSH1 0x20 ADD SWAP1 DUP2 MSTORE PUSH1 0x20 ADD PUSH1 0x0 KECCAK256 SLOAD LT PUSH2 0x4F3 JUMPI PUSH1 0x40 MLOAD PUSH32 0x8C379A000000000000000000000000000000000000000000000000000000000 DUP2 MSTORE PUSH1 0x4 ADD PUSH2 0x4EA SWAP1 PUSH2 0x1ED0 JUMP JUMPDEST PUSH1 0x40 MLOAD DUP1 SWAP2 SUB SWAP1 REVERT JUMPDEST PUSH1 0x6 PUSH1 0x40 MLOAD DUP1 PUSH2 0x100 ADD PUSH1 0x40 MSTORE DUP1 CALLER PUSH20 0xFFFFFFFFFFFFFFFFFFFFFFFFFFFFFFFFFFFFFFFF AND DUP2 MSTORE PUSH1 0x20 ADD DUP7 DUP2 MSTORE PUSH1 0x20 ADD DUP6 DUP2 MSTORE PUSH1 0x20 ADD DUP5 DUP2 MSTORE PUSH1 0x20 ADD PUSH1 0x0 DUP2 MSTORE PUSH1 0x20 ADD PUSH1 0x0 DUP2 MSTORE PUSH1 0x20 ADD PUSH1 0x3 SLOAD TIMESTAMP PUSH2 0x54B SWAP2 SWAP1 PUSH2 0x2012 JUMP JUMPDEST PUSH4 0xFFFFFFFF AND DUP2 MSTORE PUSH1 0x20 ADD PUSH1 0x1 PUSH4 0xFFFFFFFF AND DUP2 MSTORE POP SWAP1 DUP1 PUSH1 0x1 DUP2 SLOAD ADD DUP1 DUP3 SSTORE DUP1 SWAP2 POP POP PUSH1 0x1 SWAP1 SUB SWAP1 PUSH1 0x0 MSTORE PUSH1 0x20 PUSH1 0x0 KECCAK256 SWAP1 PUSH1 0x8 MUL ADD PUSH1 0x0 SWAP1 SWAP2 SWAP1 SWAP2 SWAP1 SWAP2 POP PUSH1 0x0 DUP3 ADD MLOAD DUP2 PUSH1 0x0 ADD PUSH1 0x0 PUSH2 0x100 EXP DUP2 SLOAD DUP2 PUSH20 0xFFFFFFFFFFFFFFFFFFFFFFFFFFFFFFFFFFFFFFFF MUL NOT AND SWAP1 DUP4 PUSH20 0xFFFFFFFFFFFFFFFFFFFFFFFFFFFFFFFFFFFFFFFF AND MUL OR SWAP1 SSTORE POP PUSH1 0x20 DUP3 ADD MLOAD DUP2 PUSH1 0x1 ADD SWAP1 DUP1 MLOAD SWAP1 PUSH1 0x20 ADD SWAP1 PUSH2 0x5ED SWAP3 SWAP2 SWAP1 PUSH2 0x18ED JUMP JUMPDEST POP PUSH1 0x40 DUP3 ADD MLOAD DUP2 PUSH1 0x2 ADD SWAP1 DUP1 MLOAD SWAP1 PUSH1 0x20 ADD SWAP1 PUSH2 0x60A SWAP3 SWAP2 SWAP1 PUSH2 0x18ED JUMP JUMPDEST POP PUSH1 0x60 DUP3 ADD MLOAD DUP2 PUSH1 0x3 ADD SWAP1 DUP1 MLOAD SWAP1 PUSH1 0x20 ADD SWAP1 PUSH2 0x627 SWAP3 SWAP2 SWAP1 PUSH2 0x18ED JUMP JUMPDEST POP PUSH1 0x80 DUP3 ADD MLOAD DUP2 PUSH1 0x4 ADD SSTORE PUSH1 0xA0 DUP3 ADD MLOAD DUP2 PUSH1 0x5 ADD SSTORE PUSH1 0xC0 DUP3 ADD MLOAD DUP2 PUSH1 0x6 ADD SSTORE PUSH1 0xE0 DUP3 ADD MLOAD DUP2 PUSH1 0x7 ADD PUSH1 0x0 PUSH2 0x100 EXP DUP2 SLOAD DUP2 PUSH4 0xFFFFFFFF MUL NOT AND SWAP1 DUP4 PUSH4 0xFFFFFFFF AND MUL OR SWAP1 SSTORE POP POP POP PUSH1 0x0 PUSH1 0x6 DUP1 SLOAD SWAP1 POP SWAP1 POP CALLER PUSH1 0x7 PUSH1 0x0 DUP4 DUP2 MSTORE PUSH1 0x20 ADD SWAP1 DUP2 MSTORE PUSH1 0x20 ADD PUSH1 0x0 KECCAK256 PUSH1 0x0 PUSH2 0x100 EXP DUP2 SLOAD DUP2 PUSH20 0xFFFFFFFFFFFFFFFFFFFFFFFFFFFFFFFFFFFFFFFF MUL NOT AND SWAP1 DUP4 PUSH20 0xFFFFFFFFFFFFFFFFFFFFFFFFFFFFFFFFFFFFFFFF AND MUL OR SWAP1 SSTORE POP PUSH1 0x8 PUSH1 0x0 CALLER PUSH20 0xFFFFFFFFFFFFFFFFFFFFFFFFFFFFFFFFFFFFFFFF AND PUSH20 0xFFFFFFFFFFFFFFFFFFFFFFFFFFFFFFFFFFFFFFFF AND DUP2 MSTORE PUSH1 0x20 ADD SWAP1 DUP2 MSTORE PUSH1 0x20 ADD PUSH1 0x0 KECCAK256 PUSH1 0x0 DUP2 SLOAD DUP1 SWAP3 SWAP2 SWAP1 PUSH2 0x71B SWAP1 PUSH2 0x218D JUMP JUMPDEST SWAP2 SWAP1 POP SSTORE POP PUSH1 0x2 PUSH1 0x0 DUP2 SLOAD DUP1 SWAP3 SWAP2 SWAP1 PUSH2 0x733 SWAP1 PUSH2 0x218D JUMP JUMPDEST SWAP2 SWAP1 POP SSTORE POP PUSH1 0x1 PUSH1 0x2 SLOAD PUSH2 0x747 SWAP2 SWAP1 PUSH2 0x2068 JUMP JUMPDEST SWAP2 POP POP SWAP4 SWAP3 POP POP POP JUMP JUMPDEST PUSH1 0x60 PUSH1 0x4 SLOAD CALLVALUE EQ PUSH2 0x761 JUMPI PUSH1 0x0 DUP1 REVERT JUMPDEST PUSH1 0x0 JUMPDEST PUSH1 0x6 DUP1 SLOAD SWAP1 POP DUP2 LT ISZERO PUSH2 0x89F JUMPI DUP3 PUSH20 0xFFFFFFFFFFFFFFFFFFFFFFFFFFFFFFFFFFFFFFFF AND PUSH1 0x6 DUP3 DUP2 SLOAD DUP2 LT PUSH2 0x79C JUMPI PUSH2 0x79B PUSH2 0x22CB JUMP JUMPDEST JUMPDEST SWAP1 PUSH1 0x0 MSTORE PUSH1 0x20 PUSH1 0x0 KECCAK256 SWAP1 PUSH1 0x8 MUL ADD PUSH1 0x0 ADD PUSH1 0x0 SWAP1 SLOAD SWAP1 PUSH2 0x100 EXP SWAP1 DIV PUSH20 0xFFFFFFFFFFFFFFFFFFFFFFFFFFFFFFFFFFFFFFFF AND PUSH20 0xFFFFFFFFFFFFFFFFFFFFFFFFFFFFFFFFFFFFFFFF AND EQ ISZERO PUSH2 0x88C JUMPI PUSH1 0x6 DUP2 DUP2 SLOAD DUP2 LT PUSH2 0x7FE JUMPI PUSH2 0x7FD PUSH2 0x22CB JUMP JUMPDEST JUMPDEST SWAP1 PUSH1 0x0 MSTORE PUSH1 0x20 PUSH1 0x0 KECCAK256 SWAP1 PUSH1 0x8 MUL ADD PUSH1 0x7 ADD PUSH1 0x0 DUP2 DUP2 SWAP1 SLOAD SWAP1 PUSH2 0x100 EXP SWAP1 DIV PUSH4 0xFFFFFFFF AND DUP1 SWAP3 SWAP2 SWAP1 PUSH2 0x82F SWAP1 PUSH2 0x21D6 JUMP JUMPDEST SWAP2 SWAP1 PUSH2 0x100 EXP DUP2 SLOAD DUP2 PUSH4 0xFFFFFFFF MUL NOT AND SWAP1 DUP4 PUSH4 0xFFFFFFFF AND MUL OR SWAP1 SSTORE POP POP PUSH1 0x40 MLOAD DUP1 PUSH1 0x40 ADD PUSH1 0x40 MSTORE DUP1 PUSH1 0x12 DUP2 MSTORE PUSH1 0x20 ADD PUSH32 0x48612073756269646F206465206E6976656C0000000000000000000000000000 DUP2 MSTORE POP SWAP2 POP POP PUSH2 0x8A1 JUMP JUMPDEST DUP1 DUP1 PUSH2 0x897 SWAP1 PUSH2 0x218D JUMP JUMPDEST SWAP2 POP POP PUSH2 0x764 JUMP JUMPDEST POP JUMPDEST SWAP2 SWAP1 POP JUMP JUMPDEST PUSH1 0x60 PUSH1 0x1 PUSH1 0x6 DUP1 SLOAD SWAP1 POP GT PUSH2 0x8EF JUMPI PUSH32 0x6158FC8F21C8CC73DDF920956CC75D0E8A48B4FC85817A0BA89EB3B6D2A75441 PUSH1 0x40 MLOAD PUSH2 0x8E2 SWAP1 PUSH2 0x1F10 JUMP JUMPDEST PUSH1 0x40 MLOAD DUP1 SWAP2 SUB SWAP1 LOG1 PUSH2 0x11DB JUMP JUMPDEST DUP2 CALLVALUE EQ PUSH2 0x8FB JUMPI PUSH1 0x0 DUP1 REVERT JUMPDEST PUSH1 0x1 PUSH1 0x0 DUP2 SLOAD DUP1 SWAP3 SWAP2 SWAP1 PUSH2 0x90E SWAP1 PUSH2 0x218D JUMP JUMPDEST SWAP2 SWAP1 POP SSTORE POP PUSH1 0x0 PUSH1 0x6 DUP1 SLOAD SWAP1 POP TIMESTAMP PUSH1 0x6 DUP1 SLOAD SWAP1 POP PUSH1 0x1 SLOAD PUSH1 0x40 MLOAD PUSH1 0x20 ADD PUSH2 0x937 SWAP4 SWAP3 SWAP2 SWAP1 PUSH2 0x1D62 JUMP JUMPDEST PUSH1 0x40 MLOAD PUSH1 0x20 DUP2 DUP4 SUB SUB DUP2 MSTORE SWAP1 PUSH1 0x40 MSTORE DUP1 MLOAD SWAP1 PUSH1 0x20 ADD KECCAK256 PUSH1 0x0 SHR PUSH2 0x95A SWAP2 SWAP1 PUSH2 0x220D JUMP JUMPDEST SWAP1 POP PUSH1 0x0 PUSH1 0x7 PUSH1 0x0 DUP4 DUP2 MSTORE PUSH1 0x20 ADD SWAP1 DUP2 MSTORE PUSH1 0x20 ADD PUSH1 0x0 KECCAK256 PUSH1 0x0 SWAP1 SLOAD SWAP1 PUSH2 0x100 EXP SWAP1 DIV PUSH20 0xFFFFFFFFFFFFFFFFFFFFFFFFFFFFFFFFFFFFFFFF AND SWAP1 POP PUSH1 0x1 PUSH1 0x0 DUP2 SLOAD DUP1 SWAP3 SWAP2 SWAP1 PUSH2 0x9A7 SWAP1 PUSH2 0x218D JUMP JUMPDEST SWAP2 SWAP1 POP SSTORE POP PUSH1 0x0 PUSH1 0x64 SWAP1 POP PUSH1 0x0 DUP2 TIMESTAMP DUP4 PUSH1 0x1 SLOAD PUSH1 0x40 MLOAD PUSH1 0x20 ADD PUSH2 0x9CC SWAP4 SWAP3 SWAP2 SWAP1 PUSH2 0x1D62 JUMP JUMPDEST PUSH1 0x40 MLOAD PUSH1 0x20 DUP2 DUP4 SUB SUB DUP2 MSTORE SWAP1 PUSH1 0x40 MSTORE DUP1 MLOAD SWAP1 PUSH1 0x20 ADD KECCAK256 PUSH1 0x0 SHR PUSH2 0x9EF SWAP2 SWAP1 PUSH2 0x220D JUMP JUMPDEST SWAP1 POP PUSH1 0x0 JUMPDEST PUSH1 0x6 DUP1 SLOAD SWAP1 POP DUP2 LT ISZERO PUSH2 0x11D5 JUMPI PUSH1 0x6 DUP2 DUP2 SLOAD DUP2 LT PUSH2 0xA15 JUMPI PUSH2 0xA14 PUSH2 0x22CB JUMP JUMPDEST JUMPDEST SWAP1 PUSH1 0x0 MSTORE PUSH1 0x20 PUSH1 0x0 KECCAK256 SWAP1 PUSH1 0x8 MUL ADD PUSH1 0x0 ADD PUSH1 0x0 SWAP1 SLOAD SWAP1 PUSH2 0x100 EXP SWAP1 DIV PUSH20 0xFFFFFFFFFFFFFFFFFFFFFFFFFFFFFFFFFFFFFFFF AND PUSH20 0xFFFFFFFFFFFFFFFFFFFFFFFFFFFFFFFFFFFFFFFF AND CALLER PUSH20 0xFFFFFFFFFFFFFFFFFFFFFFFFFFFFFFFFFFFFFFFF AND EQ ISZERO PUSH2 0x11C2 JUMPI PUSH2 0xAA4 PUSH1 0x6 DUP3 DUP2 SLOAD DUP2 LT PUSH2 0xA91 JUMPI PUSH2 0xA90 PUSH2 0x22CB JUMP JUMPDEST JUMPDEST SWAP1 PUSH1 0x0 MSTORE PUSH1 0x20 PUSH1 0x0 KECCAK256 SWAP1 PUSH1 0x8 MUL ADD PUSH2 0x17A8 JUMP JUMPDEST PUSH2 0xAAD JUMPI PUSH1 0x0 DUP1 REVERT JUMPDEST PUSH1 0x6 DUP2 DUP2 SLOAD DUP2 LT PUSH2 0xAC1 JUMPI PUSH2 0xAC0 PUSH2 0x22CB JUMP JUMPDEST JUMPDEST SWAP1 PUSH1 0x0 MSTORE PUSH1 0x20 PUSH1 0x0 KECCAK256 SWAP1 PUSH1 0x8 MUL ADD PUSH1 0x5 ADD PUSH1 0x0 DUP2 SLOAD DUP1 SWAP3 SWAP2 SWAP1 PUSH2 0xAE3 SWAP1 PUSH2 0x218D JUMP JUMPDEST SWAP2 SWAP1 POP SSTORE POP PUSH1 0x6 DUP6 DUP2 SLOAD DUP2 LT PUSH2 0xAFC JUMPI PUSH2 0xAFB PUSH2 0x22CB JUMP JUMPDEST JUMPDEST SWAP1 PUSH1 0x0 MSTORE PUSH1 0x20 PUSH1 0x0 KECCAK256 SWAP1 PUSH1 0x8 MUL ADD PUSH1 0x5 ADD PUSH1 0x0 DUP2 SLOAD DUP1 SWAP3 SWAP2 SWAP1 PUSH2 0xB1E SWAP1 PUSH2 0x218D JUMP JUMPDEST SWAP2 SWAP1 POP SSTORE POP PUSH2 0xB4D PUSH1 0x6 DUP3 DUP2 SLOAD DUP2 LT PUSH2 0xB3A JUMPI PUSH2 0xB39 PUSH2 0x22CB JUMP JUMPDEST JUMPDEST SWAP1 PUSH1 0x0 MSTORE PUSH1 0x20 PUSH1 0x0 KECCAK256 SWAP1 PUSH1 0x8 MUL ADD PUSH2 0x17B9 JUMP JUMPDEST PUSH1 0x6 DUP2 DUP2 SLOAD DUP2 LT PUSH2 0xB61 JUMPI PUSH2 0xB60 PUSH2 0x22CB JUMP JUMPDEST JUMPDEST SWAP1 PUSH1 0x0 MSTORE PUSH1 0x20 PUSH1 0x0 KECCAK256 SWAP1 PUSH1 0x8 MUL ADD PUSH1 0x7 ADD PUSH1 0x0 SWAP1 SLOAD SWAP1 PUSH2 0x100 EXP SWAP1 DIV PUSH4 0xFFFFFFFF AND PUSH4 0xFFFFFFFF AND PUSH1 0x6 DUP7 DUP2 SLOAD DUP2 LT PUSH2 0xB9D JUMPI PUSH2 0xB9C PUSH2 0x22CB JUMP JUMPDEST JUMPDEST SWAP1 PUSH1 0x0 MSTORE PUSH1 0x20 PUSH1 0x0 KECCAK256 SWAP1 PUSH1 0x8 MUL ADD PUSH1 0x7 ADD PUSH1 0x0 SWAP1 SLOAD SWAP1 PUSH2 0x100 EXP SWAP1 DIV PUSH4 0xFFFFFFFF AND PUSH4 0xFFFFFFFF AND LT ISZERO PUSH2 0xD9E JUMPI PUSH1 0x3C DUP3 GT PUSH2 0xCBC JUMPI PUSH2 0xBDB PUSH2 0x17D8 JUMP JUMPDEST PUSH1 0x6 DUP2 DUP2 SLOAD DUP2 LT PUSH2 0xBEF JUMPI PUSH2 0xBEE PUSH2 0x22CB JUMP JUMPDEST JUMPDEST SWAP1 PUSH1 0x0 MSTORE PUSH1 0x20 PUSH1 0x0 KECCAK256 SWAP1 PUSH1 0x8 MUL ADD PUSH1 0x4 ADD PUSH1 0x0 DUP2 SLOAD DUP1 SWAP3 SWAP2 SWAP1 PUSH2 0xC11 SWAP1 PUSH2 0x218D JUMP JUMPDEST SWAP2 SWAP1 POP SSTORE POP PUSH1 0x6 DUP2 DUP2 SLOAD DUP2 LT PUSH2 0xC2A JUMPI PUSH2 0xC29 PUSH2 0x22CB JUMP JUMPDEST JUMPDEST SWAP1 PUSH1 0x0 MSTORE PUSH1 0x20 PUSH1 0x0 KECCAK256 SWAP1 PUSH1 0x8 MUL ADD PUSH1 0x7 ADD PUSH1 0x0 DUP2 DUP2 SWAP1 SLOAD SWAP1 PUSH2 0x100 EXP SWAP1 DIV PUSH4 0xFFFFFFFF AND DUP1 SWAP3 SWAP2 SWAP1 PUSH2 0xC5B SWAP1 PUSH2 0x21D6 JUMP JUMPDEST SWAP2 SWAP1 PUSH2 0x100 EXP DUP2 SLOAD DUP2 PUSH4 0xFFFFFFFF MUL NOT AND SWAP1 DUP4 PUSH4 0xFFFFFFFF AND MUL OR SWAP1 SSTORE POP POP PUSH1 0x40 MLOAD DUP1 PUSH1 0x40 ADD PUSH1 0x40 MSTORE DUP1 PUSH1 0xA DUP2 MSTORE PUSH1 0x20 ADD PUSH32 0x4861732067616E61646F00000000000000000000000000000000000000000000 DUP2 MSTORE POP SWAP6 POP POP POP POP POP POP PUSH2 0x11DC JUMP JUMPDEST PUSH32 0x6158FC8F21C8CC73DDF920956CC75D0E8A48B4FC85817A0BA89EB3B6D2A75441 PUSH1 0x40 MLOAD PUSH2 0xCE9 SWAP1 PUSH2 0x1F50 JUMP JUMPDEST PUSH1 0x40 MLOAD DUP1 SWAP2 SUB SWAP1 LOG1 ADDRESS PUSH20 0xFFFFFFFFFFFFFFFFFFFFFFFFFFFFFFFFFFFFFFFF AND PUSH4 0xE172FCA8 DUP6 PUSH1 0x40 MLOAD DUP3 PUSH4 0xFFFFFFFF AND PUSH1 0xE0 SHL DUP2 MSTORE PUSH1 0x4 ADD PUSH2 0xD2A SWAP2 SWAP1 PUSH2 0x1D9F JUMP JUMPDEST PUSH1 0x0 PUSH1 0x40 MLOAD DUP1 DUP4 SUB DUP2 PUSH1 0x0 DUP8 DUP1 EXTCODESIZE ISZERO DUP1 ISZERO PUSH2 0xD44 JUMPI PUSH1 0x0 DUP1 REVERT JUMPDEST POP GAS CALL ISZERO DUP1 ISZERO PUSH2 0xD58 JUMPI RETURNDATASIZE PUSH1 0x0 DUP1 RETURNDATACOPY RETURNDATASIZE PUSH1 0x0 REVERT JUMPDEST POP POP POP POP PUSH1 0x40 MLOAD DUP1 PUSH1 0x40 ADD PUSH1 0x40 MSTORE DUP1 PUSH1 0xB DUP2 MSTORE PUSH1 0x20 ADD PUSH32 0x486173207065726469646F000000000000000000000000000000000000000000 DUP2 MSTORE POP SWAP6 POP POP POP POP POP POP PUSH2 0x11DC JUMP JUMPDEST PUSH1 0x6 DUP2 DUP2 SLOAD DUP2 LT PUSH2 0xDB2 JUMPI PUSH2 0xDB1 PUSH2 0x22CB JUMP JUMPDEST JUMPDEST SWAP1 PUSH1 0x0 MSTORE PUSH1 0x20 PUSH1 0x0 KECCAK256 SWAP1 PUSH1 0x8 MUL ADD PUSH1 0x7 ADD PUSH1 0x0 SWAP1 SLOAD SWAP1 PUSH2 0x100 EXP SWAP1 DIV PUSH4 0xFFFFFFFF AND PUSH4 0xFFFFFFFF AND PUSH1 0x6 DUP7 DUP2 SLOAD DUP2 LT PUSH2 0xDEE JUMPI PUSH2 0xDED PUSH2 0x22CB JUMP JUMPDEST JUMPDEST SWAP1 PUSH1 0x0 MSTORE PUSH1 0x20 PUSH1 0x0 KECCAK256 SWAP1 PUSH1 0x8 MUL ADD PUSH1 0x7 ADD PUSH1 0x0 SWAP1 SLOAD SWAP1 PUSH2 0x100 EXP SWAP1 DIV PUSH4 0xFFFFFFFF AND PUSH4 0xFFFFFFFF AND EQ ISZERO PUSH2 0xFEF JUMPI PUSH1 0x32 DUP3 GT PUSH2 0xF0D JUMPI PUSH2 0xE2C PUSH2 0x17D8 JUMP JUMPDEST PUSH1 0x6 DUP2 DUP2 SLOAD DUP2 LT PUSH2 0xE40 JUMPI PUSH2 0xE3F PUSH2 0x22CB JUMP JUMPDEST JUMPDEST SWAP1 PUSH1 0x0 MSTORE PUSH1 0x20 PUSH1 0x0 KECCAK256 SWAP1 PUSH1 0x8 MUL ADD PUSH1 0x4 ADD PUSH1 0x0 DUP2 SLOAD DUP1 SWAP3 SWAP2 SWAP1 PUSH2 0xE62 SWAP1 PUSH2 0x218D JUMP JUMPDEST SWAP2 SWAP1 POP SSTORE POP PUSH1 0x6 DUP2 DUP2 SLOAD DUP2 LT PUSH2 0xE7B JUMPI PUSH2 0xE7A PUSH2 0x22CB JUMP JUMPDEST JUMPDEST SWAP1 PUSH1 0x0 MSTORE PUSH1 0x20 PUSH1 0x0 KECCAK256 SWAP1 PUSH1 0x8 MUL ADD PUSH1 0x7 ADD PUSH1 0x0 DUP2 DUP2 SWAP1 SLOAD SWAP1 PUSH2 0x100 EXP SWAP1 DIV PUSH4 0xFFFFFFFF AND DUP1 SWAP3 SWAP2 SWAP1 PUSH2 0xEAC SWAP1 PUSH2 0x21D6 JUMP JUMPDEST SWAP2 SWAP1 PUSH2 0x100 EXP DUP2 SLOAD DUP2 PUSH4 0xFFFFFFFF MUL NOT AND SWAP1 DUP4 PUSH4 0xFFFFFFFF AND MUL OR SWAP1 SSTORE POP POP PUSH1 0x40 MLOAD DUP1 PUSH1 0x40 ADD PUSH1 0x40 MSTORE DUP1 PUSH1 0xA DUP2 MSTORE PUSH1 0x20 ADD PUSH32 0x4861732067616E61646F00000000000000000000000000000000000000000000 DUP2 MSTORE POP SWAP6 POP POP POP POP POP POP PUSH2 0x11DC JUMP JUMPDEST PUSH32 0x6158FC8F21C8CC73DDF920956CC75D0E8A48B4FC85817A0BA89EB3B6D2A75441 PUSH1 0x40 MLOAD PUSH2 0xF3A SWAP1 PUSH2 0x1F50 JUMP JUMPDEST PUSH1 0x40 MLOAD DUP1 SWAP2 SUB SWAP1 LOG1 ADDRESS PUSH20 0xFFFFFFFFFFFFFFFFFFFFFFFFFFFFFFFFFFFFFFFF AND PUSH4 0xE172FCA8 DUP6 PUSH1 0x40 MLOAD DUP3 PUSH4 0xFFFFFFFF AND PUSH1 0xE0 SHL DUP2 MSTORE PUSH1 0x4 ADD PUSH2 0xF7B SWAP2 SWAP1 PUSH2 0x1D9F JUMP JUMPDEST PUSH1 0x0 PUSH1 0x40 MLOAD DUP1 DUP4 SUB DUP2 PUSH1 0x0 DUP8 DUP1 EXTCODESIZE ISZERO DUP1 ISZERO PUSH2 0xF95 JUMPI PUSH1 0x0 DUP1 REVERT JUMPDEST POP GAS CALL ISZERO DUP1 ISZERO PUSH2 0xFA9 JUMPI RETURNDATASIZE PUSH1 0x0 DUP1 RETURNDATACOPY RETURNDATASIZE PUSH1 0x0 REVERT JUMPDEST POP POP POP POP PUSH1 0x40 MLOAD DUP1 PUSH1 0x40 ADD PUSH1 0x40 MSTORE DUP1 PUSH1 0xB DUP2 MSTORE PUSH1 0x20 ADD PUSH32 0x486173207065726469646F000000000000000000000000000000000000000000 DUP2 MSTORE POP SWAP6 POP POP POP POP POP POP PUSH2 0x11DC JUMP JUMPDEST PUSH1 0x28 DUP3 GT PUSH2 0x10E0 JUMPI PUSH2 0xFFF PUSH2 0x17D8 JUMP JUMPDEST PUSH1 0x6 DUP2 DUP2 SLOAD DUP2 LT PUSH2 0x1013 JUMPI PUSH2 0x1012 PUSH2 0x22CB JUMP JUMPDEST JUMPDEST SWAP1 PUSH1 0x0 MSTORE PUSH1 0x20 PUSH1 0x0 KECCAK256 SWAP1 PUSH1 0x8 MUL ADD PUSH1 0x4 ADD PUSH1 0x0 DUP2 SLOAD DUP1 SWAP3 SWAP2 SWAP1 PUSH2 0x1035 SWAP1 PUSH2 0x218D JUMP JUMPDEST SWAP2 SWAP1 POP SSTORE POP PUSH1 0x6 DUP2 DUP2 SLOAD DUP2 LT PUSH2 0x104E JUMPI PUSH2 0x104D PUSH2 0x22CB JUMP JUMPDEST JUMPDEST SWAP1 PUSH1 0x0 MSTORE PUSH1 0x20 PUSH1 0x0 KECCAK256 SWAP1 PUSH1 0x8 MUL ADD PUSH1 0x7 ADD PUSH1 0x0 DUP2 DUP2 SWAP1 SLOAD SWAP1 PUSH2 0x100 EXP SWAP1 DIV PUSH4 0xFFFFFFFF AND DUP1 SWAP3 SWAP2 SWAP1 PUSH2 0x107F SWAP1 PUSH2 0x21D6 JUMP JUMPDEST SWAP2 SWAP1 PUSH2 0x100 EXP DUP2 SLOAD DUP2 PUSH4 0xFFFFFFFF MUL NOT AND SWAP1 DUP4 PUSH4 0xFFFFFFFF AND MUL OR SWAP1 SSTORE POP POP PUSH1 0x40 MLOAD DUP1 PUSH1 0x40 ADD PUSH1 0x40 MSTORE DUP1 PUSH1 0xA DUP2 MSTORE PUSH1 0x20 ADD PUSH32 0x4861732067616E61646F00000000000000000000000000000000000000000000 DUP2 MSTORE POP SWAP6 POP POP POP POP POP POP PUSH2 0x11DC JUMP JUMPDEST PUSH32 0x6158FC8F21C8CC73DDF920956CC75D0E8A48B4FC85817A0BA89EB3B6D2A75441 PUSH1 0x40 MLOAD PUSH2 0x110D SWAP1 PUSH2 0x1F50 JUMP JUMPDEST PUSH1 0x40 MLOAD DUP1 SWAP2 SUB SWAP1 LOG1 ADDRESS PUSH20 0xFFFFFFFFFFFFFFFFFFFFFFFFFFFFFFFFFFFFFFFF AND PUSH4 0xE172FCA8 DUP6 PUSH1 0x40 MLOAD DUP3 PUSH4 0xFFFFFFFF AND PUSH1 0xE0 SHL DUP2 MSTORE PUSH1 0x4 ADD PUSH2 0x114E SWAP2 SWAP1 PUSH2 0x1D9F JUMP JUMPDEST PUSH1 0x0 PUSH1 0x40 MLOAD DUP1 DUP4 SUB DUP2 PUSH1 0x0 DUP8 DUP1 EXTCODESIZE ISZERO DUP1 ISZERO PUSH2 0x1168 JUMPI PUSH1 0x0 DUP1 REVERT JUMPDEST POP GAS CALL ISZERO DUP1 ISZERO PUSH2 0x117C JUMPI RETURNDATASIZE PUSH1 0x0 DUP1 RETURNDATACOPY RETURNDATASIZE PUSH1 0x0 REVERT JUMPDEST POP POP POP POP PUSH1 0x40 MLOAD DUP1 PUSH1 0x40 ADD PUSH1 0x40 MSTORE DUP1 PUSH1 0xB DUP2 MSTORE PUSH1 0x20 ADD PUSH32 0x486173207065726469646F000000000000000000000000000000000000000000 DUP2 MSTORE POP SWAP6 POP POP POP POP POP POP PUSH2 0x11DC JUMP JUMPDEST DUP1 DUP1 PUSH2 0x11CD SWAP1 PUSH2 0x218D JUMP JUMPDEST SWAP2 POP POP PUSH2 0x9F4 JUMP JUMPDEST POP POP POP POP POP JUMPDEST JUMPDEST SWAP2 SWAP1 POP JUMP JUMPDEST PUSH2 0x11E9 PUSH2 0x1821 JUMP JUMPDEST PUSH20 0xFFFFFFFFFFFFFFFFFFFFFFFFFFFFFFFFFFFFFFFF AND PUSH2 0x1207 PUSH2 0x129C JUMP JUMPDEST PUSH20 0xFFFFFFFFFFFFFFFFFFFFFFFFFFFFFFFFFFFFFFFF AND EQ PUSH2 0x125D JUMPI PUSH1 0x40 MLOAD PUSH32 0x8C379A000000000000000000000000000000000000000000000000000000000 DUP2 MSTORE PUSH1 0x4 ADD PUSH2 0x1254 SWAP1 PUSH2 0x1F30 JUMP JUMPDEST PUSH1 0x40 MLOAD DUP1 SWAP2 SUB SWAP1 REVERT JUMPDEST PUSH2 0x1267 PUSH1 0x0 PUSH2 0x1829 JUMP JUMPDEST JUMP JUMPDEST PUSH1 0x7 PUSH1 0x20 MSTORE DUP1 PUSH1 0x0 MSTORE PUSH1 0x40 PUSH1 0x0 KECCAK256 PUSH1 0x0 SWAP2 POP SLOAD SWAP1 PUSH2 0x100 EXP SWAP1 DIV PUSH20 0xFFFFFFFFFFFFFFFFFFFFFFFFFFFFFFFFFFFFFFFF AND DUP2 JUMP JUMPDEST PUSH1 0x0 DUP1 PUSH1 0x0 SWAP1 SLOAD SWAP1 PUSH2 0x100 EXP SWAP1 DIV PUSH20 0xFFFFFFFFFFFFFFFFFFFFFFFFFFFFFFFFFFFFFFFF AND SWAP1 POP SWAP1 JUMP JUMPDEST PUSH1 0x0 DUP1 SLOAD SWAP1 PUSH2 0x100 EXP SWAP1 DIV PUSH20 0xFFFFFFFFFFFFFFFFFFFFFFFFFFFFFFFFFFFFFFFF AND DUP2 JUMP JUMPDEST PUSH1 0x6 DUP2 DUP2 SLOAD DUP2 LT PUSH2 0x12F9 JUMPI PUSH1 0x0 DUP1 REVERT JUMPDEST SWAP1 PUSH1 0x0 MSTORE PUSH1 0x20 PUSH1 0x0 KECCAK256 SWAP1 PUSH1 0x8 MUL ADD PUSH1 0x0 SWAP2 POP SWAP1 POP DUP1 PUSH1 0x0 ADD PUSH1 0x0 SWAP1 SLOAD SWAP1 PUSH2 0x100 EXP SWAP1 DIV PUSH20 0xFFFFFFFFFFFFFFFFFFFFFFFFFFFFFFFFFFFFFFFF AND SWAP1 DUP1 PUSH1 0x1 ADD DUP1 SLOAD PUSH2 0x1342 SWAP1 PUSH2 0x212A JUMP JUMPDEST DUP1 PUSH1 0x1F ADD PUSH1 0x20 DUP1 SWAP2 DIV MUL PUSH1 0x20 ADD PUSH1 0x40 MLOAD SWAP1 DUP2 ADD PUSH1 0x40 MSTORE DUP1 SWAP3 SWAP2 SWAP1 DUP2 DUP2 MSTORE PUSH1 0x20 ADD DUP3 DUP1 SLOAD PUSH2 0x136E SWAP1 PUSH2 0x212A JUMP JUMPDEST DUP1 ISZERO PUSH2 0x13BB JUMPI DUP1 PUSH1 0x1F LT PUSH2 0x1390 JUMPI PUSH2 0x100 DUP1 DUP4 SLOAD DIV MUL DUP4 MSTORE SWAP2 PUSH1 0x20 ADD SWAP2 PUSH2 0x13BB JUMP JUMPDEST DUP3 ADD SWAP2 SWAP1 PUSH1 0x0 MSTORE PUSH1 0x20 PUSH1 0x0 KECCAK256 SWAP1 JUMPDEST DUP2 SLOAD DUP2 MSTORE SWAP1 PUSH1 0x1 ADD SWAP1 PUSH1 0x20 ADD DUP1 DUP4 GT PUSH2 0x139E JUMPI DUP3 SWAP1 SUB PUSH1 0x1F AND DUP3 ADD SWAP2 JUMPDEST POP POP POP POP POP SWAP1 DUP1 PUSH1 0x2 ADD DUP1 SLOAD PUSH2 0x13D0 SWAP1 PUSH2 0x212A JUMP JUMPDEST DUP1 PUSH1 0x1F ADD PUSH1 0x20 DUP1 SWAP2 DIV MUL PUSH1 0x20 ADD PUSH1 0x40 MLOAD SWAP1 DUP2 ADD PUSH1 0x40 MSTORE DUP1 SWAP3 SWAP2 SWAP1 DUP2 DUP2 MSTORE PUSH1 0x20 ADD DUP3 DUP1 SLOAD PUSH2 0x13FC SWAP1 PUSH2 0x212A JUMP JUMPDEST DUP1 ISZERO PUSH2 0x1449 JUMPI DUP1 PUSH1 0x1F LT PUSH2 0x141E JUMPI PUSH2 0x100 DUP1 DUP4 SLOAD DIV MUL DUP4 MSTORE SWAP2 PUSH1 0x20 ADD SWAP2 PUSH2 0x1449 JUMP JUMPDEST DUP3 ADD SWAP2 SWAP1 PUSH1 0x0 MSTORE PUSH1 0x20 PUSH1 0x0 KECCAK256 SWAP1 JUMPDEST DUP2 SLOAD DUP2 MSTORE SWAP1 PUSH1 0x1 ADD SWAP1 PUSH1 0x20 ADD DUP1 DUP4 GT PUSH2 0x142C JUMPI DUP3 SWAP1 SUB PUSH1 0x1F AND DUP3 ADD SWAP2 JUMPDEST POP POP POP POP POP SWAP1 DUP1 PUSH1 0x3 ADD DUP1 SLOAD PUSH2 0x145E SWAP1 PUSH2 0x212A JUMP JUMPDEST DUP1 PUSH1 0x1F ADD PUSH1 0x20 DUP1 SWAP2 DIV MUL PUSH1 0x20 ADD PUSH1 0x40 MLOAD SWAP1 DUP2 ADD PUSH1 0x40 MSTORE DUP1 SWAP3 SWAP2 SWAP1 DUP2 DUP2 MSTORE PUSH1 0x20 ADD DUP3 DUP1 SLOAD PUSH2 0x148A SWAP1 PUSH2 0x212A JUMP JUMPDEST DUP1 ISZERO PUSH2 0x14D7 JUMPI DUP1 PUSH1 0x1F LT PUSH2 0x14AC JUMPI PUSH2 0x100 DUP1 DUP4 SLOAD DIV MUL DUP4 MSTORE SWAP2 PUSH1 0x20 ADD SWAP2 PUSH2 0x14D7 JUMP JUMPDEST DUP3 ADD SWAP2 SWAP1 PUSH1 0x0 MSTORE PUSH1 0x20 PUSH1 0x0 KECCAK256 SWAP1 JUMPDEST DUP2 SLOAD DUP2 MSTORE SWAP1 PUSH1 0x1 ADD SWAP1 PUSH1 0x20 ADD DUP1 DUP4 GT PUSH2 0x14BA JUMPI DUP3 SWAP1 SUB PUSH1 0x1F AND DUP3 ADD SWAP2 JUMPDEST POP POP POP POP POP SWAP1 DUP1 PUSH1 0x4 ADD SLOAD SWAP1 DUP1 PUSH1 0x5 ADD SLOAD SWAP1 DUP1 PUSH1 0x6 ADD SLOAD SWAP1 DUP1 PUSH1 0x7 ADD PUSH1 0x0 SWAP1 SLOAD SWAP1 PUSH2 0x100 EXP SWAP1 DIV PUSH4 0xFFFFFFFF AND SWAP1 POP DUP9 JUMP JUMPDEST PUSH1 0x0 JUMPDEST PUSH1 0x6 DUP1 SLOAD SWAP1 POP DUP2 LT ISZERO PUSH2 0x16AC JUMPI DUP2 PUSH20 0xFFFFFFFFFFFFFFFFFFFFFFFFFFFFFFFFFFFFFFFF AND PUSH1 0x6 DUP3 DUP2 SLOAD DUP2 LT PUSH2 0x1544 JUMPI PUSH2 0x1543 PUSH2 0x22CB JUMP JUMPDEST JUMPDEST SWAP1 PUSH1 0x0 MSTORE PUSH1 0x20 PUSH1 0x0 KECCAK256 SWAP1 PUSH1 0x8 MUL ADD PUSH1 0x0 ADD PUSH1 0x0 SWAP1 SLOAD SWAP1 PUSH2 0x100 EXP SWAP1 DIV PUSH20 0xFFFFFFFFFFFFFFFFFFFFFFFFFFFFFFFFFFFFFFFF AND PUSH20 0xFFFFFFFFFFFFFFFFFFFFFFFFFFFFFFFFFFFFFFFF AND EQ ISZERO PUSH2 0x1699 JUMPI PUSH32 0x20FDB8AB571BFBAB79104BEA84F9C31CB79C5AE45B5F515C1D6C8393E0028350 PUSH1 0x6 DUP3 DUP2 SLOAD DUP2 LT PUSH2 0x15C7 JUMPI PUSH2 0x15C6 PUSH2 0x22CB JUMP JUMPDEST JUMPDEST SWAP1 PUSH1 0x0 MSTORE PUSH1 0x20 PUSH1 0x0 KECCAK256 SWAP1 PUSH1 0x8 MUL ADD PUSH1 0x2 ADD PUSH1 0x6 DUP4 DUP2 SLOAD DUP2 LT PUSH2 0x15EC JUMPI PUSH2 0x15EB PUSH2 0x22CB JUMP JUMPDEST JUMPDEST SWAP1 PUSH1 0x0 MSTORE PUSH1 0x20 PUSH1 0x0 KECCAK256 SWAP1 PUSH1 0x8 MUL ADD PUSH1 0x1 ADD PUSH1 0x6 DUP5 DUP2 SLOAD DUP2 LT PUSH2 0x1611 JUMPI PUSH2 0x1610 PUSH2 0x22CB JUMP JUMPDEST JUMPDEST SWAP1 PUSH1 0x0 MSTORE PUSH1 0x20 PUSH1 0x0 KECCAK256 SWAP1 PUSH1 0x8 MUL ADD PUSH1 0x7 ADD PUSH1 0x0 SWAP1 SLOAD SWAP1 PUSH2 0x100 EXP SWAP1 DIV PUSH4 0xFFFFFFFF AND PUSH1 0x6 DUP6 DUP2 SLOAD DUP2 LT PUSH2 0x1647 JUMPI PUSH2 0x1646 PUSH2 0x22CB JUMP JUMPDEST JUMPDEST SWAP1 PUSH1 0x0 MSTORE PUSH1 0x20 PUSH1 0x0 KECCAK256 SWAP1 PUSH1 0x8 MUL ADD PUSH1 0x4 ADD SLOAD PUSH1 0x6 DUP7 DUP2 SLOAD DUP2 LT PUSH2 0x166D JUMPI PUSH2 0x166C PUSH2 0x22CB JUMP JUMPDEST JUMPDEST SWAP1 PUSH1 0x0 MSTORE PUSH1 0x20 PUSH1 0x0 KECCAK256 SWAP1 PUSH1 0x8 MUL ADD PUSH1 0x5 ADD SLOAD PUSH1 0x40 MLOAD PUSH2 0x1690 SWAP6 SWAP5 SWAP4 SWAP3 SWAP2 SWAP1 PUSH2 0x1E6F JUMP JUMPDEST PUSH1 0x40 MLOAD DUP1 SWAP2 SUB SWAP1 LOG1 JUMPDEST DUP1 DUP1 PUSH2 0x16A4 SWAP1 PUSH2 0x218D JUMP JUMPDEST SWAP2 POP POP PUSH2 0x150C JUMP JUMPDEST POP POP JUMP JUMPDEST PUSH2 0x16B8 PUSH2 0x1821 JUMP JUMPDEST PUSH20 0xFFFFFFFFFFFFFFFFFFFFFFFFFFFFFFFFFFFFFFFF AND PUSH2 0x16D6 PUSH2 0x129C JUMP JUMPDEST PUSH20 0xFFFFFFFFFFFFFFFFFFFFFFFFFFFFFFFFFFFFFFFF AND EQ PUSH2 0x172C JUMPI PUSH1 0x40 MLOAD PUSH32 0x8C379A000000000000000000000000000000000000000000000000000000000 DUP2 MSTORE PUSH1 0x4 ADD PUSH2 0x1723 SWAP1 PUSH2 0x1F30 JUMP JUMPDEST PUSH1 0x40 MLOAD DUP1 SWAP2 SUB SWAP1 REVERT JUMPDEST PUSH1 0x0 PUSH20 0xFFFFFFFFFFFFFFFFFFFFFFFFFFFFFFFFFFFFFFFF AND DUP2 PUSH20 0xFFFFFFFFFFFFFFFFFFFFFFFFFFFFFFFFFFFFFFFF AND EQ ISZERO PUSH2 0x179C JUMPI PUSH1 0x40 MLOAD PUSH32 0x8C379A000000000000000000000000000000000000000000000000000000000 DUP2 MSTORE PUSH1 0x4 ADD PUSH2 0x1793 SWAP1 PUSH2 0x1EF0 JUMP JUMPDEST PUSH1 0x40 MLOAD DUP1 SWAP2 SUB SWAP1 REVERT JUMPDEST PUSH2 0x17A5 DUP2 PUSH2 0x1829 JUMP JUMPDEST POP JUMP JUMPDEST PUSH1 0x0 TIMESTAMP DUP3 PUSH1 0x6 ADD SLOAD GT ISZERO SWAP1 POP SWAP2 SWAP1 POP JUMP JUMPDEST PUSH1 0x3 SLOAD TIMESTAMP PUSH2 0x17C7 SWAP2 SWAP1 PUSH2 0x2012 JUMP JUMPDEST PUSH4 0xFFFFFFFF AND DUP2 PUSH1 0x6 ADD DUP2 SWAP1 SSTORE POP POP JUMP JUMPDEST CALLER PUSH20 0xFFFFFFFFFFFFFFFFFFFFFFFFFFFFFFFFFFFFFFFF AND PUSH2 0x8FC SELFBALANCE SWAP1 DUP2 ISZERO MUL SWAP1 PUSH1 0x40 MLOAD PUSH1 0x0 PUSH1 0x40 MLOAD DUP1 DUP4 SUB DUP2 DUP6 DUP9 DUP9 CALL SWAP4 POP POP POP POP ISZERO DUP1 ISZERO PUSH2 0x181E JUMPI RETURNDATASIZE PUSH1 0x0 DUP1 RETURNDATACOPY RETURNDATASIZE PUSH1 0x0 REVERT JUMPDEST POP JUMP JUMPDEST PUSH1 0x0 CALLER SWAP1 POP SWAP1 JUMP JUMPDEST PUSH1 0x0 DUP1 PUSH1 0x0 SWAP1 SLOAD SWAP1 PUSH2 0x100 EXP SWAP1 DIV PUSH20 0xFFFFFFFFFFFFFFFFFFFFFFFFFFFFFFFFFFFFFFFF AND SWAP1 POP DUP2 PUSH1 0x0 DUP1 PUSH2 0x100 EXP DUP2 SLOAD DUP2 PUSH20 0xFFFFFFFFFFFFFFFFFFFFFFFFFFFFFFFFFFFFFFFF MUL NOT AND SWAP1 DUP4 PUSH20 0xFFFFFFFFFFFFFFFFFFFFFFFFFFFFFFFFFFFFFFFF AND MUL OR SWAP1 SSTORE POP DUP2 PUSH20 0xFFFFFFFFFFFFFFFFFFFFFFFFFFFFFFFFFFFFFFFF AND DUP2 PUSH20 0xFFFFFFFFFFFFFFFFFFFFFFFFFFFFFFFFFFFFFFFF AND PUSH32 0x8BE0079C531659141344CD1FD0A4F28419497F9722A3DAAFE3B4186F6B6457E0 PUSH1 0x40 MLOAD PUSH1 0x40 MLOAD DUP1 SWAP2 SUB SWAP1 LOG3 POP POP JUMP JUMPDEST DUP3 DUP1 SLOAD PUSH2 0x18F9 SWAP1 PUSH2 0x212A JUMP JUMPDEST SWAP1 PUSH1 0x0 MSTORE PUSH1 0x20 PUSH1 0x0 KECCAK256 SWAP1 PUSH1 0x1F ADD PUSH1 0x20 SWAP1 DIV DUP2 ADD SWAP3 DUP3 PUSH2 0x191B JUMPI PUSH1 0x0 DUP6 SSTORE PUSH2 0x1962 JUMP JUMPDEST DUP3 PUSH1 0x1F LT PUSH2 0x1934 JUMPI DUP1 MLOAD PUSH1 0xFF NOT AND DUP4 DUP1 ADD OR DUP6 SSTORE PUSH2 0x1962 JUMP JUMPDEST DUP3 DUP1 ADD PUSH1 0x1 ADD DUP6 SSTORE DUP3 ISZERO PUSH2 0x1962 JUMPI SWAP2 DUP3 ADD JUMPDEST DUP3 DUP2 GT ISZERO PUSH2 0x1961 JUMPI DUP3 MLOAD DUP3 SSTORE SWAP2 PUSH1 0x20 ADD SWAP2 SWAP1 PUSH1 0x1 ADD SWAP1 PUSH2 0x1946 JUMP JUMPDEST JUMPDEST POP SWAP1 POP PUSH2 0x196F SWAP2 SWAP1 PUSH2 0x1973 JUMP JUMPDEST POP SWAP1 JUMP JUMPDEST JUMPDEST DUP1 DUP3 GT ISZERO PUSH2 0x198C JUMPI PUSH1 0x0 DUP2 PUSH1 0x0 SWAP1 SSTORE POP PUSH1 0x1 ADD PUSH2 0x1974 JUMP JUMPDEST POP SWAP1 JUMP JUMPDEST PUSH1 0x0 PUSH2 0x19A3 PUSH2 0x199E DUP5 PUSH2 0x1FB0 JUMP JUMPDEST PUSH2 0x1F8B JUMP JUMPDEST SWAP1 POP DUP3 DUP2 MSTORE PUSH1 0x20 DUP2 ADD DUP5 DUP5 DUP5 ADD GT ISZERO PUSH2 0x19BF JUMPI PUSH2 0x19BE PUSH2 0x232E JUMP JUMPDEST JUMPDEST PUSH2 0x19CA DUP5 DUP3 DUP6 PUSH2 0x20E8 JUMP JUMPDEST POP SWAP4 SWAP3 POP POP POP JUMP JUMPDEST PUSH1 0x0 DUP2 CALLDATALOAD SWAP1 POP PUSH2 0x19E1 DUP2 PUSH2 0x248D JUMP JUMPDEST SWAP3 SWAP2 POP POP JUMP JUMPDEST PUSH1 0x0 DUP3 PUSH1 0x1F DUP4 ADD SLT PUSH2 0x19FC JUMPI PUSH2 0x19FB PUSH2 0x2329 JUMP JUMPDEST JUMPDEST DUP2 CALLDATALOAD PUSH2 0x1A0C DUP5 DUP3 PUSH1 0x20 DUP7 ADD PUSH2 0x1990 JUMP JUMPDEST SWAP2 POP POP SWAP3 SWAP2 POP POP JUMP JUMPDEST PUSH1 0x0 DUP2 CALLDATALOAD SWAP1 POP PUSH2 0x1A24 DUP2 PUSH2 0x24A4 JUMP JUMPDEST SWAP3 SWAP2 POP POP JUMP JUMPDEST PUSH1 0x0 PUSH1 0x20 DUP3 DUP5 SUB SLT ISZERO PUSH2 0x1A40 JUMPI PUSH2 0x1A3F PUSH2 0x2338 JUMP JUMPDEST JUMPDEST PUSH1 0x0 PUSH2 0x1A4E DUP5 DUP3 DUP6 ADD PUSH2 0x19D2 JUMP JUMPDEST SWAP2 POP POP SWAP3 SWAP2 POP POP JUMP JUMPDEST PUSH1 0x0 DUP1 PUSH1 0x0 PUSH1 0x60 DUP5 DUP7 SUB SLT ISZERO PUSH2 0x1A70 JUMPI PUSH2 0x1A6F PUSH2 0x2338 JUMP JUMPDEST JUMPDEST PUSH1 0x0 PUSH2 0x1A7E DUP7 DUP3 DUP8 ADD PUSH2 0x19D2 JUMP JUMPDEST SWAP4 POP POP PUSH1 0x20 DUP5 ADD CALLDATALOAD PUSH8 0xFFFFFFFFFFFFFFFF DUP2 GT ISZERO PUSH2 0x1A9F JUMPI PUSH2 0x1A9E PUSH2 0x2333 JUMP JUMPDEST JUMPDEST PUSH2 0x1AAB DUP7 DUP3 DUP8 ADD PUSH2 0x19E7 JUMP JUMPDEST SWAP3 POP POP PUSH1 0x40 DUP5 ADD CALLDATALOAD PUSH8 0xFFFFFFFFFFFFFFFF DUP2 GT ISZERO PUSH2 0x1ACC JUMPI PUSH2 0x1ACB PUSH2 0x2333 JUMP JUMPDEST JUMPDEST PUSH2 0x1AD8 DUP7 DUP3 DUP8 ADD PUSH2 0x19E7 JUMP JUMPDEST SWAP2 POP POP SWAP3 POP SWAP3 POP SWAP3 JUMP JUMPDEST PUSH1 0x0 DUP1 PUSH1 0x0 PUSH1 0x60 DUP5 DUP7 SUB SLT ISZERO PUSH2 0x1AFB JUMPI PUSH2 0x1AFA PUSH2 0x2338 JUMP JUMPDEST JUMPDEST PUSH1 0x0 DUP5 ADD CALLDATALOAD PUSH8 0xFFFFFFFFFFFFFFFF DUP2 GT ISZERO PUSH2 0x1B19 JUMPI PUSH2 0x1B18 PUSH2 0x2333 JUMP JUMPDEST JUMPDEST PUSH2 0x1B25 DUP7 DUP3 DUP8 ADD PUSH2 0x19E7 JUMP JUMPDEST SWAP4 POP POP PUSH1 0x20 DUP5 ADD CALLDATALOAD PUSH8 0xFFFFFFFFFFFFFFFF DUP2 GT ISZERO PUSH2 0x1B46 JUMPI PUSH2 0x1B45 PUSH2 0x2333 JUMP JUMPDEST JUMPDEST PUSH2 0x1B52 DUP7 DUP3 DUP8 ADD PUSH2 0x19E7 JUMP JUMPDEST SWAP3 POP POP PUSH1 0x40 DUP5 ADD CALLDATALOAD PUSH8 0xFFFFFFFFFFFFFFFF DUP2 GT ISZERO PUSH2 0x1B73 JUMPI PUSH2 0x1B72 PUSH2 0x2333 JUMP JUMPDEST JUMPDEST PUSH2 0x1B7F DUP7 DUP3 DUP8 ADD PUSH2 0x19E7 JUMP JUMPDEST SWAP2 POP POP SWAP3 POP SWAP3 POP SWAP3 JUMP JUMPDEST PUSH1 0x0 PUSH1 0x20 DUP3 DUP5 SUB SLT ISZERO PUSH2 0x1B9F JUMPI PUSH2 0x1B9E PUSH2 0x2338 JUMP JUMPDEST JUMPDEST PUSH1 0x0 PUSH2 0x1BAD DUP5 DUP3 DUP6 ADD PUSH2 0x1A15 JUMP JUMPDEST SWAP2 POP POP SWAP3 SWAP2 POP POP JUMP JUMPDEST PUSH2 0x1BBF DUP2 PUSH2 0x209C JUMP JUMPDEST DUP3 MSTORE POP POP JUMP JUMPDEST PUSH1 0x0 PUSH2 0x1BD0 DUP3 PUSH2 0x1FF6 JUMP JUMPDEST PUSH2 0x1BDA DUP2 DUP6 PUSH2 0x2001 JUMP JUMPDEST SWAP4 POP PUSH2 0x1BEA DUP2 DUP6 PUSH1 0x20 DUP7 ADD PUSH2 0x20F7 JUMP JUMPDEST PUSH2 0x1BF3 DUP2 PUSH2 0x233D JUMP JUMPDEST DUP5 ADD SWAP2 POP POP SWAP3 SWAP2 POP POP JUMP JUMPDEST PUSH1 0x0 DUP2 SLOAD PUSH2 0x1C0B DUP2 PUSH2 0x212A JUMP JUMPDEST PUSH2 0x1C15 DUP2 DUP7 PUSH2 0x2001 JUMP JUMPDEST SWAP5 POP PUSH1 0x1 DUP3 AND PUSH1 0x0 DUP2 EQ PUSH2 0x1C30 JUMPI PUSH1 0x1 DUP2 EQ PUSH2 0x1C42 JUMPI PUSH2 0x1C75 JUMP JUMPDEST PUSH1 0xFF NOT DUP4 AND DUP7 MSTORE PUSH1 0x20 DUP7 ADD SWAP4 POP PUSH2 0x1C75 JUMP JUMPDEST PUSH2 0x1C4B DUP6 PUSH2 0x1FE1 JUMP JUMPDEST PUSH1 0x0 JUMPDEST DUP4 DUP2 LT ISZERO PUSH2 0x1C6D JUMPI DUP2 SLOAD DUP2 DUP10 ADD MSTORE PUSH1 0x1 DUP3 ADD SWAP2 POP PUSH1 0x20 DUP2 ADD SWAP1 POP PUSH2 0x1C4E JUMP JUMPDEST DUP1 DUP9 ADD SWAP6 POP POP POP JUMPDEST POP POP POP SWAP3 SWAP2 POP POP JUMP JUMPDEST PUSH1 0x0 PUSH2 0x1C8B PUSH1 0x28 DUP4 PUSH2 0x2001 JUMP JUMPDEST SWAP2 POP PUSH2 0x1C96 DUP3 PUSH2 0x234E JUMP JUMPDEST PUSH1 0x40 DUP3 ADD SWAP1 POP SWAP2 SWAP1 POP JUMP JUMPDEST PUSH1 0x0 PUSH2 0x1CAE PUSH1 0x26 DUP4 PUSH2 0x2001 JUMP JUMPDEST SWAP2 POP PUSH2 0x1CB9 DUP3 PUSH2 0x239D JUMP JUMPDEST PUSH1 0x40 DUP3 ADD SWAP1 POP SWAP2 SWAP1 POP JUMP JUMPDEST PUSH1 0x0 PUSH2 0x1CD1 PUSH1 0x32 DUP4 PUSH2 0x2001 JUMP JUMPDEST SWAP2 POP PUSH2 0x1CDC DUP3 PUSH2 0x23EC JUMP JUMPDEST PUSH1 0x40 DUP3 ADD SWAP1 POP SWAP2 SWAP1 POP JUMP JUMPDEST PUSH1 0x0 PUSH2 0x1CF4 PUSH1 0x20 DUP4 PUSH2 0x2001 JUMP JUMPDEST SWAP2 POP PUSH2 0x1CFF DUP3 PUSH2 0x243B JUMP JUMPDEST PUSH1 0x20 DUP3 ADD SWAP1 POP SWAP2 SWAP1 POP JUMP JUMPDEST PUSH1 0x0 PUSH2 0x1D17 PUSH1 0x15 DUP4 PUSH2 0x2001 JUMP JUMPDEST SWAP2 POP PUSH2 0x1D22 DUP3 PUSH2 0x2464 JUMP JUMPDEST PUSH1 0x20 DUP3 ADD SWAP1 POP SWAP2 SWAP1 POP JUMP JUMPDEST PUSH2 0x1D36 DUP2 PUSH2 0x20CE JUMP JUMPDEST DUP3 MSTORE POP POP JUMP JUMPDEST PUSH2 0x1D4D PUSH2 0x1D48 DUP3 PUSH2 0x20CE JUMP JUMPDEST PUSH2 0x2203 JUMP JUMPDEST DUP3 MSTORE POP POP JUMP JUMPDEST PUSH2 0x1D5C DUP2 PUSH2 0x20D8 JUMP JUMPDEST DUP3 MSTORE POP POP JUMP JUMPDEST PUSH1 0x0 PUSH2 0x1D6E DUP3 DUP7 PUSH2 0x1D3C JUMP JUMPDEST PUSH1 0x20 DUP3 ADD SWAP2 POP PUSH2 0x1D7E DUP3 DUP6 PUSH2 0x1D3C JUMP JUMPDEST PUSH1 0x20 DUP3 ADD SWAP2 POP PUSH2 0x1D8E DUP3 DUP5 PUSH2 0x1D3C JUMP JUMPDEST PUSH1 0x20 DUP3 ADD SWAP2 POP DUP2 SWAP1 POP SWAP5 SWAP4 POP POP POP POP JUMP JUMPDEST PUSH1 0x0 PUSH1 0x20 DUP3 ADD SWAP1 POP PUSH2 0x1DB4 PUSH1 0x0 DUP4 ADD DUP5 PUSH2 0x1BB6 JUMP JUMPDEST SWAP3 SWAP2 POP POP JUMP JUMPDEST PUSH1 0x0 PUSH2 0x100 DUP3 ADD SWAP1 POP PUSH2 0x1DD0 PUSH1 0x0 DUP4 ADD DUP12 PUSH2 0x1BB6 JUMP JUMPDEST DUP2 DUP2 SUB PUSH1 0x20 DUP4 ADD MSTORE PUSH2 0x1DE2 DUP2 DUP11 PUSH2 0x1BC5 JUMP JUMPDEST SWAP1 POP DUP2 DUP2 SUB PUSH1 0x40 DUP4 ADD MSTORE PUSH2 0x1DF6 DUP2 DUP10 PUSH2 0x1BC5 JUMP JUMPDEST SWAP1 POP DUP2 DUP2 SUB PUSH1 0x60 DUP4 ADD MSTORE PUSH2 0x1E0A DUP2 DUP9 PUSH2 0x1BC5 JUMP JUMPDEST SWAP1 POP PUSH2 0x1E19 PUSH1 0x80 DUP4 ADD DUP8 PUSH2 0x1D2D JUMP JUMPDEST PUSH2 0x1E26 PUSH1 0xA0 DUP4 ADD DUP7 PUSH2 0x1D2D JUMP JUMPDEST PUSH2 0x1E33 PUSH1 0xC0 DUP4 ADD DUP6 PUSH2 0x1D2D JUMP JUMPDEST PUSH2 0x1E40 PUSH1 0xE0 DUP4 ADD DUP5 PUSH2 0x1D53 JUMP JUMPDEST SWAP10 SWAP9 POP POP POP POP POP POP POP POP POP JUMP JUMPDEST PUSH1 0x0 PUSH1 0x20 DUP3 ADD SWAP1 POP DUP2 DUP2 SUB PUSH1 0x0 DUP4 ADD MSTORE PUSH2 0x1E67 DUP2 DUP5 PUSH2 0x1BC5 JUMP JUMPDEST SWAP1 POP SWAP3 SWAP2 POP POP JUMP JUMPDEST PUSH1 0x0 PUSH1 0xA0 DUP3 ADD SWAP1 POP DUP2 DUP2 SUB PUSH1 0x0 DUP4 ADD MSTORE PUSH2 0x1E89 DUP2 DUP9 PUSH2 0x1BFE JUMP JUMPDEST SWAP1 POP DUP2 DUP2 SUB PUSH1 0x20 DUP4 ADD MSTORE PUSH2 0x1E9D DUP2 DUP8 PUSH2 0x1BFE JUMP JUMPDEST SWAP1 POP PUSH2 0x1EAC PUSH1 0x40 DUP4 ADD DUP7 PUSH2 0x1D53 JUMP JUMPDEST PUSH2 0x1EB9 PUSH1 0x60 DUP4 ADD DUP6 PUSH2 0x1D2D JUMP JUMPDEST PUSH2 0x1EC6 PUSH1 0x80 DUP4 ADD DUP5 PUSH2 0x1D2D JUMP JUMPDEST SWAP7 SWAP6 POP POP POP POP POP POP JUMP JUMPDEST PUSH1 0x0 PUSH1 0x20 DUP3 ADD SWAP1 POP DUP2 DUP2 SUB PUSH1 0x0 DUP4 ADD MSTORE PUSH2 0x1EE9 DUP2 PUSH2 0x1C7E JUMP JUMPDEST SWAP1 POP SWAP2 SWAP1 POP JUMP JUMPDEST PUSH1 0x0 PUSH1 0x20 DUP3 ADD SWAP1 POP DUP2 DUP2 SUB PUSH1 0x0 DUP4 ADD MSTORE PUSH2 0x1F09 DUP2 PUSH2 0x1CA1 JUMP JUMPDEST SWAP1 POP SWAP2 SWAP1 POP JUMP JUMPDEST PUSH1 0x0 PUSH1 0x20 DUP3 ADD SWAP1 POP DUP2 DUP2 SUB PUSH1 0x0 DUP4 ADD MSTORE PUSH2 0x1F29 DUP2 PUSH2 0x1CC4 JUMP JUMPDEST SWAP1 POP SWAP2 SWAP1 POP JUMP JUMPDEST PUSH1 0x0 PUSH1 0x20 DUP3 ADD SWAP1 POP DUP2 DUP2 SUB PUSH1 0x0 DUP4 ADD MSTORE PUSH2 0x1F49 DUP2 PUSH2 0x1CE7 JUMP JUMPDEST SWAP1 POP SWAP2 SWAP1 POP JUMP JUMPDEST PUSH1 0x0 PUSH1 0x20 DUP3 ADD SWAP1 POP DUP2 DUP2 SUB PUSH1 0x0 DUP4 ADD MSTORE PUSH2 0x1F69 DUP2 PUSH2 0x1D0A JUMP JUMPDEST SWAP1 POP SWAP2 SWAP1 POP JUMP JUMPDEST PUSH1 0x0 PUSH1 0x20 DUP3 ADD SWAP1 POP PUSH2 0x1F85 PUSH1 0x0 DUP4 ADD DUP5 PUSH2 0x1D2D JUMP JUMPDEST SWAP3 SWAP2 POP POP JUMP JUMPDEST PUSH1 0x0 PUSH2 0x1F95 PUSH2 0x1FA6 JUMP JUMPDEST SWAP1 POP PUSH2 0x1FA1 DUP3 DUP3 PUSH2 0x215C JUMP JUMPDEST SWAP2 SWAP1 POP JUMP JUMPDEST PUSH1 0x0 PUSH1 0x40 MLOAD SWAP1 POP SWAP1 JUMP JUMPDEST PUSH1 0x0 PUSH8 0xFFFFFFFFFFFFFFFF DUP3 GT ISZERO PUSH2 0x1FCB JUMPI PUSH2 0x1FCA PUSH2 0x22FA JUMP JUMPDEST JUMPDEST PUSH2 0x1FD4 DUP3 PUSH2 0x233D JUMP JUMPDEST SWAP1 POP PUSH1 0x20 DUP2 ADD SWAP1 POP SWAP2 SWAP1 POP JUMP JUMPDEST PUSH1 0x0 DUP2 SWAP1 POP DUP2 PUSH1 0x0 MSTORE PUSH1 0x20 PUSH1 0x0 KECCAK256 SWAP1 POP SWAP2 SWAP1 POP JUMP JUMPDEST PUSH1 0x0 DUP2 MLOAD SWAP1 POP SWAP2 SWAP1 POP JUMP JUMPDEST PUSH1 0x0 DUP3 DUP3 MSTORE PUSH1 0x20 DUP3 ADD SWAP1 POP SWAP3 SWAP2 POP POP JUMP JUMPDEST PUSH1 0x0 PUSH2 0x201D DUP3 PUSH2 0x20CE JUMP JUMPDEST SWAP2 POP PUSH2 0x2028 DUP4 PUSH2 0x20CE JUMP JUMPDEST SWAP3 POP DUP3 PUSH32 0xFFFFFFFFFFFFFFFFFFFFFFFFFFFFFFFFFFFFFFFFFFFFFFFFFFFFFFFFFFFFFFFF SUB DUP3 GT ISZERO PUSH2 0x205D JUMPI PUSH2 0x205C PUSH2 0x223E JUMP JUMPDEST JUMPDEST DUP3 DUP3 ADD SWAP1 POP SWAP3 SWAP2 POP POP JUMP JUMPDEST PUSH1 0x0 PUSH2 0x2073 DUP3 PUSH2 0x20CE JUMP JUMPDEST SWAP2 POP PUSH2 0x207E DUP4 PUSH2 0x20CE JUMP JUMPDEST SWAP3 POP DUP3 DUP3 LT ISZERO PUSH2 0x2091 JUMPI PUSH2 0x2090 PUSH2 0x223E JUMP JUMPDEST JUMPDEST DUP3 DUP3 SUB SWAP1 POP SWAP3 SWAP2 POP POP JUMP JUMPDEST PUSH1 0x0 PUSH2 0x20A7 DUP3 PUSH2 0x20AE JUMP JUMPDEST SWAP1 POP SWAP2 SWAP1 POP JUMP JUMPDEST PUSH1 0x0 PUSH20 0xFFFFFFFFFFFFFFFFFFFFFFFFFFFFFFFFFFFFFFFF DUP3 AND SWAP1 POP SWAP2 SWAP1 POP JUMP JUMPDEST PUSH1 0x0 DUP2 SWAP1 POP SWAP2 SWAP1 POP JUMP JUMPDEST PUSH1 0x0 PUSH4 0xFFFFFFFF DUP3 AND SWAP1 POP SWAP2 SWAP1 POP JUMP JUMPDEST DUP3 DUP2 DUP4 CALLDATACOPY PUSH1 0x0 DUP4 DUP4 ADD MSTORE POP POP POP JUMP JUMPDEST PUSH1 0x0 JUMPDEST DUP4 DUP2 LT ISZERO PUSH2 0x2115 JUMPI DUP1 DUP3 ADD MLOAD DUP2 DUP5 ADD MSTORE PUSH1 0x20 DUP2 ADD SWAP1 POP PUSH2 0x20FA JUMP JUMPDEST DUP4 DUP2 GT ISZERO PUSH2 0x2124 JUMPI PUSH1 0x0 DUP5 DUP5 ADD MSTORE JUMPDEST POP POP POP POP JUMP JUMPDEST PUSH1 0x0 PUSH1 0x2 DUP3 DIV SWAP1 POP PUSH1 0x1 DUP3 AND DUP1 PUSH2 0x2142 JUMPI PUSH1 0x7F DUP3 AND SWAP2 POP JUMPDEST PUSH1 0x20 DUP3 LT DUP2 EQ ISZERO PUSH2 0x2156 JUMPI PUSH2 0x2155 PUSH2 0x229C JUMP JUMPDEST JUMPDEST POP SWAP2 SWAP1 POP JUMP JUMPDEST PUSH2 0x2165 DUP3 PUSH2 0x233D JUMP JUMPDEST DUP2 ADD DUP2 DUP2 LT PUSH8 0xFFFFFFFFFFFFFFFF DUP3 GT OR ISZERO PUSH2 0x2184 JUMPI PUSH2 0x2183 PUSH2 0x22FA JUMP JUMPDEST JUMPDEST DUP1 PUSH1 0x40 MSTORE POP POP POP JUMP JUMPDEST PUSH1 0x0 PUSH2 0x2198 DUP3 PUSH2 0x20CE JUMP JUMPDEST SWAP2 POP PUSH32 0xFFFFFFFFFFFFFFFFFFFFFFFFFFFFFFFFFFFFFFFFFFFFFFFFFFFFFFFFFFFFFFFF DUP3 EQ ISZERO PUSH2 0x21CB JUMPI PUSH2 0x21CA PUSH2 0x223E JUMP JUMPDEST JUMPDEST PUSH1 0x1 DUP3 ADD SWAP1 POP SWAP2 SWAP1 POP JUMP JUMPDEST PUSH1 0x0 PUSH2 0x21E1 DUP3 PUSH2 0x20D8 JUMP JUMPDEST SWAP2 POP PUSH4 0xFFFFFFFF DUP3 EQ ISZERO PUSH2 0x21F8 JUMPI PUSH2 0x21F7 PUSH2 0x223E JUMP JUMPDEST JUMPDEST PUSH1 0x1 DUP3 ADD SWAP1 POP SWAP2 SWAP1 POP JUMP JUMPDEST PUSH1 0x0 DUP2 SWAP1 POP SWAP2 SWAP1 POP JUMP JUMPDEST PUSH1 0x0 PUSH2 0x2218 DUP3 PUSH2 0x20CE JUMP JUMPDEST SWAP2 POP PUSH2 0x2223 DUP4 PUSH2 0x20CE JUMP JUMPDEST SWAP3 POP DUP3 PUSH2 0x2233 JUMPI PUSH2 0x2232 PUSH2 0x226D JUMP JUMPDEST JUMPDEST DUP3 DUP3 MOD SWAP1 POP SWAP3 SWAP2 POP POP JUMP JUMPDEST PUSH32 0x4E487B7100000000000000000000000000000000000000000000000000000000 PUSH1 0x0 MSTORE PUSH1 0x11 PUSH1 0x4 MSTORE PUSH1 0x24 PUSH1 0x0 REVERT JUMPDEST PUSH32 0x4E487B7100000000000000000000000000000000000000000000000000000000 PUSH1 0x0 MSTORE PUSH1 0x12 PUSH1 0x4 MSTORE PUSH1 0x24 PUSH1 0x0 REVERT JUMPDEST PUSH32 0x4E487B7100000000000000000000000000000000000000000000000000000000 PUSH1 0x0 MSTORE PUSH1 0x22 PUSH1 0x4 MSTORE PUSH1 0x24 PUSH1 0x0 REVERT JUMPDEST PUSH32 0x4E487B7100000000000000000000000000000000000000000000000000000000 PUSH1 0x0 MSTORE PUSH1 0x32 PUSH1 0x4 MSTORE PUSH1 0x24 PUSH1 0x0 REVERT JUMPDEST PUSH32 0x4E487B7100000000000000000000000000000000000000000000000000000000 PUSH1 0x0 MSTORE PUSH1 0x41 PUSH1 0x4 MSTORE PUSH1 0x24 PUSH1 0x0 REVERT JUMPDEST PUSH1 0x0 DUP1 REVERT JUMPDEST PUSH1 0x0 DUP1 REVERT JUMPDEST PUSH1 0x0 DUP1 REVERT JUMPDEST PUSH1 0x0 DUP1 REVERT JUMPDEST PUSH1 0x0 PUSH1 0x1F NOT PUSH1 0x1F DUP4 ADD AND SWAP1 POP SWAP2 SWAP1 POP JUMP JUMPDEST PUSH32 0x536F6C6F2073652070756564652074656E657220756E20636F63686520706F72 PUSH1 0x0 DUP3 ADD MSTORE PUSH32 0x20706572736F6E61000000000000000000000000000000000000000000000000 PUSH1 0x20 DUP3 ADD MSTORE POP JUMP JUMPDEST PUSH32 0x4F776E61626C653A206E6577206F776E657220697320746865207A65726F2061 PUSH1 0x0 DUP3 ADD MSTORE PUSH32 0x6464726573730000000000000000000000000000000000000000000000000000 PUSH1 0x20 DUP3 ADD MSTORE POP JUMP JUMPDEST PUSH32 0x4E6F2068617920636F6368657320737566696369656E74657320706172612069 PUSH1 0x0 DUP3 ADD MSTORE PUSH32 0x6E696369617220756E6120636172726572610000000000000000000000000000 PUSH1 0x20 DUP3 ADD MSTORE POP JUMP JUMPDEST PUSH32 0x4F776E61626C653A2063616C6C6572206973206E6F7420746865206F776E6572 PUSH1 0x0 DUP3 ADD MSTORE POP JUMP JUMPDEST PUSH32 0x456C20636F6368652067616E61646F722065733A200000000000000000000000 PUSH1 0x0 DUP3 ADD MSTORE POP JUMP JUMPDEST PUSH2 0x2496 DUP2 PUSH2 0x209C JUMP JUMPDEST DUP2 EQ PUSH2 0x24A1 JUMPI PUSH1 0x0 DUP1 REVERT JUMPDEST POP JUMP JUMPDEST PUSH2 0x24AD DUP2 PUSH2 0x20CE JUMP JUMPDEST DUP2 EQ PUSH2 0x24B8 JUMPI PUSH1 0x0 DUP1 REVERT JUMPDEST POP JUMP INVALID LOG2 PUSH5 0x6970667358 0x22 SLT KECCAK256 0xAE 0xDC XOR PUSH30 0x2C153A9842A22EC4B617AD21064DA0F7E8B0FD36D4DD90602D93F1FD6473 PUSH16 0x6C634300080700330000000000000000 "
		},
		"gasEstimates": {
			"creation": {
				"codeDepositCost": "1891400",
				"executionCost": "infinite",
				"totalCost": "infinite"
			},
			"external": {
				"Apostar(uint256)": "infinite",
				"_owner()": "2555",
				"anadirCoche(string,string,string)": "infinite",
				"cocheDePropietario(uint256)": "2839",
				"comprarCoche(address,string,string)": "infinite",
				"listaCoches(uint256)": "infinite",
				"numeroCochesPersona(address)": "2837",
				"owner()": "2544",
				"renounceOwnership()": "30485",
				"subirDeNivel(address)": "infinite",
				"transferOwnership(address)": "30833",
				"verCochePropietario(address)": "infinite"
			},
			"internal": {
				"_depositoLleno(struct CarreraCoches.Coche storage pointer)": "2142",
				"_repostando(struct CarreraCoches.Coche storage pointer)": "infinite",
				"balance()": "infinite",
				"numAleatorio(uint256)": "infinite"
			}
		},
		"methodIdentifiers": {
			"Apostar(uint256)": "6b6f0494",
			"_owner()": "b2bdfa7b",
			"anadirCoche(string,string,string)": "2458c544",
			"cocheDePropietario(uint256)": "858b0554",
			"comprarCoche(address,string,string)": "049a5f65",
			"listaCoches(uint256)": "d735573d",
			"numeroCochesPersona(address)": "1c6743e4",
			"owner()": "8da5cb5b",
			"renounceOwnership()": "715018a6",
			"subirDeNivel(address)": "6a7d1816",
			"transferOwnership(address)": "f2fde38b",
			"verCochePropietario(address)": "e172fca8"
		}
	},
	"abi": [
		{
			"anonymous": false,
			"inputs": [
				{
					"indexed": true,
					"internalType": "address",
					"name": "previousOwner",
					"type": "address"
				},
				{
					"indexed": true,
					"internalType": "address",
					"name": "newOwner",
					"type": "address"
				}
			],
			"name": "OwnershipTransferred",
			"type": "event"
		},
		{
			"anonymous": false,
			"inputs": [
				{
					"indexed": false,
					"internalType": "string",
					"name": "mo",
					"type": "string"
				},
				{
					"indexed": false,
					"internalType": "string",
					"name": "ma",
					"type": "string"
				},
				{
					"indexed": false,
					"internalType": "uint32",
					"name": "niv",
					"type": "uint32"
				},
				{
					"indexed": false,
					"internalType": "uint256",
					"name": "carrGan",
					"type": "uint256"
				},
				{
					"indexed": false,
					"internalType": "uint256",
					"name": "carrTot",
					"type": "uint256"
				}
			],
			"name": "cochePropietario",
			"type": "event"
		},
		{
			"anonymous": false,
			"inputs": [
				{
					"indexed": false,
					"internalType": "uint256",
					"name": "compr",
					"type": "uint256"
				}
			],
			"name": "comprobar",
			"type": "event"
		},
		{
			"anonymous": false,
			"inputs": [
				{
					"indexed": false,
					"internalType": "string",
					"name": "ms",
					"type": "string"
				}
			],
			"name": "confirmacionDepositoLleno",
			"type": "event"
		},
		{
			"anonymous": false,
			"inputs": [
				{
					"indexed": false,
					"internalType": "string",
					"name": "ms",
					"type": "string"
				},
				{
					"indexed": false,
					"internalType": "uint256",
					"name": "res",
					"type": "uint256"
				}
			],
			"name": "mostrarResultado",
			"type": "event"
		},
		{
			"inputs": [
				{
					"internalType": "uint256",
					"name": "dineroApostar",
					"type": "uint256"
				}
			],
			"name": "Apostar",
			"outputs": [
				{
					"internalType": "string",
					"name": "",
					"type": "string"
				}
			],
			"stateMutability": "payable",
			"type": "function"
		},
		{
			"inputs": [],
			"name": "_owner",
			"outputs": [
				{
					"internalType": "address",
					"name": "",
					"type": "address"
				}
			],
			"stateMutability": "view",
			"type": "function"
		},
		{
			"inputs": [
				{
					"internalType": "string",
					"name": "_modelo",
					"type": "string"
				},
				{
					"internalType": "string",
					"name": "_marca",
					"type": "string"
				},
				{
					"internalType": "string",
					"name": "_nombrePiloto",
					"type": "string"
				}
			],
			"name": "anadirCoche",
			"outputs": [
				{
					"internalType": "uint256",
					"name": "",
					"type": "uint256"
				}
			],
			"stateMutability": "nonpayable",
			"type": "function"
		},
		{
			"inputs": [
				{
					"internalType": "uint256",
					"name": "",
					"type": "uint256"
				}
			],
			"name": "cocheDePropietario",
			"outputs": [
				{
					"internalType": "address",
					"name": "",
					"type": "address"
				}
			],
			"stateMutability": "view",
			"type": "function"
		},
		{
			"inputs": [
				{
					"internalType": "address",
					"name": "_address",
					"type": "address"
				},
				{
					"internalType": "string",
					"name": "_newModelo",
					"type": "string"
				},
				{
					"internalType": "string",
					"name": "_newMarca",
					"type": "string"
				}
			],
			"name": "comprarCoche",
			"outputs": [
				{
					"internalType": "string",
					"name": "",
					"type": "string"
				}
			],
			"stateMutability": "payable",
			"type": "function"
		},
		{
			"inputs": [
				{
					"internalType": "uint256",
					"name": "",
					"type": "uint256"
				}
			],
			"name": "listaCoches",
			"outputs": [
				{
					"internalType": "address",
					"name": "idPiloto",
					"type": "address"
				},
				{
					"internalType": "string",
					"name": "modelo",
					"type": "string"
				},
				{
					"internalType": "string",
					"name": "marca",
					"type": "string"
				},
				{
					"internalType": "string",
					"name": "nombrePiloto",
					"type": "string"
				},
				{
					"internalType": "uint256",
					"name": "carrerasGanadas",
					"type": "uint256"
				},
				{
					"internalType": "uint256",
					"name": "carrerasTotales",
					"type": "uint256"
				},
				{
					"internalType": "uint256",
					"name": "tiempoEspera",
					"type": "uint256"
				},
				{
					"internalType": "uint32",
					"name": "nivel",
					"type": "uint32"
				}
			],
			"stateMutability": "view",
			"type": "function"
		},
		{
			"inputs": [
				{
					"internalType": "address",
					"name": "",
					"type": "address"
				}
			],
			"name": "numeroCochesPersona",
			"outputs": [
				{
					"internalType": "uint256",
					"name": "",
					"type": "uint256"
				}
			],
			"stateMutability": "view",
			"type": "function"
		},
		{
			"inputs": [],
			"name": "owner",
			"outputs": [
				{
					"internalType": "address",
					"name": "",
					"type": "address"
				}
			],
			"stateMutability": "view",
			"type": "function"
		},
		{
			"inputs": [],
			"name": "renounceOwnership",
			"outputs": [],
			"stateMutability": "nonpayable",
			"type": "function"
		},
		{
			"inputs": [
				{
					"internalType": "address",
					"name": "_propietario",
					"type": "address"
				}
			],
			"name": "subirDeNivel",
			"outputs": [
				{
					"internalType": "string",
					"name": "",
					"type": "string"
				}
			],
			"stateMutability": "payable",
			"type": "function"
		},
		{
			"inputs": [
				{
					"internalType": "address",
					"name": "newOwner",
					"type": "address"
				}
			],
			"name": "transferOwnership",
			"outputs": [],
			"stateMutability": "nonpayable",
			"type": "function"
		},
		{
			"inputs": [
				{
					"internalType": "address",
					"name": "_propietario",
					"type": "address"
				}
			],
			"name": "verCochePropietario",
			"outputs": [],
			"stateMutability": "nonpayable",
			"type": "function"
		}
	]
}